1IOSERV   (IOSE00) (09:40) (22MAR04) ORVYL'S JES I/O Subtask                                                                Page  283
0Loc    Object Code    Addr1 Addr2  Stmt Lv Lineno    Source Statement           (Hibal 5, Asmedit 3.3)  HLASM R4.0  2004/03/22 09.40
+___    ______ ____    _____ _____  ____ __ ______    ______ _________
0                                  52110    6461.     *******************************************************************
                                   52111    6462.     *                                                                 *
                                   52112    6463.     *     SNDPCLS  - Routine to CLOSE a SNAPDUMP sysout data set.     *
                                   52113    6464.     *                                                                 *
                                   52114    6465.     *                                                                 *
                                   52115    6466.     *     Input - @SNDPPRM contains token for snap dump data set to   *
                                   52116    6467.     *             be closed                                           *
                                   52117    6468.     *                                                                 *
                                   52118    6469.     *     Output - none                                               *
                                   52119    6470.     *                                                                 *
                                   52120    6471.     *                                                                 *
                                   52121    6472.     *******************************************************************
 0055F6                            52122    6473.     SNDPCLS  PROC  @SNDPPRM,SCOPE=GLOBAL
 0055F6 E2D5C4D7C3D3E240           52128             +
 0055FE 0010/0000                  52129             +
 005602 900F D004/18AF       00004 52131             +
 USING  SNDPCLS,R10
 005608 50D0 C000/18CD       00000 52146             +
 00560E 9680 C000      00000       52148             +
 USING  @SNDPPRM-72,R12
 005612 41D0 C058            00058 52162             +
 005616 5860 9004            00004 52163    6474.              WITH  (RTCB,RTCBR),'L  RX,RTCBCBAT'   CBAT pointer
 USING  RTCB,R9
 DROP   RTCB,R9
 00561A 5860 6054            00054 52187    6475.              WITH  (CBAT,RX),'L  RX,CBATIOCT'      IOCT pointer
 USING  CBAT,R6
 DROP   CBAT,R6
 USING  IOCT,R6                    52211    6476.              WITH  (IOCT,RX)
                                   52224    6477.     *
                                   52225    6478.     *  VALIDATE INPUT TOKEN WHICH IS THE SNDB ADDRESS AGAINST THE SNDB
                                   52226    6479.     *  CHAIN ANCHORED ON IOCTSNPL.
                                   52227    6480.     *
 00561E 5820 C050            00008 52228    6481.              L     RA,@SNDTOKN             Get token (SNDB ptr)
 005622 4140 0004            00004 52229    6482.              LA    RJ,4                    Preload bad return code
 005626 5800 6054            00054 52230    6483.              LOCKOB IOCTSNPL               Get SNDB chain lock
 USING  @LOCKS-72,R13
 00562A 5000 D048            00000 52246             +
 00562E 58F0 ABB6/0DEF       061B8 52249             +
 005634 5810 603C            0003C 52251    6484.              L     RS,IOCTSNDB             SNDB chain
 005638                            52252    6485.     LOOP2    LOOP  BEGIN                   Run SNDB chain
 USING  SNDB,R1                    52259  1 6486.                WITH  (SNDB,RS)
                                   52272  1 6487.     *
                                   52273  1 6488.     *  IF SNDB NOT IN CHAIN BYPASS FURTHER PROCESSING.  RETURN
                                   52274  1 6489.     *  CODE IN RJ WILL BE PASSED BACK TO CALLER.
                                   52275  1 6490.     *
 005638 1211/4780 A050       05652 52276  1 6491.               IF    (RS,Z),EXIT              End of chain
                                   52293  1 6492.     *
                                   52294  1 6493.     *  IF SNDB FOUND, EXIT LOOP WITH A GOOD RETURN CODE AND
                                   52295  1 6494.     *  CONTINUE CLOSE PROCESSING.
                                   52296  1 6495.     *
 00563E 1921/4770 A048       0564A 52297  1 6496.                IF    (RA,EQ,RS),'SR RJ,RJ;EXIT LOOP2'
 005644 1B44/47F0 A050       05652 52313  1          +
 00564A 5810 1008            00008 52321  1 6497.                L     RS,SNDBCHN
 00564E 47F0 A036            05638 52322    6498.              END   ,                       OF Run SNDB chain
 DROP   SNDB,R1
 005652 5800 6054            00054 52332    6499.              LOCKRL IOCTSNPL               Release SNDB chain lock
1IOSERV   (IOSE00) (09:40) (22MAR04) ORVYL'S JES I/O Subtask                                                                Page  284
0Current Usings:  (IOCT,R6) (SNDPCLS,R10) (@SNDPPRM-72,R12) (@LOCKS-72,R13)
0Loc    Object Code    Addr1 Addr2  Stmt Lv Lineno    Source Statement           (Hibal 5, Asmedit 3.3)  HLASM R4.0  2004/03/22 09.40
+___    ______ ____    _____ _____  ____ __ ______    ______ _________
0005656 5000 D048            00000 52341             +
 00565A 58F0 ABBA/0DEF       061BC 52344             +
1IOSERV   (IOSE00) (09:40) (22MAR04) ORVYL'S JES I/O Subtask                                                                Page  285
0Current Usings:  (IOCT,R6) (SNDPCLS,R10) (@SNDPPRM-72,R12) (@LOCKS-72,R13)
0Loc    Object Code    Addr1 Addr2  Stmt Lv Lineno    Source Statement           (Hibal 5, Asmedit 3.3)  HLASM R4.0  2004/03/22 09.40
+___    ______ ____    _____ _____  ____ __ ______    ______ _________
0                                  52347    6501.     *
                                   52348    6502.     * IF THE SNDB WAS FOUND AND VALIDATED, THEN GO CLOSE AND
                                   52349    6503.     * DEALLOCATE SNAP DUMP
                                   52350    6504.     *
 USING  SNDB,R2                    52351    6505.              WITH (SNDB,RA)
 005660 1244/4780 A092       05694 52364    6506.              IF (RJ,NZ),BEGIN              No SNDB found
 005666 0700/4510 A080       05682 52378  1 6507.                WTO   'SNDB NOT FOUND',ROUTCDE=11
 00566C 0012/8000                  52381  1          +
 005670 E2D5C4C240D5D6E3           52383  1          +
 00567E 0000/0020/0A23             52384  1          +
                                   52388  1 6508.     *** FOR THE SHORT TERM, ABEND ORVYL WITH DUMP FOR DEBUGGING
 005684 4110 0001            00001 52389  1 6509.                KAPUT 'NO SNDB AT CLOSE'
 005688 4100 0080            00080 52397  1          +
 00568C 8900 0018/1610       00018 52398  1          +
 005692 0A0D                       52400  1          +
 005694 A096           05694 05664 52401    6510.              END ELSE,BEGIN     END OF No SNDB FOUND; ELSE Check ID
 005694 47F0 A0DA            056DC 52410             +
 AUSING (COMDB,SNDB)               52416  1 6511.                WITH (COMDB,SNDB),'CLC COMDBID,=CL4"SNDB"'
 005698 D503 2000 ABBE 00000 061C0 52427  1          +
 00569E 4780 A0DA            056DC 52431  1 6512.                IF NE,BEGIN                   No SNDB ID
 0056A2 0700/4510 A0C8       056CA 52442  2 6513.                  WTO   'NO SNDB ID FOUND AT CLOSE',ROUTCDE=11
 0056A8 001D/8000                  52445  2          +
 0056AC D5D640E2D5C4C240           52447  2          +
 0056B4 C9C440C6D6E4D5C4                  2          +
 0056C5 0000/0020/0A23             52448  2          +
                                   52452  2 6514.     *** FOR THE SHORT TERM, ABEND ORVYL WITH DUMP FOR DEBUGGING
 0056CC 4110 0001            00001 52453  2 6515.                  KAPUT 'SNDB PTR'
 0056D0 4100 0080            00080 52461  2          +
 0056D4 8900 0018/1610       00018 52462  2          +
 0056DA 0A0D                       52464  2          +
 0056DC                            52465  1 6516.                END   ,                       OF No SNDB ID
 0056DC                            52469    6517.              END   ,                       OF Check ID
 0056DC 5850 200C            0000C 52473    6518.              L     RK,SNDBDCB              Get DCB pointer
 0056E0 1255/4770 A120       05722 52474    6519.              IF    (RK,Z),BEGIN            No DCB POINTER
 0056E6 0700/4510 A10E       05710 52488  1 6520.                WTO   'NO SNAPDUMP DCB PTR AT CLOSE',ROUTCDE=11
 0056EC 0020/8000                  52491  1          +
 0056F0 D5D640E2D5C1D7C4           52493  1          +
 0056F8 E4D4D740C4C3C240                  1          +
 00570C 0000/0020/0A23             52494  1          +
                                   52498  1 6521.     *** FOR THE SHORT TERM, ABEND ORVYL WITH DUMP FOR DEBUGGING
 005712 4110 0001            00001 52499  1 6522.                KAPUT 'NO SNDBDCB AT CLOSE'
 005716 4100 0080            00080 52507  1          +
 00571A 8900 0018/1610       00018 52508  1          +
 005720 0A0D                       52510  1          +
 005722                            52511    6523.              END   ,                       OF No DCB POINTER
 DROP   @LOCKS-72,R13              52515    6524.              MEMGET 8                      Set up
 USING  @MEMGET-72,R13
 005722 D709 D048 D048 00000 00000 52537             +
 005728 4100 0008            00008 52544             +
 00572C 5000 D04C            00004 52545             +
 005730 9211 D051      00009       52555             +
 005734 58F0 ABC2/0DEF       061C4 52558             +
 00573A 1830                       52560    6525.              LR    RB,RVR                   CLOSE
 00573C D703 3000 3000 00000 00000 52561    6526.              XC    0(4,RB),0(RB)
1IOSERV   (IOSE00) (09:40) (22MAR04) ORVYL'S JES I/O Subtask                                                                Page  286
0Current Usings:  (SNDB,R2) (IOCT,R6) (SNDPCLS,R10) (@SNDPPRM-72,R12) (@MEMGET-72,R13)
0Loc    Object Code    Addr1 Addr2  Stmt Lv Lineno    Source Statement           (Hibal 5, Asmedit 3.3)  HLASM R4.0  2004/03/22 09.40
+___    ______ ____    _____ _____  ____ __ ______    ______ _________
0005742 5050 3004            00004 52562    6527.              ST    RK,@RB+4                  Parameter
 005746 9680 3000      00000       52563    6528.              OI    @RB,X'80'                  List
                                   52565          CLOSE MF=(E,(RB)),MODE=31     Do it                            6530.
 00574A 1813                       52567+         LR    1,RB                              LOAD PARAMETER REG 1   02-IHBIN
 00574C 1801                       52568+         LR    0,1                                                 @L1A 01-CLOSE
 00574E 1B11                       52569+         SR    1,1                                                 @L1A 01-CLOSE
 005750 0A14                       52570+         SVC   20                                ISSUE CLOSE SVC        01-CLOSE
 005752 124F/4780 A186       05788 52572    6532.              IF ('LTR RJ,R15',NZ),BEGIN    SNAPDUMP Close Failed
 005758 4510 A174/0019       05776 52585  1 6533.                WTO   'SNAPDUMP CLOSE FAILED'
 00575E 0000                       52589  1          +
 005760 E2D5C1D7C4E4D4D7           52590  1          +
 005776 0A23                       52592  1          +
                                   52593  1 6534.     *** FOR THE SHORT TERM, ABEND ORVYL WITH DUMP FOR DEBUGGING
 005778 4110 0001            00001 52594  1 6535.                KAPUT 'DTCLFAIL'
 00577C 4100 0080            00080 52602  1          +
 005780 8900 0018/1610       00018 52603  1          +
 005786 0A0D                       52605  1          +
 005788                            52606    6536.              END   ,                       OF SNAPDUMP Close Failed
                                   52610    6537.     *
                                   52611    6538.     *  RELEASE CLOSE PARAMETER LIST
                                   52612    6539.     *
 DROP   @MEMGET-72,R13             52613    6540.              MEMFREE 8,A=(RB)                 Free parameter list
 USING  @MEMFREE-72,R13
 005788 D709 D048 D048 00000 00000 52635             +
 00578E 4100 0008            00008 52642             +
 005792 5000 D04C            00004 52643             +
 005796 5030 D048            00000 52644             +
 00579A 9210 D051      00009       52651             +
 00579E 58F0 ABC6/0DEF       061C8 52654             +
                                   52656    6541.     *
                                   52657    6542.     *  RELEASE DCB
                                   52658    6543.     *
 0057A4                            52659    6544.              MEMFREE SNAPDLEN,A=(RK),TYPE=BELOW16M
 0057A4 D709 D048 D048 00000 00000 52671             +
 0057AA 4100 0060            00060 52678             +
 0057AE 5000 D04C            00004 52679             +
 0057B2 5050 D048            00000 52680             +
 0057B6 58F0 ABC6/0DEF       061C8 52683             +
 0057BC                            52685    6545.              CLEAR SNDBDCB                  DCB pointer
 0057BC D703 200C 200C 0000C 0000C 52691             +
                                   52692    6546.     *
                                   52693    6547.     *  RELEASE DCBE
                                   52694    6548.     *
 0057C2 5850 2018            00018 52695    6549.              L     RK,SNDBDCBE
 0057C6                            52696    6550.              MEMFREE SNAPDELN,A=(RK)
 0057C6 D709 D048 D048 00000 00000 52708             +
 0057CC 4100 0038            00038 52715             +
 0057D0 5000 D04C            00004 52716             +
 0057D4 5050 D048            00000 52717             +
 0057D8 9210 D051      00009       52724             +
 0057DC 58F0 ABC6/0DEF       061C8 52727             +
 0057E2                            52729    6551.              CLEAR SNDBDCBE
 0057E2 D703 2018 2018 00018 00018 52735             +
1IOSERV   (IOSE00) (09:40) (22MAR04) ORVYL'S JES I/O Subtask                                                                Page  287
0Current Usings:  (SNDB,R2) (IOCT,R6) (SNDPCLS,R10) (@SNDPPRM-72,R12) (@MEMFREE-72,R13)
0Loc    Object Code    Addr1 Addr2  Stmt Lv Lineno    Source Statement           (Hibal 5, Asmedit 3.3)  HLASM R4.0  2004/03/22 09.40
+___    ______ ____    _____ _____  ____ __ ______    ______ _________
0                                  52737    6553.     *
                                   52738    6554.     *  UNCHAIN SNDB
                                   52739    6555.     *
 0057E8 5800 6054            00054 52740    6556.              LOCKOB IOCTSNPL               Get SNDB chain lock
 DROP   @MEMFREE-72,R13
 USING  @LOCKS-72,R13
 0057EC 5000 D048            00000 52759             +
 0057F0 58F0 ABB6/0DEF       061B8 52762             +
 0057F6 4110 603C            0003C 52764    6557.              LA    RS,IOCTSNDB             SNDB chain anchor
 0057FA 4B10 AC22            06224 52765    6558.              SH    RS,=Y(SNDBCHN-SNDB)     Offset
 0057FE                            52766    6559.              LOOP  BEGIN                   Chase SNDB chain
 DROP   SNDB,R2                    52772  1 6560.                WITH  (SNDB,RS)               Look for ptr to our SNDB
 USING  SNDB,R1
 0057FE 5920 1008            00008 52793  1 6561.                IF    (RA,EQ,SNDBCHN),EXIT    FOUND
 005802 4780 A20C            0580E 52807  1          +
 005806 5810 1008            00008 52813  1 6562.                L     RS,SNDBCHN
 00580A 47F0 A1FC            057FE 52814    6563.              END   ,                       OF Chase SNDB chain
 USING  SNDB,R2
 DROP   SNDB,R1
 00580E 58E0 2008            00008 52833    6564.              L     R14,SNDBCHN             Remove current SNDB
 005812 50E0 1008            00008 52834    6565.              WITH  (SNDB,RS),'ST  R14,SNDBCHN'    from chain
 DROP   SNDB,R2
 USING  SNDB,R1
 USING  SNDB,R2
 DROP   SNDB,R1
 005816 5800 6054            00054 52875    6566.              LOCKRL IOCTSNPL               Release SNDB chain lock
 00581A 5000 D048            00000 52884             +
 00581E 58F0 ABBA/0DEF       061BC 52887             +
1IOSERV   (IOSE00) (09:40) (22MAR04) ORVYL'S JES I/O Subtask                                                                Page  288
0Current Usings:  (SNDB,R2) (IOCT,R6) (SNDPCLS,R10) (@SNDPPRM-72,R12) (@LOCKS-72,R13)
0Loc    Object Code    Addr1 Addr2  Stmt Lv Lineno    Source Statement           (Hibal 5, Asmedit 3.3)  HLASM R4.0  2004/03/22 09.40
+___    ______ ____    _____ _____  ____ __ ______    ______ _________
0                                  52891    6569.     *
                                   52892    6570.     *  RELEASE SNDB THEN RETURN
                                   52893    6571.     *
 DROP   @LOCKS-72,R13              52894    6572.              MEMFREE L'SNDB,A=(RA),TYPE=GLOBAL
 USING  @MEMFREE-72,R13
 005824 D709 D048 D048 00000 00000 52916             +
 00582A 4100 001C            0001C 52923             +
 00582E 5000 D04C            00004 52924             +
 005832 5020 D048            00000 52925             +
 005836 9212 D051      00009       52935             +
 00583A 58F0 ABC6/0DEF       061C8 52938             +
 005840 1804                       52940    6573.              LR    RVR,RJ                  SET RETURN CODE
 005842 981F C008            00008 52941    6574.              PEND
 DROP   SNDB,R2
 DROP   IOCT,R6
 DROP   @SNDPPRM-72,R12
 DROP   SNDPCLS,R10
 005846 9680 C000/0B0E 00000       52966             +
 DROP   @MEMFREE-72,R13
1IOSERV   (IOSE00) (09:40) (22MAR04) ORVYL'S MVS Data Set Subtask                                                           Page  289
0Loc    Object Code    Addr1 Addr2  Stmt Lv Lineno    Source Statement           (Hibal 5, Asmedit 3.3)  HLASM R4.0  2004/03/22 09.40
+___    ______ ____    _____ _____  ____ __ ______    ______ _________
0                                  52977    6577.     *******************************************************************
                                   52978    6578.     *                                                                 *
                                   52979    6579.     *    MVIWORK - MVS I/O sub-task work area                         *
                                   52980    6580.     *                                                                 *
                                   52981    6581.     *******************************************************************
0000000                00000 0000C 52983    6583.     MVIWORK  RECORD BEGIN
 000000                            52991  1 6584.     MVIMCHN    DS    A                       MESSAGE CHANNEL ID
 000004                            52992  1 6585.     MVIMECB    DS    A                       MESSAGE CHANNEL ECB
 000008                            52993  1 6586.     MVIIOCT    DS    A                       IOCT ADDRESS
 00000C                0000C 0000C 52994    6587.              END
-
                                   53004    6589.     *******************************************************************
                                   53005    6590.     *                                                                 *
                                   53006    6591.     *      MVIOMSG - MVS I/O Services Message Buffers                 *
                                   53007    6592.     *                                                                 *
                                   53008    6593.     *******************************************************************
0000000                00000 00010 53010    6595.     $MVIOCOM RECORD BEGIN
 000000                            53018  1 6596.     $MVIDSID   DS    A                       Device ID
 000004                            53019  1 6597.     $MVIRQID   DS    A                       Request ID
 000008                            53020  1 6598.     $MVIOFF    DS    A                       Offset to convert addresses
 00000C                            53021  1 6599.     $MVIFUNC   DS    A                       Function code
                                   53022  1 6600.
                                   53023  1 6601.     $MVIFPFO   EQU   4                       Page or file open
                                   53024  1 6602.     $MVIFPFC   EQU   8                       Page or file close
                                   53025  1 6603.     $MVIFPFR   EQU   12                      Page or file reset
                                   53026  1 6604.     $MVIFOSO   EQU   16                      OS file open
                                   53027  1 6605.     $MVIFOSC   EQU   20                      OS file close
                                   53028  1 6606.     $MVIFOSR   EQU   24                      OS file read
                                   53029  1 6607.     $MVIFOSW   EQU   28                      OS file write
 000010                00010 00010 53030    6608.              END   ,
                                   53039    6609.     *
                                   53040    6610.     *  Message for Page, Swap, and File Opens
                                   53041    6611.     *
 000000                00000 00018 53042    6612.     $MVIPSFO RECORD BEGIN
 000000                            53050  1 6613.                DS    XL(L'$MVIOCOM)
 000010                            53051  1 6614.     $MPFALLO   DS    A                       Page/file allocate parms
 000014                            53052  1 6615.     $MPFINFO   DS    A                       Page/file info block
 000018                00018 00018 53053    6616.              END
1IOSERV   (IOSE00) (09:40) (22MAR04) ORVYL'S MVS Data Set Subtask                                                           Page  290
0Loc    Object Code    Addr1 Addr2  Stmt Lv Lineno    Source Statement           (Hibal 5, Asmedit 3.3)  HLASM R4.0  2004/03/22 09.40
+___    ______ ____    _____ _____  ____ __ ______    ______ _________
0                                  53063    6618.     *******************************************************************
                                   53064    6619.     *                                                                 *
                                   53065    6620.     *    MVIOPARM - Parameters passed to I/O drivers                  *
                                   53066    6621.     *                                                                 *
                                   53067    6622.     *******************************************************************
0000000                00000 00004 53069    6624.     @MVIO    RECORD BEGIN
 000000                            53077  1 6625.     @MVIMSG    DS    A                       MESSAGE BUFFER POINTER
 000004                00004 00004 53078    6626.              END   ,
-
                                   53088    6628.     *******************************************************************
                                   53089    6629.     *                                                                 *
                                   53090    6630.     *    FUNCTION TABLE                                               *
                                   53091    6631.     *                                                                 *
                                   53092    6632.     *******************************************************************
0006238                06238 06A98 53094    6634.              DATA  BEGIN
 006238 00000000                   53099  1 6635.     FUNCTAB    DC    A(0)
 00623C 00005978                   53100  1 6636.                DC    A(PFOPEN)
 006240 00005D3C                   53101  1 6637.                DC    A(PFCLOSE)
                                   53102  1 6638.     *         DC    A(PFRESET)
                                   53103  1 6639.     *         DC    A(OSFOPEN)
                                   53104  1 6640.     *         DC    A(OSFCLOSE)
                                   53105  1 6641.     *         DC    A(OSFREAD)
                                   53106  1 6642.     *         DC    A(OSFWRITE)
                                   53107  1 6643.     FUNCMAX    EQU   *-FUNCTAB-4             MAXIMUM
 00584C                05441 06A98 53108    6644.              END   ,
1IOSERV   (IOSE00) (09:40) (22MAR04) ORVYL'S MVS Data Set Subtask                                                           Page  291
0Loc    Object Code    Addr1 Addr2  Stmt Lv Lineno    Source Statement           (Hibal 5, Asmedit 3.3)  HLASM R4.0  2004/03/22 09.40
+___    ______ ____    _____ _____  ____ __ ______    ______ _________
0                                  53115    6646.     *******************************************************************
                                   53116    6647.     *                                                                 *
                                   53117    6648.     *   MVSIOTSK - MVS I/O services                                   *
                                   53118    6649.     *                                                                 *
                                   53119    6650.     *                                                                 *
                                   53120    6651.     *     Input -                                                     *
                                   53121    6652.     *                                                                 *
                                   53122    6653.     *    Output -                                                     *
                                   53123    6654.     *                                                                 *
                                   53124    6655.     *                                                                 *
                                   53125    6656.     *******************************************************************
-
 00584C                            53127    6658.     MVSIOTSK PROC  SBTPARM,SCOPE=LOCAL
 00584C D4E5E2C9D6E3E2D2           53132             +
 005854 0008/0000                  53133             +
 005858 900F D004/18AF       00004 53135             +
 USING  MVSIOTSK,R10
 00585E 50D0 C000/18CD       00000 53150             +
 005864 9680 C000      00000       53152             +
 USING  SBTPARM-72,R12
 005868 41D0 C050            00050 53166             +
 USING  @MEMGET-72,R13             53167    6659.              MEMGET L'MVIWORK,TYPE=LOCAL   GET WORK AREA
 00586C D709 D048 D048 00000 00000 53186             +
 005872 4100 000C            0000C 53193             +
 005876 5000 D04C            00004 53194             +
 00587A 9211 D051      00009       53204             +
 00587E 58F0 A96C/0DEF       061C4 53207             +
 005884 1270/4770 A042       0589A 53209    6660.              IF    ('LTR RY,RVR',Z),'KAPUT MVIWORK'
 00588A 4110 0001            00001 53225  1 03-KAPUT +*,THIS FUNCTION IS NOT IMPLEMENTED
 00588E 4100 0080            00080 53231  1          +
 005892 8900 0018/1610       00018 53232  1          +
 005898 0A0D                       53234             +
 USING  MVIWORK,R7                 53239    6661.              WITH  (MVIWORK,RY)
 00589A 5820 C048            00000 53252    6662.              L     RA,SBTDATA              IOCT pointer
 00589E 5020 7008            00008 53253    6663.              ST    RA,MVIIOCT              Save it
 USING  IOCT,R2                    53254    6664.              WITH  (IOCT,RA),BEGIN
 USING  RTCB,R9                    53268  1 6665.                WITH  (RTCB,RTCBR)
 0058A2 D203 2080 9014 00080 00014 53281  1 6666.                MVC   IOCTMTCB,RTCBTCB        Save TCB pointer
 DROP   RTCB,R9                    53282    6667.              END
 DROP   IOCT,R2
 DROP   @MEMGET-72,R13             53295    6668.              MSGATT MVSIOTSK,TYPE=SERV     Open channel
 USING  @MSGATT-72,R13
 0058A8 D207 D048 A948 00000 061A0 53310             +
 0058AE 58F0 A974/0DEF       061CC 53313             +
 0058B4 5000 7000            00000 53315    6669.              ST    RVR,MVIMCHN             MESSAGE CHANNEL ID
 0058B8 5810 D050            00008 53316    6670.              L     RS,@MSGCECB             MESSAGE ECB
 0058BC 5010 7004            00004 53317    6671.              ST    RS,MVIMECB              SET POINTER
1IOSERV   (IOSE00) (09:40) (22MAR04) ORVYL'S MVS Data Set Subtask                                                           Page  292
0Current Usings:  (MVIWORK,R7) (MVSIOTSK,R10) (SBTPARM-72,R12) (@MSGATT-72,R13)
0Loc    Object Code    Addr1 Addr2  Stmt Lv Lineno    Source Statement           (Hibal 5, Asmedit 3.3)  HLASM R4.0  2004/03/22 09.40
+___    ______ ____    _____ _____  ____ __ ______    ______ _________
0                                  53319    6673.     *
                                   53320    6674.     *  MVS I/O TASK LOOP
                                   53321    6675.     *
 0058C0                            53322    6676.              LOOP  BEGIN
 DROP   @MSGATT-72,R13             53328  1 6677.                FWAIT MVIMECB                 FAST WAIT (BRANCH ENTRY)
 USING  @FWAIT-72,R13
 0058C0 D703 D048 D048 00000 00000 53349  1          +
 0058C6 58E0 7004            00004 53353  1          +
 0058CA 50E0 D048            00000 53354  1          +
 0058CE 58F0 A978/0DEF       061D0 53357  1          +
 0058D4 5810 7004            00004 53359  1 6678.                L     RS,MVIMECB              ECB POINTER
 0058D8                            53360  1 6679.                CLEAR (@RS,4)                 CLEAR IT
 0058D8 D703 1000 1000 00000 00000 53366  1          +
 0058DE 5800 7000            00000 53367  1 6680.                MSGRECV MVIMCHN               RECEIVE A MESSAGE
 DROP   @FWAIT-72,R13
 USING  @MSGRECV-72,R13
 0058E2 5000 D048            00000 53386  1          +
 0058E6 58F0 A97C/0DEF       061D4 53389  1          +
 0058EC 1240/4780 A068       058C0 53391  1 6681.                IF    ('LTR  RJ,RVR',Z),NEXT   NO MORE TO GET
 DROP   @MSGRECV-72,R13            53407  1 6682.                PSET  @MVIO
 USING  @MVIO-72,R13
 0058F2 D703 D048 D048 00000 00000 53427  1          +
 0058F8 5040 D048            00000 53428  1 6683.                ST    RJ,@MVIMSG              PASS MESSAGE BUFFER POINTER
 USING  $MVIOCOM,R4                53429  1 6684.                WITH  ($MVIOCOM,RJ)
 0058FC 5810 400C            0000C 53442  1 6685.                L     RS,$MVIFUNC             FUNCTION CODE
 005900 1211/4770 A0BE       05916 53443  1 6686.                IF    (RS,Z),'KAPUT MVIOFNZ'
 005906 4110 0001            00001 53460  2 03-KAPUT +*,THIS FUNCTION IS NOT IMPLEMENTED
 00590A 4100 0080            00080 53466  2          +
 00590E 8900 0018/1610       00018 53467  2          +
 005914 0A0D                       53469  1          +
 005916 5910 A980            061D8 53474  1 6687.                IF    (RS,GT,FUNCMAX),'KAPUT MVIOFNHI'
 00591A 47D0 A0D6            0592E 53486  1          +
 00591E 4110 0001            00001 53499  2          +
 005922 4100 0080            00080 53500  2          +
 005926 8900 0018/1610       00018 53501  2          +
 00592C 0A0D                       53503  1          +
 00592E 58F1 A9E0/0DEF       06238 53508  1 6688.                ACALL FUNCTAB(RS)             FUNCTION ROUTINE
                                   53515  1 6689.     *
                                   53516  1 6690.     *  NOTIFY GUEST MACHINE OF COMPLETION
                                   53517  1 6691.     *
 DROP   @MVIO-72,R13               53518  1 6692.                PSET  @GSTIIOT
 USING  @GSTIIOT-72,R13
 005934 D707 D048 D048 00000 00000 53538  1          +
 00593A 5000 D04C            00004 53539  1 6693.                ST    RVR,@GSTICS             Completion status
 00593E D203 D048 4004 00000 00004 53540  1 6694.                MVC   @GSTIRQI,$MVIRQID       Request ID
 005944 58F0 A984/0DEF       061DC 53541  1 6695.                VCALL GSTIIOT                 NOTIFY THE USER
1IOSERV   (IOSE00) (09:40) (22MAR04) ORVYL'S MVS Data Set Subtask                                                           Page  293
0Current Usings:  ($MVIOCOM,R4) (MVIWORK,R7) (MVSIOTSK,R10) (SBTPARM-72,R12) (@GSTIIOT-72,R13)
0Loc    Object Code    Addr1 Addr2  Stmt Lv Lineno    Source Statement           (Hibal 5, Asmedit 3.3)  HLASM R4.0  2004/03/22 09.40
+___    ______ ____    _____ _____  ____ __ ______    ______ _________
0                                  53546  1 6697.     *
                                   53547  1 6698.     *  FREE THE MESSAGE BUFFER
                                   53548  1 6699.     *
 00594A 5800 7000            00000 53549  1 6700.                MSGFREE MVIMCHN,(RJ)          FREE MESSAGE BUFFER
 DROP   @GSTIIOT-72,R13
 USING  @MSGFREE-72,R13
 00594E 5000 D048/1804       00000 53568  1          +
 005954 5000 D04C            00004 53573  1          +
 005958 58F0 A988/0DEF       061E0 53576  1          +
 00595E 47F0 A068            058C0 53578    6701.              END
 DROP   $MVIOCOM,R4
 005962 981F C008            00008 53588    6702.              PEND
 DROP   MVIWORK,R7
 DROP   SBTPARM-72,R12
 DROP   MVSIOTSK,R10
 005966 9680 C000/0B0E 00000       53608             +
 DROP   @MSGFREE-72,R13
1IOSERV   (IOSE00) (09:40) (22MAR04) ORVYL'S MVS Data Set Subtask                                                           Page  294
0Loc    Object Code    Addr1 Addr2  Stmt Lv Lineno    Source Statement           (Hibal 5, Asmedit 3.3)  HLASM R4.0  2004/03/22 09.40
+___    ______ ____    _____ _____  ____ __ ______    ______ _________
0                                  53618    6704.     *******************************************************************
                                   53619    6705.     *                                                                 *
                                   53620    6706.     *    PFODCB - ORVYL Page and File System DCB                      *
                                   53621    6707.     *                                                                 *
                                   53622    6708.     *******************************************************************
0006244                06238 06A98 53624    6710.              DATA  BEGIN
                                   53630  1 6712.     PFDCB      DCB   MACRF=(E)
                                   53633  1 02-IHBER +*,***  IHB061  DDNAME NOT SPECIFIED
0                                  53635  1          +*                       DATA CONTROL BLOCK
                                   53636  1          +*
 006244                            53637  1 01-DCB   +PFDCB      DS    0F'0'          ORIGIN ON WORD BOUNDARY
 006244                06244 0626C 53638  1 01-DCB   +           ORG   *+40           TO ORIGIN GENERATION
                                   53639  1          +*                       FOUNDATION BLOCK
 00626C F040404040404040           53640  1 01-DCB   +           DC    CL8'0'         DDNAME
 006274 02                         53641  1 01-DCB   +           DC    BL1'00000010'  OFLGS (OPEN FLAGS)
 006275 00                         53642  1 01-DCB   +           DC    BL1'00000000'  IFLGS (IOS FLAGS)
 006276 8000                       53643  1 01-DCB   +           DC    BL2'1000000000000000' MACR (MACRO FORMAT)
 00596C                05441 06A98 53646    6714.              END   ,
1IOSERV   (IOSE00) (09:40) (22MAR04) ORVYL'S MVS Data Set Subtask                                                           Page  295
0Loc    Object Code    Addr1 Addr2  Stmt Lv Lineno    Source Statement           (Hibal 5, Asmedit 3.3)  HLASM R4.0  2004/03/22 09.40
+___    ______ ____    _____ _____  ____ __ ______    ______ _________
0                                  53653    6716.     *******************************************************************
                                   53654    6717.     *                                                                 *
                                   53655    6718.     *   PFOPEN  - Open ORVYL Page and File System data sets           *
                                   53656    6719.     *                                                                 *
                                   53657    6720.     *                                                                 *
                                   53658    6721.     *     Input - @PFALLO                                             *
                                   53659    6722.     *                                                                 *
                                   53660    6723.     *    Output - #PFINFO                                             *
                                   53661    6724.     *                                                                 *
                                   53662    6725.     *                                                                 *
                                   53663    6726.     *******************************************************************
-
 00596C                            53665    6728.     PFOPEN   PROC  @MVIO,SCOPE=LOCAL
 00596C D7C6D6D7C5D54040           53670             +
 005974 0008/0000                  53671             +
 005978 900F D004/18AF       00004 53673             +
 USING  PFOPEN,R10
 00597E 50D0 C000/18CD       00000 53688             +
 005984 9680 C000      00000       53690             +
 USING  @MVIO-72,R12
 005988 41D0 C050            00050 53704             +
 00598C 5870 C048            00000 53705    6729.              L     RY,@MVIMSG              USER PARAMETERS
 USING  $MVIOCOM,R7                53706    6730.              WITH  ($MVIOCOM,RY)
 005990 5850 7000            00000 53719    6731.              L     RK,$MVIDSID             DDB POINTER
 USING  DDB,R5                     53720    6732.              WITH  (DDB,RK)
 AUSING (COMDB,DDB)                53733    6733.              WITH  (COMDB,DDB),'CLC  COMDBID,=CL4"DDB"'
 005994 D503 5000 A86C 00000 061E4 53744             +
 00599A 4780 A036            059AE 53748    6734.              IF    NE,'KAPUT DDBPTR'
 00599E 4110 0001            00001 53767  1          +
 0059A2 4100 0080            00080 53768  1          +
 0059A6 8900 0018/1610       00018 53769  1          +
 0059AC 0A0D                       53771             +
                                   53776    6735.     *
                                   53777    6736.     *  FIRST DO ALLOCATE
                                   53778    6737.     *
 DROP   $MVIOCOM,R7                53779    6738.              WITH  ($MVIPSFO,RY)
 USING  $MVIPSFO,R7
 0059AE 5860 7010            00010 53795    6739.              L     RX,$MPFALLO             ALLOCATION PARMS
 USING  @DSALLO,R6                 53796    6740.              WITH  (@DSALLO,RX)
 USING  @DSDALLO-72,R13            53809    6741.              PSET  @DSDALLO
 0059B2 D703 D048 D048 00000 00000 53826             +
 0059B8 5060 D048            00000 53827    6742.              ST    RX,@DSDPARM
 0059BC 58F0 A870/0DEF       061E8 53828    6743.              ACALL DSALLO                  GO TO ALLOCATE
1IOSERV   (IOSE00) (09:40) (22MAR04) ORVYL'S MVS Data Set Subtask                                                           Page  296
0Current Usings:  (DDB,R5) (@DSALLO,R6) ($MVIPSFO,R7) (PFOPEN,R10) (@MVIO-72,R12) (@DSDALLO-72,R13)
0Loc    Object Code    Addr1 Addr2  Stmt Lv Lineno    Source Statement           (Hibal 5, Asmedit 3.3)  HLASM R4.0  2004/03/22 09.40
+___    ______ ____    _____ _____  ____ __ ______    ______ _________
0                                  53836    6745.     *
                                   53837    6746.     *  ALLOCATION SUCCESSFUL - NOW FILL IN DDB
                                   53838    6747.     *
 0059C2 1220/4770 A396       05D0E 53839    6748.              IF    ('LTR RA,RVR',Z),BEGIN
 0059C8 D207 5038 6038 00038 00038 53852  1 6749.                MVC   DDBDDNAM,@DSDDN         COPY DDNAME TO DDB
 0059CE D22B 5040 6004 00040 00004 53853  1 6750.                MVC   DDBDSN,@DSDSN           FILL IN DSNAME ALSO
                                   53854  1 6751.     *
                                   53855  1 6752.     *  GET UCB ADDRESS
                                   53856  1 6753.     *
 DROP   @DSDALLO-72,R13            53857  1 6754.                PSET  @TSPARM
 USING  @TSPARM-72,R13
 0059D4 D707 D048 D048 00000 00000 53877  1          +
 0059DA D207 D048 5038 00000 00038 53878  1 6755.                MVC   @TSDDN,DDBDDNAM         SUPPLY DD NAME
 0059E0 58F0 A874/0DEF       061EC 53879  1 6756.                ACALL TIOTSRCH                GO GET IT
 0059E6 1200/4770 A084       059FC 53886  1 6757.                IF    (RVR,Z),'KAPUT TIOTNTRY'
 0059EC 4110 0001            00001 53903  2 03-KAPUT +*,THIS FUNCTION IS NOT IMPLEMENTED
 0059F0 4100 0080            00080 53909  2          +
 0059F4 8900 0018/1610       00018 53910  2          +
 0059FA 0A0D                       53912  1          +
 0059FC 5000 5078            00078 53917  1 6758.                ST    RVR,DDBUCB              SET UCB POINTER
 005A00 1810                       53918  1 6759.                LR    RS,RVR
 USING  UCBCMSEG,R1                53919  1 6760.                WITH  (UCBCMSEG,RS)
 005A02 D205 508C 101C 0008C 0021C 53932  1 6761.                MVC   DDBVOL,UCBVOLI          SET VOLUME NAME
 005A08 9120 1012      00212       53933  1 6762.                IF    UCBTBYT3.UCB3DACC,BEGIN    DIRECT ACCESS
 005A0C 47E0 A136            05AAE 53944  1          +
                                   53949  2 6763.     *
                                   53950  2 6764.     *  HAVE A DISK DEVICE - GET DEVICE CHARACTERISTICS
                                   53951  2 6765.     *
 005A10 5810 1010            00210 53952  2 6766.                  L     RS,UCBTYP               GET UCB TYPE
 DROP   UCBCMSEG,R1                53953  2 6767.                  DROP  RS
 005A14 5410 A878            061F0 53960  2 6768.                  N     RS,=A(DVCTYPMK)         CONVERT TO OFFSET
 005A18 58F0 0010            00010 53961  2 6769.                  L     R15,CVTPTR              CVT
 005A1C 58F0 F040            00040 53962  2 6770.                  WITH  (CVT,R15),'L  R15,CVTZDTAB'   DEVICE CHAR. TABLE
 USING  CVT,R15
 DROP   CVT,R15
 005A20 4311 F000            00000 53986  2 6771.                  WITH  (DVCTI,R15),'IC  RS,DVCTIOFF(RS)'  GET INDEX
 USING  DVCTI,R15
 DROP   DVCTI,R15
 005A24 1AF1                       54010  2 6772.                  AR    R15,RS                  ADDRESS OF APPROPRIATE ENTRY
 005A26 4810 F002            00002 54011  2 6773.                  WITH  (DVCT,R15),'LH  RS,DVCTRK'    TRACKS PER CYLINDER
 USING  DVCT,R15
 DROP   DVCT,R15
 005A2A 5010 5074            00074 54035  2 6774.                  ST    RS,DDBTRC               TO DDB
                                   54036  2 6775.     *
                                   54037  2 6776.     *  NOW GET DSCB INFO
                                   54038  2 6777.     *
 DROP   @TSPARM-72,R13             54039  2 6778.                  MEMGET DS1END-IECSDSL1        GET DSCB BUFFER
 USING  @MEMGET-72,R13
 005A2E D709 D048 D048 00000 00000 54061  2          +
 005A34 4100 008C            0008C 54068  2          +
 005A38 5000 D04C            00004 54069  2          +
 005A3C 9211 D051      00009       54079  2          +
 005A40 58F0 A84C/0DEF       061C4 54082  2          +
 005A46 1830                       54084  2 6779.                  LR    RB,RVR
1IOSERV   (IOSE00) (09:40) (22MAR04) ORVYL'S MVS Data Set Subtask                                                           Page  297
0Current Usings:  (DDB,R5) (@DSALLO,R6) ($MVIPSFO,R7) (PFOPEN,R10) (@MVIO-72,R12) (@RDDSCB-72,R13)
0Loc    Object Code    Addr1 Addr2  Stmt Lv Lineno    Source Statement           (Hibal 5, Asmedit 3.3)  HLASM R4.0  2004/03/22 09.40
+___    ______ ____    _____ _____  ____ __ ______    ______ _________
0DROP   @MEMGET-72,R13             54085  2 6780.                  PSET  @RDDSCB
 USING  @RDDSCB-72,R13
 005A48 D70B D048 D048 00000 00000 54105  2          +
 005A4E 4110 5040            00040 54106  2 6781.                  LA    RS,DDBDSN               DSNAME
 005A52 5010 D048            00000 54107  2 6782.                  ST    RS,@RDDDSN               SET POINTER
 005A56 4110 508C            0008C 54108  2 6783.                  LA    RS,DDBVOL               VOLID
 005A5A 5010 D04C            00004 54109  2 6784.                  ST    RS,@RDDVOL               SET POINTER
 005A5E 5030 D050            00008 54110  2 6785.                  ST    RB,@RDDDATA             POINTER TO DATA AREA
 005A62 58F0 A87C/0DEF       061F4 54111  2 6786.                  ACALL READDSCB                GO READ THE DSCB
 USING  DS1FMTID,R3                54118  2 6787.                  WITH  (DS1FMTID,RB)
                                   54131  2 6788.     *
                                   54132  2 6789.     *  GET DCB INFORMATION
                                   54133  2 6790.     *
 005A68 D200 5093 3026 00093 00052 54134  2 6791.                  MVC   DDBDSORG,DS1DSORG       COPY DSORG
 005A6E D200 5094 3028 00094 00054 54135  2 6792.                  MVC   DDBRECFM,DS1RECFM       RECFM
 005A74 D201 5096 302C 00096 00058 54136  2 6793.                  MVC   DDBLRECL,DS1LRECL       LRECL
 005A7A D201 5098 302A 00098 00056 54137  2 6794.                  MVC   DDBBLKSZ,DS1BLKL        BLOCKSIZE
 005A80 D200 5095 302E 00095 0005A 54138  2 6795.                  MVC   DDBKEYL,DS1KEYL         AND KEY LENGTH
                                   54139  2 6796.     *
                                   54140  2 6797.     *  GET ALLOCATION INFORMATION
                                   54141  2 6798.     *
 005A86 D200 509A 3032 0009A 0005E 54142  2 6799.                  MVC   DDBALCU,DS1SCAL1        ALLOCATION UNITS
 005A8C D202 509D 3033 0009D 0005F 54143  2 6800.                  MVC   DDBALQU+1(3),DS1SCAL3    AND QUANTITY
 DROP   DS1FMTID,R3                54144  2 6801.                  DROP  RB
 DROP   @RDDSCB-72,R13             54151  2 6802.                  MEMFREE  DS1END-IECSDSL1,A=(RB)  FREE DSCB BUFFER
 USING  @MEMFREE-72,R13
 005A92 D709 D048 D048 00000 00000 54173  2          +
 005A98 4100 008C            0008C 54180  2          +
 005A9C 5000 D04C            00004 54181  2          +
 005AA0 5030 D048            00000 54182  2          +
 005AA4 9210 D051      00009       54189  2          +
 005AA8 58F0 A850/0DEF       061C8 54192  2          +
 005AAE                            54194  1 6803.                END   ,
                                   54200  1 6804.     *
                                   54201  1 6805.     *  CREATE DCB
                                   54202  1 6806.     *
 DROP   @MEMFREE-72,R13            54203  1 6807.                MEMGET DCBLNGXE,TYPE=BELOW16M
 USING  @MEMGET-72,R13
 005AAE D709 D048 D048 00000 00000 54225  1          +
 005AB4 4100 0034            00034 54232  1          +
 005AB8 5000 D04C            00004 54233  1          +
 005ABC 9201 D051      00009       54240  1          +
 005AC0 58F0 A84C/0DEF       061C4 54243  1          +
 005AC6 1840                       54245  1 6808.                LR    RJ,RVR
 005AC8 5040 500C            0000C 54246  1 6809.                ST    RJ,DDBDCB               SAVE DCB POINTER
 USING  IHADCB,R4                  54247  1 6810.                WITH  (IHADCB,RJ)
 005ACC D233 4000 A8CC 00000 06244 54260  1 6811.                MVC   IHADCB(DCBLNGXE),PFDCB   COPY DCB
 005AD2 D207 4028 5038 00028 00038 54261  1 6812.                MVC   DCBDDNAM,DDBDDNAM       SET DD NAME
                                   54262  1 6813.     *
                                   54263  1 6814.     *  SET UP PARAMETER LIST AND DO IT
                                   54264  1 6815.     *
 005AD8                            54265  1 6816.                MEMGET 4,TYPE=BELOW16M        SET UP
 005AD8 D709 D048 D048 00000 00000 54277  1          +
 005ADE 4100 0004            00004 54284  1          +
1IOSERV   (IOSE00) (09:40) (22MAR04) ORVYL'S MVS Data Set Subtask                                                           Page  298
0Current Usings:  (IHADCB,R4) (DDB,R5) (@DSALLO,R6) ($MVIPSFO,R7) (PFOPEN,R10) (@MVIO-72,R12) (@MEMGET-72,R13)
0Loc    Object Code    Addr1 Addr2  Stmt Lv Lineno    Source Statement           (Hibal 5, Asmedit 3.3)  HLASM R4.0  2004/03/22 09.40
+___    ______ ____    _____ _____  ____ __ ______    ______ _________
0005AE2 5000 D04C            00004 54285  1          +
 005AE6 9201 D051      00009       54292  1          +
 005AEA 58F0 A84C/0DEF       061C4 54295  1          +
 005AF0 1830                       54297  1 6817.                LR    RB,RVR                   OPEN
 005AF2 5040 3000            00000 54298  1 6818.                ST    RJ,@RB                    PARAMETER
 005AF6 9680 3000      00000       54299  1 6819.                OI    @RB,X'80'                  LIST
 005AFA 900F D04C            00004 54300  1 6820.                ESTAEON OPENERR               CATCH ABENDS
 DROP   @MEMGET-72,R13
 USING  @ESTAE-72,R13
 005AFE 4100 A1B4            05B2C 54322  1          +
 005B02 5000 D048            00000 54323  1          +
 005B06 58F0 A880/0DEF       061F8 54326  1          +
 005B0C 1813/0A13                  54328  1 6821.                OPEN  MF=(E,(RB))             DO IT
 005B10 58F0 A884/0DEF       061FC 54332  1 6822.                ESTAEOFF ,                    CLEAR ABEND INTERCEPT
 005B16 9110 4030      00030       54337  1 6823.                IF    DCBOFLGS.DCBOFOPN,'CLEAR  RA'   OPEN WAS SUCCESSFUL
 005B1A 47E0 A1A8/1B22       05B20 54348  1          +
 005B20 A1AC           05B20 05B1C 54362  1 6824.                ELSE  'L  RA,=F"-4"'          OPEN FAILED
 005B20 47F0 A1B0            05B28 54367  1          +
 005B24 5820 A888            06200 54374  1          +
                                   54379  1 6825.     *
                                   54380  1 6826.     *  ESTAE RETRY ROUTINE
                                   54381  1 6827.     *
 005B28                            54382  1 6828.                BEGIN
 005B28 47F0 A1B6            05B2E 54386  2 6829.                  EXIT
 005B2C                            54389  2 6830.     OPENERR      LABEL ,
 005B2C 1820                       54391  2 6831.                  LR    RA,RVR                  ESTAE INFO POINTER
 005B2E                            54392  1 6832.                END   ,
1IOSERV   (IOSE00) (09:40) (22MAR04) ORVYL'S MVS Data Set Subtask                                                           Page  299
0Current Usings:  (IHADCB,R4) (DDB,R5) (@DSALLO,R6) ($MVIPSFO,R7) (PFOPEN,R10) (@MVIO-72,R12) (@ESTAE-72,R13)
0Loc    Object Code    Addr1 Addr2  Stmt Lv Lineno    Source Statement           (Hibal 5, Asmedit 3.3)  HLASM R4.0  2004/03/22 09.40
+___    ______ ____    _____ _____  ____ __ ______    ______ _________
0                                  54397  1 6834.     *
                                   54398  1 6835.     *  FREE THE OPEN PARAMETER LIST
                                   54399  1 6836.     *
 DROP   @ESTAE-72,R13              54400  1 6837.                MEMFREE 4,A=(RB),TYPE=BELOW16M   FREE PARAMETER LIST
 USING  @MEMFREE-72,R13
 005B2E D709 D048 D048 00000 00000 54422  1          +
 005B34 4100 0004            00004 54429  1          +
 005B38 5000 D04C            00004 54430  1          +
 005B3C 5030 D048            00000 54431  1          +
 005B40 58F0 A850/0DEF       061C8 54434  1          +
                                   54436  1 6838.     *
                                   54437  1 6839.     *  IF OPEN FAILED RELEASE THE DCB
                                   54438  1 6840.     *
 005B46 1222/4780 A1F2       05B6A 54439  1 6841.                IF    (RA,NZ),BEGIN
 005B4C                            54453  2 6842.                  CLEAR DDBDCB                  REMOVE DCB POINTER
 005B4C D703 500C 500C 0000C 0000C 54459  2          +
 005B52                            54460  2 6843.                  MEMFREE DCBLNGXE,A=(RJ),TYPE=BELOW16M
 005B52 D709 D048 D048 00000 00000 54472  2          +
 005B58 4100 0034            00034 54479  2          +
 005B5C 5000 D04C            00004 54480  2          +
 005B60 5040 D048            00000 54481  2          +
 005B64 58F0 A850/0DEF       061C8 54484  2          +
 005B6A                            54486  1 6844.                END   ,
                                   54490  1 6845.     *
                                   54491  1 6846.     *  OTHERWISE, COMPLETE DDB AND RETURN INFO
                                   54492  1 6847.     *
 005B6A A1F6           05B6A 05B4A 54493  1 6848.                ELSE  BEGIN
 005B6A 47F0 A396            05D0E 54498  1          +
 005B6E 5860 7014            00014 54504  2 6849.                  L     RX,$MPFINFO             POINTER TO INFO BLOCK
 DROP   @DSALLO,R6                 54505  2 6850.                  WITH  (#PFINFO,RX)
 USING  #PFINFO,R6
1IOSERV   (IOSE00) (09:40) (22MAR04) ORVYL'S MVS Data Set Subtask                                                           Page  300
0Current Usings:  (IHADCB,R4) (DDB,R5) (#PFINFO,R6) ($MVIPSFO,R7) (PFOPEN,R10) (@MVIO-72,R12) (@MEMFREE-72,R13)
0Loc    Object Code    Addr1 Addr2  Stmt Lv Lineno    Source Statement           (Hibal 5, Asmedit 3.3)  HLASM R4.0  2004/03/22 09.40
+___    ______ ____    _____ _____  ____ __ ______    ______ _________
0                                  54522  2 6852.     *
                                   54523  2 6853.     *  COMPUTE NUMBER OF TRACKS
                                   54524  2 6854.     *
 005B72 1FFF/BFF7 402D       0002D 54525  2 6855.                  L3    R15,DCBDEBA             DEB ADDRESS
 005B78 50F0 5010            00010 54531  2 6856.                  ST    R15,DDBDEB              TO DDB
 USING  DEBBASIC,R15               54532  2 6857.                  WITH  (DEBBASIC,R15),BEGIN
 005B7C 1F00/4300 F010       00034 54546  3 6858.                    LC    RVR,DEBNMEXT            NUMBER OF EXTENTS
 005B82 4200 509B            0009B 54551  3 6859.                    STC   RVR,DDBXTNT              TO DDB
 005B86 41F0 F020            00044 54552  3 6860.                    LA    R15,DEBBASND            DEVICE DEPENDENT SECTION
 DROP   DEBBASIC,R15               54553  2 6861.                  END   ,
 USING  DEBDASD,R15                54561  2 6862.                  WITH  (DEBDASD,R15),BEGIN
 005B8A 1B11                       54575  3 6863.                    CLEAR RS                      TRACK COUNTER
 005B8C 1FEE/BFE3 F00E       0000E 54579  3 6864.     CNTTRK         L2    R14,DEBNMTRK            NO. TRACKS IN THIS EXTENT
 005B92 1A1E                       54585  3 6865.                    AR    RS,R14
 005B94                            54586  3 6866.                    IF    (DEBUCBA,NE,DDBUCB+1),'KAPUT DEBEXTS'   ONE VOLUME
 005B94 D502 F001 5079 00001 00079 54598  3          +
 005B9A 4780 A236            05BAE 54599  3          +
 005B9E 4110 0001            00001 54612  4          +
 005BA2 4100 0080            00080 54613  4          +
 005BA6 8900 0018/1610       00018 54614  4          +
 005BAC 0A0D                       54616  3          +
 005BAE 41F0 F010            00010 54621  3 6867.                    LA    R15,DEBDASDE            NEXT EXTENT AREA
 005BB2 4600 A214            05B8C 54622  3 6868.                    BCT   RVR,CNTTRK               NEXT EXTENT
 005BB6 4010 50A0            000A0 54623  3 6869.                    STH   RS,DDBTRKS              SAVE NUMBER OF TRACKS
 DROP   DEBDASD,R15                54624  2 6870.                  END   ,
                                   54632  2 6871.     *
                                   54633  2 6872.     *  GET DEVICE FEATURE BYTE
                                   54634  2 6873.     *
 005BBA 5810 5078            00078 54635  2 6874.                  L     RS,DDBUCB               UCB ADDRESS
 005BBE 5810 1014            00214 54636  2 6875.                  WITH  (UCBCMSEG,RS),'L  RS,UCBEXTPT'   POINTER TO UCB EXT.
 USING  UCBCMSEG,R1
 DROP   UCBCMSEG,R1
 005BC2 5810 1018            00018 54660  2 6876.                  WITH  (UCBCMEXT,RS),'L  RS,UCBCLEXT'   POINTER TO CLASS EXT.
 USING  UCBCMEXT,R1
 DROP   UCBCMEXT,R1
 USING  DCE,R1                     54684  2 6877.                  WITH  (DCE,RS),'MVC  DDBFEAT,DCEFEAT1'   FEATURE BYTE TO DDB
 005BC6 D200 5092 1010 00092 00010 54699  2          +
 DROP   DCE,R1
1IOSERV   (IOSE00) (09:40) (22MAR04) ORVYL'S MVS Data Set Subtask                                                           Page  301
0Current Usings:  (IHADCB,R4) (DDB,R5) (#PFINFO,R6) ($MVIPSFO,R7) (PFOPEN,R10) (@MVIO-72,R12) (@MEMFREE-72,R13)
0Loc    Object Code    Addr1 Addr2  Stmt Lv Lineno    Source Statement           (Hibal 5, Asmedit 3.3)  HLASM R4.0  2004/03/22 09.40
+___    ______ ____    _____ _____  ____ __ ______    ______ _________
0                                  54709  2 6879.     *
                                   54710  2 6880.     *   DO SPECIAL SET-UP IF DEVICE IS A CACHING CONTROLLER
                                   54711  2 6881.     *
 005BCC 9120 5092      00092       54712  2 6882.                  IF    DDBFEAT.DCEPAGES,BEGIN
 005BD0 47E0 A286            05BFE 54723  2          +
 005BD4 5810 5078            00078 54728  3 6883.                    L     RS,DDBUCB               UCB ADDRESS
 005BD8 5810 102C            0022C 54729  3 6884.                    WITH  (UCBOB,RS),'L  RS,UCBNEXP'   FIRST EXPOSURE
 USING  UCBOB,R1
 DROP   UCBOB,R1
 005BDC 1821                       54753  3 6885.                    LR    RA,RS
 005BDE 1BEE                       54754  3 6886.                    CLEAR R14                     INDEX
 005BE0                            54758  3 6887.                    LOOP  BEGIN
 USING  UCB,R2                     54764  4 6888.                      WITH  (UCB,RA)
 005BE0 41F0 2200            00200 54777  4 6889.                      LA    R15,UCBOB               PAST PREFIX
 005BE4 50FE 507C            0007C 54778  4 6890.                      ST    R15,DDBCUCBS(R14)       SAVE HIGH SPEED UCB
 005BE8 41E0 E004            00004 54779  4 6891.                      LA    R14,@R14+4
 005BEC 59E0 A88C            06204 54780  4 6892.                      IF    (R14,GT,8),EXIT         ONLY TAKING 3
 005BF0 4720 A286            05BFE 54794  4          +
 005BF4 5820 222C            0022C 54800  4 6893.                      L     RA,UCBNEXP              NEXT DEVICE ADDRESS
 005BF8 1921/4770 A268       05BE0 54801  3 6894.                    UNTIL (RA,EQ,RS),END
 DROP   UCB,R2                     54829  2 6895.                  END
                                   54833  2 6896.     *
                                   54834  2 6897.     *  GET BLOCKS PER TRACK
                                   54835  2 6898.     *
 DROP   @MEMFREE-72,R13            54836  2 6899.                  PSET  @CTRACK
 USING  @CTRACK-72,R13
 005BFE D706 D048 D048 00000 00000 54856  2          +
 005C04 D203 D048 5078 00000 00078 54857  2 6900.                  MVC   @CTRUCB,DDBUCB          UCB ADDRESS
 005C0A D201 D04C 5098 00004 00098 54858  2 6901.                  MVC   @CTRBSZ,DDBBLKSZ        BLOCK SIZE
 005C10 D200 D04E 5095 00006 00095 54859  2 6902.                  MVC   @CTRKEY,DDBKEYL         KEY LENGTH
 005C16 58F0 A890/0DEF       06208 54860  2 6903.                  ACALL CALCTRK
 005C1C 5000 5034            00034 54867  2 6904.                  ST    RVR,DDBBT               TO DDB
 005C20 5000 6004            00004 54868  2 6905.                  ST    RVR,#PFIBTK              AND INFO AREA
                                   54869  2 6906.     *
                                   54870  2 6907.     *  GET TOTAL NUMBER OF BLOCKS
                                   54871  2 6908.     *
 005C24 48F0 50A0            000A0 54872  2 6909.                  LH    R15,DDBTRKS             NUMBER OF TRACKS
 005C28 1CE0                       54873  2 6910.                  MR    R14,RVR                 NUMBER OF BLOCKS
                                   54874  2 6911.     *** SIMULATION CODE ***
                                   54875  2 6912.     *
                                   54876  2 6913.     *  IF WE ARE SIMULATING IN HIPERSPACE, WE DON'T CARE ABOUT ACTUAL
                                   54877  2 6914.     *  PAGE/SWAP DATA SET SIZES.  WE WILL USE THE SIZE VALUE OBTAINED
                                   54878  2 6915.     *  FROM MAXSIZE.
                                   54879  2 6916.     *
 005C2A 5820 50A4/1222       000A4 54880  2 6917.                  IF    ('LT RA,DDBHDB',NZ),BEGIN IF HIPERSPACE SIMULATION
 005C30 4780 A2C8            05C40 54891  2          +
 005C34 5820 9004            00004 54896  3 6918.                    WITH  (RTCB,RTCBR),'L  RA,RTCBCBAT'   CBAT POINTER
 USING  RTCB,R9
 DROP   RTCB,R9
 005C38 5820 2054            00054 54920  3 6919.                    WITH  (CBAT,RA),'L  RA,CBATIOCT'      IOCT POINTER
 USING  CBAT,R2
 DROP   CBAT,R2
 USING  IOCT,R2                    54944  3 6920.                    WITH  (IOCT,RA)
 005C3C 58F0 2084            00084 54957  3 6921.                    L     R15,IOCTHSIZ
1IOSERV   (IOSE00) (09:40) (22MAR04) ORVYL'S MVS Data Set Subtask                                                           Page  302
0Current Usings:  (IHADCB,R4) (DDB,R5) (#PFINFO,R6) ($MVIPSFO,R7) (PFOPEN,R10) (@MVIO-72,R12) (@CTRACK-72,R13)
0Loc    Object Code    Addr1 Addr2  Stmt Lv Lineno    Source Statement           (Hibal 5, Asmedit 3.3)  HLASM R4.0  2004/03/22 09.40
+___    ______ ____    _____ _____  ____ __ ______    ______ _________
0DROP   IOCT,R2                    54958  2 6922.                  END   ,                    OF IF HIPERSPACE SIMULATION
 005C40 12FF/4770 A2DE       05C56 54967  2 6923.                  IF    (R15,Z),'KAPUT BADBLKCT'
 005C46 4110 0001            00001 54984  3 03-KAPUT +*,THIS FUNCTION IS NOT IMPLEMENTED
 005C4A 4100 0080            00080 54990  3          +
 005C4E 8900 0018/1610       00018 54991  3          +
 005C54 0A0D                       54993  2          +
                                   54998  2 6924.     *** END OF SIMULATION CODE ***
 005C56 50F0 5030            00030 54999  2 6925.                  ST    R15,DDBBLKCT            TO DDB
 005C5A 50F0 6000            00000 55000  2 6926.                  ST    R15,#PFIBKS              AND INFO AREA
1IOSERV   (IOSE00) (09:40) (22MAR04) ORVYL'S MVS Data Set Subtask                                                           Page  303
0Current Usings:  (IHADCB,R4) (DDB,R5) (#PFINFO,R6) ($MVIPSFO,R7) (PFOPEN,R10) (@MVIO-72,R12) (@CTRACK-72,R13)
0Loc    Object Code    Addr1 Addr2  Stmt Lv Lineno    Source Statement           (Hibal 5, Asmedit 3.3)  HLASM R4.0  2004/03/22 09.40
+___    ______ ____    _____ _____  ____ __ ______    ______ _________
0                                  55002  2 6928.     *
                                   55003  2 6929.     *  BUILD RPS TABLE
                                   55004  2 6930.     *
 005C5E 5810 5078            00078 55005  2 6931.                  L     RS,DDBUCB               UCB POINTER
 USING  UCBCMSEG,R1                55006  2 6932.                  WITH  (UCBCMSEG,RS)
 005C62 9110 1011      00211       55019  2 6933.                  IF    UCBTBYT2.UCBRPS,BEGIN
 005C66 47E0 A34C            05CC4 55030  2          +
 005C6A 5820 5034            00034 55035  3 6934.                    L     RA,DDBBT                GET BLOCKS PER TRACK
 DROP   @CTRACK-72,R13             55036  3 6935.                    MEMGET (RA),TYPE=GLOBAL       GET MEMORY
 USING  @MEMGET-72,R13
 005C6E D709 D048 D048 00000 00000 55058  3          +
 005C74 5020 D04C            00004 55059  3          +
 005C78 9213 D051      00009       55073  3          +
 005C7C 58F0 A84C/0DEF       061C4 55076  3          +
 005C82 5000 5014            00014 55078  3 6936.                    ST    RVR,DDBRPS              TABLE POINTER
 005C86 1830                       55079  3 6937.                    LR    RB,RVR
 005C88 1B22                       55080  3 6938.                    CLEAR RA
 005C8A 5920 5034            00034 55084  3 6939.                    WHILE (RA,LT,DDBBT),BEGIN
 005C8E 47B0 A34C            05CC4 55098  3          +
 DROP   @MEMGET-72,R13             55103  4 6940.                      PSET  @CRPS
 USING  @CRPS-72,R13
 005C92 D708 D048 D048 00000 00000 55123  4          +
 005C98 D203 D048 5078 00000 00078 55124  4 6941.                      MVC   @CRPUCB,DDBUCB          UCB  ADDRESS
 005C9E D201 D04E 5098 00006 00098 55125  4 6942.                      MVC   @CRPBSZ,DDBBLKSZ        BLOCK SIZE
 005CA4 D200 D050 5095 00008 00095 55126  4 6943.                      MVC   @CRPKEY,DDBKEYL         KEY LENGTH
 005CAA 4110 2001            00001 55127  4 6944.                      LA    RS,@RA+1                BLOCK NUMBER
 005CAE 4010 D04C            00004 55128  4 6945.                      STH   RS,@CRPBLK
 005CB2 58F0 A894/0DEF       0620C 55129  4 6946.                      ACALL CALCRPS
 005CB8 4202 3000            00000 55136  4 6947.                      STC   RVR,@RB(RA)             ADD TO TABLE
 005CBC 5E20 A898            06210 55137  4 6948.                      INCR  RA
 005CC0 47F0 A312            05C8A 55140  3 6949.                    END
 005CC4                            55145  2 6950.                  END
1IOSERV   (IOSE00) (09:40) (22MAR04) ORVYL'S MVS Data Set Subtask                                                           Page  304
0Current Usings:  (UCBCMSEG,R1) (IHADCB,R4) (DDB,R5) (#PFINFO,R6) ($MVIPSFO,R7) (PFOPEN,R10) (@MVIO-72,R12) (@CRPS-72,R13)
0Loc    Object Code    Addr1 Addr2  Stmt Lv Lineno    Source Statement           (Hibal 5, Asmedit 3.3)  HLASM R4.0  2004/03/22 09.40
+___    ______ ____    _____ _____  ____ __ ______    ______ _________
0                                  55150  2 6952.     *
                                   55151  2 6953.     *  COPY DDB FIELDS TO INFO AREA
                                   55152  2 6954.     *
 005CC4 D200 6013 5093 00013 00093 55153  2 6955.                  MVC   #PFIDSO,DDBDSORG        COPY DSORG
 005CCA D200 6014 5094 00014 00094 55154  2 6956.                  MVC   #PFIRFM,DDBRECFM         RECFM
 005CD0 D201 601A 5096 0001A 00096 55155  2 6957.                  MVC   #PFILRC+2(2),DDBLRECL    LRECL
 005CD6 D201 601E 5098 0001E 00098 55156  2 6958.                  MVC   #PFIBLK+2(2),DDBBLKSZ    BLKSIZE
 005CDC D200 6015 5095 00015 00095 55157  2 6959.                  MVC   #PFIKEY,DDBKEYL          AND KEY LENGTH
 005CE2 D203 6008 5074 00008 00074 55158  2 6960.                  MVC   #PFITCY,DDBTRC          TRACKS / CYLINDER
 005CE8 91C0 509A      0009A       55159  2 6961.                  IF    DDBALCU.DS1CYL,'SET  #PFOCYL'   NOTE CYLINDER ALLOC
 005CEC 47E0 A37C            05CF4 55170  2          +
 005CF0 9680 6012      00012       55181  2          +
 005CF4 9141 509A      0009A       55186  2 6962.                  IF    DDBALCU.DS1AVRND,'SET  #PFOCYL'   AVG BLK, ROUND SAME
 005CF8 47E0 A388            05D00 55197  2          +
 005CFC 9680 6012      00012       55208  2          +
 005D00 9501 509B      0009B       55213  2 6963.                  IF    (DDBXTNT,EQ,1),'SET  #PFOCNTG'   NOTE SINGLE EXTENT
 005D04 4770 A394            05D0C 55226  2          +
 005D08 9640 6012      00012       55237  2          +
 005D0C 1B22                       55242  2 6964.                  CLEAR RA
 DROP   UCBCMSEG,R1                55246  1 6965.                END   ,
 DROP   #PFINFO,R6
 USING  @DSALLO,R6
 DROP   IHADCB,R4                  55267    6966.              END   ,
                                   55278    6967.     *
                                   55279    6968.     *  IF ALLOCATION OR OPEN FAILED FREE THE DDB
                                   55280    6969.     *
 005D0E 1222/4780 A3AC       05D24 55281    6970.              IF    (RA,NZ),BEGIN
 DROP   @CRPS-72,R13               55295  1 6971.                PSET  @DSCLOSE
 USING  @DSCLOSE-72,R13
 005D14 D703 D048 D048 00000 00000 55315  1          +
 005D1A 5050 D048            00000 55316  1 6972.                ST    RK,@DSCDDB              DDB POINTER
 005D1E 58F0 A89C/0DEF       06214 55317  1 6973.                ACALL DSCLOSE
 005D24                            55324    6974.              END   ,
 005D24 1802                       55328    6975.              LR    RVR,RA                  SET RETURN CODE
 005D26 981F C008            00008 55329    6976.              PEND
 DROP   @DSALLO,R6
 DROP   $MVIPSFO,R7
 USING  $MVIOCOM,R7
 DROP   DDB,R5
 DROP   $MVIOCOM,R7
 DROP   @MVIO-72,R12
 DROP   PFOPEN,R10
 005D2A 9680 C000/0B0E 00000       55371             +
 DROP   @DSCLOSE-72,R13
1IOSERV   (IOSE00) (09:40) (22MAR04) ORVYL'S MVS Data Set Subtask                                                           Page  305
0Loc    Object Code    Addr1 Addr2  Stmt Lv Lineno    Source Statement           (Hibal 5, Asmedit 3.3)  HLASM R4.0  2004/03/22 09.40
+___    ______ ____    _____ _____  ____ __ ______    ______ _________
0                                  55381    6978.     *******************************************************************
                                   55382    6979.     *                                                                 *
                                   55383    6980.     *   PFCLOSE - Close ORVYL Page and File System data sets          *
                                   55384    6981.     *                                                                 *
                                   55385    6982.     *                                                                 *
                                   55386    6983.     *     Input -                                                     *
                                   55387    6984.     *                                                                 *
                                   55388    6985.     *    Output -                                                     *
                                   55389    6986.     *                                                                 *
                                   55390    6987.     *                                                                 *
                                   55391    6988.     *******************************************************************
-
 005D30                            55393    6990.     PFCLOSE  PROC  @MVIO,SCOPE=LOCAL
 005D30 D7C6C3D3D6E2C540           55398             +
 005D38 0008/0000                  55399             +
 005D3C 900F D004/18AF       00004 55401             +
 USING  PFCLOSE,R10
 005D42 50D0 C000/18CD       00000 55416             +
 005D48 9680 C000      00000       55418             +
 USING  @MVIO-72,R12
 005D4C 41D0 C050            00050 55432             +
 USING  @DSCLOSE-72,R13            55433    6991.              PSET  @DSCLOSE
 005D50 D703 D048 D048 00000 00000 55450             +
 005D56 5870 C048            00000 55451    6992.              L     RY,@MVIMSG
 USING  $MVIOCOM,R7                55452    6993.              WITH  ($MVIOCOM,RY)
 005D5A D203 D048 7000 00000 00000 55465    6994.              MVC   @DSCDDB,$MVIDSID        PASS DDB
 005D60 58F0 A4D8/0DEF       06214 55466    6995.              ACALL DSCLOSE                 DO CLOSE
 005D66 981F C008            00008 55473    6996.              PEND
 DROP   $MVIOCOM,R7
 DROP   @MVIO-72,R12
 DROP   PFCLOSE,R10
 005D6A 9680 C000/0B0E 00000       55493             +
 DROP   @DSCLOSE-72,R13
1IOSERV   (IOSE00) (09:40) (22MAR04) ORVYL'S MVS Data Set Subtask                                                           Page  306
0Loc    Object Code    Addr1 Addr2  Stmt Lv Lineno    Source Statement           (Hibal 5, Asmedit 3.3)  HLASM R4.0  2004/03/22 09.40
+___    ______ ____    _____ _____  ____ __ ______    ______ _________
0                                  55503    6998.     *******************************************************************
                                   55504    6999.     *                                                                 *
                                   55505    7000.     *    @DSCLOSE - Close data set request parameters                 *
                                   55506    7001.     *                                                                 *
                                   55507    7002.     *******************************************************************
0000000                00000 00004 55509    7004.     @DSCLOSE RECORD BEGIN
 000000                            55517  1 7005.     @DSCDDB    DS    A                       DDB pointer
 000004                00004 00004 55518    7006.              END   ,
-
                                   55528    7008.              COPY  DSALPARM
                                   55529             =*******************************************************************
                                   55530             =*                                                                 *
                                   55531             =*    @DSDALLO - Parameters for dynamic allocation routine         *
                                   55532             =*                                                                 *
                                   55533             =*******************************************************************
0000000                00000 00004 55535             =@DSDALLO RECORD BEGIN
 000000                            55543  1          =@DSDPARM   DS    A                       Pointer to @DSALLO parm area
 000004                00004 00004 55544             =         END   ,
-
                                   55554             =*******************************************************************
                                   55555             =*                                                                 *
                                   55556             =*    @DSALLO  - Data set allocation parameters                    *
                                   55557             =*                                                                 *
                                   55558             =*******************************************************************
0000000                00000 00060 55560             =@DSALLO  RECORD BEGIN
 000000                            55568  1          =@DSDSID    DS    A                       Device id
 000004                            55569  1          =@DSDSN     DS    CL44                    Data set name
 000030                            55570  1          =@DSMEM     DS    CL8                     Memeber name or GDG
 000038                            55571  1          =@DSDDN     DS    CL8                     DD name
 000040                            55572  1          =@DSVOL     DS    CL6                     Volume id
 000046                            55573  1          =@DSRTN     DS    H                       Return code from SVC 99
 000048                            55574  1          =@DSERR     DS    H                       Error code from SVC 99
 00004A                            55575  1          =@DSRSN     DS    H                       Reason code from SVC 99
                                   55576  1          =
 00004C 00                         55577  1          =@DSFLAG    FLAG  ,
 @DSFLAG.@DSSHR    80 ONES         55581  1          =           FLAG  @DSSHR                  Data set enqueued share
 @DSFLAG.@DSNEW    40 ONES         55586  1          =           FLAG  @DSNEW                  Data set is new
 @DSFLAG.@DSNOCAT  20 ONES         55591  1          =           FLAG  @DSNOCAT                Do not catalog new data set
 @DSFLAG.@DSGDG    10 ONES         55596  1          =           FLAG  @DSGDG                  Data set needs PROTO.DSCB
                                   55601  1          =*
                                   55602  1          =*  Disk Allocation Information - used only if new data set
                                   55603  1          =*
 00004D 00                         55604  1          =@DSALCF    FLAG  ,                       Allocation flags
 @DSALCF.@DSACYL   80 ONES         55608  1          =           FLAG  @DSACYL                 Cylinder allocation
 @DSALCF.@DSABLK   40 ONES         55613  1          =           FLAG  @DSABLK                 Average block allocation
 @DSALCF.@DSACNTG  20 ONES         55618  1          =           FLAG  @DSACNTG                Contiguous allocation
 @DSALCF.@DSARLSE  10 ONES         55623  1          =           FLAG  @DSARLSE                Release unused space at close
 @DSALCF.@DSARND   08 ONES         55628  1          =           FLAG  @DSARND                 Round up to cylinders
                                   55633  1          =
1IOSERV   (IOSE00) (09:40) (22MAR04) ORVYL'S MVS Data Set Subtask                                                           Page  307
0Loc    Object Code    Addr1 Addr2  Stmt Lv Lineno    Source Statement           (Hibal 5, Asmedit 3.3)  HLASM R4.0  2004/03/22 09.40
+___    ______ ____    _____ _____  ____ __ ______    ______ _________
0000050                            55634  1          =@DSABL     DS    A                       Average block length
 000054                            55635  1          =@DSPTQ     DS    A                       Primary allocation quantity
 000058                            55636  1          =@DSSTQ     DS    A                       Secondary allocation quantity
 00005C                            55637  1          =@DSDBQ     DS    A                       Directory blocks
 000060                00060 00060 55638             =         END   ,
1IOSERV   (IOSE00) (09:40) (22MAR04) ORVYL'S MVS Data Set Subtask                                                           Page  308
0Loc    Object Code    Addr1 Addr2  Stmt Lv Lineno    Source Statement           (Hibal 5, Asmedit 3.3)  HLASM R4.0  2004/03/22 09.40
+___    ______ ____    _____ _____  ____ __ ______    ______ _________
0                                  55648    7010.     *******************************************************************
                                   55649    7011.     *                                                                 *
                                   55650    7012.     *    DSALWORK - Data set dynamic allocation skeletons             *
                                   55651    7013.     *                                                                 *
                                   55652    7014.     *******************************************************************
0006278                06238 06A98 55654    7016.              DATA  BEGIN
 006278 0000000000000000           55659  1 7017.     DSTULIST   DC    20A(0)                  TEXT UNIT POINTER LIST
                                   55660  1 7018.
 0062C8 000100010008               55661  1 7019.     DSTUDDN    DC    AL2(DALDDNAM,1,8)       DDNAME - KEY, NUMBER, LENGTH
 0062CE 4040404040404040           55662  1 7020.                DC    CL8' '                  DDNAME - STRING
                                   55663  1 7021.
 0062D6 001C0000                   55664  1 7022.     DSTUFREE   DC    AL2(DALCLOSE,0)         FREE=CLOSE - KEY AND NUMBER
                                   55665  1 7023.
 0062DA 00020001002C               55666  1 7024.     DSTUDSN    DC    AL2(DALDSNAM,1,44)      DSNAME - KEY, NUMBER, LENGTH
 0062E0 4040404040404040           55667  1 7025.                DC    CL44' '                 DSNAME - STRING
                                   55668  1 7026.
 00630C 000300010008               55669  1 7027.     DSTUMEM    DC    AL2(DALMEMBR,1,8)       MEMBER - KEY, NUMBER, LENGTH
 006312 4040404040404040           55670  1 7028.                DC    CL8' '                  MEMBER - STRING
                                   55671  1 7029.
 00631A 000400010001               55672  1 7030.     DSTUSTAT   DC    AL2(DALSTATS,1,1)       STATUS - KEY, NUMBER, LENGTH
 006320 01                         55673  1 7031.                DC    X'01'                   STATUS - STRING (OLD)
                                   55674  1 7032.
 006321 001000010006               55675  1 7033.     DSTUVOL    DC    AL2(DALVLSER,1,6)       VOLUME - KEY, NUMBER, LENGTH
 006327 404040404040               55676  1 7034.                DC    CL6' '                  VOLUME - STRING
                                   55677  1 7035.
 00632D 001500010008               55678  1 7036.     DSTUUNIT   DC    AL2(DALUNIT,1,8)        UNIT - KEY, NUMBER, LENGTH
 006333 E2E8E2C1D3D3C4C1           55679  1 7037.                DC    CL8'SYSALLDA'           UNIT - STRING
                                   55680  1 7038.
 00633B 000500010001               55681  1 7039.     DSTUDISP   DC    AL2(DALNDISP,1,1)       DISPOSITION - KEY, NUMBER, LEN
 006341 02                         55682  1 7040.                DC    X'02'                   DISPOSITION - VALUE (CATALOG)
                                   55683  1 7041.
 006342 00070000                   55684  1 7042.     DSTUATRK   DC    AL2(DALTRK,0)           TRACK ALLOC - KEY AND NUMBER
                                   55685  1 7043.
 006346 00080000                   55686  1 7044.     DSTUACYL   DC    AL2(DALCYL,0)           CYLINDER ALC - KEY AND NUMBER
                                   55687  1 7045.
 00634A 000900010003               55688  1 7046.     DSTUABLN   DC    AL2(DALBLKLN,1,3)       AVG BLK - KEY, NUMBER, LENGTH
 006350 000000                     55689  1 7047.                DC    AL3(0)                  AVG BLK - VALUE
                                   55690  1 7048.
 006353 000D0000                   55691  1 7049.     DSTURLSE   DC    AL2(DALRLSE,0)          RELEASE - KEY AND NUMBER
                                   55692  1 7050.
 006357 000F0000                   55693  1 7051.     DSTURND    DC    AL2(DALROUND,0)         ROUND - KEY AND NUMBER
                                   55694  1 7052.
 00635B 000E00010001               55695  1 7053.     DSTUCNTG   DC    AL2(DALSPFRM,1,1)       CONTIG - KEY, NUMBER, LENGTH
 006361 08                         55696  1 7054.                DC    X'08'                   CONTIG - VALUE
                                   55697  1 7055.
 006362 000A00010003               55698  1 7056.     DSTUAPRM   DC    AL2(DALPRIME,1,3)       PRIMARY - KEY, NUMBER, LENGTH
 006368 000000                     55699  1 7057.                DC    AL3(0)                  PRIMARY - VALUE
                                   55700  1 7058.
 00636B 000B00010003               55701  1 7059.     DSTUASEC   DC    AL2(DALSECND,1,3)       SECONDARY - KEY, NUMBER, LEN
 006371 000000                     55702  1 7060.                DC    AL3(0)                  SECONDARY - VALUE
                                   55703  1 7061.
 006374 000C00010003               55704  1 7062.     DSTUADBL   DC    AL2(DALDIR,1,3)         DIR BLKS - KEY, NUMBER, LENGTH
 00637A 000000                     55705  1 7063.                DC    AL3(0)                  DIR BLKS - VALUE
                                   55706  1 7064.
 00637D 002C0001000F               55707  1 7065.     DSTUDCBD   DC    AL2(DALDCBDS,1,15)      DCB DSN - KEY, NUMBER, LENGTH
1IOSERV   (IOSE00) (09:40) (22MAR04) ORVYL'S MVS Data Set Subtask                                                           Page  309
0Loc    Object Code    Addr1 Addr2  Stmt Lv Lineno    Source Statement           (Hibal 5, Asmedit 3.3)  HLASM R4.0  2004/03/22 09.40
+___    ______ ____    _____ _____  ____ __ ______    ______ _________
0006383 E2E8E2F34BD7D9D6           55708  1 7066.                DC    CL15'SYS3.PROTO.DSCB'   DCB DSN - STRING
                                   55709  1 7067.
                                   55710  1 7068.     DSALWORK   EQU   DSTULIST,*-DSTULIST
 005D70                05441 06A98 55711    7069.              END
1IOSERV   (IOSE00) (09:40) (22MAR04) ORVYL'S MVS Data Set Subtask                                                           Page  310
0Loc    Object Code    Addr1 Addr2  Stmt Lv Lineno    Source Statement           (Hibal 5, Asmedit 3.3)  HLASM R4.0  2004/03/22 09.40
+___    ______ ____    _____ _____  ____ __ ______    ______ _________
0                                  55718    7071.     *******************************************************************
                                   55719    7072.     *                                                                 *
                                   55720    7073.     *   DSALLO - System data set Allocation                           *
                                   55721    7074.     *                                                                 *
                                   55722    7075.     *                                                                 *
                                   55723    7076.     *     Input - @DSALLO                                             *
                                   55724    7077.     *                                                                 *
                                   55725    7078.     *    Output - RVR contains return code from SVC 99                *
                                   55726    7079.     *                                                                 *
                                   55727    7080.     *                                                                 *
                                   55728    7081.     *******************************************************************
-
 005D70                            55730    7083.     DSALLO   PROC  @DSDALLO,SCOPE=GLOBAL
 005D70 C4E2C1D3D3D64040           55736             +
 005D78 0008/0000                  55737             +
 005D7C 900F D004/18AF       00004 55739             +
 USING  DSALLO,R10
 005D82 50D0 C000/18CD       00000 55754             +
 005D88 9680 C000      00000       55756             +
 USING  @DSDALLO-72,R12
 005D8C 41D0 C050            00050 55770             +
 005D90 5870 C048            00000 55771    7084.              L     RY,@DSDPARM             USER PARAMETERS
 USING  @DSALLO,R7                 55772    7085.              WITH  (@DSALLO,RY)
                                   55785    7086.     *
                                   55786    7087.     *  VOLUME NOT SPECIFIED FOR EXISTING DATA SET - GET IT FROM CATALOG
                                   55787    7088.     *
 005D94 9140 704C      0004C       55788    7089.              IF    (~@DSNEW,AND,(@DSVOL,EQ,=XL6'00')),BEGIN
 005D98 4710 A062            05DDE 55800             +
 005D9C D505 A4AA 7040 06226 00040 55812             +
 005DA2 4770 A062            05DDE 55813             +
 USING  @CATSRCH-72,R13            55818  1 7090.                PSET  @CATSRCH
 005DA6 D709 D048 D048 00000 00000 55835  1          +
 005DAC 41F0 7004            00004 55836  1 7091.                LA    R15,@DSDSN              USER SUPPLIED DSNAME
 005DB0 50F0 D048            00000 55837  1 7092.                ST    R15,@CATSDSN
 005DB4 58F0 A49C/0DEF       06218 55838  1 7093.                ACALL CATSRCH                 GO FIND IT
                                   55845  1 7094.     *
                                   55846  1 7095.     *  CATALOG SEARCH FAILED - RETURN ERROR INDICATION
                                   55847  1 7096.     *
 005DBA 1200/4780 A05C       05DD8 55848  1 7097.                IF    (RVR,NZ),BEGIN
 005DC0 D201 7046 A4B0 00046 0622C 55862  2 7098.                  MVC   @DSRTN,=Y(4)            SET RETURN CODE
 005DC6 9217 7048      00048       55863  2 7099.                  MVI   @DSERR,X'17'             AND REASON CODE
 005DCA 4200 7049            00049 55864  2 7100.                  STC   RVR,@DSERR+1
 005DCE D205 7040 A4B2 00040 0622E 55865  2 7101.                  MVC   @DSVOL,=CL6'??????'     WHO'S TO SAY WHERE IT IS
 005DD4 47F0 A2C2            0603E 55866  2 7102.                  EXIT  DSALLO                  THEN BACK TO CALLER
 005DD8                            55869  1 7103.                END
 005DD8 D205 7040 D04C 00040 00004 55873  1 7104.                MVC   @DSVOL,@CATSVOL         SET VOLUME ID
 005DDE                            55874    7105.              END
                                   55878    7106.     *
                                   55879    7107.     *  NOW SET UP WORK AREA
                                   55880    7108.     *
 DROP   @CATSRCH-72,R13            55881    7109.              MEMGET L'DSALWORK             WORK AREA
 USING  @MEMGET-72,R13
 005DDE D709 D048 D048 00000 00000 55903             +
 005DE4 4100 011A            0011A 55910             +
1IOSERV   (IOSE00) (09:40) (22MAR04) ORVYL'S MVS Data Set Subtask                                                           Page  311
0Current Usings:  (@DSALLO,R7) (DSALLO,R10) (@DSDALLO-72,R12) (@MEMGET-72,R13)
0Loc    Object Code    Addr1 Addr2  Stmt Lv Lineno    Source Statement           (Hibal 5, Asmedit 3.3)  HLASM R4.0  2004/03/22 09.40
+___    ______ ____    _____ _____  ____ __ ______    ______ _________
0005DE8 5000 D04C            00004 55911             +
 005DEC 9211 D051      00009       55921             +
 005DF0 58F0 A448/0DEF       061C4 55924             +
 005DF6 1860                       55926    7110.              LR    RX,RVR                   POINTER
 005DF8 41E0 A4FC            06278 55927    7111.              LA    R14,DSALWORK            DYN ALLO PARAMETER SKELETONS
 005DFC 41F0 011A            0011A 55928    7112.              LA    R15,L'DSALWORK           LENGTH
 005E00 1826                       55929    7113.              LR    RA,RX                   Destination
 005E02 183F                       55930    7114.              LR    RB,R15                  Copy length
 005E04 0E2E                       55931    7115.              MVCL  RA,R14                  Skeletons out of the closet
 USING  DSALWORK,R6                55932    7116.              WITH  (DSALWORK,RX)
 005E06 4150 6000            06278 55945    7117.              LA    RK,DSTULIST             LIST POINTER
                                   55946    7118.     *
                                   55947    7119.     *  BUILD COMMON TEXT UNITS - START WITH FREE=CLOSE
                                   55948    7120.     *
 005E0A 4110 605E            062D6 55949    7121.              LA    RS,DSTUFREE             POINTER TO TEXT UNIT
 005E0E 5010 5000            00000 55950    7122.              ST    RS,@RK                  ADD TO LIST
 005E12 4150 5004            00004 55951    7123.              LA    RK,@RK+4                UPDATE LIST POINTER
                                   55952    7124.     *
                                   55953    7125.     *  BUILD DDNAME/RETURN DDNAME UNIT
                                   55954    7126.     *
 005E16 4110 6050            062C8 55955    7127.              LA    RS,DSTUDDN              POINTER TO TEXT UNIT
 005E1A 5010 5000            00000 55956    7128.              ST    RS,@RK                  ADD TO LIST
 005E1E 4150 5004            00004 55957    7129.              LA    RK,@RK+4                UPDATE LIST POINTER
 USING  S99TUNIT,R1                55958    7130.              WITH  (S99TUNIT,RS),BEGIN
 005E22                            55972  1 7131.                IF    (@DSDDN,EQ,=XL8'00'),'MVC  S99TUKEY,=AL2(DALRTDDN)'
 005E22 D507 A42C 7038 061A8 00038 55982  1          +
 005E28 4770 A0B6            05E32 55983  1          +
 005E2C D201 1000 A4B8 00000 06234 55989  1          +
 005E32 A0BA           05E32 05E2A 55994  1 7132.                ELSE  'MVC  S99TUPAR(8),@DSDDN'   PUT IN DDNAME
 005E32 47F0 A0C0            05E3C 55999  1          +
 005E36 D207 1006 7038 00006 00038 56006  1          +
 DROP   S99TUNIT,R1                56011    7133.              END   ,
                                   56019    7134.     *
                                   56020    7135.     *  BUILD DSNAME UNIT
                                   56021    7136.     *
 005E3C 4110 6062            062DA 56022    7137.              LA    RS,DSTUDSN              POINTER TO TEXT UNIT
 005E40 5010 5000            00000 56023    7138.              ST    RS,@RK                  ADD TO LIST
 005E44 4150 5004            00004 56024    7139.              LA    RK,@RK+4                UPDATE LIST POINTER
 USING  S99TUNIT,R1                56025    7140.              WITH  (S99TUNIT,RS),'MVC  S99TUPAR(44),@DSDSN'   PUT IN DSN
 005E48 D22B 1006 7004 00006 00004 56040             +
 DROP   S99TUNIT,R1
                                   56049    7141.     *
                                   56050    7142.     *  BUILD MEMBER UNIT
                                   56051    7143.     *
 005E4E                            56052    7144.              IF    (@DSMEM,NE,=XL8'00'),BEGIN
 005E4E D507 A42C 7030 061A8 00030 56062             +
 005E54 4780 A10E            05E8A 56063             +
 005E58 41F0 0008            00008 56068  1 7145.                LA    R15,8                   Maximum length
 005E5C 41E0 7037            00037 56069  1 7146.                LA    R14,@DSMEM+7
 005E60                            56070  1 7147.                LOOP  BEGIN                   Determine name length
 005E60 9540 E000      00000       56076  2 7148.                  IF    ('CLI  @R14,C" "',NE),EXIT
 005E64 4770 A0F2            05E6E 56086  2          +
 005E68 06F0                       56092  2 7149.                  DECR  R15
 005E6A 46E0 A0E4            05E60 56094  1 7150.                UNTIL (BCT,R14),END
1IOSERV   (IOSE00) (09:40) (22MAR04) ORVYL'S MVS Data Set Subtask                                                           Page  312
0Current Usings:  (DSALWORK,R6) (@DSALLO,R7) (DSALLO,R10) (@DSDALLO-72,R12) (@MEMGET-72,R13)
0Loc    Object Code    Addr1 Addr2  Stmt Lv Lineno    Source Statement           (Hibal 5, Asmedit 3.3)  HLASM R4.0  2004/03/22 09.40
+___    ______ ____    _____ _____  ____ __ ______    ______ _________
0005E6E 12FF/4780 A10E       05E8A 56104  1 7151.                IF    (R15,Z),EXIT            No member name after all
 005E74 4110 6094            0630C 56121  1 7152.                LA    RS,DSTUMEM              POINTER TO TEXT UNIT
 005E78 5010 5000            00000 56122  1 7153.                ST    RS,@RK                  ADD TO LIST
 005E7C 4150 5004            00004 56123  1 7154.                LA    RK,@RK+4                UPDATE LIST POINTER
 USING  S99TUNIT,R1                56124  1 7155.                WITH  (S99TUNIT,RS)
 005E80 40F0 1004            00004 56137  1 7156.                STH   R15,S99TULNG            Length of the member name
 DROP   DSALWORK,R6                56138  1 7157.                DROP  RX
 005E84 06F0/44F0 A616       06392 56145  1 7158.                DEX   R15,'MVC  S99TUPAR(0),@DSMEM'   PUT IN MEMBER NAME
 006392 D200 1006 7030 00006 00030 56156  1          +
 DROP   S99TUNIT,R1                56164    7159.              END   ,
 USING  DSALWORK,R6                56173    7160.              WITH  (DSALWORK,RX)
                                   56186    7161.     *
                                   56187    7162.     *  BUILD VOLUME UNIT
                                   56188    7163.     *
 005E8A                            56189    7164.              IF    (@DSVOL,NE,=XL6'00'),BEGIN
 005E8A D505 A4AA 7040 06226 00040 56199             +
 005E90 4780 A136            05EB2 56200             +
 005E94 4110 60A9            06321 56205  1 7165.                LA    RS,DSTUVOL              POINTER TO TEXT UNIT
 005E98 5010 5000            00000 56206  1 7166.                ST    RS,@RK                  ADD TO LIST
 005E9C 4150 5004            00004 56207  1 7167.                LA    RK,@RK+4                UPDATE LIST POINTER
 USING  S99TUNIT,R1                56208  1 7168.                WITH  (S99TUNIT,RS),'MVC  S99TUPAR(6),@DSVOL'   PUT IN VOL
 005EA0 D205 1006 7040 00006 00040 56223  1          +
 DROP   S99TUNIT,R1
                                   56232  1 7169.     *
                                   56233  1 7170.     *  BUILD UNIT UNIT FOR "SYSALLDA"
                                   56234  1 7171.     *
 005EA6 4110 60B5            0632D 56235  1 7172.                LA    RS,DSTUUNIT             POINTER TO TEXT UNIT
 005EAA 5010 5000            00000 56236  1 7173.                ST    RS,@RK                  ADD TO LIST
 005EAE 4150 5004            00004 56237  1 7174.                LA    RK,@RK+4                UPDATE LIST POINTER
 005EB2                            56238    7175.              END
                                   56242    7176.     *
                                   56243    7177.     *  BUILD DATA SET STATUS UNIT
                                   56244    7178.     *
 005EB2 4110 60A2            0631A 56245    7179.              LA    RS,DSTUSTAT             POINTER TO TEXT UNIT
 005EB6 5010 5000            00000 56246    7180.              ST    RS,@RK                  ADD TO LIST
 005EBA 4150 5004            00004 56247    7181.              LA    RK,@RK+4                UPDATE LIST POINTER
 USING  S99TUNIT,R1                56248    7182.              WITH  (S99TUNIT,RS),BEGIN
 005EBE 9180 704C      0004C       56262  1 7183.                IF    @DSSHR,'MVI  S99TUPAR,X"08"'   SET SHARED
 005EC2 47E0 A14E            05ECA 56272  1          +
 005EC6 9208 1006      00006       56278  1          +
 005ECA 9140 704C      0004C       56283  1 7184.                IF    @DSNEW,'MVI  S99TUPAR,X"04"'   SET NEW
 005ECE 47E0 A15A            05ED6 56293  1          +
 005ED2 9204 1006      00006       56299  1          +
 DROP   S99TUNIT,R1                56304    7185.              END   ,
                                   56312    7186.     *
                                   56313    7187.     *  SET UP TEXT UNITS FOR NEW DATA SET - START WITH DISPOSITION
                                   56314    7188.     *
 005ED6 9140 704C      0004C       56315    7189.              IF    @DSNEW,BEGIN
 005EDA 47E0 A25E            05FDA 56325             +
 005EDE 4110 60C3            0633B 56330  1 7190.                LA    RS,DSTUDISP             POINTER TO TEXT UNIT
 005EE2 5010 5000            00000 56331  1 7191.                ST    RS,@RK                  ADD TO LIST
 005EE6 4150 5004            00004 56332  1 7192.                LA    RK,@RK+4                UPDATE LIST POINTER
 USING  S99TUNIT,R1                56333  1 7193.                WITH  (S99TUNIT,RS),BEGIN
 005EEA 9120 704C      0004C       56347  2 7194.                  IF    @DSNOCAT,'MVI  S99TUPAR,X"08"'   SET KEEP
1IOSERV   (IOSE00) (09:40) (22MAR04) ORVYL'S MVS Data Set Subtask                                                           Page  313
0Current Usings:  (S99TUNIT,R1) (DSALWORK,R6) (@DSALLO,R7) (DSALLO,R10) (@DSDALLO-72,R12) (@MEMGET-72,R13)
0Loc    Object Code    Addr1 Addr2  Stmt Lv Lineno    Source Statement           (Hibal 5, Asmedit 3.3)  HLASM R4.0  2004/03/22 09.40
+___    ______ ____    _____ _____  ____ __ ______    ______ _________
0005EEE 47E0 A17A            05EF6 56357  2          +
 005EF2 9208 1006      00006       56363  2          +
 DROP   S99TUNIT,R1                56368  1 7195.                END   ,
                                   56376  1 7196.     *
                                   56377  1 7197.     *  VOLUME NOT SPECIFIED - BUILD UNIT UNIT FOR "DISK"
                                   56378  1 7198.     *
 005EF6                            56379  1 7199.                IF    (@DSVOL,EQ,=XL6'00'),BEGIN
 005EF6 D505 A4AA 7040 06226 00040 56389  1          +
 005EFC 4770 A196            05F12 56390  1          +
 005F00 4110 60B5            0632D 56395  2 7200.                  LA    RS,DSTUUNIT             POINTER TO TEXT UNIT
 005F04 5010 5000            00000 56396  2 7201.                  ST    RS,@RK                  ADD TO LIST
 005F08 4150 5004            00004 56397  2 7202.                  LA    RK,@RK+4                UPDATE LIST POINTER
 USING  S99TUNIT,R1                56398  2 7203.                  WITH  (S99TUNIT,RS),'MVC  S99TUPAR(8),=CL8"DISK"'
 005F0C D207 1006 A434 00006 061B0 56413  2          +
 DROP   S99TUNIT,R1
 005F12                            56422  1 7204.                END
                                   56426  1 7205.     *
                                   56427  1 7206.     *  BUILD SPACE TYPE UNIT - TRY CYLINDER FIRST
                                   56428  1 7207.     *
 005F12 9180 704D      0004D       56429  1 7208.                IF    @DSACYL,BEGIN           HAVE CYLINDER SPECIFICATION
 005F16 47E0 A1AA            05F26 56439  1          +
 005F1A 4110 60CE            06346 56444  2 7209.                  LA    RS,DSTUACYL             POINTER TO TEXT UNIT
 005F1E 5010 5000            00000 56445  2 7210.                  ST    RS,@RK                  ADD TO LIST
 005F22 4150 5004            00004 56446  2 7211.                  LA    RK,@RK+4                UPDATE LIST POINTER
 005F26                            56447  1 7212.                END   ,
                                   56451  1 7213.     *
                                   56452  1 7214.     *  NOT CYLINDER - TRY AVERAGE BLOCK LENGTH
                                   56453  1 7215.     *
 005F26 A1AE           05F26 05F18 56454  1 7216.                ELSEIF  @DSABLK,BEGIN         HAVE AVG BLK SPECIFICATION
 005F26 47F0 A1DC            05F58 56460  1          +
 005F2A 9140 704D      0004D       56472  1          +
 005F2E 47E0 A1DC            05F58 56473  1          +
 005F32 4110 60D2            0634A 56478  2 7217.                  LA    RS,DSTUABLN             POINTER TO TEXT UNIT
 005F36 5010 5000            00000 56479  2 7218.                  ST    RS,@RK                  ADD TO LIST
 005F3A 4150 5004            00004 56480  2 7219.                  LA    RK,@RK+4                UPDATE LIST POINTER
 USING  S99TUNIT,R1                56481  2 7220.                  WITH  (S99TUNIT,RS),'MVC  S99TUPAR+1(2),@DSABL+2'   SET QTY
 005F3E D201 1007 7052 00007 00052 56496  2          +
 DROP   S99TUNIT,R1
                                   56505  2 7221.     *
                                   56506  2 7222.     *  AVERAGE BLOCK - BUILD ROUND UNIT IF NECESSARY
                                   56507  2 7223.     *
 005F44 9108 704D      0004D       56508  2 7224.                  IF    @DSARND,BEGIN           RELEASE REQUESTED
 005F48 47E0 A1DC            05F58 56518  2          +
 005F4C 4110 60DF            06357 56523  3 7225.                    LA    RS,DSTURND              POINTER TO TEXT UNIT
 005F50 5010 5000            00000 56524  3 7226.                    ST    RS,@RK                  ADD TO LIST
 005F54 4150 5004            00004 56525  3 7227.                    LA    RK,@RK+4                UPDATE LIST POINTER
 005F58                            56526  2 7228.                  END   ,
 005F58                            56530  1 7229.                END   ,
                                   56534  1 7230.     *
                                   56535  1 7231.     *  BUILD TRACK ALLOCATION UNIT - WHICH IS THE DEFAULT
                                   56536  1 7232.     *
 005F58 A1E0           05F58 05F30 56537  1 7233.                ELSE  BEGIN                   DEFAULT IS TRACK SPECIFICATION
 005F58 47F0 A1EC            05F68 56542  1          +
 005F5C 4110 60CA            06342 56548  2 7234.                  LA    RS,DSTUATRK             POINTER TO TEXT UNIT
1IOSERV   (IOSE00) (09:40) (22MAR04) ORVYL'S MVS Data Set Subtask                                                           Page  314
0Current Usings:  (DSALWORK,R6) (@DSALLO,R7) (DSALLO,R10) (@DSDALLO-72,R12) (@MEMGET-72,R13)
0Loc    Object Code    Addr1 Addr2  Stmt Lv Lineno    Source Statement           (Hibal 5, Asmedit 3.3)  HLASM R4.0  2004/03/22 09.40
+___    ______ ____    _____ _____  ____ __ ______    ______ _________
0005F60 5010 5000            00000 56549  2 7235.                  ST    RS,@RK                  ADD TO LIST
 005F64 4150 5004            00004 56550  2 7236.                  LA    RK,@RK+4                UPDATE LIST POINTER
 005F68                            56551  1 7237.                END   ,
                                   56555  1 7238.     *
                                   56556  1 7239.     *  BUILD PRIMARY SPACE ALLOCATION UNIT
                                   56557  1 7240.     *
 005F68 4110 60EA            06362 56558  1 7241.                LA    RS,DSTUAPRM              POINTER TO TEXT UNIT
 005F6C 5010 5000            00000 56559  1 7242.                ST    RS,@RK                  ADD TO LIST
 005F70 4150 5004            00004 56560  1 7243.                LA    RK,@RK+4                UPDATE LIST POINTER
 USING  S99TUNIT,R1                56561  1 7244.                WITH  (S99TUNIT,RS),'MVC  S99TUPAR(3),@DSPTQ+1'   PUT IN QTY
 005F74 D202 1006 7055 00006 00055 56576  1          +
 DROP   S99TUNIT,R1
                                   56585  1 7245.     *
                                   56586  1 7246.     *  BUILD SECONDARY SPACE ALLOCATION UNIT
                                   56587  1 7247.     *
 005F7A 4110 60F3            0636B 56588  1 7248.                LA    RS,DSTUASEC              POINTER TO TEXT UNIT
 005F7E 5010 5000            00000 56589  1 7249.                ST    RS,@RK                  ADD TO LIST
 005F82 4150 5004            00004 56590  1 7250.                LA    RK,@RK+4                UPDATE LIST POINTER
 USING  S99TUNIT,R1                56591  1 7251.                WITH  (S99TUNIT,RS),'MVC  S99TUPAR(3),@DSSTQ+1'   PUT IN QTY
 005F86 D202 1006 7059 00006 00059 56606  1          +
 DROP   S99TUNIT,R1
                                   56615  1 7252.     *
                                   56616  1 7253.     *  BUILD DIRECTORY BLOCK ALLOCATION UNIT
                                   56617  1 7254.     *
 005F8C 4110 60FC            06374 56618  1 7255.                LA    RS,DSTUADBL             POINTER TO TEXT UNIT
 005F90 5010 5000            00000 56619  1 7256.                ST    RS,@RK                  ADD TO LIST
 005F94 4150 5004            00004 56620  1 7257.                LA    RK,@RK+4                UPDATE LIST POINTER
 USING  S99TUNIT,R1                56621  1 7258.                WITH  (S99TUNIT,RS),'MVC  S99TUPAR(3),@DSDBQ+1'   PUT IN QTY
 005F98 D202 1006 705D 00006 0005D 56636  1          +
 DROP   S99TUNIT,R1
                                   56645  1 7259.     *
                                   56646  1 7260.     *  BUILD RELEASE UNIT
                                   56647  1 7261.     *
 005F9E 9110 704D      0004D       56648  1 7262.                IF    @DSARLSE,BEGIN          RELEASE REQUESTED
 005FA2 47E0 A236            05FB2 56658  1          +
 005FA6 4110 60DB            06353 56663  2 7263.                  LA    RS,DSTURLSE             POINTER TO TEXT UNIT
 005FAA 5010 5000            00000 56664  2 7264.                  ST    RS,@RK                  ADD TO LIST
 005FAE 4150 5004            00004 56665  2 7265.                  LA    RK,@RK+4                UPDATE LIST POINTER
 005FB2                            56666  1 7266.                END   ,
                                   56670  1 7267.     *
                                   56671  1 7268.     *  BUILD CONTIGUOUS UNIT
                                   56672  1 7269.     *
 005FB2 9120 704D      0004D       56673  1 7270.                IF    @DSACNTG,BEGIN          RELEASE REQUESTED
 005FB6 47E0 A24A            05FC6 56683  1          +
 005FBA 4110 60E3            0635B 56688  2 7271.                  LA    RS,DSTUCNTG             POINTER TO TEXT UNIT
 005FBE 5010 5000            00000 56689  2 7272.                  ST    RS,@RK                  ADD TO LIST
 005FC2 4150 5004            00004 56690  2 7273.                  LA    RK,@RK+4                UPDATE LIST POINTER
 005FC6                            56691  1 7274.                END   ,
                                   56695  1 7275.     *
                                   56696  1 7276.     *  BUILD DCB UNIT FOR GDG'S
                                   56697  1 7277.     *
 005FC6 9110 704C      0004C       56698  1 7278.                IF    @DSGDG,BEGIN            GDG ALLOCATION
 005FCA 47E0 A25E            05FDA 56708  1          +
 005FCE 4110 6105            0637D 56713  2 7279.                  LA    RS,DSTUDCBD             POINTER TO TEXT UNIT
1IOSERV   (IOSE00) (09:40) (22MAR04) ORVYL'S MVS Data Set Subtask                                                           Page  315
0Current Usings:  (DSALWORK,R6) (@DSALLO,R7) (DSALLO,R10) (@DSDALLO-72,R12) (@MEMGET-72,R13)
0Loc    Object Code    Addr1 Addr2  Stmt Lv Lineno    Source Statement           (Hibal 5, Asmedit 3.3)  HLASM R4.0  2004/03/22 09.40
+___    ______ ____    _____ _____  ____ __ ______    ______ _________
0005FD2 5010 5000            00000 56714  2 7280.                  ST    RS,@RK                  ADD TO LIST
 005FD6 4150 5004            00004 56715  2 7281.                  LA    RK,@RK+4                UPDATE LIST POINTER
 005FDA                            56716  1 7282.                END   ,
 005FDA                            56720    7283.              END
                                   56724    7284.     *
                                   56725    7285.     *  MARK END OF LIST AND DO DYNAMIC ALLOCATE
                                   56726    7286.     *
 005FDA 9680 5000      00000       56727    7287.              SET   @RK.S99TUPLN            NOTE LIST END
 DROP   @MEMGET-72,R13             56734    7288.              PSET  @DYNALLO
 USING  @DYNALLO-72,R13
 005FDE D707 D048 D048 00000 00000 56754             +
 005FE4 4110 6000            06278 56755    7289.              LA    RS,DSTULIST             LIST POINTER
 005FE8 5010 D048            00000 56756    7290.              ST    RS,@DYNTXTU             SET LIST ADDRESS
 005FEC 58F0 A4A0/0DEF       0621C 56757    7291.              ACALL DYNALLO
 005FF2 4000 7046            00046 56764    7292.              STH   RVR,@DSRTN              SAVE RETURN CODE
                                   56765    7293.     *
                                   56766    7294.     *  IF ERROR IN DYNAMIC ALLOCATE SET ERROR CODES
                                   56767    7295.     *
 005FF6 1250/4780 A28C       06008 56768    7296.              IF    ('LTR  RK,RVR',NZ),BEGIN
 005FFC D201 7048 D04C 00048 00004 56781  1 7297.                MVC   @DSERR,@DYNERR          COPY ERROR CODE
 006002 D201 704A D04E 0004A 00006 56782  1 7298.                MVC   @DSRSN,@DYNRSN           AND REASON CODE
 006008                            56783    7299.              END   ,
                                   56787    7300.     *
                                   56788    7301.     *  ALLOCATE SUCCESSFUL - RETURN DDNAME
                                   56789    7302.     *
 006008 A290           06008 05FFA 56790    7303.              ELSE  BEGIN
 006008 47F0 A2A4            06020 56795             +
 00600C                            56801  1 7304.                IF    (@DSDDN,NE,=XL8'00'),EXIT
 00600C D507 A42C 7038 061A8 00038 56811  1          +
 006012 4770 A2A4            06020 56814  1          +
 006016 4110 6050            062C8 56820  1 7305.                LA    RS,DSTUDDN              POINTER TO DDNAME TEXT UNIT
 USING  S99TUNIT,R1                56821  1 7306.                WITH  (S99TUNIT,RS)
 00601A D207 7038 1006 00038 00006 56834  1 7307.                MVC   @DSDDN,S99TUPAR         COPY DDNAME
 DROP   S99TUNIT,R1                56835    7308.              END   ,
 DROP   DSALWORK,R6                56844    7309.              DROP  RX
                                   56851    7310.     *
                                   56852    7311.     *  RELEASE WORK AREA AND RETURN
                                   56853    7312.     *
 DROP   @DYNALLO-72,R13            56854    7313.     DSADONE  MEMFREE L'DSALWORK,A=(RX)     RELEASE WORK AREA
 USING  @MEMFREE-72,R13
 006020 D709 D048 D048 00000 00000 56877             +
 006026 4100 011A            0011A 56884             +
 00602A 5000 D04C            00004 56885             +
 00602E 5060 D048            00000 56886             +
 006032 9210 D051      00009       56893             +
 006036 58F0 A44C/0DEF       061C8 56896             +
 00603C 1805                       56898    7314.              LR    RVR,RK                  RETURN CODE
 00603E 981F C008            00008 56899    7315.              PEND
 DROP   @DSALLO,R7
 DROP   @DSDALLO-72,R12
 DROP   DSALLO,R10
 006042 9680 C000/0B0E 00000       56923             +
 DROP   @MEMFREE-72,R13
1IOSERV   (IOSE00) (09:40) (22MAR04) ORVYL'S MVS Data Set Subtask                                                           Page  316
0Loc    Object Code    Addr1 Addr2  Stmt Lv Lineno    Source Statement           (Hibal 5, Asmedit 3.3)  HLASM R4.0  2004/03/22 09.40
+___    ______ ____    _____ _____  ____ __ ______    ______ _________
0                                  56933    7317.     *******************************************************************
                                   56934    7318.     *                                                                 *
                                   56935    7319.     *   DSCLOSE - Close data sets                                     *
                                   56936    7320.     *                                                                 *
                                   56937    7321.     *                                                                 *
                                   56938    7322.     *     Input - @DSCLOSE                                            *
                                   56939    7323.     *                                                                 *
                                   56940    7324.     *    Output - None                                                *
                                   56941    7325.     *                                                                 *
                                   56942    7326.     *                                                                 *
                                   56943    7327.     *******************************************************************
-
 006048                            56945    7329.     DSCLOSE  PROC  @DSCLOSE,SCOPE=LOCAL
 006048 C4E2C3D3D6E2C540           56950             +
 006050 0008/0000                  56951             +
 006054 900F D004/18AF       00004 56953             +
 USING  DSCLOSE,R10
 00605A 50D0 C000/18CD       00000 56968             +
 006060 9680 C000      00000       56970             +
 USING  @DSCLOSE-72,R12
 006064 41D0 C050            00050 56984             +
 006068 5850 C048            00000 56985    7330.              L     RK,@DSCDDB              DDB POINTER
 USING  DDB,R5                     56986    7331.              WITH  (DDB,RK)
 AUSING (COMDB,DDB)                56999    7332.              WITH  (COMDB,DDB),BEGIN
 00606C D503 5000 A190 00000 061E4 57009  1 7333.                CLC   COMDBID,=CL4'DDB'       VALIDATE
 006072 4780 A032            06086 57010  1 7334.                IF    NE,'KAPUT DDBPTR'
 006076 4110 0001            00001 57029  2          +
 00607A 4100 0080            00080 57030  2          +
 00607E 8900 0018/1610       00018 57031  2          +
 006084 0A0D                       57033  1          +
 006086                            57038  1 7335.                CLEAR (COMDBID,4)             DDB no longer valid
 006086 D703 5000 5000 00000 00000 57044  1          +
                                   57045    7336.              END   ,
 00608C 5840 500C            0000C 57048    7337.              L     RJ,DDBDCB               GET DCB POINTER
1IOSERV   (IOSE00) (09:40) (22MAR04) ORVYL'S MVS Data Set Subtask                                                           Page  317
0Current Usings:  (DDB,R5) (DSCLOSE,R10) (@DSCLOSE-72,R12)
0Loc    Object Code    Addr1 Addr2  Stmt Lv Lineno    Source Statement           (Hibal 5, Asmedit 3.3)  HLASM R4.0  2004/03/22 09.40
+___    ______ ____    _____ _____  ____ __ ______    ______ _________
0                                  57050    7339.     *
                                   57051    7340.     *  SET UP PARAMETER LIST AND CLOSE IT
                                   57052    7341.     *
 006090 1244/4780 A0B6       0610A 57053    7342.              IF    (RJ,NZ),BEGIN
 USING  @MEMGET-72,R13             57067  1 7343.                MEMGET 4,TYPE=BELOW16M        SET UP
 006096 D709 D048 D048 00000 00000 57086  1          +
 00609C 4100 0004            00004 57093  1          +
 0060A0 5000 D04C            00004 57094  1          +
 0060A4 9201 D051      00009       57101  1          +
 0060A8 58F0 A170/0DEF       061C4 57104  1          +
 0060AE 1830                       57106  1 7344.                LR    RB,RVR                   CLOSE
 0060B0 5040 3000            00000 57107  1 7345.                ST    RJ,@RB                    PARAMETER
 0060B4 9680 3000      00000       57108  1 7346.                OI    @RB,X'80'                  LIST
 0060B8 900F D04C            00004 57109  1 7347.                ESTAEON CLOSERR               CATCH ABENDS
 DROP   @MEMGET-72,R13
 USING  @ESTAE-72,R13
 0060BC 4100 A084            060D8 57131  1          +
 0060C0 5000 D048            00000 57132  1          +
 0060C4 58F0 A1A4/0DEF       061F8 57135  1          +
 0060CA 1813/0A14                  57137  1 7348.                CLOSE MF=(E,(RB))             DO IT
 0060CE 58F0 A1A8/0DEF       061FC 57141  1 7349.                ESTAEOFF ,                    CLEAR ABEND INTERCEPT
                                   57146  1 7350.     *
                                   57147  1 7351.     *  ESTAE RETRY ROUTINE
                                   57148  1 7352.     *
 0060D4                            57149  1 7353.                BEGIN
 0060D4 47F0 A086            060DA 57153  2 7354.                  EXIT
 0060D8                            57156  2 7355.     CLOSERR      LABEL ,
 0060D8 1820                       57158  2 7356.                  LR    RA,RVR                  ESTAE INFO POINTER
 0060DA                            57159  1 7357.                END   ,
 DROP   @ESTAE-72,R13              57163  1 7358.                MEMFREE 4,A=(RB),TYPE=BELOW16M   FREE PARAMETER LIST
 USING  @MEMFREE-72,R13
 0060DA D709 D048 D048 00000 00000 57185  1          +
 0060E0 4100 0004            00004 57192  1          +
 0060E4 5000 D04C            00004 57193  1          +
 0060E8 5030 D048            00000 57194  1          +
 0060EC 58F0 A174/0DEF       061C8 57197  1          +
                                   57199  1 7359.     *
                                   57200  1 7360.     *  RELEASE DCB
                                   57201  1 7361.     *
 0060F2                            57202  1 7362.                MEMFREE DCBLNGXE,A=(RJ),TYPE=BELOW16M
 0060F2 D709 D048 D048 00000 00000 57214  1          +
 0060F8 4100 0034            00034 57221  1          +
 0060FC 5000 D04C            00004 57222  1          +
 006100 5040 D048            00000 57223  1          +
 006104 58F0 A174/0DEF       061C8 57226  1          +
 00610A                            57228    7363.              END   ,
1IOSERV   (IOSE00) (09:40) (22MAR04) ORVYL'S MVS Data Set Subtask                                                           Page  318
0Current Usings:  (DDB,R5) (DSCLOSE,R10) (@DSCLOSE-72,R12) (@MEMFREE-72,R13)
0Loc    Object Code    Addr1 Addr2  Stmt Lv Lineno    Source Statement           (Hibal 5, Asmedit 3.3)  HLASM R4.0  2004/03/22 09.40
+___    ______ ____    _____ _____  ____ __ ______    ______ _________
0                                  57233    7365.     *
                                   57234    7366.     *  DATA SET NOT OPENED - DEALLOCATE IT
                                   57235    7367.     *
 00610A A0BA           0610A 06094 57236    7368.              ELSE  BEGIN
 00610A 47F0 A0D8            0612C 57241             +
 00610E                            57247  1 7369.                IF    (DDBDDNAM,Z),EXIT       ALLOCATION INCOMPLETE
 00610E D607 5038 5038 00038 00038 57257  1          +
 006114 4780 A0D8            0612C 57260  1          +
 DROP   @MEMFREE-72,R13            57266  1 7370.                PSET  @DUNALLO
 USING  @DUNALLO-72,R13
 006118 D70B D048 D048 00000 00000 57286  1          +
 00611E D207 D048 5038 00000 00038 57287  1 7371.                MVC   @DUNDDN,DDBDDNAM        SET DDNAME
 006124 58F0 A1CC/0DEF       06220 57288  1 7372.                ACALL DUNALLO
 00612A 1820                       57295  1 7373.                LR    RA,RVR
 00612C                            57296    7374.              END   ,
                                   57300    7375.     *
                                   57301    7376.     *  UNCHAIN DDB
                                   57302    7377.     *
 00612C 5860 9004            00004 57303    7378.              WITH  (RTCB,RTCBR),'L  RX,RTCBCBAT'   CBAT POINTER
 USING  RTCB,R9
 DROP   RTCB,R9
 006130 5860 6054            00054 57327    7379.              WITH  (CBAT,RX),'L  RX,CBATIOCT'      IOCT POINTER
 USING  CBAT,R6
 DROP   CBAT,R6
 USING  IOCT,R6                    57351    7380.              WITH  (IOCT,RX)
 006134 5800 6040            00040 57364    7381.              LOCKOB IOCTDDBL               GET DDB CHAIN LOCK
 DROP   @DUNALLO-72,R13
 USING  @LOCKS-72,R13
 006138 5000 D048            00000 57383             +
 00613C 58F0 A164/0DEF       061B8 57386             +
 006142 4110 602C            0002C 57388    7382.              LA    RS,IOCTDDBS             DDB CHAIN
 006146 4B10 A1E2            06236 57389    7383.              SH    RS,=Y(DDBCHAIN-DDB)     OFFSET
 00614A                            57390    7384.              LOOP  BEGIN
 DROP   DDB,R5                     57396  1 7385.                WITH  (DDB,RS)
 USING  DDB,R1
 00614A 5950 1008            00008 57417  1 7386.                IF    (RK,EQ,DDBCHAIN),EXIT   FOUND
 00614E 4780 A106            0615A 57431  1          +
 006152 5810 1008            00008 57437  1 7387.                L     RS,DDBCHAIN
 006156 47F0 A0F6            0614A 57438    7388.              END   ,
 USING  DDB,R5
 DROP   DDB,R1
 00615A 58E0 5008            00008 57457    7389.              L     R14,DDBCHAIN            NEXT IN CHAIN
 00615E 50E0 1008            00008 57458    7390.              WITH  (DDB,RS),'ST  R14,DDBCHAIN'    UPDATE FREE CHAIN
 DROP   DDB,R5
 USING  DDB,R1
 USING  DDB,R5
 DROP   DDB,R1
 006162 5800 6040            00040 57499    7391.              LOCKRL IOCTDDBL               RELEASE DDB CHAIN LOCK
 006166 5000 D048            00000 57508             +
 00616A 58F0 A168/0DEF       061BC 57511             +
 DROP   IOCT,R6                    57513    7392.              DROP  RX
1IOSERV   (IOSE00) (09:40) (22MAR04) ORVYL'S MVS Data Set Subtask                                                           Page  319
0Current Usings:  (DDB,R5) (DSCLOSE,R10) (@DSCLOSE-72,R12) (@LOCKS-72,R13)
0Loc    Object Code    Addr1 Addr2  Stmt Lv Lineno    Source Statement           (Hibal 5, Asmedit 3.3)  HLASM R4.0  2004/03/22 09.40
+___    ______ ____    _____ _____  ____ __ ______    ______ _________
0                                  57521    7394.     *
                                   57522    7395.     *  RELEASE DDB THEN RETURN
                                   57523    7396.     *
 006170                            57524    7397.              CLEAR DDB                     CLEAR THE DDB
 006170 D7A7 5000 5000 00000 00000 57530             +
 DROP   @LOCKS-72,R13              57531    7398.              MEMFREE L'DDB,A=(RK),TYPE=GLOBAL
 USING  @MEMFREE-72,R13
 006176 D709 D048 D048 00000 00000 57553             +
 00617C 4100 00A8            000A8 57560             +
 006180 5000 D04C            00004 57561             +
 006184 5050 D048            00000 57562             +
 006188 9212 D051      00009       57572             +
 00618C 58F0 A174/0DEF       061C8 57575             +
 006192 1802                       57577    7399.              LR    RVR,RA                  SET RETURN CODE
 006194 981F C008            00008 57578    7400.              PEND
 DROP   DDB,R5
 DROP   @DSCLOSE-72,R12
 DROP   DSCLOSE,R10
 006198 9680 C000/0B0E 00000       57600             +
 DROP   @MEMFREE-72,R13
1IOSERV   (IOSE00) (09:40) (22MAR04) ORVYL'S MVS Data Set Subtask                                                           Page  320
0Loc    Object Code    Addr1 Addr2  Stmt Lv Lineno    Source Statement           (Hibal 5, Asmedit 3.3)  HLASM R4.0  2004/03/22 09.40
+___    ______ ____    _____ _____  ____ __ ______    ______ _________
00061A0                            57610    7402.              LTORG
 0061A0 D4E5E2C9D6E3E2D2           57612                             =CL8'MVSIOTSK'
 0061A8 0000000000000000           57613                             =XL8'00'
 0061B0 C4C9E2D240404040           57614                             =CL8'DISK'
 0061B8 00000000                   57615                             =V(LOCKOB)
 0061BC 00000000                   57616                             =V(LOCKREL)
 0061C0 E2D5C4C2                   57617                             =CL4'SNDB'
 0061C4 00000000                   57618                             =V(MEMGET)
 0061C8 00000000                   57619                             =V(MEMFREE)
 0061CC 00000000                   57620                             =V(MSGATTS)
 0061D0 00000000                   57621                             =V(FWAIT)
 0061D4 00000000                   57622                             =V(MSGRECV)
 0061D8 00000008                   57623                             =A(FUNCMAX)
 0061DC 00000000                   57624                             =V(GSTIIOT)
 0061E0 00000000                   57625                             =V(MSGFREE)
 0061E4 C4C4C240                   57626                             =CL4'DDB'
 0061E8 00005D7C                   57627                             =A(DSALLO)
 0061EC 000064A0                   57628                             =A(TIOTSRCH)
 0061F0 0000000F                   57629                             =A(DVCTYPMK)
 0061F4 00006592                   57630                             =A(READDSCB)
 0061F8 00000000                   57631                             =V(ESTAEON)
 0061FC 00000000                   57632                             =V(ESTAEOFF)
 006200 FFFFFFFC                   57633                             =F'-4'
 006204 00000008                   57634                             =A(8)
 006208 000063A4                   57635                             =A(CALCTRK)
 00620C 00006436                   57636                             =A(CALCRPS)
 006210 00000001                   57637                             =A(1)
 006214 00006054                   57638                             =A(DSCLOSE)
 006218 000064F8                   57639                             =A(CATSRCH)
 00621C 000067A2                   57640                             =A(DYNALLO)
 006220 00006808                   57641                             =A(DUNALLO)
 006224 0008                       57642                             =Y(SNDBCHN-SNDB)
 006226 000000000000               57643                             =XL6'00'
 00622C 0004                       57644                             =Y(4)
 00622E 6F6F6F6F6F6F               57645                             =CL6'??????'
 006234 0055                       57646                             =AL2(DALRTDDN)
 006236 0008           06398 06A98 57647                             =Y(DDBCHAIN-DDB)
1IOSERV   (IOSE00) (09:40) (22MAR04) ORVYL'S MVS Data Set Subtask                                                           Page  321
0Loc    Object Code    Addr1 Addr2  Stmt Lv Lineno    Source Statement           (Hibal 5, Asmedit 3.3)  HLASM R4.0  2004/03/22 09.40
+___    ______ ____    _____ _____  ____ __ ______    ______ _________
0                                  57652    7404.     *******************************************************************
                                   57653    7405.     *                                                                 *
                                   57654    7406.     *    CTRKPARM - CALCTRK parameter list                            *
                                   57655    7407.     *                                                                 *
                                   57656    7408.     *******************************************************************
0000000                00000 0000C 57658    7410.     CTRKPARM RECORD BEGIN
                                   57666  1 7411.     TRKLIST    TRKCALC MF=D
 000000                            57667  1 01-TRKCA +           DS    0F                       ALIGN TO FULL WORD BOUNDARY
 000000                            57668  1 01-TRKCA +TRKLIST    DS    0CL12                    STAR PARM LIST MAP
 000000                            57669  1 01-TRKCA +STARUCBA   DS    0F                       UCB ADDRESS
 000000                            57670  1 01-TRKCA +STARDCTA   DS    0F                       DEVICE TABLE ADDRESS
 000000                            57671  1 01-TRKCA +           DS    XL3
 000003                            57672  1 01-TRKCA +STARTYPE   DS    XL1                      DEVICE TYPE
 000004                            57673  1 01-TRKCA +STARFLGS   DS    XL1                      FUNCTION AND OPTIONS
                                   57674  1 01-TRKCA +STARFUNC   EQU   B'10000000'              FUNCTION: 0=TRKBAL, 1=TRKCAP
                                   57675  1 01-TRKCA +STARMAXS   EQU   B'01000000'              1=MAXSIZE REQUESTED
                                   57676  1 01-TRKCA +STARREMV   EQU   B'00100000'              1=REMOVE REQUESTED
                                   57677  1 01-TRKCA +STARUBAL   EQU   B'00010000'              1=CALLER PROVIDED BALANCE
                                   57678  1 01-TRKCA +STARLAST   EQU   B'00001000'              1=SPECIAL LAST RCD REQUEST
                                   57679  1 01-TRKCA +STARDTU    EQU   B'00000110'              DVCT ENTRY SOURCE FLAGS:
                                   57680  1          +*                                       00=DVCT ENTRY ADDRESS PROVIDED
                                   57681  1          +*                                       01=RESERVED
                                   57682  1          +*                                       10=UCB ADDRESS PROVIDED
                                   57683  1          +*                                       11=DEVICE TYPE PROVIDED
                                   57684  1 01-TRKCA +STARLOC    EQU   B'00000001'              LOC=ANY. DEVTAB OR UCB     @L1C
                                   57685  1          +*                                       ABOVE THE LINE             @L1A
 000005                            57686  1 01-TRKCA +           DS    XL1                      RESERVED
 000006                            57687  1 01-TRKCA +STARBAL    DS    H                        TRACK BALANCE
 000008                            57688  1 01-TRKCA +STARRKDD   DS    0F                       RECORD INFO AS DEFINED BELOW
 000008                            57689  1 01-TRKCA +STARR      DS    XL1                      RECORD NUMBER
 000009                            57690  1 01-TRKCA +STARKL     DS    XL1                      KEY LENGTH
 00000A                            57691  1 01-TRKCA +STARDL     DS    H                        DATA LENGTH
 00000C                0000C 0000C 57692    7412.              END   ,
-
                                   57702    7414.     *******************************************************************
                                   57703    7415.     *                                                                 *
                                   57704    7416.     *    @CTRKWRK - CALCTRK and CALCRPS work area                     *
                                   57705    7417.     *                                                                 *
                                   57706    7418.     *******************************************************************
0000000                00000 0000D 57708    7420.     @CTRWORK RECORD BEGIN
 000000                            57716  1 7421.     @CTRREGS   DS    3A                      Register save
 00000C                            57717  1 7422.     @CTRSECT   DS    X                       Sector
 00000D                0000D 0000D 57718    7423.              END   ,
1IOSERV   (IOSE00) (09:40) (22MAR04) ORVYL'S MVS Data Set Subtask                                                           Page  322
0Loc    Object Code    Addr1 Addr2  Stmt Lv Lineno    Source Statement           (Hibal 5, Asmedit 3.3)  HLASM R4.0  2004/03/22 09.40
+___    ______ ____    _____ _____  ____ __ ______    ______ _________
0                                  57728    7425.     *******************************************************************
                                   57729    7426.     *                                                                 *
                                   57730    7427.     *   CALCTRK - Calculate blocks per track                          *
                                   57731    7428.     *                                                                 *
                                   57732    7429.     *                                                                 *
                                   57733    7430.     *     Input - @CTRACK                                             *
                                   57734    7431.     *                                                                 *
                                   57735    7432.     *    Output - RVR contains blocks per track                       *
                                   57736    7433.     *                                                                 *
                                   57737    7434.     *                                                                 *
                                   57738    7435.     *******************************************************************
-
 006398                            57740    7437.     CALCTRK  PROC  @CTRACK,@CTRWORK,SCOPE=LOCAL
 006398 C3C1D3C3E3D9D240           57745             +
 0063A0 0008/0010                  57746             +
 0063A4 900F D004/18AF       00004 57748             +
 USING  CALCTRK,R10
 0063AA 50D0 C000/18CD       00000 57763             +
 0063B0 9680 C000      00000       57765             +
 USING  @CTRACK-72,R12
 AUSING (@CTRWORK,@CTRACK+8)
 0063B4 41D0 C060            00060 57784             +
                                   57785    7438.     *
                                   57786    7439.     *  FIRST CREATE TALKCALC PARAMETER LIST
                                   57787    7440.     *
 USING  @MEMGET-72,R13             57788    7441.              MEMGET L'CTRKPARM,TYPE=BELOW16M
 0063B8 D709 D048 D048 00000 00000 57807             +
 0063BE 4100 000C            0000C 57814             +
 0063C2 5000 D04C            00004 57815             +
 0063C6 9201 D051      00009       57822             +
 0063CA 58F0 A4FC/0DEF       068A0 57825             +
 0063D0 1860                       57827    7442.              LR    RX,RVR
 USING  CTRKPARM,R6                57828    7443.              WITH  (CTRKPARM,RX)
 0063D2 D201 600A C04C 0000A 00004 57841    7444.              MVC   STARDL,@CTRBSZ          SET DATA LENGTH
 0063D8 D200 6009 C04E 00009 00006 57842    7445.              MVC   STARKL,@CTRKEY          SET KEY LENGTH
 0063DE 9201 6008      00008       57843    7446.              MVI   STARR,1                 SET RECORD NUMBER
 0063E2 D203 6000 C048 00000 00000 57844    7447.              MVC   STARUCBA,@CTRUCB        SET UCB
 0063E8 9684 6004      00004       57845    7448.              SET   STARFLGS.STARFUNC+X'04'   FLAGS
1IOSERV   (IOSE00) (09:40) (22MAR04) ORVYL'S MVS Data Set Subtask                                                           Page  323
0Current Usings:  (CTRKPARM,R6) (CALCTRK,R10) (@CTRACK-72,R12) (@MEMGET-72,R13)
0Loc    Object Code    Addr1 Addr2  Stmt Lv Lineno    Source Statement           (Hibal 5, Asmedit 3.3)  HLASM R4.0  2004/03/22 09.40
+___    ______ ____    _____ _____  ____ __ ______    ______ _________
0                                  57856    7450.     *
                                   57857    7451.     *  PARAMETERS SET NOW CALL THE ROUTINE
                                   57858    7452.     *
 0063EC 909B C050            00000 57859    7453.              STM   R9,R11,@CTRREGS         SAVE REGS TRKCALC TRASHES
 0063F0 4110 6000            00000 57860    7454.              TRKCALC  MF=(E,TRKLIST)
 0063F4 58F0 0010            00010 57866             +
 0063F8 58F0 F0E8            000E8 57867             +
 0063FC 45E0 F00C            0000C 57868             +
 006400 989B C050            00000 57869    7455.              LM    R9,R11,@CTRREGS
 006404 1820                       57870    7456.              LR    RA,RVR                  SAVE ANSWER
 DROP   @MEMGET-72,R13             57871    7457.              MEMFREE L'CTRKPARM,A=(RX),TYPE=BELOW16M    FREE
 USING  @MEMFREE-72,R13
 006406 D709 D048 D048 00000 00000 57893             +
 00640C 4100 000C            0000C 57900             +
 006410 5000 D04C            00004 57901             +
 006414 5060 D048            00000 57902             +
 006418 58F0 A500/0DEF       068A4 57905             +
 00641E 1802                       57907    7458.              LR    RVR,RA
 006420 981F C008            00008 57908    7459.              PEND                          RETURN
 DROP   CTRKPARM,R6
 DROP   @CTRACK-72,R12
 DROP   CALCTRK,R10
 006424 9680 C000/0B0E 00000       57928             +
 DROP   @MEMFREE-72,R13
1IOSERV   (IOSE00) (09:40) (22MAR04) ORVYL'S MVS Data Set Subtask                                                           Page  324
0Loc    Object Code    Addr1 Addr2  Stmt Lv Lineno    Source Statement           (Hibal 5, Asmedit 3.3)  HLASM R4.0  2004/03/22 09.40
+___    ______ ____    _____ _____  ____ __ ______    ______ _________
0                                  57938    7461.     *******************************************************************
                                   57939    7462.     *                                                                 *
                                   57940    7463.     *   CALCRPS - Calculate RPS values                                *
                                   57941    7464.     *                                                                 *
                                   57942    7465.     *                                                                 *
                                   57943    7466.     *     Input - @CRPS                                               *
                                   57944    7467.     *                                                                 *
                                   57945    7468.     *    Output - RVR contains sector number                          *
                                   57946    7469.     *                                                                 *
                                   57947    7470.     *                                                                 *
                                   57948    7471.     *******************************************************************
-
 00642A                            57950    7473.     CALCRPS  PROC  @CRPS,@CTRWORK,SCOPE=LOCAL
 00642A C3C1D3C3D9D7E240           57955             +
 006432 0010/0010                  57956             +
 006436 900F D004/18AF       00004 57958             +
 USING  CALCRPS,R10
 00643C 50D0 C000/18CD       00000 57973             +
 006442 9680 C000      00000       57975             +
 USING  @CRPS-72,R12
 AUSING (@CTRWORK,@CRPS+16)
 006446 41D0 C068            00068 57994             +
 00644A 4830 C04C            00004 57995    7474.              LH    RB,@CRPBLK              BLOCK NUMBER
 00644E 1233/4780 A052       06488 57996    7475.              IF    (RB,NZ),BEGIN           NOTHING TO DO FOR RECORD 0
                                   58010  1 7476.     *
                                   58011  1 7477.     *  SET PARAMETERS
                                   58012  1 7478.     *
 006454 5810 C048            00000 58013  1 7479.                L     RS,@CRPUCB              UCB POINTER
 006458 4310 1013            00213 58014  1 7480.                WITH  (UCBCMSEG,RS),'IC  RS,UCBTYP+3'  DEVICE TYPE
 USING  UCBCMSEG,R1
 DROP   UCBCMSEG,R1
 00645C 1803                       58038  1 7481.                LR    R0,RB                   SET RECORD NUMBER
 00645E BF0C C04E            00006 58039  1 7482.                ICM   R0,B'1100',@CRPBSZ      SET DATA LENGTH
 006462 BF02 C050            00008 58040  1 7483.                ICM   R0,B'0010',@CRPKEY      SET KEY LENGTH
 006466 4120 C064            0000C 58041  1 7484.                LA    R2,@CTRSECT             AREA TO PUT SECTOR
1IOSERV   (IOSE00) (09:40) (22MAR04) ORVYL'S MVS Data Set Subtask                                                           Page  325
0Current Usings:  (CALCRPS,R10) (@CRPS-72,R12)
0Loc    Object Code    Addr1 Addr2  Stmt Lv Lineno    Source Statement           (Hibal 5, Asmedit 3.3)  HLASM R4.0  2004/03/22 09.40
+___    ______ ____    _____ _____  ____ __ ______    ______ _________
0                                  58043  1 7486.     *
                                   58044  1 7487.     *  SAVE REGISTERS AND CALL THE ROUTINE
                                   58045  1 7488.     *
 00646A 909B C058            00000 58046  1 7489.                STM   R9,R11,@CTRREGS         SAVE REGS SECTOR CALC TRASHES
 00646E 41B0 00FF            000FF 58047  1 7490.                LA    R11,X'FF'
 006472 14B1                       58048  1 7491.                NR    R11,RS                  SET DEVICE TYPE
 006474 58F0 0010            00010 58049  1 7492.                L     R15,CVTPTR              CVT POINTER
 006478 58F0 F0E8            000E8 58050  1 7493.                WITH  (CVT,R15),'L  R15,CVT0SCR1'   SECTOR CONVERT ROUTINE
 USING  CVT,R15
 DROP   CVT,R15
 00647C 4DE0 F010            00010 58074  1 7494.                BAS   R14,@R15+16             CALL 31 BIT VERSION
 006480 989B C058            00000 58075  1 7495.                LM    R9,R11,@CTRREGS
 006484 4330 C064            0000C 58076  1 7496.                IC    RB,@CTRSECT             GET ANSWER
 006488                            58077    7497.              END   ,
 006488 1803                       58081    7498.              LR    RVR,RB
 00648A 981F C008            00008 58082    7499.              PEND
 DROP   @CRPS-72,R12
 DROP   CALCRPS,R10
 00648E 9680 C000/0B0E 00000       58097             +
1IOSERV   (IOSE00) (09:40) (22MAR04) ORVYL'S MVS Data Set Subtask                                                           Page  326
0Loc    Object Code    Addr1 Addr2  Stmt Lv Lineno    Source Statement           (Hibal 5, Asmedit 3.3)  HLASM R4.0  2004/03/22 09.40
+___    ______ ____    _____ _____  ____ __ ______    ______ _________
0                                  58104    7501.     *******************************************************************
                                   58105    7502.     *                                                                 *
                                   58106    7503.     *    @TSPARM - Find TIOT entry parameters                         *
                                   58107    7504.     *                                                                 *
                                   58108    7505.     *******************************************************************
0000000                00000 00008 58110    7507.     @TSPARM  RECORD BEGIN
 000000                            58118  1 7508.     @TSDDN     DS    CL8                     DD name
 000008                00008 00008 58119    7509.              END
1IOSERV   (IOSE00) (09:40) (22MAR04) ORVYL'S MVS Data Set Subtask                                                           Page  327
0Loc    Object Code    Addr1 Addr2  Stmt Lv Lineno    Source Statement           (Hibal 5, Asmedit 3.3)  HLASM R4.0  2004/03/22 09.40
+___    ______ ____    _____ _____  ____ __ ______    ______ _________
0                                  58129    7511.     *******************************************************************
                                   58130    7512.     *                                                                 *
                                   58131    7513.     *   TIOTSRCH - Search TIOT for DDNAME                             *
                                   58132    7514.     *                                                                 *
                                   58133    7515.     *                                                                 *
                                   58134    7516.     *     Input - @TSPARM                                             *
                                   58135    7517.     *                                                                 *
                                   58136    7518.     *    Output - RVR contains UCB address                            *
                                   58137    7519.     *                                                                 *
                                   58138    7520.     *                                                                 *
                                   58139    7521.     *******************************************************************
-
 006494                            58141    7523.     TIOTSRCH PROC  @TSPARM,SCOPE=LOCAL
 006494 E3C9D6E3E2D9C3C8           58146             +
 00649C 0008/0000                  58147             +
 0064A0 900F D004/18AF       00004 58149             +
 USING  TIOTSRCH,R10
 0064A6 50D0 C000/18CD       00000 58164             +
 0064AC 9680 C000      00000       58166             +
 USING  @TSPARM-72,R12
 0064B0 41D0 C050            00050 58180             +
 USING  PSA,R0                     58181    7524.              USING PSA,R0
 0064B4 5830 021C            0021C 58190    7525.              L     RB,PSATOLD              TCB
 DROP   PSA,R0                     58191    7526.              DROP  R0
 0064B8 5830 300C            0002C 58199    7527.              WITH  (TCB,RB),'L  RB,TCBTIO'   TIOT POINTER
 USING  TCB,R3
 DROP   TCB,R3
 0064BC 4130 3018            00018 58223    7528.              WITH  (TIOT,RB),'LA  RB,TIOENTRY'    FIRST DD ENTRY
 USING  TIOT,R3
 DROP   TIOT,R3
 USING  TIOENTRY,R3                58247    7529.              WITH  (TIOENTRY,RB)
 0064C0 1B00                       58260    7530.              CLEAR RVR
 0064C2                            58264    7531.     TSLOOP   LOOP  BEGIN
 0064C2                            58271  1 7532.                IF    (TIOEDDNM,EQ,@TSDDN),'L3  RVR,TIOEFSRT; EXIT TSLOOP'
 0064C2 D507 3004 C048 0001C 00000 58282  1          +
 0064C8 4770 A036/1F00       064D6 58283  1          +
 0064CE BF07 3011            00029 58294  2          +
 0064D2 47F0 A042            064E2 58297  1          +
 0064D6 4300 3000            00018 58302  1 7533.                IC    RVR,TIOELNGH             ENTRY LENGTH
 0064DA 1E30                       58303  1 7534.                ALR   RB,RVR                   TO NEXT
 0064DC 1200/4770 A022       064C2 58304    7535.              UNTIL (RVR,Z),END             END OF TIOT
 0064E2 981F C008            00008 58326    7536.              PEND
 DROP   TIOENTRY,R3
 DROP   @TSPARM-72,R12
 DROP   TIOTSRCH,R10
 0064E6 9680 C000/0B0E 00000       58346             +
1IOSERV   (IOSE00) (09:40) (22MAR04) ORVYL'S MVS Data Set Subtask                                                           Page  328
0Loc    Object Code    Addr1 Addr2  Stmt Lv Lineno    Source Statement           (Hibal 5, Asmedit 3.3)  HLASM R4.0  2004/03/22 09.40
+___    ______ ____    _____ _____  ____ __ ______    ______ _________
0                                  58353    7538.     *******************************************************************
                                   58354    7539.     *                                                                 *
                                   58355    7540.     *   @CATSRCH - Catalog search routine parameters                  *
                                   58356    7541.     *                                                                 *
                                   58357    7542.     *******************************************************************
0000000                00000 0000A 58359    7544.     @CATSRCH RECORD BEGIN
 000000                            58367  1 7545.     @CATSDSN   DS    A
 000004                            58368  1 7546.     @CATSVOL   DS    CL6
 00000A                0000A 0000A 58369    7547.              END
-
                                   58379    7549.     *******************************************************************
                                   58380    7550.     *                                                                 *
                                   58381    7551.     *    MODELCTL - MVS Catalog Locate parameter list model           *
                                   58382    7552.     *                                                                 *
                                   58383    7553.     *******************************************************************
00068B4                068B4 06A98 58385    7555.              DATA  BEGIN
                                   58391  1 7557.     CATLOC     CAMLST NAME,0,,0              CATALOG LOCATE OF DATA SET
 0068B4                            58392  1 01-CAMLS +CATLOC     DS    0F                                ALIGN ON FULL WORD
 0068B4 44                         58393  1 01-CAMLS +           DC    AL1(68)                           THREE BYTES OF FLAGS
 0068B5 00                         58394  1 01-CAMLS +           DC    AL1(0)                            INDICATING THE FUNC-
 0068B6 00                         58395  1 01-CAMLS +           DC    AL1(0)                            TION TO BE PERFORMED
 0068B7 00                         58396  1 01-CAMLS +           DC    AL1(0)                            NO OPTION THREE
 0068B8 00000000                   58397  1 01-CAMLS +           DC    A(0)                              PARAMETER TWO
 0068BC 00000000                   58398  1 01-CAMLS +           DC    A(0)                              PARAM. THREE OMMITTED
 0068C0 00000000                   58399  1 01-CAMLS +           DC    A(0)                              PARAMETER FOUR
                                   58401  1 7559.     MODELCTL   EQU   CATLOC,*-CATLOC,C'X'
 0064EC                06398 06A98 58402    7560.              END   ,
-
                                   58409    7562.     *******************************************************************
                                   58410    7563.     *                                                                 *
                                   58411    7564.     *   CTLPARM   - MVS Catalog locate work area                      *
                                   58412    7565.     *                                                                 *
                                   58413    7566.     *******************************************************************
0000000                00000 00149 58415    7568.     CTLPARM  RECORD BEGIN
 000000                            58423  1 7569.     CTLCAML    DS    XL(L'MODELCTL)          PARAMETER AREA
                                   58424  1 7570.     CTLDSNP    EQU   CTLCAML+4,4,C'X'        PARAMETER 2
                                   58425  1 7571.     CTLRESR    EQU   CTLCAML+8,4,C'X'        PARAMETER 3 (Not used)
                                   58426  1 7572.     CTLANSP    EQU   CTLCAML+12,4,C'X'       PARAMETER 4
                                   58427  1 7573.
 000010                            58428  1 7574.     CTLDSN     DS    CL44                    Data set name
 000040                            58429  1 7575.     CTLAREA    DS    0D                      Answer area
 000040                            58430  1 7576.     CTLVOLCT   DS    H                       Volume count
 000042                            58431  1 7577.     CTLDEVID   DS    AL4                     Device type code
 000046                            58432  1 7578.     CTLVOLID   DS    CL6                     Volume Id
 00004C                            58433  1 7579.     CTLSEQ     DS    H                       Sequence number
 00004E                            58434  1 7580.                DS    XL(265-(*-CTLAREA))
 000149                00149 00149 58435    7581.              END
1IOSERV   (IOSE00) (09:40) (22MAR04) ORVYL'S MVS Data Set Subtask                                                           Page  329
0Loc    Object Code    Addr1 Addr2  Stmt Lv Lineno    Source Statement           (Hibal 5, Asmedit 3.3)  HLASM R4.0  2004/03/22 09.40
+___    ______ ____    _____ _____  ____ __ ______    ______ _________
0                                  58445    7583.     *******************************************************************
                                   58446    7584.     *                                                                 *
                                   58447    7585.     *   CATSRCH - Search MVS catalog for data set                     *
                                   58448    7586.     *                                                                 *
                                   58449    7587.     *                                                                 *
                                   58450    7588.     *     Input - @CATSRCH                                            *
                                   58451    7589.     *                                                                 *
                                   58452    7590.     *    Output - VOLID in caller's data area                         *
                                   58453    7591.     *                                                                 *
                                   58454    7592.     *                                                                 *
                                   58455    7593.     *******************************************************************
-
 0064EC                            58457    7595.     CATSRCH  PROC  @CATSRCH,SCOPE=LOCAL
 0064EC C3C1E3E2D9C3C840           58462             +
 0064F4 0010/0000                  58463             +
 0064F8 900F D004/18AF       00004 58465             +
 USING  CATSRCH,R10
 0064FE 50D0 C000/18CD       00000 58480             +
 006504 9680 C000      00000       58482             +
 USING  @CATSRCH-72,R12
 006508 41D0 C058            00058 58496             +
 USING  @MEMGET-72,R13             58497    7596.              MEMGET L'CTLPARM,TYPE=BELOW16M
 00650C D709 D048 D048 00000 00000 58516             +
 006512 4100 0149            00149 58523             +
 006516 5000 D04C            00004 58524             +
 00651A 9201 D051      00009       58531             +
 00651E 58F0 A3A8/0DEF       068A0 58534             +
 006524 1830                       58536    7597.              LR    RB,RVR
 USING  CTLPARM,R3                 58537    7598.              WITH  (CTLPARM,RB)
 006526 5810 C048            00000 58550    7599.              L     RS,@CATSDSN             Pointer to data set name
 00652A D22B 3010 1000 00010 00000 58551    7600.              MVC   CTLDSN,@RS              Move it to work area
                                   58552    7601.     *
                                   58553    7602.     *  INITIALIZE CAMLST
                                   58554    7603.     *
 006530 D20F 3000 A3BC 00000 068B4 58555    7604.              MVC   CTLPARM(L'MODELCTL),MODELCTL
 006536 4110 3010            00010 58556    7605.              LA    RS,CTLDSN               Dsname pointer
 00653A 5010 3004            00004 58557    7606.              ST    RS,CTLDSNP
 00653E 4110 3040            00040 58558    7607.              LA    RS,CTLAREA              Answer area pointer
 006542 5010 300C            0000C 58559    7608.              ST    RS,CTLANSP
 006546 4110 3000/0A1A       00000 58560    7609.              LOCATE CTLCAML                Do locate
 00654C 122F/4770 A06A       06562 58564    7610.              IF    ('LTR  RA,R15',Z),BEGIN   Catalog return code
 006552                            58577  1 7611.                IF    (CTLVOLCT,NE,1),EXIT
 006552 D501 A3B4 3040 068AC 00040 58589  1          +
 006558 4770 A06A            06562 58592  1          +
 00655C D205 C04C 3046 00004 00046 58598  1 7612.                MVC   @CATSVOL,CTLVOLID       Return the volume
 006562                            58599    7613.              END
 DROP   @MEMGET-72,R13             58603    7614.              MEMFREE L'CTLPARM,A=(RB),TYPE=BELOW16M
 USING  @MEMFREE-72,R13
 006562 D709 D048 D048 00000 00000 58625             +
 006568 4100 0149            00149 58632             +
 00656C 5000 D04C            00004 58633             +
 006570 5030 D048            00000 58634             +
 006574 58F0 A3AC/0DEF       068A4 58637             +
 00657A 1802                       58639    7615.              LR    RVR,RA                  Return code
1IOSERV   (IOSE00) (09:40) (22MAR04) ORVYL'S MVS Data Set Subtask                                                           Page  330
0Current Usings:  (@MEMFREE-72,R13)
0Loc    Object Code    Addr1 Addr2  Stmt Lv Lineno    Source Statement           (Hibal 5, Asmedit 3.3)  HLASM R4.0  2004/03/22 09.40
+___    ______ ____    _____ _____  ____ __ ______    ______ _________
000657C 981F C008            00008 58640    7616.              PEND
 DROP   CTLPARM,R3
 DROP   @CATSRCH-72,R12
 DROP   CATSRCH,R10
 006580 9680 C000/0B0E 00000       58660             +
 DROP   @MEMFREE-72,R13
1IOSERV   (IOSE00) (09:40) (22MAR04) ORVYL'S MVS Data Set Subtask                                                           Page  331
0Loc    Object Code    Addr1 Addr2  Stmt Lv Lineno    Source Statement           (Hibal 5, Asmedit 3.3)  HLASM R4.0  2004/03/22 09.40
+___    ______ ____    _____ _____  ____ __ ______    ______ _________
0                                  58670    7618.     *******************************************************************
                                   58671    7619.     *                                                                 *
                                   58672    7620.     *    @RDDSCB - Read DSCB routine parameters                       *
                                   58673    7621.     *                                                                 *
                                   58674    7622.     *******************************************************************
0000000                00000 0000C 58676    7624.     @RDDSCB  RECORD BEGIN
 000000                            58684  1 7625.     @RDDDSN    DS    A
 000004                            58685  1 7626.     @RDDVOL    DS    A
 000008                            58686  1 7627.     @RDDDATA   DS    A
 00000C                0000C 0000C 58687    7628.              END
-
                                   58697    7630.     *******************************************************************
                                   58698    7631.     *                                                                 *
                                   58699    7632.     *    MODELOBT - MVS OBTAIN parameter list model                   *
                                   58700    7633.     *                                                                 *
                                   58701    7634.     *******************************************************************
00068C4                068B4 06A98 58703    7636.              DATA  BEGIN
                                   58709  1 7638.     OBTAINL    CAMLST SEARCH,0,0,0           OBTAIN TYPE = SEARCH
 0068C4                            58710  1 01-CAMLS +OBTAINL    DS    0F                                ALIGN ON FULL WORD
 0068C4 C1                         58711  1 01-CAMLS +           DC    AL1(193)                          THREE BYTES OF FLAGS
 0068C5 00                         58712  1 01-CAMLS +           DC    AL1(0)                            INDICATING THE FUNC-
 0068C6 00                         58713  1 01-CAMLS +           DC    AL1(0)                            TION TO BE PERFORMED
 0068C7 00                         58714  1 01-CAMLS +           DC    AL1(0)                            NO OPTION THREE
 0068C8 00000000                   58715  1 01-CAMLS +           DC    A(0)                              PARAMETER TWO
 0068CC 00000000                   58716  1 01-CAMLS +           DC    A(0)                              PARAMETER THREE
 0068D0 00000000                   58717  1 01-CAMLS +           DC    A(0)                              PARAMETER FOUR
                                   58719  1 7640.     MODELOBT   EQU   OBTAINL,*-OBTAINL,C'X'
 006586                06398 06A98 58720    7641.              END   ,
-
                                   58727    7643.     *******************************************************************
                                   58728    7644.     *                                                                 *
                                   58729    7645.     *    OBTAIN   - MVS OBTAIN work area                              *
                                   58730    7646.     *                                                                 *
                                   58731    7647.     *******************************************************************
0000000                00000 000D4 58733    7649.     OBTPARM  RECORD BEGIN
 000000                            58741  1 7650.     OBTCAML    DS    XL(L'MODELOBT)          PARAMETER AREA
                                   58742  1 7651.     OBTDSNP    EQU   OBTCAML+4,4,C'X'        PARAMETER 2
                                   58743  1 7652.     OBTVOLP    EQU   OBTCAML+8,4,C'X'        PARAMETER 3
                                   58744  1 7653.     OBTAREA    EQU   OBTCAML+12,4,C'X'       PARAMETER 4
                                   58745  1 7654.
 000010                            58746  1 7655.     OBTDSN     DS    CL44
 00003C                            58747  1 7656.     OBTVOL     DS    CL6
 000048                            58748  1 7657.                DS    0D
 000048                            58749  1 7658.     OBTDATA    DS    XL(DS1END-IECSDSL1)     AREA LOCATE READS INTO
 0000D4                000D4 000D4 58750    7659.              END
1IOSERV   (IOSE00) (09:40) (22MAR04) ORVYL'S MVS Data Set Subtask                                                           Page  332
0Loc    Object Code    Addr1 Addr2  Stmt Lv Lineno    Source Statement           (Hibal 5, Asmedit 3.3)  HLASM R4.0  2004/03/22 09.40
+___    ______ ____    _____ _____  ____ __ ______    ______ _________
0                                  58760    7661.     *******************************************************************
                                   58761    7662.     *                                                                 *
                                   58762    7663.     *   READDSCB - Read DSCB from VTOC                                *
                                   58763    7664.     *                                                                 *
                                   58764    7665.     *                                                                 *
                                   58765    7666.     *     Input - @RDDSCB                                             *
                                   58766    7667.     *                                                                 *
                                   58767    7668.     *    Output - DSCB (data portion) in caller's data area           *
                                   58768    7669.     *                                                                 *
                                   58769    7670.     *                                                                 *
                                   58770    7671.     *******************************************************************
-
 006586                            58772    7673.     READDSCB PROC  @RDDSCB,SCOPE=LOCAL
 006586 D9C5C1C4C4E2C3C2           58777             +
 00658E 0010/0000                  58778             +
 006592 900F D004/18AF       00004 58780             +
 USING  READDSCB,R10
 006598 50D0 C000/18CD       00000 58795             +
 00659E 9680 C000      00000       58797             +
 USING  @RDDSCB-72,R12
 0065A2 41D0 C058            00058 58811             +
 USING  @MEMGET-72,R13             58812    7674.              MEMGET L'OBTPARM,TYPE=BELOW16M
 0065A6 D709 D048 D048 00000 00000 58831             +
 0065AC 4100 00D4            000D4 58838             +
 0065B0 5000 D04C            00004 58839             +
 0065B4 9201 D051      00009       58846             +
 0065B8 58F0 A30E/0DEF       068A0 58849             +
 0065BE 1830                       58851    7675.              LR    RB,RVR
 USING  OBTPARM,R3                 58852    7676.              WITH  (OBTPARM,RB)
                                   58865    7677.     *
                                   58866    7678.     *  INITIALIZE CAMLST
                                   58867    7679.     *
 0065C0 D20F 3000 A332 00000 068C4 58868    7680.              MVC   OBTPARM(L'MODELOBT),MODELOBT
 0065C6 4110 3010            00010 58869    7681.              LA    RS,OBTDSN               POINT TO
 0065CA 5010 3004            00004 58870    7682.              ST    RS,OBTDSNP               DSNAME
 0065CE 4110 303C            0003C 58871    7683.              LA    RS,OBTVOL               POINT TO
 0065D2 5010 3008            00008 58872    7684.              ST    RS,OBTVOLP               VOLSER
 0065D6 4110 3048            00048 58873    7685.              LA    RS,OBTDATA              POINT TO
 0065DA 5010 300C            0000C 58874    7686.              ST    RS,OBTAREA               OBTAIN AREA
1IOSERV   (IOSE00) (09:40) (22MAR04) ORVYL'S MVS Data Set Subtask                                                           Page  333
0Current Usings:  (OBTPARM,R3) (READDSCB,R10) (@RDDSCB-72,R12) (@MEMGET-72,R13)
0Loc    Object Code    Addr1 Addr2  Stmt Lv Lineno    Source Statement           (Hibal 5, Asmedit 3.3)  HLASM R4.0  2004/03/22 09.40
+___    ______ ____    _____ _____  ____ __ ______    ______ _________
0                                  58876    7688.     *
                                   58877    7689.     *  COPY DSNAME AND VOLID
                                   58878    7690.     *
 0065DE 5810 C048            00000 58879    7691.              L     RS,@RDDDSN              SUPPLIED DSNAME
 0065E2 D22B 3010 1000 00010 00000 58880    7692.              MVC   OBTDSN,@RS               TO PARM AREA
 0065E8 5810 C04C            00004 58881    7693.              L     RS,@RDDVOL              SUPPLIED VOLID
 0065EC D205 303C 1000 0003C 00000 58882    7694.              MVC   OBTVOL,@RS               TO PARM AREA
 0065F2 4110 3000/0A1B       00000 58883    7695.              OBTAIN OBTCAML                DO OBTAIN
 0065F8 12FF/4780 A07C       0660E 58887    7696.              IF    (R15,NZ),'KAPUT OBTAIN'
 0065FE 4110 0001            00001 58904  1 03-KAPUT +*,THIS FUNCTION IS NOT IMPLEMENTED
 006602 4100 0080            00080 58910  1          +
 006606 8900 0018/1610       00018 58911  1          +
 00660C 0A0D                       58913             +
 00660E 5820 C050            00008 58918    7697.              L     RA,@RDDDATA             CALLER'S DATA AREA
 006612 D28B 2000 3048 00000 00048 58919    7698.              MVC   @RA(L'OBTDATA),OBTDATA   RETURN DATA TO CALLER
 DROP   @MEMGET-72,R13             58920    7699.              MEMFREE L'OBTPARM,A=(RB),TYPE=BELOW16M
 USING  @MEMFREE-72,R13
 006618 D709 D048 D048 00000 00000 58942             +
 00661E 4100 00D4            000D4 58949             +
 006622 5000 D04C            00004 58950             +
 006626 5030 D048            00000 58951             +
 00662A 58F0 A312/0DEF       068A4 58954             +
 006630 981F C008            00008 58956    7700.              PEND
 DROP   OBTPARM,R3
 DROP   @RDDSCB-72,R12
 DROP   READDSCB,R10
 006634 9680 C000/0B0E 00000       58976             +
 DROP   @MEMFREE-72,R13
1IOSERV   (IOSE00) (09:40) (22MAR04) ORVYL'S MVS Data Set Subtask                                                           Page  334
0Loc    Object Code    Addr1 Addr2  Stmt Lv Lineno    Source Statement           (Hibal 5, Asmedit 3.3)  HLASM R4.0  2004/03/22 09.40
+___    ______ ____    _____ _____  ____ __ ______    ______ _________
0                                  58986    7702.     *******************************************************************
                                   58987    7703.     *                                                                 *
                                   58988    7704.     *    ENQWORK - ENQ/DEQ work area                                  *
                                   58989    7705.     *                                                                 *
                                   58990    7706.     *******************************************************************
0000000                00000 0001C 58992    7708.     ENQWORK  RECORD BEGIN
 000000                            59000  1 7709.                DS    4A                      PREFIX AREA
                                   59001  1 7710.     ENQ        ENQ   (,,E,,SYSTEM),RET=USE,MF=L
                                   59002  1          +*         MACRO-DATE = 95/03/03                                    @03C
 000010                            59003  1 01-ENQ   +           DS    0F                      ESTABLISH A FULLWORD BOUNDARY
                                   59004  1 01-ENQ   +ENQ        EQU   *                                                 X02113
 000010 C0                         59005  1 01-ENQ   +           DC    AL1(192)                PELLAST flag byte.        X02113
 000011 00                         59006  1 01-ENQ   +           DC    AL1(0)                  PELMILEN - RNAME length.
 000012 43                         59007  1 01-ENQ   +           DC    BL1'01000011'
                                   59008  1          +*                                      PELFLAG - flag byte 2.
 000013 00                         59009  1 01-ENQ   +           DC    AL1(0)                  PELRET - return code byte.
 000014 00000000                   59010  1 01-ENQ   +           DC    A(0)                    QNAME ADDRESS
 000018 00000000                   59011  1 01-ENQ   +           DC    A(0)                    RNAME ADDRESS
 00001C                0001C 0001C 59012    7711.              END   ,
-
                                   59022    7713.              COPY  MVSPARM
                                   59023             =*******************************************************************
                                   59024             =*                                                                 *
                                   59025             =*    @MVSENQ - MVS ENQ/DEQ parameter list                         *
                                   59026             =*                                                                 *
                                   59027             =*******************************************************************
0000000                00000 00011 59029             =@MVSENQ  RECORD BEGIN
 000000                            59037  1          =@MVNQRNM   DS    A                       RESOURCE NAME LOCATION
 000004                            59038  1          =@MVNQRNL   DS    A                       RESOURCE NAME LENGTH
 000008                            59039  1          =@MVNQQNM   DS    CL8                     QUEUE NAME
 000010 00                         59040  1          =@MVNQF     FLAG  ,
 @MVNQF.@MVNQENQ   80 ONES         59044  1          =           FLAG  @MVNQENQ                ENQUEUE OPERATION
 @MVNQF.@MVNQEXC   40 ONES         59049  1          =           FLAG  @MVNQEXC                NON-SHARED RESOURCE
 000011                00011 00011 59054             =         END   ,
1IOSERV   (IOSE00) (09:40) (22MAR04) ORVYL'S MVS Data Set Subtask                                                           Page  335
0Loc    Object Code    Addr1 Addr2  Stmt Lv Lineno    Source Statement           (Hibal 5, Asmedit 3.3)  HLASM R4.0  2004/03/22 09.40
+___    ______ ____    _____ _____  ____ __ ______    ______ _________
0                                  59064    7715.     *******************************************************************
                                   59065    7716.     *                                                                 *
                                   59066    7717.     *   MVSENQ - MVS enqueue/dequeue service                          *
                                   59067    7718.     *                                                                 *
                                   59068    7719.     *                                                                 *
                                   59069    7720.     *     Input - @MVSENQ                                             *
                                   59070    7721.     *                                                                 *
                                   59071    7722.     *    Output - RVR contains condition code returned                *
                                   59072    7723.     *                 from MVS service                                *
                                   59073    7724.     *                                                                 *
                                   59074    7725.     *                                                                 *
                                   59075    7726.     *******************************************************************
-
 00663A                            59077    7728.     MVSENQ   PROC  @MVSENQ,ENQWORK,SCOPE=GLOBAL
 00663A D4E5E2C5D5D84040           59083             +
 006642 0018/0020                  59084             +
 006646 900F D004/18AF       00004 59086             +
 USING  MVSENQ,R10
 00664C 50D0 C000/18CD       00000 59101             +
 006652 9680 C000      00000       59103             +
 USING  @MVSENQ-72,R12
 AUSING (ENQWORK,@MVSENQ+24)
 006656 41D0 C080            00080 59122             +
 00665A                            59123    7729.              CLEAR ENQWORK
 00665A D71B C060 C060 00000 00000 59129             +
 006660 96C0 C070      00010       59130    7730.              OI    ENQ,X'C0'               SET LIST END
 006664 5820 C048            00000 59131    7731.              L     RA,@MVNQRNM             RESOURCE NAME LOCATION
 006668 5830 C04C            00004 59132    7732.              L     RB,@MVNQRNL             RESOURCE NAME LENGTH
 00666C 4140 C050            00008 59133    7733.              LA    RJ,@MVNQQNM             QUEUE NAME
                                   59134    7734.     *
                                   59135    7735.     *  GET JOB STEP TCB
                                   59136    7736.     *
 USING  PSA,R0                     59137    7737.              USING PSA,R0
 006670 58F0 021C            0021C 59146    7738.              L     R15,PSATOLD              TCB
 DROP   PSA,R0                     59147    7739.              DROP  R0
 006674 58F0 F07C            0009C 59155    7740.              WITH  (TCB,R15),'L  R15,TCBJSTCB'   JOB STEP TCB POINTER
 USING  TCB,R15
 DROP   TCB,R15
 006678 9180 C058      00010       59179    7741.              IF    @MVNQENQ,BEGIN          ENQUEUE OPERATION
 00667C 47E0 A07A            066C0 59189             +
                                   59195  1 7743.                ENQ   ((RJ),(RA),E,(RB),SYSTEM),RET=USE,TCB=(R15),MF=(E,ENQ)
                                   59196  1          +*         MACRO-DATE = 95/03/03                                    @03C
 006680                            59197  1 01-ENQ   +           DS    0H                      INITIALIZE PARAMETER-LIST   @L1A
 006680 50F0 C06C            0000C 59198  1 01-ENQ   +           ST    R15,ENQ-4+0                SET TCB ADDRESS IN LIST  @L1C
 006684 4110 C070            00010 59199  1 01-ENQ   +           LA    1,ENQ                   . ADDRESS THE LIST          @L1A
 006688 4230 1001            00001 59200  1 01-ENQ   +           STC   RB,1(0,1)
 00668C 9601 1000      00000       59201  1 01-ENQ   +           OI    0(1),1               Turn on PELLAST option flags.
 006690 94BF 1000      00000       59202  1 01-ENQ   +           NI    0(1),191             Turn off PELLAST options flags that
 006694 9430 1002      00002       59203  1 01-ENQ   +           NI    2(1),48                   SET OPTIONS SPECIFIED @ZA00466
 006698 9643 1002      00002       59204  1 01-ENQ   +           OI    2(1),67                   FOR THIS ELEMENT      @ZA00466
 00669C 18E1                       59205  1 01-ENQ   +           LR    14,1                      PRESERVE REG 1        @ZA00466
 00669E 9180 E000      00000       59206  1 01-ENQ   +           TM    0(14),128                 IS IT END OF LIST     @ZA00466
 0066A2 4710 A070            066B6 59207  1 01-ENQ   +           BO    *+20                      YES, GET OUT OF LOOP      @P5C
 0066A6 41EE 000C            0000C 59208  1 01-ENQ   +           LA    14,12(14)                 INDEX TO NEXT ENTRY   @ZA00466
1IOSERV   (IOSE00) (09:40) (22MAR04) ORVYL'S MVS Data Set Subtask                                                           Page  336
0Current Usings:  (MVSENQ,R10) (@MVSENQ-72,R12)
0Loc    Object Code    Addr1 Addr2  Stmt Lv Lineno    Source Statement           (Hibal 5, Asmedit 3.3)  HLASM R4.0  2004/03/22 09.40
+___    ______ ____    _____ _____  ____ __ ______    ______ _________
00066AA 94F8 E002      00002       59209  1 01-ENQ   +           NI    2(14),248                 SET RET AND SMC IN ALL@ZA53727
 0066AE 9603 E002      00002       59210  1 01-ENQ   +           OI    2(14),3                   ELEMENTS IN LIST.     @ZA53727
 0066B2 47F0 A058            0669E 59211  1 01-ENQ   +           B     *-20                      STAY IN LOOP              @P5C
 0066B6 5040 1004            00004 59212  1 01-ENQ   +           ST    RJ,4(0,1)                 STORE QNAME ADDRESS
 0066BA 5020 1008            00008 59213  1 01-ENQ   +           ST    RA,8(0,1)                 STORE RNAME ADDRESS
 0066BE 0A38                       59214  1 01-ENQ   +           SVC   56
 0066C0 A07E           066C0 0667E 59216    7745.              END   ELSE,BEGIN
 0066C0 47F0 A0BE            06704 59225             +
                                   59232  1 7747.                DEQ   ((RJ),(RA),(RB),SYSTEM),RET=HAVE,TCB=(R15),MF=(E,ENQ)
                                   59233  1          +*        MACRO-DATE = 05/05/95                                     @01C
 0066C4                            59235  1 02-ENQ   +           DS    0H                      INITIALIZE PARAMETER-LIST   @L1A
 0066C4 50F0 C06C            0000C 59236  1 02-ENQ   +           ST    R15,ENQ-4+0                SET TCB ADDRESS IN LIST  @L1C
 0066C8 4110 C070            00010 59237  1 02-ENQ   +           LA    1,ENQ                   . ADDRESS THE LIST          @L1A
 0066CC 4230 1001            00001 59238  1 02-ENQ   +           STC   RB,1(0,1)
 0066D0 9601 1000      00000       59239  1 02-ENQ   +           OI    0(1),1               Turn on PELLAST option flags.
 0066D4 94BF 1000      00000       59240  1 02-ENQ   +           NI    0(1),191             Turn off PELLAST options flags that
 0066D8 94B0 1002      00002       59241  1 02-ENQ   +           NI    2(1),176                  SET OPTIONS SPECIFIED @ZA00466
 0066DC 9641 1002      00002       59242  1 02-ENQ   +           OI    2(1),65                   FOR THIS ELEMENT      @ZA00466
 0066E0 18E1                       59243  1 02-ENQ   +           LR    14,1                      PRESERVE REG 1        @ZA00466
 0066E2 9180 E000      00000       59244  1 02-ENQ   +           TM    0(14),128                 IS IT END OF LIST     @ZA00466
 0066E6 4710 A0B4            066FA 59245  1 02-ENQ   +           BO    *+20                      YES, GET OUT OF LOOP      @P5C
 0066EA 41EE 000C            0000C 59246  1 02-ENQ   +           LA    14,12(14)                 INDEX TO NEXT ENTRY   @ZA00466
 0066EE 94F8 E002      00002       59247  1 02-ENQ   +           NI    2(14),248                 SET RET AND SMC IN ALL@ZA53727
 0066F2 9601 E002      00002       59248  1 02-ENQ   +           OI    2(14),1                   ELEMENTS IN LIST.     @ZA53727
 0066F6 47F0 A09C            066E2 59249  1 02-ENQ   +           B     *-20                      STAY IN LOOP              @P5C
 0066FA 5040 1004            00004 59250  1 02-ENQ   +           ST    RJ,4(0,1)                 STORE QNAME ADDRESS
 0066FE 5020 1008            00008 59251  1 02-ENQ   +           ST    RA,8(0,1)                 STORE RNAME ADDRESS
 006702 0A30                       59252  1 01-DEQ   +           SVC   48                                                  SDS1
 006704                            59254    7749.              END
 006704 120F/4780 A0CA       06710 59258    7750.              IF    ('LTR RVR,R15',NZ),'LC  RVR,@R15+3'   SET RETURN CODE
 00670A 1F00/4300 F003       00003 59275             +
 006710 981F C008            00008 59281    7751.              PEND
 DROP   @MVSENQ-72,R12
 DROP   MVSENQ,R10
 006714 9680 C000/0B0E 00000       59296             +
1IOSERV   (IOSE00) (09:40) (22MAR04) ORVYL'S MVS Data Set Subtask                                                           Page  337
0Loc    Object Code    Addr1 Addr2  Stmt Lv Lineno    Source Statement           (Hibal 5, Asmedit 3.3)  HLASM R4.0  2004/03/22 09.40
+___    ______ ____    _____ _____  ____ __ ______    ______ _________
0                                  59303    7753.     *******************************************************************
                                   59304    7754.     *                                                                 *
                                   59305    7755.     *    AM24 - AMODE 24 Cap routine request parameters               *
                                   59306    7756.     *                                                                 *
                                   59307    7757.     *******************************************************************
0000000                00000 0009C 59309    7759.     @AM24    RECORD BEGIN
 000000                            59317  1 7760.     @AM24SVA   DS    18A                     Save area
 000048                            59318  1 7761.     @AM24RGS   DS    5A                      Parameters for MVS service
 00005C                            59319  1 7762.     @AM24CRS   DS    16A                     Caller's registers
 00009C                0009C 0009C 59320    7763.              END   ,
-
                                   59330    7765.     *******************************************************************
                                   59331    7766.     *                                                                 *
                                   59332    7767.     *    @AM24RTN - AMODE 24 routine request parameters               *
                                   59333    7768.     *                                                                 *
                                   59334    7769.     *******************************************************************
0000000                00000 00014 59336    7771.     @AM24RTN RECORD BEGIN
 000000                            59344  1 7772.     @AM24R15   DS    A                       Parameter register 15
 000004                            59345  1 7773.     @AM24R0    DS    A                       Parameter register 0
 000008                            59346  1 7774.     @AM24R1    DS    A                       Parameter register 1
 00000C                            59347  1 7775.     @AM24R2    DS    A                       Parameter register 2
 000010                            59348  1 7776.     @AM24OFF   DS    A                       Offset for branch address
 000014                00014 00014 59349    7777.              END
1IOSERV   (IOSE00) (09:40) (22MAR04) ORVYL'S MVS Data Set Subtask                                                           Page  338
0Loc    Object Code    Addr1 Addr2  Stmt Lv Lineno    Source Statement           (Hibal 5, Asmedit 3.3)  HLASM R4.0  2004/03/22 09.40
+___    ______ ____    _____ _____  ____ __ ______    ______ _________
0                                  59359    7779.     *******************************************************************
                                   59360    7780.     *                                                                 *
                                   59361    7781.     *   AM24RTN - Interface to AMODE 24 service                       *
                                   59362    7782.     *                                                                 *
                                   59363    7783.     *                                                                 *
                                   59364    7784.     *                                                                 *
                                   59365    7785.     *     Input - @AM24RTN                                            *
                                   59366    7786.     *                                                                 *
                                   59367    7787.     *    Output - As defined by MVS service                           *
                                   59368    7788.     *                                                                 *
                                   59369    7789.     *                                                                 *
                                   59370    7790.     *******************************************************************
-
 00671A                            59372    7792.     AM24RTN  PROC  @AM24RTN,SCOPE=LOCAL
 00671A C1D4F2F4D9E3D540           59377             +
 006722 0018/0000                  59378             +
 006726 900F D004/18AF       00004 59380             +
 USING  AM24RTN,R10
 00672C 50D0 C000/18CD       00000 59395             +
 006732 9680 C000      00000       59397             +
 USING  @AM24RTN-72,R12
 006736 41D0 C060            00060 59411             +
                                   59412    7793.     *
                                   59413    7794.     *  CREATE AMODE 24 ROUTINE PARAMETER LIST
                                   59414    7795.     *
 USING  @MEMGET-72,R13             59415    7796.              MEMGET L'@AM24,TYPE=BELOW16M
 00673A D709 D048 D048 00000 00000 59434             +
 006740 4100 009C            0009C 59441             +
 006744 5000 D04C            00004 59442             +
 006748 9201 D051      00009       59449             +
 00674C 58F0 A17A/0DEF       068A0 59452             +
 006752 1850                       59454    7797.              LR    RK,RVR
 USING  @AM24,R5                   59455    7798.              WITH  (@AM24,RK),BEGIN
 006754 98F2 C048            00000 59469  1 7799.                LM    R15,R2,@AM24R15
 006758 90F2 5048            00048 59470  1 7800.                STM   R15,R2,@AM24RGS         PASS PARAMETERS
 DROP   @AM24,R5                   59471    7801.              END   ,
1IOSERV   (IOSE00) (09:40) (22MAR04) ORVYL'S MVS Data Set Subtask                                                           Page  339
0Current Usings:  (AM24RTN,R10) (@AM24RTN-72,R12) (@MEMGET-72,R13)
0Loc    Object Code    Addr1 Addr2  Stmt Lv Lineno    Source Statement           (Hibal 5, Asmedit 3.3)  HLASM R4.0  2004/03/22 09.40
+___    ______ ____    _____ _____  ____ __ ______    ______ _________
0                                  59480    7803.     *
                                   59481    7804.     *  NOW CALL THE ROUTINE
                                   59482    7805.     *
 00675C 1815                       59483    7806.              LR    R1,RK                   SET CAP PARAMETERS
 00675E 5870 9004            00004 59484    7807.              WITH  (RTCB,RTCBR),'L  RY,RTCBCBAT'   CBAT POINTER
 USING  RTCB,R9
 DROP   RTCB,R9
 006762 5870 7054            00054 59508    7808.              WITH  (CBAT,RY),'L  RY,CBATIOCT'      IOCT POINTER
 USING  CBAT,R7
 DROP   CBAT,R7
 006766 58F0 7074            00074 59532    7809.              WITH  (IOCT,RY),'L  EPAR,IOCTAM24'    GO TO AMODE 24
 USING  IOCT,R7
 DROP   IOCT,R7
 00676A 0CEF                       59556    7810.              BASSM RAR,EPAR
 00676C 90F1 C048            00000 59557    7811.              STM   R15,R1,@AM24R15         SAVE ANSWERS
 DROP   @MEMGET-72,R13             59558    7812.              MEMFREE L'@AM24,A=(RK),TYPE=BELOW16M    FREE
 USING  @MEMFREE-72,R13
 006770 D709 D048 D048 00000 00000 59580             +
 006776 4100 009C            0009C 59587             +
 00677A 5000 D04C            00004 59588             +
 00677E 5050 D048            00000 59589             +
 006782 58F0 A17E/0DEF       068A4 59592             +
 006788 5800 C04C            00004 59594    7813.              L     RVR,@AM24R0
 00678C 981F C008            00008 59595    7814.              PEND
 DROP   @AM24RTN-72,R12
 DROP   AM24RTN,R10
 006790 9680 C000/0B0E 00000       59610             +
 DROP   @MEMFREE-72,R13
1IOSERV   (IOSE00) (09:40) (22MAR04) ORVYL'S MVS Data Set Subtask                                                           Page  340
0Loc    Object Code    Addr1 Addr2  Stmt Lv Lineno    Source Statement           (Hibal 5, Asmedit 3.3)  HLASM R4.0  2004/03/22 09.40
+___    ______ ____    _____ _____  ____ __ ______    ______ _________
0                                  59620    7816.     *******************************************************************
                                   59621    7817.     *                                                                 *
                                   59622    7818.     *    @DYNALLO - Dynamic allocation parameter list                 *
                                   59623    7819.     *                                                                 *
                                   59624    7820.     *******************************************************************
0000000                00000 00008 59626    7822.     @DYNALLO RECORD BEGIN
 000000                            59634  1 7823.     @DYNTXTU   DS    A                       Pointer to text unit pointers
                                   59635  1 7824.
 000004                            59636  1 7825.     @DYNERR    DS    H                       SVC error code
 000006                            59637  1 7826.     @DYNRSN    DS    H                       SVC reason code
 000008                00008 00008 59638    7827.              END   ,
-
                                   59648    7829.     *******************************************************************
                                   59649    7830.     *                                                                 *
                                   59650    7831.     *    DYNALLOC - Dynamic allocation work area                      *
                                   59651    7832.     *                                                                 *
                                   59652    7833.     *******************************************************************
0000000                00000 00018 59654    7835.     DYNALLOC RECORD BEGIN
 000000                            59662  1 7836.     DARBPTR    DS    A                       SVC 99 REQUEST BLOCK ADDRESS
 000004                            59663  1 7837.     DAREQB     DS    ((S99RBEND-S99RB+3)/4)A    SVC 99 REQUEST BLOCK
 000018                00018 00018 59664    7838.              END
1IOSERV   (IOSE00) (09:40) (22MAR04) ORVYL'S MVS Data Set Subtask                                                           Page  341
0Loc    Object Code    Addr1 Addr2  Stmt Lv Lineno    Source Statement           (Hibal 5, Asmedit 3.3)  HLASM R4.0  2004/03/22 09.40
+___    ______ ____    _____ _____  ____ __ ______    ______ _________
0                                  59674    7840.     *******************************************************************
                                   59675    7841.     *                                                                 *
                                   59676    7842.     *   DYNALLO -  Dynamic Allocation Service Routine                 *
                                   59677    7843.     *                                                                 *
                                   59678    7844.     *                                                                 *
                                   59679    7845.     *     Input - @DYNALLO                                            *
                                   59680    7846.     *                                                                 *
                                   59681    7847.     *    Output - RVR contains return code                            *
                                   59682    7848.     *             @DYNALLO                                            *
                                   59683    7849.     *                                                                 *
                                   59684    7850.     *                                                                 *
                                   59685    7851.     *******************************************************************
-
 006796                            59687    7853.     DYNALLO  PROC  @DYNALLO,DYNALLOC,SCOPE=LOCAL
 006796 C4E8D5C1D3D3D640           59692             +
 00679E 0008/0018                  59693             +
 0067A2 900F D004/18AF       00004 59695             +
 USING  DYNALLO,R10
 0067A8 50D0 C000/18CD       00000 59710             +
 0067AE 9680 C000      00000       59712             +
 USING  @DYNALLO-72,R12
 AUSING (DYNALLOC,@DYNALLO+8)
 0067B2 41D0 C068            00068 59731             +
                                   59732    7854.     *
                                   59733    7855.     *  INITIALIZE DYNAMIC ALLOCATION REQUEST BLOCK
                                   59734    7856.     *
 0067B6 4160 C054            00004 59735    7857.              LA    RX,DAREQB               REQUEST BLOCK
 0067BA 5060 C050            00000 59736    7858.              ST    RX,DARBPTR              SET
 0067BE 9680 C050      00000       59737    7859.              SET   DARBPTR.S99RBPND        SET END MARKER
 USING  S99RB,R6                   59744    7860.              WITH  (S99RB,RX),BEGIN
 0067C2                            59758  1 7861.                CLEAR (S99RB,S99RBEND-S99RB)   CLEAR AREA
 0067C2 D713 6000 6000 00000 00000 59764  1          +
 0067C8 9214 6000      00000       59765  1 7862.                MVI   S99RBLN,S99RBEND-S99RB   SET LENGTH
 0067CC 9201 6001      00001       59766  1 7863.                MVI   S99VERB,S99VRBAL        DSNAME ALLOCATION
 0067D0 9260 6002      00002       59767  1 7864.                MVI   S99FLG11,S99NOCNV+S99NOMNT  NO SPECIAL MOUNTS
 0067D4 D203 6008 C048 00008 00000 59768  1 7865.                MVC   S99TXTPP,@DYNTXTU       POINTER TO TEXT UNIT POINTERS
 DROP   S99RB,R6                   59769    7866.              END   ,
                                   59777    7867.     *
                                   59778    7868.     * DO ALLOCATION
                                   59779    7869.     *
 0067DA 4110 C050            00000 59780    7870.              LA    R1,DARBPTR              SET POINTER
 0067DE 0A63                       59781    7871.              DYNALLOC ,
1IOSERV   (IOSE00) (09:40) (22MAR04) ORVYL'S MVS Data Set Subtask                                                           Page  342
0Current Usings:  (DYNALLO,R10) (@DYNALLO-72,R12)
0Loc    Object Code    Addr1 Addr2  Stmt Lv Lineno    Source Statement           (Hibal 5, Asmedit 3.3)  HLASM R4.0  2004/03/22 09.40
+___    ______ ____    _____ _____  ____ __ ______    ______ _________
0                                  59785    7873.     *
                                   59786    7874.     *  SET RETURNS
                                   59787    7875.     *
 0067E0 120F/4780 A050       067F2 59788    7876.              IF    ('LTR  RVR,R15',NZ),BEGIN    COPY & CHECK RETURN CODE
 USING  S99RB,R6                   59801  1 7877.                WITH  (S99RB,RX)
 0067E6 D201 C04C 6004 00004 00004 59814  1 7878.                MVC   @DYNERR,S99ERROR         ERROR CODE
 0067EC D201 C04E 6006 00006 00006 59815  1 7879.                MVC   @DYNRSN,S99INFO           AND REASON CODE
 DROP   S99RB,R6                   59816    7880.              END   ,
 0067F2 981F C008            00008 59825    7881.              PEND
 DROP   @DYNALLO-72,R12
 DROP   DYNALLO,R10
 0067F6 9680 C000/0B0E 00000       59840             +
1IOSERV   (IOSE00) (09:40) (22MAR04) ORVYL'S MVS Data Set Subtask                                                           Page  343
0Loc    Object Code    Addr1 Addr2  Stmt Lv Lineno    Source Statement           (Hibal 5, Asmedit 3.3)  HLASM R4.0  2004/03/22 09.40
+___    ______ ____    _____ _____  ____ __ ______    ______ _________
0                                  59847    7883.     *******************************************************************
                                   59848    7884.     *                                                                 *
                                   59849    7885.     *    @DUNALLO - Dynamic un-allocation parameter list              *
                                   59850    7886.     *                                                                 *
                                   59851    7887.     *******************************************************************
0000000                00000 0000C 59853    7889.     @DUNALLO RECORD BEGIN
 000000                            59861  1 7890.     @DUNDDN    DS    CL8                     DD name to be un-allocated
                                   59862  1 7891.
 000008                            59863  1 7892.     @DUNERR    DS    H                       SVC error code
 00000A                            59864  1 7893.     @DUNRSN    DS    H                       SVC reason code
 00000C                0000C 0000C 59865    7894.              END   ,
-
                                   59875    7896.     *******************************************************************
                                   59876    7897.     *                                                                 *
                                   59877    7898.     *    DUNALLOC - Dynamic un-allocation work area                   *
                                   59878    7899.     *                                                                 *
                                   59879    7900.     *******************************************************************
0000000                00000 00032 59881    7902.     DUNALLOC RECORD BEGIN
 000000                            59889  1 7903.     DURBPTR    DS    A                       SVC 99 REQUEST BLOCK ADDRESS
 000004                            59890  1 7904.     DUREQB     DS    ((S99RBEND-S99RB+3)/4)A    SVC 99 REQUEST BLOCK
 000018                            59891  1 7905.     DUTXPTL    DS    2A                      TEXT POINTER LIST
 000020                            59892  1 7906.     DUTXTU     DS    (S99TUENT-S99TUNIT)X    UNALLOC TEXT UNIT
 000024                            59893  1 7907.     DUTXTUD    DS    (S99TUPAR-S99TUNIT)X    DDNAME TEXT UNIT
 00002A                            59894  1 7908.     DUTXTPM    DS    CL8                      AND PARAMETER
 000032                00032 00032 59895    7909.              END
1IOSERV   (IOSE00) (09:40) (22MAR04) ORVYL'S MVS Data Set Subtask                                                           Page  344
0Loc    Object Code    Addr1 Addr2  Stmt Lv Lineno    Source Statement           (Hibal 5, Asmedit 3.3)  HLASM R4.0  2004/03/22 09.40
+___    ______ ____    _____ _____  ____ __ ______    ______ _________
0                                  59905    7911.     *******************************************************************
                                   59906    7912.     *                                                                 *
                                   59907    7913.     *   DUNALLO -  Dynamic Un-allocation Service Routine              *
                                   59908    7914.     *                                                                 *
                                   59909    7915.     *                                                                 *
                                   59910    7916.     *     Input - @DUNALLO                                            *
                                   59911    7917.     *                                                                 *
                                   59912    7918.     *    Output - RVR contains return code                            *
                                   59913    7919.     *                                                                 *
                                   59914    7920.     *                                                                 *
                                   59915    7921.     *******************************************************************
-
 0067FC                            59917    7923.     DUNALLO  PROC  @DUNALLO,DUNALLOC,SCOPE=LOCAL
 0067FC C4E4D5C1D3D3D640           59922             +
 006804 0010/0038                  59923             +
 006808 900F D004/18AF       00004 59925             +
 USING  DUNALLO,R10
 00680E 50D0 C000/18CD       00000 59940             +
 006814 9680 C000      00000       59942             +
 USING  @DUNALLO-72,R12
 AUSING (DUNALLOC,@DUNALLO+16)
 006818 41D0 C090            00090 59961             +
                                   59962    7924.     *
                                   59963    7925.     *  BUILD UN-ALLOCATION TEXT UNITS
                                   59964    7926.     *
 00681C D203 C078 A0A0 00020 068A8 59965    7927.              MVC   DUTXTU(4),=AL2(DUNUNALC,0)    UNALLOC TEXT UNIT
 006822 4110 C078            00020 59966    7928.              LA    RS,DUTXTU               TEXT UNIT START
 006826 5010 C070            00018 59967    7929.              ST    RS,DUTXPTL              SET UP TEXT UNIT LIST
 00682A D205 C07C A0A6 00024 068AE 59968    7930.              MVC   DUTXTUD(6),=AL2(DUNDDNAM,1,8)    DDNAME TEXT UNIT
 006830 D207 C082 C048 0002A 00000 59969    7931.              MVC   DUTXTPM(8),@DUNDDN      SET DDNAME
 006836 4110 C07C            00024 59970    7932.              LA    RS,DUTXTUD              TEXT UNIT END
 00683A 5010 C074            0001C 59971    7933.              ST    RS,DUTXPTL+4            SET UP TEXT UNIT LIST
 00683E 9680 C074      0001C       59972    7934.              SET   DUTXPTL+4.S99TUPLN       WITH TWO ENTRIES
 006842 4160 C05C            00004 59979    7935.              LA    RX,DUREQB               REQUEST BLOCK
 006846 5060 C058            00000 59980    7936.              ST    RX,DURBPTR              SET
 00684A 9680 C058      00000       59981    7937.              SET   DURBPTR.S99RBPND        SET END MARKER
                                   59988    7938.     *
                                   59989    7939.     *  INITIALIZE DYNAMIC ALLOCATION REQUEST BLOCK
                                   59990    7940.     *
 USING  S99RB,R6                   59991    7941.              WITH  (S99RB,RX),BEGIN
 00684E                            60005  1 7942.                CLEAR (S99RB,S99RBEND-S99RB)   CLEAR AREA
 00684E D713 6000 6000 00000 00000 60011  1          +
 006854 9214 6000      00000       60012  1 7943.                MVI   S99RBLN,S99RBEND-S99RB   SET LENGTH
 006858 9202 6001      00001       60013  1 7944.                MVI   S99VERB,S99VRBUN        UNALLOCATION
 00685C 9260 6002      00002       60014  1 7945.                MVI   S99FLG11,S99NOCNV+S99NOMNT  NO SPECIAL MOUNTS
 006860 4110 C070            00018 60015  1 7946.                LA    RS,DUTXPTL              POINTER TO TEXT UNIT POINTERS
 006864 5010 6008            00008 60016  1 7947.                ST    RS,S99TXTPP             SET
 DROP   S99RB,R6                   60017    7948.              END   ,
1IOSERV   (IOSE00) (09:40) (22MAR04) ORVYL'S MVS Data Set Subtask                                                           Page  345
0Current Usings:  (DUNALLO,R10) (@DUNALLO-72,R12)
0Loc    Object Code    Addr1 Addr2  Stmt Lv Lineno    Source Statement           (Hibal 5, Asmedit 3.3)  HLASM R4.0  2004/03/22 09.40
+___    ______ ____    _____ _____  ____ __ ______    ______ _________
0                                  60026    7950.     *
                                   60027    7951.     * DO DE-ALLOCATION
                                   60028    7952.     *
 006868 4110 C058            00000 60029    7953.              LA    R1,DURBPTR              SET POINTER
 00686C 0A63                       60030    7954.              DYNALLOC ,
                                   60033    7955.     *
                                   60034    7956.     *  SET RETURNS
                                   60035    7957.     *
 00686E 120F/4780 A088       06890 60036    7958.              IF    ('LTR  RVR,R15',NZ),BEGIN    COPY & CHECK RETURN CODE
 USING  S99RB,R6                   60049  1 7959.                WITH  (S99RB,RX)
 006874 D201 C050 6004 00008 00004 60062  1 7960.                MVC   @DUNERR,S99ERROR         ERROR CODE
 00687A D201 C052 6006 0000A 00006 60063  1 7961.                MVC   @DUNRSN,S99INFO           AND REASON CODE
 006880 4110 0001            00001 60064  1 7962.                KAPUT DUNALLO
 006884 4100 0080            00080 60072  1          +
 006888 8900 0018/1610       00018 60073  1          +
 00688E 0A0D                       60075  1          +
 DROP   S99RB,R6                   60076    7963.              END   ,
 006890 981F C008            00008 60085    7964.              PEND
 DROP   @DUNALLO-72,R12
 DROP   DUNALLO,R10
 006894 9680 C000/0B0E 00000       60100             +
1IOSERV   (IOSE00) (09:40) (22MAR04) ORVYL'S MVS Data Set Subtask                                                           Page  346
0Loc    Object Code    Addr1 Addr2  Stmt Lv Lineno    Source Statement           (Hibal 5, Asmedit 3.3)  HLASM R4.0  2004/03/22 09.40
+___    ______ ____    _____ _____  ____ __ ______    ______ _________
00068A0                            60107    7966.              LTORG
 0068A0 00000000                   60109                             =V(MEMGET)
 0068A4 00000000                   60110                             =V(MEMFREE)
 0068A8 00070000                   60111                             =AL2(DUNUNALC,0)
 0068AC 0001                       60112                             =AL2(1)
 0068AE 000100010008   068D4 06A98 60113                             =AL2(DUNDDNAM,1,8)
1IOSERV   (IOSE00) (09:40) (22MAR04) ORVYL'S MVS Data Set Subtask                                                           Page  347
0Loc    Object Code    Addr1 Addr2  Stmt Lv Lineno    Source Statement           (Hibal 5, Asmedit 3.3)  HLASM R4.0  2004/03/22 09.40
+___    ______ ____    _____ _____  ____ __ ______    ______ _________
0                                  60118    7968.     *******************************************************************
                                   60119    7969.     *                                                                 *
                                   60120    7970.     *   AM24CAP - Cap routine for MVS I/O services which must be      *
                                   60121    7971.     *             entered in AMODE 24.                                *
                                   60122    7972.     *                                                                 *
                                   60123    7973.     *                                                                 *
                                   60124    7974.     *     Input - @AM24 in R1                                         *
                                   60125    7975.     *                                                                 *
                                   60126    7976.     *    Output - As defined by MVS service                           *
                                   60127    7977.     *                                                                 *
                                   60128    7978.     *                                                                 *
                                   60129    7979.     *******************************************************************
-
 0068D4                            60131    7981.     AM24CAP  LABEL ,
 USING  @AM24,R1                   60133    7982.              USING @AM24,R1
 0068D4 900F 105C            0005C 60142    7983.              STM   R0,R15,@AM24CRS         Save caller's registers
 0068D8 18D1                       60143    7984.              LR    R13,R1                  Establish save area pointer
 0068DA 98F3 1048            00048 60144    7985.              LM    R15,R3,@AM24RGS         MVS service parms
 DROP   @AM24,R1                   60145    7986.              DROP  R1
 0068DE 1E3F                       60152    7987.              ALR   R3,R15                  Effective address
 0068E0 05E3                       60153    7988.              BALR  R14,R3                  Branch to MVS service
 USING  @AM24,R13                  60154    7989.              USING @AM24,R13
 0068E2 982E D064            00064 60163    7990.              LM    R2,R14,@AM24CRS+8       Restore caller's registers
 DROP   @AM24,R13                  60164    7991.              DROP  R13
 0068E6 0B0E                       60171    7992.              BSM   0,R14                   Return to caller
-0068E8                068E8 06A98 60173    7994.              LTORG
-                                  60179    7996.     AM24CLEN EQU   *-AM24CAP               Length of capping routine
1IOSERV   (IOSE00) (09:40) (22MAR04) ORVYL'S MVS Data Set Subtask                                                           Page  348
0Loc    Object Code    Addr1 Addr2  Stmt Lv Lineno    Source Statement           (Hibal 5, Asmedit 3.3)  HLASM R4.0  2004/03/22 09.40
+___    ______ ____    _____ _____  ____ __ ______    ______ _________
0                                  60181    7998.     *******************************************************************
                                   60182    7999.     *                                                                 *
                                   60183    8000.     *   IOSHTERM - Terminate hiperspaces                              *
                                   60184    8001.     *                                                                 *
                                   60185    8002.     *******************************************************************
 0068E8                            60186    8003.     IOSHTERM PROC  SCOPE=GLOBAL
 0068E8 C9D6E2C8E3C5D9D4           60192             +
 0068F0 0000/0000                  60193             +
 0068F4 900F D004/18AF       00004 60195             +
 USING  IOSHTERM,R10
 0068FA 50D0 C000/18CD       00000 60210             +
 006900 9680 C000      00000       60212             +
 006904 41D0 C048            00048 60213             +
 006908 5820 9004            00004 60214    8004.              WITH  (RTCB,RTCBR),'L  RA,RTCBCBAT'  CBAT pointer
 USING  RTCB,R9
 DROP   RTCB,R9
 00690C 5820 2054            00054 60238    8005.              WITH  (CBAT,RA),'L  RA,CBATIOCT'     IOCT pointer
 USING  CBAT,R2
 DROP   CBAT,R2
 USING  IOCT,R2                    60262    8006.              WITH  (IOCT,RA),BEGIN                IOCT addressabitity
 006910 9300 207F      0007F       60276  1 8007.                TS    IOCTTS                         One time only
 006914 4770 A148            06A3C 60277  1 8008.                BNZ   IOSHTERX                       Exit
 006918 0ADE/0114                  60278  1 8009.                QSNAP '***** IOSHTERM *****'
 00691C 4100 A154            06A48 60282  1          +
 006920 58E0 A168            06A5C 60283  1 8010.                L     RAR,=A(IOSHTERX+X'80000000')   Point to PR return
 006924 B240 00E0                  60284  1 8011.                BAKR  RAR,0                          Use hardware stack
 006928 5830 2038            00038 60285  1 8012.                L     RB,IOCTHDBS                    First HDB pointer
 USING  HDB,R3                     60286  1 8013.                WITH  (HDB,RB),BEGIN                 HDB addressabitity
 00692C 47F0 A044            06938 60300  2 8014.                  STORAGE OBTAIN,LENGTH=L'HSOPCL       Get workarea
 006930 00000048/00/00             60304  2          +
 006936 00/02                      60307  2          +
 006938 5800 A03C            06930 60310  2          +
 00693C 58F0 A040            06934 60311  2          +
 006940 58E0 0010            00010 60312  2          +
 006944 58EE 0304            00304 60313  2          +
 006948 58EE 00A0            000A0 60314  2          +
 00694C B218 E000      00000       60315  2          +
 006950 1841                       60316  2 8015.                  LR    RJ,RS
 USING  HSOPCL,R4                  60317  2 8016.                  WITH  (HSOPCL,RJ),BEGIN              Workspace addressability
 006952 1233/4780 A11E       06A12 60331  3 8017.                    WHILE (RB,NZ),BEGIN                  Release all hiperspaces
 006958 0ADE                       60347  4 8018.                      QSNAP HDB,L'HDB-1
 00695A 086300003000               60350  4          +
 006960                            60351  4 8019.                      IF    (HDBALET,NZ),BEGIN             ALET exists
 006960 D603 3018 3018 00018 00018 60361  4          +
 006966 4780 A116            06A0A 60362  4          +
 00696A 5110 4038            00038 60367  5 8020.                        ALESERV DELETE,ALET=HDBALET,MF=(E,ALELIST)
 00696E 9203 1000      00000       60371  5          +
 006972 9200 1001      00001       60372  5          +
 006976 51E0 3018            00018 60373  5          +
 00697A D203 1004 E000 00004 00000 60374  5          +
 006980 58E0 0010            00010 60375  5          +
 006984 58EE 0304            00304 60376  5          +
 006988 58EE 00C0            000C0 60377  5          +
 00698C B218 E000      00000       60378  5          +
 006990 12FF/4780 A0BE       069B2 60379  5 8021.                        IF    (EPAR,NZ),BEGIN                ALESERV ERROR
 006996 0700/0ADE/0119             60393  6 8022.                          QSNAP '***** ALESERV ERROR *****'
1IOSERV   (IOSE00) (09:40) (22MAR04) ORVYL'S MVS Data Set Subtask                                                           Page  349
0Current Usings:  (IOCT,R2) (HDB,R3) (HSOPCL,R4) (IOSHTERM,R10)
0Loc    Object Code    Addr1 Addr2  Stmt Lv Lineno    Source Statement           (Hibal 5, Asmedit 3.3)  HLASM R4.0  2004/03/22 09.40
+___    ______ ____    _____ _____  ____ __ ______    ______ _________
000699C 4100 A16C            06A60 60397  6          +
 0069A0 0ADE/020100                60398  6 8023.                          QSNAP (R15)
 0069A5 F00000                     60402  6          +
 0069A8 0ADE                       60403  6 8024.                          QSNAP HSOPCL,L'HSOPCL
 0069AA 084800004000               60406  6          +
 0069B0 0101                       60407  6 8025.                          PR    ,                              Return to caller
 0069B2                            60408  5 8026.                        END   ,                              ALESERV ERROR
 0069B2                            60412  5 8027.                        IF    (HDBTOKEN,NZ),BEGIN            TOKEN exists
 0069B2 D607 301C 301C 0001C 0001C 60422  5          +
 0069B8 4780 A116            06A0A 60423  5          +
                                   60428  6 8028.   C                      DSPSERV DELETE,STOKEN=HDBTOKEN,TTOKEN=IOCTTTOK,
 0069BC 4110 4000            00000        6 8029.                                MF=(E,DSPLIST,COMPLETE)
 0069C0 D737 1000 1000 00000 00000 60436  6          +
 0069C6 9202 1001      00001       60437  6          +
 0069CA 9608 1004      00004       60438  6          +
 0069CE D207 1010 301C 00010 0001C 60439  6          +
 0069D4 D20F 1020 20A0 00020 000A0 60440  6          +
 0069DA 58E0 0010            00010 60441  6          +
 0069DE 58EE 0304            00304 60442  6          +
 0069E2 58EE 00D0            000D0 60443  6          +
 0069E6 B218 E000      00000       60444  6          +
00069EA 12FF/4780 A116       06A0A 60449  6 8030.                          IF    (EPAR,NZ),BEGIN                DSPSERV ERROR
 0069F0 0ADE/0119                  60463  7 8031.                            QSNAP '***** DSPSERV ERROR *****'
 0069F4 4100 A185            06A79 60467  7          +
 0069F8 0ADE/020100                60468  7 8032.                            QSNAP (R15)
 0069FD F00000                     60472  7          +
 006A00 0ADE                       60473  7 8033.                            QSNAP HSOPCL,L'HSOPCL
 006A02 084800004000               60476  7          +
 006A08 0101                       60477  7 8034.                            PR    ,                              Return to caller
 006A0A                            60478  6 8035.                          END   ,                              DSPSERV ERROR
 006A0A                            60482  5 8036.                        END   ,                              TOKEN exists
 006A0A                            60486  4 8037.                      END   ,                              ALET exists
 006A0A 5830 3008            00008 60490  4 8038.                      L     RB,HDBCHAIN                    Next in line
 006A0E 47F0 A05E            06952 60491  3 8039.                    END   ,                              Release all hiperspaces
 006A12 0700/47F0 A12C       06A20 60496  3 8040.                    STORAGE RELEASE,ADDR=(RJ),LENGTH=L'HSOPCL
 006A18 00000048/00/00             60500  3          +
 006A1E 00/03                      60503  3          +
 006A20 5800 A124/1814       06A18 60506  3          +
 006A26 58F0 A128            06A1C 60508  3          +
 006A2A 58E0 0010            00010 60509  3          +
 006A2E 58EE 0304            00304 60510  3          +
 006A32 58EE 00CC            000CC 60511  3          +
 006A36 B218 E000      00000       60512  3          +
 DROP   HSOPCL,R4                  60513  2 8041.                  END   ,                              Workspace addressability
 DROP   HDB,R3                     60521  1 8042.                END   ,                              HDB addressabitity
 DROP   IOCT,R2                    60529    8043.              END   ,                              IOCT addressabitity
 006A3A 0101                       60537    8044.              PR    ,                              Return to caller
 006A3C                            60538    8045.     IOSHTERX LABEL ,
 006A3C 981F C008            00008 60540    8046.              PEND  ,
 DROP   IOSHTERM,R10
 006A40 9680 C000/0B0E 00000       60550             +
 006A48                            60556    8047.              LTORG
 006A48 5C5C5C5C5C40C9D6           60558                             =C'***** IOSHTERM *****'
1IOSERV   (IOSE00) (09:40) (22MAR04) ORVYL'S MVS Data Set Subtask                                                           Page  350
0Loc    Object Code    Addr1 Addr2  Stmt Lv Lineno    Source Statement           (Hibal 5, Asmedit 3.3)  HLASM R4.0  2004/03/22 09.40
+___    ______ ____    _____ _____  ____ __ ______    ______ _________
0006A5C 80006A3C                   60559                             =A(IOSHTERX+X'80000000')
 006A60 5C5C5C5C5C40C1D3           60560                             =C'***** ALESERV ERROR *****'
 006A79 5C5C5C5C5C40C4E2           60561                             =C'***** DSPSERV ERROR *****'
 006A98                06A98 06A98 60565    8048.              END   .

1IOSERV   (IOSE00) (09:40) (22MAR04) Ordinary Symbol and Literal Cross Reference                                            Page  351
-Symbol   Length   Value     Id    R Type   Defn References                                  HLASM R4.0  2004/03/22 09.40
0$$$@R0        1 00000000 FFFFFFFE     J     714  1010
 $$$@R1        1 00000000 FFFFFFFD     J     727  1022
 $$$@R10       1 00000000 FFFFFFF4     J     844  1142
 $$$@R11       1 00000000 FFFFFFF3     J     857  1154
 $$$@R12       1 00000000 FFFFFFF2     J     870  1166
 $$$@R13       1 00000000 FFFFFFF1     J     883  1178
 $$$@R14       1 00000000 FFFFFFF0     J     896  1190
 $$$@R15       1 00000000 FFFFFFEF     J     909  1202
 $$$@R2        1 00000000 FFFFFFFC     J     740  1034
 $$$@R3        1 00000000 FFFFFFFB     J     753  1046
 $$$@R4        1 00000000 FFFFFFFA     J     766  1058
 $$$@R5        1 00000000 FFFFFFF9     J     779  1070
 $$$@R6        1 00000000 FFFFFFF8     J     792  1082
 $$$@R7        1 00000000 FFFFFFF7     J     805  1094
 $$$@R8        1 00000000 FFFFFFF6     J     818  1106
 $$$@R9        1 00000000 FFFFFFF5     J     831  1118   1130
 $$$C1IOSERV
               1 0000013C 00000001     J   17860 17862  19220
 $$$C10IOSERV
               1 00002C3C 00000001     J   35685 35687  35724  35748  35770  35799  35844  35874  35915  35943  35967
                                                 35991  37240
 $$$C11IOSERV
               1 000031F8 00000001     J   37937 37939
 $$$C12IOSERV
               1 000033A9 00000001     J   38646 38648  39123  39156
 $$$C13IOSERV
               1 000038B6 00000001     J   40618 40620  40655  40678  40700  40725  40748
 $$$C14IOSERV
               1 00003A70 00000001     J   41656 41658  41762  41788  41822  42212
 $$$C15IOSERV
               1 00003E8E 00000001     J   43185 43187  43219  43249  43275  43304  43331
 $$$C16IOSERV
               1 000043C3 00000001     J   44928 44930  45054
 $$$C17IOSERV
               1 00004584 00000001     J   45748 45750  45770  46187
 $$$C18IOSERV
               1 0000471C 00000001     J   46468 46470  46498  46536  46562  46587  46611  49651  49705  49761
 $$$C19IOSERV
               1 0000514C 00000001     J   50583 50585  50608
 $$$C2IOSERV
               1 00000C16 00000001     J   21773 21775  21804  21829  21857  24019  24057  24527  24550  24571  24605
                                                 24629  24663
 $$$C20IOSERV
               1 00005441 00000001     J   51633 51635  53001  53037  53060  53085  53112  53650  55525  55551  55645
                                                 55715  56162
 $$$C21IOSERV
               1 00006398 00000001     J   57648 57650  57699  57725  58126  58376  58406  58442  58694  58724  58757
                                                 59019  59061  59327  59356  59645  59671  59872  59902
 $$$C22IOSERV
               1 000068D4 00000001     J   60114 60116
 $$$C23IOSERV
               1 000068E8 00000001     J   60175 60177
 $$$C24IOSERV
               1 00006A92 00000001     J   60562 60564
 $$$C25IOSERV
1IOSERV   (IOSE00) (09:40) (22MAR04) Ordinary Symbol and Literal Cross Reference                                            Page  352
               1 00006A98 00000001     J   60568 60570
 $$$C3IOSERV
               1 000015D0 00000001     J   25933 25935  25972  25996  26018  26042  26064  26088  26122
 $$$C4IOSERV
               1 000019B0 00000001     J   27545 27547  27584  27608  27630  27655  27677  27716  27758
 $$$C5IOSERV
               1 00001F98 00000001     J   29790 29792  29816  29837  30589  30608
 $$$C6IOSERV
               1 00002196 00000001     J   30679 30681
 $$$C7IOSERV
               1 000023D2 00000001     J   31610 31612
 $$$C8IOSERV
               1 00002528 00000001     J   32137 32139
 $$$C9IOSERV
               1 000025B8 00000001     J   32322 32324  32374  32402  32425  32448  32489  32514  32537  32575  32600
                                                 32628  32658  33122  34201  34220
 $$$D10IOSERV
               1 000031E4 00000001     J   35686 35977
 $$$D14IOSERV
               1 00003E16 00000001     J   41657 41667  42201
 $$$D17IOSERV
               1 0000470D 00000001     J   45749 45759  46176
 $$$D18IOSERV
               1 00005090 00000001     J   46469 46597  49715
 $$$D2IOSERV
               1 00001556 00000001     J   21774 21784  24638
 $$$D20IOSERV
               1 00006238 00000001     J   51634 53095  53625  55655  56151
 $$$D21IOSERV
               1 000068B4 00000001     J   57649 58386  58704
 $$$D3IOSERV
               1 0000195C 00000001     J   25934 26097
 $$$D4IOSERV
               1 00001F2C 00000001     J   27546 27725
 $$$D5IOSERV
               1 00002176 00000001     J   29791 29825  30579  30597
 $$$D9IOSERV
               1 00002C02 00000001     J   32323 32638  33111  34191  34209
 $$$R$HSRDWKA
               1 00000000 FFFFFF52     J   43315 43330  43330
 $$$R$JESMSG
               1 00000000 FFFFFF4F     J   46509 46535  46535
 $$$R$MVIOCOM
               1 00000000 FFFFFF48     J   53012 53036  53036
 $$$R$MVIPSFO
               1 00000000 FFFFFF47     J   53044 53059  53059
 $$$R$SCMIMSG
               1 00000000 FFFFFF55     J   43230 43248  43248
 $$$R#FICLOSE
               1 00000000 FFFFFF83     J   24557 24570  24570
 $$$R#FIOCOM
               1 00000000 FFFFFF85     J   24506 24526  24526
 $$$R#FIODO
               1 00000000 FFFFFF82     J   24578 24604  24604
 $$$R#FIOOPEN
               1 00000000 FFFFFF84     J   24534 24549  24549
 $$$R#HSPCCMD
               1 00000000 FFFFFF69     J   35701 35723  35723
 $$$R#HSPCLOS
1IOSERV   (IOSE00) (09:40) (22MAR04) Ordinary Symbol and Literal Cross Reference                                            Page  353
               1 00000000 FFFFFF67     J   35756 35769  35769
 $$$R#HSPDO
               1 00000000 FFFFFF66     J   35778 35798  35798
 $$$R#HSPL
               1 00000000 FFFFFF65     J   35817 35843  35843
 $$$R#HSPOPEN
               1 00000000 FFFFFF68     J   35732 35747  35747
 $$$R#IOCOM
               1 00000000 FFFFFF86     J   24035 24056  24056
 $$$R#JESCLOS
               1 00000000 FFFFFF5B     J   40686 40699  40699
 $$$R#JESCOM
               1 00000000 FFFFFF5D     J   40634 40654  40654
 $$$R#JESJBND
               1 00000000 FFFFFF59     J   40733 40747  40747
 $$$R#JESOPEN
               1 00000000 FFFFFF5C     J   40663 40677  40677
 $$$R#JESWRIT
               1 00000000 FFFFFF5A     J   40708 40724  40724
 $$$R#PFINFO
               1 00000000 FFFFFF51     J   44941 45053  45053
 $$$R#PICLOSE
               1 00000000 FFFFFF7E     J   26004 26017  26017
 $$$R#PIOCOM
               1 00000000 FFFFFF80     J   25950 25971  25971
 $$$R#PIODO
               1 00000000 FFFFFF7D     J   26026 26041  26041
 $$$R#PIOOPEN
               1 00000000 FFFFFF7F     J   25980 25995  25995
 $$$R#PIRESET
               1 00000000 FFFFFF7C     J   26050 26063  26063
 $$$R#SCCLOSE
               1 00000000 FFFFFF71     J   32411 32424  32424
 $$$R#SCINFO
               1 00000000 FFFFFF6E     J   32498 32513  32513
 $$$R#SCNOTE
               1 00000000 FFFFFF6D     J   32523 32536  32536
 $$$R#SCOMCMD
               1 00000000 FFFFFF73     J   32340 32373  32373
 $$$R#SCOPEN
               1 00000000 FFFFFF72     J   32383 32401  32401
 $$$R#SCPOST
               1 00000000 FFFFFF70     J   32434 32447  32447
 $$$R#SCSR
               1 00000000 FFFFFF6F     J   32457 32488  32488
 $$$R#SWAPCOM
               1 00000000 FFFFFF7A     J   27562 27583  27583
 $$$R#SWPCLOS
               1 00000000 FFFFFF78     J   27616 27629  27629
 $$$R#SWPDO
               1 00000000 FFFFFF77     J   27638 27654  27654
 $$$R#SWPOPEN
               1 00000000 FFFFFF79     J   27592 27607  27607
 $$$R#SWPRSET
               1 00000000 FFFFFF76     J   27663 27676  27676
 $$$R@AM24
               1 00000000 FFFFFF39     J   59311 59326  59326
 $$$R@AM24RTN
               1 00000000 FFFFFF38     J   59338 59355  59355
1IOSERV   (IOSE00) (09:40) (22MAR04) Ordinary Symbol and Literal Cross Reference                                            Page  354
 $$$R@BCH      1 00000000 FFFFFF98     J   16747 16769  16769
 $$$R@CANTASK
               1 00000000 FFFFFFB1     J   15963 15976  15976
 $$$R@CATSRCH
               1 00000000 FFFFFF3F     J   58361 58375  58375
 $$$R@CRDDB
               1 00000000 FFFFFF89     J   21815 21828  21828
 $$$R@CRHDB
               1 00000000 FFFFFF88     J   21842 21856  21856
 $$$R@CRPS
               1 00000000 FFFFFF95     J   16833 16849  16849
 $$$R@CTRACK
               1 00000000 FFFFFF96     J   16806 16821  16821
 $$$R@CTRWORK
               1 00000000 FFFFFF41     J   57710 57724  57724
 $$$R@DOHSPC
               1 00000000 FFFFFF62     J   35926 35942  35942
 $$$R@DOIO
               1 00000000 FFFFFF87     J   24002 24018  24018
 $$$R@DOSCOM
               1 00000000 FFFFFF6A     J   32611 32627  32627
 $$$R@DSALLO
               1 00000000 FFFFFF43     J   55562 55644  55644
 $$$R@DSCLOSE
               1 00000000 FFFFFF45     J   55511 55524  55524
 $$$R@DSDALLO
               1 00000000 FFFFFF44     J   55537 55550  55550
 $$$R@DUMPPRM
               1 00000000 FFFFFFAA     J   16186 16200  16200
 $$$R@DUNALLO
               1 00000000 FFFFFF35     J   59855 59871  59871
 $$$R@DYNALLO
               1 00000000 FFFFFF37     J   59628 59644  59644
 $$$R@ESTAE
               1 00000000 FFFFFFB5     J   15847 15861  15861
 $$$R@FIXPARM
               1 00000000 FFFFFFB9     J   15581 15605  15605
 $$$R@FPOST
               1 00000000 FFFFFFA0     J   16426 16439  16439
 $$$R@FWAIT
               1 00000000 FFFFFFA1     J   16400 16413  16413
 $$$R@GSTIIOT
               1 00000000 FFFFFF9B     J   16624 16638  16638
 $$$R@HSRDWRT
               1 00000000 FFFFFF61     J   35951 35966  35966
 $$$R@IORB
               1 00000000 FFFFFF9F     J   16452 16471  16471
 $$$R@IOUPARM
               1 00000000 FFFFFF9E     J   16483 16506  16506
 $$$R@JESCLS
               1 00000000 FFFFFF4D     J   46573 46586  46586
 $$$R@JESDO
               1 00000000 FFFFFF4E     J   46547 46561  46561
 $$$R@JSALLO
               1 00000000 FFFFFF4B     J   49662 49704  49704
 $$$R@JSDALLO
               1 00000000 FFFFFF4C     J   49637 49650  49650
 $$$R@LOCKCRE
               1 00000000 FFFFFFA3     J   16346 16368  16368
1IOSERV   (IOSE00) (09:40) (22MAR04) Ordinary Symbol and Literal Cross Reference                                            Page  355
 $$$R@LOCKS
               1 00000000 FFFFFFA2     J   16374 16387  16387
 $$$R@MEMFREE
               1 00000000 FFFFFFB6     J   15771 15834  15834
 $$$R@MEMGET
               1 00000000 FFFFFFB7     J   15687 15759  15759
 $$$R@MEMINIT
               1 00000000 FFFFFFB8     J   15618 15675  15675
 $$$R@MEMORY
               1 00000000 FFFFFFBA     J   15414 15568  15568
 $$$R@MSGATT
               1 00000000 FFFFFFA9     J   16213 16227  16227
 $$$R@MSGCAN
               1 00000000 FFFFFFA4     J   16319 16333  16333
 $$$R@MSGFREE
               1 00000000 FFFFFFA5     J   16299 16313  16313
 $$$R@MSGGBUF
               1 00000000 FFFFFFA8     J   16233 16247  16247
 $$$R@MSGRECV
               1 00000000 FFFFFFA6     J   16276 16293  16293
 $$$R@MSGSEND
               1 00000000 FFFFFFA7     J   16253 16270  16270
 $$$R@MVIO
               1 00000000 FFFFFF46     J   53071 53084  53084
 $$$R@MVSENQ
               1 00000000 FFFFFF3A     J   59031 59060  59060
 $$$R@PARMDO
               1 00000000 FFFFFF8D     J   17269 17285  17285
 $$$R@PRMIOPN
               1 00000000 FFFFFF58     J   41774 41787  41787
 $$$R@PSRESET
               1 00000000 FFFFFF74     J   29802 29815  29815
 $$$R@RDDSCB
               1 00000000 FFFFFF3D     J   58678 58693  58693
 $$$R@SCOMDB
               1 00000000 FFFFFF6B     J   32586 32599  32599
 $$$R@SCOMDO
               1 00000000 FFFFFF54     J   43260 43274  43274
 $$$R@SEG      1 00000000 FFFFFFB0     J   15983 16038  16038
 $$$R@SEGCOL
               1 00000000 FFFFFFAE     J   16066 16080  16080
 $$$R@SEGCORE
               1 00000000 FFFFFFAD     J   16086 16133  16133
 $$$R@SEGINIT
               1 00000000 FFFFFFAF     J   16044 16060  16060
 $$$R@SEGRTN
               1 00000000 FFFFFFAC     J   16139 16152  16152
 $$$R@SEGSTK
               1 00000000 FFFFFFAB     J   16158 16172  16172
 $$$R@SIO      1 00000000 FFFFFF97     J   16781 16794  16794
 $$$R@SNDPPRM
               1 00000000 FFFFFF4A     J   50592 50607  50607
 $$$R@SPAWN
               1 00000000 FFFFFFB3     J   15906 15924  15924
 $$$R@TSPARM
               1 00000000 FFFFFF40     J   58112 58125  58125
 $$$RCBAT      1 00000000 FFFFFFBC     J   15275 15323  15323
 $$$RCCW       1 00000000 FFFFFF8E     J   17206 17256  17256
 $$$RCOMDB
1IOSERV   (IOSE00) (09:40) (22MAR04) Ordinary Symbol and Literal Cross Reference                                            Page  356
               1 00000000 FFFFFF94     J   16861 16875  16875
 $$$RCTLPARM
               1 00000000 FFFFFF3E     J   58417 58441  58441
 $$$RCTRKPARM
               1 00000000 FFFFFF42     J   57660 57698  57698
 $$$RDDB       1 00000000 FFFFFF91     J   16946 17005  17005
 $$$RDUMPWORK
               1 00000000 FFFFFF8A     J   19206 19219  19219
 $$$RDUNALLOC
               1 00000000 FFFFFF34     J   59883 59901  59901
 $$$RDYNALLOC
               1 00000000 FFFFFF36     J   59656 59670  59670
 $$$RENQWORK
               1 00000000 FFFFFF3B     J   58994 59018  59018
 $$$RESTAINFO
               1 00000000 FFFFFFB4     J   15873 15893  15893
 $$$RFILEWORK
               1 00000000 FFFFFF81     J   24615 24628  24628
 $$$RHDB       1 00000000 FFFFFF90     J   17019 17088  17088
 $$$RHPRMWORK
               1 00000000 FFFFFF8B     J   17360 17378  17378
 $$$RHSOPCL
               1 00000000 FFFFFF60     J   37151 37239  37239
 $$$RHSPCWORK
               1 00000000 FFFFFF63     J   35883 35914  35914
 $$$RHSPDO
               1 00000000 FFFFFF64     J   35855 35873  35873
 $$$RHSPWORK
               1 00000000 FFFFFF53     J   43287 43303  43303
 $$$RHSRWPLST
               1 00000000 FFFFFF5E     J   39130 39155  39155
 $$$RHSRWWORK
               1 00000000 FFFFFF5F     J   39052 39122  39122
 $$$RIOCB      1 00000000 FFFFFF9A     J   16650 16694  16694
 $$$RIOCT      1 00000000 FFFFFF9D     J   16520 16579  16579
 $$$RIOT       1 00000000 FFFFFF9C     J   16591 16611  16611
 $$$RIRCB      1 00000000 FFFFFF99     J   16707 16735  16735
 $$$RJDB       1 00000000 FFFFFF93     J   16887 16903  16903
 $$$RJESWORK
               1 00000000 FFFFFF50     J   46480 46497  46497
 $$$RMVIWORK
               1 00000000 FFFFFF49     J   52985 53000  53000
 $$$ROBTPARM
               1 00000000 FFFFFF3C     J   58735 58756  58756
 $$$RPAGEWORK
               1 00000000 FFFFFF7B     J   26074 26087  26087
 $$$RPARMIN
               1 00000000 FFFFFF8C     J   17291 17349  17349
 $$$RPARMWORK
               1 00000000 FFFFFF57     J   41799 41821  41821
 $$$RRTCB      1 00000000 FFFFFFBB     J   15336 15401  15401
 $$$RSBTPARM
               1 00000000 FFFFFFB2     J   15937 15950  15950
 $$$RSCIOWORK
               1 00000000 FFFFFF6C     J   32548 32574  32574
 $$$RSCSTWORK
               1 00000000 FFFFFF56     J   43198 43218  43218
 $$$RSDB       1 00000000 FFFFFF8F     J   17100 17194  17194
 $$$RSNDB      1 00000000 FFFFFF92     J   16917 16934  16934
1IOSERV   (IOSE00) (09:40) (22MAR04) Ordinary Symbol and Literal Cross Reference                                            Page  357
 $$$RSWAPWORK
               1 00000000 FFFFFF75     J   27687 27715  27715
 $$$100F       2 000014B8 00000001     H   25883 25103B
 $$$101F       2 000011C2 00000001     H   24807 24786B
 $$$102F       2 00001264 00000001     H   25117 24825B
 $$$103B       4 000011FE 00000001     I   24929 25007
 $$$103F       2 0000121E 00000001     H   25000 24929B 25006
 $$$104E       2 00001222 00000001     H   25014 25008
 $$$104F       2 00001240 00000001     H   25055 25010B
 $$$105F       2 0000123C 00000001     H   25050 25029B
 $$$106B       4 0000127C 00000001     I   25161 25213
 $$$106F       2 000012AC 00000001     H   25210 25161B 25212
 $$$107F       2 00001298 00000001     H   25198 25177B
 $$$108E       2 000012B0 00000001     H   25220 25214
 $$$108F       2 000012E2 00000001     H   25275 25216B
 $$$109F       2 000012CA 00000001     H   25256 25235B
 $$$110B       4 00001322 00000001     I   25363 25498
 $$$110F       2 00001388 00000001     H   25491 25363B 25497
 $$$112F       2 00001388 00000001     H   25480 25471B
 $$$113E       2 0000138C 00000001     H   25505 25499
 $$$113F       2 000013E2 00000001     H   25581 25501B
 $$$114F       2 000013C4 00000001     H   25556 25544B
 $$$115F       2 00001408 00000001     H   25630 25609B
 $$$116F       2 000014AE 00000001     H   25802 25647B
 $$$118F       2 00001498 00000001     H   25767 25755B
 $$$118S       2 0000143C 00000001     H   25676 25766B
 $$$119F       2 00001460 00000001     H   25709 25688B
 $$$120F       2 00001484 00000001     H   25741 25728B
 $$$123F       2 000014AE 00000001     H   25798 25777B
 $$$124F       2 0000191A 00000001     H   27519 26354B 26759B
 $$$125F       2 00001616 00000001     H   26266 26245B
 $$$126F       2 0000171E 00000001     H   26773 26286B 26301B
 $$$128F       2 00001648 00000001     H   26358 26319B
 $$$129B       4 0000167A 00000001     I   26465 26542
 $$$129F       2 0000169A 00000001     H   26536 26465B 26541
 $$$130E       2 0000169E 00000001     H   26549 26543
 $$$130F       2 000016BC 00000001     H   26590 26545B
 $$$131F       2 000016B8 00000001     H   26585 26564B
 $$$132F       2 00001718 00000001     H   26752 26647B 26660B
 $$$134F       2 00001718 00000001     H   26736 26691B
 $$$135B       4 00001736 00000001     I   26817 26869
 $$$135F       2 00001766 00000001     H   26866 26817B 26868
 $$$136F       2 00001752 00000001     H   26854 26833B
 $$$137E       2 0000176A 00000001     H   26876 26870
 $$$137F       2 0000179C 00000001     H   26931 26872B
 $$$138F       2 00001784 00000001     H   26912 26891B
 $$$139B       4 000017D6 00000001     I   27018 27145
 $$$139F       2 00001834 00000001     H   27139 27018B 27144
 $$$141F       2 00001834 00000001     H   27128 27119B
 $$$142E       2 00001838 00000001     H   27152 27146
 $$$142F       2 000018E6 00000001     H   27384 27148B
 $$$143B       4 0000183C 00000001     I   27165 27278
 $$$143F       2 00001886 00000001     H   27271 27165B 27277
 $$$146S       2 00001864 00000001     H   27205 27248B
 $$$147F       2 00001872 00000001     H   27233 27220B
 $$$151E       2 0000188A 00000001     H   27285 27279
 $$$151F       2 000018C8 00000001     H   27346 27281B
 $$$152F       2 000018C2 00000001     H   27336 27324B
 $$$153F       2 0000190C 00000001     H   27434 27413B
1IOSERV   (IOSE00) (09:40) (22MAR04) Ordinary Symbol and Literal Cross Reference                                            Page  358
 $$$154F       2 00001EE0 00000001     H   29760 27997B 28402B
 $$$155F       2 000019F6 00000001     H   27902 27881B
 $$$156F       2 00001B02 00000001     H   28416 27929B 27944B
 $$$158F       2 00001A2C 00000001     H   28001 27962B
 $$$159B       4 00001A5E 00000001     I   28108 28185
 $$$159F       2 00001A7E 00000001     H   28179 28108B 28184
 $$$160E       2 00001A82 00000001     H   28192 28186
 $$$160F       2 00001AA0 00000001     H   28233 28188B
 $$$161F       2 00001A9C 00000001     H   28228 28207B
 $$$162F       2 00001AFC 00000001     H   28395 28290B 28303B
 $$$164F       2 00001AFC 00000001     H   28379 28334B
 $$$165F       2 00001B1A 00000001     H   28455 28434B
 $$$166F       2 00001B34 00000001     H   28506 28485B
 $$$167B       4 00001B4C 00000001     I   28565 28663
 $$$167F       2 00001B94 00000001     H   28660 28565B 28662
 $$$168F       2 00001B68 00000001     H   28602 28581B
 $$$169B       4 00001B78 00000001     I   28620 28633
 $$$169F       2 00001B82 00000001     H   28630 28620B 28632
 $$$171E       2 00001B86 00000001     H   28640 28634
 $$$171F       2 00001B8C 00000001     H   28647 28636B
 $$$173E       2 00001B98 00000001     H   28670 28664
 $$$173F       2 00001BE2 00000001     H   28771 28666B
 $$$174F       2 00001BB2 00000001     H   28706 28685B
 $$$175B       4 00001BC6 00000001     I   28731 28744
 $$$175F       2 00001BD0 00000001     H   28741 28731B 28743
 $$$177E       2 00001BD4 00000001     H   28751 28745
 $$$177F       2 00001BDA 00000001     H   28758 28747B
 $$$179B       4 00001C30 00000001     I   28874 29010
 $$$179F       2 00001C94 00000001     H   29004 28874B 29009
 $$$181F       2 00001C5C 00000001     H   28936 28913B 28927B
 $$$184E       2 00001C98 00000001     H   29017 29011
 $$$184F       2 00001D26 00000001     H   29206 29013B
 $$$185B       4 00001C9C 00000001     I   29030 29134
 $$$185F       2 00001CE4 00000001     H   29128 29030B 29133
 $$$187S       2 00001CC2 00000001     H   29062 29105B
 $$$188F       2 00001CD0 00000001     H   29090 29077B
 $$$192E       2 00001CE8 00000001     H   29141 29135
 $$$192F       2 00001D26 00000001     H   29202 29137B
 $$$193F       2 00001D20 00000001     H   29192 29180B
 $$$194F       2 00001EAE 00000001     H   29626 29244B
 $$$194S       2 00001D46 00000001     H   29236 29625B
 $$$196S       2 00001D5A 00000001     H   29255 29611B
 $$$197F       2 00001DBA 00000001     H   29365 29271B
 $$$198B       4 00001D9C 00000001     I   29327 29343
 $$$198F       2 00001DB2 00000001     H   29340 29327B 29342
 $$$200E       2 00001DB6 00000001     H   29350 29344
 $$$200F       2 00001DBA 00000001     H   29356 29346B
 $$$201F       2 00001DDE 00000001     H   29418 29397B
 $$$202F       2 00001E04 00000001     H   29454 29433B
 $$$203F       2 00001E24 00000001     H   29485 29464B
 $$$204F       2 00001E9A 00000001     H   29590 29501B
 $$$206F       2 00001E86 00000001     H   29575 29553B
 $$$211F       2 00001EC8 00000001     H   29661 29640B
 $$$213F       2 00002156 00000001     H   30660 29928B 30096B
 $$$214F       2 00001FCC 00000001     H   29932 29920B
 $$$216F       2 00002018 00000001     H   30110 30041B
 $$$216S       2 00001FE4 00000001     H   30033 30109B
 $$$218F       2 00002014 00000001     H   30105 30067B
 $$$218S       2 00001FF6 00000001     H   30052 30104B
1IOSERV   (IOSE00) (09:40) (22MAR04) Ordinary Symbol and Literal Cross Reference                                            Page  359
 $$$220F       2 00002010 00000001     H   30100 30088B
 $$$221F       2 0000206E 00000001     H   30254 30240B
 $$$221S       2 0000201C 00000001     H   30120 30253B
 $$$222F       2 00002044 00000001     H   30192 30136B
 $$$223F       2 0000206A 00000001     H   30249 30218B
 $$$223S       2 0000204A 00000001     H   30203 30248B
 $$$225F       2 00002066 00000001     H   30244 30232B
 $$$229F       2 00002120 00000001     H   30527 30506B
 $$$231        4 00002192 00000001     I   30603 30595X
 $$$232        4 00002192 00000001     I   30602 30603  30603
 $$$234F       2 000021E0 00000001     H   30853 30827B
 $$$234S       2 000021C8 00000001     H   30814 30850B
 $$$238F       2 000022F6 00000001     H   31205 30869B
 $$$239F       2 000022F6 00000001     H   31201 30918B
 $$$239S       2 00002206 00000001     H   30912 31200B
 $$$246S       2 000022BE 00000001     H   31112 31131B
 $$$249F       2 000022EC 00000001     H   31188 31150B
 $$$250S       2 000022DA 00000001     H   31160 31179B
 $$$256F       2 000023AE 00000001     H   31579 31415B 31451B
 $$$256S       2 00002346 00000001     H   31407 31578B
 $$$258S       2 00002354 00000001     H   31438 31474B
 $$$262F       2 00002394 00000001     H   31536 31497B
 $$$262S       2 0000236C 00000001     H   31489 31535B
 $$$264S       2 00002380 00000001     H   31508 31526B
 $$$267S       2 00002398 00000001     H   31545 31564B
 $$$271F       2 00002416 00000001     H   31761 31735B
 $$$271S       2 000023FE 00000001     H   31722 31758B
 $$$275F       2 0000243C 00000001     H   31817 31776B
 $$$277F       2 00002488 00000001     H   31947 31926B
 $$$278F       2 000024A0 00000001     H   31976 31966B
 $$$280F       2 00002506 00000001     H   32103 32091B
 $$$283F       2 000025F6 00000001     H   32761 32740B
 $$$284F       2 0000261C 00000001     H   32844 32823B
 $$$284T       2 0000260C 00000001     H   32826 32811B
 $$$287F       2 0000268E 00000001     H   33017 33001B
 $$$289F       2 000026CE 00000001     H   33128 33033B
 $$$290        6 00002C30 00000001     I   33117 33109X
 $$$291        6 00002C30 00000001     I   33116 33117  33117
 $$$294F       2 000027D4 00000001     H   33659 33428B
 $$$295F       2 00002794 00000001     H   33482 33461B
 $$$296F       2 000027C6 00000001     H   33626 33582B
 $$$299F       2 00002838 00000001     H   33885 33864B
 $$$30B        1 00000016 00000001     X   17398 17405U
 $$$300F       2 0000286A 00000001     H   33950 33938B
 $$$300S       2 0000284A 00000001     H   33920 33949B
 $$$303F       2 000028A4 00000001     H   34057 34001B 34022B 34036B
 $$$308        4 00002C38 00000001     I   34215 34207X
 $$$309        4 00002C38 00000001     I   34214 34215  34215
 $$$31F        2 00000062 00000001     H   17546 17479B
 $$$310F       2 00002916 00000001     H   34303 34282B
 $$$311F       2 00002948 00000001     H   34368 34356B
 $$$311S       2 00002928 00000001     H   34338 34367B
 $$$314F       2 00002982 00000001     H   34475 34419B 34440B 34454B
 $$$32B        4 0000006A 00000001     I   17563 17708
 $$$32F        2 000000D4 00000001     H   17701 17563B 17707
 $$$320F       2 00002A4A 00000001     H   34789 34756B
 $$$322F       2 00002AAE 00000001     H   35023 35003B
 $$$323B       4 00002AB2 00000001     I   35038 35076
 $$$323F       2 00002AC8 00000001     H   35070 35038B 35075
1IOSERV   (IOSE00) (09:40) (22MAR04) Ordinary Symbol and Literal Cross Reference                                            Page  360
 $$$324E       2 00002ACC 00000001     H   35083 35077
 $$$324F       2 00002AF4 00000001     H   35164 35079B
 $$$326F       2 00002B7C 00000001     H   35502 35446B
 $$$326S       2 00002B56 00000001     H   35409 35501B
 $$$328F       2 00002B78 00000001     H   35483 35462B
 $$$33F        2 0000008A 00000001     H   17614 17601B
 $$$330F       2 00002C7A 00000001     H   36100 36079B
 $$$331F       2 00002C9E 00000001     H   36164 36143B
 $$$332F       2 00002CB6 00000001     H   36198 36177B
 $$$333F       2 00002CCE 00000001     H   36229 36208B
 $$$334F       2 00002EE4 00000001     H   36871 36268B
 $$$334T       2 00002CDE 00000001     H   36271 36256B
 $$$336F       2 00002D08 00000001     H   36333 36291B
 $$$337B       4 00002D0E 00000001     I   36345 36491
 $$$337F       2 00002D92 00000001     H   36487 36345B 36490
 $$$338E       2 00002D96 00000001     H   36498 36492
 $$$338F       2 00002EE4 00000001     H   36867 36494B 36507B
 $$$34S        2 000000B8 00000001     H   17653 17692B
 $$$340F       2 00002E20 00000001     H   36656 36635B
 $$$341F       2 00002ECE 00000001     H   36841 36689B
 $$$341S       2 00002E2E 00000001     H   36681 36840B
 $$$343S       2 00002E42 00000001     H   36700 36831B
 $$$344F       2 00002E66 00000001     H   36742 36721B
 $$$345F       2 00002E82 00000001     H   36773 36752B
 $$$346F       2 00002EA2 00000001     H   36804 36783B
 $$$35F        2 000000C8 00000001     H   17676 17666B
 $$$350F       2 00002F8E 00000001     H   37096 36941B
 $$$351F       2 00002F34 00000001     H   36985 36964B
 $$$352F       2 00002F8C 00000001     H   37091 37010B
 $$$352T       2 00002F44 00000001     H   37013 37000B
 $$$354F       2 00002F62 00000001     H   37062 37041B
 $$$356F       2 00002FD8 00000001     H   37357 37336B
 $$$357F       2 00002FF2 00000001     H   37394 37371B 37384B
 $$$359F       2 00003016 00000001     H   37443 37422B
 $$$359T       2 00003006 00000001     H   37425 37410B
 $$$361B       4 0000303C 00000001     I   37571 37645
 $$$361F       2 000030A6 00000001     H   37641 37571B 37644
 $$$362F       2 000030A6 00000001     H   37637 37616B
 $$$363B       4 000030AE 00000001     I   37661 37734
 $$$363E       2 000030AA 00000001     H   37652 37646
 $$$363F       2 00003118 00000001     H   37731 37648B 37661B 37733
 $$$365F       2 00003118 00000001     H   37727 37706B
 $$$366E       2 0000311C 00000001     H   37741 37735
 $$$366F       2 0000312C 00000001     H   37759 37737B
 $$$367F       2 00003172 00000001     H   37804 37783B
 $$$368F       2 00003184 00000001     H   37827 37815B
 $$$370F       2 00003244 00000001     H   38053 38032B
 $$$371F       2 000032AA 00000001     H   38220 38199B
 $$$372F       2 000032EE 00000001     H   38272 38251B
 $$$373F       2 0000333A 00000001     H   38474 38449B
 $$$373S       2 0000332A 00000001     H   38412 38473B
 $$$376B       4 00003412 00000001     I   38800 38877
 $$$376F       2 0000343E 00000001     H   38873 38800B 38876
 $$$377S       2 0000341E 00000001     H   38817 38835B
 $$$38E        2 000000D8 00000001     H   17715 17709
 $$$38F        2 000000F8 00000001     H   17770 17711B
 $$$380S       2 00003430 00000001     H   38846 38864B
 $$$383B       4 00003446 00000001     I   38895 38971
 $$$383E       2 00003442 00000001     H   38884 38878
1IOSERV   (IOSE00) (09:40) (22MAR04) Ordinary Symbol and Literal Cross Reference                                            Page  361
 $$$383F       2 00003472 00000001     H   38968 38880B 38895B 38970
 $$$385S       2 0000344E 00000001     H   38905 38923B
 $$$388S       2 00003460 00000001     H   38934 38952B
 $$$39S        2 00000100 00000001     H   17792 17811B
 $$$391E       2 00003476 00000001     H   38978 38972
 $$$391F       2 00003486 00000001     H   38996 38974B
 $$$393F       2 000034E8 00000001     H   39289 39264B
 $$$394F       2 0000350C 00000001     H   39352 39331B
 $$$395F       2 00003642 00000001     H   39679 39440B
 $$$395S       2 00003578 00000001     H   39432 39678B
 $$$397S       2 00003590 00000001     H   39473 39660B
 $$$398F       2 000035A8 00000001     H   39511 39490B
 $$$399F       2 000035C4 00000001     H   39545 39524B
 $$$400F       2 000035EC 00000001     H   39581 39560B
 $$$401F       2 0000360C 00000001     H   39621 39600B
 $$$405F       2 000037B4 00000001     H   40236 39730B
 $$$405S       2 0000365E 00000001     H   39724 40235B
 $$$407B       4 0000367E 00000001     I   39769 39785
 $$$407F       2 00003686 00000001     H   39779 39769B 39784
 $$$408E       2 0000368A 00000001     H   39792 39786
 $$$408F       2 0000368E 00000001     H   39799 39788B
 $$$409B       4 00003692 00000001     I   39813 39955
 $$$409F       2 000036FC 00000001     H   39951 39813B 39954
 $$$410F       2 000036B6 00000001     H   39843 39830B
 $$$411B       4 000036C6 00000001     I   39854 39870
 $$$411F       2 000036D2 00000001     H   39867 39854B 39869
 $$$412E       2 000036D6 00000001     H   39877 39871
 $$$412F       2 000036FC 00000001     H   39947 39873B
 $$$413S       2 000036DA 00000001     H   39887 39905B
 $$$416S       2 000036EC 00000001     H   39916 39934B
 $$$419B       4 00003704 00000001     I   39971 40114
 $$$419E       2 00003700 00000001     H   39962 39956
 $$$419F       2 00003776 00000001     H   40111 39958B 39971B 40113
 $$$421B       4 0000371C 00000001     I   39990 40006
 $$$421F       2 00003728 00000001     H   40003 39990B 40005
 $$$422E       2 0000372C 00000001     H   40013 40007
 $$$422F       2 00003776 00000001     H   40107 40009B
 $$$423S       2 00003730 00000001     H   40023 40041B
 $$$426S       2 00003742 00000001     H   40052 40070B
 $$$429F       2 00003774 00000001     H   40102 40086B
 $$$43F        2 000003D2 00000001     H   18671 18651B
 $$$430E       2 0000377A 00000001     H   40121 40115
 $$$430F       2 0000378A 00000001     H   40139 40117B
 $$$431F       2 000037AA 00000001     H   40228 40160B
 $$$432F       2 0000382A 00000001     H   40477 40262B 40321B
 $$$433F       2 000037DE 00000001     H   40325 40301B 40313B
 $$$435F       2 0000387C 00000001     H   40559 40490B
 $$$436F       2 0000384C 00000001     H   40528 40507B
 $$$438F       2 000038FC 00000001     H   40887 40866B
 $$$439B       4 0000391E 00000001     I   40988 41032
 $$$439F       2 00003928 00000001     H   41025 40988B 41031
 $$$44F        2 0000041C 00000001     H   18775 18760B
 $$$440B       4 00003932 00000001     I   41051 41095
 $$$440E       2 0000392C 00000001     H   41039 41033
 $$$440F       2 0000393C 00000001     H   41088 41035B 41051B 41094
 $$$442B       4 00003946 00000001     I   41114 41159
 $$$442E       2 00003940 00000001     H   41102 41096
 $$$442F       2 00003950 00000001     H   41151 41098B 41114B 41158
 $$$444B       4 0000395A 00000001     I   41178 41221
1IOSERV   (IOSE00) (09:40) (22MAR04) Ordinary Symbol and Literal Cross Reference                                            Page  362
 $$$444E       2 00003954 00000001     H   41166 41160
 $$$444F       2 00003964 00000001     H   41215 41162B 41178B 41220
 $$$446E       2 00003968 00000001     H   41228 41222
 $$$446F       2 00003978 00000001     H   41245 41224B
 $$$448F       2 000039FA 00000001     H   41468 41447B
 $$$449B       1 00003E7A 00000001     X   41727 41734U
 $$$45F        2 00000466 00000001     H   18879 18864B
 $$$450F       2 00003BD8 00000001     H   42413 42022B 42080B 42386B
 $$$451F       2 00003AF6 00000001     H   41992 41904B
 $$$453F       2 00003B06 00000001     H   42026 42014B
 $$$455F       2 00003B2C 00000001     H   42084 42072B
 $$$456F       2 00003B6E 00000001     H   42217 42107B 42122B 42185B
 $$$458F       2 00003B5C 00000001     H   42173 42144B 42159B
 $$$458S       2 00003B46 00000001     H   42138 42172B
 $$$462        6 00003E88 00000001     I   42207 42199X
 $$$463        6 00003E88 00000001     I   42206 42207  42207
 $$$464B       4 00003B7E 00000001     I   42241 42257
 $$$464F       2 00003B84 00000001     H   42254 42241B 42256
 $$$466E       2 00003B88 00000001     H   42264 42258
 $$$466F       2 00003B8C 00000001     H   42271 42260B
 $$$467F       2 00003B92 00000001     H   42288 42281B
 $$$468F       2 00003BC0 00000001     H   42354 42304B
 $$$469F       2 00003BD6 00000001     H   42390 42369B
 $$$471F       2 00003C9E 00000001     H   42723 42524B 42690B
 $$$472F       2 00003C1A 00000001     H   42528 42513B
 $$$472T       2 00003C14 00000001     H   42516 42502B
 $$$475S       2 00003C1A 00000001     H   42537 42671B
 $$$476B       4 00003C3E 00000001     I   42579 42592
 $$$476F       2 00003C46 00000001     H   42589 42579B 42591
 $$$478E       2 00003C4A 00000001     H   42599 42593
 $$$478F       2 00003C56 00000001     H   42607 42595B
 $$$479F       2 00003C72 00000001     H   42654 42625B 42640B
 $$$479S       2 00003C5C 00000001     H   42619 42653B
 $$$48F        2 00000934 00000001     H   21083 19773B
 $$$48S        2 0000064A 00000001     H   19765 19791B 19826B 21082B
 $$$485F       2 00003D88 00000001     H   43018 42782B
 $$$486F       2 00003CFE 00000001     H   42869 42827B
 $$$487F       2 00003D0C 00000001     H   42902 42884B
 $$$490F       2 00003DDC 00000001     H   43147 43140B
 $$$492F       2 00003EE0 00000001     H   43442 43417B
 $$$493F       2 00003F0E 00000001     H   43514 43493B
 $$$494S       2 00003F2E 00000001     H   43561 44875B
 $$$496F       2 00004374 00000001     H   44871 43642B
 $$$496S       2 00003F4C 00000001     H   43606 44870B
 $$$498F       2 00003F7E 00000001     H   43685 43664B
 $$$499F       2 00003F98 00000001     H   43739 43718B
 $$$500F       2 00003FB6 00000001     H   43794 43773B
 $$$501F       2 000042A2 00000001     H   44606 43817B
 $$$501S       2 00003FC4 00000001     H   43811 44605B
 $$$503F       2 00004298 00000001     H   44596 43846B
 $$$504B       4 00003FF8 00000001     I   43885 44272
 $$$504F       2 0000413E 00000001     H   44268 43885B 44271
 $$$505B       4 0000401A 00000001     I   43908 44035
 $$$505F       2 00004098 00000001     H   44031 43908B 44034
 $$$506F       2 00004080 00000001     H   43983 43962B
 $$$507S       2 00004088 00000001     H   43997 44015B
 $$$510B       4 000040A0 00000001     I   44051 44239
 $$$510E       2 0000409C 00000001     H   44042 44036
 $$$510F       2 0000412A 00000001     H   44236 44038B 44051B 44238
1IOSERV   (IOSE00) (09:40) (22MAR04) Ordinary Symbol and Literal Cross Reference                                            Page  363
 $$$512B       4 00004102 00000001     I   44139 44184
 $$$512F       2 00004112 00000001     H   44181 44139B 44183
 $$$513E       2 00004116 00000001     H   44191 44185
 $$$513F       2 0000412A 00000001     H   44232 44187B
 $$$514S       2 0000411A 00000001     H   44201 44219B
 $$$517E       2 0000412E 00000001     H   44246 44240
 $$$517F       2 0000413E 00000001     H   44264 44242B
 $$$518B       4 00004146 00000001     I   44288 44562
 $$$518E       2 00004142 00000001     H   44279 44273
 $$$518F       2 00004278 00000001     H   44559 44275B 44288B 44561
 $$$520F       2 000041B4 00000001     H   44360 44339B
 $$$521S       2 000041C8 00000001     H   44374 44392B
 $$$524F       2 00004276 00000001     H   44546 44429B
 $$$525F       2 00004262 00000001     H   44512 44491B
 $$$526S       2 00004268 00000001     H   44519 44537B
 $$$529E       2 0000427C 00000001     H   44569 44563
 $$$529F       2 0000428C 00000001     H   44587 44565B
 $$$53F        2 00000930 00000001     H   21062 20790B
 $$$53S        2 00000880 00000001     H   20782 21061B
 $$$530F       2 000042FA 00000001     H   44725 44656B
 $$$531F       2 00004344 00000001     H   44830 44809B
 $$$540F       2 00004412 00000001     H   45180 45159B
 $$$542S       2 00004442 00000001     H   45242 45705B
 $$$543F       2 000044E8 00000001     H   45507 45264B
 $$$546F       2 000044E8 00000001     H   45503 45316B
 $$$546S       2 00004460 00000001     H   45280 45502B
 $$$548F       2 0000449C 00000001     H   45389 45368B
 $$$549F       2 000044B4 00000001     H   45423 45402B
 $$$550F       2 00004546 00000001     H   45701 45523B
 $$$552F       2 00004538 00000001     H   45663 45600B
 $$$552S       2 00004510 00000001     H   45593 45662B
 $$$554F       2 00004532 00000001     H   45657 45620B
 $$$556F       2 000045CA 00000001     H   45909 45888B
 $$$558F       2 0000461A 00000001     H   46012 45959B
 $$$559F       2 00004630 00000001     H   46062 46025B
 $$$56F        2 000009C2 00000001     H   21388 21342B
 $$$561        4 00004718 00000001     I   46182 46174X
 $$$562        4 00004718 00000001     I   46181 46182  46182
 $$$563S       2 00004672 00000001     H   46194 46212B
 $$$569F       2 0000476A 00000001     H   46737 46716B
 $$$570S       2 00004828 00000001     H   46963 47038B 47232B
 $$$573F       2 00004882 00000001     H   47118 47097B
 $$$574F       2 0000489A 00000001     H   47152 47131B
 $$$576F       2 0000491A 00000001     H   47393 47372B
 $$$577F       2 00004A92 00000001     H   47867 47461B
 $$$578F       2 000049F8 00000001     H   47630 47609B
 $$$579F       2 00004A56 00000001     H   47769 47762B
 $$$58F        2 00000A5E 00000001     H   21608 21487B
 $$$58S        2 000009FA 00000001     H   21457 21607B
 $$$580F       2 00004A92 00000001     H   47863 47822B
 $$$581F       2 00004AA8 00000001     H   47917 47880B
 $$$583F       2 00004AF6 00000001     H   48083 48062B
 $$$585F       2 00004B4E 00000001     H   48251 48230B
 $$$587B       4 00004B5A 00000001     I   48276 48452
 $$$587F       2 00004BD2 00000001     H   48445 48276B 48451
 $$$588F       2 00004BA2 00000001     H   48376 48369B
 $$$589E       2 00004BD6 00000001     H   48459 48453
 $$$589F       2 00004BF4 00000001     H   48513 48455B 48474B
 $$$591F       2 00004C22 00000001     H   48670 48645B
1IOSERV   (IOSE00) (09:40) (22MAR04) Ordinary Symbol and Literal Cross Reference                                            Page  364
 $$$591S       2 00004C12 00000001     H   48608 48669B
 $$$594F       2 00004CA6 00000001     H   48956 48935B
 $$$595F       2 00004CEE 00000001     H   49033 49022B
 $$$595S       2 00004CD0 00000001     H   49003 49032B
 $$$598F       2 00004D04 00000001     H   49067 49046B
 $$$599F       2 00004D7C 00000001     H   49241 49084B
 $$$599S       2 00004D08 00000001     H   49077 49240B
 $$$60F        2 00000A5A 00000001     H   21603 21506B
 $$$60S        2 00000A1A 00000001     H   21498 21602B
 $$$601F       2 00004D24 00000001     H   49113 49102B
 $$$602F       2 00004D74 00000001     H   49235 49214B
 $$$604F       2 00004DEA 00000001     H   49464 49443B
 $$$605F       2 00004E2E 00000001     H   49571 49550B
 $$$607B       4 00004EB0 00000001     I   49930 49943
 $$$607F       2 00004EBA 00000001     H   49940 49930B 49942
 $$$608E       2 00004EBE 00000001     H   49950 49944
 $$$608F       2 00004EC4 00000001     H   49957 49946B
 $$$609F       2 00004EE4 00000001     H   50011 49983B
 $$$610B       4 00004EE8 00000001     I   50025 50043
 $$$610F       2 00004EF8 00000001     H   50036 50025B 50042
 $$$611E       2 00004EFC 00000001     H   50050 50044
 $$$611F       2 00004FB6 00000001     H   50348 50046B
 $$$612F       2 00004F16 00000001     H   50093 50063B
 $$$613F       2 00004F32 00000001     H   50138 50108B
 $$$614F       2 00004F4E 00000001     H   50183 50153B
 $$$615F       2 00004F6A 00000001     H   50228 50198B
 $$$616F       2 00004F86 00000001     H   50274 50244B
 $$$617F       2 00004FA2 00000001     H   50319 50289B
 $$$618F       2 00004FB6 00000001     H   50344 50333B
 $$$62S        2 00000A28 00000001     H   21529 21548B
 $$$620B       4 00004FD4 00000001     I   50401 50418
 $$$620F       2 00004FE4 00000001     H   50411 50401B 50417
 $$$621E       2 00004FE8 00000001     H   50425 50419
 $$$621F       2 00004FFC 00000001     H   50469 50421B 50440B
 $$$624F       2 000051D8 00000001     H   50932 50922B
 $$$625F       2 00005288 00000001     H   51084 51006B
 $$$626F       2 00005406 00000001     H   51566 51140B
 $$$627B       4 0000534C 00000001     I   51359 51495
 $$$627F       2 000053D6 00000001     H   51492 51359B 51494
 $$$628E       2 000053DA 00000001     H   51502 51496
 $$$628F       2 00005406 00000001     H   51553 51498B
 $$$629F       2 00005410 00000001     H   51586 51576B
 $$$631F       2 00005538 00000001     H   51908 51868B 51893B
 $$$631S       2 0000551E 00000001     H   51842 51907B
 $$$633F       2 00005530 00000001     H   51897 51884B
 $$$634F       2 000055EA 00000001     H   52073 51950B 52006B 52054B
 $$$635F       2 00005596 00000001     H   52010 51976B
 $$$636F       2 000055DA 00000001     H   52058 52024B
 $$$638F       2 00005652 00000001     H   52331 52287B 52316B
 $$$638S       2 00005638 00000001     H   52257 52330B
 $$$640F       2 0000564A 00000001     H   52320 52307B
 $$$641B       4 00005662 00000001     I   52373 52407
 $$$641F       2 00005694 00000001     H   52404 52373B 52406
 $$$642E       2 00005698 00000001     H   52414 52408
 $$$642F       2 000056DC 00000001     H   52472 52410B
 $$$643F       2 000056DC 00000001     H   52468 52437B
 $$$644F       2 00005722 00000001     H   52514 52483B
 $$$645F       2 00005788 00000001     H   52609 52580B
 $$$646F       2 0000580E 00000001     H   52832 52807B
1IOSERV   (IOSE00) (09:40) (22MAR04) Ordinary Symbol and Literal Cross Reference                                            Page  365
 $$$646S       2 000057FE 00000001     H   52770 52831B
 $$$649F       2 0000589A 00000001     H   53238 53217B
 $$$65F        2 00000A9A 00000001     H   21695 21631B
 $$$65S        2 00000A5E 00000001     H   21617 21694B
 $$$650S       2 000058C0 00000001     H   53326 53401B 53586B
 $$$653F       2 00005916 00000001     H   53473 53452B
 $$$654F       2 0000592E 00000001     H   53507 53486B
 $$$656F       2 000059AE 00000001     H   53775 53754B
 $$$657F       2 00005D0E 00000001     H   55277 53847B
 $$$658F       2 000059FC 00000001     H   53916 53895B
 $$$659F       2 00005AAE 00000001     H   54199 53944B
 $$$661B       4 00005B1A 00000001     I   54348 54364
 $$$661F       2 00005B20 00000001     H   54361 54348B 54363
 $$$663E       2 00005B24 00000001     H   54371 54365
 $$$663F       2 00005B28 00000001     H   54378 54367B
 $$$664F       2 00005B2E 00000001     H   54395 54388B
 $$$665B       4 00005B48 00000001     I   54448 54495
 $$$665F       2 00005B6A 00000001     H   54489 54448B 54494
 $$$666E       2 00005B6E 00000001     H   54502 54496
 $$$666F       2 00005D0E 00000001     H   55266 54498B
 $$$667F       2 00005BAE 00000001     H   54620 54599B
 $$$668F       2 00005BFE 00000001     H   54832 54723B
 $$$67S        2 00000A68 00000001     H   21641 21660B
 $$$670F       2 00005BFE 00000001     H   54821 54794B
 $$$670S       2 00005BE0 00000001     H   54762 54818B
 $$$674F       2 00005C40 00000001     H   54966 54891B
 $$$675F       2 00005C56 00000001     H   54997 54976B
 $$$676F       2 00005CC4 00000001     H   55148 55030B
 $$$678F       2 00005CC4 00000001     H   55144 55098B
 $$$678S       2 00005C8A 00000001     H   55089 55143B
 $$$680F       2 00005CF4 00000001     H   55185 55170B
 $$$682F       2 00005D00 00000001     H   55212 55197B
 $$$684F       2 00005D0C 00000001     H   55241 55226B
 $$$685F       2 00005D24 00000001     H   55327 55290B
 $$$687F       2 0000603E 00000001     H   56921 55868B
 $$$688F       2 00005DDE 00000001     H   55877 55800B 55813B
 $$$690F       2 00005DD8 00000001     H   55872 55857B
 $$$691B       4 00005E28 00000001     I   55983 55996
 $$$691F       2 00005E32 00000001     H   55993 55983B 55995
 $$$692E       2 00005E36 00000001     H   56003 55997
 $$$692F       2 00005E3C 00000001     H   56010 55999B
 $$$693F       2 00005E8A 00000001     H   56172 56063B 56115B
 $$$694F       2 00005E6E 00000001     H   56103 56086B
 $$$694S       2 00005E60 00000001     H   56074 56099B
 $$$698        6 00006392 00000001     I   56157 56149X
 $$$699        6 00006392 00000001     I   56156 56157  56157
 $$$700F       2 00005EB2 00000001     H   56241 56200B
 $$$701F       2 00005ECA 00000001     H   56282 56272B
 $$$702F       2 00005ED6 00000001     H   56303 56293B
 $$$703F       2 00005FDA 00000001     H   56723 56325B
 $$$704F       2 00005EF6 00000001     H   56367 56357B
 $$$705F       2 00005F12 00000001     H   56425 56390B
 $$$706B       4 00005F16 00000001     I   56439 56457
 $$$706F       2 00005F26 00000001     H   56450 56439B 56456
 $$$707B       4 00005F2E 00000001     I   56473 56539
 $$$707E       2 00005F2A 00000001     H   56464 56458
 $$$707F       2 00005F58 00000001     H   56533 56460B 56473B 56538
 $$$709F       2 00005F58 00000001     H   56529 56518B
 $$$710E       2 00005F5C 00000001     H   56546 56540
1IOSERV   (IOSE00) (09:40) (22MAR04) Ordinary Symbol and Literal Cross Reference                                            Page  366
 $$$710F       2 00005F68 00000001     H   56554 56542B
 $$$711F       2 00005FB2 00000001     H   56669 56658B
 $$$712F       2 00005FC6 00000001     H   56694 56683B
 $$$713F       2 00005FDA 00000001     H   56719 56708B
 $$$715B       4 00005FF8 00000001     I   56776 56792
 $$$715F       2 00006008 00000001     H   56786 56776B 56791
 $$$716E       2 0000600C 00000001     H   56799 56793
 $$$716F       2 00006020 00000001     H   56843 56795B 56814B
 $$$719F       2 00006086 00000001     H   57037 57016B
 $$$721B       4 00006092 00000001     I   57062 57238
 $$$721F       2 0000610A 00000001     H   57231 57062B 57237
 $$$722F       2 000060DA 00000001     H   57162 57155B
 $$$723E       2 0000610E 00000001     H   57245 57239
 $$$723F       2 0000612C 00000001     H   57299 57241B 57260B
 $$$725F       2 0000615A 00000001     H   57456 57431B
 $$$725S       2 0000614A 00000001     H   57394 57455B
 $$$731F       2 00006488 00000001     H   58080 58005B
 $$$733F       2 000064E2 00000001     H   58323 58297B
 $$$733S       2 000064C2 00000001     H   58269 58320B
 $$$734F       2 000064D6 00000001     H   58301 58283B
 $$$738F       2 00006562 00000001     H   58602 58572B 58592B
 $$$741F       2 0000660E 00000001     H   58917 58896B
 $$$743B       4 0000667C 00000001     I   59189 59222
 $$$743F       2 000066C0 00000001     H   59219 59189B 59221
 $$$744E       2 000066C4 00000001     H   59229 59223
 $$$744F       2 00006704 00000001     H   59257 59225B
 $$$745F       2 00006710 00000001     H   59280 59266B
 $$$750F       2 000067F2 00000001     H   59824 59796B
 $$$755F       2 00006890 00000001     H   60084 60044B
 $$$757F       2 00006A12 00000001     H   60495 60342B
 $$$757S       2 00006952 00000001     H   60336 60494B
 $$$759F       2 00006A0A 00000001     H   60489 60362B
 $$$760F       2 000069B2 00000001     H   60411 60388B
 $$$761F       2 00006A0A 00000001     H   60485 60423B
 $$$762F       2 00006A0A 00000001     H   60481 60458B
 $$$80F        2 00000FC4 00000001     H   23568 23547B
 $$$81F        2 00000FDC 00000001     H   23602 23581B
 $$$82F        2 00001088 00000001     H   23960 23711B 23733B 23771B 23786B 23834B 23849B
 $$$84F        2 00001026 00000001     H   23801 23751B
 $$$87F        2 0000104E 00000001     H   23864 23814B
 $$$90F        2 0000106A 00000001     H   23915 23900B
 $$$91F        2 00001076 00000001     H   23943 23928B
 $$$93F        2 000010F0 00000001     H   24200 24179B
 $$$94F        2 0000115C 00000001     H   24432 24243B 24261B 24374B
 $$$96F        2 0000111E 00000001     H   24317 24296B
 $$$97F        2 00001136 00000001     H   24358 24337B
 $JESJDB       4 00000000 FFFFFF4F     A   46515 41249M 47337  48027  48900  49408
 $JESKEY       1 0000000C FFFFFF4F     X   46518 41252M
 $JESMSG      32 00000000 FFFFFF4F     J   46535 40952  40968U 47053U 47326U 48016U 48875U 49383U
 $JESOFF       4 00000008 FFFFFF4F     A   46517 41251M 47416  48997  49006  49577
 $JESPARM      4 00000010 FFFFFF4F     A   46519 41009M 41072M 41135M 41199M 46520  46522  46524  46526  47085U 47335U
                                                 48025U 48898U 49406U
 $JESRQID      4 00000004 FFFFFF4F     A   46516 41250M 47187
 $MPFALLO      4 00000010 FFFFFF47     A   53051 24968M 26504M 28147M 53795
 $MPFINFO      4 00000014 FFFFFF47     A   53052 24971M 26507M 28150M 54504
 $MVIDSID      4 00000000 FFFFFF48     A   53018 24910M 26445M 28088M 41553M 53719  55465
 $MVIFPFC      1 00000008 FFFFFF48 A   U   53024 25051  26586  28229
 $MVIFPFO      1 00000004 FFFFFF48 A   U   53023 24972  26508  28151
 $MVIFUNC      4 0000000C FFFFFF48     A   53021 25059M 26594M 28237M 41556M 53442
1IOSERV   (IOSE00) (09:40) (22MAR04) Ordinary Symbol and Literal Cross Reference                                            Page  367
 $MVIOCOM     16 00000000 FFFFFF48     J   53036 24906U 24985U 26441U 26521U 28084U 28164U 41533  41549U 53050  53438U
                                                 53715U 55347U 55461U
 $MVIOFF       4 00000008 FFFFFF48     A   53020 24912M 26447M 28090M 41555M
 $MVIPSFO     24 00000000 FFFFFF47     J   53059 24890  24962U 26425  26498U 28068  28141U 53791U
 $MVIRQID      4 00000004 FFFFFF48     A   53019 24911M 26446M 28089M 41554M 53540
 $NLL10508
               2 000028EC 00000001     I   34223 34227B
 $NLL8526      2 00002142 00000001     I   30611 30615B
 $NLM10508
               1 00002C36 00000001     R   34196 34214
 $NLM8526      1 00002190 00000001     R   30584 30602
 $OLL8432      2 000020D8 00000001     I   30423 30427B
 $SCMFUNC      4 0000000C FFFFFF55     A   43239 33245M 45358
 $SCMIMSG     21 00000000 FFFFFF55     J   43248 33207  33223U 45331U 45835U
 $SCMKEY       1 00000014 FFFFFF55     X   43241 33244M
 $SCMOFF       4 00000010 FFFFFF55     A   43240 33243M
 $SCMRQID      4 00000008 FFFFFF55     A   43238 33242M 45457
 $SCMSDB       4 00000000 FFFFFF55     A   43236 33227M 45853
 #FCCLOSE      1 00000008 FFFFFF85 A   U   24517 25919
 #FCOPEN       1 00000004 FFFFFF85 A   U   24516 25921
 #FCREAD       1 0000000C FFFFFF85 A   U   24518 25924
 #FCWRITE      1 00000010 FFFFFF85 A   U   24519 25925
 #FIOALLO      4 00000004 FFFFFF84     A   24541 24966
 #FIOCMD       4 00000000 FFFFFF85     A   24512 24824  24928  25028  25160  25234
 #FIOCOM       4 00000000 FFFFFF85     J   24526 24540  24563  24584  24747U 24997U 25851U
 #FIODATAL
               4 00000018 FFFFFF82     F   24593 25662
 #FIODO       40 00000000 FFFFFF82     J   24604 25291U
 #FIOHDRL      4 00000010 FFFFFF82     F   24590 25632
 #FIOHDRR      4 00000024 FFFFFF82     A   24597 25600
 #FIOIDALR
               4 00000020 FFFFFF82     A   24596 25637
 #FIOINFO      4 00000008 FFFFFF84     A   24542 24969
 #FIOOPEN     12 00000000 FFFFFF84     J   24549 24946U
 #FIORBLK      4 0000001C FFFFFF82     F   24595 25317
 #HSCCODE      1 00000003 FFFFFF69     X   35709 36133  36207
 #HSCLOS       1 00000008 FFFFFF69 A   U   35714 37932
 #HSCMD        4 00000000 FFFFFF69     A   35707 35708
 #HSPCCMD      4 00000000 FFFFFF69     J   35723 35738  35762  35784  36125U 36479U 36859U 36903U
 #HSPCNT       2 00000008 FFFFFF66     H   35786 36438M 36613M 36709  36711M 36843M 38742
 #HSPCODE      1 00000003 FFFFFF66     X   35790 38786
 #HSPDCMD      4 00000000 FFFFFF66     X   35784 35789  36436M 36612M 36919
 #HSPDO       12 00000000 FFFFFF66     J   35798 36367  36399U 36435M 36435  36542  36575U 36611M 36611  36903U 38731U
 #HSPEND       1 0000000C FFFFFF66     U   35788 35791  36408U 36584U 36910U
 #HSPL        12 00000000 FFFFFF65     J   35843 36367  36408U 36453  36584U 36844  36910U 39455U
 #HSPLBLK      4 00000008 FFFFFF65     F   35825 35827  36465M 36805M 39587
 #HSPLEND      1 0000000C FFFFFF65     U   35826 36415U 36591U 36917U
 #HSPLERR    128 00000008 FFFFFF65        35834 40186M 44119M 44169M
 #HSPLFLG      1 00000008 FFFFFF65     R   35830 35834  39635M 39636  40175U 44107U 44158U
 #HSPLIST      4 00000004 FFFFFF66     A   35785 36455M 36657M 36687  36695M 36846M 38744
 #HSPLNXT      4 00000000 FFFFFF65     F   35823 36463M 36668M 39459
 #HSPLPGE      4 00000004 FFFFFF65     F   35824 36464M 36466M 36809M 36810  39523  39549  39639
 #HSPOPEN     12 00000000 FFFFFF68     J   35747 37322U
 #HSPRC        2 0000000A FFFFFF66     H   35787 36445M 36445  36620M 36620
 #HSPSIZE      4 00000004 FFFFFF68     A   35739 37383M 37383  37390
 #HSREAD       1 0000000C FFFFFF69 A   U   35715 37928  40607
 #HSWRIT       1 00000010 FFFFFF69 A   U   35716 37929  40606
 #IOCLOSE      1 00000008 FFFFFF86 A   U   24046 25917
 #IOCMD        4 00000000 FFFFFF86     A   24041 24371  24400
1IOSERV   (IOSE00) (09:40) (22MAR04) Ordinary Symbol and Literal Cross Reference                                            Page  368
 #IOCOM        4 00000000 FFFFFF86     J   24056 24223U
 #IORESET      1 00000014 FFFFFF86 A   U   24049 25918
 #JCCLOSE      1 00000008 FFFFFF5D A   U   40645 41651
 #JCJBND       1 00000010 FFFFFF5D A   U   40647 41653
 #JCOPEN       1 00000004 FFFFFF5D A   U   40644 41650
 #JCWRITE      1 0000000C FFFFFF5D A   U   40646 41652
 #JESALLO      4 00000004 FFFFFF5C     A   40670 47415
 #JESCLOS      4 00000000 FFFFFF5B     J   40699 41068U 41072  41072  46523  48025U
 #JESCMD       4 00000000 FFFFFF5D     A   40640 40987  41050  41113  41177  47087
 #JESCOM       4 00000000 FFFFFF5D     J   40654 40669  40692  40714  40739  40827U 41022U 41085U 41148U 41212U 47085U
 #JESJBND      8 00000000 FFFFFF59     J   40747 41195U 41199  41199  49406U
 #JESNLOC      4 00000004 FFFFFF59     A   40740 49576
 #JESOPEN      8 00000000 FFFFFF5C     J   40677 41005U 41009  41009  46521  46527  47335U
 #JESWLEN      4 00000008 FFFFFF5A     A   40716 48961  48998  49247
 #JESWLRC      4 0000000C FFFFFF5A     A   40717 49089
 #JESWLST      4 00000004 FFFFFF5A     A   40715 48996
 #JESWRIT     16 00000000 FFFFFF5A     J   40724 41131U 41135  41135  46525  48898U
 #PCCLOSE      1 00000008 FFFFFF80 A   U   25961 27538
 #PCOPEN       1 00000004 FFFFFF80 A   U   25960 27537
 #PCREAD       1 0000000C FFFFFF80 A   U   25962 27533
 #PCRESET      1 00000014 FFFFFF80 A   U   25964 27535
 #PCWRITE      1 00000010 FFFFFF80 A   U   25963 27534
 #PFIBKS       4 00000000 FFFFFF51     A   44950 55000M
 #PFIBLK       4 0000001C FFFFFF51     A   45046 55156M
 #PFIBTK       4 00000004 FFFFFF51     A   44951 54868M
 #PFIDSO       1 00000013 FFFFFF51     R   44973 44981  44990  44999  55153M
 #PFIKEY       1 00000015 FFFFFF51     X   45044 55157M
 #PFILRC       4 00000018 FFFFFF51     A   45045 55155M
 #PFINFO      32 00000000 FFFFFF51     J   45053 54517U
 #PFIRFM       1 00000014 FFFFFF51     R   45005 45013  45022  45031  45040  55154M
 #PFISPF       1 00000012 FFFFFF51     R   44956 44960  44965
 #PFITCY       4 00000008 FFFFFF51     A   44952 55158M
 #PFOCNTG     64 00000012 FFFFFF51        44965 55237M
 #PFOCYL     128 00000012 FFFFFF51        44960 55181M 55208M
 #PIOALLO      4 00000004 FFFFFF7F     A   25987 26502
 #PIOBLK       4 00000004 FFFFFF7D     A   26033 26974  36464  36465
 #PIOCMD       4 00000000 FFFFFF80     A   25956 26285  26300  26318  26464  26563  26646  26816  26890
 #PIOCOM       4 00000000 FFFFFF80     J   25971 25986  26010  26032  26056  26206U 26533U 27487U
 #PIODCMD      4 00000000 FFFFFF7D     X   26032 36436
 #PIODO       12 00000000 FFFFFF7D     J   26041 26948U 36359U
 #PIOINFO      4 00000008 FFFFFF7F     A   25988 26505
 #PIOLOC       4 00000008 FFFFFF7D     A   26034 27404
 #PIOOPEN     12 00000000 FFFFFF7F     J   25995 26482U
 #SCCLOSE      4 00000000 FFFFFF71     J   32424 33413U
 #SCCMD        4 00000000 FFFFFF73     A   32346 32789
 #SCCOPEN      1 00000004 FFFFFF73 A   U   32350 35674
 #SCIASCB      4 0000000C FFFFFF6E     A   32506 34778
 #SCINFO      16 00000000 FFFFFF6E     J   32513 34710U
 #SCIPART      8 00000004 FFFFFF6E     C   32505 34775
 #SCNOTE       4 00000000 FFFFFF6D     J   32536 34904U
 #SCOBUFL      4 00000018 FFFFFF72     A   32393 33018
 #SCOINFO      4 0000001C FFFFFF72     A   32394 33031
 #SCOMCMD      4 00000000 FFFFFF73     J   32373 32389  32417  32440  32463  32504  32529  32783U
 #SCOME        8 00000004 FFFFFF72     C   32390 32991
 #SCOPASS      4 00000014 FFFFFF72     C   32392 32993
 #SCOPEN      32 00000000 FFFFFF72     J   32401 32984U
 #SCOYOU       8 0000000C FFFFFF72     C   32391 32992
 #SCSR        24 00000000 FFFFFF6F     J   32488 33806U 34175U
 #SCSRCT       4 00000008 FFFFFF6F     A   32465 33863  33914  34281  34332
1IOSERV   (IOSE00) (09:40) (22MAR04) Ordinary Symbol and Literal Cross Reference                                            Page  369
 #SCSRFLG      1 0000000C FFFFFF6F     R   32468 32472  32477
 #SCSRRLN      4 00000010 FFFFFF6F     A   32480 34479M
 #SCSRSEG      8 00000018 FFFFFF6F     D   32481 33915  34333
 #SWAPCMD      4 00000000 FFFFFF7A     A   27568 27928  27943  27961  28107  28206  28289  28564  28684
 #SWAPCOM      4 00000000 FFFFFF7A     J   27583 27598  27622  27644  27669  27842U 28176U 28520U
 #SWCCLOS      1 00000008 FFFFFF7A A   U   27573 29780
 #SWCOPEN      1 00000004 FFFFFF7A A   U   27572 29779
 #SWCREAD      1 0000000C FFFFFF7A A   U   27574 29775
 #SWCRSET      1 00000014 FFFFFF7A A   U   27576 29777
 #SWCWRIT      1 00000010 FFFFFF7A A   U   27575 29776
 #SWPALLO      4 00000004 FFFFFF79     A   27599 28145
 #SWPBLK       4 00000004 FFFFFF77     A   27645 28818  28830  29224  36658
 #SWPCNT       2 0000000C FFFFFF77     H   27647 28484  28819  28990  29053  29225  36540  36613  36843
 #SWPDCMD      4 00000000 FFFFFF77     X   27644 36612
 #SWPDO       14 00000000 FFFFFF77     J   27654 28468U 28792U 36536U
 #SWPINFO      4 00000008 FFFFFF79     A   27600 28148
 #SWPLIST      4 00000008 FFFFFF77     A   27646 29227  36633
 #SWPOPEN     12 00000000 FFFFFF79     J   27607 28125U
 @AM24       156 00000000 FFFFFF39     J   59326 41935  42551U 42559M 42559  43003  59441  59464U 59587  60140U 60161U
 @AM24CRS      4 0000005C FFFFFF39     A   59319 60142M 60163
 @AM24RGS      4 00000048 FFFFFF39     A   59318 42560M 59470M 60144
 @AM24RTN     20 00000000 FFFFFF38     J   59355 49161U 49169M 49169  49497U 49505M 49505  59407U
 @AM24R0       4 00000004 FFFFFF38     A   59345 49170M 49506M 59594
 @AM24R1       4 00000008 FFFFFF38     A   59346 49171M 49507M
 @AM24R15      4 00000000 FFFFFF38     A   59344 49188M 49204  49524M 49540  59469  59557M
 @BCH         17 00000000 FFFFFF98     J   16769 25307U 25315M 25315  26964U 26972M 26972  28808U 28816M 28816  29518M
                                                 29518  31894U
 @BCHBLK       4 00000004 FFFFFF98     A   16754 25317M 26974M 28822M 28830M 29520M 31913
 @BCHDSID      4 00000000 FFFFFF98     A   16753 25316M 26973M 28817M 29519M 31899
 @BCHSECT      1 00000008 FFFFFF98     X   16755 25325  26982  28838  31972M
 @BCHSEEK      1 00000009 FFFFFF98     U   16762 25344  25345  27000  27001  28856  28857  29529
 @BCHSKBB      2 0000000A FFFFFF98     H   16758 32061M
 @BCHSKCC      2 0000000C FFFFFF98     H   16759 32105  32106M
 @BCHSKHH      2 0000000E FFFFFF98     H   16760 32078  32104M
 @BCHSKM       1 00000009 FFFFFF98     X   16757 16762  32072M
 @BCHSKR       1 00000010 FFFFFF98     X   16761 31980M
 @CANTASK      4 00000000 FFFFFFB1     J   15976 21401U
 @CANTID       4 00000000 FFFFFFB1     A   15969 21404M 21417M 21430M 21445M
 @CATSDSN      4 00000000 FFFFFF3F     A   58367 55837M 58550
 @CATSRCH     10 00000000 FFFFFF3F     J   58375 55827U 55835M 55835  58492U
 @CATSVOL      6 00000004 FFFFFF3F     C   58368 55873  58598M
 @CRDDB        4 00000000 FFFFFF89     J   21828 21906U 21914M 21914  21989U 21997M 21997  22072U 22080M 22080  22376U
 @CRDSERV      4 00000000 FFFFFF89     A   21821 21915M 21998M 22081M 22469
 @CRHDB       16 00000000 FFFFFF88     J   21856 22157U 22165M 22165  22267U 22275M 22275  22674U
 @CRHSCNT      8 00000008 FFFFFF88     D   21849 22879M 22896
 @CRHSERV      4 00000000 FFFFFF88     A   21848 22166M 22276M 22767
 @CRPBLK       2 00000004 FFFFFF95     H   16840 55128M 57995
 @CRPBSZ       2 00000006 FFFFFF95     H   16841 55125M 58039
 @CRPKEY       1 00000008 FFFFFF95     X   16842 55126M 58040
 @CRPS         9 00000000 FFFFFF95     J   16849 55115U 55123M 55123  57985U 57992U
 @CRPUCB       4 00000000 FFFFFF95     A   16839 55124M 58013
 @CTRACK       7 00000000 FFFFFF96     J   16821 54848U 54856M 54856  57775U 57782U
 @CTRBSZ       2 00000004 FFFFFF96     H   16813 54858M 57841
 @CTRKEY       1 00000006 FFFFFF96     X   16814 54859M 57842
 @CTRREGS      4 00000000 FFFFFF41     A   57716 57859M 57869  58046M 58075
 @CTRSECT      1 0000000C FFFFFF41     X   57717 58041  58076
 @CTRUCB       4 00000000 FFFFFF96     A   16812 54857M 57844
 @CTRWORK     13 00000000 FFFFFF41     J   57724 57782U 57992U
 @DODSID       4 00000004 FFFFFF87     A   24009 24154M 24413M 24751  26210  27846  32713  36046  36876  40831  41412
1IOSERV   (IOSE00) (09:40) (22MAR04) Ordinary Symbol and Literal Cross Reference                                            Page  370
 @DOHSHDB      4 00000004 FFFFFF62     A   35933 26723M 28366M 36314M 36889M 37298  37997  38707
 @DOHSIRB      4 00000008 FFFFFF62     A   35934 26725M 28368M 36316M 36921M 38745
 @DOHSPC      16 00000000 FFFFFF62     J   35942 26714U 26722M 26722  28357U 28365M 28365  36305U 36313M 36313  36888M
                                                 36888  37288U 37295U 37987U 37994U 38697U 38704U
 @DOHSPRM      4 00000000 FFFFFF62     A   35932 26724M 28367M 36315M 36920M 37312  38721
 @DOHSRC       4 0000000C FFFFFF62     A   35935 36947
 @DOIO        16 00000000 FFFFFF87     J   24018 24143U 24151M 24151  24713U 24720U 26172U 26179U 27808U 27815U 32708U
                                                 36041U 40798U 41391U
 @DOIORB       4 00000008 FFFFFF87     A   24010 24152M 24723  26182  27818  32869  36101  36877  40803  41396
 @DORC         4 0000000C FFFFFF87     A   24011 24386M 24386  24453  32877M 36947M
 @DOSCIRB      4 00000008 FFFFFF6A     A   32619 32869M 33038  33228  33899  34317  34761  35131
 @DOSCOM      16 00000000 FFFFFF6A     J   32627 32858U 32866M 32866  32950U 32957U 33384U 33772U 33779U 34141U 34148U
                                                 34563U 34676U 34683U 34870U 34877U
 @DOSCPRM      4 00000000 FFFFFF6A     A   32617 32868M 32974  33403  33796  34165  34700  34894
 @DOSCRC       4 0000000C FFFFFF6A     A   32620 32877  33451M 33988M 34406M 34600M 34746M 35065M
 @DOSCSDB      4 00000004 FFFFFF6A     A   32618 32867M 32960  33389  33782  34151  34568  34686  34880
 @DOUPRM       4 00000000 FFFFFF87     A   24008 24153M 24737  26196  27832  32773  36115  40817  41410
 @DSABL        4 00000050 FFFFFF43     A   55634 56496
 @DSABLK      64 0000004D FFFFFF43        55615 56472
 @DSACNTG     32 0000004D FFFFFF43        55620 56682
 @DSACYL     128 0000004D FFFFFF43        55610 56438
 @DSALCF       1 0000004D FFFFFF43     R   55606 55610  55615  55620  55625  55630
 @DSALLO      96 00000000 FFFFFF43     J   55644 53805U 55263U 55781U
 @DSARLSE     16 0000004D FFFFFF43        55625 56657
 @DSARND       8 0000004D FFFFFF43        55630 56517
 @DSCDDB       4 00000000 FFFFFF45     A   55517 55316M 55465M 56985
 @DSCLOSE      4 00000000 FFFFFF45     J   55524 55307U 55315M 55315  55442U 55450M 55450  56980U
 @DSDALLO      4 00000000 FFFFFF44     J   55550 53818U 53826M 53826  55766U
 @DSDBQ        4 0000005C FFFFFF43     A   55637 56636
 @DSDDN        8 00000038 FFFFFF43     C   55571 53852  55982  56006  56811  56834M
 @DSDPARM      4 00000000 FFFFFF44     A   55543 53827M 55771
 @DSDSN       44 00000004 FFFFFF43     C   55569 53853  55836  56040
 @DSERR        2 00000048 FFFFFF43     H   55574 55863M 55864M 56781M
 @DSFLAG       1 0000004C FFFFFF43     R   55579 55583  55588  55593  55598
 @DSGDG       16 0000004C FFFFFF43        55598 56707
 @DSMEM        8 00000030 FFFFFF43     C   55570 56062  56069  56156
 @DSNEW       64 0000004C FFFFFF43        55588 55799  56292  56324
 @DSNOCAT     32 0000004C FFFFFF43        55593 56356
 @DSPTQ        4 00000054 FFFFFF43     A   55635 56576
 @DSRSN        2 0000004A FFFFFF43     H   55575 56782M
 @DSRTN        2 00000046 FFFFFF43     H   55573 55862M 56764M
 @DSSHR      128 0000004C FFFFFF43        55583 56271
 @DSSTQ        4 00000058 FFFFFF43     A   55636 56606
 @DSVOL        6 00000040 FFFFFF43     C   55572 55812  55865M 55873M 56199  56223  56389
 @DUMPPRM      8 00000000 FFFFFFAA     J   16200 19271U 19278U
 @DUMPSCB      4 00000004 FFFFFFAA     A   16193 19399  19437  19501  19560  19592  19689  19731  19888  19947  19979
                                                 20082  20124  20201  20260  20292  20395  20437  20518  20577  20609
                                                 20712  20754  20844  20903  20935  21005  21047  21138  21176
 @DUNALLO     12 00000000 FFFFFF35     J   59871 42954U 42962M 42962  48492U 48500M 48500  57278U 57286M 57286  59952U
                                                 59959U
 @DUNDDN       8 00000000 FFFFFF35     C   59861 42963M 48501M 57287M 59969
 @DUNERR       2 00000008 FFFFFF35     H   59863 60062M
 @DUNRSN       2 0000000A FFFFFF35     H   59864 60063M
 @DYNALLO      8 00000000 FFFFFF37     J   59644 50371U 50379M 50379  56746U 56754M 56754  59722U 59729U
 @DYNERR       2 00000004 FFFFFF37     H   59636 50406  56781  59814M
 @DYNRSN       2 00000006 FFFFFF37     H   59637 50407  56782  59815M
 @DYNTXTU      4 00000000 FFFFFF37     A   59634 50381M 56756M 59768
 @ESTAE       68 00000000 FFFFFFB5     J   15861 42043U 43105U 47728U 48336U 54313U 57122U
 @ESTREGS      4 00000004 FFFFFFB5     A   15854 42045M 43107M 47730M 48338M 54315M 57124M
1IOSERV   (IOSE00) (09:40) (22MAR04) Ordinary Symbol and Literal Cross Reference                                            Page  371
 @ESTRTRY      4 00000000 FFFFFFB5     A   15853 42053M 43115M 47738M 48346M 54323M 57132M
 @FIXFLG       1 00000008 FFFFFFB9     R   15592 15596
 @FWAIT        4 00000000 FFFFFFA1     J   16413 30476U 30484M 30484  43576U 43584M 43584  46978U 46986M 46986  53341U
                                                 53349M 53349
 @FWTECB       4 00000000 FFFFFFA1     A   16406 30489M 43589M 46991M 53354M
 @GSTICS       4 00000004 FFFFFF9B     A   16631 17615M 44757M 44757  45456M 46424M 47186M 53539M
 @GSTIIOT      8 00000000 FFFFFF9B     J   16638 17579U 17587M 17587  44742U 44750M 44750  45447U 45455M 45455  46415U
                                                 46423M 46423  47177U 47185M 47185  53530U 53538M 53538
 @GSTIRQI      4 00000000 FFFFFF9B     A   16630 17616M 44758M 45457M 46425M 47187M 53540M
 @HSHDBAD      4 00000004 FFFFFF61     A   35958 38779M 39304
 @HSRDWRT      8 00000000 FFFFFF61     J   35966 38770U 38778M 38778  39235U
 @HSWKADR      4 00000000 FFFFFF61     A   35957 38780M 39290
 @IORB        20 00000000 FFFFFF9F     J   16471 24109U 24117  24127U 24733U 26192U 27828U 33048U 33238U 33909U 34327U
                                                 34771U 35141U 36111U 38755U 40813U 41406U
 @IORCC        1 00000011 FFFFFF9F     X   16463 24451M 24452M
 @IORKEY       1 00000010 FFFFFF9F     X   16462 25176  25263M 25346  26832  26919M 27002  28580  28713M 28858  33244
                                                 41252
 @IOROFF       4 00000004 FFFFFF9F     A   16459 24133  24912  24967  24970  25601  25667  25680  26447  26503  26506
                                                 27405  28090  28146  28149  29249  29456  33054  33243  33923  34341
                                                 34776  34779  36427  36454  36603  36694  36775  36845  38781  41251
                                                 41555
 @IORPARM      4 00000008 FFFFFF9F     A   16460 24132
 @IORRQID      4 00000000 FFFFFF9F     A   16458 24911  25143  26446  26800  28089  28547  33242  35145  37015  38759
                                                 41250  41554
 @IORSCH       4 0000000C FFFFFF9F     A   16461 24131
 @IOUDEVT      4 00000000 FFFFFF9E     A   16489 23536
 @IOUPARM      4 00000000 FFFFFF9E     J   16506 23531U
 @JESCJDB      4 00000000 FFFFFF4D     A   46579 47906M 48102M 48199
 @JESCLS       4 00000000 FFFFFF4D     J   46586 47897U 47905M 47905  48093U 48101M 48101  48194U
 @JESDMSG      4 00000000 FFFFFF4E     A   46553 47078M 47316  48006  48865  49373
 @JESDO        8 00000000 FFFFFF4E     J   46561 47069U 47077M 47077  47311U 48001U 48860U 49368U
 @JESDWRK      4 00000004 FFFFFF4E     A   46554 47079M 48879  49387
 @JSALLO      54 00000000 FFFFFF4B     J   49704 47434U 49827U 50692  50718U 51107
 @JSCHAR       4 00000016 FFFFFF4B     C   49694 50152M 50152  50174
 @JSCLAS       1 00000010 FFFFFF4B     C   49691 49982  50002  50964M
 @JSCOPY       1 00000011 FFFFFF4B     X   49692 50062  50084  50084
 @JSDALLO      4 00000000 FFFFFF4C     J   49650 47406U 47414M 47414  49812U 50981U 50989M 50989
 @JSDDNM       8 00000000 FFFFFF4B     C   49668 47440  49929M 49929  49953  50437  50460M 50934M 50954M 50954  50955M
                                                 50955  50956M 50957M 50965
 @JSDEST       8 0000002E FFFFFF4B     C   49697 50288M 50288  50310
 @JSDPARM      4 00000000 FFFFFF4C     A   49643 47417M 49817  50990M
 @JSERR        2 0000000A FFFFFF4B     H   49670 50406M
 @JSFCB        4 0000002A FFFFFF4B     C   49696 50243M 50243  50265
 @JSFLAG       1 0000000E FFFFFF4B     R   49675 49679  49684
 @JSFLAS       4 00000026 FFFFFF4B     C   49695 50197M 50197  50219
 @JSFORM       4 00000012 FFFFFF4B     C   49693 50107M 50107  50129
 @JSHOLD      64 0000000E FFFFFF4B        49684 50332  50963M
 @JSINTR     128 0000000E FFFFFF4B        49679 50024
 @JSRSN        2 0000000C FFFFFF4B     H   49671 50407M
 @JSRTN        2 00000008 FFFFFF4B     H   49669 50389M 51024
 @LOCKCRE     17 00000000 FFFFFFA3     J   16368 18178U 18186M 18186  18209M 18209  18229M 18229  18249M 18249  18269M
                                                 18269  18296M 18296
 @LOCKFL       1 00000010 FFFFFFA3     R   16355 16359
 @LOCKID       4 00000000 FFFFFFA2     A   16380 22569M 22585M 22867M 22891M 23157M 23173M 23431M 23447M 33564M 33646M
                                                 34985M 35184M 35394M 35557M 38401M 38526M 45568M 45683M 48597M 48722M
                                                 50899M 50944M 51527M 51543M 51831M 51918M 52246M 52341M 52759M 52884M
                                                 57383M 57508M
 @LOCKNAM     16 00000000 FFFFFFA3     C   16352 18187M 18210M 18230M 18250M 18270M 18297M
 @LOCKS        4 00000000 FFFFFFA2     J   16387 22563U 22861U 23151U 23425U 33558U 33640U 34979U 35178U 35388U 38395U
1IOSERV   (IOSE00) (09:40) (22MAR04) Ordinary Symbol and Literal Cross Reference                                            Page  372
                                                 45562U 45677U 48591U 50893U 51521U 51825U 52240U 52753U 57377U
 @MEMCODE      1 00000003 FFFFFFBA     R   15484 15492  15501  15510  15520  15529  15538  15547  15556
 @MEMFREE     10 00000000 FFFFFFB6     J   15834 35604U 35612M 35612  37844U 37852M 37852  38289U 38297M 38297  38563U
                                                 38571M 38571  42844U 42852M 42852  42988U 42996M 42996  45977U 45985M
                                                 45985  46934U 46942M 46942  47645U 47653M 47653  47788U 47796M 47796
                                                 47846M 47846  48391U 48399M 48399  48428M 48428  48745U 48753M 48753
                                                 49262U 49270M 49270  50494U 50502M 50502  51052U 51060M 51060  51100M
                                                 51100  51318U 51326M 51326  51402M 51402  51432M 51432  51468M 51468
                                                 52627U 52635M 52635  52671M 52671  52708M 52708  52908U 52916M 52916
                                                 54165U 54173M 54173  54414U 54422M 54422  54472M 54472  56869U 56877M
                                                 56877  57177U 57185M 57185  57214M 57214  57545U 57553M 57553  57885U
                                                 57893M 57893  58617U 58625M 58625  58934U 58942M 58942  59572U 59580M
                                                 59580
 @MEMGET      10 00000000 FFFFFFB7     J   15759 18448U 18456M 18456  18968U 18976M 18976  19100U 19108M 19108  22395U
                                                 22403M 22403  22693U 22701M 22701  22983U 22991M 22991  23257U 23265M
                                                 23265  30152U 30160M 30160  30952U 30960M 30960  33076U 33084M 33084
                                                 37455U 37463M 37463  38067U 38075M 38075  41920U 41928M 41928  42326U
                                                 42334M 42334  43454U 43462M 43462  45120U 45128M 45128  46677U 46685M
                                                 46685  46793U 46801M 46801  46835M 46835  47480U 47488M 47488  47522M
                                                 47522  47684U 47692M 47692  48292U 48300M 48300  48973U 48981M 48981
                                                 49845U 49853M 49853  50677U 50685M 50685  50734M 50734  51162U 51170M
                                                 51170  51211M 51211  51264M 51264  52529U 52537M 52537  53178U 53186M
                                                 53186  54053U 54061M 54061  54217U 54225M 54225  54277M 54277  55050U
                                                 55058M 55058  55895U 55903M 55903  57078U 57086M 57086  57799U 57807M
                                                 57807  58508U 58516M 58516  58823U 58831M 58831  59426U 59434M 59434
 @MEMLEN       4 00000004 FFFFFFBA     A   15560 17975M 18147M 21587M 21684M 30895M 31806M
 @MEMLOC       4 00000008 FFFFFFBA     A   15561 21588M 21685M
 @MEMORY      12 00000000 FFFFFFBA     J   15568 17958U 17966M 17966  18138M 18138  21570U 21578M 21578  21677M 21677
                                                 30885U 30893M 30893  31791U 31799M 31799
 @MEMPOOL      1 00000002 FFFFFFBA     R   15425 15433  15442  15451  15460  15469  15478  21589M 21686M 30896M 31807M
 @MFFTYPE      1 00000009 FFFFFFB6     R   15786 15797  15806  15815  15824
 @MFLEN        4 00000004 FFFFFFB6     A   15780 35620M 37860M 38305M 38579M 42853M 43004M 45986M 46950M 47661M 47804M
                                                 47854M 48407M 48436M 48761M 49271M 50510M 51068M 51108M 51334M 51410M
                                                 51440M 51476M 52643M 52679M 52716M 52924M 54181M 54430M 54480M 56885M
                                                 57193M 57222M 57561M 57901M 58633M 58950M 59588M
 @MFLL         8 00000000 FFFFFFB6     D   15777 15778
 @MFLOC        4 00000000 FFFFFFB6     A   15779 35621M 37861M 38306M 38580M 42854M 43005M 45987M 46951M 47662M 47805M
                                                 47855M 48408M 48437M 48762M 49272M 50511M 51069M 51109M 51335M 51411M
                                                 51441M 51477M 52644M 52680M 52717M 52925M 54182M 54431M 54481M 56886M
                                                 57194M 57223M 57562M 57902M 58634M 58951M 59589M
 @MFTYPE       2 00000008 FFFFFFB6     H   15782 15783
 @MGFTYPE      1 00000009 FFFFFFB7     R   15705 15713  15722  15731  15740  15749
 @MGLEN        4 00000004 FFFFFFB7     A   15696 18464M 18984M 19109M 22411M 22709M 22999M 23273M 30168M 30968M 33085M
                                                 37471M 38083M 41936M 42335M 43470M 45136M 46693M 46809M 46843M 47496M
                                                 47530M 47700M 48308M 48982M 49861M 50693M 50742M 51178M 51219M 51272M
                                                 52545M 53194M 54069M 54233M 54285M 55059M 55911M 57094M 57815M 58524M
                                                 58839M 59442M
 @MGLL         8 00000000 FFFFFFB7     D   15693 15694
 @MGTYPE       2 00000008 FFFFFFB7     H   15698 15702
 @MIFLAG       1 00000000 FFFFFFB8     R   15626 15630
 @MIWFLAG      1 00000001 FFFFFFB8     R   15638 15648  15657  15666
 @MSGATT      12 00000000 FFFFFFA9     J   16227 19057U 19150U 43543U 45215U 46765U 53308U
 @MSGCECB      4 00000008 FFFFFFA9     A   16220 43551  45223  46773  53316
 @MSGCNAM      8 00000000 FFFFFFA9     C   16219 19059M 19074M 19152M 19168M 43545M 45217M 46767M 53310M
 @MSGFBUF      4 00000004 FFFFFFA5     A   16306 44792M 45489M 47219M 53573M
 @MSGFCHN      4 00000000 FFFFFFA5     A   16305 44787M 45484M 47214M 53568M
 @MSGFREE      8 00000000 FFFFFFA5     J   16313 44781U 45478U 47208U 53562U
 @MSGGBUF      8 00000000 FFFFFFA8     J   16247 24877U 26412U 28055U 33194U 40367U 40939U 41520U
 @MSGGCHN      4 00000000 FFFFFFA8     A   16239 24883M 26418M 28061M 33200M 40373M 40945M 41526M
1IOSERV   (IOSE00) (09:40) (22MAR04) Ordinary Symbol and Literal Cross Reference                                            Page  373
 @MSGGLEN      4 00000004 FFFFFFA8     A   16240 24891M 26426M 28069M 33208M 40381M 40953M 41534M
 @MSGRCHN      4 00000000 FFFFFFA6     A   16282 43627M 45301M 47023M 53386M
 @MSGRECV     20 00000000 FFFFFFA6     J   16293 43621U 45295U 47017U 53380U
 @MSGSBUF      4 00000004 FFFFFFA7     A   16260 25085M 26620M 28263M 33271M 40449M 41278M 41582M
 @MSGSCHN      4 00000000 FFFFFFA7     A   16259 25079M 26614M 28257M 33265M 40443M 41272M 41576M
 @MSGSEND     20 00000000 FFFFFFA7     J   16270 25073U 26608U 28251U 33259U 40437U 41266U 41570U
 @MSGSPRI      4 00000010 FFFFFFA7     A   16263 25092M 25092  26627M 26627  28270M 28270  33278M 33278  40456M 40456
                                                 41285M 41285  41589M 41589
 @MVIMSG       4 00000000 FFFFFF46     A   53077 53428M 53705  55451
 @MVIO         4 00000000 FFFFFF46     J   53084 53419U 53427M 53427  53700U 55428U
 @MVNQENQ    128 00000010 FFFFFF3A        59046 59188
 @MVNQF        1 00000010 FFFFFF3A     R   59042 59046  59051
 @MVNQQNM      8 00000008 FFFFFF3A     C   59039 59133
 @MVNQRNL      4 00000004 FFFFFF3A     A   59038 59132
 @MVNQRNM      4 00000000 FFFFFF3A     A   59037 59131
 @MVSENQ      17 00000000 FFFFFF3A     J   59060 59113U 59120U
 @PARILEN      4 00000004 FFFFFF8D     A   17276 18597M 18706M 18810M
 @PARILOC      4 00000000 FFFFFF8D     A   17275 18580M 18689M 18793M
 @PARMDO      16 00000000 FFFFFF8D     J   17285 18554U 18562M 18562
 @PAROLEN      4 0000000C FFFFFF8D     A   17278 18631M 18740M 18844M
 @PAROLOC      4 00000008 FFFFFF8D     A   17277 18614M 18723M 18827M
 @PRMIONM      8 00000000 FFFFFF58     C   41780 42106M 42106  42131  42132  42132  42206
 @PRMIOPN      8 00000000 FFFFFF58     J   41787 41873U
 @PSRDDB       4 00000000 FFFFFF74     A   29808 26342M 27985M 29892
 @PSRESET      4 00000000 FFFFFF74     J   29815 26333U 26341M 26341  27976U 27984M 27984  29887U
 @RA           0 00000000 FFFFFFFC     @    1035 21643  27350M 30316M 31741  31813M 33064  33116  34777M 34780M 39640
                                                 42601  42603  42611  47713M 47714M 55127  58919M
 @RAR          0 00000000 FFFFFFF0     @    1191 39657
 @RB           0 00000000 FFFFFFFB     @    1047 20788  45965  48321M 48322M 49107  49108  49236  52562M 52563M 54298M
                                                 54299M 55136M 57107M 57108M
 @RDDDATA      4 00000008 FFFFFF3D     A   58686 54110M 58918
 @RDDDSN       4 00000000 FFFFFF3D     A   58684 54107M 58879
 @RDDSCB      12 00000000 FFFFFF3D     J   58693 54097U 54105M 54105  58807U
 @RDDVOL       4 00000004 FFFFFF3D     A   58685 54109M 58881
 @RJ           0 00000000 FFFFFFFA     @    1059 31502  31510M
 @RK           0 00000000 FFFFFFF9     @    1071 36811  39641  40231  40394M 44599  49897M 49898  49903M 49904  49970M
                                                 49971  50031M 50032  50069M 50070  50114M 50115  50159M 50160  50204M
                                                 50205  50250M 50251  50295M 50296  50339M 50340  50358M 51289M 51290M
                                                 55950M 55951  55956M 55957  56023M 56024  56122M 56123  56206M 56207
                                                 56236M 56237  56246M 56247  56331M 56332  56396M 56397  56445M 56446
                                                 56479M 56480  56524M 56525  56549M 56550  56559M 56560  56589M 56590
                                                 56619M 56620  56664M 56665  56689M 56690  56714M 56715  56733M
 @RM           0 00000000 FFFFFFF6     @    1107 29250  29382  29432  29455  29608  36695  36702  36751  36774  36806
                                                 36828  43662
 @RS           0 00000000 FFFFFFFD     @    1023 18162  25602  25678  25679  25752  25761  27207  29064  29284M 29303
                                                 29305  29309  29310  30198  30205  30231M 30231  30237M 31064  31971
                                                 33116M 33924M 33945  33957M 34342M 34363  34375M 39553  39680M 41987
                                                 42637  43601M 43601  45263  45275M 45275  47003M 47003  49005  49007
                                                 49019  49028  53366M 53366  58551  58880  58882
 @RX           0 00000000 FFFFFFF8     @    1083 18162M 30039  30046  30047  30134  30188M 49578M 49877M
 @R0           0 00000000 FFFFFFFE     @     715   991U 11002U 18018U 58196U 59152U
 @R1           0 00000000 FFFFFFFD     @     728   987U 18122U 19837U 25396U 25422U 25443U 27069U 27090U 28961U 28982U
                                                 35128U 35498U 35546U 38470U 38515U 47447U 48666U 48711U 49143U 49964U
                                                 50008U 50090U 50135U 50180U 50225U 50271U 50316U 50466U 51904U 52327U
                                                 52828U 52873U 53958U 54658U 54682U 54706U 54751U 55251U 56017U 56047U
                                                 56169U 56230U 56310U 56374U 56420U 56503U 56583U 56613U 56643U 56840U
                                                 57452U 57497U 58036U 60150U
 @R10          0 00000000 FFFFFFF4     @     845   951U 18900U 19185U 21208U 21707U 21929U 22012U 22095U 22205U 22315U
                                                 22612U 22921U 23195U 23469U 23983U 24480U 25881U 27517U 29758U 30658U
1IOSERV   (IOSE00) (09:40) (22MAR04) Ordinary Symbol and Literal Cross Reference                                            Page  374
                                                 31284U 31591U 31833U 32123U 32310U 32889U 33323U 33711U 34083U 34505U
                                                 34618U 34812U 35216U 35654U 37123U 37911U 38624U 39030U 40591U 41330U
                                                 41632U 42411U 42721U 43025U 43160U 44898U 45723U 46090U 46237U 46446U
                                                 47250U 47940U 48133U 48799U 49307U 49614U 50542U 51610U 52096U 52962U
                                                 53604U 55367U 55489U 56919U 57596U 57924U 58093U 58342U 58656U 58972U
                                                 59292U 59606U 59836U 60096U 60546U
 @R11          0 00000000 FFFFFFF3     @     858   947U
 @R12          0 00000000 FFFFFFF2     @     871   943U 21203U 22607U 22916U 23978U 24475U 25876U 27512U 29753U 30653U
                                                 32118U 32305U 32884U 33318U 33706U 34078U 34500U 34613U 34807U 35211U
                                                 35649U 37118U 37906U 38619U 39025U 40586U 41325U 41627U 42406U 44893U
                                                 45718U 46085U 46232U 46441U 47245U 47935U 48128U 48794U 49302U 49609U
                                                 50537U 51605U 52091U 52957U 53599U 55362U 55484U 56914U 57591U 57919U
                                                 58088U 58337U 58651U 58967U 59287U 59601U 59831U 60091U
 @R13          0 00000000 FFFFFFF1     @     884   939U 17873U 18175U 18315U 18445U 18551U 18911U 19054U 19097U 19147U
                                                 19196U 19613U 19705U 20000U 20098U 20313U 20411U 20630U 20728U 20957U
                                                 21021U 21219U 21567U 21718U 21940U 22023U 22106U 22216U 22326U 22560U
                                                 22623U 22858U 22932U 23148U 23206U 23422U 23480U 24491U 25070U 25304U
                                                 25815U 25892U 26409U 26605U 26711U 26961U 27456U 27528U 28052U 28248U
                                                 28354U 28805U 29707U 29769U 30450U 30473U 30669U 30949U 31295U 31844U
                                                 32250M 32260  32900U 33191U 33256U 33334U 33603U 33637U 33669U 33722U
                                                 35052U 35175U 35227U 35601U 35665U 37134U 37841U 37922U 38286U 38392U
                                                 38560U 38635U 39041U 40434U 40602U 41263U 41341U 41567U 41643U 42040U
                                                 42323U 42422U 42951U 42985U 43036U 43171U 43540U 43573U 43618U 44739U
                                                 44778U 44909U 45212U 45292U 45344U 45444U 45475U 45559U 45634U 45674U
                                                 45734U 46039U 46101U 46412U 46457U 46762U 46790U 46931U 46975U 47014U
                                                 47066U 47174U 47205U 47261U 47477U 47642U 47681U 47725U 47785U 47894U
                                                 47951U 48144U 48333U 48388U 48489U 48588U 48742U 48810U 49158U 49259U
                                                 49318U 49625U 50368U 50491U 50553U 50890U 50978U 51049U 51159U 51315U
                                                 51518U 51621U 52107U 52526U 52624U 52750U 52905U 52973U 53305U 53338U
                                                 53377U 53416U 53527U 53559U 53615U 53866U 54050U 54094U 54162U 54214U
                                                 54310U 54411U 54845U 55047U 55112U 55304U 55378U 55500U 55892U 56743U
                                                 56866U 56930U 57119U 57174U 57275U 57374U 57542U 57607U 57882U 57935U
                                                 58614U 58667U 58931U 58983U 59569U 59617U 60169U
 @R14          0 00000000 FFFFFFF0     @     897   935U 18069U 25681  25735  30054  30087  30398U 30433U 30555U 30621U
                                                 33922  33944  34340  34362  40193U 40223U 42156  42682M 42683  46338U
                                                 54779  56083
 @R15          0 00000000 FFFFFFEF     @     910   931U 17511U 17541U 17762U 18044U 25736  25762  27406  29457  29529M
                                                 29530  29532  31090U 31511  32001U 36776  36842M 41747U 42310  42681
                                                 46362U 49195U 49531U 53984U 54008U 54033U 54559U 54630U 58072U 58074B
                                                 59177U 59276
 @R2           0 00000000 FFFFFFFC     @     741   983U 17782U 17822U 21193U 21599U 22200U 22310U 22460U 22480U 22602U
                                                 22758U 22778U 22911U 23048U 23068U 23190U 23322U 23342U 23464U 23973U
                                                 24429U 25488U 25578U 25834U 27136U 27268U 27343U 27381U 27442U 29001U
                                                 29125U 29199U 29362U 29620U 29692U 29959U 30370U 31274U 31575U 32010U
                                                 32067U 33893U 34311U 35425U 35521U 35644U 36484U 36864U 37546U 37886U
                                                 38158U 38604U 39010U 40418U 41305U 41605U 43856U 44126U 44176U 44556U
                                                 44648U 44692U 49589U 51563U 52081U 52786U 52848U 52947U 53293U 54827U
                                                 54942U 54963U 60260U 60535U
 @R3           0 00000000 FFFFFFFB     @     754   979U 20462U 20770U 21077U 21385U 23957U 24281U 24465U 25861U 26674U
                                                 26746U 27497U 28317U 28389U 29741U 30648U 32295U 33061U 33293U 37891U
                                                 38609U 39675U 41310U 41617U 54149U 58221U 58245U 58332U 58646U 58962U
                                                 60527U
 @R4           0 00000000 FFFFFFFA     @     767   975U 17828U 24470U 25114U 25839U 26770U 27475U 28413U 29726U 30633U
                                                 31197U 33303U 33533U 33656U 34954U 35196U 37108U 40474U 45499U 46080U
                                                 47229U 47930U 48123U 49297U 49604U 53583U 55272U 60519U
 @R5           0 00000000 FFFFFFF9     @     780   971U 17626U 18890U 24959U 24982U 25109U 25856U 26495U 26518U 26765U
                                                 27492U 28138U 28161U 28408U 29736U 30638U 33298U 33964U 34382U 34786U
                                                 35161U 37088U 38428U 38490U 38614U 41300U 41599U 45698U 46070U 47925U
                                                 48118U 48624U 48686U 48789U 49287U 49594U 51126U 55352U 57410U 57472U
1IOSERV   (IOSE00) (09:40) (22MAR04) Ordinary Symbol and Literal Cross Reference                                            Page  375
                                                 57586U 59477U
 @R6           0 00000000 FFFFFFF8     @     793   967U 24460U 24943U 24994U 25288U 25848U 25866U 26479U 26530U 26945U
                                                 27484U 27502U 28122U 28173U 28465U 28517U 28781U 29731U 32113U 32300U
                                                 32768U 33313U 33701U 34073U 34495U 34608U 34802U 35103U 35206U 35363U
                                                 35567U 37113U 37901U 38367U 38536U 39020U 40576U 41002U 41019U 41065U
                                                 41082U 41128U 41145U 41192U 41209U 41315U 44862U 45693U 46227U 46436U
                                                 48563U 48784U 50475U 51798U 52086U 52209U 52952U 54514U 55260U 55335U
                                                 56143U 56849U 57349U 57518U 57914U 59775U 59821U 60023U 60081U
 @R7           0 00000000 FFFFFFF7     @     806   963U 18895U 19180U 19327U 21198U 21308U 21702U 22535U 22597U 22833U
                                                 22906U 23123U 23185U 23397U 23459U 23684U 23968U 25871U 27507U 29748U
                                                 30008U 30643U 30781U 31279U 31383U 31586U 31702U 31828U 32796U 33308U
                                                 33696U 34068U 34490U 34797U 35201U 36396U 36476U 36572U 36856U 37103U
                                                 37896U 39015U 40571U 41320U 41622U 42401U 42716U 43015U 43155U 44883U
                                                 45713U 46075U 47240U 49292U 49599U 50532U 50865U 51593U 53594U 53788U
                                                 55344U 55357U 55479U 56909U 59530U 59554U
 @R8           0 00000000 FFFFFFF6     @     819   959U 40566U 44867U 50791U 50810U 51598U
 @R9           0 00000000 FFFFFFF5     @     832   955U 17884U 18098U 19039U 19303U 21284U 22511U 22809U 23099U 23373U
                                                 23660U 24852U 26384U 28027U 29984U 30757U 31359U 31678U 33166U 33509U
                                                 33835U 34253U 34930U 35339U 37522U 38134U 38343U 40581U 40914U 41494U
                                                 44888U 48539U 50841U 51774U 52185U 53287U 54918U 57325U 59506U 60236U
 @SCMDMSG      4 00000000 FFFFFF54     A   43266 45356M 45825
 @SCMDWRK      4 00000004 FFFFFF54     A   43267 45357M 45839
 @SCOMDB       4 00000000 FFFFFF6B     J   32599 33606U 33614M 33614  33672U 33680M 33680  35055U 35277U 45637U 45645M
                                                 45645  46042U 46050M 46050  46151U 46296U 46390U
 @SCOMDO       8 00000000 FFFFFF54     J   43274 45347U 45355M 45355  45820U
 @SCOMSDB      4 00000000 FFFFFF6B     A   32592 33615M 33681M 35057M 35282  45646M 46051M 46156  46301  46392M
 @SEG         13 00000000 FFFFFFB0     J   16038 19353U 19361M 19361  19422M 19422  19463M 19463  19518M 19518  19577M
                                                 19577  19708U 19716M 19716  19850M 19850  19905M 19905  19964M 19964
                                                 20101U 20109M 20109  20163M 20163  20218M 20218  20277M 20277  20414U
                                                 20422M 20422  20480M 20480  20535M 20535  20594M 20594  20731U 20739M
                                                 20739  20806M 20806  20861M 20861  20920M 20920  21024U 21032M 21032
                                                 21100M 21100  21161M 21161
 @SEGB       128 0000000C FFFFFFB0        15998 16013  16013
 @SEGCB        4 00000000 FFFFFFB0     A   15989 19399M 19437M 19501M 19560M 19592M 19731M 19888M 19947M 19979M 20124M
                                                 20201M 20260M 20292M 20437M 20518M 20577M 20609M 20754M 20844M 20903M
                                                 20935M 21047M 21138M 21176M
 @SEGCORE     24 00000000 FFFFFFAD     J   16133 19616U 19624M 19624  20003U 20011M 20011  20316U 20324M 20324  20633U
                                                 20641M 20641  20960U 20968M 20968
 @SEGEOB       8 0000000C FFFFFFB0        16029 21182M
 @SEGEOR      16 0000000C FFFFFFB0        16024 19405M 19443M 19598M 19737M 19985M 20130M 20298M 20443M 20615M 20760M
                                                 20941M 21053M 21144M
 @SEGLEN       4 00000008 FFFFFFB0     A   15991 19392M 19430M 19430  19494M 19553M 19585M 19585  19724M 19724  19881M
                                                 19940M 19972M 19972  20117M 20117  20194M 20253M 20285M 20285  20430M
                                                 20430  20511M 20570M 20602M 20602  20747M 20747  20837M 20896M 20928M
                                                 20928  21040M 21040  21131M 21169M 21169
 @SEGLOC       4 00000004 FFFFFFB0     A   15990 19375M 19477M 19536M 19864M 19923M 20177M 20236M 20494M 20553M 20820M
                                                 20879M 21114M
 @SEGT        64 0000000C FFFFFFB0        16003 16013  16013
 @SEGTYPE      1 0000000C FFFFFFB0     R   15994 15998  16003  16014  16019  16024  16029
 @SEGXCB       4 00000000 FFFFFFAD     A   16092 19689M 20082M 20395M 20712M 21005M
 @SEGXFAL     64 0000000D FFFFFFAD        16107 19677  19677  19678  19678  19681  19681  20066  20066  20067  20067
                                                 20070  20070  20073  20073  20379  20379  20380  20380  20383  20383
                                                 20386  20386  20696  20696  20697  20697  20700  20700  20703  20703
                                                 20997  20997  20998M
 @SEGXFID     16 0000000D FFFFFFAD        16117 19676  19676  19677  19677  19679  19679  19682M 20065  20065  20066
                                                 20066  20068  20068  20071  20071  20075M 20378  20378  20379  20379
                                                 20381  20381  20384  20384  20388M 20695  20695  20696  20696  20698
                                                 20698  20701  20701  20705M
 @SEGXFLG      1 0000000D FFFFFFAD     R   16098 16102  16107  16112  16117  16122
1IOSERV   (IOSE00) (09:40) (22MAR04) Ordinary Symbol and Literal Cross Reference                                            Page  376
 @SEGXFOF     32 0000000D FFFFFFAD        16112 19676  19676  19678  19678  19680  19680  20065  20065  20067  20067
                                                 20069  20069  20072  20072  20378  20378  20380  20380  20382  20382
                                                 20385  20385  20695  20695  20697  20697  20699  20699  20702  20702
 @SEGXFRL      8 0000000D FFFFFFAD        16122 20071  20071  20072  20072  20073  20073  20074  20074  20384  20384
                                                 20385  20385  20386  20386  20387  20387  20701  20701  20702  20702
                                                 20703  20703  20704  20704
 @SEGXF16    128 0000000D FFFFFFAD        16102 19679  19679  19680  19680  19681  19681  20068  20068  20069  20069
                                                 20070  20070  20074  20074  20381  20381  20382  20382  20383  20383
                                                 20387  20387  20698  20698  20699  20699  20700  20700  20704  20704
                                                 20997  20997
 @SEGXID       4 00000014 FFFFFFAD     C   16126 19659M 20046M 20359M 20676M
 @SEGXLOC      4 00000004 FFFFFFAD     A   16093 19636M 19653M 19664  20023M 20040M 20051  20336M 20353M 20364  20653M
                                                 20670M 20681  20979M 20989M
 @SEGXOFF      4 00000010 FFFFFFAD     A   16125 19664M 20051M 20364M 20681M
 @SIO          4 00000000 FFFFFF97     J   16794 25818U 27459U 29710U 30453U 32188U
 @SIOIOCB      4 00000000 FFFFFF97     A   16787 25820M 27461M 29712M 30455M 32193
 @SNDADDR      4 00000000 FFFFFF4A     A   50598 52059
 @SNDPPRM     12 00000000 FFFFFF4A     J   50607 50661U 51747U 52158U
 @SNDTOKN      4 00000008 FFFFFF4A     A   50600 51548M 51813  52228
 @SPAWN       28 00000000 FFFFFFB3     J   15924 18318U 18326M 18326  18349M 18349  18372M 18372  18421M 18421
 @SPNDPRI      4 00000018 FFFFFFB3     A   15917 18330M 18353M 18376M 18425M
 @SPNEP        4 00000008 FFFFFFB3     A   15913 18328M 18351M 18374M 18423M
 @SPNNAME      8 00000000 FFFFFFB3     C   15912 18327M 18350M 18373M 18422M
 @SPNPARM      4 0000000C FFFFFFB3     A   15914 18329M 18352M 18375M 18424M
 @TSDDN        8 00000000 FFFFFF40     C   58118 53878M 58282
 @TSPARM       8 00000000 FFFFFF40     J   58125 53869U 53877M 53877  58176U
 @WAR          0 00000000 FFFFFFF2     @    1167 17569
 ACBCCTYP      1 00000019 FFFFFFE7     B    2381  2390
 ACBDDNM       8 00000028 FFFFFFE7     C    2422  2428
 ACBINRTN      4 00000008 FFFFFFE7     A    2286 49188  49524
 ACBJBUF       2 00000016 FFFFFFE7     H    2372  2374   2375
 ACBOERR       2 00004A54 00000001     H   47764 47737
 ACBSIZE       1 0000004C FFFFFFE7 A   U    2543 47495  47569  47853  48435
 AHLHEAD       1 00000000 00000000 A   T   11412 11412
 AHLVCCR8      1 00000000 00000000 A   T   11903 11903
 ALELIST       4 00000038 FFFFFF60     F   37227 37763  38181  60370
 AM24CAP       2 000068D4 00000001     H   60132 21743  43178  60179
 AM24CLEN      1 00000014 00000001 A   U   60179 18146  18162  41987
 AM24RTN       4 00006726 00000001     I   59380 50576  59391U
 ASCB          1 00000000 FFFFFFC8     J   12445 18031U
 ASCBASID      2 00000024 FFFFFFC8     H   12482 18037
 ASMVT         1 00000000 00000000 A   T   11792 11792
 BLKCCHHR      4 00002454 00000001     I   31867 25926  27542  29784  31878U
 BR           10 0000000A FFFFFFFF A   #    1136 17927M 17937U 18936M 18946U 19245M 19255U 21244M 21254U 21879M 21889U
                                                 21962M 21972U 22045M 22055U 22130M 22140U 22240M 22250U 22350M 22360U
                                                 22648M 22658U 22954M 22964U 23228M 23238U 23505M 23515U 24083M 24093U
                                                 24687M 24697U 26146M 26156U 27782M 27792U 29861M 29871U 30704M 30714U
                                                 31319M 31329U 31635M 31645U 31868M 31878U 32162M 32172U 32682M 32692U
                                                 32924M 32934U 33358M 33368U 33746M 33756U 34115M 34125U 34537M 34547U
                                                 34650M 34660U 34844M 34854U 35251M 35261U 36015M 36025U 37262M 37272U
                                                 37961M 37971U 38671M 38681U 39209M 39219U 40772M 40782U 41365M 41375U
                                                 41847M 41857U 42447M 42457U 42754M 42764U 43060M 43070U 43362M 43372U
                                                 45078M 45088U 45794M 45804U 46125M 46135U 46270M 46280U 46635M 46645U
                                                 47285M 47295U 47975M 47985U 48168M 48178U 48834M 48844U 49342M 49352U
                                                 49786M 49796U 50635M 50645U 51721M 51731U 52132M 52142U 53136M 53146U
                                                 53674M 53684U 55402M 55412U 55740M 55750U 56954M 56964U 57749M 57759U
                                                 57959M 57969U 58150M 58160U 58466M 58476U 58781M 58791U 59087M 59097U
                                                 59381M 59391U 59696M 59706U 59926M 59936U 60196M 60206U
 CALCRPS       4 00006436 00000001     I   57958 57636  57969U
1IOSERV   (IOSE00) (09:40) (22MAR04) Ordinary Symbol and Literal Cross Reference                                            Page  377
 CALCTRK       4 000063A4 00000001     I   57748 57635  57759U
 CANTASK       1 00000000 0000000C     T   21766 21766
 CATLOC        4 000068B4 00000001     F   58392 58401  58401
 CATSRCH       4 000064F8 00000001     I   58465 57639  58476U
 CBAT        144 00000000 FFFFFFBC     J   15323 18109U 19314U 21295U 22522U 22820U 23110U 23384U 23671U 29995U 30768U
                                                 31370U 31689U 33520U 34941U 35350U 37533U 38145U 38354U 48550U 50852U
                                                 51785U 52196U 54929U 57336U 59517U 60247U
 CBATIOCT      4 00000054 FFFFFFBC     A   15305 18115M 19320  21301  22528  22826  23116  23390  23677  30001  30774
                                                 31376  31695  33526  34947  35356  37539  38151  38360  48556  50858
                                                 51791  52202  54935  57342  59523  60253
 CBBRANCH      1 00000000 00000000 A   T   11948 11948
 CCW           8 00000000 FFFFFF8E     J   17256 25378U 25382M 25388  25388  25450  25450  25516U 25520M 25523  25523
                                                 25529  25529  25549M 25552  25552  25560M 25566  25567  25567  25572
                                                 25572  25595U 25659  25659  27033U 27037M 27043  27043  27098  27098
                                                 27179U 27183M 27186  27186  27296U 27300M 27303  27303  27309  27309
                                                 27329M 27332  27332  27360U 27372  27373  27373  27375  27375  27398U
                                                 28889U 28893M 28899  28899  28989  28989  29044U 29048M 29051  29051
                                                 29152U 29156M 29159  29159  29165  29165  29185M 29188  29188  29298U
                                                 29302M 29378U 29507M 29565M 29579  29580  29580  29585  29585  29591M
                                                 29592  29592  29672U 29789  30329U 30336  30336
 CCWADDR       4 00000004 FFFFFF8E     A   17249 25387M 25449M 25522M 25528M 25551M 25565M 25571M 25631M 25661M 27042M
                                                 27097M 27185M 27302M 27308M 27331M 27368M 27374M 27435M 28898M 28988M
                                                 29050M 29158M 29164M 29187M 29304M 29531M 29581M 30335M 30349M
 CCWCMD        1 00000000 FFFFFF8E     X   17212 25599M 27403M
 CCWCMDCH      1 00000040 FFFFFF8E A   U   17240 24642  24644  24645  24648  24654  24655  26101  26103  26105  26106
                                                 26109  26114  26115  27729  27731  27733  27734  27737  27738  27741
                                                 27743  27745  27747  27749  29683  29829  29830
 CCWDATCH      1 00000080 FFFFFF8E A   U   17239 25656
 CCWDEFEX      1 00000063 FFFFFF8E A   U   17233 24654  26114  27737
 CCWDLBLK      1 0000008F FFFFFF8E A   U   17232 29830
 CCWFLAGS      1 00000001 FFFFFF8E     X   17237 25658M 29685M
 CCWIDA        1 00000004 FFFFFF8E A   U   17244 24651  24657
 CCWLEN        2 00000002 FFFFFF8E     H   17247 25633M 25663M
 CCWLOCRC      1 00000047 FFFFFF8E A   U   17234 24655  26115  27738
 CCWMT         1 00000080 FFFFFF8E A   U   17235 27743  27749  29563
 CCWNOP        1 00000003 FFFFFF8E A   U   17228 29831
 CCWRD         1 00000006 FFFFFF8E A   U   17214 26111  26116  26861  27741  27743
 CCWRKD        1 0000000E FFFFFF8E A   U   17215 24650  24656  25205
 CCWSEEK       1 00000007 FFFFFF8E A   U   17226 24644  26105  27733
 CCWSFM        1 0000001F FFFFFF8E A   U   17229 24645  26106  27734
 CCWSIDEQ      1 00000031 FFFFFF8E A   U   17224 24648  26109  27749
 CCWSLI        1 00000020 FFFFFF8E A   U   17241 24650  24651  24656  24657  29831
 CCWSTPP       1 0000008B FFFFFF8E A   U   17231 26101  27729  29829
 CCWSTSEC      1 00000023 FFFFFF8E A   U   17225 24642  26103  27731
 CCWTIC        1 00000008 FFFFFF8E A   U   17227 24649  26110  27750  27753
 CCWWD         1 00000005 FFFFFF8E A   U   17218 26926  27118  27745
 CCWWKD        1 0000000D FFFFFF8E A   U   17219 25270  25470
 CCWWU         1 00000085 FFFFFF8E A   U   17221 27124  27747
 CCWWUKD       1 0000008D FFFFFF8E A   U   17222 25476
 CLOSERR       2 000060D8 00000001     H   57157 57131
 CLSJERR       2 00004BA0 00000001     H   48371 48345
 CNTTRK        2 00005B8C 00000001     I   54583 54622B
 COMDB         8 00000000 FFFFFF94     J   16875 16893  16923  16952  17025  17109  22463U 22761U 23051U 23325U 24168U
                                                 24232U 24284U 24323U 24424U 24770U 26229U 27865U 32723U 35301U 36056U
                                                 36065U 40850U 41431U 43759U 45872U 47356U 48046U 48218U 48919U 49427U
                                                 50794U 51960U 52421U 53738U 57004U
 COMDBID       4 00000000 FFFFFF94     C   16867 22468M 22766M 23056M 23330M 24172  24242  24295  24776  26235  27871
                                                 32739  35313M 35313  36078  36963  40856  41437  43772  45878  47362
                                                 48052  48223  48258M 48258  48925  49433  50799M 51966  52427  53744
1IOSERV   (IOSE00) (09:40) (22MAR04) Ordinary Symbol and Literal Cross Reference                                            Page  378
                                                 57009  57044M 57044
 COMDBRTN      4 00000004 FFFFFF94     A   16868 22469M 22767M 23057M 23331M 24445
 CRBRANCH      1 00000000 00000000 A   T   11689 11689
 CRDDB         4 00000D5A 00000001     I   22349 22360U 25898
 CRESO         4 00000D18 00000001     I   22239 21798  22250U
 CRFIL         4 00000C9A 00000001     I   22044 21791  22055U
 CRHDB         4 00000DE0 00000001     I   22647 22658U 25902
 CRHSP         4 00000CD6 00000001     I   22129 21797  22140U
 CRJDB         4 00000E88 00000001     I   22953 21793  22964U
 CRPAG         4 00000C22 00000001     I   21878 21789  21889U
 CRSDB         4 00000F0E 00000001     I   23227 21792  23238U
 CRSWP         4 00000C5E 00000001     I   21961 21790  21972U
 CSRTABLE      1 00000000 00000000 A   T   11709 11709
 CSVARMGR      1 00000000 00000000 A   T   11757 11757
 CSVEXIT       1 00000000 00000000 A   T   11630 11630
 CSVLLCB       1 00000000 00000000 A   T   11230 11230
 CSVLLTRM      1 00000000 00000000 A   T   11231 11231
 CSVMEM        1 00000000 00000000 A   T   11458 11458
 CSVVFGET      1 00000000 00000000 A   T   12022 12022
 CSVVFIND      1 00000000 00000000 A   T   12020 12020
 CTLANSP       4 0000000C FFFFFF3E     X   58426 58559M
 CTLAREA       8 00000040 FFFFFF3E     D   58429 58434  58558
 CTLCAML      16 00000000 FFFFFF3E     X   58423 58424  58425  58426  58562
 CTLDSN       44 00000010 FFFFFF3E     C   58428 58551M 58556
 CTLDSNP       4 00000004 FFFFFF3E     X   58424 58557M
 CTLPARM     329 00000000 FFFFFF3E     J   58441 58523  58546U 58555M 58632
 CTLVOLCT      2 00000040 FFFFFF3E     H   58430 58589
 CTLVOLID      6 00000046 FFFFFF3E     C   58432 58598
 CTRKPARM     12 00000000 FFFFFF42     J   57698 57814  57837U 57900
 CVT           1 00000000 FFFFFFCC     J   11200 17498U 17743U 31077U 53971U 58059U
 CVTBRET       2 00000052 FFFFFFCC     H   11255 11768  11847
 CVTIXAVL      4 0000007C FFFFFFCC     V   11294 17504  32256
 CVTMAP        1 00000000 FFFFFFCC     U   11205 32256
 CVTPTR        1 00000010 FFFFFFCD A   U   11196 17488  17733  31067  32255  53961  58049
 CVTRCZRT      2 000004A4 FFFFFFCC     I   12077 31083
 CVTVSTGX      1 00000000 FFFFFFCB     J   12220 12084
 CVTXTNT1      1 00000000 FFFFFFCA     J   12259 11427
 CVTXTNT2      1 00000000 FFFFFFC9     J   12267 11497
 CVTZDTAB      4 00000040 FFFFFFCC     A   11245 53977
 CVT0PT02      4 00000370 FFFFFFCC     V   11893 17754
 CVT0SCR1      4 000000E8 FFFFFFCC     V   11392 58065
 CVT4MS1       1 00000010 FFFFFFCC A   U   11280 11288
 CVT6DAT       1 00000002 FFFFFFCC A   U   11284 11288
 DALBLKLN      1 00000009 FFFFFFE8 A   U    1843 55688
 DALCHARS      1 00000065 FFFFFFE8 A   U    1935 49750
 DALCLOSE      1 0000001C FFFFFFE8 A   U    1862 49724  55664
 DALCOPYS      1 0000001D FFFFFFE8 A   U    1863 49745
 DALCYL        1 00000008 FFFFFFE8 A   U    1842 55686
 DALDCBDS      1 0000002C FFFFFFE8 A   U    1878 55707
 DALDDNAM      1 00000001 FFFFFFE8 A   U    1835 49721  55661
 DALDIR        1 0000000C FFFFFFE8 A   U    1846 55704
 DALDSNAM      1 00000002 FFFFFFE8 A   U    1836 55666
 DALFCBIM      1 00000025 FFFFFFE8 A   U    1871 49742
 DALFFORM      1 00000067 FFFFFFE8 A   U    1937 49736
 DALMEMBR      1 00000003 FFFFFFE8 A   U    1837 55669
 DALNDISP      1 00000005 FFFFFFE8 A   U    1839 55681
 DALPRIME      1 0000000A FFFFFFE8 A   U    1844 55698
 DALRLSE       1 0000000D FFFFFFE8 A   U    1847 55691
 DALROUND      1 0000000F FFFFFFE8 A   U    1849 55693
1IOSERV   (IOSE00) (09:40) (22MAR04) Ordinary Symbol and Literal Cross Reference                                            Page  379
 DALRTDDN      1 00000055 FFFFFFE8 A   U    1919 50581  57646
 DALSECND      1 0000000B FFFFFFE8 A   U    1845 55701
 DALSFMNO      1 0000001A FFFFFFE8 A   U    1860 49733
 DALSHOLD      1 00000059 FFFFFFE8 A   U    1923 49748
 DALSPFRM      1 0000000E FFFFFFE8 A   U    1848 55695
 DALSPGNM      1 00000019 FFFFFFE8 A   U    1859 49729
 DALSTATS      1 00000004 FFFFFFE8 A   U    1838 55672
 DALSUSER      1 00000058 FFFFFFE8 A   U    1922 49739
 DALSYSOU      1 00000018 FFFFFFE8 A   U    1858 49726
 DALTRK        1 00000007 FFFFFFE8 A   U    1841 55684
 DALUNIT       1 00000015 FFFFFFE8 A   U    1855 55678
 DALVLSER      1 00000010 FFFFFFE8 A   U    1850 55675
 DARBPTR       4 00000000 FFFFFF36     A   59662 59736M 59743M 59780
 DAREQB        4 00000004 FFFFFF36     A   59663 59735
 DCBBIT0       1 00000080 FFFFFFE5 A   U    3010  3135   3143   3157   3179   3221   3223   3224   3226   3246   3249
                                                  3271   3275   3290   3327   3383   3454   3490   3494   3513   3625
 DCBBIT1       1 00000040 FFFFFFE5 A   U    3011  3136   3144   3159   3188   3189   3198   3204   3221   3223   3225
                                                  3226   3251   3271   3273   3275   3293   3294   3295   3330   3331
                                                  3383   3408   3456   3496   3498   3516   3561   3626
 DCBBIT2       1 00000020 FFFFFFE5 A   U    3012  3137   3145   3160   3161   3162   3188   3189   3193   3199   3204
                                                  3221   3222   3227   3253   3276   3277   3298   3299   3300   3334
                                                  3335   3384   3409   3461   3499   3521   3564   3567   3627
 DCBBIT3       1 00000010 FFFFFFE5 A   U    3013  3138   3160   3162   3163   3188   3201   3228   3256   3276   3279
                                                  3302   3303   3304   3338   3339   3384   3410   3463   3465   3467
                                                  3501   3522   3564   3568
 DCBBIT4       1 00000008 FFFFFFE5 A   U    3014  3146   3202   3203   3204   3229   3257   3281   3286   3287   3307
                                                  3308   3342   3343   3345   3346   3385   3411   3470   3503   3523
                                                  3564   3569
 DCBBIT5       1 00000004 FFFFFFE5 A   U    3015  3147   3209   3232   3233   3259   3281   3283   3284   3287   3311
                                                  3313   3314   3315   3349   3350   3351   3352   3385   3412   3472
                                                  3475   3506   3525   3559
 DCBBIT6       1 00000002 FFFFFFE5 A   U    3016  3139   3211   3212   3215   3232   3234   3260   3318   3319   3320
                                                  3321   3355   3356   3357   3358   3386   3413   3478   3508   3527
                                                  3570
 DCBBIT7       1 00000001 FFFFFFE5 A   U    3017  3140   3211   3213   3215   3236   3265   3323   3324   3361   3362
                                                  3364   3365   3414   3481   3509   3510   3528   3572   3628
 DCBBUFCB      4 00000014 FFFFFFE5     A    3124 42910M
 DCBDCBE       4 00000000 FFFFFFE5     A    3025  3029  51248M
 DCBDDNAM      8 00000028 FFFFFFE5     C    3243 51247M 54261M
 DCBDEBA       3 0000002D FFFFFFE5     R    3388 54530
 DCBEODA       3 00000021 FFFFFFE5     R    3217 41964M
 DCBEXLSA      3 00000025 FFFFFFE5     R    3238 41967M
 DCBFDAD       8 00000005 FFFFFFE5     C    3041  3043
 DCBLNGQS      1 00000060 FFFFFFE5 A   U    3645 41805  41954
 DCBLNGXE      1 00000034 FFFFFFE5 A   U    3369 54232  54260  54479  57221
 DCBLRECL      2 00000052 FFFFFFE5     H    3594 42309  42585
 DCBOFIOF      1 00000001 FFFFFFE5 A   U    3265  3267
 DCBOFLGS      1 00000030 FFFFFFE5     B    3245 42013  42240  42512  42883  54347
 DCBOFOPN      1 00000010 FFFFFFE5 A   U    3256 42011  42238  42510  42881  54345
 DCBOFUEX      1 00000002 FFFFFFE5 A   U    3260  3264
 DCBRECF       1 00000080 FFFFFFE5 A   U    3224 42576
 DCBRECFM      1 00000024 FFFFFFE5     B    3220 42368  42578
 DCBRECU       1 000000C0 FFFFFFE5 A   U    3226 42366
 DCE           1 00000000 FFFFFFD6     J    7079 54693U
 DCECACHE      1 00000010 FFFFFFD6 A   U    7124 28910
 DCEDEFLR      1 000000C0 FFFFFFD6 A   U    7117 25360  27015  28617  28728  28871  29324  29498
 DCEFEAT1      1 00000010 FFFFFFD6     B    7112 54699
 DCEPAGES      1 00000020 FFFFFFD6 A   U    7123 27162  29027  29917  54720
 DDB         168 00000000 FFFFFF91     J   17005 17646U 22410  22440U 22450M 22450  22483U 23620U 23950  23950  24232U
1IOSERV   (IOSE00) (09:40) (22MAR04) Ordinary Symbol and Literal Cross Reference                                            Page  380
                                                 24761U 24770U 26220U 26229U 26749U 27856U 27865U 28392U 29902U 31909U
                                                 41422U 41431U 53729U 53738U 56995U 57004U 57413U 57447U 57475U 57492U
                                                 57530M 57530  57560  57647
 DDBALCU       1 0000009A FFFFFF91     X   16992 54142M 55169  55196
 DDBALQU       4 0000009C FFFFFF91     A   16994 54143M
 DDBBLKCT      4 00000030 FFFFFF91     A   16967 31925  54999M
 DDBBLKSZ      2 00000098 FFFFFF91     H   16988 25397  27045  28937  54137M 54858  55125  55156
 DDBBT         4 00000034 FFFFFF91     A   16968 31955  54867M 55035  55097
 DDBCHAIN      4 00000008 FFFFFF91     A   16953 22574M 57428  57437  57457  57481M 57647
 DDBCUCBS      4 0000007C FFFFFF91     A   16977 27254  29111  30303  30375  30532  54778M
 DDBCUNXT      4 00000088 FFFFFF91     A   16978 27200  27234M 29057  29091M
 DDBDCB        4 0000000C FFFFFF91     A   16954 54246M 54459M 54459  57048
 DDBDDNAM      8 00000038 FFFFFF91     C   16969 53852M 53878  54261  57257M 57257  57287
 DDBDEB        4 00000010 FFFFFF91     A   16955 25399  27046  28938  31985  54531M
 DDBDSN       44 00000040 FFFFFF91     C   16970 53853M 54106
 DDBDSORG      1 00000093 FFFFFF91     X   16984 54134M 55153
 DDBFEAT       1 00000092 FFFFFF91     X   16980 25362  27017  27164  28619  28730  28873  28912  29029  29326  29500
                                                 29919  54699M 54722
 DDBHDB        4 000000A4 FFFFFF91     A   16997 23873M 24257  26658  28301  54889
 DDBIOTIM      8 00000028 FFFFFF91     D   16963 17648  17678M
 DDBKEYL       1 00000095 FFFFFF91     X   16986 25395  54138M 54859  55126  55157
 DDBLRECL      2 00000096 FFFFFF91     H   16987 54136M 55155
 DDBRDCT       4 0000001C FFFFFF91     A   16961 25203  25204M 26859  26860M 28607  28608M
 DDBRECFM      1 00000094 FFFFFF91     X   16985 54135M 55154
 DDBRPS        4 00000014 FFFFFF91     A   16956 31956  55078M
 DDBTRC        4 00000074 FFFFFF91     A   16975 32077  32090  32096  54035M 55158
 DDBTRKS       2 000000A0 FFFFFF91     H   16995 54623M 54872
 DDBUCB        4 00000078 FFFFFF91     A   16976 25347  25368  27023  27337  28879  29193  29936  53917M 54598  54635
                                                 54728  54857  55005  55124
 DDBVOL        6 0000008C FFFFFF91     C   16979 53932M 54108
 DDBWRCT       4 00000020 FFFFFF91     A   16962 25268  25269M 26924  26925M 28718  28719M
 DDBXTNT       1 0000009B FFFFFF91     X   16993 28433  54551M 55225
 DEBACSMD      1 00000000 FFFFFFE2     J    4245  4283   4300   4313   4337   4356   4370   4380   4420
 DEBBASIC      1 00000024 FFFFFFE4     U    3897 25409U 27056U 28948U 31993U 54541U
 DEBBASND      1 00000044 FFFFFFE4     U    4051  4176  25415  27062  28954  32002  54552
 DEBBINUM      2 00000004 FFFFFFE3     C    4219 32061
 DEBDASD       1 00000000 FFFFFFE3     J    4213 25433U 27080U 28972U 32013U 54570U
 DEBDASDE      1 00000010 FFFFFFE3     U    4239 32044  54621
 DEBDEVED      4 00000048 FFFFFFE4     A    4098  4130
 DEBEOEA       4 00000000 FFFFFFE4     A    3804  3807
 DEBMCOMP      1 00000008 FFFFFFE4 A   U    4083  4084
 DEBMTRF0      1 00000080 FFFFFFE4 A   U    4079  4089   4092   4093
 DEBMTRF1      1 00000040 FFFFFFE4 A   U    4080  4089   4090   4092   4094
 DEBM3424      1 00000002 FFFFFFE4 A   U    4085  4089   4090
 DEBM9348      1 00000002 FFFFFFE4 A   U    4086  4092   4093   4094
 DEBNMEXT      1 00000034 FFFFFFE4     B    4020 32000  54550
 DEBNMTRK      2 0000000E FFFFFFE3     C    4234 32024  54584
 DEBSTRCC      2 00000006 FFFFFFE3     C    4220 25437  27084  28976
 DEBUCBA       3 00000001 FFFFFFE3     R    4217 54598
 DEBXEND       1 00000054 FFFFFFE0     U    4650  4651
 DEBXTN        1 00000000 FFFFFFE0     J    4460  4651
 DEB2XEND      1 000000B8 FFFFFFDF     U    4706  4707
 DEB2XTN       1 00000000 FFFFFFDF     J    4658  4707
 DFAIDTAB      1 00000000 00000000 A   T   12097 12097
 DISPLOCK      1 00000000 00000000 A   T   10103 10103
 DOIO          4 000010A0 00000001     I   24082 24077  24093U
 DONEIO        4 00001162 00000001     I   24450 24403B
 DSALLO        4 00005D7C 00000001     I   55739 55734  55750U 57627
 DSALWORK    282 00006278 00000001     U   55710 55910  55927  55928  55941U 56182U 56884
1IOSERV   (IOSE00) (09:40) (22MAR04) Ordinary Symbol and Literal Cross Reference                                            Page  381
 DSCLOSE       4 00006054 00000001     I   56953 56964U 57638
 DSPEND        1 00003186 00000001     U   37829 37935
 DSPLIST       8 00000000 FFFFFF60 C   U   37163 37588  37678  38228  60435
 DSPPARM       8 00000000 FFFFFF60     D   37164 37163  37212  37214  37216  37219
 DSPPARM_PL_END
               1 00000038 FFFFFF60     U   37211 37218
 DSTUABLN      2 0000634A 00000001     R   55688 56478
 DSTUACYL      2 00006346 00000001     R   55686 56444
 DSTUADBL      2 00006374 00000001     R   55704 56618
 DSTUAPRM      2 00006362 00000001     R   55698 56558
 DSTUASEC      2 0000636B 00000001     R   55701 56588
 DSTUATRK      2 00006342 00000001     R   55684 56548
 DSTUCNTG      2 0000635B 00000001     R   55695 56688
 DSTUDCBD      2 0000637D 00000001     R   55707 56713
 DSTUDDN       2 000062C8 00000001     R   55661 55955  56820
 DSTUDISP      2 0000633B 00000001     R   55681 56330
 DSTUDSN       2 000062DA 00000001     R   55666 56022
 DSTUFREE      2 000062D6 00000001     R   55664 55949
 DSTULIST      4 00006278 00000001     A   55659 55710  55710  55945  56755
 DSTUMEM       2 0000630C 00000001     R   55669 56121
 DSTURLSE      2 00006353 00000001     R   55691 56663
 DSTURND       2 00006357 00000001     R   55693 56523
 DSTUSTAT      2 0000631A 00000001     R   55672 56245
 DSTUUNIT      2 0000632D 00000001     R   55678 56235  56395
 DSTUVOL       2 00006321 00000001     R   55675 56205
 DS1AVRND      1 00000041 FFFFFFD1 A   U    8069 55194
 DS1BLKL       2 00000056 FFFFFFD1     X    8027 54137
 DS1CYL        1 000000C0 FFFFFFD1 A   U    8066 55167
 DS1DSORG      2 00000052 FFFFFFD1     X    7944 54134
 DS1END        1 0000008C FFFFFFD1     U    8112 54068  54180  58749
 DS1FMTID      1 0000002C FFFFFFD1     C    7902 54127U
 DS1IND01      1 00000001 FFFFFFD1 A   U    8061  8062
 DS1IND02      1 00000002 FFFFFFD1 A   U    8057  8060
 DS1IND04      1 00000004 FFFFFFD1 A   U    8050  8056
 DS1IND10      1 00000010 FFFFFFD1 A   U    8045  8048
 DS1IND40      1 00000040 FFFFFFD1 A   U    8041  8042
 DS1KEYL       1 0000005A FFFFFFD1     X    8036 54138
 DS1LRECL      2 00000058 FFFFFFD1     X    8029 54136
 DS1RECFM      1 00000054 FFFFFFD1     X    7971 54135
 DS1SCAL1      1 0000005E FFFFFFD1     X    8064 54142
 DS1SCAL3      3 0000005F FFFFFFD1     X    8078 54143
 DUMPADDR      4 00000000 FFFFFF8A     A   19212 19506M 19531  19548  19893M 19918  19935  20206M 20231  20248  20523M
                                                 20548  20565  20849M 20874  20891
 DUMPWORK      4 00000000 FFFFFF8A     J   19219 19278U
 DUNALLO       4 00006808 00000001     I   59925 43183  50572  57641  59936U
 DUNALLOC     50 00000000 FFFFFF34     J   59901 59959U
 DUNDDNAM      1 00000001 FFFFFFE8 A   U    2062 60113
 DUNUNALC      1 00000007 FFFFFFE8 A   U    2066 60111
 DURBPTR       4 00000000 FFFFFF34     A   59889 59980M 59987M 60029
 DUREQB        4 00000004 FFFFFF34     A   59890 59979
 DUTXPTL       4 00000018 FFFFFF34     A   59891 59967M 59971M 59978M 60015
 DUTXTPM       8 0000002A FFFFFF34     C   59894 59969M
 DUTXTU        1 00000020 FFFFFF34     X   59892 59965M 59966
 DUTXTUD       1 00000024 FFFFFF34     X   59893 59968M 59970
 DVCMOD1       2 00000014 FFFFFFD4     R    7423  7428   7428
 DVCOVHD       2 00000006 FFFFFFD4     H    7374  7424
 DVCT          1 00000000 FFFFFFD4     J    7367  7402  54020U
 DVCTI         1 00000000 FFFFFFD5     J    7356 53995U
 DVCTIOFF      1 00000000 FFFFFFD5     R    7364 54001
1IOSERV   (IOSE00) (09:40) (22MAR04) Ordinary Symbol and Literal Cross Reference                                            Page  382
 DVCTOL        2 0000000A FFFFFFD4     H    7392  7426
 DVCTRK        2 00000002 FFFFFFD4     H    7371 54026
 DVCTYPMK      1 0000000F FFFFFFD5 A   U    7360 57629
 DYNALLO       4 000067A2 00000001     I   59695 50578  57640  59706U
 DYNALLOC     24 00000000 FFFFFF36     J   59670 59729U
 EDEILC        2 00000008 FFFFFFB4     H   15881 15884  15884
 ENQ           1 00000010 FFFFFF3B     U   59004 59130M 59198M 59199  59236M 59237
 ENQWORK      28 00000000 FFFFFF3B     J   59018 59120U 59129M 59129
 EPAR         15 0000000F FFFFFFFF A   #    1196 17533M 17534B 17619M 17620B 17754M 17755B 17927  17985M 17986B 18157M
                                                 18158B 18190M 18191B 18213M 18214B 18233M 18234B 18253M 18254B 18273M
                                                 18274B 18300M 18301B 18333M 18334B 18356M 18357B 18379M 18380B 18428M
                                                 18429B 18477M 18478B 18640M 18641B 18749M 18750B 18853M 18854B 18936
                                                 18997M 18998B 19062M 19063B 19077M 19078B 19131M 19132B 19155M 19156B
                                                 19171M 19172B 19245  19408M 19409B 19446M 19447B 19504M 19505B 19563M
                                                 19564B 19601M 19602B 19692M 19693B 19740M 19741B 19891M 19892B 19950M
                                                 19951B 19988M 19989B 20085M 20086B 20133M 20134B 20204M 20205B 20263M
                                                 20264B 20301M 20302B 20398M 20399B 20446M 20447B 20521M 20522B 20580M
                                                 20581B 20618M 20619B 20715M 20716B 20763M 20764B 20847M 20848B 20906M
                                                 20907B 20944M 20945B 21008M 21009B 21056M 21057B 21147M 21148B 21185M
                                                 21186B 21244  21407M 21408B 21420M 21421B 21433M 21434B 21448M 21449B
                                                 21472M 21473B 21592M 21593B 21689M 21690B 21879  21921M 21922B 21962
                                                 22004M 22005B 22045  22087M 22088B 22130  22172M 22173B 22240  22282M
                                                 22283B 22350  22428M 22429B 22572M 22573B 22588M 22589B 22648  22726M
                                                 22727B 22870M 22871B 22894M 22895B 22954  23016M 23017B 23160M 23161B
                                                 23176M 23177B 23228  23290M 23291B 23434M 23435B 23450M 23451B 23505
                                                 23608M 23609B 23871M 23872B 24083  24445M 24446B 24687  24894M 24895B
                                                 25095M 25096B 25126M 25127B 25323M 25324B 25826M 25827B 26146  26350M
                                                 26351B 26429M 26430B 26630M 26631B 26731M 26732B 26783M 26784B 26980M
                                                 26981B 27467M 27468B 27782  27993M 27994B 28072M 28073B 28273M 28274B
                                                 28374M 28375B 28530M 28531B 28828M 28829B 28836M 28837B 29281M 29282B
                                                 29526M 29527B 29718M 29719B 29861  30185M 30186B 30263M 30264B 30461M
                                                 30462B 30492M 30493B 30704  30730M 30731B 30899M 30900B 30985M 30986B
                                                 31319  31635  31810M 31811B 31868  32162  32682  32875M 32876B 32924
                                                 33102M 33103B 33211M 33212B 33281M 33282B 33358  33567M 33568B 33621M
                                                 33622B 33649M 33650B 33687M 33688B 33746  34115  34537  34650  34844
                                                 34988M 34989B 35063M 35064B 35187M 35188B 35251  35397M 35398B 35560M
                                                 35561B 35634M 35635B 36015  36322M 36323B 36927M 36928B 37262  37484M
                                                 37485B 37615M 37615  37705M 37705  37782M 37782  37871M 37872B 37961
                                                 38096M 38097B 38198M 38198  38250M 38250  38316M 38317B 38404M 38405B
                                                 38529M 38530B 38593M 38594B 38671  39002M 39003B 39209  39819M 40093M
                                                 40384M 40385B 40459M 40460B 40772  40956M 40957B 41288M 41289B 41365
                                                 41537M 41538B 41592M 41593B 41847  41946M 41947B 42056M 42057B 42228M
                                                 42229B 42348M 42349B 42381M 42382B 42447  42562M 42563B 42704M 42705B
                                                 42754  42864M 42865B 42897M 42898B 42969M 42970B 43008M 43009B 43060
                                                 43118M 43119B 43128M 43129B 43362  43483M 43484B 43548M 43549B 43592M
                                                 43593B 43630M 43631B 43891M 44365M 44761M 44762B 44795M 44796B 45078
                                                 45149M 45150B 45220M 45221B 45304M 45305B 45429M 45430B 45460M 45461B
                                                 45492M 45493B 45571M 45572B 45652M 45653B 45686M 45687B 45794  46000M
                                                 46001B 46057M 46058B 46125  46270  46398M 46399B 46428M 46429B 46635
                                                 46706M 46707B 46770M 46771B 46819M 46820B 46853M 46854B 46954M 46955B
                                                 46994M 46995B 47026M 47027B 47158M 47159B 47190M 47191B 47222M 47223B
                                                 47285  47423M 47424B 47506M 47507B 47540M 47541B 47665M 47666B 47710M
                                                 47711B 47741M 47742B 47751M 47752B 47808M 47809B 47858M 47859B 47912M
                                                 47913B 47975  48110M 48111B 48168  48318M 48319B 48349M 48350B 48358M
                                                 48359B 48411M 48412B 48440M 48441B 48507M 48508B 48600M 48601B 48725M
                                                 48726B 48775M 48776B 48834  48992M 48993B 49202M 49203B 49275M 49276B
                                                 49342  49538M 49539B 49786  49874M 49875B 50387M 50388B 50521M 50522B
                                                 50635  50706M 50707B 50759M 50760B 50902M 50903B 50947M 50948B 50993M
                                                 50994B 51079M 51080B 51119M 51120B 51191M 51192B 51229M 51230B 51285M
1IOSERV   (IOSE00) (09:40) (22MAR04) Ordinary Symbol and Literal Cross Reference                                            Page  383
                                                 51286B 51345M 51346B 51414M 51415B 51451M 51452B 51487M 51488B 51530M
                                                 51531B 51546M 51547B 51721  51834M 51835B 51921M 51922B 52132  52249M
                                                 52250B 52344M 52345B 52558M 52559B 52654M 52655B 52683M 52684B 52727M
                                                 52728B 52762M 52763B 52887M 52888B 52938M 52939B 53136  53207M 53208B
                                                 53313M 53314B 53357M 53358B 53389M 53390B 53513M 53514B 53543M 53544B
                                                 53576M 53577B 53674  53833M 53834B 53884M 53885B 54082M 54083B 54116M
                                                 54117B 54192M 54193B 54243M 54244B 54295M 54296B 54326M 54327B 54335M
                                                 54336B 54434M 54435B 54484M 54485B 54865M 54866B 55076M 55077B 55134M
                                                 55135B 55322M 55323B 55402  55471M 55472B 55740  55843M 55844B 55924M
                                                 55925B 56762M 56763B 56896M 56897B 56954  57104M 57105B 57135M 57136B
                                                 57144M 57145B 57197M 57198B 57226M 57227B 57293M 57294B 57386M 57387B
                                                 57511M 57512B 57575M 57576B 57749  57825M 57826B 57905M 57906B 57959
                                                 58150  58466  58534M 58535B 58637M 58638B 58781  58849M 58850B 58954M
                                                 58955B 59087  59381  59452M 59453B 59547M 59556B 59592M 59593B 59696
                                                 59926  60196  60387M 60387  60457M 60457
 ESTAEOFF      1 00000000 00000015     T   43180 43180  50570  57632
 ESTAEON       1 00000000 00000014     T   43179 43179  50569  57631
 FCCWA         8 00001590 00000001     W   24648 24652  24652
 FCCWEXT      32 000015B0 00000001     X   24658 25382  25382
 FCCWPE        8 000015B0 00000001     W   24654 24658  24658
 FCCWPFX      16 00001580 00000001     X   24646 25520  25520
 FCCWS        32 00001590 00000001     X   24652 25560  25560
 FCCWSEC       8 00001578 00000001     W   24642 25549
 FCCWSK        8 00001580 00000001     W   24644 24646  24646
 FILECMD       1 00000000 FFFFFF81     X   24621 25205M 25270M 25470  25476M 25599
 FILEIO        4 00001188 00000001     I   24686 24697U 25900
 FILEWORK      1 00000000 FFFFFF81     J   24628 24720U
 FLC           1 00000000 FFFFFFCD     U    9791 17448  17448  17459  17846  32239  32274
 FLCEAMDID
               1 000000A3 FFFFFFCD     C   10903 10904  10906
 FLCEFACILITIESLIST
               4 000000C8 FFFFFFCD     C   10933 10934
 FLCEFACILITIESLISTBYTE0
               1 000000C8 FFFFFFCD     B   10935 10936  10940
 FLCEICOD      2 00000086 FFFFFFCD     H    9843  9844
 FLCENPSW      4 00000058 FFFFFFCD     X    9819  9821
 FLCEOPSW      8 00000018 FFFFFFCD     X    9802  9803
 FLCEPDATA
               4 0000008C FFFFFFCD     C   10854 10855  10871
 FLCEPDATABYTE0
               2 0000008C FFFFFFCD     C   10856 10857  10862
 FLCEPER       8 00000098 FFFFFFCD     C   10896 10897
 FLCEPERATMID
               1 00000097 FFFFFFCD     B   10886 10887
 FLCEPERCODE
               2 00000096 FFFFFFCD     C   10877 10878  10895
 FLCEPERCODE0
               1 00000096 FFFFFFCD     B   10879 10880  10885
 FLCEPICODE
               2 0000008E FFFFFFCD     C   10863 10864
 FLCEPICODE1
               1 0000008F FFFFFFCD     G   10866 10867
 FLCEPIINFORMATION
               4 00000090 FFFFFFCD     C   10872 10873
 FLCEPILC      1 0000008D FFFFFFCD     G   10859 10860
 FLCESAME      8 00000000 FFFFFFCD     D   10836 10965
 FLCESDATA
               4 00000088 FFFFFFCD     C   10844 10845
 FLCESDATABYTE0
1IOSERV   (IOSE00) (09:40) (22MAR04) Ordinary Symbol and Literal Cross Reference                                            Page  384
               2 00000088 FFFFFFCD     C   10846 10847  10852
 FLCESILC      1 00000089 FFFFFFCD     G   10849 10850
 FLCETEA       8 000000A8 FFFFFFCD     C   10910 10911
 FLCETEASNINFO
               8 000000A8 FFFFFFCD     C   10919 10920
 FLCETEA7      1 000000AF FFFFFFCD     B   10913 10914
 FLCETEID      8 000000A8 FFFFFFCD     C   10908 10909  10918  10923
 FLCETEPCINFO
               8 000000A8 FFFFFFCD     C   10924 10925
 FLCINPSW      4 00000078 FFFFFFCD     X    9833  9835
 FLCIOPSW      8 00000038 FFFFFFCD     X    9811  9812
 FLCIPPSW      8 00000000 FFFFFFCD     C    9792  9795
 FLCMNPSW      4 00000070 FFFFFFCD     X    9829  9832
 FLCMOPSW      8 00000030 FFFFFFCD     X    9809  9810
 FLCPICOD      2 0000008E FFFFFFCD     H    9867  9868
 FLCPIILC      1 0000008D FFFFFFCD     G    9860  9866
 FLCPNPSW      4 00000068 FFFFFFCD     X    9825  9828
 FLCPOPSW      8 00000028 FFFFFFCD     X    9807  9808
 FLCSNPSW      4 00000060 FFFFFFCD     X    9822  9824
 FLCSOPSW      8 00000020 FFFFFFCD     X    9804  9806
 FLCSVCN       2 0000008A FFFFFFCD     H    9854  9857
 FLCSVILC      1 00000089 FFFFFFCD     G    9848  9853
 FMBRANCH      1 00000000 00000000 A   T   11873 11873
 FUNCMAX       1 00000008 00000001 A   U   53107 57623
 FUNCTAB       4 00006238 00000001     A   53099 53107  53513
 FWAIT         1 00000000 00000012     T   30677 30677  44919  50562  57621
 GENACB        1 00000030 00000001 A   U   47562 47529  47660
 GENRPL        1 00000024 00000001 A   U   46890 46842  46949
 GETIOCB       4 000021A2 00000001     I   30703 25923  27541  29783  30675  30714U
 GETSWPA       4 000023DE 00000001     I   31634 29786  31645U
 GLBRANCH      1 00000000 00000000 A   T   11779 11779
 GMBRANCH      1 00000000 00000000 A   T   11875 11875
 GSTIIOT       1 00000000 00000002     T   17858 17858  44925  45743  46466  50565  57624
 GVT           1 00000000 00000000 A   T   11641 11641
 HDB         100 00000000 FFFFFF90     J   17088 22184U 22294U 22708  22738U 22748M 22748  22781U 23884U 24323U 26677U
                                                 26700  26700  28320U 28343  28343  36065U 36328  36328  37308U 37823
                                                 37823  38007U 38019  38019  38431U 38465U 38493U 38510U 38548M 38548
                                                 38578  38644  38717U 39314U 43750U 43759U 60295U 60350  60350
 HDBALET       4 00000018 FFFFFF90     C   17029 37772  38184  39708  43930  44074  44309  44459  60361M 60361  60373
 HDBCHAIN      4 00000008 FFFFFF90     A   17026 22880M 38446  38455  38475  38499M 38644  60490
 HDBDDB        4 00000060 FFFFFF90     C   17080 23945M 24336
 HDBFLG        1 00000028 FFFFFF90     R   17034 17038  17043  17048  17053  17058  22193M 22303M 23911M 23939M 26690
                                                 28333  36290  36344  36506  36997  37009  37335  37570  37660  37814
                                                 37878M 38031  39768  39829  40085  40312  43907  44050
 HDBHPSIZ      4 00000024 FFFFFF90     C   17031 23944M 37370M 37370  37390M 37407M 37407  37421  37594  37684  39599
 HDBHSNAM      8 0000000C FFFFFF90     C   17027 22896M 22897M 22898M 37596  37686
 HDBMVRD       4 00000034 FFFFFF90     A   17068 40018  40027M
 HDBMVWR       4 00000038 FFFFFF90     A   17069 39882  39891M
 HDBORIG       4 00000014 FFFFFF90     C   17028 37602M 37692M 39627
 HDBRCT        4 0000003C FFFFFF90     A   17070 38900  38909M
 HDBRDCT       4 00000044 FFFFFF90     A   17072 38929  38938M
 HDBRDFR       4 0000002C FFFFFF90     A   17066 40047  40056M 44369  44378M
 HDBRWRT       4 0000004C FFFFFF90     A   17074 44514  44523M
 HDBSTIMX      4 0000005C FFFFFF90     A   17077 44698  44699M
 HDBTOKEN      8 0000001C FFFFFF90     C   17030 37601M 37691M 37766  38232  43927  44071  44306  44456  60422M 60422
                                                 60439
 HDBWCT        4 00000040 FFFFFF90     A   17071 38812  38821M
 HDBWRCT       4 00000048 FFFFFF90     A   17073 38841  38850M
 HDBWRFR       4 00000030 FFFFFF90     A   17067 39911  39920M 43992  44001M 44196  44205M
1IOSERV   (IOSE00) (09:40) (22MAR04) Ordinary Symbol and Literal Cross Reference                                            Page  385
 HIBAL         1 00000000 FFFFFFFF     J     700   716    729    742    755    768    781    794    807    820    833
                                                   846    859    872    885    898    911   1012   1024   1036   1048
                                                  1060   1072   1084   1096   1108   1120   1132   1144   1156   1168
                                                  1180   1192   1204
 HPRMKEY1      8 00000004 FFFFFF8B     C   17367 18503M
 HPRMKEY2      8 0000000C FFFFFF8B     C   17368 18563M 18672M 18776M
 HPRMKEY3      8 00000014 FFFFFF8B     C   17369 18513M 18513
 HPRMPARM      4 00000000 FFFFFF8B     X   17366 18498U
 HPRMVAL       4 0000001C FFFFFF8B     A   17370 18520M 18520  18609  18626  18656  18718  18735  18765  18822  18839
                                                 18869
 HPRMWORK    112 00000000 FFFFFF8B     J   17378 18463  18489U
 HSCLOSE       4 00003204 00000001     I   37960 27540  29782  35983  37971U
 HSCLSEND      1 000032F0 00000001     U   38274 38640
 HSIO          4 000033B6 00000001     I   38670 35984  35985  38681U
 HSOPCL       72 00000000 FFFFFF60     J   37239 37470  37496U 37859  38082  38108U 38304  60304  60326U 60406  60406
                                                 60476  60476  60500
 HSOPEN        4 00002FA4 00000001     I   37261 35982  37272U 37930
 HSPCCNT       4 00000000 FFFFFF63     A   35889 38743M 38819  38907  39318  39698
 HSPCETSK      4 00003E9A 00000001     I   43361 21750  43372U
 HSPCFLG       1 00000014 FFFFFF63     R   35896 35900  35905  38811M 38964M 39418  39812  39970  40300
 HSPCIOFF      4 0000000C FFFFFF63     A   35892 38781M 39445  39552
 HSPCLIST      4 00000004 FFFFFF63     A   35890 38744M 39438  39459M
 HSPCMAX       1 00000010 00000001 A   U   35986 37927
 HSPCRQID      4 00000010 FFFFFF63     A   35893 38759M 39416  40395
 HSPCRWWK      4 00000008 FFFFFF63     A   35891 39383M
 HSPCTAB       4 000031E4 00000001     A   35981 35986  36927
 HSPCWORK     21 00000000 FFFFFF63     J   35914 37295U 37994U 38704U 38741M 38741  38760  39300U
 HSPDEND       1 00000014 FFFFFF64     U   35866 36543
 HSPDHDB       4 00000008 FFFFFF64     C   35863 36426M 36602M
 HSPDID        4 00000000 FFFFFF64     C   35861 36424M 36600M 37040  37064M
 HSPDIOFF      4 0000000C FFFFFF64     C   35864 36427M 36603M
 HSPDLEN       4 00000004 FFFFFF64     C   35862 36425M 36601M 37063
 HSPDO        20 00000000 FFFFFF64     J   35873 36367  36415U 36423M 36423  36543  36591U 36599M 36599  36917U
 HSPDPIO       4 00000010 FFFFFF64     C   35865 36428M 36604M
 HSPIO         4 00002C48 00000001     I   36014 25901  36025U
 HSPIOCT       4 00000008 FFFFFF53     A   43295 43529M
 HSPLIST       8 00000070 FFFFFF5F     D   39088 39108
 HSPMCHN       4 00000000 FFFFFF53     A   43293 43550M 43626  44786
 HSPMECB       4 00000004 FFFFFF53     A   43294 43552M 43588  43594
 HSPMESS       4 0000000C FFFFFF53     A   43296 43648M 44767
 HSPVEND       1 000042A4 00000001     U   44608 44922
 HSPWORK      16 00000000 FFFFFF53     J   43303 43469  43524U
 HSRDWRT       4 000034A2 00000001     I   39208 39219U 40608
 HSRWCNT       4 00000010 FFFFFF5F     A   39062 39415M 43801
 HSRWEND       1 000037B6 00000001     U   40238 40611
 HSRWERR     128 00000008 FFFFFF5E        39146 40216M 43845  44428
 HSRWFLAG      1 00000008 FFFFFF5E     R   39142 39146
 HSRWFLG       1 0000001D FFFFFF5F     C   39066 39418M 43884  44287
 HSRWHDB       4 0000000C FFFFFF5F     A   39061 39414M 43740
 HSRWHLOC      4 0000004C FFFFFF5F     A   39076 43863M 44435M
 HSRWID        4 00000000 FFFFFF5F     A   39058 39412M 40506  40535M 40535  43717  44808  44837M 44837
 HSRWINTV      8 00000038 FFFFFF5F     D   39071 44706M 44706  44707M 44717
 HSRWKEYS      4 00000024 FFFFFF5F     F   39068 39754M 40143  43868M 44589
 HSRWLEN       4 00000004 FFFFFF5F     A   39059 39413M 40536  44838
 HSRWMBUF      4 00000008 FFFFFF5F     A   39060 40393M
 HSRWNBLK      4 00000050 FFFFFF5F     A   39077 39422M 44439M
 HSRWPBLK      4 00000004 FFFFFF5E     F   39137 39628M 39844  39979  43862  44434
 HSRWPCDE      4 00000008 FFFFFF5E     F   39138 39139  39637M 40165  40195  40205U 43822  43832U 44097  44405  44415U
                                                 44588M
1IOSERV   (IOSE00) (09:40) (22MAR04) Ordinary Symbol and Literal Cross Reference                                            Page  386
 HSRWPGAD      4 00000048 FFFFFF5F     A   39075 39419  43874M 44437M
 HSRWPLST     12 00000000 FFFFFF5E     J   39155 39402U 43704U
 HSRWPPGE      4 00000000 FFFFFF5E     F   39136 39582M 39638  39775  39835  39980  40094  40098  43892  44367
 HSRWRC        1 0000001C FFFFFF5F     C   39065 39741M 39863M 39999M 40261  40284M 44148M
 HSRWREND      1 0000012C FFFFFF5F     U   39115 39402U 43704U
 HSRWRNGL      4 00000044 FFFFFF5F     A   39073 39420M 43929  44073  44308  44458
 HSRWRQID      4 00000014 FFFFFF5F     A   39063 39417M 44619  44758
 HSRWRSCD      4 00000020 FFFFFF5F     F   39067 43943M 44087M 44322M 44472M
 HSRWRTCD      4 00000018 FFFFFF5F     F   39064 43942M 43961M 43961  44086M 44138M 44138  44321M 44338M 44338  44471M
                                                 44490M 44490
 HSRWSAVE      4 0000008C FFFFFF5F     F   39114 43897  44294  44441
 HSRWSERV      2 0000006C FFFFFF5F     H   39083 43923  44066  44302  44452
 HSRWSTOD      8 00000028 FFFFFF5F     D   39069 40420M
 HSRWTIMR     24 00000054 FFFFFF5F     X   39080 44711
 HSRWTMID      4 00000040 FFFFFF5F     F   39072 44715
 HSRWWORK    300 00000000 FFFFFF5F     J   39122 39363  39393U 39410M 39410  39411M 39411  43695U
 IARMPVT       1 00000000 00000000 A   T   11516 11516
 IARMRRCE      1 00000000 00000000 A   T   12061 12061
 IARPIBR       1 00000000 00000000 A   T   12031 12031
 IARPSIV       1 00000000 00000000 A   T   11855 11855
 IARPSXM       1 00000000 00000000 A   T   12004 12004
 IARXKEY       1 00000000 00000000 A   T   11962 11962
 IARXVIO       1 00000000 00000000 A   T   11856 11856
 ICYMMVTC      1 00000000 00000000 A   T   12287 12287
 IDA121CV      1 00000000 00000000 A   T   11794 11794
 IDEVMAX       1 0000001C 00000001 A   U   21799 25912
 IDEVTAB       4 00001558 00000001     A   21788 21799  23608  23871
 IEABEND       1 00000000 00000000 A   T   11378 11378
 IEACLTE       1 00000000 00000000 A   T   10425 10425
 IEACVT        1 00000000 00000000 A   T    9799  9799   9814
 IEADQIQE      1 00000000 00000000 A   T   11774 11774
 IEAECVT       1 00000000 00000000 A   T   11303 11303
 IEAGSMQ       1 00000000 00000000 A   T   11751 11751
 IEAIHASU      1 00000000 00000000 A   T   11991 11991
 IEALKPT       1 00000000 00000000 A   T   10418 10418
 IEALSMQ       1 00000000 00000000 A   T   11753 11753
 IEAMASCB      1 00000000 00000000 A   T    9952  9952  11721  11725
 IEAPATCH      1 00000000 00000000 A   T   11386 11386
 IEAPDSRT      1 00000000 00000000 A   T   11649 11649
 IEAPTRV       1 00000000 00000000 A   T   11465 11465
 IEAQCDSR      1 00000000 00000000 A   T   11369 11369
 IEAQCS01      1 00000000 00000000 A   T   11761 11761
 IEAQEX00      1 00000000 00000000 A   T    9820  9820
 IEAQIO00      1 00000000 00000000 A   T    9834  9834
 IEAQLPAQ      1 00000000 00000000 A   T   11370 11370
 IEAQPK00      1 00000000 00000000 A   T    9827  9827
 IEAQSC00      1 00000000 00000000 A   T    9823  9823
 IEAQTD00      1 00000000 00000000 A   T   11266 11266
 IEAQTE00      1 00000000 00000000 A   T   11264 11264
 IEARPOST      1 00000000 00000000 A   T   11776 11776
 IEASMFEX      1 00000000 00000000 A   T   11653 11653
 IEASMFSP      1 00000000 00000000 A   T   11999 11999
 IEASPOST      1 00000000 00000000 A   T   11796 11796
 IEASVDCB      1 00000000 00000000 A   T   11257 11257
 IEATCBP       1 00000000 00000000 A   T   11207 11207
 IEATPC        1 00000000 00000000 A   T   11259 11259
 IEATRSCN      1 00000000 00000000 A   T   11617 11617
 IEAVAR02      1 00000000 00000000 A   T   11701 11701
 IEAVBLDP      1 00000000 00000000 A   T   11685 11685
1IOSERV   (IOSE00) (09:40) (22MAR04) Ordinary Symbol and Literal Cross Reference                                            Page  387
 IEAVDELP      1 00000000 00000000 A   T   11688 11688
 IEAVEAC0      1 00000000 00000000 A   T   11778 11778
 IEAVEADV      1 00000000 00000000 A   T   11936 11936
 IEAVEDR1      1 00000000 00000000 A   T   11821 11821
 IEAVELRM      1 00000000 00000000 A   T   11770 11770
 IEAVELT1      1 00000000 00000000 A   T   10189 10189
 IEAVELT2      1 00000000 00000000 A   T   10423 10423
 IEAVENLU      1 00000000 00000000 A   T   12117 12117
 IEAVENQ2      1 00000000 00000000 A   T   11767 11767
 IEAVEQV1      1 00000000 00000000 A   T   11924 11924
 IEAVEQV2      1 00000000 00000000 A   T   11927 11927
 IEAVEQV3      1 00000000 00000000 A   T   11930 11930
 IEAVERI1      1 00000000 00000000 A   T   11823 11823
 IEAVERP1      1 00000000 00000000 A   T   11825 11825
 IEAVERX1      1 00000000 00000000 A   T   12013 12013
 IEAVESC1      1 00000000 00000000 A   T   10715 10715  11952
 IEAVESC2      1 00000000 00000000 A   T   10717 10717
 IEAVESC7      1 00000000 00000000 A   T   10711 10711
 IEAVESC8      1 00000000 00000000 A   T   10713 10713
 IEAVESPR      1 00000000 00000000 A   T   11881 11881
 IEAVESTU      1 00000000 00000000 A   T   12115 12115
 IEAVESVT      1 00000000 00000000 A   T   10719 10719  11887
 IEAVETOT      1 00000000 00000000 A   T   10572 10572
 IEAVETVT      1 00000000 00000000 A   T   10570 10570
 IEAVET6E      1 00000000 00000000 A   T   11987 11987
 IEAVEVT2      1 00000000 00000000 A   T   11941 11941
 IEAVEXPR      1 00000000 00000000 A   T   11749 11749
 IEAVEXP1      1 00000000 00000000 A   T   11918 11918
 IEAVFRCL      1 00000000 00000000 A   T   11687 11687
 IEAVGSDA      1 00000000 00000000 A   T   11932 11932
 IEAVGTCL      1 00000000 00000000 A   T   11686 11686
 IEAVGWSA      1 00000000 00000000 A   T   11781 11781
 IEAVLKRM      1 00000000 00000000 A   T   11488 11488
 IEAVMFRM      1 00000000 00000000 A   T   11866 11866
 IEAVMSGS      1 00000000 00000000 A   T   11435 11435
 IEAVNVT0      1 00000000 00000000 A   T   12100 12100
 IEAVRSTR      1 00000000 00000000 A   T    9794  9794
 IEAVRSUH      1 00000000 00000000 A   T   11979 11979
 IEAVRT03      1 00000000 00000000 A   T   11593 11593
 IEAVSPND      1 00000000 00000000 A   T   11989 11989
 IEAVSTAG      1 00000000 00000000 A   T   11729 11729
 IEAVSVTX      1 00000000 00000000 A   T   10721 10721
 IEAVTCTL      1 00000000 00000000 A   T   11981 11981
 IEAVTEST      1 00000000 00000000 A   T   11492 11492
 IEAVTRGR      1 00000000 00000000 A   T   11789 11789
 IEAVTRG1      1 00000000 00000000 A   T   11238 11238
 IEAVTRV3      1 00000000 00000000 A   T   11485 11485
 IEAVTSBP      1 00000000 00000000 A   T   11735 11735
 IEAVTSFR      1 00000000 00000000 A   T   11456 11456
 IEAVTSGL      1 00000000 00000000 A   T   11733 11733
 IEAVVMSR      1 00000000 00000000 A   T   11514 11514
 IEAVWAIT      1 00000000 00000000 A   T   11756 11756
 IEAVWSAC      1 00000000 00000000 A   T   11787 11787
 IEAVWSAG      1 00000000 00000000 A   T   11785 11785
 IEAVWSAL      1 00000000 00000000 A   T   11783 11783
 IEAVXEXT      1 00000000 00000000 A   T   11864 11864
 IEAVXSFT      1 00000000 00000000 A   T   11831 11831
 IEAVXSTN      1 00000000 00000000 A   T   11837 11837
 IEAVXSTS      1 00000000 00000000 A   T   11835 11835
1IOSERV   (IOSE00) (09:40) (22MAR04) Ordinary Symbol and Literal Cross Reference                                            Page  388
 IEAVXUNN      1 00000000 00000000 A   T   11860 11860
 IEAVXUNS      1 00000000 00000000 A   T   11839 11839
 IEAWTCB       1 00000000 00000000 A   T   11896 11896
 IEA0DS        1 00000000 00000000 A   T   11302 11302
 IEA0EF00      1 00000000 00000000 A   T   11208 11208
 IEA0EF01      1 00000000 00000000 A   T   11248 11248
 IEA0PT0E      1 00000000 00000000 A   T   11968 11968
 IEA0PT01      1 00000000 00000000 A   T   11309 11309
 IEA0PT02      1 00000000 00000000 A   T   11893 11893
 IEA0PT03      1 00000000 00000000 A   T   11970 11970
 IEA0VL00      1 00000000 00000000 A   T   11219 11219
 IEA0VL01      1 00000000 00000000 A   T   11626 11626
 IECIXAVL      1 00000000 00000000 A   T   11294 11294
 IECPCNVT      1 00000000 00000000 A   T   11222 11222
 IECPRLTV      1 00000000 00000000 A   T   11226 11226
 IECSDSL1      1 00000000 FFFFFFD1     U    7899  7900  54068  54180  58749
 IECVEXCL      1 00000000 00000000 A   T   11858 11858
 IECXAPG       1 00000000 00000000 A   T   11217 11217
 IECXITP       1 00000000 00000000 A   T   11247 11247
 IECXTLER      1 00000000 00000000 A   T   11233 11233
 IEC0SCR1      1 00000000 00000000 A   T   11392 11392
 IEECUCB       1 00000000 00000000 A   T   11263 11263
 IEEMSER       1 00000000 00000000 A   T   11241 11241  11307
 IEEVEXSN      1 00000000 00000000 A   T   11596 11596
 IEEVSTOP      1 00000000 00000000 A   T   11906 11906
 IEFAQTOP      1 00000000 00000000 A   T   11713 11713
 IEFAUSDM      1 00000000 00000000 A   T   11213 11213
 IEFENFDM      1 00000000 00000000 A   T   11372 11372
 IEFJESCT      1 00000000 00000000 A   T   11472 11472
 IEFLINK       1 00000000 00000000 A   T   11210 11210
 IEFQMWR       1 00000000 00000000 A   T   11323 11323
 IEWFBOSV      1 00000000 00000000 A   T   11300 11300
 IEWMSEPT      1 00000000 00000000 A   T   11805 11805
 IFBDCB        1 00000000 00000000 A   T   11289 11289
 IFDOLT0A      1 00000000 00000000 A   T   11651 11651
 IFGACB        1 00000000 FFFFFFE7     J    2264  2543  49182U 49518U
 IFGDEBVR      1 00000000 00000000 A   T   12282 12282
 IFGRPL        1 00000000 FFFFFFE6     J    2593  2994  49128U 49478U
 IGC043BR      1 00000000 00000000 A   T   11697 11697
 IGC044R2      1 00000000 00000000 A   T   11807 11807
 IGC062R1      1 00000000 00000000 A   T   11777 11777
 IGC07903      1 00000000 00000000 A   T   11922 11922
 IGC124        1 00000000 00000000 A   T   11938 11938
 IGFPMAIN      1 00000000 00000000 A   T    9830  9830
 IGFRVT        1 00000000 00000000 A   T   11387 11387
 IGVCPBDB      1 00000000 00000000 A   T   12053 12053
 IGVCPDLB      1 00000000 00000000 A   T   12055 12055
 IGVCPFRE      1 00000000 00000000 A   T   12045 12045
 IGVCPGTC      1 00000000 00000000 A   T   12043 12043
 IGVCPGUB      1 00000000 00000000 A   T   12037 12037
 IGVCPGUP      1 00000000 00000000 A   T   12040 12040
 IGVCPGUS      1 00000000 00000000 A   T   12063 12063
 IGVGCAS       1 00000000 00000000 A   T   11691 11691
 IGVGFAS       1 00000000 00000000 A   T   11695 11695
 IGVGRRGN      1 00000000 00000000 A   T   12067 12067
 IGVGVRGN      1 00000000 00000000 A   T   12069 12069
 IGVQSPET      1 00000000 00000000 A   T   11693 11693
 IGVSLIST      1 00000000 00000000 A   T   12047 12047
 IGVSLOC       1 00000000 00000000 A   T   12051 12051
1IOSERV   (IOSE00) (09:40) (22MAR04) Ordinary Symbol and Literal Cross Reference                                            Page  389
 IGVSREGN      1 00000000 00000000 A   T   12049 12049
 IGVSTSKI      1 00000000 00000000 A   T   12034 12034
 IHADCB        1 00000000 FFFFFFE5     J    3000  3080   3117   3167   3242   3369   3374   3389   3395   3404   3447
                                                  3451   3547   3550   3555   3580   3598   3599   3603   3609   3645
                                                  3646  41960U 42001U 42484U 42812U 51242U 51246M 54256U 54260M
 IHAMPL        1 00000000 00000000 A   T    9908  9908
 IHA0813B      2 0000003E 00000001     H   17450 17447B
 IHB11701B
               4 00002D20 00000001     F   36379 36374B
 IHB11701F
               1 00002D1C 00000001     B   36375 36381
 IHB11784B
               4 00002DB8 00000001     F   36555 36550B
 IHB11784F
               1 00002DB4 00000001     B   36551 36557
 IHB12074B
               4 00002F74 00000001     F   37075 37070B
 IHB12074F
               1 00002F70 00000001     B   37071 37078
 IHB13262B
               4 000034CC 00000001     F   39278 39272B
 IHB13262F
               1 000034C8 00000001     B   39274 39280
 IHB13262L
               4 000034C4 00000001     A   39273 39279
 IHB13309B
               4 00003520 00000001     F   39375 39370B
 IHB13309F
               1 0000351C 00000001     B   39371 39377
 IHB1360K     16 000002E0 00000001     C   18393 18389
 IHB1360R      1 000002F8 00000001     U   18401 18391B
 IHB13932B
               4 00003860 00000001     F   40547 40542B
 IHB13932F
               1 0000385C 00000001     B   40543 40550
 IHB15177      2 00003D5E 00000001     H   42937 42916B 42923B
 IHB15379B
               4 00003EC4 00000001     F   43431 43425B
 IHB15379F
               1 00003EC0 00000001     B   43427 43433
 IHB15379L
               4 00003EBC 00000001     A   43426 43432
 IHB16142B
               4 00004358 00000001     F   44849 44844B
 IHB16142F
               1 00004354 00000001     B   44845 44852
 IHB19650A
               2 00005250 00000001     H   51019 51013B
 IHB19867A
               2 00005370 00000001     H   51372 51366B
 IHB20196A
               2 00005580 00000001     H   51989 51983B
 IHB20215A
               2 000055C4 00000001     H   52037 52031B
 IHB20410A
               2 00005682 00000001     H   52386 52380B
 IHB20440A
               2 000056CA 00000001     H   52450 52444B
 IHB20459A
1IOSERV   (IOSE00) (09:40) (22MAR04) Ordinary Symbol and Literal Cross Reference                                            Page  390
               2 00005710 00000001     H   52496 52490B
 IHB20511A
               2 00005776 00000001     H   52591 52587B
 IHB24711B
               4 00006938 00000001     F   60309 60303B
 IHB24711F
               1 00006934 00000001     B   60305 60311
 IHB24711L
               4 00006930 00000001     A   60304 60310
 IHB24798B
               4 00006A20 00000001     F   60505 60499B
 IHB24798F
               1 00006A1C 00000001     B   60501 60508
 IHB24798L
               4 00006A18 00000001     A   60500 60506
 ILRJTERM      1 00000000 00000000 A   T   11976 11976
 INITDEV       4 00000F94 00000001     I   23504 23499  23515U
 IOCB        328 00000000 FFFFFF9A     J   16694 17426U 19746  19756U 20035  21520U 21586  25138U 26795U 28542U 30275U
                                                 30806U 30874  30874  30903  30932U 30936M 31191  31191  31429U 32203U
 IOCBCCW       8 00000038 FFFFFF9A     D   16668 25348  27003  28859  30315  31062
 IOCBDBLK      2 000000AA FFFFFF9A     X   16673 30348  30356M 30356  30363M
 IOCBDDB       4 00000014 FFFFFF9A     A   16661 17638  25142M 26799M 28546M 30279M
 IOCBDEXD     16 00000080 FFFFFF9A     X   16670 25386  25398M 25437M 27041  27045M 27084M 28897  28937M 28976M 30988M
 IOCBECB       4 00000020 FFFFFF9A     A   16664 17728  30488
 IOCBFCHN      4 00000008 FFFFFF9A     A   16658 17794M 21531  30833  31162M 31457  31547M
 IOCBFLG       1 000000AE FFFFFF9A     R   16678 16682  31216M
 IOCBFM        1 000000AD FFFFFF9A     X   16675 25527  27307  29163  30989M
 IOCBIDAW      4 00000070 FFFFFF9A     A   16669 25660  25710M 25733  25737M
 IOCBIOCT      4 0000000C FFFFFF9A     A   16659 17774  30937M
 IOCBIOSB    108 000000DC FFFFFF9A     X   16687 19797  20452  25330  26986  28842  30289  31008  31022U 31222U 32207
 IOCBLCRD     16 00000090 FFFFFF9A     X   16671 25206M 25271M 25448  25451M 25452M 25453M 25454M 26862M 26927M 27096
                                                 27099M 27100M 27101M 27102M 28648M 28759M 28926  28987  28990M 28991M
                                                 28992M 28993M
 IOCBMCHN      4 00000004 FFFFFF9A     A   16657 19746  19771  31114M
 IOCBPDAT     10 000000A0 FFFFFF9A     X   16672 27184  27187M 27195M 27196M 28656M 28767M 29049  29052M 29053M 30334
                                                 30343M 30343
 IOCBPECB    128 000000AE FFFFFF9A        16682 17562  17723M 30285M
 IOCBRQID      4 00000010 FFFFFF9A     A   16660 17616  19788M 19788  25143M 26800M 28547M
 IOCBSCCW      4 00000018 FFFFFF9A     A   16662 20776  29694M 31495  31502M
 IOCBSECT      1 000000AC FFFFFF9A     X   16674 25325M 25454  25543  25550  26982M 27102  27323  27330  28838M 28993
                                                 29179  29186
 IOCBSRB      44 000000B0 FFFFFF9A     X   16686 20138  30998U 31027  32252
 IOCBSTK       4 00000024 FFFFFF9A     A   16665 17568  30987M
 IOCBSTOP      8 00000030 FFFFFF9A     D   16667 17428M 17631  17637M 17665  17677
 IOCBSTRT      8 00000028 FFFFFF9A     D   16666 17633  17636  32251M
 IOCENDW       1 00000044 FFFFFFD2     U    7894  7835
 IOCIOCW       4 00000000 FFFFFFD2     C    7832  7835
 IOCOM         1 00000000 FFFFFFD3     J    7654  7655  17522U 32257
 IOCQCNT       4 00000074 FFFFFFD3     A    7717 17533
 IOCSTIO       4 0000001C FFFFFFD3     A    7674 32257
 IOCT        176 00000000 FFFFFF9D     J   16579 17785U 17974  17997U 18001M 18883  18883  19338U 19648  21319U 22546U
                                                 22844U 23134U 23408U 23695U 30019U 30792U 31394U 31713U 33544U 34965U
                                                 35374U 37557U 38169U 38378U 45545U 48574U 50876U 51809U 52220U 53263U
                                                 54953U 57360U 59541U 60271U
 IOCTAM24      4 00000074 FFFFFF9D     A   16556 18160M 59547
 IOCTASCB      4 00000078 FFFFFF9D     A   16558 18021M 31004
 IOCTASID      2 0000007C FFFFFF9D     H   16559 18046M 31005  31030
 IOCTCDL       4 00000070 FFFFFF9D     A   16555 30023  30114
 IOCTCIOB      8 00000018 FFFFFF9D     D   16529 17787  17797M 31413  31433  31460M
1IOSERV   (IOSE00) (09:40) (22MAR04) Ordinary Symbol and Literal Cross Reference                                            Page  391
 IOCTDDBL      4 00000040 FFFFFF9D     A   16540 18192M 22568  22584  57382  57507
 IOCTDDBS      4 0000002C FFFFFF9D     A   16534 22574  22575M 57388
 IOCTFIOB      8 00000010 FFFFFF9D     D   16528 21483  21504  21524  21534M 30796  30836M 31155  31165M 31540  31550M
 IOCTHDBL      4 00000050 FFFFFF9D     A   16544 18215M 22866  22890  38400  38525
 IOCTHDBS      4 00000038 FFFFFF9D     A   16537 22880  22881M 38406  60285
 IOCTHSCT      2 00000092 FFFFFF9D     H   16570 22876  22878M
 IOCTHSIZ      4 00000084 FFFFFF9D     A   16564 18527M 18527  18667M 23710M 23710  23944  54957
 IOCTHTID      4 00000064 FFFFFF9D     A   16550 18430M 21444
 IOCTIOCB      8 00000008 FFFFFF9D     D   16527 19746  31107  31117M
 IOCTJDBL      4 00000044 FFFFFF9D     A   16541 18235M 23156  23172  48596  48721
 IOCTJDBS      4 00000030 FFFFFF9D     A   16535 23162  23163M 48602
 IOCTJTID      4 00000060 FFFFFF9D     A   16549 18381M 21429
 IOCTKEY       1 0000007E FFFFFF9D     X   16560 18062M 31006  31033
 IOCTMTCB      4 00000080 FFFFFF9D     A   16563 31007  53281M
 IOCTMTID      4 0000005C FFFFFF9D     A   16548 18335M 21403
 IOCTPGLM      2 00000088 FFFFFF9D     H   16565 18534M 18534  18771M 23768M 23768  23783
 IOCTPGNO      2 0000008C FFFFFF9D     H   16567 23783  23796  23797M
 IOCTPTHL      4 00000048 FFFFFF9D     A   16542 18275M 23430  23446  35393  35556
 IOCTPTHS      4 00000034 FFFFFF9D     A   16536 21326  23436  23437M 35399
 IOCTSNBP      4 0000006C FFFFFF9D     A   16553 18281M 35087  35130M
 IOCTSNCT      2 00000090 FFFFFF9D     H   16569 50908  50933M
 IOCTSNDB      4 0000003C FFFFFF9D     A   16538 51532  51533M 51836  52251  52764
 IOCTSNFP      4 00000068 FFFFFF9D     A   16552 18279  18280M 35085  45573  45587
 IOCTSNPL      4 00000054 FFFFFF9D     A   16545 18255M 50898  50943  51526  51542  51830  51917  52245  52340  52758
                                                 52883
 IOCTSNTL      4 0000004C FFFFFF9D     A   16543 18302M 33563  33645  34984  35183  45567  45682
 IOCTSTID      4 00000058 FFFFFF9D     A   16547 18358M 21416
 IOCTSWLM      2 0000008A FFFFFF9D     H   16566 18541M 18541  18875M 23831M 23831  23846
 IOCTSWNO      2 0000008E FFFFFF9D     H   16568 23846  23859  23860M
 IOCTSWPA      8 00000020 FFFFFF9D     D   16531 21619  21646M 31503  31512M 31717  31744M
 IOCTSWPS      4 00000028 FFFFFF9D     A   16532 18071M 20946  21683  31805  31813
 IOCTTS        1 0000007F FFFFFF9D     X   16561 60276M
 IOCTTTOK     16 000000A0 FFFFFF9D     C   16572 18406  37595  37685  38233  60440
 IOSABN        4 00000040 FFFFFFDE     A    5273 31093M
 IOSACHN       1 000000C0 FFFFFFDE A   U    4949 31232
 IOSASID       2 00000006 FFFFFFDE     H    5074 31030M
 IOSATTSN     40 0000002C FFFFFFDE     X    5332  5333
 IOSB          1 00000000 FFFFFFDE     J    4940 17416U 19807U 20465U 25340U 26996U 28852U 30299U 31022U 31222U 32217U
 IOSBSTD     108 00000000 FFFFFFDE     C    4943 16687  20035  20665
 IOSBYP        1 00000080 FFFFFFDE A   U    5140 31059
 IOSCCWAD      4 00000014 FFFFFFDE     A    5185  5186
 IOSCHCMP      1 00000001 FFFFFFDE A   U    5083 31045
 IOSCKEY       1 00000059 FFFFFFDE     X    5288 25346M 27002M 28858M
 IOSCSW        7 00000015 FFFFFFDE     X    5191  5192   5219   5219
 IOSCTCDW      8 00000060 FFFFFFDE     D    5322  5323   5325   5325
 IOSDUMP       4 0000053A 00000001     I   19244 19239  19255U
 IOSDVRID      1 00000004 FFFFFFDE     X    5012 31029M
 IOSEEK        8 0000005C FFFFFFDE     C    5301 25344M 25452  25453  25521  25564  27000M 27100  27101  27187  27301
                                                 27367  28856M 28991  28992  29052  29157  29529
 IOSEEKA       8 00000064 FFFFFFDE     C    5305  5306   5321  25345M 27001M 28857M
 IOSEND        1 0000006C FFFFFFDE     U    5316  5363
 IOSERP        4 00000034 FFFFFFDE     A    5267 31248M 31248
 IOSERV        1 00000000 00000001     J    1220  1217   1218   1222  15262  15324  15402  15569  15606  15676  15760
                                                 15835  15862  15894  15925  15951  15977  16039  16061  16081  16134
                                                 16153  16173  16201  16228  16248  16271  16294  16314  16334  16369
                                                 16388  16414  16440  16472  16507  16580  16612  16639  16695  16736
                                                 16770  16795  16822  16850  16876  16904  16935  17006  17089  17195
                                                 17257  17286  17350  17379  17864
 IOSEXP        1 00000010 FFFFFFDE A   U    4976 27260  29117  30309  31261
1IOSERV   (IOSE00) (09:40) (22MAR04) Ordinary Symbol and Literal Cross Reference                                            Page  392
 IOSE00        1 00000000 00000001     R    1229  1227
 IOSF          1 00000080 FFFFFFDE A   U    5155 31052
 IOSFLA        1 00000000 FFFFFFDE     X    4945 31234M
 IOSFLC        1 00000002 FFFFFFDE     X    4971 27262M 29119M 30311M 31263M
 IOSFMSK       1 00000058 FFFFFFDE     X    5287 31100M
 IOSHTERM      4 000068F4 00000001     I   60195 60190  60206U
 IOSHTERX      2 00006A3C 00000001     H   60539 60277B 60559
 IOSINIT       4 00000148 00000001     I   17926 17921  17937U
 IOSIPIB       4 0000002C FFFFFFDE     A    5261 17469  31255M 31255
 IOSLCL        1 00000008 FFFFFFDE A   U    5080 31038
 IOSLOCK       1 00000000 00000000 A   T   10133 10133
 IOSMISID      1 00000001 FFFFFFDE A   U    5015 31029
 IOSNRM        4 0000003C FFFFFFDE     A    5272 31092M
 IOSOPT        1 0000000E FFFFFFDE     X    5137 31061M
 IOSOPT2       1 0000000F FFFFFFDE     X    5138 31054M
 IOSPCHN       4 00000030 FFFFFFDE     A    5263  5264
 IOSPGAD       4 00000008 FFFFFFDE     A    5076 31032M
 IOSPKEY       1 0000000C FFFFFFDE     X    5078 31033M 31040M 31047M
 IOSPROC       1 00000003 FFFFFFDE     X    4990 31241M
 IOSRST        4 00000048 FFFFFFDE     A    5278 31065M
 IOSSECT       1 0000002C FFFFFFDE     U    5259  5331   5359
 IOSSRB        4 0000001C FFFFFFDE     A    5222 31028M
 IOSTATUS      2 00000018 FFFFFFDE     X    5194  5195  17588  19823  30505
 IOSTERM       4 0000098C 00000001     I   21243 21238  21254U
 IOSTINIT      4 00000486 00000001     I   18935 18930  18946U
 IOSTSA        1 00000018 FFFFFFDE     X    5196  5197
 IOSTSB        1 00000019 FFFFFFDE     X    5207  5208
 IOSUCB        4 00000010 FFFFFFDE     A    5175 25347M 25368M 27023M 27255M 27337M 28879M 29112M 29193M 30304M
 IOSUSE        4 00000020 FFFFFFDE     A    5223 17418  31066M
 IOSVDEVN      1 00000000 00000000 A   T   11993 11993
 IOSVHID       1 00000000 00000000 A   T   12003 12003
 IOSVST        4 0000004C FFFFFFDE     A    5279 31063M
 IOSVSUCB      1 00000000 00000000 A   T   12006 12006
 IOT          28 00000000 FFFFFF9C     J   16611 18983  19009U 19013M 24863U 26395U 28038U 33177U 33846U 34264U 40350U
                                                 40925U 41505U
 IOTERM        2 00000016 00000001     H   17396 31608
 IOTHTMC       4 00000018 FFFFFF9C     A   16604 19173M 40372  40442
 IOTJTMC       4 00000014 FFFFFF9C     A   16603 19157M 40944  41271
 IOTMTMC       4 00000010 FFFFFF9C     A   16602 19064M 24882  25078  26417  26613  28060  28256  41525  41575
 IOTSBLEN      4 0000000C FFFFFF9C     A   16601 19083M 19084  33863  34281
 IOTSBUFF      4 00000008 FFFFFF9C     A   16600 19133M 33886  34304
 IOTSTMC       4 00000004 FFFFFF9C     A   16599 19079M 33199  33264
 IRARMCNS      1 00000000 00000000 A   T   11747 11747
 IRARMEPS      1 00000000 00000000 A   T   11965 11965
 IRARMI00      1 00000000 00000000 A   T   11704 11704
 IRCB         36 00000000 FFFFFF99     J   16735 37025U 40405U 44635U 44673U
 IRCBHSP       1 00000020 FFFFFF99     C   16726 40411M 44641M 44641  44685M
 IRCBIPRM      4 00000010 FFFFFF99     A   16720 16723  16723
 ISNBRNCH      1 00000000 00000000 A   T   11862 11862
 JDB          24 00000000 FFFFFF93     J   16903 22998  23028U 23038M 23038  23071U 40841U 40850U 47347U 47356U 48037U
                                                 48046U 48209U 48218U 48627U 48661U 48689U 48706U 48760  48910U 48919U
                                                 49418U 49427U 50579
 JDBACB        4 0000000C FFFFFF93     A   16895 47509M 47833M 47833  48262  49136  49172  49482  49508
 JDBCHAIN      4 00000008 FFFFFF93     A   16894 23162M 48642  48651  48671  48695M 50579
 JDBDDNAM      8 00000010 FFFFFF93     C   16896 47440M 47593  48471M 48471  48501
 JESCLOSE      4 00004AC0 00000001     I   47974 46603  47985U
 JESCLS        4 00004B1C 00000001     I   48167 48110  48178U 50571
 JESFMAX       1 00000010 00000001 A   U   46606 50564
 JESFUNC       4 00005090 00000001     A   46601 46606  47158
1IOSERV   (IOSE00) (09:40) (22MAR04) Ordinary Symbol and Literal Cross Reference                                            Page  393
 JESIO         4 000038C2 00000001     I   40771 25909  40782U
 JESIOCT       4 00000008 FFFFFF50     A   46488 46751M
 JESIOTSK      4 00004728 00000001     I   46634 21749  46645U
 JESJBEND      4 00004DB0 00000001     I   49341 46605  49352U
 JESMCHN       4 00000000 FFFFFF50     A   46486 46772M 47022  47213
 JESMECB       4 00000004 FFFFFF50     A   46487 46774M 46990  46996
 JESOPEN       4 000048E4 00000001     I   47284 46602  47295U
 JESRPL        4 0000000C FFFFFF50     A   46489 46822M 49118  49468
 JESWBUFF      4 00000010 FFFFFF50     A   46490 48995M 49071  49246
 JESWORK      20 00000000 FFFFFF50     J   46497 46692  46747U 48889U 49397U
 JESWRITE      4 00004C6C 00000001     I   48833 46604  48844U
 JFCB          1 00000000 FFFFFFCF     J    8349 42090U
 JFCBELNM      8 0000002C FFFFFFCF     C    8754 42119  42194M 42206M
 JFCBLGTH      1 000000B0 FFFFFFCF A   U    9500 41807
 JFCRESRV      4 0000006C FFFFFFCF     B    9309  9346
 JSALLO        4 00004E56 00000001     I   49785 49780  49796U 50568
 JSALLO        1 00000000 00000019     T   51630 51630
 JSALWORK    168 000050A4 00000001     U   49756 49860  49877  49877  49887U 50509
 JSTUCHAR      2 00005130 00000001     R   49750 50158
 JSTUCOPY      2 00005125 00000001     R   49745 50068
 JSTUDDN       2 000050D4 00000001     R   49721 49902  50446
 JSTUDEST      2 0000510D 00000001     R   49739 50294
 JSTUFCB       2 0000511B 00000001     R   49742 50249
 JSTUFLSH      2 00005103 00000001     R   49736 50203
 JSTUFORM      2 000050F9 00000001     R   49733 50113
 JSTUFREE      2 000050E2 00000001     R   49724 49896
 JSTUHOLD      2 0000512C 00000001     R   49748 50338
 JSTULIST      4 000050A4 00000001     A   49719 49756  49756  49891  50380
 JSTUSYSO      2 000050E6 00000001     R   49726 49969
 JSTUWRTN      2 000050ED 00000001     R   49729 50030
 LOCKCRE       1 00000000 00000004     T   21744 21744
 LOCKOB        1 00000000 0000000E     T   25905 25905  35676  38642  45745  50573  51627  57615
 LOCKOK        2 00000048 00000001     H   17464 17449B
 LOCKREL       1 00000000 0000000F     T   25906 25906  35678  38643  45747  50574  51629  57616
 MEMFREE       1 00000000 00000013     T   35683 35683  37936  38641  43182  46463  50561  51631  57619  60110
 MEMGET        1 00000000 00000006     T   21751 21751  25903  30674  31606  35672  37934  38639  43177  44917  45739
                                                 50559  51625  57618  60109
 MEMTA16M     16 00000002 FFFFFFBA        15442 17982M
 MEMTGLOB      8 00000002 FFFFFFBA        15451 18154M
 MFA16M       16 00000009 FFFFFFB6        15797 35630  35630  35631M 37868M 38313M 38589  38589  38590M 42861M 45996
                                                 45996  45997M 48771  48771  48772M 50518M 51076M 51116M 51342M 51448M
                                                 51484M 52651M 52724M 52934  52934  52935M 54189M 56893M 57571  57571
                                                 57572M
 MFGLOB        2 00000009 FFFFFFB6        15824 35630  35630  38589  38589  45996  45996  48771  48771  52934  52934
                                                 57571  57571
 MGA16M       16 00000009 FFFFFFB7        15713 18473  18473  18474M 18993  18993  18994M 19122  19122  19123  19123
                                                 19125  19125  19128M 22422  22422  22423  22423  22425M 22720  22720
                                                 22721  22721  22723M 23010  23010  23011  23011  23013M 23284  23284
                                                 23285  23285  23287M 30179  30179  30180  30180  30182M 30979  30979
                                                 30980  30980  30982M 33096  33096  33097  33097  33099M 37480  37480
                                                 37481M 38092  38092  38093M 42344  42344  42345M 43479  43479  43480M
                                                 45145  45145  45146M 46702  46702  46703M 49870  49870  49871M 50702
                                                 50702  50703M 50753  50753  50754  50754  50756M 51187  51187  51188M
                                                 51281  51281  51282M 52554  52554  52555M 53203  53203  53204M 54078
                                                 54078  54079M 55070  55070  55071  55071  55073M 55920  55920  55921M
 MGBEST        1 00000009 FFFFFFB7        15749 18473  18473  18993  18993  19125  19125  19126  19126  19127  19127
                                                 22423  22423  22424  22424  22721  22721  22722  22722  23011  23011
                                                 23012  23012  23285  23285  23286  23286  30180  30180  30181  30181
                                                 30980  30980  30981  30981  33097  33097  33098  33098  37480  37480
1IOSERV   (IOSE00) (09:40) (22MAR04) Ordinary Symbol and Literal Cross Reference                                            Page  394
                                                 38092  38092  41943M 42344  42344  43479  43479  45145  45145  46702
                                                 46702  46816M 46850M 47503M 47537M 47707M 48315M 48989M 49870  49870
                                                 50702  50702  50754  50754  50755  50755  51187  51187  51226M 51281
                                                 51281  52554  52554  53203  53203  54078  54078  54240M 54292M 55071
                                                 55071  55072  55072  55920  55920  57101M 57822M 58531M 58846M 59449M
 MGFIX         8 00000009 FFFFFFB7        15722 19122  19122  19124  19124  19126  19126
 MGGLOB        2 00000009 FFFFFFB7        15740 19123  19123  19124  19124  19127  19127  22422  22422  22424  22424
                                                 22720  22720  22722  22722  23010  23010  23012  23012  23284  23284
                                                 23286  23286  30179  30179  30181  30181  30979  30979  30981  30981
                                                 33096  33096  33098  33098  50753  50753  50755  50755  55070  55070
                                                 55072  55072
 MODELCTL     16 000068B4 00000001     X   58401 58423  58555  58555
 MODELOBT     16 000068C4 00000001     X   58719 58741  58868  58868
 MSGATTR       1 00000000 00000008     T   21757 21757
 MSGATTS       1 00000000 00000016     T   44918 44918  45740  50560  57620
 MSGFREE       1 00000000 00000018     T   44926 44926  45744  50566  57625
 MSGGBUF       1 00000000 00000010     T   25920 25920  27536  29778  35673  40614  41649
 MSGRECV       1 00000000 00000017     T   44920 44920  45741  50563  57622
 MSGSEND       1 00000000 00000011     T   25922 25922  27539  29781  35675  40615  41654
 MVIIOCT       4 00000008 FFFFFF49     A   52993 53253M
 MVIMCHN       4 00000000 FFFFFF49     A   52991 53315M 53385  53567
 MVIMECB       4 00000004 FFFFFF49     A   52992 53317M 53353  53359
 MVIWORK      12 00000000 FFFFFF49     J   53000 53193  53248U
 MVSENQ        4 00006646 00000001     I   59086 59081  59097U
 MVSIOTSK      4 00005858 00000001     I   53135 21745  53146U
 OBTAINL       4 000068C4 00000001     F   58710 58719  58719
 OBTAREA       4 0000000C FFFFFF3C     X   58744 58874M
 OBTCAML      16 00000000 FFFFFF3C     X   58741 58742  58743  58744  58885
 OBTDATA     140 00000048 FFFFFF3C     X   58749 58873  58919  58919
 OBTDSN       44 00000010 FFFFFF3C     C   58746 58869  58880M
 OBTDSNP       4 00000004 FFFFFF3C     X   58742 58870M
 OBTPARM     212 00000000 FFFFFF3C     J   58756 58838  58861U 58868M 58949
 OBTVOL        6 0000003C FFFFFF3C     C   58747 58871  58882M
 OBTVOLP       4 00000008 FFFFFF3C     X   58743 58872M
 OPENERR       2 00005B2C 00000001     H   54390 54322
 OPTLOCK       1 00000000 00000000 A   T   10114 10114
 OSFIO         4 000039C0 00000001     I   41364 41375U
 PAGECMD       1 00000000 FFFFFF7B     X   26080 26861M 26926M 27118  27124M 27403
 PAGEIO        4 000015DC 00000001     I   26145 25897  26156U
 PAGEWORK      1 00000000 FFFFFF7B     J   26087 26179U
 PARMDO        1 00000000 00000007     T   21752 21752
 PARMFINT      4 00000000 FFFFFF8C        17318 18637M 18746M 18850M
 PARMIN        4 00000000 FFFFFF8C     J   17349 17366  18498U 18575  18592  18684  18701  18788  18805
 PARMTYPE      1 00000000 FFFFFF8C     R   17299 17308  17318  17328  17338
 PARMWORK    344 00000000 FFFFFF57     J   41821 41888U 41935  42475U 42803U 43003  43088U
 PATH          4 00000020 FFFFFF8F     F   17128 17187  21373  33445  33981  34399  34594  34737  45918
 PATHBUF       4 0000003C FFFFFF8F     R   17149 33018M
 PATHECB       4 00000048 FFFFFF8F     R   17163 45914M
 PATHECBF      4 00000040 FFFFFF8F     R   17151 33140M
 PATHFCLS      1 00000080 FFFFFF8F A   U   17153 33591
 PATHFNI       1 00000020 FFFFFF8F A   U   17155 34187
 PATHMFL       1 00000038 FFFFFF8F     R   17138 33013M 33138M
 PATHMNAM      1 00000020 FFFFFF8F A   U   17142 33011
 PATHMY        8 00000028 FFFFFF8F     X   17134 32991M 33427M 33427
 PATHPASS      4 00000044 FFFFFF8F     X   17161 32993M
 PATHPINP      4 00000050 FFFFFF8F     X   17167 33124M 45957  46008M 46008
 PATHVER2      1 00000080 FFFFFF8F A   U   17140 33136
 PATHYOU       8 00000030 FFFFFF8F     X   17136 32992M 32994
 PAVE          1 00000000 00000000 A   T    7892  7892
1IOSERV   (IOSE00) (09:40) (22MAR04) Ordinary Symbol and Literal Cross Reference                                            Page  395
 PCCWB         8 00001980 00000001     W   26109 26112  26112
 PCCWEXT      24 00001998 00000001     X   26117 27037  27037
 PCCWM21       8 00001960 00000001     W   26101 27183
 PCCWPE        8 00001998 00000001     W   26114 26117  26117
 PCCWPFX      16 00001970 00000001     X   26107 27300  27300
 PCCWS        24 00001980 00000001     X   26112 27350  27350
 PCCWSEC       8 00001968 00000001     W   26103 27329
 PCCWSK        8 00001970 00000001     W   26105 26107  26107
 PFCLOSE       4 00005D3C 00000001     I   55401 53101  55412U
 PFDCB         4 00006244 00000001     F   53637 54260
 PFOPEN        4 00005978 00000001     I   53673 53100  53684U
 POOLFREE      1 00000000 0000000D     T   21768 21768
 POOLGET       1 00000000 00000003     T   21740 21740  31604  32135
 PRMFCLS       2 00003DDA 00000001     H   43142 43114
 PRMFDCB       4 00003E18 00000001     F   41677 41954
 PRMFEAD       4 00003E80 00000001     A   41751 41740
 PRMFEOD      12 00003E78 00000001     X   41752 41809  41988  41988
 PRMFE24       2 00003E78 00000001     I   41723 41752  41752
 PRMFWRK       4 00003E84 00000001     A   41757 41878  41949M 42465  42772  42793M 42793  43078
 PRMIOCLS      4 00003D9E 00000001     I   43059 42381  42704  42897  43070U
 PRMIOEND      4 00003CB4 00000001     I   42753 42748  42764U
 PRMIOEOD      2 00003C96 00000001     H   42696 41751
 PRMIOPEN      4 00003A7C 00000001     I   41846 41841  41857U
 PRMIORD       4 00003BEE 00000001     I   42446 42441  42457U
 PRMOERR       2 00003B90 00000001     H   42283 42052
 PRMW@A24      8 00000158 FFFFFF57     D   41814 42551U 42561
 PRMWA24       8 00000130 FFFFFF57     D   41813 41987M 42562
 PRMWBFL       4 00000128 FFFFFF57     A   41812 42311M 42832
 PRMWBUFF      4 00000124 FFFFFF57     A   41811 42302  42350M 42680  42686  42817
 PRMWDCB      96 00000000 FFFFFF57     X   41805 41954M 41960U 41971  42001U 42484U 42541  42812U 42914
 PRMWEOD       4 00000114 FFFFFF57     A   41809 41962  41988M
 PRMWEXL       4 00000110 FFFFFF57     A   41808 41965  41981M 41982M
 PRMWJFCB    176 00000060 FFFFFF57     X   41807 41980  42090U
 PRMWOPN       4 00000120 FFFFFF57     A   41810 41972M 41979M 42061  42223  43122
 PSA           1 00000000 FFFFFFCD     J    9790  9788U 10736  10966  17445  18009U 58188U 59144U
 PSAAOLD       4 00000224 FFFFFFCD     A    9955 18011
 PSADTSAV      8 000006C0 FFFFFFCD     D   10536 10539  10540
 PSAEMS2S      4 0000026C FFFFFFCD     F   10069 10073
 PSAFZERO      4 000004A8 FFFFFFCD     F   10414 17448
 PSAGSAV      64 000008A8 FFFFFFCD     X   10621 10623  10624
 PSAHLHI       4 000002F8 FFFFFFCD     F   10151 17445
 PSAIPCIN      4 00000268 FFFFFFCD     F   10062 10066
 PSAJSTSA     64 00000998 FFFFFFCD     X   10670 10674  10675
 PSALITA       4 000002FC FFFFFFCD     V   10189 17459  17846  32239  32274
 PSALOCAL      4 000002EC FFFFFFCD     A   10145 17448
 PSARTM1R      4 000003FC FFFFFFCD     F   10296 10301
 PSARV7E8      4 000007E8 FFFFFFCD     X   10552 10553  10554
 PSASLSA      72 00000950 FFFFFFCD     X   10662 10668  10669
 PSASTOSM      4 00000270 FFFFFFCD     F   10076 10085
 PSATNEW       4 00000218 FFFFFFCD     A    9946  9949
 PSATOLD       4 0000021C FFFFFFCD     A    9950 18012  58190  59146
 PSRESET       4 00001FA4 00000001     I   29860 26350  27993  29871U
 RA            2 00000002 FFFFFFFF A   #    1028 19746M 19756U 19771M 19772M 19772  19893  21483M 21484M 21484  21504M
                                                 21505M 21505  21520U 21534M 21588  21619M 21628M 21628  21646M 21685
                                                 22174M 22184U 22284M 22294U 22430M 22440U 22463U 22575  22590  22728M
                                                 22738U 22761U 22881  22899  23018M 23028U 23051U 23163  23178  23292M
                                                 23302U 23325U 23437  23452  23610M 23620U 23945  23961  24257M 24258M
                                                 24258  24284U 24413  24414  25348M 25378U 25388M 25450M 25516U 25523M
                                                 25529M 25552M 25567M 25572M 25595U 25659M 27003M 27033U 27043M 27098M
1IOSERV   (IOSE00) (09:40) (22MAR04) Ordinary Symbol and Literal Cross Reference                                            Page  396
                                                 27179U 27186M 27296U 27303M 27309M 27332M 27360U 27373M 27375M 27398U
                                                 28859M 28889U 28899M 28989M 29044U 29051M 29152U 29159M 29165M 29188M
                                                 29298U 29305M 29378U 29580M 29585M 29592M 29662M 29672U 29936M 29946U
                                                 29952M 29961M 30087  30237  30315M 30329U 30336M 30796M 30806U 30824M
                                                 30824  30836M 30868M 30868  30874M 30895  30902M 31149  31267  31413M
                                                 31414M 31414  31429U 31448M 31448  31460M 31550  31717M 31732M 31732
                                                 31744M 31775M 31775  31812M 31821  31954M 31954  31955M 31971  31979M
                                                 31980  31985M 31993U 32002M 32013U 32044M 32076M 32076  32077M 32078M
                                                 32090  32096M 32104  33031M 33032M 33032  33054M 33828M 33846U 33922M
                                                 33923M 33924  34246M 34264U 34340M 34341M 34342  34775M 34776M 34778M
                                                 34779M 35066M 35155M 35155  35189  35282M 35292U 35443  35621  36334M
                                                 36359U 36428  36536U 36604  37515M 37533U 37539M 37557U 38127M 38145U
                                                 38151M 38169U 38742M 38743  38745M 38755U 39361M 39362M 39363M 39363
                                                 39365  39413  39416M 39417  39421M 39422  39463M 39463  39582  39628
                                                 39637  39638  39640M 39706M 39706  39707M 39707  39754  39775M 39795M
                                                 39838M 39839M 39846  39982  40091M 40097M 40143M 40395M 40405U 40536M
                                                 40548  40907M 40925U 41487M 41505U 42250M 42250  42267M 42284M 42394
                                                 42567M 42603M 42685M 43124M 43143M 43148  43528M 43529  43822M 43832U
                                                 43862M 43863  43868  43873M 43874  43895M 43896M 43984  44096  44097M
                                                 44107U 44158U 44293M 44327  44366M 44368M 44405M 44415U 44434M 44435
                                                 44436M 44437  44438M 44439  44440M 44513  44589M 44619M 44635U 44673U
                                                 44838M 44850  45587M 45599  45944M 46024M 46024  46063  46821M 46822
                                                 46914  47542M 47582  47662  47712M 47745  47805  48372M 48509M 48777
                                                 48961M 48982  48994M 48995  49008M 49083  49246M 49272  49468M 49478U
                                                 49507  51231M 51232  51242U 51289  51813M 51883  51936U 52228M 52306
                                                 52360U 52804  52925  53252M 53253  53263U 53846M 54357M 54357  54374M
                                                 54391M 54447M 54447  54753M 54773U 54800M 54815  54889M 54890M 54890
                                                 54911M 54929U 54935M 54953U 55035M 55059  55083M 55083  55097  55136
                                                 55139M 55245M 55245  55289M 55289  55328  55929M 55931M 57158M 57295M
                                                 57577  57870M 57907  58571M 58639  58918M 59131M 59213  59251  60229M
                                                 60247U 60253M 60271U
 RAR          14 0000000E FFFFFFFF A   #    1184 17534M 17620M 17755M 17986M 18158M 18191M 18214M 18234M 18254M 18274M
                                                 18301M 18334M 18357M 18380M 18429M 18478M 18641M 18750M 18854M 18905B
                                                 18998M 19063M 19078M 19132M 19156M 19172M 19190B 19409M 19447M 19505M
                                                 19564M 19602M 19693M 19741M 19892M 19951M 19989M 20086M 20134M 20205M
                                                 20264M 20302M 20399M 20447M 20522M 20581M 20619M 20716M 20764M 20848M
                                                 20907M 20945M 21009M 21057M 21148M 21186M 21213B 21408M 21421M 21434M
                                                 21449M 21473M 21593M 21690M 21712B 21922M 21934B 22005M 22017B 22088M
                                                 22100B 22173M 22210B 22283M 22320B 22429M 22573M 22589M 22617B 22727M
                                                 22871M 22895M 22926B 23017M 23161M 23177M 23200B 23291M 23435M 23451M
                                                 23474B 23609M 23872M 23988B 24446M 24485B 24895M 25096M 25127M 25324M
                                                 25827M 25886B 26351M 26430M 26631M 26732M 26784M 26981M 27468M 27522B
                                                 27994M 28073M 28274M 28375M 28531M 28829M 28837M 29282M 29527M 29719M
                                                 29763B 30186M 30264M 30462M 30488M 30489  30493M 30663B 30731M 30900M
                                                 30986M 31289B 31596B 31811M 31838B 32128B 32315B 32876M 32894B 33103M
                                                 33212M 33282M 33328B 33568M 33622M 33650M 33688M 33716B 34088B 34510B
                                                 34623B 34817B 34989M 35064M 35188M 35221B 35398M 35561M 35635M 35659B
                                                 36323M 36928M 37128B 37485M 37579M 37580  37669M 37670  37872M 37916B
                                                 38097M 38176M 38177  38317M 38405M 38530M 38594M 38629B 38812M 38820
                                                 38821M 38841M 38849  38850M 38900M 38908  38909M 38929M 38937  38938M
                                                 39003M 39035B 39639M 39689M 39690  39835M 39836M 39837M 39838M 39980M
                                                 40094M 40095M 40096M 40097M 40098M 40144M 40159M 40159  40165M 40175U
                                                 40195M 40205U 40385M 40460M 40596B 40957M 41289M 41335B 41538M 41593M
                                                 41637B 41947M 42057M 42229M 42349M 42382M 42416B 42563M 42705M 42726B
                                                 42865M 42898M 42970M 43009M 43030B 43119M 43129M 43165B 43484M 43549M
                                                 43588M 43589  43593M 43631M 43795M 43796  43892M 43893M 43894M 43895M
                                                 44367M 44368M 44762M 44796M 44903B 45150M 45221M 45305M 45430M 45461M
                                                 45493M 45572M 45653M 45687M 45728B 46001M 46058M 46095B 46242B 46399M
                                                 46429M 46451B 46707M 46771M 46820M 46854M 46955M 46990M 46991  46995M
1IOSERV   (IOSE00) (09:40) (22MAR04) Ordinary Symbol and Literal Cross Reference                                            Page  397
                                                 47027M 47159M 47191M 47223M 47255B 47424M 47507M 47541M 47666M 47711M
                                                 47742M 47752M 47809M 47859M 47913M 47945B 48111M 48138B 48319M 48350M
                                                 48359M 48412M 48441M 48508M 48601M 48726M 48776M 48804B 48993M 49203M
                                                 49276M 49312B 49539M 49619B 49875M 50388M 50522M 50547B 50707M 50760M
                                                 50903M 50948M 50994M 51080M 51120M 51192M 51230M 51286M 51346M 51415M
                                                 51452M 51488M 51531M 51547M 51615B 51835M 51922M 52101B 52250M 52345M
                                                 52559M 52655M 52684M 52728M 52763M 52888M 52939M 52967B 53208M 53314M
                                                 53353M 53354  53358M 53390M 53514M 53544M 53577M 53609B 53834M 53885M
                                                 54083M 54117M 54193M 54244M 54296M 54327M 54336M 54435M 54485M 54866M
                                                 55077M 55135M 55323M 55372B 55472M 55494B 55844M 55925M 56763M 56897M
                                                 56924B 57105M 57136M 57145M 57198M 57227M 57294M 57387M 57512M 57576M
                                                 57601B 57826M 57906M 57929B 58098B 58347B 58535M 58638M 58661B 58850M
                                                 58955M 58977B 59297B 59453M 59556M 59593M 59611B 59841B 60101B 60283M
                                                 60284  60551B
 RB            3 00000003 FFFFFFFF A   #    1040 20138M 20148U 20206  20452M 20465U 20523  20776M 20788M 20789M 20789
                                                 20849  21326M 21339M 21339  21357U 21379M 21524M 21533  21619M 21645
                                                 23874M 23884U 24131M 24154  24168U 24336  24414M 24751M 24761U 24910
                                                 25142  25316  26210M 26220U 26342  26445  26658M 26659M 26659  26677U
                                                 26723  26799  26973  27846M 27856U 27985  28088  28301M 28302M 28302
                                                 28320U 28366  28546  28817  29519  29892M 29902U 30279  30796M 30835
                                                 30903M 30917M 30917  31190M 31433M 31459  31548M 31549M 31717M 31743
                                                 31913M 31925  32034  32043M 32099M 32105M 32106  32207M 32217U 33038M
                                                 33048U 33063M 33064M 33085  33107M 33109  33228M 33238U 33922M 33924
                                                 34340M 34342  36368M 36425  36540M 36541M 36542M 36542  36543  36544M
                                                 36601  36658M 36805  36812M 36812  37063M 37076  37486M 37496U 37861
                                                 38098M 38108U 38306  39438M 39439M 39439  39445M 39455U 39708M 39708M
                                                 39818M 39819  39844M 39846  39979M 39982  40092M 40093  40831M 40841U
                                                 41249  41412M 41422U 41553  42302M 42303M 42303  42684M 42817M 42826M
                                                 42826  42854  43890M 43891  44364M 44365  44697M 44698M 44699  45605M
                                                 45658  45957M 45958M 45958  45987  46855M 46907  46951  47508M 47509
                                                 47591  47713  47855  48320M 48353  48408  49007M 49071M 49083  49108M
                                                 49133  49236M 49247M 49271  49575M 49578  52560M 52561  52561  52567
                                                 52644  54084M 54110  54127U 54182  54297M 54330  54431  55079M 55930M
                                                 57106M 57139  57194  57995M 58004M 58004  58038  58076M 58081  58190M
                                                 58208U 58214M 58232U 58238M 58256U 58303M 58536M 58546U 58634  58851M
                                                 58861U 58951  59132M 59200  59238  60285M 60295U 60341M 60341  60490M
 RCCWA         8 00002178 00000001     W   29829 29832  29832
 RCCWS        24 00002178 00000001     X   29832 30316  30316
 READDSCB      4 00006592 00000001     I   58780 57630  58791U
 RELIOCB       4 0000232A 00000001     I   31318 21767  31329U 31603
 RJ            4 00000004 FFFFFFFF A   #    1052 24117M 24127U 24152  24845M 24863U 25330M 25340U 26377M 26395U 26986M
                                                 26996U 28020M 28038U 28842M 28852U 30289M 30299U 30901M 30902  30932U
                                                 31066  31117  31149  31165  31191M 31495M 31496M 31496  31512  32024M
                                                 32034  32043  33159M 33177U 33502M 33520U 33526M 33544U 33886M 33895
                                                 33986  34304M 34313  34404  34923M 34941U 34947M 34965U 36101M 36111U
                                                 36316  36877M 36921  39318M 39330  39361  39415  39480M 39489M 39489
                                                 39698M 39729M 39729  40230M 40337M 40350U 43801M 43816M 43816  44598M
                                                 44767M 44791  45313M 45331U 45356  45488  45825M 45835U 47035M 47053U
                                                 47078  47218  47316M 47326U 48006M 48016U 48262M 48275M 48275  48321
                                                 48437  48865M 48875U 49373M 49383U 51814M 51890M 51890  51949M 51949
                                                 52074  52229M 52313M 52313  52372M 52372  52579M 52940  53398M 53428
                                                 53438U 53572  54245M 54246  54256U 54298  54481  57048M 57061M 57061
                                                 57107  57223  59133M 59212  59250  60316M 60326U 60507
 RK            5 00000005 FFFFFFFF A   #    1064 18479M 18489U 24896M 24906U 24962U 25084  25128M 25138U 25820  26431M
                                                 26441U 26498U 26619  26785M 26795U 27461  28074M 28084U 28141U 28262
                                                 28532M 28542U 29712  30265M 30275U 30455  31115M 31116M 31163M 31164M
                                                 31511M 33213M 33223U 33270  33899M 33909U 34317M 34327U 34761M 34771U
                                                 35131M 35141U 36633M 36634M 36634  36657  36667M 36667  36668  36805
                                                 36809  36810  36811M 37015M 37025U 37997M 38007U 38446  38580  39467M
1IOSERV   (IOSE00) (09:40) (22MAR04) Ordinary Symbol and Literal Cross Reference                                            Page  398
                                                 39467  39523  39549  39587  39639  39641M 39669M 39669  39702M 39702
                                                 39775  39835  39844  39979  39980  40094  40098  40165  40195  40231M
                                                 40386M 40393  40448  40958M 40968U 41277  41539M 41549U 41581  43805M
                                                 43805  43822  43862  43892  44367  44405  44434  44588  44599M 45535M
                                                 45545U 45853M 45863U 46051  47337M 47347U 47906  48027M 48037U 48102
                                                 48199M 48209U 48642  48762  48900M 48910U 49408M 49418U 49891M 49898M
                                                 49904M 49971M 50032M 50070M 50115M 50160M 50205M 50251M 50296M 50340M
                                                 50400M 50523  50708M 50718U 50990  51109  51193M 51194  51195  51248
                                                 51287M 51288  51288  51294  51335  51411  51419M 51441  52473M 52482M
                                                 52482  52562  52680  52695M 52717  53719M 53729U 55316  55945M 55951M
                                                 55957M 56024M 56123M 56207M 56237M 56247M 56332M 56397M 56446M 56480M
                                                 56525M 56550M 56560M 56590M 56620M 56665M 56690M 56715M 56775M 56898
                                                 56985M 56995U 57428  57562  59454M 59464U 59483  59589
 RM            8 00000008 FFFFFFFF A   #    1100 29242M 29243M 29243  29249M 29382M 36687M 36688M 36688  36694M 36702M
                                                 36946M 37092  39382M 39393U 40394  40549  43639M 43648  43662M 43663M
                                                 43663  43695U 44851  50761M 50771U 50794U 51069  51477  51533  51548
 RMBRANCH      1 00000000 00000000 A   T   11872 11872
 RPLAREA       4 00000020 FFFFFFE6     A    2762 49133M
 RPLBUFL       4 00000034 FFFFFFE6     A    2854 49135M
 RPLCCHAR      4 00000014 FFFFFFE6     A    2755  2758
 RPLDACB       4 00000018 FFFFFFE6     A    2760 49136M 49482M
 RPLOPTC2      4 00000038 FFFFFFE6     X    2855  2959
 RPLOPT3       1 0000002A FFFFFFE6     B    2797  2810
 RPLRBAR       8 0000003C FFFFFFE6     C    2964 49575
 RPLRLEN       4 00000030 FFFFFFE6     A    2853 49134M
 RPLSIZE       1 0000004C FFFFFFE6 A   U    2994 46808  46897
 RPLSTAT       1 0000000C FFFFFFE6     X    2673  2674
 RPLSTRID      2 00000012 FFFFFFE6     H    2752  2753
 RS            1 00000001 FFFFFFFF A   #    1016 18091M 18109U 18161M 18279M 18280  18281  18656M 18659  18661M 18664
                                                 18666M 18667  18765M 18768  18770M 18771  18869M 18872  18874M 18875
                                                 19084M 19085M 19109  19797M 19807U 21403M 21404  21416M 21417  21429M
                                                 21430  21444M 21445  22875M 22875  22876M 22877M 22877  22878  22879
                                                 23536M 23537  23546M 23546  23580  23608  23865M 23871  24966M 24967M
                                                 24968  24969M 24970M 24971  24972M 25051M 25059  25202M 25203M 25204
                                                 25267M 25268M 25269  25386M 25387  25395M 25397M 25398  25399M 25409U
                                                 25415M 25433U 25448M 25449  25521M 25522  25527M 25528  25550M 25551
                                                 25564M 25565  25566M 25571  25600M 25601M 25602M 25631  25637M 25646M
                                                 25646  25667M 25761M 26502M 26503M 26504  26505M 26506M 26507  26508M
                                                 26586M 26594  26858M 26859M 26860  26923M 26924M 26925  27041M 27042
                                                 27046M 27056U 27062M 27080U 27096M 27097  27184M 27185  27200M 27234M
                                                 27254M 27254  27255  27301M 27302  27307M 27308  27330M 27331  27367M
                                                 27368  27372M 27374  28145M 28146M 28147  28148M 28149M 28150  28151M
                                                 28229M 28237  28606M 28607M 28608  28717M 28718M 28719  28818M 28819M
                                                 28821M 28822  28897M 28898  28938M 28948U 28954M 28972U 28987M 28988
                                                 29049M 29050  29057M 29091M 29111M 29111  29112  29157M 29158  29163M
                                                 29164  29186M 29187  29225M 29226  29269M 29270M 29270  29283M 29285
                                                 29630M 29639M 29639  30134M 30135M 30135  30187M 30193  30205M 30215
                                                 30303M 30304  30334M 30335  30348M 30349  31062M 31063  31064M 31065
                                                 31956M 31965M 31965  31971M 31972  32018M 32018  32047M 32072  32789M
                                                 32808M 32808  32822  32875  33104M 33124  33139M 33140  33895M 33945M
                                                 34313M 34363M 34714M 34715  34716M 34717  35085M 35086  35087M 35088
                                                 35106U 35399M 35400M 35428U 35452M 35461M 35461  35524U 36132M 36132
                                                 36133M 36142M 36142  36176  36253  36267  36386  36562  36893M 36893
                                                 36919M 36927  36940  38406M 38407M 38431U 38455M 38493U 38760M 38780
                                                 38785M 38785  38786M 38799  38894  39262M 39263M 39263  39285  39382
                                                 39383  39419M 39420  39515M 39523M 39549M 39550M 39551M 39552M 39582
                                                 39587M 39599  39626M 39627M 39628  39636M 39637  39638M 39882M 39890
                                                 39891M 39911M 39919  39920M 40018M 40026  40027M 40047M 40055  40056M
                                                 41556  41962M 41964  41965M 41967  41971M 41972  41980M 41981  41986M
1IOSERV   (IOSE00) (09:40) (22MAR04) Ordinary Symbol and Literal Cross Reference                                            Page  399
                                                 42611M 42613M 42647M 42681M 42682  42687M 43415M 43416M 43416  43438
                                                 43551M 43552  43594M 43992M 44000  44001M 44196M 44204  44205M 44369M
                                                 44377  44378M 44514M 44522  44523M 45225M 45226  45252M 45358M 45367M
                                                 45367  45401  45429  45913M 45914  45918M 45919  45964M 45965M 45986
                                                 46196M 46197M 46198  46773M 46774  46996M 47087M 47096M 47096  47130
                                                 47158  47415M 47416M 47417  47434U 48602M 48603M 48627U 48651M 48689U
                                                 48996M 48997M 49028M 49118M 49128U 49171  49896M 49897  49902M 49903
                                                 49914U 49969M 49970  49997U 50030M 50031  50068M 50069  50080U 50113M
                                                 50114  50125U 50158M 50159  50170U 50203M 50204  50215U 50249M 50250
                                                 50261U 50294M 50295  50306U 50338M 50339  50380M 50381  50446M 50456U
                                                 50904M 50904  50908M 50909M 50909  50921  50928M 50933  50934  51836M
                                                 51853U 51865M 51865  51883  51898M 52014M 52023M 52023  52065  52251M
                                                 52268U 52284M 52284  52306  52321M 52764M 52765M 52789U 52813M 52851U
                                                 53316M 53317  53359M 53442M 53451M 53451  53485  53513  53918M 53928U
                                                 53952M 53960M 54001M 54001  54010  54026M 54035  54106M 54107  54108M
                                                 54109  54578M 54578  54585M 54623  54635M 54645U 54651M 54669U 54675M
                                                 54693U 54728M 54738U 54744M 54753  54815  55005M 55015U 55127M 55128
                                                 55949M 55950  55955M 55956  55967U 56022M 56023  56034U 56121M 56122
                                                 56133U 56205M 56206  56217U 56235M 56236  56245M 56246  56257U 56330M
                                                 56331  56342U 56395M 56396  56407U 56444M 56445  56478M 56479  56490U
                                                 56523M 56524  56548M 56549  56558M 56559  56570U 56588M 56589  56600U
                                                 56618M 56619  56630U 56663M 56664  56688M 56689  56713M 56714  56755M
                                                 56756  56820M 56830U 57388M 57389M 57413U 57437M 57475U 58013M 58023U
                                                 58029M 58048  58550M 58556M 58557  58558M 58559  58869M 58870  58871M
                                                 58872  58873M 58874  58879M 58881M 59966M 59967  59970M 59971  60015M
                                                 60016  60316
 RSMLOCK       1 00000000 00000000 A   T   10126 10126
 RTCB        176 00000000 FFFFFFBB     J   15401 18085U 19026U 19290U 21271U 22498U 22796U 23086U 23360U 23647U 24839U
                                                 26371U 28014U 29971U 30744U 31346U 31665U 33153U 33496U 33822U 34240U
                                                 34917U 35326U 37509U 38121U 38330U 39249U 40901U 41481U 43402U 48526U
                                                 50828U 51761U 52172U 53277U 54905U 57312U 59493U 60223U
 RTCBBUFR      4 000000AC FFFFFFBB     A   15394 39262  39285M 39795  39839  40091  43415  43438M 43873  44366  44436
 RTCBCBAT      4 00000004 FFFFFFBB     A   15346 18091  19296  21277  22504  22802  23092  23366  23653  29977  30750
                                                 31352  31671  33502  34923  35332  37515  38127  38336  48532  50834
                                                 51767  52178  54911  57318  59499  60229
 RTCBIOT       4 000000A8 FFFFFFBB     A   15390 19032M 24845  26377  28020  33159  33828  34246  40337  40907  41487
 RTCBR         9 00000009 FFFFFFFF A   #    1124 18085U 19026U 19290U 21271U 22498U 22796U 23086U 23360U 23647U 24839U
                                                 26371U 28014U 29971U 30744U 31346U 31665U 33153U 33496U 33822U 34240U
                                                 34917U 35326U 37509U 38121U 38330U 39249U 40901U 41481U 43402U 48526U
                                                 50828U 51761U 52172U 53277U 54905U 57312U 59493U 60223U
 RTCBTCB       4 00000014 FFFFFFBB     A   15352 53281
 RVR           0 00000000 FFFFFFFF A   #    1004 17987  18159  18192  18215  18235  18255  18275  18302  18335  18358
                                                 18381  18430  18463M 18464  18479  18575M 18592M 18609M 18626M 18650M
                                                 18650  18684M 18701M 18718M 18735M 18759M 18759  18788M 18805M 18822M
                                                 18839M 18863M 18863  18983M 18984  18999  19064  19079  19133  19157
                                                 19173  19370M 19387M 19472M 19489M 19531M 19548M 19648M 19859M 19876M
                                                 19918M 19935M 20035M 20172M 20189M 20231M 20248M 20348M 20489M 20506M
                                                 20548M 20565M 20665M 20815M 20832M 20874M 20891M 21109M 21126M 22174
                                                 22284  22410M 22411  22430  22568M 22569  22584M 22585  22590M 22708M
                                                 22709  22728  22866M 22867  22890M 22891  22899M 22998M 22999  23018
                                                 23156M 23157  23172M 23173  23178M 23272M 23273  23292  23430M 23431
                                                 23446M 23447  23452M 23610  23795M 23796M 23797  23858M 23859M 23860
                                                 23873  23874  23961M 24387M 24412M 24412  24450M 24451  24453M 24882M
                                                 24883  24890M 24891  24896  25078M 25079  25084M 25085  25100M 25100
                                                 25128  25662M 25663  25678M 25776M 25776  26417M 26418  26425M 26426
                                                 26431  26613M 26614  26619M 26620  26756M 26756  26785  28060M 28061
                                                 28068M 28069  28074  28256M 28257  28262M 28263  28399M 28399  28532
                                                 29283  29925M 30093M 30167M 30168  30187  30188  30265  30626M 30901
                                                 30967M 30968  30987  31267M 31812  31821M 32288M 32288  33104  33199M
1IOSERV   (IOSE00) (09:40) (22MAR04) Ordinary Symbol and Literal Cross Reference                                            Page  400
                                                 33200  33207M 33208  33213  33264M 33265  33270M 33271  33286M 33286
                                                 33563M 33564  33645M 33646  33689M 34061M 34483M 34601M 34746  34755M
                                                 34755  34790M 34984M 34985  35065  35183M 35184  35189M 35393M 35394
                                                 35556M 35557  35619M 35620  36367M 36368  36380  36437M 36438  36453M
                                                 36454M 36455  36462M 36462  36463  36543M 36544  36556  36844M 36845M
                                                 36846  36946  37092M 37470M 37471  37486  37859M 37860  37879M 38082M
                                                 38083  38098  38304M 38305  38400M 38401  38525M 38526  38578M 38579
                                                 38595M 39365M 39376  39553M 39745M 39745  39755M 39862M 39863  39943M
                                                 39943  39998M 39999  40103M 40103  40144  40249M 40318M 40372M 40373
                                                 40380M 40381  40386  40442M 40443  40448M 40449  40468M 40468  40489
                                                 40555M 40944M 40945  40952M 40953  40958  41271M 41272  41277M 41278
                                                 41293M 41293  41525M 41526  41533M 41534  41539  41575M 41576  41581M
                                                 41582  41610M 41610  41935M 41936  41948  42019M 42077M 42284  42350
                                                 42383M 42394M 42521M 42521  42686M 42687  42709M 42709  43003M 43004
                                                 43143  43148M 43469M 43470  43492  43550  43626M 43627  43639  43872M
                                                 43872  43988M 43988  44027M 44027  44095M 44095  44147M 44148  44228M
                                                 44228  44550M 44550  44588  44786M 44787  44791M 44792  45135M 45136
                                                 45158  45222  45300M 45301  45313  45456  45483M 45484  45488M 45489
                                                 45567M 45568  45682M 45683  46063M 46219M 46220M 46424  46692M 46693
                                                 46715  46772  46808M 46809  46821  46842M 46843  46855  46949M 46950
                                                 47022M 47023  47035  47186  47213M 47214  47218M 47219  47460  47495M
                                                 47496  47508  47529M 47530  47542  47660M 47661  47699M 47700  47712
                                                 47765  47803M 47804  47853M 47854  47918M 48307M 48308  48320  48372
                                                 48406M 48407  48435M 48436  48509  48596M 48597  48721M 48722  48760M
                                                 48761  48777M 48994  49280M 49280  49582M 49582  49860M 49861  49876
                                                 50389  50400  50509M 50510  50523M 50692M 50693  50708  50741M 50742
                                                 50761  50898M 50899  50943M 50944  51005  51067M 51068  51107M 51108
                                                 51177M 51178  51193  51218M 51219  51231  51271M 51272  51287  51333M
                                                 51334  51409M 51410  51439M 51440  51475M 51476  51526M 51527  51542M
                                                 51543  51549M 51549  51582M 51830M 51831  51917M 51918  52059M 52066
                                                 52074M 52245M 52246  52340M 52341  52544M 52545  52560  52642M 52643
                                                 52678M 52679  52715M 52716  52758M 52759  52883M 52884  52923M 52924
                                                 52940M 53193M 53194  53216  53315  53385M 53386  53398  53539  53567M
                                                 53568  53572M 53573  53846  53894M 53894  53917  53918  54068M 54069
                                                 54084  54180M 54181  54232M 54233  54245  54284M 54285  54297  54391
                                                 54429M 54430  54479M 54480  54550M 54551  54622M 54867  54868  54873
                                                 55078  55079  55136  55328M 55856M 55856  55864  55910M 55911  55926
                                                 56764  56775  56884M 56885  56898M 57093M 57094  57106  57158  57192M
                                                 57193  57221M 57222  57295  57382M 57383  57507M 57508  57560M 57561
                                                 57577M 57814M 57815  57827  57870  57900M 57901  57907M 58081M 58263M
                                                 58263  58294M 58302M 58303  58317M 58317  58523M 58524  58536  58632M
                                                 58633  58639M 58838M 58839  58851  58949M 58950  59265M 59276M 59441M
                                                 59442  59454  59587M 59588  59594M 59795M 60043M
 RX            6 00000006 FFFFFFFF A   #    1076 18159M 18160  23537M 23730  23750  23813  23899  23927  24132M 24133M
                                                 24153  24223U 24737M 24747U 24946U 25291U 26196M 26206U 26482U 26724
                                                 26948U 27832M 27842U 28125U 28367  28468U 28792U 30023M 30039M 30040M
                                                 30040  30114M 30193M 31899M 31909U 32193M 32203U 32713M 32723U 32867
                                                 32960M 32970U 33227  33389M 33399U 33615  33681  33782M 33792U 34151M
                                                 34161U 34568M 34578U 34686M 34696U 34880M 34890U 35057  35112  35130
                                                 35332M 35350U 35356M 35374U 36046M 36056U 36314  36426  36602  36876M
                                                 36889  37298M 37308U 38336M 38354U 38360M 38378U 38707M 38717U 38779
                                                 39290M 39300U 40817M 40827U 41005U 41068U 41131U 41195U 41410M 43740M
                                                 43750U 45573M 45583U 45599  45646  45658M 46156M 46166U 46301M 46311U
                                                 46392  47460M 47747M 47765M 47821M 47821  47879M 47879  47918  48532M
                                                 48550U 48556M 48574U 49089M 49101M 49101  49107M 49109M 49134  49135
                                                 49236  49576M 49577M 49876M 49887U 50511  51005M 51139M 51139  51299M
                                                 51358M 51358  51575M 51575  51767M 51785U 51791M 51809U 52178M 52196U
                                                 52202M 52220U 53795M 53805U 53827  54504M 54517U 55926M 55929  55941U
                                                 56182U 56886  57318M 57336U 57342M 57360U 57827M 57837U 57902  59735M
1IOSERV   (IOSE00) (09:40) (22MAR04) Ordinary Symbol and Literal Cross Reference                                            Page  401
                                                 59736  59753U 59810U 59979M 59980  60000U 60058U
 RY            7 00000007 FFFFFFFF A   #    1088 17987M 17997U 18115  18329  18352  18375  18424  18999M 19009U 19032
                                                 19296M 19314U 19320M 19338U 19506  21277M 21295U 21301M 21319U 22504M
                                                 22522U 22528M 22546U 22802M 22820U 22826M 22844U 23092M 23110U 23116M
                                                 23134U 23366M 23384U 23390M 23408U 23653M 23671U 23677M 23695U 24723M
                                                 24733U 26182M 26192U 26725  27818M 27828U 28368  29977M 29995U 30001M
                                                 30019U 30750M 30768U 30774M 30792U 30937  31352M 31370U 31376M 31394U
                                                 31671M 31689U 31695M 31713U 32773M 32783U 32868  32974M 32984U 33403M
                                                 33413U 33796M 33806U 34165M 34175U 34700M 34710U 34894M 34904U 36115M
                                                 36125U 36315  36334  36386M 36399U 36562M 36575U 36920  37077  37312M
                                                 37322U 38721M 38731U 39304M 39314U 39414  40803M 40813U 41396M 41406U
                                                 41878M 41888U 41903M 41903  41948M 41949  42465M 42475U 42499M 42499
                                                 42772M 42781M 42781  42803U 43005  43078M 43088U 43492M 43524U 45158M
                                                 45190U 45357  45839M 45849U 46715M 46747U 47079  48879M 48889U 49387M
                                                 49397U 49817M 49827U 50834M 50852U 50858M 50876U 53216M 53248U 53705M
                                                 53715U 53791U 55451M 55461U 55771M 55781U 59499M 59517U 59523M 59541U
 R0            0 00000000 FFFFFFFF A   #     708 17487M 17487  17588M 17600  17610M 17610  17615  17631M 17633M 17635M
                                                 17636M 17637  17648M 17655  17678M 17926  17974M 17975  18009U 18146M
                                                 18147  18935  19244  21243  21586M 21587  21683M 21684  21878  21961
                                                 22044  22129  22239  22349  22647  22953  23227  23504  24082  24686
                                                 26145  27781  29385M 29386M 29387  29396M 29396  29421M 29422M 29423
                                                 29860  30423M 30424M 30426  30611M 30612M 30614  30703  31318  31634
                                                 31805M 31806  31867  32161  32250  32260M 32681  32923  33357  33745
                                                 34114  34223M 34224M 34226  34536  34649  34843  35250  36014  36709M
                                                 36710M 36711  36720M 36720  37261  37960  38670  39208  40771  41364
                                                 41846  42045  42052M 42053  42446  42753  43059  43107  43114M 43115
                                                 43361  45077  45793  46124  46269  46634  47284  47730  47737M 47738
                                                 47974  48167  48338  48345M 48346  48833  49341  49785  50634  51720
                                                 52131  53135  53673  54315  54322M 54323  55401  55739  56953  57124
                                                 57131M 57132  57748  57958  58038M 58039M 58040M 58149  58188U 58465
                                                 58780  59086  59144U 59380  59695  59925  60142  60195
 R1            1 00000001 FFFFFFFF A   #     721 17408  17469M 17478M 17478  17631M 17637  17648M 17656  18903M 19188M
                                                 21211M 21710M 21932M 22015M 22098M 22208M 22318M 22615M 22924M 23198M
                                                 23472M 23986M 24483M 25884M 27520M 29761M 30421M 30422M 30424  30592M
                                                 30602M 30612  30661M 31287M 31594M 31836M 32126M 32252M 32313M 32892M
                                                 33326M 33714M 34086M 34204M 34214M 34224  34479  34508M 34621M 34815M
                                                 35219M 35657M 37126M 37914M 38627M 39033M 40594M 41333M 41635M 42414M
                                                 42560  42561M 42567  42724M 43028M 43163M 44901M 45726M 46093M 46240M
                                                 46449M 47253M 47943M 48136M 48802M 49310M 49617M 50545M 51613M 52099M
                                                 52965M 53607M 55370M 55492M 56922M 57599M 57927M 58096M 58345M 58659M
                                                 58975M 59295M 59483M 59557  59609M 59780M 59839M 60029M 60099M 60140U
                                                 60143  60549M
 R10          10 0000000A FFFFFFFF A   #     838 17732M 17732
 R11          11 0000000B FFFFFFFF A   #     851 17728M 57859  57869M 58046  58047M 58048M 58075M
 R13          13 0000000D FFFFFFFF A   #     877 60143M 60161U
 R14          14 0000000E FFFFFFFF A   #     890 17429  17655M 17665M 17672M 17677M 17678  17787M 17794  17797M 18012M
                                                 18056U 21531M 21534  21643M 21646  25679M 25680M 25681M 25710  25715M
                                                 25727  25733M 25734M 25735M 25737  29310M 29335M 29336  29486M 29530M
                                                 29531  29579M 29581  29586M 29591  30046M 30054M 30064  30375M 30385U
                                                 30391M 30411U 30532M 30542U 30548M 30568U 30833M 30836  31107M 31114
                                                 31117M 31155M 31162  31165M 31457M 31460  31503M 31510  31512M 31540M
                                                 31547  31550M 31741M 31744  33915M 33944M 34333M 34362M 35506M 35530
                                                 38475M 38499  42132M 42168M 42680M 42683M 42685M 46171M 46181M 46197
                                                 46315M 46325U 46355  48671M 48695  49005M 49006M 49008M 52833M 52857
                                                 54584M 54585  54757M 54757  54778  54779M 54791  54873M 55927M 55931M
                                                 56069M 57457M 57481  58074M 60153M 60163M 60171B
 R15          15 0000000F FFFFFFFF A   #     903 17407  17488M 17498U 17504M 17522U 17656M 17733M 17743U 17787M 17796
                                                 17926  18011M 18021  18031U 18037M 18046  18903M 18935  19188M 19244
                                                 20946M 21211M 21243  21532M 21533M 21644M 21645M 21710M 21878  21932M
1IOSERV   (IOSE00) (09:40) (22MAR04) Ordinary Symbol and Literal Cross Reference                                            Page  402
                                                 21961  22015M 22044  22098M 22129  22208M 22239  22318M 22349  22615M
                                                 22647  22924M 22953  23198M 23227  23472M 23504  23986M 24082  24483M
                                                 24686  25632M 25633  25660M 25661  25671M 25671  25710  25733  25736M
                                                 25737  25762M 25884M 26145  27207M 27219  27229M 27229  27234  27404M
                                                 27405M 27406M 27435  27520M 27781  29064M 29076  29086M 29086  29091
                                                 29303M 29304  29309M 29310  29311M 29313M 29315M 29332M 29333  29334M
                                                 29335  29352  29424M 29432M 29455M 29456M 29457M 29506  29528M 29532M
                                                 29533  29537M 29538M 29539  29586M 29591  29761M 29860  30047M 30064
                                                 30198M 30215  30420M 30423  30426M 30591M 30592  30593M 30595  30610M
                                                 30611  30614M 30661M 30703  30834M 30835M 31008M 31009  31027M 31028
                                                 31031M 31032  31067M 31077U 31083M 31092  31093  31107M 31116  31155M
                                                 31164  31287M 31318  31458M 31459M 31503M 31540M 31549  31594M 31634
                                                 31742M 31743M 31836M 31867  32000M 32048M 32126M 32161  32250  32260M
                                                 32313M 32681  32892M 32923  33326M 33357  33451  33460M 33460  33714M
                                                 33745  33914M 33926M 33935M 33935  33988  34000M 34000  34019  34033
                                                 34086M 34114  34203M 34204  34205M 34207  34222M 34223  34226M 34332M
                                                 34344M 34353M 34353  34406  34418M 34418  34437  34451  34508M 34536
                                                 34600  34621M 34649  34815M 34843  35219M 35250  35657M 36014  36743M
                                                 36751M 36774M 36775M 36776M 36806M 36807M 36808M 36809  36810M 37126M
                                                 37261  37914M 37960  38627M 38670  38819M 38820M 38821  38848M 38849M
                                                 38850  38907M 38908M 38909  38936M 38937M 38938  39033M 39208  39889M
                                                 39890M 39891  39918M 39919M 39920  40025M 40026M 40027  40054M 40055M
                                                 40056  40594M 40771  41333M 41364  41635M 41723M 41740M 41749B 41846
                                                 42045  42071M 42071  42131M 42143M 42143  42166M 42182M 42182  42197M
                                                 42199  42309M 42310M 42311  42335  42414M 42446  42560  42585M 42601M
                                                 42602M 42611  42624M 42624  42649M 42668M 42668  42684  42724M 42753
                                                 42832M 42853  43028M 43059  43107  43124  43163M 43361  43999M 44000M
                                                 44001  44203M 44204M 44205  44376M 44377M 44378  44521M 44522M 44523
                                                 44901M 45077  45223M 45224  45726M 45793  45944  46093M 46124  46170M
                                                 46171  46172M 46174  46189M 46196  46198M 46218M 46220  46240M 46269
                                                 46315M 46331  46349U 46449M 46634  47253M 47284  47608M 47608  47730
                                                 47747  47943M 47974  48136M 48167  48338  48802M 48833  48998M 49045M
                                                 49045  49172M 49182U 49204M 49213M 49213  49310M 49341  49508M 49518U
                                                 49540M 49549M 49549  49617M 49785  50545M 50634  51299  51613M 51720
                                                 52099M 52131  52579  52965M 53135  53607M 53673  53961M 53971U 53977M
                                                 53995U 54010M 54020U 54315  54530M 54531  54541U 54552M 54570U 54621M
                                                 54777M 54778  54872M 54957M 54975M 54975  54999  55000  55370M 55401
                                                 55492M 55739  55836M 55837  55928M 55930  56068M 56093M 56112M 56112
                                                 56137  56147M 56149  56922M 56953  57124  57599M 57748  57927M 57958
                                                 58049M 58059U 58065M 58096M 58149  58345M 58465  58571  58659M 58780
                                                 58895M 58895  58975M 59086  59146M 59164U 59170M 59198  59236  59265
                                                 59295M 59380  59469M 59470  59557  59609M 59695  59795  59839M 59925
                                                 60043  60099M 60142  60144M 60152  60195  60402  60472  60549M
 R2            2 00000002 FFFFFFFF A   #     734 17638M 17646U 17774M 17785U 58041M 59469M 59470  60163M
 R3            3 00000003 FFFFFFFF A   #     747 17429M 17853B 60144M 60152M 60153B
 R4            4 00000004 FFFFFFFF A   #     760 17418M 17426U 17797
 R5            5 00000005 FFFFFFFF A   #     773 17408M 17416U 17795M 17796M
 R9            9 00000009 FFFFFFFF A   #     825 17405U 17407M 57859  57869M 58046  58075M
 SALCLOCK      1 00000000 00000000 A   T   10106 10106
 SBTDATA       4 00000000 FFFFFFB2     A   15943 43528  45201  46751  53252
 SBTPARM       4 00000000 FFFFFFB2     J   15950 43388U 45104U 46661U 53162U
 SCCLOSE       4 00002748 00000001     I   33357 32644  33368U
 SCCWCE        8 00001F50 00000001     W   27737 27739  27739
 SCCWD         8 00001F80 00000001     W   27749 27751  27751
 SCCWEXT      16 00001F50 00000001     X   27739 28893  28893
 SCCWM21       8 00001F30 00000001     W   27729 29048
 SCCWPFX      16 00001F40 00000001     X   27735 29156  29156
 SCCWRD        8 00001F60 00000001     W   27741 28643
 SCCWRU        8 00001F68 00000001     W   27743 28626
1IOSERV   (IOSE00) (09:40) (22MAR04) Ordinary Symbol and Literal Cross Reference                                            Page  403
 SCCWSEC       8 00001F38 00000001     W   27731 29185
 SCCWSK        8 00001F40 00000001     W   27733 27735  27735
 SCCWSW       16 00001F80 00000001     X   27751 29507  29507
 SCCWTIC       8 00001F90 00000001     W   27753 29302
 SCCWWD        8 00001F70 00000001     W   27745 28754
 SCCWWU        8 00001F78 00000001     W   27747 28737
 SCINFO        4 000029E2 00000001     I   34649 32651  34660U
 SCIOINBL      4 00000004 FFFFFF6C     A   32555 34715M 34717M 34724M 34744
 SCIOINFO      4 00000008 FFFFFF6C     A   32556 34714  34777  34780
 SCIOWORK     29 00000000 FFFFFF6C     J   32574 32957U 33779U 34148U 34683U 34877U
 SCMFMAX       1 00000004 00000001 A   U   45765 45742
 SCNTFY        4 00002A64 00000001     I   34843 32652  34854U
 SCOMCLS       4 00002B1A 00000001     I   35250 35261U 35679  46464
 SCOMFLG       4 00004648 00000001     I   46124 35682  46135U 46465
 SCOMFUNC      4 00004710 00000001     A   45763 45429  45765
 SCOMIO        4 000025C4 00000001     I   32681 25911  32692U
 SCOMMAX       1 00000028 00000001 A   U   32653 35671
 SCOMNTFY      4 0000469E 00000001     I   46269 35677  45746  46280U
 SCOMOPEN      4 00004590 00000001     I   45793 45764  45804U
 SCOMTAB       4 00002C04 00000001     A   32642 32653  32875
 SCOMTASK      4 000043D0 00000001     I   45077 21748  45088U
 SCOPEN        4 00002652 00000001     I   32923 32643  32934U
 SCPOST        4 000029A0 00000001     I   34536 32650  34547U
 SCRECV        4 000028BE 00000001     I   34114 32646  34125U
 SCSEND        4 000027FE 00000001     I   33745 32645  33756U
 SCSTWORK     28 00000000 FFFFFF56     J   43218 45135  45190U 45200M 45200  45849U
 SCTECBL       4 00000004 FFFFFF56     U   43207 45249
 SCTIOCT       4 00000010 FFFFFF56     A   43209 45201M 45535
 SCTMCHN       4 00000000 FFFFFF56     A   43204 45222M 45300  45483
 SCTMECBP      4 00000004 FFFFFF56     A   43205 43207  45224M 45252
 SCTPATH       4 00000018 FFFFFF56     A   43211 45919M 45926M 45942
 SCTPECB       4 0000000C FFFFFF56     A   43208 45225  45522  45534M 45534  45913
 SCTPECBP      4 00000008 FFFFFF56     A   43206 45226M 45233M
 SDB          88 00000000 FFFFFF8F     J   17194 18279  21357U 23272  23302U 23312M 23312  23345U 32970U 33399U 33792U
                                                 34161U 34205  34205  34222  34222  34226M 34226M 34578U 34696U 34890U
                                                 35085  35106U 35123U 35292U 35301U 35428U 35493U 35524U 35541U 35586M
                                                 35586  35619  35684  45583U 45587  45863U 45872U 46166U 46172  46172
                                                 46189  46189  46198M 46198M 46218  46218  46311U 46325U 46349U
 SDBBP         4 0000000C FFFFFF8F     A   17111 35088M 46331M
 SDBCHN        4 00000014 FFFFFF8F     A   17113 21379  23436M 35443  35452  35506  35530M 35684
 SDBFLGS       1 0000001D FFFFFF8F     R   17118 17122
 SDBFNTFY    128 0000001D FFFFFF8F        17122 33581  35002  35151M 46377M
 SDBFP         4 00000008 FFFFFF8F     A   17110 18279  35085  35086M 35112M 45587  45605  46315  46355M 46370M 46370
 SDBPFL        1 0000001C FFFFFF8F     X   17115 33139  33593M 34205  34205  34222  34226M 35037  45619  46172  46172
                                                 46189  46198M 46218  46218
 SDBRQID       4 00000010 FFFFFF8F     A   17112 35145M 46425
 SDWA          1 00000000 FFFFFFC5     J   14231 15227  15257
 SDWACLEN      8 000001C8 FFFFFFBD A   U   15230 15237  15238
 SDWADEND      8 000000F0 FFFFFFBD     D   15224 15234
 SDWADLEN      8 000000F0 FFFFFFBD A   U   15234 15235
 SDWAEEND      8 00000150 FFFFFFC1     D   15175 15236
 SDWAELEN      8 00000150 FFFFFFBD A   U   15236 15237  15238  15245
 SDWAEND       8 00000298 FFFFFFC5     D   14870 15227
 SDWAIEND      8 00000010 FFFFFFC3     D   15097 15231
 SDWAILEN      8 00000010 FFFFFFBD A   U   15231 15237  15238
 SDWALEN       8 00000298 FFFFFFBD A   U   15227 15238
 SDWALEND      8 00000020 FFFFFFC2     D   15145 15232
 SDWALLEN      8 00000020 FFFFFFBD A   U   15232 15237  15238
 SDWAMLEN      8 00000600 FFFFFFBD A   U   15239 15242  15248
1IOSERV   (IOSE00) (09:40) (22MAR04) Ordinary Symbol and Literal Cross Reference                                            Page  404
 SDWAMLNP      8 000005E0 FFFFFFBD A   U   15238 15239
 SDWANLNS      8 000001F0 FFFFFFBD A   U   15235 15242  15250
 SDWANRC1      1 00000000 FFFFFFBF     J   15199 15229
 SDWANRC2      1 00000000 FFFFFFBE     J   15208 15233
 SDWANRC3      1 00000000 FFFFFFBD     J   15221 15234
 SDWAPEND      8 00000020 FFFFFFC0     D   15193 15228
 SDWAPLEN      8 00000020 FFFFFFBD A   U   15228 15239
 SDWAPTRS      1 00000000 FFFFFFC0     J   15184 15228
 SDWARC1       1 00000000 FFFFFFC4     J   14872 15230
 SDWARC2       1 00000000 FFFFFFC3     J   15091 15231
 SDWARC3       1 00000000 FFFFFFC2     J   15103 15232
 SDWARC4       1 00000000 FFFFFFC1     J   15153 15236
 SDWAREND      8 000000F0 FFFFFFBF     D   15201 15229
 SDWARLEN      8 000000F0 FFFFFFBD A   U   15229 15235
 SDWASEN       8 00000010 FFFFFFBE     D   15214 15233
 SDWASEND      8 000001C8 FFFFFFC4     D   15085 15230
 SDWASLEN      8 00000710 FFFFFFBD A   U   15248 15250
 SDWASPL       8 00000010 FFFFFFBD A   U   15233 15235
 SDWATLEN      8 000007F0 FFFFFFBD A   U   15242 15245
 SDWATRAN      4 00000074 FFFFFFC5     A   14393 14395
 SEEKLOOP      2 000024B8 00000001     I   32023 32048B
 SEG           1 00000000 00000009     T   21760 21760
 SEGCORE       1 00000000 0000000B     T   21762 21762
 SEGHEX        1 00000000 0000000A     T   21761 21761
 SETSEEK       6 000024E2 00000001     I   32061 32037B
 SNAPDCB       4 0000547C 00000001     F   51660 51246  51697
 SNAPDCBE      4 00005444 00000001     F   51638 51195  51654
 SNAPDELN      1 00000038 00000001 A   U   51654 51177  51195  51439  52715
 SNAPDLEN      1 00000060 00000001 A   U   51697 51218  51246  51409  52678
 SNDB         28 00000000 FFFFFF92     J   16934 50741  50771U 50781M 50781  50813U 51067  51475  51853U 51936U 51960U
                                                 52268U 52360U 52421U 52789U 52823U 52851U 52868U 52923  57642
 SNDBCHN       4 00000008 FFFFFF92     A   16924 51532M 51898  52321  52804  52813  52833  52857M 57642
 SNDBDCB       4 0000000C FFFFFF92     A   16925 51232M 52014  52473  52691M 52691
 SNDBDCBE      4 00000018 FFFFFF92     A   16927 51194M 51419  52695  52735M 52735
 SNDBDDN       8 00000010 FFFFFF92     C   16926 50965M 51247
 SNDPALLO      4 00005158 00000001     I   50634 50629  50645U
 SNDPCLS       4 00005602 00000001     I   52131 52126  52142U
 SNDPWRT       4 000054E8 00000001     I   51720 51715  51731U
 SPAWN         1 00000000 00000005     T   21747 21747
 SPR          13 0000000D FFFFFFFF A   #    1172 17569M 17579U 17926  17941  17942  17944M 17958U 18178U 18318U 18448U
                                                 18554U 18935  18950  18951  18953M 18968U 19057U 19100U 19150U 19244
                                                 19259  19260  19280M 19353U 19616U 19708U 20003U 20101U 20316U 20414U
                                                 20633U 20731U 20960U 21024U 21243  21258  21259  21261M 21401U 21570U
                                                 21878  21893  21894  21896M 21906U 21961  21976  21977  21979M 21989U
                                                 22044  22059  22060  22062M 22072U 22129  22144  22145  22147M 22157U
                                                 22239  22254  22255  22257M 22267U 22349  22364  22365  22380M 22395U
                                                 22563U 22647  22662  22663  22678M 22693U 22861U 22953  22968  22969
                                                 22971M 22983U 23151U 23227  23242  23243  23245M 23257U 23425U 23504
                                                 23519  23520  23535M 24082  24097  24098  24113M 24143U 24686  24701
                                                 24702  24722M 24877U 25073U 25307U 25818U 26145  26160  26161  26181M
                                                 26333U 26412U 26608U 26714U 26964U 27459U 27781  27796  27797  27817M
                                                 27976U 28055U 28251U 28357U 28808U 29710U 29860  29875  29876  29891M
                                                 30152U 30453U 30476U 30703  30718  30719  30721M 30885U 30952U 31318
                                                 31333  31334  31336M 31634  31649  31650  31652M 31791U 31867  31882
                                                 31883  31898M 32161  32176  32177  32192M 32681  32696  32697  32712M
                                                 32858U 32923  32938  32939  32959M 33076U 33194U 33259U 33357  33372
                                                 33373  33388M 33558U 33606U 33640U 33672U 33745  33760  33761  33781M
                                                 34114  34129  34130  34150M 34536  34551  34552  34567M 34649  34664
                                                 34665  34685M 34843  34858  34859  34879M 34979U 35055U 35178U 35250
1IOSERV   (IOSE00) (09:40) (22MAR04) Ordinary Symbol and Literal Cross Reference                                            Page  405
                                                 35265  35266  35281M 35388U 35604U 36014  36029  36030  36045M 36305U
                                                 37261  37276  37277  37297M 37455U 37844U 37960  37975  37976  37996M
                                                 38067U 38289U 38395U 38563U 38670  38685  38686  38706M 38770U 39208
                                                 39223  39224  39239M 40367U 40437U 40771  40786  40787  40802M 40939U
                                                 41266U 41364  41379  41380  41395M 41520U 41570U 41846  41861  41862
                                                 41877M 41920U 42043U 42326U 42446  42461  42462  42464M 42753  42768
                                                 42769  42771M 42844U 42954U 42988U 43059  43074  43075  43077M 43105U
                                                 43361  43376  43377  43392M 43454U 43543U 43576U 43621U 43896  43897M
                                                 43984M 44096M 44293  44294M 44327M 44440  44441M 44513M 44742U 44781U
                                                 45077  45092  45093  45108M 45120U 45215U 45295U 45347U 45447U 45478U
                                                 45562U 45637U 45677U 45793  45808  45809  45824M 45977U 46042U 46124
                                                 46139  46140  46155M 46269  46284  46285  46300M 46390U 46415U 46634
                                                 46649  46650  46665M 46677U 46765U 46793U 46934U 46978U 47017U 47069U
                                                 47177U 47208U 47284  47299  47300  47315M 47406U 47480U 47645U 47684U
                                                 47728U 47788U 47897U 47974  47989  47990  48005M 48093U 48167  48182
                                                 48183  48198M 48292U 48336U 48391U 48492U 48591U 48745U 48833  48848
                                                 48849  48864M 48973U 49161U 49262U 49341  49356  49357  49372M 49497U
                                                 49785  49800  49801  49816M 49845U 50371U 50494U 50634  50649  50650
                                                 50665M 50677U 50893U 50981U 51052U 51162U 51318U 51521U 51720  51735
                                                 51736  51751M 51825U 52131  52146  52147  52162M 52240U 52529U 52627U
                                                 52753U 52908U 53135  53150  53151  53166M 53178U 53308U 53341U 53380U
                                                 53419U 53530U 53562U 53673  53688  53689  53704M 53818U 53869U 54053U
                                                 54097U 54165U 54217U 54313U 54414U 54848U 55050U 55115U 55307U 55401
                                                 55416  55417  55432M 55442U 55739  55754  55755  55770M 55827U 55895U
                                                 56746U 56869U 56953  56968  56969  56984M 57078U 57122U 57177U 57278U
                                                 57377U 57545U 57748  57763  57764  57784M 57799U 57885U 57958  57973
                                                 57974  57994M 58149  58164  58165  58180M 58465  58480  58481  58496M
                                                 58508U 58617U 58780  58795  58796  58811M 58823U 58934U 59086  59101
                                                 59102  59122M 59380  59395  59396  59411M 59426U 59572U 59695  59710
                                                 59711  59731M 59925  59940  59941  59961M 60195  60210  60211  60213M
 SRB           4 00000000 FFFFFFCE     A    9617 20148U 21072U 30998U
 SRBASCB       4 00000008 FFFFFFCE     A    9621 31004M
 SRBEND        4 0000002C FFFFFFCE     F    9683  9684
 SRBID         4 00000000 FFFFFFCE     C    9618 31003M
 SRBPARM       4 0000001C FFFFFFCE     A    9639 31009M
 SRBPASID      2 0000000E FFFFFFCE     H    9626 31005M
 SRBPKF        1 00000024 FFFFFFCE     B    9646 31006M
 SRBPTCB       4 00000010 FFFFFFCE     A    9627 31007M
 SRBSECT       1 00000000 FFFFFFCE     J    9616  9684
 SRBSIZE       4 0000002C FFFFFFCE A   U    9684 16686  20035  20348
 SRTEASCI      1 00000004 FFFFFFDD A   U    6273  6274
 SRTEBSTR      1 00000004 FFFFFFDD A   U    6272  6275
 STARDL        2 0000000A FFFFFF42     H   57691 57841M
 STARFLGS      1 00000004 FFFFFF42     X   57673 57854M
 STARFUNC      1 00000080 FFFFFF42 A   U   57674 57849
 STARKL        1 00000009 FFFFFF42     X   57690 57842M
 STARR         1 00000008 FFFFFF42     X   57689 57843M
 STARTIO       4 00002534 00000001     I   32161 25930  27544  29787  30676  32172U
 STARUCBA      4 00000000 FFFFFF42     F   57669 57844M
 STIMRMAX      4 00004388 00000001     X   44913 44707
 SWAPBLD       4 00000008 FFFFFF75     A   27695 29216M 29216  29284  29285M 29694
 SWAPBLK       4 00000014 FFFFFF75     A   27698 29224M 29520  29538  29539M
 SWAPCCW       4 00000018 FFFFFF75     A   27699 28626M 28643M 28737M 28754M 29486  29506M 29586
 SWAPCNT       4 00000000 FFFFFF75     A   27693 29226M 29385  29387M 29630
 SWAPFLG       1 00000020 FFFFFF75     R   27702 27706  27909M
 SWAPIO        4 000019BC 00000001     I   27781 25899  27792U
 SWAPLIST      4 00000004 FFFFFF75     A   27694 29227M 29242  29250M
 SWAPNUM       4 0000000C FFFFFF75     A   27696 29223M 29223  29269  29333M 29352M 29421  29423M
 SWAPSEEK      4 00000010 FFFFFF75     A   27697 29336M 29528  29533M
1IOSERV   (IOSE00) (09:40) (22MAR04) Ordinary Symbol and Literal Cross Reference                                            Page  406
 SWAPWORK     33 00000000 FFFFFF75     J   27715 27815U
 SWPFBLK1    128 00000020 FFFFFF75        27706 29552  29571M
 S99ERROR      2 00000004 FFFFFFED     X    1510 59814  60062
 S99FLG11      1 00000002 FFFFFFED     C    1476 59767M 60014M
 S99INFO       2 00000006 FFFFFFED     X    1511 59815  60063
 S99NOCNV      1 00000040 FFFFFFED A   U    1481 59767  60014
 S99NOMNT      1 00000020 FFFFFFED A   U    1484 59767  60014
 S99RB         1 00000000 FFFFFFED     J    1464 59663  59753U 59763  59764M 59764  59765  59810U 59890  60000U 60010
                                                 60011M 60011  60012  60058U
 S99RBEND      1 00000014 FFFFFFED     U    1550 59663  59763  59765  59890  60010  60012
 S99RBLN       1 00000000 FFFFFFED     C    1466 59765M 60012M
 S99RBPND      1 00000080 FFFFFFEE A   U    1463 59741  59985
 S99TUENT      1 00000004 FFFFFFEB     C    1585 59892
 S99TUKEY      2 00000000 FFFFFFEB     X    1583 49936M 55989M
 S99TULNG      2 00000004 FFFFFFEB     X    1586 56137M
 S99TUNIT      1 00000000 FFFFFFEB     J    1582 49914U 49997U 50080U 50125U 50170U 50215U 50261U 50306U 50456U 55967U
                                                 56034U 56133U 56217U 56257U 56342U 56407U 56490U 56570U 56600U 56630U
                                                 56830U 59892  59893
 S99TUNUM      2 00000002 FFFFFFEB     X    1584 50001M
 S99TUPAR      1 00000006 FFFFFFEB     C    1587 49953M 50002M 50084M 50129M 50174M 50219M 50265M 50310M 50460  56006M
                                                 56040M 56156M 56223M 56278M 56299M 56363M 56413M 56496M 56576M 56606M
                                                 56636M 56834  59893
 S99TUPLN      1 00000080 FFFFFFEC A   U    1578 50356  56731  59976
 S99TXTPP      4 00000008 FFFFFFED     F    1512 59768M 60016M
 S99VERB       1 00000001 FFFFFFED     C    1467 59766M 60013M
 S99VRBAL      1 00000001 FFFFFFED A   U    1468 59766
 S99VRBUN      1 00000002 FFFFFFED A   U    1469 60013
 TCB           1 00000020 FFFFFFC7     U   13232 13931  18056U 58208U 59164U
 TCBAE         4 000000BC FFFFFFC7     A   13476 13479
 TCBDARPN      1 00000040 FFFFFFC7 A   U   13522 13524
 TCBDARTN      1 00000080 FFFFFFC7 A   U   13519 13521
 TCBFIX        1 00000000 FFFFFFC7     J   13220 13227
 TCBJSTCB      4 0000009C FFFFFFC7     A   13423 59170
 TCBMNLEN      1 00000158 FFFFFFC7 A   U   13931 13976
 TCBPKF        1 0000003C FFFFFFC7     B   13282 18062
 TCBPXLEN      1 00000020 FFFFFFC7 A   U   13227 13976
 TCBRD         4 000000B8 FFFFFFC7     A   13471 13475
 TCBTIO        4 0000002C FFFFFFC7     A   13240 58214
 TCBXTNT2      1 00000000 FFFFFFC6     J   13936 13974
 TCBX2LEN      1 00000020 FFFFFFC6 A   U   13974 13976
 TIOEDDNM      8 0000001C FFFFFFD0     C    8286 58282
 TIOEFSRT      3 00000029 FFFFFFD0     R    8326 58294
 TIOELNGH      1 00000018 FFFFFFD0     G    8243 58302
 TIOENTRY      1 00000018 FFFFFFD0     U    8242 58238  58256U
 TIOT          1 00000000 FFFFFFD0     J    8114 58232U
 TIOTSRCH      4 000064A0 00000001     I   58149 57628  58160U
 TRCELOCK      1 00000000 00000000 A   T   10130 10130
 TRKLIST      12 00000000 FFFFFF42     C   57668 57865
 UCB           1 00000000 FFFFFFDD     J    5628  5762   6168   6394   6554   6778   6892   6922  30411U 30420  30420
                                                 30422  30422  30426M 30426M 30568U 30593  30593  30610  30610  30614M
                                                 30614M 54773U
 UCBALOC       1 00000008 FFFFFFDD A   U    5844  6011
 UCBBALB       1 00000020 FFFFFFDD A   U    6188  6269
 UCBBASE       4 00000228 FFFFFFDD     A    6262 30391  30548
 UCBBNUL       1 00000001 FFFFFFDD A   U    6197  6276
 UCBBPRV       1 00000010 FFFFFFDD A   U    6190  6270
 UCBBPUB       1 00000008 FFFFFFDD A   U    6191  6271
 UCBBSTR       1 00000004 FFFFFFDD A   U    6192  6272   6273
 UCBBSVL       1 00000080 FFFFFFDD A   U    6174  6268
1IOSERV   (IOSE00) (09:40) (22MAR04) Ordinary Symbol and Literal Cross Reference                                            Page  407
 UCBCHAN       2 00000204 FFFFFFDD     G    5856 29952
 UCBCHGS       1 00000040 FFFFFFDD A   U    5834  6008
 UCBCLEXT      4 00000018 FFFFFFDC     A    6133 54675
 UCBCMEXT      1 00000000 FFFFFFDC     J    6032 54669U
 UCBCMSEG      1 00000200 FFFFFFDD     U    5773 53928U 54645U 55015U 58023U
 UCBDADI       1 00000001 FFFFFFDD A   U    5849  6014
 UCBDEV        1 00000218 FFFFFFDD     U    6022  6169   6395   6555   6571   6779   6801   6893   6923
 UCBDMCT       1 00000223 FFFFFFDD     X    6206  6277
 UCBEXTPT      4 00000214 FFFFFFDD     A    5984 54651
 UCBFLA        1 00000206 FFFFFFDD     B    5861  5862
 UCBFL1        1 00000206 FFFFFFDD     U    5862  6015
 UCBFSCT       2 00000218 FFFFFFDD     H    6396  6400
 UCBFSEQ       2 0000021A FFFFFFDD     H    6397  6401
 UCBJBNR       1 00000200 FFFFFFDD     B    5774  6004
 UCBMIHPB      1 00000040 FFFFFFDD A   U    5643 30417  30575
 UCBMIHTI      1 000001D2 FFFFFFDD     B    5639 30420  30422  30422  30426M 30593  30593  30610  30614M
 UCBMONT       1 00000001 FFFFFFDD A   U    5795  6005
 UCBNEXP       4 0000022C FFFFFFDD     A    6263 54744  54800
 UCBNRY        1 00000040 FFFFFFDD A   U    5866  5867
 UCBOB         4 00000200 FFFFFFDD     F    5769 29946U 30385U 30542U 54738U 54777
 UCBONLI       1 00000080 FFFFFFDD A   U    5833  6007
 UCBPRES       1 00000004 FFFFFFDD A   U    5845  6012
 UCBPXST       1 000001D0 FFFFFFDD     U    5633  5761
 UCBRESV       1 00000020 FFFFFFDD A   U    5839  6009
 UCBRPS        1 00000010 FFFFFFDD A   U    6294 55027
 UCBSTAB       1 00000222 FFFFFFDD     B    6173  6267
 UCBSTAT       1 00000203 FFFFFFDD     B    5832  6006
 UCBSYSR       1 00000002 FFFFFFDD A   U    5847  6013
 UCBTBYT2      1 00000211 FFFFFFDD     B    5959 55029
 UCBTBYT3      1 00000212 FFFFFFDD     B    5972 53943
 UCBTR         1 00000234 FFFFFFDD     G    6469  6471
 UCBTYP        4 00000210 FFFFFFDD     B    5949 53952  58029
 UCBUNLD       1 00000010 FFFFFFDD A   U    5841  6010
 UCBUSER       2 00000226 FFFFFFDD     G    6247  6248
 UCBVOLI       6 0000021C FFFFFFDD     C    6172  6266  53932
 UCB3DACC      1 00000020 FFFFFFDD A   U    5976 53941
 VFIXLOCK      1 00000000 00000000 A   T   10116 10116
 VPAGLOCK      1 00000000 00000000 A   T   10121 10121
 WAR          12 0000000C FFFFFFFF A   #    1160 17568M 17941  17942M 17943  17944  18903  18904  18950  18951M 18952
                                                 18953  19188  19189  19259  19260M 19261  19271U 19280  21211  21212
                                                 21258  21259M 21260  21261  21710  21711  21893  21894M 21895  21896
                                                 21932  21933  21976  21977M 21978  21979  22015  22016  22059  22060M
                                                 22061  22062  22098  22099  22144  22145M 22146  22147  22208  22209
                                                 22254  22255M 22256  22257  22318  22319  22364  22365M 22366  22376U
                                                 22380  22615  22616  22662  22663M 22664  22674U 22678  22924  22925
                                                 22968  22969M 22970  22971  23198  23199  23242  23243M 23244  23245
                                                 23472  23473  23519  23520M 23521  23531U 23535  23986  23987  24097
                                                 24098M 24099  24109U 24113  24483  24484  24701  24702M 24703  24713U
                                                 24722  25884  25885  26160  26161M 26162  26172U 26181  27520  27521
                                                 27796  27797M 27798  27808U 27817  29761  29762  29875  29876M 29877
                                                 29887U 29891  30661  30662  30718  30719M 30720  30721  31287  31288
                                                 31333  31334M 31335  31336  31594  31595  31649  31650M 31651  31652
                                                 31836  31837  31882  31883M 31884  31894U 31898  32126  32127  32176
                                                 32177M 32178  32188U 32192  32313  32314  32696  32697M 32698  32708U
                                                 32712  32892  32893  32938  32939M 32940  32950U 32959  33326  33327
                                                 33372  33373M 33374  33384U 33388  33714  33715  33760  33761M 33762
                                                 33772U 33781  34086  34087  34129  34130M 34131  34141U 34150  34508
                                                 34509  34551  34552M 34553  34563U 34567  34621  34622  34664  34665M
                                                 34666  34676U 34685  34815  34816  34858  34859M 34860  34870U 34879
1IOSERV   (IOSE00) (09:40) (22MAR04) Ordinary Symbol and Literal Cross Reference                                            Page  408
                                                 35219  35220  35265  35266M 35267  35277U 35281  35657  35658  36029
                                                 36030M 36031  36041U 36045  37126  37127  37276  37277M 37278  37288U
                                                 37297  37914  37915  37975  37976M 37977  37987U 37996  38627  38628
                                                 38685  38686M 38687  38697U 38706  39033  39034  39223  39224M 39225
                                                 39235U 39239  40594  40595  40786  40787M 40788  40798U 40802  41333
                                                 41334  41379  41380M 41381  41391U 41395  41635  41636  41861  41862M
                                                 41863  41873U 41877  42414  42415  42461  42462M 42463  42464  42724
                                                 42725  42768  42769M 42770  42771  43028  43029  43074  43075M 43076
                                                 43077  43163  43164  43376  43377M 43378  43388U 43392  44901  44902
                                                 45092  45093M 45094  45104U 45108  45726  45727  45808  45809M 45810
                                                 45820U 45824  46093  46094  46139  46140M 46141  46151U 46155  46240
                                                 46241  46284  46285M 46286  46296U 46300  46449  46450  46649  46650M
                                                 46651  46661U 46665  47253  47254  47299  47300M 47301  47311U 47315
                                                 47943  47944  47989  47990M 47991  48001U 48005  48136  48137  48182
                                                 48183M 48184  48194U 48198  48802  48803  48848  48849M 48850  48860U
                                                 48864  49310  49311  49356  49357M 49358  49368U 49372  49617  49618
                                                 49800  49801M 49802  49812U 49816  50545  50546  50649  50650M 50651
                                                 50661U 50665  51613  51614  51735  51736M 51737  51747U 51751  52099
                                                 52100  52146  52147M 52148  52158U 52162  52965  52966  53150  53151M
                                                 53152  53162U 53166  53607  53608  53688  53689M 53690  53700U 53704
                                                 55370  55371  55416  55417M 55418  55428U 55432  55492  55493  55754
                                                 55755M 55756  55766U 55770  56922  56923  56968  56969M 56970  56980U
                                                 56984  57599  57600  57763  57764M 57765  57775U 57784  57927  57928
                                                 57973  57974M 57975  57985U 57994  58096  58097  58164  58165M 58166
                                                 58176U 58180  58345  58346  58480  58481M 58482  58492U 58496  58659
                                                 58660  58795  58796M 58797  58807U 58811  58975  58976  59101  59102M
                                                 59103  59113U 59122  59295  59296  59395  59396M 59397  59407U 59411
                                                 59609  59610  59710  59711M 59712  59722U 59731  59839  59840  59940
                                                 59941M 59942  59952U 59961  60099  60100  60210  60211M 60212  60213
                                                 60549  60550
 =A(#HSCLOS)
               4 000031D0 00000001     A   37932 36940
 =A(#HSREAD)
               4 000031C0 00000001     A   37928 36253
 =A(#HSREAD)
               4 0000388C 00000001     A   40607 38894
 =A(#HSWRIT)
               4 000031C4 00000001     A   37929 36267
 =A(#HSWRIT)
               4 00003888 00000001     A   40606 38799
 =A(#SCCOPEN)
               4 00002BD8 00000001     A   35674 33245
 =A(AM24CAP)
               4 00000B6C 00000001     A   21743 18161
 =A(AM24CAP)
               4 00003DFC 00000001     A   43178 41986
 =A(AM24RTN)
               4 0000507C 00000001     A   50576 49202  49538
 =A(BLKCCHHR)
               4 0000153C 00000001     A   25926 25323
 =A(BLKCCHHR)
               4 00001950 00000001     A   27542 26980
 =A(BLKCCHHR)
               4 00001F18 00000001     A   29784 28828  28836  29526
 =A(CALCRPS)
               4 0000620C 00000001     A   57636 55134
 =A(CALCTRK)
               4 00006208 00000001     A   57635 54865
 =A(CATSRCH)
1IOSERV   (IOSE00) (09:40) (22MAR04) Ordinary Symbol and Literal Cross Reference                                            Page  409
               4 00006218 00000001     A   57639 55843
 =A(CRDDB)
               4 000014CC 00000001     A   25898 21921  22004  22087
 =A(CRHDB)
               4 000014DC 00000001     A   25902 22172  22282
 =A(DSALLO)
               4 000061E8 00000001     A   57627 53833
 =A(DSCLOSE)
               4 00006214 00000001     A   57638 55322  55471
 =A(DSPEND+X'80000000')
               4 000031DC 00000001     A   37935 37579  37669
 =A(DUNALLO)
               4 00003E10 00000001     A   43183 42969
 =A(DUNALLO)
               4 0000506C 00000001     A   50572 48507
 =A(DUNALLO)
               4 00006220 00000001     A   57641 57293
 =A(DVCTYPMK)
               4 000061F0 00000001     A   57629 53960
 =A(DYNALLO)
               4 00005084 00000001     A   50578 50387
 =A(DYNALLO)
               4 0000621C 00000001     A   57640 56762
 =A(FILEIO)
               4 000014D4 00000001     A   25900 22081
 =A(FUNCMAX)
               4 000061D8 00000001     A   57623 53485
 =A(GETIOCB)
               4 00001530 00000001     A   25923 25126
 =A(GETIOCB)
               4 0000194C 00000001     A   27541 26783
 =A(GETIOCB)
               4 00001F14 00000001     A   29783 28530
 =A(GETIOCB)
               4 00002168 00000001     A   30675 30263
 =A(GETSWPA)
               4 00001F20 00000001     A   29786 29281
 =A(HSCLOSE)
               4 00001948 00000001     A   27540 26731
 =A(HSCLOSE)
               4 00001F10 00000001     A   29782 28374
 =A(HSCLSEND+X'80000000')
               4 00003384 00000001     A   38640 38176
 =A(HSOPEN)
               4 000031C8 00000001     A   37930 36322
 =A(HSPCETSK)
               4 00000B88 00000001     A   21750 18423
 =A(HSPCMAX)
               4 000031BC 00000001     A   37927 36176
 =A(HSPIO)
               4 000014D8 00000001     A   25901 22166  22276
 =A(HSPVEND+X'80000000')
               4 000043AC 00000001     A   44922 43795
 =A(HSRDWRT)
               4 00003890 00000001     A   40608 39002
 =A(HSRWEND+X'80000000')
               4 0000389C 00000001     A   40611 39689
 =A(IDEVMAX)
               4 00001504 00000001     A   25912 23580
1IOSERV   (IOSE00) (09:40) (22MAR04) Ordinary Symbol and Literal Cross Reference                                            Page  410
 =A(IOSHTERX+X'80000000')
               4 00006A5C 00000001     A   60559 60283
 =A(IOTERM+X'80000000')
               4 000023CC 00000001     A   31608 31031
 =A(JESCLS)
               4 00005068 00000001     A   50571 47912
 =A(JESFMAX)
               4 0000504C 00000001     A   50564 47130
 =A(JESIO)
               4 000014F8 00000001     A   25909 23057
 =A(JESIOTSK)
               4 00000B84 00000001     A   21749 18374
 =A(JSALLO)
               4 0000505C 00000001     A   50568 47423
 =A(MVSIOTSK)
               4 00000B74 00000001     A   21745 18328
 =A(PAGEIO)
               4 000014C8 00000001     A   25897 21915
 =A(READDSCB)
               4 000061F4 00000001     A   57630 54116
 =A(RELIOCB)
               4 00000BDC 00000001     A   21767 21472
 =A(RELIOCB)
               4 000023B8 00000001     A   31603 30730
 =A(SCMFMAX)
               4 0000456C 00000001     A   45742 45401
 =A(SCOMCLS)
               4 00002BEC 00000001     A   35679 33687
 =A(SCOMCLS)
               4 00004700 00000001     A   46464 46057
 =A(SCOMFLG)
               4 00002BF8 00000001     A   35682 35063
 =A(SCOMFLG)
               4 00004704 00000001     A   46465 46398
 =A(SCOMIO)
               4 00001500 00000001     A   25911 23331
 =A(SCOMMAX)
               4 00002BCC 00000001     A   35671 32822
 =A(SCOMNTFY)
               4 00002BE4 00000001     A   35677 33621
 =A(SCOMNTFY)
               4 0000457C 00000001     A   45746 45652
 =A(SCOMTASK)
               4 00000B80 00000001     A   21748 18351
 =A(STARTIO)
               4 0000154C 00000001     A   25930 25826
 =A(STARTIO)
               4 00001958 00000001     A   27544 27467
 =A(STARTIO)
               4 00001F24 00000001     A   29787 29718
 =A(STARTIO)
               4 0000216C 00000001     A   30676 30461
 =A(SWAPIO)
               4 000014D0 00000001     A   25899 21998
 =A(TIOTSRCH)
               4 000061EC 00000001     A   57628 53884
 =A(X'FE0')
               4 00002160 00000001     A   30673 29961
 =A(X'FFF')
1IOSERV   (IOSE00) (09:40) (22MAR04) Ordinary Symbol and Literal Cross Reference                                            Page  411
               4 00001540 00000001     A   25927 25715
 =A(X'00000C00')
               4 00000130 00000001     A   17857 17600
 =A(1)         4 00000138 00000001     A   17859 17672
 =A(1)         4 00002524 00000001     A   32136 31979  32047  32099
 =A(1)         4 000038B0 00000001     A   40616 40489
 =A(1)         4 00005078 00000001     A   50575 49170
 =A(1)         4 00006210 00000001     A   57637 55139
 =A(100)       4 00000B78 00000001     A   21746 18330  18353  18376  18425  21462
 =A(1024)      4 00000B68 00000001     A   21742 18071
 =A(12)        4 00002BF0 00000001     A   35680 34019  34437
 =A(2048)      4 00001544 00000001     A   25928 25727
 =A(24)        4 00002BF4 00000001     A   35681 34033  34451
 =A(255)       4 00003894 00000001     A   40609 39330
 =A(32)        4 00000BA8 00000001     A   21758 19083
 =A(4)         4 0000150C 00000001     A   25914 23750  23899
 =A(4)         4 00005080 00000001     A   50577 49506
 =A(8)         4 00001508 00000001     A   25913 23730  23813  23927
 =A(8)         4 00001954 00000001     A   27543 27219
 =A(8)         4 00001F1C 00000001     A   29785 29076
 =A(8)         4 00006204 00000001     A   57634 54791
 =A(999)       4 0000542C 00000001     A   51628 50921
 =AL1(X'80',X'C0')
               1 000023D0 00000001     R   31609 30988
 =AL2(DALRTDDN)
               2 0000508C 00000001     R   50581 49936
 =AL2(DALRTDDN)
               2 00006234 00000001     R   57646 55989
 =AL2(DUNDDNAM,1,8)
               2 000068AE 00000001     R   60113 59968
 =AL2(DUNUNALC,0)
               2 000068A8 00000001     R   60111 59965
 =AL2(1)       2 0000508E 00000001     R   50582 50001
 =AL2(1)       2 000068AC 00000001     R   60112 58589
 =AL4(#FCCLOSE)
               4 00001520 00000001     R   25919 24824  25028
 =AL4(#FCOPEN)
               4 00001528 00000001     R   25921 24928
 =AL4(#FCREAD)
               4 00001534 00000001     R   25924 25160
 =AL4(#FCWRITE)
               4 00001538 00000001     R   25925 25234
 =AL4(#IOCLOSE)
               4 00001518 00000001     R   25917 24371
 =AL4(#IORESET)
               4 0000151C 00000001     R   25918 24400
 =AL4(#JCCLOSE)
               4 00003A5C 00000001     R   41651 41050
 =AL4(#JCJBND)
               4 00003A64 00000001     R   41653 41177
 =AL4(#JCOPEN)
               4 00003A58 00000001     R   41650 40987
 =AL4(#JCWRITE)
               4 00003A60 00000001     R   41652 41113
 =AL4(#PCCLOSE)
               4 00001940 00000001     R   27538 26563  26646
 =AL4(#PCOPEN)
               4 0000193C 00000001     R   27537 26464
 =AL4(#PCREAD)
1IOSERV   (IOSE00) (09:40) (22MAR04) Ordinary Symbol and Literal Cross Reference                                            Page  412
               4 0000192C 00000001     R   27533 26285  26816
 =AL4(#PCRESET)
               4 00001934 00000001     R   27535 26318
 =AL4(#PCWRITE)
               4 00001930 00000001     R   27534 26300  26890
 =AL4(#SWCCLOS)
               4 00001F08 00000001     R   29780 28206  28289
 =AL4(#SWCOPEN)
               4 00001F04 00000001     R   29779 28107
 =AL4(#SWCREAD)
               4 00001EF4 00000001     R   29775 27928  28564
 =AL4(#SWCRSET)
               4 00001EFC 00000001     R   29777 27961
 =AL4(#SWCWRIT)
               4 00001EF8 00000001     R   29776 27943  28684
 =C'*** END OF I/O SERVICES ***'
              27 00000BFB 00000001     C   21772 21109
 =C'*** I/O SERVICES ***'
              20 00000BAC 00000001     C   21759 19370
 =C'***** ALESERV ERROR *****'
              25 00006A60 00000001     C   60560 60397
 =C'***** DSPSERV ERROR *****'
              25 00006A79 00000001     C   60561 60467
 =C'***** HSCLOSE *****'
              19 00003396 00000001     C   38645 38015
 =C'***** IOSHTERM *****'
              20 00006A48 00000001     C   60558 60282
 =C'DB '       3 00001553 00000001     C   25932 24172
 =C'DDB '      4 00001510 00000001     C   25915 24242
 =C'HDB '      4 00001514 00000001     C   25916 24295
 =C'HDB'       3 000043C0 00000001     C   44927 43772
 =C'HSPD'      4 000031CC 00000001     C   37931 36424  36600  37040
 =C'HSRW'      4 00003898 00000001     C   40610 39412  40506
 =C'HSRW'      4 000043A8 00000001     C   44921 43717  44808
 =C'IOCB at '
               8 00000B50 00000001     C   21738 19859
 =C'IOCT at '
               8 00000B48 00000001     C   21737 19472
 =C'IOSB at '
               8 00000B58 00000001     C   21739 20489
 =C'ORV'       3 00001550 00000001     C   25931 22897
 =C'SNAPD'
               5 0000543C 00000001     C   51632 50957
 =C'SRB '      4 000023C8 00000001     C   31607 31003
 =C'SRB at '
               7 00000BF4 00000001     C   21771 20172
 =C'SWAP CCW''s at '
              14 00000BE6 00000001     C   21770 20815
 =CL16'DDB CHAIN'
              16 00000AA8 00000001     C   21723 18187
 =CL16'HDB CHAIN'
              16 00000AB8 00000001     C   21724 18210
 =CL16'JDB CHAIN'
              16 00000AC8 00000001     C   21725 18230
 =CL16'SCOM CHAIN'
              16 00000AE8 00000001     C   21727 18270
 =CL16'SCOM NOTIFY'
              16 00000AF8 00000001     C   21728 18297
 =CL16'SNDB CHAIN'
1IOSERV   (IOSE00) (09:40) (22MAR04) Ordinary Symbol and Literal Cross Reference                                            Page  413
              16 00000AD8 00000001     C   21726 18250
 =CL4'DDB'
               4 000014E4 00000001     C   25904 22468  24776
 =CL4'DDB'
               4 00001928 00000001     C   27532 26235
 =CL4'DDB'
               4 00001EF0 00000001     C   29774 27871
 =CL4'DDB'
               4 00003A6C 00000001     C   41655 41437
 =CL4'DDB'
               4 000061E4 00000001     C   57626 53744  57009
 =CL4'HDB'
               4 000014F0 00000001     C   25907 22766
 =CL4'HDB'
               4 000031B8 00000001     C   37926 36078  36963
 =CL4'IOCB'
               4 00000BCC 00000001     C   21763 20046
 =CL4'IOCT'
               4 00000B64 00000001     C   21741 18001  19659
 =CL4'IOSB'
               4 00000BD4 00000001     C   21765 20676
 =CL4'IOT'
               4 00000BA0 00000001     C   21756 19013
 =CL4'JDB'
               4 000014F4 00000001     C   25908 23056
 =CL4'JDB'
               4 00003A50 00000001     C   41648 40856
 =CL4'JDB'
               4 00005058 00000001     C   50567 47362  48052  48223  48925  49433
 =CL4'RICB'
               4 000023C0 00000001     C   31605 30936
 =CL4'SDB'
               4 000014FC 00000001     C   25910 23330
 =CL4'SDB'
               4 00002BC8 00000001     C   35670 32739
 =CL4'SDB'
               4 000046F8 00000001     C   46462 45878
 =CL4'SNDB'
               4 00005424 00000001     C   51626 50799
 =CL4'SNDB'
               4 000061C0 00000001     C   57617 51966  52427
 =CL4'SRB'
               4 00000BD0 00000001     C   21764 20359
 =CL6'??????'
               6 0000622E 00000001     C   57645 55865
 =CL8' '       8 00003DE8 00000001     C   43175 42194
 =CL8'DISK'
               8 000061B0 00000001     C   57614 56413
 =CL8'HSPACE'
               8 00000B28 00000001     C   21733 18503
 =CL8'HSPCETSK'
               8 00000B20 00000001     C   21732 18422  19168
 =CL8'HSPCETSK'
               8 00004390 00000001     C   44916 43545
 =CL8'JESIOTSK'
               8 00000B18 00000001     C   21731 18373  19152
 =CL8'JESIOTSK'
               8 00005028 00000001     C   50557 46767
 =CL8'MAXSIZE'
1IOSERV   (IOSE00) (09:40) (22MAR04) Ordinary Symbol and Literal Cross Reference                                            Page  414
               8 00000B30 00000001     C   21734 18563
 =CL8'MVSIOTSK'
               8 00000B08 00000001     C   21729 18327  19059
 =CL8'MVSIOTSK'
               8 000061A0 00000001     C   57612 53310
 =CL8'PAGE'
               8 00000B38 00000001     C   21735 18672
 =CL8'PARMS'
               8 00003DF0 00000001     C   43176 42963
 =CL8'SCOMTASK'
               8 00000B10 00000001     C   21730 18350  19074
 =CL8'SCOMTASK'
               8 00004558 00000001     C   45738 45217
 =CL8'SWAP'
               8 00000B40 00000001     C   21736 18776
 =F'-4'        4 00003E08 00000001     F   43181 42267
 =F'-4'        4 00006200 00000001     F   57633 54374
 =F'0'         4 00000B9C 00000001     F   21755 18768  18770  18872  18874
 =F'144000'
               4 00000B94 00000001     F   21753 18659  18661
 =F'256'       4 000038A0 00000001     F   40612 39755
 =F'4096'      4 000038A4 00000001     F   40613 39818  40092
 =F'4096'      4 000043B0 00000001     F   44923 43890  44364
 =F'524288'
               4 00000B98 00000001     F   21754 18664  18666
 =F'524288'
               4 000031D4 00000001     F   37933 37421
 =FL4'1'       4 000043B4 00000001     G   44924 43928  44072  44307  44457
 =H'12'        2 000038B4 00000001     H   40617 39362
 =V(CANTASK)
               4 00000BD8 00000001     V   21766 21407  21420  21433  21448
 =V(ESTAEOFF)
               4 00003E04 00000001     V   43180 42228  43128
 =V(ESTAEOFF)
               4 00005064 00000001     V   50570 47751  48358
 =V(ESTAEOFF)
               4 000061FC 00000001     V   57632 54335  57144
 =V(ESTAEON)
               4 00003E00 00000001     V   43179 42056  43118
 =V(ESTAEON)
               4 00005060 00000001     V   50569 47741  48349
 =V(ESTAEON)
               4 000061F8 00000001     V   57631 54326  57135
 =V(FWAIT)
               4 00002170 00000001     V   30677 30492
 =V(FWAIT)
               4 000043A0 00000001     V   44919 43592
 =V(FWAIT)
               4 00005044 00000001     V   50562 46994
 =V(FWAIT)
               4 000061D0 00000001     V   57621 53357
 =V(GSTIIOT)
               4 00000134 00000001     V   17858 17619
 =V(GSTIIOT)
               4 000043B8 00000001     V   44925 44761
 =V(GSTIIOT)
               4 00004570 00000001     V   45743 45460
 =V(GSTIIOT)
               4 00004708 00000001     V   46466 46428
1IOSERV   (IOSE00) (09:40) (22MAR04) Ordinary Symbol and Literal Cross Reference                                            Page  415
 =V(GSTIIOT)
               4 00005050 00000001     V   50565 47190
 =V(GSTIIOT)
               4 000061DC 00000001     V   57624 53543
 =V(JSALLO)
               4 00005434 00000001     V   51630 50993
 =V(LOCKCRE)
               4 00000B70 00000001     V   21744 18190  18213  18233  18253  18273  18300
 =V(LOCKOB)
               4 000014E8 00000001     V   25905 22572  22870  23160  23434
 =V(LOCKOB)
               4 00002BE0 00000001     V   35676 33567  34988  35397
 =V(LOCKOB)
               4 0000338C 00000001     V   38642 38404
 =V(LOCKOB)
               4 00004578 00000001     V   45745 45571
 =V(LOCKOB)
               4 00005070 00000001     V   50573 48600
 =V(LOCKOB)
               4 00005428 00000001     V   51627 50902  51530
 =V(LOCKOB)
               4 000061B8 00000001     V   57615 51834  52249  52762  57386
 =V(LOCKREL)
               4 000014EC 00000001     V   25906 22588  22894  23176  23450
 =V(LOCKREL)
               4 00002BE8 00000001     V   35678 33649  35187  35560
 =V(LOCKREL)
               4 00003390 00000001     V   38643 38529
 =V(LOCKREL)
               4 00004580 00000001     V   45747 45686
 =V(LOCKREL)
               4 00005074 00000001     V   50574 48725
 =V(LOCKREL)
               4 00005430 00000001     V   51629 50947  51546
 =V(LOCKREL)
               4 000061BC 00000001     V   57616 51921  52344  52887  57511
 =V(MEMFREE)
               4 00002BFC 00000001     V   35683 35634
 =V(MEMFREE)
               4 000031E0 00000001     V   37936 37871
 =V(MEMFREE)
               4 00003388 00000001     V   38641 38316  38593
 =V(MEMFREE)
               4 00003E0C 00000001     V   43182 42864  43008
 =V(MEMFREE)
               4 000046FC 00000001     V   46463 46000
 =V(MEMFREE)
               4 00005040 00000001     V   50561 46954  47665  47808  47858  48411  48440  48775  49275  50521
 =V(MEMFREE)
               4 00005438 00000001     V   51631 51079  51119  51345  51414  51451  51487
 =V(MEMFREE)
               4 000061C8 00000001     V   57619 52654  52683  52727  52938  54192  54434  54484  56896  57197  57226
                                                 57575
 =V(MEMFREE)
               4 000068A4 00000001     V   60110 57905  58637  58954  59592
 =V(MEMGET)
               4 00000B8C 00000001     V   21751 18477  18997  19131
 =V(MEMGET)
               4 000014E0 00000001     V   25903 22428  22726  23016  23290
1IOSERV   (IOSE00) (09:40) (22MAR04) Ordinary Symbol and Literal Cross Reference                                            Page  416
 =V(MEMGET)
               4 00002164 00000001     V   30674 30185
 =V(MEMGET)
               4 000023C4 00000001     V   31606 30985
 =V(MEMGET)
               4 00002BD0 00000001     V   35672 33102
 =V(MEMGET)
               4 000031D8 00000001     V   37934 37484
 =V(MEMGET)
               4 00003380 00000001     V   38639 38096
 =V(MEMGET)
               4 00003DF8 00000001     V   43177 41946  42348
 =V(MEMGET)
               4 00004398 00000001     V   44917 43483
 =V(MEMGET)
               4 00004560 00000001     V   45739 45149
 =V(MEMGET)
               4 00005038 00000001     V   50559 46706  46819  46853  47506  47540  47710  48318  48992  49874
 =V(MEMGET)
               4 00005420 00000001     V   51625 50706  50759  51191  51229  51285
 =V(MEMGET)
               4 000061C4 00000001     V   57618 52558  53207  54082  54243  54295  55076  55924  57104
 =V(MEMGET)
               4 000068A0 00000001     V   60109 57825  58534  58849  59452
 =V(MSGATTR)
               4 00000BA4 00000001     V   21757 19062  19077  19155  19171
 =V(MSGATTS)
               4 0000439C 00000001     V   44918 43548
 =V(MSGATTS)
               4 00004564 00000001     V   45740 45220
 =V(MSGATTS)
               4 0000503C 00000001     V   50560 46770
 =V(MSGATTS)
               4 000061CC 00000001     V   57620 53313
 =V(MSGFREE)
               4 000043BC 00000001     V   44926 44795
 =V(MSGFREE)
               4 00004574 00000001     V   45744 45492
 =V(MSGFREE)
               4 00005054 00000001     V   50566 47222
 =V(MSGFREE)
               4 000061E0 00000001     V   57625 53576
 =V(MSGGBUF)
               4 00001524 00000001     V   25920 24894
 =V(MSGGBUF)
               4 00001938 00000001     V   27536 26429
 =V(MSGGBUF)
               4 00001F00 00000001     V   29778 28072
 =V(MSGGBUF)
               4 00002BD4 00000001     V   35673 33211
 =V(MSGGBUF)
               4 000038A8 00000001     V   40614 40384
 =V(MSGGBUF)
               4 00003A54 00000001     V   41649 40956  41537
 =V(MSGRECV)
               4 000043A4 00000001     V   44920 43630
 =V(MSGRECV)
               4 00004568 00000001     V   45741 45304
 =V(MSGRECV)
1IOSERV   (IOSE00) (09:40) (22MAR04) Ordinary Symbol and Literal Cross Reference                                            Page  417
               4 00005048 00000001     V   50563 47026
 =V(MSGRECV)
               4 000061D4 00000001     V   57622 53389
 =V(MSGSEND)
               4 0000152C 00000001     V   25922 25095
 =V(MSGSEND)
               4 00001944 00000001     V   27539 26630
 =V(MSGSEND)
               4 00001F0C 00000001     V   29781 28273
 =V(MSGSEND)
               4 00002BDC 00000001     V   35675 33281
 =V(MSGSEND)
               4 000038AC 00000001     V   40615 40459
 =V(MSGSEND)
               4 00003A68 00000001     V   41654 41288  41592
 =V(PARMDO)
               4 00000B90 00000001     V   21752 18640  18749  18853
 =V(POOLFREE)
               4 00000BE0 00000001     V   21768 21592  21689
 =V(POOLGET)
               4 00000B60 00000001     V   21740 17985  18157
 =V(POOLGET)
               4 000023BC 00000001     V   31604 30899
 =V(POOLGET)
               4 00002520 00000001     V   32135 31810
 =V(SEG)       4 00000BC0 00000001     V   21760 19408  19446  19504  19601  19740  19891  19988  20133  20204  20301
                                                 20446  20521  20618  20763  20847  20944  21056  21147  21185
 =V(SEGCORE)
               4 00000BC8 00000001     V   21762 19692  20085  20398  20715  21008
 =V(SEGHEX)
               4 00000BC4 00000001     V   21761 19563  19950  20263  20580  20906
 =V(SPAWN)
               4 00000B7C 00000001     V   21747 18333  18356  18379  18428
 =X'0C00'      2 00002174 00000001     X   30678 30505
 =X'00'        1 0000470C 00000001     X   46467 46181
 =X'7FFFF000'
               4 00001548 00000001     X   25929 25734
 =XL6'00'      6 00006226 00000001     X   57643 55812  56199  56389
 =XL8'00'      8 00005030 00000001     X   50558 50437
 =XL8'00'      8 000061A8 00000001     X   57613 55982  56062  56811
 =Y(DDBCHAIN-DDB)
               2 00006236 00000001     Y   57647 57389
 =Y(HDBCHAIN-HDB)
               2 00003394 00000001     Y   38644 38407
 =Y(JDBCHAIN-JDB)
               2 00005088 00000001     Y   50579 48603
 =Y(L'CCW)
               2 00001F2A 00000001     Y   29789 29662
 =Y(SDBCHN-SDB)
               2 00002C00 00000001     Y   35684 35400
 =Y(SNDBCHN-SNDB)
               2 00006224 00000001     Y   57642 52765
 =Y(255)       2 00001F28 00000001     Y   29788 28484
 =Y(4)         2 00003E14 00000001     Y   43184 42602
 =Y(4)         2 0000508A 00000001     Y   50580 49109
 =Y(4)         2 0000622C 00000001     Y   57644 55862
 =Y(8)         2 00000BE4 00000001     Y   21769 19085
 =8X'FF'       1 00002BC0 00000001     X   35669 32994

1IOSERV   (IOSE00) (09:40) (22MAR04) Macro and Copy Code Source Summary                                                     Page  418
- Con Source                                        Volume    Members                        HLASM R4.0  2004/03/22 09.40
0     PRIMARY INPUT                                           CSECT    DROP     END      EX       LTORG    POP
                                                              PRINT    PUSH     START    USING
   L2 WYL.GG.ORV.MACLIB                             SYSB02    $LKPARM  ACALL    CANPARM  CBAT     DSALPARM DUMPPARM
                                                              ESTAEOFF ESTAEON  ESTAPARM FIOPARM  FIXPARM  FWAIT
                                                              GSTIPARM HEADER   HSPCPARM IEFUCBOB IORPARM  JESPARM
                                                              JSALPARM KAPUT    LCALL    LOCKOB   LOCKPARM LOCKRL
                                                              MEMFREE  MEMGET   MEMPARM  MODULE   MOVSTR   MSGATT
                                                              MSGFREE  MSGGBUF  MSGPARM  MSGRECV  MSGSEND  MVSPARM
                                                              PARMPARM PEND     PFINFO   PIOPARM  PMOV     POOLFREE
                                                              POOLGET  POOLPARM POSTPARM PRDPARM  PROC     PSET     REG
                                                              RTCB     SBTPARM  SCOMPARM SEG      SEGCORE  SEGEOB
                                                              SEGEOR   SEGHEX   SEGLD    SEGPARM  SPLEVEL  SPNPARM
                                                              SWAPPARM VCALL    WAITPARM
   L3 WYL.GG.SYS.MACLIB                             SYSB05    $BC      $BFLKUP  $BV      $CCLKUP  $CRS     $CSS     $L
                                                              $LA      $LBLAD   $LEXP    $LOR     $NIL     $OIL     $REL
                                                              $RGLKUP  $USLKUP  ADL      AUSING   BEGIN    CEIL
                                                              CLEAR    CSECT    DATA     DECR     DEFCC    DEX      DROP
                                                              ELSE     ELSEIF   END      EX       EXIT     FLAG
                                                              FLOOR    GEN      HIBAL    IDENT    IF       INCR
                                                              LABEL    LC       LCM      LOOP     LT       LTORG    L2
                                                              L3       POP      PRINT    PUSH     RECORD   REGS     SDL
                                                              SET      START    STF      ST3      SYSLR    UNTIL
                                                              USING    WHILE    WITH
   L4 SYS3.IS.MACLIB                                SYSB05    DEFINE
   L5 SYS3.MACLIB                                   SYSB02    PATH     QSNAP    SCOM
   L6 SYS1.MACLIB                                   MVSBR9    ABEND    ALESERV  CAMLST   CLOSE    CVT      DCB      DCBD
                                                              DCBE     DEQ      DSPSERV  DYNALLOC ENQ      FREEPOOL
                                                              GENCB    GET      HSPSERV  IDACBACB IDACBOPT IDACBRPL
                                                              IDACB1   IDACB2   IDACB3   IECDIOCM IEFJFCBN IEFSJDKY
                                                              IEFTIOT1 IEFZB4D0 IEFZB4D2 IEZDEB   IHAASCB  IHAPSA
                                                              IHAPSAE  IHASDWA  IHASRB   IHBERMAC IHBINNRA IHBINNRR
                                                              IHB01    IKJTCB   LOCATE   MODESET  OPEN     PUT
                                                              RDJFCB   SETLOCK  SETLOCK8 STIMER   STIMERM  STORAGE
                                                              SYSSTATE TCBTOKEN TRKCALC  WAIT     WTO
   L7 SYS1.MODGEN                                   MVSBR9    IECDDCE  IECDIOSB IECDUCBC IECDUCBD IECDUCBE IECDUCBG
                                                              IECDUCBT IECDUCBU IECSDSL1 IFGACB   IFGACBVS IFGRPL
                                                              IFGRPLVS IHADVCT  IOSDUCBC OBTAIN   STARTIO

1         (IOSE00) (09:40) (22MAR04) General Purpose Register Cross Reference                                               Page  419
- Register  References (M=modified, B=branch, U=USING, D=DROP, N=index)                      HLASM R4.0  2004/03/22 09.40
0    0(0)      991U   992D  9788U 11002U 11003D 17487M 17487  17588M 17600  17610M 17610  17615  17631M 17635M 17636M
             17637  17648M 17655  17678M 17926  17974M 17975  17987  18019D 18146M 18147  18159  18192  18215  18235
             18255  18275  18302  18335  18358  18381  18430  18463M 18464  18479  18575M 18580  18592M 18597  18609M
             18614  18626M 18631  18650M 18650  18684M 18689  18701M 18706  18718M 18723  18735M 18740  18759M 18759
             18788M 18793  18805M 18810  18822M 18827  18839M 18844  18863M 18863  18935  18983M 18984  18999  19064
             19079  19133  19157  19173  19244  19370M 19375  19387M 19392  19472M 19477  19489M 19494  19531M 19536
             19548M 19553  19648M 19653  19859M 19864  19876M 19881  19918M 19923  19935M 19940  20035M 20040  20172M
             20177  20189M 20194  20231M 20236  20248M 20253  20348M 20353  20489M 20494  20506M 20511  20548M 20553
             20565M 20570  20665M 20670  20815M 20820  20832M 20837  20874M 20879  20891M 20896  21109M 21114  21126M
             21131  21243  21373M 21464M 21465M 21586M 21587  21683M 21684  21878  21961  22044  22129  22174  22239
             22284  22349  22410M 22411  22430  22568M 22569  22584M 22585  22590M 22647  22708M 22709  22728  22866M
             22867  22890M 22891  22899M 22953  22998M 22999  23018  23156M 23157  23172M 23173  23178M 23227  23272M
             23273  23292  23430M 23431  23446M 23447  23452M 23504  23561M 23562M 23563  23595M 23596M 23597  23610
             23795M 23796M 23797  23858M 23859M 23860  23873  23874  23961M 24082  24193M 24194M 24195  24310M 24311M
             24312  24351M 24352M 24353  24387M 24412M 24412  24450M 24451  24453M 24686  24800M 24801M 24802  24882M
             24883  24890M 24891  24896  25043M 25044M 25045  25078M 25079  25084M 25085  25100M 25100  25128  25191M
             25192M 25193  25249M 25250M 25251  25623M 25624M 25625  25662M 25663  25678M 25702M 25703M 25704  25776M
             25776  25791M 25792M 25793  26145  26259M 26260M 26261  26417M 26418  26425M 26426  26431  26578M 26579M
             26580  26613M 26614  26619M 26620  26756M 26756  26785  26847M 26848M 26849  26905M 26906M 26907  27427M
             27428M 27429  27781  27895M 27896M 27897  28060M 28061  28068M 28069  28074  28221M 28222M 28223  28256M
             28257  28262M 28263  28399M 28399  28448M 28449M 28450  28499M 28500M 28501  28532  28595M 28596M 28597
             28699M 28700M 28701  29283  29385M 29386M 29387  29396M 29396  29411M 29412M 29413  29421M 29422M 29423
             29447M 29448M 29449  29478M 29479M 29480  29654M 29655M 29656  29860  29925M 30093M 30167M 30168  30187
             30188  30265  30423M 30424M 30426  30520M 30521M 30522  30611M 30612M 30614  30626M 30703  30901  30967M
             30968  30987  31267M 31318  31634  31805M 31806  31812  31821M 31867  31940M 31941M 31942  32057M 32058M
             32059  32161  32237M 32244  32250  32260M 32272M 32279  32288M 32288  32681  32754M 32755M 32756  32837M
             32838M 32839  32923  33104  33199M 33200  33207M 33208  33213  33264M 33265  33270M 33271  33286M 33286
             33357  33445M 33475M 33476M 33477  33563M 33564  33645M 33646  33689M 33745  33878M 33879M 33880  33981M
             34050M 34051M 34052  34061M 34114  34223M 34224M 34226  34296M 34297M 34298  34399M 34468M 34469M 34470
             34483M 34536  34594M 34601M 34649  34737M 34746  34755M 34755  34790M 34843  34984M 34985  35016M 35017M
             35018  35065  35183M 35184  35189M 35250  35393M 35394  35476M 35477M 35478  35556M 35557  35619M 35620
             36014  36093M 36094M 36095  36157M 36158M 36159  36191M 36192M 36193  36222M 36223M 36224  36367M 36368
             36380M 36380  36437M 36438  36453M 36454M 36455  36462M 36462  36463  36543M 36544  36556M 36556  36649M
             36650M 36651  36709M 36710M 36711  36720M 36720  36735M 36736M 36737  36766M 36767M 36768  36797M 36798M
             36799  36844M 36845M 36846  36946  36978M 36979M 36980  37055M 37056M 37057  37076M 37092M 37261  37350M
             37351M 37352  37436M 37437M 37438  37470M 37471  37486  37580  37630M 37631M 37632  37670  37720M 37721M
             37722  37752M 37753M 37754  37797M 37798M 37799  37859M 37860  37879M 37960  38015M 38046M 38047M 38048
             38082M 38083  38098  38177  38213M 38214M 38215  38265M 38266M 38267  38304M 38305  38400M 38401  38525M
             38526  38578M 38579  38595M 38670  38989M 38990M 38991  39208  39279M 39345M 39346M 39347  39365M 39376M
             39376  39504M 39505M 39506  39538M 39539M 39540  39553M 39574M 39575M 39576  39614M 39615M 39616  39690
             39745M 39745  39755M 39846  39862M 39863  39943M 39943  39982  39998M 39999  40103M 40103  40132M 40133M
             40134  40144  40249M 40318M 40372M 40373  40380M 40381  40386  40442M 40443  40448M 40449  40468M 40468
             40489  40521M 40522M 40523  40548M 40555M 40771  40880M 40881M 40882  40944M 40945  40952M 40953  40958
             41238M 41239M 41240  41271M 41272  41277M 41278  41293M 41293  41364  41461M 41462M 41463  41525M 41526
             41533M 41534  41539  41575M 41576  41581M 41582  41610M 41610  41846  41935M 41936  41948  42019M 42045
             42052M 42053  42077M 42284  42350  42383M 42394M 42446  42521M 42521  42560  42686M 42687  42709M 42709
             42753  42929M 42934M 43003M 43004  43059  43107  43114M 43115  43143  43148M 43361  43432M 43469M 43470
             43492  43507M 43508M 43509  43550  43626M 43627  43639  43678M 43679M 43680  43732M 43733M 43734  43787M
             43788M 43789  43796  43872M 43872  43943  43976M 43977M 43978  43988M 43988  44027M 44027  44087  44095M
             44095  44147M 44148  44228M 44228  44257M 44258M 44259  44322  44353M 44354M 44355  44472  44505M 44506M
             44507  44550M 44550  44580M 44581M 44582  44588  44719M 44720M 44786M 44787  44791M 44792  44823M 44824M
             44825  44850M 45077  45135M 45136  45158  45173M 45174M 45175  45222  45247M 45300M 45301  45313  45382M
             45383M 45384  45416M 45417M 45418  45456  45483M 45484  45488M 45489  45567M 45568  45682M 45683  45793
             45902M 45903M 45904  45931M 45931  46063M 46124  46219M 46220M 46269  46424  46634  46692M 46693  46715
             46730M 46731M 46732  46772  46808M 46809  46821  46842M 46843  46855  46949M 46950  47022M 47023  47035
1         (IOSE00) (09:40) (22MAR04) General Purpose Register Cross Reference                                               Page  420
             47111M 47112M 47113  47145M 47146M 47147  47186  47213M 47214  47218M 47219  47284  47386M 47387M 47388
             47460  47495M 47496  47508  47529M 47530  47542  47623M 47624M 47625  47660M 47661  47699M 47700  47712
             47730  47737M 47738  47765  47803M 47804  47853M 47854  47918M 47974  48076M 48077M 48078  48167  48244M
             48245M 48246  48307M 48308  48320  48338  48345M 48346  48372  48406M 48407  48435M 48436  48509  48596M
             48597  48721M 48722  48760M 48761  48777M 48833  48949M 48950M 48951  48994  49060M 49061M 49062  49228M
             49229M 49230  49280M 49280  49341  49457M 49458M 49459  49564M 49565M 49566  49582M 49582  49785  49860M
             49861  49876  50389  50400  50509M 50510  50523M 50634  50692M 50693  50708  50741M 50742  50761  50898M
             50899  50943M 50944  51005  51034M 51035M 51036  51067M 51068  51107M 51108  51177M 51178  51193  51218M
             51219  51231  51271M 51272  51287  51295M 51333M 51334  51383M 51384M 51385  51409M 51410  51439M 51440
             51475M 51476  51526M 51527  51542M 51543  51549M 51549  51582M 51720  51830M 51831  51917M 51918  52000M
             52001M 52002  52048M 52049M 52050  52059M 52066M 52066  52074M 52131  52245M 52246  52340M 52341  52397M
             52398M 52399  52461M 52462M 52463  52507M 52508M 52509  52544M 52545  52560  52568M 52602M 52603M 52604
             52642M 52643  52678M 52679  52715M 52716  52758M 52759  52883M 52884  52923M 52924  52940M 53135  53193M
             53194  53216  53231M 53232M 53233  53315  53385M 53386  53398  53466M 53467M 53468  53500M 53501M 53502
             53539  53567M 53568  53572M 53573  53673  53768M 53769M 53770  53846  53894M 53894  53909M 53910M 53911
             53917  53918  54068M 54069  54084  54180M 54181  54232M 54233  54245  54284M 54285  54297  54315  54322M
             54323  54391  54429M 54430  54479M 54480  54549M 54549  54550M 54551  54613M 54614M 54615  54622M 54867
             54868  54873  54990M 54991M 54992  55078  55079  55136  55328M 55401  55739  55856M 55856  55864  55910M
             55911  55926  56764  56775  56884M 56885  56898M 56953  57030M 57031M 57032  57093M 57094  57106  57124
             57131M 57132  57158  57192M 57193  57221M 57222  57295  57382M 57383  57507M 57508  57560M 57561  57577M
             57748  57814M 57815  57827  57870  57900M 57901  57907M 57958  58038M 58039M 58040M 58081M 58149  58197D
             58263M 58263  58293M 58293  58294M 58302M 58303  58317M 58317  58465  58523M 58524  58536  58632M 58633
             58639M 58780  58838M 58839  58851  58910M 58911M 58912  58949M 58950  59086  59153D 59265M 59275M 59275
             59276M 59380  59441M 59442  59454  59469M 59470  59557  59587M 59588  59594M 59695  59795M 59925  60043M
             60072M 60073M 60074  60142  60144M 60195  60282M 60284  60310M 60397M 60467M 60506M
     1(1)      987U 17408  17469M 17478M 17478  17631M 17633M 17637  17648M 17656  17678M 17926  18091M 18109U 18122U
             18161M 18279M 18280  18281  18388M 18389M 18390  18407  18656M 18659  18661M 18664  18666M 18667  18765M
             18768  18770M 18771  18869M 18872  18874M 18875  18903M 18935  19084M 19085M 19109  19188M 19244  19797M
             19807U 19837U 21211M 21243  21377M 21377  21403M 21404  21416M 21417  21429M 21430  21444M 21445  21462M
             21710M 21878  21932M 21961  22015M 22044  22098M 22129  22208M 22239  22318M 22349  22615M 22647  22875M
             22875  22876M 22877M 22877  22878  22879  22924M 22953  23198M 23227  23472M 23504  23536M 23537  23546M
             23546  23560M 23563M 23580  23594M 23597M 23608N 23865M 23871N 23986M 24082  24192M 24195M 24309M 24312M
             24350M 24353M 24483M 24686  24799M 24802M 24966M 24967M 24968  24969M 24970M 24971  24972M 25042M 25045M
             25051M 25059  25190M 25193M 25202M 25203M 25204  25248M 25251M 25267M 25268M 25269  25386M 25387  25392D
             25394M 25394  25395M 25396U 25397M 25398  25399M 25409U 25415M 25422U 25433U 25443U 25448M 25449  25521M
             25522  25527M 25528  25550M 25551  25564M 25565  25566M 25571  25600M 25601M 25602M 25622M 25625M 25631
             25637M 25646M 25646  25667M 25701M 25704M 25761M 25790M 25793M 25884M 26145  26258M 26261M 26502M 26503M
             26504  26505M 26506M 26507  26508M 26577M 26580M 26586M 26594  26846M 26849M 26858M 26859M 26860  26904M
             26907M 26923M 26924M 26925  27041M 27042  27046M 27056U 27062M 27069U 27080U 27090U 27096M 27097  27184M
             27185  27200M 27234M 27254M 27254N 27255  27301M 27302  27307M 27308  27330M 27331  27367M 27368  27372M
             27374  27426M 27429M 27520M 27781  27894M 27897M 28145M 28146M 28147  28148M 28149M 28150  28151M 28220M
             28223M 28229M 28237  28447M 28450M 28498M 28501M 28594M 28597M 28606M 28607M 28608  28698M 28701M 28717M
             28718M 28719  28818M 28819M 28821M 28822  28897M 28898  28938M 28948U 28954M 28961U 28972U 28982U 28987M
             28988  29049M 29050  29057M 29091M 29111M 29111N 29112  29157M 29158  29163M 29164  29186M 29187  29225M
             29226  29269M 29270M 29270  29283M 29285  29410M 29413M 29446M 29449M 29477M 29480M 29630M 29639M 29639
             29653M 29656M 29761M 29860  30134M 30135M 30135  30187M 30193  30205M 30215  30303M 30304  30334M 30335
             30348M 30349  30421M 30422M 30424  30519M 30522M 30592M 30602M 30612  30661M 30703  31062M 31063  31064M
             31065  31287M 31318  31594M 31634  31836M 31867  31939M 31942M 31956M 31965M 31965  31971M 31972  32018M
             32018  32047M 32056M 32059M 32072  32126M 32161  32238M 32245  32250  32252M 32254M 32254  32260M 32273M
             32280  32313M 32681  32753M 32756M 32789M 32808M 32808  32822  32836M 32839M 32875N 32892M 32923  33104M
             33124  33139M 33140  33326M 33357  33449M 33449  33474M 33477M 33714M 33745  33877M 33880M 33895M 33945M
             33986M 34049M 34052M 34086M 34114  34204M 34214M 34224  34295M 34298M 34313M 34363M 34404M 34467M 34470M
             34479  34508M 34536  34598M 34598  34621M 34649  34714M 34715  34716M 34717  34744M 34815M 34843  35015M
             35018M 35085M 35086  35087M 35088  35106U 35128U 35219M 35250  35399M 35400M 35428U 35452M 35461M 35461
             35475M 35478M 35498U 35524U 35546U 35657M 36014  36092M 36095M 36132M 36132  36133M 36142M 36142  36156M
             36159M 36176  36190M 36193M 36221M 36224M 36253  36267  36386  36562  36648M 36651M 36734M 36737M 36765M
             36768M 36796M 36799M 36893M 36893  36919M 36927N 36940  36977M 36980M 37054M 37057M 37077M 37126M 37261
             37349M 37352M 37435M 37438M 37580  37588M 37589  37589  37590  37591  37592  37593  37594  37595  37596
             37601  37602  37629M 37632M 37670  37678M 37679  37679  37680  37681  37682  37683  37684  37685  37686
1         (IOSE00) (09:40) (22MAR04) General Purpose Register Cross Reference                                               Page  421
             37691  37692  37719M 37722M 37751M 37754M 37763M 37764  37765  37767  37773  37796M 37799M 37914M 37960
             38045M 38048M 38177  38181M 38182  38183  38185  38212M 38215M 38228M 38229  38229  38230  38231  38232
             38233  38264M 38267M 38406M 38407M 38431U 38455M 38470U 38493U 38515U 38627M 38670  38760M 38780  38785M
             38785  38786M 38799  38894  38988M 38991M 39033M 39208  39262M 39263M 39263  39285  39344M 39347M 39382
             39383  39419M 39420  39503M 39506M 39515M 39523M 39537M 39540M 39549M 39550M 39551M 39552M 39573M 39576M
             39582  39587M 39599  39613M 39616M 39626M 39627M 39628  39636M 39637  39638M 39690  39882M 39890  39891M
             39911M 39919  39920M 40018M 40026  40027M 40047M 40055  40056M 40131M 40134M 40520M 40523M 40549M 40594M
             40771  40879M 40882M 41237M 41240M 41333M 41364  41460M 41463M 41556  41635M 41846  41962M 41964  41965M
             41967  41971M 41972  41980M 41981  41986M 42045  42061M 42223M 42414M 42446  42541M 42543  42560  42561M
             42567  42611M 42613M 42647M 42681M 42682  42687M 42724M 42753  42914M 42915  42918  42924  42926M 42926
             42927M 42929M 42930M 42930  42933M 42933  42934  42935M 43028M 43059  43107  43122M 43163M 43361  43415M
             43416M 43416  43438  43506M 43509M 43551M 43552  43594M 43677M 43680M 43731M 43734M 43786M 43789M 43796
             43923M 43924  43924  43925  43926  43927  43928  43929  43930  43975M 43978M 43992M 44000  44001M 44066M
             44067  44067  44068  44069  44070  44071  44072  44073  44074  44196M 44204  44205M 44256M 44259M 44302M
             44303  44303  44304  44305  44306  44307  44308  44309  44352M 44355M 44369M 44377  44378M 44452M 44453
             44453  44454  44455  44456  44457  44458  44459  44504M 44507M 44514M 44522  44523M 44579M 44582M 44711M
             44712  44712  44713  44714  44716  44718  44822M 44825M 44851M 44901M 45077  45172M 45175M 45225M 45226
             45249M 45250M 45250  45252M 45358M 45367M 45367  45381M 45384M 45401  45415M 45418M 45429N 45726M 45793
             45901M 45904M 45913M 45914  45918M 45919  45942M 45964M 45965M 45986  46093M 46124  46196M 46197M 46198
             46240M 46269  46449M 46634  46729M 46732M 46773M 46774  46907M 46908  46909  46910  46911  46912  46913
             46914  46996M 47087M 47096M 47096  47110M 47113M 47130  47144M 47147M 47158N 47253M 47284  47385M 47388M
             47415M 47416M 47417  47434U 47447U 47582M 47583  47584  47585  47586  47587  47588  47589  47590  47591
             47594  47622M 47625M 47730  47745M 47943M 47974  48075M 48078M 48136M 48167  48243M 48246M 48338  48353M
             48602M 48603M 48627U 48651M 48666U 48689U 48711U 48802M 48833  48948M 48951M 48996M 48997M 49028M 49059M
             49062M 49118M 49128U 49143U 49171  49227M 49230M 49310M 49341  49456M 49459M 49563M 49566M 49617M 49785
             49896M 49897  49902M 49903  49914U 49964U 49969M 49970  49997U 50008U 50030M 50031  50068M 50069  50080U
             50090U 50113M 50114  50125U 50135U 50158M 50159  50170U 50180U 50203M 50204  50215U 50225U 50249M 50250
             50261U 50271U 50294M 50295  50306U 50316U 50338M 50339  50380M 50381  50446M 50456U 50466U 50545M 50634
             50904M 50904  50908M 50909M 50909  50921  50928M 50933  50934  51013M 51033M 51036M 51294M 51295  51296M
             51296  51366M 51382M 51385M 51613M 51720  51836M 51853U 51865M 51865  51883  51898M 51904U 51983M 51999M
             52002M 52014M 52023M 52023  52031M 52047M 52050M 52065M 52065  52068  52099M 52131  52251M 52268U 52284M
             52284  52306  52321M 52327U 52380M 52396M 52399M 52444M 52460M 52463M 52490M 52506M 52509M 52567M 52568
             52569M 52569  52587M 52601M 52604M 52764M 52765M 52789U 52813M 52828U 52851U 52873U 52965M 53135  53230M
             53233M 53316M 53317  53359M 53442M 53451M 53451  53465M 53468M 53485  53499M 53502M 53513N 53607M 53673
             53767M 53770M 53908M 53911M 53918M 53928U 53952M 53958U 53960M 54001M 54001N 54010  54026M 54035  54106M
             54107  54108M 54109  54315  54330M 54578M 54578  54585M 54612M 54615M 54623  54635M 54645U 54651M 54658U
             54669U 54675M 54682U 54693U 54706U 54728M 54738U 54744M 54751U 54753  54815  54989M 54992M 55005M 55015U
             55127M 55128  55251U 55370M 55401  55492M 55739  55949M 55950  55955M 55956  55967U 56017U 56022M 56023
             56034U 56047U 56121M 56122  56133U 56169U 56205M 56206  56217U 56230U 56235M 56236  56245M 56246  56257U
             56310U 56330M 56331  56342U 56374U 56395M 56396  56407U 56420U 56444M 56445  56478M 56479  56490U 56503U
             56523M 56524  56548M 56549  56558M 56559  56570U 56583U 56588M 56589  56600U 56613U 56618M 56619  56630U
             56643U 56663M 56664  56688M 56689  56713M 56714  56755M 56756  56820M 56830U 56840U 56922M 56953  57029M
             57032M 57124  57139M 57388M 57389M 57413U 57437M 57452U 57475U 57497U 57599M 57748  57865M 57927M 57958
             58013M 58023U 58029M 58036U 58048  58096M 58149  58345M 58465  58550M 58556M 58557  58558M 58559  58562M
             58659M 58780  58869M 58870  58871M 58872  58873M 58874  58879M 58881M 58885M 58909M 58912M 58975M 59086
             59199M 59200  59201  59202  59203  59204  59205  59212  59213  59237M 59238  59239  59240  59241  59242
             59243  59250  59251  59295M 59380  59469M 59470  59483M 59557  59609M 59695  59780M 59839M 59925  59966M
             59967  59970M 59971  60015M 60016  60029M 60071M 60074M 60099M 60142  60143  60144M 60150U 60195  60284
             60316  60370M 60371  60372  60374  60435M 60436  60436  60437  60438  60439  60440  60507M 60549M
     2(2)      983U 17432M 17549  17638M 17646U 17726M 17766  17774M 17782U 17785U 17822U 17835M 17852  17926  18903M
             18935  19188M 19244  19746M 19756U 19771M 19772M 19772  19893  20023  21193U 21211M 21243  21483M 21484M
             21484  21504M 21505M 21505  21520U 21534M 21588  21599U 21619M 21628M 21628  21646M 21685  21710M 21878
             21932M 21961  22015M 22044  22098M 22129  22174M 22184U 22200U 22208M 22239  22284M 22294U 22310U 22318M
             22349  22430M 22440U 22460U 22463U 22480U 22483U 22575  22590  22602U 22615M 22647  22728M 22738U 22758U
             22761U 22778U 22781U 22881  22899  22911U 22924M 22953  23018M 23028U 23048U 23051U 23068U 23071U 23163
             23178  23190U 23198M 23227  23292M 23302U 23322U 23325U 23342U 23345U 23437  23452  23464U 23472M 23504
             23610M 23620U 23945  23961  23973U 23986M 24082  24257M 24258M 24258  24284U 24413  24414  24429U 24483M
             24686  25348M 25378U 25388M 25450M 25488U 25516U 25523M 25529M 25552M 25567M 25572M 25578U 25595U 25659M
             25834U 25884M 26145  27003M 27033U 27043M 27098M 27136U 27179U 27186M 27268U 27296U 27303M 27309M 27332M
1         (IOSE00) (09:40) (22MAR04) General Purpose Register Cross Reference                                               Page  422
             27343U 27360U 27373M 27375M 27381U 27398U 27442U 27520M 27781  28859M 28889U 28899M 28989M 29001U 29044U
             29051M 29125U 29152U 29159M 29165M 29188M 29199U 29298U 29305M 29362U 29378U 29580M 29585M 29592M 29620U
             29662M 29672U 29692U 29761M 29860  29936M 29946U 29952M 29959U 29961M 30087  30237  30315M 30329U 30336M
             30370U 30402M 30437  30559M 30625  30661M 30703  30796M 30824M 30824  30836M 30868M 30868  30874M 30895
             30902M 31149  31267  31274U 31287M 31318  31413M 31414M 31414  31429U 31448M 31448  31460M 31550  31575U
             31594M 31634  31717M 31732M 31732  31744M 31775M 31775  31812M 31821  31836M 31867  31954M 31954  31955M
             31971N 31979M 31980  31985M 31993U 32002M 32010U 32013U 32044M 32067U 32076M 32076  32077M 32078M 32090
             32096M 32104  32126M 32161  32227M 32250  32260M 32283  32313M 32681  32892M 32923  33031M 33032M 33032
             33054M 33326M 33357  33714M 33745  33828M 33846U 33893U 33922M 33923M 33924  34086M 34114  34246M 34264U
             34311U 34340M 34341M 34342  34508M 34536  34621M 34649  34775M 34776M 34778M 34779M 34815M 34843  35066M
             35155M 35155  35189  35219M 35250  35282M 35292U 35425U 35443  35493U 35521U 35541U 35621  35644U 35657M
             36014  36334M 36359U 36428  36484U 36536U 36604  36864U 37126M 37261  37515M 37533U 37539M 37546U 37557U
             37580  37670  37828M 37886U 37914M 37960  38127M 38145U 38151M 38158U 38169U 38177  38273M 38604U 38627M
             38670  38742M 38743  38745M 38755U 39010U 39033M 39208  39361M 39362M 39363M 39363N 39365  39413  39416M
             39417  39421M 39422  39463M 39463  39582N 39628N 39637N 39638N 39640M 39690  39706M 39706  39707  39752M
             39754  39775M 39795M 39838M 39839M 39846  39982  40091M 40097M 40143M 40147  40237M 40395M 40405U 40418U
             40536M 40548  40594M 40771  40907M 40925U 41305U 41333M 41364  41487M 41505U 41605U 41635M 41846  42045
             42250M 42250  42267M 42284M 42394  42414M 42446  42567M 42603M 42685M 42724M 42753  43028M 43059  43107
             43124M 43143M 43148  43163M 43361  43528M 43529  43796  43822M 43832U 43856U 43862M 43863  43866M 43868
             43873M 43874  43895M 43896M 43984  44096  44097M 44107U 44126U 44158U 44176U 44293M 44327  44366M 44368M
             44405M 44415U 44434M 44435  44436M 44437  44438M 44439  44440M 44513  44556U 44589M 44592  44607M 44619M
             44635U 44648U 44673U 44692U 44838M 44850  44901M 45077  45587M 45599  45726M 45793  45944M 46024M 46024
             46063  46093M 46124  46240M 46269  46449M 46634  46821M 46822  46914  47253M 47284  47542M 47582  47662
             47712M 47730  47745  47805  47943M 47974  48136M 48167  48338  48372M 48509M 48777  48802M 48833  48961M
             48982  48994M 48995  49008M 49083  49246M 49272  49310M 49341  49468M 49478U 49507  49589U 49617M 49785
             50545M 50634  51231M 51232  51242U 51289  51563U 51613M 51720  51813M 51883  51936U 52081U 52099M 52131
             52228M 52306  52360U 52786U 52804  52823U 52848U 52868U 52925  52947U 52965M 53135  53252M 53253  53263U
             53293U 53607M 53673  53846M 54315  54357M 54357  54374M 54391M 54447M 54447  54753M 54773U 54800M 54815
             54827U 54889M 54890M 54890  54911M 54929U 54935M 54942U 54953U 54963U 55035M 55059  55083M 55083  55097
             55136N 55139M 55245M 55245  55289M 55289  55328  55370M 55401  55492M 55739  55929M 55931M 56922M 56953
             57124  57158M 57295M 57577  57599M 57748  57870M 57907  57927M 57958  58041M 58096M 58149  58345M 58465
             58571M 58639  58659M 58780  58918M 58975M 59086  59131M 59213  59251  59295M 59380  59469M 59470  59609M
             59695  59839M 59925  60099M 60142  60144M 60163M 60195  60229M 60247U 60253M 60260U 60271U 60284  60407M
             60477M 60535U 60537M 60549M
     3(3)      979U 17429M 17853B 17926  18405M 18903M 18935  19188M 19244  20138M 20148U 20206  20336  20452M 20462U
             20465U 20523  20653  20770U 20776M 20788M 20789M 20789  20849  20979  21072U 21077U 21211M 21243  21326M
             21339M 21339  21357U 21379M 21385U 21524M 21533  21534M 21619M 21645  21646M 21710M 21878  21932M 21961
             22015M 22044  22098M 22129  22208M 22239  22318M 22349  22615M 22647  22924M 22953  23198M 23227  23472M
             23504  23874M 23884U 23957U 23986M 24082  24131M 24154  24168U 24281U 24336  24414M 24424U 24465U 24483M
             24686  24751M 24761U 24910  25142  25316  25861U 25884M 26145  26210M 26220U 26342  26445  26658M 26659M
             26659  26674U 26677U 26723  26746U 26749U 26799  26973  27497U 27520M 27781  27846M 27856U 27985  28088
             28301M 28302M 28302  28317U 28320U 28366  28389U 28392U 28546  28817  29519  29741U 29761M 29860  29892M
             29902U 30279  30648U 30661M 30703  30796M 30835  30836M 30903M 30917M 30917  31190M 31287M 31318  31433M
             31459  31460M 31548M 31549M 31550  31594M 31634  31717M 31743  31744M 31836M 31867  31913M 31925  31955M
             32034  32043M 32077M 32099M 32105M 32106  32126M 32161  32207M 32217U 32250  32260M 32295U 32313M 32681
             32892M 32923  33038M 33048U 33061U 33063M 33064M 33085  33107M 33109  33228M 33238U 33293U 33326M 33357
             33714M 33745  33922M 33924  34086M 34114  34340M 34342  34508M 34536  34621M 34649  34815M 34843  35219M
             35250  35657M 36014  36368M 36385M 36425  36540M 36541M 36542M 36542  36543  36544M 36561M 36601  36658M
             36805  36812M 36812  37063M 37076  37082M 37126M 37261  37486M 37496U 37580  37600M 37670  37690M 37771M
             37828M 37861  37891U 37914M 37960  38098M 38108U 38177  38189M 38237M 38273M 38306  38609U 38627M 38670
             39033M 39208  39284M 39381M 39438M 39439M 39439  39445M 39455U 39675U 39690  39818M 39819  39838M 39844M
             39846  39979M 39982  40092M 40093  40097M 40237M 40554M 40594M 40771  40831M 40841U 41249  41310U 41333M
             41364  41412M 41422U 41553  41617U 41635M 41846  42045  42302M 42303M 42303  42414M 42446  42684M 42685M
             42724M 42753  42817M 42826M 42826  42854  43028M 43059  43107  43163M 43361  43437M 43796  43890M 43891
             43895M 44364M 44365  44368M 44607M 44697M 44698M 44699  44856M 44901M 45077  45605M 45658  45726M 45793
             45957M 45958M 45958  45987  46093M 46124  46240M 46269  46449M 46634  46855M 46907  46951  47253M 47284
             47508M 47509  47591  47713  47730  47855  47943M 47974  48136M 48167  48320M 48338  48353  48408  48802M
             48833  49007M 49008M 49071M 49083  49108M 49133  49236M 49247M 49271  49310M 49341  49575M 49578  49617M
             49785  50545M 50634  51613M 51720  52099M 52131  52560M 52561  52561  52567  52644  52965M 53135  53607M
1         (IOSE00) (09:40) (22MAR04) General Purpose Register Cross Reference                                               Page  423
             53673  54084M 54110  54127U 54149U 54182  54297M 54315  54330  54431  55079M 55370M 55401  55492M 55739
             55930M 55931M 56922M 56953  57106M 57124  57139  57194  57599M 57748  57927M 57958  57995M 58004M 58004
             58038  58076M 58081  58096M 58149  58190M 58208U 58214M 58221U 58232U 58238M 58245U 58256U 58303M 58332U
             58345M 58465  58536M 58546U 58634  58646U 58659M 58780  58851M 58861U 58951  58962U 58975M 59086  59132M
             59200  59238  59295M 59380  59609M 59695  59839M 59925  60099M 60142  60144M 60152M 60153B 60163M 60195
             60284  60285M 60295U 60315M 60341M 60341  60378M 60407M 60444M 60477M 60490M 60512M 60527U 60537M 60549M
     4(4)      975U 17418M 17426U 17797  17828U 17926  18405M 18903M 18935  19188M 19244  21211M 21243  21710M 21878
             21932M 21961  22015M 22044  22098M 22129  22208M 22239  22318M 22349  22615M 22647  22924M 22953  23198M
             23227  23472M 23504  23986M 24082  24117M 24127U 24152  24470U 24483M 24686  24845M 24863U 25114U 25330M
             25340U 25839U 25884M 26145  26377M 26395U 26770U 26986M 26996U 27475U 27520M 27781  28020M 28038U 28413U
             28842M 28852U 29726U 29761M 29860  30289M 30299U 30633U 30661M 30703  30901M 30902  30932U 31066  31117
             31149  31165  31191M 31197U 31287M 31318  31495M 31496M 31496  31512  31594M 31634  31836M 31867  32023M
             32023  32024M 32034  32043  32126M 32161  32250  32260M 32313M 32681  32892M 32923  33159M 33177U 33303U
             33326M 33357  33502M 33520U 33526M 33533U 33544U 33656U 33714M 33745  33886M 33895  33986  34086M 34114
             34304M 34313  34404  34508M 34536  34621M 34649  34815M 34843  34923M 34941U 34947M 34954U 34965U 35196U
             35219M 35250  35657M 36014  36101M 36111U 36316  36385M 36561M 36877M 36921  37082M 37108U 37126M 37261
             37580  37600M 37670  37690M 37771M 37828M 37914M 37960  38177  38189M 38237M 38273M 38627M 38670  39033M
             39208  39284M 39318M 39330  39361  39381M 39415  39480M 39489M 39489  39690  39698M 39729M 39729  40230M
             40237M 40337M 40350U 40474U 40554M 40594M 40771  41333M 41364  41635M 41846  42045  42414M 42446  42724M
             42753  43028M 43059  43107  43163M 43361  43437M 43796  43801M 43816M 43816  44598M 44607M 44767M 44791
             44856M 44901M 45077  45313M 45331U 45356  45488  45499U 45726M 45793  45825M 45835U 46080U 46093M 46124
             46240M 46269  46449M 46634  47035M 47053U 47078  47218  47229U 47253M 47284  47316M 47326U 47730  47930U
             47943M 47974  48006M 48016U 48123U 48136M 48167  48262M 48275M 48275  48321  48338  48437  48802M 48833
             48865M 48875U 49297U 49310M 49341  49373M 49383U 49604U 49617M 49785  50545M 50634  51613M 51720  51814M
             51890M 51890  51949M 51949  52074  52099M 52131  52229M 52313M 52313  52372M 52372  52579M 52940  52965M
             53135  53398M 53428  53438U 53572  53583U 53607M 53673  54245M 54246  54256U 54298  54315  54481  55272U
             55370M 55401  55492M 55739  56922M 56953  57048M 57061M 57061  57107  57124  57223  57599M 57748  57927M
             57958  58096M 58149  58345M 58465  58659M 58780  58975M 59086  59133M 59212  59250  59295M 59380  59609M
             59695  59839M 59925  60099M 60142  60163M 60195  60284  60315M 60316M 60326U 60378M 60407M 60444M 60477M
             60507  60512M 60519U 60537M 60549M
     5(5)      971U 17408M 17416U 17626U 17795M 17796M 17797  17926  18479M 18489U 18890U 18903M 18935  19188M 19244
             21211M 21243  21710M 21878  21932M 21961  22015M 22044  22098M 22129  22208M 22239  22318M 22349  22615M
             22647  22924M 22953  23198M 23227  23472M 23504  23986M 24082  24483M 24686  24896M 24906U 24959U 24962U
             24982U 24985U 25084  25109U 25128M 25138U 25820  25856U 25884M 26145  26431M 26441U 26495U 26498U 26518U
             26521U 26619  26765U 26785M 26795U 27461  27492U 27520M 27781  28074M 28084U 28138U 28141U 28161U 28164U
             28262  28408U 28532M 28542U 29712  29736U 29761M 29860  30265M 30275U 30455  30638U 30661M 30703  31115M
             31116M 31117  31163M 31164M 31165  31287M 31318  31511M 31512  31594M 31634  31836M 31867  32126M 32161
             32250  32260M 32313M 32681  32892M 32923  33213M 33223U 33270  33298U 33326M 33357  33714M 33745  33899M
             33909U 33964U 34086M 34114  34317M 34327U 34382U 34508M 34536  34621M 34649  34761M 34771U 34786U 34815M
             34843  35131M 35141U 35161U 35219M 35250  35657M 36014  36633M 36634M 36634  36657  36667M 36667  36668
             36805N 36809N 36810N 36811M 37015M 37025U 37088U 37126M 37261  37580  37670  37828M 37914M 37960  37997M
             38007U 38177  38273M 38428U 38446  38465U 38490U 38510U 38580  38614U 38627M 38670  39033M 39208  39467M
             39467  39523N 39549N 39587N 39639N 39641M 39669M 39669  39690  39702M 39702  39775N 39835N 39844N 39979N
             39980N 40094N 40098N 40165N 40195N 40231M 40237M 40386M 40393  40448  40594M 40771  40958M 40968U 41277
             41300U 41333M 41364  41539M 41549U 41581  41599U 41635M 41846  42045  42414M 42446  42724M 42753  43028M
             43059  43107  43163M 43361  43796  43805M 43805  43822N 43862N 43892N 44367N 44405N 44434N 44588N 44599M
             44607M 44901M 45077  45535M 45545U 45698U 45726M 45793  45853M 45863U 46051  46070U 46093M 46124  46240M
             46269  46449M 46634  47253M 47284  47337M 47347U 47730  47906  47925U 47943M 47974  48027M 48037U 48102
             48118U 48136M 48167  48199M 48209U 48338  48624U 48642  48661U 48686U 48706U 48762  48789U 48802M 48833
             48900M 48910U 49287U 49310M 49341  49408M 49418U 49594U 49617M 49785  49891M 49898M 49904M 49971M 50032M
             50070M 50115M 50160M 50205M 50251M 50296M 50340M 50400M 50523  50545M 50634  50708M 50718U 50990  51109
             51126U 51193M 51194  51195  51248  51287M 51288  51288  51294  51335  51411  51419M 51441  51613M 51720
             52099M 52131  52473M 52482M 52482  52562  52680  52695M 52717  52965M 53135  53607M 53673  53719M 53729U
             54315  55316  55352U 55370M 55401  55492M 55739  55945M 55951M 55957M 56024M 56123M 56207M 56237M 56247M
             56332M 56397M 56446M 56480M 56525M 56550M 56560M 56590M 56620M 56665M 56690M 56715M 56775M 56898  56922M
             56953  56985M 56995U 57124  57410U 57428  57447U 57472U 57492U 57562  57586U 57599M 57748  57927M 57958
             58096M 58149  58345M 58465  58659M 58780  58975M 59086  59295M 59380  59454M 59464U 59477U 59483  59589
             59609M 59695  59839M 59925  60099M 60142  60163M 60195  60284  60407M 60477M 60537M 60549M
     6(6)      967U 17926  18159M 18160  18903M 18935  19188M 19244  21211M 21243  21710M 21878  21932M 21961  22015M
1         (IOSE00) (09:40) (22MAR04) General Purpose Register Cross Reference                                               Page  424
             22044  22098M 22129  22208M 22239  22318M 22349  22615M 22647  22924M 22953  23198M 23227  23472M 23504
             23537M 23730  23750  23813  23899  23927  23986M 24082  24132M 24133M 24153  24223U 24460U 24483M 24686
             24737M 24747U 24943U 24946U 24994U 24997U 25288U 25291U 25848U 25851U 25866U 25884M 26145  26196M 26206U
             26479U 26482U 26530U 26533U 26724  26945U 26948U 27484U 27487U 27502U 27520M 27781  27832M 27842U 28122U
             28125U 28173U 28176U 28367  28465U 28468U 28517U 28520U 28781U 28792U 29731U 29761M 29860  30023M 30039M
             30040M 30040  30114M 30193M 30661M 30703  31287M 31318  31594M 31634  31836M 31867  31899M 31909U 32113U
             32126M 32161  32193M 32203U 32250  32260M 32300U 32313M 32681  32713M 32723U 32768U 32867  32892M 32923
             32960M 32970U 33227  33313U 33326M 33357  33389M 33399U 33615  33681  33701U 33714M 33745  33782M 33792U
             34073U 34086M 34114  34151M 34161U 34495U 34508M 34536  34568M 34578U 34608U 34621M 34649  34686M 34696U
             34802U 34815M 34843  34880M 34890U 35057  35103U 35112  35123U 35130  35206U 35219M 35250  35332M 35350U
             35356M 35363U 35374U 35567U 35657M 36014  36046M 36056U 36314  36426  36602  36876M 36889  37113U 37126M
             37261  37298M 37308U 37580  37670  37828M 37901U 37914M 37960  38177  38273M 38336M 38354U 38360M 38367U
             38378U 38536U 38627M 38670  38707M 38717U 38779  39020U 39033M 39208  39290M 39300U 39690  40237M 40576U
             40594M 40771  40817M 40827U 41002U 41005U 41019U 41022U 41065U 41068U 41082U 41085U 41128U 41131U 41145U
             41148U 41192U 41195U 41209U 41212U 41315U 41333M 41364  41410M 41635M 41846  42045  42414M 42446  42724M
             42753  43028M 43059  43107  43163M 43361  43740M 43750U 43796  44607M 44862U 44901M 45077  45573M 45583U
             45599  45646  45658M 45693U 45726M 45793  46093M 46124  46156M 46166U 46227U 46240M 46269  46301M 46311U
             46392  46436U 46449M 46634  47253M 47284  47460M 47730  47747M 47765M 47821M 47821  47879M 47879  47918
             47943M 47974  48136M 48167  48338  48532M 48550U 48556M 48563U 48574U 48784U 48802M 48833  49089M 49101M
             49101  49107M 49109M 49134  49135  49236N 49310M 49341  49576M 49577M 49617M 49785  49876M 49887U 50475U
             50511  50545M 50634  51005M 51139M 51139  51299M 51358M 51358  51575M 51575  51613M 51720  51767M 51785U
             51791M 51798U 51809U 52086U 52099M 52131  52178M 52196U 52202M 52209U 52220U 52952U 52965M 53135  53607M
             53673  53795M 53805U 53827  54315  54504M 54514U 54517U 55260U 55263U 55335U 55370M 55401  55492M 55739
             55926M 55929  55941U 56143U 56182U 56849U 56886  56922M 56953  57124  57318M 57336U 57342M 57349U 57360U
             57518U 57599M 57748  57827M 57837U 57902  57914U 57927M 57958  58096M 58149  58345M 58465  58659M 58780
             58975M 59086  59295M 59380  59609M 59695  59735M 59736  59753U 59775U 59810U 59821U 59839M 59925  59979M
             59980  60000U 60023U 60058U 60081U 60099M 60142  60163M 60195  60284  60407M 60477M 60537M 60549M
     7(7)      963U 17926  17987M 17997U 18115  18329  18352  18375  18424  18895U 18903M 18935  18999M 19009U 19032
             19180U 19188M 19244  19296M 19314U 19320M 19327U 19338U 19506  19636  21198U 21211M 21243  21277M 21295U
             21301M 21308U 21319U 21702U 21710M 21878  21932M 21961  22015M 22044  22098M 22129  22208M 22239  22318M
             22349  22504M 22522U 22528M 22535U 22546U 22597U 22615M 22647  22802M 22820U 22826M 22833U 22844U 22906U
             22924M 22953  23092M 23110U 23116M 23123U 23134U 23185U 23198M 23227  23366M 23384U 23390M 23397U 23408U
             23459U 23472M 23504  23653M 23671U 23677M 23684U 23695U 23968U 23986M 24082  24483M 24686  24723M 24733U
             25871U 25884M 26145  26182M 26192U 26725  27507U 27520M 27781  27818M 27828U 28368  29748U 29761M 29860
             29977M 29995U 30001M 30008U 30019U 30643U 30661M 30703  30750M 30768U 30774M 30781U 30792U 30937  31279U
             31287M 31318  31352M 31370U 31376M 31383U 31394U 31586U 31594M 31634  31671M 31689U 31695M 31702U 31713U
             31828U 31836M 31867  32126M 32161  32250  32260M 32313M 32681  32773M 32783U 32796U 32868  32892M 32923
             32974M 32984U 33308U 33326M 33357  33403M 33413U 33696U 33714M 33745  33796M 33806U 34068U 34086M 34114
             34165M 34175U 34490U 34508M 34536  34621M 34649  34700M 34710U 34797U 34815M 34843  34894M 34904U 35201U
             35219M 35250  35657M 36014  36115M 36125U 36315  36334  36386M 36396U 36399U 36476U 36479U 36562M 36572U
             36575U 36856U 36859U 36920  37077  37103U 37126M 37261  37312M 37322U 37580  37670  37828M 37896U 37914M
             37960  38177  38273M 38627M 38670  38721M 38731U 39015U 39033M 39208  39304M 39314U 39414  39690  40237M
             40571U 40594M 40771  40803M 40813U 41320U 41333M 41364  41396M 41406U 41622U 41635M 41846  41878M 41888U
             41903M 41903  41948M 41949  42045  42401U 42414M 42446  42465M 42475U 42499M 42499  42716U 42724M 42753
             42772M 42781M 42781  42803U 43005  43015U 43028M 43059  43078M 43088U 43107  43155U 43163M 43361  43492M
             43524U 43796  44607M 44883U 44901M 45077  45158M 45190U 45357  45713U 45726M 45793  45839M 45849U 46075U
             46093M 46124  46240M 46269  46449M 46634  46715M 46747U 47079  47240U 47253M 47284  47730  47943M 47974
             48136M 48167  48338  48802M 48833  48879M 48889U 49292U 49310M 49341  49387M 49397U 49599U 49617M 49785
             49817M 49827U 50532U 50545M 50634  50834M 50852U 50858M 50865U 50876U 51593U 51613M 51720  52099M 52131
             52965M 53135  53216M 53248U 53594U 53607M 53673  53705M 53715U 53788U 53791U 54315  55344U 55347U 55357U
             55370M 55401  55451M 55461U 55479U 55492M 55739  55771M 55781U 56909U 56922M 56953  57124  57599M 57748
             57927M 57958  58096M 58149  58345M 58465  58659M 58780  58975M 59086  59295M 59380  59499M 59517U 59523M
             59530U 59541U 59554U 59609M 59695  59839M 59925  60099M 60142  60163M 60195  60284  60407M 60477M 60537M
             60549M
     8(8)      959U 17926  18903M 18935  19188M 19244  21211M 21243  21710M 21878  21932M 21961  22015M 22044  22098M
             22129  22208M 22239  22318M 22349  22615M 22647  22924M 22953  23198M 23227  23472M 23504  23986M 24082
             24483M 24686  25884M 26145  27520M 27781  29242M 29243M 29243  29249M 29382M 29761M 29860  30661M 30703
             31287M 31318  31594M 31634  31836M 31867  32126M 32161  32250  32260M 32313M 32681  32892M 32923  33326M
             33357  33714M 33745  34086M 34114  34508M 34536  34621M 34649  34815M 34843  35219M 35250  35657M 36014
1         (IOSE00) (09:40) (22MAR04) General Purpose Register Cross Reference                                               Page  425
             36687M 36688M 36688  36694M 36702M 36946M 37092  37126M 37261  37580  37670  37828M 37914M 37960  38177
             38273M 38627M 38670  39033M 39208  39382M 39393U 39690  40237M 40394  40549  40566U 40594M 40771  41333M
             41364  41635M 41846  42045  42414M 42446  42724M 42753  43028M 43059  43107  43163M 43361  43639M 43648
             43662M 43663M 43663  43695U 43796  44607M 44851  44867U 44901M 45077  45726M 45793  46093M 46124  46240M
             46269  46449M 46634  47253M 47284  47730  47943M 47974  48136M 48167  48338  48802M 48833  49310M 49341
             49617M 49785  50545M 50634  50761M 50771U 50791U 50794U 50810U 50813U 51069  51477  51533  51548  51598U
             51613M 51720  52099M 52131  52965M 53135  53607M 53673  54315  55370M 55401  55492M 55739  56922M 56953
             57124  57599M 57748  57927M 57958  58096M 58149  58345M 58465  58659M 58780  58975M 59086  59295M 59380
             59609M 59695  59839M 59925  60099M 60142  60163M 60195  60284  60407M 60477M 60537M 60549M
     9(9)      955U 17405U 17407M 17884U 17926  18085U 18098U 18903M 18935  19026U 19039U 19188M 19244  19290U 19303U
             21211M 21243  21271U 21284U 21710M 21878  21932M 21961  22015M 22044  22098M 22129  22208M 22239  22318M
             22349  22498U 22511U 22615M 22647  22796U 22809U 22924M 22953  23086U 23099U 23198M 23227  23360U 23373U
             23472M 23504  23647U 23660U 23986M 24082  24483M 24686  24839U 24852U 25884M 26145  26371U 26384U 27520M
             27781  28014U 28027U 29761M 29860  29971U 29984U 30661M 30703  30744U 30757U 31287M 31318  31346U 31359U
             31594M 31634  31665U 31678U 31836M 31867  32126M 32161  32250  32260M 32313M 32681  32892M 32923  33153U
             33166U 33326M 33357  33496U 33509U 33714M 33745  33822U 33835U 34086M 34114  34240U 34253U 34508M 34536
             34621M 34649  34815M 34843  34917U 34930U 35219M 35250  35326U 35339U 35657M 36014  37126M 37261  37509U
             37522U 37580  37670  37828M 37914M 37960  38121U 38134U 38177  38273M 38330U 38343U 38627M 38670  39033M
             39208  39249U 39690  40237M 40581U 40594M 40771  40901U 40914U 41333M 41364  41481U 41494U 41635M 41846
             42045  42414M 42446  42724M 42753  43028M 43059  43107  43163M 43361  43402U 43796  44607M 44888U 44901M
             45077  45726M 45793  46093M 46124  46240M 46269  46449M 46634  47253M 47284  47730  47943M 47974  48136M
             48167  48338  48526U 48539U 48802M 48833  49310M 49341  49617M 49785  50545M 50634  50828U 50841U 51613M
             51720  51761U 51774U 52099M 52131  52172U 52185U 52965M 53135  53277U 53287U 53607M 53673  54315  54905U
             54918U 55370M 55401  55492M 55739  56922M 56953  57124  57312U 57325U 57599M 57748  57859  57869M 57927M
             57958  58046  58075M 58096M 58149  58345M 58465  58659M 58780  58975M 59086  59295M 59380  59493U 59506U
             59609M 59695  59839M 59925  60099M 60142  60163M 60195  60223U 60236U 60284  60407M 60477M 60537M 60549M
    10(A)      951U 17732M 17732  17926  17927M 17937U 18900U 18903M 18935  18936M 18946U 19185U 19188M 19244  19245M
             19255U 21208U 21211M 21243  21244M 21254U 21707U 21710M 21878  21879M 21889U 21929U 21932M 21961  21962M
             21972U 22012U 22015M 22044  22045M 22055U 22095U 22098M 22129  22130M 22140U 22205U 22208M 22239  22240M
             22250U 22315U 22318M 22349  22350M 22360U 22612U 22615M 22647  22648M 22658U 22921U 22924M 22953  22954M
             22964U 23195U 23198M 23227  23228M 23238U 23469U 23472M 23504  23505M 23515U 23983U 23986M 24082  24083M
             24093U 24480U 24483M 24686  24687M 24697U 25881U 25884M 26145  26146M 26156U 27517U 27520M 27781  27782M
             27792U 29758U 29761M 29860  29861M 29871U 30658U 30661M 30703  30704M 30714U 31284U 31287M 31318  31319M
             31329U 31591U 31594M 31634  31635M 31645U 31833U 31836M 31867  31868M 31878U 32123U 32126M 32161  32162M
             32172U 32250  32260M 32310U 32313M 32681  32682M 32692U 32889U 32892M 32923  32924M 32934U 33323U 33326M
             33357  33358M 33368U 33711U 33714M 33745  33746M 33756U 34083U 34086M 34114  34115M 34125U 34505U 34508M
             34536  34537M 34547U 34618U 34621M 34649  34650M 34660U 34812U 34815M 34843  34844M 34854U 35216U 35219M
             35250  35251M 35261U 35654U 35657M 36014  36015M 36025U 37123U 37126M 37261  37262M 37272U 37580  37670
             37828M 37911U 37914M 37960  37961M 37971U 38177  38273M 38624U 38627M 38670  38671M 38681U 39030U 39033M
             39208  39209M 39219U 39690  40237M 40591U 40594M 40771  40772M 40782U 41330U 41333M 41364  41365M 41375U
             41632U 41635M 41846  41847M 41857U 42045  42411U 42414M 42446  42447M 42457U 42721U 42724M 42753  42754M
             42764U 43025U 43028M 43059  43060M 43070U 43107  43160U 43163M 43361  43362M 43372U 43796  44607M 44898U
             44901M 45077  45078M 45088U 45723U 45726M 45793  45794M 45804U 46090U 46093M 46124  46125M 46135U 46237U
             46240M 46269  46270M 46280U 46446U 46449M 46634  46635M 46645U 47250U 47253M 47284  47285M 47295U 47730
             47940U 47943M 47974  47975M 47985U 48133U 48136M 48167  48168M 48178U 48338  48799U 48802M 48833  48834M
             48844U 49307U 49310M 49341  49342M 49352U 49614U 49617M 49785  49786M 49796U 50542U 50545M 50634  50635M
             50645U 51610U 51613M 51720  51721M 51731U 52096U 52099M 52131  52132M 52142U 52962U 52965M 53135  53136M
             53146U 53604U 53607M 53673  53674M 53684U 54315  55367U 55370M 55401  55402M 55412U 55489U 55492M 55739
             55740M 55750U 56919U 56922M 56953  56954M 56964U 57124  57596U 57599M 57748  57749M 57759U 57859  57869M
             57924U 57927M 57958  57959M 57969U 58046  58075M 58093U 58096M 58149  58150M 58160U 58342U 58345M 58465
             58466M 58476U 58656U 58659M 58780  58781M 58791U 58972U 58975M 59086  59087M 59097U 59292U 59295M 59380
             59381M 59391U 59606U 59609M 59695  59696M 59706U 59836U 59839M 59925  59926M 59936U 60096U 60099M 60142
             60163M 60195  60196M 60206U 60284  60407M 60477M 60537M 60546U 60549M
    11(B)      947U 11615B 11616B 17728M 17926  18903M 18935  19188M 19244  21211M 21243  21710M 21878  21932M 21961
             22015M 22044  22098M 22129  22208M 22239  22318M 22349  22615M 22647  22924M 22953  23198M 23227  23472M
             23504  23986M 24082  24483M 24686  25884M 26145  27520M 27781  29761M 29860  30661M 30703  31287M 31318
             31594M 31634  31836M 31867  32126M 32161  32236  32242M 32250  32260M 32271  32277M 32313M 32681  32892M
             32923  33326M 33357  33714M 33745  34086M 34114  34508M 34536  34621M 34649  34815M 34843  35219M 35250
             35657M 36014  37126M 37261  37580  37670  37828M 37914M 37960  38177  38273M 38627M 38670  39033M 39208
1         (IOSE00) (09:40) (22MAR04) General Purpose Register Cross Reference                                               Page  426
             39690  40237M 40594M 40771  41333M 41364  41635M 41846  42045  42414M 42446  42724M 42753  43028M 43059
             43107  43163M 43361  43796  44607M 44901M 45077  45726M 45793  46093M 46124  46240M 46269  46449M 46634
             47253M 47284  47730  47943M 47974  48136M 48167  48338  48802M 48833  49310M 49341  49617M 49785  50545M
             50634  51613M 51720  52099M 52131  52965M 53135  53607M 53673  54315  55370M 55401  55492M 55739  56922M
             56953  57124  57599M 57748  57859  57869M 57927M 57958  58046  58047M 58048M 58075M 58096M 58149  58345M
             58465  58659M 58780  58975M 59086  59295M 59380  59609M 59695  59839M 59925  60099M 60142  60163M 60195
             60284  60407M 60477M 60537M 60549M
    12(C)      943U 17568M 17926  17941  17942M 17943  17944  18903M 18903  18904  18935  18950  18951M 18952  18953
             19188M 19188  19189  19244  19259  19260M 19261  19271U 19280  21203U 21211M 21211  21212  21243  21258
             21259M 21260  21261  21710M 21710  21711  21878  21893  21894M 21895  21896  21932M 21932  21933  21961
             21976  21977M 21978  21979  22015M 22015  22016  22044  22059  22060M 22061  22062  22098M 22098  22099
             22129  22144  22145M 22146  22147  22208M 22208  22209  22239  22254  22255M 22256  22257  22318M 22318
             22319  22349  22364  22365M 22366  22376U 22380  22607U 22615M 22615  22616  22647  22662  22663M 22664
             22674U 22678  22916U 22924M 22924  22925  22953  22968  22969M 22970  22971  23198M 23198  23199  23227
             23242  23243M 23244  23245  23472M 23472  23473  23504  23519  23520M 23521  23531U 23535  23978U 23986M
             23986  23987  24082  24097  24098M 24099  24109U 24113  24475U 24483M 24483  24484  24686  24701  24702M
             24703  24713U 24722  25876U 25884M 25884  25885  26145  26160  26161M 26162  26172U 26181  27512U 27520M
             27520  27521  27781  27796  27797M 27798  27808U 27817  29753U 29761M 29761  29762  29860  29875  29876M
             29877  29887U 29891  30653U 30661M 30661  30662  30703  30718  30719M 30720  30721  31287M 31287  31288
             31318  31333  31334M 31335  31336  31594M 31594  31595  31634  31649  31650M 31651  31652  31836M 31836
             31837  31867  31882  31883M 31884  31894U 31898  32118U 32126M 32126  32127  32161  32176  32177M 32178
             32188U 32192  32237  32244M 32250  32260M 32272  32279M 32305U 32313M 32313  32314  32681  32696  32697M
             32698  32708U 32712  32884U 32892M 32892  32893  32923  32938  32939M 32940  32950U 32959  33318U 33326M
             33326  33327  33357  33372  33373M 33374  33384U 33388  33706U 33714M 33714  33715  33745  33760  33761M
             33762  33772U 33781  34078U 34086M 34086  34087  34114  34129  34130M 34131  34141U 34150  34500U 34508M
             34508  34509  34536  34551  34552M 34553  34563U 34567  34613U 34621M 34621  34622  34649  34664  34665M
             34666  34676U 34685  34807U 34815M 34815  34816  34843  34858  34859M 34860  34870U 34879  35211U 35219M
             35219  35220  35250  35265  35266M 35267  35277U 35281  35649U 35657M 35657  35658  36014  36029  36030M
             36031  36041U 36045  37118U 37126M 37126  37127  37261  37276  37277M 37278  37288U 37297  37580  37670
             37828M 37906U 37914M 37914  37915  37960  37975  37976M 37977  37987U 37996  38177  38273M 38619U 38627M
             38627  38628  38670  38685  38686M 38687  38697U 38706  39025U 39033M 39033  39034  39208  39223  39224M
             39225  39235U 39239  39690  40237M 40586U 40594M 40594  40595  40771  40786  40787M 40788  40798U 40802
             41325U 41333M 41333  41334  41364  41379  41380M 41381  41391U 41395  41627U 41635M 41635  41636  41846
             41861  41862M 41863  41873U 41877  42045  42406U 42414M 42414  42415  42446  42461  42462M 42463  42464
             42724M 42724  42725  42753  42768  42769M 42770  42771  43028M 43028  43029  43059  43074  43075M 43076
             43077  43107  43163M 43163  43164  43361  43376  43377M 43378  43388U 43392  43796  44607M 44893U 44901M
             44901  44902  45077  45092  45093M 45094  45104U 45108  45718U 45726M 45726  45727  45793  45808  45809M
             45810  45820U 45824  46085U 46093M 46093  46094  46124  46139  46140M 46141  46151U 46155  46232U 46240M
             46240  46241  46269  46284  46285M 46286  46296U 46300  46441U 46449M 46449  46450  46634  46649  46650M
             46651  46661U 46665  47245U 47253M 47253  47254  47284  47299  47300M 47301  47311U 47315  47730  47935U
             47943M 47943  47944  47974  47989  47990M 47991  48001U 48005  48128U 48136M 48136  48137  48167  48182
             48183M 48184  48194U 48198  48338  48794U 48802M 48802  48803  48833  48848  48849M 48850  48860U 48864
             49302U 49310M 49310  49311  49341  49356  49357M 49358  49368U 49372  49609U 49617M 49617  49618  49785
             49800  49801M 49802  49812U 49816  50537U 50545M 50545  50546  50634  50649  50650M 50651  50661U 50665
             51605U 51613M 51613  51614  51720  51735  51736M 51737  51747U 51751  52091U 52099M 52099  52100  52131
             52146  52147M 52148  52158U 52162  52957U 52965M 52965  52966  53135  53150  53151M 53152  53162U 53166
             53599U 53607M 53607  53608  53673  53688  53689M 53690  53700U 53704  54315  55362U 55370M 55370  55371
             55401  55416  55417M 55418  55428U 55432  55484U 55492M 55492  55493  55739  55754  55755M 55756  55766U
             55770  56914U 56922M 56922  56923  56953  56968  56969M 56970  56980U 56984  57124  57591U 57599M 57599
             57600  57748  57763  57764M 57765  57775U 57784  57919U 57927M 57927  57928  57958  57973  57974M 57975
             57985U 57994  58088U 58096M 58096  58097  58149  58164  58165M 58166  58176U 58180  58337U 58345M 58345
             58346  58465  58480  58481M 58482  58492U 58496  58651U 58659M 58659  58660  58780  58795  58796M 58797
             58807U 58811  58967U 58975M 58975  58976  59086  59101  59102M 59103  59113U 59122  59287U 59295M 59295
             59296  59380  59395  59396M 59397  59407U 59411  59601U 59609M 59609  59610  59695  59710  59711M 59712
             59722U 59731  59831U 59839M 59839  59840  59925  59940  59941M 59942  59952U 59961  60091U 60099M 60099
             60100  60142  60163M 60195  60210  60211M 60212  60213  60284  60407M 60477M 60537M 60549M 60549  60550
    13(D)      939U 17460M 17461B 17569M 17579U 17847M 17848B 17873U 17926  17926  17941  17942  17944M 17958U 18175U
             18178U 18315U 18318U 18445U 18448U 18551U 18554U 18903M 18911U 18935  18935  18950  18951  18953M 18968U
             19054U 19057U 19097U 19100U 19147U 19150U 19188M 19196U 19244  19244  19259  19260  19280M 19353U 19613U
1         (IOSE00) (09:40) (22MAR04) General Purpose Register Cross Reference                                               Page  427
             19616U 19705U 19708U 20000U 20003U 20098U 20101U 20313U 20316U 20411U 20414U 20630U 20633U 20728U 20731U
             20957U 20960U 21021U 21024U 21211M 21219U 21243  21243  21258  21259  21261M 21401U 21567U 21570U 21710M
             21718U 21878  21878  21893  21894  21896M 21906U 21932M 21940U 21961  21961  21976  21977  21979M 21989U
             22015M 22023U 22044  22044  22059  22060  22062M 22072U 22098M 22106U 22129  22129  22144  22145  22147M
             22157U 22208M 22216U 22239  22239  22254  22255  22257M 22267U 22318M 22326U 22349  22349  22364  22365
             22380M 22395U 22560U 22563U 22615M 22623U 22647  22647  22662  22663  22678M 22693U 22858U 22861U 22924M
             22932U 22953  22953  22968  22969  22971M 22983U 23148U 23151U 23198M 23206U 23227  23227  23242  23243
             23245M 23257U 23422U 23425U 23472M 23480U 23504  23504  23519  23520  23535M 23986M 24082  24082  24097
             24098  24113M 24143U 24483M 24491U 24686  24686  24701  24702  24722M 24877U 25070U 25073U 25304U 25307U
             25815U 25818U 25884M 25892U 26145  26145  26160  26161  26181M 26333U 26409U 26412U 26605U 26608U 26711U
             26714U 26961U 26964U 27456U 27459U 27520M 27528U 27781  27781  27796  27797  27817M 27976U 28052U 28055U
             28248U 28251U 28354U 28357U 28805U 28808U 29707U 29710U 29761M 29769U 29860  29860  29875  29876  29891M
             30152U 30450U 30453U 30473U 30476U 30661M 30669U 30703  30703  30718  30719  30721M 30885U 30949U 30952U
             31287M 31295U 31318  31318  31333  31334  31336M 31594M 31634  31634  31649  31650  31652M 31791U 31836M
             31844U 31867  31867  31882  31883  31898M 32126M 32161  32161  32176  32177  32192M 32238  32240M 32241B
             32243  32245M 32250  32260M 32273  32275M 32276B 32278  32280M 32313M 32681  32681  32696  32697  32712M
             32858U 32892M 32900U 32923  32923  32938  32939  32959M 33076U 33191U 33194U 33256U 33259U 33326M 33334U
             33357  33357  33372  33373  33388M 33558U 33603U 33606U 33637U 33640U 33669U 33672U 33714M 33722U 33745
             33745  33760  33761  33781M 34086M 34114  34114  34129  34130  34150M 34508M 34536  34536  34551  34552
             34567M 34621M 34649  34649  34664  34665  34685M 34815M 34843  34843  34858  34859  34879M 34979U 35052U
             35055U 35175U 35178U 35219M 35227U 35250  35250  35265  35266  35281M 35388U 35601U 35604U 35657M 35665U
             36014  36014  36029  36030  36045M 36305U 37126M 37134U 37261  37261  37276  37277  37297M 37455U 37580
             37670  37828M 37841U 37844U 37914M 37922U 37960  37960  37975  37976  37996M 38067U 38177  38273M 38286U
             38289U 38392U 38395U 38560U 38563U 38627M 38635U 38670  38670  38685  38686  38706M 38770U 39033M 39041U
             39208  39208  39223  39224  39239M 39690  40237M 40367U 40434U 40437U 40594M 40602U 40771  40771  40786
             40787  40802M 40939U 41263U 41266U 41333M 41341U 41364  41364  41379  41380  41395M 41520U 41567U 41570U
             41635M 41643U 41846  41846  41861  41862  41877M 41920U 42040U 42043U 42045  42323U 42326U 42414M 42422U
             42446  42446  42461  42462  42464M 42724M 42753  42753  42768  42769  42771M 42844U 42951U 42954U 42985U
             42988U 43028M 43036U 43059  43059  43074  43075  43077M 43105U 43107  43163M 43171U 43361  43361  43376
             43377  43392M 43454U 43540U 43543U 43573U 43576U 43618U 43621U 43796  43896  43897M 43984M 44096M 44293
             44294M 44327M 44440  44441M 44513M 44607M 44739U 44742U 44778U 44781U 44901M 44909U 45077  45077  45092
             45093  45108M 45120U 45212U 45215U 45292U 45295U 45344U 45347U 45444U 45447U 45475U 45478U 45559U 45562U
             45634U 45637U 45674U 45677U 45726M 45734U 45793  45793  45808  45809  45824M 45977U 46039U 46042U 46093M
             46101U 46124  46124  46139  46140  46155M 46240M 46269  46269  46284  46285  46300M 46390U 46412U 46415U
             46449M 46457U 46634  46634  46649  46650  46665M 46677U 46762U 46765U 46790U 46793U 46931U 46934U 46975U
             46978U 47014U 47017U 47066U 47069U 47174U 47177U 47205U 47208U 47253M 47261U 47284  47284  47299  47300
             47315M 47406U 47477U 47480U 47642U 47645U 47681U 47684U 47725U 47728U 47730  47785U 47788U 47894U 47897U
             47943M 47951U 47974  47974  47989  47990  48005M 48093U 48136M 48144U 48167  48167  48182  48183  48198M
             48292U 48333U 48336U 48338  48388U 48391U 48489U 48492U 48588U 48591U 48742U 48745U 48802M 48810U 48833
             48833  48848  48849  48864M 48973U 49158U 49161U 49259U 49262U 49310M 49318U 49341  49341  49356  49357
             49372M 49497U 49617M 49625U 49785  49785  49800  49801  49816M 49845U 50368U 50371U 50491U 50494U 50545M
             50553U 50634  50634  50649  50650  50665M 50677U 50890U 50893U 50978U 50981U 51049U 51052U 51159U 51162U
             51315U 51318U 51518U 51521U 51613M 51621U 51720  51720  51735  51736  51751M 51825U 52099M 52107U 52131
             52131  52146  52147  52162M 52240U 52526U 52529U 52624U 52627U 52750U 52753U 52905U 52908U 52965M 52973U
             53135  53135  53150  53151  53166M 53178U 53305U 53308U 53338U 53341U 53377U 53380U 53416U 53419U 53527U
             53530U 53559U 53562U 53607M 53615U 53673  53673  53688  53689  53704M 53818U 53866U 53869U 54050U 54053U
             54094U 54097U 54162U 54165U 54214U 54217U 54310U 54313U 54315  54411U 54414U 54845U 54848U 55047U 55050U
             55112U 55115U 55304U 55307U 55370M 55378U 55401  55401  55416  55417  55432M 55442U 55492M 55500U 55739
             55739  55754  55755  55770M 55827U 55892U 55895U 56743U 56746U 56866U 56869U 56922M 56930U 56953  56953
             56968  56969  56984M 57078U 57119U 57122U 57124  57174U 57177U 57275U 57278U 57374U 57377U 57542U 57545U
             57599M 57607U 57748  57748  57763  57764  57784M 57799U 57882U 57885U 57927M 57935U 57958  57958  57973
             57974  57994M 58096M 58149  58149  58164  58165  58180M 58345M 58465  58465  58480  58481  58496M 58508U
             58614U 58617U 58659M 58667U 58780  58780  58795  58796  58811M 58823U 58931U 58934U 58975M 58983U 59086
             59086  59101  59102  59122M 59295M 59380  59380  59395  59396  59411M 59426U 59569U 59572U 59609M 59617U
             59695  59695  59710  59711  59731M 59839M 59925  59925  59940  59941  59961M 60099M 60142  60143M 60161U
             60163M 60169U 60195  60195  60210  60211  60213M 60284  60407M 60477M 60537M 60549M
    14(E)      935U 17429  17459M 17460N 17461M 17534M 17620M 17655M 17672M 17677M 17678  17755M 17787M 17794  17797M
             17846M 17847N 17848M 17926  17986M 18012M 18056U 18069U 18158M 18191M 18214M 18234M 18254M 18274M 18301M
             18334M 18357M 18380M 18402M 18403M 18403N 18404M 18404N 18405  18405M 18406M 18407  18429M 18478M 18641M
1         (IOSE00) (09:40) (22MAR04) General Purpose Register Cross Reference                                               Page  428
             18750M 18854M 18903M 18905B 18935  18998M 19063M 19078M 19132M 19156M 19172M 19188M 19190B 19244  19409M
             19447M 19505M 19564M 19602M 19693M 19741M 19892M 19951M 19989M 20086M 20134M 20205M 20264M 20302M 20399M
             20447M 20522M 20581M 20619M 20716M 20764M 20848M 20907M 20945M 21009M 21057M 21148M 21186M 21211M 21213B
             21243  21408M 21421M 21434M 21449M 21473M 21531M 21534  21593M 21643M 21646  21690M 21710M 21712B 21878
             21922M 21932M 21934B 21961  22005M 22015M 22017B 22044  22088M 22098M 22100B 22129  22173M 22208M 22210B
             22239  22283M 22318M 22320B 22349  22429M 22573M 22589M 22615M 22617B 22647  22727M 22871M 22895M 22924M
             22926B 22953  23017M 23161M 23177M 23198M 23200B 23227  23291M 23435M 23451M 23472M 23474B 23504  23609M
             23872M 23986M 23988B 24082  24446M 24483M 24485B 24686  24895M 25096M 25127M 25324M 25679M 25680M 25681M
             25710  25715M 25727  25733M 25734M 25735M 25737  25827M 25884M 25886B 26145  26351M 26430M 26631M 26732M
             26784M 26981M 27468M 27520M 27522B 27781  27994M 28073M 28274M 28375M 28531M 28829M 28837M 29282M 29310M
             29335M 29336  29486M 29527M 29530M 29531  29579M 29581  29586M 29591  29719M 29761M 29763B 29860  30046M
             30054M 30064  30186M 30264M 30375M 30385U 30391M 30398U 30411U 30433U 30462M 30488M 30489  30493M 30532M
             30542U 30548M 30555U 30568U 30621U 30661M 30663B 30703  30731M 30833M 30836  30900M 30986M 31107M 31114
             31117M 31155M 31162  31165M 31287M 31289B 31318  31457M 31460  31503M 31510  31512M 31540M 31547  31550M
             31594M 31596B 31634  31741M 31744  31811M 31836M 31838B 31867  32126M 32128B 32161  32239M 32240N 32241M
             32250  32259M 32260M 32274M 32275N 32276M 32313M 32315B 32681  32876M 32892M 32894B 32923  33103M 33212M
             33282M 33326M 33328B 33357  33568M 33622M 33650M 33688M 33714M 33716B 33745  33915M 33944M 34086M 34088B
             34114  34333M 34362M 34508M 34510B 34536  34621M 34623B 34649  34815M 34817B 34843  34989M 35064M 35188M
             35219M 35221B 35250  35398M 35506M 35530  35561M 35635M 35657M 35659B 36014  36323M 36382M 36383M 36383N
             36384M 36384N 36385  36385M 36558M 36559M 36559N 36560M 36560N 36561  36561M 36928M 37079M 37080M 37080N
             37081M 37081N 37082  37082M 37126M 37128B 37261  37485M 37579M 37580  37580  37597M 37598M 37598N 37599M
             37599N 37600  37600M 37669M 37670  37670  37687M 37688M 37688N 37689M 37689N 37690  37690M 37766M 37767
             37768M 37769M 37769N 37770M 37770N 37771  37771M 37772M 37773  37828M 37872M 37914M 37916B 37960  38097M
             38176M 38177  38177  38184M 38185  38186M 38187M 38187N 38188M 38188N 38189  38189M 38234M 38235M 38235N
             38236M 38236N 38237  38237M 38273M 38317M 38405M 38475M 38499  38530M 38594M 38627M 38629B 38670  38812M
             38820  38821M 38841M 38849  38850M 38900M 38908  38909M 38929M 38937  38938M 39003M 39033M 39035B 39208
             39281M 39282M 39282N 39283M 39283N 39284  39284M 39378M 39379M 39379N 39380M 39380N 39381  39381M 39639M
             39689M 39690  39690  39835M 39836M 39837M 39838M 39980M 40094M 40095M 40096M 40097M 40098M 40144M 40159M
             40159  40165M 40175U 40193U 40195M 40205U 40223U 40237M 40385M 40460M 40551M 40552M 40552N 40553M 40553N
             40554  40554M 40594M 40596B 40771  40957M 41289M 41333M 41335B 41364  41538M 41593M 41635M 41637B 41846
             41947M 42045  42057M 42132M 42168M 42229M 42349M 42382M 42414M 42416B 42446  42544M 42563M 42680M 42683M
             42685M 42705M 42724M 42726B 42753  42865M 42898M 42919M 42920M 42920  42925M 42925  42928M 42929  42970M
             43009M 43028M 43030B 43059  43107  43119M 43129M 43163M 43165B 43361  43434M 43435M 43435N 43436M 43436N
             43437  43437M 43484M 43549M 43588M 43589  43593M 43631M 43795M 43796  43796  43892M 43893M 43894M 43895M
             43937M 44081M 44316M 44367M 44368M 44466M 44607M 44762M 44796M 44853M 44854M 44854N 44855M 44855N 44856
             44856M 44901M 44903B 45077  45150M 45221M 45305M 45430M 45461M 45493M 45572M 45653M 45687M 45726M 45728B
             45793  46001M 46058M 46093M 46095B 46124  46171M 46181M 46197  46240M 46242B 46269  46315M 46355  46399M
             46429M 46449M 46451B 46634  46707M 46771M 46820M 46854M 46918M 46955M 46990M 46991  46995M 47027M 47159M
             47191M 47223M 47253M 47255B 47284  47424M 47507M 47541M 47598M 47666M 47711M 47730  47742M 47752M 47809M
             47859M 47913M 47943M 47945B 47974  48111M 48136M 48138B 48167  48319M 48338  48350M 48359M 48412M 48441M
             48508M 48601M 48671M 48695  48726M 48776M 48802M 48804B 48833  48993M 49005M 49006M 49008M 49203M 49276M
             49310M 49312B 49341  49539M 49617M 49619B 49785  49875M 50388M 50522M 50545M 50547B 50634  50707M 50760M
             50903M 50948M 50994M 51080M 51120M 51192M 51230M 51286M 51346M 51415M 51452M 51488M 51531M 51547M 51613M
             51615B 51720  51835M 51922M 52069M 52099M 52101B 52131  52250M 52345M 52559M 52655M 52684M 52728M 52763M
             52833M 52857  52888M 52939M 52965M 52967B 53135  53208M 53314M 53353M 53354  53358M 53390M 53514M 53544M
             53577M 53607M 53609B 53673  53834M 53885M 54083M 54117M 54193M 54244M 54296M 54315  54327M 54336M 54435M
             54485M 54583M 54583  54584M 54585  54757M 54757  54778N 54779M 54791  54866M 54873M 55077M 55135M 55323M
             55370M 55372B 55401  55472M 55492M 55494B 55739  55844M 55925M 55927M 55931M 56069M 56099M 56763M 56897M
             56922M 56924B 56953  57105M 57124  57136M 57145M 57198M 57227M 57294M 57387M 57457M 57481  57512M 57576M
             57599M 57601B 57748  57826M 57868M 57906M 57927M 57929B 57958  58074M 58096M 58098B 58149  58345M 58347B
             58465  58535M 58638M 58659M 58661B 58780  58850M 58955M 58975M 58977B 59086  59205M 59206  59208M 59208N
             59209  59210  59243M 59244  59246M 59246N 59247  59248  59295M 59297B 59380  59453M 59556M 59593M 59609M
             59611B 59695  59839M 59841B 59925  60099M 60101B 60142  60153M 60163M 60171B 60195  60283M 60284  60284
             60312M 60313M 60313N 60314M 60314N 60315  60315M 60373M 60374  60375M 60376M 60376N 60377M 60377N 60378
             60378M 60407M 60441M 60442M 60442N 60443M 60443N 60444  60444M 60477M 60509M 60510M 60510N 60511M 60511N
             60512  60512M 60537M 60549M 60551B
    15(F)      931U 12077M 12077  17407  17488M 17498U 17504M 17511U 17522U 17533M 17534B 17541U 17619M 17620B 17656M
             17665M 17678  17733M 17743U 17754M 17755B 17762U 17787M 17796  17797M 17926  17927  17985M 17986B 18011M
             18021  18031U 18037M 18044U 18046  18157M 18158B 18190M 18191B 18213M 18214B 18233M 18234B 18253M 18254B
1         (IOSE00) (09:40) (22MAR04) General Purpose Register Cross Reference                                               Page  429
             18273M 18274B 18300M 18301B 18333M 18334B 18356M 18357B 18379M 18380B 18428M 18429B 18477M 18478B 18640M
             18641B 18749M 18750B 18853M 18854B 18903M 18935  18936  18997M 18998B 19062M 19063B 19077M 19078B 19131M
             19132B 19155M 19156B 19171M 19172B 19188M 19244  19245  19408M 19409B 19446M 19447B 19504M 19505B 19563M
             19564B 19601M 19602B 19692M 19693B 19740M 19741B 19891M 19892B 19950M 19951B 19988M 19989B 20085M 20086B
             20133M 20134B 20204M 20205B 20263M 20264B 20301M 20302B 20398M 20399B 20446M 20447B 20521M 20522B 20580M
             20581B 20618M 20619B 20715M 20716B 20763M 20764B 20847M 20848B 20906M 20907B 20944M 20945B 20946M 20989
             21008M 21009B 21056M 21057B 21147M 21148B 21185M 21186B 21211M 21243  21244  21368M 21407M 21408B 21420M
             21421B 21433M 21434B 21448M 21449B 21463M 21463  21472M 21473B 21532M 21533M 21534  21592M 21593B 21644M
             21645M 21646  21689M 21690B 21710M 21878  21879  21921M 21922B 21932M 21961  21962  22004M 22005B 22015M
             22044  22045  22087M 22088B 22098M 22129  22130  22172M 22173B 22208M 22239  22240  22282M 22283B 22318M
             22349  22350  22428M 22429B 22572M 22573B 22588M 22589B 22615M 22647  22648  22726M 22727B 22870M 22871B
             22894M 22895B 22924M 22953  22954  23016M 23017B 23160M 23161B 23176M 23177B 23198M 23227  23228  23290M
             23291B 23434M 23435B 23450M 23451B 23472M 23504  23505  23608M 23609B 23871M 23872B 23986M 24082  24083
             24445M 24446B 24483M 24686  24687  24894M 24895B 25095M 25096B 25126M 25127B 25323M 25324B 25632M 25633
             25660M 25661  25671M 25671  25710N 25733N 25736M 25737N 25762M 25826M 25827B 25884M 26145  26146  26350M
             26351B 26429M 26430B 26630M 26631B 26731M 26732B 26783M 26784B 26980M 26981B 27207M 27219  27229M 27229
             27234  27404M 27405M 27406M 27435  27467M 27468B 27520M 27781  27782  27993M 27994B 28072M 28073B 28273M
             28274B 28374M 28375B 28530M 28531B 28828M 28829B 28836M 28837B 29064M 29076  29086M 29086  29091  29281M
             29282B 29303M 29304  29309M 29310N 29311M 29313M 29315M 29332M 29333  29334M 29335  29352  29424M 29432M
             29455M 29456M 29457M 29506  29526M 29527B 29528M 29532M 29533  29537M 29538M 29539  29586M 29591  29718M
             29719B 29761M 29860  29861  30047M 30064  30185M 30186B 30198M 30215  30263M 30264B 30420M 30423  30426M
             30461M 30462B 30492M 30493B 30591M 30592  30593M 30595  30610M 30611  30614M 30661M 30703  30704  30730M
             30731B 30834M 30835M 30836  30899M 30900B 30985M 30986B 31008M 31009  31027M 31028  31031M 31032  31067M
             31077U 31083M 31090U 31092  31093  31107M 31116  31117M 31155M 31164  31165M 31287M 31318  31319  31458M
             31459M 31460  31503M 31512M 31540M 31549  31550M 31594M 31634  31635  31742M 31743M 31744  31810M 31811B
             31836M 31867  31868  31997D 31999M 31999  32000M 32001U 32048M 32126M 32161  32162  32236M 32242  32243M
             32250  32255M 32256M 32256  32257M 32257  32259B 32260M 32271M 32277  32278M 32313M 32681  32682  32875M
             32876B 32892M 32923  32924  33102M 33103B 33211M 33212B 33281M 33282B 33326M 33357  33358  33440M 33451
             33460M 33460  33567M 33568B 33621M 33622B 33649M 33650B 33687M 33688B 33714M 33745  33746  33914M 33926M
             33935M 33935  33976M 33988  34000M 34000  34019  34033  34086M 34114  34115  34203M 34204  34205M 34207
             34222M 34223  34226M 34332M 34344M 34353M 34353  34394M 34406  34418M 34418  34437  34451  34508M 34536
             34537  34589M 34600  34621M 34649  34650  34732M 34815M 34843  34844  34988M 34989B 35063M 35064B 35187M
             35188B 35219M 35250  35251  35397M 35398B 35560M 35561B 35634M 35635B 35657M 36014  36015  36322M 36323B
             36381M 36557M 36743M 36751M 36774M 36775M 36776M 36806M 36807M 36808M 36809  36810M 36927M 36928B 37078M
             37126M 37261  37262  37484M 37485B 37580  37615M 37615  37670  37705M 37705  37782M 37782  37871M 37872B
             37914M 37960  37961  38096M 38097B 38177  38198M 38198  38250M 38250  38316M 38317B 38404M 38405B 38529M
             38530B 38593M 38594B 38627M 38670  38671  38819M 38820M 38821  38848M 38849M 38850  38907M 38908M 38909
             38936M 38937M 38938  39002M 39003B 39033M 39208  39209  39280M 39377M 39690  39819M 39838M 39889M 39890M
             39891  39918M 39919M 39920  40025M 40026M 40027  40054M 40055M 40056  40093M 40097M 40384M 40385B 40459M
             40460B 40550M 40594M 40771  40772  40956M 40957B 41288M 41289B 41333M 41364  41365  41537M 41538B 41592M
             41593B 41635M 41723M 41734U 41740M 41747U 41749B 41846  41847  41946M 41947B 42045  42056M 42057B 42071M
             42071  42131M 42143M 42143  42166M 42182M 42182  42197M 42199  42228M 42229B 42309M 42310M 42311  42335
             42348M 42349B 42381M 42382B 42414M 42446  42447  42542M 42542  42543M 42544B 42560  42562M 42563B 42585M
             42601M 42602M 42611N 42624M 42624  42649M 42668M 42668  42684  42685M 42704M 42705B 42724M 42753  42754
             42832M 42853  42864M 42865B 42897M 42898B 42917M 42917  42918M 42919  42922  42927  42928  42931  42935
             42969M 42970B 43008M 43009B 43028M 43059  43060  43107  43118M 43119B 43124  43128M 43129B 43163M 43361
             43362  43433M 43483M 43484B 43548M 43549B 43592M 43593B 43630M 43631B 43796  43891M 43895M 43934M 43935M
             43935N 43936M 43936N 43937B 43942  43999M 44000M 44001  44078M 44079M 44079N 44080M 44080N 44081B 44086
             44203M 44204M 44205  44313M 44314M 44314N 44315M 44315N 44316B 44321  44365M 44368M 44376M 44377M 44378
             44463M 44464M 44464N 44465M 44465N 44466B 44471  44521M 44522M 44523  44715M 44716  44717M 44718  44761M
             44762B 44795M 44796B 44852M 44901M 45077  45078  45149M 45150B 45220M 45221B 45223M 45224  45304M 45305B
             45429M 45430B 45460M 45461B 45492M 45493B 45571M 45572B 45652M 45653B 45686M 45687B 45726M 45793  45794
             45935M 45935  45944  46000M 46001B 46057M 46058B 46093M 46124  46125  46170M 46171  46172M 46174  46189M
             46196  46198M 46218M 46220  46240M 46269  46270  46315M 46331  46349U 46362U 46398M 46399B 46428M 46429B
             46449M 46634  46635  46706M 46707B 46770M 46771B 46819M 46820B 46853M 46854B 46892M 46908  46909M 46910
             46911M 46912  46915M 46916M 46916  46917M 46917  46918  46954M 46955B 46994M 46995B 47026M 47027B 47158M
             47159B 47190M 47191B 47222M 47223B 47253M 47284  47285  47423M 47424B 47506M 47507B 47540M 47541B 47564M
             47583  47584M 47585  47586M 47587  47588M 47589  47594  47595M 47596M 47596  47597M 47597  47598  47608M
             47608  47665M 47666B 47710M 47711B 47730  47741M 47742B 47747  47751M 47752B 47808M 47809B 47858M 47859B
1         (IOSE00) (09:40) (22MAR04) General Purpose Register Cross Reference                                               Page  430
             47912M 47913B 47943M 47974  47975  48110M 48111B 48136M 48167  48168  48318M 48319B 48338  48349M 48350B
             48358M 48359B 48411M 48412B 48440M 48441B 48507M 48508B 48600M 48601B 48725M 48726B 48775M 48776B 48802M
             48833  48834  48992M 48993B 48998M 49008M 49045M 49045  49172M 49182U 49195U 49202M 49203B 49204M 49213M
             49213  49275M 49276B 49310M 49341  49342  49508M 49518U 49531U 49538M 49539B 49540M 49549M 49549  49617M
             49785  49786  49874M 49875B 50387M 50388B 50521M 50522B 50545M 50634  50635  50706M 50707B 50759M 50760B
             50902M 50903B 50947M 50948B 50993M 50994B 51079M 51080B 51119M 51120B 51191M 51192B 51229M 51230B 51285M
             51286B 51299  51345M 51346B 51414M 51415B 51451M 51452B 51487M 51488B 51530M 51531B 51546M 51547B 51613M
             51720  51721  51834M 51835B 51921M 51922B 52067M 52067  52068M 52069B 52099M 52131  52132  52249M 52250B
             52344M 52345B 52558M 52559B 52579  52654M 52655B 52683M 52684B 52727M 52728B 52762M 52763B 52887M 52888B
             52938M 52939B 52965M 53135  53136  53207M 53208B 53313M 53314B 53357M 53358B 53389M 53390B 53513M 53514B
             53543M 53544B 53576M 53577B 53607M 53673  53674  53833M 53834B 53884M 53885B 53961M 53971U 53977M 53984U
             53995U 54008U 54010M 54020U 54033U 54082M 54083B 54116M 54117B 54192M 54193B 54243M 54244B 54295M 54296B
             54315  54326M 54327B 54335M 54336B 54434M 54435B 54484M 54485B 54529M 54529  54530M 54531  54541U 54552M
             54559U 54570U 54621M 54630U 54777M 54778  54865M 54866B 54872M 54873M 54957M 54975M 54975  54999  55000
             55076M 55077B 55134M 55135B 55322M 55323B 55370M 55401  55402  55471M 55472B 55492M 55739  55740  55836M
             55837  55843M 55844B 55924M 55925B 55928M 55930  55931M 56068M 56093M 56112M 56112  56137  56147M 56149
             56762M 56763B 56896M 56897B 56922M 56953  56954  57104M 57105B 57124  57135M 57136B 57144M 57145B 57197M
             57198B 57226M 57227B 57293M 57294B 57386M 57387B 57511M 57512B 57575M 57576B 57599M 57748  57749  57825M
             57826B 57866M 57867M 57867  57868  57905M 57906B 57927M 57958  57959  58049M 58059U 58065M 58072U 58096M
             58149  58150  58345M 58465  58466  58534M 58535B 58571  58637M 58638B 58659M 58780  58781  58849M 58850B
             58895M 58895  58954M 58955B 58975M 59086  59087  59146M 59164U 59170M 59177U 59198  59236  59265  59295M
             59380  59381  59452M 59453B 59469M 59470  59547M 59556B 59557  59592M 59593B 59609M 59695  59696  59795
             59839M 59925  59926  60043  60099M 60142  60144M 60152  60195  60196  60284  60311M 60387M 60387  60457M
             60457  60508M 60549M

1IOSERV   (IOSE00) (09:40) (22MAR04) Diagnostic Cross Reference and Assembler Summary                                       Page  431
-                                                                                            HLASM R4.0  2004/03/22 09.40
0     No Statements Flagged in this Assembly
 HIGH LEVEL ASSEMBLER, 5696-234, RELEASE 4.0, PTF UQ57391
0SYSTEM: OS/390 02.10.00            JOBNAME: PJG#IOSV    STEPNAME: ASM        PROCSTEP: (NOPROC)
0Datasets Allocated for this Assembly
  Con DDname   Dataset Name                                 Volume  Member
   P1 SYSIN    SYS04082.T094031.RA000.PJG#IOSV.INPUT.H01    SCR100
   L1 SYSLIB   SYS3.DUMMYMAC                                SYSB02
   L2          WYL.GG.ORV.MACLIB                            SYSB02
   L3          WYL.GG.SYS.MACLIB                            SYSB05
   L4          SYS3.IS.MACLIB                               SYSB05
   L5          SYS3.MACLIB                                  SYSB02
   L6          SYS1.MACLIB                                  MVSBR9
   L7          SYS1.MODGEN                                  MVSBR9
      SYSLIN   WYL.GG.PJG.OBJ                               SYSB05  IOSERV
      SYSPRINT SYS04082.T094031.RA000.PJG#IOSV.PRINT.H01    SCR101
      SYSTERM  GG$PJG.PJG#IOSV.JOB05940.D0000103.?

    7812K allocated to Buffer Pool,        12873K would be required for this to be an In-Storage Assembly
    8048 Primary Input Records Read        62414 Library Records Read               1233 Work File Reads
       0 ASMAOPT Records Read              29339 Primary Print Records Written      1270 Work File Writes
     636 Punch Records Written                 0 ADATA Records Written
0Assembly Start Time: 09.40.34 Stop Time: 09.41.02 Processor Time: 00.00.12.6207
 Return Code 000
