1                        J E S 2  J O B  L O G  --  S Y S T E M  S Y S B  --  N O D E  R L G
0
 09.38.53 JOB05931 ---- MONDAY,    22 MAR 2004 ----
 09.38.53 JOB05931  ICH70001I GG$PJG   LAST ACCESS AT 09:38:46 ON MONDAY, MARCH 22, 2004
 09.38.53 JOB05931  $HASP373 PJG#FBIT STARTED - INIT 2    - CLASS E - SYS SYSB
 09.38.53 JOB05931  ***  HCMD      STEP $$QUIET
 09.38.53 JOB05931  PURGE * Q=OUTPUT MULTIPLE
 09.38.53 JOB05931  JOB PJG#FBIT NOT IN OUTPUT QUEUE
 09.38.54 JOB05931  PJG#FBIT.$$QUIET .         RC=0008 TapeIO=0000 DiskIO=0000 CPU=  .01s Elapsed=33.39s
 09.38.54 JOB05931  PJG#FBIT.$CND    .         RC=Zero TapeIO=0000 DiskIO=0002 CPU=  .01s Elapsed=34.43s
 09.38.55 JOB05931  PJG#FBIT.$UNP    .         RC=Zero TapeIO=0000 DiskIO=0024 CPU=  .05s Elapsed=34.66s
 09.39.01 JOB05931  PJG#FBIT.ASM     .         RC=Zero TapeIO=0000 DiskIO=0402 CPU= 2.57s Elapsed=35.26s
 09.39.02 JOB05931  PJG#FBIT.$EDIT   .         RC=Zero TapeIO=0000 DiskIO=0161 CPU=  .62s Elapsed=41.69s
 09.39.02 JOB05931  PJG#FBIT Ended.  Name=Module: FILEBIT                Total CPU= 3.26s Elapsed=33.39s
 09.39.02 JOB05931
 09.39.02 JOB05931  Execution charges   Priority=Standard   Block=Day
 09.39.02 JOB05931
 09.39.02 JOB05931  CPU Usage          60.00          $37.20   Standard Processing Unit Equivalent
 09.39.02 JOB05931                                   =======
 09.39.02 JOB05931                                    $37.20   Total Job execution charge
 09.39.02 JOB05931
 09.39.02 JOB05931  See back separator page for print charges
 09.39.02 JOB05931
 09.39.02 JOB05931  $HASP395 PJG#FBIT ENDED  ASM=0
1        1 //PJG#FBIT JOB PJG$GG,'Module: FILEBIT',TIME=1,MSGCLASS=C               JOB05931
           /*JOBPARM HOLD=OUTPUT,LINES=50,CHARS=TN15,NOTIFY=YES
         2 //       EXEC PURGEOLD
         3 XXPURGEOLD PROC
           XX*
           XX* This proc is maintained by Jim Stosick
           XX*
         4 XX$$QUIET  EXEC PGM=HCMDX,PARM='PURGE * Q=OUTPUT MULTIPLE',
           XX         ACCT=(PURGEOLD,SYS3)
         5 //$CND   EXEC PGM=BILBO,REGION=512K,PARM='RECS=100'
         6 //STEPLIB  DD DSN=WYL.GG.ORV.LINKLIB,DISP=SHR
         7 //SYSPRINT DD SYSOUT=$
         8 //SYSUT1   DD DSN=WYL.GG.PJG.OBJ,DISP=OLD
         9 //SYSUT2   DD DSN=WYL.GG.PJG.OBJ,DISP=OLD
        10 //SYSIN    DD DUMMY
        11 //$UNP   EXEC PGM=WUNPRESS,PARM='NUM'
        12 //SYSPRINT DD SYSOUT=$
        13 //SYSUT1   DD DSN=WYL.GG.ORV.SOURCE(FILEBIT),DISP=SHR
        14 //SYSUT2   DD DSN=&&INPUT,DISP=(,PASS),UNIT=SYSDA,
           //            SPACE=(TRK,(25,25),RLSE),DCB=CARD
        15 //ASM    EXEC PGM=ASMA90,REGION=8M,COND=(0,NE,$UNP),
           //            PARM=('SYSPARM(FILEBIT),TERM,LANG(EN),OBJ',
           //          'LC(32500),XREF(SHORT),NODECK,NORLD,NODX,NOUS')
           //*STEPLIB  DD DSN=SYS1.SASMMOD1,DISP=SHR
        16 //SYSLIB   DD DSN=SYS3.DUMMYMAC,DISP=SHR,DCB=BLKSIZE=27920
        17 //         DD DSN=WYL.GG.ORV.MACLIB,DISP=SHR
        18 //         DD DSN=WYL.GG.SYS.MACLIB,DISP=SHR
        19 //SYSUT1   DD DSN=&&SYSUT1,UNIT=VIO,DISP=(,DELETE),
           //            SPACE=(4088,(500,250),,CONTIG,ROUND)
        20 //SYSTERM  DD SYSOUT=$
        21 //SYSPRINT DD DSN=&&PRINT,UNIT=SYSDA,DISP=(,PASS),
           //            SPACE=(6650,(250,250),RLSE),
           //            DCB=(BLKSIZE=6650,LRECL=133,RECFM=FB)
        22 //SYSLIN   DD DSN=WYL.GG.PJG.OBJ(FILEBIT),DISP=OLD
        23 //SYSUDUMP DD SYSOUT=A
        24 //SYSIN    DD DSN=&&INPUT,DISP=(OLD,DELETE)
        25 //$EDIT  EXEC PGM=ASMEDIT,REGION=1M,
           //            COND=EVEN,PARM='STMT,DATA'
        26 //STEPLIB  DD DSN=WYL.GG.SYS.LINKLIB,DISP=SHR
        27 //ASMOUT   DD DSN=&&PRINT,DISP=(OLD,DELETE)
        28 //SYSPRINT DD SYSOUT=A
        29 //SYSUDUMP DD SYSOUT=A
1 STMT NO. MESSAGE
         2 IEFC001I PROCEDURE PURGEOLD WAS EXPANDED USING SYSTEM LIBRARY SYS3.BETAPROC
        14 IGD01010I STORCLAS= TEMP STORGROUP =
        14 IGD01010I STORGRP=VIO ASSIGNED.
        19 IGD01010I STORCLAS= TEMP STORGROUP =
        19 IGD01010I STORGRP=VIO ASSIGNED.
        21 IGD01010I STORCLAS= TEMP STORGROUP =
        21 IGD01010I STORGRP=VIO ASSIGNED.
 ICH70001I GG$PJG   LAST ACCESS AT 09:38:46 ON MONDAY, MARCH 22, 2004
 IEF142I PJG#FBIT $$QUIET - STEP WAS EXECUTED - COND CODE 0008
 *********************************************************************************
 *   PJG#FBIT/$$QUIET /                    Return Code      0008                 *
 *   Region used      260K (16K user + 244K system)                              *
 *   Extended region  9352K (4K user + 9348K system)                             *
 *                                                                               *
 *   Paging              In      Out                                             *
 *   Private <-> Aux      0        0       CPU time (TCB)   00:00:00.01          *
 *   Private <-> Exp      0        0       CPU time (SRB)   00:00:00.00          *
 *   VIO                  0        0       Elapsed time    920:48:59.57          *
 *   Common               0      ---                                             *
 *                                                                               *
 *                                                                               *
 *   CPU Usage          0.18         $0.11  Standard Processing Unit Equivalent  *
 *                                   $0.11  Total Step execution charge          *
 *                                                                               *
 *    I/O count  DDname   Type Addr           I/O count  DDname   Type Addr      *
 *                         *** No I/O for this step ***                          *
 *********************************************************************************
 IEF373I STEP/$$QUIET /START 2004082.0938
 IEF374I STEP/$$QUIET /STOP  2004082.0938 CPU    0MIN 00.01SEC SRB    0MIN 00.00SEC VIRT    16K SYS   244K EXT       4K SYS    9348K
 IEF236I ALLOC. FOR PJG#FBIT $CND
 IEF237I 0401 ALLOCATED TO STEPLIB
 IEF237I JES2 ALLOCATED TO SYSPRINT
 IEF237I 04DC ALLOCATED TO SYSUT1
 IEF237I 04DC ALLOCATED TO SYSUT2
 IEF237I DMY  ALLOCATED TO SYSIN
 IEF142I PJG#FBIT $CND - STEP WAS EXECUTED - COND CODE 0000
 IEF285I   WYL.GG.ORV.LINKLIB                           KEPT
 IEF285I   VOL SER NOS= SYSB01.
 IEF285I   GG$PJG.PJG#FBIT.JOB05931.D0000101.?          SYSOUT
 IEF285I   WYL.GG.PJG.OBJ                               KEPT
 IEF285I   VOL SER NOS= SYSB05.
 IEF285I   WYL.GG.PJG.OBJ                               KEPT
 IEF285I   VOL SER NOS= SYSB05.
 *********************************************************************************
 *   PJG#FBIT/$CND    /                    Return Code      Zero                 *
 *   Region used      280K (16K user + 264K system)                              *
 *   Extended region  9392K (4K user + 9388K system)                             *
 *                                                                               *
 *   Paging              In      Out                                             *
 *   Private <-> Aux      0        0       CPU time (TCB)   00:00:00.01          *
 *   Private <-> Exp      0        0       CPU time (SRB)   00:00:00.00          *
 *   VIO                  0        0       Elapsed time    920:48:58.53          *
 *   Common               0      ---                                             *
 *                                                                               *
 *                                                                               *
 *   CPU Usage          0.18         $0.11  Standard Processing Unit Equivalent  *
 *                                   $0.11  Total Step execution charge          *
 *                                                                               *
 *    I/O count  DDname   Type Addr           I/O count  DDname   Type Addr      *
 *            2  STEPLIB  Disk 0401                   0  SYSPRINT      ----      *
 *            0  SYSUT1   Disk 04DC                   0  SYSUT2   Disk 04DC      *
 *            0  SYSIN         ----                                              *
 *********************************************************************************
 IEF373I STEP/$CND    /START 2004082.0938
 IEF374I STEP/$CND    /STOP  2004082.0938 CPU    0MIN 00.01SEC SRB    0MIN 00.00SEC VIRT    16K SYS   264K EXT       4K SYS    9388K
 IEF236I ALLOC. FOR PJG#FBIT $UNP
 IEF237I JES2 ALLOCATED TO SYSPRINT
 IEF237I 0402 ALLOCATED TO SYSUT1
 IGD101I SMS ALLOCATED TO DDNAME (SYSUT2  )
         DSN (SYS04082.T093853.RA000.PJG#FBIT.INPUT.H01   )
         STORCLAS (TEMP) MGMTCLAS (        ) DATACLAS (        )
         VOL SER NOS= SCR101
 IEF142I PJG#FBIT $UNP - STEP WAS EXECUTED - COND CODE 0000
 IEF285I   GG$PJG.PJG#FBIT.JOB05931.D0000102.?          SYSOUT
 IEF285I   WYL.GG.ORV.SOURCE                            KEPT
 IEF285I   VOL SER NOS= SYSB02.
 IGD106I SYS04082.T093853.RA000.PJG#FBIT.INPUT.H01    PASSED,    DDNAME=SYSUT2
 *********************************************************************************
 *   PJG#FBIT/$UNP    /                    Return Code      Zero                 *
 *   Region used      380K (108K user + 272K system)                             *
 *   Extended region  9468K (4K user + 9464K system)                             *
 *                                                                               *
 *   Paging              In      Out                                             *
 *   Private <-> Aux      0        0       CPU time (TCB)   00:00:00.05          *
 *   Private <-> Exp      0        0       CPU time (SRB)   00:00:00.00          *
 *   VIO                  0        0       Elapsed time    920:48:58.30          *
 *   Common               0      ---                                             *
 *                                                                               *
 *                                                                               *
 *   CPU Usage          0.93         $0.57  Standard Processing Unit Equivalent  *
 *                                   $0.57  Total Step execution charge          *
 *                                                                               *
 *    I/O count  DDname   Type Addr           I/O count  DDname   Type Addr      *
 *            0  SYSPRINT      ----                   3  SYSUT1   Disk 0402      *
 *           21  SYSUT2   Disk 04E3                                              *
 *********************************************************************************
 IEF373I STEP/$UNP    /START 2004082.0938
 IEF374I STEP/$UNP    /STOP  2004082.0938 CPU    0MIN 00.05SEC SRB    0MIN 00.00SEC VIRT   108K SYS   272K EXT       4K SYS    9464K
 IEF236I ALLOC. FOR PJG#FBIT ASM
 IEF237I 0402 ALLOCATED TO SYSLIB
 IEF237I 0402 ALLOCATED TO
 IEF237I 04DC ALLOCATED TO
 IGD101I SMS ALLOCATED TO DDNAME (SYSUT1  )
         DSN (SYS04082.T093853.RA000.PJG#FBIT.SYSUT1.H01  )
         STORCLAS (TEMP) MGMTCLAS (        ) DATACLAS (        )
         VOL SER NOS= VIO
 IEF237I JES2 ALLOCATED TO SYSTERM
 IGD101I SMS ALLOCATED TO DDNAME (SYSPRINT)
         DSN (SYS04082.T093853.RA000.PJG#FBIT.PRINT.H01   )
         STORCLAS (TEMP) MGMTCLAS (        ) DATACLAS (        )
         VOL SER NOS= SCR100
 IEF237I 04DC ALLOCATED TO SYSLIN
 IEF237I JES2 ALLOCATED TO SYSUDUMP
 IGD103I SMS ALLOCATED TO DDNAME SYSIN
 IEF142I PJG#FBIT ASM - STEP WAS EXECUTED - COND CODE 0000
 IEF285I   SYS3.DUMMYMAC                                KEPT
 IEF285I   VOL SER NOS= SYSB02.
 IEF285I   WYL.GG.ORV.MACLIB                            KEPT
 IEF285I   VOL SER NOS= SYSB02.
 IEF285I   WYL.GG.SYS.MACLIB                            KEPT
 IEF285I   VOL SER NOS= SYSB05.
 IGD105I SYS04082.T093853.RA000.PJG#FBIT.SYSUT1.H01   DELETED,   DDNAME=SYSUT1
 IEF285I   GG$PJG.PJG#FBIT.JOB05931.D0000103.?          SYSOUT
 IGD106I SYS04082.T093853.RA000.PJG#FBIT.PRINT.H01    PASSED,    DDNAME=SYSPRINT
 IEF285I   WYL.GG.PJG.OBJ                               KEPT
 IEF285I   VOL SER NOS= SYSB05.
 IEF285I   GG$PJG.PJG#FBIT.JOB05931.D0000104.?          SYSOUT
 IGD105I SYS04082.T093853.RA000.PJG#FBIT.INPUT.H01    DELETED,   DDNAME=SYSIN
 *********************************************************************************
 *   PJG#FBIT/ASM     /                    Return Code      Zero                 *
 *   Region used      8476K (8192K user + 284K system)                           *
 *   Extended region  9952K (412K user + 9540K system)                           *
 *                                                                               *
 *   Paging              In      Out                                             *
 *   Private <-> Aux      0        0       CPU time (TCB)   00:00:02.53          *
 *   Private <-> Exp      0        0       CPU time (SRB)   00:00:00.04          *
 *   VIO                  0        0       Elapsed time    920:48:57.70          *
 *   Common               0      ---                                             *
 *                                                                               *
 *                                                                               *
 *   CPU Usage         47.43        $29.40  Standard Processing Unit Equivalent  *
 *                                  $29.40  Total Step execution charge          *
 *                                                                               *
 *    I/O count  DDname   Type Addr           I/O count  DDname   Type Addr      *
 *           78  SYSLIB   Disk 0402                   0  SYSLIB   Disk 0402      *
 *          138  SYSLIB   Disk 04DC                   0  SYSUT1   VIO  ----      *
 *            0  SYSTERM       ----                 158  SYSPRINT Disk 038B      *
 *            6  SYSLIN   Disk 04DC                   0  SYSUDUMP      ----      *
 *           22  SYSIN    Disk 04E3                                              *
 *********************************************************************************
 IEF373I STEP/ASM     /START 2004082.0938
 IEF374I STEP/ASM     /STOP  2004082.0939 CPU    0MIN 02.53SEC SRB    0MIN 00.04SEC VIRT  8192K SYS   284K EXT     412K SYS    9540K
 IEF236I ALLOC. FOR PJG#FBIT $EDIT
 IEF237I 0402 ALLOCATED TO STEPLIB
 IGD103I SMS ALLOCATED TO DDNAME ASMOUT
 IEF237I JES2 ALLOCATED TO SYSPRINT
 IEF237I JES2 ALLOCATED TO SYSUDUMP
 IEF142I PJG#FBIT $EDIT - STEP WAS EXECUTED - COND CODE 0000
 IEF285I   WYL.GG.SYS.LINKLIB                           KEPT
 IEF285I   VOL SER NOS= SYSB02.
 IGD105I SYS04082.T093853.RA000.PJG#FBIT.PRINT.H01    DELETED,   DDNAME=ASMOUT
 IEF285I   GG$PJG.PJG#FBIT.JOB05931.D0000105.?          SYSOUT
 IEF285I   GG$PJG.PJG#FBIT.JOB05931.D0000106.?          SYSOUT
 *********************************************************************************
 *   PJG#FBIT/$EDIT   /                    Return Code      Zero                 *
 *   Region used      388K (116K user + 272K system)                             *
 *   Extended region  9480K (4K user + 9476K system)                             *
 *                                                                               *
 *   Paging              In      Out                                             *
 *   Private <-> Aux      0        0       CPU time (TCB)   00:00:00.60          *
 *   Private <-> Exp      0        0       CPU time (SRB)   00:00:00.02          *
 *   VIO                  0        0       Elapsed time    920:48:51.27          *
 *   Common               0      ---                                             *
 *                                                                               *
 *                                                                               *
 *   CPU Usage         11.25         $6.97  Standard Processing Unit Equivalent  *
 *                                   $6.97  Total Step execution charge          *
 *                                                                               *
 *    I/O count  DDname   Type Addr           I/O count  DDname   Type Addr      *
 *            2  STEPLIB  Disk 0402                 159  ASMOUT   Disk 038B      *
 *            0  SYSPRINT      ----                   0  SYSUDUMP      ----      *
 *********************************************************************************
 IEF373I STEP/$EDIT   /START 2004082.0939
 IEF374I STEP/$EDIT   /STOP  2004082.0939 CPU    0MIN 00.60SEC SRB    0MIN 00.02SEC VIRT   116K SYS   272K EXT       4K SYS    9476K
 *********************************************************************************
 *                                                                               *
 *                      S t a n f o r d   U n i v e r s i t y                    *
 *                                                                               *
 *                              *** Job Summary ***                              *
 *                                                                               *
 *   System Id      SYSB                   Input time     09:38:17  Mar 22, 2004 *
 *                                                                               *
 *   System Release SP6.1.0                Start time     09:38:53  Mar 22, 2004 *
 *                                                                               *
 *   Job name       PJG#FBIT               Stop  time     00:00:00  Mar 22, 2004 *
 *                                                                               *
 *   Account        PJG$GG                 Elapsed time  920:48:59.57            *
 *                                                                               *
 *   User Name      Module: FILEBIT        CPU time       00:00:03.20            *
 *                                                                               *
 *   Job class      E                      SRB Time       00:00:00.06            *
 *                                                                               *
 *********************************************************************************
 IEF375I  JOB/PJG#FBIT/START 2004082.0938
 IEF376I  JOB/PJG#FBIT/STOP  2004082.0939 CPU    0MIN 03.20SEC SRB    0MIN 00.06SEC
1Data set successfully converted from EDIT to FB format
1Assembler Done FILEBIT No Statements Flagged
1         High Level Assembler Option Summary                   (PTF UQ57391)                                               Page    1
-                                                                                            HLASM R4.0  2004/03/22 09.38
0  No Overriding ASMAOPT Parameters
   Overriding Parameters-  SYSPARM(FILEBIT),TERM,LANG(EN),OBJ,LC(32500),XREF(SHORT),NODECK,NORLD,NODX,NOUS
   No Process Statements


   Options for this Assembly
0  NOADATA
     ALIGN
   NOASA
     BATCH
     CODEPAGE(047C)
   NOCOMPAT
   NODBCS
 3 NODECK
 3 NODXREF
     ESD
   NOEXIT
     FLAG(0,ALIGN,CONT,NOIMPLEN,NOPAGE0,PUSH,RECORD,NOSUBSTR,USING0)
   NOFOLD
   NOGOFF
   NOINFO
 3   LANGUAGE(EN)
   NOLIBMAC
 3   LINECOUNT(32500)
     LIST(121)
     MXREF(SOURCE)
 3   OBJECT
     OPTABLE(UNI,NOLIST)
   NOPCONTROL
   NOPESTOP
   NOPROFILE
   NORA2
   NORENT
 3 NORLD
     RXREF
     SIZE(MAX)
 3   SYSPARM(FILEBIT)
 3   TERM(WIDE)
   NOTEST
     THREAD
   NOTRANSLATE
 3 NOUSING
 3   XREF(SHORT)

   No Overriding DD Names

1FILEBIT  External Symbol Dictionary                                                                                        Page    2
-Symbol   Type   Id     Address  Length     LD ID  Flags Alias-of                            HLASM R4.0  2004/03/22 09.38
0FILEBIT   SD 00000001 00000000 00001C80             06
 FILEBI    LD          00000000           00000001
 FBITINIT  LD          00000022           00000001
 BITCNT20  LD          0000020E           00000001
 VMGET     ER 00000002
 GRCRE     ER 00000003
 FDOIODO   ER 00000004
 FBITGET   LD          000003A4           00000001
 FBITREL   LD          000004C6           00000001
 FBITGCON  LD          000005E0           00000001
 GRGET     ER 00000005
 GRREL     ER 00000006
 FBITEXTN  LD          00000A6C           00000001
 FBITRCON  LD          00000E84           00000001
 ITMANG20  LD          000011E8           00000001
 ITMANR20  LD          00001264           00000001
 ITMREL20  LD          00001348           00000001
 ITMGET20  LD          0000154E           00000001
 FBITADDV  LD          00001704           00000001
 FBITREMV  LD          000017AE           00000001
 FBITACT   LD          00001894           00000001
 FBITDEA   LD          00001906           00000001
 ITWAIT20  LD          00001970           00000001
 BITCLR20  LD          00001A92           00000001
 AWAIT     ER 00000007
 SYSRDEL   ER 00000008
 SYSRNEW   ER 00000009
 SIGNAL    ER 0000000A

1FILEBIT  ORVYL'S File Block Manager                                                                                        Page    3
0Loc    Object Code    Addr1 Addr2  Stmt Lv Lineno    Source Statement                    (Asmedit 3.3)  HLASM R4.0  2004/03/22 09.38
+___    ______ ____    _____ _____  ____ __ ______    ______ _________
0                                      2       2.              COPY  HEADER
                                       3             =*********************************************************************
                                       4             =*                                                                   *
                                       5             =*                                                                   *
                                       6             =*                          M P - O R V Y L                          *
                                       7             =*                                                                   *
                                       8             =*       ORVYL - Release 5.0 - Class I - Stanford Proprietary        *
                                       9             =*                                                                   *
                                      10             =*                                                                   *
                                      11             =*********************************************************************
-
-                                     13             =         SPLEVEL SET=2
                                      16             =         HIBAL ASSOC=YES
-
                                     998             =*
                                     999             =* REGISTER CONVENTIONS (USE ONLY THE SYMBOLS)
                                    1000             =*
                                    1001             =*                     CLASS  USAGE
                                    1002             =*                     -----  -----------------------------
                                    1003             =RVR      REG   0        1    RETURN VALUE REGISTER
                                    1015             =RS       REG   1        *    SCRATCH
                                    1027             =RA       REG   2        *    SCRATCH
                                    1039             =RB       REG   3        *    SCRATCH
                                    1051             =RJ       REG   4        *    SCRATCH
                                    1063             =RK       REG   5        *    SCRATCH
                                    1075             =RX       REG   6        *    SCRATCH
                                    1087             =RY       REG   7        *    SCRATCH
                                    1099             =RM       REG   8        *    SCRATCH
                                    1111             =RN       REG   9        *    SCRATCH (In Guest)
                                    1123             =RTCBR    REG   9        -    POINTER TO THE RTCB (In Host)
                                    1135             =BR       REG   10       -    FIRST BASE REGISTER
                                    1147             =BRR      REG   11       -    SECOND BASE REGISTER
                                    1159             =WAR      REG   12       -    WORK AREA POINTER
                                    1171             =SPR      REG   13       -    STACK TOP POINTER
                                    1183             =RAR      REG   14       1    RETURN ADDRESS REGISTER
                                    1195             =EPAR     REG   15       1    ENTRY POINT ADDRESS
                                    1207             =*
                                    1208             =*      CLASS   MEANING
                                    1209             =*      -----   --------------------------------------------------
                                    1210             =*        *     Register may be freely used for scratch
                                    1211             =*        -     Register may not be used
                                    1212             =*        1     Available but may change on subroutine calls
                                    1213             =*
1FILEBIT  ORVYL'S File Block Manager                                                                                        Page    4
0D-Loc  Object Code    Addr1 Addr2  Stmt Lv Lineno    Source Statement           (Hibal 5, Asmedit 3.3)  HLASM R4.0  2004/03/22 09.38
+_____  ______ ____    _____ _____  ____ __ ______    ______ _________
0000000                00000 01C80  1215       3.     FILEBIT  MODULE TRCNUM=20,ID=BI
                                    1225             +*
                                    1226    02-IDENT +         ENTRY FILEBI
                                    1227             +
 000000 14C6C9D3C5C2C96B            1228    02-IDENT +FILEBI   DC    AL1(20),C'FILEBI,22MAR04,09:38'
                                    1229             +*
1FILEBIT  (FILEBI) (09:38) (22MAR04) ORVYL'S File Block Manager                                                             Page    5
0Loc    Object Code    Addr1 Addr2  Stmt Lv Lineno    Source Statement           (Hibal 5, Asmedit 3.3)  HLASM R4.0  2004/03/22 09.38
+___    ______ ____    _____ _____  ____ __ ______    ______ _________
0                                   1232       5.              COPY  PZERO
 000000                00000 00280  1233             =PZERO    RECORD BEGIN
                                    1241  1          =*
                                    1242  1          =* Real Page 0.  Each CPU has its own copy of this area.
                                    1243  1          =*
-                                   1245  1          =****************************************************************
                                    1246  1          =*               Fields Fixed by the Architecture               *
                                    1247  1          =*               ********************************               *
                                    1248  1          =*                                                              *
 000000                             1249  1          =PZRSNPSW   DS    D             Restart new PSW                 *
 000008                             1250  1          =PZRSOPSW   DS    D             Restart old PSW                 *
 000010                             1251  1          =           DS    D                                             *
 000018                             1252  1          =PZEXOPSW   DS    D             External old PSW                *
 000020                             1253  1          =PZSVOPSW   DS    D             Supervisor old PSW              *
 000028                             1254  1          =PZPIOPSW   DS    D             Program old PSW                 *
 000030                             1255  1          =PZMCOPSW   DS    D             Machine check old PSW           *
 000038                             1256  1          =PZIOOPSW   DS    D             I/O old PSW                     *
 000040                             1257  1          =           DS    3D                                            *
 000058                             1258  1          =PZEXNPSW   DS    D             External new PSW                *
 000060                             1259  1          =PZSVNPSW   DS    D             Supervisor new PSW              *
 000068                             1260  1          =PZPINPSW   DS    D             Program new PSW                 *
 000070                             1261  1          =PZMCNPSW   DS    D             Machine check new PSW           *
 000078                             1262  1          =PZIONPSW   DS    D             I/O new PSW                     *
 000080                             1263  1          =           DS    F                                             *
 000084                             1264  1          =PZEXCPU    DS    H             CPU address for EXT int         *
 000086                             1265  1          =PZEXIC     DS    H             External interrupt code         *
 000088                             1266  1          =PZSVILC    DS    H             Supervisor call ILC             *
 00008A                             1267  1          =PZSVIC     DS    H             Supervisor interrupt code       *
 00008C                             1268  1          =PZPIILC    DS    H             Program ILC                     *
 00008E                             1269  1          =PZPIIC     DS    H             Program interrupt code          *
 000090                             1270  1          =PZTREXA    DS    A             Translation exception address   *
 000094                             1271  1          =PZMONCL    DS    H             Monitor Class number            *
 000096                             1272  1          =PZPERCD    DS    H             PER code                        *
 000098                             1273  1          =PZPERA     DS    A             PER Address                     *
 00009C                             1274  1          =PZMONCD    DS    A             Monitor Code                    *
 0000A0                             1275  1          =           DS    3D                                            *
 0000B8                             1276  1          =PZIOSID    DS    A             I/O subsystem ID word           *
 0000BC                             1277  1          =PZIOPRM    DS    A             I/O Parameter                   *
 0000C0                             1278  1          =PZIOSCS    DS    A             I/O subchannel ending status    *
 0000C4                             1279  1          =           DS    A                                             *
 0000C8                             1280  1          =           DS    39D                                           *
                                    1281  1          =*                                                              *
                                    1282  1          =*            ***************************************           *
                                    1283  1          =*            End of Fields fixed by the architecture           *
                                    1284  1          =****************************************************************
1FILEBIT  (FILEBI) (09:38) (22MAR04) ORVYL'S File Block Manager                                                             Page    6
0D-Loc  Object Code    Addr1 Addr2  Stmt Lv Lineno    Source Statement           (Hibal 5, Asmedit 3.3)  HLASM R4.0  2004/03/22 09.38
+_____  ______ ____    _____ _____  ____ __ ______    ______ _________
0                                   1286  1          =*
                                    1287  1          =* Fields of general interest
                                    1288  1          =*
 000200                             1289  1          =PZMATP     DS    A             Address of the MAT
 000204                             1290  1          =           DS    A             ** Reserved **
 000208                             1291  1          =PZCURPID   DS    0D            Unique ID of the current process
 000208                             1292  1          =PZCURASB   DS    A             Addr of ASB for current Address space
 00020C                             1293  1          =PZCURTSK   DS    A             ID of current task in the Address space
 000210                             1294  1          =PZLCPUA    DS    A             Logical CPU address
 000214                             1295  1          =PZCPUMSK   DS    A             CPU address mask bit
 000218                             1296  1          =PZPSWM     DS    X             PSW mask for disabling
 000219                             1297  1          =           DS    X             ** Reserved **
                                    1298  1          =*
                                    1299  1          =* Termination/Trace information
                                    1300  1          =*
 00021A 00                          1301  1          =PZTERMFL   FLAG  ,             Termination flags
 PZTERMFL.PZABORT  80 ONES          1305  1          =           FLAG  PZABORT         ABORT macro issued
 PZTERMFL.PZATERM  40 ONES          1310  1          =           FLAG  PZATERM         Start termination processing
 00021B                             1315  1          =PZABSM     DS    X             Save area for system mask in ABORT
 00021C                             1316  1          =PZABR15    DS    A             Save area for R15 in an ABORT
 000220                             1317  1          =PZTZOFF    DS    D             Time zone offset
 000228                             1318  1          =           DS    22A           ** Reserved **
                                    1319  1          =*         DS    24A           ** Reserved **
 000280                00280 00280  1320             =         END   ,
 USING  PZERO,R0                    1329       6.              USING PZERO,R0
1FILEBIT  (FILEBI) (09:38) (22MAR04) ORVYL'S File Block Manager                                                             Page    7
0Current Usings:  (PZERO,R0)
0Loc    Object Code    Addr1 Addr2  Stmt Lv Lineno    Source Statement           (Hibal 5, Asmedit 3.3)  HLASM R4.0  2004/03/22 09.38
+___    ______ ____    _____ _____  ____ __ ______    ______ _________
0                                   1339       8.              COPY  MAT
                                    1340             =*****************************************************************
                                    1341             =*                                                               *
                                    1342             =*        *** M A S T E R   A D D R E S S   T A B L E ***        *
                                    1343             =*                                                               *
                                    1344             =*****************************************************************
-000000                00000 00100  1346             =MAT      RECORD BEGIN
                                    1354  1          =MATPTR     EQU   X'200',4,C'A' Address of the MAT in PZERO
 000000 D4C1E340                    1355  1          =           DC    CL4'MAT'      Control block ID
                                    1356  1          =*
                                    1357  1          =* Addresses of global control blocks
                                    1358  1          =*
 000004                             1359  1          =MATVMCB    DS    A             Virtual memory control block
 000008                             1360  1          =MATDCT     DS    A             Dispatcher control table
 00000C                             1361  1          =MATPAGCB   DS    A             Real memory control block
 000010                             1362  1          =MATM1CT    DS    A             CT for Mode 1 users
 000014                             1363  1          =MATLCT     DS    A             Lock manager control table
 000018                             1364  1          =MATQCT     DS    A             Queue manager control table
 00001C                             1365  1          =MATIOCB    DS    A             I/O Manager control block
 000020                             1366  1          =MATSBWB    DS    A             System buffer wait blocks
 000024                             1367  1          =MATGTCT    DS    A             Terminal global control table
 000028                             1368  1          =MATFILCB   DS    A             File master control table
 00002C                             1369  1          =MATJESCB   DS    A             JES master control table
 000030                             1370  1          =MATSYSCB   DS    A             System task control table
 000034                             1371  1          =MATACCT    DS    A             Accounting control table
 000038                             1372  1          =MATGRCT    DS    A             General Resource control table
 00003C                             1373  1          =MATGNCT    DS    A             Global Network Control table
 000040                             1374  1          =MATTECB    DS    D             Termination wait ECB
 000048                             1375  1          =           DS    25A           Reserved
                                    1376  1          =*
                                    1377  1          =* Control Block Chains
                                    1378  1          =*
 0000AC                             1379  1          =MATASBS    DS    A             Pointer to chain of ASBs
 0000B0                             1380  1          =MATASBL    DS    A             Id of suspend lock for ASB chain
 0000B4                             1381  1          =           DS    8A            **  RESERVED
                                    1382  1          =*
                                    1383  1          =* Control information
                                    1384  1          =*
 0000D4                             1385  1          =MATSNAME   DS    CL8           System Name
 0000DC                             1386  1          =MATPAGFN   DS    A             Current value of the Paging function
 0000E0                             1387  1          =MATSKEY    DS    X             SYSTEM storage key (in high 4 bits)
 0000E1                             1388  1          =MATUKEY    DS    X             USER storage key
                                    1389= 1          =           ¿þþþþþþþþþþþþþþþþþþþþþþþþþþþþþþþþÜ
                                    1390= 1          =           Ÿ  Information about the Kernel  Ÿ
                                    1391= 1          =           ¾þþþþþþþþþþþþþþþþþþþþþþþþþþþþþþþþ»
 0000E4                             1392  1          =MATKSTRT   DS    A             Starting address of the Kernel
 0000E8                             1393  1          =MATKMAP    DS    A             Address of the Kernel map
 0000EC                             1394  1          =MATKMAPL   DS    A             Length of the Kernel map
1FILEBIT  (FILEBI) (09:38) (22MAR04) ORVYL'S File Block Manager                                                             Page    8
0Current Usings:  (PZERO,R0)
0Loc    Object Code    Addr1 Addr2  Stmt Lv Lineno    Source Statement           (Hibal 5, Asmedit 3.3)  HLASM R4.0  2004/03/22 09.38
+___    ______ ____    _____ _____  ____ __ ______    ______ _________
0                                   1395= 1          =           ¿þþþþþþþþþþþþþþþþþþþþþþþþþÜ
                                    1396= 1          =           Ÿ  Failsoft information.  Ÿ
                                    1397= 1          =           ¾þþþþþþþþþþþþþþþþþþþþþþþþþ»
 0000F0                             1398  1          =MATNCLPE   DS    F             Number of CLP errors
 0000F4                             1399  1          =MATNFAIL   DS    F             Number of failsofts
 0000F8                             1400  1          =           DS    2A            Reserved
 000100                00100 00100  1401             =         END
1FILEBIT  (FILEBI) (09:38) (22MAR04) ORVYL'S File Block Manager                                                             Page    9
0Current Usings:  (PZERO,R0)
0Loc    Object Code    Addr1 Addr2  Stmt Lv Lineno    Source Statement           (Hibal 5, Asmedit 3.3)  HLASM R4.0  2004/03/22 09.38
+___    ______ ____    _____ _____  ____ __ ______    ______ _________
0                                   1411      10.              COPY  GRPARM
                                    1412             =*****************************************************************
                                    1413             =*
                                    1414             =* General Resource API
                                    1415             =*
                                    1416             =*****************************************************************
 000000                00000 00009  1417             =@GRES   RECORD BEGIN               General Resource Routine api
0000000                             1426  1          =@GRCID     DS    A                   Caller id
 000004                             1427  1          =@GRID      DS    A                   Resource id
0000008 00                          1429  1          =@GRFLAG    FLAG  ,
 @GRFLAG.@GRWAIT   80 ONES          1433  1          =           FLAG  @GRWAIT             Wait for resource to come free
 @GRFLAG.@GREXCL   40 ONES          1438  1          =           FLAG  @GREXCL             Get hold exclusively
 @GRFLAG.@GRCANAS  20 ONES          1443  1          =           FLAG  @GRCANAS            Cancel only this address space
0000009                00009 00009  1449             =         END   ,
0                                   1459             =*****************************************************************
                                    1460             =*
                                    1461             =* Create a general resource item
                                    1462             =*
                                    1463             =*   CALLID is a four byte caller identifier
                                    1464             =*
                                    1465             =*   The resource id is returned in RVR
                                    1466             =*
                                    1467             =*****************************************************************
                                    1468             =         MACRO ,
                                    1469             =&LABEL   GRCRE &CID=
                                    1470             =         AIF   ('&LABEL' EQ '').NOLAB
                                    1471             =&LABEL   LABEL ,
                                    1472             =.NOLAB   ANOP  ,
                                    1473             =         AIF   ('&CID' EQ '').ERR
                                    1474             =         PSET  @GRES
                                    1475             =         PMOV  @GRCID,&CID         Set caller id
                                    1476             =         VCALL GRCRE               Create a general resource item
                                    1477             =         AGO   .EXIT
                                    1478             =.ERR     MNOTE 8,'CID is a required parameter'
                                    1479             =.EXIT    ANOP  ,
                                    1480             =         MEND  ,
0                                   1482             =*****************************************************************
                                    1483             =*
                                    1484             =* Delete a general resource item
                                    1485             =*
                                    1486             =*   RID is a four byte resource id returned from GRCRE
                                    1487             =*
                                    1488             =*****************************************************************
                                    1489             =         MACRO ,
                                    1490             =&LABEL   GRDEL &RID=
                                    1491             =         AIF   ('&LABEL' EQ '').NOLAB
                                    1492             =&LABEL   LABEL ,
                                    1493             =.NOLAB   ANOP  ,
                                    1494             =         AIF   ('&RID' EQ '').ERR
1FILEBIT  (FILEBI) (09:38) (22MAR04) ORVYL'S File Block Manager                                                             Page   10
0Current Usings:  (PZERO,R0)
0Loc    Object Code    Addr1 Addr2  Stmt Lv Lineno    Source Statement           (Hibal 5, Asmedit 3.3)  HLASM R4.0  2004/03/22 09.38
+___    ______ ____    _____ _____  ____ __ ______    ______ _________
0                                   1495             =         PSET  @GRES
                                    1496             =         PMOV  @GRID,&RID          Set resource id
                                    1497             =         VCALL GRDEL               Delete a general resource item
                                    1498             =         AGO   .EXIT
                                    1499             =.ERR     MNOTE 8,'Resource ID is a requried parameter'
                                    1500             =.EXIT    ANOP  ,
                                    1501             =         MEND  ,
0                                   1503             =*****************************************************************
                                    1504             =*
                                    1505             =* Get a general resource item hold
                                    1506             =*
                                    1507             =*   RID is a four byte resource id returned from GRCRE
                                    1508             =*
                                    1509             =*   The resource hold id is returned in RVR
                                    1510             =*
                                    1511             =*****************************************************************
                                    1512             =         MACRO ,
                                    1513             =&LABEL   GRGET &RID=,&WAIT=YES,&EXCL=NO
                                    1514             =         AIF   ('&LABEL' EQ '').NOLAB
                                    1515             =&LABEL   LABEL ,
                                    1516             =.NOLAB   ANOP  ,
                                    1517             =         AIF   ('&RID' EQ '').ERR1
                                    1518             =         PSET  @GRES
                                    1519             =         PMOV  @GRID,&RID
                                    1520             =         AIF   ('&WAIT' EQ 'NO').EXCL
                                    1521             =         AIF   ('&WAIT' NE 'YES').ERR2
                                    1522             =         SET   @GRWAIT
                                    1523             =.EXCL    AIF   ('&EXCL' EQ 'NO').VCALL
                                    1524             =         AIF   ('&EXCL' NE 'YES').ERR3
                                    1525             =         SET   @GREXCL
                                    1526             =.VCALL   VCALL GRGET               Get general resource item
                                    1527             =         AGO   .EXIT
                                    1528             =.ERR1    MNOTE 8,'Resource ID is a requried parameter'
                                    1529             =         AGO   .EXIT
                                    1530             =.ERR2    MNOTE 8,'Valid values for WAIT= are YES or NO'
                                    1531             =         AGO   .EXIT
                                    1532             =.ERR3    MNOTE 8,'Valid values for EXCL= are YES or NO'
                                    1533             =.EXIT    ANOP  ,
                                    1534             =         MEND  ,
0                                   1536             =*****************************************************************
                                    1537             =*
                                    1538             =* Release a general resource item hold
                                    1539             =*
                                    1540             =*   RID is a four byte resource hold id returned from GRGET
                                    1541             =*     Note: The RID can be the resource id or hold id if the
                                    1542             =*           get was exclusive. See GRREL in RESMAN.
                                    1543             =*
                                    1544             =*****************************************************************
                                    1545             =         MACRO ,
                                    1546             =&LABEL   GRREL &RID=
                                    1547             =         AIF   ('&LABEL' EQ '').NOLAB
                                    1548             =&LABEL   LABEL ,
1FILEBIT  (FILEBI) (09:38) (22MAR04) ORVYL'S File Block Manager                                                             Page   11
0Current Usings:  (PZERO,R0)
0Loc    Object Code    Addr1 Addr2  Stmt Lv Lineno    Source Statement           (Hibal 5, Asmedit 3.3)  HLASM R4.0  2004/03/22 09.38
+___    ______ ____    _____ _____  ____ __ ______    ______ _________
0                                   1549             =.NOLAB   ANOP  ,
                                    1550             =         AIF   ('&RID' EQ '').ERR
                                    1551             =         PSET  @GRES
                                    1552             =         PMOV  @GRID,&RID
                                    1553             =         VCALL GRREL               Release a general resource item
                                    1554             =         AGO   .EXIT
                                    1555             =.ERR     MNOTE 8,'Resource ID is a requried parameter'
                                    1556             =         AGO   .EXIT
                                    1557             =.EXIT    ANOP  ,
                                    1558             =         MEND  ,
0                                   1560             =*****************************************************************
                                    1561             =*
                                    1562             =* Change an exclusive hold to a share hold
                                    1563             =*
                                    1564             =*   RID is a four byte resource id returned from GRGET
                                    1565             =*
                                    1566             =*****************************************************************
                                    1567             =         MACRO ,
                                    1568             =&LABEL   GRX2S &RID=
                                    1569             =         AIF   ('&LABEL' EQ '').NOLAB
                                    1570             =&LABEL   LABEL ,
                                    1571             =.NOLAB   ANOP  ,
                                    1572             =         AIF   ('&RID' EQ '').ERR
                                    1573             =         PSET  @GRES
                                    1574             =         PMOV  @GRID,&RID
                                    1575             =         VCALL GRX2S     Change an exclusive hold to a share hold
                                    1576             =         AGO   .EXIT
                                    1577             =.ERR     MNOTE 8,'Resource ID is a requried parameter'
                                    1578             =         AGO   .EXIT
                                    1579             =.EXIT    ANOP  ,
                                    1580             =         MEND  ,
0                                   1582             =*****************************************************************
                                    1583             =*
                                    1584             =* Cancel a general resource item waiting for hold
                                    1585             =*
                                    1586             =*   RID is a four byte resource id returned from GRGET
                                    1587             =*   TYPE is either ALL for cancel all waiters or AS for all
                                    1588             =*        waiters in this address space only
                                    1589             =*
                                    1590             =*****************************************************************
                                    1591             =         MACRO ,
                                    1592             =&LABEL   GRCAN &RID=,&TYPE=AS
                                    1593             =         AIF   ('&LABEL' EQ '').NOLAB
                                    1594             =&LABEL   LABEL ,
                                    1595             =.NOLAB   ANOP  ,
                                    1596             =         AIF   ('&RID' EQ '').ERR
                                    1597             =         PSET  @GRES
                                    1598             =         AIF   ('&TYPE' EQ 'ALL').CANALL
                                    1599             =         AIF   ('&TYPE' NE 'AS').ERR2
                                    1600             =         SET   @GRCANAS            Cancel only waiters of this AS
                                    1601             =.CANALL  ANOP  ,
                                    1602             =         PMOV  @GRID,&RID
1FILEBIT  (FILEBI) (09:38) (22MAR04) ORVYL'S File Block Manager                                                             Page   12
0Current Usings:  (PZERO,R0)
0Loc    Object Code    Addr1 Addr2  Stmt Lv Lineno    Source Statement           (Hibal 5, Asmedit 3.3)  HLASM R4.0  2004/03/22 09.38
+___    ______ ____    _____ _____  ____ __ ______    ______ _________
0                                   1603             =         VCALL GRCAN               Cancel a general resource item
                                    1604             =         AGO   .EXIT
                                    1605             =.ERR2    MNOTE 8,'Type must be ALL or AS'
                                    1606             =         AGO   .EXIT
                                    1607             =.ERR     MNOTE 8,'Resource ID is a requried parameter'
                                    1608             =.EXIT    ANOP  ,
                                    1609             =         MEND  ,
1FILEBIT  (FILEBI) (09:38) (22MAR04) ORVYL'S File Block Manager                                                             Page   13
0Current Usings:  (PZERO,R0)
0Loc    Object Code    Addr1 Addr2  Stmt Lv Lineno    Source Statement           (Hibal 5, Asmedit 3.3)  HLASM R4.0  2004/03/22 09.38
+___    ______ ____    _____ _____  ____ __ ______    ______ _________
0                                   1613      12.              COPY  FILEPARM
                                    1614             =*****************************************************************
                                    1615             =*                                                               *
                                    1616             =*  FILEPARM -- Parameters dealing with FILE SVC I/O.            *
                                    1617             =*                                                               *
                                    1618             =*****************************************************************
-                                   1620             =*
                                    1621             =*  M1FILE  --  Mode 1 file operation
                                    1622             =*
                                    1623             =*  RVR =  0 all ok
                                    1624             =*           wait user flags indicate which wait regs to set if any
                                    1625             =*  RVR <> 0 if   panic word <> 0, panic user
                                    1626             =*           else return registers
                                    1627             =*
0000000                00000 00029  1629             =@M1FILE  RECORD BEGIN
 000000                             1637  1          =@M1FR14    DS    A             Contents of R14 at SVC time
 000004                             1638  1          =@M1FR15    DS    A             Contents of R15 at SVC time
 000008                             1639  1          =@M1FR00    DS    A             Contents of R0  at SVC time
 00000C                             1640  1          =@M1FR01    DS    A             Contents of R1  at SVC time
                                    1641  1          =@M1FREG    EQU   @M1FR14,*-@M1FR14
0000010                             1643  1          =@M1FWR14   DS    A             Wait return registers
 000014                             1644  1          =@M1FWR15   DS    A             These are set at SVC time when
 000018                             1645  1          =@M1FWR01   DS    A             be used to set the return registers
000001C                             1647  1          =@M1FRQID   DS    A             Request ID (IDT)
 000020                             1648  1          =@M1FDVID   DS    A             Request block id (RQFB)
                                    1649  1          =
 000024                             1650  1          =@M1FILID   DS    X             File ID (IDT index)
                                    1651  1          =
 000025 00                          1652  1          =@M1FLAG    FLAG  ,
 @M1FLAG.@M1FCLP   80 ONES          1656  1          =           FLAG  @M1FCLP       CLP attach
 @M1FLAG.@M1FSPI   40 ONES          1661  1          =           FLAG  @M1FSPI       Spires attached
 @M1FLAG.@M1FM31   20 ONES          1666  1          =           FLAG  @M1FM31       User in 31 bit mode
0000026                             1672  1          =@M1FPKEY   DS    X             PSW key of requestor
0000027                             1674  1          =@M1FPRIV   DS    X             Signed on privileges
0000028 00                          1676  1          =@M1FTYPE   FLAG  ,             I/O type
 @M1FTYPE.@M1FATCH 04 EQ            1680  1          =           FLAG  (@M1FATCH,4,EQ)   Attach
 @M1FTYPE.@M1FREAD 08 EQ            1690  1          =           FLAG  (@M1FREAD,8,EQ)   Read
 @M1FTYPE.@M1FWRIT 0C EQ            1700  1          =           FLAG  (@M1FWRIT,12,EQ)  Write
 @M1FTYPE.@M1FCONT 10 EQ            1710  1          =           FLAG  (@M1FCONT,16,EQ)  Control
 @M1FTYPE.@M1FSTAT 14 EQ            1720  1          =           FLAG  (@M1FSTAT,20,EQ)  Status
 @M1FTYPE.@M1FDTCH 18 EQ            1730  1          =           FLAG  (@M1FDTCH,24,EQ)  Detach
 @M1FTYPE.@M1FRSRV 1C EQ            1740  1          =           FLAG  (@M1FRSRV,28,EQ)  Reserve
 @M1FTYPE.@M1FRLSE 20 EQ            1750  1          =           FLAG  (@M1FRLSE,32,EQ)  Release
 000029                00029 00029  1760             =         END   ,
1FILEBIT  (FILEBI) (09:38) (22MAR04) ORVYL'S File Block Manager                                                             Page   14
0Current Usings:  (PZERO,R0)
0Loc    Object Code    Addr1 Addr2  Stmt Lv Lineno    Source Statement           (Hibal 5, Asmedit 3.3)  HLASM R4.0  2004/03/22 09.38
+___    ______ ____    _____ _____  ____ __ ______    ______ _________
0                                   1770             =*
                                    1771             =*   M1FPOST -- This area maps the parm area of the FILE
                                    1772             =*              I/O complete exit.
                                    1773             =*
-000000                00000 00010  1775             =@M1FPOST RECORD BEGIN
 000000                             1783  1          =@M1FPRQI   DS    A             Request id (IDT)
                                    1784  1          =@M1FREDV   EQU   X'80'         Free the device please
 000004                             1785  1          =@M1FPR14   DS    A             Value of R14 to be returned to user
 000008                             1786  1          =@M1FPR15   DS    A             Value of R15 to be returned to user
 00000C                             1787  1          =@M1FPR01   DS    A             Value of R1 to be returned to user
 000010                00010 00010  1788             =         END   ,
-                                   1798             =*
                                    1799             =*  @FILEBLKI -- This area maps the parm area of the FILE
                                    1800             =*               system info area
                                    1801             =*
-000000                00000 00025  1803             =@FILEBLKI RECORD BEGIN                 File system block information
 000000                             1811  1          =@FILFSID   DS    A                       File system ID
                                    1812  1          =* -- Return Parameters --
 000004                             1813  1          =@FILTBLK   DS    A                       Total blocks in file system
 000008                             1814  1          =@FILABLK   DS    A                       Available blocks in file sys
 00000C                             1815  1          =@FILUMAX   DS    A                       Maximum user block allocation
 000010                             1816  1          =@FILNAME   DS    CL8                     File system name
 000018                             1817  1          =@FILCACT   DS    D                   Number of cache reads
 000020                             1818  1          =@FILIOCT   DS    F                   Number of I/O's
 000024 00                          1819  1          =@FILFLAG   FLAG  ,
 @FILFLAG.@FILFNA  80 ONES          1823  1          =           FLAG  @FILFNA                 Not available
 @FILFLAG.@FILFRO  40 ONES          1828  1          =           FLAG  @FILFRO                 Read only
 @FILFLAG.@FILFCAC 20 ONES          1833  1          =           FLAG  @FILFCACHE              File caching is enabled
 @FILFLAG.@FILF4K  10 ONES          1838  1          =           FLAG  @FILF4K                 4K file system
 000025                00025 00025  1843             =         END   ,
-                                   1853             =*
                                    1854             =*  @FILINFO -- This area maps the parm area of the individual
                                    1855             =*              file information area.
                                    1856             =*
-000000                00000 00036  1858             =@FMFINFO RECORD BEGIN
 000000                             1866  1          =@FMFIDID   DS    A                       Address of this file's ID
                                    1867  1          =*  Returned parameters
 000004                             1868  1          =@FMFIBLK   DS    A                       Number of blocks in file
 000008                             1869  1          =@FMFIPRI   DS    X                       File privileges
 000009 00                          1870  1          =@FMFIFLG   FLAG  ,
 @FMFIFLG.@FMFISHR 80 ONES          1874  1          =           FLAG  @FMFISHR                Shared file
 @FMFIFLG.@FMFIRSV 40 ONES          1879  1          =           FLAG  @FMFIRSV                Reserved
 @FMFIFLG.@FMFITMP 20 ONES          1884  1          =           FLAG  @FMFITMP                Temporary
 @FMFIFLG.@FMFINIX 10 ONES          1889  1          =           FLAG  @FMFINIX                Non-IXRed
1FILEBIT  (FILEBI) (09:38) (22MAR04) ORVYL'S File Block Manager                                                             Page   15
0Current Usings:  (PZERO,R0)
0Loc    Object Code    Addr1 Addr2  Stmt Lv Lineno    Source Statement           (Hibal 5, Asmedit 3.3)  HLASM R4.0  2004/03/22 09.38
+___    ______ ____    _____ _____  ____ __ ______    ______ _________
0@FMFIFLG.@FMFIATT 08 ONES          1894  1          =           FLAG  @FMFIATT                File being attached
 @FMFIFLG.@FMFIHYB 04 ONES          1899  1          =           FLAG  @FMFIHYB                Hybrid file
 00000A                             1904  1          =@FMFINAM   DS    CL44                    File name
 000036                00036 00036  1905             =         END   ,
-                                   1915             =*
                                    1916             =*  @FILEHALT -- This maps the parm area of the file HALT service
                                    1917             =*
-000000                00000 00004  1919             =@FILEHALT RECORD BEGIN
 000000                             1927  1          =@FHRQID    DS    A                       Request ID to be halted (RQB)
 000004                00004 00004  1928             =         END   ,
0000000                00000 00004  1938             =@FMRQFB  RECORD BEGIN
 000000                             1946  1          =@FMRQFBP   DS    A
 000004                00004 00004  1947             =         END   ,
-000000                00000 00005  1958             =@FMFSB  RECORD BEGIN
 000000                             1966  1          =@FMFSBP    DS    A
 000004 00                          1967  1          =@FMFSBF    FLAG  ,
 @FMFSBF.@FMFSBO   80 ONES          1971  1          =           FLAG  @FMFSBO             Flag is on
 000005                00005 00005  1976             =         END   ,
0000000                00000 00010  1986             =@FDOIODO RECORD BEGIN              IO read/write routine
 000000                             1994  1          =@FDOFSB    DS    A                   FSB address
 000004                             1995  1          =@FDOBLK    DS    A                   Block number
 000008                             1996  1          =@FDODATA   DS    A                   Data address
 00000C                             1997  1          =@FDODATL   DS    H                   Data length
 00000E                             1998  1          =@FDOTYPE   DS    X                   Block type
 00000F 00                          1999  1          =@FDOFLAG   FLAG  ,
 @FDOFLAG.@FDOFR   80 ONES          2003  1          =           FLAG  @FDOFR              Read
 @FDOFLAG.@FDOFW   40 ONES          2008  1          =           FLAG  @FDOFW              Write
 @FDOFLAG.@FDOFUSE 20 ONES          2013  1          =           FLAG  @FDOFUSE            User record IO
 @FDOFLAG.@FDOS106 10 ONES          2018  1          =           FLAG  @FDOS106            Status 106, read real block
 @FDOFLAG.@FDOS115 08 ONES          2023  1          =           FLAG  @FDOS115            Status 115, read block header
 @FDOFLAG.@FDODISK 04 ONES          2028  1          =           FLAG  @FDODISK            Read from disk, not cache
 000010                00010 00010  2033             =         END   ,
0000000                00000 00008  2043             =@FSADDV RECORD BEGIN
 000000                             2051  1          =@FSADDVF   DS    A                   File system name pointer
 000004                             2052  1          =@FSADDVD   DS    A                   DSN name pointer
 000008                00008 00008  2053             =         END   ,
1FILEBIT  (FILEBI) (09:38) (22MAR04) ORVYL'S File Block Manager                                                             Page   16
0Current Usings:  (PZERO,R0)
0Loc    Object Code    Addr1 Addr2  Stmt Lv Lineno    Source Statement           (Hibal 5, Asmedit 3.3)  HLASM R4.0  2004/03/22 09.38
+___    ______ ____    _____ _____  ____ __ ______    ______ _________
0                                   2063      14.              COPY  SIGPARM
                                    2064             =*
                                    2065             =*  AWAIT/AWAITAS parameters
                                    2066             =*    For task based calls, the ECB is a double word.
                                    2067             =*    For address space based calls, the ECB is a word.
                                    2068             =*
 000000                00000 00005  2069             =@AWAIT   RECORD BEGIN
 000000                             2077  1          =@AWTECB    DS    A                       Address of ECB
 000004 00                          2078  1          =@AWTFLG    FLAG  ,
 @AWTFLG.@AWTLONG  80 ONES          2082  1          =           FLAG  @AWTLONG                Long term wait
 000005                00005 00005  2087             =         END   ,
0                                   2097             =*
                                    2098             =*  SIGNAL/SIGNALAS parameters
                                    2099             =*    For task based calls, the ECB and post code is a double word.
                                    2100             =*    For address space based calls, the ECB and post code is a word.
                                    2101             =*
 000000                00000 00014  2102             =@SIGNAL  RECORD BEGIN
 000000                             2110  1          =@SGCODE    DS    D                       Post code
 000008                             2111  1          =@SGECB     DS    A                       Address of ECB
                                    2112  1          =*  -- Parms for task signal --
                                    2113  1          =*    Zero ASB means post in this AS
                                    2114  1          =*    @PSSRID is only used for cross AS posts
 00000C                             2115  1          =@SGASB     DS    A                       ASB to be posted
 000010                             2116  1          =@SGSRID    DS    A                       System routine ID for cross
                                    2117  1          =*                                          AS posting
 000014                00014 00014  2118             =         END   ,
1FILEBIT  (FILEBI) (09:38) (22MAR04) ORVYL'S File Block Manager                                                             Page   17
0Current Usings:  (PZERO,R0)
0Loc    Object Code    Addr1 Addr2  Stmt Lv Lineno    Source Statement           (Hibal 5, Asmedit 3.3)  HLASM R4.0  2004/03/22 09.38
+___    ______ ____    _____ _____  ____ __ ______    ______ _________
0                                   2128      16.              COPY  DISPPARM
                                    2129             =*****************************************************************
                                    2130             =*                                                               *
                                    2131             =*  DISPPARM -- Parameters for the dispatcher global routines.   *
                                    2132             =*                                                               *
                                    2133             =*****************************************************************
-                                   2135             =*
                                    2136             =* Routines to indicate completion of a page or swap I/O
                                    2137             =*
 000000                00000 00004  2138             =@DISPPIOC RECORD BEGIN                 Page I/O completion parms
 000000                             2146  1          =@DPIOASB   DS    A                       ASB of completing I/O
 000004                00004 00004  2147             =         END   ,
0000000                00000 00004  2157             =@DISPSIOC RECORD BEGIN                 Swap I/O completion parms
 000000                             2165  1          =@DSIOASB   DS    A                       ASB of completing I/O
 000004                00004 00004  2166             =         END   ,
-                                   2176             =*
                                    2177             =* SUSPEND parameters
                                    2178             =*
0000000                00000 00009  2180             =@SUSPEND RECORD BEGIN
 000000                             2188  1          =@SUSPCTL   DS    0D            ID of the Control level suspended
 000000                             2189  1          =@SUSPID    DS    A             ID of the task/address space suspended
 000004                             2190  1          =@SUSPLC    DS    A             For tasks: Level of control suspended
 000008 00                          2191  1          =@SUSPFLG   FLAG  ,
 @SUSPFLG.@SUSPLNG 80 ONES          2195  1          =           FLAG  @SUSPLNG      This will be of long duration
 @SUSPFLG.@SUSPAS  40 ONES          2200  1          =           FLAG  @SUSPAS       Suspend the entire address space
 @SUSPFLG.@SUSPPLC 20 ONES          2205  1          =           FLAG  @SUSPPLC      Suspend previous level of control
 000009                00009 00009  2210             =         END   ,
-                                   2220             =*
                                    2221             =* RESUMAS/RESUMTS parameters
                                    2222             =*
0000000                00000 00008  2224             =@RESUME  RECORD BEGIN
 000000                             2232  1          =@RESCTL    DS    0D            ID of the unit of work to be resumed
 000000                             2233  1          =@RESUNIT   DS    A             Address of the ASB/task Id to resume
 000004                             2234  1          =@RESLC     DS    A             Level of control in a task
 000008                00008 00008  2235             =         END   ,
-                                   2245             =*
                                    2246             =* DISPSHLD/DISPSREL parmameters
                                    2247             =*
0000000                00000 00004  2249             =@DISPSWP RECORD BEGIN
 000000                             2257  1          =@DISPSAS   DS    A             Address of the ASB being manipulated
 000004                00004 00004  2258             =         END   ,
1FILEBIT  (FILEBI) (09:38) (22MAR04) ORVYL'S File Block Manager                                                             Page   18
0Current Usings:  (PZERO,R0)
0Loc    Object Code    Addr1 Addr2  Stmt Lv Lineno    Source Statement           (Hibal 5, Asmedit 3.3)  HLASM R4.0  2004/03/22 09.38
+___    ______ ____    _____ _____  ____ __ ______    ______ _________
0                                   2268             =*
                                    2269             =* ACREATE parameters
                                    2270             =*
0000000                00000 00008  2272             =@ACREATE RECORD BEGIN
 000000                             2280  1          =@ACRPSW    DS    D             Instruction address for task
 000008                00008 00008  2281             =         END   ,
-                                   2291             =*
                                    2292             =* TCREATE parameters
                                    2293             =*
0000000                00000 00015  2295             =@TCREATE RECORD BEGIN
 000000                             2303  1          =@TCRPSW    DS    D             Initial PSW for the task
 000008                             2304  1          =@TCRPARM   DS    2A            Parameter for the task
 000010                             2305  1          =@TCRPRIO   DS    A             Adjustment to priority from Current task
 000014 00                          2306  1          =@TCRFLAG   FLAG  ,             Task creation flags
 @TCRFLAG.@TCRFSTK 80 ONES          2310  1          =           FLAG  @TCRFSTK        Task entered with a stack
 @TCRFLAG.@TCRFPAB 40 ONES          2315  1          =           FLAG  @TCRFPABS       Prio is absolute
 000015                00015 00015  2320             =         END   ,
-                                   2330             =*
                                    2331             =* TREMOVE parameters
                                    2332             =*
0000000                00000 00004  2334             =@TREMOVE RECORD BEGIN
 000000                             2342  1          =@TREID     DS    A             ID of the task to be removed
 000004                00004 00004  2343             =         END   ,
-                                   2353             =*
                                    2354             =* TENTRY Parameters  (on entry to a created task)
                                    2355             =*
0000000                00000 00008  2357             =@TENTRY  RECORD BEGIN
 000000                             2365  1          =@TEPARM    DS    2A            Entry parm for the task
 000008                00008 00008  2366             =         END   ,
-                                   2376             =*
                                    2377             =* TEXIT parameters
                                    2378             =*
0000000                00000 00004  2380             =@TEXIT   RECORD BEGIN
 000000                             2388  1          =           DS    A             Not used
 000004                00004 00004  2389             =         END   ,
-                                   2399             =*
                                    2400             =* SYSRNEW -- Get a new SYSR ID
                                    2401             =*
1FILEBIT  (FILEBI) (09:38) (22MAR04) ORVYL'S File Block Manager                                                             Page   19
0Current Usings:  (PZERO,R0)
0Loc    Object Code    Addr1 Addr2  Stmt Lv Lineno    Source Statement           (Hibal 5, Asmedit 3.3)  HLASM R4.0  2004/03/22 09.38
+___    ______ ____    _____ _____  ____ __ ______    ______ _________
0000000                00000 00004  2403             =@SYSRNEW RECORD BEGIN
 000000                             2411  1          =           DS    A             Not used
 000004                00004 00004  2412             =         END   ,
-                                   2422             =*
                                    2423             =* SYSRDEL -- Delete a previous SYSR ID
                                    2424             =*
 000000                00000 00004  2425             =@SYSRDEL RECORD BEGIN
 000000                             2433  1          =@SYSRDID   DS    A             Id of the SYSR
 000004                00004 00004  2434             =         END   ,
-                                   2444             =*
                                    2445             =* SYSRDO -- Schedule a system routine to run in another address space
                                    2446             =*
0000000                00000 0001C  2448             =@SYSRDO  RECORD BEGIN
 000000                             2456  1          =@SYSRID    DS    A             Id from SYSRNEW
 000004                             2457  1          =@SYSRASB   DS    A             ASB of the Address space where it goes
 000008                             2458  1          =@SYSRLOC   DS    A             Location of the system routine
 00000C                             2459  1          =@SYSRPRM   DS    4A            Parameters for the routine
 00001C                0001C 0001C  2460             =         END   ,
-                                   2470             =*
                                    2471             =* SYSRTN -- Parameter passed to a system routine
                                    2472             =*
0000000                00000 00010  2474             =@SYSRTN  RECORD BEGIN
 000000                             2482  1          =@SYSPARS   DS    4A            Parameters
 000010                00010 00010  2483             =         END   ,
-                                   2493             =*
                                    2494             =* PERSET -- Set the Per registers
                                    2495             =*
0000000                00000 0000C  2497             =@PERSET  RECORD BEGIN
 000000                             2505  1          =@PERSDAT   DS    3F            3 Registers (corresponds to CRs 9-11)
 00000C                0000C 0000C  2506             =         END   ,
-                                   2516             =*
                                    2517             =* MONSET -- Set the MON masks
                                    2518             =*
0000000                00000 00002  2520             =@MONSET  RECORD BEGIN
 000000                             2528  1          =@MONSDAT   DS    H             Monitor Class Mask
 000002                00002 00002  2529             =         END   ,
-                                   2539             =*
                                    2540             =* DSPSTAT -- Return Dispatcher Statistics
1FILEBIT  (FILEBI) (09:38) (22MAR04) ORVYL'S File Block Manager                                                             Page   20
0Current Usings:  (PZERO,R0)
0Loc    Object Code    Addr1 Addr2  Stmt Lv Lineno    Source Statement           (Hibal 5, Asmedit 3.3)  HLASM R4.0  2004/03/22 09.38
+___    ______ ____    _____ _____  ____ __ ______    ______ _________
0                                   2541             =*
0000000                00000 00020  2543             =@DSPSTAT RECORD BEGIN
 000000                             2551  1          =@DSPSST    DS    D             TOD clock when system started
 000008                             2552  1          =@DSPSCHG   DS    D             Total CPU time charged (TOD)
 000010                             2553  1          =@DSPSDSP   DS    D             Dispatch CPU time (TOD)
 000018                             2554  1          =@DSPSIOS   DS    D             I/O Service time (TOD)
 000020                00020 00020  2555             =         END   ,
1FILEBIT  (FILEBI) (09:38) (22MAR04) ORVYL'S File Block Manager                                                             Page   21
0Current Usings:  (PZERO,R0)
0Loc    Object Code    Addr1 Addr2  Stmt Lv Lineno    Source Statement           (Hibal 5, Asmedit 3.3)  HLASM R4.0  2004/03/22 09.38
+___    ______ ____    _____ _____  ____ __ ______    ______ _________
0                                   2565      18.              COPY  SBPARM
                                    2566             =*******************************************************************
                                    2567             =*                                                                 *
                                    2568             =* Macros for the inialization and manipulation of system buffer   *
                                    2569             =* pools for the orvyl file system.                                *
                                    2570             =*                                                                 *
                                    2571             =*******************************************************************
0                                   2573             =*******************************************************************
                                    2574             =*                                                                 *
                                    2575             =* Buffer pool initialization                                      *
                                    2576             =*                                                                 *
                                    2577             =*******************************************************************
 000000                00000 00009  2578             =@SBINIT RECORD BEGIN
 000000                             2586  1          =@SBILEN   DS    A                   Length of a buffer
 000004                             2587  1          =@SBICNT   DS    A                   Count of buffers in pool
 000008 00                          2588  1          =@SBIFLG   FLAG  ,                   Where to create pool flags
                                    2592  1          =*Not supported yet FLAG  @SBLUSR User memory local to the addr space
 @SBIFLG.@SBLSYS   80 ONES          2593  1          =           FLAG  @SBLSYS            Sys memory local to the addr space
                                    2598  1          =*Not supported yet FLAG  @SBGLLO Global memory below the line
 @SBIFLG.@SBGLHI   40 ONES          2599  1          =           FLAG  @SBGLHI            Global memory above the line
 @SBIFLG.@SBFIX    20 ONES          2604  1          =           FLAG  @SBFIX             Create in fixed memory
 000009                00009 00009  2609             =         END   ,
0                                   2619             =*******************************************************************
                                    2620             =*                                                                 *
                                    2621             =* Buffer pool get                                                 *
                                    2622             =*                                                                 *
                                    2623             =*******************************************************************
 000000                00000 0000C  2624             =@SBGET  RECORD BEGIN
 000000                             2632  1          =@SBGPOO   DS    A                   Buffer pool address
 000004                             2633  1          =@SBGADR   DS    A                   Buffer address
 000008                             2634  1          =@SBGLEN   DS    A                   Buffer length
 00000C                0000C 0000C  2635             =         END   ,
0                                   2645             =*******************************************************************
                                    2646             =*                                                                 *
                                    2647             =* Buffer pool free                                                *
                                    2648             =*                                                                 *
                                    2649             =*******************************************************************
 000000                00000 00008  2650             =@SBFREE RECORD BEGIN
 000000                             2658  1          =@SBFPOO   DS    A                   Buffer pool address
 000004                             2659  1          =@SBFADR   DS    A                   Buffer address
 000008                00008 00008  2660             =         END   ,
0000000                00000 00020  2670             =SBWAIT  RECORD BEGIN               System buffer wait block
 000000                             2678  1          =SBWFP      DS    A
 000004                             2679  1          =SBWBP      DS    A
 000008 E2C2E640                    2680  1          =SBWBID     DC    CL4'SBW'
 00000C                             2681  1          =SBWADR     DS   0A                   Address of buffer now available
 00000C                             2682  1          =SBWASB     DS    A                   Address space
 000010                             2683  1          =SBWECB     DS    D                   Wait ECB
 000018                             2684  1          =SBWORD1    DS    A                   Various
 00001C                             2685  1          =SBWORD2    DS    A                   Various
1FILEBIT  (FILEBI) (09:38) (22MAR04) ORVYL'S File Block Manager                                                             Page   22
0Current Usings:  (PZERO,R0)
0Loc    Object Code    Addr1 Addr2  Stmt Lv Lineno    Source Statement           (Hibal 5, Asmedit 3.3)  HLASM R4.0  2004/03/22 09.38
+___    ______ ____    _____ _____  ____ __ ______    ______ _________
0000020                00020 00020  2686             =         END   ,
1FILEBIT  (FILEBI) (09:38) (22MAR04) ORVYL'S File Block Manager                                                             Page   23
0Current Usings:  (PZERO,R0)
0Loc    Object Code    Addr1 Addr2  Stmt Lv Lineno    Source Statement           (Hibal 5, Asmedit 3.3)  HLASM R4.0  2004/03/22 09.38
+___    ______ ____    _____ _____  ____ __ ______    ______ _________
0                                   2696      20.              COPY  SLISTMAC
                                    2697             =*******************************************************************
                                    2698             =*                                                                 *
                                    2699             =* Macros for the serialized manipulation of single linked lists   *
                                    2700             =* in memory.  These lists are of the PUSH/POP (LIFO) variety.     *
                                    2701             =* Serialization is achieved using the CDS and CS instructions.    *
                                    2702             =*                                                                 *
                                    2703             =*******************************************************************
0                                   2705             =*******************************************************************
                                    2706             =*                                                                 *
                                    2707             =* Single linked list head fields                                  *
                                    2708             =*                                                                 *
                                    2709             =*******************************************************************
                                    2710             =         MACRO
                                    2711             =&LAB     SHEAD
                                    2712             =         AIF   ('&LAB' EQ '').ERR
                                    2713             =&LAB     DS   0D                   Single linked CDS list
                                    2714             =&LAB.FP  DS    A                   Forward pointer
                                    2715             =&LAB.SEQ DS    A                   CDS sequence number
                                    2716             =         MEXIT
                                    2717             =.ERR     MNOTE 8,'Label (list name) required'
                                    2718             =         MEND
0                                   2720             =*******************************************************************
                                    2721             =*                                                                 *
                                    2722             =* Push an item onto a single linked list                          *
                                    2723             =*                                                                 *
                                    2724             =*******************************************************************
                                    2725             =         MACRO
                                    2726             =&LABEL   SPUSH &HEAD=,&ITEM=
                                    2727             =         LCLC  &X
                                    2728             =         AIF   ('&LABEL' EQ '').NOLAB
                                    2729             =&LABEL   LABEL ,
                                    2730             =.NOLAB   ANOP  ,
                                    2731             =         AIF   ('&HEAD' EQ '').ERR1
                                    2732             =         AIF   ('&ITEM' EQ '').ERR2
                                    2734             =         LM    R14,R15,&HEAD       Get fwd ptr and sequence number
                                    2735             =         LA    RVR,&ITEM           Point to new item
                                    2736             =         LOOP  BEGIN
                                    2737             =         LA    RS,1(R15)           Increment sequence
                                    2738             =         MVC   &ITEM.(L'&HEAD.FP),&HEAD.FP Set item fwd ptr
                                    2739             =         CDS   R14,RVR,&HEAD       Add item to list
                                    2740             =         UNTIL (Z),END
                                    2742             =         AGO   .EXIT
                                    2743             =.ERR1    MNOTE 8,'Head is a required parameter'
                                    2744             =         AGO   .EXIT
                                    2745             =.ERR2    MNOTE 8,'Item is a required parameter'
                                    2746             =.EXIT    ANOP  ,
                                    2747             =         MEND  ,
0                                   2749             =*******************************************************************
                                    2750             =*                                                                 *
                                    2751             =* Pop an item from a single linked list. Addr returned in RVR     *
1FILEBIT  (FILEBI) (09:38) (22MAR04) ORVYL'S File Block Manager                                                             Page   24
0Current Usings:  (PZERO,R0)
0Loc    Object Code    Addr1 Addr2  Stmt Lv Lineno    Source Statement           (Hibal 5, Asmedit 3.3)  HLASM R4.0  2004/03/22 09.38
+___    ______ ____    _____ _____  ____ __ ______    ______ _________
0                                   2752             =* (zero if the list was empty).                                   *
                                    2753             =*                                                                 *
                                    2754             =*******************************************************************
                                    2755             =         MACRO
                                    2756             =&LABEL   SPOP  &HEAD=
                                    2757             =         AIF   ('&LABEL' EQ '').NOLAB
                                    2758             =&LABEL   LABEL ,
                                    2759             =.NOLAB   ANOP  ,
                                    2760             =         AIF   ('&HEAD' EQ '').ERR1
                                    2762             =         LM    RVR,RS,&HEAD        Get fwd and sequence number
                                    2763             =         LOOP  BEGIN
                                    2764             =         IF    (RVR,Z),EXIT        None to get
                                    2765             =         LR    R14,RVR             Point to first item
                                    2766             =         L     R14,0(R14)          Get fwd pointer
                                    2767             =         LA    R15,1(RS)           Increment sequence
                                    2768             =         CDS   RVR,R14,&HEAD       Remove item from list
                                    2769             =         UNTIL (Z),END
                                    2771             =         AGO   .EXIT
                                    2772             =.ERR1    MNOTE 8,'Head is a required parameter'
                                    2773             =.EXIT    ANOP  ,
                                    2774             =         MEND  ,
0                                   2776             =*******************************************************************
                                    2777             =*                                                                 *
                                    2778             =* Get an available item from list (ptr returned in RVR). Memory   *
                                    2779             =* will be obtained if the list is empty.                          *
                                    2780             =*                                                                 *
                                    2781             =*******************************************************************
                                    2782             =         MACRO
                                    2783             =&LABEL   SAVAIL &HEAD=,&LEN=,&LOC=GLOBHI,&FIX=,&PAGE=
                                    2784             =         AIF   ('&LABEL' EQ '').NOLAB
                                    2785             =&LABEL   LABEL ,
                                    2786             =.NOLAB   ANOP  ,
                                    2787             =         AIF   ('&HEAD' EQ '').ERR1
                                    2788             =         AIF   ('&LEN' EQ '').ERR2
                                    2789             =         SPOP  HEAD=&HEAD          pop a free item
                                    2790             =         IF    (RVR,Z),BEGIN       empty list
                                    2791             =         VMGET &LEN,LOC=&LOC,FIX=&FIX,PAGE=&PAGE
                                    2792             =         IF    ('LTR RVR,RVR',ZERO),'ABORT NO_MEM_&HEAD'
                                    2793             =         END   ,
                                    2794             =         AGO   .EXIT
                                    2795             =.ERR1    MNOTE 8,'Head is a required parameter'
                                    2796             =         AGO   .EXIT
                                    2797             =.ERR2    MNOTE 8,'Len is a required parameter'
                                    2798             =.EXIT    ANOP  ,
                                    2799             =         MEND  ,
0000000                00000 00008  2801             =SLDUMMY  RECORD BEGIN
                                    2809  1          =SLDUM      SHEAD ,
 000000                             2810  1 01-02713 +SLDUM      DS   0D                   Single linked CDS list
 000000                             2811  1 01-02714 +SLDUMFP    DS    A                   Forward pointer
 000004                             2812  1 01-02715 +SLDUMSEQ   DS    A                   CDS sequence number
 000008                00008 00008  2813             =         END
1FILEBIT  (FILEBI) (09:38) (22MAR04) ORVYL'S File Block Manager                                                             Page   25
0Current Usings:  (PZERO,R0)
0Loc    Object Code    Addr1 Addr2  Stmt Lv Lineno    Source Statement           (Hibal 5, Asmedit 3.3)  HLASM R4.0  2004/03/22 09.38
+___    ______ ____    _____ _____  ____ __ ______    ______ _________
0                                   2823      22.              COPY  VMPARM
                                    2824             =*******************************************************************
                                    2825             =*                                                                 *
                                    2826             =*    Memory parms for inside the virtual machine.                 *
                                    2827             =*                                                                 *
                                    2828             =*******************************************************************
-000000                00000 0000B  2830             =@VMGET   RECORD BEGIN        Parm area for getting virtual memory
 000000                             2838  1          =@VMGLEN    DS    A             Amount of memory needed
 000004                             2839  1          =@VMGDAT    DS    A             More data. Address or maxlen.
 000008                             2840  1          =@VMGPOOL   DS    H             Pool/Subpool to get the memory from
 00000A 00                          2841  1          =@VMGFLG    FLAG  ,
 @VMGFLG.@VMGPAGE  80 ONES          2845  1          =           FLAG  @VMGPAGE      Page Aligned
 @VMGFLG.@VMGONEP  40 ONES          2850  1          =           FLAG  @VMGONEP      Don't cross page boundary
 00000B                0000B 0000B  2855             =         END   ,
-000000                00000 0000A  2865             =@VMFREE  RECORD BEGIN        Used for VMFREE and VMCHECK
 000000                             2873  1          =@VMFLOC    DS    A             Location of the storage to free
 000004                             2874  1          =@VMFLEN    DS    A             Amount to free
 000008                             2875  1          =@VMFPOOL   DS    H             Pool/Subpool where the storage lives
 00000A                0000A 0000A  2876             =         END   ,
-000000                00000 00009  2886             =@VMINFO  RECORD BEGIN        Returns User address limits/hash val
 000000                             2894  1          =@VMIUST    DS    A             Start of the user address space
 000004                             2895  1          =@VMIULEN   DS    A             Length of the user address space
 000008                             2896  1          =@VMITRSH   DS    X             Trash value
 000009                00009 00009  2897             =         END   ,
1FILEBIT  (FILEBI) (09:38) (22MAR04) ORVYL'S File Block Manager                                                             Page   26
0Current Usings:  (PZERO,R0)
0Loc    Object Code    Addr1 Addr2  Stmt Lv Lineno    Source Statement           (Hibal 5, Asmedit 3.3)  HLASM R4.0  2004/03/22 09.38
+___    ______ ____    _____ _____  ____ __ ______    ______ _________
0                                   2907      24.              COPY  FSB
 000000                00000 001E0  2908             =FSB      RECORD BEGIN
                                    2916  1          =CCAT0PCT   EQU   10                      % OF FREE BLOCKS FOR WARNING
                                    2917  1          =CCAT0MIN   EQU   60                      MIN FREE BEFORE WARNING
                                    2918  1          =CCAT1PCT   EQU   5                       % OF MIN LOGICAL FREE BLOCKS
                                    2919  1          =CCAT1MIN   EQU   60                      MIN FREE LOGICAL BLOCK NUM
                                    2920  1          =CCAT2PCT   EQU   1                       % OF MIN FREE BLOCKS
                                    2921  1          =CCAT2MIN   EQU   10                      MIN FREE BLOCK NUM
                                    2922  1          =
                                    2923  1          =CNODA99    EQU   72,72,C'N'              99th percentile
                                    2924  1          =CNODF99    EQU   65,65,C'N'              Non permit len, no per, max name
                                    2925  1          =
                                    2926  1          =CFSBFLSZ   EQU   40                      MAX FIL NAME LEN(DOTS, ~"ORV.")
                                    2927  1          =CFSBNDOT   EQU   38                      MAX FIL NAME LEN(~DOTS, ~"ORV.")
                                    2928  1          =CFSBNMSZ   EQU   33                      MAX NAME LEN TO SEARCH
                                    2929  1          =CFSBDBLK   EQU   3                       3 DOUBLE WRITE BLOCKS
                                    2930  1          =CFSBSTK    EQU   7                       STACK DEPTH OF 7
                                    2931  1          =CFSBMXNT   EQU   256+41                  MAX ENTRY LENGTH
                                    2932  1          =OBLKPL     EQU   3,3,C'N'                ORVYL FILE BLOCK POINTER LEN
                                    2933  1          =BL         EQU   2,2,C'N'                BLOCK POINTER LEN
                                    2934  1          =OL         EQU   2,2,C'N'                OFFSET POINTER LEN
                                    2935  1          =PL         EQU   BL+OL,BL+OL,C'N'        TOTAL POINTER LEN
                                    2936  1          =           GBLA  &BL,&L
                                    2937  1          =&BL        SETA  L'BL
                                    2938  1          =&L         SETA  L'PL                    TOTAL POINTER LENGTH
                                    2939  1          =*
                                    2940  1          =*  FILE SYSTEM BLOCK
                                    2941  1          =*
 000000 C6E2C240                    2942  1          =FSBBID     DC    CL4'FSB'                BLOCK ID
                                    2943  1          =
 000004                             2944  1          =FSBCHAIN   DS    A                       NEXT FSB ON CHAIN
                                    2945  1          =
 000008                             2946  1          =FSBID      DS    X                       FILE-SYSTEM ID NUMBER
                                    2947  1          =
 000009 00                          2948  1          =FSBAFLGS   FLAG  ,                       FILE-SYSTEM AVAILABILITY
 FSBAFLGS.FSBANAVL 80 ONES          2952  1          =           FLAG  FSBANAVL                NOT AVAILABLE
 FSBAFLGS.FSBARO   40 ONES          2957  1          =           FLAG  FSBARO                  READ-ONLY STATUS
 FSBAFLGS.FSBINIT  20 ONES          2962  1          =           FLAG  FSBINIT                 INITIALIZATION PROCESS
 FSBAFLGS.FSBCLOSE 10 ONES          2967  1          =           FLAG  FSBCLOSE                SHUTDOWN PROCESS
 FSBAFLGS.FSBCATNI 08 ONES          2972  1          =           FLAG  FSBCATNIN               CATALOG IN NoInsert MODE
 FSBAFLGS.FSBCATNL 04 ONES          2977  1          =           FLAG  FSBCATNLM               CATALOG IN NoLenMod MODE
                                    2982  1          =
 00000A 00                          2983  1          =FSBSFLGS   FLAG  ,                       FILE-SYSTEM STATUS
 FSBSFLGS.FSBSPROD 80 ONES          2987  1          =           FLAG  FSBSPROD                PRODUCTION FILE SYSTEM
 FSBSFLGS.FSBSABRO 40 ONES          2992  1          =           FLAG  FSBSABRO                ALLOW BATCH THOUGH R/O
 FSBSFLGS.FSBSTEMP 20 ONES          2997  1          =           FLAG  FSBSTEMP                DEDICATED TO TEMP FILES
                                    3002  1          =
 00000B 00                          3003  1          =FSBOFLGS   FLAG  ,                       FILE-SYSTEM OPTIONS
 FSBOFLGS.FSBONIXR 80 ONES          3007  1          =           FLAG  FSBONIXR                NON-IXR FILES ALLOWED
 FSBOFLGS.FSBFCACH 40 ONES          3012  1          =           FLAG  FSBFCACHE               Use file block caching
 FSBOFLGS.FSBHCACH 20 ONES          3017  1          =           FLAG  FSBHCACHE               Use hiperspace caching
                                    3022  1          =
 00000C                             3023  1          =FSBFRDB    DS    A                       FIRST RDB FOR FILE-SYSTEM
 000010                             3024  1          =FSBLRDB    DS    A                       LAST RDB FOR FILE-SYSTEM
1FILEBIT  (FILEBI) (09:38) (22MAR04) ORVYL'S File Block Manager                                                             Page   27
0Current Usings:  (PZERO,R0)
0Loc    Object Code    Addr1 Addr2  Stmt Lv Lineno    Source Statement           (Hibal 5, Asmedit 3.3)  HLASM R4.0  2004/03/22 09.38
+___    ______ ____    _____ _____  ____ __ ______    ______ _________
0000014                             3025  1          =FSBDDN     DS    CL4                     DDNAME
 000018                             3026  1          =FSBNAME    DS    CL8                     FILE-SYSTEM NAME
 000020 C7C74BE4E4E4                3027  1          =FSBOWNER   DC    CL6'GG.UUU'             FILE-SYSTEM MASTER ACCOUNT
                                    3028  1          =
 000026                             3029  1          =           DS    XL2                     Spare
                                    3030  1          =
 000028                             3031  1          =FSBCGRI    DS    A                       Catalog general resource id
 00002C                             3032  1          =FSBRBT     DS    A                       Read Buffer Table Pointer
 000030                             3033  1          =FSBCACHE   DS    A                       Cache table pointer
 000034                             3034  1          =FSBCACHS   DS    A                       System cache table pointer
 000038                             3035  1          =           DS    A                       Spare
 00003C                             3036  1          =FSBAHFB    DS    A                       File attached hash table
 000040                             3037  1          =FSBIOP     DS    A                       File IO parm buffers
                                    3038  1          =*
                                    3039  1          =*  CATALOG MANAGEMENT AREA
                                    3040  1          =*
 000044                             3041  1          =FSBCATSB   DS    A                       CATALOGUE START BLOCK
 000048                             3042  1          =FSBCATBC   DS    A                       CATALOGUE BLOCK COUNT
                                    3043  1          =*SBBMALO DS    A   ** MOVE TO STATS ** ALLOCATION REQUESTS
                                    3044  1          =*SBBMALS DS    A   ** MOVE TO STATS ** ALLOCATION NOT CACHED
                                    3045  1          =*SBBMFRE DS    A   ** MOVE TO STATS ** BITMAP RELEASES
                                    3046  1          =*SBBMFRS DS    A   ** MOVE TO STATS ** BITMAP RELEASES - TO SYS
 00004C                             3047  1          =           DS    4A                      Available
                                    3048  1          =CFSBBL     EQU   4                       FSB BLOCK PTR LEN
                                    3049  1          =CFSBPL     EQU   8,8,C'N'                FSB POINTER LEN (BLOCK + ADDR)
                                    3050  1          =CFSBBUF    EQU   8,8,C'N'                8 CAT BLOCK BUFFERS ALLOWED
 00005C                             3051  1          =FSBBLKTOP   DS   A                       POINTS TO LAST BUFFER SLOT
 000060                             3052  1          =FSBCHKA    DS    A                       CHECK POINT BUFFER ADDRESS
 000064                             3053  1          =FSBROOTB   DS    A                       BLOCK NUMBER IN ROOT BUFFER
 000068                             3054  1          =FSBROOTA   DS    A                       | ADDRESS OF ROOT BUFFER
 00006C                             3055  1          =FSBBLK1    DS    A                       BLOCK NUMBER IN 1ST BUFFER
 000070                             3056  1          =FSBBUF1    DS    A                       | ADDRESS OF 1ST BUFFER
                                    3057  1          =&BUFLEN    SETA  (L'CFSBBUF-1)*L'CFSBPL
                                    3058  1          =           DS    &BUFLEN.X               | LEN OF REMAINING BUF SLOTS
 000074                                   1          +           DS    56X                     | LEN OF REMAINING BUF SLOTS
                                    3059  1          =*
                                    3060  1          =*  Catalog Balancing Parameters
                                    3061  1          =*
 0000AC                             3062  1          =FSBBALST   DS    0X
 0000AC                             3063  1          =FSBDSZ     DS    Y                       Size of disk block
 0000AE                             3064  1          =FSBDAVA    DS    Y                       Available space per block
 0000B0                             3065  1          =FSBDTAGX   DS    Y                       Offset of end tag in block
 0000B2                             3066  1          =FSBNALEN   DS    Y                       Account: Length of node
 0000B4                             3067  1          =FSBNASPA   DS    Y                       | Free space in node
 0000B6                             3068  1          =FSBTAXLN   DS    Y                       | Maximum length of entry
 0000B8                             3069  1          =FSBNAMXL   DS    Y                       | Max len of entry in node
 0000BA                             3070  1          =FSBNAXSP   DS    Y                       | Max free space per node
 0000BC                             3071  1          =FSBNANSP   DS    Y                       | Min free space per node
 0000BE                             3072  1          =FSBNFLEN   DS    Y                       File: Length of node
 0000C0                             3073  1          =FSBNFSPA   DS    Y                       | Free space in node
 0000C2                             3074  1          =FSBTFXLN   DS    Y                       | Maximum length of entry
 0000C4                             3075  1          =FSBNFMXL   DS    Y                       | Max len of entry in node
 0000C6                             3076  1          =FSBNFXSP   DS    Y                       | Max free space per node
 0000C8                             3077  1          =FSBNFNSP   DS    Y                       | Min free space per node
1FILEBIT  (FILEBI) (09:38) (22MAR04) ORVYL'S File Block Manager                                                             Page   28
0Current Usings:  (PZERO,R0)
0Loc    Object Code    Addr1 Addr2  Stmt Lv Lineno    Source Statement           (Hibal 5, Asmedit 3.3)  HLASM R4.0  2004/03/22 09.38
+___    ______ ____    _____ _____  ____ __ ______    ______ _________
00000CA                             3078  1          =FSBTXXLN   DS    Y                       Max len of extended data entry
 0000CC                             3079  1          =FSBLOGFR   DS    Y                       Minimum logical block count
 0000CE                             3080  1          =FSBMNFRE   DS    Y                       Min num of free blks in Cat
                                    3081  1          =FSBBALLN   EQU   *-FSBBALST
                                    3082  1          =*
                                    3083  1          =*  BITMAP MANAGEMENT AREA
                                    3084  1          =*
 0000D0                             3085  1          =FSBBMCNO   DS    Y                       SPECIFIED CNT BLK# IN AVAIL LIST
 0000D4                             3086  1          =FSBBITSB   DS    A                       BIT MAP FIRST BLOCK
 0000D8                             3087  1          =FSBBITBC   DS    A                       BIT MAP BLOCK COUNT
 0000DC                             3088  1          =FSBABLK    DS    A                       NUMBER OF AVAILABLE BLOCKS
 0000E0                             3089  1          =FSBTBLK    DS    A                       TOTAL NUMBER OF BLOCKS
 0000E4                             3090  1          =FSBDBLK    DS    A                       DEFAULT BLOCK ALLOCATION
 0000E8                             3091  1          =FSBABNL    DS    A                       AVAILABLE BLOCK NUMBER LIST
                                    3092  1          =
 0000EC                             3093  1          =FSBSMF     DS    2A                      SMF STATISTICS WORK AREA
 0000F4                             3094  1          =FSBSTATS   DS    0X
 0000F4                             3095  1          =FSBCTRD    DS    F                       CATALOG READ COUNTER
 0000F8                             3096  1          =FSBCTRRD   DS    F                       CATALOG ROOT "READ" COUNTER
 0000FC                             3097  1          =FSBCTCRD   DS    F                       CATALOG CASHED READ COUNTER
 000100                             3098  1          =FSBCTBRD   DS    F                       CATALOG BALANCE READ COUNTER
 000104                             3099  1          =FSBCTWR    DS    F                       CATALOG WRITE COUNTER
 000108                             3100  1          =FSBCTIWR   DS    F                       CATALOG INTENTIONS WRITE CNT
 00010C                             3101  1          =FSBCTBWR   DS    F                       CATALOG BALANCE WRITE COUNTER
 000110                             3102  1          =FSBCTDWR   DS    F                       CATALOG DOUBLE WRITE COUNTER
                                    3103  1          =*
                                    3104  1          =*  Total IO's and IO time
                                    3105  1          =*
 000114                             3106  1          =FSBIOCT    DS    F                   Total I/O count
 000118                             3107  1          =FSBIOTIM   DS    D                   Total I/O time
                                    3108  1          =
 000120                             3109  1          =FSBCAT4K   DS    F                   Cat io 4K buffer (2K file sys only)
                                    3110  1          =
 000124                             3111  1          =CTFILATT   DS    F                   Number of files attached
 000128                             3112  1          =CTFILATM   DS    F                   | max number attached
 00012C                             3113  1          =CTFILAUS   DS    F                   Number of user attaches
 000130                             3114  1          =CTFILAUM   DS    F                   | max number of user attaches
 000134                             3115  1          =CTFILATP   DS    F                   Number of temp files attached
 000138                             3116  1          =CTFILAPM   DS    F                   | max number of temp files attached
000013C                             3118  1          =           DS    F                   Spare
                                    3119  1          =*
                                    3120  1          =* Note: don't modify the following counters in any way unless
                                    3121  1          =*       FILECB and the routine FDOIODO are also modified.
                                    3122  1          =*
                                    3123  1          =*  File read counts from disk
                                    3124  1          =*
 000140                             3125  1          =FSBFIOCT   DS    0D                  First IO count
 000140                             3126  1          =CTREADCT   DS    0D
 000140                             3127  1          =CTMASRCT   DS    D                   Master - read counts
 000148                             3128  1          =CTCATRCT   DS    D                   Catalog - read counts
 000150                             3129  1          =CTBITRCT   DS    D                   Bitmap - read counts
 000158                             3130  1          =CTIXRRCT   DS    D                   IXR - read counts
 000160                             3131  1          =CTUSERCT   DS    D                   User  - read counts
1FILEBIT  (FILEBI) (09:38) (22MAR04) ORVYL'S File Block Manager                                                             Page   29
0Current Usings:  (PZERO,R0)
0Loc    Object Code    Addr1 Addr2  Stmt Lv Lineno    Source Statement           (Hibal 5, Asmedit 3.3)  HLASM R4.0  2004/03/22 09.38
+___    ______ ____    _____ _____  ____ __ ______    ______ _________
0000168                             3132  1          =CTOTHRCT   DS    D                   Other?? - read counts
                                    3133  1          =*
                                    3134  1          =* Counter indexes - All counters are referenced with the
                                    3135  1          =* generic label and using one of the following indexes.
                                    3136  1          =*
                                    3137  1          =CTMASD     EQU   CTMASRCT-CTREADCT
                                    3138  1          =CTCATD     EQU   CTCATRCT-CTREADCT
                                    3139  1          =CTBITD     EQU   CTBITRCT-CTREADCT
                                    3140  1          =CTIXRD     EQU   CTIXRRCT-CTREADCT
                                    3141  1          =CTUSED     EQU   CTUSERCT-CTREADCT
                                    3142  1          =CTOTHD     EQU   CTOTHRCT-CTREADCT
                                    3143  1          =*
                                    3144  1          =*  File write counts
                                    3145  1          =*
 000170                             3146  1          =CTWRITCT   DS    0D
 000170                             3147  1          =CTMASWCT   DS    D                   Master - writes
 000178                             3148  1          =CTCATWCT   DS    D                   Catalog - writes
 000180                             3149  1          =CTBITWCT   DS    D                   Bitmap -  writes
 000188                             3150  1          =CTIXRWCT   DS    D                   IXR - writes
 000190                             3151  1          =CTUSEWCT   DS    D                   User -  writes
 000198                             3152  1          =CTOTHWCT   DS    D                   Other?? - writes
                                    3153  1          =FSBFIOCN   EQU   (*-FSBFIOCT)/L'FSBFIOCT
                                    3154  1          =*
                                    3155  1          =*  File read counts from cache
                                    3156  1          =*
 0001A0                             3157  1          =FSBFCACT   DS    0D                  First cache count
 0001A0                             3158  1          =CTCACHCT   DS    0D
 0001A0                             3159  1          =CTMASCCT   DS    D                   Master - read counts
 0001A8                             3160  1          =CTCATCCT   DS    D                   Catalog - read counts
 0001B0                             3161  1          =CTBITCCT   DS    D                   Bitmap - read counts
 0001B8                             3162  1          =CTIXRCCT   DS    D                   IXR - read counts
 0001C0                             3163  1          =CTUSECCT   DS    D                   User  - read counts
 0001C8                             3164  1          =CTOTHCCT   DS    D                   Other?? - read counts
                                    3165  1          =
                                    3166  1          =CTREADD    EQU   CTREADCT-FSBFIOCT
                                    3167  1          =CTWRITD    EQU   CTWRITCT-FSBFIOCT
                                    3168  1          =CTCACHD    EQU   CTCACHCT-FSBFIOCT
                                    3169  1          =
                                    3170  1          =FSBFCACN   EQU   (*-FSBFCACT)/L'FSBFCACT
                                    3171  1          =CTFILECT   EQU   CTREADCT,*-CTREADCT
                                    3172  1          =CTFILECC   EQU   (*-CTREADCT)/L'CTREADCT
00001D0                             3174  1          =           DS    4A                  Spare
00001E0                001E0 001E0  3176             =         END   ,
1FILEBIT  (FILEBI) (09:38) (22MAR04) ORVYL'S File Block Manager                                                             Page   30
0Current Usings:  (PZERO,R0)
0Loc    Object Code    Addr1 Addr2  Stmt Lv Lineno    Source Statement           (Hibal 5, Asmedit 3.3)  HLASM R4.0  2004/03/22 09.38
+___    ______ ____    _____ _____  ____ __ ______    ______ _________
0                                   3186      26.     * Available block number list
 000000                00000 0005C  3187      27.     ABNL    RECORD BEGIN
0000000 C1C2D5D3                    3196  1   29.     ABNLBID    DC    C'ABNL'
0000004                             3198  1   31.     ABNLGRID   DS    A                   Resource ID
0000008 00                          3200  1   33.     ABNLFLAG   FLAG  ,
 ABNLFLAG.ABNLFCLO 80 ONES          3204  1   34.                FLAG  ABNLFCLO            Bitmap processing is closed
 ABNLFLAG.ABNLFCLR 40 ONES          3209  1   35.                FLAG  ABNLFCLR            Clear bitmap buffer
0000009                             3215  1   37.                DS    CL3                 Spare
 00000C                             3216  1   38.     ABNLBCNT   DS    F                   Count of bit count passes
0                                   3218  1   40.     ABNLW      SHEAD ,                   Tasks waiting for maintenance
 000010                             3219  1 01-02713 +ABNLW      DS   0D                   Single linked CDS list
 000010                             3220  1 01-02714 +ABNLWFP    DS    A                   Forward pointer
 000014                             3221  1 01-02715 +ABNLWSEQ   DS    A                   CDS sequence number
0000018                             3223  1   42.     ABNLTOKN   DS    0D                  PLO lock token
 000018                             3224  1   43.     ABNLCNT    DS    F                   Count of avail blk nos
 00001C                             3225  1   44.     ABNLSEQ    DS    F                   PLO sequence number
0000020                             3227  1   46.     ABNLAVAL   DS    A                   Available block number buffer
 000024                             3228  1   47.     ABNLMCNT   DS    F                   Maximum count that will fit
 000028                             3229  1   48.     ABNLMIN    DS    F                   Min count in block number buffer
 00002C                             3230  1   49.     ABNLMED    DS    F                   Med count in block number buffer
 000030                             3231  1   50.     ABNLMAX    DS    F                   Max count in block number buffer
 000034                             3232  1   51.     ABNLACNT   DS    F                   Blocks available in bitmaps
                                    3233  1   52.     * Note: The above count does not include the count available in
                                    3234  1   53.     * the block number buffer, just what is in the bitmap file.
0000038                             3236  1   55.     ABNLRBUF   DS    A                   Read buffer for bitmaps
 00003C                             3237  1   56.     ABNLBWK    DS    A                   Work area for bitmap maintenance
 000040                             3238  1   57.     ABNLBWKC   DS    F                   Work area slot count
                                    3239  1   58.     * Bitmap that contains the lowest unused block in file
 000044                             3240  1   59.     ABNLLMAP   DS    F                   Used by get some more blocks
 000048                             3241  1   60.     ABNLMMAP   DS    F                   Last bitmap
0                                   3243  1   62.     ABNLXMIN   EQU   64                  Default minimum median
                                    3244  1   63.     ABNLXMAX   EQU   512                 Default maximum median
0                                   3246  1   65.     * When the count of buffered blocks reaches this value, fill
                                    3247  1   66.     * the block number buffer to the median count.
                                    3248  1   67.     ABNLXREF   EQU   48                  When to get more blocks
                                    3249  1   68.     * When the count of buffered blocks reaches median amount plus
                                    3250  1   69.     * this value, release the extra blocks back to the bitmaps.
                                    3251  1   70.     ABNLXEMP   EQU   64                  When to put some blocks back
0                                   3253  1   72.     ABNLXOVR   EQU   256                 Overflow
000004C                             3255  1   74.     ABNLMREL   DS    F                   Count of release extra maints
 000050                             3256  1   75.     ABNLMGET   DS    F                   Count of get more maints
 000054                             3257  1   76.     ABNLTREL   DS    F                   Total blocks released to this list
1FILEBIT  (FILEBI) (09:38) (22MAR04) ORVYL'S File Block Manager                                                             Page   31
0Current Usings:  (PZERO,R0)
0Loc    Object Code    Addr1 Addr2  Stmt Lv Lineno    Source Statement           (Hibal 5, Asmedit 3.3)  HLASM R4.0  2004/03/22 09.38
+___    ______ ____    _____ _____  ____ __ ______    ______ _________
0000058                             3258  1   77.     ABNLTGET   DS    F                   Total blocks dispensed from list
000005C                0005C 0005C  3260      79.              END   ,
 000015                00000 01C80  3269      80.     FILEBIT  CSECT ,
1FILEBIT  (FILEBI) (09:38) (22MAR04) ORVYL'S File Block Manager                                                             Page   32
0Current Usings:  (PZERO,R0)
0Loc    Object Code    Addr1 Addr2  Stmt Lv Lineno    Source Statement           (Hibal 5, Asmedit 3.3)  HLASM R4.0  2004/03/22 09.38
+___    ______ ____    _____ _____  ____ __ ______    ______ _________
0                                   3272      82.     *---------------------------------------------------------------------*
                                    3273      83.     *  FBITINIT - Initialize bitmap control
                                    3274      84.     *
                                    3275      85.     *   Inputs - @FMFSB
                                    3276      86.     *
                                    3277      87.     *   Output - None
                                    3278      88.     *
                                    3279      89.     *---------------------------------------------------------------------*
 000016                             3280      90.     FBITINIT PROC  @FMFSB,SCOPE=GLOBAL
 000016 C6C2C9E3C9D5C9E3            3286             +
 00001E 0008/0000                   3287             +
 000022 900F D004/18AF       00004  3289             +
 USING  FBITINIT,R10
 000028 50D0 C000/18CD       00000  3304             +
 00002E 9680 C000      00000        3306             +
 USING  @FMFSB-72,R12
 000032 41D0 C050            00050  3320             +
 USING  FSB,R3                      3321      91.              WITH  (FSB,RB)
 USING  ABNL,R2                     3334      92.              WITH  (ABNL,RA)
 000036 5830 C048            00000  3347      93.              L     RB,@FMFSBP          Point to the FSB
 USING  @VMGET-72,R13               3348      94.              VMGET L'ABNL,LOC=GLOBHI,FIX=YES
 00003A D70A D048 D048 00000 00000  3372             +
 000040 4100 005C            0005C  3384             +
 000044 5000 D048            00000  3389             +
 000048 D201 D050 A372 00008 00394  3390             +
 00004E 58F0 A33E/0DEF       00360  3393             +
 000054 1220/4770 A068       0008A  3395      95.              IF    ('LTR RA,RVR',Z),'ABORT NOABNLMEM'
 00005A AC04 021B      0021B        3412  1          +
 00005E 9680 021A      0021A        3418  1          +
 000062 50F0 021C            0021C  3419  1          +
 000066 58F0 0210            00210  3420  1          +
 00006A 89F0 0010            00010  3421  1          +
 00006E 88F0 0010            00010  3422  1          +
 000072 41F0 F000            00000  3423  1          +
 000076 AEFF 0006            00006  3424  1          +
 00007A D5D6C1C2D5D3D4C5            3425             +
 00008A 5000 30E8            000E8  3430      96.              ST    RVR,FSBABNL         Set avail block num list
 00008E                             3431      97.              CLEAR ABNL                Clear
 00008E D75B 2000 2000 00000 00000  3437             +
 000094 D203 2000 A342 00000 00364  3438      98.              MVC   ABNLBID,=C'ABNL'
 DROP   @VMGET-72,R13               3439      99.              GRCRE CID=(RA)            Create a general resource
 USING  @GRES-72,R13
 00009A D708 D048 D048 00000 00000  3460             +
 0000A0 5020 D048            00000  3470             +
 0000A4 58F0 A346/0DEF       00368  3473             +
 0000AA 5000 2004            00004  3475     100.              ST    RVR,ABNLGRID
00000AE 4810 30D0            000D0  3477     102.              LH    RS,FSBBMCNO         Get specified buffer amount
 0000B2 5910 A34A            0036C  3478     103.              FLOOR RS,ABNLXMIN         Minimum amount to buffer
 0000B6 47B0 A09C            000BE  3487             +
 0000BA 5810 A34A            0036C  3492             +
 0000BE 5910 A34E            00370  3497     104.              CEIL  RS,ABNLXMAX         Maximum amount to buffer
 0000C2 47D0 A0A8            000CA  3506             +
 0000C6 5810 A34E            00370  3511             +
1FILEBIT  (FILEBI) (09:38) (22MAR04) ORVYL'S File Block Manager                                                             Page   33
0Current Usings:  (PZERO,R0) (ABNL,R2) (FSB,R3) (FBITINIT,R10) (@FMFSB-72,R12) (@GRES-72,R13)
0Loc    Object Code    Addr1 Addr2  Stmt Lv Lineno    Source Statement           (Hibal 5, Asmedit 3.3)  HLASM R4.0  2004/03/22 09.38
+___    ______ ____    _____ _____  ____ __ ______    ______ _________
00000CA 5010 202C            0002C  3516     105.              ST    RS,ABNLMED          Set median amount
 0000CE 4A10 A374            00396  3517     106.              AH    RS,=Y(ABNLXEMP)     Calc maximum amount
 0000D2 5010 2030            00030  3518     107.              ST    RS,ABNLMAX
 0000D6 D203 2028 A352 00028 00374  3519     108.              MVC   ABNLMIN,=A(ABNLXREF) Refill count
 0000DC 5A10 A356            00378  3520     109.              A     RS,=A(ABNLXOVR)     Allow some overflow
 0000E0 5010 2024            00024  3521     110.              ST    RS,ABNLMCNT         Set maximum count
 0000E4 8910 0002            00002  3522     111.              SLL   RS,2                Each is four bytes long
 DROP   @GRES-72,R13                3523     112.              VMGET (RS),LOC=GLOBHI,FIX=YES
 USING  @VMGET-72,R13
 0000E8 D70A D048 D048 00000 00000  3550             +
 0000EE 5010 D048            00000  3560             +
 0000F2 D201 D050 A372 00008 00394  3561             +
 0000F8 58F0 A33E/0DEF       00360  3564             +
 0000FE 1200/4770 A112       00134  3566     113.              IF    (RVR,Z),'ABORT NOBITMAPAVAILMEM'
 000104 AC04 021B      0021B        3584  1          +
 000108 9680 021A      0021A        3590  1          +
 00010C 50F0 021C            0021C  3591  1          +
 000110 58F0 0210            00210  3592  1          +
 000114 89F0 0010            00010  3593  1          +
 000118 88F0 0010            00010  3594  1          +
 00011C 41F0 F000            00000  3595  1          +
 000120 AEFF 0006            00006  3596  1          +
 000124 D5D6C2C9E3D4C1D7            3597             +
 000134 5000 2020            00020  3602     114.              ST    RVR,ABNLAVAL        Avail block number buffer
 000138 1BFF                        3603     115.              CLEAR R15
 00013A 0E0E                        3607     116.              MVCL  RVR,R14
 00013C 5810 A35A            0037C  3608     117.              L     RS,=A(4096)
 000140                             3609     118.              VMGET (RS),LOC=GLOBHI,FIX=YES,PAGE=YES
 000140 D70A D048 D048 00000 00000  3626             +
 000146 5010 D048            00000  3636             +
 00014A D201 D050 A372 00008 00394  3637             +
 000150 9680 D052      0000A        3643             +
 000154 58F0 A33E/0DEF       00360  3646             +
 00015A 1200/4770 A16E       00190  3648     119.              IF    (RVR,Z),'ABORT NOBITMAPBUFFMEM'
 000160 AC04 021B      0021B        3666  1          +
 000164 9680 021A      0021A        3672  1          +
 000168 50F0 021C            0021C  3673  1          +
 00016C 58F0 0210            00210  3674  1          +
 000170 89F0 0010            00010  3675  1          +
 000174 88F0 0010            00010  3676  1          +
 000178 41F0 F000            00000  3677  1          +
 00017C AEFF 0006            00006  3678  1          +
 000180 D5D6C2C9E3D4C1D7            3679             +
 000190 5000 2038            00038  3684     120.              ST    RVR,ABNLRBUF        Read buffer
 000194 1BFF                        3685     121.              CLEAR R15
 000196 0E0E                        3689     122.              MVCL  RVR,R14
0000198 5810 2024            00024  3691     124.              L     RS,ABNLMCNT         This should be enough
 00019C 5010 2040            00040  3692     125.              ST    RS,ABNLBWKC         Save wk area slot count
 0001A0 8910 0002            00002  3693     126.              SLL   RS,2                Four bytes long
 0001A4                             3694     127.              VMGET (RS),LOC=GLOBHI,FIX=YES Get a work area
 0001A4 D70A D048 D048 00000 00000  3711             +
 0001AA 5010 D048            00000  3721             +
 0001AE D201 D050 A372 00008 00394  3722             +
1FILEBIT  (FILEBI) (09:38) (22MAR04) ORVYL'S File Block Manager                                                             Page   34
0Current Usings:  (PZERO,R0) (ABNL,R2) (FSB,R3) (FBITINIT,R10) (@FMFSB-72,R12) (@VMGET-72,R13)
0Loc    Object Code    Addr1 Addr2  Stmt Lv Lineno    Source Statement           (Hibal 5, Asmedit 3.3)  HLASM R4.0  2004/03/22 09.38
+___    ______ ____    _____ _____  ____ __ ______    ______ _________
00001B4 58F0 A33E/0DEF       00360  3725             +
 0001BA 1200/4770 A1CE       001F0  3727     128.              IF    (RVR,Z),'ABORT NOBITMAPWORKMEM'
 0001C0 AC04 021B      0021B        3745  1          +
 0001C4 9680 021A      0021A        3751  1          +
 0001C8 50F0 021C            0021C  3752  1          +
 0001CC 58F0 0210            00210  3753  1          +
 0001D0 89F0 0010            00010  3754  1          +
 0001D4 88F0 0010            00010  3755  1          +
 0001D8 41F0 F000            00000  3756  1          +
 0001DC AEFF 0006            00006  3757  1          +
 0001E0 D5D6C2C9E3D4C1D7            3758             +
 0001F0 5000 203C            0003C  3763     129.              ST    RVR,ABNLBWK         Save
 0001F4 1BFF                        3764     130.              CLEAR R15
 0001F6 0E0E                        3768     131.              MVCL  RVR,R14
00001F8 4100 3000            00000  3770     133.              LA    RVR,FSB             Point to the FSB
 0001FC 58F0 A35E/0DEF       00380  3771     134.              ACALL FBITCNT             Count the available blocks
0000202 1B00                        3779     136.              CLEAR RVR
 000204 981F C008            00008  3783     137.              PEND  ,
 DROP   ABNL,R2
 DROP   FSB,R3
 DROP   @FMFSB-72,R12
 DROP   FBITINIT,R10
 000208 9680 C000/0B0E 00000        3808             +
 DROP   @VMGET-72,R13
1FILEBIT  (FILEBI) (09:38) (22MAR04) ORVYL'S File Block Manager                                                             Page   35
0Current Usings:  (PZERO,R0)
0Loc    Object Code    Addr1 Addr2  Stmt Lv Lineno    Source Statement           (Hibal 5, Asmedit 3.3)  HLASM R4.0  2004/03/22 09.38
+___    ______ ____    _____ _____  ____ __ ______    ______ _________
0                                   3818     139.     *---------------------------------------------------------------------*
                                    3819     140.     *  FBITCNT - Count available blocks in file system
                                    3820     141.     *
                                    3821     142.     *   Inputs - RVR contains FSB address
                                    3822     143.     *
                                    3823     144.     *   Output - None
                                    3824     145.     *
                                    3825     146.     *---------------------------------------------------------------------*
 00020E                             3826     147.     FBITCNT  PROC  ,
 00020E C6C2C9E3C3D5E340            3833             +
 000216 0000/0000                   3834             +
 00021A 900F D004/18AF       00004  3836             +
 USING  FBITCNT,R10
 000220 50D0 C000/18CD       00000  3851             +
 000226 9680 C000      00000        3853             +
 00022A 41D0 C048            00048  3854             +
 USING  FSB,R3                      3855     148.              WITH  (FSB,RB)
 USING  ABNL,R2                     3868     149.              WITH  (ABNL,RA)
 00022E 1830                        3881     150.              LR    RB,RVR              Point to the FSB
 000230 5820 30E8            000E8  3882     151.              L     RA,FSBABNL          Point to ABNL
 000234 41F0 0001            00001  3883     152.              INCR  R15,ABNLBCNT        Count this iteration
 000238 5EF0 200C            0000C  3887             +
 00023C 50F0 200C            0000C  3888             +
0000240 1B66                        3890     154.              CLEAR RX                  First relative bitmap block number
 000242 5870 30E0            000E0  3894     155.              L     RY,FSBTBLK          Total count of blocks
 000246 4170 7007            00007  3895     156.              LA    RY,@RY+7            Need a byte for extra bits
                                    3896     157.     * Note: We will count all the bits in any extra byte and subtract
                                    3897     158.     * any overcount at the end.
 00024A 8870 0003            00003  3898     159.              SRL   RY,3                Calc total bytes of bits
 00024E 18F7                        3899     160.              LR    R15,RY              Get total bytes of bits
 000250 1BEE                        3900     161.              CLEAR R14
 000252 4800 30AC            000AC  3904     162.              LH    R0,FSBDSZ           Size of a block
 000256 1DE0                        3905     163.              DR    R14,R0              Calc number of blocks
 000258 180F                        3906     164.              LR    R0,R15
 00025A 12EE/4770 A048       00262  3907     165.              IF    (R14,Z),'DECR R0'   Even amount!
 000260 0600                        3923             +
 000262 5000 2048            00048  3928     166.              ST    R0,ABNLMMAP         Save maximum bitmap
 000266 12EE/4780 A056       00270  3929     167.              IF    (R14,NZ),'INCR R15' Need a block for any extras too
 00026C 5EF0 A16A            00384  3946             +
 000270 59F0 30D8            000D8  3951     168.              IF    (R15,GT,FSBBITBC),'ABORT MOREBITSTHANMAPS'
 000274 47D0 A08E            002A8  3963             +
 000278 AC04 021B      0021B        3972  1          +
 00027C 9680 021A      0021A        3978  1          +
 000280 50F0 021C            0021C  3979  1          +
 000284 58F0 0210            00210  3980  1          +
 000288 89F0 0010            00010  3981  1          +
 00028C 88F0 0010            00010  3982  1          +
 000290 41F0 F000            00000  3983  1          +
 000294 AEFF 0006            00006  3984  1          +
 000298 D4D6D9C5C2C9E3E2            3985             +
 0002A8 5840 A16E            00388  3990     169.              L     RJ,=A(BITCNT)       Bit counting table
 0002AC 1B99                        3991     170.              CLEAR RN                  Avail block count
 0002AE 9680 2044      00044        3995     171.              OI    ABNLLMAP,X'80'      Indicate not set
1FILEBIT  (FILEBI) (09:38) (22MAR04) ORVYL'S File Block Manager                                                             Page   36
0Current Usings:  (PZERO,R0) (ABNL,R2) (FSB,R3) (FBITCNT,R10) (@FDOIODO-72,R13)
0Loc    Object Code    Addr1 Addr2  Stmt Lv Lineno    Source Statement           (Hibal 5, Asmedit 3.3)  HLASM R4.0  2004/03/22 09.38
+___    ______ ____    _____ _____  ____ __ ______    ______ _________
0USING  @FDOIODO-72,R13             3996     172.              PSET  @FDOIODO            Common IO parm area
 0002B2 D70F D048 D048 00000 00000  4013             +
 0002B8 9680 D057      0000F        4014     173.              SET   @FDOFR              Read bitmap
 0002BC 9604 D057      0000F        4020     174.              SET   @FDODISK            Don't read from cache
 0002C0 5030 D048            00000  4026     175.              PMOV  @FDOFSB,LA:FSB      FSB pointer
 0002C4                             4037     176.              PMOV  @FDODATA,ABNLRBUF   Use our buffer
 0002C4 D203 D050 2038 00008 00038  4041             +
 0002CA                             4042     177.              PMOV  @FDODATL,FSBDSZ
 0002CA D201 D054 30AC 0000C 000AC  4046             +
0                                   4048     179.     * Read all bitmaps and count avail blocks
 0002D0 1277/4780 A116       00330  4049     180.              WHILE (RY,NZ),BEGIN       While more bytes to examine
 0002D6 18F6                        4065  1  181.                LR    R15,RX              Get relative bitmap block number
 0002D8 5AF0 30D4            000D4  4066  1  182.                A     R15,FSBBITSB        Calc real file sys block number
 0002DC 50F0 D04C            00004  4067  1  183.                PMOV  @FDOBLK,(R15)       Set block number
 0002E0 58F0 A172/0DEF       0038C  4077  1  184.                VCALL FDOIODO             Get the bitmap block
 0002E6 58E0 D050            00008  4081  1  185.                L     R14,@FDODATA        Point to the bitmap
 0002EA 48F0 D054            0000C  4082  1  186.                LH    R15,@FDODATL        Length of bitmap
 0002EE 19F7/47D0 A0DE       002F8  4083  1  187.                IF    (R15,GT,RY),BEGIN   Almost done?
 0002F4 18F7                        4098  2  188.                  LR    R15,RY              Only this many bytes
 0002F6 1B77                        4099  2  189.                  CLEAR RY                  None left to count after this
 0002F8                             4103  1  190.                END   ,
 0002F8 A0E2           002F8 002F2  4107  1  191.                ELSE  'SR RY,R15'         Decrement bytes to examine
 0002F8 47F0 A0E4/1B7F       002FE  4112  1          +
 0002FE 5810 A176            00390  4124  1  192.                L     R1,=X'FF000000'     Compare with not available
 000302 0FE0/4780 A10E       00328  4125  1  193.                IF    ('CLCL R14,R0',NZ),BEGIN Find the first avail bits
 000308 9180 2044      00044        4138  2  194.                  IF    ('TM ABNLLMAP,X"80"',O),'ST RX,ABNLLMAP' Clue for maint
 00030C 47E0 A0FA            00314  4146  2          +
 000310 5060 2044            00044  4152  2          +
 000314                             4157  2  195.                  LOOP  BEGIN
 000314 1F88/4380 E000       00000  4163  3  196.                    LC    RM,@R14             Get the byte
 00031A 4388 4000            00000  4170  3  197.                    IC    RM,@RJ(RM)          Get count avail this byte from tab
 00031E 1A98                        4171  3  198.                    AR    RN,RM               Add to the total
 000320 41E0 E001            00001  4172  3  199.                    LA    R14,@R14+1          Point to the next byte
 000324 46F0 A0FA            00314  4173  2  200.                  UNTIL (BCT,R15),END
 000328                             4183  1  201.                END   ,                   End if
 000328 5E60 A16A            00384  4187  1  202.                INCR  RX                  Check next block
 00032C 47F0 A0B6            002D0  4190     203.              END   ,                   End while more bytes
0000330 4100 0008            00008  4196     205.              LA    R0,8                Count of bits per byte
 000334 1BEE                        4197     206.              CLEAR R14
 000336 58F0 30E0            000E0  4201     207.              L     R15,FSBTBLK         Total count of blocks
 00033A 1DE0                        4202     208.              DR    R14,R0              Remainder is count in last byte
 00033C 12EE/4780 A12C       00346  4203     209.              IF    (R14,NZ),BEGIN      If there are any
 000342 1B0E                        4217  1  210.                SR    R0,R14              Calculate overcount
 000344 1B90                        4218  1  211.                SR    RN,R0               Don't count them
 000346                             4219     212.              END   ,
0000346 5090 30DC            000DC  4224     214.              ST    RN,FSBABLK          Set available count
 00034A 5090 2034            00034  4225     215.              ST    RN,ABNLACNT         Set this one also
000034E 1B00                        4227     217.              CLEAR RVR
 000350 981F C008            00008  4231     218.              PEND  ,
 DROP   ABNL,R2
1FILEBIT  (FILEBI) (09:38) (22MAR04) ORVYL'S File Block Manager                                                             Page   37
0Current Usings:  (PZERO,R0) (@FDOIODO-72,R13)
0Loc    Object Code    Addr1 Addr2  Stmt Lv Lineno    Source Statement           (Hibal 5, Asmedit 3.3)  HLASM R4.0  2004/03/22 09.38
+___    ______ ____    _____ _____  ____ __ ______    ______ _________
0DROP   FSB,R3
 DROP   FBITCNT,R10
 000354 9680 C000/0B0E 00000        4251             +
 DROP   @FDOIODO-72,R13
 000360                             4260     219.              LTORG ,
 000360 00000000                    4262                             =V(VMGET)
 000364 C1C2D5D3                    4263                             =C'ABNL'
 000368 00000000                    4264                             =V(GRCRE)
 00036C 00000040                    4265                             =A(ABNLXMIN)
 000370 00000200                    4266                             =A(ABNLXMAX)
 000374 00000030                    4267                             =A(ABNLXREF)
 000378 00000100                    4268                             =A(ABNLXOVR)
 00037C 00001000                    4269                             =A(4096)
 000380 0000021A                    4270                             =A(FBITCNT)
 000384 00000001                    4271                             =A(1)
 000388 00001B12                    4272                             =A(BITCNT)
 00038C 00000000                    4273                             =V(FDOIODO)
 000390 FF000000                    4274                             =X'FF000000'
 000394 3F00                        4275                             =Y(63*256+0)
 000396 0040           00398 01C80  4276                             =Y(ABNLXEMP)
1FILEBIT  (FILEBI) (09:38) (22MAR04) ORVYL'S File Block Manager                                                             Page   38
0Current Usings:  (PZERO,R0)
0Loc    Object Code    Addr1 Addr2  Stmt Lv Lineno    Source Statement           (Hibal 5, Asmedit 3.3)  HLASM R4.0  2004/03/22 09.38
+___    ______ ____    _____ _____  ____ __ ______    ______ _________
0000000                00000 00090  4281     221.     #FBITPLO RECORD BEGIN
 000000                             4289  1  222.                DS    XL(4*36)            PLO parm list
 000090                00090 00090  4290     223.              END   ,
0                                   4300     225.     *---------------------------------------------------------------------*
                                    4301     226.     *  FBITGET - Get an available block number
                                    4302     227.     *
                                    4303     228.     *   Inputs - @FMFSB
                                    4304     229.     *
                                    4305     230.     *   Output - Block number in RVR (RVR is zero if none left to get)
                                    4306     231.     *
                                    4307     232.     *---------------------------------------------------------------------*
 000398                             4308     233.     FBITGET  PROC  @FMFSB,#FBITPLO,SCOPE=GLOBAL
 000398 C6C2C9E3C7C5E340            4314             +
 0003A0 0008/0090                   4315             +
 0003A4 900F D004/18AF       00004  4317             +
 USING  FBITGET,R10
 0003AA 50D0 C000/18CD       00000  4332             +
 0003B0 9680 C000      00000        4334             +
 USING  @FMFSB-72,R12
 AUSING (#FBITPLO,@FMFSB+8)
 0003B4 41D0 C0E0            000E0  4353             +
 USING  FSB,R3                      4354     234.              WITH  (FSB,RB)
 USING  ABNL,R2                     4367     235.              WITH  (ABNL,RA)
 0003B8 5830 C048            00000  4380     236.              L     RB,@FMFSBP          Point to the FSB
 0003BC 5820 30E8            000E8  4381     237.              L     RA,FSBABNL          Point to the ABNL
00003C0                             4383     239.              CLEAR #FBITPLO            Clear PLO parameter list
 0003C0 D78F C050 C050 00000 00000  4389             +
00003C6                             4391     241.              LOOP  BEGIN
                                    4397  1  242.     * If the process is closed, don't refresh the buffer, just give
                                    4398  1  243.     * out all that are remaining.
 0003C6 58F0 2018            00018  4399  1  244.                L     R15,ABNLCNT         Get current buffered block count
 0003CA 9180 2008      00008        4400  1  245.                IF    ABNLFCLO,BEGIN      Process closed
 0003CE 47E0 A03A            003DE  4410  1          +
 0003D2 1B00                        4415  2  246.                  CLEAR RVR                 Init return block number
 0003D4 12FF/4770 A03A       003DE  4419  2  247.                  IF    (R15,Z),'EXIT FBITGET' No blocks left
 0003DA 47F0 A10C            004B0  4436  2          +
 0003DE                             4441  1  248.                END   ,
 0003DE A03E           003DE 003D0  4445  1  249.                ELSE  BEGIN               Process not closed
 0003DE 47F0 A054            003F8  4450  1          +
 0003E2 9180 C04C      00004        4456  2  250.                  IF    (~@FMFSBO,AND,(R15,LT,ABNLMIN)),BEGIN
 0003E6 4710 A054            003F8  4468  2          +
 0003EA 59F0 2028            00028  4481  2          +
 0003EE 47B0 A054            003F8  4482  2          +
 0003F2 58F0 A674/0DEF       00A18  4487  3  251.                    ACALL FBITMANG            Maintenance time
 0003F8                             4494  2  252.                  END   ,
 0003F8                             4498  1  253.                END   ,                   Process not closed
 0003F8 1B00                        4502  1  254.                CLEAR RVR                 Init return block number
 0003FA 58F0 30DC/12FF       000DC  4506  1  255.                IF    ('LT R15,FSBABLK',Z),'EXIT FBITGET'
 000400 4770 A064            00408  4517  1          +
 000404 47F0 A10C            004B0  4525  1          +
 000408 4100 0010            00010  4530  1  256.                LA    R0,16               Compare and Swap and Double store
1FILEBIT  (FILEBI) (09:38) (22MAR04) ORVYL'S File Block Manager                                                             Page   39
0Current Usings:  (PZERO,R0) (ABNL,R2) (FSB,R3) (FBITGET,R10) (@FMFSB-72,R12)
0Loc    Object Code    Addr1 Addr2  Stmt Lv Lineno    Source Statement           (Hibal 5, Asmedit 3.3)  HLASM R4.0  2004/03/22 09.38
+___    ______ ____    _____ _____  ____ __ ______    ______ _________
000040C 4110 2018            00018  4531  1  257.                LA    R1,ABNLTOKN         PLO lock token
 000410 5860 201C            0001C  4532  1  258.                L     RX,ABNLSEQ          Get the sequence
 000414 4170 6001            00001  4533  1  259.                LA    RY,@RX+1            Increment sequence
 000418 41F0 2018            00018  4534  1  260.                LA    R15,ABNLCNT         Point to count
 00041C 50F0 C09C            0004C  4535  1  261.                ST    R15,#FBITPLO+(4*19) Set address
 000420 58F0 2018/12FF       00018  4536  1  262.                IF    ('LT R15,ABNLCNT',Z),NEXT
 000426 4780 A022            003C6  4549  1          +
 00042A 06F0                        4555  1  263.                DECR  R15                 Decrement
 00042C 50F0 C08C            0003C  4557  1  264.                ST    R15,#FBITPLO+(4*15) Set new count
 000430 89F0 0002            00002  4558  1  265.                SLL   R15,2               Calc disp to last avail block num
 000434 58E0 2020            00020  4559  1  266.                L     R14,ABNLAVAL        Point to block number buffer
 000438 41FF E000            00000  4560  1  267.                LA    R15,@R14(R15)       Point to last avail block num
 00043C 50F0 C0BC            0006C  4561  1  268.                ST    R15,#FBITPLO+(4*27) Set address (replace value is zero)
 000440 5890 F000            00000  4562  1  269.                L     RN,@R15             Get the block number
 000444 EE60 201C C050 0001C 00000  4563  1  270.                PLO   RX,ABNLSEQ,0,#FBITPLO Just do it!
 00044A 4770 A022            003C6  4564     271.              UNTIL Z,END
000044E 1299/4770 A0E0       00484  4584     273.              IF    (RN,Z),'ABORT FBITGET_NO_BLOCK'
 000454 AC04 021B      0021B        4602  1          +
 000458 9680 021A      0021A        4608  1          +
 00045C 50F0 021C            0021C  4609  1          +
 000460 58F0 0210            00210  4610  1          +
 000464 89F0 0010            00010  4611  1          +
 000468 88F0 0010            00010  4612  1          +
 00046C 41F0 F000            00000  4613  1          +
 000470 AEFF 0006            00006  4614  1          +
 000474 C6C2C9E3C7C5E36D            4615             +
0000484 9180 C04C      00004        4621     275.              IF    ~@FMFSBO,BEGIN
 000488 4710 A10A            004AE  4631             +
 00048C 58E0 30DC/18FE       000DC  4636  1  276.                DECRS FSBABLK             One less available block
 000492 06F0/BAEF 30DC       000DC  4646  1          +
 000498 4770 A0EC            00490  4661  1          +
 00049C 58E0 2058/18FE       00058  4667  1  277.                INCRS ABNLTGET            Increment
 0004A2 5EF0 A678            00A1C  4678  2          +
 0004A6 BAEF 2058            00058  4679  1          +
 0004AA 4770 A0FC            004A0  4693  1          +
 0004AE                             4699     278.              END   ,
 0004AE 1809                        4703     279.              LR    RVR,RN              Return block number
 0004B0 981F C008            00008  4704     280.              PEND  ,
 DROP   ABNL,R2
 DROP   FSB,R3
 DROP   @FMFSB-72,R12
 DROP   FBITGET,R10
 0004B4 9680 C000/0B0E 00000        4729             +
1FILEBIT  (FILEBI) (09:38) (22MAR04) ORVYL'S File Block Manager                                                             Page   40
0Current Usings:  (PZERO,R0)
0Loc    Object Code    Addr1 Addr2  Stmt Lv Lineno    Source Statement           (Hibal 5, Asmedit 3.3)  HLASM R4.0  2004/03/22 09.38
+___    ______ ____    _____ _____  ____ __ ______    ______ _________
0                                   4736     282.     *---------------------------------------------------------------------*
                                    4737     283.     *  FBITREL - Release a block number to the available pool
                                    4738     284.     *
                                    4739     285.     *   Inputs - @FMFSB
                                    4740     286.     *            Block number in RVR
                                    4741     287.     *
                                    4742     288.     *   Output - None
                                    4743     289.     *
                                    4744     290.     *---------------------------------------------------------------------*
 0004BA                             4745     291.     FBITREL  PROC  @FMFSB,#FBITPLO,SCOPE=GLOBAL
 0004BA C6C2C9E3D9C5D340            4751             +
 0004C2 0008/0090                   4752             +
 0004C6 900F D004/18AF       00004  4754             +
 USING  FBITREL,R10
 0004CC 50D0 C000/18CD       00000  4769             +
 0004D2 9680 C000      00000        4771             +
 USING  @FMFSB-72,R12
 AUSING (#FBITPLO,@FMFSB+8)
 0004D6 41D0 C0E0            000E0  4790             +
 USING  FSB,R3                      4791     292.              WITH  (FSB,RB)
 USING  ABNL,R2                     4804     293.              WITH  (ABNL,RA)
00004DA 5830 C048            00000  4818     295.              L     RB,@FMFSBP          Point to the FSB
 0004DE 5820 30E8            000E8  4819     296.              L     RA,FSBABNL          Point to the ABNL
00004E2 1200/4780 A02A       004F0  4821     298.              IF    ((RVR,Z),OR,(RVR,GE,FSBTBLK)),BEGIN
 0004E8 5900 30E0            000E0  4845             +
 0004EC 4750 A05A            00520  4846             +
 0004F0 AC04 021B      0021B        4851  1  299.                ABORT FBITREL_INV_BLK
 0004F4 9680 021A      0021A        4860  1          +
 0004F8 50F0 021C            0021C  4861  1          +
 0004FC 58F0 0210            00210  4862  1          +
 000500 89F0 0010            00010  4863  1          +
 000504 88F0 0010            00010  4864  1          +
 000508 41F0 F000            00000  4865  1          +
 00050C AEFF 0006            00006  4866  1          +
 000510 C6C2C9E3D9C5D36D            4867  1          +
 000520                             4868     300.              END   ,
0000520                             4873     302.              CLEAR #FBITPLO            Clear PLO parameter list
 000520 D78F C050 C050 00000 00000  4879             +
 000526 5000 C0AC            0005C  4880     303.              ST    RVR,#FBITPLO+(4*23) Set block number
000052A 1B00                        4882     305.              CLEAR RVR
 00052C 9180 2008      00008        4886     306.              IF    ABNLFCLO,'EXIT FBITREL' Process closed
 000530 47E0 A072            00538  4896             +
 000534 47F0 A104            005CA  4904             +
0000538                             4910     308.              LOOP  BEGIN
 000538 58F0 2018            00018  4916  1  309.                L     R15,ABNLCNT
 00053C 59F0 2030            00030  4917  1  310.                IF    (R15,GE,ABNLMAX),BEGIN
 000540 4750 A08C            00552  4929  1          +
 000544 9180 C04C      00004        4934  2  311.                  IF    ~@FMFSBO,'ACALL FBITMANR' Maintenance time
 000548 4710 A08C            00552  4944  2          +
1FILEBIT  (FILEBI) (09:38) (22MAR04) ORVYL'S File Block Manager                                                             Page   41
0Current Usings:  (PZERO,R0) (ABNL,R2) (FSB,R3) (FBITREL,R10) (@FMFSB-72,R12)
0Loc    Object Code    Addr1 Addr2  Stmt Lv Lineno    Source Statement           (Hibal 5, Asmedit 3.3)  HLASM R4.0  2004/03/22 09.38
+___    ______ ____    _____ _____  ____ __ ______    ______ _________
000054C 58F0 A55A/0DEF       00A20  4955  2          +
 000552                             4961  1  312.                END   ,
 000552 4100 0010            00010  4965  1  313.                LA    R0,16               Compare and Swap and Double store
 000556 4110 2018            00018  4966  1  314.                LA    R1,ABNLTOKN         PLO lock token
 00055A 5860 201C            0001C  4967  1  315.                L     RX,ABNLSEQ          Get the sequence
 00055E 4170 6001            00001  4968  1  316.                LA    RY,@RX+1            Increment sequence
 000562 58F0 2018            00018  4969  1  317.                L     R15,ABNLCNT         Get the count
 000566 5EF0 A556            00A1C  4970  1  318.                INCR  R15                 Increment
 00056A 59F0 2024            00024  4973  1  319.                IF    (R15,GT,ABNLMCNT),NEXT
 00056E 4720 A072            00538  4987  1          +
 000572 50F0 C08C            0003C  4993  1  320.                ST    R15,#FBITPLO+(4*15) Set new count
 000576 41F0 2018            00018  4994  1  321.                LA    R15,ABNLCNT         Point to count
 00057A 50F0 C09C            0004C  4995  1  322.                ST    R15,#FBITPLO+(4*19) Set address
 00057E 58F0 2018            00018  4996  1  323.                L     R15,ABNLCNT         Get the count
 000582 89F0 0002            00002  4997  1  324.                SLL   R15,2               Calc disp to first empty slot
 000586 58E0 2020            00020  4998  1  325.                L     R14,ABNLAVAL        Point to block number buffer
 00058A 41FF E000            00000  4999  1  326.                LA    R15,@R14(R15)       Point to first free slot
 00058E 50F0 C0BC            0006C  5000  1  327.                ST    R15,#FBITPLO+(4*27) Set address
 000592 EE60 201C C050 0001C 00000  5001  1  328.                PLO   RX,ABNLSEQ,0,#FBITPLO Just do it!
 000598 4770 A072            00538  5002     329.              UNTIL Z,END
000059C 9180 C04C      00004        5022     331.              IF    ~@FMFSBO,BEGIN
 0005A0 4710 A102            005C8  5032             +
 0005A4 58E0 30DC/18FE       000DC  5037  1  332.                INCRS FSBABLK             One more available block
 0005AA 5EF0 A556            00A1C  5048  2          +
 0005AE BAEF 30DC            000DC  5049  1          +
 0005B2 4770 A0E2            005A8  5063  1          +
 0005B6 58E0 2054/18FE       00054  5069  1  333.                INCRS ABNLTREL            Increment
 0005BC 5EF0 A556            00A1C  5080  2          +
 0005C0 BAEF 2054            00054  5081  1          +
 0005C4 4770 A0F4            005BA  5095  1          +
 0005C8                             5101     334.              END   ,
 0005C8 1B00                        5105     335.              CLEAR RVR
 0005CA 981F C008            00008  5109     336.              PEND  ,
 DROP   ABNL,R2
 DROP   FSB,R3
 DROP   @FMFSB-72,R12
 DROP   FBITREL,R10
 0005CE 9680 C000/0B0E 00000        5134             +
1FILEBIT  (FILEBI) (09:38) (22MAR04) ORVYL'S File Block Manager                                                             Page   42
0Current Usings:  (PZERO,R0)
0Loc    Object Code    Addr1 Addr2  Stmt Lv Lineno    Source Statement           (Hibal 5, Asmedit 3.3)  HLASM R4.0  2004/03/22 09.38
+___    ______ ____    _____ _____  ____ __ ______    ______ _________
0                                   5141     338.     *---------------------------------------------------------------------*
                                    5142     339.     *  FBITGCON - Get a contiguous range of block numbers (Status 6)
                                    5143     340.     *
                                    5144     341.     *   Inputs - RVR = Count of block numbers requested
                                    5145     342.     *
                                    5146     343.     *   Output - RVR = First block number - or - Zero for not possible
                                    5147     344.     *
                                    5148     345.     *---------------------------------------------------------------------*
 000000                00000 00028  5149     346.     #FBGCON  RECORD BEGIN
 000000                             5157  1  347.     #FBGCNT    DS    F                   Count of blocks requested
 000004                             5158  1  348.     #FBGFBLK   DS    F                   First block number in range
 000008                             5159  1  349.     #FBGBEND   DS    A                   Bitmap buffer end
 00000C                             5160  1  350.     #FBGCMAP   DS    F                   Current bitmap being checked
 000010                             5161  1  351.     #FBGLMAP   DS    F                   Last possible first bitmap
 000014                             5162  1  352.     #FBGLBYT   DS    F                   Last possible first byte
 000018                             5163  1  353.     #FBGLBLK   DS    F                   Last possible first bit
 00001C                             5164  1  354.     #FBGFBYT   DS    F                   First full byte
 000020                             5165  1  355.     #FBGCBYT   DS    F                   Count of full bytes needed
 000024                             5166  1  356.     #FBGLEFT   DS    H                   Number of bits in left byte
 000026                             5167  1  357.     #FBGRITE   DS    H                   Number of bits in right byte
 000028                00028 00028  5168     358.              END   ,
00005D4                             5178     360.     FBITGCON PROC  @FMFSB,#FBGCON,SCOPE=GLOBAL
 0005D4 C6C2C9E3C7C3D6D5            5184             +
 0005DC 0008/0028                   5185             +
 0005E0 900F D004/18AF       00004  5187             +
 USING  FBITGCON,R10
 0005E6 50D0 C000/18CD       00000  5202             +
 0005EC 9680 C000      00000        5204             +
 USING  @FMFSB-72,R12
 AUSING (#FBGCON,@FMFSB+8)
 0005F0 41D0 C078            00078  5223             +
 USING  FSB,R3                      5224     361.              WITH  (FSB,RB)
 0005F4 5830 C048            00000  5237     362.              L     RB,@FMFSBP          Point to the FSB
 USING  ABNL,R2                     5238     363.              WITH  (ABNL,RA)
 0005F8 5820 30E8            000E8  5251     364.              L     RA,FSBABNL          Point to the ABNL
00005FC 1810                        5253     366.              LR    RS,RVR              Save count requested
 0005FE 1B00                        5254     367.              CLEAR RVR                 Init to not possible
 000600 9180 2008      00008        5258     368.              IF    ABNLFCLO,'EXIT FBITGCON' Process closed
 000604 47E0 A02C            0060C  5268             +
 000608 47F0 A428            00A08  5276             +
 00060C 5910 30DC            000DC  5281     369.              IF    (RS,GT,FSBABLK),'EXIT FBITGCON' Not more than max
 000610 47D0 A038            00618  5293             +
 000614 47F0 A428            00A08  5301             +
 000618 1211/47B0 A042       00622  5306     370.              IF    (RS,M),'EXIT FBITGCON' Don't get negitive
 00061E 47F0 A428            00A08  5323             +
 000622 1211/4770 A04C       0062C  5328     371.              IF    (RS,Z),'EXIT FBITGCON' Don't get nothing
 000628 47F0 A428            00A08  5345             +
 00062C 5910 A43C            00A1C  5350     372.              IF    (RS,EQ,1),BEGIN     Only one
 000630 4770 A068            00648  5362             +
 USING  @FMFSB-72,R13               5367  1  373.                PSET  @FMFSB
 000634 D704 D048 D048 00000 00000  5384  1          +
 00063A 5030 D048            00000  5385  1  374.                PMOV  @FMFSBP,LA:FSB
1FILEBIT  (FILEBI) (09:38) (22MAR04) ORVYL'S File Block Manager                                                             Page   43
0Current Usings:  (PZERO,R0) (ABNL,R2) (FSB,R3) (FBITGCON,R10) (@FMFSB-72,R12) (@FMFSB-72,R13)
0Loc    Object Code    Addr1 Addr2  Stmt Lv Lineno    Source Statement           (Hibal 5, Asmedit 3.3)  HLASM R4.0  2004/03/22 09.38
+___    ______ ____    _____ _____  ____ __ ______    ______ _________
000063E 58F0 A444/0DEF       00A24  5396  1  375.                ACALL FBITGET             Get one
 000644 47F0 A428            00A08  5403  1  376.                EXIT  FBITGCON
 000648                             5406     377.              END   ,
0000648                             5411     379.              CLEAR #FBGCON             Clear work area
 000648 D727 C050 C050 00000 00000  5417             +
 00064E 5010 C050            00000  5418     380.              ST    RS,#FBGCNT          Save count requested
 000652 58F0 30E0            000E0  5419     381.              L     R15,FSBTBLK         Get total number of bits
 000656 1BF1                        5420     382.              SR    R15,RS              Calc max possible first block
 000658 47D0 A38C            0096C  5421     383.              IF    NP,FBITGCOE         More than max not possible
 00065C 50F0 C068            00018  5435     384.              ST    R15,#FBGLBLK        Save
 000660 88F0 0003            00003  5436     385.              SRL   R15,3               Calc last possible byte number
 000664 50F0 C064            00014  5437     386.              ST    R15,#FBGLBYT        Save
 000668 1BEE                        5438     387.              CLEAR R14
 00066A 4810 30AC            000AC  5442     388.              LH    RS,FSBDSZ           Get file block size
 00066E 1DE1                        5443     389.              DR    R14,RS              Calc last possible bitmap block
 000670 50F0 C060            00010  5444     390.              ST    R15,#FBGLMAP        Save
 000674 58F0 2038            00038  5445     391.              L     R15,ABNLRBUF        Bitmap buffer address
 000678 4AF0 30AC            000AC  5446     392.              AH    R15,FSBDSZ          Calc end
 00067C 50F0 C058            00008  5447     393.              ST    R15,#FBGBEND        Save
 DROP   @FMFSB-72,R13               5448     394.              GRGET RID=ABNLGRID,EXCL=YES Get bitmap resource
 USING  @GRES-72,R13
 000680 D708 D048 D048 00000 00000  5469             +
 000686 D203 D04C 2004 00004 00004  5474             +
 00068C 9680 D050      00008        5480             +
 000690 9640 D050      00008        5486             +
 000694 58F0 A448/0DEF       00A28  5489             +
 00069A D203 C05C 2044 0000C 00044  5491     395.              MVC   #FBGCMAP,ABNLLMAP   Set current bitmap to process
 DROP   @GRES-72,R13                5492     396.              PSET  @FDOIODO            Setup IO interface
 USING  @FDOIODO-72,R13
 0006A0 D70F D048 D048 00000 00000  5512             +
 0006A6                             5513     397.              PMOV  @FDODATA,ABNLRBUF   Use our buffer
 0006A6 D203 D050 2038 00008 00038  5517             +
 0006AC                             5518     398.              PMOV  @FDODATL,FSBDSZ
 0006AC D201 D054 30AC 0000C 000AC  5522             +
 0006B2 5030 D048            00000  5523     399.              PMOV  @FDOFSB,LA:FSB      FSB pointer
00006B6                             5535     401.     FBITGCO2 LABEL ,
 0006B6                             5537     402.              IF    (#FBGCMAP,GT,#FBGLMAP),FBITGCOE Beyond last possible
 0006B6 D503 C05C C060 0000C 00010  5549             +
 0006BC 4720 A38C            0096C  5552             +
 0006C0 4D10 A350            00930  5558     403.              BAS   RS,FBITGGET         Get the bitmap
00006C4                             5560     405.     FBITGCO4 LABEL ,
 0006C4 5890 C058            00008  5562     406.              L     RN,#FBGBEND         Point to end of map
 0006C8 1B98                        5563     407.              SR    RN,RM               Calc len of compare
 0006CA 4770 A0FE            006DE  5564     408.              IF    Z,BEGIN
 0006CE 41F0 0001            00001  5575  1  409.                INCR  R15,#FBGCMAP        Check next map
 0006D2 5EF0 C05C            0000C  5579  1          +
 0006D6 50F0 C05C            0000C  5580  1          +
 0006DA 47F0 A0D6            006B6  5581  1  410.                B     FBITGCO2
 0006DE                             5582     411.              END   ,
 0006DE 58F0 A44C            00A2C  5586     412.              L     R15,=X'FF000000'    Compare with not available
 0006E2 0F8E/4770 A118       006F8  5587     413.              IF    ('CLCL RM,R14',Z),BEGIN None available
1FILEBIT  (FILEBI) (09:38) (22MAR04) ORVYL'S File Block Manager                                                             Page   44
0Current Usings:  (PZERO,R0) (ABNL,R2) (FSB,R3) (FBITGCON,R10) (@FMFSB-72,R12) (@FDOIODO-72,R13)
0Loc    Object Code    Addr1 Addr2  Stmt Lv Lineno    Source Statement           (Hibal 5, Asmedit 3.3)  HLASM R4.0  2004/03/22 09.38
+___    ______ ____    _____ _____  ____ __ ______    ______ _________
00006E8 41F0 0001            00001  5600  1  414.                INCR  R15,#FBGCMAP        Check next map
 0006EC 5EF0 C05C            0000C  5604  1          +
 0006F0 50F0 C05C            0000C  5605  1          +
 0006F4 47F0 A0D6            006B6  5606  1  415.                B     FBITGCO2
 0006F8                             5607     416.              END   ,
 0006F8 1848                        5611     417.              LR    RJ,RM               Get pointer
 0006FA 5B40 2038            00038  5612     418.              S     RJ,ABNLRBUF         Calc byte this bitmap
 0006FE 58F0 C05C            0000C  5613     419.              L     R15,#FBGCMAP        Get bitmap
 000702 4CF0 30AC            000AC  5614     420.              MH    R15,FSBDSZ          Calc bytes in previous bitmaps
 000706 1A4F                        5615     421.              AR    RJ,R15              Calc byte in all bitmaps
 000708 5940 C064            00014  5616     422.              IF    (RJ,GT,#FBGLBYT),FBITGCOE Can't do it
 00070C 4720 A38C            0096C  5630             +
 000710 8940 0003            00003  5636     423.              SLL   RJ,3                Calc block number
                                    5637     424.     * Might be enough consecutive bits in first byte
 000714                             5638     425.              IF    (#FBGCNT,LE,8),BEGIN Maybe in one byte
 000714 D503 A450 C050 00A30 00000  5650             +
 00071A 4750 A17C            0075C  5651             +
 00071E 58F0 C050            00000  5656  1  426.                L     R15,#FBGCNT         Get count
 000722 06F0                        5657  1  427.                DECR  R15                 Calc mask table displacement
 000724 41E0 0008            00008  5659  1  428.                LA    R14,8               Bits per byte
 000728 1BEF                        5660  1  429.                SR    R14,R15             Calc loop count
 00072A 43FF A348            00928  5661  1  430.                IC    R15,FBITGRM(R15)    Get initial mask
 00072E 1804                        5662  1  431.                LR    RVR,RJ              Get inital block number
 000730                             5663  1  432.                LOOP  BEGIN
 000730 5900 C068            00018  5669  2  433.                  IF    (RVR,GT,#FBGLBLK),FBITGCOE Can't do it
 000734 4720 A38C            0096C  5683  2          +
 000738 44F0 A464            00A44  5689  2  434.                  EX    R15,'TM @RM,0'      Got enough?
 000A44 9100 8000      00000        5697  2          +
 00073C 4770 A170            00750  5705  2  435.                  IF    Z,BEGIN             Yes!
 000740 5000 C054            00004  5716  3  436.                    ST    RVR,#FBGFBLK        Set block number
 000744 44F0 A468            00A48  5717  3  437.                    EX    R15,'OI @RM,0'      Get the blocks
 000A48 9600 8000      00000        5725  3          +
 000748 4D10 A370            00950  5733  3  438.                    BAS   RS,FBITGPUT         Put the bitmap back
 00074C 47F0 A392            00972  5734  3  439.                    B     FBITGCOX            Exit
 000750                             5735  2  440.                  END   ,                   Yes!
 000750 88F0 0001            00001  5739  2  441.                  SRL   R15,1               Get next mask
 000754 5E00 A43C            00A1C  5740  2  442.                  INCR  RVR                 Next block number
 000758 46E0 A150            00730  5743  1  443.                UNTIL (BCT,R14),END
 00075C                             5753     444.              END   ,                   Maybe in one byte
                                    5757     445.     * See if any consecutive bits in this byte
 00075C 4100 0008            00008  5758     446.              LA    RVR,8               Count of bits in byte
 000760 98EF A340            00920  5759     447.              LM    R14,R15,FBITGLM
 000764                             5760     448.              LOOP  BEGIN               See if some here
 000764 5940 C068            00018  5766  1  449.                IF    (RJ,GT,#FBGLBLK),FBITGCOE Can't do it
 000768 4720 A38C            0096C  5780  1          +
 00076C 44F0 A46C            00A4C  5786  1  450.                EX    R15,'TM @RM,0'      Are these blocks available?
 000A4C 9100 8000      00000        5794  1          +
 000770 4780 A1A8            00788  5802  1  451.                BZ    FBITGCO5            Yes!
 000774 8CE0 0008            00008  5803  1  452.                SRDL  R14,8               Get next mask
 000778 5E40 A43C            00A1C  5804  1  453.                INCR  RJ                  Increment first block number
 00077C 4600 A184            00764  5807     454.              UNTIL (BCT,RVR),END       See if some here
 000780 5E80 A43C            00A1C  5817     455.              INCR  RM                  Start from next byte
 000784 47F0 A0E4            006C4  5820     456.              B     FBITGCO4            Continue
 000788                             5821     457.     FBITGCO5 LABEL ,
1FILEBIT  (FILEBI) (09:38) (22MAR04) ORVYL'S File Block Manager                                                             Page   45
0Current Usings:  (PZERO,R0) (ABNL,R2) (FSB,R3) (FBITGCON,R10) (@FMFSB-72,R12) (@FDOIODO-72,R13)
0Loc    Object Code    Addr1 Addr2  Stmt Lv Lineno    Source Statement           (Hibal 5, Asmedit 3.3)  HLASM R4.0  2004/03/22 09.38
+___    ______ ____    _____ _____  ____ __ ______    ______ _________
0000788 4000 C074            00024  5823     458.              STH   RVR,#FBGLEFT        Save count of bits avail on left
 00078C 5040 C054            00004  5824     459.              ST    RJ,#FBGFBLK         Set block number
 000790 5890 C050            00000  5825     460.              L     RN,#FBGCNT          Get count of blocks requested
 000794 1B90                        5826     461.              SR    RN,RVR              Calc remaining bits needed
 000796 1B44                        5827     462.              CLEAR RJ
 000798 1859                        5831     463.              LR    RK,RN               Get count bits needed
 00079A 5D40 A454            00A34  5832     464.              D     RJ,=F'8'            Calc number of bytes needed
 00079E 4040 C076            00026  5833     465.              STH   RJ,#FBGRITE         Set count of bits on right
 0007A2 5050 C070            00020  5834     466.              ST    RK,#FBGCBYT         Count of full bytes needed
 0007A6 5E80 A43C            00A1C  5835     467.              INCR  RM                  Point to first byte in range
 0007AA 5980 C058            00008  5838     468.              IF    (RM,EQ,#FBGBEND),BEGIN Ran off the bitmap
 0007AE 4770 A1E2            007C2  5850             +
 0007B2 41F0 0001            00001  5855  1  469.                INCR  R15,#FBGCMAP        Check next map
 0007B6 5EF0 C05C            0000C  5859  1          +
 0007BA 50F0 C05C            0000C  5860  1          +
 0007BE 4D10 A350            00930  5861  1  470.                BAS   RS,FBITGGET         Get next map bitmap
 0007C2                             5862     471.              END   ,
 0007C2 5080 C06C            0001C  5866     472.              ST    RM,#FBGFBYT         Set first full byte in range
                                    5867     473.     * Note: RK might be zero!
 0007C6 1255/4780 A22C       0080C  5868     474.              IF    (RK,NZ),BEGIN       Full bytes needed
 0007CC                             5882  1  475.     FBITGCO6   LOOP  BEGIN               Forever
 0007CC 5890 C058            00008  5889  2  476.                  L     RN,#FBGBEND         Point to end of map
 0007D0 1B98                        5890  2  477.                  SR    RN,RM               Calc bytes to end
 0007D2 1959/47D0 A1FA       007DA  5891  2  478.                  IF    (RK,GT,RN),BEGIN    Not enough this map
 0007D8 1B59                        5906  3  479.                    SR    RK,RN               Calc remaining needed
 0007DA                             5907  2  480.                  END   ,                   Not enough this map
 0007DA A1FE           007DA 007D6  5911  2  481.                  ELSE  BEGIN               Enough this map
 0007DA 47F0 A202            007E2  5916  2          +
 0007DE 1895                        5922  3  482.                    LR    RN,RK               Get count
 0007E0 1B55                        5923  3  483.                    CLEAR RK                  Set remaining needed
 0007E2                             5927  2  484.                  END   ,                   Enough this map
 0007E2 1BFF                        5931  2  485.                  CLEAR R15                 Compare with available
 0007E4 0F8E/4770 A0E4       006C4  5935  2  486.                  IF    ('CLCL RM,R14',NZ),FBITGCO4 Start all over
 0007EA 1255/4780 A220       00800  5951  2  487.                  IF    (RK,NZ),BEGIN       More needed
 0007F0 41F0 0001            00001  5965  3  488.                    INCR  R15,#FBGCMAP        Check next map
 0007F4 5EF0 C05C            0000C  5969  3          +
 0007F8 50F0 C05C            0000C  5970  3          +
 0007FC 4D10 A350            00930  5971  3  489.                    BAS   RS,FBITGGET         Get next map bitmap
 000800                             5972  2  490.                  END   ,                   More needed
 000800 A224           00800 007EE  5976  2  491.                  ELSE  'EXIT FBITGCO6'     Done
 000800 47F0 A228            00808  5981  2          +
 000804 47F0 A22C            0080C  5990  2          +
 000808 47F0 A1EC            007CC  5995  1  492.                END   ,                   Forever
 00080C                             6000     493.              END   ,                   Full bytes needed
 00080C 4840 C076            00026  6004     494.              LH    RJ,#FBGRITE         Get count of bits on right
 000810 1244/4780 A26C       0084C  6005     495.              IF    (RJ,NZ),BEGIN       If some needed on right
 000816 5980 C058            00008  6019  1  496.                IF    (RM,EQ,#FBGBEND),BEGIN Ran off the bitmap
 00081A 4770 A24E            0082E  6031  1          +
 00081E 41F0 0001            00001  6036  2  497.                  INCR  R15,#FBGCMAP        Check next map
 000822 5EF0 C05C            0000C  6040  2          +
 000826 50F0 C05C            0000C  6041  2          +
 00082A 4D10 A350            00930  6042  2  498.                  BAS   RS,FBITGGET         Get next map bitmap
 00082E                             6043  1  499.                END   ,                   Ran off the bitmap
 00082E 0640                        6047  1  500.                DECR  RJ                  Calc mask table displacement
1FILEBIT  (FILEBI) (09:38) (22MAR04) ORVYL'S File Block Manager                                                             Page   46
0Current Usings:  (PZERO,R0) (ABNL,R2) (FSB,R3) (FBITGCON,R10) (@FMFSB-72,R12) (@FDOIODO-72,R13)
0Loc    Object Code    Addr1 Addr2  Stmt Lv Lineno    Source Statement           (Hibal 5, Asmedit 3.3)  HLASM R4.0  2004/03/22 09.38
+___    ______ ____    _____ _____  ____ __ ______    ______ _________
0000830 4344 A348            00928  6049  1  501.                IC    RJ,FBITGRM(RJ)      Don't get the wrong mask
 000834 4440 A470            00A50  6050  1  502.                EX    RJ,'TM @RM,0'       Are they available
 000A50 9100 8000      00000        6058  1          +
 000838 4770 A0E4            006C4  6066  1  503.                IF    NZ,FBITGCO4         Wow that was close!
 00083C 4440 A474            00A54  6080  1  504.                EX    RJ,'OI @RM,0'       While we're at it
 000A54 9600 8000      00000        6088  1          +
 000840 5980 2038            00038  6096  1  505.                IF    (RM,EQ,ABNLRBUF),BEGIN At first byte
 000844 4770 A26C            0084C  6108  1          +
 000848 4D10 A370            00950  6113  2  506.                  BAS   RS,FBITGPUT         File away
 00084C                             6114  1  507.                END   ,                   At first byte
 00084C                             6118     508.              END   ,                   If some needed on right
 00084C 5850 C070            00020  6122     509.              L     RK,#FBGCBYT         Count of full bytes needed
 000850 1255/4780 A2FC       008DC  6123     510.              IF    (RK,NZ),BEGIN       Full bytes needed
 000856 5980 2038            00038  6137  1  511.                IF    (RM,EQ,ABNLRBUF),BEGIN At first byte
 00085A 4770 A290            00870  6149  1          +
 00085E 58F0 C05C/06F0       0000C  6154  2  512.                  DECR  R15,#FBGCMAP        Backup
 000864 50F0 C05C            0000C  6158  2          +
 000868 4D10 A350            00930  6159  2  513.                  BAS   RS,FBITGGET         Get it
 00086C 5880 C058            00008  6160  2  514.                  L     RM,#FBGBEND         Point pass the end
 000870                             6161  1  515.                END   ,                   At first byte
 000870                             6165  1  516.     FBITGCO8   LOOP  BEGIN               Forever
 000870 1898                        6172  2  517.                  LR    RN,RM               Get pointer
 000872 5B90 2038            00038  6173  2  518.                  S     RN,ABNLRBUF         Calc number of bytes from start
 000876 1959/47D0 A2A2       00882  6174  2  519.                  IF    (RK,GT,RN),BEGIN    Not enough this map
 00087C 1B59                        6189  3  520.                    SR    RK,RN               Calc remaining needed
 00087E 5880 2038            00038  6190  3  521.                    L     RM,ABNLRBUF         Point to beginning
 000882                             6191  2  522.                  END   ,                   Not enough this map
 000882 A2A6           00882 0087A  6195  2  523.                  ELSE  BEGIN               Enough this map
 000882 47F0 A2CE            008AE  6200  2          +
 000886 1895                        6206  3  524.                    LR    RN,RK               Get count
 000888 5880 C06C            0001C  6207  3  525.                    L     RM,#FBGFBYT         Point to first byte
 00088C 5980 2038            00038  6208  3  526.                    IF    (RM,NE,ABNLRBUF),BEGIN Left byte on this map
 000890 4780 A2CC            008AC  6220  3          +
 000894 4840 C074            00024  6225  4  527.                      LH    RJ,#FBGLEFT         Get count needed on left
 000898 0640                        6226  4  528.                      DECR  RJ                  Calc mask table displacement
 00089A 4344 A340            00920  6228  4  529.                      IC    RJ,FBITGLM(RJ)      Don't get the right mask
 00089E 18E8                        6229  4  530.                      LR    R14,RM
 0008A0 06E0                        6230  4  531.                      DECR  R14                 Point to left byte
 0008A2 4440 A478            00A58  6232  4  532.                      EX    RJ,'OI @R14,0'      Set to unavailable
 000A58 9600 E000      00000        6240  4          +
 0008A6                             6248  4  533.                      CLEAR #FBGLEFT            Don't do it again
 0008A6 D701 C074 C074 00024 00024  6254  4          +
 0008AC                             6255  3  534.                    END   ,                   Left byte on this map
 0008AC 1B55                        6259  3  535.                    CLEAR RK                  Set remaining needed
 0008AE                             6263  2  536.                  END   ,                   Enough this map
 0008AE 58F0 A44C            00A2C  6267  2  537.                  L     R15,=X'FF000000'    Set to not available
 0008B2 0E8E                        6268  2  538.                  MVCL  RM,R14
 0008B4 4D10 A370            00950  6269  2  539.                  BAS   RS,FBITGPUT         File away
 0008B8 1255/4770 A2E2       008C2  6270  2  540.                  IF    (RK,Z),'EXIT FBITGCO8' Almost done
 0008BE 47F0 A2FC            008DC  6287  2          +
 0008C2 A2E6           008C2 008BC  6292  2  541.                  ELSE  BEGIN               More needed
 0008C2 47F0 A2F8            008D8  6297  2          +
 0008C6 58F0 C05C/06F0       0000C  6303  3  542.                    DECR  R15,#FBGCMAP        Backup
 0008CC 50F0 C05C            0000C  6307  3          +
1FILEBIT  (FILEBI) (09:38) (22MAR04) ORVYL'S File Block Manager                                                             Page   47
0Current Usings:  (PZERO,R0) (ABNL,R2) (FSB,R3) (FBITGCON,R10) (@FMFSB-72,R12) (@FDOIODO-72,R13)
0Loc    Object Code    Addr1 Addr2  Stmt Lv Lineno    Source Statement           (Hibal 5, Asmedit 3.3)  HLASM R4.0  2004/03/22 09.38
+___    ______ ____    _____ _____  ____ __ ______    ______ _________
00008D0 4D10 A350            00930  6308  3  543.                    BAS   RS,FBITGGET         Get it
 0008D4 5880 C058            00008  6309  3  544.                    L     RM,#FBGBEND         Point pass the end
 0008D8                             6310  2  545.                  END   ,                   More needed
 0008D8 47F0 A290            00870  6314  1  546.                END   ,                   Forever
 0008DC                             6319     547.              END   ,                   Full bytes needed
 0008DC 4840 C074            00024  6323     548.              LH    RJ,#FBGLEFT         Get count needed on left
 0008E0 1244/4780 A33A       0091A  6324     549.              IF    (RJ,NZ),BEGIN       Some needed on left
                                    6338  1  550.     * Left byte is the last byte in a bitmap
 0008E6                             6339  1  551.                IF    (#FBGFBYT,EQ,ABNLRBUF),BEGIN On previous bitmap
 0008E6 D503 C06C 2038 0001C 00038  6351  1          +
 0008EC 4770 A322            00902  6352  1          +
 0008F0 58F0 C05C/06F0       0000C  6357  2  552.                  DECR  R15,#FBGCMAP        Backup
 0008F6 50F0 C05C            0000C  6361  2          +
 0008FA 4D10 A350            00930  6362  2  553.                  BAS   RS,FBITGGET         Get it
 0008FE 58E0 C058            00008  6363  2  554.                  L     R14,#FBGBEND        Point pass end
 000902                             6364  1  555.                END   ,                   On previous bitmap
 000902 A326           00902 008EE  6368  1  556.                ELSE  'L R14,#FBGFBYT'    Point to first byte
 000902 47F0 A32A            0090A  6373  1          +
 000906 58E0 C06C            0001C  6380  1          +
 00090A 06E0                        6385  1  557.                DECR  R14                 Point to left byte
 00090C 0640                        6387  1  558.                DECR  RJ                  Calc mask table displacement
 00090E 4344 A340            00920  6389  1  559.                IC    RJ,FBITGLM(RJ)      Don't get the right mask
 000912 4440 A47C            00A5C  6390  1  560.                EX    RJ,'OI @R14,0'      Set to unavailable
 000A5C 9600 E000      00000        6398  1          +
 000916 4D10 A370            00950  6406  1  561.                BAS   RS,FBITGPUT         File away
 00091A                             6407     562.              END   ,                   Some needed on left
 00091A 47F0 A392            00972  6411     563.              B     FBITGCOX            Done
0000920                             6413     565.              DS    0A
                                    6414     566.     * Masks of bits need on the left
 000920 0103070F                    6415     567.     FBITGLM  DC    B'00000001',B'00000011',B'00000111',B'00001111'
 000924 1F3F7FFF                    6416     568.              DC    B'00011111',B'00111111',B'01111111',B'11111111'
0                                   6418     570.     * Masks of bits need on the right
 000928 80C0E0F0                    6419     571.     FBITGRM  DC    B'10000000',B'11000000',B'11100000',B'11110000'
 00092C F8FCFEFF                    6420     572.              DC    B'11111000',B'11111100',B'11111110',B'11111111'
0000930                             6422     574.     FBITGGET LABEL ,
 000930 58F0 C05C            0000C  6424     575.              L     R15,#FBGCMAP        Get current bitmap to process
 000934 5AF0 30D4            000D4  6425     576.              A     R15,FSBBITSB        Calc real file sys block number
 000938 50F0 D04C            00004  6426     577.              ST    R15,@FDOBLK         Set block number
 00093C 9680 D057      0000F        6427     578.              SET   @FDOFR              Read
 000940 58F0 A458/0DEF       00A38  6433     579.              VCALL FDOIODO             Get the bitmap block
 000946 947F D057      0000F        6437     580.              CLEAR @FDOFR
 00094A 5880 2038            00038  6444     581.              L     RM,ABNLRBUF         Point to the bitmap
 00094E 07F1                        6445     582.              BR    RS
0000950                             6447     584.     FBITGPUT LABEL ,
 000950 58F0 C05C            0000C  6449     585.              L     R15,#FBGCMAP        Get current bitmap to process
 000954 5AF0 30D4            000D4  6450     586.              A     R15,FSBBITSB        Calc real file sys block number
 000958 50F0 D04C            00004  6451     587.              ST    R15,@FDOBLK         Set block number
 00095C 9640 D057      0000F        6452     588.              SET   @FDOFW              Write
 000960 58F0 A458/0DEF       00A38  6458     589.              VCALL FDOIODO             Put the bitmap block back
 000966 94BF D057      0000F        6462     590.              CLEAR @FDOFW
1FILEBIT  (FILEBI) (09:38) (22MAR04) ORVYL'S File Block Manager                                                             Page   48
0Current Usings:  (PZERO,R0) (ABNL,R2) (FSB,R3) (FBITGCON,R10) (@FMFSB-72,R12) (@FDOIODO-72,R13)
0Loc    Object Code    Addr1 Addr2  Stmt Lv Lineno    Source Statement           (Hibal 5, Asmedit 3.3)  HLASM R4.0  2004/03/22 09.38
+___    ______ ____    _____ _____  ____ __ ______    ______ _________
000096A 07F1                        6469     591.              BR    RS
000096C                             6471     593.     FBITGCOE LABEL ,                   Not able to fulfil request
 00096C                             6473     594.              CLEAR #FBGFBLK
 00096C D703 C054 C054 00004 00004  6479             +
 000972                             6480     595.     FBITGCOX LABEL ,                   Exit
 000972                             6482     596.              IF    (#FBGFBLK,NZ),BEGIN Success
 000972 D603 C054 C054 00004 00004  6492             +
 000978 4780 A40C            009EC  6493             +
 00097C 58E0 C054            00004  6498  1  597.                L     R14,#FBGFBLK        First block
 000980 5AE0 C050            00000  6499  1  598.                A     R14,#FBGCNT         Count of blocks
 000984 59E0 30E0            000E0  6500  1  599.                IF    (R14,GT,FSBTBLK),'ABORT FBITGBADCODE'
 000988 47D0 A3DC            009BC  6512  1          +
 00098C AC04 021B      0021B        6521  2          +
 000990 9680 021A      0021A        6527  2          +
 000994 50F0 021C            0021C  6528  2          +
 000998 58F0 0210            00210  6529  2          +
 00099C 89F0 0010            00010  6530  2          +
 0009A0 88F0 0010            00010  6531  2          +
 0009A4 41F0 F000            00000  6532  2          +
 0009A8 AEFF 0006            00006  6533  2          +
 0009AC C6C2C9E3C7C2C1C4            6534  1          +
 0009BC 58E0 30DC            000DC  6539  1  600.                L     R14,FSBABLK         Update avail block count
 0009C0                             6540  1  601.                LOOP  BEGIN
 0009C0 18FE                        6546  2  602.                  LR    R15,R14
 0009C2 5BF0 C050            00000  6547  2  603.                  S     R15,#FBGCNT         Subtract count obtained
 0009C6 BAEF 30DC            000DC  6548  2  604.                  CS    R14,R15,FSBABLK
 0009CA 4770 A3E0            009C0  6549  1  605.                UNTIL Z,END
 0009CE 58E0 2058            00058  6568  1  606.                L     R14,ABNLTGET        Update the total blks dispensed
 0009D2                             6569  1  607.                LOOP  BEGIN
 0009D2 18FE                        6575  2  608.                  LR    R15,R14
 0009D4 5AF0 C050            00000  6576  2  609.                  A     R15,#FBGCNT         Add count obtained
 0009D8 BAEF 2058            00058  6577  2  610.                  CS    R14,R15,ABNLTGET
 0009DC 4770 A3F2            009D2  6578  1  611.                UNTIL Z,END
 0009E0 58F0 2034            00034  6597  1  612.                L     R15,ABNLACNT        Update count in bitmap also
 0009E4 5BF0 C050            00000  6598  1  613.                S     R15,#FBGCNT
 0009E8 50F0 2034            00034  6599  1  614.                ST    R15,ABNLACNT
 0009EC                             6600     615.              END   ,                   Success
0DROP   @FDOIODO-72,R13             6605     617.              GRREL RID=ABNLGRID        Release resource hold
 USING  @GRES-72,R13
 0009EC D708 D048 D048 00000 00000  6626             +
 0009F2 D203 D04C 2004 00004 00004  6631             +
 0009F8 58F0 A45C/0DEF       00A3C  6634             +
 0009FE 58F0 A460/0DEF       00A40  6636     618.              ACALL FBITCLR             Wake anyone waiting
 000A04 5800 C054            00004  6643     619.              L     RVR,#FBGFBLK        Get first block in range
0000A08 981F C008            00008  6645     621.              PEND  ,
 DROP   ABNL,R2
 DROP   FSB,R3
 DROP   @FMFSB-72,R12
 DROP   FBITGCON,R10
 000A0C 9680 C000/0B0E 00000        6670             +
 DROP   @GRES-72,R13
1FILEBIT  (FILEBI) (09:38) (22MAR04) ORVYL'S File Block Manager                                                             Page   49
0Current Usings:  (PZERO,R0)
0Loc    Object Code    Addr1 Addr2  Stmt Lv Lineno    Source Statement           (Hibal 5, Asmedit 3.3)  HLASM R4.0  2004/03/22 09.38
+___    ______ ____    _____ _____  ____ __ ______    ______ _________
0000A18                             6679     622.              LTORG ,
 000A18 000011F4                    6681                             =A(FBITMANG)
 000A1C 00000001                    6682                             =A(1)
 000A20 00001270                    6683                             =A(FBITMANR)
 000A24 000003A4                    6684                             =A(FBITGET)
 000A28 00000000                    6685                             =V(GRGET)
 000A2C FF000000                    6686                             =X'FF000000'
 000A30 00000008                    6687                             =AL4(8)
 000A34 00000008                    6688                             =F'8'
 000A38 00000000                    6689                             =V(FDOIODO)
 000A3C 00000000                    6690                             =V(GRREL)
 000A40 00001A9E       00A60 01C80  6691                             =A(FBITCLR)
1FILEBIT  (FILEBI) (09:38) (22MAR04) ORVYL'S File Block Manager                                                             Page   50
0Current Usings:  (PZERO,R0)
0Loc    Object Code    Addr1 Addr2  Stmt Lv Lineno    Source Statement           (Hibal 5, Asmedit 3.3)  HLASM R4.0  2004/03/22 09.38
+___    ______ ____    _____ _____  ____ __ ______    ______ _________
0                                   6696     624.     *---------------------------------------------------------------------*
                                    6697     625.     *  FBITEXTN - Get a contiguous range of block numbers from a starting
                                    6698     626.     *             block number (to extend a non-IXR file).
                                    6699     627.     *
                                    6700     628.     *   Inputs - RVR = Count of block numbers requested
                                    6701     629.     *                  If zero, the total possible will be determined
                                    6702     630.     *            RS  = Starting block number
                                    6703     631.     *
                                    6704     632.     *   Output - RVR = Zero for good or -1 for none possible or
                                    6705     633.     *                  the count that would be possible
                                    6706     634.     *
                                    6707     635.     *---------------------------------------------------------------------*
 000000                00000 0001A  6708     636.     #FBEXTN  RECORD BEGIN
 000000                             6716  1  637.     #FBERCNT   DS    F                   Requested count
 000004                             6717  1  638.     #FBEPCNT   DS    F                   Possible count
 000008                             6718  1  639.     #FBEBEND   DS    A                   Bitmap buffer end
 00000C                             6719  1  640.     #FBECMAP   DS    F                   Current bitmap being checked
 000010                             6720  1  641.     #FBEFBYT   DS    F                   Count of full bytes needed
 000014                             6721  1  642.     #FBELEFT   DS    H                   Number of bits in left byte
 000016                             6722  1  643.     #FBERITE   DS    H                   Number of bits in right byte
 000018                             6723  1  644.     #FBELMSK   DS    X                   Left mask
 000019 00                          6724  1  645.     #FBEFLAG   FLAG  ,
 #FBEFLAG.#FBETEST 80 ONES          6728  1  646.                FLAG  #FBETEST            Get possible but don't reserve
 00001A                0001A 0001A  6733     647.              END   ,
 000A60                             6742     648.     FBITEXTN PROC  @FMFSB,#FBEXTN,SCOPE=GLOBAL
 000A60 C6C2C9E3C5E7E3D5            6748             +
 000A68 0008/0020                   6749             +
 000A6C 900F D004/18AF       00004  6751             +
 USING  FBITEXTN,R10
 000A72 50D0 C000/18CD       00000  6766             +
 000A78 9680 C000      00000        6768             +
 USING  @FMFSB-72,R12
 AUSING (#FBEXTN,@FMFSB+8)
 000A7C 41D0 C070            00070  6787             +
 USING  FSB,R3                      6788     649.              WITH  (FSB,RB)
 000A80 5830 C048            00000  6801     650.              L     RB,@FMFSBP          Point to the FSB
 USING  ABNL,R2                     6802     651.              WITH  (ABNL,RA)
 000A84 5820 30E8            000E8  6815     652.              L     RA,FSBABNL          Point to the ABNL
0000A88                             6817     654.              CLEAR #FBEXTN             Clear work area
 000A88 D719 C050 C050 00000 00000  6823             +
 000A8E 1890                        6824     655.              LR    RN,RVR              Save
 000A90 5800 A87C            012E8  6825     656.              L     RVR,=F'-1'          Set to not possible
 000A94 9180 2008      00008        6826     657.              IF    ABNLFCLO,'EXIT FBITEXTN' Process closed
 000A98 47E0 A034            00AA0  6836             +
 000A9C 47F0 A402            00E6E  6844             +
 000AA0 5910 30E0            000E0  6849     658.              IF    (RS,GE,FSBTBLK),'EXIT FBITEXTN' Can't start beyond end
 000AA4 4750 A040            00AAC  6861             +
 000AA8 47F0 A402            00E6E  6869             +
 000AAC 1809                        6874     659.              LR    RVR,RN              Restore
0000AAE 1200/4770 A04C       00AB8  6876     661.              IF    (RVR,Z),'SET #FBETEST' Determine how many possible
 000AB4 9680 C069      00019        6896             +
 000AB8 A050           00AB8 00AB2  6901     662.              ELSE  BEGIN
1FILEBIT  (FILEBI) (09:38) (22MAR04) ORVYL'S File Block Manager                                                             Page   51
0Current Usings:  (PZERO,R0) (ABNL,R2) (FSB,R3) (FBITEXTN,R10) (@FMFSB-72,R12)
0Loc    Object Code    Addr1 Addr2  Stmt Lv Lineno    Source Statement           (Hibal 5, Asmedit 3.3)  HLASM R4.0  2004/03/22 09.38
+___    ______ ____    _____ _____  ____ __ ______    ______ _________
0000AB8 47F0 A060            00ACC  6906             +
 000ABC 18E0                        6912  1  663.                LR    R14,RVR             Get count
 000ABE 1AE1                        6913  1  664.                AR    R14,RS              Calc last block + 1
 000AC0 59E0 30E0            000E0  6914  1  665.                IF    (R14,GT,FSBTBLK),'SET #FBETEST' Not more than max
 000AC4 47D0 A060            00ACC  6926  1          +
 000AC8 9680 C069      00019        6937  1          +
 000ACC                             6942     666.              END   ,
0000ACC 9180 C069      00019        6947     668.              IF    #FBETEST,BEGIN      Just determine what is possible
 000AD0 47E0 A06E            00ADA  6957             +
 000AD4 5800 30E0            000E0  6962  1  669.                L     RVR,FSBTBLK         Get last block number + 1
 000AD8 1B01                        6963  1  670.                SR    RVR,RS              Calc count of blocks to EOF
 000ADA                             6964     671.              END   ,
0000ADA 5000 C050            00000  6969     673.              ST    RVR,#FBERCNT        Save requested count
 000ADE 1B88                        6970     674.              CLEAR RM
 000AE0 1891                        6974     675.              LR    RN,RS               Get first block number
 000AE2 5D80 A880            012EC  6975     676.              D     RM,=F'8'            Calc first byte
 000AE6 1288/4770 A08A       00AF6  6976     677.              IF    ((RM,NZ),OR,(#FBERCNT,LE,8)),BEGIN
 000AEC D503 A884 C050 012F0 00000  7001             +
 000AF2 4750 A094            00B00  7002             +
 000AF6 41E0 0008            00008  7007  1  678.                LA    R14,8               Count of bits in byte
 000AFA 1BE8                        7008  1  679.                SR    R14,RM              Calc count bits on left
 000AFC 40E0 C064            00014  7009  1  680.                STH   R14,#FBELEFT        Save
 000B00                             7010     681.              END   ,                   Not a full byte on left
 000B00 1B88                        7014     682.              CLEAR RM
 000B02 4800 30AC            000AC  7018     683.              LH    RVR,FSBDSZ          Get bitmap block size
 000B06 1D80                        7019     684.              DR    RM,RVR              Calc first bitmap
 000B08 5090 C05C            0000C  7020     685.              ST    RN,#FBECMAP         Save first bitmap
 000B0C 1898                        7021     686.              LR    RN,RM               Save first byte in bitmap
 000B0E 58F0 C050            00000  7022     687.              L     R15,#FBERCNT        Get count of blocks requested
 000B12 4BF0 C064            00014  7023     688.              SH    R15,#FBELEFT        Subtract count on left
 000B16 47D0 A0BC            00B28  7024     689.              IF    POS,BEGIN           More needed than in left byte
 000B1A 1BEE                        7035  1  690.                CLEAR R14
 000B1C 5DE0 A880            012EC  7039  1  691.                D     R14,=F'8'           Number of bits per byte
 000B20 50F0 C060            00010  7040  1  692.                ST    R15,#FBEFBYT        Count of full bytes needed
 000B24 40E0 C066            00016  7041  1  693.                STH   R14,#FBERITE        Count of bits on right
 000B28                             7042     694.              END   ,                   More needed than in left byte
0000B28 58F0 2038            00038  7047     696.              L     R15,ABNLRBUF        Bitmap buffer addre
 000B2C 4AF0 30AC            000AC  7048     697.              AH    R15,FSBDSZ          Calc end
 000B30 50F0 C058            00008  7049     698.              ST    R15,#FBEBEND        Save
0000B34 9180 C04C      00004        7051     700.              IF    ~@FMFSBO,BEGIN      Not internal call
 000B38 4710 A0EA            00B56  7061             +
 USING  @GRES-72,R13                7066  1  701.                GRGET RID=ABNLGRID,EXCL=YES Get bitmap resource
 000B3C D708 D048 D048 00000 00000  7084  1          +
 000B42 D203 D04C 2004 00004 00004  7089  1          +
 000B48 9680 D050      00008        7095  1          +
 000B4C 9640 D050      00008        7101  1          +
 000B50 58F0 A888/0DEF       012F4  7104  1          +
 000B56                             7106     702.              END   ,
0DROP   @GRES-72,R13                7111     704.              PSET  @FDOIODO            Common IO parm area
1FILEBIT  (FILEBI) (09:38) (22MAR04) ORVYL'S File Block Manager                                                             Page   52
0Current Usings:  (PZERO,R0) (ABNL,R2) (FSB,R3) (FBITEXTN,R10) (@FMFSB-72,R12) (@FDOIODO-72,R13)
0Loc    Object Code    Addr1 Addr2  Stmt Lv Lineno    Source Statement           (Hibal 5, Asmedit 3.3)  HLASM R4.0  2004/03/22 09.38
+___    ______ ____    _____ _____  ____ __ ______    ______ _________
0USING  @FDOIODO-72,R13
 000B56 D70F D048 D048 00000 00000  7131             +
 000B5C                             7132     705.              PMOV  @FDODATA,ABNLRBUF   Use our buffer
 000B5C D203 D050 2038 00008 00038  7136             +
 000B62                             7137     706.              PMOV  @FDODATL,FSBDSZ
 000B62 D201 D054 30AC 0000C 000AC  7141             +
 000B68 5030 D048            00000  7142     707.              PMOV  @FDOFSB,LA:FSB      FSB pointer
 000B6C 4D10 A360            00DCC  7153     708.              BAS   RS,FBITEGET         Get the bitmap
 000B70 1A89                        7154     709.              AR    RM,RN               Point to first byte on left
0000B72 48E0 C064            00014  7156     711.              LH    R14,#FBELEFT        Bits needed on left
 000B76 12EE/4780 A178       00BE4  7157     712.              IF    (R14,NZ),BEGIN      Some needed on the left
 000B7C 41FE A34F            00DBB  7171  1  713.                LA    R15,FBITELM-1(R14)
 000B80 D200 C068 F000 00018 00000  7172  1  714.                MVC   #FBELMSK,@R15       Get mask for left bits
 000B86 59E0 C050            00000  7173  1  715.                IF    (R14,GT,#FBERCNT),BEGIN Not all bits from the left
 000B8A 47D0 A13A            00BA6  7185  1          +
 000B8E 5BE0 C050            00000  7190  2  716.                  S     R14,#FBERCNT        Calc number not needed on left
 000B92 41F0 0008            00008  7191  2  717.                  LA    R15,8
 000B96 1BFE                        7192  2  718.                  SR    R15,R14             Calc AND mask
 000B98 41FF A358            00DC4  7193  2  719.                  LA    R15,FBITERM(R15)
 000B9C D400 C068 F000 00018 00000  7194  2  720.                  NC    #FBELMSK,@R15       Turn off extras
 000BA2 58E0 C050            00000  7195  2  721.                  L     R14,#FBERCNT        Number really needed on left
 000BA6                             7196  1  722.                END   ,                   Not all bits from the left
 000BA6 43F0 C068            00018  7200  1  723.                IC    R15,#FBELMSK        Get left mask
 000BAA 44F0 A8B4            01320  7201  1  724.                EX    R15,'TM @RM,0'      Are the blocks available
 001320 9100 8000      00000        7209  1          +
 000BAE 4770 A14A            00BB6  7217  1  725.                IF    Z,'ST R14,#FBEPCNT' Add to count possible
 000BB2 50E0 C054            00004  7229  1          +
 000BB6 A14E           00BB6 00BB0  7234  1  726.                ELSE  BEGIN               Calc count possible
 000BB6 47F0 A174            00BE0  7239  1          +
 000BBA 48E0 C064            00014  7245  2  727.                  LH    R14,#FBELEFT        Bits needed on left
 000BBE 43FE A347            00DB3  7246  2  728.                  IC    R15,FBITEFM-1(R14)  Get start bit mask
 000BC2 1BEE                        7247  2  729.                  CLEAR R14
 000BC4                             7251  2  730.                  LOOP  BEGIN
 000BC4 44F0 A8B8            01324  7257  3  731.                    EX    R15,'TM @RM,0'      Block available?
 001324 9100 8000      00000        7265  3          +
 000BC8 4770 A16C            00BD8  7273  3  732.                    IF    NZ,EXIT             No
 000BCC 88F0 0001            00001  7287  3  733.                    SRL   R15,1               Test next bit
 000BD0 5EE0 A88C            012F8  7288  3  734.                    INCR  R14                 Increment count
 000BD4 47F0 A158            00BC4  7291  2  735.                  END   ,
 000BD8 50E0 C054            00004  7296  2  736.                  ST    R14,#FBEPCNT        Set possible count
 000BDC 47F0 A39C            00E08  7297  2  737.                  B     FBITEXTE            Exit
 000BE0                             7298  1  738.                END   ,                   Calc count possible
 000BE0 4180 8001            00001  7302  1  739.                LA    RM,@RM+1            Point to first full byte
 000BE4                             7303     740.              END   ,                   Some needed on the left
0000BE4 5860 C060/1266       00010  7308     742.              IF    ('LT RX,#FBEFBYT',NZ),BEGIN Full bytes needed
 000BEA 4780 A20E            00C7A  7319             +
 000BEE 5980 C058            00008  7324  1  743.                IF    (RM,EQ,#FBEBEND),BEGIN Left byte last in bitmap
 000BF2 4770 A19A            00C06  7336  1          +
 000BF6 41F0 0001            00001  7341  2  744.                  INCR  R15,#FBECMAP        Check next map
 000BFA 5EF0 C05C            0000C  7345  2          +
 000BFE 50F0 C05C            0000C  7346  2          +
 000C02 4D10 A360            00DCC  7347  2  745.                  BAS   RS,FBITEGET         Get next map bitmap
1FILEBIT  (FILEBI) (09:38) (22MAR04) ORVYL'S File Block Manager                                                             Page   53
0Current Usings:  (PZERO,R0) (ABNL,R2) (FSB,R3) (FBITEXTN,R10) (@FMFSB-72,R12) (@FDOIODO-72,R13)
0Loc    Object Code    Addr1 Addr2  Stmt Lv Lineno    Source Statement           (Hibal 5, Asmedit 3.3)  HLASM R4.0  2004/03/22 09.38
+___    ______ ____    _____ _____  ____ __ ______    ______ _________
0000C06                             7348  1  746.                END   ,                   Left byte last in bitmap
 000C06                             7352  1  747.                LOOP  BEGIN               Check all of the full bytes
 000C06 5890 C058            00008  7358  2  748.                  L     RN,#FBEBEND         Get end of bitmap pointer
 000C0A 1B98                        7359  2  749.                  SR    RN,RM               Calc bytes to end
 000C0C 1996/4750 A1AA       00C16  7360  2  750.                  IF    (RN,GE,RX),BEGIN    Enough to check here
 000C12 1896                        7375  3  751.                    LR    RN,RX               Check the remainder needed
 000C14 1B66                        7376  3  752.                    CLEAR RX                  No more needed after this
 000C16                             7380  2  753.                  END   ,
 000C16 A1AE           00C16 00C10  7384  2  754.                  ELSE  BEGIN
 000C16 47F0 A1B0            00C1C  7389  2          +
 000C1A 1B69                        7395  3  755.                    SR    RX,RN               Calc amount still to check
 000C1C                             7396  2  756.                  END   ,
 000C1C 1BFF                        7400  2  757.                  CLEAR R15                 Check for available
 000C1E 1879                        7404  2  758.                  LR    RY,RN               Remember how many being checked
 000C20 0F8E/4780 A1E8       00C54  7405  2  759.                  IF    ('CLCL RM,R14',NZ),BEGIN Not available
 000C26 41F0 0080            00080  7418  3  760.                    LA    R15,X'80'           Get mask
 000C2A 1B11                        7419  3  761.                    CLEAR RS
 000C2C                             7423  3  762.                    LOOP  BEGIN               Loop forever
 000C2C 44F0 A8BC            01328  7429  4  763.                      EX    R15,'TM @RM,0'      Is the block available
 001328 9100 8000      00000        7437  4          +
 000C30 4770 A1D4            00C40  7445  4  764.                      IF    NZ,EXIT             No
 000C34 5E10 A88C            012F8  7459  4  765.                      INCR  RS                  Increment possible count
 000C38 88F0 0001            00001  7462  4  766.                      SRL   R15,1               Test next bit
 000C3C 47F0 A1C0            00C2C  7463  3  767.                    END   ,                   Loop forever
 000C40 1B79                        7468  3  768.                    SR    RY,RN               Calc bytes that were available
 000C42 8970 0003            00003  7469  3  769.                    SLL   RY,3                Calc bits that were available
 000C46 1A71                        7470  3  770.                    AR    RY,RS               Add bits on right
 000C48 5A70 C054            00004  7471  3  771.                    A     RY,#FBEPCNT         Add to possible count
 000C4C 5070 C054            00004  7472  3  772.                    ST    RY,#FBEPCNT         Save
 000C50 47F0 A39C            00E08  7473  3  773.                    B     FBITEXTE            Exit
 000C54                             7474  2  774.                  END   ,                   Not available
 000C54 8970 0003            00003  7478  2  775.                  SLL   RY,3                Calc bits
 000C58 5A70 C054            00004  7479  2  776.                  A     RY,#FBEPCNT         Add to possible count
 000C5C 5070 C054            00004  7480  2  777.                  ST    RY,#FBEPCNT         Save
 000C60 1266/4780 A20E       00C7A  7481  2  778.                  IF    (RX,Z),EXIT         Done
 000C66 41F0 0001            00001  7498  2  779.                  INCR  R15,#FBECMAP        Check next map
 000C6A 5EF0 C05C            0000C  7502  2          +
 000C6E 50F0 C05C            0000C  7503  2          +
 000C72 4D10 A360            00DCC  7504  2  780.                  BAS   RS,FBITEGET         Get next map bitmap
 000C76 47F0 A19A            00C06  7505  1  781.                END   ,                   Check all of the full bytes
 000C7A                             7510     782.              END   ,                   Full bytes needed
0000C7A                             7515     784.              IF    (#FBERITE,NZ),BEGIN Some needed on the right
 000C7A D601 C066 C066 00016 00016  7525             +
 000C80 4780 A26E            00CDA  7526             +
 000C84 5980 C058            00008  7531  1  785.                IF    (RM,EQ,#FBEBEND),BEGIN Last full byte last in bitmap
 000C88 4770 A230            00C9C  7543  1          +
 000C8C 41F0 0001            00001  7548  2  786.                  INCR  R15,#FBECMAP        Check next map
 000C90 5EF0 C05C            0000C  7552  2          +
 000C94 50F0 C05C            0000C  7553  2          +
 000C98 4D10 A360            00DCC  7554  2  787.                  BAS   RS,FBITEGET         Get next map bitmap
 000C9C                             7555  1  788.                END   ,                   Last full byte last in bitmap
 000C9C 48E0 C066            00016  7559  1  789.                LH    R14,#FBERITE        Count on right
 000CA0 43FE A358            00DC4  7560  1  790.                IC    R15,FBITERM(R14)    Get right mask
1FILEBIT  (FILEBI) (09:38) (22MAR04) ORVYL'S File Block Manager                                                             Page   54
0Current Usings:  (PZERO,R0) (ABNL,R2) (FSB,R3) (FBITEXTN,R10) (@FMFSB-72,R12) (@FDOIODO-72,R13)
0Loc    Object Code    Addr1 Addr2  Stmt Lv Lineno    Source Statement           (Hibal 5, Asmedit 3.3)  HLASM R4.0  2004/03/22 09.38
+___    ______ ____    _____ _____  ____ __ ______    ______ _________
0000CA4 44F0 A8C0            0132C  7561  1  791.                EX    R15,'TM @RM,0'      Are the right bits available?
 00132C 9100 8000      00000        7569  1          +
 000CA8 4780 A266            00CD2  7577  1  792.                IF    NZ,BEGIN            So close!
 000CAC 41F0 0080            00080  7588  2  793.                  LA    R15,X'80'           Get mask
 000CB0 1B11                        7589  2  794.                  CLEAR RS
 000CB2                             7593  2  795.                  LOOP  BEGIN               Loop forever
 000CB2 44F0 A8C4            01330  7599  3  796.                    EX    R15,'TM @RM,0'      Is the block available
 001330 9100 8000      00000        7607  3          +
 000CB6 4770 A25A            00CC6  7615  3  797.                    IF    NZ,EXIT             No
 000CBA 5E10 A88C            012F8  7629  3  798.                    INCR  RS                  Increment possible count
 000CBE 88F0 0001            00001  7632  3  799.                    SRL   R15,1               Test next bit
 000CC2 47F0 A246            00CB2  7633  2  800.                  END   ,                   Loop forever
 000CC6 5A10 C054            00004  7638  2  801.                  A     RS,#FBEPCNT         Add to possible count
 000CCA 5010 C054            00004  7639  2  802.                  ST    RS,#FBEPCNT         Save
 000CCE 47F0 A39C            00E08  7640  2  803.                  B     FBITEXTE            Exit
 000CD2                             7641  1  804.                END   ,                   So close!
 000CD2 5AE0 C054            00004  7645  1  805.                A     R14,#FBEPCNT        Add to possible count
 000CD6 50E0 C054            00004  7646  1  806.                ST    R14,#FBEPCNT        Save
 000CDA                             7647     807.              END   ,                   Some needed on the right
0000CDA 9180 C069      00019        7652     809.              IF    #FBETEST,FBITEXTE   Done if just checking
 000CDE 4710 A39C            00E08  7664             +
0000CE2                             7671     811.              IF    (#FBERITE,NZ),BEGIN Some needed on the right
 000CE2 D601 C066 C066 00016 00016  7681             +
 000CE8 4780 A290            00CFC  7682             +
 000CEC 44F0 A8C8            01334  7687  1  812.                EX    R15,'OI @RM,0'      Get the ones on the right
 001334 9600 8000      00000        7695  1          +
 000CF0 5980 2038            00038  7703  1  813.                IF    (RM,EQ,ABNLRBUF),BEGIN Right byte first in bitmap
 000CF4 4770 A290            00CFC  7715  1          +
 000CF8 4D10 A380            00DEC  7720  2  814.                  BAS   RS,FBITEPUT         Put bitmap away
 000CFC                             7721  1  815.                END   ,                   Right byte first in bitmap
 000CFC                             7725     816.              END   ,                   Some needed on the right
0000CFC 5860 C060/1266       00010  7730     818.              IF    ('LT RX,#FBEFBYT',NZ),BEGIN Full bytes needed
 000D02 4780 A314            00D80  7741             +
 000D06 5980 2038            00038  7746  1  819.                IF    (RM,EQ,ABNLRBUF),BEGIN Right byte first in bitmap
 000D0A 4770 A2B4            00D20  7758  1          +
 000D0E 58F0 C05C/06F0       0000C  7763  2  820.                  DECR  R15,#FBECMAP        Back to last map
 000D14 50F0 C05C            0000C  7767  2          +
 000D18 4D10 A360            00DCC  7768  2  821.                  BAS   RS,FBITEGET         Get next map bitmap
 000D1C 5880 C058            00008  7769  2  822.                  L     RM,#FBEBEND         Point past the end
 000D20                             7770  1  823.                END   ,                   Right byte first in bitmap
 000D20                             7774  1  824.                LOOP  BEGIN               Loop forever 3
 000D20 1898                        7780  2  825.                  LR    RN,RM               End pointer
 000D22 5B90 2038            00038  7781  2  826.                  S     RN,ABNLRBUF         Count of bytes
 000D26 1996/4750 A2C4       00D30  7782  2  827.                  IF    (RN,GE,RX),BEGIN    All in this block
 000D2C 1896                        7797  3  828.                    LR    RN,RX               Get count to get
 000D2E 1B66                        7798  3  829.                    CLEAR RX                  No more remaining to get
 000D30                             7802  2  830.                  END   ,                   All in this block
 000D30 A2C8           00D30 00D2A  7806  2  831.                  ELSE  BEGIN               Not all in this block
 000D30 47F0 A2CA            00D36  7811  2          +
 000D34 1B69                        7817  3  832.                    SR    RX,RN               Calc count remaining
 000D36                             7818  2  833.                  END   ,
1FILEBIT  (FILEBI) (09:38) (22MAR04) ORVYL'S File Block Manager                                                             Page   55
0Current Usings:  (PZERO,R0) (ABNL,R2) (FSB,R3) (FBITEXTN,R10) (@FMFSB-72,R12) (@FDOIODO-72,R13)
0Loc    Object Code    Addr1 Addr2  Stmt Lv Lineno    Source Statement           (Hibal 5, Asmedit 3.3)  HLASM R4.0  2004/03/22 09.38
+___    ______ ____    _____ _____  ____ __ ______    ______ _________
0000D36 1B89                        7822  2  834.                  SR    RM,RN               Point to start of get
 000D38 1266/4770 A2EA       00D56  7823  2  835.                  IF    ((RX,Z),AND,(RM,NE,ABNLRBUF)),BEGIN Get left bits now
 000D3E 5980 2038            00038  7847  2          +
 000D42 4780 A2EA            00D56  7848  2          +
 000D46 18F8                        7853  3  836.                    LR    R15,RM              Point to first full byte
 000D48 06F0                        7854  3  837.                    DECR  R15                 Back up one
 000D4A D600 F000 C068 00000 00018  7856  3  838.                    OC    @R15(1),#FBELMSK    Get left bits now
 000D50                             7857  3  839.                    CLEAR #FBELEFT            Don't do it again
 000D50 D701 C064 C064 00014 00014  7863  3          +
 000D56                             7864  2  840.                  END   ,                   Get left bits now
 000D56 58F0 A890            012FC  7868  2  841.                  L     R15,=X'FF000000'    Set to not available
 000D5A 1878                        7869  2  842.                  LR    RY,RM               Save start of move
 000D5C 0E8E                        7870  2  843.                  MVCL  RM,R14
 000D5E 4D10 A380            00DEC  7871  2  844.                  BAS   RS,FBITEPUT         File away
 000D62 1887                        7872  2  845.                  LR    RM,RY               Restore start of move
 000D64 1266/4780 A314       00D80  7873  2  846.                  IF    (RX,Z),EXIT         Got all the full bytes
 000D6A 58F0 C05C/06F0       0000C  7890  2  847.                  DECR  R15,#FBECMAP        Back to last map
 000D70 50F0 C05C            0000C  7894  2          +
 000D74 4D10 A360            00DCC  7895  2  848.                  BAS   RS,FBITEGET         Get next map bitmap
 000D78 5880 C058            00008  7896  2  849.                  L     RM,#FBEBEND         Point past the end
 000D7C 47F0 A2B4            00D20  7897  1  850.                END   ,                   Loop forever 3
 000D80                             7902     851.              END   ,                   Full bytes needed
0000D80                             7907     853.              IF    (#FBELEFT,NZ),BEGIN Some needed on the left
 000D80 D601 C064 C064 00014 00014  7917             +
 000D86 4780 A344            00DB0  7918             +
 000D8A 5980 2038            00038  7923  1  854.                IF    (RM,EQ,ABNLRBUF),BEGIN First full byte first in bitmap
 000D8E 4770 A338            00DA4  7935  1          +
 000D92 58F0 C05C/06F0       0000C  7940  2  855.                  DECR  R15,#FBECMAP        Back to last map
 000D98 50F0 C05C            0000C  7944  2          +
 000D9C 4D10 A360            00DCC  7945  2  856.                  BAS   RS,FBITEGET         Get next map bitmap
 000DA0 5880 C058            00008  7946  2  857.                  L     RM,#FBEBEND         Point past the end
 000DA4                             7947  1  858.                END   ,                   First full byte first in bitmap
 000DA4 0680                        7951  1  859.                DECR  RM                  Point to left bits
 000DA6 D600 8000 C068 00000 00018  7953  1  860.                OC    @RM(1),#FBELMSK     Get left bits
 000DAC 4D10 A380            00DEC  7954  1  861.                BAS   RS,FBITEPUT         File away
 000DB0                             7955     862.              END   ,                   Some needed on the left
0000DB0 47F0 A3AC            00E18  7960     864.              B     FBITEXTG            Done
0                                   7962     866.     * Masks of first bit need on the left
 000DB4 01020408                    7963     867.     FBITEFM  DC    B'00000001',B'00000010',B'00000100',B'00001000'
 000DB8 10204080                    7964     868.              DC    B'00010000',B'00100000',B'01000000',B'10000000'
0                                   7966     870.     * Masks of bits need on the left
 000DBC 0103070F                    7967     871.     FBITELM  DC    B'00000001',B'00000011',B'00000111',B'00001111'
 000DC0 1F3F7FFF                    7968     872.              DC    B'00011111',B'00111111',B'01111111',B'11111111'
0                                   7970     874.     * Masks of bits need on the right
 000DC4 0080C0E0                    7971     875.     FBITERM  DC    B'00000000',B'10000000',B'11000000',B'11100000'
 000DC8 F0F8FCFE                    7972     876.              DC    B'11110000',B'11111000',B'11111100',B'11111110'
0000DCC                             7974     878.     FBITEGET LABEL ,
 000DCC 58F0 C05C            0000C  7976     879.              L     R15,#FBECMAP        Get current bitmap to process
1FILEBIT  (FILEBI) (09:38) (22MAR04) ORVYL'S File Block Manager                                                             Page   56
0Current Usings:  (PZERO,R0) (ABNL,R2) (FSB,R3) (FBITEXTN,R10) (@FMFSB-72,R12) (@FDOIODO-72,R13)
0Loc    Object Code    Addr1 Addr2  Stmt Lv Lineno    Source Statement           (Hibal 5, Asmedit 3.3)  HLASM R4.0  2004/03/22 09.38
+___    ______ ____    _____ _____  ____ __ ______    ______ _________
0000DD0 5AF0 30D4            000D4  7977     880.              A     R15,FSBBITSB        Calc real file sys block number
 000DD4 50F0 D04C            00004  7978     881.              ST    R15,@FDOBLK         Set block number
 000DD8 9680 D057      0000F        7979     882.              SET   @FDOFR              Read
 000DDC 58F0 A894/0DEF       01300  7985     883.              VCALL FDOIODO             Get the bitmap block
 000DE2 947F D057      0000F        7989     884.              CLEAR @FDOFR
 000DE6 5880 2038            00038  7996     885.              L     RM,ABNLRBUF         Point to the bitmap
 000DEA 07F1                        7997     886.              BR    RS
0000DEC                             7999     888.     FBITEPUT LABEL ,
 000DEC 58F0 C05C            0000C  8001     889.              L     R15,#FBECMAP        Get current bitmap to process
 000DF0 5AF0 30D4            000D4  8002     890.              A     R15,FSBBITSB        Calc real file sys block number
 000DF4 50F0 D04C            00004  8003     891.              ST    R15,@FDOBLK         Set block number
 000DF8 9640 D057      0000F        8004     892.              SET   @FDOFW              Write
 000DFC 58F0 A894/0DEF       01300  8010     893.              VCALL FDOIODO             Put the bitmap block back
 000E02 94BF D057      0000F        8014     894.              CLEAR @FDOFW
 000E06 07F1                        8021     895.              BR    RS
0000E08                             8023     897.     FBITEXTE LABEL ,                   Not able to fulfil request
 000E08 5800 C054/1200       00004  8025     898.              IF    ('LT RVR,#FBEPCNT',Z),'BCTR RVR,0' None possible
 000E0E 4770 A3A8/0600       00E14  8036             +
 000E14 47F0 A3DE            00E4A  8047     899.              B     FBITEXTX
0000E18                             8049     901.     FBITEXTG LABEL ,                   Extend successful, good
 000E18 58E0 30DC            000DC  8051     902.              L     R14,FSBABLK         Update avail block count
 000E1C                             8052     903.              LOOP  BEGIN
 000E1C 18FE                        8058  1  904.                LR    R15,R14
 000E1E 5BF0 C050            00000  8059  1  905.                S     R15,#FBERCNT        Subtract count requested
 000E22 BAEF 30DC            000DC  8060  1  906.                CS    R14,R15,FSBABLK
 000E26 4770 A3B0            00E1C  8061     907.              UNTIL Z,END
 000E2A 58E0 2058            00058  8080     908.              L     R14,ABNLTGET        Update the total blks dispensed
 000E2E                             8081     909.              LOOP  BEGIN
 000E2E 18FE                        8087  1  910.                LR    R15,R14
 000E30 5AF0 C050            00000  8088  1  911.                A     R15,#FBERCNT        Add count obtained
 000E34 BAEF 2058            00058  8089  1  912.                CS    R14,R15,ABNLTGET
 000E38 4770 A3C2            00E2E  8090     913.              UNTIL Z,END
 000E3C 58F0 2034            00034  8109     914.              L     R15,ABNLACNT        Update count in bitmap also
 000E40 5BF0 C050            00000  8110     915.              S     R15,#FBERCNT
 000E44 50F0 2034            00034  8111     916.              ST    R15,ABNLACNT
 000E48 1B00                        8112     917.              CLEAR RVR                 Set return
0000E4A                             8117     919.     FBITEXTX LABEL ,                   Exit
 000E4A 9180 C04C      00004        8119     920.              IF    ~@FMFSBO,BEGIN      Not internal call
 000E4E 4710 A402            00E6E  8129             +
 000E52 1890                        8134  1  921.                LR    RN,RVR              Save return code
 DROP   @FDOIODO-72,R13             8135  1  922.                GRREL RID=ABNLGRID        Release resource hold
 USING  @GRES-72,R13
 000E54 D708 D048 D048 00000 00000  8156  1          +
 000E5A D203 D04C 2004 00004 00004  8161  1          +
 000E60 58F0 A898/0DEF       01304  8164  1          +
 000E66 58F0 A89C/0DEF       01308  8166  1  923.                ACALL FBITCLR             Wake anyone waiting
 000E6C 1809                        8173  1  924.                LR    RVR,RN              Restore return code
 000E6E                             8174     925.              END   ,
0000E6E 981F C008            00008  8179     927.              PEND  ,
1FILEBIT  (FILEBI) (09:38) (22MAR04) ORVYL'S File Block Manager                                                             Page   57
0Current Usings:  (PZERO,R0) (@GRES-72,R13)
0Loc    Object Code    Addr1 Addr2  Stmt Lv Lineno    Source Statement           (Hibal 5, Asmedit 3.3)  HLASM R4.0  2004/03/22 09.38
+___    ______ ____    _____ _____  ____ __ ______    ______ _________
0DROP   ABNL,R2
 DROP   FSB,R3
 DROP   @FMFSB-72,R12
 DROP   FBITEXTN,R10
 000E72 9680 C000/0B0E 00000        8204             +
 DROP   @GRES-72,R13
1FILEBIT  (FILEBI) (09:38) (22MAR04) ORVYL'S File Block Manager                                                             Page   58
0Current Usings:  (PZERO,R0)
0Loc    Object Code    Addr1 Addr2  Stmt Lv Lineno    Source Statement           (Hibal 5, Asmedit 3.3)  HLASM R4.0  2004/03/22 09.38
+___    ______ ____    _____ _____  ____ __ ______    ______ _________
0                                   8214     929.     *---------------------------------------------------------------------*
                                    8215     930.     *  FBITRCON - Release a contiguous range of block numbers from a
                                    8216     931.     *             starting block number.
                                    8217     932.     *
                                    8218     933.     *   Inputs - RVR = Count of block numbers to release
                                    8219     934.     *            RS  = Starting block number
                                    8220     935.     *
                                    8221     936.     *   Output - None
                                    8222     937.     *
                                    8223     938.     *---------------------------------------------------------------------*
 000000                00000 00015  8224     939.     #FBRCON  RECORD BEGIN
 000000                             8232  1  940.     #FBRRCNT   DS    F                   Count to release
 000004                             8233  1  941.     #FBRBEND   DS    A                   Bitmap buffer end
 000008                             8234  1  942.     #FBRCMAP   DS    F                   Current bitmap being checked
 00000C                             8235  1  943.     #FBRFBYT   DS    F                   Count of full bytes to release
 000010                             8236  1  944.     #FBRLEFT   DS    H                   Number of bits in left byte
 000012                             8237  1  945.     #FBRRITE   DS    H                   Number of bits in right byte
 000014                             8238  1  946.     #FBRLMSK   DS    X                   Left mask
 000015                00015 00015  8239     947.              END   ,
 000E78                             8248     948.     FBITRCON PROC  @FMFSB,#FBRCON,SCOPE=GLOBAL
 000E78 C6C2C9E3D9C3D6D5            8254             +
 000E80 0008/0018                   8255             +
 000E84 900F D004/18AF       00004  8257             +
 USING  FBITRCON,R10
 000E8A 50D0 C000/18CD       00000  8272             +
 000E90 9680 C000      00000        8274             +
 USING  @FMFSB-72,R12
 AUSING (#FBRCON,@FMFSB+8)
 000E94 41D0 C068            00068  8293             +
 USING  FSB,R3                      8294     949.              WITH  (FSB,RB)
 000E98 5830 C048            00000  8307     950.              L     RB,@FMFSBP          Point to the FSB
 USING  ABNL,R2                     8308     951.              WITH  (ABNL,RA)
 000E9C 5820 30E8            000E8  8321     952.              L     RA,FSBABNL          Point to the ABNL
0000EA0                             8323     954.              CLEAR #FBRCON             Clear work area
 000EA0 D714 C050 C050 00000 00000  8329             +
 000EA6 9180 2008      00008        8330     955.              IF    ABNLFCLO,'EXIT FBITRCON' Process closed
 000EAA 47E0 A02E            00EB2  8340             +
 000EAE 47F0 A35A            011DE  8348             +
 000EB2 5910 30E0            000E0  8353     956.              IF    (RS,GE,FSBTBLK),'ABORT FBITRCON1' Beyond end
 000EB6 4750 A066            00EEA  8365             +
 000EBA AC04 021B      0021B        8374  1          +
 000EBE 9680 021A      0021A        8380  1          +
 000EC2 50F0 021C            0021C  8381  1          +
 000EC6 58F0 0210            00210  8382  1          +
 000ECA 89F0 0010            00010  8383  1          +
 000ECE 88F0 0010            00010  8384  1          +
 000ED2 41F0 F000            00000  8385  1          +
 000ED6 AEFF 0006            00006  8386  1          +
 000EDA C6C2C9E3D9C3D6D5            8387             +
0000EEA 18E0                        8393     958.              LR    R14,RVR             Get count
 000EEC 1AE1                        8394     959.              AR    R14,RS              Calc last block + 1
 000EEE 59E0 30E0            000E0  8395     960.              IF    (R14,GT,FSBTBLK),'ABORT FBITRCON2' More than max
1FILEBIT  (FILEBI) (09:38) (22MAR04) ORVYL'S File Block Manager                                                             Page   59
0Current Usings:  (PZERO,R0) (ABNL,R2) (FSB,R3) (FBITRCON,R10) (@FMFSB-72,R12)
0Loc    Object Code    Addr1 Addr2  Stmt Lv Lineno    Source Statement           (Hibal 5, Asmedit 3.3)  HLASM R4.0  2004/03/22 09.38
+___    ______ ____    _____ _____  ____ __ ______    ______ _________
0000EF2 47D0 A0A2            00F26  8407             +
 000EF6 AC04 021B      0021B        8416  1          +
 000EFA 9680 021A      0021A        8422  1          +
 000EFE 50F0 021C            0021C  8423  1          +
 000F02 58F0 0210            00210  8424  1          +
 000F06 89F0 0010            00010  8425  1          +
 000F0A 88F0 0010            00010  8426  1          +
 000F0E 41F0 F000            00000  8427  1          +
 000F12 AEFF 0006            00006  8428  1          +
 000F16 C6C2C9E3D9C3D6D5            8429             +
0000F26 5000 C050            00000  8435     962.              ST    RVR,#FBRRCNT        Save count
 000F2A 1B88                        8436     963.              CLEAR RM
 000F2C 1891                        8440     964.              LR    RN,RS               Get first block number
 000F2E 5D80 A468            012EC  8441     965.              D     RM,=F'8'            Calc first byte
 000F32 1288/4780 A0BE       00F42  8442     966.              IF    (RM,NZ),BEGIN       Not a full byte on left
 000F38 41E0 0008            00008  8456  1  967.                LA    R14,8               Count of bits in byte
 000F3C 1BE8                        8457  1  968.                SR    R14,RM              Calc count bits on left
 000F3E 40E0 C060            00010  8458  1  969.                STH   R14,#FBRLEFT        Save
 000F42                             8459     970.              END   ,                   Not a full byte on left
 000F42 1B88                        8463     971.              CLEAR RM
 000F44 4800 30AC            000AC  8467     972.              LH    RVR,FSBDSZ          Get bitmap block size
 000F48 1D80                        8468     973.              DR    RM,RVR              Calc first bitmap
 000F4A 5090 C058            00008  8469     974.              ST    RN,#FBRCMAP         Save first bitmap
 000F4E 1898                        8470     975.              LR    RN,RM               Save first byte in bitmap
 000F50 58F0 C050            00000  8471     976.              L     R15,#FBRRCNT        Get count of blocks requested
 000F54 4BF0 C060            00010  8472     977.              SH    R15,#FBRLEFT        Subtract count on left
 000F58 47D0 A0E6            00F6A  8473     978.              IF    POS,BEGIN           More needed than in left byte
 000F5C 1BEE                        8484  1  979.                CLEAR R14
 000F5E 5DE0 A468            012EC  8488  1  980.                D     R14,=F'8'           Number of bits per byte
 000F62 50F0 C05C            0000C  8489  1  981.                ST    R15,#FBRFBYT        Count of full bytes needed
 000F66 40E0 C062            00012  8490  1  982.                STH   R14,#FBRRITE        Count of bits on right
 000F6A                             8491     983.              END   ,                   More needed than in left byte
0000F6A 58F0 2038            00038  8496     985.              L     R15,ABNLRBUF        Bitmap buffer addre
 000F6E 4AF0 30AC            000AC  8497     986.              AH    R15,FSBDSZ          Calc end
 000F72 50F0 C054            00004  8498     987.              ST    R15,#FBRBEND        Save
0USING  @GRES-72,R13                8500     989.              GRGET RID=ABNLGRID,EXCL=YES Get bitmap resource
 000F76 D708 D048 D048 00000 00000  8518             +
 000F7C D203 D04C 2004 00004 00004  8523             +
 000F82 9680 D050      00008        8529             +
 000F86 9640 D050      00008        8535             +
 000F8A 58F0 A470/0DEF       012F4  8538             +
 DROP   @GRES-72,R13                8540     990.              PSET  @FDOIODO            Common IO parm area
 USING  @FDOIODO-72,R13
 000F90 D70F D048 D048 00000 00000  8560             +
 000F96                             8561     991.              PMOV  @FDODATA,ABNLRBUF   Use our buffer
 000F96 D203 D050 2038 00008 00038  8565             +
 000F9C                             8566     992.              PMOV  @FDODATL,FSBDSZ
 000F9C D201 D054 30AC 0000C 000AC  8570             +
 000FA2 5030 D048            00000  8571     993.              PMOV  @FDOFSB,LA:FSB      FSB pointer
 000FA6 4D10 A2C6            0114A  8582     994.              BAS   RS,FBITRGET         Get the bitmap
 000FAA 1A89                        8583     995.              AR    RM,RN               Point to first byte on left
1FILEBIT  (FILEBI) (09:38) (22MAR04) ORVYL'S File Block Manager                                                             Page   60
0Current Usings:  (PZERO,R0) (ABNL,R2) (FSB,R3) (FBITRCON,R10) (@FMFSB-72,R12) (@FDOIODO-72,R13)
0Loc    Object Code    Addr1 Addr2  Stmt Lv Lineno    Source Statement           (Hibal 5, Asmedit 3.3)  HLASM R4.0  2004/03/22 09.38
+___    ______ ____    _____ _____  ____ __ ______    ______ _________
0000FAC 48E0 C060            00010  8585     997.              LH    R14,#FBRLEFT        Bits to release on left
 000FB0 12EE/4780 A1A2       01026  8586     998.              IF    (R14,NZ),BEGIN      Some to release on the left
 000FB6 41FE A2B6            0113A  8600  1  999.                LA    R15,FBITRLM(R14)
 000FBA D200 C064 F000 00014 00000  8601  1 1000.                MVC   #FBRLMSK,@R15       Get mask for left bits
 000FC0 59E0 C050            00000  8602  1 1001.                IF    (R14,GT,#FBRRCNT),BEGIN Not all bits from the left
 000FC4 47D0 A158            00FDC  8614  1          +
 000FC8 5BE0 C050            00000  8619  2 1002.                  S     R14,#FBRRCNT        Calc number not needed on left
 000FCC 41F0 0008            00008  8620  2 1003.                  LA    R15,8
 000FD0 1BFE                        8621  2 1004.                  SR    R15,R14             Calc AND mask
 000FD2 41FF A2BE            01142  8622  2 1005.                  LA    R15,FBITRRM(R15)
 000FD6 D400 C064 F000 00014 00000  8623  2 1006.                  NC    #FBRLMSK,@R15       Turn off extras
 000FDC                             8624  1 1007.                END   ,                   Not all bits from the left
 000FDC 43F0 C064            00014  8628  1 1008.                IC    R15,#FBRLMSK        Get left mask
 000FE0 44F0 A4B4            01338  8629  1 1009.                EX    R15,'TM @RM,0'      Are the blocks available
 001338 9100 8000      00000        8637  1          +
 000FE4 4710 A194            01018  8645  1 1010.                IF    NO,'ABORT FBITRCON3' Error
 000FE8 AC04 021B      0021B        8660  2          +
 000FEC 9680 021A      0021A        8666  2          +
 000FF0 50F0 021C            0021C  8667  2          +
 000FF4 58F0 0210            00210  8668  2          +
 000FF8 89F0 0010            00010  8669  2          +
 000FFC 88F0 0010            00010  8670  2          +
 001000 41F0 F000            00000  8671  2          +
 001004 AEFF 0006            00006  8672  2          +
 001008 C6C2C9E3D9C3D6D5            8673  1          +
 001018 41E0 00FF            000FF  8678  1 1011.                LA    R14,255
 00101C 1BEF                        8679  1 1012.                SR    R14,R15             Calc AND mask
 00101E 44E0 A4B8            0133C  8680  1 1013.                EX    R14,'NI @RM,0'      Free the blocks
 00133C 9400 8000      00000        8688  1          +
 001022 4180 8001            00001  8696  1 1014.                LA    RM,@RM+1            Point to first full byte
 001026                             8697    1015.              END   ,                   Some on the left
0001026 5860 C05C/1266       0000C  8702    1017.              IF    ('LT RX,#FBRFBYT',NZ),BEGIN Full bytes to release
 00102C 4780 A23E            010C2  8713             +
 001030 5980 C054            00004  8718  1 1018.                IF    (RM,EQ,#FBRBEND),BEGIN Left byte last in bitmap
 001034 4770 A1C8            0104C  8730  1          +
 001038 4D10 A2E6            0116A  8735  2 1019.                  BAS   RS,FBITRPUT         File away
 00103C 41F0 0001            00001  8736  2 1020.                  INCR  R15,#FBRCMAP        Check next map
 001040 5EF0 C058            00008  8740  2          +
 001044 50F0 C058            00008  8741  2          +
 001048 4D10 A2C6            0114A  8742  2 1021.                  BAS   RS,FBITRGET         Get next map bitmap
 00104C                             8743  1 1022.                END   ,                   Left byte last in bitmap
 00104C                             8747  1 1023.                LOOP  BEGIN               Check all of the full bytes
 00104C 5890 C054            00004  8753  2 1024.                  L     RN,#FBRBEND         Get end of bitmap pointer
 001050 1B98                        8754  2 1025.                  SR    RN,RM               Calc bytes to end
 001052 1996/4750 A1D8       0105C  8755  2 1026.                  IF    (RN,GE,RX),BEGIN    Enough to check here
 001058 1896                        8770  3 1027.                    LR    RN,RX               Check the remainder needed
 00105A 1B66                        8771  3 1028.                    CLEAR RX                  No more needed after this
 00105C                             8775  2 1029.                  END   ,
 00105C A1DC           0105C 01056  8779  2 1030.                  ELSE  BEGIN
 00105C 47F0 A1DE            01062  8784  2          +
 001060 1B69                        8790  3 1031.                    SR    RX,RN               Calc amount still to check
 001062                             8791  2 1032.                  END   ,
1FILEBIT  (FILEBI) (09:38) (22MAR04) ORVYL'S File Block Manager                                                             Page   61
0Current Usings:  (PZERO,R0) (ABNL,R2) (FSB,R3) (FBITRCON,R10) (@FMFSB-72,R12) (@FDOIODO-72,R13)
0Loc    Object Code    Addr1 Addr2  Stmt Lv Lineno    Source Statement           (Hibal 5, Asmedit 3.3)  HLASM R4.0  2004/03/22 09.38
+___    ______ ____    _____ _____  ____ __ ______    ______ _________
0001062 58F0 A478            012FC  8796  2 1034.                  L     R15,=X'FF000000'    Check for not available
 001066 1808                        8797  2 1035.                  LR    RVR,RM              Get start
 001068 1819                        8798  2 1036.                  LR    RS,RN               Get count
 00106A 0F0E/4780 A21C       010A0  8799  2 1037.                  IF    ('CLCL R0,R14',NZ),'ABORT FBITRCON4'
 001070 AC04 021B      0021B        8816  3          +
 001074 9680 021A      0021A        8822  3          +
 001078 50F0 021C            0021C  8823  3          +
 00107C 58F0 0210            00210  8824  3          +
 001080 89F0 0010            00010  8825  3          +
 001084 88F0 0010            00010  8826  3          +
 001088 41F0 F000            00000  8827  3          +
 00108C AEFF 0006            00006  8828  3          +
 001090 C6C2C9E3D9C3D6D5            8829  2          +
 0010A0 1BFF                        8834  2 1038.                  CLEAR R15                 Set to available
 0010A2 0E8E                        8838  2 1039.                  MVCL  RM,R14
 0010A4 4D10 A2E6            0116A  8839  2 1040.                  BAS   RS,FBITRPUT         File away
 0010A8 1266/4780 A23E       010C2  8840  2 1041.                  IF    (RX,Z),EXIT         Done
 0010AE 41F0 0001            00001  8857  2 1042.                  INCR  R15,#FBRCMAP        Check next map
 0010B2 5EF0 C058            00008  8861  2          +
 0010B6 50F0 C058            00008  8862  2          +
 0010BA 4D10 A2C6            0114A  8863  2 1043.                  BAS   RS,FBITRGET         Get next map bitmap
 0010BE 47F0 A1C8            0104C  8864  1 1044.                END   ,                   Check all of the full bytes
 0010C2                             8869    1045.              END   ,                   Full bytes needed
00010C2                             8874    1047.              IF    (#FBRRITE,NZ),BEGIN Some on the right
 0010C2 D601 C062 C062 00012 00012  8884             +
 0010C8 4780 A2B2            01136  8885             +
 0010CC 5980 C054            00004  8890  1 1048.                IF    (RM,EQ,#FBRBEND),BEGIN Last full byte last in bitmap
 0010D0 4770 A264            010E8  8902  1          +
 0010D4 4D10 A2E6            0116A  8907  2 1049.                  BAS   RS,FBITRPUT         File away
 0010D8 41F0 0001            00001  8908  2 1050.                  INCR  R15,#FBRCMAP        Check next map
 0010DC 5EF0 C058            00008  8912  2          +
 0010E0 50F0 C058            00008  8913  2          +
 0010E4 4D10 A2C6            0114A  8914  2 1051.                  BAS   RS,FBITRGET         Get next map bitmap
 0010E8                             8915  1 1052.                END   ,                   Last full byte last in bitmap
 0010E8 48E0 C062            00012  8919  1 1053.                LH    R14,#FBRRITE        Count on right
 0010EC 43FE A2BE            01142  8920  1 1054.                IC    R15,FBITRRM(R14)    Get right mask
 0010F0 44F0 A4BC            01340  8921  1 1055.                EX    R15,'TM @RM,0'      Are the right bits unavailable?
 001340 9100 8000      00000        8929  1          +
 0010F4 4710 A2A4            01128  8937  1 1056.                IF    NO,'ABORT FBITRCON5' So close!
 0010F8 AC04 021B      0021B        8952  2          +
 0010FC 9680 021A      0021A        8958  2          +
 001100 50F0 021C            0021C  8959  2          +
 001104 58F0 0210            00210  8960  2          +
 001108 89F0 0010            00010  8961  2          +
 00110C 88F0 0010            00010  8962  2          +
 001110 41F0 F000            00000  8963  2          +
 001114 AEFF 0006            00006  8964  2          +
 001118 C6C2C9E3D9C3D6D5            8965  1          +
 001128 41E0 00FF            000FF  8970  1 1057.                LA    R14,255
 00112C 1BEF                        8971  1 1058.                SR    R14,R15             Calc AND mask
 00112E 44E0 A4C0            01344  8972  1 1059.                EX    R14,'NI @RM,0'      Free the blocks
 001344 9400 8000      00000        8980  1          +
 001132 4D10 A2E6            0116A  8988  1 1060.                BAS   RS,FBITRPUT         File away
1FILEBIT  (FILEBI) (09:38) (22MAR04) ORVYL'S File Block Manager                                                             Page   62
0Current Usings:  (PZERO,R0) (ABNL,R2) (FSB,R3) (FBITRCON,R10) (@FMFSB-72,R12) (@FDOIODO-72,R13)
0Loc    Object Code    Addr1 Addr2  Stmt Lv Lineno    Source Statement           (Hibal 5, Asmedit 3.3)  HLASM R4.0  2004/03/22 09.38
+___    ______ ____    _____ _____  ____ __ ______    ______ _________
0001136                             8989    1061.              END   ,                   Some needed on the right
0001136 47F0 A30E            01192  8994    1063.              B     FBITRCOX            Done
0                                   8996    1065.     * Masks of bits need on the left
 00113A 00010307                    8997    1066.     FBITRLM  DC    B'00000000',B'00000001',B'00000011',B'00000111'
 00113E 0F1F3F7F                    8998    1067.              DC    B'00001111',B'00011111',B'00111111',B'01111111'
0                                   9000    1069.     * Masks of bits need on the right
 001142 0080C0E0                    9001    1070.     FBITRRM  DC    B'00000000',B'10000000',B'11000000',B'11100000'
 001146 F0F8FCFE                    9002    1071.              DC    B'11110000',B'11111000',B'11111100',B'11111110'
000114A                             9004    1073.     FBITRGET LABEL ,
 00114A 58F0 C058            00008  9006    1074.              L     R15,#FBRCMAP        Get current bitmap to process
 00114E 5AF0 30D4            000D4  9007    1075.              A     R15,FSBBITSB        Calc real file sys block number
 001152 50F0 D04C            00004  9008    1076.              ST    R15,@FDOBLK         Set block number
 001156 9680 D057      0000F        9009    1077.              SET   @FDOFR              Read
 00115A 58F0 A47C/0DEF       01300  9015    1078.              VCALL FDOIODO             Get the bitmap block
 001160 947F D057      0000F        9019    1079.              CLEAR @FDOFR
 001164 5880 2038            00038  9026    1080.              L     RM,ABNLRBUF         Point to the bitmap
 001168 07F1                        9027    1081.              BR    RS
000116A                             9029    1083.     FBITRPUT LABEL ,
 00116A 58F0 C058            00008  9031    1084.              L     R15,#FBRCMAP        Get current bitmap to process
 00116E 59F0 2044            00044  9032    1085.              IF    (R15,LT,ABNLLMAP),'ST R15,ABNLLMAP' New lowest
 001172 47B0 A2F6            0117A  9044             +
 001176 50F0 2044            00044  9050             +
 00117A 5AF0 30D4            000D4  9055    1086.              A     R15,FSBBITSB        Calc real file sys block number
 00117E 50F0 D04C            00004  9056    1087.              ST    R15,@FDOBLK         Set block number
 001182 9640 D057      0000F        9057    1088.              SET   @FDOFW              Write
 001186 58F0 A47C/0DEF       01300  9063    1089.              VCALL FDOIODO             Put the bitmap block back
 00118C 94BF D057      0000F        9067    1090.              CLEAR @FDOFW
 001190 07F1                        9074    1091.              BR    RS
0001192                             9076    1093.     FBITRCOX LABEL ,                   Release successful, good
 001192 58E0 30DC            000DC  9078    1094.              L     R14,FSBABLK         Update avail block count
 001196                             9079    1095.              LOOP  BEGIN
 001196 18FE                        9085  1 1096.                LR    R15,R14
 001198 5AF0 C050            00000  9086  1 1097.                A     R15,#FBRRCNT        Add count released
 00119C BAEF 30DC            000DC  9087  1 1098.                CS    R14,R15,FSBABLK
 0011A0 4770 A312            01196  9088    1099.              UNTIL Z,END
 0011A4 58E0 2054            00054  9107    1100.              L     R14,ABNLTREL        Update the total blks released
 0011A8                             9108    1101.              LOOP  BEGIN
 0011A8 18FE                        9114  1 1102.                LR    R15,R14
 0011AA 5AF0 C050            00000  9115  1 1103.                A     R15,#FBRRCNT        Add count released
 0011AE BAEF 2054            00054  9116  1 1104.                CS    R14,R15,ABNLTREL
 0011B2 4770 A324            011A8  9117    1105.              UNTIL Z,END
 0011B6 58F0 2034            00034  9136    1106.              L     R15,ABNLACNT        Update count in bitmap also
 0011BA 5AF0 C050            00000  9137    1107.              A     R15,#FBRRCNT
 0011BE 50F0 2034            00034  9138    1108.              ST    R15,ABNLACNT
 0011C2 1B00                        9139    1109.              CLEAR RVR                 Set return
0DROP   @FDOIODO-72,R13             9144    1111.              GRREL RID=ABNLGRID        Release resource hold
 USING  @GRES-72,R13
1FILEBIT  (FILEBI) (09:38) (22MAR04) ORVYL'S File Block Manager                                                             Page   63
0Current Usings:  (PZERO,R0) (ABNL,R2) (FSB,R3) (FBITRCON,R10) (@FMFSB-72,R12) (@GRES-72,R13)
0Loc    Object Code    Addr1 Addr2  Stmt Lv Lineno    Source Statement           (Hibal 5, Asmedit 3.3)  HLASM R4.0  2004/03/22 09.38
+___    ______ ____    _____ _____  ____ __ ______    ______ _________
00011C4 D708 D048 D048 00000 00000  9165             +
 0011CA D203 D04C 2004 00004 00004  9170             +
 0011D0 58F0 A480/0DEF       01304  9173             +
 0011D6 58F0 A484/0DEF       01308  9175    1112.              ACALL FBITCLR             Wake anyone waiting
 0011DC 1B00                        9182    1113.              CLEAR RVR
00011DE 981F C008            00008  9187    1115.              PEND  ,
 DROP   ABNL,R2
 DROP   FSB,R3
 DROP   @FMFSB-72,R12
 DROP   FBITRCON,R10
 0011E2 9680 C000/0B0E 00000        9212             +
 DROP   @GRES-72,R13
1FILEBIT  (FILEBI) (09:38) (22MAR04) ORVYL'S File Block Manager                                                             Page   64
0Current Usings:  (PZERO,R0)
0Loc    Object Code    Addr1 Addr2  Stmt Lv Lineno    Source Statement           (Hibal 5, Asmedit 3.3)  HLASM R4.0  2004/03/22 09.38
+___    ______ ____    _____ _____  ____ __ ______    ______ _________
0                                   9222    1117.     *---------------------------------------------------------------------*
                                    9223    1118.     *  FBITMAN - Start the maintenance of the avail block no list (ABNL)
                                    9224    1119.     *
                                    9225    1120.     *   Inputs - RA points to ABNL and RB points to FSB
                                    9226    1121.     *
                                    9227    1122.     *   Output - None
                                    9228    1123.     *
                                    9229    1124.     *---------------------------------------------------------------------*
 0011E8                             9230    1125.     FBITMANG PROC  ,
 0011E8 C6C2C9E3D4C1D5C7            9237             +
 0011F0 0000/0000                   9238             +
 0011F4 900F D004/18AF       00004  9240             +
 USING  FBITMANG,R10
 0011FA 50D0 C000/18CD       00000  9255             +
 001200 9680 C000      00000        9257             +
 001204 41D0 C048            00048  9258             +
 USING  FSB,R3                      9259    1126.              WITH  (FSB,RB)
 USING  ABNL,R2                     9272    1127.              WITH  (ABNL,RA)
0USING  @GRES-72,R13                9286    1129.              GRGET RID=ABNLGRID,EXCL=YES,WAIT=NO
 001208 D708 D048 D048 00000 00000  9304             +
 00120E D203 D04C 2004 00004 00004  9309             +
 001214 9640 D050      00008        9315             +
 001218 58F0 A100/0DEF       012F4  9318             +
 00121E 1200/4780 A04E       01242  9320    1130.              IF    (RVR,NZ),BEGIN      Resource is ours
 001224 58F0 A118/0DEF       0130C  9334  1 1131.                ACALL FBITMGET            Get some
 00122A                             9341  1 1132.                GRREL RID=ABNLGRID        Release resource hold
 00122A D708 D048 D048 00000 00000  9352  1          +
 001230 D203 D04C 2004 00004 00004  9357  1          +
 001236 58F0 A110/0DEF       01304  9360  1          +
 00123C 58F0 A114/0DEF       01308  9362  1 1133.                ACALL FBITCLR             Wake anyone waiting
 001242                             9369    1134.              END   ,
0                                   9374    1136.     * If none to get, wait for maintenace to finish
 001242 A052           01242 01222  9375    1137.              ELSE  BEGIN
 001242 47F0 A066            0125A  9380             +
 001246 58F0 2018            00018  9386  1 1138.                L     R15,ABNLCNT
 00124A 12FF/4770 A066       0125A  9387  1 1139.                IF    (R15,Z),BEGIN
 001250 5800 A11C            01310  9401  2 1140.                  L     RVR,=C'MGET'
 001254 58F0 A120/0DEF       01314  9402  2 1141.                  ACALL FBITWAIT
 00125A                             9409  1 1142.                END   ,
 00125A                             9413    1143.              END   ,
 00125A 981F C008            00008  9417    1144.              PEND  ,
 DROP   ABNL,R2
 DROP   FSB,R3
 DROP   FBITMANG,R10
 00125E 9680 C000/0B0E 00000        9437             +
 DROP   @GRES-72,R13
 001264                             9446    1145.     FBITMANR PROC  ,
 001264 C6C2C9E3D4C1D5D9            9453             +
 00126C 0000/0000                   9454             +
 001270 900F D004/18AF       00004  9456             +
 USING  FBITMANR,R10
 001276 50D0 C000/18CD       00000  9471             +
1FILEBIT  (FILEBI) (09:38) (22MAR04) ORVYL'S File Block Manager                                                             Page   65
0Current Usings:  (PZERO,R0) (FBITMANR,R10)
0Loc    Object Code    Addr1 Addr2  Stmt Lv Lineno    Source Statement           (Hibal 5, Asmedit 3.3)  HLASM R4.0  2004/03/22 09.38
+___    ______ ____    _____ _____  ____ __ ______    ______ _________
000127C 9680 C000      00000        9473             +
 001280 41D0 C048            00048  9474             +
 USING  FSB,R3                      9475    1146.              WITH  (FSB,RB)
 USING  ABNL,R2                     9488    1147.              WITH  (ABNL,RA)
0USING  @GRES-72,R13                9502    1149.              GRGET RID=ABNLGRID,EXCL=YES,WAIT=NO
 001284 D708 D048 D048 00000 00000  9520             +
 00128A D203 D04C 2004 00004 00004  9525             +
 001290 9640 D050      00008        9531             +
 001294 58F0 A084/0DEF       012F4  9534             +
 00129A 1200/4780 A04E       012BE  9536    1150.              IF    (RVR,NZ),BEGIN      Resource is ours
 0012A0 58F0 A0A8/0DEF       01318  9550  1 1151.                ACALL FBITMREL            Put some back
 0012A6                             9557  1 1152.                GRREL RID=ABNLGRID        Release resource hold
 0012A6 D708 D048 D048 00000 00000  9568  1          +
 0012AC D203 D04C 2004 00004 00004  9573  1          +
 0012B2 58F0 A094/0DEF       01304  9576  1          +
 0012B8 58F0 A098/0DEF       01308  9578  1 1153.                ACALL FBITCLR             Wake anyone waiting
 0012BE                             9585    1154.              END   ,
0                                   9590    1156.     * If no room to put back, wait for maintenace to finish
 0012BE A052           012BE 0129E  9591    1157.              ELSE  BEGIN
 0012BE 47F0 A068            012D8  9596             +
 0012C2 58F0 2018            00018  9602  1 1158.                L     R15,ABNLCNT
 0012C6 59F0 2024            00024  9603  1 1159.                IF    (R15,GE,ABNLMCNT),BEGIN
 0012CA 4750 A068            012D8  9615  1          +
 0012CE 5800 A0AC            0131C  9620  2 1160.                  L     RVR,=C'MREL'
 0012D2 58F0 A0A4/0DEF       01314  9621  2 1161.                  ACALL FBITWAIT
 0012D8                             9628  1 1162.                END   ,
 0012D8                             9632    1163.              END   ,
 0012D8 981F C008            00008  9636    1164.              PEND  ,
 DROP   ABNL,R2
 DROP   FSB,R3
 DROP   FBITMANR,R10
 0012DC 9680 C000/0B0E 00000        9656             +
 DROP   @GRES-72,R13
 0012E8                             9665    1165.              LTORG ,
 0012E8 FFFFFFFF                    9667                             =F'-1'
 0012EC 00000008                    9668                             =F'8'
 0012F0 00000008                    9669                             =AL4(8)
 0012F4 00000000                    9670                             =V(GRGET)
 0012F8 00000001                    9671                             =A(1)
 0012FC FF000000                    9672                             =X'FF000000'
 001300 00000000                    9673                             =V(FDOIODO)
 001304 00000000                    9674                             =V(GRREL)
 001308 00001A9E                    9675                             =A(FBITCLR)
 00130C 0000155A                    9676                             =A(FBITMGET)
 001310 D4C7C5E3                    9677                             =C'MGET'
 001314 0000197C                    9678                             =A(FBITWAIT)
 001318 00001354                    9679                             =A(FBITMREL)
 00131C D4D9C5D3       01348 01C80  9680                             =C'MREL'
1FILEBIT  (FILEBI) (09:38) (22MAR04) ORVYL'S File Block Manager                                                             Page   66
0Current Usings:  (PZERO,R0)
0Loc    Object Code    Addr1 Addr2  Stmt Lv Lineno    Source Statement           (Hibal 5, Asmedit 3.3)  HLASM R4.0  2004/03/22 09.38
+___    ______ ____    _____ _____  ____ __ ______    ______ _________
0                                   9685    1167.     *---------------------------------------------------------------------*
                                    9686    1168.     *  FBITMREL - Put some block numbers back into the bitmap file
                                    9687    1169.     *
                                    9688    1170.     *   Inputs - RA points to ABNL and RB points to FSB
                                    9689    1171.     *
                                    9690    1172.     *   Output - None
                                    9691    1173.     *
                                    9692    1174.     *---------------------------------------------------------------------*
 001348                             9693    1175.     FBITMREL PROC  ,
 001348 C6C2C9E3D4D9C5D3            9700             +
 001350 0000/0000                   9701             +
 001354 900F D004/18AF       00004  9703             +
 USING  FBITMREL,R10
 00135A 50D0 C000/18CD       00000  9718             +
 001360 9680 C000      00000        9720             +
 001364 41D0 C048            00048  9721             +
 USING  FSB,R3                      9722    1176.              WITH  (FSB,RB)
 USING  ABNL,R2                     9735    1177.              WITH  (ABNL,RA)
0001368 58E0 204C/18FE       0004C  9749    1179.              INCRS ABNLMREL            Number of times this routine
 00136E 5EF0 A8C4            01C18  9760  1          +
 001372 BAEF 204C            0004C  9761             +
 001376 4770 A018            0136C  9775             +
000137A 5810 203C            0003C  9782    1181.              L     RS,ABNLBWK          Get the work block
 00137E 1B99                        9783    1182.              CLEAR RN                  Clear count of blocks to return
 USING  @FMFSB-72,R13               9787    1183.              PSET  @FMFSB
 001380 D704 D048 D048 00000 00000  9804             +
 001386 5030 D048            00000  9805    1184.              PMOV  @FMFSBP,LA:FSB
 00138A 9680 D04C      00004        9816    1185.              SET   @FMFSBO             Set maintenance flag on
 00138E 9140 2008      00008        9822    1186.              IF    ABNLFCLR,'CLEAR RM' Clear buffer
 001392 47E0 A044/1B88       01398  9832             +
 001398 A048           01398 01394  9846    1187.              ELSE  'L RM,ABNLMED'      Count of block numbers to buffer
 001398 47F0 A04C            013A0  9851             +
 00139C 5880 202C            0002C  9858             +
                                    9863    1188.     * While the blocks buffered is higher than desired
 0013A0 58F0 2018            00018  9864    1189.              L     R15,ABNLCNT
 0013A4 198F/47B0 A07E       013D2  9865    1190.              WHILE ((RM,LT,R15),AND,(RN,LT,ABNLBWKC)),BEGIN
 0013AA 5990 2040            00040  9892             +
 0013AE 47B0 A07E            013D2  9893             +
 0013B2 58F0 A8C8/0DEF       01C1C  9898  1 1191.                ACALL FBITGET             Get a number
 0013B8 1200/4780 A07E       013D2  9905  1 1192.                IF    (RVR,Z),EXIT        Exit loop
 0013BE 5000 1000            00000  9922  1 1193.                ST    RVR,@RS             Save in work
 0013C2 4110 1004            00004  9923  1 1194.                LA    RS,@RS+4            Point to next slot
 0013C6 5E90 A8C4            01C18  9924  1 1195.                INCR  RN                  Count it
 0013CA 58F0 2018            00018  9927  1 1196.                L     R15,ABNLCNT
 0013CE 47F0 A050            013A4  9928    1197.              END   ,
 0013D2 9140 2008      00008        9933    1198.              IF    ~ABNLFCLR,'ACALL FBITCLR' Wake anyone waiting
 0013D6 4710 A08C            013E0  9943             +
 0013DA 58F0 A8CC/0DEF       01C20  9954             +
 0013E0 1299/4780 A1E0       01534  9960    1199.              WHILE (RN,NZ),BEGIN       Release blocks back to the system
 DROP   @FMFSB-72,R13               9976  1 1200.                PSET  @FDOIODO            Common IO parm area
 USING  @FDOIODO-72,R13
 0013E6 D70F D048 D048 00000 00000  9996  1          +
1FILEBIT  (FILEBI) (09:38) (22MAR04) ORVYL'S File Block Manager                                                             Page   67
0Current Usings:  (PZERO,R0) (ABNL,R2) (FSB,R3) (FBITMREL,R10) (@FDOIODO-72,R13)
0Loc    Object Code    Addr1 Addr2  Stmt Lv Lineno    Source Statement           (Hibal 5, Asmedit 3.3)  HLASM R4.0  2004/03/22 09.38
+___    ______ ____    _____ _____  ____ __ ______    ______ _________
00013EC                             9997  1 1201.                PMOV  @FDODATA,ABNLRBUF   Use our buffer
 0013EC D203 D050 2038 00008 00038 10001  1          +
 0013F2                            10002  1 1202.                PMOV  @FDODATL,FSBDSZ
 0013F2 D201 D054 30AC 0000C 000AC 10006  1          +
 0013F8 5030 D048            00000 10007  1 1203.                PMOV  @FDOFSB,LA:FSB      FSB pointer
00013FC 5810 203C            0003C 10019  1 1205.                L     RS,ABNLBWK          Point to the beginning of the block
 001400 1BEE                       10020  1 1206.                CLEAR R14
 001402 58F0 1000            00000 10024  1 1207.                L     R15,@RS             Get block number
 001406 4840 30AC            000AC 10025  1 1208.                LH    RJ,FSBDSZ
 00140A 8940 0003            00003 10026  1 1209.                SLL   RJ,3                Calc number of bits per block
 00140E 1DE4                       10027  1 1210.                DR    R14,RJ              Calc bitmap number
 001410 187F                       10028  1 1211.                LR    RY,R15              Save bitmap block number
 001412 5AF0 30D4            000D4 10029  1 1212.                A     R15,FSBBITSB        Calc real file sys block number
 001416 50F0 D04C            00004 10030  1 1213.                PMOV  @FDOBLK,(R15)       Set block number
 00141A 9680 D057      0000F       10040  1 1214.                SET   @FDOFR              Read
 00141E 58F0 A8D0/0DEF       01C24 10046  1 1215.                VCALL FDOIODO             Get the bitmap block
 001424 947F D057      0000F       10050  1 1216.                CLEAR @FDOFR
 001428 1889                       10057  1 1217.                LR    RM,RN               Get count to give back
 00142A 1859                       10058  1 1218.                LR    RK,RN               And again
 00142C 0650                       10059  1 1219.                DECR  RK
 00142E 8950 0002            00002 10061  1 1220.                SLL   RK,2                Calc disp to last one
 001432 4155 1000            00000 10062  1 1221.                LA    RK,@RS(RK)          Point to the last one
 001436 5970 2044            00044 10063  1 1222.                IF    (RY,LT,ABNLLMAP),'ST RY,ABNLLMAP' Use this one
 00143A 47B0 A0EE            01442 10075  1          +
 00143E 5070 2044            00044 10081  1          +
 001442                            10086  1 1223.                LOOP  BEGIN
 001442 1BEE                       10092  2 1224.                  CLEAR R14
 001444 58F0 1000            00000 10096  2 1225.                  L     R15,@RS             Get block number
 001448 1DE4                       10097  2 1226.                  DR    R14,RJ              Calc bitmap number
 00144A 19F7/4770 A16C       014C0 10098  2 1227.                  IF    (R15,EQ,RY),BEGIN   In this block?
 001450 8CE0 0003            00003 10113  3 1228.                    SRDL  R14,3               Calc disp to byte
 001454 88F0 001D            0001D 10114  3 1229.                    SRL   R15,32-3            Calc bit number
 001458 5AE0 D050            00008 10115  3 1230.                    A     R14,@FDODATA        Point to the byte
 00145C 436F A1F2            01546 10116  3 1231.                    IC    RX,BITTABT(R15)     Get bit mask
 001460 4460 A91A            01C6E 10117  3 1232.                    EX    RX,'TM @R14,0'      It should be not available
 001C6D 00/9100 E000   00000              3          +
 001464 4770 A144            01498 10133  3 1233.                    IF    Z,'ABORT BADFBITMRELCODE' Oooooppps!!!??!
 001468 AC04 021B      0021B       10148  4          +
 00146C 9680 021A      0021A       10154  4          +
 001470 50F0 021C            0021C 10155  4          +
 001474 58F0 0210            00210 10156  4          +
 001478 89F0 0010            00010 10157  4          +
 00147C 88F0 0010            00010 10158  4          +
 001480 41F0 F000            00000 10159  4          +
 001484 AEFF 0006            00006 10160  4          +
 001488 C2C1C4C6C2C9E3D4           10161  3          +
 001498 41FF A1EA            0153E 10166  3 1234.                    LA    R15,BITTABN(R15)    Get bit mask
 00149C D400 E000 F000 00000 00000 10167  3 1235.                    NC    0(1,R14),@R15       Give this block back
 0014A2 41F0 0001            00001 10168  3 1236.                    INCR  R15,ABNLACNT        Increment count in bitmaps
 0014A6 5EF0 2034            00034 10172  3          +
 0014AA 50F0 2034            00034 10173  3          +
 0014AE D203 1000 5000 00000 00000 10174  3 1237.                    MVC   0(4,RS),@RK         Replace with last one
 0014B4 D703 5000 5000 00000 00000 10175  3 1238.                    XC    0(4,RK),@RK         Clear last one
1FILEBIT  (FILEBI) (09:38) (22MAR04) ORVYL'S File Block Manager                                                             Page   68
0Current Usings:  (PZERO,R0) (ABNL,R2) (FSB,R3) (FBITMREL,R10) (@FDOIODO-72,R13)
0Loc    Object Code    Addr1 Addr2  Stmt Lv Lineno    Source Statement           (Hibal 5, Asmedit 3.3)  HLASM R4.0  2004/03/22 09.38
+___    ______ ____    _____ _____  ____ __ ______    ______ _________
00014BA 4B50 A90C            01C60 10176  3 1239.                    SH    RK,=H'4'            Point to new last one
 0014BE 0690                       10177  3 1240.                    DECR  RN                  One more put back
 0014C0                            10179  2 1241.                  END   ,                   End in this block
 0014C0 A170           014C0 0144E 10183  2 1242.                  ELSE  'LA RS,@RS+4'       Increment the pointer
 0014C0 47F0 A174            014C8 10188  2          +
 0014C4 4110 1004            00004 10195  2          +
 0014C8 4680 A0EE            01442 10200  1 1243.                UNTIL (BCT,RM),END        Make a pass through block nos
00014CC 9640 D057      0000F       10211  1 1245.                SET   @FDOFW              Write
 0014D0 58F0 A8D0/0DEF       01C24 10217  1 1246.                VCALL FDOIODO             Put the bitmap block back
 0014D6 94BF D057      0000F       10221  1 1247.                CLEAR @FDOFW
 0014DA 1299/4770 A190       014E4 10228  1 1248.                IF    (RN,Z),'EXIT FBITMREL' If done, then done
 0014E0 47F0 A1E0            01534 10245  1          +
00014E4 9140 2008      00008       10251  1 1250.                IF    ~ABNLFCLR,BEGIN     Not clear buffer
 0014E8 4710 A1DC            01530 10261  1          +
 0014EC 5880 202C            0002C 10266  2 1251.                  L     RM,ABNLMED          Count of block numbers to buffer
 0014F0 58F0 2018            00018 10267  2 1252.                  L     R15,ABNLCNT
 0014F4 1B8F                       10268  2 1253.                  SR    RM,R15              Calc count under init value
 0014F6 47D0 A1DC            01530 10269  2 1254.                  IF    P,BEGIN             Lots used while we were busy
 0014FA 1989/47D0 A1B0       01504 10280  3 1255.                    IF    (RM,GT,RN),BEGIN
 001500 1889                       10295  4 1256.                      LR    RM,RN               Get count left
 001502 1B99                       10296  4 1257.                      CLEAR RN                  Set this right
 001504                            10300  3 1258.                    END   ,
 001504 A1B4           01504 014FE 10304  3 1259.                    ELSE  'SR RN,RM'          Remove amount given back
 001504 47F0 A1B6/1B98       0150A 10309  3          +
 DROP   @FDOIODO-72,R13            10321  3 1260.                    PSET  @FMFSB
 USING  @FMFSB-72,R13
 00150A D704 D048 D048 00000 00000 10341  3          +
 001510 5030 D048            00000 10342  3 1261.                    PMOV  @FMFSBP,LA:FSB
 001514 9680 D04C      00004       10353  3 1262.                    SET   @FMFSBO             Set maintenance flag on
 001518                            10359  3 1263.                    LOOP  BEGIN
 001518 5800 5000            00000 10365  4 1264.                      L     RVR,@RK             Get block number
 00151C 58F0 A8D4/0DEF       01C28 10366  4 1265.                      ACALL FBITREL             'Release' back to pool
 001522 D703 5000 5000 00000 00000 10373  4 1266.                      XC    0(4,RK),@RK
 001528 4B50 A90C            01C60 10374  4 1267.                      SH    RK,=H'4'            Back up
 00152C 4680 A1C4            01518 10375  3 1268.                    UNTIL (BCT,RM),END
 001530                            10385  2 1269.                  END   ,                   Lots used while we were busy
 001530                            10389  1 1270.                END   ,                   Not clear buffer
0001530 47F0 A08C            013E0 10394    1272.              END   ,                   Release blocks back to the system
 001534 981F C008            00008 10399    1273.              PEND
 DROP   ABNL,R2
 DROP   FSB,R3
 DROP   FBITMREL,R10
 001538 9680 C000/0B0E 00000       10419             +
 DROP   @FMFSB-72,R13
 00153E 7FBFDFEF                   10428    1274.     BITTABN  DC    AL1(255-X'80',255-X'40',255-X'20',255-X'10')
 001542 F7FBFDFE                   10429    1275.              DC    AL1(255-X'08',255-X'04',255-X'02',255-X'01')
 001546 8040201008040201           10430    1276.     BITTABT  DC    AL1(X'80',X'40',X'20',X'10',X'08',X'04',X'02',X'01')
1FILEBIT  (FILEBI) (09:38) (22MAR04) ORVYL'S File Block Manager                                                             Page   69
0Current Usings:  (PZERO,R0)
0Loc    Object Code    Addr1 Addr2  Stmt Lv Lineno    Source Statement           (Hibal 5, Asmedit 3.3)  HLASM R4.0  2004/03/22 09.38
+___    ______ ____    _____ _____  ____ __ ______    ______ _________
0                                  10432    1278.     *---------------------------------------------------------------------*
                                   10433    1279.     *  FBITMGET - Get some more blocks numbers from the file
                                   10434    1280.     *
                                   10435    1281.     *   Inputs - RA points to ABNL and RB points to FSB
                                   10436    1282.     *
                                   10437    1283.     *   Output - None
                                   10438    1284.     *
                                   10439    1285.     *---------------------------------------------------------------------*
 00154E                            10440    1286.     FBITMGET PROC  ,
 00154E C6C2C9E3D4C7C5E3           10447             +
 001556 0000/0000                  10448             +
 00155A 900F D004/18AF       00004 10450             +
 USING  FBITMGET,R10
 001560 50D0 C000/18CD       00000 10465             +
 001566 9680 C000      00000       10467             +
 00156A 41D0 C048            00048 10468             +
 USING  FSB,R3                     10469    1287.              WITH  (FSB,RB)
 USING  ABNL,R2                    10482    1288.              WITH  (ABNL,RA)
000156E 58E0 2050/18FE       00050 10496    1290.              INCRS ABNLMGET            Number of times this routine
 001574 5EF0 A6BE            01C18 10507  1          +
 001578 BAEF 2050            00050 10508             +
 00157C 4770 A018            01572 10522             +
0001580 1B00                       10529    1292.              CLEAR RVR
 001582                            10533    1293.              IF    (ABNLACNT,Z),'EXIT FBITMGET' None left to get!
 001582 D603 2034 2034 00034 00034 10543             +
 001588 4770 A036            01590 10544             +
 00158C 47F0 A194            016EE 10552             +
0001590 5890 203C            0003C 10558    1295.              L     RN,ABNLBWK          Get the work block
 001594 58F0 2018            00018 10559    1296.              L     R15,ABNLCNT
 001598 59F0 202C            0002C 10560    1297.              WHILE ((R15,LT,ABNLMED),AND,(ABNLACNT,NZ)),BEGIN While
 00159C 47B0 A192            016EC 10576             +
 0015A0 D603 2034 2034 00034 00034 10588             +
 0015A6 4780 A192            016EC 10589             +
 0015AA                            10594  1 1298.                IF    (ABNLLMAP,GT,ABNLMMAP),EXIT
 0015AA D503 2044 2048 00044 00048 10606  1          +
 0015B0 4720 A192            016EC 10609  1          +
 0015B4 5860 202C            0002C 10615  1 1299.                L     RX,ABNLMED          Get median count of avail blocks
 0015B8 1B6F                       10616  1 1300.                SR    RX,R15              Calc how many more we need
 0015BA 5960 2034            00034 10617  1 1301.                CEIL  RX,ABNLACNT         Not more than left in bitmaps
 0015BE 47D0 A06C            015C6 10621  1          +
 0015C2 5860 2034            00034 10622  1          +
 0015C6 1B77                       10623  1 1302.                CLEAR RY                  Init count obtained
 0015C8 58F0 2044            00044 10627  1 1303.                L     R15,ABNLLMAP        Get next to read
 0015CC 5AF0 30D4            000D4 10628  1 1304.                A     R15,FSBBITSB        Calc real file sys block number
 USING  @FDOIODO-72,R13            10629  1 1305.                PSET  @FDOIODO            Common IO parm area
 0015D0 D70F D048 D048 00000 00000 10646  1          +
 0015D6                            10647  1 1306.                PMOV  @FDODATA,ABNLRBUF   Use our buffer
 0015D6 D203 D050 2038 00008 00038 10651  1          +
 0015DC                            10652  1 1307.                PMOV  @FDODATL,FSBDSZ
 0015DC D201 D054 30AC 0000C 000AC 10656  1          +
 0015E2 5030 D048            00000 10657  1 1308.                PMOV  @FDOFSB,LA:FSB      FSB pointer
1FILEBIT  (FILEBI) (09:38) (22MAR04) ORVYL'S File Block Manager                                                             Page   70
0Current Usings:  (PZERO,R0) (ABNL,R2) (FSB,R3) (FBITMGET,R10) (@FDOIODO-72,R13)
0Loc    Object Code    Addr1 Addr2  Stmt Lv Lineno    Source Statement           (Hibal 5, Asmedit 3.3)  HLASM R4.0  2004/03/22 09.38
+___    ______ ____    _____ _____  ____ __ ______    ______ _________
00015E6 50F0 D04C            00004 10668  1 1309.                PMOV  @FDOBLK,(R15)       Set block number
 0015EA 9680 D057      0000F       10678  1 1310.                SET   @FDOFR              Read
 0015EE 58F0 A6CA/0DEF       01C24 10684  1 1311.                VCALL FDOIODO             Get the bitmap block
 0015F4 947F D057      0000F       10688  1 1312.                CLEAR @FDOFR
 0015F8 58E0 D050            00008 10695  1 1313.                L     R14,@FDODATA        Point to the bitmap
 0015FC 48F0 D054            0000C 10696  1 1314.                LH    R15,@FDODATL        Length of bitmap
 001600 5810 A6D2            01C2C 10697  1 1315.                L     R1,=X'FF000000'     Compare with not available
 001604 0FE0/4770 A0BC       01616 10698  1 1316.                IF    ('CLCL R14,R0',Z),BEGIN No available blocks
 00160A 41F0 0001            00001 10711  2 1317.                  INCR  R15,ABNLLMAP        Check the next bitmap
 00160E 5EF0 2044            00044 10715  2          +
 001612 50F0 2044            00044 10716  2          +
 001616                            10717  1 1318.                END   ,                   No available blocks
 001616 A0C0           01616 01608 10721  1 1319.                ELSE  BEGIN               Get some from this bitmap
 001616 47F0 A18A            016E4 10726  1          +
 00161A 188F                       10732  2 1320.                  LR    RM,R15              Get bytes to check
 00161C                            10733  2 1321.     FBITMGE6     LOOP  BEGIN               Check rest of bytes
 00161C 95FF E000      00000       10740  3 1322.                    IF    ('CLI @R14,X"FF"',NE),BEGIN
 001620 4780 A130            0168A 10748  3          +
 001624 4150 0008            00008 10753  4 1323.                      LA    RK,8                Eight bits to the byte
 001628 4110 0080            00080 10754  4 1324.                      LA    R1,X'80'            First bit
 00162C                            10755  4 1325.                      LOOP  BEGIN               Check all the bits
 00162C 4410 A718            01C72 10761  5 1326.                        EX    R1,'TM @R14,0'      This block available?
 001C72 9100 E000      00000       10769  5          +
 001630 4770 A128            01682 10777  5 1327.                        IF    Z,BEGIN             Yes!
 001634 5800 2044            00044 10788  6 1328.                          L     R0,ABNLLMAP         Get relative block number
 001638 4C00 30AC            000AC 10789  6 1329.                          MH    R0,FSBDSZ           Block number of first bit this map
 00163C 41F0 E000            00000 10790  6 1330.                          LA    R15,@R14            Point to this byte
 001640 5BF0 D050            00008 10791  6 1331.                          S     R15,@FDODATA        Calc byte number this map
 001644 1A0F                       10792  6 1332.                          AR    R0,R15              Total bytes
 001646 8900 0003            00003 10793  6 1333.                          SLL   R0,3                Eight bits to the byte
 00164A 1FFF/43F5 A70A       01C64 10794  6 1334.                          LC    R15,=AL1(0,7,6,5,4,3,2,1,0)(RK)
 001650 1A0F                       10801  6 1335.                          AR    R0,R15              Calc block number this bit
 001652 5900 30E0            000E0 10802  6 1336.                          IF    (R0,GE,FSBTBLK),'EXIT FBITMGE6' Oops, don't continue
 001656 4750 A104            0165E 10814  6          +
 00165A 47F0 A138            01692 10822  6          +
 00165E 4410 A71C            01C76 10827  6 1337.                          EX    R1,'OI @R14,0'      Set block to unavailable
 001C76 9600 E000      00000       10835  6          +
 001662 58F0 2034/06F0       00034 10843  6 1338.                          DECR  R15,ABNLACNT        Decrement count in bitmaps
 001668 50F0 2034            00034 10847  6          +
 00166C 5000 9000            00000 10848  6 1339.                          ST    R0,@RN              Save in work block
 001670 4190 9004            00004 10849  6 1340.                          LA    RN,@RN+4            Point to next work slot
 001674 5E70 A6BE            01C18 10850  6 1341.                          INCR  RY                  Increment count obtained
 001678 1976/4750 A128       01682 10853  6 1342.                          IF    (RY,GE,RX),'EXIT FBITMGE6' enough
 00167E 47F0 A138            01692 10871  6          +
 001682                            10876  5 1343.                        END   ,                   End if this bit avail
 001682 8810 0001            00001 10880  5 1344.                        SRL   R1,1                Next mask
 001686 4650 A0D2            0162C 10881  4 1345.                      UNTIL (BCT,RK),END        Check all the bits
 00168A                            10891  3 1346.                    END   ,                   End if bits in byte
 00168A 41E0 E001            00001 10895  3 1347.                    LA    R14,@R14+1          Point to the next byte
 00168E 4680 A0C2            0161C 10896  2 1348.                  UNTIL (BCT,RM),END        Check rest of bytes
 001692 1288/4770 A14A       016A4 10906  2 1349.                  IF    (RM,Z),'INCR R15,ABNLLMAP' None left this block
 001698 41F0 0001            00001 10924  3          +
 00169C 5EF0 2044            00044 10925  3          +
 0016A0 50F0 2044            00044 10926  2          +
1FILEBIT  (FILEBI) (09:38) (22MAR04) ORVYL'S File Block Manager                                                             Page   71
0Current Usings:  (PZERO,R0) (ABNL,R2) (FSB,R3) (FBITMGET,R10) (@FDOIODO-72,R13)
0Loc    Object Code    Addr1 Addr2  Stmt Lv Lineno    Source Statement           (Hibal 5, Asmedit 3.3)  HLASM R4.0  2004/03/22 09.38
+___    ______ ____    _____ _____  ____ __ ______    ______ _________
00016A4 1277/4780 A18A       016E4 10931  2 1350.                  IF    (RY,NZ),BEGIN       We got some
 0016AA 9640 D057      0000F       10945  3 1351.                    SET   @FDOFW              Write
 0016AE 58F0 A6CA/0DEF       01C24 10951  3 1352.                    VCALL FDOIODO             Put the bitmap block
 0016B4 94BF D057      0000F       10955  3 1353.                    CLEAR @FDOFW
 DROP   @FDOIODO-72,R13            10962  3 1354.                    PSET  @FMFSB
 USING  @FMFSB-72,R13
 0016B8 D704 D048 D048 00000 00000 10982  3          +
 0016BE 5030 D048            00000 10983  3 1355.                    PMOV  @FMFSBP,LA:FSB
 0016C2 9680 D04C      00004       10994  3 1356.                    SET   @FMFSBO             Set maintenance flag on
 0016C6                            11000  3 1357.                    LOOP  BEGIN               Put blocks obtained into buffer
 0016C6 4B90 A706            01C60 11006  4 1358.                      SH    RN,=H'4'            Back up
 0016CA 5800 9000            00000 11007  4 1359.                      L     RVR,@RN             Get block number
 0016CE 58F0 A6CE/0DEF       01C28 11008  4 1360.                      ACALL FBITREL             'Release' back to pool
 0016D4 D703 9000 9000 00000 00000 11015  4 1361.                      XC    0(4,RN),@RN         Clear work buffer slot
 0016DA 4670 A16C            016C6 11016  3 1362.                    UNTIL (BCT,RY),END        Put blocks obtained into buffer
 0016DE 58F0 A6C6/0DEF       01C20 11026  3 1363.                    ACALL FBITCLR             Wake anyone waiting
 0016E4                            11033  2 1364.                  END   ,                   We got some
 0016E4                            11037  1 1365.                END   ,                   End if bits in block
 0016E4 58F0 2018            00018 11041  1 1366.                L     R15,ABNLCNT
 0016E8 47F0 A03E            01598 11042    1367.              END   ,                   While
00016EC 1B00                       11048    1369.              CLEAR RVR
 0016EE 981F C008            00008 11052    1370.              PEND  ,
 DROP   ABNL,R2
 DROP   FSB,R3
 DROP   FBITMGET,R10
 0016F2 9680 C000/0B0E 00000       11072             +
 DROP   @FMFSB-72,R13
1FILEBIT  (FILEBI) (09:38) (22MAR04) ORVYL'S File Block Manager                                                             Page   72
0Current Usings:  (PZERO,R0)
0Loc    Object Code    Addr1 Addr2  Stmt Lv Lineno    Source Statement           (Hibal 5, Asmedit 3.3)  HLASM R4.0  2004/03/22 09.38
+___    ______ ____    _____ _____  ____ __ ______    ______ _________
0                                  11082    1372.     *---------------------------------------------------------------------*
                                   11083    1373.     *  FBITADDV - Add some more blocks to the file system
                                   11084    1374.     *
                                   11085    1375.     *   Inputs - @FMFSB, RVR = count of blocks to add
                                   11086    1376.     *
                                   11087    1377.     *   Output - None
                                   11088    1378.     *
                                   11089    1379.     *---------------------------------------------------------------------*
 0016F8                            11090    1380.     FBITADDV PROC  @FMFSB,SCOPE=GLOBAL
 0016F8 C6C2C9E3C1C4C4E5           11096             +
 001700 0008/0000                  11097             +
 001704 900F D004/18AF       00004 11099             +
 USING  FBITADDV,R10
 00170A 50D0 C000/18CD       00000 11114             +
 001710 9680 C000      00000       11116             +
 USING  @FMFSB-72,R12
 001714 41D0 C050            00050 11130             +
 USING  FSB,R3                     11131    1381.              WITH  (FSB,RB)
 USING  ABNL,R2                    11144    1382.              WITH  (ABNL,RA)
0001718 1890                       11158    1384.              LR    RN,RVR              Get number of blocks
 00171A 5830 C048            00000 11159    1385.              L     RB,@FMFSBP          Point to the FSB
 00171E 5820 30E8            000E8 11160    1386.              L     RA,FSBABNL          Point to the ABNL
 USING  @GRES-72,R13               11161    1387.              GRGET RID=ABNLGRID,EXCL=YES
 001722 D708 D048 D048 00000 00000 11179             +
 001728 D203 D04C 2004 00004 00004 11184             +
 00172E 9680 D050      00008       11190             +
 001732 9640 D050      00008       11196             +
 001736 58F0 A52C/0DEF       01C30 11199             +
 00173C 1819                       11201    1388.              LR    RS,RN               Get count
 00173E 5A10 30E0            000E0 11202    1389.              A     RS,FSBTBLK
 001742 5010 30E0            000E0 11203    1390.              ST    RS,FSBTBLK          Total blocks in system
 001746 58E0 30DC            000DC 11204    1391.              L     R14,FSBABLK         Update avail block count
 00174A                            11205    1392.              LOOP  BEGIN
 00174A 18FE                       11211  1 1393.                LR    R15,R14
 00174C 1AF9                       11212  1 1394.                AR    R15,RN              Add count
 00174E BAEF 30DC            000DC 11213  1 1395.                CS    R14,R15,FSBABLK
 001752 4770 A046            0174A 11214    1396.              UNTIL Z,END
 001756 58F0 2034            00034 11233    1397.              L     R15,ABNLACNT        Update count in bitmap also
 00175A 1AF9                       11234    1398.              AR    R15,RN
 00175C 50F0 2034            00034 11235    1399.              ST    R15,ABNLACNT
 001760 58F0 30E0            000E0 11236    1400.              L     R15,FSBTBLK         Total count of blocks
 001764 41F0 F007            00007 11237    1401.              LA    R15,@R15+7          Need a byte for extra bits
 001768 88F0 0003            00003 11238    1402.              SRL   R15,3               Calc total bytes of bits
 00176C 1BEE                       11239    1403.              CLEAR R14
 00176E 4810 30AC            000AC 11243    1404.              LH    RS,FSBDSZ           Size of a block
 001772 1DE1                       11244    1405.              DR    R14,RS              Calc number of bitmaps
 001774 12EE/4770 A078       0177C 11245    1406.              IF    (R14,Z),'DECR RS'   Even amount!
 00177A 0610                       11261             +
 00177C 5010 2048            00048 11266    1407.              ST    RS,ABNLMMAP         Save maximum bitmap
 001780                            11267    1408.              GRREL RID=ABNLGRID
 001780 D708 D048 D048 00000 00000 11278             +
 001786 D203 D04C 2004 00004 00004 11283             +
 00178C 58F0 A530/0DEF       01C34 11286             +
1FILEBIT  (FILEBI) (09:38) (22MAR04) ORVYL'S File Block Manager                                                             Page   73
0Current Usings:  (PZERO,R0) (ABNL,R2) (FSB,R3) (FBITADDV,R10) (@FMFSB-72,R12) (@GRES-72,R13)
0Loc    Object Code    Addr1 Addr2  Stmt Lv Lineno    Source Statement           (Hibal 5, Asmedit 3.3)  HLASM R4.0  2004/03/22 09.38
+___    ______ ____    _____ _____  ____ __ ______    ______ _________
0001792 58F0 A51C/0DEF       01C20 11288    1409.              ACALL FBITCLR             Wake anyone waiting
 001798 981F C008            00008 11295    1410.              PEND  ,
 DROP   ABNL,R2
 DROP   FSB,R3
 DROP   @FMFSB-72,R12
 DROP   FBITADDV,R10
 00179C 9680 C000/0B0E 00000       11320             +
 DROP   @GRES-72,R13
1FILEBIT  (FILEBI) (09:38) (22MAR04) ORVYL'S File Block Manager                                                             Page   74
0Current Usings:  (PZERO,R0)
0Loc    Object Code    Addr1 Addr2  Stmt Lv Lineno    Source Statement           (Hibal 5, Asmedit 3.3)  HLASM R4.0  2004/03/22 09.38
+___    ______ ____    _____ _____  ____ __ ______    ______ _________
0                                  11330    1412.     *---------------------------------------------------------------------*
                                   11331    1413.     *  FBITREMV - Remove blocks from the file system
                                   11332    1414.     *
                                   11333    1415.     *   Inputs - @FMFSB, RVR = count of blocks to remove
                                   11334    1416.     *
                                   11335    1417.     *   Output - RVR = 0   Success
                                   11336    1418.     *            RVR = 1   Some blocks in use in range
                                   11337    1419.     *
                                   11338    1420.     *---------------------------------------------------------------------*
 0017A2                            11339    1421.     FBITREMV PROC  @FMFSB,SCOPE=GLOBAL
 0017A2 C6C2C9E3D9C5D4E5           11345             +
 0017AA 0008/0000                  11346             +
 0017AE 900F D004/18AF       00004 11348             +
 USING  FBITREMV,R10
 0017B4 50D0 C000/18CD       00000 11363             +
 0017BA 9680 C000      00000       11365             +
 USING  @FMFSB-72,R12
 0017BE 41D0 C050            00050 11379             +
 USING  FSB,R3                     11380    1422.              WITH  (FSB,RB)
 USING  ABNL,R2                    11393    1423.              WITH  (ABNL,RA)
00017C2 1890                       11407    1425.              LR    RN,RVR              Get number of blocks
 0017C4 5830 C048            00000 11408    1426.              L     RB,@FMFSBP          Point to the FSB
 0017C8 5820 30E8            000E8 11409    1427.              L     RA,FSBABNL          Point to the ABNL
 USING  @GRES-72,R13               11410    1428.              GRGET RID=ABNLGRID,EXCL=YES
 0017CC D708 D048 D048 00000 00000 11428             +
 0017D2 D203 D04C 2004 00004 00004 11433             +
 0017D8 9680 D050      00008       11439             +
 0017DC 9640 D050      00008       11445             +
 0017E0 58F0 A482/0DEF       01C30 11448             +
 0017E6 9640 2008      00008       11450    1429.              SET   ABNLFCLR            Indicate clear buffer
 0017EA 58F0 A48A/0DEF       01C38 11456    1430.              ACALL FBITMREL            Clear the avail block buffer
 0017F0 94BF 2008      00008       11463    1431.              CLEAR ABNLFCLR
 0017F4 5810 30E0            000E0 11470    1432.              L     RS,FSBTBLK          Total blocks
 0017F8 1B19                       11471    1433.              SR    RS,RN               Calc first block of remove
 0017FA 1B00                       11472    1434.              CLEAR RVR                 Check if all blocks avail
 DROP   @GRES-72,R13               11476    1435.              PSET  @FMFSB
 USING  @FMFSB-72,R13
 0017FC D704 D048 D048 00000 00000 11496             +
 001802 5030 D048            00000 11497    1436.              PMOV  @FMFSBP,LA:FSB
 001806 9680 D04C      00004       11508    1437.              SET   @FMFSBO
 00180A 58F0 A48E/0DEF       01C3C 11514    1438.              ACALL FBITEXTN            Check if all blocks available
 001810 1909/4780 A070       0181E 11521    1439.              IF    (RVR,NE,RN),BEGIN
 001816 4190 0001            00001 11536  1 1440.                LA    RN,1                Not possible
 00181A 47F0 A0B6            01864 11537  1 1441.                B     FBITREMX            Exit
 00181E                            11538    1442.              END   ,
000181E 5810 30E0            000E0 11543    1444.              L     RS,FSBTBLK          Get total
 001822 1B19                       11544    1445.              SR    RS,RN               Calc new total
 001824 5010 30E0            000E0 11545    1446.              ST    RS,FSBTBLK          Total blocks in system
 001828 58E0 30DC            000DC 11546    1447.              L     R14,FSBABLK         Update avail block count
 00182C                            11547    1448.              LOOP  BEGIN
 00182C 18FE                       11553  1 1449.                LR    R15,R14
 00182E 1BF9                       11554  1 1450.                SR    R15,RN              Remove count
1FILEBIT  (FILEBI) (09:38) (22MAR04) ORVYL'S File Block Manager                                                             Page   75
0Current Usings:  (PZERO,R0) (ABNL,R2) (FSB,R3) (FBITREMV,R10) (@FMFSB-72,R12) (@FMFSB-72,R13)
0Loc    Object Code    Addr1 Addr2  Stmt Lv Lineno    Source Statement           (Hibal 5, Asmedit 3.3)  HLASM R4.0  2004/03/22 09.38
+___    ______ ____    _____ _____  ____ __ ______    ______ _________
0001830 BAEF 30DC            000DC 11555  1 1451.                CS    R14,R15,FSBABLK
 001834 4770 A07E            0182C 11556    1452.              UNTIL Z,END
 001838 58F0 2034            00034 11575    1453.              L     R15,ABNLACNT        Update count in bitmap also
 00183C 1BF9                       11576    1454.              SR    R15,RN
 00183E 50F0 2034            00034 11577    1455.              ST    R15,ABNLACNT
 001842 58F0 30E0            000E0 11578    1456.              L     R15,FSBTBLK         Total count of blocks
 001846 41F0 F007            00007 11579    1457.              LA    R15,@R15+7          Need a byte for extra bits
 00184A 88F0 0003            00003 11580    1458.              SRL   R15,3               Calc total bytes of bits
 00184E 1BEE                       11581    1459.              CLEAR R14
 001850 4810 30AC            000AC 11585    1460.              LH    RS,FSBDSZ           Size of a block
 001854 1DE1                       11586    1461.              DR    R14,RS              Calc number of bitmaps
 001856 12EE/4770 A0B0       0185E 11587    1462.              IF    (R14,Z),'DECR RS'   Even amount!
 00185C 0610                       11603             +
 00185E 5010 2048            00048 11608    1463.              ST    RS,ABNLMMAP         Save maximum bitmap
 001862 1B99                       11609    1464.              CLEAR RN
0001864                            11614    1466.     FBITREMX LABEL ,
 DROP   @FMFSB-72,R13              11616    1467.              GRREL RID=ABNLGRID
 USING  @GRES-72,R13
 001864 D708 D048 D048 00000 00000 11637             +
 00186A D203 D04C 2004 00004 00004 11642             +
 001870 58F0 A486/0DEF       01C34 11645             +
 001876 58F0 A472/0DEF       01C20 11647    1468.              ACALL FBITCLR             Wake anyone waiting
 00187C 1809                       11654    1469.              LR    RVR,RN              Set return code
 00187E 981F C008            00008 11655    1470.              PEND  ,
 DROP   ABNL,R2
 DROP   FSB,R3
 DROP   @FMFSB-72,R12
 DROP   FBITREMV,R10
 001882 9680 C000/0B0E 00000       11680             +
 DROP   @GRES-72,R13
1FILEBIT  (FILEBI) (09:38) (22MAR04) ORVYL'S File Block Manager                                                             Page   76
0Current Usings:  (PZERO,R0)
0Loc    Object Code    Addr1 Addr2  Stmt Lv Lineno    Source Statement           (Hibal 5, Asmedit 3.3)  HLASM R4.0  2004/03/22 09.38
+___    ______ ____    _____ _____  ____ __ ______    ______ _________
0                                  11691    1473.     *---------------------------------------------------------------------*
                                   11692    1474.     *  FBITACT - Activate bitmap processing
                                   11693    1475.     *
                                   11694    1476.     *   Inputs - @FMFSB
                                   11695    1477.     *
                                   11696    1478.     *   Output - None
                                   11697    1479.     *
                                   11698    1480.     *---------------------------------------------------------------------*
 001888                            11699    1481.     FBITACT  PROC  @FMFSB,SCOPE=GLOBAL
 001888 C6C2C9E3C1C3E340           11705             +
 001890 0008/0000                  11706             +
 001894 900F D004/18AF       00004 11708             +
 USING  FBITACT,R10
 00189A 50D0 C000/18CD       00000 11723             +
 0018A0 9680 C000      00000       11725             +
 USING  @FMFSB-72,R12
 0018A4 41D0 C050            00050 11739             +
 USING  FSB,R3                     11740    1482.              WITH  (FSB,RB)
 USING  ABNL,R2                    11753    1483.              WITH  (ABNL,RA)
00018A8 5830 C048            00000 11767    1485.              L     RB,@FMFSBP          Point to the FSB
 0018AC 5820 30E8            000E8 11768    1486.              L     RA,FSBABNL          Point to the ABNL
 USING  @GRES-72,R13               11769    1487.              GRGET RID=ABNLGRID,EXCL=YES
 0018B0 D708 D048 D048 00000 00000 11787             +
 0018B6 D203 D04C 2004 00004 00004 11792             +
 0018BC 9680 D050      00008       11798             +
 0018C0 9640 D050      00008       11804             +
 0018C4 58F0 A39C/0DEF       01C30 11807             +
 0018CA 4100 3000            00000 11809    1488.              LA    RVR,FSB             Point to the FSB
 0018CE 58F0 A3AC/0DEF       01C40 11810    1489.              ACALL FBITCNT             Count available blocks
 0018D4 947F 2008      00008       11817    1490.              CLEAR ABNLFCLO            Clear process closed
 0018D8                            11824    1491.              GRREL RID=ABNLGRID
 0018D8 D708 D048 D048 00000 00000 11835             +
 0018DE D203 D04C 2004 00004 00004 11840             +
 0018E4 58F0 A3A0/0DEF       01C34 11843             +
 0018EA 58F0 A38C/0DEF       01C20 11845    1492.              ACALL FBITCLR             Wake anyone waiting
 0018F0 981F C008            00008 11852    1493.              PEND  ,
 DROP   ABNL,R2
 DROP   FSB,R3
 DROP   @FMFSB-72,R12
 DROP   FBITACT,R10
 0018F4 9680 C000/0B0E 00000       11877             +
 DROP   @GRES-72,R13
1FILEBIT  (FILEBI) (09:38) (22MAR04) ORVYL'S File Block Manager                                                             Page   77
0Current Usings:  (PZERO,R0)
0Loc    Object Code    Addr1 Addr2  Stmt Lv Lineno    Source Statement           (Hibal 5, Asmedit 3.3)  HLASM R4.0  2004/03/22 09.38
+___    ______ ____    _____ _____  ____ __ ______    ______ _________
0                                  11887    1495.     *---------------------------------------------------------------------*
                                   11888    1496.     *  FBITDEA - Deativate bitmap processing
                                   11889    1497.     *
                                   11890    1498.     *   Inputs - @FMFSB
                                   11891    1499.     *
                                   11892    1500.     *   Output - None
                                   11893    1501.     *
                                   11894    1502.     *---------------------------------------------------------------------*
 0018FA                            11895    1503.     FBITDEA  PROC  @FMFSB,SCOPE=GLOBAL
 0018FA C6C2C9E3C4C5C140           11901             +
 001902 0008/0000                  11902             +
 001906 900F D004/18AF       00004 11904             +
 USING  FBITDEA,R10
 00190C 50D0 C000/18CD       00000 11919             +
 001912 9680 C000      00000       11921             +
 USING  @FMFSB-72,R12
 001916 41D0 C050            00050 11935             +
 USING  FSB,R3                     11936    1504.              WITH  (FSB,RB)
 USING  ABNL,R2                    11949    1505.              WITH  (ABNL,RA)
000191A 5830 C048            00000 11963    1507.              L     RB,@FMFSBP          Point to the FSB
 00191E 5820 30E8            000E8 11964    1508.              L     RA,FSBABNL          Point to the ABNL
 USING  @GRES-72,R13               11965    1509.              GRGET RID=ABNLGRID,EXCL=YES
 001922 D708 D048 D048 00000 00000 11983             +
 001928 D203 D04C 2004 00004 00004 11988             +
 00192E 9680 D050      00008       11994             +
 001932 9640 D050      00008       12000             +
 001936 58F0 A32A/0DEF       01C30 12003             +
 00193C 9680 2008      00008       12005    1510.              SET   ABNLFCLO            Close the bitmap process
 001940 9640 2008      00008       12011    1511.              SET   ABNLFCLR
 001944 58F0 A332/0DEF       01C38 12017    1512.              ACALL FBITMREL            Clear the buffer
 00194A 94BF 2008      00008       12024    1513.              CLEAR ABNLFCLR
 00194E                            12031    1514.              GRREL RID=ABNLGRID
 00194E D708 D048 D048 00000 00000 12042             +
 001954 D203 D04C 2004 00004 00004 12047             +
 00195A 58F0 A32E/0DEF       01C34 12050             +
 001960 58F0 A31A/0DEF       01C20 12052    1515.              ACALL FBITCLR             Wake anyone waiting
 001966 981F C008            00008 12059    1516.              PEND  ,
 DROP   ABNL,R2
 DROP   FSB,R3
 DROP   @FMFSB-72,R12
 DROP   FBITDEA,R10
 00196A 9680 C000/0B0E 00000       12084             +
 DROP   @GRES-72,R13
1FILEBIT  (FILEBI) (09:38) (22MAR04) ORVYL'S File Block Manager                                                             Page   78
0Current Usings:  (PZERO,R0)
0Loc    Object Code    Addr1 Addr2  Stmt Lv Lineno    Source Statement           (Hibal 5, Asmedit 3.3)  HLASM R4.0  2004/03/22 09.38
+___    ______ ____    _____ _____  ____ __ ______    ______ _________
0                                  12094    1518.     *---------------------------------------------------------------------*
                                   12095    1519.     *  FBITWAIT - Wait for maintenance to be done
                                   12096    1520.     *
                                   12097    1521.     *   Inputs - RA points to ABNL
                                   12098    1522.     *
                                   12099    1523.     *   Output - None
                                   12100    1524.     *
                                   12101    1525.     *---------------------------------------------------------------------*
 001970                            12102    1526.     FBITWAIT PROC  ,
 001970 C6C2C9E3E6C1C9E3           12109             +
 001978 0000/0000                  12110             +
 00197C 900F D004/18AF       00004 12112             +
 USING  FBITWAIT,R10
 001982 50D0 C000/18CD       00000 12127             +
 001988 9680 C000      00000       12129             +
 00198C 41D0 C048            00048 12130             +
 USING  ABNL,R2                    12131    1527.              WITH  (ABNL,RA)
 USING  SBWAIT,R6                  12144    1528.              WITH  (SBWAIT,RX)
 USING  SLDUM,R7                   12157    1529.              WITH  (SLDUM,RY)
0001990 1890                       12171    1531.              LR    RN,RVR              Save input
 001992 5810 0200            00200 12172    1532.              L     RS,MATPTR
 001996 5870 1020            00020 12173    1533.              WITH  (MAT,RS),'L RY,MATSBWB'
 USING  MAT,R1
 DROP   MAT,R1
                                   12197    1534.              SAVAIL HEAD=SLDUM,LEN=L'SBWAIT Get a wait block
 00199A 9801 7000            00000 12200    02-02762 +         LM    RVR,RS,SLDUM        Get fwd and sequence number
 00199E                            12205    05-LABEL +$$$303S  DS    0H
 00199E 1200                       12215  1 05-$REL  +           LTR   RVR,RVR
 0019A0 4780 A03A            019B6 12218  1 04-$BC   +           BC    8,$$$303F
 0019A4                            12221  1 05-LABEL +$$$304F    DS    0H
 0019A4 18E0                       12224  1 02-02765 +           LR    R14,RVR             Point to first item
 0019A6 58EE 0000            00000 12225  1 02-02766 +           L     R14,0(R14)          Get fwd pointer
 0019AA 41F1 0001            00001 12226  1 02-02767 +           LA    R15,1(RS)           Increment sequence
 0019AE BB0E 7000            00000 12227    02-02768 +         CDS   RVR,R14,SLDUM       Remove item from list
 0019B2 4770 A022            0199E 12241    06-$BC   +         BC    7,$$$303S
 0019B6 1200/4770 A090       01A0C 12244    07-LABEL +$$$303F  DS    0H
 USING  @VMGET-72,R13              12263  1 02-VMGET +*,                                     Storage from pool 59
 0019BC D70A D048 D048 00000 00000 12286  1          +
 0019C2 4100 0020            00020 12298  1          +
 0019C6 5000 D048            00000 12303  1          +
 0019CA D201 D050 A2E6 00008 01C62 12304  1          +
 0019D0 58F0 A2C8/0DEF       01C44 12307  1          +
 0019D6 1200/4770 A090       01A0C 12316  1          +
 0019DC AC04 021B      0021B       12326  2          +
 0019E0 9680 021A      0021A       12332  2          +
 0019E4 50F0 021C            0021C 12333  2          +
 0019E8 58F0 0210            00210 12334  2          +
 0019EC 89F0 0010            00010 12335  2          +
 0019F0 88F0 0010            00010 12336  2          +
 0019F4 41F0 F000            00000 12337  2          +
 0019F8 AEFF 0006            00006 12338  2          +
 0019FC D5D66DD4C5D46DE2           12339  1          +
 001A0C 1860                       12348    1535.              LR    RX,RVR              Get pointer
1FILEBIT  (FILEBI) (09:38) (22MAR04) ORVYL'S File Block Manager                                                             Page   79
0Current Usings:  (PZERO,R0) (ABNL,R2) (SBWAIT,R6) (SLDUM,R7) (FBITWAIT,R10) (@VMGET-72,R13)
0Loc    Object Code    Addr1 Addr2  Stmt Lv Lineno    Source Statement           (Hibal 5, Asmedit 3.3)  HLASM R4.0  2004/03/22 09.38
+___    ______ ____    _____ _____  ____ __ ______    ______ _________
0001A0E                            12349    1536.              CLEAR SBWAIT
 001A0E D71F 6000 6000 00000 00000 12355             +
 001A14 D203 6008 A2CC 00008 01C48 12356    1537.              MVC   SBWBID,=CL4'BITM'
 001A1A D203 600C 0208 0000C 00208 12357    1538.              MVC   SBWASB,PZCURASB     Set address space pointer
 001A20 5090 6018            00018 12358    1539.              ST    RN,SBWORD1          Save marker
                                   12359    1540.              SPUSH HEAD=ABNLW,ITEM=SBWAIT Put on the wait queue
 001A24 98EF 2010            00010 12361    01-02734 +         LM    R14,R15,ABNLW       Get fwd ptr and sequence number
 001A28 4100 6000            00000 12362    01-02735 +         LA    RVR,SBWAIT          Point to new item
 001A2C                            12367    04-LABEL +$$$309S  DS    0H
 001A2C 411F 0001            00001 12369  1 01-02737 +           LA    RS,1(R15)           Increment sequence
 001A30 D203 6000 2010 00000 00010 12370  1 01-02738 +           MVC   SBWAIT(L'ABNLWFP),ABNLWFP   Set item fwd ptr
 001A36 BBE0 2010            00010 12371    01-02739 +         CDS   R14,RVR,ABNLW       Add item to list
 001A3A 4770 A0B0            01A2C 12385    05-$BC   +         BC    7,$$$309S
 001A3E                            12388    06-LABEL +$$$309F  DS    0H
 DROP   @VMGET-72,R13              12392    1541.              AWAIT SBWECB              Wait for bitmap maintenance
 USING  @AWAIT-72,R13
 001A3E D704 D048 D048 00000 00000 12413             +
 001A44 4100 6010            00010 12425             +
 001A48 5000 D048            00000 12430             +
 001A4C 58F0 A2D0/0DEF       01C4C 12433             +
 DROP   @AWAIT-72,R13              12435    1542.              PSET  @SYSRDEL
 USING  @SYSRDEL-72,R13
 001A52 D703 D048 D048 00000 00000 12455             +
 001A58 5000 D048            00000 12456    1543.              PMOV  @SYSRDID,(RVR)
 001A5C 58F0 A2D4/0DEF       01C50 12466    1544.              VCALL SYSRDEL
 001A62                            12470    1545.              CLEAR SBWAIT
 001A62 D71F 6000 6000 00000 00000 12476             +
 001A68 D203 6008 A2D8 00008 01C54 12477    1546.              MVC   SBWBID,=C'sBWB'
                                   12478    1547.              SPUSH HEAD=SLDUM,ITEM=SBWAIT Put away the wait block
 001A6E 98EF 7000            00000 12480    01-02734 +         LM    R14,R15,SLDUM       Get fwd ptr and sequence number
 001A72 4100 6000            00000 12481    01-02735 +         LA    RVR,SBWAIT          Point to new item
 001A76                            12486    04-LABEL +$$$312S  DS    0H
 001A76 411F 0001            00001 12488  1 01-02737 +           LA    RS,1(R15)           Increment sequence
 001A7A D203 6000 7000 00000 00000 12489  1 01-02738 +           MVC   SBWAIT(L'SLDUMFP),SLDUMFP   Set item fwd ptr
 001A80 BBE0 7000            00000 12490    01-02739 +         CDS   R14,RVR,SLDUM       Add item to list
 001A84 4770 A0FA            01A76 12504    05-$BC   +         BC    7,$$$312S
 001A88                            12507    06-LABEL +$$$312F  DS    0H
0001A88 981F C008            00008 12512    1549.              PEND  ,
 DROP   SLDUM,R7
 DROP   SBWAIT,R6
 DROP   ABNL,R2
 DROP   FBITWAIT,R10
 001A8C 9680 C000/0B0E 00000       12537             +
 DROP   @SYSRDEL-72,R13
0                                  12547    1551.     *---------------------------------------------------------------------*
                                   12548    1552.     *  FBITCLR - Clear maintenace wait queue
                                   12549    1553.     *
                                   12550    1554.     *   Inputs - RA points to ABNL
                                   12551    1555.     *
                                   12552    1556.     *   Output - None
                                   12553    1557.     *
                                   12554    1558.     *---------------------------------------------------------------------*
1FILEBIT  (FILEBI) (09:38) (22MAR04) ORVYL'S File Block Manager                                                             Page   80
0Current Usings:  (PZERO,R0)
0Loc    Object Code    Addr1 Addr2  Stmt Lv Lineno    Source Statement           (Hibal 5, Asmedit 3.3)  HLASM R4.0  2004/03/22 09.38
+___    ______ ____    _____ _____  ____ __ ______    ______ _________
0001A92                            12555    1559.     FBITCLR  PROC  ,
 001A92 C6C2C9E3C3D3D940           12562             +
 001A9A 0000/0000                  12563             +
 001A9E 900F D004/18AF       00004 12565             +
 USING  FBITCLR,R10
 001AA4 50D0 C000/18CD       00000 12580             +
 001AAA 9680 C000      00000       12582             +
 001AAE 41D0 C048            00048 12583             +
 USING  ABNL,R2                    12584    1560.              WITH  (ABNL,RA)
 USING  SBWAIT,R6                  12597    1561.              WITH  (SBWAIT,RX)
 001AB2                            12610    1562.              LOOP  BEGIN
                                   12616  1 1563.                SPOP  HEAD=ABNLW          Clear any waiting list
 001AB2 9801 2010            00010 12618  1 01-02762 +           LM    RVR,RS,ABNLW        Get fwd and sequence number
 001AB6                            12623  1 04-LABEL +$$$317S    DS    0H
 001AB6 1200                       12633  2 04-$REL  +             LTR   RVR,RVR
 001AB8 4780 A030            01ACE 12636  2 03-$BC   +             BC    8,$$$317F
 001ABC                            12639  2 04-LABEL +$$$318F      DS    0H
 001ABC 18E0                       12642  2 01-02765 +             LR    R14,RVR             Point to first item
 001ABE 58EE 0000            00000 12643  2 01-02766 +             L     R14,0(R14)          Get fwd pointer
 001AC2 41F1 0001            00001 12644  2 01-02767 +             LA    R15,1(RS)           Increment sequence
 001AC6 BB0E 2010            00010 12645  1 01-02768 +           CDS   RVR,R14,ABNLW       Remove item from list
 001ACA 4770 A018            01AB6 12659  1 05-$BC   +           BC    7,$$$317S
 001ACE                            12662  1 06-LABEL +$$$317F    DS    0H
 001ACE 1260/4780 A06A       01B08 12666  1 1564.                IF    ('LTR RX,RVR',Z),EXIT
 USING  @SYSRNEW-72,R13            12682  1 1565.                PSET  @SYSRNEW            Get system routine ID
 001AD4 D703 D048 D048 00000 00000 12699  1          +
 001ADA 58F0 A1BA/0DEF       01C58 12700  1 1566.                VCALL SYSRNEW
 001AE0 18F0                       12704  1 1567.                LR    R15,RVR
 DROP   @SYSRNEW-72,R13            12705  1 1568.                SIGNL SBWECB,(R15),SBWASB,(R15) Been waiting long?
 USING  @SIGNAL-72,R13
 001AE2 D713 D048 D048 00000 00000 12726  1          +
 001AE8 4100 6010            00010 12738  1          +
 001AEC 5000 D050            00008 12743  1          +
 001AF0 50F0 D04C            00004 12753  1          +
 001AF4 D203 D054 600C 0000C 0000C 12758  1          +
 001AFA 50F0 D058            00010 12768  1          +
 001AFE 58F0 A1BE/0DEF       01C5C 12771  1          +
 001B04 47F0 A014            01AB2 12773    1569.              END   ,
 001B08 981F C008            00008 12778    1570.              PEND  ,
 DROP   SBWAIT,R6
 DROP   ABNL,R2
 DROP   FBITCLR,R10
 001B0C 9680 C000/0B0E 00000       12798             +
 DROP   @SIGNAL-72,R13
1FILEBIT  (FILEBI) (09:38) (22MAR04) ORVYL'S File Block Manager                                                             Page   81
0Current Usings:  (PZERO,R0)
0Loc    Object Code    Addr1 Addr2  Stmt Lv Lineno    Source Statement           (Hibal 5, Asmedit 3.3)  HLASM R4.0  2004/03/22 09.38
+___    ______ ____    _____ _____  ____ __ ______    ______ _________
0                                  12808    1572.     *
                                   12809    1573.     * GENERATE TABLE TO AID IN COUNTING AVAILABLE FILE BLOCKS
                                   12810    1574.     *
                                   12811    1575.              MACRO ,
                                   12812    1576.     &L       BITCNT
                                   12813    1577.              LCLA  &BITVAL(4)
                                   12814    1578.              LCLA  &A,&B,&C,&D
                                   12815    1579.     &BITVAL(1) SETA 2
                                   12816    1580.     &BITVAL(2) SETA 1
                                   12817    1581.     &BITVAL(3) SETA 1
                                   12818    1582.     &BITVAL(4) SETA 0
                                   12819    1583.     &A       SETA  1
                                   12820    1584.     &L       EQU   *
                                   12821    1585.     .LOOP1   ANOP
                                   12822    1586.     &B       SETA  1
                                   12823    1587.     .LOOP2   ANOP
                                   12824    1588.     &C       SETA  1
                                   12825    1589.     .LOOP3   ANOP
                                   12826    1590.     &D       SETA  &BITVAL(&A)+&BITVAL(&B)+&BITVAL(&C)
                                   12827    1591.              DC    AL1(&D+2,&D+1,&D+1,&D)
                                   12828    1592.     &C       SETA  &C+1
                                   12829    1593.              AIF   (&C LE 4).LOOP3
                                   12830    1594.     &B       SETA  &B+1
                                   12831    1595.              AIF   (&B LE 4).LOOP2
                                   12832    1596.     &A       SETA  &A+1
                                   12833    1597.              AIF   (&A LE 4).LOOP1
                                   12834    1598.              MEND
0001B12 08070706                   12836    1600.     BITCNT   BITCNT
 001B16 07060605                   12839             +
 001B1A 07060605                   12840             +
 001B1E 06050504                   12841             +
 001B22 07060605                   12842             +
 001B26 06050504                   12843             +
 001B2A 06050504                   12844             +
 001B2E 05040403                   12845             +
 001B32 07060605                   12846             +
 001B36 06050504                   12847             +
 001B3A 06050504                   12848             +
 001B3E 05040403                   12849             +
 001B42 06050504                   12850             +
 001B46 05040403                   12851             +
 001B4A 05040403                   12852             +
 001B4E 04030302                   12853             +
 001B52 07060605                   12854             +
 001B56 06050504                   12855             +
 001B5A 06050504                   12856             +
 001B5E 05040403                   12857             +
 001B62 06050504                   12858             +
 001B66 05040403                   12859             +
 001B6A 05040403                   12860             +
 001B6E 04030302                   12861             +
 001B72 06050504                   12862             +
 001B76 05040403                   12863             +
1FILEBIT  (FILEBI) (09:38) (22MAR04) ORVYL'S File Block Manager                                                             Page   82
0Current Usings:  (PZERO,R0)
0Loc    Object Code    Addr1 Addr2  Stmt Lv Lineno    Source Statement           (Hibal 5, Asmedit 3.3)  HLASM R4.0  2004/03/22 09.38
+___    ______ ____    _____ _____  ____ __ ______    ______ _________
0001B7A 05040403                   12864             +
 001B7E 04030302                   12865             +
 001B82 05040403                   12866             +
 001B86 04030302                   12867             +
 001B8A 04030302                   12868             +
 001B8E 03020201                   12869             +
 001B92 07060605                   12870             +
 001B96 06050504                   12871             +
 001B9A 06050504                   12872             +
 001B9E 05040403                   12873             +
 001BA2 06050504                   12874             +
 001BA6 05040403                   12875             +
 001BAA 05040403                   12876             +
 001BAE 04030302                   12877             +
 001BB2 06050504                   12878             +
 001BB6 05040403                   12879             +
 001BBA 05040403                   12880             +
 001BBE 04030302                   12881             +
 001BC2 05040403                   12882             +
 001BC6 04030302                   12883             +
 001BCA 04030302                   12884             +
 001BCE 03020201                   12885             +
 001BD2 06050504                   12886             +
 001BD6 05040403                   12887             +
 001BDA 05040403                   12888             +
 001BDE 04030302                   12889             +
 001BE2 05040403                   12890             +
 001BE6 04030302                   12891             +
 001BEA 04030302                   12892             +
 001BEE 03020201                   12893             +
 001BF2 05040403                   12894             +
 001BF6 04030302                   12895             +
 001BFA 04030302                   12896             +
 001BFE 03020201                   12897             +
 001C02 04030302                   12898             +
 001C06 03020201                   12899             +
 001C0A 03020201                   12900             +
 001C0E 02010100                   12901             +
 001C18                            12902    1601.              LTORG ,
 001C18 00000001                   12904                             =A(1)
 001C1C 000003A4                   12905                             =A(FBITGET)
 001C20 00001A9E                   12906                             =A(FBITCLR)
 001C24 00000000                   12907                             =V(FDOIODO)
 001C28 000004C6                   12908                             =A(FBITREL)
 001C2C FF000000                   12909                             =X'FF000000'
 001C30 00000000                   12910                             =V(GRGET)
 001C34 00000000                   12911                             =V(GRREL)
 001C38 00001354                   12912                             =A(FBITMREL)
 001C3C 00000A6C                   12913                             =A(FBITEXTN)
 001C40 0000021A                   12914                             =A(FBITCNT)
 001C44 00000000                   12915                             =V(VMGET)
 001C48 C2C9E3D4                   12916                             =CL4'BITM'
 001C4C 00000000                   12917                             =V(AWAIT)
 001C50 00000000                   12918                             =V(SYSRDEL)
1FILEBIT  (FILEBI) (09:38) (22MAR04) ORVYL'S File Block Manager                                                             Page   83
0Current Usings:  (PZERO,R0)
0Loc    Object Code    Addr1 Addr2  Stmt Lv Lineno    Source Statement           (Hibal 5, Asmedit 3.3)  HLASM R4.0  2004/03/22 09.38
+___    ______ ____    _____ _____  ____ __ ______    ______ _________
0001C54 A2C2E6C2                   12919                             =C'sBWB'
 001C58 00000000                   12920                             =V(SYSRNEW)
 001C5C 00000000                   12921                             =V(SIGNAL)
 001C60 0004                       12922                             =H'4'
 001C62 3B00                       12923                             =Y(59*256+0)
 001C64 0007060504030201           12924                             =AL1(0,7,6,5,4,3,2,1,0)
 001C80                01C80 01C80 12928    1602.              END   .

1FILEBIT  (FILEBI) (09:38) (22MAR04) Ordinary Symbol and Literal Cross Reference                                            Page   84
-Symbol   Length   Value     Id    R Type   Defn References                                  HLASM R4.0  2004/03/22 09.38
0$$$@R0        1 00000000 FFFFFFFE     J     714  1010
 $$$@R1        1 00000000 FFFFFFFD     J     727  1022
 $$$@R10       1 00000000 FFFFFFF4     J     844  1142
 $$$@R11       1 00000000 FFFFFFF3     J     857  1154
 $$$@R12       1 00000000 FFFFFFF2     J     870  1166
 $$$@R13       1 00000000 FFFFFFF1     J     883  1178
 $$$@R14       1 00000000 FFFFFFF0     J     896  1190
 $$$@R15       1 00000000 FFFFFFEF     J     909  1202
 $$$@R2        1 00000000 FFFFFFFC     J     740  1034
 $$$@R3        1 00000000 FFFFFFFB     J     753  1046
 $$$@R4        1 00000000 FFFFFFFA     J     766  1058
 $$$@R5        1 00000000 FFFFFFF9     J     779  1070
 $$$@R6        1 00000000 FFFFFFF8     J     792  1082
 $$$@R7        1 00000000 FFFFFFF7     J     805  1094
 $$$@R8        1 00000000 FFFFFFF6     J     818  1106
 $$$@R9        1 00000000 FFFFFFF5     J     831  1118   1130
 $$$C1FILEBIT
               1 00000398 00000001     J    4277  4279   4297   5175   5703   5731   5800   6064   6094   6246   6404
 $$$C2FILEBIT
               1 00000A60 00000001     J    6692  6694   6740   7215   7271   7443   7575   7613   7701   8246   8643
                                                  8694   8935   8986
 $$$C3FILEBIT
               1 00001348 00000001     J    9681  9683  10131  10775  10841
 $$$C4FILEBIT
               1 00001C7A 00000001     J   12925 12927
 $$$C5FILEBIT
               1 00001C80 00000001     J   12931 12933
 $$$D1FILEBIT
               1 00000A44 00000001     J    4278  5692   5720   5789   6053   6083   6235   6393
 $$$D2FILEBIT
               1 00001320 00000001     J    6693  7204   7260   7432   7564   7602   7690   8632   8683   8924   8975
 $$$D3FILEBIT
               1 00001C6D 00000001     J    9682 10120  10764  10830
 $$$R#FBEXTN
               1 00000000 FFFFFFC3     J    6710  6739   6739
 $$$R#FBGCON
               1 00000000 FFFFFFC4     J    5151  5174   5174
 $$$R#FBITPLO
               1 00000000 FFFFFFC5     J    4283  4296   4296
 $$$R#FBRCON
               1 00000000 FFFFFFC2     J    8226  8245   8245
 $$$R@ACREATE
               1 00000000 FFFFFFDB     J    2274  2287   2287
 $$$R@AWAIT
               1 00000000 FFFFFFE2     J    2071  2093   2093
 $$$R@DISPPIOC
               1 00000000 FFFFFFE0     J    2140  2153   2153
 $$$R@DISPSIOC
               1 00000000 FFFFFFDF     J    2159  2172   2172
 $$$R@DISPSWP
               1 00000000 FFFFFFDC     J    2251  2264   2264
 $$$R@DSPSTAT
               1 00000000 FFFFFFD0     J    2545  2561   2561
 $$$R@FDOIODO
               1 00000000 FFFFFFE4     J    1988  2039   2039
1FILEBIT  (FILEBI) (09:38) (22MAR04) Ordinary Symbol and Literal Cross Reference                                            Page   85
 $$$R@FILEBLKI
               1 00000000 FFFFFFE9     J    1805  1849   1849
 $$$R@FILEHALT
               1 00000000 FFFFFFE7     J    1921  1934   1934
 $$$R@FMFINFO
               1 00000000 FFFFFFE8     J    1860  1911   1911
 $$$R@FMFSB
               1 00000000 FFFFFFE5     J    1960  1982   1982
 $$$R@FMRQFB
               1 00000000 FFFFFFE6     J    1940  1953   1953
 $$$R@FSADDV
               1 00000000 FFFFFFE3     J    2045  2059   2059
 $$$R@GRES
               1 00000000 FFFFFFEC     J    1419  1455   1455
 $$$R@MONSET
               1 00000000 FFFFFFD1     J    2522  2535   2535
 $$$R@M1FILE
               1 00000000 FFFFFFEB     J    1631  1766   1766
 $$$R@M1FPOST
               1 00000000 FFFFFFEA     J    1777  1794   1794
 $$$R@PERSET
               1 00000000 FFFFFFD2     J    2499  2512   2512
 $$$R@RESUME
               1 00000000 FFFFFFDD     J    2226  2241   2241
 $$$R@SBFREE
               1 00000000 FFFFFFCD     J    2652  2666   2666
 $$$R@SBGET
               1 00000000 FFFFFFCE     J    2626  2641   2641
 $$$R@SBINIT
               1 00000000 FFFFFFCF     J    2580  2615   2615
 $$$R@SIGNAL
               1 00000000 FFFFFFE1     J    2104  2124   2124
 $$$R@SUSPEND
               1 00000000 FFFFFFDE     J    2182  2216   2216
 $$$R@SYSRDEL
               1 00000000 FFFFFFD5     J    2427  2440   2440
 $$$R@SYSRDO
               1 00000000 FFFFFFD4     J    2450  2466   2466
 $$$R@SYSRNEW
               1 00000000 FFFFFFD6     J    2405  2418   2418
 $$$R@SYSRTN
               1 00000000 FFFFFFD3     J    2476  2489   2489
 $$$R@TCREATE
               1 00000000 FFFFFFDA     J    2297  2326   2326
 $$$R@TENTRY
               1 00000000 FFFFFFD8     J    2359  2372   2372
 $$$R@TEXIT
               1 00000000 FFFFFFD7     J    2382  2395   2395
 $$$R@TREMOVE
               1 00000000 FFFFFFD9     J    2336  2349   2349
 $$$R@VMFREE
               1 00000000 FFFFFFC9     J    2867  2882   2882
 $$$R@VMGET
               1 00000000 FFFFFFCA     J    2832  2861   2861
 $$$R@VMINFO
               1 00000000 FFFFFFC8     J    2888  2903   2903
 $$$RABNL      1 00000000 FFFFFFC6     J    3189  3266   3266
 $$$RFSB       1 00000000 FFFFFFC7     J    2910  3182   3182
 $$$RMAT       1 00000000 FFFFFFED     J    1348  1407   1407
1FILEBIT  (FILEBI) (09:38) (22MAR04) Ordinary Symbol and Literal Cross Reference                                            Page   86
 $$$RPZERO
               1 00000000 FFFFFFEE     J    1235  1326   1326
 $$$RSBWAIT
               1 00000000 FFFFFFCC     J    2672  2692   2692
 $$$RSLDUMMY
               1 00000000 FFFFFFCB     J    2803  2819   2819
 $$$10F        2 000000BE 00000001     H    3496  3487B
 $$$100        4 00000A50 00000001     I    6058  6059   6059
 $$$102        4 00000A54 00000001     I    6089  6081X
 $$$103        4 00000A54 00000001     I    6088  6089   6089
 $$$104F       2 0000084C 00000001     H    6117  6108B
 $$$105F       2 000008DC 00000001     H    6322  6132B
 $$$106F       2 00000870 00000001     H    6164  6149B
 $$$107F       2 000008DC 00000001     H    6318  6287B
 $$$107S       2 00000870 00000001     H    6170  6317B
 $$$108B       4 00000878 00000001     I    6184  6197
 $$$108F       2 00000882 00000001     H    6194  6184B  6196
 $$$109E       2 00000886 00000001     H    6204  6198
 $$$109F       2 000008AE 00000001     H    6266  6200B
 $$$11F        2 000000CA 00000001     H    3515  3506B
 $$$110F       2 000008AC 00000001     H    6258  6220B
 $$$111        4 00000A58 00000001     I    6241  6233X
 $$$112        4 00000A58 00000001     I    6240  6241   6241
 $$$113B       4 000008BA 00000001     I    6279  6294
 $$$113F       2 000008C2 00000001     H    6291  6279B  6293
 $$$114E       2 000008C6 00000001     H    6301  6295
 $$$114F       2 000008D8 00000001     H    6313  6297B
 $$$115F       2 0000091A 00000001     H    6410  6333B
 $$$116B       4 000008EC 00000001     I    6352  6370
 $$$116F       2 00000902 00000001     H    6367  6352B  6369
 $$$117E       2 00000906 00000001     H    6377  6371
 $$$117F       2 0000090A 00000001     H    6384  6373B
 $$$118        4 00000A5C 00000001     I    6399  6391X
 $$$119        4 00000A5C 00000001     I    6398  6399   6399
 $$$12F        2 00000134 00000001     H    3601  3575B
 $$$120F       2 000009EC 00000001     H    6603  6493B
 $$$121F       2 000009BC 00000001     H    6538  6512B
 $$$122S       2 000009C0 00000001     H    6544  6562B
 $$$125S       2 000009D2 00000001     H    6573  6591B
 $$$128F       2 00000E6E 00000001     H    8202  6844B  6869B
 $$$129F       2 00000AA0 00000001     H    6848  6836B
 $$$13F        2 00000190 00000001     H    3683  3657B
 $$$130F       2 00000AAC 00000001     H    6873  6861B
 $$$131B       4 00000AB0 00000001     I    6885  6903
 $$$131F       2 00000AB8 00000001     H    6900  6885B  6902
 $$$132E       2 00000ABC 00000001     H    6910  6904
 $$$132F       2 00000ACC 00000001     H    6945  6906B
 $$$133F       2 00000ACC 00000001     H    6941  6926B
 $$$134F       2 00000ADA 00000001     H    6967  6957B
 $$$135F       2 00000B00 00000001     H    7013  7002B
 $$$135T       2 00000AF6 00000001     H    7005  6989B
 $$$137F       2 00000B28 00000001     H    7045  7030B
 $$$138F       2 00000B56 00000001     H    7109  7061B
 $$$139F       2 00000BE4 00000001     H    7306  7166B
 $$$14F        2 000001F0 00000001     H    3762  3736B
 $$$140F       2 00000BA6 00000001     H    7199  7185B
 $$$141        4 00001320 00000001     I    7210  7202X
 $$$142        4 00001320 00000001     I    7209  7210   7210
 $$$143B       4 00000BAE 00000001     I    7223  7236
1FILEBIT  (FILEBI) (09:38) (22MAR04) Ordinary Symbol and Literal Cross Reference                                            Page   87
 $$$143F       2 00000BB6 00000001     H    7233  7223B  7235
 $$$144E       2 00000BBA 00000001     H    7243  7237
 $$$144F       2 00000BE0 00000001     H    7301  7239B
 $$$145F       2 00000BD8 00000001     H    7295  7281B
 $$$145S       2 00000BC4 00000001     H    7255  7294B
 $$$146        4 00001324 00000001     I    7266  7258X
 $$$147        4 00001324 00000001     I    7265  7266   7266
 $$$149F       2 00000C7A 00000001     H    7513  7319B
 $$$150F       2 00000C06 00000001     H    7351  7336B
 $$$151F       2 00000C7A 00000001     H    7509  7492B
 $$$151S       2 00000C06 00000001     H    7356  7508B
 $$$152B       4 00000C0E 00000001     I    7370  7386
 $$$152F       2 00000C16 00000001     H    7383  7370B  7385
 $$$153E       2 00000C1A 00000001     H    7393  7387
 $$$153F       2 00000C1C 00000001     H    7399  7389B
 $$$154F       2 00000C54 00000001     H    7477  7413B
 $$$155F       2 00000C40 00000001     H    7467  7453B
 $$$155S       2 00000C2C 00000001     H    7427  7466B
 $$$156        4 00001328 00000001     I    7438  7430X
 $$$157        4 00001328 00000001     I    7437  7438   7438
 $$$16F        2 00000262 00000001     H    3927  3916B
 $$$160F       2 00000CDA 00000001     H    7650  7526B
 $$$161F       2 00000C9C 00000001     H    7558  7543B
 $$$162        4 0000132C 00000001     I    7570  7562X
 $$$163        4 0000132C 00000001     I    7569  7570   7570
 $$$164F       2 00000CD2 00000001     H    7644  7583B
 $$$165F       2 00000CC6 00000001     H    7637  7623B
 $$$165S       2 00000CB2 00000001     H    7597  7636B
 $$$166        4 00001330 00000001     I    7608  7600X
 $$$167        4 00001330 00000001     I    7607  7608   7608
 $$$17F        2 00000270 00000001     H    3950  3938B
 $$$170F       2 00000CFC 00000001     H    7728  7682B
 $$$171        4 00001334 00000001     I    7696  7688X
 $$$172        4 00001334 00000001     I    7695  7696   7696
 $$$173F       2 00000CFC 00000001     H    7724  7715B
 $$$174F       2 00000D80 00000001     H    7905  7741B
 $$$175F       2 00000D20 00000001     H    7773  7758B
 $$$176F       2 00000D80 00000001     H    7901  7884B
 $$$176S       2 00000D20 00000001     H    7778  7900B
 $$$177B       4 00000D28 00000001     I    7792  7808
 $$$177F       2 00000D30 00000001     H    7805  7792B  7807
 $$$178E       2 00000D34 00000001     H    7815  7809
 $$$178F       2 00000D36 00000001     H    7821  7811B
 $$$179F       2 00000D56 00000001     H    7867  7834B  7848B
 $$$18F        2 000002A8 00000001     H    3989  3963B
 $$$182F       2 00000DB0 00000001     H    7958  7918B
 $$$183F       2 00000DA4 00000001     H    7950  7935B
 $$$184F       2 00000E14 00000001     H    8046  8036B
 $$$185S       2 00000E1C 00000001     H    8056  8074B
 $$$188S       2 00000E2E 00000001     H    8085  8103B
 $$$19F        2 00000330 00000001     H    4194  4060B
 $$$19S        2 000002D0 00000001     H    4054  4193B
 $$$191F       2 00000E6E 00000001     H    8177  8129B
 $$$192F       2 000011DE 00000001     H    9210  8348B
 $$$193F       2 00000EB2 00000001     H    8352  8340B
 $$$194F       2 00000EEA 00000001     H    8391  8365B
 $$$195F       2 00000F26 00000001     H    8433  8407B
 $$$196F       2 00000F42 00000001     H    8462  8451B
 $$$197F       2 00000F6A 00000001     H    8494  8479B
1FILEBIT  (FILEBI) (09:38) (22MAR04) Ordinary Symbol and Literal Cross Reference                                            Page   88
 $$$198F       2 00001026 00000001     H    8700  8595B
 $$$199F       2 00000FDC 00000001     H    8627  8614B
 $$$200        4 00001338 00000001     I    8638  8630X
 $$$201        4 00001338 00000001     I    8637  8638   8638
 $$$202F       2 00001018 00000001     H    8677  8651B
 $$$203        4 0000133C 00000001     I    8689  8681X
 $$$204        4 0000133C 00000001     I    8688  8689   8689
 $$$205F       2 000010C2 00000001     H    8872  8713B
 $$$206F       2 0000104C 00000001     H    8746  8730B
 $$$207F       2 000010C2 00000001     H    8868  8851B
 $$$207S       2 0000104C 00000001     H    8751  8867B
 $$$208B       4 00001054 00000001     I    8765  8781
 $$$208F       2 0000105C 00000001     H    8778  8765B  8780
 $$$209E       2 00001060 00000001     H    8788  8782
 $$$209F       2 00001062 00000001     H    8794  8784B
 $$$21B        4 000002F0 00000001     I    4093  4109
 $$$21F        2 000002F8 00000001     H    4106  4093B  4108
 $$$210F       2 000010A0 00000001     H    8833  8807B
 $$$212F       2 00001136 00000001     H    8992  8885B
 $$$213F       2 000010E8 00000001     H    8918  8902B
 $$$214        4 00001340 00000001     I    8930  8922X
 $$$215        4 00001340 00000001     I    8929  8930   8930
 $$$216F       2 00001128 00000001     H    8969  8943B
 $$$217        4 00001344 00000001     I    8981  8973X
 $$$218        4 00001344 00000001     I    8980  8981   8981
 $$$219F       2 0000117A 00000001     H    9054  9044B
 $$$22E        2 000002FC 00000001     H    4116  4110
 $$$22F        2 000002FE 00000001     H    4123  4112B
 $$$220S       2 00001196 00000001     H    9083  9101B
 $$$223S       2 000011A8 00000001     H    9112  9130B
 $$$227B       4 00001220 00000001     I    9329  9377
 $$$227F       2 00001242 00000001     H    9372  9329B  9376
 $$$228E       2 00001246 00000001     H    9384  9378
 $$$228F       2 0000125A 00000001     H    9416  9380B
 $$$229F       2 0000125A 00000001     H    9412  9396B
 $$$23F        2 00000328 00000001     H    4186  4133B
 $$$231B       4 0000129C 00000001     I    9545  9593
 $$$231F       2 000012BE 00000001     H    9588  9545B  9592
 $$$232E       2 000012C2 00000001     H    9600  9594
 $$$232F       2 000012D8 00000001     H    9635  9596B
 $$$233F       2 000012D8 00000001     H    9631  9615B
 $$$234F       2 00001534 00000001     H   10417 10245B
 $$$235S       2 0000136C 00000001     H    9755  9775B
 $$$238B       4 00001392 00000001     I    9832  9848
 $$$238F       2 00001398 00000001     H    9845  9832B  9847
 $$$239E       2 0000139C 00000001     H    9855  9849
 $$$239F       2 000013A0 00000001     H    9862  9851B
 $$$24F        2 00000314 00000001     H    4156  4146B
 $$$240F       2 000013D2 00000001     H    9932  9879B  9893B  9916B
 $$$240S       2 000013A4 00000001     H    9870  9931B
 $$$244F       2 000013E0 00000001     H    9959  9943B
 $$$245F       2 00001534 00000001     H   10398  9971B
 $$$245S       2 000013E0 00000001     H    9965 10397B
 $$$247F       2 00001442 00000001     H   10085 10075B
 $$$248S       2 00001442 00000001     H   10090 10205B
 $$$249B       4 0000144C 00000001     I   10108 10185
 $$$249F       2 000014C0 00000001     H   10182 10108B 10184
 $$$25S        2 00000314 00000001     H    4161  4178B
 $$$250        4 00001C6E 00000001     I   10126 10118X
1FILEBIT  (FILEBI) (09:38) (22MAR04) Ordinary Symbol and Literal Cross Reference                                            Page   89
 $$$251        4 00001C6E 00000001     I   10125 10126  10126
 $$$252F       2 00001498 00000001     H   10165 10139B
 $$$253E       2 000014C4 00000001     H   10192 10186
 $$$253F       2 000014C8 00000001     H   10199 10188B
 $$$255F       2 000014E4 00000001     H   10249 10237B
 $$$256F       2 00001530 00000001     H   10392 10261B
 $$$257F       2 00001530 00000001     H   10388 10275B
 $$$258B       4 000014FC 00000001     I   10290 10306
 $$$258F       2 00001504 00000001     H   10303 10290B 10305
 $$$259E       2 00001508 00000001     H   10313 10307
 $$$259F       2 0000150A 00000001     H   10320 10309B
 $$$260S       2 00001518 00000001     H   10363 10380B
 $$$262F       2 000016EE 00000001     H   11070 10552B
 $$$263S       2 00001572 00000001     H   10502 10522B
 $$$266F       2 00001590 00000001     H   10556 10544B
 $$$267F       2 000016EC 00000001     H   11046 10576B 10589B 10609B
 $$$267S       2 00001598 00000001     H   10565 11045B
 $$$27F        2 00000346 00000001     H    4222  4212B
 $$$271B       4 00001606 00000001     I   10706 10723
 $$$271F       2 00001616 00000001     H   10720 10706B 10722
 $$$272E       2 0000161A 00000001     H   10730 10724
 $$$272F       2 000016E4 00000001     H   11040 10726B
 $$$273F       2 00001692 00000001     H   10905 10822B 10871B
 $$$273S       2 0000161C 00000001     H   10738 10901B
 $$$274F       2 0000168A 00000001     H   10894 10748B
 $$$275S       2 0000162C 00000001     H   10759 10886B
 $$$276        4 00001C72 00000001     I   10770 10762X
 $$$277        4 00001C72 00000001     I   10769 10770  10770
 $$$278F       2 00001682 00000001     H   10879 10783B
 $$$279F       2 0000165E 00000001     H   10826 10814B
 $$$28F        2 000004B0 00000001     H    4727  4436B  4525B
 $$$280        4 00001C76 00000001     I   10836 10828X
 $$$281        4 00001C76 00000001     I   10835 10836  10836
 $$$282F       2 00001682 00000001     H   10875 10863B
 $$$285F       2 000016A4 00000001     H   10930 10915B
 $$$286F       2 000016E4 00000001     H   11036 10940B
 $$$287S       2 000016C6 00000001     H   11004 11021B
 $$$29S        2 000003C6 00000001     H    4395  4549B  4577B
 $$$290S       2 0000174A 00000001     H   11209 11227B
 $$$293F       2 0000177C 00000001     H   11265 11254B
 $$$295F       2 0000181E 00000001     H   11541 11531B
 $$$296S       2 0000182C 00000001     H   11551 11569B
 $$$299F       2 0000185E 00000001     H   11607 11596B
 $$$30B        4 000003CE 00000001     I    4410  4447
 $$$30F        2 000003DE 00000001     H    4444  4410B  4446
 $$$303F       2 000019B6 00000001     H   12244 12218B
 $$$303S       2 0000199E 00000001     H   12205 12241B
 $$$307F       2 00001A0C 00000001     H   12347 12257B
 $$$308F       2 00001A0C 00000001     H   12343 12317B
 $$$309S       2 00001A2C 00000001     H   12367 12385B
 $$$31F        2 000003DE 00000001     H    4440  4428B
 $$$312S       2 00001A76 00000001     H   12486 12504B
 $$$316F       2 00001B08 00000001     H   12777 12676B
 $$$316S       2 00001AB2 00000001     H   12614 12776B
 $$$317F       2 00001ACE 00000001     H   12662 12636B
 $$$317S       2 00001AB6 00000001     H   12623 12659B
 $$$32E        2 000003E2 00000001     H    4454  4448
 $$$32F        2 000003F8 00000001     H    4501  4450B
 $$$33F        2 000003F8 00000001     H    4497  4468B  4482B
1FILEBIT  (FILEBI) (09:38) (22MAR04) Ordinary Symbol and Literal Cross Reference                                            Page   90
 $$$35F        2 00000408 00000001     H    4529  4517B
 $$$39F        2 00000484 00000001     H    4619  4593B
 $$$40F        2 000004AE 00000001     H    4702  4631B
 $$$41S        2 00000490 00000001     H    4642  4661B
 $$$44S        2 000004A0 00000001     H    4673  4693B
 $$$47F        2 000005CA 00000001     H    5132  4904B
 $$$48F        2 00000520 00000001     H    4871  4846B
 $$$48T        2 000004F0 00000001     H    4849  4834B
 $$$50F        2 00000538 00000001     H    4908  4896B
 $$$51S        2 00000538 00000001     H    4914  4987B  5015B
 $$$52F        2 00000552 00000001     H    4964  4929B
 $$$53F        2 00000552 00000001     H    4960  4944B
 $$$57F        2 000005C8 00000001     H    5104  5032B
 $$$58S        2 000005A8 00000001     H    5043  5063B
 $$$61S        2 000005BA 00000001     H    5075  5095B
 $$$64F        2 00000A08 00000001     H    6668  5276B  5301B  5323B  5345B  5405B
 $$$65F        2 0000060C 00000001     H    5280  5268B
 $$$66F        2 00000618 00000001     H    5305  5293B
 $$$67F        2 00000622 00000001     H    5327  5315B
 $$$68F        2 0000062C 00000001     H    5349  5337B
 $$$69F        2 00000648 00000001     H    5409  5362B
 $$$72F        2 000006DE 00000001     H    5585  5570B
 $$$73F        2 000006F8 00000001     H    5610  5595B
 $$$75F        2 0000075C 00000001     H    5756  5651B
 $$$76S        2 00000730 00000001     H    5667  5748B
 $$$78         4 00000A44 00000001     I    5698  5690X
 $$$79         4 00000A44 00000001     I    5697  5698   5698
 $$$80F        2 00000750 00000001     H    5738  5711B
 $$$81         4 00000A48 00000001     I    5726  5718X
 $$$82         4 00000A48 00000001     I    5725  5726   5726
 $$$84S        2 00000764 00000001     H    5764  5812B
 $$$86         4 00000A4C 00000001     I    5795  5787X
 $$$87         4 00000A4C 00000001     I    5794  5795   5795
 $$$89F        2 000007C2 00000001     H    5865  5850B
 $$$9F         2 0000008A 00000001     H    3429  3403B
 $$$90F        2 0000080C 00000001     H    6003  5877B
 $$$91F        2 0000080C 00000001     H    5999  5990B
 $$$91S        2 000007CC 00000001     H    5887  5998B
 $$$92B        4 000007D4 00000001     I    5901  5913
 $$$92F        2 000007DA 00000001     H    5910  5901B  5912
 $$$93E        2 000007DE 00000001     H    5920  5914
 $$$93F        2 000007E2 00000001     H    5930  5916B
 $$$95B        4 000007EC 00000001     I    5960  5978
 $$$95F        2 00000800 00000001     H    5975  5960B  5977
 $$$96E        2 00000804 00000001     H    5985  5979
 $$$96F        2 00000808 00000001     H    5994  5981B
 $$$97F        2 0000084C 00000001     H    6121  6014B
 $$$98F        2 0000082E 00000001     H    6046  6031B
 $$$99         4 00000A50 00000001     I    6059  6051X
 #FBEBEND      4 00000008 FFFFFFC3     A    6718  7049M  7335   7358   7542   7769   7896   7946
 #FBECMAP      4 0000000C FFFFFFC3     F    6719  7020M  7345   7346M  7502   7503M  7552   7553M  7765   7767M  7892
                                                  7894M  7942   7944M  7976   8001
 #FBEFBYT      4 00000010 FFFFFFC3     F    6720  7040M  7317   7739
 #FBEFLAG      1 00000019 FFFFFFC3     R    6726  6730
 #FBELEFT      2 00000014 FFFFFFC3     H    6721  7009M  7023   7156   7245   7863M  7863   7917M  7917
 #FBELMSK      1 00000018 FFFFFFC3     X    6723  7172M  7194M  7200   7856   7953
 #FBEPCNT      4 00000004 FFFFFFC3     F    6717  7229M  7296M  7471   7472M  7479   7480M  7638   7639M  7645   7646M
                                                  8034
 #FBERCNT      4 00000000 FFFFFFC3     F    6716  6969M  7001   7022   7184   7190   7195   8059   8088   8110
1FILEBIT  (FILEBI) (09:38) (22MAR04) Ordinary Symbol and Literal Cross Reference                                            Page   91
 #FBERITE      2 00000016 FFFFFFC3     H    6722  7041M  7525M  7525   7559   7681M  7681
 #FBETEST    128 00000019 FFFFFFC3         6730  6896M  6937M  6956   7661
 #FBEXTN      26 00000000 FFFFFFC3     J    6739  6785U  6823M  6823
 #FBGBEND      4 00000008 FFFFFFC4     A    5159  5447M  5562   5849   5889   6030   6160   6309   6363
 #FBGCBYT      4 00000020 FFFFFFC4     F    5165  5834M  6122
 #FBGCMAP      4 0000000C FFFFFFC4     F    5160  5491M  5549   5579   5580M  5604   5605M  5613   5859   5860M  5969
                                                  5970M  6040   6041M  6156   6158M  6305   6307M  6359   6361M  6424
                                                  6449
 #FBGCNT       4 00000000 FFFFFFC4     F    5157  5418M  5650   5656   5825   6499   6547   6576   6598
 #FBGCON      40 00000000 FFFFFFC4     J    5174  5221U  5417M  5417
 #FBGFBLK      4 00000004 FFFFFFC4     F    5158  5716M  5824M  6479M  6479   6492M  6492   6498   6643
 #FBGFBYT      4 0000001C FFFFFFC4     F    5164  5866M  6207   6351   6380
 #FBGLBLK      4 00000018 FFFFFFC4     F    5163  5435M  5680   5777
 #FBGLBYT      4 00000014 FFFFFFC4     F    5162  5437M  5627
 #FBGLEFT      2 00000024 FFFFFFC4     H    5166  5823M  6225   6254M  6254   6323
 #FBGLMAP      4 00000010 FFFFFFC4     F    5161  5444M  5549
 #FBGRITE      2 00000026 FFFFFFC4     H    5167  5833M  6004
 #FBITPLO    144 00000000 FFFFFFC5     J    4296  4351U  4389M  4389   4535M  4557M  4561M  4563M  4788U  4879M  4879
                                                  4880M  4993M  4995M  5000M  5001M
 #FBRBEND      4 00000004 FFFFFFC2     A    8233  8498M  8729   8753   8901
 #FBRCMAP      4 00000008 FFFFFFC2     F    8234  8469M  8740   8741M  8861   8862M  8912   8913M  9006   9031
 #FBRCON      21 00000000 FFFFFFC2     J    8245  8291U  8329M  8329
 #FBRFBYT      4 0000000C FFFFFFC2     F    8235  8489M  8711
 #FBRLEFT      2 00000010 FFFFFFC2     H    8236  8458M  8472   8585
 #FBRLMSK      1 00000014 FFFFFFC2     X    8238  8601M  8623M  8628
 #FBRRCNT      4 00000000 FFFFFFC2     F    8232  8435M  8471   8613   8619   9086   9115   9137
 #FBRRITE      2 00000012 FFFFFFC2     H    8237  8490M  8884M  8884   8919
 @AWAIT        5 00000000 FFFFFFE2     J    2093 12405U 12413M 12413
 @AWTECB       4 00000000 FFFFFFE2     A    2077 12430M
 @AWTFLG       1 00000004 FFFFFFE2     R    2080  2084
 @FDOBLK       4 00000004 FFFFFFE4     A    1995  4076M  6426M  6451M  7978M  8003M  9008M  9056M 10039M 10677M
 @FDODATA      4 00000008 FFFFFFE4     A    1996  4041M  4081   5517M  7136M  8565M 10001M 10115  10651M 10695  10791
 @FDODATL      2 0000000C FFFFFFE4     H    1997  4046M  4082   5522M  7141M  8570M 10006M 10656M 10696
 @FDODISK      4 0000000F FFFFFFE4         2030  4025M
 @FDOFLAG      1 0000000F FFFFFFE4     R    2001  2005   2010   2015   2020   2025   2030
 @FDOFR      128 0000000F FFFFFFE4         2005  4019M  6432M  6443M  7984M  7995M  9014M  9025M 10045M 10056M 10683M
                                                 10694M
 @FDOFSB       4 00000000 FFFFFFE4     A    1994  4036M  5533M  7152M  8581M 10017M 10667M
 @FDOFW       64 0000000F FFFFFFE4         2010  6457M  6468M  8009M  8020M  9062M  9073M 10216M 10227M 10950M 10961M
 @FDOIODO     16 00000000 FFFFFFE4     J    2039  4005U  4013M  4013   5504U  5512M  5512   7123U  7131M  7131   8552U
                                                  8560M  8560   9988U  9996M  9996  10638U 10646M 10646
 @FILFLAG      1 00000024 FFFFFFE9     R    1821  1825   1830   1835   1840
 @FMFIFLG      1 00000009 FFFFFFE8     R    1872  1876   1881   1886   1891   1896   1901
 @FMFSB        5 00000000 FFFFFFE5     J    1982  3316U  4344U  4351U  4781U  4788U  5214U  5221U  5376U  5384M  5384
                                                  6778U  6785U  8284U  8291U  9796U  9804M  9804  10333U 10341M 10341
                                                 10974U 10982M 10982  11126U 11375U 11488U 11496M 11496  11735U 11931U
 @FMFSBF       1 00000004 FFFFFFE5     R    1969  1973
 @FMFSBO     128 00000004 FFFFFFE5         1973  4467   4630   4943   5031   7060   8128   9821M 10358M 10999M 11513M
 @FMFSBP       4 00000000 FFFFFFE5     A    1966  3347   4380   4818   5237   5395M  6801   8307   9815M 10352M 10993M
                                                 11159  11408  11507M 11767  11963
 @GRCID        4 00000000 FFFFFFEC     A    1426  3470M
 @GRES         9 00000000 FFFFFFEC     J    1455  3452U  3460M  3460   5461U  5469M  5469   6618U  6626M  6626   7076U
                                                  7084M  7084   8148U  8156M  8156   8510U  8518M  8518   9157U  9165M
                                                  9165   9296U  9304M  9304   9352M  9352   9512U  9520M  9520   9568M
                                                  9568  11171U 11179M 11179  11278M 11278  11420U 11428M 11428  11629U
                                                 11637M 11637  11779U 11787M 11787  11835M 11835  11975U 11983M 11983
                                                 12042M 12042
 @GREXCL      64 00000008 FFFFFFEC         1440  5486M  7101M  8535M  9315M  9531M 11196M 11445M 11804M 12000M
 @GRFLAG       1 00000008 FFFFFFEC     R    1431  1435   1440   1445
1FILEBIT  (FILEBI) (09:38) (22MAR04) Ordinary Symbol and Literal Cross Reference                                            Page   92
 @GRID         4 00000004 FFFFFFEC     A    1427  5474M  6631M  7089M  8161M  8523M  9170M  9309M  9357M  9525M  9573M
                                                 11184M 11283M 11433M 11642M 11792M 11840M 11988M 12047M
 @GRWAIT     128 00000008 FFFFFFEC         1435  5480M  7095M  8529M 11190M 11439M 11798M 11994M
 @M1FLAG       1 00000025 FFFFFFEB     R    1654  1658   1663   1668
 @M1FR14       4 00000000 FFFFFFEB     A    1637  1641   1641
 @M1FTYPE      1 00000028 FFFFFFEB     R    1678  1687   1697   1707   1717   1727   1737   1747   1757
 @RJ           0 00000000 FFFFFFFA     @    1059  4170
 @RK           0 00000000 FFFFFFF9     @    1071 10174  10175  10365  10373
 @RM           0 00000000 FFFFFFF6     @    1107  5697   5725M  5794   6058   6088M  7209   7265   7302   7437   7569
                                                  7607   7695M  7953M  8637   8688M  8696   8929   8980M
 @RN           0 00000000 FFFFFFF5     @    1119 10848M 10849  11007  11015
 @RS           0 00000000 FFFFFFFD     @    1023  9922M  9923  10024  10062  10096  10195
 @RX           0 00000000 FFFFFFF8     @    1083  4533   4968
 @RY           0 00000000 FFFFFFF7     @    1095  3895
 @R0           0 00000000 FFFFFFFE     @     715   991U
 @R1           0 00000000 FFFFFFFD     @     728   987U 12195U
 @R10          0 00000000 FFFFFFF4     @     845   951U  3804U  4247U  4725U  5130U  6666U  8200U  9208U  9433U  9652U
                                                 10415U 11068U 11316U 11676U 11873U 12080U 12533U 12794U
 @R11          0 00000000 FFFFFFF3     @     858   947U
 @R12          0 00000000 FFFFFFF2     @     871   943U  3799U  4720U  5125U  6661U  8195U  9203U 11311U 11671U 11868U
                                                 12075U
 @R13          0 00000000 FFFFFFF1     @     884   939U  3449U  3539U  3815U  4258U  5458U  5501U  6615U  6677U  7120U
                                                  8145U  8211U  8549U  9154U  9219U  9444U  9663U  9985U 10330U 10426U
                                                 10971U 11079U 11327U 11485U 11626U 11687U 11884U 12091U 12402U 12444U
                                                 12544U 12715U 12805U
 @R14          0 00000000 FFFFFFF0     @     897   935U  4168   4172   4560   4999   6240M  6398M 10125  10747  10769
                                                 10790  10835M 10895
 @R15          0 00000000 FFFFFFEF     @     910   931U  4562   7172   7194   7856M  8601   8623  10167  10800U 11237
                                                 11579
 @R2           0 00000000 FFFFFFFC     @     741   983U  3789U  4237U  4710U  5115U  6651U  8185U  9193U  9423U  9642U
                                                 10405U 11058U 11301U 11661U 11858U 12065U 12528U 12789U
 @R3           0 00000000 FFFFFFFB     @     754   979U  3794U  4242U  4715U  5120U  6656U  8190U  9198U  9428U  9647U
                                                 10410U 11063U 11306U 11666U 11863U 12070U
 @R4           0 00000000 FFFFFFFA     @     767   975U
 @R5           0 00000000 FFFFFFF9     @     780   971U
 @R6           0 00000000 FFFFFFF8     @     793   967U 12523U 12784U
 @R7           0 00000000 FFFFFFF7     @     806   963U 12518U
 @R8           0 00000000 FFFFFFF6     @     819   959U  4169U
 @R9           0 00000000 FFFFFFF5     @     832   955U
 @SBIFLG       1 00000008 FFFFFFCF     R    2590  2595   2601   2606
 @SGASB        4 0000000C FFFFFFE1     A    2115 12758M
 @SGCODE       8 00000000 FFFFFFE1     D    2110 12753M
 @SGECB        4 00000008 FFFFFFE1     A    2111 12743M
 @SGSRID       4 00000010 FFFFFFE1     A    2116 12768M
 @SIGNAL      20 00000000 FFFFFFE1     J    2124 12718U 12726M 12726
 @SUSPFLG      1 00000008 FFFFFFDE     R    2193  2197   2202   2207
 @SYSRDEL      4 00000000 FFFFFFD5     J    2440 12447U 12455M 12455
 @SYSRDID      4 00000000 FFFFFFD5     A    2433 12465M
 @SYSRNEW      4 00000000 FFFFFFD6     J    2418 12691U 12699M 12699
 @TCRFLAG      1 00000014 FFFFFFDA     R    2308  2312   2317
 @VMGET       11 00000000 FFFFFFCA     J    2861  3364U  3372M  3372   3542U  3550M  3550   3626M  3626   3711M  3711
                                                 12278U 12286M 12286
 @VMGFLG       1 0000000A FFFFFFCA     R    2843  2847   2852
 @VMGLEN       4 00000000 FFFFFFCA     A    2838  3389M  3560M  3636M  3721M 12303M
 @VMGPAGE    128 0000000A FFFFFFCA         2847  3643M
 @VMGPOOL      2 00000008 FFFFFFCA     H    2840  3390M  3561M  3637M  3722M 12304M
 ABNL         92 00000000 FFFFFFC6     J    3266  3343U  3384   3437M  3437   3877U  4376U  4813U  5247U  6811U  8317U
                                                  9281U  9497U  9744U 10491U 11153U 11402U 11762U 11958U 12140U 12593U
 ABNLACNT      4 00000034 FFFFFFC6     F    3232  4225M  6597   6599M  8109   8111M  9136   9138M 10172  10173M 10543M
1FILEBIT  (FILEBI) (09:38) (22MAR04) Ordinary Symbol and Literal Cross Reference                                            Page   93
                                                 10543  10588M 10588  10620  10622  10845  10847M 11233  11235M 11575
                                                 11577M
 ABNLAVAL      4 00000020 FFFFFFC6     A    3227  3602M  4559   4998
 ABNLBCNT      4 0000000C FFFFFFC6     F    3216  3887   3888M
 ABNLBID       4 00000000 FFFFFFC6     C    3196  3438M
 ABNLBWK       4 0000003C FFFFFFC6     A    3237  3763M  9782  10019  10558
 ABNLBWKC      4 00000040 FFFFFFC6     F    3238  3692M  9892
 ABNLCNT       4 00000018 FFFFFFC6     F    3224  4399   4534   4545   4916   4969   4994   4996   9386   9602   9864
                                                  9927  10267  10559  11041
 ABNLFCLO    128 00000008 FFFFFFC6         3206  4409   4895   5267   6835   8339  11823M 12010M
 ABNLFCLR     64 00000008 FFFFFFC6         3211  9831   9942  10260  11455M 11469M 12016M 12030M
 ABNLFLAG      1 00000008 FFFFFFC6     R    3202  3206   3211
 ABNLGRID      4 00000004 FFFFFFC6     A    3198  3475M  5474   6631   7089   8161   8523   9170   9309   9357   9525
                                                  9573  11184  11283  11433  11642  11792  11840  11988  12047
 ABNLLMAP      4 00000044 FFFFFFC6     F    3240  3995M  4145   4152M  5491   9043   9050M 10074  10081M 10606  10627
                                                 10715  10716M 10788  10925  10926M
 ABNLMAX       4 00000030 FFFFFFC6     F    3231  3518M  4928
 ABNLMCNT      4 00000024 FFFFFFC6     F    3228  3521M  3691   4984   9614
 ABNLMED       4 0000002C FFFFFFC6     F    3230  3516M  9858  10266  10575  10615
 ABNLMGET      4 00000050 FFFFFFC6     F    3256 10497  10508M
 ABNLMIN       4 00000028 FFFFFFC6     F    3229  3519M  4481
 ABNLMMAP      4 00000048 FFFFFFC6     F    3241  3928M 10606  11266M 11608M
 ABNLMREL      4 0000004C FFFFFFC6     F    3255  9750   9761M
 ABNLRBUF      4 00000038 FFFFFFC6     A    3236  3684M  4041   5445   5517   5612   6107   6148   6173   6190   6219
                                                  6351   6444   7047   7136   7714   7757   7781   7847   7934   7996
                                                  8496   8565   9026  10001  10651
 ABNLSEQ       4 0000001C FFFFFFC6     F    3225  4532   4563M  4967   5001M
 ABNLTGET      4 00000058 FFFFFFC6     F    3258  4668   4679M  6568   6577M  8080   8089M
 ABNLTOKN      8 00000018 FFFFFFC6     D    3223  4531   4966
 ABNLTREL      4 00000054 FFFFFFC6     F    3257  5070   5081M  9107   9116M
 ABNLW         8 00000010 FFFFFFC6     D    3219 12361  12371M 12618  12645M
 ABNLWFP       4 00000010 FFFFFFC6     A    3220 12370  12370
 ABNLXEMP      1 00000040 FFFFFFC6 A   U    3251  4276
 ABNLXMAX      1 00000200 FFFFFFC6 A   U    3244  4266
 ABNLXMIN      1 00000040 FFFFFFC6 A   U    3243  4265
 ABNLXOVR      1 00000100 FFFFFFC6 A   U    3253  4268
 ABNLXREF      1 00000030 FFFFFFC6 A   U    3248  4267
 AWAIT         1 00000000 00000007     T   12917 12917
 BITCLR20      2 00001A92 00000001     H   12560 12559
 BITCNT        1 00001B12 00000001     U   12837  4272
 BITCNT20      2 0000020E 00000001     H    3831  3830
 BITTABN       1 0000153E 00000001     R   10428 10166
 BITTABT       1 00001546 00000001     R   10430 10116
 BL            2 00000002 FFFFFFC7 A   N    2933  2935   2935
 BR           10 0000000A FFFFFFFF A   #    1136  3290M  3300U  3837M  3847U  4318M  4328U  4755M  4765U  5188M  5198U
                                                  6752M  6762U  8258M  8268U  9241M  9251U  9457M  9467U  9704M  9714U
                                                 10451M 10461U 11100M 11110U 11349M 11359U 11709M 11719U 11905M 11915U
                                                 12113M 12123U 12566M 12576U
 CTBITRCT      8 00000150 FFFFFFC7     D    3129  3139
 CTCACHCT      8 000001A0 FFFFFFC7     D    3158  3168
 CTCATRCT      8 00000148 FFFFFFC7     D    3128  3138
 CTIXRRCT      8 00000158 FFFFFFC7     D    3130  3140
 CTMASRCT      8 00000140 FFFFFFC7     D    3127  3137
 CTOTHRCT      8 00000168 FFFFFFC7     D    3132  3142
 CTREADCT      8 00000140 FFFFFFC7     D    3126  3137   3138   3139   3140   3141   3142   3166   3171   3171   3172
                                                  3172
 CTUSERCT      8 00000160 FFFFFFC7     D    3131  3141
 CTWRITCT      8 00000170 FFFFFFC7     D    3146  3167
 EPAR         15 0000000F FFFFFFFF A   #    1196  3290   3393M  3394B  3473M  3474B  3564M  3565B  3646M  3647B  3725M
1FILEBIT  (FILEBI) (09:38) (22MAR04) Ordinary Symbol and Literal Cross Reference                                            Page   94
                                                  3726B  3776M  3777B  3837   4079M  4080B  4318   4492M  4493B  4755
                                                  4955M  4956B  5188   5401M  5402B  5489M  5490B  6435M  6436B  6460M
                                                  6461B  6634M  6635B  6641M  6642B  6752   7104M  7105B  7987M  7988B
                                                  8012M  8013B  8164M  8165B  8171M  8172B  8258   8538M  8539B  9017M
                                                  9018B  9065M  9066B  9173M  9174B  9180M  9181B  9241   9318M  9319B
                                                  9339M  9340B  9360M  9361B  9367M  9368B  9407M  9408B  9457   9534M
                                                  9535B  9555M  9556B  9576M  9577B  9583M  9584B  9626M  9627B  9704
                                                  9903M  9904B  9954M  9955B 10048M 10049B 10219M 10220B 10371M 10372B
                                                 10451  10686M 10687B 10953M 10954B 11013M 11014B 11031M 11032B 11100
                                                 11199M 11200B 11286M 11287B 11293M 11294B 11349  11448M 11449B 11461M
                                                 11462B 11519M 11520B 11645M 11646B 11652M 11653B 11709  11807M 11808B
                                                 11815M 11816B 11843M 11844B 11850M 11851B 11905  12003M 12004B 12022M
                                                 12023B 12050M 12051B 12057M 12058B 12113  12307M 12308B 12433M 12434B
                                                 12468M 12469B 12566  12702M 12703B 12771M 12772B
 FBITACT       4 00001894 00000001     I   11708 11703  11719U
 FBITADDV      4 00001704 00000001     I   11099 11094  11110U
 FBITCLR       4 00001A9E 00000001     I   12565  6691   9675  12576U 12906
 FBITCNT       4 0000021A 00000001     I    3836  3847U  4270  12914
 FBITDEA       4 00001906 00000001     I   11904 11899  11915U
 FBITEFM       1 00000DB4 00000001     B    7963  7246
 FBITEGET      2 00000DCC 00000001     H    7975  7153B  7347B  7504B  7554B  7768B  7895B  7945B
 FBITELM       1 00000DBC 00000001     B    7967  7171
 FBITEPUT      2 00000DEC 00000001     H    8000  7720B  7871B  7954B
 FBITERM       1 00000DC4 00000001     B    7971  7193   7560
 FBITEXTE      2 00000E08 00000001     H    8024  7297B  7473B  7640B  7664B
 FBITEXTG      2 00000E18 00000001     H    8050  7960B
 FBITEXTN      4 00000A6C 00000001     I    6751  6746   6762U 12913
 FBITEXTX      2 00000E4A 00000001     H    8118  8047B
 FBITGCOE      2 0000096C 00000001     H    6472  5429B  5552B  5630B  5683B  5780B
 FBITGCON      4 000005E0 00000001     I    5187  5182   5198U
 FBITGCOX      2 00000972 00000001     H    6481  5734B  6411B
 FBITGCO2      2 000006B6 00000001     H    5536  5581B  5606B
 FBITGCO4      2 000006C4 00000001     H    5561  5820B  5945B  6074B
 FBITGCO5      2 00000788 00000001     H    5822  5802B
 FBITGET       4 000003A4 00000001     I    4317  4312   4328U  6684  12905
 FBITGGET      2 00000930 00000001     H    6423  5558B  5861B  5971B  6042B  6159B  6308B  6362B
 FBITGLM       1 00000920 00000001     B    6415  5759   6228   6389
 FBITGPUT      2 00000950 00000001     H    6448  5733B  6113B  6269B  6406B
 FBITGRM       1 00000928 00000001     B    6419  5661   6049
 FBITINIT      4 00000022 00000001     I    3289  3284   3300U
 FBITMANG      4 000011F4 00000001     I    9240  6681   9251U
 FBITMANR      4 00001270 00000001     I    9456  6683   9467U
 FBITMGET      4 0000155A 00000001     I   10450  9676  10461U
 FBITMREL      4 00001354 00000001     I    9703  9679   9714U 12912
 FBITRCON      4 00000E84 00000001     I    8257  8252   8268U
 FBITRCOX      2 00001192 00000001     H    9077  8994B
 FBITREL       4 000004C6 00000001     I    4754  4749   4765U 12908
 FBITREMV      4 000017AE 00000001     I   11348 11343  11359U
 FBITREMX      2 00001864 00000001     H   11615 11537B
 FBITRGET      2 0000114A 00000001     H    9005  8582B  8742B  8863B  8914B
 FBITRLM       1 0000113A 00000001     B    8997  8600
 FBITRPUT      2 0000116A 00000001     H    9030  8735B  8839B  8907B  8988B
 FBITRRM       1 00001142 00000001     B    9001  8622   8920
 FBITWAIT      4 0000197C 00000001     I   12112  9678  12123U
 FDOIODO       1 00000000 00000004     T    4273  4273   6689   9673  12907
 FILEBI        1 00000000 00000001     R    1228  1226
 FILEBIT       1 00000000 00000001     J    1219  1216   1217   1221   1327   1408   1456   1767   1795   1850   1912
                                                  1935   1954   1983   2040   2060   2094   2125   2154   2173   2217
                                                  2242   2265   2288   2327   2350   2373   2396   2419   2441   2467
1FILEBIT  (FILEBI) (09:38) (22MAR04) Ordinary Symbol and Literal Cross Reference                                            Page   95
                                                  2490   2513   2536   2562   2616   2642   2667   2693   2820   2862
                                                  2883   2904   3183   3267   3270
 FSB         480 00000000 FFFFFFC7     J    3182  3330U  3770   3864U  4363U  4800U  5233U  6797U  8303U  9268U  9484U
                                                  9731U 10478U 11140U 11389U 11749U 11809  11945U
 FSBABLK       4 000000DC FFFFFFC7     A    3088  4224M  4515   4637   4647M  5038   5049M  5292   6539   6548M  8051
                                                  8060M  9078   9087M 11204  11213M 11546  11555M
 FSBABNL       4 000000E8 FFFFFFC7     A    3091  3430M  3882   4381   4819   5251   6815   8321  11160  11409  11768
                                                 11964
 FSBAFLGS      1 00000009 FFFFFFC7     R    2950  2954   2959   2964   2969   2974   2979
 FSBBALST      1 000000AC FFFFFFC7     X    3062  3081
 FSBBITBC      4 000000D8 FFFFFFC7     A    3087  3962
 FSBBITSB      4 000000D4 FFFFFFC7     A    3086  4066   6425   6450   7977   8002   9007   9055  10029  10628
 FSBBMCNO      2 000000D0 FFFFFFC7     Y    3085  3477
 FSBDSZ        2 000000AC FFFFFFC7     Y    3063  3904   4046   5442   5446   5522   5614   7018   7048   7141   8467
                                                  8497   8570  10006  10025  10656  10789  11243  11585
 FSBFCACT      8 000001A0 FFFFFFC7     D    3157  3170   3170
 FSBFIOCT      8 00000140 FFFFFFC7     D    3125  3153   3153   3166   3167   3168
 FSBOFLGS      1 0000000B FFFFFFC7     R    3005  3009   3014   3019
 FSBSFLGS      1 0000000A FFFFFFC7     R    2985  2989   2994   2999
 FSBTBLK       4 000000E0 FFFFFFC7     A    3089  3894   4201   4845   5419   6511   6860   6925   6962   8364   8406
                                                 10813  11202  11203M 11236  11470  11543  11545M 11578
 GRCRE         1 00000000 00000003     T    4264  4264
 GRGET         1 00000000 00000005     T    6685  6685   9670  12910
 GRREL         1 00000000 00000006     T    6690  6690   9674  12911
 HIBAL         1 00000000 FFFFFFFF     J     700   716    729    742    755    768    781    794    807    820    833
                                                   846    859    872    885    898    911   1012   1024   1036   1048
                                                  1060   1072   1084   1096   1108   1120   1132   1144   1156   1168
                                                  1180   1192   1204
 ITMANG20      2 000011E8 00000001     H    9235  9234
 ITMANR20      2 00001264 00000001     H    9451  9450
 ITMGET20      2 0000154E 00000001     H   10445 10444
 ITMREL20      2 00001348 00000001     H    9698  9697
 ITWAIT20      2 00001970 00000001     H   12107 12106
 MAT         256 00000000 FFFFFFED     J    1407 12182U
 MATPTR        4 00000200 FFFFFFED A   A    1354 12172
 MATSBWB       4 00000020 FFFFFFED     A    1366 12188
 OL            2 00000002 FFFFFFC7 A   N    2934  2935   2935
 PZABORT     128 0000021A FFFFFFEE         1307  3418M  3590M  3672M  3751M  3978M  4608M  4860M  6527M  8380M  8422M
                                                  8666M  8822M  8958M 10154M 12332M
 PZABR15       4 0000021C FFFFFFEE     A    1316  3419M  3591M  3673M  3752M  3979M  4609M  4861M  6528M  8381M  8423M
                                                  8667M  8823M  8959M 10155M 12333M
 PZABSM        1 0000021B FFFFFFEE     X    1315  3412M  3584M  3666M  3745M  3972M  4602M  4854M  6521M  8374M  8416M
                                                  8660M  8816M  8952M 10148M 12326M
 PZCURASB      4 00000208 FFFFFFEE     A    1292 12357
 PZERO       640 00000000 FFFFFFEE     J    1326  1336U
 PZLCPUA       4 00000210 FFFFFFEE     A    1294  3420   3592   3674   3753   3980   4610   4862   6529   8382   8424
                                                  8668   8824   8960  10156  12334
 PZTERMFL      1 0000021A FFFFFFEE     R    1303  1307   1312
 RA            2 00000002 FFFFFFFF A   #    1028  3343U  3402M  3877U  3882M  4376U  4381M  4813U  4819M  5247U  5251M
                                                  6811U  6815M  8317U  8321M  9281U  9497U  9744U 10491U 11153U 11160M
                                                 11402U 11409M 11762U 11768M 11958U 11964M 12140U 12593U
 RAR          14 0000000E FFFFFFFF A   #    1184  3394M  3474M  3565M  3647M  3726M  3777M  3809B  4080M  4252B  4493M
                                                  4730B  4956M  5135B  5402M  5490M  6436M  6461M  6635M  6642M  6671B
                                                  7105M  7988M  8013M  8165M  8172M  8205B  8539M  9018M  9066M  9174M
                                                  9181M  9213B  9319M  9340M  9361M  9368M  9408M  9438B  9535M  9556M
                                                  9577M  9584M  9627M  9657B  9904M  9955M 10049M 10220M 10372M 10420B
                                                 10687M 10954M 11014M 11032M 11073B 11200M 11287M 11294M 11321B 11449M
                                                 11462M 11520M 11646M 11653M 11681B 11808M 11816M 11844M 11851M 11878B
                                                 12004M 12023M 12051M 12058M 12085B 12308M 12434M 12469M 12538B 12703M
1FILEBIT  (FILEBI) (09:38) (22MAR04) Ordinary Symbol and Literal Cross Reference                                            Page   96
                                                 12772M 12799B
 RB            3 00000003 FFFFFFFF A   #    1040  3330U  3347M  3864U  3881M  4363U  4380M  4800U  4818M  5233U  5237M
                                                  6797U  6801M  8303U  8307M  9268U  9484U  9731U 10478U 11140U 11159M
                                                 11389U 11408M 11749U 11767M 11945U 11963M
 RJ            4 00000004 FFFFFFFF A   #    1052  3990M  5611M  5612M  5615M  5627   5636M  5662   5777   5806M  5824
                                                  5830M  5830   5832M  5833   6004M  6013M  6013   6048M  6049M  6049
                                                  6051   6081   6225M  6227M  6228M  6228   6233   6323M  6332M  6332
                                                  6388M  6389M  6389   6391  10025M 10026M 10027  10097
 RK            5 00000005 FFFFFFFF A   #    1064  5831M  5834   5876M  5876   5900   5906M  5922   5926M  5926   5959M
                                                  5959   6122M  6131M  6131   6183   6189M  6206   6262M  6262   6278M
                                                  6278  10058M 10060M 10061M 10062M 10062  10175  10176M 10373  10374M
                                                 10753M 10799
 RM            8 00000008 FFFFFFFF A   #    1100  4168M  4170M  4170   4171   5563   5594M  5611   5819M  5837M  5849
                                                  5866   5890   5942M  6030   6107   6148   6160M  6172   6190M  6207M
                                                  6219   6229   6268M  6309M  6444M  6973M  6973   6975M  6986M  6986
                                                  7008   7017M  7017   7019M  7021   7154M  7302M  7335   7359   7412M
                                                  7542   7714   7757   7769M  7780   7822M  7847   7853   7869   7870M
                                                  7872M  7896M  7934   7946M  7952M  7996M  8439M  8439   8441M  8450M
                                                  8450   8457   8466M  8466   8468M  8470   8583M  8696M  8729   8754
                                                  8797   8838M  8901   9026M  9841M  9841   9858M  9878  10057M 10266M
                                                 10268M 10289  10295M 10316  10732M 10914M 10914
 RN            9 00000009 FFFFFFFF A   #    1112  3994M  3994   4171M  4218M  4224   4225   4562M  4592M  4592   4703
                                                  5562M  5563M  5825M  5826M  5831   5889M  5890M  5900   5906   5922M
                                                  6172M  6173M  6183   6189   6206M  6824M  6874   6974M  7020   7021M
                                                  7154   7358M  7359M  7369   7375M  7395   7404   7468   7780M  7781M
                                                  7791   7797M  7817   7822   8134M  8173   8440M  8469   8470M  8583
                                                  8753M  8754M  8764   8770M  8790   8798   9786M  9786   9892   9926M
                                                  9970M  9970  10057  10058  10178M 10236M 10236  10289  10295  10299M
                                                 10299  10316M 10558M 10849M 11006M 11015  11158M 11201  11212  11234
                                                 11407M 11471  11530  11536M 11544  11554  11576  11612M 11612  11654
                                                 12171M 12358
 RS            1 00000001 FFFFFFFF A   #    1016  3477M  3480   3492M  3499   3511M  3516   3517M  3518   3520M  3521
                                                  3522M  3608M  3691M  3692   3693M  5253M  5292   5314M  5314   5336M
                                                  5336   5361   5418   5420   5442M  5443   5558M  5733M  5861M  5971M
                                                  6042M  6113M  6159M  6269M  6308M  6362M  6406M  6445B  6469B  6860
                                                  6913   6963   6974   7153M  7347M  7422M  7422   7461M  7470   7504M
                                                  7554M  7592M  7592   7631M  7638M  7639   7720M  7768M  7871M  7895M
                                                  7945M  7954M  7997B  8021B  8364   8394   8440   8582M  8735M  8742M
                                                  8798M  8839M  8863M  8907M  8914M  8988M  9027B  9074B  9782M  9923M
                                                 10019M 10174  10195M 11201M 11202M 11203  11243M 11244  11261M 11266
                                                 11470M 11471M 11543M 11544M 11545  11585M 11586  11603M 11608  12172M
                                                 12182U 12200M 12226  12369M 12488M 12618M 12644
 RVR           0 00000000 FFFFFFFF A   #    1004  3384M  3402   3430   3475   3574M  3574   3602   3607M  3656M  3656
                                                  3684   3689M  3735M  3735   3763   3768M  3770M  3782M  3782   3881
                                                  4230M  4230   4418M  4418   4505M  4505   4703M  4831M  4831   4845
                                                  4880   4885M  4885   5108M  5108   5253   5257M  5257   5662M  5680
                                                  5716   5742M  5758M  5823   5826   6643M  6824   6825M  6874M  6884M
                                                  6884   6912   6962M  6963M  6969   7018M  7019   8034M  8035M  8035
                                                  8042M  8115M  8115   8134   8173M  8393   8435   8467M  8468   8797M
                                                  9142M  9142   9185M  9185   9328M  9328   9401M  9544M  9544   9620M
                                                  9913M  9913   9922  10365M 10532M 10532  11007M 11051M 11051  11158
                                                 11407  11475M 11475  11530  11654M 11809M 12171  12200M 12215M 12215
                                                 12224  12227M 12256M 12256  12298M 12316M 12316  12348  12362M 12371
                                                 12425M 12481M 12490  12618M 12633M 12633  12642  12645M 12673  12704
                                                 12738M
 RX            6 00000006 FFFFFFFF A   #    1076  3893M  3893   4065   4152   4189M  4532M  4563M  4967M  5001M  7317M
                                                  7318M  7318   7369   7375   7379M  7379   7395M  7489M  7489   7739M
                                                  7740M  7740   7791   7797   7801M  7801   7817M  7833M  7833   7881M
                                                  7881   8711M  8712M  8712   8764   8770   8774M  8774   8790M  8848M
1FILEBIT  (FILEBI) (09:38) (22MAR04) Ordinary Symbol and Literal Cross Reference                                            Page   97
                                                  8848  10116M 10118  10615M 10616M 10620  10622M 10862  12153U 12348M
                                                 12606U 12673M
 RY            7 00000007 FFFFFFFF A   #    1088  3894M  3895M  3898M  3899   4059M  4059   4092   4098   4102M  4102
                                                  4119M  4533M  4968M  7404M  7468M  7469M  7470M  7471M  7472   7478M
                                                  7479M  7480   7869M  7872  10028M 10074  10081  10107  10626M 10626
                                                 10852M 10862  10939M 10939  12166U 12188M
 R0            0 00000000 FFFFFFFF A   #     708  1336U  3289   3836   3904M  3905   3906M  3923M  3928   4132M  4196M
                                                  4202   4217M  4218   4317   4530M  4754   4965M  5187   6751   8257
                                                  8806M  9240   9456   9703  10450  10705M 10788M 10789M 10792M 10793M
                                                 10801M 10813  10848  11099  11348  11708  11904  12112  12565
 R1            1 00000001 FFFFFFFF A   #     721  3807M  4124M  4250M  4531M  4728M  4966M  5133M  6669M  8203M  9211M
                                                  9436M  9655M 10418M 10697M 10754M 10762  10828  10880M 11071M 11319M
                                                 11679M 11876M 12083M 12536M 12797M
 R14          14 0000000E FFFFFFFF A   #     890  3607M  3689M  3768M  3903M  3903   3905M  3915M  3915   3937M  3937
                                                  4081M  4132M  4172M  4200M  4200   4202M  4211M  4211   4217   4559M
                                                  4637M  4644   4647M  4668M  4675   4679M  4998M  5038M  5045   5049M
                                                  5070M  5077   5081M  5441M  5441   5443M  5594M  5659M  5660M  5759M
                                                  5803M  5942M  6229M  6231M  6268M  6363M  6380M  6386M  6498M  6499M
                                                  6511   6539M  6546   6548M  6568M  6575   6577M  6912M  6913M  6925
                                                  7007M  7008M  7009   7038M  7038   7039M  7041   7156M  7165M  7165
                                                  7171   7184   7190M  7192   7195M  7229   7245M  7246   7250M  7250
                                                  7290M  7296   7412M  7559M  7560   7645M  7646   7870M  8051M  8058
                                                  8060M  8080M  8087   8089M  8393M  8394M  8406   8456M  8457M  8458
                                                  8487M  8487   8488M  8490   8585M  8594M  8594   8600   8613   8619M
                                                  8621   8678M  8679M  8681   8806M  8838M  8919M  8920   8970M  8971M
                                                  8973   9078M  9085   9087M  9107M  9114   9116M  9750M  9757   9761M
                                                 10023M 10023  10027M 10095M 10095  10097M 10113M 10115M 10167  10497M
                                                 10504  10508M 10695M 10705M 10895M 11204M 11211  11213M 11242M 11242
                                                 11244M 11253M 11253  11546M 11553  11555M 11584M 11584  11586M 11595M
                                                 11595  12224M 12225M 12225  12227  12361M 12371M 12480M 12490M 12642M
                                                 12643M 12643  12645
 R15          15 0000000F FFFFFFFF A   #     903  3289   3419   3420M  3421M  3422M  3423M  3424M  3424   3591   3592M
                                                  3593M  3594M  3595M  3596M  3596   3606M  3606   3673   3674M  3675M
                                                  3676M  3677M  3678M  3678   3688M  3688   3752   3753M  3754M  3755M
                                                  3756M  3757M  3757   3767M  3767   3807M  3836   3886M  3887M  3888
                                                  3899M  3906   3946M  3962   3979   3980M  3981M  3982M  3983M  3984M
                                                  3984   4065M  4066M  4082M  4092   4098M  4119   4201M  4250M  4317
                                                  4399M  4427M  4427   4481   4515M  4516M  4516   4534M  4535   4545M
                                                  4546M  4546   4556M  4557   4558M  4560M  4560   4561   4609   4610M
                                                  4611M  4612M  4613M  4614M  4614   4644M  4646M  4647   4675M  4678M
                                                  4679   4728M  4754   4861   4862M  4863M  4864M  4865M  4866M  4866
                                                  4916M  4928   4969M  4972M  4984   4993   4994M  4995   4996M  4997M
                                                  4999M  4999   5000   5045M  5048M  5049   5077M  5080M  5081   5133M
                                                  5187   5419M  5420M  5435   5436M  5437   5444   5445M  5446M  5447
                                                  5578M  5579M  5580   5586M  5603M  5604M  5605   5613M  5614M  5615
                                                  5656M  5658M  5660   5661M  5661   5690   5718   5739M  5759M  5787
                                                  5858M  5859M  5860   5934M  5934   5968M  5969M  5970   6039M  6040M
                                                  6041   6156M  6157M  6158   6267M  6305M  6306M  6307   6359M  6360M
                                                  6361   6424M  6425M  6426   6449M  6450M  6451   6528   6529M  6530M
                                                  6531M  6532M  6533M  6533   6546M  6547M  6548   6575M  6576M  6577
                                                  6597M  6598M  6599   6669M  6751   7022M  7023M  7040   7047M  7048M
                                                  7049   7171M  7191M  7192M  7193M  7193   7200M  7202   7246M  7258
                                                  7287M  7344M  7345M  7346   7403M  7403   7418M  7430   7462M  7501M
                                                  7502M  7503   7551M  7552M  7553   7560M  7562   7588M  7600   7632M
                                                  7688   7765M  7766M  7767   7853M  7855M  7868M  7892M  7893M  7894
                                                  7942M  7943M  7944   7976M  7977M  7978   8001M  8002M  8003   8058M
                                                  8059M  8060   8087M  8088M  8089   8109M  8110M  8111   8203M  8257
                                                  8381   8382M  8383M  8384M  8385M  8386M  8386   8423   8424M  8425M
                                                  8426M  8427M  8428M  8428   8471M  8472M  8489   8496M  8497M  8498
1FILEBIT  (FILEBI) (09:38) (22MAR04) Ordinary Symbol and Literal Cross Reference                                            Page   98
                                                  8600M  8620M  8621M  8622M  8622   8628M  8630   8667   8668M  8669M
                                                  8670M  8671M  8672M  8672   8679   8739M  8740M  8741   8796M  8823
                                                  8824M  8825M  8826M  8827M  8828M  8828   8837M  8837   8860M  8861M
                                                  8862   8911M  8912M  8913   8920M  8922   8959   8960M  8961M  8962M
                                                  8963M  8964M  8964   8971   9006M  9007M  9008   9031M  9043   9050
                                                  9055M  9056   9085M  9086M  9087   9114M  9115M  9116   9136M  9137M
                                                  9138   9211M  9240   9386M  9395M  9395   9436M  9456   9602M  9614
                                                  9655M  9703   9757M  9760M  9761   9864M  9878   9927M 10024M 10028
                                                 10029M 10096M 10107  10114M 10116  10155  10156M 10157M 10158M 10159M
                                                 10160M 10160  10166M 10166  10171M 10172M 10173  10267M 10268  10418M
                                                 10450  10504M 10507M 10508  10559M 10575  10616  10627M 10628M 10696M
                                                 10714M 10715M 10716  10732  10790M 10791M 10792  10799M 10801  10845M
                                                 10846M 10847  10924M 10925M 10926  11041M 11071M 11099  11211M 11212M
                                                 11213  11233M 11234M 11235  11236M 11237M 11238M 11319M 11348  11553M
                                                 11554M 11555  11575M 11576M 11577  11578M 11579M 11580M 11679M 11708
                                                 11876M 11904  12083M 12112  12226M 12333  12334M 12335M 12336M 12337M
                                                 12338M 12338  12361M 12369  12480M 12488  12536M 12565  12644M 12704M
                                                 12797M
 SBWAIT       32 00000000 FFFFFFCC     J    2692 12153U 12298  12355M 12355  12362  12370M 12476M 12476  12481  12489M
                                                 12606U
 SBWASB        4 0000000C FFFFFFCC     A    2682 12357M 12758
 SBWBID        4 00000008 FFFFFFCC     C    2680 12356M 12477M
 SBWECB        8 00000010 FFFFFFCC     D    2683 12425  12738
 SBWORD1       4 00000018 FFFFFFCC     A    2684 12358M
 SIGNAL        1 00000000 0000000A     T   12921 12921
 SLDUM         8 00000000 FFFFFFCB     D    2810 12166U 12200  12227M 12480  12490M
 SLDUMFP       4 00000000 FFFFFFCB     A    2811 12489  12489
 SPR          13 0000000D FFFFFFFF A   #    1172  3289   3304   3305   3320M  3364U  3452U  3542U  3836   3851   3852
                                                  3854M  4005U  4317   4332   4333   4353M  4754   4769   4770   4790M
                                                  5187   5202   5203   5223M  5376U  5461U  5504U  6618U  6751   6766
                                                  6767   6787M  7076U  7123U  8148U  8257   8272   8273   8293M  8510U
                                                  8552U  9157U  9240   9255   9256   9258M  9296U  9456   9471   9472
                                                  9474M  9512U  9703   9718   9719   9721M  9796U  9988U 10333U 10450
                                                 10465  10466  10468M 10638U 10974U 11099  11114  11115  11130M 11171U
                                                 11348  11363  11364  11379M 11420U 11488U 11629U 11708  11723  11724
                                                 11739M 11779U 11904  11919  11920  11935M 11975U 12112  12127  12128
                                                 12130M 12278U 12405U 12447U 12565  12580  12581  12583M 12691U 12718U
 SYSRDEL       1 00000000 00000008     T   12918 12918
 SYSRNEW       1 00000000 00000009     T   12920 12920
 VMGET         1 00000000 00000002     T    4262  4262  12915
 WAR          12 0000000C FFFFFFFF A   #    1160  3304   3305M  3306   3316U  3320   3807   3808   3851   3852M  3853
                                                  3854   4250   4251   4332   4333M  4334   4344U  4353   4728   4729
                                                  4769   4770M  4771   4781U  4790   5133   5134   5202   5203M  5204
                                                  5214U  5223   6669   6670   6766   6767M  6768   6778U  6787   8203
                                                  8204   8272   8273M  8274   8284U  8293   9211   9212   9255   9256M
                                                  9257   9258   9436   9437   9471   9472M  9473   9474   9655   9656
                                                  9718   9719M  9720   9721  10418  10419  10465  10466M 10467  10468
                                                 11071  11072  11114  11115M 11116  11126U 11130  11319  11320  11363
                                                 11364M 11365  11375U 11379  11679  11680  11723  11724M 11725  11735U
                                                 11739  11876  11877  11919  11920M 11921  11931U 11935  12083  12084
                                                 12127  12128M 12129  12130  12536  12537  12580  12581M 12582  12583
                                                 12797  12798
 =A(ABNLXMAX)
               4 00000370 00000001     A    4266  3499   3511
 =A(ABNLXMIN)
               4 0000036C 00000001     A    4265  3480   3492
 =A(ABNLXOVR)
               4 00000378 00000001     A    4268  3520
 =A(ABNLXREF)
1FILEBIT  (FILEBI) (09:38) (22MAR04) Ordinary Symbol and Literal Cross Reference                                            Page   99
               4 00000374 00000001     A    4267  3519
 =A(BITCNT)
               4 00000388 00000001     A    4272  3990
 =A(FBITCLR)
               4 00000A40 00000001     A    6691  6641
 =A(FBITCLR)
               4 00001308 00000001     A    9675  8171   9180   9367   9583
 =A(FBITCLR)
               4 00001C20 00000001     A   12906  9954  11031  11293  11652  11850  12057
 =A(FBITCNT)
               4 00000380 00000001     A    4270  3776
 =A(FBITCNT)
               4 00001C40 00000001     A   12914 11815
 =A(FBITEXTN)
               4 00001C3C 00000001     A   12913 11519
 =A(FBITGET)
               4 00000A24 00000001     A    6684  5401
 =A(FBITGET)
               4 00001C1C 00000001     A   12905  9903
 =A(FBITMANG)
               4 00000A18 00000001     A    6681  4492
 =A(FBITMANR)
               4 00000A20 00000001     A    6683  4955
 =A(FBITMGET)
               4 0000130C 00000001     A    9676  9339
 =A(FBITMREL)
               4 00001318 00000001     A    9679  9555
 =A(FBITMREL)
               4 00001C38 00000001     A   12912 11461  12022
 =A(FBITREL)
               4 00001C28 00000001     A   12908 10371  11013
 =A(FBITWAIT)
               4 00001314 00000001     A    9678  9407   9626
 =A(1)         4 00000384 00000001     A    4271  3946   4189
 =A(1)         4 00000A1C 00000001     A    6682  4678   4972   5048   5080   5361   5742   5806   5819   5837
 =A(1)         4 000012F8 00000001     A    9671  7290   7461   7631
 =A(1)         4 00001C18 00000001     A   12904  9760   9926  10507  10852
 =A(4096)      4 0000037C 00000001     A    4269  3608
 =AL1(0,7,6,5,4,3,2,1,0)
               1 00001C64 00000001     R   12924 10799
 =AL4(8)       4 00000A30 00000001     R    6687  5650
 =AL4(8)       4 000012F0 00000001     R    9669  7001
 =C'sBWB'      4 00001C54 00000001     C   12919 12477
 =C'ABNL'      4 00000364 00000001     C    4263  3438
 =C'MGET'      4 00001310 00000001     C    9677  9401
 =C'MREL'      4 0000131C 00000001     C    9680  9620
 =CL4'BITM'
               4 00001C48 00000001     C   12916 12356
 =F'-1'        4 000012E8 00000001     F    9667  6825
 =F'8'         4 00000A34 00000001     F    6688  5832
 =F'8'         4 000012EC 00000001     F    9668  6975   7039   8441   8488
 =H'4'         2 00001C60 00000001     H   12922 10176  10374  11006
 =V(AWAIT)
               4 00001C4C 00000001     V   12917 12433
 =V(FDOIODO)
               4 0000038C 00000001     V    4273  4079
 =V(FDOIODO)
               4 00000A38 00000001     V    6689  6435   6460
 =V(FDOIODO)
1FILEBIT  (FILEBI) (09:38) (22MAR04) Ordinary Symbol and Literal Cross Reference                                            Page  100
               4 00001300 00000001     V    9673  7987   8012   9017   9065
 =V(FDOIODO)
               4 00001C24 00000001     V   12907 10048  10219  10686  10953
 =V(GRCRE)
               4 00000368 00000001     V    4264  3473
 =V(GRGET)
               4 00000A28 00000001     V    6685  5489
 =V(GRGET)
               4 000012F4 00000001     V    9670  7104   8538   9318   9534
 =V(GRGET)
               4 00001C30 00000001     V   12910 11199  11448  11807  12003
 =V(GRREL)
               4 00000A3C 00000001     V    6690  6634
 =V(GRREL)
               4 00001304 00000001     V    9674  8164   9173   9360   9576
 =V(GRREL)
               4 00001C34 00000001     V   12911 11286  11645  11843  12050
 =V(SIGNAL)
               4 00001C5C 00000001     V   12921 12771
 =V(SYSRDEL)
               4 00001C50 00000001     V   12918 12468
 =V(SYSRNEW)
               4 00001C58 00000001     V   12920 12702
 =V(VMGET)
               4 00000360 00000001     V    4262  3393   3564   3646   3725
 =V(VMGET)
               4 00001C44 00000001     V   12915 12307
 =X'FF000000'
               4 00000390 00000001     X    4274  4124
 =X'FF000000'
               4 00000A2C 00000001     X    6686  5586   6267
 =X'FF000000'
               4 000012FC 00000001     X    9672  7868   8796
 =X'FF000000'
               4 00001C2C 00000001     X   12909 10697
 =Y(ABNLXEMP)
               2 00000396 00000001     Y    4276  3517
 =Y(59*256+0)
               2 00001C62 00000001     Y   12923 12304
 =Y(63*256+0)
               2 00000394 00000001     Y    4275  3390   3561   3637   3722

1FILEBIT  (FILEBI) (09:38) (22MAR04) Macro and Copy Code Source Summary                                                     Page  101
- Con Source                                        Volume    Members                        HLASM R4.0  2004/03/22 09.38
0     PRIMARY INPUT                                           BITCNT   CSECT    DROP     END      EX       GRCAN
                                                              GRCRE    GRDEL    GRGET    GRREL    GRX2S    LTORG    POP
                                                              PRINT    PUSH     SAVAIL   SHEAD    SPOP     SPUSH
                                                              START    USING
   L2 WYL.GG.ORV.MACLIB                             SYSB02    $LKPARM  ABORT    ACALL    AWAIT    DECRS    DISPPARM
                                                              FILEPARM FSB      GRPARM   HEADER   INCRS    MAT
                                                              MODULE   PEND     PMOV     PROC     PSET     PZERO    REG
                                                              SBPARM   SIGNL    SIGPARM  SLISTMAC SPLEVEL  VCALL
                                                              VMGET    VMPARM
   L3 WYL.GG.SYS.MACLIB                             SYSB05    $BC      $BFLKUP  $BV      $CCLKUP  $CRS     $CSS     $L
                                                              $LA      $LBLAD   $LEXP    $LOR     $REL     $RGLKUP
                                                              $USLKUP  AUSING   BEGIN    CEIL     CLEAR    CSECT    DATA
                                                              DECR     DEFCC    DROP     ELSE     END      EX       EXIT
                                                              FLAG     FLOOR    GEN      HIBAL    IDENT    IF       INCR
                                                              LABEL    LC       LOOP     LT       LTORG    POP
                                                              PRINT    PUSH     RECORD   REGS     SET      START    STF
                                                              UNTIL    USING    WHILE    WITH

1         (FILEBI) (09:38) (22MAR04) General Purpose Register Cross Reference                                               Page  102
- Register  References (M=modified, B=branch, U=USING, D=DROP, N=index)                      HLASM R4.0  2004/03/22 09.38
0    0(0)      991U   992D  1336U  3289   3384M  3389   3402   3430   3475   3574M  3574   3602   3607M  3656M  3656
              3684   3689M  3735M  3735   3763   3768M  3770M  3782M  3782   3836   3881   3904M  3905   3906M  3923M
              3928   4132M  4196M  4202   4217M  4218   4230M  4230   4317   4418M  4418   4505M  4505   4530M  4563
              4703M  4754   4831M  4831   4845   4880   4885M  4885   4965M  5001   5108M  5108   5187   5253   5257M
              5257   5662M  5680   5716   5742M  5758M  5812M  5823   5826   6643M  6751   6824   6825M  6874M  6884M
              6884   6912   6962M  6963M  6969   7018M  7019   8034M  8035M  8035   8042M  8115M  8115   8134   8173M
              8257   8393   8435   8467M  8468   8797M  8806M  9142M  9142   9185M  9185   9240   9328M  9328   9401M
              9456   9544M  9544   9620M  9703   9913M  9913   9922  10365M 10450  10532M 10532  10705M 10788M 10789M
             10792M 10793M 10801M 10813  10848  11007M 11051M 11051  11099  11158  11348  11407  11475M 11475  11530
             11654M 11708  11809M 11904  12112  12171  12200M 12215M 12215  12224  12227M 12256M 12256  12298M 12303
             12316M 12316  12348  12362M 12371  12425M 12430  12465  12481M 12490  12565  12618M 12633M 12633  12642
             12645M 12673  12704  12738M 12743
     1(1)      987U  3289   3477M  3480   3492M  3499   3511M  3516   3517M  3518   3520M  3521   3522M  3560   3607M
              3608M  3636   3689M  3691M  3692   3693M  3721   3768M  3807M  3836   4124M  4132M  4250M  4317   4531M
              4563   4728M  4754   4966M  5001   5133M  5187   5253M  5292   5314M  5314   5336M  5336   5361   5418
              5420   5442M  5443   5558M  5733M  5861M  5971M  6042M  6113M  6159M  6269M  6308M  6362M  6406M  6445B
              6469B  6669M  6751   6860   6913   6963   6974   7153M  7347M  7422M  7422   7461M  7470   7504M  7554M
              7592M  7592   7631M  7638M  7639   7720M  7768M  7871M  7895M  7945M  7954M  7997B  8021B  8203M  8257
              8364   8394   8440   8582M  8735M  8742M  8798M  8806M  8839M  8863M  8907M  8914M  8988M  9027B  9074B
              9211M  9240   9436M  9456   9655M  9703   9782M  9923M 10019M 10174  10195M 10418M 10450  10697M 10705M
             10754M 10762  10828  10880M 11071M 11099  11201M 11202M 11203  11243M 11244  11261M 11266  11319M 11348
             11470M 11471M 11543M 11544M 11545  11585M 11586  11603M 11608  11679M 11708  11876M 11904  12083M 12112
             12172M 12182U 12195U 12200M 12226N 12227M 12369M 12371  12488M 12490  12536M 12565  12618M 12644N 12645M
             12797M
     2(2)      983U  3289   3343U  3402M  3470   3789U  3807M  3836   3877U  3882M  4237U  4250M  4317   4376U  4381M
              4710U  4728M  4754   4813U  4819M  5115U  5133M  5187   5247U  5251M  6651U  6669M  6751   6811U  6815M
              8185U  8203M  8257   8317U  8321M  9193U  9211M  9240   9281U  9423U  9436M  9456   9497U  9642U  9655M
              9703   9744U 10405U 10418M 10450  10491U 11058U 11071M 11099  11153U 11160M 11301U 11319M 11348  11402U
             11409M 11661U 11679M 11708  11762U 11768M 11858U 11876M 11904  11958U 11964M 12065U 12083M 12112  12140U
             12528U 12536M 12565  12593U 12789U 12797M
     3(3)      979U  3289   3330U  3347M  3794U  3807M  3836   3864U  3881M  4036   4242U  4250M  4317   4363U  4380M
              4715U  4728M  4754   4800U  4818M  5120U  5133M  5187   5233U  5237M  5395   5533   6656U  6669M  6751
              6797U  6801M  7152   8190U  8203M  8257   8303U  8307M  8581   9198U  9211M  9240   9268U  9428U  9436M
              9456   9484U  9647U  9655M  9703   9731U  9815  10017  10352  10410U 10418M 10450  10478U 10667  10993
             11063U 11071M 11099  11140U 11159M 11306U 11319M 11348  11389U 11408M 11507  11666U 11679M 11708  11749U
             11767M 11863U 11876M 11904  11945U 11963M 12070U 12083M 12112  12536M 12565  12797M
     4(4)      975U  3289   3807M  3836   3990M  4250M  4317   4728M  4754   5133M  5187   5611M  5612M  5615M  5627
              5636M  5662   5777   5806M  5824   5830M  5830   5832M  5833   6004M  6013M  6013   6048M  6049M  6049N
              6051   6081   6225M  6227M  6228M  6228N  6233   6323M  6332M  6332   6388M  6389M  6389N  6391   6669M
              6751   8203M  8257   9211M  9240   9436M  9456   9655M  9703  10025M 10026M 10027  10097  10418M 10450
             11071M 11099  11319M 11348  11679M 11708  11876M 11904  12083M 12112  12536M 12565  12797M
     5(5)      971U  3289   3807M  3836   4250M  4317   4728M  4754   5133M  5187   5831M  5832M  5834   5876M  5876
              5900   5906M  5922   5926M  5926   5959M  5959   6122M  6131M  6131   6183   6189M  6206   6262M  6262
              6278M  6278   6669M  6751   8203M  8257   9211M  9240   9436M  9456   9655M  9703  10058M 10060M 10061M
             10062M 10062N 10175  10176M 10373  10374M 10418M 10450  10753M 10799N 10886M 11071M 11099  11319M 11348
             11679M 11708  11876M 11904  12083M 12112  12536M 12565  12797M
     6(6)      967U  3289   3807M  3836   3893M  3893   4065   4152   4189M  4250M  4317   4532M  4563M  4728M  4754
              4967M  5001M  5133M  5187   6669M  6751   7317M  7318M  7318   7369   7375   7379M  7379   7395M  7489M
              7489   7739M  7740M  7740   7791   7797   7801M  7801   7817M  7833M  7833   7881M  7881   8203M  8257
              8711M  8712M  8712   8764   8770   8774M  8774   8790M  8848M  8848   9211M  9240   9436M  9456   9655M
              9703  10116M 10118  10418M 10450  10615M 10616M 10620  10622M 10862  11071M 11099  11319M 11348  11679M
             11708  11876M 11904  12083M 12112  12153U 12348M 12523U 12536M 12565  12606U 12673M 12784U 12797M
     7(7)      963U  3289   3807M  3836   3894M  3895M  3898M  3899   4059M  4059   4092   4098   4102M  4102   4119M
              4250M  4317   4533M  4728M  4754   4968M  5133M  5187   6669M  6751   7404M  7468M  7469M  7470M  7471M
              7472   7478M  7479M  7480   7869M  7872   8203M  8257   9211M  9240   9436M  9456   9655M  9703  10028M
1         (FILEBI) (09:38) (22MAR04) General Purpose Register Cross Reference                                               Page  103
             10074  10081  10107  10418M 10450  10626M 10626  10852M 10862  10939M 10939  11021M 11071M 11099  11319M
             11348  11679M 11708  11876M 11904  12083M 12112  12166U 12188M 12518U 12536M 12565  12797M
     8(8)      959U  3289   3807M  3836   4165D  4167M  4167   4168M  4169U  4170M  4170N  4171   4250M  4317   4728M
              4754   5133M  5187   5563   5594M  5611   5819M  5837M  5849   5866   5890   5942M  6030   6107   6148
              6160M  6172   6190M  6207M  6219   6229   6268M  6309M  6444M  6669M  6751   6973M  6973   6975M  6986M
              6986   7008   7017M  7017   7019M  7021   7154M  7302M  7335   7359   7412M  7542   7714   7757   7769M
              7780   7822M  7847   7853   7869   7870M  7872M  7896M  7934   7946M  7952M  7996M  8203M  8257   8439M
              8439   8441M  8450M  8450   8457   8466M  8466   8468M  8470   8583M  8696M  8729   8754   8797   8838M
              8901   9026M  9211M  9240   9436M  9456   9655M  9703   9841M  9841   9858M  9878  10057M 10205M 10266M
             10268M 10289  10295M 10316  10380M 10418M 10450  10732M 10901M 10914M 10914  11071M 11099  11319M 11348
             11679M 11708  11876M 11904  12083M 12112  12536M 12565  12797M
     9(9)      955U  3289   3807M  3836   3994M  3994   4171M  4218M  4224   4225   4250M  4317   4562M  4592M  4592
              4703   4728M  4754   5133M  5187   5562M  5563M  5594M  5825M  5826M  5831   5889M  5890M  5900   5906
              5922M  5942M  6172M  6173M  6183   6189   6206M  6268M  6669M  6751   6824M  6874   6974M  6975M  7019M
              7020   7021M  7154   7358M  7359M  7369   7375M  7395   7404   7412M  7468   7780M  7781M  7791   7797M
              7817   7822   7870M  8134M  8173   8203M  8257   8440M  8441M  8468M  8469   8470M  8583   8753M  8754M
              8764   8770M  8790   8798   8838M  9211M  9240   9436M  9456   9655M  9703   9786M  9786   9892   9926M
              9970M  9970  10057  10058  10178M 10236M 10236  10289  10295  10299M 10299  10316M 10418M 10450  10558M
             10849M 11006M 11015  11071M 11099  11158M 11201  11212  11234  11319M 11348  11407M 11471  11530  11536M
             11544  11554  11576  11612M 11612  11654  11679M 11708  11876M 11904  12083M 12112  12171M 12358  12536M
             12565  12797M
    10(A)      951U  3289   3290M  3300U  3804U  3807M  3836   3837M  3847U  4247U  4250M  4317   4318M  4328U  4725U
              4728M  4754   4755M  4765U  5130U  5133M  5187   5188M  5198U  6666U  6669M  6751   6752M  6762U  8200U
              8203M  8257   8258M  8268U  9208U  9211M  9240   9241M  9251U  9433U  9436M  9456   9457M  9467U  9652U
              9655M  9703   9704M  9714U 10415U 10418M 10450  10451M 10461U 11068U 11071M 11099  11100M 11110U 11316U
             11319M 11348  11349M 11359U 11676U 11679M 11708  11709M 11719U 11873U 11876M 11904  11905M 11915U 12080U
             12083M 12112  12113M 12123U 12533U 12536M 12565  12566M 12576U 12794U 12797M
    11(B)      947U  3289   3807M  3836   4250M  4317   4728M  4754   5133M  5187   6669M  6751   8203M  8257   9211M
              9240   9436M  9456   9655M  9703  10418M 10450  11071M 11099  11319M 11348  11679M 11708  11876M 11904
             12083M 12112  12536M 12565  12797M
    12(C)      943U  3289   3304   3305M  3306   3316U  3320   3799U  3807M  3807   3808   3836   3851   3852M  3853
              3854   4250M  4250   4251   4317   4332   4333M  4334   4344U  4353   4720U  4728M  4728   4729   4754
              4769   4770M  4771   4781U  4790   5125U  5133M  5133   5134   5187   5202   5203M  5204   5214U  5223
              6661U  6669M  6669   6670   6751   6766   6767M  6768   6778U  6787   8195U  8203M  8203   8204   8257
              8272   8273M  8274   8284U  8293   9203U  9211M  9211   9212   9240   9255   9256M  9257   9258   9436M
              9436   9437   9456   9471   9472M  9473   9474   9655M  9655   9656   9703   9718   9719M  9720   9721
             10418M 10418  10419  10450  10465  10466M 10467  10468  11071M 11071  11072  11099  11114  11115M 11116
             11126U 11130  11311U 11319M 11319  11320  11348  11363  11364M 11365  11375U 11379  11671U 11679M 11679
             11680  11708  11723  11724M 11725  11735U 11739  11868U 11876M 11876  11877  11904  11919  11920M 11921
             11931U 11935  12075U 12083M 12083  12084  12112  12127  12128M 12129  12130  12536M 12536  12537  12565
             12580  12581M 12582  12583  12797M 12797  12798
    13(D)      939U  3289   3289   3304   3305   3320M  3364U  3449U  3452U  3539U  3542U  3807M  3815U  3836   3836
              3851   3852   3854M  4005U  4250M  4258U  4317   4317   4332   4333   4353M  4728M  4754   4754   4769
              4770   4790M  5133M  5187   5187   5202   5203   5223M  5376U  5458U  5461U  5501U  5504U  6615U  6618U
              6669M  6677U  6751   6751   6766   6767   6787M  7076U  7120U  7123U  8145U  8148U  8203M  8211U  8257
              8257   8272   8273   8293M  8510U  8549U  8552U  9154U  9157U  9211M  9219U  9240   9240   9255   9256
              9258M  9296U  9436M  9444U  9456   9456   9471   9472   9474M  9512U  9655M  9663U  9703   9703   9718
              9719   9721M  9796U  9985U  9988U 10330U 10333U 10418M 10426U 10450  10450  10465  10466  10468M 10638U
             10971U 10974U 11071M 11079U 11099  11099  11114  11115  11130M 11171U 11319M 11327U 11348  11348  11363
             11364  11379M 11420U 11485U 11488U 11626U 11629U 11679M 11687U 11708  11708  11723  11724  11739M 11779U
             11876M 11884U 11904  11904  11919  11920  11935M 11975U 12083M 12091U 12112  12112  12127  12128  12130M
             12278U 12402U 12405U 12444U 12447U 12536M 12544U 12565  12565  12580  12581  12583M 12691U 12715U 12718U
             12797M 12805U
    14(E)      935U  3289   3394M  3474M  3565M  3607M  3647M  3689M  3726M  3768M  3777M  3807M  3809B  3836   3903M
              3903   3905M  3915M  3915   3937M  3937   4080M  4081M  4132M  4172M  4200M  4200   4202M  4211M  4211
              4217   4250M  4252B  4317   4493M  4559M  4637M  4644   4647M  4668M  4675   4679M  4728M  4730B  4754
              4956M  4998M  5038M  5045   5049M  5070M  5077   5081M  5133M  5135B  5187   5402M  5441M  5441   5443M
              5490M  5594M  5659M  5660M  5748M  5759M  5803M  5942M  6229M  6231M  6268M  6363M  6380M  6386M  6436M
              6461M  6498M  6499M  6511   6539M  6546   6548M  6568M  6575   6577M  6635M  6642M  6669M  6671B  6751
1         (FILEBI) (09:38) (22MAR04) General Purpose Register Cross Reference                                               Page  104
              6912M  6913M  6925   7007M  7008M  7009   7038M  7038   7039M  7041   7105M  7156M  7165M  7165   7171N
              7184   7190M  7192   7195M  7229   7245M  7246N  7250M  7250   7290M  7296   7412M  7559M  7560N  7645M
              7646   7870M  7988M  8013M  8051M  8058   8060M  8080M  8087   8089M  8165M  8172M  8203M  8205B  8257
              8393M  8394M  8406   8456M  8457M  8458   8487M  8487   8488M  8490   8539M  8585M  8594M  8594   8600N
              8613   8619M  8621   8678M  8679M  8681   8806M  8838M  8919M  8920N  8970M  8971M  8973   9018M  9066M
              9078M  9085   9087M  9107M  9114   9116M  9174M  9181M  9211M  9213B  9240   9319M  9340M  9361M  9368M
              9408M  9436M  9438B  9456   9535M  9556M  9577M  9584M  9627M  9655M  9657B  9703   9750M  9757   9761M
              9904M  9955M 10023M 10023  10027M 10049M 10095M 10095  10097M 10113M 10115M 10167  10220M 10372M 10418M
             10420B 10450  10497M 10504  10508M 10687M 10695M 10705M 10895M 10954M 11014M 11032M 11071M 11073B 11099
             11200M 11204M 11211  11213M 11242M 11242  11244M 11253M 11253  11287M 11294M 11319M 11321B 11348  11449M
             11462M 11520M 11546M 11553  11555M 11584M 11584  11586M 11595M 11595  11646M 11653M 11679M 11681B 11708
             11808M 11816M 11844M 11851M 11876M 11878B 11904  12004M 12023M 12051M 12058M 12083M 12085B 12112  12224M
             12225M 12225N 12227  12308M 12361M 12371M 12434M 12469M 12480M 12490M 12536M 12538B 12565  12642M 12643M
             12643N 12645  12703M 12772M 12797M 12799B
    15(F)      931U  3289   3290   3393M  3394B  3419   3420M  3421M  3422M  3423M  3423   3424M  3424   3473M  3474B
              3564M  3565B  3591   3592M  3593M  3594M  3595M  3595   3596M  3596   3606M  3606   3607M  3646M  3647B
              3673   3674M  3675M  3676M  3677M  3677   3678M  3678   3688M  3688   3689M  3725M  3726B  3752   3753M
              3754M  3755M  3756M  3756   3757M  3757   3767M  3767   3768M  3776M  3777B  3807M  3836   3837   3886M
              3887M  3888   3899M  3905M  3906   3946M  3962   3979   3980M  3981M  3982M  3983M  3983   3984M  3984
              4065M  4066M  4076   4079M  4080B  4082M  4092   4098M  4119   4132M  4178M  4201M  4202M  4250M  4317
              4318   4399M  4427M  4427   4481   4492M  4493B  4515M  4516M  4516   4534M  4535   4545M  4546M  4546
              4556M  4557   4558M  4560M  4560N  4561   4609   4610M  4611M  4612M  4613M  4613   4614M  4614   4644M
              4646M  4647   4675M  4678M  4679   4728M  4754   4755   4861   4862M  4863M  4864M  4865M  4865   4866M
              4866   4916M  4928   4955M  4956B  4969M  4972M  4984   4993   4994M  4995   4996M  4997M  4999M  4999N
              5000   5045M  5048M  5049   5077M  5080M  5081   5133M  5187   5188   5401M  5402B  5419M  5420M  5435
              5436M  5437   5443M  5444   5445M  5446M  5447   5489M  5490B  5578M  5579M  5580   5586M  5594M  5603M
              5604M  5605   5613M  5614M  5615   5656M  5658M  5660   5661M  5661N  5690   5718   5739M  5759M  5787
              5803M  5858M  5859M  5860   5934M  5934   5942M  5968M  5969M  5970   6039M  6040M  6041   6156M  6157M
              6158   6267M  6268M  6305M  6306M  6307   6359M  6360M  6361   6424M  6425M  6426   6435M  6436B  6449M
              6450M  6451   6460M  6461B  6528   6529M  6530M  6531M  6532M  6532   6533M  6533   6546M  6547M  6548
              6575M  6576M  6577   6597M  6598M  6599   6634M  6635B  6641M  6642B  6669M  6751   6752   7022M  7023M
              7039M  7040   7047M  7048M  7049   7104M  7105B  7171M  7191M  7192M  7193M  7193N  7200M  7202   7246M
              7258   7287M  7344M  7345M  7346   7403M  7403   7412M  7418M  7430   7462M  7501M  7502M  7503   7551M
              7552M  7553   7560M  7562   7588M  7600   7632M  7688   7765M  7766M  7767   7853M  7855M  7868M  7870M
              7892M  7893M  7894   7942M  7943M  7944   7976M  7977M  7978   7987M  7988B  8001M  8002M  8003   8012M
              8013B  8058M  8059M  8060   8087M  8088M  8089   8109M  8110M  8111   8164M  8165B  8171M  8172B  8203M
              8257   8258   8381   8382M  8383M  8384M  8385M  8385   8386M  8386   8423   8424M  8425M  8426M  8427M
              8427   8428M  8428   8471M  8472M  8488M  8489   8496M  8497M  8498   8538M  8539B  8600M  8620M  8621M
              8622M  8622N  8628M  8630   8667   8668M  8669M  8670M  8671M  8671   8672M  8672   8679   8739M  8740M
              8741   8796M  8806M  8823   8824M  8825M  8826M  8827M  8827   8828M  8828   8837M  8837   8838M  8860M
              8861M  8862   8911M  8912M  8913   8920M  8922   8959   8960M  8961M  8962M  8963M  8963   8964M  8964
              8971   9006M  9007M  9008   9017M  9018B  9031M  9043   9050   9055M  9056   9065M  9066B  9085M  9086M
              9087   9114M  9115M  9116   9136M  9137M  9138   9173M  9174B  9180M  9181B  9211M  9240   9241   9318M
              9319B  9339M  9340B  9360M  9361B  9367M  9368B  9386M  9395M  9395   9407M  9408B  9436M  9456   9457
              9534M  9535B  9555M  9556B  9576M  9577B  9583M  9584B  9602M  9614   9626M  9627B  9655M  9703   9704
              9757M  9760M  9761   9864M  9878   9903M  9904B  9927M  9954M  9955B 10024M 10027M 10028  10029M 10039
             10048M 10049B 10096M 10097M 10107  10113M 10114M 10116N 10155  10156M 10157M 10158M 10159M 10159  10160M
             10160  10166M 10166N 10171M 10172M 10173  10219M 10220B 10267M 10268  10371M 10372B 10418M 10450  10451
             10504M 10507M 10508  10559M 10575  10616  10627M 10628M 10677  10686M 10687B 10696M 10705M 10714M 10715M
             10716  10732  10790M 10791M 10792  10796D 10798M 10798  10799M 10800U 10801  10845M 10846M 10847  10924M
             10925M 10926  10953M 10954B 11013M 11014B 11031M 11032B 11041M 11071M 11099  11100  11199M 11200B 11211M
             11212M 11213  11233M 11234M 11235  11236M 11237M 11238M 11244M 11286M 11287B 11293M 11294B 11319M 11348
             11349  11448M 11449B 11461M 11462B 11519M 11520B 11553M 11554M 11555  11575M 11576M 11577  11578M 11579M
             11580M 11586M 11645M 11646B 11652M 11653B 11679M 11708  11709  11807M 11808B 11815M 11816B 11843M 11844B
             11850M 11851B 11876M 11904  11905  12003M 12004B 12022M 12023B 12050M 12051B 12057M 12058B 12083M 12112
             12113  12226M 12227  12307M 12308B 12333  12334M 12335M 12336M 12337M 12337  12338M 12338  12361M 12369N
             12371M 12433M 12434B 12468M 12469B 12480M 12488N 12490M 12536M 12565  12566  12644M 12645  12702M 12703B
             12704M 12753  12768  12771M 12772B 12797M

1FILEBIT  (FILEBI) (09:38) (22MAR04) Diagnostic Cross Reference and Assembler Summary                                       Page  105
-                                                                                            HLASM R4.0  2004/03/22 09.38
0     No Statements Flagged in this Assembly
 HIGH LEVEL ASSEMBLER, 5696-234, RELEASE 4.0, PTF UQ57391
0SYSTEM: OS/390 02.10.00            JOBNAME: PJG#FBIT    STEPNAME: ASM        PROCSTEP: (NOPROC)
0Datasets Allocated for this Assembly
  Con DDname   Dataset Name                                 Volume  Member
   P1 SYSIN    SYS04082.T093853.RA000.PJG#FBIT.INPUT.H01    SCR101
   L1 SYSLIB   SYS3.DUMMYMAC                                SYSB02
   L2          WYL.GG.ORV.MACLIB                            SYSB02
   L3          WYL.GG.SYS.MACLIB                            SYSB05
      SYSLIN   WYL.GG.PJG.OBJ                               SYSB05  FILEBIT
      SYSPRINT SYS04082.T093853.RA000.PJG#FBIT.PRINT.H01    SCR100
      SYSTERM  GG$PJG.PJG#FBIT.JOB05931.D0000103.?

    7812K allocated to Buffer Pool,         1753K would be required for this to be an In-Storage Assembly
    1602 Primary Input Records Read         4938 Library Records Read                  0 Work File Reads
       0 ASMAOPT Records Read               7855 Primary Print Records Written         0 Work File Writes
     207 Punch Records Written                 0 ADATA Records Written
0Assembly Start Time: 09.38.55 Stop Time: 09.39.01 Processor Time: 00.00.02.4570
 Return Code 000
