1                        J E S 2  J O B  L O G  --  S Y S T E M  S Y S B  --  N O D E  R L G
0
 09.46.43 JOB05977 ---- MONDAY,    22 MAR 2004 ----
 09.46.43 JOB05977  ICH70001I GG$PJG   LAST ACCESS AT 09:46:21 ON MONDAY, MARCH 22, 2004
 09.46.43 JOB05977  $HASP373 PJG#VEV  STARTED - INIT 2    - CLASS E - SYS SYSB
 09.46.43 JOB05977  ***  HCMD      STEP $$QUIET
 09.46.43 JOB05977  PURGE * Q=OUTPUT MULTIPLE
 09.46.43 JOB05977  JOB PJG#VEV NOT IN OUTPUT QUEUE
 09.46.44 JOB05977  PJG#VEV .$$QUIET .         RC=0008 TapeIO=0000 DiskIO=0000 CPU=  .01s Elapsed=03.67s
 09.46.44 JOB05977  PJG#VEV .$CND    .         RC=Zero TapeIO=0000 DiskIO=0002 CPU=  .01s Elapsed=04.75s
 09.46.45 JOB05977  PJG#VEV .$UNP    .         RC=Zero TapeIO=0000 DiskIO=0009 CPU=  .05s Elapsed=04.90s
 09.46.47 JOB05977  PJG#VEV .ASM     .         RC=Zero TapeIO=0000 DiskIO=0227 CPU=  .69s Elapsed=05.30s
 09.46.48 JOB05977  PJG#VEV .$EDIT   .         RC=Zero TapeIO=0000 DiskIO=0043 CPU=  .18s Elapsed=07.64s
 09.46.48 JOB05977  PJG#VEV  Ended.  Name=Module: VEV                    Total CPU=  .94s Elapsed=03.67s
 09.46.48 JOB05977
 09.46.48 JOB05977  Execution charges   Priority=Standard   Block=Day
 09.46.48 JOB05977
 09.46.48 JOB05977  CPU Usage          17.06          $10.57   Standard Processing Unit Equivalent
 09.46.48 JOB05977                                   =======
 09.46.48 JOB05977                                    $10.57   Total Job execution charge
 09.46.48 JOB05977
 09.46.48 JOB05977  See back separator page for print charges
 09.46.48 JOB05977
 09.46.48 JOB05977  $HASP395 PJG#VEV  ENDED  ASM=0
1        1 //PJG#VEV  JOB PJG$GG,'Module: VEV',TIME=1,MSGCLASS=C                   JOB05977
           /*JOBPARM HOLD=OUTPUT,LINES=50,CHARS=TN15,NOTIFY=YES
         2 //       EXEC PURGEOLD
         3 XXPURGEOLD PROC
           XX*
           XX* This proc is maintained by Jim Stosick
           XX*
         4 XX$$QUIET  EXEC PGM=HCMDX,PARM='PURGE * Q=OUTPUT MULTIPLE',
           XX         ACCT=(PURGEOLD,SYS3)
         5 //$CND   EXEC PGM=BILBO,REGION=512K,PARM='RECS=100'
         6 //STEPLIB  DD DSN=WYL.GG.ORV.LINKLIB,DISP=SHR
         7 //SYSPRINT DD SYSOUT=$
         8 //SYSUT1   DD DSN=WYL.GG.PJG.OBJ,DISP=OLD
         9 //SYSUT2   DD DSN=WYL.GG.PJG.OBJ,DISP=OLD
        10 //SYSIN    DD DUMMY
        11 //$UNP   EXEC PGM=WUNPRESS,PARM='NUM'
        12 //SYSPRINT DD SYSOUT=$
        13 //SYSUT1   DD DSN=WYL.GG.ORV.SOURCE(VEV),DISP=SHR
        14 //SYSUT2   DD DSN=&&INPUT,DISP=(,PASS),UNIT=SYSDA,
           //            SPACE=(TRK,(25,25),RLSE),DCB=CARD
        15 //ASM    EXEC PGM=ASMA90,REGION=8M,COND=(0,NE,$UNP),
           //            PARM=('SYSPARM(VEV),TERM,LANG(EN),OBJ',
           //          'LC(32500),XREF(SHORT),NODECK,NORLD,NODX,NOUS')
           //*STEPLIB  DD DSN=SYS1.SASMMOD1,DISP=SHR
        16 //SYSLIB   DD DSN=SYS3.DUMMYMAC,DISP=SHR,DCB=BLKSIZE=27920
        17 //         DD DSN=WYL.GG.SYS.MACLIB,DISP=SHR
        18 //         DD DSN=WYL.GG.ORV.BC.MACLIB,DISP=SHR
        19 //         DD DSN=WYL.GG.ORV.MACLIB,DISP=SHR
        20 //         DD DSN=SYS3.IS.MACLIB,DISP=SHR
        21 //SYSUT1   DD DSN=&&SYSUT1,UNIT=VIO,DISP=(,DELETE),
           //            SPACE=(4088,(500,250),,CONTIG,ROUND)
        22 //SYSTERM  DD SYSOUT=$
        23 //SYSPRINT DD DSN=&&PRINT,UNIT=SYSDA,DISP=(,PASS),
           //            SPACE=(6650,(250,250),RLSE),
           //            DCB=(BLKSIZE=6650,LRECL=133,RECFM=FB)
        24 //SYSLIN   DD DSN=WYL.GG.PJG.OBJ(VEV),DISP=OLD
        25 //SYSUDUMP DD SYSOUT=A
        26 //SYSIN    DD DSN=&&INPUT,DISP=(OLD,DELETE)
        27 //$EDIT  EXEC PGM=ASMEDIT,REGION=1M,
           //            COND=EVEN,PARM='STMT,DATA'
        28 //STEPLIB  DD DSN=WYL.GG.SYS.LINKLIB,DISP=SHR
        29 //ASMOUT   DD DSN=&&PRINT,DISP=(OLD,DELETE)
        30 //SYSPRINT DD SYSOUT=A
        31 //SYSUDUMP DD SYSOUT=A
1 STMT NO. MESSAGE
         2 IEFC001I PROCEDURE PURGEOLD WAS EXPANDED USING SYSTEM LIBRARY SYS3.BETAPROC
        14 IGD01010I STORCLAS= TEMP STORGROUP =
        14 IGD01010I STORGRP=VIO ASSIGNED.
        21 IGD01010I STORCLAS= TEMP STORGROUP =
        21 IGD01010I STORGRP=VIO ASSIGNED.
        23 IGD01010I STORCLAS= TEMP STORGROUP =
        23 IGD01010I STORGRP=VIO ASSIGNED.
 ICH70001I GG$PJG   LAST ACCESS AT 09:46:21 ON MONDAY, MARCH 22, 2004
 IEF142I PJG#VEV $$QUIET - STEP WAS EXECUTED - COND CODE 0008
 *********************************************************************************
 *   PJG#VEV /$$QUIET /                    Return Code      0008                 *
 *   Region used      260K (16K user + 244K system)                              *
 *   Extended region  9352K (4K user + 9348K system)                             *
 *                                                                               *
 *   Paging              In      Out                                             *
 *   Private <-> Aux      0        0       CPU time (TCB)   00:00:00.01          *
 *   Private <-> Exp      0        0       CPU time (SRB)   00:00:00.00          *
 *   VIO                  0        0       Elapsed time    920:41:09.29          *
 *   Common               0      ---                                             *
 *                                                                               *
 *                                                                               *
 *   CPU Usage          0.18         $0.11  Standard Processing Unit Equivalent  *
 *                                   $0.11  Total Step execution charge          *
 *                                                                               *
 *    I/O count  DDname   Type Addr           I/O count  DDname   Type Addr      *
 *                         *** No I/O for this step ***                          *
 *********************************************************************************
 IEF373I STEP/$$QUIET /START 2004082.0946
 IEF374I STEP/$$QUIET /STOP  2004082.0946 CPU    0MIN 00.01SEC SRB    0MIN 00.00SEC VIRT    16K SYS   244K EXT       4K SYS    9348K
 IEF236I ALLOC. FOR PJG#VEV $CND
 IEF237I 0401 ALLOCATED TO STEPLIB
 IEF237I JES2 ALLOCATED TO SYSPRINT
 IEF237I 04DC ALLOCATED TO SYSUT1
 IEF237I 04DC ALLOCATED TO SYSUT2
 IEF237I DMY  ALLOCATED TO SYSIN
 IEF142I PJG#VEV $CND - STEP WAS EXECUTED - COND CODE 0000
 IEF285I   WYL.GG.ORV.LINKLIB                           KEPT
 IEF285I   VOL SER NOS= SYSB01.
 IEF285I   GG$PJG.PJG#VEV.JOB05977.D0000101.?           SYSOUT
 IEF285I   WYL.GG.PJG.OBJ                               KEPT
 IEF285I   VOL SER NOS= SYSB05.
 IEF285I   WYL.GG.PJG.OBJ                               KEPT
 IEF285I   VOL SER NOS= SYSB05.
 *********************************************************************************
 *   PJG#VEV /$CND    /                    Return Code      Zero                 *
 *   Region used      280K (16K user + 264K system)                              *
 *   Extended region  9392K (4K user + 9388K system)                             *
 *                                                                               *
 *   Paging              In      Out                                             *
 *   Private <-> Aux      0        0       CPU time (TCB)   00:00:00.01          *
 *   Private <-> Exp      0        0       CPU time (SRB)   00:00:00.00          *
 *   VIO                  0        0       Elapsed time    920:41:08.21          *
 *   Common               0      ---                                             *
 *                                                                               *
 *                                                                               *
 *   CPU Usage          0.18         $0.11  Standard Processing Unit Equivalent  *
 *                                   $0.11  Total Step execution charge          *
 *                                                                               *
 *    I/O count  DDname   Type Addr           I/O count  DDname   Type Addr      *
 *            2  STEPLIB  Disk 0401                   0  SYSPRINT      ----      *
 *            0  SYSUT1   Disk 04DC                   0  SYSUT2   Disk 04DC      *
 *            0  SYSIN         ----                                              *
 *********************************************************************************
 IEF373I STEP/$CND    /START 2004082.0946
 IEF374I STEP/$CND    /STOP  2004082.0946 CPU    0MIN 00.01SEC SRB    0MIN 00.00SEC VIRT    16K SYS   264K EXT       4K SYS    9388K
 IEF236I ALLOC. FOR PJG#VEV $UNP
 IEF237I JES2 ALLOCATED TO SYSPRINT
 IEF237I 0402 ALLOCATED TO SYSUT1
 IGD101I SMS ALLOCATED TO DDNAME (SYSUT2  )
         DSN (SYS04082.T094643.RA000.PJG#VEV.INPUT.H01    )
         STORCLAS (TEMP) MGMTCLAS (        ) DATACLAS (        )
         VOL SER NOS= SCR100
 IEF142I PJG#VEV $UNP - STEP WAS EXECUTED - COND CODE 0000
 IEF285I   GG$PJG.PJG#VEV.JOB05977.D0000102.?           SYSOUT
 IEF285I   WYL.GG.ORV.SOURCE                            KEPT
 IEF285I   VOL SER NOS= SYSB02.
 IGD106I SYS04082.T094643.RA000.PJG#VEV.INPUT.H01     PASSED,    DDNAME=SYSUT2
 *********************************************************************************
 *   PJG#VEV /$UNP    /                    Return Code      Zero                 *
 *   Region used      388K (108K user + 280K system)                             *
 *   Extended region  9468K (4K user + 9464K system)                             *
 *                                                                               *
 *   Paging              In      Out                                             *
 *   Private <-> Aux      0        0       CPU time (TCB)   00:00:00.05          *
 *   Private <-> Exp      0        0       CPU time (SRB)   00:00:00.00          *
 *   VIO                  0        0       Elapsed time    920:41:08.06          *
 *   Common               0      ---                                             *
 *                                                                               *
 *                                                                               *
 *   CPU Usage          0.93         $0.57  Standard Processing Unit Equivalent  *
 *                                   $0.57  Total Step execution charge          *
 *                                                                               *
 *    I/O count  DDname   Type Addr           I/O count  DDname   Type Addr      *
 *            0  SYSPRINT      ----                   2  SYSUT1   Disk 0402      *
 *            7  SYSUT2   Disk 038B                                              *
 *********************************************************************************
 IEF373I STEP/$UNP    /START 2004082.0946
 IEF374I STEP/$UNP    /STOP  2004082.0946 CPU    0MIN 00.05SEC SRB    0MIN 00.00SEC VIRT   108K SYS   280K EXT       4K SYS    9464K
 IEF236I ALLOC. FOR PJG#VEV ASM
 IEF237I 0402 ALLOCATED TO SYSLIB
 IEF237I 04DC ALLOCATED TO
 IEF237I 0402 ALLOCATED TO
 IEF237I 0402 ALLOCATED TO
 IEF237I 04DC ALLOCATED TO
 IGD101I SMS ALLOCATED TO DDNAME (SYSUT1  )
         DSN (SYS04082.T094643.RA000.PJG#VEV.SYSUT1.H01   )
         STORCLAS (TEMP) MGMTCLAS (        ) DATACLAS (        )
         VOL SER NOS= VIO
 IEF237I JES2 ALLOCATED TO SYSTERM
 IGD101I SMS ALLOCATED TO DDNAME (SYSPRINT)
         DSN (SYS04082.T094643.RA000.PJG#VEV.PRINT.H01    )
         STORCLAS (TEMP) MGMTCLAS (        ) DATACLAS (        )
         VOL SER NOS= SCR100
 IEF237I 04DC ALLOCATED TO SYSLIN
 IEF237I JES2 ALLOCATED TO SYSUDUMP
 IGD103I SMS ALLOCATED TO DDNAME SYSIN
 IEF142I PJG#VEV ASM - STEP WAS EXECUTED - COND CODE 0000
 IEF285I   SYS3.DUMMYMAC                                KEPT
 IEF285I   VOL SER NOS= SYSB02.
 IEF285I   WYL.GG.SYS.MACLIB                            KEPT
 IEF285I   VOL SER NOS= SYSB05.
 IEF285I   WYL.GG.ORV.BC.MACLIB                         KEPT
 IEF285I   VOL SER NOS= SYSB02.
 IEF285I   WYL.GG.ORV.MACLIB                            KEPT
 IEF285I   VOL SER NOS= SYSB02.
 IEF285I   SYS3.IS.MACLIB                               KEPT
 IEF285I   VOL SER NOS= SYSB05.
 IGD105I SYS04082.T094643.RA000.PJG#VEV.SYSUT1.H01    DELETED,   DDNAME=SYSUT1
 IEF285I   GG$PJG.PJG#VEV.JOB05977.D0000103.?           SYSOUT
 IGD106I SYS04082.T094643.RA000.PJG#VEV.PRINT.H01     PASSED,    DDNAME=SYSPRINT
 IEF285I   WYL.GG.PJG.OBJ                               KEPT
 IEF285I   VOL SER NOS= SYSB05.
 IEF285I   GG$PJG.PJG#VEV.JOB05977.D0000104.?           SYSOUT
 IGD105I SYS04082.T094643.RA000.PJG#VEV.INPUT.H01     DELETED,   DDNAME=SYSIN
 *********************************************************************************
 *   PJG#VEV /ASM     /                    Return Code      Zero                 *
 *   Region used      8484K (8192K user + 292K system)                           *
 *   Extended region  9952K (412K user + 9540K system)                           *
 *                                                                               *
 *   Paging              In      Out                                             *
 *   Private <-> Aux      0        0       CPU time (TCB)   00:00:00.66          *
 *   Private <-> Exp      0        0       CPU time (SRB)   00:00:00.03          *
 *   VIO                  0        0       Elapsed time    920:41:07.66          *
 *   Common               0      ---                                             *
 *                                                                               *
 *                                                                               *
 *   CPU Usage         12.37         $7.66  Standard Processing Unit Equivalent  *
 *                                   $7.66  Total Step execution charge          *
 *                                                                               *
 *    I/O count  DDname   Type Addr           I/O count  DDname   Type Addr      *
 *           55  SYSLIB   Disk 0402                 122  SYSLIB   Disk 04DC      *
 *            0  SYSLIB   Disk 0402                   0  SYSLIB   Disk 0402      *
 *            0  SYSLIB   Disk 04DC                   0  SYSUT1   VIO  ----      *
 *            0  SYSTERM       ----                  40  SYSPRINT Disk 038B      *
 *            2  SYSLIN   Disk 04DC                   0  SYSUDUMP      ----      *
 *            8  SYSIN    Disk 038B                                              *
 *********************************************************************************
 IEF373I STEP/ASM     /START 2004082.0946
 IEF374I STEP/ASM     /STOP  2004082.0946 CPU    0MIN 00.66SEC SRB    0MIN 00.03SEC VIRT  8192K SYS   292K EXT     412K SYS    9540K
 IEF236I ALLOC. FOR PJG#VEV $EDIT
 IEF237I 0402 ALLOCATED TO STEPLIB
 IGD103I SMS ALLOCATED TO DDNAME ASMOUT
 IEF237I JES2 ALLOCATED TO SYSPRINT
 IEF237I JES2 ALLOCATED TO SYSUDUMP
 IEF142I PJG#VEV $EDIT - STEP WAS EXECUTED - COND CODE 0000
 IEF285I   WYL.GG.SYS.LINKLIB                           KEPT
 IEF285I   VOL SER NOS= SYSB02.
 IGD105I SYS04082.T094643.RA000.PJG#VEV.PRINT.H01     DELETED,   DDNAME=ASMOUT
 IEF285I   GG$PJG.PJG#VEV.JOB05977.D0000105.?           SYSOUT
 IEF285I   GG$PJG.PJG#VEV.JOB05977.D0000106.?           SYSOUT
 *********************************************************************************
 *   PJG#VEV /$EDIT   /                    Return Code      Zero                 *
 *   Region used      388K (116K user + 272K system)                             *
 *   Extended region  9468K (4K user + 9464K system)                             *
 *                                                                               *
 *   Paging              In      Out                                             *
 *   Private <-> Aux      0        0       CPU time (TCB)   00:00:00.18          *
 *   Private <-> Exp      0        0       CPU time (SRB)   00:00:00.00          *
 *   VIO                  0        0       Elapsed time    920:41:05.32          *
 *   Common               0      ---                                             *
 *                                                                               *
 *                                                                               *
 *   CPU Usage          3.37         $2.08  Standard Processing Unit Equivalent  *
 *                                   $2.08  Total Step execution charge          *
 *                                                                               *
 *    I/O count  DDname   Type Addr           I/O count  DDname   Type Addr      *
 *            2  STEPLIB  Disk 0402                  41  ASMOUT   Disk 038B      *
 *            0  SYSPRINT      ----                   0  SYSUDUMP      ----      *
 *********************************************************************************
 IEF373I STEP/$EDIT   /START 2004082.0946
 IEF374I STEP/$EDIT   /STOP  2004082.0946 CPU    0MIN 00.18SEC SRB    0MIN 00.00SEC VIRT   116K SYS   272K EXT       4K SYS    9464K
 *********************************************************************************
 *                                                                               *
 *                      S t a n f o r d   U n i v e r s i t y                    *
 *                                                                               *
 *                              *** Job Summary ***                              *
 *                                                                               *
 *   System Id      SYSB                   Input time     09:38:34  Mar 22, 2004 *
 *                                                                               *
 *   System Release SP6.1.0                Start time     09:46:43  Mar 22, 2004 *
 *                                                                               *
 *   Job name       PJG#VEV                Stop  time     00:00:00  Mar 22, 2004 *
 *                                                                               *
 *   Account        PJG$GG                 Elapsed time  920:41:09.29            *
 *                                                                               *
 *   User Name      Module: VEV            CPU time       00:00:00.91            *
 *                                                                               *
 *   Job class      E                      SRB Time       00:00:00.03            *
 *                                                                               *
 *********************************************************************************
 IEF375I  JOB/PJG#VEV /START 2004082.0946
 IEF376I  JOB/PJG#VEV /STOP  2004082.0946 CPU    0MIN 00.91SEC SRB    0MIN 00.03SEC
1Data set successfully converted from EDIT to FB format
1Assembler Done VEV No Statements Flagged
1         High Level Assembler Option Summary                   (PTF UQ57391)                                               Page    1
-                                                                                            HLASM R4.0  2004/03/22 09.46
0  No Overriding ASMAOPT Parameters
   Overriding Parameters-  SYSPARM(VEV),TERM,LANG(EN),OBJ,LC(32500),XREF(SHORT),NODECK,NORLD,NODX,NOUS
   No Process Statements


   Options for this Assembly
0  NOADATA
     ALIGN
   NOASA
     BATCH
     CODEPAGE(047C)
   NOCOMPAT
   NODBCS
 3 NODECK
 3 NODXREF
     ESD
   NOEXIT
     FLAG(0,ALIGN,CONT,NOIMPLEN,NOPAGE0,PUSH,RECORD,NOSUBSTR,USING0)
   NOFOLD
   NOGOFF
   NOINFO
 3   LANGUAGE(EN)
   NOLIBMAC
 3   LINECOUNT(32500)
     LIST(121)
     MXREF(SOURCE)
 3   OBJECT
     OPTABLE(UNI,NOLIST)
   NOPCONTROL
   NOPESTOP
   NOPROFILE
   NORA2
   NORENT
 3 NORLD
     RXREF
     SIZE(MAX)
 3   SYSPARM(VEV)
 3   TERM(WIDE)
   NOTEST
     THREAD
   NOTRANSLATE
 3 NOUSING
 3   XREF(SHORT)

   No Overriding DD Names

1VEV      External Symbol Dictionary                                                                                        Page    2
-Symbol   Type   Id     Address  Length     LD ID  Flags Alias-of                            HLASM R4.0  2004/03/22 09.46
0VEV       SD 00000001 00000000 000007A0             00
 VEV00     LD          00000000           00000001
 EVAL      LD          00000014           00000001
 CLPCSECT  LD          000004D0           00000001
 CLPCSEND  LD          00000548           00000001
 VCLP      ER 00000002
 VPM       ER 00000003
 VSD       ER 00000004
 VSTC      ER 00000005
 VGP       ER 00000006
 VSUB      ER 00000007
 VP        ER 00000008
 VEV       ER 00000009
 VSCN      ER 0000000A
 VLDR      ER 0000000B
 VUNP      ER 0000000C
 VCR       ER 0000000D
 VPS       ER 0000000E
 VFSH      ER 0000000F
 VSSV      ER 00000010
 EVHEX     LD          00000548           00000001
 SCTYPE    ER 00000011
 SCAN      ER 00000012
 SCINIT    ER 00000013
 DTB       ER 00000014
 DQSCAN    ER 00000015
 XTB       ER 00000016
 LDFIND    ER 00000017
 READCORE  ER 00000018
 VSEG      ER 00000019

1VEV      ORVYL'S EXPRESSION EVALUATOR                                                                                      Page    3
0D-Loc  Object Code    Addr1 Addr2  Stmt Lv Lineno    Source Statement                    (Asmedit 3.3)  HLASM R4.0  2004/03/22 09.46
+_____  ______ ____    _____ _____  ____ __ ______    ______ _________
0                                      2       2.     ********************************************************************
                                       3       3.     *                                                                  *
                                       4       4.     *       ORVYL/370  RELEASE III - CLASS I - STANFORD PROPRIETARY    *
                                       5       5.     *                                                                  *
                                       6       6.     ********************************************************************
-                                      8       8.              HIBAL ,
-                                    990      10.     * MODIFICATIONS
                                     991      11.     *
1VEV      ORVYL'S EXPRESSION EVALUATOR                                                                                      Page    4
0D-Loc  Object Code    Addr1 Addr2  Stmt Lv Lineno    Source Statement           (Hibal 5, Asmedit 3.3)  HLASM R4.0  2004/03/22 09.46
+_____  ______ ____    _____ _____  ____ __ ______    ______ _________
0000000                00000 007A0   993      13.     VEV      CSECT
                                     997      14.              IDENT 00
                                    1000             +
                                    1001    01-IDENT +         ENTRY VEV00
                                    1002             +
 000000 13E5C5E5F0F06BF2            1003    01-IDENT +VEV00    DC    AL1(19),C'VEV00,22MAR04,09:46'
                                    1004             +*
-                                   1007      16.              COPY  ORVDEFN
                                    1008             =         SYSDEFN  ,
                                    1009             =         GBLB  &PROTECT
                                    1010             =         GBLC  &MODULE
-
                                    1012      18.              REGS  ,,SR,TR,QR,RR,OPR,BR,WAR,RAR,CLWR,LCBR,CTR
1VEV      (VEV00) (09:46) (22MAR04) ORVYL'S EXPRESSION EVALUATOR                                                            Page    5
0Loc    Object Code    Addr1 Addr2  Stmt Lv Lineno    Source Statement           (Hibal 5, Asmedit 3.3)  HLASM R4.0  2004/03/22 09.46
+___    ______ ____    _____ _____  ____ __ ______    ______ _________
0                                   1163      20.              MACRO
                                    1164      21.     &L       OP    &P,&R
                                    1165      22.              GBLA  &OPS
                                    1166      23.     &L       EQU   &OPS
                                    1167      24.     &OPS     SETA  &OPS+6
                                    1168      25.              DC    Y(&P)
                                    1169      26.              B     &R
                                    1170      27.              MEND
-                                   1172      29.              MACRO
                                    1173      30.              VSECT &P
                                    1174      31.              DC    CL4'&P'
                                    1175      32.              DC    V(&P)
                                    1176      33.              MEND
1VEV      (VEV00) (09:46) (22MAR04) ORVYL'S EXPRESSION EVALUATOR                                                            Page    6
0Loc    Object Code    Addr1 Addr2  Stmt Lv Lineno    Source Statement           (Hibal 5, Asmedit 3.3)  HLASM R4.0  2004/03/22 09.46
+___    ______ ____    _____ _____  ____ __ ______    ______ _________
0                                   1179      36.              COPY  CLW
                                    1180             =*
                                    1181             =*                   COMMAND LANGUAGE WORK AREA
                                    1182             =*
                                    1183             =* ORGANIZATION:
                                    1184             =*
                                    1185             =*        COMMONLY USED CLP FLAGS, COMMAND BUFFERS AND OTHER CONTROL
                                    1186             =*        INFORMATION FOLLOW THE SESSION CONTROL PAGE INFORMATION.
                                    1187             =*        THE BALANCE OF THIS PAGE IS THE CLP SAVE AREA STACK.
                                    1188             =*
 000000                00000 00618  1189             =CLW      RECORD BEGIN
 000000                             1197  1          =CLWSTART   DS    0F
 000000                             1198  1          =CLWSCP     DS    A                       POINTER TO THE SCP
 000004                             1199  1          =           DS    5A                      AVAILABLE
 000018                             1200  1          =CLWUWST    DS    A                       STARTING LOC OF USER WORK AREA
 00001C                             1201  1          =CLWUPST    DS    A                       STARTING LOC OF USER PROGRAM
 000020                             1202  1          =CLWUPML    DS    A                       MAXIMUM LEN OF USER PROGRAM
 000024                             1203  1          =CLWUPRSV   DS    H                       USER PROGRAM RESERVE COUNT
 000026                             1204  1          =CLWUPURV   DS    H                       USER PROGRAM UN-RESERVE COUNT
 000028                             1205  1          =CLWIBUFN   DS    H                       LENGTH OF INPUT LINE
 00002A 606E40                      1206  1          =           DC    C'-> '
 00002D                             1207  1          =CLWIBUF    DS    CL235                   INPUT BUFFER
                                    1208  1          =
 000118                             1209  1          =CLWOBUF    DS    2H                      WRITE/PROMPT COUNTS
 00011C                             1210  1          =           DS    CL235                   OUTPUT BUFFER
                                    1211  1          =CLWOBUFL   EQU   *-CLWOBUF-4
                                    1212  1          =*                                      SESSION BREAK FLAGS:
 000207 00                          1213  1          =CLWFL      FLAG  ,                       ZEROED AT SESSION BREAK START
 CLWFL.CLWFTYPD    80 ONES          1217  1          =           FLAG  CLWFTYPD                CURRENT COMMAND WAS TYPED
 CLWFL.CLWFCMD     40 ONES          1222  1          =           FLAG  CLWFCMD                 PROCESSING COMMAND SVC
 CLWFL.CLWFWYL     20 ONES          1227  1          =           FLAG  CLWFWYL                 COMMAND HAS BEEN TO WYLBUR
                                    1232  1          =
 000208 00                          1233  1          =CLWFLG     FLAG  ,                       FLAGS
 CLWFLG.CLWFCERR   80 ONES          1237  1          =           FLAG  CLWFCERR                COMMAND ERROR: EXE BREAK
 CLWFLG.CLWFGPW    40 ONES          1242  1          =           FLAG  CLWFGPW                 GET-PUT WORK AREA ALLOCATED
 CLWFLG.CLWFTTRP   20 ONES          1247  1          =           FLAG  CLWFTTRP                TEMPORARY TRAP SET
 CLWFLG.CLWFTRAP   10 ONES          1252  1          =           FLAG  CLWFTRAP                TRAP IN PROGRESS
 CLWFLG.CLWFOSC    08 ONES          1257  1          =           FLAG  CLWFOSC                 READ/WRITE REAL (OS) CORE
 CLWFLG.CLWFQMSG   04 ONES          1262  1          =           FLAG  CLWFQMSG                "QUEUED" MESSAGE SENT
 CLWFLG.CLWFM31    02 ONES          1267  1          =           FLAG  CLWFM31                 PROGRAM IN 31 BIT MODE
                                    1272  1          =
 000209 00                          1273  1          =CLWPFL     FLAG  ,                       PROGRAM FLAGS
 CLWPFL.CLWPFSUP   80 ONES          1277  1          =           FLAG  CLWPFSUP                LINK AREA SET UP
 CLWPFL.CLWPFPL    40 ONES          1282  1          =           FLAG  CLWPFPL                 PROGRAM LOADING
 CLWPFL.CLWPFPIC   20 ONES          1287  1          =           FLAG  CLWPFPIC                PROGRAM ENTERED
 CLWPFL.CLWPFRUN   10 ONES          1292  1          =           FLAG  CLWPFRUN                EXECUTE PROGRAM
 CLWPFL.CLWPFPAU   08 ONES          1297  1          =           FLAG  CLWPFPAU                PAUSE BEFORE EXECUTION
 CLWPFL.CLWPFPRV   04 ONES          1302  1          =           FLAG  CLWPFPRV                PRIVATE PROGRAM
 CLWPFL.CLWPFPRT   02 ONES          1307  1          =           FLAG  CLWPFPRT                PROGRAM PROTECTED
 CLWPFL.CLWPFSHR   01 ONES          1312  1          =           FLAG  CLWPFSHR                SHARED PROGRAM LOADED
                                    1317  1          =
 00020A 00                          1318  1          =CLWMFL     FLAG  ,                       MISCELLANEOUS FLAGS
 CLWMFL.CLWMEVCN   80 ONES          1322  1          =           FLAG  CLWMEVCN                CONTINUE AFTER EVENTS
 CLWMFL.CLWMMNCN   40 ONES          1327  1          =           FLAG  CLWMMNCN                CONTINUE AFTER MONITORS
 CLWMFL.CLWMBSUC   20 ONES          1332  1          =           FLAG  CLWMBSUC                SIMULATED BRANCH SUCCESSFUL
 CLWMFL.CLWMNCST   10 ONES          1337  1          =           FLAG  CLWMNCST                SUPPRESS AUTOMATIC COST PRINT
1VEV      (VEV00) (09:46) (22MAR04) ORVYL'S EXPRESSION EVALUATOR                                                            Page    7
0Loc    Object Code    Addr1 Addr2  Stmt Lv Lineno    Source Statement           (Hibal 5, Asmedit 3.3)  HLASM R4.0  2004/03/22 09.46
+___    ______ ____    _____ _____  ____ __ ______    ______ _________
0CLWMFL.CLWMCLRP   08 ONES          1342  1          =           FLAG  CLWMCLRP                UNREC. CLR FOUND
 CLWMFL.CLWMNOL    04 ONES          1347  1          =           FLAG  CLWMNOL                 DON'T PRINT ON CONT. EVENTS
 CLWMFL.CLWMDSUP   02 ONES          1352  1          =           FLAG  CLWMDSUP                DUMP AREA SET UP
 CLWMFL.CLWMDUMP   01 ONES          1357  1          =           FLAG  CLWMDUMP                DUMP COMMAND BEING PROCESSED
                                    1362  1          =
 00020B 00                          1363  1          =CLWMONF    FLAG  ,                       PROGLOOK/MONITOR FLAGS
 CLWMONF.CLWFMWP   80 ONES          1367  1          =           FLAG  CLWFMWP                 MONITOR WORK PAGE EXISTS
 CLWMONF.CLWFPRGL  40 ONES          1372  1          =           FLAG  CLWFPRGL                PROGLOOK IN PROGRESS
 CLWMONF.CLWDOTIM  20 ONES          1377  1          =           FLAG  CLWDOTIM                SET TIMER AT RUN
 CLWMONF.CLWCPTIM  10 ONES          1382  1          =           FLAG  CLWCPTIM                SET CPU TIME TIMER
                                    1387  1          =
 00020C 00                          1388  1          =CLWSFL     FLAG  ,                       SESSION FLAGS
 CLWSFL.CLWSSAM    80 ONES          1392  1          =           FLAG  CLWSSAM                 STAND ALONE MODE
 CLWSFL.CLWSSP     40 ONES          1397  1          =           FLAG  CLWSSP                  SPECIAL PERSON
                                    1402  1          =
 00020D                             1403  1          =           DS    X
                                    1404  1          =
 00020E                             1405  1          =CLWEXSVC   DS    H                       EXIT SVC
 000210                             1406  1          =CLWPSVC    DS    H                       PAUSE/TRAP SVC
 000212                             1407  1          =CLWCSVC    DS    H                       COMMAND SVC
                                    1408  1          =
 000214                             1409  1          =CLWDSP     DS    X                       DISPATCHING PRIORITY
 000215                             1410  1          =CLWPFS     DS    X                       PARAMTER FLAG SAVE
 000218                             1411  1          =CLWPS      DS    3F                      PARAMETER SAVE
                                    1412  1          =
 000224                             1413  1          =CLWMLMOD   DS    F                       MILTEN MODE WORD
 000228                             1414  1          =CLWWLMOD   DS    F                       WYLBUR MODE WORD
                                    1415  1          =
 00022C                             1416  1          =CLWTIMER   DS    A                       TIMER VALUE TO BE SET AT RUN
 000230                             1417  1          =CLWTIMAX   DS    H                       MAX TIMER INTERVAL (IN .1 SEC)
 000232                             1418  1          =CLWTIVAL   DS    H                       CURRENT TIMER INTERVAL
 000234                             1419  1          =CLWTMAX    DS    H                       CPU TIME LIMIT
 000236                             1420  1          =CLWTIME    DS    H                       CURRENT CPU TIME
 000238                             1421  1          =CLWPELT    DS    A                       ELAPSED TIME
 00023C                             1422  1          =CLWPCVM    DS    A                       VM CHARGES
 000240                             1423  1          =CLWPIOS    DS    A                       I/O COUNTS
 000244                             1424  1          =CLWPCUSE   DS    A                       CPU TIME
                                    1425  1          =
 000248                             1426  1          =CLWPROGN   DS    CL8                     PROGRAM NAME
 000250                             1427  1          =CLWLNKP    DS    A                       LINK PAGE POINTER
 000254                             1428  1          =CLWGPWP    DS    A                       GET-PUT WORK PAGE POINTER
 000258                             1429  1          =CLWMONP    DS    A                       MONITOR/PROGLOOK PAGE
 00025C                             1430  1          =CLWSPB     DS    A                       SHARED PROGRAM BLOCK
 000260                             1431  1          =CLWDUMPB   DS    A                       POINTER TO DUMP BUFFER
                                    1432  1          =
 000264                             1433  1          =CLWPER     DS    A                       PER INFO
 000268                             1434  1          =CLWMON     DS    A                       MONITOR INFO
                                    1435  1          =
 00026C                             1436  1          =CLWEVCNT   DS    A                       NUMBER OF EVENTS TO EXECUTE
 000270                             1437  1          =CLWTRAPA   DS    A                       ADDR OF INST BEING TRAPPED
 000274                             1438  1          =CLWTRAPB   DS    A                       ADDR OF INST AFTER
 000278                             1439  1          =CLWTRAPI   DS    3H                      INSTRUCTION BEING TRAPPED
 00027E                             1440  1          =CLWTRAPJ   DS    H                       1ST HALFWORD OF INST AFTER
                                    1441  1          =
                                    1442  1          =CLWNTRAP   EQU   8,,C'N'                 NO. OF TRAPS
 000280                             1443  1          =CLWTRAPS   DS    (CLWNTRAP)XL5           TRAP TABLE
1VEV      (VEV00) (09:46) (22MAR04) ORVYL'S EXPRESSION EVALUATOR                                                            Page    8
0Loc    Object Code    Addr1 Addr2  Stmt Lv Lineno    Source Statement           (Hibal 5, Asmedit 3.3)  HLASM R4.0  2004/03/22 09.46
+___    ______ ____    _____ _____  ____ __ ______    ______ _________
00002A8                             1444  1          =CLWTTRAP   DS    XL5                     TEMPORARY TRAP
                                    1445  1          =*
                                    1446  1          =* KEYWORD FILE RECORD AREA
                                    1447  1          =*
 0002AD                             1448  1          =CLWKFL     DS    X                       KEYWORD FILE FLAGS
                                    1449  1          =
                                    1450  1          =CLWKFAC    EQU   X'80'                   PROGRAM AUTO CALL
                                    1451  1          =CLWKFMP    EQU   X'40'                   PROGRAM MANDATORY
                                    1452  1          =
 0002AE                             1453  1          =CLWKACC    DS    CL5                     ACCOUNT FOR PROGRAM SEARCH
 0002B3                             1454  1          =CLWKPROG   DS    CL8                     DEFAULT/MANDATORY PROGRAM
 0002BB                             1455  1          =CLWKMISC   DS    CL8                     MISCELLANEOUS FIELDS
                                    1456  1          =*
                                    1457  1          =*  SCANNER UTILITY AREA
                                    1458  1          =*
                                    1459  1          =           SCANCB PFX=CLWKW
 0002C4                             1460  1 01-SCANC +CLWKWCB    DS    0F
 0002C4                             1461  1 01-SCANC +CLWKWVAL   DS    A                       VALUE RETURNED
 0002C8                             1462  1 01-SCANC +CLWKWKW    DS    CL8                     CURRENT KEY WORD
 0002D0                             1463  1 01-SCANC +CLWKWLEN   DS    A                       LENGTH LEFT TO SCAN
 0002D4                             1464  1 01-SCANC +CLWKWLOC   DS    A                       NEXT THING TO SCAN
 0002D8                             1465  1 01-SCANC +CLWKWRA    DS    A                       RETURN ADDRESS
 0002DC                             1466  1 01-SCANC +CLWKWPRT   DS    A                       ROUTING TABLE ADDRESS
 0002E0                             1467  1 01-SCANC +CLWKWCLT   DS    A                       SCAN TYPE
                                    1468  1          +*                                      0 = NORMAL SCAN
                                    1469  1          +*                                      4 = EXPRESSION ISOLATION
                                    1470  1          +*                                      8 = EXPRESSION SCAN
                                    1471  1 01-SCANC +CLWKWCBL   EQU *-CLWKWCB
                                    1472  1          =
 0002E8                             1473  1          =CLWTEMP    DS    4D                      WORK AREA
                                    1474  1          =
 000308                             1475  1          =CLWDELTA   DS    F                       Wylbr line delta
 00030C                             1476  1          =           DS    F                       Spare
 000310                             1477  1          =CLWEVHST   DS    8D                      EVENT HISTORY
 000350                             1478  1          =CLWEVENT   DS    D                       LAST EVENT INFO
 000358                             1479  1          =CLWQRET    DS    3F                      QUICK RETURN FOR VSUB
                                    1480  1          =*                                      SAVE AREA FOR BRR,BR,WAR
                                    1481  1          =*
 000368                             1482  1          =CLWSBPSW   DS    D                       SESSION BREAK PSW
 000370                             1483  1          =CLWSBGPR   DS    16F                     SESSION BREAK GPRS
 0003B0                             1484  1          =CLWACCT    DS    C'GG.UUU'               USER ACCOUNT
                                    1485  1          =CLWUSER    EQU   CLWACCT+3,3,C'C'        USER
                                    1486  1          =CLWGROUP   EQU   CLWACCT,2,C'C'          GROUP
 0003B8                             1487  1          =CLWIDT     DS    A                       ADDRESS OF THE IDTS
 0003BC                             1488  1          =CLWNIDT    DS    H                       NUMBER OF IDTS
 0003C0                             1489  1          =           DS    0F                      START OF SAVE AREA
 0003C0                             1490  1          =CLWSVA     DS    XL600                   SAVE STACK
                                    1491  1          =CLWSVAEN   EQU   *-4,4,C'X'              LAST WORD OF THE STACK
 000618                00618 00618  1492             =         END   ,
1VEV      (VEV00) (09:46) (22MAR04) ORVYL'S EXPRESSION EVALUATOR                                                            Page    9
0Loc    Object Code    Addr1 Addr2  Stmt Lv Lineno    Source Statement           (Hibal 5, Asmedit 3.3)  HLASM R4.0  2004/03/22 09.46
+___    ______ ____    _____ _____  ____ __ ______    ______ _________
0000000                00000 00100  1502      38.     LNKPAGE  RECORD BEGIN
                                    1510  1   39.                COPY  LCB
                                    1511  1          =*  LOADER CONTROL BLOCK
                                    1512  1          =*
                                    1513  1          =*        THE ITEMS MARKED (SET) MUST BE INITIALIZED BY THE CALLER
                                    1514  1          =*        BEFORE THE CALL TO LDINIT. THESE VALUES ARE NOT CHANGED BY
                                    1515  1          =*        THE LOADER. ALL OTHER  CELLS IN THE CONTROL BLOCK ARE SET
                                    1516  1          =*        AND MAINTAINED BY THE LOADER.
                                    1517  1          =*
 000000                             1518  1          =LCBSTART   DS    0F                      LOADER CONTROL BLOCK
 000000                             1519  1          =LCBCORE    DS    A                       START OF USER PROGRAM AREA (SET)
 000004                             1520  1          =LCBCLEN    DS    A                       LEN OF USER PROGRAM AREA (SET)
 000008                             1521  1          =LCBMAP     DS    A                       START OF MAP AREA (SET)
 00000C                             1522  1          =LCBMPLEN   DS    A                       LEN OF MAP AREA (SET)
 000010                             1523  1          =LCBRF      DS    A                       RELOCATION FACTOR (SET)
 000014                             1524  1          =LCBCI      DS    CL80                    CARD IMAGE (SET FOR EACH LDGO)
 000064                             1525  1          =LCBIDRFL   DS    AL4                     FLAGS FOR/FROM LOAD MODULE
 000068                00068 00064  1526  1          =           ORG   LCBIDRFL                OVERLAY FLAGS
 000064 00                          1527  1          =LCBXFL     FLAG  ,
 LCBXFL.LCBXFOSN   80 ONES          1531  1          =           FLAG  (LCBXFOSN,X'80')        USE OS ENTRY CONVENTIONS
 LCBXFL.LCBXFOS    40 ONES          1540  1          =           FLAG  (LCBXFOS,X'40')         INTERCEPT OS SVCS
 LCBXFL.LCBXFFRT   20 ONES          1549  1          =           FLAG  (LCBXFFRT,X'20')        LINK TO FORTRAN LIBRARY
 LCBXFL.LCBXFTST   10 ONES          1558  1          =           FLAG  (LCBXFTST,X'10')        TEST ATTRIBUTE
 LCBXFL.LCBXFURM   02 ONES          1567  1          =           FLAG  (LCBXFURM,X'02')        LINK TO URAM
                                    1576  1          =
 000065                             1577  1          =LCBYFL     DS    X
                                    1578  1          =
 000066                             1579  1          =LCBZFL     DS    X
                                    1580  1          =
 000067                             1581  1          =LCBWFL     DS    X
 000068                             1582  1          =LCBMCCW    DS    2A                      CCW FOR READING MODULE TEXT
 000070                             1583  1          =LCBEP      DS    A                       ENTRY POINT
 000074                             1584  1          =LCBMXC     DS    F                       MAX RETURN CODE SO FAR
 000078                             1585  1          =LCBLC      DS    F                       LOCATION COUNTER
 00007C 00                          1586  1          =LCBFL      FLAG  ,                       FLAGS FOR LOADER
 LCBFL.LCBUNDEF    80 ONES          1590  1          =           FLAG  (LCBUNDEF,X'80')        SEARCH IS FOR UNDEFINEDS
 LCBFL.LCBFATN     40 ONES          1599  1          =           FLAG  (LCBFATN,X'40')         ATTENTION ON ERROR MESSAGE
 LCBFL.LCBFPAGN    20 ONES          1608  1          =           FLAG  (LCBFPAGN,X'20')        NEXT MODULE GETS PAGE ALIGNMENT
 LCBFL.LCBFMI      08 ONES          1617  1          =           FLAG  (LCBFMI,X'08')          PROCESSING LOAD MODULE INPUT
 LCBFL.LCBFMO      04 ONES          1626  1          =           FLAG  (LCBFMO,X'04')          PRODUCING LOAD MODULE OUTPUR
 LCBFL.LCBFPAG     01 ONES          1635  1          =           FLAG  (LCBFPAG,X'01')         MODULE REQUIRES PAGE ALIGNMENT
 00007D                             1644  1          =LCBSEQ     DS    PL3                      SEQUENCE NO.
 000080                             1645  1          =LCBIDENT   DS    CL4                     MODULE IDENT
0                                   1647  1          =* CSD - CONSOLIDATED SYMBOL DIRECTORY
                                    1648  1          =*
 000084                             1649  1          =LCBCHF     DS    A                       L(FIRST FREE CSD ENTRY)
                                    1650  1          =LCBCSD     EQU   LCBMAP                  CSD TABLE ADDRESS
 000088                             1651  1          =LCBCSDH    DS    A                       HEAD  OF CSD CHAIN
 00008C                             1652  1          =LCBCSDLC   DS    A                       CSD LOCATION COUNTER
                                    1653  1          =*        .
                                    1654  1          =*        CSD AND RLD GROW TOWARDS EACH OTHER
                                    1655  1          =*        .
                                    1656  1          =* RLD - RELOCATION DICTIONARY
 000090                             1657  1          =LCBRLDLC   DS    A                       RLD LOCATION COUNTER
 000094                             1658  1          =LCBRHF     DS    A                       L(FIRST FREE RLD ENTRY)
1VEV      (VEV00) (09:46) (22MAR04) ORVYL'S EXPRESSION EVALUATOR                                                            Page   10
0Loc    Object Code    Addr1 Addr2  Stmt Lv Lineno    Source Statement           (Hibal 5, Asmedit 3.3)  HLASM R4.0  2004/03/22 09.46
+___    ______ ____    _____ _____  ____ __ ______    ______ _________
0000098                             1659  1          =LCBRLD     DS    A
0                                   1661  1          =* SD - CSECT (SD) ID TABLE
                                    1662  1          =*
 00009C                0009C 00098  1663  1          =           ORG   LCBRLD                  ... RLD AND SD TABLES MEET
 000098                             1664  1          =LCBSD      DS    A                       SD TABLE
 00009C                             1665  1          =LCBSDLC    DS    A                       SD TABLE ALLOCATOR
 0000A0                             1666  1          =LCBSDEND   DS    A                       SD TABLE LIMIT
0                                   1668  1          =* RNT - RENUMBERING TABLE
                                    1669  1          =*
 0000A4                000A4 000A0  1670  1          =           ORG   LCBSDEND                ... SD AND RNT TABLES MEET
 0000A0                             1671  1          =LCBRNT     DS    A                       RNT TABLE ADDRESS
 0000A4                             1672  1          =LCBNRNTE   DS    H                       NUMBER OF RNT ENTRIES
 0000A8                             1673  1          =LCBLSD     DS    A                       CSD POINTER (LENGTH ON END CARD)
 0000AC                             1674  1          =LCBCHRPH   DS    A                       CHANGE/REPLACE LIST HEAD
 0000B0                             1675  1          =LCBALIH    DS    A                       ALIAS CHAIN HEAD
 0000B4                             1676  1          =LCBSRCH    DS    2A                      SAVE AREA FOR CSD SCAN
 0000BC                             1677  1          =LCBMLEN    DS    A                       LENGTH OF LOAD MODULE
0                                   1679  1          =* MODULE OUTPUT CONTROL
                                    1680  1          =*
 0000C0                             1681  1          =LCBMOCSD   DS    A                       CSD POINTER/MODULE OUTPUT
 0000C4                             1682  1          =LCBMORNT   DS    A                       RNT POINTER/MODULE OUTPUT
 0000C8                             1683  1          =LCBMOLC    DS    A                       TEXT POINTER/MODULE OUTPUT
 0000CC                             1684  1          =LCBMOSD    DS    A                       SD POINTER/MODULE OUTPUT
 0000D0                             1685  1          =LCBMOMTB   DS    H                       MAX TEXT BLOCK/MODULE OUTPUT
 0000D2                             1686  1          =LCBMOID    DS    H                       CURRENT ESD ID/MODULE OUTPUT
 0000D4                             1687  1          =LCBMORLD   DS    A                       RLD POINTER/MODULE OUTPUT
 0000D8                             1688  1          =LCBMOCCW   DS    2A                      ADDR,LEN/MODULE TEXT OUTPUT
 0000E0                             1689  1          =LCBMOSID   DS    H                       ID OF SD FOR CURRENT LR'S
 0000E2 00                          1690  1          =LCBMFL     FLAG  ,                       MODULE I/O FLAGS
 LCBMFL.LCBMFCSD   80 ONES          1694  1          =           FLAG  LCBMFCSD                CSD OUTPUT FINISHED
 LCBMFL.LCBMFIDR   40 ONES          1699  1          =           FLAG  LCBMFIDR                IDR OUTPUT FINISHED
 LCBMFL.LCBMFTXT   20 ONES          1704  1          =           FLAG  LCBMFTXT                TEXT OUTPUT FINISHED
 LCBMFL.LCBMFCCW   10 ONES          1709  1          =           FLAG  LCBMFCCW                CCW DEFINED FOR TEXT OUTPUT
 LCBMFL.LCBMFRLD   08 ONES          1714  1          =           FLAG  LCBMFRLD                RLD OUTPUT FINISHED
 LCBMFL.LCBMFSDD   04 ONES          1719  1          =           FLAG  LCBMFSDD                ALL SD ESD'S OUTPUT
 0000E3                000E3 00100  1724  1          =           ORG   LCBSTART+256
 000100                             1725  1          =LCBEND     DS    0F
                                    1726  1          =LCB        EQU   LCBSTART,*-LCBSTART
 000100                00100 00100  1727      40.              END   ,
1VEV      (VEV00) (09:46) (22MAR04) ORVYL'S EXPRESSION EVALUATOR                                                            Page   11
0Loc    Object Code    Addr1 Addr2  Stmt Lv Lineno    Source Statement           (Hibal 5, Asmedit 3.3)  HLASM R4.0  2004/03/22 09.46
+___    ______ ____    _____ _____  ____ __ ______    ______ _________
0                                   1737      42.     *  WORK AREA
                                    1738      43.     *
 000000                00000 00074  1739      44.     WA       RECORD BEGIN
                                    1747  1   45.                VSA   SR,RAR
 000000                             1748  1 01-VSA   +           DS    (RAR+1-(SR)+16*((SR)/(RAR+1))/((SR)/(RAR+1)))F
                                    1749  1   46.
                                    1750  1   47.     STKSIZE    EQU   10                      STACK SIZE
                                    1751  1   48.
 000020                             1752  1   49.     NUMSTK     DS    (STKSIZE)F
 000048                             1753  1   50.     OPSTK      DS    (STKSIZE)X
                                    1754  1   51.                SCANCB PFX=EVKW               SECOND SCANNER WORK AREA
 000054                             1755  1 01-SCANC +EVKWCB     DS    0F
 000054                             1756  1 01-SCANC +EVKWVAL    DS    A                       VALUE RETURNED
 000058                             1757  1 01-SCANC +EVKWKW     DS    CL8                     CURRENT KEY WORD
 000060                             1758  1 01-SCANC +EVKWLEN    DS    A                       LENGTH LEFT TO SCAN
 000064                             1759  1 01-SCANC +EVKWLOC    DS    A                       NEXT THING TO SCAN
 000068                             1760  1 01-SCANC +EVKWRA     DS    A                       RETURN ADDRESS
 00006C                             1761  1 01-SCANC +EVKWPRT    DS    A                       ROUTING TABLE ADDRESS
 000070                             1762  1 01-SCANC +EVKWCLT    DS    A                       SCAN TYPE
                                    1763  1          +*                                      0 = NORMAL SCAN
                                    1764  1          +*                                      4 = EXPRESSION ISOLATION
                                    1765  1          +*                                      8 = EXPRESSION SCAN
                                    1766  1 01-SCANC +EVKWCBL    EQU *-EVKWCB
                                    1767  1   52.
                                    1768  1   53.     WASIZE     EQU   *-WA
 000074                00074 00074  1769      54.              END   ,
1VEV      (VEV00) (09:46) (22MAR04) ORVYL'S EXPRESSION EVALUATOR                                                            Page   12
0Loc    Object Code    Addr1 Addr2  Stmt Lv Lineno    Source Statement           (Hibal 5, Asmedit 3.3)  HLASM R4.0  2004/03/22 09.46
+___    ______ ____    _____ _____  ____ __ ______    ______ _________
0000014                00000 007A0  1780      57.     VEV      CSECT ,                       RESUME CONTROL SECTION
 USING  WA,R8                       1782      58.              USING WA,WAR                  ##
 USING  CLW,R10                     1791      59.              USING CLW,CLWR                ##
-000014 9029 D000/188D       00000  1801      61.     EVAL     VENTER SR,RAR,WASIZE
 00001A 41D0 D074/0D70       00074  1806             +
 USING  *,R7                        1821      62.     BASE     EQU   *
 000020 41F0 A2C4            002C4  1822      63.              SCTYPE 1,CLWKWCB              SET EXPRESSION SCAN
 000024 4110 0001            00001  1836             +
 000028 58E0 7660/0DEE       00680  1839             +
 00002E 1821                        1841      64.              LR    SR,R1                   SAVE OLD SCTYPE
 000030 1B11/41F0 A2C4       002C4  1842      65.              SCAN  ,CLWKWCB                GET EXPRESSION
 000036 58E0 7664/0DEE       00684  1856             +
 00003C 1830                        1858      66.              LR    TR,0                    SAVE LENGTH
 00003E 41F0 8054            00054  1859      67.              SCINIT (1),(0),EVKWCB          SET UP SECONDARY SCAN
 000042 58E0 7668/0DEE       00688  1879             +
 000048 41F0 A2C4/1812       002C4  1881      68.              SCTYPE (SR),CLWKWCB            RESET PRIMARY SCAN
 00004E 58E0 7660/0DEE       00680  1896             +
 000054 41F0 8054            00054  1898      69.              SCTYPE 2,EVKWCB               DO EXPRESSION SCAN
 000058 4110 0002            00002  1912             +
 00005C 58E0 7660/0DEE       00680  1915             +
 000062 1203                        1917      70.              LTR   R0,TR                   TEST TOKEN
 000064 4740 7402            00422  1918      71.              BM    ERROR                   BR IF BAD STRING
 000068 4780 742C            0044C  1919      72.              BZ    NULL                    BR IF NULL
 00006C 1B66                        1920      73.              SR    OPR,OPR                 INIT OPERATOR STACK
 00006E 9200 8048      00048        1921      74.              MVI   OPSTK,EOSCODE           SET START OF STRING IN STACK
 000072 5850 766C            0068C  1922      75.              L     RR,=F'-4'               INIT NUMBER STACK
1VEV      (VEV00) (09:46) (22MAR04) ORVYL'S EXPRESSION EVALUATOR                                                            Page   13
0Current Usings:  (*,R7) (WA,R8) (CLW,R10)
0Loc    Object Code    Addr1 Addr2  Stmt Lv Lineno    Source Statement           (Hibal 5, Asmedit 3.3)  HLASM R4.0  2004/03/22 09.46
+___    ______ ____    _____ _____  ____ __ ______    ______ _________
0                                   1924      77.     *  SCAN FOR NUMBERS AND UNARY OPERATORS
                                    1925      78.     *
 000076 4110 7434            00454  1926      79.     NUMSCAN  SCAN  NUMTBL,EVKWCB
 00007A 41F0 8054            00054  1940             +
 00007E 58E0 7664/0DEE       00684  1943             +
 000084 47F0 7402            00422  1945      80.              B     ERROR                   BR IF NONE PRESENT
                                    1946      81.     *
                                    1947      82.     *  PROCESS LEFT PARENTHESIS
                                    1948      83.     *
 000088 4120 0006            00006  1949      84.     LPAREN   LA    SR,LPCODE
 00008C 47F0 7316            00336  1950      85.              B     STACKOP
                                    1951      86.     *
                                    1952      87.     *  PROCESS UNARY MINUS
                                    1953      88.     *
 000090 4120 002A            0002A  1954      89.     UMINUS   LA    SR,NEGCODE
 000094 47F0 7316            00336  1955      90.              B     STACKOP
                                    1956      91.     *
                                    1957      92.     *  PROCESS REGISTER OPERATOR
                                    1958      93.     *
 000098 4120 0030            00030  1959      94.     REGOP    LA    SR,REGCODE
 00009C 47F0 7316            00336  1960      95.              B     STACKOP
                                    1961      96.     *
                                    1962      97.     * PROCESS POINTER OPERATOR
                                    1963      98.     *
 0000A0 4120 0036            00036  1964      99.     PTROP    LA    SR,PTRCODE
 0000A4 47F0 7316            00336  1965     100.              B     STACKOP
                                    1966     101.     *
                                    1967     102.     *  OBTAIN LOCATION COUNTER
                                    1968     103.     *
 0000A8 58F0 A36C            0036C  1969     104.     LCTR     L     R15,CLWSBPSW+4          GET SESSION BREAK IA
 0000AC 41F0 F000            00000  1970     105.              LA    R15,@R15                CLEAR PSW CRAP
 0000B0 47F0 7180            001A0  1971     106.              B     STACKNUM
                                    1972     107.     *
                                    1973     108.     *  PROCESS NUMBERS
                                    1974     109.     *
 0000B4 4130 0001            00001  1975     110.     NAMENUM  LA    TR,1                    DEFAULT SCALE
 0000B8 1821                        1976     111.              LR    SR,R1
 0000BA 1A20                        1977     112.              AR    SR,0
 0000BC 1840                        1978     113.              LR    QR,0                    SAVE LENGTH
 0000BE 0620                        1979     114.              BCTR  SR,0                    POINT AT LAST CHAR
 0000C0 95D4 2000      00000        1980     115.              CLI   @SR,C'M'                MEGABYTES?
 0000C4 4770 70B2            000D2  1981     116.              BNE   NAME1
 0000C8 5830 7670            00690  1982     117.              L     TR,=X'00100000'
 0000CC 0600                        1983     118.              BCTR  R0,0
 0000CE 47F0 70C0            000E0  1984     119.              B     NAME3
 0000D2 95D2 2000      00000        1985     120.     NAME1    CLI   @SR,C'K'                KILO BYTES?
 0000D6 4770 70C0            000E0  1986     121.              BNE   NAME3
 0000DA 4130 0400            00400  1987     122.              LA    TR,1024
 0000DE 0600                        1988     123.              BCTR  R0,0
 0000E0                             1989     124.     NAME3    DS    0H
 0000E0 957D 1000      00000        1990     125.              CLI   @R1,C''''
 0000E4 4780 7194            001B4  1991     126.              BE    QSTR
 0000E8 957F 1000      00000        1992     127.              CLI   @R1,C'"'
 0000EC 4780 7194            001B4  1993     128.              BE    QSTR
1VEV      (VEV00) (09:46) (22MAR04) ORVYL'S EXPRESSION EVALUATOR                                                            Page   14
0Current Usings:  (*,R7) (WA,R8) (CLW,R10)
0Loc    Object Code    Addr1 Addr2  Stmt Lv Lineno    Source Statement           (Hibal 5, Asmedit 3.3)  HLASM R4.0  2004/03/22 09.46
+___    ______ ____    _____ _____  ____ __ ______    ______ _________
0                                   1994     129.
 0000F0 95F0 1000      00000        1995     130.              CLI   @R1,C'0'                HEX NUMBER?
 0000F4 4780 71C4            001E4  1996     131.              BE    HEX                     BR IF SO
                                    1997     132.
 0000F8 957B 1000      00000        1998     133.              IF    (@R1,EQ,'#'),BEGIN  Getmained memory...
 0000FC 4770 7106            00126  2009             +
 000100 5900 7674            00694  2014  1  134.                IF    ((R0,LT,2),OR,(@R1,NE,'##')),LOC
 000104 4740 71E2            00202  2030  1          +
 000108 D501 76B8 1000 006D8 00000  2040  1          +
 00010E 4770 71E2            00202  2043  1          +
 000112 4110 1001            00001  2049  1  135.                LA    R1,@R1+1
 000116 0600                        2050  1  136.                DECR  R0
 000118 D206 8058 8059 00058 00059  2052  1  137.                MVC   EVKWKW(7),EVKWKW+1
 00011E 9240 805F      0005F        2053  1  138.                MVI   EVKWKW+7,C' '
 000122 47F0 721A            0023A  2054  1  139.                B     SYM
 000126                             2055     140.              END
                                    2059     141.
 000126 955B 1000      00000        2060     142.              IF    (@R1,EQ,'$'),BEGIN  Program memory...
 00012A 4770 7134            00154  2071             +
 00012E 5900 7674            00694  2076  1  143.                IF    ((R0,LT,2),OR,(@R1,NE,'$$')),SLOC
 000132 4740 71CE            001EE  2092  1          +
 000136 D501 76BA 1000 006DA 00000  2102  1          +
 00013C 4770 71CE            001EE  2105  1          +
 000140 4110 1001            00001  2111  1  144.                LA    R1,@R1+1
 000144 0600                        2112  1  145.                DECR  R0
 000146 D206 8058 8059 00058 00059  2114  1  146.                MVC   EVKWKW(7),EVKWKW+1
 00014C 9240 805F      0005F        2115  1  147.                MVI   EVKWKW+7,C' '
 000150 47F0 721A            0023A  2116  1  148.                B     SYM
 000154                             2117     149.              END
                                    2121     150.
 000154 957C 1000      00000        2122     151.              IF    (@R1,EQ,'@'),BEGIN  Register...
 000158 4770 7162            00182  2133             +
 00015C 5900 7674            00694  2138  1  152.                IF    ((R0,LT,2),OR,(@R1,NE,'@@')),REGLOC
 000160 4740 7200            00220  2154  1          +
 000164 D501 76BC 1000 006DC 00000  2164  1          +
 00016A 4770 7200            00220  2167  1          +
 00016E 4110 1001            00001  2173  1  153.                LA    R1,@R1+1
 000172 0600                        2174  1  154.                DECR  R0
 000174 D206 8058 8059 00058 00059  2176  1  155.                MVC   EVKWKW(7),EVKWKW+1
 00017A 9240 805F      0005F        2177  1  156.                MVI   EVKWKW+7,C' '
 00017E 47F0 721A            0023A  2178  1  157.                B     SYM
 000182                             2179     158.              END
                                    2183     159.
 000182 95F1 1000      00000        2184     160.              CLI   @R1,C'1'                DECIMAL NUMBER?
 000186 47B0 7170            00190  2185     161.              BNL   DEC                     BR IF SO
 00018A 1804                        2186     162.              LR    R0,QR                   RESTORE LENGTH
 00018C 47F0 721A            0023A  2187     163.              B     SYM
 000190 58E0 7678/0DEE       00698  2188     164.     DEC      XCALL DTB                     CONVERT DECIMAL NUMBER
 000196 1200                        2192     165.     NUMGO    LTR   R0,R0                   ANY RESIDUE?
 000198 4770 7402            00422  2193     166.              BNZ   ERROR                   BR IF SO
 00019C 1BEE                        2194     167.              SR    R14,R14
 00019E 1CE3                        2195     168.              MR    R14,TR                  GET MEG OR KILO
 0001A0                             2196     169.     STACKNUM DS    0H
 0001A0 4150 5004            00004  2197     170.              LA    RR,@RR+4                BUMP STACK
1VEV      (VEV00) (09:46) (22MAR04) ORVYL'S EXPRESSION EVALUATOR                                                            Page   15
0Current Usings:  (*,R7) (WA,R8) (CLW,R10)
0Loc    Object Code    Addr1 Addr2  Stmt Lv Lineno    Source Statement           (Hibal 5, Asmedit 3.3)  HLASM R4.0  2004/03/22 09.46
+___    ______ ____    _____ _____  ____ __ ______    ______ _________
00001A4 5550 767C            0069C  2198     171.              CL    RR,=A(STKSIZE*4)
 0001A8 47B0 7414            00434  2199     172.              BNL   OVERFLOW                BR IF TOO BIG
 0001AC 50F5 8020            00020  2200     173.              ST    R15,NUMSTK(RR)          PLANT NUMBER IN STACK
 0001B0 47F0 72C0            002E0  2201     174.              B     OPSCAN                  GO GET BINARY OPERATOR
                                    2202     175.
 0001B4 1BFF                        2203     176.     QSTR     SR    R15,R15
 0001B6 58E0 7680/0DEE       006A0  2204     177.              XCALL DQSCAN
 0001BC 47D0 7176            00196  2208     178.              BNP   NUMGO
 0001C0 5900 7684            006A4  2209     179.              C     R0,=A(4)
 0001C4 47D0 71B0            001D0  2210     180.              BNH   QSLP
 0001C8 1A10                        2211     181.              AR    R1,0                    POINT TO STRING END
 0001CA 4100 0004            00004  2212     182.              LA    R0,4
 0001CE 1B10                        2213     183.              SR    R1,0                    BACK UP BY STRING LEN
 0001D0 89F0 0008            00008  2214     184.     QSLP     SLL   R15,8
 0001D4 43F0 1000            00000  2215     185.              IC    R15,@R1
 0001D8 4110 1001            00001  2216     186.              LA    R1,@R1+1
 0001DC 4600 71B0            001D0  2217     187.              BCT   R0,QSLP
 0001E0 47F0 7176            00196  2218     188.              B     NUMGO
 0001E4 58E0 7688/0DEE       006A8  2219     189.     HEX      XCALL XTB                     CONVERT HEXADECIMAL NUMBER
 0001EA 47F0 7176            00196  2223     190.              B     NUMGO
                                    2224     191.
 0001EE 9160 A209      00209        2225     192.     SLOC     IF    (CLWPFPL+CLWPFPIC,Z),$UNDEF
 0001F2 4780 726C            0028C  2243             +
 0001F6 58B0 A250            00250  2249     193.              L     LCBR,CLWLNKP            LOADER CONTROL
 USING  LCB,R11                     2250     194.              USING LCB,LCBR                ##
 0001FA 5820 B000            00000  2259     195.              L     SR,LCBCORE              PROGRAM START
 DROP   LCB,R11                     2260     196.              DROP  LCBR                    ##
 0001FE 47F0 71EE            0020E  2267     197.              B     CLOC
                                    2268     198.
 000202 9120 A209      00209        2269     199.     LOC      IF    ~CLWPFPIC,#UNDEF        ONLY DEFINED IF PROG ENTRD
 000206 47E0 7278            00298  2282             +
 00020A 5820 A018            00018  2288     200.              L     SR,CLWUWST              GET START OF USER CORE
                                    2289     201.
 00020E 4110 1001            00001  2290     202.     CLOC     LA    R1,@R1+1
 000212 0600                        2291     203.              BCTR  R0,0
 000214 58E0 7688/0DEE       006A8  2292     204.              XCALL XTB
 00021A 1EF2                        2296     205.              ALR   R15,SR
 00021C 47F0 7176            00196  2297     206.              B     NUMGO
                                    2298     207.
 000220 4110 1001            00001  2299     208.     REGLOC   LA    R1,@R1+1
 000224 5800 8064            00064  2300     209.              L     R0,EVKWLOC              LOC OF NEXT TOKEN
 000228 5010 8064            00064  2301     210.              ST    R1,EVKWLOC              BACKUP SCAN
 00022C 1B01                        2302     211.              SR    R0,R1                   BACKUP LENGTH
 00022E 5E00 8060            00060  2303     212.              AL    R0,EVKWLEN
 000232 5000 8060            00060  2304     213.              ST    R0,EVKWLEN
 000236 47F0 7078            00098  2305     214.              B     REGOP
                                    2306     215.     *
                                    2307     216.     *  PROCESS SYMBOLS
                                    2308     217.     *
 00023A 1820                        2309     218.     SYM      LR    SR,0
 00023C 1831                        2310     219.              LR    TR,R1
 00023E 9108 A208      00208        2311     220.              IF    CLWFOSC,BEGIN           SYMBOL IN OS CORE
 000242 47E0 7232            00252  2321             +
 000246 18F2/4100 002C       0002C  2326  1  221.                CLPSERV REGION,(1),(SR)       OBTAIN REGION ADDRESS
1VEV      (VEV00) (09:46) (22MAR04) ORVYL'S EXPRESSION EVALUATOR                                                            Page   16
0Current Usings:  (*,R7) (WA,R8) (CLW,R10)
0Loc    Object Code    Addr1 Addr2  Stmt Lv Lineno    Source Statement           (Hibal 5, Asmedit 3.3)  HLASM R4.0  2004/03/22 09.46
+___    ______ ____    _____ _____  ____ __ ______    ______ _________
000024C 0AED                        2344  1          +
 00024E 47F0 7252            00272  2345  1  222.                B     SYMFND
 000252                             2346     223.              END   ,
 000252 9160 A209      00209        2350     224.     SYMORV   IF    (CLWPFPL+CLWPFPIC,Z),SYMCLP
 000256 4780 7284            002A4  2368             +
 00025A 58B0 A250            00250  2374     225.              L     LCBR,CLWLNKP
 00025E 4110 8058            00058  2375     226.              LA    R1,EVKWKW               CLEANED UP KEYWORD
 000262 5890 768C/0D99       006AC  2376     227.              VCALL LDFIND                  GO LOOK UP SYMBOL
 000268 4780 7284            002A4  2380     228.              BZ    SYMCLP                  NOT POUND
 00026C 1211                        2381     229.              LTR   R1,R1
 00026E 4740 7258            00278  2382     230.              BM    UNDEF                   NOT DEFINED
 000272 12F1                        2383     231.     SYMFND   LTR   R15,R1                  FOUND. DEFINED?
 000274 4770 7180            001A0  2384     232.              BNZ   STACKNUM                BR IF DEFINED
 000278 1813/1802                   2385     233.     UNDEF    SEG   (TR),(SR)
 00027C 4590 7620            00640  2398             +
 000280 4110 0000            00000  2399     234.              SEG   ': Undefined'
 000284 4590 7638            00658  2401             +
 000288 47F0 740A            0042A  2402     235.              B     ERRORX
000028C 4130 76C0            006E0  2404     237.     $UNDEF   SYSQS (TR),(SR),'$'
 000290 4120 0001            00001  2407             +
 000294 47F0 7258            00278  2408     238.              B     UNDEF
 000298 4130 76C1            006E1  2409     239.     #UNDEF   SYSQS (TR),(SR),'#'
 00029C 4120 0001            00001  2412             +
 0002A0 47F0 7258            00278  2413     240.              B     UNDEF
00002A4 9140 A20C      0020C        2415     242.     SYMCLP   IF    ~CLWSSP,UNDEF
 0002A8 47E0 7258            00278  2428             +
 0002AC 4100 0038/0AED       00038  2434     243.              CLPSERV  GETMAP
 0002B2 1AF1                        2443     244.              AR    R15,R1                  END OF TABLE
                                    2444     245.
 0002B4 5920 7690            006B0  2445     246.              IF    (SR,GT,8),UNDEF         CHECK LENGTH
 0002B8 4720 7258            00278  2459             +
 0002BC 191F/47B0 72B4       002D4  2465     247.              WHILE (R1,LT,R15),BEGIN
 0002C2 D507 8058 1000 00058 00000  2482  1  248.                CLC   EVKWKW(8),@R1           COMPARE NAMES
 0002C8 4780 72B8            002D8  2483  1  249.                BE    SYMMATCH
 0002CC 4110 1010            00010  2484  1  250.                LA    R1,@R1+16
 0002D0 47F0 729C            002BC  2485     251.              END   ,
 0002D4 47F0 7258            00278  2490     252.              B     UNDEF
                                    2491     253.
 0002D8 58F0 1008            00008  2492     254.     SYMMATCH L     R15,@R1+8               ADDRESS
 0002DC 47F0 7180            001A0  2493     255.              B     STACKNUM
1VEV      (VEV00) (09:46) (22MAR04) ORVYL'S EXPRESSION EVALUATOR                                                            Page   17
0Current Usings:  (*,R7) (WA,R8) (CLW,R10)
0Loc    Object Code    Addr1 Addr2  Stmt Lv Lineno    Source Statement           (Hibal 5, Asmedit 3.3)  HLASM R4.0  2004/03/22 09.46
+___    ______ ____    _____ _____  ____ __ ______    ______ _________
0                                   2495     257.     *  SCAN FOR BINARY OPERATORS
                                    2496     258.     *
 0002E0 4110 7456            00476  2497     259.     OPSCAN   SCAN  OPTBL,EVKWCB
 0002E4 41F0 8054            00054  2511             +
 0002E8 58E0 7664/0DEE       00684  2514             +
 0002EE 4740 7402            00422  2516     260.              BM    ERROR
                                    2517     261.     *
                                    2518     262.     *  PROCESS END OF STRING
                                    2519     263.     *
 0002F2 4120 0000            00000  2520     264.              LA    SR,EOSCODE
 0002F6 47F0 72FE            0031E  2521     265.              B     PRECTEST
                                    2522     266.     *
                                    2523     267.     *  PROCESS PLUS SIGN
                                    2524     268.     *
 0002FA 4120 0012            00012  2525     269.     PLUS     LA    SR,ADDCODE
 0002FE 47F0 72FE            0031E  2526     270.              B     PRECTEST
                                    2527     271.     *
                                    2528     272.     *  PROCESS MINUS SIGN
                                    2529     273.     *
 000302 4120 0018            00018  2530     274.     MINUS    LA    SR,SUBCODE
 000306 47F0 72FE            0031E  2531     275.              B     PRECTEST
                                    2532     276.     *
                                    2533     277.     *  PROCESS TIMES SIGN
                                    2534     278.     *
 00030A 4120 001E            0001E  2535     279.     TIMES    LA    SR,MULCODE
 00030E 47F0 72FE            0031E  2536     280.              B     PRECTEST
                                    2537     281.     *
                                    2538     282.     *  PROCESS DIVIDE SIGN
                                    2539     283.     *
 000312 4120 0024            00024  2540     284.     DIVIDE   LA    SR,DIVCODE
 000316 47F0 72FE            0031E  2541     285.              B     PRECTEST
                                    2542     286.     *
                                    2543     287.     *  PROCESS RIGHT PAREN
                                    2544     288.     *
 00031A 4120 000C            0000C  2545     289.     RPAREN   LA    SR,RPCODE
                                    2546     290.     *
                                    2547     291.     *  COMPARE PRECEDENCE OF OPERATOR AND TOP OF STACK
                                    2548     292.     *
 00031E                             2549     293.     PRECTEST DS    0H
 00031E 1B33                        2550     294.              SR    TR,TR                   PICK UP TOP OF STACK
 000320 4336 8048            00048  2551     295.              IC    TR,OPSTK(OPR)
 000324 48F3 7474            00494  2552     296.              LH    R15,OPTABLE(TR)         PRECEDENCE
 000328 49F2 7474            00494  2553     297.              CH    R15,OPTABLE(SR)
 00032C 4740 7316            00336  2554     298.              BL    STACKOP
 000330 0660                        2555     299.              BCTR  OPR,0                   POP UP STACK
 000332 47F3 7476            00496  2556     300.              B     OPTABLE+2(TR)           GO DO THE OPERATION
                                    2557     301.     *
                                    2558     302.     *  PLACE OPERATOR ON TOP OF STACK
                                    2559     303.     *
 000336                             2560     304.     STACKOP  DS    0H
 000336 4160 6001            00001  2561     305.              LA    OPR,@OPR+1
 00033A 5560 7694            006B4  2562     306.              CL    OPR,=A(STKSIZE)
 00033E 47B0 7414            00434  2563     307.              BNL   OVERFLOW
 000342 4226 8048            00048  2564     308.              STC   SR,OPSTK(OPR)           PLACE OPERATOR INTO STACK
1VEV      (VEV00) (09:46) (22MAR04) ORVYL'S EXPRESSION EVALUATOR                                                            Page   18
0Current Usings:  (*,R7) (WA,R8) (CLW,R10)
0Loc    Object Code    Addr1 Addr2  Stmt Lv Lineno    Source Statement           (Hibal 5, Asmedit 3.3)  HLASM R4.0  2004/03/22 09.46
+___    ______ ____    _____ _____  ____ __ ______    ______ _________
0000346 47F0 7056            00076  2565     309.              B     NUMSCAN                 GO GET OPERAND
1VEV      (VEV00) (09:46) (22MAR04) ORVYL'S EXPRESSION EVALUATOR                                                            Page   19
0Current Usings:  (*,R7) (WA,R8) (CLW,R10)
0Loc    Object Code    Addr1 Addr2  Stmt Lv Lineno    Source Statement           (Hibal 5, Asmedit 3.3)  HLASM R4.0  2004/03/22 09.46
+___    ______ ____    _____ _____  ____ __ ______    ______ _________
0                                   2567     311.     *  PERFORM ADDITION
                                    2568     312.     *
 00034A 5F50 7698            006B8  2569     313.     ADDDO    SL    RR,=F'4'
 00034E 5805 8020            00020  2570     314.              L     R0,NUMSTK(RR)
 000352 5E05 8024            00024  2571     315.              AL    R0,NUMSTK+4(RR)
 000356 5005 8020            00020  2572     316.              ST    R0,NUMSTK(RR)
 00035A 47F0 72FE            0031E  2573     317.              B     PRECTEST
                                    2574     318.     *
                                    2575     319.     *  PERFORM SUBTRACTION
                                    2576     320.     *
 00035E 5F50 7698            006B8  2577     321.     SUBDO    SL    RR,=F'4'
 000362 5805 8020            00020  2578     322.              L     R0,NUMSTK(RR)
 000366 5F05 8024            00024  2579     323.              SL    R0,NUMSTK+4(RR)
 00036A 5005 8020            00020  2580     324.              ST    R0,NUMSTK(RR)
 00036E 47F0 72FE            0031E  2581     325.              B     PRECTEST
                                    2582     326.     *
                                    2583     327.     *  PERFORM MULTIPICATION
                                    2584     328.     *
 000372 5F50 7698            006B8  2585     329.     MULDO    SL    RR,=F'4'
 000376 5815 8020            00020  2586     330.              L     R1,NUMSTK(RR)
 00037A 5C05 8024            00024  2587     331.              M     R0,NUMSTK+4(RR)
 00037E 5015 8020            00020  2588     332.              ST    R1,NUMSTK(RR)
 000382 47F0 72FE            0031E  2589     333.              B     PRECTEST
                                    2590     334.     *
                                    2591     335.     *  PERFORM DIVISION
                                    2592     336.     *
 000386 5F50 7698            006B8  2593     337.     DIVDO    SL    RR,=F'4'
 00038A 5805 8020            00020  2594     338.              L     R0,NUMSTK(RR)
 00038E 8E00 0020            00020  2595     339.              SRDA  R0,32                   SMEAR SIGN ACROSS REG 0
 000392 58F5 8024            00024  2596     340.              L     R15,NUMSTK+4(RR)
 000396 1BEE                        2597     341.              SR    R14,R14
 000398 50E5 8020            00020  2598     342.              ST    R14,NUMSTK(RR)
 00039C 12FF                        2599     343.              LTR   R15,R15
 00039E 4780 7388            003A8  2600     344.              BZ    *+10
 0003A2 1D0F                        2601     345.              DR    R0,R15
 0003A4 5015 8020            00020  2602     346.              ST    R1,NUMSTK(RR)
 0003A8 47F0 72FE            0031E  2603     347.              B     PRECTEST
                                    2604     348.     *
                                    2605     349.     *  PERFORM NEGATION
                                    2606     350.     *
 0003AC 5805 8020            00020  2607     351.     NEGDO    L     R0,NUMSTK(RR)
 0003B0 1300                        2608     352.              LCR   R0,0
 0003B2 5005 8020            00020  2609     353.              ST    R0,NUMSTK(RR)
 0003B6 47F0 72FE            0031E  2610     354.              B     PRECTEST
                                    2611     355.     *
                                    2612     356.     *  FETCH REGISTER VALUE
                                    2613     357.     *
 0003BA 5815 8020            00020  2614     358.     REGDO    L     R1,NUMSTK(RR)
 0003BE 5510 769C            006BC  2615     359.              CL    R1,=F'16'
 0003C2 47B0 7420            00440  2616     360.              BNL   ILLGPR
 0003C6 8910 0002            00002  2617     361.              SLL   R1,2
 0003CA 5811 A370            00370  2618     362.              L     R1,CLWSBGPR(1)
                                    2619     363.     *        LA    R1,@R1
 0003CE 5015 8020            00020  2620     364.              ST    R1,NUMSTK(RR)
1VEV      (VEV00) (09:46) (22MAR04) ORVYL'S EXPRESSION EVALUATOR                                                            Page   20
0Current Usings:  (*,R7) (WA,R8) (CLW,R10)
0Loc    Object Code    Addr1 Addr2  Stmt Lv Lineno    Source Statement           (Hibal 5, Asmedit 3.3)  HLASM R4.0  2004/03/22 09.46
+___    ______ ____    _____ _____  ____ __ ______    ______ _________
00003D2 47F0 72FE            0031E  2621     365.              B     PRECTEST
                                    2622     366.     *
                                    2623     367.     *   FETCH MEMORY FOR POINTER OPERATION
                                    2624     368.     *
 0003D6 5815 8020            00020  2625     369.     PTRDO    L     R1,NUMSTK(RR)           ARGUMENT
 0003DA 4105 8020            00020  2626     370.              LA    R0,NUMSTK(RR)
 0003DE 41F0 0004            00004  2627     371.              LA    R15,4
 0003E2 5890 76A0/0D99       006C0  2628     372.              VCALL READCORE
 0003E8 59F0 7684            006A4  2632     373.              C     R15,=A(4)               READ OK?
 0003EC 47D0 72FE            0031E  2633     374.              BNH   PRECTEST
 0003F0 4110 000C            0000C  2634     375.              SEG   'Invalid pointer address'
 0003F4 4590 7638            00658  2636             +
 0003F8 47F0 740A            0042A  2637     376.              B     ERRORX
                                    2638     377.     *
                                    2639     378.     *  MATCH PARENTHESES
                                    2640     379.     *
 0003FC 5520 76A4            006C4  2641     380.     LPDO     CL    SR,=A(RPCODE)
 000400 4780 72C0            002E0  2642     381.              BE    OPSCAN
 000404 47F0 7402            00422  2643     382.              B     ERROR
                                    2644     383.     *
                                    2645     384.     *  TERMINAL PROCESSING
                                    2646     385.     *
 000408 5520 76A8            006C8  2647     386.     EOSDO    CL    SR,=A(EOSCODE)
 00040C 4770 7402            00422  2648     387.              BNE   ERROR
 000410 5800 8020            00020  2649     388.              L     R0,NUMSTK               RESULT
 000414 41F0 0004            00004  2650     389.              LA    R15,4
 000418 18D8/9829 D000       00000  2651     390.     EXIT     VEXIT SR,RAR,LTR
 00041E 12FF/07F9                   2655             +
                                    2657     391.
 000422                             2658     392.     ERROR    DS    0H
 000422 4110 0024            00024  2659     393.              SEG   'Invalid syntax in expression'
 000426 4590 7638            00658  2661             +
 00042A                             2662     394.     ERRORX   DS    0H
 00042A 1B00                        2663     395.              SR    R0,0
 00042C 58F0 766C            0068C  2664     396.              L     R15,=F'-4'
 000430 47F0 73F8            00418  2665     397.              B     EXIT
                                    2666     398.
 000434 4110 0041            00041  2667     399.     OVERFLOW SEG   'Expression too complicated'
 000438 4590 7638            00658  2669             +
 00043C 47F0 740A            0042A  2670     400.              B     ERRORX
                                    2671     401.
 000440 4110 005C            0005C  2672     402.     ILLGPR   SEG   'Invalid GPR'
 000444 4590 7638            00658  2674             +
 000448 47F0 740A            0042A  2675     403.              B     ERRORX
                                    2676     404.
 00044C 1BFF                        2677     405.     NULL     SR    R15,R15
 00044E 180F                        2678     406.              LR    R0,R15
 000450 47F0 73F8            00418  2679     407.              B     EXIT
1VEV      (VEV00) (09:46) (22MAR04) ORVYL'S EXPRESSION EVALUATOR                                                            Page   21
0Current Usings:  (*,R7) (WA,R8) (CLW,R10)
0Loc    Object Code    Addr1 Addr2  Stmt Lv Lineno    Source Statement           (Hibal 5, Asmedit 3.3)  HLASM R4.0  2004/03/22 09.46
+___    ______ ____    _____ _____  ____ __ ______    ______ _________
0                                   2681     409.     *  SCAN TABLES
                                    2682     410.     *
                                    2683     411.     *    FOR UNARY OPERATORS
                                    2684     412.     *
 000454 000000764E                  2685     413.     NUMTBL   SCKW  +,NUMSCAN
 000459 0000009060                  2687     414.              SCKW  -,UMINUS
 00045E 000000987C                  2689     415.              SCKW  @,REGOP
 000463 000000884D                  2691     416.              SCKW  '(',LPAREN
 000468 000000A06E                  2693     417.              SCKW  >,PTROP
 00046D 000000A85C                  2695     418.              SCKW  *,LCTR
 000472 FF0000B4                    2697     419.              SCKW  ,NAMENUM
                                    2699     420.     *
                                    2700     421.     *    FOR BINARY OPERATORS
                                    2701     422.     *
 000476 000002FA4E                  2702     423.     OPTBL    SCKW  +,PLUS
 00047B 0000030260                  2704     424.              SCKW  -,MINUS
 000480 0000030A5C                  2706     425.              SCKW  *,TIMES
 000485 0000031261                  2708     426.              SCKW  /,DIVIDE
 00048A 0000031A5D                  2710     427.              SCKW  ')',RPAREN
 00048F FF000422                    2712     428.              SCKW  ,ERROR
1VEV      (VEV00) (09:46) (22MAR04) ORVYL'S EXPRESSION EVALUATOR                                                            Page   22
0Current Usings:  (*,R7) (WA,R8) (CLW,R10)
0Loc    Object Code    Addr1 Addr2  Stmt Lv Lineno    Source Statement           (Hibal 5, Asmedit 3.3)  HLASM R4.0  2004/03/22 09.46
+___    ______ ____    _____ _____  ____ __ ______    ______ _________
0                                   2715     430.     *  TABLE OF OPERATOR PRECENDENCE AND EXECUTION ROUTINES
                                    2716     431.     *
 000494                             2717     432.     OPTABLE  DS    0F
 000494 0000/47F0 73E8       00408  2718     433.     EOSCODE  OP    R0,EOSDO
 00049A 0000/47F0 73DC       003FC  2722     434.     LPCODE   OP    R0,LPDO
 0004A0 0000/47F0 0000       00000  2726     435.     RPCODE   OP    R0,0
 0004A6 0001/47F0 732A       0034A  2730     436.     ADDCODE  OP    R1,ADDDO
 0004AC 0001/47F0 733E       0035E  2734     437.     SUBCODE  OP    R1,SUBDO
 0004B2 0002/47F0 7352       00372  2738     438.     MULCODE  OP    2,MULDO
 0004B8 0002/47F0 7366       00386  2742     439.     DIVCODE  OP    2,DIVDO
 0004BE 0003/47F0 738C       003AC  2746     440.     NEGCODE  OP    3,NEGDO
 0004C4 0003/47F0 739A       003BA  2750     441.     REGCODE  OP    3,REGDO
 0004CA 0003/47F0 73B6       003D6  2754     442.     PTRCODE  OP    3,PTRDO
 DROP   WA,R8                       2758     443.              DROP  WAR,BR                  ##
 DROP   *,R7
1VEV      (VEV00) (09:46) (22MAR04) ORVYL'S EXPRESSION EVALUATOR                                                            Page   23
0Current Usings:  (CLW,R10)
0Loc    Object Code    Addr1 Addr2  Stmt Lv Lineno    Source Statement           (Hibal 5, Asmedit 3.3)  HLASM R4.0  2004/03/22 09.46
+___    ______ ____    _____ _____  ____ __ ______    ______ _________
0                                   2772     445.     * LIST OF CLP CSECTS
                                    2773     446.     *
                                    2774     447.              ENTRY CLPCSECT,CLPCSEND
 0004D0                             2775     448.     CLPCSECT DS    0F
 0004D0 E5C3D3D7                    2776     449.              VSECT VCLP
 0004D4 00000000                    2778             +
 0004D8 E5D7D440                    2779     450.              VSECT VPM
 0004DC 00000000                    2781             +
 0004E0 E5E2C440                    2782     451.              VSECT VSD
 0004E4 00000000                    2784             +
 0004E8 E5E2E3C3                    2785     452.              VSECT VSTC
 0004EC 00000000                    2787             +
 0004F0 E5C7D740                    2788     453.              VSECT VGP
 0004F4 00000000                    2790             +
 0004F8 E5E2E4C2                    2791     454.              VSECT VSUB
 0004FC 00000000                    2793             +
 000500 E5D74040                    2794     455.              VSECT VP
 000504 00000000                    2796             +
 000508 E5C5E540                    2797     456.              VSECT VEV
 00050C 00000000                    2799             +
 000510 E5E2C3D5                    2800     457.              VSECT VSCN
 000514 00000000                    2802             +
 000518 E5D3C4D9                    2803     458.              VSECT VLDR
 00051C 00000000                    2805             +
 000520 E5E4D5D7                    2806     459.              VSECT VUNP
 000524 00000000                    2808             +
 000528 E5C3D940                    2809     460.              VSECT VCR
 00052C 00000000                    2811             +
 000530 E5D7E240                    2812     461.              VSECT VPS
 000534 00000000                    2814             +
 000538 E5C6E2C8                    2815     462.              VSECT VFSH
 00053C 00000000                    2817             +
 000540 E5E2E2E5                    2818     463.              VSECT VSSV
 000544 00000000                    2820             +
 000548                             2821     464.     CLPCSEND DS    0F
1VEV      (VEV00) (09:46) (22MAR04) ORVYL'S EXPRESSION EVALUATOR                                                            Page   24
0Current Usings:  (CLW,R10)
0Loc    Object Code    Addr1 Addr2  Stmt Lv Lineno    Source Statement           (Hibal 5, Asmedit 3.3)  HLASM R4.0  2004/03/22 09.46
+___    ______ ____    _____ _____  ____ __ ______    ______ _________
0                                   2823     466.     *  EVALUATE HEXADECIMAL STRING
                                    2824     467.     *     (STRING MAY BE A QUOTED CHARACTER STRING)
                                    2825     468.     *        - R1: ADDRESS OF CONVERSION RESULT
                                    2826     469.     *        - R0: MAXIMUM LENGTH OF CONVERSION RESULT
                                    2827     470.     *
                                    2828     471.     *        RETURNS R0 WITH LENGTH OF RESULT
                                    2829     472.     *
 000548 9019 D000/188D       00000  2830     473.     EVHEX    VENTER R1,RAR,WASIZE
 00054E 41D0 D074/0D70       00074  2835             +
 000554 5870 7178            006CC  2850     474.              L     BR,=A(BASE)             COMMON ADDRESSABILITY FOR SEG
 USING  *,R7
 DROP   *,R7                        2851     475.              USING BASE,BR                 ##
 USING  BASE,R7
 000558 1820                        2863     476.              LR    SR,0                    MAXIMUM LENGTH
 00055A 1831                        2864     477.              LR    TR,R1                   RESULT BUFFER
 00055C 1B11/41F0 A2C4       002C4  2865     478.              SCAN  ,CLWKWCB                BREAK OUT STRING
 000562 58E0 7664/0DEE       00684  2879             +
 000568 1841                        2881     479.              LR    QR,R1                   SAVE TOKEN POINTER
 00056A 1850                        2882     480.              LR    RR,R0                   AND TOKEN LENGTH
 00056C 4740 75CC            005EC  2883     481.              BM    ILLSTR
 000570 4780 75F0            00610  2884     482.              BZ    MISSHEX
 000574 957D 1000      00000        2885     483.              CLI   @R1,C''''               QUOTED STRING?
 000578 4780 75FC            0061C  2886     484.              BE    EVQUOT
 00057C 957F 1000      00000        2887     485.              CLI   @R1,C'"'
 000580 4780 75FC            0061C  2888     486.              BE    EVQUOT
 000584 58E0 7688/0DEE       006A8  2889     487.              XCALL XTB                     TEST FOR INVALID CHAR
 00058A 1200                        2893     488.              LTR   R0,R0
 00058C 4770 75CC            005EC  2894     489.              BNZ   ILLSTR
 000590 4110 5001            00001  2895     490.              LA    R1,@RR+1                TEST FOR MAX LENGTH
 000594 8810 0001            00001  2896     491.              SRL   R1,1
 000598 1512                        2897     492.              CLR   R1,SR
 00059A 4720 75E4            00604  2898     493.              BH    LONGSTR
 00059E 1B22                        2899     494.              SR    SR,SR
 0005A0 1814                        2900     495.              LR    R1,QR
 0005A2 5550 76B0            006D0  2901     496.     HEXLOOP  CL    RR,=F'1'                DONE?
 0005A6 4740 75BE            005DE  2902     497.              BL    HEXOK                   BR IF SO
 0005AA 4120 2001            00001  2903     498.              LA    SR,@SR+1                BUMP LENGTH
 0005AE 4780 75AC            005CC  2904     499.              BE    HEXODD                  BR IF SINGLE DIGIT
 0005B2 4100 0002            00002  2905     500.              LA    R0,2
 0005B6 58E0 7688/0DEE       006A8  2906     501.              XCALL XTB                     CONVERT THE BYTE
 0005BC 42F0 3000            00000  2910     502.              STC   R15,@TR                 PLANT INTO AREA
 0005C0 4130 3001            00001  2911     503.              LA    TR,@TR+1
 0005C4 0650                        2912     504.              BCTR  RR,0
 0005C6 0650                        2913     505.              BCTR  RR,0
 0005C8 47F0 7582            005A2  2914     506.              B     HEXLOOP
                                    2915     507.
 0005CC 4100 0001            00001  2916     508.     HEXODD   LA    R0,1
 0005D0 58E0 7688/0DEE       006A8  2917     509.              XCALL XTB                     CONVERT ODD DIGIT
 0005D6 89F0 0004            00004  2921     510.              SLL   R15,4
 0005DA 42F0 3000            00000  2922     511.              STC   R15,@TR
                                    2923     512.
 0005DE 1BFF                        2924     513.     HEXOK    SR    R15,R15                 INDICATE NO ERROR
 0005E0 1802                        2925     514.              LR    R0,SR                   RETURN LENGTH
 0005E2 18D8/9819 D000       00000  2926     515.     HEXEX    VEXIT R1,RAR,LTR
1VEV      (VEV00) (09:46) (22MAR04) ORVYL'S EXPRESSION EVALUATOR                                                            Page   25
0Current Usings:  (BASE,R7) (CLW,R10)
0Loc    Object Code    Addr1 Addr2  Stmt Lv Lineno    Source Statement           (Hibal 5, Asmedit 3.3)  HLASM R4.0  2004/03/22 09.46
+___    ______ ____    _____ _____  ____ __ ______    ______ _________
00005E8 12FF/07F9                   2930             +
                                    2932     516.
 0005EC 1005                        2933     517.     ILLSTR   LPR   R0,RR                   GET POSITIVE LENGTH
 0005EE 1814/4590 7620       00640  2934     518.              SEG   (QR),(0)
 0005F4 4110 0068            00068  2948     519.              SEG   ': Invalid hexadecimal string'
 0005F8 4590 7638            00658  2950             +
 0005FC                             2951     520.     HEXER    DS    0H
 0005FC 58F0 766C            0068C  2952     521.              L     R15,=F'-4'
 000600 47F0 75C2            005E2  2953     522.              B     HEXEX
                                    2954     523.
 000604 4110 0085            00085  2955     524.     LONGSTR  SEG   'Hexadecimal string too long'
 000608 4590 7638            00658  2957             +
 00060C 47F0 75DC            005FC  2958     525.              B     HEXER
 000610 4110 00A1            000A1  2959     526.     MISSHEX  SEG   'Missing hexadecimal string'
 000614 4590 7638            00658  2961             +
 000618 47F0 75DC            005FC  2962     527.              B     HEXER
                                    2963     528.     *
                                    2964     529.     * HEX STRING IS QUOTED CHARACTER STRING
 00061C 58E0 7680/0DEE       006A0  2965     530.     EVQUOT   XCALL DQSCAN                  CLEAR OUT QUOTES
 000622 47D0 75CC            005EC  2969     531.              BNP   ILLSTR
 000626 1902/4720 75E4       00604  2970     532.              IF    (R0,GT,SR),LONGSTR      STRING WITHIN BOUNDS
 00062C 1820                        2988     533.              LR    SR,0                    RETURN LENGTH
 00062E 1850                        2989     534.              LR    RR,0                    MOVE STRING TO BUFFER
 000630 0650                        2990     535.              BCTR  RR,0
 000632 4450 761A            0063A  2991     536.              EX    RR,EVQMOV               MOVE STRING
 000636 47F0 75BE            005DE  2993     537.              B     HEXOK
                                    2994     538.
 00063A D200 3000 1000 00000 00000  2995     539.     EVQMOV   MVC   @TR(*-*),@R1
1VEV      (VEV00) (09:46) (22MAR04) ORVYL'S EXPRESSION EVALUATOR                                                            Page   26
0Current Usings:  (BASE,R7) (CLW,R10)
0Loc    Object Code    Addr1 Addr2  Stmt Lv Lineno    Source Statement           (Hibal 5, Asmedit 3.3)  HLASM R4.0  2004/03/22 09.46
+___    ______ ____    _____ _____  ____ __ ______    ______ _________
0                                   2997     541.     *  SPECIAL SEG ROUTINE
                                    2998     542.     *
 000640                             2999     543.     SEG      DS    0H
 000640 5090 D000            00000  3000     544.              VPUSH RAR,,*
 000644 41D0 D004            00004  3002             +
 000648 5890 76B4/0D99       006D4  3003     545.              VSEG  (1),(0)
 00064E 4BD0 76BE            006DE  3020     546.              VPOP  RAR,,*
 000652 5890 D000            00000  3022             +
 000656 07F9                        3023     547.              BR    RAR
-
-000658 5090 D000            00000  3025     549.              GENMSGS
 00065C 41D0 D004/1F00       00004  3029             +
 000662 4301 76C2            006E2  3034             +
 000666 4111 76C3            006E3  3035             +
 00066A 5890 76B4/0D99       006D4  3051             +
 000670 4BD0 76BE            006DE  3054             +
 000674 5890 D000/07F9       00000  3055             +
 000680 00000000                    3059                             =V(SCTYPE)
 000684 00000000                    3060                             =V(SCAN)
 000688 00000000                    3061                             =V(SCINIT)
 00068C FFFFFFFC                    3062                             =F'-4'
 000690 00100000                    3063                             =X'00100000'
 000694 00000002                    3064                             =A(2)
 000698 00000000                    3065                             =V(DTB)
 00069C 00000028                    3066                             =A(STKSIZE*4)
 0006A0 00000000                    3067                             =V(DQSCAN)
 0006A4 00000004                    3068                             =A(4)
 0006A8 00000000                    3069                             =V(XTB)
 0006AC 00000000                    3070                             =V(LDFIND)
 0006B0 00000008                    3071                             =A(8)
 0006B4 0000000A                    3072                             =A(STKSIZE)
 0006B8 00000004                    3073                             =F'4'
 0006BC 00000010                    3074                             =F'16'
 0006C0 00000000                    3075                             =V(READCORE)
 0006C4 0000000C                    3076                             =A(RPCODE)
 0006C8 00000000                    3077                             =A(EOSCODE)
 0006CC 00000020                    3078                             =A(BASE)
 0006D0 00000001                    3079                             =F'1'
 0006D4 00000000                    3080                             =V(VSEG)
 0006D8 7B7B                        3081                             =C'##'
 0006DA 5B5B                        3082                             =C'$$'
 0006DC 7C7C                        3083                             =C'@@'
 0006DE 0004                        3084                             =Y(4)
 0006E0 5B                          3085                             =C'$'
 0006E1 7B             006E2 007A0  3086                             =C'#'
-0007A0                007A0 007A0  3112     551.              END   .

1VEV      (VEV00) (09:46) (22MAR04) Ordinary Symbol and Literal Cross Reference                                             Page   27
-Symbol   Length   Value     Id    R Type   Defn References                                  HLASM R4.0  2004/03/22 09.46
0$$$@R10       1 00000000 FFFFFFF4     J     836 1129
 $$$@R11       1 00000000 FFFFFFF3     J     849 1142
 $$$@R12       1 00000000 FFFFFFF2     J     862 1155
 $$$@R2        1 00000000 FFFFFFFC     J     732 1025
 $$$@R3        1 00000000 FFFFFFFB     J     745 1038
 $$$@R4        1 00000000 FFFFFFFA     J     758 1051
 $$$@R5        1 00000000 FFFFFFF9     J     771 1064
 $$$@R6        1 00000000 FFFFFFF8     J     784 1077
 $$$@R7        1 00000000 FFFFFFF7     J     797 1090
 $$$@R8        1 00000000 FFFFFFF6     J     810 1103
 $$$@R9        1 00000000 FFFFFFF5     J     823 1116
 $$$C1VEV      1 000006E2 00000001     J    3087 3089
 $$$C2VEV      1 000007A0 00000001     J    3115 3117
 $$$RCLW       1 00000000 FFFFFFEE     J    1191 1498  1498
 $$$RLNKPAGE
               1 00000000 FFFFFFED     J    1504 1733  1733
 $$$RWA        1 00000000 FFFFFFEC     J    1741 1775  1775
 $$$11B        1 00000020 00000001     X    1812 1819U
 $$$12F        2 00000126 00000001     H    2058 2009B
 $$$15F        2 00000154 00000001     H    2120 2071B
 $$$18F        2 00000182 00000001     H    2182 2133B
 $$$23F        2 00000252 00000001     H    2349 2321B
 $$$27F        2 000002D4 00000001     H    2489 2477B
 $$$27S        2 000002BC 00000001     H    2470 2488B
 $$$29B        1 00000554 00000001     X    2841 2848U
 $UNDEF        4 0000028C 00000001     I    2406 2243B
 #UNDEF        4 00000298 00000001     I    2411 2282B
 #VEVA1M       1 000006E2 00000001     R    3093 2400
 #VEVA1T      11 000006E3 00000001     C    3094 3093
 #VEVA2M       1 000006EE 00000001     R    3095 2635
 #VEVA2T      23 000006EF 00000001     C    3096 3095
 #VEVA3M       1 00000706 00000001     R    3097 2660
 #VEVA3T      28 00000707 00000001     C    3098 3097
 #VEVA4M       1 00000723 00000001     R    3099 2668
 #VEVA4T      26 00000724 00000001     C    3100 3099
 #VEVA5M       1 0000073E 00000001     R    3101 2673
 #VEVA5T      11 0000073F 00000001     C    3102 3101
 #VEVA6M       1 0000074A 00000001     R    3103 2949
 #VEVA6T      28 0000074B 00000001     C    3104 3103
 #VEVA7M       1 00000767 00000001     R    3105 2956
 #VEVA7T      27 00000768 00000001     C    3106 3105
 #VEVA8M       1 00000783 00000001     R    3107 2960
 #VEVA8T      26 00000784 00000001     C    3108 3107
 @OPR          0 00000000 FFFFFFF8     @    1078 2561
 @RR           0 00000000 FFFFFFF9     @    1065 2197  2895
 @R0           0 00000000 FFFFFFFE     @     707  983U
 @R1           0 00000000 FFFFFFFD     @     720  979U 1990  1992  1995  2008  2040  2049  2070  2102  2111  2132  2164
                                                 2173  2184  2215  2216  2290  2299  2482  2484  2492  2885  2887  2995
 @R10          0 00000000 FFFFFFF4     @     837  943U
 @R11          0 00000000 FFFFFFF3     @     850  939U 2265U
 @R12          0 00000000 FFFFFFF2     @     863  935U
 @R13          0 00000000 FFFFFFF1     @     876  931U
 @R14          0 00000000 FFFFFFF0     @     889  927U
 @R15          0 00000000 FFFFFFEF     @     902  923U 1970
 @R2           0 00000000 FFFFFFFC     @     733  975U
1VEV      (VEV00) (09:46) (22MAR04) Ordinary Symbol and Literal Cross Reference                                             Page   28
 @R3           0 00000000 FFFFFFFB     @     746  971U
 @R4           0 00000000 FFFFFFFA     @     759  967U
 @R5           0 00000000 FFFFFFF9     @     772  963U
 @R6           0 00000000 FFFFFFF8     @     785  959U
 @R7           0 00000000 FFFFFFF7     @     798  955U 2769U 2858U
 @R8           0 00000000 FFFFFFF6     @     811  951U 2763U
 @R9           0 00000000 FFFFFFF5     @     824  947U
 @SR           0 00000000 FFFFFFFC     @    1026 1980  1985  2903
 @TR           0 00000000 FFFFFFFB     @    1039 2910M 2911  2922M 2995M
 ADDCODE       1 00000012 00000001 A   U    2731 2525
 ADDDO         4 0000034A 00000001     I    2569 2733B
 BASE          1 00000020 00000001     U    1821 2861U 3078
 BR            7 00000007 00000001 A   #    1084 2850M 2861U
 CLOC          4 0000020E 00000001     I    2290 2267B
 CLPCSECT      4 000004D0 00000001     F    2775 2774
 CLPCSEND      4 00000548 00000001     F    2821 2774
 CLW        1560 00000000 FFFFFFEE     J    1498 1798U
 CLWACCT       6 000003B0 FFFFFFEE     C    1484 1485  1486
 CLWFL         1 00000207 FFFFFFEE     R    1215 1219  1224  1229
 CLWFLG        1 00000208 FFFFFFEE     R    1235 1239  1244  1249  1254  1259  1264  1269
 CLWFOSC       8 00000208 FFFFFFEE         1259 2320
 CLWKWCB       4 000002C4 FFFFFFEE     F    1460 1471  1829  1853  1888  2876
 CLWLNKP       4 00000250 FFFFFFEE     A    1427 2249  2374
 CLWMFL        1 0000020A FFFFFFEE     R    1320 1324  1329  1334  1339  1344  1349  1354  1359
 CLWMONF       1 0000020B FFFFFFEE     R    1365 1369  1374  1379  1384
 CLWNTRAP      1 00000008 FFFFFFEE A   N    1442 1443
 CLWOBUF       2 00000118 FFFFFFEE     H    1209 1211
 CLWPFL        1 00000209 FFFFFFEE     R    1275 1279  1284  1289  1294  1299  1304  1309  1314
 CLWPFPIC     32 00000209 FFFFFFEE         1289 2239  2239  2279  2364  2364
 CLWPFPL      64 00000209 FFFFFFEE         1284 2239  2239  2240  2364  2364  2365
 CLWR         10 0000000A 00000001 A   #    1123 1798U
 CLWSBGPR      4 00000370 FFFFFFEE     F    1483 2618
 CLWSBPSW      8 00000368 FFFFFFEE     D    1482 1969
 CLWSFL        1 0000020C FFFFFFEE     R    1390 1394  1399
 CLWSSP       64 0000020C FFFFFFEE         1399 2425
 CLWUWST       4 00000018 FFFFFFEE     A    1200 2288
 DEC           4 00000190 00000001     I    2190 2185B
 DIVCODE       1 00000024 00000001 A   U    2743 2540
 DIVDO         4 00000386 00000001     I    2593 2745B
 DIVIDE        4 00000312 00000001     I    2540 2709
 DQSCAN        1 00000000 00000015     T    3067 3067
 DTB           1 00000000 00000014     T    3065 3065
 EOSCODE       1 00000000 00000001 A   U    2719 1921  2520  3077
 EOSDO         4 00000408 00000001     I    2647 2721B
 ERROR         2 00000422 00000001     H    2658 1918B 1945B 2193B 2516B 2643B 2648B 2713
 ERRORX        2 0000042A 00000001     H    2662 2402B 2637B 2670B 2675B
 EVAL          4 00000014 00000001     I    1804 1802
 EVHEX         4 00000548 00000001     I    2833 2831
 EVKWCB        4 00000054 FFFFFFEC     F    1755 1766  1876  1905  1940  2511
 EVKWKW        8 00000058 FFFFFFEC     C    1757 2052M 2052  2053M 2114M 2114  2115M 2176M 2176  2177M 2375  2482
 EVKWLEN       4 00000060 FFFFFFEC     A    1758 2303  2304M
 EVKWLOC       4 00000064 FFFFFFEC     A    1759 2300  2301M
 EVQMOV        6 0000063A 00000001     I    2995 2992X
 EVQUOT        4 0000061C 00000001     I    2967 2886B 2888B
 EXIT          2 00000418 00000001     I    2653 2665B 2679B
 HEX           4 000001E4 00000001     I    2221 1996B
 HEXER         2 000005FC 00000001     H    2951 2958B 2962B
 HEXEX         2 000005E2 00000001     I    2928 2953B
 HEXLOOP       4 000005A2 00000001     I    2901 2914B
1VEV      (VEV00) (09:46) (22MAR04) Ordinary Symbol and Literal Cross Reference                                             Page   29
 HEXODD        4 000005CC 00000001     I    2916 2904B
 HEXOK         2 000005DE 00000001     I    2924 2902B 2993B
 HIBAL         1 00000000 FFFFFFFF     J     692  708   721   734   747   760   773   786   799   812   825   838   851
                                                  864   877   890   903
 ILLGPR        4 00000440 00000001     I    2673 2616B
 ILLSTR        2 000005EC 00000001     I    2933 2883B 2894B 2969B
 LCB         256 00000000 FFFFFFED     U    1726 2257U
 LCBCORE       4 00000000 FFFFFFED     A    1519 2259
 LCBFL         1 0000007C FFFFFFED     R    1588 1596  1605  1614  1623  1632  1641
 LCBIDRFL      4 00000064 FFFFFFED     R    1525 1526
 LCBMAP        4 00000008 FFFFFFED     A    1521 1650
 LCBMFL        1 000000E2 FFFFFFED     R    1692 1696  1701  1706  1711  1716  1721
 LCBR         11 0000000B 00000001 A   #    1136 2249M 2257U 2374M
 LCBRLD        4 00000098 FFFFFFED     A    1659 1663
 LCBSDEND      4 000000A0 FFFFFFED     A    1666 1670
 LCBSTART      4 00000000 FFFFFFED     F    1518 1724  1726  1726
 LCBXFL        1 00000064 FFFFFFED     R    1529 1537  1546  1555  1564  1573
 LCTR          4 000000A8 00000001     I    1969 2696
 LDFIND        1 00000000 00000017     T    3070 3070
 LOC           2 00000202 00000001     H    2271 2030B 2043B
 LONGSTR       4 00000604 00000001     I    2956 2898B 2982B
 LPAREN        4 00000088 00000001     I    1949 2692
 LPCODE        1 00000006 00000001 A   U    2723 1949
 LPDO          4 000003FC 00000001     I    2641 2725B
 MINUS         4 00000302 00000001     I    2530 2705
 MISSHEX       4 00000610 00000001     I    2960 2884B
 MULCODE       1 0000001E 00000001 A   U    2739 2535
 MULDO         4 00000372 00000001     I    2585 2741B
 NAMENUM       4 000000B4 00000001     I    1975 2698
 NAME1         4 000000D2 00000001     I    1985 1981B
 NAME3         2 000000E0 00000001     H    1989 1984B 1986B
 NEGCODE       1 0000002A 00000001 A   U    2747 1954
 NEGDO         4 000003AC 00000001     I    2607 2749B
 NULL          2 0000044C 00000001     I    2677 1919B
 NUMGO         2 00000196 00000001     I    2192 2208B 2218B 2223B 2297B
 NUMSCAN       4 00000076 00000001     I    1933 2565B 2686
 NUMSTK        4 00000020 FFFFFFEC     F    1752 2200M 2570  2571  2572M 2578  2579  2580M 2586  2587  2588M 2594  2596
                                                 2598M 2602M 2607  2609M 2614  2620M 2625  2626  2649
 NUMTBL        1 00000454 00000001     R    2686 1933
 OPR           6 00000006 00000001 A   #    1071 1920M 1920  2551  2555M 2561M 2562  2564
 OPSCAN        4 000002E0 00000001     I    2504 2201B 2642B
 OPSTK         1 00000048 FFFFFFEC     X    1753 1921M 2551  2564M
 OPTABLE       4 00000494 00000001     F    2717 2552  2553  2556B
 OPTBL         1 00000476 00000001     R    2703 2504
 OVERFLOW      4 00000434 00000001     I    2668 2199B 2563B
 PLUS          4 000002FA 00000001     I    2525 2703
 PRECTEST      2 0000031E 00000001     H    2549 2521B 2526B 2531B 2536B 2541B 2573B 2581B 2589B 2603B 2610B 2621B 2633B
 PTRCODE       1 00000036 00000001 A   U    2755 1964
 PTRDO         4 000003D6 00000001     I    2625 2757B
 PTROP         4 000000A0 00000001     I    1964 2694
 QR            4 00000004 00000001 A   #    1045 1978M 2186  2881M 2900  2941
 QSLP          4 000001D0 00000001     I    2214 2210B 2217B
 QSTR          2 000001B4 00000001     I    2203 1991B 1993B
 RAR           9 00000009 00000001 A   #    1110 1748  1748  1748  1804  2378M 2379M 2379B 2398M 2401M 2630M 2631M 2631B
                                                 2636M 2654M 2661M 2669M 2674M 2833  2929M 2947M 2950M 2957M 2961M 3001
                                                 3018M 3019M 3019B 3022M 3023B 3028  3051M 3052M 3052B 3055M 3056B
 READCORE      1 00000000 00000018     T    3075 3075
 REGCODE       1 00000030 00000001 A   U    2751 1959
 REGDO         4 000003BA 00000001     I    2614 2753B
1VEV      (VEV00) (09:46) (22MAR04) Ordinary Symbol and Literal Cross Reference                                             Page   30
 REGLOC        4 00000220 00000001     I    2299 2154B 2167B
 REGOP         4 00000098 00000001     I    1959 2305B 2690
 RPAREN        4 0000031A 00000001     I    2545 2711
 RPCODE        1 0000000C 00000001 A   U    2727 2545  3076
 RR            5 00000005 00000001 A   #    1058 1922M 2197M 2198  2200  2569M 2570  2571  2572  2577M 2578  2579  2580
                                                 2585M 2586  2587  2588  2593M 2594  2596  2598  2602  2607  2609  2614
                                                 2620  2625  2626  2882M 2901  2912M 2913M 2933  2989M 2990M 2992
 R0            0 00000000 FFFFFFFF A   #     700 1917M 1983M 1988M 2027  2051M 2089  2113M 2151  2175M 2186M 2192M 2192
                                                 2209  2212M 2217M 2291M 2300M 2302M 2303M 2304  2397M 2570M 2571M 2572
                                                 2578M 2579M 2580  2587M 2594M 2595M 2601M 2607M 2608M 2609  2626M 2649M
                                                 2663M 2678M 2720  2724  2728  2882  2893M 2893  2905M 2916M 2925M 2933M
                                                 2979  3034M
 R1            1 00000001 FFFFFFFF A   #     713 1841  1976  2049M 2111M 2173M 2211M 2213M 2216M 2290M 2299M 2301  2302
                                                 2310  2375M 2381M 2381  2383  2392M 2443  2476  2484M 2586M 2588  2602
                                                 2614M 2615  2617M 2618M 2620  2625M 2732  2736  2833  2864  2881  2895M
                                                 2896M 2897  2900M 2929M 2941M 3035M
 R14          14 0000000E FFFFFFFF A   #     882 2194M 2194  2195M 2597M 2597  2598
 R15          15 0000000F FFFFFFFF A   #     895 1969M 1970M 2200  2203M 2203  2214M 2215M 2296M 2383M 2443M 2476  2492M
                                                 2552M 2553  2596M 2599M 2599  2601  2627M 2632  2650M 2664M 2677M 2677
                                                 2678  2910  2921M 2922  2924M 2924  2952M
 SCAN          1 00000000 00000012     T    3060 3060
 SCINIT        1 00000000 00000013     T    3061 3061
 SCTYPE        1 00000000 00000011     T    3059 3059
 SEG           2 00000640 00000001     H    2999 2398B 2947B
 SLOC          2 000001EE 00000001     H    2227 2092B 2105B
 SR            2 00000002 00000001 A   #    1019 1748  1748  1748  1804  1841M 1893  1949M 1954M 1959M 1964M 1976M 1977M
                                                 1979M 2259M 2288M 2296  2309M 2331  2397  2407M 2412M 2456  2520M 2525M
                                                 2530M 2535M 2540M 2545M 2553  2564  2641  2647  2654M 2863M 2897  2899M
                                                 2899  2903M 2925  2979  2988M
 STACKNUM      2 000001A0 00000001     H    2196 1971B 2384B 2493B
 STACKOP       2 00000336 00000001     H    2560 1950B 1955B 1960B 1965B 2554B
 STKSIZE       1 0000000A FFFFFFEC A   U    1750 1752  1753  3066  3072
 SUBCODE       1 00000018 00000001 A   U    2735 2530
 SUBDO         4 0000035E 00000001     I    2577 2737B
 SYM           2 0000023A 00000001     I    2309 2054B 2116B 2178B 2187B
 SYMCLP        2 000002A4 00000001     H    2417 2368B 2380B
 SYMFND        2 00000272 00000001     I    2383 2345B
 SYMMATCH      4 000002D8 00000001     I    2492 2483B
 TIMES         4 0000030A 00000001     I    2535 2707
 TR            3 00000003 00000001 A   #    1032 1858M 1917  1975M 1982M 1987M 2195  2310M 2392  2406M 2411M 2550M 2550
                                                 2551M 2552  2556B 2864M 2911M
 UMINUS        4 00000090 00000001     I    1954 2688
 UNDEF         2 00000278 00000001     I    2392 2382B 2408B 2413B 2428B 2459B 2490B
 VCLP          1 00000000 00000002     T    2778 2778
 VCR           1 00000000 0000000D     T    2811 2811
 VEV           1 00000000 00000001     J     994  996  1027  1040  1053  1066  1079  1092  1105  1118  1131  1144  1157
                                                 1499  1734  1776  1781
 VEV           1 00000000 00000009     T    2799 2799
 VEV#SEG       2 00000658 00000001     H    3026 2401B 2636B 2661B 2669B 2674B 2950B 2957B 2961B
 VEVMORG       1 000006E2 00000001     U    3090 2400  2635  2660  2668  2673  2949  2956  2960  3034  3035
 VEV00         1 00000000 00000001     R    1003 1001
 VFSH          1 00000000 0000000F     T    2817 2817
 VGP           1 00000000 00000006     T    2790 2790
 VLDR          1 00000000 0000000B     T    2805 2805
 VP            1 00000000 00000008     T    2796 2796
 VPM           1 00000000 00000003     T    2781 2781
 VPS           1 00000000 0000000E     T    2814 2814
 VSCN          1 00000000 0000000A     T    2802 2802
 VSD           1 00000000 00000004     T    2784 2784
1VEV      (VEV00) (09:46) (22MAR04) Ordinary Symbol and Literal Cross Reference                                             Page   31
 VSEG          1 00000000 00000019     T    3080 3080
 VSSV          1 00000000 00000010     T    2820 2820
 VSTC          1 00000000 00000005     T    2787 2787
 VSUB          1 00000000 00000007     T    2793 2793
 VUNP          1 00000000 0000000C     T    2808 2808
 WA          116 00000000 FFFFFFEC     J    1775 1768  1789U
 WAR           8 00000008 00000001 A   #    1097 1789U
 WASIZE        1 00000074 FFFFFFEC A   U    1768 1806  2835
 XTB           1 00000000 00000016     T    3069 3069
 =A(BASE)      4 000006CC 00000001     A    3078 2850
 =A(EOSCODE)
               4 000006C8 00000001     A    3077 2647
 =A(RPCODE)
               4 000006C4 00000001     A    3076 2641
 =A(STKSIZE*4)
               4 0000069C 00000001     A    3066 2198
 =A(STKSIZE)
               4 000006B4 00000001     A    3072 2562
 =A(2)         4 00000694 00000001     A    3064 2027  2089  2151
 =A(4)         4 000006A4 00000001     A    3068 2209  2632
 =A(8)         4 000006B0 00000001     A    3071 2456
 =C'$$'        2 000006DA 00000001     C    3082 2102
 =C'$'         1 000006E0 00000001     C    3085 2406
 =C'##'        2 000006D8 00000001     C    3081 2040
 =C'#'         1 000006E1 00000001     C    3086 2411
 =C'@@'        2 000006DC 00000001     C    3083 2164
 =F'-4'        4 0000068C 00000001     F    3062 1922  2664  2952
 =F'1'         4 000006D0 00000001     F    3079 2901
 =F'16'        4 000006BC 00000001     F    3074 2615
 =F'4'         4 000006B8 00000001     F    3073 2569  2577  2585  2593
 =V(DQSCAN)
               4 000006A0 00000001     V    3067 2206  2967
 =V(DTB)       4 00000698 00000001     V    3065 2190
 =V(LDFIND)
               4 000006AC 00000001     V    3070 2378
 =V(READCORE)
               4 000006C0 00000001     V    3075 2630
 =V(SCAN)      4 00000684 00000001     V    3060 1856  1943  2514  2879
 =V(SCINIT)
               4 00000688 00000001     V    3061 1879
 =V(SCTYPE)
               4 00000680 00000001     V    3059 1839  1896  1915
 =V(VSEG)      4 000006D4 00000001     V    3080 3018  3051
 =V(XTB)       4 000006A8 00000001     V    3069 2221  2294  2891  2908  2919
 =X'00100000'
               4 00000690 00000001     X    3063 1982
 =Y(4)         2 000006DE 00000001     Y    3084 3021  3054

1VEV      (VEV00) (09:46) (22MAR04) Macro and Copy Code Source Summary                                                      Page   32
- Con Source                                        Volume    Members                        HLASM R4.0  2004/03/22 09.46
0     PRIMARY INPUT                                           CSECT    DROP     END      EX       LTORG    OP       POP
                                                              PRINT    PUSH     START    USING    VSECT
   L2 WYL.GG.SYS.MACLIB                             SYSB05    $BC      $BFLKUP  $BV      $CCLKUP  $CRS     $CSS     $L
                                                              $LA      $LBLAD   $LEXP    $LOR     $REL     $RGLKUP
                                                              $USLKUP  BASE     BEGIN    CSECT    DECR     DEFCC    DROP
                                                              END      EX       FLAG     HIBAL    IDENT    IF
                                                              LABEL    LC       LS       LTORG    POP      PRINT    PUSH
                                                              RECORD   REG      REGS     SETMSG   START    SYSLR
                                                              SYSQS    USING    VCALL    WHILE
   L3 WYL.GG.ORV.BC.MACLIB                          SYSB02    CLPSERV  CLW      GENMSGS  LCB      ORVDEFN  SCAN
                                                              SCANCB   SCINIT   SCKW     SCTYPE   SEG      VENTER
                                                              VEXIT    VPOP     VPUSH    VREST    VSA      VSAVE    VSEG
                                                              XCALL
   L5 SYS3.IS.MACLIB                                SYSB05    SYSDEFN

1         (VEV00) (09:46) (22MAR04) General Purpose Register Cross Reference                                                Page   33
- Register  References (M=modified, B=branch, U=USING, D=DROP, N=index)                      HLASM R4.0  2004/03/22 09.46
0    0(0)     983U  984D 1858  1917M 1977  1978  1983M 1988M 2027  2051M 2089  2113M 2151  2175M 2186M 2192M 2192  2209
             2211  2212M 2213  2217M 2291M 2300M 2302M 2303M 2304  2309  2343M 2397M 2441M 2570M 2571M 2572  2578M 2579M
             2580  2587M 2594M 2595M 2601M 2607M 2608M 2608  2609  2626M 2649M 2663M 2663  2678M 2863  2882  2893M 2893
             2905M 2916M 2925M 2933M 2979  2988  2989  3033M 3033  3034M
     1(1)     979U 1836M 1841  1846M 1846  1893M 1912M 1933M 1976  2049M 2111M 2173M 2211M 2213M 2216M 2290M 2299M 2301
             2302  2310  2375M 2381M 2381  2383  2392M 2400M 2443  2476  2484M 2504M 2586M 2587M 2588  2595M 2601M 2602
             2614M 2615  2617M 2618M 2618N 2620  2625M 2635M 2660M 2668M 2673M 2833  2864  2869M 2869  2881  2895M 2896M
             2897  2900M 2929M 2941M 2949M 2956M 2960M 3034N 3035M 3035N
     2(2)     975U 1804  1841M 1893  1949M 1954M 1959M 1964M 1976M 1977M 1979M 2259M 2288M 2296  2309M 2331  2397  2407M
             2412M 2456  2520M 2525M 2530M 2535M 2540M 2545M 2553N 2564  2641  2647  2654M 2833  2863M 2897  2899M 2899
             2903M 2925  2929M 2979  2988M
     3(3)     971U 1804  1858M 1917  1975M 1982M 1987M 2195  2310M 2392  2406M 2411M 2550M 2550  2551M 2552N 2556N 2654M
             2833  2864M 2911M 2929M
     4(4)     967U 1804  1978M 2186  2654M 2833  2881M 2900  2929M 2941
     5(5)     963U 1804  1922M 2197M 2198  2200N 2569M 2570N 2571N 2572N 2577M 2578N 2579N 2580N 2585M 2586N 2587N 2588N
             2593M 2594N 2596N 2598N 2602N 2607N 2609N 2614N 2620N 2625N 2626N 2654M 2833  2882M 2901  2912M 2913M 2929M
             2933  2989M 2990M 2992
     6(6)     959U 1804  1920M 1920  2551N 2555M 2561M 2562  2564N 2654M 2833  2929M
     7(7)     955U 1804  1809M 1819U 2654M 2769U 2833  2838M 2848U 2850M 2858U 2861U 2929M
     8(8)     951U 1789U 1804  1805M 2653  2654M 2763U 2833  2834M 2928  2929M
     9(9)     947U 1804  2378M 2379M 2379B 2398M 2401M 2630M 2631M 2631B 2636M 2654M 2656B 2661M 2669M 2674M 2833  2929M
             2931B 2947M 2950M 2957M 2961M 3001  3018M 3019M 3019B 3022M 3023B 3028  3051M 3052M 3052B 3055M 3056B
    10(A)     943U 1798U
    11(B)     939U 2249M 2257U 2265U 2374M
    12(C)     935U
    13(D)     931U 1804  1805  1806M 1806  2653M 2654  2833  2834  2835M 2835  2928M 2929  3001  3002M 3002  3021M 3022
             3028  3029M 3029  3054M 3055
    14(E)     927U 1839M 1840M 1840B 1856M 1857M 1857B 1879M 1880M 1880B 1896M 1897M 1897B 1915M 1916M 1916B 1943M 1944M
             1944B 2190M 2191M 2191B 2194M 2194  2195M 2206M 2207M 2207B 2221M 2222M 2222B 2294M 2295M 2295B 2514M 2515M
             2515B 2597M 2597  2598  2879M 2880M 2880B 2891M 2892M 2892B 2908M 2909M 2909B 2919M 2920M 2920B 2967M 2968M
             2968B
    15(F)     923U 1829M 1853M 1876M 1888M 1905M 1940M 1969M 1970M 2195M 2200  2203M 2203  2214M 2215M 2296M 2331M 2383M
             2443M 2476  2492M 2511M 2552M 2553  2596M 2599M 2599  2601  2627M 2632  2650M 2655M 2655  2664M 2677M 2677
             2678  2876M 2910  2921M 2922  2924M 2924  2930M 2930  2952M

1VEV      (VEV00) (09:46) (22MAR04) Diagnostic Cross Reference and Assembler Summary                                        Page   34
-                                                                                            HLASM R4.0  2004/03/22 09.46
0     No Statements Flagged in this Assembly
 HIGH LEVEL ASSEMBLER, 5696-234, RELEASE 4.0, PTF UQ57391
0SYSTEM: OS/390 02.10.00            JOBNAME: PJG#VEV     STEPNAME: ASM        PROCSTEP: (NOPROC)
0Datasets Allocated for this Assembly
  Con DDname   Dataset Name                                 Volume  Member
   P1 SYSIN    SYS04082.T094643.RA000.PJG#VEV.INPUT.H01     SCR100
   L1 SYSLIB   SYS3.DUMMYMAC                                SYSB02
   L2          WYL.GG.SYS.MACLIB                            SYSB05
   L3          WYL.GG.ORV.BC.MACLIB                         SYSB02
   L4          WYL.GG.ORV.MACLIB                            SYSB02
   L5          SYS3.IS.MACLIB                               SYSB05
      SYSLIN   WYL.GG.PJG.OBJ                               SYSB05  VEV
      SYSPRINT SYS04082.T094643.RA000.PJG#VEV.PRINT.H01     SCR100
      SYSTERM  GG$PJG.PJG#VEV.JOB05977.D0000103.?

    7812K allocated to Buffer Pool,          597K would be required for this to be an In-Storage Assembly
     551 Primary Input Records Read         3144 Library Records Read                  0 Work File Reads
       0 ASMAOPT Records Read               1996 Primary Print Records Written         0 Work File Writes
      52 Punch Records Written                 0 ADATA Records Written
0Assembly Start Time: 09.46.45 Stop Time: 09.46.47 Processor Time: 00.00.00.5833
 Return Code 000
