1                        J E S 2  J O B  L O G  --  S Y S T E M  S Y S B  --  N O D E  R L G
0
 09.45.53 JOB05971 ---- MONDAY,    22 MAR 2004 ----
 09.45.53 JOB05971  ICH70001I GG$PJG   LAST ACCESS AT 09:45:31 ON MONDAY, MARCH 22, 2004
 09.45.53 JOB05971  $HASP373 PJG#VCAT STARTED - INIT 2    - CLASS E - SYS SYSB
 09.45.53 JOB05971  ***  HCMD      STEP $$QUIET
 09.45.53 JOB05971  PURGE * Q=OUTPUT MULTIPLE
 09.45.53 JOB05971  JOB 5936 PJG#VCAT WILL BE PURGED
 09.45.54 JOB05971  PJG#VCAT.$$QUIET .         RC=Zero TapeIO=0000 DiskIO=0000 CPU=  .01s Elapsed=53.65s
 09.45.54 JOB05971  PJG#VCAT.$CND    .         RC=Zero TapeIO=0000 DiskIO=0002 CPU=  .01s Elapsed=54.71s
 09.45.55 JOB05971  PJG#VCAT.$UNP    .         RC=Zero TapeIO=0000 DiskIO=0075 CPU=  .08s Elapsed=54.89s
 09.46.06 JOB05971  PJG#VCAT.ASM     .         RC=Zero TapeIO=0000 DiskIO=0619 CPU= 5.12s Elapsed=55.72s
 09.46.10 JOB05971  PJG#VCAT.$EDIT   .         RC=Zero TapeIO=0000 DiskIO=0340 CPU= 1.34s Elapsed=66.76s
 09.46.10 JOB05971  PJG#VCAT Ended.  Name=Module: VCAT                   Total CPU= 6.56s Elapsed=53.65s
 09.46.10 JOB05971
 09.46.10 JOB05971  Execution charges   Priority=Standard   Block=Day
 09.46.10 JOB05971
 09.46.10 JOB05971  CPU Usage         121.31          $75.21   Standard Processing Unit Equivalent
 09.46.10 JOB05971                                   =======
 09.46.10 JOB05971                                    $75.21   Total Job execution charge
 09.46.10 JOB05971
 09.46.10 JOB05971  See back separator page for print charges
 09.46.10 JOB05971
 09.46.10 JOB05971  $HASP395 PJG#VCAT ENDED  ASM=0
1        1 //PJG#VCAT JOB PJG$GG,'Module: VCAT',TIME=1,MSGCLASS=C                  JOB05971
           /*JOBPARM HOLD=OUTPUT,LINES=50,CHARS=TN15,NOTIFY=YES
         2 //       EXEC PURGEOLD
         3 XXPURGEOLD PROC
           XX*
           XX* This proc is maintained by Jim Stosick
           XX*
         4 XX$$QUIET  EXEC PGM=HCMDX,PARM='PURGE * Q=OUTPUT MULTIPLE',
           XX         ACCT=(PURGEOLD,SYS3)
         5 //$CND   EXEC PGM=BILBO,REGION=512K,PARM='RECS=100'
         6 //STEPLIB  DD DSN=WYL.GG.ORV.LINKLIB,DISP=SHR
         7 //SYSPRINT DD SYSOUT=$
         8 //SYSUT1   DD DSN=WYL.GG.PJG.OBJ,DISP=OLD
         9 //SYSUT2   DD DSN=WYL.GG.PJG.OBJ,DISP=OLD
        10 //SYSIN    DD DUMMY
        11 //$UNP   EXEC PGM=WUNPRESS,PARM='NUM'
        12 //SYSPRINT DD SYSOUT=$
        13 //SYSUT1   DD DSN=WYL.GG.ORV.SOURCE(FILEVCAT),DISP=SHR
        14 //SYSUT2   DD DSN=&&INPUT,DISP=(,PASS),UNIT=SYSDA,
           //            SPACE=(TRK,(25,25),RLSE),DCB=CARD
        15 //ASM    EXEC PGM=ASMA90,REGION=8M,COND=(0,NE,$UNP),
           //            PARM=('SYSPARM(VCAT),TERM,LANG(EN),OBJ',
           //          'LC(32500),XREF(SHORT),NODECK,NORLD,NODX,NOUS')
           //*STEPLIB  DD DSN=SYS1.SASMMOD1,DISP=SHR
        16 //SYSLIB   DD DSN=SYS3.DUMMYMAC,DISP=SHR,DCB=BLKSIZE=27920
        17 //         DD DSN=WYL.GG.SYS.MACLIB,DISP=SHR
        18 //         DD DSN=WYL.GG.ORV.MACLIB.VCATBAT,DISP=SHR
        19 //         DD DSN=WYL.GG.ORV.MACLIB,DISP=SHR
        20 //         DD DSN=WYL.GG.ORV.BC.MACLIB,DISP=SHR
        21 //         DD DSN=SYS3.IS.MACLIB,DISP=SHR
        22 //SYSUT1   DD DSN=&&SYSUT1,UNIT=VIO,DISP=(,DELETE),
           //            SPACE=(4088,(500,250),,CONTIG,ROUND)
        23 //SYSTERM  DD SYSOUT=$
        24 //SYSPRINT DD DSN=&&PRINT,UNIT=SYSDA,DISP=(,PASS),
           //            SPACE=(6650,(250,250),RLSE),
           //            DCB=(BLKSIZE=6650,LRECL=133,RECFM=FB)
        25 //SYSLIN   DD DSN=WYL.GG.PJG.OBJ(VCAT),DISP=OLD
        26 //SYSUDUMP DD SYSOUT=A
        27 //SYSIN    DD DSN=&&INPUT,DISP=(OLD,DELETE)
        28 //$EDIT  EXEC PGM=ASMEDIT,REGION=1M,
           //            COND=EVEN,PARM='STMT,DATA'
        29 //STEPLIB  DD DSN=WYL.GG.SYS.LINKLIB,DISP=SHR
        30 //ASMOUT   DD DSN=&&PRINT,DISP=(OLD,DELETE)
        31 //SYSPRINT DD SYSOUT=A
        32 //SYSUDUMP DD SYSOUT=A
1 STMT NO. MESSAGE
         2 IEFC001I PROCEDURE PURGEOLD WAS EXPANDED USING SYSTEM LIBRARY SYS3.BETAPROC
        14 IGD01010I STORCLAS= TEMP STORGROUP =
        14 IGD01010I STORGRP=VIO ASSIGNED.
        22 IGD01010I STORCLAS= TEMP STORGROUP =
        22 IGD01010I STORGRP=VIO ASSIGNED.
        24 IGD01010I STORCLAS= TEMP STORGROUP =
        24 IGD01010I STORGRP=VIO ASSIGNED.
 ICH70001I GG$PJG   LAST ACCESS AT 09:45:31 ON MONDAY, MARCH 22, 2004
 IEF142I PJG#VCAT $$QUIET - STEP WAS EXECUTED - COND CODE 0000
 *********************************************************************************
 *   PJG#VCAT/$$QUIET /                    Return Code      Zero                 *
 *   Region used      260K (16K user + 244K system)                              *
 *   Extended region  9352K (4K user + 9348K system)                             *
 *                                                                               *
 *   Paging              In      Out                                             *
 *   Private <-> Aux      0        0       CPU time (TCB)   00:00:00.01          *
 *   Private <-> Exp      0        0       CPU time (SRB)   00:00:00.00          *
 *   VIO                  0        0       Elapsed time    920:41:59.31          *
 *   Common               0      ---                                             *
 *                                                                               *
 *                                                                               *
 *   CPU Usage          0.18         $0.11  Standard Processing Unit Equivalent  *
 *                                   $0.11  Total Step execution charge          *
 *                                                                               *
 *    I/O count  DDname   Type Addr           I/O count  DDname   Type Addr      *
 *                         *** No I/O for this step ***                          *
 *********************************************************************************
 IEF373I STEP/$$QUIET /START 2004082.0945
 IEF374I STEP/$$QUIET /STOP  2004082.0945 CPU    0MIN 00.01SEC SRB    0MIN 00.00SEC VIRT    16K SYS   244K EXT       4K SYS    9348K
 IEF236I ALLOC. FOR PJG#VCAT $CND
 IEF237I 0401 ALLOCATED TO STEPLIB
 IEF237I JES2 ALLOCATED TO SYSPRINT
 IEF237I 04DC ALLOCATED TO SYSUT1
 IEF237I 04DC ALLOCATED TO SYSUT2
 IEF237I DMY  ALLOCATED TO SYSIN
 IEF142I PJG#VCAT $CND - STEP WAS EXECUTED - COND CODE 0000
 IEF285I   WYL.GG.ORV.LINKLIB                           KEPT
 IEF285I   VOL SER NOS= SYSB01.
 IEF285I   GG$PJG.PJG#VCAT.JOB05971.D0000101.?          SYSOUT
 IEF285I   WYL.GG.PJG.OBJ                               KEPT
 IEF285I   VOL SER NOS= SYSB05.
 IEF285I   WYL.GG.PJG.OBJ                               KEPT
 IEF285I   VOL SER NOS= SYSB05.
 *********************************************************************************
 *   PJG#VCAT/$CND    /                    Return Code      Zero                 *
 *   Region used      280K (16K user + 264K system)                              *
 *   Extended region  9392K (4K user + 9388K system)                             *
 *                                                                               *
 *   Paging              In      Out                                             *
 *   Private <-> Aux      0        0       CPU time (TCB)   00:00:00.01          *
 *   Private <-> Exp      0        0       CPU time (SRB)   00:00:00.00          *
 *   VIO                  0        0       Elapsed time    920:41:58.25          *
 *   Common               0      ---                                             *
 *                                                                               *
 *                                                                               *
 *   CPU Usage          0.18         $0.11  Standard Processing Unit Equivalent  *
 *                                   $0.11  Total Step execution charge          *
 *                                                                               *
 *    I/O count  DDname   Type Addr           I/O count  DDname   Type Addr      *
 *            2  STEPLIB  Disk 0401                   0  SYSPRINT      ----      *
 *            0  SYSUT1   Disk 04DC                   0  SYSUT2   Disk 04DC      *
 *            0  SYSIN         ----                                              *
 *********************************************************************************
 IEF373I STEP/$CND    /START 2004082.0945
 IEF374I STEP/$CND    /STOP  2004082.0945 CPU    0MIN 00.01SEC SRB    0MIN 00.00SEC VIRT    16K SYS   264K EXT       4K SYS    9388K
 IEF236I ALLOC. FOR PJG#VCAT $UNP
 IEF237I JES2 ALLOCATED TO SYSPRINT
 IEF237I 0402 ALLOCATED TO SYSUT1
 IGD101I SMS ALLOCATED TO DDNAME (SYSUT2  )
         DSN (SYS04082.T094553.RA000.PJG#VCAT.INPUT.H01   )
         STORCLAS (TEMP) MGMTCLAS (        ) DATACLAS (        )
         VOL SER NOS= SCR100
 IEF142I PJG#VCAT $UNP - STEP WAS EXECUTED - COND CODE 0000
 IEF285I   GG$PJG.PJG#VCAT.JOB05971.D0000102.?          SYSOUT
 IEF285I   WYL.GG.ORV.SOURCE                            KEPT
 IEF285I   VOL SER NOS= SYSB02.
 IGD106I SYS04082.T094553.RA000.PJG#VCAT.INPUT.H01    PASSED,    DDNAME=SYSUT2
 *********************************************************************************
 *   PJG#VCAT/$UNP    /                    Return Code      Zero                 *
 *   Region used      388K (108K user + 280K system)                             *
 *   Extended region  9468K (4K user + 9464K system)                             *
 *                                                                               *
 *   Paging              In      Out                                             *
 *   Private <-> Aux      0        0       CPU time (TCB)   00:00:00.08          *
 *   Private <-> Exp      0        0       CPU time (SRB)   00:00:00.00          *
 *   VIO                  0        0       Elapsed time    920:41:58.07          *
 *   Common               0      ---                                             *
 *                                                                               *
 *                                                                               *
 *   CPU Usage          1.50         $0.93  Standard Processing Unit Equivalent  *
 *                                   $0.93  Total Step execution charge          *
 *                                                                               *
 *    I/O count  DDname   Type Addr           I/O count  DDname   Type Addr      *
 *            0  SYSPRINT      ----                   9  SYSUT1   Disk 0402      *
 *           66  SYSUT2   Disk 038B                                              *
 *********************************************************************************
 IEF373I STEP/$UNP    /START 2004082.0945
 IEF374I STEP/$UNP    /STOP  2004082.0945 CPU    0MIN 00.08SEC SRB    0MIN 00.00SEC VIRT   108K SYS   280K EXT       4K SYS    9464K
 IEF236I ALLOC. FOR PJG#VCAT ASM
 IEF237I 0402 ALLOCATED TO SYSLIB
 IEF237I 04DC ALLOCATED TO
 IEF237I 0402 ALLOCATED TO
 IEF237I 0402 ALLOCATED TO
 IEF237I 0402 ALLOCATED TO
 IEF237I 04DC ALLOCATED TO
 IGD101I SMS ALLOCATED TO DDNAME (SYSUT1  )
         DSN (SYS04082.T094553.RA000.PJG#VCAT.SYSUT1.H01  )
         STORCLAS (TEMP) MGMTCLAS (        ) DATACLAS (        )
         VOL SER NOS= VIO
 IEF237I JES2 ALLOCATED TO SYSTERM
 IGD101I SMS ALLOCATED TO DDNAME (SYSPRINT)
         DSN (SYS04082.T094553.RA000.PJG#VCAT.PRINT.H01   )
         STORCLAS (TEMP) MGMTCLAS (        ) DATACLAS (        )
         VOL SER NOS= SCR100
 IEF237I 04DC ALLOCATED TO SYSLIN
 IEF237I JES2 ALLOCATED TO SYSUDUMP
 IGD103I SMS ALLOCATED TO DDNAME SYSIN
 IEF142I PJG#VCAT ASM - STEP WAS EXECUTED - COND CODE 0000
 IEF285I   SYS3.DUMMYMAC                                KEPT
 IEF285I   VOL SER NOS= SYSB02.
 IEF285I   WYL.GG.SYS.MACLIB                            KEPT
 IEF285I   VOL SER NOS= SYSB05.
 IEF285I   WYL.GG.ORV.MACLIB.VCATBAT                    KEPT
 IEF285I   VOL SER NOS= SYSB02.
 IEF285I   WYL.GG.ORV.MACLIB                            KEPT
 IEF285I   VOL SER NOS= SYSB02.
 IEF285I   WYL.GG.ORV.BC.MACLIB                         KEPT
 IEF285I   VOL SER NOS= SYSB02.
 IEF285I   SYS3.IS.MACLIB                               KEPT
 IEF285I   VOL SER NOS= SYSB05.
 IGD105I SYS04082.T094553.RA000.PJG#VCAT.SYSUT1.H01   DELETED,   DDNAME=SYSUT1
 IEF285I   GG$PJG.PJG#VCAT.JOB05971.D0000103.?          SYSOUT
 IGD106I SYS04082.T094553.RA000.PJG#VCAT.PRINT.H01    PASSED,    DDNAME=SYSPRINT
 IEF285I   WYL.GG.PJG.OBJ                               KEPT
 IEF285I   VOL SER NOS= SYSB05.
 IEF285I   GG$PJG.PJG#VCAT.JOB05971.D0000104.?          SYSOUT
 IGD105I SYS04082.T094553.RA000.PJG#VCAT.INPUT.H01    DELETED,   DDNAME=SYSIN
 *********************************************************************************
 *   PJG#VCAT/ASM     /                    Return Code      Zero                 *
 *   Region used      8484K (8192K user + 292K system)                           *
 *   Extended region  9952K (412K user + 9540K system)                           *
 *                                                                               *
 *   Paging              In      Out                                             *
 *   Private <-> Aux      0        0       CPU time (TCB)   00:00:05.07          *
 *   Private <-> Exp      0        0       CPU time (SRB)   00:00:00.05          *
 *   VIO                  0        0       Elapsed time    920:41:57.24          *
 *   Common               0      ---                                             *
 *                                                                               *
 *                                                                               *
 *   CPU Usage         95.06        $58.93  Standard Processing Unit Equivalent  *
 *                                  $58.93  Total Step execution charge          *
 *                                                                               *
 *    I/O count  DDname   Type Addr           I/O count  DDname   Type Addr      *
 *           53  SYSLIB   Disk 0402                 148  SYSLIB   Disk 04DC      *
 *            0  SYSLIB   Disk 0402                   0  SYSLIB   Disk 0402      *
 *            0  SYSLIB   Disk 0402                   0  SYSLIB   Disk 04DC      *
 *            0  SYSUT1   VIO  ----                   0  SYSTERM       ----      *
 *          337  SYSPRINT Disk 038B                  14  SYSLIN   Disk 04DC      *
 *            0  SYSUDUMP      ----                  67  SYSIN    Disk 038B      *
 *********************************************************************************
 IEF373I STEP/ASM     /START 2004082.0945
 IEF374I STEP/ASM     /STOP  2004082.0946 CPU    0MIN 05.07SEC SRB    0MIN 00.05SEC VIRT  8192K SYS   292K EXT     412K SYS    9540K
 IEF236I ALLOC. FOR PJG#VCAT $EDIT
 IEF237I 0402 ALLOCATED TO STEPLIB
 IGD103I SMS ALLOCATED TO DDNAME ASMOUT
 IEF237I JES2 ALLOCATED TO SYSPRINT
 IEF237I JES2 ALLOCATED TO SYSUDUMP
 IEF142I PJG#VCAT $EDIT - STEP WAS EXECUTED - COND CODE 0000
 IEF285I   WYL.GG.SYS.LINKLIB                           KEPT
 IEF285I   VOL SER NOS= SYSB02.
 IGD105I SYS04082.T094553.RA000.PJG#VCAT.PRINT.H01    DELETED,   DDNAME=ASMOUT
 IEF285I   GG$PJG.PJG#VCAT.JOB05971.D0000105.?          SYSOUT
 IEF285I   GG$PJG.PJG#VCAT.JOB05971.D0000106.?          SYSOUT
 *********************************************************************************
 *   PJG#VCAT/$EDIT   /                    Return Code      Zero                 *
 *   Region used      388K (116K user + 272K system)                             *
 *   Extended region  9488K (4K user + 9484K system)                             *
 *                                                                               *
 *   Paging              In      Out                                             *
 *   Private <-> Aux      0        0       CPU time (TCB)   00:00:01.30          *
 *   Private <-> Exp      0        0       CPU time (SRB)   00:00:00.04          *
 *   VIO                  0        0       Elapsed time    920:41:46.20          *
 *   Common               0      ---                                             *
 *                                                                               *
 *                                                                               *
 *   CPU Usage         24.37        $15.10  Standard Processing Unit Equivalent  *
 *                                  $15.10  Total Step execution charge          *
 *                                                                               *
 *    I/O count  DDname   Type Addr           I/O count  DDname   Type Addr      *
 *            2  STEPLIB  Disk 0402                 338  ASMOUT   Disk 038B      *
 *            0  SYSPRINT      ----                   0  SYSUDUMP      ----      *
 *********************************************************************************
 IEF373I STEP/$EDIT   /START 2004082.0946
 IEF374I STEP/$EDIT   /STOP  2004082.0946 CPU    0MIN 01.30SEC SRB    0MIN 00.04SEC VIRT   116K SYS   272K EXT       4K SYS    9484K
 *********************************************************************************
 *                                                                               *
 *                      S t a n f o r d   U n i v e r s i t y                    *
 *                                                                               *
 *                              *** Job Summary ***                              *
 *                                                                               *
 *   System Id      SYSB                   Input time     09:38:31  Mar 22, 2004 *
 *                                                                               *
 *   System Release SP6.1.0                Start time     09:45:53  Mar 22, 2004 *
 *                                                                               *
 *   Job name       PJG#VCAT               Stop  time     00:00:00  Mar 22, 2004 *
 *                                                                               *
 *   Account        PJG$GG                 Elapsed time  920:41:59.31            *
 *                                                                               *
 *   User Name      Module: VCAT           CPU time       00:00:06.47            *
 *                                                                               *
 *   Job class      E                      SRB Time       00:00:00.09            *
 *                                                                               *
 *********************************************************************************
 IEF375I  JOB/PJG#VCAT/START 2004082.0945
 IEF376I  JOB/PJG#VCAT/STOP  2004082.0946 CPU    0MIN 06.47SEC SRB    0MIN 00.09SEC
1Data set successfully converted from EDIT to FB format
1Assembler Done FILEVCAT No Statements Flagged
1         High Level Assembler Option Summary                   (PTF UQ57391)                                               Page    1
-                                                                                            HLASM R4.0  2004/03/22 09.45
0  No Overriding ASMAOPT Parameters
   Overriding Parameters-  SYSPARM(VCAT),TERM,LANG(EN),OBJ,LC(32500),XREF(SHORT),NODECK,NORLD,NODX,NOUS
   No Process Statements


   Options for this Assembly
0  NOADATA
     ALIGN
   NOASA
     BATCH
     CODEPAGE(047C)
   NOCOMPAT
   NODBCS
 3 NODECK
 3 NODXREF
     ESD
   NOEXIT
     FLAG(0,ALIGN,CONT,NOIMPLEN,NOPAGE0,PUSH,RECORD,NOSUBSTR,USING0)
   NOFOLD
   NOGOFF
   NOINFO
 3   LANGUAGE(EN)
   NOLIBMAC
 3   LINECOUNT(32500)
     LIST(121)
     MXREF(SOURCE)
 3   OBJECT
     OPTABLE(UNI,NOLIST)
   NOPCONTROL
   NOPESTOP
   NOPROFILE
   NORA2
   NORENT
 3 NORLD
     RXREF
     SIZE(MAX)
 3   SYSPARM(VCAT)
 3   TERM(WIDE)
   NOTEST
     THREAD
   NOTRANSLATE
 3 NOUSING
 3   XREF(SHORT)

   No Overriding DD Names

1FILEVCAT External Symbol Dictionary                                                                                        Page    2
-Symbol   Type   Id     Address  Length     LD ID  Flags Alias-of                            HLASM R4.0  2004/03/22 09.45
0FILEVCAT  SD 00000001 00000000 000046CB             06
 FILEVC    LD          00000000           00000001
 VCATENT   LD          00000016           00000001
 VCATCOM   LD          00000030           00000001
 DREAD     LD          00000062           00000001
 DWRITE    LD          00000166           00000001
 DRELBUF   LD          00000266           00000001
 NILBUF    LD          000002A0           00000001
 VKAPUT    ER 00000002
 SETREAD1  ER 00000003
 SETWRIT1  ER 00000004
 FMTDATE   ER 00000005
 DSKINIT   LD          00003798           00000001

1FILEVCAT Orvyl File Catalog Routines                                                                                       Page    3
0Loc    Object Code    Addr1 Addr2  Stmt Lv Lineno    Source Statement                    (Asmedit 3.3)  HLASM R4.0  2004/03/22 09.45
+___    ______ ____    _____ _____  ____ __ ______    ______ _________
0                                      2       2.              COPY  VCATNOTE
                                       3             =*
                                       4             =* VCAT - offline VBLD assembly
                                       5             =*
                                       6             =* This assembly of FILEVCAT is for linking to the offline progarm
                                       7             =* VBLD which is used in the file system verify process. It produces
                                       8             =* an object module with the name VCAT.
                                       9             =*
                                      10       3.     *
                                      11       4.     * This module is the old VCAT module from the last version of ORVYL
                                      12       5.     * which included the file system rewrite. It is the only module
                                      13       6.     * remaining as all the others were rewritten. FILECAT is a layer
                                      14       7.     * above this module to act as an interface from the file system
                                      15       8.     * rewrite to this catalog handling module. This module has only
                                      16       9.     * a couple of minor changes from VCAT.
                                      17      10.     *
                                      18      11.     *******************************************************************
                                      19      12.     *                                                                 *
                                      20      13.     *     ORVYL/370 - Release IV - Class I - Stanford Proprietary     *
                                      21      14.     *                                                                 *
                                      22      15.     *******************************************************************
-                                     24      17.              HIBAL ,
-000000                00000 046CB  1006      19.     FILEVCAT MODULE TRCNUM=12,ID=VC
                                    1016             +*
                                    1017    02-IDENT +         ENTRY FILEVC
                                    1018             +
 000000 14C6C9D3C5E5C36B            1019    02-IDENT +FILEVC   DC    AL1(20),C'FILEVC,22MAR04,09:45'
                                    1020             +*
-                                   1023      21.              GBLB  &DEBUG,&CHKOFF,&NOBACK
                                    1024      22.     &DEBUG   SETB  1                       THIS IS THE DEBUG PASS
                                    1025      23.     &CHKOFF  SETB  0                       DO EXTRA CHECKS FOR NOW...
                                    1026      24.     &NOBACK  SETB  0                       DO BACKUP I/O FOR NOW...
1FILEVCAT (FILEVC) (09:45) (22MAR04) Definitions                                                                            Page    4
0Loc    Object Code    Addr1 Addr2  Stmt Lv Lineno    Source Statement           (Hibal 5, Asmedit 3.3)  HLASM R4.0  2004/03/22 09.45
+___    ______ ____    _____ _____  ____ __ ______    ______ _________
0                                   1028      26.              REGS  ,,SR,TR,QR,RQBR,FBR,BR,WAR,RAR,FSBR,SCBR,CTR,WR
                                    1191      27.     *********************************************************************
                                    1192      28.     * VFIL regs statement                                               *
                                    1193      29.     *********************************************************************
-                                   1195      31.              REGS  MIX,IX,,NOD,,,,,CHKR,,,,,,CNT,PTR
                                    1280      32.     *********************************************************************
                                    1281      33.     * DSK POINTS TO THE START OF THE DISK BLOCK IN MEMORY               *
                                    1282      34.     * NOD POINTS TO THE CURRENT NODE                                    *
                                    1283      35.     * IX IS AN INDEX REGISTER                                           *
                                    1284      36.     *********************************************************************
-                                   1286      38.              REGS  ,,DSK,LAS,CUR,,,,,,,,,,NEW,SIZ
                                    1358      39.     *********************************************************************
                                    1359      40.     *                    Disk management regs                           *
                                    1360      41.     * DSK Provides addressability to the disk block DSECT               *
                                    1361      42.     * LAS IS A POINTER TO THE LAST (PREVIOUS) MEMORY BLOCK              *
                                    1362      43.     * CUR IS A POINTER TO THE CURRENT MEMORY BLOCK                      *
                                    1363      44.     * NEW IS A POINTER TO THE NEW MEMORY BLOCK                          *
                                    1364      45.     * SIZ IS THE SIZE OF THE CURRENT BLOCK                              *
                                    1365      46.     *********************************************************************
-                                   1367      48.     *        PRINT OFF                     VCAT MACROS
                                    1368      49.              MACRO ,                        DIRSAV
                                    1369      50.     .********************************************************************
                                    1370      51.     .*   Save (noncontiguous) registers in the RQBL stack.
                                    1371      52.     .* BR    When optionally specified, indicates that this register
                                    1372      53.     .*       is also to be used as a base register.  If the register
                                    1373      54.     .*       is to be saved, it must be in the SYSLIST as well.
                                    1374      55.     .* ENTRY When optionally specified as YES, then &L is set as an
                                    1375      56.     .*       entry point.
                                    1376      57.     .********************************************************************
                                    1377      58.     &L       DIRSAV &BR=NO,&ENTRY=NO
                                    1378      59.              GBLB  &SIMUL
                                    1379      60.     &N       SETA  1
                                    1380      61.     &NILCNT  SETA  0
                                    1381      62.     &NUM     SETA  N'&SYSLIST
                                    1382      63.              AIF   ('&ENTRY' EQ 'NO').NOENT
                                    1383      64.              ENTRY &L
                                    1384      65.     .NOENT   ANOP
                                    1385      66.     &L       LABEL ,
                                    1386      67.     .LOOP    ANOP                           Save loop
                                    1387      68.              AIF   ('&SYSLIST(&N)' EQ '').NILPARM
                                    1388      69.              ST    &SYSLIST(&N),(4*(&N-&NILCNT-1))(,WR)
                                    1389      70.              AGO   .NONILPA
                                    1390      71.     .NILPARM ANOP
                                    1391      72.     &NILCNT  SETA  &NILCNT+1
                                    1392      73.     .NONILPA ANOP
                                    1393      74.              AIF   (&N GE N'&SYSLIST).INCR
                                    1394      75.     &N       SETA  &N+1
                                    1395      76.              AGO   .LOOP
                                    1396      77.     .INCR    ANOP
                                    1397      78.              LA    WR,((&NUM-&NILCNT)*4)(,WR)
1FILEVCAT (FILEVC) (09:45) (22MAR04) Definitions                                                                            Page    5
0Loc    Object Code    Addr1 Addr2  Stmt Lv Lineno    Source Statement           (Hibal 5, Asmedit 3.3)  HLASM R4.0  2004/03/22 09.45
+___    ______ ____    _____ _____  ____ __ ______    ______ _________
0                                   1398      79.              AIF   ('&BR' EQ 'NO').NOBASR
                                    1399      80.              BASE  &BR
                                    1400      81.     .NOBASR  ANOP
                                    1401      82.              MEND
                                    1402      83.              MACRO ,                        DIREST
                                    1403      84.     .********************************************************************
                                    1404      85.     .*   Restore registers (noncontiguous) from RQBL stack.
                                    1405      86.     .* ADDR  YES = addressability is available to use an ADCON
                                    1406      87.     .*       NO    no addressability for example, loading the
                                    1407      88.     .*             base register
                                    1408      89.     .* REST  Actually restore registers?  If set to NO, then the stack
                                    1409      90.     .*       pointer is decremented, but the specified registers
                                    1410      91.     .*       aren't restored.
                                    1411      92.     .********************************************************************
                                    1412      93.     &L       DIREST &ADDR=YES,&REST=YES
                                    1413      94.     &N       SETA  1
                                    1414      95.     &NUM     SETA  N'&SYSLIST
                                    1415      96.     &L       LABEL ,
                                    1416      97.              AIF   ('&ADDR' NE 'YES').NOADDR
                                    1417      98.              SH    WR,=Y(&NUM*4)
                                    1418      99.              AGO   .ADDR
                                    1419     100.     .NOADDR  ANOP  ,
                                    1420     101.              LA    &SYSLIST(1),&NUM*4
                                    1421     102.              SR    WR,&SYSLIST(1)
                                    1422     103.     .ADDR    ANOP  ,
                                    1423     104.              AIF   ('&REST' EQ 'NO').DECR
                                    1424     105.     .LOOP    ANOP
                                    1425     106.              L     &SYSLIST(&N),(4*(&N-1))(,WR)
                                    1426     107.              AIF   (&N GE N'&SYSLIST).DECR
                                    1427     108.     &N       SETA  &N+1
                                    1428     109.              AGO   .LOOP
                                    1429     110.     .DECR    ANOP
                                    1430     111.              MEND
                                    1431     112.              MACRO ,                        DIRENT
                                    1432     113.     .********************************************************************
                                    1433     114.     .*   Register save macro, which automatically uses the first
                                    1434     115.     .* register of the SYSLIST as a base register, and only saves
                                    1435     116.     .* 2 registers.
                                    1436     117.     .* ENTRY When optionally specified, sets up &L as an entry point.
                                    1437     118.     .********************************************************************
                                    1438     119.     &L       DIRENT &ENTRY=NO
                                    1439     120.     &L       DIRSAV &SYSLIST(1),&SYSLIST(2),BR=&SYSLIST(1),ENTRY=&ENTRY
                                    1440     121.              MEND
                                    1441     122.              MACRO ,                       DREAD
                                    1442     123.     .********************************************************************
                                    1443     124.     .*   Read a catalog block.
                                    1444     125.     .* BLK   Relative block number to read.
                                    1445     126.     .* LOCK  Whether or not the block is to be locked in core.
                                    1446     127.     .* PTR   The suffix of Checkpoint block pointer slots which will be
                                    1447     128.     .*       filled if this parm is specified.
                                    1448     129.     .* TAG   The suffix of Checkpoint tag slot for this block.
                                    1449     130.     .* ERR   Branch location on error.
                                    1450     131.     .********************************************************************
                                    1451     132.     &L       DREAD &BLK,&LOCK=NO,&PTR=NO,&TAG=NO,&ERR=
                                    1452     133.     &L       BLKL  R0,&BLK                 LOAD BLOCK NUMBER
                                    1453     134.              AIF   ('&LOCK' NE 'YES').NOLOCK
1FILEVCAT (FILEVC) (09:45) (22MAR04) Definitions                                                                            Page    6
0Loc    Object Code    Addr1 Addr2  Stmt Lv Lineno    Source Statement           (Hibal 5, Asmedit 3.3)  HLASM R4.0  2004/03/22 09.45
+___    ______ ____    _____ _____  ____ __ ______    ______ _________
0                                   1454     135.              LA    R15,1                   INDICATE READ-RESERVE
                                    1455     136.              AGO   .RES
                                    1456     137.     .NOLOCK  ANOP
                                    1457     138.              CLEAR R15                     INDICATE READ-NO_RESERVE
                                    1458     139.     .RES     ANOP
                                    1459     140.              LCALL DREAD
                                    1460     141.     .*                                      No error returns now
                                    1461     142.     *        IF     NZ,&ERR
                                    1462     143.              AIF   ('&PTR' EQ 'NO').NOPTR
                                    1463     144.     &POINT   SETC  'CHK&PTR.A'
                                    1464     145.              ST    DSK,&POINT
                                    1465     146.     .NOPTR   ANOP  ,
                                    1466     147.              AIF   ('&TAG' EQ 'NO').NOTAG
                                    1467     148.              MVC   CHKI&TAG,DSKTAG
                                    1468     149.     .NOTAG   ANOP  ,
                                    1469     150.              MEND
-                                   1471     152.              MACRO ,                       DWRITE
                                    1472     153.     .********************************************************************
                                    1473     154.     .*   Write a catalog block.
                                    1474     155.     .* BLK   Relative block number to read.
                                    1475     156.     .* REL   Whether or not the block buffer is to be released after
                                    1476     157.     .*       writing.
                                    1477     158.     .* ERR   Branch location on error.
                                    1478     159.     .********************************************************************
                                    1479     160.     &L       DWRITE &BLK,&REL=YES,&ERR=
                                    1480     161.     &L       BLKL  R0,&BLK                 LOAD BLOCK NUMBER
                                    1481     162.              AIF   ('&REL' NE 'YES').NOREL
                                    1482     163.              CLEAR R15                     INDICATE WRITE-RELEASE
                                    1483     164.              AGO   .REL
                                    1484     165.     .NOREL   ANOP
                                    1485     166.              LA    R15,1                   INDICATE WRITE-NO_RELEASE
                                    1486     167.     .REL     ANOP
                                    1487     168.              LCALL DWRITE
                                    1488     169.     .*                                      No error returns now
                                    1489     170.     *        IF     NZ,&ERR
                                    1490     171.              MEND
-                                   1492     173.              MACRO ,                       DDREAD
                                    1493     174.     .********************************************************************
                                    1494     175.     .*   Read a catalog double write block.
                                    1495     176.     .* DBLK  Double write block number (1..3)
                                    1496     177.     .* BLK   Catalog block num in the double write block.
                                    1497     178.     .* ERR   Branch location on error.
                                    1498     179.     .********************************************************************
                                    1499     180.     &L       DDREAD &DBLK,&BLK,&ERR=
                                    1500     181.     &L       BLKL  R0,&BLK                 LOAD BLOCK NUMBER
                                    1501     182.             $LA    R15,&DBLK               DOUBLE BLOCK NUMBER
                                    1502     183.              LCALL DDREAD
                                    1503     184.     .*                                      No error returns now
                                    1504     185.     *        IF     NZ,&ERR
                                    1505     186.              MEND
1FILEVCAT (FILEVC) (09:45) (22MAR04) Definitions                                                                            Page    7
0Loc    Object Code    Addr1 Addr2  Stmt Lv Lineno    Source Statement           (Hibal 5, Asmedit 3.3)  HLASM R4.0  2004/03/22 09.45
+___    ______ ____    _____ _____  ____ __ ______    ______ _________
0                                   1507     188.              MACRO ,                       DDWRITE
                                    1508     189.     .********************************************************************
                                    1509     190.     .*   Write a catalog double write block.
                                    1510     191.     .* DBLK  Double write block number (1..3)
                                    1511     192.     .* BLK   Catalog block num to be written in the double write block.
                                    1512     193.     .* ERR   Branch location on error.
                                    1513     194.     .********************************************************************
                                    1514     195.     &L       DDWRITE &DBLK,&BLK,&ERR=
                                    1515     196.     &L       BLKL  R0,&BLK                 LOAD BLOCK NUMBER
                                    1516     197.             $LA    R15,&DBLK
                                    1517     198.              LCALL DDWRITE
                                    1518     199.     .*                                      No error returns now
                                    1519     200.     *        IF    NZ,&ERR
                                    1520     201.              MEND
-                                   1522     203.              MACRO ,                       IWRITE
                                    1523     204.     &L       IWRITE &ERR=                  WRITE INTENTIONS BLOCK
                                    1524     205.     .********************************************************************
                                    1525     206.     .*   Write catalog chepoint (intentions) block.
                                    1526     207.     .* ERR   Branch location on error.
                                    1527     208.     .********************************************************************
                                    1528     209.     &L       LABEL ,
                                    1529     210.              LCALL IWRITE
                                    1530     211.     *        IF    NZ,&ERR
                                    1531     212.              MEND
-                                   1533     214.              MACRO ,                       DRELBUF
                                    1534     215.     .********************************************************************
                                    1535     216.     .*   Release catalog block.
                                    1536     217.     .* BLK   Catalog block num to be released.
                                    1537     218.     .* ERR   Branch location on error.
                                    1538     219.     .********************************************************************
                                    1539     220.     &L       DRELBUF &BLK,&ERR=            UNLOCK A BLOCK BUFFER
                                    1540     221.     &L       BLKL  R0,&BLK                 LOAD BLOCK NUMBER
                                    1541     222.              LCALL DRELBUF
                                    1542     223.     *        IF     NZ,&ERR
                                    1543     224.              MEND
-                                   1545     226.              MACRO ,                       DLOKBUF
                                    1546     227.     .********************************************************************
                                    1547     228.     .*   Lock a catalog block in core.
                                    1548     229.     .* BLK   Catalog block num to be locked.
                                    1549     230.     .* TAG   The suffix of Checkpoint tag slot for this block.
                                    1550     231.     .* ERR   Branch location on error.
                                    1551     232.     .********************************************************************
                                    1552     233.     &L       DLOKBUF &BLK,&TAG=NO,&ERR=    LOCK A BLOCK BUFFER
                                    1553     234.     &L       BLKL  R0,&BLK                 LOAD BLOCK NUMBER
                                    1554     235.              LCALL DLOKBUF
                                    1555     236.     *        IF     NZ,&ERR
                                    1556     237.              AIF   ('&TAG' EQ 'NO').NOTAG
                                    1557     238.              MVC   CHKI&TAG,DSKTAG
                                    1558     239.     .NOTAG   ANOP  ,
                                    1559     240.              MEND
1FILEVCAT (FILEVC) (09:45) (22MAR04) Definitions                                                                            Page    8
0Loc    Object Code    Addr1 Addr2  Stmt Lv Lineno    Source Statement           (Hibal 5, Asmedit 3.3)  HLASM R4.0  2004/03/22 09.45
+___    ______ ____    _____ _____  ____ __ ______    ______ _________
0                                   1561     242.              MACRO ,                       LKINCORE
                                    1562     243.     .********************************************************************
                                    1563     244.     .*   -- LOW LEVEL CATALOG BUFFER MANAGEMENT --
                                    1564     245.     .*   Look for a block in Catalog buffer core.
                                    1565     246.     .* BLK   Catalog block number to look for.
                                    1566     247.     .* CUR   Register which will point to current slot in buffer table.
                                    1567     248.     .* LAS   Register which will point to last slot in buffer table.
                                    1568     249.     .********************************************************************
                                    1569     250.     &L       LKINCORE &BLK,&CUR=R4,&LAS=R3
                                    1570     251.     &L       BLKL  R0,&BLK                 LOAD BLOCK NUMBER
                                    1571     252.              LCALL LKINCORE
                                    1572     253.             $L     &CUR,(R4)               R4 POINTS TO CUR
                                    1573     254.             $L     &LAS,(R3)               R3 POINTS TO LAST SLOT
                                    1574     255.              MEND
-                                   1576     257.              MACRO ,                       LRUBUF
                                    1577     258.     .********************************************************************
                                    1578     259.     .*   -- LOW LEVEL CATALOG BUFFER MANAGEMENT --
                                    1579     260.     .*   Mark current Catalog block as Least Recently Used (LRU)
                                    1580     261.     .* CUR   Current slot in buffer table.
                                    1581     262.     .* LAS   Last slot in buffer table.
                                    1582     263.     .********************************************************************
                                    1583     264.     &L       LRUBUF &CUR,&LAS
                                    1584     265.     &L       LABEL ,
                                    1585     266.             $L     R4,&CUR                 R4 SHOULD POINT TO CUR
                                    1586     267.             $L     R3,&LAS                 R3 SHOULD POINT TO LAST SLOT
                                    1587     268.              LCALL LRUBUF
                                    1588     269.              MEND
-                                   1590     271.              MACRO ,                       DSKINIT
                                    1591     272.     .********************************************************************
                                    1592     273.     .*   -- LOW LEVEL SPACE MANAGEMENT ROUTINE --
                                    1593     274.     .*   Initialize space management pointers on a disk block.
                                    1594     275.     .* BLK   Block number (catalog relative) for initialization
                                    1595     276.     .* BUF   Buffer address for block location in core
                                    1596     277.     .********************************************************************
                                    1597     278.     &L       DSKINIT &BLK,&BUF
                                    1598     279.     &L       LABEL ,
                                    1599     280.              AIF   ('&BLK' EQ '').NOBLK
                                    1600     281.              BLKL  R0,&BLK                 LOAD BLOCK NUMBER
                                    1601     282.     .NOBLK   ANOP  ,
                                    1602     283.              AIF   ('&BUF' EQ '').NOBUF
                                    1603     284.             $L     DSK,&BUF
                                    1604     285.     .NOBUF   ANOP  ,
                                    1605     286.              ACALL DSKINIT
                                    1606     287.              MEND
-                                   1608     289.              MACRO ,                       ALLOC
                                    1609     290.     .********************************************************************
                                    1610     291.     .*   -- LOW LEVEL SPACE MANAGEMENT ROUTINE --
                                    1611     292.     .*   Allocate space from a disk block
                                    1612     293.     .* HEAD  points to the space management header on the disk block
                                    1613     294.     .* AMT   is the space requested
1FILEVCAT (FILEVC) (09:45) (22MAR04) Definitions                                                                            Page    9
0Loc    Object Code    Addr1 Addr2  Stmt Lv Lineno    Source Statement           (Hibal 5, Asmedit 3.3)  HLASM R4.0  2004/03/22 09.45
+___    ______ ____    _____ _____  ____ __ ______    ______ _________
0                                   1614     295.     .********************************************************************
                                    1615     296.     &L       ALLOC &HEAD,&AMT,&ERR=
                                    1616     297.     &L      $L     R1,&HEAD
                                    1617     298.             $LA    R0,&AMT
                                    1618     299.              ACALL DSKGET
                                    1619     300.              IF    (NZ,AND,(R15,NE,CDSKSERR)),BEGIN
                                    1620     301.              O     R15,=A(CDIRDGM)         OR IN DSKGET MODULE NUMBER
                                    1621     302.              B     &ERR
                                    1622     303.              END   ,
                                    1623     304.              MEND
-                                   1625     306.              MACRO ,                       DSKFREE
                                    1626     307.     .********************************************************************
                                    1627     308.     .*   -- LOW LEVEL SPACE MANAGEMENT ROUTINE --
                                    1628     309.     .*   Free space on disk block  -  registers assumed to be set up
                                    1629     310.     .********************************************************************
                                    1630     311.     &L       DSKFREE ,
                                    1631     312.     &L       LABEL ,
                                    1632     313.              ACALL DSKFREE
                                    1633     314.              MEND
-                                   1635     316.              MACRO ,                       GETBLOCK
                                    1636     317.     .********************************************************************
                                    1637     318.     .*   -- LOW LEVEL SPACE MANAGEMENT ROUTINE --
                                    1638     319.     .*   Get a block from the free block pool
                                    1639     320.     .********************************************************************
                                    1640     321.     &L       GETBLOCK &ERR=
                                    1641     322.     &L       ACALL GETBLOCK
                                    1642     323.              IF    NZ,&ERR
                                    1643     324.              MEND
-                                   1645     326.              MACRO ,                       GETNODE
                                    1646     327.     .********************************************************************
                                    1647     328.     .*   Allocate a node from block pool.
                                    1648     329.     .* PTRS  Suffix of the pointer slots in the checkpoint block.
                                    1649     330.     .* DATA  Indicates if the allocation is for an index block or a
                                    1650     331.     .*       data block.  See the GETNODE routine to see the
                                    1651     332.     .*       requirements of this parm.  Must be full specification
                                    1652     333.     .*       (not suffix or prefix of location).
                                    1653     334.     .* LOCK  Should the node be locked in core after allocating it?
                                    1654     335.     .* TAG   Suffix of tag location in checkpoint block if the tag is
                                    1655     336.     .*       to be saved.
                                    1656     337.     .* ERR   Branch location on error.
                                    1657     338.     .********************************************************************
                                    1658     339.     &L       GETNODE &PTRS=,&DATA=NO,&LOCK=NO,&TAG=NO,&ERR=
                                    1659     340.     &L       LABEL ,
                                    1660     341.              AIF   ('&DATA' EQ 'NO').NODATA
                                    1661     342.              LA    R14,1
                                    1662     343.              BLKL  R15,&DATA               Load data block number
                                    1663     344.              AGO   .DATA
                                    1664     345.     .NODATA  ANOP
                                    1665     346.              CLEAR R14
                                    1666     347.     .DATA    ANOP
1FILEVCAT (FILEVC) (09:45) (22MAR04) Definitions                                                                            Page   10
0Loc    Object Code    Addr1 Addr2  Stmt Lv Lineno    Source Statement           (Hibal 5, Asmedit 3.3)  HLASM R4.0  2004/03/22 09.45
+___    ______ ____    _____ _____  ____ __ ______    ______ _________
0                                   1667     348.              ACALL GETNODE
                                    1668     349.              IF    NZ,&ERR
                                    1669     350.              ST    DSK,CHK&PTRS.A          Buffer address
                                    1670     351.              STH   R0,CHK&PTRS.B           Block number
                                    1671     352.              STH   R1,CHK&PTRS.N           Node offset
                                    1672     353.              AIF   ('&TAG' EQ 'NO').NOTAG
                                    1673     354.              MVC   CHKI&TAG,DSKTAG
                                    1674     355.     .NOTAG   ANOP  ,
                                    1675     356.              AIF   ('&LOCK' EQ 'NO').NOLOCK
                                    1676     357.              DLOKBUF (R0),ERR=&ERR
                                    1677     358.     .NOLOCK  MEND
-                                   1679     360.              MACRO ,                       RELNODE
                                    1680     361.     .********************************************************************
                                    1681     362.     .*   Release a node and put space back in free pool.
                                    1682     363.     .* RELAD Relative address (in block) of node to be released.
                                    1683     364.     .* LEN   Length of node begin freed.
                                    1684     365.     .* BUFAD Address of buffer that contains the node.
                                    1685     366.     .* ERR   Branch location on error.
                                    1686     367.     .********************************************************************
                                    1687     368.     &L       RELNODE &RELAD,&LEN,&BUFAD,&ERR=
                                    1688     369.     &L      $L     R15,&RELAD,OP=LH        REL START ADDR
                                    1689     370.             $L     R0,&LEN,OP=LH           NODE LEN
                                    1690     371.             $L     R1,&BUFAD               BUFFER ADDR
                                    1691     372.              ACALL RELNODE
                                    1692     373.              IF    NZ,&ERR
                                    1693     374.              MEND
-                                   1695     376.              MACRO ,                       NTRYMOV
                                    1696     377.     .********************************************************************
                                    1697     378.     .*   Move an entry/entrys from one node to another.
                                    1698     379.     .* SRC   Suffix of source node pointers in checkpoint block.
                                    1699     380.     .* DEST  Suffix of destination node pointers in checkpoint block.
                                    1700     381.     .* DELSRC      Delete entry in source node?  Sets parameter.
                                    1701     382.     .********************************************************************
                                    1702     383.     &L       NTRYMOV &SRC=,&DEST=,&DELSRC=YES
                                    1703     384.     &L       LABEL ,
                                    1704     385.              AIF   ('&DELSRC' EQ 'YES').DEL
                                    1705     386.              LH    RAR,CHKBDLN
                                    1706     387.              LCR   RAR,RAR
                                    1707     388.              STH   RAR,CHKBDLN
                                    1708     389.     .DEL     ANOP
                                    1709     390.              LH    R1,CHK&SRC.N
                                    1710     391.              AL    R1,CHK&SRC.A
                                    1711     392.              LH    R15,CHK&DEST.N
                                    1712     393.              AL    R15,CHK&DEST.A
                                    1713     394.              ACALL NTRYMOV
                                    1714     395.              MEND
-                                   1716     397.              MACRO ,                       NTRYCHG
                                    1717     398.     .********************************************************************
                                    1718     399.     .*   Change and entry in a node.
                                    1719     400.     .* DEST  Checkpoint suffix of node to be modified.
1FILEVCAT (FILEVC) (09:45) (22MAR04) Definitions                                                                            Page   11
0Loc    Object Code    Addr1 Addr2  Stmt Lv Lineno    Source Statement           (Hibal 5, Asmedit 3.3)  HLASM R4.0  2004/03/22 09.45
+___    ______ ____    _____ _____  ____ __ ______    ______ _________
0                                   1720     401.     .* DELXTND     Delete extended data portion?
                                    1721     402.     .* INSXTND     Insert extended data portion?
                                    1722     403.     .* ERR   Branch location on error.
                                    1723     404.     .********************************************************************
                                    1724     405.     &L       NTRYCHG &DEST=,&DELXTND=YES,&INSXTND=YES,&ERR=
                                    1725     406.     &L       LABEL ,
                                    1726     407.              AIF   ('&DELXTND' EQ 'YES').DELXTND
                                    1727     408.              LCR   R14,R14
                                    1728     409.     .DELXTND ANOP  ,
                                    1729     410.              AIF   ('&INSXTND' EQ 'YES').INSXTND
                                    1730     411.              LCR   R0,R0
                                    1731     412.     .INSXTND ANOP  ,
                                    1732     413.     &DPT     SETC  'CHK'.'&DEST'.'P'
                                    1733     414.              MVC   CHK2WRP,&DPT
                                    1734     415.              ACALL NTRYCHG
                                    1735     416.              IF    NZ,&ERR
                                    1736     417.              MEND
-                                   1738     419.              MACRO ,                       TOCOM
                                    1739     420.     .********************************************************************
                                    1740     421.     .*   Return to common routines
                                    1741     422.     .* SAVE  Prepare for subsequent return? (saves return address...)
                                    1742     423.     .********************************************************************
                                    1743     424.     &L       TOCOM &SAVE=YES               RETURN TO COMMON ROUTINES
                                    1744     425.     &L       LABEL ,
                                    1745     426.              AIF   ('&SAVE' NE 'YES').NOSAV
                                    1746     427.              LCALL DIRCOMSV                PREPARE FOR RET
                                    1747     428.              MEXIT
                                    1748     429.     .NOSAV   ANOP  ,
                                    1749     430.              B     DIRCOM                  DON'T PREPARE FOR RET
                                    1750     431.              MEND
-                                   1752     433.              MACRO ,                       COMIO
                                    1753     434.     .********************************************************************
                                    1754     435.     .*   Call common I/O routines
                                    1755     436.     .* ROUTINE     Name of common routine to call
                                    1756     437.     .********************************************************************
                                    1757     438.     &L       COMIO &ROUTINE                CALL COMMON I/O ROUTINES
                                    1758     439.     &L       L     R14,=V(&ROUTINE)
                                    1759     440.              LCALL COMIO
                                    1760     441.              MEND
-                                   1762     443.              MACRO ,                       CATENT
                                    1763     444.     .********************************************************************
                                    1764     445.     .*   Define Catalog Routines sub-entry (from VCATENT)
                                    1765     446.     .********************************************************************
                                    1766     447.     &L       CATENT &ENTRY=NO              DEFINE CATALOG ENTRY
                                    1767     448.              AIF   ('&ENTRY' EQ 'NO').NOENT
                                    1768     449.              ENTRY &L
                                    1769     450.     .NOENT   ANOP  ,
                                    1770     451.     &L       LABEL ,
                                    1771     452.              MEND
1FILEVCAT (FILEVC) (09:45) (22MAR04) Definitions                                                                            Page   12
0Loc    Object Code    Addr1 Addr2  Stmt Lv Lineno    Source Statement           (Hibal 5, Asmedit 3.3)  HLASM R4.0  2004/03/22 09.45
+___    ______ ____    _____ _____  ____ __ ______    ______ _________
0                                   1773     454.              MACRO ,                       CHKPUSH
                                    1774     455.     .********************************************************************
                                    1775     456.     .*   Push the tree searching stack, leaving addressability in ADDRREG
                                    1776     457.     .* ADDRREG     Register which will point to top of stack.
                                    1777     458.     .* ERR         Branch location on error (stack overflow).
                                    1778     459.     .********************************************************************
                                    1779     460.     &L       CHKPUSH &ADDRREG=,&ERR=
                                    1780     461.              GBLB  &CHKOFF                 Turn off unnecessary checks
                                    1781     462.     &L       LABEL ,
                                    1782     463.              AIF   (&CHKOFF).NOSTOV
                                    1783     464.              INCR  &ADDRREG,CHKSTKP
                                    1784     465.              IF    (&ADDRREG,GT,CCHKSTK),BEGIN
                                    1785     466.              LA    R15,DIRSTOV
                                    1786     467.              BAS   R14,&ERR
                                    1787     468.              END   ,
                                    1788     469.     .NOSTOV  ANOP  ,
                                    1789     470.              MH    &ADDRREG,=Y(L'CHKDSTK)  ADDR TO STACK ENTRY
                                    1790     471.              LA    &ADDRREG,CHKSTAK-L'CHKDSTK(&ADDRREG)
                                    1791     472.              CLEAR CHKSTFLG                INIT ENTRY
                                    1792     473.              MEND
-                                   1794     475.              MACRO ,                       TRESTKAD
                                    1795     476.     .********************************************************************
                                    1796     477.     .*   Tree traversal stack addressability.
                                    1797     478.     .* ADDRREG     Register which will point to top of tree traversal
                                    1798     479.     .*             stack.
                                    1799     480.     .********************************************************************
                                    1800     481.     &L       TRESTKAD &ADDRREG
                                    1801     482.     &L       LH    &ADDRREG,CHKSTKP
                                    1802     483.              MH    &ADDRREG,=Y(L'CHKDSTK)  ADDR TO STACK ENTRY
                                    1803     484.              LA    &ADDRREG,CHKSTAK-L'CHKDSTK(&ADDRREG)
                                    1804     485.              MEND
-                                   1806     487.              MACRO ,                       REGCH
                                    1807     488.     .********************************************************************
                                    1808     489.     .*   Check symbolic registers for equalness.
                                    1809     490.     .* The parameter string is a list of register pairs ie, (R2,SR)
                                    1810     491.     .* which are meant to match.  This will check on assumptions which
                                    1811     492.     .* could be changed by an unknowing change to a REGS statement.
                                    1812     493.     .********************************************************************
                                    1813     494.              REGCH
                                    1814     495.     &N       SETA  1
                                    1815     496.     .REGNEX  AIF   (L'&SYSLIST(&N,1) NE &SYSLIST(&N,2)).REGER
                                    1816     497.     .INCR    AIF   (&N GE N'&SYSLIST).REGX
                                    1817     498.     &N       SETA  &N+1
                                    1818     499.              AGO   .REGNEX
                                    1819     500.     .REGER   ANOP
                                    1820     501.      MNOTE  8,'&SYSLIST(&N,1) is not register &SYSLIST(&N,2)'
                                    1821     502.              AGO   .INCR
                                    1822     503.     .REGX    MEND
                                    1823     504.              MACRO ,                       BLKL
                                    1824     505.     .********************************************************************
                                    1825     506.     .*   Load block pointer into register.  (Checks halfword/fullword)
                                    1826     507.     .* REG   Register to be loaded.
1FILEVCAT (FILEVC) (09:45) (22MAR04) Definitions                                                                            Page   13
0Loc    Object Code    Addr1 Addr2  Stmt Lv Lineno    Source Statement           (Hibal 5, Asmedit 3.3)  HLASM R4.0  2004/03/22 09.45
+___    ______ ____    _____ _____  ____ __ ______    ______ _________
0                                   1827     508.     .* LOC   Location to load from.
                                    1828     509.     .********************************************************************
                                    1829     510.     &L       BLKL  &REG,&LOC
                                    1830     511.              GBLA  &BL
                                    1831     512.     &OP      SETC  'L'
                                    1832     513.              AIF   (&BL NE 2).LEN4
                                    1833     514.     &OP      SETC  '&OP.H'
                                    1834     515.     .LEN4    ANOP
                                    1835     516.     &L      $L     &REG,&LOC,OP=&OP        GET BLOCK NUMBER
                                    1836     517.              MEND
-                                   1838     519.              MACRO ,                       BUGNTRY
                                    1839     520.     .*  Create an entry point if in debug mode
                                    1840     521.              BUGNTRY &NTRYPT
                                    1841     522.              GBLB  &DEBUG
                                    1842     523.              AIF   (NOT &DEBUG).DONE
                                    1843     524.              ENTRY &NTRYPT
                                    1844     525.     .DONE    MEND
                                    1845     526.     *        PRINT ON
-                                   1847     528.              COPY  PZERO
 000000                00000 00280  1848             =PZERO    RECORD BEGIN
                                    1856  1          =*
                                    1857  1          =* Real Page 0.  Each CPU has its own copy of this area.
                                    1858  1          =*
-                                   1860  1          =****************************************************************
                                    1861  1          =*               Fields Fixed by the Architecture               *
                                    1862  1          =*               ********************************               *
                                    1863  1          =*                                                              *
 000000                             1864  1          =PZRSNPSW   DS    D             Restart new PSW                 *
 000008                             1865  1          =PZRSOPSW   DS    D             Restart old PSW                 *
 000010                             1866  1          =           DS    D                                             *
 000018                             1867  1          =PZEXOPSW   DS    D             External old PSW                *
 000020                             1868  1          =PZSVOPSW   DS    D             Supervisor old PSW              *
 000028                             1869  1          =PZPIOPSW   DS    D             Program old PSW                 *
 000030                             1870  1          =PZMCOPSW   DS    D             Machine check old PSW           *
 000038                             1871  1          =PZIOOPSW   DS    D             I/O old PSW                     *
 000040                             1872  1          =           DS    3D                                            *
 000058                             1873  1          =PZEXNPSW   DS    D             External new PSW                *
 000060                             1874  1          =PZSVNPSW   DS    D             Supervisor new PSW              *
 000068                             1875  1          =PZPINPSW   DS    D             Program new PSW                 *
 000070                             1876  1          =PZMCNPSW   DS    D             Machine check new PSW           *
 000078                             1877  1          =PZIONPSW   DS    D             I/O new PSW                     *
 000080                             1878  1          =           DS    F                                             *
 000084                             1879  1          =PZEXCPU    DS    H             CPU address for EXT int         *
 000086                             1880  1          =PZEXIC     DS    H             External interrupt code         *
 000088                             1881  1          =PZSVILC    DS    H             Supervisor call ILC             *
 00008A                             1882  1          =PZSVIC     DS    H             Supervisor interrupt code       *
 00008C                             1883  1          =PZPIILC    DS    H             Program ILC                     *
 00008E                             1884  1          =PZPIIC     DS    H             Program interrupt code          *
 000090                             1885  1          =PZTREXA    DS    A             Translation exception address   *
 000094                             1886  1          =PZMONCL    DS    H             Monitor Class number            *
1FILEVCAT (FILEVC) (09:45) (22MAR04) Definitions                                                                            Page   14
0Loc    Object Code    Addr1 Addr2  Stmt Lv Lineno    Source Statement           (Hibal 5, Asmedit 3.3)  HLASM R4.0  2004/03/22 09.45
+___    ______ ____    _____ _____  ____ __ ______    ______ _________
0000096                             1887  1          =PZPERCD    DS    H             PER code                        *
 000098                             1888  1          =PZPERA     DS    A             PER Address                     *
 00009C                             1889  1          =PZMONCD    DS    A             Monitor Code                    *
 0000A0                             1890  1          =           DS    3D                                            *
 0000B8                             1891  1          =PZIOSID    DS    A             I/O subsystem ID word           *
 0000BC                             1892  1          =PZIOPRM    DS    A             I/O Parameter                   *
 0000C0                             1893  1          =PZIOSCS    DS    A             I/O subchannel ending status    *
 0000C4                             1894  1          =           DS    A                                             *
 0000C8                             1895  1          =           DS    39D                                           *
                                    1896  1          =*                                                              *
                                    1897  1          =*            ***************************************           *
                                    1898  1          =*            End of Fields fixed by the architecture           *
                                    1899  1          =****************************************************************
1FILEVCAT (FILEVC) (09:45) (22MAR04) Definitions                                                                            Page   15
0D-Loc  Object Code    Addr1 Addr2  Stmt Lv Lineno    Source Statement           (Hibal 5, Asmedit 3.3)  HLASM R4.0  2004/03/22 09.45
+_____  ______ ____    _____ _____  ____ __ ______    ______ _________
0                                   1901  1          =*
                                    1902  1          =* Fields of general interest
                                    1903  1          =*
 000200                             1904  1          =PZMATP     DS    A             Address of the MAT
 000204                             1905  1          =           DS    A             ** Reserved **
 000208                             1906  1          =PZCURPID   DS    0D            Unique ID of the current process
 000208                             1907  1          =PZCURASB   DS    A             Addr of ASB for current Address space
 00020C                             1908  1          =PZCURTSK   DS    A             ID of current task in the Address space
 000210                             1909  1          =PZLCPUA    DS    A             Logical CPU address
 000214                             1910  1          =PZCPUMSK   DS    A             CPU address mask bit
 000218                             1911  1          =PZPSWM     DS    X             PSW mask for disabling
 000219                             1912  1          =           DS    X             ** Reserved **
                                    1913  1          =*
                                    1914  1          =* Termination/Trace information
                                    1915  1          =*
 00021A 00                          1916  1          =PZTERMFL   FLAG  ,             Termination flags
 PZTERMFL.PZABORT  80 ONES          1920  1          =           FLAG  PZABORT         ABORT macro issued
 PZTERMFL.PZATERM  40 ONES          1925  1          =           FLAG  PZATERM         Start termination processing
 00021B                             1930  1          =PZABSM     DS    X             Save area for system mask in ABORT
 00021C                             1931  1          =PZABR15    DS    A             Save area for R15 in an ABORT
 000220                             1932  1          =PZTZOFF    DS    D             Time zone offset
 000228                             1933  1          =           DS    22A           ** Reserved **
                                    1934  1          =*         DS    24A           ** Reserved **
 000280                00280 00280  1935             =         END   ,
1FILEVCAT (FILEVC) (09:45) (22MAR04) File System Constants                                                                  Page   16
0Loc    Object Code    Addr1 Addr2  Stmt Lv Lineno    Source Statement           (Hibal 5, Asmedit 3.3)  HLASM R4.0  2004/03/22 09.45
+___    ______ ____    _____ _____  ____ __ ______    ______ _________
0                                   1945     530.              COPY  FILCONST
                                    1946             =         PRINT OFF                     ERRCODE MACRO
0000016                             1963             =DIRCONST BEGIN ,                       VARIOUS AND SUNDRY CONSTANTS
                                    1968  1          =PGESZ      EQU   4096                    ORVYL PAGE SIZE
                                    1969  1          =M1AMSK     EQU   X'00FFFFFF'             Mode 1 address mask
                                    1970  1          =PGEMSK     EQU   M1AMSK-PGESZ+1          PAGE ALIGN MASK
0                                   1972  1          =GRSZ       EQU   6                       ACCOUNT LENGTH
                                    1973  1          =DIRNFER    ERRCODE FIRST=YES             CONDITION: LEAF NOT FOUND
                                    1976  1          =DIRDUPER   ERRCODE ,                     ERROR: CAN'T INS DUPLICATE LEAF
                                    1979  1          =DIRDELAC   ERRCODE ,                     ERROR: CAN'T DEL ACC W/ FILES
                                    1982  1          =DIRNTSZ    ERRCODE ,                     ERROR: INVALID ENTRY SIZE
                                    1985  1          =DIRMODLN   ERRCODE ,                     ERROR: CAN'T CH LEN W/OUT FLAG
                                    1988  1          =DIRRENAC   ERRCODE ,                     ERROR: CAN'T RENAME ACCOUNTS
                                    1991  1          =DIRNMR     ERRCODE ,                     ERROR: NO MORE ROOM IN DIR
                                    1994  1          =DIRSTOV    ERRCODE ,                     ERROR: LIST_STACK OVERFLOW
                                    1997  1          =DIRSTUF    ERRCODE ,                     ERROR: LIST_STACK UNDERFLOW
                                    2000  1          =DIRTAGER   ERRCODE ,                     ERROR: BLOCK TAG MISMATCH
                                    2003  1          =DIRBLKER   ERRCODE ,                     ERROR: BLOCK NUMBER MISMATCH
                                    2006  1          =DIRIOS     ERRCODE ,                     ERROR: NO MORE I/O SPACE
                                    2009  1          =DIRIONF    ERRCODE ,                     ERROR: I/O BUFFER NOT FOUND
                                    2012  1          =DIRNIMP    ERRCODE ,                     CONDITION: NOT IMPLEMENTED
                                    2015  1          =ACCMODE    EQU   0                       INDICATE ACCOUNT MODE
                                    2016  1          =FILEMODE   EQU   4                       INDICATE FILE MODE
                                    2017  1          =CSEQNONT   EQU   16                      SEQ ACC: NO ENTRYS IN THIS TREE
                                    2018  1          =CSEQEND    EQU   8                       SEQ ACC: NO MORE ENTRYS IN TREE
                                    2019  1          =FALLBT     EQU   X'FF'                   A BYTE OF ONES
                                    2020  1          =NIL        EQU   X'FF'                   END OF LIST INDICATOR
                                    2021  1          =CDIRIOM    EQU   X'0100'                 I/O ROUTINES ARE MODULE #1
                                    2022  1          =CDIRDGM    EQU   X'0200'                 DSKGET ROUTINE IS MODULE #2
                                    2023  1          =CDIRDFM    EQU   X'0300'                 DSKFREE ROUTINE IS MODULE #3
                                    2024  1          =CDIRBUG    EQU   X'0400'                 DIRBUG ROUTINES ARE MODULE #4
                                    2025  1          =VIOFREE    EQU   X'7FFFFF00'             CONSTANT TO FREE A BUFFER (AND)
                                    2026  1          =VIOLOCK    EQU   X'000000FF'             CONSTANT TO LOCK A BUFFER (OR)
                                    2027  1          =BITAVAIL   EQU   X'7FFFFF00'             CONSTANT TO FREE A BUFFER (AND)
                                    2028  1          =BITMOD     EQU   X'000000FF'             CONSTANT TO SET BUFFER MOD (OR)
 000016                             2029             =         END   ,                       OF VARIOUS AND SUNDRY CONSTANTS
1FILEVCAT (FILEVC) (09:45) (22MAR04) File block header definition                                                           Page   17
0Loc    Object Code    Addr1 Addr2  Stmt Lv Lineno    Source Statement           (Hibal 5, Asmedit 3.3)  HLASM R4.0  2004/03/22 09.45
+___    ______ ____    _____ _____  ____ __ ______    ______ _________
0                                   2034     532.              COPY  FBHDR
 000000                00000 00014  2035             =FBHDR    RECORD BEGIN
                                    2043  1          =*
                                    2044  1          =*  ORVYL File Block Header Field
                                    2045  1          =*
 000000                             2046  1          =FBHBLOCK   DS    AL3                     Block number in file system
 000003                             2047  1          =FBHTYPE    DS    AL1                     Block type
                                    2048  1          =
                                    2049  1          =FBHTFSMB   EQU   X'FF'                   File System Master Block
                                    2050  1          =FBHTCAT    EQU   X'80'                   Catalog
                                    2051  1          =FBHTBIT    EQU   X'40'                   Bit Map
                                    2052  1          =FBHTZIXR   EQU   X'10'                   ZIXR
                                    2053  1          =FBHTIXR    EQU   X'08'                   IXR
                                    2054  1          =FBHTSIXR   EQU   X'04'                   SIXR
                                    2055  1          =FBHTMIXR   EQU   X'02'                   MIXR
                                    2056  1          =FBHTUSER   EQU   X'01'                   User data block
                                    2057  1          =FBHTIXRT   EQU   FBHTIXR+FBHTSIXR+FBHTMIXR+FBHTZIXR
                                    2058  1          =FBHTBICA   EQU   FBHTCAT+FBHTBIT
                                    2059  1          =FBHTSYSR   EQU   FBHTIXRT+FBHTBICA
                                    2060  1          =
 000004                             2061  1          =           DS    AL2                     Reserved
 000006                             2062  1          =FBHLEN     DS    AL2                     User data length in block
 000008                             2063  1          =FBHTIME    DS    AL4                     Time (STCK) block written
                                    2064  1          =
                                    2065  1          =FBHDTLEN   EQU   *-FBHDR                 Saved header length (VDMP)
 00000C                             2066  1          =FBHAVAIL   DS    2AL4                    Available
 000014                00014 00014  2067             =         END   ,
1FILEVCAT (FILEVC) (09:45) (22MAR04) FSB Definition                                                                         Page   18
0Loc    Object Code    Addr1 Addr2  Stmt Lv Lineno    Source Statement           (Hibal 5, Asmedit 3.3)  HLASM R4.0  2004/03/22 09.45
+___    ______ ____    _____ _____  ____ __ ______    ______ _________
0                                   2077     534.              COPY  FSB
 000000                00000 001E0  2078             =FSB      RECORD BEGIN
                                    2086  1          =CCAT0PCT   EQU   10                      % OF FREE BLOCKS FOR WARNING
                                    2087  1          =CCAT0MIN   EQU   60                      MIN FREE BEFORE WARNING
                                    2088  1          =CCAT1PCT   EQU   5                       % OF MIN LOGICAL FREE BLOCKS
                                    2089  1          =CCAT1MIN   EQU   60                      MIN FREE LOGICAL BLOCK NUM
                                    2090  1          =CCAT2PCT   EQU   1                       % OF MIN FREE BLOCKS
                                    2091  1          =CCAT2MIN   EQU   10                      MIN FREE BLOCK NUM
                                    2092  1          =
                                    2093  1          =CNODA99    EQU   72,72,C'N'              99th percentile
                                    2094  1          =CNODF99    EQU   65,65,C'N'              Non permit len, no per, max name
                                    2095  1          =
                                    2096  1          =CFSBFLSZ   EQU   40                      MAX FIL NAME LEN(DOTS, ~"ORV.")
                                    2097  1          =CFSBNDOT   EQU   38                      MAX FIL NAME LEN(~DOTS, ~"ORV.")
                                    2098  1          =CFSBNMSZ   EQU   33                      MAX NAME LEN TO SEARCH
                                    2099  1          =CFSBDBLK   EQU   3                       3 DOUBLE WRITE BLOCKS
                                    2100  1          =CFSBSTK    EQU   7                       STACK DEPTH OF 7
                                    2101  1          =CFSBMXNT   EQU   256+41                  MAX ENTRY LENGTH
                                    2102  1          =OBLKPL     EQU   3,3,C'N'                ORVYL FILE BLOCK POINTER LEN
                                    2103  1          =BL         EQU   2,2,C'N'                BLOCK POINTER LEN
                                    2104  1          =OL         EQU   2,2,C'N'                OFFSET POINTER LEN
                                    2105  1          =PL         EQU   BL+OL,BL+OL,C'N'        TOTAL POINTER LEN
                                    2106  1          =           GBLA  &BL,&L
                                    2107  1          =&BL        SETA  L'BL
                                    2108  1          =&L         SETA  L'PL                    TOTAL POINTER LENGTH
                                    2109  1          =*
                                    2110  1          =*  FILE SYSTEM BLOCK
                                    2111  1          =*
 000000 C6E2C240                    2112  1          =FSBBID     DC    CL4'FSB'                BLOCK ID
                                    2113  1          =
 000004                             2114  1          =FSBCHAIN   DS    A                       NEXT FSB ON CHAIN
                                    2115  1          =
 000008                             2116  1          =FSBID      DS    X                       FILE-SYSTEM ID NUMBER
                                    2117  1          =
 000009 00                          2118  1          =FSBAFLGS   FLAG  ,                       FILE-SYSTEM AVAILABILITY
 FSBAFLGS.FSBANAVL 80 ONES          2122  1          =           FLAG  FSBANAVL                NOT AVAILABLE
 FSBAFLGS.FSBARO   40 ONES          2127  1          =           FLAG  FSBARO                  READ-ONLY STATUS
 FSBAFLGS.FSBINIT  20 ONES          2132  1          =           FLAG  FSBINIT                 INITIALIZATION PROCESS
 FSBAFLGS.FSBCLOSE 10 ONES          2137  1          =           FLAG  FSBCLOSE                SHUTDOWN PROCESS
 FSBAFLGS.FSBCATNI 08 ONES          2142  1          =           FLAG  FSBCATNIN               CATALOG IN NoInsert MODE
 FSBAFLGS.FSBCATNL 04 ONES          2147  1          =           FLAG  FSBCATNLM               CATALOG IN NoLenMod MODE
                                    2152  1          =
 00000A 00                          2153  1          =FSBSFLGS   FLAG  ,                       FILE-SYSTEM STATUS
 FSBSFLGS.FSBSPROD 80 ONES          2157  1          =           FLAG  FSBSPROD                PRODUCTION FILE SYSTEM
 FSBSFLGS.FSBSABRO 40 ONES          2162  1          =           FLAG  FSBSABRO                ALLOW BATCH THOUGH R/O
 FSBSFLGS.FSBSTEMP 20 ONES          2167  1          =           FLAG  FSBSTEMP                DEDICATED TO TEMP FILES
                                    2172  1          =
 00000B 00                          2173  1          =FSBOFLGS   FLAG  ,                       FILE-SYSTEM OPTIONS
 FSBOFLGS.FSBONIXR 80 ONES          2177  1          =           FLAG  FSBONIXR                NON-IXR FILES ALLOWED
 FSBOFLGS.FSBFCACH 40 ONES          2182  1          =           FLAG  FSBFCACHE               Use file block caching
 FSBOFLGS.FSBHCACH 20 ONES          2187  1          =           FLAG  FSBHCACHE               Use hiperspace caching
                                    2192  1          =
 00000C                             2193  1          =FSBFRDB    DS    A                       FIRST RDB FOR FILE-SYSTEM
 000010                             2194  1          =FSBLRDB    DS    A                       LAST RDB FOR FILE-SYSTEM
 000014                             2195  1          =FSBDDN     DS    CL4                     DDNAME
 000018                             2196  1          =FSBNAME    DS    CL8                     FILE-SYSTEM NAME
1FILEVCAT (FILEVC) (09:45) (22MAR04) FSB Definition                                                                         Page   19
0Loc    Object Code    Addr1 Addr2  Stmt Lv Lineno    Source Statement           (Hibal 5, Asmedit 3.3)  HLASM R4.0  2004/03/22 09.45
+___    ______ ____    _____ _____  ____ __ ______    ______ _________
0000020 C7C74BE4E4E4                2197  1          =FSBOWNER   DC    CL6'GG.UUU'             FILE-SYSTEM MASTER ACCOUNT
                                    2198  1          =
 000026                             2199  1          =           DS    XL2                     Spare
                                    2200  1          =
 000028                             2201  1          =FSBCGRI    DS    A                       Catalog general resource id
 00002C                             2202  1          =FSBRBT     DS    A                       Read Buffer Table Pointer
 000030                             2203  1          =FSBCACHE   DS    A                       Cache table pointer
 000034                             2204  1          =FSBCACHS   DS    A                       System cache table pointer
 000038                             2205  1          =           DS    A                       Spare
 00003C                             2206  1          =FSBAHFB    DS    A                       File attached hash table
 000040                             2207  1          =FSBIOP     DS    A                       File IO parm buffers
                                    2208  1          =*
                                    2209  1          =*  CATALOG MANAGEMENT AREA
                                    2210  1          =*
 000044                             2211  1          =FSBCATSB   DS    A                       CATALOGUE START BLOCK
 000048                             2212  1          =FSBCATBC   DS    A                       CATALOGUE BLOCK COUNT
                                    2213  1          =*SBBMALO DS    A   ** MOVE TO STATS ** ALLOCATION REQUESTS
                                    2214  1          =*SBBMALS DS    A   ** MOVE TO STATS ** ALLOCATION NOT CACHED
                                    2215  1          =*SBBMFRE DS    A   ** MOVE TO STATS ** BITMAP RELEASES
                                    2216  1          =*SBBMFRS DS    A   ** MOVE TO STATS ** BITMAP RELEASES - TO SYS
 00004C                             2217  1          =           DS    4A                      Available
                                    2218  1          =CFSBBL     EQU   4                       FSB BLOCK PTR LEN
                                    2219  1          =CFSBPL     EQU   8,8,C'N'                FSB POINTER LEN (BLOCK + ADDR)
                                    2220  1          =CFSBBUF    EQU   8,8,C'N'                8 CAT BLOCK BUFFERS ALLOWED
 00005C                             2221  1          =FSBBLKTOP   DS   A                       POINTS TO LAST BUFFER SLOT
 000060                             2222  1          =FSBCHKA    DS    A                       CHECK POINT BUFFER ADDRESS
 000064                             2223  1          =FSBROOTB   DS    A                       BLOCK NUMBER IN ROOT BUFFER
 000068                             2224  1          =FSBROOTA   DS    A                       | ADDRESS OF ROOT BUFFER
 00006C                             2225  1          =FSBBLK1    DS    A                       BLOCK NUMBER IN 1ST BUFFER
 000070                             2226  1          =FSBBUF1    DS    A                       | ADDRESS OF 1ST BUFFER
                                    2227  1          =&BUFLEN    SETA  (L'CFSBBUF-1)*L'CFSBPL
                                    2228  1          =           DS    &BUFLEN.X               | LEN OF REMAINING BUF SLOTS
 000074                                   1          +           DS    56X                     | LEN OF REMAINING BUF SLOTS
                                    2229  1          =*
                                    2230  1          =*  Catalog Balancing Parameters
                                    2231  1          =*
 0000AC                             2232  1          =FSBBALST   DS    0X
 0000AC                             2233  1          =FSBDSZ     DS    Y                       Size of disk block
 0000AE                             2234  1          =FSBDAVA    DS    Y                       Available space per block
 0000B0                             2235  1          =FSBDTAGX   DS    Y                       Offset of end tag in block
 0000B2                             2236  1          =FSBNALEN   DS    Y                       Account: Length of node
 0000B4                             2237  1          =FSBNASPA   DS    Y                       | Free space in node
 0000B6                             2238  1          =FSBTAXLN   DS    Y                       | Maximum length of entry
 0000B8                             2239  1          =FSBNAMXL   DS    Y                       | Max len of entry in node
 0000BA                             2240  1          =FSBNAXSP   DS    Y                       | Max free space per node
 0000BC                             2241  1          =FSBNANSP   DS    Y                       | Min free space per node
 0000BE                             2242  1          =FSBNFLEN   DS    Y                       File: Length of node
 0000C0                             2243  1          =FSBNFSPA   DS    Y                       | Free space in node
 0000C2                             2244  1          =FSBTFXLN   DS    Y                       | Maximum length of entry
 0000C4                             2245  1          =FSBNFMXL   DS    Y                       | Max len of entry in node
 0000C6                             2246  1          =FSBNFXSP   DS    Y                       | Max free space per node
 0000C8                             2247  1          =FSBNFNSP   DS    Y                       | Min free space per node
 0000CA                             2248  1          =FSBTXXLN   DS    Y                       Max len of extended data entry
 0000CC                             2249  1          =FSBLOGFR   DS    Y                       Minimum logical block count
 0000CE                             2250  1          =FSBMNFRE   DS    Y                       Min num of free blks in Cat
                                    2251  1          =FSBBALLN   EQU   *-FSBBALST
1FILEVCAT (FILEVC) (09:45) (22MAR04) FSB Definition                                                                         Page   20
0Loc    Object Code    Addr1 Addr2  Stmt Lv Lineno    Source Statement           (Hibal 5, Asmedit 3.3)  HLASM R4.0  2004/03/22 09.45
+___    ______ ____    _____ _____  ____ __ ______    ______ _________
0                                   2252  1          =*
                                    2253  1          =*  BITMAP MANAGEMENT AREA
                                    2254  1          =*
 0000D0                             2255  1          =FSBBMCNO   DS    Y                       SPECIFIED CNT BLK# IN AVAIL LIST
 0000D4                             2256  1          =FSBBITSB   DS    A                       BIT MAP FIRST BLOCK
 0000D8                             2257  1          =FSBBITBC   DS    A                       BIT MAP BLOCK COUNT
 0000DC                             2258  1          =FSBABLK    DS    A                       NUMBER OF AVAILABLE BLOCKS
 0000E0                             2259  1          =FSBTBLK    DS    A                       TOTAL NUMBER OF BLOCKS
 0000E4                             2260  1          =FSBDBLK    DS    A                       DEFAULT BLOCK ALLOCATION
 0000E8                             2261  1          =FSBABNL    DS    A                       AVAILABLE BLOCK NUMBER LIST
                                    2262  1          =
 0000EC                             2263  1          =FSBSMF     DS    2A                      SMF STATISTICS WORK AREA
 0000F4                             2264  1          =FSBSTATS   DS    0X
 0000F4                             2265  1          =FSBCTRD    DS    F                       CATALOG READ COUNTER
 0000F8                             2266  1          =FSBCTRRD   DS    F                       CATALOG ROOT "READ" COUNTER
 0000FC                             2267  1          =FSBCTCRD   DS    F                       CATALOG CASHED READ COUNTER
 000100                             2268  1          =FSBCTBRD   DS    F                       CATALOG BALANCE READ COUNTER
 000104                             2269  1          =FSBCTWR    DS    F                       CATALOG WRITE COUNTER
 000108                             2270  1          =FSBCTIWR   DS    F                       CATALOG INTENTIONS WRITE CNT
 00010C                             2271  1          =FSBCTBWR   DS    F                       CATALOG BALANCE WRITE COUNTER
 000110                             2272  1          =FSBCTDWR   DS    F                       CATALOG DOUBLE WRITE COUNTER
                                    2273  1          =*
                                    2274  1          =*  Total IO's and IO time
                                    2275  1          =*
 000114                             2276  1          =FSBIOCT    DS    F                   Total I/O count
 000118                             2277  1          =FSBIOTIM   DS    D                   Total I/O time
                                    2278  1          =
 000120                             2279  1          =FSBCAT4K   DS    F                   Cat io 4K buffer (2K file sys only)
                                    2280  1          =
 000124                             2281  1          =CTFILATT   DS    F                   Number of files attached
 000128                             2282  1          =CTFILATM   DS    F                   | max number attached
 00012C                             2283  1          =CTFILAUS   DS    F                   Number of user attaches
 000130                             2284  1          =CTFILAUM   DS    F                   | max number of user attaches
 000134                             2285  1          =CTFILATP   DS    F                   Number of temp files attached
 000138                             2286  1          =CTFILAPM   DS    F                   | max number of temp files attached
000013C                             2288  1          =           DS    F                   Spare
                                    2289  1          =*
                                    2290  1          =* Note: don't modify the following counters in any way unless
                                    2291  1          =*       FILECB and the routine FDOIODO are also modified.
                                    2292  1          =*
                                    2293  1          =*  File read counts from disk
                                    2294  1          =*
 000140                             2295  1          =FSBFIOCT   DS    0D                  First IO count
 000140                             2296  1          =CTREADCT   DS    0D
 000140                             2297  1          =CTMASRCT   DS    D                   Master - read counts
 000148                             2298  1          =CTCATRCT   DS    D                   Catalog - read counts
 000150                             2299  1          =CTBITRCT   DS    D                   Bitmap - read counts
 000158                             2300  1          =CTIXRRCT   DS    D                   IXR - read counts
 000160                             2301  1          =CTUSERCT   DS    D                   User  - read counts
 000168                             2302  1          =CTOTHRCT   DS    D                   Other?? - read counts
                                    2303  1          =*
                                    2304  1          =* Counter indexes - All counters are referenced with the
                                    2305  1          =* generic label and using one of the following indexes.
                                    2306  1          =*
                                    2307  1          =CTMASD     EQU   CTMASRCT-CTREADCT
1FILEVCAT (FILEVC) (09:45) (22MAR04) FSB Definition                                                                         Page   21
0Loc    Object Code    Addr1 Addr2  Stmt Lv Lineno    Source Statement           (Hibal 5, Asmedit 3.3)  HLASM R4.0  2004/03/22 09.45
+___    ______ ____    _____ _____  ____ __ ______    ______ _________
0                                   2308  1          =CTCATD     EQU   CTCATRCT-CTREADCT
                                    2309  1          =CTBITD     EQU   CTBITRCT-CTREADCT
                                    2310  1          =CTIXRD     EQU   CTIXRRCT-CTREADCT
                                    2311  1          =CTUSED     EQU   CTUSERCT-CTREADCT
                                    2312  1          =CTOTHD     EQU   CTOTHRCT-CTREADCT
                                    2313  1          =*
                                    2314  1          =*  File write counts
                                    2315  1          =*
 000170                             2316  1          =CTWRITCT   DS    0D
 000170                             2317  1          =CTMASWCT   DS    D                   Master - writes
 000178                             2318  1          =CTCATWCT   DS    D                   Catalog - writes
 000180                             2319  1          =CTBITWCT   DS    D                   Bitmap -  writes
 000188                             2320  1          =CTIXRWCT   DS    D                   IXR - writes
 000190                             2321  1          =CTUSEWCT   DS    D                   User -  writes
 000198                             2322  1          =CTOTHWCT   DS    D                   Other?? - writes
                                    2323  1          =FSBFIOCN   EQU   (*-FSBFIOCT)/L'FSBFIOCT
                                    2324  1          =*
                                    2325  1          =*  File read counts from cache
                                    2326  1          =*
 0001A0                             2327  1          =FSBFCACT   DS    0D                  First cache count
 0001A0                             2328  1          =CTCACHCT   DS    0D
 0001A0                             2329  1          =CTMASCCT   DS    D                   Master - read counts
 0001A8                             2330  1          =CTCATCCT   DS    D                   Catalog - read counts
 0001B0                             2331  1          =CTBITCCT   DS    D                   Bitmap - read counts
 0001B8                             2332  1          =CTIXRCCT   DS    D                   IXR - read counts
 0001C0                             2333  1          =CTUSECCT   DS    D                   User  - read counts
 0001C8                             2334  1          =CTOTHCCT   DS    D                   Other?? - read counts
                                    2335  1          =
                                    2336  1          =CTREADD    EQU   CTREADCT-FSBFIOCT
                                    2337  1          =CTWRITD    EQU   CTWRITCT-FSBFIOCT
                                    2338  1          =CTCACHD    EQU   CTCACHCT-FSBFIOCT
                                    2339  1          =
                                    2340  1          =FSBFCACN   EQU   (*-FSBFCACT)/L'FSBFCACT
                                    2341  1          =CTFILECT   EQU   CTREADCT,*-CTREADCT
                                    2342  1          =CTFILECC   EQU   (*-CTREADCT)/L'CTREADCT
00001D0                             2344  1          =           DS    4A                  Spare
00001E0                001E0 001E0  2346             =         END   ,
1FILEVCAT (FILEVC) (09:45) (22MAR04) Checkpoint Block Definition                                                            Page   22
0Loc    Object Code    Addr1 Addr2  Stmt Lv Lineno    Source Statement           (Hibal 5, Asmedit 3.3)  HLASM R4.0  2004/03/22 09.45
+___    ______ ____    _____ _____  ____ __ ______    ______ _________
0                                   2356     536.              COPY  CHKPNT
                                    2357             =         PRINT OFF                     CHKPREC MACRO
0000000                00000 00008  2382             =CHKDSTK  RECORD BEGIN                  STACK ENTRY DEFINITIONS
 000000                             2390  1          =CHKSTBK    DS    AL(BL)                  BLOCK
 000002                             2391  1          =CHKSTNO    DS    AL(OL)                  NODE OFFSET
 000004                             2392  1          =CHKSTEO    DS    AL(OL)                  ENTRY OFFSET
 000006 00                          2393  1          =CHKSTFLG   FLAG  ,                       STACK FLAGS
 CHKSTFLG.CHKSTFOL 80 ONES          2397  1          =           FLAG  CHKSTFOLD               TRUE = This node is old
 000007                             2402  1          =           DS    X                       ** AVAILABLE **
 000008                00008 00008  2403             =         END   ,                       OF STACK ENTRY DEFINITIONS
-000000                00000 00640  2413             =CHKPNT   RECORD BEGIN                  CHECKPOINT CONTROL BLOCK
                                    2421  1          =CCHKSTK    EQU   7                       STACK DEPTH OF 7
                                    2422  1          =**
 000000                             2423  1          =CHKSTART   DS    0X                      START OF CHECKPOINT BLOCK
 000000                             2424  1          =CHKTIME    DS    D                       TIME OF WRITE ("STCK")
 000008                             2425  1          =CHKDWRT    DS    AL(BL)                  1ST DOUBLE WRITE BLOCK
 00000A                             2426  1          =CHKROOTB   DS    AL(BL)                  ROOT LOCATION (BLOCK)
 00000C                             2427  1          =CHKROOTN   DS    AL(OL)                  | (OFFSET)
 00000E                             2428  1          =CHKFBNO    DS    AL(BL)                  NUMBER OF FREE BLOCKS
 000010                             2429  1          =CHKFREB    DS    AL(BL)                  FIRST FREE BLOCK ADDRESS
 000012                             2430  1          =CHKNXDB    DS    AL(BL)                  NEXT AVAILABLE DATA BLOCK
                                    2431  1          =CHKANCH    EQU   CHKFREB,*-CHKFREB,C'R'  CHAIN ANCHORS
                                    2432  1          =CHKCHAIN   EQU   CHKFBNO,*-CHKFBNO,C'R'  CHAIN DATA
 000014                             2433  1          =           DS    2A
                                    2434  1          =*
                                    2435  1          =* CHECKPOINT SEARCH BLOCK
                                    2436  1          =*
 00001C                             2437  1          =CHKSFLG    DS    0X                      START OF FLAGS
 00001C 00                          2438  1          =CHKFLG     FLAG  ,                       REENTRANT FLAGS. 1/ATOMIC ACTION
 CHKFLG.CHKFACC    80 ONES          2442  1          =           FLAG  CHKFACC                 TRUE = Acc search; FALSE = File
 CHKFLG.CHKFMOD    40 ONES          2447  1          =           FLAG  CHKFMOD                 TRUE = Intent to modify entry
 CHKFLG.CHKFPER    20 ONES          2452  1          =           FLAG  CHKFPER                 Search for permits
 CHKFLG.CHKFINS    10 ONES          2457  1          =           FLAG  CHKFINS                 Insert in progress
 CHKFLG.CHKFDEL    08 ONES          2462  1          =           FLAG  CHKFDEL                 Delete in progress
 CHKFLG.CHKFLEAF   04 ONES          2467  1          =           FLAG  CHKFLEAF                Leaf is being operated on
 CHKFLG.CHKFLFTU   02 ONES          2472  1          =           FLAG  CHKFLFTU                Left sibling needs updating
 CHKFLG.CHKFRHTU   01 ONES          2477  1          =           FLAG  CHKFRHTU                Right sibling needs updating
 00001D 00                          2482  1          =CHKFLG2    FLAG  ,
 CHKFLG2.CHKFBAL   80 ONES          2486  1          =           FLAG  CHKFBAL                 Need to balance (NODBAL)
 CHKFLG2.CHKF3BAL  40 ONES          2491  1          =           FLAG  CHKF3BAL                Min 3 nodes in balance (NODBAL)
 CHKFLG2.CHKFDSRC  20 ONES          2496  1          =           FLAG  CHKFDSRC                Delete source of move (NODBAL)
 CHKFLG2.CHKFDLXT  10 ONES          2501  1          =           FLAG  CHKFDLXT                Del extended data area (NTRYCHG)
 CHKFLG2.CHKFINXT  08 ONES          2506  1          =           FLAG  CHKFINXT                Ins extended data area (NTRYCHG)
 CHKFLG2.CHKFXTAV  04 ONES          2511  1          =           FLAG  CHKFXTAV                Ext data block avail (NTRYCHG)
 CHKFLG2.CHKFNBLK  02 ONES          2516  1          =           FLAG  CHKFNBLK                New block on traverse
                                    2521  1          =CHKFLGS    EQU   CHKSFLG,*-CHKSFLG,C'R'
 00001E                             2522  1          =           DS    AL2                     ** AVAILABLE **
 000020                             2523  1          =CHKPT      DS    0X                      SEARCH POINTERS
 000020                             2524  1          =           CHKPREC PTRS=PAR              Parent pointers
 000020                             2528  1 01-02369 +CHKPARA    DS    A                       | Buffer address
 000024                             2529  1 01-02370 +CHKPARB    DS    AL(BL)                  | Block number
 000026                             2530  1 01-02371 +CHKPARN    DS    AL(OL)                  | Offset
 000028                             2534  1          =           CHKPREC PTRS=LFT              Left sibling pointers
1FILEVCAT (FILEVC) (09:45) (22MAR04) Checkpoint Block Definition                                                            Page   23
0Loc    Object Code    Addr1 Addr2  Stmt Lv Lineno    Source Statement           (Hibal 5, Asmedit 3.3)  HLASM R4.0  2004/03/22 09.45
+___    ______ ____    _____ _____  ____ __ ______    ______ _________
0000028                             2538  1 01-02369 +CHKLFTA    DS    A                       | Buffer address
 00002C                             2539  1 01-02370 +CHKLFTB    DS    AL(BL)                  | Block number
 00002E                             2540  1 01-02371 +CHKLFTN    DS    AL(OL)                  | Offset
 000030                             2544  1          =           CHKPREC PTRS=CUR              Current sibling pointers
 000030                             2548  1 01-02369 +CHKCURA    DS    A                       | Buffer address
 000034                             2549  1 01-02370 +CHKCURB    DS    AL(BL)                  | Block number
 000036                             2550  1 01-02371 +CHKCURN    DS    AL(OL)                  | Offset
 000038                             2554  1          =           CHKPREC PTRS=RHT              Right sibling pointers
 000038                             2558  1 01-02369 +CHKRHTA    DS    A                       | Buffer address
 00003C                             2559  1 01-02370 +CHKRHTB    DS    AL(BL)                  | Block number
 00003E                             2560  1 01-02371 +CHKRHTN    DS    AL(OL)                  | Offset
                                    2564  1          =CHKSPNT    EQU   CHKPT,*-CHKPT,C'R'      LEN OF SEARCH POINTERS
 000040                             2565  1          =           CHKPREC PTRS=NT               Entry pointers
 000040                             2569  1 01-02369 +CHKNTA     DS    A                       | Buffer address
 000044                             2570  1 01-02370 +CHKNTB     DS    AL(BL)                  | Block number
 000046                             2571  1 01-02371 +CHKNTN     DS    AL(OL)                  | Offset
 000048                             2575  1          =           CHKPREC PTRS=WRK              Work pointers
 000048                             2579  1 01-02369 +CHKWRKA    DS    A                       | Buffer address
 00004C                             2580  1 01-02370 +CHKWRKB    DS    AL(BL)                  | Block number
 00004E                             2581  1 01-02371 +CHKWRKN    DS    AL(OL)                  | Offset
 000050                             2585  1          =           CHKPREC PTRS=2WR              2nd work pointers
 000050                             2589  1 01-02369 +CHK2WRA    DS    A                       | Buffer address
 000054                             2590  1 01-02370 +CHK2WRB    DS    AL(BL)                  | Block number
 000056                             2591  1 01-02371 +CHK2WRN    DS    AL(OL)                  | Offset
 000058                             2595  1          =           CHKPREC PTRS=ACC              Account entry pointers
 000058                             2599  1 01-02369 +CHKACCA    DS    A                       | Buffer address
 00005C                             2600  1 01-02370 +CHKACCB    DS    AL(BL)                  | Block number
 00005E                             2601  1 01-02371 +CHKACCN    DS    AL(OL)                  | Offset
 000060                             2605  1          =           CHKPREC PTRS=BAL              Balance-Causing pointers
 000060                             2609  1 01-02369 +CHKBALA    DS    A                       | Buffer address
 000064                             2610  1 01-02370 +CHKBALB    DS    AL(BL)                  | Block number
 000066                             2611  1 01-02371 +CHKBALN    DS    AL(OL)                  | Offset
 000068                             2615  1          =           CHKPREC PTRS=SEQ              Sequential Access pointers
 000068                             2619  1 01-02369 +CHKSEQA    DS    A                       | Buffer address
 00006C                             2620  1 01-02370 +CHKSEQB    DS    AL(BL)                  | Block number
 00006E                             2621  1 01-02371 +CHKSEQN    DS    AL(OL)                  | Offset
 000070                             2625  1          =           CHKPREC PTRS=SEQE             Sequential Access Extended ptrs
 000070                             2629  1 01-02369 +CHKSEQEA   DS    A                       | Buffer address
 000074                             2630  1 01-02370 +CHKSEQEB   DS    AL(BL)                  | Block number
 000076                             2631  1 01-02371 +CHKSEQEN   DS    AL(OL)                  | Offset
                                    2635  1          =CHKAPNT    EQU   CHKPT,*-CHKPT,C'R'      LENGTH OF POINTERS
 000078                             2636  1          =CHKCHKA    DS    A                       POINTER TO RECOVERY CHECKPOINT
 00007C                             2637  1          =CHKBSAD    DS    A                       BALANCE WORK AREA - SOURCE ADDR
 000080                             2638  1          =CHKBDAD    DS    A                       | DESTINATION ADDR
 000084                             2639  1          =CHKBLAD    DS    A                       | LEFT ADDR
 000088                             2640  1          =CHKBCAD    DS    A                       | CURRENT ADDR
 00008C                             2641  1          =CHKBRAD    DS    A                       | RIGHT ADDR
 000090                             2642  1          =CHKBLPA    DS    A                       | LEFT PARENT ADDR
 000094                             2643  1          =CHKBRPA    DS    A                       | RIGHT PARENT ADDR
 000098                             2644  1          =CHKBNPA    DS    A                       | NEW PARENT ADDR
 00009C                             2645  1          =CHKBSLN    DS    Y                       | SOURCE LEN
 00009E                             2646  1          =CHKBSN     DS    Y                       | SOURCE NUMBER OF ENTRYS
 0000A0                             2647  1          =CHKBDLN    DS    Y                       | DESTINATION LEFT LEN
 0000A2                             2648  1          =CHKBLLN    DS    Y                       | LEFT LEN
 0000A4                             2649  1          =CHKBCLN    DS    Y                       | CURRENT LEN
 0000A6                             2650  1          =CHKBRLN    DS    Y                       | RIGHT LEN
1FILEVCAT (FILEVC) (09:45) (22MAR04) Checkpoint Block Definition                                                            Page   24
0Loc    Object Code    Addr1 Addr2  Stmt Lv Lineno    Source Statement           (Hibal 5, Asmedit 3.3)  HLASM R4.0  2004/03/22 09.45
+___    ______ ____    _____ _____  ____ __ ______    ______ _________
00000A8                             2651  1          =CHKBLPL    DS    Y                       | LEFT PARENT LEN
 0000AA                             2652  1          =CHKBRPL    DS    Y                       | RIGHT PARENT LEN
 0000AC                             2653  1          =CHKBNPL    DS    Y                       | NEW PARENT LEN
 0000AE                             2654  1          =CHKSPAC    DS    Y                       | SPACE IN BALANCE
 0000B0                             2655  1          =CHKNODN    DS    Y                       | NUM OF NODES IN BALANCE
 0000B4                             2656  1          =           DS    4A
 0000C4                             2657  1          =CHKFNMSZ   DS    X                       NAME LEN
 0000C5                             2658  1          =CHKFNAME   DS    CL(CFSBNDOT)            ACTUAL NAME (NO DOTS)
 0000EB                             2659  1          =           DS    0SL2(CHKFNAME-CHKFNMSZ-1,CHKFNMSZ-(CHKFNAME-1))
 0000EB                             2660  1          =CHKFRNMS   DS    X                       RENAME LEN
 0000EC                             2661  1          =CHKFRNAM   DS    CL(CFSBNDOT)            ACTUAL RENAME (NO DOTS)
 000112                             2662  1          =           DS    0SL2(CHKFRNAM-CHKFRNMS-1,CHKFRNMS-(CHKFRNAM-1))
 000112                             2663  1          =CHKFIX     DS    0X
                                    2664  1          =*
                                    2665  1          =* VARIABLE INTENTIONS INDICATORS
                                    2666  1          =*
 000112                             2667  1          =CHKISTRT   DS    0H                      START OF INTENTIONS BLOCK
 000112                             2668  1          =CHKITYPE   DS    X                       Type of transaction taking place
 000113                             2669  1          =CHKIFLG    DS    X                       FLAG
 000114                             2670  1          =CHKIFBNO   DS    AL(BL)                  Old_Free_Block_Num
 000116                             2671  1          =CHKIFREB   DS    AL(BL)                  Old_Free_Block
 000118                             2672  1          =CHKINXDB   DS    AL(BL)                  Old_Next_Leaf_Block
                                    2673  1          =CHKICHAN   EQU   CHKIFBNO,*-CHKIFBNO,C'R'         Old_Chain_Data
 00011A                             2674  1          =CHKIVAR    DS    0X                      START OF VAR INTENTIONS FIELD
                                    2675  1          =*
                                    2676  1          =* Insert Tree Root
 00011A                0011A 0011A  2677  1          =           ORG   CHKIVAR
                                    2678  1          =CCHKRTIN   EQU   4                       TRANSACTION TYPE (Insert root)
                                    2679  1          =* Entrys are the same as Entry Insert
                                    2680  1          =*
                                    2681  1          =* Delete Tree Root
 00011A                0011A 0011A  2682  1          =           ORG   CHKIVAR
                                    2683  1          =CCHKRTDL   EQU   8                       TRANSACTION TYPE (Delete root)
                                    2684  1          =* Entrys are the same as Entry Delete
                                    2685  1          =*
                                    2686  1          =* Split Root Node
 00011A                0011A 0011A  2687  1          =           ORG   CHKIVAR
                                    2688  1          =CCHKRTSP   EQU   12                      TRANSACTION TYPE (Split root)
 00011A                             2689  1          =CHKIRSPB   DS    AL(BL)                  Root_Split-Parent_Block
 00011C                             2690  1          =CHKIRSPN   DS    AL(OL)                  Root_Split-Parent_Node_Offset
 00011E                             2691  1          =CHKIRSLB   DS    AL(BL)                  Root_Split-Left_Block
 000120                             2692  1          =CHKIRSLN   DS    AL(OL)                  Root_Split-Left_Node_Offset
 000122                             2693  1          =CHKIRSCB   DS    AL(BL)                  Root_Split-Cur_Block
 000124                             2694  1          =CHKIRSCN   DS    AL(OL)                  Root_Split-Cur_Node_Offset
                                    2695  1          =*
                                    2696  1          =* Collapse Root Node
 000126                00126 0011A  2697  1          =           ORG   CHKIVAR
                                    2698  1          =CCHKRTCL   EQU   16                      TRANSACTION TYPE (Collapse root)
 00011A                             2699  1          =CHKIRCPB   DS    AL(BL)                  Root_Collapse-Parent_Block
 00011C                             2700  1          =CHKIRCPN   DS    AL(OL)                  Root_Collapse-Parent_Node_Offset
 00011E                             2701  1          =CHKIRCLB   DS    AL(BL)                  Root_Collapse-Left_Block
 000120                             2702  1          =CHKIRCLN   DS    AL(OL)                  Root_Collapse-Left_Node_Offset
 000122                             2703  1          =CHKIRCCB   DS    AL(BL)                  Root_Collapse-Cur_Block
 000124                             2704  1          =CHKIRCCN   DS    AL(OL)                  Root_Collapse-Cur_Node_Offset
                                    2705  1          =*
                                    2706  1          =* Balance nodes (No Insert or Delete)
1FILEVCAT (FILEVC) (09:45) (22MAR04) Checkpoint Block Definition                                                            Page   25
0Loc    Object Code    Addr1 Addr2  Stmt Lv Lineno    Source Statement           (Hibal 5, Asmedit 3.3)  HLASM R4.0  2004/03/22 09.45
+___    ______ ____    _____ _____  ____ __ ______    ______ _________
0000126                00126 0011A  2707  1          =           ORG   CHKIVAR
                                    2708  1          =CCHKNBAL   EQU   20                      TRANSACTION TYPE (Balance nodes)
 00011A                             2709  1          =CHKINBPB   DS    AL(BL)                  Node_Balance-Parent_Block
 00011C                             2710  1          =CHKINBPN   DS    AL(OL)                  Node_Balance-Parent_Node_Offset
 00011E                             2711  1          =CHKINBPC   DS    XL(4-BL)                Node_Balance-Parent_Clock_Tag
 000120                             2712  1          =CHKINBLB   DS    AL(BL)                  Node_Balance-Left_Block
 000122                             2713  1          =CHKINBLN   DS    AL(OL)                  Node_Balance-Left_Node_Offset
 000124                             2714  1          =CHKINBCB   DS    AL(BL)                  Node_Balance-Current_Block
 000126                             2715  1          =CHKINBCN   DS    AL(OL)                  Node_Balance-Current_Node_Offset
 000128                             2716  1          =CHKINBRB   DS    AL(BL)                  Node_Balance-Right_Block
 00012A                             2717  1          =CHKINBRN   DS    AL(OL)                  Node_Balance-Right_Node_Offset
                                    2718  1          =*
                                    2719  1          =* Balance nodes (With Insert)
 00012C                0012C 0011A  2720  1          =           ORG   CHKIVAR
                                    2721  1          =CCHKBINS   EQU   24                      TRANSACTION TYPE (Balance - ins)
 00011A                             2722  1          =CHKIBIPB   DS    AL(BL)                  Balance_Insert-Parent_Block
 00011C                             2723  1          =CHKIBIPN   DS    AL(OL)                  Balance_Ins-Parent_Node_Offset
 00011E                             2724  1          =CHKIBIPC   DS    XL(4-BL)                Balance_Insert-Parent_Clock_Tag
 000120                             2725  1          =CHKIBILB   DS    AL(BL)                  Balance_Insert-Left_Block
 000122                             2726  1          =CHKIBILN   DS    AL(OL)                  Balance_Insert-Left_Node_Offset
 000124                             2727  1          =CHKIBICB   DS    AL(BL)                  Balance_Insert-Current_Block
 000126                             2728  1          =CHKIBICN   DS    AL(OL)                  Balance_Ins-Current_Node_Offset
 000128                             2729  1          =CHKIBIRB   DS    AL(BL)                  Balance_Insert-Right_Block
 00012A                             2730  1          =CHKIBIRN   DS    AL(OL)                  Balance_Insert-Right_Node_Offset
 00012C                             2731  1          =CHKIBIRC   DS    XL(4-BL)                Balance_Ins-Right_Clock_Tag
                                    2732  1          =*
                                    2733  1          =* Balance nodes (With Delete)
 00012E                0012E 0011A  2734  1          =           ORG   CHKIVAR
                                    2735  1          =CCHKBDEL   EQU   28                      TRANSACTION TYPE (Balance - del)
 00011A                             2736  1          =CHKIBDPB   DS    AL(BL)                  Balance_Delete-Parent_Block
 00011C                             2737  1          =CHKIBDPN   DS    AL(OL)                  Balance_Del-Parent_Node_Offset
 00011E                             2738  1          =CHKIBDPC   DS    XL(4-BL)                Balance_Delete-Parent_Clock_Tag
 000120                             2739  1          =CHKIBDLB   DS    AL(BL)                  Balance_Delete-Left_Block
 000122                             2740  1          =CHKIBDLN   DS    AL(OL)                  Balance_Delete-Left_Node_Offset
 000124                             2741  1          =CHKIBDCB   DS    AL(BL)                  Balance_Delete-Current_Block
 000126                             2742  1          =CHKIBDCN   DS    AL(OL)                  Balance_Del-Current_Node_Offset
 000128                             2743  1          =CHKIBDOB   DS    AL(BL)                  Balance_Delete-Old(Del)_Block
 00012A                             2744  1          =CHKIBDON   DS    AL(OL)                  Balance_Del-Old(Del)_Node_Offset
 00012C                             2745  1          =CHKIBDOC   DS    XL(4-BL)                Balance_Delete-Old_Clock_Tag
                                    2746  1          =*
                                    2747  1          =* Modify Entry
                                    2748  1          =*   Current, Old, and New fields should be the same for Mod, Ins, and
                                    2749  1          =* Del entry
 00012E                0012E 0011A  2750  1          =           ORG   CHKIVAR
                                    2751  1          =CCHKNTRY   EQU   32                      TRANSACTION TYPE (Entry Mods)
 00011A                             2752  1          =CHKINTCB   DS    AL(BL)                  Entry-Current_Block
 00011C                             2753  1          =CHKINTCN   DS    AL(OL)                  Entry-Current_Node_Offset
 00011E                             2754  1          =CHKINTCT   DS    AL(OL)                  Entry-Current_enTry_Offset
 000120                             2755  1          =CHKINTCL   DS    AL(BL)                  Entry-Current_Link
 000122                             2756  1          =CHKINTCC   DS    XL(4-BL)                Entry-Current_Clock_Tag
 000124                             2757  1          =CHKINTOB   DS    AL(BL)                  Entry-Old_Data_Block
 000126                             2758  1          =CHKINTON   DS    AL(OL)                  Entry-Old_Data_Offset
 000128                             2759  1          =CHKINTOL   DS    AL(BL)                  Entry-Old_Data_Block_Link
 00012A                             2760  1          =CHKINTOC   DS    XL(4-BL)                Entry-Old_Data_Clock_Tag
 00012C                             2761  1          =CHKINTOF   DS    X                       Entry-Old_Data_Block_Flags
 00012D                             2762  1          =           DS    X
1FILEVCAT (FILEVC) (09:45) (22MAR04) Checkpoint Block Definition                                                            Page   26
0Loc    Object Code    Addr1 Addr2  Stmt Lv Lineno    Source Statement           (Hibal 5, Asmedit 3.3)  HLASM R4.0  2004/03/22 09.45
+___    ______ ____    _____ _____  ____ __ ______    ______ _________
000012E                             2763  1          =CHKINTNB   DS    AL(BL)                  Entry-New_Data_Block
 000130                             2764  1          =CHKINTNN   DS    AL(OL)                  Entry-New_Data_Offset
 000132                             2765  1          =CHKINTNL   DS    AL(BL)                  Entry-New_Data_Block_Link
 000134                             2766  1          =CHKINTNC   DS    XL(4-BL)                Entry-New_Data_Clock_Tag
 000136                             2767  1          =CHKINTNF   DS    X                       Entry-New_Data_Block_Flags
                                    2768  1          =*
                                    2769  1          =* Insert Entry
                                    2770  1          =*   Current, Old, and New fields should be the same for Mod, Ins, and
                                    2771  1          =* Del entry
 000137                00137 0011A  2772  1          =           ORG   CHKIVAR
                                    2773  1          =CCHKNTIN   EQU   36                      TRANSACTION TYPE (Insert Entry)
 00011A                             2774  1          =CHKINICB   DS    AL(BL)                  Entry_Insert-Current_Block
 00011C                             2775  1          =CHKINICN   DS    AL(OL)                  Entry_Ins-Current_Node_Offset
 00011E                             2776  1          =CHKINICT   DS    AL(OL)                  Entry_Ins-Current_enTry_Offset
 000120                             2777  1          =CHKINICL   DS    AL(BL)                  Entry_Insert-Current_Link
 000122                             2778  1          =CHKINICC   DS    XL(4-BL)                Entry_Insert-Cur_Clock_Tag
 000124                             2779  1          =CHKINIOB   DS    AL(BL)                  Entry_Insert-Old_Data_Block
 000126                             2780  1          =CHKINION   DS    AL(OL)                  Entry_Insert-Old_Data_Offset
 000128                             2781  1          =CHKINIOL   DS    AL(BL)                  Entry_Insert-Old_Data_Block_Link
 00012A                             2782  1          =CHKINIOC   DS    XL(4-BL)                Entry_Insert-Old_Data_Clock_Tag
 00012C                             2783  1          =CHKINIOF   DS    X                       Entry_Ins-Old_Data_Block_Flags
 00012D                             2784  1          =           DS    X
 00012E                             2785  1          =CHKININB   DS    AL(BL)                  Entry_Insert-New_Data_Block
 000130                             2786  1          =CHKININN   DS    AL(OL)                  Entry_Insert-New_Data_Offset
 000132                             2787  1          =CHKININL   DS    AL(BL)                  Entry_Insert-New_Data_Block_Link
 000134                             2788  1          =CHKININC   DS    XL(4-BL)                Entry_Insert-New_Data_Clock_Tag
 000136                             2789  1          =CHKININF   DS    X                       Entry_Ins-New_Data_Block_Flags
 000137                             2790  1          =           DS    X
 000138                             2791  1          =CHKINIAB   DS    AL(BL)                  Entry_Ins-Acc_Entry_Blk (Files)
 00013A                             2792  1          =CHKINIAN   DS    AL(OL)                  Entry_Ins-Acc_Entry_Node_Offset|
 00013C                             2793  1          =CHKINIAC   DS    XL(4-BL)                Entry_Ins-Acc_Entry_Clock_Tag
                                    2794  1          =*
                                    2795  1          =* Delete Entry
                                    2796  1          =*   Current, Old, and New fields should be the same for Mod, Ins, and
                                    2797  1          =* Del entry
 00013E                0013E 0011A  2798  1          =           ORG   CHKIVAR
                                    2799  1          =CCHKNTDL   EQU   40                      TRANSACTION TYPE (Delete Entry)
 00011A                             2800  1          =CHKINDCB   DS    AL(BL)                  Entry_Delete-Current_Block
 00011C                             2801  1          =CHKINDCN   DS    AL(OL)                  Entry_Delete-Current_Node_Offset
 00011E                             2802  1          =CHKINDCT   DS    AL(OL)                  Entry_Del-Current_enTry_Offset
 000120                             2803  1          =CHKINDCL   DS    AL(BL)                  Entry_Delete-Current_Link
 000122                             2804  1          =CHKINDCC   DS    XL(4-BL)                Entry_Delete-Current_Clock_Tag
 000124                             2805  1          =CHKINDOB   DS    AL(BL)                  Entry_Delete-Old_Data_Block
 000126                             2806  1          =CHKINDON   DS    AL(OL)                  Entry_Delete-Old_Data_Offset
 000128                             2807  1          =CHKINDOL   DS    AL(BL)                  Entry_Del-Old_Data_Block_Link
 00012A                             2808  1          =CHKINDOC   DS    XL(4-BL)                Entry_Delete-Old_Data_Clock_Tag
 00012C                             2809  1          =CHKINDOF   DS    X                       Entry_Del-Old_Data_Block_Flags
 00012D                             2810  1          =           DS    X
 00012E                             2811  1          =CHKINDNB   DS    AL(BL)                  Entry_Delete-New_Data_Block
 000130                             2812  1          =CHKINDNN   DS    AL(OL)                  Entry_Delete-New_Data_Offset
 000132                             2813  1          =CHKINDNL   DS    AL(BL)                  Entry_Del-New_Data_Block_Link
 000134                             2814  1          =CHKINDNC   DS    XL(4-BL)                Entry_Delete-New_Data_Clock_Tag
 000136                             2815  1          =CHKINDNF   DS    X                       Entry_Del-New_Data_Block_Flags
 000137                             2816  1          =           DS    X
 000138                             2817  1          =CHKINDAB   DS    AL(BL)                  Entry_Del-Account_Entry_Block
 00013A                             2818  1          =CHKINDAN   DS    AL(OL)                  Entry_Del-Account_Entry__Offset
1FILEVCAT (FILEVC) (09:45) (22MAR04) Checkpoint Block Definition                                                            Page   27
0Loc    Object Code    Addr1 Addr2  Stmt Lv Lineno    Source Statement           (Hibal 5, Asmedit 3.3)  HLASM R4.0  2004/03/22 09.45
+___    ______ ____    _____ _____  ____ __ ______    ______ _________
000013C                             2819  1          =CHKINDAC   DS    XL(4-BL)                Entry_Delete-Account_Clock_Tag
 00013E                             2820  1          =CHKIND2B   DS    AL(BL)                  Entry_Del-2nd_Entry_Block (Leaf)
 000140                             2821  1          =CHKIND2N   DS    AL(OL)                  Entry_Del-2nd_Entry_Node_Offset
 000142                             2822  1          =CHKIND2C   DS    XL(4-BL)                Entry_Del-2nd_Entry_Clock_Tag
                                    2823  1          =**
 000144                00144 00144  2824  1          =           ORG   ,
 000144                             2825  1          =           DS    4A
                                    2826  1          =CHKIV1LN   EQU   CHKIVAR,*-CHKIVAR,C'N'
                                    2827  1          =CHKIVLV1   EQU   CHKISTRT,*-CHKISTRT,C'R'         1ST VAR INTENTIONS BLK
-000154                             2829  1          =CHKI2ST    DS    0X                      START OF 2ND LEVEL OF INTENTIONS
 000154                             2830  1          =CHKI2TYP   DS    X                       Type of transaction taking place
 000155                             2831  1          =CHKI2FLG   DS    X                       FLAG
 000156                             2832  1          =CHKI2VAR   DS    0X
                                    2833  1          =*
                                    2834  1          =* Balance leaves after non-leaf delete
                                    2835  1          =CCHKDBAL   EQU   4                       TRANSACTION TYPE (Bal after del)
 000156                             2836  1          =CHKIDBAB   DS    AL(BL)                  Delete_Balance-Account_Block
 000158                             2837  1          =CHKIDBAN   DS    AL(OL)                  Delete_Balance-Account_Offset
 00015A                             2838  1          =CHKIDBAS   DS    H                       Del_Balance-Acc_Stack_Pointer
 00015C                             2839  1          =CHKIDBSZ   DS    X                       Delete_Balance-Entry_Name_Size
 00015D                             2840  1          =CHKIDBNM   DS    CL(CFSBNDOT)            Delete_Balance-Entry_Name
 000184                             2841  1          =           DS    4A
                                    2842  1          =CHKIV2LN   EQU   CHKI2VAR,*-CHKI2VAR,C'N'
                                    2843  1          =CHKIVLV2   EQU   CHKISTRT,*-CHKISTRT,C'R'         2ND VAR INTENTIONS BLK
-000194                             2845  1          =CHKI3ST    DS    0X                      START OF 3rd LEVEL OF INTENTIONS
 000194                             2846  1          =CHKI3TYP   DS    X                       Type of transaction taking place
 000195                             2847  1          =CHKI3FLG   DS    X                       FLAG
 000196                             2848  1          =CHKI3VAR   DS    0X
                                    2849  1          =*
                                    2850  1          =* Rename entry
                                    2851  1          =CCHKREN    EQU   4                       TRANSACTION TYPE (Rename entry)
                                    2852  1          =CCHKBREN   EQU   8                       | (Backup Rename - NMR)
 000196                             2853  1          =CHKIERAB   DS    AL(BL)                  Entry_Rename-Account_Block
 000198                             2854  1          =CHKIERAN   DS    AL(OL)                  Entry_Rename-Account_Offset
 00019A                             2855  1          =CHKIERAS   DS    H                       Entry_Rename-Acc_Stack_Pointer
 00019C                             2856  1          =CHKIERCB   DS    AL(BL)                  Entry_Rename-Cur_Block
 00019E                             2857  1          =CHKIERCN   DS    AL(OL)                  Entry_Rename-Cur_Node_Offset
 0001A0                             2858  1          =CHKIERCT   DS    AL(OL)                  Entry_Rename-Cur_enTry_Offset
 0001A2 00                          2859  1          =CHKIERFL   FLAG  ,                       Entry_Rename-Flag
 CHKIERFL.RENLEAF  80 ONES          2863  1          =           FLAG  RENLEAF                 Entry_Rename-Flag-Leaf_Rename
 CHKIERFL.RENRTDL  40 ONES          2868  1          =           FLAG  RENRTDL                 Entry_Rename-Flag-Root_Delete
 0001A3                             2873  1          =CHKIEROS   DS    X                       Entry_Rename-Old_entry_Name_Size
 0001A4                             2874  1          =CHKIERON   DS    CL(CFSBNDOT)            Entry_Rename-Old_entry_Name
 0001CA                             2875  1          =           DS    0SL2(CHKIERON-CHKIEROS-1,CHKIEROS-(CHKIERON-1))
 0001CA                             2876  1          =CHKIERNS   DS    X                       Entry_Rename-New_entry_Name_Size
 0001CB                             2877  1          =CHKIERNN   DS    CL(CFSBNDOT)            Entry_Rename-New_entry_Name
 0001F1                             2878  1          =           DS    0SL2(CHKIERNN-CHKIERNS-1,CHKIERNS-(CHKIERNN-1))
 0001F4                             2879  1          =           DS    4A
                                    2880  1          =CHKIV3LN   EQU   CHKI3VAR,*-CHKI3VAR,C'N'
                                    2881  1          =CHKIVLV3   EQU   CHKISTRT,*-CHKISTRT,C'R'         3rd VAR INTENTIONS BLK
 000204                             2882  1          =           DS    0F
 000204                             2883  1          =CHKINTRY   DS    512X                    Space for largest ntry (fil/acc)
1FILEVCAT (FILEVC) (09:45) (22MAR04) Checkpoint Block Definition                                                            Page   28
0Loc    Object Code    Addr1 Addr2  Stmt Lv Lineno    Source Statement           (Hibal 5, Asmedit 3.3)  HLASM R4.0  2004/03/22 09.45
+___    ______ ____    _____ _____  ____ __ ______    ______ _________
0000404                             2884  1          =           DS                            0F
 000404                             2885  1          =CHKIRNT    DS    512X                    |
 000604                             2886  1          =           DS    0SL2(512-CFSBMXNT)
                                    2887  1          =*
                                    2888  1          =*        Tree traversal stack
                                    2889  1          =*
 000604                             2890  1          =CHKACSP    DS    H                       CUR ACCOUNT STACK POINTER
 000606                             2891  1          =CHKSTKP    DS    H                       STACK POINTER
                                    2892  1          =&CHKDST    SETA  L'CHKDSTK               | ROOM FOR 'CCHKSTK' ENTRYS
                                    2893  1          =CHKSTAK    DS    (CCHKSTK)XL(&CHKDST)    |
 000608                                   1          +CHKSTAK    DS    (CCHKSTK)XL(8)          |
 000640                00640 00640  2894             =         END   ,                       OF CHECKPOINT RECORD
1FILEVCAT (FILEVC) (09:45) (22MAR04) RQB Definition                                                                         Page   29
0Loc    Object Code    Addr1 Addr2  Stmt Lv Lineno    Source Statement           (Hibal 5, Asmedit 3.3)  HLASM R4.0  2004/03/22 09.45
+___    ______ ____    _____ _____  ____ __ ______    ______ _________
0                                   2904     538.              COPY  CATRQBL
                                    2905             =*
                                    2906             =* Portions of an obsolete work area being retained
                                    2907             =* as an interface area for the module FILEVCAT. Used
                                    2908             =* in both online orvyl and offline file utilities.
                                    2909             =*
 000000                00000 000D4  2910             =RQBL     RECORD BEGIN
 000000                             2918  1          =RQB        DS    0F
                                    2919  1          =
 000000 D9D8C2D3                    2920  1          =RQBLRQBL   DC    CL4'RQBL'
 000004                             2921  1          =RQBRPB     DS    A                       RPB POINTER
 000008                             2922  1          =RQBRTN2    DS    A                       INTERNAL DDR RETURN POINT
 00000C                             2923  1          =RQBLR14    DS    A                       REG 14 (CORE)
 000010                             2924  1          =RQBLR1     DS    A                       REG 1 (UTILITY CELL)
0000014                             2926  1          =RQBFBR2    DS    A                       INTERNAL FBR SAVE
 000018                             2927  1          =RQBLBR2    DS    A                       INTERNAL BR SAVE (VCAT)
 00001C                             2928  1          =RQBLWAR    DS    A                       WORK AREA REGISTER
 000020                             2929  1          =RQBLWR2    DS    A                       WR = STACK REGISTER
 000024                             2930  1          =RQBLWR3    DS    A                       SAVE STACK POINTER (IO ROUTINE)
 000028                             2931  1          =RQBLSPTR   DS    A                       SAVE STACK POINTER
                                    2932  1          =
 00002C 00                          2933  1          =RQBLFLG1   FLAG  ,                       1ST FILE FLAG BYTE
 RQBLFLG1.RQFIOER  80 ONES          2937  1          =           FLAG  RQFIOER                 HAVE I/O ERROR
 RQBLFLG1.RQFCLP   40 ONES          2942  1          =           FLAG  RQFCLP                  CLP OPERATION (ATTACH)
 RQBLFLG1.RQFNNOD  20 ONES          2947  1          =           FLAG  RQFNNOD                 NEW NODE IN SEQUENTIAL ACCESS
                                    2952  1          =
 000030                             2953  1          =           DS    0A                      Allign
 000030                             2954  1          =RQBLRNAM   DS    CL(CFSBFLSZ+4)          RENAME NAME (ROOM FOR "ORV.")
 00005C                             2955  1          =RQBLNAME   DS    CL(CFSBFLSZ+4)        * NAME BEING SEARCHED
 000088                00088 00062  2956  1          =           ORG   RQBLNAME+6            * STATUS 103 WORK AREA
 000062                             2957  1          =RQBLMXSP   DS    XL4                     MAX USER SPACE
 000066                             2958  1          =RQBLUSSP   DS    XL4                     USED SPACE
 00006A                0006A 00088  2959  1          =           ORG   ,
0000088                             2961  1          =RQBLWORK   DS    CL16                  * STATUS 2 WORK AREA
 000098                00098 00088  2962  1          =           ORG   RQBLWORK
 000088                             2963  1          =RQBLCRDT   DS    A                       CREATION DATE (SENSE2/CLP)
 00008C                             2964  1          =RQBLLSDT   DS    A                       LAST ACCESS DATE (SENSE2/CLP)
 000090                             2965  1          =RQBLUINF   DS    A                       USER INFO (SENSE2/CLP)
 000094                00094 00088  2966  1          =           ORG   RQBLWORK
 000088                             2967  1          =RQBLCCRD   DS    CL6                     CREATE DATE "YYMMDD" (SENSE2)
 00008E                             2968  1          =RQBLCLSD   DS    CL6                     LAST ACCESS "YYMMDD" (SENSE2)
 000094                00094 00098  2969  1          =           ORG   ,
 000098                             2970  1          =RQBLSAV    DS    (15)A                   Room for reg saves
00000D4                000D4 000D4  2972             =         END   ,
1FILEVCAT (FILEVC) (09:45) (22MAR04) DSKBLK Definition                                                                      Page   30
0Loc    Object Code    Addr1 Addr2  Stmt Lv Lineno    Source Statement           (Hibal 5, Asmedit 3.3)  HLASM R4.0  2004/03/22 09.45
+___    ______ ____    _____ _____  ____ __ ______    ______ _________
0                                   2982     540.              COPY  DSKBLK                  CONTROL BLOCK
                                    2983             =         PRINT  OFF               DSKCHN MACRO
 000000                00000 00010  3002             =DSKBLK   RECORD BEGIN
                                    3010  1          =*  NOTE: THE SIZE OF A DISK HEADER MUST EVENLY DIVIDE INTO
                                    3011  1          =*        THE SIZE OF A DISK BLOCK.
                                    3012  1          =CDSKLLIM   EQU    8,8,C'N'          MINIMUM ALLOC SIZE IN A BLOCK
                                    3013  1          =*  NOTE: THE MINIMUM ALLOC SIZE IN A BLOCK MUST EVENLY DIVIDE INTO
                                    3014  1          =*        THE SIZE OF A DISK BLOCK.
                                    3015  1          =CDSKNIL    EQU    -1                END OF LIST POINTER
                                    3016  1          =CDSKSERR   EQU    4                 NOT ENOUGH SPACE FOR DSKGET
                                    3017  1          =CDSKINER   EQU    8                 BLOCK NOT INITIALIZED ERROR
                                    3018  1          =CDSKLNER   EQU    4                 LENGTH ERROR (DSKFREE)
                                    3019  1          =CDSKADER   EQU    8                 ADDRESS ERROR (DSKFREE)
                                    3020  1          =CDSKOVER   EQU    12                OVERLAP ERROR (DSKFREE)
                                    3021  1          =**
                                    3022  1          =DSKSTART   EQU    *
 000000                             3023  1          =DSKTAG     DS     Y                 IDENT FIELD (2 RAND BYTES)
 000002                             3024  1          =DSKBNUM    DS     Y                  (BLK #)
 000004                             3025  1          =DSKHEAD    DSKCHN PFX=DSK
 000004                             3030  1 01-02994 +DSKSIZ     DS     H                 SIZE OF THIS BLOCK
 000006                             3031  1 01-02995 +DSKFFWD    DS     H                 FIRST FIT FORWARD POINTER
 000008                             3032  1 01-02996 +DSKFBAC    DS     H                 FIRST FIT BACKWARD POINTER
 00000A                             3035  1          =DSKFRE     DS     H                 TOTAL AVAILABLE MEMORY
 00000C                             3036  1          =DSKBLINK   DS     H                 LINK TO NEXT BLOCK
 00000E 00                          3037  1          =DSKFL      FLAG   ,                 TYPE OF BLOCK USING FLAGS
 DSKFL.DSKFINIT    80 ONES          3041  1          =           FLAG   DSKFINIT          <TRUE> = INITIALIZED
 DSKFL.DSKFMOD     40 ONES          3046  1          =           FLAG   DSKFMOD           INDICATES MODIFICATION SINCE READ
 DSKFL.DSKFDLNK    20 ONES          3051  1          =           FLAG   DSKFDLNK          IN AVALIABLE_DATA LINKED LIST
 DSKFL.DSKFDATA    10 ONES          3056  1          =           FLAG   DSKFDATA          BLOCK IS FOR EXTENDED DATA NODES
 DSKFL.DSKFSTAT    08 ONES          3061  1          =           FLAG   DSKFSTAT          USED FOR STATS
0                                   3067  1          =HLEN       EQU    0,*-DSKSTART,C'N'
                                    3068  1          =&HLEN      SETA   ((L'HLEN+L'CDSKLLIM-1)/L'CDSKLLIM)*L'CDSKLLIM
                                    3069  1          =CDSKHSIZ   EQU    &HLEN
                                          1          +CDSKHSIZ   EQU    16
000000F                0000F 00010  3071  1          =           ORG    DSKSTART+CDSKHSIZ
 000010                             3072  1          =DSKDATA    DS     0X
 000010                00010 00010  3073             =         END   ,                  OF DSKBLK RECORD
1FILEVCAT (FILEVC) (09:45) (22MAR04) DSKBLK Chain Definitions                                                               Page   31
0Loc    Object Code    Addr1 Addr2  Stmt Lv Lineno    Source Statement           (Hibal 5, Asmedit 3.3)  HLASM R4.0  2004/03/22 09.45
+___    ______ ____    _____ _____  ____ __ ______    ______ _________
0000000                00000 00006  3083     542.     LAST     RECORD BEGIN
                                    3091  1  543.                DSKCHN PFX=LAS
 000000                             3095  1 01-02994 +LASSIZ     DS     H                 SIZE OF THIS BLOCK
 000002                             3096  1 01-02995 +LASFFWD    DS     H                 FIRST FIT FORWARD POINTER
 000004                             3097  1 01-02996 +LASFBAC    DS     H                 FIRST FIT BACKWARD POINTER
 000006                00006 00006  3100     544.              END   ,
-000000                00000 00006  3110     546.     CURRENT  RECORD BEGIN
                                    3118  1  547.                DSKCHN PFX=CUR
 000000                             3122  1 01-02994 +CURSIZ     DS     H                 SIZE OF THIS BLOCK
 000002                             3123  1 01-02995 +CURFFWD    DS     H                 FIRST FIT FORWARD POINTER
 000004                             3124  1 01-02996 +CURFBAC    DS     H                 FIRST FIT BACKWARD POINTER
 000006                00006 00006  3127     548.              END   ,
-000000                00000 00006  3137     550.     NEWCHAIN RECORD BEGIN
                                    3145  1  551.                DSKCHN PFX=NEW
 000000                             3149  1 01-02994 +NEWSIZ     DS     H                 SIZE OF THIS BLOCK
 000002                             3150  1 01-02995 +NEWFFWD    DS     H                 FIRST FIT FORWARD POINTER
 000004                             3151  1 01-02996 +NEWFBAC    DS     H                 FIRST FIT BACKWARD POINTER
 000006                00006 00006  3154     552.              END   ,
1FILEVCAT (FILEVC) (09:45) (22MAR04) Node Definition                                                                        Page   32
0Loc    Object Code    Addr1 Addr2  Stmt Lv Lineno    Source Statement           (Hibal 5, Asmedit 3.3)  HLASM R4.0  2004/03/22 09.45
+___    ______ ____    _____ _____  ____ __ ______    ______ _________
0                                   3164     554.              COPY  NODE
 000000                00000 00008  3165             =NODE     RECORD BEGIN             INTERNAL NODE RECORD
                                    3173  1          =*   Minimum space allowed in balanced node is set such that there is
                                    3174  1          =* always room for one more insert of maximum length in balanced node.
                                    3175  1          =CNODNLLN   EQU    OL+PL,,C'N'       LENGTH OF NIL ENTRY
                                    3176  1          =**
 000000                             3177  1          =NODSTRT    DS     0X
 000000                             3178  1          =NODLEN     DS     H                 NUMBER OF BYTES IN REC
 000002                             3179  1          =NODNTNUM   DS     H                 NUMBER OF ENTRYS IN NODE
 000004                             3180  1          =NODSPACE   DS     H                 NUMBER OF FREE BYTES
 000006 00                          3181  1          =NODFL      FLAG   ,
 NODFL.NODFACC     80 ONES          3185  1          =           FLAG   NODFACC           SET = ACCOUNT NODE; CLEAR = FILE
 NODFL.NODFLEAF    40 ONES          3190  1          =           FLAG   NODFLEAF          LEAF OF TREE
 NODFL.NODFTRT     20 ONES          3195  1          =           FLAG   NODFTRT           ROOT OF TREE
 NODFL.NODFFUL     10 ONES          3200  1          =           FLAG   NODFFUL           NODE IS FULL
 NODFL.NODFEMT     08 ONES          3205  1          =           FLAG   NODFEMT           NODE IS CLOSE TO EMPTY
 NODFL.NODFSTAT    04 ONES          3210  1          =           FLAG   NODFSTAT          USED FOR STATS
 NODFL.NODFAVA     02 ONES          3215  1          =           FLAG   NODFAVA **NOT USED**  NODE AVAILABLE FOR LOCKING
 NODFL.NODFLOK     01 ONES          3220  1          =           FLAG   NODFLOK **NOT USED**  NODE IS LOCKED
 000007                             3225  1          =           DS     X                 ** AVAILABLE **
 000008                             3226  1          =NODNTRYS   DS     0X                ENTRIES BEGIN HERE
 000008                00008 00008  3227             =         END    ,                 OF NODE RECORD
1FILEVCAT (FILEVC) (09:45) (22MAR04) File System Privilege Flag Codes                                                       Page   33
0Loc    Object Code    Addr1 Addr2  Stmt Lv Lineno    Source Statement           (Hibal 5, Asmedit 3.3)  HLASM R4.0  2004/03/22 09.45
+___    ______ ____    _____ _____  ____ __ ______    ______ _________
0                                   3237     556.              COPY  FPC
                                    3238             =*
                                    3239             =*  FILE SYSTEM PRIVILEGE FLAG CODES
                                    3240             =*
                                    3241             =FPMIXR   EQU   X'80',,C'N'             **RESERVE** IXR MASTER IXR
                                    3242             =FPSIXR   EQU   X'40',,C'N'             **RESERVE** IXR SUPER IXR
                                    3243             =FPZIXR   EQU   X'20',,C'N'             **RESERVE** IXR HYBRID IXR
                                    3244             =FPFIXR   EQU   X'10',,C'N'             **RESERVE** IXR FIRST HYBRID
                                    3245             =FPN      EQU   X'00',,C'N'             PRIMITIVE NO-ACCESS
                                    3246             =FPR      EQU   X'01',,C'N'             PRIMITIVE READ
                                    3247             =FPA      EQU   X'02',,C'N'             PRIMITIVE APPEND
                                    3248             =FPW      EQU   X'04',,C'N'             PRIMITIVE WRITE
                                    3249             =FPE      EQU   X'08',,C'N'             PRIMITIVE EXTEND
                                    3250             =FPS      EQU   X'10',,C'N'             PRIMITIVE SHARE
                                    3251             =
                                    3252             =FRO      EQU   FPR                     READ ONLY
                                    3253             =FRW      EQU   FPR+FPA+FPW             READ & WRITE
                                    3254             =FRP      EQU   FPR+FPA                 READ & APPEND
                                    3255             =FAO      EQU   FPA                     APPEND ONLY
                                    3256             =FSHR     EQU   FPS                     SHARE ONLY
                                    3257             =FAC      EQU   FPE                     EXTEND ONLY
                                    3258             =FPALL    EQU   FRW+FPE                 ALL PRIVILEGES
                                    3259             =FPNONE   EQU   FPN                     NO-ACCESS
                                    3260             =
                                    3261             =FPREAD   EQU   FPR                     READ ONLY
                                    3262             =FPAPPEND EQU   FPA                     APPEND ONLY
                                    3263             =FPWRITE  EQU   FPW                     WRITE ONLY
                                    3264             =FPEXTEND EQU   FPE                     EXTEND
                                    3265             =FPFWRITE EQU   FPR+FPA+FPW             FULL WRITE
1FILEVCAT (FILEVC) (09:45) (22MAR04) Entry Definition                                                                       Page   34
0Loc    Object Code    Addr1 Addr2  Stmt Lv Lineno    Source Statement           (Hibal 5, Asmedit 3.3)  HLASM R4.0  2004/03/22 09.45
+___    ______ ____    _____ _____  ____ __ ______    ______ _________
0                                   3267     558.              COPY  NTRY
 000000                00000 00020  3268             =NTRY     RECORD BEGIN
                                    3276  1          =CNTAMXL    EQU    264                MAx len of account entry
                                    3277  1          =CNTFMXL    EQU    297                Max len of account entry
 000000                             3278  1          =           DS     0S(CFSBMXNT-CNTAMXL),0S(CFSBMXNT-CNTFMXL)
                                    3279  1          =CNTAMXSZ   EQU    5                  Maximum length of account name
                                    3280  1          =CNTFMXSZ   EQU    CFSBNMSZ           Maximum length of file name
                                    3281  1          =**
 000000                             3282  1          =NTRYSTRT   DS     0X
 000000                             3283  1          =NTRYLEN    DS     AL(OL)             Total length of entry
 000002                             3284  1          =NTRYOFFB   DS     AL(BL)             Offspring pointer (block)
 000004                             3285  1          =NTRYOFFN   DS     AL(OL)             = (offset)
 000006                             3286  1          =NTRYDATB   DS     AL(BL)             Data pointer (block)
 000008                             3287  1          =NTRYDATN   DS     AL(OL)             = (offset)
 00000A                             3288  1          =NTRYVAR    DS     0X
                                    3289  1          =*
                                    3290  1          =* FILE CATALOG ACCOUNT ENTRY
                                    3291  1          =*
 00000A                             3292  1          =NTGNAME    DS    XL(CNTAMXSZ)        Account
 00000F                             3293  1          =NTGMXSP    DS    XL3                 Max space allowed for account
 000012                             3294  1          =NTGUSSP    DS    XL3                 Space already used by account
 000015                             3295  1          =NTGFLRB    DS     AL(BL)             File root pointer (block)
 000017                             3296  1          =NTGFLRN    DS     AL(OL)             = (offset)
 000019 00                          3297  1          =NTGFLG     FLAG  ,                   Permits for public
 NTGFLG.NTGFRO     01 ONES          3301  1          =           FLAG  (NTGFRO,FRO)  (PUBLIC)        READ ONLY
 NTGFLG.NTGFRW     07 ONES          3310  1          =           FLAG  (NTGFRW,FRW)  (PUBLIC)        READ & WRITE
 NTGFLG.NTGFRP     03 ONES          3319  1          =           FLAG  (NTGFRP,FRP)  (PUBLIC)        READ & APPEND
 NTGFLG.NTGFAO     02 ONES          3328  1          =           FLAG  (NTGFAO,FAO)  (PUBLIC)        APPEND ONLY
 00001A                             3337  1          =NTGMEMBR   DS    0X                  Members start here
                                    3338  1          =NTRYGR     EQU    NTRYSTRT,*-NTRYSTRT,C'R'
                                    3339  1          =
 00001A                0001A 0000A  3340  1          =           ORG    NTRYVAR
                                    3341  1          =*
                                    3342  1          =* FILE CATALOG FILE ENTRY
                                    3343  1          =*
 00000A                             3344  1          =NTFLOC     DS    XL3                 Location of file index
 00000D                             3345  1          =NTFCNT     DS    XL3                 Number of blocks (non-ixr)
 000010 00                          3346  1          =NTFCODE    FLAG  ,                   File flags
 NTFCODE.NTFCLP    80 ONES          3350  1          =           FLAG  NTFCLP              Only clp can attach this file
 NTFCODE.NTFSFORM  40 ONES          3355  1          =           FLAG  NTFSFORM            User info is format data
 NTFCODE.NTFNOCLP  20 ONES          3360  1          =           FLAG  NTFNOCLP            Clp can't change this file
 NTFCODE.NTFNIXR   10 ONES          3365  1          =           FLAG  NTFNIXR             Non-ixr file
 NTFCODE.NTFSPI    08 ONES          3370  1          =           FLAG  NTFSPI              Only spires can attach file
 NTFCODE.NTFHYBR   04 ONES          3375  1          =           FLAG  NTFHYBR             IXR/Non-IXR hybrid file type
 000011 00                          3380  1          =NTFFLGP    FLAG  ,                   Permits for public
 NTFFLGP.NTFPFRO   01 ONES          3384  1          =           FLAG  (NTFPFRO,FRO)  (PUBLIC)       READ ONLY
 NTFFLGP.NTFPFRW   07 ONES          3393  1          =           FLAG  (NTFPFRW,FRW)  (PUBLIC)       READ & WRITE
 NTFFLGP.NTFPFRP   03 ONES          3402  1          =           FLAG  (NTFPFRP,FRP)  (PUBLIC)       READ & APPEND
 NTFFLGP.NTFPFAO   02 ONES          3411  1          =           FLAG  (NTFPFAO,FAO)  (PUBLIC)       APPEND ONLY
 NTFFLGP.NTFPSHR   10 ONES          3420  1          =           FLAG  (NTFPSHR,FSHR) (PUBLIC)       SHARE ONLY
 000012 00                          3429  1          =NTFFLGO    FLAG  ,                   Permits for owner
 NTFFLGO.NTFOFRO   01 ONES          3433  1          =           FLAG  (NTFOFRO,FRO)  (OWNER)        READ ONLY
 NTFFLGO.NTFOFRW   07 ONES          3442  1          =           FLAG  (NTFOFRW,FRW)  (OWNER)        READ & WRITE
 NTFFLGO.NTFOFAO   02 ONES          3451  1          =           FLAG  (NTFOFAO,FAO)  (OWNER)        APPEND ONLY
 NTFFLGO.NTFOFRP   03 ONES          3460  1          =           FLAG  (NTFOFRP,FRP)  (OWNER)        READ & APPEND
 000013                             3469  1          =NTFCRDT    DS    XL4                 Creation date & time
1FILEVCAT (FILEVC) (09:45) (22MAR04) Entry Definition                                                                       Page   35
0Loc    Object Code    Addr1 Addr2  Stmt Lv Lineno    Source Statement           (Hibal 5, Asmedit 3.3)  HLASM R4.0  2004/03/22 09.45
+___    ______ ____    _____ _____  ____ __ ______    ______ _________
0000017                             3470  1          =NTFLSDT    DS    XL4                 Last reference date & time
 00001B                             3471  1          =NTFUINFO   DS    XL4                 User info - set by control 14
 00001F                             3472  1          =NTFLNMSZ   DS    X                   Length of file name
 000020                             3473  1          =NTFLNAME   DS    0X                  File name here
                                    3474  1          =NTRYFL     EQU    NTRYSTRT,*-NTRYSTRT,C'R'
                                    3475  1          =*        MEMBERS START HERE AFTER FILE NAME
 000020                00020 00020  3476             =         END   ,
-000000                00000 00002  3486             =NTRYXTND RECORD BEGIN
 000000                             3494  1          =NTRYXST    DS     0X                 Start of extended_data
 000000                             3495  1          =NTRYXLEN   DS     AL(OL)             Len of extended_data entry
                                    3496  1          =CNTXFXLN   EQU    *-NTRYXST          Fixed overhead length
 000002                             3497  1          =NTRYXPER   DS     0X                 Permits start here
 000002                00002 00002  3498             =         END    ,
0000000                00000 00007  3508             =NTRYPR   RECORD BEGIN
                                    3516  1          =*
                                    3517  1          =* FILE CATALOG PERMIT ENTRY
                                    3518  1          =*      APPENDED TO ACCOUNT AND FILE ENTRYS
                                    3519  1          =*
 000000                             3520  1          =NTPNAME    DS    XL6                     PERMIT MEMBER ACCOUNT
 000006 00                          3521  1          =NTPFLG     FLAG  ,                       PERMIT FLAGS
 NTPFLG.NTPFRO     01 ONES          3525  1          =           FLAG  (NTPFRO,FRO)                  READ ONLY
 NTPFLG.NTPFRW     07 ONES          3534  1          =           FLAG  (NTPFRW,FRW)                  READ & WRITE
 NTPFLG.NTPFRP     03 ONES          3543  1          =           FLAG  (NTPFRP,FRP)                  READ & APPEND
 NTPFLG.NTPFAO     02 ONES          3552  1          =           FLAG  (NTPFAO,FAO)                  APPEND ONLY
 NTPFLG.NTPFAC     08 ONES          3561  1          =           FLAG  (NTPFAC,FAC)                  PERMIT ACCESS
 000007                00007 00007  3570             =         END   ,
1FILEVCAT (FILEVC) (09:45) (22MAR04) Generate VCAT constants                                                                Page   36
0Loc    Object Code    Addr1 Addr2  Stmt Lv Lineno    Source Statement           (Hibal 5, Asmedit 3.3)  HLASM R4.0  2004/03/22 09.45
+___    ______ ____    _____ _____  ____ __ ______    ______ _________
0                                   3580     560.              GENCAT CONST
                                    3591    01-GENCA +KATLOOK  EQU    0,0,C'N'
                                    3592    01-GENCA +*,          Inspect/Change Entry
                                    3593    01-GENCA +KATINS   EQU    2,2,C'N'
                                    3594    01-GENCA +*,          Insert Entry
                                    3595    01-GENCA +KATDEL   EQU    4,4,C'N'
                                    3596    01-GENCA +*,          Delete Entry
                                    3597    01-GENCA +KATLIS   EQU    6,6,C'N'
                                    3598    01-GENCA +*,          List Entrys
                                    3599    01-GENCA +KATRENAM EQU    8,8,C'N'
                                    3600    01-GENCA +*,          Rename
                                    3601    01-GENCA +KATSEQ   EQU    10,10,C'N'
                                    3602    01-GENCA +*,          Sequential Access
                                    3603    01-GENCA +KATCONT  EQU    12,12,C'N'
                                    3604    01-GENCA +*,          Continue operation
                                    3605    01-GENCA +KATREC   EQU    14,14,C'N'
                                    3606    01-GENCA +*,          Checkpoint Recovery
1FILEVCAT (FILEVC) (09:45) (22MAR04)                                                                                        Page   37
0Loc    Object Code    Addr1 Addr2  Stmt Lv Lineno    Source Statement           (Hibal 5, Asmedit 3.3)  HLASM R4.0  2004/03/22 09.45
+___    ______ ____    _____ _____  ____ __ ______    ______ _________
0000016                00000 046CB  3610     562.     FILEVCAT CSECT ,
 USING  FSB,R10                     3612     563.              USING FSB,FSBR                FSB ADDRESSABILITY
 USING  RQB,R5                      3621     564.              USING RQB,RQBR                RQB ADDRESSABILITY
 USING  CHKPNT,R8                   3630     565.              USING CHKPNT,CHKR             ADDR TO CHECKPOINT BUFFER
 USING  DSKBLK,R2                   3639     566.              USING DSKBLK,DSK              ADDRESSABLILTY TO DISK BLOCKS
1FILEVCAT (FILEVC) (09:45) (22MAR04) Catalog Management Entry                                                               Page   38
0Current Usings:  (DSKBLK,R2) (RQB,R5) (CHKPNT,R8) (FSB,R10)
0Loc    Object Code    Addr1 Addr2  Stmt Lv Lineno    Source Statement           (Hibal 5, Asmedit 3.3)  HLASM R4.0  2004/03/22 09.45
+___    ______ ____    _____ _____  ____ __ ______    ______ _________
0                                   3649     568.     *********************************************************************
                                    3650     569.     * ON ENTRY :                                                        *
                                    3651     570.     *        FSBR points to the proper FSB                              *
                                    3652     571.     *        RQBR points to the proper RQB                              *
                                    3653     572.     *        R14/R1 are set up for the proper entry call                *
                                    3654     573.     *        R2   contains the VCAT request code                        *
                                    3655     574.     *        WR   points to the VFIL/VCAT stack                         *
                                    3656     575.     *********************************************************************
                                    3657     576.              ENTRY VCATENT
 000016 5070 5018            00018  3658     577.     VCATENT  ST    BR,RQBLBR2              SAVE REGS
 00001A 5080 501C            0001C  3659     578.              ST    WAR,RQBLWAR             |
 00001E 5060 D000            00000  3660     579.              DIRSAV FBR,RAR                |
 000022 5090 D004            00004  3663             +
 000026 41D0 D008            00008  3664             +
                                    3665     580.              REGCH (WAR,8),(CHKR,8)
 00002A 5880 A060            00060  3666     581.              L     CHKR,FSBCHKA            CHECKPOINT BUFFER ADDRESS
 00002E 0D70                        3667     582.              BASE  BR                      Common routines addressability
 USING  *,R7
                                    3681     583.     *               R2 = function code (R0,R14,R15 = general parms)
                                    3682     584.              BUGNTRY VCATCOM
 000030                             3684     585.     VCATCOM  LABEL ,
                                    3686     586.              XTRC  R14,R2,CATENT
 000030 1862                        3688     587.              LR    FBR,R2
                                    3689     588.              GENCAT TABLE,REG=FBR          FUNCTION BRANCH TABLE
 000032 5560 7820            00850  3700    01-GENCA +         CL     FBR,=A(8*2-2)           HIGHEST VALID NUM
 000036 4720 7024            00054  3701    01-GENCA +         BH     CATINVAL
 00003A 4866 7014            00044  3702    01-GENCA +         LH     FBR,CATTABL(FBR)
 00003E 5A60 7824            00854  3703    01-GENCA +         A      FBR,=A(FILEVCAT)
 000042 07F6                        3704    01-GENCA +         BR     FBR
 000044                             3705    01-GENCA +CATTABL  DS     0H
 000044 05E8                        3706    01-GENCA +         DC     AL2(CATLOOK-FILEVCAT)
                                    3707    01-GENCA +*,          Inspect/Change Entry
 000046 0642                        3708    01-GENCA +         DC     AL2(CATINS-FILEVCAT)
                                    3709    01-GENCA +*,          Insert Entry
 000048 068C                        3710    01-GENCA +         DC     AL2(CATDEL-FILEVCAT)
                                    3711    01-GENCA +*,          Delete Entry
 00004A 0F48                        3712    01-GENCA +         DC     AL2(CATLIS-FILEVCAT)
                                    3713    01-GENCA +*,          List Entrys
 00004C 0BD2                        3714    01-GENCA +         DC     AL2(CATRENAM-FILEVCAT)
                                    3715    01-GENCA +*,          Rename
 00004E 0D8C                        3716    01-GENCA +         DC     AL2(CATSEQ-FILEVCAT)
                                    3717    01-GENCA +*,          Sequential Access
 000050 0B70                        3718    01-GENCA +         DC     AL2(CATCONT-FILEVCAT)
                                    3719    01-GENCA +*,          Continue operation
 000052 3B54                        3720    01-GENCA +         DC     AL2(CATREC-FILEVCAT)
 000054 5890 7828/0D99       00858  3721    01-GENCA +*,          Checkpoint Recovery
 00005A C3C1E3C3D6C4C540            3729             +
1FILEVCAT (FILEVC) (09:45) (22MAR04) Directory Read                                                                         Page   39
0Current Usings:  (DSKBLK,R2) (RQB,R5) (*,R7) (CHKPNT,R8) (FSB,R10)
0Loc    Object Code    Addr1 Addr2  Stmt Lv Lineno    Source Statement           (Hibal 5, Asmedit 3.3)  HLASM R4.0  2004/03/22 09.45
+___    ______ ____    _____ _____  ____ __ ______    ______ _________
0                                   3731     590.     *********************************************************************
                                    3732     591.     * ON ENTRY: R0  = Relative block # to be read                       *
                                    3733     592.     *           IF R15 ~ 0                                              *
                                    3734     593.     *             Indicates that block is to be locked in memory        *
                                    3735     594.     * ON EXIT:  CC = 0                                                  *
                                    3736     595.     *             DSK = Buffer address                                  *
                                    3737     596.     *             R0  = Relative block # just read                      *
                                    3738     597.     *********************************************************************
                                    3739     598.              BUGNTRY DREAD
 000062 5090 D000            00000  3741     599.     DREAD    DIRSAV RAR
 000066 41D0 D004            00004  3745             +
                                    3746     600.     * Look for block already in core
 00006A 4D90 752A            0055A  3747     601.              LKINCORE (R0),CUR=R4,LAS=R3   LOOK FOR BLOCK IN CORE
 00006E 4770 7074            000A4  3760     602.              IF    ZERO,BEGIN              FOUND
 000072 12FF/4780 704E       0007E  3771  1  603.                IF    (R15,NZ),'OC @R4+CFSBBL(4),=A(VIOLOCK) '
 000078 D603 4004 782C 00004 0085C  3786  1          +
 00007E 4D90 755E            0058E  3791  1  604.                LRUBUF (R4),(R3)              PUT @ END (LEAST RECENTLY USED)
 000082 5420 7830            00860  3801  1  605.                N     DSK,=A(VIOFREE)         ALIGN
 000086 1233/4770 7068       00098  3802  1  606.                IF    (R3,ZERO),BEGIN         COUNT ROOT BLOCK "READS"
 00008C 4140 0001            00001  3816  2  607.                  INCR  QR,FSBCTRRD             ONE MORE ROOT READ
 000090 5E40 A0F8            000F8  3820  2          +
 000094 5040 A0F8            000F8  3821  2          +
 000098                             3822  1  608.                END   ,                       OF COUNT ROOT BLOCK "READS"
 000098 4140 0001            00001  3826  1  609.                INCR  QR,FSBCTCRD             ONE MORE BUFFERED READ
 00009C 5E40 A0FC            000FC  3830  1          +
 0000A0 5040 A0FC            000FC  3831  1          +
 0000A4 7078           000A4 00070  3832     610.              END   ELSE,BEGIN              NOT FOUND
 0000A4 47F0 70F2            00122  3841             +
                                    3847  1  611.     * Not in core, so look for a free buffer
 0000A8 4120 0008            00008  3848  1  612.                LA    R2,CFSBPL               INDEX INCREMENT
 0000AC 5830 A05C            0005C  3849  1  613.                L     R3,FSBBLKTOP            UPPER LIMIT
 0000B0 4140 A06C            0006C  3850  1  614.                LA    R4,FSBBLK1              STARTING ADDRESS
 0000B4 9500 4007      00007        3851  1  615.     DRAVCORE   CLI   @R4+CFSBPL-1,X'00'      IS THIS BUFFER AVAILABLE?
 0000B8 4770 70A8            000D8  3852  1  616.                IF    EQUAL,BEGIN             AVAILABLE BUFFER FOUND
 0000BC 12FF/4780 7098       000C8  3863  2  617.                  IF    (R15,NZ),'OC @R4+CFSBBL(4),=A(VIOLOCK) ' LOCK
 0000C2 D603 4004 782C 00004 0085C  3878  2          +
 0000C8 5000 4000            00000  3883  2  618.                  ST    R0,@R4
 0000CC 4D90 755E            0058E  3884  2  619.                  LRUBUF (R4),(R3)              PUT @ END (LEAST RECENTLY USED)
 0000D0 5420 7830            00860  3894  2  620.                  N     DSK,=A(VIOFREE)         ALIGN
 0000D4 47F0 70BA            000EA  3895  2  621.                  B     DRDDO                   DO READ
 0000D8                             3896  1  622.                END   ,                       OF AVAILABLE BUFFER FOUND
 0000D8 8742 7084            000B4  3900  1  623.                BXLE  R4,R2,DRAVCORE          CONT LOOKING FOR AVAILABLE CORE
                                    3901  1  624.     * No available I/O space.  Indicate error.
 0000DC 5890 7828/0D99       00858  3902  1  625.                ABORT  CATIOS,(FSBR),(RQBR),(R0),(WR)
 0000E2 C3C1E3C9D6E24040            3907  1          +
                                    3908  1  626.     * Read in new block
 0000EA                             3909  1  627.     DRDDO      LABEL ,
                                    3911  1  628.     *         INCR  QR,CTCATRCT             ONE MORE CAT READ
 0000EA 4140 0001            00001  3912  1  629.                INCR  QR,FSBCTRD              |
 0000EE 5E40 A0F4            000F4  3916  1          +
 0000F2 5040 A0F4            000F4  3917  1          +
 0000F6 5020 500C            0000C  3918  1  630.                ST    DSK,RQBLR14             BUFFER ADDRESS
 0000FA 5E00 A044            00044  3919  1  631.                AL    R0,FSBCATSB             ABSOLUTE ORVYL BLOCK NUMBER
 0000FE 5000 5010            00010  3920  1  632.                ST    R0,RQBLR1               |
1FILEVCAT (FILEVC) (09:45) (22MAR04) Directory Read                                                                         Page   40
0Current Usings:  (DSKBLK,R2) (RQB,R5) (*,R7) (CHKPNT,R8) (FSB,R10)
0Loc    Object Code    Addr1 Addr2  Stmt Lv Lineno    Source Statement           (Hibal 5, Asmedit 3.3)  HLASM R4.0  2004/03/22 09.45
+___    ______ ____    _____ _____  ____ __ ______    ______ _________
0                                   3921  1  633.     *        COMIO GETDEVW                 GET AN RPB
 000102 4800 A0AC            000AC  3922  1  634.                LH    R0,FSBDSZ               LENGTH OF WRITE
 000106 58E0 7834            00864  3923  1  635.                COMIO SETREAD1
 00010A 4D90 7586            005B6  3926  1          +
 00010E 9180 502C      0002C        3927  1  636.                IF    RQFIOER,CATRDERR
 000112 4710 7B50            00B80  3939  1          +
                                    3945  1  637.     *        COMIO FREEDEV                 FREE THE RPB
 000116 5800 5010            00010  3946  1  638.                L     R0,RQBLR1               BLOCK NUMBER
 00011A 5B00 A044            00044  3947  1  639.                S     R0,FSBCATSB             | RELATIVE
 00011E 5820 500C            0000C  3948  1  640.                L     DSK,RQBLR14             ADDRESS
 000122                             3949     641.              END   ,                       OF NOT FOUND
 000122 48E0 A0B0            000B0  3953     642.              LH    R14,FSBDTAGX            ADDR OF END DISK TAG
 000126 41EE 2000            00000  3954     643.              LA    R14,DSKBLK(R14)         |
 00012A                             3955     644.              IF    ('CLC DSKTAG(4),@R14+4',NE),BEGIN
 00012A D503 2000 E004 00000 00004  3962             +
 000130 4780 7112            00142  3963             +
 000134 5890 7828/0D99       00858  3968  1  645.                ABORT  CATTAG,(FSBR),(RQBR),(R0),(DSK) TAG MISMATCH
 00013A C3C1E3E3C1C74040            3973  1          +
 000142                             3974     646.              END   ,
 000142 4900 2002            00002  3978     647.              IF    ('CH R0,DSKBNUM',NE),BEGIN
 000146 4780 7128            00158  3986             +
 00014A 5890 7828/0D99       00858  3991  1  648.                ABORT  CATBLK,(FSBR),(RQBR),(R0),(DSK) BLK MISMATCH
 000150 C3C1E3C2D3D24040            3996  1          +
 000158                             3997     649.              END   ,
 000158 1BFF                        4001     650.              CLEAR R15
 00015A 4BD0 7858            00888  4005     651.     DREADX   DIREST RAR
 00015E 5890 D000            00000  4009             +
 000162 12FF                        4010     652.              LTR   R15,R15
 000164 07F9                        4011     653.              BR    RAR
1FILEVCAT (FILEVC) (09:45) (22MAR04) Directory Write                                                                        Page   41
0Current Usings:  (DSKBLK,R2) (RQB,R5) (*,R7) (CHKPNT,R8) (FSB,R10)
0Loc    Object Code    Addr1 Addr2  Stmt Lv Lineno    Source Statement           (Hibal 5, Asmedit 3.3)  HLASM R4.0  2004/03/22 09.45
+___    ______ ____    _____ _____  ____ __ ______    ______ _________
0                                   4013     655.     *********************************************************************
                                    4014     656.     * ON ENTRY: R0  = Relative block # to be written                    *
                                    4015     657.     *           IF R15 = 0 Then this block can be freed                 *
                                    4016     658.     *                      Otherwise the block will stay locked in core *
                                    4017     659.     * ON EXIT:  CC = 0                                                  *
                                    4018     660.     *             Block has been written                                *
                                    4019     661.     *             DSK and RQBLR14 = the address of the I/O buffer       *
                                    4020     662.     *             R0  = Relative block number just written              *
                                    4021     663.     *********************************************************************
                                    4022     664.              BUGNTRY DWRITE
 000166 5090 D000            00000  4024     665.     DWRITE   DIRSAV RAR
 00016A 41D0 D004            00004  4028             +
 00016E 4D90 752A            0055A  4029     666.              LKINCORE (R0),CUR=R4,LAS=R3   LOOK FOR BLOCK IN CORE
 000172 4780 7154            00184  4042     667.              IF    NZ,BEGIN                I/O BUFFER NOT FOUND
 000176 5890 7828/0D99       00858  4053  1  668.                ABORT  CATIONF,(FSBR),(RQBR),(R0),(WR)
 00017C C3C1E3C9D6D5C640            4058  1          +
 000184                             4059     669.              END   ,
 000184 12FF/4770 7160       00190  4063     670.              IF    (R15,ZERO),'NC @R4+CFSBBL(4),=A(VIOFREE) '
 00018A D403 4004 7830 00004 00860  4078             +
 000190 5820 4004            00004  4083     671.              L     DSK,@R4+CFSBBL          GET BUFFER ADDR
 000194 5420 7830            00860  4084     672.              N     DSK,=A(VIOFREE)         |
 000198 4900 2002            00002  4085     673.              IF  ('CH R0,DSKBNUM',NE),BEGIN         BLOCK DOESN'T MATCH
 00019C 4780 717E            001AE  4093             +
 0001A0 5890 7828/0D99       00858  4098  1  674.                ABORT  CATBLK,(FSBR),(RQBR),(R0),(DSK)
 0001A6 C3C1E3C2D3D24040            4103  1          +
 0001AE                             4104     675.              END   ,                       OF BLOCK DOESN'T MATCH
 0001AE 48E0 A0B0            000B0  4108     676.              LH    R14,FSBDTAGX            PUT CLOCK IN AS END TAG
 0001B2 41EE 2000            00000  4109     677.              LA    R14,DSKBLK(R14)         |
 0001B6 B205 E000      00000        4110     678.              STCK  @R14                    |
 0001BA 4000 E006            00006  4111     679.              STH   R0,@R14+6               | REP 2 LOW BYTES BY REL BLK #
 0001BE                             4112     680.              IF    ('CLC @R14+4(2),DSKTAG',EQ),BEGIN        UNIQUE
 0001BE D501 E004 2000 00004 00000  4119             +
 0001C4 4770 719C            001CC  4120             +
 0001C8 9701 E005      00005        4125  1  681.                XI    @R14+5,X'01'            | INVERT Least Sig Bit
 0001CC                             4126     682.              END   ,                       | OF INSURE UNIQUENESS
 0001CC D203 2000 E004 00000 00004  4130     683.              MVC   DSKTAG(4),@R14+4        | DUPLICATE LAST 4 BYTES AS TAG
 0001D2 9140 200E      0000E        4131     684.              IF    ~DSKFMOD,DWRDONE        DON'T WRITE UNMODIFIED BLOCK
 0001D6 47E0 71EA            0021A  4143             +
 0001DA 94BF 200E      0000E        4149     685.              CLEAR DSKFMOD                 MODS TAKEN CARE OF
                                    4156     686.     *         INCR  QR,CTCATWCT             ONE MORE CAT WRITE
 0001DE 4140 0001            00001  4157     687.              INCR  QR,FSBCTWR              |
 0001E2 5E40 A104            00104  4161             +
 0001E6 5040 A104            00104  4162             +
 0001EA 5020 500C            0000C  4163     688.              ST    DSK,RQBLR14             ADDRESS
 0001EE 5E00 A044            00044  4164     689.              AL    R0,FSBCATSB             ABSOULUTE ORVYL BLOCK NUMBER
 0001F2 5000 5010            00010  4165     690.              ST    R0,RQBLR1               |
                                    4166     691.     *        COMIO GETDEVW                 GET AN RPB
 0001F6 4800 A0AC            000AC  4167     692.              LH    R0,FSBDSZ               LENGTH OF WRITE
 0001FA 41F0 0080            00080  4168     693.              LA    R15,FBHTCAT             CATALOG BLOCK ID
 0001FE 58E0 7838            00868  4169     694.              COMIO SETWRIT1
 000202 4D90 7586            005B6  4172             +
 000206 9180 502C      0002C        4173     695.              IF    RQFIOER,CATWRERR
 00020A 4710 7B5E            00B8E  4185             +
                                    4191     696.     *        COMIO FREEDEV                 FREE THE RPB
1FILEVCAT (FILEVC) (09:45) (22MAR04) Directory Write                                                                        Page   42
0Current Usings:  (DSKBLK,R2) (RQB,R5) (*,R7) (CHKPNT,R8) (FSB,R10)
0Loc    Object Code    Addr1 Addr2  Stmt Lv Lineno    Source Statement           (Hibal 5, Asmedit 3.3)  HLASM R4.0  2004/03/22 09.45
+___    ______ ____    _____ _____  ____ __ ______    ______ _________
000020E 5800 5010            00010  4192     697.              L     R0,RQBLR1               BLOCK NUMBER
 000212 5B00 A044            00044  4193     698.              S     R0,FSBCATSB             | RELATIVE
 000216 5820 500C            0000C  4194     699.              L     DSK,RQBLR14             ADDRESS
 00021A 1BFF                        4195     700.     DWRDONE  CLEAR R15                     DSK & R0 are set up
 00021C 4BD0 7858            00888  4200     701.     DWRITEX  DIREST RAR
 000220 5890 D000            00000  4204             +
 000224 12FF                        4205     702.              LTR   R15,R15
 000226 07F9                        4206     703.              BR    RAR
1FILEVCAT (FILEVC) (09:45) (22MAR04) Lock an I/O Buffer                                                                     Page   43
0Current Usings:  (DSKBLK,R2) (RQB,R5) (*,R7) (CHKPNT,R8) (FSB,R10)
0Loc    Object Code    Addr1 Addr2  Stmt Lv Lineno    Source Statement           (Hibal 5, Asmedit 3.3)  HLASM R4.0  2004/03/22 09.45
+___    ______ ____    _____ _____  ____ __ ______    ______ _________
0                                   4208     705.     *********************************************************************
                                    4209     706.     * ON ENTRY: R0  = Relative block number to lock                     *
                                    4210     707.     * ON EXIT:  CC = 0                                                  *
                                    4211     708.     *             The block was locked against future I/O               *
                                    4212     709.     *             R0  = Relative block number just locked               *
                                    4213     710.     *             DSK and RQBLR14 = Buffer addr of block just locked    *
                                    4214     711.     *********************************************************************
 000228 5090 D000            00000  4215     712.     DLOKBUF  DIRSAV RAR
 00022C 41D0 D004            00004  4219             +
                                    4220     713.     * Look for block already in core
 000230 4D90 752A            0055A  4221     714.              LKINCORE (R0),CUR=R4,LAS=R3   LOOK FOR BLOCK IN CORE
 000234 4780 7216            00246  4234     715.              IF    NZ,BEGIN                I/O BUFFER NOT FOUND
 000238 5890 7828/0D99       00858  4245  1  716.                ABORT  CATIONF,(FSBR),(RQBR),(R0),(WR)
 00023E C3C1E3C9D6D5C640            4250  1          +
 000246                             4251     717.              END   ,                       OF I/O BUFFER NOT FOUND
 000246 D603 4004 782C 00004 0085C  4255     718.              OC    @R4+CFSBBL(4),=A(VIOLOCK)        LOCK BUFFER
 00024C 5820 4004            00004  4256     719.              L     DSK,@R4+CFSBBL          BUFFER ADDRESS
 000250 5420 7830            00860  4257     720.              N     DSK,=A(VIOFREE)         |
 000254 5020 500C            0000C  4258     721.              ST    DSK,RQBLR14             |
 000258 1BFF                        4259     722.              CLEAR R15
 00025A 4BD0 7858            00888  4263     723.     DLOKX    DIREST RAR
 00025E 5890 D000            00000  4267             +
 000262 12FF                        4268     724.              LTR   R15,R15
 000264 07F9                        4269     725.              BR    RAR
1FILEVCAT (FILEVC) (09:45) (22MAR04) Release an I/O Buffer                                                                  Page   44
0Current Usings:  (DSKBLK,R2) (RQB,R5) (*,R7) (CHKPNT,R8) (FSB,R10)
0Loc    Object Code    Addr1 Addr2  Stmt Lv Lineno    Source Statement           (Hibal 5, Asmedit 3.3)  HLASM R4.0  2004/03/22 09.45
+___    ______ ____    _____ _____  ____ __ ______    ______ _________
0                                   4271     727.     *********************************************************************
                                    4272     728.     * ON ENTRY: R0  = Relative block number to release                  *
                                    4273     729.     * ON EXIT:  CC = 0                                                  *
                                    4274     730.     *             The block was made available for future I/O           *
                                    4275     731.     *             R0  = Relative block number just released             *
                                    4276     732.     *             DSK and RQBLR14 = Buffer addr of block just released  *
                                    4277     733.     *********************************************************************
                                    4278     734.              BUGNTRY DRELBUF
 000266 5090 D000            00000  4280     735.     DRELBUF  DIRSAV RAR
 00026A 41D0 D004            00004  4284             +
                                    4285     736.     * Look for block already in core
 00026E 4D90 752A            0055A  4286     737.              LKINCORE (R0),CUR=R4,LAS=R3   LOOK FOR BLOCK IN CORE
 000272 4780 7254            00284  4299     738.              IF    NZ,BEGIN                I/O BUFFER NOT FOUND
 000276 5890 7828/0D99       00858  4310  1  739.                ABORT  CATIONF,(FSBR),(RQBR),(R0),(WR)
 00027C C3C1E3C9D6D5C640            4315  1          +
 000284                             4316     740.              END   ,                       OF I/O BUFFER NOT FOUND
 000284 D403 4004 7830 00004 00860  4320     741.              NC    @R4+CFSBBL(4),=A(VIOFREE)        FREE BUFFER
 00028A 5820 4004            00004  4321     742.              L     DSK,@R4+CFSBBL          BUFFER ADDRESS
 00028E 5020 500C            0000C  4322     743.              ST    DSK,RQBLR14             |
 000292 1BFF                        4323     744.     DRELFND  CLEAR R15
 000294 4BD0 7858            00888  4328     745.     DRELX    DIREST RAR
 000298 5890 D000            00000  4332             +
 00029C 12FF                        4333     746.              LTR   R15,R15
 00029E 07F9                        4334     747.              BR    RAR
1FILEVCAT (FILEVC) (09:45) (22MAR04) Nullify Buffer Contents                                                                Page   45
0Current Usings:  (DSKBLK,R2) (RQB,R5) (*,R7) (CHKPNT,R8) (FSB,R10)
0Loc    Object Code    Addr1 Addr2  Stmt Lv Lineno    Source Statement           (Hibal 5, Asmedit 3.3)  HLASM R4.0  2004/03/22 09.45
+___    ______ ____    _____ _____  ____ __ ______    ______ _________
0                                   4336     749.     *********************************************************************
                                    4337     750.     * ON ENTRY:  Addressability to FSB and CHKPNT                       *
                                    4338     751.     * ON EXIT:                                                          *
                                    4339     752.     *            CC = 0                                                 *
                                    4340     753.     *               All buffers are set to available and empty          *
                                    4341     754.     *               The root node is read into its buffer to insure     *
                                    4342     755.     *                 that the copy in memory is the most recent valid  *
                                    4343     756.     *                 copy                                              *
                                    4344     757.     *********************************************************************
                                    4345     758.              BUGNTRY NILBUF
 0002A0 5090 D000            00000  4347     759.     NILBUF   DIRSAV RAR
 0002A4 41D0 D004            00004  4351             +
 0002A8 4120 0008            00008  4352     760.              LA    R2,CFSBPL               EMPTY BUFFER SLOTS (INCR)
 0002AC 5830 A05C            0005C  4353     761.              L     R3,FSBBLKTOP            | UPPER LIMIT
 0002B0 4140 A06C            0006C  4354     762.              LA    R4,FSBBLK1              | STARTING ADDR
 0002B4                             4355     763.     NILLOOP  MVC   @R4(CFSBBL),=&L.AL1(NIL)         BUFFER N EMPTY
 0002B4 D203 4000 783C 00000 0086C                   +
 0002BA D403 4004 7830 00004 00860  4356     764.              NC    @R4+CFSBBL(4),=A(VIOFREE)        BUFFER N AVAILABLE
 0002C0 8742 7284            002B4  4357     765.              BXLE  R4,R2,NILLOOP           DO ALL SLOTS
                                    4358     766.     *         INCR  QR,CTCATRCT             ONE MORE CAT READ
 0002C4 4140 0001            00001  4359     767.              INCR  QR,FSBCTRD              |
 0002C8 5E40 A0F4            000F4  4363             +
 0002CC 5040 A0F4            000F4  4364             +
 0002D0 D203 500C A068 0000C 00068  4365     768.              MVC   RQBLR14,FSBROOTA        ROOT BUFFER ADDRESS
 0002D6 5800 A064            00064  4366     769.              L     R0,FSBROOTB             ROOT BLOCK
 0002DA 5E00 A044            00044  4367     770.              AL    R0,FSBCATSB             ABSOLUTE ORVYL BLOCK NUMBER
 0002DE 5000 5010            00010  4368     771.              ST    R0,RQBLR1               |
                                    4369     772.     *        COMIO GETDEVW                 GET AN RPB
 0002E2 4800 A0AC            000AC  4370     773.              LH    R0,FSBDSZ               LENGTH OF WRITE
 0002E6 58E0 7834            00864  4371     774.              COMIO SETREAD1
 0002EA 4D90 7586            005B6  4374             +
 0002EE 9180 502C      0002C        4375     775.              IF    RQFIOER,CATRDERR
 0002F2 4710 7B50            00B80  4387             +
                                    4393     776.     *        COMIO FREEDEV                 FREE THE RPB
 0002F6 5800 5010            00010  4394     777.              L     R0,RQBLR1               BLOCK NUMBER
 0002FA 5B00 A044            00044  4395     778.              S     R0,FSBCATSB             | RELATIVE
 0002FE 5820 500C            0000C  4396     779.              L     DSK,RQBLR14             ADDRESS
 000302 48E0 A0B0            000B0  4397     780.              LH    R14,FSBDTAGX            ADDR OF END DISK TAG
 000306 41EE 2000            00000  4398     781.              LA    R14,DSKBLK(R14)         |
 00030A                             4399     782.              IF    ('CLC DSKTAG(4),@R14+4',NE),BEGIN
 00030A D503 2000 E004 00000 00004  4406             +
 000310 4780 72F2            00322  4407             +
 000314 5890 7828/0D99       00858  4412  1  783.                ABORT  CATTAG,(FSBR),(RQBR),(R0),(DSK) TAG MISMATCH
 00031A C3C1E3E3C1C74040            4417  1          +
 000322                             4418     784.              END   ,
 000322 4900 2002            00002  4422     785.              IF    ('CH R0,DSKBNUM',NE),BEGIN
 000326 4780 7308            00338  4430             +
 00032A 5890 7828/0D99       00858  4435  1  786.                ABORT  CATBLK,(FSBR),(RQBR),(R0),(DSK) BLK MISMATCH
 000330 C3C1E3C2D3D24040            4440  1          +
 000338                             4441     787.              END   ,
 000338 1BFF                        4445     788.              CLEAR R15
 00033A 4BD0 7858            00888  4449     789.     NILBUFX  DIREST RAR
 00033E 5890 D000            00000  4453             +
 000342 12FF                        4454     790.              LTR   R15,R15
1FILEVCAT (FILEVC) (09:45) (22MAR04) Nullify Buffer Contents                                                                Page   46
0Current Usings:  (DSKBLK,R2) (RQB,R5) (*,R7) (CHKPNT,R8) (FSB,R10)
0Loc    Object Code    Addr1 Addr2  Stmt Lv Lineno    Source Statement           (Hibal 5, Asmedit 3.3)  HLASM R4.0  2004/03/22 09.45
+___    ______ ____    _____ _____  ____ __ ______    ______ _________
0000344 07F9                        4455     791.              BR    RAR
1FILEVCAT (FILEVC) (09:45) (22MAR04) Double Read                                                                            Page   47
0Current Usings:  (DSKBLK,R2) (RQB,R5) (*,R7) (CHKPNT,R8) (FSB,R10)
0Loc    Object Code    Addr1 Addr2  Stmt Lv Lineno    Source Statement           (Hibal 5, Asmedit 3.3)  HLASM R4.0  2004/03/22 09.45
+___    ______ ____    _____ _____  ____ __ ______    ______ _________
0                                   4457     793.     *********************************************************************
                                    4458     794.     * ON ENTRY: R0  = Relative block # in double write block            *
                                    4459     795.     *           R15 = Double write block #                              *
                                    4460     796.     * ON EXIT:  CC = 0                                                  *
                                    4461     797.     *             DSK = Buffer address                                  *
                                    4462     798.     *             R0  = Relative block # just read                      *
                                    4463     799.     *********************************************************************
 000346 5090 D000            00000  4464     800.     DDREAD   DIRSAV RAR
 00034A 41D0 D004            00004  4468             +
                                    4469     801.     * Look for block already in core
 00034E 5900 A064            00064  4470     802.              IF    (R0,EQ,FSBROOTB),BEGIN  READ ROOT EVEN IF IN MEM
 000352 4770 732E            0035E  4482             +
 000356 5820 A068            00068  4487  1  803.                L     DSK,FSBROOTA            BUFFER ADDRESS
 00035A 47F0 7396            003C6  4488  1  804.                B     DDRDDO                  DO READ
 00035E                             4489     805.              END   ,                       OF READ ROOT EVEN IF IN MEM
 00035E 4D90 752A            0055A  4493     806.              LKINCORE (R0),CUR=R4,LAS=R3   LOOK FOR BLOCK IN CORE
 000362 4770 735C            0038C  4506     807.              IF    ZERO,BEGIN              FOUND
 000366 4D90 755E            0058E  4517  1  808.                LRUBUF (R4),(R3)              PUT @ END (LEAST RECENTLY USED)
 00036A 5420 7830            00860  4527  1  809.                N     DSK,=A(VIOFREE)         ALIGN
 00036E 1233/4770 7350       00380  4528  1  810.                IF    (R3,ZERO),BEGIN         COUNT ROOT BLOCK "READS"
 000374 4140 0001            00001  4542  2  811.                  INCR  QR,FSBCTRRD             ONE MORE ROOT READ
 000378 5E40 A0F8            000F8  4546  2          +
 00037C 5040 A0F8            000F8  4547  2          +
 000380                             4548  1  812.                END   ,                       OF COUNT ROOT BLOCK "READS"
 000380 4140 0001            00001  4552  1  813.                INCR  QR,FSBCTCRD             ONE MORE BUFFERED READ
 000384 5E40 A0FC            000FC  4556  1          +
 000388 5040 A0FC            000FC  4557  1          +
 00038C 7360           0038C 00364  4558     814.              END   ELSE,BEGIN              NOT FOUND
 00038C 47F0 73DC            0040C  4567             +
                                    4573  1  815.     * Not in core, so look for a free buffer
 000390 4120 0008            00008  4574  1  816.                LA    R2,CFSBPL               INDEX INCREMENT
 000394 5830 A05C            0005C  4575  1  817.                L     R3,FSBBLKTOP            UPPER LIMIT
 000398 4140 A06C            0006C  4576  1  818.                LA    R4,FSBBLK1              STARTING ADDR
 00039C 9500 4007      00007        4577  1  819.     DDRAVCOR   CLI   @R4+CFSBPL-1,X'00'      IS THIS BUFFER AVAILABLE?
 0003A0 4770 7384            003B4  4578  1  820.                IF    EQUAL,BEGIN             AVAILABLE BUFFER FOUND
 0003A4 5000 4000            00000  4589  2  821.                  ST    R0,@R4
 0003A8 4D90 755E            0058E  4590  2  822.                  LRUBUF (R4),(R3)              PUT @ END (LEAST RECENTLY USED)
 0003AC 5420 7830            00860  4600  2  823.                  N     DSK,=A(VIOFREE)         ALIGN
 0003B0 47F0 7396            003C6  4601  2  824.                  B     DDRDDO                  DO READ
 0003B4                             4602  1  825.                END   ,                       OF AVAILABLE BUFFER FOUND
 0003B4 8742 736C            0039C  4606  1  826.                BXLE  R4,R2,DDRAVCOR          CONT LOOKING FOR AVAILABLE CORE
                                    4607  1  827.     * No available I/O space.  Indicate error.
 0003B8 5890 7828/0D99       00858  4608  1  828.                ABORT  CATIOS,(FSBR),(RQBR),(R0),(WR)
 0003BE C3C1E3C9D6E24040            4613  1          +
                                    4614  1  829.     * Read in new block
 0003C6                             4615  1  830.     DDRDDO     LABEL ,
 0003C6 5000 D000            00000  4617  1  831.                DIRSAV R0                     SAVE BLOCK NUMBER
 0003CA 41D0 D004            00004  4620  1          +
                                    4621  1  832.     *         INCR  QR,CTCATRCT             ONE MORE CAT READ
 0003CE 4140 0001            00001  4622  1  833.                INCR  QR,FSBCTRD              |
 0003D2 5E40 A0F4            000F4  4626  1          +
 0003D6 5040 A0F4            000F4  4627  1          +
 0003DA 5020 500C            0000C  4628  1  834.                ST    DSK,RQBLR14             BUFFER ADDRESS
 0003DE 4AF0 8008            00008  4629  1  835.                AH    R15,CHKDWRT             ABSOLUTE ORVYL BLOCK NUMBER
1FILEVCAT (FILEVC) (09:45) (22MAR04) Double Read                                                                            Page   48
0Current Usings:  (DSKBLK,R2) (RQB,R5) (*,R7) (CHKPNT,R8) (FSB,R10)
0Loc    Object Code    Addr1 Addr2  Stmt Lv Lineno    Source Statement           (Hibal 5, Asmedit 3.3)  HLASM R4.0  2004/03/22 09.45
+___    ______ ____    _____ _____  ____ __ ______    ______ _________
00003E2 06F0                        4630  1  836.                DECR  R15                     | RANGE 0..N-1
 0003E4 5EF0 A044            00044  4632  1  837.                AL    R15,FSBCATSB            |
 0003E8 50F0 5010            00010  4633  1  838.                ST    R15,RQBLR1              |
                                    4634  1  839.     *        COMIO GETDEVW                 GET AN RPB
 0003EC 4800 A0AC            000AC  4635  1  840.                LH    R0,FSBDSZ               LENGTH OF WRITE
 0003F0 58E0 7834            00864  4636  1  841.                COMIO SETREAD1
 0003F4 4D90 7586            005B6  4639  1          +
 0003F8 9180 502C      0002C        4640  1  842.                IF    RQFIOER,CATRDERR
 0003FC 4710 7B50            00B80  4652  1          +
                                    4658  1  843.     *        COMIO FREEDEV                 FREE THE RPB
 000400 4BD0 7858            00888  4659  1  844.                DIREST R0                     RESTORE BLOCK NUMBER
 000404 5800 D000            00000  4662  1          +
 000408 5820 500C            0000C  4663  1  845.                L     DSK,RQBLR14             ADDRESS
 00040C                             4664     846.              END   ,                       OF NOT FOUND
 00040C 48E0 A0B0            000B0  4668     847.              LH    R14,FSBDTAGX            ADDR OF END DISK TAG
 000410 41EE 2000            00000  4669     848.              LA    R14,DSKBLK(R14)         |
 000414                             4670     849.              IF    ('CLC DSKTAG(4),@R14+4',NE),BEGIN
 000414 D503 2000 E004 00000 00004  4677             +
 00041A 4780 73FC            0042C  4678             +
 00041E 5890 7828/0D99       00858  4683  1  850.                ABORT  CATDTAG,(FSBR),(RQBR),(R0),(DSK)        TAG MISMATCH
 000424 C3C1E3C4E3C1C740            4688  1          +
 00042C                             4689     851.              END   ,
 00042C 4900 2002            00002  4693     852.              IF    ('CH R0,DSKBNUM',NE),BEGIN
 000430 4780 7412            00442  4701             +
 000434 5890 7828/0D99       00858  4706  1  853.                ABORT  CATDBLK,(FSBR),(RQBR),(R0),(DSK)        BLK MISMATCH
 00043A C3C1E3C4C2D3D240            4711  1          +
 000442                             4712     854.              END   ,
 000442 1BFF                        4716     855.              CLEAR R15
 000444 4BD0 7858            00888  4720     856.     DDREADX  DIREST RAR
 000448 5890 D000            00000  4724             +
 00044C 12FF                        4725     857.              LTR   R15,R15
 00044E 07F9                        4726     858.              BR    RAR
1FILEVCAT (FILEVC) (09:45) (22MAR04) Double Write                                                                           Page   49
0Current Usings:  (DSKBLK,R2) (RQB,R5) (*,R7) (CHKPNT,R8) (FSB,R10)
0Loc    Object Code    Addr1 Addr2  Stmt Lv Lineno    Source Statement           (Hibal 5, Asmedit 3.3)  HLASM R4.0  2004/03/22 09.45
+___    ______ ____    _____ _____  ____ __ ______    ______ _________
0                                   4728     860.     *********************************************************************
                                    4729     861.     * ON ENTRY: R0  = Relative block # to be written                    *
                                    4730     862.     *           R15 = Double write block number (1..3)                  *
                                    4731     863.     * ON EXIT:  CC = 0                                                  *
                                    4732     864.     *             Block has been written                                *
                                    4733     865.     *             DSK and RQBLR14 = the address of the I/O buffer       *
                                    4734     866.     *********************************************************************
 000450 5090 D000            00000  4735     867.     DDWRITE  DIRSAV RAR
 000454 41D0 D004            00004  4739             +
                                    4740     868.     * Look for block already in core
 000458 4D90 752A            0055A  4741     869.              LKINCORE (R0),CUR=R4,LAS=R3   LOOK FOR BLOCK IN CORE
 00045C 4780 743E            0046E  4754     870.              IF    NZ,BEGIN                I/O BUFFER NOT FOUND
 000460 5890 7828/0D99       00858  4765  1  871.                ABORT  CATDIONF,(FSBR),(RQBR),(R0),(WR)
 000466 C3C1E3C4C9D6D5C6            4770  1          +
 00046E                             4771     872.              END   ,                       OF I/O BUFFER NOT FOUND
 00046E 5820 4004            00004  4775     873.              L     DSK,@R4+CFSBBL          BUFFER ADDRESS
 000472 5420 7830            00860  4776     874.              N     DSK,=A(VIOFREE)         | ALIGN
 000476 4900 2002            00002  4777     875.              IF ('CH R0,DSKBNUM',NE),BEGIN BLOCK DOESN'T MATCH
 00047A 4780 745C            0048C  4785             +
 00047E 5890 7828/0D99       00858  4790  1  876.                ABORT  CATBLK,(FSBR),(RQBR),(R0),(DSK)
 000484 C3C1E3C2D3D24040            4795  1          +
 00048C                             4796     877.              END   ,                       OF BLOCK DOESN'T MATCH
 00048C 48E0 A0B0            000B0  4800     878.              LH    R14,FSBDTAGX            PUT CLOCK IN AS END TAG
 000490 41EE 2000            00000  4801     879.              LA    R14,DSKBLK(R14)         |
 000494 B205 E000      00000        4802     880.              STCK  @R14                    |
 000498 4000 E006            00006  4803     881.              STH   R0,@R14+6               | 2 LOW BYTES = REL BLOCK #
 00049C D203 2000 E004 00000 00004  4804     882.              MVC   DSKTAG(4),@R14+4        | DUPLICATE LAST 4 BYTES AS TAG
                                    4805     883.              AIF   (&NOBACK).DDWRISK
                                    4806     884.     *         INCR  QR,CTCATWCT             ONE MORE CAT WRITE
 0004A2 4140 0001            00001  4807     885.              INCR  QR,FSBCTDWR             |
 0004A6 5E40 A110            00110  4811             +
 0004AA 5040 A110            00110  4812             +
 0004AE 5020 500C            0000C  4813     886.              ST    DSK,RQBLR14             ADDRESS
 0004B2 06F0                        4814     887.              DECR  R15                     DOUBLE WRITE - RANGE (0..N-1)
 0004B4 4AF0 8008            00008  4816     888.              AH    R15,CHKDWRT             |
 0004B8 5EF0 A044            00044  4817     889.              AL    R15,FSBCATSB            ABSOULUTE ORVYL BLOCK NUMBER
 0004BC 50F0 5010            00010  4818     890.              ST    R15,RQBLR1              |
                                    4819     891.     *        COMIO GETDEVW                 GET AN RPB
 0004C0 4800 A0AC            000AC  4820     892.              LH    R0,FSBDSZ               LENGTH OF WRITE
 0004C4 41F0 0080            00080  4821     893.              LA    R15,FBHTCAT             CATALOG BLOCK ID
 0004C8 58E0 7838            00868  4822     894.              COMIO SETWRIT1
 0004CC 4D90 7586            005B6  4825             +
 0004D0 9180 502C      0002C        4826     895.              IF    RQFIOER,CATWRERR
 0004D4 4710 7B5E            00B8E  4838             +
                                    4844     896.     *        COMIO FREEDEV                 FREE THE RPB
 0004D8 5800 5010            00010  4845     897.              L     R0,RQBLR1               BLOCK NUMBER
 0004DC 5B00 A044            00044  4846     898.              S     R0,FSBCATSB             | RELATIVE
 0004E0 5820 500C            0000C  4847     899.              L     DSK,RQBLR14             ADDRESS
                                    4848     900.     .DDWRISK ANOP  ,
 0004E4 1BFF                        4849     901.              CLEAR R15
 0004E6 4BD0 7858            00888  4853     902.     DDWRITEX DIREST RAR
 0004EA 5890 D000            00000  4857             +
 0004EE 12FF                        4858     903.              LTR   R15,R15
 0004F0 07F9                        4859     904.              BR    RAR
1FILEVCAT (FILEVC) (09:45) (22MAR04) Write Intentions Block                                                                 Page   50
0Current Usings:  (DSKBLK,R2) (RQB,R5) (*,R7) (CHKPNT,R8) (FSB,R10)
0Loc    Object Code    Addr1 Addr2  Stmt Lv Lineno    Source Statement           (Hibal 5, Asmedit 3.3)  HLASM R4.0  2004/03/22 09.45
+___    ______ ____    _____ _____  ____ __ ______    ______ _________
0                                   4861     906.     *********************************************************************
                                    4862     907.     * ON ENTRY: Addressability to FSB, CHKPNT, RQB                      *
                                    4863     908.     * ON EXIT:  CC = 0                                                  *
                                    4864     909.     *             Intentions block has been written                     *
                                    4865     910.     *********************************************************************
 0004F2 5090 D000            00000  4866     911.     IWRITE   DIRSAV RAR
 0004F6 41D0 D004            00004  4870             +
 0004FA 1B00                        4871     912.              CLEAR R0                      BLOCK 0 = INTENTIONS
 0004FC 1828                        4875     913.              LR    DSK,CHKR                BUFFER ADDRESS
 0004FE B205 8000      00000        4876     914.              STCK  CHKTIME                 INDICATE TIME OF WRITE
 000502 48E0 A0B0            000B0  4877     915.              LH    R14,FSBDTAGX            PUT CLOCK IN AS END TAG
 000506 41EE 2000            00000  4878     916.              LA    R14,DSKBLK(R14)         |
 00050A D207 E000 8000 00000 00000  4879     917.              MVC   @R14(8),CHKTIME         |
                                    4880     918.     *         INCR  QR,CTCATWCT             ONE MORE CAT WRITE
 000510 4140 0001            00001  4881     919.              INCR  QR,FSBCTIWR             | INTENTIONS
 000514 5E40 A108            00108  4885             +
 000518 5040 A108            00108  4886             +
 00051C 5020 500C            0000C  4887     920.              ST    DSK,RQBLR14             ADDRESS
 000520 5E00 A044            00044  4888     921.              AL    R0,FSBCATSB             ABSOULUTE ORVYL BLOCK NUMBER
 000524 5000 5010            00010  4889     922.              ST    R0,RQBLR1               |
                                    4890     923.     *        COMIO GETDEVW                 GET AN RPB
 000528 4800 A0AC            000AC  4891     924.              LH    R0,FSBDSZ               LENGTH OF WRITE
 00052C 41F0 0080            00080  4892     925.              LA    R15,FBHTCAT             CATALOG BLOCK ID
 000530 58E0 7838            00868  4893     926.              COMIO SETWRIT1
 000534 4D90 7586            005B6  4896             +
 000538 9180 502C      0002C        4897     927.              IF    RQFIOER,CATWRERR
 00053C 4710 7B5E            00B8E  4909             +
                                    4915     928.     *        COMIO FREEDEV                 FREE THE RPB
 000540 5800 5010            00010  4916     929.              L     R0,RQBLR1               BLOCK NUMBER
 000544 5B00 A044            00044  4917     930.              S     R0,FSBCATSB             | RELATIVE
 000548 5820 500C            0000C  4918     931.              L     DSK,RQBLR14             ADDRESS
 00054C 1BFF                        4919     932.              CLEAR R15
 00054E 4BD0 7858            00888  4923     933.     IWRITEX  DIREST RAR
 000552 5890 D000            00000  4927             +
 000556 12FF                        4928     934.              LTR   R15,R15
 000558 07F9                        4929     935.              BR    RAR
1FILEVCAT (FILEVC) (09:45) (22MAR04) I/O Buffer management                                                                  Page   51
0Current Usings:  (DSKBLK,R2) (RQB,R5) (*,R7) (CHKPNT,R8) (FSB,R10)
0Loc    Object Code    Addr1 Addr2  Stmt Lv Lineno    Source Statement           (Hibal 5, Asmedit 3.3)  HLASM R4.0  2004/03/22 09.45
+___    ______ ____    _____ _____  ____ __ ______    ______ _________
0                                   4931     937.     *********************************************************************
                                    4932     938.     * ON ENTRY                                                          *
                                    4933     939.     *       R0 contains the block number to look for                    *
                                    4934     940.     * ON EXIT                                                           *
                                    4935     941.     *       R0 unchanged                                                *
                                    4936     942.     *       IF CC = 0                                                   *
                                    4937     943.     *         R3 points to the last slot                                *
                                    4938     944.     *            IF R3 = 0, the block is the root block                 *
                                    4939     945.     *         R4 points to the current slot                             *
                                    4940     946.     *       IF CC ~ 0                                                   *
                                    4941     947.     *         Block was not found                                       *
                                    4942     948.     *********************************************************************
 00055A                             4943     949.     LKINCORE LABEL ,
 00055A 1BEE                        4945     950.              CLEAR R14                     ASSUME FOUND - UNTIL NOT
 00055C 5900 A064            00064  4949     951.              IF    (R0,EQ,FSBROOTB),BEGIN  ROOT BLOCK?
 000560 4770 753A            0056A  4961             +
 000564 4140 A064            00064  4966  1  952.                LA    R4,FSBROOTB             SLOT ADDRESS
 000568 1B33                        4967  1  953.                CLEAR R3                      | INDICATE ROOT
 00056A                             4971     954.              END   ,                       OF ROOT BLOCK?
 00056A 753E           0056A 00562  4975     955.              ELSE  BEGIN                   NOT ROOT BLOCK
 00056A 47F0 755A            0058A  4980             +
 00056E 4120 0008            00008  4986  1  956.                LA    R2,CFSBPL               INDEX INCREMENT
 000572 5830 A05C            0005C  4987  1  957.                L     R3,FSBBLKTOP            UPPER LIMIT
 000576 4140 A06C            0006C  4988  1  958.                LA    R4,FSBBLK1              STARTING ADDR
 00057A 5900 4000            00000  4989  1  959.     INCORE     C     R0,@R4                  IS THIS THE DESIRED BLOCK?
 00057E 4780 755A            0058A  4990  1  960.                IF    EQUAL,EXIT              BUFFER FOUND IN CORE
 000582 8742 754A            0057A  5004  1  961.                BXLE  R4,R2,INCORE            CONT LOOKING FOR BUF IN CORE
 000586 41E0 0001            00001  5005  1  962.                LA    R14,1                   INDICATE NOT FOUND
 00058A                             5006     963.              END   ,                       OF NOT ROOT BLOCK
 00058A 12EE                        5010     964.              LTR   R14,R14
 00058C 07F9                        5011     965.              BR    RAR
1FILEVCAT (FILEVC) (09:45) (22MAR04) I/O Buffer management                                                                  Page   52
0Current Usings:  (DSKBLK,R2) (RQB,R5) (*,R7) (CHKPNT,R8) (FSB,R10)
0Loc    Object Code    Addr1 Addr2  Stmt Lv Lineno    Source Statement           (Hibal 5, Asmedit 3.3)  HLASM R4.0  2004/03/22 09.45
+___    ______ ____    _____ _____  ____ __ ______    ______ _________
0                                   5013     967.     *********************************************************************
                                    5014     968.     * ON ENTRY                                                          *
                                    5015     969.     *       R3 points to the last slot                                  *
                                    5016     970.     *          IF R3 = 0, it is root, so dont move it                   *
                                    5017     971.     *       R4 points to the current slot                               *
                                    5018     972.     * ON EXIT                                                           *
                                    5019     973.     *       R3 points to current slot (R3 = 0 if root block)            *
                                    5020     974.     *       DSK contains the buffer address (not aligned)               *
                                    5021     975.     *********************************************************************
 00058E                             5022     976.     LRUBUF   LABEL ,
 00058E 5820 4004            00004  5024     977.              L     DSK,@R4+CFSBBL          GET ADDRESS OF BUFFER
 000592 5800 4000            00000  5025     978.              L     R0,@R4                  | AND BLOCK
 000596 1233/4780 7584       005B4  5026     979.              IF    ((R3,NZ),AND,(R3,NE,R4)),BEGIN
 00059C 1934/4780 7584       005B4  5048             +
 0005A2 1813                        5054  1  980.                LR    R1,R3                   MOVE THIS TO END OF LIST (LRU)
 0005A4 1B14                        5055  1  981.                SR    R1,R4                   | LENGTH OF SHIFT
 0005A6 0610/4410 785C       0088C  5056  1  982.                DEX   R1,'MVC @R4(0),@R4+CFSBPL '
 00088C D200 4000 4008 00000 00008  5067  1          +
 0005AC 5020 3004            00004  5075  1  983.                ST    DSK,@R3+CFSBBL          PUT CURRENT BUFFER PTR AT END
 0005B0 5000 3000            00000  5076  1  984.                ST    R0,@R3                  | AND BLOCK NUMBER
 0005B4                             5077     985.              END   ,
 0005B4 07F9                        5081     986.              BR    RAR
1FILEVCAT (FILEVC) (09:45) (22MAR04) Return to Common I/O                                                                   Page   53
0Current Usings:  (DSKBLK,R2) (RQB,R5) (*,R7) (CHKPNT,R8) (FSB,R10)
0Loc    Object Code    Addr1 Addr2  Stmt Lv Lineno    Source Statement           (Hibal 5, Asmedit 3.3)  HLASM R4.0  2004/03/22 09.45
+___    ______ ____    _____ _____  ____ __ ______    ______ _________
00005B6                             5083     988.     COMIO    LABEL ,
 0005B6 5070 D000            00000  5085     989.              DIRSAV BR,RAR                 SAVE REGS (FBR saved auto)
 0005BA 5090 D004            00004  5088             +
 0005BE 41D0 D008            00008  5089             +
 0005C2 5870 5018            00018  5090     990.              L     BR,RQBLBR2              VFIL REGS
 0005C6 5880 501C            0001C  5091     991.              L     WAR,RQBLWAR             |
 0005CA 0D9E                        5092     992.              BASR  RAR,R14                 OFF TO COMMON
-0005CC 5080 501C            0001C  5094     994.              ST    WAR,RQBLWAR             |
 0005D0 5070 5018            00018  5095     995.              ST    BR,RQBLBR2              |
 0005D4 4170 0008/1BD7       00008  5096     996.              DIREST BR,RAR,ADDR=NO         BACK FROM COMMON - SAVE REGS
 0005DA 5870 D000            00000  5100             +
 0005DE 5890 D004            00004  5101             +
                                    5102     997.              REGCH (WAR,8),(CHKR,8)
 0005E2 5880 A060            00060  5103     998.              L     CHKR,FSBCHKA            RESTORE CHECKPOINT ADDR
 0005E6 07F9                        5104     999.              BR    RAR
1FILEVCAT (FILEVC) (09:45) (22MAR04) Catalog Driver Routines - Entry Look                                                   Page   54
0Current Usings:  (DSKBLK,R2) (RQB,R5) (*,R7) (CHKPNT,R8) (FSB,R10)
0Loc    Object Code    Addr1 Addr2  Stmt Lv Lineno    Source Statement           (Hibal 5, Asmedit 3.3)  HLASM R4.0  2004/03/22 09.45
+___    ______ ____    _____ _____  ____ __ ______    ______ _________
0                                   5106    1001.     *********************************************************************
                                    5107    1002.     * On entry: RQBLNAME contains the search key                        *
                                    5108    1003.     *             IF R0 = 0: Indicates an account search                *
                                    5109    1004.     *             IF R0 = 4: Indicates a file search                    *
                                    5110    1005.     *           IF R14 = 0: Only return fixed portions of entries       *
                                    5111    1006.     *           IF R14 ~= 0: Variable permits are returned in entry     *
                                    5112    1007.     *             copy.                                                 *
                                    5113    1008.     *             THEN IF R15 ~ 0: Indicates an attempt to modify an    *
                                    5114    1009.     *               entry length (note that this is only valid for      *
                                    5115    1010.     *               a permit-included search)                           *
                                    5116    1011.     * ON RETURN TO CALLER:                                              *
                                    5117    1012.     *      IF CC = 0                                                    *
                                    5118    1013.     *        R1  = Address of the requested entry                       *
                                    5119    1014.     *        R0  = Size of the entry                                    *
                                    5120    1015.     *        RAR = Address to return to after working w/ entry          *
                                    5121    1016.     *      IF CC ~ 0                                                    *
                                    5122    1017.     *        IF R15 =  4, Entry not found                               *
                                    5123    1018.     *        IF R15 = 28, No more room in catalog                       *
                                    5124    1019.     *        No subsequent return                                       *
                                    5125    1020.     * ON SUBSEQUENT RETURN FROM CALLER:                                 *
                                    5126    1021.     *      RAR = Return Address                                         *
                                    5127    1022.     *      IF R15 = 0                                                   *
                                    5128    1023.     *        The entry was not modified, no rewrite needed              *
                                    5129    1024.     *      IF R15 > 0                                                   *
                                    5130    1025.     *        The entry was modified but the size of the entry is the    *
                                    5131    1026.     *          same, so simply rewrite the block                        *
                                    5132    1027.     *      IF R15 < 0                                                   *
                                    5133    1028.     *        The entry was modified and the size was changed.           *
                                    5134    1029.     *        R1  = Address of new entry (in a buffer)                   *
                                    5135    1030.     *        R0  = Size of new entry                                    *
                                    5136    1031.     * ON FINAL RETURN TO CALLER:                                        *
                                    5137    1032.     *      IF CC = 0                                                    *
                                    5138    1033.     *        Action complete                                            *
                                    5139    1034.     *      IF CC ~ 0                                                    *
                                    5140    1035.     *        IF R15 = 16, Invalid entry size                            *
                                    5141    1036.     *        IF R15 = 20, Can't modify entry len w/out MODS mode        *
                                    5142    1037.     *        IF R15 = 28, No more room in catalog                       *
                                    5143    1038.     *********************************************************************
 0005E8                             5144    1039.     CATLOOK  CATENT ,
                                    5147    1040.
 0005E8 4D90 7862            00892  5148    1041.              LCALL CATNAME                 SETUP NAME (NO DOTS & LEN)
 0005EC                             5150    1042.              CLEAR CHKFLGS                 NEW SEARCH
 0005EC D701 801C 801C 0001C 0001C  5156             +
 0005F2 12EE/4780 75E6       00616  5157    1043.              IF    (R14,NZ),BEGIN          SET PERMITS = YES
 0005F8 9620 801C      0001C        5171  1 1044.                SET   CHKFPER                 |
 0005FC 12FF/4780 75E6       00616  5177  1 1045.                IF    (R15,NZ),BEGIN          SET LEN_MOD = YES
 000602 910C A009      00009        5191  2 1046.                  IF    (FSBCATNLM+FSBCATNIN),BEGIN      Inserts Blocked
 000606 4780 75E2            00612  5204  2          +
 00060A 41F0 001C            0001C  5209  3 1047.                    LA    R15,DIRNMR              |
 00060E 4DE0 7AEA            00B1A  5210  3 1048.                    BAS   R14,CATERROR            |
 000612                             5211  2 1049.                  END   ,                       OF Inserts Bloked
 000612 9658 801C      0001C        5215  2 1050.                  SET   CHKFMOD+CHKFINS+CHKFDEL
 000616                             5228  1 1051.                END   ,                       OF SET LEN_MOD = YES
 000616                             5232    1052.              END   ,                       OF SET PERMITS = YES
1FILEVCAT (FILEVC) (09:45) (22MAR04) Catalog Driver Routines - Entry Look                                                   Page   55
0Current Usings:  (DSKBLK,R2) (RQB,R5) (*,R7) (CHKPNT,R8) (FSB,R10)
0Loc    Object Code    Addr1 Addr2  Stmt Lv Lineno    Source Statement           (Hibal 5, Asmedit 3.3)  HLASM R4.0  2004/03/22 09.45
+___    ______ ____    _____ _____  ____ __ ______    ______ _________
0000616 4D90 789A            008CA  5236    1053.              LCALL CATSRCH                 LOOK FOR ENTRY
 00061A 4780 75F6            00626  5238    1054.              IF    NZ,BEGIN                ENTRY NOT FOUND
 00061E 41F0 0004            00004  5249  1 1055.                LA    R15,DIRNFER             RETURN CODE - ACCOUNT NOT FOUND
 000622 4DE0 7AEA            00B1A  5250  1 1056.                BAS   R14,CATERROR
 000626                             5251    1057.              END   ,                       OF ENTRY NOT FOUND
 000626 5890 7840/0D99       00870  5255    1058.              ACALL NTRYLOOK
 00062C 4770 7AEA            00B1A  5259    1059.              IF    NZ,CATERROR
 000630 4D90 7B1E            00B4E  5273    1060.              TOCOM ,                       RETURN TO COMMON
 000634 5890 7844/0D99       00874  5277    1061.              ACALL NTRYLAFT                CALL NEXT IN LIST
 00063A 4770 7AEA            00B1A  5281    1062.              IF    NZ,CATERROR
 00063E 47F0 7B26            00B56  5295    1063.              TOCOM SAVE=NO
1FILEVCAT (FILEVC) (09:45) (22MAR04) Catalog Driver Routines - Entry Insert                                                 Page   56
0Current Usings:  (DSKBLK,R2) (RQB,R5) (*,R7) (CHKPNT,R8) (FSB,R10)
0Loc    Object Code    Addr1 Addr2  Stmt Lv Lineno    Source Statement           (Hibal 5, Asmedit 3.3)  HLASM R4.0  2004/03/22 09.45
+___    ______ ____    _____ _____  ____ __ ______    ______ _________
0                                   5299    1065.     *********************************************************************
                                    5300    1066.     * On entry: RQBLNAME contains the search key                        *
                                    5301    1067.     *             IF R0 = 0: Indicates an account search                *
                                    5302    1068.     *             IF R0 = 4: Indicates a file search                    *
                                    5303    1069.     * ON RETURN TO CALLER:                                              *
                                    5304    1070.     *      IF CC = 0                                                    *
                                    5305    1071.     *        R1  = Address of the requested entry                       *
                                    5306    1072.     *        R0  = Size of the entry space                              *
                                    5307    1073.     *        RAR = Address to return to after working w/ entry          *
                                    5308    1074.     *      IF CC ~ 0                                                    *
                                    5309    1075.     *        IF R15 =  8, Can't insert duplicate entry                  *
                                    5310    1076.     *        IF R15 = 28, No more room in catalog                       *
                                    5311    1077.     * ON SUBSEQUENT RETURN FROM CALLER:                                 *
                                    5312    1078.     *      RAR = Return Address                                         *
                                    5313    1079.     *      R1  = Address of new entry (no change)                       *
                                    5314    1080.     *      R0  = Length of new entry                                    *
                                    5315    1081.     *      Entry data should be formatted properly                      *
                                    5316    1082.     * ON FINAL RETURN TO CALLER:                                        *
                                    5317    1083.     *      IF CC = 0                                                    *
                                    5318    1084.     *        Insert done                                                *
                                    5319    1085.     *      IF CC ~ 0                                                    *
                                    5320    1086.     *        IF R15 = 16, Invalid entry size                            *
                                    5321    1087.     *********************************************************************
 000642                             5322    1088.     CATINS   CATENT ,
 000642 910C A009      00009        5325    1089.              IF    (FSBCATNLM+FSBCATNIN),BEGIN      Inserts Blocked
 000646 4780 7622            00652  5338             +
 00064A 41F0 001C            0001C  5343  1 1090.                LA    R15,DIRNMR              |
 00064E 4DE0 7AEA            00B1A  5344  1 1091.                BAS   R14,CATERROR            |
 000652                             5345    1092.              END   ,                       OF Inserts Blocked
 000652 4D90 7862            00892  5349    1093.              LCALL CATNAME                 SETUP NAME (NO DOTS & LEN)
 000656                             5351    1094.              CLEAR CHKFLGS                 NEW SEARCH
 000656 D701 801C 801C 0001C 0001C  5357             +
 00065C 9650 801C      0001C        5358    1095.              SET   CHKFMOD+CHKFINS    INDICATE INTENT TO MODIFY ENTRY LEN
 000660 4D90 789A            008CA  5367    1096.              LCALL CATSRCH                 LOOK FOR ENTRY
 000664 4770 7640            00670  5369    1097.              IF    ZERO,BEGIN              ENTRY FOUND
 000668 41F0 0008            00008  5380  1 1098.                LA    R15,DIRDUPER       ERROR - CAN'T INSERT DUPLICATE ACC
 00066C 4DE0 7AEA            00B1A  5381  1 1099.                BAS   R14,CATERROR
 000670                             5382    1100.              END   ,                       OF ENTRY FOUND
 000670 5890 7848/0D99       00878  5386    1101.              ACALL NTRYINS                 CALL INSERT
 000676 4770 7AEA            00B1A  5390    1102.              IF    NZ,CATERROR
 00067A 4D90 7B1E            00B4E  5404    1103.              TOCOM ,                       RETURN TO COMMON
 00067E 5890 784C/0D99       0087C  5408    1104.              ACALL NTRYIAFT                CALL NEXT IN INSERT
 000684 4770 7AEA            00B1A  5412    1105.              IF    NZ,CATERROR
 000688 47F0 7B26            00B56  5426    1106.              TOCOM SAVE=NO
1FILEVCAT (FILEVC) (09:45) (22MAR04) Catalog Driver Routines - Entry Delete                                                 Page   57
0Current Usings:  (DSKBLK,R2) (RQB,R5) (*,R7) (CHKPNT,R8) (FSB,R10)
0Loc    Object Code    Addr1 Addr2  Stmt Lv Lineno    Source Statement           (Hibal 5, Asmedit 3.3)  HLASM R4.0  2004/03/22 09.45
+___    ______ ____    _____ _____  ____ __ ______    ______ _________
0                                   5430    1108.     *********************************************************************
                                    5431    1109.     * On entry: RQBLNAME contains the search key                        *
                                    5432    1110.     *             IF R0 = 0: Indicates an account search                *
                                    5433    1111.     *             IF R0 = 4: Indicates a file search                    *
                                    5434    1112.     * ON EXIT:                                                          *
                                    5435    1113.     *      IF CC = 0                                                    *
                                    5436    1114.     *        Delete done                                                *
                                    5437    1115.     *      IF CC ~ 0                                                    *
                                    5438    1116.     *        IF R15 =  4, Entry not found                               *
                                    5439    1117.     *        IF R15 = 12, Can't delete an account with files            *
                                    5440    1118.     *        IF R15 = 28, No more room in catalog                       *
                                    5441    1119.     *********************************************************************
 00068C                             5442    1120.     CATDEL   CATENT ,
 00068C 9104 A009      00009        5445    1121.              IF    FSBCATNLM,BEGIN    CATALOGUE IN NoLengthModify MODE
 000690 47E0 766C            0069C  5455             +
 000694 41F0 001C            0001C  5460  1 1122.                LA    R15,DIRNMR              |
 000698 4DE0 7AEA            00B1A  5461  1 1123.                BAS   R14,CATERROR            |
 00069C                             5462    1124.              END   ,                  OF CATALOGUE IN NoLengthModify MODE
 00069C 4D90 7862            00892  5466    1125.              LCALL CATNAME                 SETUP NAME (NO DOTS & LEN)
 0006A0                             5468    1126.              CLEAR CHKFLGS                 NEW SEARCH
 0006A0 D701 801C 801C 0001C 0001C  5474             +
 0006A6 9648 801C      0001C        5475    1127.              SET   CHKFMOD+CHKFDEL    INDICATE INTENT TO MODIFY ENTRY LEN
 0006AA 4D90 789A            008CA  5484    1128.              LCALL CATSRCH                 LOOK FOR ENTRY TO DELETE
 0006AE 4770 7690            006C0  5486    1129.              IF    ZERO,BEGIN              DELETE ENTRYS HERE
 0006B2 5890 7850/0D99       00880  5497  1 1130.                ACALL NTRYDEL
 0006B8 4770 7AEA            00B1A  5501  1 1131.                IF    NZ,CATERROR
 0006BC 47F0 7B26            00B56  5515  1 1132.                TOCOM SAVE=NO
 0006C0                             5518    1133.              END   ,                       OF DELETE ENTRYS HERE
 0006C0                             5522    1134.              BEGIN ,                       ENTRY NOT FOUND
 0006C0 41F0 0004            00004  5526  1 1135.                LA    R15,DIRNFER             |
 0006C4 4DE0 7AEA            00B1A  5527  1 1136.                BAS   R14,CATERROR
 0006C8                             5528    1137.              END   ,                       OF ENTRY NOT FOUND
1FILEVCAT (FILEVC) (09:45) (22MAR04) Tree List                                                                              Page   58
0Current Usings:  (DSKBLK,R2) (RQB,R5) (*,R7) (CHKPNT,R8) (FSB,R10)
0Loc    Object Code    Addr1 Addr2  Stmt Lv Lineno    Source Statement           (Hibal 5, Asmedit 3.3)  HLASM R4.0  2004/03/22 09.45
+___    ______ ____    _____ _____  ____ __ ______    ______ _________
0                                   5533    1139.     *********************************************************************
                                    5534    1140.     * On entry to CATLHERE:                                             *
                                    5535    1141.     *               The stack follows path to this entry                *
                                    5536    1142.     *               IX points to the current entry                      *
                                    5537    1143.     *               DSK points to the current buffer                    *
                                    5538    1144.     * On entry to CATLNEXT:                                             *
                                    5539    1145.     *               The stack follows path to the current entry         *
                                    5540    1146.     * For this routine:                                                 *
                                    5541    1147.     *               IX points to the entry                              *
                                    5542    1148.     *               NOD points to the node which the entry is in        *
                                    5543    1149.     *               DSK points to the buffer which the node is in       *
                                    5544    1150.     *               QR points to the current stack entry                *
                                    5545    1151.     *               CHKSEQA contains the buffer pointer                 *
                                    5546    1152.     * Subsequent calls must provide:                                    *
                                    5547    1153.     *               CHKSEQA with the current node's buffer pointer      *
                                    5548    1154.     *               The top of the search stack with the proper ptrs    *
                                    5549    1155.     * On return:                                                        *
                                    5550    1156.     *             IF CC = 0                                             *
                                    5551    1157.     *               R1/R0 contain the loc/len of the index portion of   *
                                    5552    1158.     *                 the next sequential entry.                        *
                                    5553    1159.     *               QR provides stack addressability                    *
                                    5554    1160.     *               DSK points to the current buffer                    *
                                    5555    1161.     *               RQFNNOD indicates if this is first time for this    *
                                    5556    1162.     *                 node in the tree traversal.                       *
                                    5557    1163.     *             IF CC ~ 0                                             *
                                    5558    1164.     *               There are no more entrys in this tree               *
                                    5559    1165.     *********************************************************************
 USING  NODE,R3                     5560    1166.              USING NODE,NOD
 USING  NTRY,R1                     5569    1167.              USING NTRY,IX
 USING  CHKDSTK,R4                  5578    1168.              USING CHKDSTK,QR
 0006C8 5090 D000            00000  5587    1169.     CATLHERE DIRSAV RAR
 0006CC 41D0 D004            00004  5591             +
 0006D0 5020 8068            00068  5592    1170.              ST    DSK,CHKSEQA             SAVE BUFFER ADDR
 0006D4                             5593    1171.              CLC   NTRYLEN,=&L.AL1(NIL)
 0006D4 D501 1000 783C 00000 0086C                   +
 0006DA 4780 77AA            007DA  5594    1172.              IF    EQ,CATLPOP              END OF LEAF NODE - POP
 0006DE 4800 1000            00000  5608    1173.     CATLTHIS LH    MIX,NTRYLEN
 0006E2 4840 8606            00606  5609    1174.              TRESTKAD QR                   ADDR TO TOP OF STACK
 0006E6 4C40 785A            0088A  5611             +
 0006EA 4144 8600            00600  5612             +
 0006EE D201 4000 2002 00000 00002  5613    1175.              MVC   CHKSTBK,DSKBNUM         SAVE ON STACK - BLOCK #
 0006F4 18F3                        5614    1176.              LR    PTR,NOD                 | NODE OFFSET
 0006F6 1BF2                        5615    1177.              SR    PTR,DSK                 | |
 0006F8 40F0 4002            00002  5616    1178.              STH   PTR,CHKSTNO             | |
 0006FC 18F1                        5617    1179.              LR    PTR,IX                  | ENTRY OFFSET
 0006FE 1BF3                        5618    1180.              SR    PTR,NOD                 | |
 000700 40F0 4004            00004  5619    1181.              STH   PTR,CHKSTEO             | | (W/IN NODE)
 000704 94DF 502C      0002C        5620    1182.              CLEAR RQFNNOD                 ASSUME NOT NEW
 000708 9180 4006      00006        5627    1183.              IF    ~CHKSTFOLD,BEGIN        IS A NEW NODE
 00070C 4710 76E8            00718  5637             +
 000710 9620 502C      0002C        5642  1 1184.                SET   RQFNNOD                 |
 000714 9680 4006      00006        5648  1 1185.                SET   CHKSTFOLD               | OLD NEXT TIME
 000718                             5654    1186.              END   ,                       OF IS A NEW NODE
 000718 4BD0 7858            00888  5658    1187.              DIREST RAR
1FILEVCAT (FILEVC) (09:45) (22MAR04) Tree List                                                                              Page   59
0Current Usings:  (NTRY,R1) (DSKBLK,R2) (NODE,R3) (CHKDSTK,R4) (RQB,R5) (*,R7) (CHKPNT,R8) (FSB,R10)
0Loc    Object Code    Addr1 Addr2  Stmt Lv Lineno    Source Statement           (Hibal 5, Asmedit 3.3)  HLASM R4.0  2004/03/22 09.45
+___    ______ ____    _____ _____  ____ __ ______    ______ _________
000071C 5890 D000            00000  5661             +
 000720 1BFF                        5662    1188.              CLEAR R15                     SET CC
 000722 0D99                        5666    1189.              BASR  RAR,RAR                 RET W/ IX/MIX = LOC/LEN OF NTRY
                                    5667    1190.     *
                                    5668    1191.     *  Get the next entry in tree using the tree stack
                                    5669    1192.     *
 000724 5090 D000            00000  5670    1193.     CATLNEXT DIRSAV RAR                    SAVE RET
 000728 41D0 D004            00004  5674             +
 00072C 4840 8606            00606  5675    1194.              TRESTKAD QR                   ADDR TO TOP OF STACK
 000730 4C40 785A            0088A  5677             +
 000734 4144 8600            00600  5678             +
 000738 5820 8068            00068  5679    1195.              L     DSK,CHKSEQA             ADDR TO BUFFER
 00073C 4830 4002            00002  5680    1196.              LH    NOD,CHKSTNO             ADDR TO NODE
 000740 4133 2000            00000  5681    1197.              LA    NOD,DSKBLK(NOD)         |
 000744 4810 4004            00004  5682    1198.              LH    IX,CHKSTEO              ADDR TO ENTRY
 000748 4111 3000            00000  5683    1199.              LA    IX,NODE(IX)             |
 00074C 4A10 1000            00000  5684    1200.              AH    IX,NTRYLEN              NEXT ENTRY ADDRESS (+LEN)
 000750 18F1                        5685    1201.              LR    PTR,IX                  | OFFSET IN NODE
 000752 1BF3                        5686    1202.              SR    PTR,NOD                 | |
 000754 40F0 4004            00004  5687    1203.              STH   PTR,CHKSTEO             |
 000758 9140 3006      00006        5688    1204.              IF    NODFLEAF,BEGIN          THIS IS A LEAF ENTRY
 00075C 47E0 773E            0076E  5698             +
 000760                             5703  1 1205.                CLC   NTRYLEN,=&L.AL1(NIL)
 000760 D501 1000 783C 00000 0086C        1          +
 000766 4780 77AA            007DA  5704  1 1206.                IF    EQ,CATLPOP              NEXT ENTRY IS NIL
 00076A 47F0 76AE            006DE  5718  1 1207.                B     CATLTHIS
 00076E                             5719    1208.              END   ,                       OF THIS IS A LEAF ENTRY
 00076E                             5723    1209.     CATLPUSH LABEL ,
 00076E 4140 0001            00001  5725    1210.              CHKPUSH ADDRREG=QR,ERR=CATERROR        STACK INCREMENT
 000772 4A40 8606            00606  5731             +
 000776 4040 8606            00606  5732             +
 00077A 5940 7854            00884  5744             +
 00077E 47D0 775A            0078A  5745             +
 000782 41F0 0020            00020  5750  1          +
 000786 4DE0 7AEA            00B1A  5751             +
 00078A 4C40 785A            0088A  5756             +
 00078E 4144 8600            00600  5757             +
 000792 9200 4006      00006        5764             +
 000796 D203 4000 1002 00000 00002  5765    1211.              MVC   CHKSTBK(PL),NTRYOFFB
 00079C 4110 0008            00008  5766    1212.              LA    IX,NODNTRYS-NODE        FIRST ENTRY OFFSET
 0007A0 4010 4004            00004  5767    1213.              STH   IX,CHKSTEO              |
 0007A4 4800 4000/1BFF       00000  5768    1214.              DREAD CHKSTBK,PTR=SEQ,ERR=CATERROR
 0007AA 4D90 7032            00062  5778             +
 0007AE 5020 8068            00068  5780             +
 0007B2 4840 8606            00606  5781    1215.              TRESTKAD QR
 0007B6 4C40 785A            0088A  5783             +
 0007BA 4144 8600            00600  5784             +
 0007BE 4830 4002            00002  5785    1216.              LH    NOD,CHKSTNO             NODE ADDRESSABILITY
 0007C2 4133 2000            00000  5786    1217.              LA    NOD,DSKBLK(NOD)         |
 0007C6 4810 4004            00004  5787    1218.              LH    IX,CHKSTEO              FIRST ENTRY OFFSET
 0007CA 4111 3000            00000  5788    1219.              LA    IX,NODE(IX)             |
 0007CE 9140 3006      00006        5789    1220.              IF    NODFLEAF,CATLTHIS       LIST THIS ONE
 0007D2 4710 76AE            006DE  5801             +
 0007D6 47F0 773E            0076E  5807    1221.              B     CATLPUSH                CONTINUE PUSHING
1FILEVCAT (FILEVC) (09:45) (22MAR04) Tree List                                                                              Page   60
0Current Usings:  (NTRY,R1) (DSKBLK,R2) (NODE,R3) (CHKDSTK,R4) (RQB,R5) (*,R7) (CHKPNT,R8) (FSB,R10)
0Loc    Object Code    Addr1 Addr2  Stmt Lv Lineno    Source Statement           (Hibal 5, Asmedit 3.3)  HLASM R4.0  2004/03/22 09.45
+___    ______ ____    _____ _____  ____ __ ______    ______ _________
00007DA                             5808    1222.     CATLPOP  BEGIN ,                       DECREMENT STACK
 0007DA 5820 8068            00068  5813  1 1223.                L     DSK,CHKSEQA             BUFFER ADDR
 0007DE 4830 4002            00002  5814  1 1224.                LH    NOD,CHKSTNO             ADDR TO NODE
 0007E2 4133 2000            00000  5815  1 1225.                LA    NOD,DSKBLK(NOD)         |
 0007E6 48F0 8606/06F0       00606  5816  1 1226.                DECR  PTR,CHKSTKP             DECREMENT STACK POINTER
 0007EC 40F0 8606            00606  5820  1          +
 0007F0 9120 3006      00006        5821  1 1227.                IF    (NODFTRT),BEGIN         @ TREE ROOT - EXIT
 0007F4 47E0 77D8            00808  5831  1          +
 0007F8 4BD0 7858            00888  5836  2 1228.                  DIREST RAR
 0007FC 5890 D000            00000  5839  2          +
 000800 41F0 0001            00001  5840  2 1229.                  LA    R15,1                   INDICATE NO MORE ENTRYS
 000804 12FF                        5841  2 1230.                  LTR   R15,R15                 |
 000806 07F9                        5842  2 1231.                  BR    RAR
 000808                             5843  1 1232.                END   ,                       OF @ TREE ROOT - EXIT
 000808 4840 8606            00606  5847  1 1233.                TRESTKAD QR
 00080C 4C40 785A            0088A  5849  1          +
 000810 4144 8600            00600  5850  1          +
 000814                             5851    1234.              END   ,                       OF DECREMENT STACK
 000814 4800 4000/1BFF       00000  5855    1235.              DREAD CHKSTBK,PTR=SEQ,ERR=CATERROR
 00081A 4D90 7032            00062  5865             +
 00081E 5020 8068            00068  5867             +
 000822 4840 8606            00606  5868    1236.              TRESTKAD QR
 000826 4C40 785A            0088A  5870             +
 00082A 4144 8600            00600  5871             +
 00082E 4830 4002            00002  5872    1237.              LH    NOD,CHKSTNO             ADDRESSABILITY TO NODE
 000832 4133 2000            00000  5873    1238.              LA    NOD,DSKBLK(NOD)         |
 000836 4810 4004            00004  5874    1239.              LH    IX,CHKSTEO              ADDRASSABILITY TO ENTRY
 00083A 4111 3000            00000  5875    1240.              LA    IX,NODE(IX)             |
 00083E                             5876    1241.              CLC   NTRYLEN,=&L.AL1(NIL)
 00083E D501 1000 783C 00000 0086C                   +
 000844 4780 77AA            007DA  5877    1242.              IF    EQ,CATLPOP
 000848 47F0 76AE            006DE  5891    1243.              B     CATLTHIS
-DROP   NODE,R3                     5893    1245.              DROP  NOD                     NODE ADDR
 DROP   NTRY,R1                     5900    1246.              DROP  IX                      NTRY ADDR
 DROP   CHKDSTK,R4                  5907    1247.              DROP  QR                      CHKDSTK ADDR
-000850                             5915    1249.              LTORG ,
 000850 0000000E                    5917                             =A(8*2-2)
 000854 00000000                    5918                             =A(FILEVCAT)
 000858 00000000                    5919                             =V(VKAPUT)
 00085C 000000FF                    5920                             =A(VIOLOCK)
 000860 7FFFFF00                    5921                             =A(VIOFREE)
 000864 00000000                    5922                             =V(SETREAD1)
 000868 00000000                    5923                             =V(SETWRIT1)
 00086C FFFFFFFF                    5924                             =4AL1(NIL)
 000870 00001084                    5925                             =A(NTRYLOOK)
 000874 00001162                    5926                             =A(NTRYLAFT)
 000878 000012D4                    5927                             =A(NTRYINS)
 00087C 00001408                    5928                             =A(NTRYIAFT)
 000880 00001560                    5929                             =A(NTRYDEL)
 000884 00000007                    5930                             =A(CCHKSTK)
1FILEVCAT (FILEVC) (09:45) (22MAR04) Tree List                                                                              Page   61
0Current Usings:  (DSKBLK,R2) (RQB,R5) (*,R7) (CHKPNT,R8) (FSB,R10)
0Loc    Object Code    Addr1 Addr2  Stmt Lv Lineno    Source Statement           (Hibal 5, Asmedit 3.3)  HLASM R4.0  2004/03/22 09.45
+___    ______ ____    _____ _____  ____ __ ______    ______ _________
0000888 0004                        5931                             =Y(1*4)
 00088A 0008           00892 046CB  5932                             =Y(L'CHKDSTK)
1FILEVCAT (FILEVC) (09:45) (22MAR04) Setup Name Fields                                                                      Page   62
0Current Usings:  (DSKBLK,R2) (RQB,R5) (*,R7) (CHKPNT,R8) (FSB,R10)
0Loc    Object Code    Addr1 Addr2  Stmt Lv Lineno    Source Statement           (Hibal 5, Asmedit 3.3)  HLASM R4.0  2004/03/22 09.45
+___    ______ ____    _____ _____  ____ __ ______    ______ _________
0                                   5937    1251.     * Cannot modify R0, R14, or R15 (MIX, CNT, or PTR)
 000892                             5938    1252.     CATNAME  LABEL ,
                                    5940    1253.     *               Name buffer
 000892 D201 80C5 505C 000C5 0005C  5941    1254.              MVC   CHKFNAME(2),RQBLNAME    Group - GG
 000898 D202 80C7 505F 000C7 0005F  5942    1255.              MVC   CHKFNAME+2(3),RQBLNAME+3         User - UUU
 00089E D220 80CA 5063 000CA 00063  5943    1256.              MVC   CHKFNAME+CNTAMXSZ(CFSBNMSZ),RQBLNAME+CNTAMXSZ+2
                                    5944    1257.              REGCH (IX,1),(DSK,2)
 0008A4 4110 80C9            000C9  5945    1258.              LA    IX,CHKFNAME+CNTAMXSZ-1  START LOOKING HERE
 0008A8 4120 80EB            000EB  5946    1259.              LA    DSK,CHKFNAME+L'CHKFNAME | LIMIT
 0008AC                             5947    1260.              LOOP  BEGIN                   LOOK FOR BLANK
 0008AC 5E10 7B70            00BA0  5953  1 1261.                INCR  IX
 0008B0 9540 1000      00000        5956  1 1262.                CLI   @IX,C' '
 0008B4 4780 788E/1912       008BE  5957    1263.              UNTIL (EQ,OR,(IX,GE,DSK)),END OF LOOK FOR BLANK
 0008BA 4750 787C            008AC  5984             +
 0008BE 4120 80C5            000C5  5990    1264.              LA    DSK,CHKFNAME            LENGTH OF NAME
 0008C2 1B12                        5991    1265.              SR    IX,DSK                  |
 0008C4 4210 80C4            000C4  5992    1266.              STC   IX,CHKFNMSZ             |
 0008C8 07F9                        5993    1267.              BR    RAR
1FILEVCAT (FILEVC) (09:45) (22MAR04) Search Initialization                                                                  Page   63
0Current Usings:  (DSKBLK,R2) (RQB,R5) (*,R7) (CHKPNT,R8) (FSB,R10)
0Loc    Object Code    Addr1 Addr2  Stmt Lv Lineno    Source Statement           (Hibal 5, Asmedit 3.3)  HLASM R4.0  2004/03/22 09.45
+___    ______ ____    _____ _____  ____ __ ______    ______ _________
0                                   5995    1269.     *********************************************************************
                                    5996    1270.     * On entry: CHKFNAME contains the search key                        *
                                    5997    1271.     *             IF R0 = 0: Indicates an account search                *
                                    5998    1272.     *             IF R0 = 4: Indicates a file search                    *
                                    5999    1273.     *               CHKACCB/N and CHKACSP (traversal stack ptr) set up  *
                                    6000    1274.     * On Exit:      The FSB stack contains a trace of the path to the   *
                                    6001    1275.     *                 current location in the catalog                   *
                                    6002    1276.     *               The CC is set based on the value of R15             *
                                    6003    1277.     *                 IF R15 = 0: The entry was found                   *
                                    6004    1278.     *                   DSK points to the buffer of the current node    *
                                    6005    1279.     *                   NOD points to the entry                         *
                                    6006    1280.     *                 IF R15 > 0: The entry was not found               *
                                    6007    1281.     *                   DSK points to the buffer of the current node    *
                                    6008    1282.     *                   NOD points to the entry which is where the      *
                                    6009    1283.     *                       new entry would be.                         *
                                    6010    1284.     *                 IF R15 < 0: There are no entrys in this tree      *
                                    6011    1285.     *********************************************************************
 0008CA 5090 D000            00000  6012    1286.     CATSRCH  DIRSAV RAR
 0008CE 41D0 D004            00004  6016             +
                                    6017    1287.     *               Set up FSB flags (Account/File)
 0008D2 947B 801C      0001C        6018    1288.              CLEAR CHKFACC+CHKFLEAF        Set Acc/File mode
 0008D6 5900 7B74            00BA4  6028    1289.              IF    (R0,EQ,ACCMODE),'SET CHKFACC '   |
 0008DA 4770 78B2            008E2  6040             +
 0008DE 9680 801C      0001C        6051             +
 0008E2                             6056    1290.              CLEAR CHKIVLV1                CLR 1ST LEVEL INTENT
 0008E2 D741 8112 8112 00112 00112  6062             +
                                    6063    1291.     *               FSB should already contain I/O block pointers
 0008E8 9180 801C      0001C        6064    1292.              IF    CHKFACC,BEGIN           SET UP FOR ACC SEARCH
 0008EC 47E0 78D8            00908  6074             +
 0008F0                             6079  1 1293.                CLEAR CHKSTKP                 SEARCH_STACK POINTER
 0008F0 D701 8606 8606 00606 00606  6085  1          +
 0008F6                             6086  1 1294.                MVC   CHKAPNT(1),=&L.AL1(NIL) SET POINTERS TO NIL
 0008F6 D200 8020 7B78 00020 00BA8        1          +
 0008FC D256 8021 8020 00021 00020  6087  1 1295.                MVC   CHKAPNT+1(L'CHKAPNT-1),CHKAPNT   |
 000902 D203 8034 800A 00034 0000A  6088  1 1296.                MVC   CHKCURB(PL),CHKROOTB    CUR ADDR(Blk & Offset)
 000908 78DC           00908 008EE  6089    1297.              END   ELSE,BEGIN              SET UP FOR FILE SEARCH
 000908 47F0 7922            00952  6098             +
 00090C D201 8606 8604 00606 00604  6104  1 1298.                MVC   CHKSTKP,CHKACSP         STACK PTR := ACC PTR
 000912                             6105  1 1299.                MVC   CHKSPNT(1),=&L.AL1(NIL) SET SEARCH PTRS TO NIL
 000912 D200 8020 7B78 00020 00BA8        1          +
 000918 D21E 8021 8020 00021 00020  6106  1 1300.                MVC   CHKSPNT+1(L'CHKSPNT-1),CHKSPNT
 00091E                             6107  1 1301.                IF    ('CLC CHKACCB(PL),=&L.AL1(NIL)',EQ),BEGIN
 00091E D503 805C 7B78 0005C 00BA8  6114  1          +
 000924 4770 7906            00936  6115  1          +
 000928 5890 7B7C/0D99       00BAC  6120  2 1302.                  ABORT  CATNILACC,CHKACCB
 00092E C3C1E3D5C9D3C1C3            6125  2          +
 000936                             6126  1 1303.                END   ,
 000936 4800 805C/1BFF       0005C  6130  1 1304.                DREAD CHKACCB,PTR=ACC,ERR=CATERROR     READ IN ACC BLOCK
 00093C 4D90 7032            00062  6140  1          +
 000940 5020 8058            00058  6142  1          +
 000944 4830 805E            0005E  6143  1 1305.                LH    NOD,CHKACCN             ADDR TO ACC ENTRY
 000948 4133 2000            00000  6144  1 1306.                LA    NOD,DSKBLK(NOD)         |
 USING  NTRY,R3                     6145  1 1307.                WITH (NTRY,NOD),'MVC CHKCURB(PL),NTGFLRB '     FILE TREE ROOT
 00094C D203 8034 3015 00034 00015  6160  1          +
1FILEVCAT (FILEVC) (09:45) (22MAR04) Search Initialization                                                                  Page   64
0Current Usings:  (DSKBLK,R2) (RQB,R5) (*,R7) (CHKPNT,R8) (FSB,R10)
0Loc    Object Code    Addr1 Addr2  Stmt Lv Lineno    Source Statement           (Hibal 5, Asmedit 3.3)  HLASM R4.0  2004/03/22 09.45
+___    ______ ____    _____ _____  ____ __ ______    ______ _________
0DROP   NTRY,R3
 000952                             6169    1308.              END   ,                       OF SET UP
                                    6173    1309.
1FILEVCAT (FILEVC) (09:45) (22MAR04) Catalog Search                                                                         Page   65
0Current Usings:  (DSKBLK,R2) (RQB,R5) (*,R7) (CHKPNT,R8) (FSB,R10)
0Loc    Object Code    Addr1 Addr2  Stmt Lv Lineno    Source Statement           (Hibal 5, Asmedit 3.3)  HLASM R4.0  2004/03/22 09.45
+___    ______ ____    _____ _____  ____ __ ______    ______ _________
0000952                             6175    1311.              CLC   CHKCURB(PL),=&L.AL1(NIL)         NIL TREE
 000952 D503 8034 7B78 00034 00BA8                   +
 000958 4770 7934            00964  6176    1312.              IF    EQ,BEGIN                |
 00095C 58F0 7B80            00BB0  6187  1 1313.                L     R15,=A(-1)              |
 000960 47F0 7A90            00AC0  6188  1 1314.                B     CATSNONT                |
 000964                             6189    1315.              END   ,                       OF NIL TREE
 000964 4800 8034/1BFF       00034  6193    1316.              DREAD CHKCURB,PTR=CUR,ERR=CATERROR     READ ROOT BLOCK
 00096A 4D90 7032            00062  6203             +
 00096E 5020 8030            00030  6205             +
 000972 4830 8036            00036  6206    1317.              LH    NOD,CHKCURN             GET ROOT OF TREE (CURRENT NODE)
 000976 4133 2000            00000  6207    1318.              LA    NOD,DSKBLK(NOD)         |
 USING  NODE,R3                     6208    1319.              USING NODE,NOD           ADDRESSABILITY TO INTERNAL NODES
                                    6217    1320.     *
                                    6218    1321.     * SEARCH FOR AN ENTRY AND BALANCE ALONG THE WAY
                                    6219    1322.     *
 00097A                             6220    1323.     TRAVERSE LABEL ,
 00097A 9140 801C      0001C        6222    1324.              IF (CHKFMOD,AND,(NODFEMT+NODFFUL)),BEGIN
 00097E 47E0 7964            00994  6234             +
 000982 9118 3006      00006        6248             +
 000986 4780 7964            00994  6249             +
 00098A 5890 7B84/0D99       00BB4  6254  1 1325.                ACALL NODBAL                  BALANCE
 000990 4770 7AEA            00B1A  6258  1 1326.                IF    NZ,CATERROR
 000994                             6272    1327.              END   ,
 000994 9140 3006      00006        6276    1328.              IF    NODFLEAF,'SET CHKFLEAF '         INDICATE LEAF LEVEL
 000998 47E0 7970            009A0  6286             +
 00099C 9604 801C      0001C        6297             +
                                    6302    1329.     * CHOOSE PROPER BRANCH PATH
                                    6303    1330.     *   The comparison test relies on the length field being hex 'FFFF',
                                    6304    1331.     * the nil value.
 0009A0 4130 3008            00008  6305    1332.              LA    NOD,NODNTRYS       ADDRESSABILITY TO INDIVIDUAL ENTRIES
 DROP   NODE,R3                     6306    1333.              DROP  NOD                     NODE ADDR
 USING  NTRY,R3                     6313    1334.              USING NTRY,NOD                |
 0009A4 5810 7B78            00BA8  6322    1335.              L     IX,=&L.AL1(NIL)    IX IS ADDRESS OF ENTRY 1 TO THE LEFT
 0009A8                             6323    1336.     CHOOSE   LABEL ,
 0009A8                             6325    1337.              CLC   NTRYLEN,=&L.AL1(NIL)
 0009A8 D501 3000 7B78 00000 00BA8                   +
 0009AE 4780 79CC            009FC  6326    1338.              IF    EQ,IXFOUND         IF @ END OF LIST, THAT'S THE PTR
 0009B2 9180 801C      0001C        6340    1339.              IF    CHKFACC,BEGIN           GET ACCOUNT NAME
 0009B6 47E0 7990            009C0  6350             +
 0009BA D504 80C5 300A 000C5 0000A  6355  1 1340.                CLC   CHKFNAME(CNTAMXSZ),NTGNAME
 0009C0 7994           009C0 009B8  6356    1341.              END   ELSE,BEGIN              GET FILE NAME
 0009C0 47F0 79B6            009E6  6365             +
 0009C4 1F44/4340 301F       0001F  6371  1 1342.                LC    QR,NTFLNMSZ             | | LENGTH
 0009CA 0640/4440 7B9C       00BCC  6378  1 1343.                DEX   QR,'CLC CHKFNAME+CNTAMXSZ(0),NTFLNAME '
 000BCC D500 80CA 3020 000CA 00020  6389  1          +
 0009D0 4770 79B6            009E6  6397  1 1344.                IF    EQ,BEGIN                TEST LENGTHS
 0009D4 1F44/4340 80C4       000C4  6408  2 1345.                  LC    QR,CHKFNMSZ             FULL NAME - ACC NAME LEN
 0009DA 4B40 7B94            00BC4  6415  2 1346.                  SH    QR,=Y(CNTAMXSZ)         |
 0009DE 1F00/4300 301F       0001F  6416  2 1347.                  LC    MIX,NTFLNMSZ            FILE NAME LEN
 0009E4 1940                        6421  2 1348.                  CR    QR,MIX                  COMPARE LENGTHS
 0009E6                             6422  1 1349.                END   ,                       OF TEST LENGTHS
 0009E6                             6426    1350.              END   ,                       OF GET FILE NAME
 0009E6 4780 7A4C            00A7C  6430    1351.              IF    EQ,NTFOUND              ENTRY FOUND
 0009EA 4740 79CC            009FC  6444    1352.              IF    LT,IXFOUND              INDEX FOUND
1FILEVCAT (FILEVC) (09:45) (22MAR04) Catalog Search                                                                         Page   66
0Current Usings:  (DSKBLK,R2) (NTRY,R3) (RQB,R5) (*,R7) (CHKPNT,R8) (FSB,R10)
0Loc    Object Code    Addr1 Addr2  Stmt Lv Lineno    Source Statement           (Hibal 5, Asmedit 3.3)  HLASM R4.0  2004/03/22 09.45
+___    ______ ____    _____ _____  ____ __ ______    ______ _________
0                                   6458    1353.     *        GET NEXT ENTRY IN NODE
 0009EE 1813                        6459    1354.              LR    IX,NOD                  ENTRY 1 TO THE LEFT
 0009F0 48F0 3000            00000  6460    1355.              LH    PTR,NTRYLEN             | LENGTH OF THIS ENTRY
 0009F4 413F 3000            00000  6461    1356.              LA    NOD,NTRY(PTR)           | ADDRESS OF NEXT
 0009F8 47F0 7978            009A8  6462    1357.              B     CHOOSE                  | CONTINUE LOOKING
 0009FC 9104 801C      0001C        6463    1358.     IXFOUND  IF    CHKFLEAF,NTNOTFND
 000A00 4710 7A52            00A82  6476             +
                                    6482    1359.     *
                                    6483    1360.     * Advance current node to offspring, updating search pointers
 USING  CHKDSTK,R4                  6484    1361.              WITH  (CHKDSTK,QR),BEGIN      ADD TO STACK
 000A04 4140 0001            00001  6498  1 1362.                CHKPUSH ADDRREG=QR,ERR=CATERROR
 000A08 4A40 8606            00606  6504  1          +
 000A0C 4040 8606            00606  6505  1          +
 000A10 5940 7B88            00BB8  6517  1          +
 000A14 47D0 79F0            00A20  6518  1          +
 000A18 41F0 0020            00020  6523  2          +
 000A1C 4DE0 7AEA            00B1A  6524  1          +
 000A20 4C40 7B96            00BC6  6529  1          +
 000A24 4144 8600            00600  6530  1          +
 000A28 9200 4006      00006        6537  1          +
 000A2C D203 4000 8034 00000 00034  6538  1 1363.                MVC   CHKSTBK(PL),CHKCURB     | BLK AND NODE OFFSET
 000A32 18F3                        6539  1 1364.                LR    PTR,NOD                 | ENTRY OFFSET
 000A34 1BF2                        6540  1 1365.                SR    PTR,DSK                 | |
 000A36 4BF0 8036            00036  6541  1 1366.                SH    PTR,CHKCURN             | |
 000A3A 40F0 4004            00004  6542  1 1367.                STH   PTR,CHKSTEO             | |
 DROP   CHKDSTK,R4                  6543    1368.              END   ,                       OF ADD TO STACK
 000A3E D207 8020 8030 00020 00030  6551    1369.              MVC   CHKPARP,CHKCURP         PARENT ADDR
 000A44 D203 8034 3002 00034 00002  6552    1370.              MVC   CHKCURB(PL),NTRYOFFB
 000A4A                             6553    1371.              CLC   CHKCURB(PL),=&L.AL1(NIL)         PROCESS NIL ENTRY
 000A4A D503 8034 7B78 00034 00BA8                   +
 000A50 4770 7A32            00A62  6554    1372.              IF    EQ,BEGIN                |
 000A54 5890 7B7C/0D99       00BAC  6565  1 1373.                ABORT  CATSRCH
 000A5A C3C1E3E2D9C3C840            6570  1          +
 000A62                             6571    1374.              END   ,                       OF NIL ENTRY PROCESSING
 DROP   NTRY,R3                     6575    1375.              DROP  NOD                     NTRY ADDR
                                    6582    1376.
 000A62 4800 8034/1BFF       00034  6583    1377.              DREAD CHKCURB,PTR=CUR,ERR=CATERROR
 000A68 4D90 7032            00062  6593             +
 000A6C 5020 8030            00030  6595             +
 000A70 4830 8036            00036  6596    1378.              LH    NOD,CHKCURN             OFFSET ADDRESS IN BLOCK
 000A74 4133 2000            00000  6597    1379.              LA    NOD,DSKBLK(NOD)         | ADDRESSABILITY (TO NODE)
 000A78 47F0 794A            0097A  6598    1380.              B     TRAVERSE
                                    6599    1381.     *
                                    6600    1382.     * Entry found
 000A7C 1BFF                        6601    1383.     NTFOUND  CLEAR R15                     THIS ENTRY FOUND
 000A7E 47F0 7A56            00A86  6606    1384.              B     CATSRET                 |
 000A82 41F0 0001            00001  6607    1385.     NTNOTFND LA    R15,1                   THIS ENTRY NOT FOUND
 000A86                             6608    1386.     CATSRET  LABEL ,
 USING  CHKDSTK,R4                  6610    1387.              WITH  (CHKDSTK,QR),BEGIN      ADD TO STACK
 000A86 4140 0001            00001  6624  1 1388.                CHKPUSH ADDRREG=QR,ERR=CATERROR
 000A8A 4A40 8606            00606  6630  1          +
 000A8E 4040 8606            00606  6631  1          +
 000A92 5940 7B88            00BB8  6643  1          +
 000A96 47D0 7A72            00AA2  6644  1          +
1FILEVCAT (FILEVC) (09:45) (22MAR04) Catalog Search                                                                         Page   67
0Current Usings:  (DSKBLK,R2) (CHKDSTK,R4) (RQB,R5) (*,R7) (CHKPNT,R8) (FSB,R10)
0Loc    Object Code    Addr1 Addr2  Stmt Lv Lineno    Source Statement           (Hibal 5, Asmedit 3.3)  HLASM R4.0  2004/03/22 09.45
+___    ______ ____    _____ _____  ____ __ ______    ______ _________
0000A9A 41F0 0020            00020  6649  2          +
 000A9E 4DE0 7AEA            00B1A  6650  1          +
 000AA2 4C40 7B96            00BC6  6655  1          +
 000AA6 4144 8600            00600  6656  1          +
 000AAA 9200 4006      00006        6663  1          +
 000AAE D203 4000 8034 00000 00034  6664  1 1389.                MVC   CHKSTBK(PL),CHKCURB     | BLK AND NODE OFFSET
 000AB4 1813                        6665  1 1390.                LR    IX,NOD                  | ENTRY OFFSET
 000AB6 1B12                        6666  1 1391.                SR    IX,DSK                  | |
 000AB8 4B10 8036            00036  6667  1 1392.                SH    IX,CHKCURN              | |
 000ABC 4010 4004            00004  6668  1 1393.                STH   IX,CHKSTEO              | | (W/IN NODE)
 DROP   CHKDSTK,R4                  6669    1394.              END   ,                       OF ADD TO STACK
 000AC0 D203 8040 8030 00040 00030  6677    1395.     CATSNONT MVC   CHKNTA,CHKCURA          ENTRY POINTERS
 000AC6 D203 8044 8034 00044 00034  6678    1396.              MVC   CHKNTB(PL),CHKCURB      | (BLOCK)
 000ACC                             6679    1397.              CLC   CHKNTB(PL),=&L.AL1(NIL)
 000ACC D503 8044 7B78 00044 00BA8                   +
 000AD2 4780 7AAE            00ADE  6680    1398.              IF    NE,BEGIN                ENTRY NOT NIL
 000AD6 1813                        6691  1 1399.                LR    IX,NOD                  | (OFFSET)
 000AD8 1B12                        6692  1 1400.                SR    IX,DSK                  | |
 000ADA 4010 8046            00046  6693  1 1401.                STH   IX,CHKNTN               | |
 000ADE                             6694    1402.              END   ,                       OF ENTRY NOT NIL
 000ADE 9180 801C      0001C        6698    1403.              IF    CHKFACC,BEGIN           SAVE ACC NTRY PTRS
 000AE2 47E0 7ADE            00B0E  6708             +
 000AE6 12FF/4770 7AC8       00AF8  6713  1 1404.                IF    (R15,ZERO),BEGIN        ACC FOUND
 000AEC D207 8058 8040 00058 00040  6727  2 1405.                  MVC   CHKACCP,CHKNTP          ACC PTRS := ENTRY PTRS
 000AF2 D201 8604 8606 00604 00606  6728  2 1406.                  MVC   CHKACSP,CHKSTKP         STACK POINTER
 000AF8                             6729  1 1407.                END   ,                       OF ACC FOUND
 000AF8 7ACC           00AF8 00AEA  6733  1 1408.                ELSE  BEGIN                   ACC NOT FOUND
 000AF8 47F0 7ADE            00B0E  6738  1          +
 000AFC                             6744  2 1409.                  MVC   CHKACCA,=&L.AL1(NIL)
 000AFC D203 8058 7B78 00058 00BA8        2          +
 000B02                             6745  2 1410.                  MVC   CHKACCB(PL),=&L.AL1(NIL)
 000B02 D203 805C 7B78 0005C 00BA8        2          +
 000B08                             6746  2 1411.                  MVC   CHKACSP,=&L.AL1(NIL)
 000B08 D201 8604 7B78 00604 00BA8        2          +
 000B0E                             6747  1 1412.                END   ,                       OF ACC NOT FOUND
 000B0E                             6751    1413.              END   ,                       OF SAVE ACC NTRY PTRS
 000B0E 4BD0 7B98            00BC8  6755    1414.              DIREST RAR
 000B12 5890 D000            00000  6758             +
 000B16 12FF                        6759    1415.              LTR   R15,R15                 SET CC
 000B18 07F9                        6760    1416.              BR    RAR                     RETURN
1FILEVCAT (FILEVC) (09:45) (22MAR04) Catalog Driver Routines - Error and Exit                                               Page   68
0Current Usings:  (DSKBLK,R2) (RQB,R5) (*,R7) (CHKPNT,R8) (FSB,R10)
0Loc    Object Code    Addr1 Addr2  Stmt Lv Lineno    Source Statement           (Hibal 5, Asmedit 3.3)  HLASM R4.0  2004/03/22 09.45
+___    ______ ____    _____ _____  ____ __ ______    ______ _________
0                                   6763    1419.     **
 000B1A 59F0 7B8C            00BBC  6764    1420.     CATERROR IF    (R15,EQ,DIRNMR),BEGIN
 000B1E 4770 7B00            00B30  6777             +
 000B22 5890 7B90/0D99       00BC0  6782  1 1421.                ACALL CATNMR
 000B28 4770 7B0C            00B3C  6786  1 1422.                IF    NZ,NILERR
 000B2C 41F0 001C            0001C  6800  1 1423.                LA    R15,DIRNMR              NO MORE ROOM
 000B30                             6801    1424.              END   ,
 000B30 7B04           00B30 00B20  6805    1425.              ELSEIF (R15,GT,DIRNMR),BEGIN  R14=PSW, R15=ERROR CODE
 000B30 47F0 7B1A            00B4A  6811             +
 000B34 59F0 7B8C            00BBC  6825             +
 000B38 47D0 7B1A            00B4A  6826             +
 000B3C                             6831  1 1426.     NILERR     LABEL ,
 000B3C 5890 7B7C/0D99       00BAC  6833  1 1427.                ABORT  VCAT
 000B42 E5C3C1E340404040            6838  1          +
 000B4A                             6839    1428.              END   ,
 000B4A 47F0 7B26            00B56  6843    1429.              B     DIRCOM             RETURN TO VFIL's COMMON ROUTINES
 000B4E 5060 5014            00014  6844    1430.     DIRCOMSV ST    FBR,RQBFBR2        SAVE ENVIRONMENT (Thanks Greenpeace)
 000B52 5090 5008            00008  6845    1431.              ST    RAR,RQBRTN2
 000B56 4BD0 7B9A            00BCA  6846    1432.     DIRCOM   DIREST FBR,RAR                RESTORE COMMON RTN REGS
 000B5A 5860 D000            00000  6850             +
 000B5E 5890 D004            00004  6851             +
 000B62 5870 5018            00018  6852    1433.              L     BR,RQBLBR2              |
 000B66 5880 501C            0001C  6853    1434.              L     WAR,RQBLWAR             |
 000B6A 1841                        6854    1435.              LR    QR,R1                   MAKE QR POINT TO ENTRY
 000B6C 12FF                        6855    1436.              LTR   R15,R15
 000B6E 07F9                        6856    1437.              BR    RAR
-
0000B70 1814                        6858    1439.     CATCONT  LR    R1,QR                   RESTORE ENTRY PTR
 000B72 5890 5008            00008  6859    1440.              L     RAR,RQBRTN2             GET CONTINUE REGS BACK
 000B76 5860 5014            00014  6860    1441.              L     FBR,RQBFBR2             |
                                    6861    1442.              REGCH (WAR,8),(CHKR,8)
 000B7A 5880 A060            00060  6862    1443.              L     CHKR,FSBCHKA            RESTORE CHECKPOINT ADDR
 000B7E 07F9                        6863    1444.              BR    RAR
1FILEVCAT (FILEVC) (09:45) (22MAR04) Catalog Driver Routines - Error and Exit                                               Page   69
0Current Usings:  (DSKBLK,R2) (RQB,R5) (*,R7) (CHKPNT,R8) (FSB,R10)
0Loc    Object Code    Addr1 Addr2  Stmt Lv Lineno    Source Statement           (Hibal 5, Asmedit 3.3)  HLASM R4.0  2004/03/22 09.45
+___    ______ ____    _____ _____  ____ __ ______    ______ _________
0                                   6865    1446.     *
                                    6866    1447.     *  CATALOG I/O ERROR ROUTINES
                                    6867    1448.     *
                                    6868    1449.     *        Because -- MIKEY SAID SO
 000B80 5890 7B7C/0D99       00BAC  6869    1450.     CATRDERR ABORT  CATRDER,RQBLR1,RQBLR14,(RQBR)
 000B86 C3C1E3D9C4C5D940            6874             +
                                    6875    1451.
 000B8E                             6876    1452.     CATWRERR LABEL
                                    6878    1453.     * -->D   QSNAP @R14,255                THE BLOCK IN ERROR
                                    6879    1454.     * -->D   QSNAP @R14+256,255            THE BLOCK IN ERROR
                                    6880    1455.     * -->D   QSNAP @R14+512,255            THE BLOCK IN ERROR
                                    6881    1456.     * -->D   QSNAP @R14+768,255            THE BLOCK IN ERROR
                                    6882    1457.     * -->D   QSNAP @R14+1024,255           THE BLOCK IN ERROR
                                    6883    1458.     * -->D   QSNAP @R14+1280,255           THE BLOCK IN ERROR
                                    6884    1459.     * -->D   QSNAP @R14+1536,255           THE BLOCK IN ERROR
                                    6885    1460.     * -->D   QSNAP @R14+1792,255           THE BLOCK IN ERROR
 000B8E 5890 7B7C/0D99       00BAC  6886    1461.              ABORT CATWRER,RQBLR1,RQBLR14,(RQBR)
 000B94 C3C1E3E6D9C5D940            6891             +
 000BA0                             6892    1462.              LTORG ,
 000BA0 00000001                    6894                             =A(1)
 000BA4 00000000                    6895                             =A(ACCMODE)
 000BA8 FFFFFFFF                    6896                             =4AL1(NIL)
 000BAC 00000000                    6897                             =V(VKAPUT)
 000BB0 FFFFFFFF                    6898                             =A(-1)
 000BB4 00001FA0                    6899                             =A(NODBAL)
 000BB8 00000007                    6900                             =A(CCHKSTK)
 000BBC 0000001C                    6901                             =A(DIRNMR)
 000BC0 00003AA0                    6902                             =A(CATNMR)
 000BC4 0005                        6903                             =Y(CNTAMXSZ)
 000BC6 0008                        6904                             =Y(L'CHKDSTK)
 000BC8 0004                        6905                             =Y(1*4)
 000BCA 0008           00BD2 046CB  6906                             =Y(2*4)
1FILEVCAT (FILEVC) (09:45) (22MAR04) Rename File                                                                            Page   70
0Current Usings:  (DSKBLK,R2) (RQB,R5) (*,R7) (CHKPNT,R8) (FSB,R10)
0Loc    Object Code    Addr1 Addr2  Stmt Lv Lineno    Source Statement           (Hibal 5, Asmedit 3.3)  HLASM R4.0  2004/03/22 09.45
+___    ______ ____    _____ _____  ____ __ ______    ______ _________
0                                   6911    1464.     *********************************************************************
                                    6912    1465.     * On entry: RQBLNAME contains the old search key                    *
                                    6913    1466.     *           RQBLRNAM contains the new search key                    *
                                    6914    1467.     *             IF R0 = 0: Indicates an account search                *
                                    6915    1468.     *             IF R0 = 4: Indicates a file search                    *
                                    6916    1469.     *                 Renaming accounts is not valid.  Neither is       *
                                    6917    1470.     *               renaming files across accounts.  Therefore          *
                                    6918    1471.     *               the first call to rename a file should be CATLOOK   *
                                    6919    1472.     *               for the account entry, and then call CATRENAM       *
                                    6920    1473.     *                 It is assumed that the case of renaming across    *
                                    6921    1474.     *               account boundaries has already been checked on      *
                                    6922    1475.     *               entry.                                              *
                                    6923    1476.     * ON RETURN TO CALLER:                                              *
                                    6924    1477.     *      IF CC = 0                                                    *
                                    6925    1478.     *        Rename is done                                             *
                                    6926    1479.     *      IF CC ~ 0                                                    *
                                    6927    1480.     *        IF R15 =  4, Entry not found                               *
                                    6928    1481.     *        IF R15 =  8, Can't insert duplicate entry                  *
                                    6929    1482.     *        IF R15 = 24, Can't rename accounts                         *
                                    6930    1483.     *        IF R15 = 28, No more room in catalog                       *
                                    6931    1484.     *********************************************************************
 000BD2                             6932    1485.     CATRENAM CATENT ,
 000BD2 0D60                        6935    1486.              BASE  FBR
 USING  *,R6
 000BD4 910C A009      00009        6949    1487.              IF    (FSBCATNLM+FSBCATNIN),BEGIN      Inserts Blocked
 000BD8 4780 6010            00BE4  6962             +
 000BDC 41F0 001C            0001C  6967  1 1488.                LA    R15,DIRNMR              |
 000BE0 4DE0 7AEA            00B1A  6968  1 1489.                BAS   R14,CATERROR            |
 000BE4                             6969    1490.              END   ,                       OF Inserts Blocked
 000BE4 4D90 7862            00892  6973    1491.              LCALL CATNAME                 SETUP NAME (NO DOTS & LEN)
                                    6975    1492.
                                    6976    1493.              AIF   (&CHKOFF).RENCHK
 000BE8 5900 6484            01058  6977    1494.              IF    (R0,NE,FILEMODE),BEGIN  Can't Rename Accounts
 000BEC 4780 6024            00BF8  6989             +
 000BF0 41F0 0018            00018  6994  1 1495.                LA    R15,DIRRENAC            |
 000BF4 4DE0 7AEA            00B1A  6995  1 1496.                BAS   R14,CATERROR            |
 000BF8                             6996    1497.              END   ,                       Of Can't Rename Acc
                                    7000    1498.
                                    7001    1499.     .RENCHK  ANOP  ,
 000BF8 D72B 505C 5030 0005C 00030  7002    1500.              XC    RQBLNAME(L'RQBLNAME),RQBLRNAM    Exchange RQBL Names
 000BFE D72B 5030 505C 00030 0005C  7003    1501.              XC    RQBLRNAM(L'RQBLRNAM),RQBLNAME    |
 000C04 D72B 505C 5030 0005C 00030  7004    1502.              XC    RQBLNAME(L'RQBLNAME),RQBLRNAM    |
                                    7005    1503.
 000C0A D726 80C4 80EB 000C4 000EB  7006    1504.              XC    CHKFNMSZ(L'CHKFNAME+1),CHKFRNMS  Exchange Len & Name
 000C10 D726 80EB 80C4 000EB 000C4  7007    1505.              XC    CHKFRNMS(L'CHKFRNAM+1),CHKFNMSZ  |
 000C16 D726 80C4 80EB 000C4 000EB  7008    1506.              XC    CHKFNMSZ(L'CHKFNAME+1),CHKFRNMS  |
 000C1C 4D90 7862            00892  7009    1507.              LCALL CATNAME
 000C20                             7011    1508.              CLEAR CHKFLGS                 New Search
 000C20 D701 801C 801C 0001C 0001C  7017             +
 000C26 4D90 789A            008CA  7018    1509.              LCALL CATSRCH                 Look for new entry
 000C2A 4770 6062            00C36  7020    1510.              IF    ZERO,BEGIN              New File Exists
 000C2E 41F0 0008            00008  7031  1 1511.                LA    R15,DIRDUPER            |
 000C32 4DE0 7AEA            00B1A  7032  1 1512.                BAS   R14,CATERROR            |
 000C36                             7033    1513.              END   ,                       Of New File Exists
1FILEVCAT (FILEVC) (09:45) (22MAR04) Rename File                                                                            Page   71
0Current Usings:  (DSKBLK,R2) (RQB,R5) (*,R6) (*,R7) (CHKPNT,R8) (FSB,R10)
0Loc    Object Code    Addr1 Addr2  Stmt Lv Lineno    Source Statement           (Hibal 5, Asmedit 3.3)  HLASM R4.0  2004/03/22 09.45
+___    ______ ____    _____ _____  ____ __ ______    ______ _________
0000C36 D726 80C4 80EB 000C4 000EB  7037    1514.              XC    CHKFNMSZ(L'CHKFNAME+1),CHKFRNMS  Exchange Len & Name
 000C3C D726 80EB 80C4 000EB 000C4  7038    1515.              XC    CHKFRNMS(L'CHKFRNAM+1),CHKFNMSZ  |
 000C42 D726 80C4 80EB 000C4 000EB  7039    1516.              XC    CHKFNMSZ(L'CHKFNAME+1),CHKFRNMS  |
 000C48                             7040    1517.              CLEAR CHKFLGS                 New search
 000C48 D701 801C 801C 0001C 0001C  7046             +
 000C4E 4800 805C/1BFF       0005C  7047    1518.              DREAD CHKACCB,PTR=ACC,ERR=CATERROR     Read ACC entry node
 000C54 4D90 7032            00062  7057             +
 000C58 5020 8058            00058  7059             +
 000C5C 9668 801C      0001C        7060    1519.              SET   CHKFMOD+CHKFPER+CHKFDEL Show me the whole entry
 000C60 4100 0004            00004  7073    1520.              LA    R0,FILEMODE             R0 indicates File
 000C64 4D90 789A            008CA  7074    1521.              LCALL CATSRCH                 Look for old entry
 000C68 4780 60A0            00C74  7076    1522.              IF    NZ,BEGIN                Old entry not found
 000C6C 41F0 0004            00004  7087  1 1523.                LA    R15,DIRNFER             |
 000C70 4DE0 7AEA            00B1A  7088  1 1524.                BAS   R14,CATERROR            |
 000C74                             7089    1525.              END   ,                       Of Old entry not found
 000C74 5890 6488/0D99       0105C  7093    1526.              ACALL NTRYLOOK                Get Entry copy
 000C7A 4770 7AEA            00B1A  7097    1527.              IF    NZ,CATERROR             |
                                    7111    1528.              REGCH (MIX,0),(IX,1),(CNT,14),(PTR,15)
 000C7E 41E0 8404            00404  7112    1529.              LA    CNT,CHKIRNT             ADDR OF RENAME BUFFER
 000C82 18F0                        7113    1530.              LR    PTR,MIX                 | (LEN)
 000C84 1801                        7114    1531.              LR    MIX,IX                  ADDR OF OLD NTRY BUFFER
 000C86 181F                        7115    1532.              LR    IX,PTR                  | (LEN)
 000C88 0EE0                        7116    1533.              MVCL  CNT,MIX                 COPY ENTRY
 000C8A 5820 8040            00040  7117    1534.              L     DSK,CHKNTA              ENTRY BUFFER ADDRESS
 000C8E 4830 8046            00046  7118    1535.              LH    NOD,CHKNTN              ENTRY ADDRESS
 000C92 4133 2000            00000  7119    1536.              LA    NOD,DSKBLK(NOD)         |
                                    7120    1537.
 000C96 9204 8194      00194        7121    1538.              MVI   CHKI3TYP,CCHKREN        Indicate Rename
 000C9A D203 8196 805C 00196 0005C  7122    1539.              MVC   CHKIERAB(PL),CHKACCB    ACCOUNT info
 000CA0 D201 819A 8604 0019A 00604  7123    1540.              MVC   CHKIERAS,CHKACSP        | Stack ptr
 000CA6 D203 819C 8034 0019C 00034  7124    1541.              MVC   CHKIERCB(PL),CHKCURB    CURRENT Node info
 000CAC D201 81A0 8046 001A0 00046  7125    1542.              MVC   CHKIERCT,CHKNTN         | Entry offset
 000CB2 9200 81A2      001A2        7126    1543.              CLEAR CHKIERFL                Clear Rename Flags
 000CB6 48F0 819E            0019E  7133    1544.              LH    PTR,CHKIERCN            Current node ADDR
 000CBA 41FF 2000            00000  7134    1545.              LA    PTR,DSKBLK(PTR)         |
 USING  NODE,R15                    7135    1546.              WITH  (NODE,PTR),BEGIN        |
 000CBE 9140 F006      00006        7149  1 1547.                IF    NODFLEAF,BEGIN          It's a leaf delete
 000CC2 47E0 610C            00CE0  7159  1          +
 000CC6 9680 81A2      001A2        7164  2 1548.                  SET   RENLEAF                 |
 000CCA 9120 F006      00006        7170  2 1549.                  IF    NODFTRT,BEGIN           Tree root
 000CCE 47E0 610C            00CE0  7180  2          +
 000CD2                             7185  3 1550.                    IF    (NODNTNUM,EQ,1),'SET RENRTDL '   Will be root delete
 000CD2 D501 64A4 F002 01078 00002  7197  3          +
 000CD8 4770 610C            00CE0  7198  3          +
 000CDC 9640 81A2      001A2        7209  3          +
 000CE0                             7214  2 1551.                  END   ,                       OF Tree root
 000CE0                             7218  1 1552.                END   ,                       OF It's a leaf delete
 DROP   NODE,R15                    7222    1553.              END   ,                       OF Current node ADDR
 000CE0 D226 81A3 80C4 001A3 000C4  7230    1554.              MVC   CHKIEROS(L'CHKIERON+1),CHKFNMSZ  Old Name & size
 000CE6 D226 81CA 80EB 001CA 000EB  7231    1555.              MVC   CHKIERNS(L'CHKIERNN+1),CHKFRNMS  New Name & size
 000CEC 4D90 74C2            004F2  7232    1556.              IWRITE ERR=CATERROR
                                    7237    1557.
 000CF0 5890 648C/0D99       01060  7238    1558.              ACALL NTRYDEL                 DEL OLD NTRY (PTRS OK)
 000CF6 4770 7AEA            00B1A  7242    1559.              IF    NZ,CATERROR
1FILEVCAT (FILEVC) (09:45) (22MAR04) Rename File                                                                            Page   72
0Current Usings:  (DSKBLK,R2) (RQB,R5) (*,R6) (*,R7) (CHKPNT,R8) (FSB,R10)
0Loc    Object Code    Addr1 Addr2  Stmt Lv Lineno    Source Statement           (Hibal 5, Asmedit 3.3)  HLASM R4.0  2004/03/22 09.45
+___    ______ ____    _____ _____  ____ __ ______    ______ _________
0000CFA D226 80C4 81CA 000C4 001CA  7256    1560.              MVC   CHKFNMSZ(L'CHKFNAME+1),CHKIERNS  New name & size
 000D00 D226 80EB 81A3 000EB 001A3  7257    1561.              MVC   CHKFRNMS(L'CHKFRNAM+1),CHKIEROS  Old name & size
 000D06                             7258    1562.              CLEAR CHKFLGS
 000D06 D701 801C 801C 0001C 0001C  7264             +
 000D0C 9650 801C      0001C        7265    1563.              SET   CHKFMOD+CHKFINS
 000D10 4100 0004            00004  7274    1564.              LA    R0,FILEMODE             FIND LOC TO INS
 000D14 4D90 789A            008CA  7275    1565.              LCALL CATSRCH                 | (Entry isn't there)
 000D18 5890 6490/0D99       01064  7277    1566.              ACALL NTRYINS                 INSERT ENTRY
 000D1E 4770 7AEA            00B1A  7281    1567.              IF    NZ,CATERROR
                                    7295    1568.              REGCH (MIX,0),(IX,1)
                                    7296    1569.              AGO   .NORENAC                DON'T RENAME ACCOUNTS
                                    7297    1585.     .NORENAC ANOP  ,
 000D22 4140 100A            0000A  7298    1586.              WITH  (NTRY,IX),'LA QR,NTFLOC '        DEST OF FIXED RENAME
 USING  NTRY,R1
 DROP   NTRY,R1
 000D26 41E0 8404            00404  7322    1587.              LA    CNT,CHKIRNT             SOURCE OF FIXED RENAME
 USING  NTRY,R14                    7323    1588.              WITH  (NTRY,CNT),BEGIN        | RENAME BUFFER
 000D2A D214 4000 E00A 00000 0000A  7337  1 1589.                MVC   @QR(NTFLNMSZ-NTFLOC),NTFLOC      COPY FIXED
 000D30 4800 E000            00000  7338  1 1590.                LH    MIX,NTRYLEN             OLD LENGTH
 000D34 41F0 E000            00000  7339  1 1591.                LA    PTR,NTRY                START OF OLD ENTRY
 000D38 4130 E020            00020  7340  1 1592.                LA    NOD,NTFLNAME            SRC OF PERMITS
 000D3C 1F44/4340 E01F       0001F  7341  1 1593.                LC    QR,NTFLNMSZ             |
 000D42 41E4 3000            00000  7348  1 1594.                LA    CNT,@NOD(QR)            |
 DROP   NTRY,R14                    7349    1595.              END   ,                       OF ADDR TO SRC OF REN
                                    7357    1596.     *                                               PTR = TOTAL-NON_PERMIT
 000D46 1BFE                        7358    1597.              SR    PTR,CNT                 | -(BEGINNING_LEN)
 000D48 1AF0                        7359    1598.              AR    PTR,MIX                 | TOTAL-BEGIN_LEN
 USING  NTRY,R1                     7360    1599.              WITH  (NTRY,IX),BEGIN         ADDR TO DEST OF PERMITS
 000D4A 1F44/4340 80C4       000C4  7374  1 1600.                LC    QR,CHKFNMSZ             DEST OF PERMITS
 000D50 4104 101B            0001B  7381  1 1601.                LA    MIX,NTFLNAME-CNTAMXSZ(QR)        | (QR = FULL NAME LEN)
 DROP   NTRY,R1                     7382    1602.              END   ,                       OF ADDR TO DEST OF REN
                                    7390    1603.              REGCH (MIX,0),(IX,1),(CNT,14),(PTR,15)
 000D54 181F                        7391    1604.              LR    IX,PTR                  COPY LENGTHS
 000D56 0E0E                        7392    1605.              MVCL  MIX,CNT                 COPY RENAME BUFFER
                                    7393    1606.              AGO   .NORENA2                DON'T RENAME ACCOUNTS
                                    7394    1608.     .NORENA2 ANOP  ,
                                    7395    1609.
 000D58 4110 8204            00204  7396    1610.              LA    IX,CHKINTRY             LOC OF NEW ENTRY
 000D5C 41E0 8404            00404  7397    1611.              LA    CNT,CHKIRNT             LEN OF NEW NTRY
 000D60 4800 E000            00000  7398    1612.              WITH (NTRY,CNT),'LH R0,NTRYLEN '
 USING  NTRY,R14
 DROP   NTRY,R14
 000D64 1FFF/43F0 80EB       000EB  7422    1613.              LC    PTR,CHKFRNMS            | MINUS OLD NAME LEN
 000D6A 1B0F                        7429    1614.              SR    R0,PTR                  | |
 000D6C 1FFF/43F0 80C4       000C4  7430    1615.              LC    PTR,CHKFNMSZ            | PLUS NEW NAME LEN
 000D72 1A0F                        7437    1616.              AR    R0,PTR                  | |
 000D74 5890 6494/0D99       01068  7438    1617.              ACALL NTRYIAFT                INSERT
 000D7A 4770 7AEA            00B1A  7442    1618.              IF    NZ,CATERROR
 000D7E                             7456    1619.              CLEAR CHKIVLV3                3rd LEVEL INTENT DONE
 000D7E D7F1 8112 8112 00112 00112  7462             +
 000D84 4D90 74C2            004F2  7463    1620.              IWRITE ERR=CATERROR           |
 000D88 47F0 7B26            00B56  7468    1621.              TOCOM SAVE=NO
1FILEVCAT (FILEVC) (09:45) (22MAR04) Sequential Access                                                                      Page   73
0Current Usings:  (DSKBLK,R2) (RQB,R5) (*,R6) (*,R7) (CHKPNT,R8) (FSB,R10)
0Loc    Object Code    Addr1 Addr2  Stmt Lv Lineno    Source Statement           (Hibal 5, Asmedit 3.3)  HLASM R4.0  2004/03/22 09.45
+___    ______ ____    _____ _____  ____ __ ______    ______ _________
0                                   7472    1623.     *********************************************************************
                                    7473    1624.     *   Sequentially list the whole CATALOG, account and file trees     *
                                    7474    1625.     * On entry: FSB buffers are set up                                  *
                                    7475    1626.     * ON RETURN TO CALLER:                                              *
                                    7476    1627.     *     IF CC = 0                                                     *
                                    7477    1628.     *       R1  = Location of entry                                     *
                                    7478    1629.     *       R0  = Len of entry                                          *
                                    7479    1630.     *       R14 = Type of entry                                         *
                                    7480    1631.     *         0 = Account entry                                         *
                                    7481    1632.     *         4 = File entry                                            *
                                    7482    1633.     *       RQFNNOD indicates whether or not this node is new (ie. the  *
                                    7483    1634.     *         first time encountered on the tree traversal)             *
                                    7484    1635.     *       CHKSEQA/B/N point to the buffer address, block num and node *
                                    7485    1636.     *         offset of the current entry                               *
                                    7486    1637.     *       CHKSEQEA/B/N point to the extended buffer address, block    *
                                    7487    1638.     *         num and node offset of the current entrys extended data   *
                                    7488    1639.     *         if such a field exists                                    *
                                    7489    1640.     *     IF CC ~ 0                                                     *
                                    7490    1641.     *       IF R15 =  8: No more entrys                                 *
                                    7491    1642.     *       IF R15 = 16: No entrys in account tree                      *
                                    7492    1643.     *********************************************************************
                                    7493    1644.     *NEST,1
 000D8C                             7494    1645.     CATSEQ   CATENT ,
 000D8C 0D60                        7497    1646.              BASE  FBR
 DROP   *,R6
 USING  *,R6
                                    7514    1647.     *               Name buffer
 000D8E                             7515    1648.              CLEAR CHKFNAME                LIST ACCOUNTS
 000D8E D725 80C5 80C5 000C5 000C5  7521             +
 000D94 9200 80C4      000C4        7522    1649.              CLEAR CHKFNMSZ                |
 000D98                             7529    1650.              CLEAR CHKFLGS                 NEW SEARCH
 000D98 D701 801C 801C 0001C 0001C  7535             +
 000D9E 4100 0000            00000  7536    1651.              LA    R0,ACCMODE              |
 000DA2 4D90 789A            008CA  7537    1652.              LCALL CATSRCH                 |
 000DA6 4740 61AE            00F3C  7539    1653.              IF    NNEG,BEGIN              AN ACCOUNT ENTRY FOUND
 000DAA 1813                        7550  1 1654.                LR    IX,NOD                  ADDR TO ENTRY
 000DAC 4830 8036            00036  7551  1 1655.                LH    NOD,CHKCURN             ADDR TO NODE
 000DB0 5E30 8030            00030  7552  1 1656.                AL    NOD,CHKCURA             |
 000DB4 4D90 7698            006C8  7553  1 1657.                LCALL CATLHERE                START LISTING HERE
 000DB8 4770 61AA            00F38  7555  1 1658.                WHILE ZERO,BEGIN              MORE ACCOUNT ENTRYS IN TREE
 USING  NTRY,R3                     7568  2 1659.                  WITH  (NTRY,NOD)              ENTRY ADDR
 USING  CHKDSTK,R4                  7581  2 1660.                  WITH (CHKDSTK,QR),BEGIN       STACK ADDR
 000DBC D203 806C 4000 0006C 00000  7595  3 1661.                    MVC   CHKSEQB(PL),CHKSTBK     POINTERS - BLOCK/NODE
 000DC2 5020 8068            00068  7596  3 1662.                    ST    DSK,CHKSEQA             | BUFFER ADDR
 000DC6 D201 805C 4000 0005C 00000  7597  3 1663.                    MVC   CHKACCB,CHKSTBK         NEW ACCOUNT (BLK)
 000DCC 48F0 4002            00002  7598  3 1664.                    LH    PTR,CHKSTNO             | ENTRY OFFSET (IN BLK)
 000DD0 4AF0 4004            00004  7599  3 1665.                    AH    PTR,CHKSTEO             | |
 000DD4 40F0 805E            0005E  7600  3 1666.                    STH   PTR,CHKACCN             | |
 DROP   CHKDSTK,R4                  7601  2 1667.                  END   ,                       OF STACK ADDR
 000DD8 D201 8604 8606 00604 00606  7609  2 1668.                  MVC   CHKACSP,CHKSTKP         ACC STACK PTR
 000DDE 5020 8058            00058  7610  2 1669.                  ST    DSK,CHKACCA             |
                                    7611  2 1670.     *               Move whole account entry to buffer
                                    7612  2 1671.                  REGCH (IX,1),(PTR,15)
 000DE2 1831                        7613  2 1672.                  LR    NOD,IX                  ADDR TO ENTRY
1FILEVCAT (FILEVC) (09:45) (22MAR04) Sequential Access                                                                      Page   74
0Current Usings:  (DSKBLK,R2) (NTRY,R3) (RQB,R5) (*,R6) (*,R7) (CHKPNT,R8) (FSB,R10)
0Loc    Object Code    Addr1 Addr2  Stmt Lv Lineno    Source Statement           (Hibal 5, Asmedit 3.3)  HLASM R4.0  2004/03/22 09.45
+___    ______ ____    _____ _____  ____ __ ______    ______ _________
0000DE4 41E0 8204            00204  7614  2 1673.                  ZOT   CHKINTRY,LA:CFSBMXNT    |
 000DE8 41F0 0129/1B11       00129  7626  2          +
 000DEE 0EE0                        7628  2          +
 000DF0 4100 8204            00204  7629  2 1674.                  LA    MIX,CHKINTRY            DESTINATION OF COPY OF NODE
 000DF4 18E3                        7630  2 1675.                  LR    CNT,NOD                 SOURCE OF COPY NODE
 000DF6 48F0 3000            00000  7631  2 1676.                  LH    PTR,NTRYLEN             ENTRY LENGTH IN INDEX
 000DFA 181F                        7632  2 1677.                  LR    IX,PTR                  LENGTHS TO COPY
 000DFC 0E0E                        7633  2 1678.                  MVCL  MIX,CNT                 COPY
 000DFE                             7634  2 1679.                  CLC   NTRYDATB(PL),=&L.AL1(NIL)        EXTENDED DATA AREA
 000DFE D503 3006 62DE 00006 0106C        2          +
 000E04 4780 60BA            00E48  7635  2 1680.                  IF    NE,BEGIN                |
 000E08 D203 8074 3006 00074 00006  7646  3 1681.                    MVC   CHKSEQEB(PL),NTRYDATB   EXTENDED DATA PTRS
 000E0E 4800 8074/1BFF       00074  7647  3 1682.                    DREAD CHKSEQEB,PTR=SEQE,ERR=CATERROR   |
 000E14 4D90 7032            00062  7657  3          +
 000E18 5020 8070            00070  7659  3          +
 000E1C 4130 8204            00204  7660  3 1683.                    LA    NOD,CHKINTRY            ADDR TO CURRENT ENTRY
 000E20 48E0 3008            00008  7661  3 1684.                    LH    CNT,NTRYDATN            NTRYXTND ADDRESSABILITY
 000E24 41EE 2000            00000  7662  3 1685.                    LA    CNT,DSKBLK(CNT)         |
 USING  NTRYXTND,R14                7663  3 1686.                    WITH  (NTRYXTND,CNT),BEGIN
 000E28 48F0 E000            00000  7677  4 1687.                      LH    PTR,NTRYXLEN            DATA LEN OF EXTENDED DATA AREA
 000E2C 4140 0002            00002  7678  4 1688.                      LA    QR,CNTXFXLN             | FIXED LENGTH OVERHEAD
 000E30 1BF4                        7679  4 1689.                      SR    PTR,QR                  | |
 000E32 41E0 E002            00002  7680  4 1690.                      LA    CNT,NTRYXPER            SOURCE (ADDR OF CONT PERMITS)
 DROP   NTRYXTND,R14                7681  3 1691.                    END   ,                       OF NTRYXTND ADDRESSABILITY
 000E36 4840 3000            00000  7689  3 1692.                    LH    QR,NTRYLEN              DEST = END OF COPY (ORIG LEN)
 000E3A 4104 3000            00000  7690  3 1693.                    LA    MIX,NTRY(QR)            |
 000E3E 1E4F                        7691  3 1694.                    ALR   QR,PTR                  NEW LEN (IN COPY)
 000E40 4040 3000            00000  7692  3 1695.                    STH   QR,NTRYLEN              |
 000E44 181F                        7693  3 1696.                    LR    IX,PTR                  LENGTHS TO COPY
 000E46 0E0E                        7694  3 1697.                    MVCL  MIX,CNT                 COPY
 000E48                             7695  2 1698.                  END   ,                       OF ENTRY HAS EXTENDED DATA AREA
 000E48 4110 8204            00204  7699  2 1699.                  LA    R1,CHKINTRY             PTRS TO NTRY COPY
 000E4C 4800 3000            00000  7700  2 1700.                  LH    R0,NTRYLEN              | (R1/R0 = ENTRY LOC/LEN)
                                    7701  2 1701.
 000E50 41E0 0000            00000  7702  2 1702.                  LA    R14,ACCMODE
 000E54 1BFF                        7703  2 1703.                  CLEAR R15                     RETURN TO COMMON ROUTINES
 000E56 4D90 7B1E            00B4E  7707  2 1704.                  TOCOM ,                       | MORE ACCOUNTS TO COME
 000E5A                             7711  2 1705.                  CLEAR CHKFNAME                LIST THIS ACCOUNT'S FILES
 000E5A D725 80C5 80C5 000C5 000C5  7717  2          +
 000E60 9200 80C4      000C4        7718  2 1706.                  CLEAR CHKFNMSZ                |
 000E64                             7725  2 1707.                  CLEAR CHKFLGS                 NEW SEARCH
 000E64 D701 801C 801C 0001C 0001C  7731  2          +
 000E6A 4100 0004            00004  7732  2 1708.                  LA    R0,FILEMODE             |
 000E6E 4D90 789A            008CA  7733  2 1709.                  LCALL CATSRCH                 |
 000E72 4740 6184            00F12  7735  2 1710.                  IF    NNEG,BEGIN              A FILE ENTRY FOUND
 000E76 1813                        7746  3 1711.                    LR    IX,NOD                  ADDR TO ENTRY
 000E78 4830 8036            00036  7747  3 1712.                    LH    NOD,CHKCURN             ADDR TO NODE
 000E7C 5E30 8030            00030  7748  3 1713.                    AL    NOD,CHKCURA             |
 000E80 4D90 7698            006C8  7749  3 1714.                    LCALL CATLHERE                START LISTING HERE
 000E84 4770 6184            00F12  7751  3 1715.                    WHILE ZERO,BEGIN              MORE FILE ENTRYS IN TREE
 USING  CHKDSTK,R4                  7764  4 1716.                      WITH  (CHKDSTK,QR),BEGIN      STACK ADDR
 000E88 D203 806C 4000 0006C 00000  7778  5 1717.                        MVC   CHKSEQB(PL),CHKSTBK     POINTERS - BLOCK/NODE
 000E8E 5020 8068            00068  7779  5 1718.                        ST    DSK,CHKSEQA             | BUFFER
 DROP   CHKDSTK,R4                  7780  4 1719.                      END   ,                       OF STACK ADDR
1FILEVCAT (FILEVC) (09:45) (22MAR04) Sequential Access                                                                      Page   75
0Current Usings:  (DSKBLK,R2) (NTRY,R3) (RQB,R5) (*,R6) (*,R7) (CHKPNT,R8) (FSB,R10)
0Loc    Object Code    Addr1 Addr2  Stmt Lv Lineno    Source Statement           (Hibal 5, Asmedit 3.3)  HLASM R4.0  2004/03/22 09.45
+___    ______ ____    _____ _____  ____ __ ______    ______ _________
0                                   7788  4 1720.                      REGCH (IX,1),(PTR,15)
 000E92 1831                        7789  4 1721.                      LR    NOD,IX                  ADDR TO ENTRY
 000E94 41E0 8204            00204  7790  4 1722.                      ZOT   CHKINTRY,LA:CFSBMXNT    CLEAR ENTRY COPY SPACE
 000E98 41F0 0129/1B11       00129  7802  4          +
 000E9E 0EE0                        7804  4          +
 000EA0 4100 8204            00204  7805  4 1723.                      LA    MIX,CHKINTRY            DESTINATION OF COPY OF NODE
 000EA4 18E3                        7806  4 1724.                      LR    CNT,NOD                 SOURCE OF COPY NODE
 000EA6 48F0 3000            00000  7807  4 1725.                      LH    PTR,NTRYLEN             ENTRY LENGTH IN INDEX
 000EAA 181F                        7808  4 1726.                      LR    IX,PTR                  LENGTHS TO COPY
 000EAC 0E0E                        7809  4 1727.                      MVCL  MIX,CNT                 COPY
 000EAE                             7810  4 1728.                      CLC   NTRYDATB(PL),=&L.AL1(NIL)        EXTENDED DATA AREA
 000EAE D503 3006 62DE 00006 0106C        4          +
 000EB4 4780 616A            00EF8  7811  4 1729.                      IF    NE,BEGIN                |
 000EB8 D203 8074 3006 00074 00006  7822  5 1730.                        MVC   CHKSEQEB(PL),NTRYDATB   EXTENDED DATA PTRS
 000EBE 4800 8074/1BFF       00074  7823  5 1731.                        DREAD CHKSEQEB,PTR=SEQE,ERR=CATERROR   |
 000EC4 4D90 7032            00062  7833  5          +
 000EC8 5020 8070            00070  7835  5          +
 000ECC 4130 8204            00204  7836  5 1732.                        LA    NOD,CHKINTRY            ADDR TO CURRENT ENTRY
 000ED0 48E0 3008            00008  7837  5 1733.                        LH    CNT,NTRYDATN            NTRYXTND ADDRESSABILITY
 000ED4 41EE 2000            00000  7838  5 1734.                        LA    CNT,DSKBLK(CNT)         |
 USING  NTRYXTND,R14                7839  5 1735.                        WITH  (NTRYXTND,CNT),BEGIN
 000ED8 48F0 E000            00000  7853  6 1736.                          LH    PTR,NTRYXLEN            DATA LEN OF EXTENDED DATA AREA
 000EDC 4140 0002            00002  7854  6 1737.                          LA    QR,CNTXFXLN             | FIXED LENGTH OVERHEAD
 000EE0 1BF4                        7855  6 1738.                          SR    PTR,QR                  | |
 000EE2 41E0 E002            00002  7856  6 1739.                          LA    CNT,NTRYXPER            SOURCE (ADDR OF CONT PERMITS)
 DROP   NTRYXTND,R14                7857  5 1740.                        END   ,                       OF NTRYXTND ADDRESSABILITY
 000EE6 4840 3000            00000  7865  5 1741.                        LH    QR,NTRYLEN              DEST = END OF COPY (ORIG LEN)
 000EEA 4104 3000            00000  7866  5 1742.                        LA    MIX,NTRY(QR)            |
 000EEE 1E4F                        7867  5 1743.                        ALR   QR,PTR                  NEW LEN (IN COPY)
 000EF0 4040 3000            00000  7868  5 1744.                        STH   QR,NTRYLEN              |
 000EF4 181F                        7869  5 1745.                        LR    IX,PTR                  LENGTHS TO COPY
 000EF6 0E0E                        7870  5 1746.                        MVCL  MIX,CNT                 COPY
 000EF8                             7871  4 1747.                      END   ,                       OF ENTRY HAS EXTENDED DATA AREA
 000EF8 4110 8204            00204  7875  4 1748.                      LA    R1,CHKINTRY             PTRS TO ENTRY COPY
 000EFC 4800 3000            00000  7876  4 1749.                      LH    R0,NTRYLEN              | (R1/R0 = ENTRY LOC/LEN)
                                    7877  4 1750.
 000F00 41E0 0004            00004  7878  4 1751.                      LA    R14,FILEMODE
 000F04 1BFF                        7879  4 1752.                      CLEAR R15                     RETURN TO COMMON ROUTINES
 000F06 4D90 7B1E            00B4E  7883  4 1753.                      TOCOM ,                       | MORE FILES TO COME
 000F0A 4D90 76F4            00724  7887  4 1754.                      LCALL CATLNEXT                GET NEXT FILE ENTRY
 000F0E 47F0 60F6            00E84  7889  3 1755.                    END   ,                       OF MORE FILE ENTRYS IN TREE
 000F12                             7894  2 1756.                  END   ,                       OF A FILE ENTRY FOUND
 000F12 9680 801C      0001C        7898  2 1757.                  SET   CHKFACC                 BACK TO ACCOUNT ENTRYS
 000F16 4840 8606            00606  7904  2 1758.                  TRESTKAD QR                   READ IN ACCOUNT BLOCK
 000F1A 4C40 62EC            0107A  7906  2          +
 000F1E 4144 8600            00600  7907  2          +
 USING  CHKDSTK,R4                  7908  2 1759.                  WITH  (CHKDSTK,QR),BEGIN      STACK ADDR
 000F22 4800 4000/1BFF       00000  7922  3 1760.                    DREAD CHKSTBK,PTR=SEQ,ERR=CATERROR     READ ACC BLK
 000F28 4D90 7032            00062  7932  3          +
 000F2C 5020 8068            00068  7934  3          +
 DROP   CHKDSTK,R4                  7935  2 1761.                  END   ,                       OF STACK ADDR
 000F30 4D90 76F4            00724  7943  2 1762.                  LCALL CATLNEXT                GET NEXT ACCOUNT ENTRY
 000F34 47F0 602A            00DB8  7945  1 1763.                END   ,                       OF MORE ACCOUNT ENTRYS IN TREE
 DROP   NTRY,R3
1FILEVCAT (FILEVC) (09:45) (22MAR04) Sequential Access                                                                      Page   76
0Current Usings:  (DSKBLK,R2) (RQB,R5) (*,R6) (*,R7) (CHKPNT,R8) (FSB,R10)
0Loc    Object Code    Addr1 Addr2  Stmt Lv Lineno    Source Statement           (Hibal 5, Asmedit 3.3)  HLASM R4.0  2004/03/22 09.45
+___    ______ ____    _____ _____  ____ __ ______    ______ _________
0000F38 41F0 0008            00008  7955  1 1764.                LA    R15,CSEQEND
 000F3C                             7956    1765.              END   ,                       OF AN ACCOUNT ENTRY FOUND
 000F3C 61B2           00F3C 00DA8  7960    1766.              ELSE  'LA R15,CSEQNONT '      NO ACCOUNT ENTRYS IN TREE
 000F3C 47F0 61B6            00F44  7965             +
 000F40 41F0 0010            00010  7972             +
 000F44 47F0 7B26            00B56  7977    1767.              TOCOM SAVE=NO
                                    7980    1768.     *NEST,2
1FILEVCAT (FILEVC) (09:45) (22MAR04) List Entrys                                                                            Page   77
0Current Usings:  (DSKBLK,R2) (RQB,R5) (*,R6) (*,R7) (CHKPNT,R8) (FSB,R10)
0Loc    Object Code    Addr1 Addr2  Stmt Lv Lineno    Source Statement           (Hibal 5, Asmedit 3.3)  HLASM R4.0  2004/03/22 09.45
+___    ______ ____    _____ _____  ____ __ ______    ______ _________
0                                   7982    1770.     *********************************************************************
                                    7983    1771.     *   Sequentially list a tree ACCOUNT/FILE                           *
                                    7984    1772.     * On entry: RQBLNAME contains the search key                        *
                                    7985    1773.     *             IF R0 = 0: Indicates an account search                *
                                    7986    1774.     *             IF R0 = 4: Indicates a file search                    *
                                    7987    1775.     * ON RETURN TO CALLER:                                              *
                                    7988    1776.     *      IF CC = 0                                                    *
                                    7989    1777.     *       The RQB is formatted according to the RQFCLP flag           *
                                    7990    1778.     *       RAR contains the return address to obtain the next entry    *
                                    7991    1779.     *      IF CC ~ 0                                                    *
                                    7992    1780.     *       IF R15 =  8: No more entrys                                 *
                                    7993    1781.     *       IF R15 = 16: No entrys in this tree                         *
                                    7994    1782.     *********************************************************************
                                    7995    1783.     *NEST,1
 000000                00000 00008  7996    1784.     DATEDSCT RECORD BEGIN                  DSECT date conversion work
 000000 6F6F616F6F616F6F            8004  1 1785.                DC    C'??/??/??'             FMTDATE return area
 000008                00008 00008  8005    1786.              END   ,
0USING  NODE,R3                     8015    1788.              USING NODE,NOD
 USING  NTRY,R1                     8024    1789.              USING NTRY,IX
 000F48                             8033    1790.     CATLIS   CATENT ,
 000F48 0D60                        8036    1791.              BASE  FBR
 DROP   *,R6
 USING  *,R6
 000F4A 4D90 7862            00892  8053    1792.              LCALL CATNAME                 SETUP NAME (NO DOTS & LEN)
 000F4E                             8055    1793.              CLEAR CHKFLGS                 NEW SEARCH
 000F4E D701 801C 801C 0001C 0001C  8061             +
 000F54 4D90 789A            008CA  8062    1794.              LCALL CATSRCH
 000F58 4740 6102            0104C  8064    1795.              IF    NNEG,BEGIN              AN ENTRY FOUND
 000F5C 1813                        8075  1 1796.                LR    IX,NOD                  ADDR TO ENTRY
 000F5E 4830 8036            00036  8076  1 1797.                LH    NOD,CHKCURN             ADDR TO NODE
 000F62 5E30 8030            00030  8077  1 1798.                AL    NOD,CHKCURA             |
 000F66 4D90 7698            006C8  8078  1 1799.                LCALL CATLHERE                START LISTING HERE
 000F6A 4770 60FE            01048  8080  1 1800.                WHILE ZERO,BEGIN              MORE ENTRYS IN TREE
 000F6E 50D0 5028            00028  8093  2 1801.                  ST    WR,RQBLSPTR             POINT TO TEMP WORK AREA
 000F72 58D0 5020            00020  8094  2 1802.                  L     WR,RQBLWR2              |
 000F76 182D/41D0 D008       00008  8095  2 1803.                  VPUSH ,,L'DATEDSCT,PTR=SR     GET ROOM FOR DATE WORK AREA
 000F7C 1841                        8098  2 1804.                  LR    QR,IX                   ADDR TO ENTRY
 USING  NTRY,R4                     8099  2 1805.                  WITH  (NTRY,QR),BEGIN         |
 000F7E 9180 801C      0001C        8113  3 1806.                    IF    CHKFACC,BEGIN           ACCOUNT ENTRYS/NAMES
 000F82 47E0 605E            00FA8  8123  3          +
 000F86                             8128  4 1807.                      CLEAR (RQBLMXSP,8)            CLEAR ANSWER AREA
 000F86 D707 5062 5062 00062 00062  8134  4          +
 000F8C D201 505C 400A 0005C 0000A  8135  4 1808.                      MVC   RQBLNAME(2),NTGNAME     gg
 000F92 924B 505E      0005E        8136  4 1809.                      MVI   RQBLNAME+2,C'.'         The ubiquitous dot
 000F96 D202 505F 400C 0005F 0000C  8137  4 1810.                      MVC   RQBLNAME+3(3),NTGNAME+2 uuu
 000F9C D202 5063 400F 00063 0000F  8138  4 1811.                      MVC   RQBLMXSP+1(3),NTGMXSP   SPACE ALLOTMNT (3 BYTES TO 4)
 000FA2 D202 5067 4012 00067 00012  8139  4 1812.                      MVC   RQBLUSSP+1(3),NTGUSSP   SPACE USED (3 BYTES TO 4)
 000FA8 6062           00FA8 00F84  8140  3 1813.                    END   ELSE,BEGIN              FILE ENTRYS/NAMES
 000FA8 47F0 60E4            0102E  8149  3          +
 000FAC 9240 505C      0005C        8155  4 1814.                      MVI   RQBLNAME,C' '           BLANK NAME BUFFER
 000FB0 D22A 505D 505C 0005D 0005C  8156  4 1815.                      MVC   RQBLNAME+1(L'RQBLNAME-1),RQBLNAME
 000FB6 D203 505C 6126 0005C 01070  8157  4 1816.                      MVC   RQBLNAME(4),=C'ORV.'    SHOW IT'S ORVYL FILE, NO JOKE!!
 000FBC 924B 5062      00062        8158  4 1817.                      MVI   RQBLNAME+6,C'.'         The ubiquitous dot
1FILEVCAT (FILEVC) (09:45) (22MAR04) List Entrys                                                                            Page   78
0Current Usings:  (NTRY,R1) (DSKBLK,R2) (NODE,R3) (NTRY,R4) (RQB,R5) (*,R6) (*,R7) (CHKPNT,R8) (FSB,R10)
0Loc    Object Code    Addr1 Addr2  Stmt Lv Lineno    Source Statement           (Hibal 5, Asmedit 3.3)  HLASM R4.0  2004/03/22 09.45
+___    ______ ____    _____ _____  ____ __ ______    ______ _________
0000FC0 D201 5060 80C5 00060 000C5  8159  4 1818.                      MVC   RQBLNAME+4(2),CHKFNAME  gg
 000FC6 D202 5063 80C7 00063 000C7  8160  4 1819.                      MVC   RQBLNAME+7(3),CHKFNAME+2         uuu
 000FCC 924B 5066      00066        8161  4 1820.                      MVI   RQBLNAME+10,C'.'        DOT BETWEEN gg.uuu AND filename
 000FD0 1FEE/43E0 401F       0001F  8162  4 1821.                      LC    CNT,NTFLNMSZ
 000FD6 06E0/44E0 6134       0107E  8169  4 1822.                      DEX   CNT,'MVC RQBLNAME+11(0),NTFLNAME '
 00107E D200 5067 4020 00067 00020  8180  4          +
 000FDC 9140 502C      0002C        8188  4 1823.                      IF    RQFCLP,'MVC RQBLCRDT(12),NTFCRDT '       REST AS IS
 000FE0 47E0 60A0            00FEA  8198  4          +
 000FE4 D20B 5088 4013 00088 00013  8204  4          +
 000FEA 60A4           00FEA 00FE2  8209  4 1824.                      ELSE  BEGIN                   RETURN OTHER INFO IF NOT CLP
 000FEA 47F0 60E4            0102E  8214  4          +
 000FEE                             8220  5 1825.                        BEGIN ,                       FORMAT CREATION DATE
 000FEE BF0F 4013            00013  8224  6 1826.                          L4    R0,NTFCRDT              CREATION DATE
 000FF2 1B11                        8226  6 1827.                          CLEAR R1
 000FF4 18F2                        8230  6 1828.                          LR    R15,SR                  WORK AREA
 000FF6 58E0 612A/0DEE       01074  8231  6 1829.                          XCALL FMTDATE                 FORMAT IT
 000FFC D201 5088 1006 00088 00006  8235  6 1830.                          MVC   RQBLCCRD(2),6(R1)       YEAR
 001002 D201 508A 1000 0008A 00000  8236  6 1831.                          MVC   RQBLCCRD+2(2),0(R1)     MONTH
 001008 D201 508C 1003 0008C 00003  8237  6 1832.                          MVC   RQBLCCRD+4(2),3(R1)     DAY
 00100E                             8238  5 1833.                        END   ,                       OF FORMAT CREATION DATE
 00100E                             8242  5 1834.                        BEGIN ,                       FORMAT LAST ACCESS DATE
 00100E BF0F 4017            00017  8246  6 1835.                          L4    R0,NTFLSDT              LAST ACCESS DATE
 001012 1B11                        8248  6 1836.                          CLEAR R1
 001014 18F2                        8252  6 1837.                          LR    R15,SR                  WORK AREA
 001016 58E0 612A/0DEE       01074  8253  6 1838.                          XCALL FMTDATE                 FORMAT IT
 00101C D201 508E 1006 0008E 00006  8257  6 1839.                          MVC   RQBLCLSD(2),6(R1)       YEAR
 001022 D201 5090 1000 00090 00000  8258  6 1840.                          MVC   RQBLCLSD+2(2),0(R1)     MONTH
 001028 D201 5092 1003 00092 00003  8259  6 1841.                          MVC   RQBLCLSD+4(2),3(R1)     DAY
 00102E                             8260  5 1842.                        END   ,                       OF FORMAT LAST ACCESS DATE
 00102E                             8264  4 1843.                      END   ,                       OF RETURN OTHER INFO IF NOT CLP
 00102E                             8268  3 1844.                    END   ,                       OF FILE ENTRYS/NAMES
 DROP   NTRY,R4                     8272  2 1845.                  END   ,                       OF ADDR TO ENTRY
 00102E 1BFF                        8280  2 1846.                  CLEAR R15                     RETURN TO COMMON ROUTINES
 001030 4BD0 6132            0107C  8284  2 1847.                  VPOP  ,,L'DATEDSCT            POINT TO VFIL/VCAT RQBL STACK
 001034 50D0 5020            00020  8286  2 1848.                  ST    WR,RQBLWR2              |
 001038 58D0 5028            00028  8287  2 1849.                  L     WR,RQBLSPTR             |
 00103C 4D90 7B1E            00B4E  8288  2 1850.                  TOCOM ,                       | MORE TO COME
 001040 4D90 76F4            00724  8292  2 1851.                  LCALL CATLNEXT                GET NEXT ENTRY
 001044 47F0 6020            00F6A  8294  1 1852.                END   ,                       OF MORE ENTRYS IN TREE
 001048 41F0 0008            00008  8299  1 1853.                LA    R15,CSEQEND
 00104C                             8300    1854.              END   ,                       OF AN ENTRY FOUND
 00104C 6106           0104C 00F5A  8304    1855.              ELSE  'LA R15,CSEQNONT '      NO ENTRYS IN TREE
 00104C 47F0 610A            01054  8309             +
 001050 41F0 0010            00010  8316             +
 001054 47F0 7B26            00B56  8321    1856.              TOCOM SAVE=NO
                                    8324    1857.     *NEST,2
 DROP   NODE,R3                     8325    1858.              DROP  NOD                     NODE ADDR
 DROP   NTRY,R1                     8332    1859.              DROP  IX                      NTRY ADDR
 001058                             8339    1860.              LTORG ,
 001058 00000004                    8341                             =A(FILEMODE)
 00105C 00001084                    8342                             =A(NTRYLOOK)
 001060 00001560                    8343                             =A(NTRYDEL)
 001064 000012D4                    8344                             =A(NTRYINS)
 001068 00001408                    8345                             =A(NTRYIAFT)
1FILEVCAT (FILEVC) (09:45) (22MAR04) List Entrys                                                                            Page   79
0Current Usings:  (DSKBLK,R2) (RQB,R5) (*,R6) (*,R7) (CHKPNT,R8) (FSB,R10)
0Loc    Object Code    Addr1 Addr2  Stmt Lv Lineno    Source Statement           (Hibal 5, Asmedit 3.3)  HLASM R4.0  2004/03/22 09.45
+___    ______ ____    _____ _____  ____ __ ______    ______ _________
000106C FFFFFFFF                    8346                             =4AL1(NIL)
 001070 D6D9E54B                    8347                             =C'ORV.'
 001074 00000000                    8348                             =V(FMTDATE)
 001078 0001                        8349                             =AL2(1)
 00107A 0008                        8350                             =Y(L'CHKDSTK)
 00107C 0008           01084 046CB  8351                             =Y((L'DATEDSCT+3)/4*4)
1FILEVCAT (FILEVC) (09:45) (22MAR04) Entry Look                                                                             Page   80
0Current Usings:  (DSKBLK,R2) (RQB,R5) (*,R6) (*,R7) (CHKPNT,R8) (FSB,R10)
0Loc    Object Code    Addr1 Addr2  Stmt Lv Lineno    Source Statement           (Hibal 5, Asmedit 3.3)  HLASM R4.0  2004/03/22 09.45
+___    ______ ____    _____ _____  ____ __ ______    ______ _________
0                                   8356    1862.     *********************************************************************
                                    8357    1863.     * ON ENTRY: NOD and DSK contain the entry address and the block     *
                                    8358    1864.     *             address in memory of the entry to be examined         *
                                    8359    1865.     *           CHKNTB/N/AD, CHKCURB/N/AD, CHKPARB/N/AD, CHKLFTB/N,     *
                                    8360    1866.     *             CHKRHTB/N, all contain proper pointers to the current *
                                    8361    1867.     *             entry, the current node, its parent, and its left and *
                                    8362    1868.     *             right siblings respectively.                          *
                                    8363    1869.     * ON FINAL EXIT FROM NTRYLAFT:                                      *
                                    8364    1870.     *           Search pointers are still intact                        *
                                    8365    1871.     *********************************************************************
 USING  NTRY,R3                     8366    1872.              USING NTRY,NOD
                                    8375    1873.              REGCH (MIX,0),(IX,1),(CNT,14),(PTR,15) CHECK REG ASSUMPTIONS
 001084 5060 D000            00000  8376    1874.     NTRYLOOK DIRENT FBR,RAR
 001088 5090 D004            00004  8381             +
 00108C 41D0 D008/0D60       00008  8382             +
 DROP   *,R6                        8400    1875.              REGCH (PTR,15)                Efficiency for ZOT macro
 USING  *,R6
 001092 9140 801C      0001C        8401    1876.              IF    CHKFMOD,BEGIN           INTENT TO CHANGE LEN
 001096 47E0 601A            010AC  8411             +
 00109A                             8416  1 1877.                IF    ('CLC CHKANCH,=&L.AL1(NIL)',EQ),BEGIN    NO ROOM
 00109A D503 8010 6B1E 00010 01BB0  8423  1          +
 0010A0 4770 601A            010AC  8424  1          +
                                    8429  2 1878.     *                 If both chain anchors are nil, then no more room
                                    8430  2 1879.     *                 The look ahead for free space is done here so
                                    8431  2 1880.     *               that after the first return to the calling routine
                                    8432  2 1881.     *               there won't be a return of No_More_Room.
 0010A4 41F0 001C            0001C  8433  2 1882.                  LA    R15,DIRNMR              INDICATE - No_More_Room
 0010A8 4DE0 64BE            01550  8434  2 1883.                  BAS   R14,NTIERROR            |
 0010AC                             8435  1 1884.                END   ,                       OF NO ROOM
 0010AC                             8439    1885.              END   ,                       OF INTENT TO CHANGE LEN
 0010AC 41E0 8204            00204  8443    1886.              ZOT   CHKINTRY,LA:CFSBMXNT    CLEAR COPY SPACE
 0010B0 41F0 0129/1B11       00129  8455             +
 0010B6 0EE0                        8457             +
 0010B8 4100 8204            00204  8458    1887.              LA    MIX,CHKINTRY            DESTINATION OF COPY OF NODE
 0010BC 18E3                        8459    1888.              LR    CNT,NOD                 SOURCE OF COPY NODE
 0010BE 9120 801C      0001C        8460    1889.              IF    CHKFPER,BEGIN           PERMITS REQUIRED TOO
 0010C2 47E0 6096            01128  8470             +
 0010C6 48F0 3000            00000  8475  1 1890.                LH    PTR,NTRYLEN             ENTRY LENGTH IN INDEX
 0010CA 181F                        8476  1 1891.                LR    IX,PTR                  LENGTHS TO COPY
 0010CC 0E0E                        8477  1 1892.                MVCL  MIX,CNT                 COPY
 0010CE                             8478  1 1893.                CLC   NTRYDATB(PL),=&L.AL1(NIL)        EXTENDED DATA AREA
 0010CE D503 3006 6B1E 00006 01BB0        1          +
 0010D4 4780 608E            01120  8479  1 1894.                IF    NE,BEGIN                |
 0010D8 D203 804C 3006 0004C 00006  8490  2 1895.                  MVC   CHKWRKB(PL),NTRYDATB    EXTENDED DATA PTRS
 0010DE 4800 804C/1BFF       0004C  8491  2 1896.                  DREAD CHKWRKB,PTR=WRK,ERR=NTLERROR     |
 0010E4 4D90 7032            00062  8501  2          +
 0010E8 5020 8048            00048  8503  2          +
 0010EC 4830 8046            00046  8504  2 1897.                  LH    NOD,CHKNTN              ADDR TO CURRENT ENTRY
 0010F0 5E30 8040            00040  8505  2 1898.                  AL    NOD,CHKNTA              |
 0010F4 48E0 3008            00008  8506  2 1899.                  LH    CNT,NTRYDATN            NTRYXTND ADDRESSABILITY
 0010F8 41EE 2000            00000  8507  2 1900.                  LA    CNT,DSKBLK(CNT)         |
 USING  NTRYXTND,R14                8508  2 1901.                  WITH  (NTRYXTND,CNT),BEGIN
 0010FC 48F0 E000            00000  8522  3 1902.                    LH    PTR,NTRYXLEN       DATA LENGTH OF EXTENDED DATA AREA
 001100 4140 0002            00002  8523  3 1903.                    LA    QR,CNTXFXLN             | FIXED LENGTH OVERHEAD
1FILEVCAT (FILEVC) (09:45) (22MAR04) Entry Look                                                                             Page   81
0Current Usings:  (DSKBLK,R2) (NTRY,R3) (RQB,R5) (*,R6) (*,R7) (CHKPNT,R8) (FSB,R10) (NTRYXTND,R14)
0Loc    Object Code    Addr1 Addr2  Stmt Lv Lineno    Source Statement           (Hibal 5, Asmedit 3.3)  HLASM R4.0  2004/03/22 09.45
+___    ______ ____    _____ _____  ____ __ ______    ______ _________
0001104 1BF4                        8524  3 1904.                    SR    PTR,QR                  | |
 001106 41E0 E002            00002  8525  3 1905.                    LA    CNT,NTRYXPER       SOURCE (ADDRESS OF CONTINUED PERMITS)
 DROP   NTRYXTND,R14                8526  2 1906.                  END   ,                       OF NTRYXTND ADDRESSABILITY
 00110A 4110 8204            00204  8534  2 1907.                  LA    IX,CHKINTRY             ADDR TO COPY
 DROP   NTRY,R3                     8535  2 1908.                  WITH  (NTRY,IX),BEGIN         |
 USING  NTRY,R1
 00110E 4840 1000            00000  8557  3 1909.                    LH    QR,NTRYLEN         DEST = END OF COPY (ORIGINAL LEN)
 001112 4104 1000            00000  8558  3 1910.                    LA    MIX,NTRY(QR)            |
 001116 1E4F                        8559  3 1911.                    ALR   QR,PTR                  NEW LEN (IN COPY)
 001118 4040 1000            00000  8560  3 1912.                    STH   QR,NTRYLEN              |
 USING  NTRY,R3                     8561  2 1913.                  END   ,                       OF ADDR TO COPY
 DROP   NTRY,R1
 00111C 181F                        8578  2 1914.                  LR    IX,PTR                  LENGTHS TO COPY
 00111E 0E0E                        8579  2 1915.                  MVCL  MIX,CNT                 COPY
 001120                             8580  1 1916.                END   ,                       OF ENTRY HAS EXTENDED DATA AREA
 001120 4110 8204            00204  8584  1 1917.                LA    R1,CHKINTRY        PTRS TO ENTRY COPY (R1 = ENTRY ADDR)
 001124 4800 1000            00000  8585  1 1918.                WITH  (NTRY,R1),'LH R0,NTRYLEN '       | (R0 = ENTRY SIZE)
 DROP   NTRY,R3
 USING  NTRY,R1
 USING  NTRY,R3
 DROP   NTRY,R1
 001128                             8626    1919.              END   ,                       OF PERMITS REQUIRED TOO
 001128 609A           01128 010C4  8630    1920.              ELSE  BEGIN              ONLY FIXED PORTIONS (+ FILE NAME)
 001128 47F0 60C0            01152  8635             +
 00112C 9180 801C      0001C        8641  1 1921.                IF    CHKFACC,'LA IX,L"NTRYGR '
 001130 47E0 60A6            01138  8651  1          +
 001134 4110 001A            0001A  8657  1          +
 001138 60AA           01138 01132  8662  1 1922.                ELSE  BEGIN              FIXED SIZE OF FILE ENTRY (+ NAME)
 001138 47F0 60B4            01146  8667  1          +
 00113C 1F11/4310 301F       0001F  8673  2 1923.                  LC    IX,NTFLNMSZ             | NAME SIZE
 001142 4110 1020            00020  8680  2 1924.                  LA    IX,L'NTRYFL(,IX)        |
 001146                             8681  1 1925.                END   ,                  OF FIXED SIZE OF FILE ENTRY (+ NAME)
 001146 18F1                        8685  1 1926.                LR    PTR,IX                  LENGTHS TO COPY
 001148 1841                        8686  1 1927.                LR    QR,IX                   SAVE LENGTH
 00114A 0E0E                        8687  1 1928.                MVCL  MIX,CNT                 COPY
 00114C 4110 8204            00204  8688  1 1929.                LA    R1,CHKINTRY        PTRS TO ENTRY COPY (R1 = ENTRY ADDR)
 001150 1804                        8689  1 1930.                LR    R0,QR                   | (R0 = ENTRY SIZE)
 001152                             8690    1931.              END   ,                  OF ONLY FIXED PORTIONS (+ FILE NAME)
 001152 4BD0 6B36            01BC8  8694    1932.              DIREST FBR,RAR
 001156 5860 D000            00000  8697             +
 00115A 5890 D004            00004  8698             +
 00115E 1BFF                        8699    1933.              CLEAR R15                     ALL OK - SET CC
 001160 07F9                        8703    1934.              BR    RAR
                                    8704    1935.     *********************************************************************
                                    8705    1936.     * ON RETURN TO CALLER:                                              *
                                    8706    1937.     *      IF CC = 0                                                    *
                                    8707    1938.     *        R1  = Address of the requested entry                       *
                                    8708    1939.     *        R0  = Size of the entry                                    *
                                    8709    1940.     *        RAR = Address to return to after working w/ entry          *
                                    8710    1941.     *      IF CC ~ 0                                                    *
                                    8711    1942.     *        R14 conatains the PSW at error detection                   *
                                    8712    1943.     *        The 2nd low order byte of R15 indicates the module         *
                                    8713    1944.     *          in which the error occured.                              *
                                    8714    1945.     *        The low order byte of R15 contains the error code for      *
1FILEVCAT (FILEVC) (09:45) (22MAR04) Entry Look                                                                             Page   82
0Current Usings:  (DSKBLK,R2) (NTRY,R3) (RQB,R5) (*,R6) (*,R7) (CHKPNT,R8) (FSB,R10)
0Loc    Object Code    Addr1 Addr2  Stmt Lv Lineno    Source Statement           (Hibal 5, Asmedit 3.3)  HLASM R4.0  2004/03/22 09.45
+___    ______ ____    _____ _____  ____ __ ______    ______ _________
0                                   8715    1946.     *          that module.                                             *
                                    8716    1947.     *        No subsequent return                                       *
                                    8717    1948.     * ON SUBSEQUENT RETURN FROM CALLER:                                 *
                                    8718    1949.     *      RAR = Return Address                                         *
                                    8719    1950.     *      IF R15 = 0                                                   *
                                    8720    1951.     *        The entry was not modified, no rewrite needed              *
                                    8721    1952.     *      IF R15 > 0                                                   *
                                    8722    1953.     *        The entry was modified but the size of the entry is the    *
                                    8723    1954.     *          same, so simply rewrite the block                        *
                                    8724    1955.     *      IF R15 < 0                                                   *
                                    8725    1956.     *        The entry was modified and the size was changed.           *
                                    8726    1957.     *        R0  = Size of new entry                                    *
                                    8727    1958.     * ON FINAL RETURN TO CALLER:                                        *
                                    8728    1959.     *      IF CC = 0                                                    *
                                    8729    1960.     *        Action complete                                            *
                                    8730    1961.     *********************************************************************
 001162 5060 D000            00000  8731    1962.     NTRYLAFT DIRENT FBR,RAR                2ND LIST ENTRY
 001166 5090 D004            00004  8736             +
 00116A 41D0 D008/0D60       00008  8737             +
 001170 12FF/4780 6152       012C2  8755    1963.              IF    (R15,ZERO),NTRYLOOX     NO CHANGES
 DROP   *,R6
 USING  *,R6
 001176 12FF/47D0 6068       011D8  8772    1964.              IF    (R15,POS),BEGIN         CHANGED, SAME SIZE - REWRITE
 00117C 9120 801C      0001C        8786  1 1965.                IF    CHKFPER,BEGIN           PERMITS INCLUDED
 001180 47E0 6038            011A8  8796  1          +
 001184 48F0 8046            00046  8801  2 1966.                  LH    R15,CHKNTN              OLD ENTRY ADDRESS
 001188 5EF0 8040            00040  8802  2 1967.                  AL    R15,CHKNTA              |
 00118C 48E0 F000            00000  8803  2 1968.                  WITH  (NTRY,R15),'LH R14,NTRYLEN '     OLD LEN (IN INDEX)
 USING  NTRY,R15
 DROP   NTRY,R15
 001190 4110 8204            00204  8827  2 1969.                  LA    R1,CHKINTRY             R1 = NEW LOC
 001194 4800 1000            00000  8828  2 1970.                  WITH  (NTRY,R1),'LH R0,NTRYLEN '       NEW LEN (TOTAL)
 DROP   NTRY,R3
 USING  NTRY,R1
 USING  NTRY,R3
 DROP   NTRY,R1
 001198                             8869  2 1971.                  NTRYCHG DEST=CUR,ERR=NTLERROR ADJUST SPACE IN ENTRY
 001198 D207 8050 8030 00050 00030  8871  2          +
 00119E 5890 6A44/0D99       01BB4  8874  2          +
 0011A4 4770 6154            012C4  8884  2          +
 0011A8                             8890  1 1972.                END   ,                       OF PERMITS INCLUDED
 0011A8 603C           011A8 01182  8894  1 1973.                ELSE  BEGIN                   PERMITS NOT INCLUDED
 0011A8 47F0 6068            011D8  8899  1          +
 0011AC 5820 8040            00040  8905  2 1974.                  L     DSK,CHKNTA              BUFFER ADDRESS
 0011B0 9640 200E      0000E        8906  2 1975.                  SET   DSKFMOD                 | MODIFIED - WRITE IT
 0011B4 48E0 8046            00046  8912  2 1976.                  LH    CNT,CHKNTN              LOC OF OLD
 0011B8 41EE 2000            00000  8913  2 1977.                  LA    CNT,DSKBLK(CNT)         |
 0011BC 4100 8204            00204  8914  2 1978.                  LA    MIX,CHKINTRY            LOC OF NEW
 0011C0 9180 801C      0001C        8915  2 1979.                  IF    CHKFACC,'LA IX,L"NTRYGR '
 0011C4 47E0 605C            011CC  8925  2          +
 0011C8 4110 001A            0001A  8931  2          +
 0011CC 6060           011CC 011C6  8936  2 1980.                  ELSE  'LA IX,L"NTRYFL '
 0011CC 47F0 6064            011D4  8941  2          +
 0011D0 4110 0020            00020  8948  2          +
1FILEVCAT (FILEVC) (09:45) (22MAR04) Entry Look                                                                             Page   83
0Current Usings:  (DSKBLK,R2) (NTRY,R3) (RQB,R5) (*,R6) (*,R7) (CHKPNT,R8) (FSB,R10)
0Loc    Object Code    Addr1 Addr2  Stmt Lv Lineno    Source Statement           (Hibal 5, Asmedit 3.3)  HLASM R4.0  2004/03/22 09.45
+___    ______ ____    _____ _____  ____ __ ______    ______ _________
00011D4 18F1                        8953  2 1981.                  LR    PTR,IX                  LENGTHS TO COPY
 0011D6 0EE0                        8954  2 1982.                  MVCL  CNT,MIX                 COPY
 0011D8                             8955  1 1983.                END   ,                       OF PERMITS NOT INCLUDED
 0011D8                             8959    1984.              END   ,                       OF CHANGED, SAME SIZE - REWRITE
 0011D8 606C           011D8 0117A  8963    1985.              ELSE  BEGIN                   CHANGED, NEW SIZE - REWRITE
 0011D8 47F0 60E2            01252  8968             +
 0011DC 9140 801C      0001C        8974  1 1986.                IF    ~CHKFMOD,BEGIN          CAN'T CHANGE LEN W/OUT MODS BIT
 0011E0 4710 607C            011EC  8984  1          +
 0011E4 41F0 0014            00014  8989  2 1987.                  LA    R15,DIRMODLN            |
 0011E8 4DE0 6154            012C4  8990  2 1988.                  BAS   R14,NTLERROR            |
 0011EC                             8991  1 1989.                END   ,                  OF CAN'T CHANGE LEN W/OUT MODS BIT
 0011EC 4110 8204            00204  8995  1 1990.                LA    IX,CHKINTRY             ADDR TO NEW ENTRY
 DROP   NTRY,R3                     8996  1 1991.                WITH  (NTRY,IX),BEGIN         |
 USING  NTRY,R1
                                    9018  2 1992.                  AIF   (&CHKOFF).NTLCHK
 0011F0 9180 801C      0001C        9019  2 1993.                  IF    CHKFACC,BEGIN
 0011F4 47E0 6092            01202  9029  2          +
 0011F8 48F0 A0B6            000B6  9034  3 1994.                    LH    PTR,FSBTAXLN            PTR = MAX PERMIT LEN
 0011FC 41E0 001A            0001A  9035  3 1995.                    LA    CNT,L'NTRYGR            | CNT = ACTUAL NON PERMIT LEN
 001200 1BFE                        9036  3 1996.                    SR    PTR,CNT                 |
 001202 6096           01202 011F6  9037  2 1997.                  END   ELSE,BEGIN
 001202 47F0 60AA            0121A  9046  2          +
 001206 48F0 A0C2            000C2  9052  3 1998.                    LH    PTR,FSBTFXLN            PTR = MAX PERMIT LEN
 00120A 41E0 0041            00041  9053  3 1999.                    LA    CNT,L'NTRYFL+CNTFMXSZ
 00120E 1BFE                        9054  3 2000.                    SR    PTR,CNT                 |
 001210 1FEE/43E0 101F       0001F  9055  3 2001.                    LC    CNT,NTFLNMSZ            CNT = ACTUAL NON PERMIT LEN
 001216 41E0 E020            00020  9062  3 2002.                    LA    CNT,@CNT+L'NTRYFL       |
 00121A                             9063  2 2003.                  END   ,
 00121A 134E                        9067  2 2004.                  LCR   QR,CNT                  QR = ACTUAL PERMIT LEN
 00121C 1A40                        9068  2 2005.                  AR    QR,R0                   | (Total - Non_Permit)
 00121E 194F/4720 60BA       0122A  9069  2 2006.                  IF    ((QR,GT,PTR),OR,(R0,LT,CNT)),BEGIN       INV NTRY SIZE
 001224 190E/47B0 60C2       01232  9092  2          +
 00122A 41F0 0010            00010  9098  3 2007.                    LA    R15,DIRNTSZ             ERROR - INVALID ENTRY SIZE
 00122E 4DE0 6154            012C4  9099  3 2008.                    BAS   R14,NTLERROR
 001232                             9100  2 2009.                  END   ,                       OF INVALID ENTRY SIZE
                                    9104  2 2010.     .NTLCHK      ANOP  ,
 001232 4000 1000            00000  9105  2 2011.                  STH   R0,NTRYLEN              UPDATE COPY'S SIZE FIELD
 USING  NTRY,R3                     9106  1 2012.                END   ,                       OF WITH (NTRY,R1)
 DROP   NTRY,R1
 001236 48F0 8046            00046  9123  1 2013.                LH    R15,CHKNTN              OLD ENTRY ADDRESS
 00123A 5EF0 8040            00040  9124  1 2014.                AL    R15,CHKNTA              |
 00123E 48E0 F000            00000  9125  1 2015.                WITH  (NTRY,R15),'LH R14,NTRYLEN '     OLD ENTRY SIZE
 USING  NTRY,R15
 DROP   NTRY,R15
 001242                             9149  1 2016.                NTRYCHG DEST=CUR,ERR=NTLERROR ADJUST SPACE IN ENTRY
 001242 D207 8050 8030 00050 00030  9151  1          +
 001248 5890 6A44/0D99       01BB4  9154  1          +
 00124E 4770 6154            012C4  9164  1          +
 001252                             9170    2017.              END   ,                       OF CHANGED, NEW SIZE - REWRITE
                                    9174    2018.     *               Finish Checkpoint intentions and write
 001252 9500 8112      00112        9175    2019.              IF    (CHKITYPE,NZ),BEGIN     MULTIPLE BLOCKS
 001256 4780 6118            01288  9186             +
 00125A D203 811A 8034 0011A 00034  9191  1 2020.                MVC   CHKINTCB(PL),CHKCURB    CURRENT NODE
 001260 D201 811E 8046 0011E 00046  9192  1 2021.                MVC   CHKINTCT,CHKNTN         | ENTRY OFFSET
1FILEVCAT (FILEVC) (09:45) (22MAR04) Entry Look                                                                             Page   84
0Current Usings:  (DSKBLK,R2) (NTRY,R3) (RQB,R5) (*,R6) (*,R7) (CHKPNT,R8) (FSB,R10)
0Loc    Object Code    Addr1 Addr2  Stmt Lv Lineno    Source Statement           (Hibal 5, Asmedit 3.3)  HLASM R4.0  2004/03/22 09.45
+___    ______ ____    _____ _____  ____ __ ______    ______ _________
0001266 5820 8030            00030  9193  1 2022.                L     DSK,CHKCURA             PUT IN CLOCK TAG
 00126A D201 8122 2000 00122 00000  9194  1 2023.                MVC   CHKINTCC,DSKTAG         |
 001270 4D90 74C2            004F2  9195  1 2024.                IWRITE ERR=NTLERROR
 001274                             9200  1 2025.                IF    ('CLC CHKINTNB(PL),=&L.AL1(NIL)',NE),BEGIN
 001274 D503 812E 6A40 0012E 01BB0  9207  1          +
 00127A 4780 6118            01288  9208  1          +
 00127E 4800 812E/1BFF       0012E  9213  2 2026.                  DWRITE CHKINTNB,ERR=NTLERROR  WRITE NEW DATA BLOCK
 001284 4D90 7136            00166  9223  2          +
 001288                             9225  1 2027.                END   ,                       OF WRITE NEW DATA BLOCK
 001288                             9229    2028.              END   ,                       OF MULTIPLE BLOCKS
 001288 4800 8044/1BFF       00044  9233    2029.              DWRITE CHKNTB,ERR=NTLERROR    WRITE ENTRY BLOCK
 00128E 4D90 7136            00166  9243             +
 001292 9500 8112      00112        9245    2030.              IF    (CHKITYPE,NZ),BEGIN     MULTIPLE BLOCKS
 001296 4780 6152            012C2  9256             +
                                    9261  1 2031.   C            IF    (('CLC CHKINTOB(PL),=&L.AL1(NIL)',NE),AND,
 00129A                                   1 2032.                      (CHKINTOB,NE,CHKINTNB)),BEGIN    WRITE OLD DATA BLK
 00129A D503 8124 6A40 00124 01BB0  9270  1          +
 0012A0 4780 6148            012B8  9271  1          +
 0012A4 D501 8124 812E 00124 0012E  9285  1          +
 0012AA 4780 6148            012B8  9286  1          +
 0012AE 4800 8124/1BFF       00124  9291  2 2033.                  DWRITE CHKINTOB,ERR=NTLERROR  WRITE OLD DATA BLOCK
 0012B4 4D90 7136            00166  9301  2          +
 0012B8                             9303  1 2034.                END   ,                       OF WRITE OLD DATA BLOCK
 0012B8                             9307  1 2035.                CLEAR CHKIVLV1                CLR 1ST LEVEL INTENTIONS; DONE
 0012B8 D741 8112 8112 00112 00112  9313  1          +
 0012BE 4D90 74C2            004F2  9314  1 2036.                IWRITE ERR=NTLERROR           WRITE INTENTIONS DONE
 0012C2                             9319    2037.              END   ,                       OF MULTIPLE BLOCKS
 0012C2 1BFF                        9323    2038.     NTRYLOOX CLEAR R15
 0012C4 4BD0 6A58            01BC8  9328    2039.     NTLERROR DIREST FBR,RAR
 0012C8 5860 D000            00000  9332             +
 0012CC 5890 D004            00004  9333             +
 0012D0 12FF                        9334    2040.              LTR   R15,R15
 0012D2 07F9                        9335    2041.              BR    RAR
 DROP   NTRY,R3                     9336    2042.              DROP  NOD                     NTRY ADDR
1FILEVCAT (FILEVC) (09:45) (22MAR04) Entry Insert                                                                           Page   85
0Current Usings:  (DSKBLK,R2) (RQB,R5) (*,R6) (*,R7) (CHKPNT,R8) (FSB,R10)
0Loc    Object Code    Addr1 Addr2  Stmt Lv Lineno    Source Statement           (Hibal 5, Asmedit 3.3)  HLASM R4.0  2004/03/22 09.45
+___    ______ ____    _____ _____  ____ __ ______    ______ _________
0                                   9344    2044.     *********************************************************************
                                    9345    2045.     * ON ENTRY: CHKCURA/B/N and CHKNTA/B/N contain pointers to entry    *
                                    9346    2046.     *             to insert before.                                     *
                                    9347    2047.     *           NOD and DSK point to the entry and it's buffer address  *
                                    9348    2048.     *             unless the entry is nil.                              *
                                    9349    2049.     *********************************************************************
 0012D4 5060 D000            00000  9350    2050.     NTRYINS  DIRENT FBR,RAR
 0012D8 5090 D004            00004  9355             +
 0012DC 41D0 D008/0D60       00008  9356             +
 DROP   *,R6                        9374    2051.     ***********************************
 USING  *,R6
                                    9375    2052.     * Nil tree found                  *
                                    9376    2053.     ***********************************
 0012E2                             9377    2054.              CLC   CHKNTB(PL),=&L.AL1(NIL)
 0012E2 D503 8044 68CE 00044 01BB0                   +
 0012E8 4770 60DC            013BE  9378    2055.              IF    EQ,BEGIN                NIL TREE FOUND
 USING  NODE,R3                     9389  1 2056.                USING NODE,NOD
 0012EC 9604 801C      0001C        9398  1 2057.                SET   CHKFLEAF
                                    9404  1 2058.     * Format intentions (1st half, indicate root block later)
 0012F0 9204 8112      00112        9405  1 2059.                MVI   CHKITYPE,CCHKRTIN       TRANS TYPE (Insert root)
 0012F4 D200 8113 801C 00113 0001C  9406  1 2060.                MVC   CHKIFLG,CHKFLG          FLAGS
 0012FA D205 8114 800E 00114 0000E  9407  1 2061.                MVC   CHKICHAN,CHKCHAIN       OLD CHAIN PTRS
 001300                             9408  1 2062.                MVC   CHKIV1LN(1),=&L.AL1(NIL)         SET ALL ENTRYS TO NIL
 001300 D200 811A 68CE 0011A 01BB0        1          +
 001306 D238 811B 811A 0011B 0011A  9409  1 2063.                MVC   CHKIV1LN+1(L'CHKIV1LN-1),CHKIV1LN
                                    9410  1 2064.     *
                                    9411  1 2065.     * Allocate a root for the account tree
 00130C 9180 801C      0001C        9412  1 2066.                IF    CHKFACC,BEGIN
 001310 47E0 6062            01344  9422  1          +
 001314 1BEE/5890 68D6       01BB8  9427  2 2067.                  GETNODE PTRS=CUR,TAG=NICC,ERR=NTIERROR
 00131A 0D99/4770 626E       01550  9436  2          +
 001320 5020 8030            00030  9451  2          +
 001324 4000 8034            00034  9452  2          +
 001328 4010 8036            00036  9453  2          +
 00132C D201 8122 2000 00122 00000  9454  2          +
 001332 4830 8036            00036  9455  2 2068.                  LH    NOD,CHKCURN             ADDR TO TREE ROOT
 001336 4133 2000            00000  9456  2 2069.                  LA    NOD,DSKBLK(NOD)         |
 00133A 9660 3006      00006        9457  2 2070.                  SET   NODFTRT+NODFLEAF        TREE ROOT & LEAF LEVEL
 00133E D203 800A 8034 0000A 00034  9466  2 2071.                  MVC   CHKROOTB(PL),CHKCURB    SAVE THIS AS ROOT
 001344                             9467  1 2072.                END   ,                       OF NIL ACCCOUNT TREE FOUND
                                    9471  1 2073.     * Allocate a root for the file tree
 001344 6066           01344 01312  9472  1 2074.                ELSE  BEGIN
 001344 47F0 60BE            013A0  9477  1          +
 001348 4800 805C            0005C  9483  2 2075.                  DREAD CHKACCB,LOCK=YES,PTR=ACC,TAG=NIAC,ERR=NTIERROR
 00134C 41F0 0001            00001  9488  2          +
 001350 4D90 7032            00062  9490  2          +
 001354 5020 8058            00058  9492  2          +
 001358 D201 813C 2000 0013C 00000  9493  2          +
 00135E 9640 200E      0000E        9494  2 2076.                  SET   DSKFMOD                 BLOCK WILL BE MOD
 001362 D203 8138 805C 00138 0005C  9500  2 2077.                  MVC   CHKINIAB(PL),CHKACCB    SET INTENT ACC RT PTRS
 001368 1BEE/5890 68D6       01BB8  9501  2 2078.                  GETNODE PTRS=CUR,TAG=NICC,ERR=NTIERROR
 00136E 0D99/4770 626E       01550  9510  2          +
 001374 5020 8030            00030  9525  2          +
 001378 4000 8034            00034  9526  2          +
1FILEVCAT (FILEVC) (09:45) (22MAR04) Entry Insert                                                                           Page   86
0Current Usings:  (DSKBLK,R2) (NODE,R3) (RQB,R5) (*,R6) (*,R7) (CHKPNT,R8) (FSB,R10)
0Loc    Object Code    Addr1 Addr2  Stmt Lv Lineno    Source Statement           (Hibal 5, Asmedit 3.3)  HLASM R4.0  2004/03/22 09.45
+___    ______ ____    _____ _____  ____ __ ______    ______ _________
000137C 4010 8036            00036  9527  2          +
 001380 D201 8122 2000 00122 00000  9528  2          +
 001386 4830 8036            00036  9529  2 2079.                  LH    NOD,CHKCURN             ADDR TO ROOT
 00138A 4133 2000            00000  9530  2 2080.                  LA    NOD,DSKBLK(NOD)         |
 00138E 9660 3006      00006        9531  2 2081.                  SET   NODFTRT*NODFLEAF        TREE ROOT & LEAF LEVEL
 001392 4810 805E            0005E  9540  2 2082.                  LH    IX,CHKACCN              ADDR TO ACCOUNT ENTRY
 001396 5E10 8058            00058  9541  2 2083.                  AL    IX,CHKACCA              |
 USING  NTRY,R1                     9542  2 2084.                  WITH  (NTRY,IX),'MVC NTGFLRB(PL),CHKCURB '
 00139A D203 1015 8034 00015 00034  9557  2          +
 DROP   NTRY,R1
 0013A0                             9566  1 2085.                END   ,                       OF NIL FILE TREE FOUND
 0013A0 5020 8040            00040  9570  1 2086.                ST    DSK,CHKNTA              ADDRESSABILITY TO FIRST ENTRY
 0013A4 D201 8044 8034 00044 00034  9571  1 2087.                MVC   CHKNTB,CHKCURB          |
 0013AA 4830 8036            00036  9572  1 2088.                LH    NOD,CHKCURN             |
 0013AE 4133 2000            00000  9573  1 2089.                LA    NOD,DSKBLK(NOD)         |
 0013B2 4130 3008            00008  9574  1 2090.                LA    NOD,NODNTRYS            |
 0013B6 1843                        9575  1 2091.                LR    QR,NOD                  | (OFFSET)
 0013B8 1B42                        9576  1 2092.                SR    QR,DSK                  | |
 0013BA 4040 8046            00046  9577  1 2093.                STH   QR,CHKNTN               | |
 0013BE                             9578    2094.              END   ,                       OF NILL TREE (ACC/FILE) FOUND
 DROP   NODE,R3                     9582    2095.              DROP  NOD                     NODE ADDR
                                    9589    2096.     ***********************************
                                    9590    2097.     * End of Nil tree found           *
                                    9591    2098.     ***********************************
 0013BE                             9592    2099.              IF    ('CLC CHKANCH,=&L.AL1(NIL)',EQ),BEGIN    NO ROOM
 0013BE D503 8010 68CE 00010 01BB0  9599             +
 0013C4 4770 60EE            013D0  9600             +
                                    9605  1 2100.     *                 If both chain anchors are nil, then no more room
                                    9606  1 2101.     *                 The look ahead for free space is done here so
                                    9607  1 2102.     *               that after the first return to the calling routine
                                    9608  1 2103.     *               there won't be a return of No_More_Room.
 0013C8 41F0 001C            0001C  9609  1 2104.                LA    R15,DIRNMR              INDICATE - No_More_Room
 0013CC 4DE0 626E            01550  9610  1 2105.                BAS   R14,NTIERROR            |
 0013D0                             9611    2106.              END   ,                       OF NO ROOM
 0013D0 9180 801C      0001C        9615    2107.              IF    CHKFACC,BEGIN           SET THIS AS CURRENT ACCOUNT
 0013D4 47E0 6102            013E4  9625             +
 0013D8 D207 8058 8040 00058 00040  9630  1 2108.                MVC   CHKACCP,CHKNTP          |
 0013DE D201 8604 8606 00604 00606  9631  1 2109.                MVC   CHKACSP,CHKSTKP         |
 0013E4                             9632    2110.              END   ,                       OF SET THIS AS CURRENT ACCOUNT
 0013E4 41E0 8204            00204  9636    2111.              ZOT   CHKINTRY,LA:CFSBMXNT    CLEAR COPY SPACE
 0013E8 41F0 0129/1B11       00129  9648             +
 0013EE 0EE0                        9650             +
 0013F0 4110 8204            00204  9651    2112.              LA    R1,CHKINTRY             R1 = ADDR ON RET
 0013F4 4100 0129            00129  9652    2113.              LA    R0,CFSBMXNT             | (R1 = LOC, R0 = LENGTH)
 0013F8 4BD0 68E6            01BC8  9653    2114.              DIREST FBR,RAR                |
 0013FC 5860 D000            00000  9656             +
 001400 5890 D004            00004  9657             +
 001404 1BFF                        9658    2115.              CLEAR R15                     | (ALL OK)
 001406 07F9                        9662    2116.              BR    RAR                     |
                                    9663    2117.     *********************************************************************
                                    9664    2118.     * ON RETURN TO CALLER:                                              *
                                    9665    2119.     *      IF CC = 0                                                    *
                                    9666    2120.     *        R1  = Address of the requested entry                       *
                                    9667    2121.     *        R0  = Size of entry space                                  *
1FILEVCAT (FILEVC) (09:45) (22MAR04) Entry Insert                                                                           Page   87
0Current Usings:  (DSKBLK,R2) (RQB,R5) (*,R6) (*,R7) (CHKPNT,R8) (FSB,R10)
0Loc    Object Code    Addr1 Addr2  Stmt Lv Lineno    Source Statement           (Hibal 5, Asmedit 3.3)  HLASM R4.0  2004/03/22 09.45
+___    ______ ____    _____ _____  ____ __ ______    ______ _________
0                                   9668    2122.     *        RAR = Address to return to after working w/ entry          *
                                    9669    2123.     *      IF CC ~ 0                                                    *
                                    9670    2124.     *        R14 conatains the PSW at error detection                   *
                                    9671    2125.     *        The 2nd low order byte of R15 indicates the module         *
                                    9672    2126.     *          in which the error occured.                              *
                                    9673    2127.     *        The low order byte of R15 contains the error code for      *
                                    9674    2128.     *          that module.                                             *
                                    9675    2129.     *        No subsequent return                                       *
                                    9676    2130.     * ON SUBSEQUENT RETURN FROM CALLER:                                 *
                                    9677    2131.     *      RAR = Return Address                                         *
                                    9678    2132.     *      R1  = Address of new entry (no change)                       *
                                    9679    2133.     *      R0  = Size of new entry                                      *
                                    9680    2134.     * ON FINAL RETURN TO CALLER:                                        *
                                    9681    2135.     *      IF CC = 0                                                    *
                                    9682    2136.     *        Insert done                                                *
                                    9683    2137.     *      IF CC ~ 0                                                    *
                                    9684    2138.     *        R14 conatains the PSW at error detection                   *
                                    9685    2139.     *        The 2nd low order byte of R15 indicates the module         *
                                    9686    2140.     *          in which the error occured.                              *
                                    9687    2141.     *        The low order byte of R15 contains the error code for      *
                                    9688    2142.     *          that module.                                             *
                                    9689    2143.     *********************************************************************
 001408 5060 D000            00000  9690    2144.     NTRYIAFT DIRENT FBR,RAR
 00140C 5090 D004            00004  9695             +
 001410 41D0 D008/0D60       00008  9696             +
 DROP   *,R6                        9714    2145.     *               Limit Entry Size
 USING  *,R6
                                    9715    2146.              AIF   (&CHKOFF).NTICHK
 001416 9180 801C      0001C        9716    2147.              IF    CHKFACC,BEGIN
 00141A 47E0 6012            01428  9726             +
 00141E 48F0 A0B6            000B6  9731  1 2148.                LH    PTR,FSBTAXLN            PTR = MAX PERMIT LEN
 001422 41E0 001A            0001A  9732  1 2149.                LA    CNT,L'NTRYGR            | CNT = NON PERMIT LEN
 001426 1BFE                        9733  1 2150.                SR    PTR,CNT                 |
 001428 6016           01428 0141C  9734    2151.              END   ELSE,BEGIN
 001428 47F0 602A            01440  9743             +
 00142C 48F0 A0C2            000C2  9749  1 2152.                LH    PTR,FSBTFXLN            PTR = MAX PERMIT LEN
 001430 41E0 0041            00041  9750  1 2153.                LA    CNT,L'NTRYFL+CNTFMXSZ
 001434 1BFE                        9751  1 2154.                SR    PTR,CNT                 |
 001436 1FEE/43E0 80C4       000C4  9752  1 2155.                LC    CNT,CHKFNMSZ            CNT = NON PERMIT LEN
 00143C 41E0 E020            00020  9759  1 2156.                LA    CNT,@CNT+L'NTRYFL       |
 001440                             9760    2157.              END   ,
 001440 13EE                        9764    2158.              LCR   CNT,CNT                 CNT = ACTUAL PERMIT LEN
 001442 1AE0                        9765    2159.              AR    CNT,R0                  | (Total - Non_Permit)
 001444 19EF/4720 603A       01450  9766    2160.              IF    ((CNT,GT,PTR),OR,(R0,NEG)),BEGIN INVALID ENTRY SIZE
 00144A 1200/47B0 6042       01458  9788             +
 001450 41F0 0010            00010  9794  1 2161.                LA    R15,DIRNTSZ             ERROR - INVALID ENTRY SIZE
 001454 4DE0 613A            01550  9795  1 2162.                BAS   R14,NTIERROR
 001458                             9796    2163.              END   ,                       OF INVALID ENTRY SIZE
                                    9800    2164.     .NTICHK  ANOP  ,
                                    9801    2165.     *               Init first part of entry
 USING  NTRY,R1                     9802    2166.              WITH  (NTRY,R1),BEGIN
 001458 4000 1000            00000  9816  1 2167.                STH   R0,NTRYLEN              LEN OF COPY (NEW) NODE
 00145C                             9817  1 2168.                MVC   NTRYOFFB(PL),=&L.AL1(NIL)        NO OFFSPRING YET
 00145C D203 1002 679A 00002 01BB0        1          +
1FILEVCAT (FILEVC) (09:45) (22MAR04) Entry Insert                                                                           Page   88
0Current Usings:  (NTRY,R1) (DSKBLK,R2) (RQB,R5) (*,R6) (*,R7) (CHKPNT,R8) (FSB,R10)
0Loc    Object Code    Addr1 Addr2  Stmt Lv Lineno    Source Statement           (Hibal 5, Asmedit 3.3)  HLASM R4.0  2004/03/22 09.45
+___    ______ ____    _____ _____  ____ __ ______    ______ _________
0001462                             9818  1 2169.                MVC   NTRYDATB(PL),=&L.AL1(NIL)        NO DATA BLOCK YET
 001462 D203 1006 679A 00006 01BB0        1          +
 001468 9180 801C      0001C        9819  1 2170.                IF    CHKFACC,BEGIN           ACCOUNT MODE
 00146C 47E0 6066            0147C  9829  1          +
 001470 D204 100A 80C5 0000A 000C5  9834  2 2171.                  MVC   NTGNAME(CNTAMXSZ),CHKFNAME  '    PUT ACC NAME IN RECORD
 001476                             9835  2 2172.                  MVC   NTGFLRB(PL),=&L.AL1(NIL)         ROOT = NIL
 001476 D203 1015 679A 00015 01BB0        2          +
 00147C 606A           0147C 0146E  9836  1 2173.                END   ELSE,BEGIN              FILE MODE
 00147C 47F0 607E            01494  9845  1          +
 001480 1F44/4340 80C4       000C4  9851  2 2174.                  LC    QR,CHKFNMSZ
 001486 4B40 67B4            01BCA  9858  2 2175.                  SH    QR,=Y(CNTAMXSZ)
 00148A 4240 101F            0001F  9859  2 2176.                  STC   QR,NTFLNMSZ             SAVE FILE NAME & SIZE
 00148E 0640/4440 67B8       01BCE  9860  2 2177.                  DEX   QR,'MVC NTFLNAME(0),CHKFNAME+CNTAMXSZ '  |
 001BCE D200 1020 80CA 00020 000CA  9871  2          +
 001494                             9879  1 2178.                END   ,                       OF FILE ENTRY
 DROP   NTRY,R1                     9883    2179.              END   ,                       OF WITH (NTRY,R1)
                                    9891    2180.
 001494 5820 8040            00040  9892    2181.              L     DSK,CHKNTA              ADDRESS OF CURRENT
 001498 9640 200E      0000E        9893    2182.              SET   DSKFMOD                 CURRENT BLOCK MODIFIED
                                    9899    2183.     *               Update entry count in node
 00149C 4830 8036            00036  9900    2184.              LH    NOD,CHKCURN             ADDRESS OF NODE
 0014A0 4133 2000            00000  9901    2185.              LA    NOD,DSKBLK(NOD)         |
 0014A4 4140 0001            00001  9902    2186.              WITH  (NODE,NOD),'INCR QR,NODNTNUM '
 USING  NODE,R3
 0014A8 4A40 3002            00002  9921  1          +
 0014AC 4040 3002            00002  9922             +
 DROP   NODE,R3
                                    9931    2187.              REGCH (IX,1)
                                    9932    2188.     *               Create space in node for entry
 0014B0 48F0 8046            00046  9933    2189.              LH    R15,CHKNTN         ADDRESS AT WHICH ENTRY IS TO START
 0014B4 41FF 2000            00000  9934    2190.              LA    R15,DSKBLK(R15)         |
 0014B8 1BEE                        9935    2191.              CLEAR R14                     OLD ENTRY LENGTH
 0014BA                             9939    2192.              NTRYCHG DEST=CUR,ERR=NTIERROR MAKE ROOM (R1=NEW LOC, R0=LEN)
 0014BA D207 8050 8030 00050 00030  9941             +
 0014C0 5890 679E/0D99       01BB4  9944             +
 0014C6 4770 613A            01550  9954             +
                                    9960    2193.     *               Finish Checkpoint intentions and write
 0014CA 9500 8112      00112        9961    2194.              IF    (CHKITYPE,NZ),BEGIN     MULTIPLE BLOCKS
 0014CE 4780 6108            0151E  9972             +
 0014D2 D203 811A 8034 0011A 00034  9977  1 2195.                MVC   CHKINICB(PL),CHKCURB    CURRENT NODE
 0014D8 D201 811E 8046 0011E 00046  9978  1 2196.                MVC   CHKINICT,CHKNTN         | ENTRY OFFSET
 0014DE 5820 8030            00030  9979  1 2197.                L     DSK,CHKCURA             PUT IN CLOCK TAG
 0014E2 D201 8122 2000 00122 00000  9980  1 2198.                MVC   CHKINICC,DSKTAG         |
 0014E8 9504 8112      00112        9981  1 2199.                IF    (CHKITYPE,NE,CCHKRTIN),BEGIN     REGULAR INSERT
 0014EC 4780 60DE            014F4  9994  1          +
 0014F0 9224 8112      00112        9999  2 2200.                  MVI   CHKITYPE,CCHKNTIN
 0014F4                            10000  1 2201.                END   ,                       OF REGULAR INSERT
 0014F4 60E2           014F4 014EE 10004  1 2202.                ELSEIF ~CHKFACC,BEGIN         FILE RT INS
 0014F4 47F0 60F0            01506 10010  1          +
 0014F8 9180 801C      0001C       10022  1          +
 0014FC 4710 60F0            01506 10023  1          +
 001500 D203 8138 805C 00138 0005C 10028  2 2203.                  MVC   CHKINIAB(PL),CHKACCB    ACCOUNT ENTRY POINTERS
 001506                            10029  1 2204.                END   ,                       OF FILE ROOT INSERT
 001506 4D90 74C2            004F2 10033  1 2205.                IWRITE ERR=NTIERROR
1FILEVCAT (FILEVC) (09:45) (22MAR04) Entry Insert                                                                           Page   89
0Current Usings:  (DSKBLK,R2) (RQB,R5) (*,R6) (*,R7) (CHKPNT,R8) (FSB,R10)
0Loc    Object Code    Addr1 Addr2  Stmt Lv Lineno    Source Statement           (Hibal 5, Asmedit 3.3)  HLASM R4.0  2004/03/22 09.45
+___    ______ ____    _____ _____  ____ __ ______    ______ _________
000150A                            10038  1 2206.                CLC   CHKININB(PL),=&L.AL1(NIL)
 00150A D503 812E 679A 0012E 01BB0        1          +
 001510 4780 6108            0151E 10039  1 2207.                IF    NE,BEGIN                WRITE NEW DATA BLOCK
 001514 4800 812E/1BFF       0012E 10050  2 2208.                  DWRITE CHKININB,ERR=NTIERROR
 00151A 4D90 7136            00166 10060  2          +
 00151E                            10062  1 2209.                END   ,                       OF WRITE NEW DATA BLOCK
 00151E                            10066    2210.              END   ,                       OF MULTIPLE BLOCKS
 00151E 4800 8044/1BFF       00044 10070    2211.              DWRITE CHKNTB,ERR=NTIERROR    WRITE ENTRY BLOCK
 001524 4D90 7136            00166 10080             +
 001528 9500 8112      00112       10082    2212.              IF    (CHKITYPE,NZ),BEGIN     MULTIPLE BLOCKS
 00152C 4780 6138            0154E 10093             +
 001530                            10098  1 2213.                CLC   CHKINIAB(PL),=&L.AL1(NIL)
 001530 D503 8138 679A 00138 01BB0        1          +
 001536 4780 612E            01544 10099  1 2214.                IF    NE,BEGIN                WRITE ACC ENTRY BLOCK (FILES)
 00153A 4800 8138/1BFF       00138 10110  2 2215.                  DWRITE CHKINIAB,ERR=NTIERROR
 001540 4D90 7136            00166 10120  2          +
 001544                            10122  1 2216.                END   ,                       OF WRITE ACC ENTRY BLK (FILES)
 001544                            10126  1 2217.                CLEAR CHKIVLV1                CLR 1ST LEVEL INTENTIONS; DONE
 001544 D741 8112 8112 00112 00112 10132  1          +
 00154A 4D90 74C2            004F2 10133  1 2218.                IWRITE ERR=NTIERROR           WRITE INTENTIONS DONE
 00154E                            10138    2219.              END   ,                       OF MULTIPLE BLOCKS
 00154E 1BFF                       10142    2220.              CLEAR R15
 001550 4BD0 67B2            01BC8 10146    2221.     NTIERROR DIREST FBR,RAR
 001554 5860 D000            00000 10150             +
 001558 5890 D004            00004 10151             +
 00155C 12FF                       10152    2222.              LTR   R15,R15
 00155E 07F9                       10153    2223.              BR    RAR
1FILEVCAT (FILEVC) (09:45) (22MAR04) Entry Delete                                                                           Page   90
0Current Usings:  (DSKBLK,R2) (RQB,R5) (*,R6) (*,R7) (CHKPNT,R8) (FSB,R10)
0Loc    Object Code    Addr1 Addr2  Stmt Lv Lineno    Source Statement           (Hibal 5, Asmedit 3.3)  HLASM R4.0  2004/03/22 09.45
+___    ______ ____    _____ _____  ____ __ ______    ______ _________
0                                  10155    2225.     *********************************************************************
                                   10156    2226.     * ON ENTRY: CHKNTB/N/AD contain the block, offset, and buffer       *
                                   10157    2227.     *             address of the entry to be deleted                    *
                                   10158    2228.     *           CHKCURB/N/AD contain the block, offset, and buffer      *
                                   10159    2229.     *             address of the node that contains the entry to be     *
                                   10160    2230.     *             deleted                                               *
                                   10161    2231.     *           CHKPARB/N/AD contain the block, offset, and buffer      *
                                   10162    2232.     *             address of the parent of the node that will have      *
                                   10163    2233.     *             the entry deleted from it                             *
                                   10164    2234.     *           NOD points to the entry to be deleted                   *
                                   10165    2235.     *           DSK points to the buffer of the current entry to be     *
                                   10166    2236.     *             deleted                                               *
                                   10167    2237.     *           CHKLFTB/N and CHKRHTB/N contain block and offset and    *
                                   10168    2238.     *             offset pointers of the left and right siblings of the *
                                   10169    2239.     *             node to be deleted                                    *
                                   10170    2240.     * ON RETURN TO CALLER:                                              *
                                   10171    2241.     *      IF CC = 0                                                    *
                                   10172    2242.     *        Delete done                                                *
                                   10173    2243.     *      IF CC ~ 0                                                    *
                                   10174    2244.     *        R14 conatains the PSW at error detection                   *
                                   10175    2245.     *        The 2nd low order byte of R15 indicates the module         *
                                   10176    2246.     *          in which the error occured.                              *
                                   10177    2247.     *        The low order byte of R15 contains the error code for      *
                                   10178    2248.     *          that module.                                             *
                                   10179    2249.     *********************************************************************
 001560 5060 D000            00000 10180    2250.     NTRYDEL  DIRENT FBR,RAR
 001564 5090 D004            00004 10185             +
 001568 41D0 D008/0D60       00008 10186             +
 00156E 9180 801C      0001C       10204    2251.              IF    CHKFACC,BEGIN           DON'T DEL ACC LEAF W/ FILES
 DROP   *,R6
 USING  *,R6
 001572 47E0 601A            01588 10214             +
 USING  NTRY,R3                    10219  1 2252.                WITH  (NTRY,NOD),'CLC NTGFLRB,=&L.AL1(NIL) '
 001576 D501 3015 6642 00015 01BB0 10234  1          +
 DROP   NTRY,R3
 00157C 4780 601A            01588 10243  1 2253.                IF    NE,BEGIN                THIS ACC STILL HAS FILES
 001580 41F0 000C            0000C 10254  2 2254.                  LA    R15,DIRDELAC
 001584 4DE0 630C            0187A 10255  2 2255.                  BAS   R14,NTDERROR
 001588                            10256  1 2256.                END   ,                       OF THIS ACC STILL HAS FILES
 001588                            10260    2257.              END   ,                       OF DON'T DEL ACC LEAF W/ FILS
 001588 4800 8034            00034 10264    2258.              DLOKBUF CHKCURB,ERR=NTDERROR
 00158C 4D90 71F8            00228 10270             +
                                   10272    2259.     *                 If an entry is being deleted which is not in a leaf
                                   10273    2260.     *               node, then the entry must be replaced by the leftmost
                                   10274    2261.     *               entry of the right subtree.
 001590 9104 801C      0001C       10275    2262.              IF    ~CHKFLEAF,BEGIN         NOT AT LEAF LEVEL
 001594 4710 616E            016DC 10285             +
 001598 9228 8112      00112       10290  1 2263.                MVI   CHKITYPE,CCHKNTDL       TRANS TYPE (Entry Delete)
 00159C D200 8113 801C 00113 0001C 10291  1 2264.                MVC   CHKIFLG,CHKFLG          FLAGS
 0015A2 D205 8114 800E 00114 0000E 10292  1 2265.                MVC   CHKICHAN,CHKCHAIN       OLD CHAIN POINTERS
 0015A8                            10293  1 2266.                MVC   CHKIV1LN(1),=&L.AL1(NIL)         SET INTENT TO NIL
 0015A8 D200 811A 6642 0011A 01BB0        1          +
 0015AE D238 811B 811A 0011B 0011A 10294  1 2267.                MVC   CHKIV1LN+1(L'CHKIV1LN-1),CHKIV1LN
 0015B4 4830 8046            00046 10295  1 2268.                LH    NOD,CHKNTN              ADDR TO THIS ENTRY
1FILEVCAT (FILEVC) (09:45) (22MAR04) Entry Delete                                                                           Page   91
0Current Usings:  (DSKBLK,R2) (RQB,R5) (*,R6) (*,R7) (CHKPNT,R8) (FSB,R10)
0Loc    Object Code    Addr1 Addr2  Stmt Lv Lineno    Source Statement           (Hibal 5, Asmedit 3.3)  HLASM R4.0  2004/03/22 09.45
+___    ______ ____    _____ _____  ____ __ ______    ______ _________
00015B8 5E30 8040            00040 10296  1 2269.                AL    NOD,CHKNTA              |
 USING  NTRY,R3                    10297  1 2270.                WITH  (NTRY,NOD),BEGIN        ADDR TO ENTRY
 0015BC 4A30 3000            00000 10311  2 2271.                  AH    NOD,NTRYLEN        NEXT ENTRY HAS PTRS TO RIGHT SUBTREE
 0015C0 D203 804C 3002 0004C 00002 10312  2 2272.                  MVC   CHKWRKB(PL),NTRYOFFB
 DROP   NTRY,R3                    10313  1 2273.                END   ,                       OF ADDR TO ENTRY
 0015C6 4800 804C/1BFF       0004C 10321  1 2274.     NTDPUSH    DREAD CHKWRKB,PTR=WRK,ERR=NTDERROR
 0015CC 4D90 7032            00062 10331  1          +
 0015D0 5020 8048            00048 10333  1          +
 0015D4 4830 804E            0004E 10334  1 2275.                LH    NOD,CHKWRKN             ADDR TO NODE
 0015D8 4133 2000            00000 10335  1 2276.                LA    NOD,DSKBLK(NOD)         |
 USING  NODE,R3                    10336  1 2277.                WITH  (NODE,NOD),BEGIN        |
 0015DC 9140 3006      00006       10350  2 2278.                  IF    ~NODFLEAF,BEGIN         NOT AT LEAF YET
 0015E0 4710 6084            015F2 10360  2          +
 0015E4 4130 3008            00008 10365  3 2279.                    LA    NOD,NODNTRYS            ADDR TO ENTRY
 DROP   NODE,R3                    10366  3 2280.                    WITH  (NTRY,NOD),BEGIN        |
 USING  NTRY,R3
 0015E8 D203 804C 3002 0004C 00002 10383  4 2281.                      MVC   CHKWRKB(PL),NTRYOFFB
 0015EE 47F0 6058            015C6 10384  4 2282.                      B     NTDPUSH
 DROP   NTRY,R3                    10385  3 2283.                    END   ,                       OF ADDR TO ENTRY
 USING  NODE,R3
 0015F2                            10400  2 2284.                  END   ,                       OF NOT AT LEAF YET
                                   10404  2 2285.
 DROP   NODE,R3                    10405  1 2286.                END   ,                       OF ADDR TO NODE
 0015F2 D203 813E 804C 0013E 0004C 10413  1 2287.                MVC   CHKIND2B(PL),CHKWRKB
 0015F8 4800 804C            0004C 10414  1 2288.                DLOKBUF CHKWRKB,TAG=ND2C,ERR=NTDERROR
 0015FC 4D90 71F8            00228 10420  1          +
 001600 D201 8142 2000 00142 00000 10422  1          +
 001606 4830 804E            0004E 10423  1 2289.                LH    NOD,CHKWRKN             ADDR TO NODE
 00160A 4133 2000            00000 10424  1 2290.                LA    NOD,DSKBLK(NOD)         |
 USING  NODE,R3                    10425  1 2291.                WITH  (NODE,NOD),BEGIN        |
 00160E 48E0 3002/06E0       00002 10439  2 2292.                  DECR  CNT,NODNTNUM            ONE LESS ENTRY IN THIS NODE
 001614 40E0 3002            00002 10443  2          +
 001618 4130 3008            00008 10444  2 2293.                  LA    NOD,NODNTRYS            ADDR TO FIRST ENTRY
 DROP   NODE,R3                    10445  1 2294.                END   ,                       OF ADDR TO NODE
 USING  NTRY,R3                    10453  1 2295.                WITH  (NTRY,NOD),BEGIN        ADDR TO FIRST ENTRY
                                   10467  2 2296.                  REGCH (MIX,0),(IX,1),(CNT,14),(PTR,15)
 00161C 48F0 3000            00000 10468  2 2297.                  LH    PTR,NTRYLEN             ENTRY LENGTH
 001620 184F                       10469  2 2298.                  LR    QR,PTR                  | SAVE LEN IN INDEX
 001622 41E0 3000            00000 10470  2 2299.                  LA    CNT,NTRY                ENTRY ADDRESS
 DROP   NTRY,R3                    10471  1 2300.                END   ,                       OF ADDR TO FIRST ENTRY
 001626 4100 8204            00204 10479  1 2301.                LA    MIX,CHKINTRY            DESTINATION ADDRESS
 00162A 181F                       10480  1 2302.                LR    IX,PTR                  | LENGTH
 00162C 0E0E                       10481  1 2303.                MVCL  MIX,CNT            MOVE AMOUNT IN INDEX TO COPY BUFFER
 00162E 4110 8204            00204 10482  1 2304.                LA    R1,CHKINTRY             NEW BUFFER (DUMMY)
 001632 1B00                       10483  1 2305.                CLEAR R0                      | LEN
 001634 18F3                       10487  1 2306.                LR    R15,NOD                 OLD ADDR
 001636 18E4                       10488  1 2307.                LR    R14,QR                  | LEN (INDEX ONLY)
                                   10489  1 2308.     *        Delete old leaf entry (Index only)
 001638 13EE                       10490  1 2309.                NTRYCHG DEST=WRK,DELXTND=NO,ERR=NTDERROR
 00163A D207 8050 8048 00050 00048 10493  1          +
 001640 5890 6646/0D99       01BB4 10496  1          +
 001646 4770 630C            0187A 10506  1          +
 00164A 4830 804E            0004E 10512  1 2310.                LH    NOD,CHKWRKN             ADDR TO NODE
 00164E 5E30 8048            00048 10513  1 2311.                AL    NOD,CHKWRKA             |
1FILEVCAT (FILEVC) (09:45) (22MAR04) Entry Delete                                                                           Page   92
0Current Usings:  (DSKBLK,R2) (NODE,R3) (RQB,R5) (*,R6) (*,R7) (CHKPNT,R8) (FSB,R10)
0Loc    Object Code    Addr1 Addr2  Stmt Lv Lineno    Source Statement           (Hibal 5, Asmedit 3.3)  HLASM R4.0  2004/03/22 09.45
+___    ______ ____    _____ _____  ____ __ ______    ______ _________
0USING  NODE,R3                    10514  1 2312.                WITH  (NODE,NOD),BEGIN        |
 001652 9108 3006      00006       10528  2 2313.                  IF    NODFEMT,BEGIN           LEAF NODE IS EMPTY
 001656 47E0 613A            016A8 10538  2          +
 00165A 9204 8154      00154       10543  3 2314.                    MVI   CHKI2TYP,CCHKDBAL       Bal leaf after delete
 00165E D203 8156 805C 00156 0005C 10544  3 2315.                    MVC   CHKIDBAB(PL),CHKACCB    Acc ptr
 001664 D200 8155 801C 00155 0001C 10545  3 2316.                    MVC   CHKI2FLG,CHKFLG
 00166A 9240 815D      0015D       10546  3 2317.                    MVI   CHKIDBNM,C' '           BLANK BUFFER
 00166E D224 815E 815D 0015E 0015D 10547  3 2318.                    MVC   CHKIDBNM+1(L'CHKIDBNM-1),CHKIDBNM
 001674 4110 3008            00008 10548  3 2319.                    LA    IX,NODNTRYS
 USING  NTRY,R1                    10549  3 2320.                    WITH (NTRY,IX),BEGIN          ADDR TO ENTRYS
 001678 4A10 1000            00000 10563  4 2321.                      AH    IX,NTRYLEN              | 2nd entry
 00167C 9180 801C      0001C       10564  4 2322.                      IF    CHKFACC,BEGIN           ACCOUNT ENTRY
 001680 47E0 611C            0168A 10574  4          +
 001684 D204 815D 100A 0015D 0000A 10579  5 2323.                        MVC   CHKIDBNM(CNTAMXSZ),NTGNAME
 00168A 6120           0168A 01682 10580  4 2324.                      END   ELSE,BEGIN              FILE ENTRY
 00168A 47F0 613A            016A8 10589  4          +
 00168E D204 815D 80C5 0015D 000C5 10595  5 2325.                        MVC   CHKIDBNM(CNTAMXSZ),CHKFNAME      ACCOUNT NAME
 001694 1F44/4340 101F       0001F 10596  5 2326.                        LC    QR,NTFLNMSZ
 00169A 41E0 4005            00005 10603  5 2327.                        LA    CNT,@QR+CNTAMXSZ
 00169E 42E0 815C            0015C 10604  5 2328.                        STC   CNT,CHKIDBSZ
 0016A2 0640/4440 6666       01BD4 10605  5 2329.                        DEX   QR,'MVC CHKIDBNM+CNTAMXSZ(0),NTFLNAME '
 001BD4 D200 8162 1020 00162 00020 10616  5          +
 0016A8                            10624  4 2330.                      END   ,                       OF FILE ENTRY
 DROP   NTRY,R1                    10628  3 2331.                    END   ,                       OF ADDR TO ENTRYS
 0016A8                            10636  2 2332.                  END   ,                       OF LEAF NODE IS EMPTY
 DROP   NODE,R3                    10640  1 2333.                END   ,                       OF ADDR TO NODE
 0016A8 5820 8040            00040 10648  1 2334.                L     DSK,CHKNTA              OLD ENTRY ADDR TO BE DELETED
 0016AC 48F0 8046            00046 10649  1 2335.                LH    R15,CHKNTN              |
 0016B0 41FF 2000            00000 10650  1 2336.                LA    R15,DSKBLK(R15)         |
 USING  NTRY,R15                   10651  1 2337.                WITH  (NTRY,R15),BEGIN        OLD ENTRY LEN
 0016B4 48E0 F000            00000 10665  2 2338.                  LH    R14,NTRYLEN             |
 0016B8 4140 F002            00002 10666  2 2339.                  LA    QR,NTRYOFFB             OLD OFFSPRING PTR
 DROP   NTRY,R15                   10667  1 2340.                END   ,                       OF OLD ENTRY LEN
 0016BC 4110 8204            00204 10675  1 2341.                LA    R1,CHKINTRY             NEW ENTRY ADDR
 USING  NTRY,R1                    10676  1 2342.                WITH  (NTRY,R1),BEGIN         NEW ENTRY LEN (INDEX ONLY)
 0016C0 4800 1000            00000 10690  2 2343.                  LH    R0,NTRYLEN              |
 0016C4 D203 1002 4000 00002 00000 10691  2 2344.                  MVC   NTRYOFFB(PL),@QR        NEW_OFFSP_PTR := OLD_OFFSP_PTR
 DROP   NTRY,R1                    10692  1 2345.                END   ,                       OF NEW ENTRY LEN (INDEX ONLY)
                                   10700  1 2346.     *        Delete old entry & copy new entry (index part) from leaf
 0016CA 1300                       10701  1 2347.                NTRYCHG DEST=CUR,INSXTND=NO,ERR=NTDERROR
 0016CC D207 8050 8030 00050 00030 10704  1          +
 0016D2 5890 6646/0D99       01BB4 10707  1          +
 0016D8 4770 630C            0187A 10717  1          +
 0016DC                            10723    2348.              END   ,                       OF NOT AT LEAF LEVEL
 0016DC 6172           016DC 01596 10727    2349.              ELSE  BEGIN                   DELETE OF LEAF ENTRY
 0016DC 47F0 61DE            0174C 10732             +
 0016E0 48F0 8036            00036 10738  1 2350.                LH    PTR,CHKCURN             ADDR TO CURRENT NODE
 0016E4 41FF 2000            00000 10739  1 2351.                LA    PTR,DSKBLK(PTR)         |
 USING  NODE,R15                   10740  1 2352.                WITH  (NODE,PTR),BEGIN        ADDR TO NODE
 0016E8 48E0 F002/06E0       00002 10754  2 2353.                  DECR  CNT,NODNTNUM            ONE LESS ENTRY
 0016EE 40E0 F002            00002 10758  2          +
 0016F2 9180 F006      00006       10759  2 2354.                  IF    (~NODFACC,AND,(CNT,ZERO),AND,NODFTRT),BEGIN   ROOT DEL
 0016F6 4710 61BC/12EE       0172A 10771  2          +
 0016FC 4770 61BC            0172A 10782  2          +
1FILEVCAT (FILEVC) (09:45) (22MAR04) Entry Delete                                                                           Page   93
0Current Usings:  (DSKBLK,R2) (RQB,R5) (*,R6) (*,R7) (CHKPNT,R8) (FSB,R10) (NODE,R15)
0Loc    Object Code    Addr1 Addr2  Stmt Lv Lineno    Source Statement           (Hibal 5, Asmedit 3.3)  HLASM R4.0  2004/03/22 09.45
+___    ______ ____    _____ _____  ____ __ ______    ______ _________
0001700 9120 F006      00006       10793  2          +
 001704 47E0 61BC            0172A 10794  2          +
 001708 9208 8112      00112       10799  3 2355.                    MVI   CHKITYPE,CCHKRTDL       INDICATE ROOT DELETE
 00170C D200 8113 801C 00113 0001C 10800  3 2356.                    MVC   CHKIFLG,CHKFLG          FLAGS
 001712 D205 8114 800E 00114 0000E 10801  3 2357.                    MVC   CHKICHAN,CHKCHAIN       OLD CHAIN POINTERS
 001718                            10802  3 2358.                    MVC   CHKIV1LN(1),=&L.AL1(NIL)         SET INTENT TO NIL
 001718 D200 811A 6642 0011A 01BB0        3          +
 00171E D238 811B 811A 0011B 0011A 10803  3 2359.                    MVC   CHKIV1LN+1(L'CHKIV1LN-1),CHKIV1LN
 001724 D203 8138 805C 00138 0005C 10804  3 2360.                    MVC   CHKINDAB(PL),CHKACCB    ACC NODE ADDRESS
 00172A                            10805  2 2361.                  END   ,                       OF ADDR TO NODE
 DROP   NODE,R15                   10809  1 2362.                END   ,                       OF INDICATE ROOT DELETE
 00172A 4110 8204            00204 10817  1 2363.                LA    R1,CHKINTRY             NEW ENTRY ADDRESS (DUMMY)
 00172E 1B00                       10818  1 2364.                CLEAR R0                      | LEN
 001730 48F0 8046            00046 10822  1 2365.                LH    R15,CHKNTN              OLD ENTRY ADDRESS
 001734 5EF0 8040            00040 10823  1 2366.                AL    R15,CHKNTA              |
 001738 48E0 F000            00000 10824  1 2367.                WITH  (NTRY,R15),'LH R14,NTRYLEN '
 USING  NTRY,R15
 DROP   NTRY,R15
 00173C                            10848  1 2368.                NTRYCHG DEST=CUR,ERR=NTDERROR DELETE ENTRY
 00173C D207 8050 8030 00050 00030 10850  1          +
 001742 5890 6646/0D99       01BB4 10853  1          +
 001748 4770 630C            0187A 10863  1          +
 00174C                            10869    2369.              END   ,                       OF DELETE OF LEAF ENTRY
                                   10873    2370.     *               Finish Checkpoint intentions and write
 00174C 9500 8112      00112       10874    2371.              IF    (CHKITYPE,NZ),BEGIN     MULTIPLE BLOCKS
 001750 4780 6284            017F2 10885             +
                                   10890  1 2372.     *               If the transaction is a file root delete, then
                                   10891  1 2373.     *             first write the account entry with it's now nil
                                   10892  1 2374.     *             file tree pointer. Then write the entry's now empty
                                   10893  1 2375.     *             node, and finally the entry's modified data extent
                                   10894  1 2376.     *             if it exists.
                                   10895  1 2377.     *               If the transaction is a delete of a non-leaf
                                   10896  1 2378.     *             entry, then write the replacement entry's leaf
                                   10897  1 2379.     *             node, then the deleted entry's node, and finally
                                   10898  1 2380.     *             the deleted entry's modified data extent.  This
                                   10899  1 2381.     *             protects against a duplication of the replacement
                                   10900  1 2382.     *             entry (from the leaf).
                                   10901  1 2383.     *               The above procedures also insure that any entity
                                   10902  1 2384.     *             will not point to an already deleted item.
 001754 D203 811A 8034 0011A 00034 10903  1 2385.                MVC   CHKINDCB(PL),CHKCURB    CURRENT NODE
 00175A D201 811E 8046 0011E 00046 10904  1 2386.                MVC   CHKINDCT,CHKNTN         | ENTRY OFFSET
 001760 5820 8030            00030 10905  1 2387.                L     DSK,CHKCURA             PUT IN CLOCK TAG
 001764 D201 8122 2000 00122 00000 10906  1 2388.                MVC   CHKINDCC,DSKTAG         |
 00176A 9508 8112      00112       10907  1 2389.                IF    (CHKITYPE,NE,CCHKRTDL),BEGIN     REGULAR DELETE
 00176E 4780 6208            01776 10920  1          +
 001772 9228 8112      00112       10925  2 2390.                  MVI   CHKITYPE,CCHKNTDL
 001776 620C           01776 01770 10926  1 2391.                END   ELSE,BEGIN              FILE ROOT DEL
 001776 47F0 6258            017C6 10935  1          +
 00177A 4830 8036            00036 10941  2 2392.                  LH    NOD,CHKCURN             |
 00177E 5E30 8030            00030 10942  2 2393.                  AL    NOD,CHKCURA             |
 USING  NODE,R3                    10943  2 2394.                  WITH  (NODE,NOD),BEGIN        ADDR TO NODE
 001782 48F0 8036            00036 10957  3 2395.                    RELNODE CHKCURN,NODLEN,CHKCURA,ERR=NTDERROR
 001786 4800 3000            00000 10963  3          +
 00178A 5810 8030            00030 10967  3          +
1FILEVCAT (FILEVC) (09:45) (22MAR04) Entry Delete                                                                           Page   94
0Current Usings:  (DSKBLK,R2) (NODE,R3) (RQB,R5) (*,R6) (*,R7) (CHKPNT,R8) (FSB,R10)
0Loc    Object Code    Addr1 Addr2  Stmt Lv Lineno    Source Statement           (Hibal 5, Asmedit 3.3)  HLASM R4.0  2004/03/22 09.45
+___    ______ ____    _____ _____  ____ __ ______    ______ _________
000178E 5890 664E/0D99       01BBC 10970  3          +
 001794 4770 630C            0187A 10980  3          +
 001798 D201 8120 200C 00120 0000C 10986  3 2396.                    MVC   CHKINDCL,DSKBLINK       SAVE BLOCK LINK
 DROP   NODE,R3                    10987  2 2397.                  END   ,                       OF ADDR TO NODE
 00179E 4800 805C            0005C 10995  2 2398.                  DREAD CHKACCB,LOCK=YES,PTR=ACC,TAG=NDAC,ERR=NTDERROR
 0017A2 41F0 0001            00001 11000  2          +
 0017A6 4D90 7032            00062 11002  2          +
 0017AA 5020 8058            00058 11004  2          +
 0017AE D201 813C 2000 0013C 00000 11005  2          +
 0017B4 9640 200E      0000E       11006  2 2399.                  SET   DSKFMOD
 0017B8 4830 805E            0005E 11012  2 2400.                  LH    NOD,CHKACCN             ADDR TO ACC ENTRY
 0017BC 4133 2000            00000 11013  2 2401.                  LA    NOD,DSKBLK(NOD)         |
 USING  NTRY,R3                    11014  2 2402.                  WITH  (NTRY,NOD),BEGIN        |
 0017C0                            11028  3 2403.                    MVC   NTGFLRB(PL),=&L.AL1(NIL)         NO MORE FILE TREE
 0017C0 D203 3015 6642 00015 01BB0        3          +
 DROP   NTRY,R3                    11029  2 2404.                  END   ,                       OF ADDR TO ACC ENTRY
 0017C6                            11037  1 2405.                END   ,                       OF FILE ROOT DEL
 0017C6 4D90 74C2            004F2 11041  1 2406.                IWRITE ERR=NTDERROR
 0017CA                            11046  1 2407.                CLC   CHKINDAB(PL),=&L.AL1(NIL)
 0017CA D503 8138 6642 00138 01BB0        1          +
 0017D0 4780 6270            017DE 11047  1 2408.                IF    NE,BEGIN                WRITE ACCOUNT BLOCK
 0017D4 4800 8138/1BFF       00138 11058  2 2409.                  DWRITE CHKINDAB,ERR=NTDERROR
 0017DA 4D90 7136            00166 11068  2          +
 0017DE                            11070  1 2410.                END   ,                       OF WRITE ACCOUNT BLOCK
 0017DE                            11074  1 2411.                CLC   CHKIND2B(PL),=&L.AL1(NIL)
 0017DE D503 813E 6642 0013E 01BB0        1          +
 0017E4 4780 6284            017F2 11075  1 2412.                IF    NE,BEGIN                WRITE LEAF NTRY OF DELETE
 0017E8 4800 813E/1BFF       0013E 11086  2 2413.                  DWRITE CHKIND2B,ERR=NTDERROR
 0017EE 4D90 7136            00166 11096  2          +
 0017F2                            11098  1 2414.                END   ,                       OF WRITE LEAF NTRY
 0017F2                            11102    2415.              END   ,                       OF MULTIPLE BLOCKS
 0017F2 4800 8034/1BFF       00034 11106    2416.              DWRITE CHKCURB,ERR=NTDERROR   WRITE ENTRY BLOCK
 0017F8 4D90 7136            00166 11116             +
 0017FC 9500 8112      00112       11118    2417.              IF    (CHKITYPE,NZ),BEGIN     MULTIPLE BLOCKS
 001800 4780 62B4            01822 11129             +
 001804                            11134  1 2418.                CLC   CHKINDOB(PL),=&L.AL1(NIL)
 001804 D503 8124 6642 00124 01BB0        1          +
 00180A 4780 62AA            01818 11135  1 2419.                IF    NE,BEGIN                WRITE OLD DATA BLOCK
 00180E 4800 8124/1BFF       00124 11146  2 2420.                  DWRITE CHKINDOB,ERR=NTDERROR
 001814 4D90 7136            00166 11156  2          +
 001818                            11158  1 2421.                END   ,                       OF WRITE OLD DATA BLOCK
 001818                            11162  1 2422.                CLEAR CHKIVLV1                CLR 1ST LEVEL INTENTIONS; DONE
 001818 D741 8112 8112 00112 00112 11168  1          +
 00181E 4D90 74C2            004F2 11169  1 2423.                IWRITE ERR=NTDERROR           WRITE INTENTIONS DONE
 001822                            11174    2424.              END   ,                       OF MULTIPLE BLOCKS
 001822 9504 8154      00154       11178    2425.              IF    (CHKI2TYP,EQ,CCHKDBAL),BEGIN     FINISH 2ND LEVEL INTENT
 001826 4770 630A            01878 11191             +
 00182A 9180 801C      0001C       11196  1 2426.                IF    CHKFACC,BEGIN           SET UP FOR ACC SEARCH
 00182E 47E0 62D2            01840 11206  1          +
 001832 9205 80C4      000C4       11211  2 2427.                  MVI   CHKFNMSZ,CNTAMXSZ
 001836 D204 80C5 815D 000C5 0015D 11212  2 2428.                  MVC   CHKFNAME(CNTAMXSZ),CHKIDBNM      ENTRY TO LOOK FOR
 00183C 4100 0000            00000 11213  2 2429.                  LA    R0,ACCMODE              INDICATE ACC
 001840 62D6           01840 01830 11214  1 2430.                END   ELSE,BEGIN              SET UP FOR FILE SEARCH
 001840 47F0 62F8            01866 11223  1          +
1FILEVCAT (FILEVC) (09:45) (22MAR04) Entry Delete                                                                           Page   95
0Current Usings:  (DSKBLK,R2) (RQB,R5) (*,R6) (*,R7) (CHKPNT,R8) (FSB,R10)
0Loc    Object Code    Addr1 Addr2  Stmt Lv Lineno    Source Statement           (Hibal 5, Asmedit 3.3)  HLASM R4.0  2004/03/22 09.45
+___    ______ ____    _____ _____  ____ __ ______    ______ _________
0001844 1F44/4340 815C       0015C 11229  2 2431.                  LC    QR,CHKIDBSZ             ENTRY TO LOOK FOR
 00184A 4240 80C4            000C4 11236  2 2432.                  STC   QR,CHKFNMSZ             |
 00184E D225 80C5 815D 000C5 0015D 11237  2 2433.                  MVC   CHKFNAME(L'CHKFNAME),CHKIDBNM    (ACC NAME INCLUDED TOO)
 001854 4800 805C/1BFF       0005C 11238  2 2434.                  DREAD CHKACCB,PTR=ACC,ERR=NTDERROR
 00185A 4D90 7032            00062 11248  2          +
 00185E 5020 8058            00058 11250  2          +
 001862 4100 0004            00004 11251  2 2435.                  LA    R0,FILEMODE             INDICATE FILE
 001866                            11252  1 2436.                END   ,                       OF SET UP FOR FILE SRCH
 001866 9640 801C      0001C       11256  1 2437.                SET   CHKFMOD                 YES, I WANT TO BALANCE
 00186A 4D90 789A            008CA 11262  1 2438.                LCALL CATSRCH                 | NO ERROR RETURNS
 00186E                            11264  1 2439.                CLEAR CHKIVLV2                CLR 2ND LEVEL INTENTIONS; DONE
 00186E D781 8112 8112 00112 00112 11270  1          +
 001874 4D90 74C2            004F2 11271  1 2440.                IWRITE ERR=NTDERROR           WRITE INTENTIONS DONE
 001878                            11276    2441.              END   ,                       OF FINISH 2ND LEVEL INTENT
 001878 1BFF                       11280    2442.              CLEAR R15                     SET RETURN CODE - ALL OK
 00187A 4BD0 665A            01BC8 11284    2443.     NTDERROR DIREST FBR,RAR
 00187E 5860 D000            00000 11288             +
 001882 5890 D004            00004 11289             +
 001886 12FF                       11290    2444.              LTR   R15,R15
 001888 07F9                       11291    2445.              BR    RAR
1FILEVCAT (FILEVC) (09:45) (22MAR04) Change Entry Size                                                                      Page   96
0Current Usings:  (DSKBLK,R2) (RQB,R5) (*,R6) (*,R7) (CHKPNT,R8) (FSB,R10)
0Loc    Object Code    Addr1 Addr2  Stmt Lv Lineno    Source Statement           (Hibal 5, Asmedit 3.3)  HLASM R4.0  2004/03/22 09.45
+___    ______ ____    _____ _____  ____ __ ______    ______ _________
0                                  11293    2447.     *********************************************************************
                                   11294    2448.     * ON ENTRY:                                                         *
                                   11295    2449.     *           R1  = Location of buffer with entry in it. (NEW)        *
                                   11296    2450.     *           R0  = Length of entry in buffer (NEW)                   *
                                   11297    2451.     *               IF R0 = 0, it signifies an entry slot being deleted *
                                   11298    2452.     *               IF R0 < 0, don't change data extent ptrs of new     *
                                   11299    2453.     *                          entry                                    *
                                   11300    2454.     *           R15 = Address at which entry currently starts           *
                                   11301    2455.     *           R14 = Old entry length (index portion)                  *
                                   11302    2456.     *               IF R14 = 0, it signifies a new entry                *
                                   11303    2457.     *               IF R14 < 0, don't change data extent ptrs of old    *
                                   11304    2458.     *                           entry                                   *
                                   11305    2459.     *           CHK2WRA/B/N contain pointers to current node.           *
                                   11306    2460.     *           IF this is other that a simple change entry size (ie    *
                                   11307    2461.     *             insert root, insert entry, delete entry), then        *
                                   11308    2462.     *             CHKITYPE should have been initialized to indicate     *
                                   11309    2463.     *             this.                                                 *
                                   11310    2464.     * ON RETURN:                                                        *
                                   11311    2465.     *           IF CC = 0                                               *
                                   11312    2466.     *             Action complete: Intentions formatted if necessary    *
                                   11313    2467.     *               Space fields in node updated                        *
                                   11314    2468.     *               Rewrites must be done                               *
                                   11315    2469.     *           IF CC ~ 0                                               *
                                   11316    2470.     *             R14 conatains the PSW at error detection              *
                                   11317    2471.     *             The 2nd low order byte of R15 indicates the module    *
                                   11318    2472.     *               in which the error occured.                         *
                                   11319    2473.     *             The low order byte of R15 contains the error code for *
                                   11320    2474.     *               that module.                                        *
                                   11321    2475.     *********************************************************************
 00188A 5060 D000            00000 11322    2476.     NTRYCHG  DIRENT FBR,RAR
 00188E 5090 D004            00004 11327             +
 001892 41D0 D008/0D60       00008 11328             +
 001898 9618 801D      0001D       11346    2477.              SET   CHKFDLXT*CHKFINXT       DEFAULT IS TO MOD XTND PTRS
 DROP   *,R6
 USING  *,R6
 00189C 94FB 801D      0001D       11355    2478.              CLEAR CHKFXTAV                DEFAULT IS NO AVAIL EXTENDED
 0018A0 12EE/47B0 6012       018AA 11362    2479.              IF    (R14,NEG),'CLEAR CHKFDLXT '      DON'T CHG XTND PTRS
 0018A6 94EF 801D      0001D       11383             +
 0018AA 1200/47B0 601C       018B4 11388    2480.              IF    (R0,NEG),'CLEAR CHKFINXT '       DON'T CHG XTND PTRS
 0018B0 94F7 801D      0001D       11409             +
 0018B4 1000                       11414    2481.              LPR   R0,R0
 0018B6 10EE                       11415    2482.              LPR   R14,R14
 0018B8 5010 807C            0007C 11416    2483.              ST    R1,CHKBSAD              SAVE ENTRY COPY ADDRESS
 0018BC 4000 809C            0009C 11417    2484.              STH   R0,CHKBSLN              | (LEN)
 0018C0 50F0 8080            00080 11418    2485.              ST    R15,CHKBDAD             SAVE OLD ENTRY ADDR
 0018C4 40E0 80A0            000A0 11419    2486.              STH   R14,CHKBDLN             | (LEN)
                                   11420    2487.     *               Old data extension block
 0018C8 4800 8054            00054 11421    2488.              DLOKBUF CHK2WRB,ERR=NTCERROR  LOCK CURRENT BUFFER
 0018CC 4D90 71F8            00228 11427             +
                                   11429    2489.              REGCH (CNT,14),(PTR,15)
 0018D0 9110 801D      0001D       11430    2490.              IF    (CHKFDLXT,AND,(CHKBDLN,NZ)),BEGIN        OLD DATA ENTRY
 0018D4 47E0 60CE            01966 11442             +
 0018D8 D601 80A0 80A0 000A0 000A0 11454             +
 0018DE 4780 60CE            01966 11455             +
1FILEVCAT (FILEVC) (09:45) (22MAR04) Change Entry Size                                                                      Page   97
0Current Usings:  (DSKBLK,R2) (RQB,R5) (*,R6) (*,R7) (CHKPNT,R8) (FSB,R10)
0Loc    Object Code    Addr1 Addr2  Stmt Lv Lineno    Source Statement           (Hibal 5, Asmedit 3.3)  HLASM R4.0  2004/03/22 09.45
+___    ______ ____    _____ _____  ____ __ ______    ______ _________
00018E2 5830 8080            00080 11460  1 2491.                L     NOD,CHKBDAD             ADDR TO OLD ENT
 USING  NTRY,R3                    11461  1 2492.                WITH  (NTRY,NOD),BEGIN        |
 0018E6                            11475  2 2493.                  CLC   NTRYDATB(PL),=&L.AL1(NIL)
 0018E6 D503 3006 6318 00006 01BB0        2          +
 0018EC 4780 60CE            01966 11476  2 2494.                  IF    NE,BEGIN                DATA BLOCK EXISTS
 0018F0 9500 8112      00112       11487  3 2495.                    IF    (CHKITYPE,ZERO),BEGIN   SET UP CHECKPOINT
 0018F4 4770 607C            01914 11498  3          +
 0018F8 9220 8112      00112       11503  4 2496.                      MVI   CHKITYPE,CCHKNTRY
 0018FC D200 8113 801C 00113 0001C 11504  4 2497.                      MVC   CHKIFLG,CHKFLG
 001902 D205 8114 800E 00114 0000E 11505  4 2498.                      MVC   CHKICHAN,CHKCHAIN
 001908                            11506  4 2499.                      MVC   CHKIV1LN(1),=&L.AL1(NIL)         SET INTENT TO NIL
 001908 D200 811A 6318 0011A 01BB0        4          +
 00190E D238 811B 811A 0011B 0011A 11507  4 2500.                      MVC   CHKIV1LN+1(L'CHKIV1LN-1),CHKIV1LN
 001914                            11508  3 2501.                    END   ,                       OF SET UP CHECKPOINT
 001914 9604 801D      0001D       11512  3 2502.                    SET   CHKFXTAV                INDICATE OLD EXTENDED BLK AVAIL
 001918 D203 8124 3006 00124 00006 11518  3 2503.                    MVC   CHKINTOB(PL),NTRYDATB   OLD DATA NODE
 00191E D203 804C 3006 0004C 00006 11519  3 2504.                    MVC   CHKWRKB(PL),NTRYDATB    THIS ENTRY IS WORK ENTRY
 001924 4800 804C            0004C 11520  3 2505.                    DREAD CHKWRKB,LOCK=YES,PTR=WRK,TAG=NTOC,ERR=NTCERROR
 001928 41F0 0001            00001 11525  3          +
 00192C 4D90 7032            00062 11527  3          +
 001930 5020 8048            00048 11529  3          +
 001934 D201 812A 2000 0012A 00000 11530  3          +
 00193A 9640 200E      0000E       11531  3 2506.                    SET   DSKFMOD                 THIS BLOCK WILL BE MOD
 00193E 4830 804E            0004E 11537  3 2507.                    LH    NOD,CHKWRKN             ADDR TO NTRYXTND
 001942 4133 2000            00000 11538  3 2508.                    LA    NOD,DSKBLK(NOD)         |
 DROP   NTRY,R3                    11539  3 2509.                    WITH  (NTRYXTND,NOD),BEGIN    |
 USING  NTRYXTND,R3
 001946 48F0 804E            0004E 11556  4 2510.                      RELNODE CHKWRKN,NTRYXLEN,(DSK),ERR=NTCERROR
 00194A 4800 3000/1812       00000 11562  4          +
 001950 5890 6324/0D99       01BBC 11569  4          +
 001956 4770 6302            01B9A 11579  4          +
 00195A D201 8128 200C 00128 0000C 11585  4 2511.                      MVC   CHKINTOL,DSKBLINK       SAVE BLOCK LINK
 001960 D200 812C 200E 0012C 0000E 11586  4 2512.                      MVC   CHKINTOF,DSKFL          | AND FLAGS
 DROP   NTRYXTND,R3                11587  3 2513.                    END   ,                       OF ADDRESSABILITY TO NTRYXTND
 USING  NTRY,R3
 001966                            11602  2 2514.                  END   ,                       OF DATA BLOCK ALREADY EXISTS
 DROP   NTRY,R3                    11606  1 2515.                END   ,                       OF ADDR TO OLD ENTRY
 001966                            11614    2516.              END   ,                       OF OLD DATA ENTRY
                                   11618    2517.     *               New data extension block
 001966 9180 801C      0001C       11619    2518.              IF    CHKFACC,'LH IX,FSBNAMXL '
 00196A 47E0 60DA            01972 11629             +
 00196E 4810 A0B8            000B8 11635             +
 001972 60DE           01972 0196C 11640    2519.              ELSE  'LH IX,FSBNFMXL '
 001972 47F0 60E2            0197A 11645             +
 001976 4810 A0C4            000C4 11652             +
 00197A 9108 801D      0001D       11657    2520.              IF    (CHKFINXT,AND,(CHKBSLN,GT,IX)),BEGIN     EXT OVERFLOW
 00197E 47E0 619A            01A32 11669             +
 001982 4910 809C            0009C 11682             +
 001986 47B0 619A            01A32 11683             +
 00198A 9500 8112      00112       11688  1 2521.                IF    (CHKITYPE,ZERO),BEGIN   SET UP CHECKPOINT
 00198E 4770 6116            019AE 11699  1          +
 001992 9220 8112      00112       11704  2 2522.                  MVI   CHKITYPE,CCHKNTRY       TRANSACTION TYPE
 001996 D200 8113 801C 00113 0001C 11705  2 2523.                  MVC   CHKIFLG,CHKFLG
 00199C D205 8114 800E 00114 0000E 11706  2 2524.                  MVC   CHKICHAN,CHKCHAIN
1FILEVCAT (FILEVC) (09:45) (22MAR04) Change Entry Size                                                                      Page   98
0Current Usings:  (DSKBLK,R2) (RQB,R5) (*,R6) (*,R7) (CHKPNT,R8) (FSB,R10)
0Loc    Object Code    Addr1 Addr2  Stmt Lv Lineno    Source Statement           (Hibal 5, Asmedit 3.3)  HLASM R4.0  2004/03/22 09.45
+___    ______ ____    _____ _____  ____ __ ______    ______ _________
00019A2                            11707  2 2525.                  MVC   CHKIV1LN(1),=&L.AL1(NIL)         SET INTENT TO NIL
 0019A2 D200 811A 6318 0011A 01BB0        2          +
 0019A8 D238 811B 811A 0011B 0011A 11708  2 2526.                  MVC   CHKIV1LN+1(L'CHKIV1LN-1),CHKIV1LN
 0019AE                            11709  1 2527.                END   ,                       OF SET UP CHECKPOINT
 0019AE 9104 801D      0001D       11713  1 2528.                IF    CHKFXTAV,'LH PTR,CHKINTOB '      INDICATE OLD AVAIL BLK
 0019B2 47E0 6122            019BA 11723  1          +
 0019B6 48F0 8124            00124 11729  1          +
 0019BA 6126           019BA 019B4 11734  1 2529.                ELSE  'LH PTR,=&L.AL1(NIL) '  | OR NOT AVAILABLE
 0019BA 47F0 612A            019C2 11739  1          +
 0019BE 48F0 6318            01BB0 11746  1          +
 0019C2 41E0 0001            00001 11751  1 2530.                GETNODE PTRS=WRK,DATA=(PTR),LOCK=YES,TAG=NTNC,ERR=NTCERROR
 0019C6 5890 6320/0D99       01BB8 11760  1          +
 0019CC 4770 6302            01B9A 11770  1          +
 0019D0 5020 8048            00048 11776  1          +
 0019D4 4000 804C            0004C 11777  1          +
 0019D8 4010 804E            0004E 11778  1          +
 0019DC D201 8134 2000 00134 00000 11779  1          +
 0019E2 4D90 71F8            00228 11786  1          +
 0019E6 9640 200E      0000E       11788  1 2531.                SET   DSKFMOD                 THIS BLOCK WILL BE MOD
 0019EA D201 8132 200C 00132 0000C 11794  1 2532.                MVC   CHKINTNL,DSKBLINK       SAVE BLOCK LINK
 0019F0 D200 8136 200E 00136 0000E 11795  1 2533.                MVC   CHKINTNF,DSKFL          | AND FLAGS
 0019F6 4130 8204            00204 11796  1 2534.                LA    NOD,CHKINTRY            COPY ADDRESS
 USING  NTRY,R3                    11797  1 2535.                WITH (NTRY,NOD),'MVC NTRYDATB(PL),CHKWRKB ' DATA EXTENT ADDR
 0019FA D203 3006 804C 00006 0004C 11812  1          +
 DROP   NTRY,R3
 001A00 D203 812E 804C 0012E 0004C 11821  1 2536.                MVC   CHKINTNB(PL),CHKWRKB    NEW DATA BLOCK IN INTENTIONS
                                   11822  1 2537.                REGCH (MIX,0),(IX,1),(CNT,14),(PTR,15) CHECK REG ASSUMPTIONS
 001A06 4131 2000            00000 11823  1 2538.                LA    NOD,DSKBLK(R1)          (R1 IS BLOCK OFFSET ON RETURN)
 USING  NTRYXTND,R3                11824  1 2539.                WITH  (NTRYXTND,NOD),BEGIN    DESTINATION OF MOVE
 001A0A 4100 3002            00002 11838  2 2540.                  LA    MIX,NTRYXPER            |
 DROP   NTRYXTND,R3                11839  1 2541.                END   ,                       OF DESTINATION OF MOVE
 001A0E 9180 801C      0001C       11847  1 2542.                IF    CHKFACC,'LH PTR,FSBNAMXL '       MAX IN INDEX
 001A12 47E0 6182            01A1A 11857  1          +
 001A16 48F0 A0B8            000B8 11863  1          +
 001A1A 6186           01A1A 01A14 11868  1 2543.                ELSE  'LH PTR,FSBNFMXL '      |
 001A1A 47F0 618A            01A22 11873  1          +
 001A1E 48F0 A0C4            000C4 11880  1          +
 001A22 41E0 8204            00204 11885  1 2544.                LA    CNT,CHKINTRY            SOURCE OF OVERFLOW COPY
 001A26 1EEF                       11886  1 2545.                ALR   CNT,PTR                 |
 001A28 4810 809C            0009C 11887  1 2546.                LH    IX,CHKBSLN              LENGTH OF COPY
 001A2C 1B1F                       11888  1 2547.                SR    IX,PTR                  |
 001A2E 18F1                       11889  1 2548.                LR    PTR,IX                  | IX & PTR ARE THE LENGTHS
 001A30 0E0E                       11890  1 2549.                MVCL  MIX,CNT                 COPY OVERFLOW
 001A32                            11891    2550.              END   ,                       OF EXTEND OVERFLOW
                                   11895    2551.     *        If no extend data and change-extended-ptrs-on-insert set
 001A32 619E           01A32 01980 11896    2552.              ELSEIF (CHKFINXT,AND,(CHKBSLN,NZ)),BEGIN
 001988 619E           0198A 01A32 11902             +
 001A32 47F0 61BA            01A52 11904             +
 001A36 9108 801D      0001D       11918             +
 001A3A 47E0 61BA            01A52 11919             +
 001A3E D601 809C 809C 0009C 0009C 11931             +
 001A44 4780 61BA            01A52 11932             +
 001A48 5830 807C            0007C 11937  1 2553.                L     NOD,CHKBSAD             SET NO_DATA_EXTENT
 USING  NTRY,R3                    11938  1 2554.                WITH  (NTRY,NOD),'MVC NTRYDATB(PL),=&L.AL1(NIL) '
1FILEVCAT (FILEVC) (09:45) (22MAR04) Change Entry Size                                                                      Page   99
0Current Usings:  (DSKBLK,R2) (RQB,R5) (*,R6) (*,R7) (CHKPNT,R8) (FSB,R10)
0Loc    Object Code    Addr1 Addr2  Stmt Lv Lineno    Source Statement           (Hibal 5, Asmedit 3.3)  HLASM R4.0  2004/03/22 09.45
+___    ______ ____    _____ _____  ____ __ ______    ______ _________
0001A4C D203 3006 6318 00006 01BB0 11953  1          +
 DROP   NTRY,R3
 001A52                            11962    2555.              END   ,                       OF NO EXTEND OVERFLOW
                                   11966    2556.     *               Change entry size in index
 001A52 48E0 80A0            000A0 11967    2557.              LH    CNT,CHKBDLN             OLD LENGTH
 001A56 4840 809C            0009C 11968    2558.              LH    QR,CHKBSLN              NEW LENGTH (COPY)
 001A5A 9180 801C      0001C       11969    2559.              IF    CHKFACC,'LH IX,FSBNAMXL '
 001A5E 47E0 61CE            01A66 11979             +
 001A62 4810 A0B8            000B8 11985             +
 001A66 61D2           01A66 01A60 11990    2560.              ELSE  'LH IX,FSBNFMXL '
 001A66 47F0 61D6            01A6E 11995             +
 001A6A 4810 A0C4            000C4 12002             +
 001A6E 1941/47D0 61DE       01A76 12007    2561.              CEIL  QR,IX                   LIMIT COPY TO MAX SIZE IN INDEX
 001A74 1841                       12012             +
                                   12013    2562.              REGCH (CNT,14)                CHECK REG ASSUMPTIONS
 001A76 1B4E/4780 6250       01AE8 12014    2563.              IF    ('SR QR,CNT',NZ),BEGIN  CHANGE ENTRY SIZE IN INDEX
 001A7C 58F0 8080            00080 12027  1 2564.                L     PTR,CHKBDAD             ADDRESS OF OLD ENTRY
 USING  NTRY,R15                   12028  1 2565.                WITH  (NTRY,PTR),BEGIN        |
 001A80 41EE F000            00000 12042  2 2566.                  LA    CNT,NTRY(CNT)           CNT = START OF OLD FOLLOW NTRYS
 001A84                            12043  2 2567.                  WHILE ('CLC NTRYLEN,=&L.AL1(NIL)',NE),BEGIN    LOOK FOR END
 001A84 D501 F000 6318 00000 01BB0 12052  2          +
 001A8A 4780 61FE            01A96 12053  2          +
 001A8E 4AF0 F000            00000 12058  3 2568.                    AH    PTR,NTRYLEN             NEXT ENTRY
 001A92 47F0 61EC            01A84 12059  2 2569.                  END   ,                       | OF LOOK FOR ENT
 001A96 41F0 F006            00006 12064  2 2570.                  LA    PTR,NTRY+CNODNLLN       PTR = END OF OLD FOLLOW ENTRYS
 DROP   NTRY,R15                   12065  1 2571.                END   ,                       OF ADDR TO ENTRYS
                                   12073  1 2572.     *               Collapse entries
 001A9A 1244/47B0 6214       01AAC 12074  1 2573.                IF    (QR,NEG),BEGIN          COLLAPSE, NEW ENTRY SMALLER
                                   12088  2 2574.                  REGCH (MIX,0),(IX,1),(CNT,14),(PTR,15) CHECK REG ASSUMPTIONS
 001AA0 180E                       12089  2 2575.                  LR    MIX,CNT                 DESTINATION ADDRESS
 001AA2 1A04                       12090  2 2576.                  AR    MIX,QR                  | (QR IS NEG)
 001AA4 181F                       12091  2 2577.                  LR    IX,PTR                  LENGTH
 001AA6 1B1E                       12092  2 2578.                  SR    IX,CNT                  |
 001AA8 18F1                       12093  2 2579.                  LR    PTR,IX                  |
 001AAA 0E0E                       12094  2 2580.                  MVCL  MIX,CNT                 COLLAPSE
 001AAC                            12095  1 2581.                END   ,                       OF COLLAPSE, NEW ENTRY SMALLER
                                   12099  1 2582.     *               Expand entries
                                   12100  1 2583.     *                 CNT = START OF OLD FOLLOWING ENTRYS
                                   12101  1 2584.     *                 PTR = END OF OLD FOLLOWING ENTRYS (& IS DECR)
 001AAC 6218           01AAC 01A9E 12102  1 2585.                ELSEIF (QR,POS),BEGIN         EXPAND, NEW ENTRY LARGER
 001AAC 47F0 6250/1244       01AE8 12108  1          +
 001AB2 47D0 6250            01AE8 12120  1          +
 001AB6 1804                       12125  2 2586.                  LR    MIX,QR                  MIX = TOT SIZ TO BE MADE AVAIL
 001AB8 5940 6328            01BC0 12126  2 2587.                  CEIL  QR,256                  QR = LENGTH TO MOVE EACH LOOP
 001ABC 47D0 622C            01AC4 12135  2          +
 001AC0 5840 6328            01BC0 12140  2          +
 001AC4 181F                       12145  2 2588.     NTRYEXP      LR    IX,PTR                  | REMAIN LENGTH (END - BEGIN)
 001AC6 1B1E                       12146  2 2589.                  SR    IX,CNT                  | |
 001AC8 1914/47B0 6238       01AD0 12147  2 2590.                  IF (IX,LT,QR),'LR QR,IX'      | | DON'T MOVE MORE THAN THERE
 001ACE 1841                       12163  2          +
 001AD0 1BF4                       12168  2 2591.                  SR    PTR,QR                  PTR = SOURCE
 001AD2 181F                       12169  2 2592.                  LR    IX,PTR                  IX = DESTINATION
 001AD4 1E10                       12170  2 2593.                  ALR   IX,MIX                  |
 001AD6 0640/4440 6342       01BDA 12171  2 2594.                  DEX   QR,'MVC @IX(0),@PTR '   EXPAND
1FILEVCAT (FILEVC) (09:45) (22MAR04) Change Entry Size                                                                      Page  100
0Current Usings:  (DSKBLK,R2) (RQB,R5) (*,R6) (*,R7) (CHKPNT,R8) (FSB,R10)
0Loc    Object Code    Addr1 Addr2  Stmt Lv Lineno    Source Statement           (Hibal 5, Asmedit 3.3)  HLASM R4.0  2004/03/22 09.45
+___    ______ ____    _____ _____  ____ __ ______    ______ _________
0001BDA D200 1000 F000 00000 00000 12182  2          +
 001ADC 5E40 632C            01BC4 12190  2 2595.                  INCR  QR
 001AE0 19FE/4720 622C       01AC4 12193  2 2596.                  IF    (PTR,GT,CNT),NTRYEXP    MORE TO MOVE
 001AE6 1840                       12211  2 2597.                  LR    QR,MIX                  QR = NET LENGTH CHANGE
 001AE8                            12212  1 2598.                END   ,                       OF EXPAND, NEW ENTRY LARGER
 001AE8                            12216    2599.              END   ,                       OF CHANGE ENTRY SIZE IN INDEX
                                   12220    2600.     *               Copy main part of entry
 001AE8                            12221    2601.              IF    (CHKBSLN,NZ),BEGIN      SOMETHING TO COPY
 001AE8 D601 809C 809C 0009C 0009C 12231             +
 001AEE 4780 628E            01B26 12232             +
 001AF2 5830 8080            00080 12237  1 2602.                L     NOD,CHKBDAD             ADDR TO ENTRY
                                   12238  1 2603.                REGCH (MIX,0),(IX,1),(CNT,14),(PTR,15) CHECK REG ASSUMPTIONS
 001AF6 1803                       12239  1 2604.                LR    MIX,NOD                 DESTINATION OF NEW ENTRY
 001AF8 58E0 807C            0007C 12240  1 2605.                L     CNT,CHKBSAD             SOURCE (NEW ENTRY)
 001AFC 4810 809C            0009C 12241  1 2606.                LH    IX,CHKBSLN              LENGTH
 001B00 9180 801C      0001C       12242  1 2607.                IF    CHKFACC,'LH PTR,FSBNAMXL '
 001B04 47E0 6274            01B0C 12252  1          +
 001B08 48F0 A0B8            000B8 12258  1          +
 001B0C 6278           01B0C 01B06 12263  1 2608.                ELSE  'LH PTR,FSBNFMXL '
 001B0C 47F0 627C            01B14 12268  1          +
 001B10 48F0 A0C4            000C4 12275  1          +
 001B14 191F/47D0 6284       01B1C 12280  1 2609.                CEIL  IX,PTR                  LIMIT TO MAX SIZE IN INDEX
 001B1A 181F                       12285  1          +
 001B1C 1821                       12286  1 2610.                LR    DSK,IX                  | TEMP SAV OF INDEX SIZE
 001B1E 18F1                       12287  1 2611.                LR    PTR,IX                  |
 001B20 0E0E                       12288  1 2612.                MVCL  MIX,CNT                 COPY ENTRY
 001B22 4020 3000            00000 12289  1 2613.                WITH  (NTRY,NOD),'STH DSK,NTRYLEN '    Max size in index
 USING  NTRY,R3
 DROP   NTRY,R3
 001B26                            12313    2614.              END   ,                       OF SOMETHING TO COPY
 001B26 5820 8050            00050 12317    2615.              L     DSK,CHK2WRA             INDICATE CURRENT BLOCK MODIFIED
 001B2A 9640 200E      0000E       12318    2616.              SET   DSKFMOD                 |
 001B2E 4830 8056            00056 12324    2617.              LH    NOD,CHK2WRN             ADDRESSABILITY TO NODE
 001B32 4133 2000            00000 12325    2618.              LA    NOD,DSKBLK(NOD)         |
 USING  NODE,R3                    12326    2619.              USING NODE,NOD
 001B36 4810 3004            00004 12335    2620.              LH    IX,NODSPACE             NUMBER OF FREE BYTES
 001B3A 1B14                       12336    2621.              SR    IX,QR                   | MINUS CHANGE IN ENTRY SIZE
 001B3C 4010 3004            00004 12337    2622.              STH   IX,NODSPACE             | IX = Free space in node
 001B40 9180 801C      0001C       12338    2623.              IF    CHKFACC,BEGIN           ACCOUNT NODE
 001B44 47E0 62B8            01B50 12348             +
 001B48 4800 A0BA            000BA 12353  1 2624.                LH    MIX,FSBNAXSP            MIX = Max free space in node
 001B4C 48E0 A0BC            000BC 12354  1 2625.                LH    CNT,FSBNANSP            CNT = Min free space in node
 001B50 62BC           01B50 01B46 12355    2626.              END   ELSE,BEGIN              FILE NODE
 001B50 47F0 62C4            01B5C 12364             +
 001B54 4800 A0C6            000C6 12370  1 2627.                LH    MIX,FSBNFXSP            MIX = Max free space in node
 001B58 48E0 A0C8            000C8 12371  1 2628.                LH    CNT,FSBNFNSP            CNT = Min free space in node
 001B5C                            12372    2629.              END   ,                       OF FILE NODE
 001B5C 94E7 3006      00006       12376    2630.              CLEAR NODFEMT+NODFFUL
 001B60 9120 3006      00006       12386    2631.              IF    (NODFTRT),BEGIN         TREE ROOT
 001B64 47E0 62E8            01B80 12396             +
 001B68                            12401  1 2632.                IF    (NODNTNUM,LT,1),'SET NODFEMT '
 001B68 D501 6334 3002 01BCC 00002 12413  1          +
 001B6E 47D0 62DE            01B76 12414  1          +
 001B72 9608 3006      00006       12425  1          +
1FILEVCAT (FILEVC) (09:45) (22MAR04) Change Entry Size                                                                      Page  101
0Current Usings:  (DSKBLK,R2) (NODE,R3) (RQB,R5) (*,R6) (*,R7) (CHKPNT,R8) (FSB,R10)
0Loc    Object Code    Addr1 Addr2  Stmt Lv Lineno    Source Statement           (Hibal 5, Asmedit 3.3)  HLASM R4.0  2004/03/22 09.45
+___    ______ ____    _____ _____  ____ __ ______    ______ _________
0001B76 191E/47B0 62E8       01B80 12430  1 2633.                IF    (IX,LT,CNT),'SET NODFFUL '
 001B7C 9610 3006      00006       12451  1          +
 001B80 62EC           01B80 01B66 12456    2634.              END   ELSE,BEGIN              NOT TREE ROOT
 001B80 47F0 6300            01B98 12465             +
 001B84 1910/47D0 62F6       01B8E 12471  1 2635.                IF    (IX,GT,MIX),'SET NODFEMT '
 001B8A 9608 3006      00006       12492  1          +
 001B8E 191E/47B0 6300       01B98 12497  1 2636.                IF    (IX,LT,CNT),'SET NODFFUL '
 001B94 9610 3006      00006       12518  1          +
 001B98                            12523    2637.              END   ,                       OF NOT TREE ROOT
 001B98 1BFF                       12527    2638.              CLEAR R15                     SET CC - OK
 001B9A 4BD0 6330            01BC8 12531    2639.     NTCERROR DIREST FBR,RAR
 001B9E 5860 D000            00000 12535             +
 001BA2 5890 D004            00004 12536             +
 001BA6 12FF                       12537    2640.              LTR   R15,R15
 001BA8 07F9                       12538    2641.              BR    RAR
 DROP   NODE,R3                    12539    2642.              DROP  NOD
 001BB0                            12546    2643.              LTORG ,
 001BB0 FFFFFFFF                   12548                             =4AL1(NIL)
 001BB4 0000188A                   12549                             =A(NTRYCHG)
 001BB8 00001BE0                   12550                             =A(GETNODE)
 001BBC 00001E82                   12551                             =A(RELNODE)
 001BC0 00000100                   12552                             =A(256)
 001BC4 00000001                   12553                             =A(1)
 001BC8 0008                       12554                             =Y(2*4)
 001BCA 0005                       12555                             =Y(CNTAMXSZ)
 001BCC 0001           01BE0 046CB 12556                             =AL2(1)
1FILEVCAT (FILEVC) (09:45) (22MAR04) Get Node                                                                               Page  102
0Current Usings:  (DSKBLK,R2) (RQB,R5) (*,R6) (*,R7) (CHKPNT,R8) (FSB,R10)
0Loc    Object Code    Addr1 Addr2  Stmt Lv Lineno    Source Statement           (Hibal 5, Asmedit 3.3)  HLASM R4.0  2004/03/22 09.45
+___    ______ ____    _____ _____  ____ __ ______    ______ _________
0                                  12561    2645.     *********************************************************************
                                   12562    2646.     * ON ENTRY: IF R14 = 0: It's an index node being allocated          *
                                   12563    2647.     *             Length for index node takes up whole block, which is  *
                                   12564    2648.     *             currently the same for account and file nodes.        *
                                   12565    2649.     *           IF R14 ~ 0: It's a data node being allocated.           *
                                   12566    2650.     *             IF R15 >= 0 it indicates that this data block is in   *
                                   12567    2651.     *               memory, and possibly has room for the allocate      *
                                   12568    2652.     *             Length for data node is the amount in CHKBSLN         *
                                   12569    2653.     *             (copy node length) minus the amount that can fit in   *
                                   12570    2654.     *             the index structure, plus space for extended data     *
                                   12571    2655.     *             node overhead.                                        *
                                   12572    2656.     *           CHKFACC indicates whether the request is for an account *
                                   12573    2657.     *             entry or a file entry                                 *
                                   12574    2658.     * ON EXIT:  IF CC = 0:                                              *
                                   12575    2659.     *             DSK = Buffer address of allocated node                *
                                   12576    2660.     *             R0  = Block number of allocated node                  *
                                   12577    2661.     *             R1  = Block offset of allocated node                  *
                                   12578    2662.     *             NOD = Addressability to allocated node                *
                                   12579    2663.     *             IF an index node:                                     *
                                   12580    2664.     *               NODLEN, NODNTNUM, NODSPACE, the NODFACC/NODFLEAF    *
                                   12581    2665.     *                 flags and the last_entry markers are initialized  *
                                   12582    2666.     *             IF a data node:                                       *
                                   12583    2667.     *               NTRYXLEN is initialized                             *
                                   12584    2668.     *           IF CC ~ 0                                               *
                                   12585    2669.     *             R14 conatains the PSW at error detection              *
                                   12586    2670.     *             The 2nd low order byte of R15 indicates the module    *
                                   12587    2671.     *               in which the error occured.                         *
                                   12588    2672.     *             The low order byte of R15 contains the error code for *
                                   12589    2673.     *               that module.                                        *
                                   12590    2674.     *********************************************************************
                                   12591    2675.     *********************************************************************
                                   12592    2676.     *   GETNODE assumes that an account node takes up a whole disk      *
                                   12593    2677.     * block, and so if a block isn't available, tough, it's an error    *
                                   12594    2678.     * on allocation.  Likewise, it assumes that a file node takes up a  *
                                   12595    2679.     * whole disk block, and so if a block isn't available, tough again. *
                                   12596    2680.     *********************************************************************
 001BE0 5060 D000            00000 12597    2681.     GETNODE  DIRENT FBR,RAR
 001BE4 5090 D004            00004 12602             +
 001BE8 41D0 D008/0D60       00008 12603             +
 001BEE 12EE/4780 61A4       01D92 12621    2682.              IF    (R14,NZ),BEGIN          GET A DATA NODE
 DROP   *,R6
 USING  *,R6
 001BF4 12FF/4740 606C       01C5A 12635  1 2683.                IF    (R15,NNEG),BEGIN        POSSIBLE BLOCK IN MEMORY
 001BFA 9120 200E      0000E       12649  2 2684.                  IF    ~DSKFDLNK,EXIT          THIS BLOCK WAS EMPTIED
 001BFE 47E0 606C            01C5A 12661  2          +
 001C02 180F/1BFF                  12667  2 2685.                  DREAD (R15),ERR=GNERROR       CHECK OUT THE BLOCK IN MEM
 001C06 4D90 7032            00062 12678  2          +
 001C0A 4810 809C            0009C 12680  2 2686.                  LH    IX,CHKBSLN              COMPUTE OVERFLOW AMOUNT
 001C0E 9180 801C      0001C       12681  2 2687.                  IF    CHKFACC,'LH MIX,FSBNAMXL '       MAX IN INDEX
 001C12 47E0 602C            01C1A 12691  2          +
 001C16 4800 A0B8            000B8 12697  2          +
 001C1A 6030           01C1A 01C14 12702  2 2688.                  ELSE  'LH MIX,FSBNFMXL '      |
 001C1A 47F0 6034            01C22 12707  2          +
 001C1E 4800 A0C4            000C4 12714  2          +
1FILEVCAT (FILEVC) (09:45) (22MAR04) Get Node                                                                               Page  103
0Current Usings:  (DSKBLK,R2) (RQB,R5) (*,R6) (*,R7) (CHKPNT,R8) (FSB,R10)
0Loc    Object Code    Addr1 Addr2  Stmt Lv Lineno    Source Statement           (Hibal 5, Asmedit 3.3)  HLASM R4.0  2004/03/22 09.45
+___    ______ ____    _____ _____  ____ __ ______    ______ _________
0001C22 1B10                       12719  2 2689.                  SR    IX,MIX                  |
 001C24 4100 1002            00002 12720  2 2690.                  LA    MIX,@IX+CNTXFXLN        | ADD SPACE FOR XTEND LEN
 001C28 5000 D000            00000 12721  2 2691.                  DIRSAV MIX                    SAVE REQUESTED LEN
 001C2C 41D0 D004            00004 12724  2          +
 001C30 1812/5890 638A       01F78 12725  2 2692.                  ALLOC (DSK),(MIX),ERR=GNERROR TRY TO ALLOC XTND NODE
 001C36 0D99/4780 605E       01C4C 12737  2          +
 001C3C 59F0 638E            01F7C 12759  2          +
 001C40 4780 605E            01C4C 12760  2          +
 001C44 56F0 6392            01F80 12765  3          +
 001C48 47F0 621C            01E0A 12766  2          +
 001C4C 4BD0 63AE            01F9C 12771  2 2693.                  DIREST MIX                    RESTORE REQUESTED LEN
 001C50 5800 D000            00000 12774  2          +
 001C54 12FF/4780 613C       01D2A 12775  2 2694.                  IF    (R15,ZERO),GNDNFORM     ROOM IN CURRENT BLOCK
 001C5A                            12792  1 2695.                END   ,                       OF POSSIBLE BLOCK IN MEMORY
 001C5A                            12796  1 2696.                CLC   CHKNXDB(BL),=&L.AL1(NIL)
 001C5A D501 8012 6396 00012 01F84        1          +
 001C60 4780 60D0            01CBE 12797  1 2697.                IF    NE,BEGIN                NEXT DATA BLOCK EXISTS
 001C64 4800 8012/1BFF       00012 12808  2 2698.                  DREAD CHKNXDB,ERR=GNERROR
 001C6A 4D90 7032            00062 12818  2          +
 001C6E 4810 809C            0009C 12820  2 2699.                  LH    IX,CHKBSLN              COMPUTE OVERFLOW AMOUNT
 001C72 9180 801C      0001C       12821  2 2700.                  IF    CHKFACC,'LH MIX,FSBNAMXL '       MAX IN INDEX
 001C76 47E0 6090            01C7E 12831  2          +
 001C7A 4800 A0B8            000B8 12837  2          +
 001C7E 6094           01C7E 01C78 12842  2 2701.                  ELSE  'LH MIX,FSBNFMXL '      |
 001C7E 47F0 6098            01C86 12847  2          +
 001C82 4800 A0C4            000C4 12854  2          +
 001C86 1B10                       12859  2 2702.                  SR    IX,MIX                  |
 001C88 4100 1002            00002 12860  2 2703.                  LA    MIX,@IX+CNTXFXLN        | ADD SPACE FOR XTEND LEN
 001C8C 5000 D000            00000 12861  2 2704.                  DIRSAV MIX                    SAVE REQUESTED LEN
 001C90 41D0 D004            00004 12864  2          +
 001C94 1812/5890 638A       01F78 12865  2 2705.                  ALLOC (DSK),(MIX),ERR=GNERROR TRY TO ALLOC XTND NODE
 001C9A 0D99/4780 60C2       01CB0 12877  2          +
 001CA0 59F0 638E            01F7C 12899  2          +
 001CA4 4780 60C2            01CB0 12900  2          +
 001CA8 56F0 6392            01F80 12905  3          +
 001CAC 47F0 621C            01E0A 12906  2          +
 001CB0 4BD0 63AE            01F9C 12911  2 2706.                  DIREST MIX                    RESTORE REQUESTED LEN
 001CB4 5800 D000            00000 12914  2          +
 001CB8 12FF/4780 613C       01D2A 12915  2 2707.                  IF    (R15,ZERO),GNDNFORM     ROOM IN CURRENT BLOCK
 001CBE                            12932  1 2708.                END   ,                       OF NEXT DATA BLOCK EXISTS
 001CBE 5890 639A/0D99       01F88 12936  1 2709.                GETBLOCK ERR=GNERROR          START A NEW BLOCK
 001CC4 4770 621C            01E0A 12949  1          +
 001CC8                            12955  1 2710.                BEGIN ALLOCATE                FROM A NEW BLOCK
 001CC8 9610 200E      0000E       12959  2 2711.                  SET   DSKFDATA                WILL BE USED AS A DATA BLOCK
 001CCC 4810 809C            0009C 12965  2 2712.                  LH    IX,CHKBSLN              COMPUTE OVERFLOW AMOUNT
 001CD0 9180 801C      0001C       12966  2 2713.                  IF    CHKFACC,'LH MIX,FSBNAMXL '       MAX IN INDEX
 001CD4 47E0 60EE            01CDC 12976  2          +
 001CD8 4800 A0B8            000B8 12982  2          +
 001CDC 60F2           01CDC 01CD6 12987  2 2714.                  ELSE  'LH MIX,FSBNFMXL '      |
 001CDC 47F0 60F6            01CE4 12992  2          +
 001CE0 4800 A0C4            000C4 12999  2          +
 001CE4 1B10                       13004  2 2715.                  SR    IX,MIX                  |
 001CE6 4100 1002            00002 13005  2 2716.                  LA    MIX,@IX+CNTXFXLN        | ADD SPACE FOR XTEND LEN
 001CEA 5000 D000            00000 13006  2 2717.                  DIRSAV MIX                    SAVE REQUESTED LEN
1FILEVCAT (FILEVC) (09:45) (22MAR04) Get Node                                                                               Page  104
0Current Usings:  (DSKBLK,R2) (RQB,R5) (*,R6) (*,R7) (CHKPNT,R8) (FSB,R10)
0Loc    Object Code    Addr1 Addr2  Stmt Lv Lineno    Source Statement           (Hibal 5, Asmedit 3.3)  HLASM R4.0  2004/03/22 09.45
+___    ______ ____    _____ _____  ____ __ ______    ______ _________
0001CEE 41D0 D004            00004 13009  2          +
 001CF2 1812/5890 638A       01F78 13010  2 2718.                  ALLOC (DSK),(MIX),ERR=GNERROR ALLOCATE DATA SPACE
 001CF8 0D99/4780 6120       01D0E 13022  2          +
 001CFE 59F0 638E            01F7C 13044  2          +
 001D02 4780 6120            01D0E 13045  2          +
 001D06 56F0 6392            01F80 13050  3          +
 001D0A 47F0 621C            01E0A 13051  2          +
 001D0E 4BD0 63AE            01F9C 13056  2 2719.                  DIREST MIX                    RESTORE REQUESTED LEN
 001D12 5800 D000            00000 13059  2          +
 001D16 12FF/4780 613C       01D2A 13060  2 2720.                  IF    (R15,NZ),BEGIN          TOO BIG FOR NEW BLOCK!!
 001D1C 5890 639E/0D99       01F8C 13074  3 2721.                    ABORT  CATGETN
 001D22 C3C1E3C7C5E3D540           13079  3          +
 001D2A                            13080  2 2722.                  END   ,                       OF TOO BIG FOR NEW BLOCK!!
 001D2A                            13084  1 2723.                END   ,                       OF ALLOCATE FROM A NEW BLOCK
 001D2A                            13088  1 2724.     GNDNFORM   LABEL ,                       HANDLE BLOCK LINKS AND FLAGS
 001D2A 9120 200E      0000E       13090  1 2725.                IF    (DSKFDLNK),BEGIN        PART OF DATA-LINK
 001D2E 47E0 6180            01D6E 13100  1          +
 001D32 49E0 A0CA            000CA 13105  2 2726.                  IF    ((R14,LT,FSBTXXLN),AND,(DSKBLK,EQ,CHKNXDB)),BEGIN
 001D36 47B0 6180            01D6E 13119  2          +
 001D3A D50F 2000 8012 00000 00012 13133  2          +
 001D40 4770 6180            01D6E 13134  2          +
 001D44 5010 D000            00000 13139  3 2727.                    DIRSAV IX                     SAVE OFFSET IN BLK AND RETURN
 001D48 41D0 D004            00004 13142  3          +
 001D4C D201 8012 200C 00012 0000C 13143  3 2728.                    MVC   CHKNXDB,DSKBLINK        DELETE FROM NEXT_DATA CHAIN
 001D52                            13144  3 2729.                    MVC   DSKBLINK,=&L.AL1(NIL)   |
 001D52 D201 200C 6396 0000C 01F84        3          +
 001D58 94DF 200E      0000E       13145  3 2730.                    CLEAR DSKFDLNK                |
 001D5C                            13152  3 2731.     GNTST1         LABEL ,                       MUST BE EQUAL TO GNTST2
                                   13154  3 2732.                    AGO   .GTNLOST                Allow to be potentially lost
                                   13155  3 2734.     .GTNLOST       ANOP  ,
 001D5C                            13156  3 2735.     GNTST2         LABEL ,                       MUST BE EQUAL TO GNTST1
 001D5C                            13158  3 2736.                    DS    0S(GNTST1-GNTST2,GNTST2-GNTST1)  ERROR IF NE
 001D5C 4800 2000/1BFF       00000 13159  3 2737.                    DWRITE DSKBLK,ERR=GNERROR     -->If chkpnt write, DSK chng
 001D62 4D90 7136            00166 13169  3          +
 001D66 4BD0 63AE            01F9C 13171  3 2738.                    DIREST IX                     RESTORE BLK OFFSET, RET CODE
 001D6A 5810 D000            00000 13174  3          +
 001D6E                            13175  2 2739.                  END   ,                       OF TAKE OUT OF DATA-LINK
 001D6E                            13179  1 2740.                END   ,                       OF PART OF DATA LINK
 001D6E 6184           01D6E 01D30 13183  1 2741.                ELSE  BEGIN                   NOT PART OF DATA LINK
 001D6E 47F0 619C            01D8A 13188  1          +
 001D72 49E0 A0CA            000CA 13194  2 2742.                  IF    (R14,GE,FSBTXXLN),BEGIN ROOM FOR MORE
 001D76 4750 619C            01D8A 13206  2          +
 001D7A D201 200C 8012 0000C 00012 13211  3 2743.                    MVC   DSKBLINK,CHKNXDB        PUT CUR BLK AS HEAD OF LINK
 001D80 D201 8012 2002 00012 00002 13212  3 2744.                    MVC   CHKNXDB,DSKBNUM         |
 001D86 9620 200E      0000E       13213  3 2745.                    SET   DSKFDLNK                |
 001D8A                            13219  2 2746.                  END   ,                       OF ROOM FOR MORE
 001D8A                            13223  1 2747.                END   ,                       OF NOT PART OF DATA LINK
 001D8A 4131 2000            00000 13227  1 2748.                LA    NOD,DSKBLK(IX)          ADDRESS OF DATA RECORD
 001D8E 4000 3000            00000 13228  1 2749.                WITH  (NTRYXTND,NOD),'STH MIX,NTRYXLEN '       LEN OF XTND
 USING  NTRYXTND,R3
 DROP   NTRYXTND,R3
 001D92                            13252    2750.              END   ,                       OF GET A DATA NODE
 001D92 61A8           01D92 01BF2 13256    2751.              ELSE  BEGIN                   GET AN INDEX NODE
 001D92 47F0 6216            01E04 13261             +
1FILEVCAT (FILEVC) (09:45) (22MAR04) Get Node                                                                               Page  105
0Current Usings:  (DSKBLK,R2) (RQB,R5) (*,R6) (*,R7) (CHKPNT,R8) (FSB,R10)
0Loc    Object Code    Addr1 Addr2  Stmt Lv Lineno    Source Statement           (Hibal 5, Asmedit 3.3)  HLASM R4.0  2004/03/22 09.45
+___    ______ ____    _____ _____  ____ __ ______    ______ _________
0001D96 5890 639A/0D99       01F88 13267  1 2752.                GETBLOCK ERR=GNERROR          START A NEW BLOCK
 001D9C 4770 621C            01E0A 13280  1          +
 001DA0 9180 801C      0001C       13286  1 2753.                IF    CHKFACC,'LH R0,FSBNALEN '        LEN OF ACC NODE
 001DA4 47E0 61BE            01DAC 13296  1          +
 001DA8 4800 A0B2            000B2 13302  1          +
 001DAC 61C2           01DAC 01DA6 13307  1 2754.                ELSE  'LH R0,FSBNFLEN '       | (FILE)
 001DAC 47F0 61C6            01DB4 13312  1          +
 001DB0 4800 A0BE            000BE 13319  1          +
 001DB4 1812/5890 638A       01F78 13324  1 2755.                ALLOC (DSK),(R0),ERR=GNERROR  NODE FOR ROOT
 001DBA 0D99/4780 61E2       01DD0 13336  1          +
 001DC0 59F0 638E            01F7C 13358  1          +
 001DC4 4780 61E2            01DD0 13359  1          +
 001DC8 56F0 6392            01F80 13364  2          +
 001DCC 47F0 621C            01E0A 13365  1          +
 001DD0 4131 2000            00000 13370  1 2756.                LA    NOD,DSKBLK(R1)          ADDRESSABILITY TO NEW NODE
 USING  NODE,R3                    13371  1 2757.                WITH  (NODE,NOD),BEGIN        |
 001DD4 4000 3000            00000 13385  2 2758.                  STH   R0,NODLEN               SAVE SIZE
 001DD8 41F0 3008            00008 13386  2 2759.                  LA    PTR,NODNTRYS            ADDRESSABILITY TO ENTRIES
 USING  NTRY,R15                   13387  2 2760.                  WITH  (NTRY,PTR),BEGIN        |
 001DDC                            13401  3 2761.                    MVC   NTRY(1),=&L.AL1(NIL)    NIL 1ST ENTRY
 001DDC D200 F000 6396 00000 01F84        3          +
 001DE2 D204 F001 F000 00001 00000 13402  3 2762.                    MVC   NTRY+1(CNODNLLN-1),NTRY |
 DROP   NTRY,R15                   13403  2 2763.                  END   ,                       OF ADDRESSABILITY TO ENTRIES
 001DE8 9180 801C      0001C       13411  2 2764.                  IF    CHKFACC,BEGIN           INIT A NEW ACCOUNT NODE
 001DEC 47E0 620C            01DFA 13421  2          +
 001DF0 9680 3006      00006       13426  3 2765.                    SET   NODFACC
 001DF4 D201 3004 A0B4 00004 000B4 13432  3 2766.                    MVC   NODSPACE,FSBNASPA
 001DFA                            13433  2 2767.                  END   ,                       OF INIT A NEW ACCOUNT NODE
 001DFA 6210           01DFA 01DEE 13437  2 2768.                  ELSE  BEGIN                   INIT A NEW FILE NODE
 001DFA 47F0 6216            01E04 13442  2          +
 001DFE D201 3004 A0C0 00004 000C0 13448  3 2769.                    MVC   NODSPACE,FSBNFSPA
 001E04                            13449  2 2770.                  END   ,                       OF INIT A NEW FILE NODE
 DROP   NODE,R3                    13453  1 2771.                END   ,                       OF ADDRESSABILITY TO ENTRIES
 001E04                            13461    2772.              END   ,                       OF GET AN INDEX NODE
 001E04 4800 2002            00002 13465    2773.              LH    R0,DSKBNUM              BLOCK NUMBER
 001E08 1BFF                       13466    2774.              CLEAR R15
 001E0A 4BD0 63B0            01F9E 13470    2775.     GNERROR  DIREST FBR,RAR
 001E0E 5860 D000            00000 13474             +
 001E12 5890 D004            00004 13475             +
 001E16 12FF                       13476    2776.              LTR   R15,R15
 001E18 07F9                       13477    2777.              BR    RAR
1FILEVCAT (FILEVC) (09:45) (22MAR04) Allocate a new block                                                                   Page  106
0Current Usings:  (DSKBLK,R2) (RQB,R5) (*,R6) (*,R7) (CHKPNT,R8) (FSB,R10)
0Loc    Object Code    Addr1 Addr2  Stmt Lv Lineno    Source Statement           (Hibal 5, Asmedit 3.3)  HLASM R4.0  2004/03/22 09.45
+___    ______ ____    _____ _____  ____ __ ______    ______ _________
0                                  13479    2779.     *********************************************************************
                                   13480    2780.     * ON ENTRY: Calling routine must have saved the old free block      *
                                   13481    2781.     *             pointer its own intentions block before calling this  *
                                   13482    2782.     *             routine                                               *
                                   13483    2783.     * ON EXIT:  IF CC = 0                                               *
                                   13484    2784.     *             R0  = Number of allocated block                       *
                                   13485    2785.     *             DSK = Buffer that contains block                      *
                                   13486    2786.     *           IF CC ~ 0                                               *
                                   13487    2787.     *             R14 conatains the PSW at error detection              *
                                   13488    2788.     *             The 2nd low order byte of R15 indicates the module    *
                                   13489    2789.     *               in which the error occured.                         *
                                   13490    2790.     *             The low order byte of R15 contains the error code for *
                                   13491    2791.     *               that module.                                        *
                                   13492    2792.     *********************************************************************
 001E1A 5090 D000            00000 13493    2793.     GETBLOCK DIRSAV RAR
 001E1E 41D0 D004            00004 13497             +
 001E22                            13498    2794.              IF    ('CLC CHKFREB(BL),=&L.AL1(NIL)',EQ),BEGIN
 001E22 D501 8010 6396 00010 01F84 13505             +
 001E28 4770 6246            01E34 13506             +
 001E2C 41F0 001C            0001C 13511  1 2795.                LA    R15,DIRNMR
 001E30 4DE0 6288            01E76 13512  1 2796.                BAS   R14,GBERROR
 001E34                            13513    2797.              END   ,
 001E34 4800 8010/1BFF       00010 13517    2798.              DREAD CHKFREB,ERR=GBERROR
 001E3A 4D90 7032            00062 13527             +
                                   13529    2799.
 001E3E 4800 8010            00010 13530    2800.              LH    R0,CHKFREB              INIT DISK BLOCK
 001E42 D201 8010 200C 00010 0000C 13531    2801.              MVC   CHKFREB,DSKBLINK        | (POINTER TO NEXT BLOCK)
 001E48 5890 63A2/0D99       01F90 13532    2802.              DSKINIT (R0),(DSK)            |
                                   13545    2803.
 001E4E 4800 2002            00002 13546    2804.              LH    R0,DSKBNUM              NEW BLOCK NUMBER
 001E52 4840 800E/0640       0000E 13547    2805.              DECR  QR,CHKFBNO              ONE LESS FREE BLOCK
 001E58 4040 800E            0000E 13551             +
 001E5C 4940 A0CC            000CC 13552    2806.              IF    (QR,LE,FSBLOGFR),BEGIN  LOGICALLY FULL
 001E60 4730 6286            01E74 13564             +
 001E64 9608 A009      00009       13569  1 2807.                SET   FSBCATNIN               NO MORE INSERTS
 001E68 4940 A0CE            000CE 13575  1 2808.                IF    (QR,LE,FSBMNFRE),BEGIN  ROCK BOTTOM FULL
 001E6C 4730 6286            01E74 13587  1          +
 001E70 9604 A009      00009       13592  2 2809.                  SET   FSBCATNLM               NO MORE LenMod ACCESS
 001E74                            13598  1 2810.                END   ,                       OF ROCK BOTTOM FULL
 001E74                            13602    2811.              END   ,                       OF LOGICALLY FULL
 001E74 1BFF                       13606    2812.              CLEAR R15                     SET RETURN CODE
 001E76 4BD0 63AE            01F9C 13610    2813.     GBERROR  DIREST RAR
 001E7A 5890 D000            00000 13614             +
 001E7E 12FF                       13615    2814.              LTR   R15,R15
 001E80 07F9                       13616    2815.              BR    RAR
1FILEVCAT (FILEVC) (09:45) (22MAR04) Release Node                                                                           Page  107
0Current Usings:  (DSKBLK,R2) (RQB,R5) (*,R6) (*,R7) (CHKPNT,R8) (FSB,R10)
0Loc    Object Code    Addr1 Addr2  Stmt Lv Lineno    Source Statement           (Hibal 5, Asmedit 3.3)  HLASM R4.0  2004/03/22 09.45
+___    ______ ____    _____ _____  ____ __ ______    ______ _________
0                                  13618    2817.     *********************************************************************
                                   13619    2818.     * ON ENTRY: R1 Must contain the block buffer start address          *
                                   13620    2819.     *           R15 Must contain the address (relative to the           *
                                   13621    2820.     *                    start of the block) of the area to be linked   *
                                   13622    2821.     *           R0 Must contain size of area to be linked               *
                                   13623    2822.     *           CHKFACC indicates whether the request is for an account *
                                   13624    2823.     *             node or a file node                                   *
                                   13625    2824.     * ON EXIT:  DSK = Block buffer start address                        *
                                   13626    2825.     *           IF CC = 0                                               *
                                   13627    2826.     *             Specified node is released, and corresponding space   *
                                   13628    2827.     *               management chains are updated                       *
                                   13629    2828.     *           IF CC ~ 0                                               *
                                   13630    2829.     *             R14 contains the PSW at error detection               *
                                   13631    2830.     *             The 2nd low order byte of R15 indicates the module    *
                                   13632    2831.     *               in which the error occured.                         *
                                   13633    2832.     *             The low order byte of R15 contains the error code for *
                                   13634    2833.     *               that module.                                        *
                                   13635    2834.     *********************************************************************
 001E82 5060 D000            00000 13636    2835.     RELNODE  DIRENT FBR,RAR
 001E86 5090 D004            00004 13641             +
 001E8A 41D0 D008/0D60       00008 13642             +
 001E90 5890 6104/0D99       01F94 13660    2836.              DSKFREE ,
 DROP   *,R6
 USING  *,R6
 001E96 4780 6012            01EA2 13666    2837.              IF    NZ,BEGIN                DSKFREE ERROR
 001E9A 56F0 6108            01F98 13677  1 2838.                O     R15,=A(CDIRDFM)         OR IN DSKFREE MODULE NUMBER
 001E9E 47F0 60D8            01F68 13678  1 2839.                B     RNERROR
 001EA2                            13679    2840.              END   ,                       OF DSKFREE ERROR
 001EA2 49E0 A0AE            000AE 13683    2841.              IF    (R14,EQ,FSBDAVA),BEGIN  BLOCK IS EMPTY
 001EA6 4770 60AA            01F3A 13695             +
 001EAA 94EF 200E      0000E       13700  1 2842.                CLEAR DSKFDATA                |
                                   13707  1 2843.     *               Empty block not in a linked list
 001EAE 9120 200E      0000E       13708  1 2844.                IF    ~DSKFDLNK,BEGIN
 001EB2 4710 605A            01EEA 13718  1          +
 001EB6 947F 200E      0000E       13723  2 2845.                  CLEAR DSKFINIT                FREE = SPACE MGMT NOT INIT
 001EBA D201 200C 8010 0000C 00010 13730  2 2846.                  MVC   DSKBLINK,CHKFREB   LINK BLOCK INTO FREE BLOCK CHAIN
 001EC0 D201 8010 2002 00010 00002 13731  2 2847.                  MVC   CHKFREB,DSKBNUM         |
 001EC6 4140 0001            00001 13732  2 2848.                  INCR  QR,CHKFBNO              | ONE MORE FREE BLOCK
 001ECA 4A40 800E            0000E 13736  2          +
 001ECE 4040 800E            0000E 13737  2          +
 001ED2 4940 A0CE            000CE 13738  2 2849.                  IF    (QR,GT,FSBMNFRE),BEGIN  ALLOW DELETE ACCESS
 001ED6 47D0 605A            01EEA 13750  2          +
 001EDA 94FB A009      00009       13755  3 2850.                    CLEAR FSBCATNLM
 001EDE 4940 A0CC            000CC 13762  3 2851.                    IF    (QR,GT,FSBLOGFR),BEGIN  ALLOW INSERT ACCESS TOO
 001EE2 47D0 605A            01EEA 13774  3          +
 001EE6 94F7 A009      00009       13779  4 2852.                      CLEAR FSBCATNIN
 001EEA                            13786  3 2853.                    END   ,                       OF ALLOW INSERT ACCESS
 001EEA                            13790  2 2854.                  END   ,                       OF ALLOW DELETE ACCESS
 001EEA                            13794  1 2855.                END   ,                  OF EMPTY BLOCK NOT IN A LINKED LIST
                                   13798  1 2856.     *               First element of data linked list
 001EEA 605E           01EEA 01EB4 13799  1 2857.                ELSEIF (DSKFDLNK,AND,(DSKBNUM,EQ,CHKNXDB)),BEGIN
 001EEA 47F0 60AA            01F3A 13805  1          +
 001EEE 9120 200E      0000E       13819  1          +
 001EF2 47E0 60AA            01F3A 13820  1          +
1FILEVCAT (FILEVC) (09:45) (22MAR04) Release Node                                                                           Page  108
0Current Usings:  (DSKBLK,R2) (RQB,R5) (*,R6) (*,R7) (CHKPNT,R8) (FSB,R10)
0Loc    Object Code    Addr1 Addr2  Stmt Lv Lineno    Source Statement           (Hibal 5, Asmedit 3.3)  HLASM R4.0  2004/03/22 09.45
+___    ______ ____    _____ _____  ____ __ ______    ______ _________
0001EF6 D501 2002 8012 00002 00012 13834  1          +
 001EFC 4770 60AA            01F3A 13835  1          +
 001F00 D201 8012 200C 00012 0000C 13840  2 2858.                  MVC   CHKNXDB,DSKBLINK        TAKEN OUT OF DATA LIST
 001F06 945F 200E      0000E       13841  2 2859.                  CLEAR DSKFDLNK*DSKFINIT       | FREE = SPACE MGMT NOT INIT
 001F0A D201 200C 8010 0000C 00010 13851  2 2860.                  MVC   DSKBLINK,CHKFREB   LINK BLOCK INTO FREE BLOCK CHAIN
 001F10 D201 8010 2002 00010 00002 13852  2 2861.                  MVC   CHKFREB,DSKBNUM         |
 001F16 4140 0001            00001 13853  2 2862.                  INCR  QR,CHKFBNO              | ONE MORE FREE BLOCK
 001F1A 4A40 800E            0000E 13857  2          +
 001F1E 4040 800E            0000E 13858  2          +
 001F22 4940 A0CE            000CE 13859  2 2863.                  IF    (QR,GT,FSBMNFRE),BEGIN  ALLOW DELETE ACCESS
 001F26 47D0 60AA            01F3A 13871  2          +
 001F2A 94FB A009      00009       13876  3 2864.                    CLEAR FSBCATNLM
 001F2E 4940 A0CC            000CC 13883  3 2865.                    IF    (QR,GT,FSBLOGFR),BEGIN  ALLOW INSERT ACCESS TOO
 001F32 47D0 60AA            01F3A 13895  3          +
 001F36 94F7 A009      00009       13900  4 2866.                      CLEAR FSBCATNIN
 001F3A                            13907  3 2867.                    END   ,                       OF ALLOW INSERT ACCESS
 001F3A                            13911  2 2868.                  END   ,                       OF ALLOW DELETE ACCESS
 001F3A                            13915  1 2869.                END   ,                  OF FIRST ELEMENT OF DATA LINKED LIST
 001F3A                            13919    2870.              END   ,                       OF BLOCK IS EMPTY
                                   13923    2871.     *               If block is not empty and not in linked list already,
                                   13924    2872.     *                 link into data block chain
 001F3A 60AE           01F3A 01EA8 13925    2873.              ELSEIF (DSKFDATA,AND,~DSKFDLNK,AND,(R14,GE,FSBTXXLN)),BEGIN
 001F3A 47F0 60D6            01F66 13931             +
 001F3E 9110 200E      0000E       13945             +
 001F42 47E0 60D6            01F66 13946             +
 001F46 9120 200E      0000E       13957             +
 001F4A 4710 60D6            01F66 13958             +
 001F4E 49E0 A0CA            000CA 13971             +
 001F52 4750 60D6            01F66 13972             +
                                   13977  1 2874.     *          Currently, the only blocks that would have any space left
                                   13978  1 2875.     *        in them are extended data blocks.  Both account and file
                                   13979  1 2876.     *        index nodes take up a whole block.  But it doesn't hurt
                                   13980  1 2877.     *        to check that the block is for extended data anyway.
 001F56 D201 200C 8012 0000C 00012 13981  1 2878.                MVC   DSKBLINK,CHKNXDB        LINK INTO DATA BLOCK CHAIN
 001F5C D201 8012 2002 00012 00002 13982  1 2879.                MVC   CHKNXDB,DSKBNUM         |
 001F62 9620 200E      0000E       13983  1 2880.                SET   DSKFDLNK                NOW IT'S IN DATA LIST
 001F66                            13989    2881.              END   ,    OF BLOCK NOT EMPTY AND NOT IN LINKED LIST
 001F66 1BFF                       13993    2882.              CLEAR R15
 001F68 4BD0 610E            01F9E 13997    2883.     RNERROR  DIREST FBR,RAR
 001F6C 5860 D000            00000 14001             +
 001F70 5890 D004            00004 14002             +
 001F74 12FF                       14003    2884.              LTR   R15,R15
 001F76 07F9                       14004    2885.              BR    RAR
 001F78                            14005    2886.              LTORG ,
 001F78 0000381A                   14007                             =A(DSKGET)
 001F7C 00000004                   14008                             =A(CDSKSERR)
 001F80 00000200                   14009                             =A(CDIRDGM)
 001F84 FFFFFFFF                   14010                             =4AL1(NIL)
 001F88 00001E1A                   14011                             =A(GETBLOCK)
 001F8C 00000000                   14012                             =V(VKAPUT)
 001F90 00003798                   14013                             =A(DSKINIT)
 001F94 00003946                   14014                             =A(DSKFREE)
 001F98 00000300                   14015                             =A(CDIRDFM)
 001F9C 0004                       14016                             =Y(1*4)
1FILEVCAT (FILEVC) (09:45) (22MAR04) Release Node                                                                           Page  109
0Current Usings:  (DSKBLK,R2) (RQB,R5) (*,R6) (*,R7) (CHKPNT,R8) (FSB,R10)
0Loc    Object Code    Addr1 Addr2  Stmt Lv Lineno    Source Statement           (Hibal 5, Asmedit 3.3)  HLASM R4.0  2004/03/22 09.45
+___    ______ ____    _____ _____  ____ __ ______    ______ _________
0001F9E 0008           01FA0 046CB 14017                             =Y(2*4)
1FILEVCAT (FILEVC) (09:45) (22MAR04) Node Balance                                                                           Page  110
0Current Usings:  (DSKBLK,R2) (RQB,R5) (*,R6) (*,R7) (CHKPNT,R8) (FSB,R10)
0Loc    Object Code    Addr1 Addr2  Stmt Lv Lineno    Source Statement           (Hibal 5, Asmedit 3.3)  HLASM R4.0  2004/03/22 09.45
+___    ______ ____    _____ _____  ____ __ ______    ______ _________
0                                  14022    2888.     *********************************************************************
                                   14023    2889.     * ON ENTRY:                                                         *
                                   14024    2890.     *   NOD, DSK (registers), CHKCURA/B/N and CHKPARA/B/N point to      *
                                   14025    2891.     *    the node that caused call and its parent respectively          *
                                   14026    2892.     * DURING PROCEDURE:                                                 *
                                   14027    2893.     *   CHKNODN contains the number of nodes to work with               *
                                   14028    2894.     *   CHKSPAC contains the number of free bytes within those nodes    *
                                   14029    2895.     * ON EXIT:                                                          *
                                   14030    2896.     *   IF R15 = 0                                                      *
                                   14031    2897.     *     FSB pointers point to the parent of the original current      *
                                   14032    2898.     *       node as the point to continue searching                     *
                                   14033    2899.     *     DSK (register) points to the parent's (now current) buf addr  *
                                   14034    2900.     *     NOD (register) points to the parent (now current) node        *
                                   14035    2901.     *   IF R15 ~ 0                                                      *
                                   14036    2902.     *     R14 conatains the PSW at error detection                      *
                                   14037    2903.     *     The 2nd low order byte of R15 indicates the module            *
                                   14038    2904.     *       in which the error occured.                                 *
                                   14039    2905.     *     The low order byte of R15 contains the error code for         *
                                   14040    2906.     *       that module.                                                *
                                   14041    2907.     *     If the error is not catastrophic, (like no-more-room), then   *
                                   14042    2908.     *       the blocks in the buffer space should be invalidated to     *
                                   14043    2909.     *       indicate that they no longer contain the most recent and    *
                                   14044    2910.     *       correct copy of those blocks.  Then the routines may        *
                                   14045    2911.     *       continue to process other requests                          *
                                   14046    2912.     *********************************************************************
 USING  NODE,R3                    14047    2913.              USING NODE,NOD
 001FA0 5060 D000            00000 14056    2914.     NODBAL   DIRENT FBR,RAR                BALANCE 1 TO 3 NODES
 001FA4 5090 D004            00004 14061             +
 001FA8 41D0 D008/0D60       00008 14062             +
 001FAE D205 8114 800E 00114 0000E 14080    2915.              MVC   CHKICHAN,CHKCHAIN       OLD CHAIN POINTERS
 DROP   *,R6
 USING  *,R6
 001FB4 94F8 801C      0001C       14081    2916.              CLEAR CHKFLEAF+CHKFLFTU+CHKFRHTU
 001FB8 943F 801D      0001D       14095    2917.              CLEAR CHKFBAL+CHKF3BAL
 001FBC 4800 8034            00034 14105    2918.              DLOKBUF CHKCURB,ERR=NBERROR   LOCK IN CURRENT BLOCK
 001FC0 4D90 71F8            00228 14111             +
 001FC4 9640 200E      0000E       14113    2919.              SET   DSKFMOD                 BLOCK WILL BE MOD
 001FC8 D203 8064 8034 00064 00034 14119    2920.              MVC   CHKBALB(PL),CHKCURB     NODE THAT CAUSED BAL CALL
 001FCE 4830 8036            00036 14120    2921.              LH    NOD,CHKCURN             ADDR TO CURRENT NODE
 001FD2 4133 2000            00000 14121    2922.              LA    NOD,DSKBLK(NOD)         |
 001FD6 41E0 0001            00001 14122    2923.              LA    CNT,1                   ONE NODE TO BALANCE SO FAR
 001FDA 40E0 80B0            000B0 14123    2924.              STH   CNT,CHKNODN             |
 001FDE D201 80AE 3004 000AE 00004 14124    2925.              MVC   CHKSPAC,NODSPACE        SPACE COUNT IN FIRST NODE
 001FE4 9120 3006      00006       14125    2926.              IF    ~NODFTRT,BEGIN          NOT AT TREE ROOT
 001FE8 4710 621E            021CC 14135             +
 001FEC 4800 8024            00024 14140  1 2927.                DLOKBUF CHKPARB,ERR=NBERROR
 001FF0 4D90 71F8            00228 14146  1          +
 001FF4 9640 200E      0000E       14148  1 2928.                SET   DSKFMOD                 BLOCK WILL BE MOD
 001FF8 4830 8026            00026 14154  1 2929.                LH    NOD,CHKPARN             ADDR TO PAR NODE
 001FFC 4133 2000            00000 14155  1 2930.                LA    NOD,DSKBLK(NOD)         |
 002000                            14156  1 2931.                IF    (NODNTNUM,GE,2),'SET CHKF3BAL'   AT LEAST 3 OFFSPRING
 002000 D501 6DD6 3002 02D84 00002 14168  1          +
 002006 4730 6060            0200E 14169  1          +
 00200A 9640 801D      0001D       14180  1          +
1FILEVCAT (FILEVC) (09:45) (22MAR04) Node Balance                                                                           Page  111
0Current Usings:  (DSKBLK,R2) (NODE,R3) (RQB,R5) (*,R6) (*,R7) (CHKPNT,R8) (FSB,R10)
0Loc    Object Code    Addr1 Addr2  Stmt Lv Lineno    Source Statement           (Hibal 5, Asmedit 3.3)  HLASM R4.0  2004/03/22 09.45
+___    ______ ____    _____ _____  ____ __ ______    ______ _________
000200E 5840 6DB2            02D60 14185  1 2932.                L     QR,=&L.AL1(NIL)         SET ENTRY TO LEFT = <NIL>
 002012 1804                       14186  1 2933.                LR    MIX,QR                  | 2 TO LEFT = <NIL> ALSO
 002014 4110 3008            00008 14187  1 2934.                LA    IX,NODNTRYS
 USING  NTRY,R1                    14188  1 2935.                WITH  (NTRY,IX),BEGIN         ADDR TO ENTRYS
 002018 D503 1002 8034 00002 00034 14202  2 2936.     NBCLOOK      CLC   NTRYOFFB(PL),CHKCURB
 00201E 4780 6098            02046 14203  2 2937.                  IF    NE,BEGIN                NOT AT CUR YET
 002022 1804                       14214  3 2938.                    LR    MIX,QR                  ADV 2ND PREV
 002024 1841                       14215  3 2939.                    LR    QR,IX                   | AND PREV
 002026                            14216  3 2940.                    CLC   NTRYLEN,=&L.AL1(NIL)
 002026 D501 1000 6DB2 00000 02D60        3          +
 00202C 4770 6090            0203E 14217  3 2941.                    IF    EQ,BEGIN                CUR NOT FOUND IN PARENT
 002030 5890 6DB6/0D99       02D64 14228  4 2942.                      ABORT  CATNOPAR               CUR NOT IN PAR ERROR
 002036 C3C1E3D5D6D7C1D9           14233  4          +
 00203E                            14234  3 2943.                    END   ,                       OF CUR NOT FOUND IN PARENT
 00203E 4A10 1000            00000 14238  3 2944.                    AH    IX,NTRYLEN              | AND CURRENT
 002042 47F0 606A            02018 14239  3 2945.                    B     NBCLOOK
 002046                            14240  2 2946.                  END   ,                       OF NOT AT CUR YET
 002046 5040 8090            00090 14244  2 2947.                  ST    QR,CHKBLPA              Left Parent Address
 00204A                            14245  2 2948.                  CLC   NTRYLEN,=&L.AL1(NIL)
 00204A D501 1000 6DB2 00000 02D60        2          +
 002050 4770 60F8            020A6 14246  2 2949.                  IF    EQ,BEGIN                CUR IS LAST ENTRY
 002054 9140 801D      0001D       14257  3 2950.                    IF    CHKF3BAL,BEGIN     AT LEAST 3 SIBLING NODES IN BALANCE
 002058 47E0 60EE            0209C 14267  3          +
 00205C D207 8038 8030 00038 00030 14272  4 2951.                      MVC   CHKRHTP,CHKCURP         MAKE CURRENT RIGHT
 002062 1814                       14273  4 2952.                      LR    IX,QR                   MAKE CUR 1 TO LEFT
 002064 1840                       14274  4 2953.                      LR    QR,MIX                  MAKE LFT 2 TO LEFT
 002066 D203 8034 1002 00034 00002 14275  4 2954.                      MVC   CHKCURB(PL),NTRYOFFB
 00206C 5040 8090            00090 14276  4 2955.                      ST    QR,CHKBLPA              Left Parent Address
 002070 4140 0001            00001 14277  4 2956.                      INCR  QR,FSBCTBRD             CATALOG BALANCE READ
 002074 5E40 A100            00100 14281  4          +
 002078 5040 A100            00100 14282  4          +
 00207C 4800 8034            00034 14283  4 2957.                      DREAD CHKCURB,LOCK=YES,PTR=CUR,ERR=NBERROR
 002080 41F0 0001            00001 14288  4          +
 002084 4D90 7032            00062 14290  4          +
 002088 5020 8030            00030 14292  4          +
 00208C 9640 200E      0000E       14293  4 2958.                      SET   DSKFMOD                 BLOCK WILL BE MOD
 002090 4830 8036            00036 14299  4 2959.                      LH    NOD,CHKCURN             ADDR TO CUR NODE (NEW)
 002094 4133 2000            00000 14300  4 2960.                      LA    NOD,DSKBLK(NOD)         |
 002098 9601 801C      0001C       14301  4 2961.                      SET   CHKFRHTU                INDICATE RIGHT IN BALANCE
 00209C                            14307  3 2962.                    END   ,                  OF AT LEAST 3 SIBLING NODES IN BAL
 00209C 60F2           0209C 0205A 14311  3 2963.                    ELSE  BEGIN                   NOT AT LEAST 3 IN BAL
 00209C 47F0 60F8            020A6 14316  3          +
 0020A0                            14322  4 2964.                      MVC   CHKRHTB(PL),=&L.AL1(NIL)
 0020A0 D203 803C 6DB2 0003C 02D60        4          +
 0020A6                            14323  3 2965.                    END   ,                       OF NOT AT LEAST 3 IN BAL
 0020A6 60FC           020A6 02052 14327  2 2966.                  END   ELSE,BEGIN              CUR ISN'T LAST ENTRY
 0020A6 47F0 6138            020E6 14336  2          +
 0020AA 18F1                       14342  3 2967.                    LR    PTR,IX                  ADDR TO NEXT ENTRY
 0020AC 4AF0 1000            00000 14343  3 2968.                    AH    PTR,NTRYLEN             |
 USING  NTRY,R15                   14344  3 2969.                    WITH (NTRY,PTR),'MVC CHKRHTB(PL),NTRYOFFB'
 0020B0 D203 803C F002 0003C 00002 14359  3          +
 DROP   NTRY,R15
 0020B6 5040 8090            00090 14368  3 2970.                    ST    QR,CHKBLPA              Left Parent Address
 0020BA 4140 0001            00001 14369  3 2971.                    INCR  QR,FSBCTBRD             CATALOG BALANCE READ
1FILEVCAT (FILEVC) (09:45) (22MAR04) Node Balance                                                                           Page  112
0Current Usings:  (NTRY,R1) (DSKBLK,R2) (NODE,R3) (RQB,R5) (*,R6) (*,R7) (CHKPNT,R8) (FSB,R10)
0Loc    Object Code    Addr1 Addr2  Stmt Lv Lineno    Source Statement           (Hibal 5, Asmedit 3.3)  HLASM R4.0  2004/03/22 09.45
+___    ______ ____    _____ _____  ____ __ ______    ______ _________
00020BE 5E40 A100            00100 14373  3          +
 0020C2 5040 A100            00100 14374  3          +
 0020C6 4800 803C            0003C 14375  3 2972.                    DREAD CHKRHTB,LOCK=YES,PTR=RHT,ERR=NBERROR
 0020CA 41F0 0001            00001 14380  3          +
 0020CE 4D90 7032            00062 14382  3          +
 0020D2 5020 8038            00038 14384  3          +
 0020D6 9640 200E      0000E       14385  3 2973.                    SET   DSKFMOD                 BLOCK WILL BE MOD
 0020DA 4830 803E            0003E 14391  3 2974.                    LH    NOD,CHKRHTN             ADDR TO RIGHT NODE (NEW)
 0020DE 4133 2000            00000 14392  3 2975.                    LA    NOD,DSKBLK(NOD)         |
 0020E2 9601 801C      0001C       14393  3 2976.                    SET   CHKFRHTU                INDICATE RIGHT IN BALANCE
 0020E6                            14399  2 2977.                  END   ,                       OF CUR ISN'T LAST ENTRY
 0020E6 9101 801C      0001C       14403  2 2978.                  IF    CHKFRHTU,BEGIN          RIGHT IN BALANCE
 0020EA 47E0 6158            02106 14413  2          +
 0020EE 41E0 0001            00001 14418  3 2979.                    INCR  CNT,CHKNODN             ONE MORE NODE IN BALANCE
 0020F2 4AE0 80B0            000B0 14422  3          +
 0020F6 40E0 80B0            000B0 14423  3          +
 0020FA 48E0 80AE            000AE 14424  3 2980.                    LH    CNT,CHKSPAC             UPDATE SPACE FIELD FOR BALANCE
 0020FE 4AE0 3004            00004 14425  3 2981.                    AH    CNT,NODSPACE            |
 002102 40E0 80AE            000AE 14426  3 2982.                    STH   CNT,CHKSPAC             |
 002106                            14427  2 2983.                  END   ,                       OF RIGHT IN BALANCE
 002106 5810 8090            00090 14431  2 2984.                  L     IX,CHKBLPA              LEFT PARENT NODE
 00210A 5910 6DB2            02D60 14432  2 2985.                  C     IX,=&L.AL1(NIL)
 00210E 4770 61C8            02176 14433  2 2986.                  IF    EQ,BEGIN                CUR IS FIRST ENTRY
 002112 9140 801D      0001D       14444  3 2987.                    IF    CHKF3BAL,BEGIN          AT LEAST 3 NODES IN BALANCE
 002116 47E0 61BE            0216C 14454  3          +
 00211A D207 8028 8030 00028 00030 14459  4 2988.                      MVC   CHKLFTP,CHKCURP         MAKE CUR LEFT
 002120 D207 8030 8038 00030 00038 14460  4 2989.                      MVC   CHKCURP,CHKRHTP         MAKE RIGHT CUR
 002126 4830 8026            00026 14461  4 2990.                      LH    NOD,CHKPARN             ADDR TO FIRST PAR ENTRY
 00212A 5E30 8020            00020 14462  4 2991.                      AL    NOD,CHKPARA             |
 00212E 4110 3008            00008 14463  4 2992.                      LA    IX,NODNTRYS             |
 002132 4A10 1000            00000 14464  4 2993.                      AH    IX,NTRYLEN              RIGHT WILL BE 3RD ENTRY
 002136 4A10 1000            00000 14465  4 2994.                      AH    IX,NTRYLEN              |
 00213A D203 803C 1002 0003C 00002 14466  4 2995.                      MVC   CHKRHTB(PL),NTRYOFFB
 002140 4140 0001            00001 14467  4 2996.                      INCR  QR,FSBCTBRD             CATALOG BALANCE READ
 002144 5E40 A100            00100 14471  4          +
 002148 5040 A100            00100 14472  4          +
 00214C 4800 803C            0003C 14473  4 2997.                      DREAD CHKRHTB,LOCK=YES,PTR=RHT,ERR=NBERROR
 002150 41F0 0001            00001 14478  4          +
 002154 4D90 7032            00062 14480  4          +
 002158 5020 8038            00038 14482  4          +
 00215C 9640 200E      0000E       14483  4 2998.                      SET   DSKFMOD                 BLOCK WILL BE MOD
 002160 4830 803E            0003E 14489  4 2999.                      LH    NOD,CHKRHTN             ADDR TO RIGHT NODE (NEW)
 002164 4133 2000            00000 14490  4 3000.                      LA    NOD,DSKBLK(NOD)         |
 002168 9602 801C      0001C       14491  4 3001.                      SET   CHKFLFTU                INDICATE LEFT IN BALANCE
 00216C 61C2           0216C 02118 14497  3 3002.                    END   ELSE,BEGIN              NOT AT LEAST 3 NODES IN BALANCE
 00216C 47F0 61C8            02176 14506  3          +
 002170                            14512  4 3003.                      MVC   CHKLFTB(PL),=&L.AL1(NIL)
 002170 D203 802C 6DB2 0002C 02D60        4          +
 002176                            14513  3 3004.                    END   ,                  OF NOT AT LEAST 3 NODES IN BALANCE
 002176 61CC           02176 02110 14517  2 3005.                  END   ELSE,BEGIN              CUR ISN'T FIRST ENTRY
 002176 47F0 61FE            021AC 14526  2          +
 00217A D203 802C 1002 0002C 00002 14532  3 3006.                    MVC   CHKLFTB(PL),NTRYOFFB
 002180 4140 0001            00001 14533  3 3007.                    INCR  QR,FSBCTBRD             CATALOG BALANCE READ
 002184 5E40 A100            00100 14537  3          +
1FILEVCAT (FILEVC) (09:45) (22MAR04) Node Balance                                                                           Page  113
0Current Usings:  (NTRY,R1) (DSKBLK,R2) (NODE,R3) (RQB,R5) (*,R6) (*,R7) (CHKPNT,R8) (FSB,R10)
0Loc    Object Code    Addr1 Addr2  Stmt Lv Lineno    Source Statement           (Hibal 5, Asmedit 3.3)  HLASM R4.0  2004/03/22 09.45
+___    ______ ____    _____ _____  ____ __ ______    ______ _________
0002188 5040 A100            00100 14538  3          +
 00218C 4800 802C            0002C 14539  3 3008.                    DREAD CHKLFTB,LOCK=YES,PTR=LFT,ERR=NBERROR
 002190 41F0 0001            00001 14544  3          +
 002194 4D90 7032            00062 14546  3          +
 002198 5020 8028            00028 14548  3          +
 00219C 9640 200E      0000E       14549  3 3009.                    SET   DSKFMOD                 BLOCK WILL BE MOD
 0021A0 4830 802E            0002E 14555  3 3010.                    LH    NOD,CHKLFTN             ADDR TO LEFT NODE (NEW)
 0021A4 4133 2000            00000 14556  3 3011.                    LA    NOD,DSKBLK(NOD)         |
 0021A8 9602 801C      0001C       14557  3 3012.                    SET   CHKFLFTU                INDICATE LEFT IN BALANCE
 0021AC                            14563  2 3013.                  END   ,                       OF CUR ISN'T FIRST ENTRY
 0021AC 9102 801C      0001C       14567  2 3014.                  IF    CHKFLFTU,BEGIN          LEFT IN BALANCE
 0021B0 47E0 621E            021CC 14577  2          +
 0021B4 41E0 0001            00001 14582  3 3015.                    INCR  CNT,CHKNODN             ONE MORE NODE IN BALANCE
 0021B8 4AE0 80B0            000B0 14586  3          +
 0021BC 40E0 80B0            000B0 14587  3          +
 0021C0 48E0 80AE            000AE 14588  3 3016.                    LH    CNT,CHKSPAC             UPDATE SPACE FIELD FOR BALANCE
 0021C4 4AE0 3004            00004 14589  3 3017.                    AH    CNT,NODSPACE            |
 0021C8 40E0 80AE            000AE 14590  3 3018.                    STH   CNT,CHKSPAC             |
 0021CC                            14591  2 3019.                  END   ,                       OF LEFT IN BALANCE
 DROP   NTRY,R1                    14595  1 3020.                END   ,                       OF ADDR TO ENTRYS
 0021CC                            14603    3021.              END   ,                       OF NOT AT TREE ROOT
1FILEVCAT (FILEVC) (09:45) (22MAR04) Node Balance - New nodes                                                               Page  114
0Current Usings:  (DSKBLK,R2) (NODE,R3) (RQB,R5) (*,R6) (*,R7) (CHKPNT,R8) (FSB,R10)
0Loc    Object Code    Addr1 Addr2  Stmt Lv Lineno    Source Statement           (Hibal 5, Asmedit 3.3)  HLASM R4.0  2004/03/22 09.45
+___    ______ ____    _____ _____  ____ __ ______    ______ _________
0                                  14608    3023.     *********************************************************************
                                   14609    3024.     *   Space needed to avoid split                                     *
                                   14610    3025.     *   3 nodes: if central space needed is <= min space of entry       *
                                   14611    3026.     *       needed space: (5*max_entry)+(5*max_diff)-2                  *
                                   14612    3027.     *   3 nodes: if central space needed is > min space of entry        *
                                   14613    3028.     *       needed space: (6*max_entry)+(6*max_diff)-(2*min)-2          *
                                   14614    3029.     *   2 nodes: if central space needed is <= min space of entry       *
                                   14615    3030.     *       needed space: (3*max_entry)+(2*max_diff)-1                  *
                                   14616    3031.     *   2 nodes: if central space needed is > min space of entry        *
                                   14617    3032.     *       needed space: (3*max_entry)+(3*max_diff)-1                  *
                                   14618    3033.     *********************************************************************
 0021CC 4830 8036            00036 14619    3034.              LH    NOD,CHKCURN             ADDR TO CURRENT
 0021D0 5E30 8030            00030 14620    3035.              AL    NOD,CHKCURA             |
 0021D4 9180 801C      0001C       14621    3036.              IF    CHKFACC,BEGIN           BALANCING ACCOUNT NODES
 0021D8 47E0 6236            021E4 14631             +
 0021DC 4800 A0B8            000B8 14636  1 3037.                LH    MIX,FSBNAMXL            | MAX LEN OF ACC ENTRY IN NODE
 0021E0 4110 001A            0001A 14637  1 3038.                LA    IX,L'NTRYGR             | MIN LEN OF ACC ENTRY IN NODE
 0021E4                            14638    3039.              END   ,                       OF BALANCING ACCOUNT NODES
 0021E4 623A           021E4 021DA 14642    3040.              ELSE  BEGIN                   BALANCING FILE NODES
 0021E4 47F0 6242            021F0 14647             +
 0021E8 4800 A0C4            000C4 14653  1 3041.                LH    MIX,FSBNFMXL            | MAX LEN OF FILE ENTRY IN NODE
 0021EC 4110 0021            00021 14654  1 3042.                LA    IX,L'NTRYFL+1           | MIN LEN OF FILE ENTRY IN NODE
 0021F0                            14655    3043.              END   ,                       OF BALANCING FILE NODES
 0021F0 48E0 80B0            000B0 14659    3044.              LH    CNT,CHKNODN             NUM OF NODES
 0021F4 59E0 6DBA            02D68 14660    3045.              IF    (CNT,EQ,2),BEGIN        2 NODES IN BALANCE
 0021F8 4770 625E            0220C 14672             +
 0021FC 18F0                       14677  1 3046.                LR    PTR,MIX                 MAX DIFF
 0021FE 1BF1                       14678  1 3047.                SR    PTR,IX                  |
 002200 4C00 6DD8            02D86 14679  1 3048.                MH    MIX,=Y(3)               NEEDED SPACE (3*max)
 002204 4CF0 6DD8            02D86 14680  1 3049.                MH    PTR,=Y(3)               | (3*max_diff)
 002208 1A0F                       14681  1 3050.                AR    MIX,PTR                 | (3*max)+(3*max_diff)
 00220A 0600                       14682  1 3051.                DECR  MIX                     | (3*max)+(3*max_diff)-1
 00220C                            14684    3052.              END   ,                       OF 2 NODES IN BALANCE
 00220C 6262           0220C 021FA 14688    3053.              ELSEIF (CNT,EQ,3),BEGIN       3 NODES IN BALANCE
 00220C 47F0 6282            02230 14694             +
 002210 59E0 6DBE            02D6C 14708             +
 002214 4770 6282            02230 14709             +
                                   14714  1 3054.                AGO   .NBNOSP                 NO SPECIAL TESTS YET
                                   14715  1 3067.     .NBNOSP    ANOP
 002218 18F0                       14716  1 3068.                LR    PTR,MIX                 MAX DIFF
 00221A 1BF1                       14717  1 3069.                SR    PTR,IX                  |
 00221C 4C00 6DDA            02D88 14718  1 3070.                MH    MIX,=Y(6)               NEEDED SPACE (6*max)
 002220 4CF0 6DDA            02D88 14719  1 3071.                MH    PTR,=Y(6)               | (6*max_diff)
 002224 4C10 6DDC            02D8A 14720  1 3072.                MH    IX,=Y(2)                | (2*min)
 002228 1A0F                       14721  1 3073.                AR    MIX,PTR                 | (6*max)+(6*max_diff)
 00222A 1B01                       14722  1 3074.                SR    MIX,IX                  | (6*max)+(6*max_diff)-(2*min)
 00222C 4B00 6DDC            02D8A 14723  1 3075.                SH    MIX,=Y(2)          | (6*max)+(6*max_diff)-(2*min)-2
                                   14724  1 3076.                AGO   .NBNOSP2                NO SPECIAL TESTS YET
                                   14725  1 3078.     .NBNOSP2   ANOP
 002230                            14726    3079.              END   ,                       OF 3 NODES IN BALANCE
 002230 6286           02230 02216 14730    3080.              ELSEIF (CNT,EQ,1),BEGIN       1 NODE IN BALANCE
 002230 47F0 62A2            02250 14736             +
 002234 59E0 6DC2            02D70 14750             +
 002238 4770 62A2            02250 14751             +
1FILEVCAT (FILEVC) (09:45) (22MAR04) Node Balance - New nodes                                                               Page  115
0Current Usings:  (DSKBLK,R2) (NODE,R3) (RQB,R5) (*,R6) (*,R7) (CHKPNT,R8) (FSB,R10)
0Loc    Object Code    Addr1 Addr2  Stmt Lv Lineno    Source Statement           (Hibal 5, Asmedit 3.3)  HLASM R4.0  2004/03/22 09.45
+___    ______ ____    _____ _____  ____ __ ______    ______ _________
000223C 9180 801C      0001C       14756  1 3081.                IF    CHKFACC,'LH MIX,FSBNANSP '       MIN SPACE IN ONE NODE
 002240 47E0 629A            02248 14766  1          +
 002244 4800 A0BC            000BC 14772  1          +
 002248 629E           02248 02242 14777  1 3082.                ELSE  'LH MIX,FSBNFNSP '      |
 002248 47F0 62A2            02250 14782  1          +
 00224C 4800 A0C8            000C8 14789  1          +
 002250                            14794    3083.              END   ,                       OF 1 NODE IN BALANCE
 002250 4900 80AE            000AE 14798    3084.              IF    (CHKSPAC,LT,MIX),BEGIN  BALANCE WITH NEW NODES
 002254 47D0 66B8            02666 14810             +
                                   14815  1 3085.     *
                                   14816  1 3086.     * Split Root Block
 002258 9130 3006      00006       14817  1 3087.                IF    (NODFTRT*NODFFUL),BEGIN SPLIT ROOT BLOCK
 00225C 47E0 647E            0242C 14830  1          +
                                   14835  2 3088.                  XTRC  RQBR,RQBR,CATBALRS
 002260 41E0 0001            00001 14837  2 3089.                  INCR  CNT,CHKSTKP             UPDATE STACK PTR - SPLIT OFFSPR
 002264 4AE0 8606            00606 14841  2          +
 002268 40E0 8606            00606 14842  2          +
 00226C 4800 8034            00034 14843  2 3090.                  DDWRITE 1,CHKCURB,ERR=NBERROR Double-write root block
 002270 41F0 0001            00001 14854  2          +
 002274 4D90 7420            00450 14856  2          +
 002278 D207 8020 8030 00020 00030 14858  2 3091.                  MVC   CHKPARP,CHKCURP         CURRENT IS NOW PARENT
                                   14859  2 3092.     *               Make first allocated block left sibling
 00227E 4140 0001            00001 14860  2 3093.                  INCR  QR,FSBCTBRD             CATALOG BALANCE READ
 002282 5E40 A100            00100 14864  2          +
 002286 5040 A100            00100 14865  2          +
 00228A 1BEE/5890 6DC6       02D74 14866  2 3094.                  GETNODE PTRS=LFT,LOCK=YES,ERR=NBERROR
 002290 0D99/4770 6DA0       02D4E 14875  2          +
 002296 5020 8028            00028 14890  2          +
 00229A 4000 802C            0002C 14891  2          +
 00229E 4010 802E            0002E 14892  2          +
 0022A2 4D90 71F8            00228 14899  2          +
 0022A6 9602 801C      0001C       14901  2 3095.                  SET   CHKFLFTU                INDICATE LEFT NODE IN BALANCE
 0022AA 4140 0001            00001 14907  2 3096.                  INCR  QR,FSBCTBRD             CATALOG BALANCE READ
 0022AE 5E40 A100            00100 14911  2          +
 0022B2 5040 A100            00100 14912  2          +
 0022B6 1BEE/5890 6DC6       02D74 14913  2 3097.                  GETNODE PTRS=CUR,LOCK=YES,ERR=NBERROR
 0022BC 0D99/4770 6DA0       02D4E 14922  2          +
 0022C2 5020 8030            00030 14937  2          +
 0022C6 4000 8034            00034 14938  2          +
 0022CA 4010 8036            00036 14939  2          +
 0022CE 4D90 71F8            00228 14946  2          +
 0022D2 4830 8026            00026 14948  2 3098.                  LH    NOD,CHKPARN             ADDR OF ROOT
 0022D6 5E30 8020            00020 14949  2 3099.                  AL    NOD,CHKPARA             |
 0022DA                            14950  2 3100.                  BEGIN ,                       MOVE ALL BUT LAST TO LEFT
 0022DA 4110 3008            00008 14954  3 3101.                    LA    IX,NODNTRYS             ADDR TO ENTRYS OF ROOT NODE
 0022DE 1801                       14955  3 3102.                    LR    MIX,IX                  | MIX = STRT OF ENTRYS
 USING  NTRY,R1                    14956  3 3103.                    WITH  (NTRY,IX),BEGIN         |
                                   14970  4 3104.                      REGCH (MIX,0),(IX,1),(CNT,14),(PTR,15)
 0022E0                            14971  4 3105.                      WHILE ('CLC NTRYLEN,=&L.AL1(NIL)',NE),BEGIN    LOOK FOR END
 0022E0 D501 1000 6DB2 00000 02D60 14980  4          +
 0022E6 4780 6346            022F4 14981  4          +
 0022EA 1841                       14986  5 3106.                        LR    QR,IX                   QR POINTS TO PREV ENTRY
 0022EC 4A10 1000            00000 14987  5 3107.                        AH    IX,NTRYLEN
 0022F0 47F0 6332            022E0 14988  4 3108.                      END   ,                       OF LOOK FOR END
1FILEVCAT (FILEVC) (09:45) (22MAR04) Node Balance - New nodes                                                               Page  116
0Current Usings:  (DSKBLK,R2) (NODE,R3) (RQB,R5) (*,R6) (*,R7) (CHKPNT,R8) (FSB,R10)
0Loc    Object Code    Addr1 Addr2  Stmt Lv Lineno    Source Statement           (Hibal 5, Asmedit 3.3)  HLASM R4.0  2004/03/22 09.45
+___    ______ ____    _____ _____  ____ __ ______    ______ _________
0DROP   NTRY,R1                    14993  3 3109.                    END   ,                       OF ADDR TO ENTRYS OF ROOT NODE
                                   15001  3 3110.                    REGCH (MIX,0),(IX,1),(CNT,14),(PTR,15) CHECK REGS
 0022F4 5000 807C            0007C 15002  3 3111.                    ST    MIX,CHKBSAD             SOURCE ADDR
 0022F8 1814                       15003  3 3112.                    LR    IX,QR                   | LEN
 0022FA 1B10                       15004  3 3113.                    SR    IX,MIX                  | |
 0022FC 4010 809C            0009C 15005  3 3114.                    STH   IX,CHKBSLN              | |
 002300 4830 802E            0002E 15006  3 3115.                    LH    NOD,CHKLFTN             ADDR OF LEFT
 002304 5E30 8028            00028 15007  3 3116.                    AL    NOD,CHKLFTA             |
 002308 41E0 3008            00008 15008  3 3117.                    LA    CNT,NODNTRYS            DEST (LOC)
 00230C 50E0 8080            00080 15009  3 3118.                    ST    CNT,CHKBDAD             |
 002310 4810 8026            00026 15010  3 3119.                    NTRYMOV SRC=PAR,DEST=LFT      MOVE TO LEFT OFFSPRING NODE
 002314 5E10 8020            00020 15013  3          +
 002318 48F0 802E            0002E 15014  3          +
 00231C 5EF0 8028            00028 15015  3          +
 002320 5890 6DCA/0D99       02D78 15018  3          +
 002326                            15020  2 3120.                  END   ,                       OF MOVE ALL BUT LAST TO LEFT
 002326                            15024  2 3121.                  BEGIN ,                       MOV 1ST PAR_PTR => LFT_END
 002326 4830 8026            00026 15028  3 3122.                    LH    NOD,CHKPARN             1ST PARENT (ROOT) ENTRY ADDR
 00232A 5E30 8020            00020 15029  3 3123.                    AL    NOD,CHKPARA             |
 00232E 4110 3008            00008 15030  3 3124.                    LA    IX,NODNTRYS             |
 002332 41F0 1002            00002 15031  3 3125.                    WITH  (NTRY,IX),'LA PTR,NTRYOFFB '
 USING  NTRY,R1
 DROP   NTRY,R1
 002336 4840 802E            0002E 15055  3 3126.                    LH    QR,CHKLFTN              END ENTRY IN LEFT
 00233A 5E40 8028            00028 15056  3 3127.                    AL    QR,CHKLFTA              |
 00233E 9180 801C      0001C       15057  3 3128.                    IF    CHKFACC,'LH CNT,FSBNASPA '
 002342 47E0 639C            0234A 15067  3          +
 002346 48E0 A0B4            000B4 15073  3          +
 00234A 63A0           0234A 02344 15078  3 3129.                    ELSE  'LH CNT,FSBNFSPA '
 00234A 47F0 63A4            02352 15083  3          +
 00234E 48E0 A0C0            000C0 15090  3          +
 USING  NODE,R4                    15095  3 3130.                    WITH  (NODE,QR),BEGIN         |
 002352 4BE0 4004            00004 15109  4 3131.                      SH    CNT,NODSPACE            |
 002356 414E 4008            00008 15110  4 3132.                      LA    QR,NODNTRYS(CNT)        |
 DROP   NODE,R4                    15111  3 3133.                    END   ,                       | OF WITH (NODE,QR)
 USING  NTRY,R4                    15119  3 3134.                    WITH (NTRY,QR),'MVC NTRYOFFB(PL),@PTR '        LFT_END:=PAR_PT
 00235A D203 4002 F000 00002 00000 15134  3          +
 DROP   NTRY,R4
 USING  NTRY,R1                    15143  3 3135.                    WITH (NTRY,IX),'MVC NTRYOFFB(PL),CHKLFTB '     PAR_PTR := LFT
 002360 D203 1002 802C 00002 0002C 15158  3          +
 DROP   NTRY,R1
 002366                            15167  2 3136.                  END   ,                       OF MOV 1ST PAR_PTR => LFT_END
 002366                            15171  2 3137.                  BEGIN ,                       MOV PAR_END => CUR_END
 USING  NTRY,R1                    15175  3 3138.                    WITH (NTRY,IX),BEGIN          ADDR TO PAR ENTRYS
 002366 4A10 3008            00008 15189  4 3139.                      AH    IX,NODNTRYS             2ND PAR ENTRY
 00236A 41F0 1002            00002 15190  4 3140.                      LA    PTR,NTRYOFFB            | OFFSPRING PTRS
 DROP   NTRY,R1                    15191  3 3141.                    END   ,                       OF ADDR TO PAR ENTRYS
 00236E 4840 8036            00036 15199  3 3142.                    LH    QR,CHKCURN              ADDR TO END ENTRY IN CUR NODE
 002372 5E40 8030            00030 15200  3 3143.                    AL    QR,CHKCURA              |
 002376 4140 4008            00008 15201  3 3144.                    WITH (NODE,QR),'LA QR,NODNTRYS '
 USING  NODE,R4
 DROP   NODE,R4
 USING  NTRY,R4                    15225  3 3145.                    WITH (NTRY,QR),'MVC NTRYOFFB(PL),@PTR '        CUR_END:=PAREND
 00237A D203 4002 F000 00002 00000 15240  3          +
1FILEVCAT (FILEVC) (09:45) (22MAR04) Node Balance - New nodes                                                               Page  117
0Current Usings:  (DSKBLK,R2) (NODE,R3) (RQB,R5) (*,R6) (*,R7) (CHKPNT,R8) (FSB,R10)
0Loc    Object Code    Addr1 Addr2  Stmt Lv Lineno    Source Statement           (Hibal 5, Asmedit 3.3)  HLASM R4.0  2004/03/22 09.45
+___    ______ ____    _____ _____  ____ __ ______    ______ _________
0DROP   NTRY,R4
 USING  NTRY,R1                    15249  3 3146.                    WITH (NTRY,IX),'MVC NTRYOFFB(PL),CHKCURB '     PAR_END := CUR
 002380 D203 1002 8034 00002 00034 15264  3          +
 DROP   NTRY,R1
 002386                            15273  2 3147.                  END   ,                       OF MOV PAR_END => CUR_END
 002386                            15277  2 3148.                  BEGIN ,                       UPDATE PARENT NODE
 002386 9140 3006      00006       15281  3 3149.                    IF    NODFLEAF,'SET CHKFLEAF '
 00238A 47E0 63E4            02392 15291  3          +
 00238E 9604 801C      0001C       15302  3          +
 002392 94A7 3006      00006       15307  3 3150.                    CLEAR NODFFUL+NODFEMT+NODFLEAF
 002396                            15321  2 3151.                  END   ,                       OF UPDATE PARENT NODE
 002396                            15325  2 3152.                  BEGIN ,                       UPDATE LEFT NODE
 002396 4830 802E            0002E 15329  3 3153.                    LH    NOD,CHKLFTN             |
 00239A 5E30 8028            00028 15330  3 3154.                    AL    NOD,CHKLFTA             |
 00239E 48E0 3004            00004 15331  3 3155.                    LH    CNT,NODSPACE            |
 0023A2 9104 801C      0001C       15332  3 3156.                    IF    CHKFLEAF,'SET NODFLEAF '
 0023A6 47E0 6400            023AE 15342  3          +
 0023AA 9640 3006      00006       15353  3          +
 0023AE                            15358  2 3157.                  END   ,                       OF UPDATE LEFT NODE
 0023AE                            15362  2 3158.                  BEGIN ,                       UPDATE CURRENT NODE
 0023AE 4830 8036            00036 15366  3 3159.                    LH    NOD,CHKCURN             |
 0023B2 5E30 8030            00030 15367  3 3160.                    AL    NOD,CHKCURA             |
 0023B6 4AE0 3004            00004 15368  3 3161.                    AH    CNT,NODSPACE            |
 0023BA 9104 801C      0001C       15369  3 3162.                    IF    CHKFLEAF,'SET NODFLEAF '
 0023BE 47E0 6418            023C6 15379  3          +
 0023C2 9640 3006      00006       15390  3          +
 0023C6                            15395  2 3163.                  END   ,                       OF UPDATE CURRENT NODE
 0023C6 40E0 80AE            000AE 15399  2 3164.                  STH   CNT,CHKSPAC             TOTAL AVAILABLE BALANCE SPACE
 0023CA D201 80B0 6DDC 000B0 02D8A 15400  2 3165.                  MVC   CHKNODN,=Y(2)           BALANCE AMONG 2 NODES
 0023D0 4D90 6DE2            02D90 15401  2 3166.                  LCALL NBBAL
 0023D4 920C 8112      00112       15403  2 3167.                  MVI   CHKITYPE,CCHKRTSP       INDICATE - Root_Split
 0023D8 D200 8113 801C 00113 0001C 15404  2 3168.                  MVC   CHKIFLG,CHKFLG          FLAGS
 0023DE D203 811A 8024 0011A 00024 15405  2 3169.                  MVC   CHKIRSPB(PL),CHKPARB    Parent of split, new root
 0023E4 D203 811E 802C 0011E 0002C 15406  2 3170.                  MVC   CHKIRSLB(PL),CHKLFTB    Left sibling
 0023EA D203 8122 8034 00122 00034 15407  2 3171.                  MVC   CHKIRSCB(PL),CHKCURB    Current sibling
 0023F0 4140 0003            00003 15408  2 3172.                  LA    QR,3                    CATALOG BALANCE WRITE OF 3 BLKS
 0023F4 5A40 A10C            0010C 15409  2 3173.                  A     QR,FSBCTBWR             |
 0023F8 5040 A10C            0010C 15410  2 3174.                  ST    QR,FSBCTBWR             |
 0023FC 4D90 74C2            004F2 15411  2 3175.                  IWRITE ERR=NBERROR
 002400 4800 8024/1BFF       00024 15416  2 3176.                  DWRITE CHKPARB,ERR=NBERROR
 002406 4D90 7136            00166 15426  2          +
 00240A 4800 802C/1BFF       0002C 15428  2 3177.                  DWRITE CHKLFTB,ERR=NBERROR
 002410 4D90 7136            00166 15438  2          +
 002414 4800 8034/1BFF       00034 15440  2 3178.                  DWRITE CHKCURB,ERR=NBERROR
 00241A 4D90 7136            00166 15450  2          +
 00241E                            15452  2 3179.                  CLEAR CHKIVLV1
 00241E D741 8112 8112 00112 00112 15458  2          +
 002424 4D90 74C2            004F2 15459  2 3180.                  IWRITE ERR=NBERROR
 002428 47F0 6D66            02D14 15464  2 3181.                  B     NODBALX
 00242C                            15465  1 3182.                END   ,                       OF SPLIT ROOT BLOCK
1FILEVCAT (FILEVC) (09:45) (22MAR04) Node Balance - New nodes                                                               Page  118
0Current Usings:  (DSKBLK,R2) (NODE,R3) (RQB,R5) (*,R6) (*,R7) (CHKPNT,R8) (FSB,R10)
0Loc    Object Code    Addr1 Addr2  Stmt Lv Lineno    Source Statement           (Hibal 5, Asmedit 3.3)  HLASM R4.0  2004/03/22 09.45
+___    ______ ____    _____ _____  ____ __ ______    ______ _________
0                                  15470  1 3184.     *
                                   15471  1 3185.     * Balance inner nodes with a new node
                                   15472  1 3186.     *
                                   15473  1 3187.                XTRC  RQBR,RQBR,CATBALSP
 00242C                            15475  1 3188.                BEGIN ,                  BALANCE INNER NODES W/ NEW NODES
 00242C 9101 801C      0001C       15479  2 3189.                  IF    (NOT,CHKFRHTU),BEGIN    RIGHT NOT IN BALANCE
 002430 4710 64A2            02450 15491  2          +
 002434 4140 0001            00001 15496  3 3190.                    INCR  QR,CHKNODN              ONE MORE NODE FOR BALANCE
 002438 4A40 80B0            000B0 15500  3          +
 00243C 4040 80B0            000B0 15501  3          +
 002440 D203 803C 8034 0003C 00034 15502  3 3191.                    MVC   CHKRHTB(PL),CHKCURB
 002446 D203 8038 8030 00038 00030 15503  3 3192.                    MVC   CHKRHTA,CHKCURA
 00244C 9601 801C      0001C       15504  3 3193.                    SET   CHKFRHTU
 002450                            15510  2 3194.                  END   ,                       OF RIGHT NOT IN BALANCE
 002450 64A6           02450 02432 15514  2 3195.                  ELSEIF (NOT,CHKFLFTU),BEGIN   LEFT NOT IN BALANCE
 002450 47F0 64CA            02478 15520  2          +
 002454 9102 801C      0001C       15534  2          +
 002458 4710 64CA            02478 15535  2          +
 00245C 4140 0001            00001 15540  3 3196.                    INCR  QR,CHKNODN              ONE MORE NODE FOR BALANCE
 002460 4A40 80B0            000B0 15544  3          +
 002464 4040 80B0            000B0 15545  3          +
 002468 D203 802C 8034 0002C 00034 15546  3 3197.                    MVC   CHKLFTB(PL),CHKCURB
 00246E D203 8028 8030 00028 00030 15547  3 3198.                    MVC   CHKLFTA,CHKCURA
 002474 9602 801C      0001C       15548  3 3199.                    SET   CHKFLFTU
 002478                            15554  2 3200.                  END   ,                       OF RIGHT NOT IN BALANCE
                                   15558  2 3201.     *        Release left if it isn't node that caused balance call.
 002478 64CE           02478 0245A 15559  2 3202.                  ELSEIF ('CLC CHKLFTB(PL),CHKBALB',NE),BEGIN
 002478 47F0 6518            024C6 15565  2          +
 00247C D503 802C 8064 0002C 00064 15575  2          +
 002482 4780 6518            024C6 15576  2          +
 002486 4840 80AE            000AE 15581  3 3203.                    LH    QR,CHKSPAC              SUBTRACT LEFT SPACE COUNT
 00248A 4810 802E            0002E 15582  3 3204.                    LH    IX,CHKLFTN              | ADDRESSABILITY TO LEFT NODE
 00248E 5E10 8028            00028 15583  3 3205.                    AL    IX,CHKLFTA              | |
 002492 4B40 1004            00004 15584  3 3206.                    WITH  (NODE,IX),'SH QR,NODSPACE '
 DROP   NODE,R3
 USING  NODE,R1
 USING  NODE,R3
 DROP   NODE,R1
 002496 4040 80AE            000AE 15625  3 3207.                    STH   QR,CHKSPAC              | NEW SPACE COUNT IN BAL NODES
 00249A                            15626  3 3208.                    IF    (CHKLFTB,NE,CHKPARB),BEGIN
 00249A D501 802C 8024 0002C 00024 15638  3          +
 0024A0 4780 6512            024C0 15639  3          +
 0024A4                            15644  4 3209.                      IF    (CHKLFTB,NE,CHKCURB),BEGIN
 0024A4 D501 802C 8034 0002C 00034 15656  4          +
 0024AA 4780 6512            024C0 15657  4          +
 0024AE                            15662  5 3210.                        IF    (CHKLFTB,NE,CHKRHTB),BEGIN
 0024AE D501 802C 803C 0002C 0003C 15674  5          +
 0024B4 4780 6512            024C0 15675  5          +
 0024B8 4800 802C            0002C 15680  6 3211.                          DRELBUF CHKLFTB,ERR=NBERROR   REL BLK BUFFER IF NOT SHARED
 0024BC 4D90 7236            00266 15686  6          +
 0024C0                            15688  5 3212.                        END   ,
 0024C0                            15692  4 3213.                      END   ,
 0024C0                            15696  3 3214.                    END   ,
 0024C0 D207 8028 8030 00028 00030 15700  3 3215.                    MVC   CHKLFTP,CHKCURP
1FILEVCAT (FILEVC) (09:45) (22MAR04) Node Balance - New nodes                                                               Page  119
0Current Usings:  (DSKBLK,R2) (NODE,R3) (RQB,R5) (*,R6) (*,R7) (CHKPNT,R8) (FSB,R10)
0Loc    Object Code    Addr1 Addr2  Stmt Lv Lineno    Source Statement           (Hibal 5, Asmedit 3.3)  HLASM R4.0  2004/03/22 09.45
+___    ______ ____    _____ _____  ____ __ ______    ______ _________
00024C6                            15701  2 3216.                  END   ,
                                   15705  2 3217.     *        Release right if left is node that caused balance call.
 0024C6 651C           024C6 02484 15706  2 3218.                  ELSE  BEGIN
 0024C6 47F0 655C            0250A 15711  2          +
 0024CA 4840 80AE            000AE 15717  3 3219.                    LH    QR,CHKSPAC              SUBTRACT LEFT SPACE COUNT
 0024CE 4810 803E            0003E 15718  3 3220.                    LH    IX,CHKRHTN              | ADDRESSABILITY TO LEFT NODE
 0024D2 5E10 8038            00038 15719  3 3221.                    AL    IX,CHKRHTA              | |
 0024D6 4B40 1004            00004 15720  3 3222.                    WITH  (NODE,IX),'SH QR,NODSPACE '
 DROP   NODE,R3
 USING  NODE,R1
 USING  NODE,R3
 DROP   NODE,R1
 0024DA 4040 80AE            000AE 15761  3 3223.                    STH   QR,CHKSPAC              | NEW SPACE COUNT IN BAL NODES
 0024DE                            15762  3 3224.                    IF    (CHKRHTB,NE,CHKPARB),BEGIN
 0024DE D501 803C 8024 0003C 00024 15774  3          +
 0024E4 4780 6556            02504 15775  3          +
 0024E8                            15780  4 3225.                      IF    (CHKRHTB,NE,CHKCURB),BEGIN
 0024E8 D501 803C 8034 0003C 00034 15792  4          +
 0024EE 4780 6556            02504 15793  4          +
 0024F2                            15798  5 3226.                        IF    (CHKRHTB,NE,CHKLFTB),BEGIN
 0024F2 D501 803C 802C 0003C 0002C 15810  5          +
 0024F8 4780 6556            02504 15811  5          +
 0024FC 4800 803C            0003C 15816  6 3227.                          DRELBUF CHKRHTB,ERR=NBERROR   REL BLK BUFFER IF NOT SHARED
 002500 4D90 7236            00266 15822  6          +
 002504                            15824  5 3228.                        END   ,
 002504                            15828  4 3229.                      END   ,
 002504                            15832  3 3230.                    END   ,
 002504 D207 8038 8030 00038 00030 15836  3 3231.                    MVC   CHKRHTP,CHKCURP
 00250A                            15837  2 3232.                  END   ,
                                   15841  2 3233.     *
                                   15842  2 3234.     * Allocate a new node and balance
 00250A 4140 0001            00001 15843  2 3235.                  INCR  QR,FSBCTBRD             CATALOG BALANCE READ
 00250E 5E40 A100            00100 15847  2          +
 002512 5040 A100            00100 15848  2          +
 002516 1BEE/5890 6DC6       02D74 15849  2 3236.                  GETNODE PTRS=CUR,LOCK=YES,ERR=NBERROR
 00251C 0D99/4770 6DA0       02D4E 15858  2          +
 002522 5020 8030            00030 15873  2          +
 002526 4000 8034            00034 15874  2          +
 00252A 4010 8036            00036 15875  2          +
 00252E 4D90 71F8            00228 15882  2          +
 002532 5890 6DCE/0D99       02D7C 15884  2 3237.                  ACALL PARNTRY                 FIND PARENT ENTRYS
 002538                            15888  2 3238.                  BEGIN ,                       MOVE 1ST RIGHT ENTRY TO PARENT
 002538 4830 803E            0003E 15892  3 3239.                    LH    NOD,CHKRHTN             ADDR TO RIGHT
 00253C 5E30 8038            00038 15893  3 3240.                    AL    NOD,CHKRHTA             |
 002540 9140 3006      00006       15894  3 3241.                    IF    NODFLEAF,'SET CHKFLEAF '
 002544 47E0 659E            0254C 15904  3          +
 002548 9604 801C      0001C       15915  3          +
 00254C 4110 3008            00008 15920  3 3242.                    LA    IX,NODNTRYS             ADDR TO 1ST RIGHT ENTRY
 USING  NTRY,R1                    15921  3 3243.                    WITH  (NTRY,IX),BEGIN         |
 002550 48F0 8036            00036 15935  4 3244.                      LH    PTR,CHKCURN             ADDR TO NIL NTRY OF NEW
 002554 5EF0 8030            00030 15936  4 3245.                      AL    PTR,CHKCURA             |
 002558 41F0 F008            00008 15937  4 3246.                      WITH (NODE,PTR),'LA PTR,NODNTRYS '     |
 USING  NODE,R15
 DROP   NODE,R15
1FILEVCAT (FILEVC) (09:45) (22MAR04) Node Balance - New nodes                                                               Page  120
0Current Usings:  (NTRY,R1) (DSKBLK,R2) (NODE,R3) (RQB,R5) (*,R6) (*,R7) (CHKPNT,R8) (FSB,R10)
0Loc    Object Code    Addr1 Addr2  Stmt Lv Lineno    Source Statement           (Hibal 5, Asmedit 3.3)  HLASM R4.0  2004/03/22 09.45
+___    ______ ____    _____ _____  ____ __ ______    ______ _________
000255C 41F0 F002            00002 15961  4 3247.                      WITH (NTRY,PTR),'LA PTR,NTRYOFFB '     | (NEW_NIL_PTR :=
 USING  NTRY,R15
 DROP   NTRY,R15
 002560 D203 F000 1002 00000 00002 15985  4 3248.                      MVC   @PTR(PL),NTRYOFFB       |    1ST_RHT_PTR)
 002566 D203 1002 8034 00002 00034 15986  4 3249.                      MVC   NTRYOFFB(PL),CHKCURB    | 1ST RHT := NEW
 00256C 48E0 80AE            000AE 15987  4 3250.                      LH    CNT,CHKSPAC             ADD SPACE OF THIS NTRY
 002570 4AE0 1000            00000 15988  4 3251.                      AH    CNT,NTRYLEN             |
 002574 40E0 80AE            000AE 15989  4 3252.                      STH   CNT,CHKSPAC             |
 002578 5010 807C            0007C 15990  4 3253.                      ST    IX,CHKBSAD              SOURCE OF MOVE
 00257C D201 809C 1000 0009C 00000 15991  4 3254.                      MVC   CHKBSLN,NTRYLEN         | (LEN)
 002582 D203 8080 8094 00080 00094 15992  4 3255.                      MVC   CHKBDAD,CHKBRPA         DEST OF MOVE
 002588 4810 803E            0003E 15993  4 3256.                      NTRYMOV SRC=RHT,DEST=PAR
 00258C 5E10 8038            00038 15996  4          +
 002590 48F0 8026            00026 15997  4          +
 002594 5EF0 8020            00020 15998  4          +
 002598 5890 6DCA/0D99       02D78 16001  4          +
 DROP   NTRY,R1                    16003  3 3257.                    END   ,                       OF ADDR TO 1ST RIGHT ENTRY
 00259E                            16011  2 3258.                  END   ,                  OF MOVE 1ST RIGHT ENTRY TO PARENT
 00259E 4830 8036            00036 16015  2 3259.                  LH    NOD,CHKCURN             ADDR TO NEW CUR NODE
 0025A2 5E30 8030            00030 16016  2 3260.                  AL    NOD,CHKCURA             |
 0025A6 9104 801C      0001C       16017  2 3261.                  IF    CHKFLEAF,'SET NODFLEAF '
 0025AA 47E0 6604            025B2 16027  2          +
 0025AE 9640 3006      00006       16038  2          +
 0025B2 4840 80AE            000AE 16043  2 3262.                  LH    QR,CHKSPAC              UPDATE SPACE AVAIL
 0025B6 4A40 3004            00004 16044  2 3263.                  AH    QR,NODSPACE             |
 0025BA 4040 80AE            000AE 16045  2 3264.                  STH   QR,CHKSPAC              |
 0025BE 4D90 6DE2            02D90 16046  2 3265.                  LCALL NBBAL                   BALANCE WITH NEW NODE
                                   16048  2 3266.     *
                                   16049  2 3267.     * Write Blocks
 0025C2 9218 8112      00112       16050  2 3268.                  MVI   CHKITYPE,CCHKBINS       INDICATE NODE BALANCE W/ INSERT
 0025C6 D200 8113 801C 00113 0001C 16051  2 3269.                  MVC   CHKIFLG,CHKFLG          COPY FLAGS
 0025CC D203 811A 8024 0011A 00024 16052  2 3270.                  MVC   CHKIBIPB(PL),CHKPARB    PARENT ADDRESS
 0025D2 5820 8020            00020 16053  2 3271.                  L     DSK,CHKPARA             | PUT IN CLOCK TAG
 0025D6 D201 811E 2000 0011E 00000 16054  2 3272.                  MVC   CHKIBIPC,DSKTAG         |
 0025DC D203 8120 802C 00120 0002C 16055  2 3273.                  MVC   CHKIBILB(PL),CHKLFTB    LEFT NODE ADDRESS
 0025E2 D203 8124 8034 00124 00034 16056  2 3274.                  MVC   CHKIBICB(PL),CHKCURB    CURRENT NODE ADDRESS
 0025E8 D203 8128 803C 00128 0003C 16057  2 3275.                  MVC   CHKIBIRB(PL),CHKRHTB    RIGHT NODE ADDRESS
 0025EE 5820 8038            00038 16058  2 3276.                  L     DSK,CHKRHTA             | PUT IN CLOCK TAG
 0025F2 D201 812C 2000 0012C 00000 16059  2 3277.                  MVC   CHKIBIRC,DSKTAG         |
 0025F8 4840 80B0            000B0 16060  2 3278.                  LH    QR,CHKNODN              UPDATE BALANCE WRITE COUNTS
 0025FC 5E40 6DC2            02D70 16061  2 3279.                  INCR  QR                      | NUM OF SIBS + PAR
 002600 5A40 A10C            0010C 16064  2 3280.                  A     QR,FSBCTBWR             |
 002604 5040 A10C            0010C 16065  2 3281.                  ST    QR,FSBCTBWR             |
 002608 4800 802C            0002C 16066  2 3282.                  DDWRITE 1,CHKLFTB,ERR=NBERROR Double Write Left
 00260C 41F0 0001            00001 16077  2          +
 002610 4D90 7420            00450 16079  2          +
 002614 4800 8034            00034 16081  2 3283.                  DDWRITE 2,CHKCURB,ERR=NBERROR Double Write Current
 002618 41F0 0002            00002 16092  2          +
 00261C 4D90 7420            00450 16094  2          +
 002620 4800 803C            0003C 16096  2 3284.                  DDWRITE 3,CHKRHTB,ERR=NBERROR Double Write Right
 002624 41F0 0003            00003 16107  2          +
 002628 4D90 7420            00450 16109  2          +
 00262C 4D90 74C2            004F2 16111  2 3285.                  IWRITE ERR=NBERROR
 002630 4800 8024/1BFF       00024 16116  2 3286.                  DWRITE CHKPARB,ERR=NBERROR    WRITE PARENT BLOCK
1FILEVCAT (FILEVC) (09:45) (22MAR04) Node Balance - New nodes                                                               Page  121
0Current Usings:  (DSKBLK,R2) (NODE,R3) (RQB,R5) (*,R6) (*,R7) (CHKPNT,R8) (FSB,R10)
0Loc    Object Code    Addr1 Addr2  Stmt Lv Lineno    Source Statement           (Hibal 5, Asmedit 3.3)  HLASM R4.0  2004/03/22 09.45
+___    ______ ____    _____ _____  ____ __ ______    ______ _________
0002636 4D90 7136            00166 16126  2          +
 00263A 4800 802C/1BFF       0002C 16128  2 3287.                  DWRITE CHKLFTB,ERR=NBERROR    WRITE LEFT BLOCK
 002640 4D90 7136            00166 16138  2          +
 002644 4800 8034/1BFF       00034 16140  2 3288.                  DWRITE CHKCURB,ERR=NBERROR    WRITE CURRENT BLOCK
 00264A 4D90 7136            00166 16150  2          +
 00264E 4800 803C/1BFF       0003C 16152  2 3289.                  DWRITE CHKRHTB,ERR=NBERROR    WRITE RIGHT BLOCK
 002654 4D90 7136            00166 16162  2          +
 002658                            16164  2 3290.                  CLEAR CHKIVLV1                CLR 1ST LEVEL INTENTIONS; DONE
 002658 D741 8112 8112 00112 00112 16170  2          +
 00265E 4D90 74C2            004F2 16171  2 3291.                  IWRITE ERR=NBERROR            | WRITE INTENTIONS DONE
 002662 47F0 6D66            02D14 16176  2 3292.                  B     NODBALX
 002666                            16177  1 3293.                END   ,                       OF BAL INNER NODES W/ NEW NODES
 002666                            16181    3294.              END   ,                       OF BALANCE W/ NEW NODES
1FILEVCAT (FILEVC) (09:45) (22MAR04) Node Balance - Collapse                                                                Page  122
0Current Usings:  (DSKBLK,R2) (NODE,R3) (RQB,R5) (*,R6) (*,R7) (CHKPNT,R8) (FSB,R10)
0Loc    Object Code    Addr1 Addr2  Stmt Lv Lineno    Source Statement           (Hibal 5, Asmedit 3.3)  HLASM R4.0  2004/03/22 09.45
+___    ______ ____    _____ _____  ____ __ ______    ______ _________
0                                  16186    3296.     *********************************************************************
                                   16187    3297.     *   Max space to still avoid collapse =                             *
                                   16188    3298.     *    # of nodes * max free space in node (FSBNAXSP,FSBNFXSP)        *
                                   16189    3299.     *********************************************************************
 002666 4830 8036            00036 16190    3300.              LH    NOD,CHKCURN             ADDR TO CURRENT
 00266A 5E30 8030            00030 16191    3301.              AL    NOD,CHKCURA             |
 00266E 9180 801C      0001C       16192    3302.              IF    CHKFACC,BEGIN           BALANCING ACCOUNT NODES
 002672 47E0 66CC            0267A 16202             +
 002676 4810 A0BA            000BA 16207  1 3303.                LH    IX,FSBNAXSP        | MAX FREE SPACE IN BAL ACC ENTRY
 00267A                            16208    3304.              END   ,                       OF BALANCING ACCOUNT NODES
 00267A 66D0           0267A 02674 16212    3305.              ELSE  BEGIN                   BALANCING FILE NODES
 00267A 47F0 66D4            02682 16217             +
 00267E 4810 A0C6            000C6 16223  1 3306.                LH    IX,FSBNFXSP        | MAX FREE SPACE IN BAL FILE ENTRY
 002682                            16224    3307.              END   ,                       OF BALANCING FILE NODES
 002682 4800 80B0            000B0 16228    3308.              LH    MIX,CHKNODN             NUM OF NODES
                                   16229    3309.              REGCH (MIX,0),(IX,1)          CHECK REG PAIR
 002686 1C00                       16230    3310.              MR    MIX,MIX            MAX FREE SPACE IN COMBINED NODES
 USING  NTRY,R1                    16231    3311.              USING NTRY,IX
 002688 4910 80AE            000AE 16240    3312.              IF    (CHKSPAC,GT,IX),BEGIN   BALANCE WITH COLLAPSE
 00268C 47B0 6C9C            02C4A 16252             +
 002690 9120 3006      00006       16257  1 3313.                IF    NODFTRT,BEGIN           AN EMPTY ROOT
 002694 47E0 6704            026B2 16267  1          +
 002698 9180 3006      00006       16272  2 3314.                  IF    ~NODFACC,BEGIN          EMPTY FILE ROOT... ERROR HERE
 00269C 4710 6700            026AE 16282  2          +
 0026A0 5890 6DB6/0D99       02D64 16287  3 3315.                    ABORT  CATBEFR                Balance_Empty_File_Root Error
 0026A6 C3C1E3C2C5C6D940           16292  3          +
 0026AE                            16293  2 3316.                  END   ,                  OF EMPTY FILE ROOT... ERROR HERE
 0026AE 47F0 6D76            02D24 16297  2 3317.                  B     NODBALPX                RETURN W/ ADDR TO PAR ALREADY
 0026B2                            16298  1 3318.                END   ,                       OF AN EMPTY ROOT
 0026B2 4830 8026            00026 16302  1 3319.                LH    NOD,CHKPARN             ADDR TO PARENT
 0026B6 5E30 8020            00020 16303  1 3320.                AL    NOD,CHKPARA             |
                                   16304  1 3321.     * Root Collapse
 0026BA                            16305  1 3322.                IF    (NODNTNUM,EQ,1),BEGIN   ROOT COLLAPSE (ONLY 2 SIBS)
 0026BA D501 6DDE 3002 02D8C 00002 16317  1          +
 0026C0 4770 6916            028C4 16318  1          +
                                   16323  2 3323.                  XTRC  RQBR,RQBR,CATBALRC
 0026C4 9102 801C      0001C       16325  2 3324.                  IF    ~CHKFLFTU,BEGIN         INSURE A LEFT/CUR PAIR
 0026C8 4710 6738            026E6 16335  2          +
 0026CC D207 8028 8030 00028 00030 16340  3 3325.                    MVC   CHKLFTP,CHKCURP         LFT := CUR
 0026D2 9602 801C      0001C       16341  3 3326.                    SET   CHKFLFTU                |
 0026D6 D207 8030 8038 00030 00038 16347  3 3327.                    MVC   CHKCURP,CHKRHTP         CUR := RHT
 0026DC                            16348  3 3328.                    MVC   CHKRHTB(PL),=&L.AL1(NIL)         RHT := NIL
 0026DC D203 803C 6DB2 0003C 02D60        3          +
 0026E2 94FE 801C      0001C       16349  3 3329.                    CLEAR CHKFRHTU                |
 0026E6                            16356  2 3330.                  END   ,                       OF INSURE A LEFT/CUR PAIR
 0026E6 4110 3008            00008 16360  2 3331.                  LA    IX,NODNTRYS             ADDR TO PAR ENTRY
 0026EA 5010 8090            00090 16361  2 3332.                  ST    IX,CHKBLPA              |
 0026EE D201 80A8 1000 000A8 00000 16362  2 3333.                  MVC   CHKBLPL,NTRYLEN         |
 0026F4 4830 802E            0002E 16363  2 3334.                  LH    NOD,CHKLFTN             ADDR TO LEFT END
 0026F8 5E30 8028            00028 16364  2 3335.                  AL    NOD,CHKLFTA             |
 0026FC 9180 801C      0001C       16365  2 3336.                  IF    CHKFACC,'LH CNT,FSBNASPA '       | MAX SPACE
 002700 47E0 675A            02708 16375  2          +
 002704 48E0 A0B4            000B4 16381  2          +
 002708 675E           02708 02702 16386  2 3337.                  ELSE  'LH CNT,FSBNFSPA '      | |
1FILEVCAT (FILEVC) (09:45) (22MAR04) Node Balance - Collapse                                                                Page  123
0Current Usings:  (NTRY,R1) (DSKBLK,R2) (NODE,R3) (RQB,R5) (*,R6) (*,R7) (CHKPNT,R8) (FSB,R10)
0Loc    Object Code    Addr1 Addr2  Stmt Lv Lineno    Source Statement           (Hibal 5, Asmedit 3.3)  HLASM R4.0  2004/03/22 09.45
+___    ______ ____    _____ _____  ____ __ ______    ______ _________
0002708 47F0 6762            02710 16391  2          +
 00270C 48E0 A0C0            000C0 16398  2          +
 002710 4BE0 3004            00004 16403  2 3338.                  SH    CNT,NODSPACE            |
 002714 41F0 3008            00008 16404  2 3339.                  LA    PTR,NODNTRYS            |
 002718 50F0 8084            00084 16405  2 3340.                  ST    PTR,CHKBLAD             | LEFT ADDR
 00271C 40E0 80A2            000A2 16406  2 3341.                  STH   CNT,CHKBLLN             | (LEN)
 002720 41FE 3008            00008 16407  2 3342.                  LA    PTR,NODNTRYS(CNT)       | LEFT_END
 002724 41F0 F002            00002 16408  2 3343.                  WITH (NTRY,PTR),'LA PTR,NTRYOFFB '     | LEFT_END_OFFSPRING
 USING  NTRY,R15
 DROP   NTRY,R15
 002728 D203 1002 F000 00002 00000 16432  2 3344.                  MVC   NTRYOFFB(PL),@PTR       PAR_PTR := LFT_END_PTR
 00272E 4A10 1000            00000 16433  2 3345.                  AH    IX,NTRYLEN              PAR_END IS NEXT
 002732 4830 8036            00036 16434  2 3346.                  LH    NOD,CHKCURN             ADDR TO CUR_END
 002736 5E30 8030            00030 16435  2 3347.                  AL    NOD,CHKCURA             |
 00273A 9180 801C      0001C       16436  2 3348.                  IF    CHKFACC,'LH CNT,FSBNASPA '       | MAX SPACE
 00273E 47E0 6798            02746 16446  2          +
 002742 48E0 A0B4            000B4 16452  2          +
 002746 679C           02746 02740 16457  2 3349.                  ELSE  'LH CNT,FSBNFSPA '      | |
 002746 47F0 67A0            0274E 16462  2          +
 00274A 48E0 A0C0            000C0 16469  2          +
 00274E 4BE0 3004            00004 16474  2 3350.                  SH    CNT,NODSPACE            |
 002752 41F0 3008            00008 16475  2 3351.                  LA    PTR,NODNTRYS            | CUR NODE ENTRYS
 002756 50F0 8088            00088 16476  2 3352.                  ST    PTR,CHKBCAD             | |
 00275A 40E0 80A4            000A4 16477  2 3353.                  STH   CNT,CHKBCLN             | LEN
 00275E 1EFE                       16478  2 3354.                  ALR   PTR,CNT                 CUR END
 002760 41F0 F002            00002 16479  2 3355.                  WITH (NTRY,PTR),'LA PTR,NTRYOFFB '     |
 USING  NTRY,R15
 DROP   NTRY,R15
 002764 D203 1002 F000 00002 00000 16503  2 3356.                  MVC   NTRYOFFB(PL),@PTR       PAR_END := CUR_END
                                   16504  2 3357.     *               Move entrys
 00276A D203 807C 8088 0007C 00088 16505  2 3358.                  MVC   CHKBSAD,CHKBCAD         SOURCE
 002770 D201 809C 80A4 0009C 000A4 16506  2 3359.                  MVC   CHKBSLN,CHKBCLN         | LEN
 002776 5010 8080            00080 16507  2 3360.                  ST    IX,CHKBDAD              DEST (After left par)
 00277A 4810 8036            00036 16508  2 3361.                  NTRYMOV SRC=CUR,DEST=PAR      MOVE CUR => PAR
 00277E 5E10 8030            00030 16511  2          +
 002782 48F0 8026            00026 16512  2          +
 002786 5EF0 8020            00020 16513  2          +
 00278A 5890 6DCA/0D99       02D78 16516  2          +
 002790 D203 807C 8084 0007C 00084 16518  2 3362.                  MVC   CHKBSAD,CHKBLAD         SOURCE
 002796 D201 809C 80A2 0009C 000A2 16519  2 3363.                  MVC   CHKBSLN,CHKBLLN         | LEN
 00279C D203 8080 8090 00080 00090 16520  2 3364.                  MVC   CHKBDAD,CHKBLPA         DEST (LFT_PAR_ADDR)
 0027A2 4810 802E            0002E 16521  2 3365.                  NTRYMOV SRC=LFT,DEST=PAR      MOVE LFT => PAR
 0027A6 5E10 8028            00028 16524  2          +
 0027AA 48F0 8026            00026 16525  2          +
 0027AE 5EF0 8020            00020 16526  2          +
 0027B2 5890 6DCA/0D99       02D78 16529  2          +
 0027B8 4830 802E            0002E 16531  2 3366.                  LH    NOD,CHKLFTN             RELEASE LEFT NODE
 0027BC 5E30 8028            00028 16532  2 3367.                  AL    NOD,CHKLFTA             |
 0027C0 94FB 801C      0001C       16533  2 3368.                  CLEAR CHKFLEAF                SET IF SIBLING = LEAF
 0027C4 9140 3006      00006       16540  2 3369.                  IF    NODFLEAF,'SET CHKFLEAF '         |
 0027C8 47E0 6822            027D0 16550  2          +
 0027CC 9604 801C      0001C       16561  2          +
 0027D0 48F0 802E            0002E 16566  2 3370.                  RELNODE CHKLFTN,NODLEN,CHKLFTA,ERR=NBERROR
 0027D4 4800 3000            00000 16572  2          +
1FILEVCAT (FILEVC) (09:45) (22MAR04) Node Balance - Collapse                                                                Page  124
0Current Usings:  (NTRY,R1) (DSKBLK,R2) (NODE,R3) (RQB,R5) (*,R6) (*,R7) (CHKPNT,R8) (FSB,R10)
0Loc    Object Code    Addr1 Addr2  Stmt Lv Lineno    Source Statement           (Hibal 5, Asmedit 3.3)  HLASM R4.0  2004/03/22 09.45
+___    ______ ____    _____ _____  ____ __ ______    ______ _________
00027D8 5810 8028            00028 16576  2          +
 0027DC 5890 6DD2/0D99       02D80 16579  2          +
 0027E2 4770 6DA0            02D4E 16589  2          +
 0027E6 4830 8036            00036 16595  2 3371.                  LH    NOD,CHKCURN             RELEASE CURRENT NODE
 0027EA 5E30 8030            00030 16596  2 3372.                  AL    NOD,CHKCURA             |
 0027EE 48F0 8036            00036 16597  2 3373.                  RELNODE CHKCURN,NODLEN,CHKCURA,ERR=NBERROR
 0027F2 4800 3000            00000 16603  2          +
 0027F6 5810 8030            00030 16607  2          +
 0027FA 5890 6DD2/0D99       02D80 16610  2          +
 002800 4770 6DA0            02D4E 16620  2          +
 002804 4830 8026            00026 16626  2 3374.                  LH    NOD,CHKPARN             SET PAR AS LEAF
 002808 5E30 8020            00020 16627  2 3375.                  AL    NOD,CHKPARA             |
 00280C 9104 801C      0001C       16628  2 3376.                  IF    CHKFLEAF,'SET NODFLEAF '         |
 002810 47E0 686A            02818 16638  2          +
 002814 9640 3006      00006       16649  2          +
 002818 4810 3004            00004 16654  2 3377.                  LH    IX,NODSPACE             | IX = Free space
 00281C 9180 801C      0001C       16655  2 3378.                  IF    CHKFACC,BEGIN           ACCOUNT NODE
 002820 47E0 687E            0282C 16665  2          +
 002824 4800 A0BA            000BA 16670  3 3379.                    LH    MIX,FSBNAXSP            MIX = Max free space in node
 002828 48E0 A0BC            000BC 16671  3 3380.                    LH    CNT,FSBNANSP            CNT = Min free space in node
 00282C 6882           0282C 02822 16672  2 3381.                  END   ELSE,BEGIN              FILE NODE
 00282C 47F0 688A            02838 16681  2          +
 002830 4800 A0C6            000C6 16687  3 3382.                    LH    MIX,FSBNFXSP            MIX = Max free space in node
 002834 48E0 A0C8            000C8 16688  3 3383.                    LH    CNT,FSBNFNSP            CNT = Min free space in node
 002838                            16689  2 3384.                  END   ,                       OF FILE NODE
 002838 94E7 3006      00006       16693  2 3385.                  CLEAR NODFEMT+NODFFUL
 00283C 9120 3006      00006       16703  2 3386.                  IF    (NODFTRT),BEGIN         TREE ROOT
 002840 47E0 68AE            0285C 16713  2          +
 002844                            16718  3 3387.                    IF    (NODNTNUM,LT,1),'SET NODFEMT '
 002844 D501 6DDE 3002 02D8C 00002 16730  3          +
 00284A 47D0 68A4            02852 16731  3          +
 00284E 9608 3006      00006       16742  3          +
 002852 191E/47B0 68AE       0285C 16747  3 3388.                    IF    (IX,LT,CNT),'SET NODFFUL '
 002858 9610 3006      00006       16768  3          +
 00285C 68B2           0285C 02842 16773  2 3389.                  END   ELSE,BEGIN              NOT TREE ROOT
 00285C 47F0 68C6            02874 16782  2          +
 002860 1910/47D0 68BC       0286A 16788  3 3390.                    IF    (IX,GT,MIX),'SET NODFEMT '
 002866 9608 3006      00006       16809  3          +
 00286A 191E/47B0 68C6       02874 16814  3 3391.                    IF    (IX,LT,CNT),'SET NODFFUL '
 002870 9610 3006      00006       16835  3          +
 002874                            16840  2 3392.                  END   ,                       OF NOT TREE ROOT
 002874 9210 8112      00112       16844  2 3393.                  MVI   CHKITYPE,CCHKRTCL       INDICATE ROOT COLLAPSE
 002878 D200 8113 801C 00113 0001C 16845  2 3394.                  MVC   CHKIFLG,CHKFLG          COPY FLAGS
 00287E D203 811A 8024 0011A 00024 16846  2 3395.                  MVC   CHKIRCPB(PL),CHKPARB    PARENT ADDRESS
 002884 D203 811E 802C 0011E 0002C 16847  2 3396.                  MVC   CHKIRCLB(PL),CHKLFTB    LEFT NODE ADDRESS
 00288A D203 8122 8034 00122 00034 16848  2 3397.                  MVC   CHKIRCCB(PL),CHKCURB    CURRENT NODE ADDRESS
 002890 4140 0003            00003 16849  2 3398.                  LA    QR,3                    UPDATE BALANCE WRITE COUNTS
 002894 5A40 A10C            0010C 16850  2 3399.                  A     QR,FSBCTBWR             |
 002898 5040 A10C            0010C 16851  2 3400.                  ST    QR,FSBCTBWR             |
                                   16852  2 3401.     *   Intentions not done here.  Worst case, if parent is written first,
                                   16853  2 3402.     * is 2 lost catalog blocks.
                                   16854  2 3403.     *        IWRITE ERR=NBERROR
 00289C 4800 8024/1BFF       00024 16855  2 3404.                  DWRITE CHKPARB,ERR=NBERROR
 0028A2 4D90 7136            00166 16865  2          +
1FILEVCAT (FILEVC) (09:45) (22MAR04) Node Balance - Collapse                                                                Page  125
0Current Usings:  (NTRY,R1) (DSKBLK,R2) (NODE,R3) (RQB,R5) (*,R6) (*,R7) (CHKPNT,R8) (FSB,R10)
0Loc    Object Code    Addr1 Addr2  Stmt Lv Lineno    Source Statement           (Hibal 5, Asmedit 3.3)  HLASM R4.0  2004/03/22 09.45
+___    ______ ____    _____ _____  ____ __ ______    ______ _________
00028A6 4800 802C/1BFF       0002C 16867  2 3405.                  DWRITE CHKLFTB,ERR=NBERROR    Potential lost block
 0028AC 4D90 7136            00166 16877  2          +
 0028B0 4800 8034/1BFF       00034 16879  2 3406.                  DWRITE CHKCURB,ERR=NBERROR    Potential lost block
 0028B6 4D90 7136            00166 16889  2          +
 0028BA                            16891  2 3407.                  CLEAR CHKIVLV1
 0028BA D741 8112 8112 00112 00112 16897  2          +
                                   16898  2 3408.     *        IWRITE ERR=NBERROR
 0028C0 47F0 6D66            02D14 16899  2 3409.                  B     NODBALX
 0028C4                            16900  1 3410.                END   ,                       OF ROOT COLLAPSE
1FILEVCAT (FILEVC) (09:45) (22MAR04) Node Balance - Collapse                                                                Page  126
0Current Usings:  (NTRY,R1) (DSKBLK,R2) (NODE,R3) (RQB,R5) (*,R6) (*,R7) (CHKPNT,R8) (FSB,R10)
0Loc    Object Code    Addr1 Addr2  Stmt Lv Lineno    Source Statement           (Hibal 5, Asmedit 3.3)  HLASM R4.0  2004/03/22 09.45
+___    ______ ____    _____ _____  ____ __ ______    ______ _________
0                                  16905  1 3412.     *
                                   16906  1 3413.     * Collapse sibling nodes
                                   16907  1 3414.                XTRC  RQBR,RQBR,CATBALCO
 0028C4 5890 6DCE/0D99       02D7C 16909  1 3415.                ACALL PARNTRY                 ADDR TO PAR ENTRYS
 0028CA 4830 8036            00036 16913  1 3416.                LH    NOD,CHKCURN             RPAR_PTR := CUR_END_PTR
 0028CE 5E30 8030            00030 16914  1 3417.                AL    NOD,CHKCURA             |
 0028D2 9180 801C      0001C       16915  1 3418.                IF    CHKFACC,'LH CNT,FSBNASPA '       |
 0028D6 47E0 6930            028DE 16925  1          +
 0028DA 48E0 A0B4            000B4 16931  1          +
 0028DE 6934           028DE 028D8 16936  1 3419.                ELSE  'LH CNT,FSBNFSPA '      |
 0028DE 47F0 6938            028E6 16941  1          +
 0028E2 48E0 A0C0            000C0 16948  1          +
 0028E6 4BE0 3004            00004 16953  1 3420.                SH    CNT,NODSPACE            |
 0028EA 40E0 80A4            000A4 16954  1 3421.                STH   CNT,CHKBCLN             | (LEN)
 0028EE 411E 3008            00008 16955  1 3422.                LA    IX,NODNTRYS(CNT)        | CUR_END
 0028F2 41F0 1002            00002 16956  1 3423.                LA    PTR,NTRYOFFB            | CUR_END_OFFSPRING
 0028F6 5810 8094            00094 16957  1 3424.                L     IX,CHKBRPA              |
 0028FA D203 1002 F000 00002 00000 16958  1 3425.                MVC   NTRYOFFB(PL),@PTR       | PAR_PTR := CUR_END_PT
                                   16959  1 3426.
 002900 4830 802E            0002E 16960  1 3427.                LH    NOD,CHKLFTN             LPAR_PTR := LFT_END_PTR
 002904 5E30 8028            00028 16961  1 3428.                AL    NOD,CHKLFTA             |
 002908 9180 801C      0001C       16962  1 3429.                IF    CHKFACC,'LH CNT,FSBNASPA '       |
 00290C 47E0 6966            02914 16972  1          +
 002910 48E0 A0B4            000B4 16978  1          +
 002914 696A           02914 0290E 16983  1 3430.                ELSE  'LH CNT,FSBNFSPA '      |
 002914 47F0 696E            0291C 16988  1          +
 002918 48E0 A0C0            000C0 16995  1          +
 00291C 4BE0 3004            00004 17000  1 3431.                SH    CNT,NODSPACE            |
 002920 411E 3008            00008 17001  1 3432.                LA    IX,NODNTRYS(CNT)        | LEFT_END
 002924 5010 8084            00084 17002  1 3433.                ST    IX,CHKBLAD              | LEFT ADDR
 002928 41F0 1002            00002 17003  1 3434.                LA    PTR,NTRYOFFB            | LEFT_END_OFFSPRING
 00292C 5810 8090            00090 17004  1 3435.                L     IX,CHKBLPA              |
 002930 D203 1002 F000 00002 00000 17005  1 3436.                MVC   NTRYOFFB(PL),@PTR       | PAR_PTR := LFT_END_PT
                                   17006  1 3437.
 002936 D203 807C 8090 0007C 00090 17007  1 3438.                MVC   CHKBSAD,CHKBLPA         SOURCE
 00293C D201 809C 80A8 0009C 000A8 17008  1 3439.                MVC   CHKBSLN,CHKBLPL         | LEN
 002942                            17009  1 3440.                IF    (NODSPACE,GE,CHKBLPL),BEGIN      PUT LEFT PAR IN LFT
 002942 D501 3004 80A8 00004 000A8 17021  1          +
 002948 4750 6A32            029E0 17022  1          +
 00294C D203 8080 8084 00080 00084 17027  2 3441.                  MVC   CHKBDAD,CHKBLAD         DEST
 002952 4810 8026            00026 17028  2 3442.                  NTRYMOV SRC=PAR,DEST=LFT      MOVE LFT_PAR TO LEFT
 002956 5E10 8020            00020 17031  2          +
 00295A 48F0 802E            0002E 17032  2          +
 00295E 5EF0 8028            00028 17033  2          +
 002962 5890 6DCA/0D99       02D78 17036  2          +
 002968 4830 802E            0002E 17038  2 3443.                  LH    NOD,CHKLFTN             SPACE AVAIL IN LFT
 00296C 5E30 8028            00028 17039  2 3444.                  AL    NOD,CHKLFTA             |
 002970 48E0 3004            00004 17040  2 3445.                  LH    CNT,NODSPACE            | CNT = SPACE AVAIL
 002974 4830 8036            00036 17041  2 3446.                  LH    NOD,CHKCURN             ADDR TO CUR ENTRYS
 002978 5E30 8030            00030 17042  2 3447.                  AL    NOD,CHKCURA             |
 00297C 4110 3008            00008 17043  2 3448.                  LA    IX,NODNTRYS             |
 002980 1801                       17044  2 3449.                  LR    MIX,IX                  | START OF CUR ENTRYS
 002982 4840 1000            00000 17045  2 3450.     NBCLFUL      LH    QR,NTRYLEN              |
 002986 5940 6DB2            02D60 17046  2 3451.                  C     QR,=&L.AL1(NIL)         |
1FILEVCAT (FILEVC) (09:45) (22MAR04) Node Balance - Collapse                                                                Page  127
0Current Usings:  (NTRY,R1) (DSKBLK,R2) (NODE,R3) (RQB,R5) (*,R6) (*,R7) (CHKPNT,R8) (FSB,R10)
0Loc    Object Code    Addr1 Addr2  Stmt Lv Lineno    Source Statement           (Hibal 5, Asmedit 3.3)  HLASM R4.0  2004/03/22 09.45
+___    ______ ____    _____ _____  ____ __ ______    ______ _________
000298A 4780 69F0/19E4       0299E 17047  2 3452.                  IF    (NE,AND,(CNT,GE,QR)),BEGIN       ROOM FOR ANOTHER
 002990 4750 69F0            0299E 17067  2          +
 002994 1BE4                       17072  3 3453.                    SR    CNT,QR                  DECR FREE SPACE
 002996 4114 1000            00000 17073  3 3454.                    LA    IX,NTRY(QR)             NEXT ENTRY
 00299A 47F0 69D4            02982 17074  3 3455.                    B     NBCLFUL                 Node_Bal_Col_Left_FULl
 00299E                            17075  2 3456.                  END   ,                       OF ROOM FOR ANOTHER
 00299E 5000 8088            00088 17079  2 3457.                  ST    MIX,CHKBCAD             ADDR OF CURRENT ENTRYS
 0029A2 1B10                       17080  2 3458.                  SR    IX,MIX                  | LEN
 0029A4 4010 80A4            000A4 17081  2 3459.                  STH   IX,CHKBCLN              | |
 0029A8                            17082  2 3460.                  IF    (CHKBCLN,NZ),BEGIN      MOVE CUR ENTRYS => LFT
 0029A8 D601 80A4 80A4 000A4 000A4 17092  2          +
 0029AE 4780 6A32            029E0 17093  2          +
 0029B2 D203 807C 8088 0007C 00088 17098  3 3461.                    MVC   CHKBSAD,CHKBCAD         SOURCE
 0029B8 D201 809C 80A4 0009C 000A4 17099  3 3462.                    MVC   CHKBSLN,CHKBCLN         | LEN
 0029BE 58E0 8080            00080 17100  3 3463.                    L     CNT,CHKBDAD             DEST
 0029C2 4AE0 80A8            000A8 17101  3 3464.                    AH    CNT,CHKBLPL             | + LEFT PAR LEN
 0029C6 50E0 8080            00080 17102  3 3465.                    ST    CNT,CHKBDAD             |
 0029CA 4810 8036            00036 17103  3 3466.                    NTRYMOV SRC=CUR,DEST=LFT      |
 0029CE 5E10 8030            00030 17106  3          +
 0029D2 48F0 802E            0002E 17107  3          +
 0029D6 5EF0 8028            00028 17108  3          +
 0029DA 5890 6DCA/0D99       02D78 17111  3          +
 0029E0                            17113  2 3467.                  END   ,                       OF MOV CUR NTRYS => LFT
 0029E0                            17117  1 3468.                END   ,                       OF PUT LEFT PAR IN LFT
 0029E0 6A36           029E0 0294A 17121  1 3469.                ELSE  BEGIN                   PUT LEFT PAR IN CUR
 0029E0 47F0 6A74            02A22 17126  1          +
 0029E4 4830 8036            00036 17132  2 3470.                  LH    NOD,CHKCURN             ADDR TO CUR
 0029E8 5E30 8030            00030 17133  2 3471.                  AL    NOD,CHKCURA             |
 0029EC                            17134  2 3472.                  IF    (NODSPACE,LT,CHKBLPL),BEGIN      NO ROOM !!!
 0029EC D501 3004 80A8 00004 000A8 17146  2          +
 0029F2 47B0 6A56            02A04 17147  2          +
                                   17152  3 3473.     *                 With collapse, if one node is full (no room for left
                                   17153  3 3474.     *               parent) then the other nodes in balance should have
                                   17154  3 3475.     *               ample room.
 0029F6 5890 6DB6/0D99       02D64 17155  3 3476.                    ABORT  CATCOLAP               COLLAPSE LOGICAL ERROR
 0029FC C3C1E3C3D6D3C1D7           17160  3          +
 002A04                            17161  2 3477.                  END   ,                       OF NO ROOM !!!
 002A04 4110 3008            00008 17165  2 3478.                  LA    IX,NODNTRYS             DEST
 002A08 5010 8080            00080 17166  2 3479.                  ST    IX,CHKBDAD              |
 002A0C 4810 8026            00026 17167  2 3480.                  NTRYMOV SRC=PAR,DEST=CUR      MOVE LFT_PAR => CUR
 002A10 5E10 8020            00020 17170  2          +
 002A14 48F0 8036            00036 17171  2          +
 002A18 5EF0 8030            00030 17172  2          +
 002A1C 5890 6DCA/0D99       02D78 17175  2          +
 002A22                            17177  1 3481.                END   ,                       OF PUT LEFT PAR IN CUR
 002A22 D203 8094 8090 00094 00090 17181  1 3482.                MVC   CHKBRPA,CHKBLPA         RHT = OLD LFT PAR PLACE
-002A28 4830 8036            00036 17183  1 3484.                LH    NOD,CHKCURN             ADDR TO CUR
 002A2C 5E30 8030            00030 17184  1 3485.                AL    NOD,CHKCURA             |
 002A30 9180 801C      0001C       17185  1 3486.                IF    CHKFACC,'LH CNT,FSBNASPA '       CNT = SPACE USED
 002A34 47E0 6A8E            02A3C 17195  1          +
 002A38 48E0 A0B4            000B4 17201  1          +
 002A3C 6A92           02A3C 02A36 17206  1 3487.                ELSE  'LH CNT,FSBNFSPA '      |
1FILEVCAT (FILEVC) (09:45) (22MAR04) Node Balance - Collapse                                                                Page  128
0Current Usings:  (NTRY,R1) (DSKBLK,R2) (NODE,R3) (RQB,R5) (*,R6) (*,R7) (CHKPNT,R8) (FSB,R10)
0Loc    Object Code    Addr1 Addr2  Stmt Lv Lineno    Source Statement           (Hibal 5, Asmedit 3.3)  HLASM R4.0  2004/03/22 09.45
+___    ______ ____    _____ _____  ____ __ ______    ______ _________
0002A3C 47F0 6A96            02A44 17211  1          +
 002A40 48E0 A0C0            000C0 17218  1          +
 002A44 4BE0 3004            00004 17223  1 3488.                SH    CNT,NODSPACE            |
 002A48 12EE/47D0 6B6E       02B1C 17224  1 3489.                IF    (CNT,POS),BEGIN         STILL SPACE TO MOVE OUT
 002A4E 4110 3008            00008 17238  2 3490.                  LA    IX,NODNTRYS             ADDR TO ENTRYS
 002A52 4840 1000            00000 17239  2 3491.                  LH    QR,NTRYLEN              NEW PARENT LEN
 002A56 5010 8098            00098 17240  2 3492.                  ST    IX,CHKBNPA              NEW PARENT ADDRESS
 002A5A 4040 80AC            000AC 17241  2 3493.                  STH   QR,CHKBNPL              | LEN
 002A5E 1BE4                       17242  2 3494.                  SR    CNT,QR                  SUBTRACT NEW PARENT LEN
 002A60 4114 1000            00000 17243  2 3495.                  LA    IX,NTRY(QR)             NEW CURRENT ADDR
 002A64 5010 8088            00088 17244  2 3496.                  ST    IX,CHKBCAD              |
 002A68 40E0 80A4            000A4 17245  2 3497.                  STH   CNT,CHKBCLN             | LEN (TO MOVE RHT)
 002A6C 4830 803E            0003E 17246  2 3498.                  LH    NOD,CHKRHTN             ADDR TO RIGHT
 002A70 5E30 8038            00038 17247  2 3499.                  AL    NOD,CHKRHTA             |
 002A74 4840 80AA            000AA 17248  2 3500.                  LH    QR,CHKBRPL              QR = TOTAL TO MOVE RHT
 002A78 1A4E                       17249  2 3501.                  AR    QR,CNT                  |
 002A7A 9101 801C      0001C       17250  2 3502.                  IF    (~CHKFRHTU,OR,(QR,GT,NODSPACE)),BEGIN    CAN'T COLLAPSE
 002A7E 47E0 6ADC            02A8A 17264  2          +
 002A82 4940 3004            00004 17275  2          +
 002A86 47D0 6AEA            02A98 17276  2          +
                                   17281  3 3503.     *                 With collapse, if one node is full (no room for left
                                   17282  3 3504.     *               parent) then the other nodes in balance should have
                                   17283  3 3505.     *               ample room.
 002A8A 5890 6DB6/0D99       02D64 17284  3 3506.                    ABORT  CATCOLAP               COLLAPSE LOGICAL ERROR
 002A90 C3C1E3C3D6D3C1D7           17289  3          +
 002A98                            17290  2 3507.                  END   ,                       OF CAN'T COLLAPSE
 002A98 4110 3008            00008 17294  2 3508.                  LA    IX,NODNTRYS             START OF RIGHT ENTRYS
 002A9C 5010 808C            0008C 17295  2 3509.                  ST    IX,CHKBRAD              |
                                   17296  2 3510.     *               Move entrys
 002AA0 D203 807C 8094 0007C 00094 17297  2 3511.                  MVC   CHKBSAD,CHKBRPA         SOURCE LOC
 002AA6 D201 809C 80AA 0009C 000AA 17298  2 3512.                  MVC   CHKBSLN,CHKBRPL         | LEN
 002AAC D203 8080 808C 00080 0008C 17299  2 3513.                  MVC   CHKBDAD,CHKBRAD         DEST LOC
 002AB2 4810 8026            00026 17300  2 3514.                  NTRYMOV SRC=PAR,DEST=RHT      MOVE Rht_Par => Rht
 002AB6 5E10 8020            00020 17303  2          +
 002ABA 48F0 803E            0003E 17304  2          +
 002ABE 5EF0 8038            00038 17305  2          +
 002AC2 5890 6DCA/0D99       02D78 17308  2          +
 002AC8                            17310  2 3515.                  IF    (CHKBCLN,NZ),BEGIN      MOVE Cur_Entrys => Rht
 002AC8 D601 80A4 80A4 000A4 000A4 17320  2          +
 002ACE 4780 6B46            02AF4 17321  2          +
 002AD2 D203 807C 8088 0007C 00088 17326  3 3516.                    MVC   CHKBSAD,CHKBCAD         SOURCE LOC
 002AD8 D201 809C 80A4 0009C 000A4 17327  3 3517.                    MVC   CHKBSLN,CHKBCLN         | LEN (SAME DEST)
 002ADE 4810 8036            00036 17328  3 3518.                    NTRYMOV SRC=CUR,DEST=RHT      MOVE Cur_Entrys => Rht
 002AE2 5E10 8030            00030 17331  3          +
 002AE6 48F0 803E            0003E 17332  3          +
 002AEA 5EF0 8038            00038 17333  3          +
 002AEE 5890 6DCA/0D99       02D78 17336  3          +
 002AF4                            17338  2 3519.                  END   ,                       OF MOVE Cur_Entrys => Rht
 002AF4 D203 807C 8098 0007C 00098 17342  2 3520.                  MVC   CHKBSAD,CHKBNPA         SOURCE LOC (New_Par)
 002AFA D201 809C 80AC 0009C 000AC 17343  2 3521.                  MVC   CHKBSLN,CHKBNPL         | LEN
 002B00 D203 8080 8094 00080 00094 17344  2 3522.                  MVC   CHKBDAD,CHKBRPA         DEST LOC (Right_Par)
 002B06 4810 8036            00036 17345  2 3523.                  NTRYMOV SRC=CUR,DEST=PAR      MOVE New_Par => Par
 002B0A 5E10 8030            00030 17348  2          +
 002B0E 48F0 8026            00026 17349  2          +
1FILEVCAT (FILEVC) (09:45) (22MAR04) Node Balance - Collapse                                                                Page  129
0Current Usings:  (NTRY,R1) (DSKBLK,R2) (NODE,R3) (RQB,R5) (*,R6) (*,R7) (CHKPNT,R8) (FSB,R10)
0Loc    Object Code    Addr1 Addr2  Stmt Lv Lineno    Source Statement           (Hibal 5, Asmedit 3.3)  HLASM R4.0  2004/03/22 09.45
+___    ______ ____    _____ _____  ____ __ ______    ______ _________
0002B12 5EF0 8020            00020 17350  2          +
 002B16 5890 6DCA/0D99       02D78 17353  2          +
 002B1C                            17355  1 3524.                END   ,                       OF STILL SPACE TO MOVE OUT
                                   17359  1 3525.     *               Change offspring pointers of entrys to be moved
 002B1C 4830 802E            0002E 17360  1 3526.                LH    NOD,CHKLFTN             Lft_End := Rht_Par_Off
 002B20 5E30 8028            00028 17361  1 3527.                AL    NOD,CHKLFTA             |
 002B24 9180 801C      0001C       17362  1 3528.                IF    CHKFACC,'LH CNT,FSBNASPA '       |
 002B28 47E0 6B82            02B30 17372  1          +
 002B2C 48E0 A0B4            000B4 17378  1          +
 002B30 6B86           02B30 02B2A 17383  1 3529.                ELSE  'LH CNT,FSBNFSPA '      |
 002B30 47F0 6B8A            02B38 17388  1          +
 002B34 48E0 A0C0            000C0 17395  1          +
 002B38 4BE0 3004            00004 17400  1 3530.                SH    CNT,NODSPACE            |
 002B3C 411E 3008            00008 17401  1 3531.                LA    IX,NODNTRYS(CNT)        | Left_End
 002B40 41F0 1002            00002 17402  1 3532.                LA    PTR,NTRYOFFB            | Left_End_Offsp
 002B44 5810 8094            00094 17403  1 3533.                L     IX,CHKBRPA              |
 002B48 D203 F000 1002 00000 00002 17404  1 3534.                MVC   @PTR(PL),NTRYOFFB       | Lft_End := Rht_Par
 002B4E D203 1002 802C 00002 0002C 17405  1 3535.                MVC   NTRYOFFB(PL),CHKLFTB    Par := Lft
 002B54 4830 8036            00036 17406  1 3536.                LH    NOD,CHKCURN             RELEASE CUR
 002B58 5E30 8030            00030 17407  1 3537.                AL    NOD,CHKCURA             |
 002B5C 48F0 8036            00036 17408  1 3538.                RELNODE CHKCURN,NODLEN,CHKCURA,ERR=NBERROR
 002B60 4800 3000            00000 17414  1          +
 002B64 5810 8030            00030 17418  1          +
 002B68 5890 6DD2/0D99       02D80 17421  1          +
 002B6E 4770 6DA0            02D4E 17431  1          +
 002B72 921C 8112      00112       17437  1 3539.                MVI   CHKITYPE,CCHKBDEL       INDICATE BAL W/ DEL
 002B76 D200 8113 801C 00113 0001C 17438  1 3540.                MVC   CHKIFLG,CHKFLG          COPY FLAGS
 002B7C                            17439  1 3541.                MVC   CHKIV1LN(1),=&L.AL1(NIL)         MAKE INTENT NIL
 002B7C D200 811A 6DB2 0011A 02D60        1          +
 002B82 D238 811B 811A 0011B 0011A 17440  1 3542.                MVC   CHKIV1LN+1(L'CHKIV1LN-1),CHKIV1LN
 002B88 D203 8128 8034 00128 00034 17441  1 3543.                MVC   CHKIBDOB(PL),CHKCURB    OLD NODE ADDRESS
 002B8E 5820 8030            00030 17442  1 3544.                L     DSK,CHKCURA             | PUT IN CLOCK TAG
 002B92 D201 812C 2000 0012C 00000 17443  1 3545.                MVC   CHKIBDOC,DSKTAG         |
 002B98 D207 8030 8038 00030 00038 17444  1 3546.                MVC   CHKCURP,CHKRHTP         RIGHT BECOMES CURRENT
 002B9E 94FE 801C      0001C       17445  1 3547.                CLEAR CHKFRHTU                RHT NO LONGER IN BAL
 002BA2 48E0 80B0/06E0       000B0 17452  1 3548.                DECR  CNT,CHKNODN             ONE LESS NODE IN BAL
 002BA8 40E0 80B0            000B0 17456  1          +
 002BAC D203 811A 8024 0011A 00024 17457  1 3549.                MVC   CHKIBDPB(PL),CHKPARB    PARENT ADDRESS
 002BB2 5820 8020            00020 17458  1 3550.                L     DSK,CHKPARA             | PUT IN CLOCK TAG
 002BB6 D201 811E 2000 0011E 00000 17459  1 3551.                MVC   CHKIBDPC,DSKTAG         |
 002BBC D203 8120 802C 00120 0002C 17460  1 3552.                MVC   CHKIBDLB(PL),CHKLFTB    LEFT NODE ADDRESS
 002BC2 D203 8124 8034 00124 00034 17461  1 3553.                MVC   CHKIBDCB(PL),CHKCURB    CURRENT NODE ADDRESS
                                   17462  1 3554.
 002BC8 4830 802E            0002E 17463  1 3555.                LH    NOD,CHKLFTN             TOTAL SPACE IN 2 NODES
 002BCC 5E30 8028            00028 17464  1 3556.                AL    NOD,CHKLFTA             |
 002BD0 48E0 3004            00004 17465  1 3557.                LH    CNT,NODSPACE            |
 002BD4 4830 8036            00036 17466  1 3558.                LH    NOD,CHKCURN             |
 002BD8 5E30 8030            00030 17467  1 3559.                AL    NOD,CHKCURA             |
 002BDC 4AE0 3004            00004 17468  1 3560.                AH    CNT,NODSPACE            |
 002BE0 40E0 80AE            000AE 17469  1 3561.                STH   CNT,CHKSPAC             |
 002BE4 4D90 6DE2            02D90 17470  1 3562.                LCALL NBBAL
 002BE8 4800 802C            0002C 17472  1 3563.                DDWRITE 1,CHKLFTB,ERR=NBERROR
 002BEC 41F0 0001            00001 17483  1          +
 002BF0 4D90 7420            00450 17485  1          +
1FILEVCAT (FILEVC) (09:45) (22MAR04) Node Balance - Collapse                                                                Page  130
0Current Usings:  (NTRY,R1) (DSKBLK,R2) (NODE,R3) (RQB,R5) (*,R6) (*,R7) (CHKPNT,R8) (FSB,R10)
0Loc    Object Code    Addr1 Addr2  Stmt Lv Lineno    Source Statement           (Hibal 5, Asmedit 3.3)  HLASM R4.0  2004/03/22 09.45
+___    ______ ____    _____ _____  ____ __ ______    ______ _________
0002BF4 4800 8034            00034 17487  1 3564.                DDWRITE 2,CHKCURB,ERR=NBERROR
 002BF8 41F0 0002            00002 17498  1          +
 002BFC 4D90 7420            00450 17500  1          +
 002C00 4140 0002            00002 17502  1 3565.                LA    QR,2                    UPDATE BALANCE WRITE COUNTS
 002C04 4A40 80B0            000B0 17503  1 3566.                AH    QR,CHKNODN              | NUM OF SIBS + deleted + PAR
 002C08 5A40 A10C            0010C 17504  1 3567.                A     QR,FSBCTBWR             |
 002C0C 5040 A10C            0010C 17505  1 3568.                ST    QR,FSBCTBWR             |
 002C10 4D90 74C2            004F2 17506  1 3569.                IWRITE ERR=NBERROR
 002C14 4800 8024/1BFF       00024 17511  1 3570.                DWRITE CHKPARB,ERR=NBERROR
 002C1A 4D90 7136            00166 17521  1          +
 002C1E 4800 802C/1BFF       0002C 17523  1 3571.                DWRITE CHKLFTB,ERR=NBERROR
 002C24 4D90 7136            00166 17533  1          +
 002C28 4800 8034/1BFF       00034 17535  1 3572.                DWRITE CHKCURB,ERR=NBERROR
 002C2E 4D90 7136            00166 17545  1          +
 002C32 4800 8128/1BFF       00128 17547  1 3573.                DWRITE CHKIBDOB,ERR=NBERROR   OLD CUR THAT WAS DELETED
 002C38 4D90 7136            00166 17557  1          +
 002C3C                            17559  1 3574.                CLEAR CHKIVLV1
 002C3C D741 8112 8112 00112 00112 17565  1          +
 002C42 4D90 74C2            004F2 17566  1 3575.                IWRITE ERR=NBERROR
 002C46 47F0 6D66            02D14 17571  1 3576.                B     NODBALX
 002C4A                            17572    3577.              END   ,                       OF BALANCE WITH COLLAPSE
 DROP   NTRY,R1                    17576    3578.              DROP  IX
1FILEVCAT (FILEVC) (09:45) (22MAR04) Node Balance - Using present nodes                                                     Page  131
0Current Usings:  (DSKBLK,R2) (NODE,R3) (RQB,R5) (*,R6) (*,R7) (CHKPNT,R8) (FSB,R10)
0Loc    Object Code    Addr1 Addr2  Stmt Lv Lineno    Source Statement           (Hibal 5, Asmedit 3.3)  HLASM R4.0  2004/03/22 09.45
+___    ______ ____    _____ _____  ____ __ ______    ______ _________
0                                  17584    3580.              XTRC  RQBR,RQBR,CATBAL
 002C4A 4D90 6DE2            02D90 17586    3581.              LCALL NBBAL                   BALANCE AMONG PRESENT NODES
                                   17588    3582.     *               Format Checkpoint Block
 002C4E 9214 8112      00112       17589    3583.              MVI   CHKITYPE,CCHKNBAL       INDICATE NODE BAL
 002C52 D200 8113 801C 00113 0001C 17590    3584.              MVC   CHKIFLG,CHKFLG          COPY FLAGS
 002C58                            17591    3585.              MVC   CHKIV1LN(1),=&L.AL1(NIL)         MAKE INTENT NIL
 002C58 D200 811A 6DB2 0011A 02D60                   +
 002C5E D238 811B 811A 0011B 0011A 17592    3586.              MVC   CHKIV1LN+1(L'CHKIV1LN-1),CHKIV1LN
 002C64 D203 811A 8024 0011A 00024 17593    3587.              MVC   CHKINBPB(PL),CHKPARB    PARENT ADDRESS
 002C6A 5820 8020            00020 17594    3588.              L     DSK,CHKPARA             | PUT IN CLOCK TAG
 002C6E D201 811E 2000 0011E 00000 17595    3589.              MVC   CHKINBPC,DSKTAG         |
 002C74 D203 8120 802C 00120 0002C 17596    3590.              MVC   CHKINBLB(PL),CHKLFTB    LEFT NODE ADDRESS
 002C7A D203 8124 8034 00124 00034 17597    3591.              MVC   CHKINBCB(PL),CHKCURB    CURRENT NODE ADDRESS
 002C80 D203 8128 803C 00128 0003C 17598    3592.              MVC   CHKINBRB(PL),CHKRHTB    RIGHT NODE ADDRESS
                                   17599    3593.     *               Double write blocks (Left, Current, and Right)
 002C86 9102 801C      0001C       17600    3594.              IF    CHKFLFTU,BEGIN          LEFT IN BALANCE
 002C8A 47E0 6CEC            02C9A 17610             +
 002C8E 4800 802C            0002C 17615  1 3595.                DDWRITE 1,CHKLFTB,ERR=NBERROR
 002C92 41F0 0001            00001 17626  1          +
 002C96 4D90 7420            00450 17628  1          +
 002C9A                            17630    3596.              END   ,                       OF LEFT IN BALANCE
 002C9A 4800 8034            00034 17634    3597.              DDWRITE 2,CHKCURB,ERR=NBERROR
 002C9E 41F0 0002            00002 17645             +
 002CA2 4D90 7420            00450 17647             +
 002CA6 9101 801C      0001C       17649    3598.              IF    CHKFRHTU,BEGIN          RIGHT IN BALANCE
 002CAA 47E0 6D0C            02CBA 17659             +
 002CAE 4800 803C            0003C 17664  1 3599.                DDWRITE 3,CHKRHTB,ERR=NBERROR
 002CB2 41F0 0003            00003 17675  1          +
 002CB6 4D90 7420            00450 17677  1          +
 002CBA                            17679    3600.              END   ,                       OF RIGHT IN BALANCE
 002CBA 4840 80B0            000B0 17683    3601.              LH    QR,CHKNODN              UPDATE BALANCE WRITE COUNTS
 002CBE 5E40 6DC2            02D70 17684    3602.              INCR  QR                      | NUM OF SIBS + PAR
 002CC2 5A40 A10C            0010C 17687    3603.              A     QR,FSBCTBWR             |
 002CC6 5040 A10C            0010C 17688    3604.              ST    QR,FSBCTBWR             |
 002CCA 4D90 74C2            004F2 17689    3605.              IWRITE ERR=NBERROR
 002CCE 4800 8024/1BFF       00024 17694    3606.              DWRITE CHKPARB,ERR=NBERROR    WRITE PARENT BLOCK
 002CD4 4D90 7136            00166 17704             +
 002CD8 9102 801C      0001C       17706    3607.              IF    CHKFLFTU,BEGIN          LEFT IN BALANCE
 002CDC 47E0 6D3C            02CEA 17716             +
 002CE0 4800 802C/1BFF       0002C 17721  1 3608.                DWRITE CHKLFTB,ERR=NBERROR
 002CE6 4D90 7136            00166 17731  1          +
 002CEA                            17733    3609.              END   ,                       OF LEFT IN BALANCE
 002CEA 4800 8034/1BFF       00034 17737    3610.              DWRITE CHKCURB,ERR=NBERROR    WRITE CUR BLOCK
 002CF0 4D90 7136            00166 17747             +
 002CF4 9101 801C      0001C       17749    3611.              IF    CHKFRHTU,BEGIN          RIGHT IN BALANCE
 002CF8 47E0 6D58            02D06 17759             +
 002CFC 4800 803C/1BFF       0003C 17764  1 3612.                DWRITE CHKRHTB,ERR=NBERROR
 002D02 4D90 7136            00166 17774  1          +
 002D06                            17776    3613.              END   ,                       OF RIGHT IN BALANCE
 002D06                            17780    3614.              CLEAR CHKIVLV1                CLR 1ST LEVEL INTENTIONS; DONE
 002D06 D741 8112 8112 00112 00112 17786             +
 002D0C 4D90 74C2            004F2 17787    3615.              IWRITE ERR=NBERROR            | WRITE INTENTIONS DONE
 002D10 47F0 6D66            02D14 17792    3616.              B     NODBALX
1FILEVCAT (FILEVC) (09:45) (22MAR04) Node Balance - Exit                                                                    Page  132
0Current Usings:  (DSKBLK,R2) (NODE,R3) (RQB,R5) (*,R6) (*,R7) (CHKPNT,R8) (FSB,R10)
0Loc    Object Code    Addr1 Addr2  Stmt Lv Lineno    Source Statement           (Hibal 5, Asmedit 3.3)  HLASM R4.0  2004/03/22 09.45
+___    ______ ____    _____ _____  ____ __ ______    ______ _________
0                                  17794    3618.     *
                                   17795    3619.     * RETURN W/ ADDRESSABILITY TO PARENT
 002D14 D207 8030 8020 00030 00020 17796    3620.     NODBALX  MVC   CHKCURP,CHKPARP         MAKE PARENT CURRENT
 002D1A 48F0 8606/06F0       00606 17797    3621.              DECR  PTR,CHKSTKP             POP TO PARENT'S LEVEL
 002D20 40F0 8606            00606 17801             +
 002D24                            17802    3622.     NODBALPX MVC   CHKPARB(PL),=&L.AL1(NIL)         |
 002D24 D203 8024 6DB2 00024 02D60                   +
 002D2A                            17803    3623.              MVC   CHKLFTB(PL),=&L.AL1(NIL)         LEFT SIBLING POINTER
 002D2A D203 802C 6DB2 0002C 02D60                   +
 002D30                            17804    3624.              MVC   CHKRHTB(PL),=&L.AL1(NIL)         RIGHT SIBLING POINTER
 002D30 D203 803C 6DB2 0003C 02D60                   +
 002D36 4800 8034/1BFF       00034 17805    3625.              DREAD CHKCURB,ERR=NBERROR     CUR = LEAST RECENTLY ACCESSED
 002D3C 4D90 7032            00062 17815             +
 002D40 4830 8036            00036 17817    3626.              LH    NOD,CHKCURN             ADDR TO CUR (OLD PAR)
 002D44 4133 2000            00000 17818    3627.              LA    NOD,DSKBLK(NOD)         |
 002D48 94FB 801C      0001C       17819    3628.              CLEAR CHKFLEAF
 002D4C 1BFF                       17826    3629.              CLEAR R15
 002D4E 4BD0 6DE0            02D8E 17830    3630.     NBERROR  DIREST FBR,RAR
 002D52 5860 D000            00000 17834             +
 002D56 5890 D004            00004 17835             +
 002D5A 12FF                       17836    3631.              LTR   R15,R15                 SET CC
 002D5C 07F9                       17837    3632.              BR    RAR
 DROP   NODE,R3                    17838    3633.              DROP  NOD
 002D60                            17845    3634.              LTORG ,
 002D60 FFFFFFFF                   17847                             =4AL1(NIL)
 002D64 00000000                   17848                             =V(VKAPUT)
 002D68 00000002                   17849                             =A(2)
 002D6C 00000003                   17850                             =A(3)
 002D70 00000001                   17851                             =A(1)
 002D74 00001BE0                   17852                             =A(GETNODE)
 002D78 0000361E                   17853                             =A(NTRYMOV)
 002D7C 0000356C                   17854                             =A(PARNTRY)
 002D80 00001E82                   17855                             =A(RELNODE)
 002D84 0002                       17856                             =AL2(2)
 002D86 0003                       17857                             =Y(3)
 002D88 0006                       17858                             =Y(6)
 002D8A 0002                       17859                             =Y(2)
 002D8C 0001                       17860                             =AL2(1)
 002D8E 0008           02D90 046CB 17861                             =Y(2*4)
1FILEVCAT (FILEVC) (09:45) (22MAR04) Inner Balance                                                                          Page  133
0Current Usings:  (DSKBLK,R2) (RQB,R5) (*,R6) (*,R7) (CHKPNT,R8) (FSB,R10)
0Loc    Object Code    Addr1 Addr2  Stmt Lv Lineno    Source Statement           (Hibal 5, Asmedit 3.3)  HLASM R4.0  2004/03/22 09.45
+___    ______ ____    _____ _____  ____ __ ______    ______ _________
0                                  17866    3636.     *********************************************************************
                                   17867    3637.     * NBBAL - Balance among given nodes                                 *
                                   17868    3638.     * ON ENTRY: CHKNODN indicates how many nodes are in the balance     *
                                   17869    3639.     *           CHKSPAC indicates how much space is in these nodes      *
                                   17870    3640.     *           CHKFLFTU and CHKFRHTU flags indicate if the             *
                                   17871    3641.     *             respective left and right nodes are in the balance    *
                                   17872    3642.     *           The left, current, right, and parent pointers are       *
                                   17873    3643.     *             assumed to be initialized and the nodes in memory     *
                                   17874    3644.     *           This routine should be called only if there is enough   *
                                   17875    3645.     *             room to avoid a collapse or split                     *
                                   17876    3646.     * ON EXIT:  The balance is complete among the given nodes.          *
                                   17877    3647.     *********************************************************************
                                   17878    3648.     *NEST,1
 USING  NODE,R3                    17879    3649.              USING NODE,NOD
 USING  NTRY,R1                    17888    3650.              USING NTRY,IX
 002D90 5060 D000            00000 17897    3651.     NBBAL    DIRENT FBR,RAR
 002D94 5090 D004            00004 17902             +
 002D98 41D0 D008/0D60       00008 17903             +
 002D9E 947F 801D      0001D       17921    3652.     NBREBAL  CLEAR CHKFBAL                 INIT FLAG FOR NO 2ND PASS
 DROP   *,R6
 USING  *,R6
 002DA2 5890 69D2/0D99       03770 17929    3653.              ACALL PARNTRY                 FIND PARENT ENTRY
                                   17933    3654.              REGCH (MIX,0),(IX,1)          CHECK REG ASSUMPTIONS
                                   17934    3655.     *        (Total - possible_increase_from_parent)/#_nodes = IDEAL AVG
                                   17935    3656.     *        Poss_incr_from_parent = par_lengths - (min_len * #_dividing _
                                   17936    3657.     *      parents)
 002DA8 48E0 80B0            000B0 17937    3658.              LH    CNT,CHKNODN             NUM DIVIDING ENTRYS
 002DAC 180E                       17938    3659.              LR    MIX,CNT                 | #NODES -1
 002DAE 0600                       17939    3660.              DECR  MIX                     | |
 002DB0 9180 801C      0001C       17941    3661.              IF    CHKFACC,BEGIN           | MIN ENTRY LEN (ACC)
 002DB4 47E0 601E            02DBC 17951             +
 002DB8 4110 001A            0001A 17956  1 3662.                LA    IX,L'NTRYGR             | |
 002DBC 6022           02DBC 02DB6 17957    3663.              END   ELSE,BEGIN              | MIN ENTRY LEN (FILE)
 002DBC 47F0 6026            02DC4 17966             +
 002DC0 4110 0021            00021 17972  1 3664.                LA    IX,L'NTRYFL+1           | |
 002DC4                            17973    3665.              END   ,                       | OF MIN ENTRY LEN (FILE)
 002DC4 1C00                       17977    3666.              MR    MIX,MIX                 | (#NODES-1)*MIN_NTRY
 002DC6 4B10 80A8            000A8 17978    3667.              SH    IX,CHKBLPL              IX = POSSIBLE PAR EXCESS (NEG)
 002DCA 4B10 80AA            000AA 17979    3668.              SH    IX,CHKBRPL              | |
 002DCE 4A10 80AE            000AE 17980    3669.              AH    IX,CHKSPAC         TOTAL_SPACE - POSSIBLE_PAR_EXCESS
 002DD2 1B00                       17981    3670.              CLEAR MIX                     |
 002DD4 1D0E                       17985    3671.              DR    MIX,CNT                 |
 002DD6 1200/4780 6042       02DE0 17986    3672.              IF    (MIX,NZ),'INCR IX '
 002DDC 5E10 69D6            03774 18003             +
 002DE0 9180 801C      0001C       18008    3673.              IF    CHKFACC,'LH MIX,FSBNANSP '       MIN VALUE OF SPACE/NODE
 002DE4 47E0 604E            02DEC 18018             +
 002DE8 4800 A0BC            000BC 18024             +
 002DEC 6052           02DEC 02DE6 18029    3674.              ELSE  'LH MIX,FSBNFNSP '      |
 002DEC 47F0 6056            02DF4 18034             +
 002DF0 4800 A0C8            000C8 18041             +
 002DF4 1910/47B0 605E       02DFC 18046    3675.              FLOOR IX,MIX                  |
 002DFA 1810                       18051             +
 002DFC 4010 80AE            000AE 18052    3676.              STH   IX,CHKSPAC              AVERAGE SPACE/NODE
 002E00 4830 8036            00036 18053    3677.              LH    NOD,CHKCURN             ADDR TO CURRENT
1FILEVCAT (FILEVC) (09:45) (22MAR04) Inner Balance                                                                          Page  134
0Current Usings:  (NTRY,R1) (DSKBLK,R2) (NODE,R3) (RQB,R5) (*,R6) (*,R7) (CHKPNT,R8) (FSB,R10)
0Loc    Object Code    Addr1 Addr2  Stmt Lv Lineno    Source Statement           (Hibal 5, Asmedit 3.3)  HLASM R4.0  2004/03/22 09.45
+___    ______ ____    _____ _____  ____ __ ______    ______ _________
0002E04 5E30 8030            00030 18054    3678.              AL    NOD,CHKCURA             |
 002E08 48E0 3004            00004 18055    3679.              LH    CNT,NODSPACE            AMOUNT AVAIL IN CURRENT
 002E0C 40E0 80A4            000A4 18056    3680.              STH   CNT,CHKBCLN             |
1FILEVCAT (FILEVC) (09:45) (22MAR04) Inner Balance - Left => Cur                                                            Page  135
0Current Usings:  (NTRY,R1) (DSKBLK,R2) (NODE,R3) (RQB,R5) (*,R6) (*,R7) (CHKPNT,R8) (FSB,R10)
0Loc    Object Code    Addr1 Addr2  Stmt Lv Lineno    Source Statement           (Hibal 5, Asmedit 3.3)  HLASM R4.0  2004/03/22 09.45
+___    ______ ____    _____ _____  ____ __ ______    ______ _________
0002E10 9102 801C      0001C       18058    3682.              IF    CHKFLFTU,BEGIN          LEFT IS IN BALANCE
 002E14 47E0 63AA            03148 18068             +
 002E18 4830 802E            0002E 18073  1 3683.                LH    NOD,CHKLFTN             ADDRESS OF LEFT NODE
 002E1C 5E30 8028            00028 18074  1 3684.                AL    NOD,CHKLFTA             |
 002E20 48E0 3004            00004 18075  1 3685.                LH    CNT,NODSPACE            SPACE IN LEFT
 002E24 49E0 80AE            000AE 18076  1 3686.                IF    (CNT,LT,CHKSPAC),BEGIN  PROBABLY FREE LEFT
 002E28 47B0 620A            02FA8 18088  1          +
 002E2C 9180 801C      0001C       18093  2 3687.                  IF    CHKFACC,BEGIN           MAX USEABLE SPACE/NODE (ACC)
 002E30 47E0 60A0            02E3E 18103  2          +
 002E34 48E0 A0B4            000B4 18108  3 3688.                    LH    CNT,FSBNASPA            |
 002E38 18FE                       18109  3 3689.                    LR    PTR,CNT                 |
 002E3A 4BF0 A0BC            000BC 18110  3 3690.                    SH    PTR,FSBNANSP            | PTR = MAX USEABLE SPACE
 002E3E 60A4           02E3E 02E32 18111  2 3691.                  END   ELSE,BEGIN              MAX USEABLE SPACE/NODE (FILE)
 002E3E 47F0 60AE            02E4C 18120  2          +
 002E42 48E0 A0C0            000C0 18126  3 3692.                    LH    CNT,FSBNFSPA            |
 002E46 18FE                       18127  3 3693.                    LR    PTR,CNT                 |
 002E48 4BF0 A0C8            000C8 18128  3 3694.                    SH    PTR,FSBNFNSP            | PTR = MAX USEABLE SPACE
 002E4C                            18129  2 3695.                  END   ,                  OF MAX USEABLE SPACE/NODE (FILE)
 002E4C 4BE0 80AE            000AE 18133  2 3696.                  SH    CNT,CHKSPAC             CNT = IDEAL USEABLE SPACE
 002E50 4110 3008            00008 18134  2 3697.                  LA    IX,NODNTRYS        ADDR TO LEFT NTRYS (IX = NEW_PAR_PTR)
 002E54 4840 1000            00000 18135  2 3698.     NBLIDEAL     LH    QR,NTRYLEN              SEARCH FOR IDEAL LEN OF ENTRYS
 002E58 194F/4730 60CE       02E6C 18136  2 3699.                  IF    (QR,LE,PTR),BEGIN       SPACE AVAIL W/IN MAX
 002E5E 1BF4                       18151  3 3700.                    SR    PTR,QR                  DECR MAX USEABLE SPACE
 002E60 1BE4                       18152  3 3701.                    SR    CNT,QR                  DECR IDEAL USEABLE SPACE
 002E62 4114 1000            00000 18153  3 3702.                    LA    IX,NTRY(QR)             NEXT ENTRY
 002E66 12EE/4720 60B6       02E54 18154  3 3703.                    IF    (CNT,POS),NBLIDEAL      MORE ROOM IN IDEAL BALANCE
 002E6C                            18171  2 3704.                  END   ,                       OF SPACE AVAIL W/IN MAX
 002E6C                            18175  2 3705.                  BEGIN ,                       LEN TO MOVE OUT OF LEFT
 002E6C 18F1                       18179  3 3706.                    LR    PTR,IX                  |
 002E6E 41E0 3008            00008 18180  3 3707.                    LA    CNT,NODNTRYS            |
 002E72 1BFE                       18181  3 3708.                    SR    PTR,CNT                 | PTR = CUR-START = LEN_SO_FAR
 002E74 9180 801C      0001C       18182  3 3709.                    IF    CHKFACC,'LH CNT,FSBNASPA '       MAX SPACE
 002E78 47E0 60E2            02E80 18192  3          +
 002E7C 48E0 A0B4            000B4 18198  3          +
 002E80 60E6           02E80 02E7A 18203  3 3710.                    ELSE  'LH CNT,FSBNFSPA '      |
 002E80 47F0 60EA            02E88 18208  3          +
 002E84 48E0 A0C0            000C0 18215  3          +
 002E88 4BE0 3004            00004 18220  3 3711.                    SH    CNT,NODSPACE            | CNT = TOTAL USED SPACE
 002E8C 1BEF                       18221  3 3712.                    SR    CNT,PTR                 | CNT = LEN TO MOVE OUT
 002E8E                            18222  2 3713.                  END   ,                       OF LEN TO MOVE OUT OF LEFT
 002E8E 12EE/47D0 620A       02FA8 18226  2 3714.                  IF    (CNT,POS),BEGIN         THERE IS SOMETHING TO MOVE OUT
 002E94 48F0 8036            00036 18240  3 3715.                    LH    PTR,CHKCURN             ADDR TO CUR
 002E98 5EF0 8030            00030 18241  3 3716.                    AL    PTR,CHKCURA             |
 002E9C 48F0 F004            00004 18242  3 3717.                    WITH  (NODE,PTR),'LH PTR,NODSPACE '    FREE SPACE
 USING  NODE,R15
 DROP   NODE,R15
 002EA0 4BF0 80A8            000A8 18266  3 3718.                    SH    PTR,CHKBLPL             | MINUS PAR TO BE MOVED IN
 002EA4 4720 6112            02EB0 18267  3 3719.                    IF    NPOS,BEGIN              NOT EVEN ROOM FOR PARENT
 002EA8 9680 801D      0001D       18278  4 3720.                      SET   CHKFBAL                 REBALANCE PASS NEEDED
 002EAC 47F0 63AA            03148 18284  4 3721.                      B     NBBRHT                  DO BALANCE W/ RIGHT NODE
 002EB0                            18285  3 3722.                    END   ,                       OF NOT EVEN ROOM FOR PARENT
 002EB0 180E                       18289  3 3723.     NBLSHORT       LR    MIX,CNT            LEN_TO_MOVE - NEW_PAR_LEN = LFT_LEN
 002EB2 4840 1000            00000 18290  3 3724.                    LH    QR,NTRYLEN              | NEW_PAR_LEN
 002EB6 1B04                       18291  3 3725.                    SR    MIX,QR                  | MIX = LEFT_LEN
1FILEVCAT (FILEVC) (09:45) (22MAR04) Inner Balance - Left => Cur                                                            Page  136
0Current Usings:  (NTRY,R1) (DSKBLK,R2) (NODE,R3) (RQB,R5) (*,R6) (*,R7) (CHKPNT,R8) (FSB,R10)
0Loc    Object Code    Addr1 Addr2  Stmt Lv Lineno    Source Statement           (Hibal 5, Asmedit 3.3)  HLASM R4.0  2004/03/22 09.45
+___    ______ ____    _____ _____  ____ __ ______    ______ _________
0002EB8 190F/47D0 612E       02ECC 18292  3 3726.                    IF    (MIX,GT,PTR),BEGIN      CAME UP SHORT IN MOVE
 002EBE 9680 801D      0001D       18307  4 3727.                      SET   CHKFBAL                 INDICATE REBALANCE PASS NEEDED
 002EC2 1BE4                       18313  4 3728.                      SR    CNT,QR                  DECR LEN_TO_MOVE (INCL NEW_PAR)
 002EC4 4114 1000            00000 18314  4 3729.                      LA    IX,NTRY(QR)             | NEXT ENTRY
 002EC8 47F0 6112            02EB0 18315  4 3730.                      B     NBLSHORT                SEE IF STILL SHORT??
 002ECC                            18316  3 3731.                    END   ,                       OF CAME UP SHORT IN MOVE
 002ECC 12EE/47D0 620A       02FA8 18320  3 3732.                    IF    (CNT,POS),BEGIN         STILL SOMETHING TO MOVE OUT
                                   18334  4 3733.     *               Change offspring pointers of entrys to be moved
 002ED2 5010 8098            00098 18335  4 3734.                      ST    IX,CHKBNPA              New_Parent_Addr
 002ED6 4040 80AC            000AC 18336  4 3735.                      STH   QR,CHKBNPL              New_Parent_Len
 002EDA 4114 1000            00000 18337  4 3736.                      LA    IX,NTRY(QR)             NEXT ENTRY = Left_Addr
 002EDE 5010 8084            00084 18338  4 3737.                      ST    IX,CHKBLAD              |
 002EE2 4000 80A2            000A2 18339  4 3738.                      STH   MIX,CHKBLLN             Left_Len
 002EE6 4830 8036            00036 18340  4 3739.                      LH    NOD,CHKCURN             Current_Addr
 002EEA 5E30 8030            00030 18341  4 3740.                      AL    NOD,CHKCURA             |
 002EEE 5030 8088            00088 18342  4 3741.                      ST    NOD,CHKBCAD             |
 002EF2                            18343  4 3742.                      CLEAR CHKBCLN                 | Cur_Len
 002EF2 D701 80A4 80A4 000A4 000A4 18349  4          +
 002EF8 5810 8090            00090 18350  4 3743.                      L     IX,CHKBLPA              Par_Ptr := Old_End_Ptr
 002EFC 41F0 1002            00002 18351  4 3744.                      LA    PTR,NTRYOFFB            | |
 002F00 5810 8084            00084 18352  4 3745.                      L     IX,CHKBLAD              | Addr to end <NIL> entry
 002F04 4A10 80A2            000A2 18353  4 3746.                      AH    IX,CHKBLLN              | |
 002F08 D203 F000 1002 00000 00002 18354  4 3747.                      MVC   @PTR(PL),NTRYOFFB       |
 002F0E 41F0 1002            00002 18355  4 3748.                      LA    PTR,NTRYOFFB            Old_End_Ptr := New_Par_Ptr
 002F12 5810 8098            00098 18356  4 3749.                      L     IX,CHKBNPA              | New_Par_Ptr
 002F16 D203 F000 1002 00000 00002 18357  4 3750.                      MVC   @PTR(PL),NTRYOFFB       |
 002F1C D203 1002 802C 00002 0002C 18358  4 3751.                      MVC   NTRYOFFB(PL),CHKLFTB    New_Par_Ptr := Ptr_to_left
                                   18359  4 3752.     *               Move entrys
 002F22 D203 807C 8090 0007C 00090 18360  4 3753.                      MVC   CHKBSAD,CHKBLPA         SOURCE LOC
 002F28 D201 809C 80A8 0009C 000A8 18361  4 3754.                      MVC   CHKBSLN,CHKBLPL         | LEN
 002F2E 4830 8036            00036 18362  4 3755.                      LH    NOD,CHKCURN             DEST LOC
 002F32 5E30 8030            00030 18363  4 3756.                      AL    NOD,CHKCURA             |
 002F36 4110 3008            00008 18364  4 3757.                      LA    IX,NODNTRYS             |
 002F3A 5010 8080            00080 18365  4 3758.                      ST    IX,CHKBDAD              |
 002F3E 4810 8026            00026 18366  4 3759.                      NTRYMOV SRC=PAR,DEST=CUR      MOVE Lft_Par ==> Cur
 002F42 5E10 8020            00020 18369  4          +
 002F46 48F0 8036            00036 18370  4          +
 002F4A 5EF0 8030            00030 18371  4          +
 002F4E 5890 69DA/0D99       03778 18374  4          +
 002F54                            18376  4 3760.                      IF    (CHKBLLN,NZ),BEGIN      MOVE Lft_Entrys ==> Cur
 002F54 D601 80A2 80A2 000A2 000A2 18386  4          +
 002F5A 4780 61E2            02F80 18387  4          +
 002F5E D203 807C 8084 0007C 00084 18392  5 3761.                        MVC   CHKBSAD,CHKBLAD         SOURCE LOC
 002F64 D201 809C 80A2 0009C 000A2 18393  5 3762.                        MVC   CHKBSLN,CHKBLLN         | LEN (SAME DEST)
 002F6A 4810 802E            0002E 18394  5 3763.                        NTRYMOV SRC=LFT,DEST=CUR      MOVE Lft_Entrys ==> Cur
 002F6E 5E10 8028            00028 18397  5          +
 002F72 48F0 8036            00036 18398  5          +
 002F76 5EF0 8030            00030 18399  5          +
 002F7A 5890 69DA/0D99       03778 18402  5          +
 002F80                            18404  4 3764.                      END   ,                       OF MOVE Lft_Entrys ==> Cur
 002F80 D203 807C 8098 0007C 00098 18408  4 3765.                      MVC   CHKBSAD,CHKBNPA         SOURCE LOC (New_Par)
 002F86 D201 809C 80AC 0009C 000AC 18409  4 3766.                      MVC   CHKBSLN,CHKBNPL         | LEN
 002F8C D203 8080 8090 00080 00090 18410  4 3767.                      MVC   CHKBDAD,CHKBLPA         DEST LOC (Left_Par)
 002F92 4810 802E            0002E 18411  4 3768.                      NTRYMOV SRC=LFT,DEST=PAR      MOVE New_Par ==> Par
1FILEVCAT (FILEVC) (09:45) (22MAR04) Inner Balance - Left => Cur                                                            Page  137
0Current Usings:  (NTRY,R1) (DSKBLK,R2) (NODE,R3) (RQB,R5) (*,R6) (*,R7) (CHKPNT,R8) (FSB,R10)
0Loc    Object Code    Addr1 Addr2  Stmt Lv Lineno    Source Statement           (Hibal 5, Asmedit 3.3)  HLASM R4.0  2004/03/22 09.45
+___    ______ ____    _____ _____  ____ __ ______    ______ _________
0002F96 5E10 8028            00028 18414  4          +
 002F9A 48F0 8026            00026 18415  4          +
 002F9E 5EF0 8020            00020 18416  4          +
 002FA2 5890 69DA/0D99       03778 18419  4          +
 002FA8                            18421  3 3769.                    END   ,                       OF STILL SOMETHING TO MOVE OUT
 002FA8                            18425  2 3770.                  END   ,                  OF THERE IS SOMETHING TO MOVE OUT
 002FA8                            18429  1 3771.                END   ,                       OF PROBABLY NEED TO FREE
1FILEVCAT (FILEVC) (09:45) (22MAR04) Inner Balance - Cur => Left                                                            Page  138
0Current Usings:  (NTRY,R1) (DSKBLK,R2) (NODE,R3) (RQB,R5) (*,R6) (*,R7) (CHKPNT,R8) (FSB,R10)
0Loc    Object Code    Addr1 Addr2  Stmt Lv Lineno    Source Statement           (Hibal 5, Asmedit 3.3)  HLASM R4.0  2004/03/22 09.45
+___    ______ ____    _____ _____  ____ __ ______    ______ _________
0                                  18434  1 3773.     *               CNT = Space in left
 002FA8 620E           02FA8 02E2A 18435  1 3774.                ELSEIF (CNT,GT,CHKSPAC),BEGIN PROBABLY FILL LEFT
 002FA8 47F0 63AA            03148 18441  1          +
 002FAC 49E0 80AE            000AE 18455  1          +
 002FB0 47D0 63AA            03148 18456  1          +
 002FB4 18FE                       18461  2 3775.                  LR    PTR,CNT                 MAX AVAIL SPACE
 002FB6 9180 801C      0001C       18462  2 3776.                  IF    CHKFACC,'SH PTR,FSBNANSP '       | (ACC)
 002FBA 47E0 6224            02FC2 18472  2          +
 002FBE 4BF0 A0BC            000BC 18478  2          +
 002FC2 6228           02FC2 02FBC 18483  2 3777.                  ELSE  'SH PTR,FSBNFNSP '      | (FILE)
 002FC2 47F0 622C            02FCA 18488  2          +
 002FC6 4BF0 A0C8            000C8 18495  2          +
 002FCA 4BE0 80AE            000AE 18500  2 3778.                  SH    CNT,CHKSPAC             CNT = IDEAL USEABLE SPACE
 002FCE 4840 80A8            000A8 18501  2 3779.                  LH    QR,CHKBLPL              LEFT PARENT ENTRY LENGTH
 002FD2 19F4/4750 63AA       03148 18502  2 3780.                  IF    (PTR,GE,QR),BEGIN       ROOM FOR AT LEAST THE PARENT
 002FD8 1BF4                       18517  3 3781.                    SR    PTR,QR                  DECR MAX USEABLE SPACE
 002FDA 1BE4                       18518  3 3782.                    SR    CNT,QR                  DECR IDEAL USEABLE SPACE
 002FDC 4830 8036            00036 18519  3 3783.                    LH    NOD,CHKCURN             ADDR TO CURRENT NODE
 002FE0 5E30 8030            00030 18520  3 3784.                    AL    NOD,CHKCURA             |
 002FE4 4110 3008            00008 18521  3 3785.                    LA    IX,NODNTRYS             ADDR TO CUR ENTRYS
 002FE8 12EE/47D0 629A       03038 18522  3 3786.                    IF    (CNT,POS),BEGIN         NEED MORE THAN JUST PARENT
 002FEE 1801                       18536  4 3787.                      LR    MIX,IX                  THIS FIXES BUG (M. DURKET)
 002FF0                            18537  4 3788.     NBLCIDEA         CLC   NTRYLEN,=&L.AL1(NIL)    TEST FOR END OF NODE
 002FF0 D501 1000 69DE 00000 0377C        4          +
 002FF6 4780 6276            03014 18538  4 3789.                      IF    NE,BEGIN                NOT @ END OF NODE
 002FFA 1801                       18549  5 3790.                        LR    MIX,IX             NEW PARENT ADDRESS (IF @ END OF NODE)
 002FFC 4840 1000            00000 18550  5 3791.                        LH    QR,NTRYLEN              SEARCH FOR IDEAL LEN OF ENTRYS
 003000 194F/4730 6276       03014 18551  5 3792.                        IF    (QR,LE,PTR),BEGIN       SPACE AVAIL W/IN MAX
 003006 1BF4                       18566  6 3793.                          SR    PTR,QR                  DECR MAX AVAIL SPACE
 003008 1BE4                       18567  6 3794.                          SR    CNT,QR                  DECR IDEAL FREE SPACE
 00300A 4114 1000            00000 18568  6 3795.                          LA    IX,NTRY(QR)             NEXT ENTRY
 00300E 12EE/4720 6252       02FF0 18569  6 3796.                          IF    (CNT,POS),NBLCIDEA      MORE ROOM IN IDEAL BALANCE
 003014                            18586  5 3797.                        END   ,                       OF SPACE AVAIL W/IN MAX
 003014                            18590  4 3798.                      END   ,                       OF NOT @ END OF NODE
 003014 627A           03014 02FF8 18594  4 3799.                      ELSE  BEGIN              @ END OF NODE - INDICATE REBAL PASS
 003014 47F0 6280            0301E 18599  4          +
 003018 9680 801D      0001D       18605  5 3800.                        SET CHKFBAL
 00301C 1810                       18611  5 3801.                        LR    IX,MIX                  NEW PARENT ADDRESS
 00301E                            18612  4 3802.                      END   ,                       OF @ END OF NODE
 00301E 5010 8098            00098 18616  4 3803.                      ST    IX,CHKBNPA              NEW PAR ADDR
 003022 D201 80AC 1000 000AC 00000 18617  4 3804.                      MVC   CHKBNPL,NTRYLEN         | (LEN)
 003028 18F1                       18618  4 3805.                      LR    PTR,IX                  LEN TO MOVE TO LEFT
 00302A 41E0 3008            00008 18619  4 3806.                      LA    CNT,NODNTRYS            |
 00302E 1BFE                       18620  4 3807.                      SR    PTR,CNT                 | PTR = CUR-START = LEN_SO_FAR
 003030 50E0 8088            00088 18621  4 3808.                      ST    CNT,CHKBCAD             | CURRENT ENTRY ADDR
 003034 40F0 80A4            000A4 18622  4 3809.                      STH   PTR,CHKBCLN             | | LEN
 003038                            18623  3 3810.                    END   ,                  OF ROOM FOR MORE THAN JUST PARENT
 003038 629E           03038 02FEC 18627  3 3811.                    ELSE  BEGIN                   JUST PARENT GETS MOVED
 003038 47F0 62CA            03068 18632  3          +
 00303C                            18638  4 3812.                      CLEAR CHKBCAD                 NOTHING TO MOVE FROM CURRENT
 00303C D703 8088 8088 00088 00088 18644  4          +
 003042                            18645  4 3813.                      CLEAR CHKBCLN                 | ZERO LEN
 003042 D701 80A4 80A4 000A4 000A4 18651  4          +
 003048 4110 3008            00008 18652  4 3814.                      LA    IX,NODNTRYS             NEW PARENT ADDR (1ST ENTRY)
1FILEVCAT (FILEVC) (09:45) (22MAR04) Inner Balance - Cur => Left                                                            Page  139
0Current Usings:  (NTRY,R1) (DSKBLK,R2) (NODE,R3) (RQB,R5) (*,R6) (*,R7) (CHKPNT,R8) (FSB,R10)
0Loc    Object Code    Addr1 Addr2  Stmt Lv Lineno    Source Statement           (Hibal 5, Asmedit 3.3)  HLASM R4.0  2004/03/22 09.45
+___    ______ ____    _____ _____  ____ __ ______    ______ _________
000304C 5010 8098            00098 18653  4 3815.                      ST    IX,CHKBNPA              |
 003050 D201 80AC 1000 000AC 00000 18654  4 3816.                      MVC   CHKBNPL,NTRYLEN         | (LEN)
 003056                            18655  4 3817.                      CLC   NTRYLEN,=&L.AL1(NIL)    COMPARE FOR NIL 1ST ENTRY
 003056 D501 1000 69DE 00000 0377C        4          +
 00305C 4770 62CA            03068 18656  4 3818.                      IF    EQ,BEGIN                |
 003060 9680 801D      0001D       18667  5 3819.                        SET   CHKFBAL
 003064 47F0 63AA            03148 18673  5 3820.                        B     NBCTLX                  Node_Balance_Cur_To_Left_eXit
 003068                            18674  4 3821.                      END   ,                       OF COMPARE FOR NIL 1ST ENTRY
 003068                            18678  3 3822.                    END   ,                       OF JUST PARENT GETS MOVED
 003068                            18682  3 3823.                    BEGIN ,                       COMPUTE LEFT ADDR
 003068 4830 802E            0002E 18686  4 3824.                      LH    NOD,CHKLFTN             ADDR TO LEFT NODE
 00306C 5E30 8028            00028 18687  4 3825.                      AL    NOD,CHKLFTA             |
 003070 9180 801C      0001C       18688  4 3826.                      IF    CHKFACC,'LH IX,FSBNASPA '        USED SPACE (ACC TOTAL)
 003074 47E0 62DE            0307C 18698  4          +
 003078 4810 A0B4            000B4 18704  4          +
 00307C 62E2           0307C 03076 18709  4 3827.                      ELSE  'LH IX,FSBNFSPA '       | (FILE TOTAL)
 00307C 47F0 62E6            03084 18714  4          +
 003080 4810 A0C0            000C0 18721  4          +
 003084 4B10 3004            00004 18726  4 3828.                      SH    IX,NODSPACE             | TOTAL - FREE = USED
 003088 4111 3008            00008 18727  4 3829.                      LA    IX,NODNTRYS(IX)         LEFT ADDR (DEST)
 00308C 5010 8084            00084 18728  4 3830.                      ST    IX,CHKBLAD              |
 003090                            18729  3 3831.                    END   ,                       OF COMPUTE LEFT ADDR
                                   18733  3 3832.     *               Change offspring pointers of entrys to be moved
 003090 5810 8090            00090 18734  3 3833.                    L     IX,CHKBLPA              Par_Ptr := Old_End_Ptr
 003094 41F0 1002            00002 18735  3 3834.                    LA    PTR,NTRYOFFB            | |
 003098 5810 8084            00084 18736  3 3835.                    L     IX,CHKBLAD              | Addr to end <NIL> entry
 00309C D203 F000 1002 00000 00002 18737  3 3836.                    MVC   @PTR(PL),NTRYOFFB       |
 0030A2 41F0 1002            00002 18738  3 3837.                    LA    PTR,NTRYOFFB            Old_End_Ptr := New_Par_Ptr
 0030A6 5810 8098            00098 18739  3 3838.                    L     IX,CHKBNPA              | New_Par_Ptr
 0030AA D203 F000 1002 00000 00002 18740  3 3839.                    MVC   @PTR(PL),NTRYOFFB       |
 0030B0 D203 1002 802C 00002 0002C 18741  3 3840.                    MVC   NTRYOFFB(PL),CHKLFTB    New_Par_Ptr := Ptr_to_left
                                   18742  3 3841.     *               Move entrys
 0030B6 D203 807C 8090 0007C 00090 18743  3 3842.                    MVC   CHKBSAD,CHKBLPA         SOURCE LOC
 0030BC D201 809C 80A8 0009C 000A8 18744  3 3843.                    MVC   CHKBSLN,CHKBLPL         | LEN
 0030C2 D203 8080 8084 00080 00084 18745  3 3844.                    MVC   CHKBDAD,CHKBLAD         DEST LOC
 0030C8 4810 8026            00026 18746  3 3845.                    NTRYMOV SRC=PAR,DEST=LFT      MOVE Lft_Par ==> Lft
 0030CC 5E10 8020            00020 18749  3          +
 0030D0 48F0 802E            0002E 18750  3          +
 0030D4 5EF0 8028            00028 18751  3          +
 0030D8 5890 69DA/0D99       03778 18754  3          +
 0030DE                            18756  3 3846.                    IF    (CHKBCLN,NZ),BEGIN      MOVE Cur_Entrys ==> Lft
 0030DE D601 80A4 80A4 000A4 000A4 18766  3          +
 0030E4 4780 6378            03116 18767  3          +
 0030E8 D203 807C 8088 0007C 00088 18772  4 3847.                      MVC   CHKBSAD,CHKBCAD         SOURCE LOC
 0030EE D201 809C 80A4 0009C 000A4 18773  4 3848.                      MVC   CHKBSLN,CHKBCLN         | LEN
 0030F4 5810 8084            00084 18774  4 3849.                      L     IX,CHKBLAD              NEW DEST (Incr by Left_Par_Len)
 0030F8 4A10 80A8            000A8 18775  4 3850.                      AH    IX,CHKBLPL              |
 0030FC 5010 8080            00080 18776  4 3851.                      ST    IX,CHKBDAD              |
 003100 4810 8036            00036 18777  4 3852.                      NTRYMOV SRC=CUR,DEST=LFT
 003104 5E10 8030            00030 18780  4          +
 003108 48F0 802E            0002E 18781  4          +
 00310C 5EF0 8028            00028 18782  4          +
 003110 5890 69DA/0D99       03778 18785  4          +
 003116                            18787  3 3853.                    END   ,                       OF MOVE Cur_Entrys ==> Lft
1FILEVCAT (FILEVC) (09:45) (22MAR04) Inner Balance - Cur => Left                                                            Page  140
0Current Usings:  (NTRY,R1) (DSKBLK,R2) (NODE,R3) (RQB,R5) (*,R6) (*,R7) (CHKPNT,R8) (FSB,R10)
0Loc    Object Code    Addr1 Addr2  Stmt Lv Lineno    Source Statement           (Hibal 5, Asmedit 3.3)  HLASM R4.0  2004/03/22 09.45
+___    ______ ____    _____ _____  ____ __ ______    ______ _________
0003116 4830 8036            00036 18791  3 3854.                    LH    NOD,CHKCURN             ADDR TO CUR
 00311A 5E30 8030            00030 18792  3 3855.                    AL    NOD,CHKCURA             |
 00311E 4110 3008            00008 18793  3 3856.                    LA    IX,NODNTRYS             ADDR TO 1ST (NEW PAR)
 003122 5010 807C            0007C 18794  3 3857.                    ST    IX,CHKBSAD              | (SOURCE)
 003126 D201 809C 80AC 0009C 000AC 18795  3 3858.                    MVC   CHKBSLN,CHKBNPL         | LEN
 00312C D203 8080 8090 00080 00090 18796  3 3859.                    MVC   CHKBDAD,CHKBLPA         DEST LOC (Left_Par)
 003132 4810 8036            00036 18797  3 3860.                    NTRYMOV SRC=CUR,DEST=PAR      MOVE New_Par ==> Par
 003136 5E10 8030            00030 18800  3          +
 00313A 48F0 8026            00026 18801  3          +
 00313E 5EF0 8020            00020 18802  3          +
 003142 5890 69DA/0D99       03778 18805  3          +
 003148                            18807  2 3861.                  END   ,                       OF ROOM FOR AT LEAST THE PARENT
 003148                            18811  1 3862.     NBCTLX     END   ,                       OF PROBABLY NEED TO FILL
 003148                            18816    3863.              END   ,                       OF LEFT IN BALANCE
1FILEVCAT (FILEVC) (09:45) (22MAR04) Inner Balance - Right => Cur                                                           Page  141
0Current Usings:  (NTRY,R1) (DSKBLK,R2) (NODE,R3) (RQB,R5) (*,R6) (*,R7) (CHKPNT,R8) (FSB,R10)
0Loc    Object Code    Addr1 Addr2  Stmt Lv Lineno    Source Statement           (Hibal 5, Asmedit 3.3)  HLASM R4.0  2004/03/22 09.45
+___    ______ ____    _____ _____  ____ __ ______    ______ _________
0003148 9101 801C      0001C       18821    3865.     NBBRHT   IF    CHKFRHTU,BEGIN          RIGHT IN BALANCE
 00314C 47E0 6708            034A6 18832             +
 003150 9102 801C      0001C       18837  1 3866.                IF    CHKFLFTU,BEGIN     LEFT IN BAL, NEED TO UPDATE RHT_PAR
 003154 47E0 63CC            0316A 18847  1          +
 003158 5810 8090            00090 18852  2 3867.                  L     IX,CHKBLPA              ADDR TO LFT_PAR ENTRY
 00315C 4A10 1000            00000 18853  2 3868.                  AH    IX,NTRYLEN              RHT_PAR
 003160 5010 8094            00094 18854  2 3869.                  ST    IX,CHKBRPA              |
 003164 D201 80AA 1000 000AA 00000 18855  2 3870.                  MVC   CHKBRPL,NTRYLEN         |
 00316A                            18856  1 3871.                END   ,                  OF LFT IN BAL, NEED TO UPDATE RHT_PAR
 00316A 4830 803E            0003E 18860  1 3872.                LH    NOD,CHKRHTN             ADDRESS OF RIGHT NODE
 00316E 5E30 8038            00038 18861  1 3873.                AL    NOD,CHKRHTA             |
 003172 48E0 3004            00004 18862  1 3874.                LH    CNT,NODSPACE            SPACE IN RIGHT
 003176 49E0 80AE            000AE 18863  1 3875.                IF    (CNT,LT,CHKSPAC),BEGIN  PROBABLY FREE RIGHT
 00317A 47B0 6554            032F2 18875  1          +
 00317E 18FE                       18880  2 3876.                  LR    PTR,CNT                 CNT (NEG) = IDEAL TO MOVE OUT
 003180 4BE0 80AE            000AE 18881  2 3877.                  SH    CNT,CHKSPAC             |
 003184 9180 801C      0001C       18882  2 3878.                  IF    CHKFACC,BEGIN           MUST MOVE OUT (ACC)
 003188 47E0 63F6            03194 18892  2          +
 00318C 4AE0 69EA            03788 18897  3 3879.                    AH    CNT,=Y(L'NTRYGR-1)      CNT (NEG) = MIN MOVE OUT(MIN-1)
 003190 4BF0 A0BC            000BC 18898  3 3880.                    SH    PTR,FSBNANSP            | PTR (NEG) = MIN SPACE REQ
 003194                            18899  2 3881.                  END   ,                       OF MUST MOVE OUT (ACC)
 003194 63FA           03194 0318A 18903  2 3882.                  ELSE  BEGIN                   MUST MOVE OUT (FILE)
 003194 47F0 6402            031A0 18908  2          +
 003198 4AE0 69EC            0378A 18914  3 3883.                    AH    CNT,=Y(L'NTRYFL)        CNT (NEG) = MIN MOVE OUT(MIN-1)
 00319C 4BF0 A0C8            000C8 18915  3 3884.                    SH    PTR,FSBNFNSP            | PTR (NEG) = MIN SPACE REQ
 0031A0                            18916  2 3885.                  END   ,                       OF MUST MOVE OUT (FILE)
 0031A0 19FE/47B0 640A       031A8 18920  2 3886.                  IF    (PTR,LT,CNT),'LR CNT,PTR '       CNT (NEG) = MIN MOVE
 0031A6 18EF                       18936  2          +
 0031A8 48F0 8036            00036 18941  2 3887.                  LH    PTR,CHKCURN             ADDR TO CUR NODE
 0031AC 5EF0 8030            00030 18942  2 3888.                  AL    PTR,CHKCURA             |
 0031B0 48F0 F004            00004 18943  2 3889.                  WITH  (NODE,PTR),'LH PTR,NODSPACE '    PTR = SPACE IN CUR
 USING  NODE,R15
 DROP   NODE,R15
 0031B4 49F0 80AA            000AA 18967  2 3890.                  IF    (PTR,LT,CHKBRPL),BEGIN  NO ROOM FOR EVEN PARENT
 0031B8 47B0 6422            031C0 18979  2          +
 0031BC 9680 801D      0001D       18984  3 3891.                    SET   CHKFBAL                 INDICATE REBALANCE PASS
 0031C0 6426           031C0 031BA 18990  2 3892.                  END   ELSE,BEGIN              ROOM FOR AT LEAST PARENT
 0031C0 47F0 6554            032F2 18999  2          +
 0031C4 4BF0 80AA            000AA 19005  3 3893.                    SH    PTR,CHKBRPL             SUBTRACT PARENT LENGTH
 0031C8 4110 3008            00008 19006  3 3894.                    LA    IX,NODNTRYS             ADDR TO RIGHT ENTRYS
 0031CC 4840 1000            00000 19007  3 3895.                    LH    QR,NTRYLEN              1st ENTRY LEN
 0031D0 1AE4                       19008  3 3896.                    AR    CNT,QR                  |
 0031D2 12EE/47B0 6466       03204 19009  3 3897.     NBRIDEAL       IF    (CNT,NEG),BEGIN         MORE TO MOVE OUT OF RIGHT
 0031D8 19F4/47B0 6444       031E2 19024  4 3898.                      IF    (PTR,LT,QR),BEGIN  NO ROOM FOR ANOTHER ENTRY IN CUR
 0031DE 9680 801D      0001D       19039  5 3899.                        SET   CHKFBAL                 INDICATE REBALANCE PASS
 0031E2 6448           031E2 031DC 19045  4 3900.                      END   ELSE,BEGIN              ROOM FOR ANOTHER ENTRY IN CUR
 0031E2 47F0 6466            03204 19054  4          +
 0031E6 1BF4                       19060  5 3901.                        SR    PTR,QR                  SUBTRACT THIS LEN
 0031E8 4114 1000            00000 19061  5 3902.                        LA    IX,NTRY(QR)             NEXT ENTRY
 0031EC 4840 1000            00000 19062  5 3903.                        LH    QR,NTRYLEN              | (LEN)
 0031F0 1244/4720 6460       031FE 19063  5 3904.                        IF    (QR,NPOS),'SET CHKFBAL; B NBBRCPOK '
 0031F6 9680 801D      0001D       19083  6          +
 0031FA 47F0 6466            03204 19084  5          +
 0031FE 1AE4                       19089  5 3905.                        AR    CNT,QR
1FILEVCAT (FILEVC) (09:45) (22MAR04) Inner Balance - Right => Cur                                                           Page  142
0Current Usings:  (NTRY,R1) (DSKBLK,R2) (NODE,R3) (RQB,R5) (*,R6) (*,R7) (CHKPNT,R8) (FSB,R10)
0Loc    Object Code    Addr1 Addr2  Stmt Lv Lineno    Source Statement           (Hibal 5, Asmedit 3.3)  HLASM R4.0  2004/03/22 09.45
+___    ______ ____    _____ _____  ____ __ ______    ______ _________
0003200 47F0 6434            031D2 19090  5 3906.                        B     NBRIDEAL
 003204                            19091  4 3907.                      END   ,                  OF ROOM FOR ANOTHER ENTRY IN CUR
 003204                            19095  3 3908.                    END   ,                       OF MORE TO MOVE OUT OF RIGHT
 003204 5010 8098            00098 19099  3 3909.     NBBRCPOK       ST    IX,CHKBNPA              New_Parent_Addr
 003208 D201 80AC 1000 000AC 00000 19100  3 3910.                    MVC   CHKBNPL,NTRYLEN         | Len
 00320E 4100 3008            00008 19101  3 3911.                    LA    MIX,NODNTRYS            Right_Entrys_Addr
 003212 5000 808C            0008C 19102  3 3912.                    ST    MIX,CHKBRAD             |
 003216 1B10                       19103  3 3913.                    SR    IX,MIX                  | Len
 003218 4010 80A6            000A6 19104  3 3914.                    STH   IX,CHKBRLN              | |
 00321C 4830 8036            00036 19105  3 3915.                    LH    NOD,CHKCURN             Cur_Entrys_Addr
 003220 5E30 8030            00030 19106  3 3916.                    AL    NOD,CHKCURA             |
 003224 9180 801C      0001C       19107  3 3917.                    IF CHKFACC,'LH CNT,FSBNASPA ' Total node space
 003228 47E0 6492            03230 19117  3          +
 00322C 48E0 A0B4            000B4 19123  3          +
 003230 6496           03230 0322A 19128  3 3918.                    ELSE  'LH CNT,FSBNFSPA '      |
 003230 47F0 649A            03238 19133  3          +
 003234 48E0 A0C0            000C0 19140  3          +
 003238 4BE0 3004            00004 19145  3 3919.                    SH    CNT,NODSPACE            | Addr to end of entrys
 00323C 411E 3008            00008 19146  3 3920.                    LA    IX,NODNTRYS(CNT)        | |
 003240 5010 8088            00088 19147  3 3921.                    ST    IX,CHKBCAD              |
 003244 58F0 8094            00094 19148  3 3922.                    L     PTR,CHKBRPA             Par_Ptr := Old_End_Ptr
 003248 41F0 F002            00002 19149  3 3923.                    WITH (NTRY,PTR),'LA PTR,NTRYOFFB '     |
 USING  NTRY,R15
 DROP   NTRY,R15
 00324C D203 F000 1002 00000 00002 19173  3 3924.                    MVC   @PTR(PL),NTRYOFFB       |
 003252 41F0 1002            00002 19174  3 3925.                    LA    PTR,NTRYOFFB            Old_End_Ptr := New_Par_Ptr
 003256 5810 8098            00098 19175  3 3926.                    L     IX,CHKBNPA              |
 00325A D203 F000 1002 00000 00002 19176  3 3927.                    MVC   @PTR(PL),NTRYOFFB       |
 003260 D203 1002 8034 00002 00034 19177  3 3928.                    MVC   NTRYOFFB(PL),CHKCURB    New_Par_Ptr := Ptr_to_Cur
                                   19178  3 3929.     *               Move entrys
 003266 D203 807C 8094 0007C 00094 19179  3 3930.                    MVC   CHKBSAD,CHKBRPA         MOVE PAR TO CUR - SOURCE LOC
 00326C D201 809C 80AA 0009C 000AA 19180  3 3931.                    MVC   CHKBSLN,CHKBRPL         | LEN
 003272 D203 8080 8088 00080 00088 19181  3 3932.                    MVC   CHKBDAD,CHKBCAD         DEST LOC (END OF CUR)
 003278 4810 8026            00026 19182  3 3933.                    NTRYMOV SRC=PAR,DEST=CUR
 00327C 5E10 8020            00020 19185  3          +
 003280 48F0 8036            00036 19186  3          +
 003284 5EF0 8030            00030 19187  3          +
 003288 5890 69DA/0D99       03778 19190  3          +
 00328E                            19192  3 3934.                    IF    (CHKBRLN,NZ),BEGIN      MOVE RIGHT BODY TO CUR
 00328E D601 80A6 80A6 000A6 000A6 19202  3          +
 003294 4780 652C            032CA 19203  3          +
 003298 D203 807C 808C 0007C 0008C 19208  4 3935.                      MVC   CHKBSAD,CHKBRAD         SOURCE LOC
 00329E D201 809C 80A6 0009C 000A6 19209  4 3936.                      MVC   CHKBSLN,CHKBRLN         | LEN
 0032A4 5810 8080            00080 19210  4 3937.                      L     IX,CHKBDAD              NEW DEST (END OF CUR)
 0032A8 4A10 80AA            000AA 19211  4 3938.                      AH    IX,CHKBRPL              |
 0032AC 5010 8080            00080 19212  4 3939.                      ST    IX,CHKBDAD              |
 0032B0 5010 8088            00088 19213  4 3940.                      ST    IX,CHKBCAD              |
 0032B4 4810 803E            0003E 19214  4 3941.                      NTRYMOV SRC=RHT,DEST=CUR      |
 0032B8 5E10 8038            00038 19217  4          +
 0032BC 48F0 8036            00036 19218  4          +
 0032C0 5EF0 8030            00030 19219  4          +
 0032C4 5890 69DA/0D99       03778 19222  4          +
 0032CA                            19224  3 3942.                    END   ,                       OF MOVE RIGHT BODY TO CUR
 0032CA D203 807C 808C 0007C 0008C 19228  3 3943.                    MVC   CHKBSAD,CHKBRAD         MOVE NEW PAR TO PAR - SHIFTED
1FILEVCAT (FILEVC) (09:45) (22MAR04) Inner Balance - Right => Cur                                                           Page  143
0Current Usings:  (NTRY,R1) (DSKBLK,R2) (NODE,R3) (RQB,R5) (*,R6) (*,R7) (CHKPNT,R8) (FSB,R10)
0Loc    Object Code    Addr1 Addr2  Stmt Lv Lineno    Source Statement           (Hibal 5, Asmedit 3.3)  HLASM R4.0  2004/03/22 09.45
+___    ______ ____    _____ _____  ____ __ ______    ______ _________
00032D0 D201 809C 80AC 0009C 000AC 19229  3 3944.                    MVC   CHKBSLN,CHKBNPL         | LEN
 0032D6 D203 8080 8094 00080 00094 19230  3 3945.                    MVC   CHKBDAD,CHKBRPA         DEST LOC
 0032DC 4810 803E            0003E 19231  3 3946.                    NTRYMOV SRC=RHT,DEST=PAR      |
 0032E0 5E10 8038            00038 19234  3          +
 0032E4 48F0 8026            00026 19235  3          +
 0032E8 5EF0 8020            00020 19236  3          +
 0032EC 5890 69DA/0D99       03778 19239  3          +
 0032F2                            19241  2 3947.                  END   ,                       OF ROOM FOR AT LEAST PARENT
 0032F2                            19245  1 3948.                END   ,                       OF PROBABLY NEED TO FREE
1FILEVCAT (FILEVC) (09:45) (22MAR04) Inner Balance - Cur => Right                                                           Page  144
0Current Usings:  (NTRY,R1) (DSKBLK,R2) (NODE,R3) (RQB,R5) (*,R6) (*,R7) (CHKPNT,R8) (FSB,R10)
0Loc    Object Code    Addr1 Addr2  Stmt Lv Lineno    Source Statement           (Hibal 5, Asmedit 3.3)  HLASM R4.0  2004/03/22 09.45
+___    ______ ____    _____ _____  ____ __ ______    ______ _________
00032F2 6558           032F2 0317C 19250  1 3950.                ELSEIF (CNT,GT,CHKSPAC),BEGIN PROBABLY NEED TO FILL
 0032F2 47F0 6708            034A6 19256  1          +
 0032F6 49E0 80AE            000AE 19270  1          +
 0032FA 47D0 6708            034A6 19271  1          +
 0032FE 18FE                       19276  2 3951.                  LR    PTR,CNT                 MAX SPACE TO FILL
 003300 9180 801C      0001C       19277  2 3952.                  IF    CHKFACC,'SH PTR,FSBNANSP '       | (ACC)
 003304 47E0 656E            0330C 19287  2          +
 003308 4BF0 A0BC            000BC 19293  2          +
 00330C 6572           0330C 03306 19298  2 3953.                  ELSE  'SH PTR,FSBNFNSP '      | (FILE)
 00330C 47F0 6576            03314 19303  2          +
 003310 4BF0 A0C8            000C8 19310  2          +
 003314 4BE0 80AE            000AE 19315  2 3954.                  SH    CNT,CHKSPAC             CNT = IDEAL SPACE TO FILL
 003318 4840 80AA            000AA 19316  2 3955.                  LH    QR,CHKBRPL              RIGHT PARENT ENTRY LENGTH
 00331C 19F4/4750 6708       034A6 19317  2 3956.                  IF    (PTR,GE,QR),BEGIN       ROOM FOR AT LEAST THE PARENT
 003322 1BF4                       19332  3 3957.                    SR    PTR,QR                  DECR MAX SPACE TO FILL
 003324 1BE4                       19333  3 3958.                    SR    CNT,QR                  DECR IDEAL SPACE TO FILL
 003326 4830 8036            00036 19334  3 3959.                    LH    NOD,CHKCURN             ADDR TO CURRENT NODE
 00332A 5E30 8030            00030 19335  3 3960.                    AL    NOD,CHKCURA             |
 00332E 4110 3008            00008 19336  3 3961.                    LA    IX,NODNTRYS             ADDR TO CUR ENTRYS (IX)
 003332 12EE/47D0 6708       034A6 19337  3 3962.                    IF    (CNT,POS),BEGIN         NEED MORE THAN JUST PARENT
 003338 9180 801C      0001C       19351  4 3963.                      IF    CHKFACC,'LH DSK,FSBNASPA '       MAX SPAC IN NODE (ACC)
 00333C 47E0 65A6            03344 19361  4          +
 003340 4820 A0B4            000B4 19367  4          +
 003344 65AA           03344 0333E 19372  4 3964.                      ELSE  'LH DSK,FSBNFSPA '      | (FILE)
 003344 47F0 65AE            0334C 19377  4          +
 003348 4820 A0C0            000C0 19384  4          +
 00334C 4B20 3004            00004 19389  4 3965.                      SH    DSK,NODSPACE       TOTAL USED = MAX FREE - CUR FREE
 003350 1222/4720 65BC       0335A 19390  4 3966.                      IF    (DSK,NPOS),BEGIN        NOTHING TO MOVE OUT
 003356 9680 801D      0001D       19404  5 3967.                        SET   CHKFBAL                 INDICATE REBALANCE
 00335A                            19410  4 3968.                      END   ,                       OF NOTHING TO MOVE OUT
 00335A 65C0           0335A 03354 19414  4 3969.                      ELSE  BEGIN                   SOMETHING TO MOVE OUT OF CUR
 00335A 47F0 6652            033F0 19419  4          +
 00335E 4110 3008            00008 19425  5 3970.                        LA    IX,NODNTRYS             ADDR TO CUR ENTRYS
 003362 5800 69DE            0377C 19426  5 3971.                        L     MIX,=&L.AL1(NIL)   SET 2 PREV TO NIL (MIX = 2 PREV NTRY)
 003366 1830                       19427  5 3972.                        LR    NOD,MIX            SET PREV TO NIL (NOD = PREV ENTRY)
 003368 192F/47D0 6602       033A0 19428  5 3973.     NBRCUMAX           IF    (DSK,GT,PTR),BEGIN      NOT YET UNDER MAX
 00336E                            19444  6 3974.                          CLC   NTRYLEN,=&L.AL1(NIL)    NOT @ END
 00336E D501 1000 69DE 00000 0377C        6          +
 003374 4780 65EC            0338A 19445  6 3975.                          IF    NE,BEGIN                |
 003378 4840 1000            00000 19456  7 3976.                            LH    QR,NTRYLEN              LEN OF THIS ENTRY
 00337C 1B24                       19457  7 3977.                            SR    DSK,QR                  DECR REMAINING LENGTH IN CUR
 00337E 1803                       19458  7 3978.                            LR    MIX,NOD                 ADV PREVIOUS PTRS
 003380 1831                       19459  7 3979.                            LR    NOD,IX                  |
 003382 4114 1000            00000 19460  7 3980.                            LA    IX,NTRY(QR)             NEXT ENTRY
 003386 47F0 65CA            03368 19461  7 3981.                            B     NBRCUMAX                TRY TO GET UNDER MAX
 00338A                            19462  6 3982.                          END   ,                       OF NOT @ END
 00338A 65F0           0338A 03376 19466  6 3983.                          ELSE  BEGIN                   @ END BEFORE UNDER MAX
 00338A 47F0 6602            033A0 19471  6          +
 00338E 1813                       19477  7 3984.                            LR    IX,NOD                  NEW PARENT IS PREV ENTRY
 003390 5010 8098            00098 19478  7 3985.                            ST    IX,CHKBNPA              |
 003394 D201 80AC 1000 000AC 00000 19479  7 3986.                            MVC   CHKBNPL,NTRYLEN         | (LEN)
 00339A                            19480  7 3987.                            CLEAR CHKBCLN                 NOTHING TO MOVE FROM CUR TO RHT
 00339A D701 80A4 80A4 000A4 000A4 19486  7          +
 0033A0                            19487  6 3988.                          END   ,                       OF @ END BEFORE UNDER MAX
1FILEVCAT (FILEVC) (09:45) (22MAR04) Inner Balance - Cur => Right                                                           Page  145
0Current Usings:  (NTRY,R1) (DSKBLK,R2) (NODE,R3) (RQB,R5) (*,R6) (*,R7) (CHKPNT,R8) (FSB,R10)
0Loc    Object Code    Addr1 Addr2  Stmt Lv Lineno    Source Statement           (Hibal 5, Asmedit 3.3)  HLASM R4.0  2004/03/22 09.45
+___    ______ ____    _____ _____  ____ __ ______    ______ _________
00033A0                            19491  5 3989.                        END   ,                       OF NOT YET UNDER MAX
 0033A0 6606           033A0 0336C 19495  5 3990.                        ELSE  BEGIN                   LOOK FOR IDEAL LEN
 0033A0 47F0 6652            033F0 19500  5          +
 0033A4 192E/47D0 6628       033C6 19506  6 3991.     NBRCIDEA             IF    (DSK,GT,CNT),BEGIN      STILL OVER IDEAL
 0033AA                            19522  7 3992.                            CLC   NTRYLEN,=&L.AL1(NIL)    NOT @ END
 0033AA D501 1000 69DE 00000 0377C        7          +
 0033B0 4780 6628            033C6 19523  7 3993.                            IF    NE,BEGIN                |
 0033B4 4840 1000            00000 19534  8 3994.                              LH    QR,NTRYLEN              LEN OF THIS ENTRY
 0033B8 1B24                       19535  8 3995.                              SR    DSK,QR                  DECR REMAINING LENGTH IN CUR
 0033BA 1803                       19536  8 3996.                              LR    MIX,NOD                 ADV PREVIOUS PTRS
 0033BC 1831                       19537  8 3997.                              LR    NOD,IX                  |
 0033BE 4114 1000            00000 19538  8 3998.                              LA    IX,NTRY(QR)             NEXT ENTRY
 0033C2 47F0 6606            033A4 19539  8 3999.                              B     NBRCIDEA                TRY TO GET TO IDEAL LEN
 0033C6                            19540  7 4000.                            END   ,                       OF NOT @ END
 0033C6                            19544  6 4001.                          END   ,                       OF STILL OVER IDEAL
 0033C6 5900 69DE            0377C 19548  6 4002.                          C     MIX,=&L.AL1(NIL)        2ND PREV ENTRY DOESN'T EXIST!
 0033CA 4770 6634            033D2 19549  6 4003.                          IF    EQ,BEGIN                |
 0033CE 9680 801D      0001D       19560  7 4004.                            SET   CHKFBAL                 RAN OUT OF ENTRYS, REBALANCE
 0033D2                            19566  6 4005.                          END   ,                  OF 2ND PREV ENTRY DOESN'T EXIST!
 0033D2 6638           033D2 033CC 19570  6 4006.                          ELSE  BEGIN                   2ND PREV DOES EXIST
 0033D2 47F0 6640            033DE 19575  6          +
 0033D6 1813                       19581  7 4007.                            LR    IX,NOD                  CUR := PREV
 0033D8 1830                       19582  7 4008.                            LR    NOD,MIX                 NEW_PAR := 2ND PREV
 0033DA 4A20 1000            00000 19583  7 4009.                            AH    DSK,NTRYLEN             ADD THIS ENTRYS LEN TO MOVE OUT
 0033DE                            19584  6 4010.                          END   ,                       OF 2ND PREV DOES EXIST
 0033DE 5010 8088            00088 19588  6 4011.                          ST    IX,CHKBCAD         ADDR OF ENTRYS TO MOVE OUT OF CUR
 0033E2 4020 80A4            000A4 19589  6 4012.                          STH   DSK,CHKBCLN             | LEN
 0033E6 5030 8098            00098 19590  6 4013.                          ST    NOD,CHKBNPA             ADDR OF NEW PAR
 DROP   NODE,R3                    19591  6 4014.                          WITH (NTRY,NOD),'MVC CHKBNPL,NTRYLEN ' | (LEN)
 USING  NTRY,R3
 0033EA D201 80AC 3000 000AC 00000 19609  6          +
 DROP   NTRY,R3
 USING  NODE,R3
 0033F0                            19625  5 4015.                        END   ,                       OF LOOK FOR IDEAL LEN
 0033F0                            19629  4 4016.                      END   ,                       OF SOMETHING TO MOVE OUT OF CUR
 0033F0                            19633  4 4017.                      BEGIN ,                       COMPUTE RIGHT ADDR
 0033F0 4830 803E            0003E 19637  5 4018.                        LH    NOD,CHKRHTN             ADDR TO RIGHT NODE
 0033F4 5E30 8038            00038 19638  5 4019.                        AL    NOD,CHKRHTA             |
 0033F8 4110 3008            00008 19639  5 4020.                        LA    IX,NODNTRYS             RIGHT ADDR (DEST)
 0033FC 5010 808C            0008C 19640  5 4021.                        ST    IX,CHKBRAD              |
 003400                            19641  4 4022.                      END   ,                       OF COMPUTE RIGHT ADDR
                                   19645  4 4023.     *               Change offspring pointers of entrys to be moved
 003400 5810 8094            00094 19646  4 4024.                      L     IX,CHKBRPA              Par_Ptr := Old_End_Ptr
 003404 41F0 1002            00002 19647  4 4025.                      LA    PTR,NTRYOFFB            | |
 003408 5810 8088            00088 19648  4 4026.                      L     IX,CHKBCAD              | Addr to end <NIL> entry
 00340C 4A10 80A4            000A4 19649  4 4027.                      AH    IX,CHKBCLN              |
 003410 D203 F000 1002 00000 00002 19650  4 4028.                      MVC   @PTR(PL),NTRYOFFB       |
 003416 41F0 1002            00002 19651  4 4029.                      LA    PTR,NTRYOFFB            Old_End_Ptr := New_Par_Ptr
 00341A 5810 8098            00098 19652  4 4030.                      L     IX,CHKBNPA              | New_Par_Ptr
 00341E D203 F000 1002 00000 00002 19653  4 4031.                      MVC   @PTR(PL),NTRYOFFB       |
 003424 D203 1002 8034 00002 00034 19654  4 4032.                      MVC   NTRYOFFB(PL),CHKCURB    New_Par_Ptr := Ptr_to_right
                                   19655  4 4033.     *               Move entrys
 00342A D203 807C 8094 0007C 00094 19656  4 4034.                      MVC   CHKBSAD,CHKBRPA         SOURCE LOC
 003430 D201 809C 80AA 0009C 000AA 19657  4 4035.                      MVC   CHKBSLN,CHKBRPL         | LEN
1FILEVCAT (FILEVC) (09:45) (22MAR04) Inner Balance - Cur => Right                                                           Page  146
0Current Usings:  (NTRY,R1) (DSKBLK,R2) (NODE,R3) (RQB,R5) (*,R6) (*,R7) (CHKPNT,R8) (FSB,R10)
0Loc    Object Code    Addr1 Addr2  Stmt Lv Lineno    Source Statement           (Hibal 5, Asmedit 3.3)  HLASM R4.0  2004/03/22 09.45
+___    ______ ____    _____ _____  ____ __ ______    ______ _________
0003436 D203 8080 808C 00080 0008C 19658  4 4036.                      MVC   CHKBDAD,CHKBRAD         DEST LOC
 00343C 4810 8026            00026 19659  4 4037.                      NTRYMOV SRC=PAR,DEST=RHT      MOVE Rht_Par ==> Rht
 003440 5E10 8020            00020 19662  4          +
 003444 48F0 803E            0003E 19663  4          +
 003448 5EF0 8038            00038 19664  4          +
 00344C 5890 69DA/0D99       03778 19667  4          +
 003452                            19669  4 4038.                      IF    (CHKBCLN,NZ),BEGIN      MOVE Cur_Entrys ==> Rht
 003452 D601 80A4 80A4 000A4 000A4 19679  4          +
 003458 4780 66E0            0347E 19680  4          +
 00345C D203 807C 8088 0007C 00088 19685  5 4039.                        MVC   CHKBSAD,CHKBCAD         SOURCE LOC
 003462 D201 809C 80A4 0009C 000A4 19686  5 4040.                        MVC   CHKBSLN,CHKBCLN         | LEN (SAME DEST)
 003468 4810 8036            00036 19687  5 4041.                        NTRYMOV SRC=CUR,DEST=RHT      MOVE Cur_Entrys ==> Rht
 00346C 5E10 8030            00030 19690  5          +
 003470 48F0 803E            0003E 19691  5          +
 003474 5EF0 8038            00038 19692  5          +
 003478 5890 69DA/0D99       03778 19695  5          +
 00347E                            19697  4 4042.                      END   ,                       OF MOVE Rht_Entrys ==> Cur
 00347E D203 807C 8098 0007C 00098 19701  4 4043.                      MVC   CHKBSAD,CHKBNPA         SOURCE LOC (New_Par)
 003484 D201 809C 80AC 0009C 000AC 19702  4 4044.                      MVC   CHKBSLN,CHKBNPL         | LEN
 00348A D203 8080 8094 00080 00094 19703  4 4045.                      MVC   CHKBDAD,CHKBRPA         DEST LOC (Right_Par)
 003490 4810 8036            00036 19704  4 4046.                      NTRYMOV SRC=CUR,DEST=PAR      MOVE New_Par ==> Par
 003494 5E10 8030            00030 19707  4          +
 003498 48F0 8026            00026 19708  4          +
 00349C 5EF0 8020            00020 19709  4          +
 0034A0 5890 69DA/0D99       03778 19712  4          +
 0034A6                            19714  3 4047.                    END   ,                       OF ROOM FOR AT LEAST THE PARENT
 0034A6                            19718  2 4048.                  END   ,                       OF SOMETHING TO MOVE OUT OF CUR
 0034A6                            19722  1 4049.                END   ,                       OF PROBABLY NEED TO FILL
 0034A6                            19726    4050.              END   ,                       OF RIGHT IN BALANCE
1FILEVCAT (FILEVC) (09:45) (22MAR04) Inner Balance - Rebalance test and Balance flags                                       Page  147
0Current Usings:  (NTRY,R1) (DSKBLK,R2) (NODE,R3) (RQB,R5) (*,R6) (*,R7) (CHKPNT,R8) (FSB,R10)
0Loc    Object Code    Addr1 Addr2  Stmt Lv Lineno    Source Statement           (Hibal 5, Asmedit 3.3)  HLASM R4.0  2004/03/22 09.45
+___    ______ ____    _____ _____  ____ __ ______    ______ _________
00034A6 4830 8026            00026 19731    4052.              LH    NOD,CHKPARN             SET PAR BALANCE FLAGS
 0034AA 5E30 8020            00020 19732    4053.              AL    NOD,CHKPARA             |
 0034AE 4810 3004            00004 19733    4054.              LH    IX,NODSPACE             | IX = Free space
 0034B2 9180 801C      0001C       19734    4055.              IF    CHKFACC,BEGIN           ACCOUNT NODE
 0034B6 47E0 6724            034C2 19744             +
 0034BA 4800 A0BA            000BA 19749  1 4056.                LH    MIX,FSBNAXSP            MIX = Max free space in node
 0034BE 48E0 A0BC            000BC 19750  1 4057.                LH    CNT,FSBNANSP            CNT = Min free space in node
 0034C2 6728           034C2 034B8 19751    4058.              END   ELSE,BEGIN              FILE NODE
 0034C2 47F0 6730            034CE 19760             +
 0034C6 4800 A0C6            000C6 19766  1 4059.                LH    MIX,FSBNFXSP            MIX = Max free space in node
 0034CA 48E0 A0C8            000C8 19767  1 4060.                LH    CNT,FSBNFNSP            CNT = Min free space in node
 0034CE                            19768    4061.              END   ,                       OF FILE NODE
 0034CE 94E7 3006      00006       19772    4062.              CLEAR NODFEMT+NODFFUL
 0034D2 9120 3006      00006       19782    4063.              IF    (NODFTRT),BEGIN         TREE ROOT
 0034D6 47E0 6754            034F2 19792             +
 0034DA                            19797  1 4064.                IF    (NODNTNUM,LT,1),'SET NODFEMT '
 0034DA D501 69EE 3002 0378C 00002 19809  1          +
 0034E0 47D0 674A            034E8 19810  1          +
 0034E4 9608 3006      00006       19821  1          +
 0034E8 191E/47B0 6754       034F2 19826  1 4065.                IF    (IX,LT,CNT),'SET NODFFUL '
 0034EE 9610 3006      00006       19847  1          +
 0034F2 6758           034F2 034D8 19852    4066.              END   ELSE,BEGIN              NOT TREE ROOT
 0034F2 47F0 676C            0350A 19861             +
 0034F6 1910/47D0 6762       03500 19867  1 4067.                IF    (IX,GT,MIX),'SET NODFEMT '
 0034FC 9608 3006      00006       19888  1          +
 003500 191E/47B0 676C       0350A 19893  1 4068.                IF    (IX,LT,CNT),'SET NODFFUL '
 003506 9610 3006      00006       19914  1          +
 00350A                            19919    4069.              END   ,                       OF NOT TREE ROOT
 00350A 4830 8036            00036 19923    4070.              LH    NOD,CHKCURN             CLEAR CUR BAL FLAGS
 00350E 5E30 8030            00030 19924    4071.              AL    NOD,CHKCURA             |
 003512 48E0 3004            00004 19925    4072.              LH    CNT,NODSPACE            | TOTAL SPACE AVAILABLE
 003516 94E7 3006      00006       19926    4073.              CLEAR NODFFUL+NODFEMT         |
 00351A 9101 801C      0001C       19936    4074.              IF    CHKFRHTU,BEGIN          RHT IN BALANCE
 00351E 47E0 6794            03532 19946             +
 003522 4830 803E            0003E 19951  1 4075.                LH    NOD,CHKRHTN             CLEAR RHT BAL FLAGS
 003526 5E30 8038            00038 19952  1 4076.                AL    NOD,CHKRHTA             |
 00352A 4AE0 3004            00004 19953  1 4077.                AH    CNT,NODSPACE            | TOTAL SPACE AVAILABLE
 00352E 94E7 3006      00006       19954  1 4078.                CLEAR NODFFUL+NODFEMT         |
 003532                            19964    4079.              END   ,                       OF RHT IN BALANCE
 003532 9102 801C      0001C       19968    4080.              IF    CHKFLFTU,BEGIN          LFT IN BALANCE
 003536 47E0 67AC            0354A 19978             +
 00353A 4830 802E            0002E 19983  1 4081.                LH    NOD,CHKLFTN             CLEAR LFT BAL FLAGS
 00353E 5E30 8028            00028 19984  1 4082.                AL    NOD,CHKLFTA             |
 003542 4AE0 3004            00004 19985  1 4083.                AH    CNT,NODSPACE            | TOTAL SPACE AVAILABLE
 003546 94E7 3006      00006       19986  1 4084.                CLEAR NODFFUL+NODFEMT         |
 00354A                            19996    4085.              END   ,                       OF LFT IN BALANCE
 00354A 40E0 80AE            000AE 20000    4086.              STH   CNT,CHKSPAC             TOTAL SPACE AVAILABLE
 00354E 9180 801D      0001D       20001    4087.              IF    CHKFBAL,BEGIN           REBALANCE PASS IF NECESSARY
 003552 47E0 67BC            0355A 20011             +
 003556 47F0 6000            02D9E 20016  1 4088.                B     NBREBAL                 |
 00355A                            20017    4089.              END   ,                       OF REBALANCE PASS IF NECESSARY
 00355A 1BFF                       20021    4090.              CLEAR R15                     ALL OK - NODES BALANCED
 00355C 4BD0 69F0            0378E 20025    4091.     NBBALX   DIREST FBR,RAR
 003560 5860 D000            00000 20029             +
1FILEVCAT (FILEVC) (09:45) (22MAR04) Inner Balance - Rebalance test and Balance flags                                       Page  148
0Current Usings:  (NTRY,R1) (DSKBLK,R2) (NODE,R3) (RQB,R5) (*,R6) (*,R7) (CHKPNT,R8) (FSB,R10)
0Loc    Object Code    Addr1 Addr2  Stmt Lv Lineno    Source Statement           (Hibal 5, Asmedit 3.3)  HLASM R4.0  2004/03/22 09.45
+___    ______ ____    _____ _____  ____ __ ______    ______ _________
0003564 5890 D004            00004 20030             +
 003568 12FF                       20031    4092.              LTR   R15,R15
 00356A 07F9                       20032    4093.              BR    RAR
 DROP   NTRY,R1                    20033    4094.              DROP  IX
 DROP   NODE,R3                    20040    4095.              DROP  NOD
                                   20047    4096.     *NEST,2
1FILEVCAT (FILEVC) (09:45) (22MAR04) Find Dividing Parent                                                                   Page  149
0Current Usings:  (DSKBLK,R2) (RQB,R5) (*,R6) (*,R7) (CHKPNT,R8) (FSB,R10)
0Loc    Object Code    Addr1 Addr2  Stmt Lv Lineno    Source Statement           (Hibal 5, Asmedit 3.3)  HLASM R4.0  2004/03/22 09.45
+___    ______ ____    _____ _____  ____ __ ______    ______ _________
0                                  20049    4098.     *********************************************************************
                                   20050    4099.     * ON ENTRY: CHKFLFTU and CHKFRHTU flags indicate if the             *
                                   20051    4100.     *             respective left and right nodes are in the balance    *
                                   20052    4101.     *           The left, current, right, and parent pointers are       *
                                   20053    4102.     *             assumed to be initialized and the nodes in memory     *
                                   20054    4103.     * ON EXIT:  CHKBLPA/LPL and CHKBRPA/RPL are initialized             *
                                   20055    4104.     *********************************************************************
 USING  NODE,R3                    20056    4105.              USING NODE,NOD
 00356C 5060 D000            00000 20065    4106.     PARNTRY  DIRENT FBR
 003570 41D0 D004/0D60       00004 20070             +
 003576 9102 801C      0001C       20088    4107.              IF    CHKFLFTU,BEGIN          LEFT NODE IS IN BALANCE
 DROP   *,R6
 USING  *,R6
 00357A 47E0 600C            03582 20098             +
 00357E 4110 802C            0002C 20103  1 4108.                LA    IX,CHKLFTB              ADDR TO LEFT NODE
 003582                            20104    4109.              END   ,                       OF LEFT NODE IS IN BALANCE
 003582 6010           03582 0357C 20108    4110.              ELSE  BEGIN                   CUR NODE IS LEFT-MOST
 003582 47F0 6014            0358A 20113             +
 003586 4110 8034            00034 20119  1 4111.                LA    IX,CHKCURB              ADDR TO CUR NODE
 00358A                            20120    4112.              END   ,                       OF CUR NODE IS LEFT-MOST
 00358A 4830 8026            00026 20124    4113.              LH    NOD,CHKPARN             ADDR TO PARENT
 00358E 5E30 8020            00020 20125    4114.              AL    NOD,CHKPARA             |
 003592 4130 3008            00008 20126    4115.              LA    NOD,NODNTRYS            ADDR TO INDIVIDUAL ENTRIES
 DROP   NODE,R3                    20127    4116.              WITH  (NTRY,NOD),BEGIN        |
 USING  NTRY,R3
 003596                            20144  1 4117.                LOOP  BEGIN                   LOOK FOR OFFSPRING
 003596                            20150  2 4118.                  IF    ('CLC NTRYOFFB(PL),@IX',EQ),EXIT FOUND OFFSPR
 003596 D503 3002 1000 00002 00000 20157  2          +
 00359C 4780 604A            035C0 20160  2          +
 0035A0                            20166  2 4119.                  IF    ('CLC NTRYLEN,=&L.AL1(NIL)',EQ),BEGIN    NOT FOUND
 0035A0 D501 3000 6206 00000 0377C 20173  2          +
 0035A6 4770 6042            035B8 20174  2          +
 0035AA 5890 620A/0D99       03780 20179  3 4120.                    ABORT  CAT1PNF                1st parent not found
 0035B0 C3C1E3F1D7D5C640           20184  3          +
 0035B8                            20185  2 4121.                  END   ,                       OF NOT FOUND
 0035B8 4A30 3000            00000 20189  2 4122.                  AH    NOD,NTRYLEN             NEXT ENTRY
 0035BC 47F0 6020            03596 20190  1 4123.                UNTIL FALSE,END               OF LOOK FOR OFFSPRING
 0035C0 9102 801C      0001C       20209  1 4124.                IF    CHKFLFTU,BEGIN          SPLITS LEFT/CUR NODES
 0035C4 47E0 6060            035D6 20219  1          +
 0035C8 5030 8090            00090 20224  2 4125.                  ST    NOD,CHKBLPA             PARENT ENTRY ADDRESS
 0035CC D201 80A8 3000 000A8 00000 20225  2 4126.                  MVC   CHKBLPL,NTRYLEN         LEN OF PARENT ENTRY
 0035D2 4A30 3000            00000 20226  2 4127.                  AH    NOD,NTRYLEN             NEXT ENTRY IS RIGHT PAR
 0035D6                            20227  1 4128.                END   ,                       OF SPLITS LEFT/CUR NODES
 0035D6 6064           035D6 035C6 20231  1 4129.                ELSE  'CLEAR CHKBLPL '        ZERO LEN IF NOT IN BAL
 0035D6 47F0 606A            035E0 20236  1          +
 0035DA D701 80A8 80A8 000A8 000A8 20249  1          +
 0035E0 9101 801C      0001C       20254  1 4130.                IF    CHKFRHTU,BEGIN          SPLITS CUR/RHT NODES
 0035E4 47E0 6094            0360A 20264  1          +
 0035E8                            20269  2 4131.                  IF    ('CLC NTRYOFFB(PL),=&L.AL1(NIL)',EQ),BEGIN
 0035E8 D503 3002 6206 00002 0377C 20276  2          +
 0035EE 4770 608A            03600 20277  2          +
 0035F2 5890 620A/0D99       03780 20282  3 4132.                    ABORT  CAT2PNF                2nd parent not found
 0035F8 C3C1E3F2D7D5C640           20287  3          +
 003600                            20288  2 4133.                  END   ,
1FILEVCAT (FILEVC) (09:45) (22MAR04) Find Dividing Parent                                                                   Page  150
0Current Usings:  (DSKBLK,R2) (NTRY,R3) (RQB,R5) (*,R6) (*,R7) (CHKPNT,R8) (FSB,R10)
0Loc    Object Code    Addr1 Addr2  Stmt Lv Lineno    Source Statement           (Hibal 5, Asmedit 3.3)  HLASM R4.0  2004/03/22 09.45
+___    ______ ____    _____ _____  ____ __ ______    ______ _________
0003600 5030 8094            00094 20292  2 4134.                  ST    NOD,CHKBRPA             PARENT ENTRY ADDR
 003604 D201 80AA 3000 000AA 00000 20293  2 4135.                  MVC   CHKBRPL,NTRYLEN         | (LEN)
 00360A                            20294  1 4136.                END   ,                       OF SPLITS CUR/RHT NODES
 00360A 6098           0360A 035E6 20298  1 4137.                ELSE  'CLEAR CHKBRPL '        ZERO LEN IF NOT IN BAL
 00360A 47F0 609E            03614 20303  1          +
 00360E D701 80AA 80AA 000AA 000AA 20316  1          +
 DROP   NTRY,R3                    20321    4138.              END   ,                       OF ADDR TO INDIVIDUAL ENTRIES
 USING  NODE,R3
 003614 4BD0 621A            03790 20336    4139.     PARNTRYX DIREST FBR
 003618 5860 D000            00000 20340             +
 00361C 07F9                       20341    4140.              BR    RAR
 DROP   NODE,R3                    20342    4141.              DROP  NOD
1FILEVCAT (FILEVC) (09:45) (22MAR04) Move Entrys                                                                            Page  151
0Current Usings:  (DSKBLK,R2) (RQB,R5) (*,R6) (*,R7) (CHKPNT,R8) (FSB,R10)
0Loc    Object Code    Addr1 Addr2  Stmt Lv Lineno    Source Statement           (Hibal 5, Asmedit 3.3)  HLASM R4.0  2004/03/22 09.45
+___    ______ ____    _____ _____  ____ __ ______    ______ _________
0                                  20350    4143.     *********************************************************************
                                   20351    4144.     * ON ENTRY:                                                         *
                                   20352    4145.     *           R1  = source node address in mem                        *
                                   20353    4146.     *           R15 = destination node address in mem                   *
                                   20354    4147.     *           CHKBSAD = Source location of move                       *
                                   20355    4148.     *           CHKBSLN = Source length of move                         *
                                   20356    4149.     *               IF CHKBSLN < 0, don't delete source in node         *
                                   20357    4150.     *           CHKBDAD = Destination location of move                  *
                                   20358    4151.     * ON RETURN:                                                        *
                                   20359    4152.     *           IF CC = 0                                               *
                                   20360    4153.     *             Action complete:                                      *
                                   20361    4154.     *               Space fields of nodes have been updated             *
                                   20362    4155.     *               Number of entry counts also updated                 *
                                   20363    4156.     *           IF CC ~ 0                                               *
                                   20364    4157.     *             R14 conatains the PSW at error detection              *
                                   20365    4158.     *             The 2nd low order byte of R15 indicates the module    *
                                   20366    4159.     *               in which the error occured.                         *
                                   20367    4160.     *             The low order byte of R15 contains the error code for *
                                   20368    4161.     *               that module.                                        *
                                   20369    4162.     *********************************************************************
 00361E 5060 D000            00000 20370    4163.     NTRYMOV  DIRENT FBR
 003622 41D0 D004/0D60       00004 20375             +
 DROP   *,R6                       20393    4164.              REGCH (IX,1),(PTR,15)         DON'T DAMAGE THESE ADDR REGS
 USING  *,R6
 003628                            20394    4165.              IF    (CHKBSLN,NZ),BEGIN      SOMETHING TO MOVE
 003628 D601 809C 809C 0009C 0009C 20404             +
 00362E 4780 6136            0375E 20405             +
 003632                            20410  1 4166.                BEGIN ,                       COUNT NUM OF ENTRYS IN SOURCE
 003632 1BEE                       20414  2 4167.                  CLEAR CNT                     INIT ENTRY COUNT
 003634 5840 807C            0007C 20418  2 4168.                  L     QR,CHKBSAD              SOURCE ADDRESS
 USING  NTRY,R4                    20419  2 4169.                  WITH  (NTRY,QR),BEGIN         ADDR TO ENTRYS OF SOURCE
 003638 4800 809C            0009C 20433  3 4170.                    LH    MIX,CHKBSLN             SOURCE LENGTH
 00363C 1000                       20434  3 4171.                    LPR   MIX,MIX                 | ABS VAL
 00363E 4900 4000            00000 20435  3 4172.     NTMSCNT        IF    (MIX,GE,NTRYLEN),BEGIN  AT LEAST 1 MORE ENTRY
 003642 4750 6034            0365C 20448  3          +
 003646 4B00 4000            00000 20453  4 4173.                      SH    MIX,NTRYLEN             DECR LENGTH
 00364A 5EE0 614C            03774 20454  4 4174.                      INCR  CNT                     INCR NUM OF ENTRYS
 00364E 4A40 4000            00000 20457  4 4175.                      AH    QR,NTRYLEN              ADDR TO NEXT ENTRY
 003652                            20458  4 4176.                      CLC   NTRYLEN,=&L.AL1(NIL)    REPEAT IF NOT @ END
 003652 D501 4000 6154 00000 0377C        4          +
 003658 4770 6016            0363E 20459  4 4177.                      IF    NE,NTMSCNT              |
 00365C                            20473  3 4178.                    END   ,                       OF AT LEAST 1 MORE ENTRY
 00365C 40E0 809E            0009E 20477  3 4179.                    STH   CNT,CHKBSN              SAVE NUM OF ENTRYS IN SOURCE
 DROP   NTRY,R4                    20478  2 4180.                  END   ,                       OF ADDR TO ENTRYS OF SOURCE
 003660                            20486  1 4181.                END   ,                  OF COUNT NUM OF ENTRYS IN SOURCE
 003660 4840 809C            0009C 20490  1 4182.                LH    QR,CHKBSLN              SOURCE ENTRYS LENGTH
 003664 1244/4740 605E       03686 20491  1 4183.                IF    (QR,NNEG),BEGIN         DELETE SOURCE
 00366A 9620 801D      0001D       20505  2 4184.                  SET   CHKFDSRC
 USING  NODE,R1                    20511  2 4185.                  WITH  (NODE,R1)          ONLY UPDATE COUNTS IF DELETE SOURCE
 00366E 4800 1004            00004 20524  2 4186.                  LH    MIX,NODSPACE            UPDATE SOURCE LEN
 003672 4A00 809C            0009C 20525  2 4187.                  AH    MIX,CHKBSLN             |
 003676 4000 1004            00004 20526  2 4188.                  STH   MIX,NODSPACE            |
 00367A 4800 1002            00002 20527  2 4189.                  LH    MIX,NODNTNUM            UPDATE NUM OF ENTRYS IN SOURCE
 00367E 4B00 809E            0009E 20528  2 4190.                  SH    MIX,CHKBSN              |
1FILEVCAT (FILEVC) (09:45) (22MAR04) Move Entrys                                                                            Page  152
0Current Usings:  (NODE,R1) (DSKBLK,R2) (RQB,R5) (*,R6) (*,R7) (CHKPNT,R8) (FSB,R10)
0Loc    Object Code    Addr1 Addr2  Stmt Lv Lineno    Source Statement           (Hibal 5, Asmedit 3.3)  HLASM R4.0  2004/03/22 09.45
+___    ______ ____    _____ _____  ____ __ ______    ______ _________
0003682 4000 1002            00002 20529  2 4191.                  STH   MIX,NODNTNUM            |
 DROP   NODE,R1                    20530  1 4192.                END   ,                       OF DELETE SOURCE
 003686 6062           03686 03668 20539  1 4193.                ELSE  'CLEAR CHKFDSRC '       OR DON'T UPDATE SOURCE
 003686 47F0 6066            0368E 20544  1          +
 00368A 94DF 801D      0001D       20557  1          +
 USING  NODE,R15                   20562  1 4194.                WITH  (NODE,R15),BEGIN        ADDR TO DEST NODE
 00368E 4800 F004            00004 20576  2 4195.                  LH    MIX,NODSPACE            UPDATE DEST LEN
 003692 4B00 809C            0009C 20577  2 4196.                  SH    MIX,CHKBSLN             |
 003696 4000 F004            00004 20578  2 4197.                  STH   MIX,NODSPACE            |
 00369A 4800 F002            00002 20579  2 4198.                  LH    MIX,NODNTNUM            UPDATE NUM OF ENTRYS IN DEST
 00369E 4A00 809E            0009E 20580  2 4199.                  AH    MIX,CHKBSN              |
 0036A2 4000 F002            00002 20581  2 4200.                  STH   MIX,NODNTNUM            |
 DROP   NODE,R15                   20582  1 4201.                END   ,                       OF ADDR TO DEST NODE
 0036A6 5800 807C            0007C 20590  1 4202.                L     MIX,CHKBSAD             SOURCE ADDR
 0036AA 4810 809C            0009C 20591  1 4203.                LH    IX,CHKBSLN              | (LEN)
 0036AE 1011                       20592  1 4204.                LPR   IX,IX                   | ABS VALUE
 0036B0 58F0 8080            00080 20593  1 4205.                L     PTR,CHKBDAD             DEST ADDR
                                   20594  1 4206.     *               Change entry size in index
 0036B4 1841                       20595  1 4207.                LR    QR,IX                   SOURCE LENGTH - DEST LEN
 USING  NTRY,R15                   20596  1 4208.                WITH  (NTRY,PTR),BEGIN        DEST ADDRESS
 0036B6 41E0 F000            00000 20610  2 4209.                  LA    CNT,NTRY           CNT = START OF OLD FOLLOWING ENTRYS
 0036BA 4810 F000            00000 20611  2 4210.     NTMDEND      LH    IX,NTRYLEN         FIND END OF BLOCK FOLLOWING CUR ENTRY
 0036BE 5910 6154            0377C 20612  2 4211.                  C     IX,=&L.AL1(NIL)         | END OF ENTRIES MARKER
 0036C2 4780 60A6            036CE 20613  2 4212.                  IF    NE,BEGIN                | NOT AT END OF ENTRIES
 0036C6 41F1 F000            00000 20624  3 4213.                    LA    PTR,NTRY(IX)            NEXT ENTRY
 0036CA 47F0 6092            036BA 20625  3 4214.                    B     NTMDEND
 0036CE                            20626  2 4215.                  END   ,                       | OF NOT AT END OF ENTRIES
 0036CE 41F0 F006            00006 20630  2 4216.                  LA    PTR,NTRY+CNODNLLN  PTR = END OF OLD FOLLOWING ENTRYS
 DROP   NTRY,R15                   20631  1 4217.                END   ,                       OF ADDR TO ENTRYS
                                   20639  1 4218.     *               Add entrys
                                   20640  1 4219.     *               CNT = START OF OLD FOLLOWING ENTRYS
                                   20641  1 4220.     *               PTR = END OF OLD FOLLOWING ENTRYS (& IS DECR)
 0036D2 1804                       20642  1 4221.                LR    MIX,QR             MIX = TOTAL SIZE TO BE MADE AVAIL
 0036D4 5940 615C            03784 20643  1 4222.                CEIL  QR,256                  QR = LENGTH TO MOVE EACH LOOP
 0036D8 47D0 60B8            036E0 20652  1          +
 0036DC 5840 615C            03784 20657  1          +
 0036E0 181F                       20662  1 4223.     NTMEXP     LR    IX,PTR             | REMAINING LENGTH (END - BEGINNING)
 0036E2 1B1E                       20663  1 4224.                SR    IX,CNT                  | |
 0036E4 1914/47B0 60C4       036EC 20664  1 4225.                IF (IX,LT,QR),'LR QR,IX' | | DON'T MOVE MORE THAN WHAT'S THERE
 0036EA 1841                       20680  1          +
 0036EC 1BF4                       20685  1 4226.                SR    PTR,QR                  PTR = SOURCE
 0036EE 181F                       20686  1 4227.                LR    IX,PTR                  IX = DESTINATION
 0036F0 1E10                       20687  1 4228.                ALR   IX,MIX                  |
 0036F2 0640/4440 616A       03792 20688  1 4229.                DEX   QR,'MVC @IX(0),@PTR '   EXPAND
 003792 D200 1000 F000 00000 00000 20699  1          +
 0036F8 5E40 614C            03774 20707  1 4230.                INCR  QR
 0036FC 19FE/4720 60B8       036E0 20710  1 4231.                IF    (PTR,GT,CNT),NTMEXP     MORE TO MOVE
 003702 1840                       20728  1 4232.                LR    QR,MIX                  QR = NET LENGTH CHANGE
                                   20729  1 4233.     *               Do move
 003704                            20730  1 4234.                IF    (CHKBSLN,NZ),BEGIN      SOMETHING TO COPY
 003704 D601 809C 809C 0009C 0009C 20740  1          +
 00370A 4780 60F6            0371E 20741  1          +
                                   20746  2 4235.                  REGCH (MIX,0),(IX,1),(CNT,14),(PTR,15) CHECK REG ASSUMPTIONS
 00370E 5800 8080            00080 20747  2 4236.                  L     MIX,CHKBDAD             DESTINATION (LOC)
1FILEVCAT (FILEVC) (09:45) (22MAR04) Move Entrys                                                                            Page  153
0Current Usings:  (DSKBLK,R2) (RQB,R5) (*,R6) (*,R7) (CHKPNT,R8) (FSB,R10)
0Loc    Object Code    Addr1 Addr2  Stmt Lv Lineno    Source Statement           (Hibal 5, Asmedit 3.3)  HLASM R4.0  2004/03/22 09.45
+___    ______ ____    _____ _____  ____ __ ______    ______ _________
0003712 58E0 807C            0007C 20748  2 4237.                  L     CNT,CHKBSAD             SOURCE
 003716 48F0 809C            0009C 20749  2 4238.                  LH    PTR,CHKBSLN             | (LENGTH)
 00371A 181F                       20750  2 4239.                  LR    IX,PTR                  |
 00371C 0E0E                       20751  2 4240.                  MVCL  MIX,CNT                 COPY ENTRY
 00371E                            20752  1 4241.                END   ,                       OF SOMETHING TO COPY
 00371E 9120 801D      0001D       20756  1 4242.                IF    (CHKFDSRC,AND,(CHKBSLN,NZ)),BEGIN        DELETE SOURCE
 003722 47E0 6136            0375E 20768  1          +
 003726 D601 809C 809C 0009C 0009C 20780  1          +
 00372C 4780 6136            0375E 20781  1          +
 003730 58F0 807C            0007C 20786  2 4243.                  L     PTR,CHKBSAD             ADDR TO ENTRYS FOLLOWING SOURCE
 003734 4AF0 809C            0009C 20787  2 4244.                  AH    PTR,CHKBSLN             |
 USING  NTRY,R15                   20788  2 4245.                  WITH  (NTRY,PTR),BEGIN        |
 003738 41E0 F000            00000 20802  3 4246.                    LA    CNT,NTRY           CNT = STRT OF FOLLOWING SOURCE ENTRYS
 00373C 4810 F000            00000 20803  3 4247.     NTMSEND        LH    IX,NTRYLEN         FIND END OF BLOCK FOLLOWING CUR ENTRY
 003740 5910 6154            0377C 20804  3 4248.                    C     IX,=&L.AL1(NIL)         | END OF ENTRIES MARKER
 003744 4780 6128            03750 20805  3 4249.                    IF    NE,BEGIN                | NOT AT END OF ENTRIES
 003748 41F1 F000            00000 20816  4 4250.                      LA    PTR,NTRY(IX)            NEXT ENTRY
 00374C 47F0 6114            0373C 20817  4 4251.                      B     NTMSEND
 003750                            20818  3 4252.                    END   ,                       | OF NOT AT END OF ENTRIES
 003750 41F0 F006            00006 20822  3 4253.                    LA    PTR,NTRY+CNODNLLN  PTR = END OF OLD FOLLOWING ENTRYS
 DROP   NTRY,R15                   20823  2 4254.                  END   ,                  OF ADDR TO ENTRYS FOLLOWING SOURCE
                                   20831  2 4255.     *               Delete source entrys
                                   20832  2 4256.                  REGCH (MIX,0),(IX,1),(CNT,14),(PTR,15) CHECK REG ASSUMPTIONS
 003754 1BFE                       20833  2 4257.                  SR    PTR,CNT            LENGTH (CNT = SOURCE OF THIS MOVE)
 003756 181F                       20834  2 4258.                  LR    IX,PTR                  |
 003758 5800 807C            0007C 20835  2 4259.                  L     MIX,CHKBSAD             DEST ADDR OF THIS MOVE
 00375C 0E0E                       20836  2 4260.                  MVCL  MIX,CNT                 DELETE SOURCE ENTRYS
 00375E                            20837  1 4261.                END   ,                       OF DELETE SOURCE
 00375E                            20841    4262.              END   ,                       OF SOMETHING TO MOVE
 00375E 1BFF                       20845    4263.              CLEAR R15                     SET CC - OK
 003760 4BD0 6168            03790 20849    4264.     NTMOVERR DIREST FBR
 003764 5860 D000            00000 20853             +
 003768 12FF                       20854    4265.              LTR   R15,R15
 00376A 07F9                       20855    4266.              BR    RAR
 003770                            20856    4267.              LTORG ,
 003770 0000356C                   20858                             =A(PARNTRY)
 003774 00000001                   20859                             =A(1)
 003778 0000361E                   20860                             =A(NTRYMOV)
 00377C FFFFFFFF                   20861                             =4AL1(NIL)
 003780 00000000                   20862                             =V(VKAPUT)
 003784 00000100                   20863                             =A(256)
 003788 0019                       20864                             =Y(L'NTRYGR-1)
 00378A 0020                       20865                             =Y(L'NTRYFL)
 00378C 0001                       20866                             =AL2(1)
 00378E 0008                       20867                             =Y(2*4)
 003790 0004           03798 046CB 20868                             =Y(1*4)
 USING  LAST,R3                    20872    4268.              USING LAST,LAS
 USING  CURRENT,R4                 20881    4269.              USING CURRENT,CUR
 USING  NEWCHAIN,R14               20890    4270.              USING NEWCHAIN,NEW
1FILEVCAT (FILEVC) (09:45) (22MAR04) DskInit                                                                                Page  154
0Current Usings:  (DSKBLK,R2) (LAST,R3) (CURRENT,R4) (RQB,R5) (*,R6) (*,R7) (CHKPNT,R8) (FSB,R10) (NEWCHAIN,R14)
0Loc    Object Code    Addr1 Addr2  Stmt Lv Lineno    Source Statement           (Hibal 5, Asmedit 3.3)  HLASM R4.0  2004/03/22 09.45
+___    ______ ____    _____ _____  ____ __ ______    ______ _________
0                                  20900    4272.     *********************************************************************
                                   20901    4273.     * ON ENTRY:                                                         *
                                   20902    4274.     *        DSK = BLOCK BUFFER START ADDRESS                           *
                                   20903    4275.     *        R0  = BLOCK NUMBER                                         *
                                   20904    4276.     * ON RETURN:                                                        *
                                   20905    4277.     *        DSK = BLOCK BUFFER START ADDRESS                           *
                                   20906    4278.     *        BLOCK IS INITIALIZED                                       *
                                   20907    4279.     *********************************************************************
                                   20908    4280.              BUGNTRY DSKINIT
 003798 5060 D000            00000 20910    4281.     DSKINIT  DIRENT FBR
 00379C 41D0 D004/0D60       00004 20915             +
 DROP   *,R6                       20933    4282.     * CLEAR HEADER AREA
 USING  *,R6
 0037A2 41E0 2004            00004 20934    4283.              ZOT   DSKHEAD,LA:CDSKHSIZ-(DSKHEAD-DSKSTART)
 0037A6 41F0 000C/1B11       0000C 20946             +
 0037AC 0EE0                       20948             +
 0037AE 4000 2002            00002 20949    4284.              STH   R0,DSKBNUM              SAVE BLOCK NUMBER
 0037B2 58E0 62EE            03A90 20950    4285.              L     NEW,=A(CDSKNIL)         END OF LIST POINTER
 0037B6 40E0 2008            00008 20951    4286.              STH   NEW,DSKFBAC        THIS ALWAYS NIL, NO PREVIOUS ELEM.
 0037BA 40E0 2006            00006 20952    4287.              STH   NEW,DSKFFWD             NO ELEMENTS IN LIST YET
 0037BE 40E0 200C            0000C 20953    4288.              STH   NEW,DSKBLINK            NO BLOCK LINK ON INIT
                                   20954    4289.     * INITIALIZE REMAINDER OF BLOCK WITH A LINK
 0037C2 41E0 0010            00010 20955    4290.              LA    NEW,CDSKHSIZ            NEW BLOCK IS ONE TO BE LINKED
 0037C6 4800 A0AE            000AE 20956    4291.              LH    R0,FSBDAVA              SIZE OF SPACE REMAINING
                                   20957    4292.     *                                 SIZE OF BLOCK IS IN R0
                                   20958    4293.     *
                                   20959    4294.     * INSERT INTO FIRST FIT LIST
                                   20960    4295.     *
 0037CA 4140 0004            00004 20961    4296.              LA    CUR,DSKHEAD-DSKBLK      POINT TO HEADER
 0037CE 1834                       20962    4297.     INITLINK LR    LAS,CUR                 ADVANCE POINTER BY ONE LINK
 0037D0 4842 3002            00002 20963    4298.              LH    CUR,LASFFWD(DSK)        UPDATE POINTER TO CURRENT LINK
 0037D4 19E4/4750 6040       037E2 20964    4299.              IF    ((NEW,GE,CUR),AND,(CUR,NE,CDSKNIL)),INITLINK
 0037DA 5940 62EE            03A90 20989             +
 0037DE 4770 602C            037CE 20992             +
                                   20998    4300.     *        INSERT IF BEFORE CURRENT ADDRESS OR IF AT END OF LIST
 0037E2 4042 E002            00002 20999    4301.              STH   CUR,NEWFFWD(DSK)        NEW NOW POINTS AHEAD TO CUR
 0037E6 5940 62EE            03A90 21000    4302.              IF    (CUR,NE,CDSKNIL),BEGIN  IF NOT END OF LIST
 0037EA 4780 6050            037F2 21012             +
 0037EE 40E2 4004            00004 21017  1 4303.                STH   NEW,CURFBAC(DSK)        CUR POINTS BACK TO NEW
 0037F2                            21018    4304.              END   ,
 0037F2 40E2 3002            00002 21022    4305.              STH   NEW,LASFFWD(DSK)   LAST NOW POINTS AHEAD TO NEW BLOCK
 0037F6 4032 E004            00004 21023    4306.              STH   LAS,NEWFBAC(DSK)        NEW POINTS BACK TO LAS
 0037FA 4002 E000            00000 21024    4307.              STH   R0,NEWSIZ(DSK)          STORE SIZE OF BLOCK IN BLOCK
 0037FE 184E                       21025    4308.              LR    CUR,NEW                 NOW IT'S INSERTED AND CUR BLOCK
 003800 4A00 200A            0000A 21026    4309.              AH    R0,DSKFRE               TOTAL UP AMOUNT OF FREE MEMORY
 003804 4000 200A            0000A 21027    4310.              STH   R0,DSKFRE               STORE THIS IN BLOCK
 003808 1BFF                       21028    4311.              CLEAR R15                     ALL OK, SET RETURN CODE
 00380A 96C0 200E      0000E       21032    4312.              SET   DSKFINIT+DSKFMOD
 00380E 4BD0 62FA            03A9C 21041    4313.              DIREST FBR
 003812 5860 D000            00000 21044             +
 003816 12FF                       21045    4314.              LTR   R15,R15                 SET CC
 003818 07F9                       21046    4315.              BR    RAR
                                   21047    4316.     * PAGE
1FILEVCAT (FILEVC) (09:45) (22MAR04) DskGet                                                                                 Page  155
0Current Usings:  (DSKBLK,R2) (LAST,R3) (CURRENT,R4) (RQB,R5) (*,R6) (*,R7) (CHKPNT,R8) (FSB,R10) (NEWCHAIN,R14)
0Loc    Object Code    Addr1 Addr2  Stmt Lv Lineno    Source Statement           (Hibal 5, Asmedit 3.3)  HLASM R4.0  2004/03/22 09.45
+___    ______ ____    _____ _____  ____ __ ______    ______ _________
0                                  21049    4318.     *********************************************************************
                                   21050    4319.     * ON ENTRY:                                                         *
                                   21051    4320.     *        R1 = BLOCK BUFFER START ADDRESS                            *
                                   21052    4321.     *        R0 = SIZE OF REQUEST FOR CORE                              *
                                   21053    4322.     *          IF R0 > 0 : USE BEST FIT ALGORITHM                       *
                                   21054    4323.     *          IF R0 < 0 : USE FIRST FIT ALGORITHM                      *
                                   21055    4324.     *   DSKGET must be passed an initialized block.                     *
                                   21056    4325.     * ON RETURN:                                                        *
                                   21057    4326.     *        DSK = BLOCK BUFFER START ADDRESS                           *
                                   21058    4327.     *        CC = 0:                                                    *
                                   21059    4328.     *          R1  = STARTING ADDRESS OF ALLOCATE                       *
                                   21060    4329.     *          R0  = LENGTH OF ALLOCATE                                 *
                                   21061    4330.     *          R14 = AMOUNT OF AVAILABLE SPACE LEFT                     *
                                   21062    4331.     *        CC ~ 0:                                                    *
                                   21063    4332.     *          R14 = PSW @ ERROR DETECTION                              *
                                   21064    4333.     *          IF R15 = 4 THEN NO SPACE AVAILABLE                       *
                                   21065    4334.     *          IF R15 = 8 THEN BLOCK NOT INITIALIZED                    *
                                   21066    4335.     *********************************************************************
000381A 5060 D000            00000 21068    4337.     DSKGET   DIRENT FBR
 00381E 41D0 D004/0D60       00004 21073             +
 003824 1821                       21091    4338.              LR    DSK,R1                  GET CONTROL BLOCK ADDRESS
 DROP   *,R6
 USING  *,R6
 003826 9180 200E      0000E       21092    4339.              IF    (NOT,DSKFINIT),BEGIN    IF BLOCK NOT INITIALIZED
 00382A 4710 6012            03836 21104             +
 00382E 41F0 0008            00008 21109  1 4340.                LA    R15,CDSKINER            INDICATE INITIALIZATION ERROR
 003832 4DE0 6116            0393A 21110  1 4341.                BAS   R14,DGERROR
 003836                            21111    4342.              END   ,
 003836 1200/4770 6020       03844 21115    4343.              IF    (R0,ZERO),BEGIN         NO ACTION IF ZERO LENGTH
 00383C 1BFF/1B11                  21129  1 4344.                CLEAR R15,R1
 003840 47F0 6112            03936 21135  1 4345.                B     DSKGETX                 EXIT ROUTINE
 003844                            21136    4346.              END   ,
 003844 1200/47D0 6084       038A8 21140    4347.              IF    (R0,POS),BEGIN          BEST FIT REQUESTED
 00384A 5A00 6270            03A94 21154  1 4348.                A     R0,=A(CDSKLLIM-1)       ROUND LEN UP TO NEXT 8 BYES
 00384E 5400 6274            03A98 21155  1 4349.                N     R0,=A(-CDSKLLIM)        |
 003852 4900 200A            0000A 21156  1 4350.                IF    (R0,GT,DSKFRE),BEGIN
 003856 47D0 603E            03862 21168  1          +
 00385A 41F0 0004            00004 21173  2 4351.                  LA    R15,CDSKSERR            NO SPACE AVAILABLE
 00385E 47F0 6112            03936 21174  2 4352.                  B     DSKGETX                 |
 003862                            21175  1 4353.                END   ,                       OF NO SPACE AVAILABLE
 003862 1BFF                       21179  1 4354.                CLEAR SIZ                     START OFF WITH CLOSEST = 0
 003864 4140 0004            00004 21183  1 4355.                LA    CUR,DSKHEAD-DSKBLK      START OF LIST
 003868 1834                       21184  1 4356.     BSTLOOK    LR    LAS,CUR                 ADVANCE POINTER
 00386A 4842 3002            00002 21185  1 4357.                LH    CUR,LASFFWD(DSK)        |
 00386E 5940 626C            03A90 21186  1 4358.                IF    (CUR,NE,CDSKNIL),BEGIN  NOT END YET; LOOK FOR BEST
 003872 4780 6070            03894 21198  1          +
 003876 48E2 4000            00000 21203  2 4359.                  LH    NEW,CURSIZ(DSK)         SIZE OF THIS BLOCK
 00387A 19E0/4750 606C       03890 21204  2 4360.                  IF    (NEW,GE,R0),BEGIN       IT'S BIG ENOUGH
 003880 19EF/47C0 6068       0388C 21219  3 4361.                    IF    ((NEW,LE,SIZ),OR,(SIZ,LT,R0)),BEGIN      BEST SO FAR
 003886 19F0/47B0 606C       03890 21242  3          +
                                   21248  4 4362.     *    Since all searches are done by address (lowest address first),
                                   21249  4 4363.     * this test will choose as the best fit block, (from a group of
                                   21250  4 4364.     * blocks of the same size) the one with the highest address.  By
1FILEVCAT (FILEVC) (09:45) (22MAR04) DskGet                                                                                 Page  156
0Current Usings:  (DSKBLK,R2) (LAST,R3) (CURRENT,R4) (RQB,R5) (*,R6) (*,R7) (CHKPNT,R8) (FSB,R10) (NEWCHAIN,R14)
0Loc    Object Code    Addr1 Addr2  Stmt Lv Lineno    Source Statement           (Hibal 5, Asmedit 3.3)  HLASM R4.0  2004/03/22 09.45
+___    ______ ____    _____ _____  ____ __ ______    ______ _________
0                                  21251  4 4365.     * consistantly allocating from the top of the pool (first and best
                                   21252  4 4366.     * fit), one obtains a less fragmented pool.
 00388C 1814                       21253  4 4367.                      LR    R1,CUR                  R1 = LOC; SIZ = LENGTH
 00388E 18FE                       21254  4 4368.                      LR    SIZ,NEW                 |
 003890                            21255  3 4369.                    END   ,                       BEST SO FAR
 003890                            21259  2 4370.                  END   ,                       BEING BIG ENOUGH
 003890 47F0 6044            03868 21263  2 4371.                  B     BSTLOOK                 KEEP LOOKING
 003894                            21264  1 4372.                END   ,                  END OF LIST; CHECK IF BEST FOUND
 003894 19F0/4750 6078       0389C 21268  1 4373.                IF    (SIZ,GE,R0),BEGIN       YES, SPACE WAS FOUND
 00389A 1841                       21283  2 4374.                  LR    CUR,R1                  CUR = LOC; SIZ = LEN
 00389C 607C           0389C 03898 21284  1 4375.                END   ELSE,BEGIN              NO, SPACE WASN'T FOUND
 00389C 47F0 6084            038A8 21293  1          +
 0038A0 41F0 0004            00004 21299  2 4376.                  LA    R15,CDSKSERR            NO SPACE AVAILABLE
 0038A4 47F0 6112            03936 21300  2 4377.                  B     DSKGETX                 |
 0038A8                            21301  1 4378.                END   ,
 0038A8 6088           038A8 03848 21305    4379.              END   ELSE,BEGIN              FIRST FIT REQUESTED
 0038A8 47F0 60C6            038EA 21314             +
 0038AC 1300                       21320  1 4380.                LCR   R0,R0                   COMPLEMENT LENGTH
 0038AE 5A00 6270            03A94 21321  1 4381.                A     R0,=A(CDSKLLIM-1)       ROUND LEN UP TO NEXT 8 BYTES
 0038B2 5400 6274            03A98 21322  1 4382.                N     R0,=A(-CDSKLLIM)        |
 0038B6 4900 200A            0000A 21323  1 4383.                IF    (R0,GT,DSKFRE),BEGIN
 0038BA 47D0 60A2            038C6 21335  1          +
 0038BE 41F0 0004            00004 21340  2 4384.                  LA    R15,CDSKSERR            NO SPACE AVAILABLE
 0038C2 47F0 6112            03936 21341  2 4385.                  B     DSKGETX                 |
 0038C6                            21342  1 4386.                END   ,                       OF NO SPACE AVAILABLE
 0038C6 4140 0004            00004 21346  1 4387.                LA    CUR,DSKHEAD-DSKBLK      LIST HEAD POINTER
 0038CA 1834                       21347  1 4388.     FIRLOOK    LR    LAS,CUR                 INCREMENT, POINTER STYLE
 0038CC 4842 3002            00002 21348  1 4389.                LH    CUR,LASFFWD(DSK)        |
 0038D0 5940 626C            03A90 21349  1 4390.                IF    (CUR,EQ,CDSKNIL),BEGIN
 0038D4 4770 60BC            038E0 21361  1          +
 0038D8 41F0 0004            00004 21366  2 4391.                  LA    R15,CDSKSERR            NO SPACE AVAILABLE
 0038DC 47F0 6112            03936 21367  2 4392.                  B     DSKGETX
 0038E0                            21368  1 4393.                END   ,
 0038E0 48F2 4000            00000 21372  1 4394.                LH    SIZ,CURSIZ(DSK)         GET SIZE(CURRENT)
 0038E4 19F0/4740 60A6       038CA 21373  1 4395.                IF    (SIZ,LT,R0),FIRLOOK     IF BLOCK SMALL, LOOK AHEAD
 0038EA                            21391    4396.              END   ,                       BLK FOUND; CUR=LOC, SIZ=LEN
 0038EA 19F0/4780 60D6       038FA 21395    4397.              IF    (SIZ,NE,R0),BEGIN       NOT ALL SPACE TAKEN
 0038F0 1BF0                       21410  1 4398.                SR    SIZ,R0                  SPACE LEFT OVER
 0038F2 40F2 4000            00000 21411  1 4399.                STH   SIZ,CURSIZ(DSK)         | SAVE IT
 0038F6 1814                       21412  1 4400.                LR    R1,CUR                  ADDRESS OF ALLOC
 0038F8 1A1F                       21413  1 4401.                AR    R1,SIZ                  | R1=ALLOC LOC, R0=ALLOC LEN
 0038FA 60DA           038FA 038EE 21414    4402.              END   ELSE,BEGIN              ALL SPACE TAKEN
 0038FA 47F0 60F2            03916 21423             +
                                   21429  1 4403.     * DELETE FIRST-FIT LINK NOW
 0038FE 4832 4004            00004 21430  1 4404.                LH    LAS,CURFBAC(DSK)   GET PREV ELEMENT IN FIRST-FIT LIST
 003902 48E2 4002            00002 21431  1 4405.                LH    NEW,CURFFWD(DSK)        LAST NOW POINTS TO NEXT
 003906 40E2 3002            00002 21432  1 4406.                STH   NEW,LASFFWD(DSK)        |
 00390A 59E0 626C            03A90 21433  1 4407.                IF    (NEW,NE,CDSKNIL),BEGIN  IF NOT LAST ELEMENT
 00390E 4780 60F2            03916 21445  1          +
 003912 4032 E004            00004 21450  2 4408.                  STH   LAS,NEWFBAC(DSK)        NEXT NOW POINTS TO PREV
 003916                            21451  1 4409.                END   ,
 003916                            21455    4410.              END   ,                       FIRST-FIT LINK IS NOW REMOVED
 003916 48F0 200A            0000A 21459    4411.              LH    SIZ,DSKFRE         GET AMOUNT OF FREE MEM REMAINING
 00391A 1BF0                       21460    4412.              SR    SIZ,R0             SUBTRACT CURRENT ALLOCATED AMOUNT
1FILEVCAT (FILEVC) (09:45) (22MAR04) DskGet                                                                                 Page  157
0Current Usings:  (DSKBLK,R2) (LAST,R3) (CURRENT,R4) (RQB,R5) (*,R6) (*,R7) (CHKPNT,R8) (FSB,R10) (NEWCHAIN,R14)
0Loc    Object Code    Addr1 Addr2  Stmt Lv Lineno    Source Statement           (Hibal 5, Asmedit 3.3)  HLASM R4.0  2004/03/22 09.45
+___    ______ ____    _____ _____  ____ __ ______    ______ _________
000391C 40F0 200A            0000A 21461    4413.              STH   SIZ,DSKFRE              STORE ADJUSTED VALUE
 003920 1842                       21462    4414.              LR    R4,R2                   SAVE DSK REGISTER
 003922 4122 1000            00000 21463    4415.              LA    R2,@R1(DSK)             ADDRESSABILITY TO THIS BLOCK
 003926 18E2/18F0/1B33             21464    4416.              ZOT   (R2),(R0),REG1=R14,REG2=R2       CLEAR ALLOC
 00392C 0EE2                       21476             +
 00392E 1824                       21477    4417.              LR    R2,R4                   RESTORE DSK REGISTER
 003930 9640 200E      0000E       21478    4418.              SET DSKFMOD
 003934 1BFF                       21484    4419.              CLEAR R15                     ALL OK, SET RETURN CODE
 003936                            21488    4420.     DSKGETX  LABEL ,
 003936 48E0 200A            0000A 21490    4421.              LH    R14,DSKFRE              SPACE REMAINING
 00393A 4BD0 6278            03A9C 21491    4422.     DGERROR  DIREST FBR
 00393E 5860 D000            00000 21495             +
 003942 12FF                       21496    4423.              LTR   R15,R15                 SET CC
 003944 07F9                       21497    4424.              BR    RAR
                                   21498    4425.     * PAGE
1FILEVCAT (FILEVC) (09:45) (22MAR04) DskFree                                                                                Page  158
0Current Usings:  (DSKBLK,R2) (LAST,R3) (CURRENT,R4) (RQB,R5) (*,R6) (*,R7) (CHKPNT,R8) (FSB,R10) (NEWCHAIN,R14)
0Loc    Object Code    Addr1 Addr2  Stmt Lv Lineno    Source Statement           (Hibal 5, Asmedit 3.3)  HLASM R4.0  2004/03/22 09.45
+___    ______ ____    _____ _____  ____ __ ______    ______ _________
0                                  21500    4427.     *********************************************************************
                                   21501    4428.     * ON ENTRY: R1 MUST CONTAIN THE BLOCK BUFFER START ADDRESS          *
                                   21502    4429.     *           R15 MUST CONTAIN THE ADDRESS (RELATIVE TO THE           *
                                   21503    4430.     *                    START OF THE BLOCK) OF THE AREA TO BE LINKED   *
                                   21504    4431.     *           R0 MUST CONTAIN SIZE OF AREA TO BE LINKED               *
                                   21505    4432.     * ON EXIT:                                                          *
                                   21506    4433.     *          DSK = BLOCK BUFFER START ADDRESS                         *
                                   21507    4434.     *          CC = 0                                                   *
                                   21508    4435.     *            R1 POINTS TO LINKED BLOCK (RELATIVE TO START OF BLOCK) *
                                   21509    4436.     *            R14 CONTAINS FREE SPACE NOW ON BLOCK                   *
                                   21510    4437.     *          CC ~ 0                                                   *
                                   21511    4438.     *            R14 = PSW @ ERROR DETECTION                            *
                                   21512    4439.     *            IF R15 = 4,  LENGTH ERROR                              *
                                   21513    4440.     *            IF R15 = 8,  ADDRESS ERROR                             *
                                   21514    4441.     *            IF R15 = 12, OVERLAP ERROR                             *
                                   21515    4442.     *********************************************************************
0003946 5060 D000            00000 21517    4444.     DSKFREE  DIRENT FBR
 00394A 41D0 D004/0D60       00004 21522             +
 003950 1821                       21540    4445.              LR    DSK,R1                  GET CONTROL BLOCK ADDRESS
 DROP   *,R6
 USING  *,R6
 003952 5A00 6144            03A94 21541    4446.              A     R0,=A(CDSKLLIM-1)       ROUND UP SIZE TO 8 BYTES
 003956 5400 6148            03A98 21542    4447.              N     R0,=A(-CDSKLLIM)        |
 00395A 4810 A0AE            000AE 21543    4448.              LH    R1,FSBDAVA              FREE SPACE ON A BLOCK
 00395E 1200/47D0 601A       0396A 21544    4449.              IF    ((R0,NPOS),OR,(R0,GT,R1)),'BAS R14,DSKLNER '
 003964 1901/47D0 601E       0396E 21566             +
 00396A 4DE0 6126            03A76 21573             +
 00396E 18EF                       21578    4450.              LR    NEW,R15                 CHECK FOR CDSKLLIM BOUNDARY
 003970 54E0 6148            03A98 21579    4451.              N     NEW,=A(-CDSKLLIM)       |
 003974 19EF/4770 6030       03980 21580    4452.              IF    ((NEW,NE,R15),OR,(NEW,NPOS)),'BAS R14,DSKADER '
 00397A 12EE/4720 6034       03984 21602             +
 003980 4DE0 612E            03A7E 21609             +
 003984 1810                       21614    4453.              LR    R1,R0                   CHECK FOR BLOCK OVERFLOW
 003986 1A1E                       21615    4454.              AR    R1,NEW                  |
 003988 48F0 A0AC            000AC 21616    4455.              LH    R15,FSBDSZ              HIGHEST AVAILABLE OFFSET
 00398C 4BF0 614E            03A9E 21617    4456.              SH    R15,=Y(8)               |
 003990 191F/47D0 604A       0399A 21618    4457.              IF    (R1,GT,R15),'BAS R14,DSKLNER '
 003996 4DE0 6126            03A76 21634             +
                                   21639    4458.     *                                 SIZE OF BLOCK IS IN R0
                                   21640    4459.     *
                                   21641    4460.     * INSERT INTO FIRST FIT LIST
                                   21642    4461.     *
 00399A 4140 0004            00004 21643    4462.              LA    CUR,DSKHEAD-DSKBLK      POINT TO HEADER
 00399E 1834                       21644    4463.     LINKMEM  LR    LAS,CUR                 ADVANCE POINTER BY ONE LINK
 0039A0 4842 3002            00002 21645    4464.              LH    CUR,LASFFWD(DSK)        UPDATE POINTER TO CURRENT LINK
 0039A4 19E4/4750 6062       039B2 21646    4465.              IF    ((NEW,GE,CUR),AND,(CUR,NE,CDSKNIL)),LINKMEM
 0039AA 5940 6140            03A90 21671             +
 0039AE 4770 604E            0399E 21674             +
                                   21680    4466.     *   If the block being freed starts before the previous free block
                                   21681    4467.     * ends, or ends after the next free block starts, then it is an
                                   21682    4468.     * error.
 0039B2 1813                       21683    4469.              LR    R1,LAS
 0039B4 4A12 3000            00000 21684    4470.              AH    R1,LASSIZ(DSK)
1FILEVCAT (FILEVC) (09:45) (22MAR04) DskFree                                                                                Page  159
0Current Usings:  (DSKBLK,R2) (LAST,R3) (CURRENT,R4) (RQB,R5) (*,R6) (*,R7) (CHKPNT,R8) (FSB,R10) (NEWCHAIN,R14)
0Loc    Object Code    Addr1 Addr2  Stmt Lv Lineno    Source Statement           (Hibal 5, Asmedit 3.3)  HLASM R4.0  2004/03/22 09.45
+___    ______ ____    _____ _____  ____ __ ______    ______ _________
00039B8 19E1/47B0 6072       039C2 21685    4471.              IF    (NEW,LT,R1),'BAS R14,DSKOVER '   BLK STARTS BEFORE PREV
 0039BE 4DE0 6136            03A86 21701             +
 0039C2 5940 6140            03A90 21706    4472.              IF    (CUR,NE,CDSKNIL),BEGIN  IF NOT END OF LIST
 0039C6 4780 6088            039D8 21718             +
 0039CA 181E                       21723  1 4473.                LR    R1,NEW
 0039CC 1A10                       21724  1 4474.                AR    R1,R0
 0039CE 1914/47D0 6088       039D8 21725  1 4475.                IF    (R1,GT,CUR),'BAS R14,DSKOVER '   BLK ENDS AFTER NEXT
 0039D4 4DE0 6136            03A86 21741  1          +
 0039D8                            21746    4476.              END   ,                       OF NOT AT END OF LIST
                                   21750    4477.     *        INSERT IF BEFORE CURRENT ADDRESS OR IF AT END OF LIST
 0039D8 4042 E002            00002 21751    4478.              STH   CUR,NEWFFWD(DSK)        NEW NOW POINTS AHEAD TO CUR
 0039DC 5940 6140            03A90 21752    4479.              IF    (CUR,NE,CDSKNIL),BEGIN  IF NOT END OF LIST
 0039E0 4780 6098            039E8 21764             +
 0039E4 40E2 4004            00004 21769  1 4480.                STH   NEW,CURFBAC(DSK)        CUR POINTS BACK TO NEW
 0039E8                            21770    4481.              END   ,
 0039E8 40E2 3002            00002 21774    4482.              STH   NEW,LASFFWD(DSK)   LAST NOW POINTS AHEAD TO NEW BLOCK
 0039EC 4032 E004            00004 21775    4483.              STH   LAS,NEWFBAC(DSK)        NEW POINTS BACK TO LAS
 0039F0 4002 E000            00000 21776    4484.              STH   R0,NEWSIZ(DSK)          STORE SIZE OF BLOCK IN BLOCK
 0039F4 184E                       21777    4485.              LR    CUR,NEW                 NOW IT'S INSERTED AND CUR BLOCK
                                   21778    4486.     *
                                   21779    4487.     * TEST TO COLLAPSE LOW END
                                   21780    4488.     *
 0039F6 18E3                       21781    4489.              LR    NEW,LAS                 ADDRESS OF LAST BLOCK
 0039F8 4AE2 3000            00000 21782    4490.              AH    NEW,LASSIZ(DSK)         ADD SIZE OF BLOCK
 0039FC 19E4/4770 60D4       03A24 21783    4491.              IF    (NEW,EQ,CUR),BEGIN      IF BLOCKS ADJACENT COLLAPSE
 003A02 48E2 4002            00002 21798  1 4492.                LH    NEW,CURFFWD(DSK)        LAST POINTS TO NEXT
 003A06 40E2 3002            00002 21799  1 4493.                STH   NEW,LASFFWD(DSK)        |
 003A0A 59E0 6140            03A90 21800  1 4494.                IF    (NEW,NE,CDSKNIL),BEGIN  IF NOT AT END OF LIST
 003A0E 4780 60C6            03A16 21812  1          +
 003A12 4032 E004            00004 21817  2 4495.                  STH   LAS,NEWFBAC(DSK)   NEXT BLOCK POINTS BACK PAST MERGE
 003A16                            21818  1 4496.                END   ,
 003A16 48F2 3000            00000 21822  1 4497.                LH    SIZ,LASSIZ(DSK)         SIZE OF LAST
 003A1A 4AF2 4000            00000 21823  1 4498.                AH    SIZ,CURSIZ(DSK)    ADD SIZE OF CURRENT TO GET TOTAL
 003A1E 40F2 3000            00000 21824  1 4499.                STH   SIZ,LASSIZ(DSK)         STORE SIZE IN BLOCK
 003A22 1843                       21825  1 4500.                LR    CUR,LAS            AFTER COLLPSE CURRENT IS OLD LAST
 003A24                            21826    4501.              END   ,
                                   21830    4502.     *
                                   21831    4503.     * TEST TO COLLAPSE HIGH END
                                   21832    4504.     *
 003A24 18F4                       21833    4505.              LR    SIZ,CUR                 GET ADDRESS OF CURRENT
 003A26 4AF2 4000            00000 21834    4506.              AH    SIZ,CURSIZ(DSK)    ADD SIZE OF CURRENT (ADDR OF ADJ)
 003A2A 48E2 4002            00002 21835    4507.              LH    NEW,CURFFWD(DSK)        LOAD POINTER TO NEXT
 003A2E 19EF/4770 6106       03A56 21836    4508.              IF    (NEW,EQ,SIZ),BEGIN      IF ADJACENT COLLAPSE
 003A34 48E2 E002            00002 21851  1 4509.                LH    NEW,NEWFFWD(DSK)        CUR BLOCK POINTS PAST NEXT
 003A38 40E2 4002            00002 21852  1 4510.                STH   NEW,CURFFWD(DSK)        |
 003A3C 59E0 6140            03A90 21853  1 4511.                IF    (NEW,NE,CDSKNIL),BEGIN  IF NOT AT END OF LIST
 003A40 4780 60F8            03A48 21865  1          +
 003A44 4042 E004            00004 21870  2 4512.                  STH   CUR,NEWFBAC(DSK)   NEXT BLOCK POINTS BACK PAST MERGE
 003A48                            21871  1 4513.                END   ,
 003A48 18EF                       21875  1 4514.                LR    NEW,SIZ                 NEW IS AGAIN NEXT (FROM ABOVE)
 003A4A 48F2 4000            00000 21876  1 4515.                LH    SIZ,CURSIZ(DSK)         GET SIZE OF CUR
 003A4E 4AF2 E000            00000 21877  1 4516.                AH    SIZ,NEWSIZ(DSK)         ADD SIZE OF NEXT
 003A52 40F2 4000            00000 21878  1 4517.                STH   SIZ,CURSIZ(DSK)         SAVE SIZE OF BLOCK IN BLOCK
 003A56                            21879    4518.              END   ,
1FILEVCAT (FILEVC) (09:45) (22MAR04) DskFree                                                                                Page  160
0Current Usings:  (DSKBLK,R2) (LAST,R3) (CURRENT,R4) (RQB,R5) (*,R6) (*,R7) (CHKPNT,R8) (FSB,R10) (NEWCHAIN,R14)
0Loc    Object Code    Addr1 Addr2  Stmt Lv Lineno    Source Statement           (Hibal 5, Asmedit 3.3)  HLASM R4.0  2004/03/22 09.45
+___    ______ ____    _____ _____  ____ __ ______    ______ _________
0003A56 4A00 200A            0000A 21883    4519.              AH    R0,DSKFRE               TOTAL UP AMOUNT OF FREE MEMORY
 003A5A 4000 200A            0000A 21884    4520.              STH   R0,DSKFRE               STORE THIS IN BLOCK
 003A5E 1814                       21885    4521.              LR    R1,CUR                  R1 POINTS TO LINKED BLOCK
 003A60 9640 200E      0000E       21886    4522.              SET DSKFMOD
 003A64 1BFF                       21892    4523.              CLEAR R15                     ALL OK, SET RETURN CODE
 003A66                            21896    4524.     DSKFREX  LABEL ,
 003A66 48E0 200A            0000A 21898    4525.              LH    R14,DSKFRE              FREE SPACE AVAILABLE
 003A6A 4BD0 614C            03A9C 21899    4526.     DFERROR  DIREST FBR
 003A6E 5860 D000            00000 21903             +
 003A72 12FF                       21904    4527.              LTR   R15,R15                 SET CC
 003A74 07F9                       21905    4528.              BR    RAR
-003A76                            21907    4530.     DSKLNER  LABEL ,
 003A76 41F0 0004            00004 21909    4531.              LA    R15,CDSKLNER            INDICATE LENGTH ERROR
 003A7A 47F0 611A            03A6A 21910    4532.              B     DFERROR                 EXIT
 003A7E                            21911    4533.     DSKADER  LABEL ,
 003A7E 41F0 0008            00008 21913    4534.              LA    R15,CDSKADER            INDICATE ADDRESS ERROR
 003A82 47F0 611A            03A6A 21914    4535.              B     DFERROR                 EXIT
 003A86                            21915    4536.     DSKOVER  LABEL ,
 003A86 41F0 000C            0000C 21917    4537.              LA    R15,CDSKOVER            INDICATE OVERLAP ERROR
 003A8A 47F0 611A            03A6A 21918    4538.              B     DFERROR                 EXIT
-DROP   LAST,R3                    21920    4540.              DROP  LAS                     LAST ADDR
 DROP   CURRENT,R4                 21927    4541.              DROP  CUR                     CURRENT ADDR
 DROP   NEWCHAIN,R14               21934    4542.              DROP  NEW                     NEWCHAIN ADDR
1FILEVCAT (FILEVC) (09:45) (22MAR04)                                                                                        Page  161
0Current Usings:  (DSKBLK,R2) (RQB,R5) (*,R6) (*,R7) (CHKPNT,R8) (FSB,R10)
0Loc    Object Code    Addr1 Addr2  Stmt Lv Lineno    Source Statement           (Hibal 5, Asmedit 3.3)  HLASM R4.0  2004/03/22 09.45
+___    ______ ____    _____ _____  ____ __ ______    ______ _________
0003A90                            21942    4544.              LTORG ,
 003A90 FFFFFFFF                   21944                             =A(CDSKNIL)
 003A94 00000007                   21945                             =A(CDSKLLIM-1)
 003A98 FFFFFFF8                   21946                             =A(-CDSKLLIM)
 003A9C 0004                       21947                             =Y(1*4)
 003A9E 0008           03AA0 046CB 21948                             =Y(8)
1FILEVCAT (FILEVC) (09:45) (22MAR04) No More Room Recovery                                                                  Page  162
0Current Usings:  (DSKBLK,R2) (RQB,R5) (*,R6) (*,R7) (CHKPNT,R8) (FSB,R10)
0Loc    Object Code    Addr1 Addr2  Stmt Lv Lineno    Source Statement           (Hibal 5, Asmedit 3.3)  HLASM R4.0  2004/03/22 09.45
+___    ______ ____    _____ _____  ____ __ ______    ______ _________
0                                  21953    4546.     *********************************************************************
                                   21954    4547.     *   For recovery, the buffers must be nullified, and if a rename    *
                                   21955    4548.     * insert was in progress then the old entry must be reinserted.     *
                                   21956    4549.     *   If a Rename reinsert was being done, then KAPUT!                *
                                   21957    4550.     *********************************************************************
 003AA0 5060 D000            00000 21958    4551.     CATNMR   DIRENT FBR,RAR
 003AA4 5090 D004            00004 21963             +
 003AA8 41D0 D008/0D60       00008 21964             +
 003AAE 9504 8194      00194       21982    4552.              IF    (CHKI3TYP,EQ,CCHKREN),'ABORT  CATRENNR'
 DROP   *,R6
 USING  *,R6
 003AB2 4770 6016            03AC4 21995             +
 003AB6 5890 6BAA/0D99       04658 22004  1          +
 003ABC C3C1E3D9C5D5D5D9           22006             +
 003AC4 9500 8112      00112       22011    4553.              IF    (CHKITYPE,NZ),BEGIN     BACK OUT OF FIRST LEVEL
 003AC8 4780 602A            03AD8 22022             +
 003ACC D205 800E 8114 0000E 00114 22027  1 4554.                MVC   CHKCHAIN,CHKICHAN
 003AD2                            22028  1 4555.                CLEAR CHKIVLV1
 003AD2 D741 8112 8112 00112 00112 22034  1          +
 003AD8                            22035    4556.              END   ,                       OF BACK OUT OF FIRST LEVEL
 003AD8 4D90 7270            002A0 22039    4557.              LCALL NILBUF                  RESET BUFFER CONTENTS
 003ADC                            22041    4558.              IF    (CHKFBNO,LE,FSBLOGFR),BEGIN      UNDER LOGICAL LIMIT
 003ADC D501 800E A0CC 0000E 000CC 22053             +
 003AE2 4730 607E            03B2C 22054             +
 003AE6 9608 A009      00009       22059  1 4559.                SET   FSBCATNIN               NO INSERTS
 003AEA                            22065  1 4560.                IF    (CHKFBNO,LE,FSBMNFRE),BEGIN      UNDER MINIMUM
 003AEA D501 800E A0CE 0000E 000CE 22077  1          +
 003AF0 4730 6076            03B24 22078  1          +
 003AF4 9604 A009      00009       22083  2 4561.                  SET   FSBCATNLM               NoLengthModify MODE
                                   22089  2 4562.
 003AF8 50D0 5028            00028 22090  2 4563.                  ST    WR,RQBLSPTR             SAVE WORK REG
 003AFC 58D0 5020            00020 22091  2 4564.                  L     WR,RQBLWR2              | AND GET OLD WR
                                   22092  2 4565.
                                   22093  2 4566.     &MSG1        SETC  ' ORVYL File System Updates Frozen!!'
 000000                00000 0002B 22094  2 4567.     VWTOMSG1     RECORD BEGIN                  VWTO MESSAGE LENGTH
 000000                            22102  3 4568.     FSNAME1        DS    CL8                     File System name
                                   22103  3 4569.     MSG1           DS    C'&MSG1'
 000008                                   3 4569.    +MSG1           DS    C' ORVYL File System Updates Frozen!!'
                                   22104  3 4570.     MSGTOT1        EQU   FSNAME1,*-FSNAME1,C'R'
 00002B                0002B 0002B 22105  2 4571.                  END   ,
 003B00 181D/41D0 D02C       0002C 22114  2 4572.                  VPUSH ,,L'VWTOMSG1,PTR=R1
 USING  VWTOMSG1,R1                22117  2 4573.                  WITH  (VWTOMSG1,R1),BEGIN     MESSAGE AREA ADDR
 003B06 D207 1000 A018 00000 00018 22131  3 4574.                    MVC   FSNAME1,FSBNAME         | FILE SYS NAME
 003B0C                            22132  3 4575.                    MVC   MSG1,=C'&MSG1'          | MESSAGE
 003B0C D222 1008 6BFA 00008 046A8        3          +
 003B12 4100 002B            0002B 22133  3 4576.                    LA    R0,L'MSGTOT1            | LEN
 003B16 1300                       22134  3 4577.                    LCR   R0,R0                   | Negative = No Erase
 DROP   VWTOMSG1,R1                22135  2 4578.                  END   ,                       OF MESSAGE AREA ADDR
                                   22143  2 4579.                  XTRC  R0,R1,VWTO
                                   22145  2 4580.     * -->    VCALL VWTO                    (R1,R0)=(LOC,LEN)
 003B18 4BD0 6BF6            046A4 22146  2 4581.                  VPOP  ,,L'VWTOMSG1
                                   22148  2 4582.
 003B1C 50D0 5020            00020 22149  2 4583.                  ST    WR,RQBLWR2              SAVE WORK AREA PTR
 003B20 58D0 5028            00028 22150  2 4584.                  L     WR,RQBLSPTR             | GET MY POINTER BACK
1FILEVCAT (FILEVC) (09:45) (22MAR04) No More Room Recovery                                                                  Page  163
0Current Usings:  (DSKBLK,R2) (RQB,R5) (*,R6) (*,R7) (CHKPNT,R8) (FSB,R10)
0Loc    Object Code    Addr1 Addr2  Stmt Lv Lineno    Source Statement           (Hibal 5, Asmedit 3.3)  HLASM R4.0  2004/03/22 09.45
+___    ______ ____    _____ _____  ____ __ ______    ______ _________
0003B24                            22151  1 4585.                END   ,                       OF UNDER MINIMUM
 003B24 607A           03B24 03AF2 22155  1 4586.                ELSE  'CLEAR FSBCATNLM'       CLEAR NoLenMod
 003B24 47F0 607E            03B2C 22160  1          +
 003B28 94FB A009      00009       22173  1          +
 003B2C                            22178    4587.              END   ,                       OF UNDER LOGICAL LIMIT
 003B2C 6082           03B2C 03AE4 22182    4588.              ELSE  'CLEAR FSBCATNLM*FSBCATNIN'
 003B2C 47F0 6086            03B34 22187             +
 003B30 94F3 A009      00009       22203             +
 003B34 1BFF                       22208    4589.              CLEAR R15
 003B36 4BD0 6BF8            046A6 22212    4590.              DIREST FBR,RAR
 003B3A 5860 D000            00000 22215             +
 003B3E 5890 D004            00004 22216             +
 003B42 12FF                       22217    4591.              LTR   R15,R15
 003B44 07F9                       22218    4592.              BR    RAR
 003B46 5890 6BAA/0D99       04658 22219    4593.     CATNMRER ABORT  CATNMR                 No More Room Error
 003B4C C3C1E3D5D4D94040           22224             +
1FILEVCAT (FILEVC) (09:45) (22MAR04) Checkpoint Recovery                                                                    Page  164
0Current Usings:  (DSKBLK,R2) (RQB,R5) (*,R6) (*,R7) (CHKPNT,R8) (FSB,R10)
0Loc    Object Code    Addr1 Addr2  Stmt Lv Lineno    Source Statement           (Hibal 5, Asmedit 3.3)  HLASM R4.0  2004/03/22 09.45
+___    ______ ____    _____ _____  ____ __ ______    ______ _________
0                                  22226    4595.     *********************************************************************
                                   22227    4596.     *   Note:  Of the 4 minimum rotating buffers used in VCAT, one is   *
                                   22228    4597.     * locked in core for a checkpoint copy during 1st level intentions. *
                                   22229    4598.     * This allows lower level routines to work with a checkpoint copy   *
                                   22230    4599.     * and yet not permanently alter block counts, chain pointers etc.   *
                                   22231    4600.     * Currently the only 1st level recovery routine to call NODBAL      *
                                   22232    4601.     * is the Root Split recovery operation and it uses only 3           *
                                   22233    4602.     * buffers (1 for root, and 2 offspring).                            *
                                   22234    4603.     *   If other 1st level checkpoint routines change, this must be     *
                                   22235    4604.     * taken into account, or else there is the possibility of a ABORT   *
                                   22236    4605.     * CATIOS, when the buffer management routines run out of I/O space. *
                                   22237    4606.     *********************************************************************
 003B54                            22238    4607.     CATREC   CATENT ,
 003B54 0D60                       22241    4608.              BASE  FBR
 DROP   *,R6
 USING  *,R6
                                   22258    4609.     *               Look for a free buffer to copy checkpoint to
 003B56 4120 0008            00008 22259    4610.              LA    R2,CFSBPL               INDEX INCREMENT
 003B5A 5830 A05C            0005C 22260    4611.              L     R3,FSBBLKTOP            UPPER LIMIT
 003B5E 4140 A06C            0006C 22261    4612.              LA    R4,FSBBLK1              STARTING ADDR
 003B62 9500 4007      00007       22262    4613.     CHKAVCOR CLI   @R4+CFSBPL-1,X'00'      AVAILABLE?
 003B66 4770 6028            03B7E 22263    4614.              IF    EQUAL,BEGIN             | YES
 003B6A 5820 4004            00004 22274  1 4615.                L     DSK,@R4+CFSBBL          BUFFER ADDRESS
 003B6E D603 4004 6B06 00004 0465C 22275  1 4616.                OC    @R4+CFSBBL(4),=A(VIOLOCK)        LOCK IT
 003B74                            22276  1 4617.                CLEAR (@R4,CFSBBL)            BLOCK 0 = CHKPNT
 003B74 D703 4000 4000 00000 00000 22282  1          +
 003B7A 47F0 603A            03B90 22283  1 4618.                B     CHKCORFN                FOUND SLOT
 003B7E                            22284    4619.              END   ,                       OF AVAILABLE
 003B7E 8742 600C            03B62 22288    4620.              BXLE  R4,R2,CHKAVCOR          CONTINUE LOOKING
 003B82 5890 6B02/0D99       04658 22289    4621.              ABORT  CHKNOCOR               NO CORE
 003B88 C3C8D2D5D6C3D6D9           22294             +
 003B90 5020 8078            00078 22295    4622.     CHKCORFN ST    DSK,CHKCHKA             CHKPNT COPY (ADDR)
 003B94 48F0 A0AC            000AC 22296    4623.              LH    R15,FSBDSZ              | LEN
 003B98 181F                       22297    4624.              LR    R1,R15                  | |
 003B9A 1802                       22298    4625.              LR    R0,DSK                  LOC (DEST)
 003B9C 18E8                       22299    4626.              LR    R14,CHKR                | (SOURCE)
 003B9E 0E0E                       22300    4627.              MVCL  R0,R14                  COPY CHECKPOINT
                                   22301    4628.
 003BA0 1FFF/43F0 8112       00112 22302    4629.              LC    R15,CHKITYPE
 003BA6 59F0 6B0A            04660 22309    4630.              IF    (R15,GT,CCHKNTDL),BEGIN NOT IMPLEMENTED
 003BAA 47D0 6066            03BBC 22321             +
 003BAE 5890 6B02/0D99       04658 22326  1 4631.                ABORT  CHK1NIMP
 003BB4 C3C8D2F1D5C9D4D7           22331  1          +
 003BBC                            22332    4632.              END   ,                       OF NOT IMPLEMENTED
 003BBC                            22336    4633.              CLEAR CHKSTKP                 SEARCH_STACK POINTER
 003BBC D701 8606 8606 00606 00606 22342             +
 003BC2                            22343    4634.              MVC   CHKAPNT(1),=&L.AL1(NIL) SET POINTERS TO NIL
 003BC2 D200 8020 6B0E 00020 04664                   +
 003BC8 D256 8021 8020 00021 00020 22344    4635.              MVC   CHKAPNT+1(L'CHKAPNT-1),CHKAPNT   |
 003BCE 47FF 607C            03BD2 22345    4636.              B     TABLE1(R15)
 003BD2 47F0 6966            044BC 22346    4637.     TABLE1   B     LEVEL2                  NO 1ST LEVEL INTENTIONS
 003BD6 47F0 60A8            03BFE 22347    4638.              B     CHKRTIN
 003BDA 47F0 6266            03DBC 22348    4639.              B     CHKRTDL
 003BDE 47F0 6346            03E9C 22349    4640.              B     CHKRTSP
1FILEVCAT (FILEVC) (09:45) (22MAR04) Checkpoint Recovery                                                                    Page  165
0Current Usings:  (DSKBLK,R2) (RQB,R5) (*,R6) (*,R7) (CHKPNT,R8) (FSB,R10)
0Loc    Object Code    Addr1 Addr2  Stmt Lv Lineno    Source Statement           (Hibal 5, Asmedit 3.3)  HLASM R4.0  2004/03/22 09.45
+___    ______ ____    _____ _____  ____ __ ______    ______ _________
0003BE2 47F0 63A8            03EFE 22350    4641.              B     CHKRTCL
 003BE6 47F0 63B6            03F0C 22351    4642.              B     CHKNBAL
 003BEA 47F0 642A            03F80 22352    4643.              B     CHKBINS
 003BEE 47F0 649C            03FF2 22353    4644.              B     CHKBDEL
 003BF2 47F0 6516            0406C 22354    4645.              B     CHKNTRY
 003BF6 47F0 669E            041F4 22355    4646.              B     CHKNTIN
 003BFA 47F0 67DE            04334 22356    4647.              B     CHKNTDL
                                   22357    4648.     *********************************************************************
                                   22358    4649.     *   For the 1st level recovery, it is important that Checkpoint     *
                                   22359    4650.     * fields other than the block chain fields aren't changed.  The     *
                                   22360    4651.     * INSXTND and DELXTND parameters on the NTRYCHG calls are important *
                                   22361    4652.     * because they keep the wrong Checkpoint fields from being modified *
                                   22362    4653.     *********************************************************************
1FILEVCAT (FILEVC) (09:45) (22MAR04) Checkpoint Recovery - Root Insert                                                      Page  166
0Current Usings:  (DSKBLK,R2) (RQB,R5) (*,R6) (*,R7) (CHKPNT,R8) (FSB,R10)
0Loc    Object Code    Addr1 Addr2  Stmt Lv Lineno    Source Statement           (Hibal 5, Asmedit 3.3)  HLASM R4.0  2004/03/22 09.45
+___    ______ ____    _____ _____  ____ __ ______    ______ _________
0003BFE                            22364    4655.     CHKRTIN  LABEL ,                       Root Insert Recovery
 003BFE 9180 8113      00113       22366    4656.              IF    CHKIFLG.CHKFACC,BEGIN   ACCOUNT ROOT INSERT
 003C02 47E0 60BE            03C14 22376             +
 003C06 5890 6B02/0D99       04658 22381  1 4657.                ABORT  CHKRTIN                CURRENTLY ONLY FOR FILES
 003C0C C3C8D2D9E3C9D540           22386  1          +
 003C14 60C2           03C14 03C04 22387    4658.              END   ELSE,BEGIN              FILE ROOT INSERT
 003C14 47F0 6262            03DB8 22396             +
                                   22402  1 4659.     *               Deal with new extended entry
 003C18                            22403  1 4660.                IF ('CLC CHKININB(PL),=&L.AL1(NIL)',NE),BEGIN  NEW EXISTS
 003C18 D503 812E 6B0E 0012E 04664 22410  1          +
 003C1E 4780 6180            03CD6 22411  1          +
 003C22 4800 812E/1BFF       0012E 22416  2 4661.                  DREAD CHKININB,ERR=CHKRECER   LOOK AT NEX EXTENDED ENTRY
 003C28 4D90 7032            00062 22426  2          +
 003C2C                            22428  2 4662.                  IF    ('CLC CHKININC,DSKTAG',EQ),BEGIN NEW ~ WRITTEN
 003C2C D501 8134 2000 00134 00000 22435  2          +
 003C32 4770 6180            03CD6 22436  2          +
 003C36 9180 200E      0000E       22441  3 4663.                    IF    ~DSKFINIT,BEGIN         INITIALIZE SPACE MGMT PTRS
 003C3A 4710 60F6            03C4C 22451  3          +
 003C3E 4800 812E            0012E 22456  4 4664.                      DSKINIT CHKININB,(DSK)        |
 003C42 5890 6B12/0D99       04668 22467  4          +
 003C48 9610 200E      0000E       22469  4 4665.                      SET   DSKFDATA                | WILL BE USED FOR EXTND DATA
 003C4C                            22475  3 4666.                    END   ,                       OF INITIALIZE SPACE MGMT PTRS
 003C4C 4130 8204            00204 22479  3 4667.                    LA    NOD,CHKINTRY            ADDR TO ENTRY COPY
 USING  NTRY,R3                    22480  3 4668.                    WITH  (NTRY,NOD),BEGIN        |
 003C50 D201 809C 3000 0009C 00000 22494  4 4669.                      MVC   CHKBSLN,NTRYLEN         ENTRY LENGTH
 DROP   NTRY,R3                    22495  3 4670.                    END   ,                       OF ADDR TO ENTRY COPY
 003C56 41E0 0001            00001 22503  3 4671.                    GETNODE PTRS=2WR,DATA=CHKININB,ERR=CHKRECER
 003C5A 48F0 812E            0012E 22509  3          +
 003C5E 5890 6B16/0D99       0466C 22512  3          +
 003C64 4770 6AF0            04646 22522  3          +
 003C68 5020 8050            00050 22528  3          +
 003C6C 4000 8054            00054 22529  3          +
 003C70 4010 8056            00056 22530  3          +
 003C74 9640 200E      0000E       22531  3 4672.                    SET   DSKFMOD                 WILL MODIFY THIS BLOCK
 003C78 4130 8204            00204 22537  3 4673.                    LA    NOD,CHKINTRY            ADDR TO ENTRY COPY
 USING  NTRY,R3                    22538  3 4674.                    WITH  (NTRY,NOD),BEGIN        |
 003C7C                            22552  4 4675.                      IF    ('CLC NTRYDATB(PL),CHK2WRB',NE),BEGIN
 003C7C D503 3006 8054 00006 00054 22559  4          +
 003C82 4780 613E            03C94 22560  4          +
 003C86 5890 6B02/0D99       04658 22565  5 4676.                        ABORT  CHKNTXT                EXTENDED PTRS DON'T MATCH
 003C8C C3C8D2D5E3E7E340           22570  5          +
 003C94                            22571  4 4677.                      END   ,
 DROP   NTRY,R3                    22575  3 4678.                    END   ,                       OF ADDR TO ENTRY COPY
 003C94 4131 2000            00000 22583  3 4679.                    LA    NOD,DSKBLK(R1)          (R1 IS BLOCK OFFSET ON RET)
                                   22584  3 4680.                    REGCH (MIX,0),(IX,1),(CNT,14),(PTR,15) CHECK REGS
 003C98 4100 3002            00002 22585  3 4681.                    WITH  (NTRYXTND,NOD),'LA MIX,NTRYXPER '        DEST OF MOV
 USING  NTRYXTND,R3
 DROP   NTRYXTND,R3
 003C9C 9180 801C      0001C       22609  3 4682.                    IF    CHKFACC,'LH PTR,FSBNAMXL '       MAX IN INDEX
 003CA0 47E0 6152            03CA8 22619  3          +
 003CA4 48F0 A0B8            000B8 22625  3          +
 003CA8 6156           03CA8 03CA2 22630  3 4683.                    ELSE  'LH PTR,FSBNFMXL '      |
 003CA8 47F0 615A            03CB0 22635  3          +
 003CAC 48F0 A0C4            000C4 22642  3          +
1FILEVCAT (FILEVC) (09:45) (22MAR04) Checkpoint Recovery - Root Insert                                                      Page  167
0Current Usings:  (DSKBLK,R2) (RQB,R5) (*,R6) (*,R7) (CHKPNT,R8) (FSB,R10)
0Loc    Object Code    Addr1 Addr2  Stmt Lv Lineno    Source Statement           (Hibal 5, Asmedit 3.3)  HLASM R4.0  2004/03/22 09.45
+___    ______ ____    _____ _____  ____ __ ______    ______ _________
0003CB0 41E0 8204            00204 22647  3 4684.                    LA    CNT,CHKINTRY            START OF EXTENDED
 003CB4 1EEF                       22648  3 4685.                    ALR   CNT,PTR                 |
 003CB6 4810 809C            0009C 22649  3 4686.                    LH    IX,CHKBSLN              LENGTH OF COPY
 003CBA 1B1F                       22650  3 4687.                    SR    IX,PTR                  |
 003CBC 18F1                       22651  3 4688.                    LR    PTR,IX                  |
 003CBE 0E0E                       22652  3 4689.                    MVCL  MIX,CNT                 COPY EXTENDED
 003CC0 D201 200C 8132 0000C 00132 22653  3 4690.                    MVC   DSKBLINK,CHKININL       SET DISK LINK
 003CC6 D200 200E 8136 0000E 00136 22654  3 4691.                    MVC   DSKFL,CHKININF          | AND FLAGS
 003CCC 4800 812E/1BFF       0012E 22655  3 4692.                    DWRITE CHKININB,ERR=CHKRECER  WRITE NEW BLOCK
 003CD2 4D90 7136            00166 22665  3          +
 003CD6                            22667  2 4693.                  END   ,                       OF NEW ~ WRITTEN
 003CD6                            22671  1 4694.                END   ,                       OF NEW EXISTS
                                   22675  1 4695.     *               Deal with entry block
 003CD6 D203 8034 811A 00034 0011A 22676  1 4696.                MVC   CHKCURB(PL),CHKINICB    LOOK AT ENTRY BLOCK
 003CDC 4800 8034/1BFF       00034 22677  1 4697.                DREAD CHKCURB,PTR=CUR,ERR=CHKRECER
 003CE2 4D90 7032            00062 22687  1          +
 003CE6 5020 8030            00030 22689  1          +
 003CEA                            22690  1 4698.                IF    ('CLC CHKINICC,DSKTAG',EQ),BEGIN CH INDEX PART
 003CEA D501 8122 2000 00122 00000 22697  1          +
 003CF0 4770 6232            03D88 22698  1          +
 003CF4 4800 8034            00034 22703  2 4699.                  DSKINIT CHKCURB,CHKCURA       INITIALIZE DISK BLOCK
 003CF8 5820 8030            00030 22712  2          +
 003CFC 5890 6B12/0D99       04668 22715  2          +
 003D02 1812/4800 A0BE       000BE 22717  2 4700.                  ALLOC (DSK),LH:FSBNFLEN,ERR=CHKRECER   NODE FOR ROOT
 003D08 5890 6B1A/0D99       04670 22728  2          +
 003D0E 4780 61CC            03D22 22738  2          +
 003D12 59F0 6B1E            04674 22751  2          +
 003D16 4780 61CC            03D22 22752  2          +
 003D1A 56F0 6B22            04678 22757  3          +
 003D1E 47F0 6AF0            04646 22758  2          +
 003D22 4131 2000            00000 22763  2 4701.                  LA    NOD,DSKBLK(R1)          ADDRESSABILITY TO NEW NODE
 USING  NODE,R3                    22764  2 4702.                  WITH  (NODE,NOD),BEGIN        |
 003D26 9660 3006      00006       22778  3 4703.                    SET   NODFTRT*NODFLEAF        ROOT OF TREE AND LEAF
 003D2A 4140 0001            00001 22787  3 4704.                    INCR  QR,NODNTNUM             SET ENTRY COUNT
 003D2E 4A40 3002            00002 22791  3          +
 003D32 4040 3002            00002 22792  3          +
 003D36 4000 3000            00000 22793  3 4705.                    STH   R0,NODLEN               SAVE SIZE
 003D3A 41F0 3008            00008 22794  3 4706.                    LA    PTR,NODNTRYS            ADDRESSABILITY TO ENTRIES
 USING  NTRY,R15                   22795  3 4707.                    WITH  (NTRY,PTR),BEGIN        |
 003D3E                            22809  4 4708.                      MVC   NTRY(1),=&L.AL1(NIL)    NIL 1ST ENTRY
 003D3E D200 F000 6B0E 00000 04664        4          +
 003D44 D204 F001 F000 00001 00000 22810  4 4709.                      MVC   NTRY+1(CNODNLLN-1),NTRY |
 DROP   NTRY,R15                   22811  3 4710.                    END   ,                       OF ADDRESSABILITY TO ENTRIES
 003D4A D201 3004 A0C0 00004 000C0 22819  3 4711.                    MVC   NODSPACE,FSBNFSPA
 003D50 41F0 3008            00008 22820  3 4712.                    LA    R15,NODNTRYS            R15/R14 = OLD ENTRY LOC/LEN
 003D54 1BEE                       22821  3 4713.                    CLEAR R14                     |
 DROP   NODE,R3                    22825  2 4714.                  END   ,                       OF ADDRESSABILITY TO NEW NODE
 003D56 4110 8204            00204 22833  2 4715.                  LA    R1,CHKINTRY             R1/R0 = NEW ENTRY LOC/LEN
 003D5A 4800 1000            00000 22834  2 4716.                  WITH  (NTRY,R1),'LH R0,NTRYLEN '
 USING  NTRY,R1
 DROP   NTRY,R1
 003D5E 4900 A0C4            000C4 22858  2 4717.                  CEIL  R0,FSBNFMXL             INDEX MAX
 003D62 47D0 6214            03D6A 22862  2          +
 003D66 4800 A0C4            000C4 22863  2          +
1FILEVCAT (FILEVC) (09:45) (22MAR04) Checkpoint Recovery - Root Insert                                                      Page  168
0Current Usings:  (DSKBLK,R2) (RQB,R5) (*,R6) (*,R7) (CHKPNT,R8) (FSB,R10)
0Loc    Object Code    Addr1 Addr2  Stmt Lv Lineno    Source Statement           (Hibal 5, Asmedit 3.3)  HLASM R4.0  2004/03/22 09.45
+___    ______ ____    _____ _____  ____ __ ______    ______ _________
0                                  22864  2 4718.     *                 By making the copy length at most the max length
                                   22865  2 4719.     *               allowed in an index node, the NTRYCHG routine won't
                                   22866  2 4720.     *               reallocate a new extended data block, which has
                                   22867  2 4721.     *               already been written.  This and the index pointer
                                   22868  2 4722.     *               parms on the NTRYCHG call are important for pointer
                                   22869  2 4723.     *               integrity.
 003D6A 13EE/1300                  22870  2 4724.                  NTRYCHG DEST=CUR,DELXTND=NO,INSXTND=NO,ERR=CHKRECER
 003D6E D207 8050 8030 00050 00030 22874  2          +
 003D74 5890 6B26/0D99       0467C 22877  2          +
 003D7A 4770 6AF0            04646 22887  2          +
 003D7E 4800 8034/1BFF       00034 22893  2 4725.                  DWRITE CHKCURB,ERR=CHKRECER   WRITE MODIFIED
 003D84 4D90 7136            00166 22903  2          +
 003D88                            22905  1 4726.                END   ,                       OF CHANGE INDEX PART
                                   22909  1 4727.     *               Deal with account entry
 003D88 4800 8138/1BFF       00138 22910  1 4728.                DREAD CHKINIAB,ERR=CHKRECER   READ ACCOUNT ENTRY
 003D8E 4D90 7032            00062 22920  1          +
 003D92                            22922  1 4729.                IF    ('CLC CHKINIAC,DSKTAG',EQ),BEGIN ACC ~ WRITTEN
 003D92 D501 813C 2000 0013C 00000 22929  1          +
 003D98 4770 6262            03DB8 22930  1          +
 003D9C 9640 200E      0000E       22935  2 4730.                  SET   DSKFMOD                 WILL MODIFY BLOCK
 003DA0 4830 813A            0013A 22941  2 4731.                  LH    NOD,CHKINIAN            ADDR TO ACCOUNT ENTRY
 003DA4 4133 2000            00000 22942  2 4732.                  LA    NOD,DSKBLK(NOD)         |
 USING  NTRY,R3                    22943  2 4733.                  WITH  (NTRY,NOD),'MVC NTGFLRB(PL),CHKINICB '   FILE RT PTR
 003DA8 D203 3015 811A 00015 0011A 22958  2          +
 DROP   NTRY,R3
 003DAE 4800 8138/1BFF       00138 22967  2 4734.                  DWRITE CHKINIAB,ERR=CHKRECER
 003DB4 4D90 7136            00166 22977  2          +
 003DB8                            22979  1 4735.                END   ,                       OF ACC ~ WRITTEN
 003DB8                            22983    4736.              END   ,                       OF FILE ROOT INSERT
 003DB8 47F0 694E            044A4 22987    4737.              B     CHKCLR1                 Clear 1st level of CHECKPOINT
1FILEVCAT (FILEVC) (09:45) (22MAR04) Checkpoint Recovery - Root Delete                                                      Page  169
0Current Usings:  (DSKBLK,R2) (RQB,R5) (*,R6) (*,R7) (CHKPNT,R8) (FSB,R10)
0Loc    Object Code    Addr1 Addr2  Stmt Lv Lineno    Source Statement           (Hibal 5, Asmedit 3.3)  HLASM R4.0  2004/03/22 09.45
+___    ______ ____    _____ _____  ____ __ ______    ______ _________
0003DBC                            22989    4739.     CHKRTDL  LABEL ,                       Root Delete Recovery
 003DBC 9180 8113      00113       22991    4740.              IF    CHKIFLG.CHKFACC,BEGIN   ACCOUNT ROOT DELETE
 003DC0 47E0 627C            03DD2 23001             +
 003DC4 5890 6B02/0D99       04658 23006  1 4741.                ABORT  CHKRTDL                CURRENTLY ONLY DONE FOR FILE
 003DCA C3C8D2D9E3C4D340           23011  1          +
 003DD2 6280           03DD2 03DC2 23012    4742.              END   ELSE,BEGIN              FILE ROOT DELETE
 003DD2 47F0 6342            03E98 23021             +
                                   23027  1 4743.     *               If Account entry not written, set file root to nil
 003DD6 4800 8138/1BFF       00138 23028  1 4744.                DREAD CHKINDAB,ERR=CHKRECER   LOOK AT ACCOUNT BLOCK
 003DDC 4D90 7032            00062 23038  1          +
 003DE0                            23040  1 4745.                IF    ('CLC CHKINDAC,DSKTAG',EQ),BEGIN ACC ~ WRITTEN
 003DE0 D501 813C 2000 0013C 00000 23047  1          +
 003DE6 4770 62AC            03E02 23048  1          +
 003DEA 4830 813A            0013A 23053  2 4746.                  LH    NOD,CHKINDAN            MAKE ACC FILE TREE NIL
 003DEE 4133 2000            00000 23054  2 4747.                  LA    NOD,DSKBLK(NOD)         |
 USING  NTRY,R3                    23055  2 4748.                  WITH (NTRY,NOD),'MVC NTGFLRB(PL),=&L.AL1(NIL) '
 003DF2 D203 3015 6B0E 00015 04664 23070  2          +
 DROP   NTRY,R3
 003DF8 4800 8138/1BFF       00138 23079  2 4749.                  DWRITE CHKINDAB,ERR=CHKRECER  |
 003DFE 4D90 7136            00166 23089  2          +
 003E02                            23091  1 4750.                END   ,                       OF ACC ~ WRITTEN
                                   23095  1 4751.     *               If current not written, release node
 003E02 4800 811A/1BFF       0011A 23096  1 4752.                DREAD CHKINDCB,ERR=CHKRECER   LOOK AT CURRENT NODE
 003E08 4D90 7032            00062 23106  1          +
 003E0C                            23108  1 4753.                IF    ('CLC CHKINDCC,DSKTAG',EQ),BEGIN CUR ~ WRITTEN
 003E0C D501 8122 2000 00122 00000 23115  1          +
 003E12 4770 62EC            03E42 23116  1          +
 003E16 4830 811C            0011C 23121  2 4754.                  LH    NOD,CHKINDCN            ADDR TO CUR
 003E1A 4133 2000            00000 23122  2 4755.                  LA    NOD,DSKBLK(NOD)         |
 USING  NODE,R3                    23123  2 4756.                  WITH  (NODE,NOD),BEGIN        |
 003E1E 48F0 811C            0011C 23137  3 4757.                    RELNODE CHKINDCN,NODLEN,(DSK),ERR=CHKRECER
 003E22 4800 3000/1812       00000 23143  3          +
 003E28 5890 6B2A/0D99       04680 23150  3          +
 003E2E 4770 6AF0            04646 23160  3          +
 DROP   NODE,R3                    23166  2 4758.                  END   ,                       OF ADDR TO CUR
 003E32 D201 200C 8120 0000C 00120 23174  2 4759.                  MVC   DSKBLINK,CHKINDCL       LINK TO OLD FREE BLOCK
 003E38 4800 811A/1BFF       0011A 23175  2 4760.                  DWRITE CHKINDCB,ERR=CHKRECER
 003E3E 4D90 7136            00166 23185  2          +
 003E42                            23187  1 4761.                END   ,                       OF CUR ~ WRITTEN
                                   23191  1 4762.     *               If extended exists and not written, release it
 003E42                            23192  1 4763.                IF ('CLC CHKINDOB(PL),=&L.AL1(NIL)',NE),BEGIN  EXT EXISTS
 003E42 D503 8124 6B0E 00124 04664 23199  1          +
 003E48 4780 6342            03E98 23200  1          +
 003E4C 4800 8124/1BFF       00124 23205  2 4764.                  DREAD CHKINDOB,ERR=CHKRECER   LOOK AT EXTENDED DATA
 003E52 4D90 7032            00062 23215  2          +
 003E56                            23217  2 4765.                  IF    ('CLC CHKINDOC,DSKTAG',EQ),BEGIN EXT ~ WRITTEN
 003E56 D501 812A 2000 0012A 00000 23224  2          +
 003E5C 4770 6342            03E98 23225  2          +
 003E60 D205 800E 8114 0000E 00114 23230  3 4766.                    MVC   CHKCHAIN,CHKICHAN       OLD CHAIN POINTERS
 003E66 4830 8126            00126 23231  3 4767.                    LH    NOD,CHKINDON            ADDR TO EXTENDED DATA
 003E6A 4133 2000            00000 23232  3 4768.                    LA    NOD,DSKBLK(NOD)         |
 USING  NTRYXTND,R3                23233  3 4769.                    WITH  (NTRYXTND,NOD),BEGIN    |
 003E6E 48F0 8126            00126 23247  4 4770.                      RELNODE CHKINDON,NTRYXLEN,(DSK),ERR=CHKRECER
 003E72 4800 3000/1812       00000 23253  4          +
1FILEVCAT (FILEVC) (09:45) (22MAR04) Checkpoint Recovery - Root Delete                                                      Page  170
0Current Usings:  (DSKBLK,R2) (NTRYXTND,R3) (RQB,R5) (*,R6) (*,R7) (CHKPNT,R8) (FSB,R10)
0Loc    Object Code    Addr1 Addr2  Stmt Lv Lineno    Source Statement           (Hibal 5, Asmedit 3.3)  HLASM R4.0  2004/03/22 09.45
+___    ______ ____    _____ _____  ____ __ ______    ______ _________
0003E78 5890 6B2A/0D99       04680 23260  4          +
 003E7E 4770 6AF0            04646 23270  4          +
 DROP   NTRYXTND,R3                23276  3 4771.                    END   ,                       OF ADDR TO EXTENDED DATA
 003E82 D201 200C 8128 0000C 00128 23284  3 4772.                    MVC   DSKBLINK,CHKINDOL       LINK TO CORRECT BLOCK
 003E88 D200 200E 812C 0000E 0012C 23285  3 4773.                    MVC   DSKFL,CHKINDOF          | AND FLAGS
 003E8E 4800 8124/1BFF       00124 23286  3 4774.                    DWRITE CHKINDOB,ERR=CHKRECER
 003E94 4D90 7136            00166 23296  3          +
 003E98                            23298  2 4775.                  END   ,                       OF EXT ~ WRITTEN
 003E98                            23302  1 4776.                END   ,                       OF OLD EXTENDED EXISTS
 003E98                            23306    4777.              END   ,                       OF FILE ROOT DELETE
 003E98 47F0 694E            044A4 23310    4778.              B     CHKCLR1                 Clear 1st level of Checkpoint
1FILEVCAT (FILEVC) (09:45) (22MAR04) Checkpoint Recovery - Root Split                                                       Page  171
0Current Usings:  (DSKBLK,R2) (RQB,R5) (*,R6) (*,R7) (CHKPNT,R8) (FSB,R10)
0Loc    Object Code    Addr1 Addr2  Stmt Lv Lineno    Source Statement           (Hibal 5, Asmedit 3.3)  HLASM R4.0  2004/03/22 09.45
+___    ______ ____    _____ _____  ____ __ ______    ______ _________
0003E9C                            23312    4780.     CHKRTSP  LABEL ,                       Root Split Recovery
 003E9C 4800 8122            00122 23314    4781.              DREAD CHKIRSCB,LOCK=YES,ERR=CHKRECER   CURRENT = FREE AGAIN
 003EA0 41F0 0001            00001 23319             +
 003EA4 4D90 7032            00062 23321             +
 003EA8 947F 200E      0000E       23323    4782.              CLEAR DSKFINIT                | FREE = SPACE MGMT NOT INIT
 003EAC D201 200C 8010 0000C 00010 23330    4783.              MVC   DSKBLINK,CHKFREB        |
 003EB2 D201 8010 8122 00010 00122 23331    4784.              MVC   CHKFREB,CHKIRSCB        |
 003EB8 4800 811E            0011E 23332    4785.              DREAD CHKIRSLB,LOCK=YES,ERR=CHKRECER   LEFT = FREE AGAIN
 003EBC 41F0 0001            00001 23337             +
 003EC0 4D90 7032            00062 23339             +
 003EC4 947F 200E      0000E       23341    4786.              CLEAR DSKFINIT                | FREE = SPACE MGMT NOT INIT
 003EC8 D201 200C 8010 0000C 00010 23348    4787.              MVC   DSKBLINK,CHKFREB        |
 003ECE D201 8010 811E 00010 0011E 23349    4788.              MVC   CHKFREB,CHKIRSLB        |
                                   23350    4789.     *                 Since the checkpoint block being worked with is
                                   23351    4790.     *               only a temporary copy, and the real space management
                                   23352    4791.     *               pointers will be copied back from the permanent copy
                                   23353    4792.     *               the block counts don't need to be updated.
                                   23354    4793.     *                 Start over with transaction.
 003ED4 D203 8034 811A 00034 0011A 23355    4794.              MVC   CHKCURB(PL),CHKIRSPB    READ DOUBLE WRITE 1 AS CUR
 003EDA 4800 8034            00034 23356    4795.              DDREAD 1,CHKCURB,ERR=CHKRECER |
 003EDE 41F0 0001            00001 23367             +
 003EE2 4D90 7316            00346 23369             +
 003EE6 5020 8030            00030 23371    4796.              ST    DSK,CHKCURA             |
 003EEA 5890 6B2E/0D99       04684 23372    4797.              ACALL NODBAL                  LET BALANCE DO CLEAN UP
 003EF0 4780 63A4            03EFA 23376    4798.              IF    NZ,'ACALL CHKRECER '
 003EF4 5890 6B32/0D99       04688 23390             +
 003EFA 47F0 694E            044A4 23396    4799.              B     CHKCLR1                 Clear 1st level of Checkpoint
1FILEVCAT (FILEVC) (09:45) (22MAR04) Checkpoint Recovery - Root Collapse                                                    Page  172
0Current Usings:  (DSKBLK,R2) (RQB,R5) (*,R6) (*,R7) (CHKPNT,R8) (FSB,R10)
0Loc    Object Code    Addr1 Addr2  Stmt Lv Lineno    Source Statement           (Hibal 5, Asmedit 3.3)  HLASM R4.0  2004/03/22 09.45
+___    ______ ____    _____ _____  ____ __ ______    ______ _________
0003EFE 5890 6B02/0D99       04658 23398    4801.     CHKRTCL  ABORT  CHKRTCL                Root Collapse Recovery
 003F04 C3C8D2D9E3C3D340           23403             +
                                   23404    4802.     *               Not checkpointed now
1FILEVCAT (FILEVC) (09:45) (22MAR04) Checkpoint Recovery - Balance, No Insert/Delete                                        Page  173
0Current Usings:  (DSKBLK,R2) (RQB,R5) (*,R6) (*,R7) (CHKPNT,R8) (FSB,R10)
0Loc    Object Code    Addr1 Addr2  Stmt Lv Lineno    Source Statement           (Hibal 5, Asmedit 3.3)  HLASM R4.0  2004/03/22 09.45
+___    ______ ____    _____ _____  ____ __ ______    ______ _________
0003F0C                            23406    4804.     CHKNBAL  LABEL ,                       Balance (no Ins/Del) Recovery
 003F0C D203 8024 811A 00024 0011A 23408    4805.              MVC   CHKPARB(PL),CHKINBPB    LOOK AT PARENT ENTRY
 003F12 4800 8024/1BFF       00024 23409    4806.              DREAD CHKPARB,PTR=PAR,ERR=CHKRECER
 003F18 4D90 7032            00062 23419             +
 003F1C 5020 8020            00020 23421             +
 003F20                            23422    4807.              IF    ('CLC CHKINBPC,DSKTAG',NE),BEGIN PAR WRITTEN
 003F20 D501 811E 2000 0011E 00000 23429             +
 003F26 4780 6426            03F7C 23430             +
 003F2A 9102 801C      0001C       23435  1 4808.                IF    CHKFLFTU,BEGIN          READ AND WRITE LEFT
 003F2E 47E0 63F2            03F48 23445  1          +
 003F32 4800 8120            00120 23450  2 4809.                  DDREAD 1,CHKINBLB,ERR=CHKRECER         |
 003F36 41F0 0001            00001 23461  2          +
 003F3A 4D90 7316            00346 23463  2          +
 003F3E 4800 8120/1BFF       00120 23465  2 4810.                  DWRITE CHKINBLB,ERR=CHKRECER  |
 003F44 4D90 7136            00166 23475  2          +
 003F48                            23477  1 4811.                END   ,                       |
 003F48 4800 8124            00124 23481  1 4812.                DDREAD 2,CHKINBCB,ERR=CHKRECER         READ AND WRITE CURRENT
 003F4C 41F0 0002            00002 23492  1          +
 003F50 4D90 7316            00346 23494  1          +
 003F54 4800 8124/1BFF       00124 23496  1 4813.                DWRITE CHKINBCB,ERR=CHKRECER  |
 003F5A 4D90 7136            00166 23506  1          +
 003F5E 9101 801C      0001C       23508  1 4814.                IF    CHKFRHTU,BEGIN          READ AND WRITE RIGHT
 003F62 47E0 6426            03F7C 23518  1          +
 003F66 4800 8128            00128 23523  2 4815.                  DDREAD 3,CHKINBRB,ERR=CHKRECER         |
 003F6A 41F0 0003            00003 23534  2          +
 003F6E 4D90 7316            00346 23536  2          +
 003F72 4800 8128/1BFF       00128 23538  2 4816.                  DWRITE CHKINBRB,ERR=CHKRECER  |
 003F78 4D90 7136            00166 23548  2          +
 003F7C                            23550  1 4817.                END   ,                       |
 003F7C                            23554    4818.              END   ,                       OF PARENT WRITTEN
                                   23558    4819.     *               If Parent not written let next transaction do balance
 003F7C 47F0 694E            044A4 23559    4820.              B     CHKCLR1                 Clear 1st level of CHECKPOINT
1FILEVCAT (FILEVC) (09:45) (22MAR04) Checkpoint Recovery - Balance with Insert                                              Page  174
0Current Usings:  (DSKBLK,R2) (RQB,R5) (*,R6) (*,R7) (CHKPNT,R8) (FSB,R10)
0Loc    Object Code    Addr1 Addr2  Stmt Lv Lineno    Source Statement           (Hibal 5, Asmedit 3.3)  HLASM R4.0  2004/03/22 09.45
+___    ______ ____    _____ _____  ____ __ ______    ______ _________
0003F80                            23561    4822.     CHKBINS  LABEL ,                       Balance with Insert recovery
 003F80 D203 8024 811A 00024 0011A 23563    4823.              MVC   CHKPARB(PL),CHKIBIPB    LOOK AT PARENT ENTRY
 003F86 4800 8024/1BFF       00024 23564    4824.              DREAD CHKPARB,PTR=PAR,ERR=CHKRECER
 003F8C 4D90 7032            00062 23574             +
 003F90 5020 8020            00020 23576             +
 003F94                            23577    4825.              IF    ('CLC CHKIBIPC,DSKTAG',NE),BEGIN PAR WRITTEN
 003F94 D501 811E 2000 0011E 00000 23584             +
 003F9A 4780 648A            03FE0 23585             +
 003F9E 4800 8120            00120 23590  1 4826.                DDREAD 1,CHKIBILB,ERR=CHKRECER READ AND WRITE LEFT BLOCK
 003FA2 41F0 0001            00001 23601  1          +
 003FA6 4D90 7316            00346 23603  1          +
 003FAA 4800 8120/1BFF       00120 23605  1 4827.                DWRITE CHKIBILB,ERR=CHKRECER  |
 003FB0 4D90 7136            00166 23615  1          +
 003FB4 4800 8124            00124 23617  1 4828.                DDREAD 2,CHKIBICB,ERR=CHKRECER READ AND WRITE CURRENT BLOCK
 003FB8 41F0 0002            00002 23628  1          +
 003FBC 4D90 7316            00346 23630  1          +
 003FC0 4800 8124/1BFF       00124 23632  1 4829.                DWRITE CHKIBICB,ERR=CHKRECER  |
 003FC6 4D90 7136            00166 23642  1          +
 003FCA 4800 8128            00128 23644  1 4830.                DDREAD 3,CHKIBIRB,ERR=CHKRECER READ AND WRITE RIGHT BLOCK
 003FCE 41F0 0003            00003 23655  1          +
 003FD2 4D90 7316            00346 23657  1          +
 003FD6 4800 8128/1BFF       00128 23659  1 4831.                DWRITE CHKIBIRB,ERR=CHKRECER  |
 003FDC 4D90 7136            00166 23669  1          +
 003FE0 648E           03FE0 03F9C 23671    4832.              END   ELSE,BEGIN              PARENT NOT WRITTEN
 003FE0 47F0 6498            03FEE 23680             +
                                   23686  1 4833.     *               If parent not written, then neither is the new
                                   23687  1 4834.     *             Current block, so only the Checkpoint free list pointer
                                   23688  1 4835.     *             needs to be changed back before it is left to the next
                                   23689  1 4836.     *             transaction to do a balance with insert.
 003FE4 58F0 8078            00078 23690  1 4837.                L     PTR,CHKCHKA             PUT CURRENT BACK ON FREE LIST
 USING  CHKPNT,R15                 23691  1 4838.                WITH  (CHKPNT,PTR),BEGIN      |
 003FE8 D205 F00E F114 0000E 00114 23705  2 4839.                  MVC   CHKCHAIN,CHKICHAN       | OLD BLOCK PTRS & COUNTERS
 DROP   CHKPNT,R15                 23706  1 4840.                END   ,                       OF PUT CUR BACK ON FREE LIST
 003FEE                            23714    4841.              END   ,                       OF PARENT NOT WRITTEN
 003FEE 47F0 694E            044A4 23718    4842.              B     CHKCLR1                 Clear 1st level of CHECKPOINT
1FILEVCAT (FILEVC) (09:45) (22MAR04) Checkpoint Recovery - Balance with Delete                                              Page  175
0Current Usings:  (DSKBLK,R2) (RQB,R5) (*,R6) (*,R7) (CHKPNT,R8) (FSB,R10)
0Loc    Object Code    Addr1 Addr2  Stmt Lv Lineno    Source Statement           (Hibal 5, Asmedit 3.3)  HLASM R4.0  2004/03/22 09.45
+___    ______ ____    _____ _____  ____ __ ______    ______ _________
0003FF2                            23720    4844.     CHKBDEL  LABEL ,                       Balance with Delete Recovery
 003FF2 D203 8024 811A 00024 0011A 23722    4845.              MVC   CHKPARB(PL),CHKIBDPB    LOOK AT PARENT ENTRY
 003FF8 4800 8024/1BFF       00024 23723    4846.              DREAD CHKPARB,PTR=PAR,ERR=CHKRECER
 003FFE 4D90 7032            00062 23733             +
 004002 5020 8020            00020 23735             +
 004006                            23736    4847.              IF    ('CLC CHKIBDPC,DSKTAG',NE),BEGIN PAR WRITTEN
 004006 D501 811E 2000 0011E 00000 23743             +
 00400C 4780 6504            0405A 23744             +
 004010 4800 8120            00120 23749  1 4848.                DDREAD 1,CHKIBDLB,ERR=CHKRECER         READ AND WRITE LEFT
 004014 41F0 0001            00001 23760  1          +
 004018 4D90 7316            00346 23762  1          +
 00401C 4800 8120/1BFF       00120 23764  1 4849.                DWRITE CHKIBDLB,ERR=CHKRECER  |
 004022 4D90 7136            00166 23774  1          +
 004026 4800 8124            00124 23776  1 4850.                DDREAD 2,CHKIBDCB,ERR=CHKRECER         READ AND WRITE CURRENT
 00402A 41F0 0002            00002 23787  1          +
 00402E 4D90 7316            00346 23789  1          +
 004032 4800 8124/1BFF       00124 23791  1 4851.                DWRITE CHKIBDCB,ERR=CHKRECER  |
 004038 4D90 7136            00166 23801  1          +
                                   23803  1 4852.     *               If parent has been written, then the Checkpoint
                                   23804  1 4853.     *             free list pointer has been updated, and only the
                                   23805  1 4854.     *             block needs to be updated.
 00403C 4800 8128/1BFF       00128 23806  1 4855.                DREAD CHKIBDOB,ERR=CHKRECER   PUT OLD BLOCK ON FREE CHAIN
 004042 4D90 7032            00062 23816  1          +
 004046 947F 200E      0000E       23818  1 4856.                CLEAR DSKFINIT                | FREE = SPACE MGMT NOT INIT
 00404A D201 200C 8116 0000C 00116 23825  1 4857.                MVC   DSKBLINK,CHKIFREB       |
 004050 4800 8128/1BFF       00128 23826  1 4858.                DWRITE CHKIBDOB,ERR=CHKRECER  |
 004056 4D90 7136            00166 23836  1          +
 00405A 6508           0405A 0400E 23838    4859.              END   ELSE,BEGIN              PARENT NOT WRITTEN
 00405A 47F0 6512            04068 23847             +
                                   23853  1 4860.     *               If parent hasn't been written, then the Checkpoint
                                   23854  1 4861.     *             pointer needs to be restored to its old value and
                                   23855  1 4862.     *             then let the next transaction do the balance.
 00405E 58F0 8078            00078 23856  1 4863.                L     PTR,CHKCHKA             WOULD_BE_DEL OFF FREE CHAIN
 USING  CHKPNT,R15                 23857  1 4864.                WITH  (CHKPNT,PTR),BEGIN      |
 004062 D205 F00E F114 0000E 00114 23871  2 4865.                  MVC   CHKCHAIN,CHKICHAN       | OLD BLOCK PTRS AND COUNTERS
 DROP   CHKPNT,R15                 23872  1 4866.                END   ,                       OF WOULD_BE_DEL OFF FREE CHAIN
 004068                            23880    4867.              END   ,                       OF PARENT NOT WRITTEN
 004068 47F0 694E            044A4 23884    4868.              B     CHKCLR1                 Clear 1st level CHECKPOINT
1FILEVCAT (FILEVC) (09:45) (22MAR04) Checkpoint Recovery - Modify Entry                                                     Page  176
0Current Usings:  (DSKBLK,R2) (RQB,R5) (*,R6) (*,R7) (CHKPNT,R8) (FSB,R10)
0Loc    Object Code    Addr1 Addr2  Stmt Lv Lineno    Source Statement           (Hibal 5, Asmedit 3.3)  HLASM R4.0  2004/03/22 09.45
+___    ______ ____    _____ _____  ____ __ ______    ______ _________
000406C                            23886    4870.     CHKNTRY  LABEL ,                       Modify Entry Recovery
                                   23888    4871.     *                 Deal with old extended entry
                                   23889    4872.     *               Old extended must be deleted before new is allocated
                                   23890    4873.     *               because the new extended might use all or part of
                                   23891    4874.     *               old extended's space
 00406C                            23892    4875.              IF ('CLC CHKINTOB(PL),=&L.AL1(NIL)',NE),BEGIN  OLD EXISTS
 00406C D503 8124 6B0E 00124 04664 23899             +
 004072 4780 6570            040C6 23900             +
 004076 4800 8124/1BFF       00124 23905  1 4876.                DREAD CHKINTOB,ERR=CHKRECER   LOOK AT OLD
 00407C 4D90 7032            00062 23915  1          +
 004080                            23917  1 4877.                IF    ('CLC CHKINTOC,DSKTAG',EQ),BEGIN OLD ~ WRITTEN
 004080 D501 812A 2000 0012A 00000 23924  1          +
 004086 4770 6570            040C6 23925  1          +
 00408A 4830 8126            00126 23930  2 4878.                  LH    NOD,CHKINTON            ADDR TO OLD EXTENDED
 00408E 4133 2000            00000 23931  2 4879.                  LA    NOD,DSKBLK(NOD)         |
 USING  NTRYXTND,R3                23932  2 4880.                  WITH  (NTRYXTND,NOD),BEGIN    |
 004092 48F0 8126            00126 23946  3 4881.                    RELNODE CHKINTON,NTRYXLEN,(DSK),ERR=CHKRECER
 004096 4800 3000/1812       00000 23952  3          +
 00409C 5890 6B2A/0D99       04680 23959  3          +
 0040A2 4770 6AF0            04646 23969  3          +
 DROP   NTRYXTND,R3                23975  2 4882.                  END   ,                       OF ADDR TO OLD EXTENDED
 0040A6 D201 200C 8128 0000C 00128 23983  2 4883.                  MVC   DSKBLINK,CHKINTOL       PROPER BLOCK LINK
 0040AC D200 200E 812C 0000E 0012C 23984  2 4884.                  MVC   DSKFL,CHKINTOF          | AND FLAGS
 0040B2                            23985  2 4885.                  IF    (CHKINTOB,NE,CHKINTNB),BEGIN     OLD <> NEW
 0040B2 D501 8124 812E 00124 0012E 23997  2          +
 0040B8 4780 6570            040C6 23998  2          +
 0040BC 4800 8124/1BFF       00124 24003  3 4886.                    DWRITE CHKINTOB,ERR=CHKRECER  WRITE OLD EXTENDED
 0040C2 4D90 7136            00166 24013  3          +
 0040C6                            24015  2 4887.                  END   ,                       OF OLD <> NEW
 0040C6                            24019  1 4888.                END   ,                       OF OLD NOT WRITTEN
 0040C6                            24023    4889.              END   ,                       OF OLD EXISTS
                                   24027    4890.     *               Deal with new extended entry
 0040C6                            24028    4891.              IF ('CLC CHKINTNB(PL),=&L.AL1(NIL)',NE),BEGIN  NEW EXISTS
 0040C6 D503 812E 6B0E 0012E 04664 24035             +
 0040CC 4780 662E            04184 24036             +
 0040D0 4800 812E/1BFF       0012E 24041  1 4892.                DREAD CHKINTNB,ERR=CHKRECER   LOOK AT NEX EXTENDED ENTRY
 0040D6 4D90 7032            00062 24051  1          +
 0040DA                            24053  1 4893.                IF    ('CLC CHKINTNC,DSKTAG',EQ),BEGIN NEW ~ WRITTEN
 0040DA D501 8134 2000 00134 00000 24060  1          +
 0040E0 4770 662E            04184 24061  1          +
 0040E4 9180 200E      0000E       24066  2 4894.                  IF    ~DSKFINIT,BEGIN         INITIALIZE SPACE MGMT PTRS
 0040E8 4710 65A4            040FA 24076  2          +
 0040EC 4800 812E            0012E 24081  3 4895.                    DSKINIT CHKINTNB,(DSK)        |
 0040F0 5890 6B12/0D99       04668 24092  3          +
 0040F6 9610 200E      0000E       24094  3 4896.                    SET   DSKFDATA                | WILL BE USED FOR EXTND DATA
 0040FA                            24100  2 4897.                  END   ,                       OF INITIALIZE SPACE MGMT PTRS
 0040FA 4130 8204            00204 24104  2 4898.                  LA    NOD,CHKINTRY            ADDR TO ENTRY COPY
 USING  NTRY,R3                    24105  2 4899.                  WITH  (NTRY,NOD),BEGIN        |
 0040FE D201 809C 3000 0009C 00000 24119  3 4900.                    MVC   CHKBSLN,NTRYLEN         ENTRY LENGTH
 DROP   NTRY,R3                    24120  2 4901.                  END   ,                       OF ADDR TO ENTRY COPY
 004104 41E0 0001            00001 24128  2 4902.                  GETNODE PTRS=2WR,DATA=CHKINTNB,ERR=CHKRECER
 004108 48F0 812E            0012E 24134  2          +
 00410C 5890 6B16/0D99       0466C 24137  2          +
 004112 4770 6AF0            04646 24147  2          +
1FILEVCAT (FILEVC) (09:45) (22MAR04) Checkpoint Recovery - Modify Entry                                                     Page  177
0Current Usings:  (DSKBLK,R2) (RQB,R5) (*,R6) (*,R7) (CHKPNT,R8) (FSB,R10)
0Loc    Object Code    Addr1 Addr2  Stmt Lv Lineno    Source Statement           (Hibal 5, Asmedit 3.3)  HLASM R4.0  2004/03/22 09.45
+___    ______ ____    _____ _____  ____ __ ______    ______ _________
0004116 5020 8050            00050 24153  2          +
 00411A 4000 8054            00054 24154  2          +
 00411E 4010 8056            00056 24155  2          +
 004122 9640 200E      0000E       24156  2 4903.                  SET   DSKFMOD                 WILL MODIFY THIS BLOCK
 004126 4130 8204            00204 24162  2 4904.                  LA    NOD,CHKINTRY            ADDR TO ENTRY COPY
 USING  NTRY,R3                    24163  2 4905.                  WITH  (NTRY,NOD),BEGIN        |
 00412A                            24177  3 4906.                    IF    ('CLC NTRYDATB(PL),CHK2WRB',NE),BEGIN
 00412A D503 3006 8054 00006 00054 24184  3          +
 004130 4780 65EC            04142 24185  3          +
 004134 5890 6B02/0D99       04658 24190  4 4907.                      ABORT  CHKNTXT                EXTENDED PTRS DON'T MATCH
 00413A C3C8D2D5E3E7E340           24195  4          +
 004142                            24196  3 4908.                    END   ,
 DROP   NTRY,R3                    24200  2 4909.                  END   ,                       OF ADDR TO ENTRY COPY
 004142 4131 2000            00000 24208  2 4910.                  LA    NOD,DSKBLK(R1)          (R1 IS BLOCK OFFSET ON RET)
                                   24209  2 4911.                  REGCH (MIX,0),(IX,1),(CNT,14),(PTR,15) CHECK REGS
 004146 4100 3002            00002 24210  2 4912.                  WITH  (NTRYXTND,NOD),'LA MIX,NTRYXPER '        DEST OF MOV
 USING  NTRYXTND,R3
 DROP   NTRYXTND,R3
 00414A 9180 801C      0001C       24234  2 4913.                  IF    CHKFACC,'LH PTR,FSBNAMXL '       MAX IN INDEX
 00414E 47E0 6600            04156 24244  2          +
 004152 48F0 A0B8            000B8 24250  2          +
 004156 6604           04156 04150 24255  2 4914.                  ELSE  'LH PTR,FSBNFMXL '      |
 004156 47F0 6608            0415E 24260  2          +
 00415A 48F0 A0C4            000C4 24267  2          +
 00415E 41E0 8204            00204 24272  2 4915.                  LA    CNT,CHKINTRY            START OF EXTENDED
 004162 1EEF                       24273  2 4916.                  ALR   CNT,PTR                 |
 004164 4810 809C            0009C 24274  2 4917.                  LH    IX,CHKBSLN              LENGTH OF COPY
 004168 1B1F                       24275  2 4918.                  SR    IX,PTR                  |
 00416A 18F1                       24276  2 4919.                  LR    PTR,IX                  |
 00416C 0E0E                       24277  2 4920.                  MVCL  MIX,CNT                 COPY EXTENDED
 00416E D201 200C 8132 0000C 00132 24278  2 4921.                  MVC   DSKBLINK,CHKINTNL       SET DISK LINK
 004174 D200 200E 8136 0000E 00136 24279  2 4922.                  MVC   DSKFL,CHKINTNF          | AND FLAGS
 00417A 4800 812E/1BFF       0012E 24280  2 4923.                  DWRITE CHKINTNB,ERR=CHKRECER  WRITE NEW BLOCK
 004180 4D90 7136            00166 24290  2          +
 004184                            24292  1 4924.                END   ,                       OF NEW ~ WRITTEN
 004184                            24296    4925.              END   ,                       OF NEW EXISTS
                                   24300    4926.     *               Deal with entry block
 004184 D203 8034 811A 00034 0011A 24301    4927.              MVC   CHKCURB(PL),CHKINTCB    LOOK AT ENTRY BLOCK
 00418A 4800 8034/1BFF       00034 24302    4928.              DREAD CHKCURB,PTR=CUR,ERR=CHKRECER
 004190 4D90 7032            00062 24312             +
 004194 5020 8030            00030 24314             +
 004198                            24315    4929.              IF    ('CLC CHKINTCC,DSKTAG',EQ),BEGIN CH INDEX PART
 004198 D501 8122 2000 00122 00000 24322             +
 00419E 4770 669A            041F0 24323             +
 0041A2 48F0 811E            0011E 24328  1 4930.                LH    R15,CHKINTCT            R15/R14 = OLD ENTRY LOC/LEN
 0041A6 41FF 2000            00000 24329  1 4931.                LA    R15,DSKBLK(R15)         |
 0041AA 48E0 F000            00000 24330  1 4932.                WITH  (NTRY,R15),'LH R14,NTRYLEN '
 USING  NTRY,R15
 DROP   NTRY,R15
 0041AE 4110 8204            00204 24354  1 4933.                LA    R1,CHKINTRY             R1/R0 = NEW ENTRY LOC/LEN
 0041B2 4800 1000            00000 24355  1 4934.                WITH  (NTRY,R1),'LH R0,NTRYLEN '
 USING  NTRY,R1
 DROP   NTRY,R1
 0041B6 9180 801C      0001C       24379  1 4935.                IF    CHKFACC,'LH QR,FSBNAMXL '        INDEX MAX
1FILEVCAT (FILEVC) (09:45) (22MAR04) Checkpoint Recovery - Modify Entry                                                     Page  178
0Current Usings:  (DSKBLK,R2) (RQB,R5) (*,R6) (*,R7) (CHKPNT,R8) (FSB,R10)
0Loc    Object Code    Addr1 Addr2  Stmt Lv Lineno    Source Statement           (Hibal 5, Asmedit 3.3)  HLASM R4.0  2004/03/22 09.45
+___    ______ ____    _____ _____  ____ __ ______    ______ _________
00041BA 47E0 666C            041C2 24389  1          +
 0041BE 4840 A0B8            000B8 24395  1          +
 0041C2 6670           041C2 041BC 24400  1 4936.                ELSE  'LH QR,FSBNFMXL '       |
 0041C2 47F0 6674            041CA 24405  1          +
 0041C6 4840 A0C4            000C4 24412  1          +
 0041CA 1904/47D0 667C       041D2 24417  1 4937.                CEIL  R0,QR                   |
 0041D0 1804                       24422  1          +
                                   24423  1 4938.     *                 By making the copy length at most the max length
                                   24424  1 4939.     *               allowed in an index node, the NTRYCHG routine won't
                                   24425  1 4940.     *               reallocate a new extended data block, which has
                                   24426  1 4941.     *               already been written.  This and the index pointer
                                   24427  1 4942.     *               parms on the NTRYCHG call are important for pointer
                                   24428  1 4943.     *               integrity.
 0041D2 13EE/1300                  24429  1 4944.                NTRYCHG DEST=CUR,DELXTND=NO,INSXTND=NO,ERR=CHKRECER
 0041D6 D207 8050 8030 00050 00030 24433  1          +
 0041DC 5890 6B26/0D99       0467C 24436  1          +
 0041E2 4770 6AF0            04646 24446  1          +
 0041E6 4800 8034/1BFF       00034 24452  1 4945.                DWRITE CHKCURB,ERR=CHKRECER   WRITE MODIFIED
 0041EC 4D90 7136            00166 24462  1          +
 0041F0                            24464    4946.              END   ,                       OF CHANGE INDEX PART
 0041F0 47F0 694E            044A4 24468    4947.              B     CHKCLR1                 Clear 1st level CHECKPOINT
1FILEVCAT (FILEVC) (09:45) (22MAR04) Checkpoint Recovery - Insert Entry                                                     Page  179
0Current Usings:  (DSKBLK,R2) (RQB,R5) (*,R6) (*,R7) (CHKPNT,R8) (FSB,R10)
0Loc    Object Code    Addr1 Addr2  Stmt Lv Lineno    Source Statement           (Hibal 5, Asmedit 3.3)  HLASM R4.0  2004/03/22 09.45
+___    ______ ____    _____ _____  ____ __ ______    ______ _________
00041F4                            24470    4949.     CHKNTIN  LABEL ,                       Entry Insert Recovery
                                   24472    4950.     *               Deal with new extended entry
 0041F4                            24473    4951.              IF ('CLC CHKININB(PL),=&L.AL1(NIL)',NE),BEGIN  NEW EXISTS
 0041F4 D503 812E 6B0E 0012E 04664 24480             +
 0041FA 4780 675C            042B2 24481             +
 0041FE 4800 812E/1BFF       0012E 24486  1 4952.                DREAD CHKININB,ERR=CHKRECER   LOOK AT NEX EXTENDED ENTRY
 004204 4D90 7032            00062 24496  1          +
 004208                            24498  1 4953.                IF    ('CLC CHKININC,DSKTAG',EQ),BEGIN NEW ~ WRITTEN
 004208 D501 8134 2000 00134 00000 24505  1          +
 00420E 4770 675C            042B2 24506  1          +
 004212 9180 200E      0000E       24511  2 4954.                  IF    ~DSKFINIT,BEGIN         INITIALIZE SPACE MGMT PTRS
 004216 4710 66D2            04228 24521  2          +
 00421A 4800 812E            0012E 24526  3 4955.                    DSKINIT CHKININB,(DSK)        |
 00421E 5890 6B12/0D99       04668 24537  3          +
 004224 9610 200E      0000E       24539  3 4956.                    SET   DSKFDATA                | WILL BE USED FOR EXTND DATA
 004228                            24545  2 4957.                  END   ,                       OF INITIALIZE SPACE MGMT PTRS
 004228 4130 8204            00204 24549  2 4958.                  LA    NOD,CHKINTRY            ADDR TO ENTRY COPY
 USING  NTRY,R3                    24550  2 4959.                  WITH  (NTRY,NOD),BEGIN        |
 00422C D201 809C 3000 0009C 00000 24564  3 4960.                    MVC   CHKBSLN,NTRYLEN         ENTRY LENGTH
 DROP   NTRY,R3                    24565  2 4961.                  END   ,                       OF ADDR TO ENTRY COPY
 004232 41E0 0001            00001 24573  2 4962.                  GETNODE PTRS=2WR,DATA=CHKININB,ERR=CHKRECER
 004236 48F0 812E            0012E 24579  2          +
 00423A 5890 6B16/0D99       0466C 24582  2          +
 004240 4770 6AF0            04646 24592  2          +
 004244 5020 8050            00050 24598  2          +
 004248 4000 8054            00054 24599  2          +
 00424C 4010 8056            00056 24600  2          +
 004250 9640 200E      0000E       24601  2 4963.                  SET   DSKFMOD                 WILL MODIFY THIS BLOCK
 004254 4130 8204            00204 24607  2 4964.                  LA    NOD,CHKINTRY            ADDR TO ENTRY COPY
 USING  NTRY,R3                    24608  2 4965.                  WITH  (NTRY,NOD),BEGIN        |
 004258                            24622  3 4966.                    IF    ('CLC NTRYDATB(PL),CHK2WRB',NE),BEGIN
 004258 D503 3006 8054 00006 00054 24629  3          +
 00425E 4780 671A            04270 24630  3          +
 004262 5890 6B02/0D99       04658 24635  4 4967.                      ABORT  CHKNTXT                EXTENDED PTRS DON'T MATCH
 004268 C3C8D2D5E3E7E340           24640  4          +
 004270                            24641  3 4968.                    END   ,
 DROP   NTRY,R3                    24645  2 4969.                  END   ,                       OF ADDR TO ENTRY COPY
 004270 4131 2000            00000 24653  2 4970.                  LA    NOD,DSKBLK(R1)          (R1 IS BLOCK OFFSET ON RET)
                                   24654  2 4971.                  REGCH (MIX,0),(IX,1),(CNT,14),(PTR,15) CHECK REGS
 004274 4100 3002            00002 24655  2 4972.                  WITH  (NTRYXTND,NOD),'LA MIX,NTRYXPER '        DEST OF MOV
 USING  NTRYXTND,R3
 DROP   NTRYXTND,R3
 004278 9180 801C      0001C       24679  2 4973.                  IF    CHKFACC,'LH PTR,FSBNAMXL '       MAX IN INDEX
 00427C 47E0 672E            04284 24689  2          +
 004280 48F0 A0B8            000B8 24695  2          +
 004284 6732           04284 0427E 24700  2 4974.                  ELSE  'LH PTR,FSBNFMXL '      |
 004284 47F0 6736            0428C 24705  2          +
 004288 48F0 A0C4            000C4 24712  2          +
 00428C 41E0 8204            00204 24717  2 4975.                  LA    CNT,CHKINTRY            START OF EXTENDED
 004290 1EEF                       24718  2 4976.                  ALR   CNT,PTR                 |
 004292 4810 809C            0009C 24719  2 4977.                  LH    IX,CHKBSLN              LENGTH OF COPY
 004296 1B1F                       24720  2 4978.                  SR    IX,PTR                  |
 004298 18F1                       24721  2 4979.                  LR    PTR,IX                  |
 00429A 0E0E                       24722  2 4980.                  MVCL  MIX,CNT                 COPY EXTENDED
1FILEVCAT (FILEVC) (09:45) (22MAR04) Checkpoint Recovery - Insert Entry                                                     Page  180
0Current Usings:  (DSKBLK,R2) (RQB,R5) (*,R6) (*,R7) (CHKPNT,R8) (FSB,R10)
0Loc    Object Code    Addr1 Addr2  Stmt Lv Lineno    Source Statement           (Hibal 5, Asmedit 3.3)  HLASM R4.0  2004/03/22 09.45
+___    ______ ____    _____ _____  ____ __ ______    ______ _________
000429C D201 200C 8132 0000C 00132 24723  2 4981.                  MVC   DSKBLINK,CHKININL       SET DISK LINK
 0042A2 D200 200E 8136 0000E 00136 24724  2 4982.                  MVC   DSKFL,CHKININF          | AND FLAGS
 0042A8 4800 812E/1BFF       0012E 24725  2 4983.                  DWRITE CHKININB,ERR=CHKRECER  WRITE NEW BLOCK
 0042AE 4D90 7136            00166 24735  2          +
 0042B2                            24737  1 4984.                END   ,                       OF NEW ~ WRITTEN
 0042B2                            24741    4985.              END   ,                       OF NEW EXISTS
                                   24745    4986.     *               Deal with entry block
 0042B2 D203 8034 811A 00034 0011A 24746    4987.              MVC   CHKCURB(PL),CHKINICB    LOOK AT ENTRY BLOCK
 0042B8 4800 8034/1BFF       00034 24747    4988.              DREAD CHKCURB,PTR=CUR,ERR=CHKRECER
 0042BE 4D90 7032            00062 24757             +
 0042C2 5020 8030            00030 24759             +
 0042C6                            24760    4989.              IF    ('CLC CHKINICC,DSKTAG',EQ),BEGIN CH INDEX PART
 0042C6 D501 8122 2000 00122 00000 24767             +
 0042CC 4770 67DA            04330 24768             +
 0042D0 48F0 811C            0011C 24773  1 4990.                LH    R15,CHKINTCN            NODE ADDRESS
 0042D4 41FF 2000            00000 24774  1 4991.                LA    R15,DSKBLK(R15)         |
 0042D8 4140 0001            00001 24775  1 4992.                WITH (NODE,R15),'INCR QR,NODNTNUM '    ONE MORE NTRY
 USING  NODE,R15
 0042DC 4A40 F002            00002 24794  2          +
 0042E0 4040 F002            00002 24795  1          +
 DROP   NODE,R15
 0042E4 48F0 811E            0011E 24804  1 4993.                LH    R15,CHKINTCT            R15/R14 = OLD ENTRY LOC/LEN
 0042E8 41FF 2000            00000 24805  1 4994.                LA    R15,DSKBLK(R15)         |
 0042EC 1BEE                       24806  1 4995.                CLEAR R14                     |
 0042EE 4110 8204            00204 24810  1 4996.                LA    R1,CHKINTRY             R1/R0 = NEW ENTRY LOC/LEN
 0042F2 4800 1000            00000 24811  1 4997.                WITH  (NTRY,R1),'LH R0,NTRYLEN '
 USING  NTRY,R1
 DROP   NTRY,R1
 0042F6 9180 801C      0001C       24835  1 4998.                IF    CHKFACC,'LH QR,FSBNAMXL '        INDEX MAX
 0042FA 47E0 67AC            04302 24845  1          +
 0042FE 4840 A0B8            000B8 24851  1          +
 004302 67B0           04302 042FC 24856  1 4999.                ELSE  'LH QR,FSBNFMXL '       |
 004302 47F0 67B4            0430A 24861  1          +
 004306 4840 A0C4            000C4 24868  1          +
 00430A 1904/47D0 67BC       04312 24873  1 5000.                CEIL  R0,QR                   |
 004310 1804                       24878  1          +
                                   24879  1 5001.     *                 By making the copy length at most the max length
                                   24880  1 5002.     *               allowed in an index node, the NTRYCHG routine won't
                                   24881  1 5003.     *               reallocate a new extended data block, which has
                                   24882  1 5004.     *               already been written.  This and the index pointer
                                   24883  1 5005.     *               parms on the NTRYCHG call are important for pointer
                                   24884  1 5006.     *               integrity.
 004312 13EE/1300                  24885  1 5007.                NTRYCHG DEST=CUR,DELXTND=NO,INSXTND=NO,ERR=CHKRECER
 004316 D207 8050 8030 00050 00030 24889  1          +
 00431C 5890 6B26/0D99       0467C 24892  1          +
 004322 4770 6AF0            04646 24902  1          +
 004326 4800 8034/1BFF       00034 24908  1 5008.                DWRITE CHKCURB,ERR=CHKRECER   WRITE MODIFIED
 00432C 4D90 7136            00166 24918  1          +
 004330                            24920    5009.              END   ,                       OF CHANGE INDEX PART
 004330 47F0 694E            044A4 24924    5010.              B     CHKCLR1                 Clear 1st level of CHECKPOINT
1FILEVCAT (FILEVC) (09:45) (22MAR04) Checkpoint Recovery - Delete Entry                                                     Page  181
0Current Usings:  (DSKBLK,R2) (RQB,R5) (*,R6) (*,R7) (CHKPNT,R8) (FSB,R10)
0Loc    Object Code    Addr1 Addr2  Stmt Lv Lineno    Source Statement           (Hibal 5, Asmedit 3.3)  HLASM R4.0  2004/03/22 09.45
+___    ______ ____    _____ _____  ____ __ ______    ______ _________
0004334                            24926    5012.     CHKNTDL  LABEL ,
                                   24928    5013.     *               Deal with leaf and current node in non leaf delete
 004334                            24929    5014.              IF ('CLC CHKIND2B(PL),=&L.AL1(NIL)',NE),BEGIN  ~ LEAF DEL
 004334 D503 813E 6B0E 0013E 04664 24936             +
 00433A 4780 6896            043EC 24937             +
 00433E D203 8034 813E 00034 0013E 24942  1 5015.                MVC   CHKCURB(PL),CHKIND2B    USE CUR PTRS SLOT
 004344 4800 813E/1BFF       0013E 24943  1 5016.                DREAD CHKIND2B,PTR=CUR,ERR=CHKRECER    LOOK AT LEAF BLOCK
 00434A 4D90 7032            00062 24953  1          +
 00434E 5020 8030            00030 24955  1          +
 004352                            24956  1 5017.                IF    ('CLC CHKIND2C,DSKTAG',EQ),BEGIN LEAF ~WRITTEN
 004352 D501 8142 2000 00142 00000 24963  1          +
 004358 4770 6846            0439C 24964  1          +
 00435C 4830 8140            00140 24969  2 5018.                  LH    NOD,CHKIND2N            ADDR TO 1ST ENTRY IN NODE
 004360 4133 2000            00000 24970  2 5019.                  LA    NOD,DSKBLK(NOD)         |
 USING  NODE,R3                    24971  2 5020.                  WITH  (NODE,NOD),BEGIN        NODE ADDR
 004364 4840 3002/0640       00002 24985  3 5021.                    DECR  QR,NODNTNUM             ONE LESS ENTRY
 00436A 4040 3002            00002 24989  3          +
 00436E 4130 3008            00008 24990  3 5022.                    LA    NOD,NODNTRYS            LEAF INDEX (IN CHKPNT)
 DROP   NODE,R3                    24991  2 5023.                  END   ,                       OF NODE ADDR
 004372 4110 8204            00204 24999  2 5024.                  LA    R1,CHKINTRY             NEW BUFFER (DUMMY)
 004376 1B00                       25000  2 5025.                  CLEAR R0                      | LEN
 004378 18F3                       25004  2 5026.                  LR    R15,NOD                 OLD BUFFER ADDR
 00437A 48E0 F000            00000 25005  2 5027.                  WITH  (NTRY,R15),'LH R14,NTRYLEN '     | INDEX LEN
 USING  NTRY,R15
 DROP   NTRY,R15
 00437E 13EE/1300                  25029  2 5028.                  NTRYCHG DEST=CUR,DELXTND=NO,INSXTND=NO,ERR=CHKRECER
 004382 D207 8050 8030 00050 00030 25033  2          +
 004388 5890 6B26/0D99       0467C 25036  2          +
 00438E 4770 6AF0            04646 25046  2          +
 004392 4800 813E/1BFF       0013E 25052  2 5029.                  DWRITE CHKIND2B,ERR=CHKRECER  DEL ENTRY
 004398 4D90 7136            00166 25062  2          +
 00439C                            25064  1 5030.                END   ,                       OF LEAF ~ WRITTEN
 00439C D203 8034 811A 00034 0011A 25068  1 5031.                MVC   CHKCURB(PL),CHKINDCB    LOOK AT CURRENT BLOCK
 0043A2 4800 8034/1BFF       00034 25069  1 5032.                DREAD CHKCURB,PTR=CUR,ERR=CHKRECER
 0043A8 4D90 7032            00062 25079  1          +
 0043AC 5020 8030            00030 25081  1          +
 0043B0                            25082  1 5033.                IF    ('CLC CHKINDCC,DSKTAG',EQ),BEGIN CUR ~ WRITTEN
 0043B0 D501 8122 2000 00122 00000 25089  1          +
 0043B6 4770 6896            043EC 25090  1          +
 0043BA 48F0 811E            0011E 25095  2 5034.                  LH    R15,CHKINDCT            ADDR TO OLD ENTRY
 0043BE 41FF 2000            00000 25096  2 5035.                  LA    R15,DSKBLK(R15)         |
 0043C2 48E0 F000            00000 25097  2 5036.                  WITH  (NTRY,R15),'LH R14,NTRYLEN '     | INDEX LEN
 USING  NTRY,R15
 DROP   NTRY,R15
 0043C6 4110 8204            00204 25121  2 5037.                  LA    R1,CHKINTRY             ADDR TO NEW ENTRY (FROM LEAF)
 0043CA 4800 1000            00000 25122  2 5038.                  WITH  (NTRY,R1),'LH R0,NTRYLEN '       | INDEX LEN
 USING  NTRY,R1
 DROP   NTRY,R1
 0043CE 13EE/1300                  25146  2 5039.                  NTRYCHG DEST=CUR,DELXTND=NO,INSXTND=NO,ERR=CHKRECER
 0043D2 D207 8050 8030 00050 00030 25150  2          +
 0043D8 5890 6B26/0D99       0467C 25153  2          +
 0043DE 4770 6AF0            04646 25163  2          +
 0043E2 4800 811A/1BFF       0011A 25169  2 5040.                  DWRITE CHKINDCB,ERR=CHKRECER  COP LEAF NTRY
 0043E8 4D90 7136            00166 25179  2          +
1FILEVCAT (FILEVC) (09:45) (22MAR04) Checkpoint Recovery - Delete Entry                                                     Page  182
0Current Usings:  (DSKBLK,R2) (RQB,R5) (*,R6) (*,R7) (CHKPNT,R8) (FSB,R10)
0Loc    Object Code    Addr1 Addr2  Stmt Lv Lineno    Source Statement           (Hibal 5, Asmedit 3.3)  HLASM R4.0  2004/03/22 09.45
+___    ______ ____    _____ _____  ____ __ ______    ______ _________
00043EC                            25181  1 5041.                END   ,                       OF CUR ~ WRITTEN
 0043EC                            25185    5042.              END   ,                       OF ~ LEAF DELETE
                                   25189    5043.     *               Deal with current node in leaf delete
 0043EC 689A           043EC 0433C 25190    5044.              ELSE  BEGIN                   LEAF DELETE
 0043EC 47F0 68FA            04450 25195             +
 0043F0 D203 8034 811A 00034 0011A 25201  1 5045.                MVC   CHKCURB(PL),CHKINDCB    LOOK AT ENTRY BLOCK
 0043F6 4800 8034/1BFF       00034 25202  1 5046.                DREAD CHKCURB,PTR=CUR,ERR=CHKRECER
 0043FC 4D90 7032            00062 25212  1          +
 004400 5020 8030            00030 25214  1          +
 004404                            25215  1 5047.                IF    ('CLC CHKINDCC,DSKTAG',EQ),BEGIN CH INDEX PART
 004404 D501 8122 2000 00122 00000 25222  1          +
 00440A 4770 68FA            04450 25223  1          +
 00440E 48F0 811C            0011C 25228  2 5048.                  LH    R15,CHKINDCN            NODE ADDR
 004412 41FF 2000            00000 25229  2 5049.                  LA    R15,DSKBLK(R15)         |
 004416 4840 F002/0640       00002 25230  2 5050.                  WITH (NODE,R15),'DECR QR,NODNTNUM '    ONE LESS ENTRY
 USING  NODE,R15
 00441C 4040 F002            00002 25249  2          +
 DROP   NODE,R15
 004420 48F0 811E            0011E 25258  2 5051.                  LH    R15,CHKINDCT            R15/R14 = OLD ENTRY LOC/LEN
 004424 41FF 2000            00000 25259  2 5052.                  LA    R15,DSKBLK(R15)         |
 004428 48E0 F000            00000 25260  2 5053.                  WITH  (NTRY,R15),'LH R14,NTRYLEN '
 USING  NTRY,R15
 DROP   NTRY,R15
 00442C 4110 8204            00204 25284  2 5054.                  LA    R1,CHKINTRY             R1/R0 = NEW ENTRY LOC/LEN
 004430 1B00                       25285  2 5055.                  CLEAR R0                      | ZERO LEN = DELETE
                                   25289  2 5056.     *                 The index pointer parms on the NTRYCHG call are
                                   25290  2 5057.     *               required because they keep the NTRYCHG routine from
                                   25291  2 5058.     *               changing extended data ptrs when the extended data
                                   25292  2 5059.     *               has already been written.
 004432 13EE/1300                  25293  2 5060.                  NTRYCHG DEST=CUR,DELXTND=NO,INSXTND=NO,ERR=CHKRECER
 004436 D207 8050 8030 00050 00030 25297  2          +
 00443C 5890 6B26/0D99       0467C 25300  2          +
 004442 4770 6AF0            04646 25310  2          +
 004446 4800 811A/1BFF       0011A 25316  2 5061.                  DWRITE CHKINDCB,ERR=CHKRECER  WRITE MODIFIED
 00444C 4D90 7136            00166 25326  2          +
 004450                            25328  1 5062.                END   ,                       OF CHANGE INDEX PART
 004450                            25332    5063.              END   ,                       OF LEAF DELETE
                                   25336    5064.     *               Deal with extended data entry
 004450                            25337    5065.              IF ('CLC CHKINDOB(PL),=&L.AL1(NIL)',NE),BEGIN  OLD EXISTS
 004450 D503 8124 6B0E 00124 04664 25344             +
 004456 4780 694A            044A0 25345             +
 00445A 4800 8124/1BFF       00124 25350  1 5066.                DREAD CHKINDOB,ERR=CHKRECER   LOOK AT OLD EXTENDED
 004460 4D90 7032            00062 25360  1          +
 004464                            25362  1 5067.                IF    ('CLC CHKINDOC,DSKTAG',EQ),BEGIN OLD ~ WRITTEN
 004464 D501 812A 2000 0012A 00000 25369  1          +
 00446A 4770 694A            044A0 25370  1          +
 00446E 4830 8126            00126 25375  2 5068.                  LH    NOD,CHKINDON            ADDR TO OLD EXTENDED
 004472 4133 2000            00000 25376  2 5069.                  LA    NOD,DSKBLK(NOD)         |
 USING  NTRYXTND,R3                25377  2 5070.                  WITH  (NTRYXTND,NOD),BEGIN    |
 004476 48F0 8126            00126 25391  3 5071.                    RELNODE CHKINDON,NTRYXLEN,(DSK),ERR=CHKRECER
 00447A 4800 3000/1812       00000 25397  3          +
 004480 5890 6B2A/0D99       04680 25404  3          +
 004486 4770 6AF0            04646 25414  3          +
 DROP   NTRYXTND,R3                25420  2 5072.                  END   ,                       OF ADDR TO OLD EXTENDED
1FILEVCAT (FILEVC) (09:45) (22MAR04) Checkpoint Recovery - Delete Entry                                                     Page  183
0Current Usings:  (DSKBLK,R2) (RQB,R5) (*,R6) (*,R7) (CHKPNT,R8) (FSB,R10)
0Loc    Object Code    Addr1 Addr2  Stmt Lv Lineno    Source Statement           (Hibal 5, Asmedit 3.3)  HLASM R4.0  2004/03/22 09.45
+___    ______ ____    _____ _____  ____ __ ______    ______ _________
000448A D201 200C 8128 0000C 00128 25428  2 5073.                  MVC   DSKBLINK,CHKINDOL       PROPER BLOCK LINK
 004490 D200 200E 812C 0000E 0012C 25429  2 5074.                  MVC   DSKFL,CHKINDOF          | AND FLAGS
 004496 4800 8124/1BFF       00124 25430  2 5075.                  DWRITE CHKINDOB,ERR=CHKRECER  WRITE OLD EXTENDED
 00449C 4D90 7136            00166 25440  2          +
 0044A0                            25442  1 5076.                END   ,                       OF OLD ~ WRITTEN
 0044A0                            25446    5077.              END   ,                       OF OLD EXISTS
 0044A0 47F0 694E            044A4 25450    5078.              B     CHKCLR1                 Clear 1st level of CHECKPOINT
1FILEVCAT (FILEVC) (09:45) (22MAR04) Checkpoint Recovery - Finish 1st level                                                 Page  184
0Current Usings:  (DSKBLK,R2) (RQB,R5) (*,R6) (*,R7) (CHKPNT,R8) (FSB,R10)
0Loc    Object Code    Addr1 Addr2  Stmt Lv Lineno    Source Statement           (Hibal 5, Asmedit 3.3)  HLASM R4.0  2004/03/22 09.45
+___    ______ ____    _____ _____  ____ __ ______    ______ _________
00044A4                            25452    5080.     CHKCLR1  LABEL ,
 0044A4 58E0 8078            00078 25454    5081.              L     R14,CHKCHKA             COPY ORIGINAL CHECKPOINT
 0044A8 48F0 A0AC            000AC 25455    5082.              LH    R15,FSBDSZ              | BLOCK SIZE
 0044AC 1808                       25456    5083.              LR    R0,CHKR                 DEST ADDR
 0044AE 181F                       25457    5084.              LR    R1,R15                  | LEN
 0044B0 0E0E                       25458    5085.              MVCL  R0,R14                  |
 0044B2                            25459    5086.              CLEAR CHKIVLV1                CLEAR THIS LEVEL
 0044B2 D741 8112 8112 00112 00112 25465             +
 0044B8 4D90 74C2            004F2 25466    5087.              IWRITE ERR=CHKRECER           |
1FILEVCAT (FILEVC) (09:45) (22MAR04) Checkpoint Recovery - 2nd Level                                                        Page  185
0Current Usings:  (DSKBLK,R2) (RQB,R5) (*,R6) (*,R7) (CHKPNT,R8) (FSB,R10)
0Loc    Object Code    Addr1 Addr2  Stmt Lv Lineno    Source Statement           (Hibal 5, Asmedit 3.3)  HLASM R4.0  2004/03/22 09.45
+___    ______ ____    _____ _____  ____ __ ______    ______ _________
00044BC 4100 0000            00000 25472    5089.     LEVEL2   DRELBUF LA:0,ERR=CHKRECER     RELEASE CHECKPOINT COPY BUF
 0044C0 4D90 7236            00266 25479             +
 0044C4 1FFF/43F0 8154       00154 25481    5090.              LC    R15,CHKI2TYP
 0044CA 59F0 6B36            0468C 25488    5091.              IF    (R15,GT,CCHKDBAL),BEGIN NOT IMPLEMENTED
 0044CE 47D0 698A            044E0 25500             +
 0044D2 5890 6B02/0D99       04658 25505  1 5092.                ABORT  CHK2NIMP
 0044D8 C3C8D2F2D5C9D4D7           25510  1          +
 0044E0                            25511    5093.              END   ,                       OF NOT IMPLEMENTED
 0044E0 47FF 698E            044E4 25515    5094.              B     TABLE2(R15)
 0044E4 47F0 69E8            0453E 25516    5095.     TABLE2   B     LEVEL3                  NO 2ND LEVEL INTENTIONS
 0044E8 47F0 6996            044EC 25517    5096.              B     CHKDBAL
1FILEVCAT (FILEVC) (09:45) (22MAR04) Checkpoint Recovery - Required balance on delete                                       Page  186
0Current Usings:  (DSKBLK,R2) (RQB,R5) (*,R6) (*,R7) (CHKPNT,R8) (FSB,R10)
0Loc    Object Code    Addr1 Addr2  Stmt Lv Lineno    Source Statement           (Hibal 5, Asmedit 3.3)  HLASM R4.0  2004/03/22 09.45
+___    ______ ____    _____ _____  ____ __ ______    ______ _________
00044EC                            25519    5098.     CHKDBAL  LABEL ,                       Balance on delete Recovery
 0044EC 9180 801C      0001C       25521    5099.              IF    CHKFACC,BEGIN           SET UP FOR ACC SEARCH
 0044F0 47E0 69AC            04502 25531             +
 0044F4 9205 80C4      000C4       25536  1 5100.                MVI   CHKFNMSZ,CNTAMXSZ       ENTRY TO LOOK FOR
 0044F8 D204 80C5 815D 000C5 0015D 25537  1 5101.                MVC   CHKFNAME(CNTAMXSZ),CHKIDBNM      |
 0044FE 4100 0000            00000 25538  1 5102.                LA    R0,ACCMODE              |
 004502 69B0           04502 044F2 25539    5103.              END   ELSE,BEGIN              SET UP FOR FILE SEARCH
 004502 47F0 69CC            04522 25548             +
 004506 D200 80C4 815C 000C4 0015C 25554  1 5104.                MVC   CHKFNMSZ,CHKIDBSZ       NTRY TO LOOK FOR (LEN)
 00450C D225 80C5 815D 000C5 0015D 25555  1 5105.                MVC   CHKFNAME(L'CHKFNAME),CHKIDBNM    |
 004512 D203 805C 8156 0005C 00156 25556  1 5106.                MVC   CHKACCB(PL),CHKIDBAB    ACCOUNT BLOCK
 004518 D201 8604 815A 00604 0015A 25557  1 5107.                MVC   CHKACSP,CHKIDBAS        | ACC STACK PTR
 00451E 4100 0004            00004 25558  1 5108.                LA    R0,FILEMODE             |
 004522                            25559    5109.              END   ,                       OF SET UP FOR FILE SEARCH
 004522 9640 801C      0001C       25563    5110.              SET   CHKFMOD                 YES, I WANT TO BALANCE
 004526 5890 6B3A/0D99       04690 25569    5111.              ACALL CATSRCH                 |
 00452C 47F0 69DA            04530 25573    5112.              B     CHKCLR2                 Clear 2nd level on CHECKPOINT
1FILEVCAT (FILEVC) (09:45) (22MAR04) Checkpoint Recovery - Finish 2nd Level                                                 Page  187
0Current Usings:  (DSKBLK,R2) (RQB,R5) (*,R6) (*,R7) (CHKPNT,R8) (FSB,R10)
0Loc    Object Code    Addr1 Addr2  Stmt Lv Lineno    Source Statement           (Hibal 5, Asmedit 3.3)  HLASM R4.0  2004/03/22 09.45
+___    ______ ____    _____ _____  ____ __ ______    ______ _________
0004530                            25575    5114.     CHKCLR2  CLEAR CHKIVLV2                CLEAR 2ND LEVEL INTENTIONS
 004530 D781 8112 8112 00112 00112 25582             +
 004536 4D90 74C2            004F2 25583    5115.              IWRITE ERR=CHKRECER           |
 00453A 47F0 69E8            0453E 25588    5116.              B     LEVEL3
1FILEVCAT (FILEVC) (09:45) (22MAR04) Checkpoint Recovery - 3rd Level                                                        Page  188
0Current Usings:  (DSKBLK,R2) (RQB,R5) (*,R6) (*,R7) (CHKPNT,R8) (FSB,R10)
0Loc    Object Code    Addr1 Addr2  Stmt Lv Lineno    Source Statement           (Hibal 5, Asmedit 3.3)  HLASM R4.0  2004/03/22 09.45
+___    ______ ____    _____ _____  ____ __ ______    ______ _________
000453E 1FFF/43F0 8194       00194 25590    5118.     LEVEL3   LC    R15,CHKI3TYP
 004544 59F0 6B3E            04694 25597    5119.              IF    (R15,GT,CCHKREN),BEGIN  NOT IMPLEMENTED
 004548 47D0 6A04            0455A 25609             +
 00454C 5890 6B02/0D99       04658 25614  1 5120.                ABORT  CHK3NIMP
 004552 C3C8D2F3D5C9D4D7           25619  1          +
 00455A                            25620    5121.              END   ,                       OF NOT IMPLEMENTED
 00455A 47FF 6A08            0455E 25624    5122.              B     TABLE3(R15)
 00455E 47F0 6AEA            04640 25625    5123.     TABLE3   B     LEVELN                  NO 3RD LEVEL INTENTIONS
 004562 47F0 6A10            04566 25626    5124.              B     CHKREN
1FILEVCAT (FILEVC) (09:45) (22MAR04) Checkpoint Recovery - Rename Entry                                                     Page  189
0Current Usings:  (DSKBLK,R2) (RQB,R5) (*,R6) (*,R7) (CHKPNT,R8) (FSB,R10)
0Loc    Object Code    Addr1 Addr2  Stmt Lv Lineno    Source Statement           (Hibal 5, Asmedit 3.3)  HLASM R4.0  2004/03/22 09.45
+___    ______ ____    _____ _____  ____ __ ______    ______ _________
0004566                            25628    5126.     CHKREN   LABEL ,                       Rename Entry Recovery
 004566 D203 805C 8196 0005C 00196 25630    5127.              MVC   CHKACCB(PL),CHKIERAB    ACCOUNT BLOCK
 00456C D201 8604 819A 00604 0019A 25631    5128.              MVC   CHKACSP,CHKIERAS        | ACC STACK PTR
 004572 9108 801C      0001C       25632    5129.              IF    CHKFDEL,BEGIN           STILL IN DELETE STAGE
 004576 47E0 6A64            045BA 25642             +
                                   25647  1 5130.     *          In delete stage, the old name is in the CHKIERON slot
                                   25648  1 5131.     *        and the new name is in the CHKIERNN slot.
 00457A D200 80C4 81A3 000C4 001A3 25649  1 5132.                MVC   CHKFNMSZ,CHKIEROS       NTRY TO LOOK FOR (LEN)
 004580 D225 80C5 81A4 000C5 001A4 25650  1 5133.                MVC   CHKFNAME(L'CHKFNAME),CHKIERON    |
 004586 4100 0004            00004 25651  1 5134.                LA    R0,FILEMODE             |
 00458A                            25652  1 5135.                CLEAR CHKFLGS                 NEW SEARCH
 00458A D701 801C 801C 0001C 0001C 25658  1          +
 004590 9648 801C      0001C       25659  1 5136.                SET   CHKFMOD+CHKFDEL         DEL THIS ONE IF THERE
 004594 5890 6B3A/0D99       04690 25668  1 5137.                ACALL CATSRCH                 |
 00459A 4770 6A52            045A8 25672  1 5138.                IF    ZERO,BEGIN              DEL LEAVES HERE
 00459E 5890 6B42/0D99       04698 25683  2 5139.                  ACALL NTRYDEL
 0045A4 4770 7AEA            00B1A 25687  2 5140.                  IF    NZ,CATERROR
 0045A8                            25701  1 5141.                END   ,                       OF DEL LEAVES HERE
 0045A8 D726 80C4 80EB 000C4 000EB 25705  1 5142.                XC    CHKFNMSZ(L'CHKFNAME+1),CHKFRNMS  Exchange Len & Name
 0045AE D726 80EB 80C4 000EB 000C4 25706  1 5143.                XC    CHKFRNMS(L'CHKFRNAM+1),CHKFNMSZ  |
 0045B4 D726 80C4 80EB 000C4 000EB 25707  1 5144.                XC    CHKFNMSZ(L'CHKFNAME+1),CHKFRNMS  |
 0045BA                            25708    5145.              END   ,                       OF STILL IN DEL STAGE
 0045BA                            25712    5146.              CLEAR CHKFLGS
 0045BA D701 801C 801C 0001C 0001C 25718             +
 0045C0 9650 801C      0001C       25719    5147.              SET   CHKFMOD+CHKFINS
 0045C4 4100 0004            00004 25728    5148.              LA    R0,FILEMODE             FIND LOC TO INS
 0045C8 4D90 789A            008CA 25729    5149.              LCALL CATSRCH                 |
 0045CC 4780 6AE0            04636 25731    5150.              IF    NZ,BEGIN                NOT ALREADY INSERTED
 0045D0 5890 6B46/0D99       0469C 25742  1 5151.                ACALL NTRYINS                 INSERT ENTRY
 0045D6 4770 7AEA            00B1A 25746  1 5152.                IF    NZ,CATERROR
                                   25760  1 5153.                REGCH (MIX,0),(IX,1)
                                   25761  1 5154.                AGO   .NOCRNAC                DON'T RENAME ACCOUNTS
                                   25762  1 5170.     .NOCRNAC   ANOP  ,
 0045DA 4140 100A            0000A 25763  1 5171.                WITH  (NTRY,IX),'LA QR,NTFLOC '        DEST OF FIXED RENAME
 USING  NTRY,R1
 DROP   NTRY,R1
 0045DE 41E0 8404            00404 25787  1 5172.                LA    CNT,CHKIRNT             SOURCE OF FIXED RENAME
 USING  NTRY,R14                   25788  1 5173.                WITH  (NTRY,CNT),BEGIN        | RENAME BUFFER
 0045E2 D214 4000 E00A 00000 0000A 25802  2 5174.                  MVC   @QR(NTFLNMSZ-NTFLOC),NTFLOC      COPY FIXED
 0045E8 4800 E000            00000 25803  2 5175.                  LH    MIX,NTRYLEN             OLD LENGTH
 0045EC 41F0 E000            00000 25804  2 5176.                  LA    PTR,NTRY                START OF OLD ENTRY
 0045F0 4130 E020            00020 25805  2 5177.                  LA    NOD,NTFLNAME            SRC OF PERMITS
 0045F4 1F44/4340 E01F       0001F 25806  2 5178.                  LC    QR,NTFLNMSZ             |
 0045FA 41E4 3000            00000 25813  2 5179.                  LA    CNT,@NOD(QR)            |
 DROP   NTRY,R14                   25814  1 5180.                END   ,                       OF ADDR TO SRC OF REN
                                   25822  1 5181.     *                                               PTR = TOTAL-NON_PERMIT
 0045FE 1BFE                       25823  1 5182.                SR    PTR,CNT                 | -(BEGINNING_LEN)
 004600 1AF0                       25824  1 5183.                AR    PTR,MIX                 | TOTAL-BEGIN_LEN
 USING  NTRY,R1                    25825  1 5184.                WITH  (NTRY,IX),BEGIN         ADDR TO DEST OF PERMITS
 004602 1F44/4340 80C4       000C4 25839  2 5185.                  LC    QR,CHKFNMSZ             DEST OF PERMITS
 004608 4104 101B            0001B 25846  2 5186.                  LA    MIX,NTFLNAME-CNTAMXSZ(QR)        | (QR = FULL NAME LEN)
 DROP   NTRY,R1                    25847  1 5187.                END   ,                       OF ADDR TO DEST OF REN
                                   25855  1 5188.                REGCH (MIX,0),(IX,1),(CNT,14),(PTR,15)
 00460C 181F                       25856  1 5189.                LR    IX,PTR                  COPY LENGTHS
1FILEVCAT (FILEVC) (09:45) (22MAR04) Checkpoint Recovery - Rename Entry                                                     Page  190
0Current Usings:  (DSKBLK,R2) (RQB,R5) (*,R6) (*,R7) (CHKPNT,R8) (FSB,R10)
0Loc    Object Code    Addr1 Addr2  Stmt Lv Lineno    Source Statement           (Hibal 5, Asmedit 3.3)  HLASM R4.0  2004/03/22 09.45
+___    ______ ____    _____ _____  ____ __ ______    ______ _________
000460E 0E0E                       25857  1 5190.                MVCL  MIX,CNT                 COPY RENAME BUFFER
                                   25858  1 5191.                AGO   .NOCRNA2                DON'T RENAME ACCOUNTS
                                   25859  1 5193.     .NOCRNA2   ANOP  ,
                                   25860  1 5194.
 004610 4110 8204            00204 25861  1 5195.                LA    IX,CHKINTRY             LOC OF NEW ENTRY
 004614 41E0 8404            00404 25862  1 5196.                LA    CNT,CHKIRNT             LEN OF NEW NTRY
 004618 4800 E000            00000 25863  1 5197.                WITH (NTRY,CNT),'LH R0,NTRYLEN '
 USING  NTRY,R14
 DROP   NTRY,R14
 00461C 1FFF/43F0 80EB       000EB 25887  1 5198.                LC    PTR,CHKFRNMS            | MINUS OLD NAME LEN
 004622 1B0F                       25894  1 5199.                SR    R0,PTR                  | |
 004624 1FFF/43F0 80C4       000C4 25895  1 5200.                LC    PTR,CHKFNMSZ            | PLUS NEW NAME LEN
 00462A 1A0F                       25902  1 5201.                AR    R0,PTR                  | |
 00462C 5890 6B4A/0D99       046A0 25903  1 5202.                ACALL NTRYIAFT                INSERT
 004632 4770 7AEA            00B1A 25907  1 5203.                IF    NZ,CATERROR
 004636                            25921    5204.              END   ,                       OF NOT ALREADY INSERTED
 004636                            25925    5205.              CLEAR CHKIVLV3                3rd LEVEL INTENT DONE
 004636 D7F1 8112 8112 00112 00112 25931             +
 00463C 4D90 74C2            004F2 25932    5206.              IWRITE ERR=CATERROR           |
 004640                            25937    5207.     LEVELN   LABEL ,                       DONE
                                   25939    5208.
 004640 1BFF                       25940    5209.              CLEAR R15                     SET CC
 004642 47F0 7B26            00B56 25944    5210.              TOCOM SAVE=NO                 AND RETURN
 004646 5890 6B02/0D99       04658 25947    5211.     CHKRECER ABORT  CHKRECER
 00464C C3C8D2D9C5C3C5D9           25952             +
1FILEVCAT (FILEVC) (09:45) (22MAR04) Checkpoint Recovery - Rename Entry                                                     Page  191
0Current Usings:  (DSKBLK,R2) (RQB,R5) (*,R6) (*,R7) (CHKPNT,R8) (FSB,R10)
0Loc    Object Code    Addr1 Addr2  Stmt Lv Lineno    Source Statement           (Hibal 5, Asmedit 3.3)  HLASM R4.0  2004/03/22 09.45
+___    ______ ____    _____ _____  ____ __ ______    ______ _________
0                                  25954    5213.              XTRCDATA ,
 004658                            25956    5214.              END   .
 004658 00000000                   25959                             =V(VKAPUT)
 00465C 000000FF                   25960                             =A(VIOLOCK)
 004660 00000028                   25961                             =A(CCHKNTDL)
 004664 FFFFFFFF                   25962                             =4AL1(NIL)
 004668 00003798                   25963                             =A(DSKINIT)
 00466C 00001BE0                   25964                             =A(GETNODE)
 004670 0000381A                   25965                             =A(DSKGET)
 004674 00000004                   25966                             =A(CDSKSERR)
 004678 00000200                   25967                             =A(CDIRDGM)
 00467C 0000188A                   25968                             =A(NTRYCHG)
 004680 00001E82                   25969                             =A(RELNODE)
 004684 00001FA0                   25970                             =A(NODBAL)
 004688 00004646                   25971                             =A(CHKRECER)
 00468C 00000004                   25972                             =A(CCHKDBAL)
 004690 000008CA                   25973                             =A(CATSRCH)
 004694 00000004                   25974                             =A(CCHKREN)
 004698 00001560                   25975                             =A(NTRYDEL)
 00469C 000012D4                   25976                             =A(NTRYINS)
 0046A0 00001408                   25977                             =A(NTRYIAFT)
 0046A4 002C                       25978                             =Y((L'VWTOMSG1+3)/4*4)
 0046A6 0008                       25979                             =Y(2*4)
 0046A8 40D6D9E5E8D340C6           25980                             =C' ORVYL File System Updates Frozen!!'

1FILEVCAT (FILEVC) (09:45) (22MAR04) Ordinary Symbol and Literal Cross Reference                                            Page  192
-Symbol   Length   Value     Id    R Type   Defn References                                  HLASM R4.0  2004/03/22 09.45
0$$$@R0        1 00000000 FFFFFFFE     J     722  1208
 $$$@R1        1 00000000 FFFFFFFD     J     735  1221
 $$$@R10       1 00000000 FFFFFFF4     J     852  1145
 $$$@R11       1 00000000 FFFFFFF3     J     865  1158
 $$$@R12       1 00000000 FFFFFFF2     J     878  1171
 $$$@R13       1 00000000 FFFFFFF1     J     891  1184
 $$$@R14       1 00000000 FFFFFFF0     J     904  1260   1338
 $$$@R15       1 00000000 FFFFFFEF     J     917  1273   1351
 $$$@R2        1 00000000 FFFFFFFC     J     748  1041   1299
 $$$@R3        1 00000000 FFFFFFFB     J     761  1054   1234   1312
 $$$@R4        1 00000000 FFFFFFFA     J     774  1067   1325
 $$$@R5        1 00000000 FFFFFFF9     J     787  1080
 $$$@R6        1 00000000 FFFFFFF8     J     800  1093
 $$$@R7        1 00000000 FFFFFFF7     J     813  1106
 $$$@R8        1 00000000 FFFFFFF6     J     826  1119   1247
 $$$@R9        1 00000000 FFFFFFF5     J     839  1132
 $$$C1FILEVCAT
               1 00000892 00000001     J    5933  5935   6395
 $$$C2FILEVCAT
               1 00000BD2 00000001     J    6907  6909   8012   8186
 $$$C3FILEVCAT
               1 00001084 00000001     J    8352  8354   9877  10622  12188
 $$$C4FILEVCAT
               1 00001BE0 00000001     J   12557 12559
 $$$C5FILEVCAT
               1 00001FA0 00000001     J   14018 14020
 $$$C6FILEVCAT
               1 00002D90 00000001     J   17862 17864  20705
 $$$C7FILEVCAT
               1 00003798 00000001     J   20869 20871
 $$$C8FILEVCAT
               1 00003AA0 00000001     J   21949 21951  22112
 $$$C9FILEVCAT
               1 000046CB 00000001     J   25981 25983
 $$$D0FILEVCAT
               1 0000088C 00000001     J    1011  5062
 $$$D1FILEVCAT
               1 00000BCC 00000001     J    5934  6384
 $$$D2FILEVCAT
               1 0000107E 00000001     J    6908  8175
 $$$D3FILEVCAT
               1 00001BCE 00000001     J    8353  9866  10611  12177
 $$$D6FILEVCAT
               1 00003792 00000001     J   17863 20694
 $$$RCHKDSTK
               1 00000000 FFFFFFEB     J    2384  2409   2409
 $$$RCHKPNT
               1 00000000 FFFFFFEA     J    2415  2900   2900
 $$$RCURRENT
               1 00000000 FFFFFFE6     J    3112  3133   3133
 $$$RDATEDSCT
               1 00000000 FFFFFFE0     J    7998  8011   8011
 $$$RDSKBLK
               1 00000000 FFFFFFE8     J    3004  3079   3079
 $$$RFBHDR
1FILEVCAT (FILEVC) (09:45) (22MAR04) Ordinary Symbol and Literal Cross Reference                                            Page  193
               1 00000000 FFFFFFED     J    2037  2073   2073
 $$$RFSB       1 00000000 FFFFFFEC     J    2080  2352   2352
 $$$RLAST      1 00000000 FFFFFFE7     J    3085  3106   3106
 $$$RNEWCHAIN
               1 00000000 FFFFFFE5     J    3139  3160   3160
 $$$RNODE      1 00000000 FFFFFFE4     J    3167  3233   3233
 $$$RNTRY      1 00000000 FFFFFFE3     J    3270  3482   3482
 $$$RNTRYPR
               1 00000000 FFFFFFE1     J    3510  3576   3576
 $$$RNTRYXTND
               1 00000000 FFFFFFE2     J    3488  3504   3504
 $$$RPZERO
               1 00000000 FFFFFFEE     J    1850  1941   1941
 $$$RRQBL      1 00000000 FFFFFFE9     J    2912  2978   2978
 $$$RVWTOMSG1
               1 00000000 FFFFFFDF     J   22096 22111  22111
 $$$100F       2 000009E6 00000001     H    6425  6403B
 $$$104F       2 00000A20 00000001     H    6528  6518B
 $$$105F       2 00000A62 00000001     H    6574  6560B
 $$$106F       2 00000AA2 00000001     H    6654  6644B
 $$$107F       2 00000ADE 00000001     H    6697  6686B
 $$$108F       2 00000B0E 00000001     H    6754  6708B
 $$$109B       4 00000AE8 00000001     I    6722  6735
 $$$109F       2 00000AF8 00000001     H    6732  6722B  6734
 $$$110E       2 00000AFC 00000001     H    6742  6736
 $$$110F       2 00000B0E 00000001     H    6750  6738B
 $$$111B       4 00000B1E 00000001     I    6777  6808
 $$$111F       2 00000B30 00000001     H    6804  6777B  6807
 $$$113E       2 00000B34 00000001     H    6815  6809
 $$$113F       2 00000B4A 00000001     H    6842  6811B  6826B
 $$$115B       1 00000BD4 00000001     X    6940  6947U
 $$$116F       2 00000BE4 00000001     H    6972  6962B
 $$$117F       2 00000BF8 00000001     H    6999  6989B
 $$$118F       2 00000C36 00000001     H    7036  7026B
 $$$119F       2 00000C74 00000001     H    7092  7082B
 $$$121F       2 00000CE0 00000001     H    7221  7159B
 $$$122F       2 00000CE0 00000001     H    7217  7180B
 $$$123F       2 00000CE0 00000001     H    7213  7198B
 $$$127B       1 00000D8E 00000001     X    7502  7512U
 $$$128B       4 00000DA6 00000001     I    7545  7962
 $$$128F       2 00000F3C 00000001     H    7959  7545B  7961
 $$$129F       2 00000F38 00000001     H    7954  7563B
 $$$129S       2 00000DB8 00000001     H    7560  7953B
 $$$131F       2 00000E48 00000001     H    7698  7641B
 $$$132F       2 00000F12 00000001     H    7897  7741B
 $$$133F       2 00000F12 00000001     H    7893  7759B
 $$$133S       2 00000E84 00000001     H    7756  7892B
 $$$135F       2 00000EF8 00000001     H    7874  7817B
 $$$136E       2 00000F40 00000001     H    7969  7963
 $$$136F       2 00000F44 00000001     H    7976  7965B
 $$$137B       1 00000F4A 00000001     X    8041  8051U
 $$$138B       4 00000F58 00000001     I    8070  8306
 $$$138F       2 0000104C 00000001     H    8303  8070B  8305
 $$$139F       2 00001048 00000001     H    8298  8088B
 $$$139S       2 00000F6A 00000001     H    8085  8297B
 $$$141B       4 00000F82 00000001     I    8123  8146
 $$$141F       2 00000FA8 00000001     H    8143  8123B  8145
 $$$143E       2 00000FAC 00000001     H    8153  8147
 $$$143F       2 0000102E 00000001     H    8271  8149B
1FILEVCAT (FILEVC) (09:45) (22MAR04) Ordinary Symbol and Literal Cross Reference                                            Page  194
 $$$144        6 0000107E 00000001     I    8181  8173X
 $$$145        6 0000107E 00000001     I    8180  8181   8181
 $$$146B       4 00000FE0 00000001     I    8198  8211
 $$$146F       2 00000FEA 00000001     H    8208  8198B  8210
 $$$147E       2 00000FEE 00000001     H    8218  8212
 $$$147F       2 0000102E 00000001     H    8267  8214B
 $$$150E       2 00001050 00000001     H    8313  8307
 $$$150F       2 00001054 00000001     H    8320  8309B
 $$$151B       1 00001092 00000001     X    8388  8398U
 $$$152F       2 000010AC 00000001     H    8442  8411B
 $$$153F       2 000010AC 00000001     H    8438  8424B
 $$$154B       4 000010C2 00000001     I    8470  8632
 $$$154F       2 00001128 00000001     H    8629  8470B  8631
 $$$155F       2 00001120 00000001     H    8583  8485B
 $$$156E       2 0000112C 00000001     H    8639  8633
 $$$156F       2 00001152 00000001     H    8693  8635B
 $$$157B       4 00001130 00000001     I    8651  8664
 $$$157F       2 00001138 00000001     H    8661  8651B  8663
 $$$158E       2 0000113C 00000001     H    8671  8665
 $$$158F       2 00001146 00000001     H    8684  8667B
 $$$159B       1 00001170 00000001     X    8743  8753U
 $$$161B       4 00001178 00000001     I    8781  8965
 $$$161F       2 000011D8 00000001     H    8962  8781B  8964
 $$$162B       4 00001180 00000001     I    8796  8896
 $$$162F       2 000011A8 00000001     H    8893  8796B  8895
 $$$164E       2 000011AC 00000001     H    8903  8897
 $$$164F       2 000011D8 00000001     H    8958  8899B
 $$$165B       4 000011C4 00000001     I    8925  8938
 $$$165F       2 000011CC 00000001     H    8935  8925B  8937
 $$$166E       2 000011D0 00000001     H    8945  8939
 $$$166F       2 000011D4 00000001     H    8952  8941B
 $$$167E       2 000011DC 00000001     H    8972  8966
 $$$167F       2 00001252 00000001     H    9173  8968B
 $$$168F       2 000011EC 00000001     H    8994  8984B
 $$$169B       4 000011F4 00000001     I    9029  9043
 $$$169F       2 00001202 00000001     H    9040  9029B  9042
 $$$170E       2 00001206 00000001     H    9050  9044
 $$$170F       2 0000121A 00000001     H    9066  9046B
 $$$171F       2 00001232 00000001     H    9103  9093B
 $$$171T       2 0000122A 00000001     H    9096  9083B
 $$$174F       2 00001288 00000001     H    9232  9186B
 $$$175F       2 00001288 00000001     H    9228  9208B
 $$$176F       2 000012C2 00000001     H    9322  9256B
 $$$177F       2 000012B8 00000001     H    9306  9271B  9286B
 $$$179B       1 000012E2 00000001     X    9362  9372U
 $$$180F       2 000013BE 00000001     H    9581  9384B
 $$$181B       4 00001310 00000001     I    9422  9474
 $$$181F       2 00001344 00000001     H    9470  9422B  9473
 $$$183E       2 00001348 00000001     H    9481  9475
 $$$183F       2 000013A0 00000001     H    9569  9477B
 $$$185F       2 000013D0 00000001     H    9614  9600B
 $$$186F       2 000013E4 00000001     H    9635  9625B
 $$$187B       1 00001416 00000001     X    9702  9712U
 $$$188B       4 0000141A 00000001     I    9726  9740
 $$$188F       2 00001428 00000001     H    9737  9726B  9739
 $$$189E       2 0000142C 00000001     H    9747  9741
 $$$189F       2 00001440 00000001     H    9763  9743B
 $$$19B        1 00000030 00000001     X    3672  3679U
 $$$190F       2 00001458 00000001     H    9799  9789B
1FILEVCAT (FILEVC) (09:45) (22MAR04) Ordinary Symbol and Literal Cross Reference                                            Page  195
 $$$190T       2 00001450 00000001     H    9792  9780B
 $$$192B       4 0000146C 00000001     I    9829  9842
 $$$192F       2 0000147C 00000001     H    9839  9829B  9841
 $$$193E       2 00001480 00000001     H    9849  9843
 $$$193F       2 00001494 00000001     H    9882  9845B
 $$$194        6 00001BCE 00000001     I    9872  9864X
 $$$195        6 00001BCE 00000001     I    9871  9872   9872
 $$$197F       2 0000151E 00000001     H   10069  9972B
 $$$198B       4 000014EC 00000001     I    9994 10007
 $$$198F       2 000014F4 00000001     H   10003  9994B 10006
 $$$199E       2 000014F8 00000001     H   10014 10008
 $$$199F       2 00001506 00000001     H   10032 10010B 10023B
 $$$20B        4 0000006E 00000001     I    3766  3838
 $$$20F        2 000000A4 00000001     H    3835  3766B  3837
 $$$201F       2 0000151E 00000001     H   10065 10045B
 $$$202F       2 0000154E 00000001     H   10141 10093B
 $$$203F       2 00001544 00000001     H   10125 10105B
 $$$204B       1 0000156E 00000001     X   10192 10202U
 $$$205F       2 00001588 00000001     H   10263 10214B
 $$$206F       2 00001588 00000001     H   10259 10249B
 $$$207B       4 00001594 00000001     I   10285 10729
 $$$207F       2 000016DC 00000001     H   10726 10285B 10728
 $$$208F       2 000015F2 00000001     H   10403 10360B
 $$$21F        2 0000007E 00000001     H    3790  3780B
 $$$210F       2 000016A8 00000001     H   10639 10538B
 $$$211B       4 00001680 00000001     I   10574 10586
 $$$211F       2 0000168A 00000001     H   10583 10574B 10585
 $$$212E       2 0000168E 00000001     H   10593 10587
 $$$212F       2 000016A8 00000001     H   10627 10589B
 $$$213        6 00001BD4 00000001     I   10617 10609X
 $$$214        6 00001BD4 00000001     I   10616 10617  10617
 $$$216E       2 000016E0 00000001     H   10736 10730
 $$$216F       2 0000174C 00000001     H   10872 10732B
 $$$217F       2 0000172A 00000001     H   10808 10771B 10782B 10794B
 $$$22F        2 00000098 00000001     H    3825  3811B
 $$$221F       2 000017F2 00000001     H   11105 10885B
 $$$222B       4 0000176E 00000001     I   10920 10932
 $$$222F       2 00001776 00000001     H   10929 10920B 10931
 $$$223E       2 0000177A 00000001     H   10939 10933
 $$$223F       2 000017C6 00000001     H   11040 10935B
 $$$225F       2 000017DE 00000001     H   11073 11053B
 $$$226F       2 000017F2 00000001     H   11101 11081B
 $$$227F       2 00001822 00000001     H   11177 11129B
 $$$228F       2 00001818 00000001     H   11161 11141B
 $$$229F       2 00001878 00000001     H   11279 11191B
 $$$23E        2 000000A8 00000001     H    3845  3839
 $$$23F        2 00000122 00000001     H    3952  3841B
 $$$230B       4 0000182E 00000001     I   11206 11220
 $$$230F       2 00001840 00000001     H   11217 11206B 11219
 $$$231E       2 00001844 00000001     H   11227 11221
 $$$231F       2 00001866 00000001     H   11255 11223B
 $$$232B       1 00001898 00000001     X   11334 11344U
 $$$233F       2 000018AA 00000001     H   11387 11371B
 $$$234F       2 000018B4 00000001     H   11413 11397B
 $$$235F       2 00001966 00000001     H   11617 11442B 11455B
 $$$237F       2 00001966 00000001     H   11605 11482B
 $$$238F       2 00001914 00000001     H   11511 11498B
 $$$24F        2 000000D8 00000001     H    3899  3858B
 $$$240B       4 0000196A 00000001     I   11629 11642
1FILEVCAT (FILEVC) (09:45) (22MAR04) Ordinary Symbol and Literal Cross Reference                                            Page  196
 $$$240F       2 00001972 00000001     H   11639 11629B 11641
 $$$241E       2 00001976 00000001     H   11649 11643
 $$$241F       2 0000197A 00000001     H   11656 11645B
 $$$242B       4 00001986 00000001     I   11683 11901
 $$$242F       2 00001A32 00000001     H   11894 11669B 11683B 11898
 $$$243B       4 0000197E 00000001     I   11669 11899
 $$$244F       2 000019AE 00000001     H   11712 11699B
 $$$245B       4 000019B2 00000001     I   11723 11736
 $$$245F       2 000019BA 00000001     H   11733 11723B 11735
 $$$246E       2 000019BE 00000001     H   11743 11737
 $$$246F       2 000019C2 00000001     H   11750 11739B
 $$$248B       4 00001A12 00000001     I   11857 11870
 $$$248F       2 00001A1A 00000001     H   11867 11857B 11869
 $$$249E       2 00001A1E 00000001     H   11877 11871
 $$$249F       2 00001A22 00000001     H   11884 11873B
 $$$25F        2 000000C8 00000001     H    3882  3872B
 $$$250E       2 00001A36 00000001     H   11908 11900  11902
 $$$250F       2 00001A52 00000001     H   11965 11904B 11919B 11932B
 $$$253B       4 00001A5E 00000001     I   11979 11992
 $$$253F       2 00001A66 00000001     H   11989 11979B 11991
 $$$254E       2 00001A6A 00000001     H   11999 11993
 $$$254F       2 00001A6E 00000001     H   12006 11995B
 $$$255F       2 00001AE8 00000001     H   12219 12022B
 $$$256F       2 00001A96 00000001     H   12063 12053B
 $$$256S       2 00001A84 00000001     H   12048 12062B
 $$$258B       4 00001A9C 00000001     I   12083 12105
 $$$258F       2 00001AAC 00000001     H   12098 12083B 12104
 $$$259E       2 00001AB0 00000001     H   12112 12106
 $$$259F       2 00001AE8 00000001     H   12215 12108B 12120B
 $$$261F       2 00001AC4 00000001     H   12144 12135B
 $$$262F       2 00001AD0 00000001     H   12167 12157B
 $$$263        6 00001BDA 00000001     I   12183 12175X
 $$$264        6 00001BDA 00000001     I   12182 12183  12183
 $$$266F       2 00001B26 00000001     H   12316 12232B
 $$$267B       4 00001B04 00000001     I   12252 12265
 $$$267F       2 00001B0C 00000001     H   12262 12252B 12264
 $$$268E       2 00001B10 00000001     H   12272 12266
 $$$268F       2 00001B14 00000001     H   12279 12268B
 $$$269B       4 00001B44 00000001     I   12348 12361
 $$$269F       2 00001B50 00000001     H   12358 12348B 12360
 $$$27F        2 00000142 00000001     H    3977  3963B
 $$$270E       2 00001B54 00000001     H   12368 12362
 $$$270F       2 00001B5C 00000001     H   12375 12364B
 $$$271B       4 00001B64 00000001     I   12396 12462
 $$$271F       2 00001B80 00000001     H   12459 12396B 12461
 $$$272F       2 00001B76 00000001     H   12429 12414B
 $$$273F       2 00001B80 00000001     H   12455 12440B
 $$$274E       2 00001B84 00000001     H   12469 12463
 $$$274F       2 00001B98 00000001     H   12526 12465B
 $$$275F       2 00001B8E 00000001     H   12496 12481B
 $$$276F       2 00001B98 00000001     H   12522 12507B
 $$$277B       1 00001BEE 00000001     X   12609 12619U
 $$$278B       4 00001BF0 00000001     I   12630 13258
 $$$278F       2 00001D92 00000001     H   13255 12630B 13257
 $$$279F       2 00001C5A 00000001     H   12795 12644B 12661B
 $$$28F        2 00000158 00000001     H    4000  3986B
 $$$281B       4 00001C12 00000001     I   12691 12704
 $$$281F       2 00001C1A 00000001     H   12701 12691B 12703
 $$$282E       2 00001C1E 00000001     H   12711 12705
1FILEVCAT (FILEVC) (09:45) (22MAR04) Ordinary Symbol and Literal Cross Reference                                            Page  197
 $$$282F       2 00001C22 00000001     H   12718 12707B
 $$$283F       2 00001C4C 00000001     H   12770 12746B 12760B
 $$$286F       2 00001CBE 00000001     H   12935 12803B
 $$$287B       4 00001C76 00000001     I   12831 12844
 $$$287F       2 00001C7E 00000001     H   12841 12831B 12843
 $$$288E       2 00001C82 00000001     H   12851 12845
 $$$288F       2 00001C86 00000001     H   12858 12847B
 $$$289F       2 00001CB0 00000001     H   12910 12886B 12900B
 $$$29F        2 00000184 00000001     H    4062  4048B
 $$$294B       4 00001CD4 00000001     I   12976 12989
 $$$294F       2 00001CDC 00000001     H   12986 12976B 12988
 $$$295E       2 00001CE0 00000001     H   12996 12990
 $$$295F       2 00001CE4 00000001     H   13003 12992B
 $$$296F       2 00001D0E 00000001     H   13055 13031B 13045B
 $$$298F       2 00001D2A 00000001     H   13083 13069B
 $$$299B       4 00001D2E 00000001     I   13100 13185
 $$$299F       2 00001D6E 00000001     H   13182 13100B 13184
 $$$30F        2 00000190 00000001     H    4082  4072B
 $$$300F       2 00001D6E 00000001     H   13178 13119B 13134B
 $$$302E       2 00001D72 00000001     H   13192 13186
 $$$302F       2 00001D8A 00000001     H   13226 13188B
 $$$303F       2 00001D8A 00000001     H   13222 13206B
 $$$304E       2 00001D96 00000001     H   13265 13259
 $$$304F       2 00001E04 00000001     H   13464 13261B
 $$$306B       4 00001DA4 00000001     I   13296 13309
 $$$306F       2 00001DAC 00000001     H   13306 13296B 13308
 $$$307E       2 00001DB0 00000001     H   13316 13310
 $$$307F       2 00001DB4 00000001     H   13323 13312B
 $$$308F       2 00001DD0 00000001     H   13369 13345B 13359B
 $$$31F        2 000001AE 00000001     H    4107  4093B
 $$$310B       4 00001DEC 00000001     I   13421 13439
 $$$310F       2 00001DFA 00000001     H   13436 13421B 13438
 $$$311E       2 00001DFE 00000001     H   13446 13440
 $$$311F       2 00001E04 00000001     H   13452 13442B
 $$$312F       2 00001E34 00000001     H   13516 13506B
 $$$313F       2 00001E74 00000001     H   13605 13564B
 $$$314F       2 00001E74 00000001     H   13601 13587B
 $$$315B       1 00001E90 00000001     X   13648 13658U
 $$$316F       2 00001EA2 00000001     H   13682 13672B
 $$$317B       4 00001EA6 00000001     I   13695 13928
 $$$317F       2 00001F3A 00000001     H   13922 13695B 13927
 $$$318B       4 00001EB2 00000001     I   13718 13802
 $$$318F       2 00001EEA 00000001     H   13797 13718B 13801
 $$$319F       2 00001EEA 00000001     H   13793 13750B
 $$$32F        2 000001CC 00000001     H    4129  4120B
 $$$320F       2 00001EEA 00000001     H   13789 13774B
 $$$321E       2 00001EEE 00000001     H   13809 13803
 $$$321F       2 00001F3A 00000001     H   13918 13805B 13820B 13835B
 $$$324F       2 00001F3A 00000001     H   13914 13871B
 $$$325F       2 00001F3A 00000001     H   13910 13895B
 $$$326E       2 00001F3E 00000001     H   13935 13929
 $$$326F       2 00001F66 00000001     H   13992 13931B 13946B 13958B 13972B
 $$$330B       1 00001FAE 00000001     X   14068 14078U
 $$$331F       2 000021CC 00000001     H   14606 14135B
 $$$332F       2 0000200E 00000001     H   14184 14169B
 $$$333F       2 00002046 00000001     H   14243 14209B
 $$$334F       2 0000203E 00000001     H   14237 14223B
 $$$335B       4 00002050 00000001     I   14252 14333
 $$$335F       2 000020A6 00000001     H   14330 14252B 14332
1FILEVCAT (FILEVC) (09:45) (22MAR04) Ordinary Symbol and Literal Cross Reference                                            Page  198
 $$$336B       4 00002058 00000001     I   14267 14313
 $$$336F       2 0000209C 00000001     H   14310 14267B 14312
 $$$337E       2 000020A0 00000001     H   14320 14314
 $$$337F       2 000020A6 00000001     H   14326 14316B
 $$$338E       2 000020AA 00000001     H   14340 14334
 $$$338F       2 000020E6 00000001     H   14402 14336B
 $$$339F       2 00002106 00000001     H   14430 14413B
 $$$340B       4 0000210E 00000001     I   14439 14523
 $$$340F       2 00002176 00000001     H   14520 14439B 14522
 $$$341B       4 00002116 00000001     I   14454 14503
 $$$341F       2 0000216C 00000001     H   14500 14454B 14502
 $$$342E       2 00002170 00000001     H   14510 14504
 $$$342F       2 00002176 00000001     H   14516 14506B
 $$$343E       2 0000217A 00000001     H   14530 14524
 $$$343F       2 000021AC 00000001     H   14566 14526B
 $$$344F       2 000021CC 00000001     H   14594 14577B
 $$$345B       4 000021D8 00000001     I   14631 14644
 $$$345F       2 000021E4 00000001     H   14641 14631B 14643
 $$$346E       2 000021E8 00000001     H   14651 14645
 $$$346F       2 000021F0 00000001     H   14658 14647B
 $$$347B       4 000021F8 00000001     I   14672 14691
 $$$347F       2 0000220C 00000001     H   14687 14672B 14690
 $$$348B       4 00002214 00000001     I   14709 14733
 $$$348E       2 00002210 00000001     H   14698 14692
 $$$348F       2 00002230 00000001     H   14729 14694B 14709B 14732
 $$$35F        2 00000246 00000001     H    4254  4240B
 $$$350E       2 00002234 00000001     H   14740 14734
 $$$350F       2 00002250 00000001     H   14797 14736B 14751B
 $$$352B       4 00002240 00000001     I   14766 14779
 $$$352F       2 00002248 00000001     H   14776 14766B 14778
 $$$353E       2 0000224C 00000001     H   14786 14780
 $$$353F       2 00002250 00000001     H   14793 14782B
 $$$354F       2 00002666 00000001     H   16184 14810B
 $$$355F       2 0000242C 00000001     H   15468 14830B
 $$$359F       2 000022F4 00000001     H   14992 14981B
 $$$359S       2 000022E0 00000001     H   14976 14991B
 $$$36F        2 00000284 00000001     H    4319  4305B
 $$$362B       4 00002342 00000001     I   15067 15080
 $$$362F       2 0000234A 00000001     H   15077 15067B 15079
 $$$363E       2 0000234E 00000001     H   15087 15081
 $$$363F       2 00002352 00000001     H   15094 15083B
 $$$366F       2 00002392 00000001     H   15306 15291B
 $$$368F       2 000023AE 00000001     H   15357 15342B
 $$$370F       2 000023C6 00000001     H   15394 15379B
 $$$372B       4 00002430 00000001     I   15491 15517
 $$$372F       2 00002450 00000001     H   15513 15491B 15516
 $$$373B       4 00002458 00000001     I   15535 15562
 $$$373E       2 00002454 00000001     H   15524 15518
 $$$373F       2 00002478 00000001     H   15557 15520B 15535B 15561
 $$$375B       4 00002482 00000001     I   15576 15708
 $$$375E       2 0000247C 00000001     H   15569 15563
 $$$375F       2 000024C6 00000001     H   15704 15565B 15576B 15707
 $$$377F       2 000024C0 00000001     H   15699 15639B
 $$$378F       2 000024C0 00000001     H   15695 15657B
 $$$379F       2 000024C0 00000001     H   15691 15675B
 $$$38F        2 00000322 00000001     H    4421  4407B
 $$$380E       2 000024CA 00000001     H   15715 15709
 $$$380F       2 0000250A 00000001     H   15840 15711B
 $$$381F       2 00002504 00000001     H   15835 15775B
1FILEVCAT (FILEVC) (09:45) (22MAR04) Ordinary Symbol and Literal Cross Reference                                            Page  199
 $$$382F       2 00002504 00000001     H   15831 15793B
 $$$383F       2 00002504 00000001     H   15827 15811B
 $$$386F       2 0000254C 00000001     H   15919 15904B
 $$$387F       2 000025B2 00000001     H   16042 16027B
 $$$388B       4 00002672 00000001     I   16202 16214
 $$$388F       2 0000267A 00000001     H   16211 16202B 16213
 $$$389E       2 0000267E 00000001     H   16221 16215
 $$$389F       2 00002682 00000001     H   16227 16217B
 $$$39F        2 00000338 00000001     H    4444  4430B
 $$$390F       2 00002C4A 00000001     H   17575 16252B
 $$$391F       2 000026B2 00000001     H   16301 16267B
 $$$392F       2 000026AE 00000001     H   16296 16282B
 $$$393F       2 000028C4 00000001     H   16903 16318B
 $$$394F       2 000026E6 00000001     H   16359 16335B
 $$$395B       4 00002700 00000001     I   16375 16388
 $$$395F       2 00002708 00000001     H   16385 16375B 16387
 $$$396E       2 0000270C 00000001     H   16395 16389
 $$$396F       2 00002710 00000001     H   16402 16391B
 $$$397B       4 0000273E 00000001     I   16446 16459
 $$$397F       2 00002746 00000001     H   16456 16446B 16458
 $$$398E       2 0000274A 00000001     H   16466 16460
 $$$398F       2 0000274E 00000001     H   16473 16462B
 $$$399F       2 000027D0 00000001     H   16565 16550B
 $$$40F        2 0000035E 00000001     H    4492  4482B
 $$$402F       2 00002818 00000001     H   16653 16638B
 $$$403B       4 00002820 00000001     I   16665 16678
 $$$403F       2 0000282C 00000001     H   16675 16665B 16677
 $$$404E       2 00002830 00000001     H   16685 16679
 $$$404F       2 00002838 00000001     H   16692 16681B
 $$$405B       4 00002840 00000001     I   16713 16779
 $$$405F       2 0000285C 00000001     H   16776 16713B 16778
 $$$406F       2 00002852 00000001     H   16746 16731B
 $$$407F       2 0000285C 00000001     H   16772 16757B
 $$$408E       2 00002860 00000001     H   16786 16780
 $$$408F       2 00002874 00000001     H   16843 16782B
 $$$409F       2 0000286A 00000001     H   16813 16798B
 $$$41B        4 00000362 00000001     I    4512  4564
 $$$41F        2 0000038C 00000001     H    4561  4512B  4563
 $$$410F       2 00002874 00000001     H   16839 16824B
 $$$411B       4 000028D6 00000001     I   16925 16938
 $$$411F       2 000028DE 00000001     H   16935 16925B 16937
 $$$412E       2 000028E2 00000001     H   16945 16939
 $$$412F       2 000028E6 00000001     H   16952 16941B
 $$$413B       4 0000290C 00000001     I   16972 16985
 $$$413F       2 00002914 00000001     H   16982 16972B 16984
 $$$414E       2 00002918 00000001     H   16992 16986
 $$$414F       2 0000291C 00000001     H   16999 16988B
 $$$415B       4 00002948 00000001     I   17022 17123
 $$$415F       2 000029E0 00000001     H   17120 17022B 17122
 $$$416F       2 0000299E 00000001     H   17078 17055B 17067B
 $$$418F       2 000029E0 00000001     H   17116 17093B
 $$$419E       2 000029E4 00000001     H   17130 17124
 $$$419F       2 00002A22 00000001     H   17180 17126B
 $$$42F        2 00000380 00000001     H    4551  4537B
 $$$420F       2 00002A04 00000001     H   17164 17147B
 $$$421B       4 00002A34 00000001     I   17195 17208
 $$$421F       2 00002A3C 00000001     H   17205 17195B 17207
 $$$422E       2 00002A40 00000001     H   17215 17209
 $$$422F       2 00002A44 00000001     H   17222 17211B
1FILEVCAT (FILEVC) (09:45) (22MAR04) Ordinary Symbol and Literal Cross Reference                                            Page  200
 $$$423F       2 00002B1C 00000001     H   17358 17233B
 $$$424F       2 00002A98 00000001     H   17293 17276B
 $$$424T       2 00002A8A 00000001     H   17279 17264B
 $$$426F       2 00002AF4 00000001     H   17341 17321B
 $$$427B       4 00002B28 00000001     I   17372 17385
 $$$427F       2 00002B30 00000001     H   17382 17372B 17384
 $$$428E       2 00002B34 00000001     H   17392 17386
 $$$428F       2 00002B38 00000001     H   17399 17388B
 $$$43E        2 00000390 00000001     H    4571  4565
 $$$43F        2 0000040C 00000001     H    4667  4567B
 $$$430F       2 00002C9A 00000001     H   17633 17610B
 $$$431F       2 00002CBA 00000001     H   17682 17659B
 $$$432F       2 00002CEA 00000001     H   17736 17716B
 $$$433F       2 00002D06 00000001     H   17779 17759B
 $$$434B       1 00002D9E 00000001     X   17909 17919U
 $$$435B       4 00002DB4 00000001     I   17951 17963
 $$$435F       2 00002DBC 00000001     H   17960 17951B 17962
 $$$436E       2 00002DC0 00000001     H   17970 17964
 $$$436F       2 00002DC4 00000001     H   17976 17966B
 $$$437F       2 00002DE0 00000001     H   18007 17995B
 $$$438B       4 00002DE4 00000001     I   18018 18031
 $$$438F       2 00002DEC 00000001     H   18028 18018B 18030
 $$$439E       2 00002DF0 00000001     H   18038 18032
 $$$439F       2 00002DF4 00000001     H   18045 18034B
 $$$44F        2 000003B4 00000001     H    4605  4584B
 $$$440F       2 00003148 00000001     H   18819 18068B
 $$$441B       4 00002E28 00000001     I   18088 18438
 $$$441F       2 00002FA8 00000001     H   18432 18088B 18437
 $$$442B       4 00002E30 00000001     I   18103 18117
 $$$442F       2 00002E3E 00000001     H   18114 18103B 18116
 $$$443E       2 00002E42 00000001     H   18124 18118
 $$$443F       2 00002E4C 00000001     H   18132 18120B
 $$$444F       2 00002E6C 00000001     H   18174 18146B
 $$$447B       4 00002E78 00000001     I   18192 18205
 $$$447F       2 00002E80 00000001     H   18202 18192B 18204
 $$$448E       2 00002E84 00000001     H   18212 18206
 $$$448F       2 00002E88 00000001     H   18219 18208B
 $$$449F       2 00002FA8 00000001     H   18428 18235B
 $$$450F       2 00002EB0 00000001     H   18288 18273B
 $$$451F       2 00002ECC 00000001     H   18319 18302B
 $$$452F       2 00002FA8 00000001     H   18424 18329B
 $$$453F       2 00002F80 00000001     H   18407 18387B
 $$$454E       2 00002FAC 00000001     H   18445 18439
 $$$454F       2 00003148 00000001     H   18815 18441B 18456B
 $$$456B       4 00002FBA 00000001     I   18472 18485
 $$$456F       2 00002FC2 00000001     H   18482 18472B 18484
 $$$457E       2 00002FC6 00000001     H   18492 18486
 $$$457F       2 00002FCA 00000001     H   18499 18488B
 $$$458F       2 00003148 00000001     H   18810 18512B
 $$$459B       4 00002FEA 00000001     I   18531 18629
 $$$459F       2 00003038 00000001     H   18626 18531B 18628
 $$$46F        2 0000042C 00000001     H    4692  4678B
 $$$460B       4 00002FF6 00000001     I   18544 18596
 $$$460F       2 00003014 00000001     H   18593 18544B 18595
 $$$461F       2 00003014 00000001     H   18589 18561B
 $$$463E       2 00003018 00000001     H   18603 18597
 $$$463F       2 0000301E 00000001     H   18615 18599B
 $$$464E       2 0000303C 00000001     H   18636 18630
 $$$464F       2 00003068 00000001     H   18681 18632B
1FILEVCAT (FILEVC) (09:45) (22MAR04) Ordinary Symbol and Literal Cross Reference                                            Page  201
 $$$465F       2 00003068 00000001     H   18677 18662B
 $$$467B       4 00003074 00000001     I   18698 18711
 $$$467F       2 0000307C 00000001     H   18708 18698B 18710
 $$$468E       2 00003080 00000001     H   18718 18712
 $$$468F       2 00003084 00000001     H   18725 18714B
 $$$469F       2 00003116 00000001     H   18790 18767B
 $$$47F        2 00000442 00000001     H    4715  4701B
 $$$470F       2 000034A6 00000001     H   19729 18832B
 $$$471F       2 0000316A 00000001     H   18859 18847B
 $$$472B       4 0000317A 00000001     I   18875 19253
 $$$472F       2 000032F2 00000001     H   19248 18875B 19252
 $$$473B       4 00003188 00000001     I   18892 18905
 $$$473F       2 00003194 00000001     H   18902 18892B 18904
 $$$474E       2 00003198 00000001     H   18912 18906
 $$$474F       2 000031A0 00000001     H   18919 18908B
 $$$475F       2 000031A8 00000001     H   18940 18930B
 $$$476B       4 000031B8 00000001     I   18979 18996
 $$$476F       2 000031C0 00000001     H   18993 18979B 18995
 $$$477E       2 000031C4 00000001     H   19003 18997
 $$$477F       2 000032F2 00000001     H   19244 18999B
 $$$478F       2 00003204 00000001     H   19098 19019B
 $$$479B       4 000031DA 00000001     I   19034 19051
 $$$479F       2 000031E2 00000001     H   19048 19034B 19050
 $$$48F        2 0000046E 00000001     H    4774  4760B
 $$$480E       2 000031E6 00000001     H   19058 19052
 $$$480F       2 00003204 00000001     H   19094 19054B
 $$$481F       2 000031FE 00000001     H   19088 19072B
 $$$482B       4 00003228 00000001     I   19117 19130
 $$$482F       2 00003230 00000001     H   19127 19117B 19129
 $$$483E       2 00003234 00000001     H   19137 19131
 $$$483F       2 00003238 00000001     H   19144 19133B
 $$$484F       2 000032CA 00000001     H   19227 19203B
 $$$485E       2 000032F6 00000001     H   19260 19254
 $$$485F       2 000034A6 00000001     H   19725 19256B 19271B
 $$$487B       4 00003304 00000001     I   19287 19300
 $$$487F       2 0000330C 00000001     H   19297 19287B 19299
 $$$488E       2 00003310 00000001     H   19307 19301
 $$$488F       2 00003314 00000001     H   19314 19303B
 $$$489F       2 000034A6 00000001     H   19721 19327B
 $$$49F        2 0000048C 00000001     H    4799  4785B
 $$$490F       2 000034A6 00000001     H   19717 19346B
 $$$491B       4 0000333C 00000001     I   19361 19374
 $$$491F       2 00003344 00000001     H   19371 19361B 19373
 $$$492E       2 00003348 00000001     H   19381 19375
 $$$492F       2 0000334C 00000001     H   19388 19377B
 $$$493B       4 00003352 00000001     I   19399 19416
 $$$493F       2 0000335A 00000001     H   19413 19399B 19415
 $$$494E       2 0000335E 00000001     H   19423 19417
 $$$494F       2 000033F0 00000001     H   19632 19419B
 $$$495B       4 0000336A 00000001     I   19439 19497
 $$$495F       2 000033A0 00000001     H   19494 19439B 19496
 $$$496B       4 00003374 00000001     I   19451 19468
 $$$496F       2 0000338A 00000001     H   19465 19451B 19467
 $$$497E       2 0000338E 00000001     H   19475 19469
 $$$497F       2 000033A0 00000001     H   19490 19471B
 $$$498E       2 000033A4 00000001     H   19504 19498
 $$$498F       2 000033F0 00000001     H   19628 19500B
 $$$499F       2 000033C6 00000001     H   19547 19517B
 $$$500F       2 000033C6 00000001     H   19543 19529B
1FILEVCAT (FILEVC) (09:45) (22MAR04) Ordinary Symbol and Literal Cross Reference                                            Page  202
 $$$501B       4 000033CA 00000001     I   19555 19572
 $$$501F       2 000033D2 00000001     H   19569 19555B 19571
 $$$502E       2 000033D6 00000001     H   19579 19573
 $$$502F       2 000033DE 00000001     H   19587 19575B
 $$$504F       2 0000347E 00000001     H   19700 19680B
 $$$505B       4 000034B6 00000001     I   19744 19757
 $$$505F       2 000034C2 00000001     H   19754 19744B 19756
 $$$506E       2 000034C6 00000001     H   19764 19758
 $$$506F       2 000034CE 00000001     H   19771 19760B
 $$$507B       4 000034D6 00000001     I   19792 19858
 $$$507F       2 000034F2 00000001     H   19855 19792B 19857
 $$$508F       2 000034E8 00000001     H   19825 19810B
 $$$509F       2 000034F2 00000001     H   19851 19836B
 $$$510E       2 000034F6 00000001     H   19865 19859
 $$$510F       2 0000350A 00000001     H   19922 19861B
 $$$511F       2 00003500 00000001     H   19892 19877B
 $$$512F       2 0000350A 00000001     H   19918 19903B
 $$$513F       2 00003532 00000001     H   19967 19946B
 $$$514F       2 0000354A 00000001     H   19999 19978B
 $$$515F       2 0000355A 00000001     H   20020 20011B
 $$$516B       1 00003576 00000001     X   20076 20086U
 $$$517B       4 0000357A 00000001     I   20098 20110
 $$$517F       2 00003582 00000001     H   20107 20098B 20109
 $$$518E       2 00003586 00000001     H   20117 20111
 $$$518F       2 0000358A 00000001     H   20123 20113B
 $$$519F       2 000035C0 00000001     H   20206 20160B
 $$$519S       2 00003596 00000001     H   20148 20203B
 $$$52B        4 00000560 00000001     I    4961  4977
 $$$52F        2 0000056A 00000001     H    4974  4961B  4976
 $$$521F       2 000035B8 00000001     H   20188 20174B
 $$$524B       4 000035C4 00000001     I   20219 20233
 $$$524F       2 000035D6 00000001     H   20230 20219B 20232
 $$$525E       2 000035DA 00000001     H   20240 20234
 $$$525F       2 000035E0 00000001     H   20253 20236B
 $$$526B       4 000035E4 00000001     I   20264 20300
 $$$526F       2 0000360A 00000001     H   20297 20264B 20299
 $$$527F       2 00003600 00000001     H   20291 20277B
 $$$528E       2 0000360E 00000001     H   20307 20301
 $$$528F       2 00003614 00000001     H   20320 20303B
 $$$529B       1 00003628 00000001     X   20381 20391U
 $$$53E        2 0000056E 00000001     H    4984  4978
 $$$53F        2 0000058A 00000001     H    5009  4980B  4998B
 $$$530F       2 0000375E 00000001     H   20844 20405B
 $$$532F       2 0000365C 00000001     H   20476 20448B
 $$$534B       4 00003666 00000001     I   20500 20541
 $$$534F       2 00003686 00000001     H   20538 20500B 20540
 $$$535E       2 0000368A 00000001     H   20548 20542
 $$$535F       2 0000368E 00000001     H   20561 20544B
 $$$536F       2 000036CE 00000001     H   20629 20619B
 $$$537F       2 000036E0 00000001     H   20661 20652B
 $$$538F       2 000036EC 00000001     H   20684 20674B
 $$$539        6 00003792 00000001     I   20700 20692X
 $$$540        6 00003792 00000001     I   20699 20700  20700
 $$$542F       2 0000371E 00000001     H   20755 20741B
 $$$543F       2 0000375E 00000001     H   20840 20768B 20781B
 $$$545F       2 00003750 00000001     H   20821 20811B
 $$$546B       1 000037A2 00000001     X   20921 20931U
 $$$547F       2 000037E2 00000001     H   20995 20976B
 $$$549F       2 000037F2 00000001     H   21021 21012B
1FILEVCAT (FILEVC) (09:45) (22MAR04) Ordinary Symbol and Literal Cross Reference                                            Page  203
 $$$55F        2 000005B4 00000001     H    5080  5037B  5049B
 $$$550B       1 00003824 00000001     X   21079 21089U
 $$$551F       2 00003836 00000001     H   21114 21104B
 $$$552F       2 00003844 00000001     H   21139 21124B
 $$$553B       4 00003846 00000001     I   21149 21311
 $$$553F       2 000038A8 00000001     H   21308 21149B 21310
 $$$554F       2 00003862 00000001     H   21178 21168B
 $$$555F       2 00003894 00000001     H   21267 21198B
 $$$556F       2 00003890 00000001     H   21262 21214B
 $$$557F       2 00003890 00000001     H   21258 21243B
 $$$557T       2 0000388C 00000001     H   21246 21233B
 $$$559B       4 00003896 00000001     I   21278 21290
 $$$559F       2 0000389C 00000001     H   21287 21278B 21289
 $$$560E       2 000038A0 00000001     H   21297 21291
 $$$560F       2 000038A8 00000001     H   21304 21293B
 $$$561E       2 000038AC 00000001     H   21318 21312
 $$$561F       2 000038EA 00000001     H   21394 21314B
 $$$562F       2 000038C6 00000001     H   21345 21335B
 $$$563F       2 000038E0 00000001     H   21371 21361B
 $$$565B       4 000038EC 00000001     I   21405 21420
 $$$565F       2 000038FA 00000001     H   21417 21405B 21419
 $$$566E       2 000038FE 00000001     H   21427 21421
 $$$566F       2 00003916 00000001     H   21458 21423B
 $$$567F       2 00003916 00000001     H   21454 21445B
 $$$568B       1 00003950 00000001     X   21528 21538U
 $$$569F       2 0000396E 00000001     H   21577 21567B
 $$$569T       2 0000396A 00000001     H   21570 21557B
 $$$57         6 0000088C 00000001     I    5068  5060X
 $$$571F       2 00003984 00000001     H   21613 21603B
 $$$571T       2 00003980 00000001     H   21606 21594B
 $$$573F       2 0000399A 00000001     H   21638 21628B
 $$$574F       2 000039B2 00000001     H   21677 21658B
 $$$576F       2 000039C2 00000001     H   21705 21695B
 $$$577F       2 000039D8 00000001     H   21749 21718B
 $$$578F       2 000039D8 00000001     H   21745 21735B
 $$$579F       2 000039E8 00000001     H   21773 21764B
 $$$58         6 0000088C 00000001     I    5067  5068   5068
 $$$580F       2 00003A24 00000001     H   21829 21793B
 $$$581F       2 00003A16 00000001     H   21821 21812B
 $$$582F       2 00003A56 00000001     H   21882 21846B
 $$$583F       2 00003A48 00000001     H   21874 21865B
 $$$584B       1 00003AAE 00000001     X   21970 21980U
 $$$585F       2 00003AC4 00000001     H   22010 21995B
 $$$586F       2 00003AD8 00000001     H   22038 22022B
 $$$587B       4 00003AE2 00000001     I   22054 22184
 $$$587F       2 00003B2C 00000001     H   22181 22054B 22183
 $$$588B       4 00003AF0 00000001     I   22078 22157
 $$$588F       2 00003B24 00000001     H   22154 22078B 22156
 $$$589E       2 00003B28 00000001     H   22164 22158
 $$$589F       2 00003B2C 00000001     H   22177 22160B
 $$$59F        2 00000616 00000001     H    5235  5166B
 $$$590E       2 00003B30 00000001     H   22191 22185
 $$$590F       2 00003B34 00000001     H   22207 22187B
 $$$591B       1 00003B56 00000001     X   22246 22256U
 $$$592F       2 00003B7E 00000001     H   22287 22269B
 $$$594F       2 00003BBC 00000001     H   22335 22321B
 $$$595B       4 00003C02 00000001     I   22376 22393
 $$$595F       2 00003C14 00000001     H   22390 22376B 22392
 $$$596E       2 00003C18 00000001     H   22400 22394
1FILEVCAT (FILEVC) (09:45) (22MAR04) Ordinary Symbol and Literal Cross Reference                                            Page  204
 $$$596F       2 00003DB8 00000001     H   22986 22396B
 $$$597F       2 00003CD6 00000001     H   22674 22411B
 $$$598F       2 00003CD6 00000001     H   22670 22436B
 $$$599F       2 00003C4C 00000001     H   22478 22451B
 $$$60F        2 00000616 00000001     H    5231  5186B
 $$$601F       2 00003C94 00000001     H   22574 22560B
 $$$602B       4 00003CA0 00000001     I   22619 22632
 $$$602F       2 00003CA8 00000001     H   22629 22619B 22631
 $$$603E       2 00003CAC 00000001     H   22639 22633
 $$$603F       2 00003CB0 00000001     H   22646 22635B
 $$$604F       2 00003D88 00000001     H   22908 22698B
 $$$605F       2 00003D22 00000001     H   22762 22738B 22752B
 $$$608F       2 00003DB8 00000001     H   22982 22930B
 $$$609B       4 00003DC0 00000001     I   23001 23018
 $$$609F       2 00003DD2 00000001     H   23015 23001B 23017
 $$$61F        2 00000612 00000001     H    5214  5204B
 $$$610E       2 00003DD6 00000001     H   23025 23019
 $$$610F       2 00003E98 00000001     H   23309 23021B
 $$$611F       2 00003E02 00000001     H   23094 23048B
 $$$612F       2 00003E42 00000001     H   23190 23116B
 $$$614F       2 00003E98 00000001     H   23305 23200B
 $$$615F       2 00003E98 00000001     H   23301 23225B
 $$$617F       2 00003EFA 00000001     H   23395 23382B
 $$$618F       2 00003F7C 00000001     H   23557 23430B
 $$$619F       2 00003F48 00000001     H   23480 23445B
 $$$62F        2 00000626 00000001     H    5254  5244B
 $$$620F       2 00003F7C 00000001     H   23553 23518B
 $$$621B       4 00003F9A 00000001     I   23585 23677
 $$$621F       2 00003FE0 00000001     H   23674 23585B 23676
 $$$622E       2 00003FE4 00000001     H   23684 23678
 $$$622F       2 00003FEE 00000001     H   23717 23680B
 $$$623B       4 0000400C 00000001     I   23744 23844
 $$$623F       2 0000405A 00000001     H   23841 23744B 23843
 $$$624E       2 0000405E 00000001     H   23851 23845
 $$$624F       2 00004068 00000001     H   23883 23847B
 $$$625F       2 000040C6 00000001     H   24026 23900B
 $$$626F       2 000040C6 00000001     H   24022 23925B
 $$$628F       2 000040C6 00000001     H   24018 23998B
 $$$629F       2 00004184 00000001     H   24299 24036B
 $$$630F       2 00004184 00000001     H   24295 24061B
 $$$631F       2 000040FA 00000001     H   24103 24076B
 $$$633F       2 00004142 00000001     H   24199 24185B
 $$$634B       4 0000414E 00000001     I   24244 24257
 $$$634F       2 00004156 00000001     H   24254 24244B 24256
 $$$635E       2 0000415A 00000001     H   24264 24258
 $$$635F       2 0000415E 00000001     H   24271 24260B
 $$$636F       2 000041F0 00000001     H   24467 24323B
 $$$637B       4 000041BA 00000001     I   24389 24402
 $$$637F       2 000041C2 00000001     H   24399 24389B 24401
 $$$638E       2 000041C6 00000001     H   24409 24403
 $$$638F       2 000041CA 00000001     H   24416 24405B
 $$$640F       2 000042B2 00000001     H   24744 24481B
 $$$641F       2 000042B2 00000001     H   24740 24506B
 $$$642F       2 00004228 00000001     H   24548 24521B
 $$$644F       2 00004270 00000001     H   24644 24630B
 $$$645B       4 0000427C 00000001     I   24689 24702
 $$$645F       2 00004284 00000001     H   24699 24689B 24701
 $$$646E       2 00004288 00000001     H   24709 24703
 $$$646F       2 0000428C 00000001     H   24716 24705B
1FILEVCAT (FILEVC) (09:45) (22MAR04) Ordinary Symbol and Literal Cross Reference                                            Page  205
 $$$647F       2 00004330 00000001     H   24923 24768B
 $$$648B       4 000042FA 00000001     I   24845 24858
 $$$648F       2 00004302 00000001     H   24855 24845B 24857
 $$$649E       2 00004306 00000001     H   24865 24859
 $$$649F       2 0000430A 00000001     H   24872 24861B
 $$$65F        2 00000652 00000001     H    5348  5338B
 $$$651B       4 0000433A 00000001     I   24937 25192
 $$$651F       2 000043EC 00000001     H   25188 24937B 25191
 $$$652F       2 0000439C 00000001     H   25067 24964B
 $$$654F       2 000043EC 00000001     H   25184 25090B
 $$$656E       2 000043F0 00000001     H   25199 25193
 $$$656F       2 00004450 00000001     H   25335 25195B
 $$$657F       2 00004450 00000001     H   25331 25223B
 $$$659F       2 000044A0 00000001     H   25449 25345B
 $$$66F        2 00000670 00000001     H    5385  5375B
 $$$660F       2 000044A0 00000001     H   25445 25370B
 $$$662F       2 000044E0 00000001     H   25514 25500B
 $$$663B       4 000044F0 00000001     I   25531 25545
 $$$663F       2 00004502 00000001     H   25542 25531B 25544
 $$$664E       2 00004506 00000001     H   25552 25546
 $$$664F       2 00004522 00000001     H   25562 25548B
 $$$665F       2 0000455A 00000001     H   25623 25609B
 $$$666F       2 000045BA 00000001     H   25711 25642B
 $$$667F       2 000045A8 00000001     H   25704 25678B
 $$$669F       2 00004636 00000001     H   25924 25737B
 $$$69F        2 0000069C 00000001     H    5465  5455B
 $$$70F        2 000006C0 00000001     H    5521  5492B
 $$$74F        2 00000718 00000001     H    5657  5637B
 $$$75F        2 0000076E 00000001     H    5722  5698B
 $$$77F        2 0000078A 00000001     H    5755  5745B
 $$$80F        2 00000808 00000001     H    5846  5831B
 $$$82F        2 000008BE 00000001     H    5987  5972B
 $$$82S        2 000008AC 00000001     H    5951  5984B
 $$$86F        2 000008E2 00000001     H    6055  6040B
 $$$87B        4 000008EC 00000001     I    6074  6095
 $$$87F        2 00000908 00000001     H    6092  6074B  6094
 $$$88E        2 0000090C 00000001     H    6102  6096
 $$$88F        2 00000952 00000001     H    6172  6098B
 $$$89F        2 00000936 00000001     H    6129  6115B
 $$$90F        2 00000964 00000001     H    6192  6182B
 $$$91F        2 00000994 00000001     H    6275  6234B  6249B
 $$$94F        2 000009A0 00000001     H    6301  6286B
 $$$96B        4 000009B6 00000001     I    6350  6362
 $$$96F        2 000009C0 00000001     H    6359  6350B  6361
 $$$97E        2 000009C4 00000001     H    6369  6363
 $$$97F        2 000009E6 00000001     H    6429  6365B
 $$$98         6 00000BCC 00000001     I    6390  6382X
 $$$99         6 00000BCC 00000001     I    6389  6390   6390
 @CNT          0 00000000 FFFFFFF0     @    1261  9062   9759
 @IX           0 00000000 FFFFFFFD     @    1222  5956  12182M 12720  12860  13005  20157  20699M
 @NOD          0 00000000 FFFFFFFB     @    1235  7348  25813
 @PTR          0 00000000 FFFFFFEF     @    1274 12182  15134  15240  15985M 16432  16503  16958  17005  17404M 18354M
                                                 18357M 18737M 18740M 19173M 19176M 19650M 19653M 20699
 @QR           0 00000000 FFFFFFFA     @    1068  7337M 10603  10691  25802M
 @R0           0 00000000 FFFFFFFE     @     723   999U
 @R1           0 00000000 FFFFFFFD     @     736   995U  5905U  7320U  7388U  8337U  8576U  8624U  8679U  8867U  9121U
                                                  9564U  9889U 10634U 10698U 14601U 14999U 15053U 15165U 15197U 15271U
                                                 15623U 15759U 16009U 17581U 20038U 20535U 21463  22141U 22856U 24377U
                                                 24833U 25144U 25785U 25853U
1FILEVCAT (FILEVC) (09:45) (22MAR04) Ordinary Symbol and Literal Cross Reference                                            Page  206
 @R10          0 00000000 FFFFFFF4     @     853   959U
 @R11          0 00000000 FFFFFFF3     @     866   955U
 @R12          0 00000000 FFFFFFF2     @     879   951U
 @R13          0 00000000 FFFFFFF1     @     892   947U
 @R14          0 00000000 FFFFFFF0     @     905   943U  3962   4110M  4111M  4119   4125M  4130   4406   4677   4802M
                                                  4803M  4804   4879M  7355U  7420U  7687U  7863U  8168U  8532U  9061U
                                                  9758U 21939U 25820U 25885U
 @R15          0 00000000 FFFFFFEF     @     918   939U  7228U  7428U  7436U  8825U  9147U 10673U 10815U 10846U 12071U
                                                 13409U 14366U 15959U 15983U 16430U 16501U 18264U 18965U 19171U 20588U
                                                 20637U 20829U 22308U 22817U 23712U 23878U 24352U 24802U 25027U 25119U
                                                 25256U 25282U 25487U 25596U 25893U 25901U
 @R2           0 00000000 FFFFFFFC     @     749   991U
 @R3           0 00000000 FFFFFFFB     @     762   987U  5075M  5076M  5898U  6167U  6311U  6580U  7950U  8330U  8549U
                                                  8599U  8842U  9010U  9341U  9587U  9929U 10241U 10319U 10375U 10395U
                                                 10411U 10451U 10477U 10646U 10993U 11035U 11548U 11597U 11612U 11819U
                                                 11845U 11960U 12311U 12544U 13250U 13459U 15598U 15734U 17843U 19600U
                                                 19620U 20045U 20136U 20331U 20347U 21925U 22501U 22581U 22607U 22831U
                                                 22965U 23077U 23172U 23282U 23981U 24126U 24206U 24232U 24571U 24651U
                                                 24677U 24997U 25426U
 @R4           0 00000000 FFFFFFFA     @     775   983U  3786M  3851   3878M  3883M  4078M  4083   4255M  4256   4320M
                                                  4321   4355M  4356M  4577   4589M  4775   4989   5024   5025   5067M
                                                  5067   5912U  6377U  6414U  6549U  6675U  7347U  7380U  7607U  7786U
                                                  7941U  8278U  9857U 10602U 11235U 15117U 15141U 15223U 15247U 20484U
                                                 21932U 22262  22274  22275M 22282M 22282  25812U 25845U
 @R5           0 00000000 FFFFFFF9     @     788   979U
 @R6           0 00000000 FFFFFFF8     @     801   975U  7509U  8048U  8395U  8750U  9369U  9709U 10199U 11341U 12616U
                                                 13655U 14075U 17916U 20083U 20388U 20928U 21086U 21535U 21977U 22253U
 @R7           0 00000000 FFFFFFF7     @     814   971U
 @R8           0 00000000 FFFFFFF6     @     827   967U
 @R9           0 00000000 FFFFFFF5     @     840   963U
 ACCMODE       1 00000000 00000001 A   U    2015  6895   7536   7702  11213  25538
 BL            2 00000002 FFFFFFEC A   N    2103  2105   2105   2390   2425   2426   2428   2429   2430   2529   2539
                                                  2549   2559   2570   2580   2590   2600   2610   2620   2630   2670
                                                  2671   2672   2689   2691   2693   2699   2701   2703   2709   2711
                                                  2712   2714   2716   2722   2724   2725   2727   2729   2731   2736
                                                  2738   2739   2741   2743   2745   2752   2755   2756   2757   2759
                                                  2760   2763   2765   2766   2774   2777   2778   2779   2781   2782
                                                  2785   2787   2788   2791   2793   2800   2803   2804   2805   2807
                                                  2808   2811   2813   2814   2817   2819   2820   2822   2836   2853
                                                  2856   3284   3286   3295  12796  13505
 BR            7 00000007 00000001 A   #    1100  3658   5087   5090M  5095   5098M  5099   5100M  6852M
 BSTLOOK       2 00003868 00000001     I   21184 21263B
 CATCONT       2 00000B70 00000001     I    6858  3718
 CATDEL        2 0000068C 00000001     H    5444  3710
 CATERROR      2 00000B1A 00000001     H    6766  5210B  5250B  5267B  5289B  5344B  5381B  5398B  5420B  5461B  5509B
                                                  5527B  5751B  6266B  6524B  6650B  6968B  6995B  7032B  7088B  7105B
                                                  7250B  7289B  7450B 25695B 25754B 25915B
 CATINS        2 00000642 00000001     H    5324  3708
 CATINVAL      4 00000054 00000001     I    3727  3701B
 CATLHERE      2 000006C8 00000001     H    5589  7554B  7750B  8079B
 CATLIS        2 00000F48 00000001     H    8035  3712
 CATLNEXT      2 00000724 00000001     H    5672  7888B  7944B  8293B
 CATLOOK       2 000005E8 00000001     H    5146  3706
 CATLPOP       2 000007DA 00000001     H    5810  5602B  5712B  5885B
 CATLPUSH      2 0000076E 00000001     H    5724  5807B
 CATLTHIS      4 000006DE 00000001     I    5608  5718B  5801B  5891B
 CATNAME       2 00000892 00000001     H    5939  5149B  5350B  5467B  6974B  7010B  8054B
 CATNMR        2 00003AA0 00000001     H   21961  6902
 CATRDERR      4 00000B80 00000001     I    6872  3939B  4387B  4652B
1FILEVCAT (FILEVC) (09:45) (22MAR04) Ordinary Symbol and Literal Cross Reference                                            Page  207
 CATREC        2 00003B54 00000001     H   22240  3720
 CATRENAM      2 00000BD2 00000001     H    6934  3714
 CATSEQ        2 00000D8C 00000001     H    7496  3716
 CATSNONT      6 00000AC0 00000001     I    6677  6188B
 CATSRCH       2 000008CA 00000001     H    6014  5237B  5368B  5485B  7019B  7075B  7276B  7538B  7734B  8063B 11263B
                                                 25730B 25973
 CATSRET       2 00000A86 00000001     H    6609  6606B
 CATTABL       2 00000044 00000001     H    3705  3702
 CATWRERR      2 00000B8E 00000001     H    6877  4185B  4838B  4909B
 CCHKBDEL      1 0000001C FFFFFFEA A   U    2735 17437
 CCHKBINS      1 00000018 FFFFFFEA A   U    2721 16050
 CCHKDBAL      1 00000004 FFFFFFEA A   U    2835 10543  11190  25972
 CCHKNBAL      1 00000014 FFFFFFEA A   U    2708 17589
 CCHKNTDL      1 00000028 FFFFFFEA A   U    2799 10290  10925  25961
 CCHKNTIN      1 00000024 FFFFFFEA A   U    2773  9999
 CCHKNTRY      1 00000020 FFFFFFEA A   U    2751 11503  11704
 CCHKREN       1 00000004 FFFFFFEA A   U    2851  7121  21994  25974
 CCHKRTCL      1 00000010 FFFFFFEA A   U    2698 16844
 CCHKRTDL      1 00000008 FFFFFFEA A   U    2683 10799  10919
 CCHKRTIN      1 00000004 FFFFFFEA A   U    2678  9405   9993
 CCHKRTSP      1 0000000C FFFFFFEA A   U    2688 15403
 CCHKSTK       1 00000007 FFFFFFEA A   U    2421  2893   5930   6900
 CDIRDFM       1 00000300 00000001 A   U    2023 14015
 CDIRDGM       1 00000200 00000001 A   U    2022 14009  25967
 CDSKADER      1 00000008 FFFFFFE8 A   U    3019 21913
 CDSKHSIZ      1 00000010 FFFFFFE8 A   U    3069  3071  20946  20955
 CDSKINER      1 00000008 FFFFFFE8 A   U    3017 21109
 CDSKLLIM      8 00000008 FFFFFFE8 A   N    3012 21945  21946
 CDSKLNER      1 00000004 FFFFFFE8 A   U    3018 21909
 CDSKNIL       1 FFFFFFFF FFFFFFE8 A   U    3015 21944
 CDSKOVER      1 0000000C FFFFFFE8 A   U    3020 21917
 CDSKSERR      1 00000004 FFFFFFE8 A   U    3016 14008  21173  21299  21340  21366  25966
 CFSBBL        1 00000004 FFFFFFEC A   U    2218  3786M  3878M  4078M  4083   4255M  4256   4320M  4321   4355   4356M
                                                  4775   5024   5075M 22274  22275M 22281
 CFSBFLSZ      1 00000028 FFFFFFEC A   U    2096  2954   2955
 CFSBMXNT      1 00000129 FFFFFFEC A   U    2101  2886   3278   3278   7626   7802   8455   9648   9652
 CFSBNDOT      1 00000026 FFFFFFEC A   U    2097  2658   2661   2840   2874   2877
 CFSBNMSZ      1 00000021 FFFFFFEC A   U    2098  3280   5943
 CFSBPL        8 00000008 FFFFFFEC A   N    2219  3848   3851   4352   4574   4577   4986   5067  22259  22262
 CHKACCA       4 00000058 FFFFFFEA     A    2599  6142M  6744M  7059M  7610M  9492M  9541  11004M 11250M
 CHKACCB       2 0000005C FFFFFFEA     R    2600  6114   6134   6745M  7051   7122   7597M  9487   9500  10028  10544
                                                 10804  10999  11242  25556M 25630M
 CHKACCN       2 0000005E FFFFFFEA     R    2601  6143   7600M  9540  11012
 CHKACCP       8 00000058 FFFFFFEA     R    2603  6727M  9630M
 CHKACSP       2 00000604 FFFFFFEA     H    2890  6104   6728M  6746M  7123   7609M  9631M 25557M 25631M
 CHKANCH       4 00000010 FFFFFFEA     R    2431  8423   9599
 CHKAPNT      88 00000020 FFFFFFEA     R    2635  6086M  6087   6087M  6087  22343M 22344  22344M 22344
 CHKAVCOR      4 00003B62 00000001     I   22262 22288B
 CHKBALB       2 00000064 FFFFFFEA     R    2610 14119M 15575
 CHKBCAD       4 00000088 FFFFFFEA     A    2640 16476M 16505  17079M 17098  17244M 17326  18342M 18621M 18644M 18644
                                                 18772  19147M 19181  19213M 19588M 19648  19685
 CHKBCLN       2 000000A4 FFFFFFEA     Y    2649 16477M 16506  16954M 17081M 17092M 17092  17099  17245M 17320M 17320
                                                 17327  18056M 18349M 18349  18622M 18651M 18651  18766M 18766  18773
                                                 19486M 19486  19589M 19649  19679M 19679  19686
 CHKBDAD       4 00000080 FFFFFFEA     A    2638 11418M 11460  12027  12237  15009M 15992M 16507M 16520M 17027M 17100
                                                 17102M 17166M 17299M 17344M 18365M 18410M 18745M 18776M 18796M 19181M
                                                 19210  19212M 19230M 19658M 19703M 20593  20747
 CHKBDEL       2 00003FF2 00000001     H   23721 22353B
 CHKBDLN       2 000000A0 FFFFFFEA     Y    2647 11419M 11454M 11454  11967
1FILEVCAT (FILEVC) (09:45) (22MAR04) Ordinary Symbol and Literal Cross Reference                                            Page  208
 CHKBINS       2 00003F80 00000001     H   23562 22352B
 CHKBLAD       4 00000084 FFFFFFEA     A    2639 16405M 16518  17002M 17027  18338M 18352  18392  18728M 18736  18745
                                                 18774
 CHKBLLN       2 000000A2 FFFFFFEA     Y    2648 16406M 16519  18339M 18353  18386M 18386  18393
 CHKBLPA       4 00000090 FFFFFFEA     A    2642 14244M 14276M 14368M 14431  16361M 16520  17004  17007  17181  18350
                                                 18360  18410  18734  18743  18796  18852  20224M
 CHKBLPL       2 000000A8 FFFFFFEA     Y    2651 16362M 17008  17021  17101  17146  17978  18266  18361  18501  18744
                                                 18775  20225M 20249M 20249
 CHKBNPA       4 00000098 FFFFFFEA     A    2644 17240M 17342  18335M 18356  18408  18616M 18653M 18739  19099M 19175
                                                 19478M 19590M 19652  19701
 CHKBNPL       2 000000AC FFFFFFEA     Y    2653 17241M 17343  18336M 18409  18617M 18654M 18795  19100M 19229  19479M
                                                 19609M 19702
 CHKBRAD       4 0000008C FFFFFFEA     A    2641 17295M 17299  19102M 19208  19228  19640M 19658
 CHKBRLN       2 000000A6 FFFFFFEA     Y    2650 19104M 19202M 19202  19209
 CHKBRPA       4 00000094 FFFFFFEA     A    2643 15992  16957  17181M 17297  17344  17403  18854M 19148  19179  19230
                                                 19646  19656  19703  20292M
 CHKBRPL       2 000000AA FFFFFFEA     Y    2652 17248  17298  17979  18855M 18978  19005  19180  19211  19316  19657
                                                 20293M 20316M 20316
 CHKBSAD       4 0000007C FFFFFFEA     A    2637 11416M 11937  12240  15002M 15990M 16505M 16518M 17007M 17098M 17297M
                                                 17326M 17342M 18360M 18392M 18408M 18743M 18772M 18794M 19179M 19208M
                                                 19228M 19656M 19685M 19701M 20418  20590  20748  20786  20835
 CHKBSLN       2 0000009C FFFFFFEA     Y    2645 11417M 11682  11887  11931M 11931  11968  12231M 12231  12241  12680
                                                 12820  12965  15005M 15991M 16506M 16519M 17008M 17099M 17298M 17327M
                                                 17343M 18361M 18393M 18409M 18744M 18773M 18795M 19180M 19209M 19229M
                                                 19657M 19686M 19702M 20404M 20404  20433  20490  20525  20577  20591
                                                 20740M 20740  20749  20780M 20780  20787  22494M 22649  24119M 24274
                                                 24564M 24719
 CHKBSN        2 0000009E FFFFFFEA     Y    2646 20477M 20528  20580
 CHKCHAIN      6 0000000E FFFFFFEA     R    2432  9407  10292  10801  11505  11706  14080  22027M 23230M 23705M 23871M
 CHKCHKA       4 00000078 FFFFFFEA     A    2636 22295M 23690  23856  25454
 CHKCLR1       2 000044A4 00000001     H   25453 22987B 23310B 23396B 23559B 23718B 23884B 24468B 24924B 25450B
 CHKCLR2       2 00004530 00000001     H   25577 25573B
 CHKCORFN      4 00003B90 00000001     I   22295 22283B
 CHKCURA       4 00000030 FFFFFFEA     A    2548  6205M  6595M  6677   7552   7748   8077   9193   9451M  9525M  9979
                                                 10905  10942  10967  14292M 14620  14937M 15200  15367  15503  15547
                                                 15873M 15936  16016  16191  16435  16511  16596  16607  16914  17042
                                                 17106  17133  17172  17184  17331  17348  17407  17418  17442  17467
                                                 18054  18241  18341  18363  18371  18399  18520  18780  18792  18800
                                                 18942  19106  19187  19219  19335  19690  19707  19924  22689M 22712
                                                 23371M 24314M 24759M 24955M 25081M 25214M
 CHKCURB       2 00000034 FFFFFFEA     R    2549  6088M  6160M  6175   6197   6538   6552M  6553   6587   6664   6678
                                                  7124   9191   9452M  9466   9526M  9557   9571   9977  10268  10903
                                                 11110  14109  14119  14202  14275M 14287  14847  14938M 15264  15407
                                                 15444  15502  15546  15656  15792  15874M 15986  16056  16085  16144
                                                 16848  16883  17441  17461  17491  17539  17597  17638  17741  17809
                                                 19177  19654  20119  22676M 22681  22708  22897  23355M 23360  24301M
                                                 24306  24456  24746M 24751  24912  24942M 25068M 25073  25201M 25206
 CHKCURN       2 00000036 FFFFFFEA     R    2550  6206   6541   6596   6667   7551   7747   8076   9453M  9455   9527M
                                                  9529   9572   9900  10738  10941  10960  14120  14299  14619  14939M
                                                 15199  15366  15875M 15935  16015  16190  16434  16510  16595  16600
                                                 16913  17041  17105  17132  17171  17183  17330  17347  17406  17411
                                                 17466  17817  18053  18240  18340  18362  18370  18398  18519  18779
                                                 18791  18799  18941  19105  19186  19218  19334  19689  19706  19923
 CHKCURP       8 00000030 FFFFFFEA     R    2552  6551   8871   9151   9941  10704  10850  14272  14459  14460M 14858
                                                 15700  15836  16340  16347M 17444M 17796M 22874  24433  24889  25033
                                                 25150  25297
 CHKDBAL       2 000044EC 00000001     H   25520 25517B
 CHKDSTK       8 00000000 FFFFFFEB     J    2409  5585U  5612   5678   5757   5784   5850   5871   5932   6493U  6530
                                                  6619U  6656   6904   7590U  7773U  7907   7917U  8350
1FILEVCAT (FILEVC) (09:45) (22MAR04) Ordinary Symbol and Literal Cross Reference                                            Page  209
 CHKDWRT       2 00000008 FFFFFFEA     R    2425  4629   4816
 CHKFACC     128 0000001C FFFFFFEA         2444  6026   6026   6027M  6051M  6073   6349   6707   7903M  8122   8650
                                                  8924   9028   9421   9624   9725   9828  10022  10213  10573  11205
                                                 11628  11856  11978  12251  12347  12690  12830  12975  13295  13420
                                                 14630  14765  15066  16201  16374  16445  16664  16924  16971  17194
                                                 17371  17950  18017  18102  18191  18471  18697  18891  19116  19286
                                                 19360  19743  22618  24243  24388  24688  24844  25530
 CHKFBAL     128 0000001D FFFFFFEA         2488 14103  14103  14104M 17928M 18283M 18312M 18610M 18672M 18989M 19044M
                                                 19083M 19409M 19565M 20010
 CHKFBNO       2 0000000E FFFFFFEA     R    2428  2432   2432  13549  13551M 13736  13737M 13857  13858M 22053  22077
 CHKFDEL       8 0000001C FFFFFFEA         2464  5225   5225   5226   5226   5482   5482   7070   7070   7071   7071
                                                 25641  25666  25666
 CHKFDLXT     16 0000001D FFFFFFEA         2503 11353  11353  11354M 11383M 11441
 CHKFDSRC     32 0000001D FFFFFFEA         2498 20510M 20557M 20767
 CHKFINS      16 0000001C FFFFFFEA         2459  5224   5224   5226   5226   5365   5365   7272   7272  25726  25726
 CHKFINXT      8 0000001D FFFFFFEA         2508 11353  11353  11409M 11668  11918
 CHKFLEAF      4 0000001C FFFFFFEA         2469  6026   6026   6297M  6473   9403M 10284  14091  14091  14092  14092
                                                 14094M 15302M 15341  15378  15915M 16026  16539M 16561M 16637  17825M
 CHKFLFTU      2 0000001C FFFFFFEA         2474 14091  14091  14093  14093  14496M 14562M 14576  14906M 15534  15553M
                                                 16334  16346M 17609  17715  18067  18846  19977  20097  20218  23444
 CHKFLG        1 0000001C FFFFFFEA     R    2440  2444   2449   2454   2459   2464   2469   2474   2479   9406  10291
                                                 10545  10800  11504  11705  15404  16051  16845  17438  17590
 CHKFLGS       2 0000001C FFFFFFEA     R    2521  5156M  5156   5357M  5357   5474M  5474   7017M  7017   7046M  7046
                                                  7264M  7264   7535M  7535   7731M  7731   8061M  8061  25658M 25658
                                                 25718M 25718
 CHKFLG2       1 0000001D FFFFFFEA     R    2484  2488   2493   2498   2503   2508   2513   2518
 CHKFMOD      64 0000001C FFFFFFEA         2449  5224   5224   5225   5225   5227M  5365   5365   5366M  5482   5482
                                                  5483M  6233   7069   7069   7070   7070   7072M  7272   7272   7273M
                                                  8410   8983  11261M 25568M 25666  25666  25667M 25726  25726  25727M
 CHKFNAME     38 000000C5 FFFFFFEA     C    2658  2659   2659   5941M  5942M  5943M  5945   5946   5946   5990   6355
                                                  6389   7006   7008   7037   7039   7256   7521M  7521   7717M  7717
                                                  8159   8160   9834   9871  10595  11212M 11237  11237M 25537M 25555
                                                 25555M 25650  25650M 25705  25707
 CHKFNMSZ      1 000000C4 FFFFFFEA     X    2657  2659   2659   5992M  6413   7006M  7007   7008M  7037M  7038   7039M
                                                  7230   7256M  7379   7435   7528M  7724M  9757   9856  11211M 11236M
                                                 25536M 25554M 25649M 25705M 25706  25707M 25844  25900
 CHKFPER      32 0000001C FFFFFFEA         2454  5176M  7069   7069   7071   7071   8469   8795
 CHKFREB       2 00000010 FFFFFFEA     R    2429  2431   2431  13505  13521  13530  13531M 13730  13731M 13851  13852M
                                                 23330  23331M 23348  23349M
 CHKFRHTU      1 0000001C FFFFFFEA         2479 14092  14092  14093  14093  14306M 14398M 14412  15490  15509M 16355M
                                                 17261  17451M 17658  17758  18831  19945  20263  23517
 CHKFRNAM     38 000000EC FFFFFFEA     C    2661  2662   2662   7007   7038   7257  25706
 CHKFRNMS      1 000000EB FFFFFFEA     X    2660  2662   2662   7006   7007M  7008   7037   7038M  7039   7231   7257M
                                                  7427  25705  25706M 25707  25892
 CHKFXTAV      4 0000001D FFFFFFEA         2513 11361M 11517M 11722
 CHKF3BAL     64 0000001D FFFFFFEA         2493 14103  14103  14180M 14266  14453
 CHKIBDCB      2 00000124 FFFFFFEA     R    2741 17461M 23780  23795
 CHKIBDLB      2 00000120 FFFFFFEA     R    2739 17460M 23753  23768
 CHKIBDOB      2 00000128 FFFFFFEA     R    2743 17441M 17551  23810  23830
 CHKIBDOC      2 0000012C FFFFFFEA     X    2745 17443M
 CHKIBDPB      2 0000011A FFFFFFEA     R    2736 17457M 23722
 CHKIBDPC      2 0000011E FFFFFFEA     X    2738 17459M 23743
 CHKIBICB      2 00000124 FFFFFFEA     R    2727 16056M 23621  23636
 CHKIBILB      2 00000120 FFFFFFEA     R    2725 16055M 23594  23609
 CHKIBIPB      2 0000011A FFFFFFEA     R    2722 16052M 23563
 CHKIBIPC      2 0000011E FFFFFFEA     X    2724 16054M 23584
 CHKIBIRB      2 00000128 FFFFFFEA     R    2729 16057M 23648  23663
 CHKIBIRC      2 0000012C FFFFFFEA     X    2731 16059M
 CHKICHAN      6 00000114 FFFFFFEA     R    2673  9407M 10292M 10801M 11505M 11706M 14080M 22027  23230  23705  23871
1FILEVCAT (FILEVC) (09:45) (22MAR04) Ordinary Symbol and Literal Cross Reference                                            Page  210
 CHKIDBAB      2 00000156 FFFFFFEA     R    2836 10544M 25556
 CHKIDBAS      2 0000015A FFFFFFEA     H    2838 25557
 CHKIDBNM     38 0000015D FFFFFFEA     C    2840 10546M 10547  10547M 10547  10579M 10595M 10616M 11212  11237  25537
                                                 25555
 CHKIDBSZ      1 0000015C FFFFFFEA     X    2839 10604M 11234  25554
 CHKIERAB      2 00000196 FFFFFFEA     R    2853  7122M 25630
 CHKIERAS      2 0000019A FFFFFFEA     H    2855  7123M 25631
 CHKIERCB      2 0000019C FFFFFFEA     R    2856  7124M
 CHKIERCN      2 0000019E FFFFFFEA     R    2857  7133
 CHKIERCT      2 000001A0 FFFFFFEA     R    2858  7125M
 CHKIERFL      1 000001A2 FFFFFFEA     R    2861  2865   2870   7132M
 CHKIERNN     38 000001CB FFFFFFEA     C    2877  2878   2878   7231
 CHKIERNS      1 000001CA FFFFFFEA     X    2876  2878   2878   7231M  7256
 CHKIERON     38 000001A4 FFFFFFEA     C    2874  2875   2875   7230  25650
 CHKIEROS      1 000001A3 FFFFFFEA     X    2873  2875   2875   7230M  7257  25649
 CHKIFBNO      2 00000114 FFFFFFEA     R    2670  2673   2673
 CHKIFLG       1 00000113 FFFFFFEA     X    2669  9406M 10291M 10800M 11504M 11705M 15404M 16051M 16845M 17438M 17590M
                                                 22375  23000
 CHKIFREB      2 00000116 FFFFFFEA     R    2671 23825
 CHKINBCB      2 00000124 FFFFFFEA     R    2714 17597M 23485  23500
 CHKINBLB      2 00000120 FFFFFFEA     R    2712 17596M 23454  23469
 CHKINBPB      2 0000011A FFFFFFEA     R    2709 17593M 23408
 CHKINBPC      2 0000011E FFFFFFEA     X    2711 17595M 23429
 CHKINBRB      2 00000128 FFFFFFEA     R    2716 17598M 23527  23542
 CHKINDAB      2 00000138 FFFFFFEA     R    2817 10804M 11046  11062  23032  23083
 CHKINDAC      2 0000013C FFFFFFEA     X    2819 11005M 23047
 CHKINDAN      2 0000013A FFFFFFEA     R    2818 23053
 CHKINDCB      2 0000011A FFFFFFEA     R    2800 10903M 23100  23179  25068  25173  25201  25320
 CHKINDCC      2 00000122 FFFFFFEA     X    2804 10906M 23115  25089  25222
 CHKINDCL      2 00000120 FFFFFFEA     R    2803 10986M 23174
 CHKINDCN      2 0000011C FFFFFFEA     R    2801 23121  23140  25228
 CHKINDCT      2 0000011E FFFFFFEA     R    2802 10904M 25095  25258
 CHKINDOB      2 00000124 FFFFFFEA     R    2805 11134  11150  23199  23209  23290  25344  25354  25434
 CHKINDOC      2 0000012A FFFFFFEA     X    2808 23224  25369
 CHKINDOF      1 0000012C FFFFFFEA     X    2809 23285  25429
 CHKINDOL      2 00000128 FFFFFFEA     R    2807 23284  25428
 CHKINDON      2 00000126 FFFFFFEA     R    2806 23231  23250  25375  25394
 CHKIND2B      2 0000013E FFFFFFEA     R    2820 10413M 11074  11090  24936  24942  24947  25056
 CHKIND2C      2 00000142 FFFFFFEA     X    2822 10422M 24963
 CHKIND2N      2 00000140 FFFFFFEA     R    2821 24969
 CHKINIAB      2 00000138 FFFFFFEA     R    2791  9500M 10028M 10098  10114  22914  22971
 CHKINIAC      2 0000013C FFFFFFEA     X    2793  9493M 22929
 CHKINIAN      2 0000013A FFFFFFEA     R    2792 22941
 CHKINICB      2 0000011A FFFFFFEA     R    2774  9977M 22676  22958  24746
 CHKINICC      2 00000122 FFFFFFEA     X    2778  9454M  9528M  9980M 22697  24767
 CHKINICT      2 0000011E FFFFFFEA     R    2776  9978M
 CHKININB      2 0000012E FFFFFFEA     R    2785 10038  10054  22410  22420  22461  22509  22659  24480  24490  24531
                                                 24579  24729
 CHKININC      2 00000134 FFFFFFEA     X    2788 22435  24505
 CHKININF      1 00000136 FFFFFFEA     X    2789 22654  24724
 CHKININL      2 00000132 FFFFFFEA     R    2787 22653  24723
 CHKINTCB      2 0000011A FFFFFFEA     R    2752  9191M 24301
 CHKINTCC      2 00000122 FFFFFFEA     X    2756  9194M 24322
 CHKINTCN      2 0000011C FFFFFFEA     R    2753 24773
 CHKINTCT      2 0000011E FFFFFFEA     R    2754  9192M 24328  24804
 CHKINTNB      2 0000012E FFFFFFEA     R    2763  9207   9217   9285  11821M 23997  24035  24045  24086  24134  24284
 CHKINTNC      2 00000134 FFFFFFEA     X    2766 11779M 24060
 CHKINTNF      1 00000136 FFFFFFEA     X    2767 11795M 24279
 CHKINTNL      2 00000132 FFFFFFEA     R    2765 11794M 24278
1FILEVCAT (FILEVC) (09:45) (22MAR04) Ordinary Symbol and Literal Cross Reference                                            Page  211
 CHKINTOB      2 00000124 FFFFFFEA     R    2757  9270   9285   9295  11518M 11729  23899  23909  23997  24007
 CHKINTOC      2 0000012A FFFFFFEA     X    2760 11530M 23924
 CHKINTOF      1 0000012C FFFFFFEA     X    2761 11586M 23984
 CHKINTOL      2 00000128 FFFFFFEA     R    2759 11585M 23983
 CHKINTON      2 00000126 FFFFFFEA     R    2758 23930  23949
 CHKINTRY      1 00000204 FFFFFFEA     X    2883  7396   7621   7629   7660   7699   7797   7805   7836   7875   8450
                                                  8458   8534   8584   8688   8827   8914   8995   9643   9651  10479
                                                 10482  10675  10817  11796  11885  22479  22537  22647  22833  24104
                                                 24162  24272  24354  24549  24607  24717  24810  24999  25121  25284
                                                 25861
 CHKIRCCB      2 00000122 FFFFFFEA     R    2703 16848M
 CHKIRCLB      2 0000011E FFFFFFEA     R    2701 16847M
 CHKIRCPB      2 0000011A FFFFFFEA     R    2699 16846M
 CHKIRNT       1 00000404 FFFFFFEA     X    2885  7112   7322   7397  25787  25862
 CHKIRSCB      2 00000122 FFFFFFEA     R    2693 15407M 23318  23331
 CHKIRSLB      2 0000011E FFFFFFEA     R    2691 15406M 23336  23349
 CHKIRSPB      2 0000011A FFFFFFEA     R    2689 15405M 23355
 CHKISTRT      2 00000112 FFFFFFEA     H    2667  2827   2827   2843   2843   2881   2881
 CHKITYPE      1 00000112 FFFFFFEA     X    2668  9185   9255   9405M  9971   9993   9999M 10092  10290M 10799M 10884
                                                 10919  10925M 11128  11497  11503M 11698  11704M 15403M 16050M 16844M
                                                 17437M 17589M 22021  22307
 CHKIVAR       1 0000011A FFFFFFEA     X    2674  2677   2682   2687   2697   2707   2720   2734   2750   2772   2798
                                                  2826   2826
 CHKIVLV1     66 00000112 FFFFFFEA     R    2827  6062M  6062   9313M  9313  10132M 10132  11168M 11168  15458M 15458
                                                 16170M 16170  16897M 16897  17565M 17565  17786M 17786  22034M 22034
                                                 25465M 25465
 CHKIVLV2    130 00000112 FFFFFFEA     R    2843 11270M 11270  25582M 25582
 CHKIVLV3    242 00000112 FFFFFFEA     R    2881  7462M  7462  25931M 25931
 CHKIV1LN     58 0000011A FFFFFFEA     N    2826  9408M  9409   9409M  9409  10293M 10294  10294M 10294  10802M 10803
                                                 10803M 10803  11506M 11507  11507M 11507  11707M 11708  11708M 11708
                                                 17439M 17440  17440M 17440  17591M 17592  17592M 17592
 CHKI2FLG      1 00000155 FFFFFFEA     X    2831 10545M
 CHKI2TYP      1 00000154 FFFFFFEA     X    2830 10543M 11190  25486
 CHKI2VAR      1 00000156 FFFFFFEA     X    2832  2842   2842
 CHKI3TYP      1 00000194 FFFFFFEA     X    2846  7121M 21994  25595
 CHKI3VAR      1 00000196 FFFFFFEA     X    2848  2880   2880
 CHKLFTA       4 00000028 FFFFFFEA     A    2538 14548M 14890M 15007  15015  15056  15330  15547M 15583  16364  16524
                                                 16532  16576  16961  17033  17039  17108  17361  17464  18074  18397
                                                 18414  18687  18751  18782  19984
 CHKLFTB       2 0000002C FFFFFFEA     R    2539 14512M 14532M 14543  14891M 15158  15406  15432  15546M 15575  15638
                                                 15656  15674  15684  15810  16055  16070  16132  16847  16871  17405
                                                 17460  17476  17527  17596  17619  17725  17803M 18358  18741  20103
 CHKLFTN       2 0000002E FFFFFFEA     R    2540 14555  14892M 15006  15014  15055  15329  15582  16363  16523  16531
                                                 16569  16960  17032  17038  17107  17360  17463  18073  18396  18413
                                                 18686  18750  18781  19983
 CHKLFTP       8 00000028 FFFFFFEA     R    2542 14459M 15700M 16340M
 CHKNBAL       2 00003F0C 00000001     H   23407 22351B
 CHKNODN       2 000000B0 FFFFFFEA     Y    2655 14123M 14422  14423M 14586  14587M 14659  15400M 15500  15501M 15544
                                                 15545M 16060  16228  17454  17456M 17503  17683  17937
 CHKNTA        4 00000040 FFFFFFEA     A    2569  6677M  7117   8505   8802   8905   9124   9570M  9892  10296  10648
                                                 10823
 CHKNTB        2 00000044 FFFFFFEA     R    2570  6678M  6679   9237   9377   9571M 10074
 CHKNTDL       2 00004334 00000001     H   24927 22356B
 CHKNTIN       2 000041F4 00000001     H   24471 22355B
 CHKNTN        2 00000046 FFFFFFEA     R    2571  6693M  7118   7125   8504   8801   8912   9123   9192   9577M  9933
                                                  9978  10295  10649  10822  10904
 CHKNTP        8 00000040 FFFFFFEA     R    2573  6727   9630
 CHKNTRY       2 0000406C 00000001     H   23887 22354B
 CHKNXDB       2 00000012 FFFFFFEA     R    2430 12796  12812  13133  13143M 13211  13212M 13834  13840M 13981  13982M
1FILEVCAT (FILEVC) (09:45) (22MAR04) Ordinary Symbol and Literal Cross Reference                                            Page  212
 CHKPARA       4 00000020 FFFFFFEA     A    2528 14462  14949  15013  15029  15998  16053  16303  16513  16526  16627
                                                 17031  17170  17303  17350  17458  17594  18369  18416  18749  18802
                                                 19185  19236  19662  19709  19732  20125  23421M 23576M 23735M
 CHKPARB       2 00000024 FFFFFFEA     R    2529 14144  15405  15420  15638  15774  16052  16120  16846  16859  17457
                                                 17515  17593  17698  17802M 23408M 23413  23563M 23568  23722M 23727
 CHKPARN       2 00000026 FFFFFFEA     R    2530 14154  14461  14948  15012  15028  15997  16302  16512  16525  16626
                                                 17030  17169  17302  17349  18368  18415  18748  18801  19184  19235
                                                 19661  19708  19731  20124
 CHKPARP       8 00000020 FFFFFFEA     R    2532  6551M 14858M 17796
 CHKPNT     1600 00000000 FFFFFFEA     J    2900  3637U 23700U 23866U
 CHKPT         1 00000020 FFFFFFEA     X    2523  2564   2564   2635   2635
 CHKR          8 00000008 00000001 A   #    1241  3637U  3666M  4875   5103M  6862M 22299  25456
 CHKRECER      4 00004646 00000001     I   25950 22522B 22758B 22887B 23160B 23270B 23969B 24147B 24446B 24592B 24902B
                                                 25046B 25163B 25310B 25414B 25971
 CHKREN        2 00004566 00000001     H   25629 25626B
 CHKRHTA       4 00000038 FFFFFFEA     A    2558 14384M 14482M 15503M 15719  15893  15996  16058  17247  17305  17333
                                                 18861  19217  19234  19638  19664  19692  19952
 CHKRHTB       2 0000003C FFFFFFEA     R    2559 14322M 14359M 14379  14466M 14477  15502M 15674  15774  15792  15810
                                                 15820  16057  16100  16156  16348M 17598  17668  17768  17804M
 CHKRHTN       2 0000003E FFFFFFEA     R    2560 14391  14489  15718  15892  15995  17246  17304  17332  18860  19216
                                                 19233  19637  19663  19691  19951
 CHKRHTP       8 00000038 FFFFFFEA     R    2562 14272M 14460  15836M 16347  17444
 CHKROOTB      2 0000000A FFFFFFEA     R    2426  6088   9466M
 CHKRTCL       4 00003EFE 00000001     I   23401 22350B
 CHKRTDL       2 00003DBC 00000001     H   22990 22348B
 CHKRTIN       2 00003BFE 00000001     H   22365 22347B
 CHKRTSP       2 00003E9C 00000001     H   23313 22349B
 CHKSEQA       4 00000068 FFFFFFEA     A    2619  5592M  5679   5780M  5813   5867M  7596M  7779M  7934M
 CHKSEQB       2 0000006C FFFFFFEA     R    2620  7595M  7778M
 CHKSEQEA      4 00000070 FFFFFFEA     A    2629  7659M  7835M
 CHKSEQEB      2 00000074 FFFFFFEA     R    2630  7646M  7651   7822M  7827
 CHKSFLG       1 0000001C FFFFFFEA     X    2437  2521   2521
 CHKSPAC       2 000000AE FFFFFFEA     Y    2654 14124M 14424  14426M 14588  14590M 14809  15399M 15581  15625M 15717
                                                 15761M 15987  15989M 16043  16045M 16251  17469M 17980  18052M 18087
                                                 18133  18455  18500  18874  18881  19270  19315  20000M
 CHKSPNT      32 00000020 FFFFFFEA     R    2564  6105M  6106   6106M  6106
 CHKSTAK       8 00000608 FFFFFFEA     X    2893  5612   5678   5757   5784   5850   5871   6530   6656   7907
 CHKSTBK       2 00000000 FFFFFFEB     R    2390  5613M  5765M  5772   5859   6538M  6664M  7595   7597   7778   7926
 CHKSTEO       2 00000004 FFFFFFEB     R    2392  5619M  5682   5687M  5767M  5787   5874   6542M  6668M  7599
 CHKSTFLG      1 00000006 FFFFFFEB     R    2395  2399   5764M  6537M  6663M
 CHKSTFOLD
             128 00000006 FFFFFFEB         2399  5636   5653M
 CHKSTKP       2 00000606 FFFFFFEA     H    2891  5610   5676   5731   5732M  5782   5818   5820M  5848   5869   6085M
                                                  6085   6104M  6504   6505M  6630   6631M  6728   7609   7905   9631
                                                 14841  14842M 17799  17801M 22342M 22342
 CHKSTNO       2 00000002 FFFFFFEB     R    2391  5616M  5680   5785   5814   5872   7598
 CHKTIME       8 00000000 FFFFFFEA     D    2424  4876M  4879
 CHKWRKA       4 00000048 FFFFFFEA     A    2579  8503M 10333M 10513  11529M 11776M
 CHKWRKB       2 0000004C FFFFFFEA     R    2580  8490M  8495  10312M 10325  10383M 10413  10418  11519M 11524  11777M
                                                 11812  11821
 CHKWRKN       2 0000004E FFFFFFEA     R    2581 10334  10423  10512  11537  11559  11778M
 CHKWRKP       8 00000048 FFFFFFEA     R    2583 10493
 CHK0384       1 00000020 FFFFFFEA     X    2526  2532   2532
 CHK0385       1 00000028 FFFFFFEA     X    2536  2542   2542
 CHK0386       1 00000030 FFFFFFEA     X    2546  2552   2552
 CHK0387       1 00000038 FFFFFFEA     X    2556  2562   2562
 CHK0388       1 00000040 FFFFFFEA     X    2567  2573   2573
 CHK0389       1 00000048 FFFFFFEA     X    2577  2583   2583
 CHK0390       1 00000050 FFFFFFEA     X    2587  2593   2593
1FILEVCAT (FILEVC) (09:45) (22MAR04) Ordinary Symbol and Literal Cross Reference                                            Page  213
 CHK0391       1 00000058 FFFFFFEA     X    2597  2603   2603
 CHK0392       1 00000060 FFFFFFEA     X    2607  2613   2613
 CHK0393       1 00000068 FFFFFFEA     X    2617  2623   2623
 CHK0394       1 00000070 FFFFFFEA     X    2627  2633   2633
 CHK2WRA       4 00000050 FFFFFFEA     A    2589 12317  22528M 24153M 24598M
 CHK2WRB       2 00000054 FFFFFFEA     R    2590 11425  22529M 22559  24154M 24184  24599M 24629
 CHK2WRN       2 00000056 FFFFFFEA     R    2591 12324  22530M 24155M 24600M
 CHK2WRP       8 00000050 FFFFFFEA     R    2593  8871M  9151M  9941M 10493M 10704M 10850M 22874M 24433M 24889M 25033M
                                                 25150M 25297M
 CHOOSE        2 000009A8 00000001     H    6324  6462B
 CNODNLLN      2 00000006 FFFFFFE4 A   N    3175 12064  13402  20630  20822  22810
 CNT          14 0000000E 00000001 A   #    1254  7112M  7116M  7322M  7332U  7348M  7358   7392M  7397M  7407U  7630M
                                                  7633M  7661M  7662M  7662   7672U  7680M  7694M  7806M  7809M  7837M
                                                  7838M  7838   7848U  7856M  7870M  8167M  8171M  8173   8459M  8477M
                                                  8506M  8507M  8507   8517U  8525M  8579M  8687M  8912M  8913M  8913
                                                  8954M  9035M  9036   9053M  9054   9060M  9062M  9067   9092   9732M
                                                  9733   9750M  9751   9757M  9759M  9764M  9764   9765M  9777  10441M
                                                 10442M 10443  10470M 10481M 10603M 10604  10756M 10757M 10758  10781M
                                                 10781  11885M 11886M 11890M 11967M 12021  12042M 12042  12089  12092
                                                 12094M 12146  12202  12240M 12288M 12354M 12371M 12439  12506  14122M
                                                 14123  14421M 14422M 14423  14424M 14425M 14426  14585M 14586M 14587
                                                 14588M 14589M 14590  14659M 14671  14708  14750  14840M 14841M 14842
                                                 15008M 15009  15073M 15090M 15109M 15110  15331M 15368M 15399  15987M
                                                 15988M 15989  16381M 16398M 16403M 16406  16407  16452M 16469M 16474M
                                                 16477  16478  16671M 16688M 16756  16823  16931M 16948M 16953M 16954
                                                 16955  16978M 16995M 17000M 17001  17040M 17066  17072M 17100M 17101M
                                                 17102  17201M 17218M 17223M 17232M 17232  17242M 17245  17249  17378M
                                                 17395M 17400M 17401  17454M 17455M 17456  17465M 17468M 17469  17937M
                                                 17938  17985  18055M 18056  18075M 18087  18108M 18109  18126M 18127
                                                 18133M 18152M 18162M 18162  18180M 18181  18198M 18215M 18220M 18221M
                                                 18234M 18234  18289  18313M 18328M 18328  18455  18461  18500M 18518M
                                                 18530M 18530  18567M 18577M 18577  18619M 18620  18621  18862M 18874
                                                 18880  18881M 18897M 18914M 18929  18936M 19008M 19018M 19018  19089M
                                                 19123M 19140M 19145M 19146  19270  19276  19315M 19333M 19345M 19345
                                                 19516  19750M 19767M 19835  19902  19925M 19953M 19985M 20000  20417M
                                                 20417  20456M 20477  20610M 20663  20719  20748M 20751M 20802M 20833
                                                 20836M 22647M 22648M 22652M 24272M 24273M 24277M 24717M 24718M 24722M
                                                 25787M 25797U 25813M 25823  25857M 25862M 25872U
 CNTAMXL       1 00000108 FFFFFFE3 A   U    3276  3278
 CNTAMXSZ      1 00000005 FFFFFFE3 A   U    3279  3292   5943M  5943   5945   6355   6389   6903   7381   9834   9871
                                                 10579  10595  10603  10616M 11211  11212  12555  25536  25537  25846
 CNTFMXL       1 00000129 FFFFFFE3 A   U    3277  3278
 CNTFMXSZ      1 00000021 FFFFFFE3 A   U    3280  9053   9750
 CNTXFXLN      1 00000002 FFFFFFE2 A   U    3496  7678   7854   8523  12720  12860  13005
 COMIO         2 000005B6 00000001     H    5084  3926B  4172B  4374B  4639B  4825B  4896B
 CSEQEND       1 00000008 00000001 A   U    2018  7955   8299
 CSEQNONT      1 00000010 00000001 A   U    2017  7972   8316
 CTBITRCT      8 00000150 FFFFFFEC     D    2299  2309
 CTCACHCT      8 000001A0 FFFFFFEC     D    2328  2338
 CTCATRCT      8 00000148 FFFFFFEC     D    2298  2308
 CTIXRRCT      8 00000158 FFFFFFEC     D    2300  2310
 CTMASRCT      8 00000140 FFFFFFEC     D    2297  2307
 CTOTHRCT      8 00000168 FFFFFFEC     D    2302  2312
 CTREADCT      8 00000140 FFFFFFEC     D    2296  2307   2308   2309   2310   2311   2312   2336   2341   2341   2342
                                                  2342
 CTUSERCT      8 00000160 FFFFFFEC     D    2301  2311
 CTWRITCT      8 00000170 FFFFFFEC     D    2316  2337
 CUR           4 00000004 00000001 A   #    1319 20888U 20961M 20962  20963M 20975  20989  20999  21011  21025M 21183M
                                                 21184  21185M 21197  21253  21283M 21346M 21347  21348M 21360  21412
1FILEVCAT (FILEVC) (09:45) (22MAR04) Ordinary Symbol and Literal Cross Reference                                            Page  214
                                                 21643M 21644  21645M 21657  21671  21717  21734  21751  21763  21777M
                                                 21792  21825M 21833  21870  21885
 CURFBAC       2 00000004 FFFFFFE6     H    3124 21017M 21430  21769M
 CURFFWD       2 00000002 FFFFFFE6     H    3123 21431  21798  21835  21852M
 CURRENT       6 00000000 FFFFFFE6     J    3133 20888U
 CURSIZ        2 00000000 FFFFFFE6     H    3122 21203  21372  21411M 21823  21834  21876  21878M
 DATEDSCT      8 00000000 FFFFFFE0     J    8011  8097   8351
 DDRAVCOR      4 0000039C 00000001     I    4577  4606B
 DDRDDO        2 000003C6 00000001     H    4616  4488B  4601B
 DDREAD        2 00000346 00000001     H    4466 23369B 23463B 23494B 23536B 23603B 23630B 23657B 23762B 23789B
 DDWRITE       2 00000450 00000001     H    4737 14856B 16079B 16094B 16109B 17485B 17500B 17628B 17647B 17677B
 DFERROR       2 00003A6A 00000001     H   21901 21910B 21914B 21918B
 DGERROR       2 0000393A 00000001     H   21493 21110B
 DIRCOM        2 00000B56 00000001     H    6848  5297B  5428B  5517B  6843B  7470B  7979B  8323B 25946B
 DIRCOMSV      4 00000B4E 00000001     I    6844  5276B  5407B  7710B  7886B  8291B
 DIRDELAC      1 0000000C 00000001 A   U    1980 10254
 DIRDUPER      1 00000008 00000001 A   U    1977  5380   7031
 DIRMODLN      1 00000014 00000001 A   U    1986  8989
 DIRNFER       1 00000004 00000001 A   U    1974  5249   5526   7087
 DIRNMR        1 0000001C 00000001 A   U    1992  5209   5343   5460   6800   6901   6967   8433   9609  13511
 DIRNTSZ       1 00000010 00000001 A   U    1983  9098   9794
 DIRRENAC      1 00000018 00000001 A   U    1989  6994
 DIRSTOV       1 00000020 00000001 A   U    1995  5750   6523   6649
 DLOKBUF       2 00000228 00000001     H    4217 10270B 10420B 11427B 11786B 14111B 14146B 14899B 14946B 15882B
 DRAVCORE      4 000000B4 00000001     I    3851  3900B
 DRDDO         2 000000EA 00000001     H    3910  3895B
 DREAD         2 00000062 00000001     H    3743  3740   5778B  5865B  6140B  6203B  6593B  7057B  7657B  7833B  7932B
                                                  8501B  9490B 10331B 11002B 11248B 11527B 12678B 12818B 13527B 14290B
                                                 14382B 14480B 14546B 17815B 22426B 22687B 22920B 23038B 23106B 23215B
                                                 23321B 23339B 23419B 23574B 23733B 23816B 23915B 24051B 24312B 24496B
                                                 24757B 24953B 25079B 25212B 25360B
 DRELBUF       2 00000266 00000001     H    4282  4279  15686B 15822B 25479B
 DSK           2 00000002 00000001 A   #    1293  3646U  3801M  3894M  3918   3948M  4083M  4084M  4163   4194M  4256M
                                                  4257M  4258   4321M  4322   4396M  4487M  4527M  4600M  4628   4663M
                                                  4775M  4776M  4813   4847M  4875M  4887   4918M  5024M  5075   5592
                                                  5615   5679M  5780   5813M  5867   5946M  5981   5990M  5991   6142
                                                  6205   6540   6595   6666   6692   7059   7117M  7596   7610   7659
                                                  7779   7835   7934   8503   8905M  9193M  9451   9492   9525   9570
                                                  9576   9892M  9979M 10333  10648M 10905M 11004  11250  11529  11566
                                                 11776  12286M 12304  12317M 12729  12869  13014  13328  14292  14384
                                                 14482  14548  14890  14937  15873  16053M 16058M 17442M 17458M 17594M
                                                 19367M 19384M 19389M 19398M 19398  19438  19457M 19516  19535M 19583M
                                                 19589  20963  20999  21017  21022  21023  21024  21091M 21185  21203
                                                 21348  21372  21411  21430  21431  21432  21450  21463  21540M 21645
                                                 21684  21751  21769  21774  21775  21776  21782  21798  21799  21817
                                                 21822  21823  21824  21834  21835  21851  21852  21870  21876  21877
                                                 21878  22274M 22295  22298  22528  22689  22712M 22721  23147  23257
                                                 23371  23421  23576  23735  23956  24153  24314  24598  24759  24955
                                                 25081  25214  25401
 DSKADER       2 00003A7E 00000001     H   21912 21609B
 DSKBLINK      2 0000000C FFFFFFE8     H    3036 10986  11585  11794  13143  13144M 13211M 13531  13730M 13840  13851M
                                                 13981M 20953M 22653M 23174M 23284M 23330M 23348M 23825M 23983M 24278M
                                                 24723M 25428M
 DSKBLK       16 00000000 FFFFFFE8     J    3079  3646U  3954   4109   4398   4669   4801   4878   5681   5786   5815
                                                  5873   6144   6207   6597   7119   7134   7662   7838   8507   8913
                                                  9456   9530   9573   9901   9934  10335  10424  10650  10739  11013
                                                 11538  11823  12325  13133  13163  13227  13370  14121  14155  14300
                                                 14392  14490  14556  17818  20961  21183  21346  21643  22583  22763
                                                 22942  23054  23122  23232  23931  24208  24329  24653  24774  24805
1FILEVCAT (FILEVC) (09:45) (22MAR04) Ordinary Symbol and Literal Cross Reference                                            Page  215
                                                 24970  25096  25229  25259  25376
 DSKBNUM       2 00000002 FFFFFFE8     Y    3024  3985   4092   4429   4700   4784   5613  13212  13465  13546  13731
                                                 13834  13852  13982  20949M
 DSKFBAC       2 00000008 FFFFFFE8     H    3032 20951M
 DSKFDATA     16 0000000E FFFFFFE8         3058 12964M 13706M 13945  22474M 24099M 24544M
 DSKFDLNK     32 0000000E FFFFFFE8         3053 12658  13099  13151M 13218M 13717  13819  13849  13849  13850M 13957
                                                 13988M
 DSKFFWD       2 00000006 FFFFFFE8     H    3031 20952M
 DSKFINIT    128 0000000E FFFFFFE8         3043 13729M 13849  13849  21039  21039  21040M 21103  22450  23329M 23347M
                                                 23824M 24075  24520
 DSKFL         1 0000000E FFFFFFE8     R    3039  3043   3048   3053   3058   3063  11586  11795  22654M 23285M 23984M
                                                 24279M 24724M 25429M
 DSKFMOD      64 0000000E FFFFFFE8         3048  4140   4155M  8911M  9499M  9898M 11011M 11536M 11793M 12323M 14118M
                                                 14153M 14298M 14390M 14488M 14554M 21039  21039  21483M 21891M 22536M
                                                 22940M 24161M 24606M
 DSKFRE        2 0000000A FFFFFFE8     H    3035 21026  21027M 21167  21334  21459  21461M 21490  21883  21884M 21898
 DSKFREE       2 00003946 00000001     H   21520 14014
 DSKGET        2 0000381A 00000001     H   21071 14007  25965
 DSKGETX       2 00003936 00000001     H   21489 21135B 21174B 21300B 21341B 21367B
 DSKHEAD       2 00000004 FFFFFFE8     H    3028 20941  20946  20961  21183  21346  21643
 DSKINIT       2 00003798 00000001     H   20913 14013  20909  25963
 DSKLNER       2 00003A76 00000001     H   21908 21573B 21634B
 DSKOVER       2 00003A86 00000001     H   21916 21701B 21741B
 DSKSTART      1 00000000 FFFFFFE8     U    3022  3067   3071  20946
 DSKTAG        2 00000000 FFFFFFE8     Y    3023  3962   4119   4130M  4406   4677   4804M  9194   9454   9493   9528
                                                  9980  10422  10906  11005  11530  11779  16054  16059  17443  17459
                                                 17595  22435  22697  22929  23047  23115  23224  23429  23584  23743
                                                 23924  24060  24322  24505  24767  24963  25089  25222  25369
 DWRDONE       2 0000021A 00000001     H    4197  4143B
 DWRITE        2 00000166 00000001     H    4026  4023   9223B  9243B  9301B 10060B 10080B 10120B 11068B 11096B 11116B
                                                 11156B 13169B 15426B 15438B 15450B 16126B 16138B 16150B 16162B 16865B
                                                 16877B 16889B 17521B 17533B 17545B 17557B 17704B 17731B 17747B 17774B
                                                 22665B 22903B 22977B 23089B 23185B 23296B 23475B 23506B 23548B 23615B
                                                 23642B 23669B 23774B 23801B 23836B 24013B 24290B 24462B 24735B 24918B
                                                 25062B 25179B 25326B 25440B
 FAC           1 00000008 00000001 A   U    3257  3565
 FAO           1 00000002 00000001 A   U    3255  3332   3415   3455   3556
 FBHDR        20 00000000 FFFFFFED     J    2073  2065
 FBHTBICA      1 000000C0 FFFFFFED A   U    2058  2059
 FBHTBIT       1 00000040 FFFFFFED A   U    2051  2058
 FBHTCAT       1 00000080 FFFFFFED A   U    2050  2058   4168   4821   4892
 FBHTIXR       1 00000008 FFFFFFED A   U    2053  2057
 FBHTIXRT      1 0000001E FFFFFFED A   U    2057  2059
 FBHTMIXR      1 00000002 FFFFFFED A   U    2055  2057
 FBHTSIXR      1 00000004 FFFFFFED A   U    2054  2057
 FBHTZIXR      1 00000010 FFFFFFED A   U    2052  2057
 FBR           6 00000006 00000001 A   #    1087  3662   3688M  3700   3702M  3702   3703M  3704B  6844   6850M  6860M
                                                  8380   8697M  8735   9332M  9354   9656M  9694  10150M 10184  11288M
                                                 11326  12535M 12601  13474M 13640  14001M 14060  17834M 17901  20029M
                                                 20069  20340M 20374  20853M 20914  21044M 21072  21495M 21521  21903M
                                                 21962  22215M
 FILEMODE      1 00000004 00000001 A   U    2016  7073   7274   7732   7878   8341  11251  25558  25651  25728
 FILEVC        1 00000000 00000001     R    1019  1017
 FILEVCAT      1 00000000 00000001     J    1010  1007   1008   1012   1043   1056   1069   1082   1095   1108   1121
                                                  1134   1147   1160   1173   1186   1210   1223   1236   1249   1262
                                                  1275   1301   1314   1327   1340   1353   1942   2074   2353   2410
                                                  2901   2979   3080   3107   3134   3161   3234   3483   3505   3577
                                                  3611   3706   3708   3710   3712   3714   3716   3718   3720   5073
                                                  5918
1FILEVCAT (FILEVC) (09:45) (22MAR04) Ordinary Symbol and Literal Cross Reference                                            Page  216
 FIRLOOK       2 000038CA 00000001     I   21347 21385B
 FMTDATE       1 00000000 00000005     T    8348  8348
 FPA           1 00000002 00000001 A   N    3247  3253   3254   3255   3262   3265
 FPE           1 00000008 00000001 A   N    3249  3257   3258   3264
 FPN           1 00000000 00000001 A   N    3245  3259
 FPR           1 00000001 00000001 A   N    3246  3252   3253   3254   3261   3265
 FPS           1 00000010 00000001 A   N    3250  3256
 FPW           1 00000004 00000001 A   N    3248  3253   3263   3265
 FRO           1 00000001 00000001 A   U    3252  3305   3388   3437   3529
 FRP           1 00000003 00000001 A   U    3254  3323   3406   3464   3547
 FRW           1 00000007 00000001 A   U    3253  3258   3314   3397   3446   3538
 FSB         480 00000000 FFFFFFEC     J    2352  3619U
 FSBAFLGS      1 00000009 FFFFFFEC     R    2120  2124   2129   2134   2139   2144   2149
 FSBBALST      1 000000AC FFFFFFEC     X    2232  2251
 FSBBLKTOP
               4 0000005C FFFFFFEC     A    2221  3849   4353   4575   4987  22260
 FSBBLK1       4 0000006C FFFFFFEC     A    2225  3850   4354   4576   4988  22261
 FSBCATNIN
               8 00000009 FFFFFFEC         2144  5202   5202   5336   5336   6960   6960  13574M 13785M 13906M 22064M
                                                 22202  22202
 FSBCATNLM
               4 00000009 FFFFFFEC         2149  5202   5202   5203   5336   5336   5337   5454   6960   6960   6961
                                                 13597M 13761M 13882M 22088M 22173M 22202  22202  22203M
 FSBCATSB      4 00000044 FFFFFFEC     A    2211  3919   3947   4164   4193   4367   4395   4632   4817   4846   4888
                                                  4917
 FSBCHKA       4 00000060 FFFFFFEC     A    2222  3666   5103   6862
 FSBCTBRD      4 00000100 FFFFFFEC     F    2268 14281  14282M 14373  14374M 14471  14472M 14537  14538M 14864  14865M
                                                 14911  14912M 15847  15848M
 FSBCTBWR      4 0000010C FFFFFFEC     F    2271 15409  15410M 16064  16065M 16850  16851M 17504  17505M 17687  17688M
 FSBCTCRD      4 000000FC FFFFFFEC     F    2267  3830   3831M  4556   4557M
 FSBCTDWR      4 00000110 FFFFFFEC     F    2272  4811   4812M
 FSBCTIWR      4 00000108 FFFFFFEC     F    2270  4885   4886M
 FSBCTRD       4 000000F4 FFFFFFEC     F    2265  3916   3917M  4363   4364M  4626   4627M
 FSBCTRRD      4 000000F8 FFFFFFEC     F    2266  3820   3821M  4546   4547M
 FSBCTWR       4 00000104 FFFFFFEC     F    2269  4161   4162M
 FSBDAVA       2 000000AE FFFFFFEC     Y    2234 13694  20956  21543
 FSBDSZ        2 000000AC FFFFFFEC     Y    2233  3922   4167   4370   4635   4820   4891  21616  22296  25455
 FSBDTAGX      2 000000B0 FFFFFFEC     Y    2235  3953   4108   4397   4668   4800   4877
 FSBFCACT      8 000001A0 FFFFFFEC     D    2327  2340   2340
 FSBFIOCT      8 00000140 FFFFFFEC     D    2295  2323   2323   2336   2337   2338
 FSBLOGFR      2 000000CC FFFFFFEC     Y    2249 13563  13773  13894  22053
 FSBMNFRE      2 000000CE FFFFFFEC     Y    2250 13586  13749  13870  22077
 FSBNALEN      2 000000B2 FFFFFFEC     Y    2236 13302
 FSBNAME       8 00000018 FFFFFFEC     C    2196 22131
 FSBNAMXL      2 000000B8 FFFFFFEC     Y    2239 11635  11863  11985  12258  12697  12837  12982  14636  22625  24250
                                                 24395  24695  24851
 FSBNANSP      2 000000BC FFFFFFEC     Y    2241 12354  14772  16671  18024  18110  18478  18898  19293  19750
 FSBNASPA      2 000000B4 FFFFFFEC     Y    2237 13432  15073  16381  16452  16931  16978  17201  17378  18108  18198
                                                 18704  19123  19367
 FSBNAXSP      2 000000BA FFFFFFEC     Y    2240 12353  16207  16670  19749
 FSBNFLEN      2 000000BE FFFFFFEC     Y    2242 13319  22725
 FSBNFMXL      2 000000C4 FFFFFFEC     Y    2245 11652  11880  12002  12275  12714  12854  12999  14653  22642  22861
                                                 22863  24267  24412  24712  24868
 FSBNFNSP      2 000000C8 FFFFFFEC     Y    2247 12371  14789  16688  18041  18128  18495  18915  19310  19767
 FSBNFSPA      2 000000C0 FFFFFFEC     Y    2243 13448  15090  16398  16469  16948  16995  17218  17395  18126  18215
                                                 18721  19140  19384  22819
 FSBNFXSP      2 000000C6 FFFFFFEC     Y    2246 12370  16223  16687  19766
 FSBOFLGS      1 0000000B FFFFFFEC     R    2175  2179   2184   2189
 FSBR         10 0000000A 00000001 A   #    1139  3619U
1FILEVCAT (FILEVC) (09:45) (22MAR04) Ordinary Symbol and Literal Cross Reference                                            Page  217
 FSBROOTA      4 00000068 FFFFFFEC     A    2224  4365   4487
 FSBROOTB      4 00000064 FFFFFFEC     A    2223  4366   4481   4960   4966
 FSBSFLGS      1 0000000A FFFFFFEC     R    2155  2159   2164   2169
 FSBTAXLN      2 000000B6 FFFFFFEC     Y    2238  9034   9731
 FSBTFXLN      2 000000C2 FFFFFFEC     Y    2244  9052   9749
 FSBTXXLN      2 000000CA FFFFFFEC     Y    2248 13118  13205  13971
 FSHR          1 00000010 00000001 A   U    3256  3424
 FSNAME1       8 00000000 FFFFFFDF     C   22102 22104  22104  22131M
 GBERROR       2 00001E76 00000001     H   13612 13512B
 GETBLOCK      2 00001E1A 00000001     H   13495 14011
 GETNODE       2 00001BE0 00000001     H   12600 12550  17852  25964
 GNDNFORM      2 00001D2A 00000001     H   13089 12786B 12926B
 GNERROR       2 00001E0A 00000001     H   13472 12766B 12906B 12949B 13051B 13280B 13365B
 GNTST1        2 00001D5C 00000001     H   13153 13158  13158
 GNTST2        2 00001D5C 00000001     H   13157 13158  13158
 HIBAL         1 00000000 FFFFFFFF     J     708   724    737    750    763    776    789    802    815    828    841
                                                   854    867    880    893    906    919
 INCORE        4 0000057A 00000001     I    4989  5004B
 INITLINK      2 000037CE 00000001     I   20962 20992B
 IWRITE        2 000004F2 00000001     H    4868  7235B  7466B  9198B  9317B 10036B 10136B 11044B 11172B 11274B 15414B
                                                 15462B 16114B 16174B 17509B 17569B 17692B 17790B 25469B 25586B 25935B
 IX            1 00000001 00000001 A   #    1215  5576U  5617   5682M  5683M  5683   5684M  5685   5766M  5767   5787M
                                                  5788M  5788   5874M  5875M  5875   5945M  5955M  5981   5991M  5992
                                                  6322M  6459M  6665M  6666M  6667M  6668   6691M  6692M  6693   7114
                                                  7115M  7307U  7369U  7391M  7396M  7550M  7613   7632M  7693M  7746M
                                                  7789   7808M  7869M  8031U  8075M  8098   8476M  8534M  8552U  8578M
                                                  8657M  8678M  8680M  8680   8685   8686   8931M  8948M  8953   8995M
                                                  9013U  9540M  9541M  9551U 10480M 10548M 10558U 10563M 11635M 11652M
                                                 11682  11887M 11888M 11889  11985M 12002M 12010  12012  12091M 12092M
                                                 12093  12145M 12146M 12156  12163  12169M 12170M 12241M 12283  12285M
                                                 12286  12287  12335M 12336M 12337  12439  12480  12506  12680M 12719M
                                                 12820M 12859M 12965M 13004M 13141  13174M 13227  14187M 14197U 14215
                                                 14238M 14273M 14342  14431M 14432  14463M 14464M 14465M 14637M 14654M
                                                 14678  14717  14720M 14722  14954M 14955  14965U 14986  14987M 15003M
                                                 15004M 15005  15030M 15040U 15152U 15184U 15189M 15258U 15582M 15583M
                                                 15601U 15718M 15719M 15737U 15920M 15930U 15990  16207M 16223M 16238U
                                                 16251  16360M 16361  16433M 16507  16654M 16756  16797  16823  16955M
                                                 16957M 17001M 17002  17004M 17043M 17044  17073M 17080M 17081  17165M
                                                 17166  17238M 17240  17243M 17244  17294M 17295  17401M 17403M 17895U
                                                 17956M 17972M 17978M 17979M 17980M 18003M 18049  18051M 18052  18134M
                                                 18153M 18179  18314M 18335  18337M 18338  18350M 18352M 18353M 18356M
                                                 18364M 18365  18521M 18536  18549  18568M 18611M 18616  18618  18652M
                                                 18653  18704M 18721M 18726M 18727M 18727  18728  18734M 18736M 18739M
                                                 18774M 18775M 18776  18793M 18794  18852M 18853M 18854  19006M 19061M
                                                 19099  19103M 19104  19146M 19147  19175M 19210M 19211M 19212  19213
                                                 19336M 19425M 19459  19460M 19477M 19478  19537  19538M 19581M 19588
                                                 19639M 19640  19646M 19648M 19649M 19652M 19733M 19835  19876  19902
                                                 20103M 20119M 20591M 20592M 20592  20595  20611M 20612  20624  20662M
                                                 20663M 20673  20680  20686M 20687M 20750M 20803M 20804  20816  20834M
                                                 22649M 22650M 22651  24274M 24275M 24276  24719M 24720M 24721  25772U
                                                 25834U 25856M 25861M
 IXFOUND       2 000009FC 00000001     H    6465  6334B  6452B
 LAS           3 00000003 00000001 A   #    1306 20879U 20962M 21023  21184M 21347M 21430M 21450  21644M 21683  21775
                                                 21781  21817  21825
 LASFFWD       2 00000002 FFFFFFE7     H    3096 20963  21022M 21185  21348  21432M 21645  21774M 21799M
 LASSIZ        2 00000000 FFFFFFE7     H    3095 21684  21782  21822  21824M
 LAST          6 00000000 FFFFFFE7     J    3106 20879U
 LEVELN        2 00004640 00000001     H   25938 25625B
 LEVEL2        4 000044BC 00000001     I   25477 22346B
1FILEVCAT (FILEVC) (09:45) (22MAR04) Ordinary Symbol and Literal Cross Reference                                            Page  218
 LEVEL3        2 0000453E 00000001     I   25594 25516B 25588B
 LINKMEM       2 0000399E 00000001     I   21644 21674B
 LKINCORE      2 0000055A 00000001     H    4944  3753B  4035B  4227B  4292B  4499B  4747B
 LRUBUF        2 0000058E 00000001     H    5023  3800B  3893B  4526B  4599B
 MIX           0 00000000 00000001 A   #    1202  5608M  6420M  6421   7113   7114M  7116M  7338M  7359   7381M  7392M
                                                  7629M  7633M  7690M  7694M  7805M  7809M  7866M  7870M  8458M  8477M
                                                  8558M  8579M  8687M  8914M  8954M 10479M 10481M 11838M 11890M 12089M
                                                 12090M 12094M 12125M 12170  12211  12239M 12288M 12353M 12370M 12480
                                                 12697M 12714M 12719  12720M 12723  12774M 12837M 12854M 12859  12860M
                                                 12863  12914M 12982M 12999M 13004  13005M 13008  13059M 13243  14186M
                                                 14214M 14274  14636M 14653M 14677  14679M 14681M 14683M 14716  14718M
                                                 14721M 14722M 14723M 14772M 14789M 14809  14955M 15002  15004  16228M
                                                 16230M 16230  16670M 16687M 16797  17044M 17079  17080  17938M 17940M
                                                 17977M 17977  17984M 17984  17985M 17994M 17994  18024M 18041M 18049
                                                 18051  18289M 18291M 18301  18339  18536M 18549M 18611  19101M 19102
                                                 19103  19426M 19427  19458M 19536M 19548  19582  19749M 19766M 19876
                                                 20433M 20434M 20434  20447  20453M 20524M 20525M 20526  20527M 20528M
                                                 20529  20576M 20577M 20578  20579M 20580M 20581  20590M 20642M 20687
                                                 20728  20747M 20751M 20835M 20836M 22600M 22652M 24225M 24277M 24670M
                                                 24722M 25803M 25824  25846M 25857M
 MSGTOT1      43 00000000 FFFFFFDF     R   22104 22133
 MSG1         35 00000008 FFFFFFDF     C   22103 22132M
 M1AMSK        1 00FFFFFF 00000001 A   U    1969  1970
 NBBAL         2 00002D90 00000001     H   17900 15402B 16047B 17471B 17587B
 NBBRCPOK      4 00003204 00000001     I   19099 19084B
 NBBRHT        2 00003148 00000001     H   18823 18284B
 NBCLFUL       4 00002982 00000001     I   17045 17074B
 NBCLOOK       6 00002018 00000001     I   14202 14239B
 NBCTLX        2 00003148 00000001     H   18813 18673B
 NBERROR       2 00002D4E 00000001     H   17832 14884B 14931B 15867B 16589B 16620B 17431B
 NBLCIDEA      6 00002FF0 00000001     I   18537 18580B
 NBLIDEAL      4 00002E54 00000001     I   18135 18165B
 NBLSHORT      2 00002EB0 00000001     I   18289 18315B
 NBRCIDEA      2 000033A4 00000001     H   19508 19539B
 NBRCUMAX      2 00003368 00000001     H   19430 19461B
 NBREBAL       2 00002D9E 00000001     H   17923 20016B
 NBRIDEAL      2 000031D2 00000001     H   19011 19090B
 NEW          14 0000000E 00000001 A   #    1332 20897U 20950M 20951  20952  20953  20955M 20975  21017  21022  21025
                                                 21203M 21213  21230  21254  21431M 21432  21444  21578M 21579M 21591
                                                 21602M 21602  21615  21657  21694  21723  21769  21774  21777  21781M
                                                 21782M 21792  21798M 21799  21811  21835M 21845  21851M 21852  21864
                                                 21875M
 NEWCHAIN      6 00000000 FFFFFFE5     J    3160 20897U
 NEWFBAC       2 00000004 FFFFFFE5     H    3151 21023M 21450M 21775M 21817M 21870M
 NEWFFWD       2 00000002 FFFFFFE5     H    3150 20999M 21751M 21851
 NEWSIZ        2 00000000 FFFFFFE5     H    3149 21024M 21776M 21877
 NIL           1 000000FF 00000001 A   U    2020  5924   6896   8346  12548  14010  17847  20861  25962
 NILBUF        2 000002A0 00000001     H    4349  4346  22040B
 NILERR        2 00000B3C 00000001     H    6832  6794B
 NILLOOP       6 000002B4 00000001     I    4355  4357B
 NOD           3 00000003 00000001 A   #    1228  5567U  5614   5618   5680M  5681M  5681   5686   5785M  5786M  5786
                                                  5814M  5815M  5815   5872M  5873M  5873   6143M  6144M  6144   6154U
                                                  6206M  6207M  6207   6215U  6305M  6320U  6459   6461M  6539   6596M
                                                  6597M  6597   6665   6691   7118M  7119M  7119   7340M  7550   7551M
                                                  7552M  7577U  7613M  7630   7660M  7746   7747M  7748M  7789M  7806
                                                  7836M  8022U  8075   8076M  8077M  8373U  8459   8504M  8505M  9396U
                                                  9455M  9456M  9456   9529M  9530M  9530   9572M  9573M  9573   9574M
                                                  9575   9900M  9901M  9901   9911U 10228U 10295M 10296M 10306U 10311M
                                                 10334M 10335M 10335  10345U 10365M 10378U 10423M 10424M 10424  10434U
1FILEVCAT (FILEVC) (09:45) (22MAR04) Ordinary Symbol and Literal Cross Reference                                            Page  219
                                                 10444M 10462U 10487  10512M 10513M 10523U 10941M 10942M 10952U 11012M
                                                 11013M 11013  11023U 11460M 11470U 11537M 11538M 11538  11551U 11796M
                                                 11806U 11823M 11833U 11937M 11947U 12237M 12239  12298U 12324M 12325M
                                                 12325  12333U 13227M 13237U 13370M 13380U 14054U 14120M 14121M 14121
                                                 14154M 14155M 14155  14299M 14300M 14300  14391M 14392M 14392  14461M
                                                 14462M 14489M 14490M 14490  14555M 14556M 14556  14619M 14620M 14948M
                                                 14949M 15006M 15007M 15028M 15029M 15329M 15330M 15366M 15367M 15892M
                                                 15893M 16015M 16016M 16190M 16191M 16302M 16303M 16363M 16364M 16434M
                                                 16435M 16531M 16532M 16595M 16596M 16626M 16627M 16913M 16914M 16960M
                                                 16961M 17038M 17039M 17041M 17042M 17132M 17133M 17183M 17184M 17246M
                                                 17247M 17360M 17361M 17406M 17407M 17463M 17464M 17466M 17467M 17817M
                                                 17818M 17818  17886U 18053M 18054M 18073M 18074M 18340M 18341M 18342
                                                 18362M 18363M 18519M 18520M 18686M 18687M 18791M 18792M 18860M 18861M
                                                 19105M 19106M 19334M 19335M 19427M 19458  19459M 19477  19536  19537M
                                                 19581  19582M 19590  19603U 19637M 19638M 19731M 19732M 19923M 19924M
                                                 19951M 19952M 19983M 19984M 20063U 20124M 20125M 20126M 20139U 20189M
                                                 20224  20226M 20292  22479M 22489U 22537M 22547U 22583M 22594U 22763M
                                                 22773U 22941M 22942M 22942  22952U 23053M 23054M 23054  23064U 23121M
                                                 23122M 23122  23132U 23231M 23232M 23232  23242U 23930M 23931M 23931
                                                 23941U 24104M 24114U 24162M 24172U 24208M 24219U 24549M 24559U 24607M
                                                 24617U 24653M 24664U 24969M 24970M 24970  24980U 24990M 25004  25375M
                                                 25376M 25376  25386U 25805M
 NODBAL        2 00001FA0 00000001     H   14059  6899  25970
 NODBALPX      6 00002D24 00000001     I   17802 16297B
 NODBALX       6 00002D14 00000001     I   17796 15464B 16176B 16899B 17571B 17792B
 NODE          8 00000000 FFFFFFE4     J    3233  5567U  5683   5766   5788   5875   6215U  7144U  8022U  9396U  9911U
                                                 10345U 10398U 10434U 10523U 10749U 10952U 12333U 13380U 14054U 15104U
                                                 15210U 15601U 15618U 15737U 15754U 15946U 17886U 18251U 18952U 19623U
                                                 20063U 20334U 20520U 20571U 22773U 23132U 24784U 24980U 25239U
 NODFACC     128 00000006 FFFFFFE4         3187 10770  13431M 16281
 NODFEMT       8 00000006 FFFFFFE4         3207  6247   6247   6248  10537  12384  12384  12385M 12425M 12492M 15317
                                                 15317  15319  15319  16701  16701  16702M 16742M 16809M 19780  19780
                                                 19781M 19821M 19888M 19934  19934  19962  19962  19994  19994
 NODFFUL      16 00000006 FFFFFFE4         3202  6247   6247  12384  12384  12451M 12518M 14828  14828  15317  15317
                                                 15318  15318  15320M 16701  16701  16768M 16835M 19780  19780  19847M
                                                 19914M 19934  19934  19935M 19962  19962  19963M 19994  19994  19995M
 NODFL         1 00000006 FFFFFFE4     R    3183  3187   3192   3197   3202   3207   3212   3217   3222
 NODFLEAF     64 00000006 FFFFFFE4         3192  5697   5798   6285   7158   9464   9464   9538   9538  10359  15290
                                                 15318  15318  15319  15319  15353M 15390M 15903  16038M 16549  16649M
                                                 22785  22785
 NODFTRT      32 00000006 FFFFFFE4         3197  5830   7179   9464   9464   9465M  9538   9538   9539M 10793  12395
                                                 14134  14828  14828  14829  16266  16712  19791  22785  22785  22786M
 NODLEN        2 00000000 FFFFFFE4     H    3178 10963  13385M 16572  16603  17414  22793M 23143
 NODNTNUM      2 00000002 FFFFFFE4     H    3179  7197   9921   9922M 10441  10443M 10756  10758M 12413  14168  16317
                                                 16730  19809  20527  20529M 20579  20581M 22791  22792M 24794  24795M
                                                 24987  24989M 25247  25249M
 NODNTRYS      1 00000008 FFFFFFE4     X    3226  5766   6305   9574  10365  10444  10548  13386  14187  14463  14954
                                                 15008  15030  15110  15189  15216  15920  15952  16360  16404  16407
                                                 16475  16955  17001  17043  17165  17238  17294  17401  18134  18180
                                                 18364  18521  18619  18652  18727  18793  19006  19101  19146  19336
                                                 19425  19639  20126  22794  22820  24990
 NODSPACE      2 00000004 FFFFFFE4     H    3180 12335  12337M 13432M 13448M 14124  14425  14589  15109  15331  15368
                                                 15607  15743  16044  16403  16474  16654  16953  17000  17021  17040
                                                 17146  17223  17275  17400  17465  17468  18055  18075  18220  18257
                                                 18726  18862  18958  19145  19389  19733  19925  19953  19985  20524
                                                 20526M 20576  20578M 22819M
 NTCERROR      2 00001B9A 00000001     H   12533 11579B 11770B
 NTDERROR      2 0000187A 00000001     H   11286 10255B 10506B 10717B 10863B 10980B
 NTDPUSH       4 000015C6 00000001     I   10325 10384B
1FILEVCAT (FILEVC) (09:45) (22MAR04) Ordinary Symbol and Literal Cross Reference                                            Page  220
 NTFCODE       1 00000010 FFFFFFE3     R    3348  3352   3357   3362   3367   3372   3377
 NTFCRDT       4 00000013 FFFFFFE3     X    3469  8204   8225
 NTFFLGO       1 00000012 FFFFFFE3     R    3431  3439   3448   3457   3466
 NTFFLGP       1 00000011 FFFFFFE3     R    3382  3390   3399   3408   3417   3426
 NTFLNAME      1 00000020 FFFFFFE3     X    3473  6389   7340   7381   8180   9871M 10616  25805  25846
 NTFLNMSZ      1 0000001F FFFFFFE3     X    3472  6376   6420   7337   7346   8167   8678   9060   9859M 10601  25802
                                                 25811
 NTFLOC        3 0000000A FFFFFFE3     X    3344  7313   7337   7337  25778  25802  25802
 NTFLSDT       4 00000017 FFFFFFE3     X    3470  8247
 NTFOUND       2 00000A7C 00000001     H    6603  6438B
 NTGFLG        1 00000019 FFFFFFE3     R    3299  3307   3316   3325   3334
 NTGFLRB       2 00000015 FFFFFFE3     R    3295  6160   9557M  9835M 10234  11028M 22958M 23070M
 NTGMXSP       3 0000000F FFFFFFE3     X    3293  8138
 NTGNAME       5 0000000A FFFFFFE3     X    3292  6355   8135   8137   9834M 10579
 NTGUSSP       3 00000012 FFFFFFE3     X    3294  8139
 NTIERROR      2 00001550 00000001     H   10148  8434B  9445B  9519B  9610B  9795B  9954B
 NTLERROR      2 000012C4 00000001     H    9330  8884B  8990B  9099B  9164B
 NTMDEND       4 000036BA 00000001     I   20611 20625B
 NTMEXP        2 000036E0 00000001     I   20662 20722B
 NTMSCNT       2 0000363E 00000001     H   20437 20467B
 NTMSEND       4 0000373C 00000001     I   20803 20817B
 NTNOTFND      4 00000A82 00000001     I    6607  6476B
 NTPFLG        1 00000006 FFFFFFE1     R    3523  3531   3540   3549   3558   3567
 NTRY         32 00000000 FFFFFFE3     J    3482  5576U  6154U  6320U  6461   7307U  7332U  7339   7369U  7407U  7577U
                                                  7690   7866   8031U  8108U  8373U  8552U  8558   8571U  8602U  8619U
                                                  8812U  8845U  8862U  9013U  9116U  9134U  9551U  9811U 10228U 10306U
                                                 10378U 10462U 10470  10558U 10660U 10685U 10833U 11023U 11470U 11600U
                                                 11806U 11947U 12037U 12042  12064  12298U 13396U 13401M 13402M 13402
                                                 14197U 14353U 14965U 15040U 15128U 15152U 15184U 15234U 15258U 15930U
                                                 15970U 16238U 16417U 16488U 17073  17243  17895U 18153  18314  18337
                                                 18568  19061  19158U 19460  19538  19603U 20139U 20428U 20605U 20610
                                                 20624  20630  20797U 20802  20816  20822  22489U 22547U 22804U 22809M
                                                 22810M 22810  22843U 22952U 23064U 24114U 24172U 24339U 24364U 24559U
                                                 24617U 24820U 25014U 25106U 25131U 25269U 25772U 25797U 25804  25834U
                                                 25872U
 NTRYCHG       2 0000188A 00000001     H   11325 12549  25968
 NTRYDATB      2 00000006 FFFFFFE3     R    3286  7634   7646   7810   7822   8478   8490   9818M 11475  11518  11519
                                                 11812M 11953M 22559  24184  24629
 NTRYDATN      2 00000008 FFFFFFE3     R    3287  7661   7837   8506
 NTRYDEL       2 00001560 00000001     H   10183  5929   8343  25975
 NTRYEXP       2 00001AC4 00000001     I   12145 12205B
 NTRYFL       32 00000000 FFFFFFE3     R    3474  8680   8948   9053   9062   9750   9759  14654  17972  20865
 NTRYGR       26 00000000 FFFFFFE3     R    3338  8657   8931   9035   9732  14637  17956  20864
 NTRYIAFT      2 00001408 00000001     H    9693  5928   8345  25977
 NTRYINS       2 000012D4 00000001     H    9353  5927   8344  25976
 NTRYLAFT      2 00001162 00000001     H    8734  5926
 NTRYLEN       2 00000000 FFFFFFE3     R    3283  5593   5608   5684   5703   5876   6325   6460   7338   7413   7631
                                                  7689   7692M  7700   7807   7865   7868M  7876   8475   8557   8560M
                                                  8608   8818   8851   9105M  9140   9816M 10311  10468  10563  10665
                                                 10690  10839  12052  12058  12304M 14216  14238  14245  14343  14464
                                                 14465  14980  14987  15988  15991  16362  16433  17045  17239  18135
                                                 18290  18537  18550  18617  18654  18655  18853  18855  19007  19062
                                                 19100  19444  19456  19479  19522  19534  19583  19609  20173  20189
                                                 20225  20226  20293  20447  20453  20457  20458  20611  20803  22494
                                                 22849  24119  24345  24370  24564  24826  25020  25112  25137  25275
                                                 25803  25878
 NTRYLOOK      2 00001084 00000001     H    8379  5925   8342
 NTRYLOOX      2 000012C2 00000001     H    9325  8766B
 NTRYMOV       2 0000361E 00000001     H   20373 17853  20860
1FILEVCAT (FILEVC) (09:45) (22MAR04) Ordinary Symbol and Literal Cross Reference                                            Page  221
 NTRYOFFB      2 00000002 FFFFFFE3     R    3284  5765   6552   9817M 10312  10383  10666  10691M 14202  14275  14359
                                                 14466  14532  15046  15134M 15158M 15190  15240M 15264M 15976  15985
                                                 15986M 16423  16432M 16494  16503M 16956  16958M 17003  17005M 17402
                                                 17404  17405M 18351  18354  18355  18357  18358M 18735  18737  18738
                                                 18740  18741M 19164  19173  19174  19176  19177M 19647  19650  19651
                                                 19653  19654M 20157  20276
 NTRYSTRT      1 00000000 FFFFFFE3     X    3282  3338   3338   3474   3474
 NTRYVAR       1 0000000A FFFFFFE3     X    3288  3340
 NTRYXLEN      2 00000000 FFFFFFE2     R    3495  7677   7853   8522  11562  13243M 23253  23952  25397
 NTRYXPER      1 00000002 FFFFFFE2     X    3497  7680   7856   8525  11838  22600  24225  24670
 NTRYXST       1 00000000 FFFFFFE2     X    3494  3496
 NTRYXTND      2 00000000 FFFFFFE2     J    3504  7672U  7848U  8517U 11551U 11833U 13237U 22594U 23242U 23941U 24219U
                                                 24664U 25386U
 OL            2 00000002 FFFFFFEC A   N    2104  2105   2105   2391   2392   2427   2530   2540   2550   2560   2571
                                                  2581   2591   2601   2611   2621   2631   2690   2692   2694   2700
                                                  2702   2704   2710   2713   2715   2717   2723   2726   2728   2730
                                                  2737   2740   2742   2744   2753   2754   2758   2764   2775   2776
                                                  2780   2786   2792   2801   2802   2806   2812   2818   2821   2837
                                                  2854   2857   2858   3175   3283   3285   3287   3296   3495
 PARNTRY       2 0000356C 00000001     H   20068 17854  20858
 PGESZ         1 00001000 00000001 A   U    1968  1970
 PL            4 00000004 FFFFFFEC A   N    2105  3175   5765   6088   6114   6160   6175   6538   6552   6553   6664
                                                  6678   6679   6745   7122   7124   7595   7634   7646   7778   7810
                                                  7822   8478   8490   9191   9207   9270   9377   9466   9500   9557
                                                  9817   9818   9835   9977  10028  10038  10098  10312  10383  10413
                                                 10544  10691  10804  10903  11028  11046  11074  11134  11475  11518
                                                 11519  11812  11821  11953  14119  14202  14275  14322  14359  14466
                                                 14512  14532  15134  15158  15240  15264  15405  15406  15407  15502
                                                 15546  15575  15985  15986  16052  16055  16056  16057  16348  16432
                                                 16503  16846  16847  16848  16958  17005  17404  17405  17441  17457
                                                 17460  17461  17593  17596  17597  17598  17802  17803  17804  18354
                                                 18357  18358  18737  18740  18741  19173  19176  19177  19650  19653
                                                 19654  20157  20276  22410  22559  22676  22958  23070  23199  23355
                                                 23408  23563  23722  23899  24035  24184  24301  24480  24629  24746
                                                 24936  24942  25068  25201  25344  25556  25630
 PTR          15 0000000F 00000001 A   #    1267  5614M  5615M  5616   5617M  5618M  5619   5685M  5686M  5687   5818M
                                                  5819M  5820   6460M  6461   6539M  6540M  6541M  6542   7113M  7115
                                                  7133M  7134M  7134   7144U  7339M  7358M  7359M  7391   7427M  7429
                                                  7435M  7437   7598M  7599M  7600   7631M  7632   7677M  7679M  7691
                                                  7693   7807M  7808   7853M  7855M  7867   7869   8475M  8476   8522M
                                                  8524M  8559   8578   8685M  8953M  9034M  9036M  9052M  9054M  9080
                                                  9731M  9733M  9749M  9751M  9777  10468M 10469  10480  10738M 10739M
                                                 10739  10749U 11729M 11746M 11863M 11880M 11886  11888  11889M 12027M
                                                 12037U 12058M 12064M 12091  12093M 12145  12168M 12169  12202  12258M
                                                 12275M 12283  12285  12287M 13386M 13396U 14342M 14343M 14353U 14677M
                                                 14678M 14680M 14681  14716M 14717M 14719M 14721  15046M 15190M 15935M
                                                 15936M 15946U 15952M 15970U 15976M 16404M 16405  16407M 16417U 16423M
                                                 16475M 16476  16478M 16488U 16494M 16956M 17003M 17402M 17799M 17800M
                                                 17801  18109M 18110M 18127M 18128M 18145  18151M 18179M 18181M 18221
                                                 18240M 18241M 18251U 18257M 18266M 18301  18351M 18355M 18461M 18478M
                                                 18495M 18511  18517M 18560  18566M 18618M 18620M 18622  18735M 18738M
                                                 18880M 18898M 18915M 18929  18936  18941M 18942M 18952U 18958M 18978
                                                 19005M 19033  19060M 19148M 19158U 19164M 19174M 19276M 19293M 19310M
                                                 19326  19332M 19438  19647M 19651M 20593M 20605U 20624M 20630M 20662
                                                 20685M 20686  20719  20749M 20750  20786M 20787M 20797U 20816M 20822M
                                                 20833M 20834  22625M 22642M 22648  22650  22651M 22794M 22804U 23690M
                                                 23700U 23856M 23866U 24250M 24267M 24273  24275  24276M 24695M 24712M
                                                 24718  24720  24721M 25804M 25823M 25824M 25856  25892M 25894  25900M
                                                 25902
1FILEVCAT (FILEVC) (09:45) (22MAR04) Ordinary Symbol and Literal Cross Reference                                            Page  222
 PZTERMFL      1 0000021A FFFFFFEE     R    1918  1922   1927
 QR            4 00000004 00000001 A   #    1061  3819M  3820M  3821   3829M  3830M  3831   3915M  3916M  3917   4160M
                                                  4161M  4162   4362M  4363M  4364   4545M  4546M  4547   4555M  4556M
                                                  4557   4625M  4626M  4627   4810M  4811M  4812   4884M  4885M  4886
                                                  5585U  5610M  5611M  5612M  5612   5676M  5677M  5678M  5678   5730M
                                                  5731M  5732   5744   5756M  5757M  5757   5782M  5783M  5784M  5784
                                                  5848M  5849M  5850M  5850   5869M  5870M  5871M  5871   6376M  6380M
                                                  6382   6413M  6415M  6421   6493U  6503M  6504M  6505   6517   6529M
                                                  6530M  6530   6619U  6629M  6630M  6631   6643   6655M  6656M  6656
                                                  6854M  6858   7313M  7346M  7348   7379M  7381   7590U  7678M  7679
                                                  7689M  7690   7691M  7692   7773U  7854M  7855   7865M  7866   7867M
                                                  7868   7905M  7906M  7907M  7907   7917U  8098M  8108U  8523M  8524
                                                  8557M  8558   8559M  8560   8686M  8689   9067M  9068M  9080   9575M
                                                  9576M  9577   9856M  9858M  9859   9862M  9864   9920M  9921M  9922
                                                 10469M 10488  10601M 10607M 10609  10666M 11234M 11236  11968M 12010
                                                 12012M 12021M 12082M 12082  12090  12119M 12119  12125  12128  12140M
                                                 12156  12163M 12168  12173M 12175  12192M 12211M 12336  13549M 13550M
                                                 13551  13563  13586  13735M 13736M 13737  13749  13773  13856M 13857M
                                                 13858  13870  13894  14185M 14186  14214  14215M 14244  14273  14274M
                                                 14276  14280M 14281M 14282  14368  14372M 14373M 14374  14470M 14471M
                                                 14472  14536M 14537M 14538  14863M 14864M 14865  14910M 14911M 14912
                                                 14986M 15003  15055M 15056M 15104U 15110M 15128U 15199M 15200M 15210U
                                                 15216M 15234U 15408M 15409M 15410  15499M 15500M 15501  15543M 15544M
                                                 15545  15581M 15607M 15625  15717M 15743M 15761  15846M 15847M 15848
                                                 16043M 16044M 16045  16060M 16063M 16064M 16065  16849M 16850M 16851
                                                 17045M 17046  17066  17072  17073  17239M 17241  17242  17243  17248M
                                                 17249M 17275  17502M 17503M 17504M 17505  17683M 17686M 17687M 17688
                                                 18135M 18145  18151  18152  18153  18290M 18291  18313  18314  18336
                                                 18337  18501M 18511  18517  18518  18550M 18560  18566  18567  18568
                                                 19007M 19008  19033  19060  19061  19062M 19071M 19071  19089  19316M
                                                 19326  19332  19333  19456M 19457  19460  19534M 19535  19538  20418M
                                                 20428U 20457M 20490M 20499M 20499  20595M 20642  20645  20657M 20673
                                                 20680M 20685  20690M 20692  20709M 20728M 22790M 22791M 22792  24395M
                                                 24412M 24420  24422  24793M 24794M 24795  24851M 24868M 24876  24878
                                                 24987M 24988M 24989  25247M 25248M 25249  25778M 25811M 25813  25844M
                                                 25846
 RAR           9 00000009 00000001 A   #    1126  3663   3727M  3728M  3728B  3744   3753M  3800M  3893M  3905M  3906M
                                                  3906B  3926M  3971M  3972M  3972B  3994M  3995M  3995B  4009M  4011B
                                                  4027   4035M  4056M  4057M  4057B  4101M  4102M  4102B  4172M  4204M
                                                  4206B  4218   4227M  4248M  4249M  4249B  4267M  4269B  4283   4292M
                                                  4313M  4314M  4314B  4332M  4334B  4350   4374M  4415M  4416M  4416B
                                                  4438M  4439M  4439B  4453M  4455B  4467   4499M  4526M  4599M  4611M
                                                  4612M  4612B  4639M  4686M  4687M  4687B  4709M  4710M  4710B  4724M
                                                  4726B  4738   4747M  4768M  4769M  4769B  4793M  4794M  4794B  4825M
                                                  4857M  4859B  4869   4896M  4927M  4929B  5011B  5081B  5088   5092M
                                                  5101M  5104B  5149M  5237M  5257M  5258M  5258B  5276M  5279M  5280M
                                                  5280B  5350M  5368M  5388M  5389M  5389B  5407M  5410M  5411M  5411B
                                                  5467M  5485M  5499M  5500M  5500B  5590   5661M  5666M  5666B  5673
                                                  5778M  5839M  5842B  5865M  5993B  6015   6123M  6124M  6124B  6140M
                                                  6203M  6256M  6257M  6257B  6568M  6569M  6569B  6593M  6758M  6760B
                                                  6784M  6785M  6785B  6836M  6837M  6837B  6845   6851M  6856B  6859M
                                                  6863B  6872M  6873M  6873B  6889M  6890M  6890B  6974M  7010M  7019M
                                                  7057M  7075M  7095M  7096M  7096B  7235M  7240M  7241M  7241B  7276M
                                                  7279M  7280M  7280B  7440M  7441M  7441B  7466M  7538M  7554M  7657M
                                                  7710M  7734M  7750M  7833M  7886M  7888M  7932M  7944M  8054M  8063M
                                                  8079M  8291M  8293M  8381   8501M  8698M  8703B  8736   8874M  8875M
                                                  8875B  9154M  9155M  9155B  9198M  9223M  9243M  9301M  9317M  9333M
                                                  9335B  9355   9435M  9436M  9436B  9490M  9509M  9510M  9510B  9657M
                                                  9662B  9695   9944M  9945M  9945B 10036M 10060M 10080M 10120M 10136M
1FILEVCAT (FILEVC) (09:45) (22MAR04) Ordinary Symbol and Literal Cross Reference                                            Page  223
                                                 10151M 10153B 10185  10270M 10331M 10420M 10496M 10497M 10497B 10707M
                                                 10708M 10708B 10853M 10854M 10854B 10970M 10971M 10971B 11002M 11044M
                                                 11068M 11096M 11116M 11156M 11172M 11248M 11263M 11274M 11289M 11291B
                                                 11327  11427M 11527M 11569M 11570M 11570B 11760M 11761M 11761B 11786M
                                                 12536M 12538B 12602  12678M 12736M 12737M 12737B 12818M 12876M 12877M
                                                 12877B 12939M 12940M 12940B 13021M 13022M 13022B 13077M 13078M 13078B
                                                 13169M 13270M 13271M 13271B 13335M 13336M 13336B 13475M 13477B 13496
                                                 13527M 13543M 13544M 13544B 13614M 13616B 13641  13664M 13665M 13665B
                                                 14002M 14004B 14061  14111M 14146M 14231M 14232M 14232B 14290M 14382M
                                                 14480M 14546M 14856M 14874M 14875M 14875B 14899M 14921M 14922M 14922B
                                                 14946M 15018M 15019M 15019B 15402M 15414M 15426M 15438M 15450M 15462M
                                                 15686M 15822M 15857M 15858M 15858B 15882M 15886M 15887M 15887B 16001M
                                                 16002M 16002B 16047M 16079M 16094M 16109M 16114M 16126M 16138M 16150M
                                                 16162M 16174M 16290M 16291M 16291B 16516M 16517M 16517B 16529M 16530M
                                                 16530B 16579M 16580M 16580B 16610M 16611M 16611B 16865M 16877M 16889M
                                                 16911M 16912M 16912B 17036M 17037M 17037B 17111M 17112M 17112B 17158M
                                                 17159M 17159B 17175M 17176M 17176B 17287M 17288M 17288B 17308M 17309M
                                                 17309B 17336M 17337M 17337B 17353M 17354M 17354B 17421M 17422M 17422B
                                                 17471M 17485M 17500M 17509M 17521M 17533M 17545M 17557M 17569M 17587M
                                                 17628M 17647M 17677M 17692M 17704M 17731M 17747M 17774M 17790M 17815M
                                                 17835M 17837B 17902  17931M 17932M 17932B 18374M 18375M 18375B 18402M
                                                 18403M 18403B 18419M 18420M 18420B 18754M 18755M 18755B 18785M 18786M
                                                 18786B 18805M 18806M 18806B 19190M 19191M 19191B 19222M 19223M 19223B
                                                 19239M 19240M 19240B 19667M 19668M 19668B 19695M 19696M 19696B 19712M
                                                 19713M 19713B 20030M 20032B 20182M 20183M 20183B 20285M 20286M 20286B
                                                 20341B 20855B 21046B 21497B 21905B 21963  22004M 22005M 22005B 22040M
                                                 22216M 22218B 22222M 22223M 22223B 22292M 22293M 22293B 22329M 22330M
                                                 22330B 22384M 22385M 22385B 22426M 22467M 22468M 22468B 22512M 22513M
                                                 22513B 22568M 22569M 22569B 22665M 22687M 22715M 22716M 22716B 22728M
                                                 22729M 22729B 22877M 22878M 22878B 22903M 22920M 22977M 23009M 23010M
                                                 23010B 23038M 23089M 23106M 23150M 23151M 23151B 23185M 23215M 23260M
                                                 23261M 23261B 23296M 23321M 23339M 23369M 23374M 23375M 23375B 23390M
                                                 23391M 23391B 23401M 23402M 23402B 23419M 23463M 23475M 23494M 23506M
                                                 23536M 23548M 23574M 23603M 23615M 23630M 23642M 23657M 23669M 23733M
                                                 23762M 23774M 23789M 23801M 23816M 23836M 23915M 23959M 23960M 23960B
                                                 24013M 24051M 24092M 24093M 24093B 24137M 24138M 24138B 24193M 24194M
                                                 24194B 24290M 24312M 24436M 24437M 24437B 24462M 24496M 24537M 24538M
                                                 24538B 24582M 24583M 24583B 24638M 24639M 24639B 24735M 24757M 24892M
                                                 24893M 24893B 24918M 24953M 25036M 25037M 25037B 25062M 25079M 25153M
                                                 25154M 25154B 25179M 25212M 25300M 25301M 25301B 25326M 25360M 25404M
                                                 25405M 25405B 25440M 25469M 25479M 25508M 25509M 25509B 25571M 25572M
                                                 25572B 25586M 25617M 25618M 25618B 25670M 25671M 25671B 25685M 25686M
                                                 25686B 25730M 25744M 25745M 25745B 25905M 25906M 25906B 25935M 25950M
                                                 25951M 25951B
 RELNODE       2 00001E82 00000001     H   13639 12551  17855  25969
 RENLEAF     128 000001A2 FFFFFFEA         2865  7169M
 RENRTDL      64 000001A2 FFFFFFEA         2870  7209M
 RNERROR       2 00001F68 00000001     H   13999 13678B
 RQB           4 00000000 FFFFFFE9     F    2918  3628U
 RQBFBR2       4 00000014 FFFFFFE9     A    2926  6844M  6860
 RQBLBR2       4 00000018 FFFFFFE9     A    2927  3658M  5090   5095M  6852
 RQBLCCRD      6 00000088 FFFFFFE9     C    2967  8235M  8236M  8237M
 RQBLCLSD      6 0000008E FFFFFFE9     C    2968  8257M  8258M  8259M
 RQBLCRDT      4 00000088 FFFFFFE9     A    2963  8204M
 RQBLFLG1      1 0000002C FFFFFFE9     R    2935  2939   2944   2949
 RQBLMXSP      4 00000062 FFFFFFE9     X    2957  8134M  8134   8138M
 RQBLNAME     44 0000005C FFFFFFE9     C    2955  2956   5941   5942   5943   7002   7002M  7003   7004   7004M  8135M
                                                  8136M  8137M  8155M  8156   8156M  8156   8157M  8158M  8159M  8160M
                                                  8161M  8180M
1FILEVCAT (FILEVC) (09:45) (22MAR04) Ordinary Symbol and Literal Cross Reference                                            Page  224
 RQBLRNAM     44 00000030 FFFFFFE9     C    2954  7002   7003   7003M  7004
 RQBLR1        4 00000010 FFFFFFE9     A    2924  3920M  3946   4165M  4192   4368M  4394   4633M  4818M  4845   4889M
                                                  4916
 RQBLR14       4 0000000C FFFFFFE9     A    2923  3918M  3948   4163M  4194   4258M  4322M  4365M  4396   4628M  4663
                                                  4813M  4847   4887M  4918
 RQBLSPTR      4 00000028 FFFFFFE9     A    2931  8093M  8287  22090M 22150
 RQBLUSSP      4 00000066 FFFFFFE9     X    2958  8139M
 RQBLWAR       4 0000001C FFFFFFE9     A    2928  3659M  5091   5094M  6853
 RQBLWORK     16 00000088 FFFFFFE9     C    2961  2962   2966
 RQBLWR2       4 00000020 FFFFFFE9     A    2929  8094   8286M 22091  22149M
 RQBR          5 00000005 00000001 A   #    1074  3628U
 RQBRTN2       4 00000008 FFFFFFE9     A    2922  6845M  6859
 RQFCLP       64 0000002C FFFFFFE9         2944  8197
 RQFIOER     128 0000002C FFFFFFE9         2939  3936   4182   4384   4649   4835   4906
 RQFNNOD      32 0000002C FFFFFFE9         2949  5626M  5647M
 R0            0 00000000 FFFFFFFF A   #     716  3883   3919M  3920   3922M  3946M  3947M  3985   4092   4111   4164M
                                                  4165   4167M  4192M  4193M  4366M  4367M  4368   4370M  4394M  4395M
                                                  4429   4481   4589   4619   4635M  4662M  4700   4784   4803   4820M
                                                  4845M  4846M  4874M  4874   4888M  4889   4891M  4916M  4917M  4960
                                                  4989   5025M  5076   5772M  5859M  6039   6134M  6197M  6587M  6988
                                                  7051M  7073M  7274M  7413M  7429M  7437M  7536M  7627M  7627   7628M
                                                  7651M  7700M  7732M  7803M  7803   7804M  7827M  7876M  7926M  8225M
                                                  8247M  8456M  8456   8457M  8495M  8608M  8689M  8851M  9068   9092
                                                  9105   9217M  9237M  9295M  9452   9487M  9526   9649M  9649   9650M
                                                  9652M  9765   9788M  9788   9816  10054M 10074M 10114M 10268M 10325M
                                                 10418M 10486M 10486  10690M 10703M 10703  10821M 10821  10963M 10999M
                                                 11062M 11090M 11110M 11150M 11213M 11242M 11251M 11396M 11396  11414M
                                                 11414  11417  11425M 11524M 11562M 11777  12672M 12812M 13163M 13302M
                                                 13319M 13385  13465M 13521M 13530M 13546M 14109M 14144M 14287M 14379M
                                                 14477M 14543M 14847M 14891  14938  15420M 15432M 15444M 15684M 15820M
                                                 15874  16070M 16085M 16100M 16120M 16132M 16144M 16156M 16572M 16603M
                                                 16859M 16871M 16883M 17414M 17476M 17491M 17515M 17527M 17539M 17551M
                                                 17619M 17638M 17668M 17698M 17725M 17741M 17768M 17809M 20947M 20947
                                                 20948M 20949  20956M 21024  21026M 21027  21123M 21123  21148M 21148
                                                 21154M 21155M 21167  21213  21242  21277  21320M 21320  21321M 21322M
                                                 21334  21382  21404  21410  21460  21474  21541M 21542M 21554M 21554
                                                 21566  21614  21724  21776  21883M 21884  22133M 22134M 22134  22298M
                                                 22300M 22420M 22461M 22529  22659M 22681M 22708M 22725M 22793  22849M
                                                 22861  22863M 22873M 22873  22897M 22914M 22971M 23032M 23083M 23100M
                                                 23143M 23179M 23209M 23253M 23290M 23318M 23336M 23360M 23413M 23454M
                                                 23469M 23485M 23500M 23527M 23542M 23568M 23594M 23609M 23621M 23636M
                                                 23648M 23663M 23727M 23753M 23768M 23780M 23795M 23810M 23830M 23909M
                                                 23952M 24007M 24045M 24086M 24154  24284M 24306M 24370M 24420  24422M
                                                 24432M 24432  24456M 24490M 24531M 24599  24729M 24751M 24826M 24876
                                                 24878M 24888M 24888  24912M 24947M 25003M 25003  25032M 25032  25056M
                                                 25073M 25137M 25149M 25149  25173M 25206M 25288M 25288  25296M 25296
                                                 25320M 25354M 25397M 25434M 25456M 25458M 25477M 25538M 25558M 25651M
                                                 25728M 25878M 25894M 25902M
 R1            1 00000001 FFFFFFFF A   #     729  5054M  5055M  5058M  5060   6854   6858M  7699M  7875M  8229M  8229
                                                  8235   8236   8237   8251M  8251   8257   8258   8259   8584M  8602U
                                                  8688M  8827M  8845U  9453   9527   9651M  9811U 10482M 10675M 10685U
                                                 10817M 10967M 11416  11566M 11778  11823  12729M 12869M 13014M 13328M
                                                 13370  14892  14939  15012M 15013M 15875  15995M 15996M 16510M 16511M
                                                 16523M 16524M 16576M 16607M 17030M 17031M 17105M 17106M 17169M 17170M
                                                 17302M 17303M 17330M 17331M 17347M 17348M 17418M 18368M 18369M 18396M
                                                 18397M 18413M 18414M 18748M 18749M 18779M 18780M 18799M 18800M 19184M
                                                 19185M 19216M 19217M 19233M 19234M 19661M 19662M 19689M 19690M 19706M
                                                 19707M 20520U 21091  21134M 21134  21253M 21283  21412M 21413M 21540
                                                 21543M 21566  21614M 21615M 21627  21683M 21684M 21694  21723M 21724M
1FILEVCAT (FILEVC) (09:45) (22MAR04) Ordinary Symbol and Literal Cross Reference                                            Page  225
                                                 21734  21885M 22115M 22126U 22297M 22530  22583  22721M 22763  22833M
                                                 22843U 23147M 23257M 23956M 24155  24208  24354M 24364U 24600  24653
                                                 24810M 24820U 24999M 25121M 25131U 25284M 25401M 25457M
 R14          14 0000000E FFFFFFFF A   #     898  3924M  3953M  3954M  3954   4108M  4109M  4109   4170M  4372M  4397M
                                                  4398M  4398   4637M  4668M  4669M  4669   4800M  4801M  4801   4823M
                                                  4877M  4878M  4878   4894M  4948M  4948   5005M  5010M  5010   5092B
                                                  5165M  5165   5210M  5250M  5344M  5381M  5461M  5527M  5751M  6524M
                                                  6650M  6968M  6995M  7032M  7088M  7621M  7626M  7628M  7702M  7797M
                                                  7802M  7804M  7878M  8434M  8450M  8455M  8457M  8818M  8990M  9099M
                                                  9140M  9432M  9432   9506M  9506   9610M  9643M  9648M  9650M  9795M
                                                  9938M  9938  10255M 10488M 10492M 10492  10665M 10839M 11370M 11370
                                                 11415M 11415  11419  11753M 12629M 12629  13118  13205  13512M 13694
                                                 13971  14871M 14871  14918M 14918  15854M 15854  20941M 20946M 20948M
                                                 21110M 21469M 21474M 21476M 21490M 21573M 21609M 21634M 21701M 21741M
                                                 21898M 22299M 22300M 22505M 22824M 22824  22872M 22872  24130M 24345M
                                                 24431M 24431  24575M 24809M 24809  24887M 24887  25020M 25031M 25031
                                                 25112M 25148M 25148  25275M 25295M 25295  25454M 25458M
 R15          15 0000000F FFFFFFFF A   #     911  3779M  3779   3871M  3871   4004M  4004   4010M  4010   4071M  4071
                                                  4168M  4199M  4199   4205M  4205   4262M  4262   4268M  4268   4327M
                                                  4327   4333M  4333   4448M  4448   4454M  4454   4629M  4631M  4632M
                                                  4633   4719M  4719   4725M  4725   4815M  4816M  4817M  4818   4821M
                                                  4852M  4852   4858M  4858   4892M  4922M  4922   4928M  4928   5185M
                                                  5185   5209M  5249M  5343M  5380M  5460M  5526M  5665M  5665   5750M
                                                  5776M  5776   5840M  5841M  5841   5863M  5863   6138M  6138   6187M
                                                  6201M  6201   6523M  6591M  6591   6605M  6605   6607M  6649M  6721M
                                                  6721   6759M  6759   6776   6800M  6825   6855M  6855   6967M  6994M
                                                  7031M  7055M  7055   7087M  7655M  7655   7706M  7706   7831M  7831
                                                  7882M  7882   7930M  7930   7955M  7972M  8230M  8252M  8283M  8283
                                                  8299M  8316M  8433M  8499M  8499   8702M  8702   8763M  8763   8780M
                                                  8780   8801M  8802M  8812U  8989M  9098M  9123M  9124M  9134U  9221M
                                                  9221   9241M  9241   9299M  9299   9327M  9327   9334M  9334   9488M
                                                  9609M  9661M  9661   9794M  9933M  9934M  9934  10058M 10058  10078M
                                                 10078  10118M 10118  10145M 10145  10152M 10152  10254M 10329M 10329
                                                 10487M 10649M 10650M 10650  10660U 10822M 10823M 10833U 10960M 11000M
                                                 11066M 11066  11094M 11094  11114M 11114  11154M 11154  11246M 11246
                                                 11283M 11283  11290M 11290  11418  11525M 11559M 12530M 12530  12537M
                                                 12537  12643M 12643  12672  12676M 12676  12759  12765M 12783M 12783
                                                 12816M 12816  12899  12905M 12923M 12923  13044  13050M 13068M 13068
                                                 13167M 13167  13358  13364M 13469M 13469  13476M 13476  13511M 13525M
                                                 13525  13609M 13609  13615M 13615  13677M 13996M 13996  14003M 14003
                                                 14288M 14380M 14478M 14544M 14854M 15014M 15015M 15424M 15424  15436M
                                                 15436  15448M 15448  15997M 15998M 16077M 16092M 16107M 16124M 16124
                                                 16136M 16136  16148M 16148  16160M 16160  16512M 16513M 16525M 16526M
                                                 16569M 16600M 16863M 16863  16875M 16875  16887M 16887  17032M 17033M
                                                 17107M 17108M 17171M 17172M 17304M 17305M 17332M 17333M 17349M 17350M
                                                 17411M 17483M 17498M 17519M 17519  17531M 17531  17543M 17543  17555M
                                                 17555  17626M 17645M 17675M 17702M 17702  17729M 17729  17745M 17745
                                                 17772M 17772  17813M 17813  17829M 17829  17836M 17836  18370M 18371M
                                                 18398M 18399M 18415M 18416M 18750M 18751M 18781M 18782M 18801M 18802M
                                                 19186M 19187M 19218M 19219M 19235M 19236M 19663M 19664M 19691M 19692M
                                                 19708M 19709M 20024M 20024  20031M 20031  20571U 20848M 20848  20854M
                                                 20854  21031M 21031  21045M 21045  21109M 21132M 21132  21173M 21299M
                                                 21340M 21366M 21487M 21487  21496M 21496  21578  21591  21616M 21617M
                                                 21627  21895M 21895  21904M 21904  21909M 21913M 21917M 22211M 22211
                                                 22217M 22217  22296M 22297  22307M 22320  22345B 22424M 22424  22509M
                                                 22663M 22663  22685M 22685  22751  22757M 22820M 22901M 22901  22918M
                                                 22918  22975M 22975  23036M 23036  23087M 23087  23104M 23104  23140M
                                                 23183M 23183  23213M 23213  23250M 23294M 23294  23319M 23337M 23367M
                                                 23417M 23417  23461M 23473M 23473  23492M 23504M 23504  23534M 23546M
1FILEVCAT (FILEVC) (09:45) (22MAR04) Ordinary Symbol and Literal Cross Reference                                            Page  226
                                                 23546  23572M 23572  23601M 23613M 23613  23628M 23640M 23640  23655M
                                                 23667M 23667  23731M 23731  23760M 23772M 23772  23787M 23799M 23799
                                                 23814M 23814  23834M 23834  23913M 23913  23949M 24011M 24011  24049M
                                                 24049  24134M 24288M 24288  24310M 24310  24328M 24329M 24329  24339U
                                                 24460M 24460  24494M 24494  24579M 24733M 24733  24755M 24755  24773M
                                                 24774M 24774  24784U 24804M 24805M 24805  24916M 24916  24951M 24951
                                                 25004M 25014U 25060M 25060  25077M 25077  25095M 25096M 25096  25106U
                                                 25177M 25177  25210M 25210  25228M 25229M 25229  25239U 25258M 25259M
                                                 25259  25269U 25324M 25324  25358M 25358  25394M 25438M 25438  25455M
                                                 25457  25486M 25499  25515B 25595M 25608  25624B 25943M 25943
 R2            2 00000002 FFFFFFFF A   #     742  3688   3848M  3900   4352M  4357   4574M  4606   4986M  5004  21462
                                                 21463M 21469  21475M 21475  21476M 21477M 22259M 22288
 R3            3 00000003 FFFFFFFF A   #     755  3810M  3810   3849M  4353M  4536M  4536   4575M  4970M  4970   4987M
                                                  5036M  5036   5048   5054  22260M
 R4            4 00000004 FFFFFFFF A   #     768  3850M  3900M  4354M  4357M  4576M  4606M  4966M  4988M  5004M  5048
                                                  5055  21462M 21477  22261M 22288M
 SETREAD1      1 00000000 00000003     T    5922  5922
 SETWRIT1      1 00000000 00000004     T    5923  5923
 SIZ          15 0000000F 00000001 A   #    1345 21182M 21182  21230  21242  21254M 21277  21372M 21382  21404  21410M
                                                 21411  21413  21459M 21460M 21461  21822M 21823M 21824  21833M 21834M
                                                 21845  21875  21876M 21877M 21878
 SR            2 00000002 00000001 A   #    1035  8096M  8230   8252
 TABLE1        4 00003BD2 00000001     I   22346 22345B
 TABLE2        4 000044E4 00000001     I   25516 25515B
 TABLE3        4 0000455E 00000001     I   25625 25624B
 TRAVERSE      2 0000097A 00000001     H    6221  6598B
 VCATCOM       2 00000030 00000001     H    3685  3683
 VCATENT       4 00000016 00000001     I    3658  3657
 VIOFREE       1 7FFFFF00 00000001 A   U    2025  5921
 VIOLOCK       1 000000FF 00000001 A   U    2026  5920  25960
 VKAPUT        1 00000000 00000002     T    5919  5919   6897  14012  17848  20862  25959
 VWTOMSG1     43 00000000 FFFFFFDF     J   22111 22116  22126U 25978
 WAR           8 00000008 00000001 A   #    1113  3659   5091M  5094   6853M
 WR           13 0000000D 00000001 A   #    1178  3662   3663   3664M  3664   3744   3745M  3745   4008M  4009   4027
                                                  4028M  4028   4203M  4204   4218   4219M  4219   4266M  4267   4283
                                                  4284M  4284   4331M  4332   4350   4351M  4351   4452M  4453   4467
                                                  4468M  4468   4619   4620M  4620   4661M  4662   4723M  4724   4738
                                                  4739M  4739   4856M  4857   4869   4870M  4870   4926M  4927   5087
                                                  5088   5089M  5089   5099M  5100   5101   5590   5591M  5591   5660M
                                                  5661   5673   5674M  5674   5838M  5839   6015   6016M  6016   6757M
                                                  6758   6849M  6850   6851   8093   8094M  8286   8287M  8380   8381
                                                  8382M  8382   8696M  8697   8698   8735   8736   8737M  8737   9331M
                                                  9332   9333   9354   9355   9356M  9356   9655M  9656   9657   9694
                                                  9695   9696M  9696  10149M 10150  10151  10184  10185  10186M 10186
                                                 11287M 11288  11289  11326  11327  11328M 11328  12534M 12535  12536
                                                 12601  12602  12603M 12603  12723  12724M 12724  12773M 12774  12863
                                                 12864M 12864  12913M 12914  13008  13009M 13009  13058M 13059  13141
                                                 13142M 13142  13173M 13174  13473M 13474  13475  13496  13497M 13497
                                                 13613M 13614  13640  13641  13642M 13642  14000M 14001  14002  14060
                                                 14061  14062M 14062  17833M 17834  17835  17901  17902  17903M 17903
                                                 20028M 20029  20030  20069  20070M 20070  20339M 20340  20374  20375M
                                                 20375  20852M 20853  20914  20915M 20915  21043M 21044  21072  21073M
                                                 21073  21494M 21495  21521  21522M 21522  21902M 21903  21962  21963
                                                 21964M 21964  22090  22091M 22149  22150M 22214M 22215  22216
 =A(-CDSKLLIM)
               4 00003A98 00000001     A   21946 21155  21322  21542  21579
 =A(-1)        4 00000BB0 00000001     A    6898  6187
 =A(ACCMODE)
               4 00000BA4 00000001     A    6895  6039
1FILEVCAT (FILEVC) (09:45) (22MAR04) Ordinary Symbol and Literal Cross Reference                                            Page  227
 =A(CATNMR)
               4 00000BC0 00000001     A    6902  6784
 =A(CATSRCH)
               4 00004690 00000001     A   25973 25571  25670
 =A(CCHKDBAL)
               4 0000468C 00000001     A   25972 25499
 =A(CCHKNTDL)
               4 00004660 00000001     A   25961 22320
 =A(CCHKREN)
               4 00004694 00000001     A   25974 25608
 =A(CCHKSTK)
               4 00000884 00000001     A    5930  5744
 =A(CCHKSTK)
               4 00000BB8 00000001     A    6900  6517   6643
 =A(CDIRDFM)
               4 00001F98 00000001     A   14015 13677
 =A(CDIRDGM)
               4 00001F80 00000001     A   14009 12765  12905  13050  13364
 =A(CDIRDGM)
               4 00004678 00000001     A   25967 22757
 =A(CDSKLLIM-1)
               4 00003A94 00000001     A   21945 21154  21321  21541
 =A(CDSKNIL)
               4 00003A90 00000001     A   21944 20950  20989  21011  21197  21360  21444  21671  21717  21763  21811
                                                 21864
 =A(CDSKSERR)
               4 00001F7C 00000001     A   14008 12759  12899  13044  13358
 =A(CDSKSERR)
               4 00004674 00000001     A   25966 22751
 =A(CHKRECER)
               4 00004688 00000001     A   25971 23390
 =A(DIRNMR)
               4 00000BBC 00000001     A    6901  6776   6825
 =A(DSKFREE)
               4 00001F94 00000001     A   14014 13664
 =A(DSKGET)
               4 00001F78 00000001     A   14007 12736  12876  13021  13335
 =A(DSKGET)
               4 00004670 00000001     A   25965 22728
 =A(DSKINIT)
               4 00001F90 00000001     A   14013 13543
 =A(DSKINIT)
               4 00004668 00000001     A   25963 22467  22715  24092  24537
 =A(FILEMODE)
               4 00001058 00000001     A    8341  6988
 =A(FILEVCAT)
               4 00000854 00000001     A    5918  3703
 =A(GETBLOCK)
               4 00001F88 00000001     A   14011 12939  13270
 =A(GETNODE)
               4 00001BB8 00000001     A   12550  9435   9509  11760
 =A(GETNODE)
               4 00002D74 00000001     A   17852 14874  14921  15857
 =A(GETNODE)
               4 0000466C 00000001     A   25964 22512  24137  24582
 =A(NODBAL)
               4 00000BB4 00000001     A    6899  6256
 =A(NODBAL)
               4 00004684 00000001     A   25970 23374
