1                        J E S 2  J O B  L O G  --  S Y S T E M  S Y S B  --  N O D E  R L G
0
 09.48.08 JOB05988 ---- MONDAY,    22 MAR 2004 ----
 09.48.08 JOB05988  ICH70001I GG$PJG   LAST ACCESS AT 09:47:53 ON MONDAY, MARCH 22, 2004
 09.48.09 JOB05988  $HASP373 PJG#VLDR STARTED - INIT 2    - CLASS E - SYS SYSB
 09.48.09 JOB05988  ***  HCMD      STEP $$QUIET
 09.48.09 JOB05988  PURGE * Q=OUTPUT MULTIPLE
 09.48.09 JOB05988  JOB PJG#VLDR NOT IN OUTPUT QUEUE
 09.48.10 JOB05988  PJG#VLDR.$$QUIET .         RC=0008 TapeIO=0000 DiskIO=0000 CPU=  .01s Elapsed=89.01s
 09.48.10 JOB05988  PJG#VLDR.$CND    .         RC=Zero TapeIO=0000 DiskIO=0003 CPU=  .01s Elapsed=90.06s
 09.48.10 JOB05988  PJG#VLDR.$UNP    .         RC=Zero TapeIO=0000 DiskIO=0036 CPU=  .06s Elapsed=90.22s
 09.48.16 JOB05988  PJG#VLDR.ASM     .         RC=Zero TapeIO=0000 DiskIO=0319 CPU= 1.86s Elapsed=90.50s
 09.48.18 JOB05988  PJG#VLDR.$EDIT   .         RC=Zero TapeIO=0000 DiskIO=0122 CPU=  .50s Elapsed=96.78s
 09.48.18 JOB05988  PJG#VLDR Ended.  Name=Module: VLDR                   Total CPU= 2.44s Elapsed=89.01s
 09.48.18 JOB05988
 09.48.18 JOB05988  Execution charges   Priority=Standard   Block=Day
 09.48.18 JOB05988
 09.48.18 JOB05988  CPU Usage          45.00          $27.90   Standard Processing Unit Equivalent
 09.48.18 JOB05988                                   =======
 09.48.18 JOB05988                                    $27.90   Total Job execution charge
 09.48.18 JOB05988
 09.48.18 JOB05988  See back separator page for print charges
 09.48.18 JOB05988
 09.48.18 JOB05988  $HASP395 PJG#VLDR ENDED  ASM=0
1        1 //PJG#VLDR JOB PJG$GG,'Module: VLDR',TIME=1,MSGCLASS=C                  JOB05988
           /*JOBPARM HOLD=OUTPUT,LINES=50,CHARS=TN15,NOTIFY=YES
         2 //       EXEC PURGEOLD
         3 XXPURGEOLD PROC
           XX*
           XX* This proc is maintained by Jim Stosick
           XX*
         4 XX$$QUIET  EXEC PGM=HCMDX,PARM='PURGE * Q=OUTPUT MULTIPLE',
           XX         ACCT=(PURGEOLD,SYS3)
         5 //$CND   EXEC PGM=BILBO,REGION=512K,PARM='RECS=100'
         6 //STEPLIB  DD DSN=WYL.GG.ORV.LINKLIB,DISP=SHR
         7 //SYSPRINT DD SYSOUT=$
         8 //SYSUT1   DD DSN=WYL.GG.PJG.OBJ,DISP=OLD
         9 //SYSUT2   DD DSN=WYL.GG.PJG.OBJ,DISP=OLD
        10 //SYSIN    DD DUMMY
        11 //$UNP   EXEC PGM=WUNPRESS,PARM='NUM'
        12 //SYSPRINT DD SYSOUT=$
        13 //SYSUT1   DD DSN=WYL.GG.ORV.SOURCE(VLDR),DISP=SHR
        14 //SYSUT2   DD DSN=&&INPUT,DISP=(,PASS),UNIT=SYSDA,
           //            SPACE=(TRK,(25,25),RLSE),DCB=CARD
        15 //ASM    EXEC PGM=ASMA90,REGION=8M,COND=(0,NE,$UNP),
           //            PARM=('SYSPARM(VLDR),TERM,LANG(EN),OBJ',
           //          'LC(32500),XREF(SHORT),NODECK,NORLD,NODX,NOUS')
           //*STEPLIB  DD DSN=SYS1.SASMMOD1,DISP=SHR
        16 //SYSLIB   DD DSN=SYS3.DUMMYMAC,DISP=SHR,DCB=BLKSIZE=27920
        17 //         DD DSN=WYL.GG.SYS.MACLIB,DISP=SHR
        18 //         DD DSN=WYL.GG.ORV.BC.MACLIB,DISP=SHR
        19 //         DD DSN=WYL.GG.ORV.MACLIB,DISP=SHR
        20 //         DD DSN=SYS3.IS.MACLIB,DISP=SHR
        21 //SYSUT1   DD DSN=&&SYSUT1,UNIT=VIO,DISP=(,DELETE),
           //            SPACE=(4088,(500,250),,CONTIG,ROUND)
        22 //SYSTERM  DD SYSOUT=$
        23 //SYSPRINT DD DSN=&&PRINT,UNIT=SYSDA,DISP=(,PASS),
           //            SPACE=(6650,(250,250),RLSE),
           //            DCB=(BLKSIZE=6650,LRECL=133,RECFM=FB)
        24 //SYSLIN   DD DSN=WYL.GG.PJG.OBJ(VLDR),DISP=OLD
        25 //SYSUDUMP DD SYSOUT=A
        26 //SYSIN    DD DSN=&&INPUT,DISP=(OLD,DELETE)
        27 //$EDIT  EXEC PGM=ASMEDIT,REGION=1M,
           //            COND=EVEN,PARM='STMT,DATA'
        28 //STEPLIB  DD DSN=WYL.GG.SYS.LINKLIB,DISP=SHR
        29 //ASMOUT   DD DSN=&&PRINT,DISP=(OLD,DELETE)
        30 //SYSPRINT DD SYSOUT=A
        31 //SYSUDUMP DD SYSOUT=A
1 STMT NO. MESSAGE
         2 IEFC001I PROCEDURE PURGEOLD WAS EXPANDED USING SYSTEM LIBRARY SYS3.BETAPROC
        14 IGD01010I STORCLAS= TEMP STORGROUP =
        14 IGD01010I STORGRP=VIO ASSIGNED.
        21 IGD01010I STORCLAS= TEMP STORGROUP =
        21 IGD01010I STORGRP=VIO ASSIGNED.
        23 IGD01010I STORCLAS= TEMP STORGROUP =
        23 IGD01010I STORGRP=VIO ASSIGNED.
 ICH70001I GG$PJG   LAST ACCESS AT 09:47:53 ON MONDAY, MARCH 22, 2004
 IEF142I PJG#VLDR $$QUIET - STEP WAS EXECUTED - COND CODE 0008
 *********************************************************************************
 *   PJG#VLDR/$$QUIET /                    Return Code      0008                 *
 *   Region used      260K (16K user + 244K system)                              *
 *   Extended region  9352K (4K user + 9348K system)                             *
 *                                                                               *
 *   Paging              In      Out                                             *
 *   Private <-> Aux      0        0       CPU time (TCB)   00:00:00.01          *
 *   Private <-> Exp      0        0       CPU time (SRB)   00:00:00.00          *
 *   VIO                  0        0       Elapsed time    920:39:43.95          *
 *   Common               0      ---                                             *
 *                                                                               *
 *                                                                               *
 *   CPU Usage          0.18         $0.11  Standard Processing Unit Equivalent  *
 *                                   $0.11  Total Step execution charge          *
 *                                                                               *
 *    I/O count  DDname   Type Addr           I/O count  DDname   Type Addr      *
 *                         *** No I/O for this step ***                          *
 *********************************************************************************
 IEF373I STEP/$$QUIET /START 2004082.0948
 IEF374I STEP/$$QUIET /STOP  2004082.0948 CPU    0MIN 00.01SEC SRB    0MIN 00.00SEC VIRT    16K SYS   244K EXT       4K SYS    9348K
 IEF236I ALLOC. FOR PJG#VLDR $CND
 IEF237I 0401 ALLOCATED TO STEPLIB
 IEF237I JES2 ALLOCATED TO SYSPRINT
 IEF237I 04DC ALLOCATED TO SYSUT1
 IEF237I 04DC ALLOCATED TO SYSUT2
 IEF237I DMY  ALLOCATED TO SYSIN
 IEF142I PJG#VLDR $CND - STEP WAS EXECUTED - COND CODE 0000
 IEF285I   WYL.GG.ORV.LINKLIB                           KEPT
 IEF285I   VOL SER NOS= SYSB01.
 IEF285I   GG$PJG.PJG#VLDR.JOB05988.D0000101.?          SYSOUT
 IEF285I   WYL.GG.PJG.OBJ                               KEPT
 IEF285I   VOL SER NOS= SYSB05.
 IEF285I   WYL.GG.PJG.OBJ                               KEPT
 IEF285I   VOL SER NOS= SYSB05.
 *********************************************************************************
 *   PJG#VLDR/$CND    /                    Return Code      Zero                 *
 *   Region used      280K (16K user + 264K system)                              *
 *   Extended region  9392K (4K user + 9388K system)                             *
 *                                                                               *
 *   Paging              In      Out                                             *
 *   Private <-> Aux      0        0       CPU time (TCB)   00:00:00.01          *
 *   Private <-> Exp      0        0       CPU time (SRB)   00:00:00.00          *
 *   VIO                  0        0       Elapsed time    920:39:42.90          *
 *   Common               0      ---                                             *
 *                                                                               *
 *                                                                               *
 *   CPU Usage          0.18         $0.11  Standard Processing Unit Equivalent  *
 *                                   $0.11  Total Step execution charge          *
 *                                                                               *
 *    I/O count  DDname   Type Addr           I/O count  DDname   Type Addr      *
 *            3  STEPLIB  Disk 0401                   0  SYSPRINT      ----      *
 *            0  SYSUT1   Disk 04DC                   0  SYSUT2   Disk 04DC      *
 *            0  SYSIN         ----                                              *
 *********************************************************************************
 IEF373I STEP/$CND    /START 2004082.0948
 IEF374I STEP/$CND    /STOP  2004082.0948 CPU    0MIN 00.01SEC SRB    0MIN 00.00SEC VIRT    16K SYS   264K EXT       4K SYS    9388K
 IEF236I ALLOC. FOR PJG#VLDR $UNP
 IEF237I JES2 ALLOCATED TO SYSPRINT
 IEF237I 0402 ALLOCATED TO SYSUT1
 IGD101I SMS ALLOCATED TO DDNAME (SYSUT2  )
         DSN (SYS04082.T094808.RA000.PJG#VLDR.INPUT.H01   )
         STORCLAS (TEMP) MGMTCLAS (        ) DATACLAS (        )
         VOL SER NOS= SCR100
 IEF142I PJG#VLDR $UNP - STEP WAS EXECUTED - COND CODE 0000
 IEF285I   GG$PJG.PJG#VLDR.JOB05988.D0000102.?          SYSOUT
 IEF285I   WYL.GG.ORV.SOURCE                            KEPT
 IEF285I   VOL SER NOS= SYSB02.
 IGD106I SYS04082.T094808.RA000.PJG#VLDR.INPUT.H01    PASSED,    DDNAME=SYSUT2
 *********************************************************************************
 *   PJG#VLDR/$UNP    /                    Return Code      Zero                 *
 *   Region used      388K (108K user + 280K system)                             *
 *   Extended region  9468K (4K user + 9464K system)                             *
 *                                                                               *
 *   Paging              In      Out                                             *
 *   Private <-> Aux      0        0       CPU time (TCB)   00:00:00.06          *
 *   Private <-> Exp      0        0       CPU time (SRB)   00:00:00.00          *
 *   VIO                  0        0       Elapsed time    920:39:42.74          *
 *   Common               0      ---                                             *
 *                                                                               *
 *                                                                               *
 *   CPU Usage          1.12         $0.69  Standard Processing Unit Equivalent  *
 *                                   $0.69  Total Step execution charge          *
 *                                                                               *
 *    I/O count  DDname   Type Addr           I/O count  DDname   Type Addr      *
 *            0  SYSPRINT      ----                   4  SYSUT1   Disk 0402      *
 *           32  SYSUT2   Disk 038B                                              *
 *********************************************************************************
 IEF373I STEP/$UNP    /START 2004082.0948
 IEF374I STEP/$UNP    /STOP  2004082.0948 CPU    0MIN 00.06SEC SRB    0MIN 00.00SEC VIRT   108K SYS   280K EXT       4K SYS    9464K
 IEF236I ALLOC. FOR PJG#VLDR ASM
 IEF237I 0402 ALLOCATED TO SYSLIB
 IEF237I 04DC ALLOCATED TO
 IEF237I 0402 ALLOCATED TO
 IEF237I 0402 ALLOCATED TO
 IEF237I 04DC ALLOCATED TO
 IGD101I SMS ALLOCATED TO DDNAME (SYSUT1  )
         DSN (SYS04082.T094808.RA000.PJG#VLDR.SYSUT1.H01  )
         STORCLAS (TEMP) MGMTCLAS (        ) DATACLAS (        )
         VOL SER NOS= VIO
 IEF237I JES2 ALLOCATED TO SYSTERM
 IGD101I SMS ALLOCATED TO DDNAME (SYSPRINT)
         DSN (SYS04082.T094808.RA000.PJG#VLDR.PRINT.H01   )
         STORCLAS (TEMP) MGMTCLAS (        ) DATACLAS (        )
         VOL SER NOS= SCR101
 IEF237I 04DC ALLOCATED TO SYSLIN
 IEF237I JES2 ALLOCATED TO SYSUDUMP
 IGD103I SMS ALLOCATED TO DDNAME SYSIN
 IEF142I PJG#VLDR ASM - STEP WAS EXECUTED - COND CODE 0000
 IEF285I   SYS3.DUMMYMAC                                KEPT
 IEF285I   VOL SER NOS= SYSB02.
 IEF285I   WYL.GG.SYS.MACLIB                            KEPT
 IEF285I   VOL SER NOS= SYSB05.
 IEF285I   WYL.GG.ORV.BC.MACLIB                         KEPT
 IEF285I   VOL SER NOS= SYSB02.
 IEF285I   WYL.GG.ORV.MACLIB                            KEPT
 IEF285I   VOL SER NOS= SYSB02.
 IEF285I   SYS3.IS.MACLIB                               KEPT
 IEF285I   VOL SER NOS= SYSB05.
 IGD105I SYS04082.T094808.RA000.PJG#VLDR.SYSUT1.H01   DELETED,   DDNAME=SYSUT1
 IEF285I   GG$PJG.PJG#VLDR.JOB05988.D0000103.?          SYSOUT
 IGD106I SYS04082.T094808.RA000.PJG#VLDR.PRINT.H01    PASSED,    DDNAME=SYSPRINT
 IEF285I   WYL.GG.PJG.OBJ                               KEPT
 IEF285I   VOL SER NOS= SYSB05.
 IEF285I   GG$PJG.PJG#VLDR.JOB05988.D0000104.?          SYSOUT
 IGD105I SYS04082.T094808.RA000.PJG#VLDR.INPUT.H01    DELETED,   DDNAME=SYSIN
 *********************************************************************************
 *   PJG#VLDR/ASM     /                    Return Code      Zero                 *
 *   Region used      8484K (8192K user + 292K system)                           *
 *   Extended region  9952K (412K user + 9540K system)                           *
 *                                                                               *
 *   Paging              In      Out                                             *
 *   Private <-> Aux      0        0       CPU time (TCB)   00:00:01.83          *
 *   Private <-> Exp      0        0       CPU time (SRB)   00:00:00.03          *
 *   VIO                  0        0       Elapsed time    920:39:42.46          *
 *   Common               0      ---                                             *
 *                                                                               *
 *                                                                               *
 *   CPU Usage         34.31        $21.27  Standard Processing Unit Equivalent  *
 *                                  $21.27  Total Step execution charge          *
 *                                                                               *
 *    I/O count  DDname   Type Addr           I/O count  DDname   Type Addr      *
 *           29  SYSLIB   Disk 0402                 134  SYSLIB   Disk 04DC      *
 *            0  SYSLIB   Disk 0402                   0  SYSLIB   Disk 0402      *
 *            0  SYSLIB   Disk 04DC                   0  SYSUT1   VIO  ----      *
 *            0  SYSTERM       ----                 119  SYSPRINT Disk 04E3      *
 *            4  SYSLIN   Disk 04DC                   0  SYSUDUMP      ----      *
 *           33  SYSIN    Disk 038B                                              *
 *********************************************************************************
 IEF373I STEP/ASM     /START 2004082.0948
 IEF374I STEP/ASM     /STOP  2004082.0948 CPU    0MIN 01.83SEC SRB    0MIN 00.03SEC VIRT  8192K SYS   292K EXT     412K SYS    9540K
 IEF236I ALLOC. FOR PJG#VLDR $EDIT
 IEF237I 0402 ALLOCATED TO STEPLIB
 IGD103I SMS ALLOCATED TO DDNAME ASMOUT
 IEF237I JES2 ALLOCATED TO SYSPRINT
 IEF237I JES2 ALLOCATED TO SYSUDUMP
 IEF142I PJG#VLDR $EDIT - STEP WAS EXECUTED - COND CODE 0000
 IEF285I   WYL.GG.SYS.LINKLIB                           KEPT
 IEF285I   VOL SER NOS= SYSB02.
 IGD105I SYS04082.T094808.RA000.PJG#VLDR.PRINT.H01    DELETED,   DDNAME=ASMOUT
 IEF285I   GG$PJG.PJG#VLDR.JOB05988.D0000105.?          SYSOUT
 IEF285I   GG$PJG.PJG#VLDR.JOB05988.D0000106.?          SYSOUT
 *********************************************************************************
 *   PJG#VLDR/$EDIT   /                    Return Code      Zero                 *
 *   Region used      388K (116K user + 272K system)                             *
 *   Extended region  9472K (4K user + 9468K system)                             *
 *                                                                               *
 *   Paging              In      Out                                             *
 *   Private <-> Aux      0        0       CPU time (TCB)   00:00:00.49          *
 *   Private <-> Exp      0        0       CPU time (SRB)   00:00:00.01          *
 *   VIO                  0        0       Elapsed time    920:39:36.18          *
 *   Common               0      ---                                             *
 *                                                                               *
 *                                                                               *
 *   CPU Usage          9.18         $5.69  Standard Processing Unit Equivalent  *
 *                                   $5.69  Total Step execution charge          *
 *                                                                               *
 *    I/O count  DDname   Type Addr           I/O count  DDname   Type Addr      *
 *            2  STEPLIB  Disk 0402                 120  ASMOUT   Disk 04E3      *
 *            0  SYSPRINT      ----                   0  SYSUDUMP      ----      *
 *********************************************************************************
 IEF373I STEP/$EDIT   /START 2004082.0948
 IEF374I STEP/$EDIT   /STOP  2004082.0948 CPU    0MIN 00.49SEC SRB    0MIN 00.01SEC VIRT   116K SYS   272K EXT       4K SYS    9468K
 *********************************************************************************
 *                                                                               *
 *                      S t a n f o r d   U n i v e r s i t y                    *
 *                                                                               *
 *                              *** Job Summary ***                              *
 *                                                                               *
 *   System Id      SYSB                   Input time     09:38:38  Mar 22, 2004 *
 *                                                                               *
 *   System Release SP6.1.0                Start time     09:48:09  Mar 22, 2004 *
 *                                                                               *
 *   Job name       PJG#VLDR               Stop  time     00:00:00  Mar 22, 2004 *
 *                                                                               *
 *   Account        PJG$GG                 Elapsed time  920:39:43.95            *
 *                                                                               *
 *   User Name      Module: VLDR           CPU time       00:00:02.40            *
 *                                                                               *
 *   Job class      E                      SRB Time       00:00:00.04            *
 *                                                                               *
 *********************************************************************************
 IEF375I  JOB/PJG#VLDR/START 2004082.0948
 IEF376I  JOB/PJG#VLDR/STOP  2004082.0948 CPU    0MIN 02.40SEC SRB    0MIN 00.04SEC
1Data set successfully converted from EDIT to FB format
1Assembler Done VLDR No Statements Flagged
1         High Level Assembler Option Summary                   (PTF UQ57391)                                               Page    1
-                                                                                            HLASM R4.0  2004/03/22 09.48
0  No Overriding ASMAOPT Parameters
   Overriding Parameters-  SYSPARM(VLDR),TERM,LANG(EN),OBJ,LC(32500),XREF(SHORT),NODECK,NORLD,NODX,NOUS
   No Process Statements


   Options for this Assembly
0  NOADATA
     ALIGN
   NOASA
     BATCH
     CODEPAGE(047C)
   NOCOMPAT
   NODBCS
 3 NODECK
 3 NODXREF
     ESD
   NOEXIT
     FLAG(0,ALIGN,CONT,NOIMPLEN,NOPAGE0,PUSH,RECORD,NOSUBSTR,USING0)
   NOFOLD
   NOGOFF
   NOINFO
 3   LANGUAGE(EN)
   NOLIBMAC
 3   LINECOUNT(32500)
     LIST(121)
     MXREF(SOURCE)
 3   OBJECT
     OPTABLE(UNI,NOLIST)
   NOPCONTROL
   NOPESTOP
   NOPROFILE
   NORA2
   NORENT
 3 NORLD
     RXREF
     SIZE(MAX)
 3   SYSPARM(VLDR)
 3   TERM(WIDE)
   NOTEST
     THREAD
   NOTRANSLATE
 3 NOUSING
 3   XREF(SHORT)

   No Overriding DD Names

1VLDR     External Symbol Dictionary                                                                                        Page    2
-Symbol   Type   Id     Address  Length     LD ID  Flags Alias-of                            HLASM R4.0  2004/03/22 09.48
0VLDR      SD 00000001 00000000 00001B20             00
 VLDR00    LD          00000000           00000001
 LDINIT    LD          00000016           00000001
 LDMIINIT  LD          000000DE           00000001
 LDGO      LD          00000108           00000001
 LDMIGO    LD          000001EC           00000001
 LDMSG     ER 00000002
 LDCHANGE  LD          000010F2           00000001
 LDPAGE    LD          00001124           00000001
 LDALIAS   LD          0000118E           00000001
 LDREPDEL  LD          000011B6           00000001
 LDFIX     LD          000011FC           00000001
 LDMOINIT  LD          0000135C           00000001
 LDMOGO    LD          00001476           00000001
 LDSET     LD          000018E0           00000001
 LDNEXT    LD          000018FA           00000001
 LDFIND    LD          0000194A           00000001
 LDSECT    LD          00001976           00000001
 LDENTRY   LD          000019D2           00000001

1VLDR     ORVYL'S LOADER                                                                                                    Page    3
0Loc    Object Code    Addr1 Addr2  Stmt Lv Lineno    Source Statement                    (Asmedit 3.3)  HLASM R4.0  2004/03/22 09.48
+___    ______ ____    _____ _____  ____ __ ______    ______ _________
0                                      2       2.     ********************************************************************
                                       3       3.     *                                                                  *
                                       4       4.     *       ORVYL/370  RELEASE III - CLASS I - STANFORD PROPRIETARY    *
                                       5       5.     *                                                                  *
                                       6       6.     ********************************************************************
                                       7       7.     * All external calls to this module can be done in 24 or 31 bit mode
                                       8       8.     * (I think). This module must reside below the 16 meg line however.
-                                     10      10.              HIBAL ,
-                                    992      12.     * MODIFICATIONS
                                     993      13.     *
1VLDR     ORVYL'S LOADER                                                                                                    Page    4
0D-Loc  Object Code    Addr1 Addr2  Stmt Lv Lineno    Source Statement           (Hibal 5, Asmedit 3.3)  HLASM R4.0  2004/03/22 09.48
+_____  ______ ____    _____ _____  ____ __ ______    ______ _________
0000000                00000 01B20   995      15.     VLDR     CSECT ,
                                     999      16.              IDENT 00
                                    1002             +
                                    1003    01-IDENT +         ENTRY VLDR00
                                    1004             +
 000000 14E5D3C4D9F0F06B            1005    01-IDENT +VLDR00   DC    AL1(20),C'VLDR00,22MAR04,09:48'
                                    1006             +*
-                                   1009      18.              COPY  ORVDEFN
                                    1010             =         SYSDEFN  ,
                                    1011             =         GBLB  &PROTECT
                                    1012             =         GBLC  &MODULE
-                                   1014      20.              REGS  ,,SR,TR,QR,XRNT,BRR,BR,WAR,RAR,,LCBR
                                    1138      21.              REGS  ,,,,,RR
1VLDR     (VLDR00) (09:48) (22MAR04) ORVYL'S LOADER                                                                         Page    5
0Loc    Object Code    Addr1 Addr2  Stmt Lv Lineno    Source Statement           (Hibal 5, Asmedit 3.3)  HLASM R4.0  2004/03/22 09.48
+___    ______ ____    _____ _____  ____ __ ______    ______ _________
0                                   1159      23.              MACRO
                                    1160      24.     &L       DIAG  &LOC,&LEN,&B,&EC=4,&REG=
                                    1161      25.              LCLC  &DESCR
                                    1162      26.              LCLA  &LOCLNG
                                    1163      27.     &DESCR   SETC  '&LOC'
                                    1164      28.              AIF   ('&REG' EQ '').CALMSG
                                    1165      29.              AIF   ('&DESCR'(1,1) NE '''').CALMSG
                                    1166      30.     &LOCLNG  SETA  K'&LOC-1
                                    1167      31.     &DESCR   SETC  '&LOC'(1,&LOCLNG)' @             ''' WORK SPACE
                                    1168      32.     .CALMSG  ANOP
                                    1169      33.     &L       SETMSG &DESCR,&LEN
                                    1170      34.              AIF   ('&REG' EQ '').CHKEXIT
                                    1171      35.              AIF   ('&REG' EQ 'R15').SKPLR15
                                    1172      36.              LR    R15,&REG
                                    1173      37.     .SKPLR15 ANOP
                                    1174      38.              LCALL EMSGLOC
                                    1175      39.     .CHKEXIT ANOP  ,
                                    1176      40.              AIF   ('&B' EQ 'EXIT').EXIT
                                    1177      41.              AIF   ('&EC' EQ '').NOEC
                                    1178      42.              LA    R15,&EC
                                    1179      43.     .NOEC    ST    R10,LDWTEMP
                                    1180      44.              L     R10,WAR10
                                    1181      45.              VCALL LDMSG
                                    1182      46.              BNZ   EXIT
                                    1183      47.              L     R10,LDWTEMP
                                    1184      48.              AIF   ('&B' NE '').A
                                    1185      49.              MEXIT
                                    1186      50.     .A       B     &B
                                    1187      51.              MEXIT
                                    1188      52.     .EXIT    LCALL MSGEX&EC
                                    1189      53.              MEND
1VLDR     (VLDR00) (09:48) (22MAR04) ORVYL'S LOADER                                                                         Page    6
0Loc    Object Code    Addr1 Addr2  Stmt Lv Lineno    Source Statement           (Hibal 5, Asmedit 3.3)  HLASM R4.0  2004/03/22 09.48
+___    ______ ____    _____ _____  ____ __ ______    ______ _________
0                                   1192      56.     *
                                    1193      57.     * ESD FORMAT
                                    1194      58.     *
 000000                00000 00010  1195      59.     ESD      RECORD BEGIN
 000000                             1203  1   60.     ESDSTART   DS    0A
 000000                             1204  1   61.     ESDNAME    DS    CL8                     NAME
 000008                             1205  1   62.     ESDTYP     DS    XL1                     TYPE
 000009                00009 00008  1206  1   63.                ORG   ESDTYP
 000008                             1207  1   64.     ESDADDR    DS    A                       ADDRESS
 00000C                             1208  1   65.     ESDLNG     DS    A                       LENGTH (SD,PC,CM)
 000010                00010 0000E  1209  1   66.                ORG   ESDLNG+2
 00000E                             1210  1   67.     ESDSDID    DS    H                       SD ID (LD)
                                    1211  1   68.
                                    1212  1   69.     ESDTSD     EQU   0                       SD
                                    1213  1   70.     ESDTLD     EQU   1                       LD
                                    1214  1   71.     ESDTER     EQU   2                       ER
                                    1215  1   72.     ESDTLR     EQU   3                       LR
                                    1216  1   73.     ESDTPC     EQU   4                       PC
                                    1217  1   74.     ESDTCM     EQU   5                       CM
                                    1218  1   75.     ESDTPR     EQU   6                       PR
                                    1219  1   76.     ESDTNL     EQU   7                       NULL
                                    1220  1   77.     ESDTWX     EQU   10                      WX
                                    1221  1   78.     ESDTDEL    EQU   X'10'                   DELETE
                                    1222  1   79.
 000010                00010 00010  1223  1   80.                ORG
 000010                             1224  1   81.     ESDNXT     DS    0A
 000010                00010 00010  1225      82.              END   ,
1VLDR     (VLDR00) (09:48) (22MAR04) ORVYL'S LOADER                                                                         Page    7
0Loc    Object Code    Addr1 Addr2  Stmt Lv Lineno    Source Statement           (Hibal 5, Asmedit 3.3)  HLASM R4.0  2004/03/22 09.48
+___    ______ ____    _____ _____  ____ __ ______    ______ _________
0                                   1235      84.              COPY  CSD
 000000                00000 00018  1236             =CSD      RECORD BEGIN
                                    1244  1          =*
                                    1245  1          =* CSD FORMAT
                                    1246  1          =*
 000000                             1247  1          =CSDSTART   DS    0F
 000000                             1248  1          =CSDLINK    DS    A                       ALPHABETICAL LINKING
 000004                             1249  1          =CSDNAME    DS    CL8                 NAME
 00000C                             1250  1          =CSDTYP     DS    XL1                     TYPE
                                    1251  1          =*
                                    1252  1          =* CESD TYPES ARE SAME AS ESD TYPES. FOR CHA/REP/DEL LIST USE FOLLOWING:
                                    1253  1          =CSDTCHA    EQU   X'F0',,C'N'             CHANGE SYMBOL
                                    1254  1          =CSDTREP    EQU   X'E0',,C'N'             REPLACE ESD
                                    1255  1          =CSDTDEL    EQU   X'D0',,C'N'             DELETE ESD
                                    1256  1          =
 00000D                0000D 0000C  1257  1          =           ORG   CSDTYP
 00000C                             1258  1          =CSDADDR    DS    A                   ADDRESS
 000010                             1259  1          =CSDLNG     DS    A                   SECTION LENGTH (SD,PC,CM)
 000014                             1260  1          =CSDREL     DS    A                   RELOC DELTA (SD,PC,CM)-WATCH CSDFL
                                    1261  1          =***
 000018                00018 00010  1262  1          =           ORG   CSDLNG
 000010                             1263  1          =CSDSDC     DS    A                   SD CHAIN (LD)
 000014 00                          1264  1          =CSDFL      FLAG  ,                       FLAGS
 CSDFL.CSDFPRCL    80 ONES          1268  1          =           FLAG  CSDFPRCL                PSEUDO REG CUM LENGTH
 CSDFL.CSDFDEF     40 ONES          1273  1          =           FLAG  CSDFDEF                 ENTRY IS DEFINED
 CSDFL.CSDFDUP     20 ONES          1278  1          =           FLAG  CSDFDUP                 DUPLICATE DEF
 CSDFL.CSDFCALL    10 ONES          1283  1          =           FLAG  CSDFCALL                OBTAINED BY AUTO LIBE CALL
 CSDFL.CSDFPAG     08 ONES          1288  1          =           FLAG  CSDFPAG                 SD ON PAGE BOUNDARY.
                                    1293  1          =
 000016                             1294  1          =CSDSDID    DS    H                   (LR) SDID OF CONTAINING CSECT
                                    1295  1          =
 000018                00018 00010  1296  1          =           ORG   CSDLNG
 000010                             1297  1          =CSDNAM2    DS    CL8                 SECOND NAME FOR CHA/REP
                                    1298  1          =***
 000018                00018 00018  1299  1          =           ORG
 000018                             1300  1          =CSDNXT     DS    0F
 000018                00018 00018  1301             =         END   ,
1VLDR     (VLDR00) (09:48) (22MAR04) ORVYL'S LOADER                                                                         Page    8
0Loc    Object Code    Addr1 Addr2  Stmt Lv Lineno    Source Statement           (Hibal 5, Asmedit 3.3)  HLASM R4.0  2004/03/22 09.48
+___    ______ ____    _____ _____  ____ __ ______    ______ _________
0                                   1311      86.              COPY  RLD
 000000                00000 0000C  1312             =RLDDSECT DSECT ,
                                    1313             =*
                                    1314             =* RLD TABLE FORMAT
                                    1315             =*
 000000                00000 0000C  1316             =RLDDSECT DSECT
 000000                             1317             =RLDSTART DS    0A
 000000                             1318             =RLDR     DS    H                   R PTR
 000002                             1319             =RLDP     DS    H                   P PTR
 000004 00                          1320             =RLDFL    FLAG  ,                   FLAGS
                                    1324             =*
                                    1325             =* FLAG FIELD HAS FORM..
                                    1326             =*
                                    1327             =*    0 -- RLDFABS -- USE ABSOLUTE RELOC FACTOR
                                    1328             =*    1-3 -- TYPE     0=A, 1=V, 2=PR, 3=PRCL
                                    1329             =*    4-5 -- LENGTH   1=2, 2=3, 3=4
                                    1330             =*    6   -- RLDFS    0=+, 1=-
                                    1331             =*    7   -- RLDFN    NEXT RLD ITEM(ON CARD, NOT IN CHAIN), HAS SAME R,P
                                    1332             =*
 RLDFL.RLDFABS     80 ONES          1333             =         FLAG  (RLDFABS,X'80')
 RLDFL.RLDFBRA     10 ONES          1342             =         FLAG  (RLDFBRA,X'10')         V-TYPE OR PRCL (CXD) ADCON
 RLDFL.RLDFS       02 ONES          1351             =         FLAG  (RLDFS,X'02')
 RLDFL.RLDFN       01 ONES          1360             =         FLAG  (RLDFN,X'01')
                                    1369             =
 000005                00005 00004  1370             =         ORG   RLDFL
 000004                             1371             =RLDADDR  DS    A                   ADCON ADDRESS
 000008                             1372             =RLDDLNK  DS    A                   DELINK DATA
 00000C                             1373             =RLDNEXT  DS    0A
                                    1374             =RLD      EQU   RLDDSECT,*-RLDDSECT,C'X'
1VLDR     (VLDR00) (09:48) (22MAR04) ORVYL'S LOADER                                                                         Page    9
0D-Loc  Object Code    Addr1 Addr2  Stmt Lv Lineno    Source Statement           (Hibal 5, Asmedit 3.3)  HLASM R4.0  2004/03/22 09.48
+_____  ______ ____    _____ _____  ____ __ ______    ______ _________
0                                   1376      88.     *
                                    1377      89.     * RNT ENTRY FORMAT
                                    1378      90.     *
 000000                00000 00006  1379      91.     RNT      RECORD BEGIN
 000000                             1387  1   92.     RNTSTART   DS    0C
 000000                             1388  1   93.     RNTCSD     DS    H                       CSDID
 000002 00                          1389  1   94.     RNTFL      FLAG ,                        FLAGS
 RNTFL.RNTFUSE     80 ONES          1393  1   95.                FLAG  (RNTFUSE,X'80')         ENTRY IS IN USE
 RNTFL.RNTFDEL     40 ONES          1402  1   96.                FLAG  (RNTFDEL,X'40')         DELINK DATA SAVED
 RNTFL.RNTFSDX     08 ONES          1411  1   97.                FLAG  (RNTFSDX,X'08')         ENTRY IS FOR LD FORWARD SD REF
 RNTFL.RNTFSD      04 ONES          1420  1   98.                FLAG  (RNTFSD,X'04')          SD
 RNTFL.RNTFER      02 ONES          1429  1   99.                FLAG  (RNTFER,X'02')          ER
 RNTFL.RNTFCM      01 ONES          1438  1  100.                FLAG  (RNTFCM,X'01')          CM
 000003                             1447  1  101.     RNTDLNK    DS    AL3                     DELINK DATA
 000006                             1448  1  102.     RNTNXT     DS    0X
 000006                00006 00006  1449     103.              END   ,
1VLDR     (VLDR00) (09:48) (22MAR04) ORVYL'S LOADER                                                                         Page   10
0D-Loc  Object Code    Addr1 Addr2  Stmt Lv Lineno    Source Statement           (Hibal 5, Asmedit 3.3)  HLASM R4.0  2004/03/22 09.48
+_____  ______ ____    _____ _____  ____ __ ______    ______ _________
0000000                00000 00100  1460     106.     LNKPAGE  RECORD BEGIN
                                    1468  1  107.                COPY  LCB  FULLST=YES
                                    1469  1          =*  LOADER CONTROL BLOCK
                                    1470  1          =*
                                    1471  1          =*        THE ITEMS MARKED (SET) MUST BE INITIALIZED BY THE CALLER
                                    1472  1          =*        BEFORE THE CALL TO LDINIT. THESE VALUES ARE NOT CHANGED BY
                                    1473  1          =*        THE LOADER. ALL OTHER  CELLS IN THE CONTROL BLOCK ARE SET
                                    1474  1          =*        AND MAINTAINED BY THE LOADER.
                                    1475  1          =*
 000000                             1476  1          =LCBSTART   DS    0F                      LOADER CONTROL BLOCK
 000000                             1477  1          =LCBCORE    DS    A                       START OF USER PROGRAM AREA (SET)
 000004                             1478  1          =LCBCLEN    DS    A                       LEN OF USER PROGRAM AREA (SET)
 000008                             1479  1          =LCBMAP     DS    A                       START OF MAP AREA (SET)
 00000C                             1480  1          =LCBMPLEN   DS    A                       LEN OF MAP AREA (SET)
 000010                             1481  1          =LCBRF      DS    A                       RELOCATION FACTOR (SET)
 000014                             1482  1          =LCBCI      DS    CL80                    CARD IMAGE (SET FOR EACH LDGO)
 000064                             1483  1          =LCBIDRFL   DS    AL4                     FLAGS FOR/FROM LOAD MODULE
 000068                00068 00064  1484  1          =           ORG   LCBIDRFL                OVERLAY FLAGS
 000064 00                          1485  1          =LCBXFL     FLAG  ,
 LCBXFL.LCBXFOSN   80 ONES          1489  1          =           FLAG  (LCBXFOSN,X'80')        USE OS ENTRY CONVENTIONS
 LCBXFL.LCBXFOS    40 ONES          1498  1          =           FLAG  (LCBXFOS,X'40')         INTERCEPT OS SVCS
 LCBXFL.LCBXFFRT   20 ONES          1507  1          =           FLAG  (LCBXFFRT,X'20')        LINK TO FORTRAN LIBRARY
 LCBXFL.LCBXFTST   10 ONES          1516  1          =           FLAG  (LCBXFTST,X'10')        TEST ATTRIBUTE
 LCBXFL.LCBXFURM   02 ONES          1525  1          =           FLAG  (LCBXFURM,X'02')        LINK TO URAM
                                    1534  1          =
 000065                             1535  1          =LCBYFL     DS    X
                                    1536  1          =
 000066                             1537  1          =LCBZFL     DS    X
                                    1538  1          =
 000067                             1539  1          =LCBWFL     DS    X
 000068                             1540  1          =LCBMCCW    DS    2A                      CCW FOR READING MODULE TEXT
 000070                             1541  1          =LCBEP      DS    A                       ENTRY POINT
 000074                             1542  1          =LCBMXC     DS    F                       MAX RETURN CODE SO FAR
 000078                             1543  1          =LCBLC      DS    F                       LOCATION COUNTER
 00007C 00                          1544  1          =LCBFL      FLAG  ,                       FLAGS FOR LOADER
 LCBFL.LCBUNDEF    80 ONES          1548  1          =           FLAG  (LCBUNDEF,X'80')        SEARCH IS FOR UNDEFINEDS
 LCBFL.LCBFATN     40 ONES          1557  1          =           FLAG  (LCBFATN,X'40')         ATTENTION ON ERROR MESSAGE
 LCBFL.LCBFPAGN    20 ONES          1566  1          =           FLAG  (LCBFPAGN,X'20')        NEXT MODULE GETS PAGE ALIGNMENT
 LCBFL.LCBFMI      08 ONES          1575  1          =           FLAG  (LCBFMI,X'08')          PROCESSING LOAD MODULE INPUT
 LCBFL.LCBFMO      04 ONES          1584  1          =           FLAG  (LCBFMO,X'04')          PRODUCING LOAD MODULE OUTPUR
 LCBFL.LCBFPAG     01 ONES          1593  1          =           FLAG  (LCBFPAG,X'01')         MODULE REQUIRES PAGE ALIGNMENT
 00007D                             1602  1          =LCBSEQ     DS    PL3                      SEQUENCE NO.
 000080                             1603  1          =LCBIDENT   DS    CL4                     MODULE IDENT
0                                   1605  1          =* CSD - CONSOLIDATED SYMBOL DIRECTORY
                                    1606  1          =*
 000084                             1607  1          =LCBCHF     DS    A                       L(FIRST FREE CSD ENTRY)
                                    1608  1          =LCBCSD     EQU   LCBMAP                  CSD TABLE ADDRESS
 000088                             1609  1          =LCBCSDH    DS    A                       HEAD  OF CSD CHAIN
 00008C                             1610  1          =LCBCSDLC   DS    A                       CSD LOCATION COUNTER
                                    1611  1          =*        .
                                    1612  1          =*        CSD AND RLD GROW TOWARDS EACH OTHER
                                    1613  1          =*        .
                                    1614  1          =* RLD - RELOCATION DICTIONARY
 000090                             1615  1          =LCBRLDLC   DS    A                       RLD LOCATION COUNTER
 000094                             1616  1          =LCBRHF     DS    A                       L(FIRST FREE RLD ENTRY)
1VLDR     (VLDR00) (09:48) (22MAR04) ORVYL'S LOADER                                                                         Page   11
0D-Loc  Object Code    Addr1 Addr2  Stmt Lv Lineno    Source Statement           (Hibal 5, Asmedit 3.3)  HLASM R4.0  2004/03/22 09.48
+_____  ______ ____    _____ _____  ____ __ ______    ______ _________
0000098                             1617  1          =LCBRLD     DS    A
0                                   1619  1          =* SD - CSECT (SD) ID TABLE
                                    1620  1          =*
 00009C                0009C 00098  1621  1          =           ORG   LCBRLD                  ... RLD AND SD TABLES MEET
 000098                             1622  1          =LCBSD      DS    A                       SD TABLE
 00009C                             1623  1          =LCBSDLC    DS    A                       SD TABLE ALLOCATOR
 0000A0                             1624  1          =LCBSDEND   DS    A                       SD TABLE LIMIT
0                                   1626  1          =* RNT - RENUMBERING TABLE
                                    1627  1          =*
 0000A4                000A4 000A0  1628  1          =           ORG   LCBSDEND                ... SD AND RNT TABLES MEET
 0000A0                             1629  1          =LCBRNT     DS    A                       RNT TABLE ADDRESS
 0000A4                             1630  1          =LCBNRNTE   DS    H                       NUMBER OF RNT ENTRIES
 0000A8                             1631  1          =LCBLSD     DS    A                       CSD POINTER (LENGTH ON END CARD)
 0000AC                             1632  1          =LCBCHRPH   DS    A                       CHANGE/REPLACE LIST HEAD
 0000B0                             1633  1          =LCBALIH    DS    A                       ALIAS CHAIN HEAD
 0000B4                             1634  1          =LCBSRCH    DS    2A                      SAVE AREA FOR CSD SCAN
 0000BC                             1635  1          =LCBMLEN    DS    A                       LENGTH OF LOAD MODULE
0                                   1637  1          =* MODULE OUTPUT CONTROL
                                    1638  1          =*
 0000C0                             1639  1          =LCBMOCSD   DS    A                       CSD POINTER/MODULE OUTPUT
 0000C4                             1640  1          =LCBMORNT   DS    A                       RNT POINTER/MODULE OUTPUT
 0000C8                             1641  1          =LCBMOLC    DS    A                       TEXT POINTER/MODULE OUTPUT
 0000CC                             1642  1          =LCBMOSD    DS    A                       SD POINTER/MODULE OUTPUT
 0000D0                             1643  1          =LCBMOMTB   DS    H                       MAX TEXT BLOCK/MODULE OUTPUT
 0000D2                             1644  1          =LCBMOID    DS    H                       CURRENT ESD ID/MODULE OUTPUT
 0000D4                             1645  1          =LCBMORLD   DS    A                       RLD POINTER/MODULE OUTPUT
 0000D8                             1646  1          =LCBMOCCW   DS    2A                      ADDR,LEN/MODULE TEXT OUTPUT
 0000E0                             1647  1          =LCBMOSID   DS    H                       ID OF SD FOR CURRENT LR'S
 0000E2 00                          1648  1          =LCBMFL     FLAG  ,                       MODULE I/O FLAGS
 LCBMFL.LCBMFCSD   80 ONES          1652  1          =           FLAG  LCBMFCSD                CSD OUTPUT FINISHED
 LCBMFL.LCBMFIDR   40 ONES          1657  1          =           FLAG  LCBMFIDR                IDR OUTPUT FINISHED
 LCBMFL.LCBMFTXT   20 ONES          1662  1          =           FLAG  LCBMFTXT                TEXT OUTPUT FINISHED
 LCBMFL.LCBMFCCW   10 ONES          1667  1          =           FLAG  LCBMFCCW                CCW DEFINED FOR TEXT OUTPUT
 LCBMFL.LCBMFRLD   08 ONES          1672  1          =           FLAG  LCBMFRLD                RLD OUTPUT FINISHED
 LCBMFL.LCBMFSDD   04 ONES          1677  1          =           FLAG  LCBMFSDD                ALL SD ESD'S OUTPUT
 0000E3                000E3 00100  1682  1          =           ORG   LCBSTART+256
 000100                             1683  1          =LCBEND     DS    0F
                                    1684  1          =LCB        EQU   LCBSTART,*-LCBSTART
                                    1685  1  108.     *
                                    1686  1  109.     *  CARD IMAGE
                                    1687  1  110.     *
 000100                00100 00014  1688  1  111.                ORG   LCBCI
 000014                             1689  1  112.     CICODE     DS    XL1                     CC 1
 000015                             1690  1  113.     CITYPE     DS    CL3                     CC 2-4
 000018                             1691  1  114.     CITADDR    DS    A                       CC 5-8  TEXT LOAD ADDRESS
 00001C                             1692  1  115.                DS    CL2                     CC 9-10
 00001E                             1693  1  116.     CICNT      DS    H                       CC 11-12  BYTE COUNT
 000020                             1694  1  117.                DS    H
                                    1695  1  118.     CIESID     LABEL ,                       CC 15-16 FIRST ESID (ESD CARD)
 000022                             1696  1 01-LABEL +CIESID     DS    0H
 000022                             1697  1  119.     CITESID    DS    H                       CC 15-16  SD FOR TEXT
 000024                             1698  1  120.     CITEXT     DS    0C                      CC 17-72  TEXT
 000024                00024 00024  1699  1  121.                ORG   CITEXT
1VLDR     (VLDR00) (09:48) (22MAR04) ORVYL'S LOADER                                                                         Page   12
0D-Loc  Object Code    Addr1 Addr2  Stmt Lv Lineno    Source Statement           (Hibal 5, Asmedit 3.3)  HLASM R4.0  2004/03/22 09.48
+_____  ______ ____    _____ _____  ____ __ ______    ______ _________
0000024                             1700  1  122.     CIRLD      DS    0C                      RLD DATA
 000024                00024 00024  1701  1  123.                ORG   CITEXT
 000024                             1702  1  124.     CIESD      DS    0C                      ESD DATA
 000024                00024 00024  1703  1  125.                ORG   CITEXT
 000024                             1704  1  126.     CIEND      DS    0C                      END DATA
 000024                             1705  1  127.     CINSEP     DS    CL8                     SYMBOLIC ENTRY POINT
 00002C                             1706  1  128.                DS    CL4
 000030                             1707  1  129.     CINLEN     DS    CL4                     LENGTH OF SECTION
 000034                00034 0005C  1708  1  130.                ORG   LCBCI+72
 00005C                             1709  1  131.     CISEQ      DS    CL8                     SEQUENCE
 000064                00064 00100  1710  1  132.                ORG
 000100                00100 00100  1711     133.              END   ,
                                    1720     134.     *
1VLDR     (VLDR00) (09:48) (22MAR04) ORVYL'S LOADER                                                                         Page   13
0D-Loc  Object Code    Addr1 Addr2  Stmt Lv Lineno    Source Statement           (Hibal 5, Asmedit 3.3)  HLASM R4.0  2004/03/22 09.48
+_____  ______ ____    _____ _____  ____ __ ______    ______ _________
0                                   1723     137.     * LOAD MODULE RECORD
                                    1724     138.     *
 000000                00000 00400  1725     139.     MRC      DSECT
 000000                             1726     140.     MRID     DS    AL1                     RECORD TYPE
                                    1727     141.
                                    1728     142.     MRIDRID  EQU   B'10000000'             IDENTIFICATION RECORD
                                    1729     143.     MRSYMID  EQU   B'01000000'             SYM RECORD
                                    1730     144.     MRESDID  EQU   B'00100000'             ESD RECORD
                                    1731     145.     MRSCTID  EQU   B'00010000'             SCATTER/TRANSLATION
                                    1732     146.     MREOMID  EQU   B'00001000'             END OF MODULE RECORD
                                    1733     147.     MREOSID  EQU   B'00000100'             END OF SEGMENT RECORD
                                    1734     148.     MRRLDID  EQU   B'00000010'             RLD RECORD
                                    1735     149.     MRCTLID  EQU   B'00000001'             CONTROL RECORD
                                    1736     150.
 000001                             1737     151.     MR1      DS    0X                      TYPE DEPENDENT FIELDS
                                    1738     152.     *
                                    1739     153.     * SYM FIELDS
 000001                             1740     154.     MRSYMTYP DS    AL1
 000002                             1741     155.     MRSYMCNT DS    AL2
 000004                             1742     156.     MRSYM    DS    XL240                   SYM DATA
                                    1743     157.
 0000F4                000F4 00001  1744     158.              ORG   MR1
                                    1745     159.     *
                                    1746     160.     * ESD FIELDS
 000001                             1747     161.     MRESFLAG DS    AL1                     ESD FLAG 1XXX XXXX- A/RMODE info
                                    1748     162.     MRESAMOD EQU   B'10000000'             AMODE/RMODE data in CESD data
 000002                             1749     163.     MRESSPAR DS    AL2                     SPARE
 000004                             1750     164.     MRESID   DS    AL2                     ID OF FIRST ESD ITEM
 000006                             1751     165.     MRESDCNT DS    AL2                     COUNT OF ESD DATA
 000008                             1752     166.     MRESD    DS    XL240                   ESD DATA (240 BYTES MAX)
                                    1753     167.
 0000F8                000F8 00001  1754     168.              ORG   MR1
                                    1755     169.     *
                                    1756     170.     * SCATTER/TRANSLATION FIELDS
 000001                             1757     171.              DS    X                       SPARE
 000002                             1758     172.     MRSCTCNT DS    AL2                     COUNT
 000004                             1759     173.     MRSCT    DS    1020X                   SCATTER DATA
                                    1760     174.
 000400                00400 00001  1761     175.              ORG   MR1
                                    1762     176.     *
                                    1763     177.     * IDR FIELDS
 000001                             1764     178.     MRIDR    DS    CL255                   IDR DATA
 000100                00100 00001  1765     179.              ORG   MRIDR                   DATA INCLUDES COUNT
 000001                             1766     180.     MRIDRCNT DS    AL1                     COUNT (INCLUDING THIS FIELD)
 000002                             1767     181.     MRIDRTYP DS    AL1                     SUBTYPE
                                    1768     182.     MRIDRORV EQU   B'00010000'             ORVYL IDR SUBTYPE
                                    1769     183.     MRIDRLST EQU   B'10000000'             LAST IDR RECORD FLAG
0                                   1771     185.     * ORVYL IDR RECORD FIELDS
                                    1772     186.     *
 000003                             1773     187.     MRIDRFL  DS    CL5                     FLAGS
 000008                             1774     188.     MRIDRMSZ DS    A                       MAIN STORAGE REQUIREMENT
 00000C                             1775     189.     MRIDREP  DS    A                       ENTRY POINT
 000010                00010 00100  1776     190.              ORG   MRIDR+L'MRIDR           RESERVE MAXIMUM RECORD
 000100                             1777     191.     MRIDREND DS    0F
                                    1778     192.     MRIDRSIZ EQU   MRIDREND-MRIDR          COUNT FIELD FOR ORVYL IDR
1VLDR     (VLDR00) (09:48) (22MAR04) ORVYL'S LOADER                                                                         Page   14
0D-Loc  Object Code    Addr1 Addr2  Stmt Lv Lineno    Source Statement           (Hibal 5, Asmedit 3.3)  HLASM R4.0  2004/03/22 09.48
+_____  ______ ____    _____ _____  ____ __ ______    ______ _________
0                                   1779     193.
 000100                00100 00001  1780     194.              ORG   MR1
                                    1781     195.     *
                                    1782     196.     * RLD/CONTROL FIELDS
 000001                             1783     197.              DS    AL3                     SPARE (ZEROES)
 000004                             1784     198.     MRCTLCNT DS    AL2                     CONTROL DATA COUNT
 000006                             1785     199.     MRRLDCNT DS    AL2                     RLD DATA COUNT
 000008 0600000040000000            1786     200.     MRCCW    CCW   6,0,X'40',0             READ CCW FOR TEXT
 000010                             1787     201.     MRRLD    DS    XL240                   RLD AND CONTROL DATA
0000000                00000 00004  1789     203.     CTL      DSECT
 000000                             1790     204.     CTLID    DS    H                       ID OF CSECT
 000002                             1791     205.     CTLLNG   DS    H                       LENGTH OF CSECT BLOCK
 000004                             1792     206.     CTLNXT   DS    0F
                                    1793     207.     CTLSIZE  EQU   CTLNXT-CTL
1VLDR     (VLDR00) (09:48) (22MAR04) ORVYL'S LOADER                                                                         Page   15
0D-Loc  Object Code    Addr1 Addr2  Stmt Lv Lineno    Source Statement           (Hibal 5, Asmedit 3.3)  HLASM R4.0  2004/03/22 09.48
+_____  ______ ____    _____ _____  ____ __ ______    ______ _________
0                                   1795     209.     *
                                    1796     210.     * WORK AREA
                                    1797     211.     *
 000000                00000 00051  1798     212.     LDWA     RECORD BEGIN
 000000                             1806  1  213.     WAR0       DS    A
 000004                             1807  1  214.     WAR1       DS    A
                                    1808  1  215.                VSA   2,8
 000008                             1809  1 01-VSA   +           DS    (8+1-(2)+16*((2)/(8+1))/((2)/(8+1)))F
 000024                             1810  1  216.     WARAR      DS    A
 000028                             1811  1  217.     WAR10      DS    A
                                    1812  1  218.                VSA   LCBR,14
 00002C                             1813  1 01-VSA   +           DS    (14+1-(LCBR)+16*((LCBR)/(14+1))/((LCBR)/(14+1)))F
 00003C                             1814  1  219.     LDWESDTP   DS    X                       WORK AREA FOR ESD TYPE
 00003D                             1815  1  220.     LDWCSDTP   DS    X                       WORK AREA FOR CSD TYPE
 000040                             1816  1  221.     LDWTXEND   DS    A                       END OF TEXT ON CARD
 000044                             1817  1  222.     LDWRANDP   DS    2H                      RLD - SAVED R & P
                                    1818  1  223.     LDWR       EQU   LDWRANDP,2,C'H'
                                    1819  1  224.     LDWP       EQU   LDWRANDP+2,2,C'H'
 000048                00048 00044  1820  1  225.                ORG   LDWRANDP
 000044                             1821  1  226.     LDWLDC     DS    H                       ESD - POSSIBLE LD CHAIN
 000048                             1822  1  227.     LDWTEMP    DS    2F
 000050                00050 00040  1823  1  228.                ORG   LDWTXEND
 000040                             1824  1  229.     LDWPRCL    DS    A                       PR CUM LENGTH FOR LDFIX
 000044                00044 0003C  1825  1  230.                ORG   LDWESDTP
 00003C                             1826  1  231.     LDWDLEN    DS    A                       LAST DLNK VALUE
 000040                00040 00050  1827  1  232.                ORG
 000050 00                          1828  1  233.     LDWFLAG    FLAG  ,                       FLAGS
 LDWFLAG.LDWESDMD  80 ONES          1832  1  234.                FLAG  (LDWESDMD,X'80')        CESD data - AMODE/RMODE data
                                    1841  1  235.     LDWASZ     EQU   *-LDWA
 000051                00051 00051  1842     236.              END   ,
                                    1851     237.     *
                                    1852     238.     *
 000015                00000 01B20  1853     239.     VLDR     CSECT
                                    1855     240.     *        CALLING CONVENTIONS:
                                    1856     241.     *              1. STANDARD ORVYL LINKA E WITH SAVE AREA STACK IN R13
                                    1857     242.     *                 AND RETURN ADDR IN R9
                                    1858     243.     *              2. LCBR CONTAINS POINTER TO LOADER CONTROL BLOCK.
                                    1859     244.     *              3. USER MUST PROVIDE LDMSG & VSEG ROUTINES FOR
                                    1860     245.     *                 MESSAGES.
                                    1861     246.     *              4. NO OTHER ASSUMPTIONS ABOUT ORVYL ORGANIZATION
                                    1862     247.     *                 IS ASSUMED.
-
                                    1864     249.     NSDID    EQU   128                     NUMBER OF SD'S (CSECTS)
1VLDR     (VLDR00) (09:48) (22MAR04) ORVYL'S LOADER                                                                         Page   16
0Loc    Object Code    Addr1 Addr2  Stmt Lv Lineno    Source Statement           (Hibal 5, Asmedit 3.3)  HLASM R4.0  2004/03/22 09.48
+___    ______ ____    _____ _____  ____ __ ______    ______ _________
0                                   1866     251.     *  INITIALIZATION
                                    1867     252.     *
                                    1868     253.     *        ENTER WITH ALL REQUIRED FIELDS OF LCB SET.
                                    1869     254.     *
 000015 00/900E D000         00000  1870     255.     LDINIT   VENTER R0,R14,LDWASZ
 00001A 188D/41D0 D054       00054  1874             +
 000020 0D70                        1878             +
 USING  *,R7
                                    1890     256.     BASE     EQU   *
 000022 5860 7C8E            00CB0  1891     257.              L     BRR,=A(BASE+4096)
 USING  BASE+4096,R6                1892     258.              USING BASE+4096,BRR           ##
 USING  LDWA,R8                     1901     259.              USING LDWA,WAR                ##
 USING  LCB,R11                     1910     260.              USING LCB,LCBR                ##
0000026 4120 0003            00003  1920     262.              LA    SR,3                    IS MAP ON A WORD BOUNDARY?
 00002A 5420 B008            00008  1921     263.              N     SR,LCBMAP
 00002E 4770 7098            000BA  1922     264.              BNZ   BADINIT
 000032                             1923     265.              CLEAR (LCBEP,LCBEND-LCBEP)    CLEAR THE WORK AREA
 000032 D78F B070 B070 00070 00070  1929             +
 000038 9680 B070      00070        1930     266.              OI    LCBEP,X'80'             MARK EP NOT DEFINED.
 00003C F820 B07D 7D56 0007D 00D78  1931     267.              ZAP   LCBSEQ,=P'0'            SET SEQUENCE
 000042 9823 B008            00008  1932     268.              LM    SR,TR,LCBMAP            MAP START, LENGTH
 000046 4930 7CEA            00D0C  1933     269.              CH    TR,=Y(256)              MINIMUM ACCEPTABLE SIZE
 00004A 4740 7098            000BA  1934     270.              BL    BADINIT                 MAP AREA TOO SMALL
0                                   1936     272.     * PLACE RENUMBER TABLE AND CSECT TABLE AT END OF MAP AREA
 00004E 8830 0005            00005  1937     273.              SRL   TR,5                    NUMBER OF RNT ENTRIES
 000052 0630                        1938     274.              BCTR  TR,0                    RESERVE ZEROTH ENTRY
 000054 4930 7CEC            00D0E  1939     275.              CH    TR,=Y(32767)            TOO MANY?
 000058 47D0 703E            00060  1940     276.              BNH   *+8                     NO, SKIP
 00005C 4830 7CEC            00D0E  1941     277.              LH    TR,=Y(32767)            USE MAXIMUM
 000060 4030 B0A4            000A4  1942     278.              STH   TR,LCBNRNTE             SAVE NUMBER OF ENTRIES
 000064 4130 3001            00001  1943     279.              LA    TR,@TR+1                COUNT INCLUDING ZEROTH
 000068 4C30 7CEE            00D10  1944     280.              MH    TR,=Y(-L'RNT)           SUBTRACT SPACE REQUIREMENTS
 00006C 5A30 B00C            0000C  1945     281.              A     TR,LCBMPLEN              FROM LENGTH
 000070 1E32                        1946     282.              ALR   TR,SR                   START OF RNT
 000072 5030 B0A0            000A0  1947     283.              ST    TR,LCBRNT               ADDR OF RENUMBER TABLE
 USING  RNT,R3                      1948     284.              USING RNT,TR                  ##
 000076                             1957     285.              CLEAR RNT                     PRCL IS ZERO ENTRY IN RNT
 000076 D705 3000 3000 00000 00000  1963             +
 00007C 9680 3002      00002        1964     286.              SET   RNTFUSE
 DROP   RNT,R3                      1970     287.              DROP  TR                      ##
 000080 5030 B0A0            000A0  1977     288.              ST    TR,LCBSDEND
 000084 5830 B00C            0000C  1978     289.              L     TR,LCBMPLEN             SIZE OF AREA
 000088 8830 0007            00007  1979     290.              SRL   TR,7                    NUMBER OF SDID'S
 00008C 1A33                        1980     291.              AR    TR,TR                   SIZE OF SDID TABLE
 00008E 1333                        1981     292.              LCR   TR,TR                   ALLOCATE SPACE
 000090 5A30 B0A0            000A0  1982     293.              A     TR,LCBSDEND             START OF SDID TABLE
 000094 5030 B098            00098  1983     294.              ST    TR,LCBSD
 000098 5030 B09C            0009C  1984     295.              ST    TR,LCBSDLC
 00009C 5030 B090            00090  1985     296.              ST    TR,LCBRLDLC             RLD AREA.
 0000A0 D217 2000 70A4 00000 000C6  1986     297.              MVC   @SR(L'CSD),PRCLCSD      LAST ITEM NAME=X'FFFFFFFFFFFFF'
 0000A6 5020 B088            00088  1987     298.              ST    SR,LCBCSDH               CHAIN HEAD
 0000AA 4120 2018            00018  1988     299.              LA    SR,L'CSD(,SR)           ALLOCATE A CSD
 0000AE 5020 B08C            0008C  1989     300.              ST    SR,LCBCSDLC
 0000B2 4D90 606A            0108C  1990     301.              LCALL CLRNT                   CLEAR THE RNT
1VLDR     (VLDR00) (09:48) (22MAR04) ORVYL'S LOADER                                                                         Page   17
0Current Usings:  (BASE+4096,R6) (*,R7) (LDWA,R8) (LCB,R11)
0Loc    Object Code    Addr1 Addr2  Stmt Lv Lineno    Source Statement           (Hibal 5, Asmedit 3.3)  HLASM R4.0  2004/03/22 09.48
+___    ______ ____    _____ _____  ____ __ ______    ______ _________
00000B6 47F0 7188            001AA  1992     302.              B     EXIT
                                    1993     303.
 0000BA 4110 7CF0            00D12  1994     304.     BADINIT  DIAG  'ERROR IN LOADER INITIALIZATION',,EXIT,EC=8
 0000BE 4100 001E            0001E  1998             +
 0000C2 4D90 7160            00182  2000             +
 DROP   LCB,R11                     2001     305.              DROP  ,                       ##
 DROP   LDWA,R8
 DROP   *,R7
 DROP   BASE+4096,R6
-
 0000C6 0000000000000000            2047     307.     PRCLCSD  DC    (L'CSD)X'00'            END OF CSD CHAIN SERVES AS
 0000DE                000DE 000CA  2048     308.              ORG   PRCLCSD+(CSDNAME-CSD)   PR CUMULATIVE LENGTH CSD ITEM
 0000CA FFFFFFFFFFFFFFFF            2049     309.              DC    8X'FF'
 0000D2                000D2 000D2  2050     310.              ORG   PRCLCSD+(CSDTYP-CSD)
 0000D2 06                          2051     311.              DC    AL1(ESDTPR)             TYPE=PSEUDO REGISTER
 0000D3                000D3 000DA  2052     312.              ORG   PRCLCSD+(CSDFL-CSD)
 0000DA 80                          2053     313.              DC    AL1(L'CSDFPRCL)         SUBTYPE=CUMULATIVE LENGTH
 0000DB                000DB 000DE  2054     314.              ORG
1VLDR     (VLDR00) (09:48) (22MAR04) ORVYL'S LOADER                                                                         Page   18
0Loc    Object Code    Addr1 Addr2  Stmt Lv Lineno    Source Statement           (Hibal 5, Asmedit 3.3)  HLASM R4.0  2004/03/22 09.48
+___    ______ ____    _____ _____  ____ __ ______    ______ _________
0                                   2056     316.     * LOAD MODULE INPUT INITIALIZATION
                                    2057     317.     *
                                    2058     318.     *        LCB MUST BE INITIALIZED BY CALL TO LDINIT
                                    2059     319.     *
 0000DE 900E D000/188D       00000  2060     320.     LDMIINIT VENTER R0,R14,LDWASZ
 0000E4 41D0 D054/0D70       00054  2065             +
 0000EA 9867 7BAE            00C98  2080     321.              LM    BRR,BR,=A(BASE+4096,BASE)
 USING  *,R7
 DROP   *,R7                        2081     322.              USING BASE,BR,BRR             ##
 USING  BASE,R7
 USING  BASE+4096,R6
 USING  LDWA,R8                     2101     323.              USING LDWA,WAR                ##
 USING  LCB,R11                     2110     324.              USING LCB,LCBR                ##
00000EE 910C B07C      0007C        2120     326.              IF    (LCBFMI+LCBFMO,Z),MARKLMI   ALREADY PROCESSING LMD
 0000F2 4780 70D8            000FA  2137             +
 0000F6 4DF0 7130            00152  2143     327.              BAS   R15,PROCERR
 0000FA                             2144     328.     MARKLMI  LABEL ,
 0000FA 9608 B07C      0007C        2146     329.              SET   LCBFMI                  MARK LOAD MODULE INPUT
 0000FE                             2152     330.              CLEAR LCBMLEN                 MODULE LENGTH
 0000FE D703 B0BC B0BC 000BC 000BC  2158             +
 000104 47F0 7188            001AA  2159     331.              B     EXIT                    ALL SET
 DROP   LCB,R11                     2160     332.              DROP  ,                       ##
 DROP   LDWA,R8
 DROP   BASE,R7
 DROP   BASE+4096,R6
1VLDR     (VLDR00) (09:48) (22MAR04) ORVYL'S LOADER                                                                         Page   19
0Loc    Object Code    Addr1 Addr2  Stmt Lv Lineno    Source Statement           (Hibal 5, Asmedit 3.3)  HLASM R4.0  2004/03/22 09.48
+___    ______ ____    _____ _____  ____ __ ______    ______ _________
0                                   2206     334.     *** DRIVER ***
                                    2207     335.     *
                                    2208     336.     *
 000108 900E D000/188D       00000  2209     337.     LDGO     VENTER R0,R14,LDWASZ
 00010E 41D0 D054/0D70       00054  2214             +
 000114 9867 7B84            00C98  2229     338.              LM    BRR,BR,=A(BASE+4096,BASE)
 USING  *,R7
 DROP   *,R7                        2230     339.              USING BASE,BR,BRR             ##
 USING  BASE,R7
 USING  BASE+4096,R6
 USING  LDWA,R8                     2250     340.              USING LDWA,WAR                ##
 USING  LCB,R11                     2259     341.              USING LCB,LCBR                ##
0000118 910C B07C      0007C        2269     343.              IF    (LCBFMI+LCBFMO,Z),LMINPRCS  PROCESSING LMD'S?
 00011C 4780 7102            00124  2286             +
 000120 4DF0 7130            00152  2292     344.              BAS   R15,PROCERR
 000124                             2293     345.     LMINPRCS LABEL ,
 000124 9824 7196            001B8  2295     346.              LM    SR,QR,CCSRCH            SEARCH FOR
 000128 D503 B014 4000 00014 00000  2296     347.     NXTCC    CLC   LCBCI(4),@QR            IT
 00012E 4780 7120            00142  2297     348.              BE    GOTCC                   IN
 000132 8742 7106            00128  2298     349.              BXLE  QR,SR,NXTCC             TABLE
 000136 4110 7D57            00D79  2299     350.     BADCARD  DIAG  'INVALID OBJECT CARD',,EXIT,EC=8
 00013A 4100 0013            00013  2303             +
 00013E 4D90 7160            00182  2305             +
                                    2306     351.
 000142 5820 4004            00004  2307     352.     GOTCC    L     SR,@QR+4                GO PROCESS
 000146 9200 B014      00014        2308     353.              CLEAR (LCBCI,1)               NOW USED AS LOADMODULE CONTROL
 00014A 07F2                        2315     354.              BR    SR                      CARD.
                                    2316     355.
 00014C D200 5004 1000 00004 00000  2317     356.     PUSHMSG  MVC   4(*-*,R5),0(R1)
                                    2318     357.
 000152 4110 7C92            00CB4  2319     358.     PROCERR  DIAG 'ERROR IN LOADER CALL SEQUENCE',,EXIT,EC=16,REG=R15
 000156 4100 002C            0002C  2323             +
 00015A 4D90 79F0            00A12  2325             +
 00015E 4D90 7150            00172  2327             +
                                    2328     359.
 000162 4110 7D6A            00D8C  2329     360.     LDRERR   DIAG  'SEVERE ERROR IN LOADER',,EXIT,EC=16,REG=R15
 000166 4100 0025            00025  2333             +
 00016A 4D90 79F0            00A12  2335             +
 00016E 4D90 7150            00172  2337             +
 000172 41F0 0010            00010  2338     361.     MSGEX16  LA    R15,16
 000176 47F0 716C            0018E  2339     362.              B     MSGEX
                                    2340     363.
 00017A 41F0 000C            0000C  2341     364.     MSGEX12  LA    R15,12
 00017E 47F0 716C            0018E  2342     365.              B     MSGEX
                                    2343     366.
 000182 41F0 0008            00008  2344     367.     MSGEX8   LA    R15,8
 000186 47F0 716C            0018E  2345     368.              B     MSGEX
                                    2346     369.
 00018A 41F0 0004            00004  2347     370.     MSGEX4   LA    R15,4
 00018E 50A0 8048            00048  2348     371.     MSGEX    DIAG  (1),(0),,,EC=
 000192 58A0 8028            00028  2363             +
 000196 5890 7CBE/0D99       00CE0  2366             +
 00019C 4770 7188            001AA  2368             +
 0001A0 58A0 8048            00048  2369             +
 0001A4 18D5/5850 D000       00000  2370     372.              VPOP  R5,R5,PTR=R5
1VLDR     (VLDR00) (09:48) (22MAR04) ORVYL'S LOADER                                                                         Page   20
0Current Usings:  (BASE+4096,R6) (BASE,R7) (LDWA,R8) (LCB,R11)
0Loc    Object Code    Addr1 Addr2  Stmt Lv Lineno    Source Statement           (Hibal 5, Asmedit 3.3)  HLASM R4.0  2004/03/22 09.48
+___    ______ ____    _____ _____  ____ __ ______    ______ _________
00001AA                             2373     373.     EXIT     LABEL ,
 0001AA                             2375     374.     EXIT2    LABEL ,
 0001AA 58F0 B074            00074  2377     375.              L     R15,LCBMXC
 0001AE 18D8/980E D000       00000  2378     376.     EXITR15  VEXIT R0,R14,LTR               PRESERVE R15
 0001B4 12FF/07F9                   2382             +
                                    2384     377.
 0001B8 00000008                    2385     378.     CCSRCH   DC    F'8'
 0001BC 000001E4                    2386     379.              DC    A(CCTBLND-8)
 0001C0 000001C4                    2387     380.              DC    A(CCTBL)
                                    2388     381.
 0001C4                             2389     382.     CCTBL    DS    0F
 0001C4 02C5E2C4000004A4            2390     383.              DC    X'02',C'ESD',A(ESDCARD)
 0001CC 02E3E7E300000A80            2391     384.              DC    X'02',C'TXT',A(TXTCARD)
 0001D4 02D9D3C400000B46            2392     385.              DC    X'02',C'RLD',A(RLDCARD)
 0001DC 02E2E8D4000003D4            2393     386.              DC    X'02',C'SYM',A(SYMCARD)
 0001E4 02C5D5C4000002BC            2394     387.              DC    X'02',C'END',A(ENDCARD)
                                    2395     388.     CCTBLND  EQU   *
 DROP   LCB,R11                     2396     389.              DROP  ,                       ##
 DROP   LDWA,R8
 DROP   BASE,R7
 DROP   BASE+4096,R6
-
1VLDR     (VLDR00) (09:48) (22MAR04) ORVYL'S LOADER                                                                         Page   21
0Loc    Object Code    Addr1 Addr2  Stmt Lv Lineno    Source Statement           (Hibal 5, Asmedit 3.3)  HLASM R4.0  2004/03/22 09.48
+___    ______ ____    _____ _____  ____ __ ______    ______ _________
0                                   2443     392.     *** LOAD MODULE INPUT DRIVER ***
                                    2444     393.     *
                                    2445     394.     *
 0001EC 900E D000/188D       00000  2446     395.     LDMIGO   VENTER R0,R14,LDWASZ
 0001F2 41D0 D054/0D70       00054  2451             +
 0001F8 9867 7AA0            00C98  2466     396.              LM    BRR,BR,=A(BASE+4096,BASE)
 USING  *,R7
 DROP   *,R7                        2467     397.              USING BASE,BR,BRR             ##
 USING  BASE,R7
 USING  BASE+4096,R6
 USING  LDWA,R8                     2487     398.              USING LDWA,WAR                ##
 USING  LCB,R11                     2496     399.              USING LCB,LCBR                ##
 0001FC 1200                        2505     400.              LTR   R0,R0                   END OF FILE?
 0001FE 4720 71F8            0021A  2506     401.              IF    NP,BEGIN
 000202 9108 B07C      0007C        2517  1  402.                IF    LCBFMI,EOMUNEX          EOM BEEN PROCESSED?
 000206 4710 722C            0024E  2529  1          +
 00020A 5890 8024            00024  2535  1  403.                L     RAR,WARAR
 00020E 4190 9008            00008  2536  1  404.                LA    RAR,@RAR+8
 000212 5090 8024            00024  2537  1  405.                ST    RAR,WARAR
 000216 47F0 7188            001AA  2538  1  406.                B     EXIT
 00021A                             2539     407.              END   ,
000021A 9108 B07C      0007C        2544     409.              IF    LCBFMI,INPLULE          ALREADY INPUTTING LOAD MODULE?
 00021E 4710 7204            00226  2556             +
 000222 4DF0 7130            00152  2562     410.              BAS   R15,PROCERR
 000226                             2563     411.     INPLULE  LABEL ,
 000226 5010 B014            00014  2565     412.              ST    R1,LCBCI                SAVE RECORD POINTER
 00022A D200 B014 1000 00014 00000  2566     413.              MVC   LCBCI(1),@R1            MOVE CODE FORM RECORD
 000230 9824 723E            00260  2567     414.              LM    SR,QR,MRSRCH            SEARCH FOR
 000234 D500 B014 4000 00014 00000  2568     415.     NXTMR    CLC   LCBCI(1),@QR
 00023A 4780 7238            0025A  2569     416.              BE    GOTMR
 00023E 8742 7212            00234  2570     417.              BXLE  QR,SR,NXTMR
 000242 4110 7D0E            00D30  2571     418.     BADREC   DIAG  'INVALID LOAD MODULE RECORD',,EXIT,EC=8 ,REG=R15
 000246 4100 001A            0001A  2575             +
 00024A 4D90 7160            00182  2577             +
 00024E 4110 7D28            00D4A  2578     419.     EOMUNEX  DIAG  'INCOMPLETE LOAD MODULE',,EXIT,EC=8
 000252 4100 0016            00016  2582             +
 000256 4D90 7160            00182  2584             +
                                    2585     420.
 00025A 5820 4004            00004  2586     421.     GOTMR    L     SR,@QR+4                GO PROCESS RECORD.
 00025E 07F2                        2587     422.              BR    SR                      (1) AND (0) ARE RECORD POINTERS
                                    2588     423.
 000260 00000008                    2589     424.     MRSRCH   DC    F'8'
 000264 000002B4                    2590     425.              DC    A(MRTBLND-8)
 000268 0000026C                    2591     426.              DC    A(MRTBL)
                                    2592     427.
 00026C                             2593     428.     MRTBL    DS    0F
 00026C 8000000000000400            2594     429.              DC    AL1(MRIDRID),A(IDRREC)
 000274 40000000000003AC            2595     430.              DC    AL1(MRSYMID),A(SYMREC)
 00027C 2000000000000462            2596     431.              DC    AL1(MRESDID),A(ESDREC)
 000284 10000000000003D8            2597     432.              DC    AL1(MRSCTID),A(SCATREC)
 00028C 0E00000000000B0E            2598     433.              DC    AL1(MREOMID+MREOSID+MRRLDID),A(RLDREC)
 000294 0D00000000000B0E            2599     434.              DC    AL1(MREOMID+MREOSID+MRCTLID),A(RLDREC)
 00029C 0F00000000000B0E            2600     435.              DC    AL1(MREOMID+MREOSID+MRRLDID+MRCTLID),A(RLDREC)
 0002A4 0200000000000B0E            2601     436.              DC    AL1(MRRLDID),A(RLDREC)
 0002AC 0100000000000B0E            2602     437.              DC    AL1(MRCTLID),A(RLDREC)
1VLDR     (VLDR00) (09:48) (22MAR04) ORVYL'S LOADER                                                                         Page   22
0Current Usings:  (BASE+4096,R6) (BASE,R7) (LDWA,R8) (LCB,R11)
0Loc    Object Code    Addr1 Addr2  Stmt Lv Lineno    Source Statement           (Hibal 5, Asmedit 3.3)  HLASM R4.0  2004/03/22 09.48
+___    ______ ____    _____ _____  ____ __ ______    ______ _________
00002B4 0300000000000B0E            2603     438.              DC    AL1(MRRLDID+MRCTLID),A(RLDREC)
 0002BC                             2604     439.     MRTBLND  DS    0C
                                    2605     440.
1VLDR     (VLDR00) (09:48) (22MAR04) ORVYL'S LOADER                                                                         Page   23
0Current Usings:  (BASE+4096,R6) (BASE,R7) (LDWA,R8) (LCB,R11)
0Loc    Object Code    Addr1 Addr2  Stmt Lv Lineno    Source Statement           (Hibal 5, Asmedit 3.3)  HLASM R4.0  2004/03/22 09.48
+___    ______ ____    _____ _____  ____ __ ______    ______ _________
0                                   2607     442.     *** END CARD PROCESSOR ***
                                    2608     443.     *
                                    2609     444.     *
 0002BC                             2610     445.     ENDCARD  LABEL ,
 0002BC 5890 8024            00024  2612     446.              L     RAR,WARAR               SET SPECIAL RETURN ADDRESS
 0002C0 4190 9004            00004  2613     447.              LA    RAR,@RAR+4
 0002C4 5090 8024            00024  2614     448.              ST    RAR,WARAR
 0002C8 F820 B07D 7D56 0007D 00D78  2615     449.              ZAP   LCBSEQ,=P'0'            RESET SEQUENCE
 0002CE 58C0 B0A8/12CC       000A8  2616     450.              LT    R12,LCBLSD              NEED CSECT LENGTH?
 0002D4 4780 72DA            002FC  2620     451.              IF    NZ,BEGIN
 0002D8                             2631  1  452.                CLEAR LCBLSD
 0002D8 D703 B0A8 B0A8 000A8 000A8  2637  1          +
 USING  CSD,R12                     2638  1  453.                USING CSD,R12                 ##
 0002DE 9500 B030      00030        2647  1  454.                CLI   CINLEN,0                If Zero, we have a length
 0002E2 4770 72CA            002EC  2648  1  455.                IF    EQ,BEGIN
 0002E6 D202 C011 B031 00011 00031  2659  2  456.                  MVC   CSDLNG+1(3),CINLEN+1    PLANT LENGTH
 0002EC                             2660  1  457.                END   ,
 0002EC 72CE           002EC 002E4  2664  1  458.                ELSE  BEGIN
 0002EC 47F0 72D4            002F6  2669  1          +
 0002F0 D202 C011 7CC2 00011 00CE4  2675  2  459.                  MVC   CSDLNG+1(3),=A(0)
 0002F6                             2676  1  460.                END   ,
 0002F6 181C                        2680  1  461.                LR    R1,R12                  CSD POINTER
 0002F8 4D90 7F58            00F7A  2681  1  462.                LCALL GETSD                   GET SPACE
 DROP   CSD,R12                     2683  1  463.                DROP  R12                     ##
 0002FC                             2690     464.              END   ,
 0002FC 5800 B070/1200       00070  2694     465.              LT    R0,LCBEP                ENTRY ALREADY PRESENT?
 000302 47B0 733C            0035E  2698     466.              BNM   ENDCOM                  BR IF SO
 000306 9540 B024      00024        2699     467.              CLI   CINSEP,C' '             SYMBOLIC ENTRY?
 00030A 4780 7308            0032A  2700     468.              IF    NE,BEGIN
 00030E 41B0 B024            00024  2711  1  469.                LA    LCBR,CINSEP
 000312 4D90 6928            0194A  2712  1  470.                LCALL LDFIND                  LOOK IT UP
 000316 12FF                        2714  1  471.                LTR   R15,R15
 000318 4780 7364            00386  2715  1  472.                BZ    ENDERA                  BR IF UNDEFINED
 00031C 1211                        2716  1  473.                LTR   R1,R1
 00031E 4740 7364            00386  2717  1  474.                BM    ENDERA
 000322 5F10 B000            00000  2718  1  475.                SL    R1,LCBCORE
 000326 5010 B070            00070  2719  1  476.                ST    R1,LCBEP
 00032A                             2720     477.              END   ,
 00032A 4810 B022            00022  2724     478.              LH    R1,CIESID               OR IF NONE
 00032E 4910 7362            00384  2725     479.              CH    R1,ENDBL                GIVEN OR
 000332 4780 733C            0035E  2726     480.              BE    ENDCOM                  CARD.
 000336 4D90 60A6            010C8  2727     481.              LCALL RNTFU                   RENUMBER ID
 USING  RNT,R5                      2729     482.              USING RNT,XRNT                ##
 00033A 9104 5002      00002        2738     483.              IF    ~RNTFSD,ENDERA          ERROR IF ESID IS
 00033E 47E0 7364            00386  2750             +
 000342 4810 5000            00000  2756     484.              LH    R1,RNTCSD               LOCATE CSD.
 000346 4C10 7D3E            00D60  2757     485.              MH    R1,=Y(L'CSD)
 00034A 5E10 B008            00008  2758     486.              AL    R1,LCBCSD
 DROP   RNT,R5                      2759     487.              DROP  XRNT                    ##
 USING  CSD,R1                      2766     488.              USING CSD,R1                  ##
 00034E 1FFF/BFF7 1015       00015  2775     489.              L3    R15,CSDREL+1            RELOCATE ENTRY POINT.
 DROP   CSD,R1                      2783     490.              DROP  R1                      ##
 000354 181F                        2790     491.              LR    R1,R15
 000356 5E10 B018            00018  2791     492.              AL    R1,CITADDR
1VLDR     (VLDR00) (09:48) (22MAR04) ORVYL'S LOADER                                                                         Page   24
0Current Usings:  (BASE+4096,R6) (BASE,R7) (LDWA,R8) (LCB,R11)
0Loc    Object Code    Addr1 Addr2  Stmt Lv Lineno    Source Statement           (Hibal 5, Asmedit 3.3)  HLASM R4.0  2004/03/22 09.48
+___    ______ ____    _____ _____  ____ __ ______    ______ _________
000035A 5010 B070            00070  2792     493.              ST    R1,LCBEP                STORE.
 00035E 4D90 606A            0108C  2793     494.     ENDCOM   LCALL CLRNT                   CLEAR RNT.
 000362 58C0 B0AC/12CC       000AC  2795     495.              LT    R12,LCBCHRPH            RELEASE ANY CHANGE/REPLACE ITEMS
 000368 4780 7188            001AA  2799     496.              BZ    EXIT
 USING  CSD,R12                     2800     497.              USING CSD,R12                 ##
 00036C 181C                        2809     498.     ENDCHRP  LR    R1,R12
 00036E 4D90 6014            01036  2810     499.              LCALL RELCSD                  PUT ON FREE CHAIN
 000372 58C0 C000/12CC       00000  2812     500.              LT    R12,CSDLINK             GET NEXT
 000378 4770 734A            0036C  2816     501.              BNZ   ENDCHRP
 00037C 50C0 B0AC            000AC  2817     502.              ST    R12,LCBCHRPH            ZERO LIST POINTER
 DROP   CSD,R12                     2818     503.              DROP  R12                     ##
 000380 47F0 7188            001AA  2825     504.              B     EXIT
                                    2826     505.
 000384                             2827     506.     ENDBL    LABEL ,
 000384 4040                        2829     507.              DC    C'  '
 000386 4110 7D8F            00DB1  2830     508.     ENDERA   DIAG  'ENTRY INVALID'
 00038A 4100 000D            0000D  2834             +
 00038E 41F0 0004            00004  2835             +
 000392 50A0 8048            00048  2836             +
 000396 58A0 8028            00028  2837             +
 00039A 5890 7CBE/0D99       00CE0  2840             +
 0003A0 4770 7188            001AA  2842             +
 0003A4 58A0 8048            00048  2843             +
 0003A8 47F0 733C            0035E  2844     509.              B     ENDCOM
1VLDR     (VLDR00) (09:48) (22MAR04) ORVYL'S LOADER                                                                         Page   25
0Current Usings:  (BASE+4096,R6) (BASE,R7) (LDWA,R8) (LCB,R11)
0Loc    Object Code    Addr1 Addr2  Stmt Lv Lineno    Source Statement           (Hibal 5, Asmedit 3.3)  HLASM R4.0  2004/03/22 09.48
+___    ______ ____    _____ _____  ____ __ ______    ______ _________
0                                   2846     511.     *** SYM RECORD PROCESSING ***
                                    2847     512.     *
                                    2848     513.     *
 0003AC                             2849     514.     SYMREC   LABEL ,
 USING  MRC,R1                      2851     515.              USING MRC,R1                  ##
 0003AC 4820 1002            00002  2860     516.              LH    SR,MRSYMCNT             COUNT OF SYM DATA
 DROP   MRC,R1                      2861     517.              DROP  R1                      ##
 0003B0 4920 7D40            00D62  2868     518.              CH    SR,=Y(L'MRSYM)
 0003B4 47D0 739A            003BC  2869     519.              IF     HIGH,'BAS R15,BADREC'
 0003B8 4DF0 7220            00242  2881             +
 0003BC 4120 2004            00004  2886     520.              LA    SR,@SR+MRSYM-MRC        RECORD LENGTH
 0003C0 1B02                        2887     521.              SR    R0,SR
 0003C2 47B0 73A8            003CA  2888     522.              IF    NEG,'BAS R15,BADREC'
 0003C6 4DF0 7220            00242  2900             +
 0003CA 1A12                        2905     523.              AR    R1,SR
 0003CC 9001 8000            00000  2906     524.              STM   R0,R1,WAR0              UPDATED RECORD POINTERS
 0003D0 47F0 7188            001AA  2907     525.              B     EXIT                    THROW AWAY INFO
0                                   2909     527.     *** SYM CARD PROCESSING ***
                                    2910     528.     *
                                    2911     529.     *
 0003D4 47F0 7188            001AA  2912     530.     SYMCARD  B     EXIT                    SOME DAY
1VLDR     (VLDR00) (09:48) (22MAR04) ORVYL'S LOADER                                                                         Page   26
0Current Usings:  (BASE+4096,R6) (BASE,R7) (LDWA,R8) (LCB,R11)
0Loc    Object Code    Addr1 Addr2  Stmt Lv Lineno    Source Statement           (Hibal 5, Asmedit 3.3)  HLASM R4.0  2004/03/22 09.48
+___    ______ ____    _____ _____  ____ __ ______    ______ _________
0                                   2914     532.     *** SCATTER RECORD PROCESSING ***
                                    2915     533.     *
                                    2916     534.     *
 0003D8                             2917     535.     SCATREC  LABEL ,
 USING  MRC,R1                      2919     536.              USING MRC,R1                  ##
 0003D8 4820 1002            00002  2928     537.              LH    SR,MRSCTCNT             COUNT OF SCATTER DATA
 DROP   MRC,R1                      2929     538.              DROP  R1                      ##
 0003DC 4920 7D42            00D64  2936     539.              CH    SR,=Y(L'MRSCT)
 0003E0 47D0 73C6            003E8  2937     540.              IF    HIGH,'BAS R15,BADREC'
 0003E4 4DF0 7220            00242  2949             +
 0003E8 4120 2004            00004  2954     541.              LA    SR,@SR+MRSCT-MRC        RECORD LENGTH
 0003EC 1B02                        2955     542.              SR    R0,SR
 0003EE 47B0 73D4            003F6  2956     543.              IF    NEG,'BAS R15,BADREC'
 0003F2 4DF0 7220            00242  2968             +
 0003F6 1A12                        2973     544.              AR    R1,SR
 0003F8 9001 8000            00000  2974     545.              STM   R0,R1,WAR0              UPDATED RECORD POINTERS
 0003FC 47F0 7188            001AA  2975     546.              B     EXIT                    THROW AWAY INFO
1VLDR     (VLDR00) (09:48) (22MAR04) ORVYL'S LOADER                                                                         Page   27
0Current Usings:  (BASE+4096,R6) (BASE,R7) (LDWA,R8) (LCB,R11)
0Loc    Object Code    Addr1 Addr2  Stmt Lv Lineno    Source Statement           (Hibal 5, Asmedit 3.3)  HLASM R4.0  2004/03/22 09.48
+___    ______ ____    _____ _____  ____ __ ______    ______ _________
0                                   2977     548.     *** IDR RECORD PROCESSING ***
                                    2978     549.     *
                                    2979     550.     *
 000400                             2980     551.     IDRREC   LABEL ,
 USING  MRC,R1                      2982     552.              USING MRC,R1                  ##
 000400 1F22/4320 1001       00001  2991     553.              LC    SR,MRIDRCNT
 000406 4920 7D44            00D66  2998     554.              CH    SR,=Y(L'MRIDR)
 00040A 47D0 73F0            00412  2999     555.              IF    HIGH,'BAS R15,BADREC'
 00040E 4DF0 7220            00242  3011             +
 000412 4120 2001            00001  3016     556.              LA    SR,@SR+MRIDR-MRC        RECORD LENGTH
 000416 1B02                        3017     557.              SR    R0,SR
 000418 47B0 73FE            00420  3018     558.              IF    NEG,'BAS  R15,BADREC'
 00041C 4DF0 7220            00242  3030             +
 000420 5000 8000            00000  3035     559.              ST    R0,WAR0
 000424 1801                        3036     560.              LR    R0,R1
 000426 1A02                        3037     561.              AR    R0,SR
 000428 5000 8004            00004  3038     562.              ST    R0,WAR1
 00042C 947F 1002      00002        3039     563.              NI    MRIDRTYP,255-MRIDRLST   CLEAR LAST BIT
 000430 9510 1002      00002        3040     564.              CLI   MRIDRTYP,MRIDRORV       AN ORVYL IDR RECORD?
 000434 4770 7188            001AA  3041     565.              BNE   EXIT
 000438 D203 B064 1003 00064 00003  3042     566.              MVC   LCBIDRFL,MRIDRFL        SET FLAGS
 00043E 5800 1008            00008  3043     567.              L     R0,MRIDRMSZ             STORAGE REQUIREMENTS
 000442 5E00 B078            00078  3044     568.              AL    R0,LCBLC                CURRENT LOAD LENGTH.
 000446 5500 B004            00004  3045     569.              CL    R0,LCBCLEN              WILL IT FIT?
 00044A 4720 7FCA            00FEC  3046     570.              BH    NOSDCORE                NO
 00044E 5800 B070/1200       00070  3047     571.              LT    R0,LCBEP                ENTRY POINT DEFINED YET?
 000454 47B0 743C            0045E  3051     572.              IF    MIN,'MVC LCBEP,MRIDREP'
 000458 D203 B070 100C 00070 0000C  3063             +
 00045E 47F0 7188            001AA  3068     573.              B     EXIT
 DROP   MRC,R1                      3069     574.              DROP  R1                      ##
1VLDR     (VLDR00) (09:48) (22MAR04) ORVYL'S LOADER                                                                         Page   28
0Current Usings:  (BASE+4096,R6) (BASE,R7) (LDWA,R8) (LCB,R11)
0Loc    Object Code    Addr1 Addr2  Stmt Lv Lineno    Source Statement           (Hibal 5, Asmedit 3.3)  HLASM R4.0  2004/03/22 09.48
+___    ______ ____    _____ _____  ____ __ ______    ______ _________
0                                   3077     576.     *** PROCESS LOAD MODULE ESD RECORD
                                    3078     577.     *
                                    3079     578.     *
 000462                             3080     579.     ESDREC   LABEL ,
 USING  MRC,R1                      3082     580.              USING MRC,R1                  ##
 000462 9200 8050      00050        3091     581.              CLEAR LDWFLAG                 Reset flag for ESD segment
                                    3098     582.     *
                                    3099     583.     *  Check ESD header flag (byte 1)
                                    3100     584.     *    0XXX XXXX - byte 12 of CESD data item contain segment numbers
                                    3101     585.     *    1XXX XXXX - byte 12 of CESD data items contains AMODE/RMODE data
                                    3102     586.     *
 000466 9180 1001      00001        3103     587.              IF    ('TM MRESFLAG,MRESAMOD',NZ),'SET LDWESDMD'
 00046A 4780 7450            00472  3111             +
 00046E 9680 8050      00050        3122             +
                                    3127     588.
 000472 D201 B022 1004 00022 00004  3128     589.              MVC   CIESID,MRESID           COPY FIRST ESD ID
 000478 4120 1008            00008  3129     590.              LA    SR,MRESD                FIRST ESD ITEM
 00047C 4830 1006            00006  3130     591.              LH    TR,MRESDCNT             COMPUTE END
 DROP   MRC,R1                      3131     592.              DROP  R1                      ##
 000480 4930 7D46            00D68  3138     593.              CH    TR,=Y(L'MRESD)
 000484 47D0 746A            0048C  3139     594.              IF    HIGH,'BAS R15,BADREC'
 000488 4DF0 7220            00242  3151             +
 00048C 4140 3008            00008  3156     595.              LA    QR,@TR+MRESD-MRC        RECORD LENGTH
 000490 1B04                        3157     596.              SR    R0,QR
 000492 47B0 7478            0049A  3158     597.              IF    NEG,'BAS R15,BADREC'
 000496 4DF0 7220            00242  3170             +
 00049A 1A14                        3175     598.              AR    R1,QR
 00049C 9001 8000            00000  3176     599.              STM   R0,R1,WAR0              SAVE NEXT RECORD POINTERS
 0004A0 47F0 7492            004B4  3177     600.              B     ESDCOM                  JOIN OBJECT CARD CODE
1VLDR     (VLDR00) (09:48) (22MAR04) ORVYL'S LOADER                                                                         Page   29
0Current Usings:  (BASE+4096,R6) (BASE,R7) (LDWA,R8) (LCB,R11)
0Loc    Object Code    Addr1 Addr2  Stmt Lv Lineno    Source Statement           (Hibal 5, Asmedit 3.3)  HLASM R4.0  2004/03/22 09.48
+___    ______ ____    _____ _____  ____ __ ______    ______ _________
0                                   3179     602.     *** PROCESS ESD CARD ***
                                    3180     603.     *
                                    3181     604.     *
                                    3182     605.     *
 0004A4                             3183     606.     ESDCARD  LABEL ,
 0004A4 4120 B024            00024  3185     607.              LA    SR,CIESD               LOCATE FIRST ESD.
 USING  ESD,R2                      3186     608.              USING ESD,SR                 ##
 0004A8 4830 B01E            0001E  3195     609.              LH    TR,CICNT               COMPUTE END
 0004AC 4930 7D48            00D6A  3196     610.              CH    TR,=Y(CISEQ-CITEXT)
 0004B0 4720 7114            00136  3197     611.              BH    BADCARD                BRANCH IF HASH IN COUNT FIELD
 0004B4 1A32                        3198     612.     ESDCOM   AR    TR,SR                  END MARKER
 0004B6 5030 8040            00040  3199     613.              ST    TR,LDWTXEND            SAVE END
                                    3200     614.     *
                                    3201     615.     * PROCESS NEXT ESD
                                    3202     616.     *
 0004BA 941F 2008      00008        3203     617.     ESDNXA   NI    ESDTYP,X'1F'            CLR SUBCLASS (EX. DELETE)
 0004BE D200 803C 2008 0003C 00008  3204     618.              MVC   LDWESDTP,ESDTYP         SAVE TYPE
 0004C4 950A 2008      00008        3205     619.              CLI   ESDTYP,HIESDTYP         ERROR IF
 0004C8 4720 794C            0096E  3206     620.              BH    ESDTPERR                ILLEGAL TYPE.
 0004CC 1F11/4310 2008       00008  3207     621.              LC    R1,ESDTYP               AN X'FF' IN THE
 0004D2 4111 78D6            008F8  3214     622.              LA    R1,ESDTPTB(R1)          TABLE
 0004D6 91FF 1000      00000        3215     623.              TM    @R1,X'FF'               IS ALSO
 0004DA 4710 794C            0096E  3216     624.              BO    ESDTPERR                AN ERROR.
 0004DE 9501 2008      00008        3217     625.              CLI   ESDTYP,ESDTLD
 0004E2 4780 74DC            004FE  3218     626.              IF    NE,BEGIN
 0004E6 4810 B022            00022  3229  1  627.                LH    R1,CIESID
 0004EA 4100 1001            00001  3230  1  628.                LA    R0,@R1+1
 0004EE 4000 B022            00022  3231  1  629.                STH   R0,CIESID
 0004F2 9507 2008      00008        3232  1  630.                CLI   ESDTYP,ESDTNL           NULL?
 0004F6 4780 75FE            00620  3233  1  631.                BE    NXTESD                  SKIP IT
 0004FA 4D90 6080            010A2  3234  1  632.                LCALL RNTF                    RENUMBER ID
 USING  RNT,R5                      3236  1  633.                USING RNT,XRNT                ##
 0004FE                             3245     634.              END   ,
 0004FE 58F0 B0AC/12FF       000AC  3249     635.              LT    R15,LCBCHRPH            ANY CHA/REP LIST?
 000504 4780 7568            0058A  3253     636.              BZ    ESDSRCH                 NO
1VLDR     (VLDR00) (09:48) (22MAR04) ORVYL'S LOADER                                                                         Page   30
0Current Usings:  (ESD,R2) (RNT,R5) (BASE+4096,R6) (BASE,R7) (LDWA,R8) (LCB,R11)
0Loc    Object Code    Addr1 Addr2  Stmt Lv Lineno    Source Statement           (Hibal 5, Asmedit 3.3)  HLASM R4.0  2004/03/22 09.48
+___    ______ ____    _____ _____  ____ __ ______    ______ _________
0                                   3255     638.     * CHANGE/REPLACE/DELETE LIST EXISTS. SEARCH FOR CURRENT ESDNAME.
                                    3256     639.     *
 USING  CSD,R15                     3257     640.              USING CSD,R15                 ##
 000508 D507 F004 2000 00004 00000  3266     641.     ESDCHRP  CLC   CSDNAME,ESDNAME
 00050E 4780 74FE            00520  3267     642.              BE    ESDCR1                  MATCH FOUND
 000512 58F0 F000/12FF       00000  3268     643.     RECHRP   LT    R15,CSDLINK
 000518 4770 74E6            00508  3272     644.              BNZ   ESDCHRP
 00051C 47F0 7568            0058A  3273     645.              B     ESDSRCH                 NO MATCH FOUND
0000520 95F0 F00C      0000C        3275     647.     ESDCR1   CLI   CSDTYP,CSDTCHA          CHANGE?
 000524 4780 754C            0056E  3276     648.              BE    ESDCHA                  YES
                                    3277     649.     * DELETE/REPLACE
 000528 9506 2008      00008        3278     650.              CLI   ESDTYP,ESDTPR           PSEUDO-REGISTER?
 00052C 4770 7514            00536  3279     651.              BNE   ESDDLNPR                NO
 000530                             3280     652.              CLEAR ESDLNG                  CLEAR LENGTH/ALIGNMENT
 000530 D703 200C 200C 0000C 0000C  3286             +
 000536                             3287     653.     ESDDLNPR LABEL ,
 000536 95E0 F00C      0000C        3289     654.              CLI   CSDTYP,CSDTREP          REPLACE?
 00053A 4780 7540            00562  3290     655.              BE    ESDREP                  YES
                                    3291     656.     * DELETE
 00053E 9506 2008      00008        3292     657.              CLI   ESDTYP,ESDTPR           ESD=PR?
 000542 4780 74F0            00512  3293     658.              BE    RECHRP                  CONTINUE SEARCH
 000546                             3294     659.     ESDDEL   LABEL ,                       JOIN HERE TO DELETE DUP SYM
 000546 9610 2008      00008        3296     660.              OI    ESDTYP,ESDTDEL          DELETE ESD
 00054A 9511 2008      00008        3297     661.              CLI   ESDTYP,ESDTLD+ESDTDEL   ESD=LD?
 00054E 4780 75FE            00620  3298     662.              BE    NXTESD                  DISCARD
 000552 9510 2008      00008        3299     663.              CLI   ESDTYP,ESDTSD+ESDTDEL   ESD=SD?
 000556 4780 7552            00574  3300     664.              BE    ESDDLCOM
 00055A 9212 2008      00008        3301     665.              MVI   ESDTYP,ESDTER+ESDTDEL
 00055E 47F0 7552            00574  3302     666.              B     ESDDLCOM                DO COMMON PROCESSING
                                    3303     667.     *
                                    3304     668.     * REPLACE
 000562 9500 2008      00008        3305     669.     ESDREP   CLI   ESDTYP,ESDTSD           ESD=SD?
 000566 4770 754C            0056E  3306     670.              BNE   ESDCHA                  NO
 00056A 9610 2008      00008        3307     671.              OI    ESDTYP,ESDTDEL          SET ESD DELETE
                                    3308     672.
 00056E D207 2000 F010 00000 00010  3309     673.     ESDCHA   MVC   ESDNAME,CSDNAM2         CHANGE NAME TO PROTECT INNOCENT
 000574 D200 803C 2008 0003C 00008  3310     674.     ESDDLCOM MVC   LDWESDTP,ESDTYP         GET NEW TYPE
 00057A 940F 803C      0003C        3311     675.              NI    LDWESDTP,X'0F'          CLEAR DELETE FLAG
 00057E 950A 803C      0003C        3312     676.              CLI   LDWESDTP,ESDTWX         WX?
 000582 4770 7568            0058A  3313     677.              BNE   ESDSRCH                 NO.
 000586 9202 803C      0003C        3314     678.              MVI   LDWESDTP,ESDTER         MATCH LIKE ER.
 DROP   CSD,R15                     3315     679.              DROP  R15                     ##
 USING  CSD,R12                     3322     680.              USING CSD,R12                 ##
1VLDR     (VLDR00) (09:48) (22MAR04) ORVYL'S LOADER                                                                         Page   31
0Current Usings:  (ESD,R2) (RNT,R5) (BASE+4096,R6) (BASE,R7) (LDWA,R8) (LCB,R11) (CSD,R12)
0Loc    Object Code    Addr1 Addr2  Stmt Lv Lineno    Source Statement           (Hibal 5, Asmedit 3.3)  HLASM R4.0  2004/03/22 09.48
+___    ______ ____    _____ _____  ____ __ ______    ______ _________
0                                   3332     682.     * SEARCH THROUGH CHAINED CSD FOR ESD MATCH
                                    3333     683.     *
 00058A 41C0 B088            00088  3334     684.     ESDSRCH  LA    R12,LCBCSDH              MERGE ESD INTO CSD
 00058E                             3335     685.              CLEAR LDWLDC                  ZERO LD CHAIN INDICATOR
 00058E D701 8044 8044 00044 00044  3341             +
 000594 18AC                        3342     686.     ESDSLOOP LR    R10,R12                 SAVE PREV R12
 000596 58C0 C000            00000  3343     687.              L     R12,CSDLINK             GET NEXT
 00059A D507 C004 2000 00004 00000  3344     688.              CLC   CSDNAME,ESDNAME
 0005A0 4740 7572            00594  3345     689.              BL    ESDSLOOP                KEEP UP THE SEARCH
 0005A4 4780 77E6            00808  3346     690.              BE    ESDRSLV                 FOUND THE NAME
                                    3347     691.     *
                                    3348     692.     * NON-RESOLUTION PROCESSING
                                    3349     693.     *
 0005A8 4D90 7FE2            01004  3350     694.     ESDNR    LCALL GETCSD                  RETURNS (1) =A(CSD)
 0005AC 5010 A000            00000  3352     695.              ST    R1,@R10                 LINK IN NEW ITEM
 0005B0 50C0 1000            00000  3353     696.              ST    R12,@R1
 0005B4 18C1                        3354     697.              LR    R12,R1
 0005B6 D20B C004 2000 00004 00000  3355     698.     ESDNR1   MVC   CSDNAME(12),ESDNAME     MOVE IN NAME, TYPE, ADDR.
 0005BC 94EF C00C      0000C        3356     699.              NI    CSDTYP,255-ESDTDEL      TABLES NOT FILLED FRO DEL
 0005C0 9501 803C      0003C        3357     700.              CLI   LDWESDTP,ESDTLD         BRANCH IF ESD IS LD.
 0005C4 4780 75C4            005E6  3358     701.              BE    ESDNRJMP                (NO RENUMBERING)
                                    3359     702.     *
                                    3360     703.     * RE-NUMBER NON-LD ESD
                                    3361     704.     *
 0005C8 9188 5002      00002        3362     705.              IF    (RNTFUSE*RNTFSDX),'MVC LDWLDC,RNTCSD'
 0005CC 47E0 75B4            005D6  3375             +
 0005D0 D201 8044 5000 00044 00000  3381             +
 0005D6 4D90 7A36            00A58  3386     706.              LCALL RENUM                   FIX RNT
 0005DA 9110 2008      00008        3388     707.              TM    ESDTYP,ESDTDEL          PUT DELETE FLAG ON IF
 0005DE 47E0 75C4            005E6  3389     708.              IF    ONE,'SET RNTFDEL'       NECESSARY
 0005E2 9640 5002      00002        3406             +
                                    3411     709.     *
                                    3412     710.     * PROCESS BY TYPE
                                    3413     711.     *
 0005E6 1F11/4310 803C       0003C  3414     712.     ESDNRJMP LC    R1,LDWESDTP             JUMP ON CODE.
 0005EC 8910 0002            00002  3421     713.              SLL   R1,2                    BRANCH
 0005F0 47F1 75D2            005F4  3422     714.              B     *+4(R1)                 ON TYPE
 0005F4 47F0 761A            0063C  3423     715.              B     ESDNSD                  SD
 0005F8 47F0 7766            00788  3424     716.              B     ESDNLD                  LD
 0005FC 47F0 75FE            00620  3425     717.              B     NXTESD                  ER
 000600 47F0 776A            0078C  3426     718.              B     ESDNLR                  LR
 000604 47F0 760E            00630  3427     719.              B     ESDNPC                  PC
 000608 47F0 772E            00750  3428     720.              B     ESDNCM                  CM
 00060C 47F0 7896            008B8  3429     721.              B     ESDNPR                  PR
 000610 4DF0 7140            00162  3430     722.              BAS   R15,LDRERR              NL - SHOULDN'T HAPPEN
 000614 4DF0 7140            00162  3431     723.              BAS   R15,LDRERR              INVALID - SHOULDN'T HAPPEN
 000618 4DF0 7140            00162  3432     724.              BAS   R15,LDRERR              INVALID - SHOULDN'T HAPPEN
 00061C 47F0 75FE            00620  3433     725.              B     NXTESD                  WX
0                                   3435     727.     * MOVE TO NEXT ESD
                                    3436     728.     *
 000620 4120 2010            00010  3437     729.     NXTESD   LA    SR,ESDNXT
 000624 5920 8040            00040  3438     730.              C     SR,LDWTXEND            END OF TEXT?
 000628 4740 7498            004BA  3439     731.              BL    ESDNXA
1VLDR     (VLDR00) (09:48) (22MAR04) ORVYL'S LOADER                                                                         Page   32
0Current Usings:  (ESD,R2) (RNT,R5) (BASE+4096,R6) (BASE,R7) (LDWA,R8) (LCB,R11) (CSD,R12)
0Loc    Object Code    Addr1 Addr2  Stmt Lv Lineno    Source Statement           (Hibal 5, Asmedit 3.3)  HLASM R4.0  2004/03/22 09.48
+___    ______ ____    _____ _____  ____ __ ______    ______ _________
000062C 47F0 7188            001AA  3440     732.              B     EXIT
1VLDR     (VLDR00) (09:48) (22MAR04) ORVYL'S LOADER                                                                         Page   33
0Current Usings:  (ESD,R2) (RNT,R5) (BASE+4096,R6) (BASE,R7) (LDWA,R8) (LCB,R11) (CSD,R12)
0Loc    Object Code    Addr1 Addr2  Stmt Lv Lineno    Source Statement           (Hibal 5, Asmedit 3.3)  HLASM R4.0  2004/03/22 09.48
+___    ______ ____    _____ _____  ____ __ ______    ______ _________
0                                   3442     734.     * SD OR PC   (DELETE ZERO LENGTH PCS)
                                    3443     735.     *
 000630                             3444     736.     ESDNPC   LABEL ,
 000630 1F11/BF17 200D       0000D  3446     737.              L3    R1,ESDLNG+1             CHECK PC LENGTH
 000636 1211/4780 75FE       00620  3454     738.              IF    (R1,ZERO),NXTESD
 00063C                             3471     739.     ESDNSD   LABEL ,
 00063C 9108 B07C      0007C        3473     740.              IF    LCBFMI,BEGIN            FIX UP LNG IF LOAD MOD
 000640 47E0 7644            00666  3483             +
 000644 1FFF/BFF7 2009       00009  3488  1  741.                L3    R15,ESDADDR+1           STARTING ADDRESS
 00064A 1FEE/BFE7 200D       0000D  3496  1  742.                L3    R14,ESDLNG+1            LENGTH
 000650 1EFE                        3504  1  743.                ALR   R15,R14                 PLUS LENGTH
 000652 59F0 B004            00004  3505  1  744.                IF    (R15,GT,LCBCLEN),NOSDCORE
 000656 4720 7FCA            00FEC  3519  1          +
 00065A 59F0 B0BC            000BC  3525  1  745.                IF    (R15,GT,LCBMLEN),'ST 15,LCBMLEN' NEW MAX
 00065E 47D0 7644            00666  3537  1          +
 000662 50F0 B0BC            000BC  3543  1          +
 000666                             3548     746.              END  ,
 000666 9110 2008      00008        3552     747.              TM    ESDTYP,ESDTDEL          MARKED FOR REP/DEL?
 00066A 4780 7680            006A2  3553     748.              BZ    SDKEEP                  NO
0                                   3555     750.     * SD/PC MARKED FOR DELETION. RELEASE ANY SDX CHAIN.
                                    3556     751.     *
 00066E 9640 5002      00002        3557     752.              SET   RNTFDEL                 DELETE ALL TEXT/RLDS
 000672 9202 C00C      0000C        3563     753.              MVI   CSDTYP,ESDTER           UNRESOLVE CSD
 000676 94BF C014      00014        3564     754.              CLEAR CSDFDEF
 00067A 4810 8044            00044  3571     755.     LDCDEL   LH    R1,LDWLDC               TEST FOR LD CHAIN
 00067E 1211                        3572     756.              LTR   R1,R1
 000680 4780 75FE            00620  3573     757.              BZ    NXTESD                  NONE
 DROP   CSD,R12                     3574     758.              DROP  R12                     ##
 000684 4C10 7D3E            00D60  3581     759.              MH    R1,=Y(L'CSD)
 000688 5E10 B008            00008  3582     760.              AL    R1,LCBCSD
 USING  CSD,R1                      3583     761.              USING CSD,R1                  ## DISPLACE R12 FOR A SECOND
 00068C 9202 100C      0000C        3592     762.     LDCLOOP  MVI   CSDTYP,ESDTER           MAKE LD INTO ER
 000690 94BF 1014      00014        3593     763.              CLEAR CSDFDEF
 000694 5810 1010/1211       00010  3600     764.              LT    R1,CSDSDC               MORE ON CHAIN?
 00069A 4770 766A            0068C  3604     765.              BNZ   LDCLOOP                 Y
 DROP   CSD,R1                      3605     766.              DROP  R1                      ##
 00069E 47F0 75FE            00620  3612     767.              B     NXTESD
1VLDR     (VLDR00) (09:48) (22MAR04) ORVYL'S LOADER                                                                         Page   34
0Current Usings:  (ESD,R2) (RNT,R5) (BASE+4096,R6) (BASE,R7) (LDWA,R8) (LCB,R11)
0Loc    Object Code    Addr1 Addr2  Stmt Lv Lineno    Source Statement           (Hibal 5, Asmedit 3.3)  HLASM R4.0  2004/03/22 09.48
+___    ______ ____    _____ _____  ____ __ ______    ______ _________
0                                   3614     769.     * ALLOCATE SD/PC. PROCESS ANY SDX CHAIN.
                                    3615     770.     *
                                    3616     771.     *        FILL IN THE CSDADDR AND CSDREL FIELDS
                                    3617     772.     *
 USING  CSD,R12                     3618     773.              USING CSD,R12                 ##
 0006A2 D202 C011 200D 00011 0000D  3627     774.     SDKEEP   MVC   CSDLNG+1(3),ESDLNG+1    SD LENGTH
 0006A8 9108 B07C      0007C        3628     775.              IF    LCBFMI,SDLM             LOAD MODULE
 0006AC 4710 76C4            006E6  3640             +
 0006B0 181C                        3646     776.              LR    R1,R12                  GET CORE
 0006B2 4D90 7F58            00F7A  3647     777.              LCALL GETSD                   FOR SECTION.
 0006B6 1801                        3649     778.              LR    R0,R1                   COMPUTE
 0006B8 1F11/BF17 C00D       0000D  3650     779.              L3    R1,CSDADDR+1            CSECT START ADDRESS
 0006BE BE07 C00D            0000D  3658     780.              ST3   R0,CSDADDR+1            ADDRESS
 0006C2 1B01                        3660     781.              SR    R0,R1                   AND MODULE
 0006C4 BE07 C015            00015  3661     782.              ST3   R0,CSDREL+1             START ADDRESS.
 0006C8 181C                        3663     783.              LR    R1,R12                  CSD ADDR
 0006CA 4D90 7FA4            00FC6  3664     784.              LCALL SAVESD
 0006CE                             3666     785.              CLEAR LCBLSD
 0006CE D703 B0A8 B0A8 000A8 000A8  3672             +
 0006D4 5800 C010/1200       00010  3673     786.              LT    R0,CSDLNG               LENGTH SPECIFIED?
 0006DA 4770 76E0            00702  3677     787.              BNZ   ESDNXB
 0006DE 50C0 B0A8            000A8  3678     788.              ST    R12,LCBLSD              SAVE POINTER TO CSD ENTRY
 0006E2 47F0 76E0            00702  3679     789.              B     ESDNXB
1VLDR     (VLDR00) (09:48) (22MAR04) ORVYL'S LOADER                                                                         Page   35
0Current Usings:  (ESD,R2) (RNT,R5) (BASE+4096,R6) (BASE,R7) (LDWA,R8) (LCB,R11) (CSD,R12)
0Loc    Object Code    Addr1 Addr2  Stmt Lv Lineno    Source Statement           (Hibal 5, Asmedit 3.3)  HLASM R4.0  2004/03/22 09.48
+___    ______ ____    _____ _____  ____ __ ______    ______ _________
0                                   3681     791.     * LOAD MODULE SD
 0006E6 181C                        3682     792.     SDLM     LR    R1,R12
 0006E8 4D90 7FA4            00FC6  3683     793.              LCALL SAVESD                  PUT SDID IN TABLE
 0006EC D202 C015 B079 00015 00079  3685     794.              MVC   CSDREL+1(3),LCBLC+1     MODULE START ADDRESS
 0006F2 5810 2008            00008  3686     795.              L     R1,ESDADDR              CSECT ADDR IN MODULE
 0006F6 58F0 B078            00078  3687     796.              L     R15,LCBLC               MODULE START
 0006FA 410F 1000            00000  3688     797.              LA    R0,@R1(R15)
 0006FE BE07 C00D            0000D  3689     798.              ST3   R0,CSDADDR+1
 000702 D200 C00C 2008 0000C 00008  3691     799.     ESDNXB   MVC   CSDTYP,ESDTYP           REFRESH TYPE AND
 000708 9640 C014      00014        3692     800.              SET   CSDFDEF                 FLAG AS DEFINED.
 00070C 4830 8044            00044  3698     801.              LH    TR,LDWLDC               ANY LD CHAIN?
 000710 1233                        3699     802.              LTR   TR,TR
 000712 4780 75FE            00620  3700     803.              BZ    NXTESD                  SD NOT LATE
 000716 1FFF/BFF7 C015       00015  3701     804.              L3    R15,CSDREL+1            PICK UP RELOC DELTA
 00071C 4800 5000            00000  3709     805.              LH    R0,RNTCSD               SDID
 000720 4C30 7D3E            00D60  3710     806.              MH    TR,=Y(L'CSD)
 000724 5E30 B008            00008  3711     807.              AL    TR,LCBCSD
 DROP   CSD,R12                     3712     808.              DROP  R12                     ##
 USING  CSD,R3                      3719     809.              USING CSD,TR                  ##
 000728 1F11/BF17 300D       0000D  3728     810.     ESDSDLA  L3    R1,CSDADDR+1            RELOCATE LD,
 00072E 411F 1000            00000  3736     811.              LA    R1,@R1(R15)
 000732 BE17 300D            0000D  3737     812.              ST3   R1,CSDADDR+1
 000736 9203 300C      0000C        3739     813.              MVI   CSDTYP,ESDTLR           SET TYPE
 00073A 9640 3014      00014        3740     814.              SET   CSDFDEF                 FLAG AS DEFINED.
 00073E 4000 3016            00016  3746     815.              STH   R0,CSDSDID              SD CONTAINING LR
 000742 5830 3010/1233       00010  3747     816.              LT    TR,CSDSDC               CHAIN ON.
 000748 4770 7706            00728  3751     817.              BNZ   ESDSDLA                 BACK FOR MORE ESD'S
 00074C 47F0 75FE            00620  3752     818.              B     NXTESD
 DROP   CSD,R3                      3753     819.              DROP  TR                      ##
 USING  CSD,R12                     3760     820.              USING CSD,R12                 ##
1VLDR     (VLDR00) (09:48) (22MAR04) ORVYL'S LOADER                                                                         Page   36
0Current Usings:  (ESD,R2) (RNT,R5) (BASE+4096,R6) (BASE,R7) (LDWA,R8) (LCB,R11) (CSD,R12)
0Loc    Object Code    Addr1 Addr2  Stmt Lv Lineno    Source Statement           (Hibal 5, Asmedit 3.3)  HLASM R4.0  2004/03/22 09.48
+___    ______ ____    _____ _____  ____ __ ______    ______ _________
0                                   3770     822.     * CM
                                    3771     823.     *
 000750                             3772     824.     ESDNCM   LABEL ,
 000750 1F11/BF17 200D       0000D  3774     825.              L3    R1,ESDLNG+1             PLANT LENGTH
 000756 5010 C010            00010  3782     826.              ST    R1,CSDLNG               GO
 00075A 9640 5002      00002        3783     827.     ESDCMDEL SET   RNTFDEL                 FLAG AS DELETED
 00075E 9108 B07C      0007C        3790     828.              IF    ~LCBFMI,NXTESD          NOT LOAD MODULE
 000762 47E0 75FE            00620  3802             +
                                    3808     829.     *         L     R1,ESDADDR              GE REL ADDR
 000766 1F11/BF17 2009       00009  3809     830.              L3    R1,ESDADDR+1            GE REL ADDR
 00076C 5E10 B078            00078  3817     830.1             AL    R1,LCBLC                ABSOUTE ADDR
 000770 1FFF/BFF7 200D       0000D  3818     831.              L3    R15,ESDLNG+1
 000776 1E1F                        3826     832.              ALR   R1,R15
 000778 5910 B0BC            000BC  3827     833.              IF    (R1,GT,LCBMLEN),'ST R1,LCBMLEN' MAX MODULE LEN
 00077C 47D0 7762            00784  3839             +
 000780 5010 B0BC            000BC  3845             +
 000784 47F0 75FE            00620  3850     834.              B     NXTESD                  ON.
1VLDR     (VLDR00) (09:48) (22MAR04) ORVYL'S LOADER                                                                         Page   37
0Current Usings:  (ESD,R2) (RNT,R5) (BASE+4096,R6) (BASE,R7) (LDWA,R8) (LCB,R11) (CSD,R12)
0Loc    Object Code    Addr1 Addr2  Stmt Lv Lineno    Source Statement           (Hibal 5, Asmedit 3.3)  HLASM R4.0  2004/03/22 09.48
+___    ______ ____    _____ _____  ____ __ ______    ______ _________
0                                   3852     836.     *
                                    3853     837.     * LR (OR LD CONVERTED TO LR)
                                    3854     838.     *
 000788 9603 2008      00008        3855     839.     ESDNLD   OI    ESDTYP,ESDTLR           X'03' ORS OVER X'01'
 00078C 9640 C014      00014        3856     840.     ESDNLR   SET   CSDFDEF                 SYMBOL DEFINED
 000790 4810 200E            0000E  3863     841.              LH    R1,ESDSDID              RENUMBER CONTAINING
 000794 4D90 6080            010A2  3864     842.              LCALL RNTF                    SDID.
 000798 9180 5002      00002        3866     843.              IF    ~RNTFUSE,ESDNL2         IF SD NOT
 00079C 47E0 77DA            007FC  3878             +
 0007A0 9140 5002      00002        3884     844.              IF     RNTFDEL,BEGIN          DELETED
 0007A4 47E0 778E            007B0  3894             +
 0007A8 9202 C00C      0000C        3899  1  845.                MVI   CSDTYP,ESDTER           CHANGE TO LR
 0007AC 47F0 75FE            00620  3900  1  846.                B     NXTESD
 0007B0                             3901     847.              END    ,
 0007B0 9104 5002      00002        3905     848.              IF    ~RNTFSD,ESDNL1          IF NOT SD, CHECK FOR SDX CHAIN.
 0007B4 47E0 77BE            007E0  3917             +
 0007B8 4810 5000            00000  3923     849.              LH    R1,RNTCSD               LOOK UP SD CSD.
 0007BC 4010 C016            00016  3924     850.              STH   R1,CSDSDID              SD CONTAINING LR.
 0007C0 4C10 7D3E            00D60  3925     851.              MH    R1,=Y(L'CSD)
 0007C4 5E10 B008            00008  3926     852.              AL    R1,LCBCSD
 DROP   CSD,R12                     3927     853.              DROP  R12                     ##
 USING  CSD,R1                      3934     854.              USING CSD,R1                  ##
 0007C8 9140 1014      00014        3943     855.              IF    ~CSDFDEF,NXTESD         IS CONTAINING SD DEFINED?
 0007CC 47E0 75FE            00620  3955             +
 0007D0 5800 2008            00008  3961     856.              L     R0,ESDADDR              GET DIRTY LD ADDRESS.
 0007D4 5E00 1014            00014  3962     857.              AL    R0,CSDREL               RELOCATE LD ADDRESS.
 DROP   CSD,R1                      3963     858.              DROP  R1                      ##
 USING  CSD,R12                     3970     859.              USING CSD,R12                 ##
 0007D8 5000 C00C            0000C  3979     860.              ST    R0,CSDADDR              LD ABSOLUTE ADDRESS.
 0007DC 47F0 76E0            00702  3980     861.              B     ESDNXB                  SETS CSDTYP.
                                    3981     862.
 0007E0                             3982     863.     ESDNL1   LABEL ,                       SDID IN USE BUT NOT SD.
 0007E0 9108 5002      00002        3984     864.              IF    ~RNTFSDX,'BAS R15,LDRERR' ERROR IF NOT SDX
 0007E4 4710 77CA            007EC  3994             +
 0007E8 4DF0 7140            00162  4000             +
 0007EC 4810 5000            00000  4005     865.              LH    R1,RNTCSD               ADD TO SDX CHAIN.
 0007F0 4C10 7D3E            00D60  4006     866.              MH    R1,=Y(L'CSD)
 0007F4 5E10 B008            00008  4007     867.              AL    R1,LCBCSD
 0007F8 5010 C010            00010  4008     868.              ST    R1,CSDSDC
 0007FC 4D90 7A36            00A58  4009     869.     ESDNL2   LCALL RENUM                   SET CSDID IN RNT
 000800 9688 5002      00002        4011     870.              SET   RNTFUSE+RNTFSDX
 000804 47F0 76E0            00702  4020     871.              B     ESDNXB
1VLDR     (VLDR00) (09:48) (22MAR04) ORVYL'S LOADER                                                                         Page   38
0Current Usings:  (ESD,R2) (RNT,R5) (BASE+4096,R6) (BASE,R7) (LDWA,R8) (LCB,R11) (CSD,R12)
0Loc    Object Code    Addr1 Addr2  Stmt Lv Lineno    Source Statement           (Hibal 5, Asmedit 3.3)  HLASM R4.0  2004/03/22 09.48
+___    ______ ____    _____ _____  ____ __ ______    ______ _________
0                                   4023     874.     *
                                    4024     875.     * RESOLUTION PROCESSING
                                    4025     876.     *
 000808                             4026     877.     ESDRSLV  LABEL ,
 000808 9507 C00C      0000C        4028     878.              CLI   CSDTYP,ESDTNL           MATCH WITH NULL?
 00080C 4780 7572            00594  4029     879.              BE    ESDSLOOP                IGNORE
 000810 9110 2008      00008        4030     880.              IF    ('TM   ESDTYP,ESDTDEL',O),ESDR1
 000814 4710 7846            00868  4040             +
 000818 9501 803C      0003C        4046     881.              CLI   LDWESDTP,ESDTLD
 00081C 4780 780A            0082C  4047     882.              IF    NE,BEGIN                TYPE IS NOT LO.
 000820 9188 5002      00002        4058  1  883.                IF    (RNTFUSE+RNTFSDX,NO),'LCALL RENUM'
 000824 4710 780A            0082C  4073  1          +
 000828 4D90 7A36            00A58  4080  1          +
 00082C                             4085     884.              END   ,
 00082C 1F11/4310 803C       0003C  4089     885.              LC    R1,LDWESDTP
 000832 1A11                        4096     886.              AR    R1,R1
 000834 4801 78E2            00904  4097     887.              LH    R0,ESDESDTB(R1)         IN LOCATOR TABLE.
 000838 1200/4770 7820       00842  4098     888.              IF    (R0,ZERO),'BAS R15,LDRERR'
 00083E 4DF0 7140            00162  4113             +
 000842 4310 C00C            0000C  4118     889.              IC    R1,CSDTYP               PICK UP CSD
 000846 950A C00C      0000C        4119     890.              CLI   CSDTYP,ESDTWX           WX?
 00084A 4770 7830            00852  4120     891.              IF    EQ,'LA R1,ESDTER'       PROCESS AS AN ER.
 00084E 4110 0002            00002  4132             +
 000852 1A11                        4137     892.              AR    R1,R1                   TYPE.
 000854 1A10                        4138     893.              AR    R1,R0                   FORM DISPLACEMENT AND
 000856 4811 7000            00022  4139     894.              LH    R1,BASE(R1)             GET BRANCH ADDRESS.
 00085A 1211/4770 7842       00864  4140     895.              IF    (R1,ZERO),'BAS R15,LDRERR'
 000860 4DF0 7140            00162  4155             +
 000864 47F1 7000            00022  4160     896.              B     BASE(R1)                GO TO PROCESS
                                    4161     897.     *
                                    4162     898.     * ACTION 1 --  DELETE INCOMING SD
                                    4163     899.     *
 000868 9108 5002      00002        4164     900.     ESDR1    IF     RNTFSDX,BEGIN
 00086C 47E0 7858            0087A  4175             +
 000870 D201 8044 5000 00044 00000  4180  1  901.                MVC   LDWLDC,RNTCSD           SAVE POSSIBLE LD CHAIN
 000876 4D90 7A36            00A58  4181  1  902.                LCALL RENUM                   SET RNT.
 00087A                             4183     903.              END   ,
 00087A 9640 5002      00002        4187     904.              SET   RNTFDEL                 DELETE REFERENCES.
 00087E 47F0 7658            0067A  4193     905.              B     LDCDEL                  DELETE ANY SDX CHAIN.
                                    4194     906.     *
                                    4195     907.     * ACTION 2 -- A) INCOMING ER/WX MATCHES SD,LD,CM
                                    4196     908.     *             B) ER/WX MATCHES ER/WX
                                    4197     909.     *
                                    4198     910.     ESDR2A   EQU   NXTESD
                                    4199     911.
 000882 9502 803C      0003C        4200     912.     ESDR2B   CLI   LDWESDTP,ESDTER         IF INCOMING IS ER
 000886 4770 75FE            00620  4201     913.              BNE   NXTESD                  THEN CHANGE CSD
 00088A 94F7 C00C      0000C        4202     914.              NI    CSDTYP,255-(ESDTWX-ESDTER)  TO ER FROM ER/WX.
 00088E 47F0 75FE            00620  4203     915.              B     NXTESD
                                    4204     916.     *
                                    4205     917.     * ACTION 3 -- INCOMING ESD MATCHES ER
                                    4206     918.     *
 000892 9108 5002      00002        4207     919.     ESDR3SD  IF    RNTFSDX,ESDNR1          DON'T TOUCH RNT IF
 000896 4710 7594            005B6  4220             +
1VLDR     (VLDR00) (09:48) (22MAR04) ORVYL'S LOADER                                                                         Page   39
0Current Usings:  (ESD,R2) (RNT,R5) (BASE+4096,R6) (BASE,R7) (LDWA,R8) (LCB,R11) (CSD,R12)
0Loc    Object Code    Addr1 Addr2  Stmt Lv Lineno    Source Statement           (Hibal 5, Asmedit 3.3)  HLASM R4.0  2004/03/22 09.48
+___    ______ ____    _____ _____  ____ __ ______    ______ _________
000089A 9200 5002      00002        4226     920.     ESDR3CM  CLEAR RNTFL                   RESET RNT AND GO PERFORM
 00089E 47F0 7594            005B6  4234     921.     ESDR3LD  B     ESDNR1                  NON-RESOLUTION
                                    4235     922.     *
                                    4236     923.     * ACTION 4 --  PC, CM MATCHES PC
                                    4237     924.     *
                                    4238     925.     ESDR4    EQU   ESDSLOOP                CONTINUE SEARCH.
                                    4239     926.     *
                                    4240     927.     * ACTION 6 -- ACCUMULATE CM LENGTHS
                                    4241     928.     *
 0008A2                             4242     929.     ESDR6    LABEL ,
 0008A2 1F11/BF17 200D       0000D  4244     930.              L3    R1,ESDLNG+1             TAKE MAX OF OLD AND NEW
 0008A8 5910 C010            00010  4252     931.              IF    (R1,GT,CSDLNG),'ST R1,CSDLNG'
 0008AC 47D0 7892            008B4  4264             +
 0008B0 5010 C010            00010  4270             +
 0008B4 47F0 7738            0075A  4275     932.              B     ESDCMDEL                DELETE TEXT
                                    4276     933.     *
                                    4277     934.     * ACTION 7 -- ACCUMULATE PR LENGTHS
                                    4278     935.     *
                                    4279     936.     ESDR7X   EQU   ESDSLOOP                PR & NONPR DO NOT MATCH
                                    4280     937.
 0008B8                             4281     938.     ESDNPR   LABEL ,
 0008B8                             4283     939.     ESDR7    LABEL ,
 0008B8 D500 200C C010 0000C 00010  4285     940.              CLC   ESDLNG(1),CSDLNG        TAKE MOST RESTRICTIVE ALIGNMENT.
 0008BE 4740 78A6            008C8  4286     941.              IF    NLOW,'MVC CSDLNG(1),ESDLNG'
 0008C2 D200 C010 200C 00010 0000C  4298             +
 0008C8 D502 200D C011 0000D 00011  4303     942.              CLC   ESDLNG+1(3),CSDLNG+1    AND LONGEST LENGTH.
 0008CE 47D0 75FE            00620  4304     943.              BNH   NXTESD                  CSD LONGEST
 0008D2 D202 C011 200D 00011 0000D  4305     944.              MVC   CSDLNG+1(3),ESDLNG+1    SAME NOW.
 0008D8 47F0 75FE            00620  4306     945.              B     NXTESD
                                    4307     946.     *
                                    4308     947.     * COMMON PROCESSING
 0008DC D502 200D C011 0000D 00011  4309     948.     ESDRSDCM CLC   ESDLNG+1(3),CSDLNG+1    IS COMMON LONGER THAN SD?
 0008E2 4720 79E0            00A02  4310     949.              BH    CMLENERR                YES, TOO BAD
 0008E6 47F0 7846            00868  4311     950.              B     ESDR1                   NO, GO TREAT LIKE SD
                                    4312     951.
 0008EA D502 200D C011 0000D 00011  4313     952.     ESDRCMSD CLC   ESDLNG+1(3),CSDLNG+1    IS SD SHORTER THAN COMMON?
 0008F0 4740 79E0            00A02  4314     953.              BL    CMLENERR                YES, TOO BAD
 0008F4 47F0 7870            00892  4315     954.              B     ESDR3SD                 NO, GO GET SD
                                    4316     955.     *
                                    4317     956.     *
                                    4318     957.     * FLAG TABLE TO CONVERT ESD TYPE TO RNTFLAGS
                                    4319     958.     *
 0008F8                             4320     959.     ESDTPTB  DS    0C
 0008F8 84                          4321     960.              DC    AL1(L'RNTFUSE+L'RNTFSD)       SD
 0008F9 00                          4322     961.              DC    AL1(0)                        (LD)
 0008FA 82                          4323     962.              DC    AL1(L'RNTFUSE+L'RNTFER)       ER
 0008FB 80                          4324     963.              DC    AL1(L'RNTFUSE)                LR
 0008FC 84                          4325     964.              DC    AL1(L'RNTFUSE+L'RNTFSD)       PC
 0008FD 81                          4326     965.              DC    AL1(L'RNTFUSE+L'RNTFCM)       CM
 0008FE 80                          4327     966.              DC    AL1(L'RNTFUSE)                PR
 0008FF 00                          4328     967.              DC    AL1(0)                        (NL)
 000900 FF                          4329     968.              DC    X'FF'                         INVALID
 000901 FF                          4330     969.              DC    X'FF'                         INVALID
 000902 82                          4331     970.              DC    AL1(L'RNTFUSE+L'RNTFER)       WX
1VLDR     (VLDR00) (09:48) (22MAR04) ORVYL'S LOADER                                                                         Page   40
0Current Usings:  (ESD,R2) (RNT,R5) (BASE+4096,R6) (BASE,R7) (LDWA,R8) (LCB,R11) (CSD,R12)
0Loc    Object Code    Addr1 Addr2  Stmt Lv Lineno    Source Statement           (Hibal 5, Asmedit 3.3)  HLASM R4.0  2004/03/22 09.48
+___    ______ ____    _____ _____  ____ __ ______    ______ _________
0                                   4332     971.     HIESDTYP EQU   *-ESDTPTB-1
                                    4333     972.     *
                                    4334     973.     *
                                    4335     974.     * BRANCH TABLES FOR RESOLUTION PROCESSING
                                    4336     975.     *
 000904                             4337     976.     ESDESDTB LABEL ,
 000904 08F8                        4339     977.              DC    AL2(ESDTBSD-BASE)       ESD=SD
 000906 0906                        4340     978.              DC    AL2(ESDTBLD-BASE)       ESD=LD
 000908 0914                        4341     979.              DC    AL2(ESDTBER-BASE)       ESD=ER
 00090A 0906                        4342     980.              DC    AL2(ESDTBLR-BASE)       ESD=LR
 00090C 0922                        4343     981.              DC    AL2(ESDTBPC-BASE)       ESD=PC
 00090E 0930                        4344     982.              DC    AL2(ESDTBCM-BASE)       ESD=CM
 000910 093E                        4345     983.              DC    AL2(ESDTBPR-BASE)       ESD=PR
 000912 0000                        4346     984.              DC    AL2(0)                  INVALID
 000914 0000                        4347     985.              DC    AL2(0)                  INVALID
 000916 0000                        4348     986.              DC    AL2(0)                  INVALID
 000918 0914                        4349     987.              DC    AL2(ESDTBER-BASE)       ESD=WX (TREAT LIKE ER)
                                    4350     988.     *
                                    4351     989.     * ESD=SD
                                    4352     990.     *
 00091A                             4353     991.     ESDTBSD  LABEL ,
 00091A 0846                        4355     992.              DC    AL2(ESDR1-BASE)         CSD=SD
 00091C 09D0                        4356     993.              DC    AL2(ESDR5-BASE)         CSD=LD
 00091E 0870                        4357     994.              DC    AL2(ESDR3SD-BASE)       CSD=ER
 000920 09D0                        4358     995.              DC    AL2(ESDR5-BASE)         CSD=LR
 000922 0000                        4359     996.              DC    AL2(0)                  CSD=PC
 000924 08C8                        4360     997.              DC    AL2(ESDRCMSD-BASE)      CSD=CM
 000926 0572                        4361     998.              DC    AL2(ESDR7X-BASE)        CSD=PR (TREAT AS NON-RESOLUTION)
                                    4362     999.     *
                                    4363    1000.     * ESD=LD OR LR
                                    4364    1001.     *
 000928                             4365    1002.     ESDTBLD  LABEL ,
 000928                             4367    1003.     ESDTBLR  LABEL ,
 000928 09D0                        4369    1004.              DC    AL2(ESDR5-BASE)         CSD=SD
 00092A 09D0                        4370    1005.              DC    AL2(ESDR5-BASE)         CSD=LD
 00092C 087C                        4371    1006.              DC    AL2(ESDR3LD-BASE)       CSD=ER
 00092E 09D0                        4372    1007.              DC    AL2(ESDR5-BASE)         CSD=LR
 000930 0000                        4373    1008.              DC    AL2(0)                  CSD=PC
 000932 09D0                        4374    1009.              DC    AL2(ESDR5-BASE)         CSD=CM
 000934 0572                        4375    1010.              DC    AL2(ESDR7X-BASE)        CSD=PR (TREAT AS NON-RESOLUTION)
                                    4376    1011.     *
                                    4377    1012.     * ESD=ER
                                    4378    1013.     *
 000936                             4379    1014.     ESDTBER  LABEL ,
 000936 05FE                        4381    1015.              DC    AL2(ESDR2A-BASE)        CSD=SD
 000938 05FE                        4382    1016.              DC    AL2(ESDR2A-BASE)        CSD=LD
 00093A 0860                        4383    1017.              DC    AL2(ESDR2B-BASE)        CSD=ER
 00093C 05FE                        4384    1018.              DC    AL2(ESDR2A-BASE)        CSD=LR
 00093E 0000                        4385    1019.              DC    AL2(0)                  CSD=PC
 000940 05FE                        4386    1020.              DC    AL2(ESDR2A-BASE)        CSD=CM
 000942 0572                        4387    1021.              DC    AL2(ESDR7X-BASE)        CSD=PR (TREAT AS NON-RESOLUTION)
                                    4388    1022.     *
                                    4389    1023.     * ESD=PC
                                    4390    1024.     *
1VLDR     (VLDR00) (09:48) (22MAR04) ORVYL'S LOADER                                                                         Page   41
0Current Usings:  (ESD,R2) (RNT,R5) (BASE+4096,R6) (BASE,R7) (LDWA,R8) (LCB,R11) (CSD,R12)
0Loc    Object Code    Addr1 Addr2  Stmt Lv Lineno    Source Statement           (Hibal 5, Asmedit 3.3)  HLASM R4.0  2004/03/22 09.48
+___    ______ ____    _____ _____  ____ __ ______    ______ _________
0000944                             4391    1025.     ESDTBPC  LABEL ,
 000944 0000                        4393    1026.              DC    AL2(0)                  CSD=SD
 000946 0000                        4394    1027.              DC    AL2(0)                  CSD=LD
 000948 0000                        4395    1028.              DC    AL2(0)                  CSD=ER
 00094A 0000                        4396    1029.              DC    AL2(0)                  CSD=LR
 00094C 0572                        4397    1030.              DC    AL2(ESDR4-BASE)         CSD=PC
 00094E 0572                        4398    1031.              DC    AL2(ESDR4-BASE)         CSD=CM
 000950 0572                        4399    1032.              DC    AL2(ESDR7X-BASE)        CSD=PR (TREAT AS NON-RESOLUTION)
                                    4400    1033.     *
                                    4401    1034.     * ESD=CM
                                    4402    1035.     *
 000952                             4403    1036.     ESDTBCM  LABEL ,
 000952 08BA                        4405    1037.              DC    AL2(ESDRSDCM-BASE)      CSD=SD
 000954 09D0                        4406    1038.              DC    AL2(ESDR5-BASE)         CSD=LD
 000956 0878                        4407    1039.              DC    AL2(ESDR3CM-BASE)
 000958 09D0                        4408    1040.              DC    AL2(ESDR5-BASE)         CSD=LR
 00095A 0572                        4409    1041.              DC    AL2(ESDR4-BASE)         CSD=PC
 00095C 0880                        4410    1042.              DC    AL2(ESDR6-BASE)         CSD=CM
 00095E 0572                        4411    1043.              DC    AL2(ESDR7X-BASE)        CSD=PR (TREAT AS NON-RESOLUTION)
                                    4412    1044.     *
                                    4413    1045.     *
                                    4414    1046.     * ESD=PR                               NON-PR CSD'S ARE NON-RESOLUTION
                                    4415    1047.     *
 000960                             4416    1048.     ESDTBPR  LABEL ,
 000960 0572                        4418    1049.              DC    AL2(ESDR7X-BASE)        CSD=SD
 000962 0572                        4419    1050.              DC    AL2(ESDR7X-BASE)        CSD=LD
 000964 0572                        4420    1051.              DC    AL2(ESDR7X-BASE)        CSD=ER
 000966 0572                        4421    1052.              DC    AL2(ESDR7X-BASE)        CSD=LR
 000968 0572                        4422    1053.              DC    AL2(ESDR7X-BASE)        CSD=PC
 00096A 0572                        4423    1054.              DC    AL2(ESDR7X-BASE)        CSD=CM
 00096C 0896                        4424    1055.              DC    AL2(ESDR7-BASE)         CSD=PR
                                    4425    1056.     *
                                    4426    1057.     *
 00096E                             4427    1058.     ESDTPERR LABEL ,
 00096E 4110 7D9C            00DBE  4429    1059.              SETMSG ': INVALID SYMBOL TYPE'
 000972 4100 0015            00015  4432             +
 000976 41F0 0008            00008  4433    1060.              LA    R15,8                   ERROR CODE
                                    4434    1061.
 00097A                             4435    1062.     NAMEMSG  LABEL ,
 00097A 900F D000            00000  4437    1063.              VPUSH R0,R15,*            SAVE EVERYTHING
 00097E 41D0 D040            00040  4439             +
 000982 185D/41D0 D084       00084  4440    1064.              VPUSH ,,132,PTR=R5
 000988 D207 5000 2000 00000 00000  4443    1065.              MVC   0(L'ESDNAME,R5),ESDNAME   FORMAT THE MESSAGE
 00098E 4140 5008            00008  4444    1066.              LA    R4,L'ESDNAME(,R5)   STRIP BLANKS
 000992 4130 0007            00007  4445    1067.              LA    R3,7                SET COUNT TO ASSUME 1 NON-BLNK
 000996 0640                        4446    1068.              BCTR  R4,0
 000998 9540 4000      00000        4447    1069.     NAMSTRP  IF    (@R4,EQ,C' '),'BCTR R4,0 ; BCT R3,NAMSTRP'
 00099C 4770 7984/0640       009A6  4459             +
 0009A2 4630 7976            00998  4466             +
 0009A6 1820                        4471    1070.              LR    R2,R0               GET BASIC MESSAGE LENGTH
 0009A8 0620                        4472    1071.              BCTR  R2,0                STRIP 1 OFF FOR EXECUTE
 0009AA 4140 4001            00001  4473    1072.              LA    R4,1(,R4)           FREE  SPACE AFTER ESDNAME
 0009AE 4420 79BE            009E0  4474    1073.              EX    R2,MVCERRMS         ADD MESSAGE AFTER NAME
 0009B2 1B45                        4476    1074.              SR    R4,R5               LENGTH OF ESDNAME
1VLDR     (VLDR00) (09:48) (22MAR04) ORVYL'S LOADER                                                                         Page   42
0Current Usings:  (ESD,R2) (RNT,R5) (BASE+4096,R6) (BASE,R7) (LDWA,R8) (LCB,R11) (CSD,R12)
0Loc    Object Code    Addr1 Addr2  Stmt Lv Lineno    Source Statement           (Hibal 5, Asmedit 3.3)  HLASM R4.0  2004/03/22 09.48
+___    ______ ____    _____ _____  ____ __ ______    ______ _________
00009B4 1A04                        4477    1075.              AR    R0,R4               ADDS TO LENGTH OF MESSAGE
 0009B6 1815                        4478    1076.              LR    R1,R5
 0009B8 5890 7CBE/0D99       00CE0  4479    1077.              VCALL LDMSG               NOW SEND THE MESSAGE
 0009BE 4780 79B0            009D2  4483    1078.              IF    NZER,'VPOP ,,132 ; VPOP R0,R15,* ; B EXIT'
 0009C2 4BD0 7D4A            00D6C  4496  1          +
 0009C6 4BD0 7D4C            00D6E  4498  1          +
 0009CA 980F D000            00000  4499  1          +
 0009CE 47F0 7188            001AA  4500             +
 0009D2 18D5                        4505    1079.              VPOP  PTR=R5
 0009D4 4BD0 7D4C            00D6E  4507    1080.              VPOP  R0,R15,*
 0009D8 980F D000            00000  4509             +
 0009DC 47F0 7524            00546  4510    1081.              B     ESDDEL              DELETE ESD IN ERROR & CONTINUE
                                    4511    1082.
 0009E0 D200 4000 1000 00000 00000  4512    1083.     MVCERRMS MVC   0(*-*,R4),0(R1)     * EXECUTED *
                                    4513    1084.
 0009E6 4110 7DB1            00DD3  4514    1085.     DICTFULL DIAG  'MAP OVERFLOW. SPECIFY LARGER MAP SIZE',,EXIT,EC=8
 0009EA 4100 0025            00025  4518             +
 0009EE 4D90 7160            00182  4520             +
 0009F2                             4521    1086.     ESDR5    LABEL ,
 0009F2 4110 7CC6            00CE8  4523    1087.              SETMSG ': PREVIOUSLY DEFINED'
 0009F6 4100 0014            00014  4526             +
 0009FA 41F0 0004            00004  4527    1088.              LA    R15,4
 0009FE 47F0 7958            0097A  4528    1089.              B     NAMEMSG
                                    4529    1090.
 000A02 4110 7DD6            00DF8  4530    1091.     CMLENERR SETMSG ': COMMON SIZE GREATER THAN CSECT WITH SAME NAME'
 000A06 4100 002F            0002F  4533             +
 000A0A 41F0 0004            00004  4534    1092.              LA    R15,4
 000A0E 47F0 7958            0097A  4535    1093.              B     NAMEMSG
                                    4536    1094.     *
                                    4537    1095.     *  SET UP FOR OUTPUT OF DIAGNOSTIC ADDRESS
 000A12                             4538    1096.     EMSGLOC  LABEL ,
 000A12 5050 D000            00000  4540    1097.              ST    R5,0(,R13)
 000A16 185D                        4541    1098.              LR    R5,R13              VPUSH FOR WRK AREA OF LNG
 000A18 1AD0                        4542    1099.              AR    R13,R0
 000A1A 1820                        4543    1100.              LR    R2,R0               LENGTH OF MSG
 000A1C 0620                        4544    1101.              BCTR  R2,0
 000A1E 4420 712A            0014C  4545    1102.              EX    R2,PUSHMSG
 000A22 4120 5004            00004  4547    1103.              LA    R2,4(,R5)           LOCATION
 000A26 1812                        4548    1104.              LR    R1,R2               SAVE LOCATION
 000A28 1A20                        4549    1105.              AR    R2,R0 .             POINT PAST END
 000A2A 4B20 7D4E            00D70  4550    1106.              SH    R2,=H'13' .         SPACE TO UNPACK REGISTER
 000A2E BEF8 2009            00009  4551    1107.              STCM  R15,B'1000',9(R2) . RESERVED SPACE  FOR CC
 000A32 BFF8 7E05            00E27  4552    1108.              ICM   R15,B'1000',=X'00' GET OFFSET INTO MODULE
 000A36 5BF0 7CDA            00CFC  4553    1109.              S     R15,=A(VLDR) .     FOR DEBUGGING
 000A3A BEF7 200A            0000A  4554    1110.              STCM  R15,B'0111',10(R2) .
 000A3E F384 2000 2009 00000 00009  4555    1111.              UNPK  0(9,R2),9(5,R2) .   NOW FXFXFXFXFXFXFXFX
 000A44 41F0 7C7E            00CA0  4556    1112.              LA    R15,=C'0123456789ABCDEF' . DIFFERENT ORDERING
 000A48 4BF0 7D50            00D72  4557    1113.              SH    R15,=XL2'F0' .
 000A4C DC08 2000 F000 00000 00000  4558    1114.              TR    0(9,R2),0(R15) .    NOW ADJUST LENGTH OF MSG
 000A52 4B00 7D52            00D74  4559    1115.              SH    R0,=H'5' .          AND WE'RE PRESENTABLE
 000A56 07F9                        4560    1116.              BR    RAR
1VLDR     (VLDR00) (09:48) (22MAR04) ORVYL'S LOADER                                                                         Page   43
0Current Usings:  (ESD,R2) (RNT,R5) (BASE+4096,R6) (BASE,R7) (LDWA,R8) (LCB,R11) (CSD,R12)
0Loc    Object Code    Addr1 Addr2  Stmt Lv Lineno    Source Statement           (Hibal 5, Asmedit 3.3)  HLASM R4.0  2004/03/22 09.48
+___    ______ ____    _____ _____  ____ __ ______    ______ _________
0                                   4562    1118.     * PLACE RENUMBERED CSDID IN RENUMBER TABLE
                                    4563    1119.     *
 000A58 1F11/4310 803C       0003C  4564    1120.     RENUM    LC    R1,LDWESDTP             GET ESD TYPE.
 000A5E 4111 78D6            008F8  4571    1121.              LA    R1,ESDTPTB(R1)          LOC
 000A62 D200 5002 1000 00002 00000  4572    1122.              MVC   RNTFL,@R1               AND
 000A68 1B00                        4573    1123.              CLEAR R0
 000A6A 181C                        4577    1124.              LR    R1,R12
 000A6C 5F10 B008            00008  4578    1125.              SL    R1,LCBCSD
 000A70 5D00 7CDE            00D00  4579    1126.              D     R0,=A(L'CSD)
 000A74 4010 5000            00000  4580    1127.              STH   R1,RNTCSD
 000A78 D202 5003 2009 00003 00009  4581    1128.              MVC   RNTDLNK,ESDADDR+1       SAVE DELINK VALUE.
 000A7E 07F9                        4582    1129.              BR    RAR
 DROP   ESD,R2                      4583    1130.              DROP  SR,XRNT,R12             ##
 DROP   RNT,R5
 DROP   CSD,R12
1VLDR     (VLDR00) (09:48) (22MAR04) ORVYL'S LOADER                                                                         Page   44
0Current Usings:  (BASE+4096,R6) (BASE,R7) (LDWA,R8) (LCB,R11)
0Loc    Object Code    Addr1 Addr2  Stmt Lv Lineno    Source Statement           (Hibal 5, Asmedit 3.3)  HLASM R4.0  2004/03/22 09.48
+___    ______ ____    _____ _____  ____ __ ______    ______ _________
0                                   4603    1132.     *** PROCESS TEXT CARD ***
                                    4604    1133.     *
                                    4605    1134.     * REGISTER DEFINITIONS
                                    4606    1135.     *
                                    4607    1136.     *
                                    4608    1137.     *
 000A80                             4609    1138.     TXTCARD  LABEL ,
 000A80 4810 B022            00022  4611    1139.              LH    R1,CITESID              RENUMBER SD
 000A84 4D90 60A6            010C8  4612    1140.              LCALL RNTFU
 USING  RNT,R5                      4614    1141.              USING RNT,XRNT                ##
 000A88 9140 5002      00002        4623    1142.              IF    RNTFDEL,EXIT2           SKIP TEXT IF SD
 000A8C 4710 7188            001AA  4635             +
 000A90 9104 5002      00002        4641    1143.              IF    ~RNTFSD,TXTERA          ERROR IF NOT
 000A94 47E0 7AE0            00B02  4653             +
 000A98 9108 5002      00002        4659    1144.              IF    RNTFSDX,TXTERA          SD NOT YET
 000A9C 4710 7AE0            00B02  4671             +
 000AA0 4820 5000            00000  4677    1145.              LH    SR,RNTCSD
 DROP   RNT,R5                      4678    1146.              DROP  XRNT                    ##
 000AA4 4C20 7D3E            00D60  4685    1147.              MH    SR,=Y(L'CSD)
 000AA8 5E20 B008            00008  4686    1148.              AL    SR,LCBCSD
 USING  CSD,R2                      4687    1149.              USING CSD,SR                  ##
 000AAC 1F33/BF37 B019       00019  4696    1150.              L3    TR,CITADDR+1
 000AB2 1F44/BF47 2015       00015  4704    1151.              L3    QR,CSDREL+1
 000AB8 1A34                        4712    1152.              AR    TR,QR                   RELATIVE TEXT ADDRESS.
 000ABA 4740 7188            001AA  4713    1153.              BM    EXIT                    BRANCH IF NEGATIVE
                                    4714    1154.
 000ABE 4840 B01E            0001E  4715    1155.              LH    QR,CICNT                MOVE TEXT
 000AC2 1044                        4716    1156.              LPR   QR,QR
 000AC4 1F00/BF07 200D       0000D  4717    1157.              L3    R0,CSDADDR+1            COMPUTE END
 000ACA 5A00 2010            00010  4723    1158.              A     R0,CSDLNG               SECTION.
 000ACE 4113 4000            00000  4724    1159.              LA    R1,@QR(TR)              COMPARE TEXT END
 000AD2 1910                        4725    1160.              CR    R1,R0                   AND END OF CSECT
 000AD4 47D0 7ABE            00AE0  4726    1161.              IF    GT,BEGIN
 000AD8 5920 B0A8            000A8  4737  1 1162.                C     SR,LCBLSD               CSECT LENGTH IS
 000ADC 4770 7AE0            00B02  4738  1 1163.                BNE   TXTERA                  DEFINED,
 000AE0                             4739    1164.              END   ,
 000AE0 5510 B004            00004  4743    1165.              CL    R1,LCBCLEN              AND ALSO END OF
 000AE4 4720 7188            001AA  4744    1166.              BH    EXIT                    PROGRAM CORE.
                                    4745    1167.
 000AE8 1244                        4746    1168.              LTR   QR,QR                   IGNORE CARDS WITH
 000AEA 4780 7188            001AA  4747    1169.              BZ    EXIT                    LENGTH OF ZERO...
 000AEE 0640                        4748    1170.              BCTR  QR,0                    ***ADJUST COUNT***
 000AF0 5E30 B000            00000  4749    1171.              AL    TR,LCBCORE              GET REAL ADDRESS OF TEXT
 000AF4 4440 7ADA            00AFC  4750    1172.              EX    QR,TXTMA                TO CORE
 000AF8 47F0 7188            001AA  4752    1173.              B     EXIT                    AND CONTINUE.
                                    4753    1174.
 000AFC D200 3000 B024 00000 00024  4754    1175.     TXTMA    MVC   @TR(*-*),CITEXT
                                    4755    1176.
 DROP   CSD,R2                      4756    1177.              DROP  SR                      ##
                                    4763    1178.
 000B02 4110 7E06            00E28  4764    1179.     TXTERA   DIAG  'INVALID TEXT CARD',,EXIT,EC=8
 000B06 4100 0011            00011  4768             +
 000B0A 4D90 7160            00182  4770             +
1VLDR     (VLDR00) (09:48) (22MAR04) ORVYL'S LOADER                                                                         Page   45
0Current Usings:  (BASE+4096,R6) (BASE,R7) (LDWA,R8) (LCB,R11)
0Loc    Object Code    Addr1 Addr2  Stmt Lv Lineno    Source Statement           (Hibal 5, Asmedit 3.3)  HLASM R4.0  2004/03/22 09.48
+___    ______ ____    _____ _____  ____ __ ______    ______ _________
0                                   4772    1181.     *** PROCESS LOAD MODULE RLD/CTL RECORD
                                    4773    1182.     *
                                    4774    1183.     *
 000B0E                             4775    1184.     RLDREC   LABEL ,
 USING  MRC,R1                      4777    1185.              USING MRC,R1                  ##
 000B0E 4120 1010            00010  4786    1186.              LA    SR,MRRLD                FIRST RLD ITEM
 000B12 4830 1006            00006  4787    1187.              LH    TR,MRRLDCNT             COMPUTE END
 000B16 4930 7D54            00D76  4788    1188.              CH    TR,=Y(L'MRRLD)
 000B1A 47D0 7B00            00B22  4789    1189.              IF    HIGH,'BAS R15,BADREC'
 000B1E 4DF0 7220            00242  4801             +
 000B22 4140 3010            00010  4806    1190.              LA    QR,@TR+MRRLD-MRC        RECORD LENGTH
 000B26 4A40 1004            00004  4807    1191.              AH    QR,MRCTLCNT
 DROP   MRC,R1                      4808    1192.              DROP  R1                      ##
 000B2A 1B04                        4815    1193.              SR    R0,QR
 000B2C 47B0 7B12            00B34  4816    1194.              IF    NEG,'BAS R15,BADREC'
 000B30 4DF0 7220            00242  4828             +
 000B34 1A14                        4833    1195.              AR    R1,QR
 000B36 9001 8000            00000  4834    1196.              STM   R0,R1,WAR0
 000B3A 9102 B014      00014        4835    1197.              TM    LCBCI,MRRLDID           ANY RLD DATA?
 000B3E 4780 7BF4            00C16  4836    1198.              BZ    CTLREC                  NO
 000B42 47F0 7B34            00B56  4837    1199.              B     RLDCOM                  JOIN OBJECT CARD CODE
1VLDR     (VLDR00) (09:48) (22MAR04) ORVYL'S LOADER                                                                         Page   46
0Current Usings:  (BASE+4096,R6) (BASE,R7) (LDWA,R8) (LCB,R11)
0Loc    Object Code    Addr1 Addr2  Stmt Lv Lineno    Source Statement           (Hibal 5, Asmedit 3.3)  HLASM R4.0  2004/03/22 09.48
+___    ______ ____    _____ _____  ____ __ ______    ______ _________
0                                   4839    1201.     *** RLD CARD PROCESSOR ***
                                    4840    1202.     *
                                    4841    1203.     *
                                    4842    1204.     *
 000B46                             4843    1205.     RLDCARD  LABEL ,
 000B46 4120 B024            00024  4845    1206.              LA    SR,CIRLD                GET LOC OF RLD TEXT
 000B4A 4830 B01E            0001E  4846    1207.              LH    TR,CICNT                AND COMPUTE
 000B4E 4930 7D48            00D6A  4847    1208.              CH    TR,=Y(CISEQ-CITEXT)
 000B52 4720 7114            00136  4848    1209.              BH    BADCARD                 BRANCH IF HASH IN COUNT FIELD
 000B56 1A32                        4849    1210.     RLDCOM   AR    TR,SR                   END.
 000B58 5030 8040            00040  4850    1211.              ST    TR,LDWTXEND
 000B5C D203 8044 2000 00044 00000  4851    1212.              MVC   LDWRANDP(4),@SR         SAVE R AND P
 000B62 4120 2004            00004  4852    1213.              LA    SR,@SR+4                RLD TEXT POINTER
 000B66 4D90 6026            01048  4853    1214.              LCALL GETRLD                  OBTAIN RLD SPACE
 000B6A 18A1                        4855    1215.              LR    R10,R1
 USING  RLD,R10                     4856    1216.              USING RLD,R10                 ##
                                    4865    1217.     * OLD R & P ARE NOT RE-USED
                                    4866    1218.     *
 000B6C 4810 8046            00046  4867    1219.     RLDNXB   LH    R1,LDWP                 P PTR
 000B70 4D90 60A6            010C8  4868    1220.              LCALL RNTFU                   LOCATE RNT ENTRY FOR P
                                    4870    1221.     * VALIDITY CHECK ON P
                                    4871    1222.     *
 000B74 1835                        4872    1223.              LR    TR,XRNT                 LET TR HOLD P RNT ADDR
 USING  RNT,R3                      4873    1224.              USING RNT,TR                  ##
 000B76 9140 3002      00002        4882    1225.              IF    RNTFDEL,RLDSDGON
 000B7A 4710 7BB0            00BD2  4894             +
 000B7E 9104 3002      00002        4900    1226.              IF    ~RNTFSD,RLDERA           ERROR IF NOT
 000B82 47E0 7BE8            00C0A  4912             +
 000B86 9108 3002      00002        4918    1227.              IF    RNTFSDX,RLDERB          OR IF
 000B8A 4710 7BE8            00C0A  4930             +
 000B8E 4810 8044            00044  4936    1228.              LH    R1,LDWR                 PUT R-RNT
 000B92 4D90 60A6            010C8  4937    1229.              LCALL RNTFU                   IN XRNT.
                                    4939    1230.     *
                                    4940    1231.     *  R AND P ARE VALID. CHAIN RLD ON CSD
                                    4941    1232.     *
 000B96                             4942    1233.     RLDNXA   LABEL ,
 000B96 9140 3002      00002        4944    1234.              IF    RNTFDEL,RLDSDGON
 000B9A 4710 7BB0            00BD2  4956             +
 000B9E D201 A002 3000 00002 00000  4962    1235.              MVC   RLDP,RNTCSD             RENUMBER P-CSDID.
 DROP   RNT,R3                      4963    1236.              DROP  TR                      ##
 000BA4 D203 A004 2000 00004 00000  4970    1237.              MVC   RLDADDR,@SR             HOLD FLAGS AND ADDRESS.
 USING  RNT,R5                      4971    1238.              USING RNT,XRNT                ## XRNT HOLDS R RNT ADDR
 000BAA 9110 A004      00004        4980    1239.              IF    RLDFBRA,SETABS          V-TYPE OR PRCL?
 000BAE 4710 7BA0            00BC2  4992             +
 000BB2 D501 8044 8046 00044 00046  4998    1240.              CLC   LDWR,LDWP               LOCAL A-TYPE?
 000BB8 4780 7BA4            00BC6  4999    1241.              BE    NOSTABS                 YES; NO DELINK
 000BBC D202 A009 5003 00009 00003  5000    1242.              MVC   RLDDLNK+1(3),RNTDLNK
 000BC2 9680 A004      00004        5001    1243.     SETABS   SET   RLDFABS
 000BC6                             5008    1244.     NOSTABS  LABEL ,
0000BC6 D201 A000 5000 00000 00000  5011    1246.              MVC   RLDR,RNTCSD             RENUMBER R-CSDID
 000BCC 4D90 6026            01048  5012    1247.              LCALL GETRLD                  GET AN RLD ENTRY
 000BD0 18A1                        5014    1248.              LR    R10,R1
                                    5015    1249.     *
1VLDR     (VLDR00) (09:48) (22MAR04) ORVYL'S LOADER                                                                         Page   47
0Current Usings:  (RNT,R5) (BASE+4096,R6) (BASE,R7) (LDWA,R8) (RLD,R10) (LCB,R11)
0Loc    Object Code    Addr1 Addr2  Stmt Lv Lineno    Source Statement           (Hibal 5, Asmedit 3.3)  HLASM R4.0  2004/03/22 09.48
+___    ______ ____    _____ _____  ____ __ ______    ______ _________
0                                   5016    1250.     * MOVE TO NEXT RLD TEXT IF ANY
                                    5017    1251.     *
 000BD2                             5018    1252.     RLDSDGON LABEL ,
 000BD2 9101 2000      00000        5020    1253.              IF    @SR.RLDFN,OLDRP         USE OLD R&P?
 000BD6 4710 7BCE            00BF0  5032             +
 000BDA D203 8044 2004 00044 00004  5038    1254.     NEWRP    MVC   LDWRANDP(4),@SR+4       NEW R&P
 000BE0 4120 2008            00008  5039    1255.              LA    SR,@SR+8                NEXT TEXT
 000BE4 5920 8040            00040  5040    1256.              C     SR,LDWTXEND             AT END?
 000BE8 4740 7B4A            00B6C  5041    1257.              BL    RLDNXB                  VALIDATE R&P
 000BEC 47F0 7BDE            00C00  5042    1258.              B     RLDBYE
                                    5043    1259.
 000BF0 4120 2004            00004  5044    1260.     OLDRP    LA    SR,@SR+4              MOVE TO NEXT.
 000BF4 5920 8040            00040  5045    1261.              C     SR,LDWTXEND             AT END  OF TEXT?
 000BF8 4740 7B74            00B96  5046    1262.              BL    RLDNXA                  NO  TR POINTS TO P-RNT
 000BFC 47F0 7BDE            00C00  5047    1263.              B     RLDBYE
                                    5048    1264.
 000C00 181A                        5049    1265.     RLDBYE   LR    R1,R10                   UNUSED RLD ENTRY
 000C02 4D90 6058            0107A  5050    1266.              LCALL RELRLD                  RELEASE IT
0000C06 47F0 7BF4            00C16  5053    1268.              B     CTLREC                  PROCESS ANY CONTROL.
                                    5054    1269.
 000C0A                             5055    1270.     RLDERA   LABEL ,
 000C0A                             5057    1271.     RLDERB   LABEL ,
 000C0A 4110 7E17            00E39  5059    1272.              DIAG  'INVALID RLD ENTRY',,EXIT,EC=8
 000C0E 4100 0011            00011  5063             +
 000C12 4D90 7160            00182  5065             +
 DROP   RNT,R5                      5066    1273.              DROP  XRNT,R10                ##
 DROP   RLD,R10
                                    5079    1274.
1VLDR     (VLDR00) (09:48) (22MAR04) ORVYL'S LOADER                                                                         Page   48
0Current Usings:  (BASE+4096,R6) (BASE,R7) (LDWA,R8) (LCB,R11)
0Loc    Object Code    Addr1 Addr2  Stmt Lv Lineno    Source Statement           (Hibal 5, Asmedit 3.3)  HLASM R4.0  2004/03/22 09.48
+___    ______ ____    _____ _____  ____ __ ______    ______ _________
0                                   5081    1276.     *** CONTROL RECORD PROCESSOR ***
                                    5082    1277.     *
 000C16 9101 B014      00014        5083    1278.     CTLREC   TM    LCBCI,MRCTLID
 000C1A 4780 7C4E            00C70  5084    1279.              BZ    EOSCHK
 000C1E 1F11/BF17 B015       00015  5085    1280.              L3    R1,LCBCI+1              SAVE RECORD POINTER
 USING  MRC,R1                      5093    1281.              USING MRC,R1                  ##
 000C24 1F33/BF37 1009       00009  5102    1282.              L3    TR,MRCCW+1              GET DATA ADDRESS PART OF CCW
 000C2A 5930 B0BC            000BC  5110    1283.              C     TR,LCBMLEN              INSIDE MODULE?
 000C2E 47D0 7C14            00C36  5111    1284.              IF    HIGH,'BAS R15,BADREC'
 000C32 4DF0 7220            00242  5123             +
 000C36 5820 100C            0000C  5128    1285.              L     SR,MRCCW+4              DATA LENGTH
 DROP   MRC,R1                      5129    1286.              DROP  R1                      ##
 000C3A 5420 7CE2            00D04  5136    1287.              N     SR,=X'0000FFFF'         CCW LENGTH IS 16 BITS
 000C3E 4143 2000            00000  5137    1288.              LA    QR,@SR(TR)
 000C42 5810 B0BC            000BC  5138    1289.              L     R1,LCBMLEN              GET LOAD MODULE LENGTH
 000C46 4110 1008            00008  5139    1290.              LA    R1,@R1+8                BUMP
 000C4A 5410 7CE6            00D08  5140    1291.              N     R1,=F'-8'               AND ROUND
 000C4E 1541                        5141    1292.              CLR   QR,R1                   PAST END OF MODULE?
 000C50 47D0 7C36            00C58  5142    1293.              IF    HIGH,'BAS R15,BADREC'
 000C54 4DF0 7220            00242  5154             +
 000C58 5E30 B078            00078  5159    1294.              AL    TR,LCBLC                START OF LOADMODULE
 000C5C 5E30 B000            00000  5160    1295.              AL    TR,LCBCORE              FULL ADDRESS OF TEXT
                                    5161    1296.
 000C60 9023 8000            00000  5162    1297.              STM   SR,TR,WAR0              RETURN POINTERS
 000C64 5890 8024            00024  5163    1298.              L     RAR,WARAR               SET SPECIAL RETURN ADDRESS
 000C68 4190 9004            00004  5164    1299.              LA    RAR,@RAR+4
 000C6C 5090 8024            00024  5165    1300.              ST    RAR,WARAR
1VLDR     (VLDR00) (09:48) (22MAR04) ORVYL'S LOADER                                                                         Page   49
0Current Usings:  (BASE+4096,R6) (BASE,R7) (LDWA,R8) (LCB,R11)
0Loc    Object Code    Addr1 Addr2  Stmt Lv Lineno    Source Statement           (Hibal 5, Asmedit 3.3)  HLASM R4.0  2004/03/22 09.48
+___    ______ ____    _____ _____  ____ __ ______    ______ _________
0                                   5167    1302.     *** END OF SEGMENT/MODULE PROCESSING.
                                    5168    1303.     *
 000C70 910C B014      00014        5169    1304.     EOSCHK   TM    LCBCI,MREOMID+MREOSID
 000C74 4780 7188            001AA  5170    1305.              BZ    EXIT
 000C78 94F7 B07C      0007C        5171    1306.              CLEAR LCBFMI
 000C7C 5810 B078            00078  5178    1307.              L     R1,LCBLC                LOCATION COUNTER
 000C80 5E10 B0BC            000BC  5179    1308.              AL    R1,LCBMLEN              MEMORY FOR LOAD MODULE
 000C84 5010 B078            00078  5180    1309.              ST    R1,LCBLC
 000C88 5810 8024            00024  5181    1310.              L     R1,WARAR
 000C8C 4110 1008            00008  5182    1311.              LA    R1,@R1+8                EOM EXIT
 000C90 5010 8024            00024  5183    1312.              ST    R1,WARAR
 000C94 47F0 733C            0035E  5184    1313.              B     ENDCOM                  JOIN END CARD PROCESSING.
1VLDR     (VLDR00) (09:48) (22MAR04) ORVYL'S LOADER                                                                         Page   50
0Current Usings:  (BASE+4096,R6) (BASE,R7) (LDWA,R8) (LCB,R11)
0Loc    Object Code    Addr1 Addr2  Stmt Lv Lineno    Source Statement           (Hibal 5, Asmedit 3.3)  HLASM R4.0  2004/03/22 09.48
+___    ______ ____    _____ _____  ____ __ ______    ______ _________
0000C98                             5186    1315.              LTORG
 000C98 0000102200000022            5188                             =A(BASE+4096,BASE)
 000CA0 F0F1F2F3F4F5F6F7            5189                             =C'0123456789ABCDEF'
 000CB0 00001022                    5190                             =A(BASE+4096)
 000CB4 C5D9D9D6D940C9D5            5191                             =C'ERROR IN LOADER CALL SEQUENCE @             '
 000CE0 00000000                    5192                             =V(LDMSG)
 000CE4 00000000                    5193                             =A(0)
 000CE8 7A40D7D9C5E5C9D6            5194                             =C': PREVIOUSLY DEFINED'
 000CFC 00000000                    5195                             =A(VLDR)
 000D00 00000018                    5196                             =A(L'CSD)
 000D04 0000FFFF                    5197                             =X'0000FFFF'
 000D08 FFFFFFF8                    5198                             =F'-8'
 000D0C 0100                        5199                             =Y(256)
 000D0E 7FFF                        5200                             =Y(32767)
 000D10 FFFA                        5201                             =Y(-L'RNT)
 000D12 C5D9D9D6D940C9D5            5202                             =C'ERROR IN LOADER INITIALIZATION'
 000D30 C9D5E5C1D3C9C440            5203                             =C'INVALID LOAD MODULE RECORD'
 000D4A C9D5C3D6D4D7D3C5            5204                             =C'INCOMPLETE LOAD MODULE'
 000D60 0018                        5205                             =Y(L'CSD)
 000D62 00F0                        5206                             =Y(L'MRSYM)
 000D64 0001                        5207                             =Y(L'MRSCT)
 000D66 00FF                        5208                             =Y(L'MRIDR)
 000D68 00F0                        5209                             =Y(L'MRESD)
 000D6A 0038                        5210                             =Y(CISEQ-CITEXT)
 000D6C 0084                        5211                             =Y((132+3)/4*4)
 000D6E 0040                        5212                             =Y((R15+1-(R0)+16*((R0)/(R15+1))/((R0)/(R15+1)))*4)
 000D70 000D                        5213                             =H'13'
 000D72 00F0                        5214                             =XL2'F0'
 000D74 0005                        5215                             =H'5'
 000D76 00F0                        5216                             =Y(L'MRRLD)
 000D78 0C                          5217                             =P'0'
 000D79 C9D5E5C1D3C9C440            5218                             =C'INVALID OBJECT CARD'
 000D8C E2C5E5C5D9C540C5            5219                             =C'SEVERE ERROR IN LOADER @             '
 000DB1 C5D5E3D9E840C9D5            5220                             =C'ENTRY INVALID'
 000DBE 7A40C9D5E5C1D3C9            5221                             =C': INVALID SYMBOL TYPE'
 000DD3 D4C1D740D6E5C5D9            5222                             =C'MAP OVERFLOW. SPECIFY LARGER MAP SIZE'
 000DF8 7A40C3D6D4D4D6D5            5223                             =C': COMMON SIZE GREATER THAN CSECT WITH SAME NAME'
 000E27 00                          5224                             =X'00'
 000E28 C9D5E5C1D3C9C440            5225                             =C'INVALID TEXT CARD'
 000E39 C9D5E5C1D3C9C440            5226                             =C'INVALID RLD ENTRY'
1VLDR     (VLDR00) (09:48) (22MAR04) ORVYL'S LOADER                                                                         Page   51
0Current Usings:  (BASE+4096,R6) (BASE,R7) (LDWA,R8) (LCB,R11)
0Loc    Object Code    Addr1 Addr2  Stmt Lv Lineno    Source Statement           (Hibal 5, Asmedit 3.3)  HLASM R4.0  2004/03/22 09.48
+___    ______ ____    _____ _____  ____ __ ______    ______ _________
0                                   5231    1317.     *** ADCON RELOCATION ROUTINE ***
                                    5232    1318.     *
                                    5233    1319.     *    ENTRY.. BAS RAR,RELOC
                                    5234    1320.     *
                                    5235    1321.     *         WITH (1)=L(CSD_ENTRY)
                                    5236    1322.     *              (15)=L(RLD_ENTRY)
                                    5237    1323.     *
                                    5238    1324.     *   REGISTER DEFINITIONS
                                    5239    1325.     *
                                    5240    1326.     *SR                                    LOCATION OF ADCON
                                    5241    1327.     *TR                                    LOCATION OF PCSD
                                    5242    1328.     *TR                                    RELOCATION QUANTITY
                                    5243    1329.     *QR                                    WORK REG
                                    5244    1330.     *
                                    5245    1331.     *
 000E4A                             5246    1332.     RELOC    LABEL ,
 000E4A 5090 D000            00000  5248    1333.              VPUSH RAR,,*
 000E4E 41D0 D004            00004  5250             +
 USING  RLD,R15                     5251    1334.              USING RLD,R15                 ##
 000E52 4830 F002            00002  5260    1335.              LH    TR,RLDP                 LOCATE P-CSD.
 000E56 4C30 6A96            01AB8  5261    1336.              MH    TR,=Y(L'CSD)
 000E5A 5E30 B008            00008  5262    1337.              AL    TR,LCBCSD
 USING  CSD,R3                      5263    1338.              USING CSD,TR                  ##
 000E5E 1F22/BF27 3015       00015  5272    1339.              L3    SR,CSDREL+1             GET RELOC FACTOR.
 000E64 1F44/BF47 F005       00005  5280    1340.              L3    QR,RLDADDR+1            COMPUTE ABSOLUTE LOCATION OF
 000E6A 4122 4000            00000  5288    1341.              LA    SR,@QR(SR)              ADCON.
 000E6E 4840 F002            00002  5289    1342.              LH    QR,RLDP
 000E72 4D90 7F1C            00F3E  5290    1343.              LCALL FDECR                   FETCH DECREMENT VALUE
 000E76 1B24                        5292    1344.              SR    SR,QR
 000E78 1F44/BF47 300D       0000D  5293    1345.              L3    QR,CSDADDR+1            VERIFY
 000E7E 1924                        5301    1346.              CR    SR,QR                   ADCON
 000E80 4740 7F10            00F32  5302    1347.              BL    RELERAX                 FALLS
 000E84 4300 F004            00004  5303    1348.              IC    R0,RLDFL                     CALCULATE
 000E88 8800 0002            00002  5304    1349.              SRL   R0,2                         LENGTH
 000E8C 5400 6A7E            01AA0  5305    1350.              N     R0,=A(3)
 000E90 1B40                        5306    1351.              SR    QR,R0                        ADCON.
 000E92 5A40 3010            00010  5307    1352.              A     QR,CSDLNG               WITHIN
 000E96 1924                        5308    1353.              CR    SR,QR                   THE
 000E98 47B0 7F10            00F32  5309    1354.              BNL   RELERAX                 SECTION.
 000E9C BE27 F005            00005  5310    1355.              ST3   SR,RLDADDR+1            SAVE ABS LOC OF ADCON.
 000EA0 5E20 B000            00000  5312    1356.              AL    SR,LCBCORE              REAL LOCATION OF ADCON
 DROP   CSD,R3                      5313    1357.              DROP  TR                      ##
 USING  CSD,R1                      5320    1358.              USING CSD,R1                  ##
 000EA4 1F33/BF37 1015       00015  5329    1359.              L3    TR,CSDREL+1             PICK UP
 000EAA 9180 F004      00004        5337    1360.              IF    RLDFABS,'L3 TR,CSDADDR+1' ABSOLUTE
 000EAE 47E0 7E96/1F33       00EB8  5347             +
 000EB4 BF37 100D            0000D  5359             +
 000EB8 9506 100C      0000C        5365    1361.              CLI   CSDTYP,ESDTPR           PSEUDO REGISTER?
 000EBC 4780 7EA2            00EC4  5366    1362.              IF    NE,'AL TR,LCBRF'        RELOCATE TO VIRTUAL ORIGIN
 000EC0 5E30 B010            00010  5378             +
 000EC4 1840                        5383    1363.              LR    QR,R0
 000EC6 1803                        5384    1364.              LR    R0,TR                   RELOC FACTOR
 000EC8 5F00 F008            00008  5385    1365.              SL    R0,RLDDLNK
 000ECC 9102 F004      00004        5386    1366.              IF    RLDFS,'LCR R0,R0'       COMPLEMENT RELOCATION
1VLDR     (VLDR00) (09:48) (22MAR04) ORVYL'S LOADER                                                                         Page   52
0Current Usings:  (CSD,R1) (BASE+4096,R6) (BASE,R7) (LDWA,R8) (LCB,R11) (RLD,R15)
0Loc    Object Code    Addr1 Addr2  Stmt Lv Lineno    Source Statement           (Hibal 5, Asmedit 3.3)  HLASM R4.0  2004/03/22 09.48
+___    ______ ____    _____ _____  ____ __ ______    ______ _________
0000ED0 47E0 7EB4/1300       00ED6  5396             +
 000ED6 4130 804B            0004B  5407    1367.              LA    TR,LDWTEMP+3            TEMP ADCON CELL
 000EDA 1B34                        5408    1368.              SR    TR,QR                   LOC AND MOVE
 000EDC 9110 F004      00004        5409    1369.              IF    ~RLDFBRA,BEGIN          ~BRANCH TYPE
 000EE0 4710 7EF2            00F14  5419             +
 000EE4                             5424  1 1370.                CLEAR (LDWTEMP,4)             CLEAR A WORD.
 000EE4 D703 8048 8048 00048 00048  5430  1          +
 000EEA 4440 7F04            00F26  5431  1 1371.                EX    QR,RELMA                ADCON TO WORK CELL.
 000EEE 5E00 8048            00048  5433  1 1372.                AL    R0,LDWTEMP              PICK UP ADCON AND
 000EF2 9180 F004      00004        5434  1 1373.                IF    ~RLDFABS,BEGIN
 000EF6 4710 7EF2            00F14  5444  1          +
 000EFA 5040 D000            00000  5449  2 1374.                  VPUSH QR,,*
 000EFE 41D0 D004            00004  5451  2          +
 000F02 4840 F000            00000  5452  2 1375.                  LH    QR,RLDR
 000F06 4D90 7F1C            00F3E  5453  2 1376.                  LCALL FDECR                   FETCH DECREMENT VALUE
 000F0A 1B04                        5455  2 1377.                  SR    R0,QR                   DECREMENT
 000F0C 4BD0 6A98            01ABA  5456  2 1378.                  VPOP  QR,,*
 000F10 5840 D000            00000  5458  2          +
 000F14                             5459  1 1379.                END   ,
 000F14                             5463    1380.              END   ,
 000F14 5000 8048            00048  5467    1381.              ST    R0,LDWTEMP
 000F18 4440 7F0A            00F2C  5468    1382.              EX    QR,RELMB                INTO SLOT
 000F1C 4BD0 6A98            01ABA  5470    1383.              VPOP  RAR,,*
 000F20 5890 D000            00000  5472             +
 000F24 07F9                        5473    1384.              BR    RAR                     AND EXIT.
                                    5474    1385.
 000F26 D200 3000 2000 00000 00000  5475    1386.     RELMA    MVC   @TR(*-*),@SR
 000F2C D200 2000 3000 00000 00000  5476    1387.     RELMB    MVC   @SR(*-*),@TR
                                    5477    1388.
 DROP   CSD,R1                      5478    1389.              DROP  R1                      ##
 DROP   RLD,R15                     5485    1390.              DROP  R15                     ##
                                    5492    1391.
 000F32 4110 6A56            01A78  5493    1392.     RELERAX  DIAG  'INVALID ADDRESS CONSTANT',,EXIT
 000F36 4100 0018            00018  5497             +
 000F3A 4D90 7168            0018A  5499             +
-                                   5501    1394.     *  FETCH DECREMENT VALUE GIVEN P-CSD IN QR
                                    5502    1395.     *
 000F3E 9013 D000            00000  5503    1396.     FDECR    VPUSH R1,R3,*
 000F42 41D0 D00C            0000C  5505             +
 000F46 4820 8046            00046  5506    1397.              LH    R2,LDWP                 LAST P VALUE
 000F4A 1942/4770 7F32       00F54  5507    1398.              IF    (QR,EQ,R2),BEGIN
 000F50 5840 803C            0003C  5522  1 1399.                L     QR,LDWDLEN
 000F54                             5523    1400.              END   ,
 000F54 7F36           00F54 00F4E  5527    1401.              ELSE  BEGIN
 000F54 47F0 7F4E            00F70  5532             +
 000F58 1839                        5538  1 1402.                LR    R3,RAR
 000F5A 1814                        5539  1 1403.                LR    R1,QR
 000F5C 4010 8046            00046  5540  1 1404.                STH   R1,LDWP
 000F60 4D90 6080            010A2  5541  1 1405.                LCALL RNTF
 000F64 1893                        5543  1 1406.                LR    RAR,R3
 USING  RNT,R5                      5544  1 1407.                USING RNT,XRNT              ##
 000F66 1F44/BF47 5003       00003  5553  1 1408.                L3    QR,RNTDLNK
1VLDR     (VLDR00) (09:48) (22MAR04) ORVYL'S LOADER                                                                         Page   53
0Current Usings:  (RNT,R5) (BASE+4096,R6) (BASE,R7) (LDWA,R8) (LCB,R11)
0Loc    Object Code    Addr1 Addr2  Stmt Lv Lineno    Source Statement           (Hibal 5, Asmedit 3.3)  HLASM R4.0  2004/03/22 09.48
+___    ______ ____    _____ _____  ____ __ ______    ______ _________
0000F6C 5040 803C            0003C  5561  1 1409.                ST    QR,LDWDLEN
 000F70                             5562    1410.              END    ,
 000F70 4BD0 6A9A            01ABC  5566    1411.              VPOP  R1,R3,*
 000F74 9813 D000            00000  5568             +
 000F78 07F9                        5569    1412.              BR    RAR
1VLDR     (VLDR00) (09:48) (22MAR04) ORVYL'S LOADER                                                                         Page   54
0Current Usings:  (RNT,R5) (BASE+4096,R6) (BASE,R7) (LDWA,R8) (LCB,R11)
0Loc    Object Code    Addr1 Addr2  Stmt Lv Lineno    Source Statement           (Hibal 5, Asmedit 3.3)  HLASM R4.0  2004/03/22 09.48
+___    ______ ____    _____ _____  ____ __ ______    ______ _________
0                                   5571    1414.     *** SPACE PROCESSING ROUTINES ***
                                    5572    1415.     *
                                    5573    1416.     * GET SPACE FOR SD
                                    5574    1417.     * MODULE LENGTH ROUNDED UP TO DOUBLEWORD.
                                    5575    1418.     * PAGE ALIGNMENT PERFORMED.
                                    5576    1419.     *
                                    5577    1420.     *        BAS  RAR,GETSD  WITH (1)=L(CSD)
                                    5578    1421.     *
                                    5579    1422.     *     RETURNS (1)=L(SPACE)
                                    5580    1423.     *
 000F7A                             5581    1424.     GETSD    LABEL ,
 USING  CSD,R1                      5583    1425.              USING CSD,R1                  ##
 000F7A 9120 B07C      0007C        5592    1426.              IF    LCBFPAGN,'SET CSDFPAG;CLEAR LCBFPAGN'
 000F7E 47E0 7F68            00F8A  5602             +
 000F82 9608 1014      00014        5613  1          +
 000F86 94DF B07C      0007C        5620             +
 000F8A 58F0 1010            00010  5625    1427.              L     R15,CSDLNG              MODULE LENGTH
 000F8E 4100 F007            00007  5626    1428.              LA    R0,@R15+7               ROUND TO DOUBLE WORD.
 000F92 5400 6A82            01AA4  5627    1429.              N     R0,=X'00FFFFF8'
 000F96 5000 1010            00010  5628    1430.              ST    R0,CSDLNG
 000F9A 58F0 B078            00078  5629    1431.              L     R15,LCBLC               LOCATION COUNTER
 000F9E 9108 1014      00014        5630    1432.              IF    ~CSDFPAG,NOPAGE         PAGE BOUNDARY?
 000FA2 47E0 7F90            00FB2  5642             +
 DROP   CSD,R1                      5648    1433.              DROP  R1                      ##
 000FA6 41F0 FFFF            00FFF  5655    1434.              LA    R15,@R15+X'FFF'
 000FAA 54F0 6A86            01AA8  5656    1435.              N     R15,=X'7FFFF000'
 000FAE 9601 B07C      0007C        5657    1436.              SET   LCBFPAG                 MODULE REQUIRES PAGE ALIGNMENT
 000FB2 181F                        5663    1437.     NOPAGE   LR    R1,R15                  RETURN START ADDRESS
 000FB4 1A0F                        5664    1438.              AR    R0,R15                  BUMP LOC.
 000FB6 5500 B004            00004  5665    1439.              CL    R0,LCBCLEN              PAST END OF PROGRAM CORE?
 000FBA 4720 7FCA            00FEC  5666    1440.              BH    NOSDCORE
 000FBE 5000 B078            00078  5667    1441.              ST    R0,LCBLC
 000FC2 181F                        5668    1442.              LR    R1,R15                  PASS BACK SD ADDRESS
 000FC4 07F9                        5669    1443.              BR    RAR                     RETURN
-
-                                   5671    1445.     * SAVE SDID IN CSECT TABLE
                                    5672    1446.     *
                                    5673    1447.     *        LCALL SAVESD  WITH (1)=L(C    SD)
                                    5674    1448.     *
 000FC6 1B00                        5675    1449.     SAVESD   CLEAR R0                      NEW ENTRY FOR SD TABLE
 000FC8 5F10 B008            00008  5680    1450.              SL    R1,LCBCSD               GET CSDID
 000FCC 5D00 6A8A            01AAC  5681    1451.              D     R0,=A(L'CSD)
 000FD0 1801                        5682    1452.              LR    R0,R1
 000FD2 5810 B09C            0009C  5683    1453.              L     R1,LCBSDLC
 000FD6 4000 1000            00000  5684    1454.              STH   R0,@R1
 000FDA 4110 1002            00002  5685    1455.              LA    R1,@R1+2
 000FDE 5910 B0A0            000A0  5686    1456.              C     R1,LCBSDEND             TOO MANY CSECTS FOR TABLE?
 000FE2 47B0 7FD6            00FF8  5687    1457.              BNL   CSECERR
 000FE6 5010 B09C            0009C  5688    1458.              ST    R1,LCBSDLC
 000FEA 07F9                        5689    1459.              BR    RAR                     RETURN
1VLDR     (VLDR00) (09:48) (22MAR04) ORVYL'S LOADER                                                                         Page   55
0Current Usings:  (RNT,R5) (BASE+4096,R6) (BASE,R7) (LDWA,R8) (LCB,R11)
0Loc    Object Code    Addr1 Addr2  Stmt Lv Lineno    Source Statement           (Hibal 5, Asmedit 3.3)  HLASM R4.0  2004/03/22 09.48
+___    ______ ____    _____ _____  ____ __ ______    ______ _________
0                                   5690    1460.
 000FEC                             5691    1461.     NOSDCORE LABEL ,
 000FEC 4110 6AC2            01AE4  5693    1462.              DIAG  'PROGRAM TOO LARGE',,EXIT,EC=8
 000FF0 4100 0011            00011  5697             +
 000FF4 4D90 7160            00182  5699             +
 000FF8 4110 6AD3            01AF5  5700    1463.     CSECERR  DIAG  'TOO MANY CSECTS',,EXIT,EC=8
 000FFC 4100 000F            0000F  5704             +
 001000 4D90 7160            00182  5706             +
1VLDR     (VLDR00) (09:48) (22MAR04) ORVYL'S LOADER                                                                         Page   56
0Current Usings:  (RNT,R5) (BASE+4096,R6) (BASE,R7) (LDWA,R8) (LCB,R11)
0Loc    Object Code    Addr1 Addr2  Stmt Lv Lineno    Source Statement           (Hibal 5, Asmedit 3.3)  HLASM R4.0  2004/03/22 09.48
+___    ______ ____    _____ _____  ____ __ ______    ______ _________
0                                   5708    1465.     *
                                    5709    1466.     * GET CSD SPACE
                                    5710    1467.     *
                                    5711    1468.     *        BAS RAR,GETCSD
                                    5712    1469.     *
                                    5713    1470.     *     RETURNS (1)=L(CSD)
                                    5714    1471.     *
 001004                             5715    1472.     GETCSD   LABEL ,
 001004 5810 B084            00084  5717    1473.              L     R1,LCBCHF               IF THERE
 001008 1211                        5718    1474.              LTR   R1,R1                   ARE ANY
 00100A 4780 7FF8            0101A  5719    1475.              BZ    GCSDA                   CSD ENTRIES ON THE FREELIST?
 00100E 5800 1000            00000  5720    1476.              L     R0,@R1                  GIVE THE
 001012 5000 B084            00084  5721    1477.              ST    R0,LCBCHF               FIRST ONE
 001016 47F0 600C            0102E  5722    1478.              B     CLRCSD                  TO THE CALLER.
                                    5723    1479.     *
                                    5724    1480.     * TAKE AN ENTRY FROM THE CSD/RLD
 00101A 5810 B08C            0008C  5725    1481.     GCSDA    L     R1,LCBCSDLC             CSD LOCATION COUNTER
 00101E 4100 1018            00018  5726    1482.              LA    R0,@R1+L'CSD            TAKE AWAY ONE CSD
 001022 5500 B090            00090  5727    1483.              CL    R0,LCBRLDLC             DO CSD AND RLD MEET?
 001026 47B0 79C4            009E6  5728    1484.              BNL   DICTFULL
 00102A 5000 B08C            0008C  5729    1485.              ST    R0,LCBCSDLC             CSD LOCATION COUNTER
 00102E D717 1000 1000 00000 00000  5730    1486.     CLRCSD   XC    @R1(L'CSD),@R1
 001034 07F9                        5731    1487.              BR    RAR                     GIVE CSD TO CALLER
                                    5732    1488.     *
                                    5733    1489.     * RELEASE CSD ENTRIES
                                    5734    1490.     *
                                    5735    1491.     *        LCALL RELCSD
                                    5736    1492.     *
                                    5737    1493.     *     ENTERED WITH (1)=L(CSD)
                                    5738    1494.     *
 001036                             5739    1495.     RELCSD   LABEL ,
 001036 5800 B084            00084  5741    1496.              L     R0,LCBCHF
 00103A 5010 B084            00084  5742    1497.              ST    R1,LCBCHF
 00103E 5000 1000            00000  5743    1498.              ST    R0,@R1
 001042 9207 100C      0000C        5744    1499.              MVI   @R1+CSDTYP-CSDSTART,ESDTNL MARK AS NULL.
 001046 07F9                        5745    1500.              BR    RAR
1VLDR     (VLDR00) (09:48) (22MAR04) ORVYL'S LOADER                                                                         Page   57
0Current Usings:  (RNT,R5) (BASE+4096,R6) (BASE,R7) (LDWA,R8) (LCB,R11)
0Loc    Object Code    Addr1 Addr2  Stmt Lv Lineno    Source Statement           (Hibal 5, Asmedit 3.3)  HLASM R4.0  2004/03/22 09.48
+___    ______ ____    _____ _____  ____ __ ______    ______ _________
0                                   5747    1502.     *
                                    5748    1503.     * GET RLD SPACE
                                    5749    1504.     *
                                    5750    1505.     *        BAS RAR,GETRLD
                                    5751    1506.     *
                                    5752    1507.     *     RETURNS (1)=L(RLD)
                                    5753    1508.     *
 001048                             5754    1509.     GETRLD   LABEL ,
 001048 5810 B094            00094  5756    1510.              L     R1,LCBRHF               IF THERE
 00104C 1211                        5757    1511.              LTR   R1,R1                   ARE ANY
 00104E 4780 603C            0105E  5758    1512.              BZ    GRLA                    RLD
 001052 5800 1000            00000  5759    1513.              L     R0,@R1                  ENTRIES
 001056 5000 B094            00094  5760    1514.              ST    R0,LCBRHF               ON FREE
 00105A 47F0 6050            01072  5761    1515.              B     CLRRLD                  TO THE CALLER.
                                    5762    1516.     *
                                    5763    1517.     * TAKE AN ENTRY FROM THE CSD/RLS
 00105E 5810 B090            00090  5764    1518.     GRLA     L     R1,LCBRLDLC             RLD LOCATION COUNTER
 001062 4B10 6A9C            01ABE  5765    1519.              SH    R1,=Y(L'RLD)            TAKE AWAY ONE RLD
 001066 5510 B08C            0008C  5766    1520.              CL    R1,LCBCSDLC             DO CSD AND RLD MEET?
 00106A 4740 79C4            009E6  5767    1521.              BL    DICTFULL                YES.
 00106E 5010 B090            00090  5768    1522.              ST    R1,LCBRLDLC             FOR NEXT RLD ALLOCATION.
 001072 D70B 1000 1000 00000 00000  5769    1523.     CLRRLD   XC    @R1(L'RLD),@R1
 001078 07F9                        5770    1524.              BR    RAR                     GIVE RLD TO CALLER
-
                                    5772    1526.     *
                                    5773    1527.     * RELEASE RLD ENTRIES
                                    5774    1528.     *
                                    5775    1529.     *        LCALL RELRLD
                                    5776    1530.     *
                                    5777    1531.     *     ENTERED WITH (1)=L(RLD)
                                    5778    1532.     *
 00107A                             5779    1533.     RELRLD   LABEL ,
 00107A 5800 B094            00094  5781    1534.              L     R0,LCBRHF
 00107E 5010 B094            00094  5782    1535.              ST    R1,LCBRHF
 001082 5000 1000            00000  5783    1536.              ST    R0,@R1
 001086 9200 1004      00004        5784    1537.              CLEAR (@R1+RLDFL-RLDSTART,1)        MARK AS FREE
 00108A 07F9                        5791    1538.              BR    RAR
1VLDR     (VLDR00) (09:48) (22MAR04) ORVYL'S LOADER                                                                         Page   58
0Current Usings:  (RNT,R5) (BASE+4096,R6) (BASE,R7) (LDWA,R8) (LCB,R11)
0Loc    Object Code    Addr1 Addr2  Stmt Lv Lineno    Source Statement           (Hibal 5, Asmedit 3.3)  HLASM R4.0  2004/03/22 09.48
+___    ______ ____    _____ _____  ____ __ ______    ______ _________
0                                   5793    1540.     *** MISCELLANEOUS ROUTINES ***
                                    5794    1541.     *
                                    5795    1542.     *
                                    5796    1543.     *  CLEAR RNT
                                    5797    1544.     *            - RNT IS CLEARED AT INITIALIZATION, IN END CARD PROCESSING
                                    5798    1545.     *              AND WHEN SEQUENCING ERROR IS DETECTED.
                                    5799    1546.     *            - RNT NUMBER 0 IS FOR PR CUMULATIVE LENGTH AND IS NOT
                                    5800    1547.     *              CLEARED BY THIS ROUTINE.
                                    5801    1548.     *
                                    5802    1549.     *        BAS RAR,CLRNT
                                    5803    1550.     *
 00108C                             5804    1551.     CLRNT    LABEL ,
 00108C 5820 B0A0            000A0  5806    1552.              L     SR,LCBRNT
 001090 4120 2006            00006  5807    1553.              LA    SR,@SR+L'RNT
 001094 4830 B0A4            000A4  5808    1554.              LH    TR,LCBNRNTE             NUMBER OF ENTRIES
 001098 4C30 6A9E            01AC0  5809    1555.              MH    TR,=Y(L'RNT)             * SIZE OF EACH ONE
 00109C 1B11                        5810    1556.              CLEAR R1
 00109E 0E20                        5814    1557.              MVCL  SR,R0
 0010A0 07F9                        5815    1558.              BR    RAR
                                    5816    1559.
1VLDR     (VLDR00) (09:48) (22MAR04) ORVYL'S LOADER                                                                         Page   59
0Current Usings:  (RNT,R5) (BASE+4096,R6) (BASE,R7) (LDWA,R8) (LCB,R11)
0Loc    Object Code    Addr1 Addr2  Stmt Lv Lineno    Source Statement           (Hibal 5, Asmedit 3.3)  HLASM R4.0  2004/03/22 09.48
+___    ______ ____    _____ _____  ____ __ ______    ______ _________
0                                   5818    1561.     *
                                    5819    1562.     * LOCATE RNT ENTRY
                                    5820    1563.     *
                                    5821    1564.     *        BAS RAR,RNTF  WITH (1)=ESID
                                    5822    1565.     *
                                    5823    1566.     *    RETURNS (XRNT)=L(RNT_ENTRY)
                                    5824    1567.     *
 0010A2                             5825    1568.     RNTF     LABEL ,                       ERROR UNLESS
 0010A2 1211                        5827    1569.              LTR   R1,R1                   POSITIVE.
 0010A4 47D0 609A            010BC  5828    1570.              BNP   RNTFERX                 ERROR IF
 0010A8 4910 B0A4            000A4  5829    1571.              CH    R1,LCBNRNTE             TOO
 0010AC 4720 609A            010BC  5830    1572.              BH    RNTFERX                 LARGE.
 0010B0 4C10 6A9E            01AC0  5831    1573.              MH    R1,=Y(L'RNT)            ENTRY ADDRES
 0010B4 5850 B0A0            000A0  5832    1574.              L     XRNT,LCBRNT             IN
 0010B8 1A51                        5833    1575.              AR    XRNT,R1                 RNT.
 0010BA 07F9                        5834    1576.              BR    RAR                     RETURN.
                                    5835    1577.
 0010BC                             5836    1578.     RNTFERX  LABEL ,
 0010BC 4110 6AA0            01AC2  5838    1579.              DIAG  'TOO MANY SYMBOLS IN MODULE',,EXIT,EC=8
 0010C0 4100 001A            0001A  5842             +
 0010C4 4D90 7160            00182  5844             +
1VLDR     (VLDR00) (09:48) (22MAR04) ORVYL'S LOADER                                                                         Page   60
0Current Usings:  (RNT,R5) (BASE+4096,R6) (BASE,R7) (LDWA,R8) (LCB,R11)
0Loc    Object Code    Addr1 Addr2  Stmt Lv Lineno    Source Statement           (Hibal 5, Asmedit 3.3)  HLASM R4.0  2004/03/22 09.48
+___    ______ ____    _____ _____  ____ __ ______    ______ _________
0                                   5846    1581.     *
                                    5847    1582.     * LOCATE RNT ENTRY AND CHECK USE FLAG
                                    5848    1583.     *
 0010C8                             5849    1584.     RNTFU    LABEL ,
 0010C8 1211                        5851    1585.              LTR   R1,R1
 0010CA 4740 609A            010BC  5852    1586.              BM    RNTFERX
 0010CE 4910 B0A4            000A4  5853    1587.              CH    R1,LCBNRNTE
 0010D2 4720 609A            010BC  5854    1588.              BH    RNTFERX
 0010D6 4C10 6A9E            01AC0  5855    1589.              MH    R1,=Y(L'RNT)
 0010DA 5850 B0A0            000A0  5856    1590.              L     XRNT,LCBRNT
 0010DE 1A51                        5857    1591.              AR    XRNT,R1
                                    5858    1592.              USING RNT,XRNT                ##
 0010E0 9140 5002      00002        5860    1593.              IF    ~RNTFDEL,'IF ~RNTFUSE,RNTFERX'
 0010E4 4710 60CE            010F0  5870             +
 0010E8 9180 5002      00002        5885  1          +
 0010EC 47E0 609A            010BC  5888             +
 0010F0 07F9                        5898    1594.              BR    RAR
 DROP   RNT,R5                      5899    1595.              DROP  XRNT                    ##
                                    5906    1596.
 DROP   BASE,R7                     5907    1597.              DROP  BR,BRR,WAR,LCBR         ##
 DROP   BASE+4096,R6
 DROP   LDWA,R8
 DROP   LCB,R11
1VLDR     (VLDR00) (09:48) (22MAR04) ORVYL'S LOADER                                                                         Page   61
0Loc    Object Code    Addr1 Addr2  Stmt Lv Lineno    Source Statement           (Hibal 5, Asmedit 3.3)  HLASM R4.0  2004/03/22 09.48
+___    ______ ____    _____ _____  ____ __ ______    ______ _________
0                                   5933    1599.     * ACCEPT CHANGE STATEMENTS
                                    5934    1600.     *
                                    5935    1601.     *        LCBCI = (OLDNAME,NEWNAME)
                                    5936    1602.     *
 0010F2 900E D000/188D       00000  5937    1603.     LDCHANGE VENTER R0,R14,LDWASZ
 0010F8 41D0 D054/0D70       00054  5942             +
 0010FE 9867 7992            01A90  5957    1604.              LM    BRR,BR,=A(BASE+4096,BASE)
 USING  *,R7
 DROP   *,R7                        5958    1605.              USING BASE,BR,BRR             ##
 USING  BASE,R7
 USING  BASE+4096,R6
 USING  LDWA,R8                     5978    1606.              USING LDWA,WAR                ##
 USING  LCB,R11                     5987    1607.              USING LCB,LCBR                ##
0001102 4D90 7FE2            01004  5997    1609.              LCALL GETCSD                  OBTAIN A NEW CSD
 USING  CSD,R1                      5999    1610.              USING CSD,R1                  ##
 001106 D203 1000 B0AC 00000 000AC  6008    1611.              MVC   CSDLINK,LCBCHRPH        INSERT NEW ITEM AT HEAD OF
 00110C 5010 B0AC            000AC  6009    1612.              ST    R1,LCBCHRPH             CHAIN.
 001110 D207 1004 B014 00004 00014  6010    1613.              MVC   CSDNAME,LCBCI           MOVE IN OLDNAME
 001116 D207 1010 B01C 00010 0001C  6011    1614.              MVC   CSDNAM2,LCBCI+8         AND NEW NAME
 00111C 92F0 100C      0000C        6012    1615.              MVI   CSDTYP,CSDTCHA          MARK AS CHANGE
 001120 47F0 7188            001AA  6013    1616.              B     EXIT                    BYE
 DROP   CSD,R1                      6014    1617.              DROP  R1                      ##
 DROP   BASE,R7                     6021    1618.              DROP  BR,BRR,WAR,LCBR         ##
 DROP   BASE+4096,R6
 DROP   LDWA,R8
 DROP   LCB,R11
1VLDR     (VLDR00) (09:48) (22MAR04) ORVYL'S LOADER                                                                         Page   62
0Loc    Object Code    Addr1 Addr2  Stmt Lv Lineno    Source Statement           (Hibal 5, Asmedit 3.3)  HLASM R4.0  2004/03/22 09.48
+___    ______ ____    _____ _____  ____ __ ______    ______ _________
0                                   6047    1620.     * ACCEPT PAGE STATEMENTS
                                    6048    1621.     *
                                    6049    1622.     *        LCBCI = (NAME)
                                    6050    1623.     *
 001124 900E D000/188D       00000  6051    1624.     LDPAGE   VENTER R0,R14,LDWASZ
 00112A 41D0 D054/0D70       00054  6056             +
 001130 9867 7960            01A90  6071    1625.              LM    BRR,BR,=A(BASE+4096,BASE)
 USING  *,R7
 DROP   *,R7                        6072    1626.              USING BASE,BR,BRR             ##
 USING  BASE,R7
 USING  BASE+4096,R6
 USING  LDWA,R8                     6092    1627.              USING LDWA,WAR                ##
 USING  LCB,R11                     6101    1628.              USING LCB,LCBR                ##
0001134 D507 B014 6A76 00014 01A98  6111    1630.              CLC   LCBCI(8),=CL8' '        BLANK NAME?
 00113A 4780 6154            01176  6112    1631.              BE    LDPAGNX                 PUT NEXT MODULE ON PAGE
 00113E 41C0 B088            00088  6113    1632.              LA    R12,LCBCSDH-(CSDLINK-CSD) SEARCH CSD.
 USING  CSD,R12                     6114    1633.              USING CSD,R12                 ##
 001142 18AC                        6123    1634.     LDPAGLP  LR    R10,R12
 001144 58C0 C000            00000  6124    1635.              L     R12,CSDLINK
 001148 D507 C004 B014 00004 00014  6125    1636.              CLC   CSDNAME,LCBCI
 00114E 4740 6120            01142  6126    1637.              BL    LDPAGLP
 001152 4780 614C            0116E  6127    1638.              BE    LDPAGFN                 FOUND MATCH
0                                   6129    1640.     * NO MATCH. CREATE WEAK EXTERNAL ENTRY
 001156 4D90 7FE2            01004  6130    1641.              LCALL GETCSD
 00115A 5010 A000            00000  6132    1642.              ST    R1,@R10                 INSERT IN
 00115E 50C0 1000            00000  6133    1643.              ST    R12,@R1                 CHAIN.
 001162 18C1                        6134    1644.              LR    R12,R1                  ##
 001164 D207 C004 B014 00004 00014  6135    1645.              MVC   CSDNAME,LCBCI
 00116A 920A C00C      0000C        6136    1646.              MVI   CSDTYP,ESDTWX
 00116E 9608 C014      00014        6137    1647.     LDPAGFN  SET   CSDFPAG                 SET PAGE FLAG
 001172 47F0 7188            001AA  6144    1648.              B     EXIT
                                    6145    1649.
 001176 9620 B07C      0007C        6146    1650.     LDPAGNX  SET   LCBFPAGN                PAGE NEXT CSECT
 00117A 5820 B078            00078  6153    1651.              L     SR,LCBLC                ROUND UP LC TO PAGE BOUNDARY
 00117E 4120 2FFF            00FFF  6154    1652.              LA    SR,@SR+X'FFF'
 001182 5420 6A8E            01AB0  6155    1653.              N     SR,=X'00FFF000'
 001186 5020 B078            00078  6156    1654.              ST    SR,LCBLC
 00118A 47F0 7188            001AA  6157    1655.              B     EXIT
 DROP   CSD,R12                     6158    1656.              DROP  R12                     ##
 DROP   BASE,R7                     6165    1657.              DROP  BR,BRR,WAR,LCBR         ##
 DROP   BASE+4096,R6
 DROP   LDWA,R8
 DROP   LCB,R11
1VLDR     (VLDR00) (09:48) (22MAR04) ORVYL'S LOADER                                                                         Page   63
0Loc    Object Code    Addr1 Addr2  Stmt Lv Lineno    Source Statement           (Hibal 5, Asmedit 3.3)  HLASM R4.0  2004/03/22 09.48
+___    ______ ____    _____ _____  ____ __ ______    ______ _________
0                                   6191    1659.     * ACCEPT ALIAS STATEMENTS
                                    6192    1660.     *
                                    6193    1661.     *        LCBCI = (ALIAS)
                                    6194    1662.     *
 00118E 900E D000/188D       00000  6195    1663.     LDALIAS  VENTER R0,R14,LDWASZ
 001194 41D0 D054/0D70       00054  6200             +
 00119A 9867 78F6            01A90  6215    1664.              LM    BRR,BR,=A(BASE+4096,BASE)
 USING  *,R7
 DROP   *,R7                        6216    1665.              USING BASE,BR,BRR             ##
 USING  BASE,R7
 USING  BASE+4096,R6
 USING  LDWA,R8                     6236    1666.              USING LDWA,WAR                ##
 USING  LCB,R11                     6245    1667.              USING LCB,LCBR                ##
000119E 4D90 7FE2            01004  6255    1669.              LCALL GETCSD                  OBTAIN A NEW CSD
 USING  CSD,R1                      6257    1670.              USING CSD,R1                  ##
 0011A2 D203 1000 B0B0 00000 000B0  6266    1671.              MVC   CSDLINK,LCBALIH         INSERT NEW ITEM AT HEAD OF
 0011A8 5010 B0B0            000B0  6267    1672.              ST    R1,LCBALIH              ALIAS CHAIN.
 0011AC D207 1004 B014 00004 00014  6268    1673.              MVC   CSDNAME,LCBCI           MOVE IN ALIAS
 0011B2 47F0 7188            001AA  6269    1674.              B     EXIT                    BYE
 DROP   CSD,R1                      6270    1675.              DROP  R1                      ##
 DROP   BASE,R7                     6277    1676.              DROP  BR,BRR,WAR,LCBR         ##
 DROP   BASE+4096,R6
 DROP   LDWA,R8
 DROP   LCB,R11
1VLDR     (VLDR00) (09:48) (22MAR04) ORVYL'S LOADER                                                                         Page   64
0Loc    Object Code    Addr1 Addr2  Stmt Lv Lineno    Source Statement           (Hibal 5, Asmedit 3.3)  HLASM R4.0  2004/03/22 09.48
+___    ______ ____    _____ _____  ____ __ ______    ______ _________
0                                   6303    1678.     * ACCEPT REPLACE STATEMENTS
                                    6304    1679.     *
                                    6305    1680.     *        LCBCI = (OLDNAME,NEWNAME)
                                    6306    1681.     *
 0011B6 900E D000/188D       00000  6307    1682.     LDREPDEL VENTER R0,R14,LDWASZ
 0011BC 41D0 D054/0D70       00054  6312             +
 0011C2 9867 78CE            01A90  6327    1683.              LM    BRR,BR,=A(BASE+4096,BASE)
 USING  *,R7
 DROP   *,R7                        6328    1684.              USING BASE,BR,BRR             ##
 USING  BASE,R7
 USING  BASE+4096,R6
 USING  LDWA,R8                     6348    1685.              USING LDWA,WAR                ##
 USING  LCB,R11                     6357    1686.              USING LCB,LCBR                ##
00011C6 4D90 7FE2            01004  6367    1688.              LCALL GETCSD                  OBTAIN A NEW CSD
 USING  CSD,R1                      6369    1689.              USING CSD,R1                  ##
 0011CA D203 1000 B0AC 00000 000AC  6378    1690.              MVC   CSDLINK,LCBCHRPH        INSERT NEW ITEM AT HEAD OF
 0011D0 5010 B0AC            000AC  6379    1691.              ST    R1,LCBCHRPH             CHA/REP CHAIN.
 0011D4 D207 1004 B014 00004 00014  6380    1692.              MVC   CSDNAME,LCBCI           MOVE IN OLDNAME
 0011DA D207 1010 B01C 00010 0001C  6381    1693.              MVC   CSDNAM2,LCBCI+8         AND NEW NAME
 0011E0 92E0 100C      0000C        6382    1694.              MVI   CSDTYP,CSDTREP          MARK AS REPLACE
 0011E4 D507 1010 6A76 00010 01A98  6383    1695.              CLC   CSDNAM2,=CL8' '         ANY NEWNAME?
 0011EA 4770 7188            001AA  6384    1696.              BNE   EXIT                    YES
 0011EE 92D0 100C      0000C        6385    1697.              MVI   CSDTYP,CSDTDEL          ELSE MARK AS DELETE
 0011F2 D207 1010 1004 00010 00004  6386    1698.              MVC   CSDNAM2,CSDNAME         OLD AND NEW ARE SAME
 0011F8 47F0 7188            001AA  6387    1699.              B     EXIT                    BYE
 DROP   CSD,R1                      6388    1700.              DROP  R1                      ##
 DROP   BASE,R7                     6395    1701.              DROP  BR,BRR,WAR,LCBR         ##
 DROP   BASE+4096,R6
 DROP   LDWA,R8
 DROP   LCB,R11
1VLDR     (VLDR00) (09:48) (22MAR04) ORVYL'S LOADER                                                                         Page   65
0Loc    Object Code    Addr1 Addr2  Stmt Lv Lineno    Source Statement           (Hibal 5, Asmedit 3.3)  HLASM R4.0  2004/03/22 09.48
+___    ______ ____    _____ _____  ____ __ ______    ______ _________
0                                   6421    1703.     *  PREPARE FOR EXECUTION
                                    6422    1704.     *
                                    6423    1705.     *
 0011FC 900E D000/188D       00000  6424    1706.     LDFIX    VENTER R0,R14,LDWASZ
 001202 41D0 D054/0D70       00054  6429             +
 001208 9867 7888            01A90  6444    1707.              LM    BRR,BR,=A(BASE+4096,BASE)
 USING  *,R7
 DROP   *,R7                        6445    1708.              USING BASE,BR,BRR             ##
 USING  BASE,R7
 USING  BASE+4096,R6
 USING  LDWA,R8                     6465    1709.              USING LDWA,WAR                ##
 USING  LCB,R11                     6474    1710.              USING LCB,LCBR                ##
000120C 910C B07C      0007C        6484    1712.              IF    (LCBFMI+LCBFMO,Z),FIXCOM
 001210 4780 61F6            01218  6501             +
 001214 4DF0 7130            00152  6507    1713.              BAS   R15,PROCERR
 001218 FA20 B07D 6AE2 0007D 01B04  6508    1714.     FIXCOM   AP    LCBSEQ,=P'0'            WAS LAST CARD END CARD?
 00121E 4780 6204            01226  6509    1715.              BZ    CLRPRLNG
 001222 4DF0 7130            00152  6510    1716.              BAS   R15,PROCERR
 001226                             6511    1717.     CLRPRLNG LABEL ,
 001226                             6513    1718.              CLEAR LDWPRCL                 CLEAR PR CUMULATIVE LENGTH
 001226 D703 8040 8040 00040 00040  6519             +
 00122C 41C0 B088            00088  6520    1719.              LA    R12,LCBCSDH             PICK UP CHAIN
 001230 47F0 62DC            012FE  6521    1720.              B     LDFLOOP                 JUMP INTO LOOP
 USING  CSD,R12                     6522    1721.              USING CSD,R12                 ##
 001234 950A C00C      0000C        6531    1722.     LFA      CLI   CSDTYP,HIESDTYP         IS TYPE LEGAL?
 001238 4720 62DC            012FE  6532    1723.              BH    LDFLOOP                 NO; SKIP
 00123C 1F11/4310 C00C       0000C  6533    1724.              LC    R1,CSDTYP
 001242 1A11                        6540    1725.              AR    R1,R1
 001244 1A11                        6541    1726.              AR    R1,R1
 001246 47F1 6228            0124A  6542    1727.              B     *+4(R1)
 00124A 47F0 62DC            012FE  6543    1728.              B     LDFLOOP                 SD
 00124E 4DF0 7130            00152  6544    1729.              BAS   R15,PROCERR             LD
 001252 47F0 62DC            012FE  6545    1730.              B     LDFLOOP                 ER
 001256 47F0 6254            01276  6546    1731.              B     LDFLR                   LR
 00125A 47F0 62DC            012FE  6547    1732.              B     LDFLOOP                 PC
 00125E 47F0 62C8            012EA  6548    1733.              B     LDFCM                   CM
 001262 47F0 6292            012B4  6549    1734.              B     LDFPR                   PR
 001266 47F0 62DC            012FE  6550    1735.              B     LDFLOOP                 NL
 00126A 47F0 62DC            012FE  6551    1736.              B     LDFLOOP                 NEVER
 00126E 47F0 62DC            012FE  6552    1737.              B     LDFLOOP                 NEVER
 001272 47F0 62DC            012FE  6553    1738.              B     LDFLOOP                 WX
1VLDR     (VLDR00) (09:48) (22MAR04) ORVYL'S LOADER                                                                         Page   66
0Current Usings:  (BASE+4096,R6) (BASE,R7) (LDWA,R8) (LCB,R11) (CSD,R12)
0Loc    Object Code    Addr1 Addr2  Stmt Lv Lineno    Source Statement           (Hibal 5, Asmedit 3.3)  HLASM R4.0  2004/03/22 09.48
+___    ______ ____    _____ _____  ____ __ ______    ______ _________
0                                   6555    1740.     * FIX UP LR'S IF LOAD MODULE HAS BEEN COMPRESSED
                                    6556    1741.     *
 001276 9104 B07C      0007C        6557    1742.     LDFLR    IF    ~LCBFMO,LDFLOOP         LOAD MODULE OUTPUT?
 00127A 47E0 62DC            012FE  6570             +
 00127E 4810 C016            00016  6576    1743.              LH    R1,CSDSDID              ID OF CONTAINING CSECT
 001282 4D90 6080            010A2  6577    1744.              LCALL RNTF                    RNT
 USING  RNT,R5                      6579    1745.              USING RNT,XRNT                ##
 001286 9184 5002      00002        6588    1746.              IF    (RNTFSD+RNTFUSE,NO),LDFLRER       ACTIVE SD?
 00128A 47E0 6286            012A8  6605             +
 00128E 1F11/BF17 5003       00003  6611    1747.              L3    R1,RNTDLNK
 001294 1211                        6619    1748.              LTR   R1,R1                   ANY FIX UP?
 001296 4780 62DC            012FE  6620    1749.              BZ    LDFLOOP
 00129A 5820 C00C            0000C  6621    1750.              L     SR,CSDADDR
 00129E 1F21                        6622    1751.              SLR   SR,1
 0012A0 5020 C00C            0000C  6623    1752.              ST    SR,CSDADDR
 0012A4 47F0 62DC            012FE  6624    1753.              B     LDFLOOP
                                    6625    1754.
 0012A8                             6626    1755.     LDFLRER  LABEL ,                       CSECT HAS BEEN DELETED.
 0012A8 94BF C014      00014        6628    1756.              CLEAR CSDFDEF                 UNDEFINED
 0012AC 9202 C00C      0000C        6635    1757.              MVI   CSDTYP,ESDTER
 0012B0 47F0 62DC            012FE  6636    1758.              B     LDFLOOP
 DROP   RNT,R5                      6637    1759.              DROP  XRNT                    ##
-
 0012B4                             6645    1761.     LDFPR    LABEL ,
 0012B4 9180 C014      00014        6647    1762.              IF    CSDFPRCL,BEGIN          CUMULATIVE LENGTH PR?
 0012B8 47E0 62A4            012C6  6657             +
 0012BC D202 C015 8041 00015 00041  6662  1 1763.                MVC   CSDREL+1(3),LDWPRCL+1   PUT CUMULATIVE LENGTH IN CSD
 0012C2 47F0 62DC            012FE  6663  1 1764.                B     LDFLOOP                 PROCESS CHAIN
 0012C6                             6664    1765.              END   ,
                                    6668    1766.     * NOTE: THE PR CUMULATIVE LENGTH IS ASSUMED TO BE THE LAST ON
                                    6669    1767.     * THE CSD CHAIN SO THAT THE CUMULATIVE LENGTH HAS BEEN CALCULATED
                                    6670    1768.     * IN THIS FIX PASS.
                                    6671    1769.     *
 0012C6 1F11/4310 C010       00010  6672    1770.              LC    R1,CSDLNG               ALIGN CUMULATIVE LENGTH
 0012CC 5800 8040            00040  6679    1771.              L     R0,LDWPRCL              CURRENT LENGTH
 0012D0 1A01                        6680    1772.              AR    R0,R1                   R1= (2**N-1) FOR THIS
 0012D2 1601                        6681    1773.              OR    R0,R1                   NEAT ALGORITHM
 0012D4 1710                        6682    1774.              XR    R1,R0                   TO WORK.
 0012D6 BE17 C00D            0000D  6683    1775.              ST3   R1,CSDADDR+1            ALIGNED LENGTH IS PR VALUE
 0012DA 5A10 C010            00010  6685    1776.              A     R1,CSDLNG               DEVELOP NEW CUM LENGTH
 0012DE 5010 8040            00040  6686    1777.              ST    R1,LDWPRCL
 0012E2 9640 C014      00014        6687    1778.              SET   CSDFDEF
 0012E6 47F0 62DC            012FE  6693    1779.              B     LDFLOOP                 PROCESS RLD CHAIN
-
 0012EA                             6695    1781.     LDFCM    LABEL ,                       COMMON
 0012EA 181C                        6697    1782.              LR    R1,R12                  GET CSD POINTER
 0012EC 4D90 7F58            00F7A  6698    1783.              LCALL GETSD                   GET SPACE
 0012F0 BE17 C00D            0000D  6700    1784.              ST3   R1,CSDADDR+1            PLANT LOC. OF SECTION
 0012F4 9640 C014      00014        6702    1785.              SET   CSDFDEF                 SET DEFINED
 0012F8 181C                        6708    1786.              LR    R1,R12
1VLDR     (VLDR00) (09:48) (22MAR04) ORVYL'S LOADER                                                                         Page   67
0Current Usings:  (BASE+4096,R6) (BASE,R7) (LDWA,R8) (LCB,R11) (CSD,R12)
0Loc    Object Code    Addr1 Addr2  Stmt Lv Lineno    Source Statement           (Hibal 5, Asmedit 3.3)  HLASM R4.0  2004/03/22 09.48
+___    ______ ____    _____ _____  ____ __ ______    ______ _________
00012FA 4D90 7FA4            00FC6  6709    1787.              LCALL SAVESD                  PUT ID IN CSECT TABLE
                                    6711    1788.
 0012FE                             6712    1789.     LDFLOOP  LABEL ,
 0012FE 58C0 C000            00000  6714    1790.              L     R12,CSDLINK             LOOP THRU CSD ARRAY
 001302 1B33                        6715    1791.              CLEAR TR                      GET A ZERO
 001304 5930 C000            00000  6719    1792.              C     TR,CSDLINK              IS THIS LAST ENTRY?
 001308 4770 6212            01234  6720    1793.              BNE   LFA                     NO
-
 00130C D202 C00D 8041 0000D 00041  6722    1795.              MVC   CSDADDR+1(3),LDWPRCL+1
 001312 9640 C014      00014        6723    1796.              SET   CSDFDEF
 DROP   CSD,R12                     6729    1797.              DROP  R12                     ##
                                    6736    1798.     * RELOCATE RLDS
 001316                             6737    1799.              CLEAR (LDWP,2)                INITIALIZE
 001316 D701 8046 8046 00046 00046  6743             +
 00131C 58F0 B098            00098  6744    1800.              L     R15,LCBRLD              START OF RLDS
 USING  RLD,R15                     6745    1801.              USING RLD,R15                 ##
 001320 4BF0 6A9C            01ABE  6754    1802.     LDFRLD   SH    R15,=Y(L'RLD)           NEXT RLD
 001324 55F0 B090            00090  6755    1803.              CL    R15,LCBRLDLC            BELOW LOWEST?
 001328 4740 7188            001AA  6756    1804.              BL    EXIT
 00132C 9500 F004      00004        6757    1805.              CLI   RLDFL,0                 FREE?
 001330 4780 62FE            01320  6758    1806.              BE    LDFRLD                  YES
 001334 4810 F000            00000  6759    1807.              LH    R1,RLDR                 R-CSDID(LOCATION OF ADCON)
 001338 4C10 6A96            01AB8  6760    1808.              MH    R1,=Y(L'CSD)
 00133C 5E10 B008            00008  6761    1809.              AL    R1,LCBCSD
 USING  CSD,R1                      6762    1810.              USING CSD,R1                  ##
 001340 9140 1014      00014        6771    1811.              IF    (CSDFDEF,OR,LCBFMO),BEGIN  DEFINED
 001344 4710 632E            01350  6785             +
 001348 9104 B07C      0007C        6794             +
 00134C 47E0 6336            01358  6795             +
 001350 4D90 7E28            00E4A  6800  1 1812.                LCALL RELOC
 001354 947F F004      00004        6802  1 1813.                CLEAR RLDFABS                 RLD RELOCATED
 001358                             6809    1814.              END    ,
 001358 47F0 62FE            01320  6813    1815.              B     LDFRLD
                                    6814    1816.
 DROP   CSD,R1                      6815    1817.              DROP  R1,R15                  ##
 DROP   RLD,R15
 DROP   BASE,R7                     6828    1818.              DROP  BR,BRR,WAR,LCBR         ##
 DROP   BASE+4096,R6
 DROP   LDWA,R8
 DROP   LCB,R11
1VLDR     (VLDR00) (09:48) (22MAR04) ORVYL'S LOADER                                                                         Page   68
0Loc    Object Code    Addr1 Addr2  Stmt Lv Lineno    Source Statement           (Hibal 5, Asmedit 3.3)  HLASM R4.0  2004/03/22 09.48
+___    ______ ____    _____ _____  ____ __ ______    ______ _________
0                                   6854    1820.     * COMPRESS FOR LOAD MODULE OUTPUT
                                    6855    1821.     * AND PERFORM FIX PASS FOR MODULE OUTPUT
                                    6856    1822.     *
 00135C 900E D000/188D       00000  6857    1823.     LDMOINIT VENTER R0,R14,LDWASZ
 001362 41D0 D054/0D70       00054  6862             +
 001368 9867 7728            01A90  6877    1824.              LM    BRR,BR,=A(BASE+4096,BASE)
 USING  *,R7
 DROP   *,R7                        6878    1825.              USING BASE,BR,BRR             ##
 USING  BASE,R7
 USING  BASE+4096,R6
 USING  LDWA,R8                     6898    1826.              USING LDWA,WAR                ##
 USING  LCB,R11                     6907    1827.              USING LCB,LCBR                ##
-                                   6918    1830.     * SORT LIST OF CSECTS
                                    6919    1831.     *
 00136C 5800 B008            00008  6920    1832.              L     R0,LCBCSD               CSD LIST BASE
 001370 5810 B098            00098  6921    1833.              L     R1,LCBSD                ADDR OF FIRST SDID
 001374 5840 B09C            0009C  6922    1834.              L     QR,LCBSDLC              SD LIST END
 001378 1914                        6923    1835.              CR    R1,QR                   ANY CSECTS?
 00137A 4780 6448            0146A  6924    1836.              BE    LMONULL                 NO
 00137E 41F0 1002            00002  6925    1837.     MOFLP1   LA    R15,@R1+2               SECOND SDID
 001382 19F4                        6926    1838.              CR    R15,QR                  ONLY ONE?
 001384 4780 63C2            013E4  6927    1839.              BE    MOFSRTD                 SORTED
 001388 4820 1000            00000  6928    1840.              LH    SR,@R1                  SDID-A
 00138C 1832                        6929    1841.              LR    TR,SR
 00138E 4C30 6A96            01AB8  6930    1842.              MH    TR,=Y(L'CSD)
 001392 1A30                        6931    1843.              AR    TR,R0                   CSD-A
                                    6932    1844.
 001394 48E0 F000            00000  6933    1845.     MOFLP2   LH    R14,@R15                SDID-B
 001398 18CE                        6934    1846.              LR    R12,R14
 00139A 4CC0 6A96            01AB8  6935    1847.              MH    R12,=Y(L'CSD)
 00139E 1AC0                        6936    1848.              AR    R12,R0                  CSD-B
                                    6937    1849.
 0013A0 D502 C00D 300D 0000D 0000D  6938    1850.              CLC   @R12+CSDADDR+1-CSD(3),@TR+CSDADDR+1-CSD
 0013A6 4720 63B0            013D2  6939    1851.              BH    CSCTALTB                A LESS THAN B
 0013AA 4770 63A4            013C6  6940    1852.              BNE   CSCDFADR
                                    6941    1853.     * CSECTS AT SAME ADDRESS. IS ONE ZERO LENGTH?
                                    6942    1854.     *
 0013AE D603 3010 3010 00010 00010  6943    1855.              OC    @TR+CSDLNG-CSD(4),@TR+CSDLNG-CSD IS A ZERO?
 0013B4 4780 63B0            013D2  6944    1856.              BZ    CSCTALTB                YES, DON'T SWITCH
 0013B8 D603 C010 C010 00010 00010  6945    1857.              OC    @R12+CSDLNG-CSD(4),@R12+CSDLNG-CSD IS B ZERO?
 0013BE 4780 63A4            013C6  6946    1858.              BZ    CSCDFADR
 0013C2 4DF0 7130            00152  6947    1859.              BAS   R15,PROCERR
 0013C6                             6948    1860.     CSCDFADR LABEL ,                      CSECTS DIFFERENT ADDR
                                    6950    1861.
 0013C6 4020 F000            00000  6951    1862.              STH   SR,@R15                 SDID-A INTO SLOT B
 0013CA 40E0 1000            00000  6952    1863.              STH   R14,@R1                 AND SDID-B INTO SLOT A
 0013CE 182E                        6953    1864.              LR    SR,R14                  SAVE SDID-A
 0013D0 183C                        6954    1865.              LR    TR,R12                  AND CSD-A
                                    6955    1866.
 0013D2                             6956    1867.     CSCTALTB LABEL ,
 0013D2 41F0 F002            00002  6958    1868.              LA    R15,@R15+2              NEXT B
 0013D6 19F4                        6959    1869.              CR    R15,QR                  LAST?
 0013D8 4770 6372            01394  6960    1870.              BNE   MOFLP2
                                    6961    1871.
1VLDR     (VLDR00) (09:48) (22MAR04) ORVYL'S LOADER                                                                         Page   69
0Current Usings:  (BASE+4096,R6) (BASE,R7) (LDWA,R8) (LCB,R11)
0Loc    Object Code    Addr1 Addr2  Stmt Lv Lineno    Source Statement           (Hibal 5, Asmedit 3.3)  HLASM R4.0  2004/03/22 09.48
+___    ______ ____    _____ _____  ____ __ ______    ______ _________
00013DC 4110 1002            00002  6962    1872.              LA    R1,@R1+2                NEXT A
 0013E0 47F0 635C            0137E  6963    1873.              B     MOFLP1
1VLDR     (VLDR00) (09:48) (22MAR04) ORVYL'S LOADER                                                                         Page   70
0Current Usings:  (BASE+4096,R6) (BASE,R7) (LDWA,R8) (LCB,R11)
0Loc    Object Code    Addr1 Addr2  Stmt Lv Lineno    Source Statement           (Hibal 5, Asmedit 3.3)  HLASM R4.0  2004/03/22 09.48
+___    ______ ____    _____ _____  ____ __ ______    ______ _________
0                                   6965    1875.     * COMPRESS ALL CSECTS. PLACE DISPLACEMENTS IN RNT.
                                    6966    1876.     *
 0013E4                             6967    1877.     MOFSRTD  LABEL ,
 0013E4 1BEE                        6969    1878.              CLEAR R14                     MEMORY START ADDRESS
 0013E6 58F0 B098            00098  6973    1879.              L     R15,LCBSD               SDID ARRAY
                                    6974    1880.
 0013EA 48C0 F000            00000  6975    1881.     MOFCLP   LH    R12,@R15                COMPRESS NEXT SD
 0013EE 181C                        6976    1882.              LR    R1,R12                  SAVE SDID
 0013F0 4CC0 6A96            01AB8  6977    1883.              MH    R12,=Y(L'CSD)
 0013F4 5EC0 B008            00008  6978    1884.              AL    R12,LCBCSD
 USING  CSD,R12                     6979    1885.              USING CSD,R12                 ##
 0013F8 9108 C014      00014        6988    1886.              IF    CSDFPAG,BEGIN          MODULE ON PAGE BOUNDARY
 0013FC 47E0 63E6            01408  6998             +
 001400 41E0 EFFF            00FFF  7003  1 1887.                LA    R14,@R14+X'FFF'         ROUND UP LC
 001404 54E0 6A8E            01AB0  7004  1 1888.                N     R14,=X'00FFF000'        TO PAGE BOUNDARY
 001408                             7005    1889.              END   ,
 001408 1F22/BF27 C00D       0000D  7009    1890.              L3    SR,CSDADDR+1            CURRENT LOCATION
 00140E 4D90 6080            010A2  7017    1891.              LCALL RNTF                    GET RTN ENTRY
 USING  RNT,R5                      7019    1892.              USING RNT,XRNT                ##
 001412 1812                        7028    1893.              LR    R1,SR                   OLD ADDR
 001414 1B1E                        7029    1894.              SR    R1,R14                  SHIFT LENGTH
 001416 47B0 63FC            0141E  7030    1895.              BNM   NOVERLAP
 00141A 4DF0 7130            00152  7031    1896.              BAS   R15,PROCERR
 00141E                             7032    1897.     NOVERLAP LABEL ,
 00141E 4780 6418            0143A  7034    1898.              BZ    MODSHFTD
 001422 BE17 5003            00003  7035    1899.              ST3   R1,RNTDLNK
 001426 BEE7 C00D            0000D  7037    1900.              ST3   R14,CSDADDR+1           NEW LOCATION
 00142A 5810 C010            00010  7039    1901.              L     R1,CSDLNG               MODULE LENGTH
 00142E 1831                        7040    1902.              LR    TR,R1                   FOR MVCL
 001430 5800 B000            00000  7041    1903.              L     R0,LCBCORE              RELOCATION VALUE
 001434 1E20                        7042    1904.              ALR   SR,R0                   SOURCE PTR
 001436 1E0E                        7043    1905.              ALR   R0,R14                  DESTINATION
 001438 0E02                        7044    1906.              MVCL  R0,SR
 00143A                             7045    1907.     MODSHFTD LABEL ,
 00143A 9684 5002      00002        7047    1908.              SET   RNTFSD+RNTFUSE          MARK AS ACTIVE SD
 DROP   RNT,R5                      7056    1909.              DROP  XRNT
 00143E 5EE0 C010            00010  7063    1910.              AL    R14,CSDLNG              NEXT MODULE START
 001442 41F0 F002            00002  7064    1911.              LA    R15,@R15+2              NEXT SDID
 001446 19F4                        7065    1912.              CR    R15,QR                  LAST?
 001448 4770 63C8            013EA  7066    1913.              BNE   MOFCLP
 00144C 50E0 B078            00078  7067    1914.              ST    R14,LCBLC               NEW MODULE COUNTER
 001450 1BCC                        7068    1915.              CLEAR R12
 001452 50C0 B0C0            000C0  7072    1916.              ST    R12,LCBMOCSD
 001456 D203 B0CC B098 000CC 00098  7073    1917.              MVC   LCBMOSD,LCBSD           FIRST SD FOR ESD OUTPUT
 00145C D201 B0D2 6ABA 000D2 01ADC  7074    1918.              MVC   LCBMOID,=Y(1)           FIRST OUTPUT ESD ID
 001462 9604 B07C      0007C        7075    1919.              SET   LCBFMO                  OUTPUT INITIALIZED
 001466 47F0 61F6            01218  7081    1920.              B     FIXCOM                  JOIN CSD SCAN
 DROP   CSD,R12                     7082    1921.              DROP  R12                     ##
0                                   7090    1923.
 00146A 4110 6AE3            01B05  7091    1924.     LMONULL  DIAG 'NO PROGRAM LOADED',,EXIT,EC=4
 00146E 4100 0011            00011  7095             +
 001472 4D90 7168            0018A  7097             +
 DROP   BASE,R7                     7098    1925.              DROP  BR,BRR,WAR,LCBR         ##
1VLDR     (VLDR00) (09:48) (22MAR04) ORVYL'S LOADER                                                                         Page   71
0Loc    Object Code    Addr1 Addr2  Stmt Lv Lineno    Source Statement           (Hibal 5, Asmedit 3.3)  HLASM R4.0  2004/03/22 09.48
+___    ______ ____    _____ _____  ____ __ ______    ______ _________
0DROP   BASE+4096,R6
 DROP   LDWA,R8
 DROP   LCB,R11
1VLDR     (VLDR00) (09:48) (22MAR04) ORVYL'S LOADER                                                                         Page   72
0Loc    Object Code    Addr1 Addr2  Stmt Lv Lineno    Source Statement           (Hibal 5, Asmedit 3.3)  HLASM R4.0  2004/03/22 09.48
+___    ______ ____    _____ _____  ____ __ ______    ______ _________
0                                   7124    1927.     * CONSTRUCT A LOAD MODULE OUTPUT RECORD
                                    7125    1928.     *
 001476 900E D000/188D       00000  7126    1929.     LDMOGO   VENTER R0,R14,LDWASZ
 00147C 41D0 D054/0D70       00054  7131             +
 001482 9867 760E            01A90  7146    1930.              LM    BRR,BR,=A(BASE+4096,BASE)
 USING  *,R7
 DROP   *,R7                        7147    1931.              USING BASE,BR,BRR             ##
 USING  BASE,R7
 USING  BASE+4096,R6
 USING  LDWA,R8                     7167    1932.              USING LDWA,WAR                ##
 USING  LCB,R11                     7176    1933.              USING LCB,LCBR                ##
0001486 9104 B07C      0007C        7186    1935.              IF    LCBFMO,OUTINIT          OUTPUT INITIALIZED?
 00148A 4710 6470            01492  7198             +
 00148E 4DF0 7130            00152  7204    1936.              BAS   R15,PROCERR
 001492                             7205    1937.     OUTINIT  LABEL ,
 001492 18F0                        7207    1938.              LR    R15,R0                  MAX BLOCK LENGTH
 001494 41F1 F000            00000  7208    1939.              LA    R15,@R15(R1)            BUFFER END
 001498 41E0 1000            00000  7209    1940.              LA    R14,@R1                 START OF FIRST RECORD
 USING  MRC,R14                     7210    1941.              USING MRC,R14                 ##
000149C 9180 B0E2      000E2        7220    1943.              IF    LCBMFCSD,LMOIDRGO       FINISHED CSD?
 0014A0 4710 65E8            0160A  7232             +
                                    7238    1944.     * ESD RECORDS
                                    7239    1945.     *        - PROCESS IN ORDER OF CSECTS, ATTACHING ALL LR'S
                                    7240    1946.     *          TO THEIR CONTAINING CSECTS
                                    7241    1947.     *        - THEN OUTPUT ER'S LAST
                                    7242    1948.     *
00014A4 48A0 B0D2            000D2  7244    1950.              LH    R10,LCBMOID             NEXT OUTPUT ID
 0014A8 58C0 B0C0            000C0  7245    1951.              L     R12,LCBMOCSD            CSD SCAN POINTER
 USING  CSD,R12                     7246    1952.              USING CSD,R12                 ##
00014AC 5850 B0C4            000C4  7256    1954.              L     XRNT,LCBMORNT           RNT SCAN POINTER
 USING  RNT,R5                      7257    1955.              USING RNT,XRNT                ##
00014B0 4120 E008            00008  7267    1957.     LMOESD   LA    SR,MRESD                START OF ESD DATA
 USING  ESD,R2                      7268    1958.              USING ESD,SR                  ##
 0014B4 4130 2010            00010  7277    1959.              LA    TR,ESDNXT               END OF FIRST ESD ITEM
 0014B8 193F                        7278    1960.              CR    TR,15                   WILL ONE FIT?
 0014BA 4720 65B4            015D6  7279    1961.              BH    LMOEOBES                NO
-0014BE                             7281    1963.              CLEAR (MRC,MRESD-MRC)
 0014BE D707 E000 E000 00000 00000  7287             +
 0014C4 9220 E000      00000        7288    1964.              MVI   MRID,MRESDID            START ESD RECORD
 0014C8 40A0 E004            00004  7289    1965.              STH   R10,MRESID              FIRST ID IN RECORD
 0014CC 4130 E0F8            000F8  7290    1966.              LA    TR,MRESD+L'MRESD        MAX RECORD LENGTH
 0014D0 193F                        7291    1967.              CR    TR,15                   WILL IT FIT
 0014D2 47D0 64B6/183F       014D8  7292    1968.              IF    GT,'LR TR,R15'          DON'T BE FUSSY
 0014D8 4B30 6ABC            01ADE  7309    1969.              SH    TR,=Y(L'ESD)            RECORD END WARNING
0                                   7311    1971.     * CSD TO ESD ITEM LOOP
                                    7312    1972.     *
 0014DC 5840 B0CC            000CC  7313    1973.              L     QR,LCBMOSD              CURRENT SD
 0014E0 5940 B09C            0009C  7314    1974.              C     QR,LCBSDLC              LAST SD?
1VLDR     (VLDR00) (09:48) (22MAR04) ORVYL'S LOADER                                                                         Page   73
0Current Usings:  (ESD,R2) (RNT,R5) (BASE+4096,R6) (BASE,R7) (LDWA,R8) (LCB,R11) (CSD,R12) (MRC,R14)
0Loc    Object Code    Addr1 Addr2  Stmt Lv Lineno    Source Statement           (Hibal 5, Asmedit 3.3)  HLASM R4.0  2004/03/22 09.48
+___    ______ ____    _____ _____  ____ __ ______    ______ _________
00014E4 47B0 6548            0156A  7315    1975.              BNL   LMOESER                 START ER OUTPUT
 0014E8 12CC                        7316    1976.     LMOCSDGO LTR   R12,R12                 CONTINUE LR SCAN?
 0014EA 4770 64F4            01516  7317    1977.              BNZ   CNTLRSCN                YES
 0014EE 48C0 4000            00000  7318    1978.              LH    R12,@QR                 NEXT SD ID
 0014F2 181C                        7319    1979.              LR    R1,R12                  FOR RNT LOOKUP
 0014F4 4D90 6080            010A2  7320    1980.              LCALL RNTF                    SETS XRNT
 0014F8 4CC0 6A96            01AB8  7322    1981.              MH    R12,=Y(L'CSD)
 0014FC 5EC0 B008            00008  7323    1982.              AL    R12,LCBCSD
 001500 40A0 B0E0            000E0  7324    1983.              STH   R10,LCBMOSID            ID OF SD FOR LR'S
 001504 4D90 65CC            015EE  7325    1984.              LCALL CSDTOESD
 001508 58C0 B008            00008  7327    1985.              L     R12,LCBCSD              SCAN FOR LR'S
 00150C 5850 B0A0            000A0  7328    1986.              L     XRNT,LCBRNT             FIRST RNT
 001510 1923                        7329    1987.              CR    SR,TR                   END OF RECORD?
 001512 4720 658E            015B0  7330    1988.              BH    LMOEOR
0001516                             7332    1990.     CNTLRSCN LABEL ,
 001516 9503 C00C      0000C        7334    1991.              CLI   CSDTYP,ESDTLR
 00151A 4770 6510            01532  7335    1992.              IF    EQ,BEGIN
 00151E D501 4000 C016 00000 00016  7346  1 1993.                CLC   @QR(2),CSDSDID          CONTAINED IN CURRENT SD?
 001524 4770 6510            01532  7347  1 1994.                IF    EQ,BEGIN
 001528 D201 C012 B0E0 00012 000E0  7358  2 1995.                  MVC   CSDNAME+(ESDSDID-ESD)(2),LCBMOSID POINT LR AT SD
 00152E 4D90 65CC            015EE  7359  2 1996.                  LCALL CSDTOESD
 001532                             7361  1 1997.                END  ,
 001532                             7365    1998.              END   ,
 001532 41C0 C018            00018  7369    1999.              LA    R12,CSDNXT
 001536 4150 5006            00006  7370    2000.              LA    XRNT,RNTNXT
 00153A 59C0 B08C            0008C  7371    2001.              C     R12,LCBCSDLC            END OF CSD'S
 00153E 4740 653E            01560  7372    2002.              BL    LMDCSDND
 001542 1BCC                        7373    2003.              CLEAR R12                     NEXT SD, RESTART CSD SCAN
 001544 4140 4002            00002  7377    2004.              LA    QR,@QR+2                NEXT SDID
 001548 5040 B0CC            000CC  7378    2005.              ST    QR,LCBMOSD
 00154C 5940 B09C            0009C  7379    2006.              C     QR,LCBSDLC
 001550 4740 653E            01560  7380    2007.              BL    LMDCSDND
 001554 58C0 B008            00008  7381    2008.              L     R12,LCBCSD
 001558 5850 B0A0            000A0  7382    2009.              L     XRNT,LCBRNT
 00155C 47F0 6548            0156A  7383    2010.              B     LMOESER
 001560                             7384    2011.     LMDCSDND LABEL ,
 001560 1923                        7386    2012.              CR    SR,TR                   END OF RECORD?
 001562 47D0 64C6            014E8  7387    2013.              BNH   LMOCSDGO                NO, NEXT ESD/CSD
 001566 47F0 658E            015B0  7388    2014.              B     LMOEOR                  END OF RECORD
                                    7389    2015.     * ER OUTPUT
                                    7390    2016.     *
 00156A 12CC                        7391    2017.     LMOESER  LTR   R12,R12                 ANY MORE CSD'S
 00156C 4780 65AC            015CE  7392    2018.              BZ    LMOESEND                NO
 001570 1923                        7393    2019.              CR    SR,TR                   FULL RECORD?
 001572 4720 658E            015B0  7394    2020.              BH    LMOEOR
 001576 9502 C00C      0000C        7395    2021.              CLI   CSDTYP,ESDTER
 00157A 4780 6574            01596  7396    2022.              BE    LMDESE1                 ER
 00157E 950A C00C      0000C        7397    2023.              CLI   CSDTYP,ESDTWX
 001582 4780 6574            01596  7398    2024.              BE    LMDESE1                 WX
 001586 9506 C00C      0000C        7399    2025.              CLI   CSDTYP,ESDTPR           PR?
 00158A 4770 6578            0159A  7400    2026.              BNE   LMDESE2                 NONE OF ABOVE
 00158E 9180 C014      00014        7401    2027.              IF    CSDFPRCL,LMDESE2        CUMULATIVE LENGTH PR?
 001592 4710 6578            0159A  7413             +
1VLDR     (VLDR00) (09:48) (22MAR04) ORVYL'S LOADER                                                                         Page   74
0Current Usings:  (ESD,R2) (RNT,R5) (BASE+4096,R6) (BASE,R7) (LDWA,R8) (LCB,R11) (CSD,R12) (MRC,R14)
0Loc    Object Code    Addr1 Addr2  Stmt Lv Lineno    Source Statement           (Hibal 5, Asmedit 3.3)  HLASM R4.0  2004/03/22 09.48
+___    ______ ____    _____ _____  ____ __ ______    ______ _________
0001596                             7419    2028.     LMDESE1  LABEL ,
 001596 4D90 65CC            015EE  7421    2029.              LCALL CSDTOESD
 00159A                             7423    2030.     LMDESE2  LABEL ,
 00159A 41C0 C018            00018  7425    2031.              LA    R12,CSDNXT
 00159E 4150 5006            00006  7426    2032.              LA    XRNT,RNTNXT
 0015A2 59C0 B08C            0008C  7427    2033.              C     R12,LCBCSDLC
 0015A6 47B0 65AC            015CE  7428    2034.              BNL   LMOESEND
 0015AA 1923                        7429    2035.              CR    SR,TR
 0015AC 47D0 6548            0156A  7430    2036.              BNH   LMOESER
00015B0 1892                        7432    2038.     LMOEOR   LR    RAR,SR
 0015B2 4130 E008            00008  7433    2039.              LA    TR,MRESD                START OF ESD DATA
 0015B6 1B93                        7434    2040.              SR    RAR,TR                  COUNT
 0015B8 4090 E006            00006  7435    2041.              STH   RAR,MRESDCNT
 0015BC 4780 65A0/18E2       015C2  7436    2042.              IF    NZ,'LR R14,SR'          FOR NEXT RECORD
 0015C2 9180 B0E2      000E2        7453    2043.              IF    ~LCBMFCSD,LMOESD        FINISHED CSDS?
 0015C6 47E0 648E            014B0  7465             +
 0015CA 47F0 65E8            0160A  7471    2044.              B     LMOIDRGO                START TEXT OUTPUT
00015CE 9680 B0E2      000E2        7473    2046.     LMOESEND SET   LCBMFCSD                CSD END
 0015D2 47F0 658E            015B0  7480    2047.              B     LMOEOR                  CLEAN UP RECORD
00015D6 50C0 B0C0            000C0  7482    2049.     LMOEOBES ST    R12,LCBMOCSD
 0015DA 5050 B0C4            000C4  7483    2050.              ST    XRNT,LCBMORNT
 0015DE 40A0 B0D2            000D2  7484    2051.              STH   R10,LCBMOID
 0015E2 5FE0 8004            00004  7485    2052.     LMOEOB   SL    R14,WAR1                START OF BUFFER
 0015E6 50E0 8000            00000  7486    2053.              ST    R14,WAR0
 0015EA 47F0 7188            001AA  7487    2054.              B     EXIT
00015EE                             7489    2056.     CSDTOESD LABEL ,                       CREATE ESD FROM CSD
 0015EE D20F 2000 C004 00000 00004  7491    2057.              MVC   ESD(L'ESDNAME+L'ESDADDR+L'ESDLNG),CSDNAME
 0015F4 9207 C00C      0000C        7492    2058.              MVI   CSDTYP,ESDTNL           DESTROY CSD ENTRY
 0015F8 9680 5002      00002        7493    2059.              SET   RNTFUSE
 0015FC 40A0 5000            00000  7499    2060.              STH   R10,RNTCSD              RLD RENUMBER VALUE
 001600 41A0 A001            00001  7500    2061.              LA    R10,@R10+1
 001604 4120 2010            00010  7501    2062.              LA    SR,ESDNXT
 001608 07F9                        7502    2063.              BR    RAR
 DROP   ESD,R2                      7503    2064.              DROP  SR                      ##
 DROP   CSD,R12                     7510    2065.              DROP  R12,XRNT                ##
 DROP   RNT,R5
1VLDR     (VLDR00) (09:48) (22MAR04) ORVYL'S LOADER                                                                         Page   75
0Current Usings:  (BASE+4096,R6) (BASE,R7) (LDWA,R8) (LCB,R11) (MRC,R14)
0Loc    Object Code    Addr1 Addr2  Stmt Lv Lineno    Source Statement           (Hibal 5, Asmedit 3.3)  HLASM R4.0  2004/03/22 09.48
+___    ______ ____    _____ _____  ____ __ ______    ______ _________
0                                   7524    2067.     * IDR RECORD
                                    7525    2068.     *
 00160A                             7526    2069.     LMOIDRGO LABEL ,
 00160A 9140 B0E2      000E2        7528    2070.              IF    LCBMFIDR,LMOTXTGO       IDRS FINISHED?
 00160E 4710 663E            01660  7540             +
 001612 4130 E100            00100  7546    2071.              LA    TR,MRIDREND             END OF ORVYL IDR RECORD
 001616 193F                        7547    2072.              CR    TR,15                   ROOM?
 001618 4720 65C0            015E2  7548    2073.              BH    LMOEOB                  CATCH YOU NEXT TIME
 00161C                             7549    2074.              CLEAR (MRIDR,MRIDRSIZ)        CLEAR RECORD
 00161C D7FE E001 E001 00001 00001  7555             +
 001622 D202 E000 6AF4 00000 01B16  7556    2075.              MVC   MRID(3),=AL1(MRIDRID,MRIDRSIZ,MRIDRORV+MRIDRLST)
 001628 D204 E003 B064 00003 00064  7557    2076.              MVC   MRIDRFL,LCBIDRFL
 00162E D203 E00C B070 0000C 00070  7558    2077.              MVC   MRIDREP,LCBEP
 001634 D203 E008 B078 00008 00078  7559    2078.              MVC   MRIDRMSZ,LCBLC
 00163A 9640 B0E2      000E2        7560    2079.              SET   LCBMFIDR                IDR FINISHED
 00163E 18E3                        7566    2080.              LR    R14,TR                  END OF DATA
1VLDR     (VLDR00) (09:48) (22MAR04) ORVYL'S LOADER                                                                         Page   76
0Current Usings:  (BASE+4096,R6) (BASE,R7) (LDWA,R8) (LCB,R11) (MRC,R14)
0Loc    Object Code    Addr1 Addr2  Stmt Lv Lineno    Source Statement           (Hibal 5, Asmedit 3.3)  HLASM R4.0  2004/03/22 09.48
+___    ______ ____    _____ _____  ____ __ ______    ______ _________
0                                   7568    2082.     * CONTROL RECORD/TEXT OUTPUT
                                    7569    2083.     *        - ALL TEXT IS PROCESSED BEFORE ANY RLDS ARE OUTPUT
                                    7570    2084.     *
 001640 58A0 B098            00098  7571    2085.              L     R10,LCBSD               INIT POINT
 001644 50A0 B0CC            000CC  7572    2086.              ST    R10,LCBMOSD             SD POINTER
 001648 1B11                        7573    2087.              CLEAR R1
 00164A 5010 B0C8            000C8  7577    2088.              ST    R1,LCBMOLC              OUTPUT LOC COUNTER
 00164E 4120 E010            00010  7578    2089.              LA    SR,MRRLD                START OF CONTROL INFO
 USING  CTL,R2                      7579    2090.              USING CTL,SR                  ##
 001652 4130 2004            00004  7588    2091.              LA    TR,CTLNXT               ROOM FOR AN SD?
 001656 193F                        7589    2092.              CR    TR,R15
 001658 4720 65C0            015E2  7590    2093.              BH    LMOEOB                  NO ROOM
 DROP   CTL,R2                      7591    2094.              DROP  SR                      ##
 00165C 47F0 6656            01678  7598    2095.              B     LMDTXTG1
0001660                             7600    2097.     LMOTXTGO LABEL ,                       CONTINUE POINT
 001660 9110 B0E2      000E2        7602    2098.              IF    LCBMFCCW,LMOCCW         READY TO PASS CCW?
 001664 4710 679E            017C0  7614             +
 001668 9120 B0E2      000E2        7620    2099.              IF    LCBMFTXT,LMORLDGO       FINISHED WITH TEXT?
 00166C 4710 67B6            017D8  7632             +
 001670 5810 B0C8            000C8  7638    2100.              L     R1,LCBMOLC              CONTINUE LOC COUNTER
 001674 58A0 B0CC            000CC  7639    2101.              L     R10,LCBMOSD             CONTINUE SD ITEM
0001678                             7641    2103.     LMDTXTG1 LABEL ,
 001678 5840 B078            00078  7643    2104.              L     QR,LCBLC                END OF ALL TEXT
 00167C 1B41                        7644    2105.              SR    QR,R1                   HOW FAR TO GO
 00167E 4940 B0D0            000D0  7645    2106.              CH    QR,LCBMOMTB             MAX TEXT BLOCK
 001682 4740 6674            01696  7646    2107.              IF    NL,BEGIN
 001686 4840 B0D0            000D0  7657  1 2108.                LH    QR,LCBMOMTB             USE MAX
 00168A 5440 6A92            01AB4  7658  1 2109.                N     QR,=X'00007FF8'
 00168E 4770 6674            01696  7659  1 2110.                IF    ZERO,'BAS R15,PROCERR'
 001692 4DF0 7130            00152  7671  1          +
 001696                             7676    2111.              END   ,
 001696 5010 B0D8            000D8  7680    2112.              ST    R1,LCBMOCCW             START ADDRESS
 00169A 5040 B0DC            000DC  7681    2113.              ST    QR,LCBMOCCW+4           COUNT
 00169E 4114 1000            00000  7682    2114.              LA    R1,@R1(QR)              NEXT TEXT BLOCK START
 0016A2 5010 B0C8            000C8  7683    2115.              ST    R1,LCBMOLC
 0016A6 4120 E010            00010  7684    2116.              LA    SR,MRRLD                START OF CONTROL INFO
 USING  CTL,R2                      7685    2117.              USING CTL,SR                  ##
 0016AA 4130 2004            00004  7694    2118.              LA    TR,CTLNXT
 0016AE 193F                        7695    2119.              CR    TR,15                   ROOM FOR ONE?
 0016B0 4720 6738            0175A  7696    2120.              BH    LMOEOBTX
 0016B4 4130 E100            00100  7697    2121.              LA    TR,MRRLD+L'MRRLD
 0016B8 193F                        7698    2122.              CR    TR,15
 0016BA 47D0 669E/183F       016C0  7699    2123.              IF    GT,'LR TR,R15'
 0016C0 4B30 6ABE            01AE0  7716    2124.              SH    TR,=Y(CTLSIZE)          WARNING POINT
 0016C4                             7717    2125.              CLEAR (MRC,MRRLD-MRC)
 0016C4 D70F E000 E000 00000 00000  7723             +
 0016CA 9201 E000      00000        7724    2126.              MVI   MRID,MRCTLID
 0016CE 48C0 A000            00000  7725    2127.     LMOTXLP  LH    R12,@R10                ID OF CURRENT SD
 0016D2 181C                        7726    2128.              LR    R1,R12
 0016D4 4D90 60A6            010C8  7727    2129.              LCALL RNTFU
 USING  RNT,R5                      7729    2130.              USING RNT,XRNT                ##
 0016D8 D201 2000 5000 00000 00000  7738    2131.              MVC   CTLID,RNTCSD            RENUMBERED ID
1VLDR     (VLDR00) (09:48) (22MAR04) ORVYL'S LOADER                                                                         Page   77
0Current Usings:  (CTL,R2) (BASE+4096,R6) (BASE,R7) (LDWA,R8) (LCB,R11) (MRC,R14)
0Loc    Object Code    Addr1 Addr2  Stmt Lv Lineno    Source Statement           (Hibal 5, Asmedit 3.3)  HLASM R4.0  2004/03/22 09.48
+___    ______ ____    _____ _____  ____ __ ______    ______ _________
0DROP   RNT,R5                      7739    2132.              DROP  XRNT                    ##
00016DE 4CC0 6A96            01AB8  7747    2134.              MH    R12,=Y(L'CSD)
 0016E2 5EC0 B008            00008  7748    2135.              AL    R12,LCBCSD
 USING  CSD,R12                     7749    2136.              USING CSD,R12                 ##
 0016E6 9108 C014      00014        7758    2137.              IF    CSDFPAG,BEGIN           HANDLE PAGE BOUNDARIES
 0016EA 47E0 66E8            0170A  7768             +
 0016EE 1F11/BF17 C00D       0000D  7773  1 2138.                L3    R1,CSDADDR+1            RESET OLD LOCATION COUNTER
 0016F4 BE17 B0C9            000C9  7781  1 2139.                ST3   R1,LCBMOLC+1
 0016F8 94F7 C014      00014        7783  1 2140.                CLEAR CSDFPAG                 WON'T HANDLE AS PAGE CASE AGAIN
 0016FC 5940 B0DC            000DC  7790  1 2141.                IF    (QR,EQ,LCBMOCCW+4),LMOTXTGO IF 1ST SD THIS PASS
 001700 4780 663E            01660  7804  1          +
 001704 1B44                        7810  1 2142.                SR    QR,QR                   WRITE TEXT NEXT PASS IF NOT 1ST
 001706 47F0 6712            01734  7811  1 2143.                B     LMDTXL5
 00170A                             7812    2144.              END   ,
000170A 5810 C010/1211       00010  7817    2146.              LT    R1,CSDLNG
 001710 4770 66FA            0171C  7821    2147.              IF    ZERO,BEGIN
 001714 41A0 A002            00002  7832  1 2148.                LA    R10,@R10+2              SKIP NULL SD
 001718 47F0 66AC            016CE  7833  1 2149.                B     LMOTXLP
 00171C                             7834    2150.              END   ,
 00171C 1B41                        7838    2151.              SR    QR,R1                   SUBTRACT CSECT FROM BLOCK
 00171E 47B0 670E            01730  7839    2152.              IF    MIN,BEGIN               NO OVERFLOW
 001722 1344                        7850  1 2153.                LCR   QR,QR                   OVERFLOW AMOUNT
 001724 5040 C010            00010  7851  1 2154.                ST    QR,CSDLNG               SAVE FOR NEXT TIME
 001728 1B14                        7852  1 2155.                SR    R1,QR                   AMOUNT INCLUDED IN BLOCK
 00172A 1B44                        7853  1 2156.                SR    QR,QR                   DENOTE FULL BLOCK
 00172C 47F0 6712            01734  7854  1 2157.                B     LMDTXL5
 001730                             7855    2158.              END   ,
 DROP   CSD,R12                     7859    2159.              DROP  R12                     ##
0001730 41A0 A002            00002  7867    2161.              LA    R10,@R10+2              SD COMPLETE
 001734                             7868    2162.     LMDTXL5  LABEL ,
 001734 4010 2002            00002  7870    2163.              STH   R1,CTLLNG               CONTROL ITEM COMPLETE
 001738 4120 2004            00004  7871    2164.              LA    SR,CTLNXT
 00173C 59A0 B09C            0009C  7872    2165.              C     R10,LCBSDLC             LAST SD?
 001740 47B0 676A            0178C  7873    2166.              BNL   LMOTXEND                THAT'S ALL FOLKS
 001744 1244                        7874    2167.              LTR   QR,QR                   BLOCK FULL?
 001746 4780 6738            0175A  7875    2168.              BZ    LMOEOBTX
 00174A 1923                        7876    2169.              CR    SR,TR
 00174C 47D0 66AC            016CE  7877    2170.              BNH   LMOTXLP
 001750 5810 B0C8            000C8  7878    2171.              L     R1,LCBMOLC              ADJUST OLC AS WE DIDN'T GET
 001754 1B14                        7879    2172.              SR    R1,QR                   AS FAR AS WE THOUGHT WE
 001756 5010 B0C8            000C8  7880    2173.              ST    R1,LCBMOLC              WOULD
 DROP   CTL,R2                      7881    2174.              DROP  SR                      ##
000175A 5810 B0DC            000DC  7889    2176.     LMOEOBTX L     R1,LCBMOCCW+4
 00175E 1B14                        7890    2177.              SR    R1,QR
 001760 5010 B0DC            000DC  7891    2178.              ST    R1,LCBMOCCW+4
 001764 D207 E008 B0D8 00008 000D8  7892    2179.              MVC   MRCCW,LCBMOCCW          PUT INTO CONTROL RECORD
 00176A 9206 E008      00008        7893    2180.              MVI   MRCCW,6
 00176E 9240 E00C      0000C        7894    2181.              MVI   MRCCW+4,X'40'
 001772 9610 B0E2      000E2        7895    2182.              SET   LCBMFCCW                CATCH CCW NEXT TIME
 001776 50A0 B0CC            000CC  7901    2183.              ST    R10,LCBMOSD
1VLDR     (VLDR00) (09:48) (22MAR04) ORVYL'S LOADER                                                                         Page   78
0Current Usings:  (BASE+4096,R6) (BASE,R7) (LDWA,R8) (LCB,R11) (MRC,R14)
0Loc    Object Code    Addr1 Addr2  Stmt Lv Lineno    Source Statement           (Hibal 5, Asmedit 3.3)  HLASM R4.0  2004/03/22 09.48
+___    ______ ____    _____ _____  ____ __ ______    ______ _________
000177A 1892                        7902    2184.              LR    RAR,SR
 00177C 4130 E010            00010  7903    2185.              LA    TR,MRRLD                START OF CONTROL DATA
 001780 1B23                        7904    2186.              SR    SR,TR                   COUNT
 001782 4020 E004            00004  7905    2187.              STH   SR,MRCTLCNT
 001786 18E9                        7906    2188.              LR    R14,RAR                 NEXT RECORD POINTER
 001788 47F0 65C0            015E2  7907    2189.              B     LMOEOB
000178C 9620 B0E2      000E2        7909    2191.     LMOTXEND SET   LCBMFTXT                TEXT COMPLETED
 001790 5810 B098            00098  7916    2192.              L     R1,LCBRLD               FIRST RLD
 001794 4B10 6A9C            01ABE  7917    2193.              SH    R1,=Y(L'RLD)
 001798 5010 B0D4            000D4  7918    2194.              ST    R1,LCBMORLD             INITIALIZE FOR OUTPUT
 00179C 5910 B090            00090  7919    2195.     LMRLDCHK IF    (R1,LE,LCBRLDLC),LMRLDNON
 0017A0 47C0 6792            017B4  7934             +
 USING  RLD,R1                      7940    2196.              USING RLD,R1                  ##
 0017A4 94FE 1004      00004        7949    2197.              IF    ('CLEAR RLDFN',NZ),LMOEOBTX RLDS EXIST
 0017A8 4770 6738            0175A  7965             +
 DROP   RLD,R1                      7971    2198.              DROP  R1                      ##
 0017AC 4B20 6A9C            01ABE  7978    2199.              SH    R2,=Y(L'RLD)
 0017B0 47F0 677A            0179C  7979    2200.              B     LMRLDCHK
                                    7980    2201.
 0017B4 960C E000      00000        7981    2202.     LMRLDNON OI    MRID,MREOSID+MREOMID    MARK MODULE END
 0017B8 9608 B0E2      000E2        7982    2203.              SET   LCBMFRLD                AND NO RLD'S
 0017BC 47F0 6738            0175A  7988    2204.              B     LMOEOBTX
1VLDR     (VLDR00) (09:48) (22MAR04) ORVYL'S LOADER                                                                         Page   79
0Current Usings:  (BASE+4096,R6) (BASE,R7) (LDWA,R8) (LCB,R11) (MRC,R14)
0Loc    Object Code    Addr1 Addr2  Stmt Lv Lineno    Source Statement           (Hibal 5, Asmedit 3.3)  HLASM R4.0  2004/03/22 09.48
+___    ______ ____    _____ _____  ____ __ ______    ______ _________
0                                   7990    2206.     * PASS CCW BACK TO CALLER FOR WRITING TEXT
                                    7991    2207.     *
 0017C0                             7992    2208.     LMOCCW   LABEL ,
 0017C0 9823 B0D8            000D8  7994    2209.              LM    SR,TR,LCBMOCCW
 0017C4 5E20 B000            00000  7995    2210.              AL    SR,LCBCORE
 0017C8 5020 8004            00004  7996    2211.              ST    SR,WAR1
 0017CC 5030 8000            00000  7997    2212.              ST    TR,WAR0
 0017D0 94EF B0E2      000E2        7998    2213.              CLEAR LCBMFCCW
 0017D4 47F0 7188            001AA  8005    2214.              B     EXIT
1VLDR     (VLDR00) (09:48) (22MAR04) ORVYL'S LOADER                                                                         Page   80
0Current Usings:  (BASE+4096,R6) (BASE,R7) (LDWA,R8) (LCB,R11) (MRC,R14)
0Loc    Object Code    Addr1 Addr2  Stmt Lv Lineno    Source Statement           (Hibal 5, Asmedit 3.3)  HLASM R4.0  2004/03/22 09.48
+___    ______ ____    _____ _____  ____ __ ______    ______ _________
0                                   8007    2216.     * CONSTRUCT RLD RECORDS
                                    8008    2217.     *
 0017D8 58C0 B0D4            000D4  8009    2218.     LMORLDGO L     R12,LCBMORLD            NEXT RLD TO OUTPUT
 0017DC 9108 B0E2      000E2        8010    2219.              IF    LCBMFRLD,LMOBYBY        RLD'S DONE?
 0017E0 4710 68AE            018D0  8022             +
 USING  RLD,R12                     8028    2220.              USING RLD,R12
 0017E4                             8037    2221.     LMORLREC LABEL ,
 0017E4 50C0 B0D4            000D4  8039    2222.              ST    R12,LCBMORLD
 0017E8 4120 E00C            0000C  8040    2223.              LA    SR,MRRLD-4              START OF RLD DATA
00017EC 4130 E018            00018  8042    2225.              LA    TR,MRRLD+8              END OF FIRST RLD ITEM
 0017F0 193F                        8043    2226.              CR    TR,15                   WILL ONE FIT?
 0017F2 4720 65C0            015E2  8044    2227.              BH    LMOEOB                  NO
00017F6                             8046    2229.              CLEAR (MRC,MRRLD-MRC)
 0017F6 D70F E000 E000 00000 00000  8052             +
 0017FC 9202 E000      00000        8053    2230.              MVI   MRID,MRRLDID            START RLD RECORD
 001800 4130 E100            00100  8054    2231.              LA    TR,MRRLD+L'MRRLD        MAX RECORD LENGTH
 001804 193F                        8055    2232.              CR    TR,15                   WILL IT FIT
 001806 47D0 67EA/183F       0180C  8056    2233.              IF    GT,'LR TR,R15'          DON'T BE FUSSY
 00180C 4B30 6AC0            01AE2  8073    2234.              SH    TR,=Y(8)                RECORD END WARNINH
0001810                             8075    2236.              CLEAR (LDWRANDP,4)
 001810 D703 8044 8044 00044 00044  8081             +
0001816 59C0 B090            00090  8083    2238.     LMORLDLP C     R12,LCBRLDLC            ANY MORE RLDS?
 00181A 4740 6862            01884  8084    2239.              BL    LMORLEND                NO
 00181E 1923                        8085    2240.              CR    SR,TR                   NEAR END?
 001820 4720 686C            0188E  8086    2241.              BH    LMOEORRL                YES
 001824 94FE C004      00004        8087    2242.              CLEAR RLDFN
 001828 4780 6822            01844  8094    2243.              BZ    LMORLNX1                FLAG IS ZERO: SKIP
 00182C D503 8044 C000 00044 00000  8095    2244.              CLC   LDWRANDP(4),RLDR        SAME R&P AS LAST?
 001832 4770 682A            0184C  8096    2245.              BNE   LMORLNEW                NO
 001836 9601 2000      00000        8097    2246.              SET   @SR.RLDFN               CHAIN THIS TO LAST
 00183A 4120 2004            00004  8103    2247.     LMORLNXT LA    SR,@SR+4                NEXT FA SLOT
 00183E D203 2000 C004 00000 00004  8104    2248.              MVC   @SR(4),RLDADDR          FA
 001844 4BC0 6A9C            01ABE  8105    2249.     LMORLNX1 SH    R12,=Y(L'RLD)
 001848 47F0 67F4            01816  8106    2250.              B     LMORLDLP                NEXT...
000184C 4810 C002            00002  8108    2252.     LMORLNEW LH    R1,RLDP
 001850 4D90 6080            010A2  8109    2253.              LCALL RNTF                    ADDRESS RNT FOR P
 USING  RNT,R5                      8111    2254.              USING RNT,XRNT
 001854 9180 5002      00002        8120    2255.              IF    ~RNTFUSE,LMORLNX1       CSECT IN USE
 001858 47E0 6822            01844  8132             +
 00185C 1923                        8138    2256.              CR    SR,TR                   ENOUGH FOR R,P, AND ADDR TOO?
 00185E 47B0 686C            0188E  8139    2257.              BNL   LMOEORRL                CATCHA NEXT TIME
 001862 4120 2004            00004  8140    2258.              LA    SR,@SR+4                NEXT ENTRY
 001866 D201 2002 5000 00002 00000  8141    2259.              MVC   @SR+RLDP-RLD(2),RNTCSD   RENUMBER P
 00186C 4810 C000            00000  8142    2260.              LH    R1,RLDR
 001870 4D90 60A6            010C8  8143    2261.              LCALL RNTFU
 001874 D201 2000 5000 00000 00000  8145    2262.              MVC   @SR+RLDR-RLD(2),RNTCSD
 DROP   RNT,R5                      8146    2263.              DROP  XRNT                    ##
 00187A D203 8044 C000 00044 00000  8153    2264.              MVC   LDWRANDP(4),RLDR
 001880 47F0 6818            0183A  8154    2265.              B     LMORLNXT
1VLDR     (VLDR00) (09:48) (22MAR04) ORVYL'S LOADER                                                                         Page   81
0Current Usings:  (BASE+4096,R6) (BASE,R7) (LDWA,R8) (LCB,R11) (RLD,R12) (MRC,R14)
0Loc    Object Code    Addr1 Addr2  Stmt Lv Lineno    Source Statement           (Hibal 5, Asmedit 3.3)  HLASM R4.0  2004/03/22 09.48
+___    ______ ____    _____ _____  ____ __ ______    ______ _________
0001884 9608 B0E2      000E2        8156    2267.     LMORLEND SET   LCBMFRLD                END OF RLDS
 001888 960C E000      00000        8163    2268.              OI    MRID,MREOSID+MREOMID    END OF SEGMENT/MODULE
 00188C 18F2                        8164    2269.              LR    R15,SR                  FORCE END OF BLOCK
000188E 4120 2004            00004  8166    2271.     LMOEORRL LA    SR,@SR+4
 001892 1892                        8167    2272.              LR    RAR,SR
 001894 4130 E010            00010  8168    2273.              LA    TR,MRRLD
 001898 1B23                        8169    2274.              SR    SR,TR
 00189A 4780 68A6            018C8  8170    2275.              BZ    LMORLNUL                NULL RLD RECORD
 00189E 4020 E006            00006  8171    2276.              STH   SR,MRRLDCNT
 0018A2                             8172    2277.     LMDEORR1 LABEL ,
 0018A2 59C0 B090            00090  8174    2278.              C     R12,LCBRLDLC            OUT OF RLD'S YET?          RWC12
 0018A6 47D0 6898            018BA  8175    2279.              BNH   LMDEORR2                YES
 0018AA 94FE C004      00004        8176    2280.              CLEAR RLDFN                   TEST FOR NULL RLD          RWC12
 0018AE 4770 68A0            018C2  8183    2281.              BNZ   LMDEORR3                NOT NULL
 0018B2 4BC0 6A9C            01ABE  8184    2282.              SH    R12,=Y(L'RLD)           SKIP NULL                  RWC12
 0018B6 47F0 6880            018A2  8185    2283.              B     LMDEORR1                TEST FOR RLD END
00018BA                             8187    2285.     LMDEORR2 LABEL ,
 0018BA 960C E000      00000        8189    2286.              OI    MRID,MREOSID+MREOMID    MARK END OF SEGMENT/MODULE
 0018BE 9608 B0E2      000E2        8190    2287.              SET   LCBMFRLD                THAT'S ALL THE RLDS
 0018C2                             8196    2288.     LMDEORR3 LABEL ,
 0018C2 18E9                        8198    2289.              LR    R14,RAR
 0018C4 47F0 67C2            017E4  8199    2290.              B     LMORLREC                NEXT RLD RECORD
00018C8 59E0 8004            00004  8201    2292.     LMORLNUL C     R14,WAR1                NULL BLOCK?
 0018CC 4770 65C0            015E2  8202    2293.              BNE  LMOEOB                   OUTPUT BLOCK
 DROP   RLD,R12                     8203    2294.              DROP  R12                     ##
00018D0 5890 8024            00024  8211    2296.     LMOBYBY  L     RAR,WARAR               SIGNAL END OF OUTPUT
 0018D4 4190 9004            00004  8212    2297.              LA    RAR,@RAR+4
 0018D8 5090 8024            00024  8213    2298.              ST    RAR,WARAR
 0018DC 47F0 7188            001AA  8214    2299.              B     EXIT
 DROP   MRC,R14                     8215    2300.              DROP  R14                     ##
 DROP   BASE,R7                     8222    2301.              DROP  BR,BRR,WAR,LCBR         ##
 DROP   BASE+4096,R6
 DROP   LDWA,R8
 DROP   LCB,R11
1VLDR     (VLDR00) (09:48) (22MAR04) ORVYL'S LOADER                                                                         Page   82
0Loc    Object Code    Addr1 Addr2  Stmt Lv Lineno    Source Statement           (Hibal 5, Asmedit 3.3)  HLASM R4.0  2004/03/22 09.48
+___    ______ ____    _____ _____  ____ __ ______    ______ _________
0                                   8248    2303.     *  CSD SCAN ROUTINES
                                    8249    2304.     *
                                    8250    2305.     *
                                    8251    2306.     *   PREPARE FOR SCAN
                                    8252    2307.     *
 0018E0 900E D000/188D       00000  8253    2308.     LDSET    VENTER R0,R14,LDWASZ
 0018E6 41D0 D054/0D70       00054  8258             +
 0018EC 9867 71A4            01A90  8273    2309.              LM    BRR,BR,=A(BASE+4096,BASE)
 USING  *,R7
 DROP   *,R7                        8274    2310.              USING BASE,BR,BRR             ##
 USING  BASE,R7
 USING  BASE+4096,R6
 USING  LDWA,R8                     8294    2311.              USING LDWA,WAR                ##
 USING  LCB,R11                     8303    2312.              USING LCB,LCBR                ##
00018F0 D203 B0B4 B088 000B4 00088  8313    2314.              MVC   LCBSRCH,LCBCSDH         POINT AT CSD
 0018F6 47F0 7188            001AA  8314    2315.              B     EXIT
 DROP   BASE,R7                     8315    2316.              DROP  BR,BRR,WAR,LCBR         ##
 DROP   BASE+4096,R6
 DROP   LDWA,R8
 DROP   LCB,R11
1VLDR     (VLDR00) (09:48) (22MAR04) ORVYL'S LOADER                                                                         Page   83
0Loc    Object Code    Addr1 Addr2  Stmt Lv Lineno    Source Statement           (Hibal 5, Asmedit 3.3)  HLASM R4.0  2004/03/22 09.48
+___    ______ ____    _____ _____  ____ __ ______    ______ _________
0                                   8341    2318.     *
                                    8342    2319.     *    SCAN FOR NEXT ENTRY
                                    8343    2320.     *
 0018FA 900E D000/188D       00000  8344    2321.     LDNEXT   VENTER R0,R14,LDWASZ
 001900 41D0 D054/0D70       00054  8349             +
 001906 9867 718A            01A90  8364    2322.              LM    BRR,BR,=A(BASE+4096,BASE)
 USING  *,R7
 DROP   *,R7                        8365    2323.              USING BASE,BR,BRR             ##
 USING  BASE,R7
 USING  BASE+4096,R6
 USING  LDWA,R8                     8385    2324.              USING LDWA,WAR                ##
 USING  LCB,R11                     8394    2325.              USING LCB,LCBR                ##
000190A 1BFF                        8404    2327.              CLEAR R15                     CODE IF NOTHING FOUND
 00190C                             8408    2328.              CLEAR (WAR0,8)
 00190C D707 8000 8000 00000 00000  8414             +
 001912 5820 B0B4/1222       000B4  8415    2329.              LT    SR,LCBSRCH              POINT AT NEXT CSD
 001918 4780 718C            001AE  8419    2330.              BZ    EXITR15                 END OF SEARCH
 USING  CSD,R2                      8420    2331.              USING CSD,SR                  ##
 00191C                             8429    2332.     LDFND    LABEL ,
 00191C 41F0 2004            00004  8431    2333.              LA    R15,CSDNAME             PASS NAME
 001920 1B11                        8432    2334.              CLEAR R1
 001922 0610                        8436    2335.              BCTR  R1,0                    PRESET UNDEFINED CODE (-1)
 001924 5800 2010            00010  8437    2336.              L     R0,CSDLNG               AND LENGTH
 001928 9140 2014      00014        8438    2337.              IF    ~CSDFDEF,LDNEX
 00192C 47E0 6918            0193A  8450             +
 001930 1F11/BF17 200D       0000D  8456    2338.              L3    R1,CSDADDR+1            LOCATION
 001936 5E10 B000            00000  8464    2339.              AL    R1,LCBCORE
 00193A 9001 8000            00000  8465    2340.     LDNEX    STM   R0,R1,WAR0              RETURN REGS
 00193E 5820 2000            00000  8466    2341.              L     SR,CSDLINK
 001942 5020 B0B4            000B4  8467    2342.     LDSRTN   ST    SR,LCBSRCH              FOR SUBSEQUENT SEARCH
 001946 47F0 718C            001AE  8468    2343.              B     EXITR15
 DROP   CSD,R2                      8469    2344.              DROP  SR                      ##
 DROP   BASE,R7                     8476    2345.              DROP  BR,BRR,WAR,LCBR         ##
 DROP   BASE+4096,R6
 DROP   LDWA,R8
 DROP   LCB,R11
1VLDR     (VLDR00) (09:48) (22MAR04) ORVYL'S LOADER                                                                         Page   84
0Loc    Object Code    Addr1 Addr2  Stmt Lv Lineno    Source Statement           (Hibal 5, Asmedit 3.3)  HLASM R4.0  2004/03/22 09.48
+___    ______ ____    _____ _____  ____ __ ______    ______ _________
0                                   8502    2347.     *  LOOK UP SYMBOL IN CSD
                                    8503    2348.     *
 00194A 900E D000/188D       00000  8504    2349.     LDFIND   VENTER R0,R14,LDWASZ
 001950 41D0 D054/0D70       00054  8509             +
 USING  *,R7                        8524    2350.     *
                                    8525    2351.     *        R1 POINTS TO SYMBOL BEING SOUGHT
                                    8526    2352.     *        15 RETURNS CSDNAME POINTER
                                    8527    2353.     *        R1 RETURNS ADDRESS OF SYMBOL(-1 IF UNDEFINED)
                                    8528    2354.     *        R0 RETURNS LENGTH OF CSECT(IF ITEM IS SD)
                                    8529    2355.     *        R15 SET TO ZERO IF SYMBOL NOT FOUND
                                    8530    2356.     *
 001956 9867 713A            01A90  8531    2357.              LM    BRR,BR,=A(BASE+4096,BASE)
 DROP   *,R7                        8532    2358.              USING BASE,BR,BRR             ##
 USING  BASE,R7
 USING  BASE+4096,R6
 USING  LDWA,R8                     8552    2359.              USING LDWA,WAR                ##
 USING  LCB,R11                     8561    2360.              USING LCB,LCBR                ##
000195A 1BFF                        8571    2362.              CLEAR R15                     INDICATE NOT FOUND
 00195C 4120 B088            00088  8575    2363.              LA    SR,LCBCSDH              GET CSD CHAIN
 USING  CSD,R2                      8576    2364.              USING CSD,SR                  ##
 001960 5820 2000            00000  8585    2365.     LSA      L     SR,CSDLINK              NEXT LINK
 001964 D507 2004 1000 00004 00000  8586    2366.              CLC   CSDNAME,@R1             FOUND?
 00196A 4740 693E            01960  8587    2367.              BL    LSA                     KEEP LOOKINK
 00196E 4780 68FA            0191C  8588    2368.              BE    LDFND                   HIT ON THE NOSE
 001972 47F0 6920            01942  8589    2369.              B     LDSRTN
 DROP   CSD,R2                      8590    2370.              DROP  SR                      ##
1VLDR     (VLDR00) (09:48) (22MAR04) ORVYL'S LOADER                                                                         Page   85
0Current Usings:  (BASE+4096,R6) (BASE,R7) (LDWA,R8) (LCB,R11)
0Loc    Object Code    Addr1 Addr2  Stmt Lv Lineno    Source Statement           (Hibal 5, Asmedit 3.3)  HLASM R4.0  2004/03/22 09.48
+___    ______ ____    _____ _____  ____ __ ______    ______ _________
0                                   8598    2372.     *  LOOK UP ADDRESS IN CSD
                                    8599    2373.     *
 001976 900E D000/188D       00000  8600    2374.     LDSECT   VENTER R0,R14,LDWASZ
 00197C 41D0 D054/0D70       00054  8605             +
 DROP   BASE,R7                     8623    2375.     *
 USING  *,R7
                                    8624    2376.     *        1 CONTAINS ADDRESS BEING SOUGHT
                                    8625    2377.     *        15 RETURNS CSDNAME POINTER OF CSECT CONTAINING ADDRESS
                                    8626    2378.     *        R1 RETURNS ADDRESS OF CSECT
                                    8627    2379.     *        R0 RETURNS LENGTH OF CSECT
                                    8628    2380.     *        R15 SET TO ZERO IF CSECT NOT FOUND
                                    8629    2381.     *
 001982 9867 710E            01A90  8630    2382.              LM    BRR,BR,=A(BASE+4096,BASE)
 DROP   *,R7                        8631    2383.              USING BASE,BR,BRR             ##
 USING  BASE,R7
                                    8644    2384.              USING LDWA,WAR                ##
                                    8646    2385.              USING LCB,LCBR                ##
0001986 1BFF                        8649    2387.              CLEAR R15                     'NOT FOUND' CODE
 001988 4120 B088            00088  8653    2388.              LA    SR,LCBCSDH              GET CSD CHAIN
 00198C 1841                        8654    2389.              LR    QR,R1
 00198E 5F40 B000            00000  8655    2390.              SL    QR,LCBCORE
 USING  CSD,R2                      8656    2391.              USING CSD,SR                  ##
 001992                             8665    2392.     LDSECT1  LABEL ,                       LOOP RETURN
 001992 5820 2000/1222       00000  8667    2393.              LT    SR,CSDLINK              NEXT LINK
 001998 4780 718C            001AE  8671    2394.              BZ    EXITR15                 GIVE BAD NEWS
 00199C 9500 200C      0000C        8672    2395.              CLI   CSDTYP,ESDTSD           SECTION?
 0019A0 4770 6970            01992  8673    2396.              BNE   LDSECT1                 NO
 0019A4 1F33/BF37 200D       0000D  8674    2397.              L3    TR,CSDADDR+1
 0019AA 1943                        8682    2398.              CR    QR,TR                   ADDR AFTER SECTION START?
 0019AC 4740 6970            01992  8683    2399.              BL    LDSECT1                 NO
 0019B0 1814                        8684    2400.              LR    R1,QR
 0019B2 1B13                        8685    2401.              SR    R1,TR
 0019B4 5910 2010            00010  8686    2402.              C     R1,CSDLNG
 0019B8 47B0 6970            01992  8687    2403.              BNL   LDSECT1                 NOT IN SECTION
 0019BC 5E30 B000            00000  8688    2404.              AL    TR,LCBCORE
 0019C0 5030 8004            00004  8689    2405.              ST    TR,WAR1
 0019C4 D203 8000 2010 00000 00010  8690    2406.              MVC   WAR0,CSDLNG
 0019CA 41F0 2004            00004  8691    2407.              LA    R15,CSDNAME
 0019CE 47F0 718C            001AE  8692    2408.              B     EXITR15
 DROP   CSD,R2                      8693    2409.              DROP  SR                      ##
                                    8700    2410.     *  LOOK UP ADDRESS IN CSD
                                    8701    2411.     *
 0019D2 900E D000/188D       00000  8702    2412.     LDENTRY  VENTER R0,R14,LDWASZ
 0019D8 41D0 D054/0D70       00054  8707             +
 DROP   BASE,R7                     8725    2413.     *
 USING  *,R7
                                    8726    2414.     *        1 CONTAINS ADDRESS BEING SOUGHT
                                    8727    2415.     *        15 RETURNS CSDNAME POINTER OF ENTRY CONTAINING ADDRESS
                                    8728    2416.     *        R1 RETURNS ADDRESS OF ENTRY
                                    8729    2417.     *        R15 SET TO ZERO IF CSECT NOT FOUND
                                    8730    2418.     *
 0019DE 9867 70B2            01A90  8731    2419.              LM    BRR,BR,=A(BASE+4096,BASE)
 DROP   *,R7                        8732    2420.              USING BASE,BR,BRR             ##
1VLDR     (VLDR00) (09:48) (22MAR04) ORVYL'S LOADER                                                                         Page   86
0Current Usings:  (BASE+4096,R6) (BASE,R7) (LDWA,R8) (LCB,R11)
0Loc    Object Code    Addr1 Addr2  Stmt Lv Lineno    Source Statement           (Hibal 5, Asmedit 3.3)  HLASM R4.0  2004/03/22 09.48
+___    ______ ____    _____ _____  ____ __ ______    ______ _________
0USING  BASE,R7
                                    8745    2421.              USING LDWA,WAR                ##
                                    8747    2422.              USING LCB,LCBR                ##
00019E2 1BFF                        8750    2424.              CLEAR R15                     'NOT FOUND' CODE
 0019E4 4120 B088            00088  8754    2425.              LA    SR,LCBCSDH              GET CSD CHAIN
 0019E8 1841                        8755    2426.              LR    QR,R1
 0019EA 5F40 B000            00000  8756    2427.              SL    QR,LCBCORE
 USING  CSD,R2                      8757    2428.              USING CSD,SR                  ##
 0019EE                             8766    2429.     LDENTRY0 LABEL ,                       LOOP RETURN
 0019EE 5820 2000/1222       00000  8768    2430.              LT    SR,CSDLINK              NEXT LINK
 0019F4 4780 718C            001AE  8772    2431.              BZ    EXITR15                 GIVE BAD NEWS
 0019F8 9500 200C      0000C        8773    2432.              CLI   CSDTYP,ESDTSD           SECTION?
 0019FC 4770 69CC            019EE  8774    2433.              BNE   LDENTRY0                NO
 001A00 1F55/BF57 200D       0000D  8775    2434.              L3    RR,CSDADDR+1
 001A06 1945                        8783    2435.              CR    QR,RR                   ADDR AFTER SECTION START?
 001A08 4740 69CC            019EE  8784    2436.              BL    LDENTRY0                NO
 001A0C 1814                        8785    2437.              LR    R1,QR
 001A0E 1B15                        8786    2438.              SR    R1,RR
 001A10 5910 2010            00010  8787    2439.              C     R1,CSDLNG
 001A14 47B0 69CC            019EE  8788    2440.              BNL   LDENTRY0                NOT IN SECTION
 001A18 1B00/1BEE                   8789    2441.              CLEAR R0,R14
 001A1C 4120 B088            00088  8795    2442.              LA    SR,LCBCSDH              GET CSD CHAIN
 001A20                             8796    2443.     LDENTRY1 LABEL ,
 001A20 5820 2000/1222       00000  8798    2444.              LT    SR,CSDLINK              NEXT LINK
 001A26 4780 6A38            01A5A  8802    2445.              BZ    LDENTRY8
 001A2A 9501 200C      0000C        8803    2446.              CLI   CSDTYP,ESDTLD           ENTRY POINT?
 001A2E 4780 6A18            01A3A  8804    2447.              BE    LDENTRY5                YES
 001A32 9503 200C      0000C        8805    2448.              CLI   CSDTYP,ESDTLR           ENTRY POINT?
 001A36 4770 69FE            01A20  8806    2449.              BNE   LDENTRY1                NO
 001A3A                             8807    2450.     LDENTRY5 LABEL ,
 001A3A 1F33/BF37 200D       0000D  8809    2451.              L3    TR,CSDADDR+1
 001A40 1943                        8817    2452.              CR    QR,TR                   AFTER ENTRY?
 001A42 4740 69FE            01A20  8818    2453.              BL    LDENTRY1                NO
 001A46 1930                        8819    2454.              CR    TR,R0                   HIGHEST ENTRY THUS FAR?
 001A48 4740 69FE            01A20  8820    2455.              BL    LDENTRY1                NO
 001A4C 1935                        8821    2456.              CR    TR,RR                   ENTRY IN SECTION
 001A4E 47D0 69FE            01A20  8822    2457.              BNH   LDENTRY1                NO
 001A52 1803                        8823    2460.              LR    R0,TR                   GET ADDRESS
 001A54 18E2                        8824    2461.              LR    R14,SR                  GET POINTER
 001A56 47F0 69FE            01A20  8825    2462.              B     LDENTRY1                CONTINUE
 001A5A                             8826    2463.     LDENTRY8 LABEL ,
 001A5A 12EE                        8828    2464.              LTR   R14,R14                 ENTRY POINT FOUND?
 001A5C 4780 718C            001AE  8829    2465.              BZ    EXITR15                 GIVE BAD NEWS
 001A60 182E                        8830    2466.              LR    SR,R14
 001A62 5E00 B000            00000  8831    2467.              AL    R0,LCBCORE
 001A66 5000 8004            00004  8832    2468.              ST    R0,WAR1
 001A6A 41F0 2004            00004  8833    2469.              LA    R15,CSDNAME
 001A6E 47F0 718C            001AE  8834    2470.              B     EXITR15
 DROP   CSD,R2                      8835    2471.              DROP  SR                      ##
1VLDR     (VLDR00) (09:48) (22MAR04) ORVYL'S LOADER                                                                         Page   87
0Current Usings:  (BASE+4096,R6) (BASE,R7) (LDWA,R8) (LCB,R11)
0Loc    Object Code    Addr1 Addr2  Stmt Lv Lineno    Source Statement           (Hibal 5, Asmedit 3.3)  HLASM R4.0  2004/03/22 09.48
+___    ______ ____    _____ _____  ____ __ ______    ______ _________
0                                   8843    2473.     *  CONSTANTS
                                    8844    2474.     *
 001A78                             8845    2475.              LTORG
 001A78 C9D5E5C1D3C9C440            8847                             =C'INVALID ADDRESS CONSTANT'
 001A90 0000102200000022            8848                             =A(BASE+4096,BASE)
 001A98 4040404040404040            8849                             =CL8' '
 001AA0 00000003                    8850                             =A(3)
 001AA4 00FFFFF8                    8851                             =X'00FFFFF8'
 001AA8 7FFFF000                    8852                             =X'7FFFF000'
 001AAC 00000018                    8853                             =A(L'CSD)
 001AB0 00FFF000                    8854                             =X'00FFF000'
 001AB4 00007FF8                    8855                             =X'00007FF8'
 001AB8 0018                        8856                             =Y(L'CSD)
 001ABA 0004                        8857                             =Y(4)
 001ABC 000C                        8858                             =Y((R3+1-(R1)+16*((R1)/(R3+1))/((R1)/(R3+1)))*4)
 001ABE 000C                        8859                             =Y(L'RLD)
 001AC0 0006                        8860                             =Y(L'RNT)
 001AC2 E3D6D640D4C1D5E8            8861                             =C'TOO MANY SYMBOLS IN MODULE'
 001ADC 0001                        8862                             =Y(1)
 001ADE 0010                        8863                             =Y(L'ESD)
 001AE0 0004                        8864                             =Y(CTLSIZE)
 001AE2 0008                        8865                             =Y(8)
 001AE4 D7D9D6C7D9C1D440            8866                             =C'PROGRAM TOO LARGE'
 001AF5 E3D6D640D4C1D5E8            8867                             =C'TOO MANY CSECTS'
 001B04 0C                          8868                             =P'0'
 001B05 D5D640D7D9D6C7D9            8869                             =C'NO PROGRAM LOADED'
 001B16 80FF90         01B19 01B20  8870                             =AL1(MRIDRID,MRIDRSIZ,MRIDRORV+MRIDRLST)
 001B20                01B20 01B20  8874    2476.              END   .

1VLDR     (VLDR00) (09:48) (22MAR04) Ordinary Symbol and Literal Cross Reference                                            Page   88
-Symbol   Length   Value     Id    R Type   Defn References                                  HLASM R4.0  2004/03/22 09.48
0$$$@R11       1 00000000 FFFFFFF3     J     851 1131
 $$$@R2        1 00000000 FFFFFFFC     J     734 1027
 $$$@R3        1 00000000 FFFFFFFB     J     747 1040
 $$$@R4        1 00000000 FFFFFFFA     J     760 1053
 $$$@R5        1 00000000 FFFFFFF9     J     773 1066  1151
 $$$@R6        1 00000000 FFFFFFF8     J     786 1079
 $$$@R7        1 00000000 FFFFFFF7     J     799 1092
 $$$@R8        1 00000000 FFFFFFF6     J     812 1105
 $$$@R9        1 00000000 FFFFFFF5     J     825 1118
 $$$C1VLDR
               1 00000E4A 00000001     J    5227 5229
 $$$C2VLDR
               1 00001B19 00000001     J    8871 8873
 $$$C3VLDR
               1 00001B20 00000001     J    8877 8879
 $$$RCSD       1 00000000 FFFFFFED     J    1238 1307  1307
 $$$RESD       1 00000000 FFFFFFEE     J    1197 1231  1231
 $$$RLDWA      1 00000000 FFFFFFE7     J    1800 1848  1848
 $$$RLNKPAGE
               1 00000000 FFFFFFEA     J    1462 1717  1717
 $$$RRNT       1 00000000 FFFFFFEB     J    1381 1455  1455
 $$$100B       4 00000F4C 00000001     I    5517 5529
 $$$100F       2 00000F54 00000001     H    5526 5517B 5528
 $$$101E       2 00000F58 00000001     H    5536 5530
 $$$101F       2 00000F70 00000001     H    5565 5532B
 $$$102F       2 00000F8A 00000001     H    5624 5602B
 $$$105F       2 000010F0 00000001     H    5897 5870B
 $$$107B       1 000010FE 00000001     X    5948 5955U
 $$$108B       1 00001130 00000001     X    6062 6069U
 $$$109B       1 0000119A 00000001     X    6206 6213U
 $$$110B       1 000011C2 00000001     X    6318 6325U
 $$$111B       1 00001208 00000001     X    6435 6442U
 $$$115F       2 000012C6 00000001     H    6667 6657B
 $$$117F       2 00001358 00000001     H    6812 6795B
 $$$117T       2 00001350 00000001     H    6798 6785B
 $$$119B       1 00001368 00000001     X    6868 6875U
 $$$120F       2 00001408 00000001     H    7008 6998B
 $$$121B       1 00001482 00000001     X    7137 7144U
 $$$125F       2 000014D8 00000001     H    7308 7298B
 $$$126F       2 00001532 00000001     H    7368 7341B
 $$$127F       2 00001532 00000001     H    7364 7353B
 $$$129F       2 000015C2 00000001     H    7452 7442B
 $$$135F       2 00001696 00000001     H    7679 7652B
 $$$136F       2 00001696 00000001     H    7675 7665B
 $$$137F       2 000016C0 00000001     H    7715 7705B
 $$$139F       2 0000170A 00000001     H    7815 7768B
 $$$141F       2 0000171C 00000001     H    7837 7827B
 $$$142F       2 00001730 00000001     H    7858 7845B
 $$$147F       2 0000180C 00000001     H    8072 8062B
 $$$150B       1 000018EC 00000001     X    8264 8271U
 $$$151B       1 00001906 00000001     X    8355 8362U
 $$$154B       1 00001956 00000001     X    8515 8522U
 $$$155B       1 00001982 00000001     X    8611 8621U
 $$$156B       1 000019DE 00000001     X    8713 8723U
 $$$22B        1 00000022 00000001     X    1881 1888U
1VLDR     (VLDR00) (09:48) (22MAR04) Ordinary Symbol and Literal Cross Reference                                            Page   89
 $$$24B        1 000000EA 00000001     X    2071 2078U
 $$$26B        1 00000114 00000001     X    2220 2227U
 $$$29B        1 000001F8 00000001     X    2457 2464U
 $$$30F        2 0000021A 00000001     H    2542 2512B
 $$$33F        2 000002FC 00000001     H    2693 2626B
 $$$34B        4 000002E2 00000001     I    2654 2666
 $$$34F        2 000002EC 00000001     H    2663 2654B 2665
 $$$35E        2 000002F0 00000001     H    2673 2667
 $$$35F        2 000002F6 00000001     H    2679 2669B
 $$$36F        2 0000032A 00000001     H    2723 2706B
 $$$38F        2 000003BC 00000001     H    2885 2875B
 $$$39F        2 000003CA 00000001     H    2904 2894B
 $$$40F        2 000003E8 00000001     H    2953 2943B
 $$$41F        2 000003F6 00000001     H    2972 2962B
 $$$42F        2 00000412 00000001     H    3015 3005B
 $$$43F        2 00000420 00000001     H    3034 3024B
 $$$44F        2 0000045E 00000001     H    3067 3057B
 $$$45F        2 00000472 00000001     H    3126 3111B
 $$$46F        2 0000048C 00000001     H    3155 3145B
 $$$47F        2 0000049A 00000001     H    3174 3164B
 $$$48F        2 000004FE 00000001     H    3248 3224B
 $$$49F        2 000005D6 00000001     H    3385 3375B
 $$$50F        2 000005E6 00000001     H    3410 3395B
 $$$52F        2 00000666 00000001     H    3551 3483B
 $$$54F        2 00000666 00000001     H    3547 3537B
 $$$57F        2 00000784 00000001     H    3849 3839B
 $$$59F        2 000007B0 00000001     H    3904 3894B
 $$$62F        2 000007EC 00000001     H    4004 3994B
 $$$64F        2 0000082C 00000001     H    4088 4053B
 $$$65F        2 0000082C 00000001     H    4084 4073B
 $$$66F        2 00000842 00000001     H    4117 4107B
 $$$67F        2 00000852 00000001     H    4136 4126B
 $$$68F        2 00000864 00000001     H    4159 4149B
 $$$69F        2 0000087A 00000001     H    4186 4175B
 $$$71F        2 000008B4 00000001     H    4274 4264B
 $$$72F        2 000008C8 00000001     H    4302 4292B
 $$$73F        2 000009A6 00000001     H    4470 4459B
 $$$75F        2 000009D2 00000001     H    4504 4489B
 $$$80F        2 00000AE0 00000001     H    4742 4732B
 $$$82F        2 00000B22 00000001     H    4805 4795B
 $$$83F        2 00000B34 00000001     H    4832 4822B
 $$$90F        2 00000C36 00000001     H    5127 5117B
 $$$91F        2 00000C58 00000001     H    5158 5148B
 $$$92F        2 00000EB8 00000001     H    5364 5347B
 $$$93F        2 00000EC4 00000001     H    5382 5372B
 $$$94F        2 00000ED6 00000001     H    5406 5396B
 $$$95F        2 00000F14 00000001     H    5466 5419B
 $$$98F        2 00000F14 00000001     H    5462 5444B
 @QR           0 00000000 FFFFFFFA     @    1054 2296  2307  2568  2586  4724  5288  7318  7346  7377
 @RAR          0 00000000 FFFFFFF5     @    1119 2536  2613  5164  8212
 @R0           0 00000000 FFFFFFFE     @     709  985U
 @R1           0 00000000 FFFFFFFD     @     722  981U 2566  2788U 2866U 2934U 3074U 3136U 3213U 3215  3230  3353M 3420U
                                                 3453U 3610U 3657U 3688  3735U 3736  3781U 3816U 3968U 4095U 4251U 4570U
                                                 4572  4813U 5092U 5134U 5139  5182  5483U 5653U 5684M 5685  5720  5726
                                                 5730M 5730  5743M 5744M 5759  5769M 5769  5783M 5790M 6019U 6133M 6275U
                                                 6393U 6539U 6618U 6678U 6820U 6925  6928  6952M 6962  7209  7682  7780U
                                                 7976U 8463U 8586
 @R10          0 00000000 FFFFFFF4     @     839  945U 3352M 5077U 6132M 7500  7725  7832  7867
 @R11          0 00000000 FFFFFFF3     @     852  941U 2013U 2172U 2408U 5930U 6044U 6188U 6300U 6418U 6851U 7121U 8245U
1VLDR     (VLDR00) (09:48) (22MAR04) Ordinary Symbol and Literal Cross Reference                                            Page   90
                                                 8338U 8499U
 @R12          0 00000000 FFFFFFF2     @     865  937U 2688U 2823U 3579U 3717U 3932U 4600U 6163U 6734U 6938  6945M 6945
                                                 7087U 7515U 7864U 8208U
 @R13          0 00000000 FFFFFFF1     @     878  933U
 @R14          0 00000000 FFFFFFF0     @     891  929U 3503U 7003  8220U
 @R15          0 00000000 FFFFFFEF     @     904  925U 2782U 3320U 3495U 3708U 3825U 5490U 5626  5655  6826U 6933  6951M
                                                 6958  6975  7064  7208
 @R2           0 00000000 FFFFFFFC     @     735  977U 2997U 4588U 4761U 5279U 7016U 7508U 7596U 7886U 8474U 8595U 8698U
                                                 8840U
 @R3           0 00000000 FFFFFFFB     @     748  973U 1975U 3758U 4703U 4968U 5109U 5318U 5336U 5360U 8681U 8816U
 @R4           0 00000000 FFFFFFFA     @     761  969U 4458  4711U 5287U 5300U 5560U
 @R5           0 00000000 FFFFFFF9     @     774  965U 2764U 4594U 4683U 5071U 5904U 6642U 7061U 7521U 7744U 8151U 8782U
 @R6           0 00000000 FFFFFFF8     @     787  961U 2032U 2191U 2427U 5918U 6032U 6176U 6288U 6406U 6839U 7109U 8233U
                                                 8326U 8487U
 @R7           0 00000000 FFFFFFF7     @     800  957U 2027U 2088U 2186U 2237U 2422U 2474U 5912U 5965U 6026U 6079U 6170U
                                                 6223U 6282U 6335U 6400U 6452U 6833U 6885U 7103U 7154U 8227U 8281U 8320U
                                                 8372U 8481U 8539U 8618U 8638U 8720U 8739U
 @R8           0 00000000 FFFFFFF6     @     813  953U 2022U 2181U 2417U 5924U 6038U 6182U 6294U 6412U 6845U 7115U 8239U
                                                 8332U 8493U
 @R9           0 00000000 FFFFFFF5     @     826  949U
 @SR           0 00000000 FFFFFFFC     @    1028 1986M 2886  2954  3016  4851  4852  4970  5029  5038  5039  5044  5137
                                                 5475  5476M 5807  6154  8102M 8103  8104M 8140  8141M 8145M 8166
 @TR           0 00000000 FFFFFFFB     @    1041 1943  3156  4754M 4806  5475M 5476  6938  6943M 6943
 BADCARD       4 00000136 00000001     I    2302 3197B 4848B
 BADINIT       4 000000BA 00000001     I    1997 1922B 1934B
 BADREC        4 00000242 00000001     I    2574 2881B 2900B 2949B 2968B 3011B 3030B 3151B 3170B 4801B 4828B 5123B 5154B
 BASE          1 00000022 00000001     U    1890 1899U 2091U 2099U 2240U 2248U 2477U 2485U 4139  4160B 4339  4340  4341
                                                 4342  4343  4344  4345  4349  4355  4356  4357  4358  4360  4361  4369
                                                 4370  4371  4372  4374  4375  4381  4382  4383  4384  4386  4387  4397
                                                 4398  4399  4405  4406  4407  4408  4409  4410  4411  4418  4419  4420
                                                 4421  4422  4423  4424  5188  5188  5190  5968U 5976U 6082U 6090U 6226U
                                                 6234U 6338U 6346U 6455U 6463U 6888U 6896U 7157U 7165U 8284U 8292U 8375U
                                                 8383U 8542U 8550U 8641U 8742U 8848  8848
 BR            7 00000007 00000001 A   #    1086 2080M 2091U 2229M 2240U 2466M 2477U 5957M 5968U 6071M 6082U 6215M 6226U
                                                 6327M 6338U 6444M 6455U 6877M 6888U 7146M 7157U 8273M 8284U 8364M 8375U
                                                 8531M 8542U 8630M 8641U 8731M 8742U
 BRR           6 00000006 00000001 A   #    1073 1891M 1899U 2080M 2099U 2229M 2248U 2466M 2485U 5957M 5976U 6071M 6090U
                                                 6215M 6234U 6327M 6346U 6444M 6463U 6877M 6896U 7146M 7165U 8273M 8292U
                                                 8364M 8383U 8531M 8550U 8630M 8731M
 CCSRCH        4 000001B8 00000001     F    2385 2295
 CCTBL         4 000001C4 00000001     F    2389 2387
 CCTBLND       1 000001EC 00000001     U    2395 2386
 CICNT         2 0000001E FFFFFFEA     H    1693 3195  4715  4846
 CIESD         1 00000024 FFFFFFEA     C    1702 3185
 CIESID        2 00000022 FFFFFFEA     H    1696 2724  3128M 3229  3231M
 CINLEN        4 00000030 FFFFFFEA     C    1707 2647  2659
 CINSEP        8 00000024 FFFFFFEA     C    1705 2699  2711
 CIRLD         1 00000024 FFFFFFEA     C    1700 4845
 CISEQ         8 0000005C FFFFFFEA     C    1709 5210
 CITADDR       4 00000018 FFFFFFEA     A    1691 2791  4702
 CITESID       2 00000022 FFFFFFEA     H    1697 4611
 CITEXT        1 00000024 FFFFFFEA     C    1698 1699  1701  1703  4754  5210
 CLRCSD        6 0000102E 00000001     I    5730 5722B
 CLRNT         2 0000108C 00000001     H    5805 1991B 2794B
 CLRPRLNG      2 00001226 00000001     H    6512 6509B
 CLRRLD        6 00001072 00000001     I    5769 5761B
 CMLENERR      4 00000A02 00000001     I    4532 4310B 4314B
 CNTLRSCN      2 00001516 00000001     H    7333 7317B
 CSCDFADR      2 000013C6 00000001     H    6949 6940B 6946B
1VLDR     (VLDR00) (09:48) (22MAR04) Ordinary Symbol and Literal Cross Reference                                            Page   91
 CSCTALTB      2 000013D2 00000001     H    6957 6939B 6944B
 CSD          24 00000000 FFFFFFED     J    1307 1986  1988  2047  2048  2050  2052  2645U 2773U 2807U 3264U 3329U 3590U
                                                 3625U 3726U 3767U 3941U 3977U 4694U 5196  5205  5270U 5327U 5590U 5726
                                                 5730  6006U 6113  6121U 6264U 6376U 6529U 6769U 6938  6938  6943M 6943
                                                 6945M 6945  6986U 7253U 7756U 8427U 8583U 8663U 8764U 8853  8856
 CSDADDR       4 0000000C FFFFFFED     A    1258 3656  3659M 3690M 3734  3738M 3979M 4722  5299  5359  6621  6623M 6684M
                                                 6701M 6722M 6938  6938  7015  7038M 7779  8462  8680  8781  8815
 CSDFDEF      64 00000014 FFFFFFED         1275 3570M 3599M 3697M 3745M 3862M 3952  6634M 6692M 6707M 6728M 6782  8447
 CSDFL         1 00000014 FFFFFFED     R    1266 1270  1275  1280  1285  1290  2052
 CSDFPAG       8 00000014 FFFFFFED         1290 5613M 5639  6143M 6997  7767  7789M
 CSDFPRCL    128 00000014 FFFFFFED         1270 2053  6656  7410
 CSDLINK       4 00000000 FFFFFFED     A    1248 2814  3270  3343  6008M 6113  6124  6266M 6378M 6714  6719  8466  8585
                                                 8669  8770  8800
 CSDLNG        4 00000010 FFFFFFED     A    1259 1262  1296  2659M 2675M 3627M 3675  3782M 4263  4270M 4285  4298M 4303
                                                 4305M 4309  4313  4723  5307  5625  5628M 6677  6685  6943M 6943  6945M
                                                 6945  7039  7063  7819  7851M 8437  8686  8690  8787
 CSDNAME       8 00000004 FFFFFFED     C    1249 2048  3266  3344  3355M 6010M 6125  6135M 6268M 6380M 6386  7358M 7491
                                                 8431  8586  8691  8833
 CSDNAM2       8 00000010 FFFFFFED     C    1297 3309  6011M 6381M 6383  6386M
 CSDNXT        4 00000018 FFFFFFED     F    1300 7369  7425
 CSDREL        4 00000014 FFFFFFED     A    1260 2781  3662M 3685M 3707  3962  4710  5278  5335  6662M
 CSDSDC        4 00000010 FFFFFFED     A    1263 3602  3749  4008M
 CSDSDID       2 00000016 FFFFFFED     H    1294 3746M 3924M 6576  7346
 CSDSTART      4 00000000 FFFFFFED     F    1247 5744M
 CSDTCHA       1 000000F0 FFFFFFED A   N    1253 3275  6012
 CSDTDEL       1 000000D0 FFFFFFED A   N    1255 6385
 CSDTOESD      2 000015EE 00000001     H    7490 7326B 7360B 7422B
 CSDTREP       1 000000E0 FFFFFFED A   N    1254 3289  6382
 CSDTYP        1 0000000C FFFFFFED     X    1250 1257  2050  3275  3289  3356M 3563M 3592M 3691M 3739M 3899M 4028  4118
                                                 4119  4202M 5365  5744M 6012M 6136M 6382M 6385M 6531  6538  6635M 7334
                                                 7395  7397  7399  7492M 8672  8773  8803  8805
 CSECERR       4 00000FF8 00000001     I    5703 5687B
 CTL           1 00000000 FFFFFFE8     J    1789 1793  1849  7586U 7692U
 CTLID         2 00000000 FFFFFFE8     H    1790 7738M
 CTLLNG        2 00000002 FFFFFFE8     H    1791 7870M
 CTLNXT        4 00000004 FFFFFFE8     F    1792 1793  7588  7694  7871
 CTLREC        4 00000C16 00000001     I    5083 4836B 5053B
 CTLSIZE       4 00000004 FFFFFFE8 A   U    1793 8864
 DICTFULL      4 000009E6 00000001     I    4517 5728B 5767B
 EMSGLOC       2 00000A12 00000001     H    4539 2325B 2335B
 ENDBL         2 00000384 00000001     H    2828 2725
 ENDCARD       2 000002BC 00000001     H    2611 2394
 ENDCHRP       2 0000036C 00000001     I    2809 2816B
 ENDCOM        4 0000035E 00000001     I    2794 2698B 2726B 2844B 5184B
 ENDERA        4 00000386 00000001     I    2833 2715B 2717B 2750B
 EOMUNEX       4 0000024E 00000001     I    2581 2529B
 EOSCHK        4 00000C70 00000001     I    5169 5084B
 ESD          16 00000000 FFFFFFEE     J    1231 3193U 7275U 7358M 7491M 8863
 ESDADDR       4 00000008 FFFFFFEE     A    1207 3494  3686  3815  3961  4581  7491
 ESDCARD       2 000004A4 00000001     H    3184 2390
 ESDCHA        6 0000056E 00000001     I    3309 3276B 3306B
 ESDCHRP       6 00000508 00000001     I    3266 3272B
 ESDCMDEL      2 0000075A 00000001     H    3785 4275B
 ESDCOM        2 000004B4 00000001     I    3198 3177B
 ESDCR1        4 00000520 00000001     I    3275 3267B
 ESDDEL        2 00000546 00000001     H    3295 4510B
 ESDDLCOM      6 00000574 00000001     I    3310 3300B 3302B
 ESDDLNPR      2 00000536 00000001     H    3288 3279B
 ESDESDTB      2 00000904 00000001     H    4338 4097
1VLDR     (VLDR00) (09:48) (22MAR04) Ordinary Symbol and Literal Cross Reference                                            Page   92
 ESDLNG        4 0000000C FFFFFFEE     A    1208 1209  3286M 3286  3452  3502  3627  3780  3824  4250  4285  4298  4303
                                                 4305  4309  4313  7491
 ESDNAME       8 00000000 FFFFFFEE     C    1204 3266  3309M 3344  3355  4443  4443  4444  7491
 ESDNCM        2 00000750 00000001     H    3773 3428B
 ESDNLD        4 00000788 00000001     I    3855 3424B
 ESDNLR        2 0000078C 00000001     H    3858 3426B
 ESDNL1        2 000007E0 00000001     H    3983 3917B
 ESDNL2        4 000007FC 00000001     I    4010 3878B
 ESDNPC        2 00000630 00000001     H    3445 3427B
 ESDNPR        2 000008B8 00000001     H    4282 3429B
 ESDNRJMP      2 000005E6 00000001     I    3418 3358B
 ESDNR1        6 000005B6 00000001     I    3355 4220B 4234B
 ESDNSD        2 0000063C 00000001     H    3472 3423B
 ESDNXA        4 000004BA 00000001     I    3203 3439B
 ESDNXB        6 00000702 00000001     I    3691 3677B 3679B 3980B 4020B
 ESDNXT        4 00000010 FFFFFFEE     A    1224 3437  7277  7501
 ESDRCMSD      6 000008EA 00000001     I    4313 4360
 ESDREC        2 00000462 00000001     H    3081 2596
 ESDREP        4 00000562 00000001     I    3305 3290B
 ESDRSDCM      6 000008DC 00000001     I    4309 4405
 ESDRSLV       2 00000808 00000001     H    4027 3346B
 ESDR1         2 00000868 00000001     H    4166 4040B 4311B 4355
 ESDR2A        4 00000620 00000001     U    4198 4381  4382  4384  4386
 ESDR2B        4 00000882 00000001     I    4200 4383
 ESDR3CM       2 0000089A 00000001     H    4228 4407
 ESDR3LD       4 0000089E 00000001     I    4234 4371
 ESDR3SD       2 00000892 00000001     H    4209 4315B 4357
 ESDR4         2 00000594 00000001     U    4238 4397  4398  4409
 ESDR5         2 000009F2 00000001     H    4522 4356  4358  4369  4370  4372  4374  4406  4408
 ESDR6         2 000008A2 00000001     H    4243 4410
 ESDR7         2 000008B8 00000001     H    4284 4424
 ESDR7X        2 00000594 00000001     U    4279 4361  4375  4387  4399  4411  4418  4419  4420  4421  4422  4423
 ESDSDID       2 0000000E FFFFFFEE     H    1210 3863  7358M
 ESDSDLA       2 00000728 00000001     I    3733 3751B
 ESDSLOOP      2 00000594 00000001     I    3342 3345B 4029B 4238  4279
 ESDSRCH       4 0000058A 00000001     I    3334 3253B 3273B 3313B
 ESDTBCM       2 00000952 00000001     H    4404 4344
 ESDTBER       2 00000936 00000001     H    4380 4341  4349
 ESDTBLD       2 00000928 00000001     H    4366 4340
 ESDTBLR       2 00000928 00000001     H    4368 4342
 ESDTBPC       2 00000944 00000001     H    4392 4343
 ESDTBPR       2 00000960 00000001     H    4417 4345
 ESDTBSD       2 0000091A 00000001     H    4354 4339
 ESDTDEL       1 00000010 FFFFFFEE A   U    1221 3296  3297  3299  3301  3307  3356  3388  3552  4037
 ESDTER        1 00000002 FFFFFFEE A   U    1214 3301  3314  3563  3592  3899  4132  4200  4202  6635  7395
 ESDTLD        1 00000001 FFFFFFEE A   U    1213 3217  3297  3357  4046  8803
 ESDTLR        1 00000003 FFFFFFEE A   U    1215 3739  3855  7334  8805
 ESDTNL        1 00000007 FFFFFFEE A   U    1219 3232  4028  5744  7492
 ESDTPERR      2 0000096E 00000001     H    4428 3206B 3216B
 ESDTPR        1 00000006 FFFFFFEE A   U    1218 2051  3278  3292  5365  7399
 ESDTPTB       1 000008F8 00000001     C    4320 3214  4332  4571
 ESDTSD        1 00000000 FFFFFFEE A   U    1212 3299  3305  8672  8773
 ESDTWX        1 0000000A FFFFFFEE A   U    1220 3312  4119  4202  6136  7397
 ESDTYP        1 00000008 FFFFFFEE     X    1205 1206  3203M 3204  3205  3212  3217  3232  3278  3292  3296M 3297  3299
                                                 3301M 3305  3307M 3310  3388  3552  3691  3855M 4037
 EXIT          2 000001AA 00000001     H    2374 1992B 2159B 2368B 2538B 2799B 2825B 2842B 2907B 2912B 2975B 3041B 3068B
                                                 3440B 4500B 4713B 4744B 4747B 4752B 5170B 6013B 6144B 6157B 6269B 6384B
                                                 6387B 6756B 7487B 8005B 8214B 8314B
 EXITR15       2 000001AE 00000001     I    2380 8419B 8468B 8671B 8692B 8772B 8829B 8834B
1VLDR     (VLDR00) (09:48) (22MAR04) Ordinary Symbol and Literal Cross Reference                                            Page   93
 EXIT2         2 000001AA 00000001     H    2376 4635B
 FDECR         4 00000F3E 00000001     I    5504 5291B 5454B
 FIXCOM        6 00001218 00000001     I    6508 6501B 7081B
 GCSDA         4 0000101A 00000001     I    5725 5719B
 GETCSD        2 00001004 00000001     H    5716 3351B 5998B 6131B 6256B 6368B
 GETRLD        2 00001048 00000001     H    5755 4854B 5013B
 GETSD         2 00000F7A 00000001     H    5582 2682B 3648B 6699B
 GOTCC         4 00000142 00000001     I    2307 2297B
 GOTMR         4 0000025A 00000001     I    2586 2569B
 GRLA          4 0000105E 00000001     I    5764 5758B
 HIBAL         1 00000000 FFFFFFFF     J     694  710   723   736   749   762   775   788   801   814   827   840   853
                                                  866   879   892   905
 HIESDTYP      1 0000000A 00000001 A   U    4332 3205  6531
 IDRREC        2 00000400 00000001     H    2981 2594
 INPLULE       2 00000226 00000001     H    2564 2556B
 LCB         256 00000000 FFFFFFEA     U    1684 1917U 2117U 2266U 2503U 5994U 6108U 6252U 6364U 6481U 6914U 7183U 8310U
                                                 8401U 8568U
 LCBALIH       4 000000B0 FFFFFFEA     A    1633 6266  6267M
 LCBCHF        4 00000084 FFFFFFEA     A    1607 5717  5721M 5741  5742M
 LCBCHRPH      4 000000AC FFFFFFEA     A    1632 2797  2817M 3251  6008  6009M 6378  6379M
 LCBCI        80 00000014 FFFFFFEA     C    1482 1688  1708  2296  2314M 2565M 2566M 2568  4835  5083  5091  5169  6010
                                                 6011  6111  6125  6135  6268  6380  6381
 LCBCLEN       4 00000004 FFFFFFEA     A    1478 3045  3516  4743  5665
 LCBCORE       4 00000000 FFFFFFEA     A    1477 2718  4749  5160  5312  7041  7995  8464  8655  8688  8756  8831
 LCBCSD        4 00000008 FFFFFFEA     U    1608 2758  3582  3711  3926  4007  4578  4686  5262  5680  6761  6920  6978
                                                 7323  7327  7381  7748
 LCBCSDH       4 00000088 FFFFFFEA     A    1609 1987M 3334  6113  6520  8313  8575  8653  8754  8795
 LCBCSDLC      4 0000008C FFFFFFEA     A    1610 1989M 5725  5729M 5766  7371  7427
 LCBEND        4 00000100 FFFFFFEA     F    1683 1928
 LCBEP         4 00000070 FFFFFFEA     A    1541 1928  1929M 1929  1930M 2696  2719M 2792M 3049  3063M 7558
 LCBFL         1 0000007C FFFFFFEA     R    1546 1554  1563  1572  1581  1590  1599
 LCBFMI        8 0000007C FFFFFFEA         1581 2133  2133  2134  2151M 2282  2282  2283  2526  2553  3482  3637  3799
                                                 5177M 6497  6497  6498
 LCBFMO        4 0000007C FFFFFFEA         1590 2133  2133  2282  2282  6497  6497  6567  6794  7080M 7195
 LCBFPAG       1 0000007C FFFFFFEA         1599 5662M
 LCBFPAGN     32 0000007C FFFFFFEA         1572 5601  5620M 6152M
 LCBIDRFL      4 00000064 FFFFFFEA     R    1483 1484  3042M 7557
 LCBLC         4 00000078 FFFFFFEA     F    1543 3044  3685  3687  3817  5159  5178  5180M 5629  5667M 6153  6156M 7067M
                                                 7559  7643
 LCBLSD        4 000000A8 FFFFFFEA     A    1631 2618  2637M 2637  3672M 3672  3678M 4737
 LCBMAP        4 00000008 FFFFFFEA     A    1479 1608  1921  1932
 LCBMFCCW     16 000000E2 FFFFFFEA         1669 7611  7900M 8004M
 LCBMFCSD    128 000000E2 FFFFFFEA         1654 7229  7462  7479M
 LCBMFIDR     64 000000E2 FFFFFFEA         1659 7537  7565M
 LCBMFL        1 000000E2 FFFFFFEA     R    1650 1654  1659  1664  1669  1674  1679
 LCBMFRLD      8 000000E2 FFFFFFEA         1674 7987M 8019  8162M 8195M
 LCBMFTXT     32 000000E2 FFFFFFEA         1664 7629  7915M
 LCBMLEN       4 000000BC FFFFFFEA     A    1635 2158M 2158  3536  3543M 3838  3845M 5110  5138  5179
 LCBMOCCW      4 000000D8 FFFFFFEA     A    1646 7680M 7681M 7801  7889  7891M 7892  7994
 LCBMOCSD      4 000000C0 FFFFFFEA     A    1639 7072M 7245  7482M
 LCBMOID       2 000000D2 FFFFFFEA     H    1644 7074M 7244  7484M
 LCBMOLC       4 000000C8 FFFFFFEA     A    1641 7577M 7638  7683M 7782M 7878  7880M
 LCBMOMTB      2 000000D0 FFFFFFEA     H    1643 7645  7657
 LCBMORLD      4 000000D4 FFFFFFEA     A    1645 7918M 8009  8039M
 LCBMORNT      4 000000C4 FFFFFFEA     A    1640 7256  7483M
 LCBMOSD       4 000000CC FFFFFFEA     A    1642 7073M 7313  7378M 7572M 7639  7901M
 LCBMOSID      2 000000E0 FFFFFFEA     H    1647 7324M 7358
 LCBMPLEN      4 0000000C FFFFFFEA     A    1480 1945  1978
 LCBMXC        4 00000074 FFFFFFEA     F    1542 2377
1VLDR     (VLDR00) (09:48) (22MAR04) Ordinary Symbol and Literal Cross Reference                                            Page   94
 LCBNRNTE      2 000000A4 FFFFFFEA     H    1630 1942M 5808  5829  5853
 LCBR         11 0000000B 00000001 A   #    1125 1813  1813  1813  1917U 2117U 2266U 2503U 2711M 5994U 6108U 6252U 6364U
                                                 6481U 6914U 7183U 8310U 8401U 8568U
 LCBRF         4 00000010 FFFFFFEA     A    1481 5378
 LCBRHF        4 00000094 FFFFFFEA     A    1616 5756  5760M 5781  5782M
 LCBRLD        4 00000098 FFFFFFEA     A    1617 1621  6744  7916
 LCBRLDLC      4 00000090 FFFFFFEA     A    1615 1985M 5727  5764  5768M 6755  7931  8083  8174
 LCBRNT        4 000000A0 FFFFFFEA     A    1629 1947M 5806  5832  5856  7328  7382
 LCBSD         4 00000098 FFFFFFEA     A    1622 1983M 6921  6973  7073  7571
 LCBSDEND      4 000000A0 FFFFFFEA     A    1624 1628  1977M 1982  5686
 LCBSDLC       4 0000009C FFFFFFEA     A    1623 1984M 5683  5688M 6922  7314  7379  7872
 LCBSEQ        3 0000007D FFFFFFEA     P    1602 1931M 2615M 6508M
 LCBSRCH       4 000000B4 FFFFFFEA     A    1634 8313M 8417  8467M
 LCBSTART      4 00000000 FFFFFFEA     F    1476 1682  1684  1684
 LCBXFL        1 00000064 FFFFFFEA     R    1487 1495  1504  1513  1522  1531
 LDALIAS       4 0000118E 00000001     I    6198 6196
 LDCDEL        4 0000067A 00000001     I    3571 4193B
 LDCHANGE      4 000010F2 00000001     I    5940 5938
 LDCLOOP       4 0000068C 00000001     I    3592 3604B
 LDENTRY       4 000019D2 00000001     I    8705 8703
 LDENTRY0      2 000019EE 00000001     H    8767 8774B 8784B 8788B
 LDENTRY1      2 00001A20 00000001     H    8797 8806B 8818B 8820B 8822B 8825B
 LDENTRY5      2 00001A3A 00000001     H    8808 8804B
 LDENTRY8      2 00001A5A 00000001     H    8827 8802B
 LDFCM         2 000012EA 00000001     H    6696 6548B
 LDFIND        4 0000194A 00000001     I    8507 2713B 8505
 LDFIX         4 000011FC 00000001     I    6427 6425
 LDFLOOP       2 000012FE 00000001     H    6713 6521B 6532B 6543B 6545B 6547B 6550B 6551B 6552B 6553B 6570B 6620B 6624B
                                                 6636B 6663B 6693B
 LDFLR         2 00001276 00000001     H    6559 6546B
 LDFLRER       2 000012A8 00000001     H    6627 6605B
 LDFND         2 0000191C 00000001     H    8430 8588B
 LDFPR         2 000012B4 00000001     H    6646 6549B
 LDFRLD        4 00001320 00000001     I    6754 6758B 6813B
 LDGO          4 00000108 00000001     I    2212 2210
 LDINIT        4 00000016 00000001     I    1873 1871
 LDMIGO        4 000001EC 00000001     I    2449 2447
 LDMIINIT      4 000000DE 00000001     I    2063 2061
 LDMOGO        4 00001476 00000001     I    7129 7127
 LDMOINIT      4 0000135C 00000001     I    6860 6858
 LDMSG         1 00000000 00000002     T    5192 5192
 LDNEX         4 0000193A 00000001     I    8465 8450B
 LDNEXT        4 000018FA 00000001     I    8347 8345
 LDPAGE        4 00001124 00000001     I    6054 6052
 LDPAGFN       2 0000116E 00000001     H    6139 6127B
 LDPAGLP       2 00001142 00000001     I    6123 6126B
 LDPAGNX       2 00001176 00000001     H    6148 6112B
 LDREPDEL      4 000011B6 00000001     I    6310 6308
 LDRERR        4 00000162 00000001     I    2332 3430B 3431B 3432B 4000B 4113B 4155B
 LDSECT        4 00001976 00000001     I    8603 8601
 LDSECT1       2 00001992 00000001     H    8666 8673B 8683B 8687B
 LDSET         4 000018E0 00000001     I    8256 8254
 LDSRTN        4 00001942 00000001     I    8467 8589B
 LDWA         81 00000000 FFFFFFE7     J    1848 1841  1908U 2108U 2257U 2494U 5985U 6099U 6243U 6355U 6472U 6905U 7174U
                                                 8301U 8392U 8559U
 LDWASZ        1 00000051 FFFFFFE7 A   U    1841 1875  2065  2214  2451  5942  6056  6200  6312  6429  6862  7131  8258
                                                 8349  8509  8605  8707
 LDWDLEN       4 0000003C FFFFFFE7     A    1826 5522  5561M
 LDWESDMD    128 00000050 FFFFFFE7         1838 3122M
1VLDR     (VLDR00) (09:48) (22MAR04) Ordinary Symbol and Literal Cross Reference                                            Page   95
 LDWESDTP      1 0000003C FFFFFFE7     X    1814 1825  3204M 3310M 3311M 3312  3314M 3357  3419  4046  4094  4200  4569
 LDWFLAG       1 00000050 FFFFFFE7     R    1830 1838  3097M
 LDWLDC        2 00000044 FFFFFFE7     H    1821 3341M 3341  3381M 3571  3698  4180M
 LDWP          2 00000046 FFFFFFE7     H    1819 4867  4998  5506  5540M 6743M 6743
 LDWPRCL       4 00000040 FFFFFFE7     A    1824 6519M 6519  6662  6679  6686M 6722
 LDWR          2 00000044 FFFFFFE7     H    1818 4936  4998
 LDWRANDP      2 00000044 FFFFFFE7     H    1817 1818  1819  1820  4851M 5038M 8081M 8081  8095  8153M
 LDWTEMP       4 00000048 FFFFFFE7     F    1822 2362M 2369  2836M 2843  5407  5430M 5430  5433  5467M
 LDWTXEND      4 00000040 FFFFFFE7     A    1816 1823  3199M 3438  4850M 5040  5045
 LFA           4 00001234 00000001     I    6531 6720B
 LMDCSDND      2 00001560 00000001     H    7385 7372B 7380B
 LMDEORR1      2 000018A2 00000001     H    8173 8185B
 LMDEORR2      2 000018BA 00000001     H    8188 8175B
 LMDEORR3      2 000018C2 00000001     H    8197 8183B
 LMDESE1       2 00001596 00000001     H    7420 7396B 7398B
 LMDESE2       2 0000159A 00000001     H    7424 7400B 7413B
 LMDTXL5       2 00001734 00000001     H    7869 7811B 7854B
 LMDTXTG1      2 00001678 00000001     H    7642 7598B
 LMINPRCS      2 00000124 00000001     H    2294 2286B
 LMOBYBY       4 000018D0 00000001     I    8211 8022B
 LMOCCW        2 000017C0 00000001     H    7993 7614B
 LMOCSDGO      2 000014E8 00000001     I    7316 7387B
 LMOEOB        4 000015E2 00000001     I    7485 7548B 7590B 7907B 8044B 8202B
 LMOEOBES      4 000015D6 00000001     I    7482 7279B
 LMOEOBTX      4 0000175A 00000001     I    7889 7696B 7875B 7965B 7988B
 LMOEOR        2 000015B0 00000001     I    7432 7330B 7388B 7394B 7480B
 LMOEORRL      4 0000188E 00000001     I    8166 8086B 8139B
 LMOESD        4 000014B0 00000001     I    7267 7465B
 LMOESEND      2 000015CE 00000001     H    7475 7392B 7428B
 LMOESER       2 0000156A 00000001     I    7391 7315B 7383B 7430B
 LMOIDRGO      2 0000160A 00000001     H    7527 7232B 7471B
 LMONULL       4 0000146A 00000001     I    7094 6924B
 LMORLDGO      4 000017D8 00000001     I    8009 7632B
 LMORLDLP      4 00001816 00000001     I    8083 8106B
 LMORLEND      2 00001884 00000001     H    8158 8084B
 LMORLNEW      4 0000184C 00000001     I    8108 8096B
 LMORLNUL      4 000018C8 00000001     I    8201 8170B
 LMORLNXT      4 0000183A 00000001     I    8103 8154B
 LMORLNX1      4 00001844 00000001     I    8105 8094B 8132B
 LMORLREC      2 000017E4 00000001     H    8038 8199B
 LMOTXEND      2 0000178C 00000001     H    7911 7873B
 LMOTXLP       4 000016CE 00000001     I    7725 7833B 7877B
 LMOTXTGO      2 00001660 00000001     H    7601 7540B 7804B
 LMRLDCHK      2 0000179C 00000001     H    7921 7979B
 LMRLDNON      4 000017B4 00000001     I    7981 7934B
 LSA           4 00001960 00000001     I    8585 8587B
 MARKLMI       2 000000FA 00000001     H    2145 2137B
 MODSHFTD      2 0000143A 00000001     H    7046 7034B
 MOFCLP        4 000013EA 00000001     I    6975 7066B
 MOFLP1        4 0000137E 00000001     I    6925 6963B
 MOFLP2        4 00001394 00000001     I    6933 6960B
 MOFSRTD       2 000013E4 00000001     H    6968 6927B
 MRC           1 00000000 FFFFFFE9     J    1725 2858U 2886  2926U 2954  2989U 3016  3089U 3156  4784U 4806  5100U 7217U
                                                 7286  7287M 7287  7722  7723M 7723  8051  8052M 8052
 MRCCW         8 00000008 FFFFFFE9     W    1786 5108  5128  7892M 7893M 7894M
 MRCTLCNT      2 00000004 FFFFFFE9     R    1784 4807  7905M
 MRCTLID       1 00000001 FFFFFFE9 A   U    1735 2599  2600  2602  2603  5083  7724
 MREOMID       1 00000008 FFFFFFE9 A   U    1732 2598  2599  2600  5169  7981  8163  8189
 MREOSID       1 00000004 FFFFFFE9 A   U    1733 2598  2599  2600  5169  7981  8163  8189
1VLDR     (VLDR00) (09:48) (22MAR04) Ordinary Symbol and Literal Cross Reference                                            Page   96
 MRESAMOD      1 00000080 FFFFFFE9 A   U    1748 3110
 MRESD       240 00000008 FFFFFFE9     X    1752 3129  3156  5209  7267  7286  7290  7290  7433
 MRESDCNT      2 00000006 FFFFFFE9     R    1751 3130  7435M
 MRESDID       1 00000020 FFFFFFE9 A   U    1730 2596  7288
 MRESFLAG      1 00000001 FFFFFFE9     R    1747 3110
 MRESID        2 00000004 FFFFFFE9     R    1750 3128  7289M
 MRID          1 00000000 FFFFFFE9     R    1726 7288M 7556M 7724M 7981M 8053M 8163M 8189M
 MRIDR       255 00000001 FFFFFFE9     C    1764 1765  1776  1776  1778  3016  5208  7555M 7555
 MRIDRCNT      1 00000001 FFFFFFE9     R    1766 2996
 MRIDREND      4 00000100 FFFFFFE9     F    1777 1778  7546
 MRIDREP       4 0000000C FFFFFFE9     A    1775 3063  7558M
 MRIDRFL       5 00000003 FFFFFFE9     C    1773 3042  7557M
 MRIDRID       1 00000080 FFFFFFE9 A   U    1728 2594  8870
 MRIDRLST      1 00000080 FFFFFFE9 A   U    1769 3039  8870
 MRIDRMSZ      4 00000008 FFFFFFE9     A    1774 3043  7559M
 MRIDRORV      1 00000010 FFFFFFE9 A   U    1768 3040  8870
 MRIDRSIZ      4 000000FF FFFFFFE9 A   U    1778 7554  8870
 MRIDRTYP      1 00000002 FFFFFFE9     R    1767 3039M 3040
 MRRLD       240 00000010 FFFFFFE9     X    1787 4786  4806  5216  7578  7684  7697  7697  7722  7903  8040  8042  8051
                                                 8054  8054  8168
 MRRLDCNT      2 00000006 FFFFFFE9     R    1785 4787  8171M
 MRRLDID       1 00000002 FFFFFFE9 A   U    1734 2598  2600  2601  2603  4835  8053
 MRSCT         1 00000004 FFFFFFE9     X    1759 2954  5207
 MRSCTCNT      2 00000002 FFFFFFE9     R    1758 2928
 MRSCTID       1 00000010 FFFFFFE9 A   U    1731 2597
 MRSRCH        4 00000260 00000001     F    2589 2567
 MRSYM       240 00000004 FFFFFFE9     X    1742 2886  5206
 MRSYMCNT      2 00000002 FFFFFFE9     R    1741 2860
 MRSYMID       1 00000040 FFFFFFE9 A   U    1729 2595
 MRTBL         4 0000026C 00000001     F    2593 2591
 MRTBLND       1 000002BC 00000001     C    2604 2590
 MR1           1 00000001 FFFFFFE9     X    1737 1744  1754  1761  1780
 MSGEX         2 0000018E 00000001     H    2356 2339B 2342B 2345B
 MSGEX16       4 00000172 00000001     I    2338 2327B 2337B
 MSGEX4        4 0000018A 00000001     I    2347 5499B 7097B
 MSGEX8        4 00000182 00000001     I    2344 2000B 2305B 2577B 2584B 4520B 4770B 5065B 5699B 5706B 5844B
 MVCERRMS      6 000009E0 00000001     I    4512 4475X
 NAMEMSG       2 0000097A 00000001     H    4436 4528B 4535B
 NAMSTRP       2 00000998 00000001     H    4449 4466B
 NOPAGE        2 00000FB2 00000001     I    5663 5642B
 NOSDCORE      2 00000FEC 00000001     H    5692 3046B 3519B 5666B
 NOSTABS       2 00000BC6 00000001     H    5009 4999B
 NOVERLAP      2 0000141E 00000001     H    7033 7030B
 NXTCC         6 00000128 00000001     I    2296 2298B
 NXTESD        4 00000620 00000001     I    3437 3233B 3298B 3425B 3433B 3465B 3573B 3612B 3700B 3752B 3802B 3850B 3900B
                                                 3955B 4198  4201B 4203B 4304B 4306B
 NXTMR         6 00000234 00000001     I    2568 2570B
 OLDRP         4 00000BF0 00000001     I    5044 5032B
 OUTINIT       2 00001492 00000001     H    7206 7198B
 PRCLCSD       1 000000C6 00000001     X    2047 1986  2048  2050  2052
 PROCERR       4 00000152 00000001     I    2322 2143B 2292B 2562B 6507B 6510B 6544B 6947B 7031B 7204B 7671B
 PUSHMSG       6 0000014C 00000001     I    2317 4546X
 QR            4 00000004 00000001 A   #    1047 2295M 2298M 2567M 2570M 3156M 3157  3175  4710M 4712  4715M 4716M 4716
                                                 4746M 4746  4748M 4751  4806M 4807M 4815  4833  5137M 5141  5286M 5289M
                                                 5292  5299M 5301  5306M 5307M 5308  5383M 5408  5432  5450  5452M 5455
                                                 5458M 5469  5516  5522M 5539  5559M 5561  6922M 6923  6926  6959  7065
                                                 7313M 7314  7377M 7378  7379  7643M 7644M 7645  7657M 7658M 7681  7682
                                                 7801  7810M 7810  7838M 7850M 7850  7851  7852  7853M 7853  7874M 7874
                                                 7879  7890  8654M 8655M 8682  8684  8755M 8756M 8783  8785  8817
1VLDR     (VLDR00) (09:48) (22MAR04) Ordinary Symbol and Literal Cross Reference                                            Page   97
 RAR           9 00000009 00000001 A   #    1112 1991M 2000M 2305M 2325M 2327M 2335M 2337M 2366M 2367M 2367B 2535M 2536M
                                                 2537  2577M 2584M 2612M 2613M 2614  2682M 2713M 2728M 2794M 2811M 2840M
                                                 2841M 2841B 3235M 3351M 3387M 3648M 3665M 3684M 3865M 4010M 4080M 4182M
                                                 4481M 4482M 4482B 4520M 4560B 4582B 4613M 4770M 4854M 4869M 4938M 5013M
                                                 5051M 5065M 5163M 5164M 5165  5249  5291M 5454M 5472M 5473B 5499M 5538
                                                 5542M 5543M 5569B 5669B 5689B 5699M 5706M 5731B 5745B 5770B 5791B 5815B
                                                 5834B 5844M 5898B 5998M 6131M 6256M 6368M 6578M 6699M 6710M 6801M 7018M
                                                 7097M 7321M 7326M 7360M 7422M 7432M 7434M 7435  7502B 7728M 7902M 7906
                                                 8110M 8144M 8167M 8198  8211M 8212M 8213
 RECHRP        4 00000512 00000001     I    3270 3293B
 RELCSD        2 00001036 00000001     H    5740 2811B
 RELERAX       4 00000F32 00000001     I    5496 5302B 5309B
 RELMA         6 00000F26 00000001     I    5475 5432X
 RELMB         6 00000F2C 00000001     I    5476 5469X
 RELOC         2 00000E4A 00000001     H    5247 6801B
 RELRLD        2 0000107A 00000001     H    5780 5051B
 RENUM         2 00000A58 00000001     I    4568 3387B 4010B 4080B 4182B
 RLD          12 00000000 FFFFFFEC     X    1374 4863U 5258U 5769  6752U 7947U 8035U 8141M 8145M 8859
 RLDADDR       4 00000004 FFFFFFEC     A    1371 4970M 5286  5311M 8104
 RLDBYE        2 00000C00 00000001     I    5049 5042B 5047B
 RLDCARD       2 00000B46 00000001     H    4844 2392
 RLDCOM        2 00000B56 00000001     I    4849 4837B
 RLDDLNK       4 00000008 FFFFFFEC     A    1372 5000M 5385
 RLDDSECT      1 00000000 FFFFFFEC     J    1312 1316  1374  1374  1456  1718
 RLDERA        2 00000C0A 00000001     H    5056 4912B
 RLDERB        2 00000C0A 00000001     H    5058 4930B
 RLDFABS     128 00000004 FFFFFFEC         1339 5007M 5346  5443  6808M
 RLDFBRA      16 00000004 FFFFFFEC         1348 4989  5418
 RLDFL         1 00000004 FFFFFFEC     R    1322 1339  1348  1357  1366  1370  5303  5790M 6757
 RLDFN         1 00000004 FFFFFFEC         1366 7962M 8093M 8182M
 RLDFS         2 00000004 FFFFFFEC         1357 5395
 RLDNXA        2 00000B96 00000001     H    4943 5046B
 RLDNXB        4 00000B6C 00000001     I    4867 5041B
 RLDP          2 00000002 FFFFFFEC     H    1319 4962M 5260  5289  8108  8141M
 RLDR          2 00000000 FFFFFFEC     H    1318 5011M 5452  6759  8095  8142  8145M 8153
 RLDREC        2 00000B0E 00000001     H    4776 2598  2599  2600  2601  2602  2603
 RLDSDGON      2 00000BD2 00000001     H    5019 4894B 4956B
 RLDSTART      4 00000000 FFFFFFEC     A    1317 5790M
 RNT           6 00000000 FFFFFFEB     J    1455 1955U 1963M 1963  2736U 3243U 4621U 4880U 4978U 5201  5551U 5807  6586U
                                                 7026U 7264U 7736U 8118U 8860
 RNTCSD        2 00000000 FFFFFFEB     H    1388 2756  3381  3709  3923  4005  4180  4580M 4677  4962  5011  7499M 7738
                                                 8141  8145
 RNTDLNK       3 00000003 FFFFFFEB     R    1447 4581M 5000  5559  6617  7036M
 RNTF          2 000010A2 00000001     H    5826 3235B 3865B 5542B 6578B 7018B 7321B 8110B
 RNTFCM        1 00000002 FFFFFFEB         1444 4326
 RNTFDEL      64 00000002 FFFFFFEB         1408 3406M 3562M 3789M 3893  4192M 4632  4891  4953  5869
 RNTFER        2 00000002 FFFFFFEB         1435 4323  4331
 RNTFERX       2 000010BC 00000001     H    5837 5828B 5830B 5852B 5854B 5888B
 RNTFL         1 00000002 FFFFFFEB     R    1391 1399  1408  1417  1426  1435  1444  4233M 4572M
 RNTFSD        4 00000002 FFFFFFEB         1426 2747  3914  4321  4325  4650  4909  6601  6601  6602  7054  7054  7055M
 RNTFSDX       8 00000002 FFFFFFEB         1417 3373  3373  3993  4018  4018  4071  4071  4174  4217  4668  4927
 RNTFU         2 000010C8 00000001     H    5850 2728B 4613B 4869B 4938B 7728B 8144B
 RNTFUSE     128 00000002 FFFFFFEB         1399 1969M 3373  3373  3374  3875  4018  4018  4019M 4071  4071  4072  4321
                                                 4323  4324  4325  4326  4327  4331  5885  6601  6601  7054  7054  7498M
                                                 8129
 RNTNXT        1 00000006 FFFFFFEB     X    1448 7370  7426
 RR            5 00000005 00000001 A   #    1145 8781M 8783  8786  8821
 R0            0 00000000 FFFFFFFF A   #     702 1873  1998M 2063  2212  2303M 2323M 2333M 2381M 2449  2505M 2505  2575M
                                                 2582M 2696M 2697M 2697  2834M 2887M 2906  2955M 2974  3017M 3035  3036M
1VLDR     (VLDR00) (09:48) (22MAR04) Ordinary Symbol and Literal Cross Reference                                            Page   98
                                                 3037M 3038  3043M 3044M 3045  3049M 3050M 3050  3157M 3176  3230M 3231
                                                 3649M 3659  3660M 3662  3675M 3676M 3676  3688M 3690  3709M 3746  3961M
                                                 3962M 3979  4097M 4106M 4106  4138  4432M 4438  4439  4439  4439  4471
                                                 4477M 4499M 4509M 4518M 4526M 4533M 4542  4543  4549  4559M 4576M 4576
                                                 4579M 4722M 4723M 4725  4768M 4815M 4834  5063M 5212  5212  5212  5303M
                                                 5304M 5305M 5306  5383  5384M 5385M 5402M 5402  5433M 5455M 5467  5497M
                                                 5626M 5627M 5628  5664M 5665  5667  5679M 5679  5681M 5682M 5684  5697M
                                                 5704M 5720M 5721  5726M 5727  5729  5741M 5743  5759M 5760  5781M 5783
                                                 5814M 5842M 5940  6054  6198  6310  6427  6679M 6680M 6681M 6682  6860
                                                 6920M 6931  6936  7041M 7042  7043M 7044M 7095M 7129  7207  8256  8347
                                                 8437M 8465  8507  8603  8705  8792M 8792  8819  8823M 8831M 8832
 R1            1 00000001 FFFFFFFF A   #     715 1997M 2302M 2317  2322M 2332M 2565  2574M 2581M 2680M 2716M 2716  2718M
                                                 2719  2724M 2725  2756M 2757M 2758M 2773U 2790M 2791M 2792  2809M 2833M
                                                 2858U 2905M 2906  2926U 2973M 2974  2989U 3036  3089U 3175M 3176  3212M
                                                 3214M 3214  3229M 3352  3354  3419M 3421M 3422B 3452M 3462M 3462  3571M
                                                 3572M 3572  3581M 3582M 3590U 3602M 3603M 3603  3646M 3649  3656M 3660
                                                 3663M 3682M 3686M 3734M 3736M 3738  3780M 3782  3815M 3817M 3826M 3838
                                                 3845  3863M 3923M 3924  3925M 3926M 3941U 4005M 4006M 4007M 4008  4094M
                                                 4096M 4096  4097  4118M 4132M 4137M 4137  4138M 4139M 4139  4148M 4148
                                                 4160B 4250M 4263  4270  4431M 4478M 4512  4517M 4525M 4532M 4548M 4569M
                                                 4571M 4571  4577M 4578M 4580  4611M 4724M 4725  4743  4767M 4784U 4833M
                                                 4834  4855  4867M 4936M 5014  5049M 5062M 5091M 5100U 5138M 5139M 5140M
                                                 5141  5178M 5179M 5180  5181M 5182M 5183  5327U 5496M 5504  5505  5505
                                                 5505  5539M 5540  5568M 5590U 5663M 5668M 5680M 5682  5683M 5685M 5686
                                                 5688  5696M 5703M 5717M 5718M 5718  5725M 5742  5756M 5757M 5757  5764M
                                                 5765M 5766  5768  5782  5813M 5813  5827M 5827  5829  5831M 5833  5841M
                                                 5851M 5851  5853  5855M 5857  6006U 6009  6132  6134  6264U 6267  6376U
                                                 6379  6538M 6540M 6540  6541M 6541  6542B 6576M 6617M 6619M 6619  6677M
                                                 6680  6681  6682M 6684  6685M 6686  6697M 6701  6708M 6759M 6760M 6761M
                                                 6769U 6921M 6923  6962M 6976M 7028M 7029M 7036  7039M 7040  7094M 7208
                                                 7319M 7576M 7576  7577  7638M 7644  7680  7682M 7683  7726M 7779M 7782
                                                 7819M 7820M 7820  7838  7852M 7870  7878M 7879M 7880  7889M 7890M 7891
                                                 7916M 7917M 7918  7931  7947U 8108M 8142M 8435M 8435  8436M 8462M 8464M
                                                 8465  8654  8684M 8685M 8686  8755  8785M 8786M 8787  8858  8858  8858
 R10          10 0000000A FFFFFFFF A   #     832 2362  2363M 2369M 2836  2837M 2843M 3342M 4855M 4863U 5014M 5049  6123M
                                                 7244M 7289  7324  7484  7499  7500M 7571M 7572  7639M 7832M 7867M 7872
                                                 7901
 R12          12 0000000C FFFFFFFF A   #     858 2618M 2619M 2619  2645U 2680  2797M 2798M 2798  2807U 2809  2814M 2815M
                                                 2815  2817  3329U 3334M 3342  3343M 3353  3354M 3625U 3646  3663  3678
                                                 3682  3767U 3977U 4577  6113M 6121U 6123  6124M 6133  6134M 6520M 6529U
                                                 6697  6708  6714M 6934M 6935M 6936M 6954  6975M 6976  6977M 6978M 6986U
                                                 7071M 7071  7072  7245M 7253U 7316M 7316  7318M 7319  7322M 7323M 7327M
                                                 7369M 7371  7376M 7376  7381M 7391M 7391  7425M 7427  7482  7725M 7726
                                                 7747M 7748M 7756U 8009M 8035U 8039  8083  8105M 8174  8184M
 R13          13 0000000D FFFFFFFF A   #     871 4540  4541  4542M
 R14          14 0000000E FFFFFFFF A   #     884 1873  2063  2212  2381M 2449  3502M 3504  5940  6054  6198  6310  6427
                                                 6860  6933M 6934  6952  6953  6972M 6972  7003M 7004M 7029  7038  7043
                                                 7063M 7067  7129  7209M 7217U 7448M 7485M 7486  7566M 7906M 8198M 8201
                                                 8256  8347  8507  8603  8705  8794M 8794  8824M 8828M 8828  8830
 R15          15 0000000F FFFFFFFF A   #     897 2143M 2292M 2338M 2341M 2344M 2347M 2377M 2562M 2714M 2714  2781M 2790
                                                 2835M 2881M 2900M 2949M 2968M 3011M 3030M 3151M 3170M 3251M 3252M 3252
                                                 3264U 3270M 3271M 3271  3430M 3431M 3432M 3494M 3504M 3516  3536  3687M
                                                 3688  3707M 3736  3824M 3826  4000M 4113M 4155M 4433M 4438  4439  4439
                                                 4439  4499M 4509M 4527M 4534M 4551  4552M 4553M 4554  4556M 4557M 4558
                                                 4801M 4828M 5123M 5154M 5212  5212  5212  5258U 5625M 5629M 5655M 5656M
                                                 5663  5664  5668  6507M 6510M 6544M 6744M 6752U 6754M 6755  6925M 6926
                                                 6947M 6958M 6959  6973M 7031M 7064M 7065  7204M 7207M 7208M 7304  7589
                                                 7671M 7711  8068  8164M 8407M 8407  8431M 8574M 8574  8652M 8652  8691M
                                                 8753M 8753  8833M
1VLDR     (VLDR00) (09:48) (22MAR04) Ordinary Symbol and Literal Cross Reference                                            Page   99
 R2            2 00000002 FFFFFFFF A   #     728 4471M 4472M 4475  4543M 4544M 4546  4547M 4548  4549M 4550M 4551  4554
                                                 4555  4555  4558  5506M 5516  7978M
 R3            3 00000003 FFFFFFFF A   #     741 4445M 4466M 5504  5505  5505  5505  5538M 5543  5568M 8858  8858  8858
 R4            4 00000004 FFFFFFFF A   #     754 4444M 4446M 4465M 4473M 4473  4476M 4477  4512
 R5            5 00000005 FFFFFFFF A   #     767 2317  2371  2372M 4441M 4443  4444  4476  4478  4506  4540  4541M 4547
 SAVESD        2 00000FC6 00000001     H    5677 3665B 3684B 6710B
 SCATREC       2 000003D8 00000001     H    2918 2597
 SDKEEP        6 000006A2 00000001     I    3627 3553B
 SDLM          2 000006E6 00000001     I    3682 3640B
 SETABS        2 00000BC2 00000001     H    5003 4992B
 SR            2 00000002 00000001 A   #    1021 1920M 1921M 1932M 1946  1987  1988M 1988  1989  2295M 2298  2307M 2315B
                                                 2567M 2570  2586M 2587B 2860M 2868  2886M 2887  2905  2928M 2936  2954M
                                                 2955  2973  2996M 2998  3016M 3017  3037  3129M 3185M 3193U 3198  3437M
                                                 3438  4677M 4685M 4686M 4694U 4737  4786M 4845M 4849  4852M 5039M 5040
                                                 5044M 5045  5128M 5136M 5162  5278M 5288M 5288  5292M 5301  5308  5311
                                                 5312M 5806M 5807M 5814M 6153M 6154M 6155M 6156  6621M 6622M 6623  6928M
                                                 6929  6951  6953M 7015M 7028  7042M 7044M 7267M 7275U 7329  7386  7393
                                                 7429  7432  7448  7501M 7578M 7586U 7684M 7692U 7871M 7876  7902  7904M
                                                 7905  7994M 7995M 7996  8040M 8085  8103M 8138  8140M 8164  8166M 8167
                                                 8169M 8171  8417M 8418M 8418  8427U 8466M 8467  8575M 8583U 8585M 8653M
                                                 8663U 8669M 8670M 8670  8754M 8764U 8770M 8771M 8771  8795M 8800M 8801M
                                                 8801  8824  8830M
 SYMCARD       4 000003D4 00000001     I    2912 2393
 SYMREC        2 000003AC 00000001     H    2850 2595
 TR            3 00000003 00000001 A   #    1034 1932M 1933  1937M 1938M 1939  1941M 1942  1943M 1944M 1945M 1946M 1947
                                                 1955U 1977  1978M 1979M 1980M 1980  1981M 1981  1982M 1983  1984  1985
                                                 3130M 3138  3195M 3196  3198M 3199  3698M 3699M 3699  3710M 3711M 3726U
                                                 3749M 3750M 3750  4702M 4712M 4724  4749M 4787M 4788  4846M 4847  4849M
                                                 4850  4872M 4880U 5108M 5110  5137  5159M 5160M 5162  5260M 5261M 5262M
                                                 5270U 5335M 5359M 5378M 5384  5407M 5408M 5808M 5809M 6718M 6718  6719
                                                 6929M 6930M 6931M 6954M 7040M 7277M 7278  7290M 7291  7304M 7309M 7329
                                                 7386  7393  7429  7433M 7434  7546M 7547  7566  7588M 7589  7694M 7695
                                                 7697M 7698  7711M 7716M 7876  7903M 7904  7994M 7997  8042M 8043  8054M
                                                 8055  8068M 8073M 8085  8138  8168M 8169  8680M 8682  8685  8688M 8689
                                                 8815M 8817  8819  8821  8823
 TXTCARD       2 00000A80 00000001     H    4610 2391
 TXTERA        4 00000B02 00000001     I    4767 4653B 4671B 4738B
 TXTMA         6 00000AFC 00000001     I    4754 4751X
 VLDR          1 00000000 00000001     J     996  998  1029  1042  1055  1068  1081  1094  1107  1120  1133  1153  1232
                                                 1308  1854  5195
 VLDR00        1 00000000 00000001     R    1005 1003
 WAR           8 00000008 00000001 A   #    1099 1908U 2108U 2257U 2494U 5985U 6099U 6243U 6355U 6472U 6905U 7174U 8301U
                                                 8392U 8559U
 WARAR         4 00000024 FFFFFFE7     A    1810 2535  2537M 2612  2614M 5163  5165M 5181  5183M 8211  8213M
 WAR0          4 00000000 FFFFFFE7     A    1806 2906M 2974M 3035M 3176M 4834M 5162M 7486M 7997M 8414M 8414  8465M 8690M
 WAR1          4 00000004 FFFFFFE7     A    1807 3038M 7485  7996M 8201  8689M 8832M
 WAR10         4 00000028 FFFFFFE7     A    1811 2363  2837
 XRNT          5 00000005 00000001 A   #    1060 2736U 3243U 4621U 4872  4978U 5551U 5832M 5833M 5856M 5857M 6586U 7026U
                                                 7256M 7264U 7328M 7370M 7382M 7426M 7483  7736U 8118U
 =A(BASE+4096)
               4 00000CB0 00000001     A    5190 1891
 =A(BASE+4096,BASE)
               4 00000C98 00000001     A    5188 2080  2229  2466
 =A(BASE+4096,BASE)
               4 00001A90 00000001     A    8848 5957  6071  6215  6327  6444  6877  7146  8273  8364  8531  8630  8731
 =A(L'CSD)
               4 00000D00 00000001     A    5196 4579
 =A(L'CSD)
               4 00001AAC 00000001     A    8853 5681
1VLDR     (VLDR00) (09:48) (22MAR04) Ordinary Symbol and Literal Cross Reference                                            Page  100
 =A(VLDR)      4 00000CFC 00000001     A    5195 4553
 =A(0)         4 00000CE4 00000001     A    5193 2675
 =A(3)         4 00001AA0 00000001     A    8850 5305
 =AL1(MRIDRID,MRIDRSIZ,MRIDRORV+MRIDRLST)
               1 00001B16 00000001     R    8870 7556
 =C': COMMON SIZE GREATER THAN CSECT WITH SAME NAME'
              47 00000DF8 00000001     C    5223 4532
 =C': INVALID SYMBOL TYPE'
              21 00000DBE 00000001     C    5221 4431
 =C': PREVIOUSLY DEFINED'
              20 00000CE8 00000001     C    5194 4525
 =C'ENTRY INVALID'
              13 00000DB1 00000001     C    5220 2833
 =C'ERROR IN LOADER CALL SEQUENCE @             '
              44 00000CB4 00000001     C    5191 2322
 =C'ERROR IN LOADER INITIALIZATION'
              30 00000D12 00000001     C    5202 1997
 =C'INCOMPLETE LOAD MODULE'
              22 00000D4A 00000001     C    5204 2581
 =C'INVALID ADDRESS CONSTANT'
              24 00001A78 00000001     C    8847 5496
 =C'INVALID LOAD MODULE RECORD'
              26 00000D30 00000001     C    5203 2574
 =C'INVALID OBJECT CARD'
              19 00000D79 00000001     C    5218 2302
 =C'INVALID RLD ENTRY'
              17 00000E39 00000001     C    5226 5062
 =C'INVALID TEXT CARD'
              17 00000E28 00000001     C    5225 4767
 =C'MAP OVERFLOW. SPECIFY LARGER MAP SIZE'
              37 00000DD3 00000001     C    5222 4517
 =C'NO PROGRAM LOADED'
              17 00001B05 00000001     C    8869 7094
 =C'PROGRAM TOO LARGE'
              17 00001AE4 00000001     C    8866 5696
 =C'SEVERE ERROR IN LOADER @             '
              37 00000D8C 00000001     C    5219 2332
 =C'TOO MANY CSECTS'
              15 00001AF5 00000001     C    8867 5703
 =C'TOO MANY SYMBOLS IN MODULE'
              26 00001AC2 00000001     C    8861 5841
 =C'0123456789ABCDEF'
              16 00000CA0 00000001     C    5189 4556
 =CL8' '       8 00001A98 00000001     C    8849 6111  6383
 =F'-8'        4 00000D08 00000001     F    5198 5140
 =H'13'        2 00000D70 00000001     H    5213 4550
 =H'5'         2 00000D74 00000001     H    5215 4559
 =P'0'         1 00000D78 00000001     P    5217 1931  2615
 =P'0'         1 00001B04 00000001     P    8868 6508
 =V(LDMSG)
               4 00000CE0 00000001     V    5192 2366  2840  4481
 =X'00'        1 00000E27 00000001     X    5224 4552
 =X'00FFFFF8'
               4 00001AA4 00000001     X    8851 5627
 =X'00FFF000'
               4 00001AB0 00000001     X    8854 6155  7004
 =X'0000FFFF'
               4 00000D04 00000001     X    5197 5136
 =X'00007FF8'
1VLDR     (VLDR00) (09:48) (22MAR04) Ordinary Symbol and Literal Cross Reference                                            Page  101
               4 00001AB4 00000001     X    8855 7658
 =X'7FFFF000'
               4 00001AA8 00000001     X    8852 5656
 =XL2'F0'      2 00000D72 00000001     X    5214 4557
 =Y((R15+1-(R0)+16*((R0)/(R15+1))/((R0)/(R15+1)))*4)
               2 00000D6E 00000001     Y    5212 4498  4508
 =Y((R3+1-(R1)+16*((R1)/(R3+1))/((R1)/(R3+1)))*4)
               2 00001ABC 00000001     Y    8858 5567
 =Y((132+3)/4*4)
               2 00000D6C 00000001     Y    5211 4496
 =Y(-L'RNT)
               2 00000D10 00000001     Y    5201 1944
 =Y(CISEQ-CITEXT)
               2 00000D6A 00000001     Y    5210 3196  4847
 =Y(CTLSIZE)
               2 00001AE0 00000001     Y    8864 7716
 =Y(L'CSD)
               2 00000D60 00000001     Y    5205 2757  3581  3710  3925  4006  4685
 =Y(L'CSD)
               2 00001AB8 00000001     Y    8856 5261  6760  6930  6935  6977  7322  7747
 =Y(L'ESD)
               2 00001ADE 00000001     Y    8863 7309
 =Y(L'MRESD)
               2 00000D68 00000001     Y    5209 3138
 =Y(L'MRIDR)
               2 00000D66 00000001     Y    5208 2998
 =Y(L'MRRLD)
               2 00000D76 00000001     Y    5216 4788
 =Y(L'MRSCT)
               2 00000D64 00000001     Y    5207 2936
 =Y(L'MRSYM)
               2 00000D62 00000001     Y    5206 2868
 =Y(L'RLD)
               2 00001ABE 00000001     Y    8859 5765  6754  7917  7978  8105  8184
 =Y(L'RNT)
               2 00001AC0 00000001     Y    8860 5809  5831  5855
 =Y(1)         2 00001ADC 00000001     Y    8862 7074
 =Y(256)       2 00000D0C 00000001     Y    5199 1933
 =Y(32767)
               2 00000D0E 00000001     Y    5200 1939  1941
 =Y(4)         2 00001ABA 00000001     Y    8857 5457  5471
 =Y(8)         2 00001AE2 00000001     Y    8865 8073

1VLDR     (VLDR00) (09:48) (22MAR04) Macro and Copy Code Source Summary                                                     Page  102
- Con Source                                        Volume    Members                        HLASM R4.0  2004/03/22 09.48
0     PRIMARY INPUT                                           CSECT    DIAG     DROP     END      EX       LTORG    POP
                                                              PRINT    PUSH     START    USING
   L2 WYL.GG.SYS.MACLIB                             SYSB05    $BC      $BFLKUP  $BV      $CCLKUP  $CRS     $CSS     $L
                                                              $LA      $LBLAD   $LEXP    $LOR     $REL     $RGLKUP
                                                              $USLKUP  BASE     BEGIN    CLEAR    CSECT    DEFCC    DROP
                                                              ELSE     END      EX       FLAG     GEN      HIBAL
                                                              IDENT    IF       LABEL    LC       LCALL    LCM      LS
                                                              LT       LTORG    L3       POP      PRINT    PUSH
                                                              RECORD   REG      REGS     SET      SETMSG   START    ST3
                                                              USING    VCALL
   L3 WYL.GG.ORV.BC.MACLIB                          SYSB02    CSD      LCB      ORVDEFN  RLD      VENTER   VEXIT    VPOP
                                                              VPUSH    VREST    VSA      VSAVE
   L5 SYS3.IS.MACLIB                                SYSB05    SYSDEFN

1         (VLDR00) (09:48) (22MAR04) General Purpose Register Cross Reference                                               Page  103
- Register  References (M=modified, B=branch, U=USING, D=DROP, N=index)                      HLASM R4.0  2004/03/22 09.48
0    0(0)     985U  986D 1873  1998M 2063  2212  2303M 2323M 2333M 2381M 2449  2505M 2505  2575M 2582M 2696M 2697M 2697
             2834M 2887M 2906  2955M 2974  3017M 3035  3036M 3037M 3038  3043M 3044M 3045  3049M 3050M 3050  3157M 3176
             3230M 3231  3649M 3659  3660M 3662  3675M 3676M 3676  3688M 3690  3709M 3746  3961M 3962M 3979  4097M 4106M
             4106  4138  4432M 4438  4471  4477M 4499M 4509M 4518M 4526M 4533M 4542  4543  4549  4559M 4576M 4576  4579M
             4721M 4721  4722M 4723M 4725  4768M 4815M 4834  5063M 5303M 5304M 5305M 5306  5383  5384M 5385M 5402M 5402
             5433M 5455M 5467  5497M 5626M 5627M 5628  5664M 5665  5667  5679M 5679  5681M 5682M 5684  5697M 5704M 5720M
             5721  5726M 5727  5729  5741M 5743  5759M 5760  5781M 5783  5814M 5842M 5940  6054  6198  6310  6427  6679M
             6680M 6681M 6682  6860  6920M 6931  6936  7041M 7042  7043M 7044M 7095M 7129  7207  8256  8347  8437M 8465
             8507  8603  8705  8792M 8792  8819  8823M 8831M 8832
     1(1)     981U 1873  1997M 2063  2212  2302M 2317  2322M 2332M 2381M 2449  2565  2574M 2581M 2680M 2716M 2716  2718M
             2719  2724M 2725  2756M 2757M 2758M 2773U 2788U 2790M 2791M 2792  2809M 2833M 2858U 2866U 2905M 2906  2926U
             2934U 2973M 2974  2989U 3036  3074U 3089U 3136U 3175M 3176  3209D 3211M 3211  3212M 3213U 3214M 3214N 3229M
             3352  3354  3416D 3418M 3418  3419M 3420U 3421M 3422N 3449D 3451M 3451  3452M 3453U 3462M 3462  3571M 3572M
             3572  3581M 3582M 3590U 3602M 3603M 3603  3610U 3646M 3649  3653D 3655M 3655  3656M 3657U 3660  3663M 3682M
             3686M 3731D 3733M 3733  3734M 3735U 3736M 3738  3777D 3779M 3779  3780M 3781U 3782  3812D 3814M 3814  3815M
             3816U 3817M 3826M 3838  3845  3863M 3923M 3924  3925M 3926M 3941U 3968U 4005M 4006M 4007M 4008  4091D 4093M
             4093  4094M 4095U 4096M 4096  4097N 4118M 4132M 4137M 4137  4138M 4139M 4139N 4148M 4148  4160N 4247D 4249M
             4249  4250M 4251U 4263  4270  4431M 4438  4478M 4499M 4509M 4512  4517M 4525M 4532M 4548M 4566D 4568M 4568
             4569M 4570U 4571M 4571N 4577M 4578M 4579M 4580  4611M 4724M 4725  4743  4767M 4784U 4813U 4833M 4834  4855
             4867M 4936M 5014  5049M 5062M 5088D 5090M 5090  5091M 5092U 5100U 5134U 5138M 5139M 5140M 5141  5178M 5179M
             5180  5181M 5182M 5183  5327U 5483U 5496M 5504  5539M 5540  5568M 5590U 5663M 5668M 5680M 5681M 5682  5683M
             5685M 5686  5688  5696M 5703M 5717M 5718M 5718  5725M 5742  5756M 5757M 5757  5764M 5765M 5766  5768  5782
             5813M 5813  5814M 5827M 5827  5829  5831M 5833  5841M 5851M 5851  5853  5855M 5857  5940  6006U 6009  6019U
             6054  6132  6134  6198  6264U 6267  6275U 6310  6376U 6379  6393U 6427  6535D 6537M 6537  6538M 6539U 6540M
             6540  6541M 6541  6542N 6576M 6614D 6616M 6616  6617M 6618U 6619M 6619  6622  6674D 6676M 6676  6677M 6678U
             6680  6681  6682M 6684  6685M 6686  6697M 6701  6708M 6759M 6760M 6761M 6769U 6820U 6860  6921M 6923  6962M
             6976M 7028M 7029M 7036  7039M 7040  7044M 7094M 7129  7208N 7319M 7576M 7576  7577  7638M 7644  7680  7682M
             7683  7726M 7776D 7778M 7778  7779M 7780U 7782  7819M 7820M 7820  7838  7852M 7870  7878M 7879M 7880  7889M
             7890M 7891  7916M 7917M 7918  7931  7947U 7976U 8108M 8142M 8256  8347  8435M 8435  8436M 8459D 8461M 8461
             8462M 8463U 8464M 8465  8507  8603  8654  8684M 8685M 8686  8705  8755  8785M 8786M 8787
     2(2)     977U 1873  1920M 1921M 1932M 1946  1987  1988M 1988  1989  2063  2212  2295M 2298  2307M 2315B 2381M 2449
             2567M 2570  2586M 2587B 2860M 2868  2886M 2887  2905  2928M 2936  2954M 2955  2973  2993D 2995M 2995  2996M
             2997U 2998  3016M 3017  3037  3129M 3185M 3193U 3198  3437M 3438  4438  4471M 4472M 4475  4499M 4509M 4543M
             4544M 4546  4547M 4548  4549M 4550M 4551  4554  4555  4555  4558  4588U 4677M 4685M 4686M 4694U 4737  4761U
             4786M 4845M 4849  4852M 5039M 5040  5044M 5045  5128M 5136M 5162  5275D 5277M 5277  5278M 5288M 5288N 5292M
             5301  5308  5311  5312M 5504  5506M 5516  5568M 5806M 5807M 5814M 5940  6054  6153M 6154M 6155M 6156  6198
             6310  6427  6621M 6622M 6623  6860  6928M 6929  6951  6953M 7012D 7014M 7014  7015M 7016U 7028  7042M 7044M
             7129  7267M 7275U 7329  7386  7393  7429  7432  7448  7501M 7508U 7578M 7586U 7596U 7684M 7692U 7871M 7876
             7886U 7902  7904M 7905  7978M 7994M 7995M 7996  8040M 8085  8103M 8138  8140M 8164  8166M 8167  8169M 8171
             8256  8347  8417M 8418M 8418  8427U 8466M 8467  8474U 8507  8575M 8583U 8585M 8595U 8603  8653M 8663U 8669M
             8670M 8670  8698U 8705  8754M 8764U 8770M 8771M 8771  8795M 8800M 8801M 8801  8824  8830M 8840U
     3(3)     973U 1873  1932M 1933  1937M 1938M 1939  1941M 1942  1943M 1944M 1945M 1946M 1947  1955U 1975U 1977  1978M
             1979M 1980M 1980  1981M 1981  1982M 1983  1984  1985  2063  2212  2295M 2298  2381M 2449  2567M 2570  3130M
             3138  3195M 3196  3198M 3199  3698M 3699M 3699  3710M 3711M 3726U 3749M 3750M 3750  3758U 4438  4445M 4466M
             4499M 4509M 4699D 4701M 4701  4702M 4703U 4712M 4724N 4749M 4787M 4788  4846M 4847  4849M 4850  4872M 4880U
             4968U 5105D 5107M 5107  5108M 5109U 5110  5137N 5159M 5160M 5162  5260M 5261M 5262M 5270U 5318U 5332D 5334M
             5334  5335M 5336U 5356D 5358M 5358  5359M 5360U 5378M 5384  5407M 5408M 5504  5538M 5543  5568M 5808M 5809M
             5814M 5940  6054  6198  6310  6427  6718M 6718  6719  6860  6929M 6930M 6931M 6954M 7040M 7044M 7129  7277M
             7278  7290M 7291  7304M 7309M 7329  7386  7393  7429  7433M 7434  7546M 7547  7566  7588M 7589  7694M 7695
             7697M 7698  7711M 7716M 7876  7903M 7904  7994M 7997  8042M 8043  8054M 8055  8068M 8073M 8085  8138  8168M
             8169  8256  8347  8507  8603  8677D 8679M 8679  8680M 8681U 8682  8685  8688M 8689  8705  8812D 8814M 8814
             8815M 8816U 8817  8819  8821  8823
     4(4)     969U 1873  2063  2212  2295M 2298M 2381M 2449  2567M 2570M 3156M 3157  3175  4438  4444M 4446M 4465M 4473M
             4473  4476M 4477  4499M 4509M 4512  4707D 4709M 4709  4710M 4711U 4712  4715M 4716M 4716  4746M 4746  4748M
             4751  4806M 4807M 4815  4833  5137M 5141  5283D 5285M 5285  5286M 5287U 5289M 5292  5296D 5298M 5298  5299M
1         (VLDR00) (09:48) (22MAR04) General Purpose Register Cross Reference                                               Page  104
             5300U 5301  5306M 5307M 5308  5383M 5408  5432  5450  5452M 5455  5458M 5469  5516  5522M 5539  5556D 5558M
             5558  5559M 5560U 5561  5940  6054  6198  6310  6427  6860  6922M 6923  6926  6959  7065  7129  7313M 7314
             7377M 7378  7379  7643M 7644M 7645  7657M 7658M 7681  7682N 7801  7810M 7810  7838M 7850M 7850  7851  7852
             7853M 7853  7874M 7874  7879  7890  8256  8347  8507  8603  8654M 8655M 8682  8684  8705  8755M 8756M 8783
             8785  8817
     5(5)     965U 1873  2063  2212  2317  2371  2372M 2381M 2449  2736U 2764U 3243U 4438  4441M 4443  4444  4476  4478
             4499M 4506  4509M 4540  4541M 4547  4594U 4621U 4683U 4872  4978U 5071U 5551U 5832M 5833M 5856M 5857M 5904U
             5940  6054  6198  6310  6427  6586U 6642U 6860  7026U 7061U 7129  7256M 7264U 7328M 7370M 7382M 7426M 7483
             7521U 7736U 7744U 8118U 8151U 8256  8347  8507  8603  8705  8778D 8780M 8780  8781M 8782U 8783  8786  8821
     6(6)     961U 1873  1891M 1899U 2032U 2063  2080M 2191U 2212  2229M 2381M 2427U 2449  2466M 4438  4499M 4509M 5918U
             5940  5957M 6032U 6054  6071M 6176U 6198  6215M 6288U 6310  6327M 6406U 6427  6444M 6839U 6860  6877M 7129
             7146M 8233U 8256  8273M 8326U 8347  8364M 8487U 8507  8531M 8603  8630M 8705  8731M
     7(7)     957U 1873  1878M 1888U 2027U 2063  2068M 2078U 2080M 2088U 2091U 2186U 2212  2217M 2227U 2229M 2237U 2240U
             2381M 2422U 2449  2454M 2464U 2466M 2474U 2477U 4438  4499M 4509M 5912U 5940  5945M 5955U 5957M 5965U 5968U
             6026U 6054  6059M 6069U 6071M 6079U 6082U 6170U 6198  6203M 6213U 6215M 6223U 6226U 6282U 6310  6315M 6325U
             6327M 6335U 6338U 6400U 6427  6432M 6442U 6444M 6452U 6455U 6833U 6860  6865M 6875U 6877M 6885U 6888U 7103U
             7129  7134M 7144U 7146M 7154U 7157U 8227U 8256  8261M 8271U 8273M 8281U 8284U 8320U 8347  8352M 8362U 8364M
             8372U 8375U 8481U 8507  8512M 8522U 8531M 8539U 8542U 8603  8608M 8618U 8621U 8630M 8638U 8641U 8705  8710M
             8720U 8723U 8731M 8739U 8742U
     8(8)     953U 1873  1874M 1908U 2022U 2063  2064M 2108U 2181U 2212  2213M 2257U 2380  2381M 2417U 2449  2450M 2494U
             4438  4499M 4509M 5924U 5940  5941M 5985U 6038U 6054  6055M 6099U 6182U 6198  6199M 6243U 6294U 6310  6311M
             6355U 6412U 6427  6428M 6472U 6845U 6860  6861M 6905U 7115U 7129  7130M 7174U 8239U 8256  8257M 8301U 8332U
             8347  8348M 8392U 8493U 8507  8508M 8559U 8603  8604M 8705  8706M
     9(9)     949U 1873  1991M 2000M 2063  2212  2305M 2325M 2327M 2335M 2337M 2366M 2367M 2367B 2381M 2383B 2449  2535M
             2536M 2537  2577M 2584M 2612M 2613M 2614  2682M 2713M 2728M 2794M 2811M 2840M 2841M 2841B 3235M 3351M 3387M
             3648M 3665M 3684M 3865M 4010M 4080M 4182M 4438  4481M 4482M 4482B 4499M 4509M 4520M 4560B 4582B 4613M 4770M
             4854M 4869M 4938M 5013M 5051M 5065M 5163M 5164M 5165  5249  5291M 5454M 5472M 5473B 5499M 5538  5542M 5543M
             5569B 5669B 5689B 5699M 5706M 5731B 5745B 5770B 5791B 5815B 5834B 5844M 5898B 5940  5998M 6054  6131M 6198
             6256M 6310  6368M 6427  6578M 6699M 6710M 6801M 6860  7018M 7097M 7129  7321M 7326M 7360M 7422M 7432M 7434M
             7435  7502B 7728M 7902M 7906  8110M 8144M 8167M 8198  8211M 8212M 8213  8256  8347  8507  8603  8705
    10(A)     945U 1873  2063  2212  2362  2363M 2369M 2381M 2449  2836  2837M 2843M 3342M 4438  4499M 4509M 4855M 4863U
             5014M 5049  5077U 5940  6054  6123M 6198  6310  6427  6860  7129  7244M 7289  7324  7484  7499  7500M 7571M
             7572  7639M 7832M 7867M 7872  7901  8256  8347  8507  8603  8705
    11(B)     941U 1873  1917U 2013U 2063  2117U 2172U 2212  2266U 2381M 2408U 2449  2503U 2711M 4438  4499M 4509M 5930U
             5940  5994U 6044U 6054  6108U 6188U 6198  6252U 6300U 6310  6364U 6418U 6427  6481U 6851U 6860  6914U 7121U
             7129  7183U 8245U 8256  8310U 8338U 8347  8401U 8499U 8507  8568U 8603  8705
    12(C)     937U 1873  2063  2212  2381M 2449  2618M 2619M 2619  2645U 2680  2688U 2797M 2798M 2798  2807U 2809  2814M
             2815M 2815  2817  2823U 3329U 3334M 3342  3343M 3353  3354M 3579U 3625U 3646  3663  3678  3682  3717U 3767U
             3932U 3977U 4438  4499M 4509M 4577  4600U 5940  6054  6113M 6121U 6123  6124M 6133  6134M 6163U 6198  6310
             6427  6520M 6529U 6697  6708  6714M 6734U 6860  6934M 6935M 6936M 6954  6975M 6976  6977M 6978M 6986U 7071M
             7071  7072  7087U 7129  7245M 7253U 7316M 7316  7318M 7319  7322M 7323M 7327M 7369M 7371  7376M 7376  7381M
             7391M 7391  7425M 7427  7482  7515U 7725M 7726  7747M 7748M 7756U 7864U 8009M 8035U 8039  8083  8105M 8174
             8184M 8208U 8256  8347  8507  8603  8705
    13(D)     933U 1873  1873  1874  1875M 1875  2063  2063  2064  2065M 2065  2212  2212  2213  2214M 2214  2371M 2372
             2380M 2381M 2381  2449  2449  2450  2451M 2451  4438  4438  4439M 4439  4441  4442M 4442  4496M 4498M 4499M
             4499  4506M 4508M 4509M 4509  4540  4541  4542M 5249  5250M 5250  5450  5451M 5451  5457M 5458  5471M 5472
             5504  5505M 5505  5567M 5568  5940  5940  5941  5942M 5942  6054  6054  6055  6056M 6056  6198  6198  6199
             6200M 6200  6310  6310  6311  6312M 6312  6427  6427  6428  6429M 6429  6860  6860  6861  6862M 6862  7129
             7129  7130  7131M 7131  8256  8256  8257  8258M 8258  8347  8347  8348  8349M 8349  8507  8507  8508  8509M
             8509  8603  8603  8604  8605M 8605  8705  8705  8706  8707M 8707
    14(E)     929U 1873  2063  2212  2381M 2449  3499D 3501M 3501  3502M 3503U 3504  4438  4499M 4509M 5940  6054  6198
             6310  6427  6860  6933M 6934  6952  6953  6972M 6972  7003M 7004M 7029  7038  7043  7063M 7067  7129  7209M
             7217U 7448M 7485M 7486  7566M 7906M 8198M 8201  8220U 8256  8347  8507  8603  8705  8794M 8794  8824M 8828M
             8828  8830
    15(F)     925U 2143M 2292M 2338M 2341M 2344M 2347M 2377M 2382M 2382  2562M 2714M 2714  2778D 2780M 2780  2781M 2782U
             2790  2835M 2881M 2900M 2949M 2968M 3011M 3030M 3151M 3170M 3251M 3252M 3252  3264U 3270M 3271M 3271  3320U
             3430M 3431M 3432M 3491D 3493M 3493  3494M 3495U 3504M 3516  3536  3543  3687M 3688N 3704D 3706M 3706  3707M
             3708U 3736N 3821D 3823M 3823  3824M 3825U 3826  4000M 4113M 4155M 4433M 4438  4499M 4509M 4527M 4534M 4551
             4552M 4553M 4554  4556M 4557M 4558  4801M 4828M 5123M 5154M 5258U 5490U 5625M 5629M 5655M 5656M 5663  5664
1         (VLDR00) (09:48) (22MAR04) General Purpose Register Cross Reference                                               Page  105
             5668  6507M 6510M 6544M 6744M 6752U 6754M 6755  6826U 6925M 6926  6947M 6958M 6959  6973M 7031M 7064M 7065
             7204M 7207M 7208M 7278  7291  7304  7547  7589  7671M 7695  7698  7711  8043  8055  8068  8164M 8407M 8407
             8431M 8574M 8574  8652M 8652  8691M 8753M 8753  8833M

1VLDR     (VLDR00) (09:48) (22MAR04) Diagnostic Cross Reference and Assembler Summary                                       Page  106
-                                                                                            HLASM R4.0  2004/03/22 09.48
0     No Statements Flagged in this Assembly
 HIGH LEVEL ASSEMBLER, 5696-234, RELEASE 4.0, PTF UQ57391
0SYSTEM: OS/390 02.10.00            JOBNAME: PJG#VLDR    STEPNAME: ASM        PROCSTEP: (NOPROC)
0Datasets Allocated for this Assembly
  Con DDname   Dataset Name                                 Volume  Member
   P1 SYSIN    SYS04082.T094808.RA000.PJG#VLDR.INPUT.H01    SCR100
   L1 SYSLIB   SYS3.DUMMYMAC                                SYSB02
   L2          WYL.GG.SYS.MACLIB                            SYSB05
   L3          WYL.GG.ORV.BC.MACLIB                         SYSB02
   L4          WYL.GG.ORV.MACLIB                            SYSB02
   L5          SYS3.IS.MACLIB                               SYSB05
      SYSLIN   WYL.GG.PJG.OBJ                               SYSB05  VLDR
      SYSPRINT SYS04082.T094808.RA000.PJG#VLDR.PRINT.H01    SCR101
      SYSTERM  GG$PJG.PJG#VLDR.JOB05988.D0000103.?

    7812K allocated to Buffer Pool,         1229K would be required for this to be an In-Storage Assembly
    2475 Primary Input Records Read         3008 Library Records Read                  0 Work File Reads
       0 ASMAOPT Records Read               5902 Primary Print Records Written         0 Work File Writes
     140 Punch Records Written                 0 ADATA Records Written
0Assembly Start Time: 09.48.10 Stop Time: 09.48.15 Processor Time: 00.00.01.7523
 Return Code 000
