1                        J E S 2  J O B  L O G  --  S Y S T E M  S Y S B  --  N O D E  R L G
0
 09.41.20 JOB05944 ---- MONDAY,    22 MAR 2004 ----
 09.41.20 JOB05944  ICH70001I GG$PJG   LAST ACCESS AT 09:41:14 ON MONDAY, MARCH 22, 2004
 09.41.20 JOB05944  $HASP373 PJG#JES  STARTED - INIT 2    - CLASS E - SYS SYSB
 09.41.20 JOB05944  ***  HCMD      STEP $$QUIET
 09.41.20 JOB05944  PURGE * Q=OUTPUT MULTIPLE
 09.41.20 JOB05944  JOB PJG#JES NOT IN OUTPUT QUEUE
 09.41.21 JOB05944  PJG#JES .$$QUIET .         RC=0008 TapeIO=0000 DiskIO=0000 CPU=  .01s Elapsed=80.71s
 09.41.21 JOB05944  PJG#JES .$CND    .         RC=Zero TapeIO=0000 DiskIO=0002 CPU=  .01s Elapsed=81.75s
 09.41.22 JOB05944  PJG#JES .$UNP    .         RC=Zero TapeIO=0000 DiskIO=0020 CPU=  .05s Elapsed=81.89s
 09.41.30 JOB05944  PJG#JES .ASM     .         RC=Zero TapeIO=0000 DiskIO=0418 CPU= 2.50s Elapsed=82.22s
 09.41.31 JOB05944  PJG#JES .$EDIT   .         RC=Zero TapeIO=0000 DiskIO=0146 CPU=  .55s Elapsed=90.56s
 09.41.31 JOB05944  PJG#JES  Ended.  Name=Module: JESSERV                Total CPU= 3.12s Elapsed=80.71s
 09.41.31 JOB05944
 09.41.31 JOB05944  Execution charges   Priority=Standard   Block=Day
 09.41.31 JOB05944
 09.41.31 JOB05944  CPU Usage          57.37          $35.56   Standard Processing Unit Equivalent
 09.41.31 JOB05944                                   =======
 09.41.31 JOB05944                                    $35.56   Total Job execution charge
 09.41.31 JOB05944
 09.41.31 JOB05944  See back separator page for print charges
 09.41.31 JOB05944
 09.41.31 JOB05944  $HASP395 PJG#JES  ENDED  ASM=0
1        1 //PJG#JES  JOB PJG$GG,'Module: JESSERV',TIME=1,MSGCLASS=C               JOB05944
           /*JOBPARM HOLD=OUTPUT,LINES=50,CHARS=TN15,NOTIFY=YES
         2 //       EXEC PURGEOLD
         3 XXPURGEOLD PROC
           XX*
           XX* This proc is maintained by Jim Stosick
           XX*
         4 XX$$QUIET  EXEC PGM=HCMDX,PARM='PURGE * Q=OUTPUT MULTIPLE',
           XX         ACCT=(PURGEOLD,SYS3)
         5 //$CND   EXEC PGM=BILBO,REGION=512K,PARM='RECS=100'
         6 //STEPLIB  DD DSN=WYL.GG.ORV.LINKLIB,DISP=SHR
         7 //SYSPRINT DD SYSOUT=$
         8 //SYSUT1   DD DSN=WYL.GG.PJG.OBJ,DISP=OLD
         9 //SYSUT2   DD DSN=WYL.GG.PJG.OBJ,DISP=OLD
        10 //SYSIN    DD DUMMY
        11 //$UNP   EXEC PGM=WUNPRESS,PARM='NUM'
        12 //SYSPRINT DD SYSOUT=$
        13 //SYSUT1   DD DSN=WYL.GG.ORV.SOURCE(JESSERV),DISP=SHR
        14 //SYSUT2   DD DSN=&&INPUT,DISP=(,PASS),UNIT=SYSDA,
           //            SPACE=(TRK,(25,25),RLSE),DCB=CARD
        15 //ASM    EXEC PGM=ASMA90,REGION=8M,COND=(0,NE,$UNP),
           //            PARM=('SYSPARM(JESSERV),TERM,LANG(EN),OBJ',
           //          'LC(32500),XREF(SHORT),NODECK,NORLD,NODX,NOUS')
           //*STEPLIB  DD DSN=SYS1.SASMMOD1,DISP=SHR
        16 //SYSLIB   DD DSN=SYS3.DUMMYMAC,DISP=SHR,DCB=BLKSIZE=27920
        17 //         DD DSN=WYL.GG.ORV.MACLIB,DISP=SHR
        18 //         DD DSN=WYL.GG.SYS.MACLIB,DISP=SHR
        19 //SYSUT1   DD DSN=&&SYSUT1,UNIT=VIO,DISP=(,DELETE),
           //            SPACE=(4088,(500,250),,CONTIG,ROUND)
        20 //SYSTERM  DD SYSOUT=$
        21 //SYSPRINT DD DSN=&&PRINT,UNIT=SYSDA,DISP=(,PASS),
           //            SPACE=(6650,(250,250),RLSE),
           //            DCB=(BLKSIZE=6650,LRECL=133,RECFM=FB)
        22 //SYSLIN   DD DSN=WYL.GG.PJG.OBJ(JESSERV),DISP=OLD
        23 //SYSUDUMP DD SYSOUT=A
        24 //SYSIN    DD DSN=&&INPUT,DISP=(OLD,DELETE)
        25 //$EDIT  EXEC PGM=ASMEDIT,REGION=1M,
           //            COND=EVEN,PARM='STMT,DATA'
        26 //STEPLIB  DD DSN=WYL.GG.SYS.LINKLIB,DISP=SHR
        27 //ASMOUT   DD DSN=&&PRINT,DISP=(OLD,DELETE)
        28 //SYSPRINT DD SYSOUT=A
        29 //SYSUDUMP DD SYSOUT=A
1 STMT NO. MESSAGE
         2 IEFC001I PROCEDURE PURGEOLD WAS EXPANDED USING SYSTEM LIBRARY SYS3.BETAPROC
        14 IGD01010I STORCLAS= TEMP STORGROUP =
        14 IGD01010I STORGRP=VIO ASSIGNED.
        19 IGD01010I STORCLAS= TEMP STORGROUP =
        19 IGD01010I STORGRP=VIO ASSIGNED.
        21 IGD01010I STORCLAS= TEMP STORGROUP =
        21 IGD01010I STORGRP=VIO ASSIGNED.
 ICH70001I GG$PJG   LAST ACCESS AT 09:41:14 ON MONDAY, MARCH 22, 2004
 IEF142I PJG#JES $$QUIET - STEP WAS EXECUTED - COND CODE 0008
 *********************************************************************************
 *   PJG#JES /$$QUIET /                    Return Code      0008                 *
 *   Region used      260K (16K user + 244K system)                              *
 *   Extended region  9352K (4K user + 9348K system)                             *
 *                                                                               *
 *   Paging              In      Out                                             *
 *   Private <-> Aux      0        0       CPU time (TCB)   00:00:00.01          *
 *   Private <-> Exp      0        0       CPU time (SRB)   00:00:00.00          *
 *   VIO                  0        0       Elapsed time    920:46:32.25          *
 *   Common               0      ---                                             *
 *                                                                               *
 *                                                                               *
 *   CPU Usage          0.18         $0.11  Standard Processing Unit Equivalent  *
 *                                   $0.11  Total Step execution charge          *
 *                                                                               *
 *    I/O count  DDname   Type Addr           I/O count  DDname   Type Addr      *
 *                         *** No I/O for this step ***                          *
 *********************************************************************************
 IEF373I STEP/$$QUIET /START 2004082.0941
 IEF374I STEP/$$QUIET /STOP  2004082.0941 CPU    0MIN 00.01SEC SRB    0MIN 00.00SEC VIRT    16K SYS   244K EXT       4K SYS    9348K
 IEF236I ALLOC. FOR PJG#JES $CND
 IEF237I 0401 ALLOCATED TO STEPLIB
 IEF237I JES2 ALLOCATED TO SYSPRINT
 IEF237I 04DC ALLOCATED TO SYSUT1
 IEF237I 04DC ALLOCATED TO SYSUT2
 IEF237I DMY  ALLOCATED TO SYSIN
 IEF142I PJG#JES $CND - STEP WAS EXECUTED - COND CODE 0000
 IEF285I   WYL.GG.ORV.LINKLIB                           KEPT
 IEF285I   VOL SER NOS= SYSB01.
 IEF285I   GG$PJG.PJG#JES.JOB05944.D0000101.?           SYSOUT
 IEF285I   WYL.GG.PJG.OBJ                               KEPT
 IEF285I   VOL SER NOS= SYSB05.
 IEF285I   WYL.GG.PJG.OBJ                               KEPT
 IEF285I   VOL SER NOS= SYSB05.
 *********************************************************************************
 *   PJG#JES /$CND    /                    Return Code      Zero                 *
 *   Region used      280K (16K user + 264K system)                              *
 *   Extended region  9392K (4K user + 9388K system)                             *
 *                                                                               *
 *   Paging              In      Out                                             *
 *   Private <-> Aux      0        0       CPU time (TCB)   00:00:00.01          *
 *   Private <-> Exp      0        0       CPU time (SRB)   00:00:00.00          *
 *   VIO                  0        0       Elapsed time    920:46:31.21          *
 *   Common               0      ---                                             *
 *                                                                               *
 *                                                                               *
 *   CPU Usage          0.18         $0.11  Standard Processing Unit Equivalent  *
 *                                   $0.11  Total Step execution charge          *
 *                                                                               *
 *    I/O count  DDname   Type Addr           I/O count  DDname   Type Addr      *
 *            2  STEPLIB  Disk 0401                   0  SYSPRINT      ----      *
 *            0  SYSUT1   Disk 04DC                   0  SYSUT2   Disk 04DC      *
 *            0  SYSIN         ----                                              *
 *********************************************************************************
 IEF373I STEP/$CND    /START 2004082.0941
 IEF374I STEP/$CND    /STOP  2004082.0941 CPU    0MIN 00.01SEC SRB    0MIN 00.00SEC VIRT    16K SYS   264K EXT       4K SYS    9388K
 IEF236I ALLOC. FOR PJG#JES $UNP
 IEF237I JES2 ALLOCATED TO SYSPRINT
 IEF237I 0402 ALLOCATED TO SYSUT1
 IGD101I SMS ALLOCATED TO DDNAME (SYSUT2  )
         DSN (SYS04082.T094120.RA000.PJG#JES.INPUT.H01    )
         STORCLAS (TEMP) MGMTCLAS (        ) DATACLAS (        )
         VOL SER NOS= SCR100
 IEF142I PJG#JES $UNP - STEP WAS EXECUTED - COND CODE 0000
 IEF285I   GG$PJG.PJG#JES.JOB05944.D0000102.?           SYSOUT
 IEF285I   WYL.GG.ORV.SOURCE                            KEPT
 IEF285I   VOL SER NOS= SYSB02.
 IGD106I SYS04082.T094120.RA000.PJG#JES.INPUT.H01     PASSED,    DDNAME=SYSUT2
 *********************************************************************************
 *   PJG#JES /$UNP    /                    Return Code      Zero                 *
 *   Region used      380K (108K user + 272K system)                             *
 *   Extended region  9468K (4K user + 9464K system)                             *
 *                                                                               *
 *   Paging              In      Out                                             *
 *   Private <-> Aux      0        0       CPU time (TCB)   00:00:00.05          *
 *   Private <-> Exp      0        0       CPU time (SRB)   00:00:00.00          *
 *   VIO                  0        0       Elapsed time    920:46:31.07          *
 *   Common               0      ---                                             *
 *                                                                               *
 *                                                                               *
 *   CPU Usage          0.93         $0.57  Standard Processing Unit Equivalent  *
 *                                   $0.57  Total Step execution charge          *
 *                                                                               *
 *    I/O count  DDname   Type Addr           I/O count  DDname   Type Addr      *
 *            0  SYSPRINT      ----                   3  SYSUT1   Disk 0402      *
 *           17  SYSUT2   Disk 038B                                              *
 *********************************************************************************
 IEF373I STEP/$UNP    /START 2004082.0941
 IEF374I STEP/$UNP    /STOP  2004082.0941 CPU    0MIN 00.05SEC SRB    0MIN 00.00SEC VIRT   108K SYS   272K EXT       4K SYS    9464K
 IEF236I ALLOC. FOR PJG#JES ASM
 IEF237I 0402 ALLOCATED TO SYSLIB
 IEF237I 0402 ALLOCATED TO
 IEF237I 04DC ALLOCATED TO
 IGD101I SMS ALLOCATED TO DDNAME (SYSUT1  )
         DSN (SYS04082.T094120.RA000.PJG#JES.SYSUT1.H01   )
         STORCLAS (TEMP) MGMTCLAS (        ) DATACLAS (        )
         VOL SER NOS= VIO
 IEF237I JES2 ALLOCATED TO SYSTERM
 IGD101I SMS ALLOCATED TO DDNAME (SYSPRINT)
         DSN (SYS04082.T094120.RA000.PJG#JES.PRINT.H01    )
         STORCLAS (TEMP) MGMTCLAS (        ) DATACLAS (        )
         VOL SER NOS= SCR101
 IEF237I 04DC ALLOCATED TO SYSLIN
 IEF237I JES2 ALLOCATED TO SYSUDUMP
 IGD103I SMS ALLOCATED TO DDNAME SYSIN
 IEF142I PJG#JES ASM - STEP WAS EXECUTED - COND CODE 0000
 IEF285I   SYS3.DUMMYMAC                                KEPT
 IEF285I   VOL SER NOS= SYSB02.
 IEF285I   WYL.GG.ORV.MACLIB                            KEPT
 IEF285I   VOL SER NOS= SYSB02.
 IEF285I   WYL.GG.SYS.MACLIB                            KEPT
 IEF285I   VOL SER NOS= SYSB05.
 IGD105I SYS04082.T094120.RA000.PJG#JES.SYSUT1.H01    DELETED,   DDNAME=SYSUT1
 IEF285I   GG$PJG.PJG#JES.JOB05944.D0000103.?           SYSOUT
 IGD106I SYS04082.T094120.RA000.PJG#JES.PRINT.H01     PASSED,    DDNAME=SYSPRINT
 IEF285I   WYL.GG.PJG.OBJ                               KEPT
 IEF285I   VOL SER NOS= SYSB05.
 IEF285I   GG$PJG.PJG#JES.JOB05944.D0000104.?           SYSOUT
 IGD105I SYS04082.T094120.RA000.PJG#JES.INPUT.H01     DELETED,   DDNAME=SYSIN
 *********************************************************************************
 *   PJG#JES /ASM     /                    Return Code      Zero                 *
 *   Region used      8476K (8192K user + 284K system)                           *
 *   Extended region  9952K (412K user + 9540K system)                           *
 *                                                                               *
 *   Paging              In      Out                                             *
 *   Private <-> Aux      0        0       CPU time (TCB)   00:00:02.45          *
 *   Private <-> Exp      0        0       CPU time (SRB)   00:00:00.05          *
 *   VIO                  0        0       Elapsed time    920:46:30.74          *
 *   Common               0      ---                                             *
 *                                                                               *
 *                                                                               *
 *   CPU Usage         45.93        $28.47  Standard Processing Unit Equivalent  *
 *                                  $28.47  Total Step execution charge          *
 *                                                                               *
 *    I/O count  DDname   Type Addr           I/O count  DDname   Type Addr      *
 *          120  SYSLIB   Disk 0402                   0  SYSLIB   Disk 0402      *
 *          134  SYSLIB   Disk 04DC                   0  SYSUT1   VIO  ----      *
 *            0  SYSTERM       ----                 143  SYSPRINT Disk 04E3      *
 *            3  SYSLIN   Disk 04DC                   0  SYSUDUMP      ----      *
 *           18  SYSIN    Disk 038B                                              *
 *********************************************************************************
 IEF373I STEP/ASM     /START 2004082.0941
 IEF374I STEP/ASM     /STOP  2004082.0941 CPU    0MIN 02.45SEC SRB    0MIN 00.05SEC VIRT  8192K SYS   284K EXT     412K SYS    9540K
 IEF236I ALLOC. FOR PJG#JES $EDIT
 IEF237I 0402 ALLOCATED TO STEPLIB
 IGD103I SMS ALLOCATED TO DDNAME ASMOUT
 IEF237I JES2 ALLOCATED TO SYSPRINT
 IEF237I JES2 ALLOCATED TO SYSUDUMP
 IEF142I PJG#JES $EDIT - STEP WAS EXECUTED - COND CODE 0000
 IEF285I   WYL.GG.SYS.LINKLIB                           KEPT
 IEF285I   VOL SER NOS= SYSB02.
 IGD105I SYS04082.T094120.RA000.PJG#JES.PRINT.H01     DELETED,   DDNAME=ASMOUT
 IEF285I   GG$PJG.PJG#JES.JOB05944.D0000105.?           SYSOUT
 IEF285I   GG$PJG.PJG#JES.JOB05944.D0000106.?           SYSOUT
 *********************************************************************************
 *   PJG#JES /$EDIT   /                    Return Code      Zero                 *
 *   Region used      388K (116K user + 272K system)                             *
 *   Extended region  9472K (4K user + 9468K system)                             *
 *                                                                               *
 *   Paging              In      Out                                             *
 *   Private <-> Aux      0        0       CPU time (TCB)   00:00:00.54          *
 *   Private <-> Exp      0        0       CPU time (SRB)   00:00:00.01          *
 *   VIO                  0        0       Elapsed time    920:46:22.40          *
 *   Common               0      ---                                             *
 *                                                                               *
 *                                                                               *
 *   CPU Usage         10.12         $6.27  Standard Processing Unit Equivalent  *
 *                                   $6.27  Total Step execution charge          *
 *                                                                               *
 *    I/O count  DDname   Type Addr           I/O count  DDname   Type Addr      *
 *            2  STEPLIB  Disk 0402                 144  ASMOUT   Disk 04E3      *
 *            0  SYSPRINT      ----                   0  SYSUDUMP      ----      *
 *********************************************************************************
 IEF373I STEP/$EDIT   /START 2004082.0941
 IEF374I STEP/$EDIT   /STOP  2004082.0941 CPU    0MIN 00.54SEC SRB    0MIN 00.01SEC VIRT   116K SYS   272K EXT       4K SYS    9468K
 *********************************************************************************
 *                                                                               *
 *                      S t a n f o r d   U n i v e r s i t y                    *
 *                                                                               *
 *                              *** Job Summary ***                              *
 *                                                                               *
 *   System Id      SYSB                   Input time     09:38:21  Mar 22, 2004 *
 *                                                                               *
 *   System Release SP6.1.0                Start time     09:41:20  Mar 22, 2004 *
 *                                                                               *
 *   Job name       PJG#JES                Stop  time     00:00:00  Mar 22, 2004 *
 *                                                                               *
 *   Account        PJG$GG                 Elapsed time  920:46:32.25            *
 *                                                                               *
 *   User Name      Module: JESSERV        CPU time       00:00:03.06            *
 *                                                                               *
 *   Job class      E                      SRB Time       00:00:00.06            *
 *                                                                               *
 *********************************************************************************
 IEF375I  JOB/PJG#JES /START 2004082.0941
 IEF376I  JOB/PJG#JES /STOP  2004082.0941 CPU    0MIN 03.06SEC SRB    0MIN 00.06SEC
1Data set successfully converted from EDIT to FB format
1Assembler Done JESSERV No Statements Flagged
1         High Level Assembler Option Summary                   (PTF UQ57391)                                               Page    1
-                                                                                            HLASM R4.0  2004/03/22 09.41
0  No Overriding ASMAOPT Parameters
   Overriding Parameters-  SYSPARM(JESSERV),TERM,LANG(EN),OBJ,LC(32500),XREF(SHORT),NODECK,NORLD,NODX,NOUS
   No Process Statements


   Options for this Assembly
0  NOADATA
     ALIGN
   NOASA
     BATCH
     CODEPAGE(047C)
   NOCOMPAT
   NODBCS
 3 NODECK
 3 NODXREF
     ESD
   NOEXIT
     FLAG(0,ALIGN,CONT,NOIMPLEN,NOPAGE0,PUSH,RECORD,NOSUBSTR,USING0)
   NOFOLD
   NOGOFF
   NOINFO
 3   LANGUAGE(EN)
   NOLIBMAC
 3   LINECOUNT(32500)
     LIST(121)
     MXREF(SOURCE)
 3   OBJECT
     OPTABLE(UNI,NOLIST)
   NOPCONTROL
   NOPESTOP
   NOPROFILE
   NORA2
   NORENT
 3 NORLD
     RXREF
     SIZE(MAX)
 3   SYSPARM(JESSERV)
 3   TERM(WIDE)
   NOTEST
     THREAD
   NOTRANSLATE
 3 NOUSING
 3   XREF(SHORT)

   No Overriding DD Names

1JESSERV  External Symbol Dictionary                                                                                        Page    2
-Symbol   Type   Id     Address  Length     LD ID  Flags Alias-of                            HLASM R4.0  2004/03/22 09.41
0JESSERV   SD 00000001 00000000 0000107A             06
 JESS00    LD          00000000           00000001
 M1JES     LD          00000022           00000001
 KATTAC15  LD          00000108           00000001
 ATTACH15  LD          0000018E           00000001
 KWRITE15  LD          000003DA           00000001
 WRITE15   LD          000004AA           00000001
 CHKJOB15  LD          00000648           00000001
 CHKREC15  LD          000007B6           00000001
 KCONTR15  LD          00000870           00000001
 ONTROL15  LD          000008CC           00000001
 ONTERM15  LD          00000938           00000001
 NABORT15  LD          00000A16           00000001
 HALT15    LD          00000A98           00000001
 KDETAC15  LD          00000B6C           00000001
 DETACH15  LD          00000BB2           00000001
 JESPUT15  LD          00000D52           00000001
 ESPOST15  LD          00000E58           00000001
 JESINIT   LD          00000F08           00000001
 TRCD15    LD          00000F7C           00000001
 TCREATE   ER 00000002
 VMGET     ER 00000003
 XITNEW    ER 00000004
 PAGFIX    ER 00000005
 IOSIDGET  ER 00000006
 IOSDOIO   ER 00000007
 IOSIDFRE  ER 00000008
 PAGUFIX   ER 00000009
 ASLOCK    ER 0000000A
 ASULOCK   ER 0000000B
 LKOB      ER 0000000C
 LKREL     ER 0000000D
 AWAIT     ER 0000000E
 SYSRDEL   ER 0000000F
 VMFREE    ER 00000010
 PAGTPROT  ER 00000011
 ACAINFO   ER 00000012
 SIGNAL    ER 00000013
 SYSRNEW   ER 00000014
 XITDO     ER 00000015
 XITDEL    ER 00000016
 TEXIT     ER 00000017
 LKCRE     ER 00000018

1JESSERV  MP-ORVYL JES services                                                                                             Page    3
0Loc    Object Code    Addr1 Addr2  Stmt Lv Lineno    Source Statement                    (Asmedit 3.3)  HLASM R4.0  2004/03/22 09.41
+___    ______ ____    _____ _____  ____ __ ______    ______ _________
0                                      2       2.              COPY  HEADER
                                       3             =*********************************************************************
                                       4             =*                                                                   *
                                       5             =*                                                                   *
                                       6             =*                          M P - O R V Y L                          *
                                       7             =*                                                                   *
                                       8             =*       ORVYL - Release 5.0 - Class I - Stanford Proprietary        *
                                       9             =*                                                                   *
                                      10             =*                                                                   *
                                      11             =*********************************************************************
-
-                                     13             =         SPLEVEL SET=2
                                      16             =         HIBAL ASSOC=YES
-
                                     998             =*
                                     999             =* REGISTER CONVENTIONS (USE ONLY THE SYMBOLS)
                                    1000             =*
                                    1001             =*                     CLASS  USAGE
                                    1002             =*                     -----  -----------------------------
                                    1003             =RVR      REG   0        1    RETURN VALUE REGISTER
                                    1015             =RS       REG   1        *    SCRATCH
                                    1027             =RA       REG   2        *    SCRATCH
                                    1039             =RB       REG   3        *    SCRATCH
                                    1051             =RJ       REG   4        *    SCRATCH
                                    1063             =RK       REG   5        *    SCRATCH
                                    1075             =RX       REG   6        *    SCRATCH
                                    1087             =RY       REG   7        *    SCRATCH
                                    1099             =RM       REG   8        *    SCRATCH
                                    1111             =RN       REG   9        *    SCRATCH (In Guest)
                                    1123             =RTCBR    REG   9        -    POINTER TO THE RTCB (In Host)
                                    1135             =BR       REG   10       -    FIRST BASE REGISTER
                                    1147             =BRR      REG   11       -    SECOND BASE REGISTER
                                    1159             =WAR      REG   12       -    WORK AREA POINTER
                                    1171             =SPR      REG   13       -    STACK TOP POINTER
                                    1183             =RAR      REG   14       1    RETURN ADDRESS REGISTER
                                    1195             =EPAR     REG   15       1    ENTRY POINT ADDRESS
                                    1207             =*
                                    1208             =*      CLASS   MEANING
                                    1209             =*      -----   --------------------------------------------------
                                    1210             =*        *     Register may be freely used for scratch
                                    1211             =*        -     Register may not be used
                                    1212             =*        1     Available but may change on subroutine calls
                                    1213             =*
1JESSERV  MP-ORVYL JES services                                                                                             Page    4
0D-Loc  Object Code    Addr1 Addr2  Stmt Lv Lineno    Source Statement           (Hibal 5, Asmedit 3.3)  HLASM R4.0  2004/03/22 09.41
+_____  ______ ____    _____ _____  ____ __ ______    ______ _________
0
 000000                00000 0107A  1216       4.     JESSERV  MODULE TRCNUM=15
                                    1226             +*
                                    1227    02-IDENT +         ENTRY JESS00
                                    1228             +
 000000 14D1C5E2E2F0F06B            1229    02-IDENT +JESS00   DC    AL1(20),C'JESS00,22MAR04,09:41'
                                    1230             +*
0                                   1233       6.     M1ADRMSK EQU   X'00FFFFFF'             Address mask for mode 1
1JESSERV  (JESS00) (09:41) (22MAR04) Global data areas                                                                      Page    5
0Loc    Object Code    Addr1 Addr2  Stmt Lv Lineno    Source Statement           (Hibal 5, Asmedit 3.3)  HLASM R4.0  2004/03/22 09.41
+___    ______ ____    _____ _____  ____ __ ______    ______ _________
0                                   1235       8.              COPY  PZERO                   Page Zero
 000000                00000 00280  1236             =PZERO    RECORD BEGIN
                                    1244  1          =*
                                    1245  1          =* Real Page 0.  Each CPU has its own copy of this area.
                                    1246  1          =*
-                                   1248  1          =****************************************************************
                                    1249  1          =*               Fields Fixed by the Architecture               *
                                    1250  1          =*               ********************************               *
                                    1251  1          =*                                                              *
 000000                             1252  1          =PZRSNPSW   DS    D             Restart new PSW                 *
 000008                             1253  1          =PZRSOPSW   DS    D             Restart old PSW                 *
 000010                             1254  1          =           DS    D                                             *
 000018                             1255  1          =PZEXOPSW   DS    D             External old PSW                *
 000020                             1256  1          =PZSVOPSW   DS    D             Supervisor old PSW              *
 000028                             1257  1          =PZPIOPSW   DS    D             Program old PSW                 *
 000030                             1258  1          =PZMCOPSW   DS    D             Machine check old PSW           *
 000038                             1259  1          =PZIOOPSW   DS    D             I/O old PSW                     *
 000040                             1260  1          =           DS    3D                                            *
 000058                             1261  1          =PZEXNPSW   DS    D             External new PSW                *
 000060                             1262  1          =PZSVNPSW   DS    D             Supervisor new PSW              *
 000068                             1263  1          =PZPINPSW   DS    D             Program new PSW                 *
 000070                             1264  1          =PZMCNPSW   DS    D             Machine check new PSW           *
 000078                             1265  1          =PZIONPSW   DS    D             I/O new PSW                     *
 000080                             1266  1          =           DS    F                                             *
 000084                             1267  1          =PZEXCPU    DS    H             CPU address for EXT int         *
 000086                             1268  1          =PZEXIC     DS    H             External interrupt code         *
 000088                             1269  1          =PZSVILC    DS    H             Supervisor call ILC             *
 00008A                             1270  1          =PZSVIC     DS    H             Supervisor interrupt code       *
 00008C                             1271  1          =PZPIILC    DS    H             Program ILC                     *
 00008E                             1272  1          =PZPIIC     DS    H             Program interrupt code          *
 000090                             1273  1          =PZTREXA    DS    A             Translation exception address   *
 000094                             1274  1          =PZMONCL    DS    H             Monitor Class number            *
 000096                             1275  1          =PZPERCD    DS    H             PER code                        *
 000098                             1276  1          =PZPERA     DS    A             PER Address                     *
 00009C                             1277  1          =PZMONCD    DS    A             Monitor Code                    *
 0000A0                             1278  1          =           DS    3D                                            *
 0000B8                             1279  1          =PZIOSID    DS    A             I/O subsystem ID word           *
 0000BC                             1280  1          =PZIOPRM    DS    A             I/O Parameter                   *
 0000C0                             1281  1          =PZIOSCS    DS    A             I/O subchannel ending status    *
 0000C4                             1282  1          =           DS    A                                             *
 0000C8                             1283  1          =           DS    39D                                           *
                                    1284  1          =*                                                              *
                                    1285  1          =*            ***************************************           *
                                    1286  1          =*            End of Fields fixed by the architecture           *
                                    1287  1          =****************************************************************
1JESSERV  (JESS00) (09:41) (22MAR04) Global data areas                                                                      Page    6
0D-Loc  Object Code    Addr1 Addr2  Stmt Lv Lineno    Source Statement           (Hibal 5, Asmedit 3.3)  HLASM R4.0  2004/03/22 09.41
+_____  ______ ____    _____ _____  ____ __ ______    ______ _________
0                                   1289  1          =*
                                    1290  1          =* Fields of general interest
                                    1291  1          =*
 000200                             1292  1          =PZMATP     DS    A             Address of the MAT
 000204                             1293  1          =           DS    A             ** Reserved **
 000208                             1294  1          =PZCURPID   DS    0D            Unique ID of the current process
 000208                             1295  1          =PZCURASB   DS    A             Addr of ASB for current Address space
 00020C                             1296  1          =PZCURTSK   DS    A             ID of current task in the Address space
 000210                             1297  1          =PZLCPUA    DS    A             Logical CPU address
 000214                             1298  1          =PZCPUMSK   DS    A             CPU address mask bit
 000218                             1299  1          =PZPSWM     DS    X             PSW mask for disabling
 000219                             1300  1          =           DS    X             ** Reserved **
                                    1301  1          =*
                                    1302  1          =* Termination/Trace information
                                    1303  1          =*
 00021A 00                          1304  1          =PZTERMFL   FLAG  ,             Termination flags
 PZTERMFL.PZABORT  80 ONES          1308  1          =           FLAG  PZABORT         ABORT macro issued
 PZTERMFL.PZATERM  40 ONES          1313  1          =           FLAG  PZATERM         Start termination processing
 00021B                             1318  1          =PZABSM     DS    X             Save area for system mask in ABORT
 00021C                             1319  1          =PZABR15    DS    A             Save area for R15 in an ABORT
 000220                             1320  1          =PZTZOFF    DS    D             Time zone offset
 000228                             1321  1          =           DS    22A           ** Reserved **
                                    1322  1          =*         DS    24A           ** Reserved **
 000280                00280 00280  1323             =         END   ,
1JESSERV  (JESS00) (09:41) (22MAR04) Global data areas                                                                      Page    7
0Loc    Object Code    Addr1 Addr2  Stmt Lv Lineno    Source Statement           (Hibal 5, Asmedit 3.3)  HLASM R4.0  2004/03/22 09.41
+___    ______ ____    _____ _____  ____ __ ______    ______ _________
0                                   1333      10.              COPY  MAT                     Master Address Table
                                    1334             =*****************************************************************
                                    1335             =*                                                               *
                                    1336             =*        *** M A S T E R   A D D R E S S   T A B L E ***        *
                                    1337             =*                                                               *
                                    1338             =*****************************************************************
-000000                00000 00100  1340             =MAT      RECORD BEGIN
                                    1348  1          =MATPTR     EQU   X'200',4,C'A' Address of the MAT in PZERO
 000000 D4C1E340                    1349  1          =           DC    CL4'MAT'      Control block ID
                                    1350  1          =*
                                    1351  1          =* Addresses of global control blocks
                                    1352  1          =*
 000004                             1353  1          =MATVMCB    DS    A             Virtual memory control block
 000008                             1354  1          =MATDCT     DS    A             Dispatcher control table
 00000C                             1355  1          =MATPAGCB   DS    A             Real memory control block
 000010                             1356  1          =MATM1CT    DS    A             CT for Mode 1 users
 000014                             1357  1          =MATLCT     DS    A             Lock manager control table
 000018                             1358  1          =MATQCT     DS    A             Queue manager control table
 00001C                             1359  1          =MATIOCB    DS    A             I/O Manager control block
 000020                             1360  1          =MATSBWB    DS    A             System buffer wait blocks
 000024                             1361  1          =MATGTCT    DS    A             Terminal global control table
 000028                             1362  1          =MATFILCB   DS    A             File master control table
 00002C                             1363  1          =MATJESCB   DS    A             JES master control table
 000030                             1364  1          =MATSYSCB   DS    A             System task control table
 000034                             1365  1          =MATACCT    DS    A             Accounting control table
 000038                             1366  1          =MATGRCT    DS    A             General Resource control table
 00003C                             1367  1          =MATGNCT    DS    A             Global Network Control table
 000040                             1368  1          =MATTECB    DS    D             Termination wait ECB
 000048                             1369  1          =           DS    25A           Reserved
                                    1370  1          =*
                                    1371  1          =* Control Block Chains
                                    1372  1          =*
 0000AC                             1373  1          =MATASBS    DS    A             Pointer to chain of ASBs
 0000B0                             1374  1          =MATASBL    DS    A             Id of suspend lock for ASB chain
 0000B4                             1375  1          =           DS    8A            **  RESERVED
                                    1376  1          =*
                                    1377  1          =* Control information
                                    1378  1          =*
 0000D4                             1379  1          =MATSNAME   DS    CL8           System Name
 0000DC                             1380  1          =MATPAGFN   DS    A             Current value of the Paging function
 0000E0                             1381  1          =MATSKEY    DS    X             SYSTEM storage key (in high 4 bits)
 0000E1                             1382  1          =MATUKEY    DS    X             USER storage key
                                    1383= 1          =           ¿þþþþþþþþþþþþþþþþþþþþþþþþþþþþþþþþÜ
                                    1384= 1          =           Ÿ  Information about the Kernel  Ÿ
                                    1385= 1          =           ¾þþþþþþþþþþþþþþþþþþþþþþþþþþþþþþþþ»
 0000E4                             1386  1          =MATKSTRT   DS    A             Starting address of the Kernel
 0000E8                             1387  1          =MATKMAP    DS    A             Address of the Kernel map
 0000EC                             1388  1          =MATKMAPL   DS    A             Length of the Kernel map
                                    1389= 1          =           ¿þþþþþþþþþþþþþþþþþþþþþþþþþÜ
                                    1390= 1          =           Ÿ  Failsoft information.  Ÿ
                                    1391= 1          =           ¾þþþþþþþþþþþþþþþþþþþþþþþþþ»
 0000F0                             1392  1          =MATNCLPE   DS    F             Number of CLP errors
 0000F4                             1393  1          =MATNFAIL   DS    F             Number of failsofts
 0000F8                             1394  1          =           DS    2A            Reserved
1JESSERV  (JESS00) (09:41) (22MAR04) Global data areas                                                                      Page    8
0Loc    Object Code    Addr1 Addr2  Stmt Lv Lineno    Source Statement           (Hibal 5, Asmedit 3.3)  HLASM R4.0  2004/03/22 09.41
+___    ______ ____    _____ _____  ____ __ ______    ______ _________
0000100                00100 00100  1395             =         END
1JESSERV  (JESS00) (09:41) (22MAR04) Global parameter areas                                                                 Page    9
0Loc    Object Code    Addr1 Addr2  Stmt Lv Lineno    Source Statement           (Hibal 5, Asmedit 3.3)  HLASM R4.0  2004/03/22 09.41
+___    ______ ____    _____ _____  ____ __ ______    ______ _________
0                                   1405      12.              COPY  VMPARM                  Virtual Memory
                                    1406             =*******************************************************************
                                    1407             =*                                                                 *
                                    1408             =*    Memory parms for inside the virtual machine.                 *
                                    1409             =*                                                                 *
                                    1410             =*******************************************************************
-000000                00000 0000B  1412             =@VMGET   RECORD BEGIN        Parm area for getting virtual memory
 000000                             1420  1          =@VMGLEN    DS    A             Amount of memory needed
 000004                             1421  1          =@VMGDAT    DS    A             More data. Address or maxlen.
 000008                             1422  1          =@VMGPOOL   DS    H             Pool/Subpool to get the memory from
 00000A 00                          1423  1          =@VMGFLG    FLAG  ,
 @VMGFLG.@VMGPAGE  80 ONES          1427  1          =           FLAG  @VMGPAGE      Page Aligned
 @VMGFLG.@VMGONEP  40 ONES          1432  1          =           FLAG  @VMGONEP      Don't cross page boundary
 00000B                0000B 0000B  1437             =         END   ,
-000000                00000 0000A  1447             =@VMFREE  RECORD BEGIN        Used for VMFREE and VMCHECK
 000000                             1455  1          =@VMFLOC    DS    A             Location of the storage to free
 000004                             1456  1          =@VMFLEN    DS    A             Amount to free
 000008                             1457  1          =@VMFPOOL   DS    H             Pool/Subpool where the storage lives
 00000A                0000A 0000A  1458             =         END   ,
-000000                00000 00009  1468             =@VMINFO  RECORD BEGIN        Returns User address limits/hash val
 000000                             1476  1          =@VMIUST    DS    A             Start of the user address space
 000004                             1477  1          =@VMIULEN   DS    A             Length of the user address space
 000008                             1478  1          =@VMITRSH   DS    X             Trash value
 000009                00009 00009  1479             =         END   ,
1JESSERV  (JESS00) (09:41) (22MAR04) Global parameter areas                                                                 Page   10
0Loc    Object Code    Addr1 Addr2  Stmt Lv Lineno    Source Statement           (Hibal 5, Asmedit 3.3)  HLASM R4.0  2004/03/22 09.41
+___    ______ ____    _____ _____  ____ __ ______    ______ _________
0                                   1489      14.              COPY  DISPPARM                Dispatching
                                    1490             =*****************************************************************
                                    1491             =*                                                               *
                                    1492             =*  DISPPARM -- Parameters for the dispatcher global routines.   *
                                    1493             =*                                                               *
                                    1494             =*****************************************************************
-                                   1496             =*
                                    1497             =* Routines to indicate completion of a page or swap I/O
                                    1498             =*
 000000                00000 00004  1499             =@DISPPIOC RECORD BEGIN                 Page I/O completion parms
 000000                             1507  1          =@DPIOASB   DS    A                       ASB of completing I/O
 000004                00004 00004  1508             =         END   ,
0000000                00000 00004  1518             =@DISPSIOC RECORD BEGIN                 Swap I/O completion parms
 000000                             1526  1          =@DSIOASB   DS    A                       ASB of completing I/O
 000004                00004 00004  1527             =         END   ,
-                                   1537             =*
                                    1538             =* SUSPEND parameters
                                    1539             =*
0000000                00000 00009  1541             =@SUSPEND RECORD BEGIN
 000000                             1549  1          =@SUSPCTL   DS    0D            ID of the Control level suspended
 000000                             1550  1          =@SUSPID    DS    A             ID of the task/address space suspended
 000004                             1551  1          =@SUSPLC    DS    A             For tasks: Level of control suspended
 000008 00                          1552  1          =@SUSPFLG   FLAG  ,
 @SUSPFLG.@SUSPLNG 80 ONES          1556  1          =           FLAG  @SUSPLNG      This will be of long duration
 @SUSPFLG.@SUSPAS  40 ONES          1561  1          =           FLAG  @SUSPAS       Suspend the entire address space
 @SUSPFLG.@SUSPPLC 20 ONES          1566  1          =           FLAG  @SUSPPLC      Suspend previous level of control
 000009                00009 00009  1571             =         END   ,
-                                   1581             =*
                                    1582             =* RESUMAS/RESUMTS parameters
                                    1583             =*
0000000                00000 00008  1585             =@RESUME  RECORD BEGIN
 000000                             1593  1          =@RESCTL    DS    0D            ID of the unit of work to be resumed
 000000                             1594  1          =@RESUNIT   DS    A             Address of the ASB/task Id to resume
 000004                             1595  1          =@RESLC     DS    A             Level of control in a task
 000008                00008 00008  1596             =         END   ,
-                                   1606             =*
                                    1607             =* DISPSHLD/DISPSREL parmameters
                                    1608             =*
0000000                00000 00004  1610             =@DISPSWP RECORD BEGIN
 000000                             1618  1          =@DISPSAS   DS    A             Address of the ASB being manipulated
 000004                00004 00004  1619             =         END   ,
-                                   1629             =*
1JESSERV  (JESS00) (09:41) (22MAR04) Global parameter areas                                                                 Page   11
0Loc    Object Code    Addr1 Addr2  Stmt Lv Lineno    Source Statement           (Hibal 5, Asmedit 3.3)  HLASM R4.0  2004/03/22 09.41
+___    ______ ____    _____ _____  ____ __ ______    ______ _________
0                                   1630             =* ACREATE parameters
                                    1631             =*
0000000                00000 00008  1633             =@ACREATE RECORD BEGIN
 000000                             1641  1          =@ACRPSW    DS    D             Instruction address for task
 000008                00008 00008  1642             =         END   ,
-                                   1652             =*
                                    1653             =* TCREATE parameters
                                    1654             =*
0000000                00000 00015  1656             =@TCREATE RECORD BEGIN
 000000                             1664  1          =@TCRPSW    DS    D             Initial PSW for the task
 000008                             1665  1          =@TCRPARM   DS    2A            Parameter for the task
 000010                             1666  1          =@TCRPRIO   DS    A             Adjustment to priority from Current task
 000014 00                          1667  1          =@TCRFLAG   FLAG  ,             Task creation flags
 @TCRFLAG.@TCRFSTK 80 ONES          1671  1          =           FLAG  @TCRFSTK        Task entered with a stack
 @TCRFLAG.@TCRFPAB 40 ONES          1676  1          =           FLAG  @TCRFPABS       Prio is absolute
 000015                00015 00015  1681             =         END   ,
-                                   1691             =*
                                    1692             =* TREMOVE parameters
                                    1693             =*
0000000                00000 00004  1695             =@TREMOVE RECORD BEGIN
 000000                             1703  1          =@TREID     DS    A             ID of the task to be removed
 000004                00004 00004  1704             =         END   ,
-                                   1714             =*
                                    1715             =* TENTRY Parameters  (on entry to a created task)
                                    1716             =*
0000000                00000 00008  1718             =@TENTRY  RECORD BEGIN
 000000                             1726  1          =@TEPARM    DS    2A            Entry parm for the task
 000008                00008 00008  1727             =         END   ,
-                                   1737             =*
                                    1738             =* TEXIT parameters
                                    1739             =*
0000000                00000 00004  1741             =@TEXIT   RECORD BEGIN
 000000                             1749  1          =           DS    A             Not used
 000004                00004 00004  1750             =         END   ,
-                                   1760             =*
                                    1761             =* SYSRNEW -- Get a new SYSR ID
                                    1762             =*
0000000                00000 00004  1764             =@SYSRNEW RECORD BEGIN
 000000                             1772  1          =           DS    A             Not used
 000004                00004 00004  1773             =         END   ,
1JESSERV  (JESS00) (09:41) (22MAR04) Global parameter areas                                                                 Page   12
0Loc    Object Code    Addr1 Addr2  Stmt Lv Lineno    Source Statement           (Hibal 5, Asmedit 3.3)  HLASM R4.0  2004/03/22 09.41
+___    ______ ____    _____ _____  ____ __ ______    ______ _________
0                                   1783             =*
                                    1784             =* SYSRDEL -- Delete a previous SYSR ID
                                    1785             =*
 000000                00000 00004  1786             =@SYSRDEL RECORD BEGIN
 000000                             1794  1          =@SYSRDID   DS    A             Id of the SYSR
 000004                00004 00004  1795             =         END   ,
-                                   1805             =*
                                    1806             =* SYSRDO -- Schedule a system routine to run in another address space
                                    1807             =*
0000000                00000 0001C  1809             =@SYSRDO  RECORD BEGIN
 000000                             1817  1          =@SYSRID    DS    A             Id from SYSRNEW
 000004                             1818  1          =@SYSRASB   DS    A             ASB of the Address space where it goes
 000008                             1819  1          =@SYSRLOC   DS    A             Location of the system routine
 00000C                             1820  1          =@SYSRPRM   DS    4A            Parameters for the routine
 00001C                0001C 0001C  1821             =         END   ,
-                                   1831             =*
                                    1832             =* SYSRTN -- Parameter passed to a system routine
                                    1833             =*
0000000                00000 00010  1835             =@SYSRTN  RECORD BEGIN
 000000                             1843  1          =@SYSPARS   DS    4A            Parameters
 000010                00010 00010  1844             =         END   ,
-                                   1854             =*
                                    1855             =* PERSET -- Set the Per registers
                                    1856             =*
0000000                00000 0000C  1858             =@PERSET  RECORD BEGIN
 000000                             1866  1          =@PERSDAT   DS    3F            3 Registers (corresponds to CRs 9-11)
 00000C                0000C 0000C  1867             =         END   ,
-                                   1877             =*
                                    1878             =* MONSET -- Set the MON masks
                                    1879             =*
0000000                00000 00002  1881             =@MONSET  RECORD BEGIN
 000000                             1889  1          =@MONSDAT   DS    H             Monitor Class Mask
 000002                00002 00002  1890             =         END   ,
-                                   1900             =*
                                    1901             =* DSPSTAT -- Return Dispatcher Statistics
                                    1902             =*
0000000                00000 00020  1904             =@DSPSTAT RECORD BEGIN
 000000                             1912  1          =@DSPSST    DS    D             TOD clock when system started
 000008                             1913  1          =@DSPSCHG   DS    D             Total CPU time charged (TOD)
 000010                             1914  1          =@DSPSDSP   DS    D             Dispatch CPU time (TOD)
 000018                             1915  1          =@DSPSIOS   DS    D             I/O Service time (TOD)
1JESSERV  (JESS00) (09:41) (22MAR04) Global parameter areas                                                                 Page   13
0Loc    Object Code    Addr1 Addr2  Stmt Lv Lineno    Source Statement           (Hibal 5, Asmedit 3.3)  HLASM R4.0  2004/03/22 09.41
+___    ______ ____    _____ _____  ____ __ ______    ______ _________
0000020                00020 00020  1916             =         END   ,
1JESSERV  (JESS00) (09:41) (22MAR04) Global parameter areas                                                                 Page   14
0Loc    Object Code    Addr1 Addr2  Stmt Lv Lineno    Source Statement           (Hibal 5, Asmedit 3.3)  HLASM R4.0  2004/03/22 09.41
+___    ______ ____    _____ _____  ____ __ ______    ______ _________
0                                   1926      16.              COPY  XITPARM                 Exit Processing
                                    1927             =*****************************************************************
                                    1928             =*                                                               *
                                    1929             =*  XITPARM --  Parameters for the routines dealing with exit    *
                                    1930             =*              routine definition and execution.                *
                                    1931             =*                                                               *
                                    1932             =*****************************************************************
-                                   1934             =*
                                    1935             =*  @EXRADD -- Define a new exit routine.
                                    1936             =*
0000000                00000 00015  1938             =@EXRADD  RECORD BEGIN
 000000                             1946  1          =@EXRTYPE   DS    A             Exit type bit map
 000004                             1947  1          =@EXRQUAL   DS    A             Exit Qualifier
 000008                             1948  1          =@EXRPSW    DS    D             Exit PSW
 000010                             1949  1          =@EXRPARM   DS    A             Parm for the exit
 000014 00                          1950  1          =@EXRAFLG   FLAG  ,
 @EXRAFLG.@EXRAFQ  80 ONES          1954  1          =           FLAG  @EXRAFQ       Exit should be qualified
 @EXRAFLG.@EXRAFS  40 ONES          1959  1          =           FLAG  @EXRAFS       System exit (entered with a stack)
 000015                00015 00015  1964             =         END   ,
-                                   1974             =*
                                    1975             =*  @EXRDEL -- Remove an exit routine definition.
                                    1976             =*
0000000                00000 00004  1978             =@EXRDEL  RECORD BEGIN
 000000                             1986  1          =@EXRDID    DS    A             Exit routine ID
 000004                00004 00004  1987             =         END   ,
-                                   1997             =*
                                    1998             =*  @EXRDONE -- Complete exit processing.
                                    1999             =*
0000000                00000 00001  2001             =@EXRDONE RECORD BEGIN
 000000 00                          2009  1          =@EXRDCD    FLAG  ,
 @EXRDCD.@EXRDFIN  00 EQ            2013  1          =           FLAG  (@EXRDFIN,0,EQ)         No further processing needed
 @EXRDCD.@EXRDNXT  01 EQ            2023  1          =           FLAG  (@EXRDNXT,1,EQ)         Percolate the exit request
 000001                00001 00001  2033             =         END   ,
-                                   2043             =*
                                    2044             =*  @XITNEW -- Define a new exit request.
                                    2045             =*
0000000                00000 00001  2047             =@XITNEW  RECORD BEGIN
 000000 00                          2055  1          =@XITNFL    FLAG  ,
 @XITNFL.@XITNFG   80 ONES          2059  1          =           FLAG  @XITNFG       Global exit request
 000001                00001 00001  2064             =         END   ,
-                                   2074             =*
                                    2075             =*  @XITDEL -- Delete an exit request
1JESSERV  (JESS00) (09:41) (22MAR04) Global parameter areas                                                                 Page   15
0Loc    Object Code    Addr1 Addr2  Stmt Lv Lineno    Source Statement           (Hibal 5, Asmedit 3.3)  HLASM R4.0  2004/03/22 09.41
+___    ______ ____    _____ _____  ____ __ ______    ______ _________
0                                   2076             =*
0000000                00000 00004  2078             =@XITDEL  RECORD BEGIN
 000000                             2086  1          =@XITDID    DS    A             Exit request ID
 000004                00004 00004  2087             =         END   ,
-                                   2097             =*
                                    2098             =*  @XITDO -- Schedule an exit.
                                    2099             =*
 000000                00000 00020  2100             =@XITDO   RECORD BEGIN
 000000                             2108  1          =@XITRQID   DS    A             Request ID (from XITNEW)
 000004                             2109  1          =@XITTSK    DS    A             Task Id where this exit is to run
 000008                             2110  1          =@XITTYPE   DS    X             Exit type (Integer)
 00000C                             2111  1          =@XITQUAL   DS    A             Exit qualifier
 000010                             2112  1          =@XITPARM   DS    XL16          Exit parameter area
 000020                00020 00020  2113             =         END   ,
-                                   2123             =*
                                    2124             =*  @XITGPST -- Info about the status of the previous level of control
                                    2125             =*              used by XITGST and XITPST
                                    2126             =*
0000000                00000 00068  2128             =@XITGPST RECORD BEGIN
 000000                             2136  1          =@XITSPSW   DS    D             PSW
 000008                             2137  1          =@XITSGPR   DS    16F           GPRs
 000048                             2138  1          =@XITSFPR   DS    4D            FPRs
 000068                00068 00068  2139             =         END   ,
-                                   2149             =*
                                    2150             =*  @XITMASK -- Modify the current exit mask
                                    2151             =*
0000000                00000 00005  2153             =@XITMASK RECORD BEGIN
 000000                             2161  1          =@XITMSK    DS    A             Bit mask of the data
 000004 00                          2162  1          =@XITMREQ   FLAG  ,             Request type
 @XITMREQ.@XITMSO  00 EQ            2166  1          =           FLAG  (@XITMSO,0,EQ)  OR this data into the mask
 @XITMREQ.@XITMSN  01 EQ            2176  1          =           FLAG  (@XITMSN,1,EQ)  AND this data into the mask
 @XITMREQ.@XITMSS  02 EQ            2186  1          =           FLAG  (@XITMSS,2,EQ)  Store this data into the mask
 000005                00005 00005  2196             =         END   ,
-                                   2206             =*
                                    2207             =* Definition of the types of exits
                                    2208             =*
0                                   2210             =XITTPI   EQU    0          * Program interrupt
                                    2211             =XITTSVC  EQU    1          * Supervisor Call
                                    2212             =XITTRTC  EQU    2            Real time clock expiration
                                    2213             =XITTCTC  EQU    3            CPU time clock expiration
                                    2214             =XITTPER  EQU    4            Program Event
                                    2215             =XITTMON  EQU    5            Monitor Call
                                    2216             =XITTLGO  EQU    6            Logoff
                                    2217             =XITTR07  EQU    7            -- reserved --
1JESSERV  (JESS00) (09:41) (22MAR04) Global parameter areas                                                                 Page   16
0Loc    Object Code    Addr1 Addr2  Stmt Lv Lineno    Source Statement           (Hibal 5, Asmedit 3.3)  HLASM R4.0  2004/03/22 09.41
+___    ______ ____    _____ _____  ____ __ ______    ______ _________
0                                   2218             =XITTATTN EQU    8            Attention
                                    2219             =XITTIOCN EQU    9            I/O Completed normally
                                    2220             =XITTIOCA EQU   10            I/O Completed abnormally
-                                   2222             =*
                                    2223             =* Definition of the exit mask
                                    2224             =*
0000000                00000 00004  2226             =XITMSKD  RECORD BEGIN
                                    2234  1          =
 000000 00                          2235  1          =MITMK1     FLAG  ,             First byte of the mask
 MITMK1.XITMPI     80 ONES          2239  1          =           FLAG  XITMPI          Program interrupt
 MITMK1.XITMSVC    40 ONES          2244  1          =           FLAG  XITMSVC         Supervisor Call
 MITMK1.XITMRTC    20 ONES          2249  1          =           FLAG  XITMRTC         Real time clock expiration
 MITMK1.XITMCTC    10 ONES          2254  1          =           FLAG  XITMCTC         CPU time clock expiration
 MITMK1.XITMPER    08 ONES          2259  1          =           FLAG  XITMPER         Program Event
 MITMK1.XITMMON    04 ONES          2264  1          =           FLAG  XITMMON         Monitor Call
 MITMK1.XITMLGO    02 ONES          2269  1          =           FLAG  XITMLGO         Logoff
 MITMK1.XITMR07    01 ONES          2274  1          =           FLAG  XITMR07         -- reserved --
                                    2279  1          =
 000001 00                          2280  1          =MITMK2     FLAG  ,             Second byte of the mask
 MITMK2.XITMATTN   80 ONES          2284  1          =           FLAG  XITMATTN        Attention
 MITMK2.XITMIOCN   40 ONES          2289  1          =           FLAG  XITMIOCN        I/O Completed normally
 MITMK2.XITMIOCA   20 ONES          2294  1          =           FLAG  XITMIOCA        I/O Completed abnormally
                                    2299  1          =
 000002 00                          2300  1          =MITMK3     FLAG  ,             Third byte of the mask
                                    2304  1          =
 000003 00                          2305  1          =MITMK4     FLAG  ,             Fourth byte of the mask
 000004                00004 00004  2309             =         END   ,
-                                   2319             =*
                                    2320             =* Definition of Exit routine entry data area
                                    2321             =*
0000000                00000 00004  2323             =@XITDATA RECORD BEGIN
 000000                             2331  1          =@XITDSA    DS    A             Pointer to XITSAREA (exit status area)
 000004                00004 00004  2332             =         END   ,
-                                   2342             =*
                                    2343             =* Definition of the Exit Status area
                                    2344             =*
0000000                00000 0001C  2346             =XITSAREA RECORD BEGIN
 000000                             2354  1          =XITSRPRM   DS    A             Parm value for the Routine
 000004                             2355  1          =XITSTYPE   DS    X             Type of the exit
 000008                             2356  1          =XITSQUAL   DS    A             Exit Qualifier
 00000C                             2357  1          =XITSXPRM   DS    XL16          Exit parameter area
 00001C                0001C 0001C  2358             =         END   ,
1JESSERV  (JESS00) (09:41) (22MAR04) Global parameter areas                                                                 Page   17
0Loc    Object Code    Addr1 Addr2  Stmt Lv Lineno    Source Statement           (Hibal 5, Asmedit 3.3)  HLASM R4.0  2004/03/22 09.41
+___    ______ ____    _____ _____  ____ __ ______    ______ _________
0                                   2368      18.              COPY  LOCKPARM                Locks
                                    2369             =*******************************************************************
                                    2370             =*                                                                 *
                                    2371             =*    LOCKPARM - Lock routine calling parms                        *
                                    2372             =*                                                                 *
                                    2373             =*******************************************************************
0000000                00000 00011  2375             =@LOCKCRE RECORD BEGIN
 000000                             2383  1          =@LOCKNAM   DS    CL16          Name of the lock
 000010 00                          2384  1          =@LOCKFL    FLAG  ,
 @LOCKFL.@LFSPIN   80 ONES          2388  1          =           FLAG  @LFSPIN       Spin type lock
 000011                00011 00011  2393             =         END   ,
                                    2402             =*
 000000                00000 00004  2403             =@LOCKS   RECORD BEGIN
 000000                             2411  1          =@LOCKID    DS    A             Lock id
 000004                00004 00004  2412             =         END   ,
1JESSERV  (JESS00) (09:41) (22MAR04) Global parameter areas                                                                 Page   18
0Loc    Object Code    Addr1 Addr2  Stmt Lv Lineno    Source Statement           (Hibal 5, Asmedit 3.3)  HLASM R4.0  2004/03/22 09.41
+___    ______ ____    _____ _____  ____ __ ______    ______ _________
0                                   2422      20.              COPY  SIGPARM                 Signal/Await
                                    2423             =*
                                    2424             =*  AWAIT/AWAITAS parameters
                                    2425             =*    For task based calls, the ECB is a double word.
                                    2426             =*    For address space based calls, the ECB is a word.
                                    2427             =*
 000000                00000 00005  2428             =@AWAIT   RECORD BEGIN
 000000                             2436  1          =@AWTECB    DS    A                       Address of ECB
 000004 00                          2437  1          =@AWTFLG    FLAG  ,
 @AWTFLG.@AWTLONG  80 ONES          2441  1          =           FLAG  @AWTLONG                Long term wait
 000005                00005 00005  2446             =         END   ,
0                                   2456             =*
                                    2457             =*  SIGNAL/SIGNALAS parameters
                                    2458             =*    For task based calls, the ECB and post code is a double word.
                                    2459             =*    For address space based calls, the ECB and post code is a word.
                                    2460             =*
 000000                00000 00014  2461             =@SIGNAL  RECORD BEGIN
 000000                             2469  1          =@SGCODE    DS    D                       Post code
 000008                             2470  1          =@SGECB     DS    A                       Address of ECB
                                    2471  1          =*  -- Parms for task signal --
                                    2472  1          =*    Zero ASB means post in this AS
                                    2473  1          =*    @PSSRID is only used for cross AS posts
 00000C                             2474  1          =@SGASB     DS    A                       ASB to be posted
 000010                             2475  1          =@SGSRID    DS    A                       System routine ID for cross
                                    2476  1          =*                                          AS posting
 000014                00014 00014  2477             =         END   ,
1JESSERV  (JESS00) (09:41) (22MAR04) Global parameter areas                                                                 Page   19
0Loc    Object Code    Addr1 Addr2  Stmt Lv Lineno    Source Statement           (Hibal 5, Asmedit 3.3)  HLASM R4.0  2004/03/22 09.41
+___    ______ ____    _____ _____  ____ __ ______    ______ _________
0                                   2487      22.              COPY  IOSPARM                 I/O Supervisor
 000000                00000 0001E  2488             =@IOSDOIO RECORD BEGIN
 000000                             2496  1          =@IOSCHID   DS    A                       Subchannel ID
 000004                             2497  1          =@IOSID     DS    A                       I/O ID
 000008                             2498  1          =@IOSPID    DS    D                       Process ID
 000010                             2499  1          =@IOSCP     DS    A                       Channel program addr (VA)
 000014                             2500  1          =@IOSXID    DS    A                       Exit ID/Fast path rtn addr
 000018                             2501  1          =@IOSXPAR   DS    A                       Ending parameter
 00001C                             2502  1          =@IOSKEY    DS    X                       Key for I/O
 00001D 00                          2503  1          =@IOSF1     FLAG  ,
 @IOSF1.@IOSFSYNC  80 ONES          2507  1          =           FLAG  @IOSFSYNC               Do I/O synchronous
 @IOSF1.@IOSFAS    40 ONES          2512  1          =           FLAG  @IOSFAS                 | do AS waits for this I/O
 @IOSF1.@IOSFAST   20 ONES          2517  1          =           FLAG  @IOSFAST                Fast path I/O
 00001E                0001E 0001E  2522             =         END   ,
-000000                00000 00008  2532             =@IOTERM  RECORD BEGIN                  I/O termination routine parms
 000000                             2540  1          =@IOTPARM   DS    A                       Termination routine parameter
 000004                             2541  1          =@IOTEND    DS    A                       Ending status of operation
 000008                00008 00008  2542             =         END   ,
-000000                00000 00010  2552             =@IOSTIME RECORD BEGIN
 000000                             2560  1          =@IOSTID    DS    A                       I/O ID
 000008                             2561  1          =@IOSIOTIME   DS  D                       Time of this I/O
 000010                00010 00010  2562             =         END   ,
-000000                00000 00001  2572             =@IOSIDGET RECORD BEGIN
 000000 00                          2580  1          =@IOSIDF     FLAG   ,
 @IOSIDF.@IOSFWAIT 80 ONES          2584  1          =            FLAG   @IOSFWAIT             If need be, wait for id
 000001                00001 00001  2589             =          END    ,
-000000                00000 00004  2599             =@IOSIDFRE RECORD BEGIN
 000000                             2607  1          =@IOSFID     DS   A                       ID being freed
 000004                00004 00004  2608             =          END  ,
1JESSERV  (JESS00) (09:41) (22MAR04) Global parameter areas                                                                 Page   20
0Loc    Object Code    Addr1 Addr2  Stmt Lv Lineno    Source Statement           (Hibal 5, Asmedit 3.3)  HLASM R4.0  2004/03/22 09.41
+___    ______ ____    _____ _____  ____ __ ______    ______ _________
0                                   2618             =         COPY  IORPARM
                                    2619             =*******************************************************************
                                    2620             =*                                                                 *
                                    2621             =*     @IORPARM - ORVYL I/O request parameters                     *
                                    2622             =*                                                                 *
                                    2623             =*******************************************************************
0000000                00000 00014  2625             =@IORB    RECORD BEGIN
 000000                             2633  1          =@IORRQID   DS    A                       Request ID
 000004                             2634  1          =@IOROFF    DS    A                       Offset (guest real to MVS)
 000008                             2635  1          =@IORPARM   DS    A                       Pointer to user parm list
 00000C                             2636  1          =@IORSCH    DS    A                       Subchannel (device ID)
 000010                             2637  1          =@IORKEY    DS    X                       Channel program protect key
 000011                             2638  1          =@IORCC     DS    X                       Condition code (returned)
 000012                             2639  1          =           DS    2X                      Reserved
 000014                00014 00014  2640             =         END   ,
-
                                    2650             =*******************************************************************
                                    2651             =*                                                                 *
                                    2652             =*     @IOUPARM - I/O Device id allocate request parameters        *
                                    2653             =*                                                                 *
                                    2654             =*******************************************************************
0000000                00000 00004  2656             =@IOUPARM RECORD BEGIN
 000000                             2664  1          =@IOUDEVT   DS    A
                                    2665  1          =*
                                    2666  1          =*  Device types
                                    2667  1          =*
                                    2668  1          =#IOUPAGE   EQU   4                       | paging
                                    2669  1          =#IOUSWAP   EQU   8                       | swap
                                    2670  1          =#IOUFILE   EQU   12                      | file
                                    2671  1          =#IOUSCOM   EQU   16                      | path
                                    2672  1          =#IOUJES    EQU   20                      | JES
                                    2673  1          =#IOUHSP    EQU   24                      | Standard hiperspace
                                    2674  1          =#IOUESO    EQU   28                      | Cached hiperspace
 000004                00004 00004  2675             =         END   ,
1JESSERV  (JESS00) (09:41) (22MAR04) Global parameter areas                                                                 Page   21
0Loc    Object Code    Addr1 Addr2  Stmt Lv Lineno    Source Statement           (Hibal 5, Asmedit 3.3)  HLASM R4.0  2004/03/22 09.41
+___    ______ ____    _____ _____  ____ __ ______    ______ _________
0                                   2685      24.              COPY  PAGEPARM                Paging
                                    2686             =*
                                    2687             =*  Page fault return codes
                                    2688             =*
                                    2689             =@PFRINP  EQU   0                       Fault in progress
                                    2690             =@PFRADDR EQU   4                       Addressing exception
                                    2691             =@PFROK   EQU   8                       Fault resolved
                                    2692             =@PFRWAIT EQU   12                      Must wait for some resource
0000000                00000 00005  2694             =@PAGSWAP RECORD BEGIN
 000000                             2702  1          =@SWASB     DS    A                       Address of ASB being swapped
                                    2703  1          =* -- Return parameters --
 000004 00                          2704  1          =@SWFLG     FLAG  ,
 @SWFLG.@SWFINP    00 EQ            2708  1          =           FLAG  (@SWFINP,0,EQ)          Swap in progress
 @SWFLG.@SWFOK     04 EQ            2718  1          =           FLAG  (@SWFOK,4,EQ)           Swap done now
 @SWFLG.@SWFWAIT   08 EQ            2728  1          =           FLAG  (@SWFWAIT,8,EQ)         Must wait for some resource
 000005                00005 00005  2738             =         END   ,
0000000                00000 00004  2748             =@PAGSWADV RECORD BEGIN                 Give swap advice
 000000                             2756  1          =@ADVASB    DS    A                       ASB of advice
 000004                00004 00004  2757             =         END   ,
0000000                00000 0000D  2767             =@PAGWSMA RECORD BEGIN                  Working Set management
 000000                             2775  1          =@WSASB     DS    A                       ASB of AS to be managed
 000004                             2776  1          =@WSINT     DS    A                       Number of elapsed intervals
 000008                             2777  1          =@WSLIMIT   DS    A                       Maximum number of frames
 00000C 00                          2778  1          =@WSFLG     FLAG  ,
 @WSFLG.@WSFGLOB   80 ONES          2782  1          =           FLAG  @WSFGLOB                Manage Global AS
 00000D                0000D 0000D  2787             =         END   ,
0000000                00000 0000A  2797             =@PAGDEF  RECORD BEGIN                  Define a page
 000000                             2805  1          =@PDADDR    DS    A                       Page VA
 000004                             2806  1          =@PDLEN     DS    A                       Length of definition (bytes)
 000008                             2807  1          =@PDKEY     DS    X                       Storage key (+ key protect)
                                    2808  1          =* @PDHASH  DS    X                       Hash value for page
 000009 00                          2809  1          =@PDF1      FLAG  @PDFGLOB                In global memory
 @PDF1.@PDFGLOB    80 ONES
 @PDF1.@PDFPROT    40 ONES          2815  1          =           FLAG  @PDFPROT                Page table protection
 00000A                0000A 0000A  2820             =         END   ,
0000000                00000 0000A  2830             =@PAGSEGD RECORD BEGIN                  Define a segment
 000000                             2838  1          =@SDADDR    DS    A                       Segment address
 000004                             2839  1          =@SDLEN     DS    A                       Length of definition (bytes)
 000008                             2840  1          =@SDHASH    DS    X                       Hash value for segment
 000009 00                          2841  1          =@SDF1      FLAG  @SDFGLOB                In global memory
 @SDF1.@SDFGLOB    80 ONES
 00000A                0000A 0000A  2847             =         END   ,
0000000                00000 00008  2857             =@PAGASC1 RECORD BEGIN
 000000                             2865  1          =@ASCASB    DS    A                       ASB for AS being created
 000004                             2866  1          =@ASCWSLM   DS    A                       Maximum size of working set
 000008                00008 00008  2867             =         END   ,
0000000                00000 00005  2877             =@PAGASC2 RECORD BEGIN                  Address space creation
 000000                             2885  1          =@ASCVA     DS    A                       Virtual address of 1st PT
 000004                             2886  1          =@ASCKEY    DS    X                       Storage key (+ key protect)
1JESSERV  (JESS00) (09:41) (22MAR04) Global parameter areas                                                                 Page   22
0Loc    Object Code    Addr1 Addr2  Stmt Lv Lineno    Source Statement           (Hibal 5, Asmedit 3.3)  HLASM R4.0  2004/03/22 09.41
+___    ______ ____    _____ _____  ____ __ ______    ______ _________
0000005                00005 00005  2887             =         END   ,
0000000                00000 00009  2897             =@PAGE    RECORD BEGIN                  General paging routine parms
 000000                             2905  1          =@PAGLOC    DS    A                       Virtual address
 000004                             2906  1          =@PAGLEN    DS    A                       Length (in bytes)
 000008                             2907  1          =@PAGKEY    DS    X                       Key - where required
                                    2908  1          =@PAGHASH   EQU   @PAGKEY                 Hash - where required
 000009                00009 00009  2909             =         END   ,
0000000                00000 00008  2919             =@PAGRV   RECORD BEGIN                  Real to virtual translation
 000000                             2927  1          =@PAGRVAD   DS    A                       Real addr to be translated
                                    2928  1          =* -- Return parms --
 000004                             2929  1          =@PAGRVASB   DS   A                       Address space block
 000008                00008 00008  2930             =         END   ,
0000000                00000 00004  2940             =@PAGINTV RECORD BEGIN                  Paging management interval
 000000                             2948  1          =@PAGINT    DS    A                       Number of intervals in cycle
 000004                00004 00004  2949             =         END   ,
0000000                00000 00008  2959             =@PAGINIT RECORD BEGIN                  Global initialization
 000000                             2967  1          =@PAGIASB   DS    A                       Global ASB address
 000004                             2968  1          =@PAGIMEG   DS    A                       Maximum number of bytes in VA
 000008                00008 00008  2969             =         END   ,
1JESSERV  (JESS00) (09:41) (22MAR04) Global parameter areas                                                                 Page   23
0Loc    Object Code    Addr1 Addr2  Stmt Lv Lineno    Source Statement           (Hibal 5, Asmedit 3.3)  HLASM R4.0  2004/03/22 09.41
+___    ______ ____    _____ _____  ____ __ ______    ______ _________
0                                   2979      26.              COPY  TRCEPARM                Tracing
                                    2980             =*******************************************************************
                                    2981             =*                                                                 *
                                    2982             =*       TRCEPARM -- Trace routine calling parms                   *
                                    2983             =*                                                                 *
                                    2984             =*******************************************************************
0000000                00000 00058  2986             =@TRACE   RECORD BEGIN
                                    2994  1          =
 000000 00                          2995  1          =@TRTYPE    FLAG   ,                      Type of the trace entry
 @TRTYPE.TRCFTRA   00 EQ            2999  1          =           FLAG  (TRCFTRA,0,EQ)          Trace
 @TRTYPE.TRCFMCHK  01 EQ            3009  1          =           FLAG  (TRCFMCHK,1,EQ)         Machine check
 @TRTYPE.TRCFSVC   02 EQ            3019  1          =           FLAG  (TRCFSVC,2,EQ)          Svc
 @TRTYPE.TRCFPI    03 EQ            3029  1          =           FLAG  (TRCFPI,3,EQ)           Program
 @TRTYPE.TRCFEXT   04 EQ            3039  1          =           FLAG  (TRCFEXT,4,EQ)          External
 @TRTYPE.TRCFIO    05 EQ            3049  1          =           FLAG  (TRCFIO,5,EQ)           I/O
 @TRTYPE.TRCFRSRT  06 EQ            3059  1          =           FLAG  (TRCFRSRT,6,EQ)         Restart key
 @TRTYPE.TRCFABND  07 EQ            3069  1          =           FLAG  (TRCFABND,7,EQ)         Abend
                                    3079  1          =
 000001                             3080  1          =@TRDLEN    DS    X                       Length of misc data
 000002                             3081  1          =@TRIC      DS    H                       Interrupt code
 000004                             3082  1          =@TRCPID    DS    H                       CPU ID
 000006                             3083  1          =           DS    H
 000008                             3084  1          =@TRNAME    DS    CL8                     Trace name
 000010                             3085  1          =@TRPSW     DS    XL8                     PSW
 000018                             3086  1          =@TRREGS    DS    16A                     Register area
 000058                00058 00058  3087             =         END   ,
1JESSERV  (JESS00) (09:41) (22MAR04) Global parameter areas                                                                 Page   24
0Loc    Object Code    Addr1 Addr2  Stmt Lv Lineno    Source Statement           (Hibal 5, Asmedit 3.3)  HLASM R4.0  2004/03/22 09.41
+___    ______ ____    _____ _____  ____ __ ______    ______ _________
0                                   3097      28.              COPY  ACCTPARM                Accounting
                                    3098             =*****************************************************************
                                    3099             =*                                                               *
                                    3100             =*  ACCTPARM -- Parameters for the Accounting Routines.          *
                                    3101             =*                                                               *
                                    3102             =*****************************************************************
-                                   3104             =*
                                    3105             =* Start accounting for an address space
                                    3106             =*
0000000                00000 0001C  3108             =@ACLOGON RECORD BEGIN
 000000                             3116  1          =@ACLASB    DS    A             ASB of the Address Space
 000004                             3117  1          =@ACLUID    DS    CL8           User ID
 00000C                             3118  1          =@ACLUPR    DS    A             User Privileges
 000010                             3119  1          =@ACLLOT    DS    D             TOD Clock at Logon
 000018                             3120  1          =@ACLTID    DS    A             Terminal ID
 00001C                0001C 0001C  3121             =         END   ,
-                                   3131             =*
                                    3132             =* Get accounting info for an address space.
                                    3133             =*
0000000                00000 00018  3135             =@ACAINFO RECORD BEGIN
 000000                             3143  1          =@ACAASB    DS    A             ASB of the address space
 000004                             3144  1          =@ACAUID    DS    CL8           User ID
 00000C                             3145  1          =@ACAUPR    DS    A             User Privileges
                                    3146  1          =MILPRIV    EQU   @ACAUPR+3     Milten priv byte *** TEMP ***
 000010                             3147  1          =@ACALOT    DS    D             TOD Clock at Logon
 000018                00018 00018  3148             =         END   ,
-                                   3158             =*
                                    3159             =* Get resource usage info for an address space
                                    3160             =*
0000000                00000 00028  3162             =@ACINFO  RECORD BEGIN
 000000                             3170  1          =@ACIASB    DS    A             ASB of the Address space
 000004                             3171  1          =@ACIIOS    DS    A             Number of I/O's
 000008                             3172  1          =@ACICPU    DS    D             CPU time (TOD)
 000010                             3173  1          =@ACICON    DS    D             Connect time (TOD)
 000018                             3174  1          =@ACIPGNM   DS    CL8           Program name
 000020                             3175  1          =@ACITID    DS    A             Terminal Identifier
 000024                             3176  1          =@ACIORG    DS    A             Shared program address
 000028                00028 00028  3177             =         END   ,
                                    3186             =*
                                    3187             =* Set program information
                                    3188             =*
0000000                00000 0000C  3190             =@ACPINFO RECORD BEGIN
 000000                             3198  1          =@ACPASB    DS    A             ASB of the Address space
 000004                             3199  1          =@ACPPGNM   DS    CL8           Program name
 00000C                0000C 0000C  3200             =         END   ,
                                    3209             =*
1JESSERV  (JESS00) (09:41) (22MAR04) Global parameter areas                                                                 Page   25
0Loc    Object Code    Addr1 Addr2  Stmt Lv Lineno    Source Statement           (Hibal 5, Asmedit 3.3)  HLASM R4.0  2004/03/22 09.41
+___    ______ ____    _____ _____  ____ __ ______    ______ _________
0                                   3210             =* Set shared program information
                                    3211             =*
0000000                00000 00008  3213             =@ACSPINF RECORD BEGIN
 000000                             3221  1          =@ACSPASB   DS    A             ASB of the Address space
 000004                             3222  1          =@ACSPORG   DS    A             Shared program address
 000008                00008 00008  3223             =         END   ,
1JESSERV  (JESS00) (09:41) (22MAR04) Global parameter areas                                                                 Page   26
0Loc    Object Code    Addr1 Addr2  Stmt Lv Lineno    Source Statement           (Hibal 5, Asmedit 3.3)  HLASM R4.0  2004/03/22 09.41
+___    ______ ____    _____ _____  ____ __ ______    ______ _________
0                                   3233      30.              COPY  LISTPARM                List management defs
                                    3234             =*   A list header block is used to control access to a chain
                                    3235             =* of resources.  All elements which are to be linked together on
                                    3236             =* these doubly linked circular lists must have the elements
                                    3237             =* first word be space for a forward list pointer, and the second
                                    3238             =* word space for a backward list pointer.
 000000                00000 0000C  3239             =LHEAD    RECORD BEGIN                  List descriptor
                                    3247  1          =           LHEAD PFX=LH
 000000                             3248  1 01-LHEAD +LHFP       DS    A                       Forward pointer
 000004                             3249  1 01-LHEAD +LHBP       DS    A                       Backward pointer
 000008                             3250  1 01-LHEAD +LHCNT      DS    A                       Number of elements in list
 00000C                0000C 0000C  3251             =         END   ,
0000000                00000 00008  3261             =LELEM    RECORD BEGIN                  Common start of list items
                                    3269  1          =           LELEM PFX=L
 000000                             3270  1 01-LELEM +LFP        DS    A                       Forward pointer
 000004                             3271  1 01-LELEM +LBP        DS    A                       Backward pointer
 000008                00008 00008  3272             =         END   ,
0000000                00000 00010  3282             =@LADD    RECORD BEGIN                  Add items to a list
 000000                             3290  1          =@LAHEAD    DS    A                       Header block of list
 000004                             3291  1          =@LA1ST     DS    A                       First item being added
 000008                             3292  1          =@LALAST    DS    A                       Last item being added
 00000C                             3293  1          =@LACNT     DS    A                       Number of items being added
 000010                00010 00010  3294             =         END   ,
0000000                00000 00010  3304             =@LREM    RECORD BEGIN                  Remove items from a list
 000000                             3312  1          =@LRHEAD    DS    A                       Header block of list
 000004                             3313  1          =@LR1ST     DS    A                       First item being removed
 000008                             3314  1          =@LRCNT     DS    A                       Number of items being removed
                                    3315  1          =* -- Return Parms --
 00000C                             3316  1          =@LRLAST    DS    A                       Last item removed
 000010                00010 00010  3317             =         END   ,
1JESSERV  (JESS00) (09:41) (22MAR04) Global parameter areas                                                                 Page   27
0Loc    Object Code    Addr1 Addr2  Stmt Lv Lineno    Source Statement           (Hibal 5, Asmedit 3.3)  HLASM R4.0  2004/03/22 09.41
+___    ______ ____    _____ _____  ____ __ ______    ______ _________
0                                   3327      32.              COPY  LSTMAC                  List management macros
                                    3328             =         PRINT OFF
                                    3372             =*********************************************************************
                                    3373             =*   Add elements to a list
                                    3374             =*
                                    3375             =*   Input
                                    3376             =*
                                    3377             =* &L  LADD     &HEAD,&FIRST,&FLAST,&FCOUNT,&WR=,&WR2=RAR,&WR3=EPAR
                                    3378             =*     &HEAD    is a pointer the head of the list (defop = LA)
                                    3379             =*     &FIRST   first element to be added to the list
                                    3380             =*     &FLAST   last element to be added (if not specified, assuming
                                    3381             =*              only one)
                                    3382             =*     &FCOUNT  count of elements being added (shouldn't be specified
                                    3383             =*              for only one add)
                                    3384             =*     &WR
                                    3385             =*     &WR2     Registers for scratch
                                    3386             =*     &WR3
                                    3387             =*
                                    3388             =*   Output
                                    3389             =*
                                    3390             =*     No parameter registers are modified
                                    3391             =*
                                    3392             =*********************************************************************
                                    3393             =         PRINT OFF
-
0                                   3488             =*********************************************************************
                                    3489             =*   Remove elements from a list
                                    3490             =*
                                    3491             =*   Input
                                    3492             =*
                                    3493             =* &L  LREM     &HEAD,&FFIRST,&FCOUNT,&LAST=,&WR=,&WR2=RAR,&WR3=EPAR
                                    3494             =*
                                    3495             =*     &HEAD    is a pointer the head of the list (defop = LA)
                                    3496             =*     &FFIRST  first element to be removed from the list (if not
                                    3497             =*              specified then take the first on the list)
                                    3498             =*     &LAST    last element removed (must be specified for multiple
                                    3499             =*              removes, must not be specified for single remove)
                                    3500             =*     &FCOUNT  count of elements to be removed (shouldn't be
                                    3501             =*              specified for single remove)
                                    3502             =*     &WR
                                    3503             =*     &WR2     Registers for scratch
                                    3504             =*     &WR3
                                    3505             =*
                                    3506             =*   Output
                                    3507             =*
                                    3508             =*     RVR      contains the address of the first element on the list
                                    3509             =*     No parameter registers are modified
                                    3510             =*
                                    3511             =*********************************************************************
                                    3512             =         PRINT OFF
-
1JESSERV  (JESS00) (09:41) (22MAR04) Global parameter areas                                                                 Page   28
0Loc    Object Code    Addr1 Addr2  Stmt Lv Lineno    Source Statement           (Hibal 5, Asmedit 3.3)  HLASM R4.0  2004/03/22 09.41
+___    ______ ____    _____ _____  ____ __ ______    ______ _________
0                                   3654             =*********************************************************************
                                    3655             =*   Remove all elements from a list
                                    3656             =*
                                    3657             =*   Input
                                    3658             =*
                                    3659             =* &L  LREMALL  &HEAD,&COUNT=,&LAST=,&WR=
                                    3660             =*
                                    3661             =*     &HEAD    is a pointer the head of the list (defop = LA)
                                    3662             =*     &LAST    returns last element removed (must be specified)
                                    3663             =*     &COUNT   returns count of elements in list
                                    3664             =*
                                    3665             =*     &WR      Register for scratch
                                    3666             =*
                                    3667             =*   Output
                                    3668             =*
                                    3669             =*     RVR      contains the address of the first element on the list
                                    3670             =*
                                    3671             =*     No parameter registers are modified
                                    3672             =*
                                    3673             =*********************************************************************
                                    3674             =         PRINT OFF
1JESSERV  (JESS00) (09:41) (22MAR04) Global parameter areas                                                                 Page   29
0Loc    Object Code    Addr1 Addr2  Stmt Lv Lineno    Source Statement           (Hibal 5, Asmedit 3.3)  HLASM R4.0  2004/03/22 09.41
+___    ______ ____    _____ _____  ____ __ ______    ______ _________
0                                   3761             =*********************************************************************
                                    3762             =*   Move an element to the end of a list
                                    3763             =*
                                    3764             =*   Input
                                    3765             =*
                                    3766             =* &L  LLRU     &HEAD,&ELEM,&WR=,&WR2=RAR,&WR3=EPAR
                                    3767             =*
                                    3768             =*     &HEAD    is a pointer the head of the list (defop = LA)
                                    3769             =*     &ELEM    element to be put at the end of the list
                                    3770             =*     &WR
                                    3771             =*     &WR2     Registers for scratch
                                    3772             =*     &WR3
                                    3773             =*
                                    3774             =*   Output
                                    3775             =*
                                    3776             =*     No parameter registers are modified
                                    3777             =*
                                    3778             =*********************************************************************
                                    3779             =         PRINT OFF
0                                   3867             =         MACRO
                                    3868             =         LSTCHK &HEAD
                                    3869             =         MEXIT
                                    3870             =         PSET  @LSTCHK,CLEAR=NO
                                    3871             =        $LA    EPAR,&HEAD
                                    3872             =         ST    EPAR,@LCHEAD
                                    3873             =         ACALL LSTCHK
                                    3874             =         MEND
1JESSERV  (JESS00) (09:41) (22MAR04) Global parameter areas                                                                 Page   30
0Loc    Object Code    Addr1 Addr2  Stmt Lv Lineno    Source Statement           (Hibal 5, Asmedit 3.3)  HLASM R4.0  2004/03/22 09.41
+___    ______ ____    _____ _____  ____ __ ______    ______ _________
0                                   3876      34.              COPY  JESPARM                 Host JES parameters
                                    3877             =*******************************************************************
                                    3878             =*                                                                 *
                                    3879             =*    JESPARM - ORVYL JES I/O request parameters                   *
                                    3880             =*                                                                 *
                                    3881             =*******************************************************************
0                                   3883             =*
                                    3884             =* Prefix for every request
                                    3885             =*
 000000                00000 00004  3886             =#JESCOM  RECORD BEGIN
 000000                             3894  1          =#JESCMD    DS    A
                                    3895  1          =*
                                    3896  1          =* Jes Device I/O command codes
                                    3897  1          =*
                                    3898  1          =#JCOPEN    EQU   4                       Open action code
                                    3899  1          =#JCCLOSE   EQU   8                       Close I/O code
                                    3900  1          =#JCWRITE   EQU   12                      Write I/O code
                                    3901  1          =#JCJBND    EQU   16                      Job end code
 000004                00004 00004  3902             =         END   ,
-                                   3912             =*
                                    3913             =* Jes Device Open request
                                    3914             =*
 000000                00000 00008  3915             =#JESOPEN RECORD BEGIN
 000000                             3923  1          =#JESOCMD   DS    XL(L'#JESCOM)
 000004                             3924  1          =#JESALLO   DS    A                       Ptr to Data set alloc info
 000008                00008 00008  3925             =         END   ,
-                                   3935             =*
                                    3936             =* Jes Device Close request
                                    3937             =*
 000000                00000 00004  3938             =#JESCLOS RECORD BEGIN
 000000                             3946  1          =#JESCCMD   DS    XL(L'#JESCOM)
 000004                00004 00004  3947             =         END   ,
-                                   3957             =*
                                    3958             =* Jes Device Write request
                                    3959             =*
 000000                00000 00010  3960             =#JESWRIT RECORD BEGIN
 000000                             3968  1          =#JESWCMD   DS    XL(L'#JESCOM)
 000004                             3969  1          =#JESWLST   DS    A                       List of buffers and lengths
 000008                             3970  1          =#JESWLEN   DS    A                       Total data length
 00000C                             3971  1          =#JESWLRC   DS    A                       Record length (0 = Variable)
 000010                00010 00010  3972             =         END   ,
-                                   3982             =*
                                    3983             =*  Jes Device job end request
                                    3984             =*
 000000                00000 00008  3985             =#JESJBND RECORD BEGIN
 000000                             3993  1          =#JESNCMD   DS    XL(L'#JESCOM)
 000004                             3994  1          =#JESNLOC   DS    A                       Address of 4 byte return area
1JESSERV  (JESS00) (09:41) (22MAR04) Global parameter areas                                                                 Page   31
0Loc    Object Code    Addr1 Addr2  Stmt Lv Lineno    Source Statement           (Hibal 5, Asmedit 3.3)  HLASM R4.0  2004/03/22 09.41
+___    ______ ____    _____ _____  ____ __ ______    ______ _________
0000008                00008 00008  3995             =         END   ,
1JESSERV  (JESS00) (09:41) (22MAR04) Global parameter areas                                                                 Page   32
0Loc    Object Code    Addr1 Addr2  Stmt Lv Lineno    Source Statement           (Hibal 5, Asmedit 3.3)  HLASM R4.0  2004/03/22 09.41
+___    ______ ____    _____ _____  ____ __ ______    ______ _________
0                                   4005      36.              COPY  JSALPARM                Jes allocation parameters
                                    4006             =*******************************************************************
                                    4007             =*                                                                 *
                                    4008             =*    @JSDALLO - Parameters for JES dynamic allocation routine     *
                                    4009             =*                                                                 *
                                    4010             =*******************************************************************
0000000                00000 00004  4012             =@JSDALLO RECORD BEGIN
 000000                             4020  1          =@JSDPARM   DS    A                       Pointer to @JSALLO parm area
 000004                00004 00004  4021             =         END   ,
-
                                    4031             =*******************************************************************
                                    4032             =*                                                                 *
                                    4033             =*    JSALPARM - JES device allocation parameters                  *
                                    4034             =*                                                                 *
                                    4035             =*******************************************************************
0000000                00000 00036  4037             =@JSALLO  RECORD BEGIN
 000000                             4045  1          =@JSDDNM    DS    CL8                     DD name
 000008                             4046  1          =@JSRTN     DS    H                       Return code from SVC 99
 00000A                             4047  1          =@JSERR     DS    H                       Error code from SVC 99
 00000C                             4048  1          =@JSRSN     DS    H                       Reason code from SVC 99
                                    4049  1          =
 00000E 00                          4050  1          =@JSFLAG    FLAG  ,
 @JSFLAG.@JSINTR   80 ONES          4054  1          =           FLAG  @JSINTR                 Internal Reader
 @JSFLAG.@JSHOLD   40 ONES          4059  1          =           FLAG  @JSHOLD                 Output hold
                                    4064  1          =*
                                    4065  1          =*  The following are ignored for Internal Reader requests
                                    4066  1          =*
 00000F                             4067  1          =           DS    X                       Reserved
 000010                             4068  1          =@JSCLAS    DS    C                       Sysout class
 000011                             4069  1          =@JSCOPY    DS    X                       Copies
 000012                             4070  1          =@JSFORM    DS    CL4                     Forms
 000016                             4071  1          =@JSCHAR    DS    4CL4                    Chars
 000026                             4072  1          =@JSFLAS    DS    CL4                     Forms flash
 00002A                             4073  1          =@JSFCB     DS    CL4                     Fcb
 00002E                             4074  1          =@JSDEST    DS    CL8                     Destination
 000036                00036 00036  4075             =         END   ,
1JESSERV  (JESS00) (09:41) (22MAR04) Global parameter areas                                                                 Page   33
0Loc    Object Code    Addr1 Addr2  Stmt Lv Lineno    Source Statement           (Hibal 5, Asmedit 3.3)  HLASM R4.0  2004/03/22 09.41
+___    ______ ____    _____ _____  ____ __ ______    ______ _________
0                                   4085      38.              COPY  UJESPARM                User JES parameters
                                    4086             =*****************************************************************
                                    4087             =*                                                               *
                                    4088             =*  UJESPARM - User JES parameters                               *
                                    4089             =*                                                               *
                                    4090             =*****************************************************************
-                                   4092             =*
                                    4093             =*  M1JES  --  Mode 1 JES operation
                                    4094             =*
0000000                00000 00017  4096             =@M1JES   RECORD BEGIN
 000000                             4104  1          =@M1JR01    DS    A             Contents of R1 at SVC time
 000004                             4105  1          =@M1JR14    DS    A             Contents of R14 at SVC time
 000008                             4106  1          =@M1JR15    DS    A             Contents of R15 at SVC time
 00000C                             4107  1          =@M1JRQID   DS    A             Request ID
 000010                             4108  1          =@M1JDVID   DS    A             Device ID
                                    4109  1          =
 000014                             4110  1          =@M1JPKEY   DS    X             PSW key of requestor
                                    4111  1          =
 000015 00                          4112  1          =@M1JTYPE   FLAG  ,             I/O type
 @M1JTYPE.@M1JATCH 04 EQ            4116  1          =           FLAG  (@M1JATCH,4,EQ)   Attach
 @M1JTYPE.@M1JWRIT 08 EQ            4126  1          =           FLAG  (@M1JWRIT,8,EQ)   Write
 @M1JTYPE.@M1JCNTL 0C EQ            4136  1          =           FLAG  (@M1JCNTL,12,EQ)  Control
 @M1JTYPE.@M1JHALT 10 EQ            4146  1          =           FLAG  (@M1JHALT,16,EQ)  Halt
 @M1JTYPE.@M1JDTCH 14 EQ            4156  1          =           FLAG  (@M1JDTCH,20,EQ)  Detach
                                    4166  1          =
 000016 00                          4167  1          =@M1JFL     FLAG  ,             I/O flags
 @M1JFL.@M1JWAIT   80 ONES          4171  1          =           FLAG  @M1JWAIT          Mode wait
 @M1JFL.@M1JM31    40 ONES          4176  1          =           FLAG  @M1JM31           User in 31 bit mode
 000017                00017 00017  4181             =         END   ,
-                                   4191             =*
                                    4192             =*   M1JIOCP -- This area maps the parm area of the JES
                                    4193             =*              I/O complete exit.
                                    4194             =*
-000000                00000 00010  4196             =@M1JIOCP RECORD BEGIN
 000000                             4204  1          =@M1JICRQ   DS    A             Request ID
                                    4205  1          =@M1JDONE   EQU   X'80'         This device no longer valid - Done
                                    4206  1          =
 000004                             4207  1          =@M1JIR01   DS    A             Value of R1 to be returned to user
 000008                             4208  1          =@M1JIR14   DS    A             Value of R14 to be returned to user
 00000C                             4209  1          =@M1JIR15   DS    A             Value of R15 to be returned to user
                                    4210  1          =
                                    4211  1          =@M1JINRV   EQU   X'80'         Value should not be returned
 000010                00010 00010  4212             =         END   ,
1JESSERV  (JESS00) (09:41) (22MAR04) Local data areas                                                                       Page   34
0Loc    Object Code    Addr1 Addr2  Stmt Lv Lineno    Source Statement           (Hibal 5, Asmedit 3.3)  HLASM R4.0  2004/03/22 09.41
+___    ______ ____    _____ _____  ____ __ ______    ______ _________
0000000                00000 00018  4222      40.     JESCB    RECORD BEGIN
 000000 D1C5E2C3C2404040            4230  1   41.     JESCBID    DC    CL8'JESCB'              Alpha ID for global cont blk
 000008                             4231  1   42.     JESWTLK    DS    A                       Global lock for JES waiter Q
                                    4232  1   43.     JESWAIT    LHEAD PFX=JESW
                                    4233  1 01-LHEAD +JESWAIT    EQU   *,12,C'N'
 00000C                             4234  1 01-LHEAD +JESWFP     DS    A                       Forward pointer
 000010                             4235  1 01-LHEAD +JESWBP     DS    A                       Backward pointer
 000014                             4236  1 01-LHEAD +JESWCNT    DS    A                       Number of elements in list
 000018                00018 00018  4237      44.              END   ,
 000000                00000 00020  4246      45.     JESWELEM RECORD BEGIN                  Waiting Element
                                    4254  1   46.     JWTCHAIN   LELEM PFX=JWT
                                    4255  1 01-LELEM +JWTCHAIN   EQU   *,8,C'N'
 000000                             4256  1 01-LELEM +JWTFP      DS    A                       Forward pointer
 000004                             4257  1 01-LELEM +JWTBP      DS    A                       Backward pointer
 000008                             4258  1   47.     JWTPID     DS    D                       Process ID of waiting task
                                    4259  1   48.     JWTASB     EQU   JWTPID,4,C'A'           | ASB
                                    4260  1   49.     JWTTID     EQU   JWTPID+4,4,C'A'         | task ID
 000010                             4261  1   50.     JWTECB     DS    D                       ECB for this waiter
 000018                             4262  1   51.     JWTDEV     DS    A                       Device control block
 00001C                             4263  1   52.     JWTSRID    DS    A                       SYSR ID (if any)
 000020                00020 00020  4264      53.              END   ,
0000000                00000 0003E  4274      55.     DOATTACH RECORD BEGIN
 000000                             4282  1   56.     ATHOST     DS    XL(L'#JESOPEN)          Host I/O parameters
 000008                             4283  1   57.     ATALLOC    DS    XL(L'@JSALLO)
 00003E                0003E 0003E  4284      58.              END   ,
0000000                00000 00004  4294      60.     DODETAC  RECORD BEGIN
 000000                             4302  1   61.     DETHOST    DS    XL(L'#JESCLOS)
 000004                00004 00004  4303      62.              END   ,
0000000                00000 00020  4313      64.     DOWRITE  RECORD BEGIN
 000000                             4321  1   65.     WRHOST     DS    XL(L'#JESWRIT)          Host I/O parameters
 000010                             4322  1   66.     WRLIST     DS    2A                      Location/Length list
 000018                             4323  1   67.                DS    2A                      |
 000020                00020 00020  4324      68.              END   ,
0000000                00000 0000C  4334      70.     DOEOJ    RECORD BEGIN                  Specify End of JOB
 000000                             4342  1   71.     EOJHOST    DS    XL(L'#JESJBND)
 000008                             4343  1   72.     EOJRET     DS    A                       Return from JES - EBCDIC job #
 00000C                0000C 0000C  4344      73.              END   ,
0000000                00000 00070  4354      75.     JRQCB    RECORD BEGIN                  Request control block
 000000                             4362  1   76.     JRQMPID    DS    D                       Master Process ID
                                    4363  1   77.
                                    4364  1   78.     JRQIOAREA   LABEL ,
 000008                             4365  1 01-LABEL +JRQIOAREA   DS   0H
 000008                             4366  1   79.                DS    XL(L'DOATTACH)          Attach host parms
 000046                00046 00008  4367  1   80.                ORG   JRQIOAREA
 000008                             4368  1   81.                DS    XL(L'DODETAC)           Detach host parms
 00000C                0000C 00008  4369  1   82.                ORG   JRQIOAREA
 000008                             4370  1   83.                DS    XL(L'DOWRITE)           Write host parms
 000028                00028 00008  4371  1   84.                ORG   JRQIOAREA
 000008                             4372  1   85.                DS    XL(L'DOEOJ)             EOJ host parameters
 000014                00014 00046  4373  1   86.                ORG   ,
 000048                             4374  1   87.                DS    0D
1JESSERV  (JESS00) (09:41) (22MAR04) Local data areas                                                                       Page   35
0Loc    Object Code    Addr1 Addr2  Stmt Lv Lineno    Source Statement           (Hibal 5, Asmedit 3.3)  HLASM R4.0  2004/03/22 09.41
+___    ______ ____    _____ _____  ____ __ ______    ______ _________
0000048                             4375  1   88.     JRQINPUT   DS    XL(L'@M1JES)            Input parameters
                                    4376  1   89.
 000060                             4377  1   90.     JRQIOID    DS    A                       I/O Supervisor ID
                                    4378  1   91.
 000064                             4379  1   92.     JRQR01     DS    A                       Return registers
 000068                             4380  1   93.     JRQR14     DS    A                       |
 00006C                             4381  1   94.     JRQR15     DS    A                       |
 000070                00070 00070  4382      95.              END   ,
0000000                00000 00090  4392      97.     JDEVCB   RECORD BEGIN
 000000 D1C4C5E5                    4400  1   98.     JDEVID     DC    CL4'JDEV'               JES device char-id
 000004                             4401  1   99.     JDEVXID    DS    A                       Exit ID
 000008                             4402  1  100.     JDEVCHID   DS    A                       Channel ID
 00000C                             4403  1  101.     JDEVSTAT   DS    A                       State of Device
                                    4404  1  102.     JDEVSOK    EQU   0                       | Status OK
                                    4405  1  103.     JDEVSWAIT   EQU  4                       | Waiting for device
                                    4406  1  104.     JDEVSHALT   EQU  -4                      | Halted request
 000010                             4407  1  105.     JDEVACCT   DS    CL8                     Account of requestor
                                    4408  1  106.     JDEVUSR    EQU   JDEVACCT,3              | user UUU
                                    4409  1  107.     JDEVGRP    EQU   JDEVACCT+3,2            | group GG
 000018 00                          4410  1  108.     JDEVFLG    FLAG  ,
 JDEVFLG.JFJACT    80 ONES          4414  1  109.                FLAG  JFJACT                  Job active in Intrdr
                                    4419  1  110.
 000020                             4420  1  111.                DS    0D
 000020                             4421  1  112.     JDEVRQ     DS    XL(L'JRQCB)             Request parameters
 000090                00090 00090  4422     113.              END   ,
1JESSERV  (JESS00) (09:41) (22MAR04) JESSERV - Local calling parameters                                                     Page   36
0Loc    Object Code    Addr1 Addr2  Stmt Lv Lineno    Source Statement           (Hibal 5, Asmedit 3.3)  HLASM R4.0  2004/03/22 09.41
+___    ______ ____    _____ _____  ____ __ ______    ______ _________
0000000                00000 00005  4432     115.     @JES     RECORD BEGIN
 000000                             4440  1  116.     @JESDEV    DS    A                       Device control block
 000004 00                          4441  1  117.     @JESF      FLAG  ,
 @JESF.@JPFDONE    80 ONES          4445  1  118.                FLAG  @JPFDONE                Clean up - done w/ device
 000005                00005 00005  4450     119.              END   ,
0000000                00000 00008  4460     121.     @JESCHK  RECORD BEGIN
 000000                             4468  1  122.     @JESCDEV   DS    A                       Device control block
 000004                             4469  1  123.     @JESCINP   DS    A                       Input parameters
 000008                00008 00008  4470     124.              END   ,
1JESSERV  (JESS00) (09:41) (22MAR04) Main Mode 1 entry point for JES services                                               Page   37
0Loc    Object Code    Addr1 Addr2  Stmt Lv Lineno    Source Statement           (Hibal 5, Asmedit 3.3)  HLASM R4.0  2004/03/22 09.41
+___    ______ ____    _____ _____  ____ __ ______    ______ _________
0                                   4480     126.     *********************************************************************
                                    4481     127.     *  Mode 1 entry point for JES services                              *
                                    4482     128.     *                                                                   *
                                    4483     129.     *   Input - @M1JES                                                  *
                                    4484     130.     *                                                                   *
                                    4485     131.     *  Output - RVR =  0                                                *
                                    4486     132.     *             transaction started                                   *
                                    4487     133.     *           RVR <> 0                                                *
                                    4488     134.     *             RVR = panic number                                    *
                                    4489     135.     *           For attach operations, @M1JDVID is set to the device id *
                                    4490     136.     *             which is to be returned for subsequent I/Os           *
                                    4491     137.     *                                                                   *
                                    4492     138.     *********************************************************************
                                    4493     139.     M1JNOCB  EQU   6                       Control block not avail
                                    4494     140.     M1JBADBUF EQU  5                       Addr error
0000016                             4496     142.     M1JES    PROC  @M1JES,SCOPE=GLOBAL
 000016 D4F1D1C5E2404040            4502             +
 00001E 0018/0000                   4503             +
 000022 900F D004/18AF       00004  4505             +
 USING  M1JES,R10
 000028 50D0 C000/18CD       00000  4520             +
 00002E 9680 C000      00000        4522             +
 USING  @M1JES-72,R12
 000032 41D0 C060            00060  4536             +
 000036 5890 C058            00010  4537     143.              L     RN,@M1JDVID             Get device ID - not attach
                                    4538     144.     *
                                    4539     145.     *  Do checking that needs to be done before sub-task
                                    4540     146.     *
 USING  @JESCHK-72,R13              4541     147.              PSET  @JESCHK
 00003A D707 D048 D048 00000 00000  4558             +
 000040 5090 D048            00000  4559     148.              PMOV  @JESCDEV,(RN)
 000044 4100 C048            00000  4569     149.              PMOV  @JESCINP,LA:@M1JES
 000048 5000 D04C            00004  4585             +
 00004C 1FFF/43F0 C05D       00015  4586     150.              LC    EPAR,@M1JTYPE
 000052 58FF A0BA            000DC  4593     151.              L     EPAR,SVCTABLE(EPAR)
 000056 1B00                        4594     152.              CLEAR RVR
 000058 0DEF                        4598     153.              ACALL (EPAR)
 00005A                             4604     154.     CHKNIL   LABEL ,
 00005A 1200/4770 A0B2       000D4  4606     155.              IF    (RVR,NZ),EXIT           Error returned from check rtn
                                    4623     156.     *
                                    4624     157.     *  Get our addressability
                                    4625     158.     *
 000060 5890 D048            00000  4626     159.              L     RN,@JESCDEV             Device ID
 USING  JDEVCB,R9                   4627     160.              WITH  (JDEVCB,RN)             |
 AUSING (JRQCB,JDEVRQ)              4640     161.              WITH  (JRQCB,JDEVRQ)          |
 000064                             4647     162.              IF    (JDEVID,NE,'JDEV'),'ABORT JESDEV'
 000064 D503 AF7E 9000 00FA0 00000  4658             +
 00006A 4780 A07C            0009E  4659             +
 USING  PZERO,R0
 00006E AC04 021B      0021B        4677  1          +
 000072 9680 021A      0021A        4683  1          +
 000076 50F0 021C            0021C  4684  1          +
 00007A 58F0 0210            00210  4685  1          +
 00007E 89F0 0010            00010  4686  1          +
 000082 88F0 0010            00010  4687  1          +
1JESSERV  (JESS00) (09:41) (22MAR04) Main Mode 1 entry point for JES services                                               Page   38
0Current Usings:  (PZERO,R0) (JDEVCB,R9) (M1JES,R10) (@M1JES-72,R12) (@JESCHK-72,R13)
0Loc    Object Code    Addr1 Addr2  Stmt Lv Lineno    Source Statement           (Hibal 5, Asmedit 3.3)  HLASM R4.0  2004/03/22 09.41
+___    ______ ____    _____ _____  ____ __ ______    ______ _________
0000086 41F0 F000            00000  4688  1          +
 00008A AEFF 0006            00006  4689  1          +
 00008E D1C5E2C4C5E54040            4690             +
 DROP   PZERO,R0
 00009E 5090 C058            00010  4703     163.              ST    RN,@M1JDVID             Return the device ID
                                    4704     164.
 0000A2 9510 C05D      00015        4705     165.              IF    ~@M1JHALT,BEGIN         Not a halt request
 0000A6 4780 A0B0            000D2  4715             +
                                    4720  1  166.     *
                                    4721  1  167.     *  Start subtask to do main work
                                    4722  1  168.     *
 DROP   @JESCHK-72,R13              4723  1  169.                PSET  @TCREATE                Create task
 USING  @TCREATE-72,R13
 0000AA D714 D048 D048 00000 00000  4743  1          +
 0000B0 D203 D048 AF82 00000 00FA4  4744  1  170.                MVC   @TCRPSW(4),=X'070C0000' PSW
 0000B6 1F22/4320 C05D       00015  4745  1  171.                LC    RA,@M1JTYPE             entry address
 0000BC 5822 A0CE            000F0  4752  1  172.                L     RA,ACTTABLE(RA)         |
 0000C0 5020 D04C            00004  4753  1  173.                ST    RA,@TCRPSW+4            |
 0000C4 5090 D050            00008  4754  1  174.                PMOV  @TCRPARM,LA:JDEVCB      parameter
 0000C8 9680 D05C      00014        4765  1  175.                SET   @TCRFSTK                enter w/ stack
 0000CC 58F0 AF86/0DEF       00FA8  4771  1  176.                VCALL TCREATE
                                    4775  1  177.
 0000D2                             4776     178.              END   ,                       OF Not a halt request
 0000D2 1B00                        4780     179.              CLEAR RVR
 0000D4 981F C008            00008  4784     180.              PEND  ,
 DROP   JDEVCB,R9
 DROP   @M1JES-72,R12
 DROP   M1JES,R10
 0000D8 9680 C000/0B0E 00000        4804             +
 DROP   @TCREATE-72,R13
0                                   4814     182.     SVCTABLE EQU   VERIFY-4
 0000DE 0000
 0000E0 00000114                    4815     183.     VERIFY   DC    A(CHKATTAC)             Checking rtns before subtask
 0000E4 000003E6                    4816     184.              DC    A(CHKWRITE)             Write
 0000E8 0000087C                    4817     185.              DC    A(CHKCONTR)             Control
 0000EC 00000AA4                    4818     186.              DC    A(HALT)                 Halt done inline
 0000F0 00000B78                    4819     187.              DC    A(CHKDETAC)             Detach
                                    4820     188.     ACTTABLE EQU   TABLE-4
 0000F4 8000019A                    4821     189.     TABLE    DC    A(X'80000000'+ATTACH)
 0000F8 800004B6                    4822     190.              DC    A(X'80000000'+WRITE)
 0000FC 800008D8                    4823     191.              DC    A(X'80000000'+CONTROL)
 000100 00000000                    4824     192.              DC    A(0)                    Halt done inline
 000104 80000BBE                    4825     193.              DC    A(X'80000000'+DETACH)
1JESSERV  (JESS00) (09:41) (22MAR04) JES attach                                                                             Page   39
0Loc    Object Code    Addr1 Addr2  Stmt Lv Lineno    Source Statement           (Hibal 5, Asmedit 3.3)  HLASM R4.0  2004/03/22 09.41
+___    ______ ____    _____ _____  ____ __ ______    ______ _________
0                                   4827     195.     *********************************************************************
                                    4828     196.     *  JES attach - pre subtask                                         *
                                    4829     197.     *                                                                   *
                                    4830     198.     *   Input - @JESCHK                                                 *
                                    4831     199.     *                                                                   *
                                    4832     200.     *  Output - RVR =  0                                                *
                                    4833     201.     *             all ok                                                *
                                    4834     202.     *           RVR <> 0                                                *
                                    4835     203.     *             RVR contains panic code to issue user                 *
                                    4836     204.     *                                                                   *
                                    4837     205.     *********************************************************************
 000108                             4838     206.     CHKATTAC PROC  @JESCHK
 000108 C3C8D2C1E3E3C1C3            4845             +
 000110 0008/0000                   4846             +
 000114 900F D004/18AF       00004  4848             +
 USING  CHKATTAC,R10
 00011A 50D0 C000/18CD       00000  4863             +
 000120 9680 C000      00000        4865             +
 USING  @JESCHK-72,R12
 000124 41D0 C050            00050  4879             +
                                    4880     207.     *
                                    4881     208.     *  Get control block
                                    4882     209.     *
 USING  @VMGET-72,R13               4883     210.              VMGET L'JDEVCB,LOC=LOCSYS,ONEPAGE=YES
 000128 D70A D048 D048 00000 00000  4907             +
 00012E 4100 0090            00090  4919             +
 000132 5000 D048            00000  4924             +
 000136 D201 D050 AF38 00008 0104C  4925             +
 00013C 9640 D052      0000A        4931             +
 000140 58F0 AE98/0DEF       00FAC  4934             +
 000146 1290                        4936     211.              LTR   RN,RVR
 000148 4770 A040            00154  4937     212.              IF    ZERO,BEGIN              Control block not avail
 00014C 4100 0006            00006  4948  1  213.                LA    RVR,M1JNOCB             |
 000150 47F0 A070            00184  4949  1  214.                EXIT  CHKATTAC                |
 000154                             4952     215.              END   ,                       OF Control block not avail
 USING  JDEVCB,R9                   4956     216.              WITH  (JDEVCB,RN)
 000154 5090 C048            00000  4969     217.              ST    RN,@JESCDEV             Return CB addr for attach
 000158                             4970     218.              CLEAR JDEVCB
 000158 D78F 9000 9000 00000 00000  4976             +
 00015E D203 9000 AE9C 00000 00FB0  4977     219.              MVC   JDEVID,=CL4'JDEV'
                                    4978     220.     *
                                    4979     221.     *  Copy input parameters
                                    4980     222.     *
 000164 5880 C04C            00004  4981     223.              L     RM,@JESCINP
 USING  @M1JES,R8                   4982     224.              WITH  (@M1JES,RM)
 AUSING (JRQCB,JDEVRQ)              4995     225.              WITH  (JRQCB,JDEVRQ)
 USING  PZERO,R0                    5002     226.              USING PZERO,R0                Set master process ID
 000168 D207 9020 0208 00000 00208  5011     227.              MVC   JRQMPID,PZCURPID        |
 DROP   PZERO,R0                    5012     228.              DROP  R0                      |
 00016E D216 9068 8000 00048 00000  5020     229.              MVC   JRQINPUT,@M1JES
                                    5021     230.     *
                                    5022     231.     *  Allocate exit ID for this device
                                    5023     232.     *
 000174 9200 D048      00000        5024     233.              PSET  @XITNEW
 DROP   @VMGET-72,R13
 USING  @XITNEW-72,R13
1JESSERV  (JESS00) (09:41) (22MAR04) JES attach                                                                             Page   40
0Current Usings:  (@M1JES,R8) (JDEVCB,R9) (CHKATTAC,R10) (@JESCHK-72,R12) (@XITNEW-72,R13)
0Loc    Object Code    Addr1 Addr2  Stmt Lv Lineno    Source Statement           (Hibal 5, Asmedit 3.3)  HLASM R4.0  2004/03/22 09.41
+___    ______ ____    _____ _____  ____ __ ______    ______ _________
0000178 58F0 AEA0/0DEF       00FB4  5045     234.              VCALL XITNEW
 00017E 5000 9004            00004  5049     235.              ST    RVR,JDEVXID
 000182 1B00                        5050     236.              CLEAR RVR
 000184 981F C008            00008  5054     237.              PEND  ,
 DROP   @M1JES,R8
 DROP   JDEVCB,R9
 DROP   @JESCHK-72,R12
 DROP   CHKATTAC,R10
 000188 9680 C000/0B0E 00000        5079             +
 DROP   @XITNEW-72,R13
1JESSERV  (JESS00) (09:41) (22MAR04) JES attach                                                                             Page   41
0Loc    Object Code    Addr1 Addr2  Stmt Lv Lineno    Source Statement           (Hibal 5, Asmedit 3.3)  HLASM R4.0  2004/03/22 09.41
+___    ______ ____    _____ _____  ____ __ ______    ______ _________
0                                   5089     239.     *********************************************************************
                                    5090     240.     *  JES attach                                                       *
                                    5091     241.     *                                                                   *
                                    5092     242.     *   Input - @TENTRY                                                 *
                                    5093     243.     *                                                                   *
                                    5094     244.     *  Output - none                                                    *
                                    5095     245.     *                                                                   *
                                    5096     246.     *********************************************************************
                                    5097     247.     M1JAOK   EQU   0
                                    5098     248.     M1JAVAIL EQU   -4
000018E                             5100     250.     ATTACH   PROC  @TENTRY
 00018E C1E3E3C1C3C84040            5107             +
 000196 0008/0000                   5108             +
 00019A 900F D004/18AF       00004  5110             +
 USING  ATTACH,R10
 0001A0 50D0 C000/18CD       00000  5125             +
 0001A6 9680 C000      00000        5127             +
 USING  @TENTRY-72,R12
 0001AA 41D0 C050            00050  5141             +
 0001AE 5890 C048            00000  5142     251.              L     RN,@TEPARM              Device ID
 USING  JDEVCB,R9                   5143     252.              WITH  (JDEVCB,RN)
 AUSING (JRQCB,JDEVRQ)              5156     253.              WITH  (JRQCB,JDEVRQ)
 AUSING (@M1JES,JRQINPUT)           5163     254.              WITH  (@M1JES,JRQINPUT)
 AUSING (DOATTACH,JRQIOAREA)        5170     255.              WITH  (DOATTACH,JRQIOAREA)
 AUSING (#JESOPEN,ATHOST)           5177     256.              WITH  (#JESOPEN,ATHOST)
 AUSING (@JSALLO,ATALLOC)           5184     257.              WITH  (@JSALLO,ATALLOC)
                                    5191     258.     *
                                    5192     259.     *  We won't change user regs 14 and 1
                                    5193     260.     *
 0001B2 9680 9084      00064        5194     261.              SET   JRQR01.@M1JINRV
 0001B6 9680 9088      00068        5201     262.              SET   JRQR14.@M1JINRV
                                    5208     263.     *
                                    5209     264.     *  Fix host parameter area
                                    5210     265.     *
 USING  @PAGE-72,R13                5211     266.              PSET  @PAGE
 0001BA D708 D048 D048 00000 00000  5228             +
 0001C0 4100 9028            00000  5229     267.              PMOV  @PAGLOC,LA:DOATTACH
 0001C4 5000 D048            00000  5245             +
 0001C8 4100 003E            0003E  5246     268.              PMOV  @PAGLEN,LA:L'DOATTACH
 0001CC 5000 D04C            00004  5262             +
 0001D0 58F0 AE1E/0DEF       00FB8  5263     269.              VCALL PAGFIX
                                    5267     270.     *
                                    5268     271.     *  Allocate channel ID
                                    5269     272.     *
 0001D6 4180 0014            00014  5270     273.              LA    RM,#IOUJES
 0001DA 83800007                    5271     274.              SYSCTL RM,TYPE=ALLOC
 0001DE 1288/4770 A07A       00214  5274     275.              IF    (RM,ZERO),'ABORT JESNOCHID'
 0001E4 AC04 021B      0021B        5301  1          +
 USING  PZERO,R0
 0001E8 9680 021A      0021A        5307  1          +
 0001EC 50F0 021C            0021C  5308  1          +
 0001F0 58F0 0210            00210  5309  1          +
 0001F4 89F0 0010            00010  5310  1          +
 0001F8 88F0 0010            00010  5311  1          +
 0001FC 41F0 F000            00000  5312  1          +
1JESSERV  (JESS00) (09:41) (22MAR04) JES attach                                                                             Page   42
0Current Usings:  (PZERO,R0) (JDEVCB,R9) (ATTACH,R10) (@TENTRY-72,R12) (@PAGE-72,R13)
0Loc    Object Code    Addr1 Addr2  Stmt Lv Lineno    Source Statement           (Hibal 5, Asmedit 3.3)  HLASM R4.0  2004/03/22 09.41
+___    ______ ____    _____ _____  ____ __ ______    ______ _________
0000200 AEFF 0006            00006  5313  1          +
 000204 D1C5E2D5D6C3C8C9            5314             +
 DROP   PZERO,R0
 000214 5080 9008            00008  5327     276.              ST    RM,JDEVCHID
                                    5328     277.     *
                                    5329     278.     *  Get an ID from I/O supervisor
                                    5330     279.     *
 000218 9200 D048      00000        5331     280.              PSET  @IOSIDGET
 DROP   @PAGE-72,R13
 USING  @IOSIDGET-72,R13
 00021C 9680 D048      00000        5352     281.              SET   @IOSFWAIT
 000220 58F0 AE22/0DEF       00FBC  5358     282.              VCALL IOSIDGET
 000226 1870                        5362     283.              LR    RY,RVR                  Save I/O sup ID
                                    5363     284.     *
                                    5364     285.     *  Open JES device
                                    5365     286.     *
 000228 4100 0004            00004  5366     287.              PMOV  #JESOCMD,LA:#JCOPEN
 00022C 5000 9028            00000  5382             +
 000230 B120 9030            00000  5383     288.              LRA   RA,@JSALLO
 000234 5020 902C            00004  5384     289.              ST    RA,#JESALLO
                                    5385     290.
 000238 9680 903E      0000E        5386     291.              SET   @JSINTR                 Specify this as an int reader
                                    5392     292.
 USING  PZERO,R0                    5393     293.              USING PZERO,R0
 DROP   @IOSIDGET-72,R13            5402     294.              PSET  @IOSDOIO
 USING  @IOSDOIO-72,R13
 00023C D71D D048 D048 00000 00000  5422             +
 000242 5080 D048            00000  5423     295.              PMOV  @IOSCHID,(RM)           Channel ID - from ALLOC
 000246 5070 D04C            00004  5433     296.              PMOV  @IOSID,(RY)             I/O Supervisor ID
 00024A                             5443     297.              PMOV  @IOSPID,PZCURPID        This process ID
 00024A D207 D050 0208 00008 00208  5447             +
 000250 4100 9028            00000  5448     298.              PMOV  @IOSCP,LA:#JESOPEN      Channel program
 000254 5000 D058            00010  5464             +
 000258 9680 D065      0001D        5465     299.              SET   @IOSFSYNC
 00025C 58F0 AE26/0DEF       00FC0  5471     300.              VCALL IOSDOIO
 000262 1860                        5475     301.              LR    RX,RVR                  Save open RC
                                    5476     302.     *
                                    5477     303.     *  Free I/O Supervisor ID
                                    5478     304.     *
 DROP   @IOSDOIO-72,R13             5479     305.              PSET  @IOSID
 USING  @IOSID-72,R13
 000264 D703 D048 D048 00004 00004  5499             +
 00026A 5070 D048            00004  5500     306.              PMOV  @IOSID,(RY)
 00026E 58F0 AE2A/0DEF       00FC4  5510     307.              VCALL IOSIDFRE
                                    5514     308.     *
                                    5515     309.     *  Unfix host parameter area
                                    5516     310.     *
 DROP   @IOSID-72,R13               5517     311.              PSET  @PAGE
 USING  @PAGE-72,R13
 000274 D708 D048 D048 00000 00000  5537             +
 00027A 4100 9028            00000  5538     312.              PMOV  @PAGLOC,LA:DOATTACH
 00027E 5000 D048            00000  5554             +
 000282 4100 003E            0003E  5555     313.              PMOV  @PAGLEN,LA:L'DOATTACH
 000286 5000 D04C            00004  5571             +
1JESSERV  (JESS00) (09:41) (22MAR04) JES attach                                                                             Page   43
0Current Usings:  (PZERO,R0) (JDEVCB,R9) (ATTACH,R10) (@TENTRY-72,R12) (@PAGE-72,R13)
0Loc    Object Code    Addr1 Addr2  Stmt Lv Lineno    Source Statement           (Hibal 5, Asmedit 3.3)  HLASM R4.0  2004/03/22 09.41
+___    ______ ____    _____ _____  ____ __ ______    ______ _________
000028A 58F0 AE2E/0DEF       00FC8  5572     314.              VCALL PAGUFIX
 000290 4140 0000            00000  5576     315.              LA    RJ,M1JAOK               Set state to attach OK
                                    5577     316.     *
                                    5578     317.     *  Handle an unsuccessful JES allocate
                                    5579     318.     *
 000294 1266/4780 A216       003B0  5580     319.     ATTAVAIL IF    (RX,NZ),BEGIN           Failed JES allocate
 00029A                             5595  1  320.                CLEAR JDEVCHID                Ch ID released on failed alloc
 00029A D703 9008 9008 00008 00008  5601  1          +
                                    5602  1  321.
 0002A0 9180 907E      00016        5603  1  322.                IF    ~@M1JWAIT,BEGIN         Not wait mode
 0002A4 4710 A116            002B0  5613  1          +
 0002A8 5840 AE32            00FCC  5618  2  323.                  L     RJ,=A(M1JAVAIL)         Device not avail
 0002AC 47F0 A216            003B0  5619  2  324.                  EXIT  ATTAVAIL
 0002B0                             5622  1  325.                END   ,                       OF Not wait mode
                                    5626  1  326.     *
                                    5627  1  327.     *  Get memory for global resource wait
                                    5628  1  328.     *
 DROP   @PAGE-72,R13                5629  1  329.                VMGET L'JESWELEM,LOC=GLOBHI,FIX=YES
 USING  @VMGET-72,R13
 0002B0 D70A D048 D048 00000 00000  5656  1          +
 0002B6 4100 0020            00020  5668  1          +
 0002BA 5000 D048            00000  5673  1          +
 0002BE D201 D050 AEB4 00008 0104E  5674  1          +
 0002C4 58F0 AE12/0DEF       00FAC  5677  1          +
 0002CA 1870                        5679  1  330.                LR    RY,RVR
 USING  JESWELEM,R7                 5680  1  331.                WITH  (JESWELEM,RY)
 0002CC                             5693  1  332.                CLEAR JESWELEM
 0002CC D71F 7000 7000 00000 00000  5699  1          +
                                    5700  1  333.     *
                                    5701  1  334.     *  Initialize our wait element
                                    5702  1  335.     *
                                    5703  1  336.                USING PZERO,R0
 0002D2                             5705  1  337.                PMOV  JWTPID,PZCURPID
 0002D2 D207 7008 0208 00008 00208  5709  1          +
 0002D8 5090 7018            00018  5710  1  338.                PMOV  JWTDEV,LA:JDEVCB
 DROP   PZERO,R0                    5721  1  339.                DROP  R0
 0002DC                             5729  1  340.     ATTWAIT    BEGIN ,                       Wait for JES device
 0002DC 58F0 AE36/0DEF       00FD0  5734  2  341.                  VCALL ASLOCK
 0002E2 5840 AE3A            00FD4  5738  2  342.                  L     RJ,=A(JDEVSHALT)
 0002E6 5940 900C            0000C  5739  2  343.                  IF    (RJ,EQ,JDEVSTAT),BEGIN           Device is halted
 0002EA 4770 A162            002FC  5751  2          +
 0002EE 58F0 AE3E/0DEF       00FD8  5756  3  344.                    VCALL ASULOCK
 0002F4 5840 AE32            00FCC  5760  3  345.                    L     RJ,=A(M1JAVAIL)         Halted - not avail
 0002F8 47F0 A1F8            00392  5761  3  346.                    EXIT  ATTWAIT
 0002FC                             5764  2  347.                  END   ,                       OF Device is halted
                                    5768  2  348.     *
                                    5769  2  349.     *  Addressability to global wait chain
                                    5770  2  350.     *
 0002FC D203 900C AE42 0000C 00FDC  5771  2  351.                  MVC   JDEVSTAT,=A(JDEVSWAIT)  Say we're waiting
 000302 5880 0200            00200  5772  2  352.                  L     RM,MATPTR
 000306 5880 802C            0002C  5773  2  353.                  WITH  (MAT,RM),'L RM,MATJESCB'
 USING  MAT,R8
 DROP   MAT,R8
 USING  JESCB,R8                    5797  2  354.                  WITH  (JESCB,RM)
1JESSERV  (JESS00) (09:41) (22MAR04) JES attach                                                                             Page   44
0Current Usings:  (JESWELEM,R7) (JESCB,R8) (JDEVCB,R9) (ATTACH,R10) (@TENTRY-72,R12) (@VMGET-72,R13)
0Loc    Object Code    Addr1 Addr2  Stmt Lv Lineno    Source Statement           (Hibal 5, Asmedit 3.3)  HLASM R4.0  2004/03/22 09.41
+___    ______ ____    _____ _____  ____ __ ______    ______ _________
0                                   5810  2  355.     *
                                    5811  2  356.     *  Add ourselves to queue and wait
                                    5812  2  357.     *
 DROP   @VMGET-72,R13               5813  2  358.                  LKOB  JESWTLK
 USING  @LOCKS-72,R13
 00030A D203 D048 8008 00000 00008  5832  2          +
 000310 58F0 AE46/0DEF       00FE0  5835  2          +
 000316 4110 800C            0000C  5837  2  359.                  LADD  JESWAIT,LA:JESWELEM,WR=RS
 00031A 41E0 0001            00001  5868  2          +
 00031E 5EE0 1008            00008  5869  2          +
 000322 50E0 1008            00008  5870  2          +
 000326 58E0 1004            00004  5877  2          +
 00032A 5070 1004            00004  5883  2          +
 00032E 5010 7000            00000  5884  2          +
 000332 50E0 7004            00004  5890  2          +
 000336 5070 E000            00000  5891  2          +
 00033A                             5893  2  360.                  LKREL JESWTLK
 00033A D203 D048 8008 00000 00008  5902  2          +
 000340 58F0 AE4A/0DEF       00FE4  5905  2          +
 000346 58F0 AE3E/0DEF       00FD8  5907  2  361.                  VCALL ASULOCK
 DROP   @LOCKS-72,R13               5911  2  362.                  AWAIT JWTECB                  Posted w/ channel ID
 USING  @AWAIT-72,R13
 00034C D704 D048 D048 00000 00000  5932  2          +
 000352 4100 7010            00010  5944  2          +
 000356 5000 D048            00000  5949  2          +
 00035A 58F0 AE4E/0DEF       00FE8  5952  2          +
                                    5954  2  363.
 000360                             5955  2  364.                  CLEAR JDEVSTAT                Clear state
 000360 D703 900C 900C 0000C 0000C  5961  2          +
 000366                             5962  2  365.                  DS    0SL2(0-JDEVSOK,JDEVSOK-0)
                                    5963  2  366.
 000366 5000 9008            00008  5964  2  367.                  ST    RVR,JDEVCHID
 00036A 4140 0000            00000  5965  2  368.                  LA    RJ,M1JAOK
 00036E 1200/4770 A1DE       00378  5966  2  369.                  IF    (RVR,ZERO),BEGIN        No alloc
 000374 5840 AE32            00FCC  5980  3  370.                    L     RJ,=A(M1JAVAIL)
 000378                             5981  2  371.                  END   ,                       OF No alloc
 000378 5820 701C/1222       0001C  5985  2  372.                  IF    ('LT RA,JWTSRID',NZ),BEGIN       An id to free
 00037E 4780 A1F8            00392  5996  2          +
 DROP   @AWAIT-72,R13               6001  3  373.                    PSET  @SYSRDEL
 USING  @SYSRDEL-72,R13
 000382 D703 D048 D048 00000 00000  6021  3          +
 000388 5020 D048            00000  6022  3  374.                    PMOV  @SYSRDID,(RA)
 00038C 58F0 AE52/0DEF       00FEC  6032  3  375.                    VCALL SYSRDEL
 000392                             6036  2  376.                  END   ,                       OF An id to free
                                    6040  2  377.
 DROP   JESCB,R8                    6041  1  378.                END   ,                       OF Wait for JES device
 DROP   @SYSRDEL-72,R13             6050  1  379.                VMFREE A=LA:JESWELEM,L'JESWELEM,LOC=GLOBHI,FIX=YES
 USING  @VMFREE-72,R13
 000392 D709 D048 D048 00000 00000  6077  1          +
 000398 4100 0020            00020  6089  1          +
 00039C 5000 D04C            00004  6094  1          +
 0003A0 5070 D048            00000  6105  1          +
 0003A4 D201 D050 AEB4 00008 0104E  6106  1          +
 0003AA 58F0 AE56/0DEF       00FF0  6109  1          +
1JESSERV  (JESS00) (09:41) (22MAR04) JES attach                                                                             Page   45
0Current Usings:  (JDEVCB,R9) (ATTACH,R10) (@TENTRY-72,R12) (@VMFREE-72,R13)
0Loc    Object Code    Addr1 Addr2  Stmt Lv Lineno    Source Statement           (Hibal 5, Asmedit 3.3)  HLASM R4.0  2004/03/22 09.41
+___    ______ ____    _____ _____  ____ __ ______    ______ _________
0DROP   JESWELEM,R7                 6111     380.              END   ,                       OF Failed JES allocate
                                    6120     381.     *
                                    6121     382.     *  Post caller, RJ = return code
                                    6122     383.     *
 0003B0 5040 908C            0006C  6123     384.              PMOV  JRQR15,(RJ)
 DROP   @VMFREE-72,R13              6133     385.              PSET  @JES
 USING  @JES-72,R13
 0003B4 D704 D048 D048 00000 00000  6153             +
 0003BA 5090 D048            00000  6154     386.              PMOV  @JESDEV,LA:JDEVCB
 0003BE 5940 AE32            00FCC  6165     387.              IF    (RJ,EQ,=A(M1JAVAIL)),BEGIN
 0003C2 4770 A230            003CA  6176             +
 0003C6 9680 D04C      00004        6181  1  388.                SET   @JPFDONE
 0003CA                             6187     389.              END   ,
 0003CA 41F0 ACCA/0DEF       00E64  6191     390.              LCALL JESPOST
 0003D0 981F C008            00008  6200     391.              PEND  ,
 DROP   JDEVCB,R9
 DROP   @TENTRY-72,R12
 DROP   ATTACH,R10
 0003D4 9680 C000/0B0E 00000        6220             +
 DROP   @JES-72,R13
1JESSERV  (JESS00) (09:41) (22MAR04) JES write                                                                              Page   46
0Loc    Object Code    Addr1 Addr2  Stmt Lv Lineno    Source Statement           (Hibal 5, Asmedit 3.3)  HLASM R4.0  2004/03/22 09.41
+___    ______ ____    _____ _____  ____ __ ______    ______ _________
0                                   6230     393.     *********************************************************************
                                    6231     394.     *  JES write - pre subtask                                          *
                                    6232     395.     *                                                                   *
                                    6233     396.     *   Input - @JESCHK                                                 *
                                    6234     397.     *                                                                   *
                                    6235     398.     *  Output - RVR =  0                                                *
                                    6236     399.     *             all ok                                                *
                                    6237     400.     *           RVR <> 0                                                *
                                    6238     401.     *             RVR contains panic code to issue user                 *
                                    6239     402.     *                                                                   *
                                    6240     403.     *********************************************************************
 0003DA                             6241     404.     CHKWRITE PROC  @JESCHK
 0003DA C3C8D2E6D9C9E3C5            6248             +
 0003E2 0008/0000                   6249             +
 0003E6 900F D004/18AF       00004  6251             +
 USING  CHKWRITE,R10
 0003EC 50D0 C000/18CD       00000  6266             +
 0003F2 9680 C000      00000        6268             +
 USING  @JESCHK-72,R12
 0003F6 41D0 C050            00050  6282             +
 0003FA 5890 C048            00000  6283     405.              L     RN,@JESCDEV
 USING  JDEVCB,R9                   6284     406.              WITH  (JDEVCB,RN)
 AUSING (JRQCB,JDEVRQ)              6297     407.              WITH  (JRQCB,JDEVRQ)
                                    6304     408.     *
                                    6305     409.     *  Copy parameters to request block
                                    6306     410.     *
 0003FE                             6307     411.              CLEAR JRQCB                   Clear request work area
 0003FE D76F 9020 9020 00000 00000  6313             +
 000404 5880 C04C            00004  6314     412.              L     RM,@JESCINP
 USING  @M1JES,R8                   6315     413.              WITH  (@M1JES,RM),BEGIN       Addr to input
 000408 D216 9068 8000 00048 00000  6329  1  414.                MVC   JRQINPUT,@M1JES         Save input parameters
 DROP   @M1JES,R8                   6330     415.              END   ,                       OF Addr to input
 USING  PZERO,R0                    6338     416.              USING PZERO,R0
 00040E D207 9020 0208 00000 00208  6347     417.              MVC   JRQMPID,PZCURPID        Save master task ID
 DROP   PZERO,R0                    6348     418.              DROP  R0
                                    6356     419.     *
                                    6357     420.     *  Check parameters
                                    6358     421.     *
 AUSING (@M1JES,JRQINPUT)           6359     422.              WITH  (@M1JES,JRQINPUT)
 000414 5820 9068            00000  6366     423.              L     RA,@M1JR01              Buffer location
 000418 9140 907E      00016        6367     424.              IF    ~@M1JM31,'N RA,=A(M1ADRMSK)'
 00041C 4710 A03E            00424  6377             +
 000420 5420 AC0E            00FF4  6383             +
 000424 5830 9070            00008  6388     425.              L     RB,@M1JR15              Buffer length
 000428 1233/47D0 A050       00436  6389     426.              IF    ((RB,NPOS),OR,(RB,GT,=A(8*1024))),BEGIN  Bad len
 00042E 5930 AC12            00FF8  6412             +
 000432 47D0 A058            0043E  6413             +
 000436 4100 0005            00005  6418  1  427.                LA    RVR,M1JBADBUF
 00043A 47F0 A0BA            004A0  6419  1  428.                EXIT  CHKWRITE
 00043E                             6422     429.              END   ,                       OF Bad len
 00043E 1842                        6426     430.              LR    RJ,RA                   Compute number of pages
 000440 1853                        6427     431.              LR    RK,RB                   |
 000442 1E54                        6428     432.              ALR   RK,RJ                   |
 000444 0650                        6429     433.              DECR  RK                      | last byte
 000446 8840 000C            0000C  6431     434.              SRL   RJ,12                   |
 00044A 8850 000C            0000C  6432     435.              SRL   RK,12                   |
1JESSERV  (JESS00) (09:41) (22MAR04) JES write                                                                              Page   47
0Current Usings:  (JDEVCB,R9) (CHKWRITE,R10) (@JESCHK-72,R12)
0Loc    Object Code    Addr1 Addr2  Stmt Lv Lineno    Source Statement           (Hibal 5, Asmedit 3.3)  HLASM R4.0  2004/03/22 09.41
+___    ______ ____    _____ _____  ____ __ ______    ______ _________
000044E 1F54                        6433     436.              SLR   RK,RJ                   |
 000450 5950 AC16            00FFC  6434     437.              IF    (RK,GT,1),BEGIN         Too many pages
 000454 47D0 A07A            00460  6446             +
 000458 4100 0005            00005  6451  1  438.                LA    RVR,M1JBADBUF
 00045C 47F0 A0BA            004A0  6452  1  439.                EXIT  CHKWRITE
 000460                             6455     440.              END   ,                       OF Too many pages
                                    6459     441.     *
                                    6460     442.     *  Verify buffer
                                    6461     443.     *
 USING  @PAGE-72,R13                6462     444.              PSET  @PAGE                   Test protection
 000460 D708 D048 D048 00000 00000  6479             +
 000466 5020 D048            00000  6480     445.              PMOV  @PAGLOC,(RA)            | range
 00046A 5030 D04C            00004  6490     446.              PMOV  @PAGLEN,(RB)            |
 00046E                             6500     447.              PMOV  @PAGKEY,@M1JPKEY        | PSW key of caller
 00046E D200 D050 907C 00008 00014  6504             +
 000474 58F0 AC1A/0DEF       01000  6505     448.              VCALL PAGTPROT                |
 00047A 5900 AC16            00FFC  6509     449.              IF    (RVR,GT,1),BEGIN        Bad buffer
 00047E 47D0 A0A4            0048A  6521             +
 000482 4100 0005            00005  6526  1  450.                LA    RVR,M1JBADBUF
 000486 47F0 A0BA            004A0  6527  1  451.                EXIT  CHKWRITE
 00048A                             6530     452.              END   ,                       OF Bad buffer
                                    6534     453.     *
                                    6535     454.     *  Fix buffer for I/O
                                    6536     455.     *
 00048A                             6537     456.              PSET  @PAGE
 00048A D708 D048 D048 00000 00000  6547             +
 000490 5020 D048            00000  6548     457.              PMOV  @PAGLOC,(RA)
 000494 5030 D04C            00004  6558     458.              PMOV  @PAGLEN,(RB)
 000498 58F0 ABD2/0DEF       00FB8  6568     459.              VCALL PAGFIX
                                    6572     460.
 00049E 1B00                        6573     461.              CLEAR RVR
 0004A0 981F C008            00008  6577     462.              PEND  ,
 DROP   JDEVCB,R9
 DROP   @JESCHK-72,R12
 DROP   CHKWRITE,R10
 0004A4 9680 C000/0B0E 00000        6597             +
 DROP   @PAGE-72,R13
1JESSERV  (JESS00) (09:41) (22MAR04) JES write                                                                              Page   48
0Loc    Object Code    Addr1 Addr2  Stmt Lv Lineno    Source Statement           (Hibal 5, Asmedit 3.3)  HLASM R4.0  2004/03/22 09.41
+___    ______ ____    _____ _____  ____ __ ______    ______ _________
0                                   6607     464.     *********************************************************************
                                    6608     465.     *  JES write                                                        *
                                    6609     466.     *                                                                   *
                                    6610     467.     *   Input - @TENTRY                                                 *
                                    6611     468.     *                                                                   *
                                    6612     469.     *  Output - none                                                    *
                                    6613     470.     *                                                                   *
                                    6614     471.     *********************************************************************
 000000                00000 00001  6615     472.     #WRITE   RECORD BEGIN
 000000 00                          6623  1  473.     #WRITFLG   FLAG  ,
 #WRITFLG.#WJACT   80 ONES          6627  1  474.                FLAG  #WJACT                  Job active on reader
                                    6632  1  475.     @M1JBLOC   EQU   @M1JR01                 Buffer loc = R1
                                    6633  1  476.     @M1JBLEN   EQU   @M1JR15                 Buffer len = R15
                                    6634  1  477.     @M1JLREC   EQU   @M1JR14                 LRECL = R14
                                    6635  1  478.
                                    6636  1  479.     M1JWOK     EQU   0                       Write OK
                                    6637  1  480.     M1JWIOER   EQU   4                       I/O error
                                    6638  1  481.     M1JWBUFN   EQU   8                       Invalid buffer format
                                    6639  1  482.     M1JWJOB    EQU   12                      Invalid JOB card
                                    6640  1  483.     M1JWCARD   EQU   16                      Invalid card found
 000001                00001 00001  6641     484.              END   ,
00004AA                             6651     486.     WRITE    PROC  @TENTRY,#WRITE
 0004AA E6D9C9E3C5404040            6658             +
 0004B2 0008/0008                   6659             +
 0004B6 900F D004/18AF       00004  6661             +
 USING  WRITE,R10
 0004BC 50D0 C000/18CD       00000  6676             +
 0004C2 9680 C000      00000        6678             +
 USING  @TENTRY-72,R12
 AUSING (#WRITE,@TENTRY+8)
 0004C6 41D0 C058            00058  6697             +
 0004CA 9200 C050      00000        6698     487.              CLEAR #WRITFLG
 0004CE 5890 C048            00000  6705     488.              L     RN,@TEPARM              Device Identifier
 USING  JDEVCB,R9                   6706     489.              WITH  (JDEVCB,RN)             |
 AUSING (JRQCB,JDEVRQ)              6719     490.              WITH  (JRQCB,JDEVRQ)          |
 AUSING (@M1JES,JRQINPUT)           6726     491.              WITH  (@M1JES,JRQINPUT)       |
 0004D2 9180 9018      00018        6733     492.              IF    JFJACT,'SET #WJACT'     Job active on reader
 0004D6 47E0 A028            004DE  6743             +
 0004DA 9680 C050      00000        6754             +
 0004DE 9680 9088      00068        6759     493.              SET   JRQR14.@M1JINRV         Don't change requester R14
                                    6766     494.     *
                                    6767     495.     *  Check buffer format
                                    6768     496.     *
 0004E2                             6769     497.     WCHKBUF  BEGIN ,                       Check buffer format
 0004E2 D203 9084 9068 00064 00000  6774  1  498.                MVC   JRQR01,@M1JBLOC         Prime return w/ buffer start
                                    6775  1  499.
 0004E8 5840 906C            00004  6776  1  500.                L     RJ,@M1JLREC             LRECL
 0004EC 1244/4780 A068       0051E  6777  1  501.                IF    (RJ,NZ),BEGIN           Check FB format
 0004F2 1244/4740 A04A       00500  6791  2  502.                  IF    ((RJ,NEG),OR,(RJ,GT,254)),BEGIN
 0004F8 5940 AB4E            01004  6815  2          +
 0004FC 47D0 A052            00508  6816  2          +
 000500 4100 0008            00008  6821  3  503.                    LA    RVR,M1JWBUFN            Invalid buffer format
 000504 47F0 A14E            00604  6822  3  504.                    EXIT  WCHKBUF
 000508                             6825  2  505.                  END   ,
 000508 1B22                        6829  2  506.                  CLEAR RA                      Check for even num of FB recs
1JESSERV  (JESS00) (09:41) (22MAR04) JES write                                                                              Page   49
0Current Usings:  (JDEVCB,R9) (WRITE,R10) (@TENTRY-72,R12)
0Loc    Object Code    Addr1 Addr2  Stmt Lv Lineno    Source Statement           (Hibal 5, Asmedit 3.3)  HLASM R4.0  2004/03/22 09.41
+___    ______ ____    _____ _____  ____ __ ______    ______ _________
000050A 5830 9070            00008  6833  2  507.                  L     RB,@M1JBLEN             Total len
 00050E 1D24                        6834  2  508.                  DR    RA,RJ
 000510 1222/4780 A068       0051E  6835  2  509.                  IF    (RA,NZ),BEGIN
 000516 4100 0008            00008  6849  3  510.                    LA    RVR,M1JWBUFN            Invalid buffer format
 00051A 47F0 A14E            00604  6850  3  511.                    EXIT  WCHKBUF
 00051E                             6853  2  512.                  END   ,
 00051E                             6857  1  513.                END   ,                       OF Check FB format
                                    6861  1  514.     *
                                    6862  1  515.     *  Check buffer lines
                                    6863  1  516.     *
 00051E 5820 9068            00000  6864  1  517.                L     RA,@M1JBLOC             Start of buffer
 000522 9140 907E      00016        6865  1  518.                IF    ~@M1JM31,'N RA,=A(M1ADRMSK)'
 000526 4710 A078            0052E  6875  1          +
 00052A 5420 AB3E            00FF4  6881  1          +
 00052E 1882                        6886  1  519.                LR    RM,RA                   | buffer + 1
 000530 5E80 9070            00008  6887  1  520.                AL    RM,@M1JBLEN             |
 000534                             6888  1  521.     WCHKLOOP   LOOP  BEGIN                   Check buffer lines
 000534 5830 906C            00004  6895  2  522.                  L     RB,@M1JLREC             Record length
 000538 1233/4770 A0C8       0057E  6896  2  523.                  IF    (RB,ZERO),BEGIN         Variable len
 00053E 4130 2004            00004  6910  3  524.                    LA    RB,@RA+4
 000542 1938/47D0 A09A       00550  6911  3  525.                    IF    (RB,GT,RM),BEGIN        No room for RDW
 000548 4100 0010            00010  6926  4  526.                      LA    RVR,M1JWCARD
 00054C 47F0 A106            005BC  6927  4  527.                      EXIT  WCHKLOOP
 000550                             6930  3  528.                    END   ,                       OF No room for RDW
 000550 4830 2000            00000  6934  3  529.                    LH    RB,@RA                  Record len
 000554 4142 3000            00000  6935  3  530.                    LA    RJ,0(RA,RB)             Next data
                                    6936  3  531.     *    A record must not be less than 5 bytes long, or more than
                                    6937  3  532.     *  258 bytes long.  The data can't extend past the end
                                    6938  3  533.     *  of the buffer.
 000558 5930 AB52            01008  6939  3  534.                    IF    ((RB,LT,5),OR,(RB,GT,258),OR,(RJ,GT,RM)),BEGIN
 00055C 4740 A0B8            0056E  6955  3          +
 000560 5930 AB56            0100C  6966  3          +
 000564 4720 A0B8/1948       0056E  6969  3          +
 00056A 47D0 A0C0            00576  6979  3          +
 00056E 4100 0010            00010  6984  4  535.                      LA    RVR,M1JWCARD
 000572 47F0 A106            005BC  6985  4  536.                      EXIT  WCHKLOOP
 000576                             6988  3  537.                    END   ,                       Invalid VB rec
 000576 4B30 AB9A            01050  6992  3  538.                    SH    RB,=Y(4)                | - header
 00057A 4120 2004            00004  6993  3  539.                    LA    RA,@RA+4                New location
 00057E                             6994  2  540.                  END   ,                       OF Variable len
                                    6998  2  541.
 USING  @JESCARD-72,R13             6999  2  542.                  PSET  @JESCARD
 00057E D70B D048 D048 00000 00000  7016  2          +
 000584 5090 D048            00000  7017  2  543.                  PMOV  @JCDEV,LA:JDEVCB
 000588 5020 D04C            00004  7028  2  544.                  PMOV  @JCLOC,(RA)             Record loc
 00058C 5030 D050            00008  7038  2  545.                  PMOV  @JCLEN,(RB)             Record length
                                    7048  2  546.
 000590 9180 C050      00000        7049  2  547.                  IF    #WJACT,BEGIN            Job active on reader
 000594 47E0 A0E8            0059E  7059  2          +
 000598 41F0 A30C/0DEF       007C2  7064  3  548.                    LCALL CHKREC                  Check this record
 00059E A0EC           0059E 00596  7073  2  549.                  END   ELSE,BEGIN              First record to reader
 00059E 47F0 A0F6            005AC  7082  2          +
 0005A2 41F0 A19E/0DEF       00654  7088  3  550.                    LCALL CHKJOB                  Check for valid JOB card
 0005A8 9680 C050      00000        7097  3  551.                    SET   #WJACT                  | set as job on reader
1JESSERV  (JESS00) (09:41) (22MAR04) JES write                                                                              Page   50
0Current Usings:  (JDEVCB,R9) (WRITE,R10) (@TENTRY-72,R12) (@JESCARD-72,R13)
0Loc    Object Code    Addr1 Addr2  Stmt Lv Lineno    Source Statement           (Hibal 5, Asmedit 3.3)  HLASM R4.0  2004/03/22 09.41
+___    ______ ____    _____ _____  ____ __ ______    ______ _________
00005AC                             7103  2  552.                  END   ,                       OF First record to reader
 0005AC 1200/4770 A106       005BC  7107  2  553.                  IF    (RVR,NZ),EXIT
 0005B2 4123 2000            00000  7124  2  554.                  LA    RA,@RA(RB)
 0005B6 1928/4750 A07E       00534  7125  1  555.                UNTIL (RA,GE,RM),END          OF Check buffer lines
                                    7148  1  556.     *
 0005BC 5020 9084            00064  7149  1  557.                ST    RA,JRQR01
 0005C0 1200/4770 A14E       00604  7150  1  558.                IF    (RVR,ZERO),BEGIN        Buffer validated - write it
                                    7164  2  559.     *
                                    7165  2  560.     *  Write text buffer
                                    7166  2  561.     *
 DROP   @JESCARD-72,R13             7167  2  562.                  PSET  @JESPUT
 USING  @JESPUT-72,R13
 0005C6 D70F D048 D048 00000 00000  7187  2          +
 0005CC 5090 D048            00000  7188  2  563.                  PMOV  @JPDEV,LA:JDEVCB        Device control block
 0005D0 5820 9068            00000  7199  2  564.                  L     RA,@M1JBLOC             Buffer start
 0005D4 9140 907E      00016        7200  2  565.                  IF    ~@M1JM31,'N RA,=A(M1ADRMSK)'
 0005D8 4710 A12A            005E0  7210  2          +
 0005DC 5420 AB3E            00FF4  7216  2          +
 0005E0 5020 D04C            00004  7221  2  566.                  PMOV  @JPLOC,(RA)             |
 0005E4                             7231  2  567.                  PMOV  @JPLEN,@M1JBLEN         Buffer length
 0005E4 D203 D050 9070 00008 00008  7235  2          +
 0005EA                             7236  2  568.                  PMOV  @JPLRECL,@M1JLREC       Buffer format
 0005EA D203 D054 906C 0000C 00004  7240  2          +
 0005F0 41F0 A8A8/0DEF       00D5E  7241  2  569.                  LCALL JESPUT
 0005F6 1200/4780 A14A       00600  7250  2  570.                  IF    (RVR,NZ),'LA RVR,M1JWIOER'
 0005FC 4100 0004            00004  7265  2          +
                                    7270  2  571.
 000600 9680 9018      00018        7271  2  572.                  SET   JFJACT                  Job now active on reader
 000604                             7277  1  573.                END   ,                       OF Buffer validated - write it
 000604                             7281     574.              END   ,                       OF Check buffer format
 000604 5000 908C            0006C  7285     575.     WRITEXIT ST    RVR,JRQR15              Set WAIT return code
                                    7286     576.     *
                                    7287     577.     *  Unfix user buffer
                                    7288     578.     *
 DROP   @JESPUT-72,R13              7289     579.              PSET  @PAGE
 USING  @PAGE-72,R13
 000608 D708 D048 D048 00000 00000  7309             +
 00060E 5820 9068            00000  7310     580.              L     RA,@M1JBLOC
 000612 9140 907E      00016        7311     581.              IF    ~@M1JM31,'N RA,=A(M1ADRMSK)'
 000616 4710 A168            0061E  7321             +
 00061A 5420 AB3E            00FF4  7327             +
 00061E 5020 D048            00000  7332     582.              PMOV  @PAGLOC,(RA)
 000622                             7342     583.              PMOV  @PAGLEN,@M1JBLEN
 000622 D203 D04C 9070 00004 00008  7346             +
 000628 58F0 AB12/0DEF       00FC8  7347     584.              VCALL PAGUFIX
                                    7351     585.     *
                                    7352     586.     *  Post master task
                                    7353     587.     *
                                    7354     588.              PUSH  USING
 DROP   @PAGE-72,R13                7355     589.              PSET  @JES
 USING  @JES-72,R13
 00062E D704 D048 D048 00000 00000  7375             +
 000634 5090 D048            00000  7376     590.              PMOV  @JESDEV,LA:JDEVCB
 000638 41F0 A9AE/0DEF       00E64  7387     591.              LCALL JESPOST
1JESSERV  (JESS00) (09:41) (22MAR04) JES write                                                                              Page   51
0Current Usings:  (JDEVCB,R9) (WRITE,R10) (@TENTRY-72,R12) (@PAGE-72,R13)
0Loc    Object Code    Addr1 Addr2  Stmt Lv Lineno    Source Statement           (Hibal 5, Asmedit 3.3)  HLASM R4.0  2004/03/22 09.41
+___    ______ ____    _____ _____  ____ __ ______    ______ _________
0DROP   @JES-72,R13                 7396     592.              POP   USING
 USING  @PAGE-72,R13
 00063E 981F C008            00008  7439     593.              PEND  ,
 DROP   JDEVCB,R9
 DROP   @TENTRY-72,R12
 DROP   WRITE,R10
 000642 9680 C000/0B0E 00000        7459             +
 DROP   @PAGE-72,R13
1JESSERV  (JESS00) (09:41) (22MAR04) Check Job card                                                                         Page   52
0Loc    Object Code    Addr1 Addr2  Stmt Lv Lineno    Source Statement           (Hibal 5, Asmedit 3.3)  HLASM R4.0  2004/03/22 09.41
+___    ______ ____    _____ _____  ____ __ ______    ______ _________
0                                   7469     595.     *********************************************************************
                                    7470     596.     *  Check Job card                                                   *
                                    7471     597.     *    This routine verifies that the current record is a valid job   *
                                    7472     598.     *  card and belongs to the submitting user.                         *
                                    7473     599.     *                                                                   *
                                    7474     600.     *   Input - @JESCARD                                                *
                                    7475     601.     *                                                                   *
                                    7476     602.     *  Output - RVR =  0  All OK                                        *
                                    7477     603.     *           RVR <> 0  This is the error code to be returned to user *
                                    7478     604.     *                                                                   *
                                    7479     605.     *********************************************************************
 000000                00000 0000C  7480     606.     @JESCARD RECORD BEGIN
 000000                             7488  1  607.     @JCDEV     DS    A                       JES device ID
 000004                             7489  1  608.     @JCLOC     DS    A                       Location of card
 000008                             7490  1  609.     @JCLEN     DS    A                       Length of card
 00000C                0000C 0000C  7491     610.              END   ,
-000648                             7501     612.     CHKJOB   PROC  @JESCARD
 000648 C3C8D2D1D6C24040            7508             +
 000650 0010/0000                   7509             +
 000654 900F D004/18AF       00004  7511             +
 USING  CHKJOB,R10
 00065A 50D0 C000/18CD       00000  7526             +
 000660 9680 C000      00000        7528             +
 USING  @JESCARD-72,R12
 000664 41D0 C058            00058  7542             +
 000668 5890 C048            00000  7543     613.              L     RN,@JCDEV
 USING  JDEVCB,R9                   7544     614.              WITH  (JDEVCB,RN)
 00066C 5820 C04C            00004  7557     615.              L     RA,@JCLOC               GET START ADDRESS
 000670 1802                        7558     616.              LR    RVR,RA                  GET END ADDRESS
 000672 5E00 C050            00008  7559     617.              AL    RVR,@JCLEN              |
 000676                             7560     618.              IF    (@RA,NE,'//'),RET12     MUST START WITH THIS
 000676 D501 A9FE 2000 01052 00000  7570             +
 00067C 4770 A154            007A8  7573             +
 000680 4120 2002            00002  7579     619.              LA    RA,@RA+2                POINT AT THE JOBNAME
                                    7580     620.     *
                                    7581     621.     *  Check job name
                                    7582     622.     *
 000684 1B33                        7583     623.              CLEAR RB                      NAME LENGTH COUNTER
 000686 9540 2000      00000        7587     624.              WHILE (@RA,NE,' '),BEGIN
 00068A 4780 A046            0069A  7600             +
 00068E 4130 3001            00001  7605  1  625.                LA    RB,@RB+1                COUNT ONE CHARACTER
 000692 4120 2001            00001  7606  1  626.                LA    RA,@RA+1                POINT AT THE NEXT CHAR
 000696 47F0 A032            00686  7607     627.              END
 00069A 1920/47A0 A154       007A8  7612     628.              IF    ((RA,GE,RVR),OR,(RB,GT,8)),RET12 JOB NAME TOO LONG
 0006A0 5930 A9BC            01010  7637             +
 0006A4 4720 A154            007A8  7640             +
 0006A8 1233/4780 A154       007A8  7646     629.              IF    (RB,ZERO),RET12         OR TOO SHORT
                                    7663     630.     *  Skip blanks
 0006AE 9540 2000      00000        7664     631.              WHILE (@RA,EQ,' '),'LA RA,@RA+1'  SCAN OVER BLANKS
 0006B2 4770 A06A            006BE  7677             +
 0006B6 4120 2001            00001  7683             +
 0006BA 47F0 A05A            006AE  7687             +
 0006BE 1920/47A0 A154       007A8  7689     632.              IF    (RA,GE,RVR),RET12
                                    7707     633.     *
1JESSERV  (JESS00) (09:41) (22MAR04) Check Job card                                                                         Page   53
0Current Usings:  (JDEVCB,R9) (CHKJOB,R10) (@JESCARD-72,R12)
0Loc    Object Code    Addr1 Addr2  Stmt Lv Lineno    Source Statement           (Hibal 5, Asmedit 3.3)  HLASM R4.0  2004/03/22 09.41
+___    ______ ____    _____ _____  ____ __ ______    ______ _________
0                                   7708     634.     *  Check for JOB in card
                                    7709     635.     *
 0006C4                             7710     636.              IF    (@RA,NE,'JOB '),RET12   MUST HAVE THE WORD JOB
 0006C4 D503 A9C0 2000 01014 00000  7720             +
 0006CA 4770 A154            007A8  7723             +
 0006CE 4120 2004            00004  7729     637.              LA    RA,@RA+4                GET TO THE NEXT AREA
 0006D2 1920/47A0 A154       007A8  7730     638.              IF    (RA,GE,RVR),RET12
                                    7748     639.     *  Skip blanks
 0006D8 9540 2000      00000        7749     640.              WHILE (@RA,EQ,' '),'LA RA,@RA+1'  SCAN OVER BLANKS
 0006DC 4770 A094            006E8  7762             +
 0006E0 4120 2001            00001  7768             +
 0006E4 47F0 A084            006D8  7772             +
 0006E8 1920/47A0 A154       007A8  7774     641.              IF    (RA,GE,RVR),RET12
                                    7792     642.     *
                                    7793     643.     *  Check account
                                    7794     644.     *
 0006EE 957D 2000      00000        7795     645.              IF    ((@RA,EQ,''''),OR,(@RA,EQ,'(')),BEGIN
 0006F2 4780 A0AA            006FE  7810             +
 0006F6 954D 2000      00000        7820             +
 0006FA 4770 A0AE            00702  7821             +
 0006FE 4120 2001            00001  7826  1  646.                LA    RA,@RA+1
 000702                             7827     647.              END
 000702 1842                        7831     648.              LR    RJ,RA                   POINT AT THE ACCOUNT
 000704 1B33                        7832     649.              CLEAR RB                      CLEAR THE REGISTER
                                    7836     650.   C          WHILE ((@RA,NE,','),AND,(@RA,NE,' '),AND,(@RA,NE,''''),
 000706 956B 2000      00000                 651.                    AND,(@RA,NE,')'),AND,(RA,LT,RVR)),BEGIN
 00070A 4780 A0E4            00738  7851             +
 00070E 9540 2000      00000        7863             +
 000712 4780 A0E4            00738  7864             +
 000716 957D 2000      00000        7876             +
 00071A 4780 A0E4            00738  7877             +
 00071E 955D 2000      00000        7889             +
 000722 4780 A0E4/1920       00738  7890             +
 000728 47B0 A0E4            00738  7902             +
 00072C 4120 2001            00001  7907  1  652.                LA    RA,@RA+1                MOVE OVER THE ACCT
 000730 4130 3001            00001  7908  1  653.                LA    RB,@RB+1                COUNT THE CHARS
 000734 47F0 A0B2            00706  7909     654.              END   ,
 000738 1920/4720 A154       007A8  7914     655.              IF    (RA,GT,RVR),RET12       Card not long enough
 00073E 5930 A9C4            01018  7932     656.              IF    (RB,LT,6),RET12         CANT BE THIS SHORT
 000742 4740 A154            007A8  7946             +
 000746 5930 A9BC            01010  7952     657.              IF    (RB,GT,8),RET12         OR THIS LONG
 00074A 4720 A154            007A8  7966             +
 00074E 954B 4002      00002        7972     658.              IF    (@RJ+2,EQ,'.'),BEGIN    GG.UUU
 000752 4770 A11A            0076E  7983             +
 000756 5930 A9C4            01018  7988  1  659.                IF    (RB,NE,6),RET12         MUST BE 6 HERE
 00075A 4770 A154            007A8  8002  1          +
 00075E D201 9013 4000 00013 00000  8008  1  660.                MVC   JDEVGRP,@RJ             MOVE IN THE GROUP
 000764 D202 9010 4003 00010 00003  8009  1  661.                MVC   JDEVUSR,@RJ+3           MOVE IN THE USER
 00076A 47F0 A12E            00782  8010  1  662.                B     JOBACOK                 ACCOUNT IS THERE
 00076E                             8011     663.              END
                                    8015     664.     *
                                    8016     665.     *        IF    (@RJ+3,EQ,'.'),BEGIN    GGS.UUU
                                    8017     666.     *        IF    (RB,NE,7),RET12         MUST BE 7 HERE
                                    8018     667.     *        MVC   JWAJGRP,@RJ             MOVE IN THE GROUP
1JESSERV  (JESS00) (09:41) (22MAR04) Check Job card                                                                         Page   54
0Current Usings:  (JDEVCB,R9) (CHKJOB,R10) (@JESCARD-72,R12)
0Loc    Object Code    Addr1 Addr2  Stmt Lv Lineno    Source Statement           (Hibal 5, Asmedit 3.3)  HLASM R4.0  2004/03/22 09.41
+___    ______ ____    _____ _____  ____ __ ______    ______ _________
0                                   8019     668.     *        MVC   JWAJUSR,@R1+4           MOVE IN THE USER
                                    8020     669.     *        B     JOBACOK                 GO CHECK THE ACCOUNT
                                    8021     670.     *        END   ,
                                    8022     671.     *
                                    8023     672.     *        IF    (@R1+4,EQ,'.'),BEGIN    GGSS.UUU
                                    8024     673.     *        IF    (RB,NE,8),RET12         NO GOOD
                                    8025     674.     *        MVC   JWAJGRP,@R1             MOVE IN THE GROUP
                                    8026     675.     *        MVC   JWAJUSR,@R1+5           AND THE USER
                                    8027     676.     *        B     JOBACOK                 CHECK ACCOUNT
                                    8028     677.     *        END
                                    8029     678.     *
 00076E 955B 4003      00003        8030     679.              IF    (@RJ+3,EQ,'$'),BEGIN    UUU$GG,UUU$GGS,UUU$GGSS
 000772 4770 A12E            00782  8041             +
 000776 D201 9013 4004 00013 00004  8046  1  680.                MVC   JDEVGRP,@RJ+4           MOVE GROUP IN
 00077C D202 9010 4000 00010 00000  8047  1  681.                MVC   JDEVUSR,@RJ             AND THE USER
 000782                             8048     682.              END   ,
-000782 9900 AA14            01068  8053     684.     JOBACOK  XTRC  R0,R0,JESJOBOK          NOW VERIFY IT
 001065 000000                            1          +
 001068 00001068                    8061  1          +
 00106C 000005DC/0000               8062  1          +
 001072 D1C5E2D1D6C2D6D2            8064             +
 USING  @ACAINFO-72,R13             8071     685.              PSET  @ACAINFO
 000786 D717 D048 D048 00000 00000  8088             +
 USING  PZERO,R0                    8089     686.              USING PZERO,R0
 00078C                             8098     687.              PMOV  @ACAASB,PZCURASB
 00078C D203 D048 0208 00000 00208  8102             +
 DROP   PZERO,R0                    8103     688.              DROP  R0
 000792 58F0 A9C8/0DEF       0101C  8111     689.              VCALL ACAINFO
                                    8115     690.
 000798 D504 9010 D04C 00010 00004  8116     691.              CLC   JDEVACCT(5),@ACAUID     COMPARE SUBMITTER ACCOUNT
 00079E 4770 A154            007A8  8117     692.              IF    NE,RET12                ONCE AGAIN
 0007A2 1B00                        8131     693.              CLEAR RVR
 0007A4 47F0 A158            007AC  8135     694.              IF    FALSE,BEGIN             Branch around
 0007A8 4100 000C            0000C  8146  1  695.     RET12      LA    RVR,M1JWJOB             Job card error for JES write
 0007AC                             8147     696.              END   ,
 0007AC 981F C008            00008  8151     697.              PEND  ,
 DROP   JDEVCB,R9
 DROP   @JESCARD-72,R12
 DROP   CHKJOB,R10
 0007B0 9680 C000/0B0E 00000        8171             +
 DROP   @ACAINFO-72,R13
1JESSERV  (JESS00) (09:41) (22MAR04) Check JES record for write                                                             Page   55
0Loc    Object Code    Addr1 Addr2  Stmt Lv Lineno    Source Statement           (Hibal 5, Asmedit 3.3)  HLASM R4.0  2004/03/22 09.41
+___    ______ ____    _____ _____  ____ __ ______    ______ _________
0                                   8181     699.     *********************************************************************
                                    8182     700.     *  Check JES record                                                 *
                                    8183     701.     *    This routine verifies that the current record is not an        *
                                    8184     702.     *  invalid command to JES                                           *
                                    8185     703.     *                                                                   *
                                    8186     704.     *   Input - @JESCARD                                                *
                                    8187     705.     *                                                                   *
                                    8188     706.     *  Output - RVR =  0  All OK                                        *
                                    8189     707.     *           RVR <> 0  This is the error code to be returned to user *
                                    8190     708.     *                                                                   *
                                    8191     709.     *********************************************************************
 0007B6                             8192     710.     CHKREC   PROC  @JESCARD
 0007B6 C3C8D2D9C5C34040            8199             +
 0007BE 0010/0000                   8200             +
 0007C2 900F D004/18AF       00004  8202             +
 USING  CHKREC,R10
 0007C8 50D0 C000/18CD       00000  8217             +
 0007CE 9680 C000      00000        8219             +
 USING  @JESCARD-72,R12
 0007D2 41D0 C058            00058  8233             +
 0007D6 5820 C04C            00004  8234     711.              L     RA,@JCLOC               Record address
 0007DA 5830 C050            00008  8235     712.              L     RB,@JCLEN               Record length
 0007DE 4143 2000            00000  8236     713.              LA    RJ,@RA(RB)              1 past record
 0007E2 1B00                        8237     714.              CLEAR RVR
 0007E4 5930 A846            01008  8241     715.              IF    (RB,LT,5),EXIT          All invalid cards > 5 chars
 0007E8 4740 A0A4            00866  8255             +
 0007EC                             8261     716.              IF    (@RA,EQ,'/*PUR'),RECBAD NO PURGE CARDS
 0007EC D504 A894 2000 01056 00000  8271             +
 0007F2 4780 A0A0            00862  8274             +
 0007F6                             8280     717.              IF    (@RA,EQ,'/*DEL'),RECBAD OR DELETE CARDS
 0007F6 D504 A899 2000 0105B 00000  8290             +
 0007FC 4780 A0A0            00862  8293             +
 000800                             8299     718.              IF    (@RA,EQ,'/*EOF'),RECBAD OR EOF CARDS
 000800 D504 A89E 2000 01060 00000  8309             +
 000806 4780 A0A0            00862  8312             +
                                    8318     719.     *
                                    8319     720.     *  Check for another JOB card
                                    8320     721.     *
 00080A                             8321     722.              IF    (@RA,EQ,'//'),BEGIN     Could be a JOB card
 00080A D501 A890 2000 01052 00000  8331             +
 000810 4770 A09C            0085E  8332             +
 000814 4120 2002            00002  8337  1  723.                LA    RA,@RA+2
 000818 4B30 A892            01054  8338  1  724.                SH    RB,=Y(2)
 00081C 1233/47D0 A072       00834  8339  1  725.                WHILE ((RB,POS),AND,(@RA,NE,' ')),BEGIN
 000822 9540 2000      00000        8364  1          +
 000826 4780 A072            00834  8365  1          +
 00082A 4120 2001            00001  8370  2  726.                  LA    RA,@RA+1                SKIP Non blanks
 00082E 0630                        8371  2  727.                  DECR  RB
 000830 47F0 A05A            0081C  8373  1  728.                END   ,
 000834 1233/47D0 A08A       0084C  8378  1  729.                WHILE ((RB,POS),AND,(@RA,EQ,' ')),BEGIN
 00083A 9540 2000      00000        8403  1          +
 00083E 4770 A08A            0084C  8404  1          +
 000842 4120 2001            00001  8409  2  730.                  LA    RA,@RA+1                SKIP BLANKS
 000846 0630                        8410  2  731.                  DECR  RB
 000848 47F0 A072            00834  8412  1  732.                END   ,
 00084C 5930 A85E            01020  8417  1  733.                IF    ((RB,GE,4),AND,(@RA,EQ,'JOB ')),RECBAD   JOB CARD
1JESSERV  (JESS00) (09:41) (22MAR04) Check JES record for write                                                             Page   56
0Current Usings:  (CHKREC,R10) (@JESCARD-72,R12)
0Loc    Object Code    Addr1 Addr2  Stmt Lv Lineno    Source Statement           (Hibal 5, Asmedit 3.3)  HLASM R4.0  2004/03/22 09.41
+___    ______ ____    _____ _____  ____ __ ______    ______ _________
0000850 4750 A09C            0085E  8431  1          +
 000854 D503 A852 2000 01014 00000  8443  1          +
 00085A 4780 A0A0            00862  8446  1          +
 00085E                             8452     734.              END   ,                       OF Could be a JOB card
 00085E 47F0 A0A4            00866  8456     735.              IF    FALSE,BEGIN             Branch around
 000862 4100 0010            00010  8467  1  736.     RECBAD     LA    RVR,M1JWCARD            Bad card
 000866                             8468     737.              END   ,
 000866 981F C008            00008  8472     738.              PEND  ,
 DROP   @JESCARD-72,R12
 DROP   CHKREC,R10
 00086A 9680 C000/0B0E 00000        8487             +
1JESSERV  (JESS00) (09:41) (22MAR04) JES control                                                                            Page   57
0Loc    Object Code    Addr1 Addr2  Stmt Lv Lineno    Source Statement           (Hibal 5, Asmedit 3.3)  HLASM R4.0  2004/03/22 09.41
+___    ______ ____    _____ _____  ____ __ ______    ______ _________
0                                   8494     740.     *********************************************************************
                                    8495     741.     *  JES control - pre subtask                                        *
                                    8496     742.     *                                                                   *
                                    8497     743.     *   Input - @JESCHK                                                 *
                                    8498     744.     *                                                                   *
                                    8499     745.     *  Output - RVR =  0                                                *
                                    8500     746.     *             all ok                                                *
                                    8501     747.     *           RVR <> 0                                                *
                                    8502     748.     *             RVR contains panic code to issue user                 *
                                    8503     749.     *                                                                   *
                                    8504     750.     *********************************************************************
                                    8505     751.     M1JCSPEC EQU   6                       Specification error
0                                   8507     753.     @M1JCNUM EQU   @M1JR01                 Control number
0000870                             8509     755.     CHKCONTR PROC  @JESCHK
 000870 C3C8D2C3D6D5E3D9            8516             +
 000878 0008/0000                   8517             +
 00087C 900F D004/18AF       00004  8519             +
 USING  CHKCONTR,R10
 000882 50D0 C000/18CD       00000  8534             +
 000888 9680 C000      00000        8536             +
 USING  @JESCHK-72,R12
 00088C 41D0 C050            00050  8550             +
 000890 5890 C048            00000  8551     756.              L     RN,@JESCDEV
 USING  JDEVCB,R9                   8552     757.              WITH  (JDEVCB,RN)
 AUSING (JRQCB,JDEVRQ)              8565     758.              WITH  (JRQCB,JDEVRQ)
 000894                             8572     759.              CLEAR JRQCB
 000894 D76F 9020 9020 00000 00000  8578             +
 USING  PZERO,R0                    8579     760.              USING PZERO,R0                Set master process ID
 00089A D207 9020 0208 00000 00208  8588     761.              MVC   JRQMPID,PZCURPID        |
 DROP   PZERO,R0                    8589     762.              DROP  R0                      |
 0008A0 5880 C04C            00004  8597     763.              L     RM,@JESCINP
 USING  @M1JES,R8                   8598     764.              WITH  (@M1JES,RM),BEGIN       Input addr
 0008A4 D216 9068 8000 00048 00000  8612  1  765.                MVC   JRQINPUT,@M1JES
 DROP   @M1JES,R8                   8613     766.              END   ,                       OF Input addr
 AUSING (@M1JES,JRQINPUT)           8621     767.              WITH  (@M1JES,JRQINPUT)
 0008AA 1B00                        8628     768.              CLEAR RVR
 0008AC 5820 9068            00000  8632     769.              L     RA,@M1JCNUM             Control number
 0008B0 1222/4740 A042       008BE  8633     770.              IF    ((RA,NEG),OR,(RA,GT,MAXCONT)),BEGIN
 0008B6 5920 A7A8            01024  8657             +
 0008BA 47D0 A046            008C2  8658             +
 0008BE 4100 0006            00006  8663  1  771.                LA    RVR,M1JCSPEC
 0008C2                             8664     772.              END   ,
 0008C2 981F C008            00008  8668     773.              PEND  ,
 DROP   JDEVCB,R9
 DROP   @JESCHK-72,R12
 DROP   CHKCONTR,R10
 0008C6 9680 C000/0B0E 00000        8688             +
1JESSERV  (JESS00) (09:41) (22MAR04) JES control                                                                            Page   58
0Loc    Object Code    Addr1 Addr2  Stmt Lv Lineno    Source Statement           (Hibal 5, Asmedit 3.3)  HLASM R4.0  2004/03/22 09.41
+___    ______ ____    _____ _____  ____ __ ______    ______ _________
0                                   8695     775.     *********************************************************************
                                    8696     776.     *  JES control                                                      *
                                    8697     777.     *                                                                   *
                                    8698     778.     *   Input - @TENTRY                                                 *
                                    8699     779.     *                                                                   *
                                    8700     780.     *  Output - none                                                    *
                                    8701     781.     *                                                                   *
                                    8702     782.     *********************************************************************
                                    8703     783.     M1JCOK   EQU   0                       Control OK
                                    8704     784.     M1JCIOER EQU   4                       JES I/O error
                                    8705     785.     M1JCACT  EQU   8                       No job active on reader
00008CC                             8707     787.     CONTROL  PROC  @TENTRY
 0008CC C3D6D5E3D9D6D340            8714             +
 0008D4 0008/0000                   8715             +
 0008D8 900F D004/18AF       00004  8717             +
 USING  CONTROL,R10
 0008DE 50D0 C000/18CD       00000  8732             +
 0008E4 9680 C000      00000        8734             +
 USING  @TENTRY-72,R12
 0008E8 41D0 C050            00050  8748             +
 0008EC 5890 C048            00000  8749     788.              L     RN,@TEPARM
 USING  JDEVCB,R9                   8750     789.              WITH  (JDEVCB,RN)
 AUSING (JRQCB,JDEVRQ)              8763     790.              WITH  (JRQCB,JDEVRQ)
 AUSING (@M1JES,JRQINPUT)           8770     791.              WITH  (@M1JES,JRQINPUT)
                                    8777     792.     *
                                    8778     793.     *  Assume registers 14 and 1 don't change
                                    8779     794.     *
 0008F0 9680 9084      00064        8780     795.              SET   JRQR01.@M1JINRV
 0008F4 9680 9088      00068        8787     796.              SET   JRQR14.@M1JINRV
                                    8794     797.     *
                                    8795     798.     *  Split to control routine
                                    8796     799.     *
 USING  @JES-72,R13                 8797     800.              PSET  @JES
 0008F8 D704 D048 D048 00000 00000  8814             +
 0008FE 5090 D048            00000  8815     801.              PMOV  @JESDEV,LA:JDEVCB
                                    8826     802.
 000902 58F0 9068            00000  8827     803.              L     EPAR,@M1JCNUM
 000906 89F0 0002            00002  8828     804.              SLL   EPAR,2
 00090A 58FF A058            00930  8829     805.              L     EPAR,CONSTART(EPAR)
 00090E 0DEF                        8830     806.              ACALL (EPAR)
 000910 5000 908C            0006C  8836     807.              ST    RVR,JRQR15              Set return code
                                    8837     808.     *
                                    8838     809.     *  Post caller
                                    8839     810.     *
 000914                             8840     811.              PSET  @JES
 000914 D704 D048 D048 00000 00000  8850             +
 00091A 5090 D048            00000  8851     812.              PMOV  @JESDEV,LA:JDEVCB
 00091E 41F0 A58C/0DEF       00E64  8862     813.              LCALL JESPOST
 000924 981F C008            00008  8871     814.              PEND  ,
 DROP   JDEVCB,R9
 DROP   @TENTRY-72,R12
 DROP   CONTROL,R10
 000928 9680 C000/0B0E 00000        8891             +
 DROP   @JES-72,R13
1JESSERV  (JESS00) (09:41) (22MAR04) JES control                                                                            Page   59
0Loc    Object Code    Addr1 Addr2  Stmt Lv Lineno    Source Statement           (Hibal 5, Asmedit 3.3)  HLASM R4.0  2004/03/22 09.41
+___    ______ ____    _____ _____  ____ __ ______    ______ _________
000092E 0000
 000930 00000944                    8901     816.     CONSTART DC    A(CONTERM)              0  = terminate jobstream
 000934 00000A22                    8902     817.              DC    A(CONABORT)             1  = abort jobstream
                                    8903     818.     MAXCONT  EQU   ((*-CONSTART)-4)/4
1JESSERV  (JESS00) (09:41) (22MAR04) JES control                                                                            Page   60
0Loc    Object Code    Addr1 Addr2  Stmt Lv Lineno    Source Statement           (Hibal 5, Asmedit 3.3)  HLASM R4.0  2004/03/22 09.41
+___    ______ ____    _____ _____  ____ __ ______    ______ _________
0                                   8905     820.     *********************************************************************
                                    8906     821.     *  JES control 0 - terminate a jobstream                            *
                                    8907     822.     *                                                                   *
                                    8908     823.     *   Input - @JES                                                    *
                                    8909     824.     *                                                                   *
                                    8910     825.     *  Output - RVR = completion code for posting                       *
                                    8911     826.     *                                                                   *
                                    8912     827.     *********************************************************************
 000938                             8913     828.     CONTERM  PROC  @JES
 000938 C3D6D5E3C5D9D440            8920             +
 000940 0008/0000                   8921             +
 000944 900F D004/18AF       00004  8923             +
 USING  CONTERM,R10
 00094A 50D0 C000/18CD       00000  8938             +
 000950 9680 C000      00000        8940             +
 USING  @JES-72,R12
 000954 41D0 C050            00050  8954             +
 000958 5890 C048            00000  8955     829.              L     RN,@JESDEV
 USING  JDEVCB,R9                   8956     830.              WITH  (JDEVCB,RN)
 AUSING (JRQCB,JDEVRQ)              8969     831.              WITH  (JRQCB,JDEVRQ)
 00095C 9180 9018      00018        8976     832.              IF    ~JFJACT,BEGIN           No job active on reader
 000960 4710 A028            0096C  8986             +
 000964 4100 0008            00008  8991  1  833.                LA    RVR,M1JCACT
 000968 47F0 A0C8            00A0C  8992  1  834.                EXIT  CONTERM
 00096C                             8995     835.              END   ,                       OF No job active on reader
                                    8999     836.     *
                                    9000     837.     *  Allocate I/O control block
                                    9001     838.     *
 00096C 9200 D048      00000        9002     839.              PSET  @IOSIDGET
 USING  @IOSIDGET-72,R13
 000970 9680 D048      00000        9020     840.              SET   @IOSFWAIT
 000974 58F0 A678/0DEF       00FBC  9026     841.              VCALL IOSIDGET
 00097A 1880                        9030     842.              LR    RM,RVR
                                    9031     843.     *
                                    9032     844.     *  Fix I/O control area
                                    9033     845.     *
 AUSING (DOEOJ,JRQIOAREA)           9034     846.              WITH  (DOEOJ,JRQIOAREA)
 AUSING (#JESJBND,EOJHOST)          9041     847.              WITH  (#JESJBND,EOJHOST)
 DROP   @IOSIDGET-72,R13            9048     848.              PSET  @PAGE
 USING  @PAGE-72,R13
 00097C D708 D048 D048 00000 00000  9068             +
 000982 4100 9028            00000  9069     849.              PMOV  @PAGLOC,LA:DOEOJ
 000986 5000 D048            00000  9085             +
 00098A 4100 000C            0000C  9086     850.              PMOV  @PAGLEN,LA:L'DOEOJ
 00098E 5000 D04C            00004  9102             +
 000992 58F0 A674/0DEF       00FB8  9103     851.              VCALL PAGFIX
                                    9107     852.     *
                                    9108     853.     *  Set up channel program
                                    9109     854.     *
 000998 4100 0010            00010  9110     855.              PMOV  #JESNCMD,LA:#JCJBND     I/O command
 00099C 5000 9028            00000  9126             +
 0009A0 B120 9030            00008  9127     856.              LRA   RA,EOJRET               Job number return area
 0009A4 5020 902C            00004  9128     857.              PMOV  #JESNLOC,(RA)           |
                                    9138     858.     *
                                    9139     859.     *  Call to do I/O
                                    9140     860.     *
1JESSERV  (JESS00) (09:41) (22MAR04) JES control                                                                            Page   61
0Current Usings:  (JDEVCB,R9) (CONTERM,R10) (@JES-72,R12) (@IOSDOIO-72,R13)
0Loc    Object Code    Addr1 Addr2  Stmt Lv Lineno    Source Statement           (Hibal 5, Asmedit 3.3)  HLASM R4.0  2004/03/22 09.41
+___    ______ ____    _____ _____  ____ __ ______    ______ _________
0DROP   @PAGE-72,R13                9141     861.              PSET  @IOSDOIO
 USING  @IOSDOIO-72,R13
 0009A8 D71D D048 D048 00000 00000  9161             +
 0009AE                             9162     862.              PMOV  @IOSCHID,JDEVCHID       Channel ID
 0009AE D203 D048 9008 00000 00008  9166             +
 0009B4 5080 D04C            00004  9167     863.              PMOV  @IOSID,(RM)             I/O Supervisor ID
 0009B8 4100 9028            00000  9177     864.              PMOV  @IOSCP,LA:#JESJBND      Channel program
 0009BC 5000 D058            00010  9193             +
 0009C0 9680 D065      0001D        9194     865.              SET   @IOSFSYNC               Synchronous I/O
 0009C4 58F0 A67C/0DEF       00FC0  9200     866.              VCALL IOSDOIO
 0009CA 1820                        9204     867.              LR    RA,RVR                  Save return code from I/O
                                    9205     868.
 0009CC 947F 9018      00018        9206     869.              CLEAR JFJACT                  No job on reader any more
                                    9213     870.     *
                                    9214     871.     *  Unfix I/O control area
                                    9215     872.     *
 DROP   @IOSDOIO-72,R13             9216     873.              PSET  @PAGE
 USING  @PAGE-72,R13
 0009D0 D708 D048 D048 00000 00000  9236             +
 0009D6 4100 9028            00000  9237     874.              PMOV  @PAGLOC,LA:DOEOJ
 0009DA 5000 D048            00000  9253             +
 0009DE 4100 000C            0000C  9254     875.              PMOV  @PAGLEN,LA:L'DOEOJ
 0009E2 5000 D04C            00004  9270             +
 0009E6 58F0 A684/0DEF       00FC8  9271     876.              VCALL PAGUFIX
                                    9275     877.     *
                                    9276     878.     *  Release I/O supervisor ID
                                    9277     879.     *
 DROP   @PAGE-72,R13                9278     880.              PSET  @IOSIDFRE
 USING  @IOSIDFRE-72,R13
 0009EC D703 D048 D048 00000 00000  9298             +
 0009F2 5080 D048            00000  9299     881.              PMOV  @IOSFID,(RM)
 0009F6 58F0 A680/0DEF       00FC4  9309     882.              VCALL IOSIDFRE
                                    9313     883.
 0009FC D203 9084 9030 00064 00008  9314     884.              MVC   JRQR01,EOJRET           EBCDIC job number
                                    9315     885.
 000A02 1202                        9316     886.              LTR   RVR,RA                  Return I/O return code
 000A04 4780 A0C8            00A0C  9317     887.              IF    NZ,BEGIN
 000A08 4100 0004            00004  9328  1  888.                LA    RVR,M1JCIOER
 000A0C                             9329     889.              END   ,                       OF JES I/O error
 000A0C                             9333     890.              DS    0SL2(0-M1JCOK,M1JCOK-0) Make sure OK return is 0
 000A0C 981F C008            00008  9334     891.              PEND  ,
 DROP   JDEVCB,R9
 DROP   @JES-72,R12
 DROP   CONTERM,R10
 000A10 9680 C000/0B0E 00000        9354             +
 DROP   @IOSIDFRE-72,R13
1JESSERV  (JESS00) (09:41) (22MAR04) JES control                                                                            Page   62
0Loc    Object Code    Addr1 Addr2  Stmt Lv Lineno    Source Statement           (Hibal 5, Asmedit 3.3)  HLASM R4.0  2004/03/22 09.41
+___    ______ ____    _____ _____  ____ __ ______    ______ _________
0                                   9364     893.     *********************************************************************
                                    9365     894.     *  JES control 1 - abort a jobstream                                *
                                    9366     895.     *                                                                   *
                                    9367     896.     *   Input - @JES                                                    *
                                    9368     897.     *                                                                   *
                                    9369     898.     *  Output - RVR = completion code for posting                       *
                                    9370     899.     *                                                                   *
                                    9371     900.     *********************************************************************
                                    9372     901.     ABCARD   EQU   WRLIST+8
 000A16                             9373     902.              DS    0SL2(8-L'PGCARD)        Only room for 8 characters
0000A16                             9375     904.     CONABORT PROC  @JES
 000A16 C3D6D5C1C2D6D9E3            9382             +
 000A1E 0008/0000                   9383             +
 000A22 900F D004/18AF       00004  9385             +
 USING  CONABORT,R10
 000A28 50D0 C000/18CD       00000  9400             +
 000A2E 9680 C000      00000        9402             +
 USING  @JES-72,R12
 000A32 41D0 C050            00050  9416             +
 000A36 5890 C048            00000  9417     905.              L     RN,@JESDEV
 USING  JDEVCB,R9                   9418     906.              WITH  (JDEVCB,RN)
 AUSING (JRQCB,JDEVRQ)              9431     907.              WITH  (JRQCB,JDEVRQ)
 000A3A 9180 9018      00018        9438     908.              IF    ~JFJACT,BEGIN           No job active on reader
 000A3E 4710 A028            00A4A  9448             +
 000A42 4100 0008            00008  9453  1  909.                LA    RVR,M1JCACT
 000A46 47F0 A064            00A86  9454  1  910.                EXIT  CONABORT
 000A4A                             9457     911.              END   ,                       OF No job active on reader
                                    9461     912.     *
                                    9462     913.     *  Put in /*PURGE to abort a jobstream
                                    9463     914.     *
 AUSING (DOWRITE,JRQIOAREA)         9464     915.              WITH  (DOWRITE,JRQIOAREA)
 AUSING (#JESWRIT,WRHOST)           9471     916.              WITH  (#JESWRIT,WRHOST)
 000A4A D206 9040 A06E 00018 00A90  9478     917.              MVC   ABCARD(L'PGCARD),PGCARD Move in purge card
 USING  @JESPUT-72,R13              9479     918.              PSET  @JESPUT                 Do JES I/O put
 000A50 D70F D048 D048 00000 00000  9496             +
 000A56 5090 D048            00000  9497     919.              PMOV  @JPDEV,LA:JDEVCB        |
 000A5A 4100 9040            00018  9508     920.              PMOV  @JPLOC,LA:ABCARD        |
 000A5E 5000 D04C            00004  9524             +
 000A62 4100 0007            00007  9525     921.              PMOV  @JPLEN,LA:L'PGCARD      |
 000A66 5000 D050            00008  9541             +
 000A6A 4100 0007            00007  9542     922.              PMOV  @JPLRECL,LA:L'PGCARD    |
 000A6E 5000 D054            0000C  9558             +
 000A72 41F0 A33C/0DEF       00D5E  9559     923.              LCALL JESPUT                  |
                                    9568     924.
 000A78 947F 9018      00018        9569     925.              CLEAR JFJACT                  No jobs active now
                                    9576     926.
 000A7C 1200/4780 A064       00A86  9577     927.              IF    (RVR,NZ),BEGIN          JES I/O error
 000A82 4100 0004            00004  9591  1  928.                LA    RVR,M1JCIOER
 000A86                             9592     929.              END   ,                       OF JES I/O error
 000A86                             9596     930.              DS    0SL2(0-M1JCOK,M1JCOK-0) Make sure OK return is 0
 000A86 981F C008            00008  9597     931.              PEND
 DROP   JDEVCB,R9
 DROP   @JES-72,R12
 DROP   CONABORT,R10
 000A8A 9680 C000/0B0E 00000        9617             +
1JESSERV  (JESS00) (09:41) (22MAR04) JES control                                                                            Page   63
0Loc    Object Code    Addr1 Addr2  Stmt Lv Lineno    Source Statement           (Hibal 5, Asmedit 3.3)  HLASM R4.0  2004/03/22 09.41
+___    ______ ____    _____ _____  ____ __ ______    ______ _________
0DROP   @JESPUT-72,R13
0000A90 615CD7E4D9C7C5              9627     933.     PGCARD   DC    C'/*PURGE'
1JESSERV  (JESS00) (09:41) (22MAR04) JES halt                                                                               Page   64
0Loc    Object Code    Addr1 Addr2  Stmt Lv Lineno    Source Statement           (Hibal 5, Asmedit 3.3)  HLASM R4.0  2004/03/22 09.41
+___    ______ ____    _____ _____  ____ __ ______    ______ _________
0                                   9629     935.     *********************************************************************
                                    9630     936.     *  JES halt                                                         *
                                    9631     937.     *                                                                   *
                                    9632     938.     *   Input - @JES                                                    *
                                    9633     939.     *                                                                   *
                                    9634     940.     *  Output - none                                                    *
                                    9635     941.     *                                                                   *
                                    9636     942.     *********************************************************************
0000A98                             9638     944.     HALT     PROC  @JESCHK
 000A98 C8C1D3E340404040            9645             +
 000AA0 0008/0000                   9646             +
 000AA4 900F D004/18AF       00004  9648             +
 USING  HALT,R10
 000AAA 50D0 C000/18CD       00000  9663             +
 000AB0 9680 C000      00000        9665             +
 USING  @JESCHK-72,R12
 000AB4 41D0 C050            00050  9679             +
 000AB8 5890 C048            00000  9680     945.              L     RN,@JESCDEV
 USING  JDEVCB,R9                   9681     946.              WITH  (JDEVCB,RN)
 000ABC 58F0 A52C/0DEF       00FD0  9694     947.              VCALL ASLOCK                  Get address space lock
 000AC2 5840 900C            0000C  9698     948.              L     RJ,JDEVSTAT             Save old state
 000AC6 D203 900C A530 0000C 00FD4  9699     949.              MVC   JDEVSTAT,=A(JDEVSHALT)  Set state to halted
 000ACC 5940 A538            00FDC  9700     950.              IF    (RJ,EQ,JDEVSWAIT),BEGIN Was in wait state
 000AD0 4770 A0B4            00B58  9712             +
                                    9717  1  951.     *
                                    9718  1  952.     *  Wake up waiter so halt processing can continue
                                    9719  1  953.     *
 000AD4 5880 0200            00200  9720  1  954.                L     RM,MATPTR
 000AD8 5880 802C            0002C  9721  1  955.                WITH  (MAT,RM),'L RM,MATJESCB'
 USING  MAT,R8
 DROP   MAT,R8
 USING  JESCB,R8                    9745  1  956.                WITH  (JESCB,RM)
 USING  @LOCKS-72,R13               9758  1  957.                LKOB  JESWTLK
 000ADC D203 D048 8008 00000 00008  9774  1          +
 000AE2 58F0 A53C/0DEF       00FE0  9777  1          +
 000AE8 5820 8014            00014  9779  1  958.                L     RA,JESWCNT              Positive number of waiters
 000AEC 1222/47D0 A0A8       00B4C  9780  1  959.                IF    (RA,POS),BEGIN          |
 000AF2 5830 800C            0000C  9794  2  960.                  L     RB,JESWFP               First waiter
 000AF6 1B44                        9795  2  961.                  CLEAR RJ
 USING  JESWELEM,R3                 9799  2  962.                  WITH  (JESWELEM,RB),BEGIN     Addr to wait elem
 000AF8                             9813  3  963.     HLTLOOP        LOOP  BEGIN                   Loop through waiters
 000AF8 5990 3018            00018  9820  4  964.                      IF    (JWTDEV,EQ,RN),BEGIN    This is it
 000AFC 4770 A0A0            00B44  9832  4          +
 000B00 41E0 800C/1B00       0000C  9837  5  965.                        LREM  JESWAIT,LA:JESWELEM,WR=RS        Remove from wait list
 000B06 58F0 E008            00008  9872  6          +
 000B0A 4110 0001/1BF1       00001  9880  6          +
 000B10 4740 A088            00B2C  9891  6          +
 000B14 50F0 E008/18F3       00008  9897  6          +
 000B1A 180F/58E0 F004       00004  9904  6          +
 000B20 58F0 F000            00000  9912  6          +
 000B24 50E0 F004            00004  9913  6          +
 000B28 50F0 E000            00000  9914  5          +
 DROP   @LOCKS-72,R13               9919  5  966.                        SIGNL JWTECB                           | and signal
 USING  @SIGNAL-72,R13
 000B2C D713 D048 D048 00000 00000  9940  5          +
1JESSERV  (JESS00) (09:41) (22MAR04) JES halt                                                                               Page   65
0Current Usings:  (JESWELEM,R3) (JESCB,R8) (JDEVCB,R9) (HALT,R10) (@JESCHK-72,R12) (@SIGNAL-72,R13)
0Loc    Object Code    Addr1 Addr2  Stmt Lv Lineno    Source Statement           (Hibal 5, Asmedit 3.3)  HLASM R4.0  2004/03/22 09.41
+___    ______ ____    _____ _____  ____ __ ______    ______ _________
0000B32 4100 3010            00010  9952  5          +
 000B36 5000 D050            00008  9957  5          +
 000B3A 58F0 A584/0DEF       01028  9960  5          +
 000B40 47F0 A0A8            00B4C  9962  5  967.                        EXIT  HLTLOOP
 000B44                             9965  4  968.                      END   ,                       OF This is it
 000B44 5830 3000            00000  9969  4  969.                      L     RB,JWTFP                Next waiter
 000B48 4620 A054            00AF8  9970  3  970.                    UNTIL (BCT,RA),END            OF Loop through waiters
 DROP   JESWELEM,R3                 9980  2  971.                  END   ,                       OF Addr to wait elem
 000B4C                             9988  1  972.                END   ,                       OF Positive number of waiters
 DROP   @SIGNAL-72,R13              9992  1  973.                LKREL JESWTLK
 USING  @LOCKS-72,R13
 000B4C D203 D048 8008 00000 00008 10011  1          +
 000B52 58F0 A540/0DEF       00FE4 10014  1          +
 DROP   JESCB,R8                   10016     974.              END   ,                       OF Was in wait state
 000B58 58F0 A534/0DEF       00FD8 10025     975.              VCALL ASULOCK                 Free address space lock
                                   10029     976.
 000B5E 4100 0000            00000 10030     977.              LA    RVR,0                   Return non-zero
 000B62 981F C008            00008 10031     978.              PEND  ,
 DROP   JDEVCB,R9
 DROP   @JESCHK-72,R12
 DROP   HALT,R10
 000B66 9680 C000/0B0E 00000       10051             +
 DROP   @LOCKS-72,R13
1JESSERV  (JESS00) (09:41) (22MAR04) JES detach                                                                             Page   66
0Loc    Object Code    Addr1 Addr2  Stmt Lv Lineno    Source Statement           (Hibal 5, Asmedit 3.3)  HLASM R4.0  2004/03/22 09.41
+___    ______ ____    _____ _____  ____ __ ______    ______ _________
0                                  10061     980.     *********************************************************************
                                   10062     981.     *  JES detach - pre subtask                                         *
                                   10063     982.     *                                                                   *
                                   10064     983.     *   Input - @JESCHK                                                 *
                                   10065     984.     *                                                                   *
                                   10066     985.     *  Output - RVR =  0                                                *
                                   10067     986.     *             all ok                                                *
                                   10068     987.     *           RVR <> 0                                                *
                                   10069     988.     *             RVR contains panic code to issue user                 *
                                   10070     989.     *                                                                   *
                                   10071     990.     *********************************************************************
0000B6C                            10073     992.     CHKDETAC PROC  @JESCHK
 000B6C C3C8D2C4C5E3C1C3           10080             +
 000B74 0008/0000                  10081             +
 000B78 900F D004/18AF       00004 10083             +
 USING  CHKDETAC,R10
 000B7E 50D0 C000/18CD       00000 10098             +
 000B84 9680 C000      00000       10100             +
 USING  @JESCHK-72,R12
 000B88 41D0 C050            00050 10114             +
 000B8C 5890 C048            00000 10115     993.              L     RN,@JESCDEV
 USING  JDEVCB,R9                  10116     994.              WITH  (JDEVCB,RN)
 AUSING (JRQCB,JDEVRQ)             10129     995.              WITH  (JRQCB,JDEVRQ)
 000B90                            10136     996.              CLEAR JRQCB
 000B90 D76F 9020 9020 00000 00000 10142             +
 USING  PZERO,R0                   10143     997.              USING PZERO,R0                Set master process ID
 000B96 D207 9020 0208 00000 00208 10152     998.              MVC   JRQMPID,PZCURPID        |
 DROP   PZERO,R0                   10153     999.              DROP  R0                      |
 000B9C 5880 C04C            00004 10161    1000.              L     RM,@JESCINP
 USING  @M1JES,R8                  10162    1001.              WITH  (@M1JES,RM),BEGIN       Input addr
 000BA0 D216 9068 8000 00048 00000 10176  1 1002.                MVC   JRQINPUT,@M1JES
 DROP   @M1JES,R8                  10177    1003.              END   ,
 000BA6 1B00                       10185    1004.              CLEAR RVR
 000BA8 981F C008            00008 10189    1005.              PEND
 DROP   JDEVCB,R9
 DROP   @JESCHK-72,R12
 DROP   CHKDETAC,R10
 000BAC 9680 C000/0B0E 00000       10209             +
1JESSERV  (JESS00) (09:41) (22MAR04) JES detach                                                                             Page   67
0Loc    Object Code    Addr1 Addr2  Stmt Lv Lineno    Source Statement           (Hibal 5, Asmedit 3.3)  HLASM R4.0  2004/03/22 09.41
+___    ______ ____    _____ _____  ____ __ ______    ______ _________
0                                  10216    1007.     *********************************************************************
                                   10217    1008.     *  JES detach                                                       *
                                   10218    1009.     *                                                                   *
                                   10219    1010.     *   Input - @JES                                                    *
                                   10220    1011.     *                                                                   *
                                   10221    1012.     *  Output - none                                                    *
                                   10222    1013.     *                                                                   *
                                   10223    1014.     *********************************************************************
0000BB2                            10225    1016.     DETACH   PROC  @TENTRY
 000BB2 C4C5E3C1C3C84040           10232             +
 000BBA 0008/0000                  10233             +
 000BBE 900F D004/18AF       00004 10235             +
 USING  DETACH,R10
 000BC4 50D0 C000/18CD       00000 10250             +
 000BCA 9680 C000      00000       10252             +
 USING  @TENTRY-72,R12
 000BCE 41D0 C050            00050 10266             +
 000BD2 5890 C048            00000 10267    1017.              L     RN,@TEPARM
 USING  JDEVCB,R9                  10268    1018.              WITH  (JDEVCB,RN)
 AUSING (JRQCB,JDEVRQ)             10281    1019.              WITH  (JRQCB,JDEVRQ)
 000BD6 5880 9008/1288       00008 10288    1020.              IF    ('LT RM,JDEVCHID',NZ),BEGIN      There is a device ID
 000BDC 4780 A16A            00D28 10299             +
                                   10304  1 1021.     *
                                   10305  1 1022.     *  If there is a jobstream on the reader, abort it
                                   10306  1 1023.     *
 USING  @JES-72,R13                10307  1 1024.                PSET  @JES
 000BE0 D704 D048 D048 00000 00000 10324  1          +
 000BE6 5090 D048            00000 10325  1 1025.                PMOV  @JESDEV,LA:JDEVCB
 000BEA 58F0 A46E/0DEF       0102C 10336  1 1026.                ACALL CONABORT
                                   10343  1 1027.
 000BF0 947F 9018      00018       10344  1 1028.                CLEAR JFJACT                  No job on reader any more
                                   10351  1 1029.
 000BF4 5880 0200            00200 10352  1 1030.                L     RM,MATPTR
 000BF8 5880 802C            0002C 10353  1 1031.                WITH  (MAT,RM),'L RM,MATJESCB'
 USING  MAT,R8
 DROP   MAT,R8
                                   10377  1 1032.     *
                                   10378  1 1033.     *  See if someone wants our device
                                   10379  1 1034.     *
 USING  JESCB,R8                   10380  1 1035.                WITH  (JESCB,RM),BEGIN
 DROP   @JES-72,R13                10394  2 1036.                  LKOB  JESWTLK
 USING  @LOCKS-72,R13
 000BFC D203 D048 8008 00000 00008 10413  2          +
 000C02 58F0 A422/0DEF       00FE0 10416  2          +
 000C08 5820 8014            00014 10418  2 1037.                  L     RA,JESWCNT
 DROP   JESCB,R8                   10419  1 1038.                END   ,
 000C0C 1222/4780 A0D2       00C90 10427  1 1039.                IF    (RA,NZ),BEGIN           Someone waiting
 USING  JESCB,R8                   10441  2 1040.                  WITH  (JESCB,RM)
 000C12 41E0 800C/1B00       0000C 10454  2 1041.                  LREM  JESWAIT,WR=RS
 000C18 58F0 E008            00008 10486  3          +
 000C1C 4110 0001/1BF1       00001 10494  3          +
 000C22 4740 A07E            00C3C 10505  3          +
 000C26 50F0 E008            00008 10511  3          +
 000C2A 58F0 E000/180F       00000 10518  3          +
 000C30 58F0 F000            00000 10520  3          +
1JESSERV  (JESS00) (09:41) (22MAR04) JES detach                                                                             Page   68
0Current Usings:  (JESCB,R8) (JDEVCB,R9) (DETACH,R10) (@TENTRY-72,R12) (@LOCKS-72,R13)
0Loc    Object Code    Addr1 Addr2  Stmt Lv Lineno    Source Statement           (Hibal 5, Asmedit 3.3)  HLASM R4.0  2004/03/22 09.41
+___    ______ ____    _____ _____  ____ __ ______    ______ _________
0000C34 50E0 F004            00004 10521  3          +
 000C38 50F0 E000            00000 10522  2          +
 000C3C 1820                       10527  2 1042.                  LR    RA,RVR
 000C3E                            10528  2 1043.                  LKREL JESWTLK
 000C3E D203 D048 8008 00000 00008 10537  2          +
 000C44 58F0 A426/0DEF       00FE4 10540  2          +
 USING  JESWELEM,R2                10542  2 1044.                  WITH  (JESWELEM,RA)
 USING  PZERO,R0                   10555  2 1045.                  USING PZERO,R0
 000C4A 1B44/1B55                  10564  2 1046.                  CLEAR (RJ),(RK)
 000C4E                            10570  2 1047.                  IF    (JWTASB,NE,PZCURASB),BEGIN       Post in another AS
 000C4E D503 2008 0208 00008 00208 10582  2          +
 000C54 4780 A0B0            00C6E 10583  2          +
 000C58 5840 2008            00008 10588  3 1048.                    L     RJ,JWTASB               Other ASB
 DROP   @LOCKS-72,R13              10589  3 1049.                    PSET  @SYSRNEW                Get SYSR ID
 USING  @SYSRNEW-72,R13
 000C5C D703 D048 D048 00000 00000 10609  3          +
 000C62 58F0 A472/0DEF       01030 10610  3 1050.                    VCALL SYSRNEW                 |
 000C68 1850                       10614  3 1051.                    LR    RK,RVR                  |
 000C6A 5050 201C            0001C 10615  3 1052.                    ST    RK,JWTSRID              | save so we can free it later
 000C6E                            10616  2 1053.                  END   ,                       OF Post in another AS
 DROP   @SYSRNEW-72,R13            10620  2 1054.                  SIGNL JWTECB,JDEVCHID,(RJ),(RK)
 USING  @SIGNAL-72,R13
 000C6E D713 D048 D048 00000 00000 10641  2          +
 000C74 4100 2010            00010 10653  2          +
 000C78 5000 D050            00008 10658  2          +
 000C7C D203 D04C 9008 00004 00008 10663  2          +
 000C82 5040 D054            0000C 10673  2          +
 000C86 5050 D058            00010 10683  2          +
 000C8A 58F0 A46A/0DEF       01028 10686  2          +
 DROP   PZERO,R0                   10688  2 1055.                  DROP  R0
 DROP   JESWELEM,R2                10696  1 1056.                END   ,                       OF Someone waiting
 DROP   JESCB,R8
 000C90 A0D6           00C90 00C10 10710  1 1057.                ELSE  BEGIN                   No one waiting
 000C90 47F0 A16A            00D28 10715  1          +
                                   10721  2 1058.     *--------------
                                   10722  2 1059.     *  Close our device
                                   10723  2 1060.     *--------------
 USING  JESCB,R8                   10724  2 1061.                  WITH  (JESCB,RM),BEGIN
 DROP   @SIGNAL-72,R13             10738  3 1062.                    LKREL JESWTLK
 USING  @LOCKS-72,R13
 000C94 D203 D048 8008 00000 00008 10757  3          +
 000C9A 58F0 A426/0DEF       00FE4 10760  3          +
 DROP   JESCB,R8                   10762  2 1063.                  END   ,
                                   10770  2 1064.     *
                                   10771  2 1065.     *  Allocate I/O control block
                                   10772  2 1066.     *
 000CA0 9200 D048      00000       10773  2 1067.                  PSET  @IOSIDGET
 DROP   @LOCKS-72,R13
 USING  @IOSIDGET-72,R13
 000CA4 9680 D048      00000       10794  2 1068.                  SET   @IOSFWAIT
 000CA8 58F0 A3FE/0DEF       00FBC 10800  2 1069.                  VCALL IOSIDGET
 000CAE 1880                       10804  2 1070.                  LR    RM,RVR
                                   10805  2 1071.     *
                                   10806  2 1072.     *  Fix I/O control area
1JESSERV  (JESS00) (09:41) (22MAR04) JES detach                                                                             Page   69
0Current Usings:  (JDEVCB,R9) (DETACH,R10) (@TENTRY-72,R12) (@IOSIDGET-72,R13)
0Loc    Object Code    Addr1 Addr2  Stmt Lv Lineno    Source Statement           (Hibal 5, Asmedit 3.3)  HLASM R4.0  2004/03/22 09.41
+___    ______ ____    _____ _____  ____ __ ______    ______ _________
0                                  10807  2 1073.     *
 AUSING (DODETAC,JRQIOAREA)        10808  2 1074.                  WITH  (DODETAC,JRQIOAREA)
 AUSING (#JESCLOS,DETHOST)         10815  2 1075.                  WITH  (#JESCLOS,DETHOST)
 DROP   @IOSIDGET-72,R13           10822  2 1076.                  PSET  @PAGE
 USING  @PAGE-72,R13
 000CB0 D708 D048 D048 00000 00000 10842  2          +
 000CB6 4100 9028            00000 10843  2 1077.                  PMOV  @PAGLOC,LA:DODETAC
 000CBA 5000 D048            00000 10859  2          +
 000CBE 4100 0004            00004 10860  2 1078.                  PMOV  @PAGLEN,LA:L'DODETAC
 000CC2 5000 D04C            00004 10876  2          +
 000CC6 58F0 A3FA/0DEF       00FB8 10877  2 1079.                  VCALL PAGFIX
                                   10881  2 1080.     *
                                   10882  2 1081.     *  Set up channel program - pretty minimal
                                   10883  2 1082.     *
 000CCC 4100 0008            00008 10884  2 1083.                  PMOV  #JESCCMD,LA:#JCCLOSE    I/O command
 000CD0 5000 9028            00000 10900  2          +
                                   10901  2 1084.     *
                                   10902  2 1085.     *  Call to do I/O
                                   10903  2 1086.     *
 DROP   @PAGE-72,R13               10904  2 1087.                  PSET  @IOSDOIO
 USING  @IOSDOIO-72,R13
 000CD4 D71D D048 D048 00000 00000 10924  2          +
 000CDA                            10925  2 1088.                  PMOV  @IOSCHID,JDEVCHID       Channel ID
 000CDA D203 D048 9008 00000 00008 10929  2          +
 000CE0 5080 D04C            00004 10930  2 1089.                  PMOV  @IOSID,(RM)             I/O Supervisor ID
 000CE4 4100 9028            00000 10940  2 1090.                  PMOV  @IOSCP,LA:#JESCLOS      Channel program
 000CE8 5000 D058            00010 10956  2          +
 000CEC 9680 D065      0001D       10957  2 1091.                  SET   @IOSFSYNC               Synchronous I/O
 000CF0 58F0 A402/0DEF       00FC0 10963  2 1092.                  VCALL IOSDOIO
 000CF6 1820                       10967  2 1093.                  LR    RA,RVR                  Save return code from I/O
                                   10968  2 1094.
 000CF8 947F 9018      00018       10969  2 1095.                  CLEAR JFJACT                  No job on reader any more
                                   10976  2 1096.     *
                                   10977  2 1097.     *  Unfix I/O control area
                                   10978  2 1098.     *
 DROP   @IOSDOIO-72,R13            10979  2 1099.                  PSET  @PAGE
 USING  @PAGE-72,R13
 000CFC D708 D048 D048 00000 00000 10999  2          +
 000D02 4100 9028            00000 11000  2 1100.                  PMOV  @PAGLOC,LA:DODETAC
 000D06 5000 D048            00000 11016  2          +
 000D0A 4100 0004            00004 11017  2 1101.                  PMOV  @PAGLEN,LA:L'DODETAC
 000D0E 5000 D04C            00004 11033  2          +
 000D12 58F0 A40A/0DEF       00FC8 11034  2 1102.                  VCALL PAGUFIX
                                   11038  2 1103.     *
                                   11039  2 1104.     *  Release I/O supervisor ID
                                   11040  2 1105.     *
 DROP   @PAGE-72,R13               11041  2 1106.                  PSET  @IOSIDFRE
 USING  @IOSIDFRE-72,R13
 000D18 D703 D048 D048 00000 00000 11061  2          +
 000D1E 5080 D048            00000 11062  2 1107.                  PMOV  @IOSFID,(RM)
 000D22 58F0 A406/0DEF       00FC4 11072  2 1108.                  VCALL IOSIDFRE
                                   11076  2 1109.
 000D28                            11077  1 1110.                END   ,                       OF No one waiting
 000D28                            11081    1111.              END   ,                       OF There is a device ID
1JESSERV  (JESS00) (09:41) (22MAR04) JES detach                                                                             Page   70
0Current Usings:  (JDEVCB,R9) (DETACH,R10) (@TENTRY-72,R12) (@IOSIDFRE-72,R13)
0Loc    Object Code    Addr1 Addr2  Stmt Lv Lineno    Source Statement           (Hibal 5, Asmedit 3.3)  HLASM R4.0  2004/03/22 09.41
+___    ______ ____    _____ _____  ____ __ ______    ______ _________
0                                  11085    1112.     *
                                   11086    1113.     *  No return registers
                                   11087    1114.     *
 000D28 9680 9084      00064       11088    1115.              SET   JRQR01.@M1JINRV         No return registers
 000D2C 9680 9088      00068       11095    1116.              SET   JRQR14.@M1JINRV
 000D30 9680 908C      0006C       11102    1117.              SET   JRQR15.@M1JINRV
                                   11109    1118.
 DROP   @IOSIDFRE-72,R13           11110    1119.              PSET  @JES
 USING  @JES-72,R13
 000D34 D704 D048 D048 00000 00000 11130             +
 000D3A 5090 D048            00000 11131    1120.              PMOV  @JESDEV,LA:JDEVCB
 000D3E 9680 D04C      00004       11142    1121.              SET   @JPFDONE
 000D42 41F0 A2A6/0DEF       00E64 11148    1122.              LCALL JESPOST
 000D48 981F C008            00008 11157    1123.              PEND  ,
 DROP   JDEVCB,R9
 DROP   @TENTRY-72,R12
 DROP   DETACH,R10
 000D4C 9680 C000/0B0E 00000       11177             +
 DROP   @JES-72,R13
1JESSERV  (JESS00) (09:41) (22MAR04) JES put - write I/O                                                                    Page   71
0Loc    Object Code    Addr1 Addr2  Stmt Lv Lineno    Source Statement           (Hibal 5, Asmedit 3.3)  HLASM R4.0  2004/03/22 09.41
+___    ______ ____    _____ _____  ____ __ ______    ______ _________
0                                  11187    1125.     *********************************************************************
                                   11188    1126.     *  JES Put - I/O through host                                       *
                                   11189    1127.     *                                                                   *
                                   11190    1128.     *   Input - @JESPUT                                                 *
                                   11191    1129.     *                                                                   *
                                   11192    1130.     *  Output - RVR =  0                                                *
                                   11193    1131.     *             I/O ok                                                *
                                   11194    1132.     *           RVR <> 0                                                *
                                   11195    1133.     *             I/O error code from I/O supervisor                    *
                                   11196    1134.     *                                                                   *
                                   11197    1135.     *********************************************************************
 000000                00000 00010 11198    1136.     @JESPUT  RECORD BEGIN
 000000                            11206  1 1137.     @JPDEV     DS    A                       JES device control block
 000004                            11207  1 1138.     @JPLOC     DS    A                       Buffer location
 000008                            11208  1 1139.     @JPLEN     DS    A                       Buffer length
 00000C                            11209  1 1140.     @JPLRECL   DS    A                       Buffer lrecl (0 = variable)
 000010                00010 00010 11210    1141.              END   ,
0000D52                            11220    1143.     JESPUT   PROC  @JESPUT
 000D52 D1C5E2D7E4E34040           11227             +
 000D5A 0010/0000                  11228             +
 000D5E 900F D004/18AF       00004 11230             +
 USING  JESPUT,R10
 000D64 50D0 C000/18CD       00000 11245             +
 000D6A 9680 C000      00000       11247             +
 USING  @JESPUT-72,R12
 000D6E 41D0 C058            00058 11261             +
 000D72 5890 C048            00000 11262    1144.              L     RN,@JPDEV
 USING  JDEVCB,R9                  11263    1145.              WITH  (JDEVCB,RN)
 AUSING (JRQCB,JDEVRQ)             11276    1146.              WITH  (JRQCB,JDEVRQ)
 AUSING (DOWRITE,JRQIOAREA)        11283    1147.              WITH  (DOWRITE,JRQIOAREA)
 AUSING (#JESWRIT,WRHOST)          11290    1148.              WITH  (#JESWRIT,WRHOST)
                                   11297    1149.     *
                                   11298    1150.     *  Allocate I/O control block
                                   11299    1151.     *
 000D76 9200 D048      00000       11300    1152.              PSET  @IOSIDGET
 USING  @IOSIDGET-72,R13
 000D7A 9680 D048      00000       11318    1153.              SET   @IOSFWAIT
 000D7E 58F0 A25E/0DEF       00FBC 11324    1154.              VCALL IOSIDGET
 000D84 1880                       11328    1155.              LR    RM,RVR
                                   11329    1156.     *
                                   11330    1157.     *  Fix I/O control area
                                   11331    1158.     *
 DROP   @IOSIDGET-72,R13           11332    1159.              PSET  @PAGE
 USING  @PAGE-72,R13
 000D86 D708 D048 D048 00000 00000 11352             +
 000D8C 4100 9028            00000 11353    1160.              PMOV  @PAGLOC,LA:DOWRITE
 000D90 5000 D048            00000 11369             +
 000D94 4100 0020            00020 11370    1161.              PMOV  @PAGLEN,LA:L'DOWRITE
 000D98 5000 D04C            00004 11386             +
 000D9C 58F0 A25A/0DEF       00FB8 11387    1162.              VCALL PAGFIX
                                   11391    1163.     *
                                   11392    1164.     *  Set up channel program
                                   11393    1165.     *
 000DA2 4100 000C            0000C 11394    1166.              PMOV  #JESWCMD,LA:#JCWRITE    Write command
 000DA6 5000 9028            00000 11410             +
1JESSERV  (JESS00) (09:41) (22MAR04) JES put - write I/O                                                                    Page   72
0Current Usings:  (JDEVCB,R9) (JESPUT,R10) (@JESPUT-72,R12) (@PAGE-72,R13)
0Loc    Object Code    Addr1 Addr2  Stmt Lv Lineno    Source Statement           (Hibal 5, Asmedit 3.3)  HLASM R4.0  2004/03/22 09.41
+___    ______ ____    _____ _____  ____ __ ______    ______ _________
0000DAA                            11411    1167.              PMOV  #JESWLEN,@JPLEN         Total buffer len
 000DAA D203 9030 C050 00008 00008 11415             +
 000DB0                            11416    1168.              PMOV  #JESWLRC,@JPLRECL       Record length
 000DB0 D203 9034 C054 0000C 0000C 11420             +
                                   11421    1169.     *
                                   11422    1170.     *  Set up real memory buffer list
                                   11423    1171.     *
 000DB6 B120 9038            00010 11424    1172.              LRA   RA,WRLIST               List of buffers
 000DBA 5020 902C            00004 11425    1173.              ST    RA,#JESWLST             |
 000DBE 5820 C04C            00004 11426    1174.              L     RA,@JPLOC               Buffer address
 000DC2 5830 C050            00008 11427    1175.              L     RB,@JPLEN               Buffer length
 000DC6 4140 9038            00010 11428    1176.              LA    RJ,WRLIST               List of data loc/len
 000DCA                            11429    1177.              LOOP  BEGIN                   Fill in location/lengths
 000DCA 1812                       11435  1 1178.                LR    RS,RA                   Length on this page
 000DCC 5E10 A2D6            01034 11436  1 1179.                AL    RS,=A(4096)             |
 000DD0 5410 A2DA            01038 11437  1 1180.                N     RS,=X'7FFFF000'         |
 000DD4 1F12                       11438  1 1181.                SLR   RS,RA                   |
 000DD6 B1F0 2000            00000 11439  1 1182.                LRA   EPAR,@RA                Real address
 000DDA 50F0 4000            00000 11440  1 1183.                ST    EPAR,@RJ                |
 000DDE 5010 4004            00004 11441  1 1184.                ST    RS,@RJ+4                |
 000DE2 1931/47C0 A096       00DF4 11442  1 1185.                IF    (RB,LE,RS),EXIT         Done
 000DE8 1F31                       11460  1 1186.                SLR   RB,RS                   Next length
 000DEA 1E21                       11461  1 1187.                ALR   RA,RS                   Next addr
 000DEC 4140 4008            00008 11462  1 1188.                LA    RJ,@RJ+8                Next in data addr list
 000DF0 47F0 A06C            00DCA 11463    1189.              END   ,                       OF Fill in location/lengths
 000DF4 5030 4004            00004 11468    1190.              ST    RB,@RJ+4                Set last length
 000DF8 9680 4000      00000       11469    1191.              SET   @RJ.X'80'               | and it's the last one
                                   11476    1192.     *
                                   11477    1193.     *  Call to do I/O
                                   11478    1194.     *
 DROP   @PAGE-72,R13               11479    1195.              PSET  @IOSDOIO
 USING  @IOSDOIO-72,R13
 000DFC D71D D048 D048 00000 00000 11499             +
 000E02                            11500    1196.              PMOV  @IOSCHID,JDEVCHID       Channel ID
 000E02 D203 D048 9008 00000 00008 11504             +
 000E08 5080 D04C            00004 11505    1197.              PMOV  @IOSID,(RM)             I/O Supervisor ID
 000E0C 4100 9028            00000 11515    1198.              PMOV  @IOSCP,LA:#JESWRIT      Channel program
 000E10 5000 D058            00010 11531             +
 000E14 9680 D065      0001D       11532    1199.              SET   @IOSFSYNC               Synchronous I/O
 000E18 58F0 A262/0DEF       00FC0 11538    1200.              VCALL IOSDOIO
 000E1E 1820                       11542    1201.              LR    RA,RVR                  Save return code from I/O
                                   11543    1202.     *
                                   11544    1203.     *  Unfix I/O control area
                                   11545    1204.     *
 DROP   @IOSDOIO-72,R13            11546    1205.              PSET  @PAGE
 USING  @PAGE-72,R13
 000E20 D708 D048 D048 00000 00000 11566             +
 000E26 4100 9028            00000 11567    1206.              PMOV  @PAGLOC,LA:DOWRITE
 000E2A 5000 D048            00000 11583             +
 000E2E 4100 0020            00020 11584    1207.              PMOV  @PAGLEN,LA:L'DOWRITE
 000E32 5000 D04C            00004 11600             +
 000E36 58F0 A26A/0DEF       00FC8 11601    1208.              VCALL PAGUFIX
                                   11605    1209.     *
                                   11606    1210.     *  Release I/O supervisor ID
1JESSERV  (JESS00) (09:41) (22MAR04) JES put - write I/O                                                                    Page   73
0Current Usings:  (JDEVCB,R9) (JESPUT,R10) (@JESPUT-72,R12) (@PAGE-72,R13)
0Loc    Object Code    Addr1 Addr2  Stmt Lv Lineno    Source Statement           (Hibal 5, Asmedit 3.3)  HLASM R4.0  2004/03/22 09.41
+___    ______ ____    _____ _____  ____ __ ______    ______ _________
0                                  11607    1211.     *
 DROP   @PAGE-72,R13               11608    1212.              PSET  @IOSIDFRE
 USING  @IOSIDFRE-72,R13
 000E3C D703 D048 D048 00000 00000 11628             +
 000E42 5080 D048            00000 11629    1213.              PMOV  @IOSFID,(RM)
 000E46 58F0 A266/0DEF       00FC4 11639    1214.              VCALL IOSIDFRE
                                   11643    1215.
 000E4C 1802                       11644    1216.              LR    RVR,RA                  Return I/O return code
 000E4E 981F C008            00008 11645    1217.              PEND  ,
 DROP   JDEVCB,R9
 DROP   @JESPUT-72,R12
 DROP   JESPUT,R10
 000E52 9680 C000/0B0E 00000       11665             +
 DROP   @IOSIDFRE-72,R13
1JESSERV  (JESS00) (09:41) (22MAR04) JES post - I/O complete                                                                Page   74
0Loc    Object Code    Addr1 Addr2  Stmt Lv Lineno    Source Statement           (Hibal 5, Asmedit 3.3)  HLASM R4.0  2004/03/22 09.41
+___    ______ ____    _____ _____  ____ __ ______    ______ _________
0                                  11675    1219.     *********************************************************************
                                   11676    1220.     *  JES Post                                                         *
                                   11677    1221.     *                                                                   *
                                   11678    1222.     *   Input - @JES                                                    *
                                   11679    1223.     *             Any channel IDs must be released before calling with  *
                                   11680    1224.     *             the 'done' flag set.                                  *
                                   11681    1225.     *                                                                   *
                                   11682    1226.     *  Output - none                                                    *
                                   11683    1227.     *                                                                   *
                                   11684    1228.     *********************************************************************
0000E58                            11686    1230.     JESPOST  PROC  @JES
 000E58 D1C5E2D7D6E2E340           11693             +
 000E60 0008/0000                  11694             +
 000E64 900F D004/18AF       00004 11696             +
 USING  JESPOST,R10
 000E6A 50D0 C000/18CD       00000 11711             +
 000E70 9680 C000      00000       11713             +
 USING  @JES-72,R12
 000E74 41D0 C050            00050 11727             +
 000E78 5890 C048            00000 11728    1231.              L     RN,@JESDEV
 USING  JDEVCB,R9                  11729    1232.              WITH  (JDEVCB,RN)
 AUSING (JRQCB,JDEVRQ)             11742    1233.              WITH  (JRQCB,JDEVRQ)
                                   11749    1234.     *
                                   11750    1235.     *  Notify master task of completion
                                   11751    1236.     *
 USING  @XITDO-72,R13              11752    1237.              PSET  @XITDO
 000E7C D71F D048 D048 00000 00000 11769             +
 000E82                            11770    1238.              PMOV  @XITRQID,JDEVXID        Exit ID
 000E82 D203 D048 9004 00000 00004 11774             +
 000E88                            11775    1239.              PMOV  @XITTSK,JRQMPID         Master process ID
 000E88 D203 D04C 9024 00004 00004 11779             +
 000E8E 4100 0009            00009 11780    1240.              PMOV  @XITTYPE,LA:XITTIOCN    I/O exit type
 000E92 4200 D050            00008 11796             +
 AUSING (@M1JIOCP,@XITPARM)        11797    1241.              WITH  (@M1JIOCP,@XITPARM)
 AUSING (@M1JES,JRQINPUT)          11804    1242.              WITH  (@M1JES,JRQINPUT)
 000E96                            11811    1243.              PMOV  @M1JICRQ,@M1JRQID       Master's request ID
 000E96 D203 D058 9074 00000 0000C 11815             +
 000E9C 9180 C04C      00004       11816    1244.              IF    @JPFDONE,'SET @M1JICRQ.@M1JDONE'
 000EA0 47E0 A044            00EA8 11826             +
 000EA4 9680 D058      00000       11838             +
 000EA8                            11843    1245.              PMOV  @M1JIR01,JRQR01,SLEN=12,DLEN=12  Registers for request
 000EA8 D20B D05C 9084 00004 00064 11849             +
 000EAE 58F0 A1D8/0DEF       0103C 11850    1246.              VCALL XITDO
                                   11854    1247.     *
                                   11855    1248.     *  NB - I/Os for Mode I are single threaded per device, so we can
                                   11856    1249.     *       use a section of the device identifier block as our request
                                   11857    1250.     *       information control block.
                                   11858    1251.     *
                                   11859    1252.     *        VMFREE A=LA:JRQCB,L'JRQCB,LOC=LOCSYS
                                   11860    1253.     *
                                   11861    1254.     *
                                   11862    1255.     *  Last call
                                   11863    1256.     *
 000EB4 9180 C04C      00004       11864    1257.              IF    @JPFDONE,BEGIN          Last call
 000EB8 47E0 A08C            00EF0 11874             +
1JESSERV  (JESS00) (09:41) (22MAR04) JES post - I/O complete                                                                Page   75
0Current Usings:  (JDEVCB,R9) (JESPOST,R10) (@JES-72,R12) (@XITDEL-72,R13)
0Loc    Object Code    Addr1 Addr2  Stmt Lv Lineno    Source Statement           (Hibal 5, Asmedit 3.3)  HLASM R4.0  2004/03/22 09.41
+___    ______ ____    _____ _____  ____ __ ______    ______ _________
0DROP   @XITDO-72,R13              11879  1 1258.                PSET  @XITDEL                 Delete exit request ID
 USING  @XITDEL-72,R13
 000EBC D703 D048 D048 00000 00000 11899  1          +
 000EC2                            11900  1 1259.                PMOV  @XITDID,JDEVXID         |
 000EC2 D203 D048 9004 00000 00004 11904  1          +
 000EC8 58F0 A1DC/0DEF       01040 11905  1 1260.                VCALL XITDEL                  |
                                   11909  1 1261.
 000ECE 9291 9000      00000       11910  1 1262.                MVI   JDEVID,C'j'             Change ID - no longer valid
 DROP   @XITDEL-72,R13             11911  1 1263.                VMFREE A=LA:JDEVCB,L'JDEVCB,LOC=LOCSYS
 USING  @VMFREE-72,R13
 000ED2 D709 D048 D048 00000 00000 11938  1          +
 000ED8 4100 0090            00090 11950  1          +
 000EDC 5000 D04C            00004 11955  1          +
 000EE0 5090 D048            00000 11966  1          +
 000EE4 D201 D050 A1E8 00008 0104C 11967  1          +
 000EEA 58F0 A18C/0DEF       00FF0 11970  1          +
 000EF0                            11972    1264.              END   ,                       OF Last call
                                   11976    1265.
 DROP   @VMFREE-72,R13             11977    1266.              PSET  @TEXIT                  Exit this task
 USING  @TEXIT-72,R13
 000EF0 D703 D048 D048 00000 00000 11997             +
 000EF6 58F0 A1E0/0DEF       01044 11998    1267.              VCALL TEXIT                   |
                                   12002    1268.
 DROP   JDEVCB,R9                  12003    1269.              PEND  CODE=NO
 DROP   @JES-72,R12
 DROP   JESPOST,R10
 DROP   @TEXIT-72,R13
1JESSERV  (JESS00) (09:41) (22MAR04) Initialize JES services                                                                Page   76
0Loc    Object Code    Addr1 Addr2  Stmt Lv Lineno    Source Statement           (Hibal 5, Asmedit 3.3)  HLASM R4.0  2004/03/22 09.41
+___    ______ ____    _____ _____  ____ __ ______    ______ _________
0                                  12030    1271.     *********************************************************************
                                   12031    1272.     *  Initialize JES services                                          *
                                   12032    1273.     *                                                                   *
                                   12033    1274.     *   Input - none                                                    *
                                   12034    1275.     *                                                                   *
                                   12035    1276.     *  Output - none                                                    *
                                   12036    1277.     *                                                                   *
                                   12037    1278.     *********************************************************************
0000EFC                            12039    1280.     JESINIT  PROC  SCOPE=GLOBAL
 000EFC D1C5E2C9D5C9E340           12045             +
 000F04 0000/0000                  12046             +
 000F08 900F D004/18AF       00004 12048             +
 USING  JESINIT,R10
 000F0E 50D0 C000/18CD       00000 12063             +
 000F14 9680 C000      00000       12065             +
 000F18 41D0 C048            00048 12066             +
 000F1C 5890 0200            00200 12067    1281.              L     RN,MATPTR
 USING  MAT,R9                     12068    1282.              WITH  (MAT,RN)
                                   12081    1283.     *
                                   12082    1284.     *  Allocate global control block
                                   12083    1285.     *
 USING  @VMGET-72,R13              12084    1286.              VMGET L'JESCB,LOC=GLOBHI,FIX=YES
 000F20 D70A D048 D048 00000 00000 12108             +
 000F26 4100 0018            00018 12120             +
 000F2A 5000 D048            00000 12125             +
 000F2E D201 D050 A146 00008 0104E 12126             +
 000F34 58F0 A0A4/0DEF       00FAC 12129             +
 000F3A 1880                       12131    1287.              LR    RM,RVR
 000F3C 5080 902C            0002C 12132    1288.              ST    RM,MATJESCB
 USING  JESCB,R8                   12133    1289.              WITH  (JESCB,RM)
 000F40                            12146    1290.              CLEAR JESCB
 000F40 D717 8000 8000 00000 00000 12152             +
 000F46 D207 8000 A080 00000 00F88 12153    1291.              MVC   JESCBID,=CL8'JESCB'
                                   12154    1292.     *
                                   12155    1293.     *  Create wait queue lock
                                   12156    1294.     *
 DROP   @VMGET-72,R13              12157    1295.              LKCRE JESWAIT
 USING  @LOCKCRE-72,R13
 000F4C D710 D048 D048 00000 00000 12178             +
 000F52 D20F D048 A088 00000 00F90 12184             +
 000F58 58F0 A140/0DEF       01048 12187             +
 000F5E 5000 8008            00008 12189    1296.              ST    RVR,JESWTLK
                                   12190    1297.     *
                                   12191    1298.     *  Init waiter queue
                                   12192    1299.     *
 000F62 4120 800C            0000C 12193    1300.              LA    RA,JESWAIT              No one waiting
 000F66 5020 800C            0000C 12194    1301.              ST    RA,JESWFP               |
 000F6A 5020 8010            00010 12195    1302.              ST    RA,JESWBP               |
                                   12196    1303.
 000F6E 1B00                       12197    1304.              CLEAR RVR
 000F70 981F C008            00008 12201    1305.              PEND  ,
 DROP   JESCB,R8
 DROP   MAT,R9
 DROP   JESINIT,R10
 000F74 9680 C000/0B0E 00000       12221             +
1JESSERV  (JESS00) (09:41) (22MAR04) Initialize JES services                                                                Page   77
0Loc    Object Code    Addr1 Addr2  Stmt Lv Lineno    Source Statement           (Hibal 5, Asmedit 3.3)  HLASM R4.0  2004/03/22 09.41
+___    ______ ____    _____ _____  ____ __ ______    ______ _________
0DROP   @LOCKCRE-72,R13
1JESSERV  (JESS00) (09:41) (22MAR04) MP-ORVYL JES services                                                                  Page   78
0Loc    Object Code    Addr1 Addr2  Stmt Lv Lineno    Source Statement           (Hibal 5, Asmedit 3.3)  HLASM R4.0  2004/03/22 09.41
+___    ______ ____    _____ _____  ____ __ ______    ______ _________
0000F7A 0000/00000001              12231    1307.              XTRCDATA ,
 000F80 00001068                   12234             +
 000F88                            12235    1308.              END   .
 000F88 D1C5E2C3C2404040           12238                             =CL8'JESCB'
 000F90 D1C5E2E6C1C9E340           12239                             =CL16'JESWAIT'
 000FA0 D1C4C5E5                   12240                             =C'JDEV'
 000FA4 070C0000                   12241                             =X'070C0000'
 000FA8 00000000                   12242                             =V(TCREATE)
 000FAC 00000000                   12243                             =V(VMGET)
 000FB0 D1C4C5E5                   12244                             =CL4'JDEV'
 000FB4 00000000                   12245                             =V(XITNEW)
 000FB8 00000000                   12246                             =V(PAGFIX)
 000FBC 00000000                   12247                             =V(IOSIDGET)
 000FC0 00000000                   12248                             =V(IOSDOIO)
 000FC4 00000000                   12249                             =V(IOSIDFRE)
 000FC8 00000000                   12250                             =V(PAGUFIX)
 000FCC FFFFFFFC                   12251                             =A(M1JAVAIL)
 000FD0 00000000                   12252                             =V(ASLOCK)
 000FD4 FFFFFFFC                   12253                             =A(JDEVSHALT)
 000FD8 00000000                   12254                             =V(ASULOCK)
 000FDC 00000004                   12255                             =A(JDEVSWAIT)
 000FE0 00000000                   12256                             =V(LKOB)
 000FE4 00000000                   12257                             =V(LKREL)
 000FE8 00000000                   12258                             =V(AWAIT)
 000FEC 00000000                   12259                             =V(SYSRDEL)
 000FF0 00000000                   12260                             =V(VMFREE)
 000FF4 00FFFFFF                   12261                             =A(M1ADRMSK)
 000FF8 00002000                   12262                             =A(8*1024)
 000FFC 00000001                   12263                             =A(1)
 001000 00000000                   12264                             =V(PAGTPROT)
 001004 000000FE                   12265                             =A(254)
 001008 00000005                   12266                             =A(5)
 00100C 00000102                   12267                             =A(258)
 001010 00000008                   12268                             =A(8)
 001014 D1D6C240                   12269                             =C'JOB '
 001018 00000006                   12270                             =A(6)
 00101C 00000000                   12271                             =V(ACAINFO)
 001020 00000004                   12272                             =A(4)
 001024 00000001                   12273                             =A(MAXCONT)
 001028 00000000                   12274                             =V(SIGNAL)
 00102C 00000A22                   12275                             =A(CONABORT)
 001030 00000000                   12276                             =V(SYSRNEW)
 001034 00001000                   12277                             =A(4096)
 001038 7FFFF000                   12278                             =X'7FFFF000'
 00103C 00000000                   12279                             =V(XITDO)
 001040 00000000                   12280                             =V(XITDEL)
 001044 00000000                   12281                             =V(TEXIT)
 001048 00000000                   12282                             =V(LKCRE)
 00104C 1B00                       12283                             =Y(27*256+0)
 00104E 3F00                       12284                             =Y(63*256+0)
 001050 0004                       12285                             =Y(4)
 001052 6161                       12286                             =C'//'
 001054 0002                       12287                             =Y(2)
 001056 615CD7E4D9                 12288                             =C'/*PUR'
 00105B 615CC4C5D3                 12289                             =C'/*DEL'
 001060 615CC5D6C6     0107A 0107A 12290                             =C'/*EOF'
1JESSERV  (JESS00) (09:41) (22MAR04) MP-ORVYL JES services                                                                  Page   79
0Loc    Object Code    Addr1 Addr2  Stmt Lv Lineno    Source Statement           (Hibal 5, Asmedit 3.3)  HLASM R4.0  2004/03/22 09.41
+___    ______ ____    _____ _____  ____ __ ______    ______ _________
0
1JESSERV  (JESS00) (09:41) (22MAR04) Ordinary Symbol and Literal Cross Reference                                            Page   80
-Symbol   Length   Value     Id    R Type   Defn References                                  HLASM R4.0  2004/03/22 09.41
0$$$@R0        1 00000000 FFFFFFFE     J     714  1010
 $$$@R1        1 00000000 FFFFFFFD     J     727  1022
 $$$@R10       1 00000000 FFFFFFF4     J     844  1142
 $$$@R11       1 00000000 FFFFFFF3     J     857  1154
 $$$@R12       1 00000000 FFFFFFF2     J     870  1166
 $$$@R13       1 00000000 FFFFFFF1     J     883  1178
 $$$@R14       1 00000000 FFFFFFF0     J     896  1190
 $$$@R15       1 00000000 FFFFFFEF     J     909  1202
 $$$@R2        1 00000000 FFFFFFFC     J     740  1034
 $$$@R3        1 00000000 FFFFFFFB     J     753  1046
 $$$@R4        1 00000000 FFFFFFFA     J     766  1058
 $$$@R5        1 00000000 FFFFFFF9     J     779  1070
 $$$@R6        1 00000000 FFFFFFF8     J     792  1082
 $$$@R7        1 00000000 FFFFFFF7     J     805  1094
 $$$@R8        1 00000000 FFFFFFF6     J     818  1106
 $$$@R9        1 00000000 FFFFFFF5     J     831  1118   1130
 $$$C1JESSERV
               1 0000107A 00000001     J   12291 12293
 $$$D0JESSERV
               1 00001065 00000001     J    1221  8057
 $$$R#JESCLOS
               1 00000000 FFFFFFAB     J    3940  3953   3953
 $$$R#JESCOM
               1 00000000 FFFFFFAD     J    3888  3908   3908
 $$$R#JESJBND
               1 00000000 FFFFFFA9     J    3987  4001   4001
 $$$R#JESOPEN
               1 00000000 FFFFFFAC     J    3917  3931   3931
 $$$R#JESWRIT
               1 00000000 FFFFFFAA     J    3962  3978   3978
 $$$R#WRITE
               1 00000000 FFFFFF9A     J    6617  6647   6647
 $$$R@ACAINFO
               1 00000000 FFFFFFB5     J    3137  3154   3154
 $$$R@ACINFO
               1 00000000 FFFFFFB4     J    3164  3183   3183
 $$$R@ACLOGON
               1 00000000 FFFFFFB6     J    3110  3127   3127
 $$$R@ACPINFO
               1 00000000 FFFFFFB3     J    3192  3206   3206
 $$$R@ACREATE
               1 00000000 FFFFFFE4     J    1635  1648   1648
 $$$R@ACSPINF
               1 00000000 FFFFFFB2     J    3215  3229   3229
 $$$R@AWAIT
               1 00000000 FFFFFFCB     J    2430  2452   2452
 $$$R@DISPPIOC
               1 00000000 FFFFFFE9     J    1501  1514   1514
 $$$R@DISPSIOC
               1 00000000 FFFFFFE8     J    1520  1533   1533
 $$$R@DISPSWP
               1 00000000 FFFFFFE5     J    1612  1625   1625
 $$$R@DSPSTAT
               1 00000000 FFFFFFD9     J    1906  1922   1922
 $$$R@EXRADD
1JESSERV  (JESS00) (09:41) (22MAR04) Ordinary Symbol and Literal Cross Reference                                            Page   81
               1 00000000 FFFFFFD8     J    1940  1970   1970
 $$$R@EXRDEL
               1 00000000 FFFFFFD7     J    1980  1993   1993
 $$$R@EXRDONE
               1 00000000 FFFFFFD6     J    2003  2039   2039
 $$$R@IORB
               1 00000000 FFFFFFC4     J    2627  2646   2646
 $$$R@IOSDOIO
               1 00000000 FFFFFFC9     J    2490  2528   2528
 $$$R@IOSIDFRE
               1 00000000 FFFFFFC5     J    2601  2614   2614
 $$$R@IOSIDGET
               1 00000000 FFFFFFC6     J    2574  2595   2595
 $$$R@IOSTIME
               1 00000000 FFFFFFC7     J    2554  2568   2568
 $$$R@IOTERM
               1 00000000 FFFFFFC8     J    2534  2548   2548
 $$$R@IOUPARM
               1 00000000 FFFFFFC3     J    2658  2681   2681
 $$$R@JES      1 00000000 FFFFFF9C     J    4434  4456   4456
 $$$R@JESCARD
               1 00000000 FFFFFF99     J    7482  7497   7497
 $$$R@JESCHK
               1 00000000 FFFFFF9B     J    4462  4476   4476
 $$$R@JESPUT
               1 00000000 FFFFFF98     J   11200 11216  11216
 $$$R@JSALLO
               1 00000000 FFFFFFA7     J    4039  4081   4081
 $$$R@JSDALLO
               1 00000000 FFFFFFA8     J    4014  4027   4027
 $$$R@LADD
               1 00000000 FFFFFFAF     J    3284  3300   3300
 $$$R@LOCKCRE
               1 00000000 FFFFFFCD     J    2377  2399   2399
 $$$R@LOCKS
               1 00000000 FFFFFFCC     J    2405  2418   2418
 $$$R@LREM
               1 00000000 FFFFFFAE     J    3306  3323   3323
 $$$R@MONSET
               1 00000000 FFFFFFDA     J    1883  1896   1896
 $$$R@M1JES
               1 00000000 FFFFFFA6     J    4098  4187   4187
 $$$R@M1JIOCP
               1 00000000 FFFFFFA5     J    4198  4218   4218
 $$$R@PAGASC1
               1 00000000 FFFFFFBD     J    2859  2873   2873
 $$$R@PAGASC2
               1 00000000 FFFFFFBC     J    2879  2893   2893
 $$$R@PAGDEF
               1 00000000 FFFFFFBF     J    2799  2826   2826
 $$$R@PAGE
               1 00000000 FFFFFFBB     J    2899  2915   2915
 $$$R@PAGINIT
               1 00000000 FFFFFFB8     J    2961  2975   2975
 $$$R@PAGINTV
               1 00000000 FFFFFFB9     J    2942  2955   2955
 $$$R@PAGRV
               1 00000000 FFFFFFBA     J    2921  2936   2936
 $$$R@PAGSEGD
1JESSERV  (JESS00) (09:41) (22MAR04) Ordinary Symbol and Literal Cross Reference                                            Page   82
               1 00000000 FFFFFFBE     J    2832  2853   2853
 $$$R@PAGSWADV
               1 00000000 FFFFFFC1     J    2750  2763   2763
 $$$R@PAGSWAP
               1 00000000 FFFFFFC2     J    2696  2744   2744
 $$$R@PAGWSMA
               1 00000000 FFFFFFC0     J    2769  2793   2793
 $$$R@PERSET
               1 00000000 FFFFFFDB     J    1860  1873   1873
 $$$R@RESUME
               1 00000000 FFFFFFE6     J    1587  1602   1602
 $$$R@SIGNAL
               1 00000000 FFFFFFCA     J    2463  2483   2483
 $$$R@SUSPEND
               1 00000000 FFFFFFE7     J    1543  1577   1577
 $$$R@SYSRDEL
               1 00000000 FFFFFFDE     J    1788  1801   1801
 $$$R@SYSRDO
               1 00000000 FFFFFFDD     J    1811  1827   1827
 $$$R@SYSRNEW
               1 00000000 FFFFFFDF     J    1766  1779   1779
 $$$R@SYSRTN
               1 00000000 FFFFFFDC     J    1837  1850   1850
 $$$R@TCREATE
               1 00000000 FFFFFFE3     J    1658  1687   1687
 $$$R@TENTRY
               1 00000000 FFFFFFE1     J    1720  1733   1733
 $$$R@TEXIT
               1 00000000 FFFFFFE0     J    1743  1756   1756
 $$$R@TRACE
               1 00000000 FFFFFFB7     J    2988  3093   3093
 $$$R@TREMOVE
               1 00000000 FFFFFFE2     J    1697  1710   1710
 $$$R@VMFREE
               1 00000000 FFFFFFEB     J    1449  1464   1464
 $$$R@VMGET
               1 00000000 FFFFFFEC     J    1414  1443   1443
 $$$R@VMINFO
               1 00000000 FFFFFFEA     J    1470  1485   1485
 $$$R@XITDATA
               1 00000000 FFFFFFCF     J    2325  2338   2338
 $$$R@XITDEL
               1 00000000 FFFFFFD4     J    2080  2093   2093
 $$$R@XITDO
               1 00000000 FFFFFFD3     J    2102  2119   2119
 $$$R@XITGPST
               1 00000000 FFFFFFD2     J    2130  2145   2145
 $$$R@XITMASK
               1 00000000 FFFFFFD1     J    2155  2202   2202
 $$$R@XITNEW
               1 00000000 FFFFFFD5     J    2049  2070   2070
 $$$RDOATTACH
               1 00000000 FFFFFFA2     J    4276  4290   4290
 $$$RDODETAC
               1 00000000 FFFFFFA1     J    4296  4309   4309
 $$$RDOEOJ
               1 00000000 FFFFFF9F     J    4336  4350   4350
 $$$RDOWRITE
               1 00000000 FFFFFFA0     J    4315  4330   4330
1JESSERV  (JESS00) (09:41) (22MAR04) Ordinary Symbol and Literal Cross Reference                                            Page   83
 $$$RJDEVCB
               1 00000000 FFFFFF9D     J    4394  4428   4428
 $$$RJESCB
               1 00000000 FFFFFFA4     J    4224  4243   4243
 $$$RJESWELEM
               1 00000000 FFFFFFA3     J    4248  4270   4270
 $$$RJRQCB
               1 00000000 FFFFFF9E     J    4356  4388   4388
 $$$RLELEM
               1 00000000 FFFFFFB0     J    3263  3278   3278
 $$$RLHEAD
               1 00000000 FFFFFFB1     J    3241  3257   3257
 $$$RMAT       1 00000000 FFFFFFED     J    1342  1401   1401
 $$$RPZERO
               1 00000000 FFFFFFEE     J    1238  1329   1329
 $$$RXITMSKD
               1 00000000 FFFFFFD0     J    2228  2315   2315
 $$$RXITSAREA
               1 00000000 FFFFFFCE     J    2348  2364   2364
 $$$TR$0       4 00001068 00000001     A    8061  8055   8061  12234
 $$$104F       2 0000085E 00000001     H    8455  8332B
 $$$105F       2 00000834 00000001     H    8377  8352B  8365B
 $$$105S       2 0000081C 00000001     H    8344  8376B
 $$$108F       2 0000084C 00000001     H    8416  8391B  8404B
 $$$108S       2 00000834 00000001     H    8383  8415B
 $$$111F       2 0000085E 00000001     H    8449  8431B
 $$$113F       2 00000866 00000001     H    8471  8462B
 $$$115F       2 000008C2 00000001     H    8667  8658B
 $$$115T       2 000008BE 00000001     H    8661  8646B
 $$$120F       2 00000A0C 00000001     H    9352  8994B
 $$$121F       2 0000096C 00000001     H    8998  8986B
 $$$122F       2 00000A0C 00000001     H    9332  9323B
 $$$123F       2 00000A86 00000001     H    9615  9456B
 $$$124F       2 00000A4A 00000001     H    9460  9448B
 $$$125F       2 00000A86 00000001     H    9595  9586B
 $$$127F       2 00000B58 00000001     H   10024  9712B
 $$$128F       2 00000B4C 00000001     H    9991  9789B
 $$$129F       2 00000B4C 00000001     H    9979  9964B
 $$$129S       2 00000AF8 00000001     H    9818  9975B
 $$$130F       2 00000B44 00000001     H    9968  9832B
 $$$131F       2 00000B2C 00000001     H    9918  9891B
 $$$136F       2 00000D28 00000001     H   11084 10299B
 $$$137B       4 00000C0E 00000001     I   10436 10712
 $$$137F       2 00000C90 00000001     H   10709 10436B 10711
 $$$138F       2 00000C3C 00000001     H   10526 10505B
 $$$140F       2 00000C6E 00000001     H   10619 10583B
 $$$141E       2 00000C94 00000001     H   10719 10713
 $$$141F       2 00000D28 00000001     H   11080 10715B
 $$$146F       2 00000DF4 00000001     H   11467 11454B
 $$$146S       2 00000DCA 00000001     H   11433 11466B
 $$$150F       2 00000EA8 00000001     H   11842 11826B
 $$$152F       2 00000EF0 00000001     H   11975 11874B
 $$$21F        2 000000D4 00000001     H    4802  4617B
 $$$23F        2 0000009E 00000001     H    4702  4659B
 $$$24F        2 000000D2 00000001     H    4779  4715B
 $$$25F        2 00000184 00000001     H    5077  4951B
 $$$26F        2 00000154 00000001     H    4955  4943B
 $$$30F        2 00000214 00000001     H    5326  5283B
 $$$31F        2 000003B0 00000001     H    6119  5590B  5621B
1JESSERV  (JESS00) (09:41) (22MAR04) Ordinary Symbol and Literal Cross Reference                                            Page   84
 $$$32F        2 000002B0 00000001     H    5625  5613B
 $$$33F        2 00000392 00000001     H    6049  5763B
 $$$34F        2 000002FC 00000001     H    5767  5751B
 $$$35F        2 00000378 00000001     H    5984  5975B
 $$$36F        2 00000392 00000001     H    6039  5996B
 $$$37F        2 000003CA 00000001     H    6190  6176B
 $$$38F        2 000004A0 00000001     H    6595  6421B  6454B  6529B
 $$$39F        2 00000424 00000001     H    6387  6377B
 $$$40F        2 0000043E 00000001     H    6425  6413B
 $$$40T        2 00000436 00000001     H    6416  6402B
 $$$42F        2 00000460 00000001     H    6458  6446B
 $$$43F        2 0000048A 00000001     H    6533  6521B
 $$$45F        2 000004DE 00000001     H    6758  6743B
 $$$47F        2 00000604 00000001     H    7284  6824B  6852B
 $$$48F        2 0000051E 00000001     H    6860  6786B
 $$$49F        2 00000508 00000001     H    6828  6816B
 $$$49T        2 00000500 00000001     H    6819  6804B
 $$$51F        2 0000051E 00000001     H    6856  6844B
 $$$52F        2 0000052E 00000001     H    6885  6875B
 $$$53F        2 000005BC 00000001     H    7145  6929B  6987B  7118B
 $$$53S        2 00000534 00000001     H    6893  7142B
 $$$54F        2 0000057E 00000001     H    6997  6905B
 $$$55F        2 00000550 00000001     H    6933  6921B
 $$$56F        2 00000576 00000001     H    6991  6979B
 $$$56T        2 0000056E 00000001     H    6982  6955B  6969B
 $$$59B        4 00000594 00000001     I    7059  7079
 $$$59F        2 0000059E 00000001     H    7076  7059B  7078
 $$$60E        2 000005A2 00000001     H    7086  7080
 $$$60F        2 000005AC 00000001     H    7106  7082B
 $$$64F        2 00000604 00000001     H    7280  7159B
 $$$65F        2 000005E0 00000001     H    7220  7210B
 $$$66F        2 00000600 00000001     H    7269  7259B
 $$$67F        2 0000061E 00000001     H    7331  7321B
 $$$70F        2 0000069A 00000001     H    7611  7600B
 $$$70S        2 00000686 00000001     H    7592  7610B
 $$$75F        2 000006BE 00000001     H    7688  7677B
 $$$75S        2 000006AE 00000001     H    7669  7687B
 $$$80F        2 000006E8 00000001     H    7773  7762B
 $$$80S        2 000006D8 00000001     H    7754  7772B
 $$$83F        2 00000702 00000001     H    7830  7821B
 $$$83T        2 000006FE 00000001     H    7824  7810B
 $$$85F        2 00000738 00000001     H    7913  7851B  7864B  7877B  7890B  7902B
 $$$85S        2 00000706 00000001     H    7841  7912B
 $$$94F        2 0000076E 00000001     H    8014  7983B
 $$$96F        2 00000782 00000001     H    8051  8041B
 $$$98F        2 000007AC 00000001     H    8150  8141B
 $$$99F        2 00000866 00000001     H    8485  8255B
 #IOUJES       1 00000014 FFFFFFC3 A   U    2672  5270
 #JCCLOSE      1 00000008 FFFFFFAD A   U    3899 10895
 #JCJBND       1 00000010 FFFFFFAD A   U    3901  9121
 #JCOPEN       1 00000004 FFFFFFAD A   U    3898  5377
 #JCWRITE      1 0000000C FFFFFFAD A   U    3900 11405
 #JESALLO      4 00000004 FFFFFFAC     A    3924  5384M
 #JESCCMD      4 00000000 FFFFFFAB     X    3946 10900M
 #JESCLOS      4 00000000 FFFFFFAB     J    3953  4302  10820U 10951
 #JESCOM       4 00000000 FFFFFFAD     J    3908  3923   3946   3968   3993
 #JESJBND      8 00000000 FFFFFFA9     J    4001  4342   9046U  9188
 #JESNCMD      4 00000000 FFFFFFA9     X    3993  9126M
 #JESNLOC      4 00000004 FFFFFFA9     A    3994  9137M
1JESSERV  (JESS00) (09:41) (22MAR04) Ordinary Symbol and Literal Cross Reference                                            Page   85
 #JESOCMD      4 00000000 FFFFFFAC     X    3923  5382M
 #JESOPEN      8 00000000 FFFFFFAC     J    3931  4282   5182U  5459
 #JESWCMD      4 00000000 FFFFFFAA     X    3968 11410M
 #JESWLEN      4 00000008 FFFFFFAA     A    3970 11415M
 #JESWLRC      4 0000000C FFFFFFAA     A    3971 11420M
 #JESWLST      4 00000004 FFFFFFAA     A    3969 11425M
 #JESWRIT     16 00000000 FFFFFFAA     J    3978  4321   9476U 11295U 11526
 #WJACT      128 00000000 FFFFFF9A         6629  6754M  7058   7102M
 #WRITE        1 00000000 FFFFFF9A     J    6647  6695U
 #WRITFLG      1 00000000 FFFFFF9A     R    6625  6629   6704M
 @ACAASB       4 00000000 FFFFFFB5     A    3143  8102M
 @ACAINFO     24 00000000 FFFFFFB5     J    3154  8080U  8088M  8088
 @ACAUID       8 00000004 FFFFFFB5     C    3144  8116
 @ACAUPR       4 0000000C FFFFFFB5     A    3145  3146
 @AWAIT        5 00000000 FFFFFFCB     J    2452  5924U  5932M  5932
 @AWTECB       4 00000000 FFFFFFCB     A    2436  5949M
 @AWTFLG       1 00000004 FFFFFFCB     R    2439  2443
 @EXRAFLG      1 00000014 FFFFFFD8     R    1952  1956   1961
 @EXRDCD       1 00000000 FFFFFFD6     R    2011  2020   2030
 @IOSCHID      4 00000000 FFFFFFC9     A    2496  5432M  9166M 10929M 11504M
 @IOSCP        4 00000010 FFFFFFC9     A    2499  5464M  9193M 10956M 11531M
 @IOSDOIO     30 00000000 FFFFFFC9     J    2528  5414U  5422M  5422   9153U  9161M  9161  10916U 10924M 10924  11491U
                                                 11499M 11499
 @IOSFID       4 00000000 FFFFFFC5     A    2607  9308M 11071M 11638M
 @IOSFSYNC
             128 0000001D FFFFFFC9         2509  5470M  9199M 10962M 11537M
 @IOSFWAIT
             128 00000000 FFFFFFC6         2586  5357M  9025M 10799M 11323M
 @IOSF1        1 0000001D FFFFFFC9     R    2505  2509   2514   2519
 @IOSID        4 00000004 FFFFFFC9     A    2497  5442M  5491U  5499M  5499   5509M  9176M 10939M 11514M
 @IOSIDF       1 00000000 FFFFFFC6     R    2582  2586
 @IOSIDFRE
               4 00000000 FFFFFFC5     J    2614  9290U  9298M  9298  11053U 11061M 11061  11620U 11628M 11628
 @IOSIDGET
               1 00000000 FFFFFFC6     J    2595  5343U  5351M  9011U  9019M 10785U 10793M 11309U 11317M
 @IOSPID       8 00000008 FFFFFFC9     D    2498  5447M
 @JCDEV        4 00000000 FFFFFF99     A    7488  7027M  7543
 @JCLEN        4 00000008 FFFFFF99     A    7490  7047M  7559   8235
 @JCLOC        4 00000004 FFFFFF99     A    7489  7037M  7557   8234
 @JES          5 00000000 FFFFFF9C     J    4456  6145U  6153M  6153   7367U  7375M  7375   8806U  8814M  8814   8850M
                                                  8850   8950U  9412U 10316U 10324M 10324  11122U 11130M 11130  11723U
 @JESCARD     12 00000000 FFFFFF99     J    7497  7008U  7016M  7016   7538U  8229U
 @JESCDEV      4 00000000 FFFFFF9B     A    4468  4568M  4626   4969M  6283   8551   9680  10115
 @JESCHK       8 00000000 FFFFFF9B     J    4476  4550U  4558M  4558   4875U  6278U  8546U  9675U 10110U
 @JESCINP      4 00000004 FFFFFF9B     A    4469  4585M  4981   6314   8597  10161
 @JESDEV       4 00000000 FFFFFF9C     A    4440  6164M  7386M  8825M  8861M  8955   9417  10335M 11141M 11728
 @JESF         1 00000004 FFFFFF9C     R    4443  4447
 @JESPUT      16 00000000 FFFFFF98     J   11216  7179U  7187M  7187   9488U  9496M  9496  11257U
 @JPDEV        4 00000000 FFFFFF98     A   11206  7198M  9507M 11262
 @JPFDONE    128 00000004 FFFFFF9C         4447  6186M 11147M 11825  11873
 @JPLEN        4 00000008 FFFFFF98     A   11208  7235M  9541M 11415  11427
 @JPLOC        4 00000004 FFFFFF98     A   11207  7230M  9524M 11426
 @JPLRECL      4 0000000C FFFFFF98     A   11209  7240M  9558M 11420
 @JSALLO      54 00000000 FFFFFFA7     J    4081  4283   5189U  5383
 @JSFLAG       1 0000000E FFFFFFA7     R    4052  4056   4061
 @JSINTR     128 0000000E FFFFFFA7         4056  5391M
 @LOCKCRE     17 00000000 FFFFFFCD     J    2399 12170U 12178M 12178
 @LOCKFL       1 00000010 FFFFFFCD     R    2386  2390
 @LOCKID       4 00000000 FFFFFFCC     A    2411  5832M  5902M  9774M 10011M 10413M 10537M 10757M
1JESSERV  (JESS00) (09:41) (22MAR04) Ordinary Symbol and Literal Cross Reference                                            Page   86
 @LOCKNAM     16 00000000 FFFFFFCD     C    2383 12184M
 @LOCKS        4 00000000 FFFFFFCC     J    2418  5826U  9768U 10005U 10407U 10751U
 @M1JBLEN      4 00000008 FFFFFFA6     U    6633  6833   6887   7235   7346
 @M1JBLOC      4 00000000 FFFFFFA6     U    6632  6774   6864   7199   7310
 @M1JCNUM      4 00000000 FFFFFFA6     U    8507  8632   8827
 @M1JDONE      1 00000080 FFFFFFA5 A   U    4205 11836
 @M1JDVID      4 00000010 FFFFFFA6     A    4108  4537   4703M
 @M1JES       23 00000000 FFFFFFA6     J    4187  4375   4532U  4580   4991U  5020   5168U  6324U  6329   6364U  6731U
                                                  8607U  8612   8626U  8775U 10171U 10176  11809U
 @M1JFL        1 00000016 FFFFFFA6     R    4169  4173   4178
 @M1JHALT     16 00000015 FFFFFFA6         4153  4714
 @M1JICRQ      4 00000000 FFFFFFA5     A    4204 11815M 11838M
 @M1JINRV      1 00000080 FFFFFFA5 A   U    4211  5198   5205   6763   8784   8791  11092  11099  11106
 @M1JIOCP     16 00000000 FFFFFFA5     J    4218 11802U
 @M1JIR01      4 00000004 FFFFFFA5     A    4207 11849M
 @M1JLREC      4 00000004 FFFFFFA6     U    6634  6776   6895   7240
 @M1JM31      64 00000016 FFFFFFA6         4178  6376   6874   7209   7320
 @M1JPKEY      1 00000014 FFFFFFA6     X    4110  6504
 @M1JRQID      4 0000000C FFFFFFA6     A    4107 11815
 @M1JR01       4 00000000 FFFFFFA6     A    4104  6366   6632   8507
 @M1JR14       4 00000004 FFFFFFA6     A    4105  6634
 @M1JR15       4 00000008 FFFFFFA6     A    4106  6388   6633
 @M1JTYPE      1 00000015 FFFFFFA6     R    4114  4123   4133   4143   4153   4163   4591   4750
 @M1JWAIT    128 00000016 FFFFFFA6         4173  5612
 @PAGE         9 00000000 FFFFFFBB     J    2915  5220U  5228M  5228   5529U  5537M  5537   6471U  6479M  6479   6547M
                                                  6547   7301U  7309M  7309   7411U  9060U  9068M  9068   9228U  9236M
                                                  9236  10834U 10842M 10842  10991U 10999M 10999  11344U 11352M 11352
                                                 11558U 11566M 11566
 @PAGKEY       1 00000008 FFFFFFBB     X    2907  2908   6504M
 @PAGLEN       4 00000004 FFFFFFBB     A    2906  5262M  5571M  6499M  6567M  7346M  9102M  9270M 10876M 11033M 11386M
                                                 11600M
 @PAGLOC       4 00000000 FFFFFFBB     A    2905  5245M  5554M  6489M  6557M  7341M  9085M  9253M 10859M 11016M 11369M
                                                 11583M
 @PDF1         1 00000009 FFFFFFBF     R    2811  2812   2817
 @RA           0 00000000 FFFFFFFC     @    1035  6910   6934   6993   7124   7570   7579   7599   7606   7676   7683
                                                  7720   7729   7761   7768   7807   7820   7826   7850   7863   7876
                                                  7889   7907   8236   8271   8290   8309   8331   8337   8364   8370
                                                  8403   8409   8443  11439
 @RB           0 00000000 FFFFFFFB     @    1047  7605   7908
 @RJ           0 00000000 FFFFFFFA     @    1059  7982   8008   8009   8040   8046   8047  11440M 11441M 11462  11468M
                                                 11475M
 @R0           0 00000000 FFFFFFFE     @     715   991U  4696U  5017U  5320U  5726U  6353U  8108U  8594U 10158U 10693U
 @R1           0 00000000 FFFFFFFD     @     728   987U
 @R10          0 00000000 FFFFFFF4     @     845   951U  4800U  5075U  6216U  6593U  7455U  8167U  8483U  8684U  8887U
                                                  9350U  9613U 10047U 10205U 11173U 11661U 12019U 12217U
 @R11          0 00000000 FFFFFFF3     @     858   947U
 @R12          0 00000000 FFFFFFF2     @     871   943U  4795U  5070U  6211U  6588U  7450U  8162U  8478U  8679U  8882U
                                                  9345U  9608U 10042U 10200U 11168U 11656U 12014U
 @R13          0 00000000 FFFFFFF1     @     884   939U  4732U  4811U  5033U  5086U  5340U  5411U  5488U  5526U  5645U
                                                  5823U  5921U  6010U  6066U  6142U  6227U  6604U  7176U  7298U  7364U
                                                  7408U  7466U  8178U  8898U  9057U  9150U  9225U  9287U  9361U  9624U
                                                  9929U 10002U 10058U 10404U 10598U 10630U 10748U 10782U 10831U 10913U
                                                 10988U 11050U 11119U 11184U 11341U 11488U 11555U 11617U 11672U 11888U
                                                 11927U 11986U 12027U 12167U 12228U
 @R14          0 00000000 FFFFFFF0     @     897   935U
 @R15          0 00000000 FFFFFFEF     @     910   931U  4592U
 @R2           0 00000000 FFFFFFFC     @     741   983U  4751U 10701U
 @R3           0 00000000 FFFFFFFB     @     754   979U  9986U
 @R4           0 00000000 FFFFFFFA     @     767   975U
1JESSERV  (JESS00) (09:41) (22MAR04) Ordinary Symbol and Literal Cross Reference                                            Page   87
 @R5           0 00000000 FFFFFFF9     @     780   971U
 @R6           0 00000000 FFFFFFF8     @     793   967U
 @R7           0 00000000 FFFFFFF7     @     806   963U  6116U
 @R8           0 00000000 FFFFFFF6     @     819   959U  5060U  5795U  6046U  6336U  8619U  9743U 10021U 10183U 10375U
                                                 10425U 10706U 10768U 12207U
 @R9           0 00000000 FFFFFFF5     @     832   955U  4790U  5065U  6206U  6583U  7445U  8157U  8674U  8877U  9340U
                                                  9603U 10037U 10195U 11163U 11651U 12009U 12212U
 @SDF1         1 00000009 FFFFFFBE     R    2843  2844
 @SGASB        4 0000000C FFFFFFCA     A    2474 10673M
 @SGCODE       8 00000000 FFFFFFCA     D    2469 10663M
 @SGECB        4 00000008 FFFFFFCA     A    2470  9957M 10658M
 @SGSRID       4 00000010 FFFFFFCA     A    2475 10683M
 @SIGNAL      20 00000000 FFFFFFCA     J    2483  9932U  9940M  9940  10633U 10641M 10641
 @SUSPFLG      1 00000008 FFFFFFE7     R    1554  1558   1563   1568
 @SWFLG        1 00000004 FFFFFFC2     R    2706  2715   2725   2735
 @SYSRDEL      4 00000000 FFFFFFDE     J    1801  6013U  6021M  6021
 @SYSRDID      4 00000000 FFFFFFDE     A    1794  6031M
 @SYSRNEW      4 00000000 FFFFFFDF     J    1779 10601U 10609M 10609
 @TCREATE     21 00000000 FFFFFFE3     J    1687  4735U  4743M  4743
 @TCRFLAG      1 00000014 FFFFFFE3     R    1669  1673   1678
 @TCRFSTK    128 00000014 FFFFFFE3         1673  4770M
 @TCRPARM      4 00000008 FFFFFFE3     A    1665  4764M
 @TCRPSW       8 00000000 FFFFFFE3     D    1664  4744M  4753M
 @TENTRY       8 00000000 FFFFFFE1     J    1733  5137U  6688U  6695U  8744U 10262U
 @TEPARM       4 00000000 FFFFFFE1     A    1726  5142   6705   8749  10267
 @TEXIT        4 00000000 FFFFFFE0     J    1756 11989U 11997M 11997
 @TRTYPE       1 00000000 FFFFFFB7     R    2997  3006   3016   3026   3036   3046   3056   3066   3076
 @VMFLEN       4 00000004 FFFFFFEB     A    1456  6094M 11955M
 @VMFLOC       4 00000000 FFFFFFEB     A    1455  6105M 11966M
 @VMFPOOL      2 00000008 FFFFFFEB     H    1457  6106M 11967M
 @VMFREE      10 00000000 FFFFFFEB     J    1464  6069U  6077M  6077  11930U 11938M 11938
 @VMGET       11 00000000 FFFFFFEC     J    1443  4899U  4907M  4907   5648U  5656M  5656  12100U 12108M 12108
 @VMGFLG       1 0000000A FFFFFFEC     R    1425  1429   1434
 @VMGLEN       4 00000000 FFFFFFEC     A    1420  4924M  5673M 12125M
 @VMGONEP     64 0000000A FFFFFFEC         1434  4931M
 @VMGPOOL      2 00000008 FFFFFFEC     H    1422  4925M  5674M 12126M
 @WSFLG        1 0000000C FFFFFFC0     R    2780  2784
 @XITDEL       4 00000000 FFFFFFD4     J    2093 11891U 11899M 11899
 @XITDID       4 00000000 FFFFFFD4     A    2086 11904M
 @XITDO       32 00000000 FFFFFFD3     J    2119 11761U 11769M 11769
 @XITMREQ      1 00000004 FFFFFFD1     R    2164  2173   2183   2193
 @XITNEW       1 00000000 FFFFFFD5     J    2070  5036U  5044M
 @XITNFL       1 00000000 FFFFFFD5     R    2057  2061
 @XITPARM     16 00000010 FFFFFFD3     X    2112 11802U
 @XITRQID      4 00000000 FFFFFFD3     A    2108 11774M
 @XITTSK       4 00000004 FFFFFFD3     A    2109 11779M
 @XITTYPE      1 00000008 FFFFFFD3     X    2110 11796M
 ABCARD        4 00000018 FFFFFFA0     U    9372  9478M  9519
 ACAINFO       1 00000000 00000012     T   12271 12271
 ACTTABLE      4 000000F0 00000001 C   U    4820  4752
 ASLOCK        1 00000000 0000000A     T   12252 12252
 ASULOCK       1 00000000 0000000B     T   12254 12254
 ATALLOC      54 00000008 FFFFFFA2     X    4283  5189U
 ATHOST        8 00000000 FFFFFFA2     X    4282  5182U
 ATTACH        4 0000019A 00000001     I    5110  4821   5121U
 ATTACH15      2 0000018E 00000001     H    5105  5104
 AWAIT         1 00000000 0000000E     T   12258 12258
 BR           10 0000000A FFFFFFFF A   #    1136  4506M  4516U  4849M  4859U  5111M  5121U  6252M  6262U  6662M  6672U
                                                  7512M  7522U  8203M  8213U  8520M  8530U  8718M  8728U  8924M  8934U
1JESSERV  (JESS00) (09:41) (22MAR04) Ordinary Symbol and Literal Cross Reference                                            Page   88
                                                  9386M  9396U  9649M  9659U 10084M 10094U 10236M 10246U 11231M 11241U
                                                 11697M 11707U 12049M 12059U
 CHKATTAC      4 00000114 00000001     I    4848  4815   4859U
 CHKCONTR      4 0000087C 00000001     I    8519  4817   8530U
 CHKDETAC      4 00000B78 00000001     I   10083  4819  10094U
 CHKJOB        4 00000654 00000001     I    7511  7095   7522U
 CHKJOB15      2 00000648 00000001     H    7506  7505
 CHKREC        4 000007C2 00000001     I    8202  7071   8213U
 CHKREC15      2 000007B6 00000001     H    8197  8196
 CHKWRITE      4 000003E6 00000001     I    6251  4816   6262U
 CONABORT      4 00000A22 00000001     I    9385  8902   9396U 12275
 CONSTART      4 00000930 00000001     A    8901  8829   8903
 CONTERM       4 00000944 00000001     I    8923  8901   8934U
 CONTROL       4 000008D8 00000001     I    8717  4823   8728U
 DETACH        4 00000BBE 00000001     I   10235  4825  10246U
 DETACH15      2 00000BB2 00000001     H   10230 10229
 DETHOST       4 00000000 FFFFFFA1     X    4302 10820U
 DOATTACH     62 00000000 FFFFFFA2     J    4290  4366   5175U  5240   5257   5549   5566
 DODETAC       4 00000000 FFFFFFA1     J    4309  4368  10813U 10854  10871  11011  11028
 DOEOJ        12 00000000 FFFFFF9F     J    4350  4372   9039U  9080   9097   9248   9265
 DOWRITE      32 00000000 FFFFFFA0     J    4330  4370   9469U 11288U 11364  11381  11578  11595
 EOJHOST       8 00000000 FFFFFF9F     X    4342  9046U
 EOJRET        4 00000008 FFFFFF9F     A    4343  9127   9314
 EPAR         15 0000000F FFFFFFFF A   #    1196  4506   4591M  4593M  4593   4603B  4773M  4774B  4849   4934M  4935B
                                                  5047M  5048B  5111   5265M  5266B  5360M  5361B  5473M  5474B  5512M
                                                  5513B  5574M  5575B  5677M  5678B  5736M  5737B  5758M  5759B  5835M
                                                  5836B  5905M  5906B  5909M  5910B  5952M  5953B  6034M  6035B  6109M
                                                  6110B  6198M  6199B  6252   6507M  6508B  6570M  6571B  6662   7071M
                                                  7072B  7095M  7096B  7248M  7249B  7349M  7350B  7394M  7395B  7512
                                                  8113M  8114B  8203   8520   8718   8827M  8828M  8829M  8829   8835B
                                                  8869M  8870B  8924   9028M  9029B  9105M  9106B  9202M  9203B  9273M
                                                  9274B  9311M  9312B  9386   9566M  9567B  9649   9696M  9697B  9777M
                                                  9778B  9960M  9961B 10014M 10015B 10027M 10028B 10084  10236  10341M
                                                 10342B 10416M 10417B 10540M 10541B 10612M 10613B 10686M 10687B 10760M
                                                 10761B 10802M 10803B 10879M 10880B 10965M 10966B 11036M 11037B 11074M
                                                 11075B 11155M 11156B 11231  11326M 11327B 11389M 11390B 11439M 11440
                                                 11540M 11541B 11603M 11604B 11641M 11642B 11697  11852M 11853B 11907M
                                                 11908B 11970M 11971B 12000M 12001B 12049  12129M 12130B 12187M 12188B
 ESPOST15      2 00000E58 00000001     H   11691 11690
 HALT          4 00000AA4 00000001     I    9648  4818   9659U
 HALT15        2 00000A98 00000001     H    9643  9642
 HIBAL         1 00000000 FFFFFFFF     J     700   716    729    742    755    768    781    794    807    820    833
                                                   846    859    872    885    898    911   1012   1024   1036   1048
                                                  1060   1072   1084   1096   1108   1120   1132   1144   1156   1168
                                                  1180   1192   1204
 IOSDOIO       1 00000000 00000007     T   12248 12248
 IOSIDFRE      1 00000000 00000008     T   12249 12249
 IOSIDGET      1 00000000 00000006     T   12247 12247
 JDEVACCT      8 00000010 FFFFFF9D     C    4407  4408   4409   8116
 JDEVCB      144 00000000 FFFFFF9D     J    4428  4636U  4919   4965U  4976M  4976   5152U  6293U  6715U  7553U  8561U
                                                  8759U  8965U  9427U  9690U 10125U 10277U 11272U 11738U 11950
 JDEVCHID      4 00000008 FFFFFF9D     A    4402  5327M  5601M  5601   5964M  9166  10297  10663  10929  11504
 JDEVFLG       1 00000018 FFFFFF9D     R    4412  4416
 JDEVGRP       2 00000013 FFFFFF9D     U    4409  8008M  8046M
 JDEVID        4 00000000 FFFFFF9D     C    4400  4658   4977M 11910M
 JDEVRQ      112 00000020 FFFFFF9D     X    4421  4645U  5000U  5161U  6302U  6724U  8570U  8768U  8974U  9436U 10134U
                                                 10286U 11281U 11747U
 JDEVSHALT
               1 FFFFFFFC FFFFFF9D A   U    4406 12253
1JESSERV  (JESS00) (09:41) (22MAR04) Ordinary Symbol and Literal Cross Reference                                            Page   89
 JDEVSOK       1 00000000 FFFFFF9D A   U    4404  5962   5962
 JDEVSTAT      4 0000000C FFFFFF9D     A    4403  5750   5771M  5961M  5961   9698   9699M
 JDEVSWAIT
               1 00000004 FFFFFF9D A   U    4405 12255
 JDEVUSR       3 00000010 FFFFFF9D     U    4408  8009M  8047M
 JDEVXID       4 00000004 FFFFFF9D     A    4401  5049M 11774  11904
 JESCB        24 00000000 FFFFFFA4     J    4243  5806U  9754U 10389U 10450U 10733U 12120  12142U 12152M 12152
 JESCBID       8 00000000 FFFFFFA4     C    4230 12153M
 JESINIT       4 00000F08 00000001     I   12048 12043  12059U
 JESPOST       4 00000E64 00000001     I   11696  6198   7394   8869  11155  11707U
 JESPUT        4 00000D5E 00000001     I   11230  7248   9566  11241U
 JESPUT15      2 00000D52 00000001     H   11225 11224
 JESSERV       1 00000000 00000001     J    1220  1217   1218   1222   1330   1402   1444   1465   1486   1515   1534
                                                  1578   1603   1626   1649   1688   1711   1734   1757   1780   1802
                                                  1828   1851   1874   1897   1923   1971   1994   2040   2071   2094
                                                  2120   2146   2203   2316   2339   2365   2400   2419   2453   2484
                                                  2529   2549   2569   2596   2615   2647   2682   2745   2764   2794
                                                  2827   2854   2874   2894   2916   2937   2956   2976   3094   3128
                                                  3155   3184   3207   3230   3258   3279   3301   3324   3909   3932
                                                  3954   3979   4002   4028   4082   4188   4219   4244   4271   4291
                                                  4310   4331   4351   4389   4429   4457   4477   6648   7498   8069
                                                 11217
 JESS00        1 00000000 00000001     R    1229  1227
 JESWAIT      12 0000000C FFFFFFA4     N    4233  5860   9856  10470  12193
 JESWBP        4 00000010 FFFFFFA4     A    4235 12195M
 JESWCNT       4 00000014 FFFFFFA4     A    4236  9779  10418
 JESWELEM     32 00000000 FFFFFFA3     J    4270  5668   5689U  5699M  5699   6089   9808U 10551U
 JESWFP        4 0000000C FFFFFFA4     A    4234  9794  12194M
 JESWTLK       4 00000008 FFFFFFA4     A    4231  5832   5902   9774  10011  10413  10537  10757  12189M
 JFJACT      128 00000018 FFFFFF9D         4416  6742   7276M  8985   9212M  9447   9575M 10350M 10975M
 JOBACOK       4 00000782 00000001     I    8055  8010B
 JRQCB       112 00000000 FFFFFF9E     J    4388  4421   4645U  5000U  5161U  6302U  6313M  6313   6724U  8570U  8578M
                                                  8578   8768U  8974U  9436U 10134U 10142M 10142  10286U 11281U 11747U
 JRQINPUT     23 00000048 FFFFFF9E     X    4375  5020M  5168U  6329M  6364U  6731U  8612M  8626U  8775U 10176M 11809U
 JRQIOAREA
               2 00000008 FFFFFF9E     H    4365  4367   4369   4371   5175U  9039U  9469U 10813U 11288U
 JRQMPID       8 00000000 FFFFFF9E     D    4362  5011M  6347M  8588M 10152M 11779
 JRQR01        4 00000064 FFFFFF9E     A    4379  5200M  6774M  7149M  8786M  9314M 11094M 11849
 JRQR14        4 00000068 FFFFFF9E     A    4380  5207M  6765M  8793M 11101M
 JRQR15        4 0000006C FFFFFF9E     A    4381  6132M  7285M  8836M 11108M
 JWTASB        4 00000008 FFFFFFA3     A    4259 10582  10588
 JWTDEV        4 00000018 FFFFFFA3     A    4262  5720M  9831
 JWTECB        8 00000010 FFFFFFA3     D    4261  5944   9952  10653
 JWTFP         4 00000000 FFFFFFA3     A    4256  9969
 JWTPID        8 00000008 FFFFFFA3     D    4258  4259   4260   5709M
 JWTSRID       4 0000001C FFFFFFA3     A    4263  5994  10615M
 KATTAC15      2 00000108 00000001     H    4843  4842
 KCONTR15      2 00000870 00000001     H    8514  8513
 KDETAC15      2 00000B6C 00000001     H   10078 10077
 KWRITE15      2 000003DA 00000001     H    6246  6245
 LBP           4 00000004 FFFFFFB0     A    3271  5890M  9911   9913M 10521M
 LELEM         8 00000000 FFFFFFB0     J    3278  5884M  5890M  5891M  9911   9912   9913M  9914M 10520  10521M 10522M
 LFP           4 00000000 FFFFFFB0     A    3270  5884M  5891M  9912   9914M 10520  10522M
 LHBP          4 00000004 FFFFFFB1     A    3249  5877   5883M
 LHCNT         4 00000008 FFFFFFB1     A    3250  5869   5870M  9872   9897M 10486  10511M
 LHEAD        12 00000000 FFFFFFB1     J    3257  5869   5870M  5877   5883M  9872   9897M 10486  10511M 10518
 LHFP          4 00000000 FFFFFFB1     A    3248 10518
 LKCRE         1 00000000 00000018     T   12282 12282
 LKOB          1 00000000 0000000C     T   12256 12256
1JESSERV  (JESS00) (09:41) (22MAR04) Ordinary Symbol and Literal Cross Reference                                            Page   90
 LKREL         1 00000000 0000000D     T   12257 12257
 MAT         256 00000000 FFFFFFED     J    1401  5782U  9730U 10362U 12077U
 MATJESCB      4 0000002C FFFFFFED     A    1363  5788   9736  10368  12132M
 MATPTR        4 00000200 FFFFFFED A   A    1348  5772   9720  10352  12067
 MAXCONT       1 00000001 00000001 A   U    8903 12273
 MITMK1        1 00000000 FFFFFFD0     R    2237  2241   2246   2251   2256   2261   2266   2271   2276
 MITMK2        1 00000001 FFFFFFD0     R    2282  2286   2291   2296
 M1ADRMSK      1 00FFFFFF 00000001 A   U    1233 12261
 M1JAOK        1 00000000 00000001 A   U    5097  5576   5965
 M1JAVAIL      1 FFFFFFFC 00000001 A   U    5098 12251
 M1JBADBUF
               1 00000005 00000001 A   U    4494  6418   6451   6526
 M1JCACT       1 00000008 00000001 A   U    8705  8991   9453
 M1JCIOER      1 00000004 00000001 A   U    8704  9328   9591
 M1JCOK        1 00000000 00000001 A   U    8703  9333   9333   9596   9596
 M1JCSPEC      1 00000006 00000001 A   U    8505  8663
 M1JES         4 00000022 00000001     I    4505  4500   4516U
 M1JNOCB       1 00000006 00000001 A   U    4493  4948
 M1JWBUFN      1 00000008 FFFFFF9A A   U    6638  6821   6849
 M1JWCARD      1 00000010 FFFFFF9A A   U    6640  6926   6984   8467
 M1JWIOER      1 00000004 FFFFFF9A A   U    6637  7265
 M1JWJOB       1 0000000C FFFFFF9A A   U    6639  8146
 NABORT15      2 00000A16 00000001     H    9380  9379
 ONTERM15      2 00000938 00000001     H    8918  8917
 ONTROL15      2 000008CC 00000001     H    8712  8711
 PAGFIX        1 00000000 00000005     T   12246 12246
 PAGTPROT      1 00000000 00000011     T   12264 12264
 PAGUFIX       1 00000000 00000009     T   12250 12250
 PGCARD        7 00000A90 00000001     C    9627  9373   9478   9478   9536   9553
 PZABORT     128 0000021A FFFFFFEE         1310  4683M  5307M
 PZABR15       4 0000021C FFFFFFEE     A    1319  4684M  5308M
 PZABSM        1 0000021B FFFFFFEE     X    1318  4677M  5301M
 PZCURASB      4 00000208 FFFFFFEE     A    1295  8102  10582
 PZCURPID      8 00000208 FFFFFFEE     D    1294  5011   5447   5709   6347   8588  10152
 PZERO       640 00000000 FFFFFFEE     J    1329  4675U  5009U  5299U  5400U  6345U  8096U  8586U 10150U 10562U
 PZLCPUA       4 00000210 FFFFFFEE     A    1297  4685   5309
 PZTERMFL      1 0000021A FFFFFFEE     R    1306  1310   1315
 RA            2 00000002 FFFFFFFF A   #    1028  4750M  4752M  4752   4753   5383M  5384   5994M  5995M  5995   6366M
                                                  6383M  6426   6832M  6832   6834M  6843M  6843   6864M  6881M  6886
                                                  6935   6993M  7124M  7139   7149   7199M  7216M  7310M  7327M  7557M
                                                  7558   7579M  7606M  7623   7683M  7698   7729M  7739   7768M  7783
                                                  7826M  7831   7901   7907M  7923   8234M  8337M  8370M  8409M  8632M
                                                  8643M  8643   8657   9127M  9204M  9316   9779M  9788M  9788  10418M
                                                 10435M 10435  10527M 10551U 10967M 11424M 11425  11426M 11435  11438
                                                 11461M 11542M 11644  12193M 12194  12195
 RAR          14 0000000E FFFFFFFF A   #    1184  4603M  4774M  4805B  4935M  5048M  5080B  5266M  5361M  5474M  5513M
                                                  5575M  5678M  5737M  5759M  5836M  5906M  5910M  5953M  6035M  6110M
                                                  6199M  6221B  6508M  6571M  6598B  7072M  7096M  7249M  7350M  7395M
                                                  7460B  8114M  8172B  8488B  8689B  8835M  8870M  8892B  9029M  9106M
                                                  9203M  9274M  9312M  9355B  9567M  9618B  9697M  9778M  9961M 10015M
                                                 10028M 10052B 10210B 10342M 10417M 10541M 10613M 10687M 10761M 10803M
                                                 10880M 10966M 11037M 11075M 11156M 11178B 11327M 11390M 11541M 11604M
                                                 11642M 11666B 11853M 11908M 11971M 12001M 12130M 12188M 12222B
 RB            3 00000003 FFFFFFFF A   #    1040  6388M  6399M  6399   6412   6427   6833M  6895M  6904M  6904   6910M
                                                  6920   6934M  6935   6952   6966   6992M  7124   7586M  7586   7605M
                                                  7637   7654M  7654   7835M  7835   7908M  7943   7963   7999   8235M
                                                  8236   8252   8338M  8351M  8351   8372M  8390M  8390   8411M  8430
                                                  9794M  9808U  9969M 11427M 11451  11460M 11468
 RECBAD        4 00000862 00000001     I    8467  8274B  8293B  8312B  8446B
1JESSERV  (JESS00) (09:41) (22MAR04) Ordinary Symbol and Literal Cross Reference                                            Page   91
 RET12         4 000007A8 00000001     I    8146  7573B  7626B  7640B  7657B  7701B  7723B  7742B  7786B  7926B  7946B
                                                  7966B  8002B  8125B
 RJ            4 00000004 FFFFFFFF A   #    1052  5576M  5618M  5738M  5750   5760M  5965M  5980M  6175   6426M  6428
                                                  6431M  6433   6776M  6785M  6785   6801M  6801   6815   6834   6935M
                                                  6978   7831M  8236M  9698M  9711   9798M  9798  10567M 10567  10588M
                                                 11428M 11462M
 RK            5 00000005 FFFFFFFF A   #    1064  6427M  6428M  6430M  6432M  6433M  6445  10569M 10569  10614M 10615
 RM            8 00000008 FFFFFFFF A   #    1100  4981M  4991U  5270M  5273   5282M  5282   5327   5772M  5782U  5788M
                                                  5806U  6314M  6324U  6886M  6887M  6920   6978   7139   8597M  8607U
                                                  9030M  9720M  9730U  9736M  9754U 10161M 10171U 10297M 10298M 10298
                                                 10352M 10362U 10368M 10389U 10450U 10733U 10804M 11328M 12131M 12132
                                                 12142U
 RN            9 00000009 FFFFFFFF A   #    1112  4537M  4626M  4636U  4703   4936M  4965U  4969   5142M  5152U  6283M
                                                  6293U  6705M  6715U  7543M  7553U  8551M  8561U  8749M  8759U  8955M
                                                  8965U  9417M  9427U  9680M  9690U  9831  10115M 10125U 10267M 10277U
                                                 11262M 11272U 11728M 11738U 12067M 12077U
 RS            1 00000001 FFFFFFFF A   #    1016 11435M 11436M 11437M 11438M 11441  11451  11460  11461
 RVR           0 00000000 FFFFFFFF A   #    1004  4580M  4597M  4597   4614M  4614   4783M  4783   4919M  4936   4948M
                                                  5049   5053M  5053   5240M  5257M  5362   5377M  5459M  5475   5549M
                                                  5566M  5668M  5679   5944M  5964   5974M  5974   6089M  6418M  6451M
                                                  6520   6526M  6576M  6576   6821M  6849M  6926M  6984M  7115M  7115
                                                  7158M  7158   7258M  7258   7265M  7285   7558M  7559M  7623   7698
                                                  7739   7783   7901   7923   8134M  8134   8146M  8240M  8240   8467M
                                                  8631M  8631   8663M  8836   8991M  9030   9080M  9097M  9121M  9188M
                                                  9204   9248M  9265M  9316M  9328M  9453M  9519M  9536M  9553M  9585M
                                                  9585   9591M  9865M  9865   9904M  9952M 10030M 10188M 10188  10479M
                                                 10479  10519M 10527  10614  10653M 10804  10854M 10871M 10895M 10951M
                                                 10967  11011M 11028M 11328  11364M 11381M 11405M 11526M 11542  11578M
                                                 11595M 11644M 11791M 11950M 12120M 12131  12189  12200M 12200
 RX            6 00000006 FFFFFFFF A   #    1076  5475M  5589M  5589
 RY            7 00000007 FFFFFFFF A   #    1088  5362M  5679M  5689U
 R0            0 00000000 FFFFFFFF A   #     708  4505   4675U  4848   5009U  5110   5299U  5400U  6251   6345U  6661
                                                  7511   8055   8055   8063   8063   8096U  8202   8519   8586U  8717
                                                  8923   9385   9648  10083  10150U 10235  10562U 11230  11696  12048
 R1            1 00000001 FFFFFFFF A   #     721  4803M  5078M  6219M  6596M  7458M  8170M  8486M  8687M  8890M  9353M
                                                  9616M 10050M 10208M 11176M 11664M 12220M
 R15          15 0000000F FFFFFFFF A   #     903  4505   4684   4685M  4686M  4687M  4688M  4689M  4689   4803M  4848
                                                  5078M  5110   5308   5309M  5310M  5311M  5312M  5313M  5313   6219M
                                                  6251   6596M  6661   7458M  7511   8170M  8202   8486M  8519   8687M
                                                  8717   8890M  8923   9353M  9385   9616M  9648  10050M 10083  10208M
                                                 10235  11176M 11230  11664M 11696  12048  12220M
 SIGNAL        1 00000000 00000013     T   12274 12274
 SPR          13 0000000D FFFFFFFF A   #    1172  4505   4520   4521   4536M  4550U  4735U  4848   4863   4864   4879M
                                                  4899U  5036U  5110   5125   5126   5141M  5220U  5343U  5414U  5491U
                                                  5529U  5648U  5826U  5924U  6013U  6069U  6145U  6251   6266   6267
                                                  6282M  6471U  6661   6676   6677   6697M  7008U  7179U  7301U  7367U
                                                  7511   7526   7527   7542M  8080U  8202   8217   8218   8233M  8519
                                                  8534   8535   8550M  8717   8732   8733   8748M  8806U  8923   8938
                                                  8939   8954M  9011U  9060U  9153U  9228U  9290U  9385   9400   9401
                                                  9416M  9488U  9648   9663   9664   9679M  9768U  9932U 10005U 10083
                                                 10098  10099  10114M 10235  10250  10251  10266M 10316U 10407U 10601U
                                                 10633U 10751U 10785U 10834U 10916U 10991U 11053U 11122U 11230  11245
                                                 11246  11261M 11309U 11344U 11491U 11558U 11620U 11696  11711  11712
                                                 11727M 11761U 11891U 11930U 11989U 12048  12063  12064  12066M 12100U
                                                 12170U
 SVCTABLE      4 000000DC 00000001 C   U    4814  4593
 SYSRDEL       1 00000000 0000000F     T   12259 12259
 SYSRNEW       1 00000000 00000014     T   12276 12276
 TABLE         4 000000F4 00000001     A    4821  4820
1JESSERV  (JESS00) (09:41) (22MAR04) Ordinary Symbol and Literal Cross Reference                                            Page   92
 TCREATE       1 00000000 00000002     T   12242 12242
 TEXIT         1 00000000 00000017     T   12281 12281
 TRCD15        4 00000F7C 00000001     A   12233 12232
 VERIFY        4 000000E0 00000001     A    4815  4814
 VMFREE        1 00000000 00000010     T   12260 12260
 VMGET         1 00000000 00000003     T   12243 12243
 WAR          12 0000000C FFFFFFFF A   #    1160  4520   4521M  4522   4532U  4536   4803   4804   4863   4864M  4865
                                                  4875U  4879   5078   5079   5125   5126M  5127   5137U  5141   6219
                                                  6220   6266   6267M  6268   6278U  6282   6596   6597   6676   6677M
                                                  6678   6688U  6697   7458   7459   7526   7527M  7528   7538U  7542
                                                  8170   8171   8217   8218M  8219   8229U  8233   8486   8487   8534
                                                  8535M  8536   8546U  8550   8687   8688   8732   8733M  8734   8744U
                                                  8748   8890   8891   8938   8939M  8940   8950U  8954   9353   9354
                                                  9400   9401M  9402   9412U  9416   9616   9617   9663   9664M  9665
                                                  9675U  9679  10050  10051  10098  10099M 10100  10110U 10114  10208
                                                 10209  10250  10251M 10252  10262U 10266  11176  11177  11245  11246M
                                                 11247  11257U 11261  11664  11665  11711  11712M 11713  11723U 11727
                                                 12063  12064M 12065  12066  12220  12221
 WRHOST       16 00000000 FFFFFFA0     X    4321  9476U 11295U
 WRITE         4 000004B6 00000001     I    6661  4822   6672U
 WRITE15       2 000004AA 00000001     H    6656  6655
 WRLIST        4 00000010 FFFFFFA0     A    4322  9372  11424  11428
 XITDEL        1 00000000 00000016     T   12280 12280
 XITDO         1 00000000 00000015     T   12279 12279
 XITNEW        1 00000000 00000004     T   12245 12245
 XITTIOCN      1 00000009 00000001 A   U    2219 11791
 =A(CONABORT)
               4 0000102C 00000001     A   12275 10341
 =A(JDEVSHALT)
               4 00000FD4 00000001     A   12253  5738   9699
 =A(JDEVSWAIT)
               4 00000FDC 00000001     A   12255  5771   9711
 =A(MAXCONT)
               4 00001024 00000001     A   12273  8657
 =A(M1ADRMSK)
               4 00000FF4 00000001     A   12261  6383   6881   7216   7327
 =A(M1JAVAIL)
               4 00000FCC 00000001     A   12251  5618   5760   5980   6175
 =A(1)         4 00000FFC 00000001     A   12263  6445   6520
 =A(254)       4 00001004 00000001     A   12265  6815
 =A(258)       4 0000100C 00000001     A   12267  6966
 =A(4)         4 00001020 00000001     A   12272  8430
 =A(4096)      4 00001034 00000001     A   12277 11436
 =A(5)         4 00001008 00000001     A   12266  6952   8252
 =A(6)         4 00001018 00000001     A   12270  7943   7999
 =A(8*1024)
               4 00000FF8 00000001     A   12262  6412
 =A(8)         4 00001010 00000001     A   12268  7637   7963
 =C'/*DEL'
               5 0000105B 00000001     C   12289  8290
 =C'/*EOF'
               5 00001060 00000001     C   12290  8309
 =C'/*PUR'
               5 00001056 00000001     C   12288  8271
 =C'//'        2 00001052 00000001     C   12286  7570   8331
 =C'JDEV'      4 00000FA0 00000001     C   12240  4658
 =C'JOB '      4 00001014 00000001     C   12269  7720   8443
 =CL16'JESWAIT'
              16 00000F90 00000001     C   12239 12184
1JESSERV  (JESS00) (09:41) (22MAR04) Ordinary Symbol and Literal Cross Reference                                            Page   93
 =CL4'JDEV'
               4 00000FB0 00000001     C   12244  4977
 =CL8'JESCB'
               8 00000F88 00000001     C   12238 12153
 =V(ACAINFO)
               4 0000101C 00000001     V   12271  8113
 =V(ASLOCK)
               4 00000FD0 00000001     V   12252  5736   9696
 =V(ASULOCK)
               4 00000FD8 00000001     V   12254  5758   5909  10027
 =V(AWAIT)
               4 00000FE8 00000001     V   12258  5952
 =V(IOSDOIO)
               4 00000FC0 00000001     V   12248  5473   9202  10965  11540
 =V(IOSIDFRE)
               4 00000FC4 00000001     V   12249  5512   9311  11074  11641
 =V(IOSIDGET)
               4 00000FBC 00000001     V   12247  5360   9028  10802  11326
 =V(LKCRE)
               4 00001048 00000001     V   12282 12187
 =V(LKOB)      4 00000FE0 00000001     V   12256  5835   9777  10416
 =V(LKREL)
               4 00000FE4 00000001     V   12257  5905  10014  10540  10760
 =V(PAGFIX)
               4 00000FB8 00000001     V   12246  5265   6570   9105  10879  11389
 =V(PAGTPROT)
               4 00001000 00000001     V   12264  6507
 =V(PAGUFIX)
               4 00000FC8 00000001     V   12250  5574   7349   9273  11036  11603
 =V(SIGNAL)
               4 00001028 00000001     V   12274  9960  10686
 =V(SYSRDEL)
               4 00000FEC 00000001     V   12259  6034
 =V(SYSRNEW)
               4 00001030 00000001     V   12276 10612
 =V(TCREATE)
               4 00000FA8 00000001     V   12242  4773
 =V(TEXIT)
               4 00001044 00000001     V   12281 12000
 =V(VMFREE)
               4 00000FF0 00000001     V   12260  6109  11970
 =V(VMGET)
               4 00000FAC 00000001     V   12243  4934   5677  12129
 =V(XITDEL)
               4 00001040 00000001     V   12280 11907
 =V(XITDO)
               4 0000103C 00000001     V   12279 11852
 =V(XITNEW)
               4 00000FB4 00000001     V   12245  5047
 =X'070C0000'
               4 00000FA4 00000001     X   12241  4744
 =X'7FFFF000'
               4 00001038 00000001     X   12278 11437
 =Y(2)         2 00001054 00000001     Y   12287  8338
 =Y(27*256+0)
               2 0000104C 00000001     Y   12283  4925  11967
 =Y(4)         2 00001050 00000001     Y   12285  6992
 =Y(63*256+0)
               2 0000104E 00000001     Y   12284  5674   6106  12126
1JESSERV  (JESS00) (09:41) (22MAR04) Ordinary Symbol and Literal Cross Reference                                            Page   94

1JESSERV  (JESS00) (09:41) (22MAR04) Macro and Copy Code Source Summary                                                     Page   95
- Con Source                                        Volume    Members                        HLASM R4.0  2004/03/22 09.41
0     PRIMARY INPUT                                           $RL      CSECT    DROP     END      EX       LADD     LLRU
                                                              LREM     LREMALL  LSTCHK   LTORG    POP      PRINT    PUSH
                                                              START    USING
   L2 WYL.GG.ORV.MACLIB                             SYSB02    $LKPARM  ABORT    ACALL    ACCTPARM AWAIT    DISPPARM
                                                              HEADER   IORPARM  IOSPARM  JESPARM  JSALPARM LCALL
                                                              LELEM    LHEAD    LISTPARM LKCRE    LKOB     LKREL
                                                              LOCKPARM LSTMAC   MAT      MODULE   PAGEPARM PEND     PMOV
                                                              PROC     PSET     PZERO    REG      SIGNL    SIGPARM
                                                              SPLEVEL  SYSCTL   TRCEPARM UJESPARM VCALL    VMFREE
                                                              VMGET    VMPARM   XITPARM  XTRC     XTRCDATA
   L3 WYL.GG.SYS.MACLIB                             SYSB05    $BC      $BFLKUP  $BV      $CCLKUP  $CRS     $CSS     $L
                                                              $LA      $LBLAD   $LEXP    $LOR     $REL     $RGLKUP
                                                              $USLKUP  AUSING   BEGIN    CLEAR    CSECT    DATA     DECR
                                                              DEFCC    DIAG     DROP     ELSE     END      EX       EXIT
                                                              FLAG     GEN      HIBAL    IDENT    IF       LABEL    LC
                                                              LOOP     LT       LTORG    POP      PRINT    PUSH
                                                              RECORD   REGS     SET      START    STF      UNTIL
                                                              USING    WHILE    WITH

1         (JESS00) (09:41) (22MAR04) General Purpose Register Cross Reference                                               Page   96
- Register  References (M=modified, B=branch, U=USING, D=DROP, N=index)                      HLASM R4.0  2004/03/22 09.41
0    0(0)      991U   992D  4505   4580M  4585   4597M  4597   4614M  4614   4697D  4783M  4783   4848   4919M  4924
              4936   4948M  5018D  5049   5053M  5053   5110   5240M  5245   5257M  5262   5321D  5362   5377M  5382
              5459M  5464   5475   5549M  5554   5566M  5571   5668M  5673   5679   5727D  5944M  5949   5964   5974M
              5974   6089M  6094   6251   6354D  6418M  6451M  6520   6526M  6576M  6576   6661   6821M  6849M  6926M
              6984M  7115M  7115   7158M  7158   7258M  7258   7265M  7285   7511   7558M  7559M  7623   7698   7739
              7783   7901   7923   8055   8109D  8134M  8134   8146M  8202   8240M  8240   8467M  8519   8595D  8631M
              8631   8663M  8717   8836   8923   8991M  9030   9080M  9085   9097M  9102   9121M  9126   9188M  9193
              9204   9248M  9253   9265M  9270   9316M  9328M  9385   9453M  9519M  9524   9536M  9541   9553M  9558
              9585M  9585   9591M  9648   9865M  9865   9904M  9952M  9957  10030M 10083  10159D 10188M 10188  10235
             10479M 10479  10519M 10527  10614  10653M 10658  10694D 10804  10854M 10859  10871M 10876  10895M 10900
             10951M 10956  10967  11011M 11016  11028M 11033  11230  11328  11364M 11369  11381M 11386  11405M 11410
             11526M 11531  11542  11578M 11583  11595M 11600  11644M 11696  11791M 11796  11950M 11955  12048  12120M
             12125  12131  12189  12200M 12200
     1(1)      987U  4505   4803M  4848   5078M  5110   5860M  5869   5870   5877   5883   5884   6219M  6251   6596M
              6661   7458M  7511   8170M  8202   8486M  8519   8687M  8717   8890M  8923   9353M  9385   9616M  9648
              9880M  9882  10050M 10083  10208M 10235  10494M 10496  11176M 11230  11435M 11436M 11437M 11438M 11441
             11451  11460  11461  11664M 11696  12048  12220M
     2(2)      983U  4505   4747D  4749M  4749   4750M  4751U  4752M  4752N  4753   4803M  4848   5078M  5110   5383M
              5384   5994M  5995M  5995   6031   6219M  6251   6366M  6383M  6426   6489   6557   6596M  6661   6832M
              6832   6834M  6843M  6843   6864M  6881M  6886   6935N  6993M  7037   7124M  7139   7149   7199M  7216M
              7230   7310M  7327M  7341   7458M  7511   7557M  7558   7579M  7606M  7623   7683M  7698   7729M  7739
              7768M  7783   7826M  7831   7901   7907M  7923   8170M  8202   8234M  8337M  8370M  8409M  8486M  8519
              8632M  8643M  8643   8657   8687M  8717   8890M  8923   9127M  9137   9204M  9316   9353M  9385   9616M
              9648   9779M  9788M  9788   9975M 10050M 10083  10208M 10235  10418M 10435M 10435  10527M 10551U 10701U
             10967M 11176M 11230  11424M 11425  11426M 11435  11438  11461M 11542M 11644  11664M 11696  12048  12193M
             12194  12195  12220M
     3(3)      979U  4505   4803M  4848   5078M  5110   6219M  6251   6388M  6399M  6399   6412   6427   6499   6567
              6596M  6661   6833M  6834M  6895M  6904M  6904   6910M  6920   6934M  6935   6952   6966   6992M  7047
              7124N  7458M  7511   7586M  7586   7605M  7637   7654M  7654   7835M  7835   7908M  7943   7963   7999
              8170M  8202   8235M  8236N  8252   8338M  8351M  8351   8372M  8390M  8390   8411M  8430   8486M  8519
              8687M  8717   8890M  8923   9353M  9385   9616M  9648   9794M  9808U  9903   9969M  9986U 10050M 10083
             10208M 10235  11176M 11230  11427M 11451  11460M 11468  11664M 11696  12048  12220M
     4(4)      975U  4505   4803M  4848   5078M  5110   5576M  5618M  5738M  5750   5760M  5965M  5980M  6132   6175
              6219M  6251   6426M  6428   6431M  6433   6596M  6661   6776M  6785M  6785   6801M  6801   6815   6834
              6935M  6978   7458M  7511   7831M  8170M  8202   8236M  8486M  8519   8687M  8717   8890M  8923   9353M
              9385   9616M  9648   9698M  9711   9798M  9798  10050M 10083  10208M 10235  10567M 10567  10588M 10673
             11176M 11230  11428M 11462M 11664M 11696  12048  12220M
     5(5)      971U  4505   4803M  4848   5078M  5110   6219M  6251   6427M  6428M  6430M  6432M  6433M  6445   6596M
              6661   7458M  7511   8170M  8202   8486M  8519   8687M  8717   8890M  8923   9353M  9385   9616M  9648
             10050M 10083  10208M 10235  10569M 10569  10614M 10615  10683  11176M 11230  11664M 11696  12048  12220M
     6(6)      967U  4505   4803M  4848   5078M  5110   5475M  5589M  5589   6219M  6251   6596M  6661   7458M  7511
              8170M  8202   8486M  8519   8687M  8717   8890M  8923   9353M  9385   9616M  9648  10050M 10083  10208M
             10235  11176M 11230  11664M 11696  12048  12220M
     7(7)      963U  4505   4803M  4848   5078M  5110   5362M  5442   5509   5679M  5689U  5883   5884   5890   5891
              6105   6116U  6219M  6251   6596M  6661   7458M  7511   8170M  8202   8486M  8519   8687M  8717   8890M
              8923   9353M  9385   9616M  9648  10050M 10083  10208M 10235  11176M 11230  11664M 11696  12048  12220M
     8(8)      959U  4505   4803M  4848   4981M  4991U  5060U  5078M  5110   5270M  5282M  5282   5327   5432   5772M
              5782U  5788M  5795U  5806U  6046U  6219M  6251   6314M  6324U  6336U  6596M  6661   6886M  6887M  6920
              6978   7139   7458M  7511   8170M  8202   8486M  8519   8597M  8607U  8619U  8687M  8717   8890M  8923
              9030M  9176   9308   9353M  9385   9616M  9648   9720M  9730U  9736M  9743U  9754U 10021U 10050M 10083
             10161M 10171U 10183U 10208M 10235  10297M 10298M 10298  10352M 10362U 10368M 10375U 10389U 10425U 10450U
             10706U 10733U 10768U 10804M 10939  11071  11176M 11230  11328M 11514  11638  11664M 11696  12048  12131M
             12132  12142U 12207U 12220M
     9(9)      955U  4505   4537M  4568   4626M  4636U  4703   4764   4790U  4803M  4848   4936M  4965U  4969   5065U
              5078M  5110   5142M  5152U  5720   6164   6206U  6219M  6251   6283M  6293U  6583U  6596M  6661   6705M
1         (JESS00) (09:41) (22MAR04) General Purpose Register Cross Reference                                               Page   97
              6715U  7027   7198   7386   7445U  7458M  7511   7543M  7553U  8157U  8170M  8202   8486M  8519   8551M
              8561U  8674U  8687M  8717   8749M  8759U  8825   8861   8877U  8890M  8923   8955M  8965U  9340U  9353M
              9385   9417M  9427U  9507   9603U  9616M  9648   9680M  9690U  9831  10037U 10050M 10083  10115M 10125U
             10195U 10208M 10235  10267M 10277U 10335  11141  11163U 11176M 11230  11262M 11272U 11651U 11664M 11696
             11728M 11738U 11966  12009U 12048  12067M 12077U 12212U 12220M
    10(A)      951U  4505   4506M  4516U  4800U  4803M  4848   4849M  4859U  5075U  5078M  5110   5111M  5121U  6216U
              6219M  6251   6252M  6262U  6593U  6596M  6661   6662M  6672U  7455U  7458M  7511   7512M  7522U  8167U
              8170M  8202   8203M  8213U  8483U  8486M  8519   8520M  8530U  8684U  8687M  8717   8718M  8728U  8887U
              8890M  8923   8924M  8934U  9350U  9353M  9385   9386M  9396U  9613U  9616M  9648   9649M  9659U 10047U
             10050M 10083  10084M 10094U 10205U 10208M 10235  10236M 10246U 11173U 11176M 11230  11231M 11241U 11661U
             11664M 11696  11697M 11707U 12019U 12048  12049M 12059U 12217U 12220M
    11(B)      947U  4505   4803M  4848   5078M  5110   6219M  6251   6596M  6661   7458M  7511   8170M  8202   8486M
              8519   8687M  8717   8890M  8923   9353M  9385   9616M  9648  10050M 10083  10208M 10235  11176M 11230
             11664M 11696  12048  12220M
    12(C)      943U  4505   4520   4521M  4522   4532U  4536   4795U  4803M  4803   4804   4848   4863   4864M  4865
              4875U  4879   5070U  5078M  5078   5079   5110   5125   5126M  5127   5137U  5141   6211U  6219M  6219
              6220   6251   6266   6267M  6268   6278U  6282   6588U  6596M  6596   6597   6661   6676   6677M  6678
              6688U  6697   7450U  7458M  7458   7459   7511   7526   7527M  7528   7538U  7542   8162U  8170M  8170
              8171   8202   8217   8218M  8219   8229U  8233   8478U  8486M  8486   8487   8519   8534   8535M  8536
              8546U  8550   8679U  8687M  8687   8688   8717   8732   8733M  8734   8744U  8748   8882U  8890M  8890
              8891   8923   8938   8939M  8940   8950U  8954   9345U  9353M  9353   9354   9385   9400   9401M  9402
              9412U  9416   9608U  9616M  9616   9617   9648   9663   9664M  9665   9675U  9679  10042U 10050M 10050
             10051  10083  10098  10099M 10100  10110U 10114  10200U 10208M 10208  10209  10235  10250  10251M 10252
             10262U 10266  11168U 11176M 11176  11177  11230  11245  11246M 11247  11257U 11261  11656U 11664M 11664
             11665  11696  11711  11712M 11713  11723U 11727  12014U 12048  12063  12064M 12065  12066  12220M 12220
             12221
    13(D)      939U  4505   4505   4520   4521   4536M  4550U  4732U  4735U  4803M  4811U  4848   4848   4863   4864
              4879M  4899U  5033U  5036U  5078M  5086U  5110   5110   5125   5126   5141M  5220U  5340U  5343U  5411U
              5414U  5488U  5491U  5526U  5529U  5645U  5648U  5823U  5826U  5921U  5924U  6010U  6013U  6066U  6069U
              6142U  6145U  6219M  6227U  6251   6251   6266   6267   6282M  6471U  6596M  6604U  6661   6661   6676
              6677   6697M  7008U  7176U  7179U  7298U  7301U  7364U  7367U  7408U  7411U  7458M  7466U  7511   7511
              7526   7527   7542M  8080U  8170M  8178U  8202   8202   8217   8218   8233M  8486M  8519   8519   8534
              8535   8550M  8687M  8717   8717   8732   8733   8748M  8806U  8890M  8898U  8923   8923   8938   8939
              8954M  9011U  9057U  9060U  9150U  9153U  9225U  9228U  9287U  9290U  9353M  9361U  9385   9385   9400
              9401   9416M  9488U  9616M  9624U  9648   9648   9663   9664   9679M  9768U  9929U  9932U 10002U 10005U
             10050M 10058U 10083  10083  10098  10099  10114M 10208M 10235  10235  10250  10251  10266M 10316U 10404U
             10407U 10598U 10601U 10630U 10633U 10748U 10751U 10782U 10785U 10831U 10834U 10913U 10916U 10988U 10991U
             11050U 11053U 11119U 11122U 11176M 11184U 11230  11230  11245  11246  11261M 11309U 11341U 11344U 11488U
             11491U 11555U 11558U 11617U 11620U 11664M 11672U 11696  11696  11711  11712  11727M 11761U 11888U 11891U
             11927U 11930U 11986U 11989U 12027U 12048  12048  12063  12064  12066M 12100U 12167U 12170U 12220M 12228U
    14(E)      935U  4505   4603M  4774M  4803M  4805B  4848   4935M  5048M  5078M  5080B  5110   5266M  5361M  5474M
              5513M  5575M  5678M  5737M  5759M  5836M  5868M  5869M  5870   5877M  5890   5891   5906M  5910M  5953M
              6035M  6110M  6199M  6219M  6221B  6251   6508M  6571M  6596M  6598B  6661   7072M  7096M  7249M  7350M
              7395M  7458M  7460B  7511   8114M  8170M  8172B  8202   8486M  8488B  8519   8687M  8689B  8717   8835M
              8870M  8890M  8892B  8923   9029M  9106M  9203M  9274M  9312M  9353M  9355B  9385   9567M  9616M  9618B
              9648   9697M  9778M  9856M  9872   9897   9911M  9913   9914   9961M 10015M 10028M 10050M 10052B 10083
             10208M 10210B 10235  10342M 10417M 10470M 10486  10511  10518  10521  10522  10541M 10613M 10687M 10761M
             10803M 10880M 10966M 11037M 11075M 11156M 11176M 11178B 11230  11327M 11390M 11541M 11604M 11642M 11664M
             11666B 11696  11853M 11908M 11971M 12001M 12048  12130M 12188M 12220M 12222B
    15(F)      931U  4505   4506   4588D  4590M  4590   4591M  4592U  4593M  4593N  4603B  4684   4685M  4686M  4687M
              4688M  4688   4689M  4689   4773M  4774B  4803M  4848   4849   4934M  4935B  5047M  5048B  5078M  5110
              5111   5265M  5266B  5308   5309M  5310M  5311M  5312M  5312   5313M  5313   5360M  5361B  5473M  5474B
              5512M  5513B  5574M  5575B  5677M  5678B  5736M  5737B  5758M  5759B  5835M  5836B  5905M  5906B  5909M
              5910B  5952M  5953B  6034M  6035B  6109M  6110B  6198M  6199B  6219M  6251   6252   6507M  6508B  6570M
              6571B  6596M  6661   6662   7071M  7072B  7095M  7096B  7248M  7249B  7349M  7350B  7394M  7395B  7458M
              7511   7512   8113M  8114B  8170M  8202   8203   8486M  8519   8520   8687M  8717   8718   8827M  8828M
              8829M  8829N  8835B  8869M  8870B  8890M  8923   8924   9028M  9029B  9105M  9106B  9202M  9203B  9273M
              9274B  9311M  9312B  9353M  9385   9386   9566M  9567B  9616M  9648   9649   9696M  9697B  9777M  9778B
              9872M  9882M  9897   9903M  9904   9911   9912M  9912   9913   9914   9960M  9961B 10014M 10015B 10027M
1         (JESS00) (09:41) (22MAR04) General Purpose Register Cross Reference                                               Page   98
             10028B 10050M 10083  10084  10208M 10235  10236  10341M 10342B 10416M 10417B 10486M 10496M 10511  10518M
             10519  10520M 10520  10521  10522  10540M 10541B 10612M 10613B 10686M 10687B 10760M 10761B 10802M 10803B
             10879M 10880B 10965M 10966B 11036M 11037B 11074M 11075B 11155M 11156B 11176M 11230  11231  11326M 11327B
             11389M 11390B 11439M 11440  11540M 11541B 11603M 11604B 11641M 11642B 11664M 11696  11697  11852M 11853B
             11907M 11908B 11970M 11971B 12000M 12001B 12048  12049  12129M 12130B 12187M 12188B 12220M

1JESSERV  (JESS00) (09:41) (22MAR04) Diagnostic Cross Reference and Assembler Summary                                       Page   99
-                                                                                            HLASM R4.0  2004/03/22 09.41
0     No Statements Flagged in this Assembly
 HIGH LEVEL ASSEMBLER, 5696-234, RELEASE 4.0, PTF UQ57391
0SYSTEM: OS/390 02.10.00            JOBNAME: PJG#JES     STEPNAME: ASM        PROCSTEP: (NOPROC)
0Datasets Allocated for this Assembly
  Con DDname   Dataset Name                                 Volume  Member
   P1 SYSIN    SYS04082.T094120.RA000.PJG#JES.INPUT.H01     SCR100
   L1 SYSLIB   SYS3.DUMMYMAC                                SYSB02
   L2          WYL.GG.ORV.MACLIB                            SYSB02
   L3          WYL.GG.SYS.MACLIB                            SYSB05
      SYSLIN   WYL.GG.PJG.OBJ                               SYSB05  JESSERV
      SYSPRINT SYS04082.T094120.RA000.PJG#JES.PRINT.H01     SCR101
      SYSTERM  GG$PJG.PJG#JES.JOB05944.D0000103.?

    7812K allocated to Buffer Pool,         1653K would be required for this to be an In-Storage Assembly
    1308 Primary Input Records Read         5800 Library Records Read                  0 Work File Reads
       0 ASMAOPT Records Read               7113 Primary Print Records Written         0 Work File Writes
     102 Punch Records Written                 0 ADATA Records Written
0Assembly Start Time: 09.41.22 Stop Time: 09.41.30 Processor Time: 00.00.02.3710
 Return Code 000
