1         (VMNT21) (09:48) (22MAR04) General Purpose Register Cross Reference                                               Page  247
             14735M 14735N 14736  14736M 14737M 14738  14773M 14774M 14774B 14824M 14825M 14825B 14848M 14849M 14849B
             14919M 14920M 14920B 14954M 14955M 14955B 14986M 14987M 14987B 15008M 15009M 15009B 15014M 15015M 15015B
             15029M 15031B 15043M 15044M 15044B 15060M 15061M 15061B 15064M 15065M 15065B 15088M 15089M 15089B 15096M
             15097M 15097B 15100M 15101M 15101B 15115M 15116M 15116B 15125  15151B 15208B 15222B 15228M 15229M 15229B
             15245M 15246M 15246B 15249M 15250M 15250B 15264M 15265M 15265B 15289M 15290M 15290B 15304M 15305M 15305B
             15390B 15399B 15535  15682M 15685B 15791  15831M 15832M 15832B 15889M 15892B 15909  15978M 15979M 15979B
             16010M 16011M 16011B 16030M 16031M 16031B 16085M 16086M 16086B 16113M 16114M 16114B 16121M 16122M 16122B
             16137M 16138M 16138B 16154M 16155M 16155B 16158M 16159M 16159B 16178M 16179M 16179B 16195M 16196M 16196B
             16199M 16200M 16200B 16214M 16215M 16215B 16236M 16239B 16256  16331M 16332M 16332B 16370M 16371M 16371B
             16403M 16404M 16404B 16440M 16441M 16441B 16484M 16485M 16485B 16540M 16541M 16541B 16568M 16569M 16569B
             16576M 16577M 16577B 16609M 16610M 16610B 16677M 16678M 16678B 16686M 16687M 16687B 16703M 16704M 16704B
             16707M 16708M 16708B 16739M 16740M 16740B 16743M 16744M 16744B 16767M 16768M 16768B 16785M 16788B 16805
             16860M 16861M 16861B 16878M 16879M 16879B 16924M 16925M 16925B 16952M 16953M 16953B 16960M 16961M 16961B
             16978M 16979M 16979B 16996M 16999B 17016  17065M 17066M 17066B 17082M 17083M 17083B 17128M 17129M 17129B
             17156M 17157M 17157B 17164M 17165M 17165B 17182M 17183M 17183B 17202M 17203M 17203B 17264M 17265M 17265B
             17288M 17289M 17289B 17296M 17297M 17297B 17314M 17315M 17315B 17336M 17339B 17356  17433M 17434M 17434B
             17466M 17467M 17467B 17512M 17513M 17513B 17545M 17546M 17546B 17566M 17567M 17567B 17570M 17571M 17571B
             17585M 17586M 17586B 17604M 17607B 17624  17756M 17759B 17776  17835M 17836M 17836B 17903M 17904M 17904B
             17927M 17928M 17928B 17959M 17960M 17960B 17981M 17982M 17982B 18003M 18006B 18023  18149M 18152B 18168
             18201M 18202M 18202B 18233M 18236B 18254  18285M 18286M 18286B 18306M 18331M 18332M 18332B 18345M 18346M
             18346B 18356M 18357M 18357B 18374M 18377B 18409  18466M 18467  18478M 18479M 18479N 18480M 18480N 18481
             18481M 18482M 18483  18496M 18497  18508M 18509M 18509N 18510M 18510N 18511  18511M 18512M 18513  18550M
             18553B 18598  18663M 18664  18675M 18676M 18676N 18677M 18677N 18678  18678M 18679M 18680  18716M 18719B
             18782  18840M 18841  18842M 18843  18964M 18967B 19060  19113M 19114M 19114B 19133M 19139M 19140M 19140B
             19146M 19174M 19177B 19189  19223M 19224M 19224B 19250M 19273M 19274M 19274B 19299M 19302B 19314  19393M
             19396B 19407  19437M 19438M 19438B 19455M 19458B 19470  19548M 19549M 19549B 19583M 19586B 19597  19627M
             19628M 19628B 19645M 19648B 19660  19700  19745M 19746M 19746B 19767M 19768M 19768B 19838M 19859M 19862B
             19874  19914  19936M 19937M 19937B 19953M 19954M 19954B 20006M 20027M 20030B 20042  20092M 20095B 20106
             20156M 20159B 20171  20271M 20274B 20286  20366M 20369B 20381  20425M 20426M 20426B 20447M 20450B 20462
             20540M 20543B 20555  20614M 20617B 20634  20772M 20775B 20792  20837M 20865M 20868B 20929  20959M 20993M
             20994M 20994B 21010M 21011M 21011B 21034M 21035M 21035B 21080M 21081M 21081B 21086M 21123M 21133M 21155M
             21156M 21156B 21172M 21173M 21173B 21193M 21194M 21194B 21247M 21248M 21248B 21271M 21272M 21272B 21325M
             21326M 21326B 21349M 21350M 21350B 21353M 21354M 21354B 21372M 21390M 21391M 21391B 21433M 21434M 21434B
             21450M 21451M 21451B 21471M 21472M 21472B 21488M 21489M 21489B 21520M 21521M 21521B 21537M 21538M 21538B
             21569M 21570M 21570B 21586M 21587M 21587B 21610M 21611M 21611B 21618M 21619M 21619B 21654M 21655M 21655B
             21684M 21685M 21685B 21708M 21709M 21709B 21751M 21754B 21771  21814M 21815M 21815B 21857M 21858M 21858B
             21877M 21878M 21878B 21894M 21895M 21895B 21915M 21916M 21916B 21939M 21940M 21940B 21988M 21989M 21989B
             22005M 22006M 22006B 22026M 22027M 22027B 22050M 22051M 22051B 22076M 22077M 22077B 22081M 22103M 22104M
             22104B 22120M 22121M 22121B 22144M 22145M 22145B 22204M 22205M 22205B 22221M 22222M 22222B 22242M 22243M
             22243B 22266M 22267M 22267B 22292M 22293M 22293B 22309M 22310M 22310B 22338M 22339M 22339B 22362M 22363M
             22363B 22390M 22391M 22391B 22410M 22411M 22411B 22427M 22428M 22428B 22448M 22449M 22449B 22472M 22473M
             22473B 22501M 22504B 22521  22552M 22574M 22575M 22575B 22591M 22592M 22592B 22596M 22619M 22620M 22620B
             22641M 22644B 22696  22744M 22754M 22755  22757M 22757N 22758  22759  22799M 22800M 22800B 22816M 22817M
             22817B 22837M 22838M 22838B 22854M 22855M 22855B 22858M 22859M 22859B 22882M 22883M 22883B 22894M 22895M
             22895B 22898M 22899M 22899B 22915M 22916M 22916B 22932M 22933M 22933B 22947M 22948M 22948B 22958M 22959M
             22959B 22980M 22981  22983M 22983N 22984  23002M 23003M 23003B 23019M 23020M 23020B 23036M 23037M 23037B
             23040M 23041M 23041B 23064M 23065M 23065B 23080M 23081M 23081B 23125M 23128B 23146  23216M 23230M 23231M
             23231B 23251M 23252M 23252B 23272M 23273M 23273B 23289M 23290M 23290B 23293M 23294M 23294B 23317M 23318M
             23318B 23329M 23330M 23330B 23333M 23334M 23334B 23350M 23351M 23351B 23365M 23366M 23366B 23400M 23403B
             23423  23484M 23485M 23485B 23516M 23517M 23517B 23559M 23560M 23560B 23612M 23613M 23613B 23648M 23649M
             23649B 23684M 23685M 23685B 23720M 23721M 23721B 23756M 23757M 23757B 23793M 23794M 23794B 23812M 23813M
             23813B 23843M 23844M 23844B 23867M 23870B 24208  24340M 24347M 24369M 24370M 24370  24375M 24375  24378M
             24379  24401M 24402M 24402  24407M 24407  24410M 24411  24450M 24453B 24523  24628M 24629M 24629B 24645M
             24646M 24646B 24660M 24661M 24661B 24666M 24667M 24667B 24701M 24702M 24702B 24718M 24719M 24719B 24737M
             24738M 24738B 24784M 24785M 24785B 24808M 24809M 24809B 24826M 24827M 24827B 24854M 24855M 24855B 24876M
             24877M 24877  24882M 24882  24885M 24886  24903M 24904M 24904B 24920M 24921M 24921B 24937M 24938M 24938B
             24958M 24959M 24959B 24975M 24976M 24976B 24999M 25000M 25000B 25019M 25020M 25020B 25021M 25025M 25026M
             25027M 25028M 25046M 25047M 25047B 25069M 25070M 25070B 25086M 25087M 25087B 25110M 25111M 25111B 25143M
             25144M 25144B 25172M 25173M 25173B 25196M 25197M 25197B 25237M 25238M 25238B 25261M 25262M 25262B 25272M
1         (VMNT21) (09:48) (22MAR04) General Purpose Register Cross Reference                                               Page  248
             25273M 25273B 25313M 25314M 25314B 25337M 25338M 25338B 25354M 25355M 25355B 25381M 25382M 25382B 25398M
             25399M 25399B 25425M 25426M 25426B 25449M 25450M 25450B 25471M 25472M 25472  25477M 25477  25480M 25481
             25497M 25498M 25498B 25514M 25515M 25515B 25531M 25532M 25532B 25552M 25553M 25553B 25569M 25570M 25570B
             25593M 25594M 25594B 25626M 25627M 25627B 25655M 25656M 25656B 25679M 25680M 25680B 25716M 25717M 25717B
             25740M 25741M 25741B 25765M 25766M 25766B 25769M 25770M 25770B 25802M 25803M 25803B 25831M 25834B 25854
             25966M 25967M 25967B 25983M 25984M 25984B 25998M 25999M 25999B 26017M 26018M 26018B 26041M 26042M 26042B
             26046M 26047M 26047B 26081M 26082M 26082B 26098M 26099M 26099B 26117M 26118M 26118B 26135M 26136M 26136B
             26153M 26154M 26154B 26171M 26172M 26172B 26237M 26238M 26238B 26264M 26265M 26265B 26281M 26282M 26282B
             26305M 26306M 26306B 26322M 26323M 26323B 26346M 26347M 26347B 26363M 26364M 26364B 26387M 26388M 26388B
             26415M 26416M 26416B 26444M 26445M 26445B 26468M 26469M 26469B 26513M 26514M 26514B 26532M 26533M 26533B
             26559M 26560M 26560B 26577M 26578M 26578B 26595M 26596M 26596B 26623M 26624M 26624B 26640M 26641M 26641B
             26664M 26665M 26665B 26722M 26723M 26723B 26749M 26750M 26750B 26766M 26767M 26767B 26790M 26791M 26791B
             26824M 26825M 26825B 26841M 26842M 26842B 26870M 26871M 26871B 26887M 26888M 26888B 26917M 26918M 26918B
             26934M 26935M 26935B 26958M 26959M 26959B 27004M 27005M 27005B 27028M 27029M 27029B 27045M 27046M 27046B
             27069M 27070M 27070B 27086M 27087M 27087B 27110M 27111M 27111B 27127M 27128M 27128B 27151M 27152M 27152B
             27168M 27169M 27169B 27185M 27186M 27186B 27209M 27210M 27210B 27241M 27242M 27242B 27273M 27274M 27274B
             27305M 27306M 27306B 27335M 27336M 27336  27341M 27341  27344M 27345  27384M 27385M 27385B 27402M 27403M
             27403B 27419M 27420M 27420B 27440M 27441M 27441B 27457M 27458M 27458B 27481M 27482M 27482B 27501M 27502M
             27502B 27503M 27507M 27508M 27509M 27510M 27528M 27529M 27529B 27551M 27552M 27552B 27568M 27569M 27569B
             27592M 27593M 27593B 27625M 27626M 27626B 27654M 27655M 27655B 27678M 27679M 27679B 27719M 27720M 27720B
             27743M 27744M 27744B 27759M 27760M 27760B 27763M 27764M 27764B 27796M 27797M 27797B 27828M 27831B 27934
             28011M 28012M 28012B 28046M 28047M 28047B 28063M 28064M 28064B 28081M 28082M 28082B 28120M 28121M 28121B
             28137M 28138M 28138B 28164M 28165M 28165B 28181M 28182M 28182B 28205M 28206M 28206B 28232M 28233M 28233
             28238M 28238  28241M 28242  28261M 28262M 28262B 28278M 28279M 28279B 28295M 28296M 28296B 28316M 28317M
             28317B 28333M 28334M 28334B 28357M 28358M 28358B 28390M 28391M 28391B 28419M 28420M 28420B 28443M 28444M
             28444B 28484M 28485M 28485B 28508M 28509M 28509B 28565M 28621M 28622M 28622B 28641M 28660M 28661M 28661
             28666M 28666  28669M 28670  28692B 28719M 28722B 28743  28790M 28791M 28791B 28859M 28860M 28860B 28867M
             28868M 28868B 28887M 28888M 28888B 29035M 29038B 29055  29159M 29219M 29222B 29240  29323M 29326B 29432
             29478M 29530M 29580M 29630M 29698M 29701B 29721  29795M 29796M 29796B 29822M 29823M 29823B 29839M 29840M
             29840B 29863M 29864M 29864B 29880M 29881M 29881B 29904M 29905M 29905B 29921M 29922M 29922B 29938M 29939M
             29939B 29962M 29963M 29963B 29979M 29980M 29980B 30003M 30004M 30004B 30020M 30021M 30021B 30044M 30045M
             30045B 30064M 30065M 30065B 30081M 30082M 30082B 30114M 30115M 30115B 30160M 30161M 30161B 30193M 30194M
             30194B 30221M 30222M 30222B 30250M 30253B 30271  30364M 30365M 30365B 30391M 30392M 30392B 30423M 30424M
             30424B 30450M 30451M 30451B 30476M 30477M 30477B 30496M 30497M 30497B 30513M 30514M 30514B 30540M 30541M
             30541B 30557M 30558M 30558B 30581M 30582M 30582B 30598M 30599M 30599B 30603M 30604M 30604B 30639M 30640M
             30640B 30671M 30672M 30672B 30692M 30693M 30693B 30720M 30721M 30721B 30776M 30777M 30777B 30807M 30810B
             30854  30946M 31001M 31004B 31048  31178M 31179M 31179B 31207M 31210B 31323  31355M 31480M 31481M 31481B
             31497M 31498M 31498B 31515M 31516M 31516B 31539M 31540M 31540B 31559M 31560M 31560B 31576M 31577M 31577B
             31605M 31606M 31606B 31629M 31630M 31630B 31649M 31650M 31650B 31666M 31667M 31667B 31679M 31680M 31680B
             31708M 31709M 31709B 31732M 31733M 31733B 31738M 31739M 31739B 31787M 31788M 31788B 31802M 31803M 31803B
             31851M 31852M 31852B 31942M 31943M 31943B 31959M 31960M 31960B 31984M 31985M 31985B 31999M 32000M 32000B
             32067M 32068M 32068B 32084M 32085M 32085B 32109M 32110M 32110B 32126M 32127M 32127B 32150M 32151M 32151B
             32172M 32173M 32173B 32188M 32189M 32189B 32277M 32278M 32278B 32301M 32302M 32302B 32357M 32358M 32358B
             32381M 32382M 32382B 32504M 32505M 32505B 32521M 32522M 32522B 32545M 32546M 32546B 32560M 32561M 32561B
             32577M 32578M 32578B 32594M 32595M 32595B 32609M 32610M 32610B 32635M 32636M 32636B 32703M 32704M 32704B
             32719M 32720M 32720B 32727M 32769M 32770M 32770B 32783M 32784M 32784B 32791M 32799M 32800M 32800B 32807M
             32808M 32808B 32814M 32815M 32815B 32832M 32835B 32852  32935M 32936M 32936B 32959M 32960M 32960B 32991M
             32994B 33006  33047M 33048M 33048  33053M 33053  33056M 33057  33082M 33085B 33104  33243M 33246B 33344
             33387M 33388M 33388B 33404M 33405M 33405B 33433M 33434M 33434B 33450M 33451M 33451B 33465M 33466M 33466B
             33485M 33488B 33500  33550M 33553B 33565  33629M 33632B 33644  33707M 33710B 33722  33785M 33788B 33800
             33894M 33897B 33909  34003M 34006B 34018  34074M 34077B 34089  34145M 34148B 34160  34210M 34213B 34225
             34276M 34279B 34291  34342M 34345B 34357  34408M 34411B 34423  34473M 34476B 34488  34530M 34531M 34531B
             34596M 34599B 34611  34653M 34654M 34654B 34713M 34716B 34728  34770M 34771M 34771B 34813M 34816B 34828
             34878M 34881B 34893  34943M 34946B 34958  35009M 35012B 35024  35074M 35077B 35089  35145M 35148B 35160
             35210M 35213B 35225  35282M 35285B 35297  35354M 35357B 35369  35427M 35428M 35428B 35469M 35472B 35484
             35542M 35543M 35543B 35584M 35587B 35599  35649M 35652B 35743  35990M 35991M 35991B 36007M 36008M 36008B
             36022M 36023M 36023B 36055M 36058B 36075  36252M 36253M 36253B 36269M 36270M 36270B 36284M 36285M 36285B
             36317M 36320B 36345  36498M 36501B 36525  36624M 36625M 36625B 36709M 36712B 36862  36928M 36929M 36929B
             36988M 36989M 36989B 37012M 37013M 37013B 37035M 37083M 37093M 37120M 37157M 37160B 37177  37226M 37271M
1         (VMNT21) (09:48) (22MAR04) General Purpose Register Cross Reference                                               Page  249
             37310M 37313B 37332  37383M 37386B 37408  37446M 37450M 37452  37453M 37474M 37477B 37489  37528M 37532M
             37534  37535M 37556M 37559B 37654  37703M 37773M 37843M 37846B 37903B 37928  37939M 37940M 37940B 37958M
             37959M 37959B 37974M 37975B 38025  38174M 38199B 38255B 38309B 38399  38442M 38443M 38443B 38466M 38467M
             38467B 38545M 38546M 38546B 38569M 38570M 38570B 38586M 38587M 38587B 38610M 38611M 38611B 38628M 38631B
             38640  38704M 38709B 38780M 38849M 38851B 38909M 38911B 39002  39046M 39047M 39047B 39083M 39084M 39084B
             39114M 39115M 39115B 39138M 39139M 39139B 39162M 39163M 39163B 39180M 39181M 39181B 39212M 39213M 39213B
             39217M 39239M 39240M 39240B 39263M 39264M 39264B 39297M 39298M 39298B 39302M 39324M 39325M 39325B 39348M
             39349M 39349B 39366M 39386M 39433M 39434M 39434B 39439M 39440M 39440B 39462M 39463M 39463B 39479M 39480M
             39480B 39503M 39504M 39504B 39523M 39524M 39524B 39529M 39530M 39530B 39552M 39553M 39553B 39569M 39570M
             39570B 39593M 39594M 39594B 39613M 39614M 39614B 39615M 39619M 39620M 39621M 39622M 39629M 39630M 39630B
             39658M 39659M 39659B 39675M 39676M 39676B 39699M 39700M 39700B 39718M 39719M 39719B 39754M 39755M 39755B
             39784M 39790B
    15(F)      965U 11289M 11289  13769  13779U 13791U 13874M 13891M 13915M 13969M 13986M 14013M 14030M 14051M 14075M
             14098M 14122M 14361M 14374M 14381  14802M 14802  14821M 14845M 14951M 14983M 15003M 15028M 15057M 15085M
             15110M 15125  15242M 15259M 15286M 15299M 15576  15652M 15652  15684M 15684  15867M 15891M 15891  15975M
             16007M 16082M 16110M 16151M 16192M 16209M 16238M 16238  16328M 16367M 16400M 16437M 16537M 16565M 16606M
             16700M 16736M 16762M 16787M 16787  16875M 16921M 16949M 16998M 16998  17062M 17079M 17125M 17153M 17261M
             17285M 17338M 17338  17463M 17509M 17542M 17563M 17580M 17587  17606M 17606  17758M 17758  17832M 17900M
             17924M 17956M 17961M 17966  17978M 18005M 18005  18052M 18062U 18068M 18075U 18086U 18101M 18102M 18102
             18134U 18151M 18151  18235M 18235  18304M 18304  18305M 18306B 18328M 18376M 18376  18528M 18528  18552M
             18552  18663  18718M 18718  18839M 18841  18843  18844  18845  18846  18847  18848  18849  18850  18947M
             18966M 18966  19089  19152M 19176M 19176  19218  19259M 19277M 19301M 19301  19395M 19395  19457M 19457
             19544  19550  19553M 19585M 19585  19647M 19647  19700  19742M 19764M 19838M 19861M 19861  19914  19933M
             19950M 20006M 20029M 20029  20094M 20094  20158M 20158  20273M 20273  20368M 20368  20449M 20449  20542M
             20542  20616M 20616  20673M 20684M 20684  20774M 20774  20867M 20867  20990M 21007M 21031M 21077M 21101M
             21101  21152M 21169M 21190M 21244M 21268M 21322M 21346M 21408M 21408  21414  21430M 21447M 21468M 21485M
             21493D 21495M 21495  21496M 21497U 21502  21517M 21534M 21542D 21544M 21544  21545M 21546U 21551  21566M
             21583M 21607M 21651M 21681M 21705M 21753M 21753  21828M 21828  21834  21854M 21874M 21891M 21912M 21936M
             21941M 21963M 21963  21969  21985M 22002M 22023M 22047M 22052M 22073M 22100M 22117M 22141M 22179M 22179
             22185  22201M 22218M 22239M 22263M 22268M 22289M 22306M 22335M 22359M 22387M 22407M 22424M 22445M 22469M
             22477M 22477  22503M 22503  22571M 22588M 22616M 22624M 22624  22643M 22643  22771M 22771  22796M 22813M
             22834M 22851M 22879M 22891M 22912M 22929M 22942M 22949  22999M 23016M 23033M 23061M 23077M 23127M 23127
             23177M 23177  23269M 23286M 23314M 23326M 23347M 23360M 23383M 23383  23402M 23402  23451  23481M 23513M
             23556M 23609M 23645M 23681M 23717M 23753M 23790M 23809M 23840M 23869M 23869  24288M 24319M 24338M 24338
             24339M 24340B 24345M 24345  24346M 24347B 24367M 24367  24368M 24369  24372  24377  24378  24381  24385
             24399M 24399  24400M 24401  24404  24409  24410  24413  24417  24423M 24423  24452M 24452  24578M 24578
             24642M 24655M 24662  24698M 24715M 24734M 24781M 24805M 24823M 24851M 24874M 24874  24875M 24876  24879
             24884  24885  24888  24892  24917M 24934M 24955M 24972M 24996M 25016M 25021M 25023M 25027M 25028M 25066M
             25083M 25107M 25169M 25193M 25234M 25258M 25310M 25334M 25351M 25378M 25395M 25422M 25446M 25469M 25469
             25470M 25471  25474  25479  25480  25483  25487  25511M 25528M 25549M 25566M 25590M 25652M 25676M 25713M
             25737M 25833M 25833  25909M 25909  25980M 25993M 26000  26014M 26038M 26078M 26095M 26114M 26132M 26150M
             26168M 26234M 26261M 26278M 26302M 26319M 26343M 26360M 26384M 26412M 26441M 26465M 26510M 26529M 26556M
             26574M 26592M 26620M 26637M 26661M 26690M 26690  26719M 26746M 26763M 26787M 26821M 26838M 26867M 26884M
             26914M 26931M 26955M 27001M 27025M 27042M 27066M 27083M 27107M 27124M 27148M 27165M 27182M 27206M 27238M
             27270M 27302M 27333M 27333  27334M 27335  27338  27343  27344  27347  27351  27373M 27373  27399M 27416M
             27437M 27454M 27478M 27498M 27503M 27505M 27509M 27510M 27548M 27565M 27589M 27651M 27675M 27716M 27740M
             27830M 27830  27989M 27989  28043M 28060M 28078M 28117M 28134M 28161M 28178M 28202M 28230M 28230  28231M
             28232  28235  28240  28241  28244  28248  28275M 28292M 28313M 28330M 28354M 28416M 28440M 28481M 28505M
             28563M 28563  28564M 28565B 28639M 28639  28640M 28641B 28658M 28658  28659M 28660  28663  28668  28669
             28672  28676  28721M 28721  28833  28861  28869  28900  28994M 28994  29013M 29037M 29037  29097  29157M
             29157  29158M 29159B 29221M 29221  29325M 29325  29506M 29506  29556M 29556  29606M 29606  29657M 29657
             29700M 29700  29792M 29819M 29836M 29860M 29877M 29901M 29918M 29935M 29959M 29976M 30000M 30017M 30041M
             30061M 30078M 30111M 30157M 30190M 30218M 30252M 30252  30343M 30343  30361M 30388M 30420M 30447M 30473M
             30493M 30510M 30537M 30554M 30578M 30595M 30636M 30668M 30689M 30717M 30746U 30750M 30751  30766U 30809M
             30809  30882  30944M 30944  30945M 30946B 31003M 31003  31086  31175M 31180M 31209M 31209  31381M 31381
             31477M 31494M 31512M 31536M 31556M 31573M 31602M 31626M 31646M 31663M 31676M 31705M 31729M 31764M 31764
             31784M 31828M 31828  31848M 31939M 31956M 31981M 31996M 32064M 32081M 32106M 32123M 32147M 32169M 32226M
             32226  32274M 32298M 32324M 32335M 32335  32354M 32378M 32483M 32483  32501M 32518M 32542M 32574M 32591M
             32604M 32611  32632M 32680M 32680  32700M 32725M 32725  32726M 32727B 32766M 32789M 32789  32790M 32791B
1         (VMNT21) (09:48) (22MAR04) General Purpose Register Cross Reference                                               Page  250
             32834M 32834  32932M 32956M 32993M 32993  33045M 33045  33046M 33047  33050  33055  33056  33059  33063
             33084M 33084  33141U 33228U 33245M 33245  33384M 33401M 33430M 33447M 33460M 33487M 33487  33552M 33552
             33631M 33631  33709M 33709  33787M 33787  33896M 33896  34005M 34005  34076M 34076  34147M 34147  34212M
             34212  34278M 34278  34344M 34344  34410M 34410  34475M 34475  34598M 34598  34715M 34715  34815M 34815
             34880M 34880  34945M 34945  35011M 35011  35076M 35076  35147M 35147  35212M 35212  35284M 35284  35356M
             35356  35471M 35471  35586M 35586  35651M 35651  36004M 36017M 36057M 36057  36266M 36279M 36319M 36319
             36374  36476M 36500M 36500  36554  36682M 36711M 36711  36905M 36905  36925M 36985M 37009M 37159M 37159
             37312M 37312  37366M 37366  37385M 37385  37444M 37445M 37445  37446B 37451M 37451  37452M 37453B 37457M
             37457  37476M 37476  37526M 37527M 37527  37528B 37533M 37533  37534M 37535B 37539M 37539  37558M 37558
             37803M 37803  37845M 37845  37880U 37902M 37902  37914U 37928  37974M 38025  38026  38126M 38164M 38186
             38270U 38303U 38308M 38308  38439M 38463M 38492M 38493  38542M 38566M 38583M 38607M 38630M 38630  38640
             38641  38677D 38679M 38679  38680M 38681U 38682N 38704M 38708M 38708  38847M 38847  38861M 38898M 38898
             39002  39003  39043M 39061M 39061  39080M 39111M 39135M 39159M 39177M 39209M 39236M 39260M 39266M 39294M
             39321M 39345M 39354M 39354  39360  39364M 39366B 39383M 39386B 39430M 39436M 39459M 39476M 39500M 39520M
             39526M 39549M 39566M 39590M 39610M 39615M 39617M 39621M 39622M 39655M 39672M 39696M 39715M 39732M 39732
             39751M 39789M 39789

1VMNT     (VMNT21) (09:48) (22MAR04) Diagnostic Cross Reference and Assembler Summary                                       Page  251
-                                                                                            HLASM R4.0  2004/03/22 09.48
0     No Statements Flagged in this Assembly
 HIGH LEVEL ASSEMBLER, 5696-234, RELEASE 4.0, PTF UQ57391
0SYSTEM: OS/390 02.10.00            JOBNAME: PJG#VMNT    STEPNAME: ASM        PROCSTEP: (NOPROC)
0Datasets Allocated for this Assembly
  Con DDname   Dataset Name                                 Volume  Member
   P1 SYSIN    SYS04082.T094818.RA000.PJG#VMNT.INPUT.H01    SCR100
   L1 SYSLIB   SYS3.DUMMYMAC                                SYSB02
   L2          WYL.GG.SYS.MACLIB                            SYSB05
   L3          SYS3.IS.MACLIB                               SYSB05
   L4          SYS3.MACLIB                                  SYSB02
   L5          WYL.GG.ORV.BC.MACLIB                         SYSB02
   L6          SYS1.MACLIB                                  MVSBR9
   L7          SYS1.MODGEN                                  MVSBR9
      SYSLIN   WYL.GG.PJG.OBJ                               SYSB05  VMNT
      SYSPRINT SYS04082.T094818.RA000.PJG#VMNT.PRINT.H01    SCR100
      SYSTERM  GG$PJG.PJG#VMNT.JOB05992.D0000103.?

    7812K allocated to Buffer Pool,         8845K would be required for this to be an In-Storage Assembly
    4211 Primary Input Records Read        40894 Library Records Read                219 Work File Reads
       0 ASMAOPT Records Read              17865 Primary Print Records Written       262 Work File Writes
     636 Punch Records Written                 0 ADATA Records Written
0Assembly Start Time: 09.48.21 Stop Time: 09.48.38 Processor Time: 00.00.07.6869
 Return Code 000
