1                        J E S 2  J O B  L O G  --  S Y S T E M  S Y S B  --  N O D E  R L G
0
 09.44.32 JOB05963 ---- MONDAY,    22 MAR 2004 ----
 09.44.32 JOB05963  ICH70001I GG$PJG   LAST ACCESS AT 09:44:24 ON MONDAY, MARCH 22, 2004
 09.44.32 JOB05963  $HASP373 PJG#TASK STARTED - INIT 2    - CLASS E - SYS SYSB
 09.44.32 JOB05963  ***  HCMD      STEP $$QUIET
 09.44.32 JOB05963  PURGE * Q=OUTPUT MULTIPLE
 09.44.32 JOB05963  JOB PJG#TASK NOT IN OUTPUT QUEUE
 09.44.34 JOB05963  PJG#TASK.$$QUIET .         RC=0008 TapeIO=0000 DiskIO=0000 CPU=  .01s Elapsed=72.97s
 09.44.34 JOB05963  PJG#TASK.$CND    .         RC=Zero TapeIO=0000 DiskIO=0002 CPU=  .01s Elapsed=74.22s
 09.44.34 JOB05963  PJG#TASK.$UNP    .         RC=Zero TapeIO=0000 DiskIO=0020 CPU=  .05s Elapsed=74.62s
 09.44.46 JOB05963  PJG#TASK.ASM     .         RC=Zero TapeIO=0000 DiskIO=0735 CPU= 3.69s Elapsed=75.01s
 09.44.49 JOB05963  PJG#TASK.$EDIT   .         RC=Zero TapeIO=0000 DiskIO=0190 CPU=  .82s Elapsed=86.52s
 09.44.49 JOB05963  PJG#TASK Ended.  Name=Module: TASKSERV               Total CPU= 4.58s Elapsed=72.97s
 09.44.49 JOB05963
 09.44.49 JOB05963  Execution charges   Priority=Standard   Block=Day
 09.44.49 JOB05963
 09.44.49 JOB05963  CPU Usage          83.62          $51.84   Standard Processing Unit Equivalent
 09.44.49 JOB05963                                   =======
 09.44.49 JOB05963                                    $51.84   Total Job execution charge
 09.44.49 JOB05963
 09.44.49 JOB05963  See back separator page for print charges
 09.44.49 JOB05963
 09.44.49 JOB05963  $HASP395 PJG#TASK ENDED  ASM=0
1        1 //PJG#TASK JOB PJG$GG,'Module: TASKSERV',TIME=1,MSGCLASS=C              JOB05963
           /*JOBPARM HOLD=OUTPUT,LINES=50,CHARS=TN15,NOTIFY=YES
         2 //       EXEC PURGEOLD
         3 XXPURGEOLD PROC
           XX*
           XX* This proc is maintained by Jim Stosick
           XX*
         4 XX$$QUIET  EXEC PGM=HCMDX,PARM='PURGE * Q=OUTPUT MULTIPLE',
           XX         ACCT=(PURGEOLD,SYS3)
         5 //$CND   EXEC PGM=BILBO,REGION=512K,PARM='RECS=100'
         6 //STEPLIB  DD DSN=WYL.GG.ORV.LINKLIB,DISP=SHR
         7 //SYSPRINT DD SYSOUT=$
         8 //SYSUT1   DD DSN=WYL.GG.PJG.OBJ,DISP=OLD
         9 //SYSUT2   DD DSN=WYL.GG.PJG.OBJ,DISP=OLD
        10 //SYSIN    DD DUMMY
        11 //$UNP   EXEC PGM=WUNPRESS,PARM='NUM'
        12 //SYSPRINT DD SYSOUT=$
        13 //SYSUT1   DD DSN=WYL.GG.ORV.SOURCE(TASKSERV),DISP=SHR
        14 //SYSUT2   DD DSN=&&INPUT,DISP=(,PASS),UNIT=SYSDA,
           //            SPACE=(TRK,(25,25),RLSE),DCB=CARD
        15 //ASM    EXEC PGM=ASMA90,REGION=8M,COND=(0,NE,$UNP),
           //            PARM=('SYSPARM(TASKSERV),TERM,LANG(EN),OBJ',
           //          'LC(32500),XREF(SHORT),NODECK,NORLD,NODX,NOUS')
           //*STEPLIB  DD DSN=SYS1.SASMMOD1,DISP=SHR
        16 //SYSLIB   DD DSN=SYS3.DUMMYMAC,DISP=SHR,DCB=BLKSIZE=27920
        17 //         DD DSN=WYL.GG.ORV.MACLIB,DISP=SHR
        18 //         DD DSN=WYL.GG.SYS.MACLIB,DISP=SHR
        19 //         DD DSN=SYS1.MACLIB,DISP=SHR
        20 //         DD DSN=SYS1.MODGEN,DISP=SHR
        21 //SYSUT1   DD DSN=&&SYSUT1,UNIT=VIO,DISP=(,DELETE),
           //            SPACE=(4088,(500,250),,CONTIG,ROUND)
        22 //SYSTERM  DD SYSOUT=$
        23 //SYSPRINT DD DSN=&&PRINT,UNIT=SYSDA,DISP=(,PASS),
           //            SPACE=(6650,(250,250),RLSE),
           //            DCB=(BLKSIZE=6650,LRECL=133,RECFM=FB)
        24 //SYSLIN   DD DSN=WYL.GG.PJG.OBJ(TASKSERV),DISP=OLD
        25 //SYSUDUMP DD SYSOUT=A
        26 //SYSIN    DD DSN=&&INPUT,DISP=(OLD,DELETE)
        27 //$EDIT  EXEC PGM=ASMEDIT,REGION=1M,
           //            COND=EVEN,PARM='STMT,DATA'
        28 //STEPLIB  DD DSN=WYL.GG.SYS.LINKLIB,DISP=SHR
        29 //ASMOUT   DD DSN=&&PRINT,DISP=(OLD,DELETE)
        30 //SYSPRINT DD SYSOUT=A
        31 //SYSUDUMP DD SYSOUT=A
1 STMT NO. MESSAGE
         2 IEFC001I PROCEDURE PURGEOLD WAS EXPANDED USING SYSTEM LIBRARY SYS3.BETAPROC
        14 IGD01010I STORCLAS= TEMP STORGROUP =
        14 IGD01010I STORGRP=VIO ASSIGNED.
        21 IGD01010I STORCLAS= TEMP STORGROUP =
        21 IGD01010I STORGRP=VIO ASSIGNED.
        23 IGD01010I STORCLAS= TEMP STORGROUP =
        23 IGD01010I STORGRP=VIO ASSIGNED.
 ICH70001I GG$PJG   LAST ACCESS AT 09:44:24 ON MONDAY, MARCH 22, 2004
 IEF142I PJG#TASK $$QUIET - STEP WAS EXECUTED - COND CODE 0008
 *********************************************************************************
 *   PJG#TASK/$$QUIET /                    Return Code      0008                 *
 *   Region used      260K (16K user + 244K system)                              *
 *   Extended region  9352K (4K user + 9348K system)                             *
 *                                                                               *
 *   Paging              In      Out                                             *
 *   Private <-> Aux      0        0       CPU time (TCB)   00:00:00.01          *
 *   Private <-> Exp      0        0       CPU time (SRB)   00:00:00.00          *
 *   VIO                  0        0       Elapsed time    920:43:19.99          *
 *   Common               0      ---                                             *
 *                                                                               *
 *                                                                               *
 *   CPU Usage          0.18         $0.11  Standard Processing Unit Equivalent  *
 *                                   $0.11  Total Step execution charge          *
 *                                                                               *
 *    I/O count  DDname   Type Addr           I/O count  DDname   Type Addr      *
 *                         *** No I/O for this step ***                          *
 *********************************************************************************
 IEF373I STEP/$$QUIET /START 2004082.0944
 IEF374I STEP/$$QUIET /STOP  2004082.0944 CPU    0MIN 00.01SEC SRB    0MIN 00.00SEC VIRT    16K SYS   244K EXT       4K SYS    9348K
 IEF236I ALLOC. FOR PJG#TASK $CND
 IEF237I 0401 ALLOCATED TO STEPLIB
 IEF237I JES2 ALLOCATED TO SYSPRINT
 IEF237I 04DC ALLOCATED TO SYSUT1
 IEF237I 04DC ALLOCATED TO SYSUT2
 IEF237I DMY  ALLOCATED TO SYSIN
 IEF142I PJG#TASK $CND - STEP WAS EXECUTED - COND CODE 0000
 IEF285I   WYL.GG.ORV.LINKLIB                           KEPT
 IEF285I   VOL SER NOS= SYSB01.
 IEF285I   GG$PJG.PJG#TASK.JOB05963.D0000101.?          SYSOUT
 IEF285I   WYL.GG.PJG.OBJ                               KEPT
 IEF285I   VOL SER NOS= SYSB05.
 IEF285I   WYL.GG.PJG.OBJ                               KEPT
 IEF285I   VOL SER NOS= SYSB05.
 *********************************************************************************
 *   PJG#TASK/$CND    /                    Return Code      Zero                 *
 *   Region used      280K (16K user + 264K system)                              *
 *   Extended region  9392K (4K user + 9388K system)                             *
 *                                                                               *
 *   Paging              In      Out                                             *
 *   Private <-> Aux      0        0       CPU time (TCB)   00:00:00.01          *
 *   Private <-> Exp      0        0       CPU time (SRB)   00:00:00.00          *
 *   VIO                  0        0       Elapsed time    920:43:18.74          *
 *   Common               0      ---                                             *
 *                                                                               *
 *                                                                               *
 *   CPU Usage          0.18         $0.11  Standard Processing Unit Equivalent  *
 *                                   $0.11  Total Step execution charge          *
 *                                                                               *
 *    I/O count  DDname   Type Addr           I/O count  DDname   Type Addr      *
 *            2  STEPLIB  Disk 0401                   0  SYSPRINT      ----      *
 *            0  SYSUT1   Disk 04DC                   0  SYSUT2   Disk 04DC      *
 *            0  SYSIN         ----                                              *
 *********************************************************************************
 IEF373I STEP/$CND    /START 2004082.0944
 IEF374I STEP/$CND    /STOP  2004082.0944 CPU    0MIN 00.01SEC SRB    0MIN 00.00SEC VIRT    16K SYS   264K EXT       4K SYS    9388K
 IEF236I ALLOC. FOR PJG#TASK $UNP
 IEF237I JES2 ALLOCATED TO SYSPRINT
 IEF237I 0402 ALLOCATED TO SYSUT1
 IGD101I SMS ALLOCATED TO DDNAME (SYSUT2  )
         DSN (SYS04082.T094432.RA000.PJG#TASK.INPUT.H01   )
         STORCLAS (TEMP) MGMTCLAS (        ) DATACLAS (        )
         VOL SER NOS= SCR101
 IEF142I PJG#TASK $UNP - STEP WAS EXECUTED - COND CODE 0000
 IEF285I   GG$PJG.PJG#TASK.JOB05963.D0000102.?          SYSOUT
 IEF285I   WYL.GG.ORV.SOURCE                            KEPT
 IEF285I   VOL SER NOS= SYSB02.
 IGD106I SYS04082.T094432.RA000.PJG#TASK.INPUT.H01    PASSED,    DDNAME=SYSUT2
 *********************************************************************************
 *   PJG#TASK/$UNP    /                    Return Code      Zero                 *
 *   Region used      388K (108K user + 280K system)                             *
 *   Extended region  9468K (4K user + 9464K system)                             *
 *                                                                               *
 *   Paging              In      Out                                             *
 *   Private <-> Aux      0        0       CPU time (TCB)   00:00:00.05          *
 *   Private <-> Exp      0        0       CPU time (SRB)   00:00:00.00          *
 *   VIO                  0        0       Elapsed time    920:43:18.34          *
 *   Common               0      ---                                             *
 *                                                                               *
 *                                                                               *
 *   CPU Usage          0.93         $0.57  Standard Processing Unit Equivalent  *
 *                                   $0.57  Total Step execution charge          *
 *                                                                               *
 *    I/O count  DDname   Type Addr           I/O count  DDname   Type Addr      *
 *            0  SYSPRINT      ----                   3  SYSUT1   Disk 0402      *
 *           17  SYSUT2   Disk 04E3                                              *
 *********************************************************************************
 IEF373I STEP/$UNP    /START 2004082.0944
 IEF374I STEP/$UNP    /STOP  2004082.0944 CPU    0MIN 00.05SEC SRB    0MIN 00.00SEC VIRT   108K SYS   280K EXT       4K SYS    9464K
 IEF236I ALLOC. FOR PJG#TASK ASM
 IEF237I 0402 ALLOCATED TO SYSLIB
 IEF237I 0402 ALLOCATED TO
 IEF237I 04DC ALLOCATED TO
 IEF237I 04A0 ALLOCATED TO
 IEF237I 04A0 ALLOCATED TO
 IGD101I SMS ALLOCATED TO DDNAME (SYSUT1  )
         DSN (SYS04082.T094432.RA000.PJG#TASK.SYSUT1.H01  )
         STORCLAS (TEMP) MGMTCLAS (        ) DATACLAS (        )
         VOL SER NOS= VIO
 IEF237I JES2 ALLOCATED TO SYSTERM
 IGD101I SMS ALLOCATED TO DDNAME (SYSPRINT)
         DSN (SYS04082.T094432.RA000.PJG#TASK.PRINT.H01   )
         STORCLAS (TEMP) MGMTCLAS (        ) DATACLAS (        )
         VOL SER NOS= SCR100
 IEF237I 04DC ALLOCATED TO SYSLIN
 IEF237I JES2 ALLOCATED TO SYSUDUMP
 IGD103I SMS ALLOCATED TO DDNAME SYSIN
 IEF142I PJG#TASK ASM - STEP WAS EXECUTED - COND CODE 0000
 IEF285I   SYS3.DUMMYMAC                                KEPT
 IEF285I   VOL SER NOS= SYSB02.
 IEF285I   WYL.GG.ORV.MACLIB                            KEPT
 IEF285I   VOL SER NOS= SYSB02.
 IEF285I   WYL.GG.SYS.MACLIB                            KEPT
 IEF285I   VOL SER NOS= SYSB05.
 IEF285I   SYS1.MACLIB                                  KEPT
 IEF285I   VOL SER NOS= MVSBR9.
 IEF285I   SYS1.MODGEN                                  KEPT
 IEF285I   VOL SER NOS= MVSBR9.
 IGD105I SYS04082.T094432.RA000.PJG#TASK.SYSUT1.H01   DELETED,   DDNAME=SYSUT1
 IEF285I   GG$PJG.PJG#TASK.JOB05963.D0000103.?          SYSOUT
 IGD106I SYS04082.T094432.RA000.PJG#TASK.PRINT.H01    PASSED,    DDNAME=SYSPRINT
 IEF285I   WYL.GG.PJG.OBJ                               KEPT
 IEF285I   VOL SER NOS= SYSB05.
 IEF285I   GG$PJG.PJG#TASK.JOB05963.D0000104.?          SYSOUT
 IGD105I SYS04082.T094432.RA000.PJG#TASK.INPUT.H01    DELETED,   DDNAME=SYSIN
 *********************************************************************************
 *   PJG#TASK/ASM     /                    Return Code      Zero                 *
 *   Region used      8484K (8192K user + 292K system)                           *
 *   Extended region  9956K (412K user + 9544K system)                           *
 *                                                                               *
 *   Paging              In      Out                                             *
 *   Private <-> Aux      0        0       CPU time (TCB)   00:00:03.60          *
 *   Private <-> Exp      0        0       CPU time (SRB)   00:00:00.09          *
 *   VIO                  0        0       Elapsed time    920:43:17.95          *
 *   Common               0      ---                                             *
 *                                                                               *
 *                                                                               *
 *   CPU Usage         67.50        $41.85  Standard Processing Unit Equivalent  *
 *                                  $41.85  Total Step execution charge          *
 *                                                                               *
 *    I/O count  DDname   Type Addr           I/O count  DDname   Type Addr      *
 *          111  SYSLIB   Disk 0402                   0  SYSLIB   Disk 0402      *
 *          132  SYSLIB   Disk 04DC                 283  SYSLIB   Disk 04A0      *
 *            0  SYSLIB   Disk 04A0                   0  SYSUT1   VIO  ----      *
 *            0  SYSTERM       ----                 187  SYSPRINT Disk 038B      *
 *            4  SYSLIN   Disk 04DC                   0  SYSUDUMP      ----      *
 *           18  SYSIN    Disk 04E3                                              *
 *********************************************************************************
 IEF373I STEP/ASM     /START 2004082.0944
 IEF374I STEP/ASM     /STOP  2004082.0944 CPU    0MIN 03.60SEC SRB    0MIN 00.09SEC VIRT  8192K SYS   292K EXT     412K SYS    9544K
 IEF236I ALLOC. FOR PJG#TASK $EDIT
 IEF237I 0402 ALLOCATED TO STEPLIB
 IGD103I SMS ALLOCATED TO DDNAME ASMOUT
 IEF237I JES2 ALLOCATED TO SYSPRINT
 IEF237I JES2 ALLOCATED TO SYSUDUMP
 IEF142I PJG#TASK $EDIT - STEP WAS EXECUTED - COND CODE 0000
 IEF285I   WYL.GG.SYS.LINKLIB                           KEPT
 IEF285I   VOL SER NOS= SYSB02.
 IGD105I SYS04082.T094432.RA000.PJG#TASK.PRINT.H01    DELETED,   DDNAME=ASMOUT
 IEF285I   GG$PJG.PJG#TASK.JOB05963.D0000105.?          SYSOUT
 IEF285I   GG$PJG.PJG#TASK.JOB05963.D0000106.?          SYSOUT
 *********************************************************************************
 *   PJG#TASK/$EDIT   /                    Return Code      Zero                 *
 *   Region used      388K (116K user + 272K system)                             *
 *   Extended region  9476K (4K user + 9472K system)                             *
 *                                                                               *
 *   Paging              In      Out                                             *
 *   Private <-> Aux      0        0       CPU time (TCB)   00:00:00.79          *
 *   Private <-> Exp      0        0       CPU time (SRB)   00:00:00.03          *
 *   VIO                  0        0       Elapsed time    920:43:06.44          *
 *   Common               0      ---                                             *
 *                                                                               *
 *                                                                               *
 *   CPU Usage         14.81         $9.18  Standard Processing Unit Equivalent  *
 *                                   $9.18  Total Step execution charge          *
 *                                                                               *
 *    I/O count  DDname   Type Addr           I/O count  DDname   Type Addr      *
 *            2  STEPLIB  Disk 0402                 188  ASMOUT   Disk 038B      *
 *            0  SYSPRINT      ----                   0  SYSUDUMP      ----      *
 *********************************************************************************
 IEF373I STEP/$EDIT   /START 2004082.0944
 IEF374I STEP/$EDIT   /STOP  2004082.0944 CPU    0MIN 00.79SEC SRB    0MIN 00.03SEC VIRT   116K SYS   272K EXT       4K SYS    9472K
 *********************************************************************************
 *                                                                               *
 *                      S t a n f o r d   U n i v e r s i t y                    *
 *                                                                               *
 *                              *** Job Summary ***                              *
 *                                                                               *
 *   System Id      SYSB                   Input time     09:38:28  Mar 22, 2004 *
 *                                                                               *
 *   System Release SP6.1.0                Start time     09:44:32  Mar 22, 2004 *
 *                                                                               *
 *   Job name       PJG#TASK               Stop  time     00:00:00  Mar 22, 2004 *
 *                                                                               *
 *   Account        PJG$GG                 Elapsed time  920:43:19.99            *
 *                                                                               *
 *   User Name      Module: TASKSERV       CPU time       00:00:04.46            *
 *                                                                               *
 *   Job class      E                      SRB Time       00:00:00.12            *
 *                                                                               *
 *********************************************************************************
 IEF375I  JOB/PJG#TASK/START 2004082.0944
 IEF376I  JOB/PJG#TASK/STOP  2004082.0944 CPU    0MIN 04.46SEC SRB    0MIN 00.12SEC
1Data set successfully converted from EDIT to FB format
1Assembler Done TASKSERV No Statements Flagged
1         High Level Assembler Option Summary                   (PTF UQ57391)                                               Page    1
-                                                                                            HLASM R4.0  2004/03/22 09.44
0  No Overriding ASMAOPT Parameters
   Overriding Parameters-  SYSPARM(TASKSERV),TERM,LANG(EN),OBJ,LC(32500),XREF(SHORT),NODECK,NORLD,NODX,NOUS
   No Process Statements


   Options for this Assembly
0  NOADATA
     ALIGN
   NOASA
     BATCH
     CODEPAGE(047C)
   NOCOMPAT
   NODBCS
 3 NODECK
 3 NODXREF
     ESD
   NOEXIT
     FLAG(0,ALIGN,CONT,NOIMPLEN,NOPAGE0,PUSH,RECORD,NOSUBSTR,USING0)
   NOFOLD
   NOGOFF
   NOINFO
 3   LANGUAGE(EN)
   NOLIBMAC
 3   LINECOUNT(32500)
     LIST(121)
     MXREF(SOURCE)
 3   OBJECT
     OPTABLE(UNI,NOLIST)
   NOPCONTROL
   NOPESTOP
   NOPROFILE
   NORA2
   NORENT
 3 NORLD
     RXREF
     SIZE(MAX)
 3   SYSPARM(TASKSERV)
 3   TERM(WIDE)
   NOTEST
     THREAD
   NOTRANSLATE
 3 NOUSING
 3   XREF(SHORT)

   No Overriding DD Names

1TASKSERV External Symbol Dictionary                                                                                        Page    2
-Symbol   Type   Id     Address  Length     LD ID  Flags Alias-of                            HLASM R4.0  2004/03/22 09.44
0TASKSERV  SD 00000001 00000000 000017B0             06
 TASK00    LD          00000000           00000001
 TASKDUMP  LD          00000022           00000001
 SEG       ER 00000002
 SEGHEX    ER 00000003
 SEGCORE   ER 00000004
 SEGSTK    ER 00000005
 TASKINIT  LD          00000982           00000001
 CPTSTART  LD          00000AEC           00000001
 CPTREAD   LD          00000B40           00000001
 CPTCAN    LD          00000C4C           00000001
 POOLGET   LD          00000CA0           00000001
 POOLFREE  LD          00000D56           00000001
 POOLDEF   LD          00000DD0           00000001
 PAGEFIX   LD          00000E08           00000001
 PAGEFREE  LD          00000E80           00000001
 TRCE      LD          00000F20           00000001
 TRCEINIT  LD          00000FCE           00000001
 TRCEPRNT  LD          0000102C           00000001
 FPOST     LD          0000107C           00000001
 FWAIT     LD          00001150           00000001
 ESTAEON   LD          000011F8           00000001
 ESTAEOFF  LD          00001236           00000001
 SPAWN     LD          00001268           00000001
 CANTASK   LD          00001434           00000001
 POOLGET   ER 00000006
 LOCKINIT  ER 00000007
 MSGINIT   ER 00000008
 MEMINIT   ER 00000009
 LOCKCRE   ER 0000000A
 MEMGET    ER 0000000B
 LOCKOB    ER 0000000C
 LOCKREL   ER 0000000D
 MEMFREE   ER 0000000E
 STOPBAT   ER 0000000F
 DODUMP    ER 00000010

1TASKSERV ORVYL'S Task Services                                                                                             Page    3
0Loc    Object Code    Addr1 Addr2  Stmt Lv Lineno    Source Statement                    (Asmedit 3.3)  HLASM R4.0  2004/03/22 09.44
+___    ______ ____    _____ _____  ____ __ ______    ______ _________
0                                      2       2.              COPY  HEADER
                                       3             =*********************************************************************
                                       4             =*                                                                   *
                                       5             =*                                                                   *
                                       6             =*                          M P - O R V Y L                          *
                                       7             =*                                                                   *
                                       8             =*       ORVYL - Release 5.0 - Class I - Stanford Proprietary        *
                                       9             =*                                                                   *
                                      10             =*                                                                   *
                                      11             =*********************************************************************
-
-                                     13             =         SPLEVEL SET=2
                                      16             =         HIBAL ASSOC=YES
-
                                     998             =*
                                     999             =* REGISTER CONVENTIONS (USE ONLY THE SYMBOLS)
                                    1000             =*
                                    1001             =*                     CLASS  USAGE
                                    1002             =*                     -----  -----------------------------
                                    1003             =RVR      REG   0        1    RETURN VALUE REGISTER
                                    1015             =RS       REG   1        *    SCRATCH
                                    1027             =RA       REG   2        *    SCRATCH
                                    1039             =RB       REG   3        *    SCRATCH
                                    1051             =RJ       REG   4        *    SCRATCH
                                    1063             =RK       REG   5        *    SCRATCH
                                    1075             =RX       REG   6        *    SCRATCH
                                    1087             =RY       REG   7        *    SCRATCH
                                    1099             =RM       REG   8        *    SCRATCH
                                    1111             =RN       REG   9        *    SCRATCH (In Guest)
                                    1123             =RTCBR    REG   9        -    POINTER TO THE RTCB (In Host)
                                    1135             =BR       REG   10       -    FIRST BASE REGISTER
                                    1147             =BRR      REG   11       -    SECOND BASE REGISTER
                                    1159             =WAR      REG   12       -    WORK AREA POINTER
                                    1171             =SPR      REG   13       -    STACK TOP POINTER
                                    1183             =RAR      REG   14       1    RETURN ADDRESS REGISTER
                                    1195             =EPAR     REG   15       1    ENTRY POINT ADDRESS
                                    1207             =*
                                    1208             =*      CLASS   MEANING
                                    1209             =*      -----   --------------------------------------------------
                                    1210             =*        *     Register may be freely used for scratch
                                    1211             =*        -     Register may not be used
                                    1212             =*        1     Available but may change on subroutine calls
                                    1213             =*
1TASKSERV ORVYL'S Task Services                                                                                             Page    4
0D-Loc  Object Code    Addr1 Addr2  Stmt Lv Lineno    Source Statement           (Hibal 5, Asmedit 3.3)  HLASM R4.0  2004/03/22 09.44
+_____  ______ ____    _____ _____  ____ __ ______    ______ _________
0000000                00000 017B0  1215       4.     TASKSERV MODULE
                                    1225             +*
                                    1226    02-IDENT +         ENTRY TASK00
                                    1227             +
 000000 14E3C1E2D2F0F06B            1228    02-IDENT +TASK00   DC    AL1(20),C'TASK00,22MAR04,09:44'
                                    1229             +*
1TASKSERV (TASK00) (09:44) (22MAR04) ORVYL'S Task Services                                                                  Page    5
0Loc    Object Code    Addr1 Addr2  Stmt Lv Lineno    Source Statement           (Hibal 5, Asmedit 3.3)  HLASM R4.0  2004/03/22 09.44
+___    ______ ____    _____ _____  ____ __ ______    ______ _________
0                                   1233       7.              IHAPSA
                                    1234             +*%PSAL1 : ;
                                    1235             +*
                                    1236             +*/* START OF SPECIFICATIONS ******************************************/
                                    1237             +*/*01* PROPRIETARY_STATEMENT *****************************************/
                                    1238             +*/*                                                                  */
                                    1239             +*/*  LICENSED MATERIALS - PROPERTY OF IBM                            */
                                    1240             +*/*  THIS MACRO IS "RESTRICTED MATERIALS OF IBM"                     */
                                    1241             +*/*  5647-A01 (C) COPYRIGHT IBM CORP. 1977, 2000                     */
                                    1242             +*/*                                                                  */
                                    1243             +*/*01* STATUS = HBB7703                                              */
                                    1244             +*/*                                                                  */
                                    1245             +*/**** END_OF_PROPRIETARY_STATEMENT **********************************/
                                    1246             +*/*                                                                  */
                                    1247             +*/*01* DESCRIPTIVE NAME:  Prefixed Save Area                         */
                                    1248             +*/*02*  ACRONYM:  PSA                                                */
                                    1249             +*/*                                                                  */
                                    1250             +*/*01* EXTERNAL CLASSIFICATION:                                      */
                                    1251             +*/*02*         NOTPI:BASE                                            */
                                    1252             +*/*02*         PI:  FIELDS                                           */
                                    1253             +*/*                  FLCARCH                                         */
                                    1254             +*/*                  FLCCVT                                          */
                                    1255             +*/*                  FLCFACL                                         */
                                    1256             +*/*                  PSAAOLD                                         */
                                    1257             +*/*                  PSATOLD                                         */
                                    1258             +*/*01* END OF EXTERNAL CLASSIFICATION:                               */
                                    1259             +*/*                                                                  */
                                    1260             +*/*01* MACRO NAME:  IHAPSA                                           */
                                    1261             +*/*                                                                  */
                                    1262             +*/*01* DSECT NAME:                                                   */
                                    1263             +*/*     PSA                                                          */
                                    1264             +*/*                                                                  */
                                    1265             +*/*01* COMPONENT:  Supervisor Control (SC1C5)                        */
                                    1266             +*/*                                                                  */
                                    1267             +*/*01* EYE-CATCHER:  None                                            */
                                    1268             +*/*                                                                  */
                                    1269             +*/*01* STORAGE ATTRIBUTES:                                           */
                                    1270             +*/*02*  SUBPOOL:  239                                                */
                                    1271             +*/*02*  KEY:  0                                                      */
                                    1272             +*/*02*  RESIDENCY:  Below 16 MB line                                 */
                                    1273             +*/*                                                                  */
                                    1274             +*/*01* SIZE:  4096 bytes                                             */
                                    1275             +*/*                                                                  */
                                    1276             +*/*01* CREATED BY:                                                   */
                                    1277             +*/*     IEAVFX00                                                     */
                                    1278             +*/*     IEAVNIP0                                                     */
                                    1279             +*/*     IEEVCPRA                                                     */
                                    1280             +*/*                                                                  */
                                    1281             +*/*01* POINTED TO BY:                                                */
                                    1282             +*/*     The PSA maps the storage that starts at location 0 for the   */
                                    1283             +*/*     related processor.                                           */
                                    1284             +*/*                                                                  */
                                    1285             +*/*01* SERIALIZATION:                                                */
                                    1286             +*/*     Disablement.                                                 */
                                    1287             +*/*     None needed for FLCFACL.                                     */
                                    1288             +*/*                                                                  */
1TASKSERV (TASK00) (09:44) (22MAR04) ORVYL'S Task Services                                                                  Page    6
0Loc    Object Code    Addr1 Addr2  Stmt Lv Lineno    Source Statement           (Hibal 5, Asmedit 3.3)  HLASM R4.0  2004/03/22 09.44
+___    ______ ____    _____ _____  ____ __ ______    ______ _________
0                                   1289             +*/*01* FUNCTION:                                                     */
                                    1290             +*/*02*  Maps fixed hardware and software storage locations for the   */
                                    1291             +*/*     related processor.                                           */
                                    1292             +*/*                                                                  */
                                    1293             +*/*01* PURPOSE = PROVIDE DATA MAPPING OF THE PSA.                    */
                                    1294             +*/*                                                                  */
                                    1295             +*/*01* METHOD OF ACCESS:                                             */
                                    1296             +*/*02*  ASM:                                                         */
                                    1297             +*/*      DSECT is produced unless DSECT=NO is specified.             */
                                    1298             +*/*      USING on PSA gives Addressability for all symbols.          */
                                    1299             +*/*      Specify LIST=YES on Macro call for listing.                 */
                                    1300             +*/*02*  PL/AS:                                                       */
                                    1301             +*/*      PSA will be location(0),                                    */
                                    1302             +*/*      unless %PSABASE is set to some other value before include   */
                                    1303             +*/*      for a macro.                                                */
                                    1304             +*/*      Specify %IHALIST='YES' before %INCLUDE for a PL/AS listing. */
                                    1305             +*/*                                                                  */
                                    1306             +*/*01*   NOTE:  The labels beginning with PSA or FLC are proper      */
                                    1307             +*/*             labels to use. The other labels are given as         */
                                    1308             +*/*             alias names for compatibility with labels used       */
                                    1309             +*/*             for system 360 LOW CORE.                             */
                                    1310             +*/*                                                                  */
                                    1311             +*/*01* DEPENDENCIES:                                                 */
                                    1312             +*/*      None.                                                       */
                                    1313             +*/*                                                                  */
                                    1314             +*/*01* DISTRIBUTION LIBRARY:  AMACLIB                                */
                                    1315             +*/*                                                                  */
                                    1316             +*/*01* CHANGE ACTIVITY:                                              */
                                    1317             +*/*  $LR=PR313    JBB3313  891128  PD16EI:  SHOWHDR format complete  */
                                    1318             +*/*                                                                  */
                                    1319             +*/* END OF SPECIFICATIONS ********************************************/
                                    1320             +*%GOTO PSAL2;   /*
                                    1322    02-00324 +       $$PUSH  PRINT
                                    1324    02-00289 +       $$PRINT OFF
                                    2513    02-00429 +       $$POP   PRINT
                                    2547    03-00188 +       $$USING @R0,0
 DROP   PSA,R0                      2548    03-00191 +       $$DROP  0
1TASKSERV (TASK00) (09:44) (22MAR04) IHAPSAE  - PSA Extension (ESAME)                                                       Page    7
0D-Loc  Object Code    Addr1 Addr2  Stmt Lv Lineno    Source Statement           (Hibal 5, Asmedit 3.3)  HLASM R4.0  2004/03/22 09.44
+_____  ______ ____    _____ _____  ____ __ ______    ______ _________
0000000                00000 00500  2551       9.     CVT      DSECT
                                    2552      10.              CVT   DSECT=YES
                                    2553             +*%CVTL1 : ;
                                    2554             +*
                                    2555             +*/* START OF SPECIFICATIONS ******************************************/
                                    2556             +*/*01* PROPRIETARY_STATEMENT******************************************/
                                    2557             +*/*                                                                  */
                                    2558             +*/*                                                                  */
                                    2559             +*/* LICENSED MATERIALS - PROPERTY OF IBM                             */
                                    2560             +*/* THIS MACRO IS "RESTRICTED MATERIALS OF IBM"                      */
                                    2561             +*/* 5647-A01 (C) COPYRIGHT IBM CORP. 1988, 2000                      */
                                    2562             +*/*                                                                  */
                                    2563             +*/* STATUS= HBB7703                                                  */
                                    2564             +*/*                                                                  */
                                    2565             +*/***END_OF_PROPRIETARY_STATEMENT*************************************/
                                    2566             +*/*                                                                  */
                                    2567             +*/*01* EXTERNAL CLASSIFICATION:                                      */
                                    2568             +*/*02*         DMTI:BASE                                             */
                                    2569             +*/*02*         GUPI: FIELDS                                          */
                                    2570             +*/*                  CVTABEND                                        */
                                    2571             +*/*                  CVTBRET                                         */
                                    2572             +*/*                  CVTCSD                                          */
                                    2573             +*/*                  CVTDCB                                          */
                                    2574             +*/*                  CVTDFA                                          */
                                    2575             +*/*                  CVTECVT                                         */
                                    2576             +*/*                  CVTEXP1                                         */
                                    2577             +*/*                  CVTFLAG2                                        */
                                    2578             +*/*                  CVTFLAG3                                        */
                                    2579             +*/*                  CVTJESCT                                        */
                                    2580             +*/*                  CVTLDTO                                         */
                                    2581             +*/*                  CVTLSO                                          */
                                    2582             +*/*                  CVTMDL                                          */
                                    2583             +*/*                  CVTOPCTP                                        */
                                    2584             +*/*                  CVTOSLVL                                        */
                                    2585             +*/*                  CVTOVER                                         */
                                    2586             +*/*                  CVTPCCAT                                        */
                                    2587             +*/*                  CVTPCNVT                                        */
                                    2588             +*/*                  CVTPRLTV                                        */
                                    2589             +*/*                  CVTPROD                                         */
                                    2590             +*/*                  CVTPSXM                                         */
                                    2591             +*/*                  CVTQTD00                                        */
                                    2592             +*/*                  CVTQTE00                                        */
                                    2593             +*/*                  CVTRAC                                          */
                                    2594             +*/*                  CVTRCZRT                                        */
                                    2595             +*/*                  CVTRELNO                                        */
                                    2596             +*/*                  CVTSCPIN                                        */
                                    2597             +*/*                  CVTSDBF                                         */
                                    2598             +*/*                  CVTSMCA                                         */
                                    2599             +*/*                  CVTSNAME                                        */
                                    2600             +*/*                  CVTSUBSP                                        */
                                    2601             +*/*                  CVTSVT                                          */
                                    2602             +*/*                  CVTTPC                                          */
                                    2603             +*/*                  CVTTVT                                          */
                                    2604             +*/*                  CVTUCBSC                                        */
                                    2605             +*/*                  CVTUSER                                         */
                                    2606             +*/*                  CVTVFGET                                        */
1TASKSERV (TASK00) (09:44) (22MAR04) IHAPSAE  - PSA Extension (ESAME)                                                       Page    8
0D-Loc  Object Code    Addr1 Addr2  Stmt Lv Lineno    Source Statement           (Hibal 5, Asmedit 3.3)  HLASM R4.0  2004/03/22 09.44
+_____  ______ ____    _____ _____  ____ __ ______    ______ _________
0                                   2607             +*/*                  CVTVFIND                                        */
                                    2608             +*/*                  CVTVPSIB                                        */
                                    2609             +*/*                  CVTVWAIT                                        */
                                    2610             +*/*                  CVT0EF00                                        */
                                    2611             +*/*                  CVT0PT0E                                        */
                                    2612             +*/*                  CVT0PT02                                        */
                                    2613             +*/*                  CVT0PT03                                        */
                                    2614             +*/*                  CVT0SCR1                                        */
                                    2615             +*/*02*         PSPI:FIELDS                                           */
                                    2616             +*/*                  CVTAMFF                                         */
                                    2617             +*/*                  CVTASVT                                         */
                                    2618             +*/*                  CVTGDA                                          */
                                    2619             +*/*                  CVTGRSST                                        */
                                    2620             +*/*                  CVTHID                                          */
                                    2621             +*/*                  CVTLINK                                     @M9A*/
                                    2622             +*/*                  CVTRCEP                                         */
                                    2623             +*/*                  CVTSAF                                          */
                                    2624             +*/*                  CVTSDUMP                                        */
                                    2625             +*/*                  CVTVERID                                        */
                                    2626             +*/*01* END OF EXTERNAL CLASSIFICATION:                               */
                                    2627             +*/*                                                                  */
                                    2628             +*/*01* DESCRIPTIVE NAME:  Communications Vector Table                */
                                    2629             +*/*02*  ACRONYM:  CVT                                                */
                                    2630             +*/*                                                                  */
                                    2631             +*/*01* MACRO-NAME:  CVT                                              */
                                    2632             +*/*                                                                  */
                                    2633             +*/*01* DSECT NAME:                                                   */
                                    2634             +*/*02*  CVT(when DSECT=YES is coded and PREFIX=YES is not coded)     */
                                    2635             +*/*02*  CVTFIX(when DSECT=YES and PREFIX=YES is coded)               */
                                    2636             +*/*02*  CVTMAP(or name user coded in label field of CVT invocation)  */
                                    2637             +*/*02*  CVTVSTGX(DSECT name of virtual storage extension)            */
                                    2638             +*/*02*  CVTXTNT1(DSECT name of OS-OS/VS common extension)            */
                                    2639             +*/*02*  CVTXTNT2(DSECT name of OS/VS1-OS/VS2 common extension)       */
                                    2640             +*/*                                                                  */
                                    2641             +*/*                                                                  */
                                    2642             +*/*01* COMPONENT:  Common Macros (SC101)                             */
                                    2643             +*/*                                                                  */
                                    2644             +*/*01* EYE-CATCHER:  CVT                                             */
                                    2645             +*/*02*  OFFSET:  96                                                  */
                                    2646             +*/*02*  LENGTH:  4                                                   */
                                    2647             +*/*                                                                  */
                                    2648             +*/*01* STORAGE ATTRIBUTES:                                           */
                                    2649             +*/*                                                                  */
                                    2650             +*/*02*   ALLOCATION METHOD:  N/A.                                    */
                                    2651             +*/*02*   SUBPOOL:            Nucleus                                 */
                                    2652             +*/*02*   KEY:                0                                       */
                                    2653             +*/*02*   RESIDENCY:          Below 16M line                          */
                                    2654             +*/*02*   FREQUENCY:          1 per system.                           */
                                    2655             +*/*                                                                  */
                                    2656             +*/*01* SIZE:                                                         */
                                    2657             +*/*     Prefix: 256 bytes                                            */
                                    2658             +*/*     CVT: 1280 bytes                                              */
                                    2659             +*/*     Virtual storage address extension: 80 bytes                  */
                                    2660             +*/*     OS - OS/VS common extension: 12 bytes                        */
                                    2661             +*/*     OS/VS1 - OS/VS2 common extension: 132 bytes                  */
                                    2662             +*/*                                                                  */
1TASKSERV (TASK00) (09:44) (22MAR04) IHAPSAE  - PSA Extension (ESAME)                                                       Page    9
0D-Loc  Object Code    Addr1 Addr2  Stmt Lv Lineno    Source Statement           (Hibal 5, Asmedit 3.3)  HLASM R4.0  2004/03/22 09.44
+_____  ______ ____    _____ _____  ____ __ ______    ______ _________
0                                   2663             +*/*01* CREATED BY:                                                   */
                                    2664             +*/*     IEAVCVT                                                      */
                                    2665             +*/*                                                                  */
                                    2666             +*/*01* DELETED BY: N/A.                                              */
                                    2667             +*/*                                                                  */
                                    2668             +*/*01* POINTED TO BY:                                                */
                                    2669             +*/*     FLCCVT field of the PSA data area (location X'10')           */
                                    2670             +*/*     FLCCVT2 field of the PSA data area                           */
                                    2671             +*/*     CVTSMEXT points to the Virtual address storage extension     */
                                    2672             +*/*     OS/VS - OS/VS extention is pointed to by CVTEXT1             */
                                    2673             +*/*     OS/VS1 - OS/VS2 extention is pointed to by CVTEXT2           */
                                    2674             +*/*                                                                  */
                                    2675             +*/*01* SERIALIZATION:                                                */
                                    2676             +*/*     Based on the individual fields being referenced.             */
                                    2677             +*/*                                                                  */
                                    2678             +*/*01* FUNCTION:                                                     */
                                    2679             +*/*02*  The CVT provides the means by which non-nucleus-resident     */
                                    2680             +*/*     routines may refer to information in the nucleus of the      */
                                    2681             +*/*     control program.  It contains addresses of other control     */
                                    2682             +*/*     blocks and tables used by the control program routines.      */
                                    2683             +*/*                                                                  */
                                    2684             +*/*01* METHOD OF ACCESS:                                             */
                                    2685             +*/*                                                                  */
                                    2686             +*/*02*  ASM:                                                         */
                                    2687             +*/*      DSECT=YES should be specified on macro call except          */
                                    2688             +*/*      when called by IEAVCVT to create CSECT.                     */
                                    2689             +*/*                                                                  */
                                    2690             +*/*      CVT for OS/VS2 is always mapped.                            */
                                    2691             +*/*                                                                  */
                                    2692             +*/*      The PREFIX is not mapped unless PREFIX=YES is specified.    */
                                    2693             +*/*                                                                  */
                                    2694             +*/*      A USING on CVTMAP or DSECT name will establish              */
                                    2695             +*/*      addressability for all symbols except in the 2 extentions.  */
                                    2696             +*/*                                                                  */
                                    2697             +*/*      To establish addressability for the                         */
                                    2698             +*/*      OS - OS/VS common extension, you should code:               */
                                    2699             +*/*                                                                  */
                                    2700             +*/*          L     REG,CVTEXT1                                       */
                                    2701             +*/*          USING CVTXTNT1,REG                                      */
                                    2702             +*/*                                                                  */
                                    2703             +*/*      To establish addressability for the OS/VS2                  */
                                    2704             +*/*      common extension, you should code:                          */
                                    2705             +*/*                                                                  */
                                    2706             +*/*          L     REG,CVTEXT2                                       */
                                    2707             +*/*          USING CVTXTNT2,REG                                      */
                                    2708             +*/*                                                                  */
                                    2709             +*/*      Where REG in either case is any register other than zero.   */
                                    2710             +*/*                                                                  */
                                    2711             +*/*      When LISTING is suppressed, you can determine which         */
                                    2712             +*/*      DSECT a symbol is in by using the statement number          */
                                    2713             +*/*      in the DEFN column in the Cross Reference Listing.          */
                                    2714             +*/*      For example, any symbol defined between the                 */
                                    2715             +*/*      statement numbers for CVTXTNT1 and CVTXTNT2 is in           */
                                    2716             +*/*      the OS - OS/VS common extension.                            */
                                    2717             +*/*                                                                  */
                                    2718             +*/*      Specify LIST=YES on macro call to obtain a listing.         */
1TASKSERV (TASK00) (09:44) (22MAR04) IHAPSAE  - PSA Extension (ESAME)                                                       Page   10
0D-Loc  Object Code    Addr1 Addr2  Stmt Lv Lineno    Source Statement           (Hibal 5, Asmedit 3.3)  HLASM R4.0  2004/03/22 09.44
+_____  ______ ____    _____ _____  ____ __ ______    ______ _________
0                                   2719             +*/*                                                                  */
                                    2720             +*/*02*  PL/AS:                                                       */
                                    2721             +*/*                                                                  */
                                    2722             +*/*      DCL CVTPTR PTR.                                             */
                                    2723             +*/*                                                                  */
                                    2724             +*/*      Specify %IHALIST='YES' before %INCLUDE to obtain            */
                                    2725             +*/*      the PL/AS listing.                                          */
                                    2726             +*/*                                                                  */
                                    2727             +*/*      For integration, a listing must not be requested unless     */
                                    2728             +*/*      your module creates the CSECT.                              */
                                    2729             +*/*                                                                  */
                                    2730             +*/*01* DISTRIBUTION LIBRARY:  AMACLIB                                */
                                    2731             +*/*                                                                  */
                                    2732             +*/*01* CHANGE ACTIVITY:                                              */
                                    2733             +*/*  $LS=PR313    JBB3313  891128  PD16EI:  SHOWHDR format complete  */
                                    2734             +*/*                                                                  */
                                    2735             +*/* END OF SPECIFICATIONS ********************************************/
                                    2736             +*
                                    2737             +*%GOTO CVTL2;   /*
                                    2739    02-00324 +       $$PUSH  PRINT
                                    2741    02-00289 +       $$PRINT OFF
                                    3881    02-00429 +       $$POP   PRINT
1TASKSERV (TASK00) (09:44) (22MAR04) IHAPSAE  - PSA Extension (ESAME)                                                       Page   11
0D-Loc  Object Code    Addr1 Addr2  Stmt Lv Lineno    Source Statement           (Hibal 5, Asmedit 3.3)  HLASM R4.0  2004/03/22 09.44
+_____  ______ ____    _____ _____  ____ __ ______    ______ _________
0                                   3883      12.              IKJTCB
                                    3884             +*%TCBL1 : ;
                                    3885             +*/* START OF SPECIFICATIONS ******************************************/
                                    3886             +*/*                                                                  */
                                    3887             +*/*01* PROPRIETARY STATEMENT =                                   @P5C*/
                                    3888             +*/*                                                                  */
                                    3889             +*/*      LICENSED MATERIALS - PROPERTY OF IBM                        */
                                    3890             +*/*      THIS MACRO IS "RESTRICTED MATERIALS OF IBM"                 */
                                    3891             +*/*      5647-A01 (C) COPYRIGHT IBM CORP. 1977, 2000                 */
                                    3892             +*/*                                                                  */
                                    3893             +*/*01* STATUS = JBB6609                                              */
                                    3894             +*/*                                                                  */
                                    3895             +*/*01* DESCRIPTIVE NAME = TASK CONTROL BLOCK                         */
                                    3896             +*/*02*  ACRONYM:  TCB                                                */
                                    3897             +*/*                                                                  */
                                    3898             +*/*01* MACRO NAME = IKJTCB                                           */
                                    3899             +*/*                                                                  */
                                    3900             +*/*01* DSECT NAME:                                                   */
                                    3901             +*/*     TCBFIX (DSECT card precedes prefix).  The label, TCB,        */
                                    3902             +*/*     should be used in the USING statement for the TCB proper.    */
                                    3903             +*/*     TCBXTNT2 is the DSECT name for common extension.             */
                                    3904             +*/*                                                                  */
                                    3905             +*/*01* COMPONENT:  Task Management (SC1CL)                           */
                                    3906             +*/*                                                                  */
                                    3907             +*/*01* EYE-CATCHER:  TCB                                             */
                                    3908             +*/*02*  OFFSET:  256                                                 */
                                    3909             +*/*02*  LENGTH:  4                                                   */
                                    3910             +*/*                                                                  */
                                    3911             +*/*01* STORAGE ATTRIBUTES:                                           */
                                    3912             +*/*02*  SUBPOOL: 253                                                 */
                                    3913             +*/*02*  KEY:  0                                                      */
                                    3914             +*/*02*  RESIDENCY:  Below 16 MB line                                 */
                                    3915             +*/*                                                                  */
                                    3916             +*/*01* SIZE:  408 bytes                                              */
                                    3917             +*/*                                                                  */
                                    3918             +*/*01* CREATED BY: IEAMSWCB, ATTACH                                  */
                                    3919             +*/*                                                                  */
                                    3920             +*/*01* DELETED BY : DETACH                                           */
                                    3921             +*/*                                                                  */
                                    3922             +*/*01* POINTED TO BY:                                                */
                                    3923             +*/*     ASMTCBPT field of the ASMVT data area                        */
                                    3924             +*/*     ASXBFTCB field of the ASXB data area (first TCB)             */
                                    3925             +*/*     ASXBLTCB field of the ASXB data area (last TCB)              */
                                    3926             +*/*     CVTSLIDA field of the CVT data area (supervisor lock TCB)    */
                                    3927             +*/*     CVTWTCB field of the CVT data area (dummy WAIT TCB)          */
                                    3928             +*/*     DEBTCBAD field of the DEB data area                          */
                                    3929             +*/*     DSABTCBP field of the DSAB data area                         */
                                    3930             +*/*     EVNTTCBP field of the EVNT data area                         */
                                    3931             +*/*     JSCBTCBP field of the JSCB data area (initiator TCB)         */
                                    3932             +*/*     LCTTCBAD field of the LCT data area                          */
                                    3933             +*/*     ORETCB field of the ORE data area                            */
                                    3934             +*/*     PQETCB field of the PQE data area                            */
                                    3935             +*/*     PSATNEW field of the PSA data area (new TCB to dispatch)     */
                                    3936             +*/*     PSATOLD field of the PSA data area (current TCB              */
                                    3937             +*/*     dispatched)                                                  */
                                    3938             +*/*     QELTCB field of the QEL data area                            */
1TASKSERV (TASK00) (09:44) (22MAR04) IHAPSAE  - PSA Extension (ESAME)                                                       Page   12
0D-Loc  Object Code    Addr1 Addr2  Stmt Lv Lineno    Source Statement           (Hibal 5, Asmedit 3.3)  HLASM R4.0  2004/03/22 09.44
+_____  ______ ____    _____ _____  ____ __ ______    ______ _________
0                                   3939             +*/*     QPLTCB field of the QPL data area                            */
                                    3940             +*/*     RBLINK field of the RB data area                             */
                                    3941             +*/*     RQETCB field of the RQE data area                            */
                                    3942             +*/*     SCVTCTCB field of the SCVT data area (Comm Task TCB)         */
                                    3943             +*/*     SMCAWTCB field of the SMCA data area (SMF writer TCB)        */
                                    3944             +*/*     SQETCB field of the SQE data area                            */
                                    3945             +*/*     SSETCBA field of the EOT SSOB data area (terminating TCB)    */
                                    3946             +*/*     TAXETCB field of the TAXE data area                          */
                                    3947             +*/*     TCBTCB field of the TCB data area (next TCB)                 */
                                    3948             +*/*     TCBJSTCB field of the TCB data area (jobstep TCB)            */
                                    3949             +*/*     TCBNTC field of the TCB data area (sister TCB)               */
                                    3950             +*/*     TCBOTC field of the TCB data area (originating TCB)          */
                                    3951             +*/*     TCBLTC field of the TCB data area (subtask TCB)              */
                                    3952             +*/*     TCBBACK field of the TCB data area (previous TCB)            */
                                    3953             +*/*     TCCWTCB field of the TCCW data area                          */
                                    3954             +*/*     TCTTCB field of the TCT data area                            */
                                    3955             +*/*     TIOCLDS field of the TIOCRPT data area (line                 */
                                    3956             +*/*     disconnect TCB)                                              */
                                    3957             +*/*     TQETCB field of the TQE data area                            */
                                    3958             +*/*     TSBWTCB field of the TSB data area (waiting TCB)             */
                                    3959             +*/*     TSBCTCB field of the TSB data area (TPUT TCB)                */
                                    3960             +*/*     UCMPXA field of the UCM data area (comm task TCB)            */
                                    3961             +*/*     WEBUPTR field of the WEB data area                           */
                                    3962             +*/*     WQETCB field of the WQE data area                            */
                                    3963             +*/*     WQEJSTCB field of the WQE data area                          */
                                    3964             +*/*     (associated jobstep TCB)                                     */
                                    3965             +*/*                                                                  */
                                    3966             +*/*01* SERIALIZATION:                                                */
                                    3967             +*/*     Depends on the field                                         */
                                    3968             +*/*                                                                  */
                                    3969             +*/*01* FUNCTION:                                                     */
                                    3970             +*/*     The task control block (TCB) serves as a repository          */
                                    3971             +*/*     for information and pointers associated with a task.         */
                                    3972             +*/*     Various components of the control program place              */
                                    3973             +*/*     information in the TCB and obtain information from           */
                                    3974             +*/*     the TCB.                                                     */
                                    3975             +*/*                                                                  */
                                    3976             +*/*01* EXTERNAL CLASSIFICATION:                                      */
                                    3977             +*/*                                                                  */
                                    3978             +*/*02*   GUPI: FIELDS                                                */
                                    3979             +*/*             TCBRBP TCBGRS TCBUSER TCBJSCBB TCBSVCSP TCBSVCS      */
                                    3980             +*/*             TCBTID TCBSVCA2 TCBARC TCBSENV TCBJSTCB TCBTIO       */
                                    3981             +*/*             TCBFLGS8 TCBSTCB TCBRV316 TCBPIE                     */
                                    3982             +*/*                                                                  */
                                    3983             +*/*02*   PSPI: FIELDS                                                */
                                    3984             +*/*             TCBDEB   TCBCMP   TCBCMPF  TCBPKF  TCBANDSP          */
                                    3985             +*/*             TCBJLB   TCBTCB   TCBNTC   TCBOTC   TCBLTC           */
                                    3986             +*/*             TCBTCT   TCBBACK                                     */
                                    3987             +*/*             TCBTCBID TCBAFFN  TCBGRES                            */
                                    3988             +*/*             TCBCELAP TCBLEVEL TCBLLS                             */
                                    3989             +*/*                                                                  */
                                    3990             +*/*02*   DMTI: BASE                                                  */
                                    3991             +*/*                                                                  */
                                    3992             +*/*01* END OF EXTERNAL CLASSIFICATION:                               */
                                    3993             +*/*                                                                  */
                                    3994             +*/*01* METHOD OF ACCESS:                                             */
1TASKSERV (TASK00) (09:44) (22MAR04) IHAPSAE  - PSA Extension (ESAME)                                                       Page   13
0D-Loc  Object Code    Addr1 Addr2  Stmt Lv Lineno    Source Statement           (Hibal 5, Asmedit 3.3)  HLASM R4.0  2004/03/22 09.44
+_____  ______ ____    _____ _____  ____ __ ______    ______ _________
0                                   3995             +*/*      BAL  - A DSECT IS PRODUCED UNLESS DSECT=NO IS SPECIFIED.    */
                                    3996             +*/*             USING ON TCBFIX GIVES ADDRESSABILITY FOR ALL SYMBOLS */
                                    3997             +*/*             IN PREFIX AND TCB PROPER.  TO GET ADDRESSABILITY FOR */
                                    3998             +*/*             THE TCB EXTENSION, YOU SHOULD CODE:                  */
                                    3999             +*/*                                                                  */
                                    4000             +*/*             L     REG,TCBEXT2                                    */
                                    4001             +*/*             USING TCBXTNT2,REG                                   */
                                    4002             +*/*             WHERE REG IS ANY REGISTER OTHER THAN ZERO.           */
                                    4003             +*/*                                                                  */
                                    4004             +*/*                                                                  */
                                    4005             +*/*      BAL LISTING  - SPECIFY LIST=YES ON MACRO CALL.              */
                                    4006             +*/*                                                                  */
                                    4007             +*/*      PL/S - DCL TCBPTR PTR                                       */
                                    4008             +*/*                                                                  */
                                    4009             +*/*                                                                  */
                                    4010             +*/*             MACRO VARIABLE TCBLEN IS SET TO THE LENGTH OF THE    */
                                    4011             +*/*             TCB INCLUDING THE PREFIX.                            */
                                    4012             +*/*                                                                  */
                                    4013             +*/*             VIA ATTRIBUTE - SPECIFY %IHAVIA='YES' PRIOR TO       */
                                    4014             +*/*                             INCLUDE STATEMENT.                   */
                                    4015             +*/*                             DECLARE TCBALET.                     */
                                    4016             +*/*                                                                  */
                                    4017             +*/*      PL/S LISTING - SPECIFY %IHALIST='YES' BEFORE %INCLUDE.      */
                                    4018             +*/*                                                                  */
                                    4019             +*/*01* DEPENDENCIES:                                                 */
                                    4020             +*/*      RTM MUST BE NOTIFIED of any changes to nondispatchability   */
                                    4021             +*/*      bits (modification of RTM code required).                   */
                                    4022             +*/*                                                                  */
                                    4023             +*/*01* DISTRIBUTION LIBRARY:  AMACLIB                                */
                                    4024             +*/*                                                                  */
                                    4025             +*/* END OF SPECIFICATIONS ********************************************/
                                    4026             +*%GOTO TCBL2;  /*
                                    4028    02-00324 +       $$PUSH  PRINT
                                    4030    02-00289 +       $$PRINT OFF
                                    4795    02-00429 +       $$POP   PRINT
1TASKSERV (TASK00) (09:44) (22MAR04) IHAPSAE  - PSA Extension (ESAME)                                                       Page   14
0D-Loc  Object Code    Addr1 Addr2  Stmt Lv Lineno    Source Statement           (Hibal 5, Asmedit 3.3)  HLASM R4.0  2004/03/22 09.44
+_____  ______ ____    _____ _____  ____ __ ______    ______ _________
0                                   4797      14.              IHARB
                                    4798             +*%RBCML1 : ;
                                    4799             +*
                                    4800             +*/* START OF SPECIFICATIONS **************************************** */
                                    4801             +*/*                                                                  */
                                    4802             +*/*01* MACRO NAME = IHARB                                            */
                                    4803             +*/*                                                                  */
                                    4804             +*/*01* DESCRIPTIVE NAME = REQUEST BLOCKS                             */
                                    4805             +*/*                                                                  */
                                    4806             +*/*01* COPYRIGHT=                                                @L2C*/
                                    4807             +*/*      5647-A01                                                    */
                                    4808             +*/*      CONTAINS RESTRICTED MATERIALS OF IBM                        */
                                    4809             +*/*      (C) COPYRIGHT IBM CORP. 1977, 1985                          */
                                    4810             +*/*      LICENSED MATERIALS - PROPERTY OF IBM                        */
                                    4811             +*/*                                                                  */
                                    4812             +*/*01* STATUS= HBB7703                                           @L2C*/
                                    4813             +*/*                                                                  */
                                    4814             +*/*01* EXTERNAL CLASSIFICATION:                                      */
                                    4815             +*/*                                                                  */
                                    4816             +*/*02* GUPI: FIELDS                                                  */
                                    4817             +*/*          RBFEPARM                                                */
                                    4818             +*/*          RBGRSAVE                                                */
                                    4819             +*/*          RBNEXAV                                                 */
                                    4820             +*/*          RBOPSW                                                  */
                                    4821             +*/*          RBPPSAV1                                                */
                                    4822             +*/*02* PSPI: BASE                                                    */
                                    4823             +*/*                                                                  */
                                    4824             +*/*01* END OF EXTERNAL CLASSIFICATION:                               */
                                    4825             +*/*                                                                  */
                                    4826             +*/*01* DSECT NAME:                                                   */
                                    4827             +*/*      RBPRFX (DSECT card precedes prefix). RBBASIC should be      */
                                    4828             +*/*      used for USING for basic section.                           */
                                    4829             +*/*                                                                  */
                                    4830             +*/*01* METHOD OF ACCESS                                              */
                                    4831             +*/*      BAL  - A DSECT IS PRODUCED UNLESS DSECT=NO IS SPECIFIED.    */
                                    4832             +*/*             USING ON RBPRFX GIVES ADDRESSABILITY FOR ALL SYMBOLS.*/
                                    4833             +*/*                                                                  */
                                    4834             +*/*             THIS MACRO ASSUMES A DEFAULT OF SYS=AOS2 WHICH MEANS */
                                    4835             +*/*             A MAPPING OF OS/VS2 RB'S IS DESIRED.  IF A MAPPING   */
                                    4836             +*/*             OF OS/VS1 RB'S IS DESIRED, SPECIFY SYS=AOS1 ON MACRO */
                                    4837             +*/*             CALL.                                                */
                                    4838             +*/*                                                                  */
                                    4839             +*/*      BAL LISTING - SPECIFY LIST=YES ON MACRO CALL.               */
                                    4840             +*/*                                                                  */
                                    4841             +*/*      PL/S - DCL RBSECPTR PTR                                     */
                                    4842             +*/*             IF %RBSYSTM='AOS1', ALSO SPECIFY                     */
                                    4843             +*/*             DCL CDBPTR PTR  AND                                  */
                                    4844             +*/*             DCL XRBPTR PTR OR %XRBPTR='RBSECPTR'                 */
                                    4845             +*/*                                                                  */
                                    4846             +*/*             THIS MACRO ASSUMES IT IS MAPPING OS/VS2 RB'S.  IF A  */
                                    4847             +*/*             MAPPING OF OS/VS1 RB'S IS DESIRED, SPECIFY           */
                                    4848             +*/*             %RBSYSTM='AOS1' BEFORE THE INCLUDE FOR THIS MACRO.   */
                                    4849             +*/*             DO NOT SET RBSYSTM TO 'AOS2' BECAUSE NULL MEANS      */
                                    4850             +*/*             OS/VS2.                                              */
                                    4851             +*/*                                                                  */
                                    4852             +*/*      PL/S LISTING - SPECIFY %IHALIST='YES' BEFORE %INCLUDE.      */
1TASKSERV (TASK00) (09:44) (22MAR04) IHAPSAE  - PSA Extension (ESAME)                                                       Page   15
0D-Loc  Object Code    Addr1 Addr2  Stmt Lv Lineno    Source Statement           (Hibal 5, Asmedit 3.3)  HLASM R4.0  2004/03/22 09.44
+_____  ______ ____    _____ _____  ____ __ ______    ______ _________
0                                   4853             +*/*                                                                  */
                                    4854             +*/*  NOTE                                                            */
                                    4855             +*/*      THIS MACRO MAPS THE RB FIELDS WHICH ARE COMMON BETWEEN      */
                                    4856             +*/*      OS/VS1 AND OS/VS2.  IF SYS=AOS2 OR %RBSYSTM='', IKJRB IS    */
                                    4857             +*/*      INVOKED TO MAP THE OS/VS2 FIELDS.  IF SYS=AOS1 OR           */
                                    4858             +*/*      %RBSYSTM='AOS1', IEZXRB IS INVOKED TO MAP THE OS/VS1 FIELDS.*/
                                    4859             +*/*      THE PL/S INCLUDE STATEMENTS SPECIFY DDNAME OF SYSLIB.       */
                                    4860             +*/*                                                                  */
                                    4861             +*/*01* COMPONENT = Task Management (SC1CL)                           */
                                    4862             +*/*                                                                  */
                                    4863             +*/*01* EYE-CATCHER:  NONE                                            */
                                    4864             +*/*                                                                  */
                                    4865             +*/*01* STORAGE ATTRIBUTES:                                           */
                                    4866             +*/*02*  SUBPOOL:                                                     */
                                    4867             +*/*               For IRBs, subpool 253.                             */
                                    4868             +*/*               For PRBs, SVRBs, and SIRBs, subpool 255            */
                                    4869             +*/*02*  KEY:  0                                                      */
                                    4870             +*/*02*  RESIDENCY:  Below 16M                                        */
                                    4871             +*/*                                                                  */
                                    4872             +*/*01* SIZE:                                                         */
                                    4873             +*/*          For PRBs: 136 bytes.                                    */
                                    4874             +*/*          For TIRBs: 136 bytes.                                   */
                                    4875             +*/*          For SIRBs: 200 bytes.                                   */
                                    4876             +*/*          For SVRBs: 240 bytes.                                   */
                                    4877             +*/*          For IRBs: 128 bytes plus the length of optional fields. */
                                    4878             +*/*                                                                  */
                                    4879             +*/*01* CREATED BY:                                                   */
                                    4880             +*/*          For IRBs: CIRB (Create IRB) macro.                      */
                                    4881             +*/*          For PRBs: SYSGEN, address space initialization,         */
                                    4882             +*/*          ATTACH, LINK, SYNCH, and XCTL.                          */
                                    4883             +*/*          For SIRBs: SYSGEN, address space initialization.        */
                                    4884             +*/*          For SVRBs: SVC first level interruption handler.        */
                                    4885             +*/*                                                                  */
                                    4886             +*/*01* POINTED TO BY:                                                */
                                    4887             +*/*       TCBRBP field of the TCB data area                          */
                                    4888             +*/*       CDRRBP field of the CDE data area (associated RB)          */
                                    4889             +*/*       EVNTRBP field of the EVNT data area (waiting RB)           */
                                    4890             +*/*       PCBRB field of the PCB data area (associated RB)           */
                                    4891             +*/*       RBLINK field of the RB data area (previous RB)             */
                                    4892             +*/*       TAXEIRB field of the TAXE data area (associated RB)        */
                                    4893             +*/*       TIQEIRB field of the TAXE data area (IRB to be scheduled)  */
                                    4894             +*/*                                                                  */
                                    4895             +*/*01* SERIALIZATION:                                                */
                                    4896             +*/*       If the task is running, from the point of view of a        */
                                    4897             +*/*       program running under that task, the chain is serialized.  */
                                    4898             +*/*                                                                  */
                                    4899             +*/*       If the task is not running and the local lock is held, the */
                                    4900             +*/*       RB chain will not change. To ensure the task will not be   */
                                    4901             +*/*       dispatched, the task must be nondispatchable.              */
                                    4902             +*/*                                                                  */
                                    4903             +*/*01* FUNCTION:                                                     */
                                    4904             +*/*       Part of the RB is mapped by IHARB and part is mapped by    */
                                    4905             +*/*       IKJRB.                                                     */
                                    4906             +*/*       Maps out the following Request Blocks:                     */
                                    4907             +*/*       - IRB (Interrupt Request Block), which is not the          */
                                    4908             +*/*         same as an Interruption Response Block. See the          */
1TASKSERV (TASK00) (09:44) (22MAR04) IHAPSAE  - PSA Extension (ESAME)                                                       Page   16
0D-Loc  Object Code    Addr1 Addr2  Stmt Lv Lineno    Source Statement           (Hibal 5, Asmedit 3.3)  HLASM R4.0  2004/03/22 09.44
+_____  ______ ____    _____ _____  ____ __ ______    ______ _________
0                                   4909             +*/*         IRB data area description.                               */
                                    4910             +*/*       - PRB (Program Request Block)                              */
                                    4911             +*/*       - SIRB (System Interrupt Request Block)                    */
                                    4912             +*/*       - SVRB (SuperVisor Request Block for SVC routines)         */
                                    4913             +*/*       - TIRB (Task Interrupt Request Block)                      */
                                    4914             +*/*       The RB control block contains information needed by        */
                                    4915             +*/*       the supervisor concerning programs and routines,           */
                                    4916             +*/*       including save areas for all general registers,            */
                                    4917             +*/*       extended registers, a save area for SVC routines,          */
                                    4918             +*/*       and additional data needed for control.                    */
                                    4919             +*/*                                                                  */
                                    4920             +*/*01* DISTRIBUTION LIBRARY = AMACLIB                                */
                                    4921             +*/*                                                                  */
                                    4922             +*/* END OF SPECIFICATIONS ****************************************** */
                                    4923             +*%GOTO RBCML2;  /*
                                    4925    02-00324 +       $$PUSH  PRINT
                                    4927    02-00289 +       $$PRINT OFF
                                    5063    03-00289 +       $$PRINT ON
                                    5064             +*                                                                    */
                                    5065             +*%RBL1 : ;
                                    5066             +*
                                    5067             +*/* START OF SPECIFICATIONS **************************************** */
                                    5068             +*/*                                                                  */
                                    5069             +*/*01* MACRO NAME:  IKJRB                                            */
                                    5070             +*/*                                                                  */
                                    5071             +*/*01* DESCRIPTIVE NAME:  OS/VS2 REQUEST BLOCK                       */
                                    5072             +*/*02* ACRONYM: RB                                                   */
                                    5073             +*/*                                                                  */
                                    5074             +*/*01* COPYRIGHT =                                               @L3C*/
                                    5075             +*/*      5647-A01                                                    */
                                    5076             +*/*      THIS MODULE IS "RESTRICTED MATERIALS OF IBM"                */
                                    5077             +*/*      (C) COPYRIGHT IBM CORP. 1977, 2000                          */
                                    5078             +*/*      LICENSED MATERIALS - PROPERTY OF IBM                        */
                                    5079             +*/*                                                                  */
                                    5080             +*/*01* STATUS = HBB7703                                          @L3C*/
                                    5081             +*/*                                                                  */
                                    5082             +*/*01* EXTERNAL CLASSIFICATION:                                      */
                                    5083             +*/*                                                                  */
                                    5084             +*/*02* GUPI: FIELDS                                                  */
                                    5085             +*/*          RBFEPARM                                                */
                                    5086             +*/*          RBGRSAVE                                                */
                                    5087             +*/*          RBNEXAV                                                 */
                                    5088             +*/*          RBOPSW                                                  */
                                    5089             +*/*          RBPPSAV1                                                */
                                    5090             +*/*02* PSPI: BASE                                                    */
                                    5091             +*/*                                                                  */
                                    5092             +*/*01* END OF EXTERNAL CLASSIFICATION:                               */
                                    5093             +*/*                                                                  */
                                    5094             +*/*01* DSECT NAME:                                                   */
                                    5095             +*/*      RBPRFX (DSECT card precedes prefix). RBBASIC should be      */
                                    5096             +*/*      used for USING for basic section                            */
                                    5097             +*/*                                                                  */
                                    5098             +*/*01* COMPONENT:  Task Manager (SC1CL)                              */
                                    5099             +*/*                                                                  */
                                    5100             +*/*01* EYE-CATCHER:  NONE                                            */
                                    5101             +*/*                                                                  */
1TASKSERV (TASK00) (09:44) (22MAR04) IHAPSAE  - PSA Extension (ESAME)                                                       Page   17
0D-Loc  Object Code    Addr1 Addr2  Stmt Lv Lineno    Source Statement           (Hibal 5, Asmedit 3.3)  HLASM R4.0  2004/03/22 09.44
+_____  ______ ____    _____ _____  ____ __ ______    ______ _________
0                                   5102             +*/*01* STORAGE ATTRIBUTES:                                           */
                                    5103             +*/*02*  SUBPOOL:                                                     */
                                    5104             +*/*               For IRBs, subpool 253.                             */
                                    5105             +*/*               For PRBs, SVRBs, and SIRBs, subpool 255            */
                                    5106             +*/*02*  KEY:  0                                                      */
                                    5107             +*/*02*  RESIDENCY:  Below 16M                                        */
                                    5108             +*/*                                                                  */
                                    5109             +*/*01* SIZE:                                                         */
                                    5110             +*/*          For PRBs: 136 bytes.                                    */
                                    5111             +*/*          For SIRBs: 200 bytes.                                   */
                                    5112             +*/*          For SVRBs: 240 bytes.                                   */
                                    5113             +*/*          For IRBs: 128 bytes plus the length of optional fields. */
                                    5114             +*/*                                                                  */
                                    5115             +*/*01* CREATED BY:                                                   */
                                    5116             +*/*           For IRBs: CIRB (Create IRB) macro.                     */
                                    5117             +*/*           For PRBs: SYSGEN, address space initialization,        */
                                    5118             +*/*           ATTACH, LINK, SYNCH, and XCTL.                         */
                                    5119             +*/*           For SIRBs: SYSGEN, address space initialization.       */
                                    5120             +*/*           For SVRBs: SVC first level interruption handler.       */
                                    5121             +*/*                                                                  */
                                    5122             +*/*01* POINTED TO BY:                                                */
                                    5123             +*/*       TCBRBP field of the TCB data area                          */
                                    5124             +*/*       CDRRBP field of the CDE data area (associated RB)          */
                                    5125             +*/*       EVNTRBP field of the EVNT data area (waiting RB)           */
                                    5126             +*/*       PCBRB field of the PCB data area (associated RB)           */
                                    5127             +*/*       RBLINK field of the RB data area (previous RB)             */
                                    5128             +*/*       TAXEIRB field of the TAXE data area (associated RB)        */
                                    5129             +*/*       TIQEIRB field of the TAXE data area (IRB to be scheduled)  */
                                    5130             +*/*                                                                  */
                                    5131             +*/*01* SERIALIZATION:                                                */
                                    5132             +*/*     LOCAL lock, active (RB or TCB), non-dispatchable TCB, etc.   */
                                    5133             +*/*                                                                  */
                                    5134             +*/*01* FUNCTION = PROVIDE DATA MAPPING OF THE RB.                    */
                                    5135             +*/*      SVRB - SUPERVISOR REQUEST BLOCK FOR TRANSIENT SVC ROUTINES  */
                                    5136             +*/*      SVRB - SUPERVISOR REQUEST BLOCK FOR RESIDENT SVC ROUTINES   */
                                    5137             +*/*      IRB  - INTERRUPTION REQUEST BLOCK                           */
                                    5138             +*/*      SIRB - SYSTEM INTERRUPT REQUEST BLOCK                       */
                                    5139             +*/*      PRB  - PROGRAM REQUEST BLOCK                                */
                                    5140             +*/*      TIRB - TASK INTERRUPTION REQUEST BLOCK                      */
                                    5141             +*/*                                                                  */
                                    5142             +*/*01* METHOD OF ACCESS                                              */
                                    5143             +*/*      THIS MACRO IS INVOKED BY IHARB WHICH MAPS THE FIELDS        */
                                    5144             +*/*      THAT ARE COMMON TO OS/VS1 AND OS/VS2.                       */
                                    5145             +*/*                                                                  */
                                    5146             +*/*      IF THIS MACRO IS INVOKED DIRECTLY IN BAL, IT WILL INVOKE    */
                                    5147             +*/*      IHARB TO MAP THE COMMON FIELDS.                             */
                                    5148             +*/*                                                                  */
                                    5149             +*/*      BAL LISTING - SPECIFY LIST=YES ON MACRO CALL.               */
                                    5150             +*/*                                                                  */
                                    5151             +*/*      PL/AS LISTING - SPECIFY %IHALIST='YES' BEFORE %INCLUDE.     */
                                    5152             +*/*                    VIA ATTRIBUTE - SPECIFY %IHAVIA='YES' BEFORE  */
                                    5153             +*/*                                    %INCLUDE.                     */
                                    5154             +*/*                                    DECLARE RBALET.               */
                                    5155             +*/*                                                                  */
                                    5156             +*/*01* COMPONENT = SC1CL (TASK MANAGEMENT)                           */
                                    5157             +*/*                                                                  */
1TASKSERV (TASK00) (09:44) (22MAR04) IHAPSAE  - PSA Extension (ESAME)                                                       Page   18
0D-Loc  Object Code    Addr1 Addr2  Stmt Lv Lineno    Source Statement           (Hibal 5, Asmedit 3.3)  HLASM R4.0  2004/03/22 09.44
+_____  ______ ____    _____ _____  ____ __ ______    ______ _________
0                                   5158             +*/*01* DISTRIBUTION LIBRARY = AMODGEN                                */
                                    5159             +*/*                                                                  */
                                    5160             +*/* END OF SPECIFICATIONS ****************************************** */
                                    5161             +*%GOTO RBL2;  /*
                                    5167    03-00289 +       $$PRINT OFF
                                    5508    02-00429 +       $$POP   PRINT
1TASKSERV (TASK00) (09:44) (22MAR04) IHAPSAE  - PSA Extension (ESAME)                                                       Page   19
0D-Loc  Object Code    Addr1 Addr2  Stmt Lv Lineno    Source Statement           (Hibal 5, Asmedit 3.3)  HLASM R4.0  2004/03/22 09.44
+_____  ______ ____    _____ _____  ____ __ ______    ______ _________
0                                   5510      16.              IHASDWA
                                    5511             +*                                                                    */
                                    5512             +*%SDWABSL1 : ;
                                    5513             +*/** START OF SPECIFICATIONS *****************************************/
                                    5514             +*/*                                                                  */
                                    5515             +*/* PROPRIETARY STATEMENT:                                           */
                                    5516             +*/* 5647-A01                                                         */
                                    5517             +*/* THIS MODULE IS "RESTRICTED MATERIALS OF IBM"                     */
                                    5518             +*/* (C) COPYRIGHT IBM CORP. 1980,2000                                */
                                    5519             +*/* LICENSED MATERIALS - PROPERTY OF IBM                             */
                                    5520             +*/*                                                                  */
                                    5521             +*/* STATUS = HBB7703                                                 */
                                    5522             +*/*                                                                  */
                                    5523             +*/*01* EXTERNAL CLASSIFICATION:                                      */
                                    5524             +*/*02* NOTPI: BASE                                                   */
                                    5525             +*/*02* PI: FIELDS                                                    */
                                    5526             +*/*  SDWAABCC SDWACOMP SDWAFMID SDWAOCRC SDWASC   SDWAXFLG           */
                                    5527             +*/*  SDWAABTM SDWACOMU SDWAFPRX SDWAPARM SDWASDRC SDWAXPAD           */
                                    5528             +*/*  SDWAAEC1 SDWACRC  SDWAGRSV SDWAPCHK SDWASRSV SDWALSLV           */
                                    5529             +*/*  SDWAAEC2 SDWACRGS SDWAIDNT SDWAPGIO SDWASRVP SDWAG64        @LIC*/
                                    5530             +*/*  SDWAARER SDWACTS  SDWAIOFS SDWAPSWU SDWASTAE                    */
                                    5531             +*/*  SDWAARGU SDWAEC1  SDWAMABD SDWARA   SDWASVCD                    */
                                    5532             +*/*  SDWAARSV SDWAEC2  SDWAMCHK SDWAREGU SDWASVCE                    */
                                    5533             +*/*  SDWAASCB SDWAEPA  SDWAMCIV SDWARKEY SDWATEAR                    */
                                    5534             +*/*  SDWACID  SDWAERRB SDWAMLVL SDWARPIV SDWATEXC                    */
                                    5535             +*/*  SDWACIDB SDWAERRC SDWANAME SDWARRL  SDWATYPE                    */
                                    5536             +*/*  SDWACLUP SDWAFIOB SDWANRBE SDWASABC SDWAVRIV                    */
                                    5537             +*/*                                                                  */
                                    5538             +*/*01* END OF EXTERNAL CLASSIFICATION:                               */
                                    5539             +*/*                                                                  */
                                    5540             +*/* MACRO NAME:  IHASDWA                                             */
                                    5541             +*/*                                                                  */
                                    5542             +*/* DESCRIPTIVE NAME:  SYSTEM DIAGNOSTIC WORK AREA                   */
                                    5543             +*/*                                                                  */
                                    5544             +*/* DSECT NAME: SDWA, SDWARC1, SDWARC2, SDWARC3, SDWARC4,            */
                                    5545             +*/*             SDWAPTS, SDWANRC1, SDWANRC2, SDWANRC3            @LIC*/
                                    5546             +*/*                                                                  */
                                    5547             +*/* COMPONENT: RECOVERY TERMINATION MANAGER (SCRTM)              @PCC*/
                                    5548             +*/*                                                                  */
                                    5549             +*/* EYE CATCHER: SDWA                                                */
                                    5550             +*/* OFFSET: X'293'                                                   */
                                    5551             +*/* LENGTH: 5                                                        */
                                    5552             +*/*                                                                  */
                                    5553             +*/* STORAGE ATTRIBUTES:                                              */
                                    5554             +*/*  SUBPOOL:  0 OR 230 OR 239                                       */
                                    5555             +*/*  KEY:  TCB KEY FOR SUBPOOL 0, OTHERWISE KEY 0                    */
                                    5556             +*/*  RESIDENCY:  Above or below the 16M line, depending on the       */
                                    5557             +*/*              recovery routine that the SDWA is provided for      */
                                    5558             +*/*                                                                  */
                                    5559             +*/* SIZE:                                                            */
                                    5560             +*/*     Variable, depending on which which extensions are            */
                                    5561             +*/*     provided with the SDWA.                                  @LIC*/
                                    5562             +*/*                                                                  */
                                    5563             +*/* CREATED BY:                                                      */
                                    5564             +*/*     GLOBAL SDWAS ARE PREALLOCATED, GETMAINED SDWAS ARE           */
                                    5565             +*/*     OBTAINED BY IEAVTR1S, TASK MODE SDWAS ARE OBTAINED           */
1TASKSERV (TASK00) (09:44) (22MAR04) IHAPSAE  - PSA Extension (ESAME)                                                       Page   20
0D-Loc  Object Code    Addr1 Addr2  Stmt Lv Lineno    Source Statement           (Hibal 5, Asmedit 3.3)  HLASM R4.0  2004/03/22 09.44
+_____  ______ ____    _____ _____  ____ __ ______    ______ _________
0                                   5566             +*/*     BY IEAVTRT2 AND IEAVTAS1                                     */
                                    5567             +*/*                                                                  */
                                    5568             +*/* POINTED TO BY:                                                   */
                                    5569             +*/*     REGISTER 1 UPON ENTRY TO AN FRR, REGISTER 1 UPON ENTRY TO    */
                                    5570             +*/*     AN ESTAE-TYPE RECOVERY ROUTINE IF REGISTER 0 DOES NOT        */
                                    5571             +*/*     CONTAIN 12 (X'0C').                                          */
                                    5572             +*/*     ADJACENT TO EACH SUPER FRR STACK (GLOBAL SDWA)               */
                                    5573             +*/*     RT1WRTCA FIELD OF THE RT1W DATA AREA                         */
                                    5574             +*/*     RTM2RTCA AND RTM2SDW2 FIELD OF THE RTM2WA DATA AREA          */
                                    5575             +*/*     FOR TASK MODE SDWAS                                          */
                                    5576             +*/*                                                                  */
                                    5577             +*/* SERIALIZATION:                                                   */
                                    5578             +*/*     GLOBAL SDWA - PHYSICALLY DISABLED OR GLOBALLY LOCKED         */
                                    5579             +*/*     GETMAINED SDWA - SRB MODE, LOCALLY LOCKED, OR NONE           */
                                    5580             +*/*                                                                  */
                                    5581             +*/* FUNCTION:                                                        */
                                    5582             +*/*     THE SDWA PROVIDES FOR COMMUNICATION BETWEEN THE RTM AND      */
                                    5583             +*/*     FRRS OR ESTAE-TYPE RECOVERY ROUTINES.  IT CONTAINS DATA      */
                                    5584             +*/*     ABOUT THE ORIGINAL ERROR AND ALSO CONCERNING ACTIONS         */
                                    5585             +*/*     OF PREVIOUSLY ENTERED RECOVERY ROUTINES.  THE SDWA IS        */
                                    5586             +*/*     ALSO KNOWN AS THE RTCA.                                      */
                                    5587             +*/*                                                                  */
                                    5588             +*/*     THE SDWA IS USED FOR RECORDING ERRORS IN LOGREC              */
                                    5589             +*/*     AS SOFTWARE RECORDS.                                         */
                                    5590             +*/*                                                                  */
                                    5591             +*/* METHOD OF ACCESS:                                                */
                                    5592             +*/* ASM:                                                             */
                                    5593             +*/*             IHASDWA DSECT=YES,VRAMAP=YES                 @G81EP11*/
                                    5594             +*/*                           NO         NO                  @G81EP11*/
                                    5595             +*/* DSECT = YES IS THE DEFAULT AND WILL PRODUCE THE SDWA             */
                                    5596             +*/*            AS A DSECT.                                           */
                                    5597             +*/* DSECT = NO WILL PRODUCE THE SDWA AS A CONTINUATION OF            */
                                    5598             +*/*            DEFINED STORAGE. (NO DSECT CARD PRODUCED)             */
                                    5599             +*/* VRAMAP=YES IS THE DEFAULT AND WILL PRODUCE THE IHAVRA    @G81EP11*/
                                    5600             +*/*            MAPPING MACRO FIELDS FOLLOWING THE SDWA       @G81EP11*/
                                    5601             +*/*            FIELDS.                                       @G81EP11*/
                                    5602             +*/* VRAMAP=NO  WILL PRODUCE THE SDWA, BUT NOT THE IHAVRA     @G81EP11*/
                                    5603             +*/*            MAPPING MACRO.                                @G81EP11*/
                                    5604             +*/* PL/AS:                                                           */
                                    5605             +*/*   IF MACRO VARIABLE                                              */
                                    5606             +*/*   %SDWALVL IS NULL, THE SDWA WILL BE INCLUDED                    */
                                    5607             +*/*   AS A LEVEL 1 STRUCTURE BASED ON SDWAPTR.                       */
                                    5608             +*/*                                                                  */
                                    5609             +*/*   IF %SDWALVL IS SPECIFIED AS A NUMBER FROM 1 TO 4               */
                                    5610             +*/*   THE SDWA WILL BE A NON-BASED STRUCTURE WITH THE                */
                                    5611             +*/*   TOP LEVEL EQUAL TO %SDWALVL.                                   */
                                    5612             +*/*                                                                  */
                                    5613             +*/*   THE DEFAULT INCLUSION OF THE IHAVRA MAPPING MACRO      @G81EP11*/
                                    5614             +*/*   ALONG WITH THE SDWA CAN BE SUPPRESSED BY SETTING       @G81EP11*/
                                    5615             +*/*   MACRO VARIABLE SDWAVRAMAP EQUAL TO 'NO'.               @G81EP11*/
                                    5616             +*/*                                                                  */
                                    5617             +*/*   VIA ATTRIBUTE - SPECIFY %IHAVIA='YES' BEFORE %INCLUDE.         */
                                    5618             +*/*                   DECLARE SDWAALET.                              */
                                    5619             +*/*                                                                  */
                                    5620             +*/*   Note: In order to access SDWARC4, that DSECT must be based     */
                                    5621             +*/*         upon SDWAXEME.  See the SDWARC4 section for details. @LIA*/
1TASKSERV (TASK00) (09:44) (22MAR04) IHAPSAE  - PSA Extension (ESAME)                                                       Page   21
0D-Loc  Object Code    Addr1 Addr2  Stmt Lv Lineno    Source Statement           (Hibal 5, Asmedit 3.3)  HLASM R4.0  2004/03/22 09.44
+_____  ______ ____    _____ _____  ____ __ ______    ______ _________
0                                   5622             +*/*                                                                  */
                                    5623             +*/* DEPENDENCIES =                                                   */
                                    5624             +*/*                CHANGES TO THE SIZE OF THIS MACRO REQUIRE A NEW   */
                                    5625             +*/*                VERSION NUMBER.  WHEN THE SIZE OF THIS MACRO IS   */
                                    5626             +*/*                CHANGED, IT MUST BE DONE IN DOUBLE WORD           */
                                    5627             +*/*                INCREMENTS.  SIZE CHANGES TO THE SDWA ARE         */
                                    5628             +*/*                REFLECTED IN IHART1W.  MODULES THAT USE EITHER    */
                                    5629             +*/*                MACRO TO GET OR RELEASE SDWA STORAGE MUST BE      */
                                    5630             +*/*                RECOMPILED.  ALSO, IHASFPL MUST BE UPDATED TO     */
                                    5631             +*/*                MATCH THE NEW VERSION AND ITS ASSOCIATED MODULES  */
                                    5632             +*/*                MUST BE RECOMPILED.                               */
                                    5633             +*/*                THE HARD CODED VALUES IN WSACSTKA AND WSACSTKB    */
                                    5634             +*/*                IN THE IHAWSAVT MACRO MUST BE UPDATED, AND ANY    */
                                    5635             +*/*                MODULES THAT USE THOSE FIELDS SHOULD BE           */
                                    5636             +*/*                RECOMPILED.                                   @P6C*/
                                    5637             +*/*                                                                  */
                                    5638             +*/*                                                                  */
                                    5639             +*/* USAGE =                                                          */
                                    5640             +*/*     THE SDWA HAS EXTENSIONS.  THE SDWAXPAD (X'170') POINTS TO    */
                                    5641             +*/*     AN EXTENSION WHICH IS MADE UP OF POINTERS TO ALL THE OTHER   */
                                    5642             +*/*     EXTENSIONS.  THE MAIN BODY AND POINTERS EXTENSION WILL       */
                                    5643             +*/*     ALWAYS EXIST WHILE THE OTHER EXTENSIONS MAY NOT DEPENDING    */
                                    5644             +*/*     ON THE ERROR ENVIRONMENT.  PHYSICALLY, THE MAIN BODY OF THE  */
                                    5645             +*/*     SDWA COMES FIRST, FOLLOWED BY THE RECORDABLE EXTENSIONS,     */
                                    5646             +*/*     THEN THE POINTERS EXTENSION, AND LAST THE NON-RECORDABLE     */
                                    5647             +*/*     EXTENSIONS.                                                  */
                                    5648             +*/*                                                                  */
                                    5649             +*/*                   ***************                                */
                                    5650             +*/*                   *             *                                */
                                    5651             +*/*                   *    SDWA     *                                */
                                    5652             +*/*                   *             *                                */
                                    5653             +*/*                   ***************                                */
                                    5654             +*/*                   *  SDWARC1    *                                */
                                    5655             +*/*                   ***************                                */
                                    5656             +*/*                   *  SDWARC2    *                                */
                                    5657             +*/*                   ***************                                */
                                    5658             +*/*                   *  SDWARC3    *                                */
                                    5659             +*/*                   ***************                                */
                                    5660             +*/*                   *  SDWARC4    *                            @LIA*/
                                    5661             +*/*                   ***************                                */
                                    5662             +*/*                   *  SDWAPTRS   *                                */
                                    5663             +*/*                   *  --------   *                                */
                                    5664             +*/*                   *    ORDER    *                                */
                                    5665             +*/*                   * => SDWANRC1 *                                */
                                    5666             +*/*                   * => SDWARC1  *                                */
                                    5667             +*/*                   * => SDWARC2  *                                */
                                    5668             +*/*                   * => SDWANRC2 *                            @01C*/
                                    5669             +*/*                   * => SDWARC3  *                            @01C*/
                                    5670             +*/*                   * => SDWANRC3 *                            @L7A*/
                                    5671             +*/*                   * => SDWARC4  *                            @LIA*/
                                    5672             +*/*                   ***************                                */
                                    5673             +*/*                   *  SDWANRC1   *                                */
                                    5674             +*/*                   ***************                                */
                                    5675             +*/*                   *  SDWANRC2   *                                */
                                    5676             +*/*                   ***************                            @L1C*/
                                    5677             +*/*                   *  SDWANRC3   *                                */
1TASKSERV (TASK00) (09:44) (22MAR04) IHAPSAE  - PSA Extension (ESAME)                                                       Page   22
0D-Loc  Object Code    Addr1 Addr2  Stmt Lv Lineno    Source Statement           (Hibal 5, Asmedit 3.3)  HLASM R4.0  2004/03/22 09.44
+_____  ______ ____    _____ _____  ____ __ ______    ______ _________
0                                   5678             +*/*                   ***************                            @L7A*/
                                    5679             +*/*                                                                  */
                                    5680             +*/*                                                                  */
                                    5681             +*/* CHANGE ACTIVITY:                                                 */
                                    5682             +*/* MACMEAN SDWA MEANS SYSTEM DIAGNOSTIC WORK AREA                   */
                                    5683             +*/* MACCOMP SCRTM                                                @PCC*/
                                    5684             +*/* UPDATED 9/23/76 SU33                                     @G33SPHW*/
                                    5685             +*/* UPDATED 8/14/79 OS/VS2 JBB1126  (ADD VRA MAPPING)        @G81EP11*/
                                    5686             +*/* UPDATED 2/1/79  MVS/SYSTEM PRODUCT RELEASE 2             @G381P2F*/
                                    5687             +*/* UPDATED 10/28/80 MVS/SYSTEM PRODUCT VERSION 2 RELEASE 1  @G860P1S*/
                                    5688             +*/* UPDATED 3/2/81   MVS/SYSTEM PRODUCT VERSION 2 RELEASE 1  @G860P38*/
                                    5689             +*/* UPDATED 11/17/81 MVS/SYSTEM PRODUCT VERSION 2 RELEASE 1  @G860P1F*/
                                    5690             +*/*$L1=RAPRAS ,JBB2110,820604,PDA8: ADDED NEW FIELDS IN SDWARC1  @L1A*/
                                    5691             +*/*$L2=DAE    ,JBB2110,820801,PDA8: ADDED SUPPORT FOR DAE        @L2A*/
                                    5692             +*/*$P1=PAB0071,JBB2110,820915,PDA8: CHANGED COMMENTS FOR DAE     @P1A*/
                                    5693             +*/* OZ73969 - MAKE BAL THE SAME AS PL/S.                     @ZA73969*/
                                    5694             +*/*$01=OZ73969,JBB2133,831027,PDA8: APAR OZ73969                 @01A*/
                                    5695             +*/*$H1=VF     ,JBB2214,840202,PDA8: VECTOR FEATURE SUPPORT       @H1A*/
                                    5696             +*/*$L3=RASENH ,JBB2220,840622,PDA8: SUPPORT FOR RETRY OPTIONS    @L3A*/
                                    5697             +*/*$L4=AR     ,HBB3310,850916,PDA8: ACCESS REGISTER SUPPORT      @L4A*/
                                    5698             +*/*$L5=AR     ,HBB3310,850916,PDPY: ACCESS REGISTER SUPPORT      @L5A*/
                                    5699             +*/*$D1=DCR0031,HBB3310,860423,PDT9: IOS LOCK SUPPORT             @D1A*/
                                    5700             +*/*$L6=DATASPAC,HBB3310,860728,PDA8: RSMDS LOCK SUPPORT          @L6A*/
                                    5701             +*/*$L7=DATASPAC,HBB3310,861029,PDT9: PROPAGATION OF DATA SPACE       */
                                    5702             +*/*                                  STORAGE RANGES FOR ABDUMP   @L7A*/
                                    5703             +*/*$D2=DCR0088,HBB3310,861029,PDBD: LOCATING REGS SAVED BY A     @D2A*/
                                    5704             +*/*                                 STACKING PC WITHIN A DUMP    @D2A*/
                                    5705             +*/*$P2=PC40412,HBB3310,861029,PDT9: MOVE SDWAXLST FIELD          @P2A*/
                                    5706             +*/*$P3=PC40460,HBB3310,861215,PDT9: NO LOCKWORD FOR IOS LOCK     @P3A*/
                                    5707             +*/*$P4=PC40713,HBB3310,870225,PDT9: MOVE IOS LOCK BIT            @P4A*/
                                    5708             +*/*$L8=LOCKR  ,HBB4410,870701,PDT9: LOCK RESTRUCTURE             @L8A*/
                                    5709             +*/*$L9=LOCKR  ,HBB4410,870916,PDT9: LOCK RESTRUCTURE             @L9A*/
                                    5710             +*/*$LA=CLOCK  ,HBB4410,870916,PDT9: NEW LOCKS FOR ETR            @LAA*/
                                    5711             +*/*$LB=COUPLRTM,HBB4410,870916,PDT9: NEW LOCKS FOR XCF           @LBA*/
                                    5712             +*/*$LC=JUP03   ,HBB4410,870916,PDT9: NEW LOCKS FOR SMSX          @LCA*/
                                    5713             +*/*$LD=USERV   ,HBB4410,890626,PDCI: NEW IOSULUT LOCK            @LDA*/
                                    5714             +*/*$LE=ANVALPUR,HBB4430,910327,PD00XB: SDWAESTX                  @LEA*/
                                    5715             +*/*                                                                  */
                                    5716             +*/*$LF=SYSLKRTM,HBB5510,900112,PD00XB: NEW IXL LOCKS UPDATE VERSION  */
                                    5717             +*/*$P5=PIG0446 ,HBB5510,911021,PD00CK: DOCUMENT VERSION UPDATE       */
                                    5718             +*/*                                  PROCEDURE.                      */
                                    5719             +*/*$LG=SUBSPRTM,HBB5510,930329,PDKD: NEW FIELDS FOR SUBSPACE     @LGA*/
                                    5720             +*/*$P6=PIG1487 ,HBB5510,930429,PDKD: UPDATE DEPENDENCIES TO INCLUDE  */
                                    5721             +*/*                                  CHANGING THE IHASFPL, AND MINOR */
                                    5722             +*/*                                  COMMENT AND PROLOG UPDATES.     */
                                    5723             +*/*                                  ALSO ADD USABLE LENGTH          */
                                    5724             +*/*                                  CONSTANTS                   @P6A*/
                                    5725             +*/*$P7=PIG1553 ,HBB5510,030507,PDKD: REMOVE A COMMENT * FROM THE     */
                                    5726             +*/*                                  RESERVED FIELD ADDED FOR SUBSP  */
                                    5727             +*/*                                  SUPPORT                     @P7A*/
                                    5728             +*/*$P8=PIG2130 ,HBB5510,930717,PDCJ: ADDED BIT SDWARFXM              */
                                    5729             +*/*$LH=PARADRTM,HBB5510,930909,PDKD: ADDED BIT SDWAPDIP          @LHA*/
                                    5730             +*/*$02=OY66732 ,HBB3310,930908,PDEI: CORRECTED THE DOCUMENTATION     */
                                    5731             +*/*                                  FOR SDWAEC2 AND SDWAINTF    @02A*/
                                    5732             +*/*$P9=PN70279 ,HBB5520,940307,PDKD: CDPI UPDATES                @P9A*/
                                    5733             +*/*$03=OW02796 ,HBB5510,931207,PDKD: TRSQ FOR IXLREQST LOCK      @03A*/
1TASKSERV (TASK00) (09:44) (22MAR04) IHAPSAE  - PSA Extension (ESAME)                                                       Page   23
0D-Loc  Object Code    Addr1 Addr2  Stmt Lv Lineno    Source Statement           (Hibal 5, Asmedit 3.3)  HLASM R4.0  2004/03/22 09.44
+_____  ______ ____    _____ _____  ____ __ ______    ______ _________
0                                   5734             +*/*$LI=RTMLS   ,HBB5520,940315,PDXB: SDWALSLV                        */
                                    5735             +*/*$PA=PN70828  HBB5520 940606 PDKD: CORRECT CONTINUATION COLUMNS    */
                                    5736             +*/*                                  FOR SDWALSLV                @PAA*/
                                    5737             +*/*$04=OW04284  HBB4410 940331 PDKD: ADDED MCHO                  @04A*/
                                    5738             +*/*$PB=PN71617  HBB5520 941007 PDKD: CLARIFY REASON CODE FIELDS  @PBA*/
                                    5739             +*/*$05=OW13819  HBB5520 950614 PDKD: System Name support         @05A*/
                                    5740             +*/*$PC=PR20011  HBB6601 950908 PDKD: SC1CM compid split          @PCA*/
                                    5741             +*/*$LJ=WLMPSAM ,HBB6603,950929,PDKD: WLM locks and RRS locks     @LJA*/
                                    5742             +*/*$PD=PQC0553  HBB6603 951030 PDKD: Remove SETRP support for recent */
                                    5743             +*/*                                  class locks                 @PDA*/
                                    5744             +*/*$PE=PQC0626  HBB6603 951204 PDKD: Update HBB6603 lock order   @PEA*/
                                    5745             +*/*$PF=PQC0643  HBB6603 951207 PDKD: Reinstate SETRP support for     */
                                    5746             +*/*                                  class locks - lockword is NOT   */
                                    5747             +*/*                                  required for SETRP usage    @PFA*/
                                    5748             +*/*$LK=IEEERTM  HBB6606 970807 PDXB: FP simulation                   */
                                    5749             +*/*$LI=64BITRTM HBB7703 971031 PDKD: 64-bit register support         */
                                    5750             +*/*$PG=PXD0681  HBB7703 991110 PDKD: move SDWAKEAX                   */
                                    5751             +*/*$PH=PXD1313  HBB7703 000211 PDKD: add SDWAARCH                    */
                                    5752             +*/*                                                                  */
                                    5753             +*/* CAUTION: when the size of SDWA sections changes, be sure to      */
                                    5754             +*/* regenerate IHART1WF and recompile IEAVWSAT                       */
                                    5755             +*/*                                                                  */
                                    5756             +*/*** END OF SPECIFICATIONS ******************************************/
                                    5757             +*%       GOTO SDWABSL;  /*
 000000                00000 00298  5758    01-IHASD +SDWA     DSECT ,       SDWAPTR
-000000                             5760    01-IHASD +SDWAPARM DS    A -     PARAMETER LIST ADDRESS IF (E)STAE MACRO
                                    5761             +*                      SPECIFIED PARAM OPTION OR 0. FOR FRRS THIS
                                    5762             +*                      IS THE ADDRESS OF THE 6 WORD PARM AREA
                                    5763             +*                      RETURNED BY THE SETFRR MACRO WHEN THE
                                    5764             +*                      PARMAD KEYWORD IS SPECIFIED ON THE SETFRR
                                    5765             +*                      FOR AN ARR, THIS IS THE ADDRESS OF THE 8-BYTES
                                    5766             +*                       OF THE MSTA AREA.
                                    5767             +*                      FOR ESTAEX, THIS IS THE ADDRESS OF 8-BYTES
                                    5768             +*                      CONTAINING THE ADDRESS AND ALET OF THE
                                    5769             +*                      PARAMETER LIST.
 000004                             5770    01-IHASD +SDWAFIOB DS    0A -    ADDRESS OF PURGE I/O REQUEST LIST (PIRL)
                                    5771             +*                      OR 0 IF HALT I/O IS REQUESTED ON ENTRY TO
                                    5772             +*                      RETRY ROUTINE FOR (E)STAE.
 000004                             5773    01-IHASD +SDWAABCC DS    0BL4 -  ABEND COMPLETION CODE ON ENTRY TO EXIT ROUTINE.
 000004                             5774    01-IHASD +SDWACMPF DS    B -     FLAG BITS IN COMPLETION CODE.
                                    5775    01-IHASD +SDWAREQ  EQU   X'80' - ON, SYSABEND/SYSMDUMP/SYSUDUMP DUMP TO BE
                                    5776             +*                      GIVEN.  SET IF DUMP=YES REQUESTED ON ABEND,
                                    5777             +*                      CALLRTM OR SETRP MACRO.
                                    5778    01-IHASD +SDWASTEP EQU   X'40' - ON, JOBSTEP TO BE TERMINATED.
                                    5779             +*                      SET IF STEP OPTION SPECIFIED
                                    5780             +*                      ON ABEND MACRO.
                                    5781    01-IHASD +SDWASTCC EQU   X'10' - ON, DON'T STORE COMPLETION CODE.
                                    5782             +*                      NOT USED IN OS/VS2 R2.
                                    5783    01-IHASD +SDWARCF  EQU   X'04' - ON, REASON CODE IN SDWACRC IS VALID         @PBC
 000005                             5784    01-IHASD +SDWACMPC DS    BL3 -   SYSTEM COMPLETION CODE (FIRST 12 BITS) AND
                                    5785             +*                      USER COMPLETION CODE (SECOND 12 BITS).
 000008                             5786    01-IHASD +SDWACTL1 DS    0CL8 -  BC MODE PSW AT TIME OF ERROR
                                    5787             +*                      NOT INITIALIZED FOR FRRS.
 000008                             5788    01-IHASD +SDWACMKA DS    B -     CHANNEL INTERRUPT MASKS.
1TASKSERV (TASK00) (09:44) (22MAR04) IHAPSAE  - PSA Extension (ESAME)                                                       Page   24
0D-Loc  Object Code    Addr1 Addr2  Stmt Lv Lineno    Source Statement           (Hibal 5, Asmedit 3.3)  HLASM R4.0  2004/03/22 09.44
+_____  ______ ____    _____ _____  ____ __ ______    ______ _________
0                                   5789    01-IHASD +SDWAIOA  EQU   X'FE' - I/O INTERRUPTS (ALL ZEROS OR ALL ONES).
                                    5790    01-IHASD +SDWAEXTA EQU   X'01' - EXTERNAL INTERRUPT.
 000009                             5791    01-IHASD +SDWAMWPA DS    B -     PSW KEY AND 'M-W-P'.
                                    5792    01-IHASD +SDWAKEYA EQU   X'F0' - PSW KEY.
                                    5793    01-IHASD +SDWAMCKA EQU   X'04' - MACHINE CHECK INTERRUPT.
                                    5794    01-IHASD +SDWAWATA EQU   X'02' - WAIT STATE.
                                    5795    01-IHASD +SDWASPVA EQU   X'01' - SUPERVISOR/PROBLEM-PROGRAM MODE.
 00000A                             5796    01-IHASD +SDWAINTA DS    CL2 -   INTERRUPT CODE (LAST 2 BYTES OF INTERRUPT
                                    5797             +*                      CODE IF I/O INTERRUPT).
 00000C                             5798    01-IHASD +SDWAPMKA DS    B -     INSTRUCTION LENGTH CODE, CONDITION CODE,
                                    5799             +*                      AND PROGRAM MASKS.
                                    5800    01-IHASD +SDWAILA  EQU   X'C0' - INSTRUCTION LENGTH CODE.
                                    5801    01-IHASD +SDWACCA  EQU   X'30' - LAST CONDITION CODE.
                                    5802    01-IHASD +SDWAFPA  EQU   X'08' - FIXED-POINT OVERFLOW.
                                    5803    01-IHASD +SDWADOA  EQU   X'04' - DECIMAL OVERFLOW.
                                    5804    01-IHASD +SDWAEUA  EQU   X'02' - EXPONENT UNDERFLOW.
                                    5805    01-IHASD +SDWASGA  EQU   X'01' - SIGNIFICANCE.
 00000D                             5806    01-IHASD +SDWANXTA DS    AL3 -   ADDRESS OF NEXT INSTRUCTION TO BE EXECUTED.
                                    5807             +
 000010                             5808    01-IHASD +SDWACTL2 DS    0CL8 -  BC MODE PSW FROM LAST PRB ON RB CHAIN.
                                    5809             +*                      ZERO FOR FRRS.
 000010                             5810    01-IHASD +SDWACMKP DS    B -     CHANNEL INTERRUPT MASKS.
                                    5811    01-IHASD +SDWAIOP  EQU   X'FE' - I/O INTERRUPTS (ALL ZEROS OR ALL ONES).
                                    5812    01-IHASD +SDWAEXTP EQU   X'01' - EXTERNAL INTERRUPT.
 000011                             5813    01-IHASD +SDWAMWPP DS    B -     PSW KEY AND 'M-W-P'.
                                    5814    01-IHASD +SDWAKEYP EQU   X'F0' - PSW KEY.
                                    5815    01-IHASD +SDWAMCKP EQU   X'04' - MACHINE CHECK INTERRUPT.
                                    5816    01-IHASD +SDWAWATP EQU   X'02' - WAIT STATE.
                                    5817    01-IHASD +SDWASPVP EQU   X'01' - SUPERVISOR/PROBLEM-PROGRAM MODE.
 000012                             5818    01-IHASD +SDWAINTP DS    CL2 -   INTERRUPT CODE (LAST 2 BYTES OF INTERRUPT
                                    5819             +*                      CODE IF I/O INTERRUPT).
 000014                             5820    01-IHASD +SDWAPMKP DS    B -     INSTRUCTION LENGTH CODE, CONDITION CODE,
                                    5821             +*                      AND PROGRAM MASKS.
                                    5822    01-IHASD +SDWAILP  EQU   X'C0' - INSTRUCTION LENGTH CODE.
                                    5823    01-IHASD +SDWACCP  EQU   X'30' - LAST CONDITION CODE.
                                    5824    01-IHASD +SDWAFPP  EQU   X'08' - FIXED-POINT OVERFLOW.
                                    5825    01-IHASD +SDWADOP  EQU   X'04' - DECIMAL OVERFLOW.
                                    5826    01-IHASD +SDWAEUP  EQU   X'02' - EXPONENT UNDERFLOW.
                                    5827    01-IHASD +SDWASGP  EQU   X'01' - SIGNIFICANCE.
 000015                             5828    01-IHASD +SDWANXTP DS    AL3 -   ADDRESS OF NEXT INSTRUCTION TO BE EXECUTED.
                                    5829             +
 000018                             5830    01-IHASD +SDWAGRSV DS    0CL64 - GENERAL PURPOSE REGISTERS AT TIME OF ERROR
 000018                             5831    01-IHASD +SDWAGR00 DS    F -     GPR 0.
 00001C                             5832    01-IHASD +SDWAGR01 DS    F -     GPR 1.
 000020                             5833    01-IHASD +SDWAGR02 DS    F -     GPR 2.
 000024                             5834    01-IHASD +SDWAGR03 DS    F -     GPR 3.
 000028                             5835    01-IHASD +SDWAGR04 DS    F -     GPR 4.
 00002C                             5836    01-IHASD +SDWAGR05 DS    F -     GPR 5.
 000030                             5837    01-IHASD +SDWAGR06 DS    F -     GPR 6.
 000034                             5838    01-IHASD +SDWAGR07 DS    F -     GPR 7.
 000038                             5839    01-IHASD +SDWAGR08 DS    F -     GPR 8.
 00003C                             5840    01-IHASD +SDWAGR09 DS    F -     GPR 9.
 000040                             5841    01-IHASD +SDWAGR10 DS    F -     GPR 10.
 000044                             5842    01-IHASD +SDWAGR11 DS    F -     GPR 11.
 000048                             5843    01-IHASD +SDWAGR12 DS    F -     GPR 12.
 00004C                             5844    01-IHASD +SDWAGR13 DS    F -     GPR 13.
1TASKSERV (TASK00) (09:44) (22MAR04) IHAPSAE  - PSA Extension (ESAME)                                                       Page   25
0D-Loc  Object Code    Addr1 Addr2  Stmt Lv Lineno    Source Statement           (Hibal 5, Asmedit 3.3)  HLASM R4.0  2004/03/22 09.44
+_____  ______ ____    _____ _____  ____ __ ______    ______ _________
0000050                             5845    01-IHASD +SDWAGR14 DS    F -     GPR 14.
 000054                             5846    01-IHASD +SDWAGR15 DS    F -     GPR 15.
                                    5847             +
 000058                             5848    01-IHASD +SDWANAME DS    0CL8 -  IF PROBLEM PROGRAM MODE NAME
                                    5849             +*                      OF ABENDING PROGRAM, OR ZERO
                                    5850             +*                      IF NO NAME IS AVAILABLE.
                                    5851             +*                      ZERO IF NOT RUNNING UNDER AN RB
 000058                             5852    01-IHASD +SDWARBAD DS    A -     RB ADDRESS OF ABENDING PROGRAM (IF SUPERVISOR
                                    5853             +*                      MODE PROGRAM RUNNING UNDER AN RB)
 00005C                             5854    01-IHASD +         DS    XL4 -   CONTAINS ZEROS IF SUPERVISOR MODE PROGRAM
                                    5855             +*                      RUNNING UNDER AN RB OR IF PROGRAM NOT
                                    5856             +*                      RUNNING UNDER AN RB
 000060                             5857    01-IHASD +SDWAEPA  DS    A -     ENTRY POINT ADDRESS OF ABENDING PROGRAM.
                                    5858             +*                      ZERO IF NOT RUNNING UNDER AN RB
 000064                             5859    01-IHASD +SDWAIOBR DS    A -     POINTER TO SDWAFIOB FIELD,
                                    5860             +*                      OR 0 IF NO RETRY, OR 0 IF HALT I/O
                                    5861             +*                      IS REQUESTED FOR (E)STA EXITS.
                                    5862             +*                      ZERO FOR FRRS                           ICB377
 000068                             5863    01-IHASD +SDWAEC1  DS    0CL8    EXTENDED CONTROL PSW AT TIME OF ERROR(ABEND)
 000068                             5864    01-IHASD +SDWAEMK1 DS    B       INTERRUPT INFORMATION MASKS
                                    5865    01-IHASD +SDWAPER1 EQU   X'40'   ON,PROGRAM EVENT RECORDING
                                    5866             +*                      INTERRUPTS CAN OCCUR
                                    5867             +*                      OFF, PROGRAM EVENT RECORDING
                                    5868             +*                      INTERRUPTS CANNOT OCCUR
                                    5869    01-IHASD +SDWATRM1 EQU   X'04'   ON,ADDRESS TRANSLATION ACTIVE
                                    5870    01-IHASD +SDWAIO1  EQU   X'02'   OFF,I/0 INTERRUPTION CAN NOT OCCUR
                                    5871             +*                      ON,I/0 INTERRUPTIONS CAN OCCUR SUBJECT TO
                                    5872             +*                      TO CHANNEL MASK BITS IN CONTROL REGS 2 AND 3
                                    5873    01-IHASD +SDWAEXT1 EQU   X'01'   OFF,EXTERNAL INTERRUPTION CANNOT OCCUR
                                    5874             +*                      ON,EXTERNAL INTERRUPTIONS CAN OCCUR SUBJECT TO
                                    5875             +*                      EXTERNAL SUBCLASS MASK BITS OF CONTROL REG 0
 000069                             5876    01-IHASD +SDWAMWP1 DS    B       PSW KEY AND 'M-W-P'
                                    5877    01-IHASD +SDWAKEY1 EQU   X'F0'   PSW KEY
                                    5878    01-IHASD +SDWAECT1 EQU   X'08'   EXTENDED CONTROL MODE BIT
                                    5879    01-IHASD +SDWAMCK1 EQU   X'04'   OFF,MACHINE CHECK CANNOT OCCUR
                                    5880             +*                      ON,MACHINE CHECK DUE TO SYSTEM DAMAGE AND
                                    5881             +*                      INSTRUCTION-PROCESSING DAMAGE CAN OCCUR
                                    5882             +*                      OTHER MACHINE CHECKS SUBJECT TO MASK BITS
                                    5883             +*                      IN CONTROL REGISTER 14
                                    5884    01-IHASD +SDWAWAT1 EQU   X'02'   ON,CPU IN WAIT STATE
                                    5885    01-IHASD +SDWAPGM1 EQU   X'01'   ON,PROBLEM STATE
                                    5886             +*                      OFF, SUPERVISOR STATE
 00006A                             5887    01-IHASD +SDWAINT1 DS    B       CONDITION CODE AND PROGRAM MASK
                                    5888    01-IHASD +SDWAASCM EQU   X'C0'   ADDRESS SPACE CONTROL MODE BITS
                                    5889             +*                      00 - PRIMARY MODE
                                    5890             +*                      01 - ACCESS REGISTER MODE
                                    5891             +*                      10 - SECONDARY MODE
                                    5892             +*                      11 - HOME SPACE MODE                        @L4A
                                    5893    01-IHASD +SDWAS1   EQU   X'80'   ADDRESS SPACE SELECTION BIT             @G381P2F
                                    5894    01-IHASD +SDWACC1  EQU   X'30'   CONDITION CODE
                                    5895    01-IHASD +SDWAFPO1 EQU   X'08'   FIXED POINT OVERFLOW
                                    5896    01-IHASD +SDWADEC1 EQU   X'04'   DECIMAL OVERFLOW
                                    5897    01-IHASD +SDWAEXP1 EQU   X'02'   EXPONENT UNDERFLOW
                                    5898    01-IHASD +SDWASGN1 EQU   X'01'   SIGNIFICANCE
 00006B                             5899    01-IHASD +         DS    B       RESERVED
 00006C                             5900    01-IHASD +SDWANXT1 DS    0F      ADDRESS OF NEXT INSTRUCTION TO BE EXECUTED.
1TASKSERV (TASK00) (09:44) (22MAR04) IHAPSAE  - PSA Extension (ESAME)                                                       Page   26
0D-Loc  Object Code    Addr1 Addr2  Stmt Lv Lineno    Source Statement           (Hibal 5, Asmedit 3.3)  HLASM R4.0  2004/03/22 09.44
+_____  ______ ____    _____ _____  ____ __ ______    ______ _________
000006C                             5901    01-IHASD +SDWAAMF1 DS    B       ADDRESSING MODE FLAG                    @G860P1S
                                    5902    01-IHASD +SDWAMOD1 EQU   X'80'   ADDRESSING MODE OF THE NEXT INSTRUCTION @G860P1S
                                    5903             +*                      TO BE EXECUTED.                         @G860P1S
 00006D                             5904    01-IHASD +SDWAADD1 DS    CL3     INSTRUCTION ADDRESS
 000070                             5905    01-IHASD +SDWAAEC1 DS    0CL8    ADDITIONAL EC MODE INFORMATION
 000070                             5906    01-IHASD +         DS    CL1     RESERVED
 000071                             5907    01-IHASD +SDWAILC1 DS    B       INSTRUCTION LENGTH CODE FOR PSW DEFINED
                                    5908             +*                      BY SDWAEC1
                                    5909    01-IHASD +SDWAIL1  EQU   X'06'   ILC
 000072                             5910    01-IHASD +SDWAINC1 DS    0CL2    INTERRUPT CODE. IF PROGRAM CHECK OCCURRED
                                    5911             +*                      THE SUBFIELDS ARE FURTHER DIVIDED
 000072                             5912    01-IHASD +         DS    CL1     RESERVED FOR IMPRECISE INTERRUPTS
                                    5913             +*                      ON PROGRAM CHECK INTERRUPT
 000073                             5914    01-IHASD +SDWAICD1 DS    B       8 BIT INTERRUPT CODE
                                    5915             +*                      IF PROGRAM CHECK
                                    5916    01-IHASD +SDWAIPR1 EQU   X'80'   PER INTERRUPT OCCURRED
                                    5917    01-IHASD +SDWAIMC1 EQU   X'40'   MONITOR CALL INTERRUPT OCCURRED
                                    5918    01-IHASD +SDWAIPC1 EQU   X'3F'   AN UNSOLICITED PROGRAM CHECK
                                    5919             +*                      HAS OCCURRED
 000074                             5920    01-IHASD +SDWATRAN DS    A       VIRTUAL ADDRESS CAUSING TRANSLATION
                                    5921             +*                      EXCEPTION
 000078                00078 00077  5922    01-IHASD +         ORG   SDWATRAN+3                                          @LKA
 000077                             5923    01-IHASD +SDWADXC  DS    X       Data exception code when program interrupt
                                    5924             +*                      code 7                                      @LKA
 000078                             5925    01-IHASD +SDWAEC2  DS    0CL8    EXTENDED CONTROL PSW FROM THE RB LEVEL OR
                                    5926             +*                      LINKAGE STACK LEVEL WHICH CREATED THE
                                    5927             +*                      ESTAE EXIT AT THE TIME IT LAST
                                    5928             +*                      INCURRED AN INTERRUPT OR 0 FOR ESTAI.       @02C
                                    5929             +*                      OR PSW USED TO GIVE FRR CONTROL
 000078                             5930    01-IHASD +SDWAEMK2 DS    B       INTERRUPT INFORMATION MASKS
                                    5931    01-IHASD +SDWAPER2 EQU   X'40'   ON,PROGRAM EVENT RECORDING
                                    5932             +*                      INTERRUPTS CAN OCCUR
                                    5933             +*                      OFF,PROGRAM EVENT RECORDING
                                    5934             +*                      INTERRUPTS CANNOT OCCUR
                                    5935    01-IHASD +SDWATRM2 EQU   X'04'   ON,ADDRESS TRANSLATION ACTIVE
                                    5936    01-IHASD +SDWAIO2  EQU   X'02'   OFF,I/0 INTERRUPTION CANNOT OCCUR
                                    5937             +*                      ON,I/0 INTERRUPTIONS CAN OCCUR SUBJECT TO
                                    5938             +*                      TO CHANNEL MASK BITS IN CONTROL REGS 2 AND 3
                                    5939    01-IHASD +SDWAEXT2 EQU   X'01'   OFF,EXTERNAL INTERRUPTION CANNOT OCCUR
                                    5940             +*                      ON,EXTERNAL INTERRUPTIONS CAN OCCUR SUBJECT TO
                                    5941             +*                      EXTERNAL SUBCLASS MASK BITS OF CONTROL REG 0
 000079                             5942    01-IHASD +SDWAMWP2 DS    B       PSW KEY AND 'M-W-P'
                                    5943    01-IHASD +SDWAKEY2 EQU   X'F0'   PSW KEY
                                    5944    01-IHASD +SDWAECT2 EQU   X'08'   EXTENDED CONTROL MODE BIT
                                    5945    01-IHASD +SDWAMCK2 EQU   X'04'   OFF,MACHINE CHECK CANNOT OCCUR
                                    5946             +*                      ON,MACHINE CHECK DUE TO SYSTEM DAMAGE AND
                                    5947             +*                      INSTRUCTION-PROCESSING DAMAGE CAN OCCUR
                                    5948             +*                      OTHER MACHINE CHECKS SUBJECT TO MASK BITS
                                    5949             +*                      IN CONTROL REGISTER 14
                                    5950    01-IHASD +SDWAWAT2 EQU   X'02'   ON,CPU IN WAIT STATE
                                    5951    01-IHASD +SDWAPGM2 EQU   X'01'   ON,PROBLEM STATE
                                    5952             +*                      OFF, SUPERVISOR STATE
 00007A                             5953    01-IHASD +SDWAINT2 DS    B       CONDITION CODE AND PROGRAM MASK
                                    5954    01-IHASD +SDWAS2   EQU   X'80'   ADDRESS SPACE SELECTION BIT             @G381P2F
                                    5955    01-IHASD +SDWACC2  EQU   X'30'   CONDITION CODE
                                    5956    01-IHASD +SDWAFPO2 EQU   X'08'   FIXED POINT OVERFLOW
1TASKSERV (TASK00) (09:44) (22MAR04) IHAPSAE  - PSA Extension (ESAME)                                                       Page   27
0D-Loc  Object Code    Addr1 Addr2  Stmt Lv Lineno    Source Statement           (Hibal 5, Asmedit 3.3)  HLASM R4.0  2004/03/22 09.44
+_____  ______ ____    _____ _____  ____ __ ______    ______ _________
0                                   5957    01-IHASD +SDWADEC2 EQU   X'04'   DECIMAL OVERFLOW
                                    5958    01-IHASD +SDWAEXP2 EQU   X'02'   EXPONENT UNDERFLOW
                                    5959    01-IHASD +SDWASGN2 EQU   X'01'   SIGNIFICANCE
 00007B                             5960    01-IHASD +         DS    B       RESERVED
 00007C                             5961    01-IHASD +SDWANXT2 DS    0F      ADDRESS OF NEXT INSTRUCTION TO BE
                                    5962             +*                      EXECUTED
 00007C                             5963    01-IHASD +SDWAAMF2 DS    B       ADDRESSING MODE FLAG                    @G860P1S
                                    5964    01-IHASD +SDWAMOD2 EQU   X'80'   ADDRESSING MODE OF THE NEXT INSTRUCTION @G860P1S
                                    5965             +*                      TO BE EXECUTED.                         @G860P1S
 00007D                             5966    01-IHASD +SDWAADD2 DS    CL3     INSTRUCTION ADDRESS
 000080                             5967    01-IHASD +SDWAAEC2 DS    0CL8    ADDITIONAL EC MODE INFORMATION
 000080                             5968    01-IHASD +         DS    CL1     RESERVED
 000081                             5969    01-IHASD +SDWAILC2 DS    B       INSTRUCTION LENGTH CODE FOR PSW DEFINED
                                    5970             +*                      BY SDWAEC2
                                    5971    01-IHASD +SDWAIL2  EQU   X'06'   ILC
 000082                             5972    01-IHASD +SDWAINC2 DS    0CL2    INTERRUPT CODE. IF PROGRAM CHECK OCCURRED
                                    5973             +*                      THE SUBFIELDS ARE FURTHER DIVIDED
 000082                             5974    01-IHASD +         DS    CL1     RESERVED FOR IMPRECISE INTERRUPTS
                                    5975             +*                      ON PROGRAM CHECK INTERRUPT
 000083                             5976    01-IHASD +SDWAICD2 DS    B       8 BIT INTERRUPT CODE
                                    5977             +*                      IF PROGRAM CHECK
                                    5978    01-IHASD +SDWAIPR2 EQU   X'80'   PER INTERRUPT OCCURRED
                                    5979    01-IHASD +SDWAIMC2 EQU   X'40'   MONITOR CALL INTERRRUPT OCCURRED
                                    5980    01-IHASD +SDWAIPC2 EQU   X'3F'   AN UNSOLICITED PROGRAM CHECK
                                    5981             +*                      HAS OCCURRED
 000084                             5982    01-IHASD +SDWATRN2 DS    A       VIRTUAL ADDRESS CAUSING TRANSLATION
                                    5983             +*                      EXCEPTION
 000088                             5984    01-IHASD +SDWASRSV DS    0CL64   GENERAL PURPOSE REGISTERS OF THE RB LEVEL OR
                                    5985             +*                      LINKAGE STACK LEVEL
                                    5986             +*                      WHICH CREATED THE ESTAE EXIT AT THE TIME
                                    5987             +*                      IT LAST INCURRED AN INTERRUPT OR 0 FOR ESTAI
                                    5988             +*                      FOR FRRS INITIALIZED TO REGISTERS
                                    5989             +*                      AT TIME OF ERROR.
                                    5990             +*                      THIS REGISTER AREA IS USED TO
                                    5991             +*                      UPDATE REGISTER CONTENTS FOR RETRY IF REQUESTED
 000088                             5992    01-IHASD +SDWASR00 DS    F       GPR 0.
 00008C                             5993    01-IHASD +SDWASR01 DS    F       GPR 1.
 000090                             5994    01-IHASD +SDWASR02 DS    F       GPR 2.
 000094                             5995    01-IHASD +SDWASR03 DS    F       GPR 3.
 000098                             5996    01-IHASD +SDWASR04 DS    F       GPR 4.
 00009C                             5997    01-IHASD +SDWASR05 DS    F       GPR 5.
 0000A0                             5998    01-IHASD +SDWASR06 DS    F       GPR 6.
 0000A4                             5999    01-IHASD +SDWASR07 DS    F       GPR 7.
 0000A8                             6000    01-IHASD +SDWASR08 DS    F       GPR 8.
 0000AC                             6001    01-IHASD +SDWASR09 DS    F       GPR 9.
 0000B0                             6002    01-IHASD +SDWASR10 DS    F       GPR 10.
 0000B4                             6003    01-IHASD +SDWASR11 DS    F       GPR 11.
 0000B8                             6004    01-IHASD +SDWASR12 DS    F       GPR 12.
 0000BC                             6005    01-IHASD +SDWASR13 DS    F       GPR 13.
 0000C0                             6006    01-IHASD +SDWASR14 DS    F       GPR 14.
 0000C4                             6007    01-IHASD +SDWASR15 DS    F       GPR 15.
                                    6008             +
 0000C8                             6009    01-IHASD +SDWAIDNT DS    0CL4    SDWA IDENTIFICATION ATTRIBUTES
 0000C8                             6010    01-IHASD +SDWASPID DS    CL1     SUBPOOL ID OF STORAGE CONTAINING THIS SDWA
 0000C9                             6011    01-IHASD +SDWALNTH DS    CL3     LENGTH OF THIS SDWA IN BYTES
 0000CC                             6012    01-IHASD +SDWAMCH  DS    0CL28   CONTAINS MACHINE CHECK DATA
1TASKSERV (TASK00) (09:44) (22MAR04) IHAPSAE  - PSA Extension (ESAME)                                                       Page   28
0D-Loc  Object Code    Addr1 Addr2  Stmt Lv Lineno    Source Statement           (Hibal 5, Asmedit 3.3)  HLASM R4.0  2004/03/22 09.44
+_____  ______ ____    _____ _____  ____ __ ______    ______ _________
0                                   6013             +*                      IF SDWAMCHK IS ON
 0000CC                             6014    01-IHASD +SDWASTCK DS    0CL8    BEGINNING AND ENDING STORAGE CHECK ADDRESSES.
                                    6015             +*                      FILLED IN DUE TO STORAGE ERROR (SDWASCK)
                                    6016             +*                      OR A KEY FAILURE (SDWASKYF).
                                    6017             +*                      THESE ADDRESSES ARE VALID ONLY IF
                                    6018             +*                      INDICATED BY THE SDWASRVL FLAG.
 0000CC                             6019    01-IHASD +SDWASCKB DS    A       BEGINNING VIRTUAL ADDRESS OF STORAGE CHECK
 0000D0                             6020    01-IHASD +SDWASCKE DS    A       ENDING VIRTUAL ADDRESS OF STORAGE CHECK
                                    6021             +
 0000D4                             6022    01-IHASD +SDWAMCHI DS    0BL2    ADDITIONAL MCH INFORMATION FLAGS
 0000D4                             6023    01-IHASD +SDWAMCHS DS    B       MCH FLAG BYTE
                                    6024    01-IHASD +SDWASRVL EQU   X'80'   ON,STORAGE ADDRESSES SUPPLIED
                                    6025             +*                      (SDWASTCK, SDWARFSA) ARE VALID.
                                    6026             +*                      On ESAME system, SDWARFSA contains
                                    6027             +*                      only the low word of the FSA.
                                    6028             +*                      SDWARFSE contains the 8-byte FSA.
                                    6029    01-IHASD +SDWARCDF EQU   X'40'   ON,MACHINE CHECK RECORD NOT RECORDED
                                    6030    01-IHASD +SDWATSVL EQU   X'20'   ON,TIME STAMP IS VALID
                                    6031    01-IHASD +SDWAINVP EQU   X'10'   ON,STORAGE IS RECONFIGURED, PAGE IS INVALIDATED
                                    6032    01-IHASD +SDWARSRC EQU   X'08'   ON,STORAGE RECONFIGURATION (SDWARSR1,SDWARSR2)
                                    6033             +*                      STATUS AVAILABLE.
                                    6034    01-IHASD +SDWARSRF EQU   X'04'   ON,STORAGE RECONFIGURATION NOT ATTEMPTED.
                                    6035             +*                      (SDWARSR1 AND SDWARSR2 ARE INVALID)
                                    6036    01-IHASD +SDWAVRIV EQU   X'02'   ON, INDICATES VECTOR REGISTERS ARE UNPREDICTABLE
                                    6037             +*                                                                  @H1A
                                    6038    01-IHASD +SDWAARGU EQU   X'01'   ON, INDICATES ACCESS REGISTERS ARE UNPREDICTABLE
                                    6039             +*                                                                  @L5A
 0000D5                             6040    01-IHASD +SDWAMCHD DS    B       INPUT INFORMATION TO RECOVERY ROUTINE CONCERNING
                                    6041             +*                      A MACHINE CHECK ERROR
                                    6042    01-IHASD +SDWASKYF EQU   X'80'   ON,STORAGE KEY FAILURE
                                    6043    01-IHASD +SDWAREGU EQU   X'40'   ON,GENERAL PURPOSE REGISTER CONTENTS AT TIME OF
                                    6044             +*                      MACHINE CHECK UNPREDICTABLE
                                    6045    01-IHASD +SDWAPSWU EQU   X'20'   ON,PSW AND/OR CONTROL REGISTERS AT TIME OF
                                    6046             +*                      MACHINE CHECK UNPREDICTABLE
                                    6047    01-IHASD +SDWASCK  EQU   X'10'   ON,INDICATES STORAGE DATA CHECK
                                    6048    01-IHASD +SDWAACR  EQU   X'08'   ON,INDICATES ACR REQUEST
                                    6049    01-IHASD +SDWAINSF EQU   X'04'   ON,INSTRUCTION FAILURE
                                    6050    01-IHASD +SDWAFPRX EQU   X'02'   ON,CONTENTS OF FLOATING POINT REGISTERS AT TIME
                                    6051             +*                      MACHINE CHECK ARE UNPREDICTABLE
                                    6052    01-IHASD +SDWATERR EQU   X'01'   ON,TIMER ERROR - CAUSES ENTRY TO
                                    6053             +*                      RECOVERY ROUTINES ONLY IF LOGOUT
                                    6054             +*                      FAILED.
 0000D6                             6055    01-IHASD +SDWACPID DS    CL2     ID OF OF FAILING CPU CAUSING ACR
                                    6056             +
 0000D8                             6057    01-IHASD +SDWARSR1 DS    B       ADDITIONAL STORAGE FRAME ERROR INDICATORS
                                    6058             +*                      AS RETURNED FROM REAL STORAGE RECONFIGURATION.
                                    6059    01-IHASD +SDWAPREF EQU   X'20'   PREFERRED FRAME                         @G860P1F
                                    6060    01-IHASD +SDWAVRCN EQU   X'10'   V = R CANDIDATE - CAN GO OFFLINE        @G860P1F
                                    6061    01-IHASD +SDWANSWP EQU   X'08'   LONG-TERM NON-SWAPPABLE ADDRESS SPACE   @G860P1F
                                    6062    01-IHASD +SDWANSWA EQU   X'04'   NON-SWAPPABLE ADDRESS SPACE             @G860P1F
                                    6063    01-IHASD +SDWAMSER EQU   X'02'   STORAGE ERROR ALREADY SET IN FRAME.
                                    6064    01-IHASD +SDWACHNG EQU   X'01'   CHANGE INDICATOR WAS ON IN FRAME.
 0000D9                             6065    01-IHASD +SDWARSR2 DS    B       ADDITIONAL STORAGE ERROR INDICATORS.
                                    6066    01-IHASD +SDWAOFLN EQU   X'80'   FRAME OFFLINE OR SCHEDULED TO GO OFFLINE
                                    6067             +*                      IF SDWAINTC IS ON
                                    6068    01-IHASD +SDWAINTC EQU   X'40'   INTERCEPT
1TASKSERV (TASK00) (09:44) (22MAR04) IHAPSAE  - PSA Extension (ESAME)                                                       Page   29
0D-Loc  Object Code    Addr1 Addr2  Stmt Lv Lineno    Source Statement           (Hibal 5, Asmedit 3.3)  HLASM R4.0  2004/03/22 09.44
+_____  ______ ____    _____ _____  ____ __ ______    ______ _________
0                                   6069             +*                      THE FRAME IS SCHEDULED TO GO OFFLINE,
                                    6070             +*                                   OR
                                    6071             +*                      THE FRAME HAS INCURRED A STORAGE ERROR,
                                    6072             +*                      OR IS V=R INTERCEPTED                   @G860P1F
                                    6073    01-IHASD +SDWASPER EQU   X'20'   STORAGE ERROR PERMANENT ON FRAME.
                                    6074    01-IHASD +SDWANUCL EQU   X'10'   FRAME CONTAINS PERMANENT RESIDENT STORAGE,
                                    6075             +*                      I.E. NUCLEUS.
                                    6076    01-IHASD +SDWAFSQA EQU   X'08'   FRAME IN SQA
                                    6077    01-IHASD +SDWAFLSQ EQU   X'04'   FRAME IN LSQA
                                    6078    01-IHASD +SDWAPGFX EQU   X'02'   FRAME IS PAGE FIXED
                                    6079    01-IHASD +SDWAVEQR EQU   X'01'   FRAME IS VIRTUAL = REAL                 @G860P1F
 0000DA                             6080    01-IHASD +SDWAMCHO DS    B       OTHER MACHINE CHECK FLAGS                   @04A
                                    6081    01-IHASD +SDWASKPR EQU   X'80'   SKIP RECORDING REQUESTED BY MACHINE CHECK   @04A
 0000DB                             6082    01-IHASD +         DS    CL1     RESERVED                                    @04C
 0000DC                             6083    01-IHASD +SDWARFSA DS    A       REAL STORAGE FAILING ADDRESS  ( VALID ONLY IF
                                    6084             +*                      INDICATED BY SDWASRVL )
 0000E0                             6085    01-IHASD +SDWATIME DS    CL8     TIME STAMP OF ASSOCIATED MACHINE CHECK RECORD
 0000E8                             6086    01-IHASD +SDWAFLGS DS    0BL4    INPUT FLAGS DESCRIBING REASONS AND CONDITIONS
                                    6087             +*                      FOR ENTERING A RECOVERY EXIT ROUTINE.
 0000E8                             6088    01-IHASD +SDWAERRA DS    B       ERROR TYPE CAUSING ENTRY TO RECOVERY EXIT
                                    6089    01-IHASD +SDWAMCHK EQU   X'80'   ON INDICATES MACHINE CHECK
                                    6090    01-IHASD +SDWAPCHK EQU   X'40'   ON INDICATES PROGRAM CHECK
                                    6091    01-IHASD +SDWARKEY EQU   X'20'   ON INDICATES CONSOLE RESTART KEY WAS DEPRESSED
                                    6092    01-IHASD +SDWASVCD EQU   X'10'   ON INDICATES TASK ISSUED SVC 13
                                    6093    01-IHASD +SDWAABTM EQU   X'08'   ON INDICATES SYSTEM FORCED SVC 13(I.E.ABTERM)
                                    6094    01-IHASD +SDWASVCE EQU   X'04'   ON,INDICATES AN SVC WAS ISSUED BY
                                    6095             +*                      A LOCKED OR SRB ROUTINE
                                    6096    01-IHASD +SDWATEXC EQU   X'02'   ON,INDICATES AN UNRECOVERABLE TRANSLATION
                                    6097             +*                      FAILURE
                                    6098    01-IHASD +SDWAPGIO EQU   X'01'   ON,INDICATES A PAGE I/O ERROR
                                    6099    01-IHASD +SDWASTRM EQU   X'01'   ON,INDICATES AN RTM1 SERVICE ROUTINE    @G38AP1F
                                    6100             +*                      (SUCH AS IEAVTSR1 PROCESSING ITERM OR   @G38AP1F
                                    6101             +*                      IEAVTRTM PROCESSING STERM) SCHEDULED    @G38AP1F
                                    6102             +*                      RTM1 TO CONTINUE PROCESSING AS AN SVC   @G38AP1F
                                    6103             +*                      ERROR (BY PUTTING SVC 13 IN THE PSW TO  @G38AP1F
                                    6104             +*                      BE DISPATCHED).                         @G38AP1F
 0000E9                             6105    01-IHASD +SDWAERRB DS    B       ADDITIONAL ERROR ENTRY INFORMATION
                                    6106    01-IHASD +SDWAPDIP EQU   X'80'   ON INDICATES THAT THIS TASK WAS PARALLEL
                                    6107             +*                      DETACHED - RECOVERY ROUTINES FOR OTHER TASKS
                                    6108             +*                      IN THIS ADDRESS SPACE MAY BE EXECUTING AT THE
                                    6109             +*                      SAME TIME AS THIS RECOVERY ROUTINE         @LHA
                                    6110    01-IHASD +SDWATYP1 EQU   X'08'   ON TYPE 1 SVC IN CONTROL AT TIME OF ERROR
                                    6111    01-IHASD +SDWAENRB EQU   X'04'   ON ENABLED RB IN CONTROL AT TIME OF ERROR
                                    6112    01-IHASD +SDWALDIS EQU   X'02'   ON A LOGICALLY OR PHYSICALLY DISABLED ROUTINE
                                    6113             +*                      WAS IN CONTROL AT THE TIME OF ERROR.
                                    6114    01-IHASD +SDWASRBM EQU   X'01'   ON SYSTEM IN SRB MODE AT TIME OF ERROR
 0000EA                             6115    01-IHASD +SDWAERRC DS    B       ADDITIONAL ERROR ENTRY INFORMATION
                                    6116    01-IHASD +SDWASTAF EQU   X'80'   ON INDICATES A PREVIOUS (E)STA  OR FRR
                                    6117             +*                      EXIT FAILED.
                                    6118    01-IHASD +SDWASTAI EQU   X'40'   ON A (E)STAI EXIT PREVIOUSLY RECEIVED CONTROL
                                    6119    01-IHASD +SDWAIRB  EQU   X'20'   ON AN IRB PRECEDED THE RB THAT IS
                                    6120             +*                      ASSOCIATED WITH THIS EXIT
                                    6121    01-IHASD +SDWAPERC EQU   X'10'   ON THIS RECOVERY ROUTINE IS BEING PERCOLATED TO
                                    6122    01-IHASD +SDWAEAS  EQU   X'08'   ON INDICATES A LOWER LEVEL EXIT HAS RECOGNIZED
                                    6123             +*                      AN ERROR AND PROVIDED SERVICEABILITY INFORMATION
                                    6124    01-IHASD +SDWASKIP EQU   X'04'   ON INDICATES FRRS WERE SKIPPED          @G381P2F
1TASKSERV (TASK00) (09:44) (22MAR04) IHAPSAE  - PSA Extension (ESAME)                                                       Page   30
0D-Loc  Object Code    Addr1 Addr2  Stmt Lv Lineno    Source Statement           (Hibal 5, Asmedit 3.3)  HLASM R4.0  2004/03/22 09.44
+_____  ______ ____    _____ _____  ____ __ ______    ______ _________
0                                   6125    01-IHASD +SDWALCL  EQU   X'02'   ON IND ENTRY AS A LOCAL RESOURCE MGR    @G382P2F
                                    6126    01-IHASD +SDWAGLBL EQU   X'01'   ON IND ENTRY AS A GLOBAL RESOURCE MGR   @G382P2F
 0000EB                             6127    01-IHASD +SDWAERRD DS    B       ADDITIONAL ERROR ENTRY INFORMATION
                                    6128    01-IHASD +SDWACLUP EQU   X'80'   ON INDICATES RECOVERY EXIT ONLY TO CLEANUP AND
                                    6129             +*                      NOT RETRY (IF ESTA EXIT AND 33E COMPLETION CODE
                                    6130             +*                      THE DUMP IS TAKEN AFTER ENTRY TO THE RECOVERY
                                    6131             +*                      ROUTINE,IF THE COMPLETION CODE IS OTHER THAN
                                    6132             +*                      33E AND IT IS AN ESTA EXIT THE DUMP IS
                                    6133             +*                      TAKEN BEFORE ENTRY TO THE RECOVERY ROUTINE)
                                    6134    01-IHASD +SDWANRBE EQU   X'40'   ON RB ASSOCIATED WITH THIS ESTA EXIT WAS NOT
                                    6135             +*                      IN CONTROL AT TIME OF ERROR
                                    6136             +*                      NEVER ON FOR FRRS
                                    6137    01-IHASD +SDWASTAE EQU   X'20'   ON THIS ESTA EXIT HAS BEEN ENTERED FOR A
                                    6138             +*                      PREVIOUS ABEND
                                    6139             +*                      NEVER ON FOR FRRS
                                    6140    01-IHASD +SDWACTS  EQU   X'10'   ON,THIS TASK WAS NOT IN CONTROL AT TIME OF
                                    6141             +*                      ERROR BUT A TASK WITHIN THE SAME JOBSTEP TREE
                                    6142             +*                      REQUESTED A 'STEP' ABEND. ONLY 'ON' IF SDWACLUP
                                    6143             +*                      IS 'ON'
                                    6144    01-IHASD +SDWAMABD EQU   X'08'   ON,THIS TASK WAS NOT IN CONTROL AT TIME OF
                                    6145             +*                      ERROR BUT AN ANCESTOR OF THIS TASK HAS ABEND'ED
                                    6146             +*                      ONLY 'ON' IF SDWACLUP IS 'ON'.
                                    6147    01-IHASD +SDWARPIV EQU   X'04'   ON, THE REGISTERS, PSW AND CONTROL REGISTERS
                                    6148             +*                      AT TIME OF ERROR ARE UNAVAILABLE
                                    6149    01-IHASD +SDWAMCIV EQU   X'02'   ON,MACHINE CHECK ERROR INFORMATION
                                    6150             +*                      IS UNAVAILABLE.
                                    6151    01-IHASD +SDWAERFL EQU   X'01'   ON,ERRORID INFORMATION AVAILABLE       @G17EP5W
 0000EC                             6152    01-IHASD +SDWAFMID DS    CL2     ASID OF MEMORY IN WHICH ERROR OCCURRED.
                                    6153             +*                      =0, IF THE MEMORY IS CURRENT
                                    6154             +*                      NOT=0, IF OTHER MEMORY IS CURRENT
                                    6155             +*                               FOR FRRS-
                                    6156             +*                      IF THE VALUE IS NON ZERO THE
                                    6157             +*                      FRR IS RECEIVING CONTROL IN THE
                                    6158             +*                      MASTER SCHEDULER ADDRESS SPACE AND CANNOT
                                    6159             +*                      ADDRESS THE PRIVATE AREA OF THE FAILING
                                    6160             +*                      ADDRESS SPACE.
                                    6161             +*                               FOR ESTA-
                                    6162             +*                      IF THE VALUE IS NON ZERO
                                    6163             +*                      ENTRY IS DUE TO CROSS MEMORY
                                    6164             +*                      ABTERM.
 0000EE                             6165    01-IHASD +SDWAIOFS DS    B       THIS IS THE CURRENT I/O STATUS (THE I/O
                                    6166             +*                      PROCESSING REQUESTED BY THE FIRST (E)STA
                                    6167             +*                      EXIT IS THE ONLY REQUEST HONORED )
                                    6168    01-IHASD +SDWAIOQR EQU   X'80'   ON,I/O FOR FAILING PROGRAM HAS BEEN QUIESCED AND
                                    6169             +*                      IS RESTOREABLE
                                    6170    01-IHASD +SDWAIOHT EQU   X'40'   ON,I/O FOR FAILING PROGRAM HAS BEEN HALTED AND
                                    6171             +*                      IS NOT RESTOREABLE
                                    6172    01-IHASD +SDWANOIO EQU   X'20'   ON,FAILING PROGRAM HAS NO I/O OUTSTANDING
                                    6173    01-IHASD +SDWANIOP EQU   X'10'   ON,USER REQUESTED NO I/O PROCESSING
                                    6174             +
 0000EF                             6175    01-IHASD +SDWACPUI DS    CL1     ERRORID LOGICAL CPUID                  @G17EP5W
 0000F0                             6176    01-IHASD +SDWARTYA DS    0A      ADDRESS OF RETRY ROUTINE                @G860P1C
 0000F0                             6177    01-IHASD +SDWARTYF DS    B       ADDRESSING MODE INDICATOR BYTE          @G860P1S
                                    6178    01-IHASD +SDWAAMOD EQU   X'80'   ADDRESSING MODE OF THE RETRY ROUTINE    @G860P1F
 0000F1                             6179    01-IHASD +         DS    AL3     LOW THREE ORDER BYTES OF RETRY ADDRESS  @G860P1S
 0000F4                             6180    01-IHASD +SDWARECA DS    A       ADDRESS OF VARIABLE RECORDING AREA WITHIN SDWA
1TASKSERV (TASK00) (09:44) (22MAR04) IHAPSAE  - PSA Extension (ESAME)                                                       Page   31
0D-Loc  Object Code    Addr1 Addr2  Stmt Lv Lineno    Source Statement           (Hibal 5, Asmedit 3.3)  HLASM R4.0  2004/03/22 09.44
+_____  ______ ____    _____ _____  ____ __ ______    ______ _________
00000F8                             6181    01-IHASD +SDWACPUA DS    0CL4    ADDRESS OF CPU HOLDING RESOURCE WHICH CAUSES
                                    6182             +*                      VALID SPIN ON CURRENT CPU - USED WITH RESTART
                                    6183             +*                      KEY ERROR TYPE.IF THIS FIELD IS VALIDLY FILLED
                                    6184             +*                      IN BY AN FRR THE FRRS MAINLINE PROGRAM WILL BE
                                    6185             +*                      RESUMED AT THE NEXT SEQUENTIAL INSTRUCTION.
                                    6186             +*                      NOT VALID FOR ESTAE EXITS.
 0000F8                             6187    01-IHASD +         DS    CL2     RESERVED
 0000FA                             6188    01-IHASD +SDWALCPU DS    H       LOGICAL ADDRESS OF CPU HOLDING RESOURCE
 0000FC                             6189    01-IHASD +SDWAPARQ DS    0BL4    FLAGS SET BY RECOVERY ROUTINE TO REQUEST FURTHER
                                    6190             +*                      PROCESSING ACTION
 0000FC                             6191    01-IHASD +SDWARCDE DS    B       RETURN CODE FROM RECOVERY ROUTINE TO INDICATE
                                    6192             +*                      RETRY OR TERMINATION
                                    6193    01-IHASD +SDWACWT  EQU   0       0 ,CONTINUE WITH TERMINATION. THIS INDICATION
                                    6194             +*                      IMPLIES PERCOLATION
                                    6195    01-IHASD +SDWARETY EQU   4       4 ,RETRY USING RETRY ADDRESS IN SDWARTYA FIELD
                                    6196    01-IHASD +SDWAPSTI EQU   16      16,PREVENT FURTHER (E)STAI PROCESSING
 0000FD                             6197    01-IHASD +SDWAACF2 DS    B       FLAGS TO INDICATE ADDITIONAL PROCESSING
                                    6198             +*                      REQUESTS
                                    6199    01-IHASD +SDWARCRD EQU   X'80'   ON,RECORDING REQUESTED
                                    6200    01-IHASD +SDWARFXM EQU   X'40'   ON,RETRY TO FULLXM AT TIME OF FRR SET.
                                    6201             +*                      CAN BE USED BY BY MODE=PRIMARY FRRS        @P8A
                                    6202    01-IHASD +SDWASPIN EQU   X'20'   ON,PROGRAM INTERRUPTED VIA  THE RESTART KEY WAS
                                    6203             +*                      IN A VALID SPIN(SET BY THE SETRP MACRO WHEN CPU
                                    6204             +*                      ADRESS IS SPECIFIED ALONG WITH THE CPU ADDRESS
                                    6205             +*                      IN SDWACPUA FIELD TO ALLOW RESTART OF THE
                                    6206             +*                      ALTERNATE CPU)
                                    6207    01-IHASD +SDWARERR EQU   X'10'   ON,RETRY USING THE CROSS MEMORY ADDRESSING
                                    6208             +*                      ENVIRONMENT AT THE TIME OF THE ERROR.
                                    6209             +*                      OFF,RETRY USING THE CROSS MEMORY ADDR ENV ON
                                    6210             +*                      ENTRY TO THE FRR.                       @G381P2F
                                    6211    01-IHASD +SDWAUPRG EQU   X'08'   ON,UPDATED REGISTERS STARTING WITH SDWASR00 ARE
                                    6212             +*                      TO BE USED FOR RETRY
                                    6213    01-IHASD +SDWAFREE EQU   X'04'   ON, SDWA (RTCA) TO BE FREED PRIOR TO RETRY.
                                    6214             +*                      ONLY VALID FOR ESTA TYPE EXITS.
                                    6215    01-IHASD +SDWASERP EQU   X'02'   ON,SERIALIZE PERCOLATION (USED WHEN AN SRB MODE
                                    6216             +*                      FRR PERCOLATES SERIALLY TO A RELATED TASK)
                                    6217             +*                                                              @G381P2F
                                    6218    01-IHASD +SDWACML  EQU   X'01'   ON,FREE THE CROSS MEMORY LOCAL LOCK     @G381P2F
 0000FE                             6219    01-IHASD +SDWAACF3 DS    B       FLAGS INDICATING SOME GLOBAL LOCKS TO BE FREED.
                                    6220             +*                      ONLY VALID FOR FRRS.  OTHER LOCKS ARE INDICATED
                                    6221             +*                      AT SDWAFLK1 AND SDWAFLK2.               @G860P1S
                                    6222    01-IHASD +SDWAFRSX EQU   X'80'   ON, THE RSM CROSS MEMORY CLASS LOCK     @G860P1S
                                    6223    01-IHASD +SDWAFRSA EQU   X'40'   ON, THE RSM ADDRESS SPACE CLASS LOCK    @G860P1S
                                    6224    01-IHASD +SDWAFVSP EQU   X'20'   ON, THE VSM PAGE LOCK                   @G860P1S
                                    6225    01-IHASD +SDWADISP EQU   X'10'   ON,THE DISPATCHER LOCK
                                    6226    01-IHASD +SDWAASMP EQU   X'08'   ON,THE ASM CLASS LOCK                   Z40WPXH
                                    6227    01-IHASD +SDWASALL EQU   X'04'   ON, THE SALLOC LOCK
                                    6228    01-IHASD +SDWAIPRG EQU   X'02'   ON, THE IOSYNCH LOCK
                                    6229    01-IHASD +SDWAFRSD EQU   X'01'   ON, THE RSM DATA SPACE LOCK                 @L6C
 0000FF                             6230    01-IHASDC+SDWAACF4 DS    B       ADDITIONAL LOCKS TO BE FREED, OR ADDITIONAL
                                                     +                       PROCESSING FOR FRRS
                                    6231    01-IHASD +SDWAIUCB EQU   X'80'   ON, FREE IOSUCB LOCK
                                    6232    01-IHASD +SDWATADB EQU   X'08'   RESERVED LOCK                           Z40WPXH
                                    6233    01-IHASD +SDWAOPTM EQU   X'04'   ON, FREE SYSTEM RESOURCES MGR(SRM) LOCK
                                    6234    01-IHASD +SDWACMS  EQU   X'02'   ON, FREE CMS LOCK
                                    6235    01-IHASD +SDWAFLLK EQU   X'01'   ON, FREE LOCAL LOCK
1TASKSERV (TASK00) (09:44) (22MAR04) IHAPSAE  - PSA Extension (ESAME)                                                       Page   32
0D-Loc  Object Code    Addr1 Addr2  Stmt Lv Lineno    Source Statement           (Hibal 5, Asmedit 3.3)  HLASM R4.0  2004/03/22 09.44
+_____  ______ ____    _____ _____  ____ __ ______    ______ _________
0                                   6236             +
 000100                             6237    01-IHASD +SDWALKWA DS    0CL32   LOCK AREA                              @ZA05516
 000100                             6238    01-IHASD +SDWALKWS DS    0CL32   LOCKWORDS REQUIRED TO FREE GLOBAL LOCKS
                                    6239             +*                      ONLY USED FOR FRRS
 000100                             6240    01-IHASD +SDWALRSD DS    A       LOCKWORD FOR THE RSM DATA SPACE LOCK        @L6C
 000104                             6241    01-IHASD +SDWAIULW DS    A       LOCKWORD FOR THE IOSUCB LOCK
 000108                             6242    01-IHASD +         DS    A       LOCKWORD - RESERVED                         @P3C
 00010C                             6243    01-IHASD +SDWAIPLW DS    A       LOCKWORD FOR THE IOSYNCH LOCK
 000110                             6244    01-IHASD +SDWAAPLW DS    A       LOCKWORD FOR THE ASM CLASS LOCK         Z40WPXH
 000114                             6245    01-IHASD +         DS    A       RESERVED                                   @L9C
 000118                             6246    01-IHASD +         DS    A       RESERVED                                   @L9C
 00011C                             6247    01-IHASD +SDWATALW DS    A       LOCKWORD - RESERVED                     Z40WPXH
                                    6248             +
 000120                             6249    01-IHASD +SDWAASID DS    CL2     ASID FOR LOGREC DEBUGGING (HOME ASID)   @ZA05516
 000122                             6250    01-IHASD +SDWASEQ# DS    CL2     ERRORID SEQUENCE NUMBER                 @G17EP5W
 000124                             6251    01-IHASD +SDWARECP DS    0CL24   RECORDING PARAMETERS (MODULE,CSECT AND RECOVERY
                                    6252             +*                      ROUTINE NAMES-RESPECTIVELY)
 000124                             6253    01-IHASD +SDWAMODN DS   CL8      THE LOAD MODULE NAME INVOLVED IN THE ERROR
                                    6254             +*                      (SUPPLIED BY THE RECOVERY ROUTINE)
 00012C                             6255    01-IHASD +SDWACSCT DS   CL8      THE CSECT (MICROFICHE) NAME INVOLVED IN THE
                                    6256             +*                      ERROR (SUPPLIED BY THE RECOVERY ROUTINE)
 000134                             6257    01-IHASD +SDWAREXN DS   CL8      THE RECOVERY ROUTINE (MICROFICHE) NAME
                                    6258             +*                      HANDLING THE ERROR (SUPPLIED BY THE RECOVERY
                                    6259             +*                      ROUTINE)
                                    6260             +*
 00013C                             6261    01-IHASD +SDWADPLA DS   A        POINTER TO DUMP PARAMETER LIST
                                    6262             +*                      RESIDING IN SDWA
 000140                             6263    01-IHASD +SDWASNPA DS   0CL8     SNAP PARAMETER LIST FLAGS
 000140                             6264    01-IHASD +SDWADUMP DS   0CL4     DUMP CHARACTERISTICS
 000140                             6265    01-IHASD +SDWADPID DS   CL1      ID OF DUMP REQUESTED
 000141                             6266    01-IHASD +SDWADPFS DS   B        DUMP FLAGS
                                    6267    01-IHASD +SDWADPT  EQU  X'80'    ALWAYS OFF, INDICATES SNAP DUMP REQUEST
                                    6268    01-IHASD +SDWADLST EQU  X'40'    ALWAYS ON, INDICATES  OS/VS2 REL. 2 DUMP
                                    6269             +*                      PARAMETER LIST SUPPLIED
                                    6270             +*                      USED BY RTM TO INDICATE DUMP OPTIONS ARE
                                    6271             +*                      AVAILABLE IN THE SDWA
                                    6272    01-IHASD +SDWAENSN EQU  X'20'    ON,ENHANCED DUMP OPTIONS              @G33SPHW
                                    6273    01-IHASD +SDWASLST EQU  X'02'    ON,STORAGE LISTS SUPPLIED FOR DUMP
 000142                             6274    01-IHASD +SDWADPF2 DS   B        DUMP FLAGS 2                          @G382P2F
                                    6275    01-IHASD +SDWADVS3 EQU  X'80'    ON, STORAGE RANGES IN SDWADSR, OFF, STORAGE
                                    6276             +*                      RANGES IN SDWADPSL                    @G382P2F
                                    6277    01-IHASDC+SDWAXLST EQU  X'08'    ON,DATA SPACE STORAGE LISTS SUPPLIED FOR DUMP
                                                     +                                                                   @P2M
                                    6278    01-IHASD +SDWALVL2 EQU  X'04'    ON, MVS/SP2.1 VERSION OF SNAP PARMLIST  @G860P1F
                                    6279    01-IHASD +SDWASUBL EQU  X'02'    ON, SUBPOOL LIST SUPPLIED               @G860P1C
 000143                             6280    01-IHASD +         DS   CL1      RESERVED
                                    6281             +
 000144                             6282    01-IHASD +SDWADDAT DS   0CL4     SDATA AND PDATA OPTIONS
 000144                             6283    01-IHASD +SDWASDAT DS   0CL2     SDATA OPTIONS                          @G33SPHW
 000144                             6284    01-IHASD +SDWASDA0 DS   BL1      SDATA OPTIONS FLAG ONE                 @G33SPHW
                                    6285    01-IHASD +SDWANUC  EQU  X'80'    DISPLAY NUCLEUS
                                    6286    01-IHASD +SDWASQA  EQU  X'40'    DISPLAY SQA
                                    6287    01-IHASD +SDWALSQA EQU  X'20'    DISPLAY LSQA
                                    6288    01-IHASD +SDWASWA  EQU  X'10'    DISPLAY SWA
                                    6289    01-IHASD +SDWAGTF  EQU  X'08'    DISPLAY GTF INCORE TRACE TABLE
                                    6290    01-IHASD +SDWACBS  EQU  X'04'    FORMAT AND DISPLAY CONTROL BLOCKS
1TASKSERV (TASK00) (09:44) (22MAR04) IHAPSAE  - PSA Extension (ESAME)                                                       Page   33
0D-Loc  Object Code    Addr1 Addr2  Stmt Lv Lineno    Source Statement           (Hibal 5, Asmedit 3.3)  HLASM R4.0  2004/03/22 09.44
+_____  ______ ____    _____ _____  ____ __ ______    ______ _________
0                                   6291    01-IHASD +SDWAQQS  EQU  X'02'    FORMAT AND DISPLAY QCBS/QELS
                                    6292    01-IHASD +SDWADM   EQU  X'01'    FORMAT DATA MGT CONTROL BLOCKS        @G33SPHW
 000145                             6293    01-IHASD +SDWASDA1 DS   BL1      SDATA OPTIONS                         @G33SPHW
                                    6294    01-IHASD +SDWAIO   EQU  X'80'    FORMAT I/O SUPERVISOR CONTROL BLOCKS  @G33SPHW
                                    6295    01-IHASD +SDWAERR  EQU  X'40'    FORMAT ERROR CONTROL BLOCKS           @G33SPHW
                                    6296    01-IHASD +SDWASUM  EQU  X'10'    PROVIDE SUMMARY DUMP                    @G860P1S
                                    6297    01-IHASD +SDWAALLN EQU  X'08'    DISPLAY ENTIRE VIRTUAL NUCLEUS          @G860P1S
 000146                             6298    01-IHASD +SDWAPDAT DS   BL1      PDATA OPTIONS
                                    6299    01-IHASD +SDWADSAS EQU  X'80'    DISPLAY SAVE AREAS
                                    6300    01-IHASD +SDWADSAH EQU  X'40'    DISPLAY SAVE AREA HEADER
                                    6301    01-IHASD +SDWADREG EQU  X'20'    DISPLAY REGISTERS
                                    6302    01-IHASD +SDWATLPA EQU  X'10'    DISPLAY LPA MODULES OF TASK
                                    6303    01-IHASD +SDWATJPA EQU  X'08'    DISPLAY JPA MODULES OF TASK
                                    6304    01-IHASD +SDWADPSW EQU  X'04'    DISPLAY PSW
                                    6305    01-IHASD +SDWAUSPL EQU  X'02'    DISPLAY USER SUBPOOLS
 000147                             6306    01-IHASD +         DS   B        RESERVED
                                    6307             +
 000148                             6308    01-IHASD +SDWADPSA DS   0CL36    DUMP RANGES AREA
 000148                             6309    01-IHASD +SDWADPSL DS   0CL32    DUMP STORAGE LISTS (MAX 4 RANGES AVAILABLE)
 000148                             6310    01-IHASD +SDWAFRM1 DS   A        BEGINNING ADDRESS FOR STORAGE RANGE 1
 00014C                             6311    01-IHASD +SDWATO1  DS   A        ENDING ADDRESS FOR STORAGE RANGE 1
 000150                             6312    01-IHASD +SDWAFRM2 DS   A        BEGINNING ADDRESS FOR STORAGE RANGE2
 000154                             6313    01-IHASD +SDWATO2  DS   A        ENDING ADDRESS FOR STORAGE RANGE 2
 000158                             6314    01-IHASD +SDWAFRM3 DS   A        BEGINNING ADDRESS FOR STORAGE RANGE 3
 00015C                             6315    01-IHASD +SDWATO3  DS   A        ENDING ADDRESS FOR STORAGE RANGE 3
 000160                             6316    01-IHASD +SDWAFRM4 DS   A        BEGINNING ADDRESS FOR STORAGE RANGE 4
 000164                             6317    01-IHASD +SDWATO4  DS   A        ENDING ADDRESS FOR STORAGE RANGE 4
 000168                             6318    01-IHASD +         DS   A        RESERVED
                                    6319             +*
                                    6320             +*                      SDWAVERI IS TO INDICATE THE VERSION OF
                                    6321             +*                      THE SDWA VIA A NUMBER IN THE SDWAVID    @G38FP2F
                                    6322             +*
 00016C                             6323    01-IHASD +SDWAVERI DS   0CL4     SDWA VERSION INDICATOR                  @G38FP2F
 00016C                             6324    01-IHASD +SDWAVERF DS   CL2      FFFF INDICATES VID FIELD IS VALID       @G38FP2F
 00016E                             6325    01-IHASD +SDWAVID  DS   CL2      VERSION INDICATOR, EXPLAINED AS FOLLOWS:    @L1A
                                    6326             +*                      1, INDICATES THE SDWA IS AT AN MVS/SYSTEM   @L1A
                                    6327             +*                      PRODUCT RELEASE 2 LEVEL                     @L1A
                                    6328             +*                      2, INDICATES THE SDWA IS AT AN MVS/SYSTEM   @L1A
                                    6329             +*                      PRODUCT VERSION 2 RELEASE 1 LEVEL           @L1A
                                    6330             +*                      3, INDICATES THE SDWA IS AT AN MVS/SYSTEM   @L1A
                                    6331             +*                      PRODUCT JBB2110 LEVEL.                      @L1A
                                    6332             +*                      4, INDICATES THE SDWA IS AT AN MVS/SYSTEM   @L4A
                                    6333             +*                      PRODUCT HBB3310 LEVEL.                      @L4A
                                    6334             +*                      5, INDICATES THE SDWA IS AT AN MVS/SYSTEM   @L9A
                                    6335             +*                      PRODUCT HBB4410 LEVEL.                      @L9A
                                    6336             +*                      6, INDICATES THE SDWA IS AT AN MVS/SYSTEM   @L9A
                                    6337             +*                      PRODUCT HBB5510 LEVEL.                      @L9Z
                                    6338             +*                      7, indicates the SDWA is at an OS/390 R10   @L9A
                                    6339             +*                      HBB7703 level *and* that it                 @LIA
                                    6340             +*                      contains the SDWARC4 extension              @LIA
                                    6341    01-IHASD +SDWAVS3  EQU  1        1, INDICATES THE SDWA IS AT AN MVS/SYSTEM
                                    6342             +*                      PRODUCT RELEASE 2 LEVEL                 @G382P2F
                                    6343    01-IHASD +SDWAVS4  EQU  2        2, INDICATES THE SDWA IS AT AN MVS/SYSTEM
                                    6344             +*                      PRODUCT VERSION 2 RELEASE 1 LEVEL       @G860P1S
                                    6345    01-IHASD +SDWAVS5  EQU  3        3, INDICATES THE SDWA IS AT AN MVS/SYSTEM   @L1A
                                    6346             +*                      PRODUCT JBB2110 LEVEL.                      @L1A
1TASKSERV (TASK00) (09:44) (22MAR04) IHAPSAE  - PSA Extension (ESAME)                                                       Page   34
0D-Loc  Object Code    Addr1 Addr2  Stmt Lv Lineno    Source Statement           (Hibal 5, Asmedit 3.3)  HLASM R4.0  2004/03/22 09.44
+_____  ______ ____    _____ _____  ____ __ ______    ______ _________
0                                   6347    01-IHASD +SDWAVS6  EQU  4        4, INDICATES THE SDWA IS AT AN MVS/SYSTEM   @L4A
                                    6348             +*                      PRODUCT HBB3310 LEVEL.                      @L4A
                                    6349    01-IHASD +SDWAVS7  EQU  5        5, INDICATES THE SDWA IS AT AN MVS/SYSTEM   @L9A
                                    6350             +*                      PRODUCT HBB4410 LEVEL.                      @L9A
                                    6351    01-IHASD +SDWAVS8  EQU  6        6, INDICATES THE SDWA IS AT AN MVS/SYSTEM   @L9A
                                    6352             +*                      PRODUCT HBB5510 LEVEL.                      @L9Z
                                    6353    01-IHASD +SDWAVS9  EQU  7        7, indicates the SDWA is at an OS/390 R10   @L9A
                                    6354             +*                      HBB7703 level *and* that it                 @LIA
                                    6355             +*                      contains the SDWARC4 extension              @LIA
                                    6356    01-IHASD +SDWAVSN  EQU  7        7, indicates the SDWA is at an OS/390 R10   @L9A
                                    6357             +*                      HBB7703 level *and* that it                 @LIA
                                    6358             +*                      contains the SDWARC4 extension              @LIA
                                    6359             +*                      IF THE VALUE OF THIS EQUATE IS CHANGED,
                                    6360             +*                      ADD A NEW SDWAVSX WHERE X IS THE NUMBER
                                    6361             +*                      THAT FOLLOWS THE LAST SDWAVSX FIELD, AND
                                    6362             +*                      MAKE THE EQUATE EQUAL TO SDWAVSN.
                                    6363             +*                      ALSO DOCUMENT THE VALUE IN SDWAVID AS ABOVE.
                                    6364             +*                      REFER TO MODULE IEAVTFRO FOR INSTRUCTIONS ON
                                    6365             +*                      WHICH MODULES NEED TO CHANGE AND RECOMPILE  @P5C
 000170                             6366    01-IHASD +SDWAXPAD DS   A        ADDR OF THE EXTENSION POINTERS (SDWAPTRS)   @L1C
 000174                             6367    01-IHASD +SDWAXM   DS   0CL12    CROSS MEMORY INFORMATION                @G381P2F
 000174                             6368    01-IHASD +SDWACRGS DS   0CL8     CONTROL REGISTERS 3 AND 4               @G381P2F
 000174                             6369    01-IHASD +SDWACR3  DS   0CL4     CONTROL REGISTER 3                      @G381P2F
 000174                             6370    01-IHASD +SDWAKM   DS   CL2      KEY MASK                                @G381P2F
 000176                             6371    01-IHASD +SDWASCND DS   CL2      ASID OF THE SECONDARY ADDR SPACE -SASID @G381P2F
 000178                             6372    01-IHASD +SDWACR4  DS   0CL4     CONTROL REGISTER 4                      @G381P2F
 000178                             6373    01-IHASD +SDWAAX   DS   CL2      AUTHORIZATION INDEX                     @G381P2F
 00017A                             6374    01-IHASD +SDWAPRIM DS   CL2      ASID OF THE PRIMARY ADDR SPACE -PASID   @G381P2F
 00017C                             6375    01-IHASD +SDWACMLA DS   A        ADDRESS OF ASCB OF CML TO BE FREED      @G381P2F
 000180                             6376    01-IHASD +SDWACOMU DS   CL8      FRR TO ESTAE COMMUNICATION BUFFER       @G382P2F
 000188                             6377    01-IHASD +SDWACOMP DS   A        THIS WORD IS PROVIDED FOR COMMUNICATION OF
                                    6378             +*                      ADDITIONAL RECOVERY DATA ON A PER COMPONENT
                                    6379             +*                      BASIS (FOR OS/VS2 RELEASE 2 THIS FIELD IS ONLY
                                    6380             +*                      USED BY DATA MANAGER )
 00018C                             6381    01-IHASD +SDWAERTM DS   CL4      ERRORID TIME STAMP                     @G17EP5W
 000190                             6382    01-IHASD +SDWARA   DS   0CL264   VARIABLE RECORDING AREA PREFIXED BY A TWO BYTE
                                    6383             +*                      LENGTH FIELD OF AREA, A ONE BYTE FLAG FIELD,
                                    6384             +*                      AND A ONE BYTE FIELD WITH LENGTH OF USER
                                    6385             +*                      SUPPLIED RECORDING INFORMATION         @G388P2F
 000190                             6386    01-IHASD +SDWAVRAL DS   CL2      LENGTH OF VARIABLE RECORDING AREA
 000192                             6387    01-IHASD +SDWADPVA DS    B       BITS THAT DEFINE DATA IN VARIABLE AREA
                                    6388    01-IHASD +SDWAHEX  EQU   X'80'   SDWAVRA DATA TO BE PRINTED BY EREP IN HEX
                                    6389    01-IHASD +SDWAEBC  EQU   X'40'   SDWAVRA DATA TO BE PRINTED BY EREP IN EBCDIC
                                    6390    01-IHASD +SDWAVRAM EQU   X'20'   SDWAVRA DATA IS IN THE FORMAT MAPPED BY THE
                                    6391             +*                      VRAMAP DSECT (IHAVRA MACRO)            @G81EP11
 000193                             6392    01-IHASD +SDWAURAL DS   XL1      LENGTH OF USER SUPPLIED INFORMATION IN
                                    6393             +*                      THE VARIABLE RECORDING AREA (ZEROED BEFORE
                                    6394             +*                      EACH RECOVERY ROUTINE IS INVOKED)
 000194                             6395    01-IHASD +SDWAVRA  DS   CL255    VARIABLE RECORDING AREA                 @G388P2F
 000293                             6396    01-IHASD +SDWAID   DS   CL5      CONTAINS 'SDWA ' AS ID                  @G860P1F
 000298                             6397    01-IHASD +SDWAEND  DS   0D       END OF NON-EXTENDED SDWA                @G381P2F
                                    6398             +
 000000                00000 001C8  6399    01-IHASD +SDWARC1  DSECT ,       RECORDABLE EXTENSION, BASED ON SDWASRVP @G388P2F
 000000                             6400    01-IHASD +SDWASERV DS   0CL456   ADDITIONAL COMPONENT SERVICE DATA           @LGC
 000000                             6401    01-IHASD +SDWARC1Z DS   0CL118   CAN BE ZEROED ON PERCOLATION.               @L2A
 000000                             6402    01-IHASD +SDWACID  DS   CL5      COMPONENT ID OF THE COMPONENT INVOLVED
1TASKSERV (TASK00) (09:44) (22MAR04) IHAPSAE  - PSA Extension (ESAME)                                                       Page   35
0D-Loc  Object Code    Addr1 Addr2  Stmt Lv Lineno    Source Statement           (Hibal 5, Asmedit 3.3)  HLASM R4.0  2004/03/22 09.44
+_____  ______ ____    _____ _____  ____ __ ______    ______ _________
0                                   6403             +*                      IN THE ERROR (FOR EXAMPLE, SC1CR)       @G388P2F
 000005                             6404    01-IHASD +SDWASC   DS   CL23     NAME OF THE SUBCOMPONENT AND THE MODULE
                                    6405             +*                      SUBFUNCTION INVOLVED IN THE ERROR       @G388P2F
 00001C                             6406    01-IHASD +SDWAMLVL DS   0CL16    LEVEL OF THE MODULE INVOLVED IN THE ERROR
                                    6407             +*                                                              @G38AP2F
 00001C                             6408    01-IHASD +SDWAMDAT DS   CL8      ASSEMBLY DATE OF THE MODULE INVOLVED IN
                                    6409             +*                      THE ERROR                               @G38AP2F
 000024                             6410    01-IHASD +SDWAMVRS DS   CL8      VERSION OF THE MODULE - PTF OR PRODUCT
                                    6411             +*                      NUMBER                                  @G38AP2F
 00002C                             6412    01-IHASD +SDWACRC  DS   0CL4     THIS FIELD CONTAINS THE ABEND REASON CODE THAT
                                    6413             +*                      WAS SET VIA AN ABEND, CALLRTM, OR SETRP MACRO.
                                    6414             +*                      IT IS VALID ONLY IF SDWARCF IS SET ON.
                                    6415             +*                      NOTE THAT THIS FIELD SHOULD NOT BE CONFUSED
                                    6416             +*                      WITH THE RETURN CODE THAT SOME PROGRAMS PLACE
                                    6417             +*                      INTO REGISTER 15 BEFORE ISSUING AN ABEND.   @PBC
 00002C                             6418    01-IHASD +SDWAHRC  DS   F        HEXADECIMAL DECLARE FOR SDWACRC             @PBC
 000030                             6419    01-IHASD +SDWARRL  DS   CL8      ENTRY POINT LABEL OF THE RECOVERY ROUTINE THAT
                                    6420             +*                      FILLED IN THIS SDWA
 000038                             6421    01-IHASD +SDWACIDB DS   CL4      THE COMPONENT ID BASE (PREFIX) NUMBER,  @G38PP1F
                                    6422             +*                      SUCH AS 5741.                           @G38PP1F
 00003C                             6423    01-IHASD +SDWASDRC DS   FL1      SVCDUMP STATUS INDICATOR (FOR USE BY SDUMP)
                                    6424             +*                                                              @G860P1S
 00003D                             6425    01-IHASD +SDWACCRC DS   CL1      FLAGS FOR COMPCODE AND REASON CODE      @G860P1C
                                    6426    01-IHASD +SDWACCF  EQU  X'80'   =1, IF RECOVERY EXIT ALTERED COMPCODE    @G860P1C
                                    6427    01-IHASD +SDWAREAF EQU  X'40'   =1, IF RECOVERY EXIT ALTERED REASON CODE @G860P1C
 00003E                             6428    01-IHASD +SDWARETF DS   B        SDWA RETRY FLAGS                            @L3A
                                    6429    01-IHASD +SDWART15 EQU  X'80'    ON, SET REGISTER 15 ON RETRY TO THE VALUE IN
                                    6430             +*                      SDWASR15.  OFF, SET REGISTER 15 ON RETRY TO
                                    6431             +*                      THE RETRY ADDRESS, REGARDLESS OF THE VALUE IN
                                    6432             +*                      SDWASR15. ONLY VALID FOR FRRS               @L3A
                                    6433    01-IHASD +SDWAREMR EQU  X'40'    ON, REMOVE RECOVERY ROUTINE ON RETRY
                                    6434             +*                      OFF, DONT REMOVE RECOVERY ROUTINE ON RETRY  @L3A
                                    6435    01-IHASD +SDWAFRLK EQU  X'20'    ON, FREE LOCKS ON A RETRY WHOSE BIT SETTINGS
                                    6436             +*                      IN THE SDWA HAVE BEEN TURNED ON
                                    6437             +*                      OFF, DO NOT FREE ANY LOCKS ON A RETRY       @L3A
                                    6438    01-IHASD +SDWAUP64 EQU  X'10'    If on, use the 64-bit GPRs for
                                    6439             +*                      setting the retry regs. Only valid when
                                    6440             +*                      SDWARC4 extension exists.                   @LIA
                                    6441    01-IHASDC+SDWAKEAX EQU  X'08'    ON, when retrying keep the current EAX rather
                                                     +                       than resetting EAX to time-of-FRR-set       @PGM
 00003F                             6442    01-IHASD +SDWATYPE DS   B        TYPE OF RECOVERY ROUTINE THAT RTM GAVE CONTROL
                                    6443             +*                      TO:
                                    6444             +*                        0 - NO RECOVERY WAS SET UP
                                    6445             +*                        1 - FRR
                                    6446             +*                        2 - NON FRR (ESTAE, ESTAI, ETC.)
                                    6447             +*                        3 - ARR (ASSOCIATED RECOVERY ROUTINE)     @L4A
                                    6448    01-IHASD +SDWANREC EQU  0        NO RECOVERY WAS SET UP                      @L4A
                                    6449    01-IHASD +SDWATFRR EQU  1        FRR WAS GIVEN CONTROL                       @L4A
                                    6450    01-IHASD +SDWATEST EQU  2        ESTAE/I/X WAS GIVEN CONTROL                 @L4A
                                    6451    01-IHASD +SDWATARR EQU  3        ARR WAS GIVEN CONTROL                       @L4A
 000040                             6452    01-IHASD +SDWAHLHI DS   CL4      ON ENTRY TO A FRR: COPY OF PSAHLHI (HIGHEST LOCK
                                    6453             +*                                         HELD INDICATOR)
                                    6454             +*                      ON ENTRY TO AN ESTAE: 0                 @G860P38
 000044                             6455    01-IHASD +SDWASUPR DS   CL4      ON ENTRY TO A FRR: COPY OF PSASUPER (SUPERVISOR
                                    6456             +*                                         CONTROL WORD)
                                    6457             +*                      ON ENTRY TO AN ESTAE: 0                 @G860P38
1TASKSERV (TASK00) (09:44) (22MAR04) IHAPSAE  - PSA Extension (ESAME)                                                       Page   36
0D-Loc  Object Code    Addr1 Addr2  Stmt Lv Lineno    Source Statement           (Hibal 5, Asmedit 3.3)  HLASM R4.0  2004/03/22 09.44
+_____  ______ ____    _____ _____  ____ __ ______    ______ _________
0000048                             6458    01-IHASD +SDWASPN  DS   CL4      ON ENTRY TO A FRR: COPY OF LCCASPIN (PROCESSOR
                                    6459             +*                                         IS SPINNING INDICATORS)
                                    6460             +*                      ON ENTRY TO AN ESTAE: 0                 @G860P38
 00004C                             6461    01-IHASD +SDWAEADR DS   CL4      FRR OR ESTAE RECOVERY ROUTINE ADDRESS.
                                    6462             +*                      =0 IF NO FRR EXISTED WHEN RTM1 RECIEVED CONTROL
                                    6463             +*                      TO PROCESS A SYSTEM MODE ERROR.         @G860P38
 000050                             6464    01-IHASD +SDWAFRRE DS   CL24     IF FRR EXISTS: COPY OF FRR PARAMETER AREA FROM
                                    6465             +*                                     THE CURRENT FRR STACK ENTRY
                                    6466             +*                      ON ENTRY TO AN ESTAE: 0                 @G860P38
 000068                             6467    01-IHASD +SDWASDRN DS   CL4      SDUMP REASON FLAGS FOR TAKING PARTIAL   @ZMC2916
                                    6468             +*                      DUMP. SEE RTSDSRSN FIELD IN RTSD.       @ZMC2916
                                    6469             +*                      ADDITIONS TO SDWARC1 - 40 BYTES             @L1A
 00006C                             6470    01-IHASD +SDWADAEW DS    0CL10           STRUCTURE FOR DAE INFO              @L2A
 00006C                             6471    01-IHASD +SDWADAET DS    CL8             DAE STATUS FLAGS MAPPED BY ADYDSTAT @P1C
 000074                             6472    01-IHASD +SDWAOCUR DS    CL2             NUMBER OF OCCURRENCES OF THIS PROBLEM.
                                    6473             +*                              IF 0 THEN DAE DID NOT CHECK FOR
                                    6474             +*                              DUPLICATE OCCURRENCES.  IF 1 THEN THIS
                                    6475             +*                              IS THE FIRST OCCURRENCE OF THIS PROBLEM.
                                    6476             +*                              IF GREATER THAN 1 THEN THIS IS THE COUNT
                                    6477             +*                              OF HOW MANY TIMES THIS DUMP REQUEST HAS
                                    6478             +*                              OCCURRED WHILE DAE WAS ACTIVE.      @P1C
 000076                             6479    01-IHASD +SDWARC1P DS    0CL34           THIS PART IS TO BE PRESERVED ON
                                    6480             +*                              PERCOLATION AND NOT ZEROED          @L1A
 000076                             6481    01-IHASD +SDWAPGTA DS    0CL6            CONTAINING STRUCTURE AS IN LCCAPGTA @L1A
 000076                             6482    01-IHASD +SDWAASI1 DS    CL2             ADDRESS SPACE ID OF TASK FOR PURGEDQ
                                    6483             +*                                                                  @L1A
 000078                             6484    01-IHASD +SDWATCB  DS    F               ADDRESS OF TCB FOR PURGEDQ          @L1A
 00007C                             6485    01-IHASD +SDWART12 DS    0CL28           USED FOR FILLING IN EED'S           @L1A
 00007C                             6486    01-IHASD +SDWAFAIN DS    CL12            12 BYTES OF INSTRUCTION STREAM AS
                                    6487             +*                              DETERMINED BY THE ADDRESS IN THE PSW AT
                                    6488             +*                              THE TIME OF FAILURE. 6 BYTES BEFORE AND
                                    6489             +*                              AFTER.                              @L2A
 000088                             6490    01-IHASD +SDWAASCB DS    F               ADDRESS OF ASCB FOR FAILING ADDRESS
                                    6491             +*                              SPACE.                              @L1A
 00008C                             6492    01-IHASD +SDWAASST DS    F               ADDRESS OF ADDRESS SPACE SEGMENT
                                    6493             +*                              TABLE.                              @L1A
 000090                             6494    01-IHASD +SDWASABC DS    0F              ORIGINAL COMPLETION CODE.           @L1A
 000090                             6495    01-IHASD +SDWAOABF DS    CL1             FLAGS IN COMPLETION CODE REGISTER.  @L1A
                                    6496    01-IHASD +SDWAOREQ EQU   X'80'           ORIGINAL VALUE OF SDWAREQ           @L1A
                                    6497    01-IHASD +SDWAOSTP EQU   X'40'           ORIGINAL VALUE OF SDWASTEP          @L1A
                                    6498             +*        EQU   X'20'           USED FOR MEMTERM REQUESTS           @L1A
                                    6499    01-IHASD +SDWAOSTC EQU   X'10'           ORIGINAL VALUE OF SDWASTCC          @L1A
                                    6500             +*        EQU   X'08'           USED BY RTM2 FOR NORMAL END-OF-TASK @L1A
                                    6501    01-IHASD +SDWAORCF EQU   X'04'           VALID REASON CODE IN SDWAOCRC.      @L1A
                                    6502             +*        EQU   X'02'           RESERVED                            @L1A
                                    6503             +*        EQU   X'01'           RESERVED                            @L1A
 000091                             6504    01-IHASD +SDWAOCMP DS    CL3             COMPLETION CODE.                    @L1A
 000094                             6505    01-IHASD +SDWAOCRC DS    F               ORIGINAL REASON CODE FROM SDWACRC AT
                                    6506             +*                              ENTRY TO RECOVERY PROCESSING.  ONLY
                                    6507             +*                              VALID IF SDWAORCF IS SET ON.        @PBC
                                    6508             +*
                                    6509             +*   SDWARC1 FIELDS FROM THIS POINT ON ARE PRESERVED ON RTM1
                                    6510             +*   FRR PERCOLATION AND ARE ZEROED ON RTM2 ESTAE PERCOLATION.
                                    6511             +*
 000098                             6512    01-IHASD +SDWACRER DS    0CL64           CONTROL REGISTERS AT TIME OF ERROR.
                                    6513             +*                              THESE VALUES ARE NOT RESTORED ON RETRY.
1TASKSERV (TASK00) (09:44) (22MAR04) IHAPSAE  - PSA Extension (ESAME)                                                       Page   37
0D-Loc  Object Code    Addr1 Addr2  Stmt Lv Lineno    Source Statement           (Hibal 5, Asmedit 3.3)  HLASM R4.0  2004/03/22 09.44
+_____  ______ ____    _____ _____  ____ __ ______    ______ _________
0                                   6514             +*                                                                  @L4A
 000098                             6515    01-IHASD +SDWACRE0 DS    F               CONTROL REGISTER 0                  @L4A
 00009C                             6516    01-IHASD +SDWACRE1 DS    F               CONTROL REGISTER 1                  @L4A
 0000A0                             6517    01-IHASD +SDWACRE2 DS    F               CONTROL REGISTER 2                  @L4A
 0000A4                             6518    01-IHASD +SDWACRE3 DS    F               CONTROL REGISTER 3                  @L4A
 0000A8                             6519    01-IHASD +SDWACRE4 DS    F               CONTROL REGISTER 4                  @L4A
 0000AC                             6520    01-IHASD +SDWACRE5 DS    F               CONTROL REGISTER 5                  @L4A
 0000B0                             6521    01-IHASD +SDWACRE6 DS    F               CONTROL REGISTER 6                  @L4A
 0000B4                             6522    01-IHASD +SDWACRE7 DS    F               CONTROL REGISTER 7                  @L4A
 0000B8                             6523    01-IHASD +SDWACRE8 DS    F               CONTROL REGISTER 8                  @L4A
 0000BC                             6524    01-IHASD +SDWACRE9 DS    F               CONTROL REGISTER 9                  @L4A
 0000C0                             6525    01-IHASD +SDWACREA DS    F               CONTROL REGISTER 10                 @L4A
 0000C4                             6526    01-IHASD +SDWACREB DS    F               CONTROL REGISTER 11                 @L4A
 0000C8                             6527    01-IHASD +SDWACREC DS    F               CONTROL REGISTER 12                 @L4A
 0000CC                             6528    01-IHASD +SDWACRED DS    F               CONTROL REGISTER 13                 @L4A
 0000D0                             6529    01-IHASD +SDWACREE DS    F               CONTROL REGISTER 14                 @L4A
 0000D4                             6530    01-IHASD +SDWACREF DS    F               CONTROL REGISTER 15                 @L4A
 0000D8                             6531    01-IHASD +SDWAARER DS    0CL64           ACCESS REGISTERS AT TIME OF ERROR   @L4A
 0000D8                             6532    01-IHASD +SDWAARE0 DS    F               ACCESS REGISTER 0                   @L4A
 0000DC                             6533    01-IHASD +SDWAARE1 DS    F               ACCESS REGISTER 1                   @L4A
 0000E0                             6534    01-IHASD +SDWAARE2 DS    F               ACCESS REGISTER 2                   @L4A
 0000E4                             6535    01-IHASD +SDWAARE3 DS    F               ACCESS REGISTER 3                   @L4A
 0000E8                             6536    01-IHASD +SDWAARE4 DS    F               ACCESS REGISTER 4                   @L4A
 0000EC                             6537    01-IHASD +SDWAARE5 DS    F               ACCESS REGISTER 5                   @L4A
 0000F0                             6538    01-IHASD +SDWAARE6 DS    F               ACCESS REGISTER 6                   @L4A
 0000F4                             6539    01-IHASD +SDWAARE7 DS    F               ACCESS REGISTER 7                   @L4A
 0000F8                             6540    01-IHASD +SDWAARE8 DS    F               ACCESS REGISTER 8                   @L4A
 0000FC                             6541    01-IHASD +SDWAARE9 DS    F               ACCESS REGISTER 9                   @L4A
 000100                             6542    01-IHASD +SDWAAREA DS    F               ACCESS REGISTER 10                  @L4A
 000104                             6543    01-IHASD +SDWAAREB DS    F               ACCESS REGISTER 11                  @L4A
 000108                             6544    01-IHASD +SDWAAREC DS    F               ACCESS REGISTER 12                  @L4A
 00010C                             6545    01-IHASD +SDWAARED DS    F               ACCESS REGISTER 13                  @L4A
 000110                             6546    01-IHASD +SDWAAREE DS    F               ACCESS REGISTER 14                  @L4A
 000114                             6547    01-IHASD +SDWAAREF DS    F               ACCESS REGISTER 15                  @L4A
 000118                             6548    01-IHASD +SDWAARSV DS    0CL64           ACCESS REGISTERS OF THE RB LEVEL AND
                                    6549             +*                              LINKAGE STACK LEVEL WHICH CREATED THE
                                    6550             +*                              ESTAE EXIT AT THE TIME IT LAST INCURRED
                                    6551             +*                              AN INTERRUPT OR 0 FOR ESTAI.  FOR FRRS
                                    6552             +*                              INITIALIZED TO REGISTERS AT TIME OF
                                    6553             +*                              ERROR.  THIS REGISTER AREA IS USED TO
                                    6554             +*                              UPDATE REGISTER CONTENTS FOR RETRY IF
                                    6555             +*                              REQUESTED.                          @L4A
 000118                             6556    01-IHASD +SDWAARS0 DS    F               ACCESS REGISTER 0                   @L4A
 00011C                             6557    01-IHASD +SDWAARS1 DS    F               ACCESS REGISTER 1                   @L4A
 000120                             6558    01-IHASD +SDWAARS2 DS    F               ACCESS REGISTER 2                   @L4A
 000124                             6559    01-IHASD +SDWAARS3 DS    F               ACCESS REGISTER 3                   @L4A
 000128                             6560    01-IHASD +SDWAARS4 DS    F               ACCESS REGISTER 4                   @L4A
 00012C                             6561    01-IHASD +SDWAARS5 DS    F               ACCESS REGISTER 5                   @L4A
 000130                             6562    01-IHASD +SDWAARS6 DS    F               ACCESS REGISTER 6                   @L4A
 000134                             6563    01-IHASD +SDWAARS7 DS    F               ACCESS REGISTER 7                   @L4A
 000138                             6564    01-IHASD +SDWAARS8 DS    F               ACCESS REGISTER 8                   @L4A
 00013C                             6565    01-IHASD +SDWAARS9 DS    F               ACCESS REGISTER 9                   @L4A
 000140                             6566    01-IHASD +SDWAARSA DS    F               ACCESS REGISTER 10                  @L4A
 000144                             6567    01-IHASD +SDWAARSB DS    F               ACCESS REGISTER 11                  @L4A
 000148                             6568    01-IHASD +SDWAARSC DS    F               ACCESS REGISTER 12                  @L4A
 00014C                             6569    01-IHASD +SDWAARSD DS    F               ACCESS REGISTER 13                  @L4A
1TASKSERV (TASK00) (09:44) (22MAR04) IHAPSAE  - PSA Extension (ESAME)                                                       Page   38
0D-Loc  Object Code    Addr1 Addr2  Stmt Lv Lineno    Source Statement           (Hibal 5, Asmedit 3.3)  HLASM R4.0  2004/03/22 09.44
+_____  ______ ____    _____ _____  ____ __ ______    ______ _________
0000150                             6570    01-IHASD +SDWAARSE DS    F               ACCESS REGISTER 14                  @L4A
 000154                             6571    01-IHASD +SDWAARSF DS    F               ACCESS REGISTER 15                  @L4A
 000158                             6572    01-IHASD +SDWADUCT DS    CL64            DISPATCHABLE UNIT CONTROL TABLE     @L4A
 000198                             6573    01-IHASDC+SDWATEAR DS    XL1             TRANSLATION EXCEPTION ACCESS REGISTER
                                                     +                               NUMBER                              @L4A
 000199                             6574    01-IHASD +SDWAXFLG DS    XL1             EXTENDED FLAG AREA                  @L4A
                                    6575    01-IHASD +SDWAINTF EQU   X'80'   ON, SDWAEC2, SDWASRSV, AND SDWAARSV ARE
                                    6576             +*                      FROM A LINKAGE STACK ENTRY                  @02C
                                    6577    01-IHASD +SDWATEAV EQU   X'40'   ON, SDWATRAN CONTAINS A VALID ADDRESS       @L8A
                                    6578    01-IHASD +SDWATEIV EQU   X'20'   ON, SDWATRAN CONTAINS A VALID ASID          @L8A
                                    6579    01-IHASD +SDWAESTX EQU   X'10'   ON, IF SDWATYPE = SDWATEST, THE RECOVERY    @LEA
                                    6580             +*                      ROUTINE WAS ESTABLISHED VIA ESTAEX          @LEA
                                    6581    01-IHASD +SDWATEPC EQU   X'08'   ON, SDWATRAN CONTAINS A VALID PC number     @LIA
 00019A                             6582    01-IHASD +SDWASFLG DS    XL1     SUBSPACE FLAG AREA                          @LGA
                                    6583    01-IHASD +SDWASVLD EQU   X'80'   ON IF SUBSPACE INFORMATION AT TIME OF ERROR
                                    6584             +*                      (SDWASTKN AND SDWASNM) IS AVAILABLE AND VALID
                                    6585             +*                                                                  @LGA
                                    6586    01-IHASD +SDWASSA  EQU   X'40'   ON IF A SUBSPACE WAS ACTIVE AT TIME OF ERROR
                                    6587             +*                                                                  @LGA
                                    6588    01-IHASD +SDWASSRS EQU   X'01'   TURNED ON BY AN ESTAE-TYPE RECOVERY ROUTINE
                                    6589             +*                      TO INDICATE THAT RTM SHOULD RESTORE ITS ORIGINAL
                                    6590             +*                      SUBSPACE ENVIRONMENT IF IT RECURSES         @LGA
 00019B                             6591    01-IHASD +SDWAARCH DS    B               Copy of FLCARCH                     @PHC
                                    6592    01-IHASD +SDWAESAM EQU   X'01'           Copy of PSAESAME                    @PHA
 00019C                             6593    01-IHASD +SDWAPRM2 DS    0CL8            ARR MSTA AREA COPY                  @L4A
 00019C                             6594    01-IHASD +SDWAMST1 DS    0CL4            1ST WORD OF MSTA AREA               @L4A
 00019C                             6595    01-IHASD +SDWAPCEP DS    CL4             PC ESTAE PARAM VALUE                @L4A
 0001A0                             6596    01-IHASD +SDWAMST2 DS    0CL4            2ND WORD OF MSTA AREA               @L4A
 0001A0                             6597    01-IHASD +SDWAPCEA DS    CL4             PC ESTAE PARAM ALET VALUE           @L4A
 0001A4                             6598    01-IHASD +SDWALSED DS    F               PTR TO LINKAGE STK ENTRY (CR15)     @D2C
 0001A8                             6599    01-IHASDC+SDWACLSE DS    CL4             ON ENTRY TO AN FRR, CONTAINS COPY OF
                                                    C+                               PSACLHSE. ON ENTRY TO ESTAE, CONTAINS
                                                     +                               ZERO.                               @L9A
 0001AC                             6600    01-IHASDC+SDWALSLV DS    XL2             FOR RETRY: NUMBER OF BAKR ENTRIES PAST
                                                    C+                               TIME-OF-SET TO SET LINKAGE STACK ON
                                                    C+                               RETRY. IGNORED FOR FRR IF RETRY=ERROR
                                                     +                                                                   @PAC
 0001AE                             6601    01-IHASD +         DS    CL2             RESERVED
 0001B0                             6602    01-IHASD +SDWASTKN DS    CL8     STOKEN OF THE SUBSPACE AT TIME OF ERROR - VALID
                                    6603             +*                      ONLY IF SDWASVLD IS ON, NOT AVAILABLE FOR FRRS
                                    6604             +*                                                                  @LGA
 0001B8                             6605    01-IHASD +SDWASNM  DS    CL8     NAME OF THE SUBSPACE AT TIME OF ERROR - VALID
                                    6606             +*                      ONLY IF SDWASVLD IS ON, NOT AVAILABLE FOR FRRS
                                    6607             +*                                                                  @LGA
 0001C0                             6608    01-IHASD +SDWASNAM DS    CL8     Name of the SYSTEM that this record was created
                                    6609             +*                      on.  This is the same system name that is used
                                    6610             +*                      in a SYSPLEX.                               @05A
                                    6611             +*    THE LENGTH MUST BE UPDATED IF ADDITIONS ARE MADE HERE         @L4A
 0001C8                             6612    01-IHASD +SDWASEND DS   0D       END OF SERV EXTENSION OF SDWA           @G388P2F
                                    6613             +*
                                    6614             +**********************************************************************
                                    6615             +*           EXTENSION FOR THE IO MACHINE CHECK ADDITIONAL DATA.      *
                                    6616             +*           THIS EXTENSION IS RECORDED.                      @G860P1C*
                                    6617             +**********************************************************************
 000000                00000 00010  6618    01-IHASD +SDWARC2  DSECT ,       POINTED TO BY SDWAXIOM                  @G860P1C
 000000                             6619    01-IHASD +SDWAIOMA DS   0CL16    ADDITIONAL IO MACHINE CHECK DATA        @G860P1C
1TASKSERV (TASK00) (09:44) (22MAR04) IHAPSAE  - PSA Extension (ESAME)                                                       Page   39
0D-Loc  Object Code    Addr1 Addr2  Stmt Lv Lineno    Source Statement           (Hibal 5, Asmedit 3.3)  HLASM R4.0  2004/03/22 09.44
+_____  ______ ____    _____ _____  ____ __ ______    ______ _________
0000000                             6620    01-IHASD +SDWARFSE DS   0CL8     FSA                                         @LIC
 000000                             6621    01-IHASD +SDWARFSH DS   CL4      High half of FSA (zero pre-ESAME)           @LIA
 000004                             6622    01-IHASD +SDWARFSL DS   CL4      Low half of FSA                             @LIA
 000008                             6623    01-IHASD +SDWAMCIC DS   CL8      MACHINE CHECK INTERRUPT CODE            @G860P1C
 000010                             6624    01-IHASD +SDWAIEND DS   0D       END OF SDWAIOMA EXTENSION OF SDWA       @G860P1C
                                    6625             +*
                                    6626             +**********************************************************************
                                    6627             +*           EXTENSION FOR THE ADDITIONAL FRELOCK DATA.               *
                                    6628             +*           THIS EXTENSION IS RECORDED.                      @G860P1C*
                                    6629             +**********************************************************************
 000000                00000 00020  6630    01-IHASD +SDWARC3  DSECT ,       POINTED TO BY SDWAXLCK                      @L1C
 000000                             6631    01-IHASD +SDWAFLCK DS   0CL32    ADDITIONAL FRELOCK DATA                 @G860P1C
 000000                             6632    01-IHASD +SDWAFLK1 DS   B        FLAGS INDICATING WHAT LOCKS ARE TO      @G860P1C
                                    6633             +*                      BE FREED                                @G860P1C
                                    6634    01-IHASD +SDWAFCPU EQU  X'80'    ON, FREE THE CPU LOCK                   @G860P1S
                                    6635    01-IHASD +SDWAFRSM EQU  X'08'    ON, FREE THE RSM LOCK                   @G860P1S
                                    6636    01-IHASD +SDWAFTRC EQU  X'04'    ON, FREE THE TRACE LOCK                 @G860P1S
                                    6637    01-IHASD +SDWAIOCB EQU  X'02'    ON, THE IOS LOCK                            @P4M
 000001                             6638    01-IHASD +SDWAFLK2 DS   B        FLAGS INDICATING WHAT LOCKS ARE TO      @G860P1C
                                    6639             +*                      BE FREED                                @G860P1C
                                    6640    01-IHASD +SDWAFRSC EQU  X'10'    ON, FREE THE RSM COMMON CLASS LOCK      @G860P1S
                                    6641    01-IHASD +SDWAFRSG EQU  X'08'    ON, FREE THE RSM GLOBAL CLASS LOCK      @G860P1S
                                    6642    01-IHASD +SDWAFVSF EQU  X'04'    ON, FREE THE VSM FIX LOCK               @G860P1S
                                    6643    01-IHASD +SDWAFASG EQU  X'02'    ON, FREE THE ASM GLOBAL CLASS LOCK      @G860P1S
                                    6644    01-IHASD +SDWAFRSS EQU  X'01'    ON, FREE THE RSM STEAL CLASS LOCK       @G860P1S
 000002                             6645    01-IHASD +SDWAFLKE DS   0CL4     FLAGS INDICATING LOCKS TO BE FREED          @L9C
 000002                             6646    01-IHASDC+SDWAFLE1 DS   CL1      FLAGS FOR LOCKS TO BE FREED IN FIRST BYTE OF
                                                     +                       EXTENSION                                   @L9A
                                    6647    01-IHASD +SDWABLSD EQU  X'80'    ON, FREE THE BMFLSD LOCK                    @LCA
                                    6648    01-IHASD +SDWAXDS  EQU  X'40'    ON, FREE THE XCFDS LOCK                     @LBA
                                    6649    01-IHASD +SDWAXRES EQU  X'20'    ON, FREE THE XCFRES LOCK                    @LBA
                                    6650    01-IHASD +SDWAXQ   EQU  X'10'    ON, FREE THE XCFQ LOCK                      @LBA
                                    6651    01-IHASD +SDWAESET EQU  X'08'    ON, FREE THE ETRSET LOCK                    @LAA
                                    6652    01-IHASD +SDWAIXSC EQU  X'04'    ON, FREE THE IXLSCH  LOCK                   @LFA
                                    6653    01-IHASD +SDWAIXSR EQU  X'02'    ON, FREE THE IXLSHR  LOCK                   @LFA
                                    6654    01-IHASD +SDWAIXDS EQU  X'01'    ON, FREE THE IXLDS   LOCK                   @LFA
 000003                             6655    01-IHASDC+SDWAFLE2 DS   CL1      FLAGS FOR LOCKS TO BE FREED IN SECOND BYTE OF
                                                     +                       EXTENSION                                   @L9A
                                    6656    01-IHASD +SDWAIXSH EQU  X'80'    ON, FREE THE IXLSHELL LOCK                  @LFA
                                    6657    01-IHASD +SDWAULUT EQU  X'40'    ON, FREE THE IOSULUT LOCK                   @LDA
                                    6658    01-IHASD +SDWAIXRE EQU  X'20'    ON, FREE THE IXLREQST LOCK                  @03A
                                    6659    01-IHASD +SDWAWLMR EQU  X'10'    On, free the WLMRES lock                    @PFC
                                    6660    01-IHASD +SDWAWLMQ EQU  X'08'    On, free the WLMQ lock                      @PEC
                                    6661    01-IHASD +SDWACNTX EQU  X'04'    On, free the CONTEXT lock                   @PFC
                                    6662    01-IHASD +SDWARGSV EQU  X'02'    On, free the REGSRV lock                    @LJA
 000004                             6663    01-IHASDC+SDWAFLE3 DS   CL1      FLAGS FOR LOCKS TO BE FREED IN THIRD BYTE OF
                                                     +                       EXTENSION                                   @L9A
 000005                             6664    01-IHASDC+SDWAFLE4 DS   CL1      FLAGS FOR LOCKS TO BE FREED IN FOURTH BYTE OF
                                                     +                       EXTENSION                                   @L9A
 000006                             6665    01-IHASD +         DS   CL2      RESERVED                                    @L9A
 000008                             6666    01-IHASD +SDWALRSG DS   F        LOCKWORD ADDR FOR THE RSMGL  LOCK       @G860P1C
 00000C                             6667    01-IHASD +SDWALASG DS   F        LOCKWORD ADDR FOR THE ASMGL  LOCK       @G860P1C
 000010                             6668    01-IHASD +SDWALRSS DS   F        LOCKWORD ADDR FOR THE RSMST  LOCK       @G860P1C
 000014                             6669    01-IHASD +SDWALRSX DS   F        LOCKWORD ADDR FOR THE RSMXM  LOCK       @G860P1C
 000018                             6670    01-IHASD +SDWALRSA DS   F        LOCKWORD ADDR FOR THE RSMAD  LOCK       @G860P1C
 00001C                             6671    01-IHASD +SDWALRSC DS   F        LOCKWORD ADDR FOR THE RSMCM  LOCK       @G860P1S
1TASKSERV (TASK00) (09:44) (22MAR04) IHAPSAE  - PSA Extension (ESAME)                                                       Page   40
0D-Loc  Object Code    Addr1 Addr2  Stmt Lv Lineno    Source Statement           (Hibal 5, Asmedit 3.3)  HLASM R4.0  2004/03/22 09.44
+_____  ______ ____    _____ _____  ____ __ ______    ______ _________
0000020                             6672    01-IHASD +SDWALEND DS   0D       END OF SDWAFLCK EXTENSION OF SDWA       @G860P1C
                                    6673             +*
                                    6674             +**********************************************************************
                                    6675             +* SDWARC4 - Extension for 64-bit related information.                *
                                    6676             +*           This extension is ONLY present when the SDWA is above    *
                                    6677             +*           the 16M line - be sure to check for a non-zero SDWAXEME  *
                                    6678             +*           before accessing it!!!  This extension is recorded   @LIA*
                                    6679             +**********************************************************************
 000000                00000 00150  6680    01-IHASD +SDWARC4  DSECT ,       Pointed to by SDWAXEME                      @LIA
 000000                             6681    01-IHASDC+SDWAG64  DS    0CL128  64-bit GPRs - initially contains registers
                                                     +                       at the Time Of Error, also used for retry   @LIA
 000000                             6682    01-IHASD +SDWAG6400 DS   D       Register 0                                  @LIA
 000008                             6683    01-IHASD +SDWAG6401 DS   D       Register 1                                  @LIA
 000010                             6684    01-IHASD +SDWAG6402 DS   D       Register 2                                  @LIA
 000018                             6685    01-IHASD +SDWAG6403 DS   D       Register 3                                  @LIA
 000020                             6686    01-IHASD +SDWAG6404 DS   D       Register 4                                  @LIA
 000028                             6687    01-IHASD +SDWAG6405 DS   D       Register 5                                  @LIA
 000030                             6688    01-IHASD +SDWAG6406 DS   D       Register 6                                  @LIA
 000038                             6689    01-IHASD +SDWAG6407 DS   D       Register 7                                  @LIA
 000040                             6690    01-IHASD +SDWAG6408 DS   D       Register 8                                  @LIA
 000048                             6691    01-IHASD +SDWAG6409 DS   D       Register 9                                  @LIA
 000050                             6692    01-IHASD +SDWAG6410 DS   D       Register 10                                 @LIA
 000058                             6693    01-IHASD +SDWAG6411 DS   D       Register 11                                 @LIA
 000060                             6694    01-IHASD +SDWAG6412 DS   D       Register 12                                 @LIA
 000068                             6695    01-IHASD +SDWAG6413 DS   D       Register 13                                 @LIA
 000070                             6696    01-IHASD +SDWAG6414 DS   D       Register 14                                 @LIA
 000078                             6697    01-IHASD +SDWAG6415 DS   D       Register 15                                 @LIA
 000080                             6698    01-IHASD +         DS    CL8     Reserved                                    @LIA
 000088                             6699    01-IHASD +SDWAG64H DS    CL64    High order halves of 64-bit GPRs in G64     @LIA
 0000C8                             6700    01-IHASD +SDWAC64S DS    CL128   ESAME CRs at time of error                  @LIA
 000148                             6701    01-IHASD +SDWATRNE DS    CL8     8-byte TEA                                  @LIA
 000150                             6702    01-IHASD +SDWAEEND DS   0D       End of 64-bit extension of the SDWA         @LIA
                                    6703             +*
                                    6704             +**********************************************************************
                                    6705             +*                                                                    *
                                    6706             +* SDWAPTRS - pointers to the SDWA extensions.  This ptr section      *
                                    6707             +*            must be of doubleword length (multiple of 8) and all    *
                                    6708             +*            extensions must also be of doubleword length            *
                                    6709             +*                                                                    *
                                    6710             +**********************************************************************
 000000                00000 00020  6711    01-IHASD +SDWAPTRS DSECT ,       POINTED TO BY SDWAXPAD                  @G381P2F
 000000                             6712    01-IHASD +SDWADSRP DS   A        ADDR DUMP STORAGE RANGES PTR. - SDWANRC1    @L1C
 000004                             6713    01-IHASD +SDWASRVP DS   A        ADDR ADDITIONAL COMP SERV DATA - SDWARC1    @L1C
 000008                             6714    01-IHASD +SDWAXIOM DS   A        ADDR OF I/O MACHINE CHECK AREA - SDWARC2    @L1C
 00000C                             6715    01-IHASD +SDWAXSPL DS   A        ADDR OF STORAGE SUBPOOLS AREA - SDWANRC2    @L1C
 000010                             6716    01-IHASD +SDWAXLCK DS   A        ADDR ADDITIONAL FRELOCK DATA - SDWARC3      @01M
 000014                             6717    01-IHASD +SDWADSPP DS   A        DATA SPACE STORAGE RANGES POINTER - SDWANRC3@L7C
 000018                             6718    01-IHASD +SDWAXEME DS   A        Addr 64-bit information - SDWARC4           @LIA
 00001C                             6719    01-IHASD +         DS   F        Reserved                                    @LIA
 000020                             6720    01-IHASD +SDWAPEND DS   0D       END OF PTRS EXTENSION OF SDWA           @G38FP2F
                                    6721             +*
                                    6722             +**********************************************************************
                                    6723             +*           EXTENSION FOR THE LIST OF DUMP STORAGE RANGES.           *
                                    6724             +*           THIS EXTENSION IS NOT RECORDED.                      @L4A*
                                    6725             +**********************************************************************
 000000                00000 000F0  6726    01-IHASD +SDWANRC1 DSECT ,       NONRECORDABLE EXTENSION, BASED SDWADSRP @G381P2F
1TASKSERV (TASK00) (09:44) (22MAR04) IHAPSAE  - PSA Extension (ESAME)                                                       Page   41
0D-Loc  Object Code    Addr1 Addr2  Stmt Lv Lineno    Source Statement           (Hibal 5, Asmedit 3.3)  HLASM R4.0  2004/03/22 09.44
+_____  ______ ____    _____ _____  ____ __ ______    ______ _________
0000000                             6727    01-IHASD +SDWADSR  DS   CL240    DUMP STORAGE RANGES                     @G382P2F
 0000F0                             6728    01-IHASD +SDWAREND DS   0D       END OF DSR EXTENSION OF SDWA            @G382P2F
                                    6729             +*
                                    6730             +**********************************************************************
                                    6731             +*           EXTENSION FOR THE LIST OF STORAGE SUBPOOLS.              *
                                    6732             +*           THIS EXTENSION IS NOT RECORDED AND IS NOT ALLOCATED      *
                                    6733             +*           FOR SUPER FRR STACKS.                            @G860P1C*
                                    6734             +**********************************************************************
 000000                00000 00010  6735    01-IHASD +SDWANRC2 DSECT ,       POINTED TO BY SDWAXSPL                  @G860P1C
                                    6736    01-IHASD +SDWASPMX EQU  7        MAX NUMBER OF SUBPOOLS ON DUMPOPT       @G860P1C
 000000                             6737    01-IHASD +SDWASPLE DS   0CL16    UP TO 7 SUBPOOLS OF STORAGE TO BE       @G860P1C
                                    6738             +*                      DUMPED BY ABDUMP                        @G860P1C
 000000                             6739    01-IHASD +SDWASPLN DS   H        NUMBER OF SUBPOOLS TO BE DUMPED         @G860P1C
 000002                             6740    01-IHASD +SDWASPLS DS   7H       IDS OF SUBPOOLS TO BE DUMPED            @G860P1C
 000010                             6741    01-IHASD +SDWASEN  DS   0D       END OF SDWASPLS EXTENSION OF SDWA       @G860P1C
                                    6742             +*
                                    6743             +**********************************************************************
                                    6744             +*           EXTENSION FOR THE LIST OF DUMPOPX STORAGE RANGES.        *
                                    6745             +*           THIS EXTENSION IS NOT RECORDED.                      @L7A*
                                    6746             +**********************************************************************
                                    6747             +*
 000000                00000 000F0  6748    01-IHASD +SDWANRC3 DSECT ,       DUMPOPX EXTENSION, POINTED TO BY SDWADSPP  @L7A
 000000                             6749    01-IHASD +SDWADXSL DS    0CL240              LIST OF DUMPOPX RANGES         @L7A
 000000                             6750    01-IHASD +SDWADXSR DS    15CL16              DUMPOPX RANGE (UP TO 15)       @L7A
 0000F0                             6751    01-IHASD +SDWADEND DS    0D                                                 @L7A
                                    6752    01-IHASDC+SDWADXMX EQU   15      UP TO 15 DATA SPACE STORAGE RANGES MAY BE
                                                     +                       SPECIFIED                                  @L7A
                                    6753             +
                                    6754    01-IHASD +SDWALEN  EQU  SDWAEND-SDWA  LENGTH OF SDWA
                                    6755    01-IHASD +SDWAPLEN EQU  SDWAPEND-SDWAPTRS  LENGTH OF PTRS EXTENSION      @G381P2F
                                    6756    01-IHASD +SDWARLEN EQU  SDWAREND-SDWANRC1  LENGTH OF DSR EXTENSION       @G382P2F
                                    6757    01-IHASD +SDWACLEN EQU  SDWASEND-SDWARC1   LENGTH OF SERV EXTENSION      @G388P2F
                                    6758    01-IHASD +SDWAILEN EQU  SDWAIEND-SDWARC2   LENGTH OF IOMA EXTENSION      @G860P1C
                                    6759    01-IHASD +SDWALLEN EQU  SDWALEND-SDWARC3   LENGTH OF FRELOCK EXTENSION   @G860P1C
                                    6760    01-IHASD +SDWASPL  EQU  SDWASEN-SDWANRC2   LENGTH OF SUBPOOL EXTENSION   @G860P1C
                                    6761    01-IHASDC+SDWADLEN EQU  SDWADEND-SDWANRC3  LENGTH OF EXTENSION FOR DATA SPACE
                                                     +                                  RANGES                           @L7A
                                    6762    01-IHASD +SDWANLNS EQU  SDWARLEN+SDWASPL+SDWADLEN Non-recordable extensions  @LIA
                                    6763    01-IHASD +SDWAELEN EQU  SDWAEEND-SDWARC4   Length of ESAME extension         @LIA
                                    6764    01-IHASD +SDWARLNS EQU  SDWACLEN+SDWAILEN+SDWALLEN+SDWAELEN                  @LIA
                                    6765    01-IHASD +SDWAMLNP EQU  SDWALEN+SDWACLEN+SDWAILEN+SDWALLEN+SDWAELEN          @LIA
                                    6766    01-IHASD +SDWAMLEN EQU  SDWAMLNP+SDWAPLEN                                    @LIC
                                    6767             +*             Total length of SDWA with only recordable            @LIC
                                    6768             +*             extensions. This is a super stack SDWA.              @LIC
                                    6769    01-IHASD +SDWATLEN EQU  SDWAMLEN+SDWANLNS                                    @LIC
                                    6770             +*             Total length of SDWA with all extensions             @LIC
                                    6771             +*             This is a normal stack SDWA                          @LIC
                                    6772    01-IHASD +SDWAOLEN EQU  SDWATLEN-SDWAELEN                                    @LIA
                                    6773             +*             Total length of SDWA with all extensions except RC4. @LIA
                                    6774             +*             This is an RTM2 below-16M SDWA                       @LIA
                                    6775    01-IHASD +SDWASLEN EQU  SDWAMLEN+272                                         @LIC
                                    6776             +*             Getmain length for super stack FRR SDWA          @G860P1C
                                    6777    01-IHASD +SDWAFLEN EQU  SDWASLEN+SDWANLNS                                    @LIC
                                    6778             +*             Getmain length for normal stack FRR SDWA         @G860P1S
                                    6779             +*
                                    6780    01-IHASD +SDWANOPR EQU  0                 THIS FIELD IS ONLY DEFINED IN
1TASKSERV (TASK00) (09:44) (22MAR04) IHAPSAE  - PSA Extension (ESAME)                                                       Page   42
0D-Loc  Object Code    Addr1 Addr2  Stmt Lv Lineno    Source Statement           (Hibal 5, Asmedit 3.3)  HLASM R4.0  2004/03/22 09.44
+_____  ______ ____    _____ _____  ____ __ ______    ______ _________
0                                   6781             +*                               ASSEMBLER VERSION OF THE SDWA. ITS
                                    6782             +*                               PURPOSE IS TO FLAG INCOMPATABLE USE
                                    6783             +*                               OF SETRP AND SDWA.             @G38AP2F
1TASKSERV (TASK00) (09:44) (22MAR04) IHAPSAE  - PSA Extension (ESAME)                                                       Page   43
0D-Loc  Object Code    Addr1 Addr2  Stmt Lv Lineno    Source Statement           (Hibal 5, Asmedit 3.3)  HLASM R4.0  2004/03/22 09.44
+_____  ______ ____    _____ _____  ____ __ ______    ______ _________
0                                   6786             +*%VRAPLSL1:  ;
                                    6787             +*/****************** Start of Specifications *************************/
                                    6788             +*/*                                                                  */
                                    6789             +*/*  Macro Name: IHAVRA                                              */
                                    6790             +*/*                                                                  */
                                    6791             +*/*  Dsect Name: VRAMAP                                              */
                                    6792             +*/*                                                                  */
                                    6793             +*/*  Descriptive Name: Variable Recording Area                       */
                                    6794             +*/*                                                                  */
                                    6795             +*/* COPYRIGHT:                                                       */
                                    6796             +*/*     5645-001                                                 @P3C*/
                                    6797             +*/*     THIS MODULE IS "RESTRICTED MATERIALS OF IBM"                 */
                                    6798             +*/*     (C) COPYRIGHT IBM CORP. 1981, 1996                       @P3C*/
                                    6799             +*/*     LICENSED MATERIALS - PROPERTY OF IBM                         */
                                    6800             +*/*                                                                  */
                                    6801             +*/*  STATUS: HBB6601                                             @P3C*/
                                    6802             +*/*                                                                  */
                                    6803             +*/*  Component: RTM (SCRTM)                                      @P3C*/
                                    6804             +*/*                                                                  */
                                    6805             +*/*  External Classification: GUPI                                   */
                                    6806             +*/*  End of External Classification: GUPI                            */
                                    6807             +*/*                                                                  */
                                    6808             +*/*  Storage attributes:                                             */
                                    6809             +*/*    Subpool: Same as containing structure                         */
                                    6810             +*/*    Key:     Same as containing structure                         */
                                    6811             +*/*                                                                  */
                                    6812             +*/*  Function:                                                       */
                                    6813             +*/*     Maps the SDWA Variable Recording Area (SDWAVRA) or a         */
                                    6814             +*/*     component-maintained area in a key, length, data format,     */
                                    6815             +*/*     to speed up error analysis. Also provides constants for      */
                                    6816             +*/*     SDWA data and for ABDUMP symptom data.                       */
                                    6817             +*/*                                                                  */
                                    6818             +*/*01*  Keys are provided to indicate symptom data from the          */
                                    6819             +*/*     following sources:                                           */
                                    6820             +*/*       - SDWA fixed areas, including extensions.                  */
                                    6821             +*/*       - SDWAVRA.                                                 */
                                    6822             +*/*       - ABDUMP symptom area (see AMDDATA macro, structure        */
                                    6823             +*/*                PRDSYSMD)                                         */
                                    6824             +*/*                                                                  */
                                    6825             +*/*     Examples of component-maintained areas are SDUMP 4K          */
                                    6826             +*/*     buffer and the LRB control block user data field,            */
                                    6827             +*/*     LRBTUSR, for wait state data.                                */
                                    6828             +*/*                                                                  */
                                    6829             +*/*  Usage:                                                          */
                                    6830             +*/*     Any recovery routine or other error handling routine can     */
                                    6831             +*/*     use this mapping to create formatted error information       */
                                    6832             +*/*     within the SDWAVRA or in other (component-maintained) areas. */
                                    6833             +*/*                                                                  */
                                    6834             +*/*     The SDWAVRAM bit must be turned on if the SDWAVRA data is    */
                                    6835             +*/*     mapped.  Also, users of the SDWAVRA must set the SDWAURAL    */
                                    6836             +*/*     field equal to the length of the user-supplied data.         */
                                    6837             +*/*                                                                  */
                                    6838             +*/*     The VRADATA executable macro can be used to reduce the       */
                                    6839             +*/*     lines of code required to put data in a key, length, data    */
                                    6840             +*/*     format.  Use the VRAINIT keyword to set the SDWAVRAM bit     */
                                    6841             +*/*     and respecify VRAMAP based on VRAPTR.                        */
1TASKSERV (TASK00) (09:44) (22MAR04) IHAPSAE  - PSA Extension (ESAME)                                                       Page   44
0D-Loc  Object Code    Addr1 Addr2  Stmt Lv Lineno    Source Statement           (Hibal 5, Asmedit 3.3)  HLASM R4.0  2004/03/22 09.44
+_____  ______ ____    _____ _____  ____ __ ______    ______ _________
0                                   6842             +*/*                                                                  */
                                    6843             +*/*     The VRALENKL variable (macro variable in PLS) can be used    */
                                    6844             +*/*     to specify the length of the VRAKL field when updating the   */
                                    6845             +*/*     pointer to the next field in the formatted area.             */
                                    6846             +*/*                                                                  */
                                    6847             +*/*  Method of Access:                                               */
                                    6848             +*/*    BAL  - a DSECT is produced, perform using on VRAMAP.          */
                                    6849             +*/*         _ specify IHAVRA DSECT=NO if no DSECT is needed.         */
                                    6850             +*/*           specify IHAVRA RRKEY=NO to suppress VRARRKNN keys.     */
                                    6851             +*/*    PL/S:                                                         */
                                    6852             +*/*         %INCLUDE SYSLIB(IHAVRA)                                  */
                                    6853             +*/*         - specify %VRARRKEY='NO' to suppress VRARRKNN keys.      */
                                    6854             +*/*    Publications:                                                 */
                                    6855             +*/*         %INCLUDE SYSLIB(IHAVRA)                                  */
                                    6856             +*/*                                                                  */
                                    6857             +*/*  Pointed to by: N/A                                              */
                                    6858             +*/*                                                                  */
                                    6859             +*/*  Eye catcher: NONE                                               */
                                    6860             +*/*                                                                  */
                                    6861             +*/*  Created by:                                                     */
                                    6862             +*/*     The SDWA is created by RTM.  Recovery routines can create    */
                                    6863             +*/*     formatted data within the SDWAVRA field.                     */
                                    6864             +*/*                                                                  */
                                    6865             +*/*  Deleted by:                                                     */
                                    6866             +*/*     The SDWA is deleted by RTM.                                  */
                                    6867             +*/*                                                                  */
                                    6868             +*/*  Size: Variable (255 byte max.)                                  */
                                    6869             +*/*                                                                  */
                                    6870             +*/*  Serialization: Same as containing structure                     */
                                    6871             +*/*                                                                  */
                                    6872             +*/*  Notes:                                                          */
                                    6873             +*/*                                                                  */
                                    6874             +*/*  Change Activity:                                                */
                                    6875             +*/*     OS/VS2 JBB1126 - NEW MAPPING MACRO                   @G81EP11*/
                                    6876             +*/*     OS/VS2 JBB1226 - COMMENTS CHANGES                    @ZMB0422*/
                                    6877             +*/*     OS/VS2 HBB2102 - NEW KEYS FOR HBB2102 COMPONENTS     @G860P11*/
                                    6878             +*/*                    - PTM TO ADD VRACBI2 KEY              @ZMC2885*/
                                    6879             +*/*     OS/VS2 JBB2110 - ADD KEYS FOR DAE.                       @L1A*/
                                    6880             +*/* FLAG  REASON RELEASE   DATE  ORIGIN                          @L1A*/
                                    6881             +*/* $L1=   DAE   JBB2110  821001  PD04: DUMP ANALYSIS & ELIMINATION  */
                                    6882             +*/* $P1=   DAE   PAB0105  821001  PD04: DELETE E1SDR1C CONSTANT      */
                                    6883             +*/* $P2=   DAE   PAB0205  821001  PD1Y: CHANGE KEYS FOR RC1 AND RC2  */
                                    6884             +*/*                                     TO FIXED(15)                 */
                                    6885             +*/* $D1= DCR006  JBB2220  850601  PDFP: NEW DEVELOPER KEYS       @D1A*/
                                    6886             +*/* $01= OZ88380 JBB2220  850601  PDFP: PIDS symptom                 */
                                    6887             +*/* $L3=   AR    HBB3310  860406  PDFP: ALET support                 */
                                    6888             +*/* $L4= LOCKR   JBB3320  870701  PDA8: Lock Restructure             */
                                    6889             +*/* $L5= MSDAE   HBB4430  900911  PDCK: Added VRANODAE Key           */
                                    6890             +*/* $L6= SERV2D07 HBB5520 940310  PDHT: Added VRALVLS Key            */
                                    6891             +*/* $P3= PR20011  HBB6601 950908  PDKD: SC1CM compid split       @P3A*/
                                    6892             +*/*                                                                  */
                                    6893             +*/******************* End of Specifications **************************/
                                    6894             +*/*A-000000-999999                                           @G81EP11*/
                                    6895             +*/********************************************************************/
                                    6896             +*/*  THIS STRUCTURE IS USED TO MAP VARIABLE RECORDING AREA DATA      */
                                    6897             +*/*  IN KEY, LENGTH, DATA FORMAT.  THE SDWAVRAM BIT MUST BE TURNED   */
1TASKSERV (TASK00) (09:44) (22MAR04) IHAPSAE  - PSA Extension (ESAME)                                                       Page   45
0D-Loc  Object Code    Addr1 Addr2  Stmt Lv Lineno    Source Statement           (Hibal 5, Asmedit 3.3)  HLASM R4.0  2004/03/22 09.44
+_____  ______ ____    _____ _____  ____ __ ______    ______ _________
0                                   6898             +*/*  ON IF THE SDWAVRA DATA IS MAPPED IN THIS FORMAT.                */
                                    6899             +*/********************************************************************/
                                    6900             +*        %GOTO VRAPLSL2;    /*
 000000                00000 00002  6901    02-IHAVR +VRAMAP   DSECT
 000000                             6902    02-IHAVR +VRAKL    DS    0FL2     USE THIS LABEL TO OBTAIN THE LENGTH OF THE
                                    6903             +*                        NEXT TWO FIELDS.
 000000                             6904    02-IHAVR +VRAKEY   DS    FL1      KEY TO IDENTIFY THE DATA THAT FOLLOWS. THE
                                    6905             +*                        POSSIBLE VALUES FOR THIS FIELD ARE GIVEN AS
                                    6906             +*                        CONSTANTS THAT FOLLOW THE VRAMAP DECLARE.
 000001                             6907    02-IHAVR +VRALEN   DS    FL1      LENGTH OF THE DATA THAT FOLLOWS.  THE
                                    6908             +*                        CONSTANTS FOR VRAKEY INDICATE SOME RECOMMENDED
                                    6909             +*                        LENGTHS.
 000002                             6910    02-IHAVR +VRADAT   DS    0FL1     VARIABLE LENGTH DATA. THIS DATA IS FOLLOWED
                                    6911             +*                        BY ADDITIONAL KEY, LENGTH, AND DATA FIELDS
                                    6912             +*                        UNTIL ALL USER DATA IS SUPPLIED.
                                    6913             +*
                                    6914    02-IHAVR +VRALENKL EQU   VRADAT-VRAKL  LENGTH OF THE VRAKL FIELD (VRAKEY AND
                                    6915             +*                        VRALEN), FOR USE IN UPDATING THE POINTER TO
                                    6916             +*                        THE NEXT FIELD IN THE RECORDING AREA.
                                    6917             +***********************************************************************
                                    6918             +*    THE FOLLOWING CONSTANTS GIVE THE VALUES THAT ARE SUPPORTED FOR   *
                                    6919             +*    VRAKEY FIELDS.  THE MEANINGS OF KEYS 200 ('C8'X) TO 239 ('EF'X)  *
                                    6920             +*    MAY BE ASSIGNED BY EACH RECOVERY ROUTINE.  THE MEANINGS OF THE   *
                                    6921             +*    OTHER KEYS ARE ASSIGNED BY THE OWNER OF THE IHAVRA MACRO.        *
                                    6922             +*                                                                     *
                                    6923             +*                                                                     *
                                    6924             +*                                                                     *
                                    6925             +*    KEYS CAN BE REPEATED IN A VARIABLE RECORDING AREA IN ORDER       *
                                    6926             +*    TO SUPPLY SEVERAL FOOTPRINT AREAS, ETC.   HOWEVER, FOR DUMP  @L1A*
                                    6927             +*    ANALYSIS AND ELIMINATION, ONLY THE FIRST OCCURRENCE OF A KEY @L1A*
                                    6928             +*    WILL BE USED.                                                @L1A*
                                    6929             +*                                                                     *
                                    6930             +*                                                                     *
                                    6931             +*                                                                     *
                                    6932             +*                                                                     *
                                    6933             +*    THE SDWACID, SDWASC, SDWAMLVL, SDWACRC, AND SDWARRL FIELDS       *
                                    6934             +*    SHOULD BE USED INSTEAD OF THE VRACOM, VRASC, VRALVL, VRARC,      *
                                    6935             +*    AND VRARRL KEYS FOR OS/VS2 JBB1226 AND HIGHER LEVEL MODULES.     *
                                    6936             +*                                                                     *
                                    6937             +***********************************************************************
                                    6938    02-IHAVR +VRACOM   EQU   1        THE VRADAT DATA IS THE 5-BYTE EBCDIC COMPONENT
                                    6939             +*                       ID (SUCH AS SC1CR).  USE THE SDWACID FIELD
                                    6940             +*                       INSTEAD OF THIS KEY.  SEE THE ABOVE NOTE.
                                    6941             +*
                                    6942    02-IHAVR +VRASC    EQU   2        THE DATA IS EBCDIC TEXT TO IDENTIFY THE
                                    6943             +*                       SUBCOMPONENT OR SUBFUNCTION THAT FAILED
                                    6944             +*                       (SUCH AS RSM-PGFIX), IF NOT IN SDWASC
                                    6945             +*
                                    6946    02-IHAVR +VRALVL   EQU   3        THE DATA IS THE EBCDIC LEVEL FOR THE FAILING
                                    6947             +*                       MODULE, IN COMPILEDATEBBPTF--OR SU OR PRODUCT
                                    6948             +*                       NUMBER--FORMAT (SUCH AS 78.256  UZ86400), AS
                                    6949             +*                       PRODUCED BY THE PLS ID MACRO ON A PLS PROC
                                    6950             +*                       STATEMENT OR BY THE MODID MACRO, IF NOT IN
                                    6951             +*                       SDWAMLVL
                                    6952             +*
                                    6953    02-IHAVR +VRADT    EQU   4        THE DATA IS THE EBCDIC ASSEMBLY DATE FOR THE
1TASKSERV (TASK00) (09:44) (22MAR04) IHAPSAE  - PSA Extension (ESAME)                                                       Page   46
0D-Loc  Object Code    Addr1 Addr2  Stmt Lv Lineno    Source Statement           (Hibal 5, Asmedit 3.3)  HLASM R4.0  2004/03/22 09.44
+_____  ______ ____    _____ _____  ____ __ ______    ______ _________
0                                   6954             +*                       FAILING MODULE, IN YY.DDD OR MM/DD/YY FORMAT,
                                    6955             +*                       IF NOT SUPPLIED VIA VRALVL OR SDWAMLVL
                                    6956             +*
                                    6957    02-IHAVR +VRAPTF   EQU   5        THE DATA IS THE 7-BYTE EBCDIC PTF, SU, OR
                                    6958             +*                       PRODUCT NUMBER FOR THE FAILING MODULE, (SUCH
                                    6959             +*                       AS UZ86400), IF NOT SUPPLIED VIA SDWAMLVL
                                    6960             +*
                                    6961    02-IHAVR +VRARC    EQU   6        THE DATA IS A HEXADECIMAL RETURN OR REASON
                                    6962             +*                       CODE OR OTHER CODE FOR THE FAILURE.  (IF NOT
                                    6963             +*                       IN SDWACRC, SUPPLY THIS EVEN IF GIVEN IN
                                    6964             +*                       REGISTER 15.)
                                    6965             +*
                                    6966    02-IHAVR +VRAQVOD  EQU   7        THE DATA IS THE REGISTER 15 AND ERROR PORTIONS
                                    6967             +*                       OF THE QUEUE VERIFIER OUTPUT DATA, AS MAPPED BY
                                    6968             +*                       THE IHAQVOD MACRO
                                    6969             +*
                                    6970    02-IHAVR +VRAQERR  EQU   8        THIS KEY INDICATES A QUEUE ERROR FOR THE
                                    6971             +*                       CONTROL BLOCK (C.B.) KEY OR GROUP OF KEYS
                                    6972             +*                       THAT FOLLOW.  THE DATA IS AN OPTIONAL 2
                                    6973             +*                       BYTE REASON CODE FOR THE QUEUE ERROR,
                                    6974             +*                       OPTIONALLY FOLLOWED BY A 2 BYTE OFFSET OF THE
                                    6975             +*                       FIELD IN ERROR, OPTIONALLY FOLLOWED BY A 1
                                    6976             +*                       BYTE POSITION OF A BIT IN ERROR.  REASON CODES
                                    6977             +*                       225 TO 512 ARE ASSIGNED BY THE OWNER OF THIS
                                    6978             +*                       MACRO.
                                    6979             +*                       240 = ZERO ADDRESS,
                                    6980             +*                       241 = POINTS TO C.B. WITH
                                    6981             +*                             INVALID ID,
                                    6982             +*                       250 = OTHER TYPE OF BAD
                                    6983             +*                             ADDRESS,
                                    6984             +*                       251 = BIT SETTING IN ERROR,
                                    6985             +*                       252 = INVALID C.B. ID,
                                    6986             +*                       254 = C.B. MARKED INVALID,
                                    6987             +*                       255 = OVERLAP DETECTED IN C.B.,
                                    6988             +*                       256 = STORAGE CHECK IN C.B.,
                                    6989             +*                       267 = FIELD VALUE IS NOT A PROPER
                                    6990             +*                             MULTIPLE,
                                    6991             +*                       268 = VALUE IS NOT ON PROPER BOUNDARY,
                                    6992             +*                       270 = OTHER UNSUPPORTED VALUE,
                                    6993             +*                       271 = OTHER BAD DATA.                  @G860P11
                                    6994             +*
                                    6995    02-IHAVR +VRALVLS  EQU   9        THE DATA IS THE EBCDIC SYSTEM RELEASE OR
                                    6996             +*                       PROGRAM PRODUCT/COMPONENT LEVEL THAT THE
                                    6997             +*                       PROBLEM OCCURS ON (THE RECOMMENDED LENGTH IS 3
                                    6998             +*                       BYTES.)                                    @L6A
                                    6999             +*
                                    7000    02-IHAVR +VRARRP   EQU   16       ('10'X) THE DATA IS THE HEXADECIMAL RECOVERY
                                    7001             +*                       ROUTINE PARAMETER LIST, WITH 24 BYTE MAXIMUM
                                    7002             +*                       LENGTH IF FRR
                                    7003             +*
                                    7004    02-IHAVR +VRACBM   EQU   17       ('11'X) THE DATA IS THE MAPPING MACRO NAME
                                    7005             +*                       FOR THE CONTROL BLOCK IN THE NEXT DATA FIELD
                                    7006             +*                       (SUCH AS IKJTCB)
                                    7007             +*
                                    7008    02-IHAVR +VRACB    EQU   18       ('12'X) THE DATA IS THE HEXADECIMAL CONTENTS
                                    7009             +*                       OF A CONTROL BLOCK OR A PORTION OF A CONTROL
1TASKSERV (TASK00) (09:44) (22MAR04) IHAPSAE  - PSA Extension (ESAME)                                                       Page   47
0D-Loc  Object Code    Addr1 Addr2  Stmt Lv Lineno    Source Statement           (Hibal 5, Asmedit 3.3)  HLASM R4.0  2004/03/22 09.44
+_____  ______ ____    _____ _____  ____ __ ______    ______ _________
0                                   7010             +*                       BLOCK.
                                    7011             +*
                                    7012    02-IHAVR +VRACBF   EQU   19       ('13'X) THE DATA IS THE NAME OF A CONTROL
                                    7013             +*                       BLOCK FIELD.  IT IS PRECEDED BY THE MAPPING
                                    7014             +*                       MACRO NAME (SEE VRACBM) AND IT IS FOLLOWED
                                    7015             +*                       BY THE VRACB KEY AND DATA, WHICH CAN BE A
                                    7016             +*                       SINGLE CONTROL BLOCK FIELD OR A SECTION
                                    7017             +*                       OF A CONTROL BLOCK, STARTING WITH THIS
                                    7018             +*                       FIELD.
                                    7019             +*
                                    7020    02-IHAVR +VRACBA   EQU   20       ('14'X) THE DATA IS THE 4 BYTE ADDRESS OF
                                    7021             +*                       A CONTROL BLOCK (WHICH MAY BE IDENTIFIED
                                    7022             +*                       BY VRACBM DATA), OPTIONALLY FOLLOWED BY THE
                                    7023             +*                       2 BYTE ASID FOR THE CONTROL BLOCK      @G860P11
                                    7024             +*
                                    7025    02-IHAVR +VRACBO   EQU   21       ('15'X) THE DATA IS THE OFFSET OF A CONTROL
                                    7026             +*                       BLOCK FIELD.  IT IS PRECEDED BY THE MAPPING
                                    7027             +*                       MACRO NAME (SEE VRACBM) AND IT IS FOLLOWED BY
                                    7028             +*                       THE VRACB KEY AND DATA, WHICH CAN BE A SINGLE
                                    7029             +*                       FIELD OR A SECTION OF A CONTROL BLOCK, STARTING
                                    7030             +*                       AT THIS OFFSET.  (THE VRACBO KEY IS USEFUL IF
                                    7031             +*                       THE VRACBF DATA TAKES UP TOO MUCH VRA SPACE.)
                                    7032             +*
                                    7033    02-IHAVR +VRACBL   EQU   22       ('16'X) THE DATA IS THE LENGTH OF THE CONTROL
                                    7034             +*                       BLOCK THAT IS AT THE ADDRESS IDENTIFIED BY THE
                                    7035             +*                       ADDRESS IDENTIFIED BY THE VRACBA KEY   @G860P11
                                    7036             +*
                                    7037    02-IHAVR +VRACBI   EQU   24       ('18'X) THE DATA IS A ONE BYTE CONTROL BLOCK
                                    7038             +*                       ID NUMBER, FOLLOWED BY THE CONTROL BLOCK.
                                    7039             +*                       IDS 200-239 CAN BE ASSIGNED BY THE INDIVIDUAL
                                    7040             +*                       RECOVERY ROUTINE.  THE OTHER IDS ARE ASSIGNED
                                    7041             +*                       BY THE OWNER OF THE IHAVRA MACRO.
                                    7042             +*                       1=UCB, 2=RCA, 3=IOSB, 4=ASCB, 5=SVRB XSA.
                                    7043             +*                                                              @G860P11
                                    7044    02-IHAVR +VRACBIA  EQU   25       ('19'X) THE DATA IS A ONE BYTE C.B. ID NUMBER
                                    7045             +*                       (AS DEFINED UNDER VRACBI) AND ONE ZEROED BYTE,
                                    7046             +*                       FOLLOWED BY THE 4 BYTE C.B. ADDRESS AND AN
                                    7047             +*                       OPTIONAL 2 BYTE C.B. LENGTH.  THE LENGTH CAN BE
                                    7048             +*                       FOLLOWED BY AN OPTIONAL 2 BYTE ASID.   @G860P11
                                    7049             +*
                                    7050    02-IHAVR +VRACBI2  EQU   26       ('1A'X) THE DATA IS A ONE BYTE CONTROL BLOCK
                                    7051             +*                       ID NUMBER AND ONE ZEROED BYTE, FOLLOWED BY
                                    7052             +*                       THE CONTROL BLOCK.  SEE VRACBI FOR THE
                                    7053             +*                       DEFINITION OF THE C.B. ID NUMBER.      @ZMC2885
                                    7054             +*
                                    7055    02-IHAVR +VRAPLI   EQU   32       ('20'X) THE DATA IS EBCDIC TEXT TO IDENTIFY
                                    7056             +*                       THE PARAMETER LIST IN THE NEXT DATA FIELD.
                                    7057             +*                       (IF IT HAS A MAPPING MACRO, USE THE VRACBM AND
                                    7058             +*                       VRACB KEYS, INSTEAD.)
                                    7059             +*
                                    7060    02-IHAVR +VRAPL    EQU   33       ('21'X) THE DATA IS THE HEXADECIMAL CONTENTS
                                    7061             +*                       OF A PARAMETER LIST
                                    7062             +*
                                    7063    02-IHAVR +VRAFPI   EQU   34       ('22'X) THE DATA IS EBCDIC TEXT TO IDENTIFY
                                    7064             +*                       THE FOOTPRINT AREA DATA IN THE NEXT DATA
                                    7065             +*                       FIELD
1TASKSERV (TASK00) (09:44) (22MAR04) IHAPSAE  - PSA Extension (ESAME)                                                       Page   48
0D-Loc  Object Code    Addr1 Addr2  Stmt Lv Lineno    Source Statement           (Hibal 5, Asmedit 3.3)  HLASM R4.0  2004/03/22 09.44
+_____  ______ ____    _____ _____  ____ __ ______    ______ _________
0                                   7066             +*
                                    7067    02-IHAVR +VRAFP    EQU   35       ('23'X) THE DATA IS THE HEXADECIMAL CONTENTS
                                    7068             +*                       OF A FOOTPRINT AREA
                                    7069             +*
                                    7070    02-IHAVR +VRAPA    EQU   36       ('24'X) THE DATA DESCRIBES THE EXECUTION PATH
                                    7071             +*                       UP TO THE TIME OF THE ERROR. IT CONSISTS OF
                                    7072             +*                       FOUR (EBCDIC) CHARACTERS TO IDENTIFY EACH
                                    7073             +*                       SUBROUTINE OR MODULE THAT WAS INVOKED.
                                    7074             +*                       THE FOUR RIGHTMOST CHARACTERS IDENTIFY THE
                                    7075             +*                       LAST ROUTINE THAT WAS INVOKED.
                                    7076             +*
                                    7077    02-IHAVR +VRAP2    EQU   37       ('25'X) THE DATA DESCRIBES THE EXECUTION
                                    7078             +*                       PATH IN THE SAME FORMAT AS THE VRAPA KEY,
                                    7079             +*                       BUT THE ID IS TWO CHARACTERS, NOT FOUR
                                    7080             +*
                                    7081    02-IHAVR +VRALK    EQU   38       ('26'X) THE DATA IS THE EBCDIC NAME OF A
                                    7082             +*                       LOCK THAT IS HELD
                                    7083             +*
                                    7084    02-IHAVR +VRAWAI   EQU   39       ('27'X) THE DATA IS EBCDIC TEXT TO IDENTIFY
                                    7085             +*                       THE WORK AREA IN THE NEXT DATA FIELD
                                    7086             +*
                                    7087    02-IHAVR +VRAWA    EQU   40       ('28'X) THE DATA IS THE HEXADECIMAL CONTENTS
                                    7088             +*                       OF A WORK AREA THAT HAS NO MAPPING MACRO
                                    7089             +*
                                    7090    02-IHAVR +VRAWAP   EQU   41       ('29'X) THE DATA IS THE ADDRESS OF A WORK AREA
                                    7091             +*                       (WHICH MAY BE IDENTIFIED BY VRAWAI DATA)
                                    7092             +*
                                    7093    02-IHAVR +VRALBL   EQU   48       ('30'X) THE DATA IS AN EBCDIC LABEL
                                    7094             +*                       RELATED TO THE FAILURE, SUCH AS THE LABEL
                                    7095             +*                       OF THE CSECT THAT FAILED (IF THE CSECT IS
                                    7096             +*                       NOT AT THE BEGINNING OF THE FAILING
                                    7097             +*                       MICROFICHE MODULE NAMED IN SDWACSCT)
                                    7098             +*
                                    7099    02-IHAVR +VRARRL   EQU   49       ('31'X) THE DATA IS THE LABEL OF THE
                                    7100             +*                       RECOVERY ROUTINE HANDLING THE ERROR, IF THE
                                    7101             +*                       RECOVERY ROUTINE IS NOT AT THE BEGINNING OF
                                    7102             +*                       THE MICROFICHE MODULE, SDWAREXN AND CANNOT
                                    7103             +*                       SUPPLY IN SDWARRL FIELD
                                    7104             +*
                                    7105    02-IHAVR +VRAMID   EQU   51       ('33'X) THE DATA IS AN EBCDIC MESSAGE ID FOR
                                    7106             +*                       A MESSAGE RELATED TO THE FAILURE, WITH
                                    7107             +*                       MESSAGE TEXT OPTIONALLY APPEARING IN THE NEXT
                                    7108             +*                       DATA FIELD
                                    7109             +*
                                    7110    02-IHAVR +VRAMSG   EQU   52       ('34'X) THE DATA IS EBCDIC MESSAGE TEXT FOR
                                    7111             +*                       THE MESSAGE ID IN THE VRAMID DATA FIELD
                                    7112             +*
                                    7113    02-IHAVR +VRAERR   EQU   53       ('35'X) THE DATA IS EBCDIC INFORMATION ABOUT
                                    7114             +*                       THE CAUSE OF THE ERROR (SUCH AS WHAT CONTROL
                                    7115             +*                       BLOCK QUEUE FAILED AND WHERE)
                                    7116             +*
                                    7117    02-IHAVR +VRAEHX   EQU   54       ('36'X) THE DATA IS HEXADECIMAL INFORMATION
                                    7118             +*                       ABOUT THE CAUSE OF THE ERROR (SUCH AS THE
                                    7119             +*                       ADDRESS OF AN INVALID QUEUE ELEMENT), AS
                                    7120             +*                       EXPLAINED BY THE VRAERR DATA FIELD
                                    7121             +*
1TASKSERV (TASK00) (09:44) (22MAR04) IHAPSAE  - PSA Extension (ESAME)                                                       Page   49
0D-Loc  Object Code    Addr1 Addr2  Stmt Lv Lineno    Source Statement           (Hibal 5, Asmedit 3.3)  HLASM R4.0  2004/03/22 09.44
+_____  ______ ____    _____ _____  ____ __ ______    ______ _________
0                                   7122    02-IHAVR +VRAHID   EQU   55       ('37'X) THE DATA IS AN EBCDIC HEADER TO
                                    7123             +*                       IDENTIFY THE INFORMATION IN THE FIELD THAT
                                    7124             +*                       FOLLOWS IT IN THE VARIABLE RECORDING AREA
                                    7125             +*
                                    7126    02-IHAVR +VRAHEX   EQU   56       ('38'X) THE DATA IS HEXADECIMAL INFORMATION
                                    7127             +
                                    7128    02-IHAVR +VRAEBC   EQU   57       ('39'X) THE DATA IS EBCDIC INFORMATION
                                    7129             +
                                    7130    02-IHAVR +VRAAID   EQU   58       ('3A'X) THE DATA IS THE 2-BYTE HEXADECIMAL
                                    7131             +*                       ASID ON WHOSE BEHALF THE FAILING ASID WAS
                                    7132             +*                       OPERATING
                                    7133             +*
                                    7134    02-IHAVR +VRATCB   EQU   59       ('3B'X) THE DATA IS THE ADDRESS OF THE TCB
                                    7135             +*                       ON WHOSE BEHALF THE FAILING FUNCTION WAS
                                    7136             +*                       OPERATING
                                    7137             +*
                                    7138    02-IHAVR +VRACA    EQU   60       ('3C'X) THE DATA IS THE ADDRESS OF THE CALLER
                                    7139             +*                       (INVOKER) OF THE FAILING FUNCTION
                                    7140             +*
                                    7141    02-IHAVR +VRACAN   EQU   61       ('3D'X) THE DATA IS THE NAME OF THE MODULE
                                    7142             +*                       THAT CALLED THE FAILING FUNCTION       @G860P11
                                    7143             +*
                                    7144    02-IHAVR +VRAOA    EQU   64       ('40'X) THE DATA IS THE ORIGINAL HEXADECIMAL
                                    7145             +*                       ABEND COMPLETION CODE, BEFORE IT WAS
                                    7146             +*                       CHANGED TO A COMPONENT-RELATED ABEND CODE.
                                    7147             +*                       (THE RECOMMENDED LENGTH IS 3 BYTES.)
                                    7148             +*
                                    7149    02-IHAVR +VRAPSW   EQU   65       ('41'X) THE DATA IS THE PSW FROM THE ORIGINAL
                                    7150             +*                       ABEND, OR ANOTHER PSW ASSOCIATED WITH THE
                                    7151             +*                       ABEND
                                    7152             +*
                                    7153    02-IHAVR +VRAINS   EQU   66       ('42'X) THE DATA IS THE FAILING INSTRUCTION
                                    7154             +*                       POINTED TO BY THE PSW FROM THE ORIGINAL ABEND,
                                    7155             +*                       OR ANOTHER PSW ASSOCIATED WITH THE ABEND
                                    7156             +*
                                    7157    02-IHAVR +VRAREGS  EQU   67      ('43'X) THE DATA IS THE GENERAL PURPOSE
                                    7158             +*                      REGISTERS AT THE TIME OF THE ORIGINAL ABEND
                                    7159             +*                      (OR OTHER REGISTERS ASSOCIATED WITH THE ABEND),
                                    7160             +*                      IN THE ORDER INDICATED BY THE VRAFREG KEY
                                    7161             +*
                                    7162    02-IHAVR +VRAREGA  EQU   68      ('44'X) THE DATA IS THE ADDRESS OF AN AREA
                                    7163             +*                      WITH THE GENERAL PURPOSE REGISTERS AT THE TIME
                                    7164             +*                      OF THE ORIGINAL ABEND (OR OTHER REGISTERS
                                    7165             +*                      ASSOCIATED WITH THE ABEND), IN THE ORDER
                                    7166             +*                      INDICATED BY VRAFREG
                                    7167             +*
                                    7168    02-IHAVR +VRAOR15  EQU   69      ('45'X) THE DATA IS REGISTER 15 AT THE TIME
                                    7169             +*                      OF THE ORIGINAL ABEND
                                    7170             +*
                                    7171    02-IHAVR +VRADSN   EQU   70      ('46'X) THE DATA IS THE EBCDIC NAME OF A
                                    7172             +*                      DATA SET ASSOCIATED WITH THE FAILURE (SUCH
                                    7173             +*                      AS SYS1.PAGE01)
                                    7174             +*
                                    7175    02-IHAVR +VRADEV   EQU   71      ('47'X) THE DATA IS THE EBCDIC NAME OF A DEVICE
                                    7176             +*                      ASSOCIATED WITH THE FAILURE
                                    7177             +*
1TASKSERV (TASK00) (09:44) (22MAR04) IHAPSAE  - PSA Extension (ESAME)                                                       Page   50
0D-Loc  Object Code    Addr1 Addr2  Stmt Lv Lineno    Source Statement           (Hibal 5, Asmedit 3.3)  HLASM R4.0  2004/03/22 09.44
+_____  ______ ____    _____ _____  ____ __ ______    ______ _________
0                                   7178    02-IHAVR +VRASN    EQU   72      ('48'X) THE DATA IS HEXADECIMAL I/O SENSE DATA
                                    7179             +
                                    7180    02-IHAVR +VRAST    EQU   73      ('49'X) THE DATA IS HEXADECIMAL I/O STATUS DATA
                                    7181             +
                                    7182    02-IHAVR +VRAU     EQU   74      ('4A'X) THE DATA IS AN EBCDIC UNIT ADDRESS OR
                                    7183             +*                      UNIT NAME (UCBNAME)
                                    7184             +*
                                    7185    02-IHAVR +VRACCW   EQU   75      ('4B'X) THE DATA IS THE HEXADECIMAL CCW FOR
                                    7186             +*                      AN I/O REQUEST
                                    7187             +*
                                    7188    02-IHAVR +VRACSW   EQU   76      ('4C'X) THE DATA IS THE HEXADECIMAL CSW FOR
                                    7189             +*                      AN I/O REQUEST
                                    7190             +*
                                    7191    02-IHAVR +VRADVT   EQU   77      ('4D'X) THE DATA IS HEXADECIMAL DEVICE TYPE
                                    7192             +*                      INFORMATION, IN THE SAME FORMAT AS THE UCBTYP
                                    7193             +*                      FIELD
                                    7194             +*
                                    7195    02-IHAVR +VRAVOL   EQU   78      ('4E'X) THE DATA IS AN EBCDIC VOLUME SERIAL
                                    7196             +*                      NUMBER FOR A DATA SET ASSOCIATED WITH THE
                                    7197             +*                      FAILURE
                                    7198             +*
                                    7199    02-IHAVR +VRAREQ   EQU   80      ('50'X) THE DATA IS ONE OR MORE KEYS WHICH ARE
                                    7200             +*                      TO BE USED BY DAE FOR MATCHING FOR DUPLICATES.
                                    7201             +*                      EACH KEY MUST BE A HALF WORD.              @L1A
                                    7202             +*
                                    7203    02-IHAVR +VRAOPT   EQU   81      ('51'X) THE DATA IS ONE OR MORE KEYS WHICH, IF
                                    7204             +*                      PRESENT,WILL BE USED BY DAE FOR MATCHING FOR
                                    7205             +*                      DUPLICATES.  EACH KEY MUST BE A HALF WORD. @L1A
                                    7206             +*
                                    7207    02-IHAVR +VRAMINSC EQU   82      ('52'X) THE DATA IS A 2 BYTE MINIMUM COUNT OF
                                    7208             +*                      SYMPTOMS REQUIRED BEFORE DAE CAN CARRY OUT
                                    7209             +*                      MATCHING FOR DUPLICATES.  THE DATA MUST BE 2
                                    7210             +*                      BYTES (HALF-WORD) IN LENGTH.               @L1A
                                    7211             +*
                                    7212    02-IHAVR +VRADAE   EQU   83      ('53'X) NO DATA IS ASSOCIATED WITH THIS KEY.
                                    7213             +*                      THE KEY SHOULD BE PLACED INTO THE VRA PRIOR
                                    7214             +*                      TO A DUMP REQUEST IF THE SDWA CONTAINS
                                    7215             +*                      SUFFICIENT DATA FOR DAE TO UNIQUELY IDENTIFY
                                    7216             +*                      THE DUMP.                                  @L1A
                                    7217    02-IHAVR +VRAMINSL EQU   84      ('54'X) THE DATA IS A 2 BYTE MINIMUM LENGTH
                                    7218             +*                      OF SYMPTOM STRING REQUIRED BEFORE DAE CAN
                                    7219             +*                      CARRY OUT MATCHING FOR DUPLICATES.         @L1A
                                    7220    02-IHAVR +VRAFREG  EQU   96      ('60'X) THE DATA IS A 1 BYTE REGISTER NUMBER
                                    7221             +*                      OF THE FIRST REGISTER IN THE VRAREGS OR VRAREGA
                                    7222             +*                      AREA THAT FOLLOWS.  DEFAULT IS REG.0.  REG.14
                                    7223             +*                      INDICATES REGISTERS IN 14,15,0-12 ORDER.
                                    7224             +*                                                              @G860P11
                                    7225    02-IHAVR +VRACSCB  EQU   99      ('63'X) THE DATA IS THE CSCB CONTROL BLOCK WITH
                                    7226             +*                      THE OPERATOR COMMAND ASSOCIATED WITH THE FAILURE
                                    7227             +*
                                    7228    02-IHAVR +VRACSCBA EQU   100     ('64'X) THE DATA IS THE ADDRESS OF THE CSCB
                                    7229             +*                      CONTROL BLOCK ASSOCIATED WITH THE FAILURE
                                    7230             +*
                                    7231    02-IHAVR +VRAJOB   EQU   101     ('65'X) THE DATA IS THE JOBNAME THAT FAILED.
                                    7232             +*                      NOTE, THE JOBNAME IS ALSO IN THE ENTRY HEADER
                                    7233             +*                      IN THE LOGREC DATA SET.
1TASKSERV (TASK00) (09:44) (22MAR04) IHAPSAE  - PSA Extension (ESAME)                                                       Page   51
0D-Loc  Object Code    Addr1 Addr2  Stmt Lv Lineno    Source Statement           (Hibal 5, Asmedit 3.3)  HLASM R4.0  2004/03/22 09.44
+_____  ______ ____    _____ _____  ____ __ ______    ______ _________
0                                   7234             +*
                                    7235    02-IHAVR +VRASTP   EQU   102     ('66'X) THE DATA IS THE STEPNAME THAT FAILED
                                    7236             +
                                    7237    02-IHAVR +VRACMD   EQU   103     ('67'X) THE DATA IS AN EBCDIC TSO COMMAND OR
                                    7238             +*                      OTHER COMMAND ASSOCIATED WITH THE FAILURE
                                    7239             +*
                                    7240    02-IHAVR +VRAJCL   EQU   104     ('68'X) THE DATA IS A JCL STATEMENT
                                    7241             +
                                    7242    02-IHAVR +VRANODAE EQU   105     ('69'X) NO DATA IS ASSOCIATED WITH THIS KEY.
                                    7243             +*                      THE KEY SHOULD BE PLACED INTO THE VRA PRIOR
                                    7244             +*                      TO A DUMP REQUEST IF THE SDWA DOES NOT CONTAIN
                                    7245             +*                      SUFFICIENT DATA FOR DAE TO UNIQUELY IDENTIFY
                                    7246             +*                      THE DUMP.                                  @L5A
                                    7247             +*
                                    7248    02-IHAVR +VRAEPN   EQU   115     ('73'X) THE DATA IS THE NAME OF THE ENTRY
                                    7249             +*                      POINT INVOLVED IN THE FAILURE           @G860P11
                                    7250             +*
                                    7251    02-IHAVR +VRAETF   EQU   119     ('77'X) THE DATA IS THE ADDRESS OF THE ENTRY
                                    7252             +*                      POINT INVOLVED IN THE FAILURE           @G860P11
                                    7253             +*
                                    7254    02-IHAVR +VRACTF   EQU   120     ('78'X) THE DATA IS THE ADDRESS OF THE CSECT
                                    7255             +*                      (ASSEMBLY MODULE) THAT FAILED
                                    7256             +*
                                    7257    02-IHAVR +VRALTF   EQU   121     ('79'X) THE DATA IS THE ADDRESS OF THE LOAD
                                    7258             +*                      MODULE THAT FAILED
                                    7259             +*
                                    7260    02-IHAVR +VRAMO    EQU   122     ('7A'X) THE DATA IS THE HEXADECIMAL OFFSET
                                    7261             +*                      OF THE FAILING CSECT (ASSEMBLY MODULE) INTO
                                    7262             +*                      ITS LOAD MODULE
                                    7263             +*
                                    7264    02-IHAVR +VRAILO   EQU   123     ('7B'X) THE DATA IS THE HEXADECIMAL OFFSET OF
                                    7265             +*                      THE FAILING INSTRUCTION INTO ITS LOAD MODULE
                                    7266             +*
                                    7267    02-IHAVR +VRAIMO   EQU   124     ('7C'X) THE DATA IS THE HEXADECIMAL OFFSET OF
                                    7268             +*                      THE FAILING INSTRUCTION INTO ITS CSECT
                                    7269             +*                      (ASSEMBLY MODULE)
                                    7270             +*
                                    7271    02-IHAVR +VRAFID   EQU   125     ('7D'X) THE DATA IS THE EBCDIC FEATURE ID FOR
                                    7272             +*                      THE FAILING CSECT (ASSEMBLY MODULE)
                                    7273             +*
                                    7274    02-IHAVR +VRAPID   EQU   126     ('7E'X) THE DATA IS THE EBCDIC PRODUCT ID FOR
                                    7275             +*                      THE FAILING MODULE
                                    7276             +*
                                    7277    02-IHAVR +VRAIAP   EQU   160     ('A0'X) THE DATA IS THE NAME OF AN ANALYTIC
                                    7278             +*                      PROCEDURE TO BE RUN BY THE PROGRAM IDENTIFIED
                                    7279             +*                      IN THE VRAIDP DATA
                                    7280             +*
                                    7281    02-IHAVR +VRAIAL   EQU   161     ('A1'X) THE DATA IS A PARAMETER LIST FOR USE BY
                                    7282             +*                      THE ANALYTIC PROCEDURE IDENTIFIED IN THE VRAIAP
                                    7283             +*                      DATA
                                    7284             +*
                                    7285    02-IHAVR +VRAICL   EQU   162     ('A2'X) THE DATA IS A PARAMETER LIST FOR USE IN
                                    7286             +*                      CONTROL OF THE PROGRAM IDENTIFIED IN THE VRAIDP
                                    7287             +*                      DATA
                                    7288             +*
                                    7289    02-IHAVR +VRAIDP   EQU   163     ('A3'X) THE DATA IS THE NAME OF THE DUMP (OR
1TASKSERV (TASK00) (09:44) (22MAR04) IHAPSAE  - PSA Extension (ESAME)                                                       Page   52
0D-Loc  Object Code    Addr1 Addr2  Stmt Lv Lineno    Source Statement           (Hibal 5, Asmedit 3.3)  HLASM R4.0  2004/03/22 09.44
+_____  ______ ____    _____ _____  ____ __ ______    ______ _________
0                                   7290             +*                      LOGREC) READING PROGRAM THAT SHOULD PROCESS
                                    7291             +*                      THE DATA IN THE VRAIAP, VRAIAL, AND VRAICL
                                    7292             +*                      FIELDS
                                    7293             +*
                                    7294    02-IHAVR +VRALKWA  EQU   164     ('A4'X) THE DATA IS THE ADDRESS OF THE LOCKWORD
                                    7295             +*                      FOR THE LOCK INDICATED BY VRALK             @L4A
                                    7296             +*
                                    7297    02-IHAVR +VRARRK   EQU   200     ('C8'X) THIS KEY AND KEYS 201 THRU 239 ('EF'X)
                                    7298             +*                      MAY BE DEFINED BY THE INDIVIDUAL RECOVERY
                                    7299             +*                      ROUTINE. EACH KEY CAN BE PRECEDED BY THE
                                    7300             +*                      VRAHID KEY AND TEXT TO IDENTIFY THE
                                    7301             +*                      RECOVERY ROUTINE DATA.
                                    7302             +*
                                    7303             +*---------------------------------------------------------------------*
                                    7304             +*   KEYS 201 THROUGH 239 MAY BE USED BY RECOVERY ROUTINES TO SUPPLY   *
                                    7305             +*   PROBLEM SYMPTOMS WHICH ARE NOT DESCRIBED BY THE PREVIOUS KEYS.    *
                                    7306             +*   EACH KEY REQUIRES A PARTICULAR TYPE OF DATA, AS FOLLOWS:          *
                                    7307             +*       KEYS 201-224   -   EBCDIC DATA                                *
                                    7308             +*       KEYS 225-234   -   HEXADECIMAL DATA                           *
                                    7309             +*       KEYS 235-239   -   FLAG DATA                                  *
                                    7310             +*---------------------------------------------------------------------*
                                    7311    02-IHAVR +VRARRK1  EQU   201     ('C9'X) KEY DEFINED BY THE RECOVERY ROUTINE
                                    7312    02-IHAVR +VRARRK2  EQU   202     ('CA'X) KEY DEFINED BY THE RECOVERY ROUTINE
                                    7313    02-IHAVR +VRARRK3  EQU   203     ('CB'X) KEY DEFINED BY THE RECOVERY ROUTINE
                                    7314    02-IHAVR +VRARRK4  EQU   204     ('CC'X) KEY DEFINED BY THE RECOVERY ROUTINE
                                    7315    02-IHAVR +VRARRK5  EQU   205     ('CD'X) KEY DEFINED BY THE RECOVERY ROUTINE
                                    7316    02-IHAVR +VRARRK6  EQU   206     ('CE'X) KEY DEFINED BY THE RECOVERY ROUTINE
                                    7317    02-IHAVR +VRARRK7  EQU   207     ('CF'X) KEY DEFINED BY THE RECOVERY ROUTINE
                                    7318    02-IHAVR +VRARRK8  EQU   208     ('D0'X) KEY DEFINED BY THE RECOVERY ROUTINE
                                    7319    02-IHAVR +VRARRK9  EQU   209     ('D1'X) KEY DEFINED BY THE RECOVERY ROUTINE
                                    7320    02-IHAVR +VRARRK10 EQU   210     ('D2'X) KEY DEFINED BY THE RECOVERY ROUTINE
                                    7321    02-IHAVR +VRARRK11 EQU   211     ('D3'X) KEY DEFINED BY THE RECOVERY ROUTINE
                                    7322    02-IHAVR +VRARRK12 EQU   212     ('D4'X) KEY DEFINED BY THE RECOVERY ROUTINE
                                    7323    02-IHAVR +VRARRK13 EQU   213     ('D5'X) KEY DEFINED BY THE RECOVERY ROUTINE
                                    7324    02-IHAVR +VRARRK14 EQU   214     ('D6'X) KEY DEFINED BY THE RECOVERY ROUTINE
                                    7325    02-IHAVR +VRARRK15 EQU   215     ('D7'X) KEY DEFINED BY THE RECOVERY ROUTINE
                                    7326    02-IHAVR +VRARRK16 EQU   216     ('D8'X) KEY DEFINED BY THE RECOVERY ROUTINE
                                    7327    02-IHAVR +VRARRK17 EQU   217     ('D9'X) KEY DEFINED BY THE RECOVERY ROUTINE
                                    7328    02-IHAVR +VRARRK18 EQU   218     ('DA'X) KEY DEFINED BY THE RECOVERY ROUTINE
                                    7329    02-IHAVR +VRARRK19 EQU   219     ('DB'X) KEY DEFINED BY THE RECOVERY ROUTINE
                                    7330    02-IHAVR +VRARRK20 EQU   220     ('DC'X) KEY DEFINED BY THE RECOVERY ROUTINE
                                    7331    02-IHAVR +VRARRK21 EQU   221     ('DD'X) KEY DEFINED BY THE RECOVERY ROUTINE
                                    7332    02-IHAVR +VRARRK22 EQU   222     ('DE'X) KEY DEFINED BY THE RECOVERY ROUTINE
                                    7333    02-IHAVR +VRARRK23 EQU   223     ('DF'X) KEY DEFINED BY THE RECOVERY ROUTINE
                                    7334    02-IHAVR +VRARRK24 EQU   224     ('E0'X) KEY DEFINED BY THE RECOVERY ROUTINE
                                    7335    02-IHAVR +VRARRK25 EQU   225     ('E1'X) KEY DEFINED BY THE RECOVERY ROUTINE @D1A
                                    7336    02-IHAVR +VRARRK26 EQU   226     ('E2'X) KEY DEFINED BY THE RECOVERY ROUTINE @D1A
                                    7337    02-IHAVR +VRARRK27 EQU   227     ('E3'X) KEY DEFINED BY THE RECOVERY ROUTINE @D1A
                                    7338    02-IHAVR +VRARRK28 EQU   228     ('E4'X) KEY DEFINED BY THE RECOVERY ROUTINE @D1A
                                    7339    02-IHAVR +VRARRK29 EQU   229     ('E5'X) KEY DEFINED BY THE RECOVERY ROUTINE @D1A
                                    7340    02-IHAVR +VRARRK30 EQU   230     ('E6'X) KEY DEFINED BY THE RECOVERY ROUTINE @D1A
                                    7341    02-IHAVR +VRARRK31 EQU   231     ('E7'X) KEY DEFINED BY THE RECOVERY ROUTINE @D1A
                                    7342    02-IHAVR +VRARRK32 EQU   232     ('E8'X) KEY DEFINED BY THE RECOVERY ROUTINE @D1A
                                    7343    02-IHAVR +VRARRK33 EQU   233     ('E9'X) KEY DEFINED BY THE RECOVERY ROUTINE @D1A
                                    7344    02-IHAVR +VRARRK34 EQU   234     ('EA'X) KEY DEFINED BY THE RECOVERY ROUTINE @D1A
                                    7345    02-IHAVR +VRARRK35 EQU   235     ('EB'X) KEY DEFINED BY THE RECOVERY ROUTINE @D1A
1TASKSERV (TASK00) (09:44) (22MAR04) IHAPSAE  - PSA Extension (ESAME)                                                       Page   53
0D-Loc  Object Code    Addr1 Addr2  Stmt Lv Lineno    Source Statement           (Hibal 5, Asmedit 3.3)  HLASM R4.0  2004/03/22 09.44
+_____  ______ ____    _____ _____  ____ __ ______    ______ _________
0                                   7346    02-IHAVR +VRARRK36 EQU   236     ('EC'X) KEY DEFINED BY THE RECOVERY ROUTINE @D1A
                                    7347    02-IHAVR +VRARRK37 EQU   237     ('ED'X) KEY DEFINED BY THE RECOVERY ROUTINE @D1A
                                    7348    02-IHAVR +VRARRK38 EQU   238     ('EE'X) KEY DEFINED BY THE RECOVERY ROUTINE @D1A
                                    7349    02-IHAVR +VRARRK39 EQU   239     ('EF'X) KEY DEFINED BY THE RECOVERY ROUTINE @D1A
                                    7350             +*
                                    7351             +*
                                    7352    02-IHAVR +VRASKP   EQU   250     ('FA'X) THIS KEY CAN BE USED TO SKIP TO A
                                    7353             +*                      FULLWORD BOUNDARY.  ANY DATA WILL BE IGNORED.
                                    7354             +*
                                    7355    02-IHAVR +VRAEND   EQU   255     ('FF'X) THE DATA FROM THIS KEY FIELD TO THE
                                    7356             +*                      END OF THE VARIABLE USER DATA IS NOT MAPPED.
                                    7357             +*                      (THE SDWAURAL FIELD DEFINES THE LENGTH OF THE
                                    7358             +*                      USER DATA IN THE SDWAVRA.) THIS KEY IS NOT
                                    7359             +*                      NEEDED IF ALL OF THE USER-SUPPLIED DATA IS
                                    7360             +*                      MAPPED.
                                    7361             +***********************************************************************
                                    7362             +*     HEXADECIMAL KEYS FOR MAIN FIXED AREA OF SDWA                 @L1A
                                    7363             +***********************************************************************
                                    7364             +*
                                    7365    02-IHAVR +EFABS    EQU   1001    ('3E9'X) THE DATA IS THE SYSTEM ABEND CODE. @L1A
                                    7366             +
                                    7367    02-IHAVR +EFABU    EQU   1002    ('3EA'X) THE DATA IS THE USER ABEND CODE.   @L1A
                                    7368             +
                                    7369    02-IHAVR +EFLDMD   EQU   1003    ('3EB'X) THE DATA IS THE FAILING LOAD MODULE
                                    7370             +*                      NAME.                                       @L1A
                                    7371             +*
                                    7372    02-IHAVR +EFCSCT   EQU   1004    ('3EC'X) THE DATA IS THE FAILING CSECT NAME.@L1A
                                    7373             +
                                    7374    02-IHAVR +EFREXN   EQU   1005    ('3E9'X) THE DATA IS THE RECOVERY ROUTINE
                                    7375             +*                      NAME.                                       @L1A
                                    7376             +*
                                    7377    02-IHAVR +EFPSW    EQU   1011    ('3E9'X) THE DATA IS THE PSW REGISTER
                                    7378             +*                      DIFFERENCE.                                 @L1A
                                    7379             +***********************************************************************
                                    7380             +*     HEXADECIMAL KEYS FOR FIRST EXTENSION OF SDWA = SDWARC1       @L1A
                                    7381             +***********************************************************************
                                    7382             +*
                                    7383    02-IHAVR +E1C1D1C  EQU   1101    THIS KEY SHOULD NOT BE USED. IT IS RETAINED FOR
                                    7384             +*                      COMPATABILITY REASONS ONLY.                 @L1A
                                    7385             +*
                                    7386    02-IHAVR +E1CID1C  EQU   1101    ('44D'X) THE DATA IS THE COMPONENT ID.      @01A
                                    7387             +
                                    7388    02-IHAVR +E1SUB1C  EQU   1102    ('44E'X) THE DATA IS THE SUBFUNCTION.       @L1A
                                    7389             +
                                    7390    02-IHAVR +E1AMD1C  EQU   1105    ('451'X) THE DATA IS THE ASSEMBLY DATE OF
                                    7391             +*                      THE FAILING MODULE.                         @L1A
                                    7392             +*
                                    7393    02-IHAVR +E1VRS1C  EQU   1106    ('452'X) THE DATA IS THE VERSION OF THE
                                    7394             +*                      MODULE-PTF OR PRODUCT NUMBER.               @L1A
                                    7395             +*
                                    7396    02-IHAVR +E1HRC1C  EQU   1108    ('454'X) THE DATA IS THE REASON OR RETURN
                                    7397             +*                      CODE.                                       @L1A
                                    7398             +*
                                    7399    02-IHAVR +E1RRL1C  EQU   1110    ('456'X) THE DATA IS THE LABEL OF THE
                                    7400             +*                      RECOVERY ROUTINE THAT FILLED IN THIS SDWA.  @L1A
                                    7401             +*
1TASKSERV (TASK00) (09:44) (22MAR04) IHAPSAE  - PSA Extension (ESAME)                                                       Page   54
0D-Loc  Object Code    Addr1 Addr2  Stmt Lv Lineno    Source Statement           (Hibal 5, Asmedit 3.3)  HLASM R4.0  2004/03/22 09.44
+_____  ______ ____    _____ _____  ____ __ ______    ______ _________
0                                   7402    02-IHAVR +E1CDB1C  EQU   1114    ('45A'X) THE DATA IS THE COMPONENT ID BASE
                                    7403             +*                      NUMBER, SUCH AS 5741.                       @L1A
                                    7404             +*
                                    7405    02-IHAVR +E1CCR1C  EQU   1116    ('45C'X) THE DATA ARE PROGRAM STATUS
                                    7406             +*                      FLAGS.                                      @L1A
                                    7407             +*
                                    7408    02-IHAVR +E1HLH1C  EQU   1118    ('45E'X) COPY OF PSAHLHI-HIGHEST LOCK HELD
                                    7409             +*                      INDICATOR.                                  @L1A
                                    7410             +*
                                    7411    02-IHAVR +E1SUP1C  EQU   1120    ('460'X) COPY OF PSASUPER (SUPERVISOR CONTROL
                                    7412             +*                      WORD).                                      @L1A
                                    7413             +*
                                    7414    02-IHAVR +E1SPN1C  EQU   1124    ('464'X) COPY OF LCCASPIN (PROCESSOR IS
                                    7415             +*                      SPINNING INDICATORS).                       @L1A
                                    7416             +*
                                    7417    02-IHAVR +E1FI1C   EQU   1126    ('466'X) THE DATA ARE THE 12 BYTES OF THE
                                    7418             +*                      INSTRUCTION STREAM AS DETERMINED BY THE
                                    7419             +*                      ADRESS IN THE FAILING PSW.                  @L1A
                                    7420             +*
                                    7421    02-IHAVR +E1FRR1C  EQU   1128    ('468'X) THE DATA IS A COPY OF THE FRR PARAMETER
                                    7422             +*                      AREA FROM THE CURRENT FRR STACK ENTRY.      @L1A
                                    7423             +*
                                    7424    02-IHAVR +E1ASID1C EQU   1130    ('46A'X) THE DATA IS THE ASID OF THE FAILING
                                    7425             +*                      TASK OR A RELATED ASID.                     @L1A
                                    7426             +*
                                    7427    02-IHAVR +E1ORCC1C EQU   1132    ('46C'X) THE DATA IS THE ORIGINAL COMPLETION
                                    7428             +*                      CODE.                                       @L1A
                                    7429             +*
                                    7430    02-IHAVR +E1ORRC1C EQU   1134    ('46E'X) THE DATA IS THE ORIGINAL REASON
                                    7431             +*                      CODE.                                       @L1A
                                    7432             +*
                                    7433    02-IHAVR +E1PIDS1C EQU   1136    ('470'X) THE DATA IS THE PRODUCT/COMPONENT ID.
                                    7434             +*                                                                  @01A
                                    7435             +*
                                    7436             +***********************************************************************
                                    7437             +*     HEXADECIMAL KEYS FOR SECOND EXTENSION OF SDWA = SDWARC2      @L1A
                                    7438             +***********************************************************************
                                    7439             +*
                                    7440    02-IHAVR +E2MCIC   EQU   1203    ('4B3'X) THE DATA IS THE MACHINE CHECK
                                    7441             +*                      INTERRUPT CODE.                             @L1A
                                    7442             +*
                                    7443             +***********************************************************************
                                    7444             +*     HEXADECIMAL KEYS FOR SYSMDUMP SYSTEMS ARE THE SAME           @L1A
                                    7445             +*     AS FOR THE SAME SYMPTOMS FROM THE SDWA                       @L1A
                                    7446             +***********************************************************************
                                    7447             +*
                                    7448             +***********************************************************************
                                    7449             +*     HEXADECIMAL KEYS FOR RETAIN SYMPTOMS                         @L1A
                                    7450             +***********************************************************************
                                    7451             +*
                                    7452    02-IHAVR +RINVLD   EQU   0       ('0'X)   INVALID SYMPTOM.                   @L1A
                                    7453             +
                                    7454    02-IHAVR +RABNDSR  EQU   1       ('01'X) THE DATA IS THE SYSTEM ABEND CODE.  @L1A
                                    7455             +
                                    7456    02-IHAVR +RABNDUR  EQU   2       ('02'X) THE DATA IS THE USER ABEND CODE.    @L1A
                                    7457             +
1TASKSERV (TASK00) (09:44) (22MAR04) IHAPSAE  - PSA Extension (ESAME)                                                       Page   55
0D-Loc  Object Code    Addr1 Addr2  Stmt Lv Lineno    Source Statement           (Hibal 5, Asmedit 3.3)  HLASM R4.0  2004/03/22 09.44
+_____  ______ ____    _____ _____  ____ __ ______    ______ _________
0                                   7458    02-IHAVR +RFLDSR   EQU   3       ('03'X) THE DATA IS A FIELD NAME OR LABEL.  @L1A
                                    7459             +
                                    7460    02-IHAVR +RLVLSR   EQU   4       ('04'X) THE DATA IS THE COMPONENT, SU, PP,
                                    7461             +*                      RELEASE LEVEL.                              @L1A
                                    7462             +*
                                    7463    02-IHAVR +RMSGIDR  EQU   5       ('05'X) MESSAGE IDENTIFIER.                 @L1A
                                    7464             +
                                    7465    02-IHAVR +RADRSR   EQU   6       ('06'X) ADDRESS OR OFFSET.                  @L1A
                                    7466             +
                                    7467    02-IHAVR +RPCSSR   EQU   7       ('07'X) THE DATA IS JCL, AN OPERATOR COMMAND
                                    7468             +*                      A USER COMMAND, OR A PARAMETER (EBCDIC).    @L1A
                                    7469             +*
                                    7470    02-IHAVR +RPIDSR   EQU   8       ('08'X) THE DATA IS A COMPONENT IDENTIFIER AS
                                    7471             +*                      5752SC124 OR 575200000.                     @L1A
                                    7472             +*
                                    7473    02-IHAVR +RPRCSR   EQU   9       ('09'X) THE DATA IS THE RETURN OR REASON
                                    7474             +*                      CODE.                                       @L1A
                                    7475             +*
                                    7476    02-IHAVR +RPTFSRR  EQU   10      ('0A'X) THE DATA IS A PTF IDENTIFIER.       @L1A
                                    7477             +
                                    7478    02-IHAVR +RPZFSR   EQU   11      ('0B'X) THE DATA IS A SUPERZAP IDENTIFIER.  @L1A
                                    7479             +
                                    7480    02-IHAVR +RREGSR   EQU   12      ('0C'X) THE DATA ARE THE CONTENTS OF THE
                                    7481             +*                      FAILING REGISTERS.                          @L1A
                                    7482             +*
                                    7483    02-IHAVR +RRIDSR   EQU   13      ('0D'X) MODULE, CSECT, ROUTINE NAME,
                                    7484             +*                      ACCESS METHOD, ETC.                         @L1A
                                    7485             +*
                                    7486    02-IHAVR +RSTATR   EQU   14      ('0E'X) CSW, DSW STATUS.                    @L1A
                                    7487             +
                                    7488    02-IHAVR +RVALUHR  EQU   15      ('0F'X) THE DATA IS HEXADECIMAL IN THE SOURCE
                                    7489             +*                      FIELD.                                      @L1A
                                    7490             +*
                                    7491    02-IHAVR +RVALUCR  EQU   16      ('10'X) THE DATA IS CHARACTER IN THE SOURCE
                                    7492             +*                      FIELD.                                      @L1A
                                    7493             +*
                                    7494    02-IHAVR +RVALUBR  EQU   17      ('11'X) THE DATA IS A FLAG FIELD IN THE SOURCE
                                    7495             +*                      FIELD.                                      @L1A
                                    7496             +***********************************************************************
 000298                00000 00298  7497    01-IHASD +SDWA     DSECT ,                                               @ZMB0065
                                    7498      17.     TASKSERV CSECT
 000015                00000 017B0  7499    01-00046 +TASKSERV $$CSECT
1TASKSERV (TASK00) (09:44) (22MAR04) IHAPSAE  - PSA Extension (ESAME)                                                       Page   56
0Loc    Object Code    Addr1 Addr2  Stmt Lv Lineno    Source Statement           (Hibal 5, Asmedit 3.3)  HLASM R4.0  2004/03/22 09.44
+___    ______ ____    _____ _____  ____ __ ______    ______ _________
0                                   7502      20.              COPY  RTCB
                                    7503             =*******************************************************************
                                    7504             =*                                                                 *
                                    7505             =*      RTCB --  Information about each functional task.           *
                                    7506             =*                                                                 *
                                    7507             =*******************************************************************
0000000                00000 000B0  7509             =RTCB     RECORD    BEGIN
 000000 D9E3C3C2                    7517  1          =           DC    CL4'RTCB'     Control block id
                                    7518  1          =*
                                    7519  1          =* Global information
                                    7520  1          =*
 000004                             7521  1          =RTCBCBAT   DS    A             Address of the CBAT
                                    7522  1          =*
                                    7523  1          =* Task managment info
                                    7524  1          =*
 000008                             7525  1          =RTCBNEXT   DS    A             Chain of all RTCBs in the system
 00000C                             7526  1          =RTCBNAME   DS    CL8           Name of this task
 000014                             7527  1          =RTCBTCB    DS    A             Address of the MVS TCB for this task
 000018                             7528  1          =RTCBSTK    DS    A             Address of the stack for this task
 00001C                             7529  1          =RTCBMSV    DS    A             Address of MVS save area
 000020                             7530  1          =RTCBTECB   DS    A             End of task ECB
 000024                             7531  1          =RTCBESTA   DS    A             ESTAE data block
 000028                             7532  1          =           DS    2A            available
                                    7533  1          =*
                                    7534  1          =* Lock managment info
                                    7535  1          =*
 000030                             7536  1          =RTCBLKWT   DS    A             Address of the lock we're waiting for
 000034                             7537  1          =           DS    4A            available
                                    7538  1          =*
                                    7539  1          =* Message channel management info
                                    7540  1          =*
 000044                             7541  1          =RTCBMCBP   DS    A             Chain of xCCBs owned by this task
 000048                             7542  1          =           DS    4A            available
                                    7543  1          =*
                                    7544  1          =* Timer management info
                                    7545  1          =*
 000058                             7546  1          =RTCBTIMR   DS    D             Current logical timer value
 000060                             7547  1          =RTCBCPU    DS    D             Total CPU time for the task
 000068                             7548  1          =RTCBCPT    DS    D             Current cpu timer value
 000070                             7549  1          =           DS    4A            available
                                    7550  1          =*
                                    7551  1          =* Trace managment info
                                    7552  1          =*
 000080                             7553  1          =RTCBTRTC   DS    A             Loc of current (avail) trace entry
 000084                             7554  1          =RTCBTRTF   DS    A             Loc of start of trace table
 000088                             7555  1          =RTCBTRTL   DS    A             Loc of end of trace table (+1)
 00008C                             7556  1          =           DS    4A            available
                                    7557  1          =*
                                    7558  1          =* Memory management info
                                    7559  1          =*
 00009C                             7560  1          =RTCBMEM    DS    A             Addr of memory CT
 0000A0                             7561  1          =           DS    2A            available
                                    7562  1          =*
                                    7563  1          =* Memory management info
                                    7564  1          =*
1TASKSERV (TASK00) (09:44) (22MAR04) IHAPSAE  - PSA Extension (ESAME)                                                       Page   57
0Loc    Object Code    Addr1 Addr2  Stmt Lv Lineno    Source Statement           (Hibal 5, Asmedit 3.3)  HLASM R4.0  2004/03/22 09.44
+___    ______ ____    _____ _____  ____ __ ______    ______ _________
00000A8                             7565  1          =RTCBIOT    DS    A             Addr of I/O Services table
                                    7566  1          =*
                                    7567  1          =* Hiperspace management info
                                    7568  1          =*
 0000AC                             7569  1          =RTCBBUFR   DS    A             MVPG and HSPSERV Buffer for this TCB
 0000B0                000B0 000B0  7570             =         END   ,
 USING  RTCB,R9                     7579      21.              USING RTCB,RTCBR
1TASKSERV (TASK00) (09:44) (22MAR04) IHAPSAE  - PSA Extension (ESAME)                                                       Page   58
0Current Usings:  (RTCB,R9)
0Loc    Object Code    Addr1 Addr2  Stmt Lv Lineno    Source Statement           (Hibal 5, Asmedit 3.3)  HLASM R4.0  2004/03/22 09.44
+___    ______ ____    _____ _____  ____ __ ______    ______ _________
0                                   7589      23.              COPY  CBAT
                                    7590             =*******************************************************************
                                    7591             =*                                                                 *
                                    7592             =*      CBAT --  Table of addresses of control blocks for various  *
                                    7593             =*               services and functions.  This is pointed at by    *
                                    7594             =*               every RTCB, so services can find their roots.     *
                                    7595             =*                                                                 *
                                    7596             =*******************************************************************
0000000                00000 00090  7598             =CBAT     RECORD    BEGIN
 000000 C3C2C1E3                    7606  1          =           DC    CL4'CBAT'     Control block id
                                    7607  1          =*
                                    7608  1          =* Task Services info
                                    7609  1          =*
 000004                             7610  1          =CBATTASK   DS    A             Address of the task services CT
 000008                             7611  1          =           DS    4A            available
                                    7612  1          =*
                                    7613  1          =* Lock managment info
                                    7614  1          =*
 000018                             7615  1          =CBATLOCK   DS    A             Address of the lock manager CT
 00001C                             7616  1          =           DS    4A            available
                                    7617  1          =*
                                    7618  1          =* Message channel management info
                                    7619  1          =*
 00002C                             7620  1          =CBATMSGS   DS    A             Address of message manager CT
 000030                             7621  1          =           DS    4A            available
                                    7622  1          =*
                                    7623  1          =* Memory management info
                                    7624  1          =*
 000040                             7625  1          =CBATMEM    DS    A             Address of memory CT
 000044                             7626  1          =           DS    4A            available
                                    7627  1          =*
                                    7628  1          =* I/O service management info
                                    7629  1          =*
 000054                             7630  1          =CBATIOCT   DS    A             Address of I/O service CT
 000058                             7631  1          =           DS    4A            available
                                    7632  1          =*
                                    7633  1          =* Parameter initialization parameters
                                    7634  1          =*
 000068                             7635  1          =CBATPARM   DS    A             Address of parameter CT
 00006C                             7636  1          =           DS    4A            available
                                    7637  1          =*
                                    7638  1          =* Termination and Console command info
                                    7639  1          =*
 00007C                             7640  1          =CBATTMCB   DS    A             Address of the termination CT
 000080                             7641  1          =           DS    4A            available
 000090                00090 00090  7642             =         END   ,
1TASKSERV (TASK00) (09:44) (22MAR04) IHAPSAE  - PSA Extension (ESAME)                                                       Page   59
0Current Usings:  (RTCB,R9)
0Loc    Object Code    Addr1 Addr2  Stmt Lv Lineno    Source Statement           (Hibal 5, Asmedit 3.3)  HLASM R4.0  2004/03/22 09.44
+___    ______ ____    _____ _____  ____ __ ______    ______ _________
0                                   7652      25.              COPY  TMCB
                                    7653             =*******************************************************************
                                    7654             =*                                                                 *
                                    7655             =*      TMCB -- Termination Control Block.  This contains          *
                                    7656             =*              information needed for termination.                *
                                    7657             =*                                                                 *
                                    7658             =*******************************************************************
0000000                00000 0007C  7660             =TMCB     RECORD BEGIN
 000000 E3D4C3C2                    7668  1          =           DC    C'TMCB'       Control block id
                                    7669  1          =
 000004 00                          7670  1          =TMCBFLG    FLAG  ,             Termination flags
 TMCBFLG.TMFDUMP   80 ONES          7674  1          =           FLAG  TMFDUMP         Do a formatted dump
 TMCBFLG.TMFSNAP   40 ONES          7679  1          =           FLAG  TMFSNAP         Do a dump of MVS memory
 TMCBFLG.TMFABEND  20 ONES          7684  1          =           FLAG  TMFABEND        Abnormal termination
 000005 00                          7689  1          =TMCBPFLG   FLAG  ,             Termination progress flags (interlocked)
 TMCBPFLG.TMFGDONE 80 ONES          7693  1          =           FLAG  TMFGDONE        Guest machine processing done
                                    7698  1          =
 000006                             7699  1          =TMCBCODE   DS    H             Original ABEND code
 000008                             7700  1          =TMCBSMEA   DS    A             Address of the stop/modify ECB
 00000C                             7701  1          =TMCBECBA   DS    A             Address of the local ECB
 000010 00000000                    7702  1          =TMCBECB    DC    A(0)          Local ECB
                                    7703  1          =
 000014                             7704  1          =TMCBCOMA   DS    A             Address of the MVS comm area
 000018                             7705  1          =TMCBSTK    DS    A             Location of the termination stack
 00001C                             7706  1          =TMCBSCB    DS    A             Address of the dump Seg control block
                                    7707  1          =TMCBEPL    EXTRACT MF=L        Room for extract parm list
 000020                             7708  1 01-EXTRA +           DS    0F
 000020 00000000                    7709  1 01-EXTRA +TMCBEPL    DC    A(0)                              LIST ADDRESS
 000024 00000000                    7710  1 01-EXTRA +           DC    A(0)                              TCB ADDRESS
 000028 00000000                    7711  1 01-EXTRA +           DC A(0)
                                    7712  1          =
 00002C                             7713  1          =TMCBNAME   DS    CL8           System name
                                    7714  1          =
 000034                             7715  1          =           DS    2A            available
                                    7716  1          =*
                                    7717  1          =* Parameters for dynamic allocation of SYSMDUMP
                                    7718  1          =*
 00003C                             7719  1          =TMCBDSN    DS    CL44                    Dsname
 000068                             7720  1          =TMCBVOL    DS    CL6                     Volume
 00006E                             7721  1          =TMCBGDG    DS    CL8                     Generation number
 000078                             7722  1          =TMCBTRK    DS    A                       Track allocation
 00007C                0007C 0007C  7723             =         END   ,
1TASKSERV (TASK00) (09:44) (22MAR04) IHAPSAE  - PSA Extension (ESAME)                                                       Page   60
0Current Usings:  (RTCB,R9)
0Loc    Object Code    Addr1 Addr2  Stmt Lv Lineno    Source Statement           (Hibal 5, Asmedit 3.3)  HLASM R4.0  2004/03/22 09.44
+___    ______ ____    _____ _____  ____ __ ______    ______ _________
0                                   7733      27.              COPY  CPTPARM
                                    7734             =*******************************************************************
                                    7735             =*                                                                 *
                                    7736             =*           CPTPARM -- CPU Timer calling parms                    *
                                    7737             =*                                                                 *
                                    7738             =*******************************************************************
0000000                00000 00010  7740             =@CPTIME  RECORD BEGIN
                                    7748  1          =
 000000                             7749  1          =@CPTTOT    DS    D                       Total CPU time used by task
 000008                             7750  1          =@CPTINT    DS    D                       CPU time used since last call
 000010                00010 00010  7751             =         END   ,
-
                                    7761      29.              COPY  LOCKPARM
                                    7762             =*******************************************************************
                                    7763             =*                                                                 *
                                    7764             =*    LOCKPARM - Lock routine calling parms                        *
                                    7765             =*                                                                 *
                                    7766             =*******************************************************************
0000000                00000 00011  7768             =@LOCKCRE RECORD BEGIN
 000000                             7776  1          =@LOCKNAM   DS    CL16          Name of the lock
 000010 00                          7777  1          =@LOCKFL    FLAG  ,
 @LOCKFL.@LFSPIN   80 ONES          7781  1          =           FLAG  @LFSPIN       Spin type lock
 000011                00011 00011  7786             =         END   ,
                                    7795             =*
 000000                00000 00004  7796             =@LOCKS   RECORD BEGIN
 000000                             7804  1          =@LOCKID    DS    A             Lock id
 000004                00004 00004  7805             =         END   ,
1TASKSERV (TASK00) (09:44) (22MAR04) IHAPSAE  - PSA Extension (ESAME)                                                       Page   61
0Current Usings:  (RTCB,R9)
0Loc    Object Code    Addr1 Addr2  Stmt Lv Lineno    Source Statement           (Hibal 5, Asmedit 3.3)  HLASM R4.0  2004/03/22 09.44
+___    ______ ____    _____ _____  ____ __ ______    ______ _________
0                                   7815      31.              COPY  WAITPARM
                                    7816             =*******************************************************************
                                    7817             =*                                                                 *
                                    7818             =*      WAITPARM -- Wait ecb parameter list                        *
                                    7819             =*                                                                 *
                                    7820             =*******************************************************************
0000000                00000 00004  7822             =@FWAIT   RECORD BEGIN
 000000                             7830  1          =@FWTECB    DS    A                       ECB address
 000004                00004 00004  7831             =         END   ,
-
                                    7841      33.              COPY  POSTPARM
                                    7842             =*******************************************************************
                                    7843             =*                                                                 *
                                    7844             =*      POSTPARM -- Post ecb parameter list                        *
                                    7845             =*                                                                 *
                                    7846             =*******************************************************************
0000000                00000 00004  7848             =@FPOST   RECORD BEGIN
 000000                             7856  1          =@FPSTECB   DS    A                       ECB address
 000004                00004 00004  7857             =         END   ,
1TASKSERV (TASK00) (09:44) (22MAR04) IHAPSAE  - PSA Extension (ESAME)                                                       Page   62
0Current Usings:  (RTCB,R9)
0Loc    Object Code    Addr1 Addr2  Stmt Lv Lineno    Source Statement           (Hibal 5, Asmedit 3.3)  HLASM R4.0  2004/03/22 09.44
+___    ______ ____    _____ _____  ____ __ ______    ______ _________
0                                   7867      35.              COPY  POOLPARM
                                    7868             =*******************************************************************
                                    7869             =*                                                                 *
                                    7870             =*       POOLPARM -- OS Memory routine calling parms               *
                                    7871             =*                                                                 *
                                    7872             =*******************************************************************
0000000                00000 0000C  7874             =@MEMORY  RECORD BEGIN
 000000                             7882  1          =@MEMDATA   DS    X                       Reserved
 000001                             7883  1          =@MEMKEY    DS    X                       Storage key
                                    7884  1          =
 000002 00                          7885  1          =@MEMPOOL   FLAG   ,                      Type of memory request
 @MEMPOOL.MEMTSYS  80 ONES          7889  1          =           FLAG  (MEMTSYS,X'80')         System pool
 @MEMPOOL.MEMTA16M 10 ONES          7898  1          =           FLAG  (MEMTA16M,X'10')        Above 16 Meg line
 @MEMPOOL.MEMTGLOB 08 ONES          7907  1          =           FLAG  (MEMTGLOB,X'08')        Global subpool
 @MEMPOOL.MEMTFIX  04 ONES          7916  1          =           FLAG  (MEMTFIX,X'04')         Fixed
 @MEMPOOL.MEMTPAGE 02 ONES          7925  1          =           FLAG  (MEMTPAGE,X'02')        Page boundary
 @MEMPOOL.MEMTDEF  01 ONES          7934  1          =           FLAG  (MEMTDEF,X'01')         Default subpool
                                    7943  1          =
 000003 00                          7944  1          =@MEMCODE   FLAG  ,                       MVS codes
 @MEMCODE.MEMCANYR 40 ONES          7948  1          =           FLAG  (MEMCANYR,X'40')        Frame may be above 16m real
 @MEMCODE.MEMCANYV 30 ONES          7957  1          =           FLAG  (MEMCANYV,X'30')        Virtual may be above 16m
 @MEMCODE.MEMCBLOV 10 ONES          7966  1          =           FLAG  (MEMCBLOV,X'10')        Virtual must be below 16m
 @MEMCODE.MEMCRESV 30 OFF           7975  1          =           FLAG  (MEMCRESV,X'30',OFF)    Location determined by rmode
 @MEMCODE.MEMCVAR  08 ONES          7985  1          =           FLAG  (MEMCVAR,X'08')         Variable type request
 @MEMCODE.MEMCPGB  04 ONES          7994  1          =           FLAG  (MEMCPGB,X'04')         Page boundary alignment
 @MEMCODE.MEMCUNC  02 ONES          8003  1          =           FLAG  (MEMCUNC,X'02')         Unconditional type request
 @MEMCODE.MEMCFREE 01 ONES          8012  1          =           FLAG  (MEMCFREE,X'01')        Freemain request
                                    8021  1          =
 000004                             8022  1          =@MEMLEN    DS    A                       Length of area
 000008                             8023  1          =@MEMLOC    DS    A                       Location of area
 00000C                0000C 0000C  8024             =         END   ,
-
                                    8034      37.              COPY  FIXPARM
                                    8035             =*******************************************************************
                                    8036             =*                                                                 *
                                    8037             =*     FIXPARM -- Pagefix/pagefree parameters                      *
                                    8038             =*                                                                 *
                                    8039             =*******************************************************************
0000000                00000 00009  8041             =@FIXPARM RECORD BEGIN
                                    8049  1          =
 000000                             8050  1          =@FIXLOC    DS    A                       Area to page fix/free
 000004                             8051  1          =@FIXLEN    DS    A                       Length
 000008 00                          8052  1          =@FIXFLG    FLAG  ,
 @FIXFLG.@FIXFREL  80 ONES          8056  1          =           FLAG  @FIXFREL                Release backing store too
 000009                00009 00009  8061             =         END   ,
1TASKSERV (TASK00) (09:44) (22MAR04) IHAPSAE  - PSA Extension (ESAME)                                                       Page   63
0Current Usings:  (RTCB,R9)
0Loc    Object Code    Addr1 Addr2  Stmt Lv Lineno    Source Statement           (Hibal 5, Asmedit 3.3)  HLASM R4.0  2004/03/22 09.44
+___    ______ ____    _____ _____  ____ __ ______    ______ _________
0                                   8071      39.              COPY  TASKPARM
                                    8072             =*******************************************************************
                                    8073             =*                                                                 *
                                    8074             =*      TASKPARM -- Taskserv intitialization parm                  *
                                    8075             =*                                                                 *
                                    8076             =*******************************************************************
0000000                00000 00004  8078             =@TASKINI RECORD BEGIN
 000000                             8086  1          =@TASKIST   DS    A                       Master stack address
 000004                00004 00004  8087             =         END   ,
1TASKSERV (TASK00) (09:44) (22MAR04) IHAPSAE  - PSA Extension (ESAME)                                                       Page   64
0Current Usings:  (RTCB,R9)
0Loc    Object Code    Addr1 Addr2  Stmt Lv Lineno    Source Statement           (Hibal 5, Asmedit 3.3)  HLASM R4.0  2004/03/22 09.44
+___    ______ ____    _____ _____  ____ __ ______    ______ _________
0                                   8097      41.              COPY  MEMPARM
                                    8098             =*******************************************************************
                                    8099             =*                                                                 *
                                    8100             =*            Memory service initialization parameters             *
                                    8101             =*                                                                 *
                                    8102             =*******************************************************************
0000000                00000 00002  8104             =@MEMINIT RECORD BEGIN                           MEMORY INIT RECORD
 000000 00                          8112  1          =@MIFLAG    FLAG  ,                                Specification flags
 @MIFLAG.MIGLOBAL  80 ONES          8116  1          =           FLAG  MIGLOBAL                         | INIT GLOBAL POOL
                                    8121  1          =*-----------------------------------------------
                                    8122  1          =*  From here on need not be specified on call
                                    8123  1          =*-----------------------------------------------
 000001 00                          8124  1          =@MIWFLAG   FLAG  ,                                Work flags
                                    8128  1          =*   Pool type is determined by the bit values in the pool index
                                    8129  1          =*  offset
 @MIWFLAG.MIWPAGE  04 ONES          8130  1          =           FLAG  (MIWPAGE,X'04')                  | page boundary
 @MIWFLAG.MIWFIX   08 ONES          8139  1          =           FLAG  (MIWFIX,X'08')                   | fixed memory
 @MIWFLAG.MIWA16M  10 ONES          8148  1          =           FLAG  (MIWA16M,X'10')                  | above 16M
 000002                00002 00002  8157             =         END   ,                                OF MEMORY INIT RECORD
-
                                    8167             =*******************************************************************
                                    8168             =*                                                                 *
                                    8169             =*              Memory service allocation parameters               *
                                    8170             =*                                                                 *
                                    8171             =*******************************************************************
0000000                00000 0000A  8173             =@MEMGET  RECORD BEGIN
 000000                             8181  1          =@MGLL      DS    D                                Location/Length
 000008                00008 00000  8182  1          =           ORG   @MGLL
 000000                             8183  1          =@MGLOC     DS    A                                Location (return)
 000004                             8184  1          =@MGLEN     DS    A                                Length of request
 000008                00008 00008  8185  1          =           ORG   ,
 000008 0000                        8186  1          =@MGTYPE    DC    H'0'                             Request type - offset
                                    8187  1          =*   TYPES A16M, FIX, & PAG form an index into a control table for
                                    8188  1          =* a specified pool.  ie. a pool above the 16M line, unfixed and
                                    8189  1          =* double word boundary has an @MGTYPE value of X'10' = 16.
 00000A                0000A 00009  8190  1          =           ORG   @MGTYPE+1
 000009 00                          8191  1          =@MGFTYPE   FLAG  ,
 @MGFTYPE.MGA16M   10 ONES          8195  1          =           FLAG  (MGA16M,X'10')                   Above 16M line
 @MGFTYPE.MGFIX    08 ONES          8204  1          =           FLAG  (MGFIX,X'08')                    Fixed pool
 @MGFTYPE.MGPAG    04 ONES          8213  1          =           FLAG  (MGPAG,X'04')                    Page boundary
 @MGFTYPE.MGGLOB   02 ONES          8222  1          =           FLAG  (MGGLOB,X'02')                   Global pool
 @MGFTYPE.MGBEST   01 ONES          8231  1          =           FLAG  (MGBEST,X'01')                   Best fit
 00000A                0000A 0000A  8240  1          =           ORG   ,
 00000A                0000A 0000A  8241             =         END   ,
1TASKSERV (TASK00) (09:44) (22MAR04) IHAPSAE  - PSA Extension (ESAME)                                                       Page   65
0Current Usings:  (RTCB,R9)
0Loc    Object Code    Addr1 Addr2  Stmt Lv Lineno    Source Statement           (Hibal 5, Asmedit 3.3)  HLASM R4.0  2004/03/22 09.44
+___    ______ ____    _____ _____  ____ __ ______    ______ _________
0                                   8251             =*******************************************************************
                                    8252             =*                                                                 *
                                    8253             =*               Memory service release parameters                 *
                                    8254             =*                                                                 *
                                    8255             =*******************************************************************
0000000                00000 0000A  8257             =@MEMFREE RECORD BEGIN                           PARAMETERS
 000000                             8265  1          =@MFLL      DS    D                                Location/Length
 000008                00008 00000  8266  1          =           ORG   @MFLL
 000000                             8267  1          =@MFLOC     DS    A                                Location
 000004                             8268  1          =@MFLEN     DS    A                                Length
 000008                00008 00008  8269  1          =           ORG   ,
 000008 0000                        8270  1          =@MFTYPE    DC    H'0'                             Request type - offset
 00000A                0000A 00009  8271  1          =           ORG   @MFTYPE+1
 000009 00                          8272  1          =@MFFTYPE   FLAG  ,
                                    8276  1          =*   TYPES A16M, FIX, & PAG form an index into a control table for
                                    8277  1          =* a specified pool.  ie. a pool above the 16M line, unfixed and
                                    8278  1          =* double word boundary has an @MGTYPE value of X'10' = 16.
 @MFFTYPE.MFA16M   10 ONES          8279  1          =           FLAG  (MFA16M,X'10')                   Above 16M line
 @MFFTYPE.MFFIX    08 ONES          8288  1          =           FLAG  (MFFIX,X'08')                    Fixed pool
 @MFFTYPE.MFPAG    04 ONES          8297  1          =           FLAG  (MFPAG,X'04')                    Page boundary
 @MFFTYPE.MFGLOB   02 ONES          8306  1          =           FLAG  (MFGLOB,X'02')                   Global pool
 00000A                0000A 0000A  8315  1          =           ORG   ,
 00000A                0000A 0000A  8316             =         END   ,
1TASKSERV (TASK00) (09:44) (22MAR04) IHAPSAE  - PSA Extension (ESAME)                                                       Page   66
0Current Usings:  (RTCB,R9)
0Loc    Object Code    Addr1 Addr2  Stmt Lv Lineno    Source Statement           (Hibal 5, Asmedit 3.3)  HLASM R4.0  2004/03/22 09.44
+___    ______ ____    _____ _____  ____ __ ______    ______ _________
0                                   8326      43.              COPY  SEGPARM
 000000                00000 0000D  8327             =@SEG     RECORD BEGIN        Used for SEG,T,B,TB,EOR,EOB
 000000                             8335  1          =@SEGCB     DS    A             Address of the seg control block
 000004                             8336  1          =@SEGLOC    DS    A             Location of the text segment to be added
 000008                             8337  1          =@SEGLEN    DS    A             Length of the text segment to be added
 00000C 00                          8338  1          =@SEGTYPE   FLAG  ,
 @SEGTYPE.@SEGB    80 ONES          8342  1          =           FLAG  @SEGB         Add a blank after the segment
 @SEGTYPE.@SEGT    40 ONES          8347  1          =           FLAG  @SEGT         Trim trailing blanks from the segment
 @SEGTYPE.@SEGTB   C0 NZ            8352  1          =           FLAG  (@SEGTB,@SEGB+@SEGT)    Trim trailing, and add 1 blank
 @SEGTYPE.@SEGMK   20 ONES          8363  1          =           FLAG  @SEGMK        Mark the buffer after this segment
 @SEGTYPE.@SEGEOR  10 ONES          8368  1          =           FLAG  @SEGEOR       This is the end of a logical record
 @SEGTYPE.@SEGEOB  08 ONES          8373  1          =           FLAG  @SEGEOB       This is the last segment for the buffer
 00000D                0000D 0000D  8378             =         END   ,
-000000                00000 0000E  8388             =@SEGINIT RECORD BEGIN
 000000                             8396  1          =@SEGICB    DS    A
 000004                             8397  1          =@SEGIRTN   DS    A             Address of the processing routine
 000008                             8398  1          =@SEGILOC   DS    A             Location of the buffer
 00000C                             8399  1          =@SEGILEN   DS    Y             Length of the buffer
 00000E                0000E 0000E  8400             =         END   ,
-000000                00000 00008  8410             =@SEGCOL  RECORD BEGIN
 000000                             8418  1          =@SEGCCB    DS    A             Address of the control block
 000004                             8419  1          =@SEGCNUM   DS    A             Column number to go to
 000008                00008 00008  8420             =         END   ,
-000000                00000 00018  8430             =@SEGCORE RECORD BEGIN
 000000                             8438  1          =@SEGXCB    DS    A             Control block address
 000004                             8439  1          =@SEGXLOC   DS    A             Location of the core (MVS VA)
 000008                             8440  1          =@SEGXLEN   DS    A             Length of the core to dump
 00000C                             8441  1          =@SEGXSPA   DS    X             # blank lines between each dump line
 00000D 00                          8442  1          =@SEGXFLG   FLAG  ,
 @SEGXFLG.@SEGXF16 80 ONES          8446  1          =           FLAG  @SEGXF16      16 Bytes per line  (32 bytes per line)
 @SEGXFLG.@SEGXFAL 40 ONES          8451  1          =           FLAG  @SEGXFAL      Alpha (EBCDIC)     (no EBCDIC)
 @SEGXFLG.@SEGXFOF 20 ONES          8456  1          =           FLAG  @SEGXFOF      Print offsets      (Print Addresses)
 @SEGXFLG.@SEGXFID 10 ONES          8461  1          =           FLAG  @SEGXFID      Print the id       (Dont print it)
 @SEGXFLG.@SEGXFRL 08 ONES          8466  1          =           FLAG  @SEGXFRL      Print repeat lines (Print summary)
 000010                             8471  1          =@SEGXOFF   DS    A             Address to be 0 offset
 000014                             8472  1          =@SEGXID    DS    CL4           Control block id
 000018                00018 00018  8473             =         END   ,
-000000                00000 00004  8483             =@SEGRTN  RECORD BEGIN                  Parameters to pass to proc rtn
 000000                             8491  1          =@SEGRCB    DS    A                       Address of control block
 000004                00004 00004  8492             =         END   ,
-000000                00000 00008  8502             =@SEGSTK  RECORD BEGIN
 000000                             8510  1          =@SEGSCB    DS    A                       Address of seg control block
 000004                             8511  1          =@SEGSST    DS    A                       Start of stack (from RTCB)
 000008                00008 00008  8512             =         END   ,
1TASKSERV (TASK00) (09:44) (22MAR04) IHAPSAE  - PSA Extension (ESAME)                                                       Page   67
0Current Usings:  (RTCB,R9)
0Loc    Object Code    Addr1 Addr2  Stmt Lv Lineno    Source Statement           (Hibal 5, Asmedit 3.3)  HLASM R4.0  2004/03/22 09.44
+___    ______ ____    _____ _____  ____ __ ______    ______ _________
0                                   8522      45.     *******************************************************************
                                    8523      46.     *                                                                 *
                                    8524      47.     *      TASKCT -- Task Services Control Table                      *
                                    8525      48.     *                                                                 *
                                    8526      49.     *******************************************************************
0000000                00000 00010  8528      51.     TASKCT   RECORD BEGIN
 000000 E3C3E340                    8536  1   52.                DC    CL4'TCT'
 000004                             8537  1   53.     TCTRTCB    DS    A                       RTCB Chain
 000008                             8538  1   54.     TCTRLOCK   DS    A                       RTCB Chain Lock ID
 00000C                             8539  1   55.     TCTMTTCB   DS    A                       TCB address of the main task
 000010                00010 00010  8540      56.              END   ,
-
                                    8550      58.              COPY  FUNCPARM
                                    8551             =*******************************************************************
                                    8552             =*                                                                 *
                                    8553             =*    FUNCPARM  -- Parameter areas dealing with functions          *
                                    8554             =*                                                                 *
                                    8555             =*******************************************************************
-                                   8557             =*
                                    8558             =* This is the parm passed on function initialization.
                                    8559             =*
0000000                00000 00004  8561             =@FUNCPRM RECORD BEGIN
 000000                             8569  1          =@FUNCDTA   DS    A                       Parameter
 000004                00004 00004  8570             =         END   ,
-                                   8580             =*
                                    8581             =* This is the parm passed to the DUMP entry of services and functions
                                    8582             =*
0000000                00000 00008  8584             =@DUMPPRM RECORD BEGIN
 000000                             8592  1          =@DUMPDTA   DS    A             Function data
 000004                             8593  1          =@DUMPSCB   DS    A             Address of the Seg control block
 000008                00008 00008  8594             =         END   ,
-                                   8604             =*
                                    8605             =* This is the parm passed to the TERM entry of functions
                                    8606             =*
0000000                00000 00004  8608             =@TERMPRM RECORD BEGIN
 000000                             8616  1          =@TERMDTA   DS    A             Function data
 000004                00004 00004  8617             =         END   ,
1TASKSERV (TASK00) (09:44) (22MAR04) IHAPSAE  - PSA Extension (ESAME)                                                       Page   68
0Current Usings:  (RTCB,R9)
0Loc    Object Code    Addr1 Addr2  Stmt Lv Lineno    Source Statement           (Hibal 5, Asmedit 3.3)  HLASM R4.0  2004/03/22 09.44
+___    ______ ____    _____ _____  ____ __ ______    ______ _________
0                                   8627      60.     *******************************************************************
                                    8628      61.     *                                                                 *
                                    8629      62.     *    TASKDUMP  --  Dump the Task Services                         *
                                    8630      63.     *                                                                 *
                                    8631      64.     *                                                                 *
                                    8632      65.     *     Input - @DUMPPRM                                            *
                                    8633      66.     *                                                                 *
                                    8634      67.     *    Output - none                                                *
                                    8635      68.     *                                                                 *
                                    8636      69.     *******************************************************************
-
 000016                             8638      71.     TASKDUMP PROC  @DUMPPRM,SCOPE=GLOBAL
 000016 E3C1E2D2C4E4D4D7            8644             +
 00001E 0008/0000                   8645             +
 000022 900F D004/18AF       00004  8647             +
 USING  TASKDUMP,R10
 000028 50D0 C000/18CD       00000  8662             +
 00002E 9680 C000      00000        8664             +
 USING  @DUMPPRM-72,R12
 000032 41D0 C050            00050  8678             +
                                    8679      72.     *
                                    8680      73.     * Put out a section header
                                    8681      74.     *
 USING  @SEG-72,R13                 8682      75.              SEGEOR '**** T A S K   I N F O R M A T I O N ****',,@DUMPSCB
 000036 D70C D048 D048 00000 00000  8701             +
 00003C 4100 A8B4            008D6  8710             +
 000040 5000 D04C            00004  8715             +
 000044 4100 0029            00029  8727             +
 000048 5000 D050            00008  8732             +
 00004C D203 D048 C04C 00000 00004  8739             +
 000052 9610 D054      0000C        8745             +
 000056 58F0 A7FE/0DEF       00820  8748             +
 00005C                             8750      76.              SEGEOR ,
 00005C D70C D048 D048 00000 00000  8762             +
 000062 D703 D050 D050 00008 00008  8770             +
 000068 D203 D048 C04C 00000 00004  8777             +
 00006E 9610 D054      0000C        8783             +
 000072 58F0 A7FE/0DEF       00820  8786             +
 000078                             8788      77.              SEGEOR ,
 000078 D70C D048 D048 00000 00000  8800             +
 00007E D703 D050 D050 00008 00008  8808             +
 000084 D203 D048 C04C 00000 00004  8815             +
 00008A 9610 D054      0000C        8821             +
 00008E 58F0 A7FE/0DEF       00820  8824             +
                                    8826      78.     *
                                    8827      79.     * Dump the CBAT
                                    8828      80.     *
 000094                             8829      81.              SEG   'CBAT at '
 000094 D70C D048 D048 00000 00000  8840             +
 00009A 4100 A7DE            00800  8849             +
 00009E 5000 D04C            00004  8854             +
 0000A2 4100 0008            00008  8866             +
1TASKSERV (TASK00) (09:44) (22MAR04) IHAPSAE  - PSA Extension (ESAME)                                                       Page   69
0Current Usings:  (RTCB,R9) (TASKDUMP,R10) (@DUMPPRM-72,R12) (@SEG-72,R13)
0Loc    Object Code    Addr1 Addr2  Stmt Lv Lineno    Source Statement           (Hibal 5, Asmedit 3.3)  HLASM R4.0  2004/03/22 09.44
+___    ______ ____    _____ _____  ____ __ ______    ______ _________
00000A6 5000 D050            00008  8871             +
 0000AA D203 D048 C04C 00000 00004  8878             +
 0000B0 58F0 A7FE/0DEF       00820  8881             +
 0000B6                             8883      82.              SEGHEX RTCBCBAT
 0000B6 D70C D048 D048 00000 00000  8894             +
 0000BC 4100 9004            00004  8907             +
 0000C0 5000 D04C            00004  8912             +
 0000C4 4100 0004            00004  8924             +
 0000C8 5000 D050            00008  8929             +
 0000CC D203 D048 C04C 00000 00004  8936             +
 0000D2 58F0 A802/0DEF       00824  8939             +
 0000D8                             8941      83.              SEGEOR
 0000D8 D70C D048 D048 00000 00000  8953             +
 0000DE D703 D050 D050 00008 00008  8961             +
 0000E4 D203 D048 C04C 00000 00004  8968             +
 0000EA 9610 D054      0000C        8974             +
 0000EE 58F0 A7FE/0DEF       00820  8977             +
 0000F4 5870 9004            00004  8979      84.              L     RY,RTCBCBAT             Get the CBAT address
 USING  CBAT,R7                     8980      85.              WITH  (CBAT,RY),BEGIN
 DROP   @SEG-72,R13                 8994  1   86.                SEGCORE CBAT,ID=CBAT,REPEAT=YES
 USING  @SEGCORE-72,R13
 0000F8 D717 D048 D048 00000 00000  9015  1          +
 0000FE 5070 D04C            00004  9027  1          +
 000102 4100 0090            00090  9039  1          +
 000106 5000 D050            00008  9044  1          +
 00010A D203 D05C A806 00014 00828  9050  1          +
 000110 D203 D058 D04C 00010 00004  9055  1          +
 000116 96F8 D055      0000D        9079  1          +
 00011A D203 D048 C04C 00000 00004  9086  1          +
 000120 58F0 A80A/0DEF       0082C  9089  1          +
 000126 4170 7004            00004  9091  1   87.                LA    RY,CBATTASK             Get addr of TCT address
 DROP   CBAT,R7                     9092      88.              END   ,
 DROP   @SEGCORE-72,R13             9100      89.              SEGEOR ,
 USING  @SEG-72,R13
 00012A D70C D048 D048 00000 00000  9122             +
 000130 D703 D050 D050 00008 00008  9130             +
 000136 D203 D048 C04C 00000 00004  9137             +
 00013C 9610 D054      0000C        9143             +
 000140 58F0 A7FE/0DEF       00820  9146             +
 000146                             9148      90.              SEGEOR ,
 000146 D70C D048 D048 00000 00000  9160             +
 00014C D703 D050 D050 00008 00008  9168             +
 000152 D203 D048 C04C 00000 00004  9175             +
 000158 9610 D054      0000C        9181             +
 00015C 58F0 A7FE/0DEF       00820  9184             +
                                    9186      91.     *
                                    9187      92.     * Dump the TASK services CT
                                    9188      93.     *
 000162                             9189      94.              SEG   'TASKCT at '
 000162 D70C D048 D048 00000 00000  9200             +
 000168 4100 A85E            00880  9209             +
 00016C 5000 D04C            00004  9214             +
 000170 4100 000A            0000A  9226             +
 000174 5000 D050            00008  9231             +
1TASKSERV (TASK00) (09:44) (22MAR04) IHAPSAE  - PSA Extension (ESAME)                                                       Page   70
0Current Usings:  (RTCB,R9) (TASKDUMP,R10) (@DUMPPRM-72,R12) (@SEG-72,R13)
0Loc    Object Code    Addr1 Addr2  Stmt Lv Lineno    Source Statement           (Hibal 5, Asmedit 3.3)  HLASM R4.0  2004/03/22 09.44
+___    ______ ____    _____ _____  ____ __ ______    ______ _________
0000178 D203 D048 C04C 00000 00004  9238             +
 00017E 58F0 A7FE/0DEF       00820  9241             +
 000184                             9243      95.              SEGHEX (RY),4
 000184 D70C D048 D048 00000 00000  9254             +
 00018A 5070 D04C            00004  9265             +
 00018E 4100 0004            00004  9277             +
 000192 5000 D050            00008  9282             +
 000196 D203 D048 C04C 00000 00004  9289             +
 00019C 58F0 A802/0DEF       00824  9292             +
 0001A2                             9294      96.              SEGEOR ,
 0001A2 D70C D048 D048 00000 00000  9306             +
 0001A8 D703 D050 D050 00008 00008  9314             +
 0001AE D203 D048 C04C 00000 00004  9321             +
 0001B4 9610 D054      0000C        9327             +
 0001B8 58F0 A7FE/0DEF       00820  9330             +
 0001BE 5870 7000            00000  9332      97.              L     RY,@RY                  Get address of the TCT
 USING  TASKCT,R7                   9333      98.              WITH  (TASKCT,RY),BEGIN
 0001C2                             9347  1   99.                IF    (TASKCT,NE,'TCT '),BEGIN
 0001C2 D503 A80E 7000 00830 00000  9358  1          +
 0001C8 4780 A1D0            001F2  9359  1          +
 0001CC                             9364  2  100.                  SEGEOR '*** ID Check failed.  This may be garbage ***'
 0001CC D70C D048 D048 00000 00000  9376  2          +
 0001D2 4100 A8DD            008FF  9385  2          +
 0001D6 5000 D04C            00004  9390  2          +
 0001DA 4100 002D            0002D  9402  2          +
 0001DE 5000 D050            00008  9407  2          +
 0001E2 D203 D048 C04C 00000 00004  9414  2          +
 0001E8 9610 D054      0000C        9420  2          +
 0001EC 58F0 A7FE/0DEF       00820  9423  2          +
 0001F2                             9425  1  101.                END   ,
 0001F2                             9429  1  102.                SEGHEX TCTRTCB
 0001F2 D70C D048 D048 00000 00000  9440  1          +
 0001F8 4100 7004            00004  9453  1          +
 0001FC 5000 D04C            00004  9458  1          +
 000200 4100 0004            00004  9470  1          +
 000204 5000 D050            00008  9475  1          +
 000208 D203 D048 C04C 00000 00004  9482  1          +
 00020E 58F0 A802/0DEF       00824  9485  1          +
 000214                             9487  1  103.                SEGEOR ' TCTRTCB  (Chain of all RTCBs in the system)'
 000214 D70C D048 D048 00000 00000  9499  1          +
 00021A 4100 A812            00834  9508  1          +
 00021E 5000 D04C            00004  9513  1          +
 000222 4100 002C            0002C  9525  1          +
 000226 5000 D050            00008  9530  1          +
 00022A D203 D048 C04C 00000 00004  9537  1          +
 000230 9610 D054      0000C        9543  1          +
 000234 58F0 A7FE/0DEF       00820  9546  1          +
 00023A                             9548  1  104.                SEGHEX TCTRLOCK
 00023A D70C D048 D048 00000 00000  9559  1          +
 000240 4100 7008            00008  9572  1          +
 000244 5000 D04C            00004  9577  1          +
 000248 4100 0004            00004  9589  1          +
 00024C 5000 D050            00008  9594  1          +
 000250 D203 D048 C04C 00000 00004  9601  1          +
1TASKSERV (TASK00) (09:44) (22MAR04) IHAPSAE  - PSA Extension (ESAME)                                                       Page   71
0Current Usings:  (TASKCT,R7) (RTCB,R9) (TASKDUMP,R10) (@DUMPPRM-72,R12) (@SEG-72,R13)
0Loc    Object Code    Addr1 Addr2  Stmt Lv Lineno    Source Statement           (Hibal 5, Asmedit 3.3)  HLASM R4.0  2004/03/22 09.44
+___    ______ ____    _____ _____  ____ __ ______    ______ _________
0000256 58F0 A802/0DEF       00824  9604  1          +
 00025C                             9606  1  105.                SEGEOR ' TCTRLOCK (Lock ID for RTCB chain)'
 00025C D70C D048 D048 00000 00000  9618  1          +
 000262 4100 A868            0088A  9627  1          +
 000266 5000 D04C            00004  9632  1          +
 00026A 4100 0022            00022  9644  1          +
 00026E 5000 D050            00008  9649  1          +
 000272 D203 D048 C04C 00000 00004  9656  1          +
 000278 9610 D054      0000C        9662  1          +
 00027C 58F0 A7FE/0DEF       00820  9665  1          +
 000282                             9667  1  106.                SEGEOR ,
 000282 D70C D048 D048 00000 00000  9679  1          +
 000288 D703 D050 D050 00008 00008  9687  1          +
 00028E D203 D048 C04C 00000 00004  9694  1          +
 000294 9610 D054      0000C        9700  1          +
 000298 58F0 A7FE/0DEF       00820  9703  1          +
 00029E                             9705  1  107.                SEGEOR ,
 00029E D70C D048 D048 00000 00000  9717  1          +
 0002A4 D703 D050 D050 00008 00008  9725  1          +
 0002AA D203 D048 C04C 00000 00004  9732  1          +
 0002B0 9610 D054      0000C        9738  1          +
 0002B4 58F0 A7FE/0DEF       00820  9741  1          +
 0002BA                             9743  1  108.                SEGEOB ,                      Cause a page break
 0002BA D70C D048 D048 00000 00000  9755  1          +
 0002C0 D703 D050 D050 00008 00008  9763  1          +
 0002C6 D203 D048 C04C 00000 00004  9770  1          +
 0002CC 9608 D054      0000C        9776  1          +
 0002D0 58F0 A7FE/0DEF       00820  9779  1          +
 0002D6 4170 7004            00004  9781  1  109.                LA    RY,TCTRTCB              Address of head of chain
 DROP   TASKCT,R7                   9782     110.              END   ,
                                    9790     111.     *
                                    9791     112.     * Dump each task in turn
                                    9792     113.     *
 0002DA 9500 7000      00000        9793     114.              WHILE (@RY,NE,0),BEGIN
 0002DE 4780 A7CE            007F0  9807             +
 0002E2 5860 7000            00000  9812  1  115.                L     RX,@RY                  Get the RTCB address
 DROP   RTCB,R9                     9813  1  116.                WITH  (RTCB,RX)
 USING  RTCB,R6
 0002E6                             9834  1  117.                SEG   '** Dump of '
 0002E6 D70C D048 D048 00000 00000  9845  1          +
 0002EC 4100 A90A            0092C  9854  1          +
 0002F0 5000 D04C            00004  9859  1          +
 0002F4 4100 000B            0000B  9871  1          +
 0002F8 5000 D050            00008  9876  1          +
 0002FC D203 D048 C04C 00000 00004  9883  1          +
 000302 58F0 A7FE/0DEF       00820  9886  1          +
 000308                             9888  1  118.                SEGTB RTCBNAME
 000308 D70C D048 D048 00000 00000  9900  1          +
 00030E 4100 600C            0000C  9913  1          +
 000312 5000 D04C            00004  9918  1          +
 000316 4100 0008            00008  9930  1          +
 00031A 5000 D050            00008  9935  1          +
 00031E D203 D048 C04C 00000 00004  9942  1          +
 000324 96C0 D054      0000C        9948  1          +
1TASKSERV (TASK00) (09:44) (22MAR04) IHAPSAE  - PSA Extension (ESAME)                                                       Page   72
0Current Usings:  (RTCB,R6) (TASKDUMP,R10) (@DUMPPRM-72,R12) (@SEG-72,R13)
0Loc    Object Code    Addr1 Addr2  Stmt Lv Lineno    Source Statement           (Hibal 5, Asmedit 3.3)  HLASM R4.0  2004/03/22 09.44
+___    ______ ____    _____ _____  ____ __ ______    ______ _________
0000328 58F0 A7FE/0DEF       00820  9951  1          +
 00032E                             9953  1  119.                SEG   'Task **'
 00032E D70C D048 D048 00000 00000  9964  1          +
 000334 4100 A915            00937  9973  1          +
 000338 5000 D04C            00004  9978  1          +
 00033C 4100 0007            00007  9990  1          +
 000340 5000 D050            00008  9995  1          +
 000344 D203 D048 C04C 00000 00004 10002  1          +
 00034A 58F0 A7FE/0DEF       00820 10005  1          +
 000350                            10007  1  120.                SEGEOR
 000350 D70C D048 D048 00000 00000 10019  1          +
 000356 D703 D050 D050 00008 00008 10027  1          +
 00035C D203 D048 C04C 00000 00004 10034  1          +
 000362 9610 D054      0000C       10040  1          +
 000366 58F0 A7FE/0DEF       00820 10043  1          +
 00036C                            10045  1  121.                SEGEOR
 00036C D70C D048 D048 00000 00000 10057  1          +
 000372 D703 D050 D050 00008 00008 10065  1          +
 000378 D203 D048 C04C 00000 00004 10072  1          +
 00037E 9610 D054      0000C       10078  1          +
 000382 58F0 A7FE/0DEF       00820 10081  1          +
 000388                            10083  1  122.                SEG   'RTCB at '
 000388 D70C D048 D048 00000 00000 10094  1          +
 00038E 4100 A7E6            00808 10103  1          +
 000392 5000 D04C            00004 10108  1          +
 000396 4100 0008            00008 10120  1          +
 00039A 5000 D050            00008 10125  1          +
 00039E D203 D048 C04C 00000 00004 10132  1          +
 0003A4 58F0 A7FE/0DEF       00820 10135  1          +
 0003AA                            10137  1  123.                SEGHEX @RY,4                  Seg the RTCB address
 0003AA D70C D048 D048 00000 00000 10148  1          +
 0003B0 4100 7000            00000 10161  1          +
 0003B4 5000 D04C            00004 10166  1          +
 0003B8 4100 0004            00004 10178  1          +
 0003BC 5000 D050            00008 10183  1          +
 0003C0 D203 D048 C04C 00000 00004 10190  1          +
 0003C6 58F0 A802/0DEF       00824 10193  1          +
 0003CC                            10195  1  124.                SEGEOR ,
 0003CC D70C D048 D048 00000 00000 10207  1          +
 0003D2 D703 D050 D050 00008 00008 10215  1          +
 0003D8 D203 D048 C04C 00000 00004 10222  1          +
 0003DE 9610 D054      0000C       10228  1          +
 0003E2 58F0 A7FE/0DEF       00820 10231  1          +
 DROP   @SEG-72,R13                10233  1  125.                SEGCORE RTCB,ID=RTCB,REPEAT=YES
 USING  @SEGCORE-72,R13
 0003E8 D717 D048 D048 00000 00000 10254  1          +
 0003EE 5060 D04C            00004 10266  1          +
 0003F2 4100 00B0            000B0 10278  1          +
 0003F6 5000 D050            00008 10283  1          +
 0003FA D203 D05C A83E 00014 00860 10289  1          +
 000400 D203 D058 D04C 00010 00004 10294  1          +
 000406 96F8 D055      0000D       10318  1          +
 00040A D203 D048 C04C 00000 00004 10325  1          +
 000410 58F0 A80A/0DEF       0082C 10328  1          +
1TASKSERV (TASK00) (09:44) (22MAR04) IHAPSAE  - PSA Extension (ESAME)                                                       Page   73
0Current Usings:  (RTCB,R6) (TASKDUMP,R10) (@DUMPPRM-72,R12) (@SEG-72,R13)
0Loc    Object Code    Addr1 Addr2  Stmt Lv Lineno    Source Statement           (Hibal 5, Asmedit 3.3)  HLASM R4.0  2004/03/22 09.44
+___    ______ ____    _____ _____  ____ __ ______    ______ _________
0DROP   @SEGCORE-72,R13            10330  1  126.                SEGEOR
 USING  @SEG-72,R13
 000416 D70C D048 D048 00000 00000 10352  1          +
 00041C D703 D050 D050 00008 00008 10360  1          +
 000422 D203 D048 C04C 00000 00004 10367  1          +
 000428 9610 D054      0000C       10373  1          +
 00042C 58F0 A7FE/0DEF       00820 10376  1          +
 000432                            10378  1  127.                SEGEOB
 000432 D70C D048 D048 00000 00000 10390  1          +
 000438 D703 D050 D050 00008 00008 10398  1          +
 00043E D203 D048 C04C 00000 00004 10405  1          +
 000444 9608 D054      0000C       10411  1          +
 000448 58F0 A7FE/0DEF       00820 10414  1          +
 00044E                            10416  1  128.                SEG   'Stack for '
 00044E D70C D048 D048 00000 00000 10427  1          +
 000454 4100 A88A            008AC 10436  1          +
 000458 5000 D04C            00004 10441  1          +
 00045C 4100 000A            0000A 10453  1          +
 000460 5000 D050            00008 10458  1          +
 000464 D203 D048 C04C 00000 00004 10465  1          +
 00046A 58F0 A7FE/0DEF       00820 10468  1          +
 000470                            10470  1  129.                SEGEOR RTCBNAME
 000470 D70C D048 D048 00000 00000 10482  1          +
 000476 4100 600C            0000C 10495  1          +
 00047A 5000 D04C            00004 10500  1          +
 00047E 4100 0008            00008 10512  1          +
 000482 5000 D050            00008 10517  1          +
 000486 D203 D048 C04C 00000 00004 10524  1          +
 00048C 9610 D054      0000C       10530  1          +
 000490 58F0 A7FE/0DEF       00820 10533  1          +
 DROP   @SEG-72,R13                10535  1  130.                PSET  @SEGSTK
 USING  @SEGSTK-72,R13
 000496 D707 D048 D048 00000 00000 10555  1          +
 00049C                            10556  1  131.                SEGLD PARM=@SEGSCB
 00049C D203 D048 C04C 00000 00004 10562  1          +
 0004A2 D203 D04C 6018 00004 00018 10563  1  132.                MVC   @SEGSST,RTCBSTK         Move in the stack pointer
 0004A8 58F0 A842/0DEF       00864 10564  1  133.                VCALL SEGSTK
 DROP   @SEGSTK-72,R13             10568  1  134.                SEG   'End of stack for '
 USING  @SEG-72,R13
 0004AE D70C D048 D048 00000 00000 10589  1          +
 0004B4 4100 A91C            0093E 10598  1          +
 0004B8 5000 D04C            00004 10603  1          +
 0004BC 4100 0011            00011 10615  1          +
 0004C0 5000 D050            00008 10620  1          +
 0004C4 D203 D048 C04C 00000 00004 10627  1          +
 0004CA 58F0 A7FE/0DEF       00820 10630  1          +
 0004D0                            10632  1  135.                SEGEOR RTCBNAME
 0004D0 D70C D048 D048 00000 00000 10644  1          +
 0004D6 4100 600C            0000C 10657  1          +
 0004DA 5000 D04C            00004 10662  1          +
 0004DE 4100 0008            00008 10674  1          +
 0004E2 5000 D050            00008 10679  1          +
 0004E6 D203 D048 C04C 00000 00004 10686  1          +
 0004EC 9610 D054      0000C       10692  1          +
1TASKSERV (TASK00) (09:44) (22MAR04) IHAPSAE  - PSA Extension (ESAME)                                                       Page   74
0Current Usings:  (RTCB,R6) (TASKDUMP,R10) (@DUMPPRM-72,R12) (@SEG-72,R13)
0Loc    Object Code    Addr1 Addr2  Stmt Lv Lineno    Source Statement           (Hibal 5, Asmedit 3.3)  HLASM R4.0  2004/03/22 09.44
+___    ______ ____    _____ _____  ____ __ ______    ______ _________
00004F0 58F0 A7FE/0DEF       00820 10695  1          +
1TASKSERV (TASK00) (09:44) (22MAR04) IHAPSAE  - PSA Extension (ESAME)                                                       Page   75
0Current Usings:  (RTCB,R6) (TASKDUMP,R10) (@DUMPPRM-72,R12) (@SEG-72,R13)
0Loc    Object Code    Addr1 Addr2  Stmt Lv Lineno    Source Statement           (Hibal 5, Asmedit 3.3)  HLASM R4.0  2004/03/22 09.44
+___    ______ ____    _____ _____  ____ __ ______    ______ _________
0                                  10698  1  137.     *
                                   10699  1  138.     * Dump task completion status
                                   10700  1  139.     *
 0004F6                            10701  1  140.                BEGIN
 0004F6 5850 6024            00024 10705  2  141.                  L     RK,RTCBESTA             Get the ESTAE data area
 USING  ESTADATA,R5                10706  2  142.                  WITH  (ESTADATA,RK)
 AUSING (ESTAINFO,EDINFO)          10719  2  143.                  WITH  (ESTAINFO,EDINFO)       Address the information area
 0004FA 9140 5004      00004       10726  2  144.                  TM    EDFABEND,L'EDFABEND     Test the abend flag
 0004FE 4780 A7AA            007CC 10727  2  145.                  IF    OFF,EXIT                Don't bother if no abend
 000502                            10741  2  146.                  SEGEOR ,
 000502 D70C D048 D048 00000 00000 10753  2          +
 000508 D703 D050 D050 00008 00008 10761  2          +
 00050E D203 D048 C04C 00000 00004 10768  2          +
 000514 9610 D054      0000C       10774  2          +
 000518 58F0 A7FE/0DEF       00820 10777  2          +
 00051E                            10779  2  147.                  SEGEOR '*** Task Abended ***'
 00051E D70C D048 D048 00000 00000 10791  2          +
 000524 4100 A846            00868 10800  2          +
 000528 5000 D04C            00004 10805  2          +
 00052C 4100 0014            00014 10817  2          +
 000530 5000 D050            00008 10822  2          +
 000534 D203 D048 C04C 00000 00004 10829  2          +
 00053A 9610 D054      0000C       10835  2          +
 00053E 58F0 A7FE/0DEF       00820 10838  2          +
 000544                            10840  2  148.                  SEGEOR
 000544 D70C D048 D048 00000 00000 10852  2          +
 00054A D703 D050 D050 00008 00008 10860  2          +
 000550 D203 D048 C04C 00000 00004 10867  2          +
 000556 9610 D054      0000C       10873  2          +
 00055A 58F0 A7FE/0DEF       00820 10876  2          +
 000560                            10878  2  149.                  SEG   'Completion Code '
 000560 D70C D048 D048 00000 00000 10889  2          +
 000566 4100 A7EE            00810 10898  2          +
 00056A 5000 D04C            00004 10903  2          +
 00056E 4100 0010            00010 10915  2          +
 000572 5000 D050            00008 10920  2          +
 000576 D203 D048 C04C 00000 00004 10927  2          +
 00057C 58F0 A7FE/0DEF       00820 10930  2          +
 000582                            10932  2  150.                  SEGHEX EDEABND,4
 000582 D70C D048 D048 00000 00000 10943  2          +
 000588 4100 5060            00000 10956  2          +
 00058C 5000 D04C            00004 10961  2          +
 000590 4100 0004            00004 10973  2          +
 000594 5000 D050            00008 10978  2          +
 000598 D203 D048 C04C 00000 00004 10985  2          +
 00059E 58F0 A802/0DEF       00824 10988  2          +
 0005A4                            10990  2  151.                  SEG   '  Reason '
 0005A4 D70C D048 D048 00000 00000 11001  2          +
 0005AA 4100 A92D            0094F 11010  2          +
 0005AE 5000 D04C            00004 11015  2          +
 0005B2 4100 0009            00009 11027  2          +
 0005B6 5000 D050            00008 11032  2          +
 0005BA D203 D048 C04C 00000 00004 11039  2          +
 0005C0 58F0 A7FE/0DEF       00820 11042  2          +
1TASKSERV (TASK00) (09:44) (22MAR04) IHAPSAE  - PSA Extension (ESAME)                                                       Page   76
0Current Usings:  (ESTADATA,R5) (RTCB,R6) (TASKDUMP,R10) (@DUMPPRM-72,R12) (@SEG-72,R13)
0Loc    Object Code    Addr1 Addr2  Stmt Lv Lineno    Source Statement           (Hibal 5, Asmedit 3.3)  HLASM R4.0  2004/03/22 09.44
+___    ______ ____    _____ _____  ____ __ ______    ______ _________
00005C6                            11044  2  152.                  SEGHEX EDERSN,4
 0005C6 D70C D048 D048 00000 00000 11055  2          +
 0005CC 4100 5064            00004 11068  2          +
 0005D0 5000 D04C            00004 11073  2          +
 0005D4 4100 0004            00004 11085  2          +
 0005D8 5000 D050            00008 11090  2          +
 0005DC D203 D048 C04C 00000 00004 11097  2          +
 0005E2 58F0 A802/0DEF       00824 11100  2          +
 0005E8                            11102  2  153.                  SEG   '  INTC '
 0005E8 D70C D048 D048 00000 00000 11113  2          +
 0005EE 4100 A936            00958 11122  2          +
 0005F2 5000 D04C            00004 11127  2          +
 0005F6 4100 0007            00007 11139  2          +
 0005FA 5000 D050            00008 11144  2          +
 0005FE D203 D048 C04C 00000 00004 11151  2          +
 000604 58F0 A7FE/0DEF       00820 11154  2          +
 00060A                            11156  2  154.                  SEGHEX EDEINTC+1,1            Interrupt code
 00060A D70C D048 D048 00000 00000 11167  2          +
 000610 4100 506B            0000B 11180  2          +
 000614 5000 D04C            00004 11185  2          +
 000618 4100 0001            00001 11197  2          +
 00061C 5000 D050            00008 11202  2          +
 000620 D203 D048 C04C 00000 00004 11209  2          +
 000626 58F0 A802/0DEF       00824 11212  2          +
 00062C                            11214  2  155.                  SEG   ' '
 00062C D70C D048 D048 00000 00000 11225  2          +
 000632 4100 A93D            0095F 11234  2          +
 000636 5000 D04C            00004 11239  2          +
 00063A 4100 0001            00001 11251  2          +
 00063E 5000 D050            00008 11256  2          +
 000642 D203 D048 C04C 00000 00004 11263  2          +
 000648 58F0 A7FE/0DEF       00820 11266  2          +
 00064E                            11268  2  156.                  SEGHEX EDEPEA,4               Page exception address
 00064E D70C D048 D048 00000 00000 11279  2          +
 000654 4100 506C            0000C 11292  2          +
 000658 5000 D04C            00004 11297  2          +
 00065C 4100 0004            00004 11309  2          +
 000660 5000 D050            00008 11314  2          +
 000664 D203 D048 C04C 00000 00004 11321  2          +
 00066A 58F0 A802/0DEF       00824 11324  2          +
 000670                            11326  2  157.                  SEGEOR
 000670 D70C D048 D048 00000 00000 11338  2          +
 000676 D703 D050 D050 00008 00008 11346  2          +
 00067C D203 D048 C04C 00000 00004 11353  2          +
 000682 9610 D054      0000C       11359  2          +
 000686 58F0 A7FE/0DEF       00820 11362  2          +
 00068C                            11364  2  158.                  SEG   'PSW at time of ABEND '
 00068C D70C D048 D048 00000 00000 11375  2          +
 000692 4100 A93E            00960 11384  2          +
 000696 5000 D04C            00004 11389  2          +
 00069A 4100 0015            00015 11401  2          +
 00069E 5000 D050            00008 11406  2          +
 0006A2 D203 D048 C04C 00000 00004 11413  2          +
 0006A8 58F0 A7FE/0DEF       00820 11416  2          +
1TASKSERV (TASK00) (09:44) (22MAR04) IHAPSAE  - PSA Extension (ESAME)                                                       Page   77
0Current Usings:  (ESTADATA,R5) (RTCB,R6) (TASKDUMP,R10) (@DUMPPRM-72,R12) (@SEG-72,R13)
0Loc    Object Code    Addr1 Addr2  Stmt Lv Lineno    Source Statement           (Hibal 5, Asmedit 3.3)  HLASM R4.0  2004/03/22 09.44
+___    ______ ____    _____ _____  ____ __ ______    ______ _________
00006AE                            11418  2  159.                  SEGHEX EDEPSW,4
 0006AE D70C D048 D048 00000 00000 11429  2          +
 0006B4 4100 5070            00010 11442  2          +
 0006B8 5000 D04C            00004 11447  2          +
 0006BC 4100 0004            00004 11459  2          +
 0006C0 5000 D050            00008 11464  2          +
 0006C4 D203 D048 C04C 00000 00004 11471  2          +
 0006CA 58F0 A802/0DEF       00824 11474  2          +
 0006D0                            11476  2  160.                  SEG   ' '
 0006D0 D70C D048 D048 00000 00000 11487  2          +
 0006D6 4100 A93D            0095F 11496  2          +
 0006DA 5000 D04C            00004 11501  2          +
 0006DE 4100 0001            00001 11513  2          +
 0006E2 5000 D050            00008 11518  2          +
 0006E6 D203 D048 C04C 00000 00004 11525  2          +
 0006EC 58F0 A7FE/0DEF       00820 11528  2          +
 0006F2                            11530  2  161.                  SEGHEX EDEPSW+4,4
 0006F2 D70C D048 D048 00000 00000 11541  2          +
 0006F8 4100 5074            00014 11554  2          +
 0006FC 5000 D04C            00004 11559  2          +
 000700 4100 0004            00004 11571  2          +
 000704 5000 D050            00008 11576  2          +
 000708 D203 D048 C04C 00000 00004 11583  2          +
 00070E 58F0 A802/0DEF       00824 11586  2          +
 000714                            11588  2  162.                  SEG   '  ILC '
 000714 D70C D048 D048 00000 00000 11599  2          +
 00071A 4100 A894            008B6 11608  2          +
 00071E 5000 D04C            00004 11613  2          +
 000722 4100 0006            00006 11625  2          +
 000726 5000 D050            00008 11630  2          +
 00072A D203 D048 C04C 00000 00004 11637  2          +
 000730 58F0 A7FE/0DEF       00820 11640  2          +
 000736                            11642  2  163.                  SEGHEX EDEILC+1,1
 000736 D70C D048 D048 00000 00000 11653  2          +
 00073C 4100 5069            00009 11666  2          +
 000740 5000 D04C            00004 11671  2          +
 000744 4100 0001            00001 11683  2          +
 000748 5000 D050            00008 11688  2          +
 00074C D203 D048 C04C 00000 00004 11695  2          +
 000752 58F0 A802/0DEF       00824 11698  2          +
 000758                            11700  2  164.                  SEGEOR ,
 000758 D70C D048 D048 00000 00000 11712  2          +
 00075E D703 D050 D050 00008 00008 11720  2          +
 000764 D203 D048 C04C 00000 00004 11727  2          +
 00076A 9610 D054      0000C       11733  2          +
 00076E 58F0 A7FE/0DEF       00820 11736  2          +
 000774                            11738  2  165.                  SEGEOR 'Registers at time of ABEND'
 000774 D70C D048 D048 00000 00000 11750  2          +
 00077A 4100 A89A            008BC 11759  2          +
 00077E 5000 D04C            00004 11764  2          +
 000782 4100 001A            0001A 11776  2          +
 000786 5000 D050            00008 11781  2          +
 00078A D203 D048 C04C 00000 00004 11788  2          +
 000790 9610 D054      0000C       11794  2          +
1TASKSERV (TASK00) (09:44) (22MAR04) IHAPSAE  - PSA Extension (ESAME)                                                       Page   78
0Current Usings:  (ESTADATA,R5) (RTCB,R6) (TASKDUMP,R10) (@DUMPPRM-72,R12) (@SEG-72,R13)
0Loc    Object Code    Addr1 Addr2  Stmt Lv Lineno    Source Statement           (Hibal 5, Asmedit 3.3)  HLASM R4.0  2004/03/22 09.44
+___    ______ ____    _____ _____  ____ __ ______    ______ _________
0000794 58F0 A7FE/0DEF       00820 11797  2          +
 DROP   @SEG-72,R13                11799  2  166.                  SEGCORE EDEREGS,64,,ID=REGS,ALPHA=OFF,REPEAT=YES
 USING  @SEGCORE-72,R13
 00079A D717 D048 D048 00000 00000 11820  2          +
 0007A0 4100 5078            00018 11833  2          +
 0007A4 5000 D04C            00004 11838  2          +
 0007A8 4100 0040            00040 11850  2          +
 0007AC 5000 D050            00008 11855  2          +
 0007B0 D203 D05C A85A 00014 0087C 11861  2          +
 0007B6 D203 D058 D04C 00010 00004 11866  2          +
 0007BC 96B8 D055      0000D       11884  2          +
 0007C0 D203 D048 C04C 00000 00004 11891  2          +
 0007C6 58F0 A80A/0DEF       0082C 11894  2          +
 DROP   ESTADATA,R5                11896  1  167.                END   ,
 DROP   @SEGCORE-72,R13            11905  1  168.                SEGEOB ,
 USING  @SEG-72,R13
 0007CC D70C D048 D048 00000 00000 11927  1          +
 0007D2 D703 D050 D050 00008 00008 11935  1          +
 0007D8 D203 D048 C04C 00000 00004 11942  1          +
 0007DE 9608 D054      0000C       11948  1          +
 0007E2 58F0 A7FE/0DEF       00820 11951  1          +
                                   11953  1  169.     *
                                   11954  1  170.     * Go to the next task
                                   11955  1  171.     *
 0007E8 4170 6008            00008 11956  1  172.                LA    RY,RTCBNEXT             Address of the next pointer
 0007EC 47F0 A2B8            002DA 11957     173.              END   ,
 USING  RTCB,R9
 DROP   RTCB,R6
 0007F0 981F C008            00008 11976     174.              PEND  ,
 DROP   @DUMPPRM-72,R12
 DROP   TASKDUMP,R10
 0007F4 9680 C000/0B0E 00000       11991             +
 DROP   @SEG-72,R13
 000800                            12000     175.              LTORG
 000800 C3C2C1E34081A340           12002                             =C'CBAT at '
 000808 D9E3C3C24081A340           12003                             =C'RTCB at '
 000810 C39694979385A389           12004                             =C'Completion Code '
 000820 00000000                   12005                             =V(SEG)
 000824 00000000                   12006                             =V(SEGHEX)
 000828 C3C2C1E3                   12007                             =CL4'CBAT'
 00082C 00000000                   12008                             =V(SEGCORE)
 000830 E3C3E340                   12009                             =C'TCT '
 000834 40E3C3E3D9E3C3C2           12010                             =C' TCTRTCB  (Chain of all RTCBs in the system)'
 000860 D9E3C3C2                   12011                             =CL4'RTCB'
 000864 00000000                   12012                             =V(SEGSTK)
 000868 5C5C5C40E381A292           12013                             =C'*** Task Abended ***'
 00087C D9C5C7E2                   12014                             =CL4'REGS'
 000880 E3C1E2D2C3E34081           12015                             =C'TASKCT at '
 00088A 40E3C3E3D9D3D6C3           12016                             =C' TCTRLOCK (Lock ID for RTCB chain)'
 0008AC E2A3818392408696           12017                             =C'Stack for '
 0008B6 4040C9D3C340               12018                             =C'  ILC '
 0008BC D9858789A2A38599           12019                             =C'Registers at time of ABEND'
 0008D6 5C5C5C5C40E340C1           12020                             =C'**** T A S K   I N F O R M A T I O N ****'
 0008FF 5C5C5C40C9C440C3           12021                             =C'*** ID Check failed.  This may be garbage ***'
1TASKSERV (TASK00) (09:44) (22MAR04) IHAPSAE  - PSA Extension (ESAME)                                                       Page   79
0Current Usings:  (RTCB,R9)
0Loc    Object Code    Addr1 Addr2  Stmt Lv Lineno    Source Statement           (Hibal 5, Asmedit 3.3)  HLASM R4.0  2004/03/22 09.44
+___    ______ ____    _____ _____  ____ __ ______    ______ _________
000092C 5C5C40C4A4949740           12022                             =C'** Dump of '
 000937 E381A292405C5C             12023                             =C'Task **'
 00093E C5958440968640A2           12024                             =C'End of stack for '
 00094F 4040D98581A29695           12025                             =C'  Reason '
 000958 4040C9D5E3C340             12026                             =C'  INTC '
 00095F 40                         12027                             =C' '
 000960 D7E2E64081A340A3           12028                             =C'PSW at time of ABEND '
1TASKSERV (TASK00) (09:44) (22MAR04) IHAPSAE  - PSA Extension (ESAME)                                                       Page   80
0Current Usings:  (RTCB,R9)
0Loc    Object Code    Addr1 Addr2  Stmt Lv Lineno    Source Statement           (Hibal 5, Asmedit 3.3)  HLASM R4.0  2004/03/22 09.44
+___    ______ ____    _____ _____  ____ __ ______    ______ _________
0                                  12033     177.     *******************************************************************
                                   12034     178.     *                                                                 *
                                   12035     179.     *    TASKINIT  --  Initialize Task Services                       *
                                   12036     180.     *                                                                 *
                                   12037     181.     *                                                                 *
                                   12038     182.     *     Input - None                                                *
                                   12039     183.     *                                                                 *
                                   12040     184.     *    Output - RVR contains RTCB pointer                           *
                                   12041     185.     *                                                                 *
                                   12042     186.     *                                                                 *
                                   12043     187.     *                                                                 *
                                   12044     188.     *                                                                 *
                                   12045     189.     *                                                                 *
                                   12046     190.     *                                                                 *
                                   12047     191.     *******************************************************************
-
 000976                            12049     193.     TASKINIT PROC  @TASKINI,SCOPE=GLOBAL
 000976 E3C1E2D2C9D5C9E3           12055             +
 00097E 0008/0000                  12056             +
 000982 900F D004/18AF       00004 12058             +
 USING  TASKINIT,R10
 000988 50D0 C000/18CD       00000 12073             +
 00098E 9680 C000      00000       12075             +
 USING  @TASKINI-72,R12
 000992 41D0 C050            00050 12089             +
 USING  @MEMORY-72,R13             12090     194.              POOLGET L'RTCB                GET MASTER TASK RTCB
 000996 D70B D048 D048 00000 00000 12108             +
 00099C 4100 00B0            000B0 12116             +
 0009A0 5000 D04C            00004 12117             +
 0009A4 9210 D04A      00002       12124             +
 0009A8 58F0 AD96/0DEF       01718 12127             +
 0009AE 5890 D050            00008 12129     195.              L     RTCBR,@MEMLOC
 0009B2 D203 9000 AD9A 00000 0171C 12130     196.              MVC   RTCB(4),=CL4'RTCB'      CONTROL BLOCK ID
 0009B8 D207 900C AD7E 0000C 01700 12131     197.              MVC   RTCBNAME,=CL8'MASTER'   IDENTIFY MASTER TASK RTCB
 0009BE D203 9018 C048 00018 00000 12132     198.              MVC   RTCBSTK,@TASKIST        SAVE THE START OF STACK
 0009C4 5810 0010            00010 12133     199.              L     RS,CVTPTR               CVT
 0009C8 5810 1000            00000 12134     200.              WITH  (CVT,RS),'L  RS,CVTTCBP'   GET NEW/OLD TCB POINTER
 USING  CVT,R1
 DROP   CVT,R1
 0009CC 5810 1004            00004 12158     201.              L     RS,@RS+4                GET CURRENT TCB (US)
 0009D0 5010 9014            00014 12159     202.              ST    RS,RTCBTCB              MASTER TASK TCB
 DROP   @MEMORY-72,R13             12160     203.              PSET  @TRCINT,CLEAR=NO
 USING  @TRCINT-72,R13
 0009D4 D203 D048 AD9E 00000 01720 12174     204.              MVC   @TRCINM,=A(50)          NUMBER OF TRACE ENTRIES
 0009DA 58F0 ADA2/0DEF       01724 12175     205.              ACALL TRCEINIT                TRACE TABLE
 0009E0 58F0 ADA6/0DEF       01728 12182     206.              ACALL CPTSTART                INITIALIZE CPU TIMER
1TASKSERV (TASK00) (09:44) (22MAR04) IHAPSAE  - PSA Extension (ESAME)                                                       Page   81
0Current Usings:  (RTCB,R9) (TASKINIT,R10) (@TASKINI-72,R12) (@TRCINT-72,R13)
0Loc    Object Code    Addr1 Addr2  Stmt Lv Lineno    Source Statement           (Hibal 5, Asmedit 3.3)  HLASM R4.0  2004/03/22 09.44
+___    ______ ____    _____ _____  ____ __ ______    ______ _________
0DROP   @TRCINT-72,R13             12190     208.              POOLGET L'CBAT                CREATE CBAT
 USING  @MEMORY-72,R13
 0009E6 D70B D048 D048 00000 00000 12211             +
 0009EC 4100 0090            00090 12219             +
 0009F0 5000 D04C            00004 12220             +
 0009F4 9210 D04A      00002       12227             +
 0009F8 58F0 AD96/0DEF       01718 12230             +
 0009FE 5000 9004            00004 12232     209.              ST    RVR,RTCBCBAT
 000A02 1870                       12233     210.              LR    RY,RVR
 USING  CBAT,R7                    12234     211.              USING CBAT,RY
 000A04 D203 7000 ADAA 00000 0172C 12243     212.              MVC   CBAT(4),=CL4'CBAT'      SET ID
 000A0A 58F0 ADAE/0DEF       01730 12244     213.              VCALL LOCKINIT                INITIALIZE LOCK MANAGER
 000A10 58F0 ADB2/0DEF       01734 12248     214.              VCALL MSGINIT                 INITIALIZE MESSAGE MANAGER
 DROP   @MEMORY-72,R13             12252     215.              MEMINIT TYPE=GLOBAL           Initialize global memory
 USING  @MEMINIT-72,R13
 000A16 D701 D048 D048 00000 00000 12274             +
 000A1C 9280 D048      00000       12281             +
 000A20 58F0 ADB6/0DEF       01738 12284             +
 000A26                            12286     216.              MEMINIT ,                     | and local
 000A26 D701 D048 D048 00000 00000 12298             +
 000A2C 58F0 ADB6/0DEF       01738 12301             +
 DROP   @MEMINIT-72,R13            12303     217.              POOLGET L'TASKCT              CREATE THE TASKCT
 USING  @MEMORY-72,R13
 000A32 D70B D048 D048 00000 00000 12324             +
 000A38 4100 0010            00010 12332             +
 000A3C 5000 D04C            00004 12333             +
 000A40 9210 D04A      00002       12340             +
 000A44 58F0 AD96/0DEF       01718 12343             +
 000A4A 5000 7004            00004 12345     218.              ST    RVR,CBATTASK            SET CT POINTER
 000A4E 1870                       12346     219.              LR    RY,RVR
 DROP   CBAT,R7                    12347     220.              USING TASKCT,RY
 USING  TASKCT,R7
 000A50 D203 7000 ADBA 00000 0173C 12359     221.              MVC   TASKCT(4),=CL4'TCT'     SET NAME FIELD
 000A56 5090 7004            00004 12360     222.              ST    RTCBR,TCTRTCB           HEAD OF RTCB CHAIN
 000A5A D203 700C 9014 0000C 00014 12361     223.              MVC   TCTMTTCB,RTCBTCB        Save the main task TCB addr
 DROP   @MEMORY-72,R13             12362     224.              PSET  @LOCKCRE
 USING  @LOCKCRE-72,R13
 000A60 D710 D048 D048 00000 00000 12382             +
 000A66 D20F D048 AD86 00000 01708 12383     225.              MVC   @LOCKNAM,=CL16'RTCB CHAIN'   LOCK NAME
 000A6C 58F0 ADBE/0DEF       01740 12384     226.              VCALL LOCKCRE                 CREATE IT
 000A72 5000 7008            00008 12388     227.              ST    RVR,TCTRLOCK            SAVE LOCK ID
 000A76 5070 A30E            00C90 12389     228.              ST    RY,CPTTCT               SET TCT ANCHOR FOR TIMER
1TASKSERV (TASK00) (09:44) (22MAR04) IHAPSAE  - PSA Extension (ESAME)                                                       Page   82
0Current Usings:  (TASKCT,R7) (RTCB,R9) (TASKINIT,R10) (@TASKINI-72,R12) (@LOCKCRE-72,R13)
0Loc    Object Code    Addr1 Addr2  Stmt Lv Lineno    Source Statement           (Hibal 5, Asmedit 3.3)  HLASM R4.0  2004/03/22 09.44
+___    ______ ____    _____ _____  ____ __ ______    ______ _________
0                                  12391     230.     *
                                   12392     231.     *  INITIALIZE ESTAE
                                   12393     232.     *
 DROP   @LOCKCRE-72,R13            12394     233.              MEMGET L'ESTADATA
 USING  @MEMGET-72,R13
 000A7A D709 D048 D048 00000 00000 12416             +
 000A80 4100 00B8            000B8 12423             +
 000A84 5000 D04C            00004 12424             +
 000A88 9211 D051      00009       12434             +
 000A8C 58F0 ADC2/0DEF       01744 12437             +
 000A92 1830                       12439     234.              LR    RB,RVR
 000A94 5030 9024            00024 12440     235.              ST    RB,RTCBESTA             ESTAE WORK AREA
 USING  ESTADATA,R3                12441     236.              WITH  (ESTADATA,RB),BEGIN
 000A98 D201 3006 ADFE 00006 01780 12455  1  237.                MVC   EDRUBMSK,=X'FFFF'       SET MASK
 000A9E D217 3048 AE16 00048 01798 12456  1  238.                MVC   EDESTAE,MODESTAE        MOVE IN PARM LIST
 000AA4 4120 AC78            015FA 12457  1  239.                LA    RA,ESTAEXIT             RECOVERY ROUTINE
                                   12459  1  241.                ESTAE (RA),PARAM=(RTCBR),MF=(E,EDESTAE)   SET ESTAE
                                   12461  1          +*    MACDATE   10/01/94                                        @G860P1C
 000AA8 4110 3048            00048 12464  1 02-IHBIN +           LA    1,EDESTAE                         LOAD PARAMETER REG 1
 000AAC 5021 0014            00014 12465  1 01-ESTAE +           ST    RA,20(1)                STORE USER EXIT ADDRESS @G860P38
 000AB0 94BF 1000      00000       12466  1 01-ESTAE +           NI    0(1),191                TURN OFF FLAG BITS
 000AB4 9610 1000      00000       12467  1 01-ESTAEC+           OI    0(1),16                 FLAGS FOR TCB,PURGE,ASYNCH,
                                          1          +                                         AND CANCEL                  @D1C
 000AB8 5090 1004            00004 12468  1 01-ESTAE +           ST    RTCBR,4(0,1)            MODIFY LIST - PARAM ADDR
 000ABC 94F7 1000      00000       12469  1 01-ESTAE +           NI    0(1),B'11110111'      INIT BIT 5 TO 0             @P1C
 000AC0 94E4 100C      0000C       12470  1 01-ESTAE +           NI    12(1),B'11100100'     INIT BIT 4,5,7,8 TO O       @L2C
 000AC4 9201 100D      0000D       12471  1 01-ESTAE +           MVI   13(1),1       FLAG FOUR BYTE EXIT ADDR        @G860P1C
 000AC8 D701 100E 100E 0000E 0000E 12472  1 01-ESTAE +           XC    14(2,1),14(1)         INIT RESERVED FLD TO 0  @G860P1C
 000ACE 4100 0100            00100 12473  1 01-ESTAE +           LA    0,256(0,0)              CREATE & PARMLST EQ 0   @ZMD0006
 000AD2 0A3C                       12474  1 01-ESTAE +           SVC   60                      ISSUE STAE SVC
 DROP   ESTADATA,R3                12476     243.              END   ,
 000AD4 1809                       12484     244.              LR    RVR,RTCBR               RETURN RTCB POINTER
 000AD6 981F C008            00008 12485     245.              PEND
 DROP   @TASKINI-72,R12
 DROP   TASKINIT,R10
 000ADA 9680 C000/0B0E 00000       12500             +
 DROP   @MEMGET-72,R13
 DROP   TASKCT,R7                  12509     246.              DROP  RY
1TASKSERV (TASK00) (09:44) (22MAR04) IHAPSAE  - PSA Extension (ESAME)                                                       Page   83
0Current Usings:  (RTCB,R9)
0Loc    Object Code    Addr1 Addr2  Stmt Lv Lineno    Source Statement           (Hibal 5, Asmedit 3.3)  HLASM R4.0  2004/03/22 09.44
+___    ______ ____    _____ _____  ____ __ ______    ______ _________
0                                  12517     248.     *******************************************************************
                                   12518     249.     *                                                                 *
                                   12519     250.     *   CPTSTART - Start CPU timing for a task                        *
                                   12520     251.     *                                                                 *
                                   12521     252.     *                                                                 *
                                   12522     253.     *     Input - None                                                *
                                   12523     254.     *                                                                 *
                                   12524     255.     *    Output - None                                                *
                                   12525     256.     *                                                                 *
                                   12526     257.     *                                                                 *
                                   12527     258.     *                                                                 *
                                   12528     259.     *                                                                 *
                                   12529     260.     *                                                                 *
                                   12530     261.     *                                                                 *
                                   12531     262.     *******************************************************************
-
 000AE0                            12533     264.     CPTSTART PROC  SCOPE=GLOBAL
 000AE0 C3D7E3E2E3C1D9E3           12539             +
 000AE8 0000/0000                  12540             +
 000AEC 900F D004/18AF       00004 12542             +
 USING  CPTSTART,R10
 000AF2 50D0 C000/18CD       00000 12557             +
 000AF8 9680 C000      00000       12559             +
 000AFC 41D0 C048            00048 12560             +
 000B00 4110 A194            00C80 12561     265.              STIMER TASK,CPTEXIT,MICVL=CLOCKVAL
 000B04 41F0 A0F0            00BDC 12565             +
 000B08 4100 00A0            000A0 12566             +
 000B0C 8900 0018/0A2F       00018 12567             +
 000B12 9823 A194            00C80 12569     266.              LM    RA,RB,CLOCKVAL          Get time set
 000B16 5E30 9064            00064 12570     267.              ADL   RA,RTCBCPU              CURRENT TOTAL CPU
 000B1A 47C0 A036            00B22 12579             +
 000B1E 5E20 AC5C            01748 12585             +
 000B22 5E20 9060            00060 12590             +
 000B26 9023 9058            00058 12591     268.              STM   RA,RB,RTCBTIMR
 000B2A 981F C008            00008 12592     269.              PEND
 DROP   CPTSTART,R10
 000B2E 9680 C000/0B0E 00000       12602             +
1TASKSERV (TASK00) (09:44) (22MAR04) IHAPSAE  - PSA Extension (ESAME)                                                       Page   84
0Current Usings:  (RTCB,R9)
0Loc    Object Code    Addr1 Addr2  Stmt Lv Lineno    Source Statement           (Hibal 5, Asmedit 3.3)  HLASM R4.0  2004/03/22 09.44
+___    ______ ____    _____ _____  ____ __ ______    ______ _________
0                                  12609     271.     *******************************************************************
                                   12610     272.     *                                                                 *
                                   12611     273.     *   CPTREAD - Obtain CPU time used by a task                      *
                                   12612     274.     *                                                                 *
                                   12613     275.     *                                                                 *
                                   12614     276.     *     Input - None                                                *
                                   12615     277.     *                                                                 *
                                   12616     278.     *    Output - @CPTIME                                             *
                                   12617     279.     *                                                                 *
                                   12618     280.     *                                                                 *
                                   12619     281.     *                                                                 *
                                   12620     282.     *                                                                 *
                                   12621     283.     *                                                                 *
                                   12622     284.     *******************************************************************
-
 000000                00000 00010 12624     286.     CPTWA    RECORD BEGIN
 000000                            12632  1  287.     CPTWAF0    DS    D                       Save area for FPR 0
 000008                            12633  1  288.     CPTWAF2    DS    D                       Save area for FPR 2
 000010                00010 00010 12634     289.              END   ,
-000B34                            12644     291.     CPTREAD  PROC  @CPTIME,CPTWA,SCOPE=GLOBAL
 000B34 C3D7E3D9C5C1C440           12650             +
 000B3C 0010/0010                  12651             +
 000B40 900F D004/18AF       00004 12653             +
 USING  CPTREAD,R10
 000B46 50D0 C000/18CD       00000 12668             +
 000B4C 9680 C000      00000       12670             +
 USING  @CPTIME-72,R12
 AUSING (CPTWA,@CPTIME+16)
 000B50 41D0 C068            00068 12689             +
 000B54 6000 C058            00000 12690     292.              STD   0,CPTWAF0               Save the FPRs We use
 000B58 6020 C060            00008 12691     293.              STD   2,CPTWAF2
                                   12692     294.     *         STPT  RTCBCPT                 Current CPU timer in XA
                                   12694          CPUTIMER MIC,RTCBCPT          Current CPU timer                 294.2
                                   12695+* /* MACDATE Y-1 80016                                               */
 000B5C                            12696+         DS    0H                                                       01-CPUTI
 000B5C B227 00F0                  12697+         ESAR  15                           SAVE THE SASID              01-CPUTI
 000B60 90EC D00C            0000C 12698+         STM   14,12,12(13)                 SAVE REGISTERS              01-CPUTI
 000B64 4110 9068            00068 12699+         LA    1,RTCBCPT                    PUT AREA ADDR IN PARM REG   01-CPUTI
 000B68 4100 0002            00002 12700+         LA    0,2(0,0)                     LOAD 0 TO SET FLAG BYTE     01-CPUTI
 000B6C 5820 0010            00010 12701+         L     2,16(0,0)                    LOAD CVT POINTER            01-CPUTI
 000B70 5820 2304            00304 12702+         L     2,772(,2)                    GET ADDR OF SFT             01-CPUTI
 000B74 5820 2060            00060 12703+         L     2,96(,2)                     GET LX/EX FOR CPUTIMER  *   01-CPUTI
 000B78 B218 2000      00000       12704+         PC    0(2)                         GO TO CPUTIMER ROUTINE      01-CPUTI
 000B7C 58CD 0010            00010 12705+         L     12,16(13)                    GET SASID SAVED BEFORE      01-CPUTI
 000B80 B225 00C0                  12706+         SSAR  12                           RESTORE THE SASID           01-CPUTI
 000B84 980C D014            00014 12707+         LM    0,12,20(13)                  RESTORE REGISTERS           01-CPUTI
                                   12708 *pop                                                                     294.3
 000B88 6800 9058            00058 12709          LD    R0,RTCBTIMR             Logical timer                     295.
 000B8C 6F00 9068            00068 12710          SW    R0,RTCBCPT              Subtract current timer            296.
 000B90 6000 C048            00000 12711          STD   R0,@CPTTOT              Current total CPU                 297.
1TASKSERV (TASK00) (09:44) (22MAR04) IHAPSAE  - PSA Extension (ESAME)                                                       Page   85
0Current Usings:  (RTCB,R9) (CPTREAD,R10) (@CPTIME-72,R12)
0Loc    Object Code    Addr1 Addr2  Stmt Lv Lineno    Source Statement           (Hibal 5, Asmedit 3.3)  HLASM R4.0  2004/03/22 09.44
+___    ______ ____    _____ _____  ____ __ ______    ______ _________
0000B94 6820 9060            00060 12712          LD    R2,RTCBCPU              Previous value                    298.
 000B98 6000 9060            00060 12713          STD   R0,RTCBCPU              Save new current total            299.
 000B9C 2F02                       12714          SWR   R0,R2                   CPU time used this interval       300.
 000B9E 6000 C050            00008 12715          STD   R0,@CPTINT              Set interval                      301.
                                   12716          IF    (RTCBCPT,LT,MINCLKVL),BEGIN   Time to reset timer         302.
 000BA2 D507 9068 A148 00068 00C88 12728+         CLC   RTCBCPT,MINCLKVL                                         04-$CSS
 000BA8 47B0 A08A            00BCA 12729+$$$36B   BC    15-4,$$$36F                                              01-IF
 000BAC                            12732+$$$36T   DS    0H                                                       03-LABEL
                                   12733+*,>1                                                                    02-BEGIN
                                   12734          STIMER TASK,CPTEXIT,MICVL=CLOCKVAL                              303.
                                   12736+*        MACDATE = 08/19/88                                        @L1C
 000BAC 4110 A140            00C80 12737+         LA    1,CLOCKVAL                         LOAD ADDR TIME VALUE  01-STIME
 000BB0 41F0 A09C            00BDC 12738+         LA    15,CPTEXIT                         LOAD EXIT ADDRESS     01-STIME
 000BB4 4100 00A0            000A0 12739+         LA    0,160(0,0)                        LOAD FLAG BYTE         01-STIME
 000BB8 8900 0018            00018 12740+         SLL   0,24(0)                           SHIFT TO HI-ORDER BYTE 01-STIME
 000BBC 0A2F                       12741+         SVC   47                                ISSUE STIMER SVC       01-STIME
 000BBE 6820 A140            00C80 12742          LD    R2,CLOCKVAL             Get time set                      304.
 000BC2 6E20 9060            00060 12743          AW    R2,RTCBCPU              Current total CPU used            305.
 000BC6 6020 9058            00058 12744          STD   R2,RTCBTIMR             new logical interval              306.
                                   12745          END   ,                                                         307.
                                   12747+*,<1                                                                    01-00538
 000BCA                            12748+$$$36F   DS    0H                                                       01-00552
 000BCA 6800 C058            00000 12749          LD    0,CPTWAF0               Restore the FPR's                 308.
 000BCE 6820 C060            00008 12750          LD    2,CPTWAF2                                                 309.
                                   12751          PEND                                                            310.
                  R:C  00000       12757+       $$USING @R12,12                                                  03-00188
                                   12758+*,|<R12 @CPTIME-72                                                      03-00198
                  R:A  00000       12762+       $$USING @R10,10                                                  03-00188
                                   12763+*,|<R10 CPTREAD                                                         03-00198
 000BD2                            12764+$$$35F   DS    0H                                                       02-00552
 000BD2 981F C008            00008 12765+         LM    R1,R15,8(WAR)           Restore entry registers          01-PEND
 000BD6 9680 C000      00000       12766+         OI    0(WAR),X'80'            Indicate return                  01-PEND
 000BDA 0B0E                       12767+         BSM   0,RAR                   Return to caller                 01-PEND
1TASKSERV (TASK00) (09:44) (22MAR04) IHAPSAE  - PSA Extension (ESAME)                                                       Page   86
0Current Usings:  (RTCB,R9) (CPTREAD,R10) (@CPTIME-72,R12)
0Loc    Object Code    Addr1 Addr2  Stmt Lv Lineno    Source Statement           (Hibal 5, Asmedit 3.3)  HLASM R4.0  2004/03/22 09.44
+___    ______ ____    _____ _____  ____ __ ______    ______ _________
0                                  12773 *******************************************************************      312.
                                   12774 *                                                                 *      313.
                                   12775 *   CPTEXIT - System asynchronous timer exit                      *      314.
                                   12776 *                                                                 *      315.
                                   12777 *                                                                 *      316.
                                   12778 *     Input - None                                                *      317.
                                   12779 *                                                                 *      318.
                                   12780 *    Output - RTCBTIMR updated                                    *      319.
                                   12781 *                                                                 *      320.
                                   12782 *                                                                 *      321.
                                   12783 *                                                                 *      322.
                                   12784 *                                                                 *      323.
                                   12785 *                                                                 *      324.
                                   12786 *                                                                 *      325.
                                   12787 *******************************************************************      326.
-
                                   12789 CPTEXIT  LABEL ,                                                         328.
 000BDC                            12790+CPTEXIT  DS    0H                                                       01-LABEL
 000BDC 90EC D00C            0000C 12791          STM   R14,R12,@R13+12                                           329.
 000BE0 18AF                       12792          LR    BR,R15                                                    330.
                                   12793          USING CPTEXIT,BR                                                331.
                  R:A  00BDC       12800+       $$USING CPTEXIT,BR                                               01-00188
                                   12801+*,|>R10 CPTEXIT                                                         01-00217
                                   12802          STIMER TASK,(R15),MICVL=CLOCKVAL                                332.
                                   12804+*        MACDATE = 08/19/88                                        @L1C
 000BE2 4110 A0A4            00C80 12805+         LA    1,CLOCKVAL                         LOAD ADDR TIME VALUE  01-STIME
 000BE6 18FF                       12806+         LR    15,R15                             LOAD EXIT ADDRESS     01-STIME
 000BE8 4100 00A0            000A0 12807+         LA    0,160(0,0)                        LOAD FLAG BYTE         01-STIME
 000BEC 8900 0018            00018 12808+         SLL   0,24(0)                           SHIFT TO HI-ORDER BYTE 01-STIME
 000BF0 0A2F                       12809+         SVC   47                                ISSUE STIMER SVC       01-STIME
 000BF2 5820 A0B4            00C90 12810          L     RA,CPTTCT               TCT POINTER                       333.
                                   12811          WITH  (TASKCT,RA),'L  RTCBR,TCTRTCB'  RTCB CHAIN                334.
                  R:2  00000       12820+       $$USING TASKCT,RA                                                03-00188
                                   12821+*,|>R2 TASKCT                                                           03-00217
                                   12824+*,>1                                                                    02-BEGIN
 000BF6 5890 2004            00004 12826+         L     RTCBR,TCTRTCB                                            02-GEN
                                   12829+*,<1                                                                    02-00538
                  R:2  00000       12833+       $$USING @R2,2                                                    03-00188
                                   12834+*,|<R2 TASKCT                                                           03-00198
 000BFA 5820 0010            00010 12835          L     RA,CVTPTR               CVT                               335.
                                   12836          WITH  (CVT,RA),'L  RA,CVTTCBP'  CURRENT TCB POINTER             336.
                  R:2  00000       12845+       $$USING CVT,RA                                                   03-00188
                                   12846+*,|>R2 CVT                                                              03-00217
                                   12849+*,>1                                                                    02-BEGIN
 000BFE 5820 2000            00000 12851+         L     RA,CVTTCBP                                               02-GEN
                                   12854+*,<1                                                                    02-00538
                  R:2  00000       12858+       $$USING @R2,2                                                    03-00188
                                   12859+*,|<R2 CVT                                                              03-00198
 000C02 5820 2004            00004 12860          L     RA,@RA+4                TCB OF CURRENT TASK               337.
                                   12861          WHILE (RTCBR,NZ),BEGIN                                          338.
 000C06                            12866+$$$37S   DS    0H                                                       04-LABEL
                                   12870+*JOIN
1TASKSERV (TASK00) (09:44) (22MAR04) IHAPSAE  - PSA Extension (ESAME)                                                       Page   87
0Current Usings:  (RTCB,R9) (CPTREAD,R10) (@CPTIME-72,R12)
0Loc    Object Code    Addr1 Addr2  Stmt Lv Lineno    Source Statement           (Hibal 5, Asmedit 3.3)  HLASM R4.0  2004/03/22 09.44
+___    ______ ____    _____ _____  ____ __ ______    ______ _________
0000C06 1299                       12871+         LTR   RTCBR,RTCBR                                              04-$REL
 000C08 4780 A040            00C1C 12872+$$$37B   BC    15-7,$$$37F                                              02-IF
 000C0C                            12875+$$$37T   DS    0H                                                       04-LABEL
                                   12876+*,>1                                                                    03-BEGIN
                                   12877          IF    (RA,EQ,RTCBTCB),EXIT    FOUND THIS TASK'S RTCB            339.
 000C0C 5920 9014            00014 12888+         C     RA,RTCBTCB                                               04-$CRS
 000C10 4780 A040            00C1C 12891+         BC    8,$$$37F                                                 02-$BC
 000C14                            12894+$$$39F   DS    0H                                                       03-LABEL
 000C14 5890 9008            00008 12897          L     RTCBR,RTCBNEXT          CHAIN ON                          340.
                                   12898          END   ,                                                         341.
                                   12900+*,<1                                                                    01-00538
 000C18 47F0 A02A            00C06 12901+         B     $$$37S              BRANCH TO LOOP START                 01-00550
 000C1C                            12902+$$$37F   DS    0H                                                       01-00552
                                   12903          IF    (RTCBR,NZ),BEGIN        RTCB FOUND                        342.
                                   12910+*JOIN
 000C1C 1299                       12911+         LTR   RTCBR,RTCBR                                              03-$REL
 000C1E 4780 A05E            00C3A 12912+$$$40B   BC    15-7,$$$40F                                              01-IF
 000C22                            12915+$$$40T   DS    0H                                                       03-LABEL
                                   12916+*,>1                                                                    02-BEGIN
 000C22 9823 9058            00058 12917          LM    RA,RB,RTCBTIMR          TOTAL TIME SET                    343.
                                   12918          ADL   RA,CLOCKVAL             INCLUDE THIS INCREMENT            344.
 000C26 5E30 A0A8            00C84 12926+         AL    RA+1,CLOCKVAL+4                                          05-GEN
 000C2A 47C0 A056            00C32 12927+$$$41B   BC    15-3,$$$41F                                              02-IF
 000C2E                            12930+$$$41T   DS    0H                                                       04-LABEL
                                   12931+*,>2                                                                    03-BEGIN
 000C2E 5E20 AB6C            01748 12933+         AL    RA,=A(1)                                                 03-GEN
                                   12936+*,<2                                                                    03-00538
 000C32                            12937+$$$41F   DS    0H                                                       03-00552
 000C32 5E20 A0A4            00C80 12938+         AL    RA,CLOCKVAL   ADD HIGH ORDER                             01-ADL
 000C36 9023 9058            00058 12939          STM   RA,RB,RTCBTIMR                                            345.
                                   12940          END   ,                                                         346.
                                   12942+*,<1                                                                    01-00538
 000C3A                            12943+$$$40F   DS    0H                                                       01-00552
 000C3A 98EC D00C            0000C 12944          LM    R14,R12,@R13+12                                           347.
 000C3E 07FE                       12945          BR    R14                                                       348.
                                   12946          DROP  BR                                                        349.
                  R:A  00000       12951+       $$USING @R10,10                                                  02-00188
                                   12952+*,|<R10 CPTEXIT                                                         02-00198
1TASKSERV (TASK00) (09:44) (22MAR04) IHAPSAE  - PSA Extension (ESAME)                                                       Page   88
0Current Usings:  (RTCB,R9) (CPTREAD,R10) (@CPTIME-72,R12)
0Loc    Object Code    Addr1 Addr2  Stmt Lv Lineno    Source Statement           (Hibal 5, Asmedit 3.3)  HLASM R4.0  2004/03/22 09.44
+___    ______ ____    _____ _____  ____ __ ______    ______ _________
0                                  12954 *******************************************************************      351.
                                   12955 *                                                                 *      352.
                                   12956 *   CPTCAN - Cancel CPU timer for a task                          *      353.
                                   12957 *                                                                 *      354.
                                   12958 *                                                                 *      355.
                                   12959 *     Input - None                                                *      356.
                                   12960 *                                                                 *      357.
                                   12961 *    Output - CPU time clocks updated                             *      358.
                                   12962 *                                                                 *      359.
                                   12963 *                                                                 *      360.
                                   12964 *                                                                 *      361.
                                   12965 *                                                                 *      362.
                                   12966 *                                                                 *      363.
                                   12967 *                                                                 *      364.
                                   12968 *******************************************************************      365.
-
                                   12970 CPTCAN   PROC  SCOPE=GLOBAL                                              367.
 000C40                            12973+$$$42S       DS 0H                                                      02-BEGIN
                                   12974+         ENTRY CPTCAN                                                   01-PROC
 000C40                            12975+         DS    0H                      align on a halfword              01-PROC
 000C40 C3D7E3C3C1D54040           12976+         DC    CL8'CPTCAN'             Routine Name                     01-PROC
 000C48 0000                       12977+         DC    AL2(0)                  Length of the parm area          01-PROC
 000C4A 0000                       12978+         DC    AL2(0)                  Length of the local work area    01-PROC
 000C4C 900F D004            00004 12979+CPTCAN   STM   R0,R15,4(SPR)           Save the entry registers         01-PROC
 000C50 18AF                       12980+         LR    BR,EPAR                 Get the entry point address      01-PROC
                  R:A  00C4C       12990+       $$USING CPTCAN,BR                                                04-00188
                                   12991+*,|>R10 CPTCAN                                                          04-00217
 000C52 50D0 C000            00000 12994+         ST    SPR,0(,WAR)             Link this to the previous        01-PROC
 000C56 18CD                       12995+         LR    WAR,SPR                 Update the work area pointer     01-PROC
 000C58 9680 C000      00000       12996+         OI    0(WAR),X'80'            Mark this as last in chain       01-PROC
 000C5C 41D0 C048            00048 12997+         LA    SPR,72(,WAR)                                             01-PROC
                                   12998          PSET  @CPTIME                                                   368.
                  R:D FFFFB8       13007+       $$USING @CPTIME-72,SPR                                           02-00188
                                   13008+*,|>R13 @CPTIME-72                                                      02-00217
 000C60 D70F D048 D048 00000 00000 13015+         XC    @CPTIME(16),@CPTIME                                      02-CLEAR
                                   13016          ACALL CPTREAD                 FIRST UPDATE                      369.
                                   13017+*JOIN
 000C66 58F0 AB00            0174C 13021+         L     EPAR,=A(CPTREAD)                                         02-$L
 000C6A 0DEF                       13022+         BASR  RAR,EPAR                                                 01-ACALL
                                   13023          TTIMER CANCEL                  THEN CANCEL                      370.
                                   13024+*        MACDATE  02/26/90                                         @P1C
 000C6C 4110 0001            00001 13025+         LA    1,1(0,0)                     LOAD 1 TO SET FLAG BYTE     01-TTIME
 000C70 0A2E                       13026+         SVC   46                           ISSUE TTIMER                01-TTIME
                                   13027          PEND                                                            371.
                  R:A  00000       13033+       $$USING @R10,10                                                  03-00188
                                   13034+*,|<R10 CPTCAN                                                          03-00198
 000C72                            13035+$$$42F   DS    0H                                                       02-00552
 000C72 981F C008            00008 13036+         LM    R1,R15,8(WAR)           Restore entry registers          01-PEND
 000C76 9680 C000      00000       13037+         OI    0(WAR),X'80'            Indicate return                  01-PEND
 000C7A 0B0E                       13038+         BSM   0,RAR                   Return to caller                 01-PEND
                  R:D  00000       13044+       $$USING @R13,13                                                  03-00188
                                   13045+*,|<R13 @CPTIME-72                                                      03-00198
1TASKSERV (TASK00) (09:44) (22MAR04) IHAPSAE  - PSA Extension (ESAME)                                                       Page   89
0Current Usings:  (RTCB,R9) (CPTREAD,R10) (@CPTIME-72,R12)
0Loc    Object Code    Addr1 Addr2  Stmt Lv Lineno    Source Statement           (Hibal 5, Asmedit 3.3)  HLASM R4.0  2004/03/22 09.44
+___    ______ ____    _____ _____  ____ __ ______    ______ _________
0000C7C 00000000
 000C80 0001356000000000           13047 CLOCKVAL DC    0D'0',A(22*60*60,0)     APPROXIMATELY 23 HOURS            373.
 000C88 00008CA000000000           13048 MINCLKVL DC    0D'0',A(10*60*60,0)     APPROXIMATELY 10.2 HOURS          374.
 000C90 00000000                   13049 CPTTCT   DC    A(0)                    TCT POINTER                       375.
1TASKSERV (TASK00) (09:44) (22MAR04) IHAPSAE  - PSA Extension (ESAME)                                                       Page   90
0Current Usings:  (RTCB,R9) (CPTREAD,R10) (@CPTIME-72,R12)
0Loc    Object Code    Addr1 Addr2  Stmt Lv Lineno    Source Statement           (Hibal 5, Asmedit 3.3)  HLASM R4.0  2004/03/22 09.44
+___    ______ ____    _____ _____  ____ __ ______    ______ _________
0                                  13051 *******************************************************************      377.
                                   13052 *                                                                 *      378.
                                   13053 *    POOLGET -- Obtain memory from MVS                            *      379.
                                   13054 *                                                                 *      380.
                                   13055 *                                                                 *      381.
                                   13056 *     Input - @MEMORY                                             *      382.
                                   13057 *                                                                 *      383.
                                   13058 *    Output - @MEMORY                                             *      384.
                                   13059 *             Memory area is cleared                              *      385.
                                   13060 *                                                                 *      386.
                                   13061 *                                                                 *      387.
                                   13062 *                                                                 *      388.
                                   13063 *                                                                 *      389.
                                   13064 *                                                                 *      390.
                                   13065 *******************************************************************      391.
-                                  13067 POOLGET  PROC  @MEMORY,SCOPE=GLOBAL                                      393.
 000C94                            13070+$$$43S       DS 0H                                                      02-BEGIN
                                   13071+         ENTRY POOLGET                                                  01-PROC
 000C94                            13072+         DS    0H                      align on a halfword              01-PROC
 000C94 D7D6D6D3C7C5E340           13073+         DC    CL8'POOLGET'            Routine Name                     01-PROC
 000C9C 0010                       13074+         DC    AL2(16)                 Length of the parm area          01-PROC
 000C9E 0000                       13075+         DC    AL2(0)                  Length of the local work area    01-PROC
 000CA0 900F D004            00004 13076+POOLGET  STM   R0,R15,4(SPR)           Save the entry registers         01-PROC
 000CA4 18AF                       13077+         LR    BR,EPAR                 Get the entry point address      01-PROC
                  R:A  00CA0       13087+       $$USING POOLGET,BR                                               04-00188
                                   13088+*,|>R10 POOLGET                                                         04-00217
 000CA6 50D0 C000            00000 13091+         ST    SPR,0(,WAR)             Link this to the previous        01-PROC
 000CAA 18CD                       13092+         LR    WAR,SPR                 Update the work area pointer     01-PROC
 000CAC 9680 C000      00000       13093+         OI    0(WAR),X'80'            Mark this as last in chain       01-PROC
                  R:C FFFFB8       13103+       $$USING @MEMORY-72,WAR                                           04-00188
                                   13104+*,|>R12 @MEMORY-72                                                      04-00217
 000CB0 41D0 C058            00058 13107+         LA    SPR,88(,WAR)                                             01-PROC
                                   13108          CLEAR @MEMDATA                                                  394.
 000CB4 9200 C048      00000       13114+         MVI   @MEMDATA,0                                               01-CLEAR
                                   13115          CLEAR @MEMKEY                                                   395.
 000CB8 9200 C049      00001       13121+         MVI   @MEMKEY,0                                                01-CLEAR
                                   13122          SET   (MEMCUNC,EQ)            UNCONDITIONAL REQUEST TYPE        396.
 000CBC 9202 C04B      00003       13128+         MVI   MEMCUNC,2                                                01-SET
                                   13129          IF    ~MEMTSYS,BEGIN          ORVYL SUBPOOL                     397.
 000CC0 9180 C04A      00002       13138+         TM    MEMTSYS,128                                              03-$REL
 000CC4 4710 A054            00CF4 13139+$$$44B   BC    15-14,$$$44F                                             01-IF
 000CC8                            13142+$$$44T   DS    0H                                                       03-LABEL
                                   13143+*,>1                                                                    02-BEGIN
                                   13144          IF    MEMTFIX+MEMTPAGE,'SET  MEMCPGB'  SET PAGE BOUNDARY        398.
 000CC8                            13155+  DS 0SL2(MEMTPAGE-MEMTFIX,MEMTFIX-MEMTPAGE)   FLAGS NOT IN SAME BYTE   04-$BV
 000CC8 9106 C04A      00002       13156+         TM    MEMTFIX,6                                                03-$REL
 000CCC 4780 A034            00CD4 13157+$$$45B   BC    15-7,$$$45F                                              01-IF
 000CD0                            13160+$$$45T   DS    0H                                                       03-LABEL
                                   13161+*,>2                                                                    02-BEGIN
 000CD0 9604 C04B      00003       13168+         OI    MEMCPGB,4                        Do set                  03-SET
                                   13171+*,<2                                                                    02-00538
 000CD4                            13172+$$$45F   DS    0H                                                       02-00552
1TASKSERV (TASK00) (09:44) (22MAR04) IHAPSAE  - PSA Extension (ESAME)                                                       Page   91
0Current Usings:  (RTCB,R9) (CPTREAD,R10) (@CPTIME-72,R12)
0Loc    Object Code    Addr1 Addr2  Stmt Lv Lineno    Source Statement           (Hibal 5, Asmedit 3.3)  HLASM R4.0  2004/03/22 09.44
+___    ______ ____    _____ _____  ____ __ ______    ______ _________
0                                  13173          IF    MEMTA16M,'SET  MEMCANYV*MEMCANYR'   LOC=ANY,ANY           399.
 000CD4 9110 C04A      00002       13182+         TM    MEMTA16M,16                                              03-$REL
 000CD8 47E0 A040            00CE0 13183+$$$46B   BC    15-1,$$$46F                                              01-IF
 000CDC                            13186+$$$46T   DS    0H                                                       03-LABEL
                                   13187+*,>2                                                                    02-BEGIN
 000CDC                            13196+  DS 0SL2(MEMCANYR-MEMCANYV,MEMCANYV-MEMCANYR) FLAGS NOT IN SAME BYTE   04-$BV
 000CDC 9670 C04B      00003       13197+         OI    MEMCANYV,112                     Do set                  03-SET
                                   13200+*,<2                                                                    02-00538
 000CE0                            13201+$$$46F   DS    0H                                                       02-00552
                                   13202          ELSE  'SET  MEMCBLOV'         SET LOC=BELOW                     400.
 000CE0                            13203+  DC  0S($$$46F-*)   CAUSES ERROR IF ELSE DOESN'T FOLLOW THEN CLAUSE    01-ELSE
 000CE0                00CE0 00CDA 13204+         ORG   $$$46B+2                                                 01-ELSE
 000CDA A044                       13205+         DC    S($$$47E)                                                01-ELSE
 000CDC                00CDC 00CE0 13206+         ORG                                                            01-ELSE
 000CE0 47F0 A048            00CE8 13207+         B     $$$47F                                                   01-ELSE
 000CE4                            13211+$$$47E   DS    0H                                                       03-LABEL
                                   13212+*,>2                                                                    02-BEGIN
 000CE4 9610 C04B      00003       13219+         OI    MEMCBLOV,16                      Do set                  03-SET
                                   13222+*,<2                                                                    02-00538
 000CE8                            13223+$$$47F   DS    0H                                                       02-00552
                                   13224          IF    (@MEMPOOL,Z),'SET  MEMTDEF'   DEFAULT POOL                401.
 000CE8 9500 C04A      00002       13234+         CLI   @MEMPOOL,0                                               03-$REL
 000CEC 4770 A054            00CF4 13235+$$$48B   BC    15-8,$$$48F                                              01-IF
 000CF0                            13238+$$$48T   DS    0H                                                       03-LABEL
                                   13239+*,>2                                                                    02-BEGIN
 000CF0 9601 C04A      00002       13246+         OI    MEMTDEF,1                        Do set                  03-SET
                                   13249+*,<2                                                                    02-00538
 000CF4                            13250+$$$48F   DS    0H                                                       02-00552
                                   13251          END   ,                                                         402.
                                   13253+*,<1                                                                    01-00538
 000CF4                            13254+$$$44F   DS    0H                                                       01-00552
 000CF4 98F0 C048            00000 13255          LM    R15,R0,@MEMDATA         REQUEST FLAGS AND LENGTH          403.
                                   13256          CLEAR R1                                                        404.
 000CF8 1B11                       13259+         SR    R1,R1                                                    01-CLEAR
 000CFA 0A78                       13260          SVC   120                     * GETMAIN RU,LV=(0),SP=(15)       405.
 000CFC 5010 C050            00008 13261          ST    R1,@MEMLOC              SAVE LOCATION                     406.
                                   13262          IF    ~MEMTSYS,BEGIN          ORVYL SUBPOOL                     407.
 000D00 9180 C04A      00002       13271+         TM    MEMTSYS,128                                              03-$REL
 000D04 4710 A090            00D30 13272+$$$49B   BC    15-14,$$$49F                                             01-IF
 000D08                            13275+$$$49T   DS    0H                                                       03-LABEL
                                   13276+*,>1                                                                    02-BEGIN
                                   13277          IF    ~MEMTFIX,EXIT           NO PAGE FIXING                    408.
 000D08 9104 C04A      00002       13286+         TM    MEMTFIX,4                                                03-$REL
 000D0C 47E0 A090            00D30 13289+         BC    14,$$$49F                                                02-$BC
 000D10                            13292+$$$50F   DS    0H                                                       03-LABEL
 000D10 5810 C050            00008 13295          L     R1,@MEMLOC              LOCATION                          409.
 000D14 58F0 C04C            00004 13296          L     R15,@MEMLEN              LENGTH                           410.
 000D18 1AF1                       13297          AR    R15,R1                    END ADDRESS (PLUS 1)            411.
                                   13298          DECR  R15                                                       412.
 000D1A 06F0                       13299+         BCTR  R15,0                                                    01-DECR
                                   13300          PGSER R,FIX,A=(1),EA=(15),ECB=0                                 413.
 000D1C 47F0 A084            00D24 13301+         B     IHB3876A         GENERATE BRANCH AROUND CONSTANT         01-PGSER
 000D20 7FFFFFFF                   13302+IHB3876Z DC    A(X'7FFFFFFF')   CONSTANT TO TURN OFF BIT0 IN A REG      01-PGSER
 000D24                            13303+IHB3876A DS    0H               LABEL FOR TARGET OF BRANCH AROUND      X01-PGSER
1TASKSERV (TASK00) (09:44) (22MAR04) IHAPSAE  - PSA Extension (ESAME)                                                       Page   92
0Current Usings:  (RTCB,R9) (CPTREAD,R10) (@CPTIME-72,R12)
0Loc    Object Code    Addr1 Addr2  Stmt Lv Lineno    Source Statement           (Hibal 5, Asmedit 3.3)  HLASM R4.0  2004/03/22 09.44
+___    ______ ____    _____ _____  ____ __ ______    ______ _________
0                                       +                                  CONSTANT
 000D24 1F00                       13304+         SLR   0,0              NO ECB --- FORCE REG 0 TO EQUAL ZERO    01-PGSER
 000D26 5410 A080            00D20 13305+         N     1,IHB3876Z       FORCE BIT0 TO ZERO                      01-PGSER
 000D2A 41E0 010C            0010C 13306+         LA    14,X'0100'+B'00001100'(0,0)                             X01-PGSER
                                        +                                   SET FUNCTION CODE AND OPTION FLAGS
 000D2E 0A8A                       13307+         SVC   138              INVOKE PAGE SERVICE PROCESSOR SVC       01-PGSER
                                   13308          END   ,                                                         414.
                                   13310+*,<1                                                                    01-00538
 000D30                            13311+$$$49F   DS    0H                                                       01-00552
 000D30 5800 C050            00008 13312          L     R0,@MEMLOC              CLEAR                             415.
 000D34 5810 C04C            00004 13313          L     R1,@MEMLEN                THE                             416.
                                   13314          CLEAR RB                        AREA                            417.
 000D38 1B33                       13317+         SR    RB,RB                                                    01-CLEAR
 000D3A 0E02                       13318          MVCL  R0,RA                                                     418.
 000D3C 5800 C050            00008 13319          L     RVR,@MEMLOC             RETURN LOC                        419.
                                   13320          PEND  ,                                                         420.
                  R:C  00000       13326+       $$USING @R12,12                                                  03-00188
                                   13327+*,|<R12 @MEMORY-72                                                      03-00198
                  R:A  00000       13331+       $$USING @R10,10                                                  03-00188
                                   13332+*,|<R10 POOLGET                                                         03-00198
 000D40                            13333+$$$43F   DS    0H                                                       02-00552
 000D40 981F C008            00008 13334+         LM    R1,R15,8(WAR)           Restore entry registers          01-PEND
 000D44 9680 C000      00000       13335+         OI    0(WAR),X'80'            Indicate return                  01-PEND
 000D48 0B0E                       13336+         BSM   0,RAR                   Return to caller                 01-PEND
1TASKSERV (TASK00) (09:44) (22MAR04) IHAPSAE  - PSA Extension (ESAME)                                                       Page   93
0Current Usings:  (RTCB,R9) (CPTREAD,R10) (@CPTIME-72,R12)
0Loc    Object Code    Addr1 Addr2  Stmt Lv Lineno    Source Statement           (Hibal 5, Asmedit 3.3)  HLASM R4.0  2004/03/22 09.44
+___    ______ ____    _____ _____  ____ __ ______    ______ _________
0                                  13342 *******************************************************************      422.
                                   13343 *                                                                 *      423.
                                   13344 *    POOLFREE -- Return memory to MVS                             *      424.
                                   13345 *                                                                 *      425.
                                   13346 *                                                                 *      426.
                                   13347 *     Input - @MEMORY                                             *      427.
                                   13348 *                                                                 *      428.
                                   13349 *    Output -                                                     *      429.
                                   13350 *                                                                 *      430.
                                   13351 *                                                                 *      431.
                                   13352 *                                                                 *      432.
                                   13353 *                                                                 *      433.
                                   13354 *                                                                 *      434.
                                   13355 *                                                                 *      435.
                                   13356 *******************************************************************      436.
-
                                   13358 POOLFREE PROC  @MEMORY,SCOPE=GLOBAL                                      438.
 000D4A                            13361+$$$51S       DS 0H                                                      02-BEGIN
                                   13362+         ENTRY POOLFREE                                                 01-PROC
 000D4A                            13363+         DS    0H                      align on a halfword              01-PROC
 000D4A D7D6D6D3C6D9C5C5           13364+         DC    CL8'POOLFREE'           Routine Name                     01-PROC
 000D52 0010                       13365+         DC    AL2(16)                 Length of the parm area          01-PROC
 000D54 0000                       13366+         DC    AL2(0)                  Length of the local work area    01-PROC
 000D56 900F D004            00004 13367+POOLFREE STM   R0,R15,4(SPR)           Save the entry registers         01-PROC
 000D5A 18AF                       13368+         LR    BR,EPAR                 Get the entry point address      01-PROC
                  R:A  00D56       13378+       $$USING POOLFREE,BR                                              04-00188
                                   13379+*,|>R10 POOLFREE                                                        04-00217
 000D5C 50D0 C000            00000 13382+         ST    SPR,0(,WAR)             Link this to the previous        01-PROC
 000D60 18CD                       13383+         LR    WAR,SPR                 Update the work area pointer     01-PROC
 000D62 9680 C000      00000       13384+         OI    0(WAR),X'80'            Mark this as last in chain       01-PROC
                  R:C FFFFB8       13394+       $$USING @MEMORY-72,WAR                                           04-00188
                                   13395+*,|>R12 @MEMORY-72                                                      04-00217
 000D66 41D0 C058            00058 13398+         LA    SPR,88(,WAR)                                             01-PROC
                                   13399          IF    ~MEMTSYS,BEGIN          NON-SYSTEM SUBPOOL                439.
 000D6A 9180 C04A      00002       13408+         TM    MEMTSYS,128                                              03-$REL
 000D6E 4710 A046            00D9C 13409+$$$52B   BC    15-14,$$$52F                                             01-IF
 000D72                            13412+$$$52T   DS    0H                                                       03-LABEL
                                   13413+*,>1                                                                    02-BEGIN
                                   13414          IF    ~MEMTFIX,EXIT           NO PAGE UN-FIXING                 440.
 000D72 9104 C04A      00002       13423+         TM    MEMTFIX,4                                                03-$REL
 000D76 47E0 A046            00D9C 13426+         BC    14,$$$52F                                                02-$BC
 000D7A                            13429+$$$53F   DS    0H                                                       03-LABEL
 000D7A 5810 C050            00008 13432          L     R1,@MEMLOC              LOCATION                          441.
 000D7E 58F0 C04C            00004 13433          L     R15,@MEMLEN              LENGTH                           442.
 000D82 1AF1                       13434          AR    R15,R1                    END ADDRESS (PLUS 1)            443.
                                   13435          DECR  R15                                                       444.
 000D84 06F0                       13436+         BCTR  R15,0                                                    01-DECR
                                   13437          PGSER R,FREE,A=(1),EA=(15)                                      445.
 000D86 47F0 A03A            00D90 13438+         B     IHB3947A         GENERATE BRANCH AROUND CONSTANT         01-PGSER
 000D8A 0000                            +
 000D8C 7FFFFFFF                   13439+IHB3947Z DC    A(X'7FFFFFFF')   CONSTANT TO TURN OFF BIT0 IN A REG      01-PGSER
 000D90                            13440+IHB3947A DS    0H               LABEL FOR TARGET OF BRANCH AROUND      X01-PGSER
1TASKSERV (TASK00) (09:44) (22MAR04) IHAPSAE  - PSA Extension (ESAME)                                                       Page   94
0Current Usings:  (RTCB,R9) (CPTREAD,R10) (@CPTIME-72,R12)
0Loc    Object Code    Addr1 Addr2  Stmt Lv Lineno    Source Statement           (Hibal 5, Asmedit 3.3)  HLASM R4.0  2004/03/22 09.44
+___    ______ ____    _____ _____  ____ __ ______    ______ _________
0                                       +                                  CONSTANT
 000D90 1F00                       13441+         SLR   0,0              NO ECB --- FORCE REG 0 TO EQUAL ZERO    01-PGSER
 000D92 5410 A036            00D8C 13442+         N     1,IHB3947Z       FORCE BIT0 TO ZERO                      01-PGSER
 000D96 41E0 0200            00200 13443+         LA    14,X'0200'+B'00000000'(0,0)                             X01-PGSER
                                        +                                   SET FUNCTION CODE AND OPTION FLAGS
 000D9A 0A8A                       13444+         SVC   138              INVOKE PAGE SERVICE PROCESSOR SVC       01-PGSER
                                   13445          END   ,                                                         446.
                                   13447+*,<1                                                                    01-00538
 000D9C                            13448+$$$52F   DS    0H                                                       01-00552
                                   13449          IF    (@MEMPOOL,Z),'SET  MEMTDEF'   DEFAULT POOL                447.
 000D9C 9500 C04A      00002       13459+         CLI   @MEMPOOL,0                                               03-$REL
 000DA0 4770 A052            00DA8 13460+$$$54B   BC    15-8,$$$54F                                              01-IF
 000DA4                            13463+$$$54T   DS    0H                                                       03-LABEL
                                   13464+*,>1                                                                    02-BEGIN
 000DA4 9601 C04A      00002       13471+         OI    MEMTDEF,1                        Do set                  03-SET
                                   13474+*,<1                                                                    02-00538
 000DA8                            13475+$$$54F   DS    0H                                                       02-00552
                                   13476          SET   (MEMCUNC+MEMCFREE,EQ)   UNCONDITIONAL FREEMAIN            448.
 000DA8                            13484+  DS 0SL2(MEMCFREE-MEMCUNC,MEMCUNC-MEMCFREE)   FLAGS NOT IN SAME BYTE   02-$BV
 000DA8 9203 C04B      00003       13485+         MVI   MEMCUNC,3                                                01-SET
                                   13486          CLEAR @MEMDATA                                                  449.
 000DAC 9200 C048      00000       13492+         MVI   @MEMDATA,0                                               01-CLEAR
                                   13493          CLEAR @MEMKEY                                                   450.
 000DB0 9200 C049      00001       13499+         MVI   @MEMKEY,0                                                01-CLEAR
 000DB4 98F1 C048            00000 13500          LM    R15,R1,@MEMDATA         PARMS, LENGTH AND LOCATION        451.
 000DB8 0A78                       13501          SVC   120                     FREEMAIN RU,...                   452.
                                   13502          PEND                                                            453.
                  R:C  00000       13508+       $$USING @R12,12                                                  03-00188
                                   13509+*,|<R12 @MEMORY-72                                                      03-00198
                  R:A  00000       13513+       $$USING @R10,10                                                  03-00188
                                   13514+*,|<R10 POOLFREE                                                        03-00198
 000DBA                            13515+$$$51F   DS    0H                                                       02-00552
 000DBA 981F C008            00008 13516+         LM    R1,R15,8(WAR)           Restore entry registers          01-PEND
 000DBE 9680 C000      00000       13517+         OI    0(WAR),X'80'            Indicate return                  01-PEND
 000DC2 0B0E                       13518+         BSM   0,RAR                   Return to caller                 01-PEND
1TASKSERV (TASK00) (09:44) (22MAR04) IHAPSAE  - PSA Extension (ESAME)                                                       Page   95
0Current Usings:  (RTCB,R9) (CPTREAD,R10) (@CPTIME-72,R12)
0Loc    Object Code    Addr1 Addr2  Stmt Lv Lineno    Source Statement           (Hibal 5, Asmedit 3.3)  HLASM R4.0  2004/03/22 09.44
+___    ______ ____    _____ _____  ____ __ ______    ______ _________
0                                  13524 *******************************************************************      455.
                                   13525 *                                                                 *      456.
                                   13526 *    POOLDEF -- Obtain list of shared MVS subpools                *      457.
                                   13527 *                                                                 *      458.
                                   13528 *                                                                 *      459.
                                   13529 *     Input - NONE                                                *      460.
                                   13530 *                                                                 *      461.
                                   13531 *    Output - Pointer to subpool list in RVR                      *      462.
                                   13532 *                                                                 *      463.
                                   13533 *                                                                 *      464.
                                   13534 *                                                                 *      465.
                                   13535 *                                                                 *      466.
                                   13536 *                                                                 *      467.
                                   13537 *                                                                 *      468.
                                   13538 *******************************************************************      469.
-
                                   13540 POOLDEF  PROC  SCOPE=GLOBAL                                              471.
 000DC4                            13543+$$$55S       DS 0H                                                      02-BEGIN
                                   13544+         ENTRY POOLDEF                                                  01-PROC
 000DC4                            13545+         DS    0H                      align on a halfword              01-PROC
 000DC4 D7D6D6D3C4C5C640           13546+         DC    CL8'POOLDEF'            Routine Name                     01-PROC
 000DCC 0000                       13547+         DC    AL2(0)                  Length of the parm area          01-PROC
 000DCE 0000                       13548+         DC    AL2(0)                  Length of the local work area    01-PROC
 000DD0 900F D004            00004 13549+POOLDEF  STM   R0,R15,4(SPR)           Save the entry registers         01-PROC
 000DD4 18AF                       13550+         LR    BR,EPAR                 Get the entry point address      01-PROC
                  R:A  00DD0       13560+       $$USING POOLDEF,BR                                               04-00188
                                   13561+*,|>R10 POOLDEF                                                         04-00217
 000DD6 50D0 C000            00000 13564+         ST    SPR,0(,WAR)             Link this to the previous        01-PROC
 000DDA 18CD                       13565+         LR    WAR,SPR                 Update the work area pointer     01-PROC
 000DDC 9680 C000      00000       13566+         OI    0(WAR),X'80'            Mark this as last in chain       01-PROC
 000DE0 41D0 C048            00048 13567+         LA    SPR,72(,WAR)                                             01-PROC
 000DE4 4100 A022            00DF2 13568          LA    RVR,PDPOOLS                                               472.
                                   13569          PEND                                                            473.
                  R:A  00000       13575+       $$USING @R10,10                                                  03-00188
                                   13576+*,|<R10 POOLDEF                                                         03-00198
 000DE8                            13577+$$$55F   DS    0H                                                       02-00552
 000DE8 981F C008            00008 13578+         LM    R1,R15,8(WAR)           Restore entry registers          01-PEND
 000DEC 9680 C000      00000       13579+         OI    0(WAR),X'80'            Indicate return                  01-PEND
 000DF0 0B0E                       13580+         BSM   0,RAR                   Return to caller                 01-PEND
-000DF2 08080A0C0E181A1C           13586 PDPOOLS  DC    AL1(8),AL1(8,10,12,14,24,26,28,30)                        475.
1TASKSERV (TASK00) (09:44) (22MAR04) IHAPSAE  - PSA Extension (ESAME)                                                       Page   96
0Current Usings:  (RTCB,R9) (CPTREAD,R10) (@CPTIME-72,R12)
0Loc    Object Code    Addr1 Addr2  Stmt Lv Lineno    Source Statement           (Hibal 5, Asmedit 3.3)  HLASM R4.0  2004/03/22 09.44
+___    ______ ____    _____ _____  ____ __ ______    ______ _________
0                                  13588 *******************************************************************      477.
                                   13589 *                                                                 *      478.
                                   13590 *    PAGEFIX -- Page fix MVS memory                               *      479.
                                   13591 *                                                                 *      480.
                                   13592 *                                                                 *      481.
                                   13593 *     Input -                                                     *      482.
                                   13594 *                                                                 *      483.
                                   13595 *    Output -                                                     *      484.
                                   13596 *                                                                 *      485.
                                   13597 *                                                                 *      486.
                                   13598 *                                                                 *      487.
                                   13599 *                                                                 *      488.
                                   13600 *                                                                 *      489.
                                   13601 *                                                                 *      490.
                                   13602 *******************************************************************      491.
-
                                   13604 PAGEFIX  PROC  @FIXPARM,SCOPE=GLOBAL                                     493.
 000DFC                            13607+$$$56S       DS 0H                                                      02-BEGIN
                                   13608+         ENTRY PAGEFIX                                                  01-PROC
 000DFC                            13609+         DS    0H                      align on a halfword              01-PROC
 000DFC D7C1C7C5C6C9E740           13610+         DC    CL8'PAGEFIX'            Routine Name                     01-PROC
 000E04 0010                       13611+         DC    AL2(16)                 Length of the parm area          01-PROC
 000E06 0000                       13612+         DC    AL2(0)                  Length of the local work area    01-PROC
 000E08 900F D004            00004 13613+PAGEFIX  STM   R0,R15,4(SPR)           Save the entry registers         01-PROC
 000E0C 18AF                       13614+         LR    BR,EPAR                 Get the entry point address      01-PROC
                  R:A  00E08       13624+       $$USING PAGEFIX,BR                                               04-00188
                                   13625+*,|>R10 PAGEFIX                                                         04-00217
 000E0E 50D0 C000            00000 13628+         ST    SPR,0(,WAR)             Link this to the previous        01-PROC
 000E12 18CD                       13629+         LR    WAR,SPR                 Update the work area pointer     01-PROC
 000E14 9680 C000      00000       13630+         OI    0(WAR),X'80'            Mark this as last in chain       01-PROC
                  R:C FFFFB8       13640+       $$USING @FIXPARM-72,WAR                                          04-00188
                                   13641+*,|>R12 @FIXPARM-72                                                     04-00217
 000E18 41D0 C058            00058 13644+         LA    SPR,88(,WAR)                                             01-PROC
 000E1C 5860 9004            00004 13645          L     RX,RTCBCBAT             Get the CBAT pointer              494.
                                   13646          WITH  (CBAT,RX),'L RX,CBATTASK'   Get the TCT pointer           495.
                  R:6  00000       13655+       $$USING CBAT,RX                                                  03-00188
                                   13656+*,|>R6 CBAT                                                             03-00217
                                   13659+*,>1                                                                    02-BEGIN
 000E20 5860 6004            00004 13661+         L     RX,CBATTASK                                              02-GEN
                                   13664+*,<1                                                                    02-00538
                  R:6  00000       13668+       $$USING @R6,6                                                    03-00188
                                   13669+*,|<R6 CBAT                                                             03-00198
                                   13670          WITH  (TASKCT,RX)                 Address the TCT               496.
                  R:6  00000       13679+       $$USING TASKCT,RX                                                03-00188
                                   13680+*,|>R6 TASKCT                                                           03-00217
                                   13683          MODESET EXTKEY=ZERO,SAVEKEY=(2) Get us to key zero              497.
                                   13684+* MACDATE Y-3 81030                                                @D1A
 000E24 B20B 0000                  13685+         IPK   0(0)               SAVE CURRENT PSW KEY                  01-MODES
 000E28 B20A 0000      00000       13686+         SPKA  0(0)                SET PSW KEY                          01-MODES
 000E2C 1872                       13687          LR    RY,R2                   Copy the current key              498.
 000E2E 5840 600C            0000C 13688          L     R4,TCTMTTCB             Address of the master TCB         499.
 000E32 5810 C048            00000 13689          L     R1,@FIXLOC                                                500.
1TASKSERV (TASK00) (09:44) (22MAR04) IHAPSAE  - PSA Extension (ESAME)                                                       Page   97
0Current Usings:  (RTCB,R9) (CPTREAD,R10) (@CPTIME-72,R12)
0Loc    Object Code    Addr1 Addr2  Stmt Lv Lineno    Source Statement           (Hibal 5, Asmedit 3.3)  HLASM R4.0  2004/03/22 09.44
+___    ______ ____    _____ _____  ____ __ ______    ______ _________
0000E36 5820 C04C            00004 13690          L     R2,@FIXLEN                                                501.
 000E3A 1A21                       13691          AR    R2,R1                   ENDING ADDRESS                    502.
                                   13692          DECR  R2                                                        503.
 000E3C 0620                       13693+         BCTR  R2,0                                                     01-DECR
 000E3E 5410 A948            01750 13694          N     R1,=X'7FFFFFFF'         Clear the high bit                504.
 000E42 5420 A948            01750 13695          N     R2,=X'7FFFFFFF'         And here too                      505.
                                   13696          PGSER R,FIX,A=(1),EA=(2),ECB=0,TCB=(4),BRANCH=Y                 506.
 000E46 47F0 A048            00E50 13697+         B     IHB4082A         GENERATE BRANCH AROUND CONSTANT         01-PGSER
 000E4A 0000                            +
 000E4C 7FFFFFFF                   13698+IHB4082Z DC    A(X'7FFFFFFF')   CONSTANT TO TURN OFF BIT0 IN A REG      01-PGSER
 000E50                            13699+IHB4082A DS    0H               LABEL FOR TARGET OF BRANCH AROUND      X01-PGSER
                                        +                                  CONSTANT
 000E50 1F00                       13700+         SLR   0,0              NO ECB --- FORCE REG 0 TO EQUAL ZERO    01-PGSER
 000E52 5410 A044            00E4C 13701+         N     1,IHB4082Z       FORCE BIT0 TO ZERO                      01-PGSER
 000E56 4130 010C            0010C 13702+         LA    3,X'0100'+B'00001100'(0,0)                              X01-PGSER
                                        +                                   SET FUNCTION CODE AND OPTION FLAGS
 000E5A 58F0 0010            00010 13703+         L     15,16(0,0)       POINT TO CVT                       @01C 01-PGSER
 000E5E 58F0 F45C            0045C 13704+         L     15,1116(0,15)    EXTRACT PAGE SERVICES ENTRY POINT  @01C 01-PGSER
 000E62 0CEF                       13705+         BASSM 14,15            CALL PAGE SERVICES                      01-PGSER
 000E64 1827                       13706          LR    R2,RY                   Restore the register              507.
                                   13707          MODESET KEYREG=(2)            Restore the key                   508.
                                   13708+* MACDATE Y-3 81030                                                @D1A
 000E66 B20A 2000      00000       13709+         SPKA  0((2))              SET PSW KEY                     @D1A 01-MODES
                                   13710          PEND                                                            509.
                  R:6  00000       13716+       $$USING @R6,6                                                    03-00188
                                   13717+*,|<R6 TASKCT                                                           03-00198
                  R:C  00000       13721+       $$USING @R12,12                                                  03-00188
                                   13722+*,|<R12 @FIXPARM-72                                                     03-00198
                  R:A  00000       13726+       $$USING @R10,10                                                  03-00188
                                   13727+*,|<R10 PAGEFIX                                                         03-00198
 000E6A                            13728+$$$56F   DS    0H                                                       02-00552
 000E6A 981F C008            00008 13729+         LM    R1,R15,8(WAR)           Restore entry registers          01-PEND
 000E6E 9680 C000      00000       13730+         OI    0(WAR),X'80'            Indicate return                  01-PEND
 000E72 0B0E                       13731+         BSM   0,RAR                   Return to caller                 01-PEND
1TASKSERV (TASK00) (09:44) (22MAR04) IHAPSAE  - PSA Extension (ESAME)                                                       Page   98
0Current Usings:  (RTCB,R9) (CPTREAD,R10) (@CPTIME-72,R12)
0Loc    Object Code    Addr1 Addr2  Stmt Lv Lineno    Source Statement           (Hibal 5, Asmedit 3.3)  HLASM R4.0  2004/03/22 09.44
+___    ______ ____    _____ _____  ____ __ ______    ______ _________
0                                  13737 *******************************************************************      511.
                                   13738 *                                                                 *      512.
                                   13739 *    PAGEFREE -- Page free MVS memory                             *      513.
                                   13740 *                                                                 *      514.
                                   13741 *                                                                 *      515.
                                   13742 *     Input -                                                     *      516.
                                   13743 *                                                                 *      517.
                                   13744 *    Output -                                                     *      518.
                                   13745 *                                                                 *      519.
                                   13746 *                                                                 *      520.
                                   13747 *                                                                 *      521.
                                   13748 *                                                                 *      522.
                                   13749 *                                                                 *      523.
                                   13750 *                                                                 *      524.
                                   13751 *******************************************************************      525.
-
                                   13753 PAGEFREE PROC  @FIXPARM,SCOPE=GLOBAL                                     527.
 000E74                            13756+$$$57S       DS 0H                                                      02-BEGIN
                                   13757+         ENTRY PAGEFREE                                                 01-PROC
 000E74                            13758+         DS    0H                      align on a halfword              01-PROC
 000E74 D7C1C7C5C6D9C5C5           13759+         DC    CL8'PAGEFREE'           Routine Name                     01-PROC
 000E7C 0010                       13760+         DC    AL2(16)                 Length of the parm area          01-PROC
 000E7E 0000                       13761+         DC    AL2(0)                  Length of the local work area    01-PROC
 000E80 900F D004            00004 13762+PAGEFREE STM   R0,R15,4(SPR)           Save the entry registers         01-PROC
 000E84 18AF                       13763+         LR    BR,EPAR                 Get the entry point address      01-PROC
                  R:A  00E80       13773+       $$USING PAGEFREE,BR                                              04-00188
                                   13774+*,|>R10 PAGEFREE                                                        04-00217
 000E86 50D0 C000            00000 13777+         ST    SPR,0(,WAR)             Link this to the previous        01-PROC
 000E8A 18CD                       13778+         LR    WAR,SPR                 Update the work area pointer     01-PROC
 000E8C 9680 C000      00000       13779+         OI    0(WAR),X'80'            Mark this as last in chain       01-PROC
                  R:C FFFFB8       13789+       $$USING @FIXPARM-72,WAR                                          04-00188
                                   13790+*,|>R12 @FIXPARM-72                                                     04-00217
 000E90 41D0 C058            00058 13793+         LA    SPR,88(,WAR)                                             01-PROC
 000E94 5860 9004            00004 13794          L     RX,RTCBCBAT             Get the CBAT pointer              528.
                                   13795          WITH  (CBAT,RX),'L RX,CBATTASK'   Get the TCT pointer           529.
                  R:6  00000       13804+       $$USING CBAT,RX                                                  03-00188
                                   13805+*,|>R6 CBAT                                                             03-00217
                                   13808+*,>1                                                                    02-BEGIN
 000E98 5860 6004            00004 13810+         L     RX,CBATTASK                                              02-GEN
                                   13813+*,<1                                                                    02-00538
                  R:6  00000       13817+       $$USING @R6,6                                                    03-00188
                                   13818+*,|<R6 CBAT                                                             03-00198
                                   13819          WITH  (TASKCT,RX)                 Address the TCT               530.
                  R:6  00000       13828+       $$USING TASKCT,RX                                                03-00188
                                   13829+*,|>R6 TASKCT                                                           03-00217
                                   13832          MODESET EXTKEY=ZERO,SAVEKEY=(2) Get us to key zero              531.
                                   13833+* MACDATE Y-3 81030                                                @D1A
 000E9C B20B 0000                  13834+         IPK   0(0)               SAVE CURRENT PSW KEY                  01-MODES
 000EA0 B20A 0000      00000       13835+         SPKA  0(0)                SET PSW KEY                          01-MODES
 000EA4 1872                       13836          LR    RY,R2                   Copy the current key              532.
 000EA6 5840 600C            0000C 13837          L     R4,TCTMTTCB             Address of the master TCB         533.
 000EAA 5810 C048            00000 13838          L     R1,@FIXLOC                                                534.
1TASKSERV (TASK00) (09:44) (22MAR04) IHAPSAE  - PSA Extension (ESAME)                                                       Page   99
0Current Usings:  (RTCB,R9) (CPTREAD,R10) (@CPTIME-72,R12)
0Loc    Object Code    Addr1 Addr2  Stmt Lv Lineno    Source Statement           (Hibal 5, Asmedit 3.3)  HLASM R4.0  2004/03/22 09.44
+___    ______ ____    _____ _____  ____ __ ______    ______ _________
0000EAE 5820 C04C            00004 13839          L     R2,@FIXLEN                                                535.
 000EB2 1A21                       13840          AR    R2,R1                   ENDING ADDRESS                    536.
                                   13841          DECR  R2                                                        537.
 000EB4 0620                       13842+         BCTR  R2,0                                                     01-DECR
 000EB6 5410 A8D0            01750 13843          N     R1,=X'7FFFFFFF'         Clear the high bit                538.
 000EBA 5420 A8D0            01750 13844          N     R2,=X'7FFFFFFF'         And here too                      539.
                                   13845          IF    ~@FIXFREL,BEGIN                                           539.1
 000EBE 9180 C050      00008       13854+         TM    @FIXFREL,128                                             03-$REL
 000EC2 4710 A064            00EE4 13855+$$$58B   BC    15-14,$$$58F                                             01-IF
 000EC6                            13858+$$$58T   DS    0H                                                       03-LABEL
                                   13859+*,>1                                                                    02-BEGIN
                                   13860          PGSER R,FREE,A=(1),EA=(2),TCB=(4),BRANCH=Y                      540.
 000EC6 47F0 A050            00ED0 13861+         B     IHB4166A         GENERATE BRANCH AROUND CONSTANT         01-PGSER
 000ECA 0000                            +
 000ECC 7FFFFFFF                   13862+IHB4166Z DC    A(X'7FFFFFFF')   CONSTANT TO TURN OFF BIT0 IN A REG      01-PGSER
 000ED0                            13863+IHB4166A DS    0H               LABEL FOR TARGET OF BRANCH AROUND      X01-PGSER
                                        +                                  CONSTANT
 000ED0 1F00                       13864+         SLR   0,0              NO ECB --- FORCE REG 0 TO EQUAL ZERO    01-PGSER
 000ED2 5410 A04C            00ECC 13865+         N     1,IHB4166Z       FORCE BIT0 TO ZERO                      01-PGSER
 000ED6 4130 0200            00200 13866+         LA    3,X'0200'+B'00000000'(0,0)                              X01-PGSER
                                        +                                   SET FUNCTION CODE AND OPTION FLAGS
 000EDA 58F0 0010            00010 13867+         L     15,16(0,0)       POINT TO CVT                       @01C 01-PGSER
 000EDE 58F0 F45C            0045C 13868+         L     15,1116(0,15)    EXTRACT PAGE SERVICES ENTRY POINT  @01C 01-PGSER
 000EE2 0CEF                       13869+         BASSM 14,15            CALL PAGE SERVICES                      01-PGSER
                                   13870          END   ELSE,BEGIN                                                540.1
                                   13872+*,<1                                                                    01-00538
 000EE4                            13873+$$$58F   DS    0H                                                       01-00552
 000EE4                            13875+  DC  0S($$$58F-*)   CAUSES ERROR IF ELSE DOESN'T FOLLOW THEN CLAUSE    02-ELSE
 000EE4                00EE4 00EC4 13876+         ORG   $$$58B+2                                                 02-ELSE
 000EC4 A068                       13877+         DC    S($$$59E)                                                02-ELSE
 000EC6                00EC6 00EE4 13878+         ORG                                                            02-ELSE
 000EE4 47F0 A084            00F04 13879+         B     $$$59F                    BRANCH AROUND ELSE IF TRUE     02-ELSE
 000EE8                            13883+$$$59E   DS    0H                                                       04-LABEL
                                   13884+*,>1                                                                    03-BEGIN
                                   13885          PGSER R,FREE,A=(1),EA=(2),TCB=(4),BRANCH=Y,RELEASE=Y            540.2
 000EE8 47F0 A070            00EF0 13886+         B     IHB4173A         GENERATE BRANCH AROUND CONSTANT         01-PGSER
 000EEC 7FFFFFFF                   13887+IHB4173Z DC    A(X'7FFFFFFF')   CONSTANT TO TURN OFF BIT0 IN A REG      01-PGSER
 000EF0                            13888+IHB4173A DS    0H               LABEL FOR TARGET OF BRANCH AROUND      X01-PGSER
                                        +                                  CONSTANT
 000EF0 1F00                       13889+         SLR   0,0              NO ECB --- FORCE REG 0 TO EQUAL ZERO    01-PGSER
 000EF2 5410 A06C            00EEC 13890+         N     1,IHB4173Z       FORCE BIT0 TO ZERO                      01-PGSER
 000EF6 4130 0240            00240 13891+         LA    3,X'0200'+B'01000000'(0,0)                              X01-PGSER
                                        +                                   SET FUNCTION CODE AND OPTION FLAGS
 000EFA 58F0 0010            00010 13892+         L     15,16(0,0)       POINT TO CVT                       @01C 01-PGSER
 000EFE 58F0 F45C            0045C 13893+         L     15,1116(0,15)    EXTRACT PAGE SERVICES ENTRY POINT  @01C 01-PGSER
 000F02 0CEF                       13894+         BASSM 14,15            CALL PAGE SERVICES                      01-PGSER
                                   13895          END   ,                                                         540.3
                                   13897+*,<1                                                                    01-00538
 000F04                            13898+$$$59F   DS    0H                                                       01-00552
 000F04 1827                       13899          LR    R2,RY                   Restore the register              541.
                                   13900          MODESET KEYREG=(2)            Restore the key                   542.
                                   13901+* MACDATE Y-3 81030                                                @D1A
 000F06 B20A 2000      00000       13902+         SPKA  0((2))              SET PSW KEY                     @D1A 01-MODES
                                   13903          PEND                                                            543.
1TASKSERV (TASK00) (09:44) (22MAR04) IHAPSAE  - PSA Extension (ESAME)                                                       Page  100
0Current Usings:  (RTCB,R9) (CPTREAD,R10) (@CPTIME-72,R12)
0Loc    Object Code    Addr1 Addr2  Stmt Lv Lineno    Source Statement           (Hibal 5, Asmedit 3.3)  HLASM R4.0  2004/03/22 09.44
+___    ______ ____    _____ _____  ____ __ ______    ______ _________
0                 R:6  00000       13909+       $$USING @R6,6                                                    03-00188
                                   13910+*,|<R6 TASKCT                                                           03-00198
                  R:C  00000       13914+       $$USING @R12,12                                                  03-00188
                                   13915+*,|<R12 @FIXPARM-72                                                     03-00198
                  R:A  00000       13919+       $$USING @R10,10                                                  03-00188
                                   13920+*,|<R10 PAGEFREE                                                        03-00198
 000F0A                            13921+$$$57F   DS    0H                                                       02-00552
 000F0A 981F C008            00008 13922+         LM    R1,R15,8(WAR)           Restore entry registers          01-PEND
 000F0E 9680 C000      00000       13923+         OI    0(WAR),X'80'            Indicate return                  01-PEND
 000F12 0B0E                       13924+         BSM   0,RAR                   Return to caller                 01-PEND
1TASKSERV (TASK00) (09:44) (22MAR04) IHAPSAE  - PSA Extension (ESAME)                                                       Page  101
0Current Usings:  (RTCB,R9) (CPTREAD,R10) (@CPTIME-72,R12)
0Loc    Object Code    Addr1 Addr2  Stmt Lv Lineno    Source Statement           (Hibal 5, Asmedit 3.3)  HLASM R4.0  2004/03/22 09.44
+___    ______ ____    _____ _____  ____ __ ______    ______ _________
0                                  13930          COPY  TRCEPARM                                                  545.
                                   13931=*******************************************************************
                                   13932=*                                                                 *
                                   13933=*       TRCEPARM -- Trace routine calling parms                   *
                                   13934=*                                                                 *
                                   13935=*******************************************************************
0                                  13937=@TRACE   RECORD BEGIN
                                   13938+*PUSH,NOGEN
 000000                00000 00058 13939+$$$R@TRACE DSECT                                                        01-RECOR
                                   13940+*POP
                                   13943+*,>1                                                                    02-BEGIN
                                   13944+*PUSH,GEN
                                   13945=*
                                   13946=@TRTYPE  FLAG   ,                      Type of the trace entry
                                   13947+*PUSH,NOGEN
 000000 00                         13948+@TRTYPE  DC    AL1(0)                                                   01-FLAG
                                   13949+*POP
                                   13950=         FLAG  (TRCFTRA,0,EQ)          Trace
                                   13951+*PUSH,NOGEN
                       00000 00000 13955+$$$60    EQU   0,0      INVALID ABSOLUTE FLAG                           03-$BFLK
                       00000 00000 13957+TRCFTRA        EQU @TRTYPE,0,24                                         01-FLAG
                                   13958+*,::@TRTYPE.TRCFTRA   00 EQ                                             01-FLAG
                                   13959+*POP
                                   13960=         FLAG  (TRCFMCHK,1,EQ)         Machine check
                                   13961+*PUSH,NOGEN
                       00000 00001 13965+$$$61    EQU   0,1      INVALID ABSOLUTE FLAG                           03-$BFLK
                       00000 00001 13967+TRCFMCHK       EQU @TRTYPE,1,24                                         01-FLAG
                                   13968+*,::@TRTYPE.TRCFMCHK  01 EQ                                             01-FLAG
                                   13969+*POP
                                   13970=         FLAG  (TRCFSVC,2,EQ)          Svc
                                   13971+*PUSH,NOGEN
                       00000 00002 13975+$$$62    EQU   0,2      INVALID ABSOLUTE FLAG                           03-$BFLK
                       00000 00002 13977+TRCFSVC        EQU @TRTYPE,2,24                                         01-FLAG
                                   13978+*,::@TRTYPE.TRCFSVC   02 EQ                                             01-FLAG
                                   13979+*POP
                                   13980=         FLAG  (TRCFPI,3,EQ)           Program
                                   13981+*PUSH,NOGEN
                       00000 00003 13985+$$$63    EQU   0,3      INVALID ABSOLUTE FLAG                           03-$BFLK
                       00000 00003 13987+TRCFPI         EQU @TRTYPE,3,24                                         01-FLAG
                                   13988+*,::@TRTYPE.TRCFPI    03 EQ                                             01-FLAG
                                   13989+*POP
                                   13990=         FLAG  (TRCFEXT,4,EQ)          External
                                   13991+*PUSH,NOGEN
                       00000 00004 13995+$$$64    EQU   0,4      INVALID ABSOLUTE FLAG                           03-$BFLK
                       00000 00004 13997+TRCFEXT        EQU @TRTYPE,4,24                                         01-FLAG
                                   13998+*,::@TRTYPE.TRCFEXT   04 EQ                                             01-FLAG
                                   13999+*POP
                                   14000=         FLAG  (TRCFIO,5,EQ)           I/O
                                   14001+*PUSH,NOGEN
                       00000 00005 14005+$$$65    EQU   0,5      INVALID ABSOLUTE FLAG                           03-$BFLK
                       00000 00005 14007+TRCFIO         EQU @TRTYPE,5,24                                         01-FLAG
                                   14008+*,::@TRTYPE.TRCFIO    05 EQ                                             01-FLAG
                                   14009+*POP
1TASKSERV (TASK00) (09:44) (22MAR04) IHAPSAE  - PSA Extension (ESAME)                                                       Page  102
0Current Usings:  (RTCB,R9) (CPTREAD,R10) (@CPTIME-72,R12)
0Loc    Object Code    Addr1 Addr2  Stmt Lv Lineno    Source Statement           (Hibal 5, Asmedit 3.3)  HLASM R4.0  2004/03/22 09.44
+___    ______ ____    _____ _____  ____ __ ______    ______ _________
0                                  14010=         FLAG  (TRCFRSRT,6,EQ)         Restart key
                                   14011+*PUSH,NOGEN
                       00000 00006 14015+$$$66    EQU   0,6      INVALID ABSOLUTE FLAG                           03-$BFLK
                       00000 00006 14017+TRCFRSRT       EQU @TRTYPE,6,24                                         01-FLAG
                                   14018+*,::@TRTYPE.TRCFRSRT  06 EQ                                             01-FLAG
                                   14019+*POP
                                   14020=         FLAG  (TRCFABND,7,EQ)         Abend
                                   14021+*PUSH,NOGEN
                       00000 00007 14025+$$$67    EQU   0,7      INVALID ABSOLUTE FLAG                           03-$BFLK
                       00000 00007 14027+TRCFABND       EQU @TRTYPE,7,24                                         01-FLAG
                                   14028+*,::@TRTYPE.TRCFABND  07 EQ                                             01-FLAG
                                   14029+*POP
                                   14030=*
 000001                            14031=@TRDLEN  DS    X                       Length of misc data
 000002                            14032=@TRIC    DS    H                       Interrupt code
 000004                            14033=@TRCPID  DS    H                       CPU ID
 000006                            14034=         DS    H
 000008                            14035=@TRNAME  DS    CL8                     Trace name
 000010                            14036=@TRPSW   DS    XL8                     PSW
 000018                            14037=@TRREGS  DS    16A                     Register area
                                   14038=         END   ,
                                   14040+*,<1                                                                    01-00538
                                   14041+*POP
                                   14042+*PUSH,NOGEN
 000058                00058 00058 14043+         ORG                                                            01-00599
                       00000 00058 14044+@TRACE   EQU   $$$R@TRACE,*-$$$R@TRACE,C'J'                             01-00606
 000F14                00975 017B0 14045+$$$C1TASKSERV LOCTR                                                     01-00608
                                   14046+*POP
1TASKSERV (TASK00) (09:44) (22MAR04) IHAPSAE  - PSA Extension (ESAME)                                                       Page  103
0Current Usings:  (RTCB,R9) (CPTREAD,R10) (@CPTIME-72,R12)
0Loc    Object Code    Addr1 Addr2  Stmt Lv Lineno    Source Statement           (Hibal 5, Asmedit 3.3)  HLASM R4.0  2004/03/22 09.44
+___    ______ ____    _____ _____  ____ __ ______    ______ _________
0                                  14048 *******************************************************************      547.
                                   14049 *                                                                 *      548.
                                   14050 *    ORVYL Trace Table Entry                                      *      549.
                                   14051 *                                                                 *      550.
                                   14052 *******************************************************************      551.
0                                  14054 TRCENTRY RECORD BEGIN                                                    553.
                                   14055+*PUSH,NOGEN
 000000                00000 00020 14056+$$$RTRCENTRY DSECT                                                      01-RECOR
                                   14057+*POP
                                   14060+*,>1                                                                    02-BEGIN
                                   14061+*PUSH,GEN
 000000                            14062 TRCELEN  DS    H                       Length of this entry              554.
 000002                            14063 TRCENAME DS    CL8                     Name                              555.
 00000A                            14064 TRCETYPE DS    X                       Type of entry                     556.
 00000B                            14065          DS    X                                                         557.
 00000C                            14066 TRCECPID DS    H                       CPU ID                            558.
 00000E                            14067 TRCEIC   DS    H                       Interrupt code                    559.
 000010                            14068 TRCETS   DS    XL8                     Time stamp (stck)                 560.
 000018                            14069 TRCEPSW  DS    XL8                     Psw for trace                     561.
 000020                            14070 TRCEREGS DS    0X                      Registers and/or data             562.
                                   14071          END    ,                                                        563.
                                   14073+*,<1                                                                    01-00538
                                   14074+*POP
                                   14075+*PUSH,NOGEN
 000020                00020 00020 14076+         ORG                                                            01-00599
                       00000 00020 14077+TRCENTRY EQU   $$$RTRCENTRY,*-$$$RTRCENTRY,C'J'                         01-00606
 000F14                00975 017B0 14078+$$$C1TASKSERV LOCTR                                                     01-00608
                                   14079+*POP
-                                  14081          COPY  TRCIPARM                                                  565.
                                   14082=*******************************************************************
                                   14083=*                                                                 *
                                   14084=*    ORVYL Trace Table Initialization                             *
                                   14085=*                                                                 *
                                   14086=*******************************************************************
0                                  14088=@TRCINT  RECORD BEGIN
                                   14089+*PUSH,NOGEN
 000000                00000 00004 14090+$$$R@TRCINT DSECT                                                       01-RECOR
                                   14091+*POP
                                   14094+*,>1                                                                    02-BEGIN
                                   14095+*PUSH,GEN
 000000                            14096=@TRCINM  DS    A                       Number of trace entries
                                   14097=         END   ,
                                   14099+*,<1                                                                    01-00538
                                   14100+*POP
                                   14101+*PUSH,NOGEN
 000004                00004 00004 14102+         ORG                                                            01-00599
                       00000 00004 14103+@TRCINT  EQU   $$$R@TRCINT,*-$$$R@TRCINT,C'J'                           01-00606
 000F14                00975 017B0 14104+$$$C1TASKSERV LOCTR                                                     01-00608
                                   14105+*POP
1TASKSERV (TASK00) (09:44) (22MAR04) IHAPSAE  - PSA Extension (ESAME)                                                       Page  104
0Current Usings:  (RTCB,R9) (CPTREAD,R10) (@CPTIME-72,R12)
0Loc    Object Code    Addr1 Addr2  Stmt Lv Lineno    Source Statement           (Hibal 5, Asmedit 3.3)  HLASM R4.0  2004/03/22 09.44
+___    ______ ____    _____ _____  ____ __ ______    ______ _________
0                                  14107 *******************************************************************      567.
                                   14108 *                                                                 *      568.
                                   14109 *   TRACE - Add an entry to the trace table                       *      569.
                                   14110 *                                                                 *      570.
                                   14111 *                                                                 *      571.
                                   14112 *     Input - @TRACE                                              *      572.
                                   14113 *                                                                 *      573.
                                   14114 *    Output - None                                                *      574.
                                   14115 *                                                                 *      575.
                                   14116 *                                                                 *      576.
                                   14117 *                                                                 *      577.
                                   14118 *                                                                 *      578.
                                   14119 *                                                                 *      579.
                                   14120 *                                                                 *      580.
                                   14121 *******************************************************************      581.
-
                                   14123 TRCE     PROC  @TRACE,SCOPE=GLOBAL                                       583.
 000F14                            14126+$$$68S       DS 0H                                                      02-BEGIN
                                   14127+         ENTRY TRCE                                                     01-PROC
 000F14                            14128+         DS    0H                      align on a halfword              01-PROC
 000F14 E3D9C3C540404040           14129+         DC    CL8'TRCE'               Routine Name                     01-PROC
 000F1C 0058                       14130+         DC    AL2(88)                 Length of the parm area          01-PROC
 000F1E 0000                       14131+         DC    AL2(0)                  Length of the local work area    01-PROC
 000F20 900F D004            00004 14132+TRCE     STM   R0,R15,4(SPR)           Save the entry registers         01-PROC
 000F24 18AF                       14133+         LR    BR,EPAR                 Get the entry point address      01-PROC
                  R:A  00F20       14143+       $$USING TRCE,BR                                                  04-00188
                                   14144+*,|>R10 TRCE                                                            04-00217
 000F26 50D0 C000            00000 14147+         ST    SPR,0(,WAR)             Link this to the previous        01-PROC
 000F2A 18CD                       14148+         LR    WAR,SPR                 Update the work area pointer     01-PROC
 000F2C 9680 C000      00000       14149+         OI    0(WAR),X'80'            Mark this as last in chain       01-PROC
                  R:C FFFFB8       14159+       $$USING @TRACE-72,WAR                                            04-00188
                                   14160+*,|>R12 @TRACE-72                                                       04-00217
 000F30 41D0 C0A0            000A0 14163+         LA    SPR,160(,WAR)                                            01-PROC
 000F34 5830 9080            00080 14164          L     RB,RTCBTRTC                                               584.
                                   14165          USING TRCENTRY,RB                                               585.
                  R:3  00000       14172+       $$USING TRCENTRY,RB                                              01-00188
                                   14173+*,|>R3 TRCENTRY                                                         01-00217
 000F38 D200 300A C048 0000A 00000 14174          MVC   TRCETYPE,@TRTYPE        TYPE                              586.
 000F3E D207 3002 C050 00002 00008 14175          MVC   TRCENAME,@TRNAME        NAME                              587.
                                   14176          IF    (TRCETYPE.TRCFTRA,OR,TRCETYPE.TRCFTRA),BEGIN              588.
 000F44 9500 300A      0000A       14187+         CLI   TRCETYPE,0                                               04-$REL
 000F48 4780 A034            00F54 14190+         BC    8,$$$69T                                                 03-$BC
 000F4C                            14193+$$$70F   DS    0H                                                       04-LABEL
 000F4C 9500 300A      0000A       14199+         CLI   TRCETYPE,0                                               04-$REL
 000F50 4770 A054            00F74 14200+$$$69B   BC    15-8,$$$69F                                              01-IF
 000F54                            14203+$$$69T   DS    0H                                                       03-LABEL
                                   14204+*,>1                                                                    02-BEGIN
 000F54 B212 300C      0000C       14205          STAP  TRCECPID                USE CURRENT CPU                   589.
                                   14206          CLEAR TRCEIC                                                    590.
 000F58 D701 300E 300E 0000E 0000E 14212+         XC    TRCEIC(2),TRCEIC                                         01-CLEAR
 000F5E AD00 3018      00018       14213          STOSM TRCEPSW,0               PSW MASK                          591.
 000F62 B20B 0000                  14214          IPK   ,                       PSW KEY                           592.
1TASKSERV (TASK00) (09:44) (22MAR04) IHAPSAE  - PSA Extension (ESAME)                                                       Page  105
0Current Usings:  (RTCB,R9) (CPTREAD,R10) (@CPTIME-72,R12)
0Loc    Object Code    Addr1 Addr2  Stmt Lv Lineno    Source Statement           (Hibal 5, Asmedit 3.3)  HLASM R4.0  2004/03/22 09.44
+___    ______ ____    _____ _____  ____ __ ______    ______ _________
0000F66 4220 3019            00019 14215          STC   R2,TRCEPSW+1                                              593.
                                   14216          CLEAR (TRCEPSW+2,2)                                             594.
                       00000 00002 14221+$$$71    EQU   0,2                                                      01-CLEAR
 000F6A D701 301A 301A 0001A 0001A 14222+         XC    TRCEPSW+2(2),TRCEPSW+2                                   01-CLEAR
 000F70 50E0 301C            0001C 14223          ST    RAR,TRCEPSW+4           POINTER TO TRACE LOCATION         595.
                                   14224          END   ELSE,BEGIN                                                596.
                                   14226+*,<1                                                                    01-00538
 000F74                            14227+$$$69F   DS    0H                                                       01-00552
 000F74                            14229+  DC  0S($$$69F-*)   CAUSES ERROR IF ELSE DOESN'T FOLLOW THEN CLAUSE    02-ELSE
 000F74                00F74 00F52 14230+         ORG   $$$69B+2                                                 02-ELSE
 000F52 A058                       14231+         DC    S($$$72E)                                                02-ELSE
 000F54                00F54 00F74 14232+         ORG                                                            02-ELSE
 000F74 47F0 A06A            00F8A 14233+         B     $$$72F                    BRANCH AROUND ELSE IF TRUE     02-ELSE
 000F78                            14237+$$$72E   DS    0H                                                       04-LABEL
                                   14238+*,>1                                                                    03-BEGIN
 000F78 D207 3018 C058 00018 00010 14239          MVC   TRCEPSW,@TRPSW                                            597.
 000F7E D201 300E C04A 0000E 00002 14240          MVC   TRCEIC,@TRIC            INTERRUPT CODE                    598.
 000F84 D201 300C C04C 0000C 00004 14241          MVC   TRCECPID,@TRCPID        CPU ID                            599.
                                   14242          END                                                             600.
                                   14244+*,<1                                                                    01-00538
 000F8A                            14245+$$$72F   DS    0H                                                       01-00552
 000F8A B205 3010      00010       14246          STCK  TRCETS                  SET TIME                          601.
                                   14247          LC    RS,@TRDLEN              DATA LENGTH                       602.
                                   14249+       $$DROP  1                                                        01-LC
                                   14250+*JOIN
 000F8E 1F11                       14251+         SLR   1,1                                                      01-LC
 000F90 4310 C049            00001 14252+         IC    RS,@TRDLEN                                               01-LC
                  R:1  00000       14253+       $$USING @R1,1                                                    01-LC
                                   14254          EX    RS,'MVC  TRCEREGS(0),@TRREGS'    ADD TRACE DATA           603.
 000F94 4410 A870            01790 14255+       $$EX    RS,$$$73                                                 01-00667
 001790                01790 017B0 14257+$$$D1TASKSERV LOCTR                                                     02-DATA
                                   14260+*,>1                                                                    03-BEGIN
 001790 D200 3020 C060 00020 00018 14262+$$$74    MVC   TRCEREGS(0),@TRREGS                                      03-GEN
                       01790 00006 14263+$$$73    EQU   $$$74,*-$$$74,C'I'                                       03-GEN
                                   14266+*,<1                                                                    03-00538
                                   14267+*PUSH,NOGEN
 000F98                00975 017B0 14268+$$$C1TASKSERV LOCTR                                                     03-00608
                                   14269+*POP
 000F98 4110 1021            00021 14270          LA    RS,@RS+L'TRCENTRY+1     ENTRY SIZE                        604.
 000F9C 4010 3000            00000 14271          STH   RS,TRCELEN              SET LENGTH                        605.
 000FA0 4131 3000            00000 14272          LA    RB,TRCENTRY(RS)         NEXT ENTRY                        606.
                                   14273          IF    (RB,NL,RTCBTRTL),BEGIN                                    607.
 000FA4 5930 9088            00088 14284+         C     RB,RTCBTRTL                                              04-$CRS
 000FA8 4740 A094            00FB4 14285+$$$75B   BC    15-11,$$$75F                                             01-IF
 000FAC                            14288+$$$75T   DS    0H                                                       03-LABEL
                                   14289+*,>1                                                                    02-BEGIN
 000FAC 5830 9084            00084 14290          L     RB,RTCBTRTF             START BACK AT TOP                 608.
                                   14291          SET   RTCBTRTF.X'80'          NOTE WRAP                         609.
                       00000 00080 14295+$$$76    EQU   0,X'80'  INVALID ABSOLUTE FLAG                           03-$BFLK
 000FB0 9680 9084      00084       14297+         OI    RTCBTRTF,128                     Do set                  01-SET
                                   14298          END   ,                                                         610.
                                   14300+*,<1                                                                    01-00538
 000FB4                            14301+$$$75F   DS    0H                                                       01-00552
 000FB4 5030 9080            00080 14302          ST    RB,RTCBTRTC             RESET TRACE POINTER               611.
1TASKSERV (TASK00) (09:44) (22MAR04) IHAPSAE  - PSA Extension (ESAME)                                                       Page  106
0Current Usings:  (RTCB,R9) (CPTREAD,R10) (@CPTIME-72,R12)
0Loc    Object Code    Addr1 Addr2  Stmt Lv Lineno    Source Statement           (Hibal 5, Asmedit 3.3)  HLASM R4.0  2004/03/22 09.44
+___    ______ ____    _____ _____  ____ __ ______    ______ _________
0                                  14303          DROP  RB                                                        612.
                  R:3  00000       14308+       $$USING @R3,3                                                    02-00188
                                   14309+*,|<R3 TRCENTRY                                                         02-00198
                                   14310          PEND                                                            613.
                  R:C  00000       14316+       $$USING @R12,12                                                  03-00188
                                   14317+*,|<R12 @TRACE-72                                                       03-00198
                  R:A  00000       14321+       $$USING @R10,10                                                  03-00188
                                   14322+*,|<R10 TRCE                                                            03-00198
 000FB8                            14323+$$$68F   DS    0H                                                       02-00552
 000FB8 981F C008            00008 14324+         LM    R1,R15,8(WAR)           Restore entry registers          01-PEND
 000FBC 9680 C000      00000       14325+         OI    0(WAR),X'80'            Indicate return                  01-PEND
 000FC0 0B0E                       14326+         BSM   0,RAR                   Return to caller                 01-PEND
1TASKSERV (TASK00) (09:44) (22MAR04) IHAPSAE  - PSA Extension (ESAME)                                                       Page  107
0Current Usings:  (RTCB,R9) (CPTREAD,R10) (@CPTIME-72,R12)
0Loc    Object Code    Addr1 Addr2  Stmt Lv Lineno    Source Statement           (Hibal 5, Asmedit 3.3)  HLASM R4.0  2004/03/22 09.44
+___    ______ ____    _____ _____  ____ __ ______    ______ _________
0                                  14332 *******************************************************************      615.
                                   14333 *                                                                 *      616.
                                   14334 *   TRCEINIT - Initialize trace table                             *      617.
                                   14335 *                                                                 *      618.
                                   14336 *                                                                 *      619.
                                   14337 *     Input - @TRCINT                                             *      620.
                                   14338 *                                                                 *      621.
                                   14339 *    Output - None                                                *      622.
                                   14340 *                                                                 *      623.
                                   14341 *                                                                 *      624.
                                   14342 *                                                                 *      625.
                                   14343 *                                                                 *      626.
                                   14344 *                                                                 *      627.
                                   14345 *                                                                 *      628.
                                   14346 *******************************************************************      629.
-
                                   14348 TRCEINIT PROC  @TRCINT,SCOPE=GLOBAL                                      631.
 000FC2                            14351+$$$77S       DS 0H                                                      02-BEGIN
                                   14352+         ENTRY TRCEINIT                                                 01-PROC
 000FC2                            14353+         DS    0H                      align on a halfword              01-PROC
 000FC2 E3D9C3C5C9D5C9E3           14354+         DC    CL8'TRCEINIT'           Routine Name                     01-PROC
 000FCA 0008                       14355+         DC    AL2(8)                  Length of the parm area          01-PROC
 000FCC 0000                       14356+         DC    AL2(0)                  Length of the local work area    01-PROC
 000FCE 900F D004            00004 14357+TRCEINIT STM   R0,R15,4(SPR)           Save the entry registers         01-PROC
 000FD2 18AF                       14358+         LR    BR,EPAR                 Get the entry point address      01-PROC
                  R:A  00FCE       14368+       $$USING TRCEINIT,BR                                              04-00188
                                   14369+*,|>R10 TRCEINIT                                                        04-00217
 000FD4 50D0 C000            00000 14372+         ST    SPR,0(,WAR)             Link this to the previous        01-PROC
 000FD8 18CD                       14373+         LR    WAR,SPR                 Update the work area pointer     01-PROC
 000FDA 9680 C000      00000       14374+         OI    0(WAR),X'80'            Mark this as last in chain       01-PROC
                  R:C FFFFB8       14384+       $$USING @TRCINT-72,WAR                                           04-00188
                                   14385+*,|>R12 @TRCINT-72                                                      04-00217
 000FDE 41D0 C050            00050 14388+         LA    SPR,80(,WAR)                                             01-PROC
 000FE2 5830 C048            00000 14389          L     RB,@TRCINM              NUMBER OF ENTRIES                 632.
                                   14390          IF    (RB,Z),'LA  RB,50'                                        633.
                                   14397+*JOIN
 000FE6 1233                       14398+         LTR   RB,RB                                                    03-$REL
 000FE8 4770 A022            00FF0 14399+$$$78B   BC    15-8,$$$78F                                              01-IF
 000FEC                            14402+$$$78T   DS    0H                                                       03-LABEL
                                   14403+*,>1                                                                    02-BEGIN
 000FEC 4130 0032            00032 14405+         LA    RB,50                                                    02-GEN
                                   14408+*,<1                                                                    02-00538
 000FF0                            14409+$$$78F   DS    0H                                                       02-00552
 000FF0 5C20 A786            01754 14410          M     RA,=A(L'TRCENTRY+24)    TABLE SIZE                        634.
                                   14411          POOLGET (RB)                                                    635.
                  R:D FFFFB8       14421+       $$USING @MEMORY-72,SPR                                           03-00188
                                   14422+*,|>R13 @MEMORY-72                                                      03-00217
 000FF4 D70B D048 D048 00000 00000 14429+         XC    @MEMORY(12),@MEMORY                                      03-CLEAR
 000FFA 5030 D04C            00004 14431+         ST    RB,@MEMLEN               Set length parameter            01-POOLG
 000FFE 9210 D04A      00002       14438+         MVI   MEMTA16M,16                                              02-SET
                                   14440+*JOIN
 001002 58F0 A74A            01718 14441+         L     EPAR,=V(POOLGET)                                         02-VCALL
1TASKSERV (TASK00) (09:44) (22MAR04) IHAPSAE  - PSA Extension (ESAME)                                                       Page  108
0Current Usings:  (RTCB,R9) (CPTREAD,R10) (@CPTIME-72,R12)
0Loc    Object Code    Addr1 Addr2  Stmt Lv Lineno    Source Statement           (Hibal 5, Asmedit 3.3)  HLASM R4.0  2004/03/22 09.44
+___    ______ ____    _____ _____  ____ __ ______    ______ _________
0001006 0DEF                       14442+         BASR  RAR,EPAR                                                 02-VCALL
 001008 5000 9084            00084 14443          ST    RVR,RTCBTRTF            START OF TABLE                    636.
 00100C 5000 9080            00080 14444          ST    RVR,RTCBTRTC            POINTER TO NEXT ENTRY             637.
 001010 1A03                       14445          AR    RVR,RB                  END OF TABLE                      638.
 001012 5000 9088            00088 14446          ST    RVR,RTCBTRTL                                              639.
                                   14447          PEND                                                            640.
                  R:C  00000       14453+       $$USING @R12,12                                                  03-00188
                                   14454+*,|<R12 @TRCINT-72                                                      03-00198
                  R:A  00000       14458+       $$USING @R10,10                                                  03-00188
                                   14459+*,|<R10 TRCEINIT                                                        03-00198
 001016                            14460+$$$77F   DS    0H                                                       02-00552
 001016 981F C008            00008 14461+         LM    R1,R15,8(WAR)           Restore entry registers          01-PEND
 00101A 9680 C000      00000       14462+         OI    0(WAR),X'80'            Indicate return                  01-PEND
 00101E 0B0E                       14463+         BSM   0,RAR                   Return to caller                 01-PEND
                  R:D  00000       14469+       $$USING @R13,13                                                  03-00188
                                   14470+*,|<R13 @MEMORY-72                                                      03-00198
1TASKSERV (TASK00) (09:44) (22MAR04) IHAPSAE  - PSA Extension (ESAME)                                                       Page  109
0Current Usings:  (RTCB,R9) (CPTREAD,R10) (@CPTIME-72,R12)
0Loc    Object Code    Addr1 Addr2  Stmt Lv Lineno    Source Statement           (Hibal 5, Asmedit 3.3)  HLASM R4.0  2004/03/22 09.44
+___    ______ ____    _____ _____  ____ __ ______    ______ _________
0                                  14472 *******************************************************************      642.
                                   14473 *                                                                 *      643.
                                   14474 *   TRCEPRNT - Print trace table                                  *      644.
                                   14475 *                                                                 *      645.
                                   14476 *                                                                 *      646.
                                   14477 *     Input -                                                     *      647.
                                   14478 *                                                                 *      648.
                                   14479 *    Output -                                                     *      649.
                                   14480 *                                                                 *      650.
                                   14481 *                                                                 *      651.
                                   14482 *                                                                 *      652.
                                   14483 *                                                                 *      653.
                                   14484 *                                                                 *      654.
                                   14485 *                                                                 *      655.
                                   14486 *******************************************************************      656.
-
                                   14488 TRCEPRNT PROC  SCOPE=GLOBAL                                              658.
 001020                            14491+$$$79S       DS 0H                                                      02-BEGIN
                                   14492+         ENTRY TRCEPRNT                                                 01-PROC
 001020                            14493+         DS    0H                      align on a halfword              01-PROC
 001020 E3D9C3C5D7D9D5E3           14494+         DC    CL8'TRCEPRNT'           Routine Name                     01-PROC
 001028 0000                       14495+         DC    AL2(0)                  Length of the parm area          01-PROC
 00102A 0000                       14496+         DC    AL2(0)                  Length of the local work area    01-PROC
 00102C 900F D004            00004 14497+TRCEPRNT STM   R0,R15,4(SPR)           Save the entry registers         01-PROC
 001030 18AF                       14498+         LR    BR,EPAR                 Get the entry point address      01-PROC
                  R:A  0102C       14508+       $$USING TRCEPRNT,BR                                              04-00188
                                   14509+*,|>R10 TRCEPRNT                                                        04-00217
 001032 50D0 C000            00000 14512+         ST    SPR,0(,WAR)             Link this to the previous        01-PROC
 001036 18CD                       14513+         LR    WAR,SPR                 Update the work area pointer     01-PROC
 001038 9680 C000      00000       14514+         OI    0(WAR),X'80'            Mark this as last in chain       01-PROC
 00103C 41D0 C048            00048 14515+         LA    SPR,72(,WAR)                                             01-PROC
                                   14516          IF    RTCBTRTF.X'80',BEGIN    TABLE HAS WRAPPED                 659.
                       00000 00080 14524+$$$81    EQU   0,X'80'  INVALID ABSOLUTE FLAG                           05-$BFLK
 001040 9180 9084      00084       14526+         TM    RTCBTRTF,128                                             03-$REL
 001044 47E0 A02A            01056 14527+$$$80B   BC    15-1,$$$80F                                              01-IF
 001048                            14530+$$$80T   DS    0H                                                       03-LABEL
                                   14531+*,>1                                                                    02-BEGIN
 001048 5820 9080            00080 14532          L     RA,RTCBTRTC             PRINT 2ND HALF (OLDEST)           660.
 00104C 5830 9088            00088 14533          L     RB,RTCBTRTL              UP TO PHYSICAL END               661.
                                   14534          LCALL PRTRACE                 GO PRINT THE TRACE TABLE          662.
 001050 41F0 A042            0106E 14541+         LA    EPAR,PRTRACE                                             03-$L
 001054 0DEF                       14542+         BASR  RAR,EPAR                                                 01-LCALL
                                   14543          END   ,                                                         663.
                                   14545+*,<1                                                                    01-00538
 001056                            14546+$$$80F   DS    0H                                                       01-00552
 001056 5820 9084            00084 14547          L     RA,RTCBTRTF             PRINT OTHER HALF                  664.
 00105A 5830 9080            00080 14548          L     RB,RTCBTRTC              UP TO NEXT AVAILABLE             665.
                                   14549          LCALL PRTRACE                 GO PRINT THE TRACE TABLE          666.
 00105E 41F0 A042            0106E 14556+         LA    EPAR,PRTRACE                                             03-$L
 001062 0DEF                       14557+         BASR  RAR,EPAR                                                 01-LCALL
                                   14558          PEND                                                            667.
                  R:A  00000       14564+       $$USING @R10,10                                                  03-00188
1TASKSERV (TASK00) (09:44) (22MAR04) IHAPSAE  - PSA Extension (ESAME)                                                       Page  110
0Current Usings:  (RTCB,R9) (CPTREAD,R10) (@CPTIME-72,R12)
0Loc    Object Code    Addr1 Addr2  Stmt Lv Lineno    Source Statement           (Hibal 5, Asmedit 3.3)  HLASM R4.0  2004/03/22 09.44
+___    ______ ____    _____ _____  ____ __ ______    ______ _________
0                                  14565+*,|<R10 TRCEPRNT                                                        03-00198
 001064                            14566+$$$79F   DS    0H                                                       02-00552
 001064 981F C008            00008 14567+         LM    R1,R15,8(WAR)           Restore entry registers          01-PEND
 001068 9680 C000      00000       14568+         OI    0(WAR),X'80'            Indicate return                  01-PEND
 00106C 0B0E                       14569+         BSM   0,RAR                   Return to caller                 01-PEND
1TASKSERV (TASK00) (09:44) (22MAR04) IHAPSAE  - PSA Extension (ESAME)                                                       Page  111
0Current Usings:  (RTCB,R9) (CPTREAD,R10) (@CPTIME-72,R12)
0Loc    Object Code    Addr1 Addr2  Stmt Lv Lineno    Source Statement           (Hibal 5, Asmedit 3.3)  HLASM R4.0  2004/03/22 09.44
+___    ______ ____    _____ _____  ____ __ ______    ______ _________
0                                  14575 *                                                                        669.
                                   14576 * PRINT TRACE TABLE PORTION                                              670.
                                   14577 *                                                                        671.
                                   14578 PRTRACE  LABEL ,                                                         672.
 00106E                            14579+PRTRACE  DS    0H                                                       01-LABEL
 00106E 07FE                       14580          BR    RAR                                                       673.
1TASKSERV (TASK00) (09:44) (22MAR04) IHAPSAE  - PSA Extension (ESAME)                                                       Page  112
0Current Usings:  (RTCB,R9) (CPTREAD,R10) (@CPTIME-72,R12)
0Loc    Object Code    Addr1 Addr2  Stmt Lv Lineno    Source Statement           (Hibal 5, Asmedit 3.3)  HLASM R4.0  2004/03/22 09.44
+___    ______ ____    _____ _____  ____ __ ______    ______ _________
0                                  14582 *******************************************************************      675.
                                   14583 *                                                                 *      676.
                                   14584 *    FPOST Work area                                              *      677.
                                   14585 *                                                                 *      678.
                                   14586 *******************************************************************      679.
0                                  14588 POSTAREA RECORD BEGIN                                                    681.
                                   14589+*PUSH,NOGEN
 000000                00000 00009 14590+$$$RPOSTAREA DSECT                                                      01-RECOR
                                   14591+*POP
                                   14594+*,>1                                                                    02-BEGIN
                                   14595+*PUSH,GEN
 000000                            14596 POSTREGS DS    2A                      Register save area                682.
                                   14597 POSTFL   FLAG  ,                                                         683.
                                   14598+*PUSH,NOGEN
 000008 00                         14599+POSTFL   DC    AL1(0)                                                   01-FLAG
                                   14600+*POP
                                   14601          FLAG  POSTLOCK                Post obtained the local lock      684.
                                   14602+*PUSH,NOGEN
                       00008 00080 14603+POSTLOCK       EQU POSTFL,128,1                                         01-FLAG
                                   14604+*,::POSTFL.POSTLOCK   80 ONES                                           01-FLAG
                                   14605+*POP
                                   14606          END   ,                                                         685.
                                   14608+*,<1                                                                    01-00538
                                   14609+*POP
                                   14610+*PUSH,NOGEN
 000009                00009 00009 14611+         ORG                                                            01-00599
                       00000 00009 14612+POSTAREA EQU   $$$RPOSTAREA,*-$$$RPOSTAREA,C'J'                         01-00606
 001070                00975 017B0 14613+$$$C1TASKSERV LOCTR                                                     01-00608
                                   14614+*POP
1TASKSERV (TASK00) (09:44) (22MAR04) IHAPSAE  - PSA Extension (ESAME)                                                       Page  113
0Current Usings:  (RTCB,R9) (CPTREAD,R10) (@CPTIME-72,R12)
0Loc    Object Code    Addr1 Addr2  Stmt Lv Lineno    Source Statement           (Hibal 5, Asmedit 3.3)  HLASM R4.0  2004/03/22 09.44
+___    ______ ____    _____ _____  ____ __ ______    ______ _________
0                                  14616 *******************************************************************      687.
                                   14617 *                                                                 *      688.
                                   14618 *     FPOST - Fast post an ECB                                    *      689.
                                   14619 *                                                                 *      690.
                                   14620 *                                                                 *      691.
                                   14621 *     Input - @FPOST                                              *      692.
                                   14622 *                                                                 *      693.
                                   14623 *    Output - None                                                *      694.
                                   14624 *                                                                 *      695.
                                   14625 *                                                                 *      696.
                                   14626 *                                                                 *      697.
                                   14627 *                                                                 *      698.
                                   14628 *                                                                 *      699.
                                   14629 *                                                                 *      700.
                                   14630 *******************************************************************      701.
-
                                   14632 FPOST    PROC  @FPOST,POSTAREA,SCOPE=GLOBAL                              703.
 001070                            14635+$$$82S       DS 0H                                                      02-BEGIN
                                   14636+         ENTRY FPOST                                                    01-PROC
 001070                            14637+         DS    0H                      align on a halfword              01-PROC
 001070 C6D7D6E2E3404040           14638+         DC    CL8'FPOST'              Routine Name                     01-PROC
 001078 0008                       14639+         DC    AL2(8)                  Length of the parm area          01-PROC
 00107A 0010                       14640+         DC    AL2(16)                 Length of the local work area    01-PROC
 00107C 900F D004            00004 14641+FPOST    STM   R0,R15,4(SPR)           Save the entry registers         01-PROC
 001080 18AF                       14642+         LR    BR,EPAR                 Get the entry point address      01-PROC
                  R:A  0107C       14652+       $$USING FPOST,BR                                                 04-00188
                                   14653+*,|>R10 FPOST                                                           04-00217
 001082 50D0 C000            00000 14656+         ST    SPR,0(,WAR)             Link this to the previous        01-PROC
 001086 18CD                       14657+         LR    WAR,SPR                 Update the work area pointer     01-PROC
 001088 9680 C000      00000       14658+         OI    0(WAR),X'80'            Mark this as last in chain       01-PROC
                  R:C FFFFB8       14668+       $$USING @FPOST-72,WAR                                            04-00188
                                   14669+*,|>R12 @FPOST-72                                                       04-00217
                C 050  00000 00008 14675+       $$USING POSTAREA,@FPOST+8                                        03-AUSIN
                                   14676+*,::AUSING (POSTAREA,@FPOST+8)                                          03-AUSIN
 00108C 41D0 C060            00060 14677+         LA    SPR,96(,WAR)                                             01-PROC
                                   14678          CLEAR POSTFL                  Clear flags                       704.
 001090 9200 C058      00008       14684+         MVI   POSTFL,0                                                 01-CLEAR
                                   14685 *                                                                        705.
                                   14686 *  FIRST TRY A "FAST POST"                                               706.
                                   14687 *                                                                        707.
 001094 5820 C048            00000 14688          L     RA,@FPSTECB             Get the ECB address               708.
                                   14689          LOOP  BEGIN                                                     709.
 001098                            14693+$$$83S   DS    0H                                                       03-LABEL
                                   14694+*,>1                                                                    02-BEGIN
 001098 5830 2000            00000 14695          L     RB,@RA                  Current ECB contents              710.
                                   14696          IF    (RB,M),GOPOST           WAIT bit on                       711.
                                   14703+*JOIN
 00109C 1233                       14704+         LTR   RB,RB                                                    03-$REL
 00109E 4740 A044            010C0 14707+         BC    4,GOPOST                                                 02-$BC
 0010A2                            14710+$$$84F   DS    0H                                                       03-LABEL
 0010A2 5810 A6DC            01758 14713          L     RS,=A(X'40000000')      Check if already posted           712.
                                   14714          IF    ('NR  RS,RB',NZ),EXIT   ECB already POST'ed               713.
1TASKSERV (TASK00) (09:44) (22MAR04) IHAPSAE  - PSA Extension (ESAME)                                                       Page  114
0Current Usings:  (RTCB,R9) (CPTREAD,R10) (@CPTIME-72,R12)
0Loc    Object Code    Addr1 Addr2  Stmt Lv Lineno    Source Statement           (Hibal 5, Asmedit 3.3)  HLASM R4.0  2004/03/22 09.44
+___    ______ ____    _____ _____  ____ __ ______    ______ _________
00010A6 1413                       14721+         NR    RS,RB                                                    04-GEN
 0010A8 4770 A03E            010BA 14724+         BC    7,$$$83F                                                 02-$BC
 0010AC                            14727+$$$85F   DS    0H                                                       03-LABEL
 0010AC 5810 A6DC            01758 14730          L     RS,=A(X'40000000')      Post code                         714.
 0010B0 1613                       14731          OR    RS,RB                   POST'ed ECB                       715.
 0010B2 BA31 2000            00000 14732          CS    RB,RS,@RA               Post the ECB                      716.
                                   14733          UNTIL Z,END   ,                                                 717.
                                   14735+*,<1                                                                    02-WHILE
 0010B6 4770 A01C            01098 14746+         BC    7,$$$83S                                                 04-$BC
 0010BA                            14749+$$$83F   DS    0H                                                       05-LABEL
                                   14752          CLEAR RVR                     Set return code                   718.
 0010BA 1B00                       14755+         SR    RVR,RVR                                                  01-CLEAR
 0010BC 47F0 A0BE            0113A 14756          B     POSTEXIT                Successful                        719.
1TASKSERV (TASK00) (09:44) (22MAR04) IHAPSAE  - PSA Extension (ESAME)                                                       Page  115
0Current Usings:  (RTCB,R9) (CPTREAD,R10) (@CPTIME-72,R12)
0Loc    Object Code    Addr1 Addr2  Stmt Lv Lineno    Source Statement           (Hibal 5, Asmedit 3.3)  HLASM R4.0  2004/03/22 09.44
+___    ______ ____    _____ _____  ____ __ ______    ______ _________
0                                  14758 *                                                                        721.
                                   14759 *  GET INTO KEY 0 AND GET THE LOCAL LOCK                                 722.
                                   14760 *                                                                        723.
                                   14761 GOPOST   LABEL ,                                                         724.
 0010C0                            14762+GOPOST   DS    0H                                                       01-LABEL
                                   14763          MODESET EXTKEY=ZERO,SAVEKEY=(2)   GET INTO KEY ZERO             725.
                                   14764+* MACDATE Y-3 81030                                                @D1A
 0010C0 B20B 0000                  14765+         IPK   0(0)               SAVE CURRENT PSW KEY                  01-MODES
 0010C4 B20A 0000      00000       14766+         SPKA  0(0)                SET PSW KEY                          01-MODES
                                   14767          SETLOCK TEST,TYPE=LOCAL,BRANCH=(HELD,GOTLOCK)                   726.
                                   14773+*        MACDATE = 09/15/87
 0010C8 9101 02FB      002FB       14774+         TM    PSAHLHI-PSA+3(0),1          TEST BIT IN CURRENT @G860PXA 02-SETLO
                                   14775+*                                       LOCK HELD STRING       @G860PXA
 0010CC 4780 A05E            010DA 14776+         BZ    IHA4591B                 BRANCH NOT HELD        @G387PXR 02-SETLO
 0010D0 D503 02EC 04A8 002EC 004A8 14777+         CLC   PSALOCAL-FLC(4,0),PSAFZERO-FLC(0) LOCAL HELD?   @ZMP0008 02-SETLO
 0010D6 4780 A07C            010F8 14778+         BE    GOTLOCK                  BRANCH LOCK HELD       @ZMP0008 02-SETLO
 0010DA                            14779+IHA4591B DC    0H'0'                    BRANCH LABEL           @G387PXR 02-SETLO
                                   14780          SETLOCK OBTAIN,TYPE=LOCAL,MODE=UNCOND,REGS=SAVE,              * 727.
                                                        RELATED=PSTLOCK                                           728.
                                   14786+*        MACDATE = 09/15/87
 0010DA 18FD                       14787+         LR    15,13                    LOAD SAVE AREA ADDRESS          02-SETLO
 0010DC 90BE D000            00000 14788+         STM   11,14,0(13)              SAVE REGISTERS             @L2C 02-SETLO
 0010E0 58E0 02FC            002FC 14789+         L     14,PSALITA-FLC(0,0)      LOCK INTERFACE TABLE ADDR  @P1A 02-SETLO
 0010E4 58DE 0248            00248 14790+         L     13,584(14,0)             LOAD ADDRESS OF LOCK RTN   @L2C 02-SETLO
 0010E8 05ED                       14791+         BALR  14,13                    BRANCH ENTER LOCK ROUTINE       02-SETLO
 0010EA 17DF                       14792+         XR    13,15                    STEP 1, SWAP R13,R15       @L2A 02-SETLO
 0010EC 17FD                       14793+         XR    15,13                    STEP 2, SWAP R13,R15       @L2A 02-SETLO
 0010EE 17DF                       14794+         XR    13,15                    STEP 3, SWAP R13,R15       @L2A 02-SETLO
 0010F0 98BE D000            00000 14795+         LM    11,14,0(13)              RESTORE REGS               @L2C 02-SETLO
                                   14796          SET   POSTLOCK                                                  729.
 0010F4 9680 C058      00008       14801+         OI    POSTLOCK,128                     Do set                  01-SET
                                   14802 GOTLOCK  LABEL ,                                                         730.
 0010F8                            14803+GOTLOCK  DS    0H                                                       01-LABEL
                                   14804 *                                                                        731.
                                   14805 *  FAST POST FAILED, BRANCH ENTER POST ROUTINE                           732.
                                   14806 *                                                                        733.
 0010F8 90AB C050            00000 14807          STM   R10,R11,POSTREGS        Save work regs                    734.
 0010FC 58B0 C048            00000 14808          L     R11,@FPSTECB            ECB address                       735.
                                   14809          CLEAR R10                                                       736.
 001100 1BAA                       14812+         SR    R10,R10                                                  01-CLEAR
 001102 58F0 0010            00010 14813          L     R15,CVTPTR              CVT address                       737.
                                   14814          WITH  (CVT,R15),'ACALL  CVT0PT02'   POST routine                738.
                  R:F  00000       14823+       $$USING CVT,R15                                                  03-00188
                                   14824+*,|>R15 CVT                                                             03-00217
                                   14827+*,>1                                                                    02-BEGIN
                                   14830+*JOIN
 001106 58F0 F370            00370 14834+         L     EPAR,CVT0PT02                                            04-$L
 00110A 0DEF                       14835+         BASR  RAR,EPAR                                                 03-ACALL
                                   14838+*,<1                                                                    02-00538
                  R:F  00000       14842+       $$USING @R15,15                                                  03-00188
                                   14843+*,|<R15 CVT                                                             03-00198
 00110C 98AB C050            00000 14844          LM    R10,R11,POSTREGS                                          739.
                                   14845 *                                                                        740.
                                   14846 *  RELEASE THE LOCAL LOCK AND RETURN TO PROPER KEY                       741.
1TASKSERV (TASK00) (09:44) (22MAR04) IHAPSAE  - PSA Extension (ESAME)                                                       Page  116
0Current Usings:  (RTCB,R9) (CPTREAD,R10) (@CPTIME-72,R12)
0Loc    Object Code    Addr1 Addr2  Stmt Lv Lineno    Source Statement           (Hibal 5, Asmedit 3.3)  HLASM R4.0  2004/03/22 09.44
+___    ______ ____    _____ _____  ____ __ ______    ______ _________
0                                  14847 *                                                                        742.
                                   14848          IF    POSTLOCK,BEGIN                                            743.
 001110 9180 C058      00008       14857+         TM    POSTLOCK,128                                             03-$REL
 001114 47E0 A0B6            01132 14858+$$$88B   BC    15-1,$$$88F                                              01-IF
 001118                            14861+$$$88T   DS    0H                                                       03-LABEL
                                   14862+*,>1                                                                    02-BEGIN
                                   14863          SETLOCK RELEASE,TYPE=LOCAL,REGS=SAVE,RELATED=PSTLOCK            744.
                                   14869+*        MACDATE = 09/15/87
 001118 18FD                       14870+         LR    15,13                    LOAD SAVE AREA ADDRESS          02-SETLO
 00111A 90BE D000            00000 14871+         STM   11,14,0(13)              SAVE REGISTERS             @L2C 02-SETLO
 00111E 58E0 02FC            002FC 14872+         L     14,PSALITA-FLC(0,0)      LOCK INTERFACE TABLE ADDR  @P1A 02-SETLO
 001122 58DE 0254            00254 14873+         L     13,596(14,0)             LOAD ADDRESS OF LOCK RTN   @L2C 02-SETLO
 001126 05ED                       14874+         BALR  14,13                    BRANCH ENTER LOCK ROUTINE       02-SETLO
 001128 17DF                       14875+         XR    13,15                    STEP 1, SWAP R13,R15       @L2A 02-SETLO
 00112A 17FD                       14876+         XR    15,13                    STEP 2, SWAP R13,R15       @L2A 02-SETLO
 00112C 17DF                       14877+         XR    13,15                    STEP 3, SWAP R13,R15       @L2A 02-SETLO
 00112E 98BE D000            00000 14878+         LM    11,14,0(13)              RESTORE REGS               @L2C 02-SETLO
                                   14879          END                                                             745.
                                   14881+*,<1                                                                    01-00538
 001132                            14882+$$$88F   DS    0H                                                       01-00552
                                   14883          MODESET KEYADDR=(2)           Back to our key                   746.
                                   14884+* MACDATE Y-3 81030                                                @D1A
 001132 B20A 2000      00000       14885+         SPKA  0(2)                SET PSW KEY                          01-MODES
 001136 4100 0004            00004 14886          LA    RVR,4                   Set return code                   747.
                                   14887 POSTEXIT PEND                                                            748.
 00113A                            14890+POSTEXIT DS    0H                                                       03-LABEL
                  R:C  00000       14894+       $$USING @R12,12                                                  03-00188
                                   14895+*,|<R12 @FPOST-72                                                       03-00198
                  R:A  00000       14899+       $$USING @R10,10                                                  03-00188
                                   14900+*,|<R10 FPOST                                                           03-00198
 00113A                            14901+$$$82F   DS    0H                                                       02-00552
 00113A 981F C008            00008 14902+         LM    R1,R15,8(WAR)           Restore entry registers          01-PEND
 00113E 9680 C000      00000       14903+         OI    0(WAR),X'80'            Indicate return                  01-PEND
 001142 0B0E                       14904+         BSM   0,RAR                   Return to caller                 01-PEND
1TASKSERV (TASK00) (09:44) (22MAR04) IHAPSAE  - PSA Extension (ESAME)                                                       Page  117
0Current Usings:  (RTCB,R9) (CPTREAD,R10) (@CPTIME-72,R12)
0Loc    Object Code    Addr1 Addr2  Stmt Lv Lineno    Source Statement           (Hibal 5, Asmedit 3.3)  HLASM R4.0  2004/03/22 09.44
+___    ______ ____    _____ _____  ____ __ ______    ______ _________
0                                  14910 *******************************************************************      750.
                                   14911 *                                                                 *      751.
                                   14912 *     FWAIT - Fast wait on an ECB                                 *      752.
                                   14913 *                                                                 *      753.
                                   14914 *                                                                 *      754.
                                   14915 *     Input - @FWAIT                                              *      755.
                                   14916 *                                                                 *      756.
                                   14917 *    Output - None                                                *      757.
                                   14918 *                                                                 *      758.
                                   14919 *                                                                 *      759.
                                   14920 *                                                                 *      760.
                                   14921 *                                                                 *      761.
                                   14922 *                                                                 *      762.
                                   14923 *                                                                 *      763.
                                   14924 *******************************************************************      764.
-
                                   14926 FWAIT    PROC  @FWAIT,SCOPE=GLOBAL                                       766.
 001144                            14929+$$$89S       DS 0H                                                      02-BEGIN
                                   14930+         ENTRY FWAIT                                                    01-PROC
 001144                            14931+         DS    0H                      align on a halfword              01-PROC
 001144 C6E6C1C9E3404040           14932+         DC    CL8'FWAIT'              Routine Name                     01-PROC
 00114C 0008                       14933+         DC    AL2(8)                  Length of the parm area          01-PROC
 00114E 0000                       14934+         DC    AL2(0)                  Length of the local work area    01-PROC
 001150 900F D004            00004 14935+FWAIT    STM   R0,R15,4(SPR)           Save the entry registers         01-PROC
 001154 18AF                       14936+         LR    BR,EPAR                 Get the entry point address      01-PROC
                  R:A  01150       14946+       $$USING FWAIT,BR                                                 04-00188
                                   14947+*,|>R10 FWAIT                                                           04-00217
 001156 50D0 C000            00000 14950+         ST    SPR,0(,WAR)             Link this to the previous        01-PROC
 00115A 18CD                       14951+         LR    WAR,SPR                 Update the work area pointer     01-PROC
 00115C 9680 C000      00000       14952+         OI    0(WAR),X'80'            Mark this as last in chain       01-PROC
                  R:C FFFFB8       14962+       $$USING @FWAIT-72,WAR                                            04-00188
                                   14963+*,|>R12 @FWAIT-72                                                       04-00217
 001160 41D0 C050            00050 14966+         LA    SPR,80(,WAR)                                             01-PROC
 001164 5830 C048            00000 14967          L     RB,@FWTECB                                                767.
                                   14968          IF    ~@RB.X'40',BEGIN                                          768.
                       00000 00040 14976+$$$91    EQU   0,X'40'  INVALID ABSOLUTE FLAG                           05-$BFLK
 001168 9140 3000      00000       14978+         TM    @RB,64                                                   03-$REL
 00116C 4710 A08E            011DE 14979+$$$90B   BC    15-14,$$$90F                                             01-IF
 001170                            14982+$$$90T   DS    0H                                                       03-LABEL
                                   14983+*,>1                                                                    02-BEGIN
                                   14984          WAIT  ECB=(RB)                WAIT                              769.
                                   14985+*        MACDATE  10/20/88                                         @01C
 001170 4100 0001            00001 14987+         LA    0,1(0,0)                    COUNT OMITTED,1 USED    @L1C 01-WAIT
 001174 4110 3000            00000 14988+         LA    1,0(0,RB)                   CLEAR HIGH BIT/BYTE     @L1C 01-WAIT
 001178 0A01                       14989+         SVC   1                           LINK TO WAIT ROUTINE    @L1C 01-WAIT
                                   14990          EXIT                                                            770.
 00117A 47F0 A08E            011DE 14992+         B     $$$90F              EXIT BLOCK                           01-EXIT
                                   14993 *                                                                        771.
                                   14994 *  GET INTO KEY 0 AND GET THE LOCAL LOCK                                 772.
                                   14995 *                                                                        773.
                                   14996          MODESET EXTKEY=ZERO,SAVEKEY=(2)   GET INTO KEY ZERO             774.
                                   14997+* MACDATE Y-3 81030                                                @D1A
1TASKSERV (TASK00) (09:44) (22MAR04) IHAPSAE  - PSA Extension (ESAME)                                                       Page  118
0Current Usings:  (RTCB,R9) (CPTREAD,R10) (@CPTIME-72,R12)
0Loc    Object Code    Addr1 Addr2  Stmt Lv Lineno    Source Statement           (Hibal 5, Asmedit 3.3)  HLASM R4.0  2004/03/22 09.44
+___    ______ ____    _____ _____  ____ __ ______    ______ _________
000117E B20B 0000                  14998+         IPK   0(0)               SAVE CURRENT PSW KEY                  01-MODES
 001182 B20A 0000      00000       14999+         SPKA  0(0)                SET PSW KEY                          01-MODES
                                   15000          SETLOCK OBTAIN,TYPE=LOCAL,MODE=UNCOND,REGS=SAVE,              * 775.
                                                        RELATED=WAITLOCK                                          776.
                                   15006+*        MACDATE = 09/15/87
 001186 18FD                       15007+         LR    15,13                    LOAD SAVE AREA ADDRESS          02-SETLO
 001188 90BE D000            00000 15008+         STM   11,14,0(13)              SAVE REGISTERS             @L2C 02-SETLO
 00118C 58E0 02FC            002FC 15009+         L     14,PSALITA-FLC(0,0)      LOCK INTERFACE TABLE ADDR  @P1A 02-SETLO
 001190 58DE 0248            00248 15010+         L     13,584(14,0)             LOAD ADDRESS OF LOCK RTN   @L2C 02-SETLO
 001194 05ED                       15011+         BALR  14,13                    BRANCH ENTER LOCK ROUTINE       02-SETLO
 001196 17DF                       15012+         XR    13,15                    STEP 1, SWAP R13,R15       @L2A 02-SETLO
 001198 17FD                       15013+         XR    15,13                    STEP 2, SWAP R13,R15       @L2A 02-SETLO
 00119A 17DF                       15014+         XR    13,15                    STEP 3, SWAP R13,R15       @L2A 02-SETLO
 00119C 98BE D000            00000 15015+         LM    11,14,0(13)              RESTORE REGS               @L2C 02-SETLO
1TASKSERV (TASK00) (09:44) (22MAR04) IHAPSAE  - PSA Extension (ESAME)                                                       Page  119
0Current Usings:  (RTCB,R9) (CPTREAD,R10) (@CPTIME-72,R12)
0Loc    Object Code    Addr1 Addr2  Stmt Lv Lineno    Source Statement           (Hibal 5, Asmedit 3.3)  HLASM R4.0  2004/03/22 09.44
+___    ______ ____    _____ _____  ____ __ ______    ______ _________
0                                  15017 *                                                                        778.
                                   15018 *  SET UP RESTART ENVIRONMENT                                            779.
                                   15019 *                                                                        780.
 0011A0 5860 9014            00014 15020          L     RX,RTCBTCB              TCB ADDRESS                       781.
                                   15021          WITH  (TCB,RX),BEGIN                                            782.
                  R:6  00020       15030+       $$USING TCB,RX                                                   03-00188
                                   15031+*,|>R6 TCB                                                              03-00217
                                   15034+*,>2                                                                    02-BEGIN
 0011A4 900F 6030            00050 15035          STM   R0,R15,TCBGRS           SAVE REGISTERS                    783.
 0011A8 5870 6000            00020 15036          L     RY,TCBRBP               CURRENT RB                        784.
                                   15037          END   ,                                                         785.
                                   15039+*,<2                                                                    01-00538
                  R:6  00000       15043+       $$USING @R6,6                                                    02-00188
                                   15044+*,|<R6 TCB                                                              02-00198
 0011AC 5B60 A60C            0175C 15045          S     RX,=A(TCBPXLEN)         POINT AT PREFIX                   786.
                                   15046          WITH  (TCBFIX,RX),BEGIN                                         787.
                  R:6  00000       15055+       $$USING TCBFIX,RX                                                03-00188
                                   15056+*,|>R6 TCBFIX                                                           03-00217
                                   15059+*,>2                                                                    02-BEGIN
 0011B0 6000 6000            00000 15060          STD   R0,TCBFRS0              SAVE                              788.
 0011B4 6020 6008            00008 15061          STD   R2,TCBFRS2               FLOATING                         789.
 0011B8 6040 6010            00010 15062          STD   R4,TCBFRS4                POINT                           790.
 0011BC 6060 6018            00018 15063          STD   R6,TCBFRS6                 REGISTERS                      791.
                                   15064          END   ,                                                         792.
                                   15066+*,<2                                                                    01-00538
                  R:6  00000       15070+       $$USING @R6,6                                                    02-00188
                                   15071+*,|<R6 TCBFIX                                                           02-00198
 0011C0 4110 A08A            011DA 15072          LA    RS,WAITDONE             RESTART ADDRESS                   793.
 0011C4 0B10                       15073          BSM   RS,0                    INCLUDE ADDRESSING MODE           794.
                                   15074          WITH  (RBBASIC,RY),'ST  RS,RBOPSWA'    SET RESTART ADDRESS      795.
                  R:7  00040       15083+       $$USING RBBASIC,RY                                               03-00188
                                   15084+*,|>R7 RBBASIC                                                          03-00217
                                   15087+*,>2                                                                    02-BEGIN
 0011C6 5010 7014            00054 15089+         ST    RS,RBOPSWA                                               02-GEN
                                   15092+*,<2                                                                    02-00538
                  R:7  00000       15096+       $$USING @R7,7                                                    03-00188
                                   15097+*,|<R7 RBBASIC                                                          03-00198
                                   15098 *                                                                        796.
                                   15099 *  BRANCH ENTER WAIT ROUTINE                                             797.
                                   15100 *                                                                        798.
 0011CA 1813                       15101          LR    R1,RB                   ECB address                       799.
 0011CC 4100 0001            00001 15102          LA    R0,1                    WAIT event count                  800.
 0011D0 58F0 0010            00010 15103          L     R15,CVTPTR              CVT address                       801.
                                   15104          WITH  (CVT,R15),'ACALL  CVTVWAIT'   WAIT ROUTINE                802.
                  R:F  00000       15113+       $$USING CVT,R15                                                  03-00188
                                   15114+*,|>R15 CVT                                                             03-00217
                                   15117+*,>2                                                                    02-BEGIN
                                   15120+*JOIN
 0011D4 58F0 F270            00270 15124+         L     EPAR,CVTVWAIT                                            04-$L
 0011D8 0DEF                       15125+         BASR  RAR,EPAR                                                 03-ACALL
                                   15128+*,<2                                                                    02-00538
                  R:F  00000       15132+       $$USING @R15,15                                                  03-00188
                                   15133+*,|<R15 CVT                                                             03-00198
                                   15134 WAITDONE LABEL ,                                                         803.
1TASKSERV (TASK00) (09:44) (22MAR04) IHAPSAE  - PSA Extension (ESAME)                                                       Page  120
0Current Usings:  (RTCB,R9) (CPTREAD,R10) (@CPTIME-72,R12)
0Loc    Object Code    Addr1 Addr2  Stmt Lv Lineno    Source Statement           (Hibal 5, Asmedit 3.3)  HLASM R4.0  2004/03/22 09.44
+___    ______ ____    _____ _____  ____ __ ______    ______ _________
00011DA                            15135+WAITDONE DS    0H                                                       01-LABEL
                                   15136          MODESET KEYADDR=(2)           BACK TO OUR KEY                   804.
                                   15137+* MACDATE Y-3 81030                                                @D1A
 0011DA B20A 2000      00000       15138+         SPKA  0(2)                SET PSW KEY                          01-MODES
                                   15139          END   ,                                                         805.
                                   15141+*,<1                                                                    01-00538
 0011DE                            15142+$$$90F   DS    0H                                                       01-00552
                                   15143          CLEAR @RB.X'40'               Clear post bit                    806.
                       00000 00040 15148+$$$92    EQU   0,X'40'  INVALID ABSOLUTE FLAG                           03-$BFLK
 0011DE 94BF 3000      00000       15150+         NI    @RB,255-64                                               01-CLEAR
                                   15151          PEND                                                            807.
                  R:C  00000       15157+       $$USING @R12,12                                                  03-00188
                                   15158+*,|<R12 @FWAIT-72                                                       03-00198
                  R:A  00000       15162+       $$USING @R10,10                                                  03-00188
                                   15163+*,|<R10 FWAIT                                                           03-00198
 0011E2                            15164+$$$89F   DS    0H                                                       02-00552
 0011E2 981F C008            00008 15165+         LM    R1,R15,8(WAR)           Restore entry registers          01-PEND
 0011E6 9680 C000      00000       15166+         OI    0(WAR),X'80'            Indicate return                  01-PEND
 0011EA 0B0E                       15167+         BSM   0,RAR                   Return to caller                 01-PEND
1TASKSERV (TASK00) (09:44) (22MAR04) IHAPSAE  - PSA Extension (ESAME)                                                       Page  121
0Current Usings:  (RTCB,R9) (CPTREAD,R10) (@CPTIME-72,R12)
0Loc    Object Code    Addr1 Addr2  Stmt Lv Lineno    Source Statement           (Hibal 5, Asmedit 3.3)  HLASM R4.0  2004/03/22 09.44
+___    ______ ____    _____ _____  ____ __ ______    ______ _________
0                                  15173          COPY  ESTAPARM                                                  809.
                                   15174=*******************************************************************
                                   15175=*                                                                 *
                                   15176=*    ESTAPARM - ESTAE enable parameter area                       *
                                   15177=*                                                                 *
                                   15178=*******************************************************************
0                                  15180=@ESTAE   RECORD BEGIN
                                   15181+*PUSH,NOGEN
 000000                00000 00044 15182+$$$R@ESTAE DSECT                                                        01-RECOR
                                   15183+*POP
                                   15186+*,>1                                                                    02-BEGIN
                                   15187+*PUSH,GEN
 000000                            15188=@ESTRTRY DS     A                      ESTAE RETRY ADDRESS
 000004                            15189=@ESTREGS DS    16A                     REGISTERS FOR RETRY EXIT
                                   15190=         END   ,
                                   15192+*,<1                                                                    01-00538
                                   15193+*POP
                                   15194+*PUSH,NOGEN
 000044                00044 00044 15195+         ORG                                                            01-00599
                       00000 00044 15196+@ESTAE   EQU   $$$R@ESTAE,*-$$$R@ESTAE,C'J'                             01-00606
 0011EC                00975 017B0 15197+$$$C1TASKSERV LOCTR                                                     01-00608
                                   15198+*POP
-
                                   15200=*******************************************************************
                                   15201=*                                                                 *
                                   15202=*    ESTAINFO - ESTAE retry routine error information             *
                                   15203=*                                                                 *
                                   15204=*******************************************************************
0                                  15206=ESTAINFO RECORD BEGIN
                                   15207+*PUSH,NOGEN
 000000                00000 00058 15208+$$$RESTAINFO DSECT                                                      01-RECOR
                                   15209+*POP
                                   15212+*,>1                                                                    02-BEGIN
                                   15213+*PUSH,GEN
 000000                            15214=EDEABND  DS    A                       ABEND CODE
 000004                            15215=EDERSN   DS    A                       REASON CODE
 000008                            15216=EDEILC   DS    H                       ILC
 00000A                            15217=EDEINTC  DS    H                       INT CODE
 00000C                            15218=EDEPEA   DS    A                       PAGE EXCEPTION ADDRESS
                       00008 00008 15219=EDEPCHK  EQU   EDEILC,*-EDEILC,C'X'    ILC, INT CODE
 000010                            15220=EDEPSW   DS    XL8                     ERROR PSW
 000018                            15221=EDEREGS  DS    16A                     ERROR REGS
                                   15222=         END   ,
                                   15224+*,<1                                                                    01-00538
                                   15225+*POP
                                   15226+*PUSH,NOGEN
 000058                00058 00058 15227+         ORG                                                            01-00599
                       00000 00058 15228+ESTAINFO EQU   $$$RESTAINFO,*-$$$RESTAINFO,C'J'                         01-00606
 0011EC                00975 017B0 15229+$$$C1TASKSERV LOCTR                                                     01-00608
                                   15230+*POP
1TASKSERV (TASK00) (09:44) (22MAR04) IHAPSAE  - PSA Extension (ESAME)                                                       Page  122
0Current Usings:  (RTCB,R9) (CPTREAD,R10) (@CPTIME-72,R12)
0Loc    Object Code    Addr1 Addr2  Stmt Lv Lineno    Source Statement           (Hibal 5, Asmedit 3.3)  HLASM R4.0  2004/03/22 09.44
+___    ______ ____    _____ _____  ____ __ ______    ______ _________
0                                  15231 *******************************************************************      810.
                                   15232 *                                                                 *      811.
                                   15233 *    ESTAE Data                                                   *      812.
                                   15234 *                                                                 *      813.
                                   15235 *******************************************************************      814.
0                                  15237          DATA  BEGIN                                                     816.
 001796                01790 017B0 15238+$$$D1TASKSERV LOCTR                                                     01-DATA
                                   15241+*,>1                                                                    02-BEGIN
                                   15242 *GEN                                                                     817.
                                   15243 MESTAE   ESTAE ,TERM=YES,MF=L                                            818.
                                   15245+*    MACDATE   10/01/94                                        @G860P1C
 001798                            15247+         DS    0F                                                       01-ESTAE
 001798 16                         15248+MESTAE   DC    AL1(22)                 FLAGS FOR TCB,PURGE,ASYNCH,     X01-ESTAE
                                        +                                       AND CANCEL                  @D1C
 001799 000000                     15249+         DC    AL3(0)                  FIELD NO LONGER USED  @G860P1C   01-ESTAE
 00179C 00000000                   15250+         DC    A(0)                    PARM. LIST ADDR. NOT SPECIFIED   01-ESTAE
 0017A0 00000000                   15251+         DC    A(0)                    TCB NOT SPECIFIED                01-ESTAE
 0017A4 40                         15252+         DC    AL1(64)                 FLAGS                            01-ESTAE
 0017A5 01                         15253+         DC    AL1(1)                  THIRD FLAG BYTE       @G860P1C   01-ESTAE
 0017A6 0000                       15254+         DC    AL2(0)                  RESERVED              @G860P1C   01-ESTAE
 0017A8 00000000                   15255+         DC    A(0)                    TOKEN VALUE AREA      @G81CP2F   01-ESTAE
 0017AC 00000000                   15256+         DC    AL4(0)                  EXIT ADDR NOT SPECD   @G860P1C   01-ESTAE
                                   15257 *NOGEN                                                                   819.
                       01798 00018 15258 MODESTAE EQU   MESTAE,*-MESTAE,C'X'                                      820.
                                   15259          END   ,                                                         821.
                                   15261+*,<1                                                                    01-00538
                                   15262+*PUSH,NOGEN
 0011EC                00975 017B0 15263+$$$C1TASKSERV LOCTR                                                     01-00608
                                   15264+*POP
-
                                   15266 *******************************************************************      823.
                                   15267 *                                                                 *      824.
                                   15268 *    ESTADATA - ESTAE data area                                   *      825.
                                   15269 *                                                                 *      826.
                                   15270 *******************************************************************      827.
0                                  15272 ESTADATA RECORD BEGIN                                                    829.
                                   15273+*PUSH,NOGEN
 000000                00000 000B8 15274+$$$RESTADATA DSECT                                                      01-RECOR
                                   15275+*POP
                                   15278+*,>1                                                                    02-BEGIN
                                   15279+*PUSH,GEN
 000000                            15280 EDRETRY  DS    A                       RETRY ADDRESS                     830.
                                   15281 EDFLAG   FLAG  ,                                                         831.
                                   15282+*PUSH,NOGEN
 000004 00                         15283+EDFLAG   DC    AL1(0)                                                   01-FLAG
                                   15284+*POP
                                   15285          FLAG  EDFACTIV                ESTAE EXIT ACTIVE                 832.
                                   15286+*PUSH,NOGEN
                       00004 00080 15287+EDFACTIV       EQU EDFLAG,128,1                                         01-FLAG
                                   15288+*,::EDFLAG.EDFACTIV   80 ONES                                           01-FLAG
1TASKSERV (TASK00) (09:44) (22MAR04) IHAPSAE  - PSA Extension (ESAME)                                                       Page  123
0Current Usings:  (RTCB,R9) (CPTREAD,R10) (@CPTIME-72,R12)
0Loc    Object Code    Addr1 Addr2  Stmt Lv Lineno    Source Statement           (Hibal 5, Asmedit 3.3)  HLASM R4.0  2004/03/22 09.44
+___    ______ ____    _____ _____  ____ __ ______    ______ _________
0                                  15289+*POP
                                   15290          FLAG  EDFABEND                Status indicates abend            833.
                                   15291+*PUSH,NOGEN
                       00004 00040 15292+EDFABEND       EQU EDFLAG,64,1                                          01-FLAG
                                   15293+*,::EDFLAG.EDFABEND   40 ONES                                           01-FLAG
                                   15294+*POP
 000005                            15295          DS    X                                                         834.
 000006                            15296 EDRUBMSK DS    H                       RUB MASK                          835.
 000008                            15297 EDREGS   DS    16A                     CALLERS EXIT REGISTERS            836.
                       00006 00042 15298 EDRUB    EQU   EDRUBMSK,*-EDRUBMSK,C'X'   RETRY REGISTER UPDATE BLOCK    837.
                                   15299 *                                                                        838.
 000048                            15300 EDESTAE  DS    XL(L'MODESTAE)'00'      ESTAE PARAMETER LIST              839.
                                   15301 *                                                                        840.
                                   15302 &EDINFOL SETA  (L'ESTAINFO+3)/4                                          841.
                                   15303 EDINFO   DS    (&EDINFOL)A             RETURN INFO AREA                  842.
 000060                                 +EDINFO   DS    (22)A                   RETURN INFO AREA                  842.
                                   15304          END   ,                                                         843.
                                   15306+*,<1                                                                    01-00538
                                   15307+*POP
                                   15308+*PUSH,NOGEN
 0000B8                000B8 000B8 15309+         ORG                                                            01-00599
                       00000 000B8 15310+ESTADATA EQU   $$$RESTADATA,*-$$$RESTADATA,C'J'                         01-00606
 0011EC                00975 017B0 15311+$$$C1TASKSERV LOCTR                                                     01-00608
                                   15312+*POP
1TASKSERV (TASK00) (09:44) (22MAR04) IHAPSAE  - PSA Extension (ESAME)                                                       Page  124
0Current Usings:  (RTCB,R9) (CPTREAD,R10) (@CPTIME-72,R12)
0Loc    Object Code    Addr1 Addr2  Stmt Lv Lineno    Source Statement           (Hibal 5, Asmedit 3.3)  HLASM R4.0  2004/03/22 09.44
+___    ______ ____    _____ _____  ____ __ ______    ______ _________
0                                  15314 *******************************************************************      845.
                                   15315 *                                                                 *      846.
                                   15316 *   ESTAEON - Enable ABEND intercept                              *      847.
                                   15317 *                                                                 *      848.
                                   15318 *                                                                 *      849.
                                   15319 *     Input - @ESTAE                                              *      850.
                                   15320 *                                                                 *      851.
                                   15321 *    Output - ESTAE activated                                     *      852.
                                   15322 *                                                                 *      853.
                                   15323 *                                                                 *      854.
                                   15324 *                                                                 *      855.
                                   15325 *                                                                 *      856.
                                   15326 *                                                                 *      857.
                                   15327 *                                                                 *      858.
                                   15328 *******************************************************************      859.
-
                                   15330 ESTAEON  PROC  @ESTAE,SCOPE=GLOBAL                                       861.
 0011EC                            15333+$$$93S       DS 0H                                                      02-BEGIN
                                   15334+         ENTRY ESTAEON                                                  01-PROC
 0011EC                            15335+         DS    0H                      align on a halfword              01-PROC
 0011EC C5E2E3C1C5D6D540           15336+         DC    CL8'ESTAEON'            Routine Name                     01-PROC
 0011F4 0048                       15337+         DC    AL2(72)                 Length of the parm area          01-PROC
 0011F6 0000                       15338+         DC    AL2(0)                  Length of the local work area    01-PROC
 0011F8 900F D004            00004 15339+ESTAEON  STM   R0,R15,4(SPR)           Save the entry registers         01-PROC
 0011FC 18AF                       15340+         LR    BR,EPAR                 Get the entry point address      01-PROC
                  R:A  011F8       15350+       $$USING ESTAEON,BR                                               04-00188
                                   15351+*,|>R10 ESTAEON                                                         04-00217
 0011FE 50D0 C000            00000 15354+         ST    SPR,0(,WAR)             Link this to the previous        01-PROC
 001202 18CD                       15355+         LR    WAR,SPR                 Update the work area pointer     01-PROC
 001204 9680 C000      00000       15356+         OI    0(WAR),X'80'            Mark this as last in chain       01-PROC
                  R:C FFFFB8       15366+       $$USING @ESTAE-72,WAR                                            04-00188
                                   15367+*,|>R12 @ESTAE-72                                                       04-00217
 001208 41D0 C090            00090 15370+         LA    SPR,144(,WAR)                                            01-PROC
 00120C 58E0 9024            00024 15371          L     R14,RTCBESTA            ESTAE DATA AREA                   862.
                                   15372          WITH  (ESTADATA,R14)                                            863.
                  R:E  00000       15381+       $$USING ESTADATA,R14                                             03-00188
                                   15382+*,|>R14 ESTADATA                                                        03-00217
 001210 D23F E008 C04C 00008 00004 15385          MVC   EDREGS(16*4),@ESTREGS   CALLERS EXIT REGISTERS            864.
 001216 D203 E000 C048 00000 00000 15386          MVC   EDRETRY,@ESTRTRY        DESIRED RETRY EXIT                865.
                                   15387          SET   EDFACTIV                MARK ACTIVE                       866.
 00121C 9680 E004      00004       15392+         OI    EDFACTIV,128                     Do set                  01-SET
                                   15393          PEND                                                            867.
                  R:E  00000       15399+       $$USING @R14,14                                                  03-00188
                                   15400+*,|<R14 ESTADATA                                                        03-00198
                  R:C  00000       15404+       $$USING @R12,12                                                  03-00188
                                   15405+*,|<R12 @ESTAE-72                                                       03-00198
                  R:A  00000       15409+       $$USING @R10,10                                                  03-00188
                                   15410+*,|<R10 ESTAEON                                                         03-00198
 001220                            15411+$$$93F   DS    0H                                                       02-00552
 001220 981F C008            00008 15412+         LM    R1,R15,8(WAR)           Restore entry registers          01-PEND
 001224 9680 C000      00000       15413+         OI    0(WAR),X'80'            Indicate return                  01-PEND
 001228 0B0E                       15414+         BSM   0,RAR                   Return to caller                 01-PEND
1TASKSERV (TASK00) (09:44) (22MAR04) IHAPSAE  - PSA Extension (ESAME)                                                       Page  125
0Current Usings:  (RTCB,R9) (CPTREAD,R10) (@CPTIME-72,R12)
0Loc    Object Code    Addr1 Addr2  Stmt Lv Lineno    Source Statement           (Hibal 5, Asmedit 3.3)  HLASM R4.0  2004/03/22 09.44
+___    ______ ____    _____ _____  ____ __ ______    ______ _________
0                                  15420 *******************************************************************      869.
                                   15421 *                                                                 *      870.
                                   15422 *   ESTAEOFF - Disable ABEND intercept                            *      871.
                                   15423 *                                                                 *      872.
                                   15424 *                                                                 *      873.
                                   15425 *     Input - None                                                *      874.
                                   15426 *                                                                 *      875.
                                   15427 *    Output - None                                                *      876.
                                   15428 *                                                                 *      877.
                                   15429 *                                                                 *      878.
                                   15430 *                                                                 *      879.
                                   15431 *                                                                 *      880.
                                   15432 *                                                                 *      881.
                                   15433 *                                                                 *      882.
                                   15434 *******************************************************************      883.
-
                                   15436 ESTAEOFF PROC  SCOPE=GLOBAL                                              885.
 00122A                            15439+$$$94S       DS 0H                                                      02-BEGIN
                                   15440+         ENTRY ESTAEOFF                                                 01-PROC
 00122A                            15441+         DS    0H                      align on a halfword              01-PROC
 00122A C5E2E3C1C5D6C6C6           15442+         DC    CL8'ESTAEOFF'           Routine Name                     01-PROC
 001232 0000                       15443+         DC    AL2(0)                  Length of the parm area          01-PROC
 001234 0000                       15444+         DC    AL2(0)                  Length of the local work area    01-PROC
 001236 900F D004            00004 15445+ESTAEOFF STM   R0,R15,4(SPR)           Save the entry registers         01-PROC
 00123A 18AF                       15446+         LR    BR,EPAR                 Get the entry point address      01-PROC
                  R:A  01236       15456+       $$USING ESTAEOFF,BR                                              04-00188
                                   15457+*,|>R10 ESTAEOFF                                                        04-00217
 00123C 50D0 C000            00000 15460+         ST    SPR,0(,WAR)             Link this to the previous        01-PROC
 001240 18CD                       15461+         LR    WAR,SPR                 Update the work area pointer     01-PROC
 001242 9680 C000      00000       15462+         OI    0(WAR),X'80'            Mark this as last in chain       01-PROC
 001246 41D0 C048            00048 15463+         LA    SPR,72(,WAR)                                             01-PROC
 00124A 5820 9024            00024 15464          L     RA,RTCBESTA             ESTAE DATA AREA                   886.
                                   15465          WITH  (ESTADATA,RA)                                             887.
                  R:2  00000       15474+       $$USING ESTADATA,RA                                              03-00188
                                   15475+*,|>R2 ESTADATA                                                         03-00217
                                   15478          CLEAR EDFACTIV                MARK INACTIVE                     888.
 00124E 947F 2004      00004       15484+         NI    EDFACTIV,255-128                                         01-CLEAR
                                   15485          PEND                                                            889.
                  R:2  00000       15491+       $$USING @R2,2                                                    03-00188
                                   15492+*,|<R2 ESTADATA                                                         03-00198
                  R:A  00000       15496+       $$USING @R10,10                                                  03-00188
                                   15497+*,|<R10 ESTAEOFF                                                        03-00198
 001252                            15498+$$$94F   DS    0H                                                       02-00552
 001252 981F C008            00008 15499+         LM    R1,R15,8(WAR)           Restore entry registers          01-PEND
 001256 9680 C000      00000       15500+         OI    0(WAR),X'80'            Indicate return                  01-PEND
 00125A 0B0E                       15501+         BSM   0,RAR                   Return to caller                 01-PEND
1TASKSERV (TASK00) (09:44) (22MAR04) IHAPSAE  - PSA Extension (ESAME)                                                       Page  126
0Current Usings:  (RTCB,R9) (CPTREAD,R10) (@CPTIME-72,R12)
0Loc    Object Code    Addr1 Addr2  Stmt Lv Lineno    Source Statement           (Hibal 5, Asmedit 3.3)  HLASM R4.0  2004/03/22 09.44
+___    ______ ____    _____ _____  ____ __ ______    ______ _________
0                                  15507 *GEN                                                                     891.
                                   15508          IEZATTCH                                                        892.
                                   15509+**/ %ATTCHL1 : ;
                                   15510+*
                                   15511+* /* *************************************************************** */
                                   15512+* /*                                                                 */
                                   15513+* /*01* MACRO NAME = IEZATTCH                                        */
                                   15514+* /*                                                                 */
                                   15515+* /*01* DESCRIPTIVE NAME = ATTACH PARAMETER LIST                     */
                                   15516+* /*                                                                 */
                                   15517+* /*                                                                 */
                                   15518+* /*01* COPYRIGHT =                                              @L1C*/
                                   15519+* /*        5685-001                                                 */
                                   15520+* /*        THIS MACRO IS "RESTRICTED MATERIALS OF IBM"              */
                                   15521+* /*        (C) COPYRIGHT IBM CORP 1981,1992                         */
                                   15522+* /*        LICENSED MATERIALS - PROPERTY OF IBM                     */
                                   15523+* /*                                                                 */
                                   15524+* /*01* STATUS = HBB4430                                         @L1C*/
                                   15525+* /*                                                                 */
                                   15526+* /*01* FUNCTION =                                                   */
                                   15527+* /*     THE FOLLOWING MACRO PROVIDES A MAPPING OF THE PARAMETER     */
                                   15528+* /*     LIST WHICH SERVES AS THE INPUT TO THE ATTACH SERVICE        */
                                   15529+* /*     ROUTINE(SVC 42). THIS MACRO IS TO BE USED WHEN THE          */
                                   15530+* /*     ATTACH PARAMETER LIST IS BUILT DYNAMICALLY. IT MAY ALSO     */
                                   15531+* /*     BE USED TO DOCUMENT THE CONTENTS OF THE PARAMETER LIST      */
                                   15532+* /*     WHICH IS EXPANDED BY THE ATTACH MACRO.                      */
                                   15533+* /*                                                                 */
                                   15534+* /*01* COMPONENT = SC1CL (TASK MANAGEMENT)                          */
                                   15535+* /*                                                                 */
                                   15536+* /*01* DISTRIBUTION LIBRARY = AMODGEN                               */
                                   15537+* /*                                                                 */
                                   15538+* /* *************************************************************** */
                                   15539+*%GOTO ATTCHL2;  /*
0                                  15542+       $$PUSH  PRINT                                                    02-00324
                                   15544+       $$PRINT OFF                                                      02-00289
                                   15616+       $$POP   PRINT                                                    02-00429
                                   15617 *NOGEN                                                                   893.
                                   15618 TASKSERV CSECT                                                           894.
 00125C                00975 017B0 15619+TASKSERV $$CSECT                                                        01-00046
1TASKSERV (TASK00) (09:44) (22MAR04) IHAPSAE  - PSA Extension (ESAME)                                                       Page  127
0Current Usings:  (RTCB,R9) (CPTREAD,R10) (@CPTIME-72,R12)
0Loc    Object Code    Addr1 Addr2  Stmt Lv Lineno    Source Statement           (Hibal 5, Asmedit 3.3)  HLASM R4.0  2004/03/22 09.44
+___    ______ ____    _____ _____  ____ __ ______    ______ _________
0                                  15621          COPY  SPNPARM                                                   896.
                                   15622=*******************************************************************
                                   15623=*                                                                 *
                                   15624=*       SPNPARM -- Sub-task creation calling parms                *
                                   15625=*                                                                 *
                                   15626=*******************************************************************
0                                  15628=@SPAWN   RECORD BEGIN
                                   15629+*PUSH,NOGEN
 000000                00000 0001C 15630+$$$R@SPAWN DSECT                                                        01-RECOR
                                   15631+*POP
                                   15634+*,>1                                                                    02-BEGIN
                                   15635+*PUSH,GEN
 000000                            15636=@SPNNAME DS    CL8                     Task name
 000008                            15637=@SPNEP   DS    A                       Entry point
 00000C                            15638=@SPNPARM DS    A                       Parameter to be passed
 000010                            15639=@SPNTRC  DS    A                       Number of trace table entries
 000014                            15640=@SPNSTK  DS    A                       Stack size
 000018                            15641=@SPNDPRI DS    A                       Relative MVS task priority
                                   15642=         END
                                   15644+*,<1                                                                    01-00538
                                   15645+*POP
                                   15646+*PUSH,NOGEN
 00001C                0001C 0001C 15647+         ORG                                                            01-00599
                       00000 0001C 15648+@SPAWN   EQU   $$$R@SPAWN,*-$$$R@SPAWN,C'J'                             01-00606
 00125C                00975 017B0 15649+$$$C1TASKSERV LOCTR                                                     01-00608
                                   15650+*POP
-                                  15652 SPNDATA  RECORD BEGIN                                                    898.
                                   15653+*PUSH,NOGEN
 000000                00000 00048 15654+$$$RSPNDATA DSECT                                                       01-RECOR
                                   15655+*POP
                                   15658+*,>1                                                                    02-BEGIN
                                   15659+*PUSH,GEN
 000000                            15660 SPNATT   DS    0D,XL(ATLSTSIZ)                                           899.
                                   15661          END   ,                                                         900.
                                   15663+*,<1                                                                    01-00538
                                   15664+*POP
                                   15665+*PUSH,NOGEN
 000048                00048 00048 15666+         ORG                                                            01-00599
                       00000 00048 15667+SPNDATA  EQU   $$$RSPNDATA,*-$$$RSPNDATA,C'J'                           01-00606
 00125C                00975 017B0 15668+$$$C1TASKSERV LOCTR                                                     01-00608
                                   15669+*POP
-                                  15671 SPNEXTR  RECORD BEGIN                                                    902.
                                   15672+*PUSH,NOGEN
 000000                00000 00010 15673+$$$RSPNEXTR DSECT                                                       01-RECOR
                                   15674+*POP
                                   15677+*,>1                                                                    02-BEGIN
                                   15678+*PUSH,GEN
                                   15679 SPNEXAR  EXTRACT MF=L                                                    903.
 000000                            15680+         DS    0F                                                       01-EXTRA
1TASKSERV (TASK00) (09:44) (22MAR04) IHAPSAE  - PSA Extension (ESAME)                                                       Page  128
0Current Usings:  (RTCB,R9) (CPTREAD,R10) (@CPTIME-72,R12)
0Loc    Object Code    Addr1 Addr2  Stmt Lv Lineno    Source Statement           (Hibal 5, Asmedit 3.3)  HLASM R4.0  2004/03/22 09.44
+___    ______ ____    _____ _____  ____ __ ______    ______ _________
0000000 00000000                   15681+SPNEXAR  DC    A(0)                              LIST ADDRESS           01-EXTRA
 000004 00000000                   15682+         DC    A(0)                              TCB ADDRESS            01-EXTRA
 000008 00000000                   15683+         DC A(0)                                                        01-EXTRA
 00000C                            15684 SPNEXA   DS    A                       EXTRACT ANSWER AREA               904.
                                   15685          END   ,                                                         905.
                                   15687+*,<1                                                                    01-00538
                                   15688+*POP
                                   15689+*PUSH,NOGEN
 000010                00010 00010 15690+         ORG                                                            01-00599
                       00000 00010 15691+SPNEXTR  EQU   $$$RSPNEXTR,*-$$$RSPNEXTR,C'J'                           01-00606
 00125C                00975 017B0 15692+$$$C1TASKSERV LOCTR                                                     01-00608
                                   15693+*POP
-                                  15695 TASKPARM RECORD BEGIN                                                    907.
                                   15696+*PUSH,NOGEN
 000000                00000 00018 15697+$$$RTASKPARM DSECT                                                      01-RECOR
                                   15698+*POP
                                   15701+*,>1                                                                    02-BEGIN
                                   15702+*PUSH,GEN
 000000                            15703 TPLRTCB  DS    A                       RTCB                              908.
 000004                            15704 TPLTSTK  DS    A                       Temporary stack                   909.
 000008                            15705 TPLEP    DS    A                       Sub-task entry point              910.
 00000C                            15706 TPLPARM  DS    A                       Task parameter                    911.
 000010                            15707 TPLNTRC  DS    A                       Number of trace table entries     912.
 000014                            15708 TPLNSTK  DS    A                       Stack size                        913.
                                   15709          END   ,                                                         914.
                                   15711+*,<1                                                                    01-00538
                                   15712+*POP
                                   15713+*PUSH,NOGEN
 000018                00018 00018 15714+         ORG                                                            01-00599
                       00000 00018 15715+TASKPARM EQU   $$$RTASKPARM,*-$$$RTASKPARM,C'J'                         01-00606
 00125C                00975 017B0 15716+$$$C1TASKSERV LOCTR                                                     01-00608
                                   15717+*POP
1TASKSERV (TASK00) (09:44) (22MAR04) IHAPSAE  - PSA Extension (ESAME)                                                       Page  129
0Current Usings:  (RTCB,R9) (CPTREAD,R10) (@CPTIME-72,R12)
0Loc    Object Code    Addr1 Addr2  Stmt Lv Lineno    Source Statement           (Hibal 5, Asmedit 3.3)  HLASM R4.0  2004/03/22 09.44
+___    ______ ____    _____ _____  ____ __ ______    ______ _________
0                                  15719 *******************************************************************      916.
                                   15720 *                                                                 *      917.
                                   15721 *   SPAWN - Create a sub-task                                     *      918.
                                   15722 *                                                                 *      919.
                                   15723 *                                                                 *      920.
                                   15724 *     Input - @SPAWN                                              *      921.
                                   15725 *                                                                 *      922.
                                   15726 *    Output - RVR contains a task id                              *      923.
                                   15727 *                                                                 *      924.
                                   15728 *                                                                 *      925.
                                   15729 *                                                                 *      926.
                                   15730 *                                                                 *      927.
                                   15731 *                                                                 *      928.
                                   15732 *                                                                 *      929.
                                   15733 *******************************************************************      930.
-
                                   15735 SPAWN    PROC  @SPAWN,SPNDATA,SCOPE=GLOBAL                               932.
 00125C                            15738+$$$95S       DS 0H                                                      02-BEGIN
                                   15739+         ENTRY SPAWN                                                    01-PROC
 00125C                            15740+         DS    0H                      align on a halfword              01-PROC
 00125C E2D7C1E6D5404040           15741+         DC    CL8'SPAWN'              Routine Name                     01-PROC
 001264 0020                       15742+         DC    AL2(32)                 Length of the parm area          01-PROC
 001266 0048                       15743+         DC    AL2(72)                 Length of the local work area    01-PROC
 001268 900F D004            00004 15744+SPAWN    STM   R0,R15,4(SPR)           Save the entry registers         01-PROC
 00126C 18AF                       15745+         LR    BR,EPAR                 Get the entry point address      01-PROC
                  R:A  01268       15755+       $$USING SPAWN,BR                                                 04-00188
                                   15756+*,|>R10 SPAWN                                                           04-00217
 00126E 50D0 C000            00000 15759+         ST    SPR,0(,WAR)             Link this to the previous        01-PROC
 001272 18CD                       15760+         LR    WAR,SPR                 Update the work area pointer     01-PROC
 001274 9680 C000      00000       15761+         OI    0(WAR),X'80'            Mark this as last in chain       01-PROC
                  R:C FFFFB8       15771+       $$USING @SPAWN-72,WAR                                            04-00188
                                   15772+*,|>R12 @SPAWN-72                                                       04-00217
                C 068  00000 00020 15778+       $$USING SPNDATA,@SPAWN+32                                        03-AUSIN
                                   15779+*,::AUSING (SPNDATA,@SPAWN+32)                                          03-AUSIN
 001278 41D0 C0B0            000B0 15780+         LA    SPR,176(,WAR)                                            01-PROC
                                   15781          CLEAR SPNDATA                                                   933.
 00127C D747 C068 C068 00000 00000 15787+         XC    SPNDATA(72),SPNDATA                                      01-CLEAR
                                   15788          POOLGET L'RTCB                                                  934.
                  R:D FFFFB8       15798+       $$USING @MEMORY-72,SPR                                           03-00188
                                   15799+*,|>R13 @MEMORY-72                                                      03-00217
 001282 D70B D048 D048 00000 00000 15806+         XC    @MEMORY(12),@MEMORY                                      03-CLEAR
 001288 4100 00B0            000B0 15814+         LA    R0,L'RTCB                                                03-$L
 00128C 5000 D04C            00004 15815+         ST    R0,@MEMLEN               Set length parameter            01-POOLG
 001290 9210 D04A      00002       15822+         MVI   MEMTA16M,16                                              02-SET
                                   15824+*JOIN
 001294 58F0 A4B0            01718 15825+         L     EPAR,=V(POOLGET)                                         02-VCALL
 001298 0DEF                       15826+         BASR  RAR,EPAR                                                 02-VCALL
 00129A 1850                       15827          LR    RK,RVR                  POINTER TO SUBTASK RTCB           935.
 00129C 5870 9004            00004 15828          L     RY,RTCBCBAT             CBAT POINTER                      936.
                                   15829          WITH  (CBAT,RY),'L  RY,CBATTASK'                                937.
                  R:7  00000       15838+       $$USING CBAT,RY                                                  03-00188
                                   15839+*,|>R7 CBAT                                                             03-00217
1TASKSERV (TASK00) (09:44) (22MAR04) IHAPSAE  - PSA Extension (ESAME)                                                       Page  130
0Current Usings:  (RTCB,R9) (CPTREAD,R10) (@CPTIME-72,R12)
0Loc    Object Code    Addr1 Addr2  Stmt Lv Lineno    Source Statement           (Hibal 5, Asmedit 3.3)  HLASM R4.0  2004/03/22 09.44
+___    ______ ____    _____ _____  ____ __ ______    ______ _________
0                                  15842+*,>1                                                                    02-BEGIN
 0012A0 5870 7004            00004 15844+         L     RY,CBATTASK                                              02-GEN
                                   15847+*,<1                                                                    02-00538
                  R:7  00000       15851+       $$USING @R7,7                                                    03-00188
                                   15852+*,|<R7 CBAT                                                             03-00198
                                   15853          USING TASKCT,RY                                                 938.
                  R:7  00000       15860+       $$USING TASKCT,RY                                                01-00188
                                   15861+*,|>R7 TASKCT                                                           01-00217
                                   15862          LOCKOB TCTRLOCK               GET THE RTCB CHAIN LOCK           939.
                  R:D  00000       15872+       $$USING @R13,13                                                  05-00188
                                   15873+*,|<R13 @MEMORY-72                                                      05-00198
                  R:D FFFFB8       15875+       $$USING @LOCKS-72,SPR                                            03-00188
                                   15876+*,|>R13 @LOCKS-72                                                       03-00217
 0012A4 5800 7008            00008 15880+         L     RVR,TCTRLOCK                                             02-$L
 0012A8 5000 D048            00000 15881+         ST    RVR,@LOCKID                                              01-LOCKO
                                   15883+*JOIN
 0012AC 58F0 A4F8            01760 15884+         L     EPAR,=V(LOCKOB)                                          02-VCALL
 0012B0 0DEF                       15885+         BASR  RAR,EPAR                                                 02-VCALL
                                   15886          LOOP  BEGIN                           ADD NEW                   940.
 0012B2                            15890+$$$96S   DS    0H                                                       03-LABEL
                                   15891+*,>1                                                                    02-BEGIN
 0012B2 5820 7004            00004 15892          L     RA,TCTRTCB                      RTCB                      941.
                                   15893          WITH  (RTCB,RA)                       TO                        942.
                  R:9  00000       15907+       $$USING @R9,9                                                    05-00188
                                   15908+*,|<R9 RTCB                                                             05-00198
                  R:2  00000       15910+       $$USING RTCB,RA                                                  03-00188
                                   15911+*,|>R2 RTCB                                                             03-00217
                                   15914          WHILE (RTCBNEXT,NZ),'L  RA,RTCBNEXT'                            943.
 0012B6                            15919+$$$97S   DS    0H                                                       04-LABEL
 0012B6 D603 2008 2008 00008 00008 15926+         OC    RTCBNEXT(4),RTCBNEXT                                     04-$REL
 0012BC 4780 A060            012C8 15927+$$$97B   BC    15-7,$$$97F                                              02-IF
 0012C0                            15930+$$$97T   DS    0H                                                       04-LABEL
                                   15931+*,>2                                                                    03-BEGIN
 0012C0 5820 2008            00008 15933+         L     RA,RTCBNEXT                                              02-GEN
                                   15936+*,<2                                                                    02-00538
 0012C4 47F0 A04E            012B6 15937+         B     $$$97S              BRANCH TO LOOP START                 02-00550
 0012C8                            15938+$$$97F   DS    0H                                                       02-00552
 0012C8 5050 2008            00008 15939          ST    RK,RTCBNEXT                     OF                        944.
                                   15940          UNTIL Z,END                           CHAIN                     945.
                                   15942+*,<1                                                                    02-WHILE
 0012CC 4770 A04A            012B2 15953+         BC    7,$$$96S                                                 04-$BC
 0012D0                            15956+$$$96F   DS    0H                                                       05-LABEL
                  R:9  00000       15966+       $$USING RTCB,9                                                   05-00188
                                   15967+*,|>R9 RTCB                                                             05-00217
                  R:2  00000       15971+       $$USING @R2,2                                                    05-00188
                                   15972+*,|<R2 RTCB                                                             05-00198
                                   15973          LOCKRL TCTRLOCK               FREE THE CHAIN LOCK               946.
 0012D0 5800 7008            00008 15981+         L     RVR,TCTRLOCK                                             02-$L
 0012D4 5000 D048            00000 15982+         ST    RVR,@LOCKID                                              01-LOCKR
                                   15984+*JOIN
 0012D8 58F0 A4FC            01764 15985+         L     EPAR,=V(LOCKREL)                                         02-VCALL
 0012DC 0DEF                       15986+         BASR  RAR,EPAR                                                 02-VCALL
                                   15987          DROP  RY                                                        947.
                  R:7  00000       15992+       $$USING @R7,7                                                    02-00188
1TASKSERV (TASK00) (09:44) (22MAR04) IHAPSAE  - PSA Extension (ESAME)                                                       Page  131
0Current Usings:  (RTCB,R9) (CPTREAD,R10) (@CPTIME-72,R12)
0Loc    Object Code    Addr1 Addr2  Stmt Lv Lineno    Source Statement           (Hibal 5, Asmedit 3.3)  HLASM R4.0  2004/03/22 09.44
+___    ______ ____    _____ _____  ____ __ ______    ______ _________
0                                  15993+*,|<R7 TASKCT                                                           02-00198
 0012DE 5810 9004            00004 15994          L     RS,RTCBCBAT             CBAT POINTER                      948.
                                   15995          WITH  (RTCB,RK),BEGIN                                           949.
                  R:9  00000       16009+       $$USING @R9,9                                                    05-00188
                                   16010+*,|<R9 RTCB                                                             05-00198
                  R:5  00000       16012+       $$USING RTCB,RK                                                  03-00188
                                   16013+*,|>R5 RTCB                                                             03-00217
                                   16016+*,>1                                                                    02-BEGIN
 0012E2 D203 5000 A4B4 00000 0171C 16017          MVC   RTCB(4),=CL4'RTCB'      CONTROL BLOCK ID                  950.
 0012E8 D207 500C C048 0000C 00000 16018          MVC   RTCBNAME,@SPNNAME       TASK ID                           951.
 0012EE 5010 5004            00004 16019          ST    RS,RTCBCBAT             SET CBAT POINTER                  952.
                                   16020          MEMGET L'TASKPARM,TYPE=GLOBAL GET PARAMETER AREA                953.
                  R:D  00000       16031+       $$USING @R13,13                                                  05-00188
                                   16032+*,|<R13 @LOCKS-72                                                       05-00198
                  R:D FFFFB8       16034+       $$USING @MEMGET-72,SPR                                           03-00188
                                   16035+*,|>R13 @MEMGET-72                                                      03-00217
 0012F2 D709 D048 D048 00000 00000 16042+         XC    @MEMGET(10),@MEMGET                                      03-CLEAR
 0012F8 4100 0018            00018 16049+         LA    RVR,L'TASKPARM                                           03-$L
 0012FC 5000 D04C            00004 16050+         ST    RVR,@MGLEN              Set length parameter             01-MEMGE
 001300                            16061+  DS 0SL2(MGGLOB-MGA16M,MGA16M-MGGLOB)         FLAGS NOT IN SAME BYTE   03-$BV
 001300                            16062+  DS 0SL2(MGBEST-MGA16M,MGA16M-MGBEST)         FLAGS NOT IN SAME BYTE   03-$BV
 001300                            16063+  DS 0SL2(MGBEST-MGGLOB,MGGLOB-MGBEST)         FLAGS NOT IN SAME BYTE   03-$BV
 001300 9213 D051      00009       16064+         MVI   MGA16M,19                                                02-SET
                                   16066+*JOIN
 001304 58F0 A4DC            01744 16067+         L     EPAR,=V(MEMGET)                                          02-VCALL
 001308 0DEF                       16068+         BASR  RAR,EPAR                                                 02-VCALL
 00130A 1870                       16069          LR    RY,RVR                  SUB TASK PARAMETERS               954.
                                   16070          WITH  (TASKPARM,RY)                                             955.
                  R:7  00000       16079+       $$USING TASKPARM,RY                                              03-00188
                                   16080+*,|>R7 TASKPARM                                                         03-00217
 00130C 5050 7000            00000 16083          ST    RK,TPLRTCB              SET RTCB POINTER                  956.
                                   16084          MEMGET 48*4,TYPE=GLOBAL       TEMPORARY STACK                   957.
 001310 D709 D048 D048 00000 00000 16096+         XC    @MEMGET(10),@MEMGET                                      03-CLEAR
 001316 4100 00C0            000C0 16103+         LA    RVR,48*4                                                 03-$L
 00131A 5000 D04C            00004 16104+         ST    RVR,@MGLEN              Set length parameter             01-MEMGE
 00131E                            16115+  DS 0SL2(MGGLOB-MGA16M,MGA16M-MGGLOB)         FLAGS NOT IN SAME BYTE   03-$BV
 00131E                            16116+  DS 0SL2(MGBEST-MGA16M,MGA16M-MGBEST)         FLAGS NOT IN SAME BYTE   03-$BV
 00131E                            16117+  DS 0SL2(MGBEST-MGGLOB,MGGLOB-MGBEST)         FLAGS NOT IN SAME BYTE   03-$BV
 00131E 9213 D051      00009       16118+         MVI   MGA16M,19                                                02-SET
                                   16120+*JOIN
 001322 58F0 A4DC            01744 16121+         L     EPAR,=V(MEMGET)                                          02-VCALL
 001326 0DEF                       16122+         BASR  RAR,EPAR                                                 02-VCALL
 001328 5000 7004            00004 16123          ST    RVR,TPLTSTK                                               958.
 00132C D203 700C C054 0000C 0000C 16124          MVC   TPLPARM,@SPNPARM        TASK PARAMETER                    959.
 001332 D203 7010 C058 00010 00010 16125          MVC   TPLNTRC,@SPNTRC         TRACE COUNT                       960.
 001338 D203 7014 C05C 00014 00014 16126          MVC   TPLNSTK,@SPNSTK         STACK SIZE                        961.
 00133E D203 7008 C050 00008 00008 16127          MVC   TPLEP,@SPNEP            ENTRY POINT                       962.
                                   16128 *                                                                        963.
 001344 4160 C068            00000 16129          LA    RX,SPNATT               ATTACH PARAMETER LIST             964.
                                   16130          WITH  (ATTCHLST,RX)                                             965.
                  R:6  00000       16139+       $$USING ATTCHLST,RX                                              03-00188
                                   16140+*,|>R6 ATTCHLST                                                         03-00217
                                   16143          ACALL POOLDEF                                                   966.
                                   16144+*JOIN
1TASKSERV (TASK00) (09:44) (22MAR04) IHAPSAE  - PSA Extension (ESAME)                                                       Page  132
0Current Usings:  (RTCB,R9) (CPTREAD,R10) (@CPTIME-72,R12)
0Loc    Object Code    Addr1 Addr2  Stmt Lv Lineno    Source Statement           (Hibal 5, Asmedit 3.3)  HLASM R4.0  2004/03/22 09.44
+___    ______ ____    _____ _____  ____ __ ______    ______ _________
0001348 58F0 A500            01768 16148+         L     EPAR,=A(POOLDEF)                                         02-$L
 00134C 0DEF                       16149+         BASR  RAR,EPAR                                                 01-ACALL
 00134E 5000 6010            00010 16150          ST    RVR,ATSHFLDA            SET SHARED SUBPOOL LIST           967.
                                   16151          SET   ATFLAGS2.ATNSHSP                                          968.
                       00000 00020 16155+$$$101   EQU   0,ATNSHSP                                               X03-$BFLK
                                        +                        INVALID ABSOLUTE FLAG
 001352 9620 603C      0003C       16157+         OI    ATFLAGS2,32                      Do set                  01-SET
                                   16158          MEMGET L'SPNEXTR,TYPE=BELOW16M                                  969.
 001356 D709 D048 D048 00000 00000 16170+         XC    @MEMGET(10),@MEMGET                                      03-CLEAR
 00135C 4100 0010            00010 16177+         LA    RVR,L'SPNEXTR                                            03-$L
 001360 5000 D04C            00004 16178+         ST    RVR,@MGLEN              Set length parameter             01-MEMGE
 001364 9201 D051      00009       16185+         MVI   MGBEST,1                                                 02-SET
                                   16187+*JOIN
 001368 58F0 A4DC            01744 16188+         L     EPAR,=V(MEMGET)                                          02-VCALL
 00136C 0DEF                       16189+         BASR  RAR,EPAR                                                 02-VCALL
 00136E 1830                       16190          LR    RB,RVR                  AREA FOR EXTRACT                  970.
                                   16191          WITH  (SPNEXTR,RB),BEGIN                                        971.
                  R:3  00000       16200+       $$USING SPNEXTR,RB                                               03-00188
                                   16201+*,|>R3 SPNEXTR                                                          03-00217
                                   16204+*,>2                                                                    02-BEGIN
                                   16205          EXTRACT SPNEXA,'S',FIELDS=(PRI),MF=(E,SPNEXAR)                  972.
 001370 4110 3000            00000 16207+         LA    1,SPNEXAR                         LOAD PARAMETER REG 1   02-IHBIN
 001374 41E0 300C            0000C 16208+         LA    14,SPNEXA                         PICK UP LIST ADDRESS   01-EXTRA
 001378 50E1 0000            00000 16209+         ST    14,0(1,0)                         STORE INTO PARAM. LIST 01-EXTRA
 00137C 1BEE                       16210+         SR    14,14                             INDICATE ISSUING TASK  01-EXTRA
 00137E 50E1 0004            00004 16211+         ST    14,4(1,0)                         TCB TO BE USED         01-EXTRA
 001382 9208 1008      00008       16212+         MVI   8(1),8                            MOVE IN FIELDS BYTE    01-EXTRA
 001386 9200 1009      00009       16213+         MVI   9(1),0        .         MOVE IN FIELD BYTE 2       20021 01-EXTRA
 00138A 0A28                       16214+         SVC   40                                ISSUE EXTRACT SVC      01-EXTRA
                                   16215          LC    RS,SPNEXA+3             CURRENT TASK PRIORITY             973.
                                   16217+       $$DROP  1                                                        01-LC
                                   16218+*JOIN
 00138C 1F11                       16219+         SLR   1,1                                                      01-LC
 00138E 4310 300F            0000F 16220+         IC    RS,SPNEXA+3                                              01-LC
                  R:1  00000       16221+       $$USING @R1,1                                                    01-LC
 001392 5820 C060            00018 16222          L     RA,@SPNDPRI             DESIRED PRIORITY                  974.
                                   16223          IF    (RA,Z),'LA  RA,128'     USE DEFAULT                       975.
                                   16230+*JOIN
 001396 1222                       16231+         LTR   RA,RA                                                    03-$REL
 001398 4770 A138            013A0 16232+$$$102B  BC    15-8,$$$102F                                             01-IF
 00139C                            16235+$$$102T  DS    0H                                                       03-LABEL
                                   16236+*,>3                                                                    02-BEGIN
 00139C 4120 0080            00080 16238+         LA    RA,128                                                   02-GEN
                                   16241+*,<3                                                                    02-00538
 0013A0                            16242+$$$102F  DS    0H                                                       02-00552
 0013A0 1B21                       16243          SR    RA,RS                   COMPUTE DIFFERENTIAL              976.
 0013A2 4020 6018            00018 16244          STH   RA,ATDPMOD                                                977.
                                   16245          END   ,                                                         978.
                                   16247+*,<2                                                                    01-00538
                  R:3  00000       16251+       $$USING @R3,3                                                    02-00188
                                   16252+*,|<R3 SPNEXTR                                                          02-00198
                                   16253          MEMFREE L'SPNEXTR,A=(RB),TYPE=BELOW16M                          979.
                  R:D  00000       16264+       $$USING @R13,13                                                  05-00188
                                   16265+*,|<R13 @MEMGET-72                                                      05-00198
1TASKSERV (TASK00) (09:44) (22MAR04) IHAPSAE  - PSA Extension (ESAME)                                                       Page  133
0Current Usings:  (RTCB,R9) (CPTREAD,R10) (@CPTIME-72,R12)
0Loc    Object Code    Addr1 Addr2  Stmt Lv Lineno    Source Statement           (Hibal 5, Asmedit 3.3)  HLASM R4.0  2004/03/22 09.44
+___    ______ ____    _____ _____  ____ __ ______    ______ _________
0                 R:D FFFFB8       16267+       $$USING @MEMFREE-72,SPR                                          03-00188
                                   16268+*,|>R13 @MEMFREE-72                                                     03-00217
 0013A6 D709 D048 D048 00000 00000 16275+         XC    @MEMFREE(10),@MEMFREE                                    03-CLEAR
 0013AC 4100 0010            00010 16282+         LA    RVR,L'SPNEXTR                                            03-$L
 0013B0 5000 D04C            00004 16283+         ST    RVR,@MFLEN              Set length parameter             01-MEMFR
 0013B4 5030 D048            00000 16284+         ST    RB,@MFLOC               Set length parameter             01-MEMFR
                                   16286+*JOIN
 0013B8 58F0 A504            0176C 16287+         L     EPAR,=V(MEMFREE)                                         02-VCALL
 0013BC 0DEF                       16288+         BASR  RAR,EPAR                                                 02-VCALL
 0013BE 4100 C048            00000 16289          LA    R0,@SPNNAME             TASK NAME                         980.
 0013C2 5000 6000            00000 16290          ST    R0,ATPGNADA             TO ATTACH LIST                    981.
                                   16291 *        MVC   ATETXRA,=A(TASKABND)    End of task exit routine          982.
                                   16292          IDENTIFY EPLOC=(0),ENTRY=TASKSTRT   IDENTIFY SUBTASK            983.
 0013C6 4110 A236            0149E 16294+         LA    1,TASKSTRT                        LOAD PARAMETER REG 1   02-IHBIN
 0013CA 0A29                       16295+         SVC   41                                ISSUE IDENTIFY SVC     01-IDENT
                                   16296          IF    (R15,NZ),'KAPUT SPNIDNT'      IF ERROR, BAD NEWS          984.
                                   16303+*JOIN
 0013CC 12FF                       16304+         LTR   R15,R15                                                  03-$REL
 0013CE 4780 A17A            013E2 16305+$$$103B  BC    15-7,$$$103F                                             01-IF
 0013D2                            16308+$$$103T  DS    0H                                                       03-LABEL
                                   16309+*,>2                                                                    02-BEGIN
                                   16313+*,THIS FUNCTION IS NOT IMPLEMENTED                                      03-KAPUT
 0013D2                            16315+         DS    0H                                                       04-ABEND
 0013D2 4110 0001            00001 16318+         LA    1,1                               LOAD PARAMETER REG 1   05-IHBIN
 0013D6 4100 0080            00080 16319+         LA    0,128(0,0)         DUMP/STEP/DUMPOPTS/REASON    @G860P1F 04-ABEND
 0013DA 8900 0018            00018 16320+         SLL   0,24(0)            SHIFT TO HIGH ORDER                   04-ABEND
 0013DE 1610                       16321+         OR    1,0                OR IN WITH COMPCODE                   04-ABEND
 0013E0 0A0D                       16322+         SVC   13                 LINK TO ABEND ROUTINE                 04-ABEND
                                   16325+*,<2                                                                    02-00538
 0013E2                            16326+$$$103F  DS    0H                                                       02-00552
                                   16327          SET   ATINDS.ATSZERO          SUB0OOL ZERO NOT SHARED           985.
                       00000 00008 16331+$$$104   EQU   0,ATSZERO                                               X03-$BFLK
                                        +                        INVALID ABSOLUTE FLAG
 0013E2 9608 601B      0001B       16333+         OI    ATINDS,8                         Do set                  01-SET
                                   16334          SET   ATINDS.ATMODE           SUPERVISOR STATE                  986.
                       00000 00001 16338+$$$105   EQU   0,ATMODE INVALID ABSOLUTE FLAG                           03-$BFLK
 0013E6 9601 601B      0001B       16340+         OI    ATINDS,1                         Do set                  01-SET
 0013EA 4110 5020            00020 16341          LA    RS,RTCBTECB             TASK ECB                          987.
 0013EE 5010 6008            00008 16342          ST    RS,ATECBADR              TO PARAMETER LIST                988.
                                   16343          ATTACH SF=(E,(RX)),MF=(E,(RY))                                  989.
                                   16346+* /* MACDATE   11/11/91                                          @L2C*/
                                   16347+* /*
 0013F2 1817                       16352+         LR    1,RY                              LOAD PARAMETER REG 1   03-IHBIN
 0013F4 18F6                       16353+         LR    15,RX              LOAD LIST ADDRESS            @G860PXB 01-ATTAC
 0013F6 9248 F037      00037       16354+         MVI   55(15),72          SET LENGTH OF THIS PARM LIST @G860PXB 01-ATTAC
 0013FA 9680 F008      00008       16355+         OI    8(15),X'80'        SET NEW FORMAT BIT           @G860PXB 01-ATTAC
 0013FE 94FF F03C      0003C       16356+         NI    60(15),255         CLEAR UNWANTED BITS          @ZA72420 01-ATTAC
 001402 9201 F03D      0003D       16357+         MVI   61(15),1           SET FORMAT NUMBER            @G860PXB 01-ATTAC
 001406 0A2A                       16358+         SVC   42                 ISSUE ATTACH SVC             @G860PXB 01-ATTAC
 001408 5010 5014            00014 16359          ST    R1,RTCBTCB               SAVE SUBTASK TCB ADDRESS         990.
                                   16360 *-                                                                       990.01
                                   16361 *-       Temporary code to set CPU affinity.  Added as a                 990.02
                                   16362 *-         bypass for a hardware problem on the ES/9000.                 990.021
                                   16363 *-             1/27/92, Niz                                              990.022
1TASKSERV (TASK00) (09:44) (22MAR04) IHAPSAE  - PSA Extension (ESAME)                                                       Page  134
0Current Usings:  (RTCB,R9) (CPTREAD,R10) (@CPTIME-72,R12)
0Loc    Object Code    Addr1 Addr2  Stmt Lv Lineno    Source Statement           (Hibal 5, Asmedit 3.3)  HLASM R4.0  2004/03/22 09.44
+___    ______ ____    _____ _____  ____ __ ______    ______ _________
0                                  16364 *-                                                                       990.023
                                   16365 *TEMPAFF IF    (RTCBNAME,EQ,'GSTCPU'),BEGIN  CPU process...              990.68
                                   16366 *TEMPAFF L     R3,RTCBTCB                                                990.69
                                   16367 *TEMPAFF WITH  (TCB,R3)                                                  990.7
                                   16368 *TEMPAFF                                                                 990.71
                                   16369 *TEMPAFF IF    (TCBAFFN,EQ,X'FFFF'),BEGIN  No affinity yet...            990.72
                                   16370 *TEMPAFF IC    R0,RTCBNAME+6       Pick up GSTCPU number                 990.73
                                   16371 *TEMPAFF N     R0,=A(X'F')         Convert to binary                     990.74
                                   16372 *TEMPAFF IF    (R0,GT,5),EXIT      Something is wrong, scram             990.75
                                   16373 *TEMPAFF                                                                 990.76
                                   16374 *TEMPAFF QSNAP RTCBNAME,8,MODE=WTO                                       990.77
                                   16375 *TEMPAFF QSNAP (R0)                                                      990.78
                                   16376 *TEMPAFF                                                                 990.79
                                   16377 *TEMPAFF MODESET EXTKEY=ZERO,SAVEKEY=(2)  Get us to key zero             990.8
                                   16378 *TEMPAFF LA    R1,AFFMASKS                                               990.81
                                   16379 *TEMPAFF IC    R0,RTCBNAME+6       Pick up GSTCPU number                 990.82
                                   16380 *TEMPAFF N     R0,=A(X'F')         Convert to binary                     990.83
                                   16381 *TEMPAFF AR    R1,R0                                                     990.84
                                   16382 *TEMPAFF AR    R1,R0                                                     990.85
                                   16383 *TEMPAFF QSNAP @R1,2                                                     990.86
                                   16384 *TEMPAFF MVC   TCBAFFN(2),@R1      Set appropriate affinity              990.87
                                   16385 *TEMPAFF MODESET KEYREG=(2)        Restore key                           990.88
                                   16386 *TEMPAFF END                                                             990.89
                                   16387 *TEMPAFF END                                                             990.9
                                   16388 *TEMPAFF                                                                 990.91
                                   16389 *TEMPAFF          DATA  BEGIN                                            990.92
                                   16390 *TEMPAFF * This assigns CPU5, CPU4, CPU3, CPU2, CPU1, CPU0...            990.93
                                   16391 *TEMPAFF AFFMASKS DC    X'0400',X'0800',X'1000'                          990.94
                                   16392 *TEMPAFF          DC    X'2000',X'4000',X'8000'                          990.95
                                   16393 *TEMPAFF          END                                                    990.96
                                   16394 *-                                                                       990.97
                                   16395 *-       End of temporary code.                                          990.98
                                   16396 *-                                                                       990.99
 00140C 1805                       16397          LR    RVR,RK                  RETURN TASK ID                    991.
                                   16398          END   ,                                                         992.
                  R:6  00000       16403+       $$USING @R6,6                                                    02-00188
                                   16404+*,|<R6 ATTCHLST                                                         02-00198
                  R:7  00000       16408+       $$USING @R7,7                                                    02-00188
                                   16409+*,|<R7 TASKPARM                                                         02-00198
                                   16410+*,<1                                                                    01-00538
                  R:9  00000       16418+       $$USING RTCB,9                                                   02-00188
                                   16419+*,|>R9 RTCB                                                             02-00217
                  R:5  00000       16423+       $$USING @R5,5                                                    02-00188
                                   16424+*,|<R5 RTCB                                                             02-00198
                                   16425          PEND                                                            993.
                  R:C  00000       16431+       $$USING @R12,12                                                  03-00188
                                   16432+*,|<R12 @SPAWN-72                                                       03-00198
                  R:A  00000       16436+       $$USING @R10,10                                                  03-00188
                                   16437+*,|<R10 SPAWN                                                           03-00198
 00140E                            16438+$$$95F   DS    0H                                                       02-00552
 00140E 981F C008            00008 16439+         LM    R1,R15,8(WAR)           Restore entry registers          01-PEND
 001412 9680 C000      00000       16440+         OI    0(WAR),X'80'            Indicate return                  01-PEND
 001416 0B0E                       16441+         BSM   0,RAR                   Return to caller                 01-PEND
                  R:D  00000       16447+       $$USING @R13,13                                                  03-00188
1TASKSERV (TASK00) (09:44) (22MAR04) IHAPSAE  - PSA Extension (ESAME)                                                       Page  135
0Current Usings:  (RTCB,R9) (CPTREAD,R10) (@CPTIME-72,R12)
0Loc    Object Code    Addr1 Addr2  Stmt Lv Lineno    Source Statement           (Hibal 5, Asmedit 3.3)  HLASM R4.0  2004/03/22 09.44
+___    ______ ____    _____ _____  ____ __ ______    ______ _________
0                                  16448+*,|<R13 @MEMFREE-72                                                     03-00198
                                   16449 *                                                                        994.
                                   16450 TASKABND ABEND 2,DUMP                                                    995.
 001418                            16451+TASKABND DS    0H                                                       01-ABEND
 001418 4110 0002            00002 16454+         LA    1,2                               LOAD PARAMETER REG 1   02-IHBIN
 00141C 4100 0080            00080 16455+         LA    0,128(0,0)         DUMP/STEP/DUMPOPTS/REASON    @G860P1F 01-ABEND
 001420 8900 0018            00018 16456+         SLL   0,24(0)            SHIFT TO HIGH ORDER                   01-ABEND
 001424 1610                       16457+         OR    1,0                OR IN WITH COMPCODE                   01-ABEND
 001426 0A0D                       16458+         SVC   13                 LINK TO ABEND ROUTINE                 01-ABEND
1TASKSERV (TASK00) (09:44) (22MAR04) IHAPSAE  - PSA Extension (ESAME)                                                       Page  136
0Current Usings:  (RTCB,R9) (CPTREAD,R10) (@CPTIME-72,R12)
0Loc    Object Code    Addr1 Addr2  Stmt Lv Lineno    Source Statement           (Hibal 5, Asmedit 3.3)  HLASM R4.0  2004/03/22 09.44
+___    ______ ____    _____ _____  ____ __ ______    ______ _________
0                                  16460 *******************************************************************      997.
                                   16461 *                                                                 *      998.
                                   16462 *    CANTASK  --  Remove a task                                   *      999.
                                   16463 *                                                                 *     1000.
                                   16464 *                                                                 *     1001.
                                   16465 *     Input - TASKID (RTCB pointer) in @FUNCPRM                   *     1002.
                                   16466 *                                                                 *     1003.
                                   16467 *    Output - None                                                *     1004.
                                   16468 *                                                                 *     1005.
                                   16469 *                                                                 *     1006.
                                   16470 *                                                                 *     1007.
                                   16471 *                                                                 *     1008.
                                   16472 *                                                                 *     1009.
                                   16473 *                                                                 *     1010.
                                   16474 *******************************************************************     1011.
-
                                   16476 CANTASK  PROC  @FUNCPRM,SCOPE=GLOBAL                                    1013.
 001428                            16479+$$$106S      DS 0H                                                      02-BEGIN
                                   16480+         ENTRY CANTASK                                                  01-PROC
 001428                            16481+         DS    0H                      align on a halfword              01-PROC
 001428 C3C1D5E3C1E2D240           16482+         DC    CL8'CANTASK'            Routine Name                     01-PROC
 001430 0008                       16483+         DC    AL2(8)                  Length of the parm area          01-PROC
 001432 0000                       16484+         DC    AL2(0)                  Length of the local work area    01-PROC
 001434 900F D004            00004 16485+CANTASK  STM   R0,R15,4(SPR)           Save the entry registers         01-PROC
 001438 18AF                       16486+         LR    BR,EPAR                 Get the entry point address      01-PROC
                  R:A  01434       16496+       $$USING CANTASK,BR                                               04-00188
                                   16497+*,|>R10 CANTASK                                                         04-00217
 00143A 50D0 C000            00000 16500+         ST    SPR,0(,WAR)             Link this to the previous        01-PROC
 00143E 18CD                       16501+         LR    WAR,SPR                 Update the work area pointer     01-PROC
 001440 9680 C000      00000       16502+         OI    0(WAR),X'80'            Mark this as last in chain       01-PROC
                  R:C FFFFB8       16512+       $$USING @FUNCPRM-72,WAR                                          04-00188
                                   16513+*,|>R12 @FUNCPRM-72                                                     04-00217
 001444 41D0 C050            00050 16516+         LA    SPR,80(,WAR)                                             01-PROC
                                   16517          MEMGET 4,TYPE=BELOW16M                                         1014.
                  R:D FFFFB8       16528+       $$USING @MEMGET-72,SPR                                           03-00188
                                   16529+*,|>R13 @MEMGET-72                                                      03-00217
 001448 D709 D048 D048 00000 00000 16536+         XC    @MEMGET(10),@MEMGET                                      03-CLEAR
 00144E 4100 0004            00004 16543+         LA    RVR,4                                                    03-$L
 001452 5000 D04C            00004 16544+         ST    RVR,@MGLEN              Set length parameter             01-MEMGE
 001456 9201 D051      00009       16551+         MVI   MGBEST,1                                                 02-SET
                                   16553+*JOIN
 00145A 58F0 A310            01744 16554+         L     EPAR,=V(MEMGET)                                          02-VCALL
 00145E 0DEF                       16555+         BASR  RAR,EPAR                                                 02-VCALL
 001460 1830                       16556          LR    RB,RVR                  AREA ADDRESS                     1015.
 001462 5820 C048            00000 16557          L     RA,@FUNCDTA             TASK ID                          1016.
                                   16558          WITH  (RTCB,RA),BEGIN                                          1017.
                  R:9  00000       16572+       $$USING @R9,9                                                    05-00188
                                   16573+*,|<R9 RTCB                                                             05-00198
                  R:2  00000       16575+       $$USING RTCB,RA                                                  03-00188
                                   16576+*,|>R2 RTCB                                                             03-00217
                                   16579+*,>1                                                                    02-BEGIN
 001466 5810 2014            00014 16580          L  RS,RTCBTCB                 TCB address                      1018.
1TASKSERV (TASK00) (09:44) (22MAR04) IHAPSAE  - PSA Extension (ESAME)                                                       Page  137
0Current Usings:  (RTCB,R9) (CPTREAD,R10) (@CPTIME-72,R12)
0Loc    Object Code    Addr1 Addr2  Stmt Lv Lineno    Source Statement           (Hibal 5, Asmedit 3.3)  HLASM R4.0  2004/03/22 09.44
+___    ______ ____    _____ _____  ____ __ ______    ______ _________
0                                  16581          END   ,                                                        1019.
                                   16583+*,<1                                                                    01-00538
                  R:9  00000       16591+       $$USING RTCB,9                                                   02-00188
                                   16592+*,|>R9 RTCB                                                             02-00217
                  R:2  00000       16596+       $$USING @R2,2                                                    02-00188
                                   16597+*,|<R2 RTCB                                                             02-00198
 00146A 5010 3000            00000 16598          ST    RS,@RB                  SET DETACH PARAMETER             1020.
                                   16599          DETACH (RB),STAE=YES          Say goodnight Gracie             1021.
                                   16600+*             MACDATE = 11/28/87
 00146E 1813                       16602+         LR    1,RB                  LOAD PARAMETER REGISTER 1          01-DETAC
 001470 4100 0080            00080 16603+         LA    0,X'80'(0,0)   GET BIT IN REGISTER                       01-DETAC
 001474 8900 0018            00018 16604+         SLL   0,24(0)        SHIFT INTO HIGH BIT POSITION              01-DETAC
 001478 1610                       16605+         OR    1,0            SET HIGH ORDER BIT IN REG 1               01-DETAC
 00147A 0A3E                       16606+         SVC   62             ISSUE DETACH SVC                          01-DETAC
                                   16607          MEMFREE 4,A=(RB),TYPE=BELOW16M                                 1022.
                  R:D  00000       16618+       $$USING @R13,13                                                  05-00188
                                   16619+*,|<R13 @MEMGET-72                                                      05-00198
                  R:D FFFFB8       16621+       $$USING @MEMFREE-72,SPR                                          03-00188
                                   16622+*,|>R13 @MEMFREE-72                                                     03-00217
 00147C D709 D048 D048 00000 00000 16629+         XC    @MEMFREE(10),@MEMFREE                                    03-CLEAR
 001482 4100 0004            00004 16636+         LA    RVR,4                                                    03-$L
 001486 5000 D04C            00004 16637+         ST    RVR,@MFLEN              Set length parameter             01-MEMFR
 00148A 5030 D048            00000 16638+         ST    RB,@MFLOC               Set length parameter             01-MEMFR
                                   16640+*JOIN
 00148E 58F0 A338            0176C 16641+         L     EPAR,=V(MEMFREE)                                         02-VCALL
 001492 0DEF                       16642+         BASR  RAR,EPAR                                                 02-VCALL
                                   16643          PEND  ,                                                        1023.
                  R:C  00000       16649+       $$USING @R12,12                                                  03-00188
                                   16650+*,|<R12 @FUNCPRM-72                                                     03-00198
                  R:A  00000       16654+       $$USING @R10,10                                                  03-00188
                                   16655+*,|<R10 CANTASK                                                         03-00198
 001494                            16656+$$$106F  DS    0H                                                       02-00552
 001494 981F C008            00008 16657+         LM    R1,R15,8(WAR)           Restore entry registers          01-PEND
 001498 9680 C000      00000       16658+         OI    0(WAR),X'80'            Indicate return                  01-PEND
 00149C 0B0E                       16659+         BSM   0,RAR                   Return to caller                 01-PEND
                  R:D  00000       16665+       $$USING @R13,13                                                  03-00188
                                   16666+*,|<R13 @MEMFREE-72                                                     03-00198
1TASKSERV (TASK00) (09:44) (22MAR04) IHAPSAE  - PSA Extension (ESAME)                                                       Page  138
0Current Usings:  (RTCB,R9) (CPTREAD,R10) (@CPTIME-72,R12)
0Loc    Object Code    Addr1 Addr2  Stmt Lv Lineno    Source Statement           (Hibal 5, Asmedit 3.3)  HLASM R4.0  2004/03/22 09.44
+___    ______ ____    _____ _____  ____ __ ______    ______ _________
0                                  16668          COPY  SBTPARM                                                  1025.
                                   16669=*******************************************************************
                                   16670=*                                                                 *
                                   16671=*       SBTPARM -- Sub-task entry parameter list                  *
                                   16672=*                                                                 *
                                   16673=*******************************************************************
0                                  16675=SBTPARM  RECORD BEGIN
                                   16676+*PUSH,NOGEN
 000000                00000 00004 16677+$$$RSBTPARM DSECT                                                       01-RECOR
                                   16678+*POP
                                   16681+*,>1                                                                    02-BEGIN
                                   16682+*PUSH,GEN
 000000                            16683=SBTDATA  DS    A                       Parameter
                                   16684=         END   ,
                                   16686+*,<1                                                                    01-00538
                                   16687+*POP
                                   16688+*PUSH,NOGEN
 000004                00004 00004 16689+         ORG                                                            01-00599
                       00000 00004 16690+SBTPARM  EQU   $$$RSBTPARM,*-$$$RSBTPARM,C'J'                           01-00606
 00149E                00975 017B0 16691+$$$C1TASKSERV LOCTR                                                     01-00608
                                   16692+*POP
1TASKSERV (TASK00) (09:44) (22MAR04) IHAPSAE  - PSA Extension (ESAME)                                                       Page  139
0Current Usings:  (RTCB,R9) (CPTREAD,R10) (@CPTIME-72,R12)
0Loc    Object Code    Addr1 Addr2  Stmt Lv Lineno    Source Statement           (Hibal 5, Asmedit 3.3)  HLASM R4.0  2004/03/22 09.44
+___    ______ ____    _____ _____  ____ __ ______    ______ _________
0                                  16694 *******************************************************************     1027.
                                   16695 *                                                                 *     1028.
                                   16696 *    TASKSTRT - Initialize and start up a sub-task                *     1029.
                                   16697 *                                                                 *     1030.
                                   16698 *                                                                 *     1031.
                                   16699 *     Input -  TASKPARM                                           *     1032.
                                   16700 *                                                                 *     1033.
                                   16701 *    Output -                                                     *     1034.
                                   16702 *                                                                 *     1035.
                                   16703 *                                                                 *     1036.
                                   16704 *                                                                 *     1037.
                                   16705 *                                                                 *     1038.
                                   16706 *                                                                 *     1039.
                                   16707 *                                                                 *     1040.
                                   16708 *******************************************************************     1041.
-
                                   16710 TASKSTRT LABEL ,                                                        1043.
 00149E                            16711+TASKSTRT DS    0H                                                       01-LABEL
 00149E 90EC D00C            0000C 16712          STM   R14,R12,@R13+12         SAVE ENTRY REGS                  1044.
 0014A2 18AF                       16713          LR    BR,R15                                                   1045.
                                   16714          USING TASKSTRT,BR                                              1046.
                  R:A  0149E       16721+       $$USING TASKSTRT,BR                                              01-00188
                                   16722+*,|>R10 TASKSTRT                                                        01-00217
 0014A4 1871                       16723          LR    RY,R1                   PARAMETER LIST                   1047.
                                   16724          USING TASKPARM,RY                                              1048.
                  R:7  00000       16731+       $$USING TASKPARM,RY                                              01-00188
                                   16732+*,|>R7 TASKPARM                                                         01-00217
                                   16733 *                                                                       1049.
                                   16734 *  SWITCH TO AMODE 31                                                   1050.
                                   16735 *                                                                       1051.
 0014A6 4110 A012            014B0 16736          LA    RS,GOAMOD31                                              1052.
 0014AA 5610 A2D2            01770 16737          O     RS,=X'80000000'                                          1053.
 0014AE 0B01                       16738          BSM   0,RS                    SET AMODE 31                     1054.
                                   16739 GOAMOD31 LABEL ,                                                        1055.
 0014B0                            16740+GOAMOD31 DS    0H                                                       01-LABEL
 0014B0 5890 7000            00000 16741          L     RTCBR,TPLRTCB           GET RTCB POINTER                 1056.
 0014B4 50D0 901C            0001C 16742          ST    R13,RTCBMSV             MVS SAVE AREA                    1057.
                                   16743 *                                                                       1058.1
                                   16744 *  SET UP STACK                                                         1059.
                                   16745 *                                                                       1060.
 0014B8 58C0 7004            00004 16746          L     WAR,TPLTSTK             STACK BACK-POINTER               1061.
 0014BC 41D0 C008            00008 16747          LA    SPR,@WAR+8              TEMPORARY STACK                  1062.
 0014C0 5830 7014            00014 16748          L     RB,TPLNSTK              PERMANENT STACK SIZE             1063.
                                   16749          IF    (RB,Z),'L  RB,=A(512*4)'   DEFAULT IS 512 WORDS          1064.
                                   16756+*JOIN
 0014C4 1233                       16757+         LTR   RB,RB                                                    03-$REL
 0014C6 4770 A030            014CE 16758+$$$107B  BC    15-8,$$$107F                                             01-IF
 0014CA                            16761+$$$107T  DS    0H                                                       03-LABEL
                                   16762+*,>1                                                                    02-BEGIN
 0014CA 5830 A2D6            01774 16764+         L     RB,=A(512*4)                                             02-GEN
                                   16767+*,<1                                                                    02-00538
 0014CE                            16768+$$$107F  DS    0H                                                       02-00552
1TASKSERV (TASK00) (09:44) (22MAR04) IHAPSAE  - PSA Extension (ESAME)                                                       Page  140
0Current Usings:  (RTCB,R9) (CPTREAD,R10) (@CPTIME-72,R12)
0Loc    Object Code    Addr1 Addr2  Stmt Lv Lineno    Source Statement           (Hibal 5, Asmedit 3.3)  HLASM R4.0  2004/03/22 09.44
+___    ______ ____    _____ _____  ____ __ ______    ______ _________
0                                  16769          POOLGET (RB),TYPE=GLOBAL      Get the stack memory             1065.
                  R:D FFFFB8       16779+       $$USING @MEMORY-72,SPR                                           03-00188
                                   16780+*,|>R13 @MEMORY-72                                                      03-00217
 0014CE D70B D048 D048 00000 00000 16787+         XC    @MEMORY(12),@MEMORY                                      03-CLEAR
 0014D4 5030 D04C            00004 16789+         ST    RB,@MEMLEN               Set length parameter            01-POOLG
 0014D8                            16798+  DS 0SL2(MEMTGLOB-MEMTA16M,MEMTA16M-MEMTGLOB) FLAGS NOT IN SAME BYTE   03-$BV
 0014D8 9218 D04A      00002       16799+         MVI   MEMTA16M,24                                              02-SET
                                   16801+*JOIN
 0014DC 58F0 A27A            01718 16802+         L     EPAR,=V(POOLGET)                                         02-VCALL
 0014E0 0DEF                       16803+         BASR  RAR,EPAR                                                 02-VCALL
 0014E2 18D0                       16804          LR    SPR,RVR                 Stack pointer                    1066.
 0014E4 5030 D004            00004 16805          ST    RB,4(,SPR)              Save the stack length            1067.
 0014E8 41DD 0008            00008 16806          LA    SPR,8(SPR)              then point to next doubleword    1068.
 0014EC 50D0 9018            00018 16807          ST    SPR,RTCBSTK             Save the stack pointer           1069.
                                   16808          PSET  TSKPRM                                                   1070.
                  R:D  00000       16817+       $$USING @R13,13                                                  04-00188
                                   16818+*,|<R13 @MEMORY-72                                                      04-00198
                  R:D FFFFB8       16820+       $$USING TSKPRM-72,SPR                                            02-00188
                                   16821+*,|>R13 TSKPRM-72                                                       02-00217
 0014F0 D703 D048 D048 00000 00000 16828+         XC    TSKPRM,TSKPRM                                            02-CLEAR
 0014F6 5070 D048            00000 16829          ST    RY,TSKPRVAL             Save the task parm pointer       1071.
                                   16830          LCALL TSKSTART                Initial task procedure           1072.
 0014FA 41F0 A07A            01518 16837+         LA    EPAR,TSKSTART                                            03-$L
 0014FE 0DEF                       16838+         BASR  RAR,EPAR                                                 01-LCALL
                                   16839 *                                                                       1073.
                                   16840 *  TASK HAS COMPLETED - RETURN TO MVS                                   1074.
                                   16841 *                                                                       1075.
 001500 58D0 901C            0001C 16842          L     R13,RTCBMSV             SAVE AREA POINTER                1076.
 001504 98EC D00C            0000C 16843          LM    R14,R12,12(R13)         RESTORE REGS                     1077.
                                   16844          CLEAR R15                                                      1078.
 001508 1BFF                       16847+         SR    R15,R15                                                  01-CLEAR
 00150A 07FE                       16848          BR    R14                     RETURN TO MVS                    1079.
                                   16849          DROP  BR,RY                                                    1080.
                  R:A  00000       16854+       $$USING @R10,10                                                  02-00188
                                   16855+*,|<R10 TASKSTRT                                                        02-00198
                  R:7  00000       16860+       $$USING @R7,7                                                    02-00188
                                   16861+*,|<R7 TASKPARM                                                         02-00198
1TASKSERV (TASK00) (09:44) (22MAR04) IHAPSAE  - PSA Extension (ESAME)                                                       Page  141
0Current Usings:  (RTCB,R9) (CPTREAD,R10) (@CPTIME-72,R12)
0Loc    Object Code    Addr1 Addr2  Stmt Lv Lineno    Source Statement           (Hibal 5, Asmedit 3.3)  HLASM R4.0  2004/03/22 09.44
+___    ______ ____    _____ _____  ____ __ ______    ______ _________
0                                  16863 *******************************************************************     1082.
                                   16864 *                                                                 *     1083.
                                   16865 *    TSKSTART - Initial procedure of a sub-task.                  *     1084.
                                   16866 *                                                                 *     1085.
                                   16867 *                                                                 *     1086.
                                   16868 *     Input -  TSKPRM                                             *     1087.
                                   16869 *                                                                 *     1088.
                                   16870 *    Output -                                                     *     1089.
                                   16871 *                                                                 *     1090.
                                   16872 *******************************************************************     1091.
-                                  16874 TSKPRM   RECORD BEGIN                                                   1093.
                                   16875+*PUSH,NOGEN
 000000                00000 00004 16876+$$$RTSKPRM DSECT                                                        01-RECOR
                                   16877+*POP
                                   16880+*,>1                                                                    02-BEGIN
                                   16881+*PUSH,GEN
 000000                            16882 TSKPRVAL DS    A                       Address of the TASKPARM          1094.
                                   16883          END   ,                                                        1095.
                                   16885+*,<1                                                                    01-00538
                                   16886+*POP
                                   16887+*PUSH,NOGEN
 000004                00004 00004 16888+         ORG                                                            01-00599
                       00000 00004 16889+TSKPRM   EQU   $$$RTSKPRM,*-$$$RTSKPRM,C'J'                             01-00606
 00150C                00975 017B0 16890+$$$C1TASKSERV LOCTR                                                     01-00608
                                   16891+*POP
-                                  16893 TSKSTART PROC  TSKPRM,SCOPE=LOCAL,BCH=NO                                1097.
 00150C                            16896+$$$108S      DS 0H                                                      02-BEGIN
 00150C                            16897+         DS    0H                      align on a halfword              01-PROC
 00150C E3E2D2E2E3C1D9E3           16898+         DC    CL8'TSKSTART'           Routine Name                     01-PROC
 001514 0008                       16899+         DC    AL2(8)                  Length of the parm area          01-PROC
 001516 0000                       16900+         DC    AL2(0)                  Length of the local work area    01-PROC
 001518 900F D004            00004 16901+TSKSTART STM   R0,R15,4(SPR)           Save the entry registers         01-PROC
 00151C 18AF                       16902+         LR    BR,EPAR                 Get the entry point address      01-PROC
                  R:A  01518       16912+       $$USING TSKSTART,BR                                              04-00188
                                   16913+*,|>R10 TSKSTART                                                        04-00217
 00151E 18CD                       16916+         LR    WAR,SPR                 Update the work area pointer     01-PROC
 001520 9680 C000      00000       16917+         OI    0(WAR),X'80'            Mark this as last in chain       01-PROC
                  R:D  00000       16932+       $$USING @R13,13                                                  06-00188
                                   16933+*,|<R13 TSKPRM-72                                                       06-00198
                  R:C FFFFB8       16935+       $$USING TSKPRM-72,WAR                                            04-00188
                                   16936+*,|>R12 TSKPRM-72                                                       04-00217
 001524 41D0 C050            00050 16939+         LA    SPR,80(,WAR)                                             01-PROC
 001528 5870 C048            00000 16940          L     RY,TSKPRVAL             Get the TASKPARM  pointer        1098.
                                   16941          WITH  (TASKPARM,RY)           Address it                       1099.
                  R:7  00000       16950+       $$USING TASKPARM,RY                                              03-00188
                                   16951+*,|>R7 TASKPARM                                                         03-00217
                                   16954          MEMFREE 48*4,A=TPLTSTK,TYPE=GLOBAL     FREE TEMPORARY STACK    1100.
                  R:D FFFFB8       16965+       $$USING @MEMFREE-72,SPR                                          03-00188
                                   16966+*,|>R13 @MEMFREE-72                                                     03-00217
 00152C D709 D048 D048 00000 00000 16973+         XC    @MEMFREE(10),@MEMFREE                                    03-CLEAR
1TASKSERV (TASK00) (09:44) (22MAR04) IHAPSAE  - PSA Extension (ESAME)                                                       Page  142
0Current Usings:  (RTCB,R9) (CPTREAD,R10) (@CPTIME-72,R12)
0Loc    Object Code    Addr1 Addr2  Stmt Lv Lineno    Source Statement           (Hibal 5, Asmedit 3.3)  HLASM R4.0  2004/03/22 09.44
+___    ______ ____    _____ _____  ____ __ ______    ______ _________
0001532 4100 00C0            000C0 16980+         LA    RVR,48*4                                                 03-$L
 001536 5000 D04C            00004 16981+         ST    RVR,@MFLEN              Set length parameter             01-MEMFR
 00153A 5800 7004            00004 16985+         L     RVR,TPLTSTK                                              02-$L
 00153E 5000 D048            00000 16986+         ST    RVR,@MFLOC              Set length parameter             01-MEMFR
 001542                            16995+  DS 0SL2(MFGLOB-MFA16M,MFA16M-MFGLOB)         FLAGS NOT IN SAME BYTE   03-$BV
 001542 9212 D051      00009       16996+         MVI   MFA16M,18                                                02-SET
                                   16998+*JOIN
 001546 58F0 A254            0176C 16999+         L     EPAR,=V(MEMFREE)                                         02-VCALL
 00154A 0DEF                       17000+         BASR  RAR,EPAR                                                 02-VCALL
                                   17001 *                                                                       1101.
                                   17002 *  INITIALIZE TRACE TABLE                                               1102.
                                   17003 *                                                                       1103.
                                   17004          PSET  @TRCINT,CLEAR=NO                                         1104.
                  R:D  00000       17013+       $$USING @R13,13                                                  04-00188
                                   17014+*,|<R13 @MEMFREE-72                                                     04-00198
                  R:D FFFFB8       17016+       $$USING @TRCINT-72,SPR                                           02-00188
                                   17017+*,|>R13 @TRCINT-72                                                      02-00217
 00154C D203 D048 7010 00000 00010 17018          MVC   @TRCINM,TPLNTRC         NUMBER OF TRACE ENTRIES          1105.
                                   17019          ACALL TRCEINIT                TRACE TABLE                      1106.
                                   17020+*JOIN
 001552 58F0 A20C            01724 17024+         L     EPAR,=A(TRCEINIT)                                        02-$L
 001556 0DEF                       17025+         BASR  RAR,EPAR                                                 01-ACALL
                                   17026          MEMINIT ,                     Initialize local pool            1107.
                  R:D  00000       17037+       $$USING @R13,13                                                  05-00188
                                   17038+*,|<R13 @TRCINT-72                                                      05-00198
                  R:D FFFFB8       17040+       $$USING @MEMINIT-72,SPR                                          03-00188
                                   17041+*,|>R13 @MEMINIT-72                                                     03-00217
 001558 D701 D048 D048 00000 00000 17048+         XC    @MEMINIT(2),@MEMINIT                                     03-CLEAR
                                   17050+*JOIN
 00155E 58F0 A220            01738 17051+         L     EPAR,=V(MEMINIT)                                         02-VCALL
 001562 0DEF                       17052+         BASR  RAR,EPAR                                                 02-VCALL
                                   17053          ACALL CPTSTART                INITIALIZE CPU TIMER             1108.
                                   17054+*JOIN
 001564 58F0 A210            01728 17058+         L     EPAR,=A(CPTSTART)                                        02-$L
 001568 0DEF                       17059+         BASR  RAR,EPAR                                                 01-ACALL
                                   17060 *                                                                       1109.
                                   17061 *  INITIALIZE ESTAE                                                     1110.
                                   17062 *                                                                       1111.
                                   17063          MEMGET L'ESTADATA                                              1112.
                  R:D  00000       17074+       $$USING @R13,13                                                  05-00188
                                   17075+*,|<R13 @MEMINIT-72                                                     05-00198
                  R:D FFFFB8       17077+       $$USING @MEMGET-72,SPR                                           03-00188
                                   17078+*,|>R13 @MEMGET-72                                                      03-00217
 00156A D709 D048 D048 00000 00000 17085+         XC    @MEMGET(10),@MEMGET                                      03-CLEAR
 001570 4100 00B8            000B8 17092+         LA    RVR,L'ESTADATA                                           03-$L
 001574 5000 D04C            00004 17093+         ST    RVR,@MGLEN              Set length parameter             01-MEMGE
 001578                            17102+  DS 0SL2(MGBEST-MGA16M,MGA16M-MGBEST)         FLAGS NOT IN SAME BYTE   03-$BV
 001578 9211 D051      00009       17103+         MVI   MGA16M,17                                                02-SET
                                   17105+*JOIN
 00157C 58F0 A22C            01744 17106+         L     EPAR,=V(MEMGET)                                          02-VCALL
 001580 0DEF                       17107+         BASR  RAR,EPAR                                                 02-VCALL
 001582 1830                       17108          LR    RB,RVR                                                   1113.
 001584 5030 9024            00024 17109          ST    RB,RTCBESTA             ESTAE WORK AREA                  1114.
                                   17110          WITH  (ESTADATA,RB),BEGIN                                      1115.
1TASKSERV (TASK00) (09:44) (22MAR04) IHAPSAE  - PSA Extension (ESAME)                                                       Page  143
0Current Usings:  (RTCB,R9) (CPTREAD,R10) (@CPTIME-72,R12)
0Loc    Object Code    Addr1 Addr2  Stmt Lv Lineno    Source Statement           (Hibal 5, Asmedit 3.3)  HLASM R4.0  2004/03/22 09.44
+___    ______ ____    _____ _____  ____ __ ______    ______ _________
0                 R:3  00000       17119+       $$USING ESTADATA,RB                                              03-00188
                                   17120+*,|>R3 ESTADATA                                                         03-00217
                                   17123+*,>1                                                                    02-BEGIN
 001588 D201 3006 A268 00006 01780 17124          MVC   EDRUBMSK,=X'FFFF'       SET MASK                         1116.
 00158E D217 3048 A280 00048 01798 17125          MVC   EDESTAE,MODESTAE        MOVE IN PARM LIST                1117.
 001594 4120 A0E2            015FA 17126          LA    RA,ESTAEXIT             RECOVERY ROUTINE                 1118.
                                   17127 *GEN                                                                    1119.
                                   17128          ESTAE (RA),PARAM=(RTCBR),MF=(E,EDESTAE)   SET ESTAE            1120.
                                   17130+*    MACDATE   10/01/94                                        @G860P1C
 001598 4110 3048            00048 17133+         LA    1,EDESTAE                         LOAD PARAMETER REG 1   02-IHBIN
 00159C 5021 0014            00014 17134+         ST    RA,20(1)                STORE USER EXIT ADDRESS @G860P38 01-ESTAE
 0015A0 94BF 1000      00000       17135+         NI    0(1),191                TURN OFF FLAG BITS               01-ESTAE
 0015A4 9610 1000      00000       17136+         OI    0(1),16                 FLAGS FOR TCB,PURGE,ASYNCH,     X01-ESTAE
                                        +                                       AND CANCEL                  @D1C
 0015A8 5090 1004            00004 17137+         ST    RTCBR,4(0,1)            MODIFY LIST - PARAM ADDR         01-ESTAE
 0015AC 94F7 1000      00000       17138+         NI    0(1),B'11110111'      INIT BIT 5 TO 0             @P1C   01-ESTAE
 0015B0 94E4 100C      0000C       17139+         NI    12(1),B'11100100'     INIT BIT 4,5,7,8 TO O       @L2C   01-ESTAE
 0015B4 9201 100D      0000D       17140+         MVI   13(1),1       FLAG FOUR BYTE EXIT ADDR        @G860P1C   01-ESTAE
 0015B8 D701 100E 100E 0000E 0000E 17141+         XC    14(2,1),14(1)         INIT RESERVED FLD TO 0  @G860P1C   01-ESTAE
 0015BE 4100 0100            00100 17142+         LA    0,256(0,0)              CREATE & PARMLST EQ 0   @ZMD0006 01-ESTAE
 0015C2 0A3C                       17143+         SVC   60                      ISSUE STAE SVC                   01-ESTAE
                                   17144 *NOGEN                                                                  1121.
                                   17145          END                                                            1122.
                                   17147+*,<1                                                                    01-00538
                  R:3  00000       17151+       $$USING @R3,3                                                    02-00188
                                   17152+*,|<R3 ESTADATA                                                         02-00198
 0015C4 5820 7008            00008 17153          L     RA,TPLEP                ENTRY POINT                      1123.
 0015C8 5830 700C            0000C 17154          L     RB,TPLPARM              USER PARAMETER                   1124.
                                   17155          MEMFREE L'TASKPARM,A=(RY),TYPE=GLOBAL  FREE PARM MEMORY        1125.
                  R:D  00000       17166+       $$USING @R13,13                                                  05-00188
                                   17167+*,|<R13 @MEMGET-72                                                      05-00198
                  R:D FFFFB8       17169+       $$USING @MEMFREE-72,SPR                                          03-00188
                                   17170+*,|>R13 @MEMFREE-72                                                     03-00217
 0015CC D709 D048 D048 00000 00000 17177+         XC    @MEMFREE(10),@MEMFREE                                    03-CLEAR
 0015D2 4100 0018            00018 17184+         LA    RVR,L'TASKPARM                                           03-$L
 0015D6 5000 D04C            00004 17185+         ST    RVR,@MFLEN              Set length parameter             01-MEMFR
 0015DA 5070 D048            00000 17186+         ST    RY,@MFLOC               Set length parameter             01-MEMFR
 0015DE                            17195+  DS 0SL2(MFGLOB-MFA16M,MFA16M-MFGLOB)         FLAGS NOT IN SAME BYTE   03-$BV
 0015DE 9212 D051      00009       17196+         MVI   MFA16M,18                                                02-SET
                                   17198+*JOIN
 0015E2 58F0 A254            0176C 17199+         L     EPAR,=V(MEMFREE)                                         02-VCALL
 0015E6 0DEF                       17200+         BASR  RAR,EPAR                                                 02-VCALL
                                   17201          PSET  SBTPARM,CLEAR=NO        SUBTASK PARMS                    1126.
                  R:D  00000       17210+       $$USING @R13,13                                                  04-00188
                                   17211+*,|<R13 @MEMFREE-72                                                     04-00198
                  R:D FFFFB8       17213+       $$USING SBTPARM-72,SPR                                           02-00188
                                   17214+*,|>R13 SBTPARM-72                                                      02-00217
 0015E8 5030 D048            00000 17215          ST    RB,SBTDATA              SET PARM                         1127.
                                   17216          ACALL (RA)                    BRANCH TO SUBTASK                1128.
                                   17217+*JOIN
 0015EC 18F2                       17221+         LR    EPAR,(RA)                                                02-$L
 0015EE 0DEF                       17222+         BASR  RAR,EPAR                                                 01-ACALL
                                   17223 *                                                                       1129.
                                   17224 *  The task is done                                                     1130.
1TASKSERV (TASK00) (09:44) (22MAR04) IHAPSAE  - PSA Extension (ESAME)                                                       Page  144
0Current Usings:  (RTCB,R9) (CPTREAD,R10) (@CPTIME-72,R12)
0Loc    Object Code    Addr1 Addr2  Stmt Lv Lineno    Source Statement           (Hibal 5, Asmedit 3.3)  HLASM R4.0  2004/03/22 09.44
+___    ______ ____    _____ _____  ____ __ ______    ______ _________
0                                  17225 *                                                                       1131.
                                   17226          PEND                                                           1132.
                  R:7  00000       17232+       $$USING @R7,7                                                    03-00188
                                   17233+*,|<R7 TASKPARM                                                         03-00198
                  R:D  00000       17241+       $$USING @R13,13                                                  05-00188
                                   17242+*,|<R13 SBTPARM-72                                                      05-00198
                  R:D FFFFB8       17244+       $$USING TSKPRM-72,13                                             03-00188
                                   17245+*,|>R13 TSKPRM-72                                                       03-00217
                  R:C  00000       17249+       $$USING @R12,12                                                  03-00188
                                   17250+*,|<R12 TSKPRM-72                                                       03-00198
                  R:A  00000       17254+       $$USING @R10,10                                                  03-00188
                                   17255+*,|<R10 TSKSTART                                                        03-00198
 0015F0                            17256+$$$108F  DS    0H                                                       02-00552
 0015F0 981F C008            00008 17257+         LM    R1,R15,8(WAR)           Restore entry registers          01-PEND
 0015F4 9680 C000      00000       17258+         OI    0(WAR),X'80'            Indicate return                  01-PEND
 0015F8 0B0E                       17259+         BSM   0,RAR                   Return to caller                 01-PEND
                  R:D  00000       17265+       $$USING @R13,13                                                  03-00188
                                   17266+*,|<R13 TSKPRM-72                                                       03-00198
1TASKSERV (TASK00) (09:44) (22MAR04) IHAPSAE  - PSA Extension (ESAME)                                                       Page  145
0Current Usings:  (RTCB,R9) (CPTREAD,R10) (@CPTIME-72,R12)
0Loc    Object Code    Addr1 Addr2  Stmt Lv Lineno    Source Statement           (Hibal 5, Asmedit 3.3)  HLASM R4.0  2004/03/22 09.44
+___    ______ ____    _____ _____  ____ __ ______    ______ _________
0                                  17268 *******************************************************************     1134.
                                   17269 *                                                                 *     1135.
                                   17270 *   ESTAE Exit                                                    *     1136.
                                   17271 *                                                                 *     1137.
                                   17272 *                                                                 *     1138.
                                   17273 *     Input - None                                                *     1139.
                                   17274 *                                                                 *     1140.
                                   17275 *    Output - None                                                *     1141.
                                   17276 *                                                                 *     1142.
                                   17277 *                                                                 *     1143.
                                   17278 *                                                                 *     1144.
                                   17279 *                                                                 *     1145.
                                   17280 *                                                                 *     1146.
                                   17281 *                                                                 *     1147.
                                   17282 *******************************************************************     1148.
-
                                   17284          USING *,R15                   ##                               1150.
 0015FA                            17285+$$$109B      DS 0X                                                      01-00076
                  R:F  015FA       17292+       $$USING $$$109B,R15                                              01-00188
                                   17293+*,|>R15 *                                                               01-00217
                                   17294 ESTAEXIT LABEL ,                                                        1151.
 0015FA                            17295+ESTAEXIT DS    0H                                                       01-LABEL
                                   17296          IF    ('CH  R0,=H"12"',EQ),BEGIN     NOT ENOUGH CORE           1152.
 0015FA 4900 F188            01782 17303+         CH    R0,=H'12'                                                04-GEN
 0015FE 4770 F00C            01606 17304+$$$110B  BC    15-8,$$$110F                                             01-IF
 001602                            17307+$$$110T  DS    0H                                                       03-LABEL
                                   17308+*,>1                                                                    02-BEGIN
                                   17309          CLEAR R15                     TELL RTM TO BAG IT               1153.
 001602 1BFF                       17312+         SR    R15,R15                                                  01-CLEAR
 001604 07FE                       17313          BR    R14                     RETURN TO RTM                    1154.
                                   17314          END   ,                                                        1155.
                                   17316+*,<1                                                                    01-00538
 001606                            17317+$$$110F  DS    0H                                                       01-00552
                                   17318          DROP  R15                                                      1156.
                  R:F  00000       17323+       $$USING @R15,15                                                  02-00188
                                   17324+*,|<R15 *                                                               02-00198
 001606 90EC D00C            0000C 17325          STM   R14,R12,@R13+12         SAVE RTM'S REGISTERS             1157.
 00160A 18AF                       17326          LR    BR,R15                                                   1158.
                                   17327          USING ESTAEXIT,BR                                              1159.
                  R:A  015FA       17334+       $$USING ESTAEXIT,BR                                              01-00188
                                   17335+*,|>R10 ESTAEXIT                                                        01-00217
 00160C 1851                       17336          LR    RK,R1                                                    1160.
                                   17337          WITH  (SDWA,RK),BEGIN                                          1161.
                  R:5  00000       17346+       $$USING SDWA,RK                                                  03-00188
                                   17347+*,|>R5 SDWA                                                             03-00217
                                   17350+*,>1                                                                    02-BEGIN
 00160E 5890 5000            00000 17351          L     RTCBR,SDWAPARM          RTCB pointer                     1162.
 001612 5820 9024            00024 17352          L     RA,RTCBESTA             ESTAE Data area                  1163.
                                   17353          WITH  (ESTADATA,RA)                                            1164.
                  R:2  00000       17362+       $$USING ESTADATA,RA                                              03-00188
                                   17363+*,|>R2 ESTADATA                                                         03-00217
                                   17366 *                                                                       1165.
1TASKSERV (TASK00) (09:44) (22MAR04) IHAPSAE  - PSA Extension (ESAME)                                                       Page  146
0Current Usings:  (RTCB,R9) (CPTREAD,R10) (@CPTIME-72,R12)
0Loc    Object Code    Addr1 Addr2  Stmt Lv Lineno    Source Statement           (Hibal 5, Asmedit 3.3)  HLASM R4.0  2004/03/22 09.44
+___    ______ ____    _____ _____  ____ __ ______    ______ _________
0                                  17367 *  COPY IMPORTANT DATA TO INFO AREA                                     1166.
                                   17368 *                                                                       1167.
 001616 4130 2060            00060 17369          LA    RB,EDINFO               RETURN INFO AREA                 1168.
                                   17370          WITH  (ESTAINFO,RB),BEGIN                                      1169.
                  R:3  00000       17379+       $$USING ESTAINFO,RB                                              03-00188
                                   17380+*,|>R3 ESTAINFO                                                         03-00217
                                   17383+*,>2                                                                    02-BEGIN
 00161A D207 3010 5078 00010 00078 17384          MVC   EDEPSW,SDWAEC2          PSW AT ABEND                     1170.
 001620 D207 3008 5080 00008 00080 17385          MVC   EDEPCHK,SDWAAEC2        ILC, INT CODE, EXCEP ADDR        1171.
 001626 D203 3000 5004 00000 00004 17386          MVC   EDEABND,SDWAABCC        ABEND CODE                       1172.
 00162C D203 3004 5054 00004 00054 17387          MVC   EDERSN,SDWAGR15         REASON CODE                      1173.
 001632 D23F 3018 5088 00018 00088 17388          MVC   EDEREGS(4*16),SDWASRSV  MOVE ABEND GPRS                  1174.
                                   17389          END   ,                                                        1175.
                                   17391+*,<2                                                                    01-00538
                  R:3  00000       17395+       $$USING @R3,3                                                    02-00188
                                   17396+*,|<R3 ESTAINFO                                                         02-00198
                                   17397 *                                                                       1176.
                                   17398 *  SEE IF A RETRY IS POSSIBLE                                           1177.
                                   17399 *                                                                       1178.
 001638 9180 50EB      000EB       17400          TM    SDWAERRD,SDWACLUP       Is retry possible                1179.
                                   17401          IF    ON,'CLEAR EDFACTIV'     Nope, don't even try             1180.
 00163C 47E0 A04A            01644 17407+$$$111B  BC    15-1,$$$111F                                             01-IF
 001640                            17410+$$$111T  DS    0H                                                       03-LABEL
                                   17411+*,>2                                                                    02-BEGIN
 001640 947F 2004      00004       17419+         NI    EDFACTIV,255-128                                         03-CLEAR
                                   17422+*,<2                                                                    02-00538
 001644                            17423+$$$111F  DS    0H                                                       02-00552
                                   17424 *                                                                       1181.
                                   17425 *  CHECK FOR ACTIVE RETRY                                               1182.
                                   17426 *                                                                       1183.
                                   17427          IF    EDFACTIV,BEGIN                                           1184.
 001644 9180 2004      00004       17436+         TM    EDFACTIV,128                                             03-$REL
 001648 47E0 A0AA            016A4 17437+$$$112B  BC    15-1,$$$112F                                             01-IF
 00164C                            17440+$$$112T  DS    0H                                                       03-LABEL
                                   17441+*,>2                                                                    02-BEGIN
                                   17442          CLEAR EDFACTIV                                                 1185.
 00164C 947F 2004      00004       17448+         NI    EDFACTIV,255-128                                         01-CLEAR
 001650 5030 2008            00008 17449          ST    RB,EDREGS               ERROR INFO POINTER TO RVR        1186.
 001654 4130 2006            00006 17450          LA    RB,EDRUB                REGISTER UPDATE BLOCK            1187.
 001658 5820 2000            00000 17451          L     RA,EDRETRY              RETRY ADDRESS                    1188.
                                   17452 *                                                                       1190.
                                   17453 *  CANCEL DUMP, RESET REGISTERS, THEN BRANCH TO A RETRY ROUTINE         1191.
                                   17454 *                                                                       1192.
                                   17455 *GEN                                                                    1193.
                                   17456          SETRP RC=4,RETADDR=(RA),RETREGS=YES,RUB=(RB),                 *1194.
                                                        FRESDWA=YES,DUMP=NO,REGS=(14,12),WKAREA=(RK)             1195.
 00165C 0700                       17458+         NOPR  SDWANOPR    IF THIS STATEMENT CAUSES ASSEMBLER ERROR     01-SETRP
                                   17459+*                          IT IMPLIES THAT SETRP AND THE SDWA ARE
                                   17460+*                          BEING USED IMCOMPATABLY           @G38AP2F
 00165E                0165E 0165C 17461+         ORG   *-2         OVERLAY THE PREVIOUS INSTRUCTION  @G38AP2F   01-SETRP
 00165C 1815                       17462+         LR    1,RK         .           ACCESS POINTER TO SDWA          01-SETRP
 00165E 9204 10FC      000FC       17463+         MVI   SDWARCDE-SDWA(1),4      . INITIALIZE RC FIELD            01-SETRP
 001662 18F2                       17464+         LR    15,RA          .        ACCESS RETRY ADDRESS             01-SETRP
 001664 50F0 10F0            000F0 17465+         ST    15,SDWARTYA-SDWA(,1) .  INITIALIZE RETRY ADDRESS FIELD   01-SETRP
1TASKSERV (TASK00) (09:44) (22MAR04) IHAPSAE  - PSA Extension (ESAME)                                                       Page  147
0Current Usings:  (RTCB,R9) (CPTREAD,R10) (@CPTIME-72,R12)
0Loc    Object Code    Addr1 Addr2  Stmt Lv Lineno    Source Statement           (Hibal 5, Asmedit 3.3)  HLASM R4.0  2004/03/22 09.44
+___    ______ ____    _____ _____  ____ __ ______    ______ _________
0001668 9604 10FD      000FD       17466+         OI    SDWAACF2-SDWA(1),SDWAFREE   TURN ON FREE SDWA            01-SETRP
 00166C 947F 1004      00004       17467+         NI    SDWACMPF-SDWA(1),X'FF'-SDWAREQ TURN OFF DUMP INDICATOR   01-SETRP
 001670 9608 10FD      000FD       17468+         OI    SDWAACF2-SDWA(1),SDWAUPRG   TURN ON RETREGS INDICATOR    01-SETRP
 001674 18F3                       17469+         LR    15,RB      .         ACCESS PTR TO REG UPDATE BLOCK      01-SETRP
 001676 4800 F000            00000 17470+         LH    0,0(,15) .              ACCESS REGISTER BIT PATTERN      01-SETRP
 00167A 41F0 F002            00002 17471+         LA    15,2(,15) .             CREATE PTR TO USER REG VALUES    01-SETRP
 00167E 41E0 1088            00088 17472+         LA    14,SDWASRSV-SDWA(,1)    CREATE PTR TO SDWA REG SAVE @L2C 01-SETRP
 001682 8900 0010            00010 17473+         SLL   0,16(0) .               SHIFT BIT PATTERN TO HI BYTE     01-SETRP
 001686 1E00                       17474+R5971    ALR   0,0 .                   SHIFT BIT TO SIGN POSITION       01-SETRP
 001688 47C0 A09C            01696 17475+         BC    12,I5971    .           BRANCH IF NO CARRY INTO SIGN     01-SETRP
 00168C D203 E000 F000 00000 00000 17476+         MVC   0(4,14),0(15) .         MODIFY REGISTER IN SDWA          01-SETRP
 001692 41F0 F004            00004 17477+         LA    15,4(,15) .              UPDATE POINTER                  01-SETRP
 001696 41E0 E004            00004 17478+I5971    LA    14,4(,14) .              UPDATE POINTER IN SDWA          01-SETRP
 00169A 4750 A08C            01686 17479+         BC    5,R5971    .            TEST ALR CONDITION CODE TO TEST  01-SETRP
                                   17480+*                                      IF ALL BITS EXHAUSTED
 00169E 98EC D00C            0000C 17482+         LM    14,12,12(13)                      RESTORE THE REGISTERS  02-RETUR
 0016A2 07FE                       17483+         BR    14                                RETURN                 02-RETUR
                                   17484 *NOGEN                                                                  1196.
                                   17485          END   ELSE,BEGIN                                               1197.
                                   17487+*,<2                                                                    01-00538
 0016A4                            17488+$$$112F  DS    0H                                                       01-00552
 0016A4                            17490+  DC  0S($$$112F-*)  CAUSES ERROR IF ELSE DOESN'T FOLLOW THEN CLAUSE    02-ELSE
 0016A4                016A4 0164A 17491+         ORG   $$$112B+2                                                02-ELSE
 00164A A0AE                       17492+         DC    S($$$113E)                                               02-ELSE
 00164C                0164C 016A4 17493+         ORG                                                            02-ELSE
 0016A4 47F0 A106            01700 17494+         B     $$$113F                   BRANCH AROUND ELSE IF TRUE     02-ELSE
 0016A8                            17498+$$$113E  DS    0H                                                       04-LABEL
                                   17499+*,>2                                                                    03-BEGIN
                                   17500 *                                                                       1198.
                                   17501 * Take care of whatever needs to be done here                           1199.
                                   17502 *                                                                       1200.
                                   17503          SET   EDFABEND                Set the abending flag            1201.
 0016A8 9640 2004      00004       17508+         OI    EDFABEND,64                      Do set                  01-SET
 0016AC 5830 9004            00004 17509          L     RB,RTCBCBAT             Get the CBAT address             1202.
                                   17510          WITH  (CBAT,RB),'L RB,CBATTMCB'  Get the TMCB address          1203.
                  R:3  00000       17519+       $$USING CBAT,RB                                                  03-00188
                                   17520+*,|>R3 CBAT                                                             03-00217
                                   17523+*,>3                                                                    02-BEGIN
 0016B0 5830 307C            0007C 17525+         L     RB,CBATTMCB                                              02-GEN
                                   17528+*,<3                                                                    02-00538
                  R:3  00000       17532+       $$USING @R3,3                                                    03-00188
                                   17533+*,|<R3 CBAT                                                             03-00198
                                   17534          WITH  (TMCB,RB)                                                1204.
                  R:3  00000       17543+       $$USING TMCB,RB                                                  03-00188
                                   17544+*,|>R3 TMCB                                                             03-00217
                                   17547          IF    (RTCBNAME,EQ,'GSTCPU'),'SET TMFGDONE'                    1205.
 0016B4 D505 A18A 900C 01784 0000C 17558+         CLC   =C'GSTCPU',RTCBNAME                                      04-$CSS
 0016BA 4770 A0C8            016C2 17559+$$$114B  BC    15-8,$$$114F                                             01-IF
 0016BE                            17562+$$$114T  DS    0H                                                       03-LABEL
                                   17563+*,>3                                                                    02-BEGIN
 0016BE 9680 3005      00005       17570+         OI    TMFGDONE,128                     Do set                  03-SET
                                   17573+*,<3                                                                    02-00538
 0016C2                            17574+$$$114F  DS    0H                                                       02-00552
                                   17575          IF    (RTCBNAME,NE,'MASTER'),BEGIN      Not master, POST       1206.
1TASKSERV (TASK00) (09:44) (22MAR04) IHAPSAE  - PSA Extension (ESAME)                                                       Page  148
0Current Usings:  (RTCB,R9) (CPTREAD,R10) (@CPTIME-72,R12)
0Loc    Object Code    Addr1 Addr2  Stmt Lv Lineno    Source Statement           (Hibal 5, Asmedit 3.3)  HLASM R4.0  2004/03/22 09.44
+___    ______ ____    _____ _____  ____ __ ______    ______ _________
00016C2 D505 A190 900C 0178A 0000C 17586+         CLC   =C'MASTER',RTCBNAME                                      04-$CSS
 0016C8 4780 A0DE            016D8 17587+$$$115B  BC    15-7,$$$115F                                             01-IF
 0016CC                            17590+$$$115T  DS    0H                                                       03-LABEL
                                   17591+*,>3                                                                    02-BEGIN
                                   17592          SET   TMFDUMP+TMFABEND                                         1207.
 0016CC                            17599+  DS 0SL2(TMFABEND-TMFDUMP,TMFDUMP-TMFABEND)   FLAGS NOT IN SAME BYTE   02-$BV
 0016CC 96A0 3004      00004       17600+         OI    TMFDUMP,160                      Do set                  01-SET
                                   17601          POST  TMCBECB                 Wake up the master               1208.
                                   17602+*        MACDATE  07/02/90                                     @YA32157
 0016D0 1B00                       17604+         SR    0,0                    . SET POST CODE              @D1A 01-POST
 0016D2 4110 3010            00010 17605+         LA    1,TMCBECB              . LOAD ECB ADDRESS           @D1A 01-POST
 0016D6 0A02                       17606+         SVC   2                      . ISSUE THE POST SVC         @D1A 01-POST
                                   17607          END   ELSE,BEGIN                                               1209.
                                   17609+*,<3                                                                    01-00538
 0016D8                            17610+$$$115F  DS    0H                                                       01-00552
 0016D8                            17612+  DC  0S($$$115F-*)  CAUSES ERROR IF ELSE DOESN'T FOLLOW THEN CLAUSE    02-ELSE
 0016D8                016D8 016CA 17613+         ORG   $$$115B+2                                                02-ELSE
 0016CA A0E2                       17614+         DC    S($$$116E)                                               02-ELSE
 0016CC                016CC 016D8 17615+         ORG                                                            02-ELSE
 0016D8 47F0 A0FA            016F4 17616+         B     $$$116F                   BRANCH AROUND ELSE IF TRUE     02-ELSE
 0016DC                            17620+$$$116E  DS    0H                                                       04-LABEL
                                   17621+*,>3                                                                    03-BEGIN
                                   17622 *                                                                       1210.
                                   17623 * If it is the master task abending, we have to do the dump here        1211.
                                   17624 *                                                                       1212.
 0016DC 187D                       17625          LR    RY,R13                  Copy R13 for later               1213.
 0016DE 58C0 3018            00018 17626          L     WAR,TMCBSTK                                              1214.
 0016E2 41D0 C008            00008 17627          LA    SPR,@WAR+8              Setup a stack                    1215.
                                   17628          VCALL STOPBAT                 Stop the batch jobs              1215.1
                                   17629+*JOIN
 0016E6 58F0 A17E            01778 17630+         L     EPAR,=V(STOPBAT)                                         01-VCALL
 0016EA 0DEF                       17631+         BASR  RAR,EPAR                                                 01-VCALL
                                   17632          VCALL DODUMP                  Take the formatted dump          1216.
                                   17633+*JOIN
 0016EC 58F0 A182            0177C 17634+         L     EPAR,=V(DODUMP)                                          01-VCALL
 0016F0 0DEF                       17635+         BASR  RAR,EPAR                                                 01-VCALL
 0016F2 18D7                       17636          LR    R13,RY                  Restore R13                      1217.
                                   17637          END   ,                                                        1218.
                                   17639+*,<3                                                                    01-00538
 0016F4                            17640+$$$116F  DS    0H                                                       01-00552
                                   17641 *                                                                       1219.
                                   17642 * Continue the ABEND Process                                            1220.
                                   17643 *                                                                       1221.
                                   17644 *GEN                                                                    1222.
                                   17645          SETRP RC=0,REGS=(14,12),WKAREA=(RK)                            1223.
 0016F4 0700                       17647+         NOPR  SDWANOPR    IF THIS STATEMENT CAUSES ASSEMBLER ERROR     01-SETRP
                                   17648+*                          IT IMPLIES THAT SETRP AND THE SDWA ARE
                                   17649+*                          BEING USED IMCOMPATABLY           @G38AP2F
 0016F6                016F6 016F4 17650+         ORG   *-2         OVERLAY THE PREVIOUS INSTRUCTION  @G38AP2F   01-SETRP
 0016F4 1815                       17651+         LR    1,RK         .           ACCESS POINTER TO SDWA          01-SETRP
 0016F6 9200 10FC      000FC       17652+         MVI   SDWARCDE-SDWA(1),0      .       PUT RC IN SDWA           01-SETRP
 0016FA 98EC D00C            0000C 17654+         LM    14,12,12(13)                      RESTORE THE REGISTERS  02-RETUR
 0016FE 07FE                       17655+         BR    14                                RETURN                 02-RETUR
                                   17656 *NOGEN                                                                  1224.
1TASKSERV (TASK00) (09:44) (22MAR04) IHAPSAE  - PSA Extension (ESAME)                                                       Page  149
0Current Usings:  (RTCB,R9) (CPTREAD,R10) (@CPTIME-72,R12)
0Loc    Object Code    Addr1 Addr2  Stmt Lv Lineno    Source Statement           (Hibal 5, Asmedit 3.3)  HLASM R4.0  2004/03/22 09.44
+___    ______ ____    _____ _____  ____ __ ______    ______ _________
0                                  17657          END   ,                                                        1225.
                  R:3  00000       17662+       $$USING @R3,3                                                    02-00188
                                   17663+*,|<R3 TMCB                                                             02-00198
                                   17664+*,<2                                                                    01-00538
 001700                            17665+$$$113F  DS    0H                                                       01-00552
                                   17666          END   ,                                                        1226.
                  R:2  00000       17671+       $$USING @R2,2                                                    02-00188
                                   17672+*,|<R2 ESTADATA                                                         02-00198
                                   17673+*,<1                                                                    01-00538
                  R:5  00000       17677+       $$USING @R5,5                                                    02-00188
                                   17678+*,|<R5 SDWA                                                             02-00198
                                   17679          DROP  BR                                                       1227.
                  R:A  00000       17684+       $$USING @R10,10                                                  02-00188
                                   17685+*,|<R10 ESTAEXIT                                                        02-00198
1TASKSERV (TASK00) (09:44) (22MAR04) IHAPSAE  - PSA Extension (ESAME)                                                       Page  150
0Current Usings:  (RTCB,R9) (CPTREAD,R10) (@CPTIME-72,R12)
0Loc    Object Code    Addr1 Addr2  Stmt Lv Lineno    Source Statement           (Hibal 5, Asmedit 3.3)  HLASM R4.0  2004/03/22 09.44
+___    ______ ____    _____ _____  ____ __ ______    ______ _________
0                                  17687          LTORG                                                          1229.
 001700                            17688+       $$LTORG                                                          01-00650
 001700 D4C1E2E3C5D94040           17689                =CL8'MASTER'
 001708 D9E3C3C240C3C8C1           17690                =CL16'RTCB CHAIN'
 001718 00000000                   17691                =V(POOLGET)
 00171C D9E3C3C2                   17692                =CL4'RTCB'
 001720 00000032                   17693                =A(50)
 001724 00000FCE                   17694                =A(TRCEINIT)
 001728 00000AEC                   17695                =A(CPTSTART)
 00172C C3C2C1E3                   17696                =CL4'CBAT'
 001730 00000000                   17697                =V(LOCKINIT)
 001734 00000000                   17698                =V(MSGINIT)
 001738 00000000                   17699                =V(MEMINIT)
 00173C E3C3E340                   17700                =CL4'TCT'
 001740 00000000                   17701                =V(LOCKCRE)
 001744 00000000                   17702                =V(MEMGET)
 001748 00000001                   17703                =A(1)
 00174C 00000B40                   17704                =A(CPTREAD)
 001750 7FFFFFFF                   17705                =X'7FFFFFFF'
 001754 00000038                   17706                =A(L'TRCENTRY+24)
 001758 40000000                   17707                =A(X'40000000')
 00175C 00000020                   17708                =A(TCBPXLEN)
 001760 00000000                   17709                =V(LOCKOB)
 001764 00000000                   17710                =V(LOCKREL)
 001768 00000DD0                   17711                =A(POOLDEF)
 00176C 00000000                   17712                =V(MEMFREE)
 001770 80000000                   17713                =X'80000000'
 001774 00000800                   17714                =A(512*4)
 001778 00000000                   17715                =V(STOPBAT)
 00177C 00000000                   17716                =V(DODUMP)
 001780 FFFF                       17717                =X'FFFF'
 001782 000C                       17718                =H'12'
 001784 C7E2E3C3D7E4               17719                =C'GSTCPU'
 00178A D4C1E2E3C5D9               17720                =C'MASTER'
 0017B0                017B0 017B0 17721+$$$C2TASKSERV     LOCTR                                                 01-00652
 0017B0                017B0 017B0 17722+$$$D2TASKSERV     LOCTR                                                 01-00653
 0017B0                017B0 017B0 17723+$$$C2TASKSERV     LOCTR                                                 01-00654
                                   17724          END   .                                                        1230.
 0017B0                            17726+       $$LTORG                                                          02-00650
 0017B0                017B0 017B0 17727+$$$C3TASKSERV     LOCTR                                                 02-00652
 0017B0                017B0 017B0 17728+$$$D3TASKSERV     LOCTR                                                 02-00653
 0017B0                017B0 017B0 17729+$$$C3TASKSERV     LOCTR                                                 02-00654
                                   17730+       $$END                                                            01-00621

1TASKSERV (TASK00) (09:44) (22MAR04) Ordinary Symbol and Literal Cross Reference                                            Page  151
-Symbol   Length   Value     Id    R Type   Defn References                                  HLASM R4.0  2004/03/22 09.44
0$$$@R0        1 00000000 FFFFFFFE     J     714  1010
 $$$@R1        1 00000000 FFFFFFFD     J     727  1022
 $$$@R10       1 00000000 FFFFFFF4     J     844  1142
 $$$@R11       1 00000000 FFFFFFF3     J     857  1154
 $$$@R12       1 00000000 FFFFFFF2     J     870  1166
 $$$@R13       1 00000000 FFFFFFF1     J     883  1178
 $$$@R14       1 00000000 FFFFFFF0     J     896  1190
 $$$@R15       1 00000000 FFFFFFEF     J     909  1202
 $$$@R2        1 00000000 FFFFFFFC     J     740  1034
 $$$@R3        1 00000000 FFFFFFFB     J     753  1046
 $$$@R4        1 00000000 FFFFFFFA     J     766  1058
 $$$@R5        1 00000000 FFFFFFF9     J     779  1070
 $$$@R6        1 00000000 FFFFFFF8     J     792  1082
 $$$@R7        1 00000000 FFFFFFF7     J     805  1094
 $$$@R8        1 00000000 FFFFFFF6     J     818  1106
 $$$@R9        1 00000000 FFFFFFF5     J     831  1118   1130
 $$$C1TASKSERV
               1 00000975 00000001     J   12029 12031  12641  14045  14078  14104  14268  14613  15197  15229  15263
                                                 15311  15649  15668  15692  15716  16691  16890
 $$$C2TASKSERV
               1 000017B0 00000001     J   17721 17723
 $$$C3TASKSERV
               1 000017B0 00000001     J   17727 17729
 $$$D1TASKSERV
               1 00001790 00000001     J   12030 14257  15238
 $$$R@CPTIME
               1 00000000 FFFFFFD9     J    7742  7757   7757
 $$$R@DUMPPRM
               1 00000000 FFFFFFC6     J    8586  8600   8600
 $$$R@ESTAE
               1 00000000 FFFFFFBF     J   15182 15196  15196
 $$$R@FIXPARM
               1 00000000 FFFFFFD3     J    8043  8067   8067
 $$$R@FPOST
               1 00000000 FFFFFFD5     J    7850  7863   7863
 $$$R@FUNCPRM
               1 00000000 FFFFFFC7     J    8563  8576   8576
 $$$R@FWAIT
               1 00000000 FFFFFFD6     J    7824  7837   7837
 $$$R@LOCKCRE
               1 00000000 FFFFFFD8     J    7770  7792   7792
 $$$R@LOCKS
               1 00000000 FFFFFFD7     J    7798  7811   7811
 $$$R@MEMFREE
               1 00000000 FFFFFFCF     J    8259  8322   8322
 $$$R@MEMGET
               1 00000000 FFFFFFD0     J    8175  8247   8247
 $$$R@MEMINIT
               1 00000000 FFFFFFD1     J    8106  8163   8163
 $$$R@MEMORY
               1 00000000 FFFFFFD4     J    7876  8030   8030
 $$$R@SEG      1 00000000 FFFFFFCE     J    8329  8384   8384
 $$$R@SEGCOL
               1 00000000 FFFFFFCC     J    8412  8426   8426
 $$$R@SEGCORE
1TASKSERV (TASK00) (09:44) (22MAR04) Ordinary Symbol and Literal Cross Reference                                            Page  152
               1 00000000 FFFFFFCB     J    8432  8479   8479
 $$$R@SEGINIT
               1 00000000 FFFFFFCD     J    8390  8406   8406
 $$$R@SEGRTN
               1 00000000 FFFFFFCA     J    8485  8498   8498
 $$$R@SEGSTK
               1 00000000 FFFFFFC9     J    8504  8518   8518
 $$$R@SPAWN
               1 00000000 FFFFFFBB     J   15630 15648  15648
 $$$R@TASKINI
               1 00000000 FFFFFFD2     J    8080  8093   8093
 $$$R@TERMPRM
               1 00000000 FFFFFFC5     J    8610  8623   8623
 $$$R@TRACE
               1 00000000 FFFFFFC3     J   13939 14044  14044
 $$$R@TRCINT
               1 00000000 FFFFFFC1     J   14090 14103  14103
 $$$RCBAT      1 00000000 FFFFFFDB     J    7600  7648   7648
 $$$RCPTWA
               1 00000000 FFFFFFC4     J   12626 12640  12640
 $$$RESTADATA
               1 00000000 FFFFFFBD     J   15274 15310  15310
 $$$RESTAINFO
               1 00000000 FFFFFFBE     J   15208 15228  15228
 $$$RPOSTAREA
               1 00000000 FFFFFFC0     J   14590 14612  14612
 $$$RRTCB      1 00000000 FFFFFFDC     J    7511  7576   7576
 $$$RSBTPARM
               1 00000000 FFFFFFB7     J   16677 16690  16690
 $$$RSPNDATA
               1 00000000 FFFFFFBA     J   15654 15667  15667
 $$$RSPNEXTR
               1 00000000 FFFFFFB9     J   15673 15691  15691
 $$$RTASKCT
               1 00000000 FFFFFFC8     J    8530  8546   8546
 $$$RTASKPARM
               1 00000000 FFFFFFB8     J   15697 15715  15715
 $$$RTMCB      1 00000000 FFFFFFDA     J    7662  7729   7729
 $$$RTRCENTRY
               1 00000000 FFFFFFC2     J   14056 14077  14077
 $$$RTSKPRM
               1 00000000 FFFFFFB6     J   16876 16889  16889
 $$$102F       2 000013A0 00000001     H   16242 16232B
 $$$103F       2 000013E2 00000001     H   16326 16305B
 $$$107F       2 000014CE 00000001     H   16768 16758B
 $$$109B       1 000015FA 00000001     X   17285 17292U
 $$$110F       2 00001606 00000001     H   17317 17304B
 $$$111F       2 00001644 00000001     H   17423 17407B
 $$$112B       4 00001648 00000001     I   17437 17491
 $$$112F       2 000016A4 00000001     H   17488 17437B 17490
 $$$113E       2 000016A8 00000001     H   17498 17492
 $$$113F       2 00001700 00000001     H   17665 17494B
 $$$114F       2 000016C2 00000001     H   17574 17559B
 $$$115B       4 000016C8 00000001     I   17587 17613
 $$$115F       2 000016D8 00000001     H   17610 17587B 17612
 $$$116E       2 000016DC 00000001     H   17620 17614
 $$$116F       2 000016F4 00000001     H   17640 17616B
 $$$27F        2 000001F2 00000001     H    9428  9359B
 $$$28F        2 000007F0 00000001     H   11975  9807B
1TASKSERV (TASK00) (09:44) (22MAR04) Ordinary Symbol and Literal Cross Reference                                            Page  153
 $$$28S        2 000002DA 00000001     H    9798 11974B
 $$$30F        2 000007CC 00000001     H   11904 10735B
 $$$34F        2 00000B22 00000001     H   12589 12579B
 $$$36F        2 00000BCA 00000001     H   12748 12729B
 $$$37F        2 00000C1C 00000001     H   12902 12872B 12891B
 $$$37S        2 00000C06 00000001     H   12866 12901B
 $$$40F        2 00000C3A 00000001     H   12943 12912B
 $$$41F        2 00000C32 00000001     H   12937 12927B
 $$$44F        2 00000CF4 00000001     H   13254 13139B
 $$$45F        2 00000CD4 00000001     H   13172 13157B
 $$$46B        4 00000CD8 00000001     I   13183 13204
 $$$46F        2 00000CE0 00000001     H   13201 13183B 13203
 $$$47E        2 00000CE4 00000001     H   13211 13205
 $$$47F        2 00000CE8 00000001     H   13223 13207B
 $$$48F        2 00000CF4 00000001     H   13250 13235B
 $$$49F        2 00000D30 00000001     H   13311 13272B 13289B
 $$$52F        2 00000D9C 00000001     H   13448 13409B 13426B
 $$$54F        2 00000DA8 00000001     H   13475 13460B
 $$$58B        4 00000EC2 00000001     I   13855 13876
 $$$58F        2 00000EE4 00000001     H   13873 13855B 13875
 $$$59E        2 00000EE8 00000001     H   13883 13877
 $$$59F        2 00000F04 00000001     H   13898 13879B
 $$$69B        4 00000F50 00000001     I   14200 14230
 $$$69F        2 00000F74 00000001     H   14227 14200B 14229
 $$$69T        2 00000F54 00000001     H   14203 14190B
 $$$72E        2 00000F78 00000001     H   14237 14231
 $$$72F        2 00000F8A 00000001     H   14245 14233B
 $$$73         6 00001790 00000001     I   14263 14255X
 $$$74         6 00001790 00000001     I   14262 14263  14263
 $$$75F        2 00000FB4 00000001     H   14301 14285B
 $$$78F        2 00000FF0 00000001     H   14409 14399B
 $$$80F        2 00001056 00000001     H   14546 14527B
 $$$83F        2 000010BA 00000001     H   14749 14724B
 $$$83S        2 00001098 00000001     H   14693 14746B
 $$$88F        2 00001132 00000001     H   14882 14858B
 $$$90F        2 000011DE 00000001     H   15142 14979B 14992B
 $$$96S        2 000012B2 00000001     H   15890 15953B
 $$$97F        2 000012C8 00000001     H   15938 15927B
 $$$97S        2 000012B6 00000001     H   15919 15937B
 @CPTIME      16 00000000 FFFFFFD9     J    7757 12680U 12687U 13007U 13015M 13015
 @CPTINT       8 00000008 FFFFFFD9     D    7750 12715M
 @CPTTOT       8 00000000 FFFFFFD9     D    7749 12711M
 @DUMPPRM      8 00000000 FFFFFFC6     J    8600  8674U
 @DUMPSCB      4 00000004 FFFFFFC6     A    8593  8739   8777   8815   8878   8936   8968   9086   9137   9175   9238
                                                  9289   9321   9414   9482   9537   9601   9656   9694   9732   9770
                                                  9883   9942  10002  10034  10072  10132  10190  10222  10325  10367
                                                 10405  10465  10524  10562  10627  10686  10768  10829  10867  10927
                                                 10985  11039  11097  11151  11209  11263  11321  11353  11413  11471
                                                 11525  11583  11637  11695  11727  11788  11891  11942
 @ESTAE       68 00000000 FFFFFFBF     J   15196 15366U
 @ESTREGS      4 00000004 FFFFFFBF     A   15189 15385
 @ESTRTRY      4 00000000 FFFFFFBF     A   15188 15386
 @FIXFLG       1 00000008 FFFFFFD3     R    8054  8058
 @FIXFREL    128 00000008 FFFFFFD3         8058 13854
 @FIXLEN       4 00000004 FFFFFFD3     A    8051 13690  13839
 @FIXLOC       4 00000000 FFFFFFD3     A    8050 13689  13838
 @FIXPARM      9 00000000 FFFFFFD3     J    8067 13640U 13789U
 @FPOST        4 00000000 FFFFFFD5     J    7863 14668U 14675U
 @FPSTECB      4 00000000 FFFFFFD5     A    7856 14688  14808
1TASKSERV (TASK00) (09:44) (22MAR04) Ordinary Symbol and Literal Cross Reference                                            Page  154
 @FUNCDTA      4 00000000 FFFFFFC7     A    8569 16557
 @FUNCPRM      4 00000000 FFFFFFC7     J    8576 16512U
 @FWAIT        4 00000000 FFFFFFD6     J    7837 14962U
 @FWTECB       4 00000000 FFFFFFD6     A    7830 14967
 @LOCKCRE     17 00000000 FFFFFFD8     J    7792 12374U 12382M 12382
 @LOCKFL       1 00000010 FFFFFFD8     R    7779  7783
 @LOCKID       4 00000000 FFFFFFD7     A    7804 15881M 15982M
 @LOCKNAM     16 00000000 FFFFFFD8     C    7776 12383M
 @LOCKS        4 00000000 FFFFFFD7     J    7811 15875U
 @MEMCODE      1 00000003 FFFFFFD4     R    7946  7954   7963   7972   7982   7991   8000   8009   8018
 @MEMDATA      1 00000000 FFFFFFD4     X    7882 13114M 13255  13492M 13500
 @MEMFREE     10 00000000 FFFFFFCF     J    8322 16267U 16275M 16275  16621U 16629M 16629  16965U 16973M 16973  17169U
                                                 17177M 17177
 @MEMGET      10 00000000 FFFFFFD0     J    8247 12408U 12416M 12416  16034U 16042M 16042  16096M 16096  16170M 16170
                                                 16528U 16536M 16536  17077U 17085M 17085
 @MEMINIT      2 00000000 FFFFFFD1     J    8163 12266U 12274M 12274  12298M 12298  17040U 17048M 17048
 @MEMKEY       1 00000001 FFFFFFD4     X    7883 13121M 13499M
 @MEMLEN       4 00000004 FFFFFFD4     A    8022 12117M 12220M 12333M 13296  13313  13433  14431M 15815M 16789M
 @MEMLOC       4 00000008 FFFFFFD4     A    8023 12129  13261M 13295  13312  13319  13432
 @MEMORY      12 00000000 FFFFFFD4     J    8030 12100U 12108M 12108  12203U 12211M 12211  12316U 12324M 12324  13103U
                                                 13394U 14421U 14429M 14429  15798U 15806M 15806  16779U 16787M 16787
 @MEMPOOL      1 00000002 FFFFFFD4     R    7887  7895   7904   7913   7922   7931   7940  13234  13459
 @MFFTYPE      1 00000009 FFFFFFCF     R    8274  8285   8294   8303   8312
 @MFLEN        4 00000004 FFFFFFCF     A    8268 16283M 16637M 16981M 17185M
 @MFLL         8 00000000 FFFFFFCF     D    8265  8266
 @MFLOC        4 00000000 FFFFFFCF     A    8267 16284M 16638M 16986M 17186M
 @MFTYPE       2 00000008 FFFFFFCF     H    8270  8271
 @MGFTYPE      1 00000009 FFFFFFD0     R    8193  8201   8210   8219   8228   8237
 @MGLEN        4 00000004 FFFFFFD0     A    8184 12424M 16050M 16104M 16178M 16544M 17093M
 @MGLL         8 00000000 FFFFFFD0     D    8181  8182
 @MGTYPE       2 00000008 FFFFFFD0     H    8186  8190
 @MIFLAG       1 00000000 FFFFFFD1     R    8114  8118
 @MIWFLAG      1 00000001 FFFFFFD1     R    8126  8136   8145   8154
 @RA           0 00000000 FFFFFFFC     @    1035 12860  14695  14732M
 @RB           0 00000000 FFFFFFFB     @    1047 14978  15150M 16598M
 @RS           0 00000000 FFFFFFFD     @    1023 12158  14270
 @RY           0 00000000 FFFFFFF7     @    1095  9332   9806   9812  10161
 @R0           0 00000000 FFFFFFFE     @     715   991U  2547U
 @R1           0 00000000 FFFFFFFD     @     728   987U 12156U 14253U 16221U
 @R10          0 00000000 FFFFFFF4     @     845   951U 11987U 12496U 12598U 12762U 12951U 13033U 13331U 13513U 13575U
                                                 13726U 13919U 14321U 14458U 14564U 14899U 15162U 15409U 15496U 16436U
                                                 16654U 16854U 17254U 17684U
 @R11          0 00000000 FFFFFFF3     @     858   947U
 @R12          0 00000000 FFFFFFF2     @     871   943U 11982U 12491U 12757U 13326U 13508U 13721U 13914U 14316U 14453U
                                                 14894U 15157U 15404U 16431U 16649U 17249U
 @R13          0 00000000 FFFFFFF1     @     884   939U  9004U  9111U 10243U 10341U 10544U 10578U 11809U 11916U 11998U
                                                 12169U 12200U 12263U 12313U 12371U 12405U 12507U 12791M 12944  13044U
                                                 14469U 15872U 16031U 16264U 16447U 16618U 16665U 16712M 16817U 16932U
                                                 17013U 17037U 17074U 17166U 17210U 17241U 17265U 17325M
 @R14          0 00000000 FFFFFFF0     @     897   935U 15399U
 @R15          0 00000000 FFFFFFEF     @     910   931U 14842U 15132U 17323U
 @R2           0 00000000 FFFFFFFC     @     741   983U 12833U 12858U 15491U 15971U 16596U 17671U
 @R3           0 00000000 FFFFFFFB     @     754   979U 12482U 14308U 16251U 17151U 17395U 17532U 17662U
 @R4           0 00000000 FFFFFFFA     @     767   975U
 @R5           0 00000000 FFFFFFF9     @     780   971U 11901U 16423U 17677U
 @R6           0 00000000 FFFFFFF8     @     793   967U 11971U 13668U 13716U 13817U 13909U 15043U 15070U 16403U
 @R7           0 00000000 FFFFFFF7     @     806   963U  9098U  9788U 12354U 12514U 15096U 15851U 15992U 16408U 16860U
                                                 17232U
 @R8           0 00000000 FFFFFFF6     @     819   959U
1TASKSERV (TASK00) (09:44) (22MAR04) Ordinary Symbol and Literal Cross Reference                                            Page  155
 @R9           0 00000000 FFFFFFF5     @     832   955U  9827U 15907U 16009U 16572U
 @SEG         13 00000000 FFFFFFCE     J    8384  8693U  8701M  8701   8762M  8762   8800M  8800   8840M  8840   8894M
                                                  8894   8953M  8953   9114U  9122M  9122   9160M  9160   9200M  9200
                                                  9254M  9254   9306M  9306   9376M  9376   9440M  9440   9499M  9499
                                                  9559M  9559   9618M  9618   9679M  9679   9717M  9717   9755M  9755
                                                  9845M  9845   9900M  9900   9964M  9964  10019M 10019  10057M 10057
                                                 10094M 10094  10148M 10148  10207M 10207  10344U 10352M 10352  10390M
                                                 10390  10427M 10427  10482M 10482  10581U 10589M 10589  10644M 10644
                                                 10753M 10753  10791M 10791  10852M 10852  10889M 10889  10943M 10943
                                                 11001M 11001  11055M 11055  11113M 11113  11167M 11167  11225M 11225
                                                 11279M 11279  11338M 11338  11375M 11375  11429M 11429  11487M 11487
                                                 11541M 11541  11599M 11599  11653M 11653  11712M 11712  11750M 11750
                                                 11919U 11927M 11927
 @SEGB       128 0000000C FFFFFFCE         8344  8359   8359
 @SEGCB        4 00000000 FFFFFFCE     A    8335  8739M  8777M  8815M  8878M  8936M  8968M  9137M  9175M  9238M  9289M
                                                  9321M  9414M  9482M  9537M  9601M  9656M  9694M  9732M  9770M  9883M
                                                  9942M 10002M 10034M 10072M 10132M 10190M 10222M 10367M 10405M 10465M
                                                 10524M 10627M 10686M 10768M 10829M 10867M 10927M 10985M 11039M 11097M
                                                 11151M 11209M 11263M 11321M 11353M 11413M 11471M 11525M 11583M 11637M
                                                 11695M 11727M 11788M 11942M
 @SEGCORE     24 00000000 FFFFFFCB     J    8479  9007U  9015M  9015  10246U 10254M 10254  11812U 11820M 11820
 @SEGEOB       8 0000000C FFFFFFCE         8375  9776M 10411M 11948M
 @SEGEOR      16 0000000C FFFFFFCE         8370  8745M  8783M  8821M  8974M  9143M  9181M  9327M  9420M  9543M  9662M
                                                  9700M  9738M 10040M 10078M 10228M 10373M 10530M 10692M 10774M 10835M
                                                 10873M 11359M 11733M 11794M
 @SEGLEN       4 00000008 FFFFFFCE     A    8337  8732M  8770M  8770   8808M  8808   8871M  8929M  8961M  8961   9130M
                                                  9130   9168M  9168   9231M  9282M  9314M  9314   9407M  9475M  9530M
                                                  9594M  9649M  9687M  9687   9725M  9725   9763M  9763   9876M  9935M
                                                  9995M 10027M 10027  10065M 10065  10125M 10183M 10215M 10215  10360M
                                                 10360  10398M 10398  10458M 10517M 10620M 10679M 10761M 10761  10822M
                                                 10860M 10860  10920M 10978M 11032M 11090M 11144M 11202M 11256M 11314M
                                                 11346M 11346  11406M 11464M 11518M 11576M 11630M 11688M 11720M 11720
                                                 11781M 11935M 11935
 @SEGLOC       4 00000004 FFFFFFCE     A    8336  8715M  8854M  8912M  9214M  9265M  9390M  9458M  9513M  9577M  9632M
                                                  9859M  9918M  9978M 10108M 10166M 10441M 10500M 10603M 10662M 10805M
                                                 10903M 10961M 11015M 11073M 11127M 11185M 11239M 11297M 11389M 11447M
                                                 11501M 11559M 11613M 11671M 11764M
 @SEGSCB       4 00000000 FFFFFFC9     A    8510 10562M
 @SEGSST       4 00000004 FFFFFFC9     A    8511 10563M
 @SEGSTK       8 00000000 FFFFFFC9     J    8518 10547U 10555M 10555
 @SEGT        64 0000000C FFFFFFCE         8349  8359   8359
 @SEGTB      192 0000000C FFFFFFCE         8360  9948M
 @SEGTYPE      1 0000000C FFFFFFCE     R    8340  8344   8349   8360   8365   8370   8375
 @SEGXCB       4 00000000 FFFFFFCB     A    8438  9086M 10325M 11891M
 @SEGXFAL     64 0000000D FFFFFFCB         8453  9070   9070   9071   9071   9074   9074   9077   9077  10309  10309
                                                 10310  10310  10313  10313  10316  10316
 @SEGXFID     16 0000000D FFFFFFCB         8463  9069   9069   9070   9070   9072   9072   9075   9075   9079M 10308
                                                 10308  10309  10309  10311  10311  10314  10314  10318M 11878  11878
                                                 11879  11879  11881  11881  11884M
 @SEGXFLG      1 0000000D FFFFFFCB     R    8444  8448   8453   8458   8463   8468
 @SEGXFOF     32 0000000D FFFFFFCB         8458  9069   9069   9071   9071   9073   9073   9076   9076  10308  10308
                                                 10310  10310  10312  10312  10315  10315  11878  11878  11880  11880
                                                 11882  11882
 @SEGXFRL      8 0000000D FFFFFFCB         8468  9075   9075   9076   9076   9077   9077   9078   9078  10314  10314
                                                 10315  10315  10316  10316  10317  10317  11881  11881  11882  11882
                                                 11883  11883
 @SEGXF16    128 0000000D FFFFFFCB         8448  9072   9072   9073   9073   9074   9074   9078   9078  10311  10311
                                                 10312  10312  10313  10313  10317  10317  11879  11879  11880  11880
                                                 11883  11883
1TASKSERV (TASK00) (09:44) (22MAR04) Ordinary Symbol and Literal Cross Reference                                            Page  156
 @SEGXID       4 00000014 FFFFFFCB     C    8472  9050M 10289M 11861M
 @SEGXLOC      4 00000004 FFFFFFCB     A    8439  9027M  9044M  9055  10266M 10283M 10294  11838M 11855M 11866
 @SEGXOFF      4 00000010 FFFFFFCB     A    8471  9055M 10294M 11866M
 @SPAWN       28 00000000 FFFFFFBB     J   15648 15771U 15778U
 @SPNDPRI      4 00000018 FFFFFFBB     A   15641 16222
 @SPNEP        4 00000008 FFFFFFBB     A   15637 16127
 @SPNNAME      8 00000000 FFFFFFBB     C   15636 16018  16289
 @SPNPARM      4 0000000C FFFFFFBB     A   15638 16124
 @SPNSTK       4 00000014 FFFFFFBB     A   15640 16126
 @SPNTRC       4 00000010 FFFFFFBB     A   15639 16125
 @TASKINI      4 00000000 FFFFFFD2     J    8093 12085U
 @TASKIST      4 00000000 FFFFFFD2     A    8086 12132
 @TRACE       88 00000000 FFFFFFC3     J   14044 14159U
 @TRCINM       4 00000000 FFFFFFC1     A   14096 12174M 14389  17018M
 @TRCINT       4 00000000 FFFFFFC1     J   14103 12172U 14384U 17016U
 @TRCPID       2 00000004 FFFFFFC3     H   14033 14241
 @TRDLEN       1 00000001 FFFFFFC3     X   14031 14252
 @TRIC         2 00000002 FFFFFFC3     H   14032 14240
 @TRNAME       8 00000008 FFFFFFC3     C   14035 14175
 @TRPSW        8 00000010 FFFFFFC3     X   14036 14239
 @TRREGS       4 00000018 FFFFFFC3     A   14037 14262
 @TRTYPE       1 00000000 FFFFFFC3     R   13948 13957  13967  13977  13987  13997  14007  14017  14027  14174
 @WAR          0 00000000 FFFFFFF2     @    1167 16747  17627
 AHLHEAD       1 00000000 00000000 A   T    2958  2958
 AHLVCCR8      1 00000000 00000000 A   T    3449  3449
 ASMVT         1 00000000 00000000 A   T    3338  3338
 ATDPMOD       2 00000018 FFFFFFBC     H   15558 16244M
 ATECBADR      4 00000008 FFFFFFBC     A   15552 16342M
 ATFLAGS2      1 0000003C FFFFFFBC     C   15596 16157M
 ATINDS        1 0000001B FFFFFFBC     B   15561 16333M 16340M
 ATLSTSIZ      1 00000048 FFFFFFBC A   U   15611 15660
 ATMODE        1 00000001 FFFFFFBC A   U   15570 16338
 ATNSHSP       1 00000020 FFFFFFBC A   U   15599 16155
 ATPGNADA      4 00000000 FFFFFFBC     A   15550 16290M
 ATSHFLDA      4 00000010 FFFFFFBC     A   15556 16150M
 ATSZERO       1 00000008 FFFFFFBC A   U   15567 16331
 ATTCHLST      1 00000000 FFFFFFBC     J   15546 15611  16139U
 BIT0          1 00000080 FFFFFFE8 A   U    4931  4948   4971   4972   5225   5252   5300   5304   5305   5387   5407
                                                  5421   5452  15553  15563  15577  15597
 BIT1          1 00000040 FFFFFFE8 A   U    4932  4949   4973   4975   5255   5300   5302   5303   5305   5388   5409
                                                  5422   5454  15564  15579  15598
 BIT2          1 00000020 FFFFFFE8 A   U    4933  4950   5258   5300   5302   5328   5391   5411   5424   5455  15565
                                                 15581  15599
 BIT3          1 00000010 FFFFFFE8 A   U    4934  4951   5259   5306   5317   5330   5331   5393   5412   5426   5457
                                                 15566  15583  15600
 BIT4          1 00000008 FFFFFFE8 A   U    4935  4952   5261   5318   5332   5337   5338   5394   5413   5428   5460
                                                 15567  15585  15602
 BIT5          1 00000004 FFFFFFE8 A   U    4936  4953   4965   4967   5262   5332   5335   5338   5395   5414   5430
                                                  5461  15568  15587  15603
 BIT6          1 00000002 FFFFFFE8 A   U    4937  4954   4957   4978   4979   5263   5321   5397   5400   5415   5431
                                                  5462  15569  15589  15604
 BIT7          1 00000001 FFFFFFE8 A   U    4938  4954   4956   4957   4980   4985   5265   5322   5397   5401   5416
                                                  5432   5463  15570  15589  15605
 BR           10 0000000A FFFFFFFF A   #    1136  8648M  8658U 12059M 12069U 12543M 12553U 12654M 12664U 12792M 12800U
                                                 12980M 12990U 13077M 13087U 13368M 13378U 13550M 13560U 13614M 13624U
                                                 13763M 13773U 14133M 14143U 14358M 14368U 14498M 14508U 14642M 14652U
                                                 14936M 14946U 15340M 15350U 15446M 15456U 15745M 15755U 16486M 16496U
                                                 16713M 16721U 16902M 16912U 17326M 17334U
 CANTASK       4 00001434 00000001     I   16485 16480  16496U
1TASKSERV (TASK00) (09:44) (22MAR04) Ordinary Symbol and Literal Cross Reference                                            Page  157
 CBAT        144 00000000 FFFFFFDB     J    7648  8989U  9039  12219  12241U 12243M 13655U 13804U 15838U 17519U
 CBATTASK      4 00000004 FFFFFFDB     A    7610  9091  12345M 13661  13810  15844
 CBATTMCB      4 0000007C FFFFFFDB     A    7640 17525
 CBBRANCH      1 00000000 00000000 A   T    3494  3494
 CLOCKVAL      8 00000C80 00000001     D   13047 12564  12569  12737  12742  12805  12926  12938
 CPTCAN        4 00000C4C 00000001     I   12979 12974  12990U
 CPTEXIT       2 00000BDC 00000001     H   12790 12565  12738  12800U
 CPTREAD       4 00000B40 00000001     I   12653 12648  12664U 17704
 CPTSTART      4 00000AEC 00000001     I   12542 12537  12553U 17695
 CPTTCT        4 00000C90 00000001     A   13049 12389M 12810
 CPTWA        16 00000000 FFFFFFC4     J   12640 12687U
 CPTWAF0       8 00000000 FFFFFFC4     D   12632 12690M 12749
 CPTWAF2       8 00000008 FFFFFFC4     D   12633 12691M 12750
 CRBRANCH      1 00000000 00000000 A   T    3235  3235
 CSRTABLE      1 00000000 00000000 A   T    3255  3255
 CSVARMGR      1 00000000 00000000 A   T    3303  3303
 CSVEXIT       1 00000000 00000000 A   T    3176  3176
 CSVLLCB       1 00000000 00000000 A   T    2776  2776
 CSVLLTRM      1 00000000 00000000 A   T    2777  2777
 CSVMEM        1 00000000 00000000 A   T    3004  3004
 CSVVFGET      1 00000000 00000000 A   T    3568  3568
 CSVVFIND      1 00000000 00000000 A   T    3566  3566
 CVT           1 00000000 FFFFFFED     J    2551  2746  12143U 12845U 14823U 15113U
 CVTBRET       2 00000052 FFFFFFED     H    2801  3314   3393
 CVTPTR        1 00000010 FFFFFFED A   U    2742 12133  12835  14813  15103
 CVTTCBP       4 00000000 FFFFFFED     V    2753 12149  12851
 CVTVSTGX      1 00000000 FFFFFFEC     J    3766  3630
 CVTVWAIT      4 00000270 FFFFFFED     V    3302 15124
 CVTXTNT1      1 00000000 FFFFFFEB     J    3805  2973
 CVTXTNT2      1 00000000 FFFFFFEA     J    3813  3043
 CVT0PT02      4 00000370 FFFFFFED     V    3439 14834
 CVT4MS1       1 00000010 FFFFFFED A   U    2826  2834
 CVT6DAT       1 00000002 FFFFFFED A   U    2830  2834
 DFAIDTAB      1 00000000 00000000 A   T    3643  3643
 DISPLOCK      1 00000000 00000000 A   T    1648  1648
 DODUMP        1 00000000 00000010     T   17716 17716
 EDEABND       4 00000000 FFFFFFBE     A   15214 10956  17386M
 EDEILC        2 00000008 FFFFFFBE     H   15216 11666  15219  15219
 EDEINTC       2 0000000A FFFFFFBE     H   15217 11180
 EDEPCHK       8 00000008 FFFFFFBE     X   15219 17385M
 EDEPEA        4 0000000C FFFFFFBE     A   15218 11292
 EDEPSW        8 00000010 FFFFFFBE     X   15220 11442  11554  17384M
 EDEREGS       4 00000018 FFFFFFBE     A   15221 11833  17388M
 EDERSN        4 00000004 FFFFFFBE     A   15215 11068  17387M
 EDESTAE      24 00000048 FFFFFFBD     X   15300 12456M 12464  17125M 17133
 EDFABEND     64 00000004 FFFFFFBD        15292 10726  10726  17508M
 EDFACTIV    128 00000004 FFFFFFBD        15287 15392M 15484M 17419M 17436  17448M
 EDFLAG        1 00000004 FFFFFFBD     R   15283 15287  15292
 EDINFO        4 00000060 FFFFFFBD     A   15303 10724U 17369
 EDREGS        4 00000008 FFFFFFBD     A   15297 15385M 17449M
 EDRETRY       4 00000000 FFFFFFBD     A   15280 15386M 17451
 EDRUB        66 00000006 FFFFFFBD     X   15298 17450
 EDRUBMSK      2 00000006 FFFFFFBD     H   15296 12455M 15298  15298  17124M
 EPAR         15 0000000F FFFFFFFF A   #    1196  8648   8748M  8749B  8786M  8787B  8824M  8825B  8881M  8882B  8939M
                                                  8940B  8977M  8978B  9089M  9090B  9146M  9147B  9184M  9185B  9241M
                                                  9242B  9292M  9293B  9330M  9331B  9423M  9424B  9485M  9486B  9546M
                                                  9547B  9604M  9605B  9665M  9666B  9703M  9704B  9741M  9742B  9779M
                                                  9780B  9886M  9887B  9951M  9952B 10005M 10006B 10043M 10044B 10081M
                                                 10082B 10135M 10136B 10193M 10194B 10231M 10232B 10328M 10329B 10376M
1TASKSERV (TASK00) (09:44) (22MAR04) Ordinary Symbol and Literal Cross Reference                                            Page  158
                                                 10377B 10414M 10415B 10468M 10469B 10533M 10534B 10566M 10567B 10630M
                                                 10631B 10695M 10696B 10777M 10778B 10838M 10839B 10876M 10877B 10930M
                                                 10931B 10988M 10989B 11042M 11043B 11100M 11101B 11154M 11155B 11212M
                                                 11213B 11266M 11267B 11324M 11325B 11362M 11363B 11416M 11417B 11474M
                                                 11475B 11528M 11529B 11586M 11587B 11640M 11641B 11698M 11699B 11736M
                                                 11737B 11797M 11798B 11894M 11895B 11951M 11952B 12059  12127M 12128B
                                                 12180M 12181B 12187M 12188B 12230M 12231B 12246M 12247B 12250M 12251B
                                                 12284M 12285B 12301M 12302B 12343M 12344B 12386M 12387B 12437M 12438B
                                                 12543  12654  12980  13021M 13022B 13077  13368  13550  13614  13763
                                                 14133  14358  14441M 14442B 14498  14541M 14542B 14556M 14557B 14642
                                                 14834M 14835B 14936  15124M 15125B 15340  15446  15745  15825M 15826B
                                                 15884M 15885B 15985M 15986B 16067M 16068B 16121M 16122B 16148M 16149B
                                                 16188M 16189B 16287M 16288B 16486  16554M 16555B 16641M 16642B 16802M
                                                 16803B 16837M 16838B 16902  16999M 17000B 17024M 17025B 17051M 17052B
                                                 17058M 17059B 17106M 17107B 17199M 17200B 17221M 17222B 17630M 17631B
                                                 17634M 17635B
 ESTADATA    184 00000000 FFFFFFBD     J   15310 10715U 12423  12450U 15381U 15474U 17092  17119U 17362U
 ESTAEOFF      4 00001236 00000001     I   15445 15440  15456U
 ESTAEON       4 000011F8 00000001     I   15339 15334  15350U
 ESTAEXIT      2 000015FA 00000001     H   17295 12457  17126  17334U
 ESTAINFO     88 00000000 FFFFFFBE     J   15228 10724U 17379U
 FLC           1 00000000 FFFFFFEE     U    1336 14777  14777  14789  14872  15009
 FLCEAMDID
               1 000000A3 FFFFFFEE     C    2448  2449   2451
 FLCEFACILITIESLIST
               4 000000C8 FFFFFFEE     C    2478  2479
 FLCEFACILITIESLISTBYTE0
               1 000000C8 FFFFFFEE     B    2480  2481   2485
 FLCEICOD      2 00000086 FFFFFFEE     H    1388  1389
 FLCENPSW      4 00000058 FFFFFFEE     X    1364  1366
 FLCEOPSW      8 00000018 FFFFFFEE     X    1347  1348
 FLCEPDATA
               4 0000008C FFFFFFEE     C    2399  2400   2416
 FLCEPDATABYTE0
               2 0000008C FFFFFFEE     C    2401  2402   2407
 FLCEPER       8 00000098 FFFFFFEE     C    2441  2442
 FLCEPERATMID
               1 00000097 FFFFFFEE     B    2431  2432
 FLCEPERCODE
               2 00000096 FFFFFFEE     C    2422  2423   2440
 FLCEPERCODE0
               1 00000096 FFFFFFEE     B    2424  2425   2430
 FLCEPICODE
               2 0000008E FFFFFFEE     C    2408  2409
 FLCEPICODE1
               1 0000008F FFFFFFEE     G    2411  2412
 FLCEPIINFORMATION
               4 00000090 FFFFFFEE     C    2417  2418
 FLCEPILC      1 0000008D FFFFFFEE     G    2404  2405
 FLCESAME      8 00000000 FFFFFFEE     D    2381  2510
 FLCESDATA
               4 00000088 FFFFFFEE     C    2389  2390
 FLCESDATABYTE0
               2 00000088 FFFFFFEE     C    2391  2392   2397
 FLCESILC      1 00000089 FFFFFFEE     G    2394  2395
 FLCETEA       8 000000A8 FFFFFFEE     C    2455  2456
 FLCETEASNINFO
               8 000000A8 FFFFFFEE     C    2464  2465
 FLCETEA7      1 000000AF FFFFFFEE     B    2458  2459
1TASKSERV (TASK00) (09:44) (22MAR04) Ordinary Symbol and Literal Cross Reference                                            Page  159
 FLCETEID      8 000000A8 FFFFFFEE     C    2453  2454   2463   2468
 FLCETEPCINFO
               8 000000A8 FFFFFFEE     C    2469  2470
 FLCINPSW      4 00000078 FFFFFFEE     X    1378  1380
 FLCIOPSW      8 00000038 FFFFFFEE     X    1356  1357
 FLCIPPSW      8 00000000 FFFFFFEE     C    1337  1340
 FLCMNPSW      4 00000070 FFFFFFEE     X    1374  1377
 FLCMOPSW      8 00000030 FFFFFFEE     X    1354  1355
 FLCPICOD      2 0000008E FFFFFFEE     H    1412  1413
 FLCPIILC      1 0000008D FFFFFFEE     G    1405  1411
 FLCPNPSW      4 00000068 FFFFFFEE     X    1370  1373
 FLCPOPSW      8 00000028 FFFFFFEE     X    1352  1353
 FLCSNPSW      4 00000060 FFFFFFEE     X    1367  1369
 FLCSOPSW      8 00000020 FFFFFFEE     X    1349  1351
 FLCSVCN       2 0000008A FFFFFFEE     H    1399  1402
 FLCSVILC      1 00000089 FFFFFFEE     G    1393  1398
 FMBRANCH      1 00000000 00000000 A   T    3419  3419
 FPOST         4 0000107C 00000001     I   14641 14636  14652U
 FWAIT         4 00001150 00000001     I   14935 14930  14946U
 GLBRANCH      1 00000000 00000000 A   T    3325  3325
 GMBRANCH      1 00000000 00000000 A   T    3421  3421
 GOAMOD31      2 000014B0 00000001     H   16740 16736
 GOPOST        2 000010C0 00000001     H   14762 14707B
 GOTLOCK       2 000010F8 00000001     H   14803 14778B
 GVT           1 00000000 00000000 A   T    3187  3187
 HIBAL         1 00000000 FFFFFFFF     J     700   716    729    742    755    768    781    794    807    820    833
                                                   846    859    872    885    898    911   1012   1024   1036   1048
                                                  1060   1072   1084   1096   1108   1120   1132   1144   1156   1168
                                                  1180   1192   1204
 IARMPVT       1 00000000 00000000 A   T    3062  3062
 IARMRRCE      1 00000000 00000000 A   T    3607  3607
 IARPIBR       1 00000000 00000000 A   T    3577  3577
 IARPSIV       1 00000000 00000000 A   T    3401  3401
 IARPSXM       1 00000000 00000000 A   T    3550  3550
 IARXKEY       1 00000000 00000000 A   T    3508  3508
 IARXVIO       1 00000000 00000000 A   T    3402  3402
 ICYMMVTC      1 00000000 00000000 A   T    3833  3833
 IDA121CV      1 00000000 00000000 A   T    3340  3340
 IEABEND       1 00000000 00000000 A   T    2924  2924
 IEACLTE       1 00000000 00000000 A   T    1970  1970
 IEACVT        1 00000000 00000000 A   T    1344  1344   1359
 IEADQIQE      1 00000000 00000000 A   T    3320  3320
 IEAECVT       1 00000000 00000000 A   T    2849  2849
 IEAGSMQ       1 00000000 00000000 A   T    3297  3297
 IEAIHASU      1 00000000 00000000 A   T    3537  3537
 IEALKPT       1 00000000 00000000 A   T    1963  1963
 IEALSMQ       1 00000000 00000000 A   T    3299  3299
 IEAMASCB      1 00000000 00000000 A   T    1497  1497   3267   3271
 IEAPATCH      1 00000000 00000000 A   T    2932  2932
 IEAPDSRT      1 00000000 00000000 A   T    3195  3195
 IEAPTRV       1 00000000 00000000 A   T    3011  3011
 IEAQCDSR      1 00000000 00000000 A   T    2915  2915
 IEAQCS01      1 00000000 00000000 A   T    3307  3307
 IEAQEX00      1 00000000 00000000 A   T    1365  1365
 IEAQIO00      1 00000000 00000000 A   T    1379  1379
 IEAQLPAQ      1 00000000 00000000 A   T    2916  2916
 IEAQPK00      1 00000000 00000000 A   T    1372  1372
 IEAQSC00      1 00000000 00000000 A   T    1368  1368
 IEAQTD00      1 00000000 00000000 A   T    2812  2812
1TASKSERV (TASK00) (09:44) (22MAR04) Ordinary Symbol and Literal Cross Reference                                            Page  160
 IEAQTE00      1 00000000 00000000 A   T    2810  2810
 IEARPOST      1 00000000 00000000 A   T    3322  3322
 IEASMFEX      1 00000000 00000000 A   T    3199  3199
 IEASMFSP      1 00000000 00000000 A   T    3545  3545
 IEASPOST      1 00000000 00000000 A   T    3342  3342
 IEASVDCB      1 00000000 00000000 A   T    2803  2803
 IEATCBP       1 00000000 00000000 A   T    2753  2753
 IEATPC        1 00000000 00000000 A   T    2805  2805
 IEATRSCN      1 00000000 00000000 A   T    3163  3163
 IEAVAR02      1 00000000 00000000 A   T    3247  3247
 IEAVBLDP      1 00000000 00000000 A   T    3231  3231
 IEAVDELP      1 00000000 00000000 A   T    3234  3234
 IEAVEAC0      1 00000000 00000000 A   T    3324  3324
 IEAVEADV      1 00000000 00000000 A   T    3482  3482
 IEAVEDR1      1 00000000 00000000 A   T    3367  3367
 IEAVELRM      1 00000000 00000000 A   T    3316  3316
 IEAVELT1      1 00000000 00000000 A   T    1734  1734
 IEAVELT2      1 00000000 00000000 A   T    1968  1968
 IEAVENLU      1 00000000 00000000 A   T    3663  3663
 IEAVENQ2      1 00000000 00000000 A   T    3313  3313
 IEAVEQV1      1 00000000 00000000 A   T    3470  3470
 IEAVEQV2      1 00000000 00000000 A   T    3473  3473
 IEAVEQV3      1 00000000 00000000 A   T    3476  3476
 IEAVERI1      1 00000000 00000000 A   T    3369  3369
 IEAVERP1      1 00000000 00000000 A   T    3371  3371
 IEAVERX1      1 00000000 00000000 A   T    3559  3559
 IEAVESC1      1 00000000 00000000 A   T    2260  2260   3498
 IEAVESC2      1 00000000 00000000 A   T    2262  2262
 IEAVESC7      1 00000000 00000000 A   T    2256  2256
 IEAVESC8      1 00000000 00000000 A   T    2258  2258
 IEAVESPR      1 00000000 00000000 A   T    3427  3427
 IEAVESTU      1 00000000 00000000 A   T    3661  3661
 IEAVESVT      1 00000000 00000000 A   T    2264  2264   3433
 IEAVETOT      1 00000000 00000000 A   T    2117  2117
 IEAVETVT      1 00000000 00000000 A   T    2115  2115
 IEAVET6E      1 00000000 00000000 A   T    3533  3533
 IEAVEVT2      1 00000000 00000000 A   T    3487  3487
 IEAVEXPR      1 00000000 00000000 A   T    3295  3295
 IEAVEXP1      1 00000000 00000000 A   T    3464  3464
 IEAVFRCL      1 00000000 00000000 A   T    3233  3233
 IEAVGSDA      1 00000000 00000000 A   T    3478  3478
 IEAVGTCL      1 00000000 00000000 A   T    3232  3232
 IEAVGWSA      1 00000000 00000000 A   T    3327  3327
 IEAVLKRM      1 00000000 00000000 A   T    3034  3034
 IEAVMFRM      1 00000000 00000000 A   T    3412  3412
 IEAVMSGS      1 00000000 00000000 A   T    2981  2981
 IEAVNVT0      1 00000000 00000000 A   T    3646  3646
 IEAVRSTR      1 00000000 00000000 A   T    1339  1339
 IEAVRSUH      1 00000000 00000000 A   T    3525  3525
 IEAVRT03      1 00000000 00000000 A   T    3139  3139
 IEAVSPND      1 00000000 00000000 A   T    3535  3535
 IEAVSTAG      1 00000000 00000000 A   T    3275  3275
 IEAVSVTX      1 00000000 00000000 A   T    2266  2266
 IEAVTCTL      1 00000000 00000000 A   T    3527  3527
 IEAVTEST      1 00000000 00000000 A   T    3038  3038
 IEAVTRGR      1 00000000 00000000 A   T    3335  3335
 IEAVTRG1      1 00000000 00000000 A   T    2784  2784
 IEAVTRV3      1 00000000 00000000 A   T    3031  3031
 IEAVTSBP      1 00000000 00000000 A   T    3281  3281
1TASKSERV (TASK00) (09:44) (22MAR04) Ordinary Symbol and Literal Cross Reference                                            Page  161
 IEAVTSFR      1 00000000 00000000 A   T    3002  3002
 IEAVTSGL      1 00000000 00000000 A   T    3279  3279
 IEAVVMSR      1 00000000 00000000 A   T    3060  3060
 IEAVWAIT      1 00000000 00000000 A   T    3302  3302
 IEAVWSAC      1 00000000 00000000 A   T    3333  3333
 IEAVWSAG      1 00000000 00000000 A   T    3331  3331
 IEAVWSAL      1 00000000 00000000 A   T    3329  3329
 IEAVXEXT      1 00000000 00000000 A   T    3410  3410
 IEAVXSFT      1 00000000 00000000 A   T    3377  3377
 IEAVXSTN      1 00000000 00000000 A   T    3383  3383
 IEAVXSTS      1 00000000 00000000 A   T    3381  3381
 IEAVXUNN      1 00000000 00000000 A   T    3406  3406
 IEAVXUNS      1 00000000 00000000 A   T    3385  3385
 IEAWTCB       1 00000000 00000000 A   T    3442  3442
 IEA0DS        1 00000000 00000000 A   T    2848  2848
 IEA0EF00      1 00000000 00000000 A   T    2754  2754
 IEA0EF01      1 00000000 00000000 A   T    2794  2794
 IEA0PT0E      1 00000000 00000000 A   T    3514  3514
 IEA0PT01      1 00000000 00000000 A   T    2855  2855
 IEA0PT02      1 00000000 00000000 A   T    3439  3439
 IEA0PT03      1 00000000 00000000 A   T    3516  3516
 IEA0VL00      1 00000000 00000000 A   T    2765  2765
 IEA0VL01      1 00000000 00000000 A   T    3172  3172
 IECIXAVL      1 00000000 00000000 A   T    2840  2840
 IECPCNVT      1 00000000 00000000 A   T    2768  2768
 IECPRLTV      1 00000000 00000000 A   T    2772  2772
 IECVEXCL      1 00000000 00000000 A   T    3404  3404
 IECXAPG       1 00000000 00000000 A   T    2763  2763
 IECXITP       1 00000000 00000000 A   T    2793  2793
 IECXTLER      1 00000000 00000000 A   T    2779  2779
 IEC0SCR1      1 00000000 00000000 A   T    2938  2938
 IEECUCB       1 00000000 00000000 A   T    2809  2809
 IEEMSER       1 00000000 00000000 A   T    2787  2787   2853
 IEEVEXSN      1 00000000 00000000 A   T    3142  3142
 IEEVSTOP      1 00000000 00000000 A   T    3452  3452
 IEFAQTOP      1 00000000 00000000 A   T    3259  3259
 IEFAUSDM      1 00000000 00000000 A   T    2759  2759
 IEFENFDM      1 00000000 00000000 A   T    2918  2918
 IEFJESCT      1 00000000 00000000 A   T    3018  3018
 IEFLINK       1 00000000 00000000 A   T    2756  2756
 IEFQMWR       1 00000000 00000000 A   T    2869  2869
 IEWFBOSV      1 00000000 00000000 A   T    2846  2846
 IEWMSEPT      1 00000000 00000000 A   T    3351  3351
 IFBDCB        1 00000000 00000000 A   T    2835  2835
 IFDOLT0A      1 00000000 00000000 A   T    3197  3197
 IFGDEBVR      1 00000000 00000000 A   T    3828  3828
 IGC043BR      1 00000000 00000000 A   T    3243  3243
 IGC044R2      1 00000000 00000000 A   T    3353  3353
 IGC062R1      1 00000000 00000000 A   T    3323  3323
 IGC07903      1 00000000 00000000 A   T    3468  3468
 IGC124        1 00000000 00000000 A   T    3484  3484
 IGFPMAIN      1 00000000 00000000 A   T    1375  1375
 IGFRVT        1 00000000 00000000 A   T    2933  2933
 IGVCPBDB      1 00000000 00000000 A   T    3599  3599
 IGVCPDLB      1 00000000 00000000 A   T    3601  3601
 IGVCPFRE      1 00000000 00000000 A   T    3591  3591
 IGVCPGTC      1 00000000 00000000 A   T    3589  3589
 IGVCPGUB      1 00000000 00000000 A   T    3583  3583
 IGVCPGUP      1 00000000 00000000 A   T    3586  3586
1TASKSERV (TASK00) (09:44) (22MAR04) Ordinary Symbol and Literal Cross Reference                                            Page  162
 IGVCPGUS      1 00000000 00000000 A   T    3609  3609
 IGVGCAS       1 00000000 00000000 A   T    3237  3237
 IGVGFAS       1 00000000 00000000 A   T    3241  3241
 IGVGRRGN      1 00000000 00000000 A   T    3613  3613
 IGVGVRGN      1 00000000 00000000 A   T    3615  3615
 IGVQSPET      1 00000000 00000000 A   T    3239  3239
 IGVSLIST      1 00000000 00000000 A   T    3593  3593
 IGVSLOC       1 00000000 00000000 A   T    3597  3597
 IGVSREGN      1 00000000 00000000 A   T    3595  3595
 IGVSTSKI      1 00000000 00000000 A   T    3580  3580
 IHAMPL        1 00000000 00000000 A   T    1453  1453
 IHA4591B      2 000010DA 00000001     H   14779 14776B
 IHB3876A      2 00000D24 00000001     H   13303 13301B
 IHB3876Z      4 00000D20 00000001     A   13302 13305
 IHB3947A      2 00000D90 00000001     H   13440 13438B
 IHB3947Z      4 00000D8C 00000001     A   13439 13442
 IHB4082A      2 00000E50 00000001     H   13699 13697B
 IHB4082Z      4 00000E4C 00000001     A   13698 13701
 IHB4166A      2 00000ED0 00000001     H   13863 13861B
 IHB4166Z      4 00000ECC 00000001     A   13862 13865
 IHB4173A      2 00000EF0 00000001     H   13888 13886B
 IHB4173Z      4 00000EEC 00000001     A   13887 13890
 ILRJTERM      1 00000000 00000000 A   T    3522  3522
 IOSLOCK       1 00000000 00000000 A   T    1678  1678
 IOSVDEVN      1 00000000 00000000 A   T    3539  3539
 IOSVHID       1 00000000 00000000 A   T    3549  3549
 IOSVSUCB      1 00000000 00000000 A   T    3552  3552
 IRARMCNS      1 00000000 00000000 A   T    3293  3293
 IRARMEPS      1 00000000 00000000 A   T    3511  3511
 IRARMI00      1 00000000 00000000 A   T    3250  3250
 IRBEND        4 000000A0 FFFFFFE7     F    5360  5486   5491   5502
 ISNBRNCH      1 00000000 00000000 A   T    3408  3408
 I5971         4 00001696 00000001     I   17478 17475B
 LOCKCRE       1 00000000 0000000A     T   17701 17701
 LOCKINIT      1 00000000 00000007     T   17697 17697
 LOCKOB        1 00000000 0000000C     T   17709 17709
 LOCKREL       1 00000000 0000000D     T   17710 17710
 MEMCANYR     64 00000003 FFFFFFD4         7954 13196  13196
 MEMCANYV     48 00000003 FFFFFFD4         7963 13196  13196  13197M
 MEMCBLOV     16 00000003 FFFFFFD4         7972 13219M
 MEMCFREE      1 00000003 FFFFFFD4         8018 13484  13484
 MEMCPGB       4 00000003 FFFFFFD4         8000 13168M
 MEMCUNC       2 00000003 FFFFFFD4         8009 13128M 13484  13484  13485M
 MEMFREE       1 00000000 0000000E     T   17712 17712
 MEMGET        1 00000000 0000000B     T   17702 17702
 MEMINIT       1 00000000 00000009     T   17699 17699
 MEMTA16M     16 00000002 FFFFFFD4         7904 12124M 12227M 12340M 13182  14438M 15822M 16798  16798  16799M
 MEMTDEF       1 00000002 FFFFFFD4         7940 13246M 13471M
 MEMTFIX       4 00000002 FFFFFFD4         7922 13155  13155  13156  13286  13423
 MEMTGLOB      8 00000002 FFFFFFD4         7913 16798  16798
 MEMTPAGE      2 00000002 FFFFFFD4         7931 13155  13155
 MEMTSYS     128 00000002 FFFFFFD4         7895 13138  13271  13408
 MESTAE        1 00001798 00000001     R   15248 15258  15258
 MFA16M       16 00000009 FFFFFFCF         8285 16995  16995  16996M 17195  17195  17196M
 MFGLOB        2 00000009 FFFFFFCF         8312 16995  16995  17195  17195
 MGA16M       16 00000009 FFFFFFD0         8201 12433  12433  12434M 16061  16061  16062  16062  16064M 16115  16115
                                                 16116  16116  16118M 17102  17102  17103M
 MGBEST        1 00000009 FFFFFFD0         8237 12433  12433  16062  16062  16063  16063  16116  16116  16117  16117
                                                 16185M 16551M 17102  17102
1TASKSERV (TASK00) (09:44) (22MAR04) Ordinary Symbol and Literal Cross Reference                                            Page  163
 MGGLOB        2 00000009 FFFFFFD0         8228 16061  16061  16063  16063  16115  16115  16117  16117
 MIGLOBAL    128 00000000 FFFFFFD1         8118 12281M
 MINCLKVL      8 00000C88 00000001     D   13048 12728
 MODESTAE     24 00001798 00000001     X   15258 12456  15300  17125
 MSGINIT       1 00000000 00000008     T   17698 17698
 OPTLOCK       1 00000000 00000000 A   T    1659  1659
 PAGEFIX       4 00000E08 00000001     I   13613 13608  13624U
 PAGEFREE      4 00000E80 00000001     I   13762 13757  13773U
 PDPOOLS       1 00000DF2 00000001     R   13586 13568
 POOLDEF       4 00000DD0 00000001     I   13549 13544  13560U 17711
 POOLFREE      4 00000D56 00000001     I   13367 13362  13378U
 POOLGET       4 00000CA0 00000001     I   13076 13071  13087U
 POOLGET       1 00000000 00000006     T   17691 17691
 POSTAREA      9 00000000 FFFFFFC0     J   14612 14675U
 POSTEXIT      2 0000113A 00000001     H   14890 14756B
 POSTFL        1 00000008 FFFFFFC0     R   14599 14603  14684M
 POSTLOCK    128 00000008 FFFFFFC0        14603 14801M 14857
 POSTREGS      4 00000000 FFFFFFC0     A   14596 14807M 14844
 PRBEND        4 000000A8 FFFFFFE7     F    5375  5499
 PRTRACE       2 0000106E 00000001     H   14579 14541  14556
 PSA           1 00000000 FFFFFFEE     J    1335  1333U  2281   2511  14774
 PSADTSAV      8 000006C0 FFFFFFEE     D    2081  2084   2085
 PSAEMS2S      4 0000026C FFFFFFEE     F    1614  1618
 PSAFZERO      4 000004A8 FFFFFFEE     F    1959 14777
 PSAGSAV      64 000008A8 FFFFFFEE     X    2166  2168   2169
 PSAHLHI       4 000002F8 FFFFFFEE     F    1696 14774
 PSAIPCIN      4 00000268 FFFFFFEE     F    1607  1611
 PSAJSTSA     64 00000998 FFFFFFEE     X    2215  2219   2220
 PSALITA       4 000002FC FFFFFFEE     V    1734 14789  14872  15009
 PSALOCAL      4 000002EC FFFFFFEE     A    1690 14777
 PSARTM1R      4 000003FC FFFFFFEE     F    1841  1846
 PSARV7E8      4 000007E8 FFFFFFEE     X    2097  2098   2099
 PSASLSA      72 00000950 FFFFFFEE     X    2207  2213   2214
 PSASTOSM      4 00000270 FFFFFFEE     F    1621  1630
 PSATNEW       4 00000218 FFFFFFEE     A    1491  1494
 RA            2 00000002 FFFFFFFF A   #    1028 12457M 12465  12569M 12578M 12585M 12590M 12591  12810M 12820U 12835M
                                                 12845U 12851M 12860M 12888  12917M 12926M 12933M 12938M 12939  13318M
                                                 14410M 14532M 14547M 14688M 15464M 15474U 15892M 15910U 15933M 16222M
                                                 16231M 16231  16238M 16243M 16244  16557M 16575U 17126M 17134  17153M
                                                 17221  17352M 17362U 17451M 17464
 RAR          14 0000000E FFFFFFFF A   #    1184  8749M  8787M  8825M  8882M  8940M  8978M  9090M  9147M  9185M  9242M
                                                  9293M  9331M  9424M  9486M  9547M  9605M  9666M  9704M  9742M  9780M
                                                  9887M  9952M 10006M 10044M 10082M 10136M 10194M 10232M 10329M 10377M
                                                 10415M 10469M 10534M 10567M 10631M 10696M 10778M 10839M 10877M 10931M
                                                 10989M 11043M 11101M 11155M 11213M 11267M 11325M 11363M 11417M 11475M
                                                 11529M 11587M 11641M 11699M 11737M 11798M 11895M 11952M 11992B 12128M
                                                 12181M 12188M 12231M 12247M 12251M 12285M 12302M 12344M 12387M 12438M
                                                 12501B 12603B 12767B 13022M 13038B 13336B 13518B 13580B 13731B 13924B
                                                 14223  14326B 14442M 14463B 14542M 14557M 14569B 14580B 14835M 14904B
                                                 15125M 15167B 15414B 15501B 15826M 15885M 15986M 16068M 16122M 16149M
                                                 16189M 16288M 16441B 16555M 16642M 16659B 16803M 16838M 17000M 17025M
                                                 17052M 17059M 17107M 17200M 17222M 17259B 17631M 17635M
 RB            3 00000003 FFFFFFFF A   #    1040 12439M 12440  12450U 12569M 12591  12917M 12939  13317M 13317  14164M
                                                 14172U 14272M 14284  14290M 14302  14389M 14398M 14398  14405M 14431
                                                 14445  14533M 14548M 14695M 14704M 14704  14721  14731  14732M 14967M
                                                 14988  15101  16190M 16200U 16284  16556M 16602  16638  16748M 16757M
                                                 16757  16764M 16789  16805  17108M 17109  17119U 17154M 17215  17369M
                                                 17379U 17449  17450M 17469  17509M 17519U 17525M 17543U
 RBBASIC       1 00000040 FFFFFFE7     U    4942 15083U
1TASKSERV (TASK00) (09:44) (22MAR04) Ordinary Symbol and Literal Cross Reference                                            Page  164
 RBEP          4 0000004C FFFFFFE7     A    5342  5449
 RBOPSWA       4 00000054 FFFFFFE7     A    4999 15089M
 RBPGMQ        4 00000058 FFFFFFE7     A    5350  5467   5476   5481
 RBPREFIX      1 00000000 FFFFFFE7     U    5173  5496
 RBPRFX        1 00000000 FFFFFFE7     J    4940  5171
 RBPRFXND      1 00000040 FFFFFFE7     C    5284  5496   5498
 RBPRFXST      8 00000020 FFFFFFE7     D    5213  5498   5499   5500   5501   5502   5504
 RK            5 00000005 FFFFFFFF A   #    1064 10705M 10715U 15827M 15939  16012U 16083  16397  17336M 17346U 17462
                                                 17651
 RMBRANCH      1 00000000 00000000 A   T    3418  3418
 RS            1 00000001 FFFFFFFF A   #    1016 12133M 12143U 12149M 12158M 12159  14252M 14255  14270M 14271  14272
                                                 14713M 14721M 14730M 14731M 14732  15072M 15073M 15089  15994M 16019
                                                 16220M 16243  16341M 16342  16580M 16598  16736M 16737M 16738B
 RSMLOCK       1 00000000 00000000 A   T    1671  1671
 RTCB        176 00000000 FFFFFFDC     J    7576  7586U  9830U 10278  11966U 12116  12130M 15814  15910U 15966U 16012U
                                                 16017M 16418U 16575U 16591U
 RTCBCBAT      4 00000004 FFFFFFDC     A    7521  8907   8924   8979  12232M 13645  13794  15828  15994  16019M 17509
 RTCBCPT       8 00000068 FFFFFFDC     D    7548 12699  12710  12728
 RTCBCPU       8 00000060 FFFFFFDC     D    7547 12578  12590  12712  12713M 12743
 RTCBESTA      4 00000024 FFFFFFDC     A    7531 10705  12440M 15371  15464  17109M 17352
 RTCBMSV       4 0000001C FFFFFFDC     A    7529 16742M 16842
 RTCBNAME      8 0000000C FFFFFFDC     C    7526  9913   9930  10495  10512  10657  10674  12131M 16018M 17558  17586
 RTCBNEXT      4 00000008 FFFFFFDC     A    7525 11956  12897  15926M 15926  15933  15939M
 RTCBR         9 00000009 FFFFFFFF A   #    1124  7586U 12129M 12360  12468  12484  12826M 12871M 12871  12897M 12911M
                                                 12911  16741M 17137  17351M
 RTCBSTK       4 00000018 FFFFFFDC     A    7528 10563  12132M 16807M
 RTCBTCB       4 00000014 FFFFFFDC     A    7527 12159M 12361  12888  15020  16359M 16580
 RTCBTECB      4 00000020 FFFFFFDC     A    7530 16341
 RTCBTIMR      8 00000058 FFFFFFDC     D    7546 12591M 12709  12744M 12917  12939M
 RTCBTRTC      4 00000080 FFFFFFDC     A    7553 14164  14302M 14444M 14532  14548
 RTCBTRTF      4 00000084 FFFFFFDC     A    7554 14290  14297M 14443M 14526  14547
 RTCBTRTL      4 00000088 FFFFFFDC     A    7555 14284  14446M 14533
 RVR           0 00000000 FFFFFFFF A   #    1004  8710M  8727M  8849M  8866M  8907M  8924M  9039M  9209M  9226M  9277M
                                                  9385M  9402M  9453M  9470M  9508M  9525M  9572M  9589M  9627M  9644M
                                                  9854M  9871M  9913M  9930M  9973M  9990M 10103M 10120M 10161M 10178M
                                                 10278M 10436M 10453M 10495M 10512M 10598M 10615M 10657M 10674M 10800M
                                                 10817M 10898M 10915M 10956M 10973M 11010M 11027M 11068M 11085M 11122M
                                                 11139M 11180M 11197M 11234M 11251M 11292M 11309M 11384M 11401M 11442M
                                                 11459M 11496M 11513M 11554M 11571M 11608M 11625M 11666M 11683M 11759M
                                                 11776M 11833M 11850M 12232  12233  12345  12346  12388  12423M 12424
                                                 12439  12484M 13319M 13568M 14443  14444  14445M 14446  14755M 14755
                                                 14886M 15827  15880M 15881  15981M 15982  16049M 16050  16069  16103M
                                                 16104  16123  16150  16177M 16178  16190  16282M 16283  16397M 16543M
                                                 16544  16556  16636M 16637  16804  16980M 16981  16985M 16986  17092M
                                                 17093  17108  17184M 17185
 RX            6 00000006 FFFFFFFF A   #    1076  9812M  9830U 13645M 13655U 13661M 13679U 13794M 13804U 13810M 13828U
                                                 15020M 15030U 15045M 15055U 16129M 16139U 16353
 RY            7 00000007 FFFFFFFF A   #    1088  8979M  8989U  9091M  9332M  9342U  9781M 11956M 12233M 12241U 12346M
                                                 12357U 12389  13687M 13706  13836M 13899  15036M 15083U 15828M 15838U
                                                 15844M 15860U 16069M 16079U 16352  16723M 16731U 16829  16940M 16950U
                                                 17186  17625M 17636
 R0            0 00000000 FFFFFFFF A   #     708  8647  12058  12116M 12117  12219M 12220  12332M 12333  12542  12653
                                                 12709M 12710M 12711  12713  12714M 12715  12979  13076  13255M 13312M
                                                 13318M 13367  13549  13613  13762  14132  14357  14497  14641  14935
                                                 15035  15060  15102M 15339  15445  15744  15814M 15815  16289M 16290
                                                 16485  16901  17303
 R1            1 00000001 FFFFFFFF A   #     721 11990M 12499M 12601M 12765M 13036M 13259M 13259  13261  13295M 13297
                                                 13313M 13334M 13432M 13434  13500M 13516M 13578M 13689M 13691  13694M
                                                 13729M 13838M 13840  13843M 13922M 14324M 14461M 14567M 14902M 15101M
1TASKSERV (TASK00) (09:44) (22MAR04) Ordinary Symbol and Literal Cross Reference                                            Page  165
                                                 15165M 15412M 15499M 16359  16439M 16657M 16723  17257M 17336
 R10          10 0000000A FFFFFFFF A   #     838 14807  14812M 14812  14844M
 R11          11 0000000B FFFFFFFF A   #     851 14807  14808M 14844M
 R12          12 0000000C FFFFFFFF A   #     864 12791  12944M 16712  16843M 17325
 R13          13 0000000D FFFFFFFF A   #     877 16742  16842M 16843  17625  17636M
 R14          14 0000000E FFFFFFFF A   #     890 12791  12944M 12945B 15371M 15381U 16712  16843M 16848B 17313B 17325
 R15          15 0000000F FFFFFFFF A   #     903  8647  11990M 12058  12499M 12542  12601M 12653  12765M 12792  12806
                                                 12979  13036M 13076  13255M 13296M 13297M 13299M 13334M 13367  13433M
                                                 13434M 13436M 13500M 13516M 13549  13578M 13613  13729M 13762  13922M
                                                 14132  14324M 14357  14461M 14497  14567M 14641  14813M 14823U 14902M
                                                 14935  15035  15103M 15113U 15165M 15339  15412M 15445  15499M 15744
                                                 16304M 16304  16439M 16485  16657M 16713  16847M 16847  16901  17257M
                                                 17292U 17312M 17312  17326
 R2            2 00000002 FFFFFFFF A   #     734 12712M 12714  12742M 12743M 12744  13687  13690M 13691M 13693M 13695M
                                                 13706M 13836  13839M 13840M 13842M 13844M 13899M 14215  15061
 R4            4 00000004 FFFFFFFF A   #     760 13688M 13837M 15062
 R5971         2 00001686 00000001     I   17474 17479B
 R6            6 00000006 FFFFFFFF A   #     786 15063
 SALCLOCK      1 00000000 00000000 A   T    1651  1651
 SBTDATA       4 00000000 FFFFFFB7     A   16683 17215M
 SBTPARM       4 00000000 FFFFFFB7     J   16690 17213U
 SDWA          1 00000000 FFFFFFE6     J    5758  6754   7497  17346U 17463M 17465M 17466M 17467M 17468M 17472  17652M
 SDWAABCC      4 00000004 FFFFFFE6     B    5773 17386
 SDWAACF2      1 000000FD FFFFFFE6     B    6197 17466M 17468M
 SDWAAEC2      8 00000080 FFFFFFE6     C    5967 17385
 SDWACLEN      8 000001C8 FFFFFFDE A   U    6757  6764   6765
 SDWACLUP      1 00000080 FFFFFFE6 A   U    6128 17400
 SDWACMPF      1 00000004 FFFFFFE6     B    5774 17467M
 SDWADEND      8 000000F0 FFFFFFDE     D    6751  6761
 SDWADLEN      8 000000F0 FFFFFFDE A   U    6761  6762
 SDWAEC2       8 00000078 FFFFFFE6     C    5925 17384
 SDWAEEND      8 00000150 FFFFFFE2     D    6702  6763
 SDWAELEN      8 00000150 FFFFFFDE A   U    6763  6764   6765   6772
 SDWAEND       8 00000298 FFFFFFE6     D    6397  6754
 SDWAERRD      1 000000EB FFFFFFE6     B    6127 17400
 SDWAFREE      1 00000004 FFFFFFE6 A   U    6213 17466
 SDWAGR15      4 00000054 FFFFFFE6     F    5846 17387
 SDWAIEND      8 00000010 FFFFFFE4     D    6624  6758
 SDWAILEN      8 00000010 FFFFFFDE A   U    6758  6764   6765
 SDWALEN       8 00000298 FFFFFFDE A   U    6754  6765
 SDWALEND      8 00000020 FFFFFFE3     D    6672  6759
 SDWALLEN      8 00000020 FFFFFFDE A   U    6759  6764   6765
 SDWAMLEN      8 00000600 FFFFFFDE A   U    6766  6769   6775
 SDWAMLNP      8 000005E0 FFFFFFDE A   U    6765  6766
 SDWANLNS      8 000001F0 FFFFFFDE A   U    6762  6769   6777
 SDWANOPR      1 00000000 FFFFFFDE A   U    6780 17458B 17647B
 SDWANRC1      1 00000000 FFFFFFE0     J    6726  6756
 SDWANRC2      1 00000000 FFFFFFDF     J    6735  6760
 SDWANRC3      1 00000000 FFFFFFDE     J    6748  6761
 SDWAPARM      4 00000000 FFFFFFE6     A    5760 17351
 SDWAPEND      8 00000020 FFFFFFE1     D    6720  6755
 SDWAPLEN      8 00000020 FFFFFFDE A   U    6755  6766
 SDWAPTRS      1 00000000 FFFFFFE1     J    6711  6755
 SDWARCDE      1 000000FC FFFFFFE6     B    6191 17463M 17652M
 SDWARC1       1 00000000 FFFFFFE5     J    6399  6757
 SDWARC2       1 00000000 FFFFFFE4     J    6618  6758
 SDWARC3       1 00000000 FFFFFFE3     J    6630  6759
 SDWARC4       1 00000000 FFFFFFE2     J    6680  6763
 SDWAREND      8 000000F0 FFFFFFE0     D    6728  6756
1TASKSERV (TASK00) (09:44) (22MAR04) Ordinary Symbol and Literal Cross Reference                                            Page  166
 SDWAREQ       1 00000080 FFFFFFE6 A   U    5775 17467
 SDWARLEN      8 000000F0 FFFFFFDE A   U    6756  6762
 SDWARTYA      4 000000F0 FFFFFFE6     A    6176 17465M
 SDWASEN       8 00000010 FFFFFFDF     D    6741  6760
 SDWASEND      8 000001C8 FFFFFFE5     D    6612  6757
 SDWASLEN      8 00000710 FFFFFFDE A   U    6775  6777
 SDWASPL       8 00000010 FFFFFFDE A   U    6760  6762
 SDWASRSV     64 00000088 FFFFFFE6     C    5984 17388  17472
 SDWATLEN      8 000007F0 FFFFFFDE A   U    6769  6772
 SDWATRAN      4 00000074 FFFFFFE6     A    5920  5922
 SDWAUPRG      1 00000008 FFFFFFE6 A   U    6211 17468
 SEG           1 00000000 00000002     T   12005 12005
 SEGCORE       1 00000000 00000004     T   12008 12008
 SEGHEX        1 00000000 00000003     T   12006 12006
 SEGSTK        1 00000000 00000005     T   12012 12012
 SIRBEND       4 000000E8 FFFFFFE7     F    5438  5500
 SPAWN         4 00001268 00000001     I   15744 15739  15755U
 SPNATT        8 00000000 FFFFFFBA     D   15660 16129
 SPNDATA      72 00000000 FFFFFFBA     J   15667 15778U 15787M 15787
 SPNEXA        4 0000000C FFFFFFB9     A   15684 16208  16220
 SPNEXAR       4 00000000 FFFFFFB9     A   15681 16207
 SPNEXTR      16 00000000 FFFFFFB9     J   15691 16177  16200U 16282
 SPR          13 0000000D FFFFFFFF A   #    1172  8647   8662   8663   8678M  8693U  9007U  9114U 10246U 10344U 10547U
                                                 10581U 11812U 11919U 12058  12073  12074  12089M 12100U 12172U 12203U
                                                 12266U 12316U 12374U 12408U 12542  12557  12558  12560M 12653  12668
                                                 12669  12689M 12979  12994  12995  12997M 13007U 13076  13091  13092
                                                 13107M 13367  13382  13383  13398M 13549  13564  13565  13567M 13613
                                                 13628  13629  13644M 13762  13777  13778  13793M 14132  14147  14148
                                                 14163M 14357  14372  14373  14388M 14421U 14497  14512  14513  14515M
                                                 14641  14656  14657  14677M 14935  14950  14951  14966M 15339  15354
                                                 15355  15370M 15445  15460  15461  15463M 15744  15759  15760  15780M
                                                 15798U 15875U 16034U 16267U 16485  16500  16501  16516M 16528U 16621U
                                                 16747M 16779U 16804M 16805  16806M 16806  16807  16820U 16901  16916
                                                 16939M 16965U 17016U 17040U 17077U 17169U 17213U 17627M
 STOPBAT       1 00000000 0000000F     T   17715 17715
 SVRBEND       4 00000110 FFFFFFE7     F    5447  5504
 TASKCT       16 00000000 FFFFFFC8     J    8546  9342U  9358  12332  12357U 12359M 12820U 13679U 13828U 15860U
 TASKDUMP      4 00000022 00000001     I    8647  8642   8658U
 TASKINIT      4 00000982 00000001     I   12058 12053  12069U
 TASKPARM     24 00000000 FFFFFFB8     J   15715 16049  16079U 16731U 16950U 17184
 TASKSERV      1 00000000 00000001     J    1219  1216   1217   1221   7499   7577   7649   7730   7758   7793   7812
                                                  7838   7864   8031   8068   8094   8164   8248   8323   8385   8407
                                                  8427   8480   8499   8519   8547   8577   8601   8624  15619
 TASKSTRT      2 0000149E 00000001     H   16711 16294  16721U
 TASK00        1 00000000 00000001     R    1228  1226
 TCB           1 00000020 FFFFFFE9     U    4046  4745  15030U
 TCBAE         4 000000BC FFFFFFE9     A    4290  4293
 TCBDARPN      1 00000040 FFFFFFE9 A   U    4336  4338
 TCBDARTN      1 00000080 FFFFFFE9 A   U    4333  4335
 TCBFIX        1 00000000 FFFFFFE9     J    4034  4041  15055U
 TCBFRS0       8 00000000 FFFFFFE9     D    4037 15060M
 TCBFRS2       8 00000008 FFFFFFE9     D    4038 15061M
 TCBFRS4       8 00000010 FFFFFFE9     D    4039 15062M
 TCBFRS6       8 00000018 FFFFFFE9     D    4040 15063M
 TCBGRS       64 00000050 FFFFFFE9     C    4210 15035M
 TCBMNLEN      1 00000158 FFFFFFE9 A   U    4745  4790
 TCBPXLEN      1 00000020 FFFFFFE9 A   U    4041  4790  17708
 TCBRBP        4 00000020 FFFFFFE9     A    4048 15036
 TCBRD         4 000000B8 FFFFFFE9     A    4285  4289
1TASKSERV (TASK00) (09:44) (22MAR04) Ordinary Symbol and Literal Cross Reference                                            Page  167
 TCBXTNT2      1 00000000 FFFFFFE8     J    4750  4788
 TCBX2LEN      1 00000020 FFFFFFE8 A   U    4788  4790
 TCTMTTCB      4 0000000C FFFFFFC8     A    8539 12361M 13688  13837
 TCTRLOCK      4 00000008 FFFFFFC8     A    8538  9572   9589  12388M 15880  15981
 TCTRTCB       4 00000004 FFFFFFC8     A    8537  9453   9470   9781  12360M 12826  15892
 TIRBEND       4 000000A8 FFFFFFE7     F    5376  5501
 TMCB        124 00000000 FFFFFFDA     J    7729 17543U
 TMCBECB       4 00000010 FFFFFFDA     A    7702 17605
 TMCBFLG       1 00000004 FFFFFFDA     R    7672  7676   7681   7686
 TMCBPFLG      1 00000005 FFFFFFDA     R    7691  7695
 TMCBSTK       4 00000018 FFFFFFDA     A    7705 17626
 TMFABEND     32 00000004 FFFFFFDA         7686 17599  17599
 TMFDUMP     128 00000004 FFFFFFDA         7676 17599  17599  17600M
 TMFGDONE    128 00000005 FFFFFFDA         7695 17570M
 TPLEP         4 00000008 FFFFFFB8     A   15705 16127M 17153
 TPLNSTK       4 00000014 FFFFFFB8     A   15708 16126M 16748
 TPLNTRC       4 00000010 FFFFFFB8     A   15707 16125M 17018
 TPLPARM       4 0000000C FFFFFFB8     A   15706 16124M 17154
 TPLRTCB       4 00000000 FFFFFFB8     A   15703 16083M 16741
 TPLTSTK       4 00000004 FFFFFFB8     A   15704 16123M 16746  16985
 TRCE          4 00000F20 00000001     I   14132 14127  14143U
 TRCECPID      2 0000000C FFFFFFC2     H   14066 14205M 14241M
 TRCEIC        2 0000000E FFFFFFC2     H   14067 14212M 14212  14240M
 TRCEINIT      4 00000FCE 00000001     I   14357 14352  14368U 17694
 TRCELEN       2 00000000 FFFFFFC2     H   14062 14271M
 TRCELOCK      1 00000000 00000000 A   T    1675  1675
 TRCENAME      8 00000002 FFFFFFC2     C   14063 14175M
 TRCENTRY     32 00000000 FFFFFFC2     J   14077 14172U 14270  14272  17706
 TRCEPRNT      4 0000102C 00000001     I   14497 14492  14508U
 TRCEPSW       8 00000018 FFFFFFC2     X   14069 14213M 14215M 14222M 14222  14223M 14239M
 TRCEREGS      1 00000020 FFFFFFC2     X   14070 14262M
 TRCETS        8 00000010 FFFFFFC2     X   14068 14246M
 TRCETYPE      1 0000000A FFFFFFC2     X   14064 14174M 14187  14199
 TSKPRM        4 00000000 FFFFFFB6     J   16889 16820U 16828M 16828  16935U 17244U
 TSKPRVAL      4 00000000 FFFFFFB6     A   16882 16829M 16940
 TSKSTART      4 00001518 00000001     I   16901 16837  16912U
 VFIXLOCK      1 00000000 00000000 A   T    1661  1661
 VPAGLOCK      1 00000000 00000000 A   T    1666  1666
 VRADAT        1 00000002 FFFFFFDD     G    6910  6914
 VRAKL         2 00000000 FFFFFFDD     G    6902  6914
 WAITDONE      2 000011DA 00000001     H   15135 15072
 WAR          12 0000000C FFFFFFFF A   #    1160  8662   8663M  8664   8674U  8678  11990  11991  12073  12074M 12075
                                                 12085U 12089  12499  12500  12557  12558M 12559  12560  12601  12602
                                                 12668  12669M 12670  12680U 12689  12765  12766  12994  12995M 12996
                                                 12997  13036  13037  13091  13092M 13093  13103U 13107  13334  13335
                                                 13382  13383M 13384  13394U 13398  13516  13517  13564  13565M 13566
                                                 13567  13578  13579  13628  13629M 13630  13640U 13644  13729  13730
                                                 13777  13778M 13779  13789U 13793  13922  13923  14147  14148M 14149
                                                 14159U 14163  14324  14325  14372  14373M 14374  14384U 14388  14461
                                                 14462  14512  14513M 14514  14515  14567  14568  14656  14657M 14658
                                                 14668U 14677  14902  14903  14950  14951M 14952  14962U 14966  15165
                                                 15166  15354  15355M 15356  15366U 15370  15412  15413  15460  15461M
                                                 15462  15463  15499  15500  15759  15760M 15761  15771U 15780  16439
                                                 16440  16500  16501M 16502  16512U 16516  16657  16658  16746M 16916M
                                                 16917  16935U 16939  17257  17258  17626M
 =A(CPTREAD)
               4 0000174C 00000001     A   17704 13021
 =A(CPTSTART)
               4 00001728 00000001     A   17695 12187  17058
1TASKSERV (TASK00) (09:44) (22MAR04) Ordinary Symbol and Literal Cross Reference                                            Page  168
 =A(L'TRCENTRY+24)
               4 00001754 00000001     A   17706 14410
 =A(POOLDEF)
               4 00001768 00000001     A   17711 16148
 =A(TCBPXLEN)
               4 0000175C 00000001     A   17708 15045
 =A(TRCEINIT)
               4 00001724 00000001     A   17694 12180  17024
 =A(X'40000000')
               4 00001758 00000001     A   17707 14713  14730
 =A(1)         4 00001748 00000001     A   17703 12585  12933
 =A(50)        4 00001720 00000001     A   17693 12174
 =A(512*4)
               4 00001774 00000001     A   17714 16764
 =C'  ILC '
               6 000008B6 00000001     C   12018 11608
 =C'  INTC '
               7 00000958 00000001     C   12026 11122
 =C'  Reason '
               9 0000094F 00000001     C   12025 11010
 =C' '         1 0000095F 00000001     C   12027 11234  11496
 =C' TCTRLOCK (Lock ID for RTCB chain)'
              34 0000088A 00000001     C   12016  9627
 =C' TCTRTCB  (Chain of all RTCBs in the system)'
              44 00000834 00000001     C   12010  9508
 =C'** Dump of '
              11 0000092C 00000001     C   12022  9854
 =C'*** ID Check failed.  This may be garbage ***'
              45 000008FF 00000001     C   12021  9385
 =C'*** Task Abended ***'
              20 00000868 00000001     C   12013 10800
 =C'**** T A S K   I N F O R M A T I O N ****'
              41 000008D6 00000001     C   12020  8710
 =C'Completion Code '
              16 00000810 00000001     C   12004 10898
 =C'CBAT at '
               8 00000800 00000001     C   12002  8849
 =C'End of stack for '
              17 0000093E 00000001     C   12024 10598
 =C'GSTCPU'
               6 00001784 00000001     C   17719 17558
 =C'MASTER'
               6 0000178A 00000001     C   17720 17586
 =C'PSW at time of ABEND '
              21 00000960 00000001     C   12028 11384
 =C'Registers at time of ABEND'
              26 000008BC 00000001     C   12019 11759
 =C'RTCB at '
               8 00000808 00000001     C   12003 10103
 =C'Stack for '
              10 000008AC 00000001     C   12017 10436
 =C'Task **'
               7 00000937 00000001     C   12023  9973
 =C'TASKCT at '
              10 00000880 00000001     C   12015  9209
 =C'TCT '      4 00000830 00000001     C   12009  9358
 =CL16'RTCB CHAIN'
              16 00001708 00000001     C   17690 12383
 =CL4'CBAT'
1TASKSERV (TASK00) (09:44) (22MAR04) Ordinary Symbol and Literal Cross Reference                                            Page  169
               4 00000828 00000001     C   12007  9050
 =CL4'CBAT'
               4 0000172C 00000001     C   17696 12243
 =CL4'REGS'
               4 0000087C 00000001     C   12014 11861
 =CL4'RTCB'
               4 00000860 00000001     C   12011 10289
 =CL4'RTCB'
               4 0000171C 00000001     C   17692 12130  16017
 =CL4'TCT'
               4 0000173C 00000001     C   17700 12359
 =CL8'MASTER'
               8 00001700 00000001     C   17689 12131
 =H'12'        2 00001782 00000001     H   17718 17303
 =V(DODUMP)
               4 0000177C 00000001     V   17716 17634
 =V(LOCKCRE)
               4 00001740 00000001     V   17701 12386
 =V(LOCKINIT)
               4 00001730 00000001     V   17697 12246
 =V(LOCKOB)
               4 00001760 00000001     V   17709 15884
 =V(LOCKREL)
               4 00001764 00000001     V   17710 15985
 =V(MEMFREE)
               4 0000176C 00000001     V   17712 16287  16641  16999  17199
 =V(MEMGET)
               4 00001744 00000001     V   17702 12437  16067  16121  16188  16554  17106
 =V(MEMINIT)
               4 00001738 00000001     V   17699 12284  12301  17051
 =V(MSGINIT)
               4 00001734 00000001     V   17698 12250
 =V(POOLGET)
               4 00001718 00000001     V   17691 12127  12230  12343  14441  15825  16802
 =V(SEG)       4 00000820 00000001     V   12005  8748   8786   8824   8881   8977   9146   9184   9241   9330   9423
                                                  9546   9665   9703   9741   9779   9886   9951  10005  10043  10081
                                                 10135  10231  10376  10414  10468  10533  10630  10695  10777  10838
                                                 10876  10930  11042  11154  11266  11362  11416  11528  11640  11736
                                                 11797  11951
 =V(SEGCORE)
               4 0000082C 00000001     V   12008  9089  10328  11894
 =V(SEGHEX)
               4 00000824 00000001     V   12006  8939   9292   9485   9604  10193  10988  11100  11212  11324  11474
                                                 11586  11698
 =V(SEGSTK)
               4 00000864 00000001     V   12012 10566
 =V(STOPBAT)
               4 00001778 00000001     V   17715 17630
 =X'FFFF'      2 00001780 00000001     X   17717 12455  17124
 =X'7FFFFFFF'
               4 00001750 00000001     X   17705 13694  13695  13843  13844
 =X'80000000'
               4 00001770 00000001     X   17713 16737

1TASKSERV (TASK00) (09:44) (22MAR04) Macro and Copy Code Source Summary                                                     Page  170
- Con Source                                        Volume    Members                        HLASM R4.0  2004/03/22 09.44
0     PRIMARY INPUT                                           CSECT    DROP     END      EX       LTORG    POP
                                                              PRINT    PUSH     START    USING
   L2 WYL.GG.ORV.MACLIB                             SYSB02    $LKPARM  ACALL    CBAT     CPTPARM  ESTAPARM FIXPARM
                                                              FUNCPARM HEADER   KAPUT    LCALL    LOCKOB   LOCKPARM
                                                              LOCKRL   MEMFREE  MEMGET   MEMINIT  MEMPARM  MODULE
                                                              MOVSTR   PEND     PMOV     POOLGET  POOLPARM POSTPARM PROC
                                                              PSET     REG      RTCB     SBTPARM  SEG      SEGCORE
                                                              SEGEOB   SEGEOR   SEGHEX   SEGLD    SEGPARM  SEGTB
                                                              SPLEVEL  SPNPARM  TASKPARM TMCB     TRCEPARM TRCIPARM
                                                              VCALL    WAITPARM
   L3 WYL.GG.SYS.MACLIB                             SYSB05    $BC      $BFLKUP  $BV      $CCLKUP  $CRS     $CSS     $L
                                                              $LA      $LBLAD   $LEXP    $LOR     $REL     $RGLKUP
                                                              $USLKUP  ADL      AUSING   BEGIN    CLEAR    CSECT    DATA
                                                              DECR     DEFCC    DROP     ELSE     END      EX       EXIT
                                                              FLAG     GEN      HIBAL    IDENT    IF       LABEL    LC
                                                              LOOP     LTORG    POP      PRINT    PUSH     RECORD   REGS
                                                              SET      START    STF      UNTIL    USING    WHILE    WITH
   L4 SYS1.MACLIB                                   MVSBR9    ABEND    ATTACH   CPUTIMER CVT      DETACH   ESTAE
                                                              EXTRACT  IDENTIFY IHAPSA   IHAPSAE  IHARB    IHASDWA
                                                              IHAVRA   IHBINNRA IHBINNRR IHBOPLTX IKJTCB   MODESET
                                                              PGSER    POST     RETURN   SETLOCK  SETLOCK8 SETRP
                                                              STIMER   SYSSTATE TTIMER   WAIT
   L5 SYS1.MODGEN                                   MVSBR9    IEZATTCH IEZBITS  IKJRB

1         (TASK00) (09:44) (22MAR04) General Purpose Register Cross Reference                                               Page  171
- Register  References (M=modified, B=branch, U=USING, D=DROP, N=index)                      HLASM R4.0  2004/03/22 09.44
0    0(0)      991U   992D  1333U  2547U  2548D  8647   8710M  8715   8727M  8732   8849M  8854   8866M  8871   8907M
              8912   8924M  8929   9039M  9044   9209M  9214   9226M  9231   9277M  9282   9385M  9390   9402M  9407
              9453M  9458   9470M  9475   9508M  9513   9525M  9530   9572M  9577   9589M  9594   9627M  9632   9644M
              9649   9854M  9859   9871M  9876   9913M  9918   9930M  9935   9973M  9978   9990M  9995  10103M 10108
             10120M 10125  10161M 10166  10178M 10183  10278M 10283  10436M 10441  10453M 10458  10495M 10500  10512M
             10517  10598M 10603  10615M 10620  10657M 10662  10674M 10679  10800M 10805  10817M 10822  10898M 10903
             10915M 10920  10956M 10961  10973M 10978  11010M 11015  11027M 11032  11068M 11073  11085M 11090  11122M
             11127  11139M 11144  11180M 11185  11197M 11202  11234M 11239  11251M 11256  11292M 11297  11309M 11314
             11384M 11389  11401M 11406  11442M 11447  11459M 11464  11496M 11501  11513M 11518  11554M 11559  11571M
             11576  11608M 11613  11625M 11630  11666M 11671  11683M 11688  11759M 11764  11776M 11781  11833M 11838
             11850M 11855  12058  12116M 12117  12219M 12220  12232  12233  12332M 12333  12345  12346  12388  12423M
             12424  12439  12473M 12484M 12542  12566M 12567M 12653  12698  12700M 12707M 12739M 12740M 12791  12807M
             12808M 12944M 12979  13076  13255M 13304M 13304  13312M 13318M 13319M 13367  13441M 13441  13500M 13549
             13568M 13613  13700M 13700  13762  13864M 13864  13889M 13889  14132  14357  14443  14444  14445M 14446
             14497  14641  14755M 14755  14886M 14935  14987M 15035  15102M 15339  15445  15744  15814M 15815  15827
             15880M 15881  15981M 15982  16049M 16050  16069  16103M 16104  16123  16150  16177M 16178  16190  16282M
             16283  16289M 16290  16319M 16320M 16321  16397M 16455M 16456M 16457  16485  16543M 16544  16556  16603M
             16604M 16605  16636M 16637  16712  16804  16843M 16901  16980M 16981  16985M 16986  17092M 17093  17108
             17142M 17184M 17185  17303  17325  17470M 17473M 17474M 17474  17482M 17604M 17604  17654M
     1(1)      987U  8647  11990M 12058  12133M 12143U 12149M 12156U 12158M 12159  12464M 12465N 12466  12467  12468
             12469  12470  12471  12472  12472  12499M 12542  12564M 12601M 12653  12698  12699M 12707M 12737M 12765M
             12791  12805M 12944M 12979  13025M 13036M 13076  13259M 13259  13261  13295M 13297  13305M 13313M 13318M
             13334M 13367  13432M 13434  13442M 13500M 13516M 13549  13578M 13613  13689M 13691  13694M 13701M 13729M
             13762  13838M 13840  13843M 13865M 13890M 13922M 14132  14249D 14251M 14251  14252M 14253U 14255  14270M
             14271  14272N 14324M 14357  14461M 14497  14567M 14641  14713M 14721M 14730M 14731M 14732  14902M 14935
             14988M 15035  15072M 15073M 15089  15101M 15165M 15339  15412M 15445  15499M 15744  15994M 16019  16207M
             16209N 16211N 16212  16213  16217D 16219M 16219  16220M 16221U 16243  16294M 16318M 16321M 16341M 16342
             16352M 16359  16439M 16454M 16457M 16485  16580M 16598  16602M 16605M 16657M 16712  16723  16736M 16737M
             16738B 16843M 16901  17133M 17134N 17135  17136  17137  17138  17139  17140  17141  17141  17257M 17325
             17336  17462M 17463  17465  17466  17467  17468  17472  17482M 17605M 17651M 17652  17654M
     2(2)      983U  8647  11990M 12058  12457M 12465  12499M 12542  12569M 12585M 12590M 12591  12601M 12653  12698
             12701M 12702M 12702  12703M 12703  12704  12707M 12765M 12791  12810M 12820U 12833U 12835M 12845U 12851M
             12858U 12860M 12888  12917M 12933M 12938M 12939  12944M 12979  13036M 13076  13318M 13334M 13367  13516M
             13549  13578M 13613  13685M 13687  13690M 13691M 13693M 13695M 13706M 13709  13729M 13762  13834M 13836
             13839M 13840M 13842M 13844M 13899M 13902  13922M 14132  14214M 14215  14324M 14357  14410M 14461M 14497
             14532M 14547M 14567M 14641  14688M 14765M 14885  14902M 14935  14998M 15035  15138  15165M 15339  15412M
             15445  15464M 15474U 15491U 15499M 15744  15892M 15910U 15933M 15971U 16222M 16231M 16231  16238M 16243M
             16244  16439M 16485  16557M 16575U 16596U 16657M 16712  16843M 16901  17126M 17134  17153M 17221  17257M
             17325  17352M 17362U 17451M 17464  17482M 17654M 17671U
     3(3)      979U  8647  11990M 12058  12439M 12440  12450U 12482U 12499M 12542  12569M 12578M 12591  12601M 12653
             12698  12704M 12707M 12765M 12791  12917M 12926M 12939  12944M 12979  13036M 13076  13317M 13317  13318M
             13334M 13367  13516M 13549  13578M 13613  13702M 13729M 13762  13866M 13891M 13922M 14132  14164M 14172U
             14272M 14284  14290M 14302  14308U 14324M 14357  14389M 14398M 14398  14405M 14410M 14431  14445  14461M
             14497  14533M 14548M 14567M 14641  14695M 14704M 14704  14721  14731  14732M 14902M 14935  14967M 14988
             15035  15101  15165M 15339  15412M 15445  15499M 15744  16190M 16200U 16251U 16284  16439M 16485  16556M
             16602  16638  16657M 16712  16748M 16757M 16757  16764M 16789  16805  16843M 16901  17108M 17109  17119U
             17151U 17154M 17215  17257M 17325  17369M 17379U 17395U 17449  17450M 17469  17482M 17509M 17519U 17525M
             17532U 17543U 17654M 17662U
     4(4)      975U  8647  11990M 12058  12499M 12542  12601M 12653  12698  12704M 12707M 12765M 12791  12944M 12979
             13036M 13076  13334M 13367  13516M 13549  13578M 13613  13688M 13729M 13762  13837M 13922M 14132  14324M
             14357  14461M 14497  14567M 14641  14902M 14935  15035  15165M 15339  15412M 15445  15499M 15744  16439M
             16485  16657M 16712  16843M 16901  17257M 17325  17482M 17654M
     5(5)      971U  8647  10705M 10715U 11901U 11990M 12058  12499M 12542  12601M 12653  12698  12707M 12765M 12791
             12944M 12979  13036M 13076  13334M 13367  13516M 13549  13578M 13613  13729M 13762  13922M 14132  14324M
             14357  14461M 14497  14567M 14641  14902M 14935  15035  15165M 15339  15412M 15445  15499M 15744  15827M
1         (TASK00) (09:44) (22MAR04) General Purpose Register Cross Reference                                               Page  172
             15939  16012U 16083  16397  16423U 16439M 16485  16657M 16712  16843M 16901  17257M 17325  17336M 17346U
             17462  17482M 17651  17654M 17677U
     6(6)      967U  8647   9812M  9830U 10266  11971U 11990M 12058  12499M 12542  12601M 12653  12698  12707M 12765M
             12791  12944M 12979  13036M 13076  13334M 13367  13516M 13549  13578M 13613  13645M 13655U 13661M 13668U
             13679U 13716U 13729M 13762  13794M 13804U 13810M 13817U 13828U 13909U 13922M 14132  14324M 14357  14461M
             14497  14567M 14641  14902M 14935  15020M 15030U 15035  15043U 15045M 15055U 15070U 15165M 15339  15412M
             15445  15499M 15744  16129M 16139U 16353  16403U 16439M 16485  16657M 16712  16843M 16901  17257M 17325
             17482M 17654M
     7(7)      963U  8647   8979M  8989U  9027   9091M  9098U  9265   9332M  9342U  9781M  9788U 11956M 11990M 12058
             12233M 12241U 12346M 12354U 12357U 12389  12499M 12514U 12542  12601M 12653  12698  12707M 12765M 12791
             12944M 12979  13036M 13076  13334M 13367  13516M 13549  13578M 13613  13687M 13706  13729M 13762  13836M
             13899  13922M 14132  14324M 14357  14461M 14497  14567M 14641  14902M 14935  15035  15036M 15083U 15096U
             15165M 15339  15412M 15445  15499M 15744  15828M 15838U 15844M 15851U 15860U 15992U 16069M 16079U 16352
             16408U 16439M 16485  16657M 16712  16723M 16731U 16829  16843M 16860U 16901  16940M 16950U 17186  17232U
             17257M 17325  17482M 17625M 17636  17654M
     8(8)      959U  8647  11990M 12058  12499M 12542  12601M 12653  12698  12707M 12765M 12791  12944M 12979  13036M
             13076  13334M 13367  13516M 13549  13578M 13613  13729M 13762  13922M 14132  14324M 14357  14461M 14497
             14567M 14641  14902M 14935  15035  15165M 15339  15412M 15445  15499M 15744  16439M 16485  16657M 16712
             16843M 16901  17257M 17325  17482M 17654M
     9(9)      955U  7586U  8647   9827U 11966U 11990M 12058  12129M 12360  12468  12484  12499M 12542  12601M 12653
             12698  12707M 12765M 12791  12826M 12871M 12871  12897M 12911M 12911  12944M 12979  13036M 13076  13334M
             13367  13516M 13549  13578M 13613  13729M 13762  13922M 14132  14324M 14357  14461M 14497  14567M 14641
             14902M 14935  15035  15165M 15339  15412M 15445  15499M 15744  15907U 15966U 16009U 16418U 16439M 16485
             16572U 16591U 16657M 16712  16741M 16843M 16901  17137  17257M 17325  17351M 17482M 17654M
    10(A)      951U  8647   8648M  8658U 11987U 11990M 12058  12059M 12069U 12496U 12499M 12542  12543M 12553U 12598U
             12601M 12653  12654M 12664U 12698  12707M 12762U 12765M 12791  12792M 12800U 12944M 12951U 12979  12980M
             12990U 13033U 13036M 13076  13077M 13087U 13331U 13334M 13367  13368M 13378U 13513U 13516M 13549  13550M
             13560U 13575U 13578M 13613  13614M 13624U 13726U 13729M 13762  13763M 13773U 13919U 13922M 14132  14133M
             14143U 14321U 14324M 14357  14358M 14368U 14458U 14461M 14497  14498M 14508U 14564U 14567M 14641  14642M
             14652U 14807  14812M 14812  14844M 14899U 14902M 14935  14936M 14946U 15035  15162U 15165M 15339  15340M
             15350U 15409U 15412M 15445  15446M 15456U 15496U 15499M 15744  15745M 15755U 16436U 16439M 16485  16486M
             16496U 16654U 16657M 16712  16713M 16721U 16843M 16854U 16901  16902M 16912U 17254U 17257M 17325  17326M
             17334U 17482M 17654M 17684U
    11(B)      947U  3161B  3162B  8647  11990M 12058  12499M 12542  12601M 12653  12698  12707M 12765M 12791  12944M
             12979  13036M 13076  13334M 13367  13516M 13549  13578M 13613  13729M 13762  13922M 14132  14324M 14357
             14461M 14497  14567M 14641  14788  14795M 14807  14808M 14844M 14871  14878M 14902M 14935  15008  15015M
             15035  15165M 15339  15412M 15445  15499M 15744  16439M 16485  16657M 16712  16843M 16901  17257M 17325
             17482M 17654M
    12(C)      943U  8647   8662   8663M  8664   8674U  8678  11982U 11990M 11990  11991  12058  12073  12074M 12075
             12085U 12089  12491U 12499M 12499  12500  12542  12557  12558M 12559  12560  12601M 12601  12602  12653
             12668  12669M 12670  12680U 12689  12698  12705M 12706  12707M 12757U 12765M 12765  12766  12791  12944M
             12979  12994  12995M 12996  12997  13036M 13036  13037  13076  13091  13092M 13093  13103U 13107  13326U
             13334M 13334  13335  13367  13382  13383M 13384  13394U 13398  13508U 13516M 13516  13517  13549  13564
             13565M 13566  13567  13578M 13578  13579  13613  13628  13629M 13630  13640U 13644  13721U 13729M 13729
             13730  13762  13777  13778M 13779  13789U 13793  13914U 13922M 13922  13923  14132  14147  14148M 14149
             14159U 14163  14316U 14324M 14324  14325  14357  14372  14373M 14374  14384U 14388  14453U 14461M 14461
             14462  14497  14512  14513M 14514  14515  14567M 14567  14568  14641  14656  14657M 14658  14668U 14677
             14788  14795M 14871  14878M 14894U 14902M 14902  14903  14935  14950  14951M 14952  14962U 14966  15008
             15015M 15035  15157U 15165M 15165  15166  15339  15354  15355M 15356  15366U 15370  15404U 15412M 15412
             15413  15445  15460  15461M 15462  15463  15499M 15499  15500  15744  15759  15760M 15761  15771U 15780
             16431U 16439M 16439  16440  16485  16500  16501M 16502  16512U 16516  16649U 16657M 16657  16658  16712
             16746M 16843M 16901  16916M 16917  16935U 16939  17249U 17257M 17257  17258  17325  17482M 17626M 17654M
    13(D)      939U  8647   8647   8662   8663   8678M  8693U  9004U  9007U  9111U  9114U 10243U 10246U 10341U 10344U
             10544U 10547U 10578U 10581U 11809U 11812U 11916U 11919U 11990M 11998U 12058  12058  12073  12074  12089M
             12100U 12169U 12172U 12200U 12203U 12263U 12266U 12313U 12316U 12371U 12374U 12405U 12408U 12499M 12507U
             12542  12542  12557  12558  12560M 12601M 12653  12653  12668  12669  12689M 12698  12705N 12707  12765M
             12979  12979  12994  12995  12997M 13007U 13036M 13044U 13076  13076  13091  13092  13107M 13334M 13367
             13367  13382  13383  13398M 13516M 13549  13549  13564  13565  13567M 13578M 13613  13613  13628  13629
             13644M 13729M 13762  13762  13777  13778  13793M 13922M 14132  14132  14147  14148  14163M 14324M 14357
1         (TASK00) (09:44) (22MAR04) General Purpose Register Cross Reference                                               Page  173
             14357  14372  14373  14388M 14421U 14461M 14469U 14497  14497  14512  14513  14515M 14567M 14641  14641
             14656  14657  14677M 14787  14788  14788  14790M 14791B 14792M 14793  14794M 14795M 14795  14870  14871
             14871  14873M 14874B 14875M 14876  14877M 14878M 14878  14902M 14935  14935  14950  14951  14966M 15007
             15008  15008  15010M 15011B 15012M 15013  15014M 15015M 15015  15035  15165M 15339  15339  15354  15355
             15370M 15412M 15445  15445  15460  15461  15463M 15499M 15744  15744  15759  15760  15780M 15798U 15872U
             15875U 16031U 16034U 16264U 16267U 16439M 16447U 16485  16485  16500  16501  16516M 16528U 16618U 16621U
             16657M 16665U 16742  16747M 16779U 16804M 16805  16806M 16806N 16807  16817U 16820U 16842M 16843  16901
             16901  16916  16932U 16939M 16965U 17013U 17016U 17037U 17040U 17074U 17077U 17166U 17169U 17210U 17213U
             17241U 17244U 17257M 17265U 17482  17625  17627M 17636M 17654
    14(E)      935U  8647   8749M  8787M  8825M  8882M  8940M  8978M  9090M  9147M  9185M  9242M  9293M  9331M  9424M
              9486M  9547M  9605M  9666M  9704M  9742M  9780M  9887M  9952M 10006M 10044M 10082M 10136M 10194M 10232M
             10329M 10377M 10415M 10469M 10534M 10567M 10631M 10696M 10778M 10839M 10877M 10931M 10989M 11043M 11101M
             11155M 11213M 11267M 11325M 11363M 11417M 11475M 11529M 11587M 11641M 11699M 11737M 11798M 11895M 11952M
             11990M 11992B 12058  12128M 12181M 12188M 12231M 12247M 12251M 12285M 12302M 12344M 12387M 12438M 12499M
             12501B 12542  12601M 12603B 12653  12698  12704M 12765M 12767B 12791  12944M 12945B 12979  13022M 13036M
             13038B 13076  13306M 13334M 13336B 13367  13443M 13516M 13518B 13549  13578M 13580B 13613  13705M 13729M
             13731B 13762  13869M 13894M 13922M 13924B 14132  14223  14324M 14326B 14357  14442M 14461M 14463B 14497
             14542M 14557M 14567M 14569B 14580B 14641  14788  14789M 14790N 14791M 14795M 14835M 14871  14872M 14873N
             14874M 14878M 14902M 14904B 14935  15008  15009M 15010N 15011M 15015M 15035  15125M 15165M 15167B 15339
             15371M 15381U 15399U 15412M 15414B 15445  15499M 15501B 15744  15826M 15885M 15986M 16068M 16122M 16149M
             16189M 16208M 16209  16210M 16210  16211  16288M 16439M 16441B 16485  16555M 16642M 16657M 16659B 16712
             16803M 16838M 16843M 16848B 16901  17000M 17025M 17052M 17059M 17107M 17200M 17222M 17257M 17259B 17313B
             17325  17472M 17476  17478M 17478  17482M 17483B 17631M 17635M 17654M 17655B
    15(F)      931U  3623M  3623   8647   8648   8748M  8749B  8786M  8787B  8824M  8825B  8881M  8882B  8939M  8940B
              8977M  8978B  9089M  9090B  9146M  9147B  9184M  9185B  9241M  9242B  9292M  9293B  9330M  9331B  9423M
              9424B  9485M  9486B  9546M  9547B  9604M  9605B  9665M  9666B  9703M  9704B  9741M  9742B  9779M  9780B
              9886M  9887B  9951M  9952B 10005M 10006B 10043M 10044B 10081M 10082B 10135M 10136B 10193M 10194B 10231M
             10232B 10328M 10329B 10376M 10377B 10414M 10415B 10468M 10469B 10533M 10534B 10566M 10567B 10630M 10631B
             10695M 10696B 10777M 10778B 10838M 10839B 10876M 10877B 10930M 10931B 10988M 10989B 11042M 11043B 11100M
             11101B 11154M 11155B 11212M 11213B 11266M 11267B 11324M 11325B 11362M 11363B 11416M 11417B 11474M 11475B
             11528M 11529B 11586M 11587B 11640M 11641B 11698M 11699B 11736M 11737B 11797M 11798B 11894M 11895B 11951M
             11952B 11990M 12058  12059  12127M 12128B 12180M 12181B 12187M 12188B 12230M 12231B 12246M 12247B 12250M
             12251B 12284M 12285B 12301M 12302B 12343M 12344B 12386M 12387B 12437M 12438B 12499M 12542  12543  12565M
             12601M 12653  12654  12697M 12698  12738M 12765M 12791  12792  12806M 12806  12944M 12979  12980  13021M
             13022B 13036M 13076  13077  13255M 13296M 13297M 13299M 13334M 13367  13368  13433M 13434M 13436M 13500M
             13516M 13549  13550  13578M 13613  13614  13703M 13704M 13704  13705B 13729M 13762  13763  13867M 13868M
             13868  13869B 13892M 13893M 13893  13894B 13922M 14132  14133  14324M 14357  14358  14441M 14442B 14461M
             14497  14498  14541M 14542B 14556M 14557B 14567M 14641  14642  14787M 14792  14793M 14794  14813M 14823U
             14834M 14835B 14842U 14870M 14875  14876M 14877  14902M 14935  14936  15007M 15012  15013M 15014  15035
             15103M 15113U 15124M 15125B 15132U 15165M 15339  15340  15412M 15445  15446  15499M 15744  15745  15825M
             15826B 15884M 15885B 15985M 15986B 16067M 16068B 16121M 16122B 16148M 16149B 16188M 16189B 16287M 16288B
             16304M 16304  16353M 16354  16355  16356  16357  16439M 16485  16486  16554M 16555B 16641M 16642B 16657M
             16712  16713  16802M 16803B 16837M 16838B 16843M 16847M 16847  16901  16902  16999M 17000B 17024M 17025B
             17051M 17052B 17058M 17059B 17106M 17107B 17199M 17200B 17221M 17222B 17257M 17292U 17312M 17312  17323U
             17325  17326  17464M 17465  17469M 17470  17471M 17471  17476  17477M 17477  17482M 17630M 17631B 17634M
             17635B 17654M

1TASKSERV (TASK00) (09:44) (22MAR04) Diagnostic Cross Reference and Assembler Summary                                       Page  174
-                                                                                            HLASM R4.0  2004/03/22 09.44
0     No Statements Flagged in this Assembly
 HIGH LEVEL ASSEMBLER, 5696-234, RELEASE 4.0, PTF UQ57391
0SYSTEM: OS/390 02.10.00            JOBNAME: PJG#TASK    STEPNAME: ASM        PROCSTEP: (NOPROC)
0Datasets Allocated for this Assembly
  Con DDname   Dataset Name                                 Volume  Member
   P1 SYSIN    SYS04082.T094432.RA000.PJG#TASK.INPUT.H01    SCR101
   L1 SYSLIB   SYS3.DUMMYMAC                                SYSB02
   L2          WYL.GG.ORV.MACLIB                            SYSB02
   L3          WYL.GG.SYS.MACLIB                            SYSB05
   L4          SYS1.MACLIB                                  MVSBR9
   L5          SYS1.MODGEN                                  MVSBR9
      SYSLIN   WYL.GG.PJG.OBJ                               SYSB05  TASKSERV
      SYSPRINT SYS04082.T094432.RA000.PJG#TASK.PRINT.H01    SCR100
      SYSTERM  GG$PJG.PJG#TASK.JOB05963.D0000103.?

    7812K allocated to Buffer Pool,         4345K would be required for this to be an In-Storage Assembly
    1273 Primary Input Records Read        22560 Library Records Read                  0 Work File Reads
       0 ASMAOPT Records Read               9343 Primary Print Records Written         0 Work File Writes
     138 Punch Records Written                 0 ADATA Records Written
0Assembly Start Time: 09.44.35 Stop Time: 09.44.46 Processor Time: 00.00.03.4895
 Return Code 000
