1                        J E S 2  J O B  L O G  --  S Y S T E M  S Y S B  --  N O D E  R L G
0
 09.49.33 JOB06006 ---- MONDAY,    22 MAR 2004 ----
 09.49.33 JOB06006  ICH70001I GG$PJG   LAST ACCESS AT 09:49:28 ON MONDAY, MARCH 22, 2004
 09.49.33 JOB06006  $HASP373 PJG#VSIO STARTED - INIT 2    - CLASS E - SYS SYSB
 09.49.33 JOB06006  ***  HCMD      STEP $$QUIET
 09.49.34 JOB06006  PURGE * Q=OUTPUT MULTIPLE
 09.49.34 JOB06006  JOB PJG#VSIO NOT IN OUTPUT QUEUE
 09.49.35 JOB06006  PJG#VSIO.$$QUIET .         RC=0008 TapeIO=0000 DiskIO=0000 CPU=  .01s Elapsed=73.83s
 09.49.35 JOB06006  PJG#VSIO.$CND    .         RC=Zero TapeIO=0000 DiskIO=0002 CPU=  .01s Elapsed=75.11s
 09.49.35 JOB06006  PJG#VSIO.$UNP    .         RC=Zero TapeIO=0000 DiskIO=0022 CPU=  .05s Elapsed=75.21s
 09.49.41 JOB06006  PJG#VSIO.ASM     .         RC=Zero TapeIO=0000 DiskIO=0958 CPU= 3.37s Elapsed=75.42s
 09.49.42 JOB06006  PJG#VSIO.$EDIT   .         RC=Zero TapeIO=0000 DiskIO=0111 CPU=  .44s Elapsed=81.30s
 09.49.42 JOB06006  PJG#VSIO Ended.  Name=Module: VSIO                   Total CPU= 3.88s Elapsed=73.83s
 09.49.42 JOB06006
 09.49.42 JOB06006  Execution charges   Priority=Standard   Block=Day
 09.49.42 JOB06006
 09.49.42 JOB06006  CPU Usage          70.50          $43.71   Standard Processing Unit Equivalent
 09.49.42 JOB06006                                   =======
 09.49.42 JOB06006                                    $43.71   Total Job execution charge
 09.49.42 JOB06006
 09.49.42 JOB06006  See back separator page for print charges
 09.49.42 JOB06006
 09.49.42 JOB06006  $HASP395 PJG#VSIO ENDED  ASM=0
1        1 //PJG#VSIO JOB PJG$GG,'Module: VSIO',TIME=1,MSGCLASS=C                  JOB06006
           /*JOBPARM HOLD=OUTPUT,LINES=50,CHARS=TN15,NOTIFY=YES
         2 //       EXEC PURGEOLD
         3 XXPURGEOLD PROC
           XX*
           XX* This proc is maintained by Jim Stosick
           XX*
         4 XX$$QUIET  EXEC PGM=HCMDX,PARM='PURGE * Q=OUTPUT MULTIPLE',
           XX         ACCT=(PURGEOLD,SYS3)
         5 //$CND   EXEC PGM=BILBO,REGION=512K,PARM='RECS=100'
         6 //STEPLIB  DD DSN=WYL.GG.ORV.LINKLIB,DISP=SHR
         7 //SYSPRINT DD SYSOUT=$
         8 //SYSUT1   DD DSN=WYL.GG.PJG.OBJ,DISP=OLD
         9 //SYSUT2   DD DSN=WYL.GG.PJG.OBJ,DISP=OLD
        10 //SYSIN    DD DUMMY
        11 //$UNP   EXEC PGM=WUNPRESS,PARM='NUM'
        12 //SYSPRINT DD SYSOUT=$
        13 //SYSUT1   DD DSN=WYL.GG.ORV.SOURCE.FILEUTIL(VSIO),DISP=SHR
        14 //SYSUT2   DD DSN=&&INPUT,DISP=(,PASS),UNIT=SYSDA,
           //            SPACE=(TRK,(25,25),RLSE),DCB=CARD
        15 //ASM    EXEC PGM=ASMA90,REGION=8M,COND=(0,NE,$UNP),
           //            PARM=('SYSPARM(VSIO),TERM,LANG(EN),OBJ',
           //          'LC(32500),XREF(SHORT),NODECK,NORLD,NODX,NOUS')
           //*STEPLIB  DD DSN=SYS1.SASMMOD1,DISP=SHR
        16 //SYSLIB   DD DSN=SYS3.DUMMYMAC,DISP=SHR,DCB=BLKSIZE=27920
        17 //         DD DSN=WYL.GG.SYS.MACLIB,DISP=SHR
        18 //         DD DSN=SYS3.IS.MACLIB,DISP=SHR
        19 //         DD DSN=SYS3.MACLIB,DISP=SHR
        20 //         DD DSN=SYS1.MACLIB,DISP=SHR
        21 //         DD DSN=SYS1.MODGEN,DISP=SHR
        22 //SYSUT1   DD DSN=&&SYSUT1,UNIT=VIO,DISP=(,DELETE),
           //            SPACE=(4088,(500,250),,CONTIG,ROUND)
        23 //SYSTERM  DD SYSOUT=$
        24 //SYSPRINT DD DSN=&&PRINT,UNIT=SYSDA,DISP=(,PASS),
           //            SPACE=(6650,(250,250),RLSE),
           //            DCB=(BLKSIZE=6650,LRECL=133,RECFM=FB)
        25 //SYSLIN   DD DSN=WYL.GG.PJG.OBJ(VSIO),DISP=OLD
        26 //SYSUDUMP DD SYSOUT=A
        27 //SYSIN    DD DSN=&&INPUT,DISP=(OLD,DELETE)
        28 //$EDIT  EXEC PGM=ASMEDIT,REGION=1M,
           //            COND=EVEN,PARM='STMT,DATA'
        29 //STEPLIB  DD DSN=WYL.GG.SYS.LINKLIB,DISP=SHR
        30 //ASMOUT   DD DSN=&&PRINT,DISP=(OLD,DELETE)
        31 //SYSPRINT DD SYSOUT=A
        32 //SYSUDUMP DD SYSOUT=A
1 STMT NO. MESSAGE
         2 IEFC001I PROCEDURE PURGEOLD WAS EXPANDED USING SYSTEM LIBRARY SYS3.BETAPROC
        14 IGD01010I STORCLAS= TEMP STORGROUP =
        14 IGD01010I STORGRP=VIO ASSIGNED.
        22 IGD01010I STORCLAS= TEMP STORGROUP =
        22 IGD01010I STORGRP=VIO ASSIGNED.
        24 IGD01010I STORCLAS= TEMP STORGROUP =
        24 IGD01010I STORGRP=VIO ASSIGNED.
 ICH70001I GG$PJG   LAST ACCESS AT 09:49:28 ON MONDAY, MARCH 22, 2004
 IEF142I PJG#VSIO $$QUIET - STEP WAS EXECUTED - COND CODE 0008
 *********************************************************************************
 *   PJG#VSIO/$$QUIET /                    Return Code      0008                 *
 *   Region used      260K (16K user + 244K system)                              *
 *   Extended region  9352K (4K user + 9348K system)                             *
 *                                                                               *
 *   Paging              In      Out                                             *
 *   Private <-> Aux      0        0       CPU time (TCB)   00:00:00.01          *
 *   Private <-> Exp      0        0       CPU time (SRB)   00:00:00.00          *
 *   VIO                  0        0       Elapsed time    920:38:19.13          *
 *   Common               0      ---                                             *
 *                                                                               *
 *                                                                               *
 *   CPU Usage          0.18         $0.11  Standard Processing Unit Equivalent  *
 *                                   $0.11  Total Step execution charge          *
 *                                                                               *
 *    I/O count  DDname   Type Addr           I/O count  DDname   Type Addr      *
 *                         *** No I/O for this step ***                          *
 *********************************************************************************
 IEF373I STEP/$$QUIET /START 2004082.0949
 IEF374I STEP/$$QUIET /STOP  2004082.0949 CPU    0MIN 00.01SEC SRB    0MIN 00.00SEC VIRT    16K SYS   244K EXT       4K SYS    9348K
 IEF236I ALLOC. FOR PJG#VSIO $CND
 IEF237I 0401 ALLOCATED TO STEPLIB
 IEF237I JES2 ALLOCATED TO SYSPRINT
 IEF237I 04DC ALLOCATED TO SYSUT1
 IEF237I 04DC ALLOCATED TO SYSUT2
 IEF237I DMY  ALLOCATED TO SYSIN
 IEF142I PJG#VSIO $CND - STEP WAS EXECUTED - COND CODE 0000
 IEF285I   WYL.GG.ORV.LINKLIB                           KEPT
 IEF285I   VOL SER NOS= SYSB01.
 IEF285I   GG$PJG.PJG#VSIO.JOB06006.D0000101.?          SYSOUT
 IEF285I   WYL.GG.PJG.OBJ                               KEPT
 IEF285I   VOL SER NOS= SYSB05.
 IEF285I   WYL.GG.PJG.OBJ                               KEPT
 IEF285I   VOL SER NOS= SYSB05.
 *********************************************************************************
 *   PJG#VSIO/$CND    /                    Return Code      Zero                 *
 *   Region used      280K (16K user + 264K system)                              *
 *   Extended region  9392K (4K user + 9388K system)                             *
 *                                                                               *
 *   Paging              In      Out                                             *
 *   Private <-> Aux      0        0       CPU time (TCB)   00:00:00.01          *
 *   Private <-> Exp      0        0       CPU time (SRB)   00:00:00.00          *
 *   VIO                  0        0       Elapsed time    920:38:17.85          *
 *   Common               0      ---                                             *
 *                                                                               *
 *                                                                               *
 *   CPU Usage          0.18         $0.11  Standard Processing Unit Equivalent  *
 *                                   $0.11  Total Step execution charge          *
 *                                                                               *
 *    I/O count  DDname   Type Addr           I/O count  DDname   Type Addr      *
 *            2  STEPLIB  Disk 0401                   0  SYSPRINT      ----      *
 *            0  SYSUT1   Disk 04DC                   0  SYSUT2   Disk 04DC      *
 *            0  SYSIN         ----                                              *
 *********************************************************************************
 IEF373I STEP/$CND    /START 2004082.0949
 IEF374I STEP/$CND    /STOP  2004082.0949 CPU    0MIN 00.01SEC SRB    0MIN 00.00SEC VIRT    16K SYS   264K EXT       4K SYS    9388K
 IEF236I ALLOC. FOR PJG#VSIO $UNP
 IEF237I JES2 ALLOCATED TO SYSPRINT
 IEF237I 0402 ALLOCATED TO SYSUT1
 IGD101I SMS ALLOCATED TO DDNAME (SYSUT2  )
         DSN (SYS04082.T094933.RA000.PJG#VSIO.INPUT.H01   )
         STORCLAS (TEMP) MGMTCLAS (        ) DATACLAS (        )
         VOL SER NOS= SCR101
 IEF142I PJG#VSIO $UNP - STEP WAS EXECUTED - COND CODE 0000
 IEF285I   GG$PJG.PJG#VSIO.JOB06006.D0000102.?          SYSOUT
 IEF285I   WYL.GG.ORV.SOURCE.FILEUTIL                   KEPT
 IEF285I   VOL SER NOS= SYSB02.
 IGD106I SYS04082.T094933.RA000.PJG#VSIO.INPUT.H01    PASSED,    DDNAME=SYSUT2
 *********************************************************************************
 *   PJG#VSIO/$UNP    /                    Return Code      Zero                 *
 *   Region used      388K (108K user + 280K system)                             *
 *   Extended region  9468K (4K user + 9464K system)                             *
 *                                                                               *
 *   Paging              In      Out                                             *
 *   Private <-> Aux      0        0       CPU time (TCB)   00:00:00.05          *
 *   Private <-> Exp      0        0       CPU time (SRB)   00:00:00.00          *
 *   VIO                  0        0       Elapsed time    920:38:17.75          *
 *   Common               0      ---                                             *
 *                                                                               *
 *                                                                               *
 *   CPU Usage          0.93         $0.57  Standard Processing Unit Equivalent  *
 *                                   $0.57  Total Step execution charge          *
 *                                                                               *
 *    I/O count  DDname   Type Addr           I/O count  DDname   Type Addr      *
 *            0  SYSPRINT      ----                   3  SYSUT1   Disk 0402      *
 *           19  SYSUT2   Disk 04E3                                              *
 *********************************************************************************
 IEF373I STEP/$UNP    /START 2004082.0949
 IEF374I STEP/$UNP    /STOP  2004082.0949 CPU    0MIN 00.05SEC SRB    0MIN 00.00SEC VIRT   108K SYS   280K EXT       4K SYS    9464K
 IEF236I ALLOC. FOR PJG#VSIO ASM
 IEF237I 0402 ALLOCATED TO SYSLIB
 IEF237I 04DC ALLOCATED TO
 IEF237I 04DC ALLOCATED TO
 IEF237I 0402 ALLOCATED TO
 IEF237I 04A0 ALLOCATED TO
 IEF237I 04A0 ALLOCATED TO
 IGD101I SMS ALLOCATED TO DDNAME (SYSUT1  )
         DSN (SYS04082.T094933.RA000.PJG#VSIO.SYSUT1.H01  )
         STORCLAS (TEMP) MGMTCLAS (        ) DATACLAS (        )
         VOL SER NOS= VIO
 IEF237I JES2 ALLOCATED TO SYSTERM
 IGD101I SMS ALLOCATED TO DDNAME (SYSPRINT)
         DSN (SYS04082.T094933.RA000.PJG#VSIO.PRINT.H01   )
         STORCLAS (TEMP) MGMTCLAS (        ) DATACLAS (        )
         VOL SER NOS= SCR101
 IEF237I 04DC ALLOCATED TO SYSLIN
 IEF237I JES2 ALLOCATED TO SYSUDUMP
 IGD103I SMS ALLOCATED TO DDNAME SYSIN
 IEF142I PJG#VSIO ASM - STEP WAS EXECUTED - COND CODE 0000
 IEF285I   SYS3.DUMMYMAC                                KEPT
 IEF285I   VOL SER NOS= SYSB02.
 IEF285I   WYL.GG.SYS.MACLIB                            KEPT
 IEF285I   VOL SER NOS= SYSB05.
 IEF285I   SYS3.IS.MACLIB                               KEPT
 IEF285I   VOL SER NOS= SYSB05.
 IEF285I   SYS3.MACLIB                                  KEPT
 IEF285I   VOL SER NOS= SYSB02.
 IEF285I   SYS1.MACLIB                                  KEPT
 IEF285I   VOL SER NOS= MVSBR9.
 IEF285I   SYS1.MODGEN                                  KEPT
 IEF285I   VOL SER NOS= MVSBR9.
 IGD105I SYS04082.T094933.RA000.PJG#VSIO.SYSUT1.H01   DELETED,   DDNAME=SYSUT1
 IEF285I   GG$PJG.PJG#VSIO.JOB06006.D0000103.?          SYSOUT
 IGD106I SYS04082.T094933.RA000.PJG#VSIO.PRINT.H01    PASSED,    DDNAME=SYSPRINT
 IEF285I   WYL.GG.PJG.OBJ                               KEPT
 IEF285I   VOL SER NOS= SYSB05.
 IEF285I   GG$PJG.PJG#VSIO.JOB06006.D0000104.?          SYSOUT
 IGD105I SYS04082.T094933.RA000.PJG#VSIO.INPUT.H01    DELETED,   DDNAME=SYSIN
 *********************************************************************************
 *   PJG#VSIO/ASM     /                    Return Code      Zero                 *
 *   Region used      8484K (8192K user + 292K system)                           *
 *   Extended region  9956K (412K user + 9544K system)                           *
 *                                                                               *
 *   Paging              In      Out                                             *
 *   Private <-> Aux      0        0       CPU time (TCB)   00:00:03.26          *
 *   Private <-> Exp      0        0       CPU time (SRB)   00:00:00.11          *
 *   VIO                  0        0       Elapsed time    920:38:17.54          *
 *   Common               0      ---                                             *
 *                                                                               *
 *                                                                               *
 *   CPU Usage         61.12        $37.89  Standard Processing Unit Equivalent  *
 *                                  $37.89  Total Step execution charge          *
 *                                                                               *
 *    I/O count  DDname   Type Addr           I/O count  DDname   Type Addr      *
 *            4  SYSLIB   Disk 0402                 141  SYSLIB   Disk 04DC      *
 *            0  SYSLIB   Disk 04DC                   0  SYSLIB   Disk 0402      *
 *          682  SYSLIB   Disk 04A0                   0  SYSLIB   Disk 04A0      *
 *            0  SYSUT1   VIO  ----                   0  SYSTERM       ----      *
 *          108  SYSPRINT Disk 04E3                   3  SYSLIN   Disk 04DC      *
 *            0  SYSUDUMP      ----                  20  SYSIN    Disk 04E3      *
 *********************************************************************************
 IEF373I STEP/ASM     /START 2004082.0949
 IEF374I STEP/ASM     /STOP  2004082.0949 CPU    0MIN 03.26SEC SRB    0MIN 00.11SEC VIRT  8192K SYS   292K EXT     412K SYS    9544K
 IEF236I ALLOC. FOR PJG#VSIO $EDIT
 IEF237I 0402 ALLOCATED TO STEPLIB
 IGD103I SMS ALLOCATED TO DDNAME ASMOUT
 IEF237I JES2 ALLOCATED TO SYSPRINT
 IEF237I JES2 ALLOCATED TO SYSUDUMP
 IEF142I PJG#VSIO $EDIT - STEP WAS EXECUTED - COND CODE 0000
 IEF285I   WYL.GG.SYS.LINKLIB                           KEPT
 IEF285I   VOL SER NOS= SYSB02.
 IGD105I SYS04082.T094933.RA000.PJG#VSIO.PRINT.H01    DELETED,   DDNAME=ASMOUT
 IEF285I   GG$PJG.PJG#VSIO.JOB06006.D0000105.?          SYSOUT
 IEF285I   GG$PJG.PJG#VSIO.JOB06006.D0000106.?          SYSOUT
 *********************************************************************************
 *   PJG#VSIO/$EDIT   /                    Return Code      Zero                 *
 *   Region used      388K (116K user + 272K system)                             *
 *   Extended region  9476K (4K user + 9472K system)                             *
 *                                                                               *
 *   Paging              In      Out                                             *
 *   Private <-> Aux      0        0       CPU time (TCB)   00:00:00.43          *
 *   Private <-> Exp      0        0       CPU time (SRB)   00:00:00.01          *
 *   VIO                  0        0       Elapsed time    920:38:11.66          *
 *   Common               0      ---                                             *
 *                                                                               *
 *                                                                               *
 *   CPU Usage          8.06         $4.99  Standard Processing Unit Equivalent  *
 *                                   $4.99  Total Step execution charge          *
 *                                                                               *
 *    I/O count  DDname   Type Addr           I/O count  DDname   Type Addr      *
 *            2  STEPLIB  Disk 0402                 109  ASMOUT   Disk 04E3      *
 *            0  SYSPRINT      ----                   0  SYSUDUMP      ----      *
 *********************************************************************************
 IEF373I STEP/$EDIT   /START 2004082.0949
 IEF374I STEP/$EDIT   /STOP  2004082.0949 CPU    0MIN 00.43SEC SRB    0MIN 00.01SEC VIRT   116K SYS   272K EXT       4K SYS    9472K
 *********************************************************************************
 *                                                                               *
 *                      S t a n f o r d   U n i v e r s i t y                    *
 *                                                                               *
 *                              *** Job Summary ***                              *
 *                                                                               *
 *   System Id      SYSB                   Input time     09:38:42  Mar 22, 2004 *
 *                                                                               *
 *   System Release SP6.1.0                Start time     09:49:33  Mar 22, 2004 *
 *                                                                               *
 *   Job name       PJG#VSIO               Stop  time     00:00:00  Mar 22, 2004 *
 *                                                                               *
 *   Account        PJG$GG                 Elapsed time  920:38:19.13            *
 *                                                                               *
 *   User Name      Module: VSIO           CPU time       00:00:03.76            *
 *                                                                               *
 *   Job class      E                      SRB Time       00:00:00.12            *
 *                                                                               *
 *********************************************************************************
 IEF375I  JOB/PJG#VSIO/START 2004082.0949
 IEF376I  JOB/PJG#VSIO/STOP  2004082.0949 CPU    0MIN 03.76SEC SRB    0MIN 00.12SEC
1Data set successfully converted from EDIT to FB format
1Assembler Done VSIO No Statements Flagged
1         High Level Assembler Option Summary                   (PTF UQ57391)                                               Page    1
-                                                                                            HLASM R4.0  2004/03/22 09.49
0  No Overriding ASMAOPT Parameters
   Overriding Parameters-  SYSPARM(VSIO),TERM,LANG(EN),OBJ,LC(32500),XREF(SHORT),NODECK,NORLD,NODX,NOUS
   No Process Statements


   Options for this Assembly
0  NOADATA
     ALIGN
   NOASA
     BATCH
     CODEPAGE(047C)
   NOCOMPAT
   NODBCS
 3 NODECK
 3 NODXREF
     ESD
   NOEXIT
     FLAG(0,ALIGN,CONT,NOIMPLEN,NOPAGE0,PUSH,RECORD,NOSUBSTR,USING0)
   NOFOLD
   NOGOFF
   NOINFO
 3   LANGUAGE(EN)
   NOLIBMAC
 3   LINECOUNT(32500)
     LIST(121)
     MXREF(SOURCE)
 3   OBJECT
     OPTABLE(UNI,NOLIST)
   NOPCONTROL
   NOPESTOP
   NOPROFILE
   NORA2
   NORENT
 3 NORLD
     RXREF
     SIZE(MAX)
 3   SYSPARM(VSIO)
 3   TERM(WIDE)
   NOTEST
     THREAD
   NOTRANSLATE
 3 NOUSING
 3   XREF(SHORT)

   No Overriding DD Names

1VSIO     External Symbol Dictionary                                                                                        Page    2
-Symbol   Type   Id     Address  Length     LD ID  Flags Alias-of                            HLASM R4.0  2004/03/22 09.49
0VSIO      SD 00000001 00000000 00000FD0             06
 VSIO00    LD          00000000           00000001
 VSIO_GO   LD          00000018           00000001
 RETVOLU   LD          00000932           00000001
 RETUCBA   LD          00000A2A           00000001

1VSIO     VSIO: Raw MVS I/O routines                                                                                        Page    3
0Loc    Object Code    Addr1 Addr2  Stmt Lv Lineno    Source Statement                    (Asmedit 3.3)  HLASM R4.0  2004/03/22 09.49
+___    ______ ____    _____ _____  ____ __ ______    ______ _________
0                                      2       2.     ********************************************************************
                                       3       3.     ********************************************************************
                                       4       4.     **                                                                **
                                       5       5.     **       VSIO - Generalized MVS STARTIO I/O interface routines    **
                                       6       6.     **                                                                **
                                       7       7.     **       Release .901a - Initial version                          **
                                       8       8.     **                                                                **
                                       9       9.     ********************************************************************
                                      10      10.     ********************************************************************
-                                     12      12.              HIBAL ,                   Define HIBAL macro system
                                     993      13.              REGS  FSR,,,,,,,,WAR,VSIOR,UAR,BRR,(LSR,BR),SPR,RAR
0                                   1117      15.     UWRKSZ   EQU   4096                Dynamic work area size
                                    1118      16.     STCKSZ   EQU   4096                Size of save stack
                                    1119      17.     MXIDAL   EQU   08                  Set maximum number of IDAW's
                                    1120      18.     MXCCW    EQU   08                  Set maximum CCW length
-                                   1122      20.     RC_ZERO  EQU   0                   Function completed without error
                                    1123      21.     RC_WARN  EQU   4                   Function completed, warning exists
                                    1124      22.     RC_MEM   EQU   16                  Insufficient memory
                                    1125      23.     RC_INVP  EQU   20                  Invalid parameter list passed
                                    1126      24.     RC_STAE  EQU   24                  Unable to establish ESTAE
0                                   1128      26.              SPLEVEL SET=4             Assemble at highest level
                                    1131      27.     VSIO     AMODE 31                  Inititial addressaing mode
                                    1132      28.     VSIO     RMODE ANY                 Any residency for me
 000000                00000 00FD0  1133      29.     VSIO     CSECT ,                   Define VSIO control section
                                    1137      30.              IDENT 00                  Provide module ident
                                    1140             +
                                    1141    01-IDENT +         ENTRY VSIO00
                                    1142             +
 000000 14E5E2C9D6F0F06B            1143    01-IDENT +VSIO00   DC    AL1(20),C'VSIO00,22MAR04,09:49'
                                    1144             +*
 000015 000000
 000018                             1146      31.              DC    0D'0'               Force double word alignment
1VSIO     (VSIO00) (09:49) (22MAR04) VSIO: Raw MVS I/O routines                                                             Page    4
0Loc    Object Code    Addr1 Addr2  Stmt Lv Lineno    Source Statement           (Hibal 5, Asmedit 3.3)  HLASM R4.0  2004/03/22 09.49
+___    ______ ____    _____ _____  ____ __ ______    ______ _________
0                                   1148      38.              Copy  VSIOPRM             Include VSIO parameter block
                                    1149=            =¿þþþþþþþþþþþþþþþþþþþþþþþþþþþþþþþþþþþþþþþþþþþþþþþþþþþþþþþþþþþþþþþþþþþþþÜ
                                    1150=            =Ÿ                                                                     Ÿ
                                    1151=            =Ÿ  VSIO global call parameter list                                    Ÿ
                                    1152=            =Ÿ                                                                     Ÿ
                                                      ¾þþþþþþþþþþþþþþþþþþþþþþþþþþþþþþþþþþþþþþþþþþþþþþþþþþþþþþþþþþþþþþþþþþþþþ»
-000000                00000 00028  1154             =VSIOPRM  RECORD BEGIN
 000000 E5E2C9D6                    1162  1          =VSIOID     DC    CL4'VSIO'           Define eye-catcher for parameter
 000004 00000000                    1163  1          =VSIOUPTR   DC    A(0)                Address of dynamic work area
 000008 00000000                    1164  1          =VSIOFUNC   DC    A(0)                VSIO function vector
                                    1165  1          =VSIO_INI   EQU   0,4,C'A'              - Initialize VSIO (Not required)
                                    1166  1          =VSIO_RDC   EQU   4,4,C'A'              - Return device characteristics
                                    1167  1          =VSIO_TRM   EQU   12,4,C'A'             - Release resources
 00000C 00000000                    1168  1          =VSIODEVA   DC    A(0)                Subchannel device number
 000010 00000000                    1169  1          =VSIOUCBA   DC    A(0)                Address of Unit Control Block
 000014 00000000                    1170  1          =VSIOBUFL   DC    A(0)                Length of Data return buffer
 000018 00000000                    1171  1          =VSIOBUFR   DC    A(0)                Address of Data return area
 00001C 00                          1172  1          =VSIO_COD   DC    XL1'00'             I/O Completion post code
 00001D 000000                      1173  1          =           DC    XL3'00'             Reserved
 000020 0000000000000000            1174  1          =VSIO_CSW   DC    XL8'00'             Channel Status Word
 000028                00028 00028  1175             =         END   ,
1VSIO     (VSIO00) (09:49) (22MAR04) VSIO: Raw MVS I/O routines                                                             Page    5
0Loc    Object Code    Addr1 Addr2  Stmt Lv Lineno    Source Statement           (Hibal 5, Asmedit 3.3)  HLASM R4.0  2004/03/22 09.49
+___    ______ ____    _____ _____  ____ __ ______    ______ _________
0                                   1185      40.     ¿þþþþþþþþþþþþþþþþþþþþþþþþþþþþþþþþþþþþþþþþþþþþþþþþþþþþþþþþþþþþþþþþþþþþþÜ
                                    1186      41.     Ÿ                                                                     Ÿ
                                    1187      42.     Ÿ  Define first two sense bytes for direct access devices             Ÿ
                                    1188      43.     Ÿ                                                                     Ÿ
                                                      ¾þþþþþþþþþþþþþþþþþþþþþþþþþþþþþþþþþþþþþþþþþþþþþþþþþþþþþþþþþþþþþþþþþþþþþ»
0000000                00000 00002  1190      46.     SNS      RECORD BEGIN
0000000 00                          1199  1   48.     SNS0       FLAG  ,                       Sense byte 0
 SNS0.SNS0CMD      80 ONES          1203  1   49.                FLAG  SNS0CMD                   -Command reject
 SNS0.SNS0INT      40 ONES          1208  1   50.                FLAG  SNS0INT                   -Intervention required
 SNS0.SNS0CBP      20 ONES          1213  1   51.                FLAG  SNS0CBP                   -Channel busout parity
 SNS0.SNS0EQC      10 ONES          1218  1   52.                FLAG  SNS0EQC                   -Equipment check
 SNS0.SNS0DCK      08 ONES          1223  1   53.                FLAG  SNS0DCK                   -Data check
 SNS0.SNS0OVR      04 ONES          1228  1   54.                FLAG  SNS0OVR                   -Overrun condition
 SNS0.SNS0RS1      02 ONES          1233  1   55.                FLAG  SNS0RS1                   -Reserved
 SNS0.SNS0RS2      01 ONES          1238  1   56.                FLAG  SNS0RS2                   -Reserved
0000001 00                          1244  1   58.     SNS1       FLAG  ,                       Sense byte 1
 SNS1.SNS1PRM      80 ONES          1248  1   59.                FLAG  SNS1PRM                   -Permanent error
 SNS1.SNS1ITF      40 ONES          1253  1   60.                FLAG  SNS1ITF                   -Invalid track format
 SNS1.SNS1RS1      20 ONES          1258  1   61.                FLAG  SNS1RS1                   -Reserved
 SNS1.SNS1EOC      10 ONES          1263  1   62.                FLAG  SNS1EOC                   -End of cylinder
 SNS1.SNS1NRF      08 ONES          1268  1   63.                FLAG  SNS1NRF                   -No record found
 SNS1.SNS1FP       04 ONES          1273  1   64.                FLAG  SNS1FP                    -File protect
 SNS1.SNS1WI       02 ONES          1278  1   65.                FLAG  SNS1WI                    -Write inhibited
 SNS1.SNS1OI       01 ONES          1283  1   66.                FLAG  SNS1OI                    -Operation incomplete
0000002                00002 00002  1289      68.              END   ,
1VSIO     (VSIO00) (09:49) (22MAR04) VSIO: Raw MVS I/O routines                                                             Page    6
0Loc    Object Code    Addr1 Addr2  Stmt Lv Lineno    Source Statement           (Hibal 5, Asmedit 3.3)  HLASM R4.0  2004/03/22 09.49
+___    ______ ____    _____ _____  ____ __ ______    ______ _________
0                                   1299     103.     ********************************************************************
                                    1300     104.     *                                                                  *
                                    1301     105.     *  Define Channel Command Word formats                             *
                                    1302     106.     *                                                                  *
                                    1303     107.     ********************************************************************
0000000                00000 00008  1305     109.     CCW      RECORD BEGIN
 000000                             1313  1  110.     CCWADDR    DS    0A                      Data address
 000000                             1314  1  111.     CCWOPCDE   DS    XL1                     CCW command code
 000001                             1315  1  112.     CCWADDR3   DS    AL3
 000004 00                          1316  1  113.     CCWFLAGS   FLAG ,                        Modifier flags
 000005                             1320  1  114.     CCWPAD     DS    X                       Reserved
 000006                             1321  1  115.     CCWLEN     DS    H                       Data length
                                    1322  1  116.     CCWNEXT    EQU   *
0CCWOPCDE.CCWMT    80 ONES          1324  1  118.                FLAG  (CCWMT,CCWOPCDE.X'80')  Multi-track mode flag
0CCWFLAGS.DATCH    80 ONES          1334  1  120.                FLAG  (DATCH,CCWFLAGS.X'80')        Data chaining
 CCWFLAGS.CMDCH    40 ONES          1343  1  121.                FLAG  (CMDCH,CCWFLAGS.X'40')        Command chaining
 CCWFLAGS.SLI      20 ONES          1352  1  122.                FLAG  (SLI,CCWFLAGS.X'20')          Skip length error
 CCWFLAGS.SKI      10 ONES          1361  1  123.                FLAG  (SKI,CCWFLAGS.X'10')          Skip data transfer
 CCWFLAGS.PCI      08 ONES          1370  1  124.                FLAG  (PCI,CCWFLAGS.X'08')          PCI interrupt
 CCWFLAGS.IDA      04 ONES          1379  1  125.                FLAG  (IDA,CCWFLAGS.X'04')          IDAW flag
 CCWFLAGS.RSV2     02 ONES          1388  1  126.                FLAG  (RSV2,CCWFLAGS.X'02')         **reserved**
 CCWFLAGS.RSV1     01 ONES          1397  1  127.                FLAG  (RSV1,CCWFLAGS.X'01')         **reserved**
0                                   1407  1  128.01   ¿þþþþþþþþþþþþþþþþþþþþþþþþþþþþþþþþþþþþþþþþþþþþþþþþþþþþþþþþþþþþþþþþþþþþþÜ
                                    1408  1  128.02   Ÿ                                                                     Ÿ
                                    1409  1  128.03   Ÿ                                                                     Ÿ
                                    1410  1  128.1    Ÿ   _______________________________________________________________   Ÿ
                                    1411  1  128.2    Ÿ  | Table 13. List of Channel Commands by Hex Code                   Ÿ
                                    1412  1  128.3    Ÿ  |_______________________________________________________________   Ÿ
                                    1413  1  128.4    Ÿ  | Hex | Command Name                                           |   Ÿ
                                    1414  1  128.5    Ÿ  |_____|________________________________________________________|   Ÿ
                                    1415  1  128.6    Ÿ  | 00  | Test I/O                                               |   Ÿ
                                    1416  1  128.7    Ÿ  |_____|________________________________________________________|   Ÿ
                                    1417  1  128.8    Ÿ  | 02  | Read IPL                                               |   Ÿ
                                    1418  1  128.9    Ÿ  |_____|________________________________________________________|   Ÿ
                                    1419  1  129.     Ÿ  | 03  | No-Operation                                           |   Ÿ
                                    1420  1  129.1    Ÿ  |_____|________________________________________________________|   Ÿ
                                    1421  1  129.2    Ÿ  | 04  | Sense                                                  |   Ÿ
                                    1422  1  129.3    Ÿ  |_____|________________________________________________________|   Ÿ
                                    1423  1  129.4    Ÿ  | 05  | Write Data                                             |   Ÿ
                                    1424  1  129.5    Ÿ  |_____|________________________________________________________|   Ÿ
                                    1425  1  129.6    Ÿ  | 06  | Read Data                                              |   Ÿ
                                    1426  1  129.7    Ÿ  |_____|________________________________________________________|   Ÿ
                                    1427  1  129.8    Ÿ  | 07  | Seek                                                   |   Ÿ
                                    1428  1  129.9    Ÿ  |_____|________________________________________________________|   Ÿ
                                    1429  1  130.     Ÿ  | 09  | Write Special Home Address                             |   Ÿ
                                    1430  1  130.1    Ÿ  |_____|________________________________________________________|   Ÿ
                                    1431  1  130.2    Ÿ  | 0A  | Read Special Home Address                              |   Ÿ
                                    1432  1  130.3    Ÿ  |_____|________________________________________________________|   Ÿ
                                    1433  1  130.4    Ÿ  | 0B  | Seek Cylinder                                          |   Ÿ
                                    1434  1  130.5    Ÿ  |_____|________________________________________________________|   Ÿ
                                    1435  1  130.6    Ÿ  | 0D  | Write Key and Data                                     |   Ÿ
                                    1436  1  130.7    Ÿ  |_____|________________________________________________________|   Ÿ
1VSIO     (VSIO00) (09:49) (22MAR04) VSIO: Raw MVS I/O routines                                                             Page    7
0Loc    Object Code    Addr1 Addr2  Stmt Lv Lineno    Source Statement           (Hibal 5, Asmedit 3.3)  HLASM R4.0  2004/03/22 09.49
+___    ______ ____    _____ _____  ____ __ ______    ______ _________
0                                   1437  1  130.8    Ÿ  | 0E  | Read Key and Data                                      |   Ÿ
                                    1438  1  130.9    Ÿ  |_____|________________________________________________________|   Ÿ
                                    1439  1  131.     Ÿ  | 0F  | Space Count                                            |   Ÿ
                                    1440  1  131.01   Ÿ  |_____|________________________________________________________|   Ÿ
                                    1441  1  131.02   Ÿ  | 11  | Erase                                                  |   Ÿ
                                    1442  1  131.03   Ÿ  |_____|________________________________________________________|   Ÿ
                                    1443  1  131.04   Ÿ  | 12  | Read Count                                             |   Ÿ
                                    1444  1  131.05   Ÿ  |_____|________________________________________________________|   Ÿ
                                    1445  1  131.06   Ÿ  | 13  | Recalibrate                                            |   Ÿ
                                    1446  1  131.07   Ÿ  |_____|________________________________________________________|   Ÿ
                                    1447  1  131.08   Ÿ  | 14  | Unconditional Reserve                                  |   Ÿ
                                    1448  1  131.09   Ÿ  |_____|________________________________________________________|   Ÿ
                                    1449  1  131.1    Ÿ  | 15  | Write Record Zero                                      |   Ÿ
                                    1450  1  131.11   Ÿ  |_____|________________________________________________________|   Ÿ
                                    1451  1  131.12   Ÿ  | 16  | Read Record Zero                                       |   Ÿ
                                    1452  1  131.13   Ÿ  |_____|________________________________________________________|   Ÿ
                                    1453  1  131.14   Ÿ  | 17  | Restore                                                |   Ÿ
                                    1454  1  131.15   Ÿ  |_____|________________________________________________________|   Ÿ
                                    1455  1  131.16   Ÿ  | 19  | Write Home Address                                     |   Ÿ
                                    1456  1  131.17   Ÿ  |_____|________________________________________________________|   Ÿ
                                    1457  1  131.18   Ÿ  | 1A  | Read Home Address                                      |   Ÿ
                                    1458  1  131.19   Ÿ  |_____|________________________________________________________|   Ÿ
                                    1459  1  131.2    Ÿ  | 1B  | Seek Head                                              |   Ÿ
                                    1460  1  131.21   Ÿ  |_____|________________________________________________________|   Ÿ
                                    1461  1  131.22   Ÿ  | 1D  | Write Count, Key, and Data                             |   Ÿ
                                    1462  1  131.23   Ÿ  |_____|________________________________________________________|   Ÿ
                                    1463  1  131.24   Ÿ  | 1E  | Read Count, Key, and Data                              |   Ÿ
                                    1464  1  131.25   Ÿ  |_____|________________________________________________________|   Ÿ
                                    1465  1  131.26   Ÿ  | 1F  | Set File Mask                                          |   Ÿ
                                    1466  1  131.27   Ÿ  |_____|________________________________________________________|   Ÿ
                                    1467  1  131.28   Ÿ  | 22  | Read Sector                                            |   Ÿ
                                    1468  1  131.29   Ÿ  |_____|________________________________________________________|   Ÿ
                                    1469  1  131.3    Ÿ  | 23  | Set Sector                                             |   Ÿ
                                    1470  1  131.31   Ÿ  |_____|________________________________________________________|   Ÿ
                                    1471  1  131.32   Ÿ  | 27  | Perform Subsystem Function                             |   Ÿ
                                    1472  1  131.33   Ÿ  |_____|________________________________________________________|   Ÿ
                                    1473  1  131.34   Ÿ  | 29  | Search Key Equal                                       |   Ÿ
                                    1474  1  131.35   Ÿ  |_____|________________________________________________________|   Ÿ
                                    1475  1  131.36   Ÿ  | 31  | Search ID Equal                                        |   Ÿ
                                    1476  1  131.37   Ÿ  |_____|________________________________________________________|   Ÿ
                                    1477  1  131.38   Ÿ  | 34  | Sense Path Group ID                                    |   Ÿ
                                    1478  1  131.39   Ÿ  |_____|________________________________________________________|   Ÿ
                                    1479  1  131.4    Ÿ  | 39  | Search Home Address Equal                              |   Ÿ
                                    1480  1  131.41   Ÿ  |_____|________________________________________________________|   Ÿ
                                    1481  1  131.42   Ÿ  | 3E  | Read Subsystem Data                                    |   Ÿ
                                    1482  1  131.43   Ÿ  |_____|________________________________________________________|   Ÿ
                                    1483  1  131.44   Ÿ  | 44  | Reset Allegiance                                       |   Ÿ
                                    1484  1  131.45   Ÿ  |_____|________________________________________________________|   Ÿ
                                    1485  1  131.46   Ÿ  | 47  | Locate Record                                          |   Ÿ
                                    1486  1  131.47   Ÿ  |_____|________________________________________________________|   Ÿ
                                    1487  1  131.48   Ÿ  | 4B  | Locate Record Extended                                 |   Ÿ
                                    1488  1  131.49   Ÿ  |_____|________________________________________________________|   Ÿ
                                    1489  1  131.5    Ÿ  | 49  | Search Key High                                        |   Ÿ
                                    1490  1  131.51   Ÿ  |_____|________________________________________________________|   Ÿ
                                    1491  1  131.52   Ÿ  | 4E  | Read Message ID                                        |   Ÿ
                                    1492  1  131.53   Ÿ  |_____|________________________________________________________|   Ÿ
1VSIO     (VSIO00) (09:49) (22MAR04) VSIO: Raw MVS I/O routines                                                             Page    8
0Loc    Object Code    Addr1 Addr2  Stmt Lv Lineno    Source Statement           (Hibal 5, Asmedit 3.3)  HLASM R4.0  2004/03/22 09.49
+___    ______ ____    _____ _____  ____ __ ______    ______ _________
0                                   1493  1  131.54   Ÿ  | 51  | Search ID High                                         |   Ÿ
                                    1494  1  131.55   Ÿ  |_____|________________________________________________________|   Ÿ
                                    1495  1  131.56   Ÿ  | 54  | Sense Subsystem Status                                 |   Ÿ
                                    1496  1  131.57   Ÿ  |_____|________________________________________________________|   Ÿ
                                    1497  1  131.58   Ÿ  | 5B  | Suspend Multipath Reconnection                         |   Ÿ
                                    1498  1  131.59   Ÿ  |_____|________________________________________________________|   Ÿ
                                    1499  1  131.6    Ÿ  | 5E  | Read Multiple Count, Key, and Data                     |   Ÿ
                                    1500  1  131.61   Ÿ  |_____|________________________________________________________|   Ÿ
                                    1501  1  131.62   Ÿ  | 63  | Define Extent                                          |   Ÿ
                                    1502  1  131.63   Ÿ  |_____|________________________________________________________|   Ÿ
                                    1503  1  131.64   Ÿ  | 64  | Read Device Characteristics                            |   Ÿ
                                    1504  1  131.65   Ÿ  |_____|________________________________________________________|   Ÿ
                                    1505  1  131.66   Ÿ  | 69  | Search Key Equal or High                               |   Ÿ
                                    1506  1  131.67   Ÿ  |_____|________________________________________________________|   Ÿ
                                    1507  1  131.68   Ÿ  | 71  | Search ID Equal or High                                |   Ÿ
                                    1508  1  131.69   Ÿ  |_____|________________________________________________________|   Ÿ
                                    1509  1  131.7    Ÿ  | 85  | Write Update Data  (MT)                                |   Ÿ
                                    1510  1  131.71   Ÿ  |_____|________________________________________________________|   Ÿ
                                    1511  1  131.72   Ÿ  | 86  | Read Data  (MT)                                        |   Ÿ
                                    1512  1  131.73   Ÿ  |_____|________________________________________________________|   Ÿ
                                    1513  1  131.74   Ÿ  | 87  | Set Subsystem Mode                                     |   Ÿ
                                    1514  1  131.75   Ÿ  |_____|________________________________________________________|   Ÿ
                                    1515  1  131.76   Ÿ  | 8D  | Write Update Key and Data  (MT)                        |   Ÿ
                                    1516  1  131.77   Ÿ  |_____|________________________________________________________|   Ÿ
                                    1517  1  131.78   Ÿ  | 8E  | Read Key and Data  (MT)                                |   Ÿ
                                    1518  1  131.79   Ÿ  |_____|________________________________________________________|   Ÿ
                                    1519  1  131.8    Ÿ  | 92  | Read Count  (MT)                                       |   Ÿ
                                    1520  1  131.81   Ÿ  |_____|________________________________________________________|   Ÿ
                                    1521  1  131.82   Ÿ  | 94  | Device Release                                         |   Ÿ
                                    1522  1  131.83   Ÿ  |_____|________________________________________________________|   Ÿ
                                    1523  1  131.84   Ÿ  | 96  | Read Record Zero  (MT)                                 |   Ÿ
                                    1524  1  131.85   Ÿ  |_____|________________________________________________________|   Ÿ
                                    1525  1  131.86   Ÿ  | 9A  | Read Home Address  (MT)                                |   Ÿ
                                    1526  1  131.87   Ÿ  |_____|________________________________________________________|   Ÿ
                                    1527  1  131.88   Ÿ  | 9D  | Write CKD Next Track  (MT)                             |   Ÿ
                                    1528  1  131.89   Ÿ  |_____|________________________________________________________|   Ÿ
                                    1529  1  131.9    Ÿ  | 9E  | Read Count, Key, and Data  (MT)                        |   Ÿ
                                    1530  1  131.91   Ÿ  |_____|________________________________________________________|   Ÿ
                                    1531  1  131.92   Ÿ  | A4  | Read and Reset Buffered Log                            |   Ÿ
                                    1532  1  132.     Ÿ  |_____|________________________________________________________|   Ÿ
                                    1533  1  132.01   Ÿ  | A9  | Search Key Equal  (MT)                                 |   Ÿ
                                    1534  1  132.02   Ÿ  |_____|________________________________________________________|   Ÿ
                                    1535  1  132.03   Ÿ  | AF  | Set Path Group ID                                      |   Ÿ
                                    1536  1  132.04   Ÿ  |_____|________________________________________________________|   Ÿ
                                    1537  1  132.05   Ÿ  | B1  | Search ID Equal  (MT)                                  |   Ÿ
                                    1538  1  132.06   Ÿ  |_____|________________________________________________________|   Ÿ
                                    1539  1  132.07   Ÿ  | B4  | Device Reserve                                         |   Ÿ
                                    1540  1  132.08   Ÿ  |_____|________________________________________________________|   Ÿ
                                    1541  1  132.09   Ÿ  | B9  | Search Home Address Equal  (MT)                        |   Ÿ
                                    1542  1  132.1    Ÿ  |_____|________________________________________________________|   Ÿ
                                    1543  1  132.11   Ÿ  | C9  | Search Key High  (MT)                                  |   Ÿ
                                    1544  1  132.12   Ÿ  |_____|________________________________________________________|   Ÿ
                                    1545  1  132.13   Ÿ  | D1  | Search ID High  (MT)                                   |   Ÿ
                                    1546  1  132.14   Ÿ  |_____|________________________________________________________|   Ÿ
                                    1547  1  132.15   Ÿ  | DE  | Read Track  (MT)                                       |   Ÿ
                                    1548  1  132.16   Ÿ  |_____|________________________________________________________|   Ÿ
1VSIO     (VSIO00) (09:49) (22MAR04) VSIO: Raw MVS I/O routines                                                             Page    9
0Loc    Object Code    Addr1 Addr2  Stmt Lv Lineno    Source Statement           (Hibal 5, Asmedit 3.3)  HLASM R4.0  2004/03/22 09.49
+___    ______ ____    _____ _____  ____ __ ______    ______ _________
0                                   1549  1  132.17   Ÿ  | E4  | Sense ID                                               |   Ÿ
                                    1550  1  132.18   Ÿ  |_____|________________________________________________________|   Ÿ
                                    1551  1  132.19   Ÿ  | E9  | Search Key Equal or High  (MT)                         |   Ÿ
                                    1552  1  132.2    Ÿ  |_____|________________________________________________________|   Ÿ
                                    1553  1  132.21   Ÿ  | F1  | Search ID Equal or High  (MT)                          |   Ÿ
                                    1554  1  132.22   Ÿ  |_____|________________________________________________________|   Ÿ
                                    1555  1  132.23   Ÿ  | F3  | Diagnostic Control                                     |   Ÿ
                                    1556  1  132.24   Ÿ  |_____|________________________________________________________|   Ÿ
                                    1557  1  132.25   Ÿ  | FA  | Read Configuration Data                                |   Ÿ
                                    1558  1  132.26   Ÿ  |_____|________________________________________________________|   Ÿ
                                    1559  1  132.27   Ÿ                                                                     Ÿ
-                                   1561  1  132.96   Ÿ                                                                     Ÿ
                                    1562  1  132.97   Ÿ  Define control commands                                            Ÿ
                                    1563  1  132.98   Ÿ                                                                     Ÿ
                                          1           ¾þþþþþþþþþþþþþþþþþþþþþþþþþþþþþþþþþþþþþþþþþþþþþþþþþþþþþþþþþþþþþþþþþþþþþ»
0                                   1564  1  132.99   SS         EQU   X'23'                   Set sector
                                    1565  1  133.     SK         EQU   X'07'                   Seek
                                    1566  1  134.     SKC        EQU   X'1B'                   Seek cylinder
                                    1567  1  135.     SKH        EQU   X'0B'                   Seek head
                                    1568  1  136.     SPC        EQU   X'0F',1,C'C'            Space count
                                    1569  1  137.     SFM        EQU   X'1F',1,C'C'            Set file mask
0                                   1571  1  139.     *
                                    1572  1  140.     * Define read commands
                                    1573  1  141.     *
                                    1574  1  142.     RHA        EQU   X'1A',1,C'C'            Read home address
                                    1575  1  143.     RD0        EQU   X'16',1,C'C'            Read record zero
                                    1576  1  144.     RKD        EQU   X'0E',1,C'C'            Read key & data
                                    1577  1  145.     RDD        EQU   X'06',1,C'C'            Read data
                                    1578  1  146.     RCKD       EQU   X'1E',1,C'C'            Read count, key, data
                                    1579  1  147.     RDCT       EQU   X'12',1,C'C'            Read count field
                                    1580  1  148.     RMLT       EQU   X'5E',1,C'C'            Read multiple cnt,key,data
1VSIO     (VSIO00) (09:49) (22MAR04) VSIO: Raw MVS I/O routines                                                             Page   10
0D-Loc  Object Code    Addr1 Addr2  Stmt Lv Lineno    Source Statement           (Hibal 5, Asmedit 3.3)  HLASM R4.0  2004/03/22 09.49
+_____  ______ ____    _____ _____  ____ __ ______    ______ _________
0                                   1582  1  150.     ********************************************************************
                                    1583  1  151.     *                                                                  *
                                    1584  1  152.     *  Define Channel Command Word formats, (CONTINUED)                *
                                    1585  1  153.     *                                                                  *
                                    1586  1  154.     ********************************************************************
0                                   1588  1  156.     *
                                    1589  1  157.     * Define write commands
                                    1590  1  158.     *
                                    1591  1  159.     WHA        EQU   X'19',1,C'C'            Write home address
                                    1592  1  160.     WR0        EQU   X'15',1,C'C'            Write record zero
                                    1593  1  161.     ERA        EQU   X'11',1,C'C'            Erase track
                                    1594  1  162.     WCKD       EQU   X'1D',1,C'C'            Write cnt+key+data
                                    1595  1  163.     WSCKD      EQU   X'01',1,C'C'            Write special cnt+key+data
                                    1596  1  164.     WD         EQU   X'05',1,C'C'            Write data
                                    1597  1  165.     WKD        EQU   X'0D',1,C'C'            Write key+data
0                                   1599  1  167.     *
                                    1600  1  168.     * Define search commands
                                    1601  1  169.     *
                                    1602  1  170.     SHA        EQU   X'39',1,C'C'            Search home address equal
                                    1603  1  171.     SIDEQ      EQU   X'31',1,C'C'            Search id equal
                                    1604  1  172.     SIDHI      EQU   X'51',1,C'C'            Search id high
                                    1605  1  173.     SIDEH      EQU   X'71',1,C'C'            Search id equal or high
                                    1606  1  174.     SKEQ       EQU   X'29',1,C'C'            Search key equal
                                    1607  1  175.     SKHI       EQU   X'49',1,C'C'            Search key high
                                    1608  1  176.     SKEH       EQU   X'69',1,C'C'            Search key equal or high
                                    1609  1  177.     TIC        EQU   X'08',1,C'C'            Transfer in channel
0000008                00008 00008  1611     179.              END   ,
1VSIO     (VSIO00) (09:49) (22MAR04) VSIO: Raw MVS I/O routines                                                             Page   11
0Loc    Object Code    Addr1 Addr2  Stmt Lv Lineno    Source Statement           (Hibal 5, Asmedit 3.3)  HLASM R4.0  2004/03/22 09.49
+___    ______ ____    _____ _____  ____ __ ______    ______ _________
0                                   1621     181.     ¿þþþþþþþþþþþþþþþþþþþþþþþþþþþþþþþþþþþþþþþþþþþþþþþþþþþþþþþþþþþþþþþþþþþþþÜ
                                    1622     182.     Ÿ                                                                     Ÿ
                                    1623     183.     Ÿ  Define data segment                                                Ÿ
                                    1624     184.     Ÿ                                                                     Ÿ
                                                      ¾þþþþþþþþþþþþþþþþþþþþþþþþþþþþþþþþþþþþþþþþþþþþþþþþþþþþþþþþþþþþþþþþþþþþþ»
-000194                00194 00FD0  1626     187.              DATA  BEGIN               Define global data segment
0000194 F0F0F0F0F0F0F0F0            1632  1  189.     STRMSK     DC    32X'F0',32X'0F'         Strip mask for dumping
 0001D4 F0F0F0F00F0F0F0F            1633  1  190.     ADRMS1     DC    XL8'F0F0F0F00F0F0F0F'   Strip mask for address
00001DC 0000000C                    1635  1  192.     MODESUP    MODESET MODE=SUP,MF=L
 0001E0 00000024                    1639  1  193.     MODEPRB    MODESET MODE=PROB,KEY=NZERO,MF=L
-                                   1644  1  296.     ¿þþþþþþþþþþþþþþþþþþþþþþþþþþþþþþþþþþþþþþþþþþþþþþþþþþþþþþþþþþþþþþþþþþþþþÜ
                                    1645  1  297.     Ÿ                                                                     Ÿ
                                    1646  1  298.     Ÿ  Define skeleton channel programs for common operations             Ÿ
                                    1647  1  299.     Ÿ                                                                     Ÿ
                                    1648  1  300.     Ÿ        The following channel programs are format 0 type commands    Ÿ
                                    1649  1  301.     Ÿ                                                                     Ÿ
                                          1           ¾þþþþþþþþþþþþþþþþþþþþþþþþþþþþþþþþþþþþþþþþþþþþþþþþþþþþþþþþþþþþþþþþþþþþþ»
0                                   1651  1  303.                ¿þþþþþþþþþþþþþþþþþþþþþþþþþþþþþþþþþþþÜ
                                    1652  1  304.                Ÿ  READ/WRITE Primary small record  Ÿ
                                    1653  1  305.                ¾þþþþþþþþþþþþþþþþþþþþþþþþþþþþþþþþþþþ»
 0001E4 00000000                          1
 0001E8                             1654  1  306.                DC    0D'0'               Insure double-word alignment
 0001E8 3100008340000005            1655  1  307.     CCW1       CCW   SIDEQ,USAT1SEE+3-UAREA,L'CMDCH,5
 0001F0 0800023800000001            1656  1  308.                CCW   TIC,USAT1CCW-UAREA,0,1
 0001F8 0E00011820000000            1657  1  309.                CCW   RKD,USAT1MBF-UAREA,L'SLI,0
                                    1658  1  310.     CCWMBF     EQU   CCW1,*-CCW1,C'C'              DEFINE PROG LENGTH
0                                   1660  1  312.                ¿þþþþþþþþþþþþþþþþþþþþþþþþþþþþþþþþþþþþþÜ
                                    1661  1  313.                Ÿ  READ/WRITE Secondary small record  Ÿ
                                    1662  1  314.                ¾þþþþþþþþþþþþþþþþþþþþþþþþþþþþþþþþþþþþþ»
 000200 3100008340000005            1663  1  315.     CCW2       CCW   SIDEQ,USAT1SEE+3-UAREA,L'CMDCH,5
 000208 0800023800000001            1664  1  316.                CCW   TIC,USAT1CCW-UAREA,0,1
 000210 0E0001A820000000            1665  1  317.                CCW   RKD,USAT1SBF-UAREA,L'SLI,0
                                    1666  1  318.     CCWSBF     EQU   CCW2,*-CCW2,C'C'              DEFINE PROGRAM LENGTH
0                                   1668  1  320.                ¿þþþþþþþþþþþþþþþþþþþþþþþþþþþþþþþþþþþÜ
                                    1669  1  321.                Ÿ  Read count field into user area  Ÿ
                                    1670  1  322.                ¾þþþþþþþþþþþþþþþþþþþþþþþþþþþþþþþþþþþ»
 000218 3100008340000005            1671  1  323.     CCW3       CCW   SIDEQ,USAT1SEE+3-UAREA,L'CMDCH,5
 000220 0800023800000001            1672  1  324.                CCW   TIC,USAT1CCW-UAREA,0,1
 000228 1200008820000008            1673  1  325.                CCW   RDCT,USAT1CNT-UAREA,L'SLI,8
                                    1674  1  326.     CCWRCNT    EQU   CCW3,*-CCW3,C'C'              DEFINE PROGRAM LENGTH
0                                   1676  1  328.                ¿þþþþþþþþþþþþþþþþþþþþþþþþþþþþÜ
                                    1677  1  329.                Ÿ  READ/WRITE Single record  Ÿ
                                    1678  1  330.                ¾þþþþþþþþþþþþþþþþþþþþþþþþþþþþ»
 000230 3100008340000005            1679  1  331.     CCW4       CCW   SIDEQ,USAT1SEE+3-UAREA,L'CMDCH,5
 000238 0800023800000001            1680  1  332.                CCW   TIC,USAT1CCW-UAREA,0,1
 000240 0E00027804000000            1681  1  333.                CCW   RKD,USAT1IDA-UAREA,L'IDA,0
1VSIO     (VSIO00) (09:49) (22MAR04) VSIO: Raw MVS I/O routines                                                             Page   12
0Loc    Object Code    Addr1 Addr2  Stmt Lv Lineno    Source Statement           (Hibal 5, Asmedit 3.3)  HLASM R4.0  2004/03/22 09.49
+___    ______ ____    _____ _____  ____ __ ______    ______ _________
0                                   1682  1  334.     CCWREAD    EQU   CCW4,*-CCW4,C'C'              DEFINE PROGRAM LENGTH
0                                   1684  1  336.                ¿þþþþþþþþþþþþþþþþþþþþþþþþþþþþþþþÜ
                                    1685  1  337.                Ÿ  Read Device Characteristics  Ÿ
                                    1686  1  338.                ¾þþþþþþþþþþþþþþþþþþþþþþþþþþþþþþþ»
 000248 E400009860000014            1687  1  338.1    CCW5       CCW   X'E4',USAT1SNS-UAREA,x'60',20    Sense ID
 000250 640000D860000040            1688  1  339.                CCW   X'64',USAT1RDC-UAREA,x'60',64    Read Dev Char
 000258 FA00011820000100            1689  1  339.1               CCW   X'FA',USAT1MBF-UAREA,x'20',256   Read Conf Data
                                    1690  1  340.     CCWRDC     EQU   CCW5,*-CCW5,C'C'
1VSIO     (VSIO00) (09:49) (22MAR04) VSIO: Raw MVS I/O routines                                                             Page   13
0Loc    Object Code    Addr1 Addr2  Stmt Lv Lineno    Source Statement           (Hibal 5, Asmedit 3.3)  HLASM R4.0  2004/03/22 09.49
+___    ______ ____    _____ _____  ____ __ ______    ______ _________
0                                   1692  1  342.     ¿þþþþþþþþþþþþþþþþþþþþþþþþþþþþþþþþþþþþþþþþþþþþþþþþþþþþþþþþþþþþþþþþþþþþþÜ
                                    1693  1  343.     Ÿ                                                                     Ÿ
                                    1694  1  344.     Ÿ  Define skeleton channel programs for common operations             Ÿ
                                    1695  1  345.     Ÿ                                                                     Ÿ
                                          1           ¾þþþþþþþþþþþþþþþþþþþþþþþþþþþþþþþþþþþþþþþþþþþþþþþþþþþþþþþþþþþþþþþþþþþþþ»
0                                   1697  1  347.                ¿þþþþþþþþþþþþþþþþþþþþþþþþþþþþþþÜ
                                    1698  1  348.                Ÿ  Track scan channel program  Ÿ
                                    1699  1  349.                ¾þþþþþþþþþþþþþþþþþþþþþþþþþþþþþþ»
 000260 1A0001A840000005            1700  1  350.     CCW6       CCW   RHA,USAT1SBF-UAREA,L'CMDCH,5
 000268 1600011840000010            1701  1  351.                CCW   RD0,USAT1MBF-UAREA,L'CMDCH,16
 000270 5E0000883000FFFF            1702  1  352.                CCW   RMLT,USAT1CNT-UAREA,L'SLI+L'SKI,X'FFFF'
                                    1703  1  353.     CCWSCAN    EQU   CCW6,*-CCW6,C'C'              DEFINE PROGRAM LENGTH
-                                         1
 000018                00000 00FD0  1705     355.              END   ,
1VSIO     (VSIO00) (09:49) (22MAR04) WIZARD: Interactive disk diagnostic: USER AREA                                         Page   14
0Loc    Object Code    Addr1 Addr2  Stmt Lv Lineno    Source Statement           (Hibal 5, Asmedit 3.3)  HLASM R4.0  2004/03/22 09.49
+___    ______ ____    _____ _____  ____ __ ______    ______ _________
0                                   1712     357.     ¿þþþþþþþþþþþþþþþþþþþþþþþþþþþþþþþþþþþþþþþþþþþþþþþþþþþþþþþþþþþþþþþþþþþþþÜ
                                    1713     358.     Ÿ                                                                     Ÿ
                                    1714     359.     Ÿ   Define global dynamic storage for VSIO routines                   Ÿ
                                    1715     360.     Ÿ                                                                     Ÿ
                                    1716     361.     Ÿ   Residency: Below the 16-Megabyte lines                            Ÿ
                                    1717     362.     Ÿ                                                                     Ÿ
                                    1718     363.     Ÿ                                                                     Ÿ
                                                      ¾þþþþþþþþþþþþþþþþþþþþþþþþþþþþþþþþþþþþþþþþþþþþþþþþþþþþþþþþþþþþþþþþþþþþþ»
-000000                00000 002E4  1720     365.     UAREA    RECORD BEGIN
 000000 E5E2C9D6E4C1D940            1728  1  366.     UARID      DC    CL8'VSIOUAR'        Set block identitifer
 000008 00000000                    1729  1  367.     TCBADR     DC    A(0)                TCB Address
 00000C 00000000                    1730  1  368.     ASCBADR    DC    A(0)                ASCB Address
 000010 00000000                    1731  1  369.     VSSAVE     DC    A(0)                Address of passed save area/stack
 000014 00000000                    1732  1  370.     STCKADDR   DC    A(0)                Stack area address
 000018 00000000                    1733  1  371.     GENECB     DC    A(0)                General ECB
 00001C 00000000                    1734  1  372.     RETCODE    DC    A(0)                Return code register
 000020 00000000                    1735  1  373.     MEMADR     DC    A(0)                Recieve address for GETMAIN
 000024 0000000000000000            1736  1  374.     APNSAVE    DC    16A(0)              Register save area
 000064 00                          1737  1  375.     GENFLG2    FLAG  ,                   Define input/output flags
 GENFLG2.USBCSA    80 ONES          1741  1  375.1               FLAG  USBCSA                -  CSA has been acquired
 GENFLG2.USBFIX    40 ONES          1746  1  376.                FLAG  USBFIX
 GENFLG2.USPIO     20 ONES          1751  1  377.                FLAG  USPIO
 GENFLG2.USATIO    10 ONES          1756  1  378.                FLAG  USATIO              -Startio is outstanding
 GENFLG2.USTRC     08 ONES          1761  1  379.                FLAG  USTRC
 GENFLG2.USTIO     04 ONES          1766  1  380.                FLAG  USTIO
 GENFLG2.USIDAW    02 ONES          1771  1  382.                FLAG  USIDAW              - Build indirect address words
0000065 00                          1777  1  384.     PSWKEY     DC    B'0'                PSW Key
 000066 00                          1778  1  385.     USSTCOD    DC    X'00'               Abnormal end IOSCOD post
0000067 00                                1
 000068                             1780  1  386.1               DC    0D'0'               Provide dump reading alignment
 000068 00000000                    1781  1  387.     UDARADR    DC    A(0)                Save for I/O termination rtns
 00006C 00000000                    1782  1  388.     USATIOSB   DC    A(0)                Address of SRB/IOSB
 000070 00000000                    1783  1  389.     USAT1ECB   DC    A(0)                Startio ECB
 000074 00000000                    1784  1  390.     USATBUFF   DC    A(0)                Address of I/O buffer
 000078 00000000                    1785  1  391.     USATBUFL   DC    A(0)                Buffer length
 00007C 00000000                    1786  1  392.     USAT1CCC   DC    A(0)                Number of CCW's in program
 000080                             1787  1  393.                DC    0D'0'               Provide dump reading alignment
 000080 D4C2C2C3C3C8C8D9            1788  1  394.     USAT1SEE   DC    CL8'MBBCCHHR'       Seek address for crnt I/O
 000088 C3C3C8C8D9D2C4C4            1789  1  395.     USAT1CNT   DC    CL8'CCHHRKDD'       Count field for crnt record
 000090 C3C3C8C8D9D2C4C4            1790  1  396.     USAT1DCT   DC    CL8'CCHHRKDD'       Count field for crnt fmt1
 000098 0000000000000000            1791  1  398.     USAT1SNS   DC    XL64'00'            Sense byte holding buffer
 0000D8 0000000000000000            1792  1  399.     USAT1RDC   DC    XL64'00'            Device characteristcs buffer
1VSIO     (VSIO00) (09:49) (22MAR04) WIZARD: Interactive disk diagnostic: USER AREA                                         Page   15
0D-Loc  Object Code    Addr1 Addr2  Stmt Lv Lineno    Source Statement           (Hibal 5, Asmedit 3.3)  HLASM R4.0  2004/03/22 09.49
+_____  ______ ____    _____ _____  ____ __ ______    ______ _________
0                                   1794  1  401.     ********************************************************************
                                    1795  1  402.     *                                                                  *
                                    1796  1  403.     *   Define dynamic storage buffers                                 *
                                    1797  1  404.     *                                                                  *
                                    1798  1  405.     ********************************************************************
0000118 4040404040404040            1800  1  407.     USAT1MBF   DC    CL144' '            144 BYTE BUFFER FOR SMALL I/O
 0001A8 4040404040404040            1801  1  408.     USAT1SBF   DC    CL144' '            144 Byte second buffer
0                                   1803  1  415.                ¿þþþþþþþþþþþþþþþþþþþþþþþþþþþþþþþþþþþþþþþþþþþþþþþþþþÜ
                                    1804  1  416.                Ÿ  Define space for building CCW channel programs  Ÿ
                                    1805  1  417.                ¾þþþþþþþþþþþþþþþþþþþþþþþþþþþþþþþþþþþþþþþþþþþþþþþþþþ»
 000238 0000000000000000            1806  1  418.     USAT1CCW   DC    (MXCCW)D'0'         Reserve room for chain
                                    1807  1  418.1               ¿þþþþþþþþþþþþþþþþþþþþþþþþþþþþþþþþþþþþþþþþþþþþþþþþþþþþÜ
                                    1808  1  418.2               Ÿ  Define space for building indirect address words  Ÿ
                                    1809  1  418.3               ¾þþþþþþþþþþþþþþþþþþþþþþþþþþþþþþþþþþþþþþþþþþþþþþþþþþþþ»
 000278 0000000000000000            1810  1  418.4    USAT1IDA   DC    (MXIDAL)A(0)        Define IDAW's
1VSIO     (VSIO00) (09:49) (22MAR04) WIZARD: Interactive disk diagnostic: USER AREA                                         Page   16
0D-Loc  Object Code    Addr1 Addr2  Stmt Lv Lineno    Source Statement           (Hibal 5, Asmedit 3.3)  HLASM R4.0  2004/03/22 09.49
+_____  ______ ____    _____ _____  ____ __ ______    ______ _________
0                                   1813  1  420.     ¿þþþþþþþþþþþþþþþþþþþþþþþþþþþþþþþþþþþþþþþþþþþþþþþþþþþþþþþþþþþþþþþþþþþþþÜ
                                    1814  1  421.     Ÿ                                                                     Ÿ
                                    1815  1  422.     Ÿ  Define dynamic area for macro services parameter list expansions   Ÿ
                                    1816  1  423.     Ÿ                                                                     Ÿ
                                          1           ¾þþþþþþþþþþþþþþþþþþþþþþþþþþþþþþþþþþþþþþþþþþþþþþþþþþþþþþþþþþþþþþþþþþþþþ»
0                                   1819  1  426.     GETPRM     GETMAIN EC,A=0,,BNDRY=PAGE,MF=L
 000298 00000000                    1821  1 01-GETMA +GETPRM     DC   A(0)                     LA OR LU
 00029C 00000000                    1822  1 01-GETMA +           DC    A(0)                    ADDR. OF ADDR. LIST
 0002A0 30                          1823  1 01-GETMA +           DC    BL1'00110000'           MODE AND OPTION FLAGS
 0002A1 00                          1824  1 01-GETMA +           DC    AL1(0)                  SUBPOOL VALUE
-                                   1826  1  428.     ESTAELST   ESTAE ,CT,,XCTL=NO,PURGE=QUIESCE,ASYNCH=YES,TERM=YES,MF=L
                                    1828  1          +*    MACDATE   10/01/94                                        @G860P1C
 0002A4                             1830  1 01-ESTAE +           DS    0F
 0002A4 14                          1831  1 01-ESTAEC+ESTAELST   DC    AL1(20)                 FLAGS FOR TCB,PURGE,ASYNCH,
                                          1          +                                         AND CANCEL                  @D1C
 0002A5 000000                      1832  1 01-ESTAE +           DC    AL3(0)                  FIELD NO LONGER USED  @G860P1C
 0002A8 00000000                    1833  1 01-ESTAE +           DC    A(0)                    PARM. LIST ADDR. NOT SPECIFIED
 0002AC 00000000                    1834  1 01-ESTAE +           DC    A(0)                    TCB NOT SPECIFIED
 0002B0 40                          1835  1 01-ESTAE +           DC    AL1(64)                 FLAGS
 0002B1 01                          1836  1 01-ESTAE +           DC    AL1(1)                  THIRD FLAG BYTE       @G860P1C
 0002B2 0000                        1837  1 01-ESTAE +           DC    AL2(0)                  RESERVED              @G860P1C
 0002B4 00000000                    1838  1 01-ESTAE +           DC    A(0)                    TOKEN VALUE AREA      @G81CP2F
 0002B8 00000000                    1839  1 01-ESTAE +           DC    AL4(0)                  EXIT ADDR NOT SPECD   @G860P1C
-                                   1841  1  429.1    TIMELST    TIME  LINKAGE=SYSTEM,MF=L
                                    1842  1          +*        MACDATE  09/08/99
 0002BC                             1843  1 01-TIME  +TIMELST    DS    0F                                                  @D3A
 0002BC                             1844  1 01-TIME  +           DS    XL28                                                @D3C
-                                   1846  1  430.     TRKLST     TRKCALC MF=D              Define track calculation parms
 0002D8                             1847  1 01-TRKCA +           DS    0F                       ALIGN TO FULL WORD BOUNDARY
 0002D8                             1848  1 01-TRKCA +TRKLST     DS    0CL12                    STAR PARM LIST MAP
 0002D8                             1849  1 01-TRKCA +STARUCBA   DS    0F                       UCB ADDRESS
 0002D8                             1850  1 01-TRKCA +STARDCTA   DS    0F                       DEVICE TABLE ADDRESS
 0002D8                             1851  1 01-TRKCA +           DS    XL3
 0002DB                             1852  1 01-TRKCA +STARTYPE   DS    XL1                      DEVICE TYPE
 0002DC                             1853  1 01-TRKCA +STARFLGS   DS    XL1                      FUNCTION AND OPTIONS
                                    1854  1 01-TRKCA +STARFUNC   EQU   B'10000000'              FUNCTION: 0=TRKBAL, 1=TRKCAP
                                    1855  1 01-TRKCA +STARMAXS   EQU   B'01000000'              1=MAXSIZE REQUESTED
                                    1856  1 01-TRKCA +STARREMV   EQU   B'00100000'              1=REMOVE REQUESTED
                                    1857  1 01-TRKCA +STARUBAL   EQU   B'00010000'              1=CALLER PROVIDED BALANCE
                                    1858  1 01-TRKCA +STARLAST   EQU   B'00001000'              1=SPECIAL LAST RCD REQUEST
                                    1859  1 01-TRKCA +STARDTU    EQU   B'00000110'              DVCT ENTRY SOURCE FLAGS:
                                    1860  1          +*                                       00=DVCT ENTRY ADDRESS PROVIDED
                                    1861  1          +*                                       01=RESERVED
                                    1862  1          +*                                       10=UCB ADDRESS PROVIDED
                                    1863  1          +*                                       11=DEVICE TYPE PROVIDED
                                    1864  1 01-TRKCA +STARLOC    EQU   B'00000001'              LOC=ANY. DEVTAB OR UCB     @L1C
                                    1865  1          +*                                       ABOVE THE LINE             @L1A
 0002DD                             1866  1 01-TRKCA +           DS    XL1                      RESERVED
 0002DE                             1867  1 01-TRKCA +STARBAL    DS    H                        TRACK BALANCE
1VSIO     (VSIO00) (09:49) (22MAR04) WIZARD: Interactive disk diagnostic: USER AREA                                         Page   17
0D-Loc  Object Code    Addr1 Addr2  Stmt Lv Lineno    Source Statement           (Hibal 5, Asmedit 3.3)  HLASM R4.0  2004/03/22 09.49
+_____  ______ ____    _____ _____  ____ __ ______    ______ _________
00002E0                             1868  1 01-TRKCA +STARRKDD   DS    0F                       RECORD INFO AS DEFINED BELOW
 0002E0                             1869  1 01-TRKCA +STARR      DS    XL1                      RECORD NUMBER
 0002E1                             1870  1 01-TRKCA +STARKL     DS    XL1                      KEY LENGTH
 0002E2                             1871  1 01-TRKCA +STARDL     DS    H                        DATA LENGTH
 0002E4                002E4 002E4  1872     431.              END   ,                   End of Global Dynamic Memory
1VSIO     (VSIO00) (09:49) (22MAR04) WIZARD: Interactive disk diagnostic: USER AREA                                         Page   18
0Loc    Object Code    Addr1 Addr2  Stmt Lv Lineno    Source Statement           (Hibal 5, Asmedit 3.3)  HLASM R4.0  2004/03/22 09.49
+___    ______ ____    _____ _____  ____ __ ______    ______ _________
0                                   1883     433.              IHASRB ,                  Service Request Block
                                    1884             +**/
                                    1885             +*%PLSSRB1:;
                                    1886             +*/* START OF SPECIFICATIONS ******************************************/
                                    1887             +*/*                                                                  */
                                    1888             +*/*01* PROPRIETARY STATEMENT =                                   @L6C*/
                                    1889             +*/*          LICENSED MATERIALS - PROPERTY OF IBM                    */
                                    1890             +*/*          THIS MACRO IS "RESTRICTED MATERIALS OF IBM"             */
                                    1891             +*/*          5655-068 (C) COPYRIGHT IBM CORP. 1977, 1994             */
                                    1892             +*/*          SEE COPYRIGHT INSTRUCTIONS                              */
                                    1893             +*/*                                                                  */
                                    1894             +*/*01* STATUS:  HBB5520                                          @L6C*/
                                    1895             +*/*                                                                  */
                                    1896             +*/*01* DESCRIPTIVE NAME:  Service Request Block                      */
                                    1897             +*/*02*  ACRONYM:  SRB                                                */
                                    1898             +*/*                                                                  */
                                    1899             +*/*01* EXTERNAL CLASSIFICATION:                                      */
                                    1900             +*/*02*         DMTI:BASE                                             */
                                    1901             +*/*02*         GUPI:FIELDS                                           */
                                    1902             +*/*                  SRBASCB                                         */
                                    1903             +*/*                  SRBCPAFF                                        */
                                    1904             +*/*                  SRBEP                                           */
                                    1905             +*/*                  SRBFRRA                                         */
                                    1906             +*/*                  SRBID                                           */
                                    1907             +*/*                  SRBPARM                                         */
                                    1908             +*/*                  SRBPASID                                        */
                                    1909             +*/*                  SRBPKF                                          */
                                    1910             +*/*                  SRBPTCB                                         */
                                    1911             +*/*                  SRBRMTR                                         */
                                    1912             +*/*01* END OF EXTERNAL CLASSIFICATION:                               */
                                    1913             +*/*                                                                  */
                                    1914             +*/*01* MACRO NAME:  IHASRB                                           */
                                    1915             +*/*                                                                  */
                                    1916             +*/*01* DSECT NAME:                                                   */
                                    1917             +*/*     SRBSECT                                                      */
                                    1918             +*/*                                                                  */
                                    1919             +*/*01* COMPONENT:  SUPERVISOR CONTROL (SC1C5)                        */
                                    1920             +*/*                                                                  */
                                    1921             +*/*01* EYE-CATCHER:  SRB                                             */
                                    1922             +*/*02*  OFFSET:  0                                                   */
                                    1923             +*/*02*  LENGTH:  4                                                   */
                                    1924             +*/*                                                                  */
                                    1925             +*/*01* STORAGE ATTRIBUTES:                                           */
                                    1926             +*/*02*  SUBPOOL:  Common, Fixed Storage                              */
                                    1927             +*/*02*  KEY:  0                                                      */
                                    1928             +*/*02*  RESIDENCY:  ABOVE OR BELOW THE 16M LINE                      */
                                    1929             +*/*                                                                  */
                                    1930             +*/*01* SIZE:  44 BYTES                                               */
                                    1931             +*/*                                                                  */
                                    1932             +*/*01* CREATED BY:                                                   */
                                    1933             +*/*     Control program routines                                     */
                                    1934             +*/*                                                                  */
                                    1935             +*/*01* POINTED TO BY:                                                */
                                    1936             +*/*     Built and initialized in user-allocated storage and          */
                                    1937             +*/*     passed as a parameter to the SCHEDULE macro.                 */
                                    1938             +*/*                                                                  */
1VSIO     (VSIO00) (09:49) (22MAR04) WIZARD: Interactive disk diagnostic: USER AREA                                         Page   19
0Loc    Object Code    Addr1 Addr2  Stmt Lv Lineno    Source Statement           (Hibal 5, Asmedit 3.3)  HLASM R4.0  2004/03/22 09.49
+___    ______ ____    _____ _____  ____ __ ______    ______ _________
0                                   1939             +*/*     Pointed to by register 0 on entry to the SRB routine         */
                                    1940             +*/*     whose address is in SRBEP.                                   */
                                    1941             +*/*                                                                  */
                                    1942             +*/*     ASCBXMPQ FIELD OF THE ASCB DATA AREA                         */
                                    1943             +*/*     ASXBFSRB FIELD OF THE ASXB DATA AREA                         */
                                    1944             +*/*     ASXBLSRB FIELD OF THE ASXB DATA AREA                         */
                                    1945             +*/*     IOSSRB FIELD OF THE IOSB DATA AREA                           */
                                    1946             +*/*     PCBSRB FIELD OF THE PCB DATA AREA                            */
                                    1947             +*/*     SRBFLNK FIELD OF THE SRB DATA AREA                           */
                                    1948             +*/*     SVTGSMQ FIELD OF THE SVT DATA AREA                           */
                                    1949             +*/*     SVTLSMQ FIELD OF THE SVT DATA AREA                           */
                                    1950             +*/*     SVTSRBA FIELD OF THE SVT DATA AREA                           */
                                    1951             +*/*     TQESRB FIELD OF THE TQE DATA AREA                            */
                                    1952             +*/*     TVCSSRBA FIELD OF THE TVCS DATA AREA                         */
                                    1953             +*/*     WEBUPTR field of the WEB data area                           */
                                    1954             +*/*                                                                  */
                                    1955             +*/*01* SERIALIZATION:                                                */
                                    1956             +*/*     Owner-serialized.                                            */
                                    1957             +*/*                                                                  */
                                    1958             +*/*01* FUNCTION:                                                     */
                                    1959             +*/*     Used as input to the SCHEDULE macro when scheduling a        */
                                    1960             +*/*     routine for asynchronous execution.                          */
                                    1961             +*/*                                                                  */
                                    1962             +*/*01* METHOD OF ACCESS =                                            */
                                    1963             +*/*                                                                  */
                                    1964             +*/*     BAL- DSECT  ALWAYS PRODUCED, PERFORM USING ON SRBSECT        */
                                    1965             +*/*     BAL LISTING  - SPECIFY LIST=YES OR NO ON MACRO CALL          */
                                    1966             +*/*                                                                  */
                                    1967             +*/*     PL/S  - SRBSECT WILL BE BASED(SRBPTR) .                      */
                                    1968             +*/*        1. IF YOU WISH TO APPEND THE SRB TO THE END OF            */
                                    1969             +*/*           ANOTHER CONTROL BLOCK, SET %SRBLEVEL='N'               */
                                    1970             +*/*           WHERE N IS AN INTEGER BETWEEN 2 AND 3,INCLUSIVE.       */
                                    1971             +*/*           SRBSECT WILL THEN BE AN UNBASED LEVEL N  VARIABLE.     */
                                    1972             +*/*        2. IF YOU WISH TO APPEND ANOTHER CONTROL BLOCK TO THE END */
                                    1973             +*/*           OF THE SRB, SET %SRB9999=',', AND THE SEMICOLON AT     */
                                    1974             +*/*           THE END OF THE SRB WILL BE REPLACED WITH A COMMA.      */
                                    1975             +*/*                                                                  */
                                    1976             +*/*      EXAMPLE OF PLACING SRB BETWEEN TWO OTHER BLOCKS:            */
                                    1977             +*/*         %SRBLEVEL='2'                                            */
                                    1978             +*/*         %SRB9999=','                                             */
                                    1979             +*/*     DECLARE  1 MYBLOCK,                                          */
                                    1980             +*/*         2 MYFIELD,                                               */
                                    1981             +*/*        %INCLUDE SYSLIB(IHASRB)                                   */
                                    1982             +*/*         2 MYFIELD2                                               */
                                    1983             +*/*                                                                  */
                                    1984             +*/*      PL/S LISTING - SPECIFY %IHALIST='YES' BEFORE %INCLUDE       */
                                    1985             +*/*                                                                  */
                                    1986             +*/*01* COMPONENT = SC1C5 (SUPERVISOR CONTROL)                        */
                                    1987             +*/*                                                                  */
                                    1988             +*/*01* DISTRIBUTION LIBRARY = AMACLIB                                */
                                    1989             +*/*                                                                  */
                                    1990             +*/* END OF SPECIFICATIONS ********************************************/
                                    1991             +*        %GOTO PLSSRB2;              /*
                                    1993    02-00320 +       $$PUSH  PRINT
 000000                00000 0002C  1994    01-IHASR +SRBSECT  DSECT
 000000                             1995    01-IHASR +SRB      DS    0A
1VSIO     (VSIO00) (09:49) (22MAR04) WIZARD: Interactive disk diagnostic: USER AREA                                         Page   20
0Loc    Object Code    Addr1 Addr2  Stmt Lv Lineno    Source Statement           (Hibal 5, Asmedit 3.3)  HLASM R4.0  2004/03/22 09.49
+___    ______ ____    _____ _____  ____ __ ______    ______ _________
0000000                             1996    01-IHASR +SRBID    DS    CL4                      EBCDIC ACRONYM FOR SRB @G381PXU
                                    1997             +*                                       OR SSRB.               @G381PXU
 000004                             1998    01-IHASR +SRBFLNK  DS    A                        FORWARD CHAIN FIELD
 000008                             1999    01-IHASRC+SRBASCB  DS    0A                       PTR TO ASCB OF ADDRESS SPACE
                                                     +                                        SRB IS TO BE DISPATCHED TO @L3C
 000008                             2000    01-IHASR +         DS    X                        RESERVED. DO NOT USE.      @L3A
 000009                             2001    01-IHASR +SRBASC24 DS    AL3                      24-bit ASCB address        @L3A
 00000C                             2002    01-IHASR +SRBFLC   DS    0CL8                     SRB AREA MOVED TO LOW CORE
 00000C                             2003    01-IHASR +SRBCPAFF DS    BL2                      CPU AFFINITY MASK
 00000E                             2004    01-IHASR +SRBPASID DS    H                        PURGEDQ ASID IDENTIFIER
 000010                             2005    01-IHASR +SRBPTCB  DS    A                        PURGEDQ TCB IDENTIFIER
 000014                             2006    01-IHASR +SRBEP    DS    0A                       ENTRY POINT OF ROUTINE @G860PXH
 000014                             2007    01-IHASR +SRBEPA   DS    A                        ADDRESS OF ENTRY POINT @G860PXH
                                    2008             +*                                        (31-BIT USERS)        @G860PXH
                                    2009    01-IHASR +SRBMODE  EQU   X'80'                    ADDRESSING MODE INDICATOR
                                    2010             +*                                                              @G860PXH
 000018                             2011    01-IHASR +SRBRMTR  DS    0A                       ADDRESS OF RESOURCE MANAGER
                                    2012             +*                                        ROUTINE               @G860PXH
 000018                             2013    01-IHASR +SRBRMTRA DS    A                        ADDRESS OF RESOURCE MANAGER
                                    2014             +*                                       ROUTINE (31-BIT USERS) @G860PXH
                                    2015    01-IHASR +SRBRMODE EQU   X'80'                    ADDRESSING MODE INDICATOR
                                    2016             +*                                                              @G860PXH
 00001C                             2017    01-IHASR +SRBPARM  DS    A                        USER PARAMETER
 000020                             2018    01-IHASR +SRBWEB   DS   0A                    Address of this SRB's WEB.     @L3A
                                    2019             +*                                   SERIALIZATION: None
                                    2020             +*                                   OWNERSHIP: Supervisor Control
 000020                             2021    01-IHASR +SRBSAVE  DS    A                    Reserved. Must be Zero.        @L3C
                                    2022             +*                                   SERIALIZATION: None
                                    2023             +*                                   OWNERSHIP: Supervisor Control
 000024                             2024    01-IHASR +SRBPKF   DS    B                        PROTECT KEY INDICATION
 000025                             2025    01-IHASR +SRBPRIOR DS    0B                       PRIORITY LEVEL INDIC   @G50DPXE
 000025                             2026    01-IHASR +SRBFLGS  DS    B                        SRB OPTION FLAGS       @G50DPXE
                                    2027    01-IHASR +SRBLLREQ EQU   X'80'                    LOCAL LOCK REQUIRED    @G50DPXE
                                    2028    01-IHASR +SRBLLHLD EQU   X'40'                    LOCAL LOCK HELD        @G50DPXE
                                    2029    01-IHASR +SRBFRREQ EQU   X'20'                    FRR REQUESTED          @G50DPXE
                                    2030    01-IHASR +SRBFRRCL EQU   X'10'                    THIS BIT IS OBSOLETE   @G386PXV
                                    2031             +*                                       SINCE FRR PARM AREA    @G386PXV
                                    2032             +*                                       ALWAYS CLEARED BY      @G386PXV
                                    2033             +*                                       DISPATCHER. RETAINED   @G386PXV
                                    2034             +*                                       FOR COMPATIBILITY.     @G386PXV
                                    2035    01-IHASR +SRBSUSP  EQU   X'08'                    SUSPENDED SRB ONLY ON FOR
                                    2036             +*                                       SSRB                   @G50DPXE
                                    2037    01-IHASR +SRBPNONQ EQU   X'04'                    NON QUIESCABLE SRB     @G50DPXE
                                    2038    01-IHASR +SRBPSYS  EQU   X'00'                    SYSTEM PRIORITY LEVEL  @G50DPXE
 000026                             2039    01-IHASR +SRBHLHI  DS    BL1                      INDICATION OF SUSPEND LOCKS
                                    2040             +*                                       HELD AT SRB SUSPENSION @G50DPXE
 000027                             2041    01-IHASR +SRBFLGS1 DS    B                        SRB TYPE FLAGS.        @G381PXU
                                    2042    01-IHASR +SRBMAIN  EQU   X'80'                    SRB/SSRB MUST BE       @G381PXU
                                    2043             +*                                       FREEMAINED.            @G381PXU
                                    2044    01-IHASR +SRBSP245 EQU   X'40'                    SRB/SSRB FROM SUBPOOL  @G381PXU
                                    2045             +*                                       245.                   @G381PXU
                                    2046    01-IHASR +SRBBLK24 EQU   X'20'                    SRB BELOW THE LINE         @L1A
                                    2047    01-IHASR +SRBXESF  EQU   X'10'                    Mode=primary FRR - only    @L6C
                                    2048             +*                                       meaningful if SRBFRREQ is set.
                                    2049    01-IHASR +SRB1STS  EQU   X'08'                    This SSRB represents the
                                    2050             +*                                       initial schedule of a workunit
1VSIO     (VSIO00) (09:49) (22MAR04) WIZARD: Interactive disk diagnostic: USER AREA                                         Page   21
0Loc    Object Code    Addr1 Addr2  Stmt Lv Lineno    Source Statement           (Hibal 5, Asmedit 3.3)  HLASM R4.0  2004/03/22 09.49
+___    ______ ____    _____ _____  ____ __ ______    ______ _________
0                                   2051             +*                                       and has never been dispatched.
                                    2052             +*                                                                  @L6A
                                    2053    01-IHASR +SRBPMCS  EQU   X'04'                    This SRB is in process-must
                                    2054             +*                                       complete mode              @L6A
                                    2055    01-IHASR +SRBMSCHD EQU   X'02'                    This SRB was schduled via the
                                    2056             +*                                       IEAMSCHD macro             @P3C
                                    2057    01-IHASR +SRBTOKNP EQU   X'01'                    This SSRB belongs to the   @01A
                                    2058             +*                                       pool created for SUSPEND with
                                    2059             +*                                       SPTOKEN.
 000028                             2060    01-IHASR +SRBFRRA  DS    A                        FRR ROUTINE ADDRESS    @G50DPXE
 00002C                             2061    01-IHASR +SRBEND   DS    0F                       END OF SRB             @G381PXU
                                    2062    01-IHASR +SRBSIZE  EQU   SRBEND-SRBSECT           SIZE OF SRB
                                    2064    02-00425 +       $$POP   PRINT
                                    2065     434.              IECDIOSB ,
                                    2066             +*%IOSBX1: ;
                                    2067             +*/***START OF SPECIFICATIONS*************************************@L8C*/
                                    2068             +*/*                                                                  */
                                    2069             +*/*01* PROPRIETARY STATEMENT =                                   @L8C*/
                                    2070             +*/*                                                                  */
                                    2071             +*/*    Licensed materials - Property of IBM                          */
                                    2072             +*/*    This macro is "RESTRICTED MATERIALS OF IBM"                   */
                                    2073             +*/*    5647-A01 (C) COPYRIGHT IBM CORP. 1986, 2000               @LFC*/
                                    2074             +*/*                                                                  */
                                    2075             +*/* STATUS - HBB7703                                             @LFC*/
                                    2076             +*/*                                                                  */
                                    2077             +*/*01* DESCRIPTIVE NAME = IOS (I/O Supervisor) Block             @P5C*/
                                    2078             +*/*                                                                  */
                                    2079             +*/*02*  ACRONYM = IOSB                                           @L8A*/
                                    2080             +*/*                                                                  */
                                    2081             +*/*01* MACRO NAME = IECDIOSB                                     @P5C*/
                                    2082             +*/*                                                                  */
                                    2083             +*/*01* DSECT NAME = IOSB                                         @L8A*/
                                    2084             +*/*                                                              @L8A*/
                                    2085             +*/*01* COMPONENT = I/O Supervisor (SC1C3)                        @P5C*/
                                    2086             +*/*                                                              @L8A*/
                                    2087             +*/*01* EYE-CATCHER = IOSB, if IOSB extension exists              @L8A*/
                                    2088             +*/*                                                              @L8A*/
                                    2089             +*/*02*  OFFSET = 06C                                             @L8A*/
                                    2090             +*/*                                                              @L8A*/
                                    2091             +*/*02*  LENGTH = 4 Bytes                                         @L8A*/
                                    2092             +*/*                                                              @L8A*/
                                    2093             +*/*01* STORAGE ATTRIBUTES =                                      @L8A*/
                                    2094             +*/*                                                              @L8A*/
                                    2095             +*/*02*  SUBPOOL           = Any subpool that satisfies fixed     @L8A*/
                                    2096             +*/*                         global storage attributes. Subpool   @P5C*/
                                    2097             +*/*                         226 when obtained from the IOS       @P5A*/
                                    2098             +*/*                         storage manager.                     @P5A*/
                                    2099             +*/*02*  KEY               = 0                                    @L8A*/
                                    2100             +*/*02*  RESIDENCY         =                                      @P5C*/
                                    2101             +*/*           Below the 16M line when obtained                  .@P5A*/
                                    2102             +*/*           from the IOS storage manager.                      @P5A*/
                                    2103             +*/*           Other IOS drivers could obtain                     @P5A*/
                                    2104             +*/*           the IOSB from either below                         @P5A*/
                                    2105             +*/*           or above the 16M line.                             @P5A*/
                                    2106             +*/*                                                              @L8A*/
                                    2107             +*/*                                                              @L8A*/
1VSIO     (VSIO00) (09:49) (22MAR04) WIZARD: Interactive disk diagnostic: USER AREA                                         Page   22
0Loc    Object Code    Addr1 Addr2  Stmt Lv Lineno    Source Statement           (Hibal 5, Asmedit 3.3)  HLASM R4.0  2004/03/22 09.49
+___    ______ ____    _____ _____  ____ __ ______    ______ _________
0                                   2108             +*/*01* SIZE =                                                    @P5C*/
                                    2109             +*/*  108 bytes for basic IOSB.                                   @P5A*/
                                    2110             +*/*  44 bytes for an in-line extension (optional).               @P5A*/
                                    2111             +*/*                                                              @L8A*/
                                    2112             +*/*01* CREATED BY = User of the STARTIO service                  @L8A*/
                                    2113             +*/*                                                              @L8A*/
                                    2114             +*/*01* POINTED TO BY =                                           @L8A*/
                                    2115             +*/*                    IOQIOSB of IECDIOQ                        @L8A*/
                                    2116             +*/*                    SRBPARM of IHASRB                         @L8A*/
                                    2117             +*/*                    RQESRB field of the RQE data area         @P5A*/
                                    2118             +*/*                                                              @L8A*/
                                    2119             +*/*01* SERIALIZATION = None                                      @L8A*/
                                    2120             +*/*                                                              @L8A*/
                                    2121             +*/*01* FUNCTION:  The IOSB contains all the information needed       */
                                    2122             +*/*   to process an I/O request through the I/O initiation and       */
                                    2123             +*/*   completion.  It is used to communicate between the I/O         */
                                    2124             +*/*   supervisor and the requestor of an I/O service, between        */
                                    2125             +*/*   the I/O supervisor and and error-recovery procedure,           */
                                    2126             +*/*   between an ERP and write-to- operator and                      */
                                    2127             +*/*   statistics-update modules, and among the components of         */
                                    2128             +*/*   the I/O supervisor.  It is also used to control successive     */
                                    2129             +*/*   entries from the I/O supervisor to an ERP.                 @P5C*/
                                    2130             +*/*                                                                  */
                                    2131             +*/*01* Note:The IOSB extension is contiguous to the standard         */
                                    2132             +*/*         IOSB.  To include the IOSB extension, the                */
                                    2133             +*/*         parameter IOSIOSBE = YES must be provided when           */
                                    2134             +*/*         including the macro in a module.  The extension id       */
                                    2135             +*/*         must be initialized to IOSB, the length of the           */
                                    2136             +*/*         extension must be set, and flag IOSBEXTF must be set     */
                                    2137             +*/*         on to indicate that the extension exists.                */
                                    2138             +*/*                                                                  */
                                    2139             +*/* EXTERNAL CLASSIFICATION: DMTI                                @LBA*/
                                    2140             +*/* END OF EXTERNAL CLASSIFICATION                               @LBA*/
                                    2141             +*/*                                                                  */
                                    2142             +*/*01* METHOD OF ACCESS =                                        @L8A*/
                                    2143             +*/*02*      ASM: IECDIOSB (with IOSIOSBE=YES for extension)      @L8A*/
                                    2144             +*/*02*    PL/AS: %INCLUDE SYSLIB(IECDIOSB)  (with %IOSIOSBE='YES'    */
                                    2145             +*/*              before include statement for extension)         @L8A*/
                                    2146             +*/*                                                              @L8A*/
                                    2147             +*/* DEPENDENCIES - None                                              */
                                    2148             +*/*                                                                  */
                                    2149             +*/* MODULE TYPE - Control block                                      */
                                    2150             +*/*                                                                  */
                                    2151             +*/* PROCESSOR - PLS3 Compiler or Assembler H                         */
                                    2152             +*/*                                                                  */
                                    2153             +*/* CHANGE ACTIVITY -                                                */
                                    2154             +*/* THE FOLLOWING APARS ARE INCLUDED:                                */
                                    2155             +*/*  OZ18121, OZ25620, OZ35535, OZ38931                      @G81LPLS*/
                                    2156             +*/*                                                                  */
                                    2157             +*/*  HBB2102 - IOS Rewrite to support new architecture.      @G860PLN*/
                                    2158             +*/*                                                                  */
                                    2159             +*/*A-000000-9999999  - JBB2125 - Reformat the IOSB               @D3C*/
                                    2160             +*/*                                                                  */
                                    2161             +*/*  $MAC(IECDIOSB),COMP(SC1C3):I/O Supervisor Block                 */
                                    2162             +*/*                                                                  */
                                    2163             +*/*  PN  REASON   RLSE    DATE   ORG  COMMENTS                       */
1VSIO     (VSIO00) (09:49) (22MAR04) WIZARD: Interactive disk diagnostic: USER AREA                                         Page   23
0Loc    Object Code    Addr1 Addr2  Stmt Lv Lineno    Source Statement           (Hibal 5, Asmedit 3.3)  HLASM R4.0  2004/03/22 09.49
+___    ______ ____    _____ _____  ____ __ ______    ______ _________
0                                   2164             +*/*  $D1=DCR046   JBB2110 820701 PDLN:Intercept Support              */
                                    2165             +*/*  $D2=DCR014   JBB2110 820701 PDLZ:Volume Verification (DAVV)     */
                                    2166             +*/*                                   rewrite.                       */
                                    2167             +*/*  $D3=DCR083   JBB2125 830601 PDLE:Provide in-line IOSB extension */
                                    2168             +*/*                                                              @D3A*/
                                    2169             +*/*  $D4=DCR080   HBB4410 881205 PDLQ:Support for handling missing   */
                                    2170             +*/*                                   interrupt and manual interven- */
                                    2171             +*/*                                   tion conditions for couple data*/
                                    2172             +*/*                                   sets for Cross-system coupling */
                                    2173             +*/*                                   facility.                  @D4A*/
                                    2174             +*/*  $D5=DCR0087  HBB4430 920617 PDLH:                           @D5A*/
                                    2175             +*/*                                                                  */
                                    2176             +*/*  $H1=3480     JBB2125 821201 PDLE:Provide new driver IDs.    @H1A*/
                                    2177             +*/*                                                                  */
                                    2178             +*/*  $L1=HARP01   JBB2216 831115 PDLE:Provide IOPID field.       @L1A*/
                                    2179             +*/*  $L2=VERS     HBB3310 860416 PDLE:Versioning macro into          */
                                    2180             +*/*                                   product                    @L2A*/
                                    2181             +*/*  $L3=ILIBS    JBB3311 880222 PDLC:Provide ILIB driver ID     @L3A*/
                                    2182             +*/*  $L4=IOSE1    HBB4410 880627 PDLL:Provide early intermediate     */
                                    2183             +*/*                                   status exit bit (Note:         */
                                    2184             +*/*                                   originally in DCR003)          */
                                    2185             +*/*                                   Provide support for CCWs in    */
                                    2186             +*/*                                   data spaces. (Note:            */
                                    2187             +*/*                                   originally in DCR008)          */
                                    2188             +*/*                                   Provide early intermediate     */
                                    2189             +*/*                                   status exit space switch bit   */
                                    2190             +*/*                                   (Note: originally in DCR013)   */
                                    2191             +*/*                                                              @L4A*/
                                    2192             +*/*  $L5=COUPL    HBB4410 880627 PDLL:Provide XCF driver id      @L5A*/
                                    2193             +*/*  $L6=DYNAM    HBB4420 900122 PDLZ: Dynamic I/O Support       @L6A*/
                                    2194             +*/*  $L7=ATLIB    HBB4430 911001 PDMC: Automated Tape Library    @L7A*/
                                    2195             +*/*  $L8=MVTAM    HBB4430 911202 PDNO: VTAM HPT Support.  Provided   */
                                    2196             +*/*                                    MIH Processing Inhibit bit.   */
                                    2197             +*/*                                    Update PROLOG to meet SHOWHDR */
                                    2198             +*/*                                    requirements.             @L8A*/
                                    2199             +*/*  $L9=DYNCM    HBB4430 920617 PDLZ: Dynamic Cache Management  @L9A*/
                                    2200             +*/*  $LA=IOSA     HBB5510 920813 PDLV: IOS Automate Message          */
                                    2201             +*/*                                    Change IOSVSLFD's driver ID   */
                                    2202             +*/*                                    from '88' to '18'.            */
                                    2203             +*/*                                    (Transmitted via PIG0673) @LAA*/
                                    2204             +*/*  $LB=PR440    HBB5510 921112 PDLV: Retransmit for rebase and     */
                                    2205             +*/*                                    copyright change              */
                                    2206             +*/*  $LC=UCBVP    HBB5520 940106 PDLU: UCBVS support                 */
                                    2207             +*/*                                    Added post code 54x       @LCA*/
                                    2208             +*/*  $LD=UCBVP    HBB5520 940310 PDKB: UCBVS support                 */
                                    2209             +*/*                                    Add two word field to be used */
                                    2210             +*/*                                    by CMSET in IECTCATN. This    */
                                    2211             +*/*                                    field will be defined in the  */
                                    2212             +*/*                                    IOSATTWA for an attention     */
                                    2213             +*/*                                    IOSB                      @LDA*/
                                    2214             +*/*  $LE=PAVS     HBB5520 940602 PDLC: PAV support - add IOSXIOSN    */
                                    2215             +*/*                                    bit                       @LEA*/
                                    2216             +*/*  $LF=64BIT    HBB7703 000901 PDRH: 64-Bit IDAWs                  */
                                    2217             +*/*                                                                  */
                                    2218             +*/*  $P1=PH31832  HBB4420 901126 PDLV: Fast path pinning         @P1A*/
                                    2219             +*/*                                                                  */
1VSIO     (VSIO00) (09:49) (22MAR04) WIZARD: Interactive disk diagnostic: USER AREA                                         Page   24
0Loc    Object Code    Addr1 Addr2  Stmt Lv Lineno    Source Statement           (Hibal 5, Asmedit 3.3)  HLASM R4.0  2004/03/22 09.49
+___    ______ ____    _____ _____  ____ __ ______    ______ _________
0                                   2220             +*/*  $P2=PKB3057  HBB4430 920729 PDKB: 10X DEFECT ELIMINATION        */
                                    2221             +*/*                                    Add IOSXASPR which will have  */
                                    2222             +*/*                                    the ASID of the ASCB that will*/
                                    2223             +*/*                                    contain the preferable IO     */
                                    2224             +*/*                                    dispatching priority          */
                                    2225             +*/*                                                              @P2A*/
                                    2226             +*/*  $P3=PIG1524  HBB5510 930520 PDLZ: 33X DEFECT ELIMINATION        */
                                    2227             +*/*                                    Allow I/O drivers to specify  */
                                    2228             +*/*                                    timeout value, independent    */
                                    2229             +*/*                                    of device MIH time        @P3A*/
                                    2230             +*/*  $P4=PIG2270  HBB5510 930823 PDLU: Prolog updates            @P4A*/
                                    2231             +*/*  $P5=PIG3270  HBB5510 931104 PDLU: Prolog updates, CDPI      @P5A*/
                                    2232             +*/*  $P6=PQC2366  HBB6603 961001 PDLZ: Enclave I/O priority      @P6A*/
                                    2233             +*/*  $P7=PWA0208  JBB6607 980630 PDNO: Remove obsolete copyright     */
                                    2234             +*/*                                    statement                 @P7A*/
                                    2235             +*/*                                                                  */
                                    2236             +*/*  $01=OZ73484  JBB2216 831115 PDLE:Duplicate the IOSB extension   */
                                    2237             +*/*                                   IOSXNORQ bit in the IOSB basic */
                                    2238             +*/*                                   and name it IOSMNORQ.      @01A*/
                                    2239             +*/*  $02=OY04180  HBB3310 871001 PDLE:Provide flag IOSGDPLP to allow */
                                    2240             +*/*                                   GDP requests only to           */
                                    2241             +*/*                                   logically available paths  @02A*/
                                    2242             +*/*  $03=OY11315  JBB2220 860901 PDLB:Add AOM support.           @03A*/
                                    2243             +*/*  $04=OY15072  JBB2220 880729 PDLG:Add IOSNOLL to solve local     */
                                    2244             +*/*                                   lock deadlock problem in post  */
                                    2245             +*/*                                   status                     @04A*/
                                    2246             +*/*  $05=OY24898  JBB2220 890909 PDLB:Add IOS002NO to prevent msg    */
                                    2247             +*/*                                   IOS002A flooding console.  @05A*/
                                    2248             +*/*  $06=OY28666  HBB3310 900115 PDLL:Add bit field definition for   */
                                    2249             +*/*                                   IOSNORTY                   @06A*/
                                    2250             +*/*  $07=OY39007  JBB2220 910331 PDLL:3490 tape support          @07A*/
                                    2251             +*/*                                                                  */
                                    2252             +*/*  $08=OY39007  JBB2220 910331 PDLA:Unsolicited Interrupt and      */
                                    2253             +*/*                                   Attention Exit Interfaces  @08A*/
                                    2254             +*/*  $09=OY38424  HBB3310 910301 PDLK:I/O Timing SPE             @09A*/
                                    2255             +*/*  $0A=OY55261  JBB2220 920821 PDMC:Remove IOS002NO bit.  Message  */
                                    2256             +*/*                                   IOS002A will now be suppressed */
                                    2257             +*/*                                   for GDP requests that result   */
                                    2258             +*/*                                   in an N-bit condition.     @0AA*/
                                    2259             +*/*  $0B=OW02079  HBB5510 940207 PDLU:Add flag to indicate that      */
                                    2260             +*/*                                   the I/O driver is performing   */
                                    2261             +*/*                                   non-disruptive I/O.        @0BA*/
                                    2262             +*/*  $0C=OY67690  HBB4430 940527 PDNO:Fixed by PTM PIG1524.          */
                                    2263             +*/*                                   No code changes.           @0CA*/
                                    2264             +*/*  $0D=OW07560  HBB4430 940920 PDLZ:Open Systems Adapter       @0DA*/
                                    2265             +*/*  $0E=OW11308  HBB5510 960110 PDNO:Add bit to indicate that the   */
                                    2266             +*/*                                   attention routine was already  */
                                    2267             +*/*                                   scheduled for this I/O         */
                                    2268             +*/*                                   operation                  @0EA*/
                                    2269             +*/*  $0F=OW19667  HBB5510 960823 PDMC:Additional word required for   */
                                    2270             +*/*                                   CMSET save area as DIE=YES     */
                                    2271             +*/*                                   is used by IECTCATN.       @0FA*/
                                    2272             +*/*  $10=OW25260  HBB4430 970331 PDNO:3590 support for OS/390 R3 @10A*/
                                    2273             +*/*  $11=OW22669  HBB4420 961115 PDNO:No code changes.               */
                                    2274             +*/*                                   (Fixed by OW11308)         @11A*/
                                    2275             +*/*  $12=OW20154  HBB4430 961115 PDNO:Save attention index in sense  */
1VSIO     (VSIO00) (09:49) (22MAR04) WIZARD: Interactive disk diagnostic: USER AREA                                         Page   25
0Loc    Object Code    Addr1 Addr2  Stmt Lv Lineno    Source Statement           (Hibal 5, Asmedit 3.3)  HLASM R4.0  2004/03/22 09.49
+___    ______ ____    _____ _____  ____ __ ______    ______ _________
0                                   2276             +*/*                                   IOSB                       @12A*/
                                    2277             +*/*  $13=OW26938  HBB4430 970521 PDHC:Move ORGs for IOSXEIOP and     */
                                    2278             +*/*                                   IOSXATI                        */
                                    2279             +*/*                                   Un-comment reserved field  @13A*/
                                    2280             +*/*  $14=OW37980  HBB6603 990531 PDLZ:Shark dynamic PAV support  @14A*/
                                    2281             +*/*  $15=OW38541  HBB6603 990430 PDLE:FICON Support              @15A*/
                                    2282             +*/*  $16=OW40408  HBB6603 990831 PDNO:Shark PAV Support.             */
                                    2283             +*/*                                   - Define new Driver ID for     */
                                    2284             +*/*                                     IOSVIOPA processing      @16A*/
                                    2285             +*/*  $17=OW43557  HBB6606 000505 PDMM: Add IOSXDSMC bit          @17A*/
                                    2286             +*/*  $18=OW48518  HBB6606 010630 PDNO: Save USLRRAT2 and USLRRAT3    */
                                    2287             +*/*                                    in sense IOSB             @18A*/
                                    2288             +*/*  $19=OW50257  HBB6606 011015 PDNO: Change comments pertaining    */
                                    2289             +*/*                                    to IOSNOLL usage to reflect   */
                                    2290             +*/*                                    the meaning of the bit.   @19A*/
                                    2291             +*/****END OF SPECIFICATIONS*******************************************/
                                    2292             +*%GOTO   IOSBX5;                   /*
0000000                00000 0006C  2294    01-IECDI +IOSB     DSECT
0000000                             2296    01-IECDI +         DS    0F
 000000                             2297    01-IECDI +IOSBSTD  DS    0CL108        Length of the IOSB without the extension
                                    2298             +* -------------------------------IOSFLA bit definitions---------------
 000000                             2299    01-IECDI +IOSFLA   DS    XL1           Flag byte A
                                    2300             +*        EQU   X'00'             ..No CCW chaining
                                    2301    01-IECDI +IOSDCHN  EQU   X'80'             ..Data chaining
                                    2302    01-IECDI +IOSCCHN  EQU   X'40'             ..Command chaining
                                    2303    01-IECDI +IOSACHN  EQU   X'C0'             ..Command and data chaining
                                    2304    01-IECDIC+IOSERR   EQU   X'20'             ..Error Recovery Routine (ERP) in
                                                    C+                                   control.  Bit must be set to 0
                                                    C+                                   by the driver.
                                                    C+                                   If the ERP returns with this bit
                                                    C+                                   set to 1, a retry is requested.
                                                    C+                                   If the ERP returns with this bit
                                                    C+                                   set to 0, the error is either
                                                    C+                                   corrected or to be considered
                                                    C+                                   permanent depending on the
                                                     +                                   setting of the IOSEX bit.
                                    2305    01-IECDIC+IOSSMDA  EQU   X'10'             ..ERP status modifier bit A.
                                                    C+                                   Must be set to zero by driver.
                                                    C+                                     TAPE- Reposition device.
                                                    C+                                     U/R- Immediate operation,
                                                     +                                           CCW OP code in IOSMDB.
                                    2306    01-IECDIC+IOSSMDB  EQU   X'08'             ..ERP status modifier bit B.
                                                    C+                                   Must be set to zero by driver.
                                                    C+                                   Set by PCI fetch in appendage
                                                    C+                                   for posting:
                                                    C+                                     TAPE- CRC needed.
                                                     +                                     DASD- PCI fetch stop flag.
                                    2307    01-IECDIC+IOSEX    EQU   X'04'             ..Exceptional condition. Upon
                                                    C+                                   return from normal or abnormal
                                                    C+                                   exit with this bit on, ERP
                                                    C+                                   processing is initiated if initial
                                                    C+                                   error condition. If bit is
                                                    C+                                   set to 0, it is assumed that
                                                    C+                                   the exit corrected the condition
1VSIO     (VSIO00) (09:49) (22MAR04) WIZARD: Interactive disk diagnostic: USER AREA                                         Page   26
0Loc    Object Code    Addr1 Addr2  Stmt Lv Lineno    Source Statement           (Hibal 5, Asmedit 3.3)  HLASM R4.0  2004/03/22 09.49
+___    ______ ____    _____ _____  ____ __ ______    ______ _________
0                                                   C+                                   or did not consider it an error.
                                                    C+                                   When the error routine returns
                                                    C+                                   with this bit set to a 1
                                                    C+                                   and the IOSERR set to a 0, the
                                                    C+                                   error is considered permanent.
                                                    C+                                   When the ERP returns with both
                                                    C+                                   bits set to 0, the error has
                                                     +                                   been corrected.
                                    2308    01-IECDI +IOSDOM   EQU   X'02'             ..DOM macro required
                                    2309    01-IECDIC+IOSIOSB  EQU   X'01'             ..IOSB created by IOS.
                                                     +                                   Must be set to zero by driver.
                                    2310             +***********************************************************************
                                    2311             +* IOSFLB bit definitions -  For Start Subchannel requests.            *
                                    2312             +*---------------------------------------------------------------------*
                                    2313             +* See redefinition area for modify subchannel requests.               *
                                    2314             +***********************************************************************
 000001                             2315    01-IECDI +IOSFLB   DS    XL1           Flag byte B-----------------------------
                                    2316    01-IECDI +IOSDIESE EQU   X'80'             ..Second entry to DIE
                                    2317    01-IECDI +IOSSDR   EQU   X'40'             ..ERP doesnt want OBR
                                    2318    01-IECDIC+IOSNOTRS EQU   X'20'             ..Driver does not require an address
                                                     +                                    space switch on entry to DIE.
                                    2319    01-IECDIC+IOSRESRC EQU   X'10'             ..IOS resources are held.  Must be
                                                    C+                                   initialized to zero by driver.
                                                    C+                                   With bit set, the DIE cannot return
                                                     +                                   on  codes 12 and 16.
                                    2320    01-IECDIC+IOSIONRD EQU   X'08'             ..Set by a driver to request that the
                                                    C+                                   I/O request be issued to a
                                                     +                                   not-ready device.
                                    2321    01-IECDIC+IOSMSG   EQU   X'04'             ..Message indicator to WTO service
                                                    C+                                   0 = Intervention required msg
                                                     +                                   1 = I/O error message
                                    2322    01-IECDI +IOSBDCST EQU   X'02'             ..Broadcast bit
                                    2323    01-IECDI +IOSLOG   EQU   X'01'             ..Create an OBR record.
0000002                             2325    01-IECDI +IOSFLC   DS    XL1               Flag byte C -------------------------
                                    2326    01-IECDIC+IOSGDPLP EQU   X'80'             ..With IOSGDP bit set, limit IOSGPMSK
                                                    C+                                   field to logically available paths
                                                     +                                   (UCBLPM field).                 @02C
                                    2327    01-IECDI +IOSEIDAW EQU   X'40'             ..Extended 4K 8-byte IDAWs        @LFC
                                    2328    01-IECDIC+IOSVERIF EQU   X'40'             ..Unsolicited device end verification
                                                     +                                   needed for non-DASD devices
                                    2329    01-IECDIC+IOSCC3WE EQU   X'20'             ..Set by a driver to request deferred
                                                    C+                                   condition code 3 posting (post code
                                                     +                                   of X'6D')
                                    2330    01-IECDIC+IOSEXP   EQU   X'10'             ..Specific exposure requested.  The
                                                    C+                                   IOSUCB field contains the specific
                                                     +                                   exposure UCB address.
                                    2331    01-IECDIC+IOSNORWS EQU   X'08'             ..No Read/Write Synchronization:
                                                    C+                                   Set on by I/O driver to indicate
                                                    C+                                   that the channel should not
                                                    C+                                   synchronize on read/write
                                                    C+                                   transitions when prefetching
                                                    C+                                   (IOSP) is also set.  The driver
                                                    C+                                   insures that the read and
                                                    C+                                   writes are from different I/O
                                                     +                                   buffers                         @15A
1VSIO     (VSIO00) (09:49) (22MAR04) WIZARD: Interactive disk diagnostic: USER AREA                                         Page   27
0Loc    Object Code    Addr1 Addr2  Stmt Lv Lineno    Source Statement           (Hibal 5, Asmedit 3.3)  HLASM R4.0  2004/03/22 09.49
+___    ______ ____    _____ _____  ____ __ ______    ______ _________
0                                   2332    01-IECDIC+IOS2CSWS EQU   X'04'             ..Two Channel Status Words:
                                                    C+                                   Set on by the I/O driver to
                                                    C+                                   indicate that when CCW prefetching
                                                    C+                                   is requested (IOSP), if an error
                                                    C+                                   occurs where the control unit
                                                    C+                                   executes ahead of the channel,
                                                    C+                                   two ending CCW addresses
                                                    C+                                   should be presented to the
                                                    C+                                   driver.  The second ending
                                                    C+                                   CCW address is contained in the
                                                    C+                                   IEDB.  If this bit is off,
                                                    C+                                   an invalid ending CCW address
                                                     +                                   is simulated by IOS             @15A
                                    2333    01-IECDI +IOSNORTY EQU   X'02'             ..No retry allowed.               @06A
                                    2334    01-IECDI +IOSCTCNR EQU   X'02'             ..CTC - No retry allowed      @ZA11845
                                    2335    01-IECDIC+IOSGDP   EQU   X'01'             ..A guaranteed device path
                                                    C+                                   has been requested. IOSGPMSK
                                                     +                                   contains the path(s) involved.
0                                   2337             +***********************************************************************
                                    2338             +*   IOSPROC - This byte indicates what type of special processing     *
                                    2339             +*             that is to be performed for IOS generated IOSBs.        *
                                    2340             +*             This processing normally runs asynchronous to           *
                                    2341             +*             IOS mainline processing.  This field must be set to     *
                                    2342             +*             zero by drivers.                                        *
                                    2343             +***********************************************************************
 000003                             2344    01-IECDI +IOSPROC  DS    XL1                 IOS special processing procedures
                                    2345             +*        EQU   X'00'               ..Reserved
                                    2346    01-IECDI +IOSAPCI  EQU   X'04'               ..Intermediate status
                                    2347    01-IECDI +IOSATTN  EQU   X'08'               ..Attention
                                    2348    01-IECDI +IOSAPURG EQU   X'0C'               ..Purge
                                    2349             +*        EQU   X'10'               ..Reserved
                                    2350    01-IECDI +IOSAWTO  EQU   X'14'               ..WTO
                                    2351    01-IECDI +IOSADDR  EQU   X'18'               ..DDR
                                    2352    01-IECDI +IOSADIER EQU   X'1C'               ..DIE Redrive- different UCB
                                    2353    01-IECDI +IOSAUR   EQU   X'20'               ..Unconditional Reserve
                                    2354    01-IECDI +IOSAST1  EQU   X'F9'               ..IOS subchannel type 1 request @L6A
                                    2355    01-IECDI +IOSASNRQ EQU   X'FA'               ..IOS sense request
                                    2356    01-IECDI +IOSACLR  EQU   X'FC'               ..CLEAR Subchannel request
                                    2357    01-IECDI +IOSAHALT EQU   X'FD'               ..HALT Subchannel request
                                    2358    01-IECDI +IOSAMOD  EQU   X'FE'               ..MODIFY Subchannel request
                                    2359    01-IECDI +IOSASTOR EQU   X'FF'               ..STORE Subchannel request
0                                   2361             +***********************************************************************
                                    2362             +*  IOSDVRID - This byte indentifies the I/O driver requesting the     *
                                    2363             +*             I/O request.  Driver identification values are          *
                                    2364             +*             assigned by IOS.                                        *
                                    2365             +***********************************************************************
 000004                             2366    01-IECDI +IOSDVRID DS    XL1                 Driver identification value
0                                   2368    01-IECDI +IOSIOSID EQU   X'00'               ..Reserved for IOS
                                    2369    01-IECDIC+IOSMISID EQU   X'01'               ..Miscellaneous ID for I/O requests
                                                    C+                                     that cannot be purged,
                                                    C+                                     associated with a task, or
                                                     +                                     violate extents
                                    2370    01-IECDI +IOSXCPID EQU   X'02'               ..EXCP Processor
1VSIO     (VSIO00) (09:49) (22MAR04) WIZARD: Interactive disk diagnostic: USER AREA                                         Page   28
0Loc    Object Code    Addr1 Addr2  Stmt Lv Lineno    Source Statement           (Hibal 5, Asmedit 3.3)  HLASM R4.0  2004/03/22 09.49
+___    ______ ____    _____ _____  ____ __ ______    ______ _________
0                                   2371    01-IECDI +IOSVSAID EQU   X'03'               ..VSAM
                                    2372    01-IECDI +IOSATMID EQU   X'04'               ..VTAM
                                    2373    01-IECDI +IOSTCMID EQU   X'05'               ..TCAM
                                    2374    01-IECDI +IOSOLTID EQU   X'06'               ..OLTEP
                                    2375    01-IECDI +IOSFCHID EQU   X'07'               ..PCI FETCH
                                    2376    01-IECDI +IOSJESID EQU   X'08'               ..JES3
                                    2377    01-IECDI +IOSSS1ID EQU   X'09'               ..MSC
                                    2378    01-IECDI +IOSPRGID EQU   X'0A'               ..IECVIOPM PURGE
                                    2379    01-IECDI +IOSVPSID EQU   X'0B'               ..VPSS
                                    2380             +*        EQU   X'0C'               ..CRYPTO
                                    2381    01-IECDI +IOSASMID EQU   X'0E'               ..ASM
                                    2382    01-IECDI +IOSMDSID EQU   X'0F'               ..Message Display Service       @H1A
                                    2383    01-IECDI +IOSAUSID EQU   X'10'               ..Assign/Unassign Service       @H1A
                                    2384    01-IECDI +IOSDYPID EQU   X'11'               ..Dynamic Pathing
                                    2385    01-IECDI +IOSDAVV  EQU   X'12'               ..DAVV                          @D2A
                                    2386    01-IECDI +IOSDCSID EQU   X'13'               ..Device control service        @03A
                                    2387    01-IECDI +IOSAOMID EQU   X'14'               ..Asychronous Operation Manager @03A
                                    2388    01-IECDI +IOSSMSID EQU   X'15'               ..DFSMS                         @P5C
                                    2389    01-IECDI +IOSXCFID EQU   X'16'               ..XCF CTC I/O Driver            @L5A
                                    2390    01-IECDI +IOSCDRID EQU   X'17'               ..IOS use driver ID             @D5A
                                    2391    01-IECDI +IOSSLFID EQU   X'18'               ..IOSVSLFD driver ID            @LAC
                                    2392    01-IECDI +IOSPAVID EQU   X'19'               ..IOSVIOPA driver ID            @16A
                                    2393    01-IECDI +IOSV33ID EQU   X'80'               ..SVC33
                                    2394    01-IECDI +IOSCLRID EQU   X'81'               ..Clear Device Recovery
                                    2395    01-IECDI +IOSSCRID EQU   X'82'               ..Subchannel Recovery
                                    2396    01-IECDI +IOSV16ID EQU   X'83'               ..SVC16 PURGE
                                    2397    01-IECDI +IOSAPRID EQU   X'84'               ..Unconditional Reserve
                                    2398    01-IECDI +IOSMIHID EQU   X'85'               ..Missing Interrupt Handler
                                    2399    01-IECDI +IOSPRVID EQU   X'86'               ..I/O Prevention Handler
                                    2400    01-IECDI +IOSRSVID EQU   X'87'               ..Re-reserve service            @02A
                                    2401             +*---------------------------------------------------------------------*
0000005                             2403    01-IECDI +IOSFLD   DS    XL1                 Flag byte D                     @D1A
                                    2404    01-IECDIC+IOSNOINT EQU   X'80'               ..Set by a driver to request that
                                                    C+                                       the I/O request be issued
                                                    C+                                       to a device with an intercept
                                                    C+                                       condition.  The intercept
                                                    C+                                       condition is to be saved for
                                                     +                                       the next I/O request.       @D1A
                                    2405    01-IECDIC+IOSMNORQ EQU   X'40'               ..IOS is not to requeue this IOSB
                                                    C+                                     if Start Pending condition is
                                                     +                                     detected (MIH, etc).          @01C
                                    2406    01-IECDIC+IOSEPCIF EQU   X'20'               ..Early PCI exit call Flag.
                                                    C+                                     Set by the I/O driver to get
                                                    C+                                     called from the SLIH, instead of
                                                    C+                                     from post status for good
                                                     +                                     intermediate status.          @L4C
                                    2407    01-IECDIC+IOSCCWDS EQU   X'10'               ..Channel program resides in a data
                                                     +                                     space.  Set by the I/O driver @L4C
                                    2408    01-IECDI +IOSEPCIS EQU   X'08'               ..Early PCI exit Space switch flag.
                                    2409             +*                                    Set by the I/O driver to indicate
                                    2410             +*                                    that IOSVSLIH should CMSET to the
                                    2411             +*                                    driver's address space prior to
                                    2412             +*                                    invoking the PCI exit.        @L4C
                                    2413    01-IECDI +IOSLIOPF EQU   X'04'               ..Long I/O Post flag set by the I/O
                                    2414             +*                                    driver to indicate that the driver
1VSIO     (VSIO00) (09:49) (22MAR04) WIZARD: Interactive disk diagnostic: USER AREA                                         Page   29
0Loc    Object Code    Addr1 Addr2  Stmt Lv Lineno    Source Statement           (Hibal 5, Asmedit 3.3)  HLASM R4.0  2004/03/22 09.49
+___    ______ ____    _____ _____  ____ __ ______    ______ _________
0                                   2415             +*                                    should be posted back if the I/O
                                    2416             +*                                    request will take a long time to
                                    2417             +*                                    complete due to an MIH condition,
                                    2418             +*                                    manual intervention, etc..    @D4C
                                    2419    01-IECDI +IOSNOLL  EQU   X'02'               Set by the driver to indicate that
                                    2420             +*                                  post status must not get the local
                                    2421             +*                                  lock in order to use the local lock
                                    2422             +*                                  save area, as deadlock could occur.
                                    2423             +*                                  IOSPSLL must also be set on by the
                                    2424             +*                                  driver.                         @19C
                                    2425    01-IECDI +IOSBEXTF EQU   X'01'               ..IOSB extension valid          @D3C
0                                   2427             +*---------------------------------------------------------------------*
 000006                             2428    01-IECDIC+IOSASID  DS    H                   Address space identification of
                                                    C+                                   address space to be scheduled at
                                                     +                                   termination of I/O request.
                                    2429             +*---------------------------------------------------------------------*
 000008                             2430    01-IECDIC+IOSPGAD  DS    A                   I/O driver termination address.
                                                    C+                                   High order bit defines the
                                                    C+                                   addressing mode.
                                                    C+                                   For attention processing, the
                                                     +                                   attention address.
                                    2431             +*---------------------------------------------------------------------*
 00000C                             2432    01-IECDI +IOSPKEY  DS    XL1                 Protect key of IOSPGAD
                                    2433             +*        EQU   X'F0'               Protect key field
                                    2434    01-IECDI +IOSLCL   EQU   X'08'               ASID schedule at local level
                                    2435    01-IECDIC+IOSIDR   EQU   X'04'               Asynchronous ERP scheduling
                                                    C+                                   should be used for this I/O
                                                    C+                                   request (Indirect recording
                                                     +                                   for paging I/O requests).
                                    2436    01-IECDIC+IOSPGDPX EQU   X'02'               This request has a backed up
                                                     +                                   copy (duplexed page).
                                    2437    01-IECDIC+IOSCHCMP EQU   X'01'               Driver has a complete channel
                                                    C+                                   program, IOS must not build a
                                                     +                                   standard prefix.
0                                   2439             +*---------------------------------------------------------------------*
 00000D                             2440    01-IECDI +IOSCOD   DS    XL1                 I/O completion code field
                                    2441             +***********************************************************************
                                    2442             +*   Completion codes 41 - 5F are reserved for permanent error         *
                                    2443             +*   conditions. These codes will always be the last entry codes to    *
                                    2444             +*   the abnormal end exits.                                           *
                                    2445             +*---------------------------------------------------------------------*
                                    2446             +*   Completion codes 60 - 73 are reserved for IOS definition use.     *
                                    2447             +*   These codes indicate conditions that IOS has detected in          *
                                    2448             +*   processing the I/O request.                                       *
                                    2449             +*---------------------------------------------------------------------*
                                    2450             +*   Completion codes 74 - 7E denote abnormal conditions for           *
                                    2451             +*   which correction may be possible. These codes denote first        *
                                    2452             +*   entry to abnormal end exits.                                      *
                                    2453             +*---------------------------------------------------------------------*
                                    2454             +*   Completion codes 7F denotes normal I/O completion.  It does       *
                                    2455             +*   not indicate that the I/O request completed successfully.         *
                                    2456             +*---------------------------------------------------------------------*
                                    2457             +*   Completion code 49 applies only to Store and Modify Subchannel    *
                                    2458             +*   requests.                                                         *
1VSIO     (VSIO00) (09:49) (22MAR04) WIZARD: Interactive disk diagnostic: USER AREA                                         Page   30
0Loc    Object Code    Addr1 Addr2  Stmt Lv Lineno    Source Statement           (Hibal 5, Asmedit 3.3)  HLASM R4.0  2004/03/22 09.49
+___    ______ ____    _____ _____  ____ __ ______    ______ _________
0                                   2459             +***********************************************************************
                                    2460    01-IECDI +IOSERRC  EQU   X'41'               Permanent I/O error
                                    2461    01-IECDI +IOSEXTC  EQU   X'42'               DASD extent error
                                    2462    01-IECDIC+IOSDPXC  EQU   X'43'               Duplexed I/O request was not
                                                    C+                                   started because of the UCB level
                                                     +                                   or a not ready device.
                                    2463    01-IECDIC+IOSINTC  EQU   X'44'               Request was intercepted because
                                                    C+                                   an error occurred after the last
                                                    C+                                   time the device was used and the
                                                    C+                                   requestors error recovery
                                                    C+                                   procedures wants this intercept
                                                    C+                                   condition treated as a permanent
                                                     +                                   error.
                                    2464    01-IECDIC+IOSABNC  EQU   X'45'               I/O request abnormally terminated
                                                    C+                                   because of program check, machine
                                                     +                                   check, etc in IOS or an exit.
                                    2465    01-IECDI +IOSCD46  EQU   X'46'               Reserved
                                    2466    01-IECDIC+IOSEXTRM EQU   X'47'               I/O request not started - driver
                                                    C+                                   Start Subchannel exit (See IOSXSSXA
                                                    C+                                   field) requested termination prior
                                                     +                                   to the SSCH being issued.
                                    2467    01-IECDI +IOSPRGC  EQU   X'48'               I/O request purged.
                                    2468    01-IECDIC+IOSCNCLD EQU   X'49'               Store or Modify Subchannel request
                                                     +                                   has been cancelled.
                                    2469    01-IECDIC+IOSPVTIO EQU   X'4A'               I/O Prevention - either the I/O
                                                    C+                                   request has not been started
                                                    C+                                   or the I/O request
                                                     +                                   has been terminated.            @L1A
                                    2470    01-IECDI +IOSTAPEC EQU   X'4B'               Error in tape repositioning
                                    2471    01-IECDI +IOSIVEXP EQU   X'4C'               Invalid exposure number
                                    2472    01-IECDIC+IOSGDPCC EQU   X'4D'               CC=3 - GDP or NIP in control, or
                                                    C+                                          with IOSGDPLP set, no
                                                    C+                                          logically available paths
                                                     +                                          (UCBLPM).                @02C
                                    2473    01-IECDIC+IOSGDPRD EQU   X'4E'               GDP - Reserved device or in
                                                    C+                                     conjunction with IOSRELSE, device
                                                     +                                     cannot be released.
                                    2474    01-IECDI +IOSCD50  EQU   X'50'               Reserved
                                    2475    01-IECDIC+IOSMIHCA EQU   X'51'               The I/O request has been declared
                                                     +                                     in permanent error.
                                    2476    01-IECDIC+IOSMIHSP EQU   X'52'               The I/O request was found pending
                                                    C+                                     in the subchannel by IOS, and
                                                    C+                                     the driver requested that the
                                                     +                                     IOSB not be requeued(MIH,etc) @02C
                                    2477    01-IECDIC+IOSIOTCR EQU   X'53'               IOS cancelled the I/O request due
                                                     +                                     to an I/O timeout condition   @09A
                                    2478    01-IECDIC+IOSCAPAS EQU   X'54'               The I/O request could not be
                                                    C+                                   started.  The current address space
                                                    C+                                   did not match IOSASID and a
                                                    C+                                   Captured UCB address was used
                                                     +                                   in IOSUCB.                      @LCA
                                    2479    01-IECDIC+IOSGDPWE EQU   X'6D'               CC=3 on all paths with IOSCC3WE bit
                                                     +                                     set- return request to requestor.
                                    2480    01-IECDIC+IOSFTCHC EQU   X'71'               For Fetch driver- hardware
                                                     +                                     corrected data check.
                                    2481    01-IECDI +IOSMIHC  EQU   X'74'               Simulated error status.
1VSIO     (VSIO00) (09:49) (22MAR04) WIZARD: Interactive disk diagnostic: USER AREA                                         Page   31
0Loc    Object Code    Addr1 Addr2  Stmt Lv Lineno    Source Statement           (Hibal 5, Asmedit 3.3)  HLASM R4.0  2004/03/22 09.49
+___    ______ ____    _____ _____  ____ __ ______    ______ _________
0                                   2482    01-IECDIC+IOSXERPL EQU   X'7D'               I/O exit requested the ERP to log
                                                     +                                     this request                  @L6A
                                    2483    01-IECDIC+IOSFINTC EQU   X'7E'               Intercept condition before
                                                     +                                     entrance to error routine.
                                    2484    01-IECDI +IOSNRMC  EQU   X'7F'               Normal I/O completion.
0                                   2486             +***********************************************************************
                                    2487             +* IOSOPT and IOSOPT2 bit definitions - For Start Subchannel requests. *
                                    2488             +***********************************************************************
                                    2489             +*   See redefinition area for modify and store subchannel requests.   *
                                    2490             +***********************************************************************
 00000E                             2491    01-IECDI +IOSOPT   DS    XL1                 Options byte
 00000F                             2492    01-IECDI +IOSOPT2  DS    XL1                 Second option byte
                                    2493             +*-------IOSOPT--bit-definitions----------------------------------------
                                    2494    01-IECDI +IOSBYP   EQU   X'80'               Bypass IOS channel program prefixing
                                    2495    01-IECDI +IOSDEP   EQU   X'40'               Device end posting requested
                                    2496    01-IECDIC+IOSQISCE EQU   X'20'               This request initiated by a function
                                                    C+                                   which has set the quiesce level in
                                                    C+                                   the UCB. (This bit should only be
                                                    C+                                   set when using the STARTIO macro
                                                    C+                                   compatibilty interface. All others
                                                    C+                                   should place the Quiesce level in
                                                     +                                   the IOSLEVEL field.)
                                    2497    01-IECDIC+IOSPSLL  EQU   X'10'               If 0, Local lock needed for IOS
                                                    C+                                         Post status processing.
                                                     +                                   If 1, Local lock not needed.
                                    2498    01-IECDIC+IOSNERP  EQU   X'08'               If flag UCBLERP is off, ERPs are
                                                    C+                                   not to be used.  If UCBLERP is on,
                                                    C+                                   ERPs will unconditionally get
                                                    C+                                   control.  ERPs will only be allowed
                                                    C+                                   to perform recovery of non-error
                                                    C+                                   unit checks and any additional
                                                    C+                                   function as defined by intermediate
                                                    C+                                   ERP mask flags.  When this flag is
                                                    C+                                   on, ERPs may not perform any
                                                    C+                                   recovery for error cases except as
                                                     +                                   defined by the ERP mask flags.  @07C
                                    2499    01-IECDIC+IOSTSLL  EQU   X'04'               If 0, Local lock needed by the
                                                    C+                                         termination routine.
                                                    C+                                         (IOSPSLL bit must be off)
                                                    C+                                   If 1, Local lock not needed by the
                                                     +                                         termination routine
                                    2500    01-IECDIC+IOSAPR   EQU   X'02'               Alternate path retry active.
                                                     +                                   Must be set to zero by driver.
                                    2501    01-IECDIC+IOSRELSE EQU   X'01'               Request for stand-alone RELEASE
                                                     +                                   CCW to be issued.
0                                   2503             +*---------------------------------------------------------------------*
                                    2504             +* IOSOPT2 - This byte reflects the I/O driver conditions for          *
                                    2505             +*           initiating an I/O request to the subchannel. See          *
                                    2506             +*           architecture for the meaning of these conditions.         *
                                    2507             +*           This byte also reflects the interrupt status from the IRB.*
                                    2508             +*---------------------------------------------------------------------*
                                    2509    01-IECDI +IOSF     EQU   X'80'               If 0, Format 0 CCW channel program.
                                    2510             +*                                  If 1, Format 1 CCW channel program.
                                    2511    01-IECDI +IOSP     EQU   X'40'               If 0, the driver does not want
1VSIO     (VSIO00) (09:49) (22MAR04) WIZARD: Interactive disk diagnostic: USER AREA                                         Page   32
0Loc    Object Code    Addr1 Addr2  Stmt Lv Lineno    Source Statement           (Hibal 5, Asmedit 3.3)  HLASM R4.0  2004/03/22 09.49
+___    ______ ____    _____ _____  ____ __ ______    ______ _________
0                                   2512             +*                                        'Unlimited CCW  Prefetch'.
                                    2513             +*                                  If 1, the driver wants 'Unlimited
                                    2514             +*                                        CCW Prefetch' active with
                                    2515             +*                                        the channel program.
                                    2516    01-IECDI +IOSI     EQU   X'20'               If 0, The driver does not want
                                    2517             +*                                        'Initial Status Interruption'
                                    2518             +*                                        generated.
                                    2519             +*                                  If 1, The driver wants 'Initial
                                    2520             +*                                        Status Interruption'
                                    2521             +*                                        generated.
                                    2522    01-IECDI +IOSA     EQU   X'10'               If 1, Address limit check required.
                                    2523    01-IECDI +IOSSI    EQU   X'08'               If 1, Suppress Suspend Interrupt.
                                    2524    01-IECDI +IOSZ     EQU   X'04'               If 1, Zero condition code to
                                    2525             +*                                        Initial selection.
                                    2526    01-IECDIC+IOSE     EQU   X'02'               Extended control information stored
                                                    C+                                   with interrupt. (This bit is
                                                    C+                                   provided for information only,
                                                    C+                                   the stored data cannot be found
                                                     +                                   from the IOSB.)
                                    2527    01-IECDI +IOSN     EQU   X'01'               If 1, path not operational.
0000010                             2529    01-IECDI +IOSUCB   DS    A                   Unit Control Block (UCB) address,
                                    2530             +*                                   address to common segment.
                                    2531             +***********************************************************************
                                    2532             +*  IOSFCSW  field - Subchannel Status Word field.
                                    2533             +*----------------------------------------------------------------------
                                    2534             +*  Format 0 CCW requests - Start Subchannel deferred condition code   *
                                    2535             +*    is stored in IOSCC field and the 3 byte command address in       *
                                    2536             +*    IOSCSWCA (compatable with System/370).                           *
                                    2537             +***********************************************************************
 000014                             2538    01-IECDI +IOSFCSW  DS    0XL8                Eight byte Subchannel CSW
 000014                             2539    01-IECDI +IOSCCWAD DS    A                   Format 1 CCW address
 000018                00018 00014  2540    01-IECDI +         ORG   IOSCCWAD
 000014                             2541    01-IECDI +IOSCC    DS    XL1                 Start Subchannel deferred CC
                                    2542    01-IECDI +IOSCC3   EQU   X'30'                Deferred condition code 3
                                    2543    01-IECDI +IOSCC1   EQU   X'10'                Deferred condition code 1
                                    2544    01-IECDI +IOSCC0   EQU   X'00'                Deferred condition code 0
 000015                             2545    01-IECDI +IOSCSW   DS    XL7                 Low order 7 bytes of CSW
 00001C                0001C 00015  2546    01-IECDI +         ORG   IOSCSW
 000015                             2547    01-IECDI +IOSCSWCA DS    AL3                 Format 0 CCW address
 000018                             2548    01-IECDI +IOSTATUS DS    XL2                 CSW status bytes
 00001A                0001A 00018  2549    01-IECDI +         ORG   IOSTATUS
 000018                             2550    01-IECDI +IOSTSA   DS    XL1                 Device status byte of SCSW
 000019                00019 00018  2551    01-IECDI +         ORG   IOSTSA
 000018                             2552    01-IECDI +IOSDSTAT DS    XL1                 Device status
                                    2553    01-IECDI +IOSDSATN EQU   X'80'                ..Attention
                                    2554    01-IECDI +IOSDSSM  EQU   X'40'                ..Status Modifier
                                    2555    01-IECDI +IOSDSCUE EQU   X'20'                ..Control Unit End
                                    2556    01-IECDI +IOSDSBSY EQU   X'10'                ..Busy
                                    2557    01-IECDI +IOSDSCE  EQU   X'08'                ..Channel End
                                    2558    01-IECDI +IOSDSDE  EQU   X'04'                ..Device End
                                    2559    01-IECDI +IOSDSUC  EQU   X'02'                ..Unit Check
                                    2560    01-IECDI +IOSDSUEX EQU   X'01'                ..Unit Exception
 000019                             2561    01-IECDI +IOSTSB   DS    XL1                 Subchannel status byte
 00001A                0001A 00019  2562    01-IECDI +         ORG   IOSTSB
 000019                             2563    01-IECDI +IOSSSTAT DS    XL1                 Subchannel status
1VSIO     (VSIO00) (09:49) (22MAR04) WIZARD: Interactive disk diagnostic: USER AREA                                         Page   33
0Loc    Object Code    Addr1 Addr2  Stmt Lv Lineno    Source Statement           (Hibal 5, Asmedit 3.3)  HLASM R4.0  2004/03/22 09.49
+___    ______ ____    _____ _____  ____ __ ______    ______ _________
0                                   2564    01-IECDI +IOSSSPCI EQU   X'80'                ..Program-controlled interrupt
                                    2565    01-IECDI +IOSSSIL  EQU   X'40'                ..Incorrect Length
                                    2566    01-IECDI +IOSSSPGC EQU   X'20'                ..Program Check
                                    2567    01-IECDI +IOSSSPTC EQU   X'10'                ..Protection Check
                                    2568    01-IECDI +IOSSSCDC EQU   X'08'                ..Channel Data Check
                                    2569    01-IECDI +IOSSSCCC EQU   X'04'                ..Channel Control Check
                                    2570    01-IECDI +IOSSSICC EQU   X'02'                ..Interface Control Check
                                    2571    01-IECDI +IOSSSCC  EQU   X'01'                ..Chaining Check
 00001A                             2572    01-IECDI +IOSCSWRC DS    XL2                 Residual Count
 00001C                0001C 0001C  2573    01-IECDI +         ORG   IOSCSW+L'IOSCSW     '
0                                   2575             +*----------------------------------------------------------------------
 00001C                             2576    01-IECDI +IOSSRB   DS    A                   Back pointer to I/O requestors SRB
 000020                             2577    01-IECDI +IOSUSE   DS    A                   IOSB owner use field.
 000024                             2578    01-IECDIC+IOSIOPID DS    A                   The I/O prevention identifier
                                                    C+                                   (IOPID) that covers this
                                                     +                                   I/O request.                    @L1C
                                    2579             +*----------------------------------------------------------------------
 000028                             2580    01-IECDI +IOSAPMSK DS    0XL2                Compatibility label
 000028                             2581    01-IECDIC+IOSSCHC  DS    0XL2                Subchannel Control field which
                                                    C+                                   is presented in the subchannel
                                                     +                                   status word(SCSW) of IRB.
 000028                             2582    01-IECDI +IOSSCHC0 DS    XL1                 Subchannel Control - Byte 0
                                    2583             +*        EQU   X'80'               Reserved for architecture
                                    2584    01-IECDI +IOSFC    EQU   X'70'               Function Control field
                                    2585    01-IECDI +IOSFSSCH EQU   X'40'               - Start Subchannel
                                    2586    01-IECDI +IOSFHSCH EQU   X'20'               - Halt  Subchannel
                                    2587    01-IECDI +IOSFCSCH EQU   X'10'               - Clear Subchannel
                                    2588    01-IECDI +IOSAC    EQU   X'0F'               Activity Control
                                    2589    01-IECDI +IOSARSCH EQU   X'08'               - Resume Pending
                                    2590    01-IECDI +IOSASSCH EQU   X'04'               - Start Pending
                                    2591    01-IECDI +IOSAHSCH EQU   X'02'               - Halt Pending
                                    2592    01-IECDI +IOSACSCH EQU   X'01'               - Clear Pending
 000029                             2593    01-IECDI +IOSSCHC1 DS    XL1                 Subchannel Control - byte 1
                                    2594    01-IECDI +IOSAC2   EQU   X'E0'               Activity Control
                                    2595    01-IECDI +IOSASUBA EQU   X'80'               - Subchannel active
                                    2596    01-IECDI +IOSADEVA EQU   X'40'               - Device active
                                    2597    01-IECDI +IOSSSPND EQU   X'20'               - Subchannel Suspended
                                    2598    01-IECDI +IOSSC    EQU   X'1F'               Status Control
                                    2599    01-IECDI +IOSSALRT EQU   X'10'               - Alert Status
                                    2600    01-IECDI +IOSSINTR EQU   X'08'               - Intermediate status
                                    2601    01-IECDI +IOSSPRIM EQU   X'04'               - Primary Status
                                    2602    01-IECDI +IOSSSEC  EQU   X'02'               - Secondary Status
                                    2603    01-IECDIC+IOSSPNDG EQU   X'01'               - Status Pending.
                                                     +                                     If 0, Simulated status.
 00002A                             2604    01-IECDI +IOSSNS   DS    H                   Sense data - 1st 2 bytes
                                    2605    01-IECDIC+IOSSNSBD EQU   X'10FE'             Value supplied to indicate
                                                     +                                   unsuccessful sense
                                    2606             +***********************************************************************
                                    2607             +*  End of common IOSB section - start of processing dependent sections*
                                    2608             +*----------------------------------------------------------------------
                                    2609             +*  NML - Normal I/O request processing                                *
                                    2610             +*  WTO - attention processing                                         *
                                    2611             +*  PCI - Intermediate status processing                               *
                                    2612             +***********************************************************************
                                    2613    01-IECDI +IOSSECT  EQU   *
1VSIO     (VSIO00) (09:49) (22MAR04) WIZARD: Interactive disk diagnostic: USER AREA                                         Page   34
0Loc    Object Code    Addr1 Addr2  Stmt Lv Lineno    Source Statement           (Hibal 5, Asmedit 3.3)  HLASM R4.0  2004/03/22 09.49
+___    ______ ____    _____ _____  ____ __ ______    ______ _________
000002C                             2615    01-IECDIC+IOSIPIB  DS    A                   NML- IPIB address (IOS/Purge)
                                                    C+                                       Initially set to zero by driver
                                                    C+                                       and not to be reset by exits.
                                                    C+                                   PCI- Intermediate status SRB/IOSB
                                                     +                                        chain pointer.
0000030                             2617    01-IECDIC+IOSPCHN  DS    A                   PCI- Ptr to ending status IOSB for
                                                    C+                                       Intermediate status SRB/IOSBS.
                                                    C+                                   NML- Ptr to 1st intermediate status
                                                     +                                       SRB/IOSB for ending status IOSB.
 000034                00034 00030  2618    01-IECDI +         ORG   IOSPCHN
 000030                             2619    01-IECDIC+IOSSCHIB DS    A                   For Modify and Store Subchannel
                                                    C+                                   requests, IOSPCHN contains the
                                                    C+                                   address of the SCHIB data
                                                    C+                                   associated with the request
                                                     +                                   (Address provided by the caller).
0000034                             2621    01-IECDIC+IOSERP   DS    A                   ERP - Error work area address (EWA).
                                                    C+                                         Must initially be set to zero
                                                     +                                         by the driver.
                                    2622             +***********************************************************************
                                    2623             +*  Caller Exit addresses - High order bit defines addressing mode.    *
                                    2624             +*----------------------------------------------------------------------
 000038                             2625    01-IECDIC+IOSPCI   DS    A                   Intermediate status exit address
                                                     +                                   or zero
 00003C                             2626    01-IECDI +IOSNRM   DS    A                   Normal end exit address (required)
 000040                             2627    01-IECDI +IOSABN   DS    A                   Anormal end exit address(required)
 000044                             2628    01-IECDIC+IOSDIE   DS    A                   Disabled Interrupt Exit address
                                                     +                                   or zero
                                    2629             +***********************************************************************
                                    2630             +*  Real channel program virtual and real addresses.                   *
                                    2631             +*----------------------------------------------------------------------
 000048                             2632    01-IECDI +IOSRST   DS    A                   Real address
 00004C                             2633    01-IECDI +IOSVST   DS    A                   Virtual address
0                                   2635             +*----------------------------------------------------------------------
 000050                             2636    01-IECDI +IOSDSID  DS    A                   Data set identifier(DSID)- purge
 000054                             2637    01-IECDI +IOSLEVEL DS    XL1                 IOS serialization level
 000055                             2638    01-IECDIC+IOSGPMSK DS    XL1                 GDP- Guaranteed Device path mask
                                                    C+                                        with IOSGDP bit set.
                                                    C+                                   APR- Alternate path retry path
                                                     +                                        mask with IOSAPR bit set.
 000056                             2639    01-IECDIC+IOSDCTI  DS    XL2                 DCTI field from IRB- the I/O
                                                     +                                        request device connect time.
0000058                             2641    01-IECDI +IOSFMSK  DS    XL1                 Mode set/File mask field.
 000059                             2642    01-IECDIC+IOSCKEY  DS    XL1                 On STARTIO- Channel program
                                                    C+                                               protect key.
                                                     +                                   On interrupt- 1st byte of the IRB.
                                    2643    01-IECDI +IOSIRBKY EQU   X'F0'               . Protect key - bits 0-3
                                    2644    01-IECDI +IOSS     EQU   X'08'               . Request has Suspend capability
                                    2645    01-IECDI +IOSIRBL  EQU   X'04'               . ESW contains logout data
                                    2646    01-IECDI +IOSIRBCC EQU   X'03'               . SSCH Deferred condition code------
                                    2647    01-IECDI +IOSIRBC3 EQU   X'03'                  -Deferred condition code 3
                                    2648    01-IECDI +IOSIRBC1 EQU   X'01'                  -Deferred condition code 1
                                    2649    01-IECDI +IOSIRBC0 EQU   X'00'                  -Deferred condition code 0
1VSIO     (VSIO00) (09:49) (22MAR04) WIZARD: Interactive disk diagnostic: USER AREA                                         Page   35
0Loc    Object Code    Addr1 Addr2  Stmt Lv Lineno    Source Statement           (Hibal 5, Asmedit 3.3)  HLASM R4.0  2004/03/22 09.49
+___    ______ ____    _____ _____  ____ __ ______    ______ _________
0                                   2651             +*----------------------------------------------------------------------
 00005A                             2652    01-IECDI +IOSMDB   DS    XL1                 ERP immediate CCW op code
 00005B                             2653    01-IECDI +IOSMDM   DS    XL1                 ERP modifier mask
                                    2654             +*----------------------------------------------------------------------
 00005C                             2655    01-IECDI +IOSEEK   DS    CL8                 Static seek address
                                    2656             +*                                  NOTE: CTC section starts at
                                    2657             +*                                        IOSEEK + 4.
                                    2658             +*----------------------------------------------------------------------
 000064                             2659    01-IECDI +IOSEEKA  DS    CL8                 Dynamic seek address
 00006C                0006C 00064  2660    01-IECDI +         ORG   IOSEEKA
 000064                             2661    01-IECDI +IOSSKM   DS    XL1                 M
 000065                             2662    01-IECDI +IOSSKBB  DS    XL2                 BB
 000067                             2663    01-IECDI +IOSCCHH  DS    0XL4                CCHH
 000067                             2664    01-IECDI +IOSSKCC  DS    XL2                 CC
 000069                             2665    01-IECDI +IOSSKHH  DS    0XL2                HH
 000069                             2666    01-IECDI +IOSSKH1  DS    XL1                 H
 00006A                             2667    01-IECDI +IOSSKH2  DS    XL1                 H
 00006B                             2668    01-IECDI +IOSSKR   DS    XL1                 R
0                                   2670    01-IECDI +IOSEND   EQU   *                   End of IOSB w/o extension
-                                   2672             +***********************************************************************
                                    2673             +*  Channel to Channel (CTC) section                                   *
                                    2674             +*----------------------------------------------------------------------
 00006C                0006C 00060  2675    01-IECDI +         ORG   IOSEEKA-4           Start of CTC section
 000060                             2676    01-IECDI +IOSCTCDW DS    D                   Sense command byte CCW slot
 000068                00068 00065  2677    01-IECDI +         ORG   IOSCTCDW+5          Command byte slot in CCW
 000065                             2678    01-IECDIC+IOSCTCMD DS    XL1                 CTC command byte from sense
                                                     +                                   if format 0 CCW (IOSF=OFF)
 000066                00066 00068  2679    01-IECDI +         ORG   IOSCTCDW+L'IOSCTCDW '
 000068                             2680    01-IECDIC+IOSCTCOP DS    XL1                 CTC command byte from sense
                                                     +                                   if format 1 CCW (IOSF=ON)
0                                   2682             +***********************************************************************
                                    2683             +*  Attention section - IOS generated IOSB when IOSPROC = X'08'        *
                                    2684             +*---------------------------------------------------------------------*
 000069                00069 0002C  2685    01-IECDI +         ORG   IOSSECT             Start of attention section
 00002C                             2686    01-IECDI +IOSATTSN DS    XL40                Additional sense ( after IOSNS)
 000054                00054 0002C  2687    01-IECDI +         ORG   IOSATTSN            Start of attention section      @03A
 00002C                             2688    01-IECDI +IOSATSNS DS    XL30                Additional sense data           @03A
 00004A                             2689    01-IECDI +IOSATPMK DS    XL1                 Attention path mask - path mask of
                                    2690             +*                                  path on which attention interrupt
                                    2691             +*                                  was received                    @03A
 00004B                             2692    01-IECDI +IOSAFLGS DS    XL1                 Attention Flags                 @08A
                                    2693    01-IECDI +IOSAINTR EQU   X'80'               Indicates that attention routine is
                                    2694             +*                                  requesting intercept processing @08A
                                    2695    01-IECDI +IOSAINTE EQU   X'40'               Indicates an intercept has been
                                    2696             +*                                  generated for this attention
                                    2697             +*                                  interrupt                       @08A
                                    2698             +*        EQU   X'20'               Unused                          @08A
                                    2699             +*        EQU   X'10'               Unused                          @08A
                                    2700             +*        EQU   X'08'               Unused                          @08A
                                    2701             +*        EQU   X'04'               Unused                          @08A
                                    2702             +*        EQU   X'02'               Unused                          @08A
                                    2703             +*        EQU   X'01'               Unused                          @08A
1VSIO     (VSIO00) (09:49) (22MAR04) WIZARD: Interactive disk diagnostic: USER AREA                                         Page   36
0Loc    Object Code    Addr1 Addr2  Stmt Lv Lineno    Source Statement           (Hibal 5, Asmedit 3.3)  HLASM R4.0  2004/03/22 09.49
+___    ______ ____    _____ _____  ____ __ ______    ______ _________
000004C                             2704    01-IECDI +IOSAATI  DS    FL1                 Index to the attention table    @08A
 00004D                             2705    01-IECDI +         DS    XL7                 Reserved                        @08C
 000054                             2706    01-IECDI +IOSATTWA DS    0XL24               Attention routine work area     @P1C
 000054                             2707    01-IECDI +IOSXMSAV DS    XL12                CMSET savearea                  @0FC
 000060                             2708    01-IECDI +         DS    XL12                Reserved                        @0FC
0                                   2710             +***********************************************************************
                                    2711             +*  Intermediate status section- IOS generated IOSB when IOSPROC= X'04'*
                                    2712             +*---------------------------------------------------------------------*
 00006C                0006C 0002C  2713    01-IECDI +         ORG   IOSSECT             Start of Intermediate status section
 00002C                             2714    01-IECDIC+         DS    A                   IOSIPIB field- must not be
                                                     +                                   changed
 000030                             2715    01-IECDIC+         DS    A                   IOSPCHN field- must not be
                                                     +                                   changed
 000034                             2716    01-IECDIC+IOSPCIRS DS    XL32                Intermediate status reserved
                                                     +                                   area
 000054                             2717    01-IECDI +IOSPCIWA DS    XL(IOSEND-*)        Intermediate status work area
-                                   2719             +***********************************************************************
                                    2720             +*  IOSB mapping fields for modify and store subchannel requests.      *
                                    2721             +*---------------------------------------------------------------------*
                                    2722             +*  Fields IOSFLB, IOSOPT and IOSOPT2 are mapped, as follows.          *
                                    2723             +***********************************************************************
                                    2724             +*IOSFLB field bit definitions -- Modify Subchannel requests only      *
                                    2725             +*---------------------------------------------------------------------*
                                    2726    01-IECDIC+IOSMLPMO EQU   X'80'               If 1, old LPM is to be
                                                    C+                                        'ORED' with new LPM.
                                                    C+                                   If 0, old LPM is to BE
                                                    C+                                        'ANDED' with new LPM.
                                                    C+                                         This bit valid only if
                                                     +                                         IOSMLPM is on.
                                    2727    01-IECDIC+IOSMPOMO EQU   X'40'               If 1, Old PSW is to be
                                                    C+                                        'ORED' with new POM.
                                                    C+                                   If 0, Old POM is to be
                                                    C+                                        'ANDED' with new POM.
                                                    C+                                         This bit valid only if
                                                     +                                         IOSMPOM is on.
                                    2728    01-IECDIC+IOSMMMO  EQU   X'20'               If 1, old measurement mode is
                                                    C+                                         to be 'ORED'with new
                                                    C+                                         new measurement mode.
                                                    C+                                   If 0, old measurement mode is to
                                                    C+                                         be 'ANDED'  with new
                                                    C+                                         measurement mode.
                                                    C+                                         This bit valid only if
                                                     +                                         IOSMMM is on.
                                    2729    01-IECDIC+IOSASIS  EQU   X'10'               If 1, IOSMLPMO and IOSMPOMO are
                                                    C+                                         ignored, and the old LPM
                                                    C+                                         and/or POM are to be
                                                    C+                                         replaced by the new
                                                     +                                         LPM/POM.
                                    2730             +***********************************************************************
                                    2731             +*   IOSOPT and IOSOPT2 bit definitions                                *
                                    2732             +*---------------------------------------------------------------------*
                                    2733             +*   For Modify and Store Subchannel requests.                         *
                                    2734             +***********************************************************************
1VSIO     (VSIO00) (09:49) (22MAR04) WIZARD: Interactive disk diagnostic: USER AREA                                         Page   37
0Loc    Object Code    Addr1 Addr2  Stmt Lv Lineno    Source Statement           (Hibal 5, Asmedit 3.3)  HLASM R4.0  2004/03/22 09.49
+___    ______ ____    _____ _____  ____ __ ______    ______ _________
0                                   2735             +*--------IOSOPT--------------------------------------------------------
                                    2736    01-IECDIC+IOSSYN   EQU   X'80'               If 1, indicates STORE or MODIFY
                                                    C+                                         subchannel request is to be
                                                    C+                                         done synchronously.
                                                    C+                                   If 0, indicates caller can
                                                    C+                                         handle asynchronous issuing
                                                     +                                         of STORE or MODIFY Subchannel.
                                    2737    01-IECDIC+IOSNOPTH EQU   X'40'               If 1, indicates for path message
                                                    C+                                         request, a conditional
                                                     +                                         no path condition.
                                    2738             +*        EQU   X'3F'               Reserved- initialized to zero
                                    2739             +*--------IOSOPT2-------------------------------------------------------
                                    2740    01-IECDIC+IOSMISC  EQU   X'80'               If 1, interrupt subclass is to
                                                     +                                         be modified by MSCH
                                    2741    01-IECDIC+IOSME    EQU   X'40'               If 1, enabled indicator is to
                                                    C+                                         be modified by MSCH (IOS use
                                                     +                                         only)
                                    2742    01-IECDIC+IOSMLM   EQU   X'20'               If 1, limit mode is to be modified
                                                     +                                         by MSCH
                                    2743    01-IECDIC+IOSMMM   EQU   X'10'               If 1, measurement mode is to be
                                                     +                                         modified by MSCH
                                    2744    01-IECDIC+IOSMLPM  EQU   X'08'               If 1, logical path mask is to be
                                                     +                                         modified by MSCH
                                    2745    01-IECDIC+IOSMMBI  EQU   X'04'               If 1, measurement block index is
                                                     +                                         to be modified by MSCH
                                    2746    01-IECDIC+IOSMPOM  EQU   X'02'               If 1, path operational mask is to
                                                     +                                         be modified by MSCH
                                    2747    01-IECDIC+IOSMD    EQU   X'01'               If 1, dynamic pathing indicator
                                                     +                                         is to be modified by MSCH
                                    2748             +*/********************************************************************/
                                    2749             +*/* Notes on Bit Combinations                                        */
                                    2750             +*/*                                                                  */
                                    2751             +*/* IOSPSLL - 0 = local lock needed for IOS post status processing,  */
                                    2752             +*/*               the local lock is obtained and the local lock save */
                                    2753             +*/*               area is passed via register 13 to various exits.   */
                                    2754             +*/*           1 = local lock is not needed                           */
                                    2755             +*/* IOSIDR  - 1 = paging I/O therefore, ERPs must use indirect       */
                                    2756             +*/*               recording for requests, ie, the ERP sets IOSPROC to*/
                                    2757             +*/*               IOSWTO to have ERP messages scheduled.  Also,      */
                                    2758             +*/*               if ASM (IOSNOLL = 0), the address of a save area   */
                                    2759             +*/*               is passed via the ASM control block IORB.          */
                                    2760             +*/* IOSNOLL - 0 = the local lock may be obtained.                    */
                                    2761             +*/*           1 = the I/O driver has indicated that the local lock   */
                                    2762             +*/*               cannot be obtained.  The local lock may already be */
                                    2763             +*/*               owned in which case dead lock could occur.  Also,  */
                                    2764             +*/*               the local lock may not be owned, but the I/O driver*/
                                    2765             +*/*               has reasons for not wanting IECVPST to obtain it.  */
                                    2766             +*/*               Generally used by paging subsystems other than ASM */
                                    2767             +*/*               (for example, Media Manager) that are called by    */
                                    2768             +*/*               applications that could own the local lock but     */
                                    2769             +*/*               cannot pass a save area in an IORB.  IOSPSLL must  */
                                    2770             +*/*               also be on.  Post status gets the CPU lock, calls  */
                                    2771             +*/*               the IOS storage manager for a block of storage,    */
                                    2772             +*/*               frees the CPU lock and passes the IOS large block  */
                                    2773             +*/*               as a save area.  Performance should be considered  */
                                    2774             +*/*               when using this method.                        @19C*/
1VSIO     (VSIO00) (09:49) (22MAR04) WIZARD: Interactive disk diagnostic: USER AREA                                         Page   38
0Loc    Object Code    Addr1 Addr2  Stmt Lv Lineno    Source Statement           (Hibal 5, Asmedit 3.3)  HLASM R4.0  2004/03/22 09.49
+___    ______ ____    _____ _____  ____ __ ______    ______ _________
0                                   2775             +*/*                                                                  */
                                    2776             +*/* Post Status valid bit combinations for requesting local lock     */
                                    2777             +*/* and/or save areas.                                               */
                                    2778             +*/*                                                                  */
                                    2779             +*/* |---------------------------------------------------------------|*/
                                    2780             +*/* |IOSPSLL | IOSIDR | IOSNOLL | Description                       |*/
                                    2781             +*/* |---------------------------------------------------------------|*/
                                    2782             +*/* |   0    |    0   |    0    | I/O driver requires the local lock|*/
                                    2783             +*/* |        |        |         | or a save area in which case, the |*/
                                    2784             +*/* |        |        |         | local lock is obtained and the    |*/
                                    2785             +*/* |        |        |         | save area passed is the local lock|*/
                                    2786             +*/* |        |        |         | save area.                        |*/
                                    2787             +*/* |---------------------------------------------------------------|*/
                                    2788             +*/* |   1    |    0   |    0    | I/O driver does not require the   |*/
                                    2789             +*/* |        |        |         | local lock or a save area.        |*/
                                    2790             +*/* |---------------------------------------------------------------|*/
                                    2791             +*/* |   1    |    1   |    0    | I/O driver must use indirect      |*/
                                    2792             +*/* |        |        |         | recording.  A save area is passed |*/
                                    2793             +*/* |        |        |         | via the IORB.  This combination is|*/
                                    2794             +*/* |        |        |         | ASM only.  ERPs are scheduled.    |*/
                                    2795             +*/* |---------------------------------------------------------------|*/
                                    2796             +*/* |   1    | 0 or 1 |    1    | Post status must not obtain the   |*/
                                    2797             +*/* |        |        |         | local lock.  Driver exits are     |*/
                                    2798             +*/* |        |        |         | passed a save area obtained from  |*/
                                    2799             +*/* |        |        |         | the IOS storage manager.          |*/
                                    2800             +*/* |---------------------------------------------------------------|*/
                                    2801             +*/*                                                                  */
                                    2802             +*/* All other combinations are invalid and will produce unpredictable*/
                                    2803             +*/* results.                                                         */
                                    2804             +*/*                                                              @19C*/
                                    2805             +*/********************************************************************/
                                    2806     435.     IOSBSIZE EQU   IOSEND-IOSB             Define IOSB size
1VSIO     (VSIO00) (09:49) (22MAR04) WIZARD: Interactive disk diagnostic: SYSTEM BLOCKS                                     Page   39
0D-Loc  Object Code    Addr1 Addr2  Stmt Lv Lineno    Source Statement           (Hibal 5, Asmedit 3.3)  HLASM R4.0  2004/03/22 09.49
+_____  ______ ____    _____ _____  ____ __ ______    ______ _________
0                                   2809     437.     ********************************************************************
                                    2810     438.     ********************************************************************
                                    2811     439.     *                                                                  *
                                    2812     440.     *  Macros used in this assembly                                    *
                                    2813     441.     *                                                                  *
                                    2814     442.     ********************************************************************
                                    2815     443.     *                                                                  *
                                    2816     444.     *  IHASRB     IECDIOSB   IECDERWA   IHARB      IHACDE              *
                                    2817     445.     *  IHAXTLST   IECSDSL1   IHAPSA     IKJTCB     IHAASCB             *
                                    2818     446.     *  IHAWSAVT   DCBD       IEFUCBOB   IHADVCT    CVT                 *
                                    2819     447.     *  IHALPDE    IECDIOCM   IHASDWA                                   *
                                    2820     448.     *                                                                  *
                                    2821     449.     ********************************************************************
                                    2822     450.     ********************************************************************
-
                                    2826     454.              Print Nogen               Supporess MACRO expansion
                                    2828     455.              IHAORB ,                  Operation Request Block
                                    2999     456.              IECDERWA ,
                                    3580     457.              IHARB ,
                                    4292     458.              IHACDE ,
                                    4375     459.              IHAXTLST ,
 000000                00000 0031C  4385     460.     DSCBS    DSECT ,
                                    4386     461.              IECSDSL1 (1,2,3,4,5,6)
 DROP   PSA,R0                      4842     462.              IHAPSA ,
                                    6159     463.              IHAPVT ,
                                    6301     464.              IKJTCB ,
                                    7214     465.              IHASDWA ,
                                    9202     466.              IHAASCB ,
                                    9933     467.              IHAWSAVT  CLASS=GLOBAL
                                   10096     468.              DCBD  DSORG=PS
                                   10928     469.              IEFUCBOB ,
 000000 D1C5E2E3                   12583     470.              IEFJESCT ,
                                   13095     471.              IHADVCT ,
                                   13247     472.              CVT   DSECT=YES
                                   14577     473.              IHALPDE ,
                                   14729     474.              IECDIOCM ,
                                   15193     475.              IEFZB4D0 ,
                                   15590     476.              IEFZB4D2 ,
                                   16033     477.              Print Gen                 Enable MACRO expansions
1VSIO     (VSIO00) (09:49) (22MAR04) IHAPSAE  - PSA Extension (ESAME)                                                       Page   40
0D-Loc  Object Code    Addr1 Addr2  Stmt Lv Lineno    Source Statement           (Hibal 5, Asmedit 3.3)  HLASM R4.0  2004/03/22 09.49
+_____  ______ ____    _____ _____  ____ __ ______    ______ _________
0                                  16036     477.02   ¿þþþþþþþþþþþþþþþþþþþþþþþþþþþþþþþþþþþþþþþþþþþþþþþþþþþþþþþþþþþþþþþþþþþþþÜ
                                   16037     477.03   Ÿ                                                                     Ÿ
                                   16038     477.04   Ÿ  Define CSA memory layout for SRB/IOSB pair                         Ÿ
                                   16039     477.05   Ÿ                                                                     Ÿ
                                   16040     477.06   Ÿ        Leave a time stamp laying around                             Ÿ
                                   16041     477.07   Ÿ                                                                     Ÿ
                                                      ¾þþþþþþþþþþþþþþþþþþþþþþþþþþþþþþþþþþþþþþþþþþþþþþþþþþþþþþþþþþþþþþþþþþþþþ»
-000000                00000 000A8 16043     477.09   SRBIOSB  RECORD BEGIN
 000000 E5E2C9D6                   16051  1  477.1    SIOSID     DC    C'VSIO'             Identifier
 000004 1999001C                   16052  1  477.11   SIODAT     DC    PL4'1999001'        Date
 000008 000000000000000C           16053  1  477.12   SIOTIM     DC    PL8'0'              Time
 000010                            16054  1  477.13              DC    0D'0'               Nice readability
 000010 0000000000000000           16055  1  477.96   SRBAREA    DC    XL(SRBSIZE)'00'     Room for the SRB
 00003C 0000000000000000           16056  1  477.98   IOSBAREA   DC    XL(IOSEND-IOSB)'00' Room for the IOSB
 0000A8                000A8 000A8 16057     477.99            END   ,
1VSIO     (VSIO00) (09:49) (22MAR04) WIZARD: Interactive disk diagnostic: INITIALIZATION                                    Page   41
0D-Loc  Object Code    Addr1 Addr2  Stmt Lv Lineno    Source Statement           (Hibal 5, Asmedit 3.3)  HLASM R4.0  2004/03/22 09.49
+_____  ______ ____    _____ _____  ____ __ ______    ______ _________
0                                  16067     479.     ¿þþþþþþþþþþþþþþþþþþþþþþþþþþþþþþþþþþþþþþþþþþþþþþþþþþþþþþþþþþþþþþþþþþþþþÜ
                                   16068     480.     Ÿ                                                                     Ÿ
                                   16069     481.     Ÿ  VSIO - Main entry point for all VSIO functions.                    Ÿ
                                   16070     482.     Ÿ                                                                     Ÿ
                                   16071     483.     Ÿ        On initial entry the dynamic work area storage is obtained   Ÿ
                                   16072     484.     Ÿ        and is expected to be returned with each subsequence call.   Ÿ
                                   16073     485.     Ÿ        This address is to be treated as an undefined "token" which  Ÿ
                                   16074     486.     Ÿ        the calling routines do not inspect OR MODIFY.               Ÿ
                                   16075     487.     Ÿ                                                                     Ÿ
                                   16076     488.     Ÿ        Entry conditions:                                            Ÿ
                                   16077     489.     Ÿ               R0 -  ** N/A **                                       Ÿ
                                   16078     490.     Ÿ               R1 -  Address of VSIO parameter block                 Ÿ
                                   16079     491.     Ÿ              R13 -  Address of a save area or stack                 Ÿ
                                   16080     492.     Ÿ              R14 -  Return address                                  Ÿ
                                   16081     493.     Ÿ              R15 -  ** N/A **                                       Ÿ
                                   16082     494.     Ÿ                                                                     Ÿ
                                   16083     495.     Ÿ        Return codes:                                                Ÿ
                                   16084     496.     Ÿ              R15 -  0 Function completed                            Ÿ
                                   16085     497.     Ÿ                     4 Warning condition has arisen                  Ÿ
                                   16086     498.     Ÿ                     8                                               Ÿ
                                   16087     499.     Ÿ                    12                                               Ÿ
                                   16088     500.     Ÿ                    16                                               Ÿ
                                   16089     501.     Ÿ                    20 Invalid calling sequence                      Ÿ
                                   16090     502.     Ÿ                                                                     Ÿ
                                                      ¾þþþþþþþþþþþþþþþþþþþþþþþþþþþþþþþþþþþþþþþþþþþþþþþþþþþþþþþþþþþþþþþþþþþþþ»
0                                  16094     506.              ENTRY VSIO_GO             Define entry point
 000018                00000 00FD0 16095     507.     VSIO     CSECT ,                   Resume control section
 000018                            16097     508.     VSIO_GO  LABEL ,                   Entry point for vsio routines
 000018 90EC D00C            0000C 16099     509.              STM   R14,R12,@R13+12     Save caller's entry registers
 00001C 41D0 D000            00000 16100     510.              LA    R13,@R13            Cleanup any high-order bits
 000020 0DF0                       16101     511.              BASR  R15,0               Generate temporary addressability
 USING  *,R15                      16102     512.              USING *,R15               Declare temporary addressability
 000022 5800 F156            00178 16112     513.              L     R0,=A(X'80000000')  Acquire an AMODE 31 bit
 000026 4120 F00C            0002E 16113     514.              LA    R2,*+8              Prepare to switch into AMODE 31
 00002A 1620                       16114     515.              OR    R2,R0               Turn on AMODE 31 bit
 00002C 0B02                       16115     516.              BSM   0,R2                Enter 31 bit addressing mode
 00002E 58B0 F15A            0017C 16116     517.              L     BRR,=A(VSIO)        Load address of csect start
 000032 1891                       16117     518.              LR    VSIOR,R1            Copy address of vsio parameter
 DROP   *,R15                      16118     519.              DROP  R15                 Release temporary addressability
0USING  VSIOPRM,R9                 16126     521.              USING VSIOPRM,VSIOR       Addressability to initial parameter
 USING  VSIO,R11                   16135     522.              USING VSIO,BRR            Common routine addressability
 USING  UAREA,R10                  16144     523.              USING UAREA,UAR           Addressability to work area
1VSIO     (VSIO00) (09:49) (22MAR04) WIZARD: Interactive disk diagnostic: INITIALIZATION                                    Page   42
0Current Usings:  (VSIOPRM,R9) (UAREA,R10) (VSIO,R11)
0Loc    Object Code    Addr1 Addr2  Stmt Lv Lineno    Source Statement           (Hibal 5, Asmedit 3.3)  HLASM R4.0  2004/03/22 09.49
+___    ______ ____    _____ _____  ____ __ ______    ______ _________
0                                  16154     525.     ¿þþþþþþþþþþþþþþþþþþþþþþþþþþþþþþþþþþþþþþþþþþþþþþþþþþþþþþþþþþþþþþþþþþþþþÜ
                                   16155     526.     Ÿ                                                                     Ÿ
                                   16156     527.     Ÿ  Determine entry conditions.                                        Ÿ
                                   16157     528.     Ÿ                                                                     Ÿ
                                   16158     529.     Ÿ        Allocate the global work area on the initial call.           Ÿ
                                   16159     529.1    Ÿ              1) The global work area resides below the 16-Meg line  Ÿ
                                   16160     529.2    Ÿ              2) The global work area is limited to 4K in length     Ÿ
                                   16161     530.     Ÿ                                                                     Ÿ
                                                      ¾þþþþþþþþþþþþþþþþþþþþþþþþþþþþþþþþþþþþþþþþþþþþþþþþþþþþþþþþþþþþþþþþþþþþþ»
-000034 41F0 0014            00014 16163     532.              LA    R15,RC_INVP         Assume an invalid parameter list
 000038 D503 B180 9000_00180 00000 16164     533.              IF    (VSIOID,NE,C'VSIO'),RETURN    Return on bad parameter
 000042 58A0 9004/12AA       00004 16184     534.              LT    UAR,VSIOUPTR        Load address of dynamic work area
 000048 4780 B054/59A0_      00054 16188     535.              IF    (Z,OR,(UAR,EQ,-1)),BEGIN      None exists yet, make one
 000054 5800 B188            00188 16214  1  536.                L     R0,=A(UWRKSZ)           Set getmain length
                                   16215  1  537.   C            GETMAIN RC,LV=(0),BNDRY=PAGE, Request working storage
 000058 47F0 B060/00/0_      00060        1  538.                      LOC=BELOW               Force below the line for now
 000068 12FF/4780 B076             16227  1  539.                IF    (R15,NZ),BEGIN          Unable to acquire memory
 00006E 41F0 0010            00010 16241  2  540.                  LA    R15,RC_MEM              Set insuffient memory
 000072 47F0 B162            00162 16242  2  541.                  B     RETURN                  Terminate processing
 000076                            16243  1  542.                END   ,
 000076 18A1                       16247  1  543.                LR    UAR,R1              Setup for program addr.
 000078 50A0 9004            00004 16248  1  544.                ST    UAR,VSIOUPTR        Save VSIO "token" address
 00007C 1801                       16249  1  545.                LR    R0,R1               Prepare to clear area
 00007E 5810 B188            00188 16250  1  546.                L     R1,=A(UWRKSZ)         To zeroes
 000082 1BFF                       16251  1  547.                CLEAR R15                     Set from length and pad
 000084 0E0E                       16255  1  548.                MVCL  R0,R14                    Zero work area
0000086 D207 A000 B170 00000 00170 16257  1  550.                MVC   UARID,=CL8'VSIOUAR' Set work area identifier
 00008C 50D0 A010            00010 16258  1  551.                ST    R13,VSSAVE          Save passed save area/stck
 000090 5800 B18C            0018C 16259  1  552.                L     R0,=A(STCKSZ)       Length of requested save stack
                                   16260  1  553.   C            GETMAIN RC,LV=(0),BNDRY=PAGE, Request memory for stack
 000094 47F0 B09C/00/0_      0009C        1  553.1                     LOC=ANY
 0000A4 5010 A014            00014 16272  1  554.                ST    R1,STCKADDR             Save address of save stack
 0000A8 18D1                       16273  1  555.                LR    SPR,R1                  Set address of save stack
 0000AA 1801                       16274  1  556.                LR    R0,R1                   Copy for stack clear
 0000AC 5810 B18C            0018C 16275  1  557.                L     R1,=A(STCKSZ)           Set length of stack
 0000B0 1BFF                       16276  1  558.                CLEAR R15                     Zero from length
 0000B2 0E0E                       16280  1  559.                MVCL  R0,R14                  Clear stack to zero
1VSIO     (VSIO00) (09:49) (22MAR04) WIZARD: Interactive disk diagnostic: INITIALIZATION                                    Page   43
0Current Usings:  (VSIOPRM,R9) (UAREA,R10) (VSIO,R11)
0Loc    Object Code    Addr1 Addr2  Stmt Lv Lineno    Source Statement           (Hibal 5, Asmedit 3.3)  HLASM R4.0  2004/03/22 09.49
+___    ______ ____    _____ _____  ____ __ ______    ______ _________
0                                  16282  1  559.2    ¿þþþþþþþþþþþþþþþþþþþþþþþþþþþþþþþþþþþþþþþþþþþþþþþþþþþþþþþþþþþþþþþþþþþþþÜ
                                   16283  1  560.     Ÿ                                                                     Ÿ
                                   16284  1  561.     Ÿ        Get system addresses and save for later                      Ÿ
                                   16285  1  562.     Ÿ             1.  ASCB address                                        Ÿ
                                   16286  1  563.     Ÿ             2.  TCB  address                                        Ÿ
                                   16287  1  564.     Ÿ             3.  Program protection key                              Ÿ
                                   16288  1  565.     Ÿ                                                                     Ÿ
                                          1           ¾þþþþþþþþþþþþþþþþþþþþþþþþþþþþþþþþþþþþþþþþþþþþþþþþþþþþþþþþþþþþþþþþþþþþþ»
0USING  PSA,R0                     16290  1  567.                USING PSA,R0              Addressabilty to PSA
 0000B4 58F0 0224            00224 16299  1  568.                L     R15,PSAAOLD         Get our ASCB block
 0000B8 50F0 A00C            0000C 16300  1  569.                ST    R15,ASCBADR         Save ASCB address
 DROP   PSA,R0                     16301  1  570.                DROP  R0                  Release Prefixed Storage Area
00000BC 5810 0010            00010 16310  1  572.                L     R1,CVTPTR           Set CVT address
 0000C0 5820 1000            00000 16311  1  573.                L     R2,CVTTCBP-CVT(,R1) Address of TCB words
 0000C4 5820 2004            00004 16312  1  574.                L     R2,@R2+4            Get our TCB address
 USING  TCB,R2                     16313  1  575.                WITH  (TCB,R2),BEGIN      Addressability to TCB
 0000C8 5020 A008            00008 16327  2  576.                  ST    R2,TCBADR           Save TCB address
 0000CC D200 A065 201C 00065 0003C 16328  2  577.                  MVC   PSWKEY,TCBPKF       Save PSW key
 DROP   TCB,R2                     16329  1  578.                END   ,
0                                  16338  1  580.                ¿þþþþþþþþþþþþþþþþþþþþþþþþþþþþþþþþþþþþþþþþþþþþþþþþþþþþþþþþþþÜ
                                   16339  1  581.                Ÿ  Provide Extended STAE recovery routine                  Ÿ
                                   16340  1  582.                Ÿ  Quiesce outstanding I/O, do not pass ESTAE to attached  Ÿ
                                   16341  1  583.                Ÿ  tasks, overlay any existing ESTAE routine.              Ÿ
                                   16342  1  584.                ¾þþþþþþþþþþþþþþþþþþþþþþþþþþþþþþþþþþþþþþþþþþþþþþþþþþþþþþþþþþ»
00000D2 5820 B190            00190 16344  1  586.                L     R2,=A(ESTROUT)      Set ESTAE exit routine addr
                                   16345  1  587.   C            ESTAE (R2),CT,PARAM=(UAR),XCTL=NO,PURGE=QUIESCE,
 0000D6 4110 A2A4/5021_      002A4        1  588.                      ASYNCH=YES,TERM=YES,MF=(E,ESTAELST)
 000106 12FF/4780 B114             16362  1  589.                IF    (R15,NZ),BEGIN      ESTAE has failed, abort
 00010C 9218 A01F      0001F       16376  2  590.                  MVI   RETCODE+3,RC_STAE   Unable to establish ESTAE
 000110 47F0 B158            00158 16377  2  591.                  B     RETSETRC            Terminate processing
 000114                            16378  1  592.                END   ,
 000114 B118/47F0 B132 00114 00052 16382     593.              END   ELSE,BEGIN
 000118 D507 B170 A000_00170 00000 16397  1  593.1               IF    (UARID,NE,=CL8'VSIOUAR'),BEGIN
 000122 41F0 0014            00014 16414  2  593.2                 LA    R15,20              Set invalid calling sequence
 000126 47F0 B162            00162 16415  2  593.3                 B     RETURN              And terminate this call
 00012A                            16416  1  593.4               END   ,
 00012A 50D0 A010            00010 16420  1  594.                ST    SPR,VSSAVE          Save calling save area
 00012E 58D0 A014            00014 16421  1  595.                L     SPR,STCKADDR        Reset to our save stack
 000132                            16422     596.              END   ,
1VSIO     (VSIO00) (09:49) (22MAR04) WIZARD: Interactive disk diagnostic: INITIALIZATION                                    Page   44
0Current Usings:  (VSIOPRM,R9) (UAREA,R10) (VSIO,R11)
0Loc    Object Code    Addr1 Addr2  Stmt Lv Lineno    Source Statement           (Hibal 5, Asmedit 3.3)  HLASM R4.0  2004/03/22 09.49
+___    ______ ____    _____ _____  ____ __ ______    ______ _________
0                                  16427     598.     ¿þþþþþþþþþþþþþþþþþþþþþþþþþþþþþþþþþþþþþþþþþþþþþþþþþþþþþþþþþþþþþþþþþþþþþÜ
                                   16428     599.     Ÿ                                                                     Ÿ
                                   16429     600.     Ÿ  VSIO environment has been established, perform requested           Ÿ
                                   16430     601.     Ÿ  I/O operation on behalf of our caller.                             Ÿ
                                   16431     602.     Ÿ                                                                     Ÿ
                                                      ¾þþþþþþþþþþþþþþþþþþþþþþþþþþþþþþþþþþþþþþþþþþþþþþþþþþþþþþþþþþþþþþþþþþþþþ»
-000132 D703 A01C A01C 0001C 0001C 16433     604.              CLEAR RETCODE             Clear VSIO return code
 000138 58E0 9008            00008 16440     604.1             L     RAR,VSIOFUNC        Load VSIO function vector code
 00013C 58EE B148            00148 16441     604.2             L     RAR,VSIO_VCT(RAR)   Load appropriate routine
 000140 0DEE                       16442     604.3             BASR  RAR,RAR             Off to wonderland Alice
 000142 47F0 B158            00158 16443     608.              B     RETSETRC            Return setting return code
                                   16444     608.01            ¿þþþþþþþþþþþþþþþþþþþþþþþþþþþþþþþþþþþþþþþþþþþþþþþþþþÜ
                                   16445     608.02            Ÿ  Branch vector table for VSIO function routines  Ÿ
                                   16446     608.03            ¾þþþþþþþþþþþþþþþþþþþþþþþþþþþþþþþþþþþþþþþþþþþþþþþþþþ»
 000146 0000
 000148                            16447     608.04   VSIO_VCT DC    0A(0)               Branch vector table
 000148 00000910                   16448     608.05            DC    A(NOPE)         +00 Not yet defined
 00014C 000008A4                   16449     608.06            DC    A(READ_DVC)     +04 Read device characteristics
 000150 00000910                   16450     608.97            DC    A(NOPE)         +08 Not yet defined
 000154 00000910                   16451     608.98            DC    A(NOPE)         +12 Not yet defined
1VSIO     (VSIO00) (09:49) (22MAR04) WIZARD: Interactive disk diagnostic: INITIALIZATION                                    Page   45
0Current Usings:  (VSIOPRM,R9) (UAREA,R10) (VSIO,R11)
0Loc    Object Code    Addr1 Addr2  Stmt Lv Lineno    Source Statement           (Hibal 5, Asmedit 3.3)  HLASM R4.0  2004/03/22 09.49
+___    ______ ____    _____ _____  ____ __ ______    ______ _________
0                                  16453     610.     ¿þþþþþþþþþþþþþþþþþþþþþþþþþþþþþþþþþþþþþþþþþþþþþþþþþþþþþþþþþþþþþþþþþþþþþÜ
                                   16454     611.     Ÿ                                                                     Ÿ
                                   16455     612.     Ÿ  Return to calling routine                                          Ÿ
                                   16456     613.     Ÿ                                                                     Ÿ
                                   16457     614.     Ÿ        1.  Restore registers                                        Ÿ
                                   16458     615.     Ÿ        2.  Return in caller's original addressing mode.             Ÿ
                                   16459     616.     Ÿ                                                                     Ÿ
                                                      ¾þþþþþþþþþþþþþþþþþþþþþþþþþþþþþþþþþþþþþþþþþþþþþþþþþþþþþþþþþþþþþþþþþþþþþ»
-000158                            16461     618.     RETSETRC LABEL ,
 000158 58F0 A01C            0001C 16463     619.              L     R15,RETCODE         Load up final return code
000015C                            16465     621.     RETZERO  LABEL ,
 00015C 1BFF                       16467     622.              CLEAR R15                 Zero return code
 00015E 58D0 A010            00010 16471     623.              L     SPR,VSSAVE          Restore original save/stack
                                   16472     624.              ¿þþþþþþþþþþþþþþþþþþþþþþþþþþþþþþþþþþþþþþþþþþÜ
                                   16473     625.              Ÿ  Return, R15 contains return code        Ÿ
                                   16474     626.              Ÿ          R14 contains return address     Ÿ
                                   16475     627.              Ÿ          R13 contains save area address  Ÿ
                                   16476     628.              ¾þþþþþþþþþþþþþþþþþþþþþþþþþþþþþþþþþþþþþþþþþþ»
 000162                            16477     629.     RETURN   LABEL ,                   Cleanup and return
 000162 58E0 D00C            0000C 16479     630.              L     R14,@R13+12         Restore return address
 000166 980C D014            00014 16480     631.              LM    R0,R12,@R13+20      Restore R0 through R12
 00016A 12FF                       16481     632.              LTR   R15,R15             Set condition code from R15
 00016C 0B0E                       16482     633.              BSM   0,R14               Return resetting amode
1VSIO     (VSIO00) (09:49) (22MAR04) WIZARD: Interactive disk diagnostic: INITIALIZATION                                    Page   46
0Current Usings:  (VSIOPRM,R9) (UAREA,R10) (VSIO,R11)
0Loc    Object Code    Addr1 Addr2  Stmt Lv Lineno    Source Statement           (Hibal 5, Asmedit 3.3)  HLASM R4.0  2004/03/22 09.49
+___    ______ ____    _____ _____  ____ __ ______    ______ _________
0                                  16484     635.     ¿þþþþþþþþþþþþþþþþþþþþþþþþþþþþþþþþþþþþþþþþþþþþþþþþþþþþþþþþþþþþþþþþþþþþþÜ
                                   16485     636.     Ÿ                                                                     Ÿ
                                   16486     637.     Ÿ  Define initial literal pool and global static data area            Ÿ
                                   16487     638.     Ÿ                                                                     Ÿ
                                                      ¾þþþþþþþþþþþþþþþþþþþþþþþþþþþþþþþþþþþþþþþþþþþþþþþþþþþþþþþþþþþþþþþþþþþþþ»
0000170                            16489     640.              LTORG ,
 000170 E5E2C9D6E4C1D940           16491                             =CL8'VSIOUAR'
 000178 80000000                   16492                             =A(X'80000000')
 00017C 00000000                   16493                             =A(VSIO)
 000180 E5E2C9D6                   16494                             =C'VSIO'
 000184 FFFFFFFF                   16495                             =A(-1)
 000188 00001000                   16496                             =A(UWRKSZ)
 00018C 00001000                   16497                             =A(STCKSZ)
 000190 0000078C                   16498                             =A(ESTROUT)
1VSIO     (VSIO00) (09:49) (22MAR04) WIZARD: Interactive disk diagnostic: STARTIO                                           Page   47
0Current Usings:  (VSIOPRM,R9) (UAREA,R10) (VSIO,R11)
0Loc    Object Code    Addr1 Addr2  Stmt Lv Lineno    Source Statement           (Hibal 5, Asmedit 3.3)  HLASM R4.0  2004/03/22 09.49
+___    ______ ____    _____ _____  ____ __ ______    ______ _________
0                                  16503     642.     ********************************************************************
                                   16504     643.     *                                                                  *
                                   16505     644.     *  Start I/O routine                                               *
                                   16506     645.     *        1.    Set supervisor state                                *
                                   16507     646.     *        2.    Page fix buffers, terminal area, and termination    *
                                   16508     647.     *              routine                                             *
                                   16509     648.     *        3.    Translate CCW program                               *
                                   16510     649.     *        4.    Build necessary IDAL list                           *
                                   16511     650.     *        5.    Initialize SRB/IOSB control block pair              *
                                   16512     651.     *        6.    Issue STARTIO                                       *
                                   16513     652.     *        7.    Wait for I/O completion                             *
                                   16514     653.     *        8.    Release buffers, terminal area, and termination     *
                                   16515     654.     *              routine                                             *
                                   16516     655.     *        9     Set conition code based on USAT1ECB code            *
                                   16517     656.     *                                                                  *
                                   16518     657.     ********************************************************************
0000278 50E0 D000/900C_      00000 16520     659.     STARTIO  PROC  ,
 USING  *,R12
 000288 5810 B1DC/0A6B       001DC 16558     660.              MODESET MF=(E,MODESUP)    Set supervisor state
 00028E 4DE0 C07E            00306 16562     661.              LCALL SNOSWP              Set address space non-swappable
 000292 181A                       16564     662.              LR    R1,UAR              Address of control area
 000294 5800 C4E0            00768 16565     663.              L     R0,=A(UWRKSZ)       Length of control buffers
 000298 4DE0 C11E            003A6 16566     664.              LCALL PGFIX               Fix control buffers in memory
 00029C 5810 C4E4            0076C 16568     665.              L     R1,=A(VSIO)         Set address of vsio control section
 0002A0 5800 C618            008A0 16569     666.              L     R0,VSIOLEN          Load vsio module length
 0002A4 4DE0 C11E            003A6 16570     667.              LCALL PGFIX               Fix control area in memory
 0002A8 4DE0 C290            00518 16572     668.              LCALL CCWTRN0             Translate channel program
 0002AC 4DE0 C39A            00622 16574     669.              LCALL INITSRB             Initialize SRB/IOSB pair
 0002B0 4DE0 C31A            005A2 16576     670.              LCALL STIO                Issue STARTIO macro
 0002B4 4100 0001/4110_      00001 16578     677.              WAIT  ECB=USAT1ECB        Wait for I/O completion
 0002BE 5820 A06C            0006C 16585     677.02            L     R2,USATIOSB         Address of SRB/IOSB for I/O
 0002C2 4120 203C            0003C 16586     677.04            LA    R2,IOSBAREA-SRBIOSB(,R2)      Address of IOSB
 USING  IOSB,R2                    16587     677.06            WITH  (IOSB,R2),BEGIN     Addressability to SRB/IOSB pair
 0002C6 D200 901C 200D 0001C 0000D 16601  1  677.97              MVC   VSIO_COD,IOSCOD     Save last IOSCOD completion status
 0002CC D207 9020 2014 00020 00014 16602  1  677.98              MVC   VSIO_CSW,IOSFCSW    Save last CSW
 DROP   IOSB,R2                    16603     677.99            END   ,
 0002D2 4DE0 C4AA            00732 16611     678.              LCALL FREESRB             Release SRB/IOSB pair
 0002D6 181A                       16613     679.              LR    R1,UAR              Address of control area
 0002D8 5800 C4E0            00768 16614     680.              L     R0,=A(UWRKSZ)       Length of control buffers
 0002DC 4DE0 C198            00420 16615     681.              LCALL PGFREE              Fix control buffers in memory
 0002E0 5810 C4E4            0076C 16617     682.              L     R1,=A(VSIO)         Set address of vsio control section
 0002E4 5800 C618            008A0 16618     683.              L     R0,VSIOLEN          Load vsio module length
 0002E8 4DE0 C198            00420 16619     684.              LCALL PGFREE              Release vsio page
 0002EC 4DE0 C0CE            00356 16621     685.              LCALL SOKSWP              Allow address space to swap
 0002F0 5810 B1E0/0A6B       001E0 16623     686.              MODESET MF=(E,MODEPRB)    Return to problem state
 0002F6 1BFF                       16627     687.              CLEAR R15                 Zero return code
 0002F8 18D8/980C D004_            16631     695.              PEND  ,                   Return and test code
 DROP   *,R12
1VSIO     (VSIO00) (09:49) (22MAR04) WIZARD: Interactive disk diagnostic: STARTIO                                           Page   48
0Current Usings:  (VSIOPRM,R9) (UAREA,R10) (VSIO,R11)
0Loc    Object Code    Addr1 Addr2  Stmt Lv Lineno    Source Statement           (Hibal 5, Asmedit 3.3)  HLASM R4.0  2004/03/22 09.49
+___    ______ ____    _____ _____  ____ __ ______    ______ _________
0                                  16652     697.     ¿þþþþþþþþþþþþþþþþþþþþþþþþþþþþþþþþþþþþþþþþþþþþþþþþþþþþþþþþþþþþþþþþþþþþþÜ
                                   16653     698.     Ÿ                                                                     Ÿ
                                   16654     699.     Ÿ  Set non-swapable                                                   Ÿ
                                   16655     700.     Ÿ                                                                     Ÿ
                                   16656     701.     Ÿ        OS/390 V2R5.0 MVS Auth Assm Services Reference SET-WTO       Ÿ
                                   16657     702.     Ÿ               Document Number: GC28-1767-04                         Ÿ
                                   16658     703.     Ÿ                                                                     Ÿ
                                   16659     704.     Ÿ        1.  Caller must be in supervisor state                       Ÿ
                                   16660     705.     Ÿ                                                                     Ÿ
                                                      ¾þþþþþþþþþþþþþþþþþþþþþþþþþþþþþþþþþþþþþþþþþþþþþþþþþþþþþþþþþþþþþþþþþþþþþ»
-000306 50E0 D000/900C_      00000 16662     707.     SNOSWP   PROC  ,                   Enter and save calling registers
 USING  *,R12
 000316 5810 A00C            0000C 16700     708.              L     R1,ASCBADR              Get ASCB address
 00031A 4800 1024            00024 16701     709.              LH    R0,ASCBASID-ASCB(,R1)   Get address space id
 00031E 8900 0010/4300_      00010 16702     710.              SYSEVENT DONTSWAP,ASID=(0)    Request nonswappable status
 00032E 41F0 00FF            000FF 16709     711.              LA    R15,X'FF'               Return code mask
 000332 14F1                       16710     712.              NR    R15,R1                  Just leave byte 3
 000334 4780 C032/4110_      00348 16711     713.              IF    NZ,'ABEND 91,DUMP'  Temporary abend condition
 000348 18D8/980C D004_            16736     714.              PEND  ,                   Restore registers and return
 DROP   *,R12
-
                                   16757     716.     ¿þþþþþþþþþþþþþþþþþþþþþþþþþþþþþþþþþþþþþþþþþþþþþþþþþþþþþþþþþþþþþþþþþþþþþÜ
                                   16758     717.     Ÿ                                                                     Ÿ
                                   16759     718.     Ÿ  Set swapable                                                       Ÿ
                                   16760     719.     Ÿ                                                                     Ÿ
                                   16761     720.     Ÿ        OS/390 V2R5.0 MVS Auth Assm Services Reference SET-WTO       Ÿ
                                   16762     721.     Ÿ               Document Number: GC28-1767-04                         Ÿ
                                   16763     722.     Ÿ                                                                     Ÿ
                                   16764     723.     Ÿ        1.  Caller must be in supervisor state                       Ÿ
                                   16765     724.     Ÿ                                                                     Ÿ
                                                      ¾þþþþþþþþþþþþþþþþþþþþþþþþþþþþþþþþþþþþþþþþþþþþþþþþþþþþþþþþþþþþþþþþþþþþþ»
0000356 50E0 D000/900C_      00000 16767     726.     SOKSWP   PROC  ,                   Enter and save calling registers
 USING  *,R12
 000366 5810 A00C            0000C 16805     727.              L     R1,ASCBADR              Get ASCB address
 00036A 4800 1024            00024 16806     728.              LH    R0,ASCBASID-ASCB(,R1)   Get ASCB number
 00036E 8900 0010/4300_      00010 16807     729.              SYSEVENT OKSWAP,ASID=(0)      Request swappable status
 00037E 41F0 00FF            000FF 16814     730.              LA    R15,X'FF'               Return code mask
 000382 14F1                       16815     731.              NR    R15,R1                  Just leave byte 3
 000384 4780 C032/4110_      00398 16816     732.              IF    NZ,'ABEND 92,DUMP'  Temporary abend condition
 000398 18D8/980C D004_            16841     733.              PEND  ,                   Restore registers and return
 DROP   *,R12
1VSIO     (VSIO00) (09:49) (22MAR04) WIZARD: Interactive disk diagnostic: STARTIO                                           Page   49
0Current Usings:  (VSIOPRM,R9) (UAREA,R10) (VSIO,R11)
0Loc    Object Code    Addr1 Addr2  Stmt Lv Lineno    Source Statement           (Hibal 5, Asmedit 3.3)  HLASM R4.0  2004/03/22 09.49
+___    ______ ____    _____ _____  ____ __ ______    ______ _________
0                                  16862     735.     ¿þþþþþþþþþþþþþþþþþþþþþþþþþþþþþþþþþþþþþþþþþþþþþþþþþþþþþþþþþþþþþþþþþþþþþÜ
                                   16863     736.     Ÿ                                                                     Ÿ
                                   16864     737.     Ÿ  Page fix routine                                                   Ÿ
                                   16865     738.     Ÿ                                                                     Ÿ
                                   16866     739.     Ÿ        OS/390 V2R4.0 MVS Auth Assm Services Reference LLA-SDU       Ÿ
                                   16867     740.     Ÿ               Document Number: GC28-1766-03                         Ÿ
                                   16868     741.     Ÿ                                                                     Ÿ
                                   16869     742.     Ÿ    Entry: Caller must be in supervisor state                        Ÿ
                                   16870     743.     Ÿ              R0 - contains length in bytes of the area to be fixed  Ÿ
                                   16871     744.     Ÿ              R1 - contains the address of the area to be fixed      Ÿ
                                   16872     745.     Ÿ                                                                     Ÿ
                                                      ¾þþþþþþþþþþþþþþþþþþþþþþþþþþþþþþþþþþþþþþþþþþþþþþþþþþþþþþþþþþþþþþþþþþþþþ»
00003A6 50E0 D000/900C_      00000 16874     747.     PGFIX    PROC  ,                   Enter and save calling registers
 USING  *,R12
 0003B6 1820                       16912     748.              LR    R2,R0               Copy length to page fix
 0003B8 1E21                       16913     749.              ALR   R2,R1               Compute last address
 0003BA 5F20 C3BA            00770 16914     749.1             SL    R2,=A(1)            Decrement to ending address
 0003BE D703 A018 A018 00018 00018 16915     750.              CLEAR GENECB              Clear ECB
 0003C4 4100 A018            00018 16922     751.              LA    R0,GENECB           Address of post ECB
                                   16923     752.   C          PGSER R,FIX,A=(1),EA=(2),ECB=(0),
 0003C8 47F0 C01A/7FFF_      003D0           753.                    BRANCH=N,LONG=N
 0003DC 12FF/4780 C05C             16931     754.              IF    (R15,NZ),BEGIN      Wait for non-zero return from PGSER
 0003E2 59F0 C3BE/4770_      00774 16945  1  755.                IF    (R15,EQ,8),BEGIN    We have to wait
 0003EA 4100 0001/4110_      00001 16962  2  756.                  WAIT  ECB=GENECB          Wait for page fix completion
 0003F4 D602 A019 A018 00019 00018 16969  2  757.                  OC    GENECB+1(3),GENECB  Test complettion code in ECB
 0003FA 4770 C04C/47F0_      00402 16970  2  758.                  IF    Z,'EXIT PGFIX'      Exit on successful page fix
 000402                            16989  1  759.                END   ,
 000402 4110 005D/4100_      0005D 16993  1  760.                ABEND 93,DUMP             Let's try to not abend (!)
 000412                            17002     761.              END   ,
 000412 18D8/980C D004_            17006     762.              PEND  ,                   Restore registers and return
 DROP   *,R12
0                                  17027     764.     ¿þþþþþþþþþþþþþþþþþþþþþþþþþþþþþþþþþþþþþþþþþþþþþþþþþþþþþþþþþþþþþþþþþþþþþÜ
                                   17028     765.     Ÿ                                                                     Ÿ
                                   17029     766.     Ÿ Page Release subroutine                                             Ÿ
                                   17030     768.     Ÿ                                                                     Ÿ
                                   17031     769.     Ÿ        OS/390 V2R4.0 MVS Auth Assm Services Reference LLA-SDU       Ÿ
                                   17032     770.     Ÿ               Document Number: GC28-1766-03                         Ÿ
                                   17033     771.     Ÿ                                                                     Ÿ
                                   17034     772.     Ÿ    Entry: Caller must be in supervisor state                        Ÿ
                                   17035     773.     Ÿ              R0 - contains length in bytes of the area to be fixed  Ÿ
                                   17036     774.     Ÿ              R1 - contains the address of the area to be fixed      Ÿ
                                   17037     775.     Ÿ                                                                     Ÿ
                                                      ¾þþþþþþþþþþþþþþþþþþþþþþþþþþþþþþþþþþþþþþþþþþþþþþþþþþþþþþþþþþþþþþþþþþþþþ»
0000420 50E0 D000/900C_      00000 17039     778.     PGFREE   PROC  ,                   Enter and save calling registers
 USING  *,R12
 000430 1820                       17077     779.              LR    R2,R0               Set length to free
 000432 1E21                       17078     780.              ALR   R2,R1               Compuate last address
 000434 5F20 C340            00770 17079     780.1             SL    R2,=A(1)            Decrement to ending address
 000438 47F0 C010/7FFF_      00440 17080     781.              PGSER R,FREE,A=(1),EA=(R2)    Release page fix
 00044E 12FF/4780 C034_            17089     782.              IF    (R15,NZ),'ABEND 104,DUMP'
 000464 18D8/980C D004_            17117     783.              PEND  ,                       Restore registers and return
1VSIO     (VSIO00) (09:49) (22MAR04) WIZARD: Interactive disk diagnostic: STARTIO                                           Page   50
0Current Usings:  (VSIOPRM,R9) (UAREA,R10) (VSIO,R11)
0Loc    Object Code    Addr1 Addr2  Stmt Lv Lineno    Source Statement           (Hibal 5, Asmedit 3.3)  HLASM R4.0  2004/03/22 09.49
+___    ______ ____    _____ _____  ____ __ ______    ______ _________
0DROP   *,R12
1VSIO     (VSIO00) (09:49) (22MAR04) WIZARD: Interactive disk diagnostic: STARTIO                                           Page   51
0Current Usings:  (VSIOPRM,R9) (UAREA,R10) (VSIO,R11)
0Loc    Object Code    Addr1 Addr2  Stmt Lv Lineno    Source Statement           (Hibal 5, Asmedit 3.3)  HLASM R4.0  2004/03/22 09.49
+___    ______ ____    _____ _____  ____ __ ______    ______ _________
0                                  17138     785.     ¿þþþþþþþþþþþþþþþþþþþþþþþþþþþþþþþþþþþþþþþþþþþþþþþþþþþþþþþþþþþþþþþþþþþþþÜ
                                   17139     786.     Ÿ                                                                     Ÿ
                                   17140     787.     Ÿ  Getmain from CSA subpool 228, fixed and user key                   Ÿ
                                   17141     788.     Ÿ                                                                     Ÿ
                                   17142     789.     Ÿ    **********************************************************       Ÿ
                                   17143     790.     Ÿ                                                                     Ÿ
                                   17144     791.     Ÿ    Entry:    Entry in supervisor state                              Ÿ
                                   17145     792.     Ÿ              R0   Contains length required                          Ÿ
                                   17146     793.     Ÿ                                                                     Ÿ
                                   17147     794.     Ÿ    Returns:                                                         Ÿ
                                   17148     795.     Ÿ              R1   Contains address from CSA                         Ÿ
                                   17149     796.     Ÿ              R15  Contains return code from GETMAIN                 Ÿ
                                   17150     797.     Ÿ                   0  -  Memory acquired, address in R1              Ÿ
                                   17151     798.     Ÿ                   4  -  Insufficient CSA                            Ÿ
                                   17152     799.     Ÿ                                                                     Ÿ
                                   17153     800.     Ÿ                                                                     Ÿ
                                                      ¾þþþþþþþþþþþþþþþþþþþþþþþþþþþþþþþþþþþþþþþþþþþþþþþþþþþþþþþþþþþþþþþþþþþþþ»
0000472 50E0 D000/900C_      00000 17155     802.     CSAGET   PROC  ,
 USING  *,R12
 000482 1B22                       17193     803.              CLEAR R2                  Zero PSW key save area
 000484 B20B 0000/B20A_            17197     805.              MODESET  EXTKEY=ZERO,SAVEKEY=(2)
 00048C 47F0 C012/00/E_      00494 17201     806.              STORAGE OBTAIN,LENGTH=(0),SP=228,KEY=(2),COND=NO
 0004AE B20A 2000      00000       17216     807.              MODESET  KEYADDR=(2)      Reset to TCB key
 0004B2 9680 A064      00064       17219     807.1             SET   USBCSA              Indicate that CSA is present
 0004B6 5018 0008            00008 17225     809.              PRETURN (R1)              Return address of CSA storage
 0004BA 18D8/980C D004_            17227     810.              PEND  ,
 DROP   *,R12
-
                                   17248     812.     ¿þþþþþþþþþþþþþþþþþþþþþþþþþþþþþþþþþþþþþþþþþþþþþþþþþþþþþþþþþþþþþþþþþþþþþÜ
                                   17249     813.     Ÿ                                                                     Ÿ
                                   17250     814.     Ÿ  Release memory from CSA, Subpool 228 and fixed and user key        Ÿ
                                   17251     815.     Ÿ                                                                     Ÿ
                                   17252     816.     Ÿ******************************************************************   Ÿ
                                   17253     817.     Ÿ                                                                     Ÿ
                                   17254     818.     Ÿ        Entry:                                                       Ÿ
                                   17255     819.     Ÿ              R0   Length to free                                    Ÿ
                                   17256     820.     Ÿ              R1   Address to free                                   Ÿ
                                   17257     821.     Ÿ                                                                     Ÿ
                                   17258     822.     Ÿ                                                                     Ÿ
                                                      ¾þþþþþþþþþþþþþþþþþþþþþþþþþþþþþþþþþþþþþþþþþþþþþþþþþþþþþþþþþþþþþþþþþþþþþ»
00004C8 50E0 D000/900C_      00000 17260     825.     CSAREL   PROC  ,
 USING  *,R12
 0004D8 B20B 0000/B20A_            17298     825.1             MODESET EXTKEY=ZERO,SAVEKEY=(2)
 0004E0 47F0 C010/00/E_      004E8 17302     825.5             STORAGE RELEASE,LENGTH=(0),ADDR=(1),SP=228,KEY=(2)
 000502 B20A 2000      00000       17317     825.6             MODESET KEYADDR=(2)       Reset to TCB key
 000506 947F A064      00064       17320     829.1             CLEAR USBCSA              Clear CSA acquired flag
 00050A 18D8/980C D004_            17327     831.              PEND  ,
 DROP   *,R12
1VSIO     (VSIO00) (09:49) (22MAR04) WIZARD: Channel program translate routine                                              Page   52
0Current Usings:  (VSIOPRM,R9) (UAREA,R10) (VSIO,R11)
0Loc    Object Code    Addr1 Addr2  Stmt Lv Lineno    Source Statement           (Hibal 5, Asmedit 3.3)  HLASM R4.0  2004/03/22 09.49
+___    ______ ____    _____ _____  ____ __ ______    ______ _________
0                                  17348     833.     ¿þþþþþþþþþþþþþþþþþþþþþþþþþþþþþþþþþþþþþþþþþþþþþþþþþþþþþþþþþþþþþþþþþþþþþÜ
                                   17349     834.     Ÿ                                                                     Ÿ
                                   17350     835.     Ÿ  Translate USAT1CCW channel program addresses to real addresses.    Ÿ
                                   17351     836.     Ÿ  We will be translating format 0, (old style), CCW chains here.     Ÿ
                                   17352     837.     Ÿ                                                                     Ÿ
                                   17353     838.     Ÿ        1.  Translate number of CCW's based on count in              Ÿ
                                   17354     839.     Ÿ            USAT1CCC.                                                Ÿ
                                   17355     840.     Ÿ                                                                     Ÿ
                                                      ¾þþþþþþþþþþþþþþþþþþþþþþþþþþþþþþþþþþþþþþþþþþþþþþþþþþþþþþþþþþþþþþþþþþþþþ»
0000518 50E0 D000/900C_      00000 17357     842.     CCWTRN0  PROC  ,
 USING  *,R12
 000528 5800 A07C            0007C 17395     843.              L     R0,USAT1CCC         Get count of CCW's in program
 00052C 4110 A238            00238 17396     844.              LA    R1,USAT1CCW         Starting address of channel program
 USING  CCW,R1                     17397     845.              WITH  (CCW,R1)            Addressability to CCW template
 000530                            17410     846.              LOOP  BEGIN               Do all CCW's
 000530 1F22/BF27 1001             17416  1  847.                L3    R2,CCWADDR3         Get offset
 000536 1E2A                       17424  1  848.                ALR   R2,UAR              Add in base virtual address
 000538 B120 2000            00000 17425  1  849.                LRA   R2,@R2              Create real address
 00053C BE27 1001            00001 17426  1  850.                ST3   R2,CCWADDR3         Reset into CCW
 000540 4110 1008            00008 17428  1  851.                LA    R1,CCWNEXT          Point to next CCW
 000544 5B00 C248            00770 17429  1  852.                S     R0,=A(1)            Decrement CCW count
 000548 4770 C008            00530 17430     853.              UNTIL Z,END               Loop for all CCW's
                                                               ¿þþþþþþþþþþþþþþþþþþþþþþþþþþþþþþþþþþþþþþþþþþþþþþþþþþþþþþþþþþþþþþþÜ
0                                  17450     855.              Ÿ  Even though I HATE leaving code around that isn't currently  Ÿ
                                   17451     856.              Ÿ  executed I want to remember that I've got to put this        Ÿ
                                   17452     857.              Ÿ  somewhere!                                                   Ÿ
                                                               ¾þþþþþþþþþþþþþþþþþþþþþþþþþþþþþþþþþþþþþþþþþþþþþþþþþþþþþþþþþþþþþþþ»
 00054C 9102 A064/47E0_00064       17453     858.              IF    USIDAW,BEGIN        Build IDAL's only if needed
 000554 5810 A074/1211       00074 17468  1  859.                LT    R1,USATBUFF             Any user buffer?
 00055A 4780 C066            0058E 17472  1  860.                IF    NZ,BEGIN                Yep -- build IDAL list
 00055E 5800 A078            00078 17483  2  861.                  L     R0,USATBUFL             Set user buffer length
 000562 8800 000B            0000B 17484  2  862.                  SRL   R0,11                   Number of 2k chunks
 000566 5A00 C248            00770 17485  2  863.                  A     R0,=A(1)                At least one please
 00056A 4140 A278            00278 17486  2  864.                  LA    R4,USAT1IDA             Address of idaw's
 00056E 5820 A074            00074 17487  2  865.                  L     R2,USATBUFF             Buffer address
 000572                            17488  2  866.                  LOOP  BEGIN                   Build IDAL list
 000572 B130 2000            00000 17494  3  867.                    LRA   R3,@R2                  Set real address
 000576 5030 4000            00000 17495  3  868.                    ST    R3,@R4                  Set into IDAL word
 00057A 4140 4004            00004 17496  3  869.                    LA    R4,@R4+4                Bump to next word
 00057E 4120 2800            00800 17497  3  870.                    LA    R2,@R2+2048             Bump by 2k
 000582 5420 C250            00778 17498  3  871.                    N     R2,=A(X'00FFF800')      Align to 2k boundary
 000586 5B00 C248            00770 17499  3  872.                    S     R0,=A(1)                Count down
 00058A 4770 C04A            00572 17500  2  873.                  UNTIL Z,END                   Do enough of em
 00058E                            17519  1  874.                END   ,
 00058E                            17523     875.              END   ,
 00058E 94FD A064      00064       17527     876.              CLEAR USIDAW              Clear IDAW translate flag
 000592 1BFF                       17534     877.              CLEAR R15                 Zero return code
 000594 18D8/980C D004_            17538     878.              PEND  ,                   And return to caller
 DROP   CCW,R1
 DROP   *,R12
1VSIO     (VSIO00) (09:49) (22MAR04) WIZARD: Channel program translate routine                                              Page   53
0Current Usings:  (VSIOPRM,R9) (UAREA,R10) (VSIO,R11)
0Loc    Object Code    Addr1 Addr2  Stmt Lv Lineno    Source Statement           (Hibal 5, Asmedit 3.3)  HLASM R4.0  2004/03/22 09.49
+___    ______ ____    _____ _____  ____ __ ______    ______ _________
0                                  17564     880.     ¿þþþþþþþþþþþþþþþþþþþþþþþþþþþþþþþþþþþþþþþþþþþþþþþþþþþþþþþþþþþþþþþþþþþþþÜ
                                   17565     881.     Ÿ                                                                     Ÿ
                                   17566     882.     Ÿ  STARTIO Routine interface                                          Ÿ
                                   17567     883.     Ÿ        1.  Caller must be in supervisor state                       Ÿ
                                   17568     884.     Ÿ        2.  Acquire address space LOCAL lock                         Ÿ
                                   17569     885.     Ÿ        3.  Queue SRC/IOSB vis STARTIO macro interface               Ÿ
                                   17570     886.     Ÿ        4.  Release address space LOCAL lock                         Ÿ
                                   17571     887.     Ÿ                                                                     Ÿ
                                                      ¾þþþþþþþþþþþþþþþþþþþþþþþþþþþþþþþþþþþþþþþþþþþþþþþþþþþþþþþþþþþþþþþþþþþþþ»
00005A2 50E0 D000/900C_      00000 17573     889.     STIO     PROC  ,
 USING  *,R12
 0005B2 B20B 0000/B20A_            17611     892.              MODESET EXTKEY=ZERO,SAVEKEY=(2)
                                                               ¿þþþþþþþþþþþþþþþþþþþþþþþþþþþþþþþþþþþþþþþþþþþþþþþþþþþþþþþþþþÜ
                                   17615     894.              Ÿ  OS/390 V2R6.0 MVS Auth Assm Services Reference SET-WTO  Ÿ
                                   17616     895.              Ÿ                Document Number: GC28-1767-06             Ÿ
                                                               ¾þþþþþþþþþþþþþþþþþþþþþþþþþþþþþþþþþþþþþþþþþþþþþþþþþþþþþþþþþþ»
 0005BA 18FB/180C/181D_            17617     897.1             SETLOCK OBTAIN,TYPE=LOCAL,MODE=UNCOND,REGS=USE,RELATED=SIO
00005D2 D703 A070 A070 00070 00070 17632     900.              CLEAR USAT1ECB            Clear event control block
 0005D8 900F D000            00000 17639     900.01            STM   R0,R15,@R13         Save all registers
 0005DC 5810 A06C            0006C 17640     900.1             L     R1,USATIOSB         SRB/IOSB CSA memory area
 0005E0 4110 1010            00010 17641     900.2             LA    R1,SRBAREA-SRBIOSB(,R1) Point to the SRB
 0005E4 1111/58F0 0010_            17642     902.              STARTIO SRB=(1),TCB=SRB   Schedule I/O request
 0005F4 980F D000            00000 17649     902.1             LM    R0,R15,@R13         Restore regs
 0005F8 18FB/180C/181D_            17650     904.              SETLOCK RELEASE,TYPE=LOCAL,REGS=USE,RELATED=SIO
 000610 B20A 2000      00000       17664     907.              MODESET  KEYADDR=(2)      Reset to TCB key
 000614 18D8/980C D004_            17667     909.              PEND  ,
 DROP   *,R12
1VSIO     (VSIO00) (09:49) (22MAR04) WIZARD: Channel program translate routine                                              Page   54
0Current Usings:  (VSIOPRM,R9) (UAREA,R10) (VSIO,R11)
0Loc    Object Code    Addr1 Addr2  Stmt Lv Lineno    Source Statement           (Hibal 5, Asmedit 3.3)  HLASM R4.0  2004/03/22 09.49
+___    ______ ____    _____ _____  ____ __ ______    ______ _________
0                                  17688     911.     ¿þþþþþþþþþþþþþþþþþþþþþþþþþþþþþþþþþþþþþþþþþþþþþþþþþþþþþþþþþþþþþþþþþþþþþÜ
                                   17689     912.     Ÿ                                                                     Ÿ
                                   17690     913.     Ÿ  Initialize SRB/IOSB control blocks                                 Ÿ
                                   17691     914.     Ÿ                                                                     Ÿ
                                                      ¾þþþþþþþþþþþþþþþþþþþþþþþþþþþþþþþþþþþþþþþþþþþþþþþþþþþþþþþþþþþþþþþþþþþþþ»
0000622 50E0 D000/900C_      00000 17693     916.     INITSRB  PROC  ,                   Enter and save calling registers
 USING  *,R12
 000632 5850 A06C/1255       0006C 17731     917.              LT    R5,USATIOSB         Address of SRB/IOSB pair
 000638 4770 C0F2            00724 17735     918.              IF    Z,BEGIN             Obtain an SRB/IOSB pair
 00063C 4100 00A8            000A8 17746  1  919.                LA    R0,L'SRBIOSB        Length of CSA required
 000640 4DE0 B472            00472 17747  1  920.                LCALL CSAGET              Obtain CSA storage for SRB/IOSB
 000644 5010 A06C            0006C 17749  1  921.                ST    R1,USATIOSB         Save address of SRB/IOSB pair
 000648 1821                       17750  1  921.01              LR    R2,R1               Preserve pointer to SRB/IOSB pair
 USING  SRBIOSB,R2                 17751  1  921.91              WITH  (SRBIOSB,R2)        Addressability to srb/iosb
                                   17764  1  921.93 C            TIME  DEC,(R13),ZONE=LT,LINKAGE=SYSTEM,DATETYPE=MMDDYYYY,
 00064A 5110 A2BC/D71B_      002BC        1  921.94                    MF=(E,TIMELST)
 000676 D203 2000 C14A 00000 0077C 17777  1  921.97              MVC   SIOSID,=C'VSIO'
 00067C D207 2008 D000 00008 00000 17778  1  921.98              MVC   SIOTIM,@R13         Set time stamp (hhmmssth)
 000682 D203 2004 D008 00004 00008 17779  1  921.99              MVC   SIODAT,@R13+8       Set date stampe (mmddyyyy)
 USING  SRB,R5                     17780  1  924.                WITH  (SRB,R5),BEGIN      Addressability to SRB for init
 000688 4140 203C            0003C 17794  2  924.01                LA    R4,IOSBAREA         Address of IOSB area
 00068C 4150 2010            00010 17795  2  924.1                 LA    R5,SRBAREA          Address of SRB start
 000690 D72B 5000 5000 00000 00000 17796  2  925.                  CLEAR (SRB,SRBSIZE)       Clear SRB to zeroes
 000696 D203 5000 C14E 00000 00780 17803  2  926.                  MVC   SRBID,=CL4'SRB '    Set SRB identification
 00069C 58F0 A00C            0000C 17804  2  927.                  L     R15,ASCBADR         Get ASCB address
 0006A0 50F0 5008            00008 17805  2  928.                  ST    R15,SRBASCB         Set ASCB address in SRB
 0006A4 58E0 A008            00008 17806  2  929.                  L     R14,TCBADR          Get TCB address
 0006A8 50E0 5010            00010 17807  2  930.                  ST    R14,SRBPTCB         Set TCB address in SRB
 0006AC 48E0 F024            00024 17808  2  931.                  LH    R14,ASCBASID-ASCB(,R15) Get ASCB ident
 0006B0 40E0 500E            0000E 17809  2  932.                  STH   R14,SRBPASID            Set ASCB ident into SRB
 0006B4 D200 5024 A065 00024 00065 17810  2  933.                  MVC   SRBPKF,PSWKEY       Set protect key in SRB
 0006BA 4140 502C            0002C 17811  2  934.                  LA    R4,SRBSIZE(,R5)     Point to the IOSB
 0006BE 5040 501C            0001C 17812  2  935.                  ST    R4,SRBPARM          Save IOSB ptr in SRB
 DROP   SRB,R5                     17813  1  936.                END   ,
 USING  IOSB,R4                    17821  1  937.                WITH  (IOSB,R4),BEGIN     Addressabiity to the IOSB
 0006C2 D76B 4000 4000 00000 00000 17835  2  938.                  CLEAR (IOSB,IOSBSIZE)     Clear IOSB to zeroes
 0006C8 96C0 4000      00000       17842  2  939.                  SET   IOSFLA.IOSACHN      Set for command and data chaining
 0006CC 5050 401C            0001C 17849  2  940.                  ST    R5,IOSSRB           Set SRB address
 0006D0 9608 4001      00001       17850  2  941.                  SET   IOSFLB.IOSIONRD     Enable not ready I/O
 0006D4 4110 A238            00238 17857  2  942.                  LA    R1,USAT1CCW         Virtual address of CCW prog
 0006D8 5010 404C            0004C 17858  2  943.                  ST    R1,IOSVST           Set virtual start
 0006DC B110 1000            00000 17859  2  944.                  LRA   R1,@R1              Real address of CCW
 0006E0 5010 4048            00048 17860  2  945.                  ST    R1,IOSRST           Set real CCW start address
 0006E4 D207 405C A080 0005C 00080 17861  2  946.                  MVC   IOSEEK,USAT1SEE     Set seek address
 0006EA D207 4064 A080 00064 00080 17862  2  947.                  MVC   IOSEEKA,USAT1SEE    And again for some reason
 0006F0 D203 4010 9010 00010 00010 17863  2  948.                  MVC   IOSUCB,VSIOUCBA     Set UCB address
 0006F6 50A0 4020            00020 17864  2  949.                  ST    UAR,IOSUSE          Save parameter to term
 0006FA 9201 4004      00004       17865  2  950.                  MVI   IOSDVRID,IOSMISID   Set misc driver ident
 0006FE 40E0 4006            00006 17866  2  951.                  STH   R14,IOSASID         Set address space id
 000702 D200 400C A065 0000C 00065 17867  2  952.                  MVC   IOSPKEY,PSWKEY      Set protection key
 000708 9608 400C      0000C       17868  2  953.                  SET   IOSPKEY.IOSLCL      Set local dispacthing prio
 00070C 58F0 C152            00784 17875  2  954.                  L     R15,=A(X'80000000'+IOTERM)    Get I/O term routine
 000710 50F0 4008            00008 17876  2  955.                  ST    R15,IOSPGAD                   Save termination
1VSIO     (VSIO00) (09:49) (22MAR04) WIZARD: Channel program translate routine                                              Page   55
0Current Usings:  (SRBIOSB,R2) (IOSB,R4) (VSIOPRM,R9) (UAREA,R10) (VSIO,R11) (*,R12)
0Loc    Object Code    Addr1 Addr2  Stmt Lv Lineno    Source Statement           (Hibal 5, Asmedit 3.3)  HLASM R4.0  2004/03/22 09.49
+___    ______ ____    _____ _____  ____ __ ______    ______ _________
0000714 58F0 0010            00010 17877  2  955.1                 L     R15,CVTPTR                    ADDRESS OF CVT
 000718 41F0 F4A4            004A4 17878  2  955.2                 LA    R15,CVTRCZRT-CVT(,R15)        NORMAL/ABNORMAL END
 00071C 50F0 403C            0003C 17879  2  957.                  ST    R15,IOSNRM                    Set normal end
 000720 50F0 4040            00040 17880  2  959.                  ST    R15,IOSABN                    Set abnormal end
 DROP   IOSB,R4                    17881  1  960.                END   ,
 DROP   SRBIOSB,R2                 17889     960.1             END   ,
 000724 18D8/980C D004_            17898     961.              PEND  ,
 DROP   *,R12
-                                  17919     963.     ¿þþþþþþþþþþþþþþþþþþþþþþþþþþþþþþþþþþþþþþþþþþþþþþþþþþþþþþþþþþþþþþþþþþþþþÜ
                                   17920     964.     Ÿ                                                                     Ÿ
                                   17921     965.     Ÿ  Release/Free SRB/IOSB pair from CSA storage                        Ÿ
                                   17922     966.     Ÿ                                                                     Ÿ
                                   17923     967.     Ÿ    Entry: Caller must be in supervisor state.                       Ÿ
                                   17924     968.     Ÿ                                                                     Ÿ
                                                      ¾þþþþþþþþþþþþþþþþþþþþþþþþþþþþþþþþþþþþþþþþþþþþþþþþþþþþþþþþþþþþþþþþþþþþþ»
0000732 50E0 D000/900C_      00000 17926     970.     FREESRB  PROC  ,                   Enter and save calling registers
 USING  *,R12
 000742 4100 00A8            000A8 17964     971.              LA    R0,L'SRBIOSB        Length of CSA to release
 000746 5810 A06C            0006C 17965     972.              L     R1,USATIOSB         Set address of SRC/IOSB pair
 00074A D203 100C C046 0000C 00788 17966     972.1             MVC   @R1+12(4),=C'Gone'  Indiciate that I'm leaving
 000750 4DE0 B4C8            004C8 17967     973.              LCALL CSAREL              Release CSA storage for SRB/IOSB
 000754 D703 A06C A06C 0006C 0006C 17969     974.              CLEAR USATIOSB            Indicate CSA storage is gone
 00075A 18D8/980C D004_            17976     975.              PEND  ,                   Return to caller
 DROP   *,R12
 DROP   VSIO,R11                   17996     976.              Drop  ,                   Release all addressability
 DROP   UAREA,R10
 DROP   VSIOPRM,R9
 000768                            18038     976.1             LTORG ,
 000768 00001000                   18040                             =A(UWRKSZ)
 00076C 00000000                   18041                             =A(VSIO)
 000770 00000001                   18042                             =A(1)
 000774 00000008                   18043                             =A(8)
 000778 00FFF800                   18044                             =A(X'00FFF800')
 00077C E5E2C9D6                   18045                             =C'VSIO'
 000780 E2D9C240                   18046                             =CL4'SRB '
 000784 80000824                   18047                             =A(X'80000000'+IOTERM)
 000788 C7969585                   18048                             =C'Gone'
1VSIO     (VSIO00) (09:49) (22MAR04) WIZARD: Channel program translate routine                                              Page   56
0Loc    Object Code    Addr1 Addr2  Stmt Lv Lineno    Source Statement           (Hibal 5, Asmedit 3.3)  HLASM R4.0  2004/03/22 09.49
+___    ______ ____    _____ _____  ____ __ ______    ______ _________
0                                  18053     978.     ¿þþþþþþþþþþþþþþþþþþþþþþþþþþþþþþþþþþþþþþþþþþþþþþþþþþþþþþþþþþþþþþþþþþþþþÜ
                                   18054     979.     Ÿ                                                                     Ÿ
                                   18055     980.     Ÿ  Extended STAE Recovery Routine                                     Ÿ
                                   18056     981.     Ÿ                                                                     Ÿ
                                   18057     982.     Ÿ        1.  Release CSA storage                                      Ÿ
                                   18058     983.     Ÿ                                                                     Ÿ
                                                      ¾þþþþþþþþþþþþþþþþþþþþþþþþþþþþþþþþþþþþþþþþþþþþþþþþþþþþþþþþþþþþþþþþþþþþþ»
-00078C                            18060     985.     ESTROUT  LABEL ,
 00078C 90EC D00C            0000C 18062     986.              STM   R14,R12,@R13+12     Save entry registers to ESTAE
 000790 0DC0                       18063     987.              BASE  BR                  ESTAE recovery routine base
 USING  *,R12
 000792 5900 C106/4770_      00898 18077     988.              IF    (R0,EQ,12),BEGIN    No SDWA provided
 00079A 1BFF                       18094  1  989.                CLEAR R15                 Indicate abend to continue
 00079C 07FE                       18098  1  990.                BR    R14                 Percolate abend
 00079E                            18099     991.              END   ,
 00079E 1821                       18103     995.              LR    R2,R1               Copy sdwa address
 USING  SDWA,R2                    18104     996.              USING SDWA,R2             ## addr to sdwa
 0007A0 1830                       18113     997.              LR    R3,R0               Save I/O code
00007A2 58A0 2000            00000 18115     999.              L     UAR,SDWAPARM        Reset global data area
 USING  UAREA,R10                  18116    1000.              USING UAREA,UAR           Addressability to global area
 0007A6 9180 A064/47E0_00064       18125    1005.              IF    USBCSA,BEGIN        We have leftover csa allocated
 0007AE 0700/4510 C026_            18140  1 1009.1               MODESET MODE=SUP          Set supervisor state
 0007BE B20B 0000/B20A_            18147  1 1010.                MODESET EXTKEY=ZERO,SAVEKEY=(2)
 0007C6 5810 A06C            0006C 18151  1 1010.1               L     R1,USATIOSB         Address of srb/iosb pair
 0007CA 4100 00A8            000A8 18152  1 1010.2               LA    R0,L'SRBIOSB        And length of block
 0007CE D203 100C C10A 0000C 0089C 18153  1 1010.3               MVC   @R1+12(4),=C'Gone'  Debugging cross check
 0007D4 47F0 C04A/00/E_      007DC 18154  1 1011.                STORAGE RELEASE,LENGTH=(0),ADDR=(1),SP=228,KEY=(2)
 0007F6 B20A 2000      00000       18169  1 1012.                MODESET KEYADDR=(2)       Reset to tcb key
 0007FA 0700/4510 C072_            18172  1 1012.01              MODESET MODE=PROB         Reenter problem state
 00080A 947F A064      00064       18179  1 1013.                CLEAR USBCSA              Clear csa acquired field
 00080E D703 A06C A06C 0006C 0006C 18186  1 1014.                CLEAR USATIOSB            Clear residual address
 000814                            18193    1015.              END   ,
                                   18198    1017.              SETRP WKAREA=(R2),REGS=(14,12),RC=0
 000814 0700                       18200    01-SETRP +         NOPR  SDWANOPR    IF THIS STATEMENT CAUSES ASSEMBLER ERROR
                                   18201             +*                          IT IMPLIES THAT SETRP AND THE SDWA ARE
                                   18202             +*                          BEING USED IMCOMPATABLY           @G38AP2F
 000816                00816 00814 18203    01-SETRP +         ORG   *-2         OVERLAY THE PREVIOUS INSTRUCTION  @G38AP2F
 000814 1812                       18204    01-SETRP +         LR    1,R2         .           ACCESS POINTER TO SDWA
 000816 9200 10FC      000FC       18205    01-SETRP +         MVI   SDWARCDE-SDWA(1),0      .       PUT RC IN SDWA
 00081A 98EC D00C            0000C 18207    02-RETUR +         LM    14,12,12(13)                      RESTORE THE REGISTERS
 00081E 07FE                       18208    02-RETUR +         BR    14                                RETURN
 DROP   *,R12                      18210    1019.              DROP  ,                   Release ESTAE addressability
 DROP   UAREA,R10
 DROP   SDWA,R2
1VSIO     (VSIO00) (09:49) (22MAR04) WIZARD: Channel program translate routine                                              Page   57
0Loc    Object Code    Addr1 Addr2  Stmt Lv Lineno    Source Statement           (Hibal 5, Asmedit 3.3)  HLASM R4.0  2004/03/22 09.49
+___    ______ ____    _____ _____  ____ __ ______    ______ _________
0                                  18253    1021.     ¿þþþþþþþþþþþþþþþþþþþþþþþþþþþþþþþþþþþþþþþþþþþþþþþþþþþþþþþþþþþþþþþþþþþþþÜ
                                   18254    1022.     Ÿ                                                                     Ÿ
                                   18255    1023.     Ÿ  INPUT/OUTPUT TERMINATION ROUTINE                                   Ÿ
                                   18256    1024.     Ÿ                                                                     Ÿ
                                   18257    1025.     Ÿ        1.  Normal channel end                                       Ÿ
                                   18258    1026.     Ÿ        2.  Abnormal channel end                                     Ÿ
                                   18259    1027.     Ÿ        3.  Termination routine                                      Ÿ
                                   18260    1028.     Ÿ                                                                     Ÿ
                                                      ¾þþþþþþþþþþþþþþþþþþþþþþþþþþþþþþþþþþþþþþþþþþþþþþþþþþþþþþþþþþþþþþþþþþþþþ»
-000820                            18262    1034.     IOABN    LABEL ,                       Abnormal channel end appendage
 USING  IOABN,R15                  18264    1035.              USING IOABN,R15               ## addressability
                                   18273    1036.     *        STM   R0,R15,APNSAVE          Save off all registers
                                   18274    1037.     *        LR    R8,R1                   Move IOSB address
                                   18275    1038.     *        USING IOSB,R8                 ## IOSB addr
                                   18276    1039.     *        L     UAR,IOSUSE              Set terminal area address
                                   18277    1040.     *        L     UAR,UDARADR             SET GLOBAL FROM USER AREA
                                   18278    1041.     *        L     BRR,=A(VSIO)            SET COMMON BASE REGISTER
                                   18279    1042.     *        L     R2,IOSERP               Set error proc work area
                                   18280    1043.     *        USING EWA,R2                  ## addr for area
                                   18281    1044.     *        MVC   USAT1SNS,EWASNS         Copy sense bytes
                                   18282    1045.     *        TM    IOSCOD,X'20'            First time through
                                   18283    1046.     *        IF    NZ,BEGIN                Nope -- report temporary
                                   18284    1047.     *        IF    USTIO,'SET USTRC'       Set temporary recursion
                                   18285    1048.     *        SET   USTIO                   Set temporary I/O err occ
                                   18286    1049.     *        MVC   USSTCOD,IOSCOD          Save post code
                                   18287    1050.     *        END   ELSE,BEGIN              Second entry to abn end
                                   18288    1051.     *        SET   USPIO                   Set permanent I/O error
                                   18289    1052.     *        END   ,
                                   18290    1053.     *        LM    R0,R15,APNSAVE          Reset all registers
 000820 1BFF                       18291    1054.              CLEAR R15                 ZERO RETURN CODE
 000822 0B0E                       18295    1055.              BSM   0,R14               And return
0DROP   IOABN,R15                  18297    1057.              DROP  ,                   Release all addressability
1VSIO     (VSIO00) (09:49) (22MAR04) WIZARD: Channel program translate routine                                              Page   58
0Loc    Object Code    Addr1 Addr2  Stmt Lv Lineno    Source Statement           (Hibal 5, Asmedit 3.3)  HLASM R4.0  2004/03/22 09.49
+___    ______ ____    _____ _____  ____ __ ______    ______ _________
0                                  18334    1059.     ¿þþþþþþþþþþþþþþþþþþþþþþþþþþþþþþþþþþþþþþþþþþþþþþþþþþþþþþþþþþþþþþþþþþþþþÜ
                                   18335    1060.     Ÿ                                                                     Ÿ
                                   18336    1061.     Ÿ  Input/Output Post status routine                                   Ÿ
                                   18337    1062.     Ÿ                                                                     Ÿ
                                   18338    1063.     Ÿ  Entry:      This routine is entered in SRB mode                    Ÿ
                                   18339    1064.     Ÿ         R1   Address of the IOSB                                    Ÿ
                                   18340    1065.     Ÿ        R14   Return address                                         Ÿ
                                   18341    1066.     Ÿ        R15   Termination routine entry address                      Ÿ
                                   18342    1067.     Ÿ                                                                     Ÿ
                                   18343    1068.     Ÿ        1.  Post ECB with IOSCOD completion code                     Ÿ
                                   18344    1069.     Ÿ        2.  Q/IPIB something?                                        Ÿ
                                   18345    1070.     Ÿ        3.  Release local lock                                       Ÿ
                                   18346    1071.     Ÿ                                                                     Ÿ
                                                      ¾þþþþþþþþþþþþþþþþþþþþþþþþþþþþþþþþþþþþþþþþþþþþþþþþþþþþþþþþþþþþþþþþþþþþþ»
0000824                            18348    1073.     IOTERM   BEGIN ,                   I/O Termination routine
 USING  IOTERM,R12                 18353  1 1073.01              WITH  (IOTERM,BR)         Addressability to ioterm
 USING  IOSB,R3                    18366  1 1073.02              WITH  (IOSB,R3)           Addressability to iosb
 USING  UAREA,R4                   18379  1 1073.03              WITH  (UAREA,R4)          Addressability to area
 000824 18CF                       18392  1 1073.1               LR    BR,R15              Move terminateion entry address
 000826 1831                       18393  1 1073.11              LR    R3,R1               Move address of iosb
 000828 185E                       18394  1 1074.11              LR    R5,R14              Save IOS return address
 00082A 5840 3020            00020 18395  1 1081.                L     R4,IOSUSE           Set dynamic work area
 00082E B20B 0000/B20A_            18396  1 1082.1               MODESET EXTKEY=ZERO,SAVEKEY=(2)  GET INTO KEY ZERO
 000836 9101 02FB/4780_002FB       18400  1 1082.6               SETLOCK TEST,TYPE=LOCAL,BRANCH=(HELD,LOCKOK)
 000848 58E0 02FC/58DE_      002FC 18410  1 1082.7               SETLOCK OBTAIN,TYPE=LOCAL,MODE=UNCOND,RELATED=WHY
 000852                            18418  1 1082.9    LOCKOK     LABEL ,                   Local lock has been obtained
 000852 94EF 4064      00064       18420  1 1084.                CLEAR USATIO                  Clear I/O outstanding
 000856 41B0 4070            00070 18427  1 1085.                LA    R11,USAT1ECB            Set ECB address
 00085A 43A0 300D            0000D 18428  1 1086.                IC    R10,IOSCOD              Get I/O completion status
 00085E 89A0 0018            00018 18429  1 1087.                SLL   R10,24                  Move over please
 000862 58F0 0010            00010 18430  1 1089.                L     R15,CVTPTR              Get address of CVT
 000866 58F0 F370            00370 18431  1 1090.                L     R15,CVT0PT02-CVT(,R15)  Address of branch enter post
 00086A 0DEF                       18432  1 1091.                BASR  R14,R15                 Post this request complete
000086C 5810 302C/1211       0002C 18434  1 1093.                LT    R1,IOSIPIB              Q/IPIB present?
 000872 4780 C062            00886 18438  1 1094.                IF    NZ,BEGIN                Yep - do something
 000876 1B00                       18449  2 1095.                  CLEAR R0                      Local lock is held
 000878 58F0 0010            00010 18453  2 1096.                  L     R15,CVTPTR              Get CVT address
 00087C 58F0 F07C            0007C 18454  2 1097.                  L     R15,CVTIXAVL-CVT(,R15)  Get vector table
 000880 58F0 F074            00074 18455  2 1098.                  L     R15,IOCQCNT-IOCOM(,R15)
 000884 0DEF                       18456  2 1099.                  BASR  R14,R15                 Update quiesce count
 000886                            18457  1 1100.                END   ,
0000886 58E0 02FC/58DE_      002FC 18462  1 1102.                SETLOCK RELEASE,TYPE=LOCAL,RELATED=WHY
 000890 B20A 2000      00000       18470  1 1103.                MODESET KEYADDR=(2)           Back to normal key
0000894 1BFF                       18474  1 1107.                CLEAR R15                 ZERO RETURN CODE (?)
 000896 0B05                       18478  1 1108.                BSM   0,R5                AND RETURN TO IOS
 DROP   IOTERM,R12                 18479  1 1109.                DROP  ,
 DROP   UAREA,R4
 DROP   IOSB,R3
1VSIO     (VSIO00) (09:49) (22MAR04) WIZARD: Channel program translate routine                                              Page   59
0Loc    Object Code    Addr1 Addr2  Stmt Lv Lineno    Source Statement           (Hibal 5, Asmedit 3.3)  HLASM R4.0  2004/03/22 09.49
+___    ______ ____    _____ _____  ____ __ ______    ______ _________
0                                  18522  1 1109.2    ¿þþþþþþþþþþþþþþþþþþþþþþþþþþþþþþþþþþþþþþþþþþþþþþþþþþþþþþþþþþþþþþþþþþþþþÜ
                                   18523  1 1109.3    Ÿ                                                                     Ÿ
                                   18524  1 1109.4    Ÿ  Define final literal pool which requires addressability from       Ÿ
                                   18525  1 1109.5    Ÿ  the STARTIO routines and require being in fixed non-swappable      Ÿ
                                   18526  1 1109.6    Ÿ  storage.                                                           Ÿ
                                   18527  1 1109.7    Ÿ                                                                     Ÿ
                                          1           ¾þþþþþþþþþþþþþþþþþþþþþþþþþþþþþþþþþþþþþþþþþþþþþþþþþþþþþþþþþþþþþþþþþþþþþ»
-000898                            18529  1 1111.                LTORG ,                   Define appendate literal pool
 000898 0000000C                   18531  1                            =A(12)
 00089C C7969585                   18532  1                            =C'Gone'
-                                  18537  1 1112.1               ¿þþþþþþþþþþþþþþþþþþþþþþþþþþþþþþþþþþþþþþþþþþþþþþþþþþþþþþþþþþþþþÜ
                                   18538  1 1113.                Ÿ  Insure that VSIO resides within a single 4K page.          Ÿ
                                   18539  1 1114.                Ÿ                                                             Ÿ
                                   18540  1 1115.                Ÿ        The following instruction will generate an assembly  Ÿ
                                   18541  1 1116.                Ÿ        error if the VSIO control section exceeds one 4K     Ÿ
                                   18542  1 1117.                Ÿ        page in length.  The page fixing code logic and      Ÿ
                                   18543  1 1118.                Ÿ        buffer management assumes this fact.                 Ÿ
                                          1                      ¾þþþþþþþþþþþþþþþþþþþþþþþþþþþþþþþþþþþþþþþþþþþþþþþþþþþþþþþþþþþþþ»
00008A0 00000000                   18545  1 1120.     VSIOLEN    DC    A(0)                VSIO control section length
 0008A4                008A4 008A0 18546  1 1121.                ORG   VSIOLEN             Overlay csect length
 0008A0 000008A2                   18547  1 1122.                DC    S(0,*-VSIO)         VSIO control section length
 0008A4                008A4 008A4 18548  1 1123.                ORG   ,
1VSIO     (VSIO00) (09:49) (22MAR04) WIZARD: Channel program translate routine                                              Page   60
0Loc    Object Code    Addr1 Addr2  Stmt Lv Lineno    Source Statement           (Hibal 5, Asmedit 3.3)  HLASM R4.0  2004/03/22 09.49
+___    ______ ____    _____ _____  ____ __ ______    ______ _________
0                                  18550  1 1123.02   ¿þþþþþþþþþþþþþþþþþþþþþþþþþþþþþþþþþþþþþþþþþþþþþþþþþþþþþþþþþþþþþþþþþþþþþÜ
                                   18551  1 1123.03   Ÿ                                                                     Ÿ
                                   18552  1 1123.04   Ÿ  VSIO user function routines                                        Ÿ
                                   18553  1 1123.05   Ÿ                                                                     Ÿ
                                          1           ¾þþþþþþþþþþþþþþþþþþþþþþþþþþþþþþþþþþþþþþþþþþþþþþþþþþþþþþþþþþþþþþþþþþþþþ»
0USING  VSIOPRM,R9                 18554  1 1123.06              USING VSIOPRM,VSIOR       Addressability to initial parameter
 USING  VSIO,R11                   18563  1 1123.07              USING VSIO,BRR            Common routine addressability
 USING  UAREA,R10                  18572  1 1123.08              USING UAREA,UAR           Addressability to work area
-                                  18582  1 1123.1    ¿þþþþþþþþþþþþþþþþþþþþþþþþþþþþþþþþþþþþþþþþþþþþþþþþþþþþþþþþþþþþþþþþþþþþþÜ
                                   18583  1 1123.11   Ÿ                                                                     Ÿ
                                   18584  1 1123.12   Ÿ  Read device characteristics                                        Ÿ
                                   18585  1 1123.13   Ÿ                                                                     Ÿ
                                          1           ¾þþþþþþþþþþþþþþþþþþþþþþþþþþþþþþþþþþþþþþþþþþþþþþþþþþþþþþþþþþþþþþþþþþþþþ»
-0008A4 50E0 D000/900C_      00000 18587  1 1123.15   READ_DVC   PROC  ,                   Read device characteristcs
 USING  *,R12
 0008B4 D217 A238 B248 00238 00248 18625  1 1123.16              MVC   USAT1CCW(L'CCWRDC),CCWRDC     Read device char
 0008BA D203 A07C C2B4 0007C 00B68 18626  1 1123.17              MVC   USAT1CCC,=A(L'CCWRDC/8)       Set CCW chain length
 0008C0 4DE0 B278            00278 18627  1 1123.18              LCALL STARTIO             Be brave --- start the I/O
 0008C4 D503 C2B8 9014_00B6C 00014 18629  1 1123.19              IF    (VSIOBUFL,GE,L'USAT1RDC),BEGIN
 0008CE 5810 9018            00018 18646  2 1123.2                 L     R1,VSIOBUFR         Set address of receive buffer
 0008D2 D23F 1000 A0D8 00000 000D8 18647  2 1123.21                MVC   @R1(L'USAT1RDC),USAT1RDC      Return device char.
 0008D8                            18648  1 1123.22              END   ,
 0008D8 D503 C2BC 9014_00B70 00014 18652  1 1123.23              IF    (VSIOBUFL,GE,L'USAT1RDC+L'USAT1SNS),BEGIN
 0008E2 4110 1040            00040 18669  2 1123.24                LA    R1,@R1+L'USAT1RDC             Bump receive address
 0008E6 D23F 1000 A098 00000 00098 18670  2 1123.25                MVC   @R1(L'USAT1SNS),USAT1SNS      Return sense ID
 0008EC                            18671  1 1123.26              END   ,
 0008EC D503 C2C0 9014_00B74 00014 18675  1 1123.27              IF    (VSIOBUFL,GE,L'USAT1RDC+L'USAT1SNS+256),BEGIN
 0008F6 4110 1080            00080 18692  2 1123.28                LA    R1,@R1+L'USAT1RDC+L'USAT1SNS  Bump receive address
 0008FA D23F 1000 A118 00000 00118 18693  2 1123.86                MVC   @R1(L'USAT1RDC),USAT1MBF      Return conf data
 000900                            18694  1 1123.87              END   ,
 000900 1BFF                       18698  1 1123.88              CLEAR R15                 Zero return code
 000902 18D8/980C D004_            18702  1 1123.89              PEND  ,                   Restore registers and return
 DROP   *,R12
-                                         1
                                   18723  1 1123.91   ¿þþþþþþþþþþþþþþþþþþþþþþþþþþþþþþþþþþþþþþþþþþþþþþþþþþþþþþþþþþþþþþþþþþþþþÜ
                                   18724  1 1123.92   Ÿ                                                                     Ÿ
                                   18725  1 1123.93   Ÿ  Function has not been implemented                                  Ÿ
                                   18726  1 1123.94   Ÿ                                                                     Ÿ
                                          1           ¾þþþþþþþþþþþþþþþþþþþþþþþþþþþþþþþþþþþþþþþþþþþþþþþþþþþþþþþþþþþþþþþþþþþþþ»
0000910 50E0 D000/900C_      00000 18728  1 1123.96   NOPE       PROC  ,                   Enter and save registers
 USING  *,R12
 000920 41F0 000C            0000C 18766  1 1123.97              LA    R15,12              ERROR RETURN CODE
 000924 18D8/980C D004_            18767  1 1123.98              PEND  ,                   Restore registers and return
 DROP   *,R12
 DROP   VSIO,R11                   18787  1 1123.99              Drop  ,
 DROP   UAREA,R10
 DROP   VSIOPRM,R9
1VSIO     (VSIO00) (09:49) (22MAR04) WIZARD: Channel program translate routine                                              Page   61
0Loc    Object Code    Addr1 Addr2  Stmt Lv Lineno    Source Statement           (Hibal 5, Asmedit 3.3)  HLASM R4.0  2004/03/22 09.49
+___    ______ ____    _____ _____  ____ __ ______    ______ _________
0                                  18830  1 1125.     ¿þþþþþþþþþþþþþþþþþþþþþþþþþþþþþþþþþþþþþþþþþþþþþþþþþþþþþþþþþþþþþþþþþþþþþÜ
                                   18831  1 1126.     Ÿ                                                                     Ÿ
                                   18832  1 1127.     Ÿ  Find UCB address based on volume serial                            Ÿ
                                   18833  1 1127.1    Ÿ                                                                     Ÿ
                                   18834  1 1127.2    Ÿ  CAUTION: This routine limits the UCB scan to UCB's located below   Ÿ
                                   18835  1 1127.3    Ÿ           the 16M line (!*#@#$)                                     Ÿ
                                   18836  1 1128.     Ÿ                                                                     Ÿ
                                   18837  1 1129.     Ÿ  Entry:      R1 -> Address of 6 character volume serial             Ÿ
                                   18838  1 1130.     Ÿ                                                                     Ÿ
                                   18839  1 1131.     Ÿ  Exit:       R1 -> Address of Unit Control block if located         Ÿ
                                   18840  1 1132.     Ÿ              CC:   Z - Unit control block located                   Ÿ
                                   18841  1 1133.     Ÿ                   NZ - Unable to locate passed volume serial        Ÿ
                                   18842  1 1134.     Ÿ                                                                     Ÿ
                                          1           ¾þþþþþþþþþþþþþþþþþþþþþþþþþþþþþþþþþþþþþþþþþþþþþþþþþþþþþþþþþþþþþþþþþþþþþ»
-000000                00000 00170 18844  1 1136.     UPL        RECORD BEGIN              Ucb-scan parameter list
 000000 00000000                   18852  2 1137.     UPLUCB       DC    A(0)                Ucb receive address
 000004 00000000                   18853  2 1138.     UPLCXPTR     DC    A(0)                Address of UCB common extension
 000008 00000000                   18854  2 1139.     UPLPXPTR     DC    A(0)                Address of UCB prefix extension
 00000C 00000000                   18855  2 1140.     UPLCODE      DC    A(0)                Return code from ucbscan
 000010 00000000                   18856  2 1141.     UPLRSN       DC    A(0)                Reason code from ucbscan
                                   18857  2 1141.1    UPLRETI      EQU   UPLUCB,*-UPLUCB,C'X'    Optional return parameters
 000014 0000000000000000           18858  2 1141.2    UPLIOCT      DC    XL48'00'            IOC Token return
 000044 0000000000000000           18859  2 1142.     UPLWRK       DC    XL100'00'           Work area for ucb scan routine
                                   18860  2 1143.                  UCBScan PLISTVER=MAX,MF=(L,UPLSCAN,0F)
                                   18861  2          +*                   MACDATE -12/13/99-<2>
                                   18863  2 02-00320 +           $$PUSH  PRINT
                                   18865  2 02-00285 +           $$PRINT ON
                                   18866  2 01-UCBSC +M00M1881     EQU   UPLSCAN            ++ UCBSCAN NAME
 0000A8                            18867  2 01-UCBSC +UPLSCAN      DS    0F                 ++ UCBSCAN PARM LIST
 0000A8                            18868  2 01-UCBSC +UPLSCAN_XVERSION     DS XL1           ++ INPUT XVERSION
 0000A9                            18869  2 01-UCBSC +UPLSCAN_XRESERVED1     DS CL1         ++ FIELD_LABEL  XRESERVED1
 0000AA                            18870  2 01-UCBSC +UPLSCAN_XDEVN     DS XL2              ++   XDEVN
 0000AC                            18871  2 01-UCBSC +UPLSCAN_XUCBAREA_ADDR     DS A        ++  ADDR XUCBAREA
 0000B0                            18872  2 01-UCBSC +UPLSCAN_XUCBAREA_ALET     DS F        ++  ALET XUCBAREA
 0000B4                            18873  2 01-UCBSC +UPLSCAN_XWORKAREA_ADDR     DS A       ++  ADDR XWORKAREA
 0000B8                            18874  2 01-UCBSC +UPLSCAN_XWORKAREA_ALET     DS F       ++  ALET XWORKAREA
 0000BC                            18875  2 01-UCBSC +UPLSCAN_XCMXTAREA_ADDR     DS A       ++  ADDR XCMXTAREA
 0000C0                            18876  2 01-UCBSC +UPLSCAN_XCMXTAREA_ALET     DS F       ++  ALET XCMXTAREA
 0000C4                            18877  2 01-UCBSC +UPLSCAN_XUCBPAREA_ADDR     DS A       ++  ADDR XUCBPAREA
 0000C8                            18878  2 01-UCBSC +UPLSCAN_XUCBPAREA_ALET     DS F       ++  ALET XUCBPAREA
 0000CC                            18879  2 01-UCBSC +UPLSCAN_XDEVNCHAR     DS CL4          ++   XDEVNCHAR
 0000D0                            18880  2 01-UCBSC +UPLSCAN_XUCBPTR     DS A              ++   XUCBPTR
 0000D4                            18881  2 01-UCBSC +UPLSCAN_XPTOKEN     DS CL8            ++   XPTOKEN
 0000DC                            18882  2 01-UCBSC +UPLSCAN_XHELP     DS CL8              ++   XHELP
 0000E4                            18883  2 01-UCBSC +UPLSCAN_XCOMPID     DS CL5            ++   XCOMPID
 0000E9                            18884  2 01-UCBSC +UPLSCAN_XFLAGS2     DS BL.8           ++ FIELD_LABEL
                                   18885  2 01-UCBSCC+UPLSCAN_KEYUSED_VOLSER     EQU B'10000000'
                                          2          +                                      ++ KEYUSED.VOLSER KEYWORD
                                   18886  2 01-UCBSCC+UPLSCAN_XNOTFIND_YES     EQU B'01000000'
                                          2          +                                      ++ XNOTFIND.YES KEYWORD
                                   18887  2 01-UCBSCC+UPLSCAN_KEYUSED_UCBCXPTR     EQU B'00100000'
                                          2          +                                      ++ KEYUSED.UCBCXPTR KEYWORD
                                   18888  2 01-UCBSCC+UPLSCAN_KEYUSED_UCBPXPTR     EQU B'00010000'
                                          2          +                                      ++ KEYUSED.UCBPXPTR KEYWORD
1VSIO     (VSIO00) (09:49) (22MAR04) WIZARD: Channel program translate routine                                              Page   62
0Loc    Object Code    Addr1 Addr2  Stmt Lv Lineno    Source Statement           (Hibal 5, Asmedit 3.3)  HLASM R4.0  2004/03/22 09.49
+___    ______ ____    _____ _____  ____ __ ______    ______ _________
00000EA                            18889  2 01-UCBSC +UPLSCAN_XDCELEN     DS XL2            ++   XDCELEN
 0000EC                            18890  2 01-UCBSC +UPLSCAN_XTEXT_ADDR     DS A           ++  ADDR XTEXT
 0000F0                            18891  2 01-UCBSC +UPLSCAN_XTEXT_ALET     DS F           ++  ALET XTEXT
 0000F4                            18892  2 01-UCBSC +UPLSCAN_XEXITADDR     DS A            ++   XEXITADDR
 0000F8                            18893  2 01-UCBSC +UPLSCAN_XEXITDATA     DS CL8          ++   XEXITDATA
 000100                            18894  2 01-UCBSC +UPLSCAN_XIOCTOKEN_ADDR     DS A       ++  ADDR XIOCTOKEN
 000104                            18895  2 01-UCBSC +UPLSCAN_XIOCTOKEN_ALET     DS F       ++  ALET XIOCTOKEN
 000108                            18896  2 01-UCBSC +UPLSCAN_XDEVCLASS     DS XL1          ++  XDEVCLASS
                                   18897  2 01-UCBSC +UPLSCAN_XDEVCLASS_ALL     EQU 0       ++ XDEVCLASS.ALL KEYWORD
                                   18898  2 01-UCBSC +UPLSCAN_XDEVCLASS_TAPE     EQU 128    ++ XDEVCLASS.TAPE KEYWORD
                                   18899  2 01-UCBSC +UPLSCAN_XDEVCLASS_COMM     EQU 64     ++ XDEVCLASS.COMM KEYWORD
                                   18900  2 01-UCBSC +UPLSCAN_XDEVCLASS_DASD     EQU 32     ++ XDEVCLASS.DASD KEYWORD
                                   18901  2 01-UCBSC +UPLSCAN_XDEVCLASS_DISP     EQU 16     ++ XDEVCLASS.DISP KEYWORD
                                   18902  2 01-UCBSC +UPLSCAN_XDEVCLASS_UREC     EQU 8      ++ XDEVCLASS.UREC KEYWORD
                                   18903  2 01-UCBSC +UPLSCAN_XDEVCLASS_CHAR     EQU 4      ++ XDEVCLASS.CHAR KEYWORD
                                   18904  2 01-UCBSC +UPLSCAN_XDEVCLASS_CTC     EQU 65      ++ XDEVCLASS.CTC KEYWORD
 000109                            18905  2 01-UCBSC +UPLSCAN_XSCAN_MASK     DS BL.8        ++ FIELD_LABEL
                                   18906  2 01-UCBSCC+UPLSCAN_XNONBASE_NO     EQU B'10000000'
                                          2          +                                      ++ XNONBASE.NO KEYWORD
                                   18907  2 01-UCBSCC+UPLSCAN_XDYNAMIC_NO     EQU B'01000000'
                                          2          +                                      ++ XDYNAMIC.NO KEYWORD
                                   18908  2 01-UCBSCC+UPLSCAN_XRANGE_3DIGIT     EQU B'00100000'
                                          2          +                                      ++ XRANGE.3DIGIT KEYWORD
                                   18909  2 01-UCBSC +UPLSCAN_XLOC_ANY     EQU B'00010000'  ++ XLOC.ANY KEYWORD
                                   18910  2 01-UCBSCC+UPLSCAN_XUNBOUND_ALIAS_Y    ES EQU B'00000001'
                                          2          +                                      ++ XUNBOUND_ALIAS.YES KEYWORD
 00010A                            18911  2 01-UCBSC +UPLSCAN_XFLAGS     DS BL.8            ++ FIELD_LABEL
                                   18912  2 01-UCBSCC+UPLSCAN_KEYUSED_ADDRESS     EQU B'10000000'
                                          2          +                                      ++ KEYUSED.ADDRESS KEYWORD
                                   18913  2 01-UCBSCC+UPLSCAN_KEYUSED_EXIT     EQU B'01000000'
                                          2          +                                      ++ KEYUSED.EXIT KEYWORD
                                   18914  2 01-UCBSCC+UPLSCAN_KEYUSED_EXITDATA     EQU B'00100000'
                                          2          +                                      ++ KEYUSED.EXITDATA KEYWORD
                                   18915  2 01-UCBSCC+UPLSCAN_KEYUSED_DEVNCHAR     EQU B'00010000'
                                          2          +                                      ++ KEYUSED.DEVNCHAR KEYWORD
                                   18916  2 01-UCBSCC+UPLSCAN_KEYUSED_COMPID     EQU B'00001000'
                                          2          +                                      ++ KEYUSED.COMPID KEYWORD
                                   18917  2 01-UCBSCC+UPLSCAN_KEYUSED_HELP     EQU B'00000100'
                                          2          +                                      ++ KEYUSED.HELP KEYWORD
                                   18918  2 01-UCBSCC+UPLSCAN_KEYUSED_PIN     EQU B'00000010'
                                          2          +                                      ++ KEYUSED.PIN KEYWORD
                                   18919  2 01-UCBSCC+UPLSCAN_KEYUSED_PINPATHS     EQU B'00000001'
                                          2          +                                      ++ KEYUSED.PINPATHS KEYWORD
 00010B                            18920  2 01-UCBSC +UPLSCAN_XDEVCID     DS BL.8           ++   XDEVCID
 00010C                            18921  2 01-UCBSC +UPLSCAN_XDCEAREA     DS A             ++   XDCEAREA
 000110                            18922  2 01-UCBSC +UPLSCAN_XDCEAREA_ALET     DS F        ++  ALET XDCEAREA
 000114                            18923  2 01-UCBSC +UPLSCAN_XVOLSER     DS CL6            ++   XVOLSER
 00011A                            18924  2 01-UCBSC +UPLSCAN_XSCAN_MASK2     DS BL.8       ++ FIELD_LABEL
                                   18925  2 01-UCBSCC+UPLSCAN_XUNBOUND_ALIAS_O    NLY EQU B'10000000'
                                          2          +                                      ++ XUNBOUND_ALIAS.ONLY KEYWORD
 00011B                            18926  2 01-UCBSC +UPLSCAN_XRESERVED4     DS CL1         ++ FIELD_LABEL  XRESERVED4
 00011C                            18927  2 01-UCBSC +UPLSCAN_XUCBCXPTR     DS A            ++   XUCBCXPTR
 000120                            18928  2 01-UCBSC +UPLSCAN_XUCBPXPTR     DS A            ++   XUCBPXPTR
                                   18929  2 01-UCBSC +UPLSCANL     EQU   *-UPLSCAN          ++ LENGTH OF PLIST
0                                  18932  2 02-00425 +           $$POP   PRINT
1VSIO     (VSIO00) (09:49) (22MAR04) WIZARD: Channel program translate routine                                              Page   63
0Loc    Object Code    Addr1 Addr2  Stmt Lv Lineno    Source Statement           (Hibal 5, Asmedit 3.3)  HLASM R4.0  2004/03/22 09.49
+___    ______ ____    _____ _____  ____ __ ______    ______ _________
0                                  18933  2          +*                                            UCBSCAN-2
0                                  18935  2 1143.1                 UCBLook PLISTVER=MAX,MF=(L,UPLLOOK,0F)
                                   18936  2          +*                   MACDATE -12/13/99-<2>
                                   18938  2 02-00320 +           $$PUSH  PRINT
                                   18940  2 02-00285 +           $$PRINT ON
                                   18941  2 01-UCBLO +M00M1885     EQU   UPLLOOK            ++ UCBLOOK NAME
 000124                            18942  2 01-UCBLO +UPLLOOK      DS    0F                 ++ UCBLOOK PARM LIST
 000124                            18943  2 01-UCBLO +UPLLOOK_XVERSION     DS XL1           ++ INPUT XVERSION
 000125                            18944  2 01-UCBLO +UPLLOOK_XRESERVED1     DS CL1         ++ FIELD_LABEL  XRESERVED1
 000126                            18945  2 01-UCBLO +UPLLOOK_XDEVN     DS XL2              ++   XDEVN
 000128                            18946  2 01-UCBLO +UPLLOOK_XDEVNCHAR     DS CL4          ++   XDEVNCHAR
 00012C                            18947  2 01-UCBLO +UPLLOOK_XVOLSER     DS CL6            ++   XVOLSER
 000132                            18948  2 01-UCBLO +UPLLOOK_XDEVCLASS     DS XL1          ++  XDEVCLASS
                                   18949  2 01-UCBLO +UPLLOOK_XDEVCLASS_DASDTA    PE EQU 0  ++ XDEVCLASS.DASDTAPE KEYWORD
                                   18950  2 01-UCBLO +UPLLOOK_XDEVCLASS_TAPE     EQU 1      ++ XDEVCLASS.TAPE KEYWORD
                                   18951  2 01-UCBLO +UPLLOOK_XDEVCLASS_DASD     EQU 2      ++ XDEVCLASS.DASD KEYWORD
 000133                            18952  2 01-UCBLO +UPLLOOK_XRESERVED2     DS BL.8        ++ FIELD_LABEL
                                   18953  2 01-UCBLOC+UPLLOOK_XNOTFIND_YES     EQU B'10000000'
                                          2          +                                      ++ XNOTFIND.YES KEYWORD
 000134                            18954  2 01-UCBLO +UPLLOOK_XUCBPTR     DS A              ++   XUCBPTR
 000138                            18955  2 01-UCBLO +UPLLOOK_XCOMPID     DS CL5            ++   XCOMPID
 00013D                            18956  2 01-UCBLO +UPLLOOK_XMASK     DS BL.8             ++ FIELD_LABEL
                                   18957  2 01-UCBLOC+UPLLOOK_XNONBASE_YES     EQU B'10000000'
                                          2          +                                      ++ XNONBASE.YES KEYWORD
                                   18958  2 01-UCBLOC+UPLLOOK_XDYNAMIC_NO     EQU B'01000000'
                                          2          +                                      ++ XDYNAMIC.NO KEYWORD
                                   18959  2 01-UCBLOC+UPLLOOK_XRANGE_3DIGIT     EQU B'00100000'
                                          2          +                                      ++ XRANGE.3DIGIT KEYWORD
                                   18960  2 01-UCBLO +UPLLOOK_XLOC_ANY     EQU B'00010000'  ++ XLOC.ANY KEYWORD
                                   18961  2 01-UCBLOC+UPLLOOK_XUNBOUND_ALIAS_Y    ES EQU B'00000001'
                                          2          +                                      ++ XUNBOUND_ALIAS.YES KEYWORD
 00013E                            18962  2 01-UCBLO +UPLLOOK_XFLAGS     DS BL.8            ++ FIELD_LABEL
                                   18963  2 01-UCBLOC+UPLLOOK_KEYUSED_DEVN     EQU B'10000000'
                                          2          +                                      ++ KEYUSED.DEVN KEYWORD
                                   18964  2 01-UCBLOC+UPLLOOK_KEYUSED_DEVNCHAR     EQU B'01000000'
                                          2          +                                      ++ KEYUSED.DEVNCHAR KEYWORD
                                   18965  2 01-UCBLOC+UPLLOOK_KEYUSED_VOLSER     EQU B'00100000'
                                          2          +                                      ++ KEYUSED.VOLSER KEYWORD
                                   18966  2 01-UCBLOC+UPLLOOK_KEYUSED_LASTING     EQU B'00010000'
                                          2          +                                      ++ KEYUSED.LASTING KEYWORD
                                   18967  2 01-UCBLOC+UPLLOOK_KEYUSED_COMPID     EQU B'00001000'
                                          2          +                                      ++ KEYUSED.COMPID KEYWORD
                                   18968  2 01-UCBLOC+UPLLOOK_KEYUSED_HELP     EQU B'00000100'
                                          2          +                                      ++ KEYUSED.HELP KEYWORD
                                   18969  2 01-UCBLOC+UPLLOOK_KEYUSED_PIN     EQU B'00000010'
                                          2          +                                      ++ KEYUSED.PIN KEYWORD
                                   18970  2 01-UCBLOC+UPLLOOK_KEYUSED_PINPATHS     EQU B'00000001'
                                          2          +                                      ++ KEYUSED.PINPATHS KEYWORD
 00013F                            18971  2 01-UCBLO +UPLLOOK_XFLAGS2     DS BL.8           ++ FIELD_LABEL
                                   18972  2 01-UCBLOC+UPLLOOK_KEYUSED_UCBCXPTR     EQU B'10000000'
                                          2          +                                      ++ KEYUSED.UCBCXPTR KEYWORD
                                   18973  2 01-UCBLOC+UPLLOOK_KEYUSED_UCBPXPTR     EQU B'01000000'
                                          2          +                                      ++ KEYUSED.UCBPXPTR KEYWORD
 000140                            18974  2 01-UCBLO +UPLLOOK_XTEXT_ADDR     DS A           ++  ADDR XTEXT
 000144                            18975  2 01-UCBLO +UPLLOOK_XTEXT_ALET     DS F           ++  ALET XTEXT
1VSIO     (VSIO00) (09:49) (22MAR04) WIZARD: Channel program translate routine                                              Page   64
0Loc    Object Code    Addr1 Addr2  Stmt Lv Lineno    Source Statement           (Hibal 5, Asmedit 3.3)  HLASM R4.0  2004/03/22 09.49
+___    ______ ____    _____ _____  ____ __ ______    ______ _________
0000148                            18976  2 01-UCBLO +UPLLOOK_XPTOKEN     DS CL8            ++   XPTOKEN
 000150                            18977  2 01-UCBLO +UPLLOOK_XHELP     DS CL8              ++   XHELP
 000158                            18978  2 01-UCBLO +UPLLOOK_XIOCTOKEN_ADDR     DS A       ++  ADDR XIOCTOKEN
 00015C                            18979  2 01-UCBLO +UPLLOOK_XIOCTOKEN_ALET     DS F       ++  ALET XIOCTOKEN
 000160                            18980  2 01-UCBLO +UPLLOOK_XUCBPAREA_ADDR     DS A       ++  ADDR XUCBPAREA
 000164                            18981  2 01-UCBLO +UPLLOOK_XUCBPAREA_ALET     DS F       ++  ALET XUCBPAREA
 000168                            18982  2 01-UCBLO +UPLLOOK_XUCBCXPTR     DS A            ++   XUCBCXPTR
 00016C                            18983  2 01-UCBLO +UPLLOOK_XUCBPXPTR     DS A            ++   XUCBPXPTR
                                   18984  2 01-UCBLO +UPLLOOKL     EQU   *-UPLLOOK          ++ LENGTH OF PLIST
0                                  18987  2 02-00425 +           $$POP   PRINT
                                   18988  2          +*                                            UCBLOOK-2
0000170                00170 00170 18990  1 1144.                END   ,
-000932 50E0 D000/900C_      00000 19000  1 1147.     RETVOLU    XPROC ,                   Enter and save calling registers
 USING  *,R12
 000942 1821                       19039  1 1148.                LR    R2,R1               Set volume serial pointer
 000944 4510 C00A/0000_      0094C 19040  1 1149.                GETMAIN R,LV=L'UPL        Get memory for parameter list
 000952 1831                       19047  1 1150.                LR    R3,R1               Save address
 USING  UPL,R3                     19048  1 1151.                WITH  (UPL,R3)            Addressability to list
 000954 1801                       19061  1 1152.                LR    R0,R1               Copy address for clear
 000956 4110 0170            00170 19062  1 1153.                LA    R1,L'UPL              And length to clear
 00095A 1BFF                       19063  1 1154.                CLEAR R15                     Zero from and pad character
 00095C 0E0E                       19067  1 1155.                MVCL  R0,R14                    Zero workarea
 00095E 4150 0008            00008 19068  1 1156.                LA    R5,8                Return code for Not/Found
 000962                            19069  1 1157.                LOOP  BEGIN               Spin through all DA UCB's
 000962 0700/4510 C02A_            19075  2 1158.                  MODESET MODE=SUP          Enter supervisor state
                                   19082  2 1159.   C              UCBScan ADDRESS,WORKAREA=UPLWRK,UCBPTR=UPLUCB,
                                          2 1160.   C                    UCBCXPTR=UPLCXPTR,UCBPXPTR=UPLPXPTR,
                                          2 1161.   C                    NOPIN,LOC=BELOW,    ***Location below restriction ***
                                          2 1162.   C                    DEVN=0,DYNAMIC=YES,
                                          2 1163.   C                    RANGE=ALL,NONBASE=NO,DEVCLASS=DASD,
                                          2 1164.   C                    RETCODE=UPLCODE,RSNCODE=UPLRSN,
                                          2 1165.   C                    LINKAGE=SYSTEM,PLISTVER=MAX,
 000972 4110 30A8/D77B_      000A8        2 1166.                        MF=(E,UPLSCAN,COMPLETE)
00009C6 0700/4510 C08E_            19112  2 1167.                  MODESET MODE=PROB         Re-enter problem state
 0009D6 5840 300C/1244       0000C 19119  2 1168.                  LT    R4,UPLCODE          Load return code from ucbscan
 0009DC 4770 C0C6            00A08 19123  2 1169.                  IF    Z,BEGIN             Found a UCB, check status,volume
 0009E0 5810 3000            00000 19134  3 1170.                    L     R1,UPLUCB           Load address of base UCB
 USING  UCBOB,R1                   19135  3 1171.                    WITH  (UCBOB,R1)              Addressability to UCB
 0009E4 91FF 1002/47E0_00062       19148  3 1172.                    IF    ~UCBID.UCBSTND,EXIT     UCB identifier is not X'FF'
 0009EC 9180 1003/47E0_00063       19167  3 1173.                    IF    ~UCBSTAT.UCBONLI,EXIT   This device is offline
 0009F4 D505 101C 2000_0007C 00000 19186  3 1174.                    IF    (UCBVOLI,EQ,@R2),BEGIN  Is this the proper volser?
 0009FE 5018 0008            00008 19203  4 1175.                      PRETURN (R1)                  Return parameter register
 000A02 1B55                       19205  4 1176.                      CLEAR R5                      Set for volume found
 000A04 4140 0004            00004 19209  4 1177.                      LA    R4,4                    Terminate search loop
 000A08                            19210  3 1178.                    END   ,
 DROP   UCBOB,R1                   19214  2 1179.                  END   ,
 000A08 1244/4780 C020             19223  1 1180.                UNTIL (R4,NZ),END         Loop through all DASD UCB's
 000A0E 4100 0170            00170 19245  1 1181.                LA    R0,L'UPL            Set length of work area
 000A12 1813                       19246  1 1182.                LR    R1,R3               Move address for freemain
 000A14 4110 1000/0A0A       00000 19247  1 1183.                FREEMAIN R,LV=(0),A=(1)   Release memory
 000A1A 18F5                       19251  1 1184.                LR    R15,R5              Move return code
1VSIO     (VSIO00) (09:49) (22MAR04) WIZARD: Channel program translate routine                                              Page   65
0Loc    Object Code    Addr1 Addr2  Stmt Lv Lineno    Source Statement           (Hibal 5, Asmedit 3.3)  HLASM R4.0  2004/03/22 09.49
+___    ______ ____    _____ _____  ____ __ ______    ______ _________
0000A1C 18D8/980C D004_            19252  1 1185.                PEND  ,                   Return to cc set
 DROP   UPL,R3
 DROP   *,R12
1VSIO     (VSIO00) (09:49) (22MAR04) WIZARD: Channel program translate routine                                              Page   66
0Loc    Object Code    Addr1 Addr2  Stmt Lv Lineno    Source Statement           (Hibal 5, Asmedit 3.3)  HLASM R4.0  2004/03/22 09.49
+___    ______ ____    _____ _____  ____ __ ______    ______ _________
0                                  19278  1 1185.02   ¿þþþþþþþþþþþþþþþþþþþþþþþþþþþþþþþþþþþþþþþþþþþþþþþþþþþþþþþþþþþþþþþþþþþþþÜ
                                   19279  1 1185.03   Ÿ                                                                     Ÿ
                                   19280  1 1185.04   Ÿ  Return UCB address based on 4 hex digit device number              Ÿ
                                   19281  1 1185.05   Ÿ                                                                     Ÿ
                                   19282  1 1185.06   Ÿ  Entry:      R1 -> Address of halfword 4 digit device number        Ÿ
                                   19283  1 1185.07   Ÿ             R15 -> Address of UCB pointers or zero                  Ÿ
                                   19284  1 1185.08   Ÿ                    +0 Address of UCB common segment                 Ÿ
                                   19285  1 1185.09   Ÿ                    +4 Address of UCB common extension               Ÿ
                                   19286  1 1185.1    Ÿ                    +8 Address of UCB prefix extension               Ÿ
                                   19287  1 1185.11   Ÿ                   +12 UCBLOOK return code                           Ÿ
                                   19288  1 1185.12   Ÿ                   +16 UCBLOOK reason code                           Ÿ
                                   19289  1 1185.67   Ÿ                                                                     Ÿ
                                   19290  1 1185.68   Ÿ  Exit:       R1 -> Address of the UCB common segment                Ÿ
                                   19291  1 1185.69   Ÿ                                                                     Ÿ
                                          1           ¾þþþþþþþþþþþþþþþþþþþþþþþþþþþþþþþþþþþþþþþþþþþþþþþþþþþþþþþþþþþþþþþþþþþþþ»
-000A2A 50E0 D000/900C_      00000 19293  1 1185.71   RETUCBA    XPROC ,                   Enter and save calling registers
 USING  *,R12
 000A3A 1821                       19332  1 1185.72              LR    R2,R1               Save address of dev no pointer
 000A3C 183F                       19333  1 1185.73              LR    R3,R15              Save potential return address
 000A3E 0700/4510 C00E_            19334  1 1185.74              GETMAIN R,LV=L'UPL        Get memory for parameter list
 000A4E 1861                       19341  1 1185.75              LR    R6,R1               Save address of parameter list
 USING  UPL,R6                     19342  1 1185.76              WITH  (UPL,R6)            Addressability to parameter list
 000A50 1801                       19355  1 1185.77              LR    R0,R1               Copy address for clear
 000A52 4110 0170            00170 19356  1 1185.78              LA    R1,L'UPL              And length to clear
 000A56 1BFF                       19357  1 1185.79              CLEAR R15                     Zero from and pad character
 000A58 0E0E                       19361  1 1185.8               MVCL  R0,R14                    Zero workarea
 000A5A 0700/4510 C02A_            19362  1 1185.81              MODESET MODE=SUP          Enter supervisor state
                                   19369  1 1185.82 C            UCBLOOK DEVN=(R2),UCBPTR=UPLUCB,UCBCXPTR=UPLCXPTR,
                                          1 1185.83 C                  UCBPXPTR=UPLPXPTR,LOC=ANY,NOPIN,
                                          1 1185.84 C                  DYNAMIC=YES,RANGE=ALL,IOCTOKEN=UPLIOCT,
                                          1 1185.85 C                  LINKAGE=SYSTEM,PLISTVER=MAX,
 000A6A 47F0 C082/4110_      00ABC        1 1185.86                    RETCODE=UPLCODE,RSNCODE=UPLRSN
0000B12 0700/4510 C0E2_            19446  1 1185.87              MODESET MODE=PROB         Return to problem state
 000B22 1233/4780 C0F4             19453  1 1185.88              IF    (R3,NZ),BEGIN       Return all info if requested
 000B28 D213 3000 6000 00000 00000 19467  2 1185.89                MVC   @R3(L'UPLRETI),UPLRETI  Pass back information
 000B2E                            19468  1 1185.9               END   ,
 000B2E 5820 6000            00000 19472  1 1185.91              L     R2,UPLUCB           Retreive ucb common address
 000B32 9834 600C            0000C 19473  1 1185.92              LM    R3,R4,UPLCODE       Retreive return and reason codes
 000B36 1816                       19474  1 1185.93              LR    R1,R6               Address of ucblook work area
 000B38 47F0 C106/0000_      00B40 19475  1 1185.94              FREEMAIN R,LV=L'UPL,A=(1) Return dynamic memory
 000B4A 18F4                       19483  1 1185.95              LR    R15,R4              Setup return code
 000B4C 1803                       19484  1 1185.96              LR    R0,R3               Setup reason code return
 000B4E 1812                       19485  1 1185.97              LR    R1,R2               Pass back ucb address
 000B50 9001 8004            00004 19486  1 1185.98              PRETURN (R0,R1)           Return values
 000B54 18D8/980C D004_            19488  1 1185.99              PEND  ,                   Return to calling routine
 DROP   UPL,R6
 DROP   *,R12
1VSIO     (VSIO00) (09:49) (22MAR04) WIZARD: Channel program translate routine                                              Page   67
0Loc    Object Code    Addr1 Addr2  Stmt Lv Lineno    Source Statement           (Hibal 5, Asmedit 3.3)  HLASM R4.0  2004/03/22 09.49
+___    ______ ____    _____ _____  ____ __ ______    ______ _________
0                                  19514  1 1186.01   ¿þþþþþþþþþþþþþþþþþþþþþþþþþþþþþþþþþþþþþþþþþþþþþþþþþþþþþþþþþþþþþþþþþþþþþÜ
                                   19515  1 1186.02   Ÿ                                                                     Ÿ
                                   19516  1 1186.03   Ÿ Translation tables                                                  Ÿ
                                   19517  1 1186.04   Ÿ        1.  Unprintable table                                        Ÿ
                                   19518  1 1186.05   Ÿ        2.  Binary to HEX                                            Ÿ
                                   19519  1 1186.06   Ÿ        3.  French to English                                        Ÿ
                                   19520  1 1186.07   Ÿ        4.  HEX to German                                            Ÿ
                                   19521  1 1186.08   Ÿ                                                                     Ÿ
                                          1           ¾þþþþþþþþþþþþþþþþþþþþþþþþþþþþþþþþþþþþþþþþþþþþþþþþþþþþþþþþþþþþþþþþþþþþþ»
0000B78                00B78 00FD0 19522  1 1186.09              DATA  BEGIN
-000B78 4B4B4B4B4B4B4B4B           19528  2 1187.01   UNPRT        DC    CL16'................'  00
 000B88 4B4B4B4B4B4B4B4B           19529  2 1187.02                DC    CL16'................'  10
 000B98 4B4B4B4B4B4B4B4B           19530  2 1187.03                DC    CL16'................'  20
 000BA8 4B4B4B4B4B4B4B4B           19531  2 1187.04                DC    CL16'................'  30
 000BB8 404B4B4B4B4B4B4B           19532  2 1187.05                DC    CL16' ...........<(+|'  40
 000BC8 504B4B4B4B4B4B4B           19533  2 1187.06                DC    CL16'&&.........!$*);~' 50
 000BD8 60614B4B4B4B4B4B           19534  2 1187.07                DC    CL16'-/.........,%_>?'  60
 000BE8 4B4B4B4B4B4B4B4B           19535  2 1187.08                DC    CL16'.........`:#@''="' 70
 000BF8 4B81828384858687           19536  2 1187.09                DC    CL16'.abcdefghi......'  80
 000C08 4B91929394959697           19537  2 1187.1                 DC    CL16'.jklmnopqr......'  90
 000C18 4B4BA2A3A4A5A6A7           19538  2 1187.11                DC    CL16'..stuvwxyz......'  A0
 000C28 4B4B4B4B4B4B4B4B           19539  2 1187.12                DC    CL16'................'  B0
 000C38 4BC1C2C3C4C5C6C7           19540  2 1187.13                DC    CL16'.ABCDEFGHI......'  C0
 000C48 4BD1D2D3D4D5D6D7           19541  2 1187.14                DC    CL16'.JKLMNOPQR......'  D0
 000C58 4B4BE2E3E4E5E6E7           19542  2 1187.15                DC    CL16'..STUVWXYZ......'  E0
 000C68 F0F1F2F3F4F5F6F7           19543  2 1187.16                DC    CL16'0123456789......'  F0
0000C78 0004010502060307           19545  2 1187.18   DMPTRT1      DC    AL1(0,4,1,5,2,6,3,7,72,72)          ADDRESS
 000C82 082809290A2A0B2B           19546  2 1187.19                DC    AL1(08,40,09,41,10,42,11,43,72)     WORD 1
 000C8B 0C2C0D2D0E2E0F2F           19547  2 1187.2                 DC    AL1(12,44,13,45,14,46,15,47,72)     WORD 2
 000C94 1030113112321333           19548  2 1187.21                DC    AL1(16,48,17,49,18,50,19,51,72)     WORD 3
 000C9D 1434153516361737           19549  2 1187.22                DC    AL1(20,52,21,53,22,54,23,55,72,72)  WORD 4
 000CA7 183819391A3A1B3B           19550  2 1187.23                DC    AL1(24,56,25,57,26,58,27,59,72)     WORD 5
 000CB0 1C3C1D3D1E3E1F3F           19551  2 1187.24                DC    AL1(28,60,29,61,30,62,31,63,72)     WORD 6
 000CB9 2040214122422343           19552  2 1187.25                DC    AL1(32,64,33,65,34,66,35,67,72)     WORD 7
 000CC2 2444254526462747           19553  2 1187.26                DC    AL1(36,68,37,69,38,70,39,71,72)     WORD 8
                                   19554  2 1187.27   DMPTRT       EQU   DMPTRT1,*-DMPTRT1,C'C'        DEFINE LENGTH
-                                  19556  2 1187.29   ¿þþþþþþþþþþþþþþþþþþþþþþþþþþþþþþþþþþþþþþþþþþþþþþþþþþþþþþþþþþþþþþþþþþþþþÜ
                                   19557  2 1187.3    Ÿ                                                                     Ÿ
                                   19558  2 1187.31   Ÿ  Define HEX or BINARY valid character table                         Ÿ
                                   19559  2 1187.32   Ÿ                                                                     Ÿ
                                          2           ¾þþþþþþþþþþþþþþþþþþþþþþþþþþþþþþþþþþþþþþþþþþþþþþþþþþþþþþþþþþþþþþþþþþþþþ»
0000CCB FFFFFFFFFFFFFFFF           19561  2 1187.34   VLDTBL       DC    XL16'FFFFFFFFFFFFFFFFFFFFFFFFFFFFFFFF' 00
 000CDB FFFFFFFFFFFFFFFF           19562  2 1187.35                DC    XL16'FFFFFFFFFFFFFFFFFFFFFFFFFFFFFFFF' 10
 000CEB FFFFFFFFFFFFFFFF           19563  2 1187.36                DC    XL16'FFFFFFFFFFFFFFFFFFFFFFFFFFFFFFFF' 20
 000CFB FFFFFFFFFFFFFFFF           19564  2 1187.37                DC    XL16'FFFFFFFFFFFFFFFFFFFFFFFFFFFFFFFF' 30
 000D0B FFFFFFFFFFFFFFFF           19565  2 1187.38                DC    XL16'FFFFFFFFFFFFFFFFFFFFFFFFFFFFFFFF' 40
 000D1B FFFFFFFFFFFFFFFF           19566  2 1187.39                DC    XL16'FFFFFFFFFFFFFFFFFFFFFFFFFFFFFFFF' 50
 000D2B FFFFFFFFFFFFFFFF           19567  2 1187.4                 DC    XL16'FFFFFFFFFFFFFFFFFFFFFFFFFFFFFFFF' 60
 000D3B FFFFFFFFFFFFFFFF           19568  2 1187.41                DC    XL16'FFFFFFFFFFFFFFFFFFFFFFFFFFFFFFFF' 70
1VSIO     (VSIO00) (09:49) (22MAR04) WIZARD: Channel program translate routine                                              Page   68
0Loc    Object Code    Addr1 Addr2  Stmt Lv Lineno    Source Statement           (Hibal 5, Asmedit 3.3)  HLASM R4.0  2004/03/22 09.49
+___    ______ ____    _____ _____  ____ __ ______    ______ _________
0000D4B FFFFFFFFFFFFFFFF           19569  2 1187.42                DC    XL16'FFFFFFFFFFFFFFFFFFFFFFFFFFFFFFFF' 80
 000D5B FFFFFFFFFFFFFFFF           19570  2 1187.43                DC    XL16'FFFFFFFFFFFFFFFFFFFFFFFFFFFFFFFF' 90
 000D6B FFFFFFFFFFFFFFFF           19571  2 1187.44                DC    XL16'FFFFFFFFFFFFFFFFFFFFFFFFFFFFFFFF' A0
 000D7B FFFFFFFFFFFFFFFF           19572  2 1187.45                DC    XL16'FFFFFFFFFFFFFFFFFFFFFFFFFFFFFFFF' B0
 000D8B 00000000000000FF           19573  2 1187.46                DC    XL16'00000000000000FFFFFFFFFFFFFFFFFF' C0
 000D9B FFFFFFFFFFFFFFFF           19574  2 1187.47                DC    XL16'FFFFFFFFFFFFFFFFFFFFFFFFFFFFFFFF' D0
 000DAB FFFFFFFFFFFFFFFF           19575  2 1187.48                DC    XL16'FFFFFFFFFFFFFFFFFFFFFFFFFFFFFFFF' E0
 000DBB 0000000000000000           19576  2 1187.49                DC    XL16'00000000000000000000FFFFFFFFFFFF' F0
1VSIO     (VSIO00) (09:49) (22MAR04) WIZARD: Channel program translate routine                                              Page   69
0Loc    Object Code    Addr1 Addr2  Stmt Lv Lineno    Source Statement           (Hibal 5, Asmedit 3.3)  HLASM R4.0  2004/03/22 09.49
+___    ______ ____    _____ _____  ____ __ ______    ______ _________
0                                  19579  2 1187.52   ********************************************************************
                                   19580  2 1187.53   *                                                                  *
                                   19581  2 1187.54   *  Define HEX-TO-BINARY translate table                            *
                                   19582  2 1187.55   *                                                                  *
                                   19583  2 1187.56   ********************************************************************
0000DCB 0000000000000000           19585  2 1187.58   HXTB         DC    XL16'00000000000000000000000000000000' 00
 000DDB 0000000000000000           19586  2 1187.59                DC    XL16'00000000000000000000000000000000' 10
 000DEB 0000000000000000           19587  2 1187.6                 DC    XL16'00000000000000000000000000000000' 20
 000DFB 0000000000000000           19588  2 1187.61                DC    XL16'00000000000000000000000000000000' 30
 000E0B 0000000000000000           19589  2 1187.62                DC    XL16'00000000000000000000000000000000' 40
 000E1B 0000000000000000           19590  2 1187.63                DC    XL16'00000000000000000000000000000000' 50
 000E2B 0000000000000000           19591  2 1187.64                DC    XL16'00000000000000000000000000000000' 60
 000E3B 0000000000000000           19592  2 1187.65                DC    XL16'00000000000000000000000000000000' 70
 000E4B 0000000000000000           19593  2 1187.66                DC    XL16'00000000000000000000000000000000' 80
 000E5B 0000000000000000           19594  2 1187.67                DC    XL16'00000000000000000000000000000000' 90
 000E6B 0000000000000000           19595  2 1187.68                DC    XL16'00000000000000000000000000000000' A0
 000E7B 0000000000000000           19596  2 1187.69                DC    XL16'00000000000000000000000000000000' B0
 000E8B 000A0B0C0D0E0F00           19597  2 1187.7                 DC    XL16'000A0B0C0D0E0F000000000000000000' C0
 000E9B 0000000000000000           19598  2 1187.71                DC    XL16'00000000000000000000000000000000' D0
 000EAB 0000000000000000           19599  2 1187.72                DC    XL16'00000000000000000000000000000000' E0
 000EBB 0001020304050607           19600  2 1187.73                DC    XL16'00010203040506070809000000000000' F0
-000ECB F0F1F2F3F4F5F6F7           19602  2 1187.75   TBLFMT       DC    XL16'F0F1F2F3F4F5F6F7F8F9C1C2C3C4C5C6'
 000EDB F140D96000000000           19603  2 1187.76                DC    XL16'F140D960000000000000000000000000'
 000EEB F200000000000000           19604  2 1187.77                DC    XL16'F2000000000000000000000000000000'
 000EFB F300000000000000           19605  2 1187.78                DC    XL16'F3000000000000000000000000000000'
 000F0B F400000000000000           19606  2 1187.79                DC    XL16'F4000000000000000000000000000000'
 000F1B F500000000000000           19607  2 1187.8                 DC    XL16'F5000000000000000000000000000000'
 000F2B F600000000000000           19608  2 1187.81                DC    XL16'F6000000000000000000000000000000'
 000F3B F700000000000000           19609  2 1187.82                DC    XL16'F7000000000000000000000000000000'
 000F4B F800000000000000           19610  2 1187.83                DC    XL16'F8000000000000000000000000000000'
 000F5B F900000000000000           19611  2 1187.84                DC    XL16'F9000000000000000000000000000000'
 000F6B C100000000000000           19612  2 1187.85                DC    XL16'C1000000000000000000000000000000'
 000F7B C200000000000000           19613  2 1187.86                DC    XL16'C2000000000000000000000000000000'
 000F8B C300000000000000           19614  2 1187.87                DC    XL16'C3000000000000000000000000000000'
 000F9B C400000000000000           19615  2 1187.88                DC    XL16'C4000000000000000000000000000000'
 000FAB C500000000000000           19616  2 1187.89                DC    XL16'C5000000000000000000000000000000'
 000FBB C600000000000000           19617  2 1187.9                 DC    XL16'C6000000000000000000000000000000'
                                   19618  2 1187.91   BTXTB        EQU   TBLFMT-X'F0',16,C'C'
 000B62                008A0 00FD0 19619  1 1187.92              END   ,
1VSIO     (VSIO00) (09:49) (22MAR04) WIZARD: Channel program translate routine                                              Page   70
0Loc    Object Code    Addr1 Addr2  Stmt Lv Lineno    Source Statement           (Hibal 5, Asmedit 3.3)  HLASM R4.0  2004/03/22 09.49
+___    ______ ____    _____ _____  ____ __ ______    ______ _________
0                                  19626  1 1188.98   ¿þþþþþþþþþþþþþþþþþþþþþþþþþþþþþþþþþþþþþþþþþþþþþþþþþþþþþþþþþþþþþþþþþþþþþÜ
                                   19627  1 1188.99   Ÿ                                                                     Ÿ
                                   19628  1 1189.     Ÿ  Define literal pool and generate global status DATA section        Ÿ
                                   19629  1 1190.     Ÿ                                                                     Ÿ
                                          1           ¾þþþþþþþþþþþþþþþþþþþþþþþþþþþþþþþþþþþþþþþþþþþþþþþþþþþþþþþþþþþþþþþþþþþþþ»
-000B68                            19631  1 1192.                LTORG ,                   Define literal pool
 000B68 00000003                   19633  1                            =A(L'CCWRDC/8)
 000B6C 00000040                   19634  1                            =AL4(L'USAT1RDC)
 000B70 00000080                   19635  1                            =AL4(L'USAT1RDC+L'USAT1SNS)
 000B74 00000180                   19636  1                            =AL4(L'USAT1RDC+L'USAT1SNS+256)
-000FD0                00FD0 00FD0 19641  1 1194.                END   .
                                          1
1VSIO     (VSIO00) (09:49) (22MAR04) Ordinary Symbol and Literal Cross Reference                                            Page   71
-Symbol   Length   Value     Id    R Type   Defn References                                  HLASM R4.0  2004/03/22 09.49
0$$$@R0        1 00000000 FFFFFFFE     J     710  1006
 $$$@R10       1 00000000 FFFFFFF4     J     840  1045
 $$$@R11       1 00000000 FFFFFFF3     J     853  1058
 $$$@R12       1 00000000 FFFFFFF2     J     866  1071   1083
 $$$@R13       1 00000000 FFFFFFF1     J     879  1096
 $$$@R14       1 00000000 FFFFFFF0     J     892  1109
 $$$@R8        1 00000000 FFFFFFF6     J     814  1019
 $$$@R9        1 00000000 FFFFFFF5     J     827  1032
 $$$C1VSIO
               1 00000278 00000001     J   16499 16501
 $$$C2VSIO
               1 0000078C 00000001     J   18049 18051
 $$$C3VSIO
               1 000008A0 00000001     J   18533 18535  18997  19623
 $$$C4VSIO
               1 00000FCB 00000001     J   19637 19639
 $$$C5VSIO
               1 00000FD0 00000001     J   19644 19646
 $$$D0VSIO
               1 00000194 00000001     J    1135  1627
 $$$D3VSIO
               1 00000B78 00000001     J   18534 19523
 $$$RCCW       1 00000000 FFFFFFEC     J    1307  1617   1617
 $$$RSNS       1 00000000 FFFFFFED     J    1192  1295   1295
 $$$RSRBIOSB
               1 00000000 FFFFFFB7     J   16045 16063  16063
 $$$RUAREA
               1 00000000 FFFFFFEB     J    1722  1878   1878
 $$$RUPL       1 00000000 FFFFFFB6     J   18846 18996  18996
 $$$RVSIOPRM
               1 00000000 FFFFFFEE     J    1156  1181   1181
 $$$11B        4 00000050 00000001     I   16209 16388
 $$$11F        2 00000114 00000001     H   16385 16209B 16387
 $$$11T        2 00000054 00000001     H   16212 16198B
 $$$13F        2 00000076 00000001     H   16246 16236B
 $$$14F        2 00000114 00000001     H   16381 16371B
 $$$15E        2 00000118 00000001     H   16395 16389
 $$$15F        2 00000132 00000001     H   16425 16391B
 $$$16F        2 0000012A 00000001     H   16419 16409B
 $$$18B        1 00000288 00000001     X   16542 16549U
 $$$19         1 00000070 00000001 A   U   16648 16645  16647
 $$$21B        1 00000316 00000001     X   16684 16691U
 $$$22F        2 00000348 00000001     H   16735 16717B
 $$$23         1 00000070 00000001 A   U   16753 16750  16752
 $$$25B        1 00000366 00000001     X   16789 16796U
 $$$26F        2 00000398 00000001     H   16840 16822B
 $$$27         1 00000070 00000001 A   U   16858 16855  16857
 $$$28F        2 00000412 00000001     H   17014 16984B
 $$$29B        1 000003B6 00000001     X   16896 16903U
 $$$30F        2 00000412 00000001     H   17005 16940B
 $$$31F        2 00000402 00000001     H   16992 16957B
 $$$32F        2 00000402 00000001     H   16988 16976B
 $$$33         1 00000070 00000001 A   U   17023 17020  17022
 $$$35B        1 00000430 00000001     X   17061 17068U
 $$$36F        2 00000464 00000001     H   17116 17098B
1VSIO     (VSIO00) (09:49) (22MAR04) Ordinary Symbol and Literal Cross Reference                                            Page   72
 $$$37         1 00000070 00000001 A   U   17134 17131  17133
 $$$39B        1 00000482 00000001     X   17177 17184U
 $$$40         1 00000070 00000001 A   U   17244 17241  17243
 $$$42B        1 000004D8 00000001     X   17282 17289U
 $$$43         1 00000070 00000001 A   U   17344 17341  17343
 $$$45B        1 00000528 00000001     X   17379 17386U
 $$$46S        2 00000530 00000001     H   17414 17443B
 $$$49F        2 0000058E 00000001     H   17526 17463B
 $$$50F        2 0000058E 00000001     H   17522 17478B
 $$$51S        2 00000572 00000001     H   17492 17513B
 $$$54         1 00000070 00000001 A   U   17560 17557  17559
 $$$56B        1 000005B2 00000001     X   17595 17602U
 $$$57         1 00000070 00000001 A   U   17684 17681  17683
 $$$59B        1 00000632 00000001     X   17715 17722U
 $$$60F        2 00000724 00000001     H   17897 17741B
 $$$66         1 00000070 00000001 A   U   17915 17912  17914
 $$$68B        1 00000742 00000001     X   17948 17955U
 $$$69         1 00000070 00000001 A   U   17993 17990  17992
 $$$70B        1 00000792 00000001     X   18068 18075U
 $$$71F        2 0000079E 00000001     H   18102 18089B
 $$$72F        2 00000814 00000001     H   18196 18135B
 $$$74F        2 00000886 00000001     H   18460 18444B
 $$$76B        1 000008B4 00000001     X   18609 18616U
 $$$77F        2 000008D8 00000001     H   18651 18641B
 $$$78F        2 000008EC 00000001     H   18674 18664B
 $$$79F        2 00000900 00000001     H   18697 18687B
 $$$80         1 00000070 00000001 A   U   18719 18716  18718
 $$$82B        1 00000920 00000001     X   18750 18757U
 $$$83         1 00000070 00000001 A   U   18784 18781  18783
 $$$85B        1 00000942 00000001     X   19023 19030U
 $$$86S        2 00000962 00000001     H   19073 19239B
 $$$87F        2 00000A08 00000001     H   19222 19129B 19161B 19180B
 $$$9B         1 00000022 00000001     X   16103 16110U
 $$$92F        2 00000A08 00000001     H   19213 19198B
 $$$95         1 00000070 00000001 A   U   19274 19271  19273
 $$$97B        1 00000A3A 00000001     X   19316 19323U
 $$$98F        2 00000B2E 00000001     H   19471 19462B
 $$$99         1 00000070 00000001 A   U   19510 19507  19509
 #Z2097A       8 00000A70 00000001     D   19378 19420  19423
 #Z2097AS      2 00000ABC 00000001     H   19422 19376B
 @R0           0 00000000 FFFFFFFE     @     711   987U  6156U 16306U
 @R1           0 00000000 FFFFFFFD     @     724   983U 17544U 17859  17966M 18153M 18647M 18669  18670M 18692  18693M
                                                 19219U
 @R10          0 00000000 FFFFFFF4     @     841   947U 18013U 18227U 18804U
 @R11          0 00000000 FFFFFFF3     @     854   943U 18008U 18799U
 @R12          0 00000000 FFFFFFF2     @     867   939U 16637U 16742U 16847U 17012U 17123U 17233U 17333U 17549U 17673U
                                                 17904U 17982U 18220U 18489U 18708U 18773U 19263U 19499U
 @R13          0 00000000 FFFFFFF1     @     880   935U 16099M 16100  16479  16480  17639M 17649  17778  17779  18062M
 @R14          0 00000000 FFFFFFF0     @     893   931U
 @R15          0 00000000 FFFFFFEF     @     906   927U 16123U 18301U
 @R2           0 00000000 FFFFFFFC     @     737   979U 16312  16335U 16609U 17423U 17425  17494  17497  17894U 18246U
                                                 19197
 @R3           0 00000000 FFFFFFFB     @     750   975U 18513U 19258U 19467M
 @R4           0 00000000 FFFFFFFA     @     763   971U 17495M 17496  17887U 18508U
 @R5           0 00000000 FFFFFFF9     @     776   967U 17819U
 @R6           0 00000000 FFFFFFF8     @     789   963U 19494U
 @R7           0 00000000 FFFFFFF7     @     802   959U
 @R8           0 00000000 FFFFFFF6     @     815   955U
 @R9           0 00000000 FFFFFFF5     @     828   951U 18018U 18809U
1VSIO     (VSIO00) (09:49) (22MAR04) Ordinary Symbol and Literal Cross Reference                                            Page   73
 AHLHEAD       1 00000000 00000000 A   T   13653 13653
 AHLVCCR8      1 00000000 00000000 A   T   14144 14144
 ASCB          1 00000000 FFFFFFD2     J    9310 16701  16806  17808
 ASCBADR       4 0000000C FFFFFFEB     A    1730 16300M 16700  16805  17804
 ASCBASID      2 00000024 FFFFFFD2     H    9347 16701  16806  17808
 ASMVT         1 00000000 00000000 A   T   14033 14033
 BIT0          1 00000080 FFFFFFE7 A   U    3714  3731   3754   3755   4008   4035   4083   4087   4088   4170   4190
                                                  4204   4235
 BIT1          1 00000040 FFFFFFE7 A   U    3715  3732   3756   3758   4038   4083   4085   4086   4088   4171   4192
                                                  4205   4237
 BIT2          1 00000020 FFFFFFE7 A   U    3716  3733   4041   4083   4085   4111   4174   4194   4207   4238
 BIT3          1 00000010 FFFFFFE7 A   U    3717  3734   4042   4089   4100   4113   4114   4176   4195   4209   4240
 BIT4          1 00000008 FFFFFFE7 A   U    3718  3735   4044   4101   4115   4120   4121   4177   4196   4211   4243
 BIT5          1 00000004 FFFFFFE7 A   U    3719  3736   3748   3750   4045   4115   4118   4121   4178   4197   4213
                                                  4244
 BIT6          1 00000002 FFFFFFE7 A   U    3720  3737   3740   3761   3762   4046   4104   4180   4183   4198   4214
                                                  4245
 BIT7          1 00000001 FFFFFFE7 A   U    3721  3737   3739   3740   3763   3768   4048   4105   4180   4184   4199
                                                  4215   4246
 BR           12 0000000C FFFFFFFF A   #    1077 18362U 18392M
 BRR          11 0000000B FFFFFFFF A   #    1052 16116M 16142U 18570U
 CBBRANCH      1 00000000 00000000 A   T   14189 14189
 CCW           8 00000000 FFFFFFEC     J    1617 17406U
 CCWADDR3      3 00000001 FFFFFFEC     R    1315 17422  17427M
 CCWFLAGS      1 00000004 FFFFFFEC     R    1318  1340   1349   1358   1367   1376   1385   1394   1403
 CCWNEXT       1 00000008 FFFFFFEC     U    1322 17428
 CCWOPCDE      1 00000000 FFFFFFEC     X    1314  1330
 CCWRDC       24 00000248 00000001     C    1690 18625  18625  19633
 CCWTRN0       2 00000518 00000001     H   17361 16573B
 CCW1          8 000001E8 00000001     W    1655  1658   1658
 CCW2          8 00000200 00000001     W    1663  1666   1666
 CCW3          8 00000218 00000001     W    1671  1674   1674
 CCW4          8 00000230 00000001     W    1679  1682   1682
 CCW5          8 00000248 00000001     W    1687  1690   1690
 CCW6          8 00000260 00000001     W    1700  1703   1703
 CMDCH        64 00000004 FFFFFFEC         1349  1655   1663   1671   1679   1700   1701
 CRBRANCH      1 00000000 00000000 A   T   13930 13930
 CSAGET        2 00000472 00000001     H   17159 17748B
 CSAREL        2 000004C8 00000001     H   17264 17968B
 CSRTABLE      1 00000000 00000000 A   T   13950 13950
 CSVARMGR      1 00000000 00000000 A   T   13998 13998
 CSVEXIT       1 00000000 00000000 A   T   13871 13871
 CSVLLCB       1 00000000 00000000 A   T   13471 13471
 CSVLLTRM      1 00000000 00000000 A   T   13472 13472
 CSVMEM        1 00000000 00000000 A   T   13699 13699
 CSVVFGET      1 00000000 00000000 A   T   14263 14263
 CSVVFIND      1 00000000 00000000 A   T   14261 14261
 CVT           1 00000000 FFFFFFC5     J   13441 16311  17878  18431  18454
 CVTBRET       2 00000052 FFFFFFC5     H   13496 14009  14088
 CVTIXAVL      4 0000007C FFFFFFC5     V   13535 17645  18454
 CVTMAP        1 00000000 FFFFFFC5     U   13446 17645
 CVTPTR        1 00000010 FFFFFFC6 A   U   13437 16310  17644  17877  18430  18453
 CVTRCZRT      2 000004A4 FFFFFFC5     I   14318 17878
 CVTTCBP       4 00000000 FFFFFFC5     V   13448 16311
 CVTVSTGX      1 00000000 FFFFFFC4     J   14461 14325
 CVTXTNT1      1 00000000 FFFFFFC3     J   14500 13668
 CVTXTNT2      1 00000000 FFFFFFC2     J   14508 13738
 CVT0PT02      4 00000370 FFFFFFC5     V   14134 18431
 CVT4MS1       1 00000010 FFFFFFC5 A   U   13521 13529
1VSIO     (VSIO00) (09:49) (22MAR04) Ordinary Symbol and Literal Cross Reference                                            Page   74
 CVT6DAT       1 00000002 FFFFFFC5 A   U   13525 13529
 DCBBIT0       1 00000080 FFFFFFD0 A   U   10111 10280  10296  10336  10354  10400  10409  10424  10465  10473  10487
                                                 10509  10551  10553  10554  10556  10576  10579  10601  10605  10620
                                                 10657  10713  10739  10777  10781  10800  10906
 DCBBIT1       1 00000040 FFFFFFD0 A   U   10112 10281  10297  10355  10363  10400  10409  10426  10466  10474  10489
                                                 10518  10519  10528  10534  10551  10553  10555  10556  10581  10601
                                                 10603  10605  10623  10624  10625  10660  10661  10713  10741  10783
                                                 10785  10803  10848  10907
 DCBBIT2       1 00000020 FFFFFFD0 A   U   10113 10282  10298  10356  10365  10409  10427  10467  10475  10490  10491
                                                 10492  10518  10519  10523  10529  10534  10551  10552  10557  10583
                                                 10606  10607  10628  10629  10630  10664  10665  10714  10746  10786
                                                 10808  10851  10854  10908
 DCBBIT3       1 00000010 FFFFFFD0 A   U   10114 10235  10283  10299  10370  10411  10428  10468  10490  10492  10493
                                                 10518  10531  10558  10586  10606  10609  10632  10633  10634  10668
                                                 10669  10714  10748  10750  10752  10788  10809  10851  10855
 DCBBIT4       1 00000008 FFFFFFD0 A   U   10115 10236  10300  10371  10414  10429  10476  10532  10533  10534  10559
                                                 10587  10611  10616  10617  10637  10638  10672  10673  10675  10676
                                                 10715  10755  10790  10810  10851  10856
 DCBBIT5       1 00000004 FFFFFFD0 A   U   10116 10238  10301  10373  10415  10429  10477  10539  10562  10563  10589
                                                 10611  10613  10614  10617  10641  10643  10644  10645  10679  10680
                                                 10681  10682  10715  10757  10760  10793  10812  10846
 DCBBIT6       1 00000002 FFFFFFD0 A   U   10117 10240  10270  10284  10302  10375  10416  10432  10469  10541  10542
                                                 10545  10562  10564  10590  10648  10649  10650  10651  10685  10686
                                                 10687  10688  10716  10763  10795  10814  10857
 DCBBIT7       1 00000001 FFFFFFD0 A   U   10118 10242  10270  10285  10379  10418  10433  10470  10541  10543  10545
                                                 10566  10595  10653  10654  10691  10692  10694  10695  10766  10796
                                                 10797  10815  10859  10909
 DCBDCBE       4 00000000 FFFFFFD0     A   10126 10130
 DCBFDAD       8 00000005 FFFFFFD0     C   10142 10144
 DCBOFIOF      1 00000001 FFFFFFD0 A   U   10595 10597
 DCBOFUEX      1 00000002 FFFFFFD0 A   U   10590 10594
 DCBSSID       8 00000000 FFFFFFD0     C   10389 10391
 DCBWTOID      4 00000000 FFFFFFD0     A   10307 10322  10332
 DFAIDTAB      1 00000000 00000000 A   T   14338 14338
 DISPLOCK      1 00000000 00000000 A   T    5257  5257
 DMPTRT1       1 00000C78 00000001     R   19545 19554  19554
 DS1IND01      1 00000001 FFFFFFE3 A   U    4549  4550
 DS1IND02      1 00000002 FFFFFFE3 A   U    4545  4548
 DS1IND04      1 00000004 FFFFFFE3 A   U    4538  4544
 DS1IND10      1 00000010 FFFFFFE3 A   U    4533  4536
 DS1IND40      1 00000040 FFFFFFE3 A   U    4529  4530
 DS4DEVSZ      4 000001B6 FFFFFFE3     X    4727  4728
 DS5AVEXT      5 00000208 FFFFFFE3     X    4808  4819
 DS5EXTAV     35 0000020D FFFFFFE3     X    4813  4819
 DVCMOD1       2 00000014 FFFFFFC6     R   13239 13244  13244
 DVCOVHD       2 00000006 FFFFFFC6     H   13190 13240
 DVCT          1 00000000 FFFFFFC6     J   13183 13218
 DVCTOL        2 0000000A FFFFFFC6     H   13208 13242
 ESTAELST      1 000002A4 FFFFFFEB     R    1831 16350
 ESTROUT       2 0000078C 00000001     H   18061 16498
 EWA           1 00000000 FFFFFFE7     J    3136  3365
 EWADAREA      1 00000020 FFFFFFE7     U    3432  3434   3473   3480   3493   3495   3500   3504   3512   3525   3529
                                                  3540   3547   3559
 EWAERPIB      8 00000010 FFFFFFE7     X    3207  3218   3319   3319
 EWAIERP     184 00000020 FFFFFFE7     X    3334  3366   3378   3431
 FLCEAMDID
               1 000000A3 FFFFFFE2     C    6057  6058   6060
 FLCEFACILITIESLIST
               4 000000C8 FFFFFFE2     C    6087  6088
1VSIO     (VSIO00) (09:49) (22MAR04) Ordinary Symbol and Literal Cross Reference                                            Page   75
 FLCEFACILITIESLISTBYTE0
               1 000000C8 FFFFFFE2     B    6089  6090   6094
 FLCEICOD      2 00000086 FFFFFFE2     H    4997  4998
 FLCENPSW      4 00000058 FFFFFFE2     X    4973  4975
 FLCEOPSW      8 00000018 FFFFFFE2     X    4956  4957
 FLCEPDATA
               4 0000008C FFFFFFE2     C    6008  6009   6025
 FLCEPDATABYTE0
               2 0000008C FFFFFFE2     C    6010  6011   6016
 FLCEPER       8 00000098 FFFFFFE2     C    6050  6051
 FLCEPERATMID
               1 00000097 FFFFFFE2     B    6040  6041
 FLCEPERCODE
               2 00000096 FFFFFFE2     C    6031  6032   6049
 FLCEPERCODE0
               1 00000096 FFFFFFE2     B    6033  6034   6039
 FLCEPICODE
               2 0000008E FFFFFFE2     C    6017  6018
 FLCEPICODE1
               1 0000008F FFFFFFE2     G    6020  6021
 FLCEPIINFORMATION
               4 00000090 FFFFFFE2     C    6026  6027
 FLCEPILC      1 0000008D FFFFFFE2     G    6013  6014
 FLCESAME      8 00000000 FFFFFFE2     D    5990  6119
 FLCESDATA
               4 00000088 FFFFFFE2     C    5998  5999
 FLCESDATABYTE0
               2 00000088 FFFFFFE2     C    6000  6001   6006
 FLCESILC      1 00000089 FFFFFFE2     G    6003  6004
 FLCETEA       8 000000A8 FFFFFFE2     C    6064  6065
 FLCETEASNINFO
               8 000000A8 FFFFFFE2     C    6073  6074
 FLCETEA7      1 000000AF FFFFFFE2     B    6067  6068
 FLCETEID      8 000000A8 FFFFFFE2     C    6062  6063   6072   6077
 FLCETEPCINFO
               8 000000A8 FFFFFFE2     C    6078  6079
 FLCINPSW      4 00000078 FFFFFFE2     X    4987  4989
 FLCIOPSW      8 00000038 FFFFFFE2     X    4965  4966
 FLCIPPSW      8 00000000 FFFFFFE2     C    4946  4949
 FLCMNPSW      4 00000070 FFFFFFE2     X    4983  4986
 FLCMOPSW      8 00000030 FFFFFFE2     X    4963  4964
 FLCPICOD      2 0000008E FFFFFFE2     H    5021  5022
 FLCPIILC      1 0000008D FFFFFFE2     G    5014  5020
 FLCPNPSW      4 00000068 FFFFFFE2     X    4979  4982
 FLCPOPSW      8 00000028 FFFFFFE2     X    4961  4962
 FLCSNPSW      4 00000060 FFFFFFE2     X    4976  4978
 FLCSOPSW      8 00000020 FFFFFFE2     X    4958  4960
 FLCSVCN       2 0000008A FFFFFFE2     H    5008  5011
 FLCSVILC      1 00000089 FFFFFFE2     G    5002  5007
 FMBRANCH      1 00000000 00000000 A   T   14114 14114
 FREESRB       2 00000732 00000001     H   17930 16612B
 FSR           0 00000000 FFFFFFFF A   #    1000 16533  16645M 16675  16750M 16780  16855M 16887  17020M 17052  17131M
                                                 17168  17226M 17241M 17273  17341M 17370  17557M 17586  17681M 17706
                                                 17912M 17939  17990M 18600  18716M 18741  18781M 19014  19204M 19271M
                                                 19307  19487M 19507M
 GENECB        4 00000018 FFFFFFEB     A    1733 16921M 16921  16922  16967  16969M 16969
 GENFLG2       1 00000064 FFFFFFEB     R    1739  1743   1748   1753   1758   1763   1768   1773
 GLBRANCH      1 00000000 00000000 A   T   14020 14020
 GMBRANCH      1 00000000 00000000 A   T   14116 14116
1VSIO     (VSIO00) (09:49) (22MAR04) Ordinary Symbol and Literal Cross Reference                                            Page   76
 GVT           1 00000000 00000000 A   T   13882 13882
 HIBAL         1 00000000 FFFFFFFF     J     696   712    725    738    751    764    777    790    803    816    829
                                                   842    855    868    881    894    907   1008   1021   1034   1047
                                                  1060   1073   1085   1098   1111
 IARBRFCT      1 00000000 00000000 A   T    6300  6300
 IARBRLKP      1 00000000 00000000 A   T    6293  6293
 IARCCDSL      1 00000000 00000000 A   T    6235  6235
 IARCCDSW      1 00000000 00000000 A   T    6292  6292
 IARCJCPY      1 00000000 00000000 A   T    6238  6238
 IARCQMVP      1 00000000 00000000 A   T    6237  6237
 IARDLCON      1 00000000 00000000 A   T    6232  6232
 IARDZLIM      1 00000000 00000000 A   T    6233  6233
 IAREAEXT      1 00000000 00000000 A   T    6229  6229
 IARERCF       1 00000000 00000000 A   T    6196  6196
 IARGIOCM      1 00000000 00000000 A   T    6190  6190
 IARHSCNV      1 00000000 00000000 A   T    6289  6289
 IARIRSRV      1 00000000 00000000 A   T    6296  6296
 IARKCMIT      1 00000000 00000000 A   T    6186  6186
 IARKDIS       1 00000000 00000000 A   T    6185  6185
 IARKGRES      1 00000000 00000000 A   T    6183  6183
 IARKKCHL      1 00000000 00000000 A   T    6275  6275
 IARKQASC      1 00000000 00000000 A   T    6184  6184
 IARKURPR      1 00000000 00000000 A   T    6182  6182
 IARLCMIT      1 00000000 00000000 A   T    6272  6272
 IARLDIS       1 00000000 00000000 A   T    6270  6270
 IARLGRES      1 00000000 00000000 A   T    6266  6266
 IARLNCON      1 00000000 00000000 A   T    6274  6274
 IARLOCHL      1 00000000 00000000 A   T    6277  6277
 IARLQASC      1 00000000 00000000 A   T    6268  6268
 IARMPRSH      1 00000000 00000000 A   T    6172  6172
 IARMPVT       1 00000000 00000000 A   T   13757 13757
 IARMREST      1 00000000 00000000 A   T    6173  6173
 IARMRPCN      1 00000000 00000000 A   T    6170  6170
 IARMRPFT      1 00000000 00000000 A   T    6169  6169
 IARMRRCE      1 00000000 00000000 A   T   14302 14302
 IARMRRIT      1 00000000 00000000 A   T    6168  6168
 IARPIBR       1 00000000 00000000 A   T   14272 14272
 IARPNL        1 00000000 00000000 A   T    6205  6205
 IARPNR        1 00000000 00000000 A   T    6206  6206
 IARPQLB       1 00000000 00000000 A   T    6207  6207
 IARPQLNB      1 00000000 00000000 A   T    6209  6209
 IARPQRB       1 00000000 00000000 A   T    6208  6208
 IARPQRNB      1 00000000 00000000 A   T    6211  6211
 IARPSIF       1 00000000 00000000 A   T    6252  6252
 IARPSIV       1 00000000 00000000 A   T    6192  6192  14096
 IARPSIX       1 00000000 00000000 A   T    6249  6249   6251
 IARPSIY       1 00000000 00000000 A   T    6250  6250
 IARPSXM       1 00000000 00000000 A   T   14245 14245
 IARPZFFR      1 00000000 00000000 A   T    6241  6241
 IARP3PFR      1 00000000 00000000 A   T    6240  6240
 IARP3PFX      1 00000000 00000000 A   T    6239  6239
 IARRRC        1 00000000 00000000 A   T    6298  6298
 IARSIN        1 00000000 00000000 A   T    6224  6224
 IARSOUT       1 00000000 00000000 A   T    6225  6225
 IARSSDEL      1 00000000 00000000 A   T    6201  6201
 IARSURST      1 00000000 00000000 A   T    6228  6228
 IARUALF       1 00000000 00000000 A   T    6222  6222
 IARUCNVT      1 00000000 00000000 A   T    6219  6219
 IARUFP        1 00000000 00000000 A   T    6217  6217
1VSIO     (VSIO00) (09:49) (22MAR04) Ordinary Symbol and Literal Cross Reference                                            Page   77
 IARUINV       1 00000000 00000000 A   T    6227  6227
 IARUMVF       1 00000000 00000000 A   T    6223  6223
 IARUTRV       1 00000000 00000000 A   T    6191  6191
 IARVFRMN      1 00000000 00000000 A   T    6226  6226
 IARWTRV       1 00000000 00000000 A   T    6294  6294
 IARXCNTF      1 00000000 00000000 A   T    6218  6218
 IARXCRMF      1 00000000 00000000 A   T    6195  6195
 IARXIBAD      1 00000000 00000000 A   T    6194  6194
 IARXKEY       1 00000000 00000000 A   T   14203 14203
 IARXPLCK      1 00000000 00000000 A   T    6215  6215
 IARXPRSB      1 00000000 00000000 A   T    6193  6193
 IARXQVDC      1 00000000 00000000 A   T    6234  6234
 IARXRCF       1 00000000 00000000 A   T    6220  6220
 IARXVFA       1 00000000 00000000 A   T    6200  6200
 IARXVIO       1 00000000 00000000 A   T   14097 14097
 IARXWRLS      1 00000000 00000000 A   T    6231  6231
 IARXWVFC      1 00000000 00000000 A   T    6198  6198
 IARXXFP       1 00000000 00000000 A   T    6216  6216
 IARYCFA       1 00000000 00000000 A   T    6290  6290
 IARYLGRP      1 00000000 00000000 A   T    6236  6236
 ICYMMVTC      1 00000000 00000000 A   T   14528 14528
 IDA           4 00000004 FFFFFFEC         1385  1681
 IDA121CV      1 00000000 00000000 A   T   14035 14035
 IEABEND       1 00000000 00000000 A   T   13619 13619
 IEACLTE       1 00000000 00000000 A   T    5579  5579
 IEACVT        1 00000000 00000000 A   T    4953  4953   4968
 IEADQIQE      1 00000000 00000000 A   T   14015 14015
 IEAECVT       1 00000000 00000000 A   T   13544 13544
 IEAGSMQ       1 00000000 00000000 A   T   13992 13992
 IEAIHASU      1 00000000 00000000 A   T   14232 14232
 IEALKPT       1 00000000 00000000 A   T    5572  5572
 IEALSMQ       1 00000000 00000000 A   T   13994 13994
 IEAMASCB      1 00000000 00000000 A   T    5106  5106  13962  13966
 IEAPATCH      1 00000000 00000000 A   T   13627 13627
 IEAPDSRT      1 00000000 00000000 A   T   13890 13890
 IEAPTRV       1 00000000 00000000 A   T   13706 13706
 IEAQCDSR      1 00000000 00000000 A   T   13610 13610
 IEAQCS01      1 00000000 00000000 A   T   14002 14002
 IEAQEX00      1 00000000 00000000 A   T    4974  4974
 IEAQIO00      1 00000000 00000000 A   T    4988  4988
 IEAQLPAQ      1 00000000 00000000 A   T   13611 13611
 IEAQPK00      1 00000000 00000000 A   T    4981  4981
 IEAQSC00      1 00000000 00000000 A   T    4977  4977
 IEAQTD00      1 00000000 00000000 A   T   13507 13507
 IEAQTE00      1 00000000 00000000 A   T   13505 13505
 IEARPOST      1 00000000 00000000 A   T   14017 14017
 IEASMFEX      1 00000000 00000000 A   T   13894 13894
 IEASMFSP      1 00000000 00000000 A   T   14240 14240
 IEASPOST      1 00000000 00000000 A   T   14037 14037
 IEASVDCB      1 00000000 00000000 A   T   13498 13498
 IEATCBP       1 00000000 00000000 A   T   13448 13448
 IEATPC        1 00000000 00000000 A   T   13500 13500
 IEATRSCN      1 00000000 00000000 A   T   13858 13858
 IEAVAR02      1 00000000 00000000 A   T   13942 13942
 IEAVBLDP      1 00000000 00000000 A   T   13926 13926
 IEAVDELP      1 00000000 00000000 A   T   13929 13929
 IEAVEAC0      1 00000000 00000000 A   T   14019 14019
 IEAVEADV      1 00000000 00000000 A   T   14177 14177
 IEAVEDR1      1 00000000 00000000 A   T   14062 14062
1VSIO     (VSIO00) (09:49) (22MAR04) Ordinary Symbol and Literal Cross Reference                                            Page   78
 IEAVELRM      1 00000000 00000000 A   T   14011 14011
 IEAVELT1      1 00000000 00000000 A   T    5343  5343
 IEAVELT2      1 00000000 00000000 A   T    5577  5577
 IEAVENLU      1 00000000 00000000 A   T   14358 14358
 IEAVENQ2      1 00000000 00000000 A   T   14008 14008
 IEAVEQV1      1 00000000 00000000 A   T   14165 14165
 IEAVEQV2      1 00000000 00000000 A   T   14168 14168
 IEAVEQV3      1 00000000 00000000 A   T   14171 14171
 IEAVERI1      1 00000000 00000000 A   T   14064 14064
 IEAVERP1      1 00000000 00000000 A   T   14066 14066
 IEAVERX1      1 00000000 00000000 A   T   14254 14254
 IEAVESC1      1 00000000 00000000 A   T    5869  5869  14193
 IEAVESC2      1 00000000 00000000 A   T    5871  5871
 IEAVESC7      1 00000000 00000000 A   T    5865  5865
 IEAVESC8      1 00000000 00000000 A   T    5867  5867
 IEAVESPR      1 00000000 00000000 A   T   14122 14122
 IEAVESTU      1 00000000 00000000 A   T   14356 14356
 IEAVESVT      1 00000000 00000000 A   T    5873  5873  14128
 IEAVETOT      1 00000000 00000000 A   T    5726  5726
 IEAVETVT      1 00000000 00000000 A   T    5724  5724
 IEAVET6E      1 00000000 00000000 A   T   14228 14228
 IEAVEVT2      1 00000000 00000000 A   T   14182 14182
 IEAVEXPR      1 00000000 00000000 A   T   13990 13990
 IEAVEXP1      1 00000000 00000000 A   T   14159 14159
 IEAVFRCL      1 00000000 00000000 A   T   13928 13928
 IEAVGSDA      1 00000000 00000000 A   T   14173 14173
 IEAVGTCL      1 00000000 00000000 A   T   13927 13927
 IEAVGWSA      1 00000000 00000000 A   T   14022 14022
 IEAVLKRM      1 00000000 00000000 A   T   13729 13729
 IEAVMFRM      1 00000000 00000000 A   T   14107 14107
 IEAVMSGS      1 00000000 00000000 A   T   13676 13676
 IEAVNVT0      1 00000000 00000000 A   T   14341 14341
 IEAVRSTR      1 00000000 00000000 A   T    4948  4948
 IEAVRSUH      1 00000000 00000000 A   T   14220 14220
 IEAVRT03      1 00000000 00000000 A   T   13834 13834
 IEAVSPND      1 00000000 00000000 A   T   14230 14230
 IEAVSTAG      1 00000000 00000000 A   T   13970 13970
 IEAVSVTX      1 00000000 00000000 A   T    5875  5875
 IEAVTCTL      1 00000000 00000000 A   T   14222 14222
 IEAVTEST      1 00000000 00000000 A   T   13733 13733
 IEAVTRGR      1 00000000 00000000 A   T   14030 14030
 IEAVTRG1      1 00000000 00000000 A   T   13479 13479
 IEAVTRV3      1 00000000 00000000 A   T   13726 13726
 IEAVTSBP      1 00000000 00000000 A   T   13976 13976
 IEAVTSFR      1 00000000 00000000 A   T   13697 13697
 IEAVTSGL      1 00000000 00000000 A   T   13974 13974
 IEAVVMSR      1 00000000 00000000 A   T   13755 13755
 IEAVWAIT      1 00000000 00000000 A   T   13997 13997
 IEAVWSAC      1 00000000 00000000 A   T   14028 14028
 IEAVWSAG      1 00000000 00000000 A   T   14026 14026
 IEAVWSAL      1 00000000 00000000 A   T   14024 14024
 IEAVXEXT      1 00000000 00000000 A   T   14105 14105
 IEAVXSFT      1 00000000 00000000 A   T   14072 14072
 IEAVXSTN      1 00000000 00000000 A   T   14078 14078
 IEAVXSTS      1 00000000 00000000 A   T   14076 14076
 IEAVXUNN      1 00000000 00000000 A   T   14101 14101
 IEAVXUNS      1 00000000 00000000 A   T   14080 14080
 IEAWTCB       1 00000000 00000000 A   T   14137 14137
 IEA0DS        1 00000000 00000000 A   T   13543 13543
1VSIO     (VSIO00) (09:49) (22MAR04) Ordinary Symbol and Literal Cross Reference                                            Page   79
 IEA0EF00      1 00000000 00000000 A   T   13449 13449
 IEA0EF01      1 00000000 00000000 A   T   13489 13489
 IEA0PT0E      1 00000000 00000000 A   T   14209 14209
 IEA0PT01      1 00000000 00000000 A   T   13550 13550
 IEA0PT02      1 00000000 00000000 A   T   14134 14134
 IEA0PT03      1 00000000 00000000 A   T   14211 14211
 IEA0VL00      1 00000000 00000000 A   T   13460 13460
 IEA0VL01      1 00000000 00000000 A   T   13867 13867
 IECIXAVL      1 00000000 00000000 A   T   13535 13535
 IECPCNVT      1 00000000 00000000 A   T   13463 13463
 IECPRLTV      1 00000000 00000000 A   T   13467 13467
 IECSDSL1      1 00000000 FFFFFFE3     U    4387  4388
 IECSDSL2      1 0000008C FFFFFFE3     U    4601  4602
 IECSDSL3      1 00000118 FFFFFFE3     U    4659  4660
 IECSDSL4      1 000001A4 FFFFFFE3     U    4674  4675
 IECSDSL5      1 00000204 FFFFFFE3     U    4805  4806
 IECSDSL6      1 00000290 FFFFFFE3     U    4829  4830
 IECVEXCL      1 00000000 00000000 A   T   14099 14099
 IECXAPG       1 00000000 00000000 A   T   13458 13458
 IECXITP       1 00000000 00000000 A   T   13488 13488
 IECXTLER      1 00000000 00000000 A   T   13474 13474
 IEC0SCR1      1 00000000 00000000 A   T   13633 13633
 IEECUCB       1 00000000 00000000 A   T   13504 13504
 IEEMSER       1 00000000 00000000 A   T   13482 13482  13548
 IEEVEXSN      1 00000000 00000000 A   T   13837 13837
 IEEVSTOP      1 00000000 00000000 A   T   14147 14147
 IEFAQTOP      1 00000000 00000000 A   T   13954 13954
 IEFAUSDM      1 00000000 00000000 A   T   13454 13454
 IEFENFDM      1 00000000 00000000 A   T   13613 13613
 IEFJESCT      1 00000000 00000000 A   T   13713 13713
 IEFLINK       1 00000000 00000000 A   T   13451 13451
 IEFQMWR       1 00000000 00000000 A   T   13564 13564
 IEWFBOSV      1 00000000 00000000 A   T   13541 13541
 IEWMSEPT      1 00000000 00000000 A   T   14046 14046
 IFBDCB        1 00000000 00000000 A   T   13530 13530
 IFDOLT0A      1 00000000 00000000 A   T   13892 13892
 IFGDEBVR      1 00000000 00000000 A   T   14523 14523
 IGC043BR      1 00000000 00000000 A   T   13938 13938
 IGC044R2      1 00000000 00000000 A   T   14048 14048
 IGC062R1      1 00000000 00000000 A   T   14018 14018
 IGC07903      1 00000000 00000000 A   T   14163 14163
 IGC124        1 00000000 00000000 A   T   14179 14179
 IGFPMAIN      1 00000000 00000000 A   T    4984  4984
 IGFRVT        1 00000000 00000000 A   T   13628 13628
 IGVCPBDB      1 00000000 00000000 A   T   14294 14294
 IGVCPDLB      1 00000000 00000000 A   T   14296 14296
 IGVCPFRE      1 00000000 00000000 A   T   14286 14286
 IGVCPGTC      1 00000000 00000000 A   T   14284 14284
 IGVCPGUB      1 00000000 00000000 A   T   14278 14278
 IGVCPGUP      1 00000000 00000000 A   T   14281 14281
 IGVCPGUS      1 00000000 00000000 A   T   14304 14304
 IGVGCAS       1 00000000 00000000 A   T   13932 13932
 IGVGFAS       1 00000000 00000000 A   T   13936 13936
 IGVGRRGN      1 00000000 00000000 A   T   14308 14308
 IGVGVRGN      1 00000000 00000000 A   T   14310 14310
 IGVQSPET      1 00000000 00000000 A   T   13934 13934
 IGVSLIST      1 00000000 00000000 A   T   14288 14288
 IGVSLOC       1 00000000 00000000 A   T   14292 14292
 IGVSREGN      1 00000000 00000000 A   T   14290 14290
1VSIO     (VSIO00) (09:49) (22MAR04) Ordinary Symbol and Literal Cross Reference                                            Page   80
 IGVSTSKI      1 00000000 00000000 A   T   14275 14275
 IHADCB        1 00000000 FFFFFFD0     J   10101 10181  10218  10246  10276  10306  10388  10447  10497  10572  10699
                                                 10704  10719  10725  10734  10834  10837  10842  10867  10885  10886
                                                 10890  10926  10927  11782  12008  12168  12392  12506  12536
 IHAMPL        1 00000000 00000000 A   T    5062  5062
 IHA1623B      2 00000848 00000001     H   18409 18405B
 IHB0511C      2 00000060 00000001     H   16223 16218B
 IHB0511F      1 0000005C 00000001     B   16219 16224
 IHB0527C      2 0000009C 00000001     H   16268 16263B
 IHB0527F      1 00000098 00000001     B   16264 16269
 IHB0826A      2 000003D0 00000001     H   16926 16924B
 IHB0826Z      4 000003CC 00000001     A   16925 16927
 IHB0911A      2 00000440 00000001     H   17083 17081B
 IHB0911Z      4 0000043C 00000001     A   17082 17085
 IHB0970B      4 00000494 00000001     F   17208 17204B
 IHB0970F      1 00000490 00000001     B   17205 17211
 IHB1019B      4 000004E8 00000001     F   17309 17305B
 IHB1019F      1 000004E4 00000001     B   17306 17312
 IHB1485B      4 000007DC 00000001     F   18161 18157B
 IHB1485F      1 000007D8 00000001     B   18158 18164
 ILRJTERM      1 00000000 00000000 A   T   14217 14217
 INITSRB       2 00000622 00000001     H   17697 16575B
 IOABN         2 00000820 00000001     H   18263 18271U
 IOCENDW       1 00000044 FFFFFFBF     U   15191 15132
 IOCIOCW       4 00000000 FFFFFFBF     C   15129 15132
 IOCOM         1 00000000 FFFFFFC0     J   14951 14952  17646  18455
 IOCQCNT       4 00000074 FFFFFFC0     A   15014 18455
 IOCSTIO       4 0000001C FFFFFFC0     A   14971 17646
 IOSABN        4 00000040 FFFFFFE9     A    2627 17880M
 IOSACHN       1 000000C0 FFFFFFE9 A   U    2303 17846
 IOSASID       2 00000006 FFFFFFE9     H    2428 17866M
 IOSATTSN     40 0000002C FFFFFFE9     X    2686  2687
 IOSB          1 00000000 FFFFFFE9     J    2294  2806  16056  16596U 17830U 17841M 17841  18375U
 IOSBAREA    108 0000003C FFFFFFB7     X   16056 16586  17794
 IOSBSIZE      1 0000006C FFFFFFE9 A   U    2806 17840
 IOSCCWAD      4 00000014 FFFFFFE9     A    2539  2540
 IOSCOD        1 0000000D FFFFFFE9     X    2440 16601  18428
 IOSCSW        7 00000015 FFFFFFE9     X    2545  2546   2573   2573
 IOSCTCDW      8 00000060 FFFFFFE9     D    2676  2677   2679   2679
 IOSDVRID      1 00000004 FFFFFFE9     X    2366 17865M
 IOSEEK        8 0000005C FFFFFFE9     C    2655 17861M
 IOSEEKA       8 00000064 FFFFFFE9     C    2659  2660   2675  17862M
 IOSEND        1 0000006C FFFFFFE9     U    2670  2717   2806  16056
 IOSFCSW       8 00000014 FFFFFFE9     X    2538 16602
 IOSFLA        1 00000000 FFFFFFE9     X    2299 17848M
 IOSFLB        1 00000001 FFFFFFE9     X    2315 17856M
 IOSIONRD      1 00000008 FFFFFFE9 A   U    2320 17854
 IOSIPIB       4 0000002C FFFFFFE9     A    2615 18436
 IOSLCL        1 00000008 FFFFFFE9 A   U    2434 17872
 IOSLOCK       1 00000000 00000000 A   T    5287  5287
 IOSMISID      1 00000001 FFFFFFE9 A   U    2369 17865
 IOSNRM        4 0000003C FFFFFFE9     A    2626 17879M
 IOSPCHN       4 00000030 FFFFFFE9     A    2617  2618
 IOSPGAD       4 00000008 FFFFFFE9     A    2430 17876M
 IOSPKEY       1 0000000C FFFFFFE9     X    2432 17867M 17874M
 IOSRST        4 00000048 FFFFFFE9     A    2632 17860M
 IOSSECT       1 0000002C FFFFFFE9     U    2613  2685   2713
 IOSSRB        4 0000001C FFFFFFE9     A    2576 17849M
 IOSTATUS      2 00000018 FFFFFFE9     X    2548  2549
1VSIO     (VSIO00) (09:49) (22MAR04) Ordinary Symbol and Literal Cross Reference                                            Page   81
 IOSTSA        1 00000018 FFFFFFE9     X    2550  2551
 IOSTSB        1 00000019 FFFFFFE9     X    2561  2562
 IOSUCB        4 00000010 FFFFFFE9     A    2529 17863M
 IOSUSE        4 00000020 FFFFFFE9     A    2577 17864M 18395
 IOSVDEVN      1 00000000 00000000 A   T   14234 14234
 IOSVHID       1 00000000 00000000 A   T   14244 14244
 IOSVST        4 0000004C FFFFFFE9     A    2633 17858M
 IOSVSUCB      1 00000000 00000000 A   T   14247 14247
 IOTERM        2 00000824 00000001     H   18350 18047  18362U
 IRAB0712      1 0000032C 00000001     U   16707 16705B
 IRAB0766      1 0000037C 00000001     U   16812 16810B
 IRAC0712      2 0000032A 00000001     R   16706 16704
 IRAC0766      2 0000037A 00000001     R   16811 16809
 IRARMCNS      1 00000000 00000000 A   T   13988 13988
 IRARMEPS      1 00000000 00000000 A   T   14206 14206
 IRARMI00      1 00000000 00000000 A   T   13945 13945
 IRBEND        4 000000A0 FFFFFFE6     F    4143  4269   4274   4285
 ISNBRNCH      1 00000000 00000000 A   T   14103 14103
 JESCT         1 00000000 FFFFFFC9     J   12909 13094
 LOCKOK        2 00000852 00000001     H   18419 18408B
 LSR          12 0000000C FFFFFFFF A   #    1065 16533  16645M 16675  16750M 16780  16855M 16887  17020M 17052  17131M
                                                 17168  17241M 17273  17341M 17370  17557M 17586  17681M 17706  17912M
                                                 17939  17990M 18600  18716M 18741  18781M 19014  19271M 19307  19507M
 MODEPRB       4 000001E0 00000001     F    1641 16625
 MODESUP       4 000001DC 00000001     F    1637 16560
 MXCCW         1 00000008 FFFFFFFF A   U    1120  1806
 MXIDAL        1 00000008 FFFFFFFF A   U    1119  1810
 NOPE          2 00000910 00000001     H   18732 16448  16450  16451
 OPTLOCK       1 00000000 00000000 A   T    5268  5268
 ORB           1 00000000 FFFFFFE8     J    2921  2998
 ORBBASIC     12 00000000 FFFFFFE8     X    2927  2971
 ORBBEND       4 0000000C FFFFFFE8     F    2970  2971
 ORBEND        4 00000020 FFFFFFE8     F    2997  2998
 PAVE          1 00000000 00000000 A   T   15189 15189
 PGFIX         2 000003A6 00000001     H   16878 16567B 16571B
 PGFREE        2 00000420 00000001     H   17043 16616B 16620B
 PRBEND        4 000000A8 FFFFFFE6     F    4158  4282
 PSA           1 00000000 FFFFFFE2     J    4944  4942U  5890   6120  16297U 17624  17657  18404  18406  18406  18415
                                                 18467
 PSAAOLD       4 00000224 FFFFFFE2     A    5109 16299
 PSACLHS       4 000002F8 FFFFFFE2     F    5307 18404
 PSADTSAV      8 000006C0 FFFFFFE2     D    5690  5693   5694
 PSAEMS2S      4 0000026C FFFFFFE2     F    5223  5227
 PSAFZERO      4 000004A8 FFFFFFE2     F    5568 18406
 PSAGSAV      64 000008A8 FFFFFFE2     X    5775  5777   5778
 PSAIPCIN      4 00000268 FFFFFFE2     F    5216  5220
 PSAJSTSA     64 00000998 FFFFFFE2     X    5824  5828   5829
 PSALITA       4 000002FC FFFFFFE2     V    5343 17624  17657  18415  18467
 PSALOCAL      4 000002EC FFFFFFE2     A    5299 18406
 PSARTM1R      4 000003FC FFFFFFE2     F    5450  5455
 PSARV7E8      4 000007E8 FFFFFFE2     X    5706  5707   5708
 PSASLSA      72 00000950 FFFFFFE2     X    5816  5822   5823
 PSASTOSM      4 00000270 FFFFFFE2     F    5230  5239
 PSATNEW       4 00000218 FFFFFFE2     A    5100  5103
 PSWKEY        1 00000065 FFFFFFEB     B    1777 16328M 17810  17867
 PVTEXT        1 00000000 00000000 A   T    6171  6171
 PVTVVTAB      1 00000000 00000000 A   T    6180  6180
 RAR          14 0000000E FFFFFFFF A   #    1103 16440M 16441M 16441  16442M 16442B 16530  16563M 16567M 16571M 16573M
                                                 16575M 16577M 16612M 16616M 16620M 16622M 16647M 16650B 16672  16752M
1VSIO     (VSIO00) (09:49) (22MAR04) Ordinary Symbol and Literal Cross Reference                                            Page   82
                                                 16755B 16777  16857M 16860B 16884  17022M 17025B 17049  17133M 17136B
                                                 17165  17243M 17246B 17270  17343M 17346B 17367  17559M 17562B 17583
                                                 17683M 17686B 17703  17748M 17914M 17917B 17936  17968M 17992M 17995B
                                                 18597  18628M 18718M 18721B 18738  18783M 18786B 19011  19273M 19276B
                                                 19304  19509M 19512B
 RBEP          4 0000004C FFFFFFE6     A    4125  4232
 RBPGMQ        4 00000058 FFFFFFE6     A    4133  4250   4259   4264
 RBPREFIX      1 00000000 FFFFFFE6     U    3956  4279
 RBPRFX        1 00000000 FFFFFFE6     J    3723  3954
 RBPRFXND      1 00000040 FFFFFFE6     C    4067  4279   4281
 RBPRFXST      8 00000020 FFFFFFE6     D    3996  4281   4282   4283   4284   4285   4287
 RC_INVP       1 00000014 FFFFFFFF A   U    1125 16163
 RC_MEM        1 00000010 FFFFFFFF A   U    1124 16241
 RC_STAE       1 00000018 FFFFFFFF A   U    1126 16376
 RDCT          1 00000012 FFFFFFEC A   C    1579  1673
 RD0           1 00000016 FFFFFFEC A   C    1575  1701
 READ_DVC      2 000008A4 00000001     H   18591 16449
 RETCODE       4 0000001C FFFFFFEB     A    1734 16376M 16439M 16439  16463
 RETSETRC      2 00000158 00000001     H   16462 16377B 16443B
 RETUCBA       2 00000A2A 00000001     H   19298 19294
 RETURN        2 00000162 00000001     H   16478 16178B 16242B 16415B
 RETVOLU       2 00000932 00000001     H   19005 19001
 RHA           1 0000001A FFFFFFEC A   C    1574  1700
 RKD           1 0000000E FFFFFFEC A   C    1576  1657   1665   1681
 RMBRANCH      1 00000000 00000000 A   T   14113 14113
 RMLT          1 0000005E FFFFFFEC A   C    1580  1702
 RSMLOCK       1 00000000 00000000 A   T    5280  5280
 R0            0 00000000 FFFFFFFF A   #     704 16112M 16114  16214M 16249M 16255M 16259M 16274M 16280M 16297U 16480M
                                                 16565M 16569M 16614M 16618M 16701M 16806M 16912  16922M 17077  17395M
                                                 17429M 17483M 17484M 17485M 17499M 17639  17649M 17746M 17964M 18088
                                                 18113  18152M 18452M 18452  19061M 19067M 19245M 19355M 19361M 19484M
                                                 19487  19487M
 R1            1 00000001 FFFFFFFF A   #     717 16117  16247  16249  16250M 16272  16273  16274  16275M 16310M 16311
                                                 16564M 16568M 16613M 16617M 16700M 16701  16710  16805M 16806  16815
                                                 16913  17078  17226  17226M 17396M 17406U 17428M 17470M 17471M 17471
                                                 17640M 17641M 17641  17749  17750  17857M 17858  17859M 17860  17965M
                                                 18103  18151M 18393  18436M 18437M 18437  18646M 18669M 18692M 19039
                                                 19047  19061  19062M 19134M 19144U 19204  19204M 19246M 19332  19341
                                                 19355  19356M 19474M 19485M 19487
 R10          10 0000000A FFFFFFFF A   #     834 18428M 18429M
 R11          11 0000000B FFFFFFFF A   #     847 18427M
 R12          12 0000000C FFFFFFFF A   #     860 16099  16480M 18062
 R13          13 0000000D FFFFFFFF A   #     873 16100M 16258  17774
 R14          14 0000000E FFFFFFFF A   #     886 16099  16255M 16280M 16479M 16482B 17806M 17807  17808M 17809  17866
                                                 18062  18098B 18295B 18394  18432M 18456M 19067M 19361M
 R15          15 0000000F FFFFFFFF A   #     899 16101M 16110U 16163M 16235M 16235  16241M 16254M 16254  16279M 16279
                                                 16299M 16300  16370M 16370  16414M 16463M 16470M 16470  16481M 16481
                                                 16630M 16630  16649M 16649  16709M 16710M 16754M 16754  16814M 16815M
                                                 16859M 16859  16939M 16939  16956  17024M 17024  17097M 17097  17135M
                                                 17135  17245M 17245  17345M 17345  17537M 17537  17561M 17561  17639
                                                 17649M 17685M 17685  17804M 17805  17808  17875M 17876  17877M 17878M
                                                 17878  17879  17880  17916M 17916  17994M 17994  18097M 18097  18271U
                                                 18294M 18294  18392  18430M 18431M 18431  18432B 18453M 18454M 18454
                                                 18455M 18455  18456B 18477M 18477  18701M 18701  18720M 18720  18766M
                                                 18785M 18785  19066M 19066  19251M 19275M 19275  19333  19360M 19360
                                                 19483M 19511M 19511
 R2            2 00000002 FFFFFFFF A   #     730 16113M 16114M 16115B 16311M 16312M 16322U 16327  16344M 16351  16585M
                                                 16586M 16586  16596U 16912M 16913M 16914M 17077M 17078M 17079M 17086
                                                 17196M 17196  17422M 17424M 17425M 17427  17487M 17497M 17498M 17750M
1VSIO     (VSIO00) (09:49) (22MAR04) Ordinary Symbol and Literal Cross Reference                                            Page   83
                                                 17760U 18103M 18111U 18204  19039M 19332M 19426  19472M 19485
 R3            3 00000003 FFFFFFFF A   #     743 17494M 17495  18113M 18375U 18393M 19047M 19057U 19246  19333M 19461M
                                                 19461  19473M 19484
 R4            4 00000004 FFFFFFFF A   #     756 17486M 17496M 17794M 17811M 17812  17830U 18388U 18395M 19121M 19122M
                                                 19122  19209M 19236M 19236  19473M 19483
 R5            5 00000005 FFFFFFFF A   #     769 17733M 17734M 17734  17789U 17795M 17811  17849  18394M 18478B 19068M
                                                 19208M 19208  19251
 R6            6 00000006 FFFFFFFF A   #     782 19341M 19351U 19474
 SALCLOCK      1 00000000 00000000 A   T    5260  5260
 SDWA          1 00000000 FFFFFFDC     J    7462  8458   9201  18111U 18205M
 SDWACLEN      8 000001C8 FFFFFFD4 A   U    8461  8468   8469
 SDWADEND      8 000000F0 FFFFFFD4     D    8455  8465
 SDWADLEN      8 000000F0 FFFFFFD4 A   U    8465  8466
 SDWAEEND      8 00000150 FFFFFFD8     D    8406  8467
 SDWAELEN      8 00000150 FFFFFFD4 A   U    8467  8468   8469   8476
 SDWAEND       8 00000298 FFFFFFDC     D    8101  8458
 SDWAIEND      8 00000010 FFFFFFDA     D    8328  8462
 SDWAILEN      8 00000010 FFFFFFD4 A   U    8462  8468   8469
 SDWALEN       8 00000298 FFFFFFD4 A   U    8458  8469
 SDWALEND      8 00000020 FFFFFFD9     D    8376  8463
 SDWALLEN      8 00000020 FFFFFFD4 A   U    8463  8468   8469
 SDWAMLEN      8 00000600 FFFFFFD4 A   U    8470  8473   8479
 SDWAMLNP      8 000005E0 FFFFFFD4 A   U    8469  8470
 SDWANLNS      8 000001F0 FFFFFFD4 A   U    8466  8473   8481
 SDWANOPR      1 00000000 FFFFFFD4 A   U    8484 18200B
 SDWANRC1      1 00000000 FFFFFFD6     J    8430  8460
 SDWANRC2      1 00000000 FFFFFFD5     J    8439  8464
 SDWANRC3      1 00000000 FFFFFFD4     J    8452  8465
 SDWAPARM      4 00000000 FFFFFFDC     A    7464 18115
 SDWAPEND      8 00000020 FFFFFFD7     D    8424  8459
 SDWAPLEN      8 00000020 FFFFFFD4 A   U    8459  8470
 SDWAPTRS      1 00000000 FFFFFFD7     J    8415  8459
 SDWARCDE      1 000000FC FFFFFFDC     B    7895 18205M
 SDWARC1       1 00000000 FFFFFFDB     J    8103  8461
 SDWARC2       1 00000000 FFFFFFDA     J    8322  8462
 SDWARC3       1 00000000 FFFFFFD9     J    8334  8463
 SDWARC4       1 00000000 FFFFFFD8     J    8384  8467
 SDWAREND      8 000000F0 FFFFFFD6     D    8432  8460
 SDWARLEN      8 000000F0 FFFFFFD4 A   U    8460  8466
 SDWASEN       8 00000010 FFFFFFD5     D    8445  8464
 SDWASEND      8 000001C8 FFFFFFDB     D    8316  8461
 SDWASLEN      8 00000710 FFFFFFD4 A   U    8479  8481
 SDWASPL       8 00000010 FFFFFFD4 A   U    8464  8466
 SDWATLEN      8 000007F0 FFFFFFD4 A   U    8473  8476
 SDWATRAN      4 00000074 FFFFFFDC     A    7624  7626
 SIDEQ         1 00000031 FFFFFFEC A   C    1603  1655   1663   1671   1679
 SIODAT        4 00000004 FFFFFFB7     P   16052 17779M
 SIOSID        4 00000000 FFFFFFB7     C   16051 17777M
 SIOTIM        8 00000008 FFFFFFB7     P   16053 17778M
 SIRBEND       4 000000E8 FFFFFFE6     F    4221  4283
 SKI          16 00000004 FFFFFFEC         1367  1702
 SLI          32 00000004 FFFFFFEC         1358  1657   1665   1673   1702
 SNOSWP        2 00000306 00000001     H   16666 16563B
 SNS0          1 00000000 FFFFFFED     R    1201  1205   1210   1215   1220   1225   1230   1235   1240
 SNS1          1 00000001 FFFFFFED     R    1246  1250   1255   1260   1265   1270   1275   1280   1285
 SOKSWP        2 00000356 00000001     H   16771 16622B
 SPR          13 0000000D FFFFFFFF A   #    1090 16273M 16420  16421M 16471M 16530  16533  16534  16535M 16535  16641M
                                                 16645  16647  16672  16675  16676  16677M 16677  16746M 16750  16752
                                                 16777  16780  16781  16782M 16782  16851M 16855  16857  16884  16887
1VSIO     (VSIO00) (09:49) (22MAR04) Ordinary Symbol and Literal Cross Reference                                            Page   84
                                                 16888  16889M 16889  17016M 17020  17022  17049  17052  17053  17054M
                                                 17054  17127M 17131  17133  17165  17168  17169  17170M 17170  17237M
                                                 17241  17243  17270  17273  17274  17275M 17275  17337M 17341  17343
                                                 17367  17370  17371  17372M 17372  17553M 17557  17559  17583  17586
                                                 17587  17588M 17588  17677M 17681  17683  17703  17706  17707  17708M
                                                 17708  17908M 17912  17914  17936  17939  17940  17941M 17941  17986M
                                                 17990  17992  18597  18600  18601  18602M 18602  18712M 18716  18718
                                                 18738  18741  18742  18743M 18743  18777M 18781  18783  19011  19014
                                                 19015  19016M 19016  19267M 19271  19273  19304  19307  19308  19309M
                                                 19309  19503M 19507  19509
 SRB           4 00000000 FFFFFFEA     A    1995 17789U 17802M 17802
 SRBAREA      44 00000010 FFFFFFB7     X   16055 17641  17795
 SRBASCB       4 00000008 FFFFFFEA     A    1999 17805M
 SRBEND        4 0000002C FFFFFFEA     F    2061  2062
 SRBID         4 00000000 FFFFFFEA     C    1996 17803M
 SRBIOSB     168 00000000 FFFFFFB7     J   16063 16586  17641  17746  17760U 17964  18152
 SRBPARM       4 0000001C FFFFFFEA     A    2017 17812M
 SRBPASID      2 0000000E FFFFFFEA     H    2004 17809M
 SRBPKF        1 00000024 FFFFFFEA     B    2024 17810M
 SRBPTCB       4 00000010 FFFFFFEA     A    2005 17807M
 SRBSECT       1 00000000 FFFFFFEA     J    1994  2062
 SRBSIZE       4 0000002C FFFFFFEA A   U    2062 16055  17801  17811
 SRTEASCI      1 00000004 FFFFFFD0 A   U   11887 11888
 SRTEBSTR      1 00000004 FFFFFFD0 A   U   11886 11889
 STARTIO       2 00000278 00000001     H   16524 18628B
 STCKADDR      4 00000014 FFFFFFEB     A    1732 16272M 16421
 STCKSZ        1 00001000 FFFFFFFF A   U    1118 16497
 STIO          2 000005A2 00000001     H   17577 16577B
 SVC99KYS      1 00000000 FFFFFFB8     J   15781 16064
 SVRBEND       4 00000110 FFFFFFE6     F    4230  4287
 TBLFMT       16 00000ECB 00000001     X   19602 19618
 TCB           1 00000020 FFFFFFDE     U    6464  7163  16322U
 TCBADR        4 00000008 FFFFFFEB     A    1729 16327M 17806
 TCBAE         4 000000BC FFFFFFDE     A    6708  6711
 TCBDARPN      1 00000040 FFFFFFDE A   U    6754  6756
 TCBDARTN      1 00000080 FFFFFFDE A   U    6751  6753
 TCBFIX        1 00000000 FFFFFFDE     J    6452  6459
 TCBMNLEN      1 00000158 FFFFFFDE A   U    7163  7208
 TCBPKF        1 0000003C FFFFFFDE     B    6514 16328
 TCBPXLEN      1 00000020 FFFFFFDE A   U    6459  7208
 TCBRD         4 000000B8 FFFFFFDE     A    6703  6707
 TCBXTNT2      1 00000000 FFFFFFDD     J    7168  7206
 TCBX2LEN      1 00000020 FFFFFFDD A   U    7206  7208
 TIC           1 00000008 FFFFFFEC A   C    1609  1656   1664   1672   1680
 TIMELST       4 000002BC FFFFFFEB     F    1843 17766
 TIRBEND       4 000000A8 FFFFFFE6     F    4159  4284
 TRCELOCK      1 00000000 00000000 A   T    5284  5284
 UAR          10 0000000A FFFFFFFF A   #    1039 16151U 16186M 16187M 16187  16208  16247M 16248  16354  16564  16613
                                                 17424  17864  18115M 18123U 18579U
 UAREA       740 00000000 FFFFFFEB     J    1878  1655   1656   1657   1663   1664   1665   1671   1672   1673   1679
                                                  1680   1681   1687   1688   1689   1700   1701   1702  16151U 18123U
                                                 18388U 18579U
 UARID         8 00000000 FFFFFFEB     C    1728 16257M 16408
 UCBALOC       1 00000008 FFFFFFD0 A   U   11429 11616
 UCBBALB       1 00000020 FFFFFFD0 A   U   11802 11883
 UCBBNUL       1 00000001 FFFFFFD0 A   U   11811 11890
 UCBBPRV       1 00000010 FFFFFFD0 A   U   11804 11884
 UCBBPUB       1 00000008 FFFFFFD0 A   U   11805 11885
 UCBBSTR       1 00000004 FFFFFFD0 A   U   11806 11886  11887
1VSIO     (VSIO00) (09:49) (22MAR04) Ordinary Symbol and Literal Cross Reference                                            Page   85
 UCBBSVL       1 00000080 FFFFFFD0 A   U   11788 11882
 UCBCHGS       1 00000040 FFFFFFD0 A   U   11419 11613
 UCBDADI       1 00000001 FFFFFFD0 A   U   11443 11619
 UCBDEV        1 00000078 FFFFFFD0     U   11627 11783  12009  12169  12185  12393  12415  12507  12537
 UCBDMCT       1 00000083 FFFFFFD0     X   11820 11891
 UCBFLA        1 00000066 FFFFFFD0     B   11455 11456
 UCBFL1        1 00000066 FFFFFFD0     U   11456 11620
 UCBFSCT       2 00000078 FFFFFFD0     H   12010 12014
 UCBFSEQ       2 0000007A FFFFFFD0     H   12011 12015
 UCBID         1 00000062 FFFFFFD0     X   11403 19158
 UCBJBNR       1 00000060 FFFFFFD0     B   11350 11609
 UCBMONT       1 00000001 FFFFFFD0 A   U   11371 11610
 UCBNRY        1 00000040 FFFFFFD0 A   U   11460 11461
 UCBOB         4 00000060 FFFFFFD0     F   11344 19144U
 UCBONLI       1 00000080 FFFFFFD0 A   U   11418 11612  19175
 UCBPRES       1 00000004 FFFFFFD0 A   U   11439 11617
 UCBRESV       1 00000020 FFFFFFD0 A   U   11424 11614
 UCBSTAB       1 00000082 FFFFFFD0     B   11787 11881
 UCBSTAT       1 00000063 FFFFFFD0     B   11417 11611  19177
 UCBSTND       1 000000FF FFFFFFD0 A   U   11404 19156
 UCBSYSR       1 00000002 FFFFFFD0 A   U   11441 11618
 UCBTR         1 00000094 FFFFFFD0     G   12083 12085
 UCBUNLD       1 00000010 FFFFFFD0 A   U   11426 11615
 UCBUSER       2 00000086 FFFFFFD0     G   11861 11862
 UCBVOLI       6 0000007C FFFFFFD0     C   11786 11880  19197
 UPL         368 00000000 FFFFFFB6     J   18996 19044  19057U 19062  19245  19338  19351U 19356  19479
 UPLCODE       4 0000000C FFFFFFB6     A   18855 19106M 19121  19440M 19473
 UPLCXPTR      4 00000004 FFFFFFB6     A   18853 19104M 19438M
 UPLIOCT      48 00000014 FFFFFFB6     X   18858 19430
 UPLLOOK       4 00000124 FFFFFFB6     F   18942 18941  18984
 UPLPXPTR      4 00000008 FFFFFFB6     A   18854 19105M 19439M
 UPLRETI      20 00000000 FFFFFFB6     X   18857 19467  19467
 UPLRSN        4 00000010 FFFFFFB6     A   18856 19107M 19441M
 UPLSCAN       4 000000A8 FFFFFFB6     F   18867 18866  18929  19089
 UPLUCB        4 00000000 FFFFFFB6     A   18852 18857  18857  19103M 19134  19437M 19472
 UPLWRK      100 00000044 FFFFFFB6     X   18859 19092
 USATBUFF      4 00000074 FFFFFFEB     A    1784 17470  17487
 USATBUFL      4 00000078 FFFFFFEB     A    1785 17483
 USATIO       16 00000064 FFFFFFEB         1758 18426M
 USATIOSB      4 0000006C FFFFFFEB     A    1782 16585  17640  17733  17749M 17965  17975M 17975  18151  18192M 18192
 USAT1CCC      4 0000007C FFFFFFEB     A    1786 17395  18626M
 USAT1CCW      8 00000238 FFFFFFEB     D    1806  1656   1664   1672   1680  17396  17857  18625M
 USAT1CNT      8 00000088 FFFFFFEB     C    1789  1673   1702
 USAT1ECB      4 00000070 FFFFFFEB     A    1783 16583  17638M 17638  18427
 USAT1IDA      4 00000278 FFFFFFEB     A    1810  1681  17486
 USAT1MBF    144 00000118 FFFFFFEB     C    1800  1657   1689   1701  18693
 USAT1RDC     64 000000D8 FFFFFFEB     X    1792  1688  18647  18647  18669  18692  18693  19634  19635  19636
 USAT1SBF    144 000001A8 FFFFFFEB     C    1801  1665   1700
 USAT1SEE      8 00000080 FFFFFFEB     C    1788  1655   1663   1671   1679  17861  17862
 USAT1SNS     64 00000098 FFFFFFEB     X    1791  1687  18670  18670  18692  19635  19636
 USBCSA      128 00000064 FFFFFFEB         1743 17224M 17326M 18134  18185M
 USIDAW        2 00000064 FFFFFFEB         1773 17462  17533M
 UWRKSZ        1 00001000 FFFFFFFF A   U    1117 16496  18040
 VFIXLOCK      1 00000000 00000000 A   T    5270  5270
 VPAGLOCK      1 00000000 00000000 A   T    5275  5275
 VRADAT        1 00000002 FFFFFFD3     G    8614  8618
 VRAKL         2 00000000 FFFFFFD3     G    8606  8618
 VSIO          1 00000000 00000001     J    1134  1131   1132   1136   1182   1296   1618   1709   1879  16096  16142U
                                                 16493  18041  18547  18570U
1VSIO     (VSIO00) (09:49) (22MAR04) Ordinary Symbol and Literal Cross Reference                                            Page   86
 VSIO_COD      1 0000001C FFFFFFEE     X    1172 16601M
 VSIO_CSW      8 00000020 FFFFFFEE     X    1174 16602M
 VSIO_GO       2 00000018 00000001     H   16098 16094
 VSIO_VCT      4 00000148 00000001     A   16447 16441
 VSIOBUFL      4 00000014 FFFFFFEE     A    1170 18640  18663  18686
 VSIOBUFR      4 00000018 FFFFFFEE     A    1171 18646
 VSIOFUNC      4 00000008 FFFFFFEE     A    1164 16440
 VSIOID        4 00000000 FFFFFFEE     C    1162 16175
 VSIOLEN       4 000008A0 00000001     A   18545 16569  16618  18546
 VSIOPRM      40 00000000 FFFFFFEE     J    1181 16133U 18561U
 VSIOR         9 00000009 FFFFFFFF A   #    1026 16117M 16133U 18561U
 VSIOUCBA      4 00000010 FFFFFFEE     A    1169 17863
 VSIOUPTR      4 00000004 FFFFFFEE     A    1163 16186  16248M
 VSIO00        1 00000000 00000001     R    1143  1141
 VSSAVE        4 00000010 FFFFFFEB     A    1731 16258M 16420M 16471
 WAR           8 00000008 FFFFFFFF A   #    1013 16534M 16641  16676M 16746  16781M 16851  16888M 17016  17053M 17127
                                                 17169M 17226  17237  17274M 17337  17371M 17553  17587M 17677  17707M
                                                 17908  17940M 17986  18601M 18712  18742M 18777  19015M 19204  19267
                                                 19308M 19487  19503
 =A(-1)        4 00000184 00000001     A   16495 16208
 =A(ESTROUT)
               4 00000190 00000001     A   16498 16344
 =A(L'CCWRDC/8)
               4 00000B68 00000001     A   19633 18626
 =A(STCKSZ)
               4 0000018C 00000001     A   16497 16259  16275
 =A(UWRKSZ)
               4 00000188 00000001     A   16496 16214  16250
 =A(UWRKSZ)
               4 00000768 00000001     A   18040 16565  16614
 =A(VSIO)      4 0000017C 00000001     A   16493 16116
 =A(VSIO)      4 0000076C 00000001     A   18041 16568  16617
 =A(X'00FFF800')
               4 00000778 00000001     A   18044 17498
 =A(X'80000000'+IOTERM)
               4 00000784 00000001     A   18047 17875
 =A(X'80000000')
               4 00000178 00000001     A   16492 16112
 =A(1)         4 00000770 00000001     A   18042 16914  17079  17429  17485  17499
 =A(12)        4 00000898 00000001     A   18531 18088
 =A(8)         4 00000774 00000001     A   18043 16956
 =AL4(L'USAT1RDC+L'USAT1SNS+256)
               4 00000B74 00000001     R   19636 18686
 =AL4(L'USAT1RDC+L'USAT1SNS)
               4 00000B70 00000001     R   19635 18663
 =AL4(L'USAT1RDC)
               4 00000B6C 00000001     R   19634 18640
 =C'Gone'      4 00000788 00000001     C   18048 17966
 =C'Gone'      4 0000089C 00000001     C   18532 18153
 =C'VSIO'      4 00000180 00000001     C   16494 16175
 =C'VSIO'      4 0000077C 00000001     C   18045 17777
 =CL4'SRB '
               4 00000780 00000001     C   18046 17803
 =CL8'VSIOUAR'
               8 00000170 00000001     C   16491 16257  16408

1VSIO     (VSIO00) (09:49) (22MAR04) Macro and Copy Code Source Summary                                                     Page   87
- Con Source                                        Volume    Members                        HLASM R4.0  2004/03/22 09.49
0     PRIMARY INPUT                                           CSECT    DROP     END      EX       LTORG    POP
                                                              PRINT    PUSH     START    USING
   L2 WYL.GG.SYS.MACLIB                             SYSB05    $BC      $BFLKUP  $BV      $CCLKUP  $CRS     $CSS
                                                              $LBLAD   $LEXP    $LOR     $REL     $RGLKUP  $USLKUP  BASE
                                                              BEGIN    CLEAR    COMPROC  CSECT    DATA     DEFCC    DROP
                                                              ELSE     END      EX       EXIT     FLAG     GEN
                                                              HIBAL    IDENT    IF       LABEL    LCALL    LCM      LOOP
                                                              LT       LTORG    L3       PEND     POP      PRETURN
                                                              PRINT    PROC     PUSH     RECORD   REG      REGS     SET
                                                              START    ST3      UNTIL    USING    WHILE    WITH
                                                              XPROC
   L4 SYS3.MACLIB                                   SYSB02    VSIOPRM
   L5 SYS1.MACLIB                                   MVSBR9    ABEND    CVT      DCBD     ESTAE    FREEMAIN GETMAIN
                                                              IECDIOCM IEFJESCT IEFSJDKY IEFUCBOB IEFZB4D0 IEFZB4D2
                                                              IHAASCB  IHAPSA   IHAPSAE  IHARB    IHASDWA  IHASRB
                                                              IHAVRA   IHBERMAC IHBINNRA IHBINNRR IKJTCB   MODESET
                                                              PGSER    RETURN   SETLOCK  SETRP    SPLEVEL  STORAGE
                                                              SYSEVENT SYSSTATE TIME     TRKCALC  UCBLOOK  UCBSCAN  WAIT
   L6 SYS1.MODGEN                                   MVSBR9    EWAMAP   EWDMAP   IECDERWA IECDIOSB IECDUCBC IECDUCBD
                                                              IECDUCBE IECDUCBG IECDUCBT IECDUCBU IECSDSL1 IEZBITS
                                                              IHACDE   IHADVCT  IHALPDE  IHAORB   IHAPVT   IHAWSAVT
                                                              IHAXTLST IKJRB    IOSDUCBC STARTIO

1         (VSIO00) (09:49) (22MAR04) General Purpose Register Cross Reference                                               Page   88
- Register  References (M=modified, B=branch, U=USING, D=DROP, N=index)                      HLASM R4.0  2004/03/22 09.49
0    0(0)      987U   988D  4942U  6156U  6157D 16099  16112M 16114  16214M 16249M 16255M 16259M 16274M 16280M 16297U
             16306U 16307D 16360M 16480M 16533  16565M 16569M 16581M 16614M 16618M 16645M 16675  16701M 16703M 16704M
             16728M 16729M 16730  16750M 16780  16806M 16808M 16809M 16833M 16834M 16835  16855M 16887  16912  16922M
             16965M 16998M 16999M 17000  17020M 17052  17077  17084M 17084  17109M 17110M 17111  17131M 17168  17241M
             17273  17341M 17370  17395M 17429M 17483M 17484M 17485M 17499M 17557M 17586  17622M 17629  17639  17649M
             17655M 17662  17681M 17706  17746M 17912M 17939  17964M 17990M 18062  18088  18113  18152M 18207M 18452M
             18452  18600  18716M 18741  18781M 19014  19045M 19061M 19067M 19098M 19107  19245M 19271M 19307  19339M
             19355M 19361M 19432M 19441  19480M 19484M 19487  19507M
     1(1)      983U 16099  16117  16225M 16225  16247  16249  16250M 16255M 16270M 16270  16272  16273  16274  16275M
             16280M 16310M 16311  16350M 16351N 16352  16353  16354  16355  16356  16357  16358  16359  16359  16480M
             16533  16560M 16564M 16568M 16583M 16613M 16617M 16625M 16645M 16675  16700M 16701  16710  16727M 16730M
             16750M 16780  16805M 16806  16815  16832M 16835M 16855M 16887  16913  16927M 16967M 16997M 17000M 17020M
             17052  17078  17085M 17108M 17111M 17131M 17168  17226  17241M 17273  17341M 17370  17396M 17406U 17428M
             17470M 17471M 17471  17544U 17557M 17586  17623M 17630  17639  17640M 17641M 17641  17643M 17643  17649M
             17656M 17663  17681M 17706  17749  17750  17766M 17767  17767  17768  17769  17775  17857M 17858  17859M
             17860  17912M 17939  17965M 17990M 18062  18103  18143M 18145M 18145  18151M 18175M 18177M 18177  18204M
             18205  18207M 18393  18436M 18437M 18437  18600  18646M 18669M 18692M 18716M 18741  18781M 19014  19039
             19043M 19045  19047  19061  19062M 19067M 19078M 19080M 19080  19089M 19090  19090  19091  19093  19094
             19095  19096  19097  19103  19104  19105  19115M 19117M 19117  19134M 19144U 19204  19219U 19246M 19249M
             19249  19271M 19307  19332  19337M 19339  19341  19355  19356M 19361M 19365M 19367M 19367  19423M 19424
             19424  19425  19426  19427  19428  19429  19431  19437  19438  19439  19449M 19451M 19451  19474M 19481M
             19481  19485M 19487  19507M
     2(2)      979U 16099  16113M 16114M 16115B 16311M 16312M 16322U 16327  16335U 16344M 16351  16480M 16533  16585M
             16586M 16586  16596U 16609U 16645M 16675  16750M 16780  16855M 16887  16912M 16913M 16914M 16928  17020M
             17052  17077M 17078M 17079M 17086  17131M 17168  17196M 17196  17199M 17209  17218  17241M 17273  17300M
             17310  17319  17341M 17370  17419D 17421M 17421  17422M 17423U 17424M 17425M 17427  17487M 17497M 17498M
             17557M 17586  17613M 17639  17649M 17666  17681M 17706  17750M 17760U 17894U 17912M 17939  17990M 18062
             18103M 18111U 18149M 18162  18171  18204  18207M 18246U 18398M 18472  18600  18716M 18741  18781M 19014
             19039M 19271M 19307  19332M 19426  19472M 19485  19507M
     3(3)      975U 16099  16480M 16533  16645M 16675  16750M 16780  16855M 16887  17020M 17052  17131M 17168  17215M
             17241M 17273  17316M 17341M 17370  17494M 17495  17557M 17586  17639  17649M 17681M 17706  17773M 17912M
             17939  17990M 18062  18113M 18168M 18207M 18375U 18393M 18513U 18600  18716M 18741  18781M 19014  19047M
             19057U 19102M 19246  19258U 19271M 19307  19333M 19436M 19461M 19461  19473M 19484  19507M
     4(4)      971U 16099  16480M 16533  16645M 16675  16750M 16780  16855M 16887  17020M 17052  17131M 17168  17215M
             17241M 17273  17316M 17341M 17370  17486M 17496M 17557M 17586  17639  17649M 17681M 17706  17773M 17794M
             17811M 17812  17830U 17887U 17912M 17939  17990M 18062  18168M 18207M 18388U 18395M 18508U 18600  18716M
             18741  18781M 19014  19102M 19121M 19122M 19122  19209M 19236M 19236  19271M 19307  19436M 19473M 19483
             19507M
     5(5)      967U 16099  16480M 16533  16645M 16675  16750M 16780  16855M 16887  17020M 17052  17131M 17168  17241M
             17273  17341M 17370  17557M 17586  17639  17649M 17681M 17706  17733M 17734M 17734  17789U 17795M 17811
             17819U 17849  17912M 17939  17990M 18062  18207M 18394M 18478B 18600  18716M 18741  18781M 19014  19068M
             19208M 19208  19251  19271M 19307  19507M
     6(6)      963U 16099  16480M 16533  16645M 16675  16750M 16780  16855M 16887  17020M 17052  17131M 17168  17241M
             17273  17341M 17370  17557M 17586  17639  17649M 17681M 17706  17912M 17939  17990M 18062  18207M 18600
             18716M 18741  18781M 19014  19271M 19307  19341M 19351U 19474  19494U 19507M
     7(7)      959U 16099  16480M 16533  16645M 16675  16750M 16780  16855M 16887  17020M 17052  17131M 17168  17241M
             17273  17341M 17370  17557M 17586  17639  17649M 17681M 17706  17912M 17939  17990M 18062  18207M 18600
             18716M 18741  18781M 19014  19271M 19307  19507M
     8(8)      955U 16099  16480M 16533  16534M 16641  16645M 16675  16676M 16746  16750M 16780  16781M 16851  16855M
             16887  16888M 17016  17020M 17052  17053M 17127  17131M 17168  17169M 17226N 17237  17241M 17273  17274M
             17337  17341M 17370  17371M 17553  17557M 17586  17587M 17639  17649M 17677  17681M 17706  17707M 17908
             17912M 17939  17940M 17986  17990M 18062  18207M 18600  18601M 18712  18716M 18741  18742M 18777  18781M
             19014  19015M 19204N 19267  19271M 19307  19308M 19487  19503  19507M
     9(9)      951U 16099  16117M 16133U 16480M 16533  16645M 16675  16750M 16780  16855M 16887  17020M 17052  17131M
             17168  17241M 17273  17341M 17370  17557M 17586  17639  17649M 17681M 17706  17912M 17939  17990M 18018U
1         (VSIO00) (09:49) (22MAR04) General Purpose Register Cross Reference                                               Page   89
             18062  18207M 18561U 18600  18716M 18741  18781M 18809U 19014  19271M 19307  19507M
    10(A)      947U 16099  16151U 16186M 16187M 16187  16208  16247M 16248  16354  16480M 16533  16564  16613  16645M
             16675  16750M 16780  16855M 16887  17020M 17052  17131M 17168  17241M 17273  17341M 17370  17424  17557M
             17586  17639  17649M 17681M 17706  17864  17912M 17939  17990M 18013U 18062  18115M 18123U 18207M 18227U
             18428M 18429M 18579U 18600  18716M 18741  18781M 18804U 19014  19271M 19307  19507M
    11(B)      943U 13856B 13857B 16099  16116M 16142U 16480M 16533  16645M 16675  16750M 16780  16855M 16887  17020M
             17052  17131M 17168  17241M 17273  17341M 17370  17557M 17586  17621  17627M 17639  17649M 17654  17660M
             17681M 17706  17912M 17939  17990M 18008U 18062  18207M 18427M 18570U 18600  18716M 18741  18781M 18799U
             19014  19271M 19307  19507M
    12(C)      939U 16099  16480M 16533  16538M 16549U 16637U 16645M 16675  16680M 16691U 16742U 16750M 16780  16785M
             16796U 16847U 16855M 16887  16892M 16903U 17012U 17020M 17052  17057M 17068U 17123U 17131M 17168  17173M
             17184U 17233U 17241M 17273  17278M 17289U 17333U 17341M 17370  17375M 17386U 17549U 17557M 17586  17591M
             17602U 17622  17629M 17639  17649M 17655  17662M 17673U 17681M 17706  17711M 17722U 17904U 17912M 17939
             17944M 17955U 17982U 17990M 18062  18065M 18075U 18207M 18220U 18362U 18392M 18489U 18600  18605M 18616U
             18708U 18716M 18741  18746M 18757U 18773U 18781M 19014  19019M 19030U 19263U 19271M 19307  19312M 19323U
             19499U 19507M
    13(D)      935U 16100M 16258  16273M 16420  16421M 16471M 16530  16533  16534  16535M 16535  16641M 16645  16647
             16672  16675  16676  16677M 16677  16746M 16750  16752  16777  16780  16781  16782M 16782  16851M 16855
             16857  16884  16887  16888  16889M 16889  17016M 17020  17022  17049  17052  17053  17054M 17054  17127M
             17131  17133  17165  17168  17169  17170M 17170  17237M 17241  17243  17270  17273  17274  17275M 17275
             17337M 17341  17343  17367  17370  17371  17372M 17372  17553M 17557  17559  17583  17586  17587  17588M
             17588  17623  17625M 17626B 17628  17630M 17639  17649M 17656  17658M 17659B 17661  17663M 17677M 17681
             17683  17703  17706  17707  17708M 17708  17774  17908M 17912  17914  17936  17939  17940  17941M 17941
             17986M 17990  17992  18207  18416M 18417B 18468M 18469B 18597  18600  18601  18602M 18602  18712M 18716
             18718  18738  18741  18742  18743M 18743  18777M 18781  18783  19011  19014  19015  19016M 19016  19267M
             19271  19273  19304  19307  19308  19309M 19309  19503M 19507  19509
    14(E)      931U 16099  16255M 16280M 16440M 16441M 16441N 16442M 16442B 16479M 16482B 16530  16563M 16567M 16571M
             16573M 16575M 16577M 16612M 16616M 16620M 16622M 16647M 16650B 16672  16752M 16755B 16777  16857M 16860B
             16884  16929M 17022M 17025B 17049  17087M 17133M 17136B 17165  17212M 17213M 17213N 17214M 17214N 17215
             17215M 17243M 17246B 17270  17313M 17314M 17314N 17315M 17315N 17316  17316M 17343M 17346B 17367  17559M
             17562B 17583  17624M 17625N 17626M 17639  17648M 17649M 17657M 17658N 17659M 17683M 17686B 17703  17748M
             17770M 17771M 17771N 17772M 17772N 17773  17773M 17774M 17775  17806M 17807  17808M 17809  17866  17914M
             17917B 17936  17968M 17992M 17995B 18062  18098B 18165M 18166M 18166N 18167M 18167N 18168  18168M 18207M
             18208B 18295B 18394  18415M 18416N 18417M 18432M 18456M 18467M 18468N 18469M 18597  18628M 18718M 18721B
             18738  18783M 18786B 19011  19067M 19092M 19093  19099M 19100M 19100N 19101M 19101N 19102  19102M 19273M
             19276B 19304  19361M 19430M 19431  19433M 19434M 19434N 19435M 19435N 19436  19436M 19509M 19512B
    15(F)      927U 14318M 14318  16099  16101M 16110U 16123U 16163M 16224M 16235M 16235  16241M 16254M 16254  16255M
             16269M 16279M 16279  16280M 16299M 16300  16370M 16370  16414M 16463M 16470M 16470  16481M 16481  16630M
             16630  16649M 16649  16709M 16710M 16754M 16754  16814M 16815M 16859M 16859  16928M 16939M 16939  16956
             17024M 17024  17086M 17097M 17097  17135M 17135  17209M 17210M 17211M 17245M 17245  17310M 17311M 17312M
             17345M 17345  17537M 17537  17561M 17561  17621M 17627  17628M 17639  17644M 17645M 17645  17646M 17646
             17648B 17649M 17654M 17660  17661M 17685M 17685  17804M 17805  17808  17875M 17876  17877M 17878M 17878
             17879  17880  17916M 17916  17994M 17994  18062  18097M 18097  18162M 18163M 18164M 18207M 18271U 18294M
             18294  18301U 18392  18430M 18431M 18431  18432B 18453M 18454M 18454  18455M 18455  18456B 18477M 18477
             18701M 18701  18720M 18720  18766M 18785M 18785  19066M 19066  19067M 19106  19251M 19275M 19275  19333
             19360M 19360  19361M 19440  19483M 19511M 19511

1VSIO     (VSIO00) (09:49) (22MAR04) Diagnostic Cross Reference and Assembler Summary                                       Page   90
-                                                                                            HLASM R4.0  2004/03/22 09.49
0     No Statements Flagged in this Assembly
 HIGH LEVEL ASSEMBLER, 5696-234, RELEASE 4.0, PTF UQ57391
0SYSTEM: OS/390 02.10.00            JOBNAME: PJG#VSIO    STEPNAME: ASM        PROCSTEP: (NOPROC)
0Datasets Allocated for this Assembly
  Con DDname   Dataset Name                                 Volume  Member
   P1 SYSIN    SYS04082.T094933.RA000.PJG#VSIO.INPUT.H01    SCR101
   L1 SYSLIB   SYS3.DUMMYMAC                                SYSB02
   L2          WYL.GG.SYS.MACLIB                            SYSB05
   L3          SYS3.IS.MACLIB                               SYSB05
   L4          SYS3.MACLIB                                  SYSB02
   L5          SYS1.MACLIB                                  MVSBR9
   L6          SYS1.MODGEN                                  MVSBR9
      SYSLIN   WYL.GG.PJG.OBJ                               SYSB05  VSIO
      SYSPRINT SYS04082.T094933.RA000.PJG#VSIO.PRINT.H01    SCR101
      SYSTERM  GG$PJG.PJG#VSIO.JOB06006.D0000103.?

    7812K allocated to Buffer Pool,         7201K would be required for this to be an In-Storage Assembly
    1431 Primary Input Records Read        48580 Library Records Read                  0 Work File Reads
       0 ASMAOPT Records Read               5378 Primary Print Records Written         0 Work File Writes
      83 Punch Records Written                 0 ADATA Records Written
0Assembly Start Time: 09.49.35 Stop Time: 09.49.41 Processor Time: 00.00.03.1480
 Return Code 000
