1                        J E S 2  J O B  L O G  --  S Y S T E M  S Y S B  --  N O D E  R L G
0
 09.48.55 JOB05996 ---- MONDAY,    22 MAR 2004 ----
 09.48.55 JOB05996  ICH70001I GG$PJG   LAST ACCESS AT 09:48:43 ON MONDAY, MARCH 22, 2004
 09.48.55 JOB05996  $HASP373 PJG#VP   STARTED - INIT 3    - CLASS E - SYS SYSB
 09.48.55 JOB05996  ***  HCMD      STEP $$QUIET
 09.48.55 JOB05996  PURGE * Q=OUTPUT MULTIPLE
 09.48.55 JOB05996  JOB PJG#VP NOT IN OUTPUT QUEUE
 09.48.56 JOB05996  PJG#VP  .$$QUIET .         RC=0008 TapeIO=0000 DiskIO=0000 CPU=  .01s Elapsed=35.62s
 09.48.57 JOB05996  PJG#VP  .$CND    .         RC=Zero TapeIO=0000 DiskIO=0002 CPU=  .01s Elapsed=36.85s
 09.48.57 JOB05996  PJG#VP  .$UNP    .         RC=Zero TapeIO=0000 DiskIO=0009 CPU=  .05s Elapsed=37.22s
 09.49.02 JOB05996  PJG#VP  .ASM     .         RC=Zero TapeIO=0000 DiskIO=0263 CPU= 1.02s Elapsed=37.83s
 09.49.03 JOB05996  PJG#VP  .$EDIT   .         RC=Zero TapeIO=0000 DiskIO=0053 CPU=  .22s Elapsed=42.79s
 09.49.03 JOB05996  PJG#VP   Ended.  Name=Module: VP                     Total CPU= 1.31s Elapsed=35.62s
 09.49.03 JOB05996
 09.49.03 JOB05996  Execution charges   Priority=Standard   Block=Day
 09.49.03 JOB05996
 09.49.03 JOB05996  CPU Usage          23.62          $14.64   Standard Processing Unit Equivalent
 09.49.03 JOB05996                                   =======
 09.49.03 JOB05996                                    $14.64   Total Job execution charge
 09.49.03 JOB05996
 09.49.03 JOB05996  See back separator page for print charges
 09.49.03 JOB05996
 09.49.03 JOB05996  $HASP395 PJG#VP   ENDED  ASM=0
1        1 //PJG#VP   JOB PJG$GG,'Module: VP',TIME=1,MSGCLASS=C                    JOB05996
           /*JOBPARM HOLD=OUTPUT,LINES=50,CHARS=TN15,NOTIFY=YES
         2 //       EXEC PURGEOLD
         3 XXPURGEOLD PROC
           XX*
           XX* This proc is maintained by Jim Stosick
           XX*
         4 XX$$QUIET  EXEC PGM=HCMDX,PARM='PURGE * Q=OUTPUT MULTIPLE',
           XX         ACCT=(PURGEOLD,SYS3)
         5 //$CND   EXEC PGM=BILBO,REGION=512K,PARM='RECS=100'
         6 //STEPLIB  DD DSN=WYL.GG.ORV.LINKLIB,DISP=SHR
         7 //SYSPRINT DD SYSOUT=$
         8 //SYSUT1   DD DSN=WYL.GG.PJG.OBJ,DISP=OLD
         9 //SYSUT2   DD DSN=WYL.GG.PJG.OBJ,DISP=OLD
        10 //SYSIN    DD DUMMY
        11 //$UNP   EXEC PGM=WUNPRESS,PARM='NUM'
        12 //SYSPRINT DD SYSOUT=$
        13 //SYSUT1   DD DSN=WYL.GG.ORV.SOURCE(VP),DISP=SHR
        14 //SYSUT2   DD DSN=&&INPUT,DISP=(,PASS),UNIT=SYSDA,
           //            SPACE=(TRK,(25,25),RLSE),DCB=CARD
        15 //ASM    EXEC PGM=ASMA90,REGION=8M,COND=(0,NE,$UNP),
           //            PARM=('SYSPARM(VP),TERM,LANG(EN),OBJ',
           //          'LC(32500),XREF(SHORT),NODECK,NORLD,NODX,NOUS')
           //*STEPLIB  DD DSN=SYS1.SASMMOD1,DISP=SHR
        16 //SYSLIB   DD DSN=SYS3.DUMMYMAC,DISP=SHR,DCB=BLKSIZE=27920
        17 //         DD DSN=WYL.GG.SYS.MACLIB,DISP=SHR
        18 //         DD DSN=WYL.GG.ORV.BC.MACLIB,DISP=SHR
        19 //         DD DSN=WYL.GG.ORV.MACLIB,DISP=SHR
        20 //         DD DSN=SYS3.ORVYL.UMACLIB,DISP=SHR
        21 //         DD DSN=SYS3.IS.MACLIB,DISP=SHR
        22 //SYSUT1   DD DSN=&&SYSUT1,UNIT=VIO,DISP=(,DELETE),
           //            SPACE=(4088,(500,250),,CONTIG,ROUND)
        23 //SYSTERM  DD SYSOUT=$
        24 //SYSPRINT DD DSN=&&PRINT,UNIT=SYSDA,DISP=(,PASS),
           //            SPACE=(6650,(250,250),RLSE),
           //            DCB=(BLKSIZE=6650,LRECL=133,RECFM=FB)
        25 //SYSLIN   DD DSN=WYL.GG.PJG.OBJ(VP),DISP=OLD
        26 //SYSUDUMP DD SYSOUT=A
        27 //SYSIN    DD DSN=&&INPUT,DISP=(OLD,DELETE)
        28 //$EDIT  EXEC PGM=ASMEDIT,REGION=1M,
           //            COND=EVEN,PARM='STMT,DATA'
        29 //STEPLIB  DD DSN=WYL.GG.SYS.LINKLIB,DISP=SHR
        30 //ASMOUT   DD DSN=&&PRINT,DISP=(OLD,DELETE)
        31 //SYSPRINT DD SYSOUT=A
        32 //SYSUDUMP DD SYSOUT=A
1 STMT NO. MESSAGE
         2 IEFC001I PROCEDURE PURGEOLD WAS EXPANDED USING SYSTEM LIBRARY SYS3.BETAPROC
        14 IGD01010I STORCLAS= TEMP STORGROUP =
        14 IGD01010I STORGRP=VIO ASSIGNED.
        22 IGD01010I STORCLAS= TEMP STORGROUP =
        22 IGD01010I STORGRP=VIO ASSIGNED.
        24 IGD01010I STORCLAS= TEMP STORGROUP =
        24 IGD01010I STORGRP=VIO ASSIGNED.
 ICH70001I GG$PJG   LAST ACCESS AT 09:48:43 ON MONDAY, MARCH 22, 2004
 IEF142I PJG#VP $$QUIET - STEP WAS EXECUTED - COND CODE 0008
 *********************************************************************************
 *   PJG#VP  /$$QUIET /                    Return Code      0008                 *
 *   Region used      260K (16K user + 244K system)                              *
 *   Extended region  9352K (4K user + 9348K system)                             *
 *                                                                               *
 *   Paging              In      Out                                             *
 *   Private <-> Aux      0        0       CPU time (TCB)   00:00:00.01          *
 *   Private <-> Exp      0        0       CPU time (SRB)   00:00:00.00          *
 *   VIO                  0        0       Elapsed time    920:38:57.34          *
 *   Common               0      ---                                             *
 *                                                                               *
 *                                                                               *
 *   CPU Usage          0.18         $0.11  Standard Processing Unit Equivalent  *
 *                                   $0.11  Total Step execution charge          *
 *                                                                               *
 *    I/O count  DDname   Type Addr           I/O count  DDname   Type Addr      *
 *                         *** No I/O for this step ***                          *
 *********************************************************************************
 IEF373I STEP/$$QUIET /START 2004082.0948
 IEF374I STEP/$$QUIET /STOP  2004082.0948 CPU    0MIN 00.01SEC SRB    0MIN 00.00SEC VIRT    16K SYS   244K EXT       4K SYS    9348K
 IEF236I ALLOC. FOR PJG#VP $CND
 IEF237I 0401 ALLOCATED TO STEPLIB
 IEF237I JES2 ALLOCATED TO SYSPRINT
 IEF237I 04DC ALLOCATED TO SYSUT1
 IEF237I 04DC ALLOCATED TO SYSUT2
 IEF237I DMY  ALLOCATED TO SYSIN
 IEF142I PJG#VP $CND - STEP WAS EXECUTED - COND CODE 0000
 IEF285I   WYL.GG.ORV.LINKLIB                           KEPT
 IEF285I   VOL SER NOS= SYSB01.
 IEF285I   GG$PJG.PJG#VP.JOB05996.D0000101.?            SYSOUT
 IEF285I   WYL.GG.PJG.OBJ                               KEPT
 IEF285I   VOL SER NOS= SYSB05.
 IEF285I   WYL.GG.PJG.OBJ                               KEPT
 IEF285I   VOL SER NOS= SYSB05.
 *********************************************************************************
 *   PJG#VP  /$CND    /                    Return Code      Zero                 *
 *   Region used      280K (16K user + 264K system)                              *
 *   Extended region  9392K (4K user + 9388K system)                             *
 *                                                                               *
 *   Paging              In      Out                                             *
 *   Private <-> Aux      0        0       CPU time (TCB)   00:00:00.01          *
 *   Private <-> Exp      0        0       CPU time (SRB)   00:00:00.00          *
 *   VIO                  0        0       Elapsed time    920:38:56.11          *
 *   Common               0      ---                                             *
 *                                                                               *
 *                                                                               *
 *   CPU Usage          0.18         $0.11  Standard Processing Unit Equivalent  *
 *                                   $0.11  Total Step execution charge          *
 *                                                                               *
 *    I/O count  DDname   Type Addr           I/O count  DDname   Type Addr      *
 *            2  STEPLIB  Disk 0401                   0  SYSPRINT      ----      *
 *            0  SYSUT1   Disk 04DC                   0  SYSUT2   Disk 04DC      *
 *            0  SYSIN         ----                                              *
 *********************************************************************************
 IEF373I STEP/$CND    /START 2004082.0948
 IEF374I STEP/$CND    /STOP  2004082.0948 CPU    0MIN 00.01SEC SRB    0MIN 00.00SEC VIRT    16K SYS   264K EXT       4K SYS    9388K
 IEF236I ALLOC. FOR PJG#VP $UNP
 IEF237I JES2 ALLOCATED TO SYSPRINT
 IEF237I 0402 ALLOCATED TO SYSUT1
 IGD101I SMS ALLOCATED TO DDNAME (SYSUT2  )
         DSN (SYS04082.T094855.RA000.PJG#VP.INPUT.H01     )
         STORCLAS (TEMP) MGMTCLAS (        ) DATACLAS (        )
         VOL SER NOS= SCR100
 IEF142I PJG#VP $UNP - STEP WAS EXECUTED - COND CODE 0000
 IEF285I   GG$PJG.PJG#VP.JOB05996.D0000102.?            SYSOUT
 IEF285I   WYL.GG.ORV.SOURCE                            KEPT
 IEF285I   VOL SER NOS= SYSB02.
 IGD106I SYS04082.T094855.RA000.PJG#VP.INPUT.H01      PASSED,    DDNAME=SYSUT2
 *********************************************************************************
 *   PJG#VP  /$UNP    /                    Return Code      Zero                 *
 *   Region used      388K (108K user + 280K system)                             *
 *   Extended region  9468K (4K user + 9464K system)                             *
 *                                                                               *
 *   Paging              In      Out                                             *
 *   Private <-> Aux      0        0       CPU time (TCB)   00:00:00.05          *
 *   Private <-> Exp      0        0       CPU time (SRB)   00:00:00.00          *
 *   VIO                  0        0       Elapsed time    920:38:55.74          *
 *   Common               0      ---                                             *
 *                                                                               *
 *                                                                               *
 *   CPU Usage          0.93         $0.57  Standard Processing Unit Equivalent  *
 *                                   $0.57  Total Step execution charge          *
 *                                                                               *
 *    I/O count  DDname   Type Addr           I/O count  DDname   Type Addr      *
 *            0  SYSPRINT      ----                   2  SYSUT1   Disk 0402      *
 *            7  SYSUT2   Disk 038B                                              *
 *********************************************************************************
 IEF373I STEP/$UNP    /START 2004082.0948
 IEF374I STEP/$UNP    /STOP  2004082.0948 CPU    0MIN 00.05SEC SRB    0MIN 00.00SEC VIRT   108K SYS   280K EXT       4K SYS    9464K
 IEF236I ALLOC. FOR PJG#VP ASM
 IEF237I 0402 ALLOCATED TO SYSLIB
 IEF237I 04DC ALLOCATED TO
 IEF237I 0402 ALLOCATED TO
 IEF237I 0402 ALLOCATED TO
 IEF237I 0402 ALLOCATED TO
 IEF237I 04DC ALLOCATED TO
 IGD101I SMS ALLOCATED TO DDNAME (SYSUT1  )
         DSN (SYS04082.T094855.RA000.PJG#VP.SYSUT1.H01    )
         STORCLAS (TEMP) MGMTCLAS (        ) DATACLAS (        )
         VOL SER NOS= VIO
 IEF237I JES2 ALLOCATED TO SYSTERM
 IGD101I SMS ALLOCATED TO DDNAME (SYSPRINT)
         DSN (SYS04082.T094855.RA000.PJG#VP.PRINT.H01     )
         STORCLAS (TEMP) MGMTCLAS (        ) DATACLAS (        )
         VOL SER NOS= SCR101
 IEF237I 04DC ALLOCATED TO SYSLIN
 IEF237I JES2 ALLOCATED TO SYSUDUMP
 IGD103I SMS ALLOCATED TO DDNAME SYSIN
 IEF142I PJG#VP ASM - STEP WAS EXECUTED - COND CODE 0000
 IEF285I   SYS3.DUMMYMAC                                KEPT
 IEF285I   VOL SER NOS= SYSB02.
 IEF285I   WYL.GG.SYS.MACLIB                            KEPT
 IEF285I   VOL SER NOS= SYSB05.
 IEF285I   WYL.GG.ORV.BC.MACLIB                         KEPT
 IEF285I   VOL SER NOS= SYSB02.
 IEF285I   WYL.GG.ORV.MACLIB                            KEPT
 IEF285I   VOL SER NOS= SYSB02.
 IEF285I   SYS3.ORVYL.UMACLIB                           KEPT
 IEF285I   VOL SER NOS= SYSB02.
 IEF285I   SYS3.IS.MACLIB                               KEPT
 IEF285I   VOL SER NOS= SYSB05.
 IGD105I SYS04082.T094855.RA000.PJG#VP.SYSUT1.H01     DELETED,   DDNAME=SYSUT1
 IEF285I   GG$PJG.PJG#VP.JOB05996.D0000103.?            SYSOUT
 IGD106I SYS04082.T094855.RA000.PJG#VP.PRINT.H01      PASSED,    DDNAME=SYSPRINT
 IEF285I   WYL.GG.PJG.OBJ                               KEPT
 IEF285I   VOL SER NOS= SYSB05.
 IEF285I   GG$PJG.PJG#VP.JOB05996.D0000104.?            SYSOUT
 IGD105I SYS04082.T094855.RA000.PJG#VP.INPUT.H01      DELETED,   DDNAME=SYSIN
 *********************************************************************************
 *   PJG#VP  /ASM     /                    Return Code      Zero                 *
 *   Region used      8484K (8192K user + 292K system)                           *
 *   Extended region  9952K (412K user + 9540K system)                           *
 *                                                                               *
 *   Paging              In      Out                                             *
 *   Private <-> Aux      0        0       CPU time (TCB)   00:00:00.98          *
 *   Private <-> Exp      0        0       CPU time (SRB)   00:00:00.04          *
 *   VIO                  0        0       Elapsed time    920:38:55.13          *
 *   Common               0      ---                                             *
 *                                                                               *
 *                                                                               *
 *   CPU Usage         18.37        $11.38  Standard Processing Unit Equivalent  *
 *                                  $11.38  Total Step execution charge          *
 *                                                                               *
 *    I/O count  DDname   Type Addr           I/O count  DDname   Type Addr      *
 *           64  SYSLIB   Disk 0402                 139  SYSLIB   Disk 04DC      *
 *            0  SYSLIB   Disk 0402                   0  SYSLIB   Disk 0402      *
 *            0  SYSLIB   Disk 0402                   0  SYSLIB   Disk 04DC      *
 *            0  SYSUT1   VIO  ----                   0  SYSTERM       ----      *
 *           50  SYSPRINT Disk 04E3                   2  SYSLIN   Disk 04DC      *
 *            0  SYSUDUMP      ----                   8  SYSIN    Disk 038B      *
 *********************************************************************************
 IEF373I STEP/ASM     /START 2004082.0948
 IEF374I STEP/ASM     /STOP  2004082.0949 CPU    0MIN 00.98SEC SRB    0MIN 00.04SEC VIRT  8192K SYS   292K EXT     412K SYS    9540K
 IEF236I ALLOC. FOR PJG#VP $EDIT
 IEF237I 0402 ALLOCATED TO STEPLIB
 IGD103I SMS ALLOCATED TO DDNAME ASMOUT
 IEF237I JES2 ALLOCATED TO SYSPRINT
 IEF237I JES2 ALLOCATED TO SYSUDUMP
 IEF142I PJG#VP $EDIT - STEP WAS EXECUTED - COND CODE 0000
 IEF285I   WYL.GG.SYS.LINKLIB                           KEPT
 IEF285I   VOL SER NOS= SYSB02.
 IGD105I SYS04082.T094855.RA000.PJG#VP.PRINT.H01      DELETED,   DDNAME=ASMOUT
 IEF285I   GG$PJG.PJG#VP.JOB05996.D0000105.?            SYSOUT
 IEF285I   GG$PJG.PJG#VP.JOB05996.D0000106.?            SYSOUT
 *********************************************************************************
 *   PJG#VP  /$EDIT   /                    Return Code      Zero                 *
 *   Region used      388K (116K user + 272K system)                             *
 *   Extended region  9468K (4K user + 9464K system)                             *
 *                                                                               *
 *   Paging              In      Out                                             *
 *   Private <-> Aux      0        0       CPU time (TCB)   00:00:00.21          *
 *   Private <-> Exp      0        0       CPU time (SRB)   00:00:00.01          *
 *   VIO                  0        0       Elapsed time    920:38:50.17          *
 *   Common               0      ---                                             *
 *                                                                               *
 *                                                                               *
 *   CPU Usage          3.93         $2.43  Standard Processing Unit Equivalent  *
 *                                   $2.43  Total Step execution charge          *
 *                                                                               *
 *    I/O count  DDname   Type Addr           I/O count  DDname   Type Addr      *
 *            2  STEPLIB  Disk 0402                  51  ASMOUT   Disk 04E3      *
 *            0  SYSPRINT      ----                   0  SYSUDUMP      ----      *
 *********************************************************************************
 IEF373I STEP/$EDIT   /START 2004082.0949
 IEF374I STEP/$EDIT   /STOP  2004082.0949 CPU    0MIN 00.21SEC SRB    0MIN 00.01SEC VIRT   116K SYS   272K EXT       4K SYS    9464K
 *********************************************************************************
 *                                                                               *
 *                      S t a n f o r d   U n i v e r s i t y                    *
 *                                                                               *
 *                              *** Job Summary ***                              *
 *                                                                               *
 *   System Id      SYSB                   Input time     09:38:39  Mar 22, 2004 *
 *                                                                               *
 *   System Release SP6.1.0                Start time     09:48:55  Mar 22, 2004 *
 *                                                                               *
 *   Job name       PJG#VP                 Stop  time     00:00:00  Mar 22, 2004 *
 *                                                                               *
 *   Account        PJG$GG                 Elapsed time  920:38:57.34            *
 *                                                                               *
 *   User Name      Module: VP             CPU time       00:00:01.26            *
 *                                                                               *
 *   Job class      E                      SRB Time       00:00:00.05            *
 *                                                                               *
 *********************************************************************************
 IEF375I  JOB/PJG#VP  /START 2004082.0948
 IEF376I  JOB/PJG#VP  /STOP  2004082.0949 CPU    0MIN 01.26SEC SRB    0MIN 00.05SEC
1Data set successfully converted from EDIT to FB format
1Assembler Done VP No Statements Flagged
1         High Level Assembler Option Summary                   (PTF UQ57391)                                               Page    1
-                                                                                            HLASM R4.0  2004/03/22 09.48
0  No Overriding ASMAOPT Parameters
   Overriding Parameters-  SYSPARM(VP),TERM,LANG(EN),OBJ,LC(32500),XREF(SHORT),NODECK,NORLD,NODX,NOUS
   No Process Statements


   Options for this Assembly
0  NOADATA
     ALIGN
   NOASA
     BATCH
     CODEPAGE(047C)
   NOCOMPAT
   NODBCS
 3 NODECK
 3 NODXREF
     ESD
   NOEXIT
     FLAG(0,ALIGN,CONT,NOIMPLEN,NOPAGE0,PUSH,RECORD,NOSUBSTR,USING0)
   NOFOLD
   NOGOFF
   NOINFO
 3   LANGUAGE(EN)
   NOLIBMAC
 3   LINECOUNT(32500)
     LIST(121)
     MXREF(SOURCE)
 3   OBJECT
     OPTABLE(UNI,NOLIST)
   NOPCONTROL
   NOPESTOP
   NOPROFILE
   NORA2
   NORENT
 3 NORLD
     RXREF
     SIZE(MAX)
 3   SYSPARM(VP)
 3   TERM(WIDE)
   NOTEST
     THREAD
   NOTRANSLATE
 3 NOUSING
 3   XREF(SHORT)

   No Overriding DD Names

1VP       External Symbol Dictionary                                                                                        Page    2
-Symbol   Type   Id     Address  Length     LD ID  Flags Alias-of                            HLASM R4.0  2004/03/22 09.48
0VP        SD 00000001 00000000 00000848             00
 VP00      LD          00000000           00000001
 PATCH     LD          00000014           00000001
 RITECORE  LD          0000044E           00000001
 READCORE  LD          00000462           00000001
 ORCORE    LD          00000474           00000001
 ANDCORE   LD          00000488           00000001
 VERPATCH  LD          0000061C           00000001
 SCAN      ER 00000002
 TYPEIT    ER 00000003
 EVAL      ER 00000004
 EVHEX     ER 00000005
 READCORE  ER 00000006
 PRIVTEST  ER 00000007
 BTX       ER 00000008
 BCDTBL    ER 00000009
 VWRITE    ER 0000000A
 VREAD     ER 0000000B
 SCINIT    ER 0000000C
 VSEG      ER 0000000D

1VP       ORVYL'S PATCH COMMAND                                                                                             Page    3
0D-Loc  Object Code    Addr1 Addr2  Stmt Lv Lineno    Source Statement                    (Asmedit 3.3)  HLASM R4.0  2004/03/22 09.48
+_____  ______ ____    _____ _____  ____ __ ______    ______ _________
0                                      2       2.     ********************************************************************
                                       3       3.     *                                                                  *
                                       4       4.     *       ORVYL/370  RELEASE III - CLASS I - STANFORD PROPRIETARY    *
                                       5       5.     *                                                                  *
                                       6       6.     ********************************************************************
-                                      8       8.              HIBAL ,
-                                    990      10.     * MODIFICATIONS
                                     991      11.     *
1VP       ORVYL'S PATCH COMMAND                                                                                             Page    4
0D-Loc  Object Code    Addr1 Addr2  Stmt Lv Lineno    Source Statement           (Hibal 5, Asmedit 3.3)  HLASM R4.0  2004/03/22 09.48
+_____  ______ ____    _____ _____  ____ __ ______    ______ _________
0000000                00000 00848   993      13.     VP       CSECT
                                     997      14.              IDENT 00
                                    1000             +
                                    1001    01-IDENT +         ENTRY VP00
                                    1002             +
 000000 12E5D7F0F06BF2F2            1003    01-IDENT +VP00     DC    AL1(18),C'VP00,22MAR04,09:48'
                                    1004             +*
-                                   1007      16.              COPY  ORVDEFN
                                    1008             =         SYSDEFN  ,
                                    1009             =         GBLB  &PROTECT
                                    1010             =         GBLC  &MODULE
                                    1011      17.     &MODULE  SETC  'VP'
-
                                    1013      19.              REGS  ,,SR,TR,QR,RR,PR,BR,WAR,RAR,CLWR
1VP       (VP00) (09:48) (22MAR04) ORVYL'S PATCH COMMAND                                                                    Page    5
0Loc    Object Code    Addr1 Addr2  Stmt Lv Lineno    Source Statement           (Hibal 5, Asmedit 3.3)  HLASM R4.0  2004/03/22 09.48
+___    ______ ____    _____ _____  ____ __ ______    ______ _________
0                                   1139      22.              MACRO
                                    1140      23.     &L       BTD   &LOC,&LEN,&WORD,&SW,&COMMAS=NO
                                    1141      24.              LCLC  &CM
                                    1142      25.              AIF   ('&COMMAS' NE 'YES').NOCM
                                    1143      26.     &CM      SETC  'C'
                                    1144      27.     .NOCM    ANOP
                                    1145      28.     &L       SYSLR 15,&WORD,OP=L
                                    1146      29.              SYSLR 0,&LEN,TYPE=&SW
                                    1147      30.              SYSLR 1,&LOC
                                    1148      31.              XCALL BTD&CM
                                    1149      32.              MEND
                                    1150      33.
                                    1151      34.              MACRO
                                    1152      35.     &L       BTX   &LOC,&LEN,&WORD
                                    1153      36.     &L       SYSLR 15,&WORD,OP=L
                                    1154      37.              SYSLR 0,&LEN
                                    1155      38.              SYSLR 1,&LOC
                                    1156      39.              XCALL BTX
                                    1157      40.              MEND
1VP       (VP00) (09:48) (22MAR04) ORVYL'S PATCH COMMAND                                                                    Page    6
0Loc    Object Code    Addr1 Addr2  Stmt Lv Lineno    Source Statement           (Hibal 5, Asmedit 3.3)  HLASM R4.0  2004/03/22 09.48
+___    ______ ____    _____ _____  ____ __ ______    ______ _________
0                                   1159      42.              COPY  SCP
                                    1160             =*******************************************************************
                                    1161             =*                                                                 *
                                    1162             =*    SCP  -  Mode 1 Session Control Page                          *
                                    1163             =*                                                                 *
                                    1164             =*******************************************************************
0000000                00000 00294  1166             =SCP      RECORD BEGIN
 000000                             1174  1          =SCPID      DS    CL4'SCP'
                                    1175  1          =
 000008                             1176  1          =SCPPSW     DS    D                       RESUME PSW
 000010                             1177  1          =SCPGPRS    DS    16F                     RESUME GPRS
 000050                             1178  1          =SCPFPRS    DS    4D                      RESUME FPRS
                                    1179  1          =
 000070                             1180  1          =SCPXPSW    DS    D                       EXIT PSW
 000078                             1181  1          =SCPXGPRS   DS    16F                     EXIT GPRS
                                    1182  1          =
 0000B8                             1183  1          =SCPSBPSW   DS    D                       SESSION BREAK PSW
 0000C0                             1184  1          =SCPSBGPR   DS    16F                     SESSION BREAK GPRS
                                    1185  1          =
 000100                             1186  1          =SCPCLPSW   DS    D                       CLP ERROR PSW
 000108                             1187  1          =SCPCLPGP   DS    16F                     CLP ERROR GPRS
                                    1188  1          =
 000148                             1189  1          =SCPSVPSW   DS    D                       SVC ERROR PSW
 000150                             1190  1          =SCPSVGPR   DS    16F                     SVC ERROR GPRS
                                    1191  1          =
 000190                             1192  1          =SCPCTL8    DS    A                       CONTROL REGISTER 8 (MON CALL)
 000194                             1193  1          =SCPCTL9    DS    3A                      CONTROL REGISTERS 9-11 (PER)
                                    1194  1          =
 0001A0                             1195  1          =SCPPXA     DS    A                       PAGING EXCEPTION ADDR
 0001A4                             1196  1          =SCPIPSW    DS    A                       INTERRUPT PSW
 0001A8                             1197  1          =SCPPAN     DS    H                       PANIC CODE
                                    1198  1          =SCPPANSY   EQU   SCPPAN+1,1,C'X'         FOR ONE BYTE PANIC CODE
                                    1199  1          =
                                    1200  1          =PANOPER    EQU   1,,C'N'                 OPERATION ERROR
                                    1201  1          =PANPROT    EQU   4,,C'N'                 PROTECTION ERROR
                                    1202  1          =PANADDR    EQU   5,,C'N'                 ADDRESSING ERROR
                                    1203  1          =PANSPEC    EQU   6,,C'N'                 SPECIFICATION ERROR
                                    1204  1          =PANWAIT    EQU   16,,C'N'                MISSING WAIT ERROR
                                    1205  1          =
 0001AA                             1206  1          =SCPACCT    DS    C'GG.UUU'               SIGNED-ON ACCOUNT
                                    1207  1          =SCPUSER    EQU   SCPACCT+3,3,C'C'        SIGNED-ON USER
                                    1208  1          =SCPGROUP   EQU   SCPACCT,2,C'C'          SIGNED-ON GROUP
                                    1209  1          =*
                                    1210  1          =*SCPPACCT DS    C'GG.UUU'               PSEUDO ACCOUNT
                                    1211  1          =*SCPPUSER EQU   SCPPACCT+3,3,C'C'       PSEUDO USER
                                    1212  1          =*SCPPGRP  EQU   SCPPACCT,2,C'C'         PSEUDO GROUP
                                    1213  1          =*SCPPRIVS DS    X                       PSEUDO ACCOUNT PRIVS
 0001B0                             1214  1          =           DS    XL7                     SPARE
                                    1215  1          =
 0001B7                             1216  1          =SCPPRIV    DS    X                       ACCOUNT PRIVS
 0001B8                             1217  1          =SCPCLW     DS    A                       POINTER TO THE CLW
 0001BC                             1218  1          =SCPPCAT    DS    A                       PROGRAM CATALOG POINTER
1VP       (VP00) (09:48) (22MAR04) ORVYL'S PATCH COMMAND                                                                    Page    7
0D-Loc  Object Code    Addr1 Addr2  Stmt Lv Lineno    Source Statement           (Hibal 5, Asmedit 3.3)  HLASM R4.0  2004/03/22 09.48
+_____  ______ ____    _____ _____  ____ __ ______    ______ _________
00001C0                             1220  1          =SCPSID     DS    D                       SUSPEND ID
 0001C8                             1221  1          =SCPUCLK    DS    A                       USER CLOCK ID
 0001CC                             1222  1          =SCPUCXIT   DS    A                       USER CLOCK EXIT ID
 0001D0                             1223  1          =SCPCCLK    DS    A                       CLP CLOCK ID
 0001D4                             1224  1          =SCPCCXIT   DS    A                       CLP CLOCK EXIT ID
                                    1225  1          =
 0001D8                             1226  1          =SCPTXEP    DS    A                       TIMER EXIT ENTRY POINT
 0001DC                             1227  1          =SCPTXI     DS    A                       USER POINTER FOR TIMER EXIT
 0001E0                             1228  1          =SCPPXEP    DS    A                       PANIC EXIT ENTRY POINT
 0001E4                             1229  1          =SCPPXI     DS    A                       USER POINTER FOR PANIC EXIT
 0001E8                             1230  1          =SCPSXEP    DS    A                       SVC EXIT ENTRY POINT
 0001EC                             1231  1          =SCPSXI     DS    A                       USER POINTER FOR SVC EXIT
                                    1232  1          =
 0001F0                             1233  1          =SCPUMSIZ   DS    A                       ADDRESS SPACE LIMIT
 0001F4                             1234  1          =SCPRRSEG   DS    A                       LOW ADDR FOR RESERVE/RELEASE
 0001F8                             1235  1          =SCPRESRV   DS    H                       RESERVED (GETMAINED) PAGES
 0001FA                             1236  1          =SCPUNRSV   DS    H                       UNRESERVED PAGE COUNT
 0001FC                             1237  1          =SCPUMAP    DS    A                       USER MAP SIZE
                                    1238  1          =
 000200 00                          1239  1          =SCPFL      FLAG  ,                       FLAG BYTE
 SCPFL.SCPFERR     80 ONES          1243  1          =           FLAG  SCPFERR                 ERROR IN CLP
 SCPFL.SCPFPER     40 ONES          1248  1          =           FLAG  SCPFPER                 PER IS ACTIVE
 SCPFL.SCPFMON     20 ONES          1253  1          =           FLAG  SCPFMON                 MONITOR CALL IS ACTIVE
 SCPFL.SCPFPSEU    10 ONES          1258  1          =           FLAG  SCPFPSEU                PSUEDO USER SET
 SCPFL.SCPFSAM     08 ONES          1263  1          =           FLAG  SCPFSAM                 USER IS STAND-ALONE
 SCPFL.SCPFPRT     04 ONES          1268  1          =           FLAG  SCPFPRT                 USER PROGRAM "PROTECTED"
 SCPFL.SCPFTRU     02 ONES          1273  1          =           FLAG  SCPFTRU                 USER TRACE ACTIVE
 SCPFL.SCPFTRC     01 ONES          1278  1          =           FLAG  SCPFTRC                 CLP TRACE ACTIVE
                                    1283  1          =
 000201                             1284  1          =SCPKLUDG   DS    X     ***KLUDGE***      "KLUDGE" BYTE
 000202                             1285  1          =SCPTRASH   DS    X                       MEMORY CLEARING VALUE
 000203                             1286  1          =SCPJESR    DS    X                       NUMBER OF JES READERS IN USE
                                    1287  1          =
 000204                             1288  1          =SCPPER     DS    A                       PER INTERRUPT CODE,ADDRESS
 000208                             1289  1          =SCPMON     DS    A                       MONITOR INTERRUPT CODE,ADDRESS
                                    1290  1          =
 00020C                             1291  1          =SCPIDT     DS    A                       I/O ID TABLES
 000210                             1292  1          =SCPNIDT    DS    H                       NUMBER OF ID BLOCKS
 000212                             1293  1          =SCPQIDT    DS    H                       ENQ/DEQ ID TABLE
                                    1294  1          =
                                    1295  1          =SCPCWASZ   EQU   16,,C'N'                SIZE OF COMMON WORK AREA
 000214                             1296  1          =SCPCWA     DS    (SCPCWASZ)X
                                    1297  1          =
                                    1298  1          =CLWIBUFL   EQU   235                     LENGTH OF COMMAND BUFFER
 000224                             1299  1          =SCPCMDP    DS    A                       =>AL2(LEN),CL133'COMMAND'
 000228                             1300  1          =SCPPARMP   DS    A                       =>AL2(LEN),CL133'PARM'
 00022C                             1301  1          =SCPLCMDL   DS    H                       LENGTH OF LAST CMD
 00022E                             1302  1          =SCPLCMD    DS    CL40                    LAST COMMAND
                                    1303  1          =
 000256                             1304  1          =SCPNENQ    DS    H                       NUMBER OF ALLOWED ENQ'S
 000258                             1305  1          =SCPENQL    DS    A                       ENQUEUE ID TABLE ADDRESS
                                    1306  1          =
 00025C                             1307  1          =SCPTRACE   DS    A                       MODE 1 TRACE BUFFER CHAIN
1VP       (VP00) (09:48) (22MAR04) ORVYL'S PATCH COMMAND                                                                    Page    8
0D-Loc  Object Code    Addr1 Addr2  Stmt Lv Lineno    Source Statement           (Hibal 5, Asmedit 3.3)  HLASM R4.0  2004/03/22 09.48
+_____  ______ ____    _____ _____  ____ __ ______    ______ _________
0                                   1309  1          =*******************************************************************
                                    1310  1          =*                                                                 *
                                    1311  1          =*    SCB  -  Mode 1 Session Control Block                         *
                                    1312  1          =*                                                                 *
                                    1313  1          =*******************************************************************
0000260 00                          1315  1          =SCBWFL     FLAG  ,                       WAIT FLAGS
 SCBWFL.SCBFWAIT   80 ONES          1319  1          =           FLAG  SCBFWAIT                WAITING
                                    1324  1          =
 000261 00                          1325  1          =SCBCFL     FLAG  ,                       COMMON FLAGS
 SCBCFL.SCBCFALP   80 ONES          1329  1          =           FLAG  SCBCFALP                AUTO LOGOFF BEING PROCESSED
 SCBCFL.SCBCFCLA   40 ONES          1334  1          =           FLAG  SCBCFCLA                IDLE ATTN IN CLP
 SCBCFL.SCBCFAX    20 ONES          1339  1          =           FLAG  SCBCFAX                 BRANCH TO ATTENTION EXIT
 SCBCFL.SCBCFNMA   10 ONES          1344  1          =           FLAG  SCBCFNMA                SUPPRESS MULTIPLE ATTN BREAK
 SCBCFL.SCBFNESC   08 ONES          1349  1          =           FLAG  SCBFNESC                FORCE SESSION BREAK ON ATTN
                                    1354  1          =
 000262 00                          1355  1          =SCBFL      FLAG  ,                       FLAGS
 SCBFL.SCBFCLP     80 ONES          1359  1          =           FLAG  SCBFCLP                 CLP IN CONTROL
 SCBFL.SCBFSVC     40 ONES          1364  1          =           FLAG  SCBFSVC                 USER IS IN SVC PROCESSING
 SCBFL.SCBFNPUP    20 ONES          1369  1          =           FLAG  SCBFNPUP                NO PSW CC CHANGES
 SCBFL.SCBFASLK    10 ONES          1374  1          =           FLAG  SCBFASLK                ADDRESS SPACE LOCK HELD
 SCBFL.SCBFPCLP    08 ONES          1379  1          =           FLAG  SCBFPCLP                PSEUDO CLP
                                    1384  1          =
 000263 00                          1385  1          =SCBTFL     FLAG  ,                       TIMER FLAGS
 SCBTFL.SCBTUTR    80 ONES          1389  1          =           FLAG  SCBTUTR                 USER TIMER RUNNING
 SCBTFL.SCBTUCT    40 ONES          1394  1          =           FLAG  SCBTUCT                 USER TIMING CPU TIME
 SCBTFL.SCBTCPTR   20 ONES          1399  1          =           FLAG  SCBTCPTR                COMMAND TIMER RUNNING
 SCBTFL.SCBTCPCT   10 ONES          1404  1          =           FLAG  SCBTCPCT                COMMAND TIMING CPU TIME
 SCBTFL.SCBTCPQU   08 ONES          1409  1          =           FLAG  SCBTCPQU                "QUEUED" TIMER RUNNING
                                    1414  1          =
 000264 00                          1415  1          =SCBMB      FLAG  ,                       EXIT ENABLED FLAG
                                    1419  1          =*
                                    1420  1          =* FOLLOWING FLAGS USED FOR BOTH SCBMB AND SCBXFL
                                    1421  1          =*
 000265 00                          1422  1          =SCBXFL     FLAG   ,                      EXIT FLAGS
 SCBXFL.SCBXT      80 ONES          1426  1          =           FLAG  SCBXT                   TIMER EXIT
 SCBXFL.SCBXA      40 ONES          1431  1          =           FLAG  SCBXA                   ATTN EXIT
 SCBXFL.SCBXW      20 ONES          1436  1          =           FLAG  SCBXW                   WAIT EXIT
 SCBXFL.SCBXP      10 ONES          1441  1          =           FLAG  SCBXP                   PANIC EXIT
 SCBXFL.SCBXCPT    08 ONES          1446  1          =           FLAG  SCBXCPT                 CLP TIMER EXIT
 SCBXFL.SCBXALO    04 ONES          1451  1          =           FLAG  SCBXALO                 AUTO LOGOFF
 SCBXFL.SCBDEFMB   F0 NZ            1456  1          =           FLAG  (SCBDEFMB,SCBXT+SCBXA+SCBXW+SCBXP)  DEFAULT
                                    1476  1          =
 000268                             1477  1          =SCBSPB     DS    A                       SPB POINTER
 00026C                             1478  1          =SCBENQ     DS    A                       ENQUEUE ID
 000270                             1479  1          =SCPEPXIT   DS    A                       ENQUEUE POST EXIT ID
                                    1480  1          =
 000278                             1481  1          =           DS    D                       Available
 000280                             1482  1          =SCBPNAML   DS    H                       LENGTH OF THE PROGRAM NAME
 000282                             1483  1          =SCBPNAM    DS    CL8                     PROGRAM NAME
 00028A                             1484  1          =SCBUPRI    DS    X                       USER PRIORITY
                                    1485  1          =*
                                    1486  1          =* Shared symbol control
                                    1487  1          =*
 00028C                             1488  1          =SCBSSAB    DS    A                       POINTER TO SSAB CHAIN
                                    1489  1          =
1VP       (VP00) (09:48) (22MAR04) ORVYL'S PATCH COMMAND                                                                    Page    9
0D-Loc  Object Code    Addr1 Addr2  Stmt Lv Lineno    Source Statement           (Hibal 5, Asmedit 3.3)  HLASM R4.0  2004/03/22 09.48
+_____  ______ ____    _____ _____  ____ __ ______    ______ _________
0000290                             1490  1          =SCBWAITB   DS    A         WAIT BLOCK PTR (SEE M1GOWAIT IN M1SERV)
 000294                00294 00294  1491             =         END
                                    1500      43.              COPY  CLW
                                    1501             =*
                                    1502             =*                   COMMAND LANGUAGE WORK AREA
                                    1503             =*
                                    1504             =* ORGANIZATION:
                                    1505             =*
                                    1506             =*        COMMONLY USED CLP FLAGS, COMMAND BUFFERS AND OTHER CONTROL
                                    1507             =*        INFORMATION FOLLOW THE SESSION CONTROL PAGE INFORMATION.
                                    1508             =*        THE BALANCE OF THIS PAGE IS THE CLP SAVE AREA STACK.
                                    1509             =*
 000000                00000 00618  1510             =CLW      RECORD BEGIN
 000000                             1518  1          =CLWSTART   DS    0F
 000000                             1519  1          =CLWSCP     DS    A                       POINTER TO THE SCP
 000004                             1520  1          =           DS    5A                      AVAILABLE
 000018                             1521  1          =CLWUWST    DS    A                       STARTING LOC OF USER WORK AREA
 00001C                             1522  1          =CLWUPST    DS    A                       STARTING LOC OF USER PROGRAM
 000020                             1523  1          =CLWUPML    DS    A                       MAXIMUM LEN OF USER PROGRAM
 000024                             1524  1          =CLWUPRSV   DS    H                       USER PROGRAM RESERVE COUNT
 000026                             1525  1          =CLWUPURV   DS    H                       USER PROGRAM UN-RESERVE COUNT
 000028                             1526  1          =CLWIBUFN   DS    H                       LENGTH OF INPUT LINE
 00002A 606E40                      1527  1          =           DC    C'-> '
 00002D                             1528  1          =CLWIBUF    DS    CL235                   INPUT BUFFER
                                    1529  1          =
 000118                             1530  1          =CLWOBUF    DS    2H                      WRITE/PROMPT COUNTS
 00011C                             1531  1          =           DS    CL235                   OUTPUT BUFFER
                                    1532  1          =CLWOBUFL   EQU   *-CLWOBUF-4
                                    1533  1          =*                                      SESSION BREAK FLAGS:
 000207 00                          1534  1          =CLWFL      FLAG  ,                       ZEROED AT SESSION BREAK START
 CLWFL.CLWFTYPD    80 ONES          1538  1          =           FLAG  CLWFTYPD                CURRENT COMMAND WAS TYPED
 CLWFL.CLWFCMD     40 ONES          1543  1          =           FLAG  CLWFCMD                 PROCESSING COMMAND SVC
 CLWFL.CLWFWYL     20 ONES          1548  1          =           FLAG  CLWFWYL                 COMMAND HAS BEEN TO WYLBUR
                                    1553  1          =
 000208 00                          1554  1          =CLWFLG     FLAG  ,                       FLAGS
 CLWFLG.CLWFCERR   80 ONES          1558  1          =           FLAG  CLWFCERR                COMMAND ERROR: EXE BREAK
 CLWFLG.CLWFGPW    40 ONES          1563  1          =           FLAG  CLWFGPW                 GET-PUT WORK AREA ALLOCATED
 CLWFLG.CLWFTTRP   20 ONES          1568  1          =           FLAG  CLWFTTRP                TEMPORARY TRAP SET
 CLWFLG.CLWFTRAP   10 ONES          1573  1          =           FLAG  CLWFTRAP                TRAP IN PROGRESS
 CLWFLG.CLWFOSC    08 ONES          1578  1          =           FLAG  CLWFOSC                 READ/WRITE REAL (OS) CORE
 CLWFLG.CLWFQMSG   04 ONES          1583  1          =           FLAG  CLWFQMSG                "QUEUED" MESSAGE SENT
 CLWFLG.CLWFM31    02 ONES          1588  1          =           FLAG  CLWFM31                 PROGRAM IN 31 BIT MODE
                                    1593  1          =
 000209 00                          1594  1          =CLWPFL     FLAG  ,                       PROGRAM FLAGS
 CLWPFL.CLWPFSUP   80 ONES          1598  1          =           FLAG  CLWPFSUP                LINK AREA SET UP
 CLWPFL.CLWPFPL    40 ONES          1603  1          =           FLAG  CLWPFPL                 PROGRAM LOADING
 CLWPFL.CLWPFPIC   20 ONES          1608  1          =           FLAG  CLWPFPIC                PROGRAM ENTERED
 CLWPFL.CLWPFRUN   10 ONES          1613  1          =           FLAG  CLWPFRUN                EXECUTE PROGRAM
 CLWPFL.CLWPFPAU   08 ONES          1618  1          =           FLAG  CLWPFPAU                PAUSE BEFORE EXECUTION
 CLWPFL.CLWPFPRV   04 ONES          1623  1          =           FLAG  CLWPFPRV                PRIVATE PROGRAM
 CLWPFL.CLWPFPRT   02 ONES          1628  1          =           FLAG  CLWPFPRT                PROGRAM PROTECTED
 CLWPFL.CLWPFSHR   01 ONES          1633  1          =           FLAG  CLWPFSHR                SHARED PROGRAM LOADED
                                    1638  1          =
 00020A 00                          1639  1          =CLWMFL     FLAG  ,                       MISCELLANEOUS FLAGS
 CLWMFL.CLWMEVCN   80 ONES          1643  1          =           FLAG  CLWMEVCN                CONTINUE AFTER EVENTS
 CLWMFL.CLWMMNCN   40 ONES          1648  1          =           FLAG  CLWMMNCN                CONTINUE AFTER MONITORS
1VP       (VP00) (09:48) (22MAR04) ORVYL'S PATCH COMMAND                                                                    Page   10
0D-Loc  Object Code    Addr1 Addr2  Stmt Lv Lineno    Source Statement           (Hibal 5, Asmedit 3.3)  HLASM R4.0  2004/03/22 09.48
+_____  ______ ____    _____ _____  ____ __ ______    ______ _________
0CLWMFL.CLWMBSUC   20 ONES          1653  1          =           FLAG  CLWMBSUC                SIMULATED BRANCH SUCCESSFUL
 CLWMFL.CLWMNCST   10 ONES          1658  1          =           FLAG  CLWMNCST                SUPPRESS AUTOMATIC COST PRINT
 CLWMFL.CLWMCLRP   08 ONES          1663  1          =           FLAG  CLWMCLRP                UNREC. CLR FOUND
 CLWMFL.CLWMNOL    04 ONES          1668  1          =           FLAG  CLWMNOL                 DON'T PRINT ON CONT. EVENTS
 CLWMFL.CLWMDSUP   02 ONES          1673  1          =           FLAG  CLWMDSUP                DUMP AREA SET UP
 CLWMFL.CLWMDUMP   01 ONES          1678  1          =           FLAG  CLWMDUMP                DUMP COMMAND BEING PROCESSED
                                    1683  1          =
 00020B 00                          1684  1          =CLWMONF    FLAG  ,                       PROGLOOK/MONITOR FLAGS
 CLWMONF.CLWFMWP   80 ONES          1688  1          =           FLAG  CLWFMWP                 MONITOR WORK PAGE EXISTS
 CLWMONF.CLWFPRGL  40 ONES          1693  1          =           FLAG  CLWFPRGL                PROGLOOK IN PROGRESS
 CLWMONF.CLWDOTIM  20 ONES          1698  1          =           FLAG  CLWDOTIM                SET TIMER AT RUN
 CLWMONF.CLWCPTIM  10 ONES          1703  1          =           FLAG  CLWCPTIM                SET CPU TIME TIMER
                                    1708  1          =
 00020C 00                          1709  1          =CLWSFL     FLAG  ,                       SESSION FLAGS
 CLWSFL.CLWSSAM    80 ONES          1713  1          =           FLAG  CLWSSAM                 STAND ALONE MODE
 CLWSFL.CLWSSP     40 ONES          1718  1          =           FLAG  CLWSSP                  SPECIAL PERSON
                                    1723  1          =
 00020D                             1724  1          =           DS    X
                                    1725  1          =
 00020E                             1726  1          =CLWEXSVC   DS    H                       EXIT SVC
 000210                             1727  1          =CLWPSVC    DS    H                       PAUSE/TRAP SVC
 000212                             1728  1          =CLWCSVC    DS    H                       COMMAND SVC
                                    1729  1          =
 000214                             1730  1          =CLWDSP     DS    X                       DISPATCHING PRIORITY
 000215                             1731  1          =CLWPFS     DS    X                       PARAMTER FLAG SAVE
 000218                             1732  1          =CLWPS      DS    3F                      PARAMETER SAVE
                                    1733  1          =
 000224                             1734  1          =CLWMLMOD   DS    F                       MILTEN MODE WORD
 000228                             1735  1          =CLWWLMOD   DS    F                       WYLBUR MODE WORD
                                    1736  1          =
 00022C                             1737  1          =CLWTIMER   DS    A                       TIMER VALUE TO BE SET AT RUN
 000230                             1738  1          =CLWTIMAX   DS    H                       MAX TIMER INTERVAL (IN .1 SEC)
 000232                             1739  1          =CLWTIVAL   DS    H                       CURRENT TIMER INTERVAL
 000234                             1740  1          =CLWTMAX    DS    H                       CPU TIME LIMIT
 000236                             1741  1          =CLWTIME    DS    H                       CURRENT CPU TIME
 000238                             1742  1          =CLWPELT    DS    A                       ELAPSED TIME
 00023C                             1743  1          =CLWPCVM    DS    A                       VM CHARGES
 000240                             1744  1          =CLWPIOS    DS    A                       I/O COUNTS
 000244                             1745  1          =CLWPCUSE   DS    A                       CPU TIME
                                    1746  1          =
 000248                             1747  1          =CLWPROGN   DS    CL8                     PROGRAM NAME
 000250                             1748  1          =CLWLNKP    DS    A                       LINK PAGE POINTER
 000254                             1749  1          =CLWGPWP    DS    A                       GET-PUT WORK PAGE POINTER
 000258                             1750  1          =CLWMONP    DS    A                       MONITOR/PROGLOOK PAGE
 00025C                             1751  1          =CLWSPB     DS    A                       SHARED PROGRAM BLOCK
 000260                             1752  1          =CLWDUMPB   DS    A                       POINTER TO DUMP BUFFER
                                    1753  1          =
 000264                             1754  1          =CLWPER     DS    A                       PER INFO
 000268                             1755  1          =CLWMON     DS    A                       MONITOR INFO
                                    1756  1          =
 00026C                             1757  1          =CLWEVCNT   DS    A                       NUMBER OF EVENTS TO EXECUTE
 000270                             1758  1          =CLWTRAPA   DS    A                       ADDR OF INST BEING TRAPPED
 000274                             1759  1          =CLWTRAPB   DS    A                       ADDR OF INST AFTER
 000278                             1760  1          =CLWTRAPI   DS    3H                      INSTRUCTION BEING TRAPPED
 00027E                             1761  1          =CLWTRAPJ   DS    H                       1ST HALFWORD OF INST AFTER
                                    1762  1          =
1VP       (VP00) (09:48) (22MAR04) ORVYL'S PATCH COMMAND                                                                    Page   11
0D-Loc  Object Code    Addr1 Addr2  Stmt Lv Lineno    Source Statement           (Hibal 5, Asmedit 3.3)  HLASM R4.0  2004/03/22 09.48
+_____  ______ ____    _____ _____  ____ __ ______    ______ _________
0                                   1763  1          =CLWNTRAP   EQU   8,,C'N'                 NO. OF TRAPS
 000280                             1764  1          =CLWTRAPS   DS    (CLWNTRAP)XL5           TRAP TABLE
 0002A8                             1765  1          =CLWTTRAP   DS    XL5                     TEMPORARY TRAP
                                    1766  1          =*
                                    1767  1          =* KEYWORD FILE RECORD AREA
                                    1768  1          =*
 0002AD                             1769  1          =CLWKFL     DS    X                       KEYWORD FILE FLAGS
                                    1770  1          =
                                    1771  1          =CLWKFAC    EQU   X'80'                   PROGRAM AUTO CALL
                                    1772  1          =CLWKFMP    EQU   X'40'                   PROGRAM MANDATORY
                                    1773  1          =
 0002AE                             1774  1          =CLWKACC    DS    CL5                     ACCOUNT FOR PROGRAM SEARCH
 0002B3                             1775  1          =CLWKPROG   DS    CL8                     DEFAULT/MANDATORY PROGRAM
 0002BB                             1776  1          =CLWKMISC   DS    CL8                     MISCELLANEOUS FIELDS
                                    1777  1          =*
                                    1778  1          =*  SCANNER UTILITY AREA
                                    1779  1          =*
                                    1780  1          =           SCANCB PFX=CLWKW
 0002C4                             1781  1 01-SCANC +CLWKWCB    DS    0F
 0002C4                             1782  1 01-SCANC +CLWKWVAL   DS    A                       VALUE RETURNED
 0002C8                             1783  1 01-SCANC +CLWKWKW    DS    CL8                     CURRENT KEY WORD
 0002D0                             1784  1 01-SCANC +CLWKWLEN   DS    A                       LENGTH LEFT TO SCAN
 0002D4                             1785  1 01-SCANC +CLWKWLOC   DS    A                       NEXT THING TO SCAN
 0002D8                             1786  1 01-SCANC +CLWKWRA    DS    A                       RETURN ADDRESS
 0002DC                             1787  1 01-SCANC +CLWKWPRT   DS    A                       ROUTING TABLE ADDRESS
 0002E0                             1788  1 01-SCANC +CLWKWCLT   DS    A                       SCAN TYPE
                                    1789  1          +*                                      0 = NORMAL SCAN
                                    1790  1          +*                                      4 = EXPRESSION ISOLATION
                                    1791  1          +*                                      8 = EXPRESSION SCAN
                                    1792  1 01-SCANC +CLWKWCBL   EQU *-CLWKWCB
                                    1793  1          =
 0002E8                             1794  1          =CLWTEMP    DS    4D                      WORK AREA
                                    1795  1          =
 000308                             1796  1          =CLWDELTA   DS    F                       Wylbr line delta
 00030C                             1797  1          =           DS    F                       Spare
 000310                             1798  1          =CLWEVHST   DS    8D                      EVENT HISTORY
 000350                             1799  1          =CLWEVENT   DS    D                       LAST EVENT INFO
 000358                             1800  1          =CLWQRET    DS    3F                      QUICK RETURN FOR VSUB
                                    1801  1          =*                                      SAVE AREA FOR BRR,BR,WAR
                                    1802  1          =*
 000368                             1803  1          =CLWSBPSW   DS    D                       SESSION BREAK PSW
 000370                             1804  1          =CLWSBGPR   DS    16F                     SESSION BREAK GPRS
 0003B0                             1805  1          =CLWACCT    DS    C'GG.UUU'               USER ACCOUNT
                                    1806  1          =CLWUSER    EQU   CLWACCT+3,3,C'C'        USER
                                    1807  1          =CLWGROUP   EQU   CLWACCT,2,C'C'          GROUP
 0003B8                             1808  1          =CLWIDT     DS    A                       ADDRESS OF THE IDTS
 0003BC                             1809  1          =CLWNIDT    DS    H                       NUMBER OF IDTS
 0003C0                             1810  1          =           DS    0F                      START OF SAVE AREA
 0003C0                             1811  1          =CLWSVA     DS    XL600                   SAVE STACK
                                    1812  1          =CLWSVAEN   EQU   *-4,4,C'X'              LAST WORD OF THE STACK
 000618                00618 00618  1813             =         END   ,
1VP       (VP00) (09:48) (22MAR04) ORVYL'S PATCH COMMAND                                                                    Page   12
0Loc    Object Code    Addr1 Addr2  Stmt Lv Lineno    Source Statement           (Hibal 5, Asmedit 3.3)  HLASM R4.0  2004/03/22 09.48
+___    ______ ____    _____ _____  ____ __ ______    ______ _________
0                                   1824      46.     *  WORK AREAS
                                    1825      47.     *
 000000                00000 00090  1826      48.     WA       RECORD BEGIN
                                    1834  1   49.                VSA   SR,R11
 000000                             1835  1 01-VSA   +           DS    (R11+1-(SR)+16*((SR)/(R11+1))/((SR)/(R11+1)))F
 000028 00                          1836  1   50.     PFL        FLAG  ,
 PFL.PFLERR        80 ONES          1840  1   51.                FLAG  PFLERR                  ERROR MESSAGE
 PFL.PFLNOVER      40 ONES          1845  1   52.                FLAG  PFLNOVER                SKIP VERIFICATION MESSAGE
 PFL.PFLSYS        20 ONES          1850  1   53.                FLAG  PFLSYS                  SYSTEM PATCH EXPECTED
 PFL.PFLOR         10 ONES          1855  1   54.                FLAG  PFLOR                   PATCH BY 'OR'ING
 PFL.PFLAND        08 ONES          1860  1   55.                FLAG  PFLAND                  PATCH BY 'AND'ING
 00002A                             1865  1   56.     PALEN      DS    H
 00002C                             1866  1   57.     VERLEN     DS    H
                                    1867  1   58.     PASIZE     EQU   32                      SIZE OF PATCH CORE AREA
 000030                             1868  1   59.                DS    0F
 000030                             1869  1   60.     PA         DS    (PASIZE)X
 000050                             1870  1   61.     VER        DS    (PASIZE)X
 000070                             1871  1   62.     PAOLD      DS    (PASIZE)X
                                    1872  1   63.     WASIZE     EQU   *-WA
 000090                00090 00090  1873      64.              END   ,
-                                   1883      66.     * READ/WRITE CORE WORK AREA
                                    1884      67.     *
 000000                00000 00034  1885      68.     RWCWA    RECORD BEGIN
 000000                             1893  1   69.     RWCR0      DS    A                       SAVED R0
 000004                             1894  1   70.     RWCR1      DS    A                       SAVED R1
                                    1895  1   71.                VSA   SR,R11
 000008                             1896  1 01-VSA   +           DS    (R11+1-(SR)+16*((SR)/(R11+1))/((SR)/(R11+1)))F
 000030 00                          1897  1   72.     RWCFL      FLAG  ,                       FLAGS
 RWCFL.RWCFLSUP    80 ONES          1901  1   73.                FLAG  (RWCFLSUP,X'80')
 RWCFL.RWCFLPRO    02 ONES          1910  1   74.                FLAG  (RWCFLPRO,X'02')        PROTECTED
                                    1919  1   75.
 000031                             1920  1   76.     RWCFL1     DS    X                       DUMMY FLAG
                                    1921  1   77.
 000034                             1922  1   78.                DS    0F
                                    1923  1   79.     RWCWASIZ   EQU   *-RWCWA
 000034                00034 00034  1924      80.              END   ,
1VP       (VP00) (09:48) (22MAR04) ORVYL'S PATCH COMMAND                                                                    Page   13
0Loc    Object Code    Addr1 Addr2  Stmt Lv Lineno    Source Statement           (Hibal 5, Asmedit 3.3)  HLASM R4.0  2004/03/22 09.48
+___    ______ ____    _____ _____  ____ __ ______    ______ _________
0000013                00000 00848  1934      82.     VP       CSECT ,
 USING  CLW,R10                     1936      83.              USING CLW,CLWR                ##
 USING  WA,R8                       1945      84.              USING WA,WAR                  ##
                                    1954      85.     *  PATCH COMMAND
                                    1955      86.     *
 000013 00/902B D000         00000  1956      87.     PATCH    VENTER SR,R11,WASIZE
 000018 188D/41D0 D090       00090  1960             +
 00001E 0D70                        1964             +
 USING  *,R7
                                    1976      88.     BASE     EQU   *
 000020 9200 8028      00028        1977      89.              CLEAR PFL                     ZERO FLAGS
 000024 9104 A209      00209        1984      90.              IF    CLWPFPRV,PRIVPROG        PRIVATE PROGRAM?
 000028 4710 7030            00050  1996             +
 00002C 4110 705A            0007A  2002      91.              SCAN  PATTBL,CLWKWCB          SCAN FOR OPTION
 000030 41F0 A2C4            002C4  2016             +
 000034 58E0 76B8/0DEE       006D8  2019             +
                                    2021      92.
 00003A 1000/4780 704E       0006E  2022      93.     SCRET    IF    ('LPR R0,R0',ZERO),PATEXIT
                                    2039      94.     *
 000040 4590 767E            0069E  2040      95.     ILLSTR   SEG   (1),(0)
 000044 4110 0000            00000  2055      96.              SEG   ': Invalid string'
 000048 4590 7696            006B6  2057             +
 00004C 47F0 7048            00068  2058      97.              B     ERROR
                                    2059      98.
 000050                             2060      99.     PRIVPROG LABEL ,
 000050 4110 0011            00011  2062     100.              SEG   'Private program loaded, command blocked'
 000054 4590 7696            006B6  2064             +
 000058 47F0 7048            00068  2065     101.              B     ERROR
                                    2066     102.
 00005C 4590 767E            0069E  2067     103.     UNREC    SEG   (1),(0)
 000060 4110 0039            00039  2082     104.              SEG   ': Invalid'
 000064 4590 7696            006B6  2084             +
                                    2085     105.
 000068 5890 76BC/0D99       006DC  2086     106.     ERROR    VCALL TYPEIT
                                    2090     107.
 00006E                             2091     108.     PATEXIT   DS   0H
 00006E 94F7 A208      00208        2092     109.              CLEAR CLWFOSC
 000072 18D8/982B D000       00000  2099     110.              VEXIT SR,R11
 000078 07F9                        2103             +
1VP       (VP00) (09:48) (22MAR04) ORVYL'S PATCH COMMAND                                                                    Page   14
0Current Usings:  (*,R7) (WA,R8) (CLW,R10)
0Loc    Object Code    Addr1 Addr2  Stmt Lv Lineno    Source Statement           (Hibal 5, Asmedit 3.3)  HLASM R4.0  2004/03/22 09.48
+___    ______ ____    _____ _____  ____ __ ______    ______ _________
0                                   2105     112.     *  OPTION TABLE
                                    2106     113.     *
 00007A                             2107     114.     PATTBL   SCKW  PSW,PATPSW
 00007A 020000F2D7E2E6              2108             +
 000081                             2109     115.              SCKW  GPR,PATGPR
 000081 02000160C7D7D9              2110             +
 000088                             2111     116.              SCKW  FPR,PATFPR
 000088 020001B0C6D7D9              2112             +
 00008F 0100013EC9C1                2113     117.              SCKW  IA,PATIA
 000095                             2115     118.              SCKW  CORE,PATCORE,A
 000095 0B000212C3D6D9C5            2116             +
 00009D                             2117     119.              SCKW  OSCORE,PATOSC,A
 00009D 0D00020ED6E2C3D6            2118             +
 0000A7                             2119     120.              SCKW  SAVEPSW,PATSPSW
 0000A7 060000FAE2C1E5C5            2120             +
 0000B2                             2121     121.              SCKW  SAVEGPR,PATSGPR
 0000B2 06000168E2C1E5C5            2122             +
 0000BD                             2123     122.              SCKW  SAVEIA,PATSIA
 0000BD 05000146E2C1E5C5            2124             +
 0000C7 000000F2D7                  2125     123.              SCKW  P,PATPSW
 0000CC 00000160C7                  2127     124.              SCKW  G,PATGPR
 0000D1 000001B0C6                  2129     125.              SCKW  F,PATFPR
 0000D6 00000212C3                  2131     126.              SCKW  C,PATCORE
 0000DB 010000FAE2D7                2133     127.              SCKW  SP,PATSPSW
 0000E1 01000168E2C7                2135     128.              SCKW  SG,PATSGPR
 0000E7                             2137     129.              SCKW  SIA,PATSIA
 0000E7 02000146E2C9C1              2138             +
                                    2139     130.     *        SCKW  SCP,PATSCP
 0000EE FF00005C                    2140     131.              SCKW  ,UNREC
1VP       (VP00) (09:48) (22MAR04) ORVYL'S PATCH COMMAND                                                                    Page   15
0Current Usings:  (*,R7) (WA,R8) (CLW,R10)
0Loc    Object Code    Addr1 Addr2  Stmt Lv Lineno    Source Statement           (Hibal 5, Asmedit 3.3)  HLASM R4.0  2004/03/22 09.48
+___    ______ ____    _____ _____  ____ __ ______    ______ _________
0                                   2143     133.     *  PATCH PSW
                                    2144     134.     *
 0000F2 4130 A368            00368  2145     135.     PATPSW   LA    TR,CLWSBPSW
 0000F6 47F0 70E2            00102  2146     136.              B     PATPC
                                    2147     137.
 0000FA 5830 A000            00000  2148     138.     PATSPSW  L     TR,CLWSCP               GET SCP ADDRESS
 0000FE 4130 3070            00070  2149     139.              WITH  (SCP,TR),'LA TR,SCPXPSW'
 USING  SCP,R3
 DROP   SCP,R3
                                    2173     140.
 000102                             2174     141.     PATPC    LABEL ,
 000102 5890 76C0/0D99       006E0  2176     142.              IF    ('VCALL EVAL',NEG),ERROR DISPLACEMENT
 000108 4740 7048            00068  2189             +
 00010C 1220                        2195     143.              LTR   SR,R0
 00010E 4740 70FA            0011A  2196     144.              IF    (M,OR,(R0,GE,8)),BEGIN
 000112 5900 76C4            006E4  2217             +
 000116 4750 7106            00126  2218             +
 00011A 4110 0043            00043  2223  1  145.                SEG   'Invalid displacement'
 00011E 4590 7696            006B6  2225  1          +
 000122 47F0 7048            00068  2226  1  146.                B     ERROR
 000126                             2227     147.              END
 000126 4100 0008            00008  2231     148.              LA    R0,8
 00012A 1B02                        2232     149.              SR    R0,SR                   COMPUTE LENGTH
 00012C 4112 3000            00000  2233     150.              LA    R1,@TR(SR)              LOCATION
 000130 5890 76C8/0D99       006E8  2234     151.              IF    ('VCALL EVHEX',NEG),ERROR   GET THE STRING
 000136 4740 7048            00068  2247             +
 00013A 47F0 704E            0006E  2253     152.              B     PATEXIT
                                    2254     153.
1VP       (VP00) (09:48) (22MAR04) ORVYL'S PATCH COMMAND                                                                    Page   16
0Current Usings:  (*,R7) (WA,R8) (CLW,R10)
0Loc    Object Code    Addr1 Addr2  Stmt Lv Lineno    Source Statement           (Hibal 5, Asmedit 3.3)  HLASM R4.0  2004/03/22 09.48
+___    ______ ____    _____ _____  ____ __ ______    ______ _________
0                                   2256     155.     *  PATCH IA
                                    2257     156.     *
                                    2258     157.     *
                                    2259     158.     *  PATCH IA OR SAVEIA
 00013E                             2260     159.     PATIA    LABEL ,
 00013E 4130 A36C            0036C  2262     160.              LA    TR,CLWSBPSW+4
 000142 47F0 712E            0014E  2263     161.              B     PATIACOM
                                    2264     162.
 000146                             2265     163.     PATSIA   LABEL ,
 000146 5830 A000            00000  2267     164.              L     TR,CLWSCP
 00014A 4130 3074            00074  2268     165.              WITH  (SCP,TR),'LA TR,SCPXPSW+4'
 USING  SCP,R3
 DROP   SCP,R3
 00014E                             2292     166.     PATIACOM LABEL ,
 00014E 5890 76C0/0D99       006E0  2294     167.              IF    ('VCALL EVAL',NEG),ERROR
 000154 4740 7048            00068  2307             +
 000158 5000 3000            00000  2313     168.              ST    R0,@TR
 00015C 47F0 704E            0006E  2314     169.              B     PATEXIT
1VP       (VP00) (09:48) (22MAR04) ORVYL'S PATCH COMMAND                                                                    Page   17
0Current Usings:  (*,R7) (WA,R8) (CLW,R10)
0Loc    Object Code    Addr1 Addr2  Stmt Lv Lineno    Source Statement           (Hibal 5, Asmedit 3.3)  HLASM R4.0  2004/03/22 09.48
+___    ______ ____    _____ _____  ____ __ ______    ______ _________
0                                   2316     171.     *  PATCH GPR
                                    2317     172.     *
 000160 4130 A370            00370  2318     173.     PATGPR   LA    TR,CLWSBGPR
 000164 47F0 7150            00170  2319     174.              B     PATGC
                                    2320     175.
 000168 5830 A000            00000  2321     176.     PATSGPR  L     TR,CLWSCP
 00016C 4130 3078            00078  2322     177.              WITH  (SCP,TR),'LA TR,SCPXGPRS'
 USING  SCP,R3
 DROP   SCP,R3
                                    2346     178.
 000170                             2347     179.     PATGC    LABEL ,
 000170 5890 76C0/0D99       006E0  2349     180.              IF    ('VCALL EVAL',NEG),ERROR REGISTER
 000176 4740 7048            00068  2362             +
 00017A 4780 7184            001A4  2368     181.              BZ    ILLGPR
 00017E 1200/4740 7184       001A4  2369     182.              IF    (R0,M),ILLGPR
 000184 5900 76CC            006EC  2386     183.              IF    (R0,GE,16),ILLGPR
 000188 47A0 7184            001A4  2400             +
 00018C 1820                        2406     184.              LR    SR,R0
 00018E 5890 76C0/0D99       006E0  2407     185.              IF    ('VCALL EVAL',NEG),ERROR VALUE
 000194 4740 7048            00068  2420             +
 000198 8920 0002            00002  2426     186.              SLL   SR,2
 00019C 5002 3000            00000  2427     187.              ST    R0,@TR(SR)
 0001A0 47F0 704E            0006E  2428     188.              B     PATEXIT
                                    2429     189.
 0001A4 4110 0058            00058  2430     190.     ILLGPR   SEG   'Invalid GPR'
 0001A8 4590 7696            006B6  2432             +
 0001AC 47F0 7048            00068  2433     191.              B     ERROR
1VP       (VP00) (09:48) (22MAR04) ORVYL'S PATCH COMMAND                                                                    Page   18
0Current Usings:  (*,R7) (WA,R8) (CLW,R10)
0Loc    Object Code    Addr1 Addr2  Stmt Lv Lineno    Source Statement           (Hibal 5, Asmedit 3.3)  HLASM R4.0  2004/03/22 09.48
+___    ______ ____    _____ _____  ____ __ ______    ______ _________
0                                   2435     193.     *  PATCH FPR
                                    2436     194.     *
 0001B0                             2437     195.     PATFPR   LABEL ,
 0001B0 5890 76C0/0D99       006E0  2439     196.              IF    ('VCALL EVAL',NEG),ERROR REGISTER
 0001B6 4740 7048            00068  2452             +
 0001BA 4780 71E0            00200  2458     197.              BZ    ILLFPR
 0001BE 1220                        2459     198.              LTR   SR,R0                   SAVE REGISTER NUMBER
 0001C0 4740 71E0            00200  2460     199.              IF    (M,OR,(R0,GT,6)),ILLFPR       VALID REGISTER?
 0001C4 5900 76D0            006F0  2481             +
 0001C8 4720 71E0            00200  2484             +
 0001CC 5000 A2E8            002E8  2490     200.              ST    R0,CLWTEMP
 0001D0 9101 A2EB      002EB        2491     201.              IF    (CLWTEMP+3,ONE,1),ILLFPR
 0001D4 4710 71E0            00200  2505             +
 0001D8                             2511     202.              CLEAR (CLWTEMP,8)               CLEAR A DOUBLE WORD
 0001D8 D707 A2E8 A2E8 002E8 002E8  2517             +
 0001DE 4110 A2E8            002E8  2518     203.              LA    R1,CLWTEMP
 0001E2 4100 0008            00008  2519     204.              LA    R0,8
 0001E6 5890 76C8/0D99       006E8  2520     205.              IF    ('VCALL EVHEX',NEG),ERROR
 0001EC 4740 7048            00068  2533             +
 0001F0 8920 0004            00004  2539     206.              SLL   SR,4
 0001F4 4420 71DC            001FC  2540     207.              EX    SR,PFLD                 LOAD NEW VALUE
 0001F8 47F0 704E            0006E  2542     208.              B     PATEXIT
                                    2543     209.
 0001FC 6800 A2E8            002E8  2544     210.     PFLD     LD    *-*,CLWTEMP
                                    2545     211.
 000200 4110 0064            00064  2546     212.     ILLFPR   SEG   'Invalid FPR'
 000204 4590 7696            006B6  2548             +
 000208 47F0 7048            00068  2549     213.              B     ERROR
1VP       (VP00) (09:48) (22MAR04) ORVYL'S PATCH COMMAND                                                                    Page   19
0Current Usings:  (*,R7) (WA,R8) (CLW,R10)
0Loc    Object Code    Addr1 Addr2  Stmt Lv Lineno    Source Statement           (Hibal 5, Asmedit 3.3)  HLASM R4.0  2004/03/22 09.48
+___    ______ ____    _____ _____  ____ __ ______    ______ _________
0                                   2551     215.     *  PATCH SCP  <LINE>  <OFFSET>  <PATCH TEXT>
                                    2552     216.     *
 00020C                             2553     217.     PATSCP   LABEL ,
 00020C 07F7                        2555     218.              BR    BR
1VP       (VP00) (09:48) (22MAR04) ORVYL'S PATCH COMMAND                                                                    Page   20
0Current Usings:  (*,R7) (WA,R8) (CLW,R10)
0Loc    Object Code    Addr1 Addr2  Stmt Lv Lineno    Source Statement           (Hibal 5, Asmedit 3.3)  HLASM R4.0  2004/03/22 09.48
+___    ______ ____    _____ _____  ____ __ ______    ______ _________
0                                   2557     220.     *  PATCH CORE
                                    2558     221.     *
 00020E 9608 A208      00208        2559     222.     PATOSC   SET   CLWFOSC
 000212                             2566     223.     PATCORE  LABEL ,
 000212 5890 76C0/0D99       006E0  2568     224.              IF    ('VCALL EVAL',NEG),ERROR LOCATION
 000218 4740 7048            00068  2581             +
 00021C 5400 76D4            006F4  2587     225.              N     R0,=XL4'0FFFFFFF'
 000220 9140 A20C      0020C        2588     226.              IF    (~CLWSSP,AND,~CLWFOSC),BEGIN
 000224 4710 7214            00234  2600             +
 000228 9108 A208      00208        2611             +
 00022C 4710 7214            00234  2612             +
 000230 5400 76D8            006F8  2617  1  227.                N     R0,=XL4'00FFFFFF'
 000234                             2618     228.              END   ,
 000234 5900 76DC            006FC  2622     229.              IF    (R0,LE,4095),PCNWRT     WRITE PROTECTED
 000238 47C0 73AE            003CE  2636             +
 00023C 1820                        2642     230.              LR    SR,R0                   SAVE LOCATION
 00023E 4100 0020            00020  2643     231.              LA    R0,PASIZE
 000242 4110 8030            00030  2644     232.              LA    R1,PA
 000246 5890 76C8/0D99       006E8  2645     233.              IF    ('VCALL EVHEX',NEG),ERROR   GET THE STRING
 00024C 4740 7048            00068  2658             +
 000250 1200/47D0 704E       0006E  2664     234.              IF    (R0,NP),PATEXIT         EXIT IF NO STRING
 000256 4000 802A            0002A  2681     235.              STH   R0,PALEN                STRING LEN
 00025A                             2682     236.              CLEAR VERLEN
 00025A D701 802C 802C 0002C 0002C  2688             +
 000260 4110 73BA            003DA  2689     237.     PCSCAN   SCAN  PCOPT,CLWKWCB           PATCH CORE OPTIONS
 000264 41F0 A2C4            002C4  2703             +
 000268 58E0 76B8/0DEE       006D8  2706             +
 00026E 1812                        2708     238.              LR    R1,SR
 000270 4100 8070            00070  2709     239.              LA    R0,PAOLD                GET OLD DATA
 000274 48F0 802A            0002A  2710     240.              LH    R15,PALEN
 000278 49F0 802C            0002C  2711     241.              IF    (R15,LT,VERLEN),'LH R15,VERLEN'
 00027C 47B0 7264            00284  2723             +
 000280 48F0 802C            0002C  2729             +
 000284 5890 76E0/0D99       00700  2734     242.              VCALL READCORE                GET THE OLD TEXT
 00028A 47FF 726E            0028E  2738     243.              B     *+4(15)                 RETURN CODE
 00028E 47F0 727E            0029E  2739     244.              B     PCPROT                  PROTECTED CORE
 000292 47F0 7294            002B4  2740     245.              B     PCUSER                  GOOD OLD USER CORE
 000296 47F0 7396            003B6  2741     246.              B     PCNONE
 00029A 47F0 73A2            003C2  2742     247.              B     PCBAD
                                    2743     248.
 00029E 4190 75FC            0061C  2744     249.     PCPROT   LA    RAR,VERPATCH
 0002A2 9120 8028      00028        2745     250.              IF    PFLSYS,'L RAR,=V(PRIVTEST)' SYSTEMS PATCH EXPECTED
 0002A6 47E0 728E            002AE  2755             +
 0002AA 5890 76E4            00704  2761             +
 0002AE 0D99                        2766     251.              BASR  RAR,RAR                 GET CHECK PRIVS
 0002B0 4770 704E            0006E  2767     252.              BNZ   PATEXIT
                                    2768     253.
 0002B4 4810 802C            0002C  2769     254.     PCUSER   LH    R1,VERLEN
 0002B8 1211/4780 72B4       002D4  2770     255.              IF    ((R1,NZ),AND,('DECR R1;EX R1,VERCLC',NE)),BEGIN
 0002BE 0610/4410 7390       003B0  2791             +
 0002C4 4780 72B4            002D4  2794             +
 0002C8 4110 0070            00070  2799  1  256.                SEG   'Patch aborted, '
 0002CC 4590 7696            006B6  2801  1          +
 0002D0 9680 8028      00028        2802  1  257.                SET   PFLERR                  SET ERROR
1VP       (VP00) (09:48) (22MAR04) ORVYL'S PATCH COMMAND                                                                    Page   21
0Current Usings:  (*,R7) (WA,R8) (CLW,R10)
0Loc    Object Code    Addr1 Addr2  Stmt Lv Lineno    Source Statement           (Hibal 5, Asmedit 3.3)  HLASM R4.0  2004/03/22 09.48
+___    ______ ____    _____ _____  ____ __ ______    ______ _________
00002D4 72B8           002D4 002BC  2808     258.              END   ELSE,BEGIN
 0002C6 72B8           002C8 002D4  2817             +
 0002D4 47F0 7300            00320  2819             +
 0002D8 05E0                        2825  1  259.                BALR  R14,0                SET 14 NON-ZERO TO OK SYS PATCH
 0002DA 1812                        2826  1  260.                LR    R1,SR                SOURCE
 0002DC 4100 8030            00030  2827  1  261.                LA    R0,PA                 DESTINATION
 0002E0 48F0 802A            0002A  2828  1  262.                LH    R15,PALEN
 0002E4 5890 76E8            00708  2829  1  263.                L     RAR,=A(RITECORE)     PLAIN PATCH
 0002E8 9110 8028      00028        2830  1  264.                IF    PFLOR,'L  RAR,=A(ORCORE)'
 0002EC 47E0 72D4            002F4  2840  1          +
 0002F0 5890 76EC            0070C  2846  1          +
 0002F4 9108 8028      00028        2851  1  265.                IF    PFLAND,'L  RAR,=A(ANDCORE)'
 0002F8 47E0 72E0            00300  2861  1          +
 0002FC 5890 76F0            00710  2867  1          +
 000300 0D99                        2872  1  266.                BASR  RAR,RAR              DO THE PATCH
 000302 4780 72EE            0030E  2873  1  267.                IF    (NZ,AND,CLWFOSC),PCNWRT
 000306 9108 A208      00208        2892  1          +
 00030A 4710 73AE            003CE  2895  1          +
 00030E                             2901  1  268.                IF    ((PALEN,LE,VERLEN),OR,PFLNOVER),PATEXIT SKIP VERIFY?
 00030E D501 802A 802C 0002A 0002C  2915  1          +
 000314 47C0 704E            0006E  2918  1          +
 000318 9140 8028      00028        2927  1          +
 00031C 4710 704E            0006E  2930  1          +
 000320                             2936     269.              END
                                    2940     270.
 000320 4110 0080            00080  2941     271.              SEG   'Old data was '
 000324 4590 7696            006B6  2943             +
 000328 4130 8070            00070  2944     272.              LA    TR,PAOLD                 OLD DATA
 00032C 4820 802A            0002A  2945     273.              LH    SR,PALEN
 000330 1A22                        2946     274.              AR    SR,SR                   CONVER BYTES TO HEX DIGITS
                                    2947     275.
 000332                             2948     276.     PCPLOP   LABEL ,
 000332 58F0 3000            00000  2950     277.              BTX   CLWTEMP,8,L:@TR
 000336 4100 0008            00008  2962             +
 00033A 4110 A2E8            002E8  2969             +
 00033E 58E0 76F4/0DEE       00714  2972             +
 000344 1920/47C0 7346       00366  2974     278.              IF    (SR,LE,R0),PCPDONE      PRINT ALL?
 00034A 4110 A2E8            002E8  2992     279.              SEG   CLWTEMP,(0)
 00034E 4590 767E            0069E  3007             +
 000352 4110 008E            0008E  3008     280.              SEG   ' '
 000356 4590 7696            006B6  3010             +
 00035A 4130 3004            00004  3011     281.              LA    TR,@TR+4                  NEXT WORD
 00035E 5B20 76C4            006E4  3012     282.              S     SR,=A(8)                DROP LENGTH
 000362 47F0 7312            00332  3013     283.              B     PCPLOP
                                    3014     284.
 000366 4110 A2E8/1802       002E8  3015     285.     PCPDONE  SEG   CLWTEMP,(SR)
 00036C 4590 767E            0069E  3030             +
 000370 4810 802A            0002A  3031     286.              LH    R1,PALEN                DISPLAY TRANSLATION
 000374 5830 76F8            00718  3032     287.              L     TR,=V(BCDTBL)
 000378 0610/4410 772A       0074A  3033     288.              DEX   R1,'TR PAOLD(1),@TR'
 00074A DC00 8070 3000 00070 00000  3044             +
 00037E 4110 0090            00090  3052     289.              SEG   '  |'
 000382 4590 7696            006B6  3054             +
 000386 4110 8070            00070  3055     290.              LA    R1,PAOLD
1VP       (VP00) (09:48) (22MAR04) ORVYL'S PATCH COMMAND                                                                    Page   22
0Current Usings:  (*,R7) (WA,R8) (CLW,R10)
0Loc    Object Code    Addr1 Addr2  Stmt Lv Lineno    Source Statement           (Hibal 5, Asmedit 3.3)  HLASM R4.0  2004/03/22 09.48
+___    ______ ____    _____ _____  ____ __ ______    ______ _________
000038A 4800 802A            0002A  3056     291.              LH    R0,PALEN
 00038E 4590 767E            0069E  3057     292.              SEG   (1),(0)
 000392 4110 0094            00094  3071     293.              SEG   '|'
 000396 4590 7696            006B6  3073             +
 00039A 5890 76FC            0071C  3074     294.              L     RAR,=V(VWRITE)          NORMAL MESSAGE WRITE
 00039E 9180 8028      00028        3075     295.              IF    PFLERR,'L RAR,=V(TYPEIT)' ERROR?
 0003A2 47E0 738A            003AA  3085             +
 0003A6 5890 76BC            006DC  3091             +
 0003AA 0D99                        3096     296.              BASR  RAR,RAR
 0003AC 47F0 704E            0006E  3097     297.              B     PATEXIT
                                    3098     298.
 0003B0 D500 8050 8070 00050 00070  3099     299.     VERCLC   CLC   VER(*-*),PAOLD          COMPARE OLD DATA AND VERIFY TEXT
                                    3100     300.
 0003B6 4110 0096            00096  3101     301.     PCNONE   SEG   'Memory undefined'
 0003BA 4590 7696            006B6  3103             +
 0003BE 47F0 7048            00068  3104     302.              B     ERROR
                                    3105     303.
 0003C2 4110 00A7            000A7  3106     304.     PCBAD    SEG   'Invalid address'
 0003C6 4590 7696            006B6  3108             +
 0003CA 47F0 7048            00068  3109     305.              B     ERROR
                                    3110     306.
 0003CE 4110 00B7            000B7  3111     307.     PCNWRT   SEG   'Write protected'
 0003D2 4590 7696            006B6  3113             +
 0003D6 47F0 7048            00068  3114     308.              B     ERROR
                                    3115     309.     *
                                    3116     310.     *
                                    3117     311.     * PATCH CORE KEYWORD ROUTINES
 0003DA                             3118     312.     PCOPT    SCKW  VERIFY,VERIFY,A
 0003DA 0D00040CE5C5D9C9            3119             +
 0003E4                             3120     313.              SCKW  NOVERIFY,NOVER,A
 0003E4 0F000426D5D6E5C5            3121             +
 0003F0                             3122     314.              SCKW  SYSTEM,VPSYS,A
 0003F0 0D00042CE2E8E2E3            3123             +
 0003FA 01000432D6D9                3124     315.              SCKW  OR,PCOR
 000400                             3126     316.              SCKW  AND,PCAND
 000400 02000440C1D5C4              3127             +
 000407 FF00005C                    3128     317.              SCKW  ,UNREC
                                    3130     318.
 00040B 00
 00040C 4100 0020            00020  3131     319.     VERIFY   LA    R0,PASIZE
 000410 4110 8050            00050  3132     320.              LA    R1,VER
 000414 5890 76C8/0D99       006E8  3133     321.              IF    ('VCALL EVHEX',NEG),ERROR
 00041A 4740 7048            00068  3146             +
 00041E 4000 802C            0002C  3152     322.              STH   R0,VERLEN
 000422 47F0 7240            00260  3153     323.              B     PCSCAN
                                    3154     324.
 000426 9640 8028      00028        3155     325.     NOVER    SET   PFLNOVER
 00042A 07FE                        3162     326.              SCRTN (15)
                                    3169     327.
 00042C 9620 8028      00028        3170     328.     VPSYS    SET   PFLSYS
 000430 07FE                        3177     329.              SCRTN (15)
                                    3184     330.
 000432 9108 8028      00028        3185     331.     PCOR     IF    PFLAND,UNREC
 000436 4710 703C            0005C  3198             +
1VP       (VP00) (09:48) (22MAR04) ORVYL'S PATCH COMMAND                                                                    Page   23
0Current Usings:  (*,R7) (WA,R8) (CLW,R10)
0Loc    Object Code    Addr1 Addr2  Stmt Lv Lineno    Source Statement           (Hibal 5, Asmedit 3.3)  HLASM R4.0  2004/03/22 09.48
+___    ______ ____    _____ _____  ____ __ ______    ______ _________
000043A 9610 8028      00028        3204     332.              SET   PFLOR
 00043E 07FE                        3210     333.              SCRTN (15)
                                    3217     334.     *
                                    3218     335.     *
 000440 9110 8028      00028        3219     336.     PCAND    IF    PFLOR,UNREC
 000444 4710 703C            0005C  3232             +
 000448 9608 8028      00028        3238     337.              SET   PFLAND
 00044C 07FE                        3244     338.              SCRTN (15)
                                    3251     339.
1VP       (VP00) (09:48) (22MAR04) ORVYL'S PATCH COMMAND                                                                    Page   24
0Current Usings:  (*,R7) (WA,R8) (CLW,R10)
0Loc    Object Code    Addr1 Addr2  Stmt Lv Lineno    Source Statement           (Hibal 5, Asmedit 3.3)  HLASM R4.0  2004/03/22 09.48
+___    ______ ____    _____ _____  ____ __ ______    ______ _________
0                                   3253     341.     *  READ/WRITE CORE ROUTINES
                                    3254     342.     *
                                    3255     343.     *        - R1: EXTERNAL ADDRESS (VERIFIED BY READCORE/RITECORE)
                                    3256     344.     *        - R0: LOCAL ADDRESS (ERROR IF NOT LEGAL)
                                    3257     345.     *        - R15: LENGTH (0 TO TEST VALIDITY)
                                    3258     346.     *        - R14: NON-ZERO GIVES OK TO PATCH NON-USER ORVYL CORE
                                    3259     347.     *               - REAL CORE PATCHES ARE ACCEPTED WITHOUT QUESTION
                                    3260     348.     *        - RETURNS IN R15:
                                    3261     349.     *                  0 - ADDRESS VALID BUT PROTECTED
                                    3262     350.     *                  4 - ADDRESS VALID, UNPROTECTED
                                    3263     351.     *                  8 - ADDRESS VALID BUT PAGE NOT DEFINED
                                    3264     352.     *                 12 - INVALID ADDRESS
 00044E 900B D000/188D       00000  3265     353.     RITECORE VENTER R0,R11,RWCWASIZ
 000454 41D0 D034/0D70       00034  3270             +
 00045A 4130 0006            00006  3288     354.              LA    TR,6                    SET WRITE CODE
 DROP   *,R7
 USING  *,R7
 00045E 47F0 7040            0049A  3289     355.              B     RWCCOM
                                    3290     356.
 000462 900B D000/188D       00000  3291     357.     READCORE VENTER R0,R11,RWCWASIZ
 000468 41D0 D034/0D70       00034  3296             +
 00046E 1B33                        3314     358.              SR    TR,TR                   SET READ CODE
 DROP   *,R7
 USING  *,R7
 000470 47F0 702C            0049A  3315     359.              B     RWCCOM
                                    3316     360.
 000474 900B D000/188D       00000  3317     361.     ORCORE   VENTER R0,R11,RWCWASIZ
 00047A 41D0 D034/0D70       00034  3322             +
 000480 4130 0006            00006  3340     362.              LA    TR,6
 DROP   *,R7
 USING  *,R7
 000484 47F0 7018            00498  3341     363.              B     RWCANDOR
                                    3342     364.
 000488 900B D000/188D       00000  3343     365.     ANDCORE  VENTER R0,R11,RWCWASIZ
 00048E 41D0 D034/0D70       00034  3348             +
 000494 4130 000C            0000C  3366     366.              LA    TR,12
 DROP   *,R7
 USING  *,R7
 000498 1333                        3367     367.     RWCANDOR LCR   TR,TR
                                    3368     368.
 DROP   WA,R8                       3369     369.              USING RWCWA,WAR               ##
 USING  RWCWA,R8
 00049A 0D70                        3381     370.     RWCCOM   BASE  BR                      TEMPORARY ADDRESSIBILITY
 DROP   *,R7
 USING  *,R7
 00049C 5870 7284            00720  3398     371.              L     BR,=A(BASE)             COMMON ADDRESSIBILITY
 DROP   *,R7                        3399     372.              USING BASE,BR                 ##
 USING  BASE,R7
 0004A0 9200 8030      00030        3411     373.              CLEAR RWCFL
 0004A4 1851                        3418     374.              LR    RR,R1                   EXTERNAL ADDRESS
 0004A6 184F                        3419     375.              LR    QR,R15                  SAVE LENGTH
 0004A8 1821                        3420     376.              LR    SR,R1                   STARTING ADDRESS
 0004AA 1A24                        3421     377.              AR    SR,QR                   LAST BYTE+1
 0004AC 1200/47D0 7494       004B4  3422     378.              IF    (R0,POS),'DECR SR'
1VP       (VP00) (09:48) (22MAR04) ORVYL'S PATCH COMMAND                                                                    Page   25
0Current Usings:  (BASE,R7) (RWCWA,R8) (CLW,R10)
0Loc    Object Code    Addr1 Addr2  Stmt Lv Lineno    Source Statement           (Hibal 5, Asmedit 3.3)  HLASM R4.0  2004/03/22 09.48
+___    ______ ____    _____ _____  ____ __ ______    ______ _________
00004B2 0620                        3438             +
 0004B4 9108 A208      00208        3443     379.              IF    ~CLWFOSC,RWCORV         ORVYL IF NOT REAL
 0004B8 47E0 74DA            004FA  3455             +
1VP       (VP00) (09:48) (22MAR04) ORVYL'S PATCH COMMAND                                                                    Page   26
0Current Usings:  (BASE,R7) (RWCWA,R8) (CLW,R10)
0Loc    Object Code    Addr1 Addr2  Stmt Lv Lineno    Source Statement           (Hibal 5, Asmedit 3.3)  HLASM R4.0  2004/03/22 09.48
+___    ______ ____    _____ _____  ____ __ ______    ______ _________
0                                   3462     381.     * REAL CORE READ/WRITE/AND/OR
 0004BC 18E5/18F4/1810              3463     382.              CLPSERV FETCH,(0),(QR),(RR)   LOAD PARAMETER REGISTERS
 0004C2 4100 0008/0AED       00008  3486             +
 0004C8                004C8 004C6  3488     383.              ORG   *-2                     KILL SVC
 0004C6 1A33                        3489     384.              AR    TR,TR                   (BRANCH CODE IS MULTIPLE OF 12)
 0004C8 47F3 74C4            004E4  3490     385.              B     RWCSYFET(TR)
 0004CC 4100 0010/0AED       00010  3491     386.     RWCSYAND CLPSERV AND,(1),(15),(14)
 0004D2 47F0 75AE            005CE  3516     387.              B     RWCEXIT
 0004D6                004D6 004D8  3517     388.              ORG   RWCSYAND+12
 0004D8 4100 000C/0AED       0000C  3518     389.     RWCSYOR  CLPSERV OR,(1),(15),(14)
 0004DE 47F0 75AE            005CE  3543     390.              B     RWCEXIT
 0004E2                004E2 004E4  3544     391.              ORG   RWCSYOR+12
 0004E4 4100 0008/0AED       00008  3545     392.     RWCSYFET CLPSERV FETCH,(1),(15),(14)
 0004EA 47F0 75AE            005CE  3570     393.              B     RWCEXIT
 0004EE                004EE 004F0  3571     394.              ORG   RWCSYFET+12
 0004F0 4100 0004/0AED       00004  3572     395.              CLPSERV STORE,(1),(15),(14)
 0004F6 47F0 75AE            005CE  3596     396.              B     RWCEXIT
1VP       (VP00) (09:48) (22MAR04) ORVYL'S PATCH COMMAND                                                                    Page   27
0Current Usings:  (BASE,R7) (RWCWA,R8) (CLW,R10)
0Loc    Object Code    Addr1 Addr2  Stmt Lv Lineno    Source Statement           (Hibal 5, Asmedit 3.3)  HLASM R4.0  2004/03/22 09.48
+___    ______ ____    _____ _____  ____ __ ______    ______ _________
0                                   3598     398.     * ORVYL CORE READ/WRITE
                                    3599     399.     *
 0004FA                             3600     400.     RWCORV   LABEL ,
 0004FA 9140 A20C      0020C        3602     401.              IF    CLWSSP,BEGIN
 0004FE 47E0 74F0            00510  3612             +
 000502 4100 0034/0AED       00034  3617  1  402.                CLPSERV CHKADDR,(R1),(R15)
 000508 4770 75F4            00614  3634  1  403.                BNZ   RWCBAD                  NOT VALID
 00050C 4200 8030            00030  3635  1  404.                STC   R0,RWCFL                SAVE PROTECTION FLAGS
 000510                             3636     405.              END
 000510 74F4           00510 00500  3640     406.              ELSE  BEGIN
 000510 47F0 752A            0054A  3645             +
 000514 5450 7704            00724  3651  1  407.                N     RR,=X'00FFFFFF'         Make it a 24 bit address
 000518 5420 7704            00724  3652  1  408.                N     SR,=X'00FFFFFF'         Make it a 24 bit address
 00051C 1B00/0AFA                   3653  1  409.                SENSE 0,(R1)                  SENSE PAGE STATUS
 000520 4770 75E4            00604  3670  1  410.                BNZ   RWCNONE                 PAGE NOT DEFINED OR RESERVED
 000524 4200 8030            00030  3671  1  411.                STC   R0,RWCFL                SAVE STATUS BITS
 000528 8820 000C            0000C  3672  1  412.                SRL   SR,12                   IS LAST BYTE ON NEXT PAGE?
 00052C 8920 000C            0000C  3673  1  413.                SLL   SR,12
 000530 1925/47C0 752A       0054A  3674  1  414.                IF    (SR,LE,RR),RWCGO
                                    3692  1  415.     *
 000536 1B00/1812/0AFA              3693  1  416.                SENSE 0,(SR)                  SENSE SECOND PAGE STATU
 00053C 4770 75E4            00604  3711  1  417.                BNZ   RWCNONE
 000540 4200 8031            00031  3712  1  418.                STC   R0,RWCFL1                SAVE STATUS BITS
 000544 D600 8030 8031 00030 00031  3713  1  419.                OC    RWCFL(1),RWCFL1         CONBINE STATUS BITS
 00054A                             3714     420.              END   ,
 00054A 5820 8000            00000  3718     421.     RWCGO    L     SR,RWCR0                 RELOAD LOCAL AREA ADDRESS
 00054E 5950 A01C            0001C  3719     422.              IF    (RR,LT,CLWUPST),'SET  RWCFLSUP'   NOT USER AREA
 000552 47B0 753A            0055A  3731             +
 000556 9680 8030      00030        3742             +
 00055A 5950 7708            00728  3747     423.              C     RR,=X'00F00000'
 00055E 4750 7546            00566  3748     424.              IF    GE,'SET  RWCFLSUP'   NOT USER AREA
 000562 9680 8030      00030        3765             +
 000566 1244/47D0 7596       005B6  3770     425.              IF    (QR,NP),RWCDONE         TEST LENGTH
 00056C 0640                        3787     426.              DECR  QR
 00056E 9102 8030      00030        3789     427.              IF    (~RWCFLPRO,OR,(TR,ZERO)),BEGIN   NOT PROTECTED PATCH
 000572 47E0 755C/1233       0057C  3803             +
 000578 4770 756C            0058C  3812             +
 00057C 5890 770C/0D99       0072C  3817  1  428.                ACALL AMODE31
 000582 4443 75D8            005F8  3821  1  429.                EX    QR,RWCMV(TR)            MOVE TO/FROM AREA
 000586 5890 7710/0D99       00730  3823  1  430.                ACALL AMODE24
 00058C                             3827     431.              END   ,
 00058C 7570           0058C 0057A  3831     432.              ELSE  BEGIN
 00058C 47F0 7596            005B6  3836             +
 000590 41F0 4001            00001  3842  1  433.                LA    R15,@QR+1
 000594 1815/4100 0044       00044  3843  1  434.                CLPSERV PGPRTOFF,(RR),(R15)   TURN OFF PAGE PROTECTION
 00059A 0AED                        3860  1          +
 00059C 5890 770C/0D99       0072C  3861  1  435.                ACALL AMODE31
 0005A2 4443 75D8            005F8  3865  1  436.                EX    QR,RWCMV(TR)
 0005A6 5890 7710/0D99       00730  3867  1  437.                ACALL AMODE24
 0005AC 41F0 4001            00001  3871  1  438.                LA    R15,@QR+1
 0005B0 4100 0040/0AED       00040  3872  1  439.                CLPSERV PGPRTON,(R1),(R15)    TURN ON PAGE PROTECTION
 0005B6                             3889     440.              END   ,
 0005B6 1233/4770 75A4       005C4  3893     441.     RWCDONE  IF    ((TR,Z),AND,RWCFLPRO+RWCFLSUP),RWCRZ
 0005BC 9182 8030      00030        3919             +
1VP       (VP00) (09:48) (22MAR04) ORVYL'S PATCH COMMAND                                                                    Page   28
0Current Usings:  (BASE,R7) (RWCWA,R8) (CLW,R10)
0Loc    Object Code    Addr1 Addr2  Stmt Lv Lineno    Source Statement           (Hibal 5, Asmedit 3.3)  HLASM R4.0  2004/03/22 09.48
+___    ______ ____    _____ _____  ____ __ ______    ______ _________
00005C0 4770 75AC            005CC  3922             +
 0005C4 41F0 0004            00004  3928     442.     RWCR4    LA    R15,4                   CORE NOT PROTECTED
 0005C8 47F0 75AE            005CE  3929     443.              B     RWCEXIT
 0005CC 1BFF                        3930     444.     RWCRZ    SR    R15,R15                 RETURN PROTECT CODE
 0005CE 18D8/980B D000       00000  3931     445.     RWCEXIT  VEXIT R0,R11,LTR
 0005D4 12FF/07F9                   3935             +
-                                   3938     447.
                                    3939     448.
                                    3940     449.       AMODE31 -- Routine to switch to 31-bit addressing mode.
                                    3941     450.

00005D8 41F0 75C2            005E2  3942     451.     AMODE31  LA    R15,A31GO
 0005DC 56F0 7714            00734  3943     452.              O     R15,=A(X'80000000')  31 bit mode wanted
 0005E0 0B0F                        3944     453.              BSM   0,R15
                                    3945     454.
 0005E2 07F9                        3946     455.     A31GO    BR    RAR                 Return
                                    3947     456.
                                    3948     457.
                                    3949     458.       AMODE24 -- Routine to switch back to 24-bit addressing mode.
                                    3950     459.

00005E4 41F0 75CA            005EA  3951     460.     AMODE24  LA    R15,A24GO
 0005E8 0B0F                        3952     461.              BSM   0,R15               Return to 24 bit mode
                                    3953     462.
 0005EA 07F9                        3954     463.     A24GO    BR    RAR                 Return
                                    3955     464.
 0005EC D400 5000 2000 00000 00000  3956     465.              NC    @RR(*-*),@SR            AND
 0005F2 D600 5000 2000 00000 00000  3957     466.              OC    @RR(*-*),@SR            OR
 0005F8 D200 2000 5000 00000 00000  3958     467.     RWCMV    MVC   @SR(*-*),@RR             READ
 0005FE D200 5000 2000 00000 00000  3959     468.              MVC   @RR(*-*),@SR             WRITE
                                    3960     469.
 000604                             3961     470.     RWCNONE  LABEL ,
 000604 59F0 7718            00738  3963     471.              IF    (R15,NE,4),RWCBAD       RESERVED BUT NOT DEFINED?
 000608 4770 75F4            00614  3977             +
 00060C 41F0 0008            00008  3983     472.              LA    R15,8
 000610 47F0 75AE            005CE  3984     473.              B     RWCEXIT
                                    3985     474.
 000614 41F0 000C            0000C  3986     475.     RWCBAD   LA    R15,12
 000618 47F0 75AE            005CE  3987     476.              B     RWCEXIT
                                    3988     477.     *
                                    3989     478.     *RWCSCP   LR    R14,R0                  SCP OFFSET
                                    3990     479.     *RWCSCP   L     SR,=X'0000FFFF'
                                    3991     480.     *         NR    14,SR                   GET SCP OFFSET
                                    3992     481.     *         L     SR,CLWPS                LINE NUMBER
                                    3993     482.     *         SLL   SR,16                   HIGH ORDER
                                    3994     483.     *         OR    14,SR
                                    3995     484.     *         LTR   TR,TR                   IN OR OUT?
                                    3996     485.     *         BZ    RWSCPOUT
                                    3997     486.     *         CLPSERV FETSCP,(1),(15),(14)
                                    3998     487.     *         B     RWCEXIT
1VP       (VP00) (09:48) (22MAR04) ORVYL'S PATCH COMMAND                                                                    Page   29
0Current Usings:  (BASE,R7) (RWCWA,R8) (CLW,R10)
0Loc    Object Code    Addr1 Addr2  Stmt Lv Lineno    Source Statement           (Hibal 5, Asmedit 3.3)  HLASM R4.0  2004/03/22 09.48
+___    ______ ____    _____ _____  ____ __ ______    ______ _________
0                                   3999     488.     **
                                    4000     489.     *RWSCPOUT CLPSERV STSCP,(1),(15),(14)
                                    4001     490.     *         B     RWCEXIT
1VP       (VP00) (09:48) (22MAR04) ORVYL'S PATCH COMMAND                                                                    Page   30
0Current Usings:  (BASE,R7) (RWCWA,R8) (CLW,R10)
0Loc    Object Code    Addr1 Addr2  Stmt Lv Lineno    Source Statement           (Hibal 5, Asmedit 3.3)  HLASM R4.0  2004/03/22 09.48
+___    ______ ____    _____ _____  ____ __ ______    ______ _________
0                                   4003     492.     *  VERIFY A PATCH TO THE SYSTEM
                                    4004     493.     *
 00061C 902B D000/188D       00000  4005     494.     VERPATCH VENTER SR,R11,*
 000622 41D0 D028/0D70       00028  4010             +
 000628 5870 70F8            00720  4028     495.              L     BR,=A(BASE)             COMMON ADDRESSIBILITY
 DROP   BASE,R7
 USING  *,R7
 DROP   *,R7                        4029     496.              USING BASE,BR                 ##
 USING  BASE,R7
 00062C 4150 0004            00004  4041     497.              LA    RR,4                    SET 'NO' RETURN
 000630 5890 76E4/0D99       00704  4042     498.              VCALL PRIVTEST                PRIVILIGED?
 000636 4770 764A            0066A  4046     499.              BNZ   VPEXIT                  BR IF NOT
 00063A 4110 00C7            000C7  4047     500.              SEG   'Do you mean to patch the system'
 00063E 4590 7696            006B6  4049             +
 000642 5890 771C/0D99       0073C  4050     501.              VREAD                         THE $64 QUESTION
 000648 4770 7656            00676  4055     502.              BNZ   VPABORT                 BR IF ATTN
 00064C 41F0 A2C4            002C4  4056     503.              SCINIT (1),(0),CLWKWCB
 000650 58E0 7720/0DEE       00740  4076             +
 000656 4110 7668            00688  4078     504.              SCAN  VPTBL,CLWKWCB           SCAN FOR ANSWER
 00065A 41F0 A2C4            002C4  4092             +
 00065E 58E0 76B8/0DEE       006D8  4095             +
 000664 47F0 7656            00676  4097     505.              B     VPABORT                 BR IF BAD STRING
                                    4098     506.
 000668 1B55                        4099     507.     VPOK     SR    RR,RR                   SET 'YES' CODE
 00066A 18F5                        4100     508.     VPEXIT   LR    R15,RR                  RETURN CODE
 00066C 18D8/982B D000       00000  4101     509.              VEXIT SR,R11,LTR
 000672 12FF/07F9                   4105             +
                                    4107     510.
 000676 4110 00E7            000E7  4108     511.     VPABORT  SEG   'Request aborted'
 00067A 4590 7696            006B6  4110             +
 00067E 5890 76FC/0D99       0071C  4111     512.              VWRITE
 000684 47F0 764A            0066A  4116     513.              B     VPEXIT
                                    4117     514.
 000688                             4118     515.     VPTBL    SCKW  YES,VPOK
 000688 02000668E8C5E2              4119             +
 00068F 01000668D6D2                4120     516.              SCKW  OK,VPOK
 000695 00000668E8                  4122     517.              SCKW  Y,VPOK
 00069A FF000676                    4124     518.              SCKW  ,VPABORT
1VP       (VP00) (09:48) (22MAR04) ORVYL'S PATCH COMMAND                                                                    Page   31
0Current Usings:  (BASE,R7) (RWCWA,R8) (CLW,R10)
0Loc    Object Code    Addr1 Addr2  Stmt Lv Lineno    Source Statement           (Hibal 5, Asmedit 3.3)  HLASM R4.0  2004/03/22 09.48
+___    ______ ____    _____ _____  ____ __ ______    ______ _________
0                                   4127     520.     *  SPECIAL SEG ROUTINE
                                    4128     521.     *
 00069E                             4129     522.     SEG      LABEL ,
 00069E 5090 D000            00000  4131     523.              VPUSH RAR,,*
 0006A2 41D0 D004            00004  4133             +
 0006A6 5890 7724/0D99       00744  4134     524.              VSEG  (1),(0)
 0006AC 4BD0 7728            00748  4151     525.              VPOP  RAR,,*
 0006B0 5890 D000            00000  4153             +
 0006B4 07F9                        4154     526.              BR    RAR
-
-0006B6 5090 D000            00000  4156     528.              GENMSGS
 0006BA 41D0 D004/1F00       00004  4160             +
 0006C0 4301 7730            00750  4165             +
 0006C4 4111 7731            00751  4166             +
 0006C8 5890 7724/0D99       00744  4182             +
 0006CE 4BD0 7728            00748  4185             +
 0006D2 5890 D000/07F9       00000  4186             +
 0006D8 00000000                    4190                             =V(SCAN)
 0006DC 00000000                    4191                             =V(TYPEIT)
 0006E0 00000000                    4192                             =V(EVAL)
 0006E4 00000008                    4193                             =A(8)
 0006E8 00000000                    4194                             =V(EVHEX)
 0006EC 00000010                    4195                             =A(16)
 0006F0 00000006                    4196                             =A(6)
 0006F4 0FFFFFFF                    4197                             =XL4'0FFFFFFF'
 0006F8 00FFFFFF                    4198                             =XL4'00FFFFFF'
 0006FC 00000FFF                    4199                             =A(4095)
 000700 00000000                    4200                             =V(READCORE)
 000704 00000000                    4201                             =V(PRIVTEST)
 000708 0000044E                    4202                             =A(RITECORE)
 00070C 00000474                    4203                             =A(ORCORE)
 000710 00000488                    4204                             =A(ANDCORE)
 000714 00000000                    4205                             =V(BTX)
 000718 00000000                    4206                             =V(BCDTBL)
 00071C 00000000                    4207                             =V(VWRITE)
 000720 00000020                    4208                             =A(BASE)
 000724 00FFFFFF                    4209                             =X'00FFFFFF'
 000728 00F00000                    4210                             =X'00F00000'
 00072C 000005D8                    4211                             =A(AMODE31)
 000730 000005E4                    4212                             =A(AMODE24)
 000734 80000000                    4213                             =A(X'80000000')
 000738 00000004                    4214                             =A(4)
 00073C 00000000                    4215                             =V(VREAD)
 000740 00000000                    4216                             =V(SCINIT)
 000744 00000000                    4217                             =V(VSEG)
 000748 0004           00750 00848  4218                             =Y(4)
-000848                00848 00848  4260     530.              END   .

1VP       (VP00) (09:48) (22MAR04) Ordinary Symbol and Literal Cross Reference                                              Page   32
-Symbol   Length   Value     Id    R Type   Defn References                                  HLASM R4.0  2004/03/22 09.48
0$$$@R10       1 00000000 FFFFFFF4     J     836 1130
 $$$@R2        1 00000000 FFFFFFFC     J     732 1026
 $$$@R3        1 00000000 FFFFFFFB     J     745 1039
 $$$@R4        1 00000000 FFFFFFFA     J     758 1052
 $$$@R5        1 00000000 FFFFFFF9     J     771 1065
 $$$@R6        1 00000000 FFFFFFF8     J     784 1078
 $$$@R7        1 00000000 FFFFFFF7     J     797 1091
 $$$@R8        1 00000000 FFFFFFF6     J     810 1104
 $$$@R9        1 00000000 FFFFFFF5     J     823 1117
 $$$C1VP       1 00000750 00000001     J    4219 4221
 $$$C2VP       1 00000848 00000001     J    4263 4265
 $$$D0VP       1 0000074A 00000001     J     995 3039
 $$$RCLW       1 00000000 FFFFFFED     J    1512 1819  1819
 $$$RRWCWA
               1 00000000 FFFFFFEB     J    1887 1930  1930
 $$$RSCP       1 00000000 FFFFFFEE     J    1168 1497  1497
 $$$RWA        1 00000000 FFFFFFEC     J    1828 1879  1879
 $$$2B         1 00000020 00000001     X    1967 1974U
 $$$23F        2 00000234 00000001     H    2621 2600B 2612B
 $$$28F        2 00000284 00000001     H    2733 2723B
 $$$29F        2 000002AE 00000001     H    2765 2755B
 $$$30B        4 000002C4 00000001     I    2794 2816
 $$$30F        2 000002D4 00000001     H    2811 2781B 2794B 2813
 $$$31B        4 000002BA 00000001     I    2781 2814
 $$$33E        2 000002D8 00000001     H    2823 2815  2817
 $$$33F        2 00000320 00000001     H    2939 2819B
 $$$34F        2 000002F4 00000001     H    2850 2840B
 $$$35F        2 00000300 00000001     H    2871 2861B
 $$$36F        2 0000030E 00000001     H    2898 2881B
 $$$41         6 0000074A 00000001     I    3045 3037X
 $$$42         6 0000074A 00000001     I    3044 3045  3045
 $$$43F        2 000003AA 00000001     H    3095 3085B
 $$$47B        1 0000045A 00000001     X    3276 3286U
 $$$48B        1 0000046E 00000001     X    3302 3312U
 $$$49B        1 00000480 00000001     X    3328 3338U
 $$$50B        1 00000494 00000001     X    3354 3364U
 $$$51B        1 0000049C 00000001     X    3386 3396U
 $$$52F        2 000004B4 00000001     H    3442 3431B
 $$$54B        4 000004FE 00000001     I    3612 3642
 $$$54F        2 00000510 00000001     H    3639 3612B 3641
 $$$55E        2 00000514 00000001     H    3649 3643
 $$$55F        2 0000054A 00000001     H    3717 3645B
 $$$57F        2 0000055A 00000001     H    3746 3731B
 $$$58F        2 00000566 00000001     H    3769 3754B
 $$$6F         2 00000126 00000001     H    2230 2218B
 $$$6T         2 0000011A 00000001     H    2221 2206B
 $$$60B        4 00000578 00000001     I    3812 3833
 $$$60F        2 0000058C 00000001     H    3830 3812B 3832
 $$$60T        2 0000057C 00000001     H    3815 3803B
 $$$63E        2 00000590 00000001     H    3840 3834
 $$$63F        2 000005B6 00000001     H    3892 3836B
 $$$65F        2 000005C4 00000001     H    3925 3905B
 $$$68B        1 00000628 00000001     X    4016 4026U
 #VPA1M        1 00000750 00000001     R    4225 2056
 #VPA1T       16 00000751 00000001     C    4226 4225
1VP       (VP00) (09:48) (22MAR04) Ordinary Symbol and Literal Cross Reference                                              Page   33
 #VPA2M        1 00000761 00000001     R    4227 2063
 #VPA2T       39 00000762 00000001     C    4228 4227
 #VPA3M        1 00000789 00000001     R    4229 2083
 #VPA3T        9 0000078A 00000001     C    4230 4229
 #VPA4M        1 00000793 00000001     R    4231 2224
 #VPA4T       20 00000794 00000001     C    4232 4231
 #VPA5M        1 000007A8 00000001     R    4233 2431
 #VPA5T       11 000007A9 00000001     C    4234 4233
 #VPA6M        1 000007B4 00000001     R    4235 2547
 #VPA6T       11 000007B5 00000001     C    4236 4235
 #VPA7M        1 000007C0 00000001     R    4237 2800
 #VPA7T       15 000007C1 00000001     C    4238 4237
 #VPA8M        1 000007D0 00000001     R    4239 2942
 #VPA8T       13 000007D1 00000001     C    4240 4239
 #VPA9M        1 000007DE 00000001     R    4241 3009
 #VPA9T        1 000007DF 00000001     C    4242 4241
 #VPB0M        1 000007E0 00000001     R    4243 3053
 #VPB0T        3 000007E1 00000001     C    4244 4243
 #VPB1M        1 000007E4 00000001     R    4245 3072
 #VPB1T        1 000007E5 00000001     C    4246 4245
 #VPB2M        1 000007E6 00000001     R    4247 3102
 #VPB2T       16 000007E7 00000001     C    4248 4247
 #VPB3M        1 000007F7 00000001     R    4249 3107
 #VPB3T       15 000007F8 00000001     C    4250 4249
 #VPB4M        1 00000807 00000001     R    4251 3112
 #VPB4T       15 00000808 00000001     C    4252 4251
 #VPB5M        1 00000817 00000001     R    4253 4048
 #VPB5T       31 00000818 00000001     C    4254 4253
 #VPB6M        1 00000837 00000001     R    4255 4109
 #VPB6T       15 00000838 00000001     C    4256 4255
 @QR           0 00000000 FFFFFFFA     @    1053 3842  3871
 @RR           0 00000000 FFFFFFF9     @    1066 3956M 3957M 3958  3959M
 @R0           0 00000000 FFFFFFFE     @     707  983U
 @R1           0 00000000 FFFFFFFD     @     720  979U
 @R10          0 00000000 FFFFFFF4     @     837  943U
 @R11          0 00000000 FFFFFFF3     @     850  939U
 @R12          0 00000000 FFFFFFF2     @     863  935U
 @R13          0 00000000 FFFFFFF1     @     876  931U
 @R14          0 00000000 FFFFFFF0     @     889  927U
 @R15          0 00000000 FFFFFFEF     @     902  923U
 @R2           0 00000000 FFFFFFFC     @     733  975U
 @R3           0 00000000 FFFFFFFB     @     746  971U 2171U 2290U 2344U
 @R4           0 00000000 FFFFFFFA     @     759  967U
 @R5           0 00000000 FFFFFFF9     @     772  963U
 @R6           0 00000000 FFFFFFF8     @     785  959U
 @R7           0 00000000 FFFFFFF7     @     798  955U 3283U 3309U 3335U 3361U 3393U 3406U 4023U 4036U
 @R8           0 00000000 FFFFFFF6     @     811  951U 3376U
 @R9           0 00000000 FFFFFFF5     @     824  947U
 @SR           0 00000000 FFFFFFFC     @    1027 3956  3957  3958M 3959
 @TR           0 00000000 FFFFFFFB     @    1040 2233  2313M 2427M 2955  3011  3044
 AMODE24       4 000005E4 00000001     I    3951 4212
 AMODE31       4 000005D8 00000001     I    3942 4211
 ANDCORE       4 00000488 00000001     I    3346 3344  4204
 A24GO         2 000005EA 00000001     I    3954 3951
 A31GO         2 000005E2 00000001     I    3946 3942
 BASE          1 00000020 00000001     U    1976 3409U 4039U 4208
 BCDTBL        1 00000000 00000009     T    4206 4206
 BR            7 00000007 00000001 A   #    1085 2555B 3398M 3409U 4028M 4039U
 BTX           1 00000000 00000008     T    4205 4205
1VP       (VP00) (09:48) (22MAR04) Ordinary Symbol and Literal Cross Reference                                              Page   34
 CLW        1560 00000000 FFFFFFED     J    1819 1943U
 CLWACCT       6 000003B0 FFFFFFED     C    1805 1806  1807
 CLWFL         1 00000207 FFFFFFED     R    1536 1540  1545  1550
 CLWFLG        1 00000208 FFFFFFED     R    1556 1560  1565  1570  1575  1580  1585  1590
 CLWFOSC       8 00000208 FFFFFFED         1580 2098M 2565M 2611  2892  3452
 CLWKWCB       4 000002C4 FFFFFFED     F    1781 1792  2016  2703  4073  4092
 CLWMFL        1 0000020A FFFFFFED     R    1641 1645  1650  1655  1660  1665  1670  1675  1680
 CLWMONF       1 0000020B FFFFFFED     R    1686 1690  1695  1700  1705
 CLWNTRAP      1 00000008 FFFFFFED A   N    1763 1764
 CLWOBUF       2 00000118 FFFFFFED     H    1530 1532
 CLWPFL        1 00000209 FFFFFFED     R    1596 1600  1605  1610  1615  1620  1625  1630  1635
 CLWPFPRV      4 00000209 FFFFFFED         1625 1993
 CLWR         10 0000000A 00000001 A   #    1124 1943U
 CLWSBGPR      4 00000370 FFFFFFED     F    1804 2318
 CLWSBPSW      8 00000368 FFFFFFED     D    1803 2145  2262
 CLWSCP        4 00000000 FFFFFFED     A    1519 2148  2267  2321
 CLWSFL        1 0000020C FFFFFFED     R    1711 1715  1720
 CLWSSP       64 0000020C FFFFFFED         1720 2599  3611
 CLWTEMP       8 000002E8 FFFFFFED     D    1794 2490M 2502  2517M 2517  2518  2544  2969  3001  3024
 CLWUPST       4 0000001C FFFFFFED     A    1522 3730
 ERROR         4 00000068 00000001     I    2088 2058B 2065B 2189B 2226B 2247B 2307B 2362B 2420B 2433B 2452B 2533B 2549B
                                                 2581B 2658B 3104B 3109B 3114B 3146B
 EVAL          1 00000000 00000004     T    4192 4192
 EVHEX         1 00000000 00000005     T    4194 4194
 HIBAL         1 00000000 FFFFFFFF     J     692  708   721   734   747   760   773   786   799   812   825   838   851
                                                  864   877   890   903
 ILLFPR        4 00000200 00000001     I    2547 2458B 2470B 2484B 2505B
 ILLGPR        4 000001A4 00000001     I    2431 2368B 2380B 2400B
 NOVER         2 00000426 00000001     H    3157 3121
 ORCORE        4 00000474 00000001     I    3320 3318  4203
 PA            1 00000030 FFFFFFEC     X    1869 2644  2827
 PALEN         2 0000002A FFFFFFEC     H    1865 2681M 2710  2828  2915  2945  3031  3056
 PAOLD         1 00000070 FFFFFFEC     X    1871 2709  2944  3044M 3055  3099
 PASIZE        1 00000020 FFFFFFEC A   U    1867 1869  1870  1871  2643  3131
 PATCH         4 00000014 00000001     I    1959 1957
 PATCORE       2 00000212 00000001     H    2567 2116  2132
 PATEXIT       2 0000006E 00000001     H    2091 2033B 2253B 2314B 2428B 2542B 2675B 2767B 2918B 2930B 3097B
 PATFPR        2 000001B0 00000001     H    2438 2112  2130
 PATGC         2 00000170 00000001     H    2348 2319B
 PATGPR        4 00000160 00000001     I    2318 2110  2128
 PATIA         2 0000013E 00000001     H    2261 2114
 PATIACOM      2 0000014E 00000001     H    2293 2263B
 PATOSC        2 0000020E 00000001     H    2561 2118
 PATPC         2 00000102 00000001     H    2175 2146B
 PATPSW        4 000000F2 00000001     I    2145 2108  2126
 PATSGPR       4 00000168 00000001     I    2321 2122  2136
 PATSIA        2 00000146 00000001     H    2266 2124  2138
 PATSPSW       4 000000FA 00000001     I    2148 2120  2134
 PATTBL        1 0000007A 00000001     R    2108 2009
 PCAND         2 00000440 00000001     H    3221 3127
 PCBAD         4 000003C2 00000001     I    3107 2742B
 PCNONE        4 000003B6 00000001     I    3102 2741B
 PCNWRT        4 000003CE 00000001     I    3112 2636B 2895B
 PCOPT         1 000003DA 00000001     R    3119 2696
 PCOR          2 00000432 00000001     H    3187 3125
 PCPDONE       4 00000366 00000001     I    3024 2986B
 PCPLOP        2 00000332 00000001     H    2949 3013B
 PCPROT        4 0000029E 00000001     I    2744 2739B
 PCSCAN        4 00000260 00000001     I    2696 3153B
1VP       (VP00) (09:48) (22MAR04) Ordinary Symbol and Literal Cross Reference                                              Page   35
 PCUSER        4 000002B4 00000001     I    2769 2740B
 PFL           1 00000028 FFFFFFEC     R    1838 1842  1847  1852  1857  1862  1983M
 PFLAND        8 00000028 FFFFFFEC         1862 2860  3195  3243M
 PFLD          4 000001FC 00000001     I    2544 2541X
 PFLERR      128 00000028 FFFFFFEC         1842 2807M 3084
 PFLNOVER     64 00000028 FFFFFFEC         1847 2927  3161M
 PFLOR        16 00000028 FFFFFFEC         1857 2839  3209M 3229
 PFLSYS       32 00000028 FFFFFFEC         1852 2754  3176M
 PRIVPROG      2 00000050 00000001     H    2061 1996B
 PRIVTEST      1 00000000 00000007     T    4201 4201
 QR            4 00000004 00000001 A   #    1046 3419M 3421  3473  3778M 3778  3788M 3822  3866
 RAR           9 00000009 00000001 A   #    1111 2054M 2057M 2064M 2081M 2084M 2088M 2089M 2089B 2185M 2186M 2186B 2225M
                                                 2243M 2244M 2244B 2303M 2304M 2304B 2358M 2359M 2359B 2416M 2417M 2417B
                                                 2432M 2448M 2449M 2449B 2529M 2530M 2530B 2548M 2577M 2578M 2578B 2654M
                                                 2655M 2655B 2736M 2737M 2737B 2744M 2761M 2766M 2766B 2801M 2829M 2846M
                                                 2867M 2872M 2872B 2943M 3007M 3010M 3030M 3054M 3070M 3073M 3074M 3091M
                                                 3096M 3096B 3103M 3108M 3113M 3142M 3143M 3143B 3819M 3820M 3820B 3825M
                                                 3826M 3826B 3863M 3864M 3864B 3869M 3870M 3870B 3946B 3954B 4044M 4045M
                                                 4045B 4049M 4053M 4054M 4054B 4110M 4114M 4115M 4115B 4132  4149M 4150M
                                                 4150B 4153M 4154B 4159  4182M 4183M 4183B 4186M 4187B
 READCORE      4 00000462 00000001     I    3294 3292
 READCORE      1 00000000 00000006     T    4200 4200
 RITECORE      4 0000044E 00000001     I    3268 3266  4202
 RR            5 00000005 00000001 A   #    1059 3418M 3468  3651M 3683  3730  3747  3852  4041M 4099M 4099  4100
 RWCANDOR      2 00000498 00000001     I    3367 3341B
 RWCBAD        4 00000614 00000001     I    3986 3634B 3977B
 RWCCOM        2 0000049A 00000001     I    3383 3289B 3315B
 RWCDONE       2 000005B6 00000001     H    3895 3781B
 RWCEXIT       2 000005CE 00000001     I    3933 3516B 3543B 3570B 3596B 3929B 3984B 3987B
 RWCFL         1 00000030 FFFFFFEB     R    1899 1907  1916  3417M 3635M 3671M 3713M
 RWCFLPRO      2 00000030 FFFFFFEB         1916 3800  3918  3918  3919
 RWCFLSUP    128 00000030 FFFFFFEB         1907 3742M 3765M 3918  3918
 RWCFL1        1 00000031 FFFFFFEB     X    1920 3712M 3713
 RWCGO         4 0000054A 00000001     I    3718 3686B
 RWCMV         6 000005F8 00000001     I    3958 3822X 3866X
 RWCNONE       2 00000604 00000001     H    3962 3670B 3711B
 RWCORV        2 000004FA 00000001     H    3601 3455B
 RWCRZ         2 000005CC 00000001     I    3930 3922B
 RWCR0         4 00000000 FFFFFFEB     A    1893 3718
 RWCSYAND      2 000004CC 00000001     H    3492 3517
 RWCSYFET      2 000004E4 00000001     H    3546 3490B 3571
 RWCSYOR       2 000004D8 00000001     H    3519 3544
 RWCWA        52 00000000 FFFFFFEB     J    1930 1923  3379U
 RWCWASIZ      1 00000034 FFFFFFEB A   U    1923 3270  3296  3322  3348
 R0            0 00000000 FFFFFFFF A   #     700 2030M 2030  2195  2217  2231M 2232M 2313  2377M 2377  2397  2406  2427
                                                 2459  2481  2490  2519M 2587M 2617M 2633  2642  2643M 2672M 2672  2681
                                                 2709M 2827M 2983  3029M 3056M 3131M 3152  3268  3294  3320  3346  3430M
                                                 3430  3635  3671  3712  3934M 4165M
 R1            1 00000001 FFFFFFFF A   #     713 2233M 2518M 2644M 2708M 2769M 2780M 2780  2791M 2793  2826M 3001M 3024M
                                                 3031M 3035M 3037  3055M 3132M 3418  3420  4166M
 R11          11 0000000B FFFFFFFF A   #     843 1835  1835  1835  1896  1896  1896  1959  2102M 3268  3294  3320  3346
                                                 3934M 4008  4010  4010  4010  4104M
 R14          14 0000000E FFFFFFFF A   #     882 2825M
 R15          15 0000000F FFFFFFFF A   #     895 2710M 2722  2729M 2828M 3419  3842M 3871M 3928M 3930M 3930  3942M 3943M
                                                 3944B 3951M 3952B 3974  3983M 3986M 4100M
 SCAN          1 00000000 00000002     T    4190 4190
 SCBCFL        1 00000261 FFFFFFEE     R    1327 1331  1336  1341  1346  1351
 SCBFL         1 00000262 FFFFFFEE     R    1357 1361  1366  1371  1376  1381
 SCBTFL        1 00000263 FFFFFFEE     R    1387 1391  1396  1401  1406  1411
1VP       (VP00) (09:48) (22MAR04) Ordinary Symbol and Literal Cross Reference                                              Page   36
 SCBWFL        1 00000260 FFFFFFEE     R    1317 1321
 SCBXA        64 00000265 FFFFFFEE         1433 1467  1467  1469  1469  1471  1471
 SCBXFL        1 00000265 FFFFFFEE     R    1424 1428  1433  1438  1443  1448  1453  1473
 SCBXP        16 00000265 FFFFFFEE         1443 1470  1470  1471  1471  1472  1472
 SCBXT       128 00000265 FFFFFFEE         1428 1467  1467  1468  1468  1470  1470
 SCBXW        32 00000265 FFFFFFEE         1438 1468  1468  1469  1469  1472  1472
 SCINIT        1 00000000 0000000C     T    4216 4216
 SCP         660 00000000 FFFFFFEE     J    1497 2158U 2277U 2331U
 SCPACCT       6 000001AA FFFFFFEE     C    1206 1207  1208
 SCPCWASZ      1 00000010 FFFFFFEE A   N    1295 1296
 SCPFL         1 00000200 FFFFFFEE     R    1241 1245  1250  1255  1260  1265  1270  1275  1280
 SCPPAN        2 000001A8 FFFFFFEE     H    1197 1198
 SCPXGPRS      4 00000078 FFFFFFEE     F    1181 2337
 SCPXPSW       8 00000070 FFFFFFEE     D    1180 2164  2283
 SEG           2 0000069E 00000001     H    4130 2054B 2081B 3007B 3030B 3070B
 SR            2 00000002 00000001 A   #    1020 1835  1835  1835  1896  1896  1896  1959  2102M 2195M 2232  2233  2406M
                                                 2426M 2427  2459M 2539M 2541  2642M 2708  2826  2945M 2946M 2946  2983
                                                 3012M 3029  3420M 3421M 3438M 3652M 3672M 3673M 3683  3702  3718M 4008
                                                 4010  4010  4010  4104M
 TR            3 00000003 00000001 A   #    1033 2145M 2148M 2158U 2164M 2262M 2267M 2277U 2283M 2318M 2321M 2331U 2337M
                                                 2944M 3011M 3032M 3288M 3314M 3314  3340M 3366M 3367M 3367  3489M 3489
                                                 3490B 3811M 3811  3822  3866  3904M 3904
 TYPEIT        1 00000000 00000003     T    4191 4191
 UNREC         2 0000005C 00000001     H    2075 2141  3129  3198B 3232B
 VER           1 00000050 FFFFFFEC     X    1870 3099  3132
 VERCLC        6 000003B0 00000001     I    3099 2793X
 VERIFY        4 0000040C 00000001     I    3131 3119
 VERLEN        2 0000002C FFFFFFEC     H    1866 2688M 2688  2722  2729  2769  2915  3152M
 VERPATCH      4 0000061C 00000001     I    4008 2744  4006
 VP            1 00000000 00000001     J     994  996  1028  1041  1054  1067  1080  1093  1106  1119  1132  1498  1820
                                                 1880  1931  1935  3050
 VP#SEG        2 000006B6 00000001     H    4157 2057B 2064B 2084B 2225B 2432B 2548B 2801B 2943B 3010B 3054B 3073B 3103B
                                                 3108B 3113B 4049B 4110B
 VPABORT       4 00000676 00000001     I    4109 4055B 4097B 4125
 VPEXIT        2 0000066A 00000001     I    4100 4046B 4116B
 VPMORG        1 00000750 00000001     U    4222 2056  2063  2083  2224  2431  2547  2800  2942  3009  3053  3072  3102
                                                 3107  3112  4048  4109  4165  4166
 VPOK          2 00000668 00000001     I    4099 4119  4121  4123
 VPSYS         2 0000042C 00000001     H    3172 3123
 VPTBL         1 00000688 00000001     R    4119 4085
 VP00          1 00000000 00000001     R    1003 1001
 VREAD         1 00000000 0000000B     T    4215 4215
 VSEG          1 00000000 0000000D     T    4217 4217
 VWRITE        1 00000000 0000000A     T    4207 4207
 WA          144 00000000 FFFFFFEC     J    1879 1872  1952U
 WAR           8 00000008 00000001 A   #    1098 1952U 3379U
 WASIZE        1 00000090 FFFFFFEC A   U    1872 1961
 =A(AMODE24)
               4 00000730 00000001     A    4212 3825  3869
 =A(AMODE31)
               4 0000072C 00000001     A    4211 3819  3863
 =A(ANDCORE)
               4 00000710 00000001     A    4204 2867
 =A(BASE)      4 00000720 00000001     A    4208 3398  4028
 =A(ORCORE)
               4 0000070C 00000001     A    4203 2846
 =A(RITECORE)
               4 00000708 00000001     A    4202 2829
 =A(X'80000000')
1VP       (VP00) (09:48) (22MAR04) Ordinary Symbol and Literal Cross Reference                                              Page   37
               4 00000734 00000001     A    4213 3943
 =A(16)        4 000006EC 00000001     A    4195 2397
 =A(4)         4 00000738 00000001     A    4214 3974
 =A(4095)      4 000006FC 00000001     A    4199 2633
 =A(6)         4 000006F0 00000001     A    4196 2481
 =A(8)         4 000006E4 00000001     A    4193 2217  3012
 =V(BCDTBL)
               4 00000718 00000001     V    4206 3032
 =V(BTX)       4 00000714 00000001     V    4205 2972
 =V(EVAL)      4 000006E0 00000001     V    4192 2185  2303  2358  2416  2448  2577
 =V(EVHEX)
               4 000006E8 00000001     V    4194 2243  2529  2654  3142
 =V(PRIVTEST)
               4 00000704 00000001     V    4201 2761  4044
 =V(READCORE)
               4 00000700 00000001     V    4200 2736
 =V(SCAN)      4 000006D8 00000001     V    4190 2019  2706  4095
 =V(SCINIT)
               4 00000740 00000001     V    4216 4076
 =V(TYPEIT)
               4 000006DC 00000001     V    4191 2088  3091
 =V(VREAD)
               4 0000073C 00000001     V    4215 4053
 =V(VSEG)      4 00000744 00000001     V    4217 4149  4182
 =V(VWRITE)
               4 0000071C 00000001     V    4207 3074  4114
 =X'00FFFFFF'
               4 00000724 00000001     X    4209 3651  3652
 =X'00F00000'
               4 00000728 00000001     X    4210 3747
 =XL4'0FFFFFFF'
               4 000006F4 00000001     X    4197 2587
 =XL4'00FFFFFF'
               4 000006F8 00000001     X    4198 2617
 =Y(4)         2 00000748 00000001     Y    4218 4152  4185

1VP       (VP00) (09:48) (22MAR04) Macro and Copy Code Source Summary                                                       Page   38
- Con Source                                        Volume    Members                        HLASM R4.0  2004/03/22 09.48
0     PRIMARY INPUT                                           BTD      BTX      CSECT    DROP     END      EX
                                                              LTORG    POP      PRINT    PUSH     START    USING
   L2 WYL.GG.SYS.MACLIB                             SYSB05    $BC      $BFLKUP  $BV      $CCLKUP  $CRS     $CSS     $L
                                                              $LA      $LBLAD   $LEXP    $LOR     $REL     $RGLKUP
                                                              $USLKUP  ACALL    BASE     BEGIN    CLEAR    CSECT    DATA
                                                              DECR     DEFCC    DEX      DROP     ELSE     END      EX
                                                              FLAG     GEN      HIBAL    IDENT    IF       LABEL    LC
                                                              LS       LTORG    POP      PRINT    PUSH     RECORD   REG
                                                              REGS     SET      SETMSG   START    SYSLR    SYSQS
                                                              USING    VCALL    WITH
   L3 WYL.GG.ORV.BC.MACLIB                          SYSB02    CLPSERV  CLW      GENMSGS  ORVDEFN  SCAN     SCANCB
                                                              SCINIT   SCKW     SCRTN    SEG      VENTER   VEXIT    VPOP
                                                              VPUSH    VREAD    VREST    VSA      VSAVE    VSEG
                                                              VWRITE   XCALL
   L4 WYL.GG.ORV.MACLIB                             SYSB02    SCP
   L5 SYS3.ORVYL.UMACLIB                            SYSB02    CALLSYS  SENSE
   L6 SYS3.IS.MACLIB                                SYSB05    SYSDEFN

1         (VP00) (09:48) (22MAR04) General Purpose Register Cross Reference                                                 Page   39
- Register  References (M=modified, B=branch, U=USING, D=DROP, N=index)                      HLASM R4.0  2004/03/22 09.48
0    0(0)     983U  984D 2030M 2030  2195  2217  2231M 2232M 2313  2377M 2377  2397  2406  2427  2459  2481  2490  2519M
             2587M 2617M 2633  2642  2643M 2672M 2672  2681  2709M 2827M 2962M 2983  3029M 3056M 3131M 3152  3268  3294
             3320  3346  3430M 3430  3479  3486M 3514M 3541M 3568M 3594M 3632M 3635  3657M 3657  3671  3697M 3697  3712
             3859M 3887M 3934M 4164M 4164  4165M
     1(1)     979U 2009M 2056M 2063M 2083M 2224M 2233M 2431M 2518M 2547M 2644M 2696M 2708M 2769M 2780M 2780  2791M 2793
             2800M 2826M 2942M 2969M 3001M 3009M 3024M 3031M 3035M 3037  3053M 3055M 3072M 3102M 3107M 3112M 3132M 3268
             3294  3320  3346  3418  3420  3479M 3702M 3852M 3934M 4048M 4085M 4109M 4165N 4166M 4166N
     2(2)     975U 1959  2102M 2195M 2232  2233N 2406M 2426M 2427N 2459M 2539M 2541  2642M 2708  2826  2945M 2946M 2946
             2983  3012M 3029  3268  3294  3320  3346  3420M 3421M 3438M 3652M 3672M 3673M 3683  3702  3718M 3934M 4008
             4104M
     3(3)     971U 1959  2102M 2145M 2148M 2158U 2164M 2171U 2262M 2267M 2277U 2283M 2290U 2318M 2321M 2331U 2337M 2344U
             2944M 3011M 3032M 3268  3288M 3294  3314M 3314  3320  3340M 3346  3366M 3367M 3367  3489M 3489  3490N 3811M
             3811  3822N 3866N 3904M 3904  3934M 4008  4104M
     4(4)     967U 1959  2102M 3268  3294  3320  3346  3419M 3421  3473  3778M 3778  3788M 3822  3866  3934M 4008  4104M
     5(5)     963U 1959  2102M 3268  3294  3320  3346  3418M 3468  3651M 3683  3730  3747  3852  3934M 4008  4041M 4099M
             4099  4100  4104M
     6(6)     959U 1959  2102M 3268  3294  3320  3346  3934M 4008  4104M
     7(7)     955U 1959  1964M 1974U 2102M 2555B 3268  3273M 3283U 3286U 3294  3299M 3309U 3312U 3320  3325M 3335U 3338U
             3346  3351M 3361U 3364U 3383M 3393U 3396U 3398M 3406U 3409U 3934M 4008  4013M 4023U 4026U 4028M 4036U 4039U
             4104M
     8(8)     951U 1952U 1959  1960M 2101  2102M 3268  3269M 3294  3295M 3320  3321M 3346  3347M 3376U 3379U 3933  3934M
             4008  4009M 4103  4104M
     9(9)     947U 1959  2054M 2057M 2064M 2081M 2084M 2088M 2089M 2089B 2102M 2103B 2185M 2186M 2186B 2225M 2243M 2244M
             2244B 2303M 2304M 2304B 2358M 2359M 2359B 2416M 2417M 2417B 2432M 2448M 2449M 2449B 2529M 2530M 2530B 2548M
             2577M 2578M 2578B 2654M 2655M 2655B 2736M 2737M 2737B 2744M 2761M 2766M 2766B 2801M 2829M 2846M 2867M 2872M
             2872B 2943M 3007M 3010M 3030M 3054M 3070M 3073M 3074M 3091M 3096M 3096B 3103M 3108M 3113M 3142M 3143M 3143B
             3268  3294  3320  3346  3819M 3820M 3820B 3825M 3826M 3826B 3863M 3864M 3864B 3869M 3870M 3870B 3934M 3936B
             3946B 3954B 4008  4044M 4045M 4045B 4049M 4053M 4054M 4054B 4104M 4106B 4110M 4114M 4115M 4115B 4132  4149M
             4150M 4150B 4153M 4154B 4159  4182M 4183M 4183B 4186M 4187B
    10(A)     943U 1943U 1959  2102M 3268  3294  3320  3346  3934M 4008  4104M
    11(B)     939U 1959  2102M 3268  3294  3320  3346  3934M 4008  4104M
    12(C)     935U
    13(D)     931U 1959  1960  1961M 1961  2101M 2102  3268  3269  3270M 3270  3294  3295  3296M 3296  3320  3321  3322M
             3322  3346  3347  3348M 3348  3933M 3934  4008  4009  4010M 4010  4103M 4104  4132  4133M 4133  4152M 4153
             4159  4160M 4160  4185M 4186
    14(E)     927U 2019M 2020M 2020B 2706M 2707M 2707B 2825M 2972M 2973M 2973B 3168B 3183B 3216B 3250B 3468M 4076M 4077M
             4077B 4095M 4096M 4096B
    15(F)     923U 2016M 2703M 2710M 2722  2729M 2738N 2828M 2955M 3419  3473M 3842M 3871M 3928M 3930M 3930  3935M 3935
             3942M 3943M 3944B 3951M 3952B 3974  3983M 3986M 4073M 4092M 4100M 4105M 4105

1VP       (VP00) (09:48) (22MAR04) Diagnostic Cross Reference and Assembler Summary                                         Page   40
-                                                                                            HLASM R4.0  2004/03/22 09.48
0     No Statements Flagged in this Assembly
 HIGH LEVEL ASSEMBLER, 5696-234, RELEASE 4.0, PTF UQ57391
0SYSTEM: OS/390 02.10.00            JOBNAME: PJG#VP      STEPNAME: ASM        PROCSTEP: (NOPROC)
0Datasets Allocated for this Assembly
  Con DDname   Dataset Name                                 Volume  Member
   P1 SYSIN    SYS04082.T094855.RA000.PJG#VP.INPUT.H01      SCR100
   L1 SYSLIB   SYS3.DUMMYMAC                                SYSB02
   L2          WYL.GG.SYS.MACLIB                            SYSB05
   L3          WYL.GG.ORV.BC.MACLIB                         SYSB02
   L4          WYL.GG.ORV.MACLIB                            SYSB02
   L5          SYS3.ORVYL.UMACLIB                           SYSB02
   L6          SYS3.IS.MACLIB                               SYSB05
      SYSLIN   WYL.GG.PJG.OBJ                               SYSB05  VP
      SYSPRINT SYS04082.T094855.RA000.PJG#VP.PRINT.H01      SCR101
      SYSTERM  GG$PJG.PJG#VP.JOB05996.D0000103.?

    7812K allocated to Buffer Pool,          773K would be required for this to be an In-Storage Assembly
     530 Primary Input Records Read         3716 Library Records Read                  0 Work File Reads
       0 ASMAOPT Records Read               2485 Primary Print Records Written         0 Work File Writes
      61 Punch Records Written                 0 ADATA Records Written
0Assembly Start Time: 09.48.58 Stop Time: 09.49.02 Processor Time: 00.00.00.8969
 Return Code 000
