1                        J E S 2  J O B  L O G  --  S Y S T E M  S Y S B  --  N O D E  R L G
0
 09.41.32 JOB05945 ---- MONDAY,    22 MAR 2004 ----
 09.41.32 JOB05945  ICH70001I GG$PJG   LAST ACCESS AT 09:41:20 ON MONDAY, MARCH 22, 2004
 09.41.32 JOB05945  $HASP373 PJG#MSTR STARTED - INIT 3    - CLASS E - SYS SYSB
 09.41.32 JOB05945  ***  HCMD      STEP $$QUIET
 09.41.32 JOB05945  PURGE * Q=OUTPUT MULTIPLE
 09.41.32 JOB05945  JOB PJG#MSTR NOT IN OUTPUT QUEUE
 09.41.33 JOB05945  PJG#MSTR.$$QUIET .         RC=0008 TapeIO=0000 DiskIO=0000 CPU=  .01s Elapsed=92.09s
 09.41.33 JOB05945  PJG#MSTR.$CND    .         RC=Zero TapeIO=0000 DiskIO=0002 CPU=  .01s Elapsed=93.31s
 09.41.33 JOB05945  PJG#MSTR.$UNP    .         RC=Zero TapeIO=0000 DiskIO=0013 CPU=  .05s Elapsed=93.44s
 09.41.42 JOB05945  PJG#MSTR.ASM     .         RC=Zero TapeIO=0000 DiskIO=0585 CPU= 2.45s Elapsed=93.72s
 09.41.43 JOB05945  PJG#MSTR.$EDIT   .         RC=Zero TapeIO=0000 DiskIO=0096 CPU=  .37s Elapsed=02.66s
 09.41.43 JOB05945  PJG#MSTR Ended.  Name=Module: MASTER                 Total CPU= 2.89s Elapsed=92.09s
 09.41.43 JOB05945
 09.41.43 JOB05945  Execution charges   Priority=Standard   Block=Day
 09.41.43 JOB05945
 09.41.43 JOB05945  CPU Usage          52.50          $32.55   Standard Processing Unit Equivalent
 09.41.43 JOB05945                                   =======
 09.41.43 JOB05945                                    $32.55   Total Job execution charge
 09.41.43 JOB05945
 09.41.43 JOB05945  See back separator page for print charges
 09.41.43 JOB05945
 09.41.43 JOB05945  $HASP395 PJG#MSTR ENDED  ASM=0
1        1 //PJG#MSTR JOB PJG$GG,'Module: MASTER',TIME=1,MSGCLASS=C                JOB05945
           /*JOBPARM HOLD=OUTPUT,LINES=50,CHARS=TN15,NOTIFY=YES
         2 //       EXEC PURGEOLD
         3 XXPURGEOLD PROC
           XX*
           XX* This proc is maintained by Jim Stosick
           XX*
         4 XX$$QUIET  EXEC PGM=HCMDX,PARM='PURGE * Q=OUTPUT MULTIPLE',
           XX         ACCT=(PURGEOLD,SYS3)
         5 //$CND   EXEC PGM=BILBO,REGION=512K,PARM='RECS=100'
         6 //STEPLIB  DD DSN=WYL.GG.ORV.LINKLIB,DISP=SHR
         7 //SYSPRINT DD SYSOUT=$
         8 //SYSUT1   DD DSN=WYL.GG.PJG.OBJ,DISP=OLD
         9 //SYSUT2   DD DSN=WYL.GG.PJG.OBJ,DISP=OLD
        10 //SYSIN    DD DUMMY
        11 //$UNP   EXEC PGM=WUNPRESS,PARM='NUM'
        12 //SYSPRINT DD SYSOUT=$
        13 //SYSUT1   DD DSN=WYL.GG.ORV.SOURCE(MASTER),DISP=SHR
        14 //SYSUT2   DD DSN=&&INPUT,DISP=(,PASS),UNIT=SYSDA,
           //            SPACE=(TRK,(25,25),RLSE),DCB=CARD
        15 //ASM    EXEC PGM=ASMA90,REGION=8M,COND=(0,NE,$UNP),
           //            PARM=('SYSPARM(MASTER),TERM,LANG(EN),OBJ',
           //          'LC(32500),XREF(SHORT),NODECK,NORLD,NODX,NOUS')
           //*STEPLIB  DD DSN=SYS1.SASMMOD1,DISP=SHR
        16 //SYSLIB   DD DSN=SYS3.DUMMYMAC,DISP=SHR,DCB=BLKSIZE=27920
        17 //         DD DSN=WYL.GG.ORV.MACLIB,DISP=SHR
        18 //         DD DSN=WYL.GG.SYS.MACLIB,DISP=SHR
        19 //         DD DSN=SYS3.MACLIB,DISP=SHR
        20 //         DD DSN=SYS1.MACLIB,DISP=SHR
        21 //SYSUT1   DD DSN=&&SYSUT1,UNIT=VIO,DISP=(,DELETE),
           //            SPACE=(4088,(500,250),,CONTIG,ROUND)
        22 //SYSTERM  DD SYSOUT=$
        23 //SYSPRINT DD DSN=&&PRINT,UNIT=SYSDA,DISP=(,PASS),
           //            SPACE=(6650,(250,250),RLSE),
           //            DCB=(BLKSIZE=6650,LRECL=133,RECFM=FB)
        24 //SYSLIN   DD DSN=WYL.GG.PJG.OBJ(MASTER),DISP=OLD
        25 //SYSUDUMP DD SYSOUT=A
        26 //SYSIN    DD DSN=&&INPUT,DISP=(OLD,DELETE)
        27 //$EDIT  EXEC PGM=ASMEDIT,REGION=1M,
           //            COND=EVEN,PARM='STMT,DATA'
        28 //STEPLIB  DD DSN=WYL.GG.SYS.LINKLIB,DISP=SHR
        29 //ASMOUT   DD DSN=&&PRINT,DISP=(OLD,DELETE)
        30 //SYSPRINT DD SYSOUT=A
        31 //SYSUDUMP DD SYSOUT=A
1 STMT NO. MESSAGE
         2 IEFC001I PROCEDURE PURGEOLD WAS EXPANDED USING SYSTEM LIBRARY SYS3.BETAPROC
        14 IGD01010I STORCLAS= TEMP STORGROUP =
        14 IGD01010I STORGRP=VIO ASSIGNED.
        21 IGD01010I STORCLAS= TEMP STORGROUP =
        21 IGD01010I STORGRP=VIO ASSIGNED.
        23 IGD01010I STORCLAS= TEMP STORGROUP =
        23 IGD01010I STORGRP=VIO ASSIGNED.
 ICH70001I GG$PJG   LAST ACCESS AT 09:41:20 ON MONDAY, MARCH 22, 2004
 IEF142I PJG#MSTR $$QUIET - STEP WAS EXECUTED - COND CODE 0008
 *********************************************************************************
 *   PJG#MSTR/$$QUIET /                    Return Code      0008                 *
 *   Region used      260K (16K user + 244K system)                              *
 *   Extended region  9352K (4K user + 9348K system)                             *
 *                                                                               *
 *   Paging              In      Out                                             *
 *   Private <-> Aux      0        0       CPU time (TCB)   00:00:00.01          *
 *   Private <-> Exp      0        0       CPU time (SRB)   00:00:00.00          *
 *   VIO                  0        0       Elapsed time    920:46:20.87          *
 *   Common               0      ---                                             *
 *                                                                               *
 *                                                                               *
 *   CPU Usage          0.18         $0.11  Standard Processing Unit Equivalent  *
 *                                   $0.11  Total Step execution charge          *
 *                                                                               *
 *    I/O count  DDname   Type Addr           I/O count  DDname   Type Addr      *
 *                         *** No I/O for this step ***                          *
 *********************************************************************************
 IEF373I STEP/$$QUIET /START 2004082.0941
 IEF374I STEP/$$QUIET /STOP  2004082.0941 CPU    0MIN 00.01SEC SRB    0MIN 00.00SEC VIRT    16K SYS   244K EXT       4K SYS    9348K
 IEF236I ALLOC. FOR PJG#MSTR $CND
 IEF237I 0401 ALLOCATED TO STEPLIB
 IEF237I JES2 ALLOCATED TO SYSPRINT
 IEF237I 04DC ALLOCATED TO SYSUT1
 IEF237I 04DC ALLOCATED TO SYSUT2
 IEF237I DMY  ALLOCATED TO SYSIN
 IEF142I PJG#MSTR $CND - STEP WAS EXECUTED - COND CODE 0000
 IEF285I   WYL.GG.ORV.LINKLIB                           KEPT
 IEF285I   VOL SER NOS= SYSB01.
 IEF285I   GG$PJG.PJG#MSTR.JOB05945.D0000101.?          SYSOUT
 IEF285I   WYL.GG.PJG.OBJ                               KEPT
 IEF285I   VOL SER NOS= SYSB05.
 IEF285I   WYL.GG.PJG.OBJ                               KEPT
 IEF285I   VOL SER NOS= SYSB05.
 *********************************************************************************
 *   PJG#MSTR/$CND    /                    Return Code      Zero                 *
 *   Region used      280K (16K user + 264K system)                              *
 *   Extended region  9392K (4K user + 9388K system)                             *
 *                                                                               *
 *   Paging              In      Out                                             *
 *   Private <-> Aux      0        0       CPU time (TCB)   00:00:00.01          *
 *   Private <-> Exp      0        0       CPU time (SRB)   00:00:00.00          *
 *   VIO                  0        0       Elapsed time    920:46:19.65          *
 *   Common               0      ---                                             *
 *                                                                               *
 *                                                                               *
 *   CPU Usage          0.18         $0.11  Standard Processing Unit Equivalent  *
 *                                   $0.11  Total Step execution charge          *
 *                                                                               *
 *    I/O count  DDname   Type Addr           I/O count  DDname   Type Addr      *
 *            2  STEPLIB  Disk 0401                   0  SYSPRINT      ----      *
 *            0  SYSUT1   Disk 04DC                   0  SYSUT2   Disk 04DC      *
 *            0  SYSIN         ----                                              *
 *********************************************************************************
 IEF373I STEP/$CND    /START 2004082.0941
 IEF374I STEP/$CND    /STOP  2004082.0941 CPU    0MIN 00.01SEC SRB    0MIN 00.00SEC VIRT    16K SYS   264K EXT       4K SYS    9388K
 IEF236I ALLOC. FOR PJG#MSTR $UNP
 IEF237I JES2 ALLOCATED TO SYSPRINT
 IEF237I 0402 ALLOCATED TO SYSUT1
 IGD101I SMS ALLOCATED TO DDNAME (SYSUT2  )
         DSN (SYS04082.T094132.RA000.PJG#MSTR.INPUT.H01   )
         STORCLAS (TEMP) MGMTCLAS (        ) DATACLAS (        )
         VOL SER NOS= SCR101
 IEF142I PJG#MSTR $UNP - STEP WAS EXECUTED - COND CODE 0000
 IEF285I   GG$PJG.PJG#MSTR.JOB05945.D0000102.?          SYSOUT
 IEF285I   WYL.GG.ORV.SOURCE                            KEPT
 IEF285I   VOL SER NOS= SYSB02.
 IGD106I SYS04082.T094132.RA000.PJG#MSTR.INPUT.H01    PASSED,    DDNAME=SYSUT2
 *********************************************************************************
 *   PJG#MSTR/$UNP    /                    Return Code      Zero                 *
 *   Region used      388K (108K user + 280K system)                             *
 *   Extended region  9468K (4K user + 9464K system)                             *
 *                                                                               *
 *   Paging              In      Out                                             *
 *   Private <-> Aux      0        0       CPU time (TCB)   00:00:00.05          *
 *   Private <-> Exp      0        0       CPU time (SRB)   00:00:00.00          *
 *   VIO                  0        0       Elapsed time    920:46:19.52          *
 *   Common               0      ---                                             *
 *                                                                               *
 *                                                                               *
 *   CPU Usage          0.93         $0.57  Standard Processing Unit Equivalent  *
 *                                   $0.57  Total Step execution charge          *
 *                                                                               *
 *    I/O count  DDname   Type Addr           I/O count  DDname   Type Addr      *
 *            0  SYSPRINT      ----                   2  SYSUT1   Disk 0402      *
 *           11  SYSUT2   Disk 04E3                                              *
 *********************************************************************************
 IEF373I STEP/$UNP    /START 2004082.0941
 IEF374I STEP/$UNP    /STOP  2004082.0941 CPU    0MIN 00.05SEC SRB    0MIN 00.00SEC VIRT   108K SYS   280K EXT       4K SYS    9464K
 IEF236I ALLOC. FOR PJG#MSTR ASM
 IEF237I 0402 ALLOCATED TO SYSLIB
 IEF237I 0402 ALLOCATED TO
 IEF237I 04DC ALLOCATED TO
 IEF237I 0402 ALLOCATED TO
 IEF237I 04A0 ALLOCATED TO
 IGD101I SMS ALLOCATED TO DDNAME (SYSUT1  )
         DSN (SYS04082.T094132.RA000.PJG#MSTR.SYSUT1.H01  )
         STORCLAS (TEMP) MGMTCLAS (        ) DATACLAS (        )
         VOL SER NOS= VIO
 IEF237I JES2 ALLOCATED TO SYSTERM
 IGD101I SMS ALLOCATED TO DDNAME (SYSPRINT)
         DSN (SYS04082.T094132.RA000.PJG#MSTR.PRINT.H01   )
         STORCLAS (TEMP) MGMTCLAS (        ) DATACLAS (        )
         VOL SER NOS= SCR100
 IEF237I 04DC ALLOCATED TO SYSLIN
 IEF237I JES2 ALLOCATED TO SYSUDUMP
 IGD103I SMS ALLOCATED TO DDNAME SYSIN
 IEF142I PJG#MSTR ASM - STEP WAS EXECUTED - COND CODE 0000
 IEF285I   SYS3.DUMMYMAC                                KEPT
 IEF285I   VOL SER NOS= SYSB02.
 IEF285I   WYL.GG.ORV.MACLIB                            KEPT
 IEF285I   VOL SER NOS= SYSB02.
 IEF285I   WYL.GG.SYS.MACLIB                            KEPT
 IEF285I   VOL SER NOS= SYSB05.
 IEF285I   SYS3.MACLIB                                  KEPT
 IEF285I   VOL SER NOS= SYSB02.
 IEF285I   SYS1.MACLIB                                  KEPT
 IEF285I   VOL SER NOS= MVSBR9.
 IGD105I SYS04082.T094132.RA000.PJG#MSTR.SYSUT1.H01   DELETED,   DDNAME=SYSUT1
 IEF285I   GG$PJG.PJG#MSTR.JOB05945.D0000103.?          SYSOUT
 IGD106I SYS04082.T094132.RA000.PJG#MSTR.PRINT.H01    PASSED,    DDNAME=SYSPRINT
 IEF285I   WYL.GG.PJG.OBJ                               KEPT
 IEF285I   VOL SER NOS= SYSB05.
 IEF285I   GG$PJG.PJG#MSTR.JOB05945.D0000104.?          SYSOUT
 IGD105I SYS04082.T094132.RA000.PJG#MSTR.INPUT.H01    DELETED,   DDNAME=SYSIN
 *********************************************************************************
 *   PJG#MSTR/ASM     /                    Return Code      Zero                 *
 *   Region used      8484K (8192K user + 292K system)                           *
 *   Extended region  9952K (412K user + 9540K system)                           *
 *                                                                               *
 *   Paging              In      Out                                             *
 *   Private <-> Aux      0        0       CPU time (TCB)   00:00:02.37          *
 *   Private <-> Exp      0        0       CPU time (SRB)   00:00:00.08          *
 *   VIO                  0        0       Elapsed time    920:46:19.24          *
 *   Common               0      ---                                             *
 *                                                                               *
 *                                                                               *
 *   CPU Usage         44.43        $27.54  Standard Processing Unit Equivalent  *
 *                                  $27.54  Total Step execution charge          *
 *                                                                               *
 *    I/O count  DDname   Type Addr           I/O count  DDname   Type Addr      *
 *           90  SYSLIB   Disk 0402                   0  SYSLIB   Disk 0402      *
 *          132  SYSLIB   Disk 04DC                   0  SYSLIB   Disk 0402      *
 *          255  SYSLIB   Disk 04A0                   0  SYSUT1   VIO  ----      *
 *            0  SYSTERM       ----                  93  SYSPRINT Disk 038B      *
 *            3  SYSLIN   Disk 04DC                   0  SYSUDUMP      ----      *
 *           12  SYSIN    Disk 04E3                                              *
 *********************************************************************************
 IEF373I STEP/ASM     /START 2004082.0941
 IEF374I STEP/ASM     /STOP  2004082.0941 CPU    0MIN 02.37SEC SRB    0MIN 00.08SEC VIRT  8192K SYS   292K EXT     412K SYS    9540K
 IEF236I ALLOC. FOR PJG#MSTR $EDIT
 IEF237I 0402 ALLOCATED TO STEPLIB
 IGD103I SMS ALLOCATED TO DDNAME ASMOUT
 IEF237I JES2 ALLOCATED TO SYSPRINT
 IEF237I JES2 ALLOCATED TO SYSUDUMP
 IEF142I PJG#MSTR $EDIT - STEP WAS EXECUTED - COND CODE 0000
 IEF285I   WYL.GG.SYS.LINKLIB                           KEPT
 IEF285I   VOL SER NOS= SYSB02.
 IGD105I SYS04082.T094132.RA000.PJG#MSTR.PRINT.H01    DELETED,   DDNAME=ASMOUT
 IEF285I   GG$PJG.PJG#MSTR.JOB05945.D0000105.?          SYSOUT
 IEF285I   GG$PJG.PJG#MSTR.JOB05945.D0000106.?          SYSOUT
 *********************************************************************************
 *   PJG#MSTR/$EDIT   /                    Return Code      Zero                 *
 *   Region used      388K (116K user + 272K system)                             *
 *   Extended region  9468K (4K user + 9464K system)                             *
 *                                                                               *
 *   Paging              In      Out                                             *
 *   Private <-> Aux      0        0       CPU time (TCB)   00:00:00.36          *
 *   Private <-> Exp      0        0       CPU time (SRB)   00:00:00.01          *
 *   VIO                  0        0       Elapsed time    920:46:10.30          *
 *   Common               0      ---                                             *
 *                                                                               *
 *                                                                               *
 *   CPU Usage          6.75         $4.18  Standard Processing Unit Equivalent  *
 *                                   $4.18  Total Step execution charge          *
 *                                                                               *
 *    I/O count  DDname   Type Addr           I/O count  DDname   Type Addr      *
 *            2  STEPLIB  Disk 0402                  94  ASMOUT   Disk 038B      *
 *            0  SYSPRINT      ----                   0  SYSUDUMP      ----      *
 *********************************************************************************
 IEF373I STEP/$EDIT   /START 2004082.0941
 IEF374I STEP/$EDIT   /STOP  2004082.0941 CPU    0MIN 00.36SEC SRB    0MIN 00.01SEC VIRT   116K SYS   272K EXT       4K SYS    9464K
 *********************************************************************************
 *                                                                               *
 *                      S t a n f o r d   U n i v e r s i t y                    *
 *                                                                               *
 *                              *** Job Summary ***                              *
 *                                                                               *
 *   System Id      SYSB                   Input time     09:38:22  Mar 22, 2004 *
 *                                                                               *
 *   System Release SP6.1.0                Start time     09:41:32  Mar 22, 2004 *
 *                                                                               *
 *   Job name       PJG#MSTR               Stop  time     00:00:00  Mar 22, 2004 *
 *                                                                               *
 *   Account        PJG$GG                 Elapsed time  920:46:20.87            *
 *                                                                               *
 *   User Name      Module: MASTER         CPU time       00:00:02.80            *
 *                                                                               *
 *   Job class      E                      SRB Time       00:00:00.09            *
 *                                                                               *
 *********************************************************************************
 IEF375I  JOB/PJG#MSTR/START 2004082.0941
 IEF376I  JOB/PJG#MSTR/STOP  2004082.0941 CPU    0MIN 02.80SEC SRB    0MIN 00.09SEC
1Data set successfully converted from EDIT to FB format
1Assembler Done MPMAST No Statements Flagged
1         High Level Assembler Option Summary                   (PTF UQ57391)                                               Page    1
-                                                                                            HLASM R4.0  2004/03/22 09.41
0  No Overriding ASMAOPT Parameters
   Overriding Parameters-  SYSPARM(MASTER),TERM,LANG(EN),OBJ,LC(32500),XREF(SHORT),NODECK,NORLD,NODX,NOUS
   No Process Statements


   Options for this Assembly
0  NOADATA
     ALIGN
   NOASA
     BATCH
     CODEPAGE(047C)
   NOCOMPAT
   NODBCS
 3 NODECK
 3 NODXREF
     ESD
   NOEXIT
     FLAG(0,ALIGN,CONT,NOIMPLEN,NOPAGE0,PUSH,RECORD,NOSUBSTR,USING0)
   NOFOLD
   NOGOFF
   NOINFO
 3   LANGUAGE(EN)
   NOLIBMAC
 3   LINECOUNT(32500)
     LIST(121)
     MXREF(SOURCE)
 3   OBJECT
     OPTABLE(UNI,NOLIST)
   NOPCONTROL
   NOPESTOP
   NOPROFILE
   NORA2
   NORENT
 3 NORLD
     RXREF
     SIZE(MAX)
 3   SYSPARM(MASTER)
 3   TERM(WIDE)
   NOTEST
     THREAD
   NOTRANSLATE
 3 NOUSING
 3   XREF(SHORT)

   No Overriding DD Names

1MPMAST   External Symbol Dictionary                                                                                        Page    2
-Symbol   Type   Id     Address  Length     LD ID  Flags Alias-of                            HLASM R4.0  2004/03/22 09.41
0MPMAST    SD 00000001 00000000 00000C88             06
 MPMA00    LD          00000000           00000001
 IOSINIT   WX 00000002
 IOSTERM   WX 00000003
 IOSSTAT   WX 00000004
 IOSDUMP   WX 00000005
 GSTINIT   WX 00000006
 GSTTERM   WX 00000007
 GSTSTAT   WX 00000008
 GSTDUMP   WX 00000009
 MPINIT    LD          00000016           00000001
 GSTINTF   ER 0000000A
 IOSERV    ER 0000000B
 MEMSERV   ER 0000000C
 MSGSERV   ER 0000000D
 MPMAST    ER 0000000E
 TEXTCONV  ER 0000000F
 PARMS     ER 00000010
 IPLTEXT   ER 00000011
 TASKSERV  ER 00000012
 STOPBAT   LD          000005B6           00000001
 DODUMP    LD          0000066A           00000001
 TASKINIT  ER 00000013
 PARMINIT  ER 00000014
 POOLGET   ER 00000015
 SEGINIT   ER 00000016
 MEMGET    ER 00000017
 PARMDO    ER 00000018
 MEMFREE   ER 00000019
 GSTDISP1  ER 0000001A
 SETCLOCK  ER 0000001B
 GSTTERMP  ER 0000001C
 IOSHTERM  ER 0000001D
 TASKDUMP  ER 0000001E
 SEG       ER 0000001F
 DSALLO    ER 00000020
 JSALLO    ER 00000021

1MPMAST   ORVYL'S Master Task                                                                                               Page    3
0Loc    Object Code    Addr1 Addr2  Stmt Lv Lineno    Source Statement                    (Asmedit 3.3)  HLASM R4.0  2004/03/22 09.41
+___    ______ ____    _____ _____  ____ __ ______    ______ _________
0                                      2       2.              COPY  HEADER
                                       3             =*********************************************************************
                                       4             =*                                                                   *
                                       5             =*                                                                   *
                                       6             =*                          M P - O R V Y L                          *
                                       7             =*                                                                   *
                                       8             =*       ORVYL - Release 5.0 - Class I - Stanford Proprietary        *
                                       9             =*                                                                   *
                                      10             =*                                                                   *
                                      11             =*********************************************************************
-
-                                     13             =         SPLEVEL SET=2
                                      16             =         HIBAL ASSOC=YES
-
                                     998             =*
                                     999             =* REGISTER CONVENTIONS (USE ONLY THE SYMBOLS)
                                    1000             =*
                                    1001             =*                     CLASS  USAGE
                                    1002             =*                     -----  -----------------------------
                                    1003             =RVR      REG   0        1    RETURN VALUE REGISTER
                                    1015             =RS       REG   1        *    SCRATCH
                                    1027             =RA       REG   2        *    SCRATCH
                                    1039             =RB       REG   3        *    SCRATCH
                                    1051             =RJ       REG   4        *    SCRATCH
                                    1063             =RK       REG   5        *    SCRATCH
                                    1075             =RX       REG   6        *    SCRATCH
                                    1087             =RY       REG   7        *    SCRATCH
                                    1099             =RM       REG   8        *    SCRATCH
                                    1111             =RN       REG   9        *    SCRATCH (In Guest)
                                    1123             =RTCBR    REG   9        -    POINTER TO THE RTCB (In Host)
                                    1135             =BR       REG   10       -    FIRST BASE REGISTER
                                    1147             =BRR      REG   11       -    SECOND BASE REGISTER
                                    1159             =WAR      REG   12       -    WORK AREA POINTER
                                    1171             =SPR      REG   13       -    STACK TOP POINTER
                                    1183             =RAR      REG   14       1    RETURN ADDRESS REGISTER
                                    1195             =EPAR     REG   15       1    ENTRY POINT ADDRESS
                                    1207             =*
                                    1208             =*      CLASS   MEANING
                                    1209             =*      -----   --------------------------------------------------
                                    1210             =*        *     Register may be freely used for scratch
                                    1211             =*        -     Register may not be used
                                    1212             =*        1     Available but may change on subroutine calls
                                    1213             =*
1MPMAST   ORVYL'S Master Task                                                                                               Page    4
0D-Loc  Object Code    Addr1 Addr2  Stmt Lv Lineno    Source Statement           (Hibal 5, Asmedit 3.3)  HLASM R4.0  2004/03/22 09.41
+_____  ______ ____    _____ _____  ____ __ ______    ______ _________
0000000                00000 00C88  1215       3.     MPMAST   MODULE
                                    1225             +*
                                    1226    02-IDENT +         ENTRY MPMA00
                                    1227             +
 000000 14D4D7D4C1F0F06B            1228    02-IDENT +MPMA00   DC    AL1(20),C'MPMA00,22MAR04,09:41'
                                    1229             +*
                                    1231       4.              PRINT OFF                     PSA, CVT, TCB, SCV
1MPMAST   (MPMA00) (09:41) (22MAR04) IHAPSAE  - PSA Extension (ESAME)                                                       Page    5
0D-Loc  Object Code    Addr1 Addr2  Stmt Lv Lineno    Source Statement           (Hibal 5, Asmedit 3.3)  HLASM R4.0  2004/03/22 09.41
+_____  ______ ____    _____ _____  ____ __ ______    ______ _________
0000000                00000 0000C  4872      18.     MVSCOMM  DSECT
                                    4873      19.              IEZCOM
                                    4874             +*   %COMCMT:;                 /*                             @G380P2N*/
                                    4875             +*/********************************************************************/
                                    4876             +*/*                                                                  */
                                    4877             +*/*  MACRO NAME = IEZCOM                                             */
                                    4878             +*/*                                                                  */
                                    4879             +*/*  DESCRIPTIVE NAME = COMMUNICATIONS PARAMETER LIST                */
                                    4880             +*/*                     MAPPING MACRO                                */
                                    4881             +*/*                                                                  */
                                    4882             +*/*  COPYRIGHT=                                              @G380P2N*/
                                    4883             +*/*              5740-XYN COPYRIGHT IBM CORP. 1980,                  */
                                    4884             +*/*              LICENSED MATERIAL-PROGRAM, PROPERTY OF IBM,         */
                                    4885             +*/*              REFER TO COPYRIGHT INSTRUCTIONS FORM                */
                                    4886             +*/*              G120-2083.                                          */
                                    4887             +*/*                                                                  */
                                    4888             +*/*  STATUS = OS/VS2 JBB1226                                 @G380P2N*/
                                    4889             +*/*                                                                  */
                                    4890             +*/********************************************************************/
                                    4891             +*  %GOTO COMPLS;              /*                             @G380P2N
 000000                             4892    01-IEZCO +         DS    0D
                                    4893    01-IEZCO +COMLIST  EQU   * COMPTR ->    COMMUNICATIONS PARAMETER LIST
                                    4894             +
 000000                             4895    01-IEZCO +COMECBPT DS    A -            PTR TO ECB FOR STOP OR MODIFY COMMAND
 000004                             4896    01-IEZCO +COMCIBPT DS    A -            PTR TO COMMAND INPUT BUFFER (CIB)
                                    4897             +*                               MAPPED BY THE MACRO IEZCIB
 000008                             4898    01-IEZCO +COMTOKEN DS    CL4 -          31 BIT RIGHT JUSTIFIED TOKEN
                                    4899             +*                                                   (MDC001)   @G380P2N
                                    4900    01-IEZCO +COMTOKHR EQU   X'80' -        BIT = 1 INDICATES A TOKEN PRESENT
                                    4901             +*                                                   (MDC001)   @G380P2N
                                    4902             +*                     END OF IEZCOM
1MPMAST   (MPMA00) (09:41) (22MAR04) IHAPSAE  - PSA Extension (ESAME)                                                       Page    6
0D-Loc  Object Code    Addr1 Addr2  Stmt Lv Lineno    Source Statement           (Hibal 5, Asmedit 3.3)  HLASM R4.0  2004/03/22 09.41
+_____  ______ ____    _____ _____  ____ __ ______    ______ _________
0000000                00000 00018  4904      21.     MVSCIB   DSECT
                                    4905      22.              IEZCIB
                                    4906             +*%CIBL1 : ;
                                    4907             +*
                                    4908             +*/* ****START OF SPECIFICATIONS**********************************@01C*/
                                    4909             +*/*                                                                  */
                                    4910             +*/*01* MACRO NAME:  IEZCIB                                       @L4C*/
                                    4911             +*/*                                                              @01A*/
                                    4912             +*/*01* DSECT NAME:  CIBNAME, CIBX                                @P1C*/
                                    4913             +*/*                                                              @01A*/
                                    4914             +*/*01* DESCRIPTIVE NAME:  COMMAND INPUT BUFFER MAPPING MACRO     @L4C*/
                                    4915             +*/*01* ACRONYM: CIB                                              @L4C*/
                                    4916             +*/*                                                                  */
                                    4917             +*/*01* EXTERNAL CLASSIFICATION: GUPI                             @L4A*/
                                    4918             +*/*01*  END OF EXTERNAL CLASSIFICATION:                          @L4A*/
                                    4919             +*/*                                                              @01A*/
                                    4920             +*/*01* PROPRIETARY STATEMENT:                                    @L4C*/
                                    4921             +*/***PROPRIETARY_STATEMENT********************************************/
                                    4922             +*/*                                                                  */
                                    4923             +*/*                                                                  */
                                    4924             +*/* LICENSED MATERIALS - PROPERTY OF IBM                             */
                                    4925             +*/* THIS MACRO IS "RESTRICTED MATERIALS OF IBM"                      */
                                    4926             +*/* 5645-001 (C) COPYRIGHT IBM CORP. 1981, 1997                      */
                                    4927             +*/*                                                                  */
                                    4928             +*/* STATUS= HBB6603                                                  */
                                    4929             +*/*                                                                  */
                                    4930             +*/***END_OF_PROPRIETARY_STATEMENT*************************************/
                                    4931             +*/*                                                                  */
                                    4932             +*/*01* FUNCTION: BUFFER FOR START, STOP, MODIFY AND MOUNT        @L4C*/
                                    4933             +*/*    COMMANDS FROM CONSOLE OR TSO TERMINALS.                   @L4C*/
                                    4934             +*/*                                                              @01A*/
                                    4935             +*/*01* COMPONENT:  MASTER SCHEDULER (SC1B8)                      @L4C*/
                                    4936             +*/*                                                              @01A*/
                                    4937             +*/*01* EYE-CATCHER:  NONE.                                       @L4C*/
                                    4938             +*/*                                                              @01A*/
                                    4939             +*/*01* STORAGE ATTRIBUTES:                                       @L6C*/
                                    4940             +*/*02*   MAIN STORAGE: YES                                       @L4C*/
                                    4941             +*/*02*   VIRTUAL STORAGE: NO                                     @L4C*/
                                    4942             +*/*02*   AUXILIARY STORAGE: NO                                   @L4C*/
                                    4943             +*/*02*   DATA SPACE: NO                                          @L4C*/
                                    4944             +*/*02*   SUBPOOL:  245                                           @L4C*/
                                    4945             +*/*02*   KEY:  0                                                 @L4C*/
                                    4946             +*/*02*   RESIDENCY:  BELOW 16M                                   @L4C*/
                                    4947             +*/*                                                              @01A*/
                                    4948             +*/*01* SIZE: VARIABLE LENGTH BUT AT LEAST 16 BYTES               @L4A*/
                                    4949             +*/*                                                              @01A*/
                                    4950             +*/*01* CREATED BY: IEEVSTAR, IEE0703D, IEEVMNT1                  @L4C*/
                                    4951             +*/*                                                              @01A*/
                                    4952             +*/*01* POINTED TO BY: COMCIBPT FIELD OF THE COM DATA AREA        @L4C*/
                                    4953             +*/*                 CHCIBP FIELD OF THE CSCB DATA AREA           @01A*/
                                    4954             +*/*                                                              @01A*/
                                    4955             +*/*01* SERIALIZATION: ENQ ON MAJOR SYSIEFSD MINOR Q10            @L4C*/
                                    4956             +*/*                                                                  */
                                    4957             +*/*01* METHOD OF ACCESS:                                         @L4C*/
                                    4958             +*/*      BAL  - A DSECT CARD SHOULD PRECEDE MACRO CALL. USING ON @01C*/
                                    4959             +*/*             CIBNEXT GIVES ADDRESSABILITY FOR ALL SYMBOLS.    @01M*/
1MPMAST   (MPMA00) (09:41) (22MAR04) IHAPSAE  - PSA Extension (ESAME)                                                       Page    7
0D-Loc  Object Code    Addr1 Addr2  Stmt Lv Lineno    Source Statement           (Hibal 5, Asmedit 3.3)  HLASM R4.0  2004/03/22 09.41
+_____  ______ ____    _____ _____  ____ __ ______    ______ _________
0                                   4960             +*/*      PL/S - DCL CIBPTR PTR                                   @01M*/
                                    4961             +*/*                                                                  */
                                    4962             +*/*  CHANGE ACTIVITY - G860P2G                               @G860P2G*/
                                    4963             +*/*    $L1=SP3133CS  JBB3313, 880610, PDCS: B1 SECURITY SUPPORT      */
                                    4964             +*/*    $L2=SP3134CR  JBB3313, 880729, PDCR: B1 SECURITY SUPPORT      */
                                    4965             +*/*    $01=OY45087   JBB3313, 910708, PDCM: LABEL NAME CORRECTIONS   */
                                    4966             +*/*    $02=OY46552   JBB3313, 910905, PDCR: RESERVED POINTER         */
                                    4967             +*/*    $L3=TSOOP,    HBB4410, 870916, PDBT: TSO OPERATOR             */
                                    4968             +*/*    $03=OW15497   HBB5510, 960222, PDED: Original console id      */
                                    4969             +*/*    $L4=CLONE7HD, HBB5520, 940310, PDHD: SYSCLONE SUPPORT         */
                                    4970             +*/*    $P1=PN70756,  HBB5520, 940615, PDZH: UPDATE DSECT NAME        */
                                    4971             +*/*    $P2=PQC0109,  HBB6603, 950815, PDHD: DEFINE CIBDATAS          */
                                    4972             +*/*                                                                  */
                                    4973             +*/* ****END OF SPECIFICATIONS************************************@01C*/
                                    4974             +*%GOTO CIBL2;   /*
                                    4975             +*
 000000                             4976    01-IEZCI +         DS    0D -     CIBPTR
                                    4977             +
 000000                             4978    01-IEZCI +CIBNEXT  DS    A -      ADDRESS OF NEXT CIB IN QUEUE (ZERO FOR LAST)
 000004                             4979    01-IEZCI +CIBVERB  DS    C -      COMMAND VERB CODE
                                    4980    01-IEZCI +CIBSTART EQU   X'04' -  COMMAND CODE FOR START
                                    4981    01-IEZCI +CIBSTCOM EQU   X'08' -  COMMAND CODE FOR STC COMMUNICATION     @G860P2G
                                    4982    01-IEZCI +CIBMODFY EQU   X'44' -  COMMAND CODE FOR MODIFY
                                    4983    01-IEZCI +CIBSTOP  EQU   X'40' -  COMMAND CODE FOR STOP
                                    4984    01-IEZCI +CIBMOUNT EQU   X'0C' -  COMMAND CODE FOR MOUNT
 000005                             4985    01-IEZCI +CIBLEN   DS    FL1 -    LENGTH IN DOUBLEWORDS OF CIB INCLUDING CIBDATA
 000006                             4986    01-IEZCI +CIBXOFF  DS    H   -    OFFSET TO CIB EXTENSION                    @L1C
 000008                             4987    01-IEZCI +         DS    XL2 -    RESERVED FOR CSCB COMPATIBILITY            @L1C
 00000A                             4988    01-IEZCI +CIBASID  DS    0H -     ADDRESS SPACE ID (OS/VS2)                MDC001
 00000A                             4989    01-IEZCI +CIBTJID  DS    CL2 -    TSO TERMINAL JOB IDENTIFIER (OS/VS1)     MDC001
 00000C                             4990    01-IEZCI +CIBCONID DS    C -      IDENTIFIER OF CONSOLE ISSUING COMMAND
 00000D 03                          4991    01-IEZCI +CIBRSV1  DC    AL1(CIBVRSN)  -  VERSION LEVEL                      @L3C
                                    4992    01-IEZCI +CIBS313  EQU   1        VERSION LEVEL FOR MVS SP3.1.3              @02A
                                    4993    01-IEZCI +CIBS410  EQU   2        VERSION LEVEL FOR MVS SP41.0               @02C
                                    4994    01-IEZCI +CIB15497 EQU   3        VERSION LEVEL WITH OW15497 INSTALLED       @03A
                                    4995    01-IEZCI +CIBVRSN  EQU   CIB15497 VERSION LEVEL                              @03C
 00000E                             4996    01-IEZCI +CIBDATLN DS    H -      LENGTH IN BYTES OF DATA IN CIBDATA
 000010                             4997    01-IEZCI +CIBDATA  DS    CL8 -    DATA FROM COMMAND OPERAND
                                    4998             +*        (LENGTH OF CIBDATA IS A MULTIPLE OF EIGHT BYTES
                                    4999             +*        DEPENDING ON THE VALUE CONTAINED IN CIBLEN)
                                    5000             +*              START -  FOURTH POSITIONAL PARAMETER (PARMVALUE)
                                    5001             +*              MODIFY - RESIDUAL OPERAND IMAGE FOLLOWING COMMA
                                    5002             +*                       TERMINATING FIRST POSITIONAL PARAMETER
                                    5003             +*              STOP -   NONE (CIB GENERATED ONLY TO GIVE CONSOLE ID)
                                    5004             +*              STC COMMUNICATION - KEYWORD AND VALUE OF STC    @G860P2G
                                    5005             +*                                  COMMUNICATION PARAMETER ON  @G860P2G
                                    5006             +*                                  OPERATOR COMMAND            @G860P2G
                                    5007             +*
 000000                00000 00030  5008    01-IEZCI +CIBX     DSECT      -   CIB EXTENSION                              @L3A
                                    5009             +
 000000                             5010    01-IEZCI +CIBXUTOK DS    F    -   POINTER TO UTOKEN                          @L1A
 000004                             5011    01-IEZCI +CIBXAUTH DS    0CL2 -   COMMAND AUTHORITY CODE                     @L1A
 000004                             5012    01-IEZCI +CIBXAUTA DS    B        BYTE ONE                                   @L1A
                                    5013    01-IEZCI +CIBXAUT1 EQU   X'80'    COMMAND HAS SYS AUTHORITY                  @L1A
                                    5014    01-IEZCI +CIBXAUT2 EQU   X'40'    COMMAND HAS I/O AUTHORITY                  @L1A
                                    5015    01-IEZCI +CIBXAUT3 EQU   X'20'    COMMAND HAS CONS AUTHORITY                 @L1A
1MPMAST   (MPMA00) (09:41) (22MAR04) IHAPSAE  - PSA Extension (ESAME)                                                       Page    8
0D-Loc  Object Code    Addr1 Addr2  Stmt Lv Lineno    Source Statement           (Hibal 5, Asmedit 3.3)  HLASM R4.0  2004/03/22 09.41
+_____  ______ ____    _____ _____  ____ __ ______    ______ _________
0                                   5016             +*              X'1F'    RESERVED                                   @L1A
 000005                             5017    01-IEZCI +CIBXAUTB DS    B        BYTE TWO, RESERVED                         @L1A
 000006                             5018    01-IEZCI +CIBXDISP DS    CL1  -   AUTHORITY OF COMMAND                       @L1A
                                    5019    01-IEZCI +CIBXDISA EQU   X'80'    COMMAND HAS MASTER AUTHORITY               @L1A
                                    5020    01-IEZCIC+CIBXDISM EQU   X'40'    COMMAND IS FROM A SECONDARY CONSOLE WITH MASTER
                                                     +                        AUTHORITY                                  @L1A
                                    5021    01-IEZCI +CIBXDISC EQU   X'20'    COMMAND ISSUED FROM AN MCS CONSOLE         @L2A
                                    5022    01-IEZCI +CIBXDISR EQU   X'10'    COMMAND ISSUED BEFORE RACF ACTIVE          @L2A
                                    5023    01-IEZCI +CIBXDISE EQU   X'08'    COMMAND WAS ISSUED BY ARM                  @L4A
                                    5024             +*              X'07'    RESERVED                                   @L4C
 000007                             5025    01-IEZCI +CIBXRSV  DS    CL1      RESERVED                                   @L1A
 000008                             5026    01-IEZCI +CIBXCNNM DS    CL8  -   CONSOLE NAME                               @L3A
 000010                             5027    01-IEZCI +CIBXCART DS    CL8  -   COMMAND & RESPONSE TOKEN                   @L3A
 000018                             5028    01-IEZCI +CIBXCNID DS    F    -   CONSOLE ID                                 @L3A
 00001C                             5029    01-IEZCI +CIBXPTRC DS    F        RESERVED FOR IBM USE                       @02A
 000020                             5030    01-IEZCIC+CIBXOCID DS    F        ORIGINATING CONSOLE ID (USED FOR AUTHORITY
                                                     +                        CHECKING)                                  @03A
 000024                             5031    01-IEZCI +CIBXRSVD DS    CL12     RESERVED                                   @03A
                                    5032    01-IEZCI +CIBXEND  EQU   *    -   END OF THE CIB EXTENSION                   @L3A
                                    5033    01-IEZCI +CIBXLEN  EQU   CIBXEND-CIBX     LENGTH OF THE CIB EXTENSION        @L3A
                                    5034             +* * * * * * * * * * * * * * * * * * * * * * * * * * * * * * * * * * * *
                                    5035             +*
                                    5037      24.     *
 000015                00000 00C88  5038      25.     MPMAST   CSECT
1MPMAST   (MPMA00) (09:41) (22MAR04) IHAPSAE  - PSA Extension (ESAME)                                                       Page    9
0Loc    Object Code    Addr1 Addr2  Stmt Lv Lineno    Source Statement           (Hibal 5, Asmedit 3.3)  HLASM R4.0  2004/03/22 09.41
+___    ______ ____    _____ _____  ____ __ ______    ______ _________
0                                   5041      27.              MACRO
                                    5042      28.     &L       FTGEN &FUNC
                                    5043      29.              WXTRN &FUNC.INIT
                                    5044      30.     &L       DC    A(&FUNC.INIT)
                                    5045      31.              WXTRN &FUNC.TERM
                                    5046      32.              DC    A(&FUNC.TERM)
                                    5047      33.              WXTRN &FUNC.STAT
                                    5048      34.              DC    A(&FUNC.STAT)
                                    5049      35.              WXTRN &FUNC.DUMP
                                    5050      36.              DC    A(&FUNC.DUMP)
                                    5051      37.     &FUNC.PARM DC    A(0)
                                    5052      38.              MEND
1MPMAST   (MPMA00) (09:41) (22MAR04) IHAPSAE  - PSA Extension (ESAME)                                                       Page   10
0Loc    Object Code    Addr1 Addr2  Stmt Lv Lineno    Source Statement           (Hibal 5, Asmedit 3.3)  HLASM R4.0  2004/03/22 09.41
+___    ______ ____    _____ _____  ____ __ ______    ______ _________
0                                   5054      40.              COPY  CBAT
                                    5055             =*******************************************************************
                                    5056             =*                                                                 *
                                    5057             =*      CBAT --  Table of addresses of control blocks for various  *
                                    5058             =*               services and functions.  This is pointed at by    *
                                    5059             =*               every RTCB, so services can find their roots.     *
                                    5060             =*                                                                 *
                                    5061             =*******************************************************************
0000000                00000 00090  5063             =CBAT     RECORD    BEGIN
 000000 C3C2C1E3                    5071  1          =           DC    CL4'CBAT'     Control block id
                                    5072  1          =*
                                    5073  1          =* Task Services info
                                    5074  1          =*
 000004                             5075  1          =CBATTASK   DS    A             Address of the task services CT
 000008                             5076  1          =           DS    4A            available
                                    5077  1          =*
                                    5078  1          =* Lock managment info
                                    5079  1          =*
 000018                             5080  1          =CBATLOCK   DS    A             Address of the lock manager CT
 00001C                             5081  1          =           DS    4A            available
                                    5082  1          =*
                                    5083  1          =* Message channel management info
                                    5084  1          =*
 00002C                             5085  1          =CBATMSGS   DS    A             Address of message manager CT
 000030                             5086  1          =           DS    4A            available
                                    5087  1          =*
                                    5088  1          =* Memory management info
                                    5089  1          =*
 000040                             5090  1          =CBATMEM    DS    A             Address of memory CT
 000044                             5091  1          =           DS    4A            available
                                    5092  1          =*
                                    5093  1          =* I/O service management info
                                    5094  1          =*
 000054                             5095  1          =CBATIOCT   DS    A             Address of I/O service CT
 000058                             5096  1          =           DS    4A            available
                                    5097  1          =*
                                    5098  1          =* Parameter initialization parameters
                                    5099  1          =*
 000068                             5100  1          =CBATPARM   DS    A             Address of parameter CT
 00006C                             5101  1          =           DS    4A            available
                                    5102  1          =*
                                    5103  1          =* Termination and Console command info
                                    5104  1          =*
 00007C                             5105  1          =CBATTMCB   DS    A             Address of the termination CT
 000080                             5106  1          =           DS    4A            available
 000090                00090 00090  5107             =         END   ,
1MPMAST   (MPMA00) (09:41) (22MAR04) IHAPSAE  - PSA Extension (ESAME)                                                       Page   11
0Loc    Object Code    Addr1 Addr2  Stmt Lv Lineno    Source Statement           (Hibal 5, Asmedit 3.3)  HLASM R4.0  2004/03/22 09.41
+___    ______ ____    _____ _____  ____ __ ______    ______ _________
0                                   5117      42.              COPY  RTCB
                                    5118             =*******************************************************************
                                    5119             =*                                                                 *
                                    5120             =*      RTCB --  Information about each functional task.           *
                                    5121             =*                                                                 *
                                    5122             =*******************************************************************
0000000                00000 000B0  5124             =RTCB     RECORD    BEGIN
 000000 D9E3C3C2                    5132  1          =           DC    CL4'RTCB'     Control block id
                                    5133  1          =*
                                    5134  1          =* Global information
                                    5135  1          =*
 000004                             5136  1          =RTCBCBAT   DS    A             Address of the CBAT
                                    5137  1          =*
                                    5138  1          =* Task managment info
                                    5139  1          =*
 000008                             5140  1          =RTCBNEXT   DS    A             Chain of all RTCBs in the system
 00000C                             5141  1          =RTCBNAME   DS    CL8           Name of this task
 000014                             5142  1          =RTCBTCB    DS    A             Address of the MVS TCB for this task
 000018                             5143  1          =RTCBSTK    DS    A             Address of the stack for this task
 00001C                             5144  1          =RTCBMSV    DS    A             Address of MVS save area
 000020                             5145  1          =RTCBTECB   DS    A             End of task ECB
 000024                             5146  1          =RTCBESTA   DS    A             ESTAE data block
 000028                             5147  1          =           DS    2A            available
                                    5148  1          =*
                                    5149  1          =* Lock managment info
                                    5150  1          =*
 000030                             5151  1          =RTCBLKWT   DS    A             Address of the lock we're waiting for
 000034                             5152  1          =           DS    4A            available
                                    5153  1          =*
                                    5154  1          =* Message channel management info
                                    5155  1          =*
 000044                             5156  1          =RTCBMCBP   DS    A             Chain of xCCBs owned by this task
 000048                             5157  1          =           DS    4A            available
                                    5158  1          =*
                                    5159  1          =* Timer management info
                                    5160  1          =*
 000058                             5161  1          =RTCBTIMR   DS    D             Current logical timer value
 000060                             5162  1          =RTCBCPU    DS    D             Total CPU time for the task
 000068                             5163  1          =RTCBCPT    DS    D             Current cpu timer value
 000070                             5164  1          =           DS    4A            available
                                    5165  1          =*
                                    5166  1          =* Trace managment info
                                    5167  1          =*
 000080                             5168  1          =RTCBTRTC   DS    A             Loc of current (avail) trace entry
 000084                             5169  1          =RTCBTRTF   DS    A             Loc of start of trace table
 000088                             5170  1          =RTCBTRTL   DS    A             Loc of end of trace table (+1)
 00008C                             5171  1          =           DS    4A            available
                                    5172  1          =*
                                    5173  1          =* Memory management info
                                    5174  1          =*
 00009C                             5175  1          =RTCBMEM    DS    A             Addr of memory CT
 0000A0                             5176  1          =           DS    2A            available
                                    5177  1          =*
                                    5178  1          =* Memory management info
                                    5179  1          =*
1MPMAST   (MPMA00) (09:41) (22MAR04) IHAPSAE  - PSA Extension (ESAME)                                                       Page   12
0Loc    Object Code    Addr1 Addr2  Stmt Lv Lineno    Source Statement           (Hibal 5, Asmedit 3.3)  HLASM R4.0  2004/03/22 09.41
+___    ______ ____    _____ _____  ____ __ ______    ______ _________
00000A8                             5180  1          =RTCBIOT    DS    A             Addr of I/O Services table
                                    5181  1          =*
                                    5182  1          =* Hiperspace management info
                                    5183  1          =*
 0000AC                             5184  1          =RTCBBUFR   DS    A             MVPG and HSPSERV Buffer for this TCB
 0000B0                000B0 000B0  5185             =         END   ,
1MPMAST   (MPMA00) (09:41) (22MAR04) IHAPSAE  - PSA Extension (ESAME)                                                       Page   13
0Loc    Object Code    Addr1 Addr2  Stmt Lv Lineno    Source Statement           (Hibal 5, Asmedit 3.3)  HLASM R4.0  2004/03/22 09.41
+___    ______ ____    _____ _____  ____ __ ______    ______ _________
0                                   5195      44.              COPY  FUNCPARM
                                    5196             =*******************************************************************
                                    5197             =*                                                                 *
                                    5198             =*    FUNCPARM  -- Parameter areas dealing with functions          *
                                    5199             =*                                                                 *
                                    5200             =*******************************************************************
-                                   5202             =*
                                    5203             =* This is the parm passed on function initialization.
                                    5204             =*
0000000                00000 00004  5206             =@FUNCPRM RECORD BEGIN
 000000                             5214  1          =@FUNCDTA   DS    A                       Parameter
 000004                00004 00004  5215             =         END   ,
-                                   5225             =*
                                    5226             =* This is the parm passed to the DUMP entry of services and functions
                                    5227             =*
0000000                00000 00008  5229             =@DUMPPRM RECORD BEGIN
 000000                             5237  1          =@DUMPDTA   DS    A             Function data
 000004                             5238  1          =@DUMPSCB   DS    A             Address of the Seg control block
 000008                00008 00008  5239             =         END   ,
-                                   5249             =*
                                    5250             =* This is the parm passed to the TERM entry of functions
                                    5251             =*
0000000                00000 00004  5253             =@TERMPRM RECORD BEGIN
 000000                             5261  1          =@TERMDTA   DS    A             Function data
 000004                00004 00004  5262             =         END   ,
1MPMAST   (MPMA00) (09:41) (22MAR04) IHAPSAE  - PSA Extension (ESAME)                                                       Page   14
0Loc    Object Code    Addr1 Addr2  Stmt Lv Lineno    Source Statement           (Hibal 5, Asmedit 3.3)  HLASM R4.0  2004/03/22 09.41
+___    ______ ____    _____ _____  ____ __ ______    ______ _________
0                                   5272      46.              COPY  PARMPARM
                                    5273             =*********************************************************************
                                    5274             =*                                                                   *
                                    5275             =*          Parameters to obtain initialization parameters           *
                                    5276             =*                                                                   *
                                    5277             =*********************************************************************
0000000                00000 00010  5279             =@PARMDO  RECORD BEGIN
 000000                             5287  1          =@PARILOC   DS    A                       Input location
 000004                             5288  1          =@PARILEN   DS    A                       | length
 000008                             5289  1          =@PAROLOC   DS    A                       Output location
 00000C                             5290  1          =@PAROLEN   DS    A                       | length
 000010                00010 00010  5291             =         END   ,
0000000                00000 00004  5301             =PARMIN   RECORD BEGIN
 000000 00                          5309  1          =PARMTYPE   FLAG  ,
 PARMTYPE.PARMFSTR 00 EQ            5313  1          =           FLAG  (PARMFSTR,0,EQ)         Return a string
 PARMTYPE.PARMFINT 04 EQ            5323  1          =           FLAG  (PARMFINT,4,EQ)         Return an integer
 PARMTYPE.PARMFYN  08 EQ            5333  1          =           FLAG  (PARMFYN,8,EQ)          Return Yea or Nay
 PARMTYPE.PARMFFLT 0C EQ            5343  1          =           FLAG  (PARMFFLT,12,EQ)        Return a floating point
 000001                             5353  1          =           DS    3X                      - Available -
 000004                             5354  1          =PARMKEYS   DS    0A                      Start of 8 byte keys
 000004                00004 00004  5355             =         END   ,
1MPMAST   (MPMA00) (09:41) (22MAR04) IHAPSAE  - PSA Extension (ESAME)                                                       Page   15
0Loc    Object Code    Addr1 Addr2  Stmt Lv Lineno    Source Statement           (Hibal 5, Asmedit 3.3)  HLASM R4.0  2004/03/22 09.41
+___    ______ ____    _____ _____  ____ __ ______    ______ _________
0                                   5365      48.              COPY  POOLPARM
                                    5366             =*******************************************************************
                                    5367             =*                                                                 *
                                    5368             =*       POOLPARM -- OS Memory routine calling parms               *
                                    5369             =*                                                                 *
                                    5370             =*******************************************************************
0000000                00000 0000C  5372             =@MEMORY  RECORD BEGIN
 000000                             5380  1          =@MEMDATA   DS    X                       Reserved
 000001                             5381  1          =@MEMKEY    DS    X                       Storage key
                                    5382  1          =
 000002 00                          5383  1          =@MEMPOOL   FLAG   ,                      Type of memory request
 @MEMPOOL.MEMTSYS  80 ONES          5387  1          =           FLAG  (MEMTSYS,X'80')         System pool
 @MEMPOOL.MEMTA16M 10 ONES          5396  1          =           FLAG  (MEMTA16M,X'10')        Above 16 Meg line
 @MEMPOOL.MEMTGLOB 08 ONES          5405  1          =           FLAG  (MEMTGLOB,X'08')        Global subpool
 @MEMPOOL.MEMTFIX  04 ONES          5414  1          =           FLAG  (MEMTFIX,X'04')         Fixed
 @MEMPOOL.MEMTPAGE 02 ONES          5423  1          =           FLAG  (MEMTPAGE,X'02')        Page boundary
 @MEMPOOL.MEMTDEF  01 ONES          5432  1          =           FLAG  (MEMTDEF,X'01')         Default subpool
                                    5441  1          =
 000003 00                          5442  1          =@MEMCODE   FLAG  ,                       MVS codes
 @MEMCODE.MEMCANYR 40 ONES          5446  1          =           FLAG  (MEMCANYR,X'40')        Frame may be above 16m real
 @MEMCODE.MEMCANYV 30 ONES          5455  1          =           FLAG  (MEMCANYV,X'30')        Virtual may be above 16m
 @MEMCODE.MEMCBLOV 10 ONES          5464  1          =           FLAG  (MEMCBLOV,X'10')        Virtual must be below 16m
 @MEMCODE.MEMCRESV 30 OFF           5473  1          =           FLAG  (MEMCRESV,X'30',OFF)    Location determined by rmode
 @MEMCODE.MEMCVAR  08 ONES          5483  1          =           FLAG  (MEMCVAR,X'08')         Variable type request
 @MEMCODE.MEMCPGB  04 ONES          5492  1          =           FLAG  (MEMCPGB,X'04')         Page boundary alignment
 @MEMCODE.MEMCUNC  02 ONES          5501  1          =           FLAG  (MEMCUNC,X'02')         Unconditional type request
 @MEMCODE.MEMCFREE 01 ONES          5510  1          =           FLAG  (MEMCFREE,X'01')        Freemain request
                                    5519  1          =
 000004                             5520  1          =@MEMLEN    DS    A                       Length of area
 000008                             5521  1          =@MEMLOC    DS    A                       Location of area
 00000C                0000C 0000C  5522             =         END   ,
-
                                    5532      50.              COPY  CPTPARM
                                    5533             =*******************************************************************
                                    5534             =*                                                                 *
                                    5535             =*           CPTPARM -- CPU Timer calling parms                    *
                                    5536             =*                                                                 *
                                    5537             =*******************************************************************
0000000                00000 00010  5539             =@CPTIME  RECORD BEGIN
                                    5547  1          =
 000000                             5548  1          =@CPTTOT    DS    D                       Total CPU time used by task
 000008                             5549  1          =@CPTINT    DS    D                       CPU time used since last call
 000010                00010 00010  5550             =         END   ,
1MPMAST   (MPMA00) (09:41) (22MAR04) IHAPSAE  - PSA Extension (ESAME)                                                       Page   16
0Loc    Object Code    Addr1 Addr2  Stmt Lv Lineno    Source Statement           (Hibal 5, Asmedit 3.3)  HLASM R4.0  2004/03/22 09.41
+___    ______ ____    _____ _____  ____ __ ______    ______ _________
0                                   5560      52.              COPY  DSALPARM
                                    5561             =*******************************************************************
                                    5562             =*                                                                 *
                                    5563             =*    @DSDALLO - Parameters for dynamic allocation routine         *
                                    5564             =*                                                                 *
                                    5565             =*******************************************************************
0000000                00000 00004  5567             =@DSDALLO RECORD BEGIN
 000000                             5575  1          =@DSDPARM   DS    A                       Pointer to @DSALLO parm area
 000004                00004 00004  5576             =         END   ,
-
                                    5586             =*******************************************************************
                                    5587             =*                                                                 *
                                    5588             =*    @DSALLO  - Data set allocation parameters                    *
                                    5589             =*                                                                 *
                                    5590             =*******************************************************************
0000000                00000 00060  5592             =@DSALLO  RECORD BEGIN
 000000                             5600  1          =@DSDSID    DS    A                       Device id
 000004                             5601  1          =@DSDSN     DS    CL44                    Data set name
 000030                             5602  1          =@DSMEM     DS    CL8                     Memeber name or GDG
 000038                             5603  1          =@DSDDN     DS    CL8                     DD name
 000040                             5604  1          =@DSVOL     DS    CL6                     Volume id
 000046                             5605  1          =@DSRTN     DS    H                       Return code from SVC 99
 000048                             5606  1          =@DSERR     DS    H                       Error code from SVC 99
 00004A                             5607  1          =@DSRSN     DS    H                       Reason code from SVC 99
                                    5608  1          =
 00004C 00                          5609  1          =@DSFLAG    FLAG  ,
 @DSFLAG.@DSSHR    80 ONES          5613  1          =           FLAG  @DSSHR                  Data set enqueued share
 @DSFLAG.@DSNEW    40 ONES          5618  1          =           FLAG  @DSNEW                  Data set is new
 @DSFLAG.@DSNOCAT  20 ONES          5623  1          =           FLAG  @DSNOCAT                Do not catalog new data set
 @DSFLAG.@DSGDG    10 ONES          5628  1          =           FLAG  @DSGDG                  Data set needs PROTO.DSCB
                                    5633  1          =*
                                    5634  1          =*  Disk Allocation Information - used only if new data set
                                    5635  1          =*
 00004D 00                          5636  1          =@DSALCF    FLAG  ,                       Allocation flags
 @DSALCF.@DSACYL   80 ONES          5640  1          =           FLAG  @DSACYL                 Cylinder allocation
 @DSALCF.@DSABLK   40 ONES          5645  1          =           FLAG  @DSABLK                 Average block allocation
 @DSALCF.@DSACNTG  20 ONES          5650  1          =           FLAG  @DSACNTG                Contiguous allocation
 @DSALCF.@DSARLSE  10 ONES          5655  1          =           FLAG  @DSARLSE                Release unused space at close
 @DSALCF.@DSARND   08 ONES          5660  1          =           FLAG  @DSARND                 Round up to cylinders
                                    5665  1          =
 000050                             5666  1          =@DSABL     DS    A                       Average block length
 000054                             5667  1          =@DSPTQ     DS    A                       Primary allocation quantity
 000058                             5668  1          =@DSSTQ     DS    A                       Secondary allocation quantity
 00005C                             5669  1          =@DSDBQ     DS    A                       Directory blocks
 000060                00060 00060  5670             =         END   ,
1MPMAST   (MPMA00) (09:41) (22MAR04) IHAPSAE  - PSA Extension (ESAME)                                                       Page   17
0Loc    Object Code    Addr1 Addr2  Stmt Lv Lineno    Source Statement           (Hibal 5, Asmedit 3.3)  HLASM R4.0  2004/03/22 09.41
+___    ______ ____    _____ _____  ____ __ ______    ______ _________
0                                   5680      54.              COPY  JSALPARM
                                    5681             =*******************************************************************
                                    5682             =*                                                                 *
                                    5683             =*    @JSDALLO - Parameters for JES dynamic allocation routine     *
                                    5684             =*                                                                 *
                                    5685             =*******************************************************************
0000000                00000 00004  5687             =@JSDALLO RECORD BEGIN
 000000                             5695  1          =@JSDPARM   DS    A                       Pointer to @JSALLO parm area
 000004                00004 00004  5696             =         END   ,
-
                                    5706             =*******************************************************************
                                    5707             =*                                                                 *
                                    5708             =*    JSALPARM - JES device allocation parameters                  *
                                    5709             =*                                                                 *
                                    5710             =*******************************************************************
0000000                00000 00036  5712             =@JSALLO  RECORD BEGIN
 000000                             5720  1          =@JSDDNM    DS    CL8                     DD name
 000008                             5721  1          =@JSRTN     DS    H                       Return code from SVC 99
 00000A                             5722  1          =@JSERR     DS    H                       Error code from SVC 99
 00000C                             5723  1          =@JSRSN     DS    H                       Reason code from SVC 99
                                    5724  1          =
 00000E 00                          5725  1          =@JSFLAG    FLAG  ,
 @JSFLAG.@JSINTR   80 ONES          5729  1          =           FLAG  @JSINTR                 Internal Reader
 @JSFLAG.@JSHOLD   40 ONES          5734  1          =           FLAG  @JSHOLD                 Output hold
                                    5739  1          =*
                                    5740  1          =*  The following are ignored for Internal Reader requests
                                    5741  1          =*
 00000F                             5742  1          =           DS    X                       Reserved
 000010                             5743  1          =@JSCLAS    DS    C                       Sysout class
 000011                             5744  1          =@JSCOPY    DS    X                       Copies
 000012                             5745  1          =@JSFORM    DS    CL4                     Forms
 000016                             5746  1          =@JSCHAR    DS    4CL4                    Chars
 000026                             5747  1          =@JSFLAS    DS    CL4                     Forms flash
 00002A                             5748  1          =@JSFCB     DS    CL4                     Fcb
 00002E                             5749  1          =@JSDEST    DS    CL8                     Destination
 000036                00036 00036  5750             =         END   ,
1MPMAST   (MPMA00) (09:41) (22MAR04) IHAPSAE  - PSA Extension (ESAME)                                                       Page   18
0Loc    Object Code    Addr1 Addr2  Stmt Lv Lineno    Source Statement           (Hibal 5, Asmedit 3.3)  HLASM R4.0  2004/03/22 09.41
+___    ______ ____    _____ _____  ____ __ ______    ______ _________
0                                   5760      56.              COPY  SEGPARM
 000000                00000 0000D  5761             =@SEG     RECORD BEGIN        Used for SEG,T,B,TB,EOR,EOB
 000000                             5769  1          =@SEGCB     DS    A             Address of the seg control block
 000004                             5770  1          =@SEGLOC    DS    A             Location of the text segment to be added
 000008                             5771  1          =@SEGLEN    DS    A             Length of the text segment to be added
 00000C 00                          5772  1          =@SEGTYPE   FLAG  ,
 @SEGTYPE.@SEGB    80 ONES          5776  1          =           FLAG  @SEGB         Add a blank after the segment
 @SEGTYPE.@SEGT    40 ONES          5781  1          =           FLAG  @SEGT         Trim trailing blanks from the segment
 @SEGTYPE.@SEGTB   C0 NZ            5786  1          =           FLAG  (@SEGTB,@SEGB+@SEGT)    Trim trailing, and add 1 blank
 @SEGTYPE.@SEGMK   20 ONES          5797  1          =           FLAG  @SEGMK        Mark the buffer after this segment
 @SEGTYPE.@SEGEOR  10 ONES          5802  1          =           FLAG  @SEGEOR       This is the end of a logical record
 @SEGTYPE.@SEGEOB  08 ONES          5807  1          =           FLAG  @SEGEOB       This is the last segment for the buffer
 00000D                0000D 0000D  5812             =         END   ,
-000000                00000 0000E  5822             =@SEGINIT RECORD BEGIN
 000000                             5830  1          =@SEGICB    DS    A
 000004                             5831  1          =@SEGIRTN   DS    A             Address of the processing routine
 000008                             5832  1          =@SEGILOC   DS    A             Location of the buffer
 00000C                             5833  1          =@SEGILEN   DS    Y             Length of the buffer
 00000E                0000E 0000E  5834             =         END   ,
-000000                00000 00008  5844             =@SEGCOL  RECORD BEGIN
 000000                             5852  1          =@SEGCCB    DS    A             Address of the control block
 000004                             5853  1          =@SEGCNUM   DS    A             Column number to go to
 000008                00008 00008  5854             =         END   ,
-000000                00000 00018  5864             =@SEGCORE RECORD BEGIN
 000000                             5872  1          =@SEGXCB    DS    A             Control block address
 000004                             5873  1          =@SEGXLOC   DS    A             Location of the core (MVS VA)
 000008                             5874  1          =@SEGXLEN   DS    A             Length of the core to dump
 00000C                             5875  1          =@SEGXSPA   DS    X             # blank lines between each dump line
 00000D 00                          5876  1          =@SEGXFLG   FLAG  ,
 @SEGXFLG.@SEGXF16 80 ONES          5880  1          =           FLAG  @SEGXF16      16 Bytes per line  (32 bytes per line)
 @SEGXFLG.@SEGXFAL 40 ONES          5885  1          =           FLAG  @SEGXFAL      Alpha (EBCDIC)     (no EBCDIC)
 @SEGXFLG.@SEGXFOF 20 ONES          5890  1          =           FLAG  @SEGXFOF      Print offsets      (Print Addresses)
 @SEGXFLG.@SEGXFID 10 ONES          5895  1          =           FLAG  @SEGXFID      Print the id       (Dont print it)
 @SEGXFLG.@SEGXFRL 08 ONES          5900  1          =           FLAG  @SEGXFRL      Print repeat lines (Print summary)
 000010                             5905  1          =@SEGXOFF   DS    A             Address to be 0 offset
 000014                             5906  1          =@SEGXID    DS    CL4           Control block id
 000018                00018 00018  5907             =         END   ,
-000000                00000 00004  5917             =@SEGRTN  RECORD BEGIN                  Parameters to pass to proc rtn
 000000                             5925  1          =@SEGRCB    DS    A                       Address of control block
 000004                00004 00004  5926             =         END   ,
-000000                00000 00008  5936             =@SEGSTK  RECORD BEGIN
 000000                             5944  1          =@SEGSCB    DS    A                       Address of seg control block
 000004                             5945  1          =@SEGSST    DS    A                       Start of stack (from RTCB)
 000008                00008 00008  5946             =         END   ,
1MPMAST   (MPMA00) (09:41) (22MAR04) IHAPSAE  - PSA Extension (ESAME)                                                       Page   19
0Loc    Object Code    Addr1 Addr2  Stmt Lv Lineno    Source Statement           (Hibal 5, Asmedit 3.3)  HLASM R4.0  2004/03/22 09.41
+___    ______ ____    _____ _____  ____ __ ______    ______ _________
0                                   5956      58.              COPY  SEGCBD
 000000                00000 00028  5957             =SEGCBD   RECORD BEGIN
                                    5965  1          =*
                                    5966  1          =* LAYOUT OF THE SEG CONTROL BLOCK
                                    5967  1          =*
 000000                             5968  1          =SEGADD     DS     A                 LOCATION OF BUFFER
 000004                             5969  1          =SEGWRT     DS     A                 LOCATION OF PROC ROUTINE
 000008                             5970  1          =SEGBLEN    DS     Y                 LENGTH OF BUFFER
 00000A                             5971  1          =SEGCNT     DS     H                 COUNT OF CHARS IN BUFFER
 00000C                             5972  1          =SEGMCNT    DS     H                 COUNT AT LAST MARK
 00000E                             5973  1          =SEGRCNT    DS     H                 COUNT AT LAST RECORD
 000010 00                          5974  1          =SEGFLG1    FLAG   ,                 State flags for processing rtn
 SEGFLG1.SEGFINIT  00 EQ            5978  1          =           FLAG   (SEGFINIT,0,EQ)   INITIALIZATION CALL
 SEGFLG1.SEGFEOR   01 EQ            5988  1          =           FLAG   (SEGFEOR,1,EQ)    SEGEndOfRecord CALL
 SEGFLG1.SEGFEOB   02 EQ            5998  1          =           FLAG   (SEGFEOB,2,EQ)    SEGEndOfBuffer CALL
 SEGFLG1.SEGFOVER  03 EQ            6008  1          =           FLAG   (SEGFOVER,3,EQ)   BUFFER OVERFLOW
 000011                             6018  1          =SEGFLG2    DS     X                 USER FLAGS
 000014                             6019  1          =SEGUSER    DS     5A                USER WORK
 000028                00028 00028  6020             =         END
1MPMAST   (MPMA00) (09:41) (22MAR04) IHAPSAE  - PSA Extension (ESAME)                                                       Page   20
0Loc    Object Code    Addr1 Addr2  Stmt Lv Lineno    Source Statement           (Hibal 5, Asmedit 3.3)  HLASM R4.0  2004/03/22 09.41
+___    ______ ____    _____ _____  ____ __ ______    ______ _________
0                                   6030      60.              COPY  ESTAPARM
                                    6031             =*******************************************************************
                                    6032             =*                                                                 *
                                    6033             =*    ESTAPARM - ESTAE enable parameter area                       *
                                    6034             =*                                                                 *
                                    6035             =*******************************************************************
0000000                00000 00044  6037             =@ESTAE   RECORD BEGIN
 000000                             6045  1          =@ESTRTRY   DS     A                      ESTAE RETRY ADDRESS
 000004                             6046  1          =@ESTREGS   DS    16A                     REGISTERS FOR RETRY EXIT
 000044                00044 00044  6047             =         END   ,
-
                                    6057             =*******************************************************************
                                    6058             =*                                                                 *
                                    6059             =*    ESTAINFO - ESTAE retry routine error information             *
                                    6060             =*                                                                 *
                                    6061             =*******************************************************************
0000000                00000 00058  6063             =ESTAINFO RECORD BEGIN
 000000                             6071  1          =EDEABND    DS    A                       ABEND CODE
 000004                             6072  1          =EDERSN     DS    A                       REASON CODE
 000008                             6073  1          =EDEILC     DS    H                       ILC
 00000A                             6074  1          =EDEINTC    DS    H                       INT CODE
 00000C                             6075  1          =EDEPEA     DS    A                       PAGE EXCEPTION ADDRESS
                                    6076  1          =EDEPCHK    EQU   EDEILC,*-EDEILC,C'X'    ILC, INT CODE
 000010                             6077  1          =EDEPSW     DS    XL8                     ERROR PSW
 000018                             6078  1          =EDEREGS    DS    16A                     ERROR REGS
 000058                00058 00058  6079             =         END   ,
-
                                    6089      62.              COPY  TASKPARM
                                    6090             =*******************************************************************
                                    6091             =*                                                                 *
                                    6092             =*      TASKPARM -- Taskserv intitialization parm                  *
                                    6093             =*                                                                 *
                                    6094             =*******************************************************************
0000000                00000 00004  6096             =@TASKINI RECORD BEGIN
 000000                             6104  1          =@TASKIST   DS    A                       Master stack address
 000004                00004 00004  6105             =         END   ,
1MPMAST   (MPMA00) (09:41) (22MAR04) IHAPSAE  - PSA Extension (ESAME)                                                       Page   21
0Loc    Object Code    Addr1 Addr2  Stmt Lv Lineno    Source Statement           (Hibal 5, Asmedit 3.3)  HLASM R4.0  2004/03/22 09.41
+___    ______ ____    _____ _____  ____ __ ______    ______ _________
0                                   6115      64.              COPY  MEMPARM
                                    6116             =*******************************************************************
                                    6117             =*                                                                 *
                                    6118             =*            Memory service initialization parameters             *
                                    6119             =*                                                                 *
                                    6120             =*******************************************************************
0000000                00000 00002  6122             =@MEMINIT RECORD BEGIN                           MEMORY INIT RECORD
 000000 00                          6130  1          =@MIFLAG    FLAG  ,                                Specification flags
 @MIFLAG.MIGLOBAL  80 ONES          6134  1          =           FLAG  MIGLOBAL                         | INIT GLOBAL POOL
                                    6139  1          =*-----------------------------------------------
                                    6140  1          =*  From here on need not be specified on call
                                    6141  1          =*-----------------------------------------------
 000001 00                          6142  1          =@MIWFLAG   FLAG  ,                                Work flags
                                    6146  1          =*   Pool type is determined by the bit values in the pool index
                                    6147  1          =*  offset
 @MIWFLAG.MIWPAGE  04 ONES          6148  1          =           FLAG  (MIWPAGE,X'04')                  | page boundary
 @MIWFLAG.MIWFIX   08 ONES          6157  1          =           FLAG  (MIWFIX,X'08')                   | fixed memory
 @MIWFLAG.MIWA16M  10 ONES          6166  1          =           FLAG  (MIWA16M,X'10')                  | above 16M
 000002                00002 00002  6175             =         END   ,                                OF MEMORY INIT RECORD
-
                                    6185             =*******************************************************************
                                    6186             =*                                                                 *
                                    6187             =*              Memory service allocation parameters               *
                                    6188             =*                                                                 *
                                    6189             =*******************************************************************
0000000                00000 0000A  6191             =@MEMGET  RECORD BEGIN
 000000                             6199  1          =@MGLL      DS    D                                Location/Length
 000008                00008 00000  6200  1          =           ORG   @MGLL
 000000                             6201  1          =@MGLOC     DS    A                                Location (return)
 000004                             6202  1          =@MGLEN     DS    A                                Length of request
 000008                00008 00008  6203  1          =           ORG   ,
 000008 0000                        6204  1          =@MGTYPE    DC    H'0'                             Request type - offset
                                    6205  1          =*   TYPES A16M, FIX, & PAG form an index into a control table for
                                    6206  1          =* a specified pool.  ie. a pool above the 16M line, unfixed and
                                    6207  1          =* double word boundary has an @MGTYPE value of X'10' = 16.
 00000A                0000A 00009  6208  1          =           ORG   @MGTYPE+1
 000009 00                          6209  1          =@MGFTYPE   FLAG  ,
 @MGFTYPE.MGA16M   10 ONES          6213  1          =           FLAG  (MGA16M,X'10')                   Above 16M line
 @MGFTYPE.MGFIX    08 ONES          6222  1          =           FLAG  (MGFIX,X'08')                    Fixed pool
 @MGFTYPE.MGPAG    04 ONES          6231  1          =           FLAG  (MGPAG,X'04')                    Page boundary
 @MGFTYPE.MGGLOB   02 ONES          6240  1          =           FLAG  (MGGLOB,X'02')                   Global pool
 @MGFTYPE.MGBEST   01 ONES          6249  1          =           FLAG  (MGBEST,X'01')                   Best fit
 00000A                0000A 0000A  6258  1          =           ORG   ,
 00000A                0000A 0000A  6259             =         END   ,
1MPMAST   (MPMA00) (09:41) (22MAR04) IHAPSAE  - PSA Extension (ESAME)                                                       Page   22
0Loc    Object Code    Addr1 Addr2  Stmt Lv Lineno    Source Statement           (Hibal 5, Asmedit 3.3)  HLASM R4.0  2004/03/22 09.41
+___    ______ ____    _____ _____  ____ __ ______    ______ _________
0                                   6269             =*******************************************************************
                                    6270             =*                                                                 *
                                    6271             =*               Memory service release parameters                 *
                                    6272             =*                                                                 *
                                    6273             =*******************************************************************
0000000                00000 0000A  6275             =@MEMFREE RECORD BEGIN                           PARAMETERS
 000000                             6283  1          =@MFLL      DS    D                                Location/Length
 000008                00008 00000  6284  1          =           ORG   @MFLL
 000000                             6285  1          =@MFLOC     DS    A                                Location
 000004                             6286  1          =@MFLEN     DS    A                                Length
 000008                00008 00008  6287  1          =           ORG   ,
 000008 0000                        6288  1          =@MFTYPE    DC    H'0'                             Request type - offset
 00000A                0000A 00009  6289  1          =           ORG   @MFTYPE+1
 000009 00                          6290  1          =@MFFTYPE   FLAG  ,
                                    6294  1          =*   TYPES A16M, FIX, & PAG form an index into a control table for
                                    6295  1          =* a specified pool.  ie. a pool above the 16M line, unfixed and
                                    6296  1          =* double word boundary has an @MGTYPE value of X'10' = 16.
 @MFFTYPE.MFA16M   10 ONES          6297  1          =           FLAG  (MFA16M,X'10')                   Above 16M line
 @MFFTYPE.MFFIX    08 ONES          6306  1          =           FLAG  (MFFIX,X'08')                    Fixed pool
 @MFFTYPE.MFPAG    04 ONES          6315  1          =           FLAG  (MFPAG,X'04')                    Page boundary
 @MFFTYPE.MFGLOB   02 ONES          6324  1          =           FLAG  (MFGLOB,X'02')                   Global pool
 00000A                0000A 0000A  6333  1          =           ORG   ,
 00000A                0000A 0000A  6334             =         END   ,
1MPMAST   (MPMA00) (09:41) (22MAR04) IHAPSAE  - PSA Extension (ESAME)                                                       Page   23
0Loc    Object Code    Addr1 Addr2  Stmt Lv Lineno    Source Statement           (Hibal 5, Asmedit 3.3)  HLASM R4.0  2004/03/22 09.41
+___    ______ ____    _____ _____  ____ __ ______    ______ _________
0                                   6344      66.     *******************************************************************
                                    6345      67.     *                                                                 *
                                    6346      68.     *        Function Table Entry                                     *
                                    6347      69.     *                                                                 *
                                    6348      70.     *******************************************************************
-000000                00000 00014  6350      72.     FUNCTAB  RECORD BEGIN
 000000                             6358  1   73.     FTINIT     DS    A                       Initialization Entry
 000004                             6359  1   74.     FTTERM     DS    A                       Termination Entry
 000008                             6360  1   75.     FTSTAT     DS    A                       Statistics Entry
 00000C                             6361  1   76.     FTDUMP     DS    A                       Dump Entry
 000010                             6362  1   77.     FTPARM     DS    A                       User Parameter
 000014                00014 00014  6363      78.              END   ,
1MPMAST   (MPMA00) (09:41) (22MAR04) IHAPSAE  - PSA Extension (ESAME)                                                       Page   24
0Loc    Object Code    Addr1 Addr2  Stmt Lv Lineno    Source Statement           (Hibal 5, Asmedit 3.3)  HLASM R4.0  2004/03/22 09.41
+___    ______ ____    _____ _____  ____ __ ______    ______ _________
0                                   6373      80.              COPY  TMCB
                                    6374             =*******************************************************************
                                    6375             =*                                                                 *
                                    6376             =*      TMCB -- Termination Control Block.  This contains          *
                                    6377             =*              information needed for termination.                *
                                    6378             =*                                                                 *
                                    6379             =*******************************************************************
0000000                00000 0007C  6381             =TMCB     RECORD BEGIN
 000000 E3D4C3C2                    6389  1          =           DC    C'TMCB'       Control block id
                                    6390  1          =
 000004 00                          6391  1          =TMCBFLG    FLAG  ,             Termination flags
 TMCBFLG.TMFDUMP   80 ONES          6395  1          =           FLAG  TMFDUMP         Do a formatted dump
 TMCBFLG.TMFSNAP   40 ONES          6400  1          =           FLAG  TMFSNAP         Do a dump of MVS memory
 TMCBFLG.TMFABEND  20 ONES          6405  1          =           FLAG  TMFABEND        Abnormal termination
 000005 00                          6410  1          =TMCBPFLG   FLAG  ,             Termination progress flags (interlocked)
 TMCBPFLG.TMFGDONE 80 ONES          6414  1          =           FLAG  TMFGDONE        Guest machine processing done
                                    6419  1          =
 000006                             6420  1          =TMCBCODE   DS    H             Original ABEND code
 000008                             6421  1          =TMCBSMEA   DS    A             Address of the stop/modify ECB
 00000C                             6422  1          =TMCBECBA   DS    A             Address of the local ECB
 000010 00000000                    6423  1          =TMCBECB    DC    A(0)          Local ECB
                                    6424  1          =
 000014                             6425  1          =TMCBCOMA   DS    A             Address of the MVS comm area
 000018                             6426  1          =TMCBSTK    DS    A             Location of the termination stack
 00001C                             6427  1          =TMCBSCB    DS    A             Address of the dump Seg control block
                                    6428  1          =TMCBEPL    EXTRACT MF=L        Room for extract parm list
 000020                             6429  1 01-EXTRA +           DS    0F
 000020 00000000                    6430  1 01-EXTRA +TMCBEPL    DC    A(0)                              LIST ADDRESS
 000024 00000000                    6431  1 01-EXTRA +           DC    A(0)                              TCB ADDRESS
 000028 00000000                    6432  1 01-EXTRA +           DC A(0)
                                    6433  1          =
 00002C                             6434  1          =TMCBNAME   DS    CL8           System name
                                    6435  1          =
 000034                             6436  1          =           DS    2A            available
                                    6437  1          =*
                                    6438  1          =* Parameters for dynamic allocation of SYSMDUMP
                                    6439  1          =*
 00003C                             6440  1          =TMCBDSN    DS    CL44                    Dsname
 000068                             6441  1          =TMCBVOL    DS    CL6                     Volume
 00006E                             6442  1          =TMCBGDG    DS    CL8                     Generation number
 000078                             6443  1          =TMCBTRK    DS    A                       Track allocation
 00007C                0007C 0007C  6444             =         END   ,
1MPMAST   (MPMA00) (09:41) (22MAR04) IHAPSAE  - PSA Extension (ESAME)                                                       Page   25
0Loc    Object Code    Addr1 Addr2  Stmt Lv Lineno    Source Statement           (Hibal 5, Asmedit 3.3)  HLASM R4.0  2004/03/22 09.41
+___    ______ ____    _____ _____  ____ __ ______    ______ _________
0                                   6454      82.     *******************************************************************
                                    6455      83.     *                                                                 *
                                    6456      84.     *        Data and Function tables                                 *
                                    6457      85.     *                                                                 *
                                    6458      86.     *******************************************************************
-000BB2                00BB2 00C88  6460      88.              DATA  BEGIN
 000BB4                             6465  1   89.     TMCBADDR   DS    A             Address of the TMCB
 000BB8                             6466  1   90.     RTCBADDR   DS    A             Address of the RTCB
 000BBC                             6467  1   91.     STACKPTR   DS    A             Location of the MASTER Stack
 000BC0                             6468  1   92.     MVSSAVE    DS    A             Location of the entry save area
                                    6469  1   93.     *
                                    6470  1   94.     * Function Tables
                                    6471  1   95.     *
 000BC4 00000000                    6472  1   96.     FTSTART    FTGEN IOS
 000BC8 00000000                    6476  1          +
 000BCC 00000000                    6478  1          +
 000BD0 00000000                    6480  1          +
 000BD4 00000000                    6481  1          +
 000BD8 00000000                    6482  1   97.                FTGEN GST
 000BDC 00000000                    6486  1          +
 000BE0 00000000                    6488  1          +
 000BE4 00000000                    6490  1          +
 000BE8 00000000                    6491  1          +
 000BEC                             6492  1   98.     FTEND      LABEL ,
                                    6494  1   99.     *
                                    6495  1  100.     *  System dump parameters
                                    6496  1  101.     *
 000BEC 00/70/80/00/0D              6497  1  102.     SDPARM     SNAP  SDATA=(CB,DM,ERR,IO,SUM,TRT),PDATA=(ALL),MF=L
 000BF1 D0/BF/00                    6506  1          +
 000BF4 00000000                    6509  1          +
 000BF8 00000000                    6510  1          +
 000BFC 00000000                    6511  1          +
 000C00 00000000                    6512  1          +
                                    6513  1  103.
                                    6514  1  104.   C DMPMSG     WTO   '***          *** Abend dump in progress',
 000C04 002B/8000                         1  105.                      DESC=2,ROUTCDE=1,MF=L
 000C08 5C5C5C4040404040            6518  1          +
 000C10 40404040405C5C5C                  1          +
 000C2F 4000/8000                   6519  1          +
                                    6521  1  106.
                                    6522  1  107.   C MDFYMSG    WTO   'Modify command:                         ',
 000C34 002C/8000                         1  108.                      ROUTCDE=11,MF=L
 000C38 D496848986A84083            6526  1          +
 000C40 9694948195847A40                  1          +
 000C60 0000/0020                   6527  1          +
 000015                00000 00C88  6529     109.              END   ,
1MPMAST   (MPMA00) (09:41) (22MAR04) IHAPSAE  - PSA Extension (ESAME)                                                       Page   26
0Loc    Object Code    Addr1 Addr2  Stmt Lv Lineno    Source Statement           (Hibal 5, Asmedit 3.3)  HLASM R4.0  2004/03/22 09.41
+___    ______ ____    _____ _____  ____ __ ______    ______ _________
0                                   6536     111.     *******************************************************************
                                    6537     112.     *                                                                 *
                                    6538     113.     *  MPIWORK - Master initialization routine parameter work area    *
                                    6539     114.     *                                                                 *
                                    6540     115.     *******************************************************************
0000000                00000 00070  6542     117.     MPIWORK  RECORD BEGIN
 000000                             6550  1  118.     MPIWPARM   DS    XL(L'PARMIN)            Parmin area
 000004                             6551  1  119.     MPIWKEY1   DS    CL8                     Key 1
 00000C                             6552  1  120.     MPIWKEY2   DS    CL8                     Key 2
 000014                             6553  1  121.     MPIWKEY3   DS    CL8                     Key 3
 00001C                             6554  1  122.     MPIWVAL    DS    A                       Integer value
 000020                             6555  1  123.     MPIWSTR    DS    CL80                    String parameter area
 000070                00070 00070  6556     124.              END   ,
1MPMAST   (MPMA00) (09:41) (22MAR04) IHAPSAE  - PSA Extension (ESAME)                                                       Page   27
0Loc    Object Code    Addr1 Addr2  Stmt Lv Lineno    Source Statement           (Hibal 5, Asmedit 3.3)  HLASM R4.0  2004/03/22 09.41
+___    ______ ____    _____ _____  ____ __ ______    ______ _________
0                                   6566     126.     *******************************************************************
                                    6567     127.     *                                                                 *
                                    6568     128.     *    MPINIT - Entry point to the ORVYL master task from MVS       *
                                    6569     129.     *             Set up the ORVYL environment and get things going   *
                                    6570     130.     *                                                                 *
                                    6571     131.     *     Input - MVS register conventions.                           *
                                    6572     132.     *                                                                 *
                                    6573     133.     *    Output - Return to MVS                                       *
                                    6574     134.     *                                                                 *
                                    6575     135.     *******************************************************************
-
                                    6577     137.              ENTRY MPINIT
 000015 00
 000016 90EC D00C            0000C  6578     138.     MPINIT   STM   R14,R12,12(R13)
 00001A 18AF                        6579     139.              LR    BR,R15                  Get the entry address
 USING  MPINIT,R10                  6580     140.              USING MPINIT,BR               Set up addressability
 00001C 50D0 ABAA            00BC0  6589     141.              ST    R13,MVSSAVE             Save the MVS Save area address
 000020 47F0 A016            0002C  6590     142.              GETMAIN RU,LV=4096,LOC=ANY
 000024 00001000/00/00              6594             +
 00002A 00/72                       6597             +
 00002C 5800 A00E            00024  6600             +
 000030 58F0 A012/1B11       00028  6601             +
 000036 0A78                        6603             +
 000038 18C1                        6604     143.              LR    WAR,R1                  Get the stack pointer
 00003A 41D0 C008            00008  6605     144.              LA    SPR,@WAR+8              Dummy first entry
 00003E 50D0 ABA6            00BBC  6606     145.              ST    SPR,STACKPTR            Save our stack pointer
 000042 4100 0009            00009  6607     146.              LA    R0,MODTABC
 000046 4110 A062            00078  6608     147.              LA    R1,MODTAB
 00004A                             6609     148.              LOOP  BEGIN
 00004A 58F0 1000            00000  6615  1  149.                L     R15,@R1
 00004E 0700/0ADE                   6616  1  150.                QSNAP @R15,31
 000052 081F0000F000                6619  1          +
 000058 4110 1004            00004  6620  1  151.                LA    R1,@R1+L'MODTAB
 00005C 4600 A034            0004A  6621     152.              UNTIL (BCT,R0),END
 000060 41F0 A092/0DEF       000A8  6631     153.              LCALL DOINIT                  Go forth and initialize
 000066 41F0 A3EC/0DEF       00402  6640     154.              LCALL MAIN                    Do low level processing
 00006C 58D0 ABAA            00BC0  6649     155.              L     R13,MVSSAVE             Get save area address
 000070 98EC D00C            0000C  6650     156.              LM    R14,R12,12(R13)         Restore calling registers
 000074 1BFF                        6651     157.              CLEAR R15
 000076 0D0E                        6655     158.              BASR  0,R14
 DROP   MPINIT,R10                  6656     159.              DROP  ,
 000078 00000000                    6692     160.     MODTAB   DC    V(GSTINTF)
 00007C 00000000                    6693     161.              DC    V(IOSERV)
 000080 00000000                    6694     162.              DC    V(MEMSERV)
 000084 00000000                    6695     163.              DC    V(MSGSERV)
 000088 00000000                    6696     164.              DC    V(MPMAST)
 00008C 00000000                    6697     165.              DC    V(TEXTCONV)
 000090 00000000                    6698     166.              DC    V(PARMS)
 000094 00000000                    6699     167.              DC    V(IPLTEXT)
 000098 00000000                    6700     168.              DC    V(TASKSERV)
                                    6701     169.     MODTABC  EQU   (*-MODTAB)/L'MODTAB
1MPMAST   (MPMA00) (09:41) (22MAR04) IHAPSAE  - PSA Extension (ESAME)                                                       Page   28
0Loc    Object Code    Addr1 Addr2  Stmt Lv Lineno    Source Statement           (Hibal 5, Asmedit 3.3)  HLASM R4.0  2004/03/22 09.41
+___    ______ ____    _____ _____  ____ __ ______    ______ _________
0                                   6703     171.     *******************************************************************
                                    6704     172.     *                                                                 *
                                    6705     173.     *    DOINIT -  ORVYL master task initialization                   *
                                    6706     174.     *                                                                 *
                                    6707     175.     *     Input - None                                                *
                                    6708     176.     *                                                                 *
                                    6709     177.     *    Output - None                                                *
                                    6710     178.     *                                                                 *
                                    6711     179.     *******************************************************************
-
 00009C                             6713     181.     DOINIT   PROC  SCOPE=LOCAL
 00009C C4D6C9D5C9E34040            6718             +
 0000A4 0000/0000                   6719             +
 0000A8 900F D004/18AF       00004  6721             +
 USING  DOINIT,R10
 0000AE 50D0 C000/18CD       00000  6736             +
 0000B4 9680 C000      00000        6738             +
 0000B8 41D0 C048            00048  6739             +
                                    6740     182.     *
                                    6741     183.     * First get us into supervisor state
                                    6742     184.     *
 0000BC 4510 A01C            000C4  6743     185.              MODESET MODE=SUP
 0000C0 0000000C                    6747             +
 0000C4 5810 1000/0A6B       00000  6748             +
 0000CA 1B11                        6750     186.              CLEAR R1                      ECB indicator for sysevent
 0000CC 4100 000E/0A5F       0000E  6754     187.              SYSEVENT TRANSWAP
                                    6757     188.     *
                                    6758     189.     * Initialize the services
                                    6759     190.     *
 USING  @TASKINI-72,R13             6760     191.              PSET  @TASKINI
 0000D2 D703 D048 D048 00000 00000  6777             +
 0000D8 D203 D048 AB14 00000 00BBC  6778     192.              MVC   @TASKIST,STACKPTR       Tell him about our stack
 0000DE 58F0 AA50/0DEF       00AF8  6779     193.              VCALL TASKINIT                Initialize task services
 0000E4 1890                        6783     194.              LR    RTCBR,RVR               setup our RTCB pointer
 0000E6 5090 AB10            00BB8  6784     195.              ST    RTCBR,RTCBADDR          Save the address
 USING  RTCB,R9                     6785     196.              WITH  (RTCB,RTCBR)
 0000EA 58F0 AA54/0DEF       00AFC  6798     197.              VCALL PARMINIT                Setup parms
                                    6802     198.     *
                                    6803     199.     * Initialize the information we will need to terminate
                                    6804     200.     *
 DROP   @TASKINI-72,R13             6805     201.              POOLGET L'TMCB,TYPE=(LOCAL,BELOW16M)    Get a TMCB
 USING  @MEMORY-72,R13
 0000F0 D70B D048 D048 00000 00000  6826             +
 0000F6 4100 007C            0007C  6834             +
 0000FA 5000 D04C            00004  6835             +
 0000FE 9200 D04A      00002        6842             +
 000102 58F0 AA58/0DEF       00B00  6845             +
 000108 1860                        6847     202.              LR    RX,RVR                  Copy the address
 USING  TMCB,R6                     6848     203.              WITH  (TMCB,RX)
 00010A                             6861     204.              CLEAR TMCB                    Clear it
 00010A D77B 6000 6000 00000 00000  6867             +
 000110 D203 6000 AA5C 00000 00B04  6868     205.              MVC   TMCB(4),=C'TMCB'        Move in the ID
                                    6869     206.
 000116                             6870     207.              POOLGET 2048,TYPE=(LOCAL)     Get a stack for termination
1MPMAST   (MPMA00) (09:41) (22MAR04) IHAPSAE  - PSA Extension (ESAME)                                                       Page   29
0Current Usings:  (TMCB,R6) (RTCB,R9) (DOINIT,R10) (@MEMORY-72,R13)
0Loc    Object Code    Addr1 Addr2  Stmt Lv Lineno    Source Statement           (Hibal 5, Asmedit 3.3)  HLASM R4.0  2004/03/22 09.41
+___    ______ ____    _____ _____  ____ __ ______    ______ _________
0000116 D70B D048 D048 00000 00000  6881             +
 00011C 4100 0800            00800  6889             +
 000120 5000 D04C            00004  6890             +
 000124 9210 D04A      00002        6897             +
 000128 58F0 AA58/0DEF       00B00  6900             +
 00012E 5000 6018            00018  6902     208.              ST    RVR,TMCBSTK             Save its address
 000132                             6903     209.              POOLGET L'SEGCBD,TYPE=(LOCAL) Get a SEG control block
 000132 D70B D048 D048 00000 00000  6914             +
 000138 4100 0028            00028  6922             +
 00013C 5000 D04C            00004  6923             +
 000140 9210 D04A      00002        6930             +
 000144 58F0 AA58/0DEF       00B00  6933             +
 00014A 5000 601C            0001C  6935     210.              ST    RVR,TMCBSCB             Save its address
 DROP   @MEMORY-72,R13              6936     211.              SEGINIT ,,TMCBSCB,RTN=DUMPWRT Initialize it
 USING  @SEGINIT-72,R13
 00014E D70D D048 D048 00000 00000  6957             +
 000154 D701 D054 D054 0000C 0000C  6965             +
 00015A 4100 A728            007D0  6977             +
 00015E 5000 D04C            00004  6982             +
 000162 D203 D048 601C 00000 0001C  6989             +
 000168 58F0 AA60/0DEF       00B08  6992             +
                                    6994     212.     *
                                    6995     213.     * Save the location of the TMCB
                                    6996     214.     *
 00016E 5060 AB0C            00BB4  6997     215.              ST    RX,TMCBADDR             Save the address
 000172 5810 9004            00004  6998     216.              L     RS,RTCBCBAT             Get the CBAT address
 000176 5060 107C            0007C  6999     217.              WITH  (CBAT,RS),'ST RX,CBATTMCB'    Save the TMCB address
 USING  CBAT,R1
 DROP   CBAT,R1
 DROP   RTCB,R9                     7023     218.              DROP  RTCBR
                                    7030     219.     *
                                    7031     220.     *  Obtain the parameter work area
                                    7032     221.     *
 DROP   @SEGINIT-72,R13             7033     222.              MEMGET L'MPIWORK
 USING  @MEMGET-72,R13
 00017A D709 D048 D048 00000 00000  7055             +
 000180 4100 0070            00070  7062             +
 000184 5000 D04C            00004  7063             +
 000188 9211 D051      00009        7073             +
 00018C 58F0 AA64/0DEF       00B0C  7076             +
 000192 1850                        7078     223.              LR    RK,RVR
 USING  MPIWORK,R5                  7079     224.              USING (MPIWORK,RK)
 AUSING (PARMIN,MPIWPARM)           7089     225.              WITH  (PARMIN,MPIWPARM)
                                    7096     226.     *
                                    7097     227.     *  Get the system name
                                    7098     228.     *
 000194 D207 602C A9D8 0002C 00A80  7099     229.              MVC   TMCBNAME,=CL8'TORVYL'   Default name
 00019A D207 5004 A9E0 00004 00A88  7100     230.              MVC   MPIWKEY1,=CL8'SYSNAME'  Primary Keyword
 DROP   @MEMGET-72,R13              7101     231.              PSET  @PARMDO
 USING  @PARMDO-72,R13
 0001A0 D70F D048 D048 00000 00000  7121             +
 0001A6 4100 5000            00000  7122     232.              PMOV  @PARILOC,LA:PARMIN      PARMIN location
 0001AA 5000 D048            00000  7138             +
 0001AE 4100 000C            0000C  7139     233.              PMOV  @PARILEN,LA:L'PARMIN+8  Length of input
1MPMAST   (MPMA00) (09:41) (22MAR04) IHAPSAE  - PSA Extension (ESAME)                                                       Page   30
0Current Usings:  (MPIWORK,R5) (TMCB,R6) (DOINIT,R10) (@PARMDO-72,R13)
0Loc    Object Code    Addr1 Addr2  Stmt Lv Lineno    Source Statement           (Hibal 5, Asmedit 3.3)  HLASM R4.0  2004/03/22 09.41
+___    ______ ____    _____ _____  ____ __ ______    ______ _________
00001B2 5000 D04C            00004  7155             +
 0001B6 4100 5020            00020  7156     234.              PMOV  @PAROLOC,LA:MPIWSTR     Location of return area
 0001BA 5000 D050            00008  7172             +
 0001BE 4100 0008            00008  7173     235.              PMOV  @PAROLEN,LA:L'TMCBNAME  Length of return area
 0001C2 5000 D054            0000C  7189             +
 0001C6 9200 5000      00000        7190     236.              SET   PARMFSTR
 0001CA 58F0 AA68/0DEF       00B10  7196     237.              VCALL PARMDO
 0001D0 1200/4770 A13E       001E6  7200     238.              IF    (RVR,Z),BEGIN
 0001D6 D207 602C A9E8 0002C 00A90  7214  1  239.                MVC   TMCBNAME,=CL8' '        Blank the name field
 0001DC 5810 D054            0000C  7215  1  240.                L     RS,@PAROLEN             String length
 0001E0 0610/4410 ABBC       00C64  7216  1  241.                DEX   RS,'MVC  TMCBNAME(0),MPIWSTR'   Move it in
 000C64 D200 602C 5020 0002C 00020  7227  1          +
 0001E6                             7235     242.              END   ,
                                    7239     243.     *
                                    7240     244.     * Set the SYSMDUMP defaults
                                    7241     245.     *
 0001E6                             7242     246.              CLEAR TMCBDSN             No dump!
 0001E6 D72B 603C 603C 0003C 0003C  7248             +
 0001EC                             7249     247.              CLEAR TMCBGDG                 Generation number
 0001EC D707 606E 606E 0006E 0006E  7255             +
 0001F2                             7256     248.              CLEAR TMCBTRK                 Tracks
 0001F2 D703 6078 6078 00078 00078  7262             +
                                    7263     249.     *
                                    7264     250.     *  Obtain the SYSMDUMP parameters
                                    7265     251.     *
 0001F8 D207 5004 A9F0 00004 00A98  7266     252.              MVC   MPIWKEY1,=CL8'SYSDUMP'  Primary Keyword
                                    7267     253.     *
                                    7268     254.     *  Get dsname
                                    7269     255.     *
 0001FE D207 500C A9F8 0000C 00AA0  7270     256.              MVC   MPIWKEY2,=CL8'DSNAME'   Secondary Keyword
 000204                             7271     257.              PSET  @PARMDO
 000204 D70F D048 D048 00000 00000  7281             +
 00020A 4100 5000            00000  7282     258.              PMOV  @PARILOC,LA:PARMIN      PARMIN location
 00020E 5000 D048            00000  7298             +
 000212 4100 0014            00014  7299     259.              PMOV  @PARILEN,LA:L'PARMIN+16 Length of input
 000216 5000 D04C            00004  7315             +
 00021A 4100 5020            00020  7316     260.              PMOV  @PAROLOC,LA:MPIWSTR     Location of return area
 00021E 5000 D050            00008  7332             +
 000222 4100 002C            0002C  7333     261.              PMOV  @PAROLEN,LA:L'TMCBDSN   Length of return area
 000226 5000 D054            0000C  7349             +
 00022A 9200 5000      00000        7350     262.              SET   PARMFSTR
 00022E 58F0 AA68/0DEF       00B10  7356     263.              VCALL PARMDO
 000234 1200/4770 A1A8       00250  7360     264.              IF    (RVR,Z),BEGIN
 00023A D22B 603C AA6C 0003C 00B14  7374  1  265.                MVC   TMCBDSN,=CL44' '         Blank the name field
 000240 5810 D054            0000C  7375  1  266.                L     RS,@PAROLEN             String length
 000244 0610/4410 ABC2       00C6A  7376  1  267.                DEX   RS,'MVC  TMCBDSN(0),MPIWSTR'   Move it in
 000C6A D200 603C 5020 0003C 00020  7387  1          +
 00024A                             7395  1  268.                CLEAR TMCBGDG                 Assume non-gdg
 00024A D707 606E 606E 0006E 0006E  7401  1          +
 000250                             7402     269.              END   ,
                                    7406     270.     *
                                    7407     271.     *  Get gdg
                                    7408     272.     *
 000250 D207 500C AA00 0000C 00AA8  7409     273.              MVC   MPIWKEY2,=CL8'GDG'      Keyword
1MPMAST   (MPMA00) (09:41) (22MAR04) IHAPSAE  - PSA Extension (ESAME)                                                       Page   31
0Current Usings:  (MPIWORK,R5) (TMCB,R6) (DOINIT,R10) (@PARMDO-72,R13)
0Loc    Object Code    Addr1 Addr2  Stmt Lv Lineno    Source Statement           (Hibal 5, Asmedit 3.3)  HLASM R4.0  2004/03/22 09.41
+___    ______ ____    _____ _____  ____ __ ______    ______ _________
0000256                             7410     274.              PSET  @PARMDO
 000256 D70F D048 D048 00000 00000  7420             +
 00025C 4100 5000            00000  7421     275.              PMOV  @PARILOC,LA:PARMIN      PARMIN location
 000260 5000 D048            00000  7437             +
 000264 4100 0014            00014  7438     276.              PMOV  @PARILEN,LA:L'PARMIN+16 Length of input
 000268 5000 D04C            00004  7454             +
 00026C 4100 5020            00020  7455     277.              PMOV  @PAROLOC,LA:MPIWSTR     Location of return area
 000270 5000 D050            00008  7471             +
 000274 4100 0008            00008  7472     278.              PMOV  @PAROLEN,LA:L'TMCBGDG   Length of return area
 000278 5000 D054            0000C  7488             +
 00027C 9200 5000      00000        7489     279.              SET   PARMFSTR
 000280 58F0 AA68/0DEF       00B10  7495     280.              VCALL PARMDO
 000286 1200/4770 A1F4       0029C  7499     281.              IF    (RVR,Z),BEGIN
 00028C D207 606E A9E8 0006E 00A90  7513  1  282.                MVC   TMCBGDG,=CL8' '          Blank the name field
 000292 5810 D054            0000C  7514  1  283.                L     RS,@PAROLEN             String length
 000296 0610/4410 ABC8       00C70  7515  1  284.                DEX   RS,'MVC  TMCBGDG(0),MPIWSTR'   Move it in
 000C70 D200 606E 5020 0006E 00020  7526  1          +
 00029C                             7534     285.              END   ,
                                    7538     286.     *
                                    7539     287.     *  Get volume
                                    7540     288.     *
 00029C D207 500C AA08 0000C 00AB0  7541     289.              MVC   MPIWKEY2,=CL8'VOLUME'    Keyword
 0002A2                             7542     290.              PSET  @PARMDO
 0002A2 D70F D048 D048 00000 00000  7552             +
 0002A8 4100 5000            00000  7553     291.              PMOV  @PARILOC,LA:PARMIN      PARMIN location
 0002AC 5000 D048            00000  7569             +
 0002B0 4100 0014            00014  7570     292.              PMOV  @PARILEN,LA:L'PARMIN+16 Length of input
 0002B4 5000 D04C            00004  7586             +
 0002B8 4100 5020            00020  7587     293.              PMOV  @PAROLOC,LA:MPIWSTR     Location of return area
 0002BC 5000 D050            00008  7603             +
 0002C0 4100 0006            00006  7604     294.              PMOV  @PAROLEN,LA:L'TMCBVOL   Length of return area
 0002C4 5000 D054            0000C  7620             +
 0002C8 9200 5000      00000        7621     295.              SET   PARMFSTR
 0002CC 58F0 AA68/0DEF       00B10  7627     296.              VCALL PARMDO
 0002D2 1200/4770 A240       002E8  7631     297.              IF    (RVR,Z),BEGIN
 0002D8 D205 6068 AACC 00068 00B74  7645  1  298.                MVC   TMCBVOL,=CL6' '         Blank the name field
 0002DE 5810 D054            0000C  7646  1  299.                L     RS,@PAROLEN             String length
 0002E2 0610/4410 ABCE       00C76  7647  1  300.                DEX   RS,'MVC  TMCBVOL(0),MPIWSTR'   Move it in
 000C76 D200 6068 5020 00068 00020  7658  1          +
 0002E8                             7666     301.              END   ,
                                    7670     302.     *
                                    7671     303.     *  Get tracks
                                    7672     304.     *
 0002E8 D207 500C AA10 0000C 00AB8  7673     305.              MVC   MPIWKEY2,=CL8'TRACKS'    Keyword
 0002EE                             7674     306.              PSET  @PARMDO
 0002EE D70F D048 D048 00000 00000  7684             +
 0002F4 4100 5000            00000  7685     307.              PMOV  @PARILOC,LA:PARMIN      PARMIN location
 0002F8 5000 D048            00000  7701             +
 0002FC 4100 0014            00014  7702     308.              PMOV  @PARILEN,LA:L'PARMIN+16 Length of input
 000300 5000 D04C            00004  7718             +
 000304 4100 501C            0001C  7719     309.              PMOV  @PAROLOC,LA:MPIWVAL     Location of return area
 000308 5000 D050            00008  7735             +
 00030C 4100 0004            00004  7736     310.              PMOV  @PAROLEN,LA:L'MPIWVAL   Length of return area
 000310 5000 D054            0000C  7752             +
1MPMAST   (MPMA00) (09:41) (22MAR04) IHAPSAE  - PSA Extension (ESAME)                                                       Page   32
0Current Usings:  (MPIWORK,R5) (TMCB,R6) (DOINIT,R10) (@PARMDO-72,R13)
0Loc    Object Code    Addr1 Addr2  Stmt Lv Lineno    Source Statement           (Hibal 5, Asmedit 3.3)  HLASM R4.0  2004/03/22 09.41
+___    ______ ____    _____ _____  ____ __ ______    ______ _________
0000314 9204 5000      00000        7753     311.              SET   PARMFINT
 000318 58F0 AA68/0DEF       00B10  7759     312.              VCALL PARMDO
 00031E 1200/4770 A282       0032A  7763     313.              IF    (RVR,Z),BEGIN
 000324 D203 6078 501C 00078 0001C  7777  1  314.                MVC   TMCBTRK,MPIWVAL         Move it in
 00032A                             7778     315.              END   ,
                                    7782     316.     *
                                    7783     317.     *  Free the work area
                                    7784     318.     *
 DROP   MPIWORK,R5                  7785     319.              DROP  RK
 DROP   @PARMDO-72,R13              7792     320.              MEMFREE L'MPIWORK,A=(RK)
 USING  @MEMFREE-72,R13
 00032A D709 D048 D048 00000 00000  7814             +
 000330 4100 0070            00070  7821             +
 000334 5000 D04C            00004  7822             +
 000338 5050 D048            00000  7823             +
 00033C 9210 D051      00009        7830             +
 000340 58F0 AA98/0DEF       00B40  7833             +
                                    7835     321.     *
                                    7836     322.     *  Then allocate SYSMDUMP
                                    7837     323.     *
 000346                             7838     324.              IF    (TMCBDSN,NZ),BEGIN  Alloc if explicitly specified...
 000346 D62B 603C 603C 0003C 0003C  7848             +
 00034C 4780 A2B8            00360  7849             +
 DROP   @MEMFREE-72,R13             7854  1  325.                PSET  @ALLOSYM
 USING  @ALLOSYM-72,R13
 000350 D703 D048 D048 00000 00000  7874  1          +
 000356 5060 D048            00000  7875  1  326.                ST    RX,@ASMTMCB             TMCB address
 00035A 58F0 AA9C/0DEF       00B44  7876  1  327.                ACALL ALLOSYSM
 000360                             7883     328.              END
                                    7887     329.
 000360 4110 6020            00020  7888     330.              EXTRACT TMCBCOMA,'S',FIELDS=(COMM),MF=(E,TMCBEPL)
 000364 41E0 6014            00014  7891             +
 000368 50E1 0000/1BEE       00000  7892             +
 00036E 50E1 0004            00004  7894             +
 000372 9201 1008      00008        7895             +
 000376 9200 1009/0A28 00009        7896             +
 00037C 5820 6014            00014  7898     331.              L     RA,TMCBCOMA             Pointer to communication block
 USING  MVSCOMM,R2                  7899     332.              WITH  (MVSCOMM,RA)
 000380 5810 2000            00000  7912     333.              L     RS,COMECBPT             Ptr to Stop/Modify ECB
 000384 5010 6008            00008  7913     334.              ST    RS,TMCBSMEA             Save it in the list
                                    7914     335.     *
                                    7915     336.     *  Process Start CIB if present
                                    7916     337.     *
 000388 5830 2004            00004  7917     338.              L     RB,COMCIBPT             Ptr to CIB
 USING  MVSCIB,R3                   7918     339.              WITH  (MVSCIB,RB)
 00038C 9504 3004      00004        7931     340.              IF    (CIBVERB.CIBSTART,EQ),BEGIN
 000390 4770 A304            003AC  7944             +
 000394 1113/4100 2004       00004  7949  1  341.                QEDIT ORIGIN=COMCIBPT,BLOCK=(RB)  Release it
 00039A 0A22                        7952  1          +
 00039C 12FF/4780 A304       003AC  7953  1  342.                IF    (R15,NZ),'QSNAP  "CIB FREE ERROR"'
 0003A2 0700/0ADE/010E              7969  2          +
 0003A8 4100 AAD2            00B7A  7972  1          +
 0003AC                             7977     343.              END   ,
 DROP   MVSCIB,R3                   7981     344.              DROP  RB
1MPMAST   (MPMA00) (09:41) (22MAR04) IHAPSAE  - PSA Extension (ESAME)                                                       Page   33
0Current Usings:  (MVSCOMM,R2) (TMCB,R6) (DOINIT,R10) (@ALLOSYM-72,R13)
0Loc    Object Code    Addr1 Addr2  Stmt Lv Lineno    Source Statement           (Hibal 5, Asmedit 3.3)  HLASM R4.0  2004/03/22 09.41
+___    ______ ____    _____ _____  ____ __ ______    ______ _________
0                                   7988     345.     *
                                    7989     346.     *  Allow "Modify" commands
                                    7990     347.     *
 0003AC 4110 0002/1111       00002  7991     348.              QEDIT ORIGIN=COMCIBPT,CIBCTR=2
 0003B2 4100 2004/1100       00004  7994             +
 0003B8 0A22                        7996             +
 DROP   MVSCOMM,R2                  7997     349.              DROP  RA
                                    8004     350.
 0003BA 4110 6010            00010  8005     351.              LA    RS,TMCBECB              Address of local ECB
 0003BE 5010 600C            0000C  8006     352.              ST    RS,TMCBECBA             Save that in the ECB list
 0003C2 9680 600C      0000C        8007     353.              OI    TMCBECBA,X'80'          Mark the end of the list
                                    8008     354.     *
                                    8009     355.     *  Initialize Functions
                                    8010     356.     *
 0003C6 4130 AB1C            00BC4  8011     357.     INITFUNC LA    RB,FTSTART              Address of the function tables
 0003CA 5930 AAA0            00B48  8012     358.              WHILE (RB,LT,=A(FTEND)),BEGIN
 0003CE 47B0 A344            003EC  8025             +
 0003D2 1B00                        8030  1  359.                CLEAR RVR                     Clear the parm register
 USING  FUNCTAB,R3                  8034  1  360.                WITH  (FUNCTAB,RB),BEGIN
 0003D4 58F0 3000/12FF       00000  8048  2  361.                  ACALL FTINIT,*                Call the init routine
 0003DA 4780 A338/0DEF       003E0  8055  2          +
 0003E0 5000 3010            00010  8057  2  362.                  ST    RVR,FTPARM              Save the parm value returned
 DROP   FUNCTAB,R3                  8058  1  363.                END   ,
 0003E4 4130 3014            00014  8066  1  364.                LA    RB,@RB+L'FUNCTAB        Get to the next function
 0003E8 47F0 A322            003CA  8067     365.              END   ,
 0003EC 981F C008            00008  8072     366.              PEND  ,
 DROP   TMCB,R6
 DROP   DOINIT,R10
 0003F0 9680 C000/0B0E 00000        8093             +
 DROP   @ALLOSYM-72,R13
1MPMAST   (MPMA00) (09:41) (22MAR04) IHAPSAE  - PSA Extension (ESAME)                                                       Page   34
0Loc    Object Code    Addr1 Addr2  Stmt Lv Lineno    Source Statement           (Hibal 5, Asmedit 3.3)  HLASM R4.0  2004/03/22 09.41
+___    ______ ____    _____ _____  ____ __ ______    ______ _________
0                                   8103     368.     *******************************************************************
                                    8104     369.     *                                                                 *
                                    8105     370.     *    MAIN   -  ORVYL master task main loop                        *
                                    8106     371.     *                                                                 *
                                    8107     372.     *     Input - None                                                *
                                    8108     373.     *                                                                 *
                                    8109     374.     *    Output - None                                                *
                                    8110     375.     *                                                                 *
                                    8111     376.     *******************************************************************
-
 0003F6                             8113     378.     MAIN     PROC  SCOPE=LOCAL
 0003F6 D4C1C9D540404040            8118             +
 0003FE 0000/0000                   8119             +
 000402 900F D004/18AF       00004  8121             +
 USING  MAIN,R10
 000408 50D0 C000/18CD       00000  8136             +
 00040E 9680 C000      00000        8138             +
 000412 41D0 C048            00048  8139             +
 000416 5860 A7B2            00BB4  8140     379.              L     RX,TMCBADDR             Get the TMCB address
 USING  TMCB,R6                     8141     380.              WITH  (TMCB,RX)
 00041A 5890 A7B6            00BB8  8154     381.              L     RTCBR,RTCBADDR          Get the RTCB address
 USING  RTCB,R9                     8155     382.              WITH  (RTCB,RTCBR)
                                    8168     383.     *
                                    8169     384.     * Just wait for something to do ...
                                    8170     385.     *
 00041E                             8171     386.     WAIT     LOOP  BEGIN
 00041E 4100 0001            00001  8178  1  387.                WAIT  1,ECBLIST=TMCBSMEA      Wait for something
 000422 4110 6008/1311       00008  8183  1          +
 000428 0A01                        8185  1          +
                                    8186  1  388.     *
                                    8187  1  389.     *  Handle operator commands
                                    8188  1  390.     *
 00042A 5810 6008            00008  8189  1  391.                L     RS,TMCBSMEA             MVS communications ECB
 00042E 9140 1000      00000        8190  1  392.                IF    @RS.X'40',BEGIN         Has been posted
 000432 47E0 A122            00524  8201  1          +
 000436 5820 6014            00014  8206  2  393.                  L     RA,TMCBCOMA             Pointer to communication block
 USING  MVSCOMM,R2                  8207  2  394.                  WITH  (MVSCOMM,RA)
 00043A 5830 2004            00004  8220  2  395.                  L     RB,COMCIBPT             CIB pointer
 USING  MVSCIB,R3                   8221  2  396.                  WITH  (MVSCIB,RB)
                                    8234  2  397.     *
                                    8235  2  398.     *  A STOP command was received, just go away
                                    8236  2  399.     *
 00043E 9540 3004      00004        8237  2  400.                  IF    (CIBVERB.CIBSTOP,EQ),BEGIN
 000442 4770 A074            00476  8250  2          +
 000446 0700/4510 A06E       00470  8255  3  401.                    WTO   'Operator Issued STOP command',ROUTCDE=11
 00044C 0020/8000                   8258  3          +
 000450 D697859981A39699            8260  3          +
 000458 40C9A2A2A4858440                  3          +
 00046C 0000/0020/0A23              8261  3          +
 000472 47F0 A12E            00530  8265  3  402.                    EXIT  WAIT
 000476                             8268  2  403.                  END
1MPMAST   (MPMA00) (09:41) (22MAR04) IHAPSAE  - PSA Extension (ESAME)                                                       Page   35
0Current Usings:  (MVSCOMM,R2) (MVSCIB,R3) (TMCB,R6) (RTCB,R9) (MAIN,R10)
0Loc    Object Code    Addr1 Addr2  Stmt Lv Lineno    Source Statement           (Hibal 5, Asmedit 3.3)  HLASM R4.0  2004/03/22 09.41
+___    ______ ____    _____ _____  ____ __ ______    ______ _________
0                                   8273  2  405.     *
                                    8274  2  406.     *  It was a MODIFY command, log it then try to figure it out
                                    8275  2  407.     *
 000476 9544 3004      00004        8276  2  408.                  IF    (CIBVERB.CIBMODFY,EQ),BEGIN
 00047A 4770 A10A            0050C  8289  2          +
 00047E 48F0 300E            0000E  8294  3  409.                    LH    R15,CIBDATLN            Command length
 000482 59F0 A74A            00B4C  8295  3  410.                    CEIL  R15,24
 000486 47D0 A08C            0048E  8304  3          +
 00048A 58F0 A74A            00B4C  8309  3          +
 00048E 4110 A832            00C34  8314  3  411.                    LA    RS,MDFYMSG              Log Operator request
 000492 D217 1014 A6BE 00014 00AC0  8315  3  412.                    MVC   @RS+20(24),=CL24' '     Clear Buffer
 000498 06F0/44F0 A87A       00C7C  8316  3  413.                    DEX   R15,'OC @RS+20(0),CIBDATA'   Uppercase and move text
 000C7C D600 1014 3010 00014 00010  8327  3          +
 00049E 1811/0A23                   8335  3  414.                    WTO   MF=(E,(RS))             And write it out
                                    8339  3  415.
 0004A2 4110 A846            00C48  8340  3  416.                    LA    RS,MDFYMSG+20           Locate Operator request
 0004A6                             8341  3  417.                    IF    (@RS,EQ,=C'STOP '),EXIT,WAIT  A stop request
 0004A6 D504 A79A 1000 00B9C 00000  8351  3          +
 0004AC 4780 A12E            00530  8354  3          +
 0004B0                             8360  3  418.                    IF    ((@RS,EQ,=C'DUMP '),OR,(@RS,EQ,=C'CANCEL ')),BEGIN
 0004B0 D504 A79F 1000 00BA1 00000  8372  3          +
 0004B6 4780 A0C2            004C4  8375  3          +
 0004BA D506 A7A4 1000 00BA6 00000  8385  3          +
 0004C0 4770 A0CA            004CC  8386  3          +
 0004C4 96A0 6004      00004        8391  4  419.                      SET   TMFDUMP+TMFABEND        always dump
 0004C8 47F0 A12E            00530  8400  4  420.                      EXIT  WAIT
 0004CC                             8403  3  421.                    END
 0004CC A0CE           004CC 004C2  8407  3  422.                    ELSEIF (@RS,EQ,=C'DISP1 '),BEGIN
 0004CC 47F0 A0EA            004EC  8413  3          +
 0004D0 D505 A786 1000 00B88 00000  8426  3          +
 0004D6 4770 A0EA            004EC  8427  3          +
 USING  @FUNCPRM-72,R13             8432  4  423.                      PSET  @FUNCPRM
 0004DA D703 D048 D048 00000 00000  8449  4          +
 0004E0                             8450  4  424.                      PMOV  @FUNCDTA,GSTPARM
 0004E0 D203 D048 A7E6 00000 00BE8  8454  4          +
 0004E6 58F0 A74E/0DEF       00B50  8455  4  425.                      VCALL GSTDISP1
 0004EC                             8459  3  426.                    END   ,
 0004EC A0EE           004EC 004D8  8463  3  427.                    ELSEIF (@RS,EQ,=C'SETCLOCK'),BEGIN
 0004EC 47F0 A10A            0050C  8469  3          +
 0004F0 D507 A6D6 1000 00AD8 00000  8482  3          +
 0004F6 4770 A10A            0050C  8483  3          +
 0004FA                             8488  4  428.                      PSET  @FUNCPRM
 0004FA D703 D048 D048 00000 00000  8498  4          +
 000500                             8499  4  429.                      PMOV  @FUNCDTA,GSTPARM
 000500 D203 D048 A7E6 00000 00BE8  8503  4          +
 000506 58F0 A752/0DEF       00B54  8504  4  430.                      VCALL SETCLOCK            Set local time offset for guest
 00050C                             8508  3  431.                    END   ,
 00050C                             8512  2  432.                  END
                                    8516  2  433.     *
                                    8517  2  434.     *   Not a known request, just ignore it
                                    8518  2  435.     *
 00050C 1113/4100 2004       00004  8519  2  436.                  QEDIT ORIGIN=COMCIBPT,BLOCK=(RB)  Release the buffer
 000512 0A22                        8522  2          +
 000514 12FF/4780 A122       00524  8523  2  437.                  IF    (R15,NZ),'QSNAP  "CIB FREE ERROR"'
1MPMAST   (MPMA00) (09:41) (22MAR04) IHAPSAE  - PSA Extension (ESAME)                                                       Page   36
0Current Usings:  (MVSCOMM,R2) (MVSCIB,R3) (TMCB,R6) (RTCB,R9) (MAIN,R10) (@FUNCPRM-72,R13)
0Loc    Object Code    Addr1 Addr2  Stmt Lv Lineno    Source Statement           (Hibal 5, Asmedit 3.3)  HLASM R4.0  2004/03/22 09.41
+___    ______ ____    _____ _____  ____ __ ______    ______ _________
000051A 0700/0ADE/010E              8539  3          +
 000520 4100 A778            00B7A  8542  2          +
 DROP   MVSCIB,R3                   8547  1  438.                END   ,
 DROP   MVSCOMM,R2
                                    8561  1  439.     *
                                    8562  1  440.     *  Not the Operator, check the main ECB
                                    8563  1  441.     *
 000524 9140 6010      00010        8564  1  442.                IF    TMCBECB.X'40',EXIT,WAIT
 000528 4710 A12E            00530  8577  1          +
 00052C 47F0 A01C            0041E  8583     443.              END   ,
1MPMAST   (MPMA00) (09:41) (22MAR04) IHAPSAE  - PSA Extension (ESAME)                                                       Page   37
0Current Usings:  (TMCB,R6) (RTCB,R9) (MAIN,R10) (@FUNCPRM-72,R13)
0Loc    Object Code    Addr1 Addr2  Stmt Lv Lineno    Source Statement           (Hibal 5, Asmedit 3.3)  HLASM R4.0  2004/03/22 09.41
+___    ______ ____    _____ _____  ____ __ ______    ______ _________
0                                   8589     445.     *
                                    8590     446.     * For some reason, Orvyl is going away.
                                    8591     447.     *
 000530                             8592     448.     GOODNITE LABEL ,
                                    8594     449.     * Terminate the guest unless it will mess up a dump
 000530 9180 6004      00004        8595     450.              IF    (~TMFDUMP,AND,~TMFABEND),BEGIN
 000534 4710 A150            00552  8607             +
 000538 9120 6004      00004        8618             +
 00053C 4710 A150            00552  8619             +
 000540                             8624  1  451.                PSET  @FUNCPRM
 000540 D703 D048 D048 00000 00000  8634  1          +
 000546                             8635  1  452.                PMOV  @FUNCDTA,GSTPARM
 000546 D203 D048 A7E6 00000 00BE8  8639  1          +
 00054C 58F0 A756/0DEF       00B58  8640  1  453.                VCALL GSTTERMP                Preliminary termination
 000552                             8644     454.              END   ,
 000552 58F0 A75A/0DEF       00B5C  8648     455.              ACALL STOPBAT                 Tell Jes what's up
                                    8655     456.     *        IF    ~TMFGDONE,'VCALL GSTSTOP'  Stop the guest machine
 000558 4100 0006/1B11       00006  8656     457.              STATUS STOP                   Stop all the subtasks
 00055E 0A4F                        8659             +
 000560 4100 0084/0A3C       00084  8660     458.              ESTAE 0                       Cancel the ESTAE exit
                                    8667     459.     *
                                    8668     460.     * Do a formatted dump if that was requested, clean up everything
                                    8669     461.     *
 000566 9180 6004      00004        8670     462.              IF    TMFDUMP,'LCALL DODUMP'  Do a formatted dump
 00056A 47E0 A172            00574  8680             +
 00056E 41F0 A268/0DEF       0066A  8693             +
 000574 41F0 A212/0DEF       00614  8699     463.              LCALL DOCLEAN                 Do the cleanup
                                    8708     464.     *
                                    8709     465.     * Close all hiperspaces
                                    8710     466.     *
 00057A 58F0 A75E/0DEF       00B60  8711     467.              VCALL IOSHTERM
                                    8715     468.     *
                                    8716     469.     *  Do an MVS ABEND dump
                                    8717     470.     *
 000580 9120 6004      00004        8718     471.              IF    TMFABEND,BEGIN
 000584 47E0 A19E            005A0  8728             +
 000588 47F0 A19E            005A0  8733  1  472.                EXIT  ,                       PATCH OUT IF NEEDED
 00058C 4110 007A            0007A  8736  1  473.                ABEND 122,DUMP,DUMPOPT=SDPARM
 000590 4100 00A0            000A0  8741  1          +
 000594 8900 0018/1610       00018  8742  1          +
 00059A 4100 A7EA/0A0D       00BEC  8746  1          +
 0005A0                             8748     474.              END   ,
 0005A0 981F C008            00008  8752     475.              PEND  ,                       Then return
 DROP   RTCB,R9
 DROP   TMCB,R6
 DROP   MAIN,R10
 0005A4 9680 C000/0B0E 00000        8772             +
 DROP   @FUNCPRM-72,R13
1MPMAST   (MPMA00) (09:41) (22MAR04) IHAPSAE  - PSA Extension (ESAME)                                                       Page   38
0Loc    Object Code    Addr1 Addr2  Stmt Lv Lineno    Source Statement           (Hibal 5, Asmedit 3.3)  HLASM R4.0  2004/03/22 09.41
+___    ______ ____    _____ _____  ____ __ ______    ______ _________
0                                   8782     477.     *******************************************************************
                                    8783     478.     *                                                                 *
                                    8784     479.     *   STOPBAT -- This routine clears the Orvyl bit in the SCIP CVT  *
                                    8785     480.     *              so that JES will no longer schedule interactive    *
                                    8786     481.     *              jobs.  Hopefully it is temporary but you know how  *
                                    8787     482.     *              these things go.                                   *
                                    8788     483.     *                                                                 *
                                    8789     484.     *     Input -  None                                               *
                                    8790     485.     *                                                                 *
                                    8791     486.     *    Output -  None                                               *
                                    8792     487.     *                                                                 *
                                    8793     488.     *******************************************************************
-
 0005AA                             8795     490.     STOPBAT  PROC  SCOPE=GLOBAL
 0005AA E2E3D6D7C2C1E340            8801             +
 0005B2 0000/0000                   8802             +
 0005B6 900F D004/18AF       00004  8804             +
 USING  STOPBAT,R10
 0005BC 50D0 C000/18CD       00000  8819             +
 0005C2 9680 C000      00000        8821             +
 0005C6 41D0 C048            00048  8822             +
 USING  PSA,R0                      8823     491.              USING PSA,R0
 0005CA 5830 0218            00218  8832     492.              L     RB,PSATNEW              CURRENT TCB
 DROP   PSA,R0                      8833     493.              DROP  R0
 0005CE 5830 300C            0002C  8841     494.              WITH  (TCB,RB),'L  RB,TCBTIO'   TIOT POINTER
 USING  TCB,R3
 DROP   TCB,R3
 0005D2                             8865     495.              IF    (@RB,NE,'ORVYL'),EXIT   Production only
 0005D2 D504 A5F7 3000 00BAD 00000  8875             +
 0005D8 4770 A048            005FE  8878             +
 0005DC 5830 0010            00010  8884     496.              L     RB,CVTPTR               CVT
 0005E0 5830 30CC            000CC  8885     497.              WITH  (CVT,RB),'L  RB,CVTUSER'   ADDRESS OF THE SCIP CVT
 USING  CVT,R3
 DROP   CVT,R3
 0005E4 1233/4780 A048       005FE  8909     498.              IF    (RB,Z),EXIT             NONE THERE
 USING  SCIPCVT,R3                  8926     499.              WITH  (SCIPCVT,RB)
 0005EA B20B 0000                   8939     500.              MODESET EXTKEY=ZERO,SAVEKEY=(2)   MODIFYING LOW CORE
 0005EE B20A 0000      00000        8942             +
 0005F2 94EF 3004      00004        8943     501.              CLEAR  SCVHSPFL.HSPFORVR      ORVYL (FILES) UNAVAILABLE
 0005F6 94DF 3004      00004        8951     502.              CLEAR  SCVHSPFL.HSPFORV       ORVYL (FILES) UNAVAILABLE
 0005FA B20A 2000      00000        8959     503.              MODESET KEYREG=(2)            JUST A REGULAR GUY
 0005FE 981F C008            00008  8962     504.              PEND
 DROP   SCIPCVT,R3
 DROP   STOPBAT,R10
 000602 9680 C000/0B0E 00000        8977             +
1MPMAST   (MPMA00) (09:41) (22MAR04) IHAPSAE  - PSA Extension (ESAME)                                                       Page   39
0Loc    Object Code    Addr1 Addr2  Stmt Lv Lineno    Source Statement           (Hibal 5, Asmedit 3.3)  HLASM R4.0  2004/03/22 09.41
+___    ______ ____    _____ _____  ____ __ ______    ______ _________
0                                   8984     506.     *******************************************************************
                                    8985     507.     *                                                                 *
                                    8986     508.     *   DOCLEAN -- This routine calls the cleanup routines.           *
                                    8987     509.     *                                                                 *
                                    8988     510.     *     Input -  None                                               *
                                    8989     511.     *                                                                 *
                                    8990     512.     *    Output -  None                                               *
                                    8991     513.     *                                                                 *
                                    8992     514.     *******************************************************************
-
 000608                             8994     516.     DOCLEAN  PROC  SCOPE=LOCAL
 000608 C4D6C3D3C5C1D540            8999             +
 000610 0000/0000                   9000             +
 000614 900F D004/18AF       00004  9002             +
 USING  DOCLEAN,R10
 00061A 50D0 C000/18CD       00000  9017             +
 000620 9680 C000      00000        9019             +
 000624 41D0 C048            00048  9020             +
                                    9021     517.     *
                                    9022     518.     * Call all the cleanup routines
                                    9023     519.     *
 000628 4130 A5B0            00BC4  9024     520.              LA    RB,FTSTART              FUNCTION TABLES
 00062C 5930 A534            00B48  9025     521.              WHILE (RB,LT,=A(FTEND)),BEGIN
 000630 47B0 A040            00654  9038             +
 USING  FUNCTAB,R3                  9043  1  522.                WITH  (FUNCTAB,RB),BEGIN
 USING  @TERMPRM-72,R13             9057  2  523.                  PSET  @TERMPRM
 000634 D703 D048 D048 00000 00000  9074  2          +
 00063A D203 D048 3010 00000 00010  9075  2  524.                  MVC   @TERMDTA,FTPARM         Function parameter
 000640 58F0 3004/12FF       00004  9076  2  525.                  ACALL FTTERM,*                Call the cleanup routine
 000646 4780 A038/0DEF       0064C  9083  2          +
 DROP   FUNCTAB,R3                  9085  1  526.                END   ,
 00064C 4130 3014            00014  9093  1  527.                LA    RB,@RB+L'FUNCTAB
 000650 47F0 A018            0062C  9094     528.              END   ,
 000654 981F C008            00008  9099     529.              PEND  ,
 DROP   DOCLEAN,R10
 000658 9680 C000/0B0E 00000        9109             +
 DROP   @TERMPRM-72,R13
1MPMAST   (MPMA00) (09:41) (22MAR04) IHAPSAE  - PSA Extension (ESAME)                                                       Page   40
0Loc    Object Code    Addr1 Addr2  Stmt Lv Lineno    Source Statement           (Hibal 5, Asmedit 3.3)  HLASM R4.0  2004/03/22 09.41
+___    ______ ____    _____ _____  ____ __ ______    ______ _________
0                                   9119     531.     *******************************************************************
                                    9120     532.     *                                                                 *
                                    9121     533.     *    DODUMP -- Take a dump of MP-ORVYL                            *
                                    9122     534.     *                                                                 *
                                    9123     535.     *     Input -  None                                               *
                                    9124     536.     *                                                                 *
                                    9125     537.     *    Output -  None                                               *
                                    9126     538.     *                                                                 *
                                    9127     539.     *******************************************************************
-
 00065E                             9129     541.     DODUMP   PROC  SCOPE=GLOBAL
 00065E C4D6C4E4D4D74040            9135             +
 000666 0000/0000                   9136             +
 00066A 900F D004/18AF       00004  9138             +
 USING  DODUMP,R10
 000670 50D0 C000/18CD       00000  9153             +
 000676 9680 C000      00000        9155             +
 00067A 41D0 C048            00048  9156             +
 00067E 5860 A54A            00BB4  9157     542.              L     RX,TMCBADDR             Get the TMCB address
 USING  TMCB,R6                     9158     543.              WITH  (TMCB,RX)
 000682                             9171     544.              IF    (TMCBNAME,EQ,'ORVYL'),BEGIN  Production system...
 000682 D504 A543 602C 00BAD 0002C  9182             +
 000688 4770 A030            0069A  9183             +
 00068C 4130 A59A            00C04  9188  1  545.                LA    RB,DMPMSG               Operator message
 000690 D207 3008 602C 00008 0002C  9189  1  546.                MVC   @RB+8(8),TMCBNAME       Use actual name
 000696 1813/0A23                   9190  1  547.                WTO   MF=(E,(RB))             And write it out
 00069A                             9194     548.              END
                                    9198     549.
                                    9199     550.                Dump services.
                                    9200     551.
 USING  @DUMPPRM-72,R13             9201     552.              PSET  @DUMPPRM
 00069A D707 D048 D048 00000 00000  9218             +
 0006A0 D203 D04C 601C 00004 0001C  9219     553.              MVC   @DUMPSCB,TMCBSCB        Move in the scb
 0006A6 58F0 A4FA/0DEF       00B64  9220     554.              VCALL TASKDUMP                Dump the task Stuff
                                    9224     555.
                                    9225     556.                Dump Functions.
                                    9226     557.
 0006AC 4130 A55A            00BC4  9227     558.              LA    RB,FTSTART              FUNCTION TABLES
 0006B0 5930 A4DE            00B48  9228     559.              WHILE (RB,LT,=A(FTEND)),BEGIN
 0006B4 47B0 A074            006DE  9241             +
 USING  FUNCTAB,R3                  9246  1  560.                WITH  (FUNCTAB,RB),BEGIN
 0006B8                             9260  2  561.                  PSET  @DUMPPRM
 0006B8 D707 D048 D048 00000 00000  9270  2          +
 0006BE D203 D048 3010 00000 00010  9271  2  562.                  MVC   @DUMPDTA,FTPARM         Function parameter
 0006C4 D203 D04C 601C 00004 0001C  9272  2  563.                  MVC   @DUMPSCB,TMCBSCB        Also pass the Segcb
 0006CA 58F0 300C/12FF       0000C  9273  2  564.                  ACALL FTDUMP,*                Call the dump routine
 0006D0 4780 A06C/0DEF       006D6  9280  2          +
 DROP   FUNCTAB,R3                  9282  1  565.                END   ,
 0006D6 4130 3014            00014  9290  1  566.                LA    RB,@RB+L'FUNCTAB
 0006DA 47F0 A046            006B0  9291     567.              END   ,
 0006DE 981F C008            00008  9296     568.              PEND
 DROP   TMCB,R6
 DROP   DODUMP,R10
 0006E2 9680 C000/0B0E 00000        9311             +
1MPMAST   (MPMA00) (09:41) (22MAR04) IHAPSAE  - PSA Extension (ESAME)                                                       Page   41
0Loc    Object Code    Addr1 Addr2  Stmt Lv Lineno    Source Statement           (Hibal 5, Asmedit 3.3)  HLASM R4.0  2004/03/22 09.41
+___    ______ ____    _____ _____  ____ __ ______    ______ _________
0DROP   @DUMPPRM-72,R13
1MPMAST   (MPMA00) (09:41) (22MAR04) IHAPSAE  - PSA Extension (ESAME)                                                       Page   42
0Loc    Object Code    Addr1 Addr2  Stmt Lv Lineno    Source Statement           (Hibal 5, Asmedit 3.3)  HLASM R4.0  2004/03/22 09.41
+___    ______ ____    _____ _____  ____ __ ______    ______ _________
0                                   9321     570.     *******************************************************************
                                    9322     571.     *                                                                 *
                                    9323     572.     * DOPUT -- This local routine is copied into memory below the     *
                                    9324     573.     *          16M line where it is called to execute the put macro   *
                                    9325     574.     *          instruction.  It is called with RVR pointing to the    *
                                    9326     575.     *          data and it returns with all registers intact.         *
                                    9327     576.     *                                                                 *
                                    9328     577.     *******************************************************************
00006E8 900F D000            00000  9330     579.     DPS      STM   R0,R15,0(SPR)
 0006EC 18AF                        9331     580.              LR    BR,EPAR                 Get the entry point address
 USING  DOPUT,R10                   9332     581.              USING DOPUT,BR
 0006EE 50D0 A02C            00714  9341     582.              ST    SPR,PUTSTK              Save the stack pointer
 0006F2 41D0 A030            00718  9342     583.              LA    SPR,PUTSAVE
 0006F6 4120 A01E            00706  9343     584.              LA    RA,PUTLOC               where to pick up
 0006FA 0C32                        9344     585.              BASSM RB,RA
 0006FC 58D0 A02C            00714  9345     586.              L     SPR,PUTSTK
 000700 980F D000            00000  9346     587.              LM    R0,R15,0(SPR)           Restore calling registers
 000704 0B0E                        9347     588.              BSM   0,RAR                   Return to caller
 000706 4110 A07C/1FFF       00764  9348     589.     PUTLOC   PUT   DUMPDCB,(0)             Write the data out
 00070C BFF7 1031/05EF       00031  9352             +
 000712 0B03                        9354     590.              BSM   0,RB                    Back to 31 bit mode
 DROP   DOPUT,R10                   9355     591.              DROP  BR
                                    9362     592.
 000714                             9363     593.     PUTSTK   DS    A
 000718                             9364     594.     PUTSAVE  DS    18A
 000760 8F/000000                   9365     595.     OPARM    OPEN  (,OUTPUT),MF=L          Room for DCB pointer
                                    9369     596.   C DUMPDCB  DCB   DDNAME=MPKAPUT,MACRF=(PM),RECFM=VBA,LRECL=140,
 000764                                      597.                    BLKSIZE=4000,DSORG=PS
 000764 0000000000000000            9376             +
 000774 00000000/00                 9377             +
 000779 000001/0000                 9380             +
 00077E 4000/00000001               9382             +
 000784 00/000001/54                9385             +
 000789 000000                      9388             +
 00078C D4D7D2C1D7E4E340            9390             +
 000794 02/00/0050/00               9391             +
 000799 000001                      9396             +
 00079C 00000001/0000               9397             +
 0007A2 0FA0/00000000               9399             +
 0007A8 00000001                    9401             +
 0007AC 00000001                    9403             +
 0007B0 00000001/0000               9404             +
 0007B6 008C/00/000001              9406             +
 0007BC 00000000                    9409             +
 0007C0 00000001                    9410             +
                                    9411     598.     DOPUT    EQU   DPS,*-DPS,C'X'
1MPMAST   (MPMA00) (09:41) (22MAR04) IHAPSAE  - PSA Extension (ESAME)                                                       Page   43
0Loc    Object Code    Addr1 Addr2  Stmt Lv Lineno    Source Statement           (Hibal 5, Asmedit 3.3)  HLASM R4.0  2004/03/22 09.41
+___    ______ ____    _____ _____  ____ __ ______    ______ _________
0                                   9413     600.     *****************************************************************
                                    9414     601.     *                                                               *
                                    9415     602.     *    DUMPWRT - This is the processing routine for dump writing  *
                                    9416     603.     *                                                               *
                                    9417     604.     *                                                               *
                                    9418     605.     *                                                               *
                                    9419     606.     *                                                               *
                                    9420     607.     *****************************************************************
00007C4                             9422     609.     DUMPWRT  PROC  @SEGRTN,SCOPE=LOCAL
 0007C4 C4E4D4D7E6D9E340            9427             +
 0007CC 0008/0000                   9428             +
 0007D0 900F D004/18AF       00004  9430             +
 USING  DUMPWRT,R10
 0007D6 50D0 C000/18CD       00000  9445             +
 0007DC 9680 C000      00000        9447             +
 USING  @SEGRTN-72,R12
 0007E0 41D0 C050            00050  9461             +
 0007E4 5850 C048            00000  9462     610.              L     RK,@SEGRCB              Address of the SEGCB
 USING  SEGCBD,R5                   9463     611.              WITH  (SEGCBD,RK)             Addressability
                                    9476     612.     *
                                    9477     613.     * Find out what is going on
                                    9478     614.     *
 0007E8 9500 5010      00010        9479     615.              IF    SEGFINIT,BEGIN          Initialization Call
 0007EC 4770 A09E            0086E  9489             +
                                    9494  1  616.     *
                                    9495  1  617.     * We have to set up the AMODE24 stuff, and the buffer which has
                                    9496  1  618.     * not yet been getmained.
                                    9497  1  619.     *
 USING  @MEMORY-72,R13              9498  1  620.                POOLGET 140,TYPE=(LOCAL,BELOW16M)
 0007F0 D70B D048 D048 00000 00000  9516  1          +
 0007F6 4100 008C            0008C  9524  1          +
 0007FA 5000 D04C            00004  9525  1          +
 0007FE 9200 D04A      00002        9532  1          +
 000802 58F0 A330/0DEF       00B00  9535  1          +
 000808 5000 5000            00000  9537  1  621.                ST    RVR,SEGADD              Save the buffer address
 00080C D201 5008 A3BE 00008 00B8E  9538  1  622.                MVC   SEGBLEN,=H'140'         And the buffer length
                                    9539  1  623.     *
                                    9540  1  624.     * Cause the first text to start a page and set other counts to 0.
                                    9541  1  625.     *
 000812 5820 5000            00000  9542  1  626.                L     RA,SEGADD               Get the address of the buffer
 000816                             9543  1  627.                CLEAR (@RA,4)                 Clear the RDW area
 000816 D703 2000 2000 00000 00000  9549  1          +
 00081C 92F1 2004      00004        9550  1  628.                MVI   @RA+4,C'1'              Page control character
 000820 D201 500A A3C0 0000A 00B90  9551  1  629.                MVC   SEGCNT,=H'5'            Count the cc char
 000826 D201 500C A3C0 0000C 00B90  9552  1  630.                MVC   SEGMCNT,=H'5'           clear the mark value
 00082C D201 500E A3C0 0000E 00B90  9553  1  631.                MVC   SEGRCNT,=H'5'           And the record value
                                    9554  1  632.     *
                                    9555  1  633.     * Initialize the AMODE24 Stuff
                                    9556  1  634.     *
 000832                             9557  1  635.                POOLGET L'DOPUT,TYPE=(LOCAL,BELOW16M)
 000832 D70B D048 D048 00000 00000  9568  1          +
 000838 4100 00DC            000DC  9576  1          +
 00083C 5000 D04C            00004  9577  1          +
 000840 9200 D04A      00002        9584  1          +
 000844 58F0 A330/0DEF       00B00  9587  1          +
1MPMAST   (MPMA00) (09:41) (22MAR04) IHAPSAE  - PSA Extension (ESAME)                                                       Page   44
0Current Usings:  (SEGCBD,R5) (DUMPWRT,R10) (@SEGRTN-72,R12) (@MEMORY-72,R13)
0Loc    Object Code    Addr1 Addr2  Stmt Lv Lineno    Source Statement           (Hibal 5, Asmedit 3.3)  HLASM R4.0  2004/03/22 09.41
+___    ______ ____    _____ _____  ____ __ ______    ______ _________
000084A 1870                        9589  1  636.                LR    RY,RVR
 00084C 5070 5014            00014  9590  1  637.                ST    RY,SEGUSER              Save AMODE24 address
                                    9591  1  638.     *
                                    9592  1  639.     * Move the DOPUT code in
                                    9593  1  640.     *
 000850 9823 A310            00AE0  9594  1  641.                LM    RA,RB,=A(DOPUT,L'DOPUT)
 000854 1813                        9595  1  642.                LR    RS,RB
 000856 0E02                        9596  1  643.                MVCL  RVR,RA                  Move it
 USING  DOPUT,R7                    9597  1  644.                WITH  (DOPUT,RY)
                                    9610  1  645.     *
                                    9611  1  646.     * Do the open
                                    9612  1  647.     *
 000858 4110 7078            00760  9613  1  648.                OPEN  (DUMPDCB),MF=(E,OPARM)  Open up the DCB
 00085C 43E1 0000            00000  9616  1          +
 000860 4100 707C            00764  9617  1          +
 000864 5001 0000            00000  9618  1          +
 000868 42E1 0000/0A13       00000  9619  1          +
 00086E A0A2           0086E 007EE  9621     649.              END   ELSE,BEGIN
 DROP   DOPUT,R7
 00086E 47F0 A106            008D6  9635             +
1MPMAST   (MPMA00) (09:41) (22MAR04) IHAPSAE  - PSA Extension (ESAME)                                                       Page   45
0Current Usings:  (SEGCBD,R5) (DUMPWRT,R10) (@SEGRTN-72,R12) (@MEMORY-72,R13)
0Loc    Object Code    Addr1 Addr2  Stmt Lv Lineno    Source Statement           (Hibal 5, Asmedit 3.3)  HLASM R4.0  2004/03/22 09.41
+___    ______ ____    _____ _____  ____ __ ______    ______ _________
0                                   9642  1  651.     *
                                    9643  1  652.     * A write call.  This writes the data out of the buffer and
                                    9644  1  653.     * sets up a new one.  The same happens if the buffer overflows..
                                    9645  1  654.     * except that an indication is also saved reguarding that case.
                                    9646  1  655.     *
                                    9647  1  656.     *  Write the data out
                                    9648  1  657.     *
 000872 5870 5014            00014  9649  1  658.                L     RY,SEGUSER              Get the data address
 USING  DOPUT,R7                    9650  1  659.                WITH  (DOPUT,RY)              Address the low version
 000876 5820 5000            00000  9663  1  660.                L     RA,SEGADD               Address of the data
 00087A 4830 500A            0000A  9664  1  661.                LH    RB,SEGCNT               Count of the data
 00087E 4030 2000            00000  9665  1  662.                STH   RB,@RA                  Set up the RDW
 000882 1802                        9666  1  663.                LR    RVR,RA                  Address of the record
 000884 18F7/0DEF                   9667  1  664.                LCALL DOPUT                   Write the record out
                                    9676  1  665.     *
                                    9677  1  666.     *  Clean up the buffer
                                    9678  1  667.     *
 000888 9502 5010      00010        9679  1  668.                IF    SEGFEOB,BEGIN
 00088C 4770 A0C4            00894  9689  1          +
 000890 92F1 2004      00004        9694  2  669.                  MVI   @RA+4,C'1'              New page
 000894 A0C8           00894 0088E  9695  1  670.                END   ELSE,BEGIN
 000894 47F0 A0CC            0089C  9704  1          +
 000898 9240 2004      00004        9710  2  671.                  MVI   @RA+4,C' '              New line
 00089C                             9711  1  672.                END   ,
 00089C D201 500A A3C0 0000A 00B90  9715  1  673.                MVC   SEGCNT,=H'5'            Count the cc char
 0008A2 D201 500C A3C0 0000C 00B90  9716  1  674.                MVC   SEGMCNT,=H'5'           clear the mark value
 0008A8 D201 500E A3C0 0000E 00B90  9717  1  675.                MVC   SEGRCNT,=H'5'           And the record value
 0008AE 9503 5010      00010        9718  1  676.                IF    SEGFOVER,BEGIN
 0008B2 4770 A106            008D6  9728  1          +
 DROP   @MEMORY-72,R13              9733  2  677.                  SEG   '-- OV --> ',,(RK)
 USING  @SEG-72,R13
 0008B6 D70C D048 D048 00000 00000  9754  2          +
 0008BC 4100 A3C2            00B92  9763  2          +
 0008C0 5000 D04C            00004  9768  2          +
 0008C4 4100 000A            0000A  9780  2          +
 0008C8 5000 D050            00008  9785  2          +
 0008CC 5050 D048            00000  9797  2          +
 0008D0 58F0 A398/0DEF       00B68  9800  2          +
 0008D6                             9802  1  678.                END   ,
 DROP   DOPUT,R7                    9806     679.              END   ,
 0008D6 981F C008            00008  9815     680.              PEND  ,
 DROP   SEGCBD,R5
 DROP   @SEGRTN-72,R12
 DROP   DUMPWRT,R10
 0008DA 9680 C000/0B0E 00000        9835             +
 DROP   @SEG-72,R13
1MPMAST   (MPMA00) (09:41) (22MAR04) IHAPSAE  - PSA Extension (ESAME)                                                       Page   46
0Loc    Object Code    Addr1 Addr2  Stmt Lv Lineno    Source Statement           (Hibal 5, Asmedit 3.3)  HLASM R4.0  2004/03/22 09.41
+___    ______ ____    _____ _____  ____ __ ______    ______ _________
0                                   9845     682.     *******************************************************************
                                    9846     683.     *                                                                 *
                                    9847     684.     *   @ALLOSYM - Parameters passed to SYSMDUMP allocation routine   *
                                    9848     685.     *                                                                 *
                                    9849     686.     *******************************************************************
0000000                00000 00004  9851     688.     @ALLOSYM RECORD BEGIN
 000000                             9859  1  689.     @ASMTMCB   DS    A                       Address of the TMCB
 000004                00004 00004  9860     690.              END   ,
1MPMAST   (MPMA00) (09:41) (22MAR04) IHAPSAE  - PSA Extension (ESAME)                                                       Page   47
0Loc    Object Code    Addr1 Addr2  Stmt Lv Lineno    Source Statement           (Hibal 5, Asmedit 3.3)  HLASM R4.0  2004/03/22 09.41
+___    ______ ____    _____ _____  ____ __ ______    ______ _________
0                                   9870     692.     *******************************************************************
                                    9871     693.     *                                                                 *
                                    9872     694.     *     ALLOSYSM - Routine to dynamically allocate a SYSMDUMP       *
                                    9873     695.     *                data set.                                        *
                                    9874     696.     *                                                                 *
                                    9875     697.     *                                                                 *
                                    9876     698.     *      Input - none                                               *
                                    9877     699.     *                                                                 *
                                    9878     700.     *     Output - none                                               *
                                    9879     701.     *                                                                 *
                                    9880     702.     *                                                                 *
                                    9881     703.     *******************************************************************
-0008E0                             9883     705.     ALLOSYSM PROC  @ALLOSYM,SCOPE=LOCAL
 0008E0 C1D3D3D6E2E8E2D4            9888             +
 0008E8 0008/0000                   9889             +
 0008EC 900F D004/18AF       00004  9891             +
 USING  ALLOSYSM,R10
 0008F2 50D0 C000/18CD       00000  9906             +
 0008F8 9680 C000      00000        9908             +
 USING  @ALLOSYM-72,R12
 0008FC 41D0 C050            00050  9922             +
 000900 5870 C048            00000  9923     706.              L     RY,@ASMTMCB
 USING  TMCB,R7                     9924     707.              WITH  (TMCB,RY)
                                    9937     708.     *
                                    9938     709.     *  Build the dynamic allocation parameter area
                                    9939     710.     *
 USING  @MEMGET-72,R13              9940     711.              MEMGET L'@DSALLO
 000904 D709 D048 D048 00000 00000  9959             +
 00090A 4100 0060            00060  9966             +
 00090E 5000 D04C            00004  9967             +
 000912 9211 D051      00009        9977             +
 000916 58F0 A220/0DEF       00B0C  9980             +
 00091C 1850                        9982     712.              LR    RK,RVR
 USING  @DSALLO,R5                  9983     713.              WITH  (@DSALLO,RK)
 00091E D22B 5004 703C 00004 0003C  9996     714.              MVC   @DSDSN,TMCBDSN           Set the data set name
 000924 D207 5038 A1FC 00038 00AE8  9997     715.              MVC   @DSDDN,=CL8'SYSMDUMP'    dd name
 00092A D205 5040 7068 00040 00068  9998     716.              MVC   @DSVOL,TMCBVOL           volume
 000930 9640 504C      0004C        9999     717.              SET   @DSNEW                   new data set
 000934 9610 504D      0004D       10005     718.              SET   @DSARLSE                 release unused space
 000938                            10011     719.              IF    (TMCBGDG,NZ),BEGIN
 000938 D607 706E 706E 0006E 0006E 10021             +
 00093E 4780 A060            0094C 10022             +
 000942 D207 5030 706E 00030 0006E 10027  1  720.                MVC   @DSMEM,TMCBGDG           generation
 000948 9610 504C      0004C       10028  1  721.                SET   @DSGDG                   indicate gdg
 00094C                            10034     722.              END   ,
                                   10038     723.     *        MVC   @DSPTQ,TMCBTRK           primary space
 00094C D203 5058 7078 00058 00078 10039     724.              MVC   @DSSTQ,TMCBTRK           secondary space
                                   10040     725.     *
                                   10041     726.     *  Do the dynamic allocation
                                   10042     727.     *
 DROP   @MEMGET-72,R13             10043     728.              PSET  @DSDALLO
 USING  @DSDALLO-72,R13
 000952 D703 D048 D048 00000 00000 10063             +
 000958 5050 D048            00000 10064     729.              ST    RK,@DSDPARM
1MPMAST   (MPMA00) (09:41) (22MAR04) IHAPSAE  - PSA Extension (ESAME)                                                       Page   48
0Current Usings:  (@DSALLO,R5) (TMCB,R7) (ALLOSYSM,R10) (@ALLOSYM-72,R12) (@DSDALLO-72,R13)
0Loc    Object Code    Addr1 Addr2  Stmt Lv Lineno    Source Statement           (Hibal 5, Asmedit 3.3)  HLASM R4.0  2004/03/22 09.41
+___    ______ ____    _____ _____  ____ __ ______    ______ _________
000095C 58F0 A280/0DEF       00B6C 10065     730.              VCALL DSALLO
                                   10069     731.     *
                                   10070     732.     *  If allocation failed log the error
                                   10071     733.     *
 000962 1230/4780 A0B6       009A2 10072     734.              IF    ('LTR  RB,RVR',NZ),BEGIN
 000968 4510 A0A4/001F       00990 10085  1  735.                WTO   'Unable to allocate SYSMDUMP',ROUTCDE=11
 00096E 8000                       10089  1          +
 000970 E4958182938540A3           10090  1          +
 000978 9640819393968381                  1          +
 00098B 0000/0020/0A23             10091  1          +
 000992 0700/0ADE                  10095  1  736.                QSNAP @DSRTN,6
 000996 080600005046               10098  1          +
 00099C 41F0 A0EA/0DEF       009D6 10099  1  737.                LCALL ALLOUDMP                Use sysudump instead
 0009A2                            10108     738.              END
 DROP   @DSALLO,R5                 10112     739.              DROP  RK
                                   10119     740.     *
                                   10120     741.     *  Free the Dynamic allocation parameter area
                                   10121     742.     *
 DROP   @DSDALLO-72,R13            10122     743.              MEMFREE L'@DSALLO,A=(RK)
 USING  @MEMFREE-72,R13
 0009A2 D709 D048 D048 00000 00000 10144             +
 0009A8 4100 0060            00060 10151             +
 0009AC 5000 D04C            00004 10152             +
 0009B0 5050 D048            00000 10153             +
 0009B4 9210 D051      00009       10160             +
 0009B8 58F0 A254/0DEF       00B40 10163             +
 0009BE 1803                       10165     744.              LR    RVR,RB                  Set return
 0009C0 981F C008            00008 10166     745.              PEND
 DROP   TMCB,R7
 DROP   @ALLOSYM-72,R12
 DROP   ALLOSYSM,R10
 0009C4 9680 C000/0B0E 00000       10188             +
 DROP   @MEMFREE-72,R13
1MPMAST   (MPMA00) (09:41) (22MAR04) IHAPSAE  - PSA Extension (ESAME)                                                       Page   49
0Loc    Object Code    Addr1 Addr2  Stmt Lv Lineno    Source Statement           (Hibal 5, Asmedit 3.3)  HLASM R4.0  2004/03/22 09.41
+___    ______ ____    _____ _____  ____ __ ______    ______ _________
0                                  10198     747.     *******************************************************************
                                   10199     748.     *                                                                 *
                                   10200     749.     *     ALLOUDMP - Routine to dynamically allocate a SYSUDUMP       *
                                   10201     750.     *                sysout data set.                                 *
                                   10202     751.     *                                                                 *
                                   10203     752.     *                                                                 *
                                   10204     753.     *      Input - none                                               *
                                   10205     754.     *                                                                 *
                                   10206     755.     *     Output - none                                               *
                                   10207     756.     *                                                                 *
                                   10208     757.     *                                                                 *
                                   10209     758.     *******************************************************************
-0009CA                            10211     760.     ALLOUDMP PROC  ,SCOPE=LOCAL
 0009CA C1D3D3D6E4C4D4D7           10216             +
 0009D2 0000/0000                  10217             +
 0009D6 900F D004/18AF       00004 10219             +
 USING  ALLOUDMP,R10
 0009DC 50D0 C000/18CD       00000 10234             +
 0009E2 9680 C000      00000       10236             +
 0009E6 41D0 C048            00048 10237             +
                                   10238     761.     *
                                   10239     762.     *  Build the dynamic allocation parameter area
                                   10240     763.     *
 USING  @MEMGET-72,R13             10241     764.              MEMGET L'@JSALLO
 0009EA D709 D048 D048 00000 00000 10260             +
 0009F0 4100 0036            00036 10267             +
 0009F4 5000 D04C            00004 10268             +
 0009F8 9211 D051      00009       10278             +
 0009FC 58F0 A136/0DEF       00B0C 10281             +
 000A02 1850                       10283     765.              LR    RK,RVR
 USING  @JSALLO,R5                 10284     766.              WITH  (@JSALLO,RK)
 000A04 D207 5000 A11A 00000 00AF0 10297     767.              MVC   @JSDDNM,=CL8'SYSUDUMP'  Set the ddname
                                   10298     768.     *         SET   @JSHOLD                  output hold
 000A0A 92C1 5010      00010       10299     769.              MVI   @JSCLAS,C'A'             sysout=a
                                   10300     770.     *
                                   10301     771.     *  Do the dynamic allocation
                                   10302     772.     *
 DROP   @MEMGET-72,R13             10303     773.              PSET  @JSDALLO
 USING  @JSDALLO-72,R13
 000A0E D703 D048 D048 00000 00000 10323             +
 000A14 5050 D048            00000 10324     774.              ST    RK,@JSDPARM
 000A18 58F0 A19A/0DEF       00B70 10325     775.              VCALL JSALLO
                                   10329     776.     *
                                   10330     777.     *  If allocation failed log the error
                                   10331     778.     *
 000A1E 1230/4780 A082       00A58 10332     779.              IF    ('LTR  RB,RVR',NZ),BEGIN
 000A24 4510 A076/001F       00A4C 10345  1  780.                WTO   'Unable to allocate SYSUDUMP',ROUTCDE=11
 000A2A 8000                       10349  1          +
 000A2C E4958182938540A3           10350  1          +
 000A34 9640819393968381                  1          +
 000A47 0000/0020/0A23             10351  1          +
 000A4E 0700/0ADE                  10355  1  781.                QSNAP @JSRTN,6
 000A52 080600005008               10358  1          +
 000A58                            10359     782.              END
1MPMAST   (MPMA00) (09:41) (22MAR04) IHAPSAE  - PSA Extension (ESAME)                                                       Page   50
0Current Usings:  (ALLOUDMP,R10) (@JSDALLO-72,R13)
0Loc    Object Code    Addr1 Addr2  Stmt Lv Lineno    Source Statement           (Hibal 5, Asmedit 3.3)  HLASM R4.0  2004/03/22 09.41
+___    ______ ____    _____ _____  ____ __ ______    ______ _________
0DROP   @JSALLO,R5                 10363     783.              DROP  RK
                                   10370     784.     *
                                   10371     785.     *  Free the Dynamic allocation parameter area
                                   10372     786.     *
 DROP   @JSDALLO-72,R13            10373     787.              MEMFREE L'@JSALLO,A=(RK)
 USING  @MEMFREE-72,R13
 000A58 D709 D048 D048 00000 00000 10395             +
 000A5E 4100 0036            00036 10402             +
 000A62 5000 D04C            00004 10403             +
 000A66 5050 D048            00000 10404             +
 000A6A 9210 D051      00009       10411             +
 000A6E 58F0 A16A/0DEF       00B40 10414             +
 000A74 981F C008            00008 10416     788.              PEND
 DROP   ALLOUDMP,R10
 000A78 9680 C000/0B0E 00000       10428             +
 DROP   @MEMFREE-72,R13
1MPMAST   (MPMA00) (09:41) (22MAR04) IHAPSAE  - PSA Extension (ESAME)                                                       Page   51
0Loc    Object Code    Addr1 Addr2  Stmt Lv Lineno    Source Statement           (Hibal 5, Asmedit 3.3)  HLASM R4.0  2004/03/22 09.41
+___    ______ ____    _____ _____  ____ __ ______    ______ _________
0000A80                            10438     790.              LTORG
 000A80 E3D6D9E5E8D34040           10440                             =CL8'TORVYL'
 000A88 E2E8E2D5C1D4C540           10441                             =CL8'SYSNAME'
 000A90 4040404040404040           10442                             =CL8' '
 000A98 E2E8E2C4E4D4D740           10443                             =CL8'SYSDUMP'
 000AA0 C4E2D5C1D4C54040           10444                             =CL8'DSNAME'
 000AA8 C7C4C74040404040           10445                             =CL8'GDG'
 000AB0 E5D6D3E4D4C54040           10446                             =CL8'VOLUME'
 000AB8 E3D9C1C3D2E24040           10447                             =CL8'TRACKS'
 000AC0 4040404040404040           10448                             =CL24' '
 000AD8 E2C5E3C3D3D6C3D2           10449                             =C'SETCLOCK'
 000AE0 000006E8000000DC           10450                             =A(DOPUT,L'DOPUT)
 000AE8 E2E8E2D4C4E4D4D7           10451                             =CL8'SYSMDUMP'
 000AF0 E2E8E2E4C4E4D4D7           10452                             =CL8'SYSUDUMP'
 000AF8 00000000                   10453                             =V(TASKINIT)
 000AFC 00000000                   10454                             =V(PARMINIT)
 000B00 00000000                   10455                             =V(POOLGET)
 000B04 E3D4C3C2                   10456                             =C'TMCB'
 000B08 00000000                   10457                             =V(SEGINIT)
 000B0C 00000000                   10458                             =V(MEMGET)
 000B10 00000000                   10459                             =V(PARMDO)
 000B14 4040404040404040           10460                             =CL44' '
 000B40 00000000                   10461                             =V(MEMFREE)
 000B44 000008EC                   10462                             =A(ALLOSYSM)
 000B48 00000BEC                   10463                             =A(FTEND)
 000B4C 00000018                   10464                             =A(24)
 000B50 00000000                   10465                             =V(GSTDISP1)
 000B54 00000000                   10466                             =V(SETCLOCK)
 000B58 00000000                   10467                             =V(GSTTERMP)
 000B5C 000005B6                   10468                             =A(STOPBAT)
 000B60 00000000                   10469                             =V(IOSHTERM)
 000B64 00000000                   10470                             =V(TASKDUMP)
 000B68 00000000                   10471                             =V(SEG)
 000B6C 00000000                   10472                             =V(DSALLO)
 000B70 00000000                   10473                             =V(JSALLO)
 000B74 404040404040               10474                             =CL6' '
 000B7A C3C9C240C6D9C5C5           10475                             =C'CIB FREE ERROR'
 000B88 C4C9E2D7F140               10476                             =C'DISP1 '
 000B8E 008C                       10477                             =H'140'
 000B90 0005                       10478                             =H'5'
 000B92 606040D6E5406060           10479                             =C'-- OV --> '
 000B9C E2E3D6D740                 10480                             =C'STOP '
 000BA1 C4E4D4D740                 10481                             =C'DUMP '
 000BA6 C3C1D5C3C5D340             10482                             =C'CANCEL '
 000BAD D6D9E5E8D3     00C82 00C88 10483                             =C'ORVYL'
 000C88                00C88 00C88 10487     791.              END   .

1MPMAST   (MPMA00) (09:41) (22MAR04) Ordinary Symbol and Literal Cross Reference                                            Page   52
-Symbol   Length   Value     Id    R Type   Defn References                                  HLASM R4.0  2004/03/22 09.41
0$$$@R0        1 00000000 FFFFFFFE     J     714  1010
 $$$@R1        1 00000000 FFFFFFFD     J     727  1022
 $$$@R10       1 00000000 FFFFFFF4     J     844  1142
 $$$@R11       1 00000000 FFFFFFF3     J     857  1154
 $$$@R12       1 00000000 FFFFFFF2     J     870  1166
 $$$@R13       1 00000000 FFFFFFF1     J     883  1178
 $$$@R14       1 00000000 FFFFFFF0     J     896  1190
 $$$@R15       1 00000000 FFFFFFEF     J     909  1202
 $$$@R2        1 00000000 FFFFFFFC     J     740  1034
 $$$@R3        1 00000000 FFFFFFFB     J     753  1046
 $$$@R4        1 00000000 FFFFFFFA     J     766  1058
 $$$@R5        1 00000000 FFFFFFF9     J     779  1070
 $$$@R6        1 00000000 FFFFFFF8     J     792  1082
 $$$@R7        1 00000000 FFFFFFF7     J     805  1094
 $$$@R8        1 00000000 FFFFFFF6     J     818  1106
 $$$@R9        1 00000000 FFFFFFF5     J     831  1118   1130
 $$$C1MPMAST
               1 00000C82 00000001     J   10484 10486
 $$$C2MPMAST
               1 00000C88 00000001     J   10490 10492
 $$$D0MPMAST
               1 00000BB2 00000001     J    1220  6461   7222   7382   7521   7653   8322
 $$$R@ALLOSYM
               1 00000000 FFFFFFC6     J    9853  9866   9866
 $$$R@CPTIME
               1 00000000 FFFFFFDB     J    5541  5556   5556
 $$$R@DSALLO
               1 00000000 FFFFFFD9     J    5594  5676   5676
 $$$R@DSDALLO
               1 00000000 FFFFFFDA     J    5569  5582   5582
 $$$R@DUMPPRM
               1 00000000 FFFFFFE0     J    5231  5245   5245
 $$$R@ESTAE
               1 00000000 FFFFFFCF     J    6039  6053   6053
 $$$R@FUNCPRM
               1 00000000 FFFFFFE1     J    5208  5221   5221
 $$$R@JSALLO
               1 00000000 FFFFFFD7     J    5714  5756   5756
 $$$R@JSDALLO
               1 00000000 FFFFFFD8     J    5689  5702   5702
 $$$R@MEMFREE
               1 00000000 FFFFFFCA     J    6277  6340   6340
 $$$R@MEMGET
               1 00000000 FFFFFFCB     J    6193  6265   6265
 $$$R@MEMINIT
               1 00000000 FFFFFFCC     J    6124  6181   6181
 $$$R@MEMORY
               1 00000000 FFFFFFDC     J    5374  5528   5528
 $$$R@PARMDO
               1 00000000 FFFFFFDE     J    5281  5297   5297
 $$$R@SEG      1 00000000 FFFFFFD6     J    5763  5818   5818
 $$$R@SEGCOL
               1 00000000 FFFFFFD4     J    5846  5860   5860
 $$$R@SEGCORE
               1 00000000 FFFFFFD3     J    5866  5913   5913
1MPMAST   (MPMA00) (09:41) (22MAR04) Ordinary Symbol and Literal Cross Reference                                            Page   53
 $$$R@SEGINIT
               1 00000000 FFFFFFD5     J    5824  5840   5840
 $$$R@SEGRTN
               1 00000000 FFFFFFD2     J    5919  5932   5932
 $$$R@SEGSTK
               1 00000000 FFFFFFD1     J    5938  5952   5952
 $$$R@TASKINI
               1 00000000 FFFFFFCD     J    6098  6111   6111
 $$$R@TERMPRM
               1 00000000 FFFFFFDF     J    5255  5268   5268
 $$$RCBAT      1 00000000 FFFFFFE3     J    5065  5113   5113
 $$$RESTAINFO
               1 00000000 FFFFFFCE     J    6065  6085   6085
 $$$RFUNCTAB
               1 00000000 FFFFFFC9     J    6352  6369   6369
 $$$RMPIWORK
               1 00000000 FFFFFFC7     J    6544  6562   6562
 $$$RPARMIN
               1 00000000 FFFFFFDD     J    5303  5361   5361
 $$$RRTCB      1 00000000 FFFFFFE2     J    5126  5191   5191
 $$$RSEGCBD
               1 00000000 FFFFFFD0     J    5959  6026   6026
 $$$RTMCB      1 00000000 FFFFFFC8     J    6383  6450   6450
 $$$101F       2 0000094C 00000001     H   10037 10022B
 $$$102F       2 000009A2 00000001     H   10111 10080B
 $$$104F       2 00000A58 00000001     H   10362 10340B
 $$$34S        2 0000004A 00000001     H    6613  6626B
 $$$37F        2 000001E6 00000001     H    7238  7209B
 $$$38         6 00000C64 00000001     I    7228  7220X
 $$$39         6 00000C64 00000001     I    7227  7228   7228
 $$$40F        2 00000250 00000001     H    7405  7369B
 $$$41         6 00000C6A 00000001     I    7388  7380X
 $$$42         6 00000C6A 00000001     I    7387  7388   7388
 $$$43F        2 0000029C 00000001     H    7537  7508B
 $$$44         6 00000C70 00000001     I    7527  7519X
 $$$45         6 00000C70 00000001     I    7526  7527   7527
 $$$46F        2 000002E8 00000001     H    7669  7640B
 $$$47         6 00000C76 00000001     I    7659  7651X
 $$$48         6 00000C76 00000001     I    7658  7659   7659
 $$$49F        2 0000032A 00000001     H    7781  7772B
 $$$50F        2 00000360 00000001     H    7886  7849B
 $$$51F        2 000003AC 00000001     H    7980  7944B
 $$$53F        2 000003AC 00000001     H    7976  7962B
 $$$54F        2 000003EC 00000001     H    8071  8025B
 $$$54S        2 000003CA 00000001     H    8017  8070B
 $$$57F        2 00000530 00000001     H    8587  8267B  8354B  8402B  8577B
 $$$57S        2 0000041E 00000001     H    8176  8586B
 $$$58F        2 00000524 00000001     H    8560  8201B
 $$$60F        2 00000476 00000001     H    8271  8250B
 $$$62F        2 0000050C 00000001     H    8515  8289B
 $$$64F        2 0000048E 00000001     H    8313  8304B
 $$$65         6 00000C7C 00000001     I    8328  8320X
 $$$66         6 00000C7C 00000001     I    8327  8328   8328
 $$$68B        4 000004C0 00000001     I    8386  8410
 $$$68F        2 000004CC 00000001     H    8406  8386B  8409
 $$$68T        2 000004C4 00000001     H    8389  8375B
 $$$70B        4 000004D6 00000001     I    8427  8466
 $$$70E        2 000004D0 00000001     H    8417  8411
 $$$70F        2 000004EC 00000001     H    8462  8413B  8427B  8465
1MPMAST   (MPMA00) (09:41) (22MAR04) Ordinary Symbol and Literal Cross Reference                                            Page   54
 $$$72E        2 000004F0 00000001     H    8473  8467
 $$$72F        2 0000050C 00000001     H    8511  8469B  8483B
 $$$74F        2 00000524 00000001     H    8546  8532B
 $$$77F        2 00000552 00000001     H    8647  8607B  8619B
 $$$79F        2 00000574 00000001     H    8698  8680B
 $$$80F        2 000005A0 00000001     H    8751  8728B  8735B
 $$$81F        2 000005FE 00000001     H    8975  8878B  8920B
 $$$87F        2 00000654 00000001     H    9098  9038B
 $$$87S        2 0000062C 00000001     H    9030  9097B
 $$$90F        2 0000069A 00000001     H    9197  9183B
 $$$91F        2 000006DE 00000001     H    9295  9241B
 $$$91S        2 000006B0 00000001     H    9233  9294B
 $$$94B        4 000007EC 00000001     I    9489  9632
 $$$94F        2 0000086E 00000001     H    9629  9489B  9631
 $$$96E        2 00000872 00000001     H    9639  9633
 $$$96F        2 000008D6 00000001     H    9814  9635B
 $$$97B        4 0000088C 00000001     I    9689  9701
 $$$97F        2 00000894 00000001     H    9698  9689B  9700
 $$$98E        2 00000898 00000001     H    9708  9702
 $$$98F        2 0000089C 00000001     H    9714  9704B
 $$$99F        2 000008D6 00000001     H    9805  9728B
 @ALLOSYM      4 00000000 FFFFFFC6     J    9866  7866U  7874M  7874   9918U
 @ASMTMCB      4 00000000 FFFFFFC6     A    9859  7875M  9923
 @DSALCF       1 0000004D FFFFFFD9     R    5638  5642   5647   5652   5657   5662
 @DSALLO      96 00000000 FFFFFFD9     J    5676  9966   9992U 10151
 @DSARLSE     16 0000004D FFFFFFD9         5657 10010M
 @DSDALLO      4 00000000 FFFFFFDA     J    5582 10055U 10063M 10063
 @DSDDN        8 00000038 FFFFFFD9     C    5603  9997M
 @DSDPARM      4 00000000 FFFFFFDA     A    5575 10064M
 @DSDSN       44 00000004 FFFFFFD9     C    5601  9996M
 @DSFLAG       1 0000004C FFFFFFD9     R    5611  5615   5620   5625   5630
 @DSGDG       16 0000004C FFFFFFD9         5630 10033M
 @DSMEM        8 00000030 FFFFFFD9     C    5602 10027M
 @DSNEW       64 0000004C FFFFFFD9         5620 10004M
 @DSRTN        2 00000046 FFFFFFD9     H    5605 10098
 @DSSTQ        4 00000058 FFFFFFD9     A    5668 10039M
 @DSVOL        6 00000040 FFFFFFD9     C    5604  9998M
 @DUMPDTA      4 00000000 FFFFFFE0     A    5237  9271M
 @DUMPPRM      8 00000000 FFFFFFE0     J    5245  9210U  9218M  9218   9270M  9270
 @DUMPSCB      4 00000004 FFFFFFE0     A    5238  9219M  9272M
 @FUNCDTA      4 00000000 FFFFFFE1     A    5214  8454M  8503M  8639M
 @FUNCPRM      4 00000000 FFFFFFE1     J    5221  8441U  8449M  8449   8498M  8498   8634M  8634
 @JSALLO      54 00000000 FFFFFFD7     J    5756 10267  10293U 10402
 @JSCLAS       1 00000010 FFFFFFD7     C    5743 10299M
 @JSDALLO      4 00000000 FFFFFFD8     J    5702 10315U 10323M 10323
 @JSDDNM       8 00000000 FFFFFFD7     C    5720 10297M
 @JSDPARM      4 00000000 FFFFFFD8     A    5695 10324M
 @JSFLAG       1 0000000E FFFFFFD7     R    5727  5731   5736
 @JSRTN        2 00000008 FFFFFFD7     H    5721 10358
 @MEMCODE      1 00000003 FFFFFFDC     R    5444  5452   5461   5470   5480   5489   5498   5507   5516
 @MEMFREE     10 00000000 FFFFFFCA     J    6340  7806U  7814M  7814  10136U 10144M 10144  10387U 10395M 10395
 @MEMGET      10 00000000 FFFFFFCB     J    6265  7047U  7055M  7055   9951U  9959M  9959  10252U 10260M 10260
 @MEMLEN       4 00000004 FFFFFFDC     A    5520  6835M  6890M  6923M  9525M  9577M
 @MEMORY      12 00000000 FFFFFFDC     J    5528  6818U  6826M  6826   6881M  6881   6914M  6914   9508U  9516M  9516
                                                  9568M  9568
 @MEMPOOL      1 00000002 FFFFFFDC     R    5385  5393   5402   5411   5420   5429   5438   6842M  9532M  9584M
 @MFFTYPE      1 00000009 FFFFFFCA     R    6292  6303   6312   6321   6330
 @MFLEN        4 00000004 FFFFFFCA     A    6286  7822M 10152M 10403M
 @MFLL         8 00000000 FFFFFFCA     D    6283  6284
1MPMAST   (MPMA00) (09:41) (22MAR04) Ordinary Symbol and Literal Cross Reference                                            Page   55
 @MFLOC        4 00000000 FFFFFFCA     A    6285  7823M 10153M 10404M
 @MFTYPE       2 00000008 FFFFFFCA     H    6288  6289
 @MGFTYPE      1 00000009 FFFFFFCB     R    6211  6219   6228   6237   6246   6255
 @MGLEN        4 00000004 FFFFFFCB     A    6202  7063M  9967M 10268M
 @MGLL         8 00000000 FFFFFFCB     D    6199  6200
 @MGTYPE       2 00000008 FFFFFFCB     H    6204  6208
 @MIFLAG       1 00000000 FFFFFFCC     R    6132  6136
 @MIWFLAG      1 00000001 FFFFFFCC     R    6144  6154   6163   6172
 @PARILEN      4 00000004 FFFFFFDE     A    5288  7155M  7315M  7454M  7586M  7718M
 @PARILOC      4 00000000 FFFFFFDE     A    5287  7138M  7298M  7437M  7569M  7701M
 @PARMDO      16 00000000 FFFFFFDE     J    5297  7113U  7121M  7121   7281M  7281   7420M  7420   7552M  7552   7684M
                                                  7684
 @PAROLEN      4 0000000C FFFFFFDE     A    5290  7189M  7215   7349M  7375   7488M  7514   7620M  7646   7752M
 @PAROLOC      4 00000008 FFFFFFDE     A    5289  7172M  7332M  7471M  7603M  7735M
 @RA           0 00000000 FFFFFFFC     @    1035  9549M  9549   9550M  9665M  9694M  9710M
 @RB           0 00000000 FFFFFFFB     @    1047  8066   8875   9093   9189M  9290
 @RS           0 00000000 FFFFFFFD     @    1023  8200   8315M  8327M  8351   8372   8385   8426   8482
 @R0           0 00000000 FFFFFFFE     @     715   991U  2548U  8838U
 @R1           0 00000000 FFFFFFFD     @     728   987U  6615   6620   7021U
 @R10          0 00000000 FFFFFFF4     @     845   951U  6670U  8089U  8768U  8973U  9105U  9307U  9360U  9831U 10184U
                                                 10424U
 @R11          0 00000000 FFFFFFF3     @     858   947U
 @R12          0 00000000 FFFFFFF2     @     871   943U  9826U 10179U
 @R13          0 00000000 FFFFFFF1     @     884   939U  6815U  6946U  7044U  7110U  7803U  7863U  8100U  8779U  9116U
                                                  9318U  9743U  9842U 10052U 10133U 10195U 10312U 10384U 10435U
 @R14          0 00000000 FFFFFFF0     @     897   935U
 @R15          0 00000000 FFFFFFEF     @     910   931U  6619
 @R2           0 00000000 FFFFFFFC     @     741   983U  8002U  8557U
 @R3           0 00000000 FFFFFFFB     @     754   979U  7986U  8064U  8552U  8863U  8907U  8968U  9091U  9288U
 @R4           0 00000000 FFFFFFFA     @     767   975U
 @R5           0 00000000 FFFFFFF9     @     780   971U  7790U  9821U 10117U 10368U
 @R6           0 00000000 FFFFFFF8     @     793   967U  8082U  8763U  9302U
 @R7           0 00000000 FFFFFFF7     @     806   963U  9626U  9811U 10174U
 @R8           0 00000000 FFFFFFF6     @     819   959U
 @R9           0 00000000 FFFFFFF5     @     832   955U  7028U  8758U
 @SEG         13 00000000 FFFFFFD6     J    5818  9746U  9754M  9754
 @SEGB       128 0000000C FFFFFFD6         5778  5793   5793
 @SEGCB        4 00000000 FFFFFFD6     A    5769  9797M
 @SEGICB       4 00000000 FFFFFFD5     A    5830  6989M
 @SEGILEN      2 0000000C FFFFFFD5     Y    5833  6965M  6965
 @SEGINIT     14 00000000 FFFFFFD5     J    5840  6949U  6957M  6957
 @SEGIRTN      4 00000004 FFFFFFD5     A    5831  6982M
 @SEGLEN       4 00000008 FFFFFFD6     A    5771  9785M
 @SEGLOC       4 00000004 FFFFFFD6     A    5770  9768M
 @SEGRCB       4 00000000 FFFFFFD2     A    5925  9462
 @SEGRTN       4 00000000 FFFFFFD2     J    5932  9457U
 @SEGT        64 0000000C FFFFFFD6         5783  5793   5793
 @SEGTYPE      1 0000000C FFFFFFD6     R    5774  5778   5783   5794   5799   5804   5809
 @SEGXFLG      1 0000000D FFFFFFD3     R    5878  5882   5887   5892   5897   5902
 @TASKINI      4 00000000 FFFFFFCD     J    6111  6769U  6777M  6777
 @TASKIST      4 00000000 FFFFFFCD     A    6104  6778M
 @TERMDTA      4 00000000 FFFFFFDF     A    5261  9075M
 @TERMPRM      4 00000000 FFFFFFDF     J    5268  9066U  9074M  9074
 @WAR          0 00000000 FFFFFFF2     @    1167  6605
 AHLHEAD       1 00000000 00000000 A   T    2959  2959
 AHLVCCR8      1 00000000 00000000 A   T    3450  3450
 ALLOSYSM      4 000008EC 00000001     I    9891  9902U 10462
 ALLOUDMP      4 000009D6 00000001     I   10219 10106  10230U
 ASMVT         1 00000000 00000000 A   T    3339  3339
1MPMAST   (MPMA00) (09:41) (22MAR04) Ordinary Symbol and Literal Cross Reference                                            Page   56
 BR           10 0000000A FFFFFFFF A   #    1136  6579M  6587U  6722M  6732U  8122M  8132U  8805M  8815U  9003M  9013U
                                                  9139M  9149U  9331M  9339U  9431M  9441U  9892M  9902U 10220M 10230U
 CBAT        144 00000000 FFFFFFE3     J    5113  7008U
 CBATTMCB      4 0000007C FFFFFFE3     A    5105  7014M
 CBBRANCH      1 00000000 00000000 A   T    3495  3495
 CIBDATA       8 00000010 FFFFFFE5     C    4997  8327
 CIBDATLN      2 0000000E FFFFFFE5     H    4996  8294
 CIBMODFY      1 00000044 FFFFFFE5 A   U    4982  8286
 CIBSTART      1 00000004 FFFFFFE5 A   U    4980  7941
 CIBSTOP       1 00000040 FFFFFFE5 A   U    4983  8247
 CIBVERB       1 00000004 FFFFFFE5     C    4979  7943   8249   8288
 CIBVRSN       1 00000003 FFFFFFE5 A   U    4995  4991
 CIBX          1 00000000 FFFFFFE4     J    5008  5033
 CIBXEND       1 00000030 FFFFFFE4     U    5032  5033
 CIB15497      1 00000003 FFFFFFE5 A   U    4994  4995
 COMCIBPT      4 00000004 FFFFFFE6     A    4896  7917   7951   7994   8220   8521
 COMECBPT      4 00000000 FFFFFFE6     A    4895  7912
 CRBRANCH      1 00000000 00000000 A   T    3236  3236
 CSRTABLE      1 00000000 00000000 A   T    3256  3256
 CSVARMGR      1 00000000 00000000 A   T    3304  3304
 CSVEXIT       1 00000000 00000000 A   T    3177  3177
 CSVLLCB       1 00000000 00000000 A   T    2777  2777
 CSVLLTRM      1 00000000 00000000 A   T    2778  2778
 CSVMEM        1 00000000 00000000 A   T    3005  3005
 CSVVFGET      1 00000000 00000000 A   T    3569  3569
 CSVVFIND      1 00000000 00000000 A   T    3567  3567
 CVT           1 00000000 FFFFFFED     J    2552  2747   8894U
 CVTBRET       2 00000052 FFFFFFED     H    2802  3315   3394
 CVTPTR        1 00000010 FFFFFFED A   U    2743  8884
 CVTUSER       4 000000CC FFFFFFED     A    2927  8900
 CVTVSTGX      1 00000000 FFFFFFEC     J    3767  3631
 CVTXTNT1      1 00000000 FFFFFFEB     J    3806  2974
 CVTXTNT2      1 00000000 FFFFFFEA     J    3814  3044
 CVT4MS1       1 00000010 FFFFFFED A   U    2827  2835
 CVT6DAT       1 00000002 FFFFFFED A   U    2831  2835
 DFAIDTAB      1 00000000 00000000 A   T    3644  3644
 DISPLOCK      1 00000000 00000000 A   T    1649  1649
 DMPMSG        4 00000C04 00000001     F    6515  9188
 DOCLEAN       4 00000614 00000001     I    9002  8706   9013U
 DODUMP        4 0000066A 00000001     I    9138  8693   9133   9149U
 DOINIT        4 000000A8 00000001     I    6721  6638   6732U
 DOPUT       220 000006E8 00000001     X    9411  9339U  9576   9606U  9659U 10450  10450
 DPS           4 000006E8 00000001     I    9330  9411   9411
 DSALLO        1 00000000 00000020     T   10472 10472
 DUMPDCB       4 00000764 00000001     F    9374  9350   9617
 DUMPWRT       4 000007D0 00000001     I    9430  6977   9441U
 EDEILC        2 00000008 FFFFFFCE     H    6073  6076   6076
 EPAR         15 0000000F FFFFFFFF A   #    1196  6638M  6639B  6647M  6648B  6722   6781M  6782B  6800M  6801B  6845M
                                                  6846B  6900M  6901B  6933M  6934B  6992M  6993B  7076M  7077B  7198M
                                                  7199B  7358M  7359B  7497M  7498B  7629M  7630B  7761M  7762B  7833M
                                                  7834B  7881M  7882B  8053M  8054M  8054   8056B  8122   8457M  8458B
                                                  8506M  8507B  8642M  8643B  8653M  8654B  8693M  8694B  8706M  8707B
                                                  8713M  8714B  8805   9003   9081M  9082M  9082   9084B  9139   9222M
                                                  9223B  9278M  9279M  9279   9281B  9331   9431   9535M  9536B  9587M
                                                  9588B  9674M  9675B  9800M  9801B  9892   9980M  9981B 10067M 10068B
                                                 10106M 10107B 10163M 10164B 10220  10281M 10282B 10327M 10328B 10414M
                                                 10415B
 FLCEAMDID
               1 000000A3 FFFFFFEE     C    2449  2450   2452
1MPMAST   (MPMA00) (09:41) (22MAR04) Ordinary Symbol and Literal Cross Reference                                            Page   57
 FLCEFACILITIESLIST
               4 000000C8 FFFFFFEE     C    2479  2480
 FLCEFACILITIESLISTBYTE0
               1 000000C8 FFFFFFEE     B    2481  2482   2486
 FLCEICOD      2 00000086 FFFFFFEE     H    1389  1390
 FLCENPSW      4 00000058 FFFFFFEE     X    1365  1367
 FLCEOPSW      8 00000018 FFFFFFEE     X    1348  1349
 FLCEPDATA
               4 0000008C FFFFFFEE     C    2400  2401   2417
 FLCEPDATABYTE0
               2 0000008C FFFFFFEE     C    2402  2403   2408
 FLCEPER       8 00000098 FFFFFFEE     C    2442  2443
 FLCEPERATMID
               1 00000097 FFFFFFEE     B    2432  2433
 FLCEPERCODE
               2 00000096 FFFFFFEE     C    2423  2424   2441
 FLCEPERCODE0
               1 00000096 FFFFFFEE     B    2425  2426   2431
 FLCEPICODE
               2 0000008E FFFFFFEE     C    2409  2410
 FLCEPICODE1
               1 0000008F FFFFFFEE     G    2412  2413
 FLCEPIINFORMATION
               4 00000090 FFFFFFEE     C    2418  2419
 FLCEPILC      1 0000008D FFFFFFEE     G    2405  2406
 FLCESAME      8 00000000 FFFFFFEE     D    2382  2511
 FLCESDATA
               4 00000088 FFFFFFEE     C    2390  2391
 FLCESDATABYTE0
               2 00000088 FFFFFFEE     C    2392  2393   2398
 FLCESILC      1 00000089 FFFFFFEE     G    2395  2396
 FLCETEA       8 000000A8 FFFFFFEE     C    2456  2457
 FLCETEASNINFO
               8 000000A8 FFFFFFEE     C    2465  2466
 FLCETEA7      1 000000AF FFFFFFEE     B    2459  2460
 FLCETEID      8 000000A8 FFFFFFEE     C    2454  2455   2464   2469
 FLCETEPCINFO
               8 000000A8 FFFFFFEE     C    2470  2471
 FLCINPSW      4 00000078 FFFFFFEE     X    1379  1381
 FLCIOPSW      8 00000038 FFFFFFEE     X    1357  1358
 FLCIPPSW      8 00000000 FFFFFFEE     C    1338  1341
 FLCMNPSW      4 00000070 FFFFFFEE     X    1375  1378
 FLCMOPSW      8 00000030 FFFFFFEE     X    1355  1356
 FLCPICOD      2 0000008E FFFFFFEE     H    1413  1414
 FLCPIILC      1 0000008D FFFFFFEE     G    1406  1412
 FLCPNPSW      4 00000068 FFFFFFEE     X    1371  1374
 FLCPOPSW      8 00000028 FFFFFFEE     X    1353  1354
 FLCSNPSW      4 00000060 FFFFFFEE     X    1368  1370
 FLCSOPSW      8 00000020 FFFFFFEE     X    1350  1352
 FLCSVCN       2 0000008A FFFFFFEE     H    1400  1403
 FLCSVILC      1 00000089 FFFFFFEE     G    1394  1399
 FMBRANCH      1 00000000 00000000 A   T    3420  3420
 FTDUMP        4 0000000C FFFFFFC9     A    6361  9278
 FTEND         2 00000BEC 00000001     H    6493 10463
 FTINIT        4 00000000 FFFFFFC9     A    6358  8053
 FTPARM        4 00000010 FFFFFFC9     A    6362  8057M  9075   9271
 FTSTART       4 00000BC4 00000001     A    6474  8011   9024   9227
 FTTERM        4 00000004 FFFFFFC9     A    6359  9081
 FUNCTAB      20 00000000 FFFFFFC9     J    6369  8043U  8066   9052U  9093   9255U  9290
1MPMAST   (MPMA00) (09:41) (22MAR04) Ordinary Symbol and Literal Cross Reference                                            Page   58
 GLBRANCH      1 00000000 00000000 A   T    3326  3326
 GMBRANCH      1 00000000 00000000 A   T    3422  3422
 GSTDISP1      1 00000000 0000001A     T   10465 10465
 GSTDUMP       1 00000000 00000009     $    6489  6490
 GSTINIT       1 00000000 00000006     $    6483  6484
 GSTINTF       1 00000000 0000000A     T    6635  6692
 GSTPARM       4 00000BE8 00000001     A    6491  8454   8503   8639
 GSTSTAT       1 00000000 00000008     $    6487  6488
 GSTTERM       1 00000000 00000007     $    6485  6486
 GSTTERMP      1 00000000 0000001C     T   10467 10467
 GVT           1 00000000 00000000 A   T    3188  3188
 HIBAL         1 00000000 FFFFFFFF     J     700   716    729    742    755    768    781    794    807    820    833
                                                   846    859    872    885    898    911   1012   1024   1036   1048
                                                  1060   1072   1084   1096   1108   1120   1132   1144   1156   1168
                                                  1180   1192   1204
 HSPFMIL       1 00000080 FFFFFFE9 A   U    3889  3893   3894
 HSPFORV       1 00000020 FFFFFFE9 A   U    3891  3893   8956
 HSPFORVR      1 00000010 FFFFFFE9 A   U    3892  3894   8948
 HSPFWYL       1 00000040 FFFFFFE9 A   U    3890  3893   3894
 IARMPVT       1 00000000 00000000 A   T    3063  3063
 IARMRRCE      1 00000000 00000000 A   T    3608  3608
 IARPIBR       1 00000000 00000000 A   T    3578  3578
 IARPSIV       1 00000000 00000000 A   T    3402  3402
 IARPSXM       1 00000000 00000000 A   T    3551  3551
 IARXKEY       1 00000000 00000000 A   T    3509  3509
 IARXVIO       1 00000000 00000000 A   T    3403  3403
 ICYMMVTC      1 00000000 00000000 A   T    3834  3834
 IDA121CV      1 00000000 00000000 A   T    3341  3341
 IEABEND       1 00000000 00000000 A   T    2925  2925
 IEACLTE       1 00000000 00000000 A   T    1971  1971
 IEACVT        1 00000000 00000000 A   T    1345  1345   1360
 IEADQIQE      1 00000000 00000000 A   T    3321  3321
 IEAECVT       1 00000000 00000000 A   T    2850  2850
 IEAGSMQ       1 00000000 00000000 A   T    3298  3298
 IEAIHASU      1 00000000 00000000 A   T    3538  3538
 IEALKPT       1 00000000 00000000 A   T    1964  1964
 IEALSMQ       1 00000000 00000000 A   T    3300  3300
 IEAMASCB      1 00000000 00000000 A   T    1498  1498   3268   3272
 IEAPATCH      1 00000000 00000000 A   T    2933  2933
 IEAPDSRT      1 00000000 00000000 A   T    3196  3196
 IEAPTRV       1 00000000 00000000 A   T    3012  3012
 IEAQCDSR      1 00000000 00000000 A   T    2916  2916
 IEAQCS01      1 00000000 00000000 A   T    3308  3308
 IEAQEX00      1 00000000 00000000 A   T    1366  1366
 IEAQIO00      1 00000000 00000000 A   T    1380  1380
 IEAQLPAQ      1 00000000 00000000 A   T    2917  2917
 IEAQPK00      1 00000000 00000000 A   T    1373  1373
 IEAQSC00      1 00000000 00000000 A   T    1369  1369
 IEAQTD00      1 00000000 00000000 A   T    2813  2813
 IEAQTE00      1 00000000 00000000 A   T    2811  2811
 IEARPOST      1 00000000 00000000 A   T    3323  3323
 IEASMFEX      1 00000000 00000000 A   T    3200  3200
 IEASMFSP      1 00000000 00000000 A   T    3546  3546
 IEASPOST      1 00000000 00000000 A   T    3343  3343
 IEASVDCB      1 00000000 00000000 A   T    2804  2804
 IEATCBP       1 00000000 00000000 A   T    2754  2754
 IEATPC        1 00000000 00000000 A   T    2806  2806
 IEATRSCN      1 00000000 00000000 A   T    3164  3164
 IEAVAR02      1 00000000 00000000 A   T    3248  3248
1MPMAST   (MPMA00) (09:41) (22MAR04) Ordinary Symbol and Literal Cross Reference                                            Page   59
 IEAVBLDP      1 00000000 00000000 A   T    3232  3232
 IEAVDELP      1 00000000 00000000 A   T    3235  3235
 IEAVEAC0      1 00000000 00000000 A   T    3325  3325
 IEAVEADV      1 00000000 00000000 A   T    3483  3483
 IEAVEDR1      1 00000000 00000000 A   T    3368  3368
 IEAVELRM      1 00000000 00000000 A   T    3317  3317
 IEAVELT1      1 00000000 00000000 A   T    1735  1735
 IEAVELT2      1 00000000 00000000 A   T    1969  1969
 IEAVENLU      1 00000000 00000000 A   T    3664  3664
 IEAVENQ2      1 00000000 00000000 A   T    3314  3314
 IEAVEQV1      1 00000000 00000000 A   T    3471  3471
 IEAVEQV2      1 00000000 00000000 A   T    3474  3474
 IEAVEQV3      1 00000000 00000000 A   T    3477  3477
 IEAVERI1      1 00000000 00000000 A   T    3370  3370
 IEAVERP1      1 00000000 00000000 A   T    3372  3372
 IEAVERX1      1 00000000 00000000 A   T    3560  3560
 IEAVESC1      1 00000000 00000000 A   T    2261  2261   3499
 IEAVESC2      1 00000000 00000000 A   T    2263  2263
 IEAVESC7      1 00000000 00000000 A   T    2257  2257
 IEAVESC8      1 00000000 00000000 A   T    2259  2259
 IEAVESPR      1 00000000 00000000 A   T    3428  3428
 IEAVESTU      1 00000000 00000000 A   T    3662  3662
 IEAVESVT      1 00000000 00000000 A   T    2265  2265   3434
 IEAVETOT      1 00000000 00000000 A   T    2118  2118
 IEAVETVT      1 00000000 00000000 A   T    2116  2116
 IEAVET6E      1 00000000 00000000 A   T    3534  3534
 IEAVEVT2      1 00000000 00000000 A   T    3488  3488
 IEAVEXPR      1 00000000 00000000 A   T    3296  3296
 IEAVEXP1      1 00000000 00000000 A   T    3465  3465
 IEAVFRCL      1 00000000 00000000 A   T    3234  3234
 IEAVGSDA      1 00000000 00000000 A   T    3479  3479
 IEAVGTCL      1 00000000 00000000 A   T    3233  3233
 IEAVGWSA      1 00000000 00000000 A   T    3328  3328
 IEAVLKRM      1 00000000 00000000 A   T    3035  3035
 IEAVMFRM      1 00000000 00000000 A   T    3413  3413
 IEAVMSGS      1 00000000 00000000 A   T    2982  2982
 IEAVNVT0      1 00000000 00000000 A   T    3647  3647
 IEAVRSTR      1 00000000 00000000 A   T    1340  1340
 IEAVRSUH      1 00000000 00000000 A   T    3526  3526
 IEAVRT03      1 00000000 00000000 A   T    3140  3140
 IEAVSPND      1 00000000 00000000 A   T    3536  3536
 IEAVSTAG      1 00000000 00000000 A   T    3276  3276
 IEAVSVTX      1 00000000 00000000 A   T    2267  2267
 IEAVTCTL      1 00000000 00000000 A   T    3528  3528
 IEAVTEST      1 00000000 00000000 A   T    3039  3039
 IEAVTRGR      1 00000000 00000000 A   T    3336  3336
 IEAVTRG1      1 00000000 00000000 A   T    2785  2785
 IEAVTRV3      1 00000000 00000000 A   T    3032  3032
 IEAVTSBP      1 00000000 00000000 A   T    3282  3282
 IEAVTSFR      1 00000000 00000000 A   T    3003  3003
 IEAVTSGL      1 00000000 00000000 A   T    3280  3280
 IEAVVMSR      1 00000000 00000000 A   T    3061  3061
 IEAVWAIT      1 00000000 00000000 A   T    3303  3303
 IEAVWSAC      1 00000000 00000000 A   T    3334  3334
 IEAVWSAG      1 00000000 00000000 A   T    3332  3332
 IEAVWSAL      1 00000000 00000000 A   T    3330  3330
 IEAVXEXT      1 00000000 00000000 A   T    3411  3411
 IEAVXSFT      1 00000000 00000000 A   T    3378  3378
 IEAVXSTN      1 00000000 00000000 A   T    3384  3384
1MPMAST   (MPMA00) (09:41) (22MAR04) Ordinary Symbol and Literal Cross Reference                                            Page   60
 IEAVXSTS      1 00000000 00000000 A   T    3382  3382
 IEAVXUNN      1 00000000 00000000 A   T    3407  3407
 IEAVXUNS      1 00000000 00000000 A   T    3386  3386
 IEAWTCB       1 00000000 00000000 A   T    3443  3443
 IEA0DS        1 00000000 00000000 A   T    2849  2849
 IEA0EF00      1 00000000 00000000 A   T    2755  2755
 IEA0EF01      1 00000000 00000000 A   T    2795  2795
 IEA0PT0E      1 00000000 00000000 A   T    3515  3515
 IEA0PT01      1 00000000 00000000 A   T    2856  2856
 IEA0PT02      1 00000000 00000000 A   T    3440  3440
 IEA0PT03      1 00000000 00000000 A   T    3517  3517
 IEA0VL00      1 00000000 00000000 A   T    2766  2766
 IEA0VL01      1 00000000 00000000 A   T    3173  3173
 IECIXAVL      1 00000000 00000000 A   T    2841  2841
 IECPCNVT      1 00000000 00000000 A   T    2769  2769
 IECPRLTV      1 00000000 00000000 A   T    2773  2773
 IECVEXCL      1 00000000 00000000 A   T    3405  3405
 IECXAPG       1 00000000 00000000 A   T    2764  2764
 IECXITP       1 00000000 00000000 A   T    2794  2794
 IECXTLER      1 00000000 00000000 A   T    2780  2780
 IEC0SCR1      1 00000000 00000000 A   T    2939  2939
 IEECUCB       1 00000000 00000000 A   T    2810  2810
 IEEMSER       1 00000000 00000000 A   T    2788  2788   2854
 IEEVEXSN      1 00000000 00000000 A   T    3143  3143
 IEEVSTOP      1 00000000 00000000 A   T    3453  3453
 IEFAQTOP      1 00000000 00000000 A   T    3260  3260
 IEFAUSDM      1 00000000 00000000 A   T    2760  2760
 IEFENFDM      1 00000000 00000000 A   T    2919  2919
 IEFJESCT      1 00000000 00000000 A   T    3019  3019
 IEFLINK       1 00000000 00000000 A   T    2757  2757
 IEFQMWR       1 00000000 00000000 A   T    2870  2870
 IEWFBOSV      1 00000000 00000000 A   T    2847  2847
 IEWMSEPT      1 00000000 00000000 A   T    3352  3352
 IFBDCB        1 00000000 00000000 A   T    2836  2836
 IFDOLT0A      1 00000000 00000000 A   T    3198  3198
 IFGDEBVR      1 00000000 00000000 A   T    3829  3829
 IGC043BR      1 00000000 00000000 A   T    3244  3244
 IGC044R2      1 00000000 00000000 A   T    3354  3354
 IGC062R1      1 00000000 00000000 A   T    3324  3324
 IGC07903      1 00000000 00000000 A   T    3469  3469
 IGC124        1 00000000 00000000 A   T    3485  3485
 IGFPMAIN      1 00000000 00000000 A   T    1376  1376
 IGFRVT        1 00000000 00000000 A   T    2934  2934
 IGVCPBDB      1 00000000 00000000 A   T    3600  3600
 IGVCPDLB      1 00000000 00000000 A   T    3602  3602
 IGVCPFRE      1 00000000 00000000 A   T    3592  3592
 IGVCPGTC      1 00000000 00000000 A   T    3590  3590
 IGVCPGUB      1 00000000 00000000 A   T    3584  3584
 IGVCPGUP      1 00000000 00000000 A   T    3587  3587
 IGVCPGUS      1 00000000 00000000 A   T    3610  3610
 IGVGCAS       1 00000000 00000000 A   T    3238  3238
 IGVGFAS       1 00000000 00000000 A   T    3242  3242
 IGVGRRGN      1 00000000 00000000 A   T    3614  3614
 IGVGVRGN      1 00000000 00000000 A   T    3616  3616
 IGVQSPET      1 00000000 00000000 A   T    3240  3240
 IGVSLIST      1 00000000 00000000 A   T    3594  3594
 IGVSLOC       1 00000000 00000000 A   T    3598  3598
 IGVSREGN      1 00000000 00000000 A   T    3596  3596
 IGVSTSKI      1 00000000 00000000 A   T    3581  3581
1MPMAST   (MPMA00) (09:41) (22MAR04) Ordinary Symbol and Literal Cross Reference                                            Page   61
 IHAMPL        1 00000000 00000000 A   T    1454  1454
 IHB0677C      2 0000002C 00000001     H    6599  6593B
 IHB0677F      1 00000028 00000001     B    6595  6601
 IHB0677L      4 00000024 00000001     A    6594  6600
 IHB1756A      2 00000470 00000001     H    8263  8257B
 IHB2799A      2 00000990 00000001     H   10093 10087B
 IHB2948A      2 00000A4C 00000001     H   10353 10347B
 ILRJTERM      1 00000000 00000000 A   T    3523  3523
 IOSDUMP       1 00000000 00000005     $    6479  6480
 IOSERV        1 00000000 0000000B     T    6693  6693
 IOSHTERM      1 00000000 0000001D     T   10469 10469
 IOSINIT       1 00000000 00000002     $    6473  6474
 IOSLOCK       1 00000000 00000000 A   T    1679  1679
 IOSSTAT       1 00000000 00000004     $    6477  6478
 IOSTERM       1 00000000 00000003     $    6475  6476
 IOSVDEVN      1 00000000 00000000 A   T    3540  3540
 IOSVHID       1 00000000 00000000 A   T    3550  3550
 IOSVSUCB      1 00000000 00000000 A   T    3553  3553
 IPLTEXT       1 00000000 00000011     T    6699  6699
 IRARMCNS      1 00000000 00000000 A   T    3294  3294
 IRARMEPS      1 00000000 00000000 A   T    3512  3512
 IRARMI00      1 00000000 00000000 A   T    3251  3251
 ISNBRNCH      1 00000000 00000000 A   T    3409  3409
 JSALLO        1 00000000 00000021     T   10473 10473
 MAIN          4 00000402 00000001     I    8121  6647   8132U
 MDFYMSG       4 00000C34 00000001     F    6523  8314   8340
 MEMFREE       1 00000000 00000019     T   10461 10461
 MEMGET        1 00000000 00000017     T   10458 10458
 MEMSERV       1 00000000 0000000C     T    6694  6694
 MEMTA16M     16 00000002 FFFFFFDC         5402  6897M  6930M
 MFA16M       16 00000009 FFFFFFCA         6303  7830M 10160M 10411M
 MGA16M       16 00000009 FFFFFFCB         6219  7072   7072   7073M  9976   9976   9977M 10277  10277  10278M
 MGBEST        1 00000009 FFFFFFCB         6255  7072   7072   9976   9976  10277  10277
 MODTAB        4 00000078 00000001     V    6692  6608   6620   6701   6701
 MODTABC       1 00000009 00000001 A   U    6701  6607
 MPINIT        4 00000016 00000001     I    6578  6577   6587U
 MPIWKEY1      8 00000004 FFFFFFC7     C    6551  7100M  7266M
 MPIWKEY2      8 0000000C FFFFFFC7     C    6552  7270M  7409M  7541M  7673M
 MPIWORK     112 00000000 FFFFFFC7     J    6562  7062   7087U  7821
 MPIWPARM      4 00000000 FFFFFFC7     X    6550  7094U
 MPIWSTR      80 00000020 FFFFFFC7     C    6555  7167   7227   7327   7387   7466   7526   7598   7658
 MPIWVAL       4 0000001C FFFFFFC7     A    6554  7730   7747   7777
 MPMAST        1 00000000 00000001     J    1219  1216   1217   1221   5039   5114   5192   5222   5246   5269   5298
                                                  5362   5529   5557   5583   5677   5703   5757   5819   5841   5861
                                                  5914   5933   5953   6027   6054   6086   6112   6182   6266   6341
                                                  6370   6451   6533   6563   7233   7393   7532   7664   8333   9867
 MPMAST        1 00000000 0000000E     T    6696  6696
 MPMA00        1 00000000 00000001     R    1228  1226
 MSGSERV       1 00000000 0000000D     T    6695  6695
 MVSCIB        1 00000000 FFFFFFE5     J    4904  7927U  8230U
 MVSCOMM       1 00000000 FFFFFFE6     J    4872  7908U  8216U
 MVSSAVE       4 00000BC0 00000001     A    6468  6589M  6649
 OPARM         4 00000760 00000001     F    9366  9615
 OPTLOCK       1 00000000 00000000 A   T    1660  1660
 PARMDO        1 00000000 00000018     T   10459 10459
 PARMFINT      4 00000000 FFFFFFDD         5330  7758M
 PARMFSTR      0 00000000 FFFFFFDD         5320  7195M  7355M  7494M  7626M
 PARMIN        4 00000000 FFFFFFDD     J    5361  6550   7094U  7133   7150   7293   7310   7432   7449   7564   7581
                                                  7696   7713
1MPMAST   (MPMA00) (09:41) (22MAR04) Ordinary Symbol and Literal Cross Reference                                            Page   62
 PARMINIT      1 00000000 00000014     T   10454 10454
 PARMS         1 00000000 00000010     T    6698  6698
 PARMTYPE      1 00000000 FFFFFFDD     R    5311  5320   5330   5340   5350
 POOLGET       1 00000000 00000015     T   10455 10455
 PSA           1 00000000 FFFFFFEE     J    1336  1334U  2282   2512   8830U
 PSADTSAV      8 000006C0 FFFFFFEE     D    2082  2085   2086
 PSAEMS2S      4 0000026C FFFFFFEE     F    1615  1619
 PSAGSAV      64 000008A8 FFFFFFEE     X    2167  2169   2170
 PSAIPCIN      4 00000268 FFFFFFEE     F    1608  1612
 PSAJSTSA     64 00000998 FFFFFFEE     X    2216  2220   2221
 PSARTM1R      4 000003FC FFFFFFEE     F    1842  1847
 PSARV7E8      4 000007E8 FFFFFFEE     X    2098  2099   2100
 PSASLSA      72 00000950 FFFFFFEE     X    2208  2214   2215
 PSASTOSM      4 00000270 FFFFFFEE     F    1622  1631
 PSATNEW       4 00000218 FFFFFFEE     A    1492  1495   8832
 PUTLOC        4 00000706 00000001     I    9350  9343
 PUTSAVE       4 00000718 00000001     A    9364  9342
 PUTSTK        4 00000714 00000001     A    9363  9341M  9345
 RA            2 00000002 FFFFFFFF A   #    1028  7898M  7908U  8206M  8216U  9343M  9344B  9542M  9594M  9596M  9663M
                                                  9666
 RAR          14 0000000E FFFFFFFF A   #    1184  6639M  6648M  6782M  6801M  6846M  6901M  6934M  6993M  7077M  7199M
                                                  7359M  7498M  7630M  7762M  7834M  7882M  8056M  8094B  8458M  8507M
                                                  8643M  8654M  8694M  8707M  8714M  8773B  8978B  9084M  9110B  9223M
                                                  9281M  9312B  9347B  9536M  9588M  9675M  9801M  9836B  9981M 10068M
                                                 10107M 10164M 10189B 10282M 10328M 10415M 10429B
 RB            3 00000003 FFFFFFFF A   #    1040  7917M  7927U  7950   8011M  8024   8043U  8066M  8220M  8230U  8520
                                                  8832M  8850U  8856M  8884M  8894U  8900M  8917M  8917   8935U  9024M
                                                  9037   9052U  9093M  9188M  9192   9227M  9240   9255U  9290M  9344M
                                                  9354B  9594M  9595   9664M  9665  10079M 10165  10339M
 RK            5 00000005 FFFFFFFF A   #    1064  7078M  7087U  7823   9462M  9472U  9982M  9992U 10064  10153  10283M
                                                 10293U 10324  10404
 RMBRANCH      1 00000000 00000000 A   T    3419  3419
 RS            1 00000001 FFFFFFFF A   #    1016  6998M  7008U  7215M  7218M  7220   7375M  7378M  7380   7514M  7517M
                                                  7519   7646M  7649M  7651   7912M  7913   8005M  8006   8189M  8314M
                                                  8337   8340M  9595M
 RSMLOCK       1 00000000 00000000 A   T    1672  1672
 RTCB        176 00000000 FFFFFFE2     J    5191  6794U  8164U
 RTCBADDR      4 00000BB8 00000001     A    6466  6784M  8154
 RTCBCBAT      4 00000004 FFFFFFE2     A    5136  6998
 RTCBR         9 00000009 FFFFFFFF A   #    1124  6783M  6784   6794U  8154M  8164U
 RVR           0 00000000 FFFFFFFF A   #    1004  6783   6847   6902   6935   6977M  7062M  7063   7078   7133M  7150M
                                                  7167M  7184M  7208M  7208   7293M  7310M  7327M  7344M  7368M  7368
                                                  7432M  7449M  7466M  7483M  7507M  7507   7564M  7581M  7598M  7615M
                                                  7639M  7639   7696M  7713M  7730M  7747M  7771M  7771   7821M  7822
                                                  8033M  8033   8057   9537   9589   9596M  9666M  9763M  9780M  9966M
                                                  9967   9982  10079  10151M 10152  10165M 10267M 10268  10283  10339
                                                 10402M 10403
 RX            6 00000006 FFFFFFFF A   #    1076  6847M  6857U  6997   7014   7875   8140M  8150U  9157M  9167U
 RY            7 00000007 FFFFFFFF A   #    1088  9589M  9590   9606U  9649M  9659U  9923M  9933U
 R0            0 00000000 FFFFFFFF A   #     708  6607M  6721   6834M  6835   6889M  6890   6922M  6923   8121   8804
                                                  8830U  9002   9138   9330   9346M  9430   9524M  9525   9576M  9577
                                                  9891  10219
 R1            1 00000001 FFFFFFFF A   #     721  6604   6608M  6620M  6753M  6753   8092M  8771M  8976M  9108M  9310M
                                                  9834M 10187M 10427M
 R12          12 0000000C FFFFFFFF A   #     864  6578   6650M
 R13          13 0000000D FFFFFFFF A   #     877  6578   6589   6649M  6650
 R14          14 0000000E FFFFFFFF A   #     890  6578   6650M  6655B
 R15          15 0000000F FFFFFFFF A   #     903  6579   6615M  6654M  6654   6721   7961M  7961   8092M  8121   8294M
                                                  8297   8309M  8318M  8320   8531M  8531   8771M  8804   8976M  9002
1MPMAST   (MPMA00) (09:41) (22MAR04) Ordinary Symbol and Literal Cross Reference                                            Page   63
                                                  9108M  9138   9310M  9330   9346M  9430   9834M  9891  10187M 10219
                                                 10427M
 SALCLOCK      1 00000000 00000000 A   T    1652  1652
 SCIPCVT       1 00000000 FFFFFFE9     J    3884  8935U
 SCVHSPFL      1 00000004 FFFFFFE9     X    3888  8950M  8958M
 SDPARM        4 00000BEC 00000001     F    6500  8746
 SEG           1 00000000 0000001F     T   10471 10471
 SEGADD        4 00000000 FFFFFFD0     A    5968  9537M  9542   9663
 SEGBLEN       2 00000008 FFFFFFD0     Y    5970  9538M
 SEGCBD       40 00000000 FFFFFFD0     J    6026  6922   9472U
 SEGCNT        2 0000000A FFFFFFD0     H    5971  9551M  9664   9715M
 SEGFEOB       2 00000010 FFFFFFD0         6005  9688
 SEGFINIT      0 00000010 FFFFFFD0         5985  9488
 SEGFLG1       1 00000010 FFFFFFD0     R    5976  5985   5995   6005   6015
 SEGFOVER      3 00000010 FFFFFFD0         6015  9727
 SEGINIT       1 00000000 00000016     T   10457 10457
 SEGMCNT       2 0000000C FFFFFFD0     H    5972  9552M  9716M
 SEGRCNT       2 0000000E FFFFFFD0     H    5973  9553M  9717M
 SEGUSER       4 00000014 FFFFFFD0     A    6019  9590M  9649
 SETCLOCK      1 00000000 0000001B     T   10466 10466
 SPR          13 0000000D FFFFFFFF A   #    1172  6605M  6606   6721   6736   6737   6739M  6769U  6818U  6949U  7047U
                                                  7113U  7806U  7866U  8121   8136   8137   8139M  8441U  8804   8819
                                                  8820   8822M  9002   9017   9018   9020M  9066U  9138   9153   9154
                                                  9156M  9210U  9330   9341   9342M  9345M  9346   9430   9445   9446
                                                  9461M  9508U  9746U  9891   9906   9907   9922M  9951U 10055U 10136U
                                                 10219  10234  10235  10237M 10252U 10315U 10387U
 STACKPTR      4 00000BBC 00000001     A    6467  6606M  6778
 STOPBAT       4 000005B6 00000001     I    8804  8799   8815U 10468
 TASKDUMP      1 00000000 0000001E     T   10470 10470
 TASKINIT      1 00000000 00000013     T   10453 10453
 TASKSERV      1 00000000 00000012     T    6700  6700
 TCB           1 00000020 FFFFFFE8     U    4118  4817   8850U
 TCBAE         4 000000BC FFFFFFE8     A    4362  4365
 TCBDARPN      1 00000040 FFFFFFE8 A   U    4408  4410
 TCBDARTN      1 00000080 FFFFFFE8 A   U    4405  4407
 TCBFIX        1 00000000 FFFFFFE8     J    4106  4113
 TCBMNLEN      1 00000158 FFFFFFE8 A   U    4817  4862
 TCBPXLEN      1 00000020 FFFFFFE8 A   U    4113  4862
 TCBRD         4 000000B8 FFFFFFE8     A    4357  4361
 TCBTIO        4 0000002C FFFFFFE8     A    4126  8856
 TCBXTNT2      1 00000000 FFFFFFE7     J    4822  4860
 TCBX2LEN      1 00000020 FFFFFFE7 A   U    4860  4862
 TEXTCONV      1 00000000 0000000F     T    6697  6697
 TMCB        124 00000000 FFFFFFC8     J    6450  6834   6857U  6867M  6867   6868M  8150U  9167U  9933U
 TMCBADDR      4 00000BB4 00000001     A    6465  6997M  8140   9157
 TMCBCOMA      4 00000014 FFFFFFC8     A    6425  7891   7898   8206
 TMCBDSN      44 0000003C FFFFFFC8     C    6440  7248M  7248   7344   7374M  7387M  7848M  7848   9996
 TMCBECB       4 00000010 FFFFFFC8     A    6423  8005   8574
 TMCBECBA      4 0000000C FFFFFFC8     A    6422  8006M  8007M
 TMCBEPL       4 00000020 FFFFFFC8     A    6430  7890
 TMCBFLG       1 00000004 FFFFFFC8     R    6393  6397   6402   6407
 TMCBGDG       8 0000006E FFFFFFC8     C    6442  7255M  7255   7401M  7401   7483   7513M  7526M 10021M 10021  10027
 TMCBNAME      8 0000002C FFFFFFC8     C    6434  7099M  7184   7214M  7227M  9182   9189
 TMCBPFLG      1 00000005 FFFFFFC8     R    6412  6416
 TMCBSCB       4 0000001C FFFFFFC8     A    6427  6935M  6989   9219   9272
 TMCBSMEA      4 00000008 FFFFFFC8     A    6421  7913M  8183   8189
 TMCBSTK       4 00000018 FFFFFFC8     A    6426  6902M
 TMCBTRK       4 00000078 FFFFFFC8     A    6443  7262M  7262   7777M 10039
 TMCBVOL       6 00000068 FFFFFFC8     C    6441  7615   7645M  7658M  9998
1MPMAST   (MPMA00) (09:41) (22MAR04) Ordinary Symbol and Literal Cross Reference                                            Page   64
 TMFABEND     32 00000004 FFFFFFC8         6407  8398   8398   8618   8727
 TMFDUMP     128 00000004 FFFFFFC8         6397  8398   8398   8399M  8606   8679
 TRCELOCK      1 00000000 00000000 A   T    1676  1676
 VFIXLOCK      1 00000000 00000000 A   T    1662  1662
 VPAGLOCK      1 00000000 00000000 A   T    1667  1667
 WAR          12 0000000C FFFFFFFF A   #    1160  6604M  6736   6737M  6738   6739   8092   8093   8136   8137M  8138
                                                  8139   8771   8772   8819   8820M  8821   8822   8976   8977   9017
                                                  9018M  9019   9020   9108   9109   9153   9154M  9155   9156   9310
                                                  9311   9445   9446M  9447   9457U  9461   9834   9835   9906   9907M
                                                  9908   9918U  9922  10187  10188  10234  10235M 10236  10237  10427
                                                 10428
 =A(ALLOSYSM)
               4 00000B44 00000001     A   10462  7881
 =A(DOPUT,L'DOPUT)
               4 00000AE0 00000001     A   10450  9594
 =A(FTEND)
               4 00000B48 00000001     A   10463  8024   9037   9240
 =A(STOPBAT)
               4 00000B5C 00000001     A   10468  8653
 =A(24)        4 00000B4C 00000001     A   10464  8297   8309
 =C'-- OV --> '
              10 00000B92 00000001     C   10479  9763
 =C'CANCEL '
               7 00000BA6 00000001     C   10482  8385
 =C'CIB FREE ERROR'
              14 00000B7A 00000001     C   10475  7972   8542
 =C'DISP1 '
               6 00000B88 00000001     C   10476  8426
 =C'DUMP '
               5 00000BA1 00000001     C   10481  8372
 =C'ORVYL'
               5 00000BAD 00000001     C   10483  8875   9182
 =C'SETCLOCK'
               8 00000AD8 00000001     C   10449  8482
 =C'STOP '
               5 00000B9C 00000001     C   10480  8351
 =C'TMCB'      4 00000B04 00000001     C   10456  6868
 =CL24' '     24 00000AC0 00000001     C   10448  8315
 =CL44' '     44 00000B14 00000001     C   10460  7374
 =CL6' '       6 00000B74 00000001     C   10474  7645
 =CL8' '       8 00000A90 00000001     C   10442  7214   7513
 =CL8'DSNAME'
               8 00000AA0 00000001     C   10444  7270
 =CL8'GDG'
               8 00000AA8 00000001     C   10445  7409
 =CL8'SYSDUMP'
               8 00000A98 00000001     C   10443  7266
 =CL8'SYSMDUMP'
               8 00000AE8 00000001     C   10451  9997
 =CL8'SYSNAME'
               8 00000A88 00000001     C   10441  7100
 =CL8'SYSUDUMP'
               8 00000AF0 00000001     C   10452 10297
 =CL8'TORVYL'
               8 00000A80 00000001     C   10440  7099
 =CL8'TRACKS'
               8 00000AB8 00000001     C   10447  7673
 =CL8'VOLUME'
               8 00000AB0 00000001     C   10446  7541
1MPMAST   (MPMA00) (09:41) (22MAR04) Ordinary Symbol and Literal Cross Reference                                            Page   65
 =H'140'       2 00000B8E 00000001     H   10477  9538
 =H'5'         2 00000B90 00000001     H   10478  9551   9552   9553   9715   9716   9717
 =V(DSALLO)
               4 00000B6C 00000001     V   10472 10067
 =V(GSTDISP1)
               4 00000B50 00000001     V   10465  8457
 =V(GSTTERMP)
               4 00000B58 00000001     V   10467  8642
 =V(IOSHTERM)
               4 00000B60 00000001     V   10469  8713
 =V(JSALLO)
               4 00000B70 00000001     V   10473 10327
 =V(MEMFREE)
               4 00000B40 00000001     V   10461  7833  10163  10414
 =V(MEMGET)
               4 00000B0C 00000001     V   10458  7076   9980  10281
 =V(PARMDO)
               4 00000B10 00000001     V   10459  7198   7358   7497   7629   7761
 =V(PARMINIT)
               4 00000AFC 00000001     V   10454  6800
 =V(POOLGET)
               4 00000B00 00000001     V   10455  6845   6900   6933   9535   9587
 =V(SEG)       4 00000B68 00000001     V   10471  9800
 =V(SEGINIT)
               4 00000B08 00000001     V   10457  6992
 =V(SETCLOCK)
               4 00000B54 00000001     V   10466  8506
 =V(TASKDUMP)
               4 00000B64 00000001     V   10470  9222
 =V(TASKINIT)
               4 00000AF8 00000001     V   10453  6781

1MPMAST   (MPMA00) (09:41) (22MAR04) Macro and Copy Code Source Summary                                                     Page   66
- Con Source                                        Volume    Members                        HLASM R4.0  2004/03/22 09.41
0     PRIMARY INPUT                                           CSECT    DROP     END      EX       FTGEN    LTORG    POP
                                                              PRINT    PUSH     START    USING
   L2 WYL.GG.ORV.MACLIB                             SYSB02    $LKPARM  ACALL    CBAT     CPTPARM  DSALPARM ESTAPARM
                                                              FUNCPARM HEADER   JSALPARM LCALL    MEMFREE  MEMGET
                                                              MEMPARM  MODULE   MOVSTR   PARMPARM PEND     PMOV
                                                              POOLGET  POOLPARM PROC     PSET     REG      RTCB     SEG
                                                              SEGCBD   SEGINIT  SEGLD    SEGPARM  SPLEVEL  TASKPARM TMCB
                                                              VCALL
   L3 WYL.GG.SYS.MACLIB                             SYSB05    $BC      $BFLKUP  $BV      $CCLKUP  $CRS     $CSS     $L
                                                              $LA      $LBLAD   $LEXP    $LOR     $REL     $RGLKUP
                                                              $USLKUP  AUSING   BEGIN    CEIL     CLEAR    CSECT    DATA
                                                              DEFCC    DEX      DROP     ELSE     ELSEIF   END      EX
                                                              EXIT     FLAG     GEN      HIBAL    IDENT    IF
                                                              LABEL    LOOP     LTORG    POP      PRINT    PUSH
                                                              RECORD   REGS     SET      START    STF      UNTIL
                                                              USING    WHILE    WITH
   L4 SYS3.MACLIB                                   SYSB02    QSNAP    SCIPCVT
   L5 SYS1.MACLIB                                   MVSBR9    ABEND    CVT      DCB      ESTAE    EXTRACT  GETMAIN
                                                              IEZCIB   IEZCOM   IHAPSA   IHAPSAE  IHBINNRA IHBINNRR
                                                              IHB01    IKJTCB   MODESET  OPEN     PUT      QEDIT    SNAP
                                                              STATUS   SYSEVENT SYSSTATE WAIT     WTO

1         (MPMA00) (09:41) (22MAR04) General Purpose Register Cross Reference                                               Page   67
- Register  References (M=modified, B=branch, U=USING, D=DROP, N=index)                      HLASM R4.0  2004/03/22 09.41
0    0(0)      991U   992D  1334U  2548U  2549D  6578   6600M  6607M  6626M  6650M  6655M  6721   6755M  6783   6834M
              6835   6847   6889M  6890   6902   6922M  6923   6935   6977M  6982   7062M  7063   7078   7133M  7138
              7150M  7155   7167M  7172   7184M  7189   7208M  7208   7293M  7298   7310M  7315   7327M  7332   7344M
              7349   7368M  7368   7432M  7437   7449M  7454   7466M  7471   7483M  7488   7507M  7507   7564M  7569
              7581M  7586   7598M  7603   7615M  7620   7639M  7639   7696M  7701   7713M  7718   7730M  7735   7747M
              7752   7771M  7771   7821M  7822   7951M  7972M  7994M  7995M  7995   8033M  8033   8057   8121   8181M
              8521M  8542M  8657M  8665M  8741M  8742M  8743   8746M  8804   8839D  9002   9138   9330   9346M  9430
              9524M  9525   9537   9576M  9577   9589   9596M  9617M  9618   9666M  9763M  9768   9780M  9785   9891
              9966M  9967   9982  10079  10151M 10152  10165M 10219  10267M 10268  10283  10339  10402M 10403
     1(1)      987U  6578   6602M  6602   6604   6608M  6620M  6650M  6721   6746M  6748M  6748   6753M  6753   6998M
              7008U  7021U  7215M  7218M  7220   7375M  7378M  7380   7514M  7517M  7519   7646M  7649M  7651   7890M
              7892N  7894N  7895   7896   7912M  7913   7950M  7992M  7993M  7993   8005M  8006   8092M  8121   8183M
              8184M  8184   8189M  8257M  8314M  8337M  8337   8340M  8520M  8658M  8658   8740M  8743M  8771M  8804
              8976M  9002   9108M  9138   9192M  9310M  9330   9346M  9350M  9352   9430   9595M  9596M  9615M  9616N
              9618N  9619N  9834M  9891  10087M 10187M 10219  10347M 10427M
     2(2)      983U  6578   6650M  6721   7898M  7908U  8002U  8092M  8121   8206M  8216U  8557U  8771M  8804   8941M
              8961   8976M  9002   9108M  9138   9310M  9330   9343M  9344B  9346M  9430   9542M  9594M  9596M  9663M
              9666   9834M  9891  10187M 10219  10427M
     3(3)      979U  6578   6650M  6721   7917M  7927U  7950   7986U  8011M  8024   8043U  8064U  8066M  8092M  8121
              8220M  8230U  8520   8552U  8771M  8804   8832M  8850U  8856M  8863U  8884M  8894U  8900M  8907U  8917M
              8917   8935U  8968U  8976M  9002   9024M  9037   9052U  9091U  9093M  9108M  9138   9188M  9192   9227M
              9240   9255U  9288U  9290M  9310M  9330   9344M  9346M  9354B  9430   9594M  9595   9596M  9664M  9665
              9834M  9891  10079M 10165  10187M 10219  10339M 10427M
     4(4)      975U  6578   6650M  6721   8092M  8121   8771M  8804   8976M  9002   9108M  9138   9310M  9330   9346M
              9430   9834M  9891  10187M 10219  10427M
     5(5)      971U  6578   6650M  6721   7078M  7087U  7790U  7823   8092M  8121   8771M  8804   8976M  9002   9108M
              9138   9310M  9330   9346M  9430   9462M  9472U  9797   9821U  9834M  9891   9982M  9992U 10064  10117U
             10153  10187M 10219  10283M 10293U 10324  10368U 10404  10427M
     6(6)      967U  6578   6650M  6721   6847M  6857U  6997   7014   7875   8082U  8092M  8121   8140M  8150U  8763U
              8771M  8804   8976M  9002   9108M  9138   9157M  9167U  9302U  9310M  9330   9346M  9430   9834M  9891
             10187M 10219  10427M
     7(7)      963U  6578   6650M  6721   8092M  8121   8771M  8804   8976M  9002   9108M  9138   9310M  9330   9346M
              9430   9589M  9590   9606U  9626U  9649M  9659U  9674   9811U  9834M  9891   9923M  9933U 10174U 10187M
             10219  10427M
     8(8)      959U  6578   6650M  6721   8092M  8121   8771M  8804   8976M  9002   9108M  9138   9310M  9330   9346M
              9430   9834M  9891  10187M 10219  10427M
     9(9)      955U  6578   6650M  6721   6783M  6784   6794U  7028U  8092M  8121   8154M  8164U  8758U  8771M  8804
              8976M  9002   9108M  9138   9310M  9330   9346M  9430   9834M  9891  10187M 10219  10427M
    10(A)      951U  6578   6579M  6587U  6650M  6670U  6721   6722M  6732U  8089U  8092M  8121   8122M  8132U  8768U
              8771M  8804   8805M  8815U  8973U  8976M  9002   9003M  9013U  9105U  9108M  9138   9139M  9149U  9307U
              9310M  9330   9331M  9339U  9346M  9360U  9430   9431M  9441U  9831U  9834M  9891   9892M  9902U 10184U
             10187M 10219  10220M 10230U 10424U 10427M
    11(B)      947U  3162B  3163B  6578   6650M  6721   8092M  8121   8771M  8804   8976M  9002   9108M  9138   9310M
              9330   9346M  9430   9834M  9891  10187M 10219  10427M
    12(C)      943U  6578   6604M  6650M  6721   6736   6737M  6738   6739   8092M  8092   8093   8121   8136   8137M
              8138   8139   8771M  8771   8772   8804   8819   8820M  8821   8822   8976M  8976   8977   9002   9017
              9018M  9019   9020   9108M  9108   9109   9138   9153   9154M  9155   9156   9310M  9310   9311   9330
              9346M  9430   9445   9446M  9447   9457U  9461   9826U  9834M  9834   9835   9891   9906   9907M  9908
              9918U  9922  10179U 10187M 10187  10188  10219  10234  10235M 10236  10237  10427M 10427  10428
    13(D)      939U  6578   6589   6605M  6606   6649M  6650   6721   6721   6736   6737   6739M  6769U  6815U  6818U
              6946U  6949U  7044U  7047U  7110U  7113U  7803U  7806U  7863U  7866U  8092M  8100U  8121   8121   8136
              8137   8139M  8441U  8771M  8779U  8804   8804   8819   8820   8822M  8976M  9002   9002   9017   9018
              9020M  9066U  9108M  9116U  9138   9138   9153   9154   9156M  9210U  9310M  9318U  9330   9330   9341
              9342M  9345M  9346M  9346   9430   9430   9445   9446   9461M  9508U  9743U  9746U  9834M  9842U  9891
              9891   9906   9907   9922M  9951U 10052U 10055U 10133U 10136U 10187M 10195U 10219  10219  10234  10235
1         (MPMA00) (09:41) (22MAR04) General Purpose Register Cross Reference                                               Page   68
             10237M 10252U 10312U 10315U 10384U 10387U 10427M 10435U
    14(E)      935U  6578   6639M  6648M  6650M  6655B  6721   6782M  6801M  6846M  6901M  6934M  6993M  7077M  7199M
              7359M  7498M  7630M  7762M  7834M  7882M  7891M  7892   7893M  7893   7894   8056M  8092M  8094B  8121
              8458M  8507M  8643M  8654M  8694M  8707M  8714M  8771M  8773B  8804   8976M  8978B  9002   9084M  9108M
              9110B  9138   9223M  9281M  9310M  9312B  9330   9346M  9347B  9353M  9430   9536M  9588M  9616M  9619
              9675M  9801M  9834M  9836B  9891   9981M 10068M 10107M 10164M 10187M 10189B 10219  10282M 10328M 10415M
             10427M 10429B
    15(F)      931U  3624M  3624   6578   6579   6601M  6615M  6638M  6639B  6647M  6648B  6650M  6654M  6654   6721
              6722   6781M  6782B  6800M  6801B  6845M  6846B  6900M  6901B  6933M  6934B  6992M  6993B  7076M  7077B
              7198M  7199B  7358M  7359B  7497M  7498B  7629M  7630B  7761M  7762B  7833M  7834B  7881M  7882B  7961M
              7961   8053M  8054M  8054   8056B  8092M  8121   8122   8294M  8297   8309M  8318M  8320   8457M  8458B
              8506M  8507B  8531M  8531   8642M  8643B  8653M  8654B  8693M  8694B  8706M  8707B  8713M  8714B  8771M
              8804   8805   8976M  9002   9003   9081M  9082M  9082   9084B  9108M  9138   9139   9222M  9223B  9278M
              9279M  9279   9281B  9310M  9330   9331   9346M  9351M  9351   9352M  9353B  9430   9431   9535M  9536B
              9587M  9588B  9674M  9675B  9800M  9801B  9834M  9891   9892   9980M  9981B 10067M 10068B 10106M 10107B
             10163M 10164B 10187M 10219  10220  10281M 10282B 10327M 10328B 10414M 10415B 10427M

1MPMAST   (MPMA00) (09:41) (22MAR04) Diagnostic Cross Reference and Assembler Summary                                       Page   69
-                                                                                            HLASM R4.0  2004/03/22 09.41
0     No Statements Flagged in this Assembly
 HIGH LEVEL ASSEMBLER, 5696-234, RELEASE 4.0, PTF UQ57391
0SYSTEM: OS/390 02.10.00            JOBNAME: PJG#MSTR    STEPNAME: ASM        PROCSTEP: (NOPROC)
0Datasets Allocated for this Assembly
  Con DDname   Dataset Name                                 Volume  Member
   P1 SYSIN    SYS04082.T094132.RA000.PJG#MSTR.INPUT.H01    SCR101
   L1 SYSLIB   SYS3.DUMMYMAC                                SYSB02
   L2          WYL.GG.ORV.MACLIB                            SYSB02
   L3          WYL.GG.SYS.MACLIB                            SYSB05
   L4          SYS3.MACLIB                                  SYSB02
   L5          SYS1.MACLIB                                  MVSBR9
      SYSLIN   WYL.GG.PJG.OBJ                               SYSB05  MASTER
      SYSPRINT SYS04082.T094132.RA000.PJG#MSTR.PRINT.H01    SCR100
      SYSTERM  GG$PJG.PJG#MSTR.JOB05945.D0000103.?

    7812K allocated to Buffer Pool,         3217K would be required for this to be an In-Storage Assembly
     791 Primary Input Records Read        21486 Library Records Read                  0 Work File Reads
       0 ASMAOPT Records Read               4628 Primary Print Records Written         0 Work File Writes
      89 Punch Records Written                 0 ADATA Records Written
0Assembly Start Time: 09.41.34 Stop Time: 09.41.42 Processor Time: 00.00.02.2817
 Return Code 000
