1                        J E S 2  J O B  L O G  --  S Y S T E M  S Y S B  --  N O D E  R L G
0
 09.40.32 JOB05940 ---- MONDAY,    22 MAR 2004 ----
 09.40.32 JOB05940  ICH70001I GG$PJG   LAST ACCESS AT 09:40:05 ON MONDAY, MARCH 22, 2004
 09.40.32 JOB05940  $HASP373 PJG#IOSV STARTED - INIT 3    - CLASS E - SYS SYSB
 09.40.32 JOB05940  ***  HCMD      STEP $$QUIET
 09.40.32 JOB05940  PURGE * Q=OUTPUT MULTIPLE
 09.40.32 JOB05940  JOB PJG#IOSV NOT IN OUTPUT QUEUE
 09.40.33 JOB05940  PJG#IOSV.$$QUIET .         RC=0008 TapeIO=0000 DiskIO=0000 CPU=  .01s Elapsed=32.02s
 09.40.33 JOB05940  PJG#IOSV.$CND    .         RC=Zero TapeIO=0000 DiskIO=0003 CPU=  .01s Elapsed=33.06s
 09.40.33 JOB05940  PJG#IOSV.$UNP    .         RC=Zero TapeIO=0000 DiskIO=0112 CPU=  .09s Elapsed=33.25s
 09.41.02 JOB05940  PJG#IOSV.ASM     .         RC=Zero TapeIO=0000 DiskIO=1866 CPU=12.94s Elapsed=33.70s
 09.41.07 JOB05940  PJG#IOSV.$EDIT   .         RC=Zero TapeIO=0000 DiskIO=0590 CPU= 2.28s Elapsed=62.46s
 09.41.07 JOB05940  PJG#IOSV Ended.  Name=Module: IOSERV                 Total CPU=15.33s Elapsed=32.02s
 09.41.07 JOB05940
 09.41.07 JOB05940  Execution charges   Priority=Standard   Block=Day
 09.41.07 JOB05940
 09.41.07 JOB05940  CPU Usage         282.75         $175.30   Standard Processing Unit Equivalent
 09.41.07 JOB05940                                   =======
 09.41.07 JOB05940                                   $175.30   Total Job execution charge
 09.41.07 JOB05940
 09.41.07 JOB05940  See back separator page for print charges
 09.41.07 JOB05940
 09.41.07 JOB05940  $HASP395 PJG#IOSV ENDED  ASM=0
1        1 //PJG#IOSV JOB PJG$GG,'Module: IOSERV',TIME=1,MSGCLASS=C                JOB05940
           /*JOBPARM HOLD=OUTPUT,LINES=50,CHARS=TN15,NOTIFY=YES
         2 //       EXEC PURGEOLD
         3 XXPURGEOLD PROC
           XX*
           XX* This proc is maintained by Jim Stosick
           XX*
         4 XX$$QUIET  EXEC PGM=HCMDX,PARM='PURGE * Q=OUTPUT MULTIPLE',
           XX         ACCT=(PURGEOLD,SYS3)
         5 //$CND   EXEC PGM=BILBO,REGION=512K,PARM='RECS=100'
         6 //STEPLIB  DD DSN=WYL.GG.ORV.LINKLIB,DISP=SHR
         7 //SYSPRINT DD SYSOUT=$
         8 //SYSUT1   DD DSN=WYL.GG.PJG.OBJ,DISP=OLD
         9 //SYSUT2   DD DSN=WYL.GG.PJG.OBJ,DISP=OLD
        10 //SYSIN    DD DUMMY
        11 //$UNP   EXEC PGM=WUNPRESS,PARM='NUM'
        12 //SYSPRINT DD SYSOUT=$
        13 //SYSUT1   DD DSN=WYL.GG.ORV.SOURCE(IOSERV),DISP=SHR
        14 //SYSUT2   DD DSN=&&INPUT,DISP=(,PASS),UNIT=SYSDA,
           //            SPACE=(TRK,(25,25),RLSE),DCB=CARD
        15 //ASM    EXEC PGM=ASMA90,REGION=8M,COND=(0,NE,$UNP),
           //            PARM=('SYSPARM(IOSERV),TERM,LANG(EN),OBJ',
           //          'LC(32500),XREF(SHORT),NODECK,NORLD,NODX,NOUS')
           //*STEPLIB  DD DSN=SYS1.SASMMOD1,DISP=SHR
        16 //SYSLIB   DD DSN=SYS3.DUMMYMAC,DISP=SHR,DCB=BLKSIZE=27920
        17 //         DD DSN=WYL.GG.ORV.MACLIB,DISP=SHR
        18 //         DD DSN=WYL.GG.SYS.MACLIB,DISP=SHR
        19 //         DD DSN=SYS3.IS.MACLIB,DISP=SHR
        20 //         DD DSN=SYS3.MACLIB,DISP=SHR
        21 //         DD DSN=SYS1.MACLIB,DISP=SHR
        22 //         DD DSN=SYS1.MODGEN,DISP=SHR
        23 //SYSUT1   DD DSN=&&SYSUT1,UNIT=VIO,DISP=(,DELETE),
           //            SPACE=(4088,(500,250),,CONTIG,ROUND)
        24 //SYSTERM  DD SYSOUT=$
        25 //SYSPRINT DD DSN=&&PRINT,UNIT=SYSDA,DISP=(,PASS),
           //            SPACE=(6650,(250,250),RLSE),
           //            DCB=(BLKSIZE=6650,LRECL=133,RECFM=FB)
        26 //SYSLIN   DD DSN=WYL.GG.PJG.OBJ(IOSERV),DISP=OLD
        27 //SYSUDUMP DD SYSOUT=A
        28 //SYSIN    DD DSN=&&INPUT,DISP=(OLD,DELETE)
        29 //$EDIT  EXEC PGM=ASMEDIT,REGION=1M,
           //            COND=EVEN,PARM='STMT,DATA'
        30 //STEPLIB  DD DSN=WYL.GG.SYS.LINKLIB,DISP=SHR
        31 //ASMOUT   DD DSN=&&PRINT,DISP=(OLD,DELETE)
        32 //SYSPRINT DD SYSOUT=A
        33 //SYSUDUMP DD SYSOUT=A
1 STMT NO. MESSAGE
         2 IEFC001I PROCEDURE PURGEOLD WAS EXPANDED USING SYSTEM LIBRARY SYS3.BETAPROC
        14 IGD01010I STORCLAS= TEMP STORGROUP =
        14 IGD01010I STORGRP=VIO ASSIGNED.
        23 IGD01010I STORCLAS= TEMP STORGROUP =
        23 IGD01010I STORGRP=VIO ASSIGNED.
        25 IGD01010I STORCLAS= TEMP STORGROUP =
        25 IGD01010I STORGRP=VIO ASSIGNED.
 ICH70001I GG$PJG   LAST ACCESS AT 09:40:05 ON MONDAY, MARCH 22, 2004
 IEF142I PJG#IOSV $$QUIET - STEP WAS EXECUTED - COND CODE 0008
 *********************************************************************************
 *   PJG#IOSV/$$QUIET /                    Return Code      0008                 *
 *   Region used      260K (16K user + 244K system)                              *
 *   Extended region  9352K (4K user + 9348K system)                             *
 *                                                                               *
 *   Paging              In      Out                                             *
 *   Private <-> Aux      0        0       CPU time (TCB)   00:00:00.01          *
 *   Private <-> Exp      0        0       CPU time (SRB)   00:00:00.00          *
 *   VIO                  0        0       Elapsed time    920:47:20.94          *
 *   Common               0      ---                                             *
 *                                                                               *
 *                                                                               *
 *   CPU Usage          0.18         $0.11  Standard Processing Unit Equivalent  *
 *                                   $0.11  Total Step execution charge          *
 *                                                                               *
 *    I/O count  DDname   Type Addr           I/O count  DDname   Type Addr      *
 *                         *** No I/O for this step ***                          *
 *********************************************************************************
 IEF373I STEP/$$QUIET /START 2004082.0940
 IEF374I STEP/$$QUIET /STOP  2004082.0940 CPU    0MIN 00.01SEC SRB    0MIN 00.00SEC VIRT    16K SYS   244K EXT       4K SYS    9348K
 IEF236I ALLOC. FOR PJG#IOSV $CND
 IEF237I 0401 ALLOCATED TO STEPLIB
 IEF237I JES2 ALLOCATED TO SYSPRINT
 IEF237I 04DC ALLOCATED TO SYSUT1
 IEF237I 04DC ALLOCATED TO SYSUT2
 IEF237I DMY  ALLOCATED TO SYSIN
 IEF142I PJG#IOSV $CND - STEP WAS EXECUTED - COND CODE 0000
 IEF285I   WYL.GG.ORV.LINKLIB                           KEPT
 IEF285I   VOL SER NOS= SYSB01.
 IEF285I   GG$PJG.PJG#IOSV.JOB05940.D0000101.?          SYSOUT
 IEF285I   WYL.GG.PJG.OBJ                               KEPT
 IEF285I   VOL SER NOS= SYSB05.
 IEF285I   WYL.GG.PJG.OBJ                               KEPT
 IEF285I   VOL SER NOS= SYSB05.
 *********************************************************************************
 *   PJG#IOSV/$CND    /                    Return Code      Zero                 *
 *   Region used      288K (16K user + 272K system)                              *
 *   Extended region  9392K (4K user + 9388K system)                             *
 *                                                                               *
 *   Paging              In      Out                                             *
 *   Private <-> Aux      0        0       CPU time (TCB)   00:00:00.01          *
 *   Private <-> Exp      0        0       CPU time (SRB)   00:00:00.00          *
 *   VIO                  0        0       Elapsed time    920:47:19.90          *
 *   Common               0      ---                                             *
 *                                                                               *
 *                                                                               *
 *   CPU Usage          0.18         $0.11  Standard Processing Unit Equivalent  *
 *                                   $0.11  Total Step execution charge          *
 *                                                                               *
 *    I/O count  DDname   Type Addr           I/O count  DDname   Type Addr      *
 *            3  STEPLIB  Disk 0401                   0  SYSPRINT      ----      *
 *            0  SYSUT1   Disk 04DC                   0  SYSUT2   Disk 04DC      *
 *            0  SYSIN         ----                                              *
 *********************************************************************************
 IEF373I STEP/$CND    /START 2004082.0940
 IEF374I STEP/$CND    /STOP  2004082.0940 CPU    0MIN 00.01SEC SRB    0MIN 00.00SEC VIRT    16K SYS   272K EXT       4K SYS    9388K
 IEF236I ALLOC. FOR PJG#IOSV $UNP
 IEF237I JES2 ALLOCATED TO SYSPRINT
 IEF237I 0402 ALLOCATED TO SYSUT1
 IGD101I SMS ALLOCATED TO DDNAME (SYSUT2  )
         DSN (SYS04082.T094031.RA000.PJG#IOSV.INPUT.H01   )
         STORCLAS (TEMP) MGMTCLAS (        ) DATACLAS (        )
         VOL SER NOS= SCR100
 IEF142I PJG#IOSV $UNP - STEP WAS EXECUTED - COND CODE 0000
 IEF285I   GG$PJG.PJG#IOSV.JOB05940.D0000102.?          SYSOUT
 IEF285I   WYL.GG.ORV.SOURCE                            KEPT
 IEF285I   VOL SER NOS= SYSB02.
 IGD106I SYS04082.T094031.RA000.PJG#IOSV.INPUT.H01    PASSED,    DDNAME=SYSUT2
 *********************************************************************************
 *   PJG#IOSV/$UNP    /                    Return Code      Zero                 *
 *   Region used      388K (108K user + 280K system)                             *
 *   Extended region  9468K (4K user + 9464K system)                             *
 *                                                                               *
 *   Paging              In      Out                                             *
 *   Private <-> Aux      0        0       CPU time (TCB)   00:00:00.09          *
 *   Private <-> Exp      0        0       CPU time (SRB)   00:00:00.00          *
 *   VIO                  0        0       Elapsed time    920:47:19.71          *
 *   Common               0      ---                                             *
 *                                                                               *
 *                                                                               *
 *   CPU Usage          1.68         $1.04  Standard Processing Unit Equivalent  *
 *                                   $1.04  Total Step execution charge          *
 *                                                                               *
 *    I/O count  DDname   Type Addr           I/O count  DDname   Type Addr      *
 *            0  SYSPRINT      ----                  10  SYSUT1   Disk 0402      *
 *          102  SYSUT2   Disk 038B                                              *
 *********************************************************************************
 IEF373I STEP/$UNP    /START 2004082.0940
 IEF374I STEP/$UNP    /STOP  2004082.0940 CPU    0MIN 00.09SEC SRB    0MIN 00.00SEC VIRT   108K SYS   280K EXT       4K SYS    9464K
 IEF236I ALLOC. FOR PJG#IOSV ASM
 IEF237I 0402 ALLOCATED TO SYSLIB
 IEF237I 0402 ALLOCATED TO
 IEF237I 04DC ALLOCATED TO
 IEF237I 04DC ALLOCATED TO
 IEF237I 0402 ALLOCATED TO
 IEF237I 04A0 ALLOCATED TO
 IEF237I 04A0 ALLOCATED TO
 IGD101I SMS ALLOCATED TO DDNAME (SYSUT1  )
         DSN (SYS04082.T094031.RA000.PJG#IOSV.SYSUT1.H01  )
         STORCLAS (TEMP) MGMTCLAS (        ) DATACLAS (        )
         VOL SER NOS= VIO
 IEF237I JES2 ALLOCATED TO SYSTERM
 IGD101I SMS ALLOCATED TO DDNAME (SYSPRINT)
         DSN (SYS04082.T094031.RA000.PJG#IOSV.PRINT.H01   )
         STORCLAS (TEMP) MGMTCLAS (        ) DATACLAS (        )
         VOL SER NOS= SCR101
 IEF237I 04DC ALLOCATED TO SYSLIN
 IEF237I JES2 ALLOCATED TO SYSUDUMP
 IGD103I SMS ALLOCATED TO DDNAME SYSIN
 IEF142I PJG#IOSV ASM - STEP WAS EXECUTED - COND CODE 0000
 IEF285I   SYS3.DUMMYMAC                                KEPT
 IEF285I   VOL SER NOS= SYSB02.
 IEF285I   WYL.GG.ORV.MACLIB                            KEPT
 IEF285I   VOL SER NOS= SYSB02.
 IEF285I   WYL.GG.SYS.MACLIB                            KEPT
 IEF285I   VOL SER NOS= SYSB05.
 IEF285I   SYS3.IS.MACLIB                               KEPT
 IEF285I   VOL SER NOS= SYSB05.
 IEF285I   SYS3.MACLIB                                  KEPT
 IEF285I   VOL SER NOS= SYSB02.
 IEF285I   SYS1.MACLIB                                  KEPT
 IEF285I   VOL SER NOS= MVSBR9.
 IEF285I   SYS1.MODGEN                                  KEPT
 IEF285I   VOL SER NOS= MVSBR9.
 IGD105I SYS04082.T094031.RA000.PJG#IOSV.SYSUT1.H01   DELETED,   DDNAME=SYSUT1
 IEF285I   GG$PJG.PJG#IOSV.JOB05940.D0000103.?          SYSOUT
 IGD106I SYS04082.T094031.RA000.PJG#IOSV.PRINT.H01    PASSED,    DDNAME=SYSPRINT
 IEF285I   WYL.GG.PJG.OBJ                               KEPT
 IEF285I   VOL SER NOS= SYSB05.
 IEF285I   GG$PJG.PJG#IOSV.JOB05940.D0000104.?          SYSOUT
 IGD105I SYS04082.T094031.RA000.PJG#IOSV.INPUT.H01    DELETED,   DDNAME=SYSIN
 *********************************************************************************
 *   PJG#IOSV/ASM     /                    Return Code      Zero                 *
 *   Region used      8488K (8192K user + 296K system)                           *
 *   Extended region  9988K (412K user + 9576K system)                           *
 *                                                                               *
 *   Paging              In      Out                                             *
 *   Private <-> Aux      0        0       CPU time (TCB)   00:00:12.75          *
 *   Private <-> Exp      0        0       CPU time (SRB)   00:00:00.19          *
 *   VIO                  0        0       Elapsed time    920:47:19.26          *
 *   Common               0      ---                                             *
 *                                                                               *
 *                                                                               *
 *   CPU Usage        239.06       $148.21  Standard Processing Unit Equivalent  *
 *                                 $148.21  Total Step execution charge          *
 *                                                                               *
 *    I/O count  DDname   Type Addr           I/O count  DDname   Type Addr      *
 *          168  SYSLIB   Disk 0402                   0  SYSLIB   Disk 0402      *
 *          162  SYSLIB   Disk 04DC                   0  SYSLIB   Disk 04DC      *
 *            0  SYSLIB   Disk 0402                 829  SYSLIB   Disk 04A0      *
 *            0  SYSLIB   Disk 04A0               2,503  SYSUT1   VIO  ----      *
 *            0  SYSTERM       ----                 587  SYSPRINT Disk 04E3      *
 *           17  SYSLIN   Disk 04DC                   0  SYSUDUMP      ----      *
 *          103  SYSIN    Disk 038B                                              *
 *********************************************************************************
 IEF373I STEP/ASM     /START 2004082.0940
 IEF374I STEP/ASM     /STOP  2004082.0941 CPU    0MIN 12.75SEC SRB    0MIN 00.19SEC VIRT  8192K SYS   296K EXT     412K SYS    9576K
 IEF236I ALLOC. FOR PJG#IOSV $EDIT
 IEF237I 0402 ALLOCATED TO STEPLIB
 IGD103I SMS ALLOCATED TO DDNAME ASMOUT
 IEF237I JES2 ALLOCATED TO SYSPRINT
 IEF237I JES2 ALLOCATED TO SYSUDUMP
 IEF142I PJG#IOSV $EDIT - STEP WAS EXECUTED - COND CODE 0000
 IEF285I   WYL.GG.SYS.LINKLIB                           KEPT
 IEF285I   VOL SER NOS= SYSB02.
 IGD105I SYS04082.T094031.RA000.PJG#IOSV.PRINT.H01    DELETED,   DDNAME=ASMOUT
 IEF285I   GG$PJG.PJG#IOSV.JOB05940.D0000105.?          SYSOUT
 IEF285I   GG$PJG.PJG#IOSV.JOB05940.D0000106.?          SYSOUT
 *********************************************************************************
 *   PJG#IOSV/$EDIT   /                    Return Code      Zero                 *
 *   Region used      388K (116K user + 272K system)                             *
 *   Extended region  9488K (4K user + 9484K system)                             *
 *                                                                               *
 *   Paging              In      Out                                             *
 *   Private <-> Aux      0        0       CPU time (TCB)   00:00:02.22          *
 *   Private <-> Exp      0        0       CPU time (SRB)   00:00:00.06          *
 *   VIO                  0        0       Elapsed time    920:46:50.50          *
 *   Common               0      ---                                             *
 *                                                                               *
 *                                                                               *
 *   CPU Usage         41.62        $25.80  Standard Processing Unit Equivalent  *
 *                                  $25.80  Total Step execution charge          *
 *                                                                               *
 *    I/O count  DDname   Type Addr           I/O count  DDname   Type Addr      *
 *            2  STEPLIB  Disk 0402                 588  ASMOUT   Disk 04E3      *
 *            0  SYSPRINT      ----                   0  SYSUDUMP      ----      *
 *********************************************************************************
 IEF373I STEP/$EDIT   /START 2004082.0941
 IEF374I STEP/$EDIT   /STOP  2004082.0941 CPU    0MIN 02.22SEC SRB    0MIN 00.06SEC VIRT   116K SYS   272K EXT       4K SYS    9484K
 *********************************************************************************
 *                                                                               *
 *                      S t a n f o r d   U n i v e r s i t y                    *
 *                                                                               *
 *                              *** Job Summary ***                              *
 *                                                                               *
 *   System Id      SYSB                   Input time     09:38:20  Mar 22, 2004 *
 *                                                                               *
 *   System Release SP6.1.0                Start time     09:40:32  Mar 22, 2004 *
 *                                                                               *
 *   Job name       PJG#IOSV               Stop  time     00:00:00  Mar 22, 2004 *
 *                                                                               *
 *   Account        PJG$GG                 Elapsed time  920:47:20.94            *
 *                                                                               *
 *   User Name      Module: IOSERV         CPU time       00:00:15.08            *
 *                                                                               *
 *   Job class      E                      SRB Time       00:00:00.25            *
 *                                                                               *
 *********************************************************************************
 IEF375I  JOB/PJG#IOSV/START 2004082.0940
 IEF376I  JOB/PJG#IOSV/STOP  2004082.0941 CPU    0MIN 15.08SEC SRB    0MIN 00.25SEC
1Data set successfully converted from EDIT to FB format
1Assembler Done IOSERV No Statements Flagged
1         High Level Assembler Option Summary                   (PTF UQ57391)                                               Page    1
-                                                                                            HLASM R4.0  2004/03/22 09.40
0  No Overriding ASMAOPT Parameters
   Overriding Parameters-  SYSPARM(IOSERV),TERM,LANG(EN),OBJ,LC(32500),XREF(SHORT),NODECK,NORLD,NODX,NOUS
   No Process Statements


   Options for this Assembly
0  NOADATA
     ALIGN
   NOASA
     BATCH
     CODEPAGE(047C)
   NOCOMPAT
   NODBCS
 3 NODECK
 3 NODXREF
     ESD
   NOEXIT
     FLAG(0,ALIGN,CONT,NOIMPLEN,NOPAGE0,PUSH,RECORD,NOSUBSTR,USING0)
   NOFOLD
   NOGOFF
   NOINFO
 3   LANGUAGE(EN)
   NOLIBMAC
 3   LINECOUNT(32500)
     LIST(121)
     MXREF(SOURCE)
 3   OBJECT
     OPTABLE(UNI,NOLIST)
   NOPCONTROL
   NOPESTOP
   NOPROFILE
   NORA2
   NORENT
 3 NORLD
     RXREF
     SIZE(MAX)
 3   SYSPARM(IOSERV)
 3   TERM(WIDE)
   NOTEST
     THREAD
   NOTRANSLATE
 3 NOUSING
 3   XREF(SHORT)

   No Overriding DD Names

1IOSERV   External Symbol Dictionary                                                                                        Page    2
-Symbol   Type   Id     Address  Length     LD ID  Flags Alias-of                            HLASM R4.0  2004/03/22 09.40
0IOSERV    SD 00000001 00000000 00006A98             06
 IOSE00    LD          00000000           00000001
 GSTIIOT   ER 00000002
 IOSINIT   LD          00000148           00000001
 IOSTINIT  LD          00000486           00000001
 IOSDUMP   LD          0000053A           00000001
 IOSTERM   LD          0000098C           00000001
 POOLGET   ER 00000003
 LOCKCRE   ER 00000004
 SPAWN     ER 00000005
 MEMGET    ER 00000006
 PARMDO    ER 00000007
 MSGATTR   ER 00000008
 SEG       ER 00000009
 SEGHEX    ER 0000000A
 SEGCORE   ER 0000000B
 CANTASK   ER 0000000C
 POOLFREE  ER 0000000D
 INITDEV   LD          00000F94           00000001
 DOIO      LD          000010A0           00000001
 LOCKOB    ER 0000000E
 LOCKREL   ER 0000000F
 MSGGBUF   ER 00000010
 MSGSEND   ER 00000011
 FWAIT     ER 00000012
 MEMFREE   ER 00000013
 PRMIOPEN  LD          00003A7C           00000001
 PRMIORD   LD          00003BEE           00000001
 PRMIOEND  LD          00003CB4           00000001
 ESTAEON   ER 00000014
 ESTAEOFF  ER 00000015
 MSGATTS   ER 00000016
 MSGRECV   ER 00000017
 MSGFREE   ER 00000018
 JSALLO    LD          00004E56           00000001
 SNDPALLO  LD          00005158           00000001
 JSALLO    ER 00000019
 SNDPWRT   LD          000054E8           00000001
 SNDPCLS   LD          00005602           00000001
 DSALLO    LD          00005D7C           00000001
 MVSENQ    LD          00006646           00000001
 IOSHTERM  LD          000068F4           00000001

1IOSERV   ORVYL'S I/O Service Routines                                                                                      Page    3
0Loc    Object Code    Addr1 Addr2  Stmt Lv Lineno    Source Statement                    (Asmedit 3.3)  HLASM R4.0  2004/03/22 09.40
+___    ______ ____    _____ _____  ____ __ ______    ______ _________
0                                      2       2.              COPY  HEADER
                                       3             =*********************************************************************
                                       4             =*                                                                   *
                                       5             =*                                                                   *
                                       6             =*                          M P - O R V Y L                          *
                                       7             =*                                                                   *
                                       8             =*       ORVYL - Release 5.0 - Class I - Stanford Proprietary        *
                                       9             =*                                                                   *
                                      10             =*                                                                   *
                                      11             =*********************************************************************
-
-                                     13             =         SPLEVEL SET=2
                                      16             =         HIBAL ASSOC=YES
-
                                     998             =*
                                     999             =* REGISTER CONVENTIONS (USE ONLY THE SYMBOLS)
                                    1000             =*
                                    1001             =*                     CLASS  USAGE
                                    1002             =*                     -----  -----------------------------
                                    1003             =RVR      REG   0        1    RETURN VALUE REGISTER
                                    1015             =RS       REG   1        *    SCRATCH
                                    1027             =RA       REG   2        *    SCRATCH
                                    1039             =RB       REG   3        *    SCRATCH
                                    1051             =RJ       REG   4        *    SCRATCH
                                    1063             =RK       REG   5        *    SCRATCH
                                    1075             =RX       REG   6        *    SCRATCH
                                    1087             =RY       REG   7        *    SCRATCH
                                    1099             =RM       REG   8        *    SCRATCH
                                    1111             =RN       REG   9        *    SCRATCH (In Guest)
                                    1123             =RTCBR    REG   9        -    POINTER TO THE RTCB (In Host)
                                    1135             =BR       REG   10       -    FIRST BASE REGISTER
                                    1147             =BRR      REG   11       -    SECOND BASE REGISTER
                                    1159             =WAR      REG   12       -    WORK AREA POINTER
                                    1171             =SPR      REG   13       -    STACK TOP POINTER
                                    1183             =RAR      REG   14       1    RETURN ADDRESS REGISTER
                                    1195             =EPAR     REG   15       1    ENTRY POINT ADDRESS
                                    1207             =*
                                    1208             =*      CLASS   MEANING
                                    1209             =*      -----   --------------------------------------------------
                                    1210             =*        *     Register may be freely used for scratch
                                    1211             =*        -     Register may not be used
                                    1212             =*        1     Available but may change on subroutine calls
                                    1213             =*
1IOSERV   ORVYL'S I/O Service Routines                                                                                      Page    4
0D-Loc  Object Code    Addr1 Addr2  Stmt Lv Lineno    Source Statement           (Hibal 5, Asmedit 3.3)  HLASM R4.0  2004/03/22 09.40
+_____  ______ ____    _____ _____  ____ __ ______    ______ _________
0000000                00000 06A98  1216       4.     IOSERV   MODULE
                                    1226             +*
                                    1227    02-IDENT +         ENTRY IOSE00
                                    1228             +
 000000 14C9D6E2C5F0F06B            1229    02-IDENT +IOSE00   DC    AL1(20),C'IOSE00,22MAR04,09:40'
                                    1230             +*
-                                   1233       6.     *                                      ACB, RPL, DCB, DEB, UCB, DCE,
                                    1234       7.     *                                      DVCT, PSA, ASCB, TCB, SRB,
                                    1235       8.     *                                      TIOT, IOSB, IOCM, DYNALLOC,
                                    1236       9.              PRINT OFF                     JFCB
 000015                00000 06A98 15261      58.     IOSERV   CSECT
1IOSERV   (IOSE00) (09:40) (22MAR04) IHAPSAE  - PSA Extension (ESAME)                                                       Page    5
0Loc    Object Code    Addr1 Addr2  Stmt Lv Lineno    Source Statement           (Hibal 5, Asmedit 3.3)  HLASM R4.0  2004/03/22 09.40
+___    ______ ____    _____ _____  ____ __ ______    ______ _________
0                                  15264      60.              COPY  CBAT
                                   15265             =*******************************************************************
                                   15266             =*                                                                 *
                                   15267             =*      CBAT --  Table of addresses of control blocks for various  *
                                   15268             =*               services and functions.  This is pointed at by    *
                                   15269             =*               every RTCB, so services can find their roots.     *
                                   15270             =*                                                                 *
                                   15271             =*******************************************************************
0000000                00000 00090 15273             =CBAT     RECORD    BEGIN
 000000 C3C2C1E3                   15281  1          =           DC    CL4'CBAT'     Control block id
                                   15282  1          =*
                                   15283  1          =* Task Services info
                                   15284  1          =*
 000004                            15285  1          =CBATTASK   DS    A             Address of the task services CT
 000008                            15286  1          =           DS    4A            available
                                   15287  1          =*
                                   15288  1          =* Lock managment info
                                   15289  1          =*
 000018                            15290  1          =CBATLOCK   DS    A             Address of the lock manager CT
 00001C                            15291  1          =           DS    4A            available
                                   15292  1          =*
                                   15293  1          =* Message channel management info
                                   15294  1          =*
 00002C                            15295  1          =CBATMSGS   DS    A             Address of message manager CT
 000030                            15296  1          =           DS    4A            available
                                   15297  1          =*
                                   15298  1          =* Memory management info
                                   15299  1          =*
 000040                            15300  1          =CBATMEM    DS    A             Address of memory CT
 000044                            15301  1          =           DS    4A            available
                                   15302  1          =*
                                   15303  1          =* I/O service management info
                                   15304  1          =*
 000054                            15305  1          =CBATIOCT   DS    A             Address of I/O service CT
 000058                            15306  1          =           DS    4A            available
                                   15307  1          =*
                                   15308  1          =* Parameter initialization parameters
                                   15309  1          =*
 000068                            15310  1          =CBATPARM   DS    A             Address of parameter CT
 00006C                            15311  1          =           DS    4A            available
                                   15312  1          =*
                                   15313  1          =* Termination and Console command info
                                   15314  1          =*
 00007C                            15315  1          =CBATTMCB   DS    A             Address of the termination CT
 000080                            15316  1          =           DS    4A            available
 000090                00090 00090 15317             =         END   ,
1IOSERV   (IOSE00) (09:40) (22MAR04) IHAPSAE  - PSA Extension (ESAME)                                                       Page    6
0Loc    Object Code    Addr1 Addr2  Stmt Lv Lineno    Source Statement           (Hibal 5, Asmedit 3.3)  HLASM R4.0  2004/03/22 09.40
+___    ______ ____    _____ _____  ____ __ ______    ______ _________
0                                  15327      62.              COPY  RTCB
                                   15328             =*******************************************************************
                                   15329             =*                                                                 *
                                   15330             =*      RTCB --  Information about each functional task.           *
                                   15331             =*                                                                 *
                                   15332             =*******************************************************************
0000000                00000 000B0 15334             =RTCB     RECORD    BEGIN
 000000 D9E3C3C2                   15342  1          =           DC    CL4'RTCB'     Control block id
                                   15343  1          =*
                                   15344  1          =* Global information
                                   15345  1          =*
 000004                            15346  1          =RTCBCBAT   DS    A             Address of the CBAT
                                   15347  1          =*
                                   15348  1          =* Task managment info
                                   15349  1          =*
 000008                            15350  1          =RTCBNEXT   DS    A             Chain of all RTCBs in the system
 00000C                            15351  1          =RTCBNAME   DS    CL8           Name of this task
 000014                            15352  1          =RTCBTCB    DS    A             Address of the MVS TCB for this task
 000018                            15353  1          =RTCBSTK    DS    A             Address of the stack for this task
 00001C                            15354  1          =RTCBMSV    DS    A             Address of MVS save area
 000020                            15355  1          =RTCBTECB   DS    A             End of task ECB
 000024                            15356  1          =RTCBESTA   DS    A             ESTAE data block
 000028                            15357  1          =           DS    2A            available
                                   15358  1          =*
                                   15359  1          =* Lock managment info
                                   15360  1          =*
 000030                            15361  1          =RTCBLKWT   DS    A             Address of the lock we're waiting for
 000034                            15362  1          =           DS    4A            available
                                   15363  1          =*
                                   15364  1          =* Message channel management info
                                   15365  1          =*
 000044                            15366  1          =RTCBMCBP   DS    A             Chain of xCCBs owned by this task
 000048                            15367  1          =           DS    4A            available
                                   15368  1          =*
                                   15369  1          =* Timer management info
                                   15370  1          =*
 000058                            15371  1          =RTCBTIMR   DS    D             Current logical timer value
 000060                            15372  1          =RTCBCPU    DS    D             Total CPU time for the task
 000068                            15373  1          =RTCBCPT    DS    D             Current cpu timer value
 000070                            15374  1          =           DS    4A            available
                                   15375  1          =*
                                   15376  1          =* Trace managment info
                                   15377  1          =*
 000080                            15378  1          =RTCBTRTC   DS    A             Loc of current (avail) trace entry
 000084                            15379  1          =RTCBTRTF   DS    A             Loc of start of trace table
 000088                            15380  1          =RTCBTRTL   DS    A             Loc of end of trace table (+1)
 00008C                            15381  1          =           DS    4A            available
                                   15382  1          =*
                                   15383  1          =* Memory management info
                                   15384  1          =*
 00009C                            15385  1          =RTCBMEM    DS    A             Addr of memory CT
 0000A0                            15386  1          =           DS    2A            available
                                   15387  1          =*
                                   15388  1          =* Memory management info
                                   15389  1          =*
1IOSERV   (IOSE00) (09:40) (22MAR04) IHAPSAE  - PSA Extension (ESAME)                                                       Page    7
0Loc    Object Code    Addr1 Addr2  Stmt Lv Lineno    Source Statement           (Hibal 5, Asmedit 3.3)  HLASM R4.0  2004/03/22 09.40
+___    ______ ____    _____ _____  ____ __ ______    ______ _________
00000A8                            15390  1          =RTCBIOT    DS    A             Addr of I/O Services table
                                   15391  1          =*
                                   15392  1          =* Hiperspace management info
                                   15393  1          =*
 0000AC                            15394  1          =RTCBBUFR   DS    A             MVPG and HSPSERV Buffer for this TCB
 0000B0                000B0 000B0 15395             =         END   ,
1IOSERV   (IOSE00) (09:40) (22MAR04) IHAPSAE  - PSA Extension (ESAME)                                                       Page    8
0Loc    Object Code    Addr1 Addr2  Stmt Lv Lineno    Source Statement           (Hibal 5, Asmedit 3.3)  HLASM R4.0  2004/03/22 09.40
+___    ______ ____    _____ _____  ____ __ ______    ______ _________
0                                  15405      64.              COPY  POOLPARM
                                   15406             =*******************************************************************
                                   15407             =*                                                                 *
                                   15408             =*       POOLPARM -- OS Memory routine calling parms               *
                                   15409             =*                                                                 *
                                   15410             =*******************************************************************
0000000                00000 0000C 15412             =@MEMORY  RECORD BEGIN
 000000                            15420  1          =@MEMDATA   DS    X                       Reserved
 000001                            15421  1          =@MEMKEY    DS    X                       Storage key
                                   15422  1          =
 000002 00                         15423  1          =@MEMPOOL   FLAG   ,                      Type of memory request
 @MEMPOOL.MEMTSYS  80 ONES         15427  1          =           FLAG  (MEMTSYS,X'80')         System pool
 @MEMPOOL.MEMTA16M 10 ONES         15436  1          =           FLAG  (MEMTA16M,X'10')        Above 16 Meg line
 @MEMPOOL.MEMTGLOB 08 ONES         15445  1          =           FLAG  (MEMTGLOB,X'08')        Global subpool
 @MEMPOOL.MEMTFIX  04 ONES         15454  1          =           FLAG  (MEMTFIX,X'04')         Fixed
 @MEMPOOL.MEMTPAGE 02 ONES         15463  1          =           FLAG  (MEMTPAGE,X'02')        Page boundary
 @MEMPOOL.MEMTDEF  01 ONES         15472  1          =           FLAG  (MEMTDEF,X'01')         Default subpool
                                   15481  1          =
 000003 00                         15482  1          =@MEMCODE   FLAG  ,                       MVS codes
 @MEMCODE.MEMCANYR 40 ONES         15486  1          =           FLAG  (MEMCANYR,X'40')        Frame may be above 16m real
 @MEMCODE.MEMCANYV 30 ONES         15495  1          =           FLAG  (MEMCANYV,X'30')        Virtual may be above 16m
 @MEMCODE.MEMCBLOV 10 ONES         15504  1          =           FLAG  (MEMCBLOV,X'10')        Virtual must be below 16m
 @MEMCODE.MEMCRESV 30 OFF          15513  1          =           FLAG  (MEMCRESV,X'30',OFF)    Location determined by rmode
 @MEMCODE.MEMCVAR  08 ONES         15523  1          =           FLAG  (MEMCVAR,X'08')         Variable type request
 @MEMCODE.MEMCPGB  04 ONES         15532  1          =           FLAG  (MEMCPGB,X'04')         Page boundary alignment
 @MEMCODE.MEMCUNC  02 ONES         15541  1          =           FLAG  (MEMCUNC,X'02')         Unconditional type request
 @MEMCODE.MEMCFREE 01 ONES         15550  1          =           FLAG  (MEMCFREE,X'01')        Freemain request
                                   15559  1          =
 000004                            15560  1          =@MEMLEN    DS    A                       Length of area
 000008                            15561  1          =@MEMLOC    DS    A                       Location of area
 00000C                0000C 0000C 15562             =         END   ,
-
                                   15572      66.              COPY  FIXPARM
                                   15573             =*******************************************************************
                                   15574             =*                                                                 *
                                   15575             =*     FIXPARM -- Pagefix/pagefree parameters                      *
                                   15576             =*                                                                 *
                                   15577             =*******************************************************************
0000000                00000 00009 15579             =@FIXPARM RECORD BEGIN
                                   15587  1          =
 000000                            15588  1          =@FIXLOC    DS    A                       Area to page fix/free
 000004                            15589  1          =@FIXLEN    DS    A                       Length
 000008 00                         15590  1          =@FIXFLG    FLAG  ,
 @FIXFLG.@FIXFREL  80 ONES         15594  1          =           FLAG  @FIXFREL                Release backing store too
 000009                00009 00009 15599             =         END   ,
1IOSERV   (IOSE00) (09:40) (22MAR04) IHAPSAE  - PSA Extension (ESAME)                                                       Page    9
0Loc    Object Code    Addr1 Addr2  Stmt Lv Lineno    Source Statement           (Hibal 5, Asmedit 3.3)  HLASM R4.0  2004/03/22 09.40
+___    ______ ____    _____ _____  ____ __ ______    ______ _________
0                                  15609      68.              COPY  MEMPARM
                                   15610             =*******************************************************************
                                   15611             =*                                                                 *
                                   15612             =*            Memory service initialization parameters             *
                                   15613             =*                                                                 *
                                   15614             =*******************************************************************
0000000                00000 00002 15616             =@MEMINIT RECORD BEGIN                           MEMORY INIT RECORD
 000000 00                         15624  1          =@MIFLAG    FLAG  ,                                Specification flags
 @MIFLAG.MIGLOBAL  80 ONES         15628  1          =           FLAG  MIGLOBAL                         | INIT GLOBAL POOL
                                   15633  1          =*-----------------------------------------------
                                   15634  1          =*  From here on need not be specified on call
                                   15635  1          =*-----------------------------------------------
 000001 00                         15636  1          =@MIWFLAG   FLAG  ,                                Work flags
                                   15640  1          =*   Pool type is determined by the bit values in the pool index
                                   15641  1          =*  offset
 @MIWFLAG.MIWPAGE  04 ONES         15642  1          =           FLAG  (MIWPAGE,X'04')                  | page boundary
 @MIWFLAG.MIWFIX   08 ONES         15651  1          =           FLAG  (MIWFIX,X'08')                   | fixed memory
 @MIWFLAG.MIWA16M  10 ONES         15660  1          =           FLAG  (MIWA16M,X'10')                  | above 16M
 000002                00002 00002 15669             =         END   ,                                OF MEMORY INIT RECORD
-
                                   15679             =*******************************************************************
                                   15680             =*                                                                 *
                                   15681             =*              Memory service allocation parameters               *
                                   15682             =*                                                                 *
                                   15683             =*******************************************************************
0000000                00000 0000A 15685             =@MEMGET  RECORD BEGIN
 000000                            15693  1          =@MGLL      DS    D                                Location/Length
 000008                00008 00000 15694  1          =           ORG   @MGLL
 000000                            15695  1          =@MGLOC     DS    A                                Location (return)
 000004                            15696  1          =@MGLEN     DS    A                                Length of request
 000008                00008 00008 15697  1          =           ORG   ,
 000008 0000                       15698  1          =@MGTYPE    DC    H'0'                             Request type - offset
                                   15699  1          =*   TYPES A16M, FIX, & PAG form an index into a control table for
                                   15700  1          =* a specified pool.  ie. a pool above the 16M line, unfixed and
                                   15701  1          =* double word boundary has an @MGTYPE value of X'10' = 16.
 00000A                0000A 00009 15702  1          =           ORG   @MGTYPE+1
 000009 00                         15703  1          =@MGFTYPE   FLAG  ,
 @MGFTYPE.MGA16M   10 ONES         15707  1          =           FLAG  (MGA16M,X'10')                   Above 16M line
 @MGFTYPE.MGFIX    08 ONES         15716  1          =           FLAG  (MGFIX,X'08')                    Fixed pool
 @MGFTYPE.MGPAG    04 ONES         15725  1          =           FLAG  (MGPAG,X'04')                    Page boundary
 @MGFTYPE.MGGLOB   02 ONES         15734  1          =           FLAG  (MGGLOB,X'02')                   Global pool
 @MGFTYPE.MGBEST   01 ONES         15743  1          =           FLAG  (MGBEST,X'01')                   Best fit
 00000A                0000A 0000A 15752  1          =           ORG   ,
 00000A                0000A 0000A 15753             =         END   ,
1IOSERV   (IOSE00) (09:40) (22MAR04) IHAPSAE  - PSA Extension (ESAME)                                                       Page   10
0Loc    Object Code    Addr1 Addr2  Stmt Lv Lineno    Source Statement           (Hibal 5, Asmedit 3.3)  HLASM R4.0  2004/03/22 09.40
+___    ______ ____    _____ _____  ____ __ ______    ______ _________
0                                  15763             =*******************************************************************
                                   15764             =*                                                                 *
                                   15765             =*               Memory service release parameters                 *
                                   15766             =*                                                                 *
                                   15767             =*******************************************************************
0000000                00000 0000A 15769             =@MEMFREE RECORD BEGIN                           PARAMETERS
 000000                            15777  1          =@MFLL      DS    D                                Location/Length
 000008                00008 00000 15778  1          =           ORG   @MFLL
 000000                            15779  1          =@MFLOC     DS    A                                Location
 000004                            15780  1          =@MFLEN     DS    A                                Length
 000008                00008 00008 15781  1          =           ORG   ,
 000008 0000                       15782  1          =@MFTYPE    DC    H'0'                             Request type - offset
 00000A                0000A 00009 15783  1          =           ORG   @MFTYPE+1
 000009 00                         15784  1          =@MFFTYPE   FLAG  ,
                                   15788  1          =*   TYPES A16M, FIX, & PAG form an index into a control table for
                                   15789  1          =* a specified pool.  ie. a pool above the 16M line, unfixed and
                                   15790  1          =* double word boundary has an @MGTYPE value of X'10' = 16.
 @MFFTYPE.MFA16M   10 ONES         15791  1          =           FLAG  (MFA16M,X'10')                   Above 16M line
 @MFFTYPE.MFFIX    08 ONES         15800  1          =           FLAG  (MFFIX,X'08')                    Fixed pool
 @MFFTYPE.MFPAG    04 ONES         15809  1          =           FLAG  (MFPAG,X'04')                    Page boundary
 @MFFTYPE.MFGLOB   02 ONES         15818  1          =           FLAG  (MFGLOB,X'02')                   Global pool
 00000A                0000A 0000A 15827  1          =           ORG   ,
 00000A                0000A 0000A 15828             =         END   ,
1IOSERV   (IOSE00) (09:40) (22MAR04) IHAPSAE  - PSA Extension (ESAME)                                                       Page   11
0Loc    Object Code    Addr1 Addr2  Stmt Lv Lineno    Source Statement           (Hibal 5, Asmedit 3.3)  HLASM R4.0  2004/03/22 09.40
+___    ______ ____    _____ _____  ____ __ ______    ______ _________
0                                  15838      70.              COPY  ESTAPARM
                                   15839             =*******************************************************************
                                   15840             =*                                                                 *
                                   15841             =*    ESTAPARM - ESTAE enable parameter area                       *
                                   15842             =*                                                                 *
                                   15843             =*******************************************************************
0000000                00000 00044 15845             =@ESTAE   RECORD BEGIN
 000000                            15853  1          =@ESTRTRY   DS     A                      ESTAE RETRY ADDRESS
 000004                            15854  1          =@ESTREGS   DS    16A                     REGISTERS FOR RETRY EXIT
 000044                00044 00044 15855             =         END   ,
-
                                   15865             =*******************************************************************
                                   15866             =*                                                                 *
                                   15867             =*    ESTAINFO - ESTAE retry routine error information             *
                                   15868             =*                                                                 *
                                   15869             =*******************************************************************
0000000                00000 00058 15871             =ESTAINFO RECORD BEGIN
 000000                            15879  1          =EDEABND    DS    A                       ABEND CODE
 000004                            15880  1          =EDERSN     DS    A                       REASON CODE
 000008                            15881  1          =EDEILC     DS    H                       ILC
 00000A                            15882  1          =EDEINTC    DS    H                       INT CODE
 00000C                            15883  1          =EDEPEA     DS    A                       PAGE EXCEPTION ADDRESS
                                   15884  1          =EDEPCHK    EQU   EDEILC,*-EDEILC,C'X'    ILC, INT CODE
 000010                            15885  1          =EDEPSW     DS    XL8                     ERROR PSW
 000018                            15886  1          =EDEREGS    DS    16A                     ERROR REGS
 000058                00058 00058 15887             =         END   ,
1IOSERV   (IOSE00) (09:40) (22MAR04) IHAPSAE  - PSA Extension (ESAME)                                                       Page   12
0Loc    Object Code    Addr1 Addr2  Stmt Lv Lineno    Source Statement           (Hibal 5, Asmedit 3.3)  HLASM R4.0  2004/03/22 09.40
+___    ______ ____    _____ _____  ____ __ ______    ______ _________
0                                  15897      72.              COPY  SPNPARM
                                   15898             =*******************************************************************
                                   15899             =*                                                                 *
                                   15900             =*       SPNPARM -- Sub-task creation calling parms                *
                                   15901             =*                                                                 *
                                   15902             =*******************************************************************
0000000                00000 0001C 15904             =@SPAWN   RECORD BEGIN
 000000                            15912  1          =@SPNNAME   DS    CL8                     Task name
 000008                            15913  1          =@SPNEP     DS    A                       Entry point
 00000C                            15914  1          =@SPNPARM   DS    A                       Parameter to be passed
 000010                            15915  1          =@SPNTRC    DS    A                       Number of trace table entries
 000014                            15916  1          =@SPNSTK    DS    A                       Stack size
 000018                            15917  1          =@SPNDPRI   DS    A                       Relative MVS task priority
 00001C                0001C 0001C 15918             =         END
-
                                   15928      74.              COPY  SBTPARM
                                   15929             =*******************************************************************
                                   15930             =*                                                                 *
                                   15931             =*       SBTPARM -- Sub-task entry parameter list                  *
                                   15932             =*                                                                 *
                                   15933             =*******************************************************************
0000000                00000 00004 15935             =SBTPARM  RECORD BEGIN
 000000                            15943  1          =SBTDATA    DS    A                       Parameter
 000004                00004 00004 15944             =         END   ,
-
                                   15954      76.              COPY  CANPARM
                                   15955             =*******************************************************************
                                   15956             =*                                                                 *
                                   15957             =*       CANPARM -- Function entry parameter list                  *
                                   15958             =*                                                                 *
                                   15959             =*******************************************************************
0000000                00000 00004 15961             =@CANTASK RECORD BEGIN
 000000                            15969  1          =@CANTID    DS    A                       Parameter
 000004                00004 00004 15970             =         END   ,
1IOSERV   (IOSE00) (09:40) (22MAR04) IHAPSAE  - PSA Extension (ESAME)                                                       Page   13
0Loc    Object Code    Addr1 Addr2  Stmt Lv Lineno    Source Statement           (Hibal 5, Asmedit 3.3)  HLASM R4.0  2004/03/22 09.40
+___    ______ ____    _____ _____  ____ __ ______    ______ _________
0                                  15980      78.              COPY  SEGPARM
 000000                00000 0000D 15981             =@SEG     RECORD BEGIN        Used for SEG,T,B,TB,EOR,EOB
 000000                            15989  1          =@SEGCB     DS    A             Address of the seg control block
 000004                            15990  1          =@SEGLOC    DS    A             Location of the text segment to be added
 000008                            15991  1          =@SEGLEN    DS    A             Length of the text segment to be added
 00000C 00                         15992  1          =@SEGTYPE   FLAG  ,
 @SEGTYPE.@SEGB    80 ONES         15996  1          =           FLAG  @SEGB         Add a blank after the segment
 @SEGTYPE.@SEGT    40 ONES         16001  1          =           FLAG  @SEGT         Trim trailing blanks from the segment
 @SEGTYPE.@SEGTB   C0 NZ           16006  1          =           FLAG  (@SEGTB,@SEGB+@SEGT)    Trim trailing, and add 1 blank
 @SEGTYPE.@SEGMK   20 ONES         16017  1          =           FLAG  @SEGMK        Mark the buffer after this segment
 @SEGTYPE.@SEGEOR  10 ONES         16022  1          =           FLAG  @SEGEOR       This is the end of a logical record
 @SEGTYPE.@SEGEOB  08 ONES         16027  1          =           FLAG  @SEGEOB       This is the last segment for the buffer
 00000D                0000D 0000D 16032             =         END   ,
-000000                00000 0000E 16042             =@SEGINIT RECORD BEGIN
 000000                            16050  1          =@SEGICB    DS    A
 000004                            16051  1          =@SEGIRTN   DS    A             Address of the processing routine
 000008                            16052  1          =@SEGILOC   DS    A             Location of the buffer
 00000C                            16053  1          =@SEGILEN   DS    Y             Length of the buffer
 00000E                0000E 0000E 16054             =         END   ,
-000000                00000 00008 16064             =@SEGCOL  RECORD BEGIN
 000000                            16072  1          =@SEGCCB    DS    A             Address of the control block
 000004                            16073  1          =@SEGCNUM   DS    A             Column number to go to
 000008                00008 00008 16074             =         END   ,
-000000                00000 00018 16084             =@SEGCORE RECORD BEGIN
 000000                            16092  1          =@SEGXCB    DS    A             Control block address
 000004                            16093  1          =@SEGXLOC   DS    A             Location of the core (MVS VA)
 000008                            16094  1          =@SEGXLEN   DS    A             Length of the core to dump
 00000C                            16095  1          =@SEGXSPA   DS    X             # blank lines between each dump line
 00000D 00                         16096  1          =@SEGXFLG   FLAG  ,
 @SEGXFLG.@SEGXF16 80 ONES         16100  1          =           FLAG  @SEGXF16      16 Bytes per line  (32 bytes per line)
 @SEGXFLG.@SEGXFAL 40 ONES         16105  1          =           FLAG  @SEGXFAL      Alpha (EBCDIC)     (no EBCDIC)
 @SEGXFLG.@SEGXFOF 20 ONES         16110  1          =           FLAG  @SEGXFOF      Print offsets      (Print Addresses)
 @SEGXFLG.@SEGXFID 10 ONES         16115  1          =           FLAG  @SEGXFID      Print the id       (Dont print it)
 @SEGXFLG.@SEGXFRL 08 ONES         16120  1          =           FLAG  @SEGXFRL      Print repeat lines (Print summary)
 000010                            16125  1          =@SEGXOFF   DS    A             Address to be 0 offset
 000014                            16126  1          =@SEGXID    DS    CL4           Control block id
 000018                00018 00018 16127             =         END   ,
-000000                00000 00004 16137             =@SEGRTN  RECORD BEGIN                  Parameters to pass to proc rtn
 000000                            16145  1          =@SEGRCB    DS    A                       Address of control block
 000004                00004 00004 16146             =         END   ,
-000000                00000 00008 16156             =@SEGSTK  RECORD BEGIN
 000000                            16164  1          =@SEGSCB    DS    A                       Address of seg control block
 000004                            16165  1          =@SEGSST    DS    A                       Start of stack (from RTCB)
 000008                00008 00008 16166             =         END   ,
1IOSERV   (IOSE00) (09:40) (22MAR04) IHAPSAE  - PSA Extension (ESAME)                                                       Page   14
0Loc    Object Code    Addr1 Addr2  Stmt Lv Lineno    Source Statement           (Hibal 5, Asmedit 3.3)  HLASM R4.0  2004/03/22 09.40
+___    ______ ____    _____ _____  ____ __ ______    ______ _________
0                                  16176      80.              COPY  DUMPPARM
                                   16177             =*
                                   16178             =* Parameter areas involved with dumping.
                                   16179             =*
-                                  16181             =*
                                   16182             =* This is the parm passed to the DUMP entry of services and functions
                                   16183             =*
 000000                00000 00008 16184             =@DUMPPRM RECORD BEGIN
 000000                            16192  1          =@DUMPDTA   DS    A             Function data
 000004                            16193  1          =@DUMPSCB   DS    A             Address of the Seg control block
 000008                00008 00008 16194             =         END   ,
1IOSERV   (IOSE00) (09:40) (22MAR04) IHAPSAE  - PSA Extension (ESAME)                                                       Page   15
0Loc    Object Code    Addr1 Addr2  Stmt Lv Lineno    Source Statement           (Hibal 5, Asmedit 3.3)  HLASM R4.0  2004/03/22 09.40
+___    ______ ____    _____ _____  ____ __ ______    ______ _________
0                                  16204      82.     *******************************************************************
                                   16205      83.     *                                                                 *
                                   16206      84.     *    MSGPARM - Message routine calling parms                      *
                                   16207      85.     *                                                                 *
                                   16208      86.     *******************************************************************
0                                  16210      88.              COPY  MSGPARM
 000000                00000 0000C 16211             =@MSGATT  RECORD BEGIN
 000000                            16219  1          =@MSGCNAM   DS    CL8           Name of the message channel
 000008                            16220  1          =@MSGCECB   DS    A             Address of an ECB for channel activity
 00000C                0000C 0000C 16221             =         END   ,
0000000                00000 00008 16231             =@MSGGBUF RECORD BEGIN
 000000                            16239  1          =@MSGGCHN   DS    A             Channel id where the buffer belongs
 000004                            16240  1          =@MSGGLEN   DS    A             Length of the buffer
 000008                00008 00008 16241             =         END   ,
0000000                00000 00014 16251             =@MSGSEND RECORD BEGIN
 000000                            16259  1          =@MSGSCHN   DS    A             Channel id on which to send this buffer
 000004                            16260  1          =@MSGSBUF   DS    A             Location of the buffer to send
 000008                            16261  1          =@MSGSSEQ   DS    A             Unique message sequence number
 00000C                            16262  1          =@MSGSVAL   DS    A             Value associated with the buffer
 000010                            16263  1          =@MSGSPRI   DS    A             Priority of the message
 000014                00014 00014 16264             =         END   ,
0000000                00000 00014 16274             =@MSGRECV RECORD BEGIN
 000000                            16282  1          =@MSGRCHN   DS    A             Channel id from which to get the buffer
 000004                            16283  1          =@MSGRLEN   DS    A             Length of the buffer
 000008                            16284  1          =@MSGRSEQ   DS    A             Unique message sequence number
 00000C                            16285  1          =@MSGRVAL   DS    A             Value associated with buffer (Reply)
 000010                            16286  1          =@MSGRPRI   DS    A             Priority of the message
 000014                00014 00014 16287             =         END   ,
0000000                00000 00008 16297             =@MSGFREE RECORD BEGIN
 000000                            16305  1          =@MSGFCHN   DS    A             Channel id
 000004                            16306  1          =@MSGFBUF   DS    A             Buffer pointer
 000008                00008 00008 16307             =         END   ,
0000000                00000 00008 16317             =@MSGCAN  RECORD BEGIN
 000000                            16325  1          =@MSGCCHN   DS    A             Channel id
 000004                            16326  1          =@MSGCSEQ   DS    A             Sequence number of message to cancel
 000008                00008 00008 16327             =         END   ,
1IOSERV   (IOSE00) (09:40) (22MAR04) IHAPSAE  - PSA Extension (ESAME)                                                       Page   16
0Loc    Object Code    Addr1 Addr2  Stmt Lv Lineno    Source Statement           (Hibal 5, Asmedit 3.3)  HLASM R4.0  2004/03/22 09.40
+___    ______ ____    _____ _____  ____ __ ______    ______ _________
0                                  16337      90.              COPY  LOCKPARM
                                   16338             =*******************************************************************
                                   16339             =*                                                                 *
                                   16340             =*    LOCKPARM - Lock routine calling parms                        *
                                   16341             =*                                                                 *
                                   16342             =*******************************************************************
0000000                00000 00011 16344             =@LOCKCRE RECORD BEGIN
 000000                            16352  1          =@LOCKNAM   DS    CL16          Name of the lock
 000010 00                         16353  1          =@LOCKFL    FLAG  ,
 @LOCKFL.@LFSPIN   80 ONES         16357  1          =           FLAG  @LFSPIN       Spin type lock
 000011                00011 00011 16362             =         END   ,
                                   16371             =*
 000000                00000 00004 16372             =@LOCKS   RECORD BEGIN
 000000                            16380  1          =@LOCKID    DS    A             Lock id
 000004                00004 00004 16381             =         END   ,
-
                                   16391      92.              COPY  WAITPARM
                                   16392             =*******************************************************************
                                   16393             =*                                                                 *
                                   16394             =*      WAITPARM -- Wait ecb parameter list                        *
                                   16395             =*                                                                 *
                                   16396             =*******************************************************************
0000000                00000 00004 16398             =@FWAIT   RECORD BEGIN
 000000                            16406  1          =@FWTECB    DS    A                       ECB address
 000004                00004 00004 16407             =         END   ,
-
                                   16417      94.              COPY  POSTPARM
                                   16418             =*******************************************************************
                                   16419             =*                                                                 *
                                   16420             =*      POSTPARM -- Post ecb parameter list                        *
                                   16421             =*                                                                 *
                                   16422             =*******************************************************************
0000000                00000 00004 16424             =@FPOST   RECORD BEGIN
 000000                            16432  1          =@FPSTECB   DS    A                       ECB address
 000004                00004 00004 16433             =         END   ,
1IOSERV   (IOSE00) (09:40) (22MAR04) IHAPSAE  - PSA Extension (ESAME)                                                       Page   17
0Loc    Object Code    Addr1 Addr2  Stmt Lv Lineno    Source Statement           (Hibal 5, Asmedit 3.3)  HLASM R4.0  2004/03/22 09.40
+___    ______ ____    _____ _____  ____ __ ______    ______ _________
0                                  16443      96.              COPY  IORPARM
                                   16444             =*******************************************************************
                                   16445             =*                                                                 *
                                   16446             =*     @IORPARM - ORVYL I/O request parameters                     *
                                   16447             =*                                                                 *
                                   16448             =*******************************************************************
0000000                00000 00014 16450             =@IORB    RECORD BEGIN
 000000                            16458  1          =@IORRQID   DS    A                       Request ID
 000004                            16459  1          =@IOROFF    DS    A                       Offset (guest real to MVS)
 000008                            16460  1          =@IORPARM   DS    A                       Pointer to user parm list
 00000C                            16461  1          =@IORSCH    DS    A                       Subchannel (device ID)
 000010                            16462  1          =@IORKEY    DS    X                       Channel program protect key
 000011                            16463  1          =@IORCC     DS    X                       Condition code (returned)
 000012                            16464  1          =           DS    2X                      Reserved
 000014                00014 00014 16465             =         END   ,
-
                                   16475             =*******************************************************************
                                   16476             =*                                                                 *
                                   16477             =*     @IOUPARM - I/O Device id allocate request parameters        *
                                   16478             =*                                                                 *
                                   16479             =*******************************************************************
0000000                00000 00004 16481             =@IOUPARM RECORD BEGIN
 000000                            16489  1          =@IOUDEVT   DS    A
                                   16490  1          =*
                                   16491  1          =*  Device types
                                   16492  1          =*
                                   16493  1          =#IOUPAGE   EQU   4                       | paging
                                   16494  1          =#IOUSWAP   EQU   8                       | swap
                                   16495  1          =#IOUFILE   EQU   12                      | file
                                   16496  1          =#IOUSCOM   EQU   16                      | path
                                   16497  1          =#IOUJES    EQU   20                      | JES
                                   16498  1          =#IOUHSP    EQU   24                      | Standard hiperspace
                                   16499  1          =#IOUESO    EQU   28                      | Cached hiperspace
 000004                00004 00004 16500             =         END   ,
1IOSERV   (IOSE00) (09:40) (22MAR04) IHAPSAE  - PSA Extension (ESAME)                                                       Page   18
0Loc    Object Code    Addr1 Addr2  Stmt Lv Lineno    Source Statement           (Hibal 5, Asmedit 3.3)  HLASM R4.0  2004/03/22 09.40
+___    ______ ____    _____ _____  ____ __ ______    ______ _________
0                                  16510      98.     *******************************************************************
                                   16511      99.     *                                                                 *
                                   16512     100.     *    IOCT - I/O Service Control Table                             *
                                   16513     101.     *                                                                 *
                                   16514     102.     *    Modified for Hiperspace support                              *
                                   16515     103.     *                                                                 *
                                   16516     104.     *******************************************************************
0000000                00000 000B0 16518     106.     IOCT     RECORD BEGIN
 000000 C9D6C3E3                   16526  1  107.                DC    CL4'IOCT'
 000008                            16527  1  108.     IOCTIOCB   DS    D                       Chain of all IOCB's
 000010                            16528  1  109.     IOCTFIOB   DS    D                       Chain of free IOCB's
 000018                            16529  1  110.     IOCTCIOB   DS    D                       Chain of complete IOCB's
                                   16530  1  111.
 000020                            16531  1  112.     IOCTSWPA   DS    D                       Chain of available swap areas
 000028                            16532  1  113.     IOCTSWPS   DS    A                       Size of the swap area
                                   16533  1  114.
 00002C                            16534  1  115.     IOCTDDBS   DS    A                       Chain of DDB's
 000030                            16535  1  116.     IOCTJDBS   DS    A                       Chain of JDB's
 000034                            16536  1  117.     IOCTPTHS   DS    A                       Chain of SDB's
 000038                            16537  1  118.     IOCTHDBS   DS    A                       Chain of HDB's
 00003C                            16538  1  119.     IOCTSNDB   DS    A                       Chain of SNAP DUMP SNDBs
                                   16539  1  120.
 000040                            16540  1  121.     IOCTDDBL   DS    A                       DDB lock id
 000044                            16541  1  122.     IOCTJDBL   DS    A                       JDB lock id
 000048                            16542  1  123.     IOCTPTHL   DS    A                       SDB lock id
 00004C                            16543  1  124.     IOCTSNTL   DS    A                       PATH notify lock id
 000050                            16544  1  125.     IOCTHDBL   DS    A                       HDB lock id
 000054                            16545  1  126.     IOCTSNPL   DS    A                       SNAP DD lock id
                                   16546  1  127.
 000058                            16547  1  128.     IOCTSTID   DS    A                       SCOM task id
 00005C                            16548  1  129.     IOCTMTID   DS    A                       MVS I/O task id
 000060                            16549  1  130.     IOCTJTID   DS    A                       JES I/O task id
 000064                            16550  1  131.     IOCTHTID   DS    A                       Hiperspace task id
                                   16551  1  132.
 000068                            16552  1  133.     IOCTSNFP   DS    A                       SCOM notify chain forward
 00006C                            16553  1  134.     IOCTSNBP   DS    A                       SCOM notify chain backward
                                   16554  1  135.
 000070                            16555  1  136.     IOCTCDL    DS    A                       Address of cache device list
 000074                            16556  1  137.     IOCTAM24   DS    A                       Address of AMODE 24 routine
                                   16557  1  138.
 000078                            16558  1  139.     IOCTASCB   DS    A                       ASCB pointer
 00007C                            16559  1  140.     IOCTASID   DS    H                       ASCB ID
 00007E                            16560  1  141.     IOCTKEY    DS    X                       Protect key
 00007F                            16561  1  142.     IOCTTS     DS    X                       Hiperspace termination TS lock
                                   16562  1  143.
 000080                            16563  1  144.     IOCTMTCB   DS    A                       MVS I/O task TCB
 000084                            16564  1  145.     IOCTHSIZ   DS    A                       Hiperspace max size
 000088                            16565  1  146.     IOCTPGLM   DS    H                       Page DS simulation limit
 00008A                            16566  1  147.     IOCTSWLM   DS    H                       Swap DS simulation limit
 00008C                            16567  1  148.     IOCTPGNO   DS    H                       Page DS simulation count
 00008E                            16568  1  149.     IOCTSWNO   DS    H                       Swap DS simulation count
 000090                            16569  1  150.     IOCTSNCT   DS    H                       SNAP DD count
 000092                            16570  1  151.     IOCTHSCT   DS    H                       Hiperspace count
 000094                            16571  1  152.                DS    3A                      Spare
 0000A0                            16572  1  153.     IOCTTTOK   DS    CL16                    Jobstep TCB
1IOSERV   (IOSE00) (09:40) (22MAR04) IHAPSAE  - PSA Extension (ESAME)                                                       Page   19
0Loc    Object Code    Addr1 Addr2  Stmt Lv Lineno    Source Statement           (Hibal 5, Asmedit 3.3)  HLASM R4.0  2004/03/22 09.40
+___    ______ ____    _____ _____  ____ __ ______    ______ _________
00000B0                000B0 000B0 16573     154.              END   ,
1IOSERV   (IOSE00) (09:40) (22MAR04) IHAPSAE  - PSA Extension (ESAME)                                                       Page   20
0Loc    Object Code    Addr1 Addr2  Stmt Lv Lineno    Source Statement           (Hibal 5, Asmedit 3.3)  HLASM R4.0  2004/03/22 09.40
+___    ______ ____    _____ _____  ____ __ ______    ______ _________
0                                  16583     156.     *******************************************************************
                                   16584     157.     *                                                                 *
                                   16585     158.     *    IOT - I/O Service Task Table                                 *
                                   16586     159.     *                                                                 *
                                   16587     160.     *******************************************************************
0000000                00000 0001C 16589     162.     IOT      RECORD BEGIN
 000000 C9D6E340                   16597  1  163.                DC    CL4'IOT'
                                   16598  1  164.
 000004                            16599  1  165.     IOTSTMC    DS    A                       SCOM message channel id
 000008                            16600  1  166.     IOTSBUFF   DS    A                       SCOM buffer
 00000C                            16601  1  167.     IOTSBLEN   DS    A                       SCOM buffer length
 000010                            16602  1  168.     IOTMTMC    DS    A                       MVS I/O message channel id
 000014                            16603  1  169.     IOTJTMC    DS    A                       JES I/O message channel id
 000018                            16604  1  170.     IOTHTMC    DS    A                       HSPACE msg channel id
 00001C                0001C 0001C 16605     171.              END   ,
-
                                   16615     173.              COPY  GSTIPARM
                                   16616             =*******************************************************************
                                   16617             =*                                                                 *
                                   16618             =*      @GSTIIOT -- Guest I/O complete parameter list              *
                                   16619             =*                                                                 *
                                   16620             =*******************************************************************
0000000                00000 00008 16622             =@GSTIIOT RECORD BEGIN
 000000                            16630  1          =@GSTIRQI   DS    A                       Request id
 000004                            16631  1          =@GSTICS    DS    A                       Completion status
 000008                00008 00008 16632             =         END   ,
1IOSERV   (IOSE00) (09:40) (22MAR04) IHAPSAE  - PSA Extension (ESAME)                                                       Page   21
0Loc    Object Code    Addr1 Addr2  Stmt Lv Lineno    Source Statement           (Hibal 5, Asmedit 3.3)  HLASM R4.0  2004/03/22 09.40
+___    ______ ____    _____ _____  ____ __ ______    ______ _________
0                                  16642     175.     *******************************************************************
                                   16643     176.     *                                                                 *
                                   16644     177.     *    IOCB - I/O Control Block                                     *
                                   16645     178.     *                                                                 *
                                   16646     179.     *******************************************************************
0000000                00000 00148 16648     181.     IOCB     RECORD BEGIN
 000000                            16656  1  182.                DS    CL4'RICB'               Id
 000004                            16657  1  183.     IOCBMCHN   DS    A                       Master chain
 000008                            16658  1  184.     IOCBFCHN   DS    A                       Free/complete chain
 00000C                            16659  1  185.     IOCBIOCT   DS    A                       IOCT pointer
 000010                            16660  1  186.     IOCBRQID   DS    A                       Request ID
 000014                            16661  1  187.     IOCBDDB    DS    A                       DDB address
 000018                            16662  1  188.     IOCBSCCW   DS    A                       Swap I/O CCW block chain
 00001C                            16663  1  189.                DS    A                       Available
 000020                            16664  1  190.     IOCBECB    DS    A                       ECB
 000024                            16665  1  191.     IOCBSTK    DS    A                       Stack pointer
 000028                            16666  1  192.     IOCBSTRT   DS    D                       I/O start time
 000030                            16667  1  193.     IOCBSTOP   DS    D                       I/O stop time
 000038                            16668  1  194.     IOCBCCW    DS    7D                      CCW area
 000070                            16669  1  195.     IOCBIDAW   DS    4A                      IDAW area
 000080                            16670  1  196.     IOCBDEXD   DS    XL16                    Data for Define Extent CCW
 000090                            16671  1  197.     IOCBLCRD   DS    XL16                    Data for Locate Record CCW
 0000A0                            16672  1  198.     IOCBPDAT   DS    XL10                    Data for Set Page Parm CCW
 0000AA                            16673  1  199.     IOCBDBLK   DS    XL2                     Data for Discard Block CCW
 0000AC                            16674  1  200.     IOCBSECT   DS    X                       Data for Set Sector CCW
 0000AD                            16675  1  201.     IOCBFM     DS    X                       Data for Set Filemask CCW
 0000AE 00                         16676  1  202.     IOCBFLG    FLAG  ,
 IOCBFLG.IOCBPECB  80 ONES         16680  1  203.                FLAG  IOCBPECB                Post ECB when I/O complete
 0000B0                            16685  1  204.                DS    0D
 0000B0                            16686  1  205.     IOCBSRB    DS    XL(SRBSIZE)             SRB
 0000DC                            16687  1  206.     IOCBIOSB   DS    XL(L'IOSBSTD)           IOSB
 000148                00148 00148 16688     207.              END   ,
1IOSERV   (IOSE00) (09:40) (22MAR04) IHAPSAE  - PSA Extension (ESAME)                                                       Page   22
0Loc    Object Code    Addr1 Addr2  Stmt Lv Lineno    Source Statement           (Hibal 5, Asmedit 3.3)  HLASM R4.0  2004/03/22 09.40
+___    ______ ____    _____ _____  ____ __ ______    ______ _________
0                                  16698     209.     *
                                   16699     210.     * IRCB -- This control block represents an I/O request from the
                                   16700     211.     *         guest machine.  Its address is stored in @IORRQID in
                                   16701     212.     *         parameter area @IORB which was passed from GSTINTF
                                   16702     213.     *         where it was created and mapped with an IOCB prefix
                                   16703     214.     *         and assigned an acronym of IOCB.
                                   16704     215.     *
 000000                00000 00024 16705     216.     IRCB     RECORD BEGIN
 000000 C9D6C3C2                   16713  1  217.                DC    C'IOCB'
 000004                            16714  1  218.     IRCBNEXT   DS    A             Address of the next IRCB
 000008                            16715  1  219.     IRCBGSTC   DS    A             Address of the GSTCT
                                   16716  1  220.     *
                                   16717  1  221.     * Information from the Request
                                   16718  1  222.     *
 00000C                            16719  1  223.     IRCBSCH    DS    A             Subchannel ID word
 000010                            16720  1  224.     IRCBIPRM   DS    A             Interruption parameter
 000014                            16721  1  225.     IRCBIFLG   DS    A             I/O flags
 000018                            16722  1  226.     IRCBCPA    DS    A             Address of the channel program
                                   16723  1  227.     IRCBORB    EQU   IRCBIPRM,*-IRCBIPRM,C'X'          The ORB
 00001C                            16724  1  228.     IRCBSTAT   DS    A             Subchannel status word (from IOSERV)
                                   16725  1  229.     *** SIMULATION CODE ***
 000020                            16726  1  230.     IRCBHSP    DS    CL1           Hiperspace in use flag
 000024                            16727  1  231.                DS    0F
                                   16728  1  232.     *** END OF SIMULATION CODE ***
 000024                00024 00024 16729     233.              END   ,
1IOSERV   (IOSE00) (09:40) (22MAR04) IHAPSAE  - PSA Extension (ESAME)                                                       Page   23
0Loc    Object Code    Addr1 Addr2  Stmt Lv Lineno    Source Statement           (Hibal 5, Asmedit 3.3)  HLASM R4.0  2004/03/22 09.40
+___    ______ ____    _____ _____  ____ __ ______    ______ _________
0                                  16739     235.     *******************************************************************
                                   16740     236.     *                                                                 *
                                   16741     237.     *    BCHPARM - Block to CCHHR conversion parameters               *
                                   16742     238.     *                                                                 *
                                   16743     239.     *******************************************************************
0000000                00000 00011 16745     241.     @BCH     RECORD BEGIN
 000000                            16753  1  242.     @BCHDSID   DS    A                       Data Set ID
 000004                            16754  1  243.     @BCHBLK    DS    A                       Block number
 000008                            16755  1  244.     @BCHSECT   DS    X                       Sector number
                                   16756  1  245.
 000009                            16757  1  246.     @BCHSKM    DS    X                       Extent number
 00000A                            16758  1  247.     @BCHSKBB   DS    H                       Bin number
 00000C                            16759  1  248.     @BCHSKCC   DS    H                       Cylinder
 00000E                            16760  1  249.     @BCHSKHH   DS    H                       Head
 000010                            16761  1  250.     @BCHSKR    DS    X                       Record
                                   16762  1  251.     @BCHSEEK   EQU   @BCHSKM                 Seek address
 000011                00011 00011 16763     252.              END   ,
-
                                   16773     254.     *******************************************************************
                                   16774     255.     *                                                                 *
                                   16775     256.     *    SIOPARM - Start I/O request parameters                       *
                                   16776     257.     *                                                                 *
                                   16777     258.     *******************************************************************
0000000                00000 00004 16779     260.     @SIO     RECORD BEGIN
 000000                            16787  1  261.     @SIOIOCB   DS    A                       I/O control block
 000004                00004 00004 16788     262.              END   ,
1IOSERV   (IOSE00) (09:40) (22MAR04) IHAPSAE  - PSA Extension (ESAME)                                                       Page   24
0Loc    Object Code    Addr1 Addr2  Stmt Lv Lineno    Source Statement           (Hibal 5, Asmedit 3.3)  HLASM R4.0  2004/03/22 09.40
+___    ______ ____    _____ _____  ____ __ ______    ______ _________
0                                  16798     264.     *******************************************************************
                                   16799     265.     *                                                                 *
                                   16800     266.     *    BPTPARM - Calculate blocks per track request parameters      *
                                   16801     267.     *                                                                 *
                                   16802     268.     *******************************************************************
0000000                00000 00007 16804     270.     @CTRACK  RECORD BEGIN
 000000                            16812  1  271.     @CTRUCB    DS    A                       UCB address
 000004                            16813  1  272.     @CTRBSZ    DS    H                       Block size
 000006                            16814  1  273.     @CTRKEY    DS    X                       Key length
 000007                00007 00007 16815     274.              END
-
                                   16825     276.     *******************************************************************
                                   16826     277.     *                                                                 *
                                   16827     278.     *    RPSPARM - Compute RPS value request parameters               *
                                   16828     279.     *                                                                 *
                                   16829     280.     *******************************************************************
0000000                00000 00009 16831     282.     @CRPS    RECORD BEGIN
 000000                            16839  1  283.     @CRPUCB    DS    A                       UCB address
 000004                            16840  1  284.     @CRPBLK    DS    H                       Block number
 000006                            16841  1  285.     @CRPBSZ    DS    H                       Block size
 000008                            16842  1  286.     @CRPKEY    DS    X                       Key length
 000009                00009 00009 16843     287.              END
1IOSERV   (IOSE00) (09:40) (22MAR04) IHAPSAE  - PSA Extension (ESAME)                                                       Page   25
0Loc    Object Code    Addr1 Addr2  Stmt Lv Lineno    Source Statement           (Hibal 5, Asmedit 3.3)  HLASM R4.0  2004/03/22 09.40
+___    ______ ____    _____ _____  ____ __ ______    ______ _________
0                                  16853     289.     *****************************************************************
                                   16854     290.     *                                                               *
                                   16855     291.     *   COMDB  --  Common prefix for Descriptor Blocks              *
                                   16856     292.     *                                                               *
                                   16857     293.     *****************************************************************
0000000                00000 00008 16859     295.     COMDB    RECORD BEGIN
 000000                            16867  1  296.     COMDBID    DS    CL4                     Id
 000004                            16868  1  297.     COMDBRTN   DS    A                       Service Routine
 000008                00008 00008 16869     298.              END   ,
-
                                   16879     300.     *******************************************************************
                                   16880     301.     *                                                                 *
                                   16881     302.     *              JDB - JES data set Descriptor Block                *
                                   16882     303.     *                                                                 *
                                   16883     304.     *******************************************************************
0000000                00000 00018 16885     306.     JDB      RECORD BEGIN
 000000                            16893  1  307.                DS    XL(L'COMDB)             Room for common portion
 000008                            16894  1  308.     JDBCHAIN   DS    A                       Chain
 00000C                            16895  1  309.     JDBACB     DS    A                       ACB address
 000010                            16896  1  310.     JDBDDNAM   DS    CL8                     DD Name
 000018                00018 00018 16897     311.              END
1IOSERV   (IOSE00) (09:40) (22MAR04) IHAPSAE  - PSA Extension (ESAME)                                                       Page   26
0Loc    Object Code    Addr1 Addr2  Stmt Lv Lineno    Source Statement           (Hibal 5, Asmedit 3.3)  HLASM R4.0  2004/03/22 09.40
+___    ______ ____    _____ _____  ____ __ ______    ______ _________
0                                  16907     313.     *******************************************************************
                                   16908     314.     *                                                                 *
                                   16909     315.     *              SNDB - Snap Dump Descriptor Block                  *
                                   16910     316.     *                                                                 *
                                   16911     317.     *   New for Snap Dump Processing of Guest areas                   *
                                   16912     318.     *                                                                 *
                                   16913     319.     *******************************************************************
0000000                00000 0001C 16915     321.     SNDB      RECORD BEGIN
 000000                            16923  1  322.                DS    XL(L'COMDB)             Room for common portion
 000008                            16924  1  323.     SNDBCHN    DS    A                       Chain
 00000C                            16925  1  324.     SNDBDCB    DS    A                       DCB address
 000010                            16926  1  325.     SNDBDDN    DS    CL8                     DD Name
 000018                            16927  1  326.     SNDBDCBE   DS    A                       DCBE
 00001C                0001C 0001C 16928     327.              END
1IOSERV   (IOSE00) (09:40) (22MAR04) IHAPSAE  - PSA Extension (ESAME)                                                       Page   27
0Loc    Object Code    Addr1 Addr2  Stmt Lv Lineno    Source Statement           (Hibal 5, Asmedit 3.3)  HLASM R4.0  2004/03/22 09.40
+___    ______ ____    _____ _____  ____ __ ______    ______ _________
0                                  16938     329.     *******************************************************************
                                   16939     330.     *                                                                 *
                                   16940     331.     *              DDB - Data set Descriptor Block                    *
                                   16941     332.     *                                                                 *
                                   16942     333.     *******************************************************************
0000000                00000 000A8 16944     335.     DDB      RECORD BEGIN
 000000                            16952  1  336.                DS    XL(L'COMDB)             Room for common portion
 000008                            16953  1  337.     DDBCHAIN   DS    A                       Chain
 00000C                            16954  1  338.     DDBDCB     DS    A                       DCB address
 000010                            16955  1  339.     DDBDEB     DS    A                       DEB address
 000014                            16956  1  340.     DDBRPS     DS    A                       RPS table
 000018                            16957  1  341.                DS    A                       Available
                                   16958  1  342.     *
                                   16959  1  343.     *  Statistical Information
                                   16960  1  344.     *
 00001C                            16961  1  345.     DDBRDCT    DS    A                       Number of reads
 000020                            16962  1  346.     DDBWRCT    DS    A                       Number of writes
 000028                            16963  1  347.     DDBIOTIM   DS    D                       Total I/O time
                                   16964  1  348.     *
                                   16965  1  349.     *  Data Set Information
                                   16966  1  350.     *
 000030                            16967  1  351.     DDBBLKCT   DS    A                       Number of blocks
 000034                            16968  1  352.     DDBBT      DS    A                       Blocks per track
 000038                            16969  1  353.     DDBDDNAM   DS    CL8                     DD name
 000040                            16970  1  354.     DDBDSN     DS    CL44                    Data set name
 00006C                            16971  1  355.     DDBDMNAM   DS    CL8                     Member name
                                   16972  1  356.     *
                                   16973  1  357.     *  Device Information
                                   16974  1  358.     *
 000074                            16975  1  359.     DDBTRC     DS    A                       Tracks per cylinder
 000078                            16976  1  360.     DDBUCB     DS    A                       UCB address
 00007C                            16977  1  361.     DDBCUCBS   DS    3A                      Caching controller exposures
 000088                            16978  1  362.     DDBCUNXT   DS    A                       Round robin index
 00008C                            16979  1  363.     DDBVOL     DS    CL6                     Volume ID
 000092                            16980  1  364.     DDBFEAT    DS    X                       Features from DCE/Sense ID
                                   16981  1  365.     *
                                   16982  1  366.     *  DCB Information
                                   16983  1  367.     *
 000093                            16984  1  368.     DDBDSORG   DS    X                       Data Set Organization
 000094                            16985  1  369.     DDBRECFM   DS    X                       Record Format
 000095                            16986  1  370.     DDBKEYL    DS    X                       Key length
 000096                            16987  1  371.     DDBLRECL   DS    H                       Record length
 000098                            16988  1  372.     DDBBLKSZ   DS    H                       Block size
                                   16989  1  373.     *
                                   16990  1  374.     *  Disk Allocation Information
                                   16991  1  375.     *
 00009A                            16992  1  376.     DDBALCU    DS    X                       Allocation units
 00009B                            16993  1  377.     DDBXTNT    DS    X                       Number of extents
 00009C                            16994  1  378.     DDBALQU    DS    A                       Allocation quantity
 0000A0                            16995  1  379.     DDBTRKS    DS    H                       Number of tracks
                                   16996  1  380.     *** SIMULATION CODE ***
 0000A4                            16997  1  381.     DDBHDB     DS    A                       Address of HDB
                                   16998  1  382.     *** END OF SIMULATION CODE ***
 0000A8                000A8 000A8 16999     383.              END   ,
1IOSERV   (IOSE00) (09:40) (22MAR04) IHAPSAE  - PSA Extension (ESAME)                                                       Page   28
0Loc    Object Code    Addr1 Addr2  Stmt Lv Lineno    Source Statement           (Hibal 5, Asmedit 3.3)  HLASM R4.0  2004/03/22 09.40
+___    ______ ____    _____ _____  ____ __ ______    ______ _________
0                                  17009     385.     *******************************************************************
                                   17010     386.     *                                                                 *
                                   17011     387.     *              HDB - Hiperspace Descriptor Block                  *
                                   17012     388.     *                                                                 *
                                   17013     389.     *  New for Hiperspace support                                     *
                                   17014     390.     *                                                                 *
                                   17015     391.     *******************************************************************
0000000                00000 00064 17017     393.     HDB      RECORD BEGIN
 000000                            17025  1  394.                DS    XL(L'COMDB)             Room for common portion
 000008                            17026  1  395.     HDBCHAIN   DS    A                       Chain
 00000C                            17027  1  396.     HDBHSNAM   DS    CL8                     Hiperspace name
 000014                            17028  1  397.     HDBORIG    DS    CL4                     Hiperspace origin
 000018                            17029  1  398.     HDBALET    DS    CL4                     Hiperspace ALET
 00001C                            17030  1  399.     HDBTOKEN   DS    CL8                     Hiperspace token
 000024                            17031  1  400.     HDBHPSIZ   DS    CL4                     Hiperspace size
 000028 00                         17032  1  401.     HDBFLG     FLAG  ,
 HDBFLG.HDBSTND    80 ONES         17036  1  402.                FLAG  HDBSTND        STANDARD HIPERSPACE
 HDBFLG.HDBESO     40 ONES         17041  1  403.                FLAG  HDBESO         EXTENDED STORE ONLY HSPACE
 HDBFLG.HDBPAGE    20 ONES         17046  1  404.                FLAG  HDBPAGE        MIMICKING PAGE IO
 HDBFLG.HDBSWAP    10 ONES         17051  1  405.                FLAG  HDBSWAP        MIMICKING SWAP IO
 HDBFLG.HDBOPEN    08 ONES         17056  1  406.                FLAG  HDBOPEN        HIPERSPACE HAS BEEN OPENED
                                   17061  1  407.     *
                                   17062  1  408.     *  Statistical Information
                                   17063  1  409.     *  Note that updates to these fields are not always serialized.
                                   17064  1  410.     *  Take them with a grain of salt.
                                   17065  1  411.     *
 00002C                            17066  1  412.     HDBRDFR    DS    A                       HSPACE frame reads done
 000030                            17067  1  413.     HDBWRFR    DS    A                       HSPACE frame writes done
 000034                            17068  1  414.     HDBMVRD    DS    A                       MVPG frame reads done
 000038                            17069  1  415.     HDBMVWR    DS    A                       MVPG frame writes done
 00003C                            17070  1  416.     HDBRCT     DS    A                       Frame reads requested
 000040                            17071  1  417.     HDBWCT     DS    A                       Frame writes requested
 000044                            17072  1  418.     HDBRDCT    DS    A                       Read request count
 000048                            17073  1  419.     HDBWRCT    DS    A                       Write request count
 00004C                            17074  1  420.     HDBRWRT    DS    A                       Rewrite to ESTOR count
 000050                            17075  1  421.     HDBIOTIM   DS    2A                      Total I/O time
 000058                            17076  1  422.     HDBSTIMN   DS    A                       Total min STIMER waits
 00005C                            17077  1  423.     HDBSTIMX   DS    A                       Total max STIMER waits
0                                  17079  1  425.     *** SIMULATION CODE ***
 000060                            17080  1  426.     HDBDDB     DS    CL4
                                   17081  1  427.     *** END OF SIMULATION CODE ***
 000064                00064 00064 17082     428.              END   ,
1IOSERV   (IOSE00) (09:40) (22MAR04) IHAPSAE  - PSA Extension (ESAME)                                                       Page   29
0Loc    Object Code    Addr1 Addr2  Stmt Lv Lineno    Source Statement           (Hibal 5, Asmedit 3.3)  HLASM R4.0  2004/03/22 09.40
+___    ______ ____    _____ _____  ____ __ ______    ______ _________
0                                  17092     430.     *******************************************************************
                                   17093     431.     *                                                                 *
                                   17094     432.     *     SDB  -  SCOM Device Descriptor Block                        *
                                   17095     433.     *                                                                 *
                                   17096     434.     *******************************************************************
0000000                00000 00058 17098     436.     SDB  RECORD BEGIN
                                   17106  1  437.     *
                                   17107  1  438.     *  LOCAL FIELDS
                                   17108  1  439.     *
 000000                            17109  1  440.                DS    XL(L'COMDB)             Room for common portion
 000008                            17110  1  441.     SDBFP      DS    A                       PATH WAIT FORWARD CHAIN
 00000C                            17111  1  442.     SDBBP      DS    A                       PATH WAIT BACKWARD CHAIN
 000010                            17112  1  443.     SDBRQID    DS    A                       USER REQUEST ID
 000014                            17113  1  444.     SDBCHN     DS    A                       ACTIVE PATH CHAIN
 000018                            17114  1  445.     SDBBUFS    DS    A                       SCOM BUFFER CHAIN WORD
 00001C                            17115  1  446.     SDBPFL     DS    X                       PATH POST FLAGS
 00001D 00                         17116  1  447.     SDBFLGS    FLAG  ,
 SDBFLGS.SDBFNTFY  80 ONES         17120  1  448.                FLAG  SDBFNTFY                SDB ON NOTIFY CHAIN
 00001E                            17125  1  449.                DS    AL2                     RESERVED
 000020                            17126  1  450.                DS    0D
                                   17127  1  451.                PATH  VERSION=2
 000020                            17128  1 01-PATH  +PATH       DC    0F'0'
 000020 00000000                   17130  1 02-DEFIN +PATHMGC    DC    AL4(0)
 000024 00000000                   17132  1 02-DEFIN +PATHDJNM   DC    AL4(0)
 000028 0000000000000000           17134  1 02-DEFIN +PATHMY     DC    XL8'0'
 000030 FFFFFFFFFFFFFFFF           17136  1 02-DEFIN +PATHYOU    DC    XL8'FFFFFFFFFFFFFFFF'
 000038 80                         17138  1 02-DEFIN +PATHMFL    DC    AL1(1*X'80'+0*X'40'+0*X'20')
                                   17139  1          +
                                   17140  1 01-PATH  +PATHVER2    EQU  X'80'         CALLER IS USING VERSION 2
                                   17141  1 01-PATH  +PATHMCTL    EQU  X'40'         CALLER ASKS TERMINATION CONTROL
                                   17142  1 01-PATH  +PATHMNAM    EQU  X'20'         CALLER PROVIDES CALLEE NAME
                                   17143  1 01-PATH  +PATHMDP1    EQU  X'10'         DUPLICATE TAGS FOUND: MY=PCBO, YOU=PCBA
                                   17144  1 01-PATH  +PATHMDP2    EQU  X'08'         DUPLICATE TAGS FOUND: MY=PCBA, YOU=PCBO
                                   17145  1          +
 000039 000000                     17147  1 02-DEFIN +PATHOECB   DC    AL3(0)
 00003C 00000000                   17149  1 02-DEFIN +PATHBUF    DC    AL4(0)
 000040 00000000                   17151  1 02-DEFIN +PATHECBF   DC    AL4(0)
                                   17152  1          +
                                   17153  1 01-PATH  +PATHFCLS    EQU   X'80'         I AM POSTED BECAUSE HE CLOSED
                                   17154  1 01-PATH  +PATHFFQE    EQU   X'40'         I AM POSTED BECAUSE HIS FULL Q EMPTIED
                                   17155  1 01-PATH  +PATHFNI     EQU   X'20'         I AM POSTED BECAUSE NEW INFO IN MY Q
                                   17156  1 01-PATH  +PATHFDP     EQU   X'10'         I AM POSTED AT HIS DISCRETION
                                   17157  1 01-PATH  +PATHFOPN    EQU   X'08'         I AM POSTED BECAUSE HE OPENED
                                   17158  1 01-PATH  +PATHFCLC    EQU   X'04'         I AM POSTED BECAUSE MY CLOSE IS COMPLETE
                                   17159  1          +
 000044 00000000                   17161  1 02-DEFIN +PATHPASS   DC    XL4'0'
 000048 00000000                   17163  1 02-DEFIN +PATHECB    DC    AL4(0)
 00004C 00000000                   17165  1 02-DEFIN +PATHEXIT   DC    AL4(0)
 000050 00000000                   17167  1 02-DEFIN +PATHPINP   DC    XL4'0'
 000054 00000000                   17169  1 02-DEFIN +PATHRESV   DC    XL4'0'
                                   17170  1          +*
                                   17171  1          +*  VERSION 2 RETURN CODES
                                   17172  1          +*
                                   17173  1 01-PATH  +PATHROK     EQU  0                       COMPLETE OK
                                   17174  1 01-PATH  +PATHRIFC    EQU  4                       INVALID FUNCTION CODE
1IOSERV   (IOSE00) (09:40) (22MAR04) IHAPSAE  - PSA Extension (ESAME)                                                       Page   30
0Loc    Object Code    Addr1 Addr2  Stmt Lv Lineno    Source Statement           (Hibal 5, Asmedit 3.3)  HLASM R4.0  2004/03/22 09.40
+___    ______ ____    _____ _____  ____ __ ______    ______ _________
0                                  17175  1 01-PATH  +PATHRPMW    EQU  8                       INVALID PATH MAGIC WORD
                                   17176  1 01-PATH  +PATHRBAF    EQU  12                      PARTNER'S BUFFER AREA FULL
                                   17177  1 01-PATH  +PATHRNOP    EQU  16                      PARTNER NOT THERE
                                   17178  1 01-PATH  +PATHRBOM    EQU  20                      BUFFER OVER PARTNER'S MAXIMUM
                                   17179  1 01-PATH  +PATHRIBS    EQU  24                      RECEIVE BUFFER TOO SMALL
                                   17180  1 01-PATH  +PATHRBPI    EQU  28                      INVALID BUFFER POINTER
                                   17181  1 01-PATH  +PATHRIAD    EQU  32                      INVALID ADDRESS
                                   17182  1 01-PATH  +PATHRES1    EQU  36                      RESERVED
                                   17183  1 01-PATH  +PATHRES2    EQU  40                      RESERVED
                                   17184  1 01-PATH  +PATHRES3    EQU  44                      RESERVED
                                   17185  1 01-PATH  +PATHRES4    EQU  48                      RESERVED
                                   17186  1          +
                                   17187  1 01-PATH  +PATHSIZE    EQU  *-PATH        LENGTH OF PATH BLOCK
 000058                00058 00058 17188     452.              END
1IOSERV   (IOSE00) (09:40) (22MAR04) IHAPSAE  - PSA Extension (ESAME)                                                       Page   31
0Loc    Object Code    Addr1 Addr2  Stmt Lv Lineno    Source Statement           (Hibal 5, Asmedit 3.3)  HLASM R4.0  2004/03/22 09.40
+___    ______ ____    _____ _____  ____ __ ______    ______ _________
0                                  17198     454.     *******************************************************************
                                   17199     455.     *                                                                 *
                                   17200     456.     *    CCW - Channel Command Word - Format 1                        *
                                   17201     457.     *                                                                 *
                                   17202     458.     *******************************************************************
0000000                00000 00008 17204     460.     CCW      RECORD BEGIN
 000000                            17212  1  461.     CCWCMD     DS    X                       CCW command code
                                   17213  1  462.
                                   17214  1  463.     CCWRD      EQU   X'06'                   Read data
                                   17215  1  464.     CCWRKD     EQU   X'0E'                   Read key and data
                                   17216  1  465.     CCWRCKD    EQU   X'1E'                   Read count, key and data
                                   17217  1  466.
                                   17218  1  467.     CCWWD      EQU   X'05'                   Write data
                                   17219  1  468.     CCWWKD     EQU   X'0D'                   Write key and data
                                   17220  1  469.     CCWWCKD    EQU   X'1D'                   Write count, key and data
                                   17221  1  470.     CCWWU      EQU   X'85'                   Write update data
                                   17222  1  471.     CCWWUKD    EQU   X'8D'                   Write update key and data
                                   17223  1  472.
                                   17224  1  473.     CCWSIDEQ   EQU   X'31'                   Search id equal
                                   17225  1  474.     CCWSTSEC   EQU   X'23'                   Set sector
                                   17226  1  475.     CCWSEEK    EQU   X'07'                   Seek
                                   17227  1  476.     CCWTIC     EQU   X'08'                   Transfer in channel
                                   17228  1  477.     CCWNOP     EQU   X'03'                   No-op
                                   17229  1  478.     CCWSFM     EQU   X'1F'                   Set File Mask
                                   17230  1  479.
                                   17231  1  480.     CCWSTPP    EQU   X'8B'                   Set paging parameters
                                   17232  1  481.     CCWDLBLK   EQU   X'8F'                   Delete block
                                   17233  1  482.     CCWDEFEX   EQU   X'63'                   Define extent
                                   17234  1  483.     CCWLOCRC   EQU   X'47'                   Locate record
                                   17235  1  484.     CCWMT      EQU   X'80'                   Multi-track mode flag
                                   17236  1  485.
 000001                            17237  1  486.     CCWFLAGS   DS    X                       Flags
                                   17238  1  487.
                                   17239  1  488.     CCWDATCH   EQU   X'80'                   Data chaining
                                   17240  1  489.     CCWCMDCH   EQU   X'40'                   Command chaining
                                   17241  1  490.     CCWSLI     EQU   X'20'                   Ignore incorrect length
                                   17242  1  491.     CCWSKIP    EQU   X'10'                   Suppress data transfer
                                   17243  1  492.     CCWPCI     EQU   X'08'                   PCI
                                   17244  1  493.     CCWIDA     EQU   X'04'                   IDAWs are supplied
                                   17245  1  494.     CCWSUSP    EQU   X'02'                   Suspend channel program
                                   17246  1  495.
 000002                            17247  1  496.     CCWLEN     DS    H                       Data length
                                   17248  1  497.
 000004                            17249  1  498.     CCWADDR    DS    A                       Data address
 000008                00008 00008 17250     499.              END   ,
1IOSERV   (IOSE00) (09:40) (22MAR04) IHAPSAE  - PSA Extension (ESAME)                                                       Page   32
0Loc    Object Code    Addr1 Addr2  Stmt Lv Lineno    Source Statement           (Hibal 5, Asmedit 3.3)  HLASM R4.0  2004/03/22 09.40
+___    ______ ____    _____ _____  ____ __ ______    ______ _________
0                                  17260     501.              COPY  PARMPARM
                                   17261             =*********************************************************************
                                   17262             =*                                                                   *
                                   17263             =*          Parameters to obtain initialization parameters           *
                                   17264             =*                                                                   *
                                   17265             =*********************************************************************
0000000                00000 00010 17267             =@PARMDO  RECORD BEGIN
 000000                            17275  1          =@PARILOC   DS    A                       Input location
 000004                            17276  1          =@PARILEN   DS    A                       | length
 000008                            17277  1          =@PAROLOC   DS    A                       Output location
 00000C                            17278  1          =@PAROLEN   DS    A                       | length
 000010                00010 00010 17279             =         END   ,
0000000                00000 00004 17289             =PARMIN   RECORD BEGIN
 000000 00                         17297  1          =PARMTYPE   FLAG  ,
 PARMTYPE.PARMFSTR 00 EQ           17301  1          =           FLAG  (PARMFSTR,0,EQ)         Return a string
 PARMTYPE.PARMFINT 04 EQ           17311  1          =           FLAG  (PARMFINT,4,EQ)         Return an integer
 PARMTYPE.PARMFYN  08 EQ           17321  1          =           FLAG  (PARMFYN,8,EQ)          Return Yea or Nay
 PARMTYPE.PARMFFLT 0C EQ           17331  1          =           FLAG  (PARMFFLT,12,EQ)        Return a floating point
 000001                            17341  1          =           DS    3X                      - Available -
 000004                            17342  1          =PARMKEYS   DS    0A                      Start of 8 byte keys
 000004                00004 00004 17343             =         END   ,
                                   17352     502.     *******************************************************************
                                   17353     503.     *                                                                 *
                                   17354     504.     *  HPRMWORK - Hiperspace initializion parameter work area         *
                                   17355     505.     *                                                                 *
                                   17356     506.     *******************************************************************
0000000                00000 00070 17358     508.     HPRMWORK  RECORD BEGIN
 000000                            17366  1  509.     HPRMPARM   DS    XL(L'PARMIN)            Parmin area
 000004                            17367  1  510.     HPRMKEY1   DS    CL8                     Key 1
 00000C                            17368  1  511.     HPRMKEY2   DS    CL8                     Key 2
 000014                            17369  1  512.     HPRMKEY3   DS    CL8                     Key 3
 00001C                            17370  1  513.     HPRMVAL    DS    A                       Integer value
 000020                            17371  1  514.     HPRMSTR    DS    CL80                    String parameter area
 000070                00070 00070 17372     515.              END   ,
1IOSERV   (IOSE00) (09:40) (22MAR04) IHAPSAE  - PSA Extension (ESAME)                                                       Page   33
0Loc    Object Code    Addr1 Addr2  Stmt Lv Lineno    Source Statement           (Hibal 5, Asmedit 3.3)  HLASM R4.0  2004/03/22 09.40
+___    ______ ____    _____ _____  ____ __ ______    ______ _________
0                                  17382     517.     *******************************************************************
                                   17383     518.     *                                                                 *
                                   17384     519.     *    IOTERM - I/O Termination routine pointed to by IOSPGAD in    *
                                   17385     520.     *             the IOSB.  This routine is entered in SRB mode.     *
                                   17386     521.     *                                                                 *
                                   17387     522.     *                                                                 *
                                   17388     523.     *     Input - R1 points at IOSB                                   *
                                   17389     524.     *                                                                 *
                                   17390     525.     *    Output - None                                                *
                                   17391     526.     *                                                                 *
                                   17392     527.     *                                                                 *
                                   17393     528.     *******************************************************************
-
 000016                            17395     530.     IOTERM   LABEL ,
 USING  *,R9                       17397     531.              USING *,R9
 000016 189F                       17407     532.              LR    R9,R15
 000018 1851                       17408     533.              LR    R5,R1                   GET IOSB ADDRESS
 USING  IOSB,R5                    17409     534.              USING IOSB,R5
 00001A 5840 5020            00020 17418     535.              L     R4,IOSUSE               GET IOCB ADDRESS
 USING  IOCB,R4                    17419     536.              USING IOCB,R4
 00001E B205 4030      00030       17428     537.              STCK  IOCBSTOP                I/O END TIME
 000022 183E                       17429     538.              LR    R3,R14                  SAVE RETURN ADDRESS
 000024 B20B 0000                  17430     539.              MODESET EXTKEY=ZERO,SAVEKEY=(2)  GET INTO KEY ZERO
 000028 B20A 0000      00000       17433             +
                                   17434     540.     *
                                   17435     541.     *  GUARANTEE THE LOCAL LOCK
                                   17436     542.     *
                                   17438     544.              SETLOCK TEST,TYPE=LOCAL,BRANCH=(HELD,LOCKOK)
                                   17444             +*        MACDATE = 09/15/87
 00002C 9101 02FB      002FB       17445    02-SETLO +         TM    PSAHLHI-PSA+3(0),1          TEST BIT IN CURRENT @G860PXA
                                   17446             +*                                       LOCK HELD STRING       @G860PXA
 000030 4780 9028            0003E 17447    02-SETLO +         BZ    IHA0813B                 BRANCH NOT HELD        @G387PXR
 000034 D503 02EC 04A8 002EC 004A8 17448    02-SETLO +         CLC   PSALOCAL-FLC(4,0),PSAFZERO-FLC(0) LOCAL HELD?   @ZMP0008
 00003A 4780 9032            00048 17449    02-SETLO +         BE    LOCKOK                   BRANCH LOCK HELD       @ZMP0008
 00003E                            17450    02-SETLO +IHA0813B DC    0H'0'                    BRANCH LABEL           @G387PXR
                                   17451     545.              SETLOCK OBTAIN,TYPE=LOCAL,MODE=UNCOND,RELATED=IOTLOCK
                                   17457             +*        MACDATE = 09/15/87
 00003E                            17458    02-SETLO +         DS    0H                                                  @P1A
 00003E 58E0 02FC            002FC 17459    02-SETLO +         L     14,PSALITA-FLC(0,0)      LOCK INTERFACE TABLE ADDR  @P1A
 000042 58DE 0248            00248 17460    02-SETLO +         L     13,584(14,0)             LOAD ADDRESS OF LOCK RTN   @L2C
 000046 05ED                       17461    02-SETLO +         BALR  14,13                    BRANCH ENTER LOCK ROUTINE
 000048                            17463     547.     LOCKOK   LABEL ,
1IOSERV   (IOSE00) (09:40) (22MAR04) IHAPSAE  - PSA Extension (ESAME)                                                       Page   34
0Current Usings:  (IOCB,R4) (IOSB,R5) (*,R9)
0Loc    Object Code    Addr1 Addr2  Stmt Lv Lineno    Source Statement           (Hibal 5, Asmedit 3.3)  HLASM R4.0  2004/03/22 09.40
+___    ______ ____    _____ _____  ____ __ ______    ______ _________
0                                  17466     549.     *
                                   17467     550.     *  ENTER PURGE ROUTINE IF NECESSARY
                                   17468     551.     *
 000048 5810 502C            0002C 17469     552.              L     R1,IOSIPIB
 00004C 1211/4780 904C       00062 17470     553.              IF    (R1,NZ),BEGIN
 000052 1B00                       17484  1  554.                CLEAR R0                      INDICATE LOCAL LOCK HELD
 000054 58F0 0010            00010 17488  1  555.                L     R15,CVTPTR
 000058 58F0 F07C            0007C 17489  1  556.                WITH  (CVT,R15),'L R15,CVTIXAVL'   IOS VECTOR TABLE
 USING  CVT,R15
 DROP   CVT,R15
 00005C 58F0 F074/0DEF       00074 17513  1  557.                WITH  (IOCOM,R15),'ACALL IOCQCNT'   PURGE/QUIESCE
 USING  IOCOM,R15
 DROP   IOCOM,R15
 000062                            17543     558.              END   ,
 000062 B20A 2000      00000       17547     559.              MODESET KEYADDR=(2)           BACK TO OUR KEY
                                   17550     560.     *
                                   17551     561.     *  NOTIFY GUEST MACHINE
                                   17552     562.     *
 000066 9180 40AE      000AE       17553     563.              IF    ~IOCBPECB,BEGIN
 00006A 4710 90BE            000D4 17563             +
 00006E 58C0 4024            00024 17568  1  564.                L     WAR,IOCBSTK             SET UP
 000072 41D0 C008            00008 17569  1  565.                LA    SPR,@WAR+8               STACK
 USING  @GSTIIOT-72,R13            17570  1  566.                PSET  @GSTIIOT
 000076 D707 D048 D048 00000 00000 17587  1          +
 00007C 4800 5018            00018 17588  1  567.                LH    R0,IOSTATUS             COMPLETION CODE
 000080 5900 911A            00130 17589  1  568.                IF    (R0,EQ,X'00000C00'),'CLEAR R0'   GOOD COMPLETION
 000084 4770 9074/1B00       0008A 17601  1          +
 00008A 5000 D04C            00004 17615  1  569.                ST    R0,@GSTICS              COMPLETION STATUS
 00008E D203 D048 4010 00000 00010 17616  1  570.                MVC   @GSTIRQI,IOCBRQID       Request ID
 000094 58F0 911E/0DEF       00134 17617  1  571.                VCALL GSTIIOT                 NOTIFY THE USER
 DROP   IOSB,R5                    17621  1  572.                DROP  R5
                                   17628  1  573.     *
                                   17629  1  574.     *  UPDATE DATA SET STATISTICS
                                   17630  1  575.     *
 00009A 9801 4030            00030 17631  1  576.                LM    R0,R1,IOCBSTOP
 00009E 5F10 402C            0002C 17632  1  577.                SDL   R0,IOCBSTRT             ELAPSED TIME THIS I/O
 0000A2 47B0 9092/0600       000A8 17634  1          +
 0000A8 5F00 4028            00028 17636  1          +
 0000AC 9001 4030            00030 17637  1  578.                STM   R0,R1,IOCBSTOP
 0000B0 5820 4014            00014 17638  1  579.                L     R2,IOCBDDB              DDB POINTER
 USING  DDB,R2                     17639  1  580.                USING DDB,R2
 0000B4 9801 2028            00028 17648  1  581.                LM    R0,R1,DDBIOTIM          CURRENT VALUE
 0000B8                            17649  1  582.                LOOP  BEGIN
 0000B8 18E0                       17655  2  583.                  LR    R14,R0                  COPY
 0000BA 18F1                       17656  2  584.                  LR    R15,R1                   CURRENT
 0000BC 5EF0 4034            00034 17657  2  585.                  ADL   R14,IOCBSTOP            ADD INTERVAL
 0000C0 47C0 90B2            000C8 17666  2          +
 0000C4 5EE0 9122            00138 17672  2          +
 0000C8 5EE0 4030            00030 17677  2          +
 0000CC BB0E 2028            00028 17678  2  586.                  CDS   R0,R14,DDBIOTIM          AND UPDATE
 0000D0 4770 90A2            000B8 17679  1  587.                UNTIL Z,END
 0000D4                            17698     588.              END   ,
1IOSERV   (IOSE00) (09:40) (22MAR04) IHAPSAE  - PSA Extension (ESAME)                                                       Page   35
0Current Usings:  (DDB,R2) (IOCB,R4) (*,R9) (@GSTIIOT-72,R13)
0Loc    Object Code    Addr1 Addr2  Stmt Lv Lineno    Source Statement           (Hibal 5, Asmedit 3.3)  HLASM R4.0  2004/03/22 09.40
+___    ______ ____    _____ _____  ____ __ ______    ______ _________
0                                  17703     590.     *
                                   17704     591.     *  BRANCH TO POST FOR HOST REQUESTS
                                   17705     592.     *
 0000D4 90C2           000D4 0006C 17706     593.              ELSE  BEGIN
 0000D4 47F0 90E2            000F8 17711             +
 0000D8 947F 40AE      000AE       17717  1  594.                CLEAR IOCBPECB                CLEAR ECB POST
 0000DC B20B 0000                  17724  1  595.                MODESET EXTKEY=ZERO,SAVEKEY=(2)  GET INTO KEY ZERO
 0000E0 B20A 0000      00000       17727  1          +
 0000E4 41B0 4020            00020 17728  1  596.                LA    R11,IOCBECB             ECB address
 0000E8 1BAA                       17729  1  597.                CLEAR R10
 0000EA 58F0 0010            00010 17733  1  598.                L     R15,CVTPTR              CVT address
 0000EE 58F0 F370/0DEF       00370 17734  1  599.                WITH  (CVT,R15),'ACALL  CVT0PT02'   POST routine
 USING  CVT,R15
 DROP   CVT,R15
 0000F4 B20A 2000      00000       17764  1  600.                MODESET KEYADDR=(2)           BACK TO OUR KEY
 0000F8                            17767     601.              END   ,
                                   17771     602.     *
                                   17772     603.     *  ADD IOCB TO COMPLETE CHAIN
                                   17773     604.     *
 0000F8 5820 400C            0000C 17774     605.              L     R2,IOCBIOCT             IOCT POINTER
 DROP   DDB,R2                     17775     606.              USING IOCT,R2
 USING  IOCT,R2
 0000FC 98EF 2018            00018 17787     607.              LM    R14,R15,IOCTCIOB        COMPLETE CHAIN & COUNT
 000100                            17788     608.              LOOP  BEGIN
 000100 50E0 4008            00008 17794  1  609.                ST    R14,IOCBFCHN            OLD HEAD NOW NEXT IN LINE
 000104 4150 0001            00001 17795  1  610.                LA    R5,1
 000108 1E5F                       17796  1  611.                ALR   R5,R15                  NEW COUNTER
 00010A BBE4 2018            00018 17797  1  612.                CDS   R14,R4,IOCTCIOB         UPDATE COMPLETE CHAIN
 00010E 4770 90EA            00100 17798     613.              UNTIL Z,END
 DROP   IOCT,R2                    17817     614.              DROP  R2,R4
 DROP   IOCB,R4
                                   17830     615.     *
                                   17831     616.     *  FREE THE LOCAL LOCK AND RETURN TO DISPATCHER
                                   17832     617.     *
 000112 B20B 0000                  17833     618.              MODESET EXTKEY=ZERO,SAVEKEY=(2)  GET INTO KEY ZERO
 000116 B20A 0000      00000       17836             +
                                   17838     620.              SETLOCK RELEASE,TYPE=LOCAL,RELATED=IOTLOCK   RELEASE LOCK
                                   17844             +*        MACDATE = 09/15/87
 00011A                            17845    02-SETLO +         DS    0H                                                  @P1A
 00011A 58E0 02FC            002FC 17846    02-SETLO +         L     14,PSALITA-FLC(0,0)      LOCK INTERFACE TABLE ADDR  @P1A
 00011E 58DE 0254            00254 17847    02-SETLO +         L     13,596(14,0)             LOAD ADDRESS OF LOCK RTN   @L2C
 000122 05ED                       17848    02-SETLO +         BALR  14,13                    BRANCH ENTER LOCK ROUTINE
 000124 B20A 2000      00000       17850     622.              MODESET KEYADDR=(2)           BACK TO OUR KEY
 000128 0B03                       17853     623.              BSM   0,R3                    RETURN TO DISPATCHER
1IOSERV   (IOSE00) (09:40) (22MAR04) IHAPSAE  - PSA Extension (ESAME)                                                       Page   36
0Current Usings:  (*,R9) (@GSTIIOT-72,R13)
0Loc    Object Code    Addr1 Addr2  Stmt Lv Lineno    Source Statement           (Hibal 5, Asmedit 3.3)  HLASM R4.0  2004/03/22 09.40
+___    ______ ____    _____ _____  ____ __ ______    ______ _________
0000130                            17855     625.              LTORG
 000130 00000C00                   17857                             =A(X'00000C00')
 000134 00000000                   17858                             =V(GSTIIOT)
 000138 00000001       0013C 06A98 17859                             =A(1)
-00013C                            17864     627.              DS    0S(4096-(*-IOSERV))     LENGTH CHECK
 DROP   @GSTIIOT-72,R13            17865     628.              DROP  ,
 DROP   *,R9
1IOSERV   (IOSE00) (09:40) (22MAR04) IHAPSAE  - PSA Extension (ESAME)                                                       Page   37
0Loc    Object Code    Addr1 Addr2  Stmt Lv Lineno    Source Statement           (Hibal 5, Asmedit 3.3)  HLASM R4.0  2004/03/22 09.40
+___    ______ ____    _____ _____  ____ __ ______    ______ _________
0                                  17905     630.     *******************************************************************
                                   17906     631.     *                                                                 *
                                   17907     632.     *    IOSINIT - Initialize I/O service routines                    *
                                   17908     633.     *                                                                 *
                                   17909     634.     *                                                                 *
                                   17910     635.     *     Input - None                                                *
                                   17911     636.     *                                                                 *
                                   17912     637.     *    Output - None                                                *
                                   17913     638.     *                                                                 *
                                   17914     639.     *                                                                 *
                                   17915     640.     *******************************************************************
-
 00013C                            17917     642.     IOSINIT  PROC  SCOPE=GLOBAL
 00013C C9D6E2C9D5C9E340           17923             +
 000144 0000/0000                  17924             +
 000148 900F D004/18AF       00004 17926             +
 USING  IOSINIT,R10
 00014E 50D0 C000/18CD       00000 17941             +
 000154 9680 C000      00000       17943             +
 000158 41D0 C048            00048 17944             +
                                   17945     643.     *
                                   17946     644.     *  CREATE THE I/O SERVICE CT
                                   17947     645.     *
 USING  @MEMORY-72,R13             17948     646.              POOLGET L'IOCT                CREATE THE I/O SERVICE CT
 00015C D70B D048 D048 00000 00000 17966             +
 000162 4100 00B0            000B0 17974             +
 000166 5000 D04C            00004 17975             +
 00016A 9210 D04A      00002       17982             +
 00016E 58F0 AA18/0DEF       00B60 17985             +
 000174 1870                       17987     647.              LR    RY,RVR
 USING  IOCT,R7                    17988     648.              WITH  (IOCT,RY)
 000176 D203 7000 AA1C 00000 00B64 18001     649.              MVC   IOCT(4),=CL4'IOCT'      SET NAME FIELD
 USING  PSA,R0                     18002     650.              USING PSA,R0
 00017C 58F0 0224            00224 18011     651.              L     R15,PSAAOLD             OUR ASCB
 000180 58E0 021C            0021C 18012     652.              L     R14,PSATOLD              AND OUR TCB
 DROP   PSA,R0                     18013     653.              DROP  R0
 000184 50F0 7078            00078 18021     654.              ST    R15,IOCTASCB            SET ASCB ADDRESS
 000188 48F0 F024            00024 18022     655.              WITH  (ASCB,R15),'LH  R15,ASCBASID'
 USING  ASCB,R15
 DROP   ASCB,R15
 00018C 40F0 707C            0007C 18046     656.              STH   R15,IOCTASID            | AND ASCB ID
 USING  TCB,R14                    18047     657.              WITH  (TCB,R14),'MVC  IOCTKEY,TCBPKF'   AND PROTECT KEY
 000190 D200 707E E01C 0007E 0003C 18062             +
 DROP   TCB,R14
 000196 D203 7028 AA20 00028 00B68 18071     658.              MVC   IOCTSWPS,=A(1024)       SET SWAP WORK AREA SIZE
1IOSERV   (IOSE00) (09:40) (22MAR04) IHAPSAE  - PSA Extension (ESAME)                                                       Page   38
0Current Usings:  (IOCT,R7) (IOSINIT,R10) (@MEMORY-72,R13)
0Loc    Object Code    Addr1 Addr2  Stmt Lv Lineno    Source Statement           (Hibal 5, Asmedit 3.3)  HLASM R4.0  2004/03/22 09.40
+___    ______ ____    _____ _____  ____ __ ______    ______ _________
0                                  18073     660.     *
                                   18074     661.     *  Add IOCT pointer to CBAT
                                   18075     662.     *
 00019C 5810 9004            00004 18076     663.              WITH  (RTCB,RTCBR),'L  RS,RTCBCBAT'  GET CBAT POINTER
 USING  RTCB,R9
 DROP   RTCB,R9
 0001A0 5070 1054            00054 18100     664.              WITH  (CBAT,RS),'ST  RY,CBATIOCT'   IOCT POINTER TO CBAT
 USING  CBAT,R1
 DROP   CBAT,R1
                                   18124     665.     *
                                   18125     666.     *  SET UP AMODE 24 CAP ROUTINE
                                   18126     667.     *
 0001A4                            18127     668.              POOLGET AM24CLEN,TYPE=(BELOW16M,GLOBAL)
 0001A4 D70B D048 D048 00000 00000 18138             +
 0001AA 4100 0014            00014 18146             +
 0001AE 5000 D04C            00004 18147             +
 0001B2 9208 D04A      00002       18154             +
 0001B6 58F0 AA18/0DEF       00B60 18157             +
 0001BC 1860                       18159     669.              LR    RX,RVR
 0001BE 5060 7074            00074 18160     670.              ST    RX,IOCTAM24             SET LOCATION
 0001C2 5810 AA24            00B6C 18161     671.              L     RS,=A(AM24CAP)          ROUTINE ADDRESS
 0001C6 D213 6000 1000 00000 00000 18162     672.              MVC   @RX(AM24CLEN),@RS       MOVE TO 24 BIT LOCATION
                                   18163     673.     *
                                   18164     674.     *  CREATE DDB CHAIN LOCK
                                   18165     675.     *
 DROP   @MEMORY-72,R13             18166     676.              PSET  @LOCKCRE
 USING  @LOCKCRE-72,R13
 0001CC D710 D048 D048 00000 00000 18186             +
 0001D2 D20F D048 A960 00000 00AA8 18187     677.              MVC   @LOCKNAM,=CL16'DDB CHAIN'
 0001D8 58F0 AA28/0DEF       00B70 18188     678.              VCALL LOCKCRE
 0001DE 5000 7040            00040 18192     679.              ST    RVR,IOCTDDBL            SAVE THE LOCK ID
                                   18193     680.     *
                                   18194     681.     *   NEW FOR HIPERSPACE SUPPORT
                                   18195     682.     *
                                   18196     683.     *
                                   18197     684.     *  CREATE HDB CHAIN LOCK
                                   18198     685.     *
 0001E2                            18199     686.              PSET  @LOCKCRE
 0001E2 D710 D048 D048 00000 00000 18209             +
 0001E8 D20F D048 A970 00000 00AB8 18210     687.              MVC   @LOCKNAM,=CL16'HDB CHAIN'
 0001EE 58F0 AA28/0DEF       00B70 18211     688.              VCALL LOCKCRE
 0001F4 5000 7050            00050 18215     689.              ST    RVR,IOCTHDBL            SAVE THE LOCK ID
                                   18216     690.     *
                                   18217     691.     *  CREATE JDB CHAIN LOCK
                                   18218     692.     *
 0001F8                            18219     693.              PSET  @LOCKCRE
 0001F8 D710 D048 D048 00000 00000 18229             +
 0001FE D20F D048 A980 00000 00AC8 18230     694.              MVC   @LOCKNAM,=CL16'JDB CHAIN'
 000204 58F0 AA28/0DEF       00B70 18231     695.              VCALL LOCKCRE
 00020A 5000 7044            00044 18235     696.              ST    RVR,IOCTJDBL            SAVE THE LOCK ID
                                   18236     697.     *
                                   18237     698.     *  CREATE SNDB CHAIN LOCK
                                   18238     699.     *
 00020E                            18239     700.              PSET  @LOCKCRE
1IOSERV   (IOSE00) (09:40) (22MAR04) IHAPSAE  - PSA Extension (ESAME)                                                       Page   39
0Current Usings:  (IOCT,R7) (IOSINIT,R10) (@LOCKCRE-72,R13)
0Loc    Object Code    Addr1 Addr2  Stmt Lv Lineno    Source Statement           (Hibal 5, Asmedit 3.3)  HLASM R4.0  2004/03/22 09.40
+___    ______ ____    _____ _____  ____ __ ______    ______ _________
000020E D710 D048 D048 00000 00000 18249             +
 000214 D20F D048 A990 00000 00AD8 18250     701.              MVC   @LOCKNAM,=CL16'SNDB CHAIN'
 00021A 58F0 AA28/0DEF       00B70 18251     702.              VCALL LOCKCRE
 000220 5000 7054            00054 18255     703.              ST    RVR,IOCTSNPL            SAVE THE LOCK ID
                                   18256     704.     *
                                   18257     705.     *  CREATE SUSAN PATH CHAIN LOCK
                                   18258     706.     *
 000224                            18259     707.              PSET  @LOCKCRE
 000224 D710 D048 D048 00000 00000 18269             +
 00022A D20F D048 A9A0 00000 00AE8 18270     708.              MVC   @LOCKNAM,=CL16'SCOM CHAIN'
 000230 58F0 AA28/0DEF       00B70 18271     709.              VCALL LOCKCRE
 000236 5000 7048            00048 18275     710.              ST    RVR,IOCTPTHL            SAVE THE LOCK ID
                                   18276     711.     *
                                   18277     712.     *  CREATE SUSAN PATH NOTIFY CHAIN
                                   18278     713.     *
 00023A 4110 7060            00060 18279     714.              LA    RS,IOCTSNFP-(SDBFP-SDB)   SET DUMMY WAIT CHAIN
 00023E 5010 7068            00068 18280     715.              ST    RS,IOCTSNFP               FORWARD AND
 000242 5010 706C            0006C 18281     716.              ST    RS,IOCTSNBP               BACKWARD POINTERS
1IOSERV   (IOSE00) (09:40) (22MAR04) IHAPSAE  - PSA Extension (ESAME)                                                       Page   40
0Current Usings:  (IOCT,R7) (IOSINIT,R10) (@LOCKCRE-72,R13)
0Loc    Object Code    Addr1 Addr2  Stmt Lv Lineno    Source Statement           (Hibal 5, Asmedit 3.3)  HLASM R4.0  2004/03/22 09.40
+___    ______ ____    _____ _____  ____ __ ______    ______ _________
0                                  18283     718.     *
                                   18284     719.     *  CREATE SUSAN PATH NOTIFY CHAIN LOCK
                                   18285     720.     *
 000246                            18286     721.              PSET  @LOCKCRE
 000246 D710 D048 D048 00000 00000 18296             +
 00024C D20F D048 A9B0 00000 00AF8 18297     722.              MVC   @LOCKNAM,=CL16'SCOM NOTIFY'
 000252 58F0 AA28/0DEF       00B70 18298     723.              VCALL LOCKCRE
 000258 5000 704C            0004C 18302     724.              ST    RVR,IOCTSNTL            SAVE THE LOCK ID
                                   18303     725.     *
                                   18304     726.     *  CREATE MVS I/O OPERATIONS SUB-TASK
                                   18305     727.     *
 DROP   @LOCKCRE-72,R13            18306     728.              PSET  @SPAWN
 USING  @SPAWN-72,R13
 00025C D71B D048 D048 00000 00000 18326             +
 000262 D207 D048 A9C0 00000 00B08 18327     729.              MVC   @SPNNAME,=CL8'MVSIOTSK'
 000268 D203 D050 AA2C 00008 00B74 18328     730.              MVC   @SPNEP,=A(MVSIOTSK)
 00026E 5070 D054            0000C 18329     731.              ST    RY,@SPNPARM             IOCT ADDRESS IS THE PARM
 000272 D203 D060 AA30 00018 00B78 18330     732.              MVC   @SPNDPRI,=A(100)        SLIGHTLY HIGHER PRIORITY
 000278 58F0 AA34/0DEF       00B7C 18331     733.              VCALL SPAWN                   START IT UP
 00027E 5000 705C            0005C 18335     734.              ST    RVR,IOCTMTID            SAVE TASK ID
                                   18336     735.     *
                                   18337     736.     *  CREATE SCOM SUB-TASK
                                   18338     737.     *
 000282                            18339     738.              PSET  @SPAWN
 000282 D71B D048 D048 00000 00000 18349             +
 000288 D207 D048 A9C8 00000 00B10 18350     739.              MVC   @SPNNAME,=CL8'SCOMTASK'
 00028E D203 D050 AA38 00008 00B80 18351     740.              MVC   @SPNEP,=A(SCOMTASK)
 000294 5070 D054            0000C 18352     741.              ST    RY,@SPNPARM             IOCT ADDRESS IS THE PARM
 000298 D203 D060 AA30 00018 00B78 18353     742.              MVC   @SPNDPRI,=A(100)        SLIGHTLY HIGHER PRIORITY
 00029E 58F0 AA34/0DEF       00B7C 18354     743.              VCALL SPAWN                   START IT UP
 0002A4 5000 7058            00058 18358     744.              ST    RVR,IOCTSTID            SAVE TASK ID
                                   18359     745.     *
                                   18360     746.     *  CREATE JES I/O SUB-TASK
                                   18361     747.     *
 0002A8                            18362     748.              PSET  @SPAWN
 0002A8 D71B D048 D048 00000 00000 18372             +
 0002AE D207 D048 A9D0 00000 00B18 18373     749.              MVC   @SPNNAME,=CL8'JESIOTSK'
 0002B4 D203 D050 AA3C 00008 00B84 18374     750.              MVC   @SPNEP,=A(JESIOTSK)
 0002BA 5070 D054            0000C 18375     751.              ST    RY,@SPNPARM             IOCT ADDRESS IS THE PARM
 0002BE D203 D060 AA30 00018 00B78 18376     752.              MVC   @SPNDPRI,=A(100)        SLIGHTLY HIGHER PRIORITY
 0002C4 58F0 AA34/0DEF       00B7C 18377     753.              VCALL SPAWN                   START IT UP
 0002CA 5000 7060            00060 18381     754.              ST    RVR,IOCTJTID            SAVE TASK ID
                                   18382     755.     *
                                   18383     756.     *  NEW FOR HIPERSPACE SUPPORT
                                   18384     757.     *
 0002CE 5110 0000            00000 18385     758.              TCBTOKEN TTOKEN=IOCTTTOK,TYPE=JOBSTEP
 0002D2 4110 A198            002E0 18389             +
 0002D6 9203 1014      00014       18390             +
 0002DA 47F0 A1B0/0700       002F8 18391             +
 0002E0 0000000000000000           18394             +
 0002E8 00000000                   18395             +
 0002EC 00000000                   18396             +
 0002F0 00000000/00                18397             +
 0002F5 000000                     18399             +
1IOSERV   (IOSE00) (09:40) (22MAR04) IHAPSAE  - PSA Extension (ESAME)                                                       Page   41
0Current Usings:  (IOCT,R7) (IOSINIT,R10) (@SPAWN-72,R13)
0Loc    Object Code    Addr1 Addr2  Stmt Lv Lineno    Source Statement           (Hibal 5, Asmedit 3.3)  HLASM R4.0  2004/03/22 09.40
+___    ______ ____    _____ _____  ____ __ ______    ______ _________
00002F8 58E0 0010            00010 18402             +
 0002FC 58EE 0304            00304 18403             +
 000300 58EE 00D4            000D4 18404             +
 000304 B218 E000      00000       18405             +
 000308 51E0 70A0            000A0 18406             +
 00030C D20F E000 1000 00000 00000 18407             +
                                   18408     759.     *
                                   18409     760.     *  CREATE HIPERSPACE SUB-TASK.
                                   18410     761.     *
 000312                            18411     762.              PSET  @SPAWN
 000312 D71B D048 D048 00000 00000 18421             +
 000318 D207 D048 A9D8 00000 00B20 18422     763.              MVC   @SPNNAME,=CL8'HSPCETSK'
 00031E D203 D050 AA40 00008 00B88 18423     764.              MVC   @SPNEP,=A(HSPCETSK)
 000324 5070 D054            0000C 18424     765.              ST    RY,@SPNPARM           IOCT ADDRESS IS THE PARM
 000328 D203 D060 AA30 00018 00B78 18425     766.              MVC   @SPNDPRI,=A(100)      SLIGHTLY HIGHER PRIORITY
 00032E 58F0 AA34/0DEF       00B7C 18426     767.              VCALL SPAWN                 START IT UP
 000334 5000 7064            00064 18430     768.              ST    RVR,IOCTHTID          SAVE TASK ID
                                   18431     769.     *
                                   18432     770.     *  OBTAIN THE PARAMETER WORK AREA
                                   18433     771.     *
 DROP   @SPAWN-72,R13              18434     772.              MEMGET L'HPRMWORK
 USING  @MEMGET-72,R13
 000338 D709 D048 D048 00000 00000 18456             +
 00033E 4100 0070            00070 18463             +
 000342 5000 D04C            00004 18464             +
 000346 9211 D051      00009       18474             +
 00034A 58F0 AA44/0DEF       00B8C 18477             +
 000350 1850                       18479     773.              LR    RK,RVR
 USING  HPRMWORK,R5                18480     774.              WITH  (HPRMWORK,RK)
 AUSING (PARMIN,HPRMPARM)          18493     775.              WITH  (PARMIN,HPRMPARM)
                                   18500     776.     *
                                   18501     777.     *  OBTAIN THE  HIPERSPACE PARAMETERS
                                   18502     778.     *
 000352 D207 5004 A9E0 00004 00B28 18503     779.              MVC   HPRMKEY1,=CL8'HSPACE'   PRIMARY KEYWORD
                                   18504     780.     *
                                   18505     781.     *  GET HIPERSPACE SIZE FOR PAGE/SWAP DATA SET SIMULATION
                                   18506     782.     *
 000358                            18507     783.              CLEAR HPRMKEY3
 000358 D707 5014 5014 00014 00014 18513             +
 00035E                            18514     784.              CLEAR HPRMVAL
 00035E D703 501C 501C 0001C 0001C 18520             +
 000364                            18521     785.              CLEAR IOCTHSIZ
 000364 D703 7084 7084 00084 00084 18527             +
 00036A                            18528     786.              CLEAR IOCTPGLM
 00036A D701 7088 7088 00088 00088 18534             +
 000370                            18535     787.              CLEAR IOCTSWLM
 000370 D701 708A 708A 0008A 0008A 18541             +
 DROP   @MEMGET-72,R13             18542     788.              PSET  @PARMDO
 USING  @PARMDO-72,R13
 000376 D70F D048 D048 00000 00000 18562             +
 00037C D207 500C A9E8 0000C 00B30 18563     789.              MVC   HPRMKEY2,=CL8'MAXSIZE'  SECONDARY KEYWORD
 000382 4100 5000            00000 18564     790.              PMOV  @PARILOC,LA:PARMIN      PARMIN LOCATION
 000386 5000 D048            00000 18580             +
 00038A 4100 0014            00014 18581     791.              PMOV  @PARILEN,LA:L'PARMIN+16 LENGTH OF INPUT
1IOSERV   (IOSE00) (09:40) (22MAR04) IHAPSAE  - PSA Extension (ESAME)                                                       Page   42
0Current Usings:  (HPRMWORK,R5) (IOCT,R7) (IOSINIT,R10) (@PARMDO-72,R13)
0Loc    Object Code    Addr1 Addr2  Stmt Lv Lineno    Source Statement           (Hibal 5, Asmedit 3.3)  HLASM R4.0  2004/03/22 09.40
+___    ______ ____    _____ _____  ____ __ ______    ______ _________
000038E 5000 D04C            00004 18597             +
 000392 4100 501C            0001C 18598     792.              PMOV  @PAROLOC,LA:HPRMVAL     LOCATION OF RETURN AREA
 000396 5000 D050            00008 18614             +
 00039A 4100 0004            00004 18615     793.              PMOV  @PAROLEN,LA:L'HPRMVAL   LENGTH OF RETURN AREA
 00039E 5000 D054            0000C 18631             +
 0003A2 9204 5000      00000       18632     794.              SET   PARMFINT                INTEGER TO BE RETURNED
 0003A6 58F0 AA48/0DEF       00B90 18638     795.              VCALL PARMDO
 0003AC 1200/4770 A28A       003D2 18642     796.              IF    (RVR,Z),BEGIN           IF HIPERSPACE MAXSIZE GIVEN
 0003B2 5810 501C            0001C 18656  1  797.                L     RS,HPRMVAL
 0003B6 5910 AA4C            00B94 18657  1  798.                FLOOR RS,=F'144000'           MIN = 1 CURR PAGE DS EXTENT
 0003BA 47B0 A27A            003C2 18660  1          +
 0003BE 5810 AA4C            00B94 18661  1          +
 0003C2 5910 AA50            00B98 18662  1  799.                CEIL  RS,=F'524288'           MAX HIPERSPACE = 2GB/4096
 0003C6 47D0 A286            003CE 18665  1          +
 0003CA 5810 AA50            00B98 18666  1          +
 0003CE 5010 7084            00084 18667  1  800.                ST    RS,IOCTHSIZ             SAVE FOR LATER USE
 0003D2                            18668     801.              END   ,                    OF IF HIPERSIZE MAXSIZE GIVEN
 0003D2 D207 500C A9F0 0000C 00B38 18672     802.              MVC   HPRMKEY2,=CL8'PAGE'     SECONDARY KEYWORD
 0003D8 4100 5000            00000 18673     803.              PMOV  @PARILOC,LA:PARMIN      PARMIN LOCATION
 0003DC 5000 D048            00000 18689             +
 0003E0 4100 0014            00014 18690     804.              PMOV  @PARILEN,LA:L'PARMIN+16 LENGTH OF INPUT
 0003E4 5000 D04C            00004 18706             +
 0003E8 4100 501C            0001C 18707     805.              PMOV  @PAROLOC,LA:HPRMVAL     LOCATION OF RETURN AREA
 0003EC 5000 D050            00008 18723             +
 0003F0 4100 0004            00004 18724     806.              PMOV  @PAROLEN,LA:L'HPRMVAL   LENGTH OF RETURN AREA
 0003F4 5000 D054            0000C 18740             +
 0003F8 9204 5000      00000       18741     807.              SET   PARMFINT                INTEGER TO BE RETURNED
 0003FC 58F0 AA48/0DEF       00B90 18747     808.              VCALL PARMDO
 000402 1200/4770 A2D4       0041C 18751     809.              IF    (RVR,Z),BEGIN           THERE'S LIMIT TO PAGE DS
 000408 5810 501C            0001C 18765  1  810.                L     RS,HPRMVAL                HIPERSPACE SIMULATION
 00040C 5910 AA54            00B9C 18766  1  811.                FLOOR RS,=F'0'                SET DEFAULT TO 0
 000410 47B0 A2D0            00418 18769  1          +
 000414 5810 AA54            00B9C 18770  1          +
 000418 4010 7088            00088 18771  1  812.                STH   RS,IOCTPGLM
 00041C                            18772     813.              END   ,                    OF THERE'S LIMIT TO SWAP DS
 00041C D207 500C A9F8 0000C 00B40 18776     814.              MVC   HPRMKEY2,=CL8'SWAP'     SECONDARY KEYWORD
 000422 4100 5000            00000 18777     815.              PMOV  @PARILOC,LA:PARMIN      PARMIN LOCATION
 000426 5000 D048            00000 18793             +
 00042A 4100 0014            00014 18794     816.              PMOV  @PARILEN,LA:L'PARMIN+16 LENGTH OF INPUT
 00042E 5000 D04C            00004 18810             +
 000432 4100 501C            0001C 18811     817.              PMOV  @PAROLOC,LA:HPRMVAL     LOCATION OF RETURN AREA
 000436 5000 D050            00008 18827             +
 00043A 4100 0004            00004 18828     818.              PMOV  @PAROLEN,LA:L'HPRMVAL   LENGTH OF RETURN AREA
 00043E 5000 D054            0000C 18844             +
 000442 9204 5000      00000       18845     819.              SET   PARMFINT                INTEGER TO BE RETURNED
 000446 58F0 AA48/0DEF       00B90 18851     820.              VCALL PARMDO
 00044C 1200/4770 A31E       00466 18855     821.              IF    (RVR,Z),BEGIN           THERE'S LIMIT TO SWAP DS
 000452 5810 501C            0001C 18869  1  822.                L     RS,HPRMVAL                HIPERSPACE SIMULATION
 000456 5910 AA54            00B9C 18870  1  823.                FLOOR RS,=F'0'                SET DEFAULT TO 0
 00045A 47B0 A31A            00462 18873  1          +
 00045E 5810 AA54            00B9C 18874  1          +
 000462 4010 708A            0008A 18875  1  824.                STH   RS,IOCTSWLM
 000466                            18876     825.              END   ,                    OF THERE'S LIMIT TO SWAP DS
 000466 0700/0ADE                  18880     826.              QSNAP IOCT,L'IOCT-1
1IOSERV   (IOSE00) (09:40) (22MAR04) IHAPSAE  - PSA Extension (ESAME)                                                       Page   43
0Current Usings:  (HPRMWORK,R5) (IOCT,R7) (IOSINIT,R10) (@PARMDO-72,R13)
0Loc    Object Code    Addr1 Addr2  Stmt Lv Lineno    Source Statement           (Hibal 5, Asmedit 3.3)  HLASM R4.0  2004/03/22 09.40
+___    ______ ____    _____ _____  ____ __ ______    ______ _________
000046A 08AF00007000               18883             +
 000470 981F C008            00008 18884     827.              PEND
 DROP   HPRMWORK,R5
 DROP   IOCT,R7
 DROP   IOSINIT,R10
 000474 9680 C000/0B0E 00000       18904             +
 DROP   @PARMDO-72,R13
1IOSERV   (IOSE00) (09:40) (22MAR04) IHAPSAE  - PSA Extension (ESAME)                                                       Page   44
0Loc    Object Code    Addr1 Addr2  Stmt Lv Lineno    Source Statement           (Hibal 5, Asmedit 3.3)  HLASM R4.0  2004/03/22 09.40
+___    ______ ____    _____ _____  ____ __ ______    ______ _________
0                                  18914     829.     *******************************************************************
                                   18915     830.     *                                                                 *
                                   18916     831.     *    IOSTINIT - Initialize task based I/O service routines        *
                                   18917     832.     *                                                                 *
                                   18918     833.     *                                                                 *
                                   18919     834.     *     Input - None                                                *
                                   18920     835.     *                                                                 *
                                   18921     836.     *    Output - None                                                *
                                   18922     837.     *                                                                 *
                                   18923     838.     *                                                                 *
                                   18924     839.     *******************************************************************
-
 00047A                            18926     841.     IOSTINIT PROC  SCOPE=GLOBAL
 00047A C9D6E2E3C9D5C9E3           18932             +
 000482 0000/0000                  18933             +
 000486 900F D004/18AF       00004 18935             +
 USING  IOSTINIT,R10
 00048C 50D0 C000/18CD       00000 18950             +
 000492 9680 C000      00000       18952             +
 000496 41D0 C048            00048 18953             +
                                   18954     842.     *
                                   18955     843.     *  CREATE THE I/O TABLE
                                   18956     844.     *
 USING  @MEMGET-72,R13             18957     845.              MEMGET L'IOT,TYPE=LOCAL       CREATE THE I/O TABLE
 00049A D709 D048 D048 00000 00000 18976             +
 0004A0 4100 001C            0001C 18983             +
 0004A4 5000 D04C            00004 18984             +
 0004A8 9211 D051      00009       18994             +
 0004AC 58F0 A706/0DEF       00B8C 18997             +
 0004B2 1870                       18999     846.              LR    RY,RVR
 USING  IOT,R7                     19000     847.              WITH  (IOT,RY)
 0004B4 D203 7000 A71A 00000 00BA0 19013     848.              MVC   IOT(4),=CL4'IOT'        SET NAME FIELD
                                   19014     849.     *
                                   19015     850.     *  Add IOT pointer to RTCB
                                   19016     851.     *
 0004BA 5070 90A8            000A8 19017     852.              WITH  (RTCB,RTCBR),'ST  RY,RTCBIOT'  SET POINTER
 USING  RTCB,R9
 DROP   RTCB,R9
                                   19041     853.     *
                                   19042     854.     *  CREATE MVS I/O OPERATIONS MESSAGE PATH
                                   19043     855.     *
 DROP   @MEMGET-72,R13             19044     856.              MSGATT MVSIOTSK,TYPE=REQ      Open channel
 USING  @MSGATT-72,R13
 0004BE D207 D048 A682 00000 00B08 19059             +
 0004C4 58F0 A71E/0DEF       00BA4 19062             +
 0004CA 5000 7010            00010 19064     857.              ST    RVR,IOTMTMC             MESSAGE CHANNEL ID
1IOSERV   (IOSE00) (09:40) (22MAR04) IHAPSAE  - PSA Extension (ESAME)                                                       Page   45
0Current Usings:  (IOT,R7) (IOSTINIT,R10) (@MSGATT-72,R13)
0Loc    Object Code    Addr1 Addr2  Stmt Lv Lineno    Source Statement           (Hibal 5, Asmedit 3.3)  HLASM R4.0  2004/03/22 09.40
+___    ______ ____    _____ _____  ____ __ ______    ______ _________
0                                  19066     859.     *
                                   19067     860.     *  CREATE SCOM OPERATIONS MESSAGE PATH
                                   19068     861.     *
 0004CE                            19069     862.              MSGATT SCOMTASK,TYPE=REQ      Open channel
 0004CE D207 D048 A68A 00000 00B10 19074             +
 0004D4 58F0 A71E/0DEF       00BA4 19077             +
 0004DA 5000 7004            00004 19079     863.              ST    RVR,IOTSTMC             MESSAGE CHANNEL ID
                                   19080     864.     *
                                   19081     865.     *  Create SCOM work buffer
                                   19082     866.     *
 0004DE D203 700C A722 0000C 00BA8 19083     867.              MVC   IOTSBLEN,=A(32)         Maximum of 32 segments
 0004E4 5810 700C            0000C 19084     868.              L     RS,IOTSBLEN             Number of segments
 0004E8 4C10 A75E            00BE4 19085     869.              MH    RS,=Y(8)
 DROP   @MSGATT-72,R13             19086     870.              MEMGET (RS),TYPE=(FIX,GLOBAL)
 USING  @MEMGET-72,R13
 0004EC D709 D048 D048 00000 00000 19108             +
 0004F2 5010 D04C            00004 19109             +
 0004F6 921B D051      00009       19128             +
 0004FA 58F0 A706/0DEF       00B8C 19131             +
 000500 5000 7008            00008 19133     871.              ST    RVR,IOTSBUFF
                                   19134     872.     *
                                   19135     873.     *  CREATE JES I/O OPERATIONS MESSAGE PATH
                                   19136     874.     *
 DROP   @MEMGET-72,R13             19137     875.              MSGATT JESIOTSK,TYPE=REQ      Open channel
 USING  @MSGATT-72,R13
 000504 D207 D048 A692 00000 00B18 19152             +
 00050A 58F0 A71E/0DEF       00BA4 19155             +
 000510 5000 7014            00014 19157     876.              ST    RVR,IOTJTMC             MESSAGE CHANNEL ID
                                   19158     877.     *
                                   19159     878.     * New for Hiperspace support
                                   19160     879.     *
                                   19161     880.     *  CREATE HIPERSPACE OPERATIONS MESSAGE PATH
                                   19162     881.     *
 000514                            19163     882.              MSGATT HSPCETSK,TYPE=REQ      Open channel
 000514 D207 D048 A69A 00000 00B20 19168             +
 00051A 58F0 A71E/0DEF       00BA4 19171             +
 000520 5000 7018            00018 19173     883.              ST    RVR,IOTHTMC             MESSAGE CHANNEL ID
 000524 981F C008            00008 19174     884.              PEND
 DROP   IOT,R7
 DROP   IOSTINIT,R10
 000528 9680 C000/0B0E 00000       19189             +
 DROP   @MSGATT-72,R13
1IOSERV   (IOSE00) (09:40) (22MAR04) IHAPSAE  - PSA Extension (ESAME)                                                       Page   46
0Loc    Object Code    Addr1 Addr2  Stmt Lv Lineno    Source Statement           (Hibal 5, Asmedit 3.3)  HLASM R4.0  2004/03/22 09.40
+___    ______ ____    _____ _____  ____ __ ______    ______ _________
0                                  19199     886.     *******************************************************************
                                   19200     887.     *                                                                 *
                                   19201     888.     *    DUMPWORK - DUMP I/O Service work area                        *
                                   19202     889.     *                                                                 *
                                   19203     890.     *******************************************************************
 000000                00000 00004 19204     891.     DUMPWORK RECORD BEGIN
 000000                            19212  1  892.     DUMPADDR   DS    A                       Address to be formatted
 000004                00004 00004 19213     893.              END   ,
1IOSERV   (IOSE00) (09:40) (22MAR04) IHAPSAE  - PSA Extension (ESAME)                                                       Page   47
0Loc    Object Code    Addr1 Addr2  Stmt Lv Lineno    Source Statement           (Hibal 5, Asmedit 3.3)  HLASM R4.0  2004/03/22 09.40
+___    ______ ____    _____ _____  ____ __ ______    ______ _________
0                                  19223     895.     *******************************************************************
                                   19224     896.     *                                                                 *
                                   19225     897.     *   IOSDUMP - Dump I/O service task control blocks                *
                                   19226     898.     *                                                                 *
                                   19227     899.     *                                                                 *
                                   19228     900.     *     Input - @DUMPPRM                                            *
                                   19229     901.     *                                                                 *
                                   19230     902.     *    Output - None                                                *
                                   19231     903.     *                                                                 *
                                   19232     904.     *                                                                 *
                                   19233     905.     *******************************************************************
-
 00052E                            19235     907.     IOSDUMP  PROC  @DUMPPRM,DUMPWORK,SCOPE=GLOBAL
 00052E C9D6E2C4E4D4D740           19241             +
 000536 0008/0008                  19242             +
 00053A 900F D004/18AF       00004 19244             +
 USING  IOSDUMP,R10
 000540 50D0 C000/18CD       00000 19259             +
 000546 9680 C000      00000       19261             +
 USING  @DUMPPRM-72,R12
 AUSING (DUMPWORK,@DUMPPRM+8)
 00054A 41D0 C058            00058 19280             +
 00054E 5870 9004            00004 19281     908.              WITH  (RTCB,RTCBR),'L  RY,RTCBCBAT'   CBAT POINTER
 USING  RTCB,R9
 DROP   RTCB,R9
 000552 5870 7054            00054 19305     909.              WITH  (CBAT,RY),'L  RY,CBATIOCT'      IOCT POINTER
 USING  CBAT,R7
 DROP   CBAT,R7
 USING  IOCT,R7                    19329     910.              WITH  (IOCT,RY)
 USING  @SEG-72,R13                19342     911.              SEGEOR '*** I/O SERVICES ***',,@DUMPSCB
 000556 D70C D048 D048 00000 00000 19361             +
 00055C 4100 A672            00BAC 19370             +
 000560 5000 D04C            00004 19375             +
 000564 4100 0014            00014 19387             +
 000568 5000 D050            00008 19392             +
 00056C D203 D048 C04C 00000 00004 19399             +
 000572 9610 D054      0000C       19405             +
 000576 58F0 A686/0DEF       00BC0 19408             +
 00057C                            19410     912.              SEGEOR ,
 00057C D70C D048 D048 00000 00000 19422             +
 000582 D703 D050 D050 00008 00008 19430             +
 000588 D203 D048 C04C 00000 00004 19437             +
 00058E 9610 D054      0000C       19443             +
 000592 58F0 A686/0DEF       00BC0 19446             +
1IOSERV   (IOSE00) (09:40) (22MAR04) IHAPSAE  - PSA Extension (ESAME)                                                       Page   48
0Current Usings:  (IOCT,R7) (IOSDUMP,R10) (@DUMPPRM-72,R12) (@SEG-72,R13)
0Loc    Object Code    Addr1 Addr2  Stmt Lv Lineno    Source Statement           (Hibal 5, Asmedit 3.3)  HLASM R4.0  2004/03/22 09.40
+___    ______ ____    _____ _____  ____ __ ______    ______ _________
0                                  19449     914.     *
                                   19450     915.     *  DUMP IOCT
                                   19451     916.     *
 000598                            19452     917.              SEG   'IOCT at '
 000598 D70C D048 D048 00000 00000 19463             +
 00059E 4100 A60E            00B48 19472             +
 0005A2 5000 D04C            00004 19477             +
 0005A6 4100 0008            00008 19489             +
 0005AA 5000 D050            00008 19494             +
 0005AE D203 D048 C04C 00000 00004 19501             +
 0005B4 58F0 A686/0DEF       00BC0 19504             +
 0005BA 5070 C050            00000 19506     918.              ST    RY,DUMPADDR
 0005BE                            19507     919.              SEGHEX DUMPADDR
 0005BE D70C D048 D048 00000 00000 19518             +
 0005C4 4100 C050            00000 19531             +
 0005C8 5000 D04C            00004 19536             +
 0005CC 4100 0004            00004 19548             +
 0005D0 5000 D050            00008 19553             +
 0005D4 D203 D048 C04C 00000 00004 19560             +
 0005DA 58F0 A68A/0DEF       00BC4 19563             +
 0005E0                            19565     920.              SEGEOR  ,
 0005E0 D70C D048 D048 00000 00000 19577             +
 0005E6 D703 D050 D050 00008 00008 19585             +
 0005EC D203 D048 C04C 00000 00004 19592             +
 0005F2 9610 D054      0000C       19598             +
 0005F6 58F0 A686/0DEF       00BC0 19601             +
 DROP   @SEG-72,R13                19603     921.              SEGCORE IOCT,L'IOCT,ID=IOCT,REPEAT=NO
 USING  @SEGCORE-72,R13
 0005FC D717 D048 D048 00000 00000 19624             +
 000602 5070 D04C            00004 19636             +
 000606 4100 00B0            000B0 19648             +
 00060A 5000 D050            00008 19653             +
 00060E D203 D05C A62A 00014 00B64 19659             +
 000614 D203 D058 D04C 00010 00004 19664             +
 00061A 96F0 D055      0000D       19682             +
 00061E D203 D048 C04C 00000 00004 19689             +
 000624 58F0 A68E/0DEF       00BC8 19692             +
 DROP   @SEGCORE-72,R13            19694     922.              SEGEOR  ,
 USING  @SEG-72,R13
 00062A D70C D048 D048 00000 00000 19716             +
 000630 D703 D050 D050 00008 00008 19724             +
 000636 D203 D048 C04C 00000 00004 19731             +
 00063C 9610 D054      0000C       19737             +
 000640 58F0 A686/0DEF       00BC0 19740             +
1IOSERV   (IOSE00) (09:40) (22MAR04) IHAPSAE  - PSA Extension (ESAME)                                                       Page   49
0Current Usings:  (IOCT,R7) (IOSDUMP,R10) (@DUMPPRM-72,R12) (@SEG-72,R13)
0Loc    Object Code    Addr1 Addr2  Stmt Lv Lineno    Source Statement           (Hibal 5, Asmedit 3.3)  HLASM R4.0  2004/03/22 09.40
+___    ______ ____    _____ _____  ____ __ ______    ______ _________
0                                  19743     924.     *
                                   19744     925.     *  DUMP ERROR IOCB'S
                                   19745     926.     *
 000646 4120 7004            00004 19746     927.              LA    RA,IOCTIOCB-(IOCBMCHN-IOCB)      MASTER CHAIN
 USING  IOCB,R2                    19747     928.              WITH  (IOCB,RA)
 00064A 5820 2004/1222       00004 19760     929.              WHILE ('LT  RA,IOCBMCHN',NZ),BEGIN
 000650 4780 A3FA            00934 19773             +
 000654                            19778  1  930.                IF    (IOCBRQID,Z),NEXT       SKIP IF NEVER USED
 000654 D603 2010 2010 00010 00010 19788  1          +
 00065A 4780 A110            0064A 19791  1          +
 00065E 4110 20DC            000DC 19797  1  931.                LA    RS,IOCBIOSB             IOSB POINTER
 USING  IOSB,R1                    19798  1  932.                WITH  (IOSB,RS)
 000662 950C 1018      00018       19811  1  933.                IF    (IOSTATUS.X'0C',EQ),NEXT
 000666 4780 A110            0064A 19826  1          +
 DROP   IOSB,R1                    19832  1  934.                DROP  RS
 00066A                            19839  1  935.                SEG   'IOCB at '
 00066A D70C D048 D048 00000 00000 19850  1          +
 000670 4100 A616            00B50 19859  1          +
 000674 5000 D04C            00004 19864  1          +
 000678 4100 0008            00008 19876  1          +
 00067C 5000 D050            00008 19881  1          +
 000680 D203 D048 C04C 00000 00004 19888  1          +
 000686 58F0 A686/0DEF       00BC0 19891  1          +
 00068C 5020 C050            00000 19893  1  936.                ST    RA,DUMPADDR
 000690                            19894  1  937.                SEGHEX DUMPADDR
 000690 D70C D048 D048 00000 00000 19905  1          +
 000696 4100 C050            00000 19918  1          +
 00069A 5000 D04C            00004 19923  1          +
 00069E 4100 0004            00004 19935  1          +
 0006A2 5000 D050            00008 19940  1          +
 0006A6 D203 D048 C04C 00000 00004 19947  1          +
 0006AC 58F0 A68A/0DEF       00BC4 19950  1          +
 0006B2                            19952  1  938.                SEGEOR  ,
 0006B2 D70C D048 D048 00000 00000 19964  1          +
 0006B8 D703 D050 D050 00008 00008 19972  1          +
 0006BE D203 D048 C04C 00000 00004 19979  1          +
 0006C4 9610 D054      0000C       19985  1          +
 0006C8 58F0 A686/0DEF       00BC0 19988  1          +
 DROP   @SEG-72,R13                19990  1  939.                SEGCORE IOCB,L'IOCB-(SRBSIZE+L'IOSBSTD),ID=IOCB,REPEAT=YES
 USING  @SEGCORE-72,R13
 0006CE D717 D048 D048 00000 00000 20011  1          +
 0006D4 5020 D04C            00004 20023  1          +
 0006D8 4100 00B0            000B0 20035  1          +
 0006DC 5000 D050            00008 20040  1          +
 0006E0 D203 D05C A692 00014 00BCC 20046  1          +
 0006E6 D203 D058 D04C 00010 00004 20051  1          +
 0006EC 96F8 D055      0000D       20075  1          +
 0006F0 D203 D048 C04C 00000 00004 20082  1          +
 0006F6 58F0 A68E/0DEF       00BC8 20085  1          +
 DROP   @SEGCORE-72,R13            20087  1  940.                SEGEOR  ,
 USING  @SEG-72,R13
 0006FC D70C D048 D048 00000 00000 20109  1          +
 000702 D703 D050 D050 00008 00008 20117  1          +
 000708 D203 D048 C04C 00000 00004 20124  1          +
1IOSERV   (IOSE00) (09:40) (22MAR04) IHAPSAE  - PSA Extension (ESAME)                                                       Page   50
0Current Usings:  (IOCB,R2) (IOCT,R7) (IOSDUMP,R10) (@DUMPPRM-72,R12) (@SEG-72,R13)
0Loc    Object Code    Addr1 Addr2  Stmt Lv Lineno    Source Statement           (Hibal 5, Asmedit 3.3)  HLASM R4.0  2004/03/22 09.40
+___    ______ ____    _____ _____  ____ __ ______    ______ _________
000070E 9610 D054      0000C       20130  1          +
 000712 58F0 A686/0DEF       00BC0 20133  1          +
                                   20135  1  941.     *
                                   20136  1  942.     *  DUMP THE SRB
                                   20137  1  943.     *
 000718 4130 20B0            000B0 20138  1  944.                LA    RB,IOCBSRB              SRB POINTER
 USING  SRB,R3                     20139  1  945.                WITH  (SRB,RB)
 00071C                            20152  1  946.                SEG   'SRB at '
 00071C D70C D048 D048 00000 00000 20163  1          +
 000722 4100 A6BA            00BF4 20172  1          +
 000726 5000 D04C            00004 20177  1          +
 00072A 4100 0007            00007 20189  1          +
 00072E 5000 D050            00008 20194  1          +
 000732 D203 D048 C04C 00000 00004 20201  1          +
 000738 58F0 A686/0DEF       00BC0 20204  1          +
 00073E 5030 C050            00000 20206  1  947.                ST    RB,DUMPADDR
 000742                            20207  1  948.                SEGHEX DUMPADDR
 000742 D70C D048 D048 00000 00000 20218  1          +
 000748 4100 C050            00000 20231  1          +
 00074C 5000 D04C            00004 20236  1          +
 000750 4100 0004            00004 20248  1          +
 000754 5000 D050            00008 20253  1          +
 000758 D203 D048 C04C 00000 00004 20260  1          +
 00075E 58F0 A68A/0DEF       00BC4 20263  1          +
 000764                            20265  1  949.                SEGEOR  ,
 000764 D70C D048 D048 00000 00000 20277  1          +
 00076A D703 D050 D050 00008 00008 20285  1          +
 000770 D203 D048 C04C 00000 00004 20292  1          +
 000776 9610 D054      0000C       20298  1          +
 00077A 58F0 A686/0DEF       00BC0 20301  1          +
 DROP   @SEG-72,R13                20303  1  950.                SEGCORE SRB,SRBSIZE,ID=SRB,REPEAT=YES
 USING  @SEGCORE-72,R13
 000780 D717 D048 D048 00000 00000 20324  1          +
 000786 5030 D04C            00004 20336  1          +
 00078A 4100 002C            0002C 20348  1          +
 00078E 5000 D050            00008 20353  1          +
 000792 D203 D05C A696 00014 00BD0 20359  1          +
 000798 D203 D058 D04C 00010 00004 20364  1          +
 00079E 96F8 D055      0000D       20388  1          +
 0007A2 D203 D048 C04C 00000 00004 20395  1          +
 0007A8 58F0 A68E/0DEF       00BC8 20398  1          +
 DROP   @SEGCORE-72,R13            20400  1  951.                SEGEOR  ,
 USING  @SEG-72,R13
 0007AE D70C D048 D048 00000 00000 20422  1          +
 0007B4 D703 D050 D050 00008 00008 20430  1          +
 0007BA D203 D048 C04C 00000 00004 20437  1          +
 0007C0 9610 D054      0000C       20443  1          +
 0007C4 58F0 A686/0DEF       00BC0 20446  1          +
1IOSERV   (IOSE00) (09:40) (22MAR04) IHAPSAE  - PSA Extension (ESAME)                                                       Page   51
0Current Usings:  (IOCB,R2) (SRB,R3) (IOCT,R7) (IOSDUMP,R10) (@DUMPPRM-72,R12) (@SEG-72,R13)
0Loc    Object Code    Addr1 Addr2  Stmt Lv Lineno    Source Statement           (Hibal 5, Asmedit 3.3)  HLASM R4.0  2004/03/22 09.40
+___    ______ ____    _____ _____  ____ __ ______    ______ _________
0                                  20449  1  953.     *
                                   20450  1  954.     *  DUMP THE IOSB
                                   20451  1  955.     *
 0007CA 4130 20DC            000DC 20452  1  956.                LA    RB,IOCBIOSB             IOSB POINTER
 DROP   SRB,R3                     20453  1  957.                WITH  (IOSB,RB)
 USING  IOSB,R3
 0007CE                            20469  1  958.                SEG   'IOSB at '
 0007CE D70C D048 D048 00000 00000 20480  1          +
 0007D4 4100 A61E            00B58 20489  1          +
 0007D8 5000 D04C            00004 20494  1          +
 0007DC 4100 0008            00008 20506  1          +
 0007E0 5000 D050            00008 20511  1          +
 0007E4 D203 D048 C04C 00000 00004 20518  1          +
 0007EA 58F0 A686/0DEF       00BC0 20521  1          +
 0007F0 5030 C050            00000 20523  1  959.                ST    RB,DUMPADDR
 0007F4                            20524  1  960.                SEGHEX DUMPADDR
 0007F4 D70C D048 D048 00000 00000 20535  1          +
 0007FA 4100 C050            00000 20548  1          +
 0007FE 5000 D04C            00004 20553  1          +
 000802 4100 0004            00004 20565  1          +
 000806 5000 D050            00008 20570  1          +
 00080A D203 D048 C04C 00000 00004 20577  1          +
 000810 58F0 A68A/0DEF       00BC4 20580  1          +
 000816                            20582  1  961.                SEGEOR  ,
 000816 D70C D048 D048 00000 00000 20594  1          +
 00081C D703 D050 D050 00008 00008 20602  1          +
 000822 D203 D048 C04C 00000 00004 20609  1          +
 000828 9610 D054      0000C       20615  1          +
 00082C 58F0 A686/0DEF       00BC0 20618  1          +
 DROP   @SEG-72,R13                20620  1  962.                SEGCORE IOSB,L'IOSBSTD,ID=IOSB,REPEAT=YES
 USING  @SEGCORE-72,R13
 000832 D717 D048 D048 00000 00000 20641  1          +
 000838 5030 D04C            00004 20653  1          +
 00083C 4100 006C            0006C 20665  1          +
 000840 5000 D050            00008 20670  1          +
 000844 D203 D05C A69A 00014 00BD4 20676  1          +
 00084A D203 D058 D04C 00010 00004 20681  1          +
 000850 96F8 D055      0000D       20705  1          +
 000854 D203 D048 C04C 00000 00004 20712  1          +
 00085A 58F0 A68E/0DEF       00BC8 20715  1          +
 DROP   @SEGCORE-72,R13            20717  1  963.                SEGEOR  ,
 USING  @SEG-72,R13
 000860 D70C D048 D048 00000 00000 20739  1          +
 000866 D703 D050 D050 00008 00008 20747  1          +
 00086C D203 D048 C04C 00000 00004 20754  1          +
 000872 9610 D054      0000C       20760  1          +
 000876 58F0 A686/0DEF       00BC0 20763  1          +
 DROP   IOSB,R3                    20765  1  964.                DROP  RB
1IOSERV   (IOSE00) (09:40) (22MAR04) IHAPSAE  - PSA Extension (ESAME)                                                       Page   52
0Current Usings:  (IOCB,R2) (IOCT,R7) (IOSDUMP,R10) (@DUMPPRM-72,R12) (@SEG-72,R13)
0Loc    Object Code    Addr1 Addr2  Stmt Lv Lineno    Source Statement           (Hibal 5, Asmedit 3.3)  HLASM R4.0  2004/03/22 09.40
+___    ______ ____    _____ _____  ____ __ ______    ______ _________
0                                  20773  1  966.     *
                                   20774  1  967.     *  DUMP THE SWAP CCW BUFFERS
                                   20775  1  968.     *
 00087C 4130 2018            00018 20776  1  969.                LA    RB,IOCBSCCW             SWAP CCW BLOCKS POINTER
 000880 5830 3000/1233       00000 20777  1  970.                WHILE ('LT  RB,@RB',NZ),BEGIN     SWAP CCWS POINTER
 000886 4780 A3F6            00930 20790  1          +
 00088A                            20795  2  971.                  SEG   'SWAP CCW''s at '
 00088A D70C D048 D048 00000 00000 20806  2          +
 000890 4100 A6AC            00BE6 20815  2          +
 000894 5000 D04C            00004 20820  2          +
 000898 4100 000E            0000E 20832  2          +
 00089C 5000 D050            00008 20837  2          +
 0008A0 D203 D048 C04C 00000 00004 20844  2          +
 0008A6 58F0 A686/0DEF       00BC0 20847  2          +
 0008AC 5030 C050            00000 20849  2  972.                  ST    RB,DUMPADDR
 0008B0                            20850  2  973.                  SEGHEX DUMPADDR
 0008B0 D70C D048 D048 00000 00000 20861  2          +
 0008B6 4100 C050            00000 20874  2          +
 0008BA 5000 D04C            00004 20879  2          +
 0008BE 4100 0004            00004 20891  2          +
 0008C2 5000 D050            00008 20896  2          +
 0008C6 D203 D048 C04C 00000 00004 20903  2          +
 0008CC 58F0 A68A/0DEF       00BC4 20906  2          +
 0008D2                            20908  2  974.                  SEGEOR  ,
 0008D2 D70C D048 D048 00000 00000 20920  2          +
 0008D8 D703 D050 D050 00008 00008 20928  2          +
 0008DE D203 D048 C04C 00000 00004 20935  2          +
 0008E4 9610 D054      0000C       20941  2          +
 0008E8 58F0 A686/0DEF       00BC0 20944  2          +
 0008EE 58F0 7028            00028 20946  2  975.                  L     R15,IOCTSWPS            SIZE OF THE AREA
 DROP   @SEG-72,R13                20947  2  976.                  SEGCORE (RB),(R15)
 USING  @SEGCORE-72,R13
 0008F2 D717 D048 D048 00000 00000 20968  2          +
 0008F8 5030 D04C            00004 20979  2          +
 0008FC 50F0 D050            00008 20989  2          +
 000900 96C0 D055      0000D       20998  2          +
 000904 D203 D048 C04C 00000 00004 21005  2          +
 00090A 58F0 A68E/0DEF       00BC8 21008  2          +
 DROP   @SEGCORE-72,R13            21010  2  977.                  SEGEOR  ,
 USING  @SEG-72,R13
 000910 D70C D048 D048 00000 00000 21032  2          +
 000916 D703 D050 D050 00008 00008 21040  2          +
 00091C D203 D048 C04C 00000 00004 21047  2          +
 000922 9610 D054      0000C       21053  2          +
 000926 58F0 A686/0DEF       00BC0 21056  2          +
 00092C 47F0 A346            00880 21058  1  978.                END   ,
 000930 47F0 A110            0064A 21063     979.              END   ,
 USING  SRB,R3
 DROP   SRB,R3
1IOSERV   (IOSE00) (09:40) (22MAR04) IHAPSAE  - PSA Extension (ESAME)                                                       Page   53
0Current Usings:  (IOCB,R2) (IOCT,R7) (IOSDUMP,R10) (@DUMPPRM-72,R12) (@SEG-72,R13)
0Loc    Object Code    Addr1 Addr2  Stmt Lv Lineno    Source Statement           (Hibal 5, Asmedit 3.3)  HLASM R4.0  2004/03/22 09.40
+___    ______ ____    _____ _____  ____ __ ______    ______ _________
0                                  21085     981.     *
                                   21086     982.     *  ALL DONE
                                   21087     983.     *
 000934                            21088     984.              SEGEOR '*** END OF I/O SERVICES ***'
 000934 D70C D048 D048 00000 00000 21100             +
 00093A 4100 A6C1            00BFB 21109             +
 00093E 5000 D04C            00004 21114             +
 000942 4100 001B            0001B 21126             +
 000946 5000 D050            00008 21131             +
 00094A D203 D048 C04C 00000 00004 21138             +
 000950 9610 D054      0000C       21144             +
 000954 58F0 A686/0DEF       00BC0 21147             +
 00095A                            21149     985.              SEGEOB ,
 00095A D70C D048 D048 00000 00000 21161             +
 000960 D703 D050 D050 00008 00008 21169             +
 000966 D203 D048 C04C 00000 00004 21176             +
 00096C 9608 D054      0000C       21182             +
 000970 58F0 A686/0DEF       00BC0 21185             +
 000976 981F C008            00008 21187     986.              PEND
 DROP   IOCB,R2
 DROP   IOCT,R7
 DROP   @DUMPPRM-72,R12
 DROP   IOSDUMP,R10
 00097A 9680 C000/0B0E 00000       21212             +
 DROP   @SEG-72,R13
1IOSERV   (IOSE00) (09:40) (22MAR04) IHAPSAE  - PSA Extension (ESAME)                                                       Page   54
0Loc    Object Code    Addr1 Addr2  Stmt Lv Lineno    Source Statement           (Hibal 5, Asmedit 3.3)  HLASM R4.0  2004/03/22 09.40
+___    ______ ____    _____ _____  ____ __ ______    ______ _________
0                                  21222     988.     *******************************************************************
                                   21223     989.     *                                                                 *
                                   21224     990.     *   IOSTERM - Terminate I/O service task                          *
                                   21225     991.     *                                                                 *
                                   21226     992.     *                                                                 *
                                   21227     993.     *     Input - None                                                *
                                   21228     994.     *                                                                 *
                                   21229     995.     *    Output - None                                                *
                                   21230     996.     *                                                                 *
                                   21231     997.     *                                                                 *
                                   21232     998.     *******************************************************************
-
 000980                            21234    1000.     IOSTERM  PROC  SCOPE=GLOBAL
 000980 C9D6E2E3C5D9D440           21240             +
 000988 0000/0000                  21241             +
 00098C 900F D004/18AF       00004 21243             +
 USING  IOSTERM,R10
 000992 50D0 C000/18CD       00000 21258             +
 000998 9680 C000      00000       21260             +
 00099C 41D0 C048            00048 21261             +
 0009A0 5870 9004            00004 21262    1001.              WITH  (RTCB,RTCBR),'L  RY,RTCBCBAT'   CBAT POINTER
 USING  RTCB,R9
 DROP   RTCB,R9
 0009A4 5870 7054            00054 21286    1002.              WITH  (CBAT,RY),'L  RY,CBATIOCT'      IOCT POINTER
 USING  CBAT,R7
 DROP   CBAT,R7
 USING  IOCT,R7                    21310    1003.              WITH  (IOCT,RY)
                                   21323    1004.     *
                                   21324    1005.     *  Close all SCOM paths
                                   21325    1006.     *
 0009A8 5830 7034            00034 21326    1007.              L     RB,IOCTPTHS             SDB chain
 0009AC                            21327    1008.              BEGIN
 0009AC 1233/4780 A036       009C2 21331  1 1009.                IF    (RB,Z),EXIT
 USING  SDB,R3                     21348  1 1010.                WITH  (SDB,RB)
 0009B2 41F0 0004            00004 21361  1 1011.                SCOM  CLOSE,0,PATH            Send close request to scom
 0009B6 5800 3020/1B11       00020 21373  1          +
 0009BC 0AFB                       21378  1          +
 0009BE 5830 3014            00014 21379  1 1012.                L     RB,SDBCHN               Next on the list
 DROP   SDB,R3                     21380    1013.              END   ,
                                   21389    1014.     *
                                   21390    1015.     *  CANCEL MVS I/O SUB-TASK
                                   21391    1016.     *
 USING  @CANTASK-72,R13            21392    1017.              PSET  @CANTASK,CLEAR=NO
 0009C2 5810 705C            0005C 21403    1018.              L     RS,IOCTMTID             TASK ID
 0009C6 5010 D048            00000 21404    1019.              ST    RS,@CANTID              PASS IT ALONG
 0009CA 58F0 A24C/0DEF       00BD8 21405    1020.              VCALL CANTASK
                                   21409    1021.     *
                                   21410    1022.     *  CANCEL SCOM SUB-TASK
                                   21411    1023.     *
                                   21412    1024.              PSET  @CANTASK,CLEAR=NO
 0009D0 5810 7058            00058 21416    1025.              L     RS,IOCTSTID             TASK ID
 0009D4 5010 D048            00000 21417    1026.              ST    RS,@CANTID              PASS IT ALONG
 0009D8 58F0 A24C/0DEF       00BD8 21418    1027.              VCALL CANTASK
                                   21422    1028.     *
1IOSERV   (IOSE00) (09:40) (22MAR04) IHAPSAE  - PSA Extension (ESAME)                                                       Page   55
0Current Usings:  (IOCT,R7) (IOSTERM,R10) (@CANTASK-72,R13)
0Loc    Object Code    Addr1 Addr2  Stmt Lv Lineno    Source Statement           (Hibal 5, Asmedit 3.3)  HLASM R4.0  2004/03/22 09.40
+___    ______ ____    _____ _____  ____ __ ______    ______ _________
0                                  21423    1029.     *  CANCEL JES SUB-TASK
                                   21424    1030.     *
                                   21425    1031.              PSET  @CANTASK,CLEAR=NO
 0009DE 5810 7060            00060 21429    1032.              L     RS,IOCTJTID             TASK ID
 0009E2 5010 D048            00000 21430    1033.              ST    RS,@CANTID              PASS IT ALONG
 0009E6 58F0 A24C/0DEF       00BD8 21431    1034.              VCALL CANTASK
                                   21435    1035.     *
                                   21436    1036.     *  New for Hiperspace support
                                   21437    1037.     *
                                   21438    1038.     *  CANCEL HIPERSPACE SUB-TASK
                                   21439    1039.     *
                                   21440    1040.              PSET  @CANTASK,CLEAR=NO
 0009EC 5810 7064            00064 21444    1041.              L     RS,IOCTHTID             TASK ID
 0009F0 5010 D048            00000 21445    1042.              ST    RS,@CANTID              PASS IT ALONG
 0009F4 58F0 A24C/0DEF       00BD8 21446    1043.              VCALL CANTASK
                                   21450    1044.     *
                                   21451    1045.     *  RELEASE IOCBS
                                   21452    1046.     *
 0009FA                            21453    1047.              LOOP  BEGIN
 0009FA 4110 A1EC/1BFF       00B78 21459  1 1048.                STIMER WAIT,BINTVL==A(100)
 000A00 4100 0091            00091 21464  1          +
 000A04 8900 0018/0A2F       00018 21465  1          +
 000A0A 58F0 A250/0DEF       00BDC 21467  1 1049.                ACALL RELIOCB                 CLEAR OFF THE COMPLETE CHAIN
 000A10 5820 7010/1222       00010 21474  1 1050.                IF    ('LT  RA,IOCTFIOB',Z),EXIT
 000A16 4780 A0D2            00A5E 21487  1          +
 000A1A 5820 7010/1222       00010 21493  1 1051.                WHILE ('LT  RA,IOCTFIOB',NZ),BEGIN
 000A20 4780 A0CE            00A5A 21506  1          +
 USING  IOCB,R2                    21511  2 1052.                  WITH  (IOCB,RA)
 000A24 5830 7014            00014 21524  2 1053.                  L     RB,IOCTFIOB+4           FREE CHAIN COUNT
 000A28                            21525  2 1054.                  LOOP  BEGIN
 000A28 58E0 2008            00008 21531  3 1055.                    L     R14,IOCBFCHN            NEXT IN LINE
 000A2C 41F0 0001            00001 21532  3 1056.                    LA    R15,1
 000A30 1EF3                       21533  3 1057.                    ALR   R15,RB                  NEW COUNTER
 000A32 BB2E 7010            00010 21534  3 1058.                    CDS   RA,R14,IOCTFIOB         UPDATE FREE CHAIN
 000A36 4770 A09C            00A28 21535  2 1059.                  UNTIL Z,END
                                   21554  2 1060.     *
                                   21555  2 1061.     *  RELEASE THE IOCB, SRB AND IOSB
                                   21556  2 1062.     *
 DROP   @CANTASK-72,R13            21557  2 1063.                  POOLFREE L'IOCB,A=(RA),SUBPOOL=228
 USING  @MEMORY-72,R13
 000A3A D70B D048 D048 00000 00000 21578  2          +
 000A40 4100 0148            00148 21586  2          +
 000A44 5000 D04C            00004 21587  2          +
 000A48 5020 D050            00008 21588  2          +
 000A4C 92E4 D04A      00002       21589  2          +
 000A50 58F0 A254/0DEF       00BE0 21592  2          +
 000A56 47F0 A08E            00A1A 21594  1 1064.                END   ,
 DROP   IOCB,R2
 000A5A 47F0 A06E            009FA 21604    1065.              END   ,
                                   21609    1066.     *
                                   21610    1067.     *  RELEASE SWAP WORK AREAS
                                   21611    1068.     *
 000A5E                            21612    1069.     SWAPCLN  LOOP  BEGIN
 000A5E 9823 7020            00020 21619  1 1070.                LM    RA,RB,IOCTSWPA
1IOSERV   (IOSE00) (09:40) (22MAR04) IHAPSAE  - PSA Extension (ESAME)                                                       Page   56
0Current Usings:  (IOCT,R7) (IOSTERM,R10) (@MEMORY-72,R13)
0Loc    Object Code    Addr1 Addr2  Stmt Lv Lineno    Source Statement           (Hibal 5, Asmedit 3.3)  HLASM R4.0  2004/03/22 09.40
+___    ______ ____    _____ _____  ____ __ ______    ______ _________
0000A62 1222/4780 A10E       00A9A 21620  1 1071.                IF    (RA,Z),EXIT
 000A68                            21637  1 1072.                LOOP  BEGIN
 000A68 58E0 2000            00000 21643  2 1073.                  L     R14,@RA                 NEXT IN LINE
 000A6C 41F0 0001            00001 21644  2 1074.                  LA    R15,1
 000A70 1EF3                       21645  2 1075.                  ALR   R15,RB                  NEW COUNTER
 000A72 BB2E 7020            00020 21646  2 1076.                  CDS   RA,R14,IOCTSWPA         UPDATE FREE CHAIN
 000A76 4770 A0DC            00A68 21647  1 1077.                UNTIL Z,END
 000A7A                            21666  1 1078.                POOLFREE L:IOCTSWPS,A=(RA),SUBPOOL=228
 000A7A D70B D048 D048 00000 00000 21677  1          +
 000A80 5800 7028            00028 21683  1          +
 000A84 5000 D04C            00004 21684  1          +
 000A88 5020 D050            00008 21685  1          +
 000A8C 92E4 D04A      00002       21686  1          +
 000A90 58F0 A254/0DEF       00BE0 21689  1          +
 000A96 47F0 A0D2            00A5E 21691    1079.              END   ,
 000A9A 981F C008            00008 21696    1080.              PEND
 DROP   IOCT,R7
 DROP   IOSTERM,R10
 000A9E 9680 C000/0B0E 00000       21711             +
 DROP   @MEMORY-72,R13
1IOSERV   (IOSE00) (09:40) (22MAR04) IHAPSAE  - PSA Extension (ESAME)                                                       Page   57
0Loc    Object Code    Addr1 Addr2  Stmt Lv Lineno    Source Statement           (Hibal 5, Asmedit 3.3)  HLASM R4.0  2004/03/22 09.40
+___    ______ ____    _____ _____  ____ __ ______    ______ _________
0000AA8                            21721    1082.              LTORG
 000AA8 C4C4C240C3C8C1C9           21723                             =CL16'DDB CHAIN'
 000AB8 C8C4C240C3C8C1C9           21724                             =CL16'HDB CHAIN'
 000AC8 D1C4C240C3C8C1C9           21725                             =CL16'JDB CHAIN'
 000AD8 E2D5C4C240C3C8C1           21726                             =CL16'SNDB CHAIN'
 000AE8 E2C3D6D440C3C8C1           21727                             =CL16'SCOM CHAIN'
 000AF8 E2C3D6D440D5D6E3           21728                             =CL16'SCOM NOTIFY'
 000B08 D4E5E2C9D6E3E2D2           21729                             =CL8'MVSIOTSK'
 000B10 E2C3D6D4E3C1E2D2           21730                             =CL8'SCOMTASK'
 000B18 D1C5E2C9D6E3E2D2           21731                             =CL8'JESIOTSK'
 000B20 C8E2D7C3C5E3E2D2           21732                             =CL8'HSPCETSK'
 000B28 C8E2D7C1C3C54040           21733                             =CL8'HSPACE'
 000B30 D4C1E7E2C9E9C540           21734                             =CL8'MAXSIZE'
 000B38 D7C1C7C540404040           21735                             =CL8'PAGE'
 000B40 E2E6C1D740404040           21736                             =CL8'SWAP'
 000B48 C9D6C3E34081A340           21737                             =C'IOCT at '
 000B50 C9D6C3C24081A340           21738                             =C'IOCB at '
 000B58 C9D6E2C24081A340           21739                             =C'IOSB at '
 000B60 00000000                   21740                             =V(POOLGET)
 000B64 C9D6C3E3                   21741                             =CL4'IOCT'
 000B68 00000400                   21742                             =A(1024)
 000B6C 000068D4                   21743                             =A(AM24CAP)
 000B70 00000000                   21744                             =V(LOCKCRE)
 000B74 00005858                   21745                             =A(MVSIOTSK)
 000B78 00000064                   21746                             =A(100)
 000B7C 00000000                   21747                             =V(SPAWN)
 000B80 000043D0                   21748                             =A(SCOMTASK)
 000B84 00004728                   21749                             =A(JESIOTSK)
 000B88 00003E9A                   21750                             =A(HSPCETSK)
 000B8C 00000000                   21751                             =V(MEMGET)
 000B90 00000000                   21752                             =V(PARMDO)
 000B94 00023280                   21753                             =F'144000'
 000B98 00080000                   21754                             =F'524288'
 000B9C 00000000                   21755                             =F'0'
 000BA0 C9D6E340                   21756                             =CL4'IOT'
 000BA4 00000000                   21757                             =V(MSGATTR)
 000BA8 00000020                   21758                             =A(32)
 000BAC 5C5C5C40C961D640           21759                             =C'*** I/O SERVICES ***'
 000BC0 00000000                   21760                             =V(SEG)
 000BC4 00000000                   21761                             =V(SEGHEX)
 000BC8 00000000                   21762                             =V(SEGCORE)
 000BCC C9D6C3C2                   21763                             =CL4'IOCB'
 000BD0 E2D9C240                   21764                             =CL4'SRB'
 000BD4 C9D6E2C2                   21765                             =CL4'IOSB'
 000BD8 00000000                   21766                             =V(CANTASK)
 000BDC 0000232A                   21767                             =A(RELIOCB)
 000BE0 00000000                   21768                             =V(POOLFREE)
 000BE4 0008                       21769                             =Y(8)
 000BE6 E2E6C1D740C3C3E6           21770                             =C'SWAP CCW''s at '
 000BF4 E2D9C24081A340             21771                             =C'SRB at '
 000BFB 5C5C5C40C5D5C440           21772                             =C'*** END OF I/O SERVICES ***'
1IOSERV   (IOSE00) (09:40) (22MAR04) IHAPSAE  - PSA Extension (ESAME)                                                       Page   58
0Loc    Object Code    Addr1 Addr2  Stmt Lv Lineno    Source Statement           (Hibal 5, Asmedit 3.3)  HLASM R4.0  2004/03/22 09.40
+___    ______ ____    _____ _____  ____ __ ______    ______ _________
0                                  21777    1084.     *******************************************************************
                                   21778    1085.     *                                                                 *
                                   21779    1086.     *    INITIALIZE DEVICE TYPE TABLE                                 *
                                   21780    1087.     *                                                                 *
                                   21781    1088.     *******************************************************************
0001556                01556 06A98 21783    1090.              DATA  BEGIN
 001556 0000                              1
 001558 00000000                   21788  1 1091.     IDEVTAB    DC    A(0)
 00155C 00000C22                   21789  1 1092.                DC    A(CRPAG)                PAGE DEVICE
 001560 00000C5E                   21790  1 1093.                DC    A(CRSWP)                SWAP DEVICE
 001564 00000C9A                   21791  1 1094.                DC    A(CRFIL)                FILE DEVICE
 001568 00000F0E                   21792  1 1095.                DC    A(CRSDB)                SCOM
 00156C 00000E88                   21793  1 1096.                DC    A(CRJDB)                JES DEVICE
                                   21794  1 1097.     *
                                   21795  1 1098.     * New for Hiperspace support
                                   21796  1 1099.     *
 001570 00000CD6                   21797  1 1100.                DC    A(CRHSP)                HIPERSPACE STD
 001574 00000D18                   21798  1 1101.                DC    A(CRESO)                HIPERSPACE ESO
                                   21799  1 1102.     IDEVMAX    EQU   *-IDEVTAB-4             MAXIMUM
 000C16                00C16 06A98 21800    1103.              END   ,
-
                                   21807    1105.     *******************************************************************
                                   21808    1106.     *                                                                 *
                                   21809    1107.     *    @CRDDB - Parameters passed to DDB create routine             *
                                   21810    1108.     *                                                                 *
                                   21811    1109.     *******************************************************************
0000000                00000 00004 21813    1111.     @CRDDB   RECORD BEGIN
 000000                            21821  1 1112.     @CRDSERV   DS    A                       Device service routine
 000004                00004 00004 21822    1113.              END   ,
1IOSERV   (IOSE00) (09:40) (22MAR04) IHAPSAE  - PSA Extension (ESAME)                                                       Page   59
0Loc    Object Code    Addr1 Addr2  Stmt Lv Lineno    Source Statement           (Hibal 5, Asmedit 3.3)  HLASM R4.0  2004/03/22 09.40
+___    ______ ____    _____ _____  ____ __ ______    ______ _________
0                                  21832    1115.     *******************************************************************
                                   21833    1116.     *                                                                 *
                                   21834    1117.     *    @CRHDB - Parameters passed to hDB create routine             *
                                   21835    1118.     *                                                                 *
                                   21836    1119.     *  New for Hiperspace support                                     *
                                   21837    1120.     *                                                                 *
                                   21838    1121.     *******************************************************************
0000000                00000 00010 21840    1123.     @CRHDB   RECORD BEGIN
 000000                            21848  1 1124.     @CRHSERV   DS    A                       Hspace service routine
 000008                            21849  1 1125.     @CRHSCNT   DS    D                       Hspace count
 000010                00010 00010 21850    1126.              END   ,
1IOSERV   (IOSE00) (09:40) (22MAR04) IHAPSAE  - PSA Extension (ESAME)                                                       Page   60
0Loc    Object Code    Addr1 Addr2  Stmt Lv Lineno    Source Statement           (Hibal 5, Asmedit 3.3)  HLASM R4.0  2004/03/22 09.40
+___    ______ ____    _____ _____  ____ __ ______    ______ _________
0                                  21860    1128.     *******************************************************************
                                   21861    1129.     *                                                                 *
                                   21862    1130.     *   CRPAG - Create page device control block                      *
                                   21863    1131.     *                                                                 *
                                   21864    1132.     *     Input - None                                                *
                                   21865    1133.     *                                                                 *
                                   21866    1134.     *    Output - RVR contains device ID                              *
                                   21867    1135.     *                                                                 *
                                   21868    1136.     *******************************************************************
-
 000C16                            21870    1138.     CRPAG    PROC  ,SCOPE=LOCAL
 000C16 C3D9D7C1C7404040           21875             +
 000C1E 0000/0000                  21876             +
 000C22 900F D004/18AF       00004 21878             +
 USING  CRPAG,R10
 000C28 50D0 C000/18CD       00000 21893             +
 000C2E 9680 C000      00000       21895             +
 000C32 41D0 C048            00048 21896             +
 USING  @CRDDB-72,R13              21897    1139.              PSET  @CRDDB
 000C36 D703 D048 D048 00000 00000 21914             +
 000C3C D203 D048 A8A6 00000 014C8 21915    1140.              MVC   @CRDSERV,=A(PAGEIO)
 000C42 58F0 A8AA/0DEF       014CC 21916    1141.              ACALL CRDDB
 000C48 981F C008            00008 21923    1142.              PEND
 DROP   CRPAG,R10
 000C4C 9680 C000/0B0E 00000       21933             +
 DROP   @CRDDB-72,R13
1IOSERV   (IOSE00) (09:40) (22MAR04) IHAPSAE  - PSA Extension (ESAME)                                                       Page   61
0Loc    Object Code    Addr1 Addr2  Stmt Lv Lineno    Source Statement           (Hibal 5, Asmedit 3.3)  HLASM R4.0  2004/03/22 09.40
+___    ______ ____    _____ _____  ____ __ ______    ______ _________
0                                  21943    1144.     *******************************************************************
                                   21944    1145.     *                                                                 *
                                   21945    1146.     *   CRSWP - Create swap device control block                      *
                                   21946    1147.     *                                                                 *
                                   21947    1148.     *     Input - None                                                *
                                   21948    1149.     *                                                                 *
                                   21949    1150.     *    Output - RVR contains device ID                              *
                                   21950    1151.     *                                                                 *
                                   21951    1152.     *******************************************************************
-
 000C52                            21953    1154.     CRSWP    PROC  ,SCOPE=LOCAL
 000C52 C3D9E2E6D7404040           21958             +
 000C5A 0000/0000                  21959             +
 000C5E 900F D004/18AF       00004 21961             +
 USING  CRSWP,R10
 000C64 50D0 C000/18CD       00000 21976             +
 000C6A 9680 C000      00000       21978             +
 000C6E 41D0 C048            00048 21979             +
 USING  @CRDDB-72,R13              21980    1155.              PSET  @CRDDB
 000C72 D703 D048 D048 00000 00000 21997             +
 000C78 D203 D048 A872 00000 014D0 21998    1156.              MVC   @CRDSERV,=A(SWAPIO)
 000C7E 58F0 A86E/0DEF       014CC 21999    1157.              ACALL CRDDB
 000C84 981F C008            00008 22006    1158.              PEND
 DROP   CRSWP,R10
 000C88 9680 C000/0B0E 00000       22016             +
 DROP   @CRDDB-72,R13
1IOSERV   (IOSE00) (09:40) (22MAR04) IHAPSAE  - PSA Extension (ESAME)                                                       Page   62
0Loc    Object Code    Addr1 Addr2  Stmt Lv Lineno    Source Statement           (Hibal 5, Asmedit 3.3)  HLASM R4.0  2004/03/22 09.40
+___    ______ ____    _____ _____  ____ __ ______    ______ _________
0                                  22026    1160.     *******************************************************************
                                   22027    1161.     *                                                                 *
                                   22028    1162.     *   CRFIL - Create file device control block                      *
                                   22029    1163.     *                                                                 *
                                   22030    1164.     *     Input - None                                                *
                                   22031    1165.     *                                                                 *
                                   22032    1166.     *    Output - RVR contains device ID                              *
                                   22033    1167.     *                                                                 *
                                   22034    1168.     *******************************************************************
-
 000C8E                            22036    1170.     CRFIL    PROC  ,SCOPE=LOCAL
 000C8E C3D9C6C9D3404040           22041             +
 000C96 0000/0000                  22042             +
 000C9A 900F D004/18AF       00004 22044             +
 USING  CRFIL,R10
 000CA0 50D0 C000/18CD       00000 22059             +
 000CA6 9680 C000      00000       22061             +
 000CAA 41D0 C048            00048 22062             +
 USING  @CRDDB-72,R13              22063    1171.              PSET  @CRDDB
 000CAE D703 D048 D048 00000 00000 22080             +
 000CB4 D203 D048 A83A 00000 014D4 22081    1172.              MVC   @CRDSERV,=A(FILEIO)
 000CBA 58F0 A832/0DEF       014CC 22082    1173.              ACALL CRDDB
 000CC0 981F C008            00008 22089    1174.              PEND
 DROP   CRFIL,R10
 000CC4 9680 C000/0B0E 00000       22099             +
 DROP   @CRDDB-72,R13
1IOSERV   (IOSE00) (09:40) (22MAR04) IHAPSAE  - PSA Extension (ESAME)                                                       Page   63
0Loc    Object Code    Addr1 Addr2  Stmt Lv Lineno    Source Statement           (Hibal 5, Asmedit 3.3)  HLASM R4.0  2004/03/22 09.40
+___    ______ ____    _____ _____  ____ __ ______    ______ _________
0                                  22109    1176.     *******************************************************************
                                   22110    1177.     *                                                                 *
                                   22111    1178.     *   CRHSP - Create Standard Hiperspace control block              *
                                   22112    1179.     *                                                                 *
                                   22113    1180.     *   New for Hiperspace support                                    *
                                   22114    1181.     *                                                                 *
                                   22115    1182.     *     Input - None                                                *
                                   22116    1183.     *                                                                 *
                                   22117    1184.     *    Output - RVR contains device ID                              *
                                   22118    1185.     *                                                                 *
                                   22119    1186.     *******************************************************************
-
 000CCA                            22121    1188.     CRHSP    PROC  ,SCOPE=LOCAL
 000CCA C3D9C8E2D7404040           22126             +
 000CD2 0000/0000                  22127             +
 000CD6 900F D004/18AF       00004 22129             +
 USING  CRHSP,R10
 000CDC 50D0 C000/18CD       00000 22144             +
 000CE2 9680 C000      00000       22146             +
 000CE6 41D0 C048            00048 22147             +
 USING  @CRHDB-72,R13              22148    1189.              PSET  @CRHDB
 000CEA D70F D048 D048 00000 00000 22165             +
 000CF0 D203 D048 A802 00000 014D8 22166    1190.              MVC   @CRHSERV,=A(HSPIO)
 000CF6 58F0 A806/0DEF       014DC 22167    1191.              ACALL CRHDB
 000CFC 1820                       22174    1192.              LR    RA,RVR
 USING  HDB,R2                     22175    1193.              WITH  (HDB,RA)
 000CFE 9680 2028      00028       22188    1194.              SET   (HDBFLG.HDBSTND)
 000D02 981F C008            00008 22194    1195.              PEND
 DROP   HDB,R2
 DROP   CRHSP,R10
 000D06 9680 C000/0B0E 00000       22209             +
 DROP   @CRHDB-72,R13
1IOSERV   (IOSE00) (09:40) (22MAR04) IHAPSAE  - PSA Extension (ESAME)                                                       Page   64
0Loc    Object Code    Addr1 Addr2  Stmt Lv Lineno    Source Statement           (Hibal 5, Asmedit 3.3)  HLASM R4.0  2004/03/22 09.40
+___    ______ ____    _____ _____  ____ __ ______    ______ _________
0                                  22219    1197.     *******************************************************************
                                   22220    1198.     *                                                                 *
                                   22221    1199.     *   CRESO - Create Standard Hiperspace control block              *
                                   22222    1200.     *                                                                 *
                                   22223    1201.     *   New for Hiperspace support                                    *
                                   22224    1202.     *                                                                 *
                                   22225    1203.     *     Input - None                                                *
                                   22226    1204.     *                                                                 *
                                   22227    1205.     *    Output - RVR contains device ID                              *
                                   22228    1206.     *                                                                 *
                                   22229    1207.     *******************************************************************
-
 000D0C                            22231    1209.     CRESO    PROC  ,SCOPE=LOCAL
 000D0C C3D9C5E2D6404040           22236             +
 000D14 0000/0000                  22237             +
 000D18 900F D004/18AF       00004 22239             +
 USING  CRESO,R10
 000D1E 50D0 C000/18CD       00000 22254             +
 000D24 9680 C000      00000       22256             +
 000D28 41D0 C048            00048 22257             +
 USING  @CRHDB-72,R13              22258    1210.              PSET  @CRHDB
 000D2C D70F D048 D048 00000 00000 22275             +
 000D32 D203 D048 A7C0 00000 014D8 22276    1211.              MVC   @CRHSERV,=A(HSPIO)
 000D38 58F0 A7C4/0DEF       014DC 22277    1212.              ACALL CRHDB
 000D3E 1820                       22284    1213.              LR    RA,RVR
 USING  HDB,R2                     22285    1214.              WITH  (HDB,RA)
 000D40 9640 2028      00028       22298    1215.              SET   (HDBFLG.HDBESO)
 000D44 981F C008            00008 22304    1216.              PEND
 DROP   HDB,R2
 DROP   CRESO,R10
 000D48 9680 C000/0B0E 00000       22319             +
 DROP   @CRHDB-72,R13
1IOSERV   (IOSE00) (09:40) (22MAR04) IHAPSAE  - PSA Extension (ESAME)                                                       Page   65
0Loc    Object Code    Addr1 Addr2  Stmt Lv Lineno    Source Statement           (Hibal 5, Asmedit 3.3)  HLASM R4.0  2004/03/22 09.40
+___    ______ ____    _____ _____  ____ __ ______    ______ _________
0                                  22329    1218.     *******************************************************************
                                   22330    1219.     *                                                                 *
                                   22331    1220.     *   CRDDB - Create MVS data set device control block              *
                                   22332    1221.     *                                                                 *
                                   22333    1222.     *                                                                 *
                                   22334    1223.     *     Input - @CRDDB                                              *
                                   22335    1224.     *                                                                 *
                                   22336    1225.     *    Output - RVR contains device ID                              *
                                   22337    1226.     *                                                                 *
                                   22338    1227.     *                                                                 *
                                   22339    1228.     *******************************************************************
-
 000D4E                            22341    1230.     CRDDB    PROC  @CRDDB,SCOPE=LOCAL
 000D4E C3D9C4C4C2404040           22346             +
 000D56 0008/0000                  22347             +
 000D5A 900F D004/18AF       00004 22349             +
 USING  CRDDB,R10
 000D60 50D0 C000/18CD       00000 22364             +
 000D66 9680 C000      00000       22366             +
 USING  @CRDDB-72,R12
 000D6A 41D0 C050            00050 22380             +
                                   22381    1231.     *
                                   22382    1232.     *  BUILD DDB
                                   22383    1233.     *
 USING  @MEMGET-72,R13             22384    1234.              MEMGET L'DDB,TYPE=GLOBAL
 000D6E D709 D048 D048 00000 00000 22403             +
 000D74 4100 00A8            000A8 22410             +
 000D78 5000 D04C            00004 22411             +
 000D7C 9213 D051      00009       22425             +
 000D80 58F0 A786/0DEF       014E0 22428             +
 000D86 1820                       22430    1235.              LR    RA,RVR
 USING  DDB,R2                     22431    1236.              WITH  (DDB,RA)
 000D88                            22444    1237.              CLEAR DDB
 000D88 D7A7 2000 2000 00000 00000 22450             +
 DROP   DDB,R2                     22451    1238.              WITH  (COMDB,RA),BEGIN
 USING  COMDB,R2
 000D8E D203 2000 A78A 00000 014E4 22468  1 1239.                MVC   COMDBID,=CL4'DDB'       SET ID
 000D94 D203 2004 C048 00004 00000 22469  1 1240.                MVC   COMDBRTN,@CRDSERV        AND ROUTINE
 DROP   COMDB,R2                   22470    1241.              END   ,
 USING  DDB,R2
1IOSERV   (IOSE00) (09:40) (22MAR04) IHAPSAE  - PSA Extension (ESAME)                                                       Page   66
0Current Usings:  (DDB,R2) (CRDDB,R10) (@CRDDB-72,R12) (@MEMGET-72,R13)
0Loc    Object Code    Addr1 Addr2  Stmt Lv Lineno    Source Statement           (Hibal 5, Asmedit 3.3)  HLASM R4.0  2004/03/22 09.40
+___    ______ ____    _____ _____  ____ __ ______    ______ _________
0                                  22486    1243.     *
                                   22487    1244.     *  ADD DDB TO GLOBAL CHAIN
                                   22488    1245.     *
 000D9A 5870 9004            00004 22489    1246.              WITH  (RTCB,RTCBR),'L  RY,RTCBCBAT'   CBAT POINTER
 USING  RTCB,R9
 DROP   RTCB,R9
 000D9E 5870 7054            00054 22513    1247.              WITH  (CBAT,RY),'L  RY,CBATIOCT'      IOCT POINTER
 USING  CBAT,R7
 DROP   CBAT,R7
 USING  IOCT,R7                    22537    1248.              WITH  (IOCT,RY)
 000DA2 5800 7040            00040 22550    1249.              LOCKOB IOCTDDBL               GET DDB CHAIN LOCK
 DROP   @MEMGET-72,R13
 USING  @LOCKS-72,R13
 000DA6 5000 D048            00000 22569             +
 000DAA 58F0 A78E/0DEF       014E8 22572             +
 000DB0 D203 2008 702C 00008 0002C 22574    1250.              MVC   DDBCHAIN,IOCTDDBS       FORMER HEAD OF CHAIN
 000DB6 5020 702C            0002C 22575    1251.              ST    RA,IOCTDDBS             ADD THIS ONE TO CHAIN HEAD
 000DBA 5800 7040            00040 22576    1252.              LOCKRL IOCTDDBL               RELEASE DDB CHAIN LOCK
 000DBE 5000 D048            00000 22585             +
 000DC2 58F0 A792/0DEF       014EC 22588             +
 000DC8 1802                       22590    1253.              LR    RVR,RA
 000DCA 981F C008            00008 22591    1254.              PEND
 DROP   IOCT,R7
 DROP   DDB,R2
 DROP   @CRDDB-72,R12
 DROP   CRDDB,R10
 000DCE 9680 C000/0B0E 00000       22616             +
 DROP   @LOCKS-72,R13
1IOSERV   (IOSE00) (09:40) (22MAR04) IHAPSAE  - PSA Extension (ESAME)                                                       Page   67
0Loc    Object Code    Addr1 Addr2  Stmt Lv Lineno    Source Statement           (Hibal 5, Asmedit 3.3)  HLASM R4.0  2004/03/22 09.40
+___    ______ ____    _____ _____  ____ __ ______    ______ _________
0                                  22626    1256.     *******************************************************************
                                   22627    1257.     *                                                                 *
                                   22628    1258.     *   CRHDB - Create Hiperspace device control block                *
                                   22629    1259.     *                                                                 *
                                   22630    1260.     *   New for Hiperspace support                                    *
                                   22631    1261.     *                                                                 *
                                   22632    1262.     *     Input - @CRHDB                                              *
                                   22633    1263.     *                                                                 *
                                   22634    1264.     *    Output - RVR contains device ID                              *
                                   22635    1265.     *                                                                 *
                                   22636    1266.     *                                                                 *
                                   22637    1267.     ************************************************************** ****
-
 000DD4                            22639    1269.     CRHDB    PROC  @CRHDB,SCOPE=LOCAL
 000DD4 C3D9C8C4C2404040           22644             +
 000DDC 0010/0000                  22645             +
 000DE0 900F D004/18AF       00004 22647             +
 USING  CRHDB,R10
 000DE6 50D0 C000/18CD       00000 22662             +
 000DEC 9680 C000      00000       22664             +
 USING  @CRHDB-72,R12
 000DF0 41D0 C058            00058 22678             +
                                   22679    1270.     *
                                   22680    1271.     *  BUILD HDB
                                   22681    1272.     *
 USING  @MEMGET-72,R13             22682    1273.              MEMGET L'HDB,TYPE=GLOBAL
 000DF4 D709 D048 D048 00000 00000 22701             +
 000DFA 4100 0064            00064 22708             +
 000DFE 5000 D04C            00004 22709             +
 000E02 9213 D051      00009       22723             +
 000E06 58F0 A700/0DEF       014E0 22726             +
 000E0C 1820                       22728    1274.              LR    RA,RVR
 USING  HDB,R2                     22729    1275.              WITH  (HDB,RA)
 000E0E                            22742    1276.              CLEAR HDB
 000E0E D763 2000 2000 00000 00000 22748             +
 DROP   HDB,R2                     22749    1277.              WITH  (COMDB,RA),BEGIN
 USING  COMDB,R2
 000E14 D203 2000 A710 00000 014F0 22766  1 1278.                MVC   COMDBID,=CL4'HDB'       SET ID
 000E1A D203 2004 C048 00004 00000 22767  1 1279.                MVC   COMDBRTN,@CRHSERV        AND ROUTINE
 DROP   COMDB,R2                   22768    1280.              END   ,
 USING  HDB,R2
1IOSERV   (IOSE00) (09:40) (22MAR04) IHAPSAE  - PSA Extension (ESAME)                                                       Page   68
0Current Usings:  (HDB,R2) (CRHDB,R10) (@CRHDB-72,R12) (@MEMGET-72,R13)
0Loc    Object Code    Addr1 Addr2  Stmt Lv Lineno    Source Statement           (Hibal 5, Asmedit 3.3)  HLASM R4.0  2004/03/22 09.40
+___    ______ ____    _____ _____  ____ __ ______    ______ _________
0                                  22784    1282.     *
                                   22785    1283.     *  ADD HDB TO GLOBAL CHAIN
                                   22786    1284.     *
 000E20 5870 9004            00004 22787    1285.              WITH  (RTCB,RTCBR),'L  RY,RTCBCBAT'   CBAT POINTER
 USING  RTCB,R9
 DROP   RTCB,R9
 000E24 5870 7054            00054 22811    1286.              WITH  (CBAT,RY),'L  RY,CBATIOCT'      IOCT POINTER
 USING  CBAT,R7
 DROP   CBAT,R7
 USING  IOCT,R7                    22835    1287.              WITH  (IOCT,RY)
 000E28 5800 7050            00050 22848    1288.              LOCKOB IOCTHDBL               GET HDB CHAIN LOCK
 DROP   @MEMGET-72,R13
 USING  @LOCKS-72,R13
 000E2C 5000 D048            00000 22867             +
 000E30 58F0 A708/0DEF       014E8 22870             +
 000E36 1B11                       22872    1289.              CLEAR RS
 000E38 BF13 7092            00092 22876    1290.              ICM   RS,3,IOCTHSCT           Get Hiperspace count
 000E3C 4110 1001            00001 22877    1291.              LA    RS,1(,RS)               Increment count
 000E40 BE13 7092            00092 22878    1292.              STCM  RS,3,IOCTHSCT           Update count
 000E44 4E10 C050            00008 22879    1293.              CVD   RS,@CRHSCNT             Convert to decimal
 000E48 D203 2008 7038 00008 00038 22880    1294.              MVC   HDBCHAIN,IOCTHDBS       FORMER HEAD OF CHAIN
 000E4E 5020 7038            00038 22881    1295.              ST    RA,IOCTHDBS             ADD THIS ONE TO CHAIN
 000E52 5800 7050            00050 22882    1296.              LOCKRL IOCTHDBL               RELEASE HDB CHAIN LOCK
 000E56 5000 D048            00000 22891             +
 000E5A 58F0 A70C/0DEF       014EC 22894             +
 000E60 F342 200F C055 0000F 0000D 22896    1297.              UNPK  HDBHSNAM+3(5),@CRHSCNT+5(3) DEVELOP UNIQUE
 000E66 D202 200C A770 0000C 01550 22897    1298.              MVC   HDBHSNAM(3),=C'ORV'     HSPACE NAME USING
 000E6C 96F0 2013      00013       22898    1299.              OI    HDBHSNAM+7,X'F0'        IOCTHSCT
 000E70 1802                       22899    1300.              LR    RVR,RA
 000E72 981F C008            00008 22900    1301.              PEND
 DROP   IOCT,R7
 DROP   HDB,R2
 DROP   @CRHDB-72,R12
 DROP   CRHDB,R10
 000E76 9680 C000/0B0E 00000       22925             +
 DROP   @LOCKS-72,R13
1IOSERV   (IOSE00) (09:40) (22MAR04) IHAPSAE  - PSA Extension (ESAME)                                                       Page   69
0Loc    Object Code    Addr1 Addr2  Stmt Lv Lineno    Source Statement           (Hibal 5, Asmedit 3.3)  HLASM R4.0  2004/03/22 09.40
+___    ______ ____    _____ _____  ____ __ ______    ______ _________
0                                  22935    1303.     *******************************************************************
                                   22936    1304.     *                                                                 *
                                   22937    1305.     *   CRJDB - Create JES device control block                       *
                                   22938    1306.     *                                                                 *
                                   22939    1307.     *     Input - None                                                *
                                   22940    1308.     *                                                                 *
                                   22941    1309.     *    Output - RVR contains device ID                              *
                                   22942    1310.     *                                                                 *
                                   22943    1311.     *******************************************************************
-
 000E7C                            22945    1313.     CRJDB    PROC  ,SCOPE=LOCAL
 000E7C C3D9D1C4C2404040           22950             +
 000E84 0000/0000                  22951             +
 000E88 900F D004/18AF       00004 22953             +
 USING  CRJDB,R10
 000E8E 50D0 C000/18CD       00000 22968             +
 000E94 9680 C000      00000       22970             +
 000E98 41D0 C048            00048 22971             +
 USING  @MEMGET-72,R13             22972    1314.              MEMGET L'JDB,TYPE=GLOBAL
 000E9C D709 D048 D048 00000 00000 22991             +
 000EA2 4100 0018            00018 22998             +
 000EA6 5000 D04C            00004 22999             +
 000EAA 9213 D051      00009       23013             +
 000EAE 58F0 A658/0DEF       014E0 23016             +
 000EB4 1820                       23018    1315.              LR    RA,RVR
 USING  JDB,R2                     23019    1316.              WITH  (JDB,RA)
 000EB6                            23032    1317.              CLEAR JDB
 000EB6 D717 2000 2000 00000 00000 23038             +
 DROP   JDB,R2                     23039    1318.              WITH  (COMDB,RA),BEGIN
 USING  COMDB,R2
 000EBC D203 2000 A66C 00000 014F4 23056  1 1319.                MVC   COMDBID,=CL4'JDB'       SET ID
 000EC2 D203 2004 A670 00004 014F8 23057  1 1320.                MVC   COMDBRTN,=A(JESIO)       AND SERVICE ROUTINE
 DROP   COMDB,R2                   23058    1321.              END   ,
 USING  JDB,R2
1IOSERV   (IOSE00) (09:40) (22MAR04) IHAPSAE  - PSA Extension (ESAME)                                                       Page   70
0Current Usings:  (JDB,R2) (CRJDB,R10) (@MEMGET-72,R13)
0Loc    Object Code    Addr1 Addr2  Stmt Lv Lineno    Source Statement           (Hibal 5, Asmedit 3.3)  HLASM R4.0  2004/03/22 09.40
+___    ______ ____    _____ _____  ____ __ ______    ______ _________
0                                  23074    1323.     *
                                   23075    1324.     *  ADD JDB TO CHAIN
                                   23076    1325.     *
 000EC8 5870 9004            00004 23077    1326.              WITH  (RTCB,RTCBR),'L  RY,RTCBCBAT'   CBAT POINTER
 USING  RTCB,R9
 DROP   RTCB,R9
 000ECC 5870 7054            00054 23101    1327.              WITH  (CBAT,RY),'L  RY,CBATIOCT'      IOCT POINTER
 USING  CBAT,R7
 DROP   CBAT,R7
 USING  IOCT,R7                    23125    1328.              WITH  (IOCT,RY)
 000ED0 5800 7044            00044 23138    1329.              LOCKOB IOCTJDBL               GET DDB CHAIN LOCK
 DROP   @MEMGET-72,R13
 USING  @LOCKS-72,R13
 000ED4 5000 D048            00000 23157             +
 000ED8 58F0 A660/0DEF       014E8 23160             +
 000EDE D203 2008 7030 00008 00030 23162    1330.              MVC   JDBCHAIN,IOCTJDBS       FORMER HEAD OF CHAIN
 000EE4 5020 7030            00030 23163    1331.              ST    RA,IOCTJDBS             ADD THIS ONE TO CHAIN HEAD
 000EE8 5800 7044            00044 23164    1332.              LOCKRL IOCTJDBL               RELEASE JDB CHAIN LOCK
 000EEC 5000 D048            00000 23173             +
 000EF0 58F0 A664/0DEF       014EC 23176             +
 000EF6 1802                       23178    1333.              LR    RVR,RA
 000EF8 981F C008            00008 23179    1334.              PEND
 DROP   IOCT,R7
 DROP   JDB,R2
 DROP   CRJDB,R10
 000EFC 9680 C000/0B0E 00000       23199             +
 DROP   @LOCKS-72,R13
1IOSERV   (IOSE00) (09:40) (22MAR04) IHAPSAE  - PSA Extension (ESAME)                                                       Page   71
0Loc    Object Code    Addr1 Addr2  Stmt Lv Lineno    Source Statement           (Hibal 5, Asmedit 3.3)  HLASM R4.0  2004/03/22 09.40
+___    ______ ____    _____ _____  ____ __ ______    ______ _________
0                                  23209    1336.     *******************************************************************
                                   23210    1337.     *                                                                 *
                                   23211    1338.     *   CRSDB - Create SCOM device control block                      *
                                   23212    1339.     *                                                                 *
                                   23213    1340.     *     Input - None                                                *
                                   23214    1341.     *                                                                 *
                                   23215    1342.     *    Output - RVR contains device ID                              *
                                   23216    1343.     *                                                                 *
                                   23217    1344.     *******************************************************************
-
 000F02                            23219    1346.     CRSDB    PROC  ,SCOPE=LOCAL
 000F02 C3D9E2C4C2404040           23224             +
 000F0A 0000/0000                  23225             +
 000F0E 900F D004/18AF       00004 23227             +
 USING  CRSDB,R10
 000F14 50D0 C000/18CD       00000 23242             +
 000F1A 9680 C000      00000       23244             +
 000F1E 41D0 C048            00048 23245             +
 USING  @MEMGET-72,R13             23246    1347.              MEMGET L'SDB,TYPE=GLOBAL      GET SCOM DEVICE BLOCK
 000F22 D709 D048 D048 00000 00000 23265             +
 000F28 4100 0058            00058 23272             +
 000F2C 5000 D04C            00004 23273             +
 000F30 9213 D051      00009       23287             +
 000F34 58F0 A5D2/0DEF       014E0 23290             +
 000F3A 1820                       23292    1348.              LR    RA,RVR
 USING  SDB,R2                     23293    1349.              WITH  (SDB,RA)
 000F3C                            23306    1350.              CLEAR SDB
 000F3C D757 2000 2000 00000 00000 23312             +
 DROP   SDB,R2                     23313    1351.              WITH  (COMDB,RA),BEGIN
 USING  COMDB,R2
 000F42 D203 2000 A5EE 00000 014FC 23330  1 1352.                MVC   COMDBID,=CL4'SDB'       SET ID
 000F48 D203 2004 A5F2 00004 01500 23331  1 1353.                MVC   COMDBRTN,=A(SCOMIO)      AND SERVICE ROUTINE
 DROP   COMDB,R2                   23332    1354.              END   ,
 USING  SDB,R2
1IOSERV   (IOSE00) (09:40) (22MAR04) IHAPSAE  - PSA Extension (ESAME)                                                       Page   72
0Current Usings:  (SDB,R2) (CRSDB,R10) (@MEMGET-72,R13)
0Loc    Object Code    Addr1 Addr2  Stmt Lv Lineno    Source Statement           (Hibal 5, Asmedit 3.3)  HLASM R4.0  2004/03/22 09.40
+___    ______ ____    _____ _____  ____ __ ______    ______ _________
0                                  23348    1356.     *
                                   23349    1357.     *  ADD PATH TO CHAIN
                                   23350    1358.     *
 000F4E 5870 9004            00004 23351    1359.              WITH  (RTCB,RTCBR),'L  RY,RTCBCBAT'   CBAT POINTER
 USING  RTCB,R9
 DROP   RTCB,R9
 000F52 5870 7054            00054 23375    1360.              WITH  (CBAT,RY),'L  RY,CBATIOCT'      IOCT POINTER
 USING  CBAT,R7
 DROP   CBAT,R7
 USING  IOCT,R7                    23399    1361.              WITH  (IOCT,RY)
 000F56 5800 7048            00048 23412    1362.              LOCKOB IOCTPTHL               GET PATH CHAIN LOCK
 DROP   @MEMGET-72,R13
 USING  @LOCKS-72,R13
 000F5A 5000 D048            00000 23431             +
 000F5E 58F0 A5DA/0DEF       014E8 23434             +
 000F64 D203 2014 7034 00014 00034 23436    1363.              MVC   SDBCHN,IOCTPTHS         FORMER HEAD OF CHAIN
 000F6A 5020 7034            00034 23437    1364.              ST    RA,IOCTPTHS             ADD THIS ONE TO CHAIN HEAD
 000F6E 5800 7048            00048 23438    1365.              LOCKRL IOCTPTHL               RELEASE PATH CHAIN LOCK
 000F72 5000 D048            00000 23447             +
 000F76 58F0 A5DE/0DEF       014EC 23450             +
 000F7C 1802                       23452    1366.              LR    RVR,RA
 000F7E 981F C008            00008 23453    1367.              PEND
 DROP   IOCT,R7
 DROP   SDB,R2
 DROP   CRSDB,R10
 000F82 9680 C000/0B0E 00000       23473             +
 DROP   @LOCKS-72,R13
1IOSERV   (IOSE00) (09:40) (22MAR04) IHAPSAE  - PSA Extension (ESAME)                                                       Page   73
0Loc    Object Code    Addr1 Addr2  Stmt Lv Lineno    Source Statement           (Hibal 5, Asmedit 3.3)  HLASM R4.0  2004/03/22 09.40
+___    ______ ____    _____ _____  ____ __ ______    ______ _________
0                                  23483    1369.     *******************************************************************
                                   23484    1370.     *                                                                 *
                                   23485    1371.     *   INITDEV - Create device control block                         *
                                   23486    1372.     *                                                                 *
                                   23487    1373.     *                                                                 *
                                   23488    1374.     *     Input - @INITDEV                                            *
                                   23489    1375.     *                                                                 *
                                   23490    1376.     *    Output - RVR contains device ID                              *
                                   23491    1377.     *                                                                 *
                                   23492    1378.     *                                                                 *
                                   23493    1379.     *******************************************************************
-
 000F88                            23495    1381.     INITDEV  PROC  @IOUPARM,SCOPE=GLOBAL
 000F88 C9D5C9E3C4C5E540           23501             +
 000F90 0008/0000                  23502             +
 000F94 900F D004/18AF       00004 23504             +
 USING  INITDEV,R10
 000F9A 50D0 C000/18CD       00000 23519             +
 000FA0 9680 C000      00000       23521             +
 USING  @IOUPARM-72,R12
 000FA4 41D0 C050            00050 23535             +
 000FA8 5810 C048            00000 23536    1382.              L     RS,@IOUDEVT             DEVICE TYPE
 000FAC 1861                       23537    1383.              LR    RX,RS                   SAVE TYPE
 000FAE 1211/4770 A030       00FC4 23538    1384.              IF    (RS,Z),'KAPUT IDEVZ'
 000FB4 4110 0001            00001 23555  1 03-KAPUT +*,THIS FUNCTION IS NOT IMPLEMENTED
 000FB8 4100 0080            00080 23561  1          +
 000FBC 8900 0018/1610       00018 23562  1          +
 000FC2 0A0D                       23564             +
 000FC4 5910 A570            01504 23569    1385.              IF    (RS,GT,IDEVMAX),'KAPUT IDEVHI'
 000FC8 47D0 A048            00FDC 23581             +
 000FCC 4110 0001            00001 23594  1          +
 000FD0 4100 0080            00080 23595  1          +
 000FD4 8900 0018/1610       00018 23596  1          +
 000FDA 0A0D                       23598             +
 000FDC 58F1 A5C4/0DEF       01558 23603    1386.              ACALL IDEVTAB(RS)             CALL CREATE ROUTINE
 000FE2 1820                       23610    1387.              LR    RA,RVR
 USING  DDB,R2                     23611    1388.              WITH  (DDB,RA)
                                   23624    1389.     *
                                   23625    1390.     *  NEW FOR HIPERSPACE SUPPORT
                                   23626    1391.     *
                                   23627    1392.     *  IF THE HSPACE KEYWORD WAS SPECIFIED IN THE ORVYL INIT PARAMETERS,
                                   23628    1393.     *  THIS CODE CONVERTS A PAGE OR SWAP OPERATION INTO A HIPERSPACE
                                   23629    1394.     *  REQUEST.  IN THIS ROUTINE WHEN A PAGE OR SWAP CONTROL BLOCK (DDB)
                                   23630    1395.     *  IS ALLOCATED, A CORRESPONDING HIPERSPACE CONTROL BLOCK (HDB) IS
                                   23631    1396.     *  CREATED.  THE HDB IS CHAINED TO THE DDB AND VICE VERSA.
                                   23632    1397.     *
                                   23633    1398.     *  THE MAXSIZE SUBPARAMETER OR A DEFAULT HAS BEEN PLACED INTO IOCTHSIZ
                                   23634    1399.     *  AT IOSINIT. IF A LIMIT TO THE NUMBER OF PAGE OR SWAP DATASETS TO
                                   23635    1400.     *  SIMULATE WAS ALSO SPECIFIED, THESE LIMITS WILL BE IN IOCTPGLM OR
                                   23636    1401.     *  IOCTSWLM.
                                   23637    1402.     *
 000FE4 5870 9004            00004 23638    1403.              WITH  (RTCB,RTCBR),'L  RY,RTCBCBAT'   CBAT POINTER
 USING  RTCB,R9
 DROP   RTCB,R9
1IOSERV   (IOSE00) (09:40) (22MAR04) IHAPSAE  - PSA Extension (ESAME)                                                       Page   74
0Current Usings:  (DDB,R2) (INITDEV,R10) (@IOUPARM-72,R12)
0Loc    Object Code    Addr1 Addr2  Stmt Lv Lineno    Source Statement           (Hibal 5, Asmedit 3.3)  HLASM R4.0  2004/03/22 09.40
+___    ______ ____    _____ _____  ____ __ ______    ______ _________
0000FE8 5870 7054            00054 23662    1404.              WITH  (CBAT,RY),'L  RY,CBATIOCT'      IOCT POINTER
 USING  CBAT,R7
 DROP   CBAT,R7
 USING  IOCT,R7                    23686    1405.              WITH  (IOCT,RY)
 000FEC                            23699    1406.     HSPCECHK IF    (IOCTHSIZ,NZ),BEGIN     IF HIPERSPACE SIMULATION REQ'D
 000FEC D603 7084 7084 00084 00084 23710             +
 000FF2 4780 A0F4            01088 23711             +
                                   23716  1 1407.     *
                                   23717  1 1408.     *  HSPACE WAS SPECIFIED IN INIT PARAMETERS
                                   23718  1 1409.     *
 000FF6 5960 A574            01508 23719  1 1410.                IF    (RX,GT,8),EXIT,HSPCECHK WE ONLY WANT PAGE OR SWAP REQ'S
 000FFA 4720 A0F4            01088 23733  1          +
 000FFE 5960 A578            0150C 23739  1 1411.                IF    (RX,EQ,4),BEGIN         IF WE ARE PAGING
 001002 4770 A092            01026 23751  1          +
 001006                            23756  2 1412.                  IF    ((IOCTPGLM,Z),OR,(IOCTPGNO,GE,IOCTPGLM)),EXIT,HSPCECHK
 001006 D601 7088 7088 00088 00088 23768  2          +
 00100C 4780 A0F4            01088 23771  2          +
 001010 D501 708C 7088 0008C 00088 23783  2          +
 001016 47A0 A0F4            01088 23786  2          +
 00101A 4100 0001            00001 23792  2 1413.                  INCR  RVR,IOCTPGNO
 00101E 4A00 708C            0008C 23796  2          +
 001022 4000 708C            0008C 23797  2          +
 001026                            23798  1 1414.                END   ,                    OF IF WE ARE PAGING
 001026 5960 A574            01508 23802  1 1415.                IF    (RX,EQ,8),BEGIN         IF WE ARE SWAPPING
 00102A 4770 A0BA            0104E 23814  1          +
 00102E                            23819  2 1416.                  IF    ((IOCTSWLM,Z),OR,(IOCTSWNO,GE,IOCTSWLM)),EXIT,HSPCECHK
 00102E D601 708A 708A 0008A 0008A 23831  2          +
 001034 4780 A0F4            01088 23834  2          +
 001038 D501 708E 708A 0008E 0008A 23846  2          +
 00103E 47A0 A0F4            01088 23849  2          +
 001042 4100 0001            00001 23855  2 1417.                  INCR  RVR,IOCTSWNO
 001046 4A00 708E            0008E 23859  2          +
 00104A 4000 708E            0008E 23860  2          +
 00104E                            23861  1 1418.                END   ,                    OF IF WE ARE SWAPPING
 00104E 4110 0018            00018 23865  1 1419.                LA    RS,24                   USE OFFSET TO CRHSP
 001052 58F1 A5C4/0DEF       01558 23866  1 1420.                ACALL IDEVTAB(RS)
 001058 5000 20A4            000A4 23873  1 1421.                ST    RVR,DDBHDB              CHAIN HDB TO DDB
 00105C 1830                       23874  1 1422.                LR    RB,RVR
 USING  HDB,R3                     23875  1 1423.                WITH  (HDB,RB)
 00105E 5960 A578            0150C 23888  1 1424.                IF    (RX,EQ,4),'SET (HDBFLG.HDBPAGE)'
 001062 4770 A0D6            0106A 23900  1          +
 001066 9620 3028      00028       23911  1          +
 00106A 5960 A574            01508 23916  1 1425.                IF    (RX,EQ,8),'SET (HDBFLG.HDBSWAP)'
 00106E 4770 A0E2            01076 23928  1          +
 001072 9610 3028      00028       23939  1          +
 001076 D203 3024 7084 00024 00084 23944  1 1426.                MVC   HDBHPSIZ,IOCTHSIZ       PUT IN MAXIMUM HIPERSPACE SIZE
 00107C 5020 3060            00060 23945  1 1427.                ST    RA,HDBDDB               CHAIN DDB TO HDB
                                   23946  1 1428.     *** TEST CODE ***
 001080 0ADE                       23947  1 1429.                QSNAP DDB,L'DDB-1
 001082 08A700002000               23950  1          +
                                   23951  1 1430.     *** END OF TEST CODE ***
 DROP   HDB,R3                     23952    1431.              END   ,                    OF IF HIPERSPACE SIMULATION REQ'D
 001088 1802                       23961    1432.              LR    RVR,RA
 00108A 981F C008            00008 23962    1433.              PEND
1IOSERV   (IOSE00) (09:40) (22MAR04) IHAPSAE  - PSA Extension (ESAME)                                                       Page   75
0Loc    Object Code    Addr1 Addr2  Stmt Lv Lineno    Source Statement           (Hibal 5, Asmedit 3.3)  HLASM R4.0  2004/03/22 09.40
+___    ______ ____    _____ _____  ____ __ ______    ______ _________
0DROP   IOCT,R7
 DROP   DDB,R2
 DROP   @IOUPARM-72,R12
 DROP   INITDEV,R10
 00108E 9680 C000/0B0E 00000       23987             +
1IOSERV   (IOSE00) (09:40) (22MAR04) IHAPSAE  - PSA Extension (ESAME)                                                       Page   76
0Loc    Object Code    Addr1 Addr2  Stmt Lv Lineno    Source Statement           (Hibal 5, Asmedit 3.3)  HLASM R4.0  2004/03/22 09.40
+___    ______ ____    _____ _____  ____ __ ______    ______ _________
0                                  23994    1435.     *******************************************************************
                                   23995    1436.     *                                                                 *
                                   23996    1437.     *    DOIOPARM - Parameters passed to I/O drivers                  *
                                   23997    1438.     *                                                                 *
                                   23998    1439.     *******************************************************************
0000000                00000 00010 24000    1441.     @DOIO    RECORD BEGIN
 000000                            24008  1 1442.     @DOUPRM    DS    A                       USER PARM
 000004                            24009  1 1443.     @DODSID    DS    A                       DEVICE ID
 000008                            24010  1 1444.     @DOIORB    DS    A                       IORB
 00000C                            24011  1 1445.     @DORC      DS    A                       RETURN CODE
 000010                00010 00010 24012    1446.              END   ,
                                   24021    1447.     *
                                   24022    1448.     *  New for Hiperspace support
                                   24023    1449.     *
                                   24024    1450.     *******************************************************************
                                   24025    1451.     *                                                                 *
                                   24026    1452.     *    IOCOMM - I/O Command Format                                   *
                                   24027    1453.     *                                                                 *
                                   24028    1454.     *******************************************************************
0                                  24030    1456.     *
                                   24031    1457.     * Prefix for I/Oevery request
                                   24032    1458.     *
 000000                00000 00004 24033    1459.     #IOCOM   RECORD BEGIN
 000000                            24041  1 1460.     #IOCMD     DS    A
                                   24042  1 1461.     *
                                   24043  1 1462.     * I/O command codes
                                   24044  1 1463.     *
                                   24045  1 1464.     #IOOPEN    EQU   4                       Open action code
                                   24046  1 1465.     #IOCLOSE   EQU   8                       Close I/O code
                                   24047  1 1466.     #IOREAD    EQU   12                      Read I/O code
                                   24048  1 1467.     #IOWRITE   EQU   16                      Write I/O code
                                   24049  1 1468.     #IORESET   EQU   20                      Device reset code
 000004                00004 00004 24050    1469.              END   ,
1IOSERV   (IOSE00) (09:40) (22MAR04) IHAPSAE  - PSA Extension (ESAME)                                                       Page   77
0Loc    Object Code    Addr1 Addr2  Stmt Lv Lineno    Source Statement           (Hibal 5, Asmedit 3.3)  HLASM R4.0  2004/03/22 09.40
+___    ______ ____    _____ _____  ____ __ ______    ______ _________
0                                  24060    1471.     *******************************************************************
                                   24061    1472.     *                                                                 *
                                   24062    1473.     *   DOIO    - SSCH Entry from ORVYL guest machines                *
                                   24063    1474.     *                                                                 *
                                   24064    1475.     *                                                                 *
                                   24065    1476.     *     Input - @IORB                                               *
                                   24066    1477.     *                                                                 *
                                   24067    1478.     *    Output - RVR contains Device Status                          *
                                   24068    1479.     *             SSCH condition code set                             *
                                   24069    1480.     *                                                                 *
                                   24070    1481.     *                                                                 *
                                   24071    1482.     *******************************************************************
-
 001094                            24073    1484.     DOIO     PROC  @IORB,SCOPE=GLOBAL
 001094 C4D6C9D640404040           24079             +
 00109C 0018/0000                  24080             +
 0010A0 900F D004/18AF       00004 24082             +
 USING  DOIO,R10
 0010A6 50D0 C000/18CD       00000 24097             +
 0010AC 9680 C000      00000       24099             +
 USING  @IORB-72,R12
 0010B0 41D0 C060            00060 24113             +
                                   24114    1485.     *
                                   24115    1486.     *  GET USER PARMS
                                   24116    1487.     *
 0010B4 4140 C048            00000 24117    1488.              LA    RJ,@IORB                I/O REQUEST BLOCK
 USING  @IORB,R4                   24118    1489.              WITH  (@IORB,RJ)
 0010B8 5830 400C            0000C 24131    1490.              L     RB,@IORSCH              DEVICE BLOCK POINTER
 0010BC 5860 4008            00008 24132    1491.              L     RX,@IORPARM             USER PARM
 0010C0 5E60 4004            00004 24133    1492.              AL    RX,@IOROFF               TO MVS VIRTUAL
 USING  @DOIO-72,R13               24134    1493.              PSET  @DOIO
 0010C4 D70F D048 D048 00000 00000 24151             +
 0010CA 5040 D050            00008 24152    1494.              ST    RJ,@DOIORB              SEND IORB
 0010CE 5060 D048            00000 24153    1495.              ST    RX,@DOUPRM               USER PARM
 0010D2 5030 D04C            00004 24154    1496.              ST    RB,@DODSID                AND DEVICE ID
1IOSERV   (IOSE00) (09:40) (22MAR04) IHAPSAE  - PSA Extension (ESAME)                                                       Page   78
0Current Usings:  (@IORB,R4) (DOIO,R10) (@IORB-72,R12) (@DOIO-72,R13)
0Loc    Object Code    Addr1 Addr2  Stmt Lv Lineno    Source Statement           (Hibal 5, Asmedit 3.3)  HLASM R4.0  2004/03/22 09.40
+___    ______ ____    _____ _____  ____ __ ______    ______ _________
0                                  24156    1498.     *
                                   24157    1499.     *  Validate device block
                                   24158    1500.     *
 USING  COMDB,R3                   24159    1501.              WITH  (COMDB,RB)
 0010D6 D502 3001 A4B3 00001 01553 24172    1502.              CLC   COMDBID+1(3),=C'DB '    Might cause a program check
 0010DC 4780 A050            010F0 24173    1503.              IF    NE,'KAPUT  "COMDBID"'
 0010E0 4110 0001            00001 24192  1          +
 0010E4 4100 0080            00080 24193  1          +
 0010E8 8900 0018/1610       00018 24194  1          +
 0010EE 0A0D                       24196             +
                                   24201    1504.     *
                                   24202    1505.     *  New for Hiperspace support
                                   24203    1506.     *
                                   24204    1507.     *  IF THE DDB POINTS TO AN HDB WHICH POINTS BACK TO THE DDB, THIS
                                   24205    1508.     *  REPRESENTS A PAGE/SWAP REQUEST WHICH HAS BEEN CONVERTED TO USE
                                   24206    1509.     *  HIPERSPACE SERVICES.  FOR PAGE AND SWAP READ OR WRITE REQUESTS,
                                   24207    1510.     *  WE USE THE HIPERSPACE DRIVERS IN PLACE OF THE PAGE/SWAP DRIVERS.
                                   24208    1511.     *  THERE IS NO HIPERSPACE EQUIVALENT FOR A PAGE RESET SO AN IMMEDIATE
                                   24209    1512.     *  GOOD RETURN CODE IS FAKED OUT.  REAL PAGE AND SWAP OPEN AND CLOSE
                                   24210    1513.     *  REQUESTS ARE PERFORMED BECAUSE THE ORVYL GUEST CALLER EXPECTS SOME
                                   24211    1514.     *  DSCB INFO TO BE PASSED BACK IN #PFINFO.  HOWEVER, A HIPERSPACE
                                   24212    1515.     *  OPEN IS DONE WITH THE FIRST I/O REQUEST SIMULATED.
                                   24213    1516.     *
 USING  #IOCOM,R6                  24214    1517.              WITH  (#IOCOM,RX)
 AUSING (DDB,COMDB)                24227    1518.              WITH  (DDB,COMDB)
                                   24234    1519.   C HDBSRCH  IF    ('CLC COMDBID(4),=C"DDB "',EQ), DO WE HAVE A DDB?
 0010F0                                     1520.                    BEGIN
 0010F0 D503 3000 A470 00000 01510 24242             +
 0010F6 4770 A0BC            0115C 24243             +
                                   24248  1 1521.   C            IF    ('LT RA,DDBHDB',Z),     IF NO HDB, COULD BE FILE IO
 0010FA 5820 30A4/1222       000A4        1 1522.                      EXIT,HDBSRCH              BYPASS FURTHER PROCESSING
 001100 4780 A0BC            0115C 24261  1          +
 DROP   COMDB,R3                   24267  1 1523.                WITH  (COMDB,RA)
 USING  COMDB,R2
                                   24288  1 1524.   C            IF    ('CLC COMDBID(4),=C"HDB "',NE), IF HDB HAS NO ACRONYM
 001104                                   1 1525.                      'KAPUT NODDBHDB'          ABEND
 001104 D503 2000 A474 00000 01514 24295  1          +
 00110A 4780 A07E            0111E 24296  1          +
 00110E 4110 0001            00001 24309  2          +
 001112 4100 0080            00080 24310  2          +
 001116 8900 0018/1610       00018 24311  2          +
 00111C 0A0D                       24313  1          +
 AUSING (HDB,COMDB)                24318  1 1526.                WITH  (HDB,COMDB)
                                   24325  1 1527.   C            IF    (RB,NE,HDBDDB),         IF NO PTR TO DDB,
 00111E 5930 2060            00060        1 1528.                      'KAPUT NOHDBDDB'          ABEND
 001122 4780 A096            01136 24337  1          +
 001126 4110 0001            00001 24350  2          +
 00112A 4100 0080            00080 24351  2          +
 00112E 8900 0018/1610       00018 24352  2          +
 001134 0A0D                       24354  1          +
 001136                            24359  1 1529.                IF    (#IOCMD,LE,#IOCLOSE),EXIT,HDBSRCH
 001136 D503 A478 6000 01518 00000 24371  1          +
 00113C 47A0 A0BC            0115C 24374  1          +
 001140                            24380  1 1530.                CLEAR @DORC
1IOSERV   (IOSE00) (09:40) (22MAR04) IHAPSAE  - PSA Extension (ESAME)                                                       Page   79
0Current Usings:  (COMDB,R2) (@IORB,R4) (#IOCOM,R6) (DOIO,R10) (@IORB-72,R12) (@DOIO-72,R13)
0Loc    Object Code    Addr1 Addr2  Stmt Lv Lineno    Source Statement           (Hibal 5, Asmedit 3.3)  HLASM R4.0  2004/03/22 09.40
+___    ______ ____    _____ _____  ____ __ ______    ______ _________
0001140 D703 D054 D054 0000C 0000C 24386  1          +
 001146 4100 0001            00001 24387  1 1531.                LA    RVR,1                   PRELOAD IMMED. CODE
 00114A                            24388  1 1532.                IF    (#IOCMD,EQ,#IORESET),DONEIO HSPACE HAS NO RESET
 00114A D503 A47C 6000 0151C 00000 24400  1          +
 001150 4780 A0C2            01162 24403  1          +
 001154 1B00                       24409  1 1533.                CLEAR RVR
 001156 5020 D04C            00004 24413  1 1534.                ST    RA,@DODSID              USE HDB IN PLACE
 00115A 1832                       24414  1 1535.                LR    RB,RA                     OF DDB
 USING  COMDB,R3                   24415    1536.              END   ,                    OF DO WE HAVE A DDB?
 DROP   COMDB,R2
                                   24433    1537.     *
                                   24434    1538.     *  Route request to driver
                                   24435    1539.     *
                                   24436    1540.              WITH  (COMDB,RB)
 00115C 58F0 3004/0DEF       00004 24440    1541.              ACALL COMDBRTN
                                   24447    1542.     *
                                   24448    1543.     *  Set condition code
                                   24449    1544.     *
 001162 8900 0004            00004 24450    1545.     DONEIO   SLL   RVR,4                   MOVE BITS TO PROPER LOCATION
 001166 4200 4011            00011 24451    1546.              STC   RVR,@IORCC              RETURN CONDITION CODE
 00116A 9430 4011      00011       24452    1547.              NI    @IORCC,X'30'             AND ONLY CONDITION CODE
 00116E 5800 D054            0000C 24453    1548.              L     RVR,@DORC               GET RETURN CODE
 001172 981F C008            00008 24454    1549.              PEND
 DROP   #IOCOM,R6
 DROP   COMDB,R3
 DROP   @IORB,R4
 DROP   @IORB-72,R12
 DROP   DOIO,R10
 001176 9680 C000/0B0E 00000       24484             +
 DROP   @DOIO-72,R13
1IOSERV   (IOSE00) (09:40) (22MAR04) IHAPSAE  - PSA Extension (ESAME)                                                       Page   80
0Loc    Object Code    Addr1 Addr2  Stmt Lv Lineno    Source Statement           (Hibal 5, Asmedit 3.3)  HLASM R4.0  2004/03/22 09.40
+___    ______ ____    _____ _____  ____ __ ______    ______ _________
0                                  24494    1551.              COPY  FIOPARM
                                   24495=            =
                                   24496=            =
                                   24497=            =    FIOPARM -- ORVYL File System I/O request parameters.
                                   24498=            =      Modified, 7/90, for file caching, Niz
                                   24499=            =

0                                  24501=            =
                                   24502=            =           Common prefix for every request.
                                   24503=            =
 000000                00000 00004 24504             =#FIOCOM  RECORD BEGIN
 000000                            24512  1          =#FIOCMD    DS    A
                                   24513= 1          =
                                   24514= 1          =             File Device I/O command codes.
                                   24515= 1          =
                                   24516  1          =#FCOPEN    EQU   4                       Open action code
                                   24517  1          =#FCCLOSE   EQU   8                       Close I/O code
                                   24518  1          =#FCREAD    EQU   12                      Read I/O code
                                   24519  1          =#FCWRITE   EQU   16                      Write I/O code
 000004                00004 00004 24520             =         END
                                   24529=            =
                                   24530=            =           File Device Open request.
                                   24531=            =
 000000                00000 0000C 24532             =#FIOOPEN RECORD BEGIN
 000000                            24540  1          =#FIOOCMD   DS    XL(L'#FIOCOM)
 000004                            24541  1          =#FIOALLO   DS    A                       Data set allocation info
 000008                            24542  1          =#FIOINFO   DS    A                       Data set info return area
 00000C                0000C 0000C 24543             =         END
                                   24552=            =
                                   24553=            =           File Device Close request.
                                   24554=            =
 000000                00000 00004 24555             =#FICLOSE RECORD BEGIN
 000000                            24563  1          =#FIOCCMD   DS    XL(L'#FIOCOM)
 000004                00004 00004 24564             =         END
                                   24573=            =
                                   24574=            =           File Read/Write block request.
                                   24575=            =
 000000                00000 00028 24576             =#FIODO   RECORD BEGIN
 000000                            24584  1          =#FIODCMD   DS    XL(L'#FIOCOM)       I/O opcode (read or write)
                                   24585  1          =
 000004                            24586  1          =#FIOFSID   DS    F                   File system id
 000008                            24587  1          =#FIOBLKID   DS   F                   Block number in file system
                                   24588  1          =
 00000C                            24589  1          =#FIOHDRP   DS    A                   Block header virtual address
 000010                            24590  1          =#FIOHDRL   DS    F                   Block header length
                                   24591  1          =
 000014                            24592  1          =#FIODATAP   DS   A                   Data area virtual address
 000018                            24593  1          =#FIODATAL   DS   F                   Data area length
                                   24594  1          =
 00001C                            24595  1          =#FIORBLK   DS    F                   Block number relative to RDB
 000020                            24596  1          =#FIOIDALR   DS   A                   Orvyl real address of IDAL
 000024                            24597  1          =#FIOHDRR    DS   A                   Orvyl real address of header
 000028                00028 00028 24598             =         END
1IOSERV   (IOSE00) (09:40) (22MAR04) ORVYL'S File I/O Service Routines                                                      Page   81
0Loc    Object Code    Addr1 Addr2  Stmt Lv Lineno    Source Statement           (Hibal 5, Asmedit 3.3)  HLASM R4.0  2004/03/22 09.40
+___    ______ ____    _____ _____  ____ __ ______    ______ _________
0                                  24608    1553.     *******************************************************************
                                   24609    1554.     *                                                                 *
                                   24610    1555.     *    FILEWORK - FILE I/O work area                                *
                                   24611    1556.     *                                                                 *
                                   24612    1557.     *******************************************************************
 000000                00000 00001 24613    1558.     FILEWORK RECORD BEGIN
 000000                            24621  1 1559.     FILECMD    DS    X                       CCW COMMAND SAVE
 000001                00001 00001 24622    1560.              END   ,
-
                                   24632    1562.     *******************************************************************
                                   24633    1563.     *                                                                 *
                                   24634    1564.     *    SKELETON FILE SYSTEM CCWS                                    *
                                   24635    1565.     *                                                                 *
                                   24636    1566.     *******************************************************************
 001578                01556 06A98 24637    1567.              DATA  BEGIN
 001578 2340000100000000           24642  1 1568.     FCCWSEC    CCW1  CCWSTSEC,0,CCWCMDCH,1
                                   24643  1 1569.
 001580 0740000600000000           24644  1 1570.     FCCWSK     CCW1  CCWSEEK,0,CCWCMDCH,6
 001588 1F40000100000000           24645  1 1571.                CCW1  CCWSFM,0,CCWCMDCH,1
                                   24646  1 1572.     FCCWPFX    EQU   FCCWSK,*-FCCWSK,C'X'
                                   24647  1 1573.
 001590 3140000500000000           24648  1 1574.     FCCWA      CCW1  CCWSIDEQ,0,CCWCMDCH,5
 001598 0800000000000000           24649  1 1575.                CCW1  CCWTIC,0,0,0
 0015A0 0E20001400000000           24650  1 1576.                CCW1  CCWRKD,0,CCWSLI,20
 0015A8 0024000000000000           24651  1 1577.                CCW1  0,0,CCWIDA+CCWSLI,0
                                   24652  1 1578.     FCCWS      EQU   FCCWA,*-FCCWA,C'X'
                                   24653  1 1579.
 0015B0 6340001000000000           24654  1 1580.     FCCWPE     CCW1  CCWDEFEX,0,CCWCMDCH,16
 0015B8 4740001000000000           24655  1 1581.                CCW1  CCWLOCRC,0,CCWCMDCH,16
 0015C0 0E20001400000000           24656  1 1582.                CCW1  CCWRKD,0,CCWSLI,20
 0015C8 0024000000000000           24657  1 1583.                CCW1  0,0,CCWIDA+CCWSLI,0
                                   24658  1 1584.     FCCWEXT    EQU   FCCWPE,*-FCCWPE,C'X'
 00117C                00C16 06A98 24659    1585.              END   ,
1IOSERV   (IOSE00) (09:40) (22MAR04) ORVYL'S File I/O Service Routines                                                      Page   82
0Loc    Object Code    Addr1 Addr2  Stmt Lv Lineno    Source Statement           (Hibal 5, Asmedit 3.3)  HLASM R4.0  2004/03/22 09.40
+___    ______ ____    _____ _____  ____ __ ______    ______ _________
0                                  24666    1587.     *******************************************************************
                                   24667    1588.     *                                                                 *
                                   24668    1589.     *   FILEIO  - ORVYL File System I/O Driver                        *
                                   24669    1590.     *                                                                 *
                                   24670    1591.     *                                                                 *
                                   24671    1592.     *     Input - #FIO                                                *
                                   24672    1593.     *                                                                 *
                                   24673    1594.     *    Output - None                                                *
                                   24674    1595.     *                                                                 *
                                   24675    1596.     *                                                                 *
                                   24676    1597.     *******************************************************************
-
 00117C                            24678    1599.     FILEIO   PROC  @DOIO,FILEWORK,SCOPE=LOCAL
 00117C C6C9D3C5C9D64040           24683             +
 001184 0010/0008                  24684             +
 001188 900F D004/18AF       00004 24686             +
 USING  FILEIO,R10
 00118E 50D0 C000/18CD       00000 24701             +
 001194 9680 C000      00000       24703             +
 USING  @DOIO-72,R12
 AUSING (FILEWORK,@DOIO+16)
 001198 41D0 C060            00060 24722             +
 00119C 5870 C050            00008 24723    1600.              L     RY,@DOIORB              INTERFACE PARAMETERS
 USING  @IORB,R7                   24724    1601.              WITH  (@IORB,RY)
 0011A0 5860 C048            00000 24737    1602.              L     RX,@DOUPRM              USER PARAMETERS
 USING  #FIOCOM,R6                 24738    1603.              WITH  (#FIOCOM,RX)
 0011A4 5830 C04C            00004 24751    1604.              L     RB,@DODSID              DDB POINTER
 USING  DDB,R3                     24752    1605.              WITH  (DDB,RB)
 AUSING (COMDB,DDB)                24765    1606.              WITH  (COMDB,DDB),'CLC  COMDBID,=CL4"DDB"'
 0011A8 D503 3000 A35C 00000 014E4 24776             +
 0011AE 4780 A03A            011C2 24780    1607.              IF    NE,'KAPUT FDBPTR'
 0011B2 4110 0001            00001 24799  1          +
 0011B6 4100 0080            00080 24800  1          +
 0011BA 8900 0018/1610       00018 24801  1          +
 0011C0 0A0D                       24803             +
1IOSERV   (IOSE00) (09:40) (22MAR04) ORVYL'S File I/O Service Routines                                                      Page   83
0Current Usings:  (DDB,R3) (#FIOCOM,R6) (@IORB,R7) (FILEIO,R10) (@DOIO-72,R12)
0Loc    Object Code    Addr1 Addr2  Stmt Lv Lineno    Source Statement           (Hibal 5, Asmedit 3.3)  HLASM R4.0  2004/03/22 09.40
+___    ______ ____    _____ _____  ____ __ ______    ______ _________
0                                  24809    1609.     *
                                   24810    1610.     *  SEND OPEN OR CLOSE REQUEST TO SUBTASK
                                   24811    1611.     *
 0011C2                            24812    1612.              IF    (#FIOCMD,LE,#FCCLOSE),BEGIN
 0011C2 D503 A398 6000 01520 00000 24824             +
 0011C8 4750 A0DC            01264 24825             +
 0011CC 5840 90A8            000A8 24830  1 1613.                WITH  (RTCB,RTCBR),'L  RJ,RTCBIOT'   IOT POINTER
 USING  RTCB,R9
 DROP   RTCB,R9
 USING  IOT,R4                     24854  1 1614.                WITH  (IOT,RJ)
 0011D0 5800 4010            00010 24867  1 1615.                MSGGBUF IOTMTMC,L'$MVIPSFO
 USING  @MSGGBUF-72,R13
 0011D4 5000 D048            00000 24883  1          +
 0011D8 4100 0018            00018 24890  1          +
 0011DC 5000 D04C            00004 24891  1          +
 0011E0 58F0 A39C/0DEF       01524 24894  1          +
 0011E6 1850                       24896  1 1616.                LR    RK,RVR                  MESSAGE BUFFER
 USING  $MVIOCOM,R5                24897  1 1617.                WITH  ($MVIOCOM,RK)
 0011E8 5030 5000            00000 24910  1 1618.                ST    RB,$MVIDSID             SET DEVICE ID
 0011EC D203 5004 7000 00004 00000 24911  1 1619.                MVC   $MVIRQID,@IORRQID       Request ID
 0011F2 D203 5008 7004 00008 00004 24912  1 1620.                MVC   $MVIOFF,@IOROFF         Offset (guest real to MVS)
                                   24913  1 1621.     *
                                   24914  1 1622.     *  OPEN REQUEST - PROVIDE PARAMETER ADDRESS
                                   24915  1 1623.     *
 0011F8                            24916  1 1624.                IF    (#FIOCMD,EQ,#FCOPEN),BEGIN
 0011F8 D503 A3A0 6000 01528 00000 24928  1          +
 0011FE 4770 A096            0121E 24929  1          +
 DROP   #FIOCOM,R6                 24934  2 1625.                  WITH  (#FIOOPEN,RX)           USER PARM
 USING  #FIOOPEN,R6
 DROP   $MVIOCOM,R5                24950  2 1626.                  WITH  ($MVIPSFO,RK)
 USING  $MVIPSFO,R5
 001202 5810 6004            00004 24966  2 1627.                  L     RS,#FIOALLO             ALLOCATION PARAMETERS
 001206 5E10 7004            00004 24967  2 1628.                  AL    RS,@IOROFF               TO MVS VIRTUAL
 00120A 5010 5010            00010 24968  2 1629.                  ST    RS,$MPFALLO             TO MESSAGE BUFFER
 00120E 5810 6008            00008 24969  2 1630.                  L     RS,#FIOINFO             INFO RETURN AREA
 001212 5E10 7004            00004 24970  2 1631.                  AL    RS,@IOROFF               TO MVS VIRTUAL
 001216 5010 5014            00014 24971  2 1632.                  ST    RS,$MPFINFO             TO MESSAGE BUFFER
 00121A 4110 0004            00004 24972  2 1633.                  LA    RS,$MVIFPFO             NOTE OPEN REQUEST
 DROP   $MVIPSFO,R5                24973  1 1634.                END   ,
 USING  $MVIOCOM,R5
 DROP   #FIOOPEN,R6
 USING  #FIOCOM,R6
1IOSERV   (IOSE00) (09:40) (22MAR04) ORVYL'S File I/O Service Routines                                                      Page   84
0Current Usings:  (DDB,R3) (IOT,R4) ($MVIOCOM,R5) (#FIOCOM,R6) (@IORB,R7) (FILEIO,R10) (@DOIO-72,R12) (@MSGGBUF-72,R13)
0Loc    Object Code    Addr1 Addr2  Stmt Lv Lineno    Source Statement           (Hibal 5, Asmedit 3.3)  HLASM R4.0  2004/03/22 09.40
+___    ______ ____    _____ _____  ____ __ ______    ______ _________
0                                  25002  1 1636.     *
                                   25003  1 1637.     *  MUST BE A CLOSE REQUEST
                                   25004  1 1638.     *
 00121E A09A           0121E 01200 25005  1 1639.                ELSE  BEGIN
 00121E 47F0 A0B8            01240 25010  1          +
 001222                            25016  2 1640.                  IF    (#FIOCMD,NE,#FCCLOSE),'KAPUT PFOCODE'
 001222 D503 A398 6000 01520 00000 25028  2          +
 001228 4780 A0B4            0123C 25029  2          +
 00122C 4110 0001            00001 25042  3          +
 001230 4100 0080            00080 25043  3          +
 001234 8900 0018/1610       00018 25044  3          +
 00123A 0A0D                       25046  2          +
 00123C 4110 0008            00008 25051  2 1641.                  LA    RS,$MVIFPFC             CLOSE REQUEST
 001240                            25052  1 1642.                END   ,
                                   25056  1 1643.     *
                                   25057  1 1644.     *  SEND MESSAGE
                                   25058  1 1645.     *
 001240 5010 500C            0000C 25059  1 1646.                ST    RS,$MVIFUNC             SET FUNCTION CODE
 001244 5800 4010            00010 25060  1 1647.                MSGSEND IOTMTMC,(RK)
 DROP   @MSGGBUF-72,R13
 USING  @MSGSEND-72,R13
 001248 5000 D048/1805       00000 25079  1          +
 00124E 5000 D04C            00004 25085  1          +
 001252 D703 D058 D058 00010 00010 25092  1          +
 001258 58F0 A3A4/0DEF       0152C 25095  1          +
 00125E 1B00                       25097  1 1648.                CLEAR RVR                     SET CONDITION CODE
 001260 47F0 A330            014B8 25101  1 1649.                EXIT  FILEIO                  DONE
 DROP   $MVIOCOM,R5                25104    1650.              END   ,
 DROP   IOT,R4
                                   25118    1651.     *
                                   25119    1652.     *  SET UP IOCB
                                   25120    1653.     *
 001264 58F0 A3A8/0DEF       01530 25121    1654.              ACALL GETIOCB                 GET AN I/O CONTROL BLOCK
 00126A 1850                       25128    1655.              LR    RK,RVR
 USING  IOCB,R5                    25129    1656.              WITH  (IOCB,RK)
 00126C 5030 5014            00014 25142    1657.              ST    RB,IOCBDDB              SET DDB POINTER
 001270 D203 5010 7000 00010 00000 25143    1658.              MVC   IOCBRQID,@IORRQID        AND REQUEST ID
1IOSERV   (IOSE00) (09:40) (22MAR04) ORVYL'S File I/O Service Routines                                                      Page   85
0Current Usings:  (DDB,R3) (IOCB,R5) (#FIOCOM,R6) (@IORB,R7) (FILEIO,R10) (@DOIO-72,R12) (@MSGSEND-72,R13)
0Loc    Object Code    Addr1 Addr2  Stmt Lv Lineno    Source Statement           (Hibal 5, Asmedit 3.3)  HLASM R4.0  2004/03/22 09.40
+___    ______ ____    _____ _____  ____ __ ______    ______ _________
0                                  25145    1660.     *
                                   25146    1661.     *  SET IO KEY AND INCREMENT I/O COUNT
                                   25147    1662.     *
 001276                            25148    1663.              IF    (#FIOCMD,EQ,#FCREAD),BEGIN    FOR FILE READS
 001276 D503 A3AC 6000 01534 00000 25160             +
 00127C 4770 A124            012AC 25161             +
 001280 9500 7010      00010       25166  1 1664.                IF    (@IORKEY,Z),'KAPUT FIOKEY'
 001284 4770 A110            01298 25177  1          +
 001288 4110 0001            00001 25190  2          +
 00128C 4100 0080            00080 25191  2          +
 001290 8900 0018/1610       00018 25192  2          +
 001296 0A0D                       25194  1          +
 001298 4110 0001            00001 25199  1 1665.                INCR  RS,DDBRDCT              INCREMENT READ COUNT
 00129C 5E10 301C            0001C 25203  1          +
 0012A0 5010 301C            0001C 25204  1          +
 0012A4 920E C058      00000       25205  1 1666.                MVI   FILECMD,CCWRKD          SET CCW COMMAND
 0012A8 9206 5090      00090       25206  1 1667.                MVI   IOCBLCRD,X'06'          SET READ IN LOCATE RECORD
 0012AC A128           012AC 0127E 25207    1668.              END   ELSE,BEGIN
 0012AC 47F0 A15A            012E2 25216             +
 0012B0                            25222  1 1669.                IF    (#FIOCMD,NE,#FCWRITE),'KAPUT FIOCMD'
 0012B0 D503 A3B0 6000 01538 00000 25234  1          +
 0012B6 4780 A142            012CA 25235  1          +
 0012BA 4110 0001            00001 25248  2          +
 0012BE 4100 0080            00080 25249  2          +
 0012C2 8900 0018/1610       00018 25250  2          +
 0012C8 0A0D                       25252  1          +
 0012CA 9200 7010      00010       25257  1 1670.                CLEAR @IORKEY
 0012CE 4110 0001            00001 25264  1 1671.                INCR  RS,DDBWRCT              INCREMENT WRITE COUNT
 0012D2 5E10 3020            00020 25268  1          +
 0012D6 5010 3020            00020 25269  1          +
 0012DA 920D C058      00000       25270  1 1672.                MVI   FILECMD,CCWWKD          SET CCW COMMAND
 0012DE 9201 5090      00090       25271  1 1673.                MVI   IOCBLCRD,X'01'          SET WRITE IN LOCATE RECORD
 0012E2                            25272    1674.              END   ,
                                   25276    1675.     *
                                   25277    1676.     *  CALCULATE TRACK ADDRESS
                                   25278    1677.     *
 DROP   #FIOCOM,R6                 25279    1678.              WITH  (#FIODO,RX)
 USING  #FIODO,R6
 DROP   @MSGSEND-72,R13            25295    1679.              PSET  @BCH
 USING  @BCH-72,R13
 0012E2 D710 D048 D048 00000 00000 25315             +
 0012E8 5030 D048            00000 25316    1680.              ST    RB,@BCHDSID             SET DATA SET ID
 0012EC D203 D04C 601C 00004 0001C 25317    1681.              MVC   @BCHBLK,#FIORBLK         AND BLOCK NUMBER
 0012F2 58F0 A3B4/0DEF       0153C 25318    1682.              ACALL BLKCCHHR                CONVERT TO DISK ADDRESS
 0012F8 D200 50AC D050 000AC 00008 25325    1683.              MVC   IOCBSECT,@BCHSECT       GET SECTOR
1IOSERV   (IOSE00) (09:40) (22MAR04) ORVYL'S File I/O Service Routines                                                      Page   86
0Current Usings:  (DDB,R3) (IOCB,R5) (#FIODO,R6) (@IORB,R7) (FILEIO,R10) (@DOIO-72,R12) (@BCH-72,R13)
0Loc    Object Code    Addr1 Addr2  Stmt Lv Lineno    Source Statement           (Hibal 5, Asmedit 3.3)  HLASM R4.0  2004/03/22 09.40
+___    ______ ____    _____ _____  ____ __ ______    ______ _________
0                                  25327    1685.     *
                                   25328    1686.     *  SET UP IOSB
                                   25329    1687.     *
 0012FE 4140 50DC            000DC 25330    1688.              LA    RJ,IOCBIOSB             IOSB POINTER
 USING  IOSB,R4                    25331    1689.              WITH  (IOSB,RJ)
 001302 D207 405C D051 0005C 00009 25344    1690.              MVC   IOSEEK,@BCHSEEK         SET SEEK ADDRESS
 001308 D207 4064 D051 00064 00009 25345    1691.              MVC   IOSEEKA,@BCHSEEK        SET SEEK ADDRESS
 00130E D200 4059 7010 00059 00010 25346    1692.              MVC   IOSCKEY,@IORKEY         SET CCW AREA KEY
 001314 D203 4010 3078 00010 00078 25347    1693.              MVC   IOSUCB,DDBUCB           UCB POINTER
 00131A 4120 5038            00038 25348    1694.              LA    RA,IOCBCCW              CCW AREA
                                   25349    1695.     *
                                   25350    1696.     *  DEVICE SUPPORTS EXTENDED CKD COMMANDS
                                   25351    1697.     *
 00131E 91C0 3092      00092       25352    1698.              IF    DDBFEAT.DCEDEFLR,BEGIN
 001322 47E0 A200            01388 25363             +
 001326 D203 4010 3078 00010 00078 25368  1 1699.                MVC   IOSUCB,DDBUCB           UCB POINTER
 USING  CCW,R2                     25369  1 1700.                WITH  (CCW,RA)
 00132C D21F 2000 A428 00000 015B0 25382  1 1701.                MVC   CCW(L'FCCWEXT),FCCWEXT  SKELETON CCWS
                                   25383  1 1702.     *
                                   25384  1 1703.     *  BUILD DEFINE EXTENT CCW AND PARAMETER
                                   25385  1 1704.     *
 001332 B110 5080            00080 25386  1 1705.                LRA   RS,IOCBDEXD             DEFINE EXTENT AREA
 001336 5010 2004            00004 25387  1 1706.                ST    RS,CCWADDR              SET CCW
 00133A 4120 2008            00008 25388  1 1707.                LA    RA,CCW+L'CCW            TO NEXT CCW AREA
                                   25389  1 1708.     *         IF    DDBFEAT.DCECACHE,'CLEAR IOCBDEXD+1.X"1C"'
 00133E 1F11/4310 3095       00095 25390  1 1709.                LC    RS,DDBKEYL              KEY LENGTH
 001344 4A10 3098            00098 25397  1 1710.                AH    RS,DDBBLKSZ              PLUS BLOCK SIZE
 001348 4010 5082            00082 25398  1 1711.                STH   RS,IOCBDEXD+2             MAXIMUM BLOCK SIZE
 00134C 5810 3010            00010 25399  1 1712.                L     RS,DDBDEB               DEB
 001350 4110 1020            00044 25400  1 1713.                WITH  (DEBBASIC,RS),'LA  RS,DEBBASND'  POINT AT EXTENT TABLE
 USING  DEBBASIC,R1
 DROP   DEBBASIC,R1
 USING  DEBDASD,R1                 25424  1 1714.                WITH  (DEBDASD,RS)
 001354 D207 5088 1006 00088 00006 25437  1 1715.                MVC   IOCBDEXD+8(8),DEBSTRCC    SET EXTENT CCHH/CCHH
 DROP   DEBDASD,R1                 25438  1 1716.                DROP  RS
                                   25445  1 1717.     *
                                   25446  1 1718.     *  BUILD LOCATE RECORD CCW AND PARAMETER
                                   25447  1 1719.     *
 00135A B110 5090            00090 25448  1 1720.                LRA   RS,IOCBLCRD             LOCATE RECORD AREA
 00135E 5010 2004            00004 25449  1 1721.                ST    RS,CCWADDR              SET CCW
 001362 4120 2008            00008 25450  1 1722.                LA    RA,CCW+L'CCW            TO NEXT CCW AREA
 001366 9201 5093      00093       25451  1 1723.                MVI   IOCBLCRD+3,1            SET NUMBER OF BLOCKS
 00136A D203 5094 405F 00094 0005F 25452  1 1724.                MVC   IOCBLCRD+4(4),IOSEEK+3  SET CCHH
 001370 D204 5098 405F 00098 0005F 25453  1 1725.                MVC   IOCBLCRD+8(5),IOSEEK+3  SET CCHHR ALSO
 001376 D200 509D 50AC 0009D 000AC 25454  1 1726.                MVC   IOCBLCRD+13(1),IOCBSECT  COPY SECTOR
                                   25455  1 1727.     *
                                   25456  1 1728.     *  FIX CCW COMMAND CODE
                                   25457  1 1729.     *
 00137C 950D C058      00000       25458  1 1730.                IF    (FILECMD,EQ,CCWWKD),BEGIN
 001380 4770 A200            01388 25471  1          +
 001384 928D C058      00000       25476  2 1731.                  MVI   FILECMD,CCWWUKD         CHANGE TO WRITE UPDATE
 001388                            25477  1 1732.                END   ,
 DROP   CCW,R2                     25481    1733.              END
1IOSERV   (IOSE00) (09:40) (22MAR04) ORVYL'S File I/O Service Routines                                                      Page   87
0Current Usings:  (DDB,R3) (IOSB,R4) (IOCB,R5) (#FIODO,R6) (@IORB,R7) (FILEIO,R10) (@DOIO-72,R12) (@BCH-72,R13)
0Loc    Object Code    Addr1 Addr2  Stmt Lv Lineno    Source Statement           (Hibal 5, Asmedit 3.3)  HLASM R4.0  2004/03/22 09.40
+___    ______ ____    _____ _____  ____ __ ______    ______ _________
0                                  25493    1735.     *
                                   25494    1736.     *  BUILD SEEK CCW
                                   25495    1737.     *
 001388 A204           01388 01324 25496    1738.              ELSE  BEGIN
 001388 47F0 A25A            013E2 25501             +
 USING  CCW,R2                     25507  1 1739.                WITH  (CCW,RA)
 00138C D20F 2000 A3F8 00000 01580 25520  1 1740.                MVC   CCW(L'FCCWPFX),FCCWPFX  SKELETON CCWS
 001392 B110 405D            0005D 25521  1 1741.                LRA   RS,IOSEEK+1             SEEK ARGUMENT
 001396 5010 2004            00004 25522  1 1742.                ST    RS,CCWADDR              SET IN CCW
 00139A 4120 2008            00008 25523  1 1743.                LA    RA,CCW+L'CCW            TO NEXT CCW AREA
                                   25524  1 1744.     *
                                   25525  1 1745.     *  BUILD SET FILE MASK CCW
                                   25526  1 1746.     *
 00139E B110 50AD            000AD 25527  1 1747.                LRA   RS,IOCBFM               SEEK ARGUMENT
 0013A2 5010 2004            00004 25528  1 1748.                ST    RS,CCWADDR              SET IN CCW
 0013A6 4120 2008            00008 25529  1 1749.                LA    RA,CCW+L'CCW            TO NEXT CCW AREA
                                   25530  1 1750.     *
                                   25531  1 1751.     *  BUILD SET SECTOR CCW - IF NECESSARY
                                   25532  1 1752.     *
 0013AA 9500 50AC      000AC       25533  1 1753.                IF    (IOCBSECT,NZ),BEGIN
 0013AE 4780 A23C            013C4 25544  1          +
 0013B2 D207 2000 A3F0 00000 01578 25549  2 1754.                  MVC   CCW,FCCWSEC             SKELETON CCW
 0013B8 B110 50AC            000AC 25550  2 1755.                  LRA   RS,IOCBSECT             SECTOR AREA
 0013BC 5010 2004            00004 25551  2 1756.                  ST    RS,CCWADDR              SET IN CCW
 0013C0 4120 2008            00008 25552  2 1757.                  LA    RA,CCW+L'CCW            TO NEXT CCW AREA
 0013C4                            25553  1 1758.                END   ,
                                   25557  1 1759.     *
                                   25558  1 1760.     *  BUILD OTHER CCWS
                                   25559  1 1761.     *
 0013C4 D21F 2000 A408 00000 01590 25560  1 1762.                MVC   CCW(L'FCCWS),FCCWS      FILE CCW SKELETONS
                                   25561  1 1763.     *
                                   25562  1 1764.     *  SET UP SEARCH ID CCW
                                   25563  1 1765.     *
 0013CA B110 405F            0005F 25564  1 1766.                LRA   RS,IOSEEK+3             SEARCH ARGUMENT
 0013CE 5010 2004            00004 25565  1 1767.                ST    RS,CCWADDR               TO CCW
 0013D2 B110 2000            00000 25566  1 1768.                LRA   RS,CCW                  CCW ADDRESS FOR TIC
 0013D6 4120 2008            00008 25567  1 1769.                LA    RA,CCW+L'CCW            TO NEXT CCW AREA
                                   25568  1 1770.     *
                                   25569  1 1771.     *  SET UP TIC CCW
                                   25570  1 1772.     *
 0013DA 5010 2004            00004 25571  1 1773.                ST    RS,CCWADDR              SEARCH CCW ADDRESS FOR TIC
 0013DE 4120 2008            00008 25572  1 1774.                LA    RA,CCW+L'CCW            TO NEXT CCW AREA
 DROP   CCW,R2                     25573    1775.              END   ,
1IOSERV   (IOSE00) (09:40) (22MAR04) ORVYL'S File I/O Service Routines                                                      Page   88
0Current Usings:  (DDB,R3) (IOSB,R4) (IOCB,R5) (#FIODO,R6) (@IORB,R7) (FILEIO,R10) (@DOIO-72,R12) (@BCH-72,R13)
0Loc    Object Code    Addr1 Addr2  Stmt Lv Lineno    Source Statement           (Hibal 5, Asmedit 3.3)  HLASM R4.0  2004/03/22 09.40
+___    ______ ____    _____ _____  ____ __ ______    ______ _________
0                                  25583    1777.     *
                                   25584    1778.     *  SET UP HEADER CCW
                                   25585    1779.     *
 USING  CCW,R2                     25586    1780.              WITH  (CCW,RA)
 0013E2 D200 2000 C058 00000 00000 25599    1781.              MVC   CCWCMD,FILECMD          SET READ OR WRITE
 0013E8 5810 6024            00024 25600    1782.              L     RS,#FIOHDRR             HEADER LOCATION
 0013EC 5E10 7004            00004 25601    1783.              AL    RS,@IOROFF               TO MVS VIRTUAL
 0013F0 B110 1000            00000 25602    1784.              LRA   RS,@RS                  AND THEN TO REAL
 0013F4 4780 A280            01408 25603    1785.              IF    NZ,'KAPUT FIOHNFX'
 0013F8 4110 0001            00001 25622  1          +
 0013FC 4100 0080            00080 25623  1          +
 001400 8900 0018/1610       00018 25624  1          +
 001406 0A0D                       25626             +
 001408 5010 2004            00004 25631    1786.              ST    RS,CCWADDR              SET
 00140C 58F0 6010            00010 25632    1787.              L     R15,#FIOHDRL            HEADER LENGTH
 001410 40F0 2002            00002 25633    1788.              STH   R15,CCWLEN               SET IT
                                   25634    1789.     *
                                   25635    1790.     *  SET UP READ/WRITE DATA CCWS
                                   25636    1791.     *
 001414 5810 6020            00020 25637    1792.              L     RS,#FIOIDALR            DATA ADDRESS LIST
 001418 1211/4780 A326       014AE 25638    1793.              IF    (RS,NZ),BEGIN
 00141E 9680 2001      00001       25652  1 1794.                SET   CCWFLAGS.CCWDATCH       MARK DATA CHAIN IN HEADER CCW
 001422 4120 2008            00008 25659  1 1795.                LA    RA,CCW+L'CCW            POINT AT READ DATA CCW
 001426 B1F0 5070            00070 25660  1 1796.                LRA   R15,IOCBIDAW            IDAW AREA
 00142A 50F0 2004            00004 25661  1 1797.                ST    R15,CCWADDR              TO R/W CCW
 00142E 5800 6018            00018 25662  1 1798.                L     RVR,#FIODATAL           TOTAL DATA LENGTH
 001432 4000 2002            00002 25663  1 1799.                STH   RVR,CCWLEN               TO R/W CCW
                                   25664  1 1800.     *
                                   25665  1 1801.     *  SET UP IDAW LIST
                                   25666  1 1802.     *
 001436 5E10 7004            00004 25667  1 1803.                AL    RS,@IOROFF              DATA ADDRESS TO MVS VIRTUAL
 00143A 1BFF                       25668  1 1804.                CLEAR R15                     IDAW INDEX
 00143C                            25672  1 1805.                LOOP  BEGIN
 00143C 5B00 1004            00004 25678  2 1806.                  S     RVR,@RS+4               LENGTH OF THIS SEGMENT
 001440 58E0 1000            00000 25679  2 1807.                  L     R14,@RS                 ADDRESS OF THIS SEGMENT
 001444 5EE0 7004            00004 25680  2 1808.                  AL    R14,@IOROFF             CONVERT ADDRESS TO MVS VIRTUAL
 001448 B1E0 E000            00000 25681  2 1809.                  LRA   R14,@R14                 AND THEN TO REAL
 00144C 4780 A2D8            01460 25682  2 1810.                  IF    NZ,'KAPUT FIONFIX'
 001450 4110 0001            00001 25701  3          +
 001454 4100 0080            00080 25702  3          +
 001458 8900 0018/1610       00018 25703  3          +
 00145E 0A0D                       25705  2          +
 001460 50EF 5070            00070 25710  2 1811.                  ST    R14,IOCBIDAW(R15)        AND THEN SET IN IDAW LIST
1IOSERV   (IOSE00) (09:40) (22MAR04) ORVYL'S File I/O Service Routines                                                      Page   89
0Current Usings:  (CCW,R2) (DDB,R3) (IOSB,R4) (IOCB,R5) (#FIODO,R6) (@IORB,R7) (FILEIO,R10) (@DOIO-72,R12) (@BCH-72,R13)
0Loc    Object Code    Addr1 Addr2  Stmt Lv Lineno    Source Statement           (Hibal 5, Asmedit 3.3)  HLASM R4.0  2004/03/22 09.40
+___    ______ ____    _____ _____  ____ __ ______    ______ _________
0                                  25712  2 1813.     *
                                   25713  2 1814.     *  IF ADDRESS IS IN FIRST 2K OF PAGE CREATE A SECOND IDAW
                                   25714  2 1815.     *
 001464 54E0 A3B8            01540 25715  2 1816.                  N     R14,=A(X'FFF')          OFFSET WITHIN PAGE
 001468 59E0 A3BC            01544 25716  2 1817.                  IF    (R14,LT,2048),BEGIN
 00146C 47B0 A2FC            01484 25728  2          +
 001470 58EF 5070            00070 25733  3 1818.                    L     R14,IOCBIDAW(R15)       GET ADDRESS
 001474 54E0 A3C0            01548 25734  3 1819.                    N     R14,=X'7FFFF000'
 001478 41E0 E800            00800 25735  3 1820.                    LA    R14,@R14+2048           TO 2K BOUNDARY
 00147C 41F0 F004            00004 25736  3 1821.                    LA    R15,@R15+4              POINT TO NEXT IDAW
 001480 50EF 5070            00070 25737  3 1822.                    ST    R14,IOCBIDAW(R15)        AND THEN SET IN IDAW LIST
 001484                            25738  2 1823.                  END   ,
 001484 9180 1000      00000       25742  2 1824.                  IF    @RS.X'80',EXIT          ALL DONE
 001488 4710 A310            01498 25755  2          +
 00148C 4110 1008            00008 25761  2 1825.                  LA    RS,@RS+8                TO NEXT LIST ENTRY
 001490 41F0 F004            00004 25762  2 1826.                  LA    R15,@R15+4               AND NEXT IDAW
 001494 47F0 A2B4            0143C 25763  1 1827.                END   ,
 001498 1200/4780 A326       014AE 25768  1 1828.                IF    (RVR,NZ),'KAPUT FIOLEN'   DATA LENGTH ERROR
 00149E 4110 0001            00001 25785  2 03-KAPUT +*,THIS FUNCTION IS NOT IMPLEMENTED
 0014A2 4100 0080            00080 25791  2          +
 0014A6 8900 0018/1610       00018 25792  2          +
 0014AC 0A0D                       25794  1          +
 0014AE                            25799    1829.              END   ,
                                   25803    1830.     *
                                   25804    1831.     *  START THE ACTION
                                   25805    1832.     *
 DROP   @BCH-72,R13                25806    1833.              PSET  @SIO,CLEAR=NO
 USING  @SIO-72,R13
 0014AE 5050 D048            00000 25820    1834.              ST    RK,@SIOIOCB             SET IOCB POINTER
 0014B2 58F0 A3C4/0DEF       0154C 25821    1835.              ACALL STARTIO                 START IT GOING
 0014B8 981F C008            00008 25828    1836.              PEND
 DROP   CCW,R2
 DROP   IOSB,R4
 DROP   #FIODO,R6
 USING  #FIOCOM,R6
 DROP   IOCB,R5
 DROP   DDB,R3
 DROP   #FIOCOM,R6
 DROP   @IORB,R7
 DROP   @DOIO-72,R12
 DROP   FILEIO,R10
 0014BC 9680 C000/0B0E 00000       25885             +
 DROP   @SIO-72,R13
1IOSERV   (IOSE00) (09:40) (22MAR04) ORVYL'S File I/O Service Routines                                                      Page   90
0Loc    Object Code    Addr1 Addr2  Stmt Lv Lineno    Source Statement           (Hibal 5, Asmedit 3.3)  HLASM R4.0  2004/03/22 09.40
+___    ______ ____    _____ _____  ____ __ ______    ______ _________
00014C8                            25895    1838.              LTORG
 0014C8 000015DC                   25897                             =A(PAGEIO)
 0014CC 00000D5A                   25898                             =A(CRDDB)
 0014D0 000019BC                   25899                             =A(SWAPIO)
 0014D4 00001188                   25900                             =A(FILEIO)
 0014D8 00002C48                   25901                             =A(HSPIO)
 0014DC 00000DE0                   25902                             =A(CRHDB)
 0014E0 00000000                   25903                             =V(MEMGET)
 0014E4 C4C4C240                   25904                             =CL4'DDB'
 0014E8 00000000                   25905                             =V(LOCKOB)
 0014EC 00000000                   25906                             =V(LOCKREL)
 0014F0 C8C4C240                   25907                             =CL4'HDB'
 0014F4 D1C4C240                   25908                             =CL4'JDB'
 0014F8 000038C2                   25909                             =A(JESIO)
 0014FC E2C4C240                   25910                             =CL4'SDB'
 001500 000025C4                   25911                             =A(SCOMIO)
 001504 0000001C                   25912                             =A(IDEVMAX)
 001508 00000008                   25913                             =A(8)
 00150C 00000004                   25914                             =A(4)
 001510 C4C4C240                   25915                             =C'DDB '
 001514 C8C4C240                   25916                             =C'HDB '
 001518 00000008                   25917                             =AL4(#IOCLOSE)
 00151C 00000014                   25918                             =AL4(#IORESET)
 001520 00000008                   25919                             =AL4(#FCCLOSE)
 001524 00000000                   25920                             =V(MSGGBUF)
 001528 00000004                   25921                             =AL4(#FCOPEN)
 00152C 00000000                   25922                             =V(MSGSEND)
 001530 000021A2                   25923                             =A(GETIOCB)
 001534 0000000C                   25924                             =AL4(#FCREAD)
 001538 00000010                   25925                             =AL4(#FCWRITE)
 00153C 00002454                   25926                             =A(BLKCCHHR)
 001540 00000FFF                   25927                             =A(X'FFF')
 001544 00000800                   25928                             =A(2048)
 001548 7FFFF000                   25929                             =X'7FFFF000'
 00154C 00002534                   25930                             =A(STARTIO)
 001550 D6D9E5                     25931                             =C'ORV'
 001553 C4C240         015D0 06A98 25932                             =C'DB '
1IOSERV   (IOSE00) (09:40) (22MAR04) ORVYL'S Page I/O Service Routine                                                       Page   91
0Loc    Object Code    Addr1 Addr2  Stmt Lv Lineno    Source Statement           (Hibal 5, Asmedit 3.3)  HLASM R4.0  2004/03/22 09.40
+___    ______ ____    _____ _____  ____ __ ______    ______ _________
0                                  25938    1841.              COPY  PIOPARM
                                   25939             =*******************************************************************
                                   25940             =*                                                                 *
                                   25941             =*    PIOPARM - ORVYL Page System I/O request parameters           *
                                   25942             =*                                                                 *
                                   25943             =*******************************************************************
0                                  25945             =*
                                   25946             =* Prefix for every request
                                   25947             =*
 000000                00000 00004 25948             =#PIOCOM  RECORD BEGIN
 000000                            25956  1          =#PIOCMD    DS    A
                                   25957  1          =*
                                   25958  1          =* Page Device I/O command codes
                                   25959  1          =*
                                   25960  1          =#PCOPEN    EQU   4                       Open action code
                                   25961  1          =#PCCLOSE   EQU   8                       Close I/O code
                                   25962  1          =#PCREAD    EQU   12                      Read I/O code
                                   25963  1          =#PCWRITE   EQU   16                      Write I/O code
                                   25964  1          =#PCRESET   EQU   20                      Device reset code
 000004                00004 00004 25965             =         END   ,
-                                  25975             =*
                                   25976             =* Page Device Open request
                                   25977             =*
 000000                00000 0000C 25978             =#PIOOPEN RECORD BEGIN
 000000                            25986  1          =#PIOOCMD   DS    XL(L'#PIOCOM)
 000004                            25987  1          =#PIOALLO   DS    A                       Data set allocation info
 000008                            25988  1          =#PIOINFO   DS    A                       Data set info return area
 00000C                0000C 0000C 25989             =         END   ,
-                                  25999             =*
                                   26000             =* Page Device Close request
                                   26001             =*
 000000                00000 00004 26002             =#PICLOSE RECORD BEGIN
 000000                            26010  1          =#PIOCCMD   DS    XL(L'#PIOCOM)
 000004                00004 00004 26011             =         END   ,
-                                  26021             =*
                                   26022             =* Page Device Read/Write request
                                   26023             =*
 000000                00000 0000C 26024             =#PIODO   RECORD BEGIN
 000000                            26032  1          =#PIODCMD   DS    XL(L'#PIOCOM)
 000004                            26033  1          =#PIOBLK    DS    A                       Block number
 000008                            26034  1          =#PIOLOC    DS    A                       Page location (Guest real)
 00000C                0000C 0000C 26035             =         END   ,
-                                  26045             =*
                                   26046             =* Page Device Reset request
                                   26047             =*
 000000                00000 00004 26048             =#PIRESET RECORD BEGIN
 000000                            26056  1          =#PIOTCMD   DS    XL(L'#PIOCOM)
1IOSERV   (IOSE00) (09:40) (22MAR04) ORVYL'S Page I/O Service Routine                                                       Page   92
0Loc    Object Code    Addr1 Addr2  Stmt Lv Lineno    Source Statement           (Hibal 5, Asmedit 3.3)  HLASM R4.0  2004/03/22 09.40
+___    ______ ____    _____ _____  ____ __ ______    ______ _________
0000004                00004 00004 26057             =         END   ,
1IOSERV   (IOSE00) (09:40) (22MAR04) ORVYL'S Page I/O Service Routine                                                       Page   93
0Loc    Object Code    Addr1 Addr2  Stmt Lv Lineno    Source Statement           (Hibal 5, Asmedit 3.3)  HLASM R4.0  2004/03/22 09.40
+___    ______ ____    _____ _____  ____ __ ______    ______ _________
0                                  26067    1843.     *******************************************************************
                                   26068    1844.     *                                                                 *
                                   26069    1845.     *    PAGEWORK - PAGE I/O work area                                *
                                   26070    1846.     *                                                                 *
                                   26071    1847.     *******************************************************************
 000000                00000 00001 26072    1848.     PAGEWORK RECORD BEGIN
 000000                            26080  1 1849.     PAGECMD    DS    X                       CCW COMMAND SAVE
 000001                00001 00001 26081    1850.              END   ,
-
                                   26091    1852.     *******************************************************************
                                   26092    1853.     *                                                                 *
                                   26093    1854.     *    SKELETON PAGING CCWS                                         *
                                   26094    1855.     *                                                                 *
                                   26095    1856.     *******************************************************************
 00195C                0195C 06A98 26096    1857.              DATA  BEGIN
 00195C 00000000                          1
 001960 8B40000A00000000           26101  1 1858.     PCCWM21    CCW1  CCWSTPP,0,CCWCMDCH,10
                                   26102  1 1859.
 001968 2340000100000000           26103  1 1860.     PCCWSEC    CCW1  CCWSTSEC,0,CCWCMDCH,1
                                   26104  1 1861.
 001970 0740000600000000           26105  1 1862.     PCCWSK     CCW1  CCWSEEK,0,CCWCMDCH,6
 001978 1F40000100000000           26106  1 1863.                CCW1  CCWSFM,0,CCWCMDCH,1
                                   26107  1 1864.     PCCWPFX    EQU   PCCWSK,*-PCCWSK,C'X'
                                   26108  1 1865.
 001980 3140000500000000           26109  1 1866.     PCCWB      CCW1  CCWSIDEQ,0,CCWCMDCH,5
 001988 0800000000000000           26110  1 1867.                CCW1  CCWTIC,0,0,0
 001990 0600100000000000           26111  1 1868.                CCW1  CCWRD,0,0,4096
                                   26112  1 1869.     PCCWS      EQU   PCCWB,*-PCCWB,C'X'
                                   26113  1 1870.
 001998 6340001000000000           26114  1 1871.     PCCWPE     CCW1  CCWDEFEX,0,CCWCMDCH,16
 0019A0 4740001000000000           26115  1 1872.                CCW1  CCWLOCRC,0,CCWCMDCH,16
 0019A8 0600100000000000           26116  1 1873.                CCW1  CCWRD,0,0,4096
                                   26117  1 1874.     PCCWEXT    EQU   PCCWPE,*-PCCWPE,C'X'
 0015D0                015D0 06A98 26118    1875.              END   ,
1IOSERV   (IOSE00) (09:40) (22MAR04) ORVYL'S Page I/O Service Routine                                                       Page   94
0Loc    Object Code    Addr1 Addr2  Stmt Lv Lineno    Source Statement           (Hibal 5, Asmedit 3.3)  HLASM R4.0  2004/03/22 09.40
+___    ______ ____    _____ _____  ____ __ ______    ______ _________
0                                  26125    1877.     *******************************************************************
                                   26126    1878.     *                                                                 *
                                   26127    1879.     *   PAGEIO  - ORVYL Demand Page I/O Driver                        *
                                   26128    1880.     *                                                                 *
                                   26129    1881.     *                                                                 *
                                   26130    1882.     *     Input - #PIO                                                *
                                   26131    1883.     *                                                                 *
                                   26132    1884.     *    Output - None                                                *
                                   26133    1885.     *                                                                 *
                                   26134    1886.     *                                                                 *
                                   26135    1887.     *******************************************************************
-
 0015D0                            26137    1889.     PAGEIO   PROC  @DOIO,PAGEWORK,SCOPE=LOCAL
 0015D0 D7C1C7C5C9D64040           26142             +
 0015D8 0010/0008                  26143             +
 0015DC 900F D004/18AF       00004 26145             +
 USING  PAGEIO,R10
 0015E2 50D0 C000/18CD       00000 26160             +
 0015E8 9680 C000      00000       26162             +
 USING  @DOIO-72,R12
 AUSING (PAGEWORK,@DOIO+16)
 0015EC 41D0 C060            00060 26181             +
 0015F0 5870 C050            00008 26182    1890.              L     RY,@DOIORB              INTERFACE PARAMETERS
 USING  @IORB,R7                   26183    1891.              WITH  (@IORB,RY)
 0015F4 5860 C048            00000 26196    1892.              L     RX,@DOUPRM              USER PARAMETERS
 USING  #PIOCOM,R6                 26197    1893.              WITH  (#PIOCOM,RX)
 0015F8 5830 C04C            00004 26210    1894.              L     RB,@DODSID             DDB POINTER
 USING  DDB,R3                     26211    1895.              WITH  (DDB,RB)
 AUSING (COMDB,DDB)                26224    1896.              WITH  (COMDB,DDB),'CLC  COMDBID,=CL4"DDB"'
 0015FC D503 3000 A34C 00000 01928 26235             +
 001602 4780 A03A            01616 26239    1897.              IF    NE,'KAPUT PDBPTR'
 001606 4110 0001            00001 26258  1          +
 00160A 4100 0080            00080 26259  1          +
 00160E 8900 0018/1610       00018 26260  1          +
 001614 0A0D                       26262             +
1IOSERV   (IOSE00) (09:40) (22MAR04) ORVYL'S Page I/O Service Routine                                                       Page   95
0Current Usings:  (DDB,R3) (#PIOCOM,R6) (@IORB,R7) (PAGEIO,R10) (@DOIO-72,R12)
0Loc    Object Code    Addr1 Addr2  Stmt Lv Lineno    Source Statement           (Hibal 5, Asmedit 3.3)  HLASM R4.0  2004/03/22 09.40
+___    ______ ____    _____ _____  ____ __ ______    ______ _________
0                                  26268    1899.     *
                                   26269    1900.     *  PROCESS OPEN, CLOSE AND RESET
                                   26270    1901.     *
 001616                            26271    1902.              IF    ((#PIOCMD,NE,#PCREAD),AND,(#PIOCMD,NE,#PCWRITE)),BEGIN
 001616 D503 A350 6000 0192C 00000 26285             +
 00161C 4780 A142            0171E 26286             +
 001620 D503 A354 6000 01930 00000 26300             +
 001626 4780 A142            0171E 26301             +
 00162A                            26306  1 1903.                IF    (#PIOCMD,EQ,#PCRESET),BEGIN
 00162A D503 A358 6000 01934 00000 26318  1          +
 001630 4770 A06C            01648 26319  1          +
 USING  @PSRESET-72,R13            26324  2 1904.                  PSET  @PSRESET
 001634 D703 D048 D048 00000 00000 26341  2          +
 00163A 5030 D048            00000 26342  2 1905.                  ST    RB,@PSRDDB              DDB POINTER
 00163E 41F0 A9C8/0DEF       01FA4 26343  2 1906.                  LCALL PSRESET
 001644 47F0 A33E            0191A 26352  2 1907.                  EXIT  PAGEIO
 001648                            26355  1 1908.                END   ,
                                   26359  1 1909.     *
                                   26360  1 1910.     *  SEND REQUEST TO SUBTASK
                                   26361  1 1911.     *
 001648 5840 90A8            000A8 26362  1 1912.                WITH  (RTCB,RTCBR),'L  RJ,RTCBIOT'   IOT POINTER
 USING  RTCB,R9
 DROP   RTCB,R9
 USING  IOT,R4                     26386  1 1913.                WITH  (IOT,RJ)
 00164C 5800 4010            00010 26399  1 1914.                MSGGBUF IOTMTMC,L'$MVIPSFO
 DROP   @PSRESET-72,R13
 USING  @MSGGBUF-72,R13
 001650 5000 D048            00000 26418  1          +
 001654 4100 0018            00018 26425  1          +
 001658 5000 D04C            00004 26426  1          +
 00165C 58F0 A35C/0DEF       01938 26429  1          +
 001662 1850                       26431  1 1915.                LR    RK,RVR                  MESSAGE BUFFER
 USING  $MVIOCOM,R5                26432  1 1916.                WITH  ($MVIOCOM,RK)
 001664 5030 5000            00000 26445  1 1917.                ST    RB,$MVIDSID             SET DEVICE ID
 001668 D203 5004 7000 00004 00000 26446  1 1918.                MVC   $MVIRQID,@IORRQID       Request ID
 00166E D203 5008 7004 00008 00004 26447  1 1919.                MVC   $MVIOFF,@IOROFF         Offset (guest real to MVS)
1IOSERV   (IOSE00) (09:40) (22MAR04) ORVYL'S Page I/O Service Routine                                                       Page   96
0Current Usings:  (DDB,R3) (IOT,R4) ($MVIOCOM,R5) (#PIOCOM,R6) (@IORB,R7) (PAGEIO,R10) (@DOIO-72,R12) (@MSGGBUF-72,R13)
0Loc    Object Code    Addr1 Addr2  Stmt Lv Lineno    Source Statement           (Hibal 5, Asmedit 3.3)  HLASM R4.0  2004/03/22 09.40
+___    ______ ____    _____ _____  ____ __ ______    ______ _________
0                                  26449  1 1921.     *
                                   26450  1 1922.     *  OPEN REQUEST - PROVIDE PARAMETER ADDRESS
                                   26451  1 1923.     *
 001674                            26452  1 1924.                IF    (#PIOCMD,EQ,#PCOPEN),BEGIN
 001674 D503 A360 6000 0193C 00000 26464  1          +
 00167A 4770 A0BE            0169A 26465  1          +
 DROP   #PIOCOM,R6                 26470  2 1925.                  WITH  (#PIOOPEN,RX)           USER PARM
 USING  #PIOOPEN,R6
 DROP   $MVIOCOM,R5                26486  2 1926.                  WITH  ($MVIPSFO,RK)
 USING  $MVIPSFO,R5
 00167E 5810 6004            00004 26502  2 1927.                  L     RS,#PIOALLO             ALLOCATION PARAMETERS
 001682 5E10 7004            00004 26503  2 1928.                  AL    RS,@IOROFF               TO MVS VIRTUAL
 001686 5010 5010            00010 26504  2 1929.                  ST    RS,$MPFALLO             TO MESSAGE BUFFER
 00168A 5810 6008            00008 26505  2 1930.                  L     RS,#PIOINFO             INFO RETURN AREA
 00168E 5E10 7004            00004 26506  2 1931.                  AL    RS,@IOROFF               TO MVS VIRTUAL
 001692 5010 5014            00014 26507  2 1932.                  ST    RS,$MPFINFO             TO MESSAGE BUFFER
 001696 4110 0004            00004 26508  2 1933.                  LA    RS,$MVIFPFO             NOTE OPEN REQUEST
 DROP   $MVIPSFO,R5                26509  1 1934.                END
 USING  $MVIOCOM,R5
 DROP   #PIOOPEN,R6
 USING  #PIOCOM,R6
                                   26537  1 1935.     *
                                   26538  1 1936.     *  MUST BE A CLOSE REQUEST
                                   26539  1 1937.     *
 00169A A0C2           0169A 0167C 26540  1 1938.                ELSE  BEGIN
 00169A 47F0 A0E0            016BC 26545  1          +
 00169E                            26551  2 1939.                  IF    (#PIOCMD,NE,#PCCLOSE),'KAPUT PFOCODE'
 00169E D503 A364 6000 01940 00000 26563  2          +
 0016A4 4780 A0DC            016B8 26564  2          +
 0016A8 4110 0001            00001 26577  3          +
 0016AC 4100 0080            00080 26578  3          +
 0016B0 8900 0018/1610       00018 26579  3          +
 0016B6 0A0D                       26581  2          +
 0016B8 4110 0008            00008 26586  2 1940.                  LA    RS,$MVIFPFC             CLOSE REQUEST
 0016BC                            26587  1 1941.                END
                                   26591  1 1942.     *
                                   26592  1 1943.     *  SEND REQUEST TO SUB TASK
                                   26593  1 1944.     *
 0016BC 5010 500C            0000C 26594  1 1945.                ST    RS,$MVIFUNC             SET FUNCTION CODE
 0016C0 5800 4010            00010 26595  1 1946.                MSGSEND IOTMTMC,(RK)
 DROP   @MSGGBUF-72,R13
 USING  @MSGSEND-72,R13
 0016C4 5000 D048/1805       00000 26614  1          +
 0016CA 5000 D04C            00004 26620  1          +
 0016CE D703 D058 D058 00010 00010 26627  1          +
 0016D4 58F0 A368/0DEF       01944 26630  1          +
                                   26632  1 1947.   C            IF    ((#PIOCMD,EQ,#PCCLOSE),AND,('LT RB,DDBHDB',NZ)),
 0016DA                                   1 1948.                      BEGIN                   IF CLOSING HIPERSPACED PAGE DS
 0016DA D503 A364 6000 01940 00000 26646  1          +
 0016E0 4770 A13C            01718 26647  1          +
 0016E4 5830 30A4/1233       000A4 26658  1          +
 0016EA 4780 A13C            01718 26660  1          +
 DROP   DDB,R3                     26665  2 1949.                  WITH  (HDB,RB)
 USING  HDB,R3
1IOSERV   (IOSE00) (09:40) (22MAR04) ORVYL'S Page I/O Service Routine                                                       Page   97
0Current Usings:  (HDB,R3) (IOT,R4) ($MVIOCOM,R5) (#PIOCOM,R6) (@IORB,R7) (PAGEIO,R10) (@DOIO-72,R12) (@MSGSEND-72,R13)
0Loc    Object Code    Addr1 Addr2  Stmt Lv Lineno    Source Statement           (Hibal 5, Asmedit 3.3)  HLASM R4.0  2004/03/22 09.40
+___    ______ ____    _____ _____  ____ __ ______    ______ _________
00016EE 9108 3028      00028       26681  2 1950.                  IF    (HDBFLG.HDBOPEN),BEGIN  IF HIPERSPACE HAS BEEN OPENED
 0016F2 47E0 A13C            01718 26691  2          +
                                   26696  3 1951.     *** TEST CODE ***
 0016F6 0700/0ADE                  26697  3 1952.                    QSNAP HDB,L'HDB-1
 0016FA 086300003000               26700  3          +
                                   26701  3 1953.     *** END OF TEST CODE ***
 DROP   @MSGSEND-72,R13            26702  3 1954.                    PSET  @DOHSPC
 USING  @DOHSPC-72,R13
 001700 D70F D048 D048 00000 00000 26722  3          +
 001706 5030 D04C            00004 26723  3 1955.                    ST    RB,@DOHSHDB             HDB pointer
 00170A 5060 D048            00000 26724  3 1956.                    ST    RX,@DOHSPRM             User parm addr
 00170E 5070 D050            00008 26725  3 1957.                    ST    RY,@DOHSIRB             IORB Pointer
 001712 58F0 A36C/0DEF       01948 26726  3 1958.                    ACALL HSCLOSE                 CALL CLOSE FUNCTION
 001718                            26733  2 1959.                  END   ,                    OF IF HIPERSPACE HAS BEEN OPENED
 DROP   HDB,R3                     26737  1 1960.                END   ,                    OF IF CLOSING HIPERSPACED PAGE DS
 USING  DDB,R3
 001718 1B00                       26753  1 1961.                CLEAR RVR                     SET CONDITION CODE
 00171A 47F0 A33E            0191A 26757  1 1962.                EXIT  PAGEIO                  DONE
 DROP   $MVIOCOM,R5                26760    1963.              END   ,
 DROP   IOT,R4
1IOSERV   (IOSE00) (09:40) (22MAR04) ORVYL'S Page I/O Service Routine                                                       Page   98
0Current Usings:  (DDB,R3) (#PIOCOM,R6) (@IORB,R7) (PAGEIO,R10) (@DOIO-72,R12) (@DOHSPC-72,R13)
0Loc    Object Code    Addr1 Addr2  Stmt Lv Lineno    Source Statement           (Hibal 5, Asmedit 3.3)  HLASM R4.0  2004/03/22 09.40
+___    ______ ____    _____ _____  ____ __ ______    ______ _________
0                                  26775    1965.     *
                                   26776    1966.     *  SET UP IOCB
                                   26777    1967.     *
 00171E 58F0 A370/0DEF       0194C 26778    1968.              ACALL GETIOCB                 GET AN I/O CONTROL BLOCK
 001724 1850                       26785    1969.              LR    RK,RVR
 USING  IOCB,R5                    26786    1970.              WITH  (IOCB,RK)
 001726 5030 5014            00014 26799    1971.              ST    RB,IOCBDDB              SET DDB POINTER
 00172A D203 5010 7000 00010 00000 26800    1972.              MVC   IOCBRQID,@IORRQID        AND REQUEST ID
                                   26801    1973.     *
                                   26802    1974.     *  SET IO KEY AND INCREMENT I/O COUNT
                                   26803    1975.     *
 001730                            26804    1976.              IF    (#PIOCMD,EQ,#PCREAD),BEGIN   FOR PAGE READS
 001730 D503 A350 6000 0192C 00000 26816             +
 001736 4770 A18A            01766 26817             +
 00173A 9500 7010      00010       26822  1 1977.                IF    (@IORKEY,Z),'KAPUT PIOKEY'
 00173E 4770 A176            01752 26833  1          +
 001742 4110 0001            00001 26846  2          +
 001746 4100 0080            00080 26847  2          +
 00174A 8900 0018/1610       00018 26848  2          +
 001750 0A0D                       26850  1          +
 001752 4110 0001            00001 26855  1 1978.                INCR  RS,DDBRDCT              INCREMENT READ COUNT
 001756 5E10 301C            0001C 26859  1          +
 00175A 5010 301C            0001C 26860  1          +
 00175E 9206 C058      00000       26861  1 1979.                MVI   PAGECMD,CCWRD           SET CCW COMMAND
 001762 9206 5090      00090       26862  1 1980.                MVI   IOCBLCRD,X'06'          SET READ IN LOCATE RECORD
 001766 A18E           01766 01738 26863    1981.              END   ELSE,BEGIN
 001766 47F0 A1C0            0179C 26872             +
 00176A                            26878  1 1982.                IF    (#PIOCMD,NE,#PCWRITE),'KAPUT PIOTYPE'
 00176A D503 A354 6000 01930 00000 26890  1          +
 001770 4780 A1A8            01784 26891  1          +
 001774 4110 0001            00001 26904  2          +
 001778 4100 0080            00080 26905  2          +
 00177C 8900 0018/1610       00018 26906  2          +
 001782 0A0D                       26908  1          +
 001784 9200 7010      00010       26913  1 1983.                CLEAR @IORKEY
 001788 4110 0001            00001 26920  1 1984.                INCR  RS,DDBWRCT              INCREMENT WRITE COUNT
 00178C 5E10 3020            00020 26924  1          +
 001790 5010 3020            00020 26925  1          +
 001794 9205 C058      00000       26926  1 1985.                MVI   PAGECMD,CCWWD           SET CCW COMMAND
 001798 9201 5090      00090       26927  1 1986.                MVI   IOCBLCRD,X'01'          SET WRITE IN LOCATE RECORD
 00179C                            26928    1987.              END   ,
1IOSERV   (IOSE00) (09:40) (22MAR04) ORVYL'S Page I/O Service Routine                                                       Page   99
0Current Usings:  (DDB,R3) (IOCB,R5) (#PIOCOM,R6) (@IORB,R7) (PAGEIO,R10) (@DOIO-72,R12) (@DOHSPC-72,R13)
0Loc    Object Code    Addr1 Addr2  Stmt Lv Lineno    Source Statement           (Hibal 5, Asmedit 3.3)  HLASM R4.0  2004/03/22 09.40
+___    ______ ____    _____ _____  ____ __ ______    ______ _________
0                                  26933    1989.     *
                                   26934    1990.     *  CALCULATE TRACK ADDRESS
                                   26935    1991.     *
 DROP   #PIOCOM,R6                 26936    1992.              WITH  (#PIODO,RX)
 USING  #PIODO,R6
 DROP   @DOHSPC-72,R13             26952    1993.              PSET  @BCH
 USING  @BCH-72,R13
 00179C D710 D048 D048 00000 00000 26972             +
 0017A2 5030 D048            00000 26973    1994.              ST    RB,@BCHDSID             SET DATA SET ID
 0017A6 D203 D04C 6004 00004 00004 26974    1995.              MVC   @BCHBLK,#PIOBLK          AND BLOCK NUMBER
 0017AC 58F0 A374/0DEF       01950 26975    1996.              ACALL BLKCCHHR                CONVERT TO DISK ADDRESS
 0017B2 D200 50AC D050 000AC 00008 26982    1997.              MVC   IOCBSECT,@BCHSECT       GET SECTOR
                                   26983    1998.     *
                                   26984    1999.     *  SET UP IOSB
                                   26985    2000.     *
 0017B8 4140 50DC            000DC 26986    2001.              LA    RJ,IOCBIOSB             IOSB POINTER
 USING  IOSB,R4                    26987    2002.              WITH  (IOSB,RJ)
 0017BC D207 405C D051 0005C 00009 27000    2003.              MVC   IOSEEK,@BCHSEEK         SET SEEK ADDRESS
 0017C2 D207 4064 D051 00064 00009 27001    2004.              MVC   IOSEEKA,@BCHSEEK        SET SEEK ADDRESS
 0017C8 D200 4059 7010 00059 00010 27002    2005.              MVC   IOSCKEY,@IORKEY         SET CCW AREA KEY
 0017CE 4120 5038            00038 27003    2006.              LA    RA,IOCBCCW              CCW AREA
                                   27004    2007.     *
                                   27005    2008.     *  DEVICE SUPPORTS EXTENDED CKD COMMANDS
                                   27006    2009.     *
 0017D2 91C0 3092      00092       27007    2010.              IF    DDBFEAT.DCEDEFLR,BEGIN
 0017D6 47E0 A258            01834 27018             +
 0017DA D203 4010 3078 00010 00078 27023  1 2011.                MVC   IOSUCB,DDBUCB           UCB POINTER
 USING  CCW,R2                     27024  1 2012.                WITH  (CCW,RA)
 0017E0 D217 2000 A3BC 00000 01998 27037  1 2013.                MVC   CCW(L'PCCWEXT),PCCWEXT  SKELETON CCWS
                                   27038  1 2014.     *
                                   27039  1 2015.     *  BUILD DEFINE EXTENT CCW AND PARAMETER
                                   27040  1 2016.     *
 0017E6 B110 5080            00080 27041  1 2017.                LRA   RS,IOCBDEXD             DEFINE EXTENT AREA
 0017EA 5010 2004            00004 27042  1 2018.                ST    RS,CCWADDR              SET CCW
 0017EE 4120 2008            00008 27043  1 2019.                LA    RA,CCW+L'CCW            TO NEXT CCW AREA
                                   27044  1 2020.     *         IF    DDBFEAT.DCECACHE,'SET  IOCBDEXD+1.X"08"'  MOD 23
 0017F2 D201 5082 3098 00082 00098 27045  1 2021.                MVC   IOCBDEXD+2(2),DDBBLKSZ  BLOCK SIZE
 0017F8 5810 3010            00010 27046  1 2022.                L     RS,DDBDEB               DEB
 0017FC 4110 1020            00044 27047  1 2023.                WITH  (DEBBASIC,RS),'LA  RS,DEBBASND'  POINT AT EXTENT TABLE
 USING  DEBBASIC,R1
 DROP   DEBBASIC,R1
 USING  DEBDASD,R1                 27071  1 2024.                WITH  (DEBDASD,RS)
 001800 D207 5088 1006 00088 00006 27084  1 2025.                MVC   IOCBDEXD+8(8),DEBSTRCC    SET EXTENT CCHH/CCHH
 DROP   DEBDASD,R1                 27085  1 2026.                DROP  RS
1IOSERV   (IOSE00) (09:40) (22MAR04) ORVYL'S Page I/O Service Routine                                                       Page  100
0Current Usings:  (CCW,R2) (DDB,R3) (IOSB,R4) (IOCB,R5) (#PIODO,R6) (@IORB,R7) (PAGEIO,R10) (@DOIO-72,R12) (@BCH-72,R13)
0Loc    Object Code    Addr1 Addr2  Stmt Lv Lineno    Source Statement           (Hibal 5, Asmedit 3.3)  HLASM R4.0  2004/03/22 09.40
+___    ______ ____    _____ _____  ____ __ ______    ______ _________
0                                  27093  1 2028.     *
                                   27094  1 2029.     *  BUILD LOCATE RECORD CCW AND PARAMETER
                                   27095  1 2030.     *
 001806 B110 5090            00090 27096  1 2031.                LRA   RS,IOCBLCRD             LOCATE RECORD AREA
 00180A 5010 2004            00004 27097  1 2032.                ST    RS,CCWADDR              SET CCW
 00180E 4120 2008            00008 27098  1 2033.                LA    RA,CCW+L'CCW            TO NEXT CCW AREA
 001812 9201 5093      00093       27099  1 2034.                MVI   IOCBLCRD+3,1            SET NUMBER OF PAGES
 001816 D203 5094 405F 00094 0005F 27100  1 2035.                MVC   IOCBLCRD+4(4),IOSEEK+3  SET CCHH
 00181C D204 5098 405F 00098 0005F 27101  1 2036.                MVC   IOCBLCRD+8(5),IOSEEK+3  SET CCHHR ALSO
 001822 D200 509D 50AC 0009D 000AC 27102  1 2037.                MVC   IOCBLCRD+13(1),IOCBSECT  COPY SECTOR
                                   27103  1 2038.     *
                                   27104  1 2039.     *  FIX CCW COMMAND CODE
                                   27105  1 2040.     *
 001828 9505 C058      00000       27106  1 2041.                IF    (PAGECMD,EQ,CCWWD),BEGIN
 00182C 4770 A258            01834 27119  1          +
 001830 9285 C058      00000       27124  2 2042.                  MVI   PAGECMD,CCWWU           CHANGE TO WRITE UPDATE
 001834                            27125  1 2043.                END   ,
 DROP   CCW,R2                     27129    2044.              END
                                   27140    2045.     *
                                   27141    2046.     *  CACHED PAGING DEVICE - FIRST CREATE SET PAGE PARAMETER CCW
                                   27142    2047.     *
 001834 A25C           01834 017D8 27143    2048.              ELSE  BEGIN
 001834 47F0 A30A            018E6 27148             +
 001838 9120 3092      00092       27154  1 2049.                IF    DDBFEAT.DCEPAGES,BEGIN
 00183C 47E0 A2AA            01886 27165  1          +
 USING  CCW,R2                     27170  2 2050.                  WITH  (CCW,RA)
 001840 D207 2000 A384 00000 01960 27183  2 2051.                  MVC   CCW,PCCWM21             SKELETON CCW
 001846 B110 50A0            000A0 27184  2 2052.                  LRA   RS,IOCBPDAT             PAGE PARAMETER AREA
 00184A 5010 2004            00004 27185  2 2053.                  ST    RS,CCWADDR              SET CCW
 00184E 4120 2008            00008 27186  2 2054.                  LA    RA,CCW+L'CCW            TO NEXT CCW AREA
 001852 D203 50A6 405F 000A6 0005F 27187  2 2055.                  MVC   IOCBPDAT+6(4),IOSEEK+3  SET CCHH IN PAGE PARAMETERS
 001858 9200 50A0      000A0       27188  2 2056.                  SET   (IOCBPDAT.X'00',EQ)     CLEAR FLAGS
 00185C 9200 50A1      000A1       27196  2 2057.                  MVI   IOCBPDAT+1,0             AND NUMBER OF PAGES
                                   27197  2 2058.     *
                                   27198  2 2059.     *  SELECT NEXT EXPOSURE IN ROUND ROBIN
                                   27199  2 2060.     *
 001860 5810 3088            00088 27200  2 2061.                  L     RS,DDBCUNXT             NEXT EXPOSURE INDEX
 001864                            27201  2 2062.                  LOOP  BEGIN
 001864 41F0 1004            00004 27207  3 2063.                    LA    R15,@RS+4                UPDATE
 001868 59F0 A378            01954 27208  3 2064.                    IF    (R15,GT,8),'CLEAR  R15'  RECYCLE
 00186C 47D0 A296/1BFF       01872 27220  3          +
 001872 BA1F 3088            00088 27234  3 2065.                    CS    RS,R15,DDBCUNXT          AND REPLACE INDEX
 001876 4770 A288            01864 27235  2 2066.                  UNTIL Z,END
 00187A 5811 307C            0007C 27254  2 2067.                  L     RS,DDBCUCBS(RS)         GET UCB ADDRESS
 00187E 5010 4010            00010 27255  2 2068.                  ST    RS,IOSUCB                FOR IOSB
 001882 9610 4002      00002       27256  2 2069.                  SET   IOSFLC.IOSEXP           NOTE SPECIFIC EXPOSURE
 DROP   CCW,R2                     27263  1 2070.                END   ,
1IOSERV   (IOSE00) (09:40) (22MAR04) ORVYL'S Page I/O Service Routine                                                       Page  101
0Current Usings:  (DDB,R3) (IOSB,R4) (IOCB,R5) (#PIODO,R6) (@IORB,R7) (PAGEIO,R10) (@DOIO-72,R12) (@BCH-72,R13)
0Loc    Object Code    Addr1 Addr2  Stmt Lv Lineno    Source Statement           (Hibal 5, Asmedit 3.3)  HLASM R4.0  2004/03/22 09.40
+___    ______ ____    _____ _____  ____ __ ______    ______ _________
0                                  27273  1 2072.     *
                                   27274  1 2073.     *  STANDARD DISK/DRUM DEVICE - BUILD SEEK CCW
                                   27275  1 2074.     *
 001886 A2AE           01886 0183E 27276  1 2075.                ELSE  BEGIN
 001886 47F0 A2EC            018C8 27281  1          +
 USING  CCW,R2                     27287  2 2076.                  WITH  (CCW,RA)
 00188A D20F 2000 A394 00000 01970 27300  2 2077.                  MVC   CCW(L'PCCWPFX),PCCWPFX  SKELETON CCWS
 001890 B110 405D            0005D 27301  2 2078.                  LRA   RS,IOSEEK+1             SEEK ARGUMENT
 001894 5010 2004            00004 27302  2 2079.                  ST    RS,CCWADDR              SET IN CCW
 001898 4120 2008            00008 27303  2 2080.                  LA    RA,CCW+L'CCW            TO NEXT CCW AREA
                                   27304  2 2081.     *
                                   27305  2 2082.     *  BUILD SET FILE MASK CCW
                                   27306  2 2083.     *
 00189C B110 50AD            000AD 27307  2 2084.                  LRA   RS,IOCBFM               SEEK ARGUMENT
 0018A0 5010 2004            00004 27308  2 2085.                  ST    RS,CCWADDR              SET IN CCW
 0018A4 4120 2008            00008 27309  2 2086.                  LA    RA,CCW+L'CCW            TO NEXT CCW AREA
                                   27310  2 2087.     *
                                   27311  2 2088.     *  BUILD SET SECTOR CCW - IF NECESSARY
                                   27312  2 2089.     *
 0018A8 9500 50AC      000AC       27313  2 2090.                  IF    (IOCBSECT,NZ),BEGIN
 0018AC 4780 A2E6            018C2 27324  2          +
 0018B0 D207 2000 A38C 00000 01968 27329  3 2091.                    MVC   CCW,PCCWSEC             SKELETON CCW
 0018B6 B110 50AC            000AC 27330  3 2092.                    LRA   RS,IOCBSECT             SECTOR AREA
 0018BA 5010 2004            00004 27331  3 2093.                    ST    RS,CCWADDR              SET IN CCW
 0018BE 4120 2008            00008 27332  3 2094.                    LA    RA,CCW+L'CCW            TO NEXT CCW AREA
 0018C2                            27333  2 2095.                  END   ,
 0018C2 D203 4010 3078 00010 00078 27337  2 2096.                  MVC   IOSUCB,DDBUCB           UCB POINTER
 DROP   CCW,R2                     27338  1 2097.                END   ,
                                   27347  1 2098.     *
                                   27348  1 2099.     *  SET UP STANDARD CCWS
                                   27349  1 2100.     *
 0018C8 D217 2000 A3A4 00000 01980 27350  1 2101.                MVC   @RA(L'PCCWS),PCCWS      PAGE CCW SKELETONS
 USING  CCW,R2                     27351  1 2102.                WITH  (CCW,RA)
                                   27364  1 2103.     *
                                   27365  1 2104.     *  SET UP SEARCH ID CCW
                                   27366  1 2105.     *
 0018CE B110 405F            0005F 27367  1 2106.                LRA   RS,IOSEEK+3             SEARCH ARGUMENT
 0018D2 5010 2004            00004 27368  1 2107.                ST    RS,CCWADDR               TO CCW
                                   27369  1 2108.     *
                                   27370  1 2109.     *  SET UP TIC CCW
                                   27371  1 2110.     *
 0018D6 B110 2000            00000 27372  1 2111.                LRA   RS,CCW                  ADDRESS FOR TIC
 0018DA 4120 2008            00008 27373  1 2112.                LA    RA,CCW+L'CCW            TO NEXT CCW AREA
 0018DE 5010 2004            00004 27374  1 2113.                ST    RS,CCWADDR               ADDRESS TO CCW
 0018E2 4120 2008            00008 27375  1 2114.                LA    RA,CCW+L'CCW            CCW LOCATION
 DROP   CCW,R2                     27376    2115.              END   ,
1IOSERV   (IOSE00) (09:40) (22MAR04) ORVYL'S Page I/O Service Routine                                                       Page  102
0Current Usings:  (DDB,R3) (IOSB,R4) (IOCB,R5) (#PIODO,R6) (@IORB,R7) (PAGEIO,R10) (@DOIO-72,R12) (@BCH-72,R13)
0Loc    Object Code    Addr1 Addr2  Stmt Lv Lineno    Source Statement           (Hibal 5, Asmedit 3.3)  HLASM R4.0  2004/03/22 09.40
+___    ______ ____    _____ _____  ____ __ ______    ______ _________
0                                  27386    2117.     *
                                   27387    2118.     *  SET UP READ/WRITE DATA CCW
                                   27388    2119.     *
 USING  CCW,R2                     27389    2120.              WITH  (CCW,RA),BEGIN
 0018E6 D200 2000 C058 00000 00000 27403  1 2121.                MVC   CCWCMD,PAGECMD          SET READ OR WRITE
 0018EC 58F0 6008            00008 27404  1 2122.                L     R15,#PIOLOC             DATA LOCATION
 0018F0 5EF0 7004            00004 27405  1 2123.                AL    R15,@IOROFF              TO MVS VIRTUAL
 0018F4 B1F0 F000            00000 27406  1 2124.                LRA   R15,@R15                THEN CONVERT TO REAL
 0018F8 4780 A330            0190C 27407  1 2125.                IF    NZ,'KAPUT PIONFIX'
 0018FC 4110 0001            00001 27426  2          +
 001900 4100 0080            00080 27427  2          +
 001904 8900 0018/1610       00018 27428  2          +
 00190A 0A0D                       27430  1          +
 00190C 50F0 2004            00004 27435  1 2126.                ST    R15,CCWADDR             TO THE CCW
 DROP   CCW,R2                     27436    2127.              END
                                   27444    2128.     *
                                   27445    2129.     *  START THE ACTION
                                   27446    2130.     *
 DROP   @BCH-72,R13                27447    2131.              PSET  @SIO,CLEAR=NO
 USING  @SIO-72,R13
 001910 5050 D048            00000 27461    2132.              ST    RK,@SIOIOCB             SET IOCB POINTER
 001914 58F0 A37C/0DEF       01958 27462    2133.              ACALL STARTIO                 START IT GOING
 00191A 981F C008            00008 27469    2134.              PEND
 DROP   IOSB,R4
 DROP   #PIODO,R6
 USING  #PIOCOM,R6
 DROP   IOCB,R5
 DROP   DDB,R3
 DROP   #PIOCOM,R6
 DROP   @IORB,R7
 DROP   @DOIO-72,R12
 DROP   PAGEIO,R10
 00191E 9680 C000/0B0E 00000       27521             +
 DROP   @SIO-72,R13
 001928                            27530    2135.              LTORG
 001928 C4C4C240                   27532                             =CL4'DDB'
 00192C 0000000C                   27533                             =AL4(#PCREAD)
 001930 00000010                   27534                             =AL4(#PCWRITE)
 001934 00000014                   27535                             =AL4(#PCRESET)
 001938 00000000                   27536                             =V(MSGGBUF)
 00193C 00000004                   27537                             =AL4(#PCOPEN)
 001940 00000008                   27538                             =AL4(#PCCLOSE)
 001944 00000000                   27539                             =V(MSGSEND)
 001948 00003204                   27540                             =A(HSCLOSE)
 00194C 000021A2                   27541                             =A(GETIOCB)
 001950 00002454                   27542                             =A(BLKCCHHR)
 001954 00000008                   27543                             =A(8)
 001958 00002534       019B0 06A98 27544                             =A(STARTIO)
1IOSERV   (IOSE00) (09:40) (22MAR04) ORVYL'S Swap I/O Service Routines                                                      Page  103
0Loc    Object Code    Addr1 Addr2  Stmt Lv Lineno    Source Statement           (Hibal 5, Asmedit 3.3)  HLASM R4.0  2004/03/22 09.40
+___    ______ ____    _____ _____  ____ __ ______    ______ _________
0                                  27550    2138.              COPY  SWAPPARM
                                   27551             =*******************************************************************
                                   27552             =*                                                                 *
                                   27553             =*    SWAPPARM - ORVYL Swap System I/O request parameters           *
                                   27554             =*                                                                 *
                                   27555             =*******************************************************************
0                                  27557             =*
                                   27558             =* Prefix for every request
                                   27559             =*
 000000                00000 00004 27560             =#SWAPCOM RECORD BEGIN
 000000                            27568  1          =#SWAPCMD   DS    A
                                   27569  1          =*
                                   27570  1          =* Swap Device I/O command codes
                                   27571  1          =*
                                   27572  1          =#SWCOPEN   EQU   4                       Open action code
                                   27573  1          =#SWCCLOS   EQU   8                       Close I/O code
                                   27574  1          =#SWCREAD   EQU   12                      Read I/O code
                                   27575  1          =#SWCWRIT   EQU   16                      Write I/O code
                                   27576  1          =#SWCRSET   EQU   20                      Reset I/O code
 000004                00004 00004 27577             =         END   ,
-                                  27587             =*
                                   27588             =* Swap Device Open request
                                   27589             =*
 000000                00000 0000C 27590             =#SWPOPEN RECORD BEGIN
 000000                            27598  1          =#SWPOCMD   DS    XL(L'#SWAPCOM)
 000004                            27599  1          =#SWPALLO   DS    A                       Data set allocation info
 000008                            27600  1          =#SWPINFO   DS    A                       Data set info return area
 00000C                0000C 0000C 27601             =         END   ,
-                                  27611             =*
                                   27612             =* Swap Device Close request
                                   27613             =*
 000000                00000 00004 27614             =#SWPCLOS RECORD BEGIN
 000000                            27622  1          =#SWPCCMD   DS    XL(L'#SWAPCOM)
 000004                00004 00004 27623             =         END   ,
-                                  27633             =*
                                   27634             =* Swap Device Read/Write request
                                   27635             =*
 000000                00000 0000E 27636             =#SWPDO   RECORD BEGIN
 000000                            27644  1          =#SWPDCMD   DS    XL(L'#SWAPCOM)
 000004                            27645  1          =#SWPBLK    DS    A                       Starting block number
 000008                            27646  1          =#SWPLIST   DS    A                       Pointer to page list
 00000C                            27647  1          =#SWPCNT    DS    H                       Total number of pages
 00000E                0000E 0000E 27648             =         END   ,
-                                  27658             =*
                                   27659             =* Swap Device Reset request
                                   27660             =*
 000000                00000 00004 27661             =#SWPRSET RECORD BEGIN
1IOSERV   (IOSE00) (09:40) (22MAR04) ORVYL'S Swap I/O Service Routines                                                      Page  104
0Loc    Object Code    Addr1 Addr2  Stmt Lv Lineno    Source Statement           (Hibal 5, Asmedit 3.3)  HLASM R4.0  2004/03/22 09.40
+___    ______ ____    _____ _____  ____ __ ______    ______ _________
0000000                            27669  1          =#SWPRCMD   DS    XL(L'#SWAPCOM)
 000004                00004 00004 27670             =         END   ,
-
                                   27680    2140.     *******************************************************************
                                   27681    2141.     *                                                                 *
                                   27682    2142.     *    SWAPWORK - SWAP work area                                    *
                                   27683    2143.     *                                                                 *
                                   27684    2144.     *******************************************************************
 000000                00000 00021 27685    2145.     SWAPWORK RECORD BEGIN
 000000                            27693  1 2146.     SWAPCNT    DS    A                       NUMBER OF PAGES BEING SWAPPED
 000004                            27694  1 2147.     SWAPLIST   DS    A                       LIST SUPPLIED BY CALLER
 000008                            27695  1 2148.     SWAPBLD    DS    A                       AREA TO BUILD SWAP CCWS
 00000C                            27696  1 2149.     SWAPNUM    DS    A                       NUMBER OF PAGES PER WORK AREA
 000010                            27697  1 2150.     SWAPSEEK   DS    A                       POINTER TO SEEK ADDRESSES
 000014                            27698  1 2151.     SWAPBLK    DS    A                       CURRENT BLOCK NUMBER
 000018                            27699  1 2152.     SWAPCCW    DS    2A                      CCW SAVE
 000020 00                         27700  1 2153.     SWAPFLG    FLAG  ,
 SWAPFLG.SWPFBLK1  80 ONES         27704  1 2154.                FLAG  SWPFBLK1                First swap block
 000021                00021 00021 27709    2155.              END   ,
-
                                   27719    2157.     *******************************************************************
                                   27720    2158.     *                                                                 *
                                   27721    2159.     *    SKELETON SWAPPING CCWS                                       *
                                   27722    2160.     *                                                                 *
                                   27723    2161.     *******************************************************************
 001F2C                01F2C 06A98 27724    2162.              DATA  BEGIN
 001F2C 00000000                          1
 001F30 8B40000A00000000           27729  1 2163.     SCCWM21    CCW1  CCWSTPP,0,CCWCMDCH,10
                                   27730  1 2164.
 001F38 2340000100000000           27731  1 2165.     SCCWSEC    CCW1  CCWSTSEC,0,CCWCMDCH,1
                                   27732  1 2166.
 001F40 0740000600000000           27733  1 2167.     SCCWSK     CCW1  CCWSEEK,0,CCWCMDCH,6
 001F48 1F40000100000000           27734  1 2168.                CCW1  CCWSFM,0,CCWCMDCH,1
                                   27735  1 2169.     SCCWPFX    EQU   SCCWSK,*-SCCWSK,C'X'
                                   27736  1 2170.
 001F50 6340001000000000           27737  1 2171.     SCCWCE     CCW1  CCWDEFEX,0,CCWCMDCH,16
 001F58 4740001000000000           27738  1 2172.                CCW1  CCWLOCRC,0,CCWCMDCH,16
                                   27739  1 2173.     SCCWEXT    EQU   SCCWCE,*-SCCWCE,C'X'
                                   27740  1 2174.
 001F60 0640100000000000           27741  1 2175.     SCCWRD     CCW1  CCWRD,0,CCWCMDCH,4096
                                   27742  1 2176.
 001F68 8640100000000000           27743  1 2177.     SCCWRU     CCW1  CCWRD+CCWMT,0,CCWCMDCH,4096
                                   27744  1 2178.
 001F70 0540100000000000           27745  1 2179.     SCCWWD     CCW1  CCWWD,0,CCWCMDCH,4096
                                   27746  1 2180.
 001F78 8540100000000000           27747  1 2181.     SCCWWU     CCW1  CCWWU,0,CCWCMDCH,4096
                                   27748  1 2182.
 001F80 B140000500000000           27749  1 2183.     SCCWD      CCW1  CCWSIDEQ+CCWMT,0,CCWCMDCH,5
 001F88 0800000000000000           27750  1 2184.                CCW1  CCWTIC,0,0,0
                                   27751  1 2185.     SCCWSW     EQU   SCCWD,*-SCCWD,C'X'
                                   27752  1 2186.
 001F90 0800000000000000           27753  1 2187.     SCCWTIC    CCW1  CCWTIC,0,0,0
1IOSERV   (IOSE00) (09:40) (22MAR04) ORVYL'S Swap I/O Service Routines                                                      Page  105
0Loc    Object Code    Addr1 Addr2  Stmt Lv Lineno    Source Statement           (Hibal 5, Asmedit 3.3)  HLASM R4.0  2004/03/22 09.40
+___    ______ ____    _____ _____  ____ __ ______    ______ _________
00019B0                019B0 06A98 27754    2188.              END   ,
1IOSERV   (IOSE00) (09:40) (22MAR04) ORVYL'S Swap I/O Service Routines                                                      Page  106
0Loc    Object Code    Addr1 Addr2  Stmt Lv Lineno    Source Statement           (Hibal 5, Asmedit 3.3)  HLASM R4.0  2004/03/22 09.40
+___    ______ ____    _____ _____  ____ __ ______    ______ _________
0                                  27761    2190.     *******************************************************************
                                   27762    2191.     *                                                                 *
                                   27763    2192.     *   SWAPIO  - ORVYL Swap Page I/O Driver                          *
                                   27764    2193.     *                                                                 *
                                   27765    2194.     *                                                                 *
                                   27766    2195.     *     Input - #SWPIO                                              *
                                   27767    2196.     *                                                                 *
                                   27768    2197.     *    Output - None                                                *
                                   27769    2198.     *                                                                 *
                                   27770    2199.     *                                                                 *
                                   27771    2200.     *******************************************************************
-
 0019B0                            27773    2202.     SWAPIO   PROC  @DOIO,SWAPWORK,SCOPE=LOCAL
 0019B0 E2E6C1D7C9D64040           27778             +
 0019B8 0010/0028                  27779             +
 0019BC 900F D004/18AF       00004 27781             +
 USING  SWAPIO,R10
 0019C2 50D0 C000/18CD       00000 27796             +
 0019C8 9680 C000      00000       27798             +
 USING  @DOIO-72,R12
 AUSING (SWAPWORK,@DOIO+16)
 0019CC 41D0 C080            00080 27817             +
 0019D0 5870 C050            00008 27818    2203.              L     RY,@DOIORB              INTERFACE PARAMETERS
 USING  @IORB,R7                   27819    2204.              WITH  (@IORB,RY)
 0019D4 5860 C048            00000 27832    2205.              L     RX,@DOUPRM              USER PARAMETERS
 USING  #SWAPCOM,R6                27833    2206.              WITH  (#SWAPCOM,RX)
 0019D8 5830 C04C            00004 27846    2207.              L     RB,@DODSID              DDB POINTER
 USING  DDB,R3                     27847    2208.              WITH  (DDB,RB)
 AUSING (COMDB,DDB)                27860    2209.              WITH  (COMDB,DDB),'CLC  COMDBID,=CL4"DDB"'
 0019DC D503 3000 A534 00000 01EF0 27871             +
 0019E2 4780 A03A            019F6 27875    2210.              IF    NE,'KAPUT SWDBPTR'
 0019E6 4110 0001            00001 27894  1          +
 0019EA 4100 0080            00080 27895  1          +
 0019EE 8900 0018/1610       00018 27896  1          +
 0019F4 0A0D                       27898             +
 0019F6 9200 C078      00020       27903    2211.              CLEAR SWAPFLG
1IOSERV   (IOSE00) (09:40) (22MAR04) ORVYL'S Swap I/O Service Routines                                                      Page  107
0Current Usings:  (DDB,R3) (#SWAPCOM,R6) (@IORB,R7) (SWAPIO,R10) (@DOIO-72,R12)
0Loc    Object Code    Addr1 Addr2  Stmt Lv Lineno    Source Statement           (Hibal 5, Asmedit 3.3)  HLASM R4.0  2004/03/22 09.40
+___    ______ ____    _____ _____  ____ __ ______    ______ _________
0                                  27911    2213.     *
                                   27912    2214.     *  PROCESS OPEN, CLOSE AND RESET
                                   27913    2215.     *
                                   27914    2216.   C          IF    ((#SWAPCMD,NE,#SWCREAD),AND,
 0019FA                                     2217.                    (#SWAPCMD,NE,#SWCWRIT)),BEGIN
 0019FA D503 A538 6000 01EF4 00000 27928             +
 001A00 4780 A146            01B02 27929             +
 001A04 D503 A53C 6000 01EF8 00000 27943             +
 001A0A 4780 A146            01B02 27944             +
 001A0E                            27949  1 2218.                IF    (#SWAPCMD,EQ,#SWCRSET),BEGIN
 001A0E D503 A540 6000 01EFC 00000 27961  1          +
 001A14 4770 A070            01A2C 27962  1          +
 USING  @PSRESET-72,R13            27967  2 2219.                  PSET  @PSRESET
 001A18 D703 D048 D048 00000 00000 27984  2          +
 001A1E 5030 D048            00000 27985  2 2220.                  ST    RB,@PSRDDB              DDB POINTER
 001A22 41F0 A5E8/0DEF       01FA4 27986  2 2221.                  LCALL PSRESET
 001A28 47F0 A524            01EE0 27995  2 2222.                  EXIT  SWAPIO
 001A2C                            27998  1 2223.                END   ,
                                   28002  1 2224.     *
                                   28003  1 2225.     *  SEND REQUEST TO SUBTASK
                                   28004  1 2226.     *
 001A2C 5840 90A8            000A8 28005  1 2227.                WITH  (RTCB,RTCBR),'L  RJ,RTCBIOT'   IOT POINTER
 USING  RTCB,R9
 DROP   RTCB,R9
 USING  IOT,R4                     28029  1 2228.                WITH  (IOT,RJ)
 001A30 5800 4010            00010 28042  1 2229.                MSGGBUF IOTMTMC,L'$MVIPSFO
 DROP   @PSRESET-72,R13
 USING  @MSGGBUF-72,R13
 001A34 5000 D048            00000 28061  1          +
 001A38 4100 0018            00018 28068  1          +
 001A3C 5000 D04C            00004 28069  1          +
 001A40 58F0 A544/0DEF       01F00 28072  1          +
 001A46 1850                       28074  1 2230.                LR    RK,RVR                  MESSAGE BUFFER
 USING  $MVIOCOM,R5                28075  1 2231.                WITH  ($MVIOCOM,RK)
 001A48 5030 5000            00000 28088  1 2232.                ST    RB,$MVIDSID             SET DEVICE ID
 001A4C D203 5004 7000 00004 00000 28089  1 2233.                MVC   $MVIRQID,@IORRQID       Request ID
 001A52 D203 5008 7004 00008 00004 28090  1 2234.                MVC   $MVIOFF,@IOROFF         Offset (guest real to MVS)
1IOSERV   (IOSE00) (09:40) (22MAR04) ORVYL'S Swap I/O Service Routines                                                      Page  108
0Current Usings:  (DDB,R3) (IOT,R4) ($MVIOCOM,R5) (#SWAPCOM,R6) (@IORB,R7) (SWAPIO,R10) (@DOIO-72,R12) (@MSGGBUF-72,R13)
0Loc    Object Code    Addr1 Addr2  Stmt Lv Lineno    Source Statement           (Hibal 5, Asmedit 3.3)  HLASM R4.0  2004/03/22 09.40
+___    ______ ____    _____ _____  ____ __ ______    ______ _________
0                                  28092  1 2236.     *
                                   28093  1 2237.     *  OPEN REQUEST - PROVIDE PARAMETER ADDRESS
                                   28094  1 2238.     *
 001A58                            28095  1 2239.                IF    (#SWAPCMD,EQ,#SWCOPEN),BEGIN
 001A58 D503 A548 6000 01F04 00000 28107  1          +
 001A5E 4770 A0C2            01A7E 28108  1          +
 DROP   #SWAPCOM,R6                28113  2 2240.                  WITH  (#SWPOPEN,RX)           USER PARM
 USING  #SWPOPEN,R6
 DROP   $MVIOCOM,R5                28129  2 2241.                  WITH  ($MVIPSFO,RK)
 USING  $MVIPSFO,R5
 001A62 5810 6004            00004 28145  2 2242.                  L     RS,#SWPALLO             ALLOCATION PARAMETERS
 001A66 5E10 7004            00004 28146  2 2243.                  AL    RS,@IOROFF               TO MVS VIRTUAL
 001A6A 5010 5010            00010 28147  2 2244.                  ST    RS,$MPFALLO             TO MESSAGE BUFFER
 001A6E 5810 6008            00008 28148  2 2245.                  L     RS,#SWPINFO             INFO RETURN AREA
 001A72 5E10 7004            00004 28149  2 2246.                  AL    RS,@IOROFF               TO MVS VIRTUAL
 001A76 5010 5014            00014 28150  2 2247.                  ST    RS,$MPFINFO             TO MESSAGE BUFFER
 001A7A 4110 0004            00004 28151  2 2248.                  LA    RS,$MVIFPFO             NOTE OPEN REQUEST
 DROP   $MVIPSFO,R5                28152  1 2249.                END
 USING  $MVIOCOM,R5
 DROP   #SWPOPEN,R6
 USING  #SWAPCOM,R6
                                   28180  1 2250.     *
                                   28181  1 2251.     *  MUST BE A CLOSE REQUEST
                                   28182  1 2252.     *
 001A7E A0C6           01A7E 01A60 28183  1 2253.                ELSE  BEGIN
 001A7E 47F0 A0E4            01AA0 28188  1          +
 001A82                            28194  2 2254.                  IF    (#SWAPCMD,NE,#SWCCLOS),'KAPUT PFOCODE'
 001A82 D503 A54C 6000 01F08 00000 28206  2          +
 001A88 4780 A0E0            01A9C 28207  2          +
 001A8C 4110 0001            00001 28220  3          +
 001A90 4100 0080            00080 28221  3          +
 001A94 8900 0018/1610       00018 28222  3          +
 001A9A 0A0D                       28224  2          +
 001A9C 4110 0008            00008 28229  2 2255.                  LA    RS,$MVIFPFC             CLOSE REQUEST
 001AA0                            28230  1 2256.                END
                                   28234  1 2257.     *
                                   28235  1 2258.     *  SEND REQUEST TO SUB TASK
                                   28236  1 2259.     *
 001AA0 5010 500C            0000C 28237  1 2260.                ST    RS,$MVIFUNC             SET FUNCTION CODE
 001AA4 5800 4010            00010 28238  1 2261.                MSGSEND IOTMTMC,(RK)
 DROP   @MSGGBUF-72,R13
 USING  @MSGSEND-72,R13
 001AA8 5000 D048/1805       00000 28257  1          +
 001AAE 5000 D04C            00004 28263  1          +
 001AB2 D703 D058 D058 00010 00010 28270  1          +
 001AB8 58F0 A550/0DEF       01F0C 28273  1          +
                                   28275  1 2262.   C            IF    ((#SWAPCMD,EQ,#SWCCLOS),AND,('LT RB,DDBHDB',NZ)),
 001ABE                                   1 2263.                      BEGIN                   IF CLOSING HIPERSPACED PAGE DS
 001ABE D503 A54C 6000 01F08 00000 28289  1          +
 001AC4 4770 A140            01AFC 28290  1          +
 001AC8 5830 30A4/1233       000A4 28301  1          +
 001ACE 4780 A140            01AFC 28303  1          +
 DROP   DDB,R3                     28308  2 2264.                  WITH  (HDB,RB)
 USING  HDB,R3
1IOSERV   (IOSE00) (09:40) (22MAR04) ORVYL'S Swap I/O Service Routines                                                      Page  109
0Current Usings:  (HDB,R3) (IOT,R4) ($MVIOCOM,R5) (#SWAPCOM,R6) (@IORB,R7) (SWAPIO,R10) (@DOIO-72,R12) (@MSGSEND-72,R13)
0Loc    Object Code    Addr1 Addr2  Stmt Lv Lineno    Source Statement           (Hibal 5, Asmedit 3.3)  HLASM R4.0  2004/03/22 09.40
+___    ______ ____    _____ _____  ____ __ ______    ______ _________
0001AD2 9108 3028      00028       28324  2 2265.                  IF    (HDBFLG.HDBOPEN),BEGIN  IF HIPERSPACE HAS BEEN OPENED
 001AD6 47E0 A140            01AFC 28334  2          +
                                   28339  3 2266.     *** TEST CODE ***
 001ADA 0700/0ADE                  28340  3 2267.                    QSNAP HDB,L'HDB-1
 001ADE 086300003000               28343  3          +
                                   28344  3 2268.     *** END OF TEST CODE ***
 DROP   @MSGSEND-72,R13            28345  3 2269.                    PSET  @DOHSPC
 USING  @DOHSPC-72,R13
 001AE4 D70F D048 D048 00000 00000 28365  3          +
 001AEA 5030 D04C            00004 28366  3 2270.                    ST    RB,@DOHSHDB             HDB pointer
 001AEE 5060 D048            00000 28367  3 2271.                    ST    RX,@DOHSPRM             User parm addr
 001AF2 5070 D050            00008 28368  3 2272.                    ST    RY,@DOHSIRB             IORB Pointer
 001AF6 58F0 A554/0DEF       01F10 28369  3 2273.                    ACALL HSCLOSE                 CALL CLOSE FUNCTION
 001AFC                            28376  2 2274.                  END   ,                    OF IF HIPERSPACE HAS BEEN OPENED
 DROP   HDB,R3                     28380  1 2275.                END   ,                    OF IF CLOSING HIPERSPACED PAGE DS
 USING  DDB,R3
 001AFC 1B00                       28396  1 2276.                CLEAR RVR                     SET CONDITION CODE
 001AFE 47F0 A524            01EE0 28400  1 2277.                EXIT  SWAPIO                  DONE
 DROP   $MVIOCOM,R5                28403    2278.              END   ,
 DROP   IOT,R4
1IOSERV   (IOSE00) (09:40) (22MAR04) ORVYL'S Swap I/O Service Routines                                                      Page  110
0Current Usings:  (DDB,R3) (#SWAPCOM,R6) (@IORB,R7) (SWAPIO,R10) (@DOIO-72,R12) (@DOHSPC-72,R13)
0Loc    Object Code    Addr1 Addr2  Stmt Lv Lineno    Source Statement           (Hibal 5, Asmedit 3.3)  HLASM R4.0  2004/03/22 09.40
+___    ______ ____    _____ _____  ____ __ ______    ______ _________
0                                  28418    2280.     *
                                   28419    2281.     *  MAKE SURE VALID SWAP REQUEST
                                   28420    2282.     *
 001B02 9501 309B      0009B       28421    2283.              IF    (DDBXTNT,NE,1),'KAPUT SWPXTNT'   NOT SINGLE EXTENT
 001B06 4780 A15E            01B1A 28434             +
 001B0A 4110 0001            00001 28447  1          +
 001B0E 4100 0080            00080 28448  1          +
 001B12 8900 0018/1610       00018 28449  1          +
 001B18 0A0D                       28451             +
 DROP   #SWAPCOM,R6                28456    2284.              WITH  (#SWPDO,RX),BEGIN
 USING  #SWPDO,R6
 001B1A                            28473  1 2285.                IF    (#SWPCNT,GT,=Y(255)),'KAPUT SWPCNT'   TOO MANY PAGES
 001B1A D501 A56C 600C 01F28 0000C 28484  1          +
 001B20 47B0 A178            01B34 28485  1          +
 001B24 4110 0001            00001 28498  2          +
 001B28 4100 0080            00080 28499  2          +
 001B2C 8900 0018/1610       00018 28500  2          +
 001B32 0A0D                       28502  1          +
 DROP   #SWPDO,R6                  28507    2286.              END   ,
 USING  #SWAPCOM,R6
                                   28522    2287.     *
                                   28523    2288.     *  SET UP IOCB
                                   28524    2289.     *
 001B34 58F0 A558/0DEF       01F14 28525    2290.              ACALL GETIOCB                 GET AN I/O CONTROL BLOCK
 001B3A 1850                       28532    2291.              LR    RK,RVR
 USING  IOCB,R5                    28533    2292.              WITH  (IOCB,RK)
 001B3C 5030 5014            00014 28546    2293.              ST    RB,IOCBDDB              SET DDB POINTER
 001B40 D203 5010 7000 00010 00000 28547    2294.              MVC   IOCBRQID,@IORRQID        AND REQUEST ID
1IOSERV   (IOSE00) (09:40) (22MAR04) ORVYL'S Swap I/O Service Routines                                                      Page  111
0Current Usings:  (DDB,R3) (IOCB,R5) (#SWAPCOM,R6) (@IORB,R7) (SWAPIO,R10) (@DOIO-72,R12) (@DOHSPC-72,R13)
0Loc    Object Code    Addr1 Addr2  Stmt Lv Lineno    Source Statement           (Hibal 5, Asmedit 3.3)  HLASM R4.0  2004/03/22 09.40
+___    ______ ____    _____ _____  ____ __ ______    ______ _________
0                                  28549    2296.     *
                                   28550    2297.     *  SET IO KEY AND INCREMENT I/O COUNT
                                   28551    2298.     *
 001B46                            28552    2299.              IF    (#SWAPCMD,EQ,#SWCREAD),BEGIN   FOR SWAP INS
 001B46 D503 A538 6000 01EF4 00000 28564             +
 001B4C 4770 A1D8            01B94 28565             +
 001B50 9500 7010      00010       28570  1 2300.                IF    (@IORKEY,Z),'KAPUT SWPKEY'   CAN'T BE ZERO
 001B54 4770 A1AC            01B68 28581  1          +
 001B58 4110 0001            00001 28594  2          +
 001B5C 4100 0080            00080 28595  2          +
 001B60 8900 0018/1610       00018 28596  2          +
 001B66 0A0D                       28598  1          +
 001B68 4110 0001            00001 28603  1 2301.                INCR  RS,DDBRDCT              INCREMENT READ COUNT
 001B6C 5E10 301C            0001C 28607  1          +
 001B70 5010 301C            0001C 28608  1          +
 001B74 91C0 3092      00092       28609  1 2302.                IF    DDBFEAT.DCEDEFLR,'MVC  SWAPCCW,SCCWRU'
 001B78 47E0 A1C6            01B82 28620  1          +
 001B7C D203 C070 A5AC 00018 01F68 28626  1          +
 001B82 A1CA           01B82 01B7A 28631  1 2303.                ELSE  'MVC  SWAPCCW,SCCWRD'   SET CCW COMMAND
 001B82 47F0 A1D0            01B8C 28636  1          +
 001B86 D203 C070 A5A4 00018 01F60 28643  1          +
 001B8C 9206 5090      00090       28648  1 2304.                MVI   IOCBLCRD,X'06'          SET READ IN LOCATE RECORD
 001B90 92C0 50A0      000A0       28649  1 2305.                SET   (IOCBPDAT.X'C0',EQ)     SET PAGE PARAMETER FLAGS
 001B94 A1DC           01B94 01B4E 28657    2306.              END   ELSE,BEGIN
 001B94 47F0 A226            01BE2 28666             +
 001B98                            28672  1 2307.                IF    (#SWAPCMD,NE,#SWCWRIT),'KAPUT SWPCMD'
 001B98 D503 A53C 6000 01EF8 00000 28684  1          +
 001B9E 4780 A1F6            01BB2 28685  1          +
 001BA2 4110 0001            00001 28698  2          +
 001BA6 4100 0080            00080 28699  2          +
 001BAA 8900 0018/1610       00018 28700  2          +
 001BB0 0A0D                       28702  1          +
 001BB2 9200 7010      00010       28707  1 2308.                CLEAR @IORKEY
 001BB6 4110 0001            00001 28714  1 2309.                INCR  RS,DDBWRCT              INCREMENT WRITE COUNT
 001BBA 5E10 3020            00020 28718  1          +
 001BBE 5010 3020            00020 28719  1          +
 001BC2 91C0 3092      00092       28720  1 2310.                IF    DDBFEAT.DCEDEFLR,'MVC  SWAPCCW,SCCWWU'
 001BC6 47E0 A214            01BD0 28731  1          +
 001BCA D203 C070 A5BC 00018 01F78 28737  1          +
 001BD0 A218           01BD0 01BC8 28742  1 2311.                ELSE  'MVC  SWAPCCW,SCCWWD'   SET CCW COMMAND
 001BD0 47F0 A21E            01BDA 28747  1          +
 001BD4 D203 C070 A5B4 00018 01F70 28754  1          +
 001BDA 9201 5090      00090       28759  1 2312.                MVI   IOCBLCRD,X'01'          SET WRITE IN LOCATE RECORD
 001BDE 9280 50A0      000A0       28760  1 2313.                SET   (IOCBPDAT.X'80',EQ)     SET PAGE PARAMETER FLAGS
 001BE2                            28768    2314.              END   ,
1IOSERV   (IOSE00) (09:40) (22MAR04) ORVYL'S Swap I/O Service Routines                                                      Page  112
0Current Usings:  (DDB,R3) (IOCB,R5) (#SWAPCOM,R6) (@IORB,R7) (SWAPIO,R10) (@DOIO-72,R12) (@DOHSPC-72,R13)
0Loc    Object Code    Addr1 Addr2  Stmt Lv Lineno    Source Statement           (Hibal 5, Asmedit 3.3)  HLASM R4.0  2004/03/22 09.40
+___    ______ ____    _____ _____  ____ __ ______    ______ _________
0                                  28773    2316.     *
                                   28774    2317.     *  CALCULATE TRACK ADDRESSES FOR FIRST AND LAST BLOCK
                                   28775    2318.     *
 DROP   #SWAPCOM,R6                28776    2319.              DROP  RX
 USING  #SWPDO,R6                  28783    2320.              WITH  (#SWPDO,RX)
 DROP   @DOHSPC-72,R13             28796    2321.              PSET  @BCH
 USING  @BCH-72,R13
 001BE2 D710 D048 D048 00000 00000 28816             +
 001BE8 5030 D048            00000 28817    2322.              ST    RB,@BCHDSID             SET DATA SET ID
 001BEC 5810 6004            00004 28818    2323.              L     RS,#SWPBLK              FIRST BLOCK
 001BF0 4A10 600C            0000C 28819    2324.              AH    RS,#SWPCNT
 001BF4 0610                       28820    2325.              DECR  RS                      LAST BLOCK
 001BF6 5010 D04C            00004 28822    2326.              ST    RS,@BCHBLK              SET PARM
 001BFA 58F0 A55C/0DEF       01F18 28823    2327.              ACALL BLKCCHHR                CONVERT TO DISK ADDRESS
 001C00 D203 D04C 6004 00004 00004 28830    2328.              MVC   @BCHBLK,#SWPBLK         NOW DO FIRST BLOCK
 001C06 58F0 A55C/0DEF       01F18 28831    2329.              ACALL BLKCCHHR                CONVERT TO DISK ADDRESS
 001C0C D200 50AC D050 000AC 00008 28838    2330.              MVC   IOCBSECT,@BCHSECT       GET SECTOR
                                   28839    2331.     *
                                   28840    2332.     *  SET UP IOSB
                                   28841    2333.     *
 001C12 4140 50DC            000DC 28842    2334.              LA    RJ,IOCBIOSB             IOSB POINTER
 USING  IOSB,R4                    28843    2335.              WITH  (IOSB,RJ)
 001C16 D207 405C D051 0005C 00009 28856    2336.              MVC   IOSEEK,@BCHSEEK         SET SEEK ADDRESS
 001C1C D207 4064 D051 00064 00009 28857    2337.              MVC   IOSEEKA,@BCHSEEK        SET SEEK ADDRESS
 001C22 D200 4059 7010 00059 00010 28858    2338.              MVC   IOSCKEY,@IORKEY         SET CCW AREA KEY
 001C28 4120 5038            00038 28859    2339.              LA    RA,IOCBCCW              CCW AREA
                                   28860    2340.     *
                                   28861    2341.     *  DEVICE SUPPORTS EXTENDED CKD COMMANDS
                                   28862    2342.     *
 001C2C 91C0 3092      00092       28863    2343.              IF    DDBFEAT.DCEDEFLR,BEGIN
 001C30 47E0 A2D8            01C94 28874             +
 001C34 D203 4010 3078 00010 00078 28879  1 2344.                MVC   IOSUCB,DDBUCB           UCB POINTER
 USING  CCW,R2                     28880  1 2345.                WITH  (CCW,RA)
 001C3A D20F 2000 A594 00000 01F50 28893  1 2346.                MVC   CCW(L'SCCWEXT),SCCWEXT  SKELETON CCWS
                                   28894  1 2347.     *
                                   28895  1 2348.     *  BUILD DEFINE EXTENT CCW AND PARAMETER
                                   28896  1 2349.     *
 001C40 B110 5080            00080 28897  1 2350.                LRA   RS,IOCBDEXD             DEFINE EXTENT PARAMETER AREA
 001C44 5010 2004            00004 28898  1 2351.                ST    RS,CCWADDR              SET CCW
 001C48 4120 2008            00008 28899  1 2352.                LA    RA,CCW+L'CCW            TO NEXT CCW AREA
 001C4C 9110 3092      00092       28900  1 2353.                IF    (DDBFEAT.DCECACHE,AND,(IOCBLCRD,EQ,X'06')),BEGIN
 001C50 47E0 A2A0            01C5C 28913  1          +
 001C54 9506 5090      00090       28926  1          +
 001C58 4770 A2A0            01C5C 28927  1          +
                                   28932  2 2354.     *         SET   IOCBDEXD+1.X'08'        SWAP IN ON A MOD 23
 001C5C                            28933  1 2355.                END   ,
 001C5C D201 5082 3098 00082 00098 28937  1 2356.                MVC   IOCBDEXD+2(2),DDBBLKSZ  BLOCK SIZE
 001C62 5810 3010            00010 28938  1 2357.                L     RS,DDBDEB               DEB
 001C66 4110 1020            00044 28939  1 2358.                WITH  (DEBBASIC,RS),'LA  RS,DEBBASND'  POINT AT EXTENT TABLE
 USING  DEBBASIC,R1
 DROP   DEBBASIC,R1
 USING  DEBDASD,R1                 28963  1 2359.                WITH  (DEBDASD,RS)
 001C6A D207 5088 1006 00088 00006 28976  1 2360.                MVC   IOCBDEXD+8(8),DEBSTRCC    SET EXTENT CCHH/CCHH
 DROP   DEBDASD,R1                 28977  1 2361.                DROP  RS
1IOSERV   (IOSE00) (09:40) (22MAR04) ORVYL'S Swap I/O Service Routines                                                      Page  113
0Current Usings:  (CCW,R2) (DDB,R3) (IOSB,R4) (IOCB,R5) (#SWPDO,R6) (@IORB,R7) (SWAPIO,R10) (@DOIO-72,R12) (@BCH-72,R13)
0Loc    Object Code    Addr1 Addr2  Stmt Lv Lineno    Source Statement           (Hibal 5, Asmedit 3.3)  HLASM R4.0  2004/03/22 09.40
+___    ______ ____    _____ _____  ____ __ ______    ______ _________
0                                  28984  1 2362.     *
                                   28985  1 2363.     *  BUILD LOCATE RECORD CCW AND PARAMETER
                                   28986  1 2364.     *
 001C70 B110 5090            00090 28987  1 2365.                LRA   RS,IOCBLCRD             LOCATE RECORD PARAMETER AREA
 001C74 5010 2004            00004 28988  1 2366.                ST    RS,CCWADDR              SET CCW
 001C78 4120 2008            00008 28989  1 2367.                LA    RA,CCW+L'CCW            TO NEXT CCW AREA
 001C7C D200 5093 600D 00093 0000D 28990  1 2368.                MVC   IOCBLCRD+3(1),#SWPCNT+1  SET NUMBER OF PAGES
 001C82 D203 5094 405F 00094 0005F 28991  1 2369.                MVC   IOCBLCRD+4(4),IOSEEK+3  SET CCHH
 001C88 D204 5098 405F 00098 0005F 28992  1 2370.                MVC   IOCBLCRD+8(5),IOSEEK+3  SET CCHHR ALSO
 001C8E D200 509D 50AC 0009D 000AC 28993  1 2371.                MVC   IOCBLCRD+13(1),IOCBSECT  COPY SECTOR
 DROP   CCW,R2                     28994    2372.              END
                                   29005    2373.     *
                                   29006    2374.     *  CACHED PAGING DEVICE - FIRST CREATE SET PAGE PARAMETER CCW
                                   29007    2375.     *
 001C94 A2DC           01C94 01C32 29008    2376.              ELSE  BEGIN
 001C94 47F0 A36A            01D26 29013             +
 001C98 9120 3092      00092       29019  1 2377.                IF    DDBFEAT.DCEPAGES,BEGIN
 001C9C 47E0 A328            01CE4 29030  1          +
 USING  CCW,R2                     29035  2 2378.                  WITH  (CCW,RA)
 001CA0 D207 2000 A574 00000 01F30 29048  2 2379.                  MVC   CCW,SCCWM21             SKELETON CCW
 001CA6 B110 50A0            000A0 29049  2 2380.                  LRA   RS,IOCBPDAT             PAGE PARAMETER AREA
 001CAA 5010 2004            00004 29050  2 2381.                  ST    RS,CCWADDR              SET CCW
 001CAE 4120 2008            00008 29051  2 2382.                  LA    RA,CCW+L'CCW            TO NEXT CCW AREA
 001CB2 D203 50A6 405F 000A6 0005F 29052  2 2383.                  MVC   IOCBPDAT+6(4),IOSEEK+3  SET CCHH IN PAGE PARAMETERS
 001CB8 D200 50A1 600D 000A1 0000D 29053  2 2384.                  MVC   IOCBPDAT+1(1),#SWPCNT+1   AND NUMBER OF PAGES
                                   29054  2 2385.     *
                                   29055  2 2386.     *  SELECT NEXT EXPOSURE IN ROUND ROBIN
                                   29056  2 2387.     *
 001CBE 5810 3088            00088 29057  2 2388.                  L     RS,DDBCUNXT             NEXT EXPOSURE INDEX
 001CC2                            29058  2 2389.                  LOOP  BEGIN
 001CC2 41F0 1004            00004 29064  3 2390.                    LA    R15,@RS+4                UPDATE
 001CC6 59F0 A560            01F1C 29065  3 2391.                    IF    (R15,GT,8),'CLEAR  R15'  RECYCLE
 001CCA 47D0 A314/1BFF       01CD0 29077  3          +
 001CD0 BA1F 3088            00088 29091  3 2392.                    CS    RS,R15,DDBCUNXT          AND REPLACE INDEX
 001CD4 4770 A306            01CC2 29092  2 2393.                  UNTIL Z,END
 001CD8 5811 307C            0007C 29111  2 2394.                  L     RS,DDBCUCBS(RS)         GET UCB ADDRESS
 001CDC 5010 4010            00010 29112  2 2395.                  ST    RS,IOSUCB                FOR IOSB
 001CE0 9610 4002      00002       29113  2 2396.                  SET   IOSFLC.IOSEXP           NOTE SPECIFIC EXPOSURE
 DROP   CCW,R2                     29120  1 2397.                END   ,
                                   29129  1 2398.     *
                                   29130  1 2399.     *  STANDARD DISK/DRUM DEVICE - BUILD SEEK CCW
                                   29131  1 2400.     *
 001CE4 A32C           01CE4 01C9E 29132  1 2401.                ELSE  BEGIN
 001CE4 47F0 A36A            01D26 29137  1          +
 USING  CCW,R2                     29143  2 2402.                  WITH  (CCW,RA)
 001CE8 D20F 2000 A584 00000 01F40 29156  2 2403.                  MVC   CCW(L'SCCWPFX),SCCWPFX  SKELETON CCWS
 001CEE B110 405D            0005D 29157  2 2404.                  LRA   RS,IOSEEK+1             SEEK ARGUMENT
 001CF2 5010 2004            00004 29158  2 2405.                  ST    RS,CCWADDR              SET IN CCW
 001CF6 4120 2008            00008 29159  2 2406.                  LA    RA,CCW+L'CCW            TO NEXT CCW AREA
                                   29160  2 2407.     *
                                   29161  2 2408.     *  BUILD SET FILE MASK CCW
                                   29162  2 2409.     *
 001CFA B110 50AD            000AD 29163  2 2410.                  LRA   RS,IOCBFM               SEEK ARGUMENT
 001CFE 5010 2004            00004 29164  2 2411.                  ST    RS,CCWADDR              SET IN CCW
1IOSERV   (IOSE00) (09:40) (22MAR04) ORVYL'S Swap I/O Service Routines                                                      Page  114
0Current Usings:  (CCW,R2) (DDB,R3) (IOSB,R4) (IOCB,R5) (#SWPDO,R6) (@IORB,R7) (SWAPIO,R10) (@DOIO-72,R12) (@BCH-72,R13)
0Loc    Object Code    Addr1 Addr2  Stmt Lv Lineno    Source Statement           (Hibal 5, Asmedit 3.3)  HLASM R4.0  2004/03/22 09.40
+___    ______ ____    _____ _____  ____ __ ______    ______ _________
0001D02 4120 2008            00008 29165  2 2412.                  LA    RA,CCW+L'CCW            TO NEXT CCW AREA
                                   29166  2 2413.     *
                                   29167  2 2414.     *  BUILD SET SECTOR CCW - IF NECESSARY
                                   29168  2 2415.     *
 001D06 9500 50AC      000AC       29169  2 2416.                  IF    (IOCBSECT,NZ),BEGIN
 001D0A 4780 A364            01D20 29180  2          +
 001D0E D207 2000 A57C 00000 01F38 29185  3 2417.                    MVC   CCW,SCCWSEC             SKELETON CCW
 001D14 B110 50AC            000AC 29186  3 2418.                    LRA   RS,IOCBSECT             SECTOR AREA
 001D18 5010 2004            00004 29187  3 2419.                    ST    RS,CCWADDR              SET IN CCW
 001D1C 4120 2008            00008 29188  3 2420.                    LA    RA,CCW+L'CCW            TO NEXT CCW AREA
 001D20                            29189  2 2421.                  END   ,
 001D20 D203 4010 3078 00010 00078 29193  2 2422.                  MVC   IOSUCB,DDBUCB           UCB POINTER
 DROP   CCW,R2                     29194  1 2423.                END   ,
 001D26                            29203    2424.              END   ,
                                   29207    2425.     *
                                   29208    2426.     *  SET UP TO BUILD READ/WRITE CCWS
                                   29209    2427.     *
 001D26                            29210    2428.              CLEAR SWAPBLD
 001D26 D703 C060 C060 00008 00008 29216             +
 001D2C                            29217    2429.              CLEAR SWAPNUM
 001D2C D703 C064 C064 0000C 0000C 29223             +
 001D32 D203 C06C 6004 00014 00004 29224    2430.              MVC   SWAPBLK,#SWPBLK         STARTING BLOCK NUMBER
 001D38 4810 600C            0000C 29225    2431.              LH    RS,#SWPCNT              NUMBER OF PAGES TO DO
 001D3C 5010 C058            00000 29226    2432.              ST    RS,SWAPCNT               TO WORK AREA
 001D40 D203 C05C 6008 00004 00008 29227    2433.              MVC   SWAPLIST,#SWPLIST       PAGE SWAP LIST
                                   29228    2434.     *
                                   29229    2435.     *  LOOP THROUGH SUPPLIED LIST AND BUILD CCW'S
                                   29230    2436.     *
 001D46 5880 C05C/1288       00004 29231    2437.              WHILE ('LT  RM,SWAPLIST',NZ),BEGIN
 001D4C 4780 A4F2            01EAE 29244             +
 001D50 5E80 7004            00004 29249  1 2438.                AL    RM,@IOROFF              TO MVS VIRTUAL
 001D54 D203 C05C 8000 00004 00000 29250  1 2439.                MVC   SWAPLIST,@RM            NEXT LIST
 001D5A                            29251  1 2440.                LOOP  BEGIN
                                   29257  2 2441.     *
                                   29258  2 2442.     *  SET UP NEW SWAP CCW BLOCK
                                   29259  2 2443.     *
 001D5A 5810 C064/1211       0000C 29260  2 2444.                  IF    ('LT  RS,SWAPNUM',Z),BEGIN
 001D60 4770 A3FE            01DBA 29271  2          +
 001D64 58F0 A564/0DEF       01F20 29276  3 2445.                    ACALL GETSWPA                 GET A SWAP WORK AREA
 001D6A 1810                       29283  3 2446.                    LR    RS,RVR
 001D6C D203 1000 C060 00000 00008 29284  3 2447.                    MVC   @RS(4),SWAPBLD          CHAIN UP
 001D72 5010 C060            00008 29285  3 2448.                    ST    RS,SWAPBLD              POINTER TO CURRENT WORK AREA
                                   29286  3 2449.     *
                                   29287  3 2450.     *  BUILD TIC TO FIRST CCW IN WORK AREA
                                   29288  3 2451.     *
 USING  CCW,R2                     29289  3 2452.                    WITH  (CCW,RA)
 001D76 D207 2000 A5D4 00000 01F90 29302  3 2453.                    MVC   CCW(8),SCCWTIC          TIC SKELETON
 001D7C B1F0 1008            00008 29303  3 2454.                    LRA   R15,@RS+8               ADDRESS OF SWAP CCWS
 001D80 50F0 2004            00004 29304  3 2455.                    ST    R15,CCWADDR             SET IN TIC
 001D84 4120 1008            00008 29305  3 2456.                    LA    RA,@RS+8                POINT TO SWAP CCW AREA
                                   29306  3 2457.     *
                                   29307  3 2458.     *  CALCULATE NUMBER OF CCWS TO BUILD IN THIS BLOCK
                                   29308  3 2459.     *
 001D88 58F0 1004            00004 29309  3 2460.                    L     R15,@RS+4               SIZE OF AREA
1IOSERV   (IOSE00) (09:40) (22MAR04) ORVYL'S Swap I/O Service Routines                                                      Page  115
0Current Usings:  (CCW,R2) (DDB,R3) (IOSB,R4) (IOCB,R5) (#SWPDO,R6) (@IORB,R7) (SWAPIO,R10) (@DOIO-72,R12) (@BCH-72,R13)
0Loc    Object Code    Addr1 Addr2  Stmt Lv Lineno    Source Statement           (Hibal 5, Asmedit 3.3)  HLASM R4.0  2004/03/22 09.40
+___    ______ ____    _____ _____  ____ __ ______    ______ _________
0001D8C 41EF 1000            00000 29310  3 2461.                    LA    R14,@RS(R15)            END OF AREA
 001D90 88F0 0003            00003 29311  3 2462.                    SRL   R15,3                   DIVIDE BY 8
 001D94 06F0                       29312  3 2463.                    DECR  R15                     LESS ONE FOR CHAIN & SIZE
 001D96 06F0                       29314  3 2464.                    DECR  R15                     LESS ONE FOR TIC
 001D98 91C0 3092      00092       29316  3 2465.                    IF    ~DDBFEAT.DCEDEFLR,BEGIN    NOT EXTENDED CKD DEVICE
 001D9C 4710 A3F6            01DB2 29327  3          +
 001DA0 88F0 0002            00002 29332  4 2466.                      SRL   R15,2                   DIVIDE BY 4 (3 CCWS PLUS SEEK)
 001DA4 50F0 C064            0000C 29333  4 2467.                      ST    R15,SWAPNUM             NUMBER OF CCWS THIS BLOCK
 001DA8 89F0 0003            00003 29334  4 2468.                      SLL   R15,3                   BYTES OF SEEK ADDRESSES
 001DAC 1BEF                       29335  4 2469.                      SR    R14,R15                 START OF SEEK AREA
 001DAE 50E0 C068            00010 29336  4 2470.                      ST    R14,SWAPSEEK
 001DB2                            29337  3 2471.                    END   ,
 001DB2 A3FA           01DB2 01D9E 29341  3 2472.                    ELSE  BEGIN                   IS AN EXTENDED DEVICE
 001DB2 47F0 A3FE            01DBA 29346  3          +
 001DB6 50F0 C064            0000C 29352  4 2473.                      ST    R15,SWAPNUM             NUMBER OF CCWS THIS BLOCK
 001DBA                            29353  3 2474.                    END
 DROP   CCW,R2                     29357  2 2475.                  END
                                   29366  2 2476.     *
                                   29367  2 2477.     *  BUILD CCW STRING FOR A PAGE
                                   29368  2 2478.     *
 USING  CCW,R2                     29369  2 2479.                  WITH  (CCW,RA)
 001DBA 4180 8004            00004 29382  2 2480.                  LA    RM,@RM+4                NEXT PAGE ENTRY
 001DBE 5800 C058/0600       00000 29383  2 2481.                  DECR  R0,SWAPCNT              UPDATE TOTAL COUNT
 001DC4 5000 C058            00000 29387  2          +
 001DC8 1200/47B0 A422       01DDE 29388  2 2482.                  IF    (R0,M),'KAPUT SWPCNT'
 001DCE 4110 0001            00001 29405  3 03-KAPUT +*,THIS FUNCTION IS NOT IMPLEMENTED
 001DD2 4100 0080            00080 29411  3          +
 001DD6 8900 0018/1610       00018 29412  3          +
 001DDC 0A0D                       29414  2          +
 001DDE 5800 C064/0600       0000C 29419  2 2483.                  DECR  R0,SWAPNUM               AND COUNT THIS BLOCK
 001DE4 5000 C064            0000C 29423  2          +
 001DE8 41F0 0FFF            00FFF 29424  2 2484.                  LA    R15,4095
 001DEC 54F0 8000            00000 29425  2 2485.                  IF    ('N  R15,@RM',NZ),'KAPUT SWIOADDR'
 001DF0 4780 A448            01E04 29433  2          +
 001DF4 4110 0001            00001 29446  3          +
 001DF8 4100 0080            00080 29447  3          +
 001DFC 8900 0018/1610       00018 29448  3          +
 001E02 0A0D                       29450  2          +
 001E04 58F0 8000            00000 29455  2 2486.                  L     R15,@RM                 GET A PAGE POINTER
 001E08 5EF0 7004            00004 29456  2 2487.                  AL    R15,@IOROFF              TO MVS VIRTUAL
 001E0C B1F0 F000            00000 29457  2 2488.                  LRA   R15,@R15                THEN CONVERT TO REAL
 001E10 4780 A468            01E24 29458  2 2489.                  IF    NZ,'KAPUT SWPNFIX'
 001E14 4110 0001            00001 29477  3          +
 001E18 4100 0080            00080 29478  3          +
 001E1C 8900 0018/1610       00018 29479  3          +
 001E22 0A0D                       29481  2          +
 001E24 58E0 C070            00018 29486  2 2490.                  L     R14,SWAPCCW             GET CCW SKELETON
                                   29487  2 2491.     *
                                   29488  2 2492.     *  STANDARD CKD DEVICE - FIRST SET UP SEARCH ID CCW
                                   29489  2 2493.     *
 001E28 91C0 3092      00092       29490  2 2494.                  IF    ~DDBFEAT.DCEDEFLR,BEGIN
 001E2C 4710 A4DE            01E9A 29501  2          +
 001E30 50F0 C074            0001C 29506  3 2495.                    ST    R15,SWAPCCW+4           SAVE CCW ADDRESS
 001E34 D20F 2000 A5C4 00000 01F80 29507  3 2496.                    MVC   CCW(L'SCCWSW),SCCWSW    SWAP CCW SKELETONS
1IOSERV   (IOSE00) (09:40) (22MAR04) ORVYL'S Swap I/O Service Routines                                                      Page  116
0Current Usings:  (CCW,R2) (DDB,R3) (IOSB,R4) (IOCB,R5) (#SWPDO,R6) (@IORB,R7) (SWAPIO,R10) (@DOIO-72,R12) (@BCH-72,R13)
0Loc    Object Code    Addr1 Addr2  Stmt Lv Lineno    Source Statement           (Hibal 5, Asmedit 3.3)  HLASM R4.0  2004/03/22 09.40
+___    ______ ____    _____ _____  ____ __ ______    ______ _________
0001E3A                            29508  3 2497.                    PSET  @BCH
 001E3A D710 D048 D048 00000 00000 29518  3          +
 001E40 5030 D048            00000 29519  3 2498.                    ST    RB,@BCHDSID             SET DATA SET ID
 001E44 D203 D04C C06C 00004 00014 29520  3 2499.                    MVC   @BCHBLK,SWAPBLK          AND BLOCK NUMBER
 001E4A 58F0 A55C/0DEF       01F18 29521  3 2500.                    ACALL BLKCCHHR                CONVERT TO DISK ADDRESS
 001E50 58F0 C068            00010 29528  3 2501.                    L     R15,SWAPSEEK
 001E54 D207 F000 D051 00000 00009 29529  3 2502.                    MVC   @R15(L'IOSEEK),@BCHSEEK   SET SEEK ADDRESS
 001E5A B1E0 F003            00003 29530  3 2503.                    LRA   R14,@R15+3              SEARCH ARGUMENT
 001E5E 50E0 2004            00004 29531  3 2504.                    ST    R14,CCWADDR              TO CCW
 001E62 41F0 F008            00008 29532  3 2505.                    LA    R15,@R15+8              NEXT SEEK AREA
 001E66 50F0 C068            00010 29533  3 2506.                    ST    R15,SWAPSEEK
 001E6A 41F0 0001            00001 29534  3 2507.                    INCR  R15,SWAPBLK             UPDATE BLOCK NUMBER
 001E6E 5EF0 C06C            00014 29538  3          +
 001E72 50F0 C06C            00014 29539  3          +
                                   29540  3 2508.     *
                                   29541  3 2509.     *  Turn off multi-track search for first ccw
                                   29542  3 2510.     *
 001E76 9180 C078      00020       29543  3 2511.                    IF    ~SWPFBLK1,BEGIN
 001E7A 4710 A4CA            01E86 29553  3          +
 001E7E 947F 2000      00000       29558  4 2512.                      CLEAR CCW.CCWMT               Remove multi-track
 001E82 9680 C078      00020       29566  4 2513.                      SET   SWPFBLK1
 001E86                            29572  3 2514.                    END   ,
                                   29576  3 2515.     *
                                   29577  3 2516.     *  SET UP TIC CCW
                                   29578  3 2517.     *
 001E86 B1E0 2000            00000 29579  3 2518.                    LRA   R14,CCW                 ADDRESS FOR TIC
 001E8A 4120 2008            00008 29580  3 2519.                    LA    RA,CCW+L'CCW            TO NEXT CCW AREA
 001E8E 50E0 2004            00004 29581  3 2520.                    ST    R14,CCWADDR              ADDRESS TO CCW
                                   29582  3 2521.     *
                                   29583  3 2522.     *  NOW ADD READ/WRITE DATA CCW
                                   29584  3 2523.     *
 001E92 4120 2008            00008 29585  3 2524.                    LA    RA,CCW+L'CCW            TO NEXT CCW AREA
 001E96 98EF C070            00018 29586  3 2525.                    LM    R14,R15,SWAPCCW         GET WRITE DATA CCW
 001E9A                            29587  2 2526.                  END   ,
 001E9A 90EF 2000            00000 29591  2 2527.                  STM   R14,R15,CCW             SET THE READ/WRITE CCW
 001E9E 4120 2008            00008 29592  2 2528.                  LA    RA,CCW+L'CCW            TO NEXT CCW
 001EA2 9180 8000      00000       29593  1 2529.                UNTIL @RM.X'80',END           GO TO END OF LIST
 001EA6 47E0 A39E            01D5A 29611  1          +
 DROP   CCW,R2
 001EAA 47F0 A38A            01D46 29622    2530.              END   ,
                                   29627    2531.     *
                                   29628    2532.     *  FINISH UP CHANNEL PROGRAM
                                   29629    2533.     *
 001EAE 5810 C058            00000 29630    2534.              L     RS,SWAPCNT              NUMBER OF PAGES LEFT
 001EB2 1211/4780 A50C       01EC8 29631    2535.              IF    (RS,NZ),'KAPUT SWPLCNT'   DIDN'T COME OUT EVEN
 001EB8 4110 0001            00001 29648  1 03-KAPUT +*,THIS FUNCTION IS NOT IMPLEMENTED
 001EBC 4100 0080            00080 29654  1          +
 001EC0 8900 0018/1610       00018 29655  1          +
 001EC6 0A0D                       29657             +
 001EC8 4B20 A56E            01F2A 29662    2536.              SH    RA,=Y(L'CCW)
 001ECC 94BF 2001      00001       29663    2537.              WITH  (CCW,RA),'CLEAR  CCWFLAGS.CCWCMDCH'  CLEAR COMM CHAIN
 USING  CCW,R2
 DROP   CCW,R2
 001ED0 D203 5018 C060 00018 00008 29694    2538.              MVC   IOCBSCCW,SWAPBLD        CHAIN OF SWAP WORK AREAS
1IOSERV   (IOSE00) (09:40) (22MAR04) ORVYL'S Swap I/O Service Routines                                                      Page  117
0Current Usings:  (DDB,R3) (IOSB,R4) (IOCB,R5) (#SWPDO,R6) (@IORB,R7) (SWAPIO,R10) (@DOIO-72,R12) (@BCH-72,R13)
0Loc    Object Code    Addr1 Addr2  Stmt Lv Lineno    Source Statement           (Hibal 5, Asmedit 3.3)  HLASM R4.0  2004/03/22 09.40
+___    ______ ____    _____ _____  ____ __ ______    ______ _________
0                                  29695    2539.     *
                                   29696    2540.     *  START THE ACTION
                                   29697    2541.     *
 DROP   @BCH-72,R13                29698    2542.              PSET  @SIO,CLEAR=NO
 USING  @SIO-72,R13
 001ED6 5050 D048            00000 29712    2543.              ST    RK,@SIOIOCB             SET IOCB POINTER
 001EDA 58F0 A568/0DEF       01F24 29713    2544.              ACALL STARTIO                 START IT GOING
 001EE0 981F C008            00008 29720    2545.              PEND
 DROP   IOSB,R4
 DROP   #SWPDO,R6
 DROP   IOCB,R5
 DROP   DDB,R3
 DROP   @IORB,R7
 DROP   @DOIO-72,R12
 DROP   SWAPIO,R10
 001EE4 9680 C000/0B0E 00000       29762             +
 DROP   @SIO-72,R13
1IOSERV   (IOSE00) (09:40) (22MAR04) ORVYL'S Swap I/O Service Routines                                                      Page  118
0Loc    Object Code    Addr1 Addr2  Stmt Lv Lineno    Source Statement           (Hibal 5, Asmedit 3.3)  HLASM R4.0  2004/03/22 09.40
+___    ______ ____    _____ _____  ____ __ ______    ______ _________
0001EF0                            29772    2547.              LTORG
 001EF0 C4C4C240                   29774                             =CL4'DDB'
 001EF4 0000000C                   29775                             =AL4(#SWCREAD)
 001EF8 00000010                   29776                             =AL4(#SWCWRIT)
 001EFC 00000014                   29777                             =AL4(#SWCRSET)
 001F00 00000000                   29778                             =V(MSGGBUF)
 001F04 00000004                   29779                             =AL4(#SWCOPEN)
 001F08 00000008                   29780                             =AL4(#SWCCLOS)
 001F0C 00000000                   29781                             =V(MSGSEND)
 001F10 00003204                   29782                             =A(HSCLOSE)
 001F14 000021A2                   29783                             =A(GETIOCB)
 001F18 00002454                   29784                             =A(BLKCCHHR)
 001F1C 00000008                   29785                             =A(8)
 001F20 000023DE                   29786                             =A(GETSWPA)
 001F24 00002534                   29787                             =A(STARTIO)
 001F28 00FF                       29788                             =Y(255)
 001F2A 0008           01F98 06A98 29789                             =Y(L'CCW)
1IOSERV   (IOSE00) (09:40) (22MAR04) ORVYL'S Page/Swap/File I/O Service Subroutines                                         Page  119
0Loc    Object Code    Addr1 Addr2  Stmt Lv Lineno    Source Statement           (Hibal 5, Asmedit 3.3)  HLASM R4.0  2004/03/22 09.40
+___    ______ ____    _____ _____  ____ __ ______    ______ _________
0                                  29794    2549.     *******************************************************************
                                   29795    2550.     *                                                                 *
                                   29796    2551.     *    @PSRESET - Parameters for page/swap device reset             *
                                   29797    2552.     *                                                                 *
                                   29798    2553.     *******************************************************************
0000000                00000 00004 29800    2555.     @PSRESET RECORD BEGIN
 000000                            29808  1 2556.     @PSRDDB    DS    A                       DDB pointer
 000004                00004 00004 29809    2557.              END   ,
-
                                   29819    2559.     *******************************************************************
                                   29820    2560.     *                                                                 *
                                   29821    2561.     *    SKELETON RESET CCWS                                          *
                                   29822    2562.     *                                                                 *
                                   29823    2563.     *******************************************************************
 002176                02176 06A98 29824    2564.              DATA  BEGIN
 002176 0000                              1
 002178 8B40000A00000000           29829  1 2565.     RCCWA      CCW1  CCWSTPP,0,CCWCMDCH,10
 002180 8F40000200000000           29830  1 2566.                CCW1  CCWDLBLK,0,CCWCMDCH,2
 002188 0320000100000000           29831  1 2567.                CCW1  CCWNOP,0,CCWSLI,1
                                   29832  1 2568.     RCCWS      EQU   RCCWA,*-RCCWA,C'X'
 001F98                01F98 06A98 29833    2569.              END   ,
1IOSERV   (IOSE00) (09:40) (22MAR04) ORVYL'S Page/Swap/File I/O Service Subroutines                                         Page  120
0Loc    Object Code    Addr1 Addr2  Stmt Lv Lineno    Source Statement           (Hibal 5, Asmedit 3.3)  HLASM R4.0  2004/03/22 09.40
+___    ______ ____    _____ _____  ____ __ ______    ______ _________
0                                  29840    2571.     *******************************************************************
                                   29841    2572.     *                                                                 *
                                   29842    2573.     *   PSRESET - Reset cached paging/swapping controller             *
                                   29843    2574.     *                                                                 *
                                   29844    2575.     *                                                                 *
                                   29845    2576.     *     Input - @PSRESET                                            *
                                   29846    2577.     *                                                                 *
                                   29847    2578.     *    Output - RVR contains I/O condition code                     *
                                   29848    2579.     *                                                                 *
                                   29849    2580.     *                                                                 *
                                   29850    2581.     *******************************************************************
-
 001F98                            29852    2583.     PSRESET  PROC  @PSRESET,SCOPE=LOCAL
 001F98 D7E2D9C5E2C5E340           29857             +
 001FA0 0008/0000                  29858             +
 001FA4 900F D004/18AF       00004 29860             +
 USING  PSRESET,R10
 001FAA 50D0 C000/18CD       00000 29875             +
 001FB0 9680 C000      00000       29877             +
 USING  @PSRESET-72,R12
 001FB4 41D0 C050            00050 29891             +
 001FB8 5830 C048            00000 29892    2584.              L     RB,@PSRDDB              DDB POINTER
 USING  DDB,R3                     29893    2585.              WITH  (DDB,RB)
                                   29906    2586.     *
                                   29907    2587.     *  DEVICE ISN'T A CACHING CONTROLLER
                                   29908    2588.     *
 001FBC 9120 3092      00092       29909    2589.              IF    ~DDBFEAT.DCEPAGES,BEGIN
 001FC0 4710 A028            01FCC 29920             +
 001FC4 4100 0001            00001 29925  1 2590.                LA    RVR,1                   IMMEDIATE (GOOD) RETURN
 001FC8 47F0 A1B2            02156 29926  1 2591.                EXIT  PSRESET
 001FCC                            29929    2592.              END   ,
                                   29933    2593.     *
                                   29934    2594.     *  SEE IF DEVICE IS ALREADY INITIALIZED
                                   29935    2595.     *
 001FCC 5820 3078            00078 29936    2596.              L     RA,DDBUCB               UCB POINTER
 001FD0 4820 2004            00204 29937    2597.              WITH  (UCBOB,RA),'LH  RA,UCBCHAN'     CHANNEL ID
 USING  UCBOB,R2
 DROP   UCBOB,R2
 001FD4 5420 A1BC            02160 29961    2598.              N     RA,=A(X'FE0')           UNIQUE ID
 001FD8 5870 9004            00004 29962    2599.              WITH  (RTCB,RTCBR),'L  RY,RTCBCBAT'   CBAT POINTER
 USING  RTCB,R9
 DROP   RTCB,R9
 001FDC 5870 7054            00054 29986    2600.              WITH  (CBAT,RY),'L  RY,CBATIOCT'      IOCT POINTER
 USING  CBAT,R7
 DROP   CBAT,R7
 USING  IOCT,R7                    30010    2601.              WITH  (IOCT,RY)
 001FE0 4160 7070            00070 30023    2602.              LA    RX,IOCTCDL              CACHE DEVICE LIST ANCHOR
1IOSERV   (IOSE00) (09:40) (22MAR04) ORVYL'S Page/Swap/File I/O Service Subroutines                                         Page  121
0Current Usings:  (DDB,R3) (IOCT,R7) (PSRESET,R10) (@PSRESET-72,R12)
0Loc    Object Code    Addr1 Addr2  Stmt Lv Lineno    Source Statement           (Hibal 5, Asmedit 3.3)  HLASM R4.0  2004/03/22 09.40
+___    ______ ____    _____ _____  ____ __ ______    ______ _________
0                                  30025    2604.     *
                                   30026    2605.     *  SEARCH LIST FOR THIS DEVICE
                                   30027    2606.     *
 001FE4 5860 6000/1266       00000 30028    2607.              WHILE ('LT  RX,@RX',NZ),BEGIN  SEARCH ALL LISTS
 001FEA 4780 A074            02018 30041             +
 001FEE 41E0 6000            00000 30046  1 2608.                LA    R14,@RX                 FIRST ENTRY
 001FF2 41F0 6040            00040 30047  1 2609.                LA    R15,@RX+(16*4)          LAST ENTRY
 001FF6                            30048  1 2610.                LOOP  BEGIN
 001FF6 41E0 E004            00004 30054  2 2611.                  LA    R14,@R14+4              NEXT ENTRY IN LIST
 001FFA 19EF/47A0 A070       02014 30055  2 2612.                  IF    (R14,GE,R15),EXIT       DONE WITH THIS PORTION
                                   30073  2 2613.     *
                                   30074  2 2614.     *  DEVICE FOUND ON LIST - ALL DONE
                                   30075  2 2615.     *
 002000 5920 E000            00000 30076  2 2616.                  IF    (RA,EQ,@R14),BEGIN
 002004 4770 A06C            02010 30088  2          +
 002008 4100 0001            00001 30093  3 2617.                    LA    RVR,1                   IMMEDIATE (GOOD) RETURN
 00200C 47F0 A1B2            02156 30094  3 2618.                    EXIT  PSRESET
 002010                            30097  2 2619.                  END   ,
 002010 47F0 A052            01FF6 30101  1 2620.                END   ,
 002014 47F0 A040            01FE4 30106    2621.              END   ,
                                   30111    2622.     *
                                   30112    2623.     *  THIS DEVICE NOT FOUND IN THE LIST - ADD IT
                                   30113    2624.     *
 002018 4160 7070            00070 30114    2625.              LA    RX,IOCTCDL              LIST ANCHOR
 00201C                            30115    2626.     PSRLOOP  LOOP  BEGIN
                                   30122  1 2627.     *
                                   30123  1 2628.     *  CREATE NEW CACHE DEVICE LIST
                                   30124  1 2629.     *
 00201C 5810 6000/1211       00000 30125  1 2630.                IF    ('LT  RS,@RX',Z),BEGIN
 002022 4770 A0A0            02044 30136  1          +
 USING  @MEMGET-72,R13             30141  2 2631.                  MEMGET 16*4,TYPE=GLOBAL       GET MEMORY
 002026 D709 D048 D048 00000 00000 30160  2          +
 00202C 4100 0040            00040 30167  2          +
 002030 5000 D04C            00004 30168  2          +
 002034 9213 D051      00009       30182  2          +
 002038 58F0 A1C0/0DEF       02164 30185  2          +
 00203E 1810                       30187  2 2632.                  LR    RS,RVR
 002040 5000 6000            00000 30188  2 2633.                  ST    RVR,@RX                 SET ADDRESS
 002044                            30189  1 2634.                END   ,
 002044 1861                       30193  1 2635.                LR    RX,RS                   UPDATE POINTER
1IOSERV   (IOSE00) (09:40) (22MAR04) ORVYL'S Page/Swap/File I/O Service Subroutines                                         Page  122
0Current Usings:  (DDB,R3) (IOCT,R7) (PSRESET,R10) (@PSRESET-72,R12) (@MEMGET-72,R13)
0Loc    Object Code    Addr1 Addr2  Stmt Lv Lineno    Source Statement           (Hibal 5, Asmedit 3.3)  HLASM R4.0  2004/03/22 09.40
+___    ______ ____    _____ _____  ____ __ ______    ______ _________
0                                  30195  1 2637.     *
                                   30196  1 2638.     *  FIND EMPTY SLOT
                                   30197  1 2639.     *
 002046 41F0 1040            00040 30198  1 2640.                LA    R15,@RS+(16*4)          LAST ENTRY
 00204A                            30199  1 2641.                LOOP  BEGIN
 00204A 4110 1004            00004 30205  2 2642.                  LA    RS,@RS+4                NEXT ENTRY
 00204E 191F/47A0 A0C6       0206A 30206  2 2643.                  IF    (RS,GE,R15),EXIT
 002054                            30224  2 2644.                  IF    ('OC @RS(4),@RS',Z),BEGIN
 002054 D603 1000 1000 00000 00000 30231  2          +
 00205A 4770 A0C2            02066 30232  2          +
 00205E 5020 1000            00000 30237  3 2645.                    ST    RA,@RS
 002062 47F0 A0CA            0206E 30238  3 2646.                    EXIT  PSRLOOP
 002066                            30241  2 2647.                  END   ,
 002066 47F0 A0A6            0204A 30245  1 2648.                END   ,
 00206A 47F0 A078            0201C 30250    2649.              END   ,
                                   30255    2650.     *
                                   30256    2651.     *  FOUND A DEVICE TO RESET - FIRST SET UP IOCB
                                   30257    2652.     *
 00206E 58F0 A1C4/0DEF       02168 30258    2653.              ACALL GETIOCB                 GET AN I/O CONTROL BLOCK
 002074 1850                       30265    2654.              LR    RK,RVR
 USING  IOCB,R5                    30266    2655.              WITH  (IOCB,RK)
 002076 5030 5014            00014 30279    2656.              ST    RB,IOCBDDB              SET DDB POINTER
 00207A 9680 50AE      000AE       30280    2657.              SET   IOCBPECB                REQUEST ECB POST
                                   30286    2658.     *
                                   30287    2659.     *  SET UP IOSB
                                   30288    2660.     *
 00207E 4140 50DC            000DC 30289    2661.              LA    RJ,IOCBIOSB             IOSB POINTER
 USING  IOSB,R4                    30290    2662.              WITH  (IOSB,RJ)
 002082 5810 307C            0007C 30303    2663.              L     RS,DDBCUCBS             GET UCB ADDRESS
 002086 5010 4010            00010 30304    2664.              ST    RS,IOSUCB                FOR IOSB
 00208A 9610 4002      00002       30305    2665.              SET   IOSFLC.IOSEXP           NOTE SPECIFIC EXPOSURE
                                   30312    2666.     *
                                   30313    2667.     *  SET UP CHANNEL PROGRAM
                                   30314    2668.     *
 00208E 4120 5038            00038 30315    2669.              LA    RA,IOCBCCW              CCW AREA
 002092 D217 2000 A1D4 00000 02178 30316    2670.              MVC   @RA(L'RCCWS),RCCWS      RESET CCW SKELETONS
                                   30317    2671.     *
                                   30318    2672.     *  Build SET PAGE PARAMETERS CCW
                                   30319    2673.     *
 USING  CCW,R2                     30320    2674.              WITH  (CCW,RA),BEGIN
 002098 B110 50A0            000A0 30334  1 2675.                LRA   RS,IOCBPDAT             PAGE PARAMETER AREA
 00209C 5010 2004            00004 30335  1 2676.                ST    RS,CCWADDR              SET CCW
 0020A0 4120 2008            00008 30336  1 2677.                LA    RA,CCW+L'CCW            TO NEXT CCW AREA
 0020A4                            30337  1 2678.                CLEAR IOCBPDAT                CLEAR DATA AREA
 0020A4 D709 50A0 50A0 000A0 000A0 30343  1          +
1IOSERV   (IOSE00) (09:40) (22MAR04) ORVYL'S Page/Swap/File I/O Service Subroutines                                         Page  123
0Current Usings:  (CCW,R2) (DDB,R3) (IOSB,R4) (IOCB,R5) (IOCT,R7) (PSRESET,R10) (@PSRESET-72,R12) (@MEMGET-72,R13)
0Loc    Object Code    Addr1 Addr2  Stmt Lv Lineno    Source Statement           (Hibal 5, Asmedit 3.3)  HLASM R4.0  2004/03/22 09.40
+___    ______ ____    _____ _____  ____ __ ______    ______ _________
0                                  30345  1 2680.     *
                                   30346  1 2681.     *  Build DISCARD BLOCK CCW
                                   30347  1 2682.     *
 0020AA B110 50AA            000AA 30348  1 2683.                LRA   RS,IOCBDBLK             DISCARD BLOCK AREA
 0020AE 5010 2004            00004 30349  1 2684.                ST    RS,CCWADDR              SET CCW
 0020B2                            30350  1 2685.                CLEAR IOCBDBLK
 0020B2 D701 50AA 50AA 000AA 000AA 30356  1          +
 0020B8 9680 50AA      000AA       30357  1 2686.                SET   IOCBDBLK.X'80'          SET DISCARD ALL
 DROP   CCW,R2                     30364    2687.              END   ,
                                   30372    2688.     *
                                   30373    2689.     *  TURN OFF MISSING INTERRUPT HANDLER DURING CACHE RESET
                                   30374    2690.     *
 0020BC 58E0 307C            0007C 30375    2691.              L     R14,DDBCUCBS            GET UCB ADDRESS
 0020C0 58E0 E028            00228 30376    2692.              WITH  (UCBOB,R14),'L  R14,UCBBASE'    UCB BASE ADDRESS
 USING  UCBOB,R14
 DROP   UCBOB,R14
 0020C4 B20B 0000                  30400    2693.              MODESET EXTKEY=ZERO,SAVEKEY=(2)  GET INTO KEY ZERO
 0020C8 B20A 0000      00000       30403             +
 USING  UCB,R14                    30404    2694.              USING UCB,R14
 0020CC 58F0 E1D0            001D0 30413    2695.              SET   UCBMIHTI.UCBMIHPB,MODE=LOCKED,REF=UCB
 0020D0 4110 0040            00040 30421             +
 0020D4 8910 0008/180F       00008 30422             +
 0020DA 1601/BAF0 E1D0       001D0 30424             +
 0020E0 4770 A134            020D8 30427             +
 DROP   UCB,R14                    30428    2696.              DROP  R14
 0020E4 B20A 2000      00000       30435    2697.              MODESET KEYADDR=(2)           BACK TO OUR KEY
                                   30438    2698.     *
                                   30439    2699.     *  START THE ACTION
                                   30440    2700.     *
 DROP   @MEMGET-72,R13             30441    2701.              PSET  @SIO,CLEAR=NO
 USING  @SIO-72,R13
 0020E8 5050 D048            00000 30455    2702.              ST    RK,@SIOIOCB             SET IOCB POINTER
 0020EC 58F0 A1C8/0DEF       0216C 30456    2703.              ACALL STARTIO                 START IT GOING
 DROP   @SIO-72,R13                30463    2704.              FWAIT LA:IOCBECB
 USING  @FWAIT-72,R13
 0020F2 D703 D048 D048 00000 00000 30484             +
 0020F8 41E0 5020            00020 30488             +
 0020FC 50E0 D048            00000 30489             +
 002100 58F0 A1CC/0DEF       02170 30492             +
 002106                            30494    2705.              IF    (IOSTATUS,NE,=X'0C00'),'KAPUT M21RESET'
 002106 D501 A1D0 4018 02174 00018 30505             +
 00210C 4780 A17C            02120 30506             +
 002110 4110 0001            00001 30519  1          +
 002114 4100 0080            00080 30520  1          +
 002118 8900 0018/1610       00018 30521  1          +
 00211E 0A0D                       30523             +
1IOSERV   (IOSE00) (09:40) (22MAR04) ORVYL'S Page/Swap/File I/O Service Subroutines                                         Page  124
0Current Usings:  (DDB,R3) (IOSB,R4) (IOCB,R5) (IOCT,R7) (PSRESET,R10) (@PSRESET-72,R12) (@FWAIT-72,R13)
0Loc    Object Code    Addr1 Addr2  Stmt Lv Lineno    Source Statement           (Hibal 5, Asmedit 3.3)  HLASM R4.0  2004/03/22 09.40
+___    ______ ____    _____ _____  ____ __ ______    ______ _________
0                                  30529    2707.     *
                                   30530    2708.     *  TURN ON MISSING INTERRUPT HANDLER AFTER CACHE RESET
                                   30531    2709.     *
 002120 58E0 307C            0007C 30532    2710.              L     R14,DDBCUCBS            GET UCB ADDRESS
 002124 58E0 E028            00228 30533    2711.              WITH  (UCBOB,R14),'L  R14,UCBBASE'    UCB BASE ADDRESS
 USING  UCBOB,R14
 DROP   UCBOB,R14
 002128 B20B 0000                  30557    2712.              MODESET EXTKEY=ZERO,SAVEKEY=(2)  GET INTO KEY ZERO
 00212C B20A 0000      00000       30560             +
 USING  UCB,R14                    30561    2713.              USING UCB,R14
 002190 BF             02176 06A98 30570    2714.              CLEAR UCBMIHTI.UCBMIHPB,MODE=LOCKED,REF=UCB
 002130 41F0 0001/111F       00001 30591             +
 002136 89F0 0001            00001 30593             +
 00213A 44F0 A1EE            02192 30595             +
 002191 00/BF10 A1EC         02190                   +
 00213E 58F0 E1D0/180F       001D0 30610             +
 002144 1401/BAF0 E1D0       001D0 30612             +
 00214A 4770 A19E            02142 30615             +
 DROP   UCB,R14                    30616    2715.              DROP  R14
 00214E B20A 2000      00000       30623    2716.              MODESET KEYADDR=(2)           BACK TO OUR KEY
 002152 4100 0001            00001 30626    2717.              LA    RVR,1                   IMMEDIATE POST
 002156 981F C008            00008 30627    2718.              PEND
 DROP   IOSB,R4
 DROP   IOCB,R5
 DROP   IOCT,R7
 DROP   DDB,R3
 DROP   @PSRESET-72,R12
 DROP   PSRESET,R10
 00215A 9680 C000/0B0E 00000       30662             +
 DROP   @FWAIT-72,R13
 002160                            30671    2719.              LTORG
 002160 00000FE0                   30673                             =A(X'FE0')
 002164 00000000                   30674                             =V(MEMGET)
 002168 000021A2                   30675                             =A(GETIOCB)
 00216C 00002534                   30676                             =A(STARTIO)
 002170 00000000                   30677                             =V(FWAIT)
 002174 0C00           02196 06A98 30678                             =X'0C00'
1IOSERV   (IOSE00) (09:40) (22MAR04) ORVYL'S Page/Swap/File I/O Service Subroutines                                         Page  125
0Loc    Object Code    Addr1 Addr2  Stmt Lv Lineno    Source Statement           (Hibal 5, Asmedit 3.3)  HLASM R4.0  2004/03/22 09.40
+___    ______ ____    _____ _____  ____ __ ______    ______ _________
0                                  30683    2721.     *******************************************************************
                                   30684    2722.     *                                                                 *
                                   30685    2723.     *   GETIOCB - Obtain I/O Control block                            *
                                   30686    2724.     *                                                                 *
                                   30687    2725.     *                                                                 *
                                   30688    2726.     *     Input - None                                                *
                                   30689    2727.     *                                                                 *
                                   30690    2728.     *    Output - RVR contains pointer to IOCB                        *
                                   30691    2729.     *                                                                 *
                                   30692    2730.     *                                                                 *
                                   30693    2731.     *******************************************************************
-
 002196                            30695    2733.     GETIOCB  PROC  SCOPE=LOCAL
 002196 C7C5E3C9D6C3C240           30700             +
 00219E 0000/0000                  30701             +
 0021A2 900F D004/18AF       00004 30703             +
 USING  GETIOCB,R10
 0021A8 50D0 C000/18CD       00000 30718             +
 0021AE 9680 C000      00000       30720             +
 0021B2 41D0 C048            00048 30721             +
                                   30722    2734.     *
                                   30723    2735.     *  FIRST RELEASE ANY COMPLETED IOCBS
                                   30724    2736.     *
 0021B6 58F0 A216/0DEF       023B8 30725    2737.              ACALL RELIOCB
                                   30732    2738.     *
                                   30733    2739.     *  LOOK FOR AN IDLE IOCB
                                   30734    2740.     *
 0021BC 5870 9004            00004 30735    2741.              WITH  (RTCB,RTCBR),'L  RY,RTCBCBAT'   CBAT POINTER
 USING  RTCB,R9
 DROP   RTCB,R9
 0021C0 5870 7054            00054 30759    2742.              WITH  (CBAT,RY),'L  RY,CBATIOCT'      IOCT POINTER
 USING  CBAT,R7
 DROP   CBAT,R7
 USING  IOCT,R7                    30783    2743.              WITH  (IOCT,RY)
 0021C4 9823 7010            00010 30796    2744.              LM    RA,RB,IOCTFIOB          FREE CHAIN & COUNT
 USING  IOCB,R2                    30797    2745.              WITH  (IOCB,RA)
 0021C8                            30810    2746.              LOOP  BEGIN
 0021C8 1222/4780 A03E       021E0 30816  1 2747.                IF    (RA,Z),EXIT             NONE ON THE CHAIN
 0021CE 58E0 2008            00008 30833  1 2748.                L     R14,IOCBFCHN            NEXT IN LINE
 0021D2 41F0 0001            00001 30834  1 2749.                LA    R15,1
 0021D6 1EF3                       30835  1 2750.                ALR   R15,RB                  NEW COUNTER
 0021D8 BB2E 7010            00010 30836  1 2751.                CDS   RA,R14,IOCTFIOB         UPDATE FREE CHAIN
 0021DC 4770 A026            021C8 30837    2752.              UNTIL Z,END
1IOSERV   (IOSE00) (09:40) (22MAR04) ORVYL'S Page/Swap/File I/O Service Subroutines                                         Page  126
0Current Usings:  (IOCB,R2) (IOCT,R7) (GETIOCB,R10)
0Loc    Object Code    Addr1 Addr2  Stmt Lv Lineno    Source Statement           (Hibal 5, Asmedit 3.3)  HLASM R4.0  2004/03/22 09.40
+___    ______ ____    _____ _____  ____ __ ______    ______ _________
0                                  30857    2754.     *
                                   30858    2755.     *  NO IOCBS AVAILABLE, BUILD SOME
                                   30859    2756.     *
 0021E0 1222/4770 A154       022F6 30860    2757.              IF    (RA,Z),BEGIN
 0021E6 4120 0F60            00F60 30874  1 2758.                LA    RA,4096/L'IOCB*L'IOCB
 USING  @MEMORY-72,R13             30875  1 2759.                POOLGET (RA),SUBPOOL=228      CSA, FIXED, NO FETCH PROTECT
 0021EA D70B D048 D048 00000 00000 30893  1          +
 0021F0 5020 D04C            00004 30895  1          +
 0021F4 92E4 D04A      00002       30896  1          +
 0021F8 58F0 A21A/0DEF       023BC 30899  1          +
 0021FE 1840                       30901  1 2760.                LR    RJ,RVR                  START OF AREA
 002200 1824                       30902  1 2761.                LR    RA,RJ                   POINTER TO FIRST IOCB
 002202 4130 000C            0000C 30903  1 2762.                LA    RB,4096/L'IOCB          NUMBER WE'RE BUILDING
                                   30904  1 2763.     *
                                   30905  1 2764.     *  BUILD IOCB
                                   30906  1 2765.     *
 002206 1233/47D0 A154       022F6 30907  1 2766.                WHILE (RB,P),BEGIN
 USING  IOCB,R4                    30923  2 2767.                  WITH  (IOCB,RJ)
 00220C D203 4000 A21E 00000 023C0 30936  2 2768.                  MVC   IOCB(4),=CL4'RICB'
 002212 5070 400C            0000C 30937  2 2769.                  ST    RY,IOCBIOCT             SAVE IOCT POINTER
 DROP   @MEMORY-72,R13             30938  2 2770.                  MEMGET 80*3,TYPE=GLOBAL       GET MEMORY FOR STACK
 USING  @MEMGET-72,R13
 002216 D709 D048 D048 00000 00000 30960  2          +
 00221C 4100 00F0            000F0 30967  2          +
 002220 5000 D04C            00004 30968  2          +
 002224 9213 D051      00009       30982  2          +
 002228 58F0 A222/0DEF       023C4 30985  2          +
 00222E 5000 4024            00024 30987  2 2771.                  ST    RVR,IOCBSTK
 002232 D201 4080 A22E 00080 023D0 30988  2 2772.                  MVC   IOCBDEXD(2),=AL1(X'80',X'C0')   FILE MASK + ECKD
 002238 9280 40AD      000AD       30989  2 2773.                  MVI   IOCBFM,X'80'            FILE MASK
                                   30990  2 2774.     *
                                   30991  2 2775.     *  BUILD AN SRB
                                   30992  2 2776.     *
 AUSING (SRB,IOCBSRB)              30993  2 2777.                  WITH  (SRB,IOCBSRB),BEGIN
 00223C D203 40B0 A226 00000 023C8 31003  3 2778.                    MVC   SRBID,=C'SRB '          IDENTIFICATION
 002242 D203 40B8 7078 00008 00078 31004  3 2779.                    MVC   SRBASCB,IOCTASCB        SET ASCB
 002248 D201 40BE 707C 0000E 0007C 31005  3 2780.                    MVC   SRBPASID,IOCTASID       | AND ASCB ID
 00224E D200 40D4 707E 00024 0007E 31006  3 2781.                    MVC   SRBPKF,IOCTKEY          | AND STORAGE KEY
 002254 D203 40C0 7080 00010 00080 31007  3 2782.                    MVC   SRBPTCB,IOCTMTCB        | AND MVS I/O TASK TCB
 00225A 41F0 40DC            000DC 31008  3 2783.                    LA    R15,IOCBIOSB            IOSB POINTER
 00225E 50F0 40CC            0001C 31009  3 2784.                    ST    R15,SRBPARM              IS THE SRB PARM
                                   31010  2 2785.                  END   ,
1IOSERV   (IOSE00) (09:40) (22MAR04) ORVYL'S Page/Swap/File I/O Service Subroutines                                         Page  127
0Current Usings:  (IOCB,R2) (IOCB,R4) (IOCT,R7) (GETIOCB,R10) (@MEMGET-72,R13)
0Loc    Object Code    Addr1 Addr2  Stmt Lv Lineno    Source Statement           (Hibal 5, Asmedit 3.3)  HLASM R4.0  2004/03/22 09.40
+___    ______ ____    _____ _____  ____ __ ______    ______ _________
0                                  31014  2 2787.     *
                                   31015  2 2788.     *  BUILD AN IOSB
                                   31016  2 2789.     *
 AUSING (IOSB,IOCBIOSB)            31017  2 2790.                  WITH  (IOSB,IOCBIOSB),BEGIN
 002262 41F0 40B0            000B0 31027  3 2791.                    LA    R15,IOCBSRB             SRB POINTER
 002266 50F0 40F8            0001C 31028  3 2792.                    ST    R15,IOSSRB               TO THE IOSB
 00226A 9201 40E0      00004       31029  3 2793.                    MVI   IOSDVRID,IOSMISID       DRIVER ID: MISC
 00226E D201 40E2 707C 00006 0007C 31030  3 2794.                    MVC   IOSASID,IOCTASID        ASCB ID
 002274 58F0 A22A            023CC 31031  3 2795.                    L     R15,=A(IOTERM+X'80000000')
 002278 50F0 40E4            00008 31032  3 2796.                    ST    R15,IOSPGAD             TERMINATION ROUTINE
 00227C D200 40E8 707E 0000C 0007E 31033  3 2797.                    MVC   IOSPKEY,IOCTKEY         SET TERMINATION ROUTINE KEY
 002282 9608 40E8      0000C       31034  3 2798.                    SET   IOSPKEY.IOSLCL          SCHEDULE AT ASCB'S PRIORITY
 002286 9601 40E8      0000C       31041  3 2799.                    SET   IOSPKEY.IOSCHCMP        CHANNEL PROGRAM COMPLETE
 00228A 9680 40EB      0000F       31048  3 2800.                    SET   IOSOPT2.IOSF            NOTE FORMAT 1 CCWS
 00228E 9680 40EA      0000E       31055  3 2801.                    SET   IOSOPT.IOSBYP           BYPASS PREFIXING
 002292 4110 4038            00038 31062  3 2802.                    LA    RS,IOCBCCW              CCW AREA
 002296 5010 4128            0004C 31063  3 2803.                    ST    RS,IOSVST               VIRTUAL CCW CHAIN START
 00229A B110 1000            00000 31064  3 2804.                    LRA   RS,@RS                   TO REAL
 00229E 5010 4124            00048 31065  3 2805.                    ST    RS,IOSRST               SET REAL ADDRESS ALSO
 0022A2 5040 40FC            00020 31066  3 2806.                    ST    RJ,IOSUSE               SET IOCB POINTER AS PARM
 0022A6 58F0 0010            00010 31067  3 2807.                    L     R15,CVTPTR
 0022AA 41F0 F4A4            004A4 31068  3 2808.                    WITH  (CVT,R15),'LA  R15,CVTRCZRT'    DUMMY RETURN
 USING  CVT,R15
 DROP   CVT,R15
 0022AE 50F0 4118            0003C 31092  3 2809.                    ST    R15,IOSNRM              NORMAL END APPENDAGE
 0022B2 50F0 411C            00040 31093  3 2810.                    ST    R15,IOSABN              | AND ABNORMAL END APPENDAGE
 0022B6 9680 4134      00058       31094  3 2811.                    SET   IOSFMSK.X'80'           FILE MASK
                                   31101  2 2812.                  END   ,
                                   31104  2 2813.     *
                                   31105  2 2814.     *  ADD IOCB TO MASTER CHAIN
                                   31106  2 2815.     *
 0022BA 98EF 7008            00008 31107  2 2816.                  LM    R14,R15,IOCTIOCB        MASTER CHAIN & COUNT
 0022BE                            31108  2 2817.                  LOOP  BEGIN
 0022BE 50E0 4004            00004 31114  3 2818.                    ST    R14,IOCBMCHN            OLD HEAD NOW NEXT IN LINE
 0022C2 4150 0001            00001 31115  3 2819.                    LA    RK,1
 0022C6 1E5F                       31116  3 2820.                    ALR   RK,R15                  NEW COUNTER
 0022C8 BBE4 7008            00008 31117  3 2821.                    CDS   R14,RJ,IOCTIOCB         UPDATE MASTER CHAIN
 0022CC 4770 A11C            022BE 31118  2 2822.                  UNTIL Z,END
                                   31137  2 2823.     *
                                   31138  2 2824.     *  IF NOT FIRST IOCB ADD IT TO AVAILABLE CHAIN
                                   31139  2 2825.     *
 0022D0 1942/4780 A14A       022EC 31140  2 2826.                  IF    (RJ,NE,RA),BEGIN
 0022D6 98EF 7010            00010 31155  3 2827.                    LM    R14,R15,IOCTFIOB        FREE CHAIN & COUNT
 0022DA                            31156  3 2828.                    LOOP  BEGIN
 0022DA 50E0 4008            00008 31162  4 2829.                      ST    R14,IOCBFCHN            OLD HEAD NOW NEXT IN LINE
 0022DE 4150 0001            00001 31163  4 2830.                      LA    RK,1
 0022E2 1E5F                       31164  4 2831.                      ALR   RK,R15                  NEW COUNTER
 0022E4 BBE4 7010            00010 31165  4 2832.                      CDS   R14,RJ,IOCTFIOB         UPDATE FREE CHAIN
 0022E8 4770 A138            022DA 31166  3 2833.                    UNTIL Z,END
 0022EC                            31185  2 2834.                  END   ,
 0022EC 0630                       31189  2 2835.                  DECR  RB
 0022EE 4140 4148            00148 31191  2 2836.                  LA    RJ,IOCB+L'IOCB          TO NEXT
 0022F2 47F0 A064            02206 31192  1 2837.                END   ,
 DROP   IOCB,R4
1IOSERV   (IOSE00) (09:40) (22MAR04) ORVYL'S Page/Swap/File I/O Service Subroutines                                         Page  128
0Current Usings:  (IOCB,R2) (IOCT,R7) (GETIOCB,R10) (@MEMGET-72,R13)
0Loc    Object Code    Addr1 Addr2  Stmt Lv Lineno    Source Statement           (Hibal 5, Asmedit 3.3)  HLASM R4.0  2004/03/22 09.40
+___    ______ ____    _____ _____  ____ __ ______    ______ _________
00022F6                            31202    2838.              END   ,
1IOSERV   (IOSE00) (09:40) (22MAR04) ORVYL'S Page/Swap/File I/O Service Subroutines                                         Page  129
0Current Usings:  (IOCB,R2) (IOCT,R7) (GETIOCB,R10) (@MEMGET-72,R13)
0Loc    Object Code    Addr1 Addr2  Stmt Lv Lineno    Source Statement           (Hibal 5, Asmedit 3.3)  HLASM R4.0  2004/03/22 09.40
+___    ______ ____    _____ _____  ____ __ ______    ______ _________
0                                  31207    2840.     *
                                   31208    2841.     *  Reset fields in IOCB and IOSB
                                   31209    2842.     *
 0022F6 9200 20AE      000AE       31210    2843.              CLEAR IOCBFLG
 AUSING (IOSB,IOCBIOSB)            31217    2844.              WITH  (IOSB,IOCBIOSB),BEGIN
 0022FA 92C0 20DC      00000       31227  1 2845.                SET   (IOSFLA.IOSACHN,EQ)     SET CHAIN, CLEAR ERROR
 0022FE 9200 20DF      00003       31235  1 2846.                CLEAR IOSPROC                 CLEAR
 002302                            31242  1 2847.                CLEAR IOSERP                   ERROR
 002302 D703 2110 2110 00034 00034 31248  1          +
 002308                            31249  1 2848.                CLEAR IOSIPIB                   FIELDS
 002308 D703 2108 2108 0002C 0002C 31255  1          +
 00230E 94EF 20DE      00002       31256  1 2849.                CLEAR IOSFLC.IOSEXP           CLEAR SPECIFIC EXPOSURE
                                   31264    2850.              END   ,
 002312 1802                       31267    2851.              LR    RVR,RA                  RETURN IOCB POINTER
 002314 981F C008            00008 31268    2852.              PEND
 DROP   IOCB,R2
 DROP   IOCT,R7
 DROP   GETIOCB,R10
 002318 9680 C000/0B0E 00000       31288             +
 DROP   @MEMGET-72,R13
1IOSERV   (IOSE00) (09:40) (22MAR04) ORVYL'S Page/Swap/File I/O Service Subroutines                                         Page  130
0Loc    Object Code    Addr1 Addr2  Stmt Lv Lineno    Source Statement           (Hibal 5, Asmedit 3.3)  HLASM R4.0  2004/03/22 09.40
+___    ______ ____    _____ _____  ____ __ ______    ______ _________
0                                  31298    2854.     *******************************************************************
                                   31299    2855.     *                                                                 *
                                   31300    2856.     *   RELIOCB - Move IOCBs from complete chain to free chain        *
                                   31301    2857.     *                                                                 *
                                   31302    2858.     *                                                                 *
                                   31303    2859.     *     Input - None                                                *
                                   31304    2860.     *                                                                 *
                                   31305    2861.     *    Output - None                                                *
                                   31306    2862.     *                                                                 *
                                   31307    2863.     *                                                                 *
                                   31308    2864.     *******************************************************************
-
 00231E                            31310    2866.     RELIOCB  PROC  SCOPE=LOCAL
 00231E D9C5D3C9D6C3C240           31315             +
 002326 0000/0000                  31316             +
 00232A 900F D004/18AF       00004 31318             +
 USING  RELIOCB,R10
 002330 50D0 C000/18CD       00000 31333             +
 002336 9680 C000      00000       31335             +
 00233A 41D0 C048            00048 31336             +
 00233E 5870 9004            00004 31337    2867.              WITH  (RTCB,RTCBR),'L  RY,RTCBCBAT'   CBAT POINTER
 USING  RTCB,R9
 DROP   RTCB,R9
 002342 5870 7054            00054 31361    2868.              WITH  (CBAT,RY),'L  RY,CBATIOCT'      IOCT POINTER
 USING  CBAT,R7
 DROP   CBAT,R7
 USING  IOCT,R7                    31385    2869.              WITH  (IOCT,RY)
                                   31398    2870.     *
                                   31399    2871.     *  First remove an IOCB from complete chain
                                   31400    2872.     *
 002346 5820 7018/1222       00018 31401    2873.     RELOOP   WHILE ('LT  RA,IOCTCIOB',NZ),BEGIN    COMPLETE CHAIN
 00234C 4780 A084            023AE 31415             +
 USING  IOCB,R2                    31420  1 2874.                WITH  (IOCB,RA)
 002350 5830 701C            0001C 31433  1 2875.                L     RB,IOCTCIOB+4           COMPLETE CHAIN COUNT
 002354                            31434  1 2876.                LOOP  BEGIN
 002354 1222/4780 A084       023AE 31440  2 2877.                  IF    (RA,Z),EXIT,RELOOP
 00235A 58E0 2008            00008 31457  2 2878.                  L     R14,IOCBFCHN            NEXT IN LINE
 00235E 41F0 0001            00001 31458  2 2879.                  LA    R15,1
 002362 1EF3                       31459  2 2880.                  ALR   R15,RB                  NEW COUNTER
 002364 BB2E 7018            00018 31460  2 2881.                  CDS   RA,R14,IOCTCIOB         UPDATE COMPLETE CHAIN
 002368 4770 A02A            02354 31461  1 2882.                UNTIL Z,END
1IOSERV   (IOSE00) (09:40) (22MAR04) ORVYL'S Page/Swap/File I/O Service Subroutines                                         Page  131
0Current Usings:  (IOCB,R2) (IOCT,R7) (RELIOCB,R10)
0Loc    Object Code    Addr1 Addr2  Stmt Lv Lineno    Source Statement           (Hibal 5, Asmedit 3.3)  HLASM R4.0  2004/03/22 09.40
+___    ______ ____    _____ _____  ____ __ ______    ______ _________
0                                  31481  1 2884.     *
                                   31482  1 2885.     *  THEN MOVE SWAP CCW AREA(S) TO FREE CHAIN
                                   31483  1 2886.     *
 00236C 5840 2018/1244       00018 31484  1 2887.                WHILE ('LT  RJ,IOCBSCCW',NZ),BEGIN
 002372 4780 A06A            02394 31497  1          +
 002376 D203 2018 4000 00018 00000 31502  2 2888.                  MVC   IOCBSCCW,@RJ            CHAIN WORD
 00237C 98EF 7020            00020 31503  2 2889.                  LM    R14,R15,IOCTSWPA        FREE CHAIN & COUNT
 002380                            31504  2 2890.                  LOOP  BEGIN
 002380 50E0 4000            00000 31510  3 2891.                    ST    R14,@RJ                 OLD HEAD NOW NEXT IN LINE
 002384 4150 F001            00001 31511  3 2892.                    LA    RK,@R15+1               NEW COUNTER
 002388 BBE4 7020            00020 31512  3 2893.                    CDS   R14,RJ,IOCTSWPA         UPDATE FREE CHAIN
 00238C 4770 A056            02380 31513  2 2894.                  UNTIL Z,END
 002390 47F0 A042            0236C 31532  1 2895.                END
                                   31537  1 2896.     *
                                   31538  1 2897.     *  NOW ADD IOCB TO AVAILABLE CHAIN
                                   31539  1 2898.     *
 002394 98EF 7010            00010 31540  1 2899.                LM    R14,R15,IOCTFIOB        FREE CHAIN & COUNT
 002398                            31541  1 2900.                LOOP  BEGIN
 002398 50E0 2008            00008 31547  2 2901.                  ST    R14,IOCBFCHN            OLD HEAD NOW NEXT IN LINE
 00239C 4130 0001            00001 31548  2 2902.                  LA    RB,1
 0023A0 1E3F                       31549  2 2903.                  ALR   RB,R15                  NEW COUNTER
 0023A2 BBE2 7010            00010 31550  2 2904.                  CDS   R14,RA,IOCTFIOB         UPDATE FREE CHAIN
 0023A6 4770 A06E            02398 31551  1 2905.                UNTIL Z,END
 0023AA 47F0 A01C            02346 31570    2906.              END
 DROP   IOCB,R2
 0023AE 981F C008            00008 31580    2907.              PEND
 DROP   IOCT,R7
 DROP   RELIOCB,R10
 0023B2 9680 C000/0B0E 00000       31595             +
 0023B8                            31601    2908.              LTORG
 0023B8 0000232A                   31603                             =A(RELIOCB)
 0023BC 00000000                   31604                             =V(POOLGET)
 0023C0 D9C9C3C2                   31605                             =CL4'RICB'
 0023C4 00000000                   31606                             =V(MEMGET)
 0023C8 E2D9C240                   31607                             =C'SRB '
 0023CC 80000016                   31608                             =A(IOTERM+X'80000000')
 0023D0 80C0           023D2 06A98 31609                             =AL1(X'80',X'C0')
1IOSERV   (IOSE00) (09:40) (22MAR04) ORVYL'S Page/Swap/File I/O Service Subroutines                                         Page  132
0Loc    Object Code    Addr1 Addr2  Stmt Lv Lineno    Source Statement           (Hibal 5, Asmedit 3.3)  HLASM R4.0  2004/03/22 09.40
+___    ______ ____    _____ _____  ____ __ ______    ______ _________
0                                  31614    2910.     *******************************************************************
                                   31615    2911.     *                                                                 *
                                   31616    2912.     *   GETSWPA - Obtain a swap CCW work area                         *
                                   31617    2913.     *                                                                 *
                                   31618    2914.     *                                                                 *
                                   31619    2915.     *     Input - None                                                *
                                   31620    2916.     *                                                                 *
                                   31621    2917.     *    Output - RVR contains pointer to IOCB                        *
                                   31622    2918.     *                                                                 *
                                   31623    2919.     *                                                                 *
                                   31624    2920.     *******************************************************************
-
 0023D2                            31626    2922.     GETSWPA  PROC  SCOPE=LOCAL
 0023D2 C7C5E3E2E6D7C140           31631             +
 0023DA 0000/0000                  31632             +
 0023DE 900F D004/18AF       00004 31634             +
 USING  GETSWPA,R10
 0023E4 50D0 C000/18CD       00000 31649             +
 0023EA 9680 C000      00000       31651             +
 0023EE 41D0 C048            00048 31652             +
                                   31653    2923.     *
                                   31654    2924.     *  LOOK FOR AN IDLE WORK AREA
                                   31655    2925.     *
 0023F2 5870 9004            00004 31656    2926.              WITH  (RTCB,RTCBR),'L  RY,RTCBCBAT'   CBAT POINTER
 USING  RTCB,R9
 DROP   RTCB,R9
 0023F6 5870 7054            00054 31680    2927.              WITH  (CBAT,RY),'L  RY,CBATIOCT'      IOCT POINTER
 USING  CBAT,R7
 DROP   CBAT,R7
 USING  IOCT,R7                    31704    2928.              WITH  (IOCT,RY)
 0023FA 9823 7020            00020 31717    2929.              LM    RA,RB,IOCTSWPA          FREE CHAIN & COUNT
 0023FE                            31718    2930.              LOOP  BEGIN
 0023FE 1222/4780 A038       02416 31724  1 2931.                IF    (RA,Z),EXIT             NONE ON THE CHAIN
 002404 58E0 2000            00000 31741  1 2932.                L     R14,@RA                 NEXT IN LINE
 002408 41F0 0001            00001 31742  1 2933.                LA    R15,1
 00240C 1EF3                       31743  1 2934.                ALR   R15,RB                  NEW COUNTER
 00240E BB2E 7020            00020 31744  1 2935.                CDS   RA,R14,IOCTSWPA         UPDATE FREE CHAIN
 002412 4770 A020            023FE 31745    2936.              UNTIL Z,END
                                   31764    2937.     *
                                   31765    2938.     *  NO SWAP AREAS AVAILABLE, CREATE ONE
                                   31766    2939.     *
 002416 1222/4770 A05E       0243C 31767    2940.              IF    (RA,Z),BEGIN
 USING  @MEMORY-72,R13             31781  1 2941.                POOLGET L:IOCTSWPS,SUBPOOL=228  CSA, FIXED, NO FETCH PROT.
 00241C D70B D048 D048 00000 00000 31799  1          +
 002422 5800 7028            00028 31805  1          +
 002426 5000 D04C            00004 31806  1          +
 00242A 92E4 D04A      00002       31807  1          +
 00242E 58F0 A142/0DEF       02520 31810  1          +
 002434 1820                       31812  1 2942.                LR    RA,RVR                  POINTER TO AREA
 002436 D203 2004 7028 00004 00028 31813  1 2943.                MVC   @RA+4(4),IOCTSWPS       SIZE OF THE AREA
 00243C                            31814    2944.              END   ,
                                   31818    2945.     *
                                   31819    2946.     *  RETURN SWAP AREA TO CALLER
                                   31820    2947.     *
1IOSERV   (IOSE00) (09:40) (22MAR04) ORVYL'S Page/Swap/File I/O Service Subroutines                                         Page  133
0Current Usings:  (IOCT,R7) (GETSWPA,R10) (@MEMORY-72,R13)
0Loc    Object Code    Addr1 Addr2  Stmt Lv Lineno    Source Statement           (Hibal 5, Asmedit 3.3)  HLASM R4.0  2004/03/22 09.40
+___    ______ ____    _____ _____  ____ __ ______    ______ _________
000243C 1802                       31821    2948.              LR    RVR,RA                  RETURN POINTER
 00243E 981F C008            00008 31822    2949.              PEND
 DROP   IOCT,R7
 DROP   GETSWPA,R10
 002442 9680 C000/0B0E 00000       31837             +
 DROP   @MEMORY-72,R13
1IOSERV   (IOSE00) (09:40) (22MAR04) ORVYL'S Page/Swap/File I/O Service Subroutines                                         Page  134
0Loc    Object Code    Addr1 Addr2  Stmt Lv Lineno    Source Statement           (Hibal 5, Asmedit 3.3)  HLASM R4.0  2004/03/22 09.40
+___    ______ ____    _____ _____  ____ __ ______    ______ _________
0                                  31847    2951.     *******************************************************************
                                   31848    2952.     *                                                                 *
                                   31849    2953.     *   BLKCCHHR - Convert relative block to disk address             *
                                   31850    2954.     *                                                                 *
                                   31851    2955.     *                                                                 *
                                   31852    2956.     *     Input - @BCH                                                *
                                   31853    2957.     *                                                                 *
                                   31854    2958.     *    Output - @BCH                                                *
                                   31855    2959.     *                                                                 *
                                   31856    2960.     *                                                                 *
                                   31857    2961.     *******************************************************************
-
 002448                            31859    2963.     BLKCCHHR PROC  @BCH,SCOPE=LOCAL
 002448 C2D3D2C3C3C8C8D9           31864             +
 002450 0018/0000                  31865             +
 002454 900F D004/18AF       00004 31867             +
 USING  BLKCCHHR,R10
 00245A 50D0 C000/18CD       00000 31882             +
 002460 9680 C000      00000       31884             +
 USING  @BCH-72,R12
 002464 41D0 C060            00060 31898             +
 002468 5860 C048            00000 31899    2964.              L     RX,@BCHDSID             GET DDB POINTER
 USING  DDB,R6                     31900    2965.              WITH  (DDB,RX)
 00246C 5830 C04C            00004 31913    2966.              L     RB,@BCHBLK
 002470 5930 6030            00030 31914    2967.              IF    (RB,GE,DDBBLKCT),'KAPUT BLKCT'
 002474 4750 A034            02488 31926             +
 002478 4110 0001            00001 31939  1          +
 00247C 4100 0080            00080 31940  1          +
 002480 8900 0018/1610       00018 31941  1          +
 002486 0A0D                       31943             +
                                   31948    2968.     *
                                   31949    2969.     *  PARAMETERS OK, CONVERT TO TTR
                                   31950    2970.     *
 002488 1B22                       31951    2971.              CLEAR RA
 00248A 5D20 6034            00034 31955    2972.              D     RA,DDBBT                CALCULATE TTR
 00248E 5810 6014            00014 31956    2973.              L     RS,DDBRPS               RPS SECTOR TABLE
 002492 1211/4780 A04C       024A0 31957    2974.              IF    (RS,NZ),BEGIN           FOR RPS DEVICES
 002498 4312 1000            00000 31971  1 2975.                IC    RS,@RS(RA)              GET PROPER SECTOR NUMBER
 00249C 4210 C050            00008 31972  1 2976.                STC   RS,@BCHSECT              AND PUT IN PARM AREA
 0024A0                            31973    2977.              END   ,
 0024A0 5E20 A0D0            02524 31977    2978.              INCR  RA                      BUMP (CAN'T USE ZERO)
 0024A4 4220 C058            00010 31980    2979.              STC   RA,@BCHSKR              SET BLOCK NUMBER
1IOSERV   (IOSE00) (09:40) (22MAR04) ORVYL'S Page/Swap/File I/O Service Subroutines                                         Page  135
0Current Usings:  (DDB,R6) (BLKCCHHR,R10) (@BCH-72,R12)
0Loc    Object Code    Addr1 Addr2  Stmt Lv Lineno    Source Statement           (Hibal 5, Asmedit 3.3)  HLASM R4.0  2004/03/22 09.40
+___    ______ ____    _____ _____  ____ __ ______    ______ _________
0                                  31982    2981.     *
                                   31983    2982.     *  FIND PROPER DEB EXTENT
                                   31984    2983.     *
 0024A8 5820 6010            00010 31985    2984.              L     RA,DDBDEB               DEB
 USING  DEBBASIC,R2                31986    2985.              USING DEBBASIC,RA
 0024AC 1FFF/43F0 2010       00034 31995    2986.              LC    R15,DEBNMEXT            NUMBER OF EXTENTS
 0024B2 4120 2020            00044 32002    2987.              LA    RA,DEBBASND             POINT AT EXTENT TABLE
 DROP   DEBBASIC,R2                32003    2988.              USING DEBDASD,RA
 USING  DEBDASD,R2
 0024B6 1B11                       32015    2989.              CLEAR RS
 0024B8 1F44/BF43 200E       0000E 32019    2990.     SEEKLOOP L2    RJ,DEBNMTRK             TRACK COUNT THIS EXTENT
 0024BE 1934/4740 A08E       024E2 32025    2991.              IF    (RB,LT,RJ),SETSEEK      BLOCK IS IN THIS EXTENT
 0024C4 1B34                       32043    2992.              SR    RB,RJ                   DECREMENT BY NUMBER OF TRACKS
 0024C6 4120 2010            00010 32044    2993.              LA    RA,DEBDASDE             POINT AT NEXT EXTENT
 0024CA 5E10 A0D0            02524 32045    2994.              INCR  RS                       AND COUNT IT
 0024CE 46F0 A064            024B8 32048    2995.              BCT   R15,SEEKLOOP            KEEP LOOKING
 0024D2 4110 0001            00001 32049    2996.              KAPUT TTR                     OY!
 0024D6 4100 0080            00080 32057             +
 0024DA 8900 0018/1610       00018 32058             +
 0024E0 0A0D                       32060             +
 0024E2 D205 C052 2004 0000A 00004 32061    2997.     SETSEEK  MVC   @BCHSKBB(6),DEBBINUM    SET EXTENT STARTING BBCCHH
 DROP   DEBDASD,R2                 32062    2998.              DROP  RA                      ##
                                   32069    2999.     *
                                   32070    3000.     *  CALCULATE SEEK ADDRESS
                                   32071    3001.     *
 0024E8 4210 C051            00009 32072    3002.              STC   RS,@BCHSKM              SET EXTENT NUMBER
 0024EC 1B22                       32073    3003.              CLEAR RA
 0024EE 5D20 6074            00074 32077    3004.              D     RA,DDBTRC               DIVIDE BY TRACKS/CYLINDER
 0024F2 4A20 C056            0000E 32078    3005.              AH    RA,@BCHSKHH             CALCULATE PROPER TRACK
 0024F6 5920 6074            00074 32079    3006.              IF    (RA,GE,DDBTRC),BEGIN    NEXT CYLINDER?
 0024FA 4750 A0B2            02506 32091             +
 0024FE 5B20 6074            00074 32096  1 3007.                S     RA,DDBTRC               DECREMENT TRACK NUMBER
 002502 5E30 A0D0            02524 32097  1 3008.                INCR  RB                       AND INCREMENT CYLINDER
 002506                            32100    3009.              END   ,
 002506 4020 C056            0000E 32104    3010.              STH   RA,@BCHSKHH             SET CORRECT TRACK
 00250A 4A30 C054            0000C 32105    3011.              AH    RB,@BCHSKCC             CALCULATE
 00250E 4030 C054            0000C 32106    3012.              STH   RB,@BCHSKCC              AND SAVE PROPER CYLINDER
 002512 981F C008            00008 32107    3013.              PEND
 DROP   DDB,R6
 DROP   @BCH-72,R12
 DROP   BLKCCHHR,R10
 002516 9680 C000/0B0E 00000       32127             +
 002520                            32133    3014.              LTORG
 002520 00000000                   32135                             =V(POOLGET)
 002524 00000001       02528 06A98 32136                             =A(1)
1IOSERV   (IOSE00) (09:40) (22MAR04) ORVYL'S Page/Swap/File I/O Service Subroutines                                         Page  136
0Loc    Object Code    Addr1 Addr2  Stmt Lv Lineno    Source Statement           (Hibal 5, Asmedit 3.3)  HLASM R4.0  2004/03/22 09.40
+___    ______ ____    _____ _____  ____ __ ______    ______ _________
0                                  32141    3016.     *******************************************************************
                                   32142    3017.     *                                                                 *
                                   32143    3018.     *   STARTIO - Initiate I/O request                                *
                                   32144    3019.     *                                                                 *
                                   32145    3020.     *                                                                 *
                                   32146    3021.     *     Input - @SIO                                                *
                                   32147    3022.     *                                                                 *
                                   32148    3023.     *    Output - None                                                *
                                   32149    3024.     *                                                                 *
                                   32150    3025.     *                                                                 *
                                   32151    3026.     *******************************************************************
-
 002528                            32153    3028.     STARTIO  PROC  @SIO,SCOPE=LOCAL
 002528 E2E3C1D9E3C9D640           32158             +
 002530 0008/0000                  32159             +
 002534 900F D004/18AF       00004 32161             +
 USING  STARTIO,R10
 00253A 50D0 C000/18CD       00000 32176             +
 002540 9680 C000      00000       32178             +
 USING  @SIO-72,R12
 002544 41D0 C050            00050 32192             +
 002548 5860 C048            00000 32193    3029.              L     RX,@SIOIOCB             IOCB POINTER
 USING  IOCB,R6                    32194    3030.              WITH  (IOCB,RX)
 00254C 4130 60DC            000DC 32207    3031.              LA    RB,IOCBIOSB             IOSB POINTER
 USING  IOSB,R3                    32208    3032.              WITH  (IOSB,RB)
                                   32221    3033.     *
                                   32222    3034.     *  FIRST GET KEY ZERO AND LOCAL LOCK
                                   32223    3035.     *
                                   32225    3037.              MODESET EXTKEY=ZERO,SAVEKEY=(2)  GET INTO KEY ZERO
                                   32226             +* MACDATE Y-3 81030                                                @D1A
 002550 B20B 0000                  32227    01-MODES +         IPK   0(0)               SAVE CURRENT PSW KEY
 002554 B20A 0000      00000       32228    01-MODES +         SPKA  0(0)                SET PSW KEY
                                   32229    3038.              SETLOCK OBTAIN,TYPE=LOCAL,MODE=UNCOND,REGS=USE,RELATED=SIO
                                   32235             +*        MACDATE = 09/15/87
 002558 18FB                       32236    02-SETLO +         LR    15,11                    SAVE REGISTER 11
 00255A 180C                       32237    02-SETLO +         LR    0,12                     SAVE REGISTER 12
 00255C 181D                       32238    02-SETLO +         LR    1,13                     SAVE REGISTER 13
 00255E 58E0 02FC            002FC 32239    02-SETLO +         L     14,PSALITA-FLC(0,0)      LOCK INTERFACE TABLE ADDR  @P1A
 002562 58DE 0248            00248 32240    02-SETLO +         L     13,584(14,0)             LOAD ADDRESS OF LOCK RTN   @L2C
 002566 05ED                       32241    02-SETLO +         BALR  14,13                    BRANCH ENTER LOCK ROUTINE
 002568 18BF                       32242    02-SETLO +         LR    11,15                    RESTORE REGISTER 11
 00256A 18FD                       32243    02-SETLO +         LR    15,13                    PUT RETURN CODE IN REGISTER 15
 00256C 18C0                       32244    02-SETLO +         LR    12,0                     RESTORE REGISTER 12
 00256E 18D1                       32245    02-SETLO +         LR    13,1                     RESTORE REGISTER 13
1IOSERV   (IOSE00) (09:40) (22MAR04) ORVYL'S Page/Swap/File I/O Service Subroutines                                         Page  137
0Current Usings:  (IOSB,R3) (IOCB,R6) (STARTIO,R10) (@SIO-72,R12)
0Loc    Object Code    Addr1 Addr2  Stmt Lv Lineno    Source Statement           (Hibal 5, Asmedit 3.3)  HLASM R4.0  2004/03/22 09.40
+___    ______ ____    _____ _____  ____ __ ______    ______ _________
0                                  32247    3040.     *
                                   32248    3041.     *  ISSUE STARTIO
                                   32249    3042.     *
 002570 900F D000            00000 32250    3043.              STM   R0,R15,@R13             SAVE REGS
 002574 B205 6028      00028       32251    3044.              STCK  IOCBSTRT                TIME
 002578 4110 60B0            000B0 32252    3045.              LA    R1,IOCBSRB              SRB POINTER
                                   32253    3046.              STARTIO SRB=(1),TCB=SRB
 00257C 1111                       32254    01-START +         LNR   1,1                         SRB PARAMETER REG
 00257E 58F0 0010            00010 32255    01-START +         L     15,CVTPTR(0,0)              CVT ADDRESS
 002582 58F0 F07C            0007C 32256    01-START +         L     15,CVTIXAVL-CVTMAP(,15)     IOCOM ADDRESS
 002586 58F0 F01C            0001C 32257    01-START +         L     15,IOCSTIO-IOCOM(,15)       START SUBCHANNEL
                                   32258             +*                                          COMPATIBILITY RTN
 00258A 05EF                       32259    01-START +         BALR  14,15                       INITIATE THE I/O
 00258C 980F D000            00000 32260    3047.              LM    R0,R15,@R13             RESTORE REGS
                                   32261    3048.     *
                                   32262    3049.     *  FREE LOCAL LOCK AND GO BACK TO NORMAL KEY
                                   32263    3050.     *
                                   32264    3051.              SETLOCK RELEASE,TYPE=LOCAL,REGS=USE,RELATED=SIO
                                   32270             +*        MACDATE = 09/15/87
 002590 18FB                       32271    02-SETLO +         LR    15,11                    SAVE REGISTER 11
 002592 180C                       32272    02-SETLO +         LR    0,12                     SAVE REGISTER 12
 002594 181D                       32273    02-SETLO +         LR    1,13                     SAVE REGISTER 13
 002596 58E0 02FC            002FC 32274    02-SETLO +         L     14,PSALITA-FLC(0,0)      LOCK INTERFACE TABLE ADDR  @P1A
 00259A 58DE 0254            00254 32275    02-SETLO +         L     13,596(14,0)             LOAD ADDRESS OF LOCK RTN   @L2C
 00259E 05ED                       32276    02-SETLO +         BALR  14,13                    BRANCH ENTER LOCK ROUTINE
 0025A0 18BF                       32277    02-SETLO +         LR    11,15                    RESTORE REGISTER 11
 0025A2 18FD                       32278    02-SETLO +         LR    15,13                    PUT RETURN CODE IN REGISTER 15
 0025A4 18C0                       32279    02-SETLO +         LR    12,0                     RESTORE REGISTER 12
 0025A6 18D1                       32280    02-SETLO +         LR    13,1                     RESTORE REGISTER 13
                                   32281    3052.              MODESET KEYADDR=(2)           BACK TO OUR KEY
                                   32282             +* MACDATE Y-3 81030                                                @D1A
 0025A8 B20A 2000      00000       32283    01-MODES +         SPKA  0(2)                SET PSW KEY
 0025AC 1B00                       32285    3054.              CLEAR RVR                     RETURN CODE
 0025AE 981F C008            00008 32289    3055.              PEND
 DROP   IOSB,R3
 DROP   IOCB,R6
 DROP   @SIO-72,R12
 DROP   STARTIO,R10
 0025B2 9680 C000/0B0E 00000       32314             +
 0025B8                025B8 06A98 32320    3056.              LTORG
1IOSERV   (IOSE00) (09:40) (22MAR04) ORVYL'S SCOM I/O Service Routines                                                      Page  138
0Loc    Object Code    Addr1 Addr2  Stmt Lv Lineno    Source Statement           (Hibal 5, Asmedit 3.3)  HLASM R4.0  2004/03/22 09.40
+___    ______ ____    _____ _____  ____ __ ______    ______ _________
0                                  32327    3059.              COPY  SCOMPARM
                                   32328             =*****************************************************************
                                   32329             =*                                                               *
                                   32330             =*  SCOMPARM -- I/O parameters for SCOM devices (paths)          *
                                   32331             =*                                                               *
                                   32332             =*****************************************************************
-                                  32334             =*
                                   32335             =* Prefix for every request
                                   32336             =*
0000000                00000 00004 32338             =#SCOMCMD RECORD BEGIN
 000000                            32346  1          =#SCCMD     DS    A             Request code
                                   32347  1          =*
                                   32348  1          =* SCOM I/O command codes
                                   32349  1          =*
                                   32350  1          =#SCCOPEN   EQU   4             Open the path
                                   32351  1          =#SCCCLOS   EQU   8             Close the path
                                   32352  1          =#SCCSEND   EQU   12            Send a buffer
                                   32353  1          =#SCCRECV   EQU   16            Receive a buffer
                                   32354  1          =#SCCPOST   EQU   32            Post partner
                                   32355  1          =#SCCINFO   EQU   36            Get info about the Path
                                   32356  1          =#SCCNOTE   EQU   40            Notify (Wait for post/Return flags)
                                   32357  1          =*
                                   32358  1          =* Ending status
                                   32359  1          =*
                                   32360  1          =#SCESOK    EQU   0             OK (OPEN,CLOS,POST,SEND,RECV,INFO)
                                   32361  1          =#SCESFQ    EQU   12            Full queue (SEND)
                                   32362  1          =#SCESNP    EQU   16            No partner (POST,SEND,RECV,INFO)
                                   32363  1          =#SCESBOM   EQU   20            Buffer over maximum (SEND)
                                   32364  1          =#SCESBS    EQU   24            Input buffer too small (RECV)
                                   32365  1          =#SCESIBP   EQU   28            Invalid buffer pointer (SEND,RECV)
                                   32366  1          =#SCESIAD   EQU   32            Invalid address (SEND,RECV)
 000004                00004 00004 32367             =         END   ,
-                                  32377             =*
                                   32378             =* SCOM Open request format
                                   32379             =*
0000000                00000 00020 32381             =#SCOPEN  RECORD BEGIN
 000000                            32389  1          =           DS    XL(L'#SCOMCMD)
 000004                            32390  1          =#SCOME     DS    CL8           My name
 00000C                            32391  1          =#SCOYOU    DS    CL8           Your name
 000014                            32392  1          =#SCOPASS   DS    CL4           Password
 000018                            32393  1          =#SCOBUFL   DS    A             Max size of outstanding receive buffs
 00001C                            32394  1          =#SCOINFO   DS    A             Pointer to Info Area
 000020                00020 00020 32395             =         END   ,
-                                  32405             =*
                                   32406             =* SCOM Close request format
                                   32407             =*
0000000                00000 00004 32409             =#SCCLOSE RECORD BEGIN
1IOSERV   (IOSE00) (09:40) (22MAR04) ORVYL'S SCOM I/O Service Routines                                                      Page  139
0Loc    Object Code    Addr1 Addr2  Stmt Lv Lineno    Source Statement           (Hibal 5, Asmedit 3.3)  HLASM R4.0  2004/03/22 09.40
+___    ______ ____    _____ _____  ____ __ ______    ______ _________
0000000                            32417  1          =           DS    XL(L'#SCOMCMD)
 000004                00004 00004 32418             =         END   ,
-                                  32428             =*
                                   32429             =* SCOM Post request format
                                   32430             =*
0000000                00000 00004 32432             =#SCPOST  RECORD BEGIN
 000000                            32440  1          =           DS    XL(L'#SCOMCMD)
 000004                00004 00004 32441             =         END   ,
-                                  32451             =*
                                   32452             =* SCOM Send/Receive request format
                                   32453             =*
0000000                00000 00018 32455             =#SCSR    RECORD BEGIN
 000000                            32463  1          =           DS    XL(L'#SCOMCMD)
 000004                            32464  1          =#SCSRLEN   DS    A             Total length of the buffer
 000008                            32465  1          =#SCSRCT    DS    A             Number of segments
 00000C 00                         32466  1          =#SCSRFLG   FLAG
 #SCSRFLG.#SCRMORE 80 ONES         32470  1          =           FLAG  #SCRMORE      Additional buffers waiting (Receive)
 #SCSRFLG.#SCRNONE 40 ONES         32475  1          =           FLAG  #SCRNONE      No buffers were waiting (Receive)
 000010                            32480  1          =#SCSRRLN   DS    A             Actual length returned (Receive)
 000018                            32481  1          =#SCSRSEG   DS    0D            Start of the segments
 000018                00018 00018 32482             =         END   ,
-                                  32492             =*
                                   32493             =* SCOM Info request format
                                   32494             =*
0000000                00000 00010 32496             =#SCINFO  RECORD BEGIN
 000000                            32504  1          =           DS    XL(L'#SCOMCMD)
 000004                            32505  1          =#SCIPART   DS    CL8           Partner's name (path name)
 00000C                            32506  1          =#SCIASCB   DS    A             Address of the partner's ASCB (MVS virt)
 000010                00010 00010 32507             =         END   ,
-                                  32517             =*
                                   32518             =* SCOM Notify request format
                                   32519             =*
0000000                00000 00004 32521             =#SCNOTE  RECORD BEGIN
 000000                            32529  1          =           DS    XL(L'#SCOMCMD)
 000004                00004 00004 32530             =         END   ,
1IOSERV   (IOSE00) (09:40) (22MAR04) ORVYL'S SCOM I/O Service Routines                                                      Page  140
0Loc    Object Code    Addr1 Addr2  Stmt Lv Lineno    Source Statement           (Hibal 5, Asmedit 3.3)  HLASM R4.0  2004/03/22 09.40
+___    ______ ____    _____ _____  ____ __ ______    ______ _________
0                                  32540    3061.     *******************************************************************
                                   32541    3062.     *                                                                 *
                                   32542    3063.     *     SCIOWORK - SCOM operations work area                        *
                                   32543    3064.     *                                                                 *
                                   32544    3065.     *******************************************************************
0000000                00000 0001D 32546    3067.     SCIOWORK RECORD BEGIN
 000000                            32554  1 3068.     SCIOPATH   DS    A                       Address of path to be opened
 000004                            32555  1 3069.     SCIOINBL   DS    A                       Buffer list for INFO request
 000008                            32556  1 3070.     SCIOINFO   DS    5A                      SCOM info answer area
 00001C                            32557  1 3071.     SCIOCMD    DS    X                       SCOM command code
                                   32558  1 3072.                SCOM  TABLE                   SCOM Operation codes
                                   32559  1 01-SCOM  +OPEN       EQU   0
                                   32560  1 01-SCOM  +CLOSE      EQU   4
                                   32561  1 01-SCOM  +SEND       EQU   8
                                   32562  1 01-SCOM  +GET        EQU   12
                                   32563  1 01-SCOM  +LOCATE     EQU   16
                                   32564  1 01-SCOM  +FREELOC    EQU   20
                                   32565  1 01-SCOM  +FREE       EQU   24
                                   32566  1 01-SCOM  +POST       EQU   28
                                   32567  1 01-SCOM  +INFO       EQU   32
 00001D                0001D 0001D 32568    3073.              END   ,
-
                                   32578    3075.     *******************************************************************
                                   32579    3076.     *                                                                 *
                                   32580    3077.     *    @SCOMDB - SCOM close work area                               *
                                   32581    3078.     *                                                                 *
                                   32582    3079.     *******************************************************************
0000000                00000 00004 32584    3081.     @SCOMDB  RECORD BEGIN
 000000                            32592  1 3082.     @SCOMSDB   DS    A                       PATH ID
 000004                00004 00004 32593    3083.              END
-
                                   32603    3085.     *******************************************************************
                                   32604    3086.     *                                                                 *
                                   32605    3087.     *    @DOSCOM - Parameters passed to SCOM drivers                  *
                                   32606    3088.     *                                                                 *
                                   32607    3089.     *******************************************************************
0000000                00000 00010 32609    3091.     @DOSCOM  RECORD BEGIN
 000000                            32617  1 3092.     @DOSCPRM   DS    A                       User parm pointer
 000004                            32618  1 3093.     @DOSCSDB   DS    A                       SDB Pointer
 000008                            32619  1 3094.     @DOSCIRB   DS    A                       IORB Pointer
 00000C                            32620  1 3095.     @DOSCRC    DS    A                       Return code
 000010                00010 00010 32621    3096.              END   ,
1IOSERV   (IOSE00) (09:40) (22MAR04) ORVYL'S SCOM I/O Service Routines                                                      Page  141
0Loc    Object Code    Addr1 Addr2  Stmt Lv Lineno    Source Statement           (Hibal 5, Asmedit 3.3)  HLASM R4.0  2004/03/22 09.40
+___    ______ ____    _____ _____  ____ __ ______    ______ _________
0                                  32631    3098.     *******************************************************************
                                   32632    3099.     *                                                                 *
                                   32633    3100.     *    SCOM FUNCTION TABLE                                          *
                                   32634    3101.     *                                                                 *
                                   32635    3102.     *******************************************************************
0002C02                02C02 06A98 32637    3104.              DATA  BEGIN
 002C02 0000                              1
 002C04 00000000                   32642  1 3105.     SCOMTAB    DC    A(0)
 002C08 00002652                   32643  1 3106.                DC    A(SCOPEN)               OPEN
 002C0C 00002748                   32644  1 3107.                DC    A(SCCLOSE)              CLOSE
 002C10 000027FE                   32645  1 3108.                DC    A(SCSEND)               SEND
 002C14 000028BE                   32646  1 3109.                DC    A(SCRECV)               RECEIVE
 002C18 00000000                   32647  1 3110.                DC    A(0)                    RESERVED
 002C1C 00000000                   32648  1 3111.                DC    A(0)                    RESERVED
 002C20 00000000                   32649  1 3112.                DC    A(0)                    RESERVED
 002C24 000029A0                   32650  1 3113.                DC    A(SCPOST)               POST
 002C28 000029E2                   32651  1 3114.                DC    A(SCINFO)               GET INFO
 002C2C 00002A64                   32652  1 3115.                DC    A(SCNTFY)               NOTIFY
                                   32653  1 3116.     SCOMMAX    EQU   *-SCOMTAB-4             MAXIMUM
 0025B8                025B8 06A98 32654    3117.              END   ,
1IOSERV   (IOSE00) (09:40) (22MAR04) ORVYL'S SCOM I/O Service Routines                                                      Page  142
0Loc    Object Code    Addr1 Addr2  Stmt Lv Lineno    Source Statement           (Hibal 5, Asmedit 3.3)  HLASM R4.0  2004/03/22 09.40
+___    ______ ____    _____ _____  ____ __ ______    ______ _________
0                                  32661    3119.     *******************************************************************
                                   32662    3120.     *                                                                 *
                                   32663    3121.     *   SCOMIO  - Do SCOM Transactions                                *
                                   32664    3122.     *                                                                 *
                                   32665    3123.     *                                                                 *
                                   32666    3124.     *     Input - @DOIO                                               *
                                   32667    3125.     *                                                                 *
                                   32668    3126.     *    Output -                                                     *
                                   32669    3127.     *                                                                 *
                                   32670    3128.     *                                                                 *
                                   32671    3129.     *******************************************************************
-
 0025B8                            32673    3131.     SCOMIO   PROC  @DOIO,SCOPE=LOCAL
 0025B8 E2C3D6D4C9D64040           32678             +
 0025C0 0010/0000                  32679             +
 0025C4 900F D004/18AF       00004 32681             +
 USING  SCOMIO,R10
 0025CA 50D0 C000/18CD       00000 32696             +
 0025D0 9680 C000      00000       32698             +
 USING  @DOIO-72,R12
 0025D4 41D0 C058            00058 32712             +
 0025D8 5860 C04C            00004 32713    3132.              L     RX,@DODSID              PATH BLOCK POINTER
 USING  COMDB,R6                   32714    3133.              WITH  (COMDB,RX),BEGIN
 0025DC                            32728  1 3134.                IF    (COMDBID,NE,=CL4'SDB'),'KAPUT SCOMIO'
 0025DC D503 A604 6000 02BC8 00000 32739  1          +
 0025E2 4780 A032            025F6 32740  1          +
 0025E6 4110 0001            00001 32753  2          +
 0025EA 4100 0080            00080 32754  2          +
 0025EE 8900 0018/1610       00018 32755  2          +
 0025F4 0A0D                       32757  1          +
 DROP   COMDB,R6                   32762    3135.              END   ,
                                   32770    3136.     *
                                   32771    3137.     *  VALIDATE COMMAND CODE
                                   32772    3138.     *
 0025F6 5870 C048            00000 32773    3139.              L     RY,@DOUPRM              USER PARAMETERS
 0025FA 5810 7000            00000 32774    3140.              WITH  (#SCOMCMD,RY),'L  RS,#SCCMD'    FUNCTION CODE
 USING  #SCOMCMD,R7
 DROP   #SCOMCMD,R7
 0025FE 1211/47D0 A048       0260C 32798    3141.              IF    ((RS,NP),OR,(RS,GT,SCOMMAX)),'KAPUT SCOMCMD'
 002604 5910 A608            02BCC 32822             +
 002608 47D0 A058            0261C 32823             +
 00260C 4110 0001            00001 32836  1          +
 002610 4100 0080            00080 32837  1          +
 002614 8900 0018/1610       00018 32838  1          +
 00261A 0A0D                       32840             +
1IOSERV   (IOSE00) (09:40) (22MAR04) ORVYL'S SCOM I/O Service Routines                                                      Page  143
0Current Usings:  (SCOMIO,R10) (@DOIO-72,R12)
0Loc    Object Code    Addr1 Addr2  Stmt Lv Lineno    Source Statement           (Hibal 5, Asmedit 3.3)  HLASM R4.0  2004/03/22 09.40
+___    ______ ____    _____ _____  ____ __ ______    ______ _________
0                                  32846    3143.     *
                                   32847    3144.     *  Send request to driver
                                   32848    3145.     *
 USING  @DOSCOM-72,R13             32849    3146.              PSET  @DOSCOM
 00261C D70F D048 D048 00000 00000 32866             +
 002622 5060 D04C            00004 32867    3147.              ST    RX,@DOSCSDB             SDB pointer
 002626 5070 D048            00000 32868    3148.              ST    RY,@DOSCPRM             User parameter address
 00262A D203 D050 C050 00008 00008 32869    3149.              MVC   @DOSCIRB,@DOIORB        IORB Pointer
 002630 58F1 A640/0DEF       02C04 32870    3150.              ACALL SCOMTAB(RS)             CALL FUNCTION ROUTINE
 002636 D203 C054 D054 0000C 0000C 32877    3151.              MVC   @DORC,@DOSCRC           Set return code
 00263C 981F C008            00008 32878    3152.              PEND
 DROP   @DOIO-72,R12
 DROP   SCOMIO,R10
 002640 9680 C000/0B0E 00000       32893             +
 DROP   @DOSCOM-72,R13
1IOSERV   (IOSE00) (09:40) (22MAR04) ORVYL'S SCOM I/O Service Routines                                                      Page  144
0Loc    Object Code    Addr1 Addr2  Stmt Lv Lineno    Source Statement           (Hibal 5, Asmedit 3.3)  HLASM R4.0  2004/03/22 09.40
+___    ______ ____    _____ _____  ____ __ ______    ______ _________
0                                  32903    3154.     *******************************************************************
                                   32904    3155.     *                                                                 *
                                   32905    3156.     *   SCOPEN  - Process SCOM Open request                           *
                                   32906    3157.     *                                                                 *
                                   32907    3158.     *                                                                 *
                                   32908    3159.     *     Input -                                                     *
                                   32909    3160.     *                                                                 *
                                   32910    3161.     *    Output -                                                     *
                                   32911    3162.     *                                                                 *
                                   32912    3163.     *                                                                 *
                                   32913    3164.     *******************************************************************
-
 002646                            32915    3166.     SCOPEN   PROC  @DOSCOM,SCIOWORK,SCOPE=LOCAL
 002646 E2C3D6D7C5D54040           32920             +
 00264E 0010/0020                  32921             +
 002652 900F D004/18AF       00004 32923             +
 USING  SCOPEN,R10
 002658 50D0 C000/18CD       00000 32938             +
 00265E 9680 C000      00000       32940             +
 USING  @DOSCOM-72,R12
 AUSING (SCIOWORK,@DOSCOM+16)
 002662 41D0 C078            00078 32959             +
 002666 5860 C04C            00004 32960    3167.              L     RX,@DOSCSDB             SDB POINTER
 USING  SDB,R6                     32961    3168.              WITH  (SDB,RX)
 00266A 5870 C048            00000 32974    3169.              L     RY,@DOSCPRM             USER PARAMETERS
 USING  #SCOPEN,R7                 32975    3170.              WITH  (#SCOPEN,RY)
                                   32988    3171.     *
                                   32989    3172.     *  SET UP USER SUPPLIED FIELDS
                                   32990    3173.     *
 00266E D207 6028 7004 00028 00004 32991    3174.              MVC   PATHMY(8),#SCOME        GET NAMES
 002674 D207 6030 700C 00030 0000C 32992    3175.              MVC   PATHYOU(8),#SCOYOU
 00267A D203 6044 7014 00044 00014 32993    3176.              MVC   PATHPASS(4),#SCOPASS     AND PASSWORD
 002680 D507 6030 A56E 00030 02BC0 32994    3177.              CLC   PATHYOU,=8X'FF'         SPECIFIC YOURNAME?
 002686 4780 A03C            0268E 32995    3178.              IF    NE,'SET  PATHMFL.PATHMNAM'    YES, NOTE IT
 00268A 9620 6038      00038       33013             +
 00268E D203 603C 7018 0003C 00018 33018    3179.              MVC   PATHBUF,#SCOBUFL        SET BUFFER SIZE
                                   33019    3180.     *
                                   33020    3181.     *  If Caller has set up Info area copy it in
                                   33021    3182.     *
 002694 5820 701C/1222       0001C 33022    3183.              IF    ('LT RA,#SCOINFO',NZ),BEGIN    INFO POINTER
 00269A 4780 A07C            026CE 33033             +
 00269E 5830 C050            00008 33038  1 3184.                L     RB,@DOSCIRB
 0026A2 5E20 3004            00004 33039  1 3185.                WITH  (@IORB,RB),'AL  RA,@IOROFF'    TO MVS VIRTUAL ADDRESS
 USING  @IORB,R3
 DROP   @IORB,R3
 0026A6 4130 0004            00004 33063  1 3186.                LA    RB,4
 0026AA 5E30 2000            00000 33064  1 3187.                AL    RB,@RA                  First word is length
 USING  @MEMGET-72,R13             33065  1 3188.                MEMGET (RB),TYPE=GLOBAL
 0026AE D709 D048 D048 00000 00000 33084  1          +
 0026B4 5030 D04C            00004 33085  1          +
 0026B8 9213 D051      00009       33099  1          +
 0026BC 58F0 A57E/0DEF       02BD0 33102  1          +
 0026C2 1810                       33104  1 3189.                LR    RS,RVR
 0026C4 0630/4430 A5DE       02C30 33105  1 3190.                DEX   RB,'MVC  @RS(0),@RA'    Copy the Data
1IOSERV   (IOSE00) (09:40) (22MAR04) ORVYL'S SCOM I/O Service Routines                                                      Page  145
0Current Usings:  (SDB,R6) (#SCOPEN,R7) (SCOPEN,R10) (@DOSCOM-72,R12) (@MEMGET-72,R13)
0Loc    Object Code    Addr1 Addr2  Stmt Lv Lineno    Source Statement           (Hibal 5, Asmedit 3.3)  HLASM R4.0  2004/03/22 09.40
+___    ______ ____    _____ _____  ____ __ ______    ______ _________
0002C30 D200 1000 2000 00000 00000 33116  1          +
 0026CA 5010 6050            00050 33124  1 3191.                ST    RS,PATHPINP             Address TO PATH BLOCK
 0026CE                            33125    3192.              END   ,
                                   33129    3193.     *
                                   33130    3194.     *  SET UP INTERNAL FIELDS
                                   33131    3195.     *
 0026CE 9680 6038      00038       33132    3196.              SET   PATHMFL.PATHVER2        NOTE MODE 2 OPERATION
 0026D2 4110 601C            0001C 33139    3197.              LA    RS,SDBPFL               POST FLAG
 0026D6 5010 6040            00040 33140    3198.              ST    RS,PATHECBF              SET
                                   33141    3199.     *
                                   33142    3200.     *  Create message buffer and send to subtask
                                   33143    3201.     *
 0026DA 5840 90A8            000A8 33144    3202.              WITH  (RTCB,RTCBR),'L  RJ,RTCBIOT'   IOT POINTER
 USING  RTCB,R9
 DROP   RTCB,R9
 USING  IOT,R4                     33168    3203.              WITH  (IOT,RJ)
 0026DE 5800 4004            00004 33181    3204.              MSGGBUF IOTSTMC,L'$SCMIMSG
 DROP   @MEMGET-72,R13
 USING  @MSGGBUF-72,R13
 0026E2 5000 D048            00000 33200             +
 0026E6 4100 0015            00015 33207             +
 0026EA 5000 D04C            00004 33208             +
 0026EE 58F0 A582/0DEF       02BD4 33211             +
 0026F4 1850                       33213    3205.              LR    RK,RVR                  MESSAGE BUFFER
 USING  $SCMIMSG,R5                33214    3206.              WITH  ($SCMIMSG,RK)
 0026F6 5060 5000            00000 33227    3207.              ST    RX,$SCMSDB              SDB pointer
 0026FA 5830 C050            00008 33228    3208.              L     RB,@DOSCIRB             INTERFACE PARAMETERS
 USING  @IORB,R3                   33229    3209.              WITH  (@IORB,RB)
 0026FE D203 5008 3000 00008 00000 33242    3210.              MVC   $SCMRQID,@IORRQID       Request ID
 002704 D203 5010 3004 00010 00004 33243    3211.              MVC   $SCMOFF,@IOROFF         Offset (guest real to MVS)
 00270A D200 5014 3010 00014 00010 33244    3212.              MVC   $SCMKEY,@IORKEY         Protect key
 002710 D203 500C A586 0000C 02BD8 33245    3213.              MVC   $SCMFUNC,=A(#SCCOPEN)   Function code
 002716 5800 4004            00004 33246    3214.              MSGSEND IOTSTMC,(RK)
 DROP   @MSGGBUF-72,R13
 USING  @MSGSEND-72,R13
 00271A 5000 D048/1805       00000 33265             +
 002720 5000 D04C            00004 33271             +
 002724 D703 D058 D058 00010 00010 33278             +
 00272A 58F0 A58A/0DEF       02BDC 33281             +
 002730 1B00                       33283    3215.              CLEAR RVR                     CONDITION CODE
 002732 981F C008            00008 33287    3216.              PEND
 DROP   @IORB,R3
 DROP   $SCMIMSG,R5
 DROP   IOT,R4
 DROP   #SCOPEN,R7
 DROP   SDB,R6
 DROP   @DOSCOM-72,R12
 DROP   SCOPEN,R10
 002736 9680 C000/0B0E 00000       33327             +
 DROP   @MSGSEND-72,R13
1IOSERV   (IOSE00) (09:40) (22MAR04) ORVYL'S SCOM I/O Service Routines                                                      Page  146
0Loc    Object Code    Addr1 Addr2  Stmt Lv Lineno    Source Statement           (Hibal 5, Asmedit 3.3)  HLASM R4.0  2004/03/22 09.40
+___    ______ ____    _____ _____  ____ __ ______    ______ _________
0                                  33337    3218.     *******************************************************************
                                   33338    3219.     *                                                                 *
                                   33339    3220.     *   SCCLOSE - Process SCOM Close request                          *
                                   33340    3221.     *                                                                 *
                                   33341    3222.     *                                                                 *
                                   33342    3223.     *     Input -                                                     *
                                   33343    3224.     *                                                                 *
                                   33344    3225.     *    Output -                                                     *
                                   33345    3226.     *                                                                 *
                                   33346    3227.     *                                                                 *
                                   33347    3228.     *******************************************************************
-
 00273C                            33349    3230.     SCCLOSE  PROC  @DOSCOM,SCOPE=LOCAL
 00273C E2C3C3D3D6E2C540           33354             +
 002744 0010/0000                  33355             +
 002748 900F D004/18AF       00004 33357             +
 USING  SCCLOSE,R10
 00274E 50D0 C000/18CD       00000 33372             +
 002754 9680 C000      00000       33374             +
 USING  @DOSCOM-72,R12
 002758 41D0 C058            00058 33388             +
 00275C 5860 C04C            00004 33389    3231.              L     RX,@DOSCSDB             SDB POINTER
 USING  SDB,R6                     33390    3232.              WITH  (SDB,RX)
 002760 5870 C048            00000 33403    3233.              L     RY,@DOSCPRM             USER PARAMETERS
 USING  #SCCLOSE,R7                33404    3234.              WITH  (#SCCLOSE,RY)
 002764                            33417    3235.              IF    (PATHMY,NZ),BEGIN
 002764 D607 6028 6028 00028 00028 33427             +
 00276A 4780 A08C            027D4 33428             +
 00276E 41F0 0004            00004 33433  1 3236.                SCOM  CLOSE,0,PATH            SEND CLOSE REQUEST TO SCOM
 002772 5800 6020/1B11       00020 33445  1          +
 002778 0AFB                       33450  1          +
 00277A 50F0 C054            0000C 33451  1 3237.                ST    R15,@DOSCRC             SET RETURN
 00277E 12FF/4780 A04C       02794 33452  1 3238.                IF    (R15,NZ),'KAPUT SCMOOPS'
 002784 4110 0001            00001 33469  2 03-KAPUT +*,THIS FUNCTION IS NOT IMPLEMENTED
 002788 4100 0080            00080 33475  2          +
 00278C 8900 0018/1610       00018 33476  2          +
 002792 0A0D                       33478  1          +
1IOSERV   (IOSE00) (09:40) (22MAR04) ORVYL'S SCOM I/O Service Routines                                                      Page  147
0Current Usings:  (SDB,R6) (#SCCLOSE,R7) (SCCLOSE,R10) (@DOSCOM-72,R12)
0Loc    Object Code    Addr1 Addr2  Stmt Lv Lineno    Source Statement           (Hibal 5, Asmedit 3.3)  HLASM R4.0  2004/03/22 09.40
+___    ______ ____    _____ _____  ____ __ ______    ______ _________
0                                  33484  1 3240.     *
                                   33485  1 3241.     *  PATH IS CLOSED - IS IT ON THE NOTIFY QUEUE?
                                   33486  1 3242.     *
 002794 5840 9004            00004 33487  1 3243.                WITH  (RTCB,RTCBR),'L  RJ,RTCBCBAT'   CBAT POINTER
 USING  RTCB,R9
 DROP   RTCB,R9
 002798 5840 4054            00054 33511  1 3244.                WITH  (CBAT,RJ),'L  RJ,CBATIOCT'      IOCT POINTER
 USING  CBAT,R4
 DROP   CBAT,R4
 USING  IOCT,R4                    33535  1 3245.                WITH  (IOCT,RJ)
 00279C 5800 404C            0004C 33548  1 3246.                LOCKOB IOCTSNTL               GET NOTIFY CHAIN LOCK
 USING  @LOCKS-72,R13
 0027A0 5000 D048            00000 33564  1          +
 0027A4 58F0 A498/0DEF       02BE0 33567  1          +
                                   33569  1 3247.     *
                                   33570  1 3248.     *  REMOVE PATH FROM THE NOTIFY QUEUE
                                   33571  1 3249.     *
 0027AA 9180 601D      0001D       33572  1 3250.                IF    SDBFNTFY,BEGIN
 0027AE 47E0 A07E            027C6 33582  1          +
 0027B2 9680 601C      0001C       33587  2 3251.                  SET   SDBPFL.PATHFCLS         PRETEND PARTNER CLOSED TOO
 DROP   @LOCKS-72,R13              33594  2 3252.                  PSET  @SCOMDB
 USING  @SCOMDB-72,R13
 0027B6 D703 D048 D048 00000 00000 33614  2          +
 0027BC 5060 D048            00000 33615  2 3253.                  ST    RX,@SCOMSDB             SDB POINTER
 0027C0 58F0 A49C/0DEF       02BE4 33616  2 3254.                  ACALL SCOMNTFY                NOTIFY COMPLETE
 0027C6                            33623  1 3255.                END   ,
 0027C6 5800 404C            0004C 33627  1 3256.                LOCKRL IOCTSNTL               RELEASE NOTIFY CHAIN LOCK
 DROP   @SCOMDB-72,R13
 USING  @LOCKS-72,R13
 0027CA 5000 D048            00000 33646  1          +
 0027CE 58F0 A4A0/0DEF       02BE8 33649  1          +
 DROP   IOCT,R4                    33651    3257.              END   ,
 DROP   @LOCKS-72,R13              33660    3258.              PSET  @SCOMDB
 USING  @SCOMDB-72,R13
 0027D4 D703 D048 D048 00000 00000 33680             +
 0027DA 5060 D048            00000 33681    3259.              ST    RX,@SCOMSDB             PATH ID
 0027DE 58F0 A4A4/0DEF       02BEC 33682    3260.              ACALL SCOMCLS
 0027E4 4100 0001            00001 33689    3261.              LA    RVR,1                   CONDITION CODE
 0027E8 981F C008            00008 33690    3262.              PEND
 DROP   #SCCLOSE,R7
 DROP   SDB,R6
 DROP   @DOSCOM-72,R12
 DROP   SCCLOSE,R10
 0027EC 9680 C000/0B0E 00000       33715             +
 DROP   @SCOMDB-72,R13
1IOSERV   (IOSE00) (09:40) (22MAR04) ORVYL'S SCOM I/O Service Routines                                                      Page  148
0Loc    Object Code    Addr1 Addr2  Stmt Lv Lineno    Source Statement           (Hibal 5, Asmedit 3.3)  HLASM R4.0  2004/03/22 09.40
+___    ______ ____    _____ _____  ____ __ ______    ______ _________
0                                  33725    3264.     *******************************************************************
                                   33726    3265.     *                                                                 *
                                   33727    3266.     *   SCSEND  - Process SCOM Send request                           *
                                   33728    3267.     *                                                                 *
                                   33729    3268.     *                                                                 *
                                   33730    3269.     *     Input -                                                     *
                                   33731    3270.     *                                                                 *
                                   33732    3271.     *    Output -                                                     *
                                   33733    3272.     *                                                                 *
                                   33734    3273.     *                                                                 *
                                   33735    3274.     *******************************************************************
-
 0027F2                            33737    3276.     SCSEND   PROC  @DOSCOM,SCIOWORK,SCOPE=LOCAL
 0027F2 E2C3E2C5D5C44040           33742             +
 0027FA 0010/0020                  33743             +
 0027FE 900F D004/18AF       00004 33745             +
 USING  SCSEND,R10
 002804 50D0 C000/18CD       00000 33760             +
 00280A 9680 C000      00000       33762             +
 USING  @DOSCOM-72,R12
 AUSING (SCIOWORK,@DOSCOM+16)
 00280E 41D0 C078            00078 33781             +
 002812 5860 C04C            00004 33782    3277.              L     RX,@DOSCSDB             SDB POINTER
 USING  SDB,R6                     33783    3278.              WITH  (SDB,RX)
 002816 5870 C048            00000 33796    3279.              L     RY,@DOSCPRM             USER PARAMETERS
 USING  #SCSR,R7                   33797    3280.              WITH  (#SCSR,RY)
                                   33810    3281.     *
                                   33811    3282.     *  GET WORK AREA FOR SEND REQUESTS
                                   33812    3283.     *
 00281A 5820 90A8            000A8 33813    3284.              WITH  (RTCB,RTCBR),'L  RA,RTCBIOT'    IOT POINTER
 USING  RTCB,R9
 DROP   RTCB,R9
 USING  IOT,R2                     33837    3285.              WITH  (IOT,RA),BEGIN
 00281E                            33851  1 3286.                IF    (#SCSRCT,GT,IOTSBLEN),'KAPUT SCOMSEGS'   Check count
 00281E D503 7008 200C 00008 0000C 33863  1          +
 002824 47D0 A03A            02838 33864  1          +
 002828 4110 0001            00001 33877  2          +
 00282C 4100 0080            00080 33878  2          +
 002830 8900 0018/1610       00018 33879  2          +
 002836 0A0D                       33881  1          +
 002838 5840 2008            00008 33886  1 3287.                L     RJ,IOTSBUFF             Get work area pointer
 DROP   IOT,R2                     33887    3288.              END
 00283C 1814                       33895    3289.              LR    RS,RJ
                                   33896    3290.     *
                                   33897    3291.     *  COPY USER BUFFER LIST POINTERS AND FIX ADDRESSES
                                   33898    3292.     *
 00283E 5850 C050            00008 33899    3293.              L     RK,@DOSCIRB             INTERFACE PARAMETERS
 USING  @IORB,R5                   33900    3294.              WITH  (@IORB,RK),BEGIN
 002842 58F0 7008            00008 33914  1 3295.                L     R15,#SCSRCT             NUMBER OF SEGMENTS
 002846 41E0 7018            00018 33915  1 3296.                LA    R14,#SCSRSEG            LOCATION OF SEGMENTS
 00284A                            33916  1 3297.                LOOP  BEGIN
 00284A 9823 E000            00000 33922  2 3298.                  LM    RA,RB,@R14              USER PARAMETER
 00284E 5E20 5004            00004 33923  2 3299.                  AL    RA,@IOROFF               ADD OFFSET
 002852 9023 1000            00000 33924  2 3300.                  STM   RA,RB,@RS               PUT IN LIST
1IOSERV   (IOSE00) (09:40) (22MAR04) ORVYL'S SCOM I/O Service Routines                                                      Page  149
0Current Usings:  (@IORB,R5) (SDB,R6) (#SCSR,R7) (SCSEND,R10) (@DOSCOM-72,R12)
0Loc    Object Code    Addr1 Addr2  Stmt Lv Lineno    Source Statement           (Hibal 5, Asmedit 3.3)  HLASM R4.0  2004/03/22 09.40
+___    ______ ____    _____ _____  ____ __ ______    ______ _________
0002856 06F0                       33925  2 3301.                  DECR  R15
 002858 12FF/4780 A06C       0286A 33927  2 3302.                  IF    (R15,Z),EXIT
 00285E 41E0 E008            00008 33944  2 3303.                  LA    R14,@R14+8              UPDATE LIST
 002862 4110 1008            00008 33945  2 3304.                  LA    RS,@RS+8                 POINTERS
 002866 47F0 A04C            0284A 33946  1 3305.                END   ,
 00286A 9680 1000      00000       33951  1 3306.                SET   @RS.X'80'               MARK END OF CHAIN
 DROP   @IORB,R5                   33958    3307.              END   ,
                                   33966    3308.     *
                                   33967    3309.     *  SEND REQUEST TO SCOM
                                   33968    3310.     *
 00286E 41F0 0008            00008 33969    3311.              SCOM  SEND,(RJ),PATH          SEND REQUEST TO SCOM
 002872 5800 6020/1814       00020 33981             +
 002878 0AFB                       33987             +
 00287A 50F0 C054            0000C 33988    3312.              ST    R15,@DOSCRC             SET RETURN CODE
                                   33989    3313.     *
                                   33990    3314.     *  CHECK RETURN CODE
                                   33991    3315.     *
 00287E 12FF/4780 A0A6       028A4 33992    3316.              IF    (R15,NZ),BEGIN
 002884 59F0 A3F2            02BF0 34006  1 3317.                IF    ((R15,GE,12),OR,(R15,LE,24)),EXIT
 002888 47A0 A0A6            028A4 34022  1          +
 00288C 59F0 A3F6            02BF4 34033  1          +
 002890 47C0 A0A6            028A4 34036  1          +
 002894 4110 0001            00001 34042  1 3318.                KAPUT SCMOOPS
 002898 4100 0080            00080 34050  1          +
 00289C 8900 0018/1610       00018 34051  1          +
 0028A2 0A0D                       34053  1          +
 0028A4                            34054    3319.              END
                                   34058    3320.     *
                                   34059    3321.     *  ALL DONE - RETURN TO CALLER
                                   34060    3322.     *
 0028A4 4100 0001            00001 34061    3323.              LA    RVR,1                   IMMEDIATE RETURN
 0028A8 981F C008            00008 34062    3324.              PEND
 DROP   #SCSR,R7
 DROP   SDB,R6
 DROP   @DOSCOM-72,R12
 DROP   SCSEND,R10
 0028AC 9680 C000/0B0E 00000       34087             +
1IOSERV   (IOSE00) (09:40) (22MAR04) ORVYL'S SCOM I/O Service Routines                                                      Page  150
0Loc    Object Code    Addr1 Addr2  Stmt Lv Lineno    Source Statement           (Hibal 5, Asmedit 3.3)  HLASM R4.0  2004/03/22 09.40
+___    ______ ____    _____ _____  ____ __ ______    ______ _________
0                                  34094    3326.     *******************************************************************
                                   34095    3327.     *                                                                 *
                                   34096    3328.     *   SCRECV  - Process SCOM Receive request                        *
                                   34097    3329.     *                                                                 *
                                   34098    3330.     *                                                                 *
                                   34099    3331.     *     Input -                                                     *
                                   34100    3332.     *                                                                 *
                                   34101    3333.     *    Output -                                                     *
                                   34102    3334.     *                                                                 *
                                   34103    3335.     *                                                                 *
                                   34104    3336.     *******************************************************************
-
 0028B2                            34106    3338.     SCRECV   PROC  @DOSCOM,SCIOWORK,SCOPE=LOCAL
 0028B2 E2C3D9C5C3E54040           34111             +
 0028BA 0010/0020                  34112             +
 0028BE 900F D004/18AF       00004 34114             +
 USING  SCRECV,R10
 0028C4 50D0 C000/18CD       00000 34129             +
 0028CA 9680 C000      00000       34131             +
 USING  @DOSCOM-72,R12
 AUSING (SCIOWORK,@DOSCOM+16)
 0028CE 41D0 C078            00078 34150             +
 0028D2 5860 C04C            00004 34151    3339.              L     RX,@DOSCSDB             SDB POINTER
 USING  SDB,R6                     34152    3340.              WITH  (SDB,RX)
 0028D6 5870 C048            00000 34165    3341.              L     RY,@DOSCPRM             USER PARAMETERS
 USING  #SCSR,R7                   34166    3342.              WITH  (#SCSR,RY)
                                   34179    3343.     *
                                   34180    3344.     *  RECEIVE REQUEST - CLEAR NEW INFO FLAG ON
                                   34181    3345.     *
 002C36 DF             02C02 06A98 34182    3346.              CLEAR SDBPFL.PATHFNI,MODE=LOCKED,REF=SDB
 0028DA 41F0 0001/111F       00001 34203             +
 0028E0 89F0 0003            00003 34205             +
 0028E4 44F0 A37A            02C38 34207             +
 002C37 00/BF10 A378         02C36                   +
 0028E8 58F0 601C/180F       0001C 34222             +
 0028EE 1401/BAF0 601C       0001C 34224             +
 0028F4 4770 A02E            028EC 34227             +
                                   34228    3347.     *
                                   34229    3348.     *  GET BUFFER WORK AREA
                                   34230    3349.     *
 0028F8 5820 90A8            000A8 34231    3350.              WITH  (RTCB,RTCBR),'L  RA,RTCBIOT'    IOT POINTER
 USING  RTCB,R9
 DROP   RTCB,R9
 USING  IOT,R2                     34255    3351.              WITH  (IOT,RA),BEGIN
 0028FC                            34269  1 3352.                IF    (#SCSRCT,GT,IOTSBLEN),'KAPUT SCOMSEGS'   Check count
 0028FC D503 7008 200C 00008 0000C 34281  1          +
 002902 47D0 A058            02916 34282  1          +
 002906 4110 0001            00001 34295  2          +
 00290A 4100 0080            00080 34296  2          +
 00290E 8900 0018/1610       00018 34297  2          +
 002914 0A0D                       34299  1          +
 002916 5840 2008            00008 34304  1 3353.                L     RJ,IOTSBUFF             Get work area pointer
 DROP   IOT,R2                     34305    3354.              END
 00291A 1814                       34313    3355.              LR    RS,RJ
1IOSERV   (IOSE00) (09:40) (22MAR04) ORVYL'S SCOM I/O Service Routines                                                      Page  151
0Current Usings:  (SDB,R6) (#SCSR,R7) (SCRECV,R10) (@DOSCOM-72,R12)
0Loc    Object Code    Addr1 Addr2  Stmt Lv Lineno    Source Statement           (Hibal 5, Asmedit 3.3)  HLASM R4.0  2004/03/22 09.40
+___    ______ ____    _____ _____  ____ __ ______    ______ _________
0                                  34314    3356.     *
                                   34315    3357.     *  COPY USER BUFFER LIST POINTERS AND FIX ADDRESSES
                                   34316    3358.     *
 00291C 5850 C050            00008 34317    3359.              L     RK,@DOSCIRB             INTERFACE PARAMETERS
 USING  @IORB,R5                   34318    3360.              WITH  (@IORB,RK),BEGIN
 002920 58F0 7008            00008 34332  1 3361.                L     R15,#SCSRCT             NUMBER OF SEGMENTS
 002924 41E0 7018            00018 34333  1 3362.                LA    R14,#SCSRSEG            LOCATION OF SEGMENTS
 002928                            34334  1 3363.                LOOP  BEGIN
 002928 9823 E000            00000 34340  2 3364.                  LM    RA,RB,@R14              USER PARAMETER
 00292C 5E20 5004            00004 34341  2 3365.                  AL    RA,@IOROFF               ADD OFFSET
 002930 9023 1000            00000 34342  2 3366.                  STM   RA,RB,@RS               PUT IN LIST
 002934 06F0                       34343  2 3367.                  DECR  R15
 002936 12FF/4780 A08A       02948 34345  2 3368.                  IF    (R15,Z),EXIT
 00293C 41E0 E008            00008 34362  2 3369.                  LA    R14,@R14+8              UPDATE LIST
 002940 4110 1008            00008 34363  2 3370.                  LA    RS,@RS+8                 POINTERS
 002944 47F0 A06A            02928 34364  1 3371.                END   ,
 002948 9680 1000      00000       34369  1 3372.                SET   @RS.X'80'               MARK END OF CHAIN
 DROP   @IORB,R5                   34376    3373.              END   ,
                                   34384    3374.     *
                                   34385    3375.     *  SEND REQUEST TO SCOM
                                   34386    3376.     *
 00294C 41F0 000C            0000C 34387    3377.              SCOM  GET,(RJ),PATH           SEND REQUEST TO SCOM
 002950 5800 6020/1814       00020 34399             +
 002956 0AFB                       34405             +
 002958 50F0 C054            0000C 34406    3378.              ST    R15,@DOSCRC             SET RETURN CODE
                                   34407    3379.     *
                                   34408    3380.     *  CHECK RETURN CODE
                                   34409    3381.     *
 00295C 12FF/4780 A0C4       02982 34410    3382.              IF    (R15,NZ),BEGIN
 002962 59F0 A332            02BF0 34424  1 3383.                IF    ((R15,GE,12),OR,(R15,LE,24)),EXIT
 002966 47A0 A0C4            02982 34440  1          +
 00296A 59F0 A336            02BF4 34451  1          +
 00296E 47C0 A0C4            02982 34454  1          +
 002972 4110 0001            00001 34460  1 3384.                KAPUT SCMOOPS
 002976 4100 0080            00080 34468  1          +
 00297A 8900 0018/1610       00018 34469  1          +
 002980 0A0D                       34471  1          +
 002982                            34472    3385.              END
                                   34476    3386.     *
                                   34477    3387.     *  SET BUFFER LENGTH
                                   34478    3388.     *
 002982 5010 7010            00010 34479    3389.              ST    R1,#SCSRRLN             RETURN BUFFER LENGTH
                                   34480    3390.     *
                                   34481    3391.     *  ALL DONE - RETURN TO CALLER
                                   34482    3392.     *
 002986 4100 0001            00001 34483    3393.              LA    RVR,1                   IMMEDIATE RETURN
 00298A 981F C008            00008 34484    3394.              PEND
 DROP   #SCSR,R7
 DROP   SDB,R6
 DROP   @DOSCOM-72,R12
 DROP   SCRECV,R10
 00298E 9680 C000/0B0E 00000       34509             +
1IOSERV   (IOSE00) (09:40) (22MAR04) ORVYL'S SCOM I/O Service Routines                                                      Page  152
0Loc    Object Code    Addr1 Addr2  Stmt Lv Lineno    Source Statement           (Hibal 5, Asmedit 3.3)  HLASM R4.0  2004/03/22 09.40
+___    ______ ____    _____ _____  ____ __ ______    ______ _________
0                                  34516    3396.     *******************************************************************
                                   34517    3397.     *                                                                 *
                                   34518    3398.     *   SCPOST  - Process SCOM Post request                           *
                                   34519    3399.     *                                                                 *
                                   34520    3400.     *                                                                 *
                                   34521    3401.     *     Input - @DOSCOM                                             *
                                   34522    3402.     *                                                                 *
                                   34523    3403.     *    Output -                                                     *
                                   34524    3404.     *                                                                 *
                                   34525    3405.     *                                                                 *
                                   34526    3406.     *******************************************************************
-
 002994                            34528    3408.     SCPOST   PROC  @DOSCOM,SCOPE=LOCAL
 002994 E2C3D7D6E2E34040           34533             +
 00299C 0010/0000                  34534             +
 0029A0 900F D004/18AF       00004 34536             +
 USING  SCPOST,R10
 0029A6 50D0 C000/18CD       00000 34551             +
 0029AC 9680 C000      00000       34553             +
 USING  @DOSCOM-72,R12
 0029B0 41D0 C058            00058 34567             +
 0029B4 5860 C04C            00004 34568    3409.              L     RX,@DOSCSDB             SDB POINTER
 USING  SDB,R6                     34569    3410.              WITH  (SDB,RX)
 0029B8 41F0 001C            0001C 34582    3411.              SCOM  POST,0,PATH             SEND POST REQUEST TO SCOM
 0029BC 5800 6020/1B11       00020 34594             +
 0029C2 0AFB                       34599             +
 0029C4 50F0 C054            0000C 34600    3412.              ST    R15,@DOSCRC             SET RETURN
 0029C8 4100 0001            00001 34601    3413.              LA    RVR,1
 0029CC 981F C008            00008 34602    3414.              PEND
 DROP   SDB,R6
 DROP   @DOSCOM-72,R12
 DROP   SCPOST,R10
 0029D0 9680 C000/0B0E 00000       34622             +
1IOSERV   (IOSE00) (09:40) (22MAR04) ORVYL'S SCOM I/O Service Routines                                                      Page  153
0Loc    Object Code    Addr1 Addr2  Stmt Lv Lineno    Source Statement           (Hibal 5, Asmedit 3.3)  HLASM R4.0  2004/03/22 09.40
+___    ______ ____    _____ _____  ____ __ ______    ______ _________
0                                  34629    3416.     *******************************************************************
                                   34630    3417.     *                                                                 *
                                   34631    3418.     *   SCINFO  - Process SCOM Info request                           *
                                   34632    3419.     *                                                                 *
                                   34633    3420.     *                                                                 *
                                   34634    3421.     *     Input -                                                     *
                                   34635    3422.     *                                                                 *
                                   34636    3423.     *    Output -                                                     *
                                   34637    3424.     *                                                                 *
                                   34638    3425.     *                                                                 *
                                   34639    3426.     *******************************************************************
-
 0029D6                            34641    3428.     SCINFO   PROC  @DOSCOM,SCIOWORK,SCOPE=LOCAL
 0029D6 E2C3C9D5C6D64040           34646             +
 0029DE 0010/0020                  34647             +
 0029E2 900F D004/18AF       00004 34649             +
 USING  SCINFO,R10
 0029E8 50D0 C000/18CD       00000 34664             +
 0029EE 9680 C000      00000       34666             +
 USING  @DOSCOM-72,R12
 AUSING (SCIOWORK,@DOSCOM+16)
 0029F2 41D0 C078            00078 34685             +
 0029F6 5860 C04C            00004 34686    3429.              L     RX,@DOSCSDB             SDB POINTER
 USING  SDB,R6                     34687    3430.              WITH  (SDB,RX)
 0029FA 5870 C048            00000 34700    3431.              L     RY,@DOSCPRM             USER PARAMETERS
 USING  #SCINFO,R7                 34701    3432.              WITH  (#SCINFO,RY)
 0029FE 4110 C060            00008 34714    3433.              LA    RS,SCIOINFO             ANSWER AREA
 002A02 5010 C05C            00004 34715    3434.              ST    RS,SCIOINBL              TO LIST
 002A06 4110 0014            00014 34716    3435.              LA    RS,5*4                  LENGTH
 002A0A 5010 C060            00008 34717    3436.              ST    RS,SCIOINBL+4            TO LIST
 002A0E 9680 C05C      00004       34718    3437.              SET   SCIOINBL.X'80'          ONLY ONE ELEMENT
 002A12 41F0 0020            00020 34725    3438.              SCOM  INFO,SCIOINBL,PATH      GET INFO
 002A16 5800 6020            00020 34737             +
 002A1A 4110 C05C/0AFB       00004 34744             +
 002A20 5000 C054            0000C 34746    3439.              ST    RVR,@DOSCRC             RETURN CODE
 002A24 1200/4770 A068       02A4A 34747    3440.              IF    (RVR,Z),BEGIN
 002A2A 5850 C050            00008 34761  1 3441.                L     RK,@DOSCIRB             INTERFACE PARAMETERS
 USING  @IORB,R5                   34762  1 3442.                WITH  (@IORB,RK)
 002A2E 5820 7004            00004 34775  1 3443.                L     RA,#SCIPART             PLACE TO PUT PARTNER NAME
 002A32 5E20 5004            00004 34776  1 3444.                AL    RA,@IOROFF               TO MVS VIRTUAL
 002A36 D207 2000 C068 00000 00010 34777  1 3445.                MVC   @RA(8),SCIOINFO+2*4     GET PARTNERS PATH NAME
 002A3C 5820 700C            0000C 34778  1 3446.                L     RA,#SCIASCB             PLACE TO PUT ASCB POINTER
 002A40 5E20 5004            00004 34779  1 3447.                AL    RA,@IOROFF               TO MVS VIRTUAL
 002A44 D203 2000 C060 00000 00008 34780  1 3448.                MVC   @RA(4),SCIOINFO+0*4     GET PARTNERS ASCB POINTER
 DROP   @IORB,R5                   34781    3449.              END   ,
 002A4A 4100 0001            00001 34790    3450.              LA    RVR,1                   CONDITION CODE
 002A4E 981F C008            00008 34791    3451.              PEND
 DROP   #SCINFO,R7
 DROP   SDB,R6
 DROP   @DOSCOM-72,R12
 DROP   SCINFO,R10
 002A52 9680 C000/0B0E 00000       34816             +
1IOSERV   (IOSE00) (09:40) (22MAR04) ORVYL'S SCOM I/O Service Routines                                                      Page  154
0Loc    Object Code    Addr1 Addr2  Stmt Lv Lineno    Source Statement           (Hibal 5, Asmedit 3.3)  HLASM R4.0  2004/03/22 09.40
+___    ______ ____    _____ _____  ____ __ ______    ______ _________
0                                  34823    3453.     *******************************************************************
                                   34824    3454.     *                                                                 *
                                   34825    3455.     *   SCNTFY  - Process SCOM Notify request                         *
                                   34826    3456.     *                                                                 *
                                   34827    3457.     *                                                                 *
                                   34828    3458.     *     Input -                                                     *
                                   34829    3459.     *                                                                 *
                                   34830    3460.     *    Output -                                                     *
                                   34831    3461.     *                                                                 *
                                   34832    3462.     *                                                                 *
                                   34833    3463.     *******************************************************************
-
 002A58                            34835    3465.     SCNTFY   PROC  @DOSCOM,SCIOWORK,SCOPE=LOCAL
 002A58 E2C3D5E3C6E84040           34840             +
 002A60 0010/0020                  34841             +
 002A64 900F D004/18AF       00004 34843             +
 USING  SCNTFY,R10
 002A6A 50D0 C000/18CD       00000 34858             +
 002A70 9680 C000      00000       34860             +
 USING  @DOSCOM-72,R12
 AUSING (SCIOWORK,@DOSCOM+16)
 002A74 41D0 C078            00078 34879             +
 002A78 5860 C04C            00004 34880    3466.              L     RX,@DOSCSDB             SDB POINTER
 USING  SDB,R6                     34881    3467.              WITH  (SDB,RX)
 002A7C 5870 C048            00000 34894    3468.              L     RY,@DOSCPRM             USER PARAMETERS
 USING  #SCNOTE,R7                 34895    3469.              WITH  (#SCNOTE,RY)
 002A80 5840 9004            00004 34908    3470.              WITH  (RTCB,RTCBR),'L  RJ,RTCBCBAT'   CBAT POINTER
 USING  RTCB,R9
 DROP   RTCB,R9
 002A84 5840 4054            00054 34932    3471.              WITH  (CBAT,RJ),'L  RJ,CBATIOCT'      IOCT POINTER
 USING  CBAT,R4
 DROP   CBAT,R4
 USING  IOCT,R4                    34956    3472.              WITH  (IOCT,RJ)
 002A88 5800 404C            0004C 34969    3473.              LOCKOB IOCTSNTL               GET NOTIFY CHAIN LOCK
 USING  @LOCKS-72,R13
 002A8C 5000 D048            00000 34985             +
 002A90 58F0 A17C/0DEF       02BE0 34988             +
                                   34990    3474.     *
                                   34991    3475.     *  CALLER IS ALREADY ON THE NOTIFY QUEUE
                                   34992    3476.     *
 002A96 9180 601D      0001D       34993    3477.              IF    SDBFNTFY,BEGIN
 002A9A 47E0 A04A            02AAE 35003             +
 002A9E 4110 0001            00001 35008  1 3478.                KAPUT SCNTFY                  ALREADY ON NOTIFY QUEUE
 002AA2 4100 0080            00080 35016  1          +
 002AA6 8900 0018/1610       00018 35017  1          +
 002AAC 0A0D                       35019  1          +
 002AAE                            35020    3479.              END   ,
                                   35024    3480.     *
                                   35025    3481.     *  SOME POST FLAGS ALREADY SET - POST IMMEDIATE
                                   35026    3482.     *
 002AAE 9500 601C      0001C       35027    3483.              IF    (SDBPFL,NZ),BEGIN       SOME POST FLAGS ALREADY SET
 002AB2 4780 A064            02AC8 35038             +
 DROP   @LOCKS-72,R13              35043  1 3484.                PSET  @SCOMDB,CLEAR=NO
 USING  @SCOMDB-72,R13
1IOSERV   (IOSE00) (09:40) (22MAR04) ORVYL'S SCOM I/O Service Routines                                                      Page  155
0Current Usings:  (IOCT,R4) (SDB,R6) (#SCNOTE,R7) (SCNTFY,R10) (@DOSCOM-72,R12) (@SCOMDB-72,R13)
0Loc    Object Code    Addr1 Addr2  Stmt Lv Lineno    Source Statement           (Hibal 5, Asmedit 3.3)  HLASM R4.0  2004/03/22 09.40
+___    ______ ____    _____ _____  ____ __ ______    ______ _________
0002AB6 5060 D048            00000 35057  1 3485.                ST    RX,@SCOMSDB             PATH BLOCK POINTER
 002ABA 58F0 A194/0DEF       02BF8 35058  1 3486.                ACALL SCOMFLG                 POST FLAGS RETURNED IN R0
 002AC0 5000 C054            0000C 35065  1 3487.                ST    RVR,@DOSCRC             RETURN FLAGS TO CALLER
 002AC4 4120 0001            00001 35066  1 3488.                LA    RA,1                    IMMEDIATE END
 002AC8                            35067    3489.              END
                                   35071    3490.     *
                                   35072    3491.     *  USER MUST WAIT FOR POST - ADD TO END OF NOTIFY CHAIN
                                   35073    3492.     *
 002AC8 A068           02AC8 02AB4 35074    3493.              ELSE  BEGIN
 002AC8 47F0 A090            02AF4 35079             +
 002ACC 4110 4060            00060 35085  1 3494.                LA    RS,IOCTSNFP-(SDBFP-SDB)   END OF CHAIN ANCHOR
 002AD0 5010 6008            00008 35086  1 3495.                ST    RS,SDBFP                  IS NEXT ELEMENT
 002AD4 5810 406C            0006C 35087  1 3496.                L     RS,IOCTSNBP             LAST ELEMENT IN CHAIN
 002AD8 5010 600C            0000C 35088  1 3497.                ST    RS,SDBBP                 IS PREVIOUS ELEMENT
 002ADC 5060 1008            00008 35089  1 3498.                WITH  (SDB,RS),'ST  RX,SDBFP'   AND THIS ONE HIS NEXT
 DROP   SDB,R6
 USING  SDB,R1
 USING  SDB,R6
 DROP   SDB,R1
 002AE0 5060 406C            0006C 35130  1 3499.                ST    RX,IOCTSNBP             THIS ONE IS AT THE END
 002AE4 5850 C050            00008 35131  1 3500.                L     RK,@DOSCIRB             INTERFACE PARAMETERS
 USING  @IORB,R5                   35132  1 3501.                WITH  (@IORB,RK)
 002AE8 D203 6010 5000 00010 00000 35145  1 3502.                MVC   SDBRQID,@IORRQID        USER'S REQUEST ID
 002AEE 9680 601D      0001D       35146  1 3503.                SET   SDBFNTFY                MARK ON NOTIFY QUEUE
 002AF2 1B22                       35152  1 3504.                CLEAR RA                      DEFERRED COMPLETION
 DROP   @IORB,R5                   35156    3505.              END   ,
 002AF4 5800 404C            0004C 35165    3506.              LOCKRL IOCTSNTL               RELEASE NOTIFY CHAIN
 DROP   @SCOMDB-72,R13
 USING  @LOCKS-72,R13
 002AF8 5000 D048            00000 35184             +
 002AFC 58F0 A184/0DEF       02BE8 35187             +
 002B02 1802                       35189    3507.              LR    RVR,RA                  SET CONDITION CODE
 002B04 981F C008            00008 35190    3508.              PEND
 DROP   IOCT,R4
 DROP   #SCNOTE,R7
 DROP   SDB,R6
 DROP   @DOSCOM-72,R12
 DROP   SCNTFY,R10
 002B08 9680 C000/0B0E 00000       35220             +
 DROP   @LOCKS-72,R13
1IOSERV   (IOSE00) (09:40) (22MAR04) ORVYL'S SCOM I/O Service Routines                                                      Page  156
0Loc    Object Code    Addr1 Addr2  Stmt Lv Lineno    Source Statement           (Hibal 5, Asmedit 3.3)  HLASM R4.0  2004/03/22 09.40
+___    ______ ____    _____ _____  ____ __ ______    ______ _________
0                                  35230    3510.     *******************************************************************
                                   35231    3511.     *                                                                 *
                                   35232    3512.     *   SCOMCLS - Do SCOM Close                                       *
                                   35233    3513.     *                                                                 *
                                   35234    3514.     *                                                                 *
                                   35235    3515.     *     Input -  @SCOMDB                                            *
                                   35236    3516.     *                                                                 *
                                   35237    3517.     *    Output -                                                     *
                                   35238    3518.     *                                                                 *
                                   35239    3519.     *                                                                 *
                                   35240    3520.     *******************************************************************
-
 002B0E                            35242    3522.     SCOMCLS  PROC  @SCOMDB,SCOPE=LOCAL
 002B0E E2C3D6D4C3D3E240           35247             +
 002B16 0008/0000                  35248             +
 002B1A 900F D004/18AF       00004 35250             +
 USING  SCOMCLS,R10
 002B20 50D0 C000/18CD       00000 35265             +
 002B26 9680 C000      00000       35267             +
 USING  @SCOMDB-72,R12
 002B2A 41D0 C050            00050 35281             +
 002B2E 5820 C048            00000 35282    3523.              L     RA,@SCOMSDB             PATH ID
 USING  SDB,R2                     35283    3524.              WITH  (SDB,RA)
 AUSING (COMDB,SDB)                35296    3525.              WITH  (COMDB,SDB),'CLEAR  COMDBID'    SDB no longer valid
 002B32 D703 2000 2000 00000 00000 35313             +
 002B38 5860 9004            00004 35317    3526.              WITH  (RTCB,RTCBR),'L  RX,RTCBCBAT'   CBAT POINTER
 USING  RTCB,R9
 DROP   RTCB,R9
 002B3C 5860 6054            00054 35341    3527.              WITH  (CBAT,RX),'L  RX,CBATIOCT'      IOCT POINTER
 USING  CBAT,R6
 DROP   CBAT,R6
 USING  IOCT,R6                    35365    3528.              WITH  (IOCT,RX)
 002B40 5800 6048            00048 35378    3529.              LOCKOB IOCTPTHL               GET SCOM CHAIN LOCK
 USING  @LOCKS-72,R13
 002B44 5000 D048            00000 35394             +
 002B48 58F0 A0C6/0DEF       02BE0 35397             +
 002B4E 4110 6034            00034 35399    3530.              LA    RS,IOCTPTHS             SCOM CHAIN
 002B52 4B10 A0E6            02C00 35400    3531.              SH    RS,=Y(SDBCHN-SDB)       OFFSET
1IOSERV   (IOSE00) (09:40) (22MAR04) ORVYL'S SCOM I/O Service Routines                                                      Page  157
0Current Usings:  (SDB,R2) (IOCT,R6) (SCOMCLS,R10) (@SCOMDB-72,R12) (@LOCKS-72,R13)
0Loc    Object Code    Addr1 Addr2  Stmt Lv Lineno    Source Statement           (Hibal 5, Asmedit 3.3)  HLASM R4.0  2004/03/22 09.40
+___    ______ ____    _____ _____  ____ __ ______    ______ _________
0                                  35402    3533.     *
                                   35403    3534.     *  FIND SDB ON THE CHAIN
                                   35404    3535.     *
 002B56                            35405    3536.              LOOP  BEGIN
 DROP   SDB,R2                     35411  1 3537.                WITH  (SDB,RS)
 USING  SDB,R1
 002B56 5920 1014            00014 35432  1 3538.                IF    (RA,EQ,SDBCHN),EXIT     FOUND
 002B5A 4780 A062            02B7C 35446  1          +
 002B5E 5810 1014            00014 35452  1 3539.                L     RS,SDBCHN
 002B62 1211/4770 A05E       02B78 35453  1 3540.                IF    (RS,Z),'KAPUT SCOMCLS'
 002B68 4110 0001            00001 35470  2 03-KAPUT +*,THIS FUNCTION IS NOT IMPLEMENTED
 002B6C 4100 0080            00080 35476  2          +
 002B70 8900 0018/1610       00018 35477  2          +
 002B76 0A0D                       35479  1          +
 002B78 47F0 A03C            02B56 35484    3541.              END   ,
 USING  SDB,R2
 DROP   SDB,R1
                                   35503    3542.     *
                                   35504    3543.     *  NOW DISCONNECT IT AND FREE THE CHAIN LOCK
                                   35505    3544.     *
 002B7C 58E0 2014            00014 35506    3545.              L     R14,SDBCHN              NEXT IN CHAIN
 002B80 50E0 1014            00014 35507    3546.              WITH  (SDB,RS),'ST  R14,SDBCHN'    UPDATE FREE CHAIN
 DROP   SDB,R2
 USING  SDB,R1
 USING  SDB,R2
 DROP   SDB,R1
 002B84 5800 6048            00048 35548    3547.              LOCKRL IOCTPTHL               RELEASE SCOM CHAIN LOCK
 002B88 5000 D048            00000 35557             +
 002B8C 58F0 A0CE/0DEF       02BE8 35560             +
 DROP   IOCT,R6                    35562    3548.              DROP  RX
                                   35569    3549.     *
                                   35570    3550.     *  RELEASE THE MEMORY
                                   35571    3551.     *
 002B92                            35572    3552.              WITH  (SDB,RA),'CLEAR SDB'    CLEAR THE SDB
 002B92 D757 2000 2000 00000 00000 35586             +
 DROP   @LOCKS-72,R13              35590    3553.              MEMFREE L'SDB,A=(RA),TYPE=GLOBAL   RELEASE SDB BLOCK
 USING  @MEMFREE-72,R13
 002B98 D709 D048 D048 00000 00000 35612             +
 002B9E 4100 0058            00058 35619             +
 002BA2 5000 D04C            00004 35620             +
 002BA6 5020 D048            00000 35621             +
 002BAA 9212 D051      00009       35631             +
 002BAE 58F0 A0E2/0DEF       02BFC 35634             +
 002BB4 981F C008            00008 35636    3554.              PEND
 DROP   SDB,R2
 DROP   @SCOMDB-72,R12
 DROP   SCOMCLS,R10
 002BB8 9680 C000/0B0E 00000       35658             +
 DROP   @MEMFREE-72,R13
 002BC0                            35667    3555.              LTORG
 002BC0 FFFFFFFFFFFFFFFF           35669                             =8X'FF'
 002BC8 E2C4C240                   35670                             =CL4'SDB'
 002BCC 00000028                   35671                             =A(SCOMMAX)
 002BD0 00000000                   35672                             =V(MEMGET)
1IOSERV   (IOSE00) (09:40) (22MAR04) ORVYL'S SCOM I/O Service Routines                                                      Page  158
0Loc    Object Code    Addr1 Addr2  Stmt Lv Lineno    Source Statement           (Hibal 5, Asmedit 3.3)  HLASM R4.0  2004/03/22 09.40
+___    ______ ____    _____ _____  ____ __ ______    ______ _________
0002BD4 00000000                   35673                             =V(MSGGBUF)
 002BD8 00000004                   35674                             =A(#SCCOPEN)
 002BDC 00000000                   35675                             =V(MSGSEND)
 002BE0 00000000                   35676                             =V(LOCKOB)
 002BE4 0000469E                   35677                             =A(SCOMNTFY)
 002BE8 00000000                   35678                             =V(LOCKREL)
 002BEC 00002B1A                   35679                             =A(SCOMCLS)
 002BF0 0000000C                   35680                             =A(12)
 002BF4 00000018                   35681                             =A(24)
 002BF8 00004648                   35682                             =A(SCOMFLG)
 002BFC 00000000                   35683                             =V(MEMFREE)
 002C00 0014           02C3C 06A98 35684                             =Y(SDBCHN-SDB)
1IOSERV   (IOSE00) (09:40) (22MAR04) ORVYL'S Hiperspace Service Routines                                                    Page  159
0Loc    Object Code    Addr1 Addr2  Stmt Lv Lineno    Source Statement           (Hibal 5, Asmedit 3.3)  HLASM R4.0  2004/03/22 09.40
+___    ______ ____    _____ _____  ____ __ ______    ______ _________
0                                  35689    3557.              COPY  HSPCPARM
                                   35690             =*******************************************************************
                                   35691             =*                                                                 *
                                   35692             =*    HSPCPARM - ORVYL Hiperspace request parameters               *
                                   35693             =*                                                                 *
                                   35694             =*******************************************************************
0                                  35696             =*
                                   35697             =* Prefix for every request
                                   35698             =*
 000000                00000 00004 35699             =#HSPCCMD RECORD BEGIN
 000000                            35707  1          =#HSCMD     DS    A
 000004                00004 00003 35708  1          =           ORG   #HSCMD+3
 000003                            35709  1          =#HSCCODE   DS    X
                                   35710  1          =*
                                   35711  1          =* Hspace Device I/O command codes
                                   35712  1          =*
                                   35713  1          =#HSOPEN    EQU   4                       Open action code
                                   35714  1          =#HSCLOS    EQU   8                       Close I/O code
                                   35715  1          =#HSREAD    EQU   12                      Read I/O code
                                   35716  1          =#HSWRIT    EQU   16                      Write I/O code
 000004                00004 00004 35717             =         END   ,
-                                  35727             =*
                                   35728             =* Hspace Device Open request
                                   35729             =*
 000000                00000 0000C 35730             =#HSPOPEN RECORD BEGIN
 000000                            35738  1          =#HSPOCMD   DS    XL(L'#HSPCCMD)
 000004                            35739  1          =#HSPSIZE   DS    A                       Hspace max block #
 000008                            35740  1          =#HSPINFO   DS    A                       Data set info return area
 00000C                0000C 0000C 35741             =         END   ,
-                                  35751             =*
                                   35752             =* Hspace Device Close request
                                   35753             =*
 000000                00000 00004 35754             =#HSPCLOS RECORD BEGIN
 000000                            35762  1          =#HSPCLMD   DS    XL(L'#HSPCCMD)
 000004                00004 00004 35763             =         END   ,
-                                  35773             =*
                                   35774             =* Hspace Device Read/Write request
                                   35775             =*
 000000                00000 0000C 35776             =#HSPDO   RECORD BEGIN
 000000                            35784  1          =#HSPDCMD   DS    XL(L'#HSPCCMD)
 000004                            35785  1          =#HSPLIST   DS    A                       Pointer to page list
 000008                            35786  1          =#HSPCNT    DS    H                       Total number of pages
 00000A                            35787  1          =#HSPRC     DS    H                       Return Code
                                   35788  1          =#HSPEND    EQU *
 00000C                0000C 00003 35789  1          =           ORG   #HSPDCMD+3
 000003                            35790  1          =#HSPCODE   DS    X
 000004                00004 0000C 35791  1          =           ORG   #HSPEND
 00000C                0000C 0000C 35792             =         END   ,
                                   35801             =*
1IOSERV   (IOSE00) (09:40) (22MAR04) ORVYL'S Hiperspace Service Routines                                                    Page  160
0Loc    Object Code    Addr1 Addr2  Stmt Lv Lineno    Source Statement           (Hibal 5, Asmedit 3.3)  HLASM R4.0  2004/03/22 09.40
+___    ______ ____    _____ _____  ____ __ ______    ______ _________
0                                  35802             =*  The page list pointed to by #HSPLIST follows.
                                   35803             =*  The first entry is a pointer to the next list
                                   35804             =*  which is zero for the last list.  Page list
                                   35805             =*  entries follow this pointer.
                                   35806             =*
                                   35807             =*  Each entry consists of 2 fullwords
                                   35808             =*  Word 1 contains a guest real page addr
                                   35809             =*  Word 2 contains a Hiperspace block #
                                   35810             =*
                                   35811             =*  Upon return hi-order byte of Word 2 contains
                                   35812             =*  error info from MVPG or HSPSERV if #HSPRC is
                                   35813             =*  non-zero.
                                   35814             =*
 000000                00000 0000C 35815             =#HSPL    RECORD BEGIN
 000000                            35823  1          =#HSPLNXT   DS     F                      Pointer to next list
 000004                            35824  1          =#HSPLPGE   DS     F                      Page Entry
 000008                            35825  1          =#HSPLBLK   DS     F                      Block Number
                                   35826  1          =#HSPLEND   EQU *
 00000C                0000C 00008 35827  1          =           ORG    #HSPLBLK
 000008 00                         35828  1          =#HSPLFLG   FLAG   ,
 #HSPLFLG.#HSPLERR 80 ONES         35832  1          =           FLAG   #HSPLERR               HSPACE error
 000009                00009 0000C 35837             =         END    ,
-
-                                  35848    3559.     *******************************************************************
                                   35849    3560.     *
                                   35850    3561.     *    HSPDO - Hiperspace page/swap simulation control block
                                   35851    3562.     *
                                   35852    3563.     *******************************************************************
 000000                00000 00014 35853    3564.     HSPDO    RECORD BEGIN
 000000                            35861  1 3565.     HSPDID     DS    CL4            'HSPD' ACRONYM
 000004                            35862  1 3566.     HSPDLEN    DS    CL4            LENGTH FOR MEMFREE
 000008                            35863  1 3567.     HSPDHDB    DS    CL4            POINTER TO HDB
 00000C                            35864  1 3568.     HSPDIOFF   DS    CL4            POINTER TO MVS OFFSET
 000010                            35865  1 3569.     HSPDPIO    DS    CL4            POINTER TO #PIODO
                                   35866  1 3570.     HSPDEND    EQU   *
 000014                00014 00014 35867    3571.              END
                                   35876    3572.     *******************************************************************
                                   35877    3573.     *
                                   35878    3574.     *    HSPCWORK - Hiperspace work area
                                   35879    3575.     *
                                   35880    3576.     *******************************************************************
 000000                00000 00015 35881    3577.     HSPCWORK RECORD BEGIN
 000000                            35889  1 3578.     HSPCCNT    DS    A              NUMBER OF PAGES TO PROCESS
 000004                            35890  1 3579.     HSPCLIST   DS    A              LIST SUPPLIED BY CALLER
 000008                            35891  1 3580.     HSPCRWWK   DS    A              ADDRESS OF HSRWWORK
 00000C                            35892  1 3581.     HSPCIOFF   DS    A              ADDRESS OF MVS OFFSET
 000010                            35893  1 3582.     HSPCRQID   DS    A              USER PARM AREA
 000014 00                         35894  1 3583.     HSPCFLG    FLAG  ,
 HSPCFLG.HSPCWRIT  80 ONES         35898  1 3584.                FLAG  HSPCWRIT       HIPERSPACE WRITE REQUEST
 HSPCFLG.HSPCREAD  40 ONES         35903  1 3585.                FLAG  HSPCREAD       HIPERSPACE READ REQUEST
 000015                00015 00015 35908    3586.              END   ,
1IOSERV   (IOSE00) (09:40) (22MAR04) ORVYL'S Hiperspace Service Routines                                                    Page  161
0Loc    Object Code    Addr1 Addr2  Stmt Lv Lineno    Source Statement           (Hibal 5, Asmedit 3.3)  HLASM R4.0  2004/03/22 09.40
+___    ______ ____    _____ _____  ____ __ ______    ______ _________
0
                                   35918    3588.     *******************************************************************
                                   35919    3589.     *
                                   35920    3590.     *    @DOHSPC - Parameters passed to Hiperspace drivers
                                   35921    3591.     *
                                   35922    3592.     *******************************************************************
0000000                00000 00010 35924    3594.     @DOHSPC  RECORD BEGIN
 000000                            35932  1 3595.     @DOHSPRM   DS    A                       User parm pointer
 000004                            35933  1 3596.     @DOHSHDB   DS    A                       HDB Pointer
 000008                            35934  1 3597.     @DOHSIRB   DS    A                       IORB Pointer
 00000C                            35935  1 3598.     @DOHSRC    DS    A                       Return code
 000010                00010 00010 35936    3599.              END   ,
-
                                   35946    3601.     *
                                   35947    3602.     *  @HSRDWRT - Parameters passed to Hiperspace common routine
                                   35948    3603.     *
 000000                00000 00008 35949    3604.     @HSRDWRT RECORD BEGIN
 000000                            35957  1 3605.     @HSWKADR   DS    A                       Ptr to HSPCWORK
 000004                            35958  1 3606.     @HSHDBAD   DS    A                       Ptr to HDB
                                   35959  1 3607.     @HSPSEND   EQU   *
 000008                00008 00008 35960    3608.              END   ,
1IOSERV   (IOSE00) (09:40) (22MAR04) ORVYL'S Hiperspace Service Routines                                                    Page  162
0Loc    Object Code    Addr1 Addr2  Stmt Lv Lineno    Source Statement           (Hibal 5, Asmedit 3.3)  HLASM R4.0  2004/03/22 09.40
+___    ______ ____    _____ _____  ____ __ ______    ______ _________
0                                  35970    3610.     *******************************************************************
                                   35971    3611.     *
                                   35972    3612.     *    STANDARD HIPERSPACE FUNCTION TABLE
                                   35973    3613.     *
                                   35974    3614.     *******************************************************************
00031E4                031E4 06A98 35976    3616.              DATA  BEGIN
 0031E4 00000000                   35981  1 3617.     HSPCTAB    DC    A(0)
 0031E8 00002FA4                   35982  1 3618.                DC    A(HSOPEN)               OPEN
 0031EC 00003204                   35983  1 3619.                DC    A(HSCLOSE)              CLOSE
 0031F0 000033B6                   35984  1 3620.                DC    A(HSIO)                 READ
 0031F4 000033B6                   35985  1 3621.                DC    A(HSIO)                 WRITE
                                   35986  1 3622.     HSPCMAX    EQU   *-HSPCTAB-4             MAXIMUM
 002C3C                02C3C 06A98 35987    3623.              END   ,
1IOSERV   (IOSE00) (09:40) (22MAR04) ORVYL'S Hiperspace Service Routines                                                    Page  163
0Loc    Object Code    Addr1 Addr2  Stmt Lv Lineno    Source Statement           (Hibal 5, Asmedit 3.3)  HLASM R4.0  2004/03/22 09.40
+___    ______ ____    _____ _____  ____ __ ______    ______ _________
0                                  35994    3625.     *******************************************************************
                                   35995    3626.     *
                                   35996    3627.     *   HSPIO  - Do Standard Hiperspace Transactions
                                   35997    3628.     *
                                   35998    3629.     *
                                   35999    3630.     *     Input - @DOIO
                                   36000    3631.     *
                                   36001    3632.     *    Output -
                                   36002    3633.     *
                                   36003    3634.     *
                                   36004    3635.     *******************************************************************
-
 002C3C                            36006    3637.     HSPIO    PROC  @DOIO,SCOPE=LOCAL
 002C3C C8E2D7C9D6404040           36011             +
 002C44 0010/0000                  36012             +
 002C48 900F D004/18AF       00004 36014             +
 USING  HSPIO,R10
 002C4E 50D0 C000/18CD       00000 36029             +
 002C54 9680 C000      00000       36031             +
 USING  @DOIO-72,R12
 002C58 41D0 C058            00058 36045             +
 002C5C 5860 C04C            00004 36046    3638.              L     RX,@DODSID              PATH BLOCK POINTER
 USING  COMDB,R6                   36047    3639.              WITH  (COMDB,RX)
 AUSING (HDB,COMDB)                36060    3640.              WITH  (HDB,COMDB)
 002C60                            36067    3641.              IF    (COMDBID,NE,=CL4'HDB'),'KAPUT HSPIO'
 002C60 D503 A570 6000 031B8 00000 36078             +
 002C66 4780 A032            02C7A 36079             +
 002C6A 4110 0001            00001 36092  1          +
 002C6E 4100 0080            00080 36093  1          +
 002C72 8900 0018/1610       00018 36094  1          +
 002C78 0A0D                       36096             +
 002C7A 5840 C050            00008 36101    3642.              L     RJ,@DOIORB
 USING  @IORB,R4                   36102    3643.              WITH  (@IORB,RJ)
 002C7E 5870 C048            00000 36115    3644.              L     RY,@DOUPRM              USER PARAMETERS
 USING  #HSPCCMD,R7                36116    3645.              WITH  (#HSPCCMD,RY)
 002C82 1B11                       36129    3646.              CLEAR RS
 002C84 4310 7003            00003 36133    3647.              IC    RS,#HSCCODE             FUNCTION CODE
 002C88 1211/4720 A056       02C9E 36134    3648.              IF    (RS,NP),'KAPUT HSPCCMD'
 002C8E 4110 0001            00001 36151  1 03-KAPUT +*,THIS FUNCTION IS NOT IMPLEMENTED
 002C92 4100 0080            00080 36157  1          +
 002C96 8900 0018/1610       00018 36158  1          +
 002C9C 0A0D                       36160             +
 002C9E 5910 A574            031BC 36165    3649.              IF    (RS,GT,HSPCMAX),'KAPUT HSPCMAX'
 002CA2 47D0 A06E            02CB6 36177             +
 002CA6 4110 0001            00001 36190  1          +
 002CAA 4100 0080            00080 36191  1          +
 002CAE 8900 0018/1610       00018 36192  1          +
 002CB4 0A0D                       36194             +
                                   36199    3650.     * Must also be a multiple of 4
 002CB6 9103 7003      00003       36200    3651.              IF    ('TM #HSCCODE,3',NZ),'KAPUT HSPCJUNK'
 002CBA 4780 A086            02CCE 36208             +
 002CBE 4110 0001            00001 36221  1          +
 002CC2 4100 0080            00080 36222  1          +
 002CC6 8900 0018/1610       00018 36223  1          +
1IOSERV   (IOSE00) (09:40) (22MAR04) ORVYL'S Hiperspace Service Routines                                                    Page  164
0Current Usings:  (@IORB,R4) (COMDB,R6) (#HSPCCMD,R7) (HSPIO,R10) (@DOIO-72,R12)
0Loc    Object Code    Addr1 Addr2  Stmt Lv Lineno    Source Statement           (Hibal 5, Asmedit 3.3)  HLASM R4.0  2004/03/22 09.40
+___    ______ ____    _____ _____  ____ __ ______    ______ _________
0002CCC 0A0D                       36225             +
                                   36230    3652.     *** SIMULATION CODE ***
                                   36231    3653.     *
                                   36232    3654.     *  IF WE ARE SIMULATING A PAGE OR SWAP OPERATION, WE HAVE A USER
                                   36233    3655.     *  PARM IN THE FORMAT OF #PIODO FOR PAGE OR #SWPDO FOR SWAP.  WE
                                   36234    3656.     *  WILL COPY THE PARM TO A NEW AREA CALLED HSPDO WHICH WILL ALSO
                                   36235    3657.     *  CONTAIN A SECTION FORMATTED AS #HSPDO, THE PARM EXPECTED FOR A
                                   36236    3658.     *  DIRECT HIPERSPACE REQUEST, SINCE THE HIPERSPACE OPERATION MUST
                                   36237    3659.     *  PROCEED SIMULTANEOUSLY WITH BUT INDEPENDENTLY OF THE PAGE/SWAP
                                   36238    3660.     *  I/O OPERATION.
                                   36239    3661.     *
                                   36240    3662.   C          IF    ((RS,EQ,#HSREAD),OR,    IF READ OR WRITE
                                            3663.   C                (RS,EQ,#HSWRIT)),         OPERATION
 002CCE 5910 A578            031C0          3664.                    BEGIN
 002CD2 4780 A096            02CDE 36256             +
 002CD6 5910 A57C            031C4 36267             +
 002CDA 4770 A29C            02EE4 36268             +
                                   36273  1 3665.     *
                                   36274  1 3666.     *  IF SIMULATING A PAGE/SWAP I/O, HIPERSPACE OPEN WAS NOT MIMICKED
                                   36275  1 3667.     *  AT PAGE/SWAP OPEN BECAUSE THE MAXIMUM BLOCK COUNT WHICH IS
                                   36276  1 3668.     *  REQUIRED FOR DSPSERV HAS NOT BEEN COMPUTED UNTIL PAGE/SWAP OPEN
                                   36277  1 3669.     *  PROCESSING COMPLETES IN THE PAGE/SWAP I/O SUBTASK.
                                   36278  1 3670.     *
 002CDE 9108 6028      00028       36279  1 3671.                IF    (HDBFLG.HDBOPEN,Z),BEGIN IF OPEN HAS NOT BEEN ISSUED
 002CE2 4770 A0C0            02D08 36291  1          +
 USING  @DOHSPC-72,R13             36296  2 3672.                  PSET  @DOHSPC
 002CE6 D70F D048 D048 00000 00000 36313  2          +
 002CEC 5060 D04C            00004 36314  2 3673.                  ST    RX,@DOHSHDB             HDB pointer
 002CF0 5070 D048            00000 36315  2 3674.                  ST    RY,@DOHSPRM             User parm addr
 002CF4 5040 D050            00008 36316  2 3675.                  ST    RJ,@DOHSIRB             IORB Pointer
 002CF8 58F0 A580/0DEF       031C8 36317  2 3676.                  ACALL HSOPEN                  CALL OPEN FUNCTION
                                   36324  2 3677.     *** TEST CODE ***
 002CFE 0700/0ADE                  36325  2 3678.                  QSNAP HDB,L'HDB-1
 002D02 086300006000               36328  2          +
                                   36329  2 3679.     *** END OF TEST CODE ***
 002D08                            36330  1 3680.                END   ,                    OF IF OPEN HAS NOT BEEN ISSUED
 002D08 1827                       36334  1 3681.                LR    RA,RY                   CHNG ORIG PARM BASE
 002D0A 9120 6028      00028       36335  1 3682.                IF    HDBFLG.HDBPAGE,BEGIN    IF MIMICKING A PAGE IO
 002D0E 47E0 A14A            02D92 36345  1          +
 USING  #PIODO,R2                  36350  2 3683.                  WITH  (#PIODO,RA)               USE #PIODO PARM DSECT
                                   36363  2 3684.     *
                                   36364  2 3685.     *  GET NEW STORAGE FOR HSPDO.  AREA WILL CONTAIN HSPDO + #HSPDO +
                                   36365  2 3686.     *  A 12-BYTE PAGE LIST CONTAINING ONE PAGE/BLOCK ENTRY.
                                   36366  2 3687.     *
 002D12 4100 002C            0002C 36367  2 3688.                  LA    RVR,L'HSPDO+L'#HSPDO+L'#HSPL CALCULATE STORAGE LEN
 002D16 1830                       36368  2 3689.                  LR    RB,RVR                  SAVE FOR LATER
                                   36369  2 3690.     *        MEMGET (RB),TYPE=GLOBAL       GET MEMORY
 002D18 47F0 A0D8/00         02D20 36370  2 3691.     HSPDOOB1     STORAGE OBTAIN,LENGTH=(RVR),SP=10,RELATED=HSPDORL
 002D1D 00/0A/02/1800              36376  2          +
 002D22 58F0 A0D4            02D1C 36381  2          +
 002D26 58E0 0010            00010 36382  2          +
 002D2A 58EE 0304            00304 36383  2          +
 002D2E 58EE 00A0            000A0 36384  2          +
 002D32 B218 E000      00000       36385  2          +
1IOSERV   (IOSE00) (09:40) (22MAR04) ORVYL'S Hiperspace Service Routines                                                    Page  165
0Current Usings:  (#PIODO,R2) (@IORB,R4) (COMDB,R6) (#HSPCCMD,R7) (HSPIO,R10) (@DOIO-72,R12) (@DOHSPC-72,R13)
0Loc    Object Code    Addr1 Addr2  Stmt Lv Lineno    Source Statement           (Hibal 5, Asmedit 3.3)  HLASM R4.0  2004/03/22 09.40
+___    ______ ____    _____ _____  ____ __ ______    ______ _________
0002D36 1871                       36386  2 3692.                  LR    RY,RS                   USE ASSIGNED BASE REG
 DROP   #HSPCCMD,R7                36387  2 3693.                  WITH  (#HSPDO,RY)      **ESO**
 USING  #HSPDO,R7
 AUSING (#HSPL,#HSPEND)            36403  2 3694.                  WITH  (#HSPL,#HSPEND)  **ESO**
 AUSING (HSPDO,#HSPLEND)           36410  2 3695.                  WITH  (HSPDO,#HSPLEND) **ESO**
 002D38                            36417  2 3696.                  CLEAR HSPDO
 002D38 D713 7018 7018 00000 00000 36423  2          +
 002D3E D203 7018 A584 00000 031CC 36424  2 3697.                  MVC   HSPDID,=C'HSPD'         MOVE IN ACRONYM
 002D44 5030 701C            00004 36425  2 3698.                  ST    RB,HSPDLEN              STORE LENGTH FOR FREEMAIN
 002D48 5060 7020            00008 36426  2 3699.                  ST    RX,HSPDHDB              SAVE HDB ADDRESS
 002D4C D203 7024 4004 0000C 00004 36427  2 3700.                  MVC   HSPDIOFF,@IOROFF        AND MVS OFFSET
 002D52 5020 7028            00010 36428  2 3701.                  ST    RA,HSPDPIO                AND #SWPDO
 002D56                            36429  2 3702.                  CLEAR #HSPDO
 002D56 D70B 7000 7000 00000 00000 36435  2          +
 002D5C D203 7000 2000 00000 00000 36436  2 3703.                  MVC   #HSPDCMD,#PIODCMD       COPY ORIGINAL PARM
 002D62 4100 0001            00001 36437  2 3704.                  LA    RVR,1                   WE WILL BE MOVING 1
 002D66 4000 7008            00008 36438  2 3705.                  STH   RVR,#HSPCNT                PAGE ONLY
 002D6A                            36439  2 3706.                  CLEAR #HSPRC                  ZERO RETURN CODE
 002D6A D701 700A 700A 0000A 0000A 36445  2          +
                                   36446  2 3707.     *
                                   36447  2 3708.     *  WE ARE USING A HOST-BASED VIRTUAL PAGE LIST IN PLACE OF A GUEST
                                   36448  2 3709.     *  REAL LIST.  HOST ADDRESSES DO NOT UNDERGO TRANSLATION BUT FOR
                                   36449  2 3710.     *  COMPATILIBITY WITH SUBSEQUENT HIPERSPACE ROUTINES WHICH EXPECT A
                                   36450  2 3711.     *  GUEST REAL ADDRESS, WE MUST SUBTRACT THE GUEST'S @IOROFF OFFSET
                                   36451  2 3712.     *  NOW SINCE IT WILL BE ADDED LATER ON BY THE SUBSEQUENT ROUTINES.
                                   36452  2 3713.     *
 002D70 4100 700C            00000 36453  2 3714.                  LA    RVR,#HSPL                 INT TO PAGE LIST
 002D74 5F00 4004            00004 36454  2 3715.                  SL    RVR,@IOROFF             SUBTRACT MVS OFFSET
 002D78 5000 7004            00004 36455  2 3716.                  ST    RVR,#HSPLIST            STORE LIST AT END OF DSECT
                                   36456  2 3717.     *
                                   36457  2 3718.     *  NOW WE FORMAT THE PAGE LIST
                                   36458  2 3719.     *
 002D7C 1B00                       36459  2 3720.                  CLEAR RVR                     INSERT ZEROES IN
 002D7E 5000 700C            00000 36463  2 3721.                  ST    RVR,#HSPLNXT              NEXT LIST POINTER
 002D82 D203 7010 2008 00004 00008 36464  2 3722.                  MVC   #HSPLPGE,#PIOBLK+4      COPY PAGE AND
 002D88 D203 7014 2004 00008 00004 36465  2 3723.                  MVC   #HSPLBLK,#PIOBLK          BLOCK POINTERS
 002D8E 9680 7010      00004       36466  2 3724.                  OI     #HSPLPGE,X'80'          TURN ON END-OF-LIST FLAG
 DROP   #HSPDO,R7                  36467  1 3725.                END   ,                    OF IF MIMICKING A PAGE IO
 USING  #HSPCCMD,R7
 DROP   #PIODO,R2
 002D92 A14E           02D92 02D10 36488  1 3726.                ELSEIF (HDBFLG.HDBSWAP),BEGIN   IF MIMICKING A SWAP IO
 002D92 47F0 A29C            02EE4 36494  1          +
 002D96 9110 6028      00028       36506  1          +
 002D9A 47E0 A29C            02EE4 36507  1          +
                                   36512  2 3727.     *
                                   36513  2 3728.     *  WE ARE SIMULATING A SWAP OPERATION.  THE #SWPDO PARAMETER LIST
                                   36514  2 3729.     *  CONTAINS A VARIABLE NUMBER OF SUBLISTS OF GUEST PAGES.  EACH
                                   36515  2 3730.     *  SUBLIST CONTAINS A NEXT-LIST POINTER WHICH CHAINS IT TO THE NEXT
                                   36516  2 3731.     *  SUBLIST. THE LAST NEXT-LIST POINTER CONTAINS ZEROES. EACH SUBLIST
                                   36517  2 3732.     *  CONTAINS A VARIABLE NUMBER OF FULLWORD ENTRIES DESCRIBING GUEST
                                   36518  2 3733.     *  REAL PAGE ADDRESSES, THE END OF WHICH IS MARKED BY A X'80' IN THE
                                   36519  2 3734.     *  HIGH ORDER BYTE.  THE SWAP DATA SET SLOTS ARE INDICATED BY A
                                   36520  2 3735.     *  BEGINNING BLOCK NUMBER AND ASSIGNED SEQUENTIALLY AS INDICATED BY
                                   36521  2 3736.     *  #SWPCNT.  THIS LIST MUST BE CONVERTED TO THE #HSPDO FORMAT
1IOSERV   (IOSE00) (09:40) (22MAR04) ORVYL'S Hiperspace Service Routines                                                    Page  166
0Current Usings:  (@IORB,R4) (COMDB,R6) (#HSPCCMD,R7) (HSPIO,R10) (@DOIO-72,R12) (@DOHSPC-72,R13)
0Loc    Object Code    Addr1 Addr2  Stmt Lv Lineno    Source Statement           (Hibal 5, Asmedit 3.3)  HLASM R4.0  2004/03/22 09.40
+___    ______ ____    _____ _____  ____ __ ______    ______ _________
0                                  36522  2 3737.     *  EXPECTED BY MODULE HSRDWRT.  THIS IS SIMILAR TO THE FORMAT FOR
                                   36523  2 3738.     *  PAGE SIMULATION PERFORMED ABOVE BUT SWAPS INVOLVE MULTIPLE PAGE
                                   36524  2 3739.     *  AND BLOCK ENTRIES WHEREAS PAGE SIMULATION CONTAINS ONLY ONE PAGE
                                   36525  2 3740.     *  AND BLOCK ENTRY.
                                   36526  2 3741.     *
 USING  #SWPDO,R2                  36527  2 3742.                  WITH  (#SWPDO,RA)             USE SWAP IO PARM DSECT
 002D9E 4830 200C            0000C 36540  2 3743.                  LH    RB,#SWPCNT              GET SWAP COUNT
 002DA2 8930 0003            00003 36541  2 3744.                  SLL   RB,3                    CNT*8=PAGE/BLOCK ENTRY SIZE
 002DA6 4130 3010            00010 36542  2 3745.                  LA    RB,L'#HSPDO+4(,RB)      GET STORAGE FOR #HSPDO+LIST
 002DAA 4100 3014            00014 36543  2 3746.                  LA    RVR,HSPDEND-HSPDO(,RB)  INCLUDE HSPDO AREA
 002DAE 1830                       36544  2 3747.                  LR    RB,RVR                  SAVE LENGTH FOR LATER
                                   36545  2 3748.     *        MEMGET (RB),TYPE=GLOBAL       GET #HSPDO
 002DB0 47F0 A170/00         02DB8 36546  2 3749.     HSPDOOB2     STORAGE OBTAIN,LENGTH=(RVR),SP=10,RELATED=HSPDORL
 002DB5 00/0A/02/1800              36552  2          +
 002DBA 58F0 A16C            02DB4 36557  2          +
 002DBE 58E0 0010            00010 36558  2          +
 002DC2 58EE 0304            00304 36559  2          +
 002DC6 58EE 00A0            000A0 36560  2          +
 002DCA B218 E000      00000       36561  2          +
 002DCE 1871                       36562  2 3750.                  LR    RY,RS                   USE ASSIGNED BASE REG
 DROP   #HSPCCMD,R7                36563  2 3751.                  WITH  (#HSPDO,RY)      **ESO**
 USING  #HSPDO,R7
 AUSING (#HSPL,#HSPEND)            36579  2 3752.                  WITH  (#HSPL,#HSPEND)  **ESO**
 AUSING (HSPDO,#HSPLEND)           36586  2 3753.                  WITH  (HSPDO,#HSPLEND) **ESO**
 002DD0                            36593  2 3754.                  CLEAR HSPDO            **ESO**
 002DD0 D713 7018 7018 00000 00000 36599  2          +
 002DD6 D203 7018 A584 00000 031CC 36600  2 3755.                  MVC   HSPDID,=C'HSPD'         MOVE IN ACRONYM
 002DDC 5030 701C            00004 36601  2 3756.                  ST    RB,HSPDLEN              STORE LENGTH FOR FREEMAIN
 002DE0 5060 7020            00008 36602  2 3757.                  ST    RX,HSPDHDB              SAVE HDB ADDRESS
 002DE4 D203 7024 4004 0000C 00004 36603  2 3758.                  MVC   HSPDIOFF,@IOROFF        AND MVS OFFSET
 002DEA 5020 7028            00010 36604  2 3759.                  ST    RA,HSPDPIO                AND #SWPDO
 002DEE                            36605  2 3760.                  CLEAR #HSPDO
 002DEE D70B 7000 7000 00000 00000 36611  2          +
 002DF4 D203 7000 2000 00000 00000 36612  2 3761.                  MVC   #HSPDCMD,#SWPDCMD       COPY ORIGINAL PARM
 002DFA D201 7008 200C 00008 0000C 36613  2 3762.                  MVC   #HSPCNT,#SWPCNT           AND PAGE COUNT
 002E00                            36614  2 3763.                  CLEAR #HSPRC                  ZERO RETURN CODE
 002E00 D701 700A 700A 0000A 0000A 36620  2          +
                                   36621  2 3764.     *
                                   36622  2 3765.     *  MAKE SURE THERE IS A SWAP LIST
                                   36623  2 3766.     *
 002E06 5850 2008/1255       00008 36624  2 3767.                  IF    ('LT RK,#SWPLIST',Z),'KAPUT NOSWPLST'
 002E0C 4770 A1D8            02E20 36635  2          +
 002E10 4110 0001            00001 36648  3          +
 002E14 4100 0080            00080 36649  3          +
 002E18 8900 0018/1610       00018 36650  3          +
 002E1E 0A0D                       36652  2          +
 002E20 5050 7004            00004 36657  2 3768.                  ST    RK,#HSPLIST             SAVE SWAP LIST
 002E24 5830 2004            00004 36658  2 3769.                  L     RB,#SWPBLK              GET STARTING BLOCK NO.
                                   36659  2 3770.     *
                                   36660  2 3771.     *  ZERO OUT THE NEXT LIST POINTER IN OUR NEW LIST BECAUSE WE WILL
                                   36661  2 3772.     *  CONSOLIDATE ALL SUBLISTS FROM THE OLD LIST INTO ONE LIST IN THE
                                   36662  2 3773.     *  NEW ONE.
                                   36663  2 3774.     *
 002E28 1B55                       36664  2 3775.                  CLEAR RK                      ZERO OUT POINTER TO NEXT
1IOSERV   (IOSE00) (09:40) (22MAR04) ORVYL'S Hiperspace Service Routines                                                    Page  167
0Current Usings:  (#SWPDO,R2) (@IORB,R4) (COMDB,R6) (#HSPDO,R7) (HSPIO,R10) (@DOIO-72,R12) (@DOHSPC-72,R13)
0Loc    Object Code    Addr1 Addr2  Stmt Lv Lineno    Source Statement           (Hibal 5, Asmedit 3.3)  HLASM R4.0  2004/03/22 09.40
+___    ______ ____    _____ _____  ____ __ ______    ______ _________
0002E2A 5050 700C            00000 36668  2 3776.                  ST    RK,#HSPLNXT             LIST, WE ONLY HAVE ONE
                                   36669  2 3777.     *
                                   36670  2 3778.     *  ROUTINE TO FORMAT THE NEW SWAP LIST
                                   36671  2 3779.     *        RM = POINTER TO PAGE ENTRY IN OLD LIST
                                   36672  2 3780.     *        RK = INDEX TO NEW LIST PAGE ENTRY
                                   36673  2 3781.     *        RB = GENERATES SEQUENTIAL BLOCK NO FOR NEW LIST
                                   36674  2 3782.     *        #HSPLIST USED AS A TEMPORARY WORK AREA WITHIN LOOP
                                   36675  2 3783.     *
 002E2E 5880 7004/1288       00004 36676  2 3784.                  WHILE ('LT  RM,#HSPLIST',NZ),BEGIN SWAP LIST REBUILD
 002E34 4780 A286            02ECE 36689  2          +
 002E38 5E80 4004            00004 36694  3 3785.                    AL    RM,@IOROFF              TO MVS VIRTUAL
 002E3C D203 7004 8000 00004 00000 36695  3 3786.                    MVC   #HSPLIST,@RM            NEXT LIST
 002E42                            36696  3 3787.                    LOOP  BEGIN                   SWAP LIST SEARCH LOOP
 002E42 4180 8004            00004 36702  4 3788.                      LA    RM,@RM+4                NEXT PAGE ENTRY
                                   36703  4 3789.     *
                                   36704  4 3790.     *  IF TOTAL PAGE COUNT GOES NEGATIVE BEFORE LOOP ENDS, THERE IS A
                                   36705  4 3791.     *  MISMATCH BETWEEN THE COUNT AND THE NUMBER OF PAGES IN THE LIST.
                                   36706  4 3792.     *
 002E46 4800 7008/0600       00008 36707  4 3793.                      DECR  R0,#HSPCNT              DECREMENT TOTAL COUNT
 002E4C 4000 7008            00008 36711  4          +
 002E50 1200/47B0 A21E       02E66 36712  4 3794.                      IF    (R0,M),'KAPUT SWPCNT'   ABEND ON A MISMATCH
 002E56 4110 0001            00001 36729  5 03-KAPUT +*,THIS FUNCTION IS NOT IMPLEMENTED
 002E5A 4100 0080            00080 36735  5          +
 002E5E 8900 0018/1610       00018 36736  5          +
 002E64 0A0D                       36738  4          +
 002E66 41F0 0FFF            00FFF 36743  4 3795.                      LA    R15,4095                PAGE MUST BE ON PAGE BNDRY
 002E6A 54F0 8000            00000 36744  4 3796.                      IF    ('N  R15,@RM',NZ),'KAPUT SWIOADDR' ELSE ABEND
 002E6E 4780 A23A            02E82 36752  4          +
 002E72 4110 0001            00001 36765  5          +
 002E76 4100 0080            00080 36766  5          +
 002E7A 8900 0018/1610       00018 36767  5          +
 002E80 0A0D                       36769  4          +
 002E82 58F0 8000            00000 36774  4 3797.                      L     R15,@RM                 GET A GUEST REAL PAGE POINTER
 002E86 5EF0 4004            00004 36775  4 3798.                      AL    R15,@IOROFF             TRANSLATE TO MVS VIRTUAL
 002E8A B1F0 F000            00000 36776  4 3799.                      LRA   R15,@R15                MAKE SURE IT IS BACKED BY A
 002E8E 4780 A25A            02EA2 36777  4 3800.                      IF    NZ,'KAPUT SWPNFIX'        REAL PAGE ELSE ABEND
 002E92 4110 0001            00001 36796  5          +
 002E96 4100 0080            00080 36797  5          +
 002E9A 8900 0018/1610       00018 36798  5          +
 002EA0 0A0D                       36800  4          +
 002EA2 5035 7014            00008 36805  4 3801.                      ST    RB,#HSPLBLK(RK)         STORE BLOCK NO IN NEW
 002EA6 58F0 8000            00000 36806  4 3802.                      L     R15,@RM                 GET SWAP BUFFER POINTER
 002EAA 89F0 0001            00001 36807  4 3803.                      SLL   R15,1                   CLEAR END-OF-LIST FLAG
 002EAE 88F0 0001            00001 36808  4 3804.                      SRL   R15,1                     IN HIGH-ORDER BIT
 002EB2 50F5 7010            00004 36809  4 3805.                      ST    R15,#HSPLPGE(RK)        STORE IN NEW SWAP LIST
 002EB6 41F5 7010            00004 36810  4 3806.                      LA    R15,#HSPLPGE(RK)        SAVE CURR PTR FOR END-OF-LIST
 002EBA 4150 5008            00008 36811  4 3807.                      LA    RK,@RK+8                BUMP TO NEXT SLOT IN NEW
 002EBE 4130 3001            00001 36812  4 3808.                      LA    RB,1(,RB)               ASSIGN NEXT HSPCE BLK NO
 002EC2 9180 8000      00000       36813  3 3809.                    UNTIL @RM.X'80',END           RETURN TO SEARCH LOOP
 002EC6 47E0 A1FA            02E42 36831  3          +
 002ECA 47F0 A1E6            02E2E 36837  2 3810.                  END   ,                    OF SWAP LIST REBUILD
 002ECE 9680 F000      00000       36842  2 3811.                  OI    @R15,X'80'
 002ED2 D201 7008 200C 00008 0000C 36843  2 3812.                  MVC   #HSPCNT,#SWPCNT         REFRESH PAGE COUNT
 002ED8 4100 700C            00000 36844  2 3813.                  LA    RVR,#HSPL               POSITION RK TO NEW LIST
1IOSERV   (IOSE00) (09:40) (22MAR04) ORVYL'S Hiperspace Service Routines                                                    Page  168
0Current Usings:  (#SWPDO,R2) (@IORB,R4) (COMDB,R6) (#HSPDO,R7) (HSPIO,R10) (@DOIO-72,R12) (@DOHSPC-72,R13)
0Loc    Object Code    Addr1 Addr2  Stmt Lv Lineno    Source Statement           (Hibal 5, Asmedit 3.3)  HLASM R4.0  2004/03/22 09.40
+___    ______ ____    _____ _____  ____ __ ______    ______ _________
0002EDC 5F00 4004            00004 36845  2 3814.                  SL    RVR,@IOROFF             SUBTRACT MVS OFFSET
 002EE0 5000 7004            00004 36846  2 3815.                  ST    RVR,#HSPLIST            REFRESH LIST POINTER
 DROP   #HSPDO,R7                  36847  1 3816.                END   ,                    OF IF MIMICKING A SWAP IO
 USING  #HSPCCMD,R7
 DROP   #SWPDO,R2
 002EE4                            36868    3817.              END   ,                    OF IF READ OR WRITE
                                   36872    3818.     *** END OF SIMULATION CODE ***
                                   36873    3819.     *
                                   36874    3820.     *  Send request to driver
                                   36875    3821.     *
 002EE4 5860 C04C            00004 36876    3822.              L     RX,@DODSID              PATH BLOCK POINTER
 002EE8 5840 C050            00008 36877    3823.              L     RJ,@DOIORB
 002EEC                            36878    3824.              PSET  @DOHSPC
 002EEC D70F D048 D048 00000 00000 36888             +
 002EF2 5060 D04C            00004 36889    3825.              ST    RX,@DOHSHDB             HDB pointer
 002EF6 1B11                       36890    3826.              CLEAR RS
                                   36894    3827.              WITH  (#HSPCCMD,RY)     **ESO**
 AUSING (#HSPDO,#HSPCCMD)          36898    3828.              WITH  (#HSPDO,#HSPCCMD) **ESO**
 AUSING (#HSPL,#HSPEND)            36905    3829.              WITH  (#HSPL,#HSPEND)   **ESO**
 AUSING (HSPDO,#HSPLEND)           36912    3830.              WITH  (HSPDO,#HSPLEND)  **ESO**
 002EF8 4310 7003            00003 36919    3831.              IC    RS,#HSPDCMD+3           FUNCTION CODE
 002EFC 5070 D048            00000 36920    3832.              ST    RY,@DOHSPRM             Copied user parm addr
 002F00 5040 D050            00008 36921    3833.              ST    RJ,@DOHSIRB             IORB Pointer
 002F04 58F1 A59C/0DEF       031E4 36922    3834.              ACALL HSPCTAB(RS)             CALL FUNCTION ROUTINE
 002F0A 5910 A588            031D0 36929    3835.              IF    (RS,NE,#HSCLOS),BEGIN   IF NOT CLOSE
 002F0E 4780 A346            02F8E 36941             +
 002F12 1880                       36946  1 3836.                LR    RM,RVR                  PRESERVE RC FROM MVPG
 002F14 D203 C054 D054 0000C 0000C 36947  1 3837.                MVC   @DORC,@DOHSRC           Set return code
                                   36948  1 3838.     *
                                   36949  1 3839.     *  FOR A PAGE OR SWAP WE OBTAINED AN AREA FOR HSPDO.  WE MUST
                                   36950  1 3840.     *  FREE THIS AREA NOW.
                                   36951  1 3841.     *
 002F1A                            36952  1 3842.                IF    (COMDBID,NE,=CL4'HDB'),'KAPUT HSPIO'
 002F1A D503 A570 6000 031B8 00000 36963  1          +
 002F20 4780 A2EC            02F34 36964  1          +
 002F24 4110 0001            00001 36977  2          +
 002F28 4100 0080            00080 36978  2          +
 002F2C 8900 0018/1610       00018 36979  2          +
 002F32 0A0D                       36981  1          +
                                   36986  1 3843.   C            IF    ((HDBFLG.HDBPAGE),OR,(HDBFLG.HDBSWAP)),
 002F34 9120 6028      00028              1 3844.                      BEGIN                   DID WE MIMIC A PAGE/SWAP
 002F38 4710 A2FC            02F44 37000  1          +
 002F3C 9110 6028      00028       37009  1          +
 002F40 47E0 A344            02F8C 37010  1          +
 002F44 5850 4000            00000 37015  2 3845.                  L     RK,@IORRQID             GET POINTER TO IRCB
 USING  IRCB,R5                    37016  2 3846.                  WITH  (IRCB,RK)
 002F48                            37029  2 3847.                  IF    (HSPDID,NE,=C'HSPD'),'KAPUT NOHSPDID'
 002F48 D503 A584 7018 031CC 00000 37040  2          +
 002F4E 4780 A31A            02F62 37041  2          +
 002F52 4110 0001            00001 37054  3          +
 002F56 4100 0080            00080 37055  3          +
 002F5A 8900 0018/1610       00018 37056  3          +
 002F60 0A0D                       37058  2          +
 002F62 5830 701C            00004 37063  2 3848.                  L     RB,HSPDLEN              GET LENGTH FOR MEMFREE
1IOSERV   (IOSE00) (09:40) (22MAR04) ORVYL'S Hiperspace Service Routines                                                    Page  169
0Current Usings:  (@IORB,R4) (IRCB,R5) (COMDB,R6) (#HSPCCMD,R7) (HSPIO,R10) (@DOIO-72,R12) (@DOHSPC-72,R13)
0Loc    Object Code    Addr1 Addr2  Stmt Lv Lineno    Source Statement           (Hibal 5, Asmedit 3.3)  HLASM R4.0  2004/03/22 09.40
+___    ______ ____    _____ _____  ____ __ ______    ______ _________
0002F66 9240 7018      00000       37064  2 3849.                  MVI   HSPDID,C' '             CLEAR EYECATCHER
                                   37065  2 3850.     *        MEMFREE (RB),A=(RY),TYPE=GLOBAL FREE #HSPDO
                                   37066  2 3851.   C HSPDORL      STORAGE RELEASE,ADDR=(RY),LENGTH=(RB),
 002F6A 0700/47F0 A32C       02F74        2 3852.                        SP=10,RELATED=HSPDOOB
 002F70 00/00/0A/03                37071  2          +
 002F74 1803/1817                  37076  2          +
 002F78 58F0 A328            02F70 37078  2          +
 002F7C 58E0 0010            00010 37079  2          +
 002F80 58EE 0304            00304 37080  2          +
 002F84 58EE 00CC            000CC 37081  2          +
 002F88 B218 E000      00000       37082  2          +
 DROP   IRCB,R5                    37083  1 3853.                END   ,                    OF DID WE MIMIC A PAGE/SWAP
 002F8C 1808                       37092  1 3854.                LR    RVR,RM                  RESTORE RC FROM  VPG
 002F8E                            37093    3855.              END   ,                    OF IF NOT CLOSE
 002F8E 981F C008            00008 37097    3856.              PEND
 DROP   #HSPCCMD,R7
 DROP   @IORB,R4
 DROP   COMDB,R6
 DROP   @DOIO-72,R12
 DROP   HSPIO,R10
 002F92 9680 C000/0B0E 00000       37127             +
 DROP   @DOHSPC-72,R13
1IOSERV   (IOSE00) (09:40) (22MAR04) ORVYL'S Hiperspace Service Routines                                                    Page  170
0Loc    Object Code    Addr1 Addr2  Stmt Lv Lineno    Source Statement           (Hibal 5, Asmedit 3.3)  HLASM R4.0  2004/03/22 09.40
+___    ______ ____    _____ _____  ____ __ ______    ______ _________
0                                  37137    3858.     *******************************************************************
                                   37138    3859.     *
                                   37139    3860.     *   HSOPEN  - Process Standard Hiperspace Open request
                                   37140    3861.     *
                                   37141    3862.     *
                                   37142    3863.     *     Input -
                                   37143    3864.     *
                                   37144    3865.     *    Output -
                                   37145    3866.     *
                                   37146    3867.     *
                                   37147    3868.     *******************************************************************
-
 000000                00000 00048 37149    3870.     HSOPCL   RECORD BEGIN
                                   37157  1 3871.     DSPLIST    DSPSERV MF=(L,DSPPARM)
                                   37158  1          +*                MACDATE -11/10/99-<1>
                                   37160  1 02-00324 +         $$PUSH  PRINT
                                   37162  1 02-00289 +         $$PRINT ON
                                   37163  1 01-DSPSE +DSPLIST    EQU   DSPPARM            ++ DSPSERV NAME
 000000                            37164  1 01-DSPSE +DSPPARM    DS    0D                 ++ DSPSERV PARM LIST
 000000                            37165  1 01-DSPSE +DSPPARM_XVERSION   DS XL1           ++ INPUT XVERSION
 000001                            37166  1 01-DSPSE +DSPPARM_XSERVICE   DS XL1           ++  XSERVICE
                                   37167  1 01-DSPSE +DSPPARM_CREATE   EQU 1              ++ XSERVICE.CREATE KEYWORD
                                   37168  1 01-DSPSE +DSPPARM_DELETE   EQU 2              ++ XSERVICE.DELETE KEYWORD
                                   37169  1 01-DSPSE +DSPPARM_RELEASE   EQU 3             ++ XSERVICE.RELEASE KEYWORD
                                   37170  1 01-DSPSE +DSPPARM_DEFINE   EQU 4              ++ XSERVICE.DEFINE KEYWORD
                                   37171  1 01-DSPSE +DSPPARM_EXTEND   EQU 5              ++ XSERVICE.EXTEND KEYWORD
                                   37172  1 01-DSPSE +DSPPARM_OUT   EQU 6                 ++ XSERVICE.OUT KEYWORD
                                   37173  1 01-DSPSE +DSPPARM_LOAD   EQU 7                ++ XSERVICE.LOAD KEYWORD
 000002                            37174  1 01-DSPSE +DSPPARM_XDEFOP   DS XL1             ++  XDEFOP
                                   37175  1 01-DSPSE +DSPPARM_IOON   EQU 1                ++ XDEFOP.IOON KEYWORD
                                   37176  1 01-DSPSE +DSPPARM_IOOFF   EQU 2               ++ XDEFOP.IOOFF KEYWORD
                                   37177  1 01-DSPSE +DSPPARM_DREFON   EQU 3              ++ XDEFOP.DREFON KEYWORD
                                   37178  1 01-DSPSE +DSPPARM_DREFOFF   EQU 4             ++ XDEFOP.DREFOFF KEYWORD
 000003                            37179  1 01-DSPSE +DSPPARM_XFLAGS1   DS BL.8           ++ FIELD_LABEL
                                   37180  1 01-DSPSE +DSPPARM_SINGLE   EQU B'10000000'    ++ XSCOPE.SINGLE KEYWORD
                                   37181  1 01-DSPSE +DSPPARM_ALL   EQU B'01000000'       ++ XSCOPE.ALL KEYWORD
                                   37182  1 01-DSPSE +DSPPARM_COMMON   EQU B'00100000'    ++ XSCOPE.COMMON KEYWORD
                                   37183  1 01-DSPSEC+DSPPARM_GENNAME_COND   EQU B'00001000'
                                          1          +                                    ++ XGENNAME.COND KEYWORD
                                   37184  1 01-DSPSEC+DSPPARM_GENNAME_YES   EQU B'00000100'
                                          1          +                                    ++ XGENNAME.YES KEYWORD
                                   37185  1 01-DSPSEC+DSPPARM_IN_RANGELIST   EQU B'00000010'
                                          1          +                                    ++ XINLIST.YES KEYWORD
 000004                            37186  1 01-DSPSE +DSPPARM_XFLAGS2   DS BL.8           ++ FIELD_LABEL
                                   37187  1 01-DSPSE +DSPPARM_XDREF_YES   EQU B'10000000' ++ XDREF.YES KEYWORD
                                   37188  1 01-DSPSEC+DSPPARM_XFPROT_YES   EQU B'01000000'
                                          1          +                                    ++ XFPROT.YES KEYWORD
                                   37189  1 01-DSPSE +DSPPARM_XLONG_NO   EQU B'00100000'  ++ XLONG.NO KEYWORD
                                   37190  1 01-DSPSEC+DSPPARM_KEYUSED_KEY   EQU B'00010000'
                                          1          +                                    ++ KEYUSED.KEY KEYWORD
                                   37191  1 01-DSPSEC+DSPPARM_KEYUSED_TTOKEN   EQU B'00001000'
                                          1          +                                    ++ KEYUSED.TTOKEN KEYWORD
                                   37192  1 01-DSPSEC+DSPPARM_XFORCE_YES   EQU B'00000100'
                                          1          +                                    ++ XFORCE.YES KEYWORD
1IOSERV   (IOSE00) (09:40) (22MAR04) ORVYL'S Hiperspace Service Routines                                                    Page  171
0Loc    Object Code    Addr1 Addr2  Stmt Lv Lineno    Source Statement           (Hibal 5, Asmedit 3.3)  HLASM R4.0  2004/03/22 09.40
+___    ______ ____    _____ _____  ____ __ ______    ______ _________
0                                  37193  1 01-DSPSE +DSPPARM_XVAR_YES   EQU B'00000010'  ++ XVAR.YES KEYWORD
                                   37194  1 01-DSPSEC+DSPPARM_XSHARE_YES   EQU B'00000001'
                                          1          +                                    ++ XSHARE.YES KEYWORD
 000005                            37195  1 01-DSPSE +DSPPARM_XKEY   DS XL1               ++   XKEY
 000006                            37196  1 01-DSPSE +DSPPARM_XTYPE   DS XL1              ++  XTYPE
                                   37197  1 01-DSPSE +DSPPARM_BASIC   EQU 0               ++ XTYPE.BASIC KEYWORD
                                   37198  1 01-DSPSE +DSPPARM_HIPERSPACE   EQU 1          ++ XTYPE.HIPERSPACE KEYWORD
 000007                            37199  1 01-DSPSE +DSPPARM_XFLAGS3   DS BL.8           ++ FIELD_LABEL
                                   37200  1 01-DSPSEC+DSPPARM_HIPER_SCROLL   EQU B'10000000'
                                          1          +                                    ++ XHSTYPE.SCROLL KEYWORD
                                   37201  1 01-DSPSEC+DSPPARM_HIPER_CACHE   EQU B'01000000'
                                          1          +                                    ++ XHSTYPE.CACHE KEYWORD
                                   37202  1 01-DSPSE +DSPPARM_NOCASTOUT   EQU B'00100000' ++ XCASTOUT.NO KEYWORD
                                   37203  1 01-DSPSEC+DSPPARM_BACKED_HIGH   EQU B'00010000'
                                          1          +                                    ++ XBACK.64 KEYWORD
 000008                            37204  1 01-DSPSE +DSPPARM_XOUTNAME   DS CL8           ++   XOUTNAME
 000010                            37205  1 01-DSPSE +DSPPARM_XSTOKEN   DS CL8            ++   XSTOKEN
 000018                            37206  1 01-DSPSE +DSPPARM_XSTART   DS F               ++   XSTART
 00001C                            37207  1 01-DSPSE +DSPPARM_XBLOCKS   DS F              ++   XBLOCKS
 000020                            37208  1 01-DSPSE +DSPPARM_XTTOKEN   DS CL16           ++   XTTOKEN
 000030                            37209  1 01-DSPSE +DSPPARM_XORIGIN   DS F              ++   XORIGIN
 000034                            37210  1 01-DSPSE +DSPPARM_XNUMBLKS   DS F             ++   XNUMBLKS
                                   37211  1 01-DSPSE +DSPPARM_PL_END   EQU *              ++ END OF BASE PLIST
 000038                00038 00008 37212  1 01-DSPSE +           ORG   DSPPARM+8
 000008                            37213  1 01-DSPSE +DSPPARM_XNAME   DS CL8              ++   XNAME
 000010                00010 00018 37214  1 01-DSPSE +           ORG   DSPPARM+24
 000018                            37215  1 01-DSPSE +DSPPARM_XNUMRANGE   DS F            ++   XNUMRANGE
 00001C                0001C 0001C 37216  1 01-DSPSE +           ORG   DSPPARM+28
 00001C                            37217  1 01-DSPSE +DSPPARM_XRANGLIST   DS A            ++   XRANGLIST
 000020                00020 00038 37218  1 01-DSPSE +           ORG   DSPPARM_PL_END     RESET LOCATION COUNTER
                                   37219  1 01-DSPSE +DSPPARML   EQU   *-DSPPARM          ++ LENGTH OF PLIST
0                                  37222  1 02-00429 +         $$POP   PRINT
                                   37223  1          +*                                            DSPSERV-1
0                                  37225  1 3872.     ALELIST    ALESERV MF=L
                                   37226  1          +*              MACDATE = 06/13/1996                                @D1A
 000038                            37227  1 01-ALESE +ALELIST    DS    0F                   .ALESERV PC PARAMETER LIST
 000038 00                         37228  1 01-ALESE +           DC    XL1'00'              .SERVICE TYPE CODE
 000039 00                         37229  1 01-ALESE +           DC    XL1'00'              .OPTIONS FLAG BYTE
 00003A 0000                       37230  1 01-ALESE +           DC    AL2(0)               .RESERVED
 00003C 00000000                   37231  1 01-ALESE +           DC    A(0)                 .ALET
 000040 0000000000000000           37232  1 01-ALESE +           DC    XL8'0'               .STOKEN (SPACE TOKEN)
 000048                00048 00048 37233    3873.              END
1IOSERV   (IOSE00) (09:40) (22MAR04) ORVYL'S Hiperspace Service Routines                                                    Page  172
0Loc    Object Code    Addr1 Addr2  Stmt Lv Lineno    Source Statement           (Hibal 5, Asmedit 3.3)  HLASM R4.0  2004/03/22 09.40
+___    ______ ____    _____ _____  ____ __ ______    ______ _________
0                                  37243    3875.     *
                                   37244    3876.     *  THIS ROUTINE INITIALIZES THE HIPERSPACE.  THE GUEST CALLER CAN
                                   37245    3877.     *  INVOKE THIS ROUTINE DIRECTLY BUT IN SIMULATION MODE THIS CODE
                                   37246    3878.     *  IS DEFERRED UNTIL THE FIRST I/O REQUEST IS RECEIVED TO ENSURE
                                   37247    3879.     *  THAT THE PAGE/SWAP DATA SET OPEN HAS COMPLETED AND THAT DDBBLKCT
                                   37248    3880.     *  HAS BEEN UPDATED.  THIS VALUE MAY BE OBTAINED FROM THE DSCB OF
                                   37249    3881.     *  A REAL PAGE DATA SET AND IS USED TO DETERMINE THE MAXIMUM SIZE OF
                                   37250    3882.     *  THE HIPERSPACE BEING OPENED WHEN IN SIMULATION MODE.  ON A
                                   37251    3883.     *  DIRECT INVOCATION, THE VALUE IS GIVEN IN #HSPSIZE BY THE CALLER.
                                   37252    3884.     *
 002F98                            37253    3885.     HSOPEN   PROC  @DOHSPC,HSPCWORK,SCOPE=LOCAL
 002F98 C8E2D6D7C5D54040           37258             +
 002FA0 0010/0018                  37259             +
 002FA4 900F D004/18AF       00004 37261             +
 USING  HSOPEN,R10
 002FAA 50D0 C000/18CD       00000 37276             +
 002FB0 9680 C000      00000       37278             +
 USING  @DOHSPC-72,R12
 AUSING (HSPCWORK,@DOHSPC+16)
 002FB4 41D0 C070            00070 37297             +
 002FB8 5860 C04C            00004 37298    3886.              L     RX,@DOHSHDB             HDB POINTER
 USING  HDB,R6                     37299    3887.              WITH  (HDB,RX)
 002FBC 5870 C048            00000 37312    3888.              L     RY,@DOHSPRM             USER OPEN PARM PTR
 USING  #HSPOPEN,R7                37313    3889.              WITH  (#HSPOPEN,RY)
 002FC0 9108 6028      00028       37326    3890.              IF    HDBFLG.HDBOPEN,'KAPUT HSPOPEN'  OPEN RECURSION IS BAD
 002FC4 47E0 A034            02FD8 37336             +
 002FC8 4110 0001            00001 37349  1          +
 002FCC 4100 0080            00080 37350  1          +
 002FD0 8900 0018/1610       00018 37351  1          +
 002FD6 0A0D                       37353             +
                                   37358    3891.   C          IF    ((HDBHPSIZ,Z),AND,(#HSPSIZE,NZ)),
 002FD8                                     3892.                    'MVC HDBHPSIZ,#HSPSIZE'   DIRECT INVOCATION     **ESO**
 002FD8 D603 6024 6024 00024 00024 37370             +
 002FDE 4770 A04E            02FF2 37371             +
 002FE2 D603 7004 7004 00004 00004 37383             +
 002FE8 4780 A04E            02FF2 37384             +
 002FEC D203 6024 7004 00024 00004 37390             +
                                   37395    3893.   C          IF    ((HDBHPSIZ,Z),OR,(HDBHPSIZ,GT,=F'524288')),
 002FF2                                     3894.                    'KAPUT BADHPSIZ'  BY NOW HDPHPSIZ MUST HAVE A GOOD VALUE
 002FF2 D603 6024 6024 00024 00024 37407             +
 002FF8 4780 A062            03006 37410             +
 002FFC D503 A230 6024 031D4 00024 37421             +
 003002 47B0 A072            03016 37422             +
 003006 4110 0001            00001 37435  1          +
 00300A 4100 0080            00080 37436  1          +
 00300E 8900 0018/1610       00018 37437  1          +
 003014 0A0D                       37439             +
 USING  @MEMGET-72,R13             37444    3895.              MEMGET L'HSOPCL               GET WORKSPACE
 003016 D709 D048 D048 00000 00000 37463             +
 00301C 4100 0048            00048 37470             +
 003020 5000 D04C            00004 37471             +
 003024 9211 D051      00009       37481             +
 003028 58F0 A234/0DEF       031D8 37484             +
 00302E 1830                       37486    3896.              LR    RB,RVR
 USING  HSOPCL,R3                  37487    3897.              WITH  (HSOPCL,RB)
 003030 5820 9004            00004 37500    3898.              WITH  (RTCB,RTCBR),'L  RA,RTCBCBAT'   CBAT POINTER
1IOSERV   (IOSE00) (09:40) (22MAR04) ORVYL'S Hiperspace Service Routines                                                    Page  173
0Current Usings:  (HSOPCL,R3) (HDB,R6) (#HSPOPEN,R7) (HSOPEN,R10) (@DOHSPC-72,R12) (@MEMGET-72,R13)
0Loc    Object Code    Addr1 Addr2  Stmt Lv Lineno    Source Statement           (Hibal 5, Asmedit 3.3)  HLASM R4.0  2004/03/22 09.40
+___    ______ ____    _____ _____  ____ __ ______    ______ _________
0USING  RTCB,R9
 DROP   RTCB,R9
 003034 5820 2054            00054 37524    3899.              WITH  (CBAT,RA),'L  RA,CBATIOCT'      IOCT POINTER
 USING  CBAT,R2
 DROP   CBAT,R2
 USING  IOCT,R2                    37548    3900.              WITH  (IOCT,RA)
 003038 9180 6028      00028       37561    3901.              IF    (HDBFLG.HDBSTND),BEGIN  STANDARD HIPERSPACE
 00303C 47E0 A102            030A6 37571             +
                                   37576  1 3902.     *
                                   37577  1 3903.     *  CREATE STANDARD HIPERSPACE
                                   37578  1 3904.     *
 003040 58E0 A238            031DC 37579  1 3905.                L     RAR,=A(DSPEND+X'80000000') POINT TO PR RET
 003044 B240 00E0                  37580  1 3906.                BAKR  RAR,0                   USE HARDWARE STACK
                                   37581  1 3907.   C            DSPSERV CREATE,TYPE=HIPERSPACE,HSTYPE=SCROLL,TTOKEN=IOCTTTOK,
                                          1 3908.   C                  ORIGIN=HDBORIG,BLOCKS=HDBHPSIZ,NAME=HDBHSNAM,
 003048 4110 3000            00000        1 3909.                      STOKEN=HDBTOKEN,SHARE=YES,MF=(E,DSPLIST,COMPLETE)
 00304C D737 1000 1000 00000 00000 37589  1          +
 003052 9201 1001      00001       37590  1          +
 003056 9649 1004      00004       37591  1          +
 00305A 9201 1006      00006       37592  1          +
 00305E 9680 1007      00007       37593  1          +
 003062 D203 101C 6024 0001C 00024 37594  1          +
 003068 D20F 1020 20A0 00020 000A0 37595  1          +
 00306E D207 1008 600C 00008 0000C 37596  1          +
 003074 58E0 0010            00010 37597  1          +
 003078 58EE 0304            00304 37598  1          +
 00307C 58EE 00D0            000D0 37599  1          +
 003080 B218 E000      00000       37600  1          +
 003084 D207 601C 1010 0001C 00010 37601  1          +
 00308A D203 6014 1030 00014 00030 37602  1          +
0003090 12FF/4780 A102       030A6 37607  1 3910.                IF    (EPAR,NZ),'KAPUT DSPSVERR'
 003096 4110 0001            00001 37624  2 03-KAPUT +*,THIS FUNCTION IS NOT IMPLEMENTED
 00309A 4100 0080            00080 37630  2          +
 00309E 8900 0018/1610       00018 37631  2          +
 0030A4 0A0D                       37633  1          +
 0030A6                            37638    3911.              END   ,                    OF STANDARD HIPERSPACE
 0030A6 A106           030A6 0303E 37642    3912.              ELSEIF (HDBFLG.HDBESO),BEGIN  ESO HIPERSPACE
 0030A6 47F0 A174            03118 37648             +
 0030AA 9140 6028      00028       37660             +
 0030AE 47E0 A174            03118 37661             +
                                   37666  1 3913.     *
                                   37667  1 3914.     *  CREATE ESO HIPERSPACE
                                   37668  1 3915.     *
 0030B2 58E0 A238            031DC 37669  1 3916.                L     RAR,=A(DSPEND+X'80000000') POINT TO PR RET
 0030B6 B240 00E0                  37670  1 3917.                BAKR  RAR,0                   USE HARDWARE STACK
                                   37671  1 3918.   C            DSPSERV CREATE,TYPE=HIPERSPACE,HSTYPE=CACHE,TTOKEN=IOCTTTOK,
                                          1 3919.   C                  ORIGIN=HDBORIG,BLOCKS=HDBHPSIZ,NAME=HDBHSNAM,
                                          1 3920.   C                  STOKEN=HDBTOKEN,CASTOUT=YES,
 0030BA 4110 3000            00000        1 3921.                      MF=(E,DSPLIST,COMPLETE)
 0030BE D737 1000 1000 00000 00000 37679  1          +
 0030C4 9201 1001      00001       37680  1          +
 0030C8 9648 1004      00004       37681  1          +
 0030CC 9201 1006      00006       37682  1          +
1IOSERV   (IOSE00) (09:40) (22MAR04) ORVYL'S Hiperspace Service Routines                                                    Page  174
0Current Usings:  (IOCT,R2) (HSOPCL,R3) (HDB,R6) (#HSPOPEN,R7) (HSOPEN,R10) (@DOHSPC-72,R12) (@MEMGET-72,R13)
0Loc    Object Code    Addr1 Addr2  Stmt Lv Lineno    Source Statement           (Hibal 5, Asmedit 3.3)  HLASM R4.0  2004/03/22 09.40
+___    ______ ____    _____ _____  ____ __ ______    ______ _________
00030D0 9640 1007      00007       37683  1          +
 0030D4 D203 101C 6024 0001C 00024 37684  1          +
 0030DA D20F 1020 20A0 00020 000A0 37685  1          +
 0030E0 D207 1008 600C 00008 0000C 37686  1          +
 0030E6 58E0 0010            00010 37687  1          +
 0030EA 58EE 0304            00304 37688  1          +
 0030EE 58EE 00D0            000D0 37689  1          +
 0030F2 B218 E000      00000       37690  1          +
 0030F6 D207 601C 1010 0001C 00010 37691  1          +
 0030FC D203 6014 1030 00014 00030 37692  1          +
0003102 12FF/4780 A174       03118 37697  1 3922.                IF    (EPAR,NZ),'KAPUT DSPSVERR'
 003108 4110 0001            00001 37714  2 03-KAPUT +*,THIS FUNCTION IS NOT IMPLEMENTED
 00310C 4100 0080            00080 37720  2          +
 003110 8900 0018/1610       00018 37721  2          +
 003116 0A0D                       37723  1          +
 003118                            37728    3923.              END   ,                    OF ESO HIPERSPACE
 003118 A178           03118 030B0 37732    3924.              ELSE  'KAPUT NOHSFLAG'        NO FLAG IS ON
 003118 47F0 A188            0312C 37737             +
 00311C 4110 0001            00001 37751  1          +
 003120 4100 0080            00080 37752  1          +
 003124 8900 0018/1610       00018 37753  1          +
 00312A 0A0D                       37755             +
                                   37760    3925.   C          ALESERV ADD,STOKEN=HDBTOKEN,ALET=HDBALET,
 00312C 5110 3038            00038          3926.                    AL=PASN,MF=(E,ALELIST)
 003130 9201 1000      00000       37764             +
 003134 9202 1001      00001       37765             +
 003138 51E0 601C            0001C 37766             +
 00313C D207 1008 E000 00008 00000 37767             +
 003142 58E0 0010            00010 37768             +
 003146 58EE 0304            00304 37769             +
 00314A 58EE 00BC            000BC 37770             +
 00314E B218 E000      00000       37771             +
 003152 51E0 6018            00018 37772             +
 003156 D203 E000 1004 00000 00004 37773             +
 00315C 12FF/4780 A1CE       03172 37774    3927.              IF    (EPAR,NZ),'KAPUT ALESVERR'
 003162 4110 0001            00001 37791  1 03-KAPUT +*,THIS FUNCTION IS NOT IMPLEMENTED
 003166 4100 0080            00080 37797  1          +
 00316A 8900 0018/1610       00018 37798  1          +
 003170 0A0D                       37800             +
 003172 9140 6028      00028       37805    3928.              IF    (HDBFLG.HDBESO),BEGIN   ESO HIPERSPACE
 003176 47E0 A1E0            03184 37815             +
 00317A 0700/0ADE                  37820  1 3929.                QSNAP HDB,L'HDB-1
 00317E 086300006000               37823  1          +
 003184                            37824    3930.              END   ,
 003184 0101                       37828    3931.              PR                            RESTORE FROM STACK
                                   37829    3932.     DSPEND   EQU   *                         AND BR HERE
 DROP   @MEMGET-72,R13             37830    3933.              MEMFREE L'HSOPCL,A=(RB)
 USING  @MEMFREE-72,R13
 003186 D709 D048 D048 00000 00000 37852             +
 00318C 4100 0048            00048 37859             +
 003190 5000 D04C            00004 37860             +
 003194 5030 D048            00000 37861             +
 003198 9210 D051      00009       37868             +
1IOSERV   (IOSE00) (09:40) (22MAR04) ORVYL'S Hiperspace Service Routines                                                    Page  175
0Current Usings:  (IOCT,R2) (HSOPCL,R3) (HDB,R6) (#HSPOPEN,R7) (HSOPEN,R10) (@DOHSPC-72,R12) (@MEMFREE-72,R13)
0Loc    Object Code    Addr1 Addr2  Stmt Lv Lineno    Source Statement           (Hibal 5, Asmedit 3.3)  HLASM R4.0  2004/03/22 09.40
+___    ______ ____    _____ _____  ____ __ ______    ______ _________
000319C 58F0 A23C/0DEF       031E0 37871             +
 0031A2 9608 6028      00028       37873    3934.              SET (HDBFLG.HDBOPEN)
 0031A6 4100 0001            00001 37879    3935.              LA    RVR,1                   IMMEDIATE COMPLETION
 0031AA 981F C008            00008 37880    3936.              PEND
 DROP   IOCT,R2
 DROP   HSOPCL,R3
 DROP   #HSPOPEN,R7
 DROP   HDB,R6
 DROP   @DOHSPC-72,R12
 DROP   HSOPEN,R10
 0031AE 9680 C000/0B0E 00000       37915             +
 DROP   @MEMFREE-72,R13
 0031B8                            37924    3937.              LTORG
 0031B8 C8C4C240                   37926                             =CL4'HDB'
 0031BC 00000010                   37927                             =A(HSPCMAX)
 0031C0 0000000C                   37928                             =A(#HSREAD)
 0031C4 00000010                   37929                             =A(#HSWRIT)
 0031C8 00002FA4                   37930                             =A(HSOPEN)
 0031CC C8E2D7C4                   37931                             =C'HSPD'
 0031D0 00000008                   37932                             =A(#HSCLOS)
 0031D4 00080000                   37933                             =F'524288'
 0031D8 00000000                   37934                             =V(MEMGET)
 0031DC 80003186                   37935                             =A(DSPEND+X'80000000')
 0031E0 00000000       031F8 06A98 37936                             =V(MEMFREE)
1IOSERV   (IOSE00) (09:40) (22MAR04) ORVYL'S Hiperspace Service Routines                                                    Page  176
0Loc    Object Code    Addr1 Addr2  Stmt Lv Lineno    Source Statement           (Hibal 5, Asmedit 3.3)  HLASM R4.0  2004/03/22 09.40
+___    ______ ____    _____ _____  ____ __ ______    ______ _________
0                                  37941    3939.     *******************************************************************
                                   37942    3940.     *
                                   37943    3941.     *   HSCLOSE  - Process both ESO and Standard Hiperspace Close
                                   37944    3942.     *              requests.
                                   37945    3943.     *
                                   37946    3944.     *     Input -
                                   37947    3945.     *
                                   37948    3946.     *    Output -
                                   37949    3947.     *
                                   37950    3948.     *
                                   37951    3949.     *******************************************************************
 0031F8                            37952    3950.     HSCLOSE  PROC  @DOHSPC,HSPCWORK,SCOPE=LOCAL
 0031F8 C8E2C3D3D6E2C540           37957             +
 003200 0010/0018                  37958             +
 003204 900F D004/18AF       00004 37960             +
 USING  HSCLOSE,R10
 00320A 50D0 C000/18CD       00000 37975             +
 003210 9680 C000      00000       37977             +
 USING  @DOHSPC-72,R12
 AUSING (HSPCWORK,@DOHSPC+16)
 003214 41D0 C070            00070 37996             +
 003218 5850 C04C            00004 37997    3951.              L     RK,@DOHSHDB             HDB POINTER
 USING  HDB,R5                     37998    3952.              WITH  (HDB,RK)
 00321C 0ADE/0113                  38011    3953.              QSNAP '***** HSCLOSE *****'
 003220 4100 A192            03396 38015             +
 003224 0ADE                       38016    3954.              QSNAP HDB,L'HDB-1
 003226 086300005000               38019             +
 00322C 9108 5028      00028       38020    3955.              IF    (HDBFLG.HDBOPEN,Z),'KAPUT HSPOPEN'
 003230 4770 A040            03244 38032             +
 003234 4110 0001            00001 38045  1          +
 003238 4100 0080            00080 38046  1          +
 00323C 8900 0018/1610       00018 38047  1          +
 003242 0A0D                       38049             +
                                   38054    3956.     *        L     RS,HDBBUFAD             GET BUFFER ADDRESS
                                   38055    3957.     *        STORAGE RELEASE,LENGTH=4096,ADDR=(RS)
 USING  @MEMGET-72,R13             38056    3958.              MEMGET L'HSOPCL               GET WORKSPACE
 003244 D709 D048 D048 00000 00000 38075             +
 00324A 4100 0048            00048 38082             +
 00324E 5000 D04C            00004 38083             +
 003252 9211 D051      00009       38093             +
 003256 58F0 A17C/0DEF       03380 38096             +
 00325C 1830                       38098    3959.              LR    RB,RVR
 USING  HSOPCL,R3                  38099    3960.              WITH  (HSOPCL,RB)
 00325E 5820 9004            00004 38112    3961.              WITH  (RTCB,RTCBR),'L  RA,RTCBCBAT'   CBAT POINTER
 USING  RTCB,R9
 DROP   RTCB,R9
 003262 5820 2054            00054 38136    3962.              WITH  (CBAT,RA),'L  RA,CBATIOCT'      IOCT POINTER
 USING  CBAT,R2
 DROP   CBAT,R2
 USING  IOCT,R2                    38160    3963.              WITH  (IOCT,RA)
                                   38173    3964.     *
                                   38174    3965.     *  DELETE HIPERSPACE AND ITS ALET
                                   38175    3966.     *
 003266 58E0 A180            03384 38176    3967.              L     RAR,=A(HSCLSEND+X'80000000') POINT TO PR RET
 00326A B240 00E0                  38177    3968.              BAKR  RAR,0                   USE HARDWARE STACK
 00326E 5110 3038            00038 38178    3969.              ALESERV DELETE,ALET=HDBALET,MF=(E,ALELIST)
1IOSERV   (IOSE00) (09:40) (22MAR04) ORVYL'S Hiperspace Service Routines                                                    Page  177
0Current Usings:  (IOCT,R2) (HSOPCL,R3) (HDB,R5) (HSCLOSE,R10) (@DOHSPC-72,R12) (@MEMGET-72,R13)
0Loc    Object Code    Addr1 Addr2  Stmt Lv Lineno    Source Statement           (Hibal 5, Asmedit 3.3)  HLASM R4.0  2004/03/22 09.40
+___    ______ ____    _____ _____  ____ __ ______    ______ _________
0003272 9203 1000      00000       38182             +
 003276 9200 1001      00001       38183             +
 00327A 51E0 5018            00018 38184             +
 00327E D203 1004 E000 00004 00000 38185             +
 003284 58E0 0010            00010 38186             +
 003288 58EE 0304            00304 38187             +
 00328C 58EE 00C0            000C0 38188             +
 003290 B218 E000      00000       38189             +
 003294 12FF/4780 A0A6       032AA 38190    3970.              IF    (EPAR,NZ),'KAPUT ALESVERR'
 00329A 4110 0001            00001 38207  1 03-KAPUT +*,THIS FUNCTION IS NOT IMPLEMENTED
 00329E 4100 0080            00080 38213  1          +
 0032A2 8900 0018/1610       00018 38214  1          +
 0032A8 0A0D                       38216             +
                                   38221    3971.   C          DSPSERV DELETE,STOKEN=HDBTOKEN,TTOKEN=IOCTTTOK,
 0032AA 4110 3000            00000          3972.                    MF=(E,DSPLIST,COMPLETE)
 0032AE D737 1000 1000 00000 00000 38229             +
 0032B4 9202 1001      00001       38230             +
 0032B8 9608 1004      00004       38231             +
 0032BC D207 1010 501C 00010 0001C 38232             +
 0032C2 D20F 1020 20A0 00020 000A0 38233             +
 0032C8 58E0 0010            00010 38234             +
 0032CC 58EE 0304            00304 38235             +
 0032D0 58EE 00D0            000D0 38236             +
 0032D4 B218 E000      00000       38237             +
00032D8 12FF/4780 A0EA       032EE 38242    3973.              IF    (EPAR,NZ),'KAPUT DSPSVERR'
 0032DE 4110 0001            00001 38259  1 03-KAPUT +*,THIS FUNCTION IS NOT IMPLEMENTED
 0032E2 4100 0080            00080 38265  1          +
 0032E6 8900 0018/1610       00018 38266  1          +
 0032EC 0A0D                       38268             +
 0032EE 0101                       38273    3974.              PR                            EXIT TO HSEND
                                   38274    3975.     HSCLSEND EQU   *
 DROP   @MEMGET-72,R13             38275    3976.              MEMFREE L'HSOPCL,A=(RB)
 USING  @MEMFREE-72,R13
 0032F0 D709 D048 D048 00000 00000 38297             +
 0032F6 4100 0048            00048 38304             +
 0032FA 5000 D04C            00004 38305             +
 0032FE 5030 D048            00000 38306             +
 003302 9210 D051      00009       38313             +
 003306 58F0 A184/0DEF       03388 38316             +
                                   38318    3977.     *
                                   38319    3978.     *  UNCHAIN HDB
                                   38320    3979.     *
 00330C 5860 9004            00004 38321    3980.              WITH  (RTCB,RTCBR),'L  RX,RTCBCBAT'   CBAT POINTER
 USING  RTCB,R9
 DROP   RTCB,R9
 003310 5860 6054            00054 38345    3981.              WITH  (CBAT,RX),'L  RX,CBATIOCT'      IOCT POINTER
 USING  CBAT,R6
 DROP   CBAT,R6
 USING  IOCT,R6                    38369    3982.              WITH  (IOCT,RX)
 003314 5800 6050            00050 38382    3983.              LOCKOB IOCTHDBL               GET HDB CHAIN LOCK
 DROP   @MEMFREE-72,R13
 USING  @LOCKS-72,R13
 003318 5000 D048            00000 38401             +
1IOSERV   (IOSE00) (09:40) (22MAR04) ORVYL'S Hiperspace Service Routines                                                    Page  178
0Current Usings:  (IOCT,R2) (HSOPCL,R3) (HDB,R5) (IOCT,R6) (HSCLOSE,R10) (@DOHSPC-72,R12) (@LOCKS-72,R13)
0Loc    Object Code    Addr1 Addr2  Stmt Lv Lineno    Source Statement           (Hibal 5, Asmedit 3.3)  HLASM R4.0  2004/03/22 09.40
+___    ______ ____    _____ _____  ____ __ ______    ______ _________
000331C 58F0 A188/0DEF       0338C 38404             +
 003322 4110 6038            00038 38406    3984.              LA    RS,IOCTHDBS             HDB CHAIN
 003326 4B10 A190            03394 38407    3985.              SH    RS,=Y(HDBCHAIN-HDB)     OFFSET
 00332A                            38408    3986.              LOOP  BEGIN
 DROP   HDB,R5                     38414  1 3987.                WITH  (HDB,RS)
 USING  HDB,R1
 00332A 5950 1008            00008 38435  1 3988.                IF    (RK,EQ,HDBCHAIN),EXIT   FOUND
 00332E 4780 A136            0333A 38449  1          +
 003332 5810 1008            00008 38455  1 3989.                L     RS,HDBCHAIN
 003336 47F0 A126            0332A 38456    3990.              END   ,
 USING  HDB,R5
 DROP   HDB,R1
 00333A 58E0 5008            00008 38475    3991.              L     R14,HDBCHAIN            NEXT IN CHAIN
 00333E 50E0 1008            00008 38476    3992.              WITH  (HDB,RS),'ST  R14,HDBCHAIN' UPDATE FREE CHAIN
 DROP   HDB,R5
 USING  HDB,R1
 USING  HDB,R5
 DROP   HDB,R1
 003342 5800 6050            00050 38517    3993.              LOCKRL IOCTHDBL               RELEASE HDB CHAIN LOCK
 003346 5000 D048            00000 38526             +
 00334A 58F0 A18C/0DEF       03390 38529             +
 DROP   IOCT,R6                    38531    3994.              DROP  RX
1IOSERV   (IOSE00) (09:40) (22MAR04) ORVYL'S Hiperspace Service Routines                                                    Page  179
0Current Usings:  (IOCT,R2) (HSOPCL,R3) (HDB,R5) (HSCLOSE,R10) (@DOHSPC-72,R12) (@LOCKS-72,R13)
0Loc    Object Code    Addr1 Addr2  Stmt Lv Lineno    Source Statement           (Hibal 5, Asmedit 3.3)  HLASM R4.0  2004/03/22 09.40
+___    ______ ____    _____ _____  ____ __ ______    ______ _________
0                                  38539    3996.     *
                                   38540    3997.     *  RELEASE HDB THEN RETURN
                                   38541    3998.     *
 003350                            38542    3999.              CLEAR HDB                     CLEAR THE HDB
 003350 D763 5000 5000 00000 00000 38548             +
 DROP   @LOCKS-72,R13              38549    4000.              MEMFREE L'HDB,A=(RK),TYPE=GLOBAL
 USING  @MEMFREE-72,R13
 003356 D709 D048 D048 00000 00000 38571             +
 00335C 4100 0064            00064 38578             +
 003360 5000 D04C            00004 38579             +
 003364 5050 D048            00000 38580             +
 003368 9212 D051      00009       38590             +
 00336C 58F0 A184/0DEF       03388 38593             +
 003372 4100 0001            00001 38595    4001.              LA    RVR,1                   IMMEDIATE COMPLETION
 003376 981F C008            00008 38596    4002.              PEND
 DROP   IOCT,R2
 DROP   HSOPCL,R3
 DROP   HDB,R5
 DROP   @DOHSPC-72,R12
 DROP   HSCLOSE,R10
 00337A 9680 C000/0B0E 00000       38628             +
 DROP   @MEMFREE-72,R13
 003380                            38637    4003.              LTORG
 003380 00000000                   38639                             =V(MEMGET)
 003384 800032F0                   38640                             =A(HSCLSEND+X'80000000')
 003388 00000000                   38641                             =V(MEMFREE)
 00338C 00000000                   38642                             =V(LOCKOB)
 003390 00000000                   38643                             =V(LOCKREL)
 003394 0008                       38644                             =Y(HDBCHAIN-HDB)
 003396 5C5C5C5C5C40C8E2           38645                             =C'***** HSCLOSE *****'
1IOSERV   (IOSE00) (09:40) (22MAR04) ORVYL'S Hiperspace Service Routines                                                    Page  180
0Loc    Object Code    Addr1 Addr2  Stmt Lv Lineno    Source Statement           (Hibal 5, Asmedit 3.3)  HLASM R4.0  2004/03/22 09.40
+___    ______ ____    _____ _____  ____ __ ______    ______ _________
0                                  38650    4005.     *******************************************************************
                                   38651    4006.     *                                                                 *
                                   38652    4007.     *   HSIO - Process Standard Hiperspace request                    *
                                   38653    4008.     *                                                                 *
                                   38654    4009.     *                                                                 *
                                   38655    4010.     *     Input -                                                     *
                                   38656    4011.     *                                                                 *
                                   38657    4012.     *    Output -                                                     *
                                   38658    4013.     *                                                                 *
                                   38659    4014.     *                                                                 *
                                   38660    4015.     *******************************************************************
-
 0033AA                            38662    4017.     HSIO     PROC  @DOHSPC,HSPCWORK,SCOPE=LOCAL
 0033AA C8E2C9D640404040           38667             +
 0033B2 0010/0018                  38668             +
 0033B6 900F D004/18AF       00004 38670             +
 USING  HSIO,R10
 0033BC 50D0 C000/18CD       00000 38685             +
 0033C2 9680 C000      00000       38687             +
 USING  @DOHSPC-72,R12
 AUSING (HSPCWORK,@DOHSPC+16)
 0033C6 41D0 C070            00070 38706             +
 0033CA 5860 C04C            00004 38707    4018.              L     RX,@DOHSHDB             HDB POINTER
 USING  HDB,R6                     38708    4019.              WITH  (HDB,RX)
 0033CE 5870 C048            00000 38721    4020.              L     RY,@DOHSPRM             USER PARAMETERS
 USING  #HSPDO,R7                  38722    4021.              WITH  (#HSPDO,RY)
 0033D2                            38735    4022.              CLEAR HSPCWORK
 0033D2 D714 C058 C058 00000 00000 38741             +
 0033D8 4820 7008            00008 38742    4023.              LH    RA,#HSPCNT            USE PAGE COUNT
 0033DC 5020 C058            00000 38743    4024.              ST    RA,HSPCCNT            SAVE IN HSPCWORK
 0033E0 D203 C05C 7004 00004 00004 38744    4025.              MVC   HSPCLIST,#HSPLIST     ALSO COPY PAGE LIST
 0033E6 5820 C050            00008 38745    4026.              L     RA,@DOHSIRB           GET IORB
 USING  @IORB,R2                   38746    4027.              WITH  (@IORB,RA)
 0033EA D203 C068 2000 00010 00000 38759    4028.              MVC   HSPCRQID,@IORRQID     SAVE IRCB FOR IO END
 0033F0 4110 C058            00000 38760    4029.              LA    RS,HSPCWORK           SAVE HSPCWORK
 USING  @HSRDWRT-72,R13            38761    4030.              PSET  @HSRDWRT                IN PARAMETER PASSED
 0033F4 D707 D048 D048 00000 00000 38778             +
 0033FA 5060 D04C            00004 38779    4031.              ST    RX,@HSHDBAD           SAVE FROM HSRDWRT PARM
 0033FE 5010 D048            00000 38780    4032.              ST    RS,@HSWKADR             TO @HSRDWRT PARM
 003402 D203 C064 2004 0000C 00004 38781    4033.              MVC   HSPCIOFF,@IOROFF      COPY MVS OFFSET
 003408 1B11                       38782    4034.              CLEAR RS
 00340A 4310 7003            00003 38786    4035.              IC    RS,#HSPCODE
1IOSERV   (IOSE00) (09:40) (22MAR04) ORVYL'S Hiperspace Service Routines                                                    Page  181
0Current Usings:  (@IORB,R2) (HDB,R6) (#HSPDO,R7) (HSIO,R10) (@DOHSPC-72,R12) (@HSRDWRT-72,R13)
0Loc    Object Code    Addr1 Addr2  Stmt Lv Lineno    Source Statement           (Hibal 5, Asmedit 3.3)  HLASM R4.0  2004/03/22 09.40
+___    ______ ____    _____ _____  ____ __ ______    ______ _________
000340E 5910 A4D2            03888 38788    4037.              IF    (RS,EQ,#HSWRIT),BEGIN
 003412 4770 A088            0343E 38800             +
 003416 9280 C06C      00014       38805  1 4038.                SET   (HSPCFLG.HSPCWRIT,EQ)
 00341A 58E0 6040            00040 38812  1 4039.                L     RAR,HDBWCT            INCREMENT
 00341E                            38813  1 4040.                LOOP  BEGIN
 00341E 58F0 C058            00000 38819  2 4041.                  L     R15,HSPCCNT             REQUESTED WRITE
 003422 1EFE                       38820  2 4042.                  ALR   R15,RAR                 FRAME COUNT
 003424 BAEF 6040            00040 38821  2 4043.                  CS    RAR,R15,HDBWCT          SERIALIZED
 003428 4770 A068            0341E 38822  1 4044.                UNTIL Z,END                   IN HDB
 00342C 58E0 6048            00048 38841  1 4045.                L     RAR,HDBWRCT             INCREMENT
 003430                            38842  1 4046.                LOOP  BEGIN
 003430 41F0 0001            00001 38848  2 4047.                  LA    R15,1
 003434 1EFE                       38849  2 4048.                  ALR   R15,RAR
 003436 BAEF 6048            00048 38850  2 4049.                  CS    RAR,R15,HDBWRCT
 00343A 4770 A07A            03430 38851  1 4050.                UNTIL Z,END                   IN HDB
 00343E                            38870    4051.              END   ,
 00343E A08C           0343E 03414 38874    4052.              ELSEIF    (RS,EQ,#HSREAD),BEGIN
 00343E 47F0 A0BC            03472 38880             +
 003442 5910 A4D6            0388C 38894             +
 003446 4770 A0BC            03472 38895             +
 00344A 58E0 603C            0003C 38900  1 4053.                L     RAR,HDBRCT            INCREMENT
 00344E                            38901  1 4054.                LOOP  BEGIN
 00344E 58F0 C058            00000 38907  2 4055.                  L     R15,HSPCCNT             REQUESTED READ
 003452 1EFE                       38908  2 4056.                  ALR   R15,RAR                 FRAME COUNT
 003454 BAEF 603C            0003C 38909  2 4057.                  CS    RAR,R15,HDBRCT          SERIALIZED
 003458 4770 A098            0344E 38910  1 4058.                UNTIL Z,END                   IN HDB
 00345C 58E0 6044            00044 38929  1 4059.                L     RAR,HDBRDCT             INCREMENT
 003460                            38930  1 4060.                LOOP  BEGIN
 003460 41F0 0001            00001 38936  2 4061.                  LA    R15,1
 003464 1EFE                       38937  2 4062.                  ALR   R15,RAR
 003466 BAEF 6044            00044 38938  2 4063.                  CS    RAR,R15,HDBRDCT
 00346A 4770 A0AA            03460 38939  1 4064.                UNTIL Z,END                   IN HDB
 00346E 9240 C06C      00014       38958  1 4065.                SET   (HSPCFLG.HSPCREAD,EQ)
 003472                            38965    4066.              END   ,
 003472 A0C0           03472 03448 38969    4067.              ELSE  'KAPUT NOTRDWRT'
 003472 47F0 A0D0            03486 38974             +
 003476 4110 0001            00001 38988  1          +
 00347A 4100 0080            00080 38989  1          +
 00347E 8900 0018/1610       00018 38990  1          +
 003484 0A0D                       38992             +
 003486 58F0 A4DA/0DEF       03890 38997    4068.              ACALL HSRDWRT               PERFORM WRITE
 00348C 981F C008            00008 39004    4069.              PEND
 DROP   @IORB,R2
 DROP   #HSPDO,R7
 DROP   HDB,R6
 DROP   @DOHSPC-72,R12
 DROP   HSIO,R10
 003490 9680 C000/0B0E 00000       39034             +
 DROP   @HSRDWRT-72,R13
1IOSERV   (IOSE00) (09:40) (22MAR04) ORVYL'S ESO Hiperspace Service Routines                                                Page  182
0Loc    Object Code    Addr1 Addr2  Stmt Lv Lineno    Source Statement           (Hibal 5, Asmedit 3.3)  HLASM R4.0  2004/03/22 09.40
+___    ______ ____    _____ _____  ____ __ ______    ______ _________
0
-                                  39045    4072.     *******************************************************************
                                   39046    4073.     *
                                   39047    4074.     *    HSRWWORK - Hiperspace read/write work area
                                   39048    4075.     *
                                   39049    4076.     *******************************************************************
 000000                00000 0012C 39050    4077.     HSRWWORK RECORD BEGIN
 000000                            39058  1 4078.     HSRWID     DS    A              HSRW ACRONYM
 000004                            39059  1 4079.     HSRWLEN    DS    A              LENGTH OF THIS W/A
 000008                            39060  1 4080.     HSRWMBUF   DS    A              ADDRESS OF MSG BUF
 00000C                            39061  1 4081.     HSRWHDB    DS    A              ADDRESS OF HDB
 000010                            39062  1 4082.     HSRWCNT    DS    A              PAGE COUNT
 000014                            39063  1 4083.     HSRWRQID   DS    A              USER PARM/REQ ID
 000018                            39064  1 4084.     HSRWRTCD   DS    F              HSPSERV RETCODE AREA
 00001C                            39065  1 4085.     HSRWRC     DS    C              RETURN CODE FOR HSPSERV/MVPG
 00001D                            39066  1 4086.     HSRWFLG    DS    C              READ/WRITE FLAG
 000020                            39067  1 4087.     HSRWRSCD   DS    F              HSPSERV REASON CODE AREA
 000024                            39068  1 4088.     HSRWKEYS   DS    F              MODESET KEY SAVE
 000028                            39069  1 4089.     HSRWSTOD   DS    D              HSRDWRT START TIMESTAMP
 000030                            39070  1 4090.     HSRWPTOD   DS    D              HSRDWRT STOP TIMESTAMP
 000038                            39071  1 4091.     HSRWINTV   DS    D              STIMERM INTERVAL
 000040                            39072  1 4092.     HSRWTMID   DS    F              STIMERM ID
 000044                            39073  1 4093.     HSRWRNGL   DS    A              POINTS TO HSRWPGAD
                                   39074  1 4094.     * NEXT 3 FULLWORDS ARE THE RANGELIST FOR HSPSERV
 000048                            39075  1 4095.     HSRWPGAD   DS    A              MVS VIRTUAL ADDR OF CURR PAGE
 00004C                            39076  1 4096.     HSRWHLOC   DS    A              HIPERSPACE BLOCK LOCATION
 000050                            39077  1 4097.     HSRWNBLK   DS    A              # OF BLOCKS (ALWAYS 1)
                                   39078  1 4098.     HSRWTIMR   STIMERM SET,MF=L
                                   39079  1          +*        MACDATE = 08/19/88                                           *
 000054 0000000000000000           39080  1 01-STIME +HSRWTIMR   DC    XL24'00'           REMOTE STIMERM SET PARM LIST
                                   39081  1 4099.     HSRWSERV   HSPSERV PLISTVER=1,MF=(L,HSPLIST)
                                   39082  1          +*              MACDATE -92/07/31-<1>
 00006C                            39083  1 01-HSPSE +HSRWSERV   DS    0H                             HSPSERV-1
                                   39085  1 02-00324 +         $$PUSH  PRINT
                                   39087  1 02-00289 +         $$PRINT ON
 000070                            39088  1 01-HSPSE +HSPLIST    DS    0D                 ++ HSPSERV PARM LIST
 000070                            39089  1 01-HSPSE +HSPLIST_XVERSION   DS XL1           ++ INPUT XVERSION
 000071                            39090  1 01-HSPSE +HSPLIST_XSERVICE   DS XL1           ++  XSERVICE
                                   39091  1 01-HSPSE +HSPLIST_SREAD   EQU 1               ++ XSERVICE.SREAD KEYWORD
                                   39092  1 01-HSPSE +HSPLIST_SWRITE   EQU 2              ++ XSERVICE.SWRITE KEYWORD
                                   39093  1 01-HSPSE +HSPLIST_CREAD   EQU 3               ++ XSERVICE.CREAD KEYWORD
                                   39094  1 01-HSPSE +HSPLIST_CWRITE   EQU 4              ++ XSERVICE.CWRITE KEYWORD
 000072                            39095  1 01-HSPSE +HSPLIST_XRVS00001   DS BL.16        ++ FIELD_LABEL  XRVS00001
 000074                            39096  1 01-HSPSE +HSPLIST_XFLAGS1   DS BL.8           ++ FIELD_LABEL
                                   39097  1 01-HSPSEC+HSPLIST_XRELEASE_YES   EQU B'10000000'
                                          1          +                                    ++ XRELEASE.YES KEYWORD
                                   39098  1 01-HSPSEC+HSPLIST_XADDRSP_HOME   EQU B'00100000'
                                          1          +                                    ++ XADDRSP.HOME KEYWORD
                                   39099  1 01-HSPSEC+HSPLIST_XADDRSP_PRIMARY   EQU B'00010000'
                                          1          +                                    ++ XADDRSP.PRIMARY KEYWORD
                                   39100  1 01-HSPSEC+HSPLIST_XADDRSP_COMMON   EQU B'00001000'
                                          1          +                                    ++ XADDRSP.COMMON KEYWORD
                                   39101  1 01-HSPSE +HSPLIST_XKEEP_YES   EQU B'00000100' ++ XKEEP.YES KEYWORD
 000075                            39102  1 01-HSPSE +HSPLIST_XRVS00002   DS BL.8         ++ FIELD_LABEL  XRVS00002
1IOSERV   (IOSE00) (09:40) (22MAR04) ORVYL'S ESO Hiperspace Service Routines                                                Page  183
0Loc    Object Code    Addr1 Addr2  Stmt Lv Lineno    Source Statement           (Hibal 5, Asmedit 3.3)  HLASM R4.0  2004/03/22 09.40
+___    ______ ____    _____ _____  ____ __ ______    ______ _________
0000076                            39103  1 01-HSPSE +HSPLIST_XRVS00003   DS BL.16        ++ FIELD_LABEL  XRVS00003
 000078                            39104  1 01-HSPSE +HSPLIST_XSTOKEN   DS CL8            ++   XSTOKEN
 000080                            39105  1 01-HSPSE +HSPLIST_XNUMRANGE   DS F            ++   XNUMRANGE
 000084                            39106  1 01-HSPSE +HSPLIST_XRANGLIST   DS A            ++   XRANGLIST
 000088                            39107  1 01-HSPSE +HSPLIST_XHSPALET   DS F             ++   XHSPALET
                                   39108  1 01-HSPSE +HSPLISTL   EQU   *-HSPLIST          ++ LENGTH OF PLIST
0                                  39111  1 02-00429 +         $$POP   PRINT
                                   39112  1          +*                                            HSPSERV-1
000008C                            39114  1 4100.     HSRWSAVE   DS    40F            HSPSERV SAVE AREA
                                   39115  1 4101.     HSRWREND   EQU   *              TRANSLATED LIST STARTS HERE
 00012C                0012C 0012C 39116    4102.              END   ,
                                   39125    4103.     *
                                   39126    4104.     *  THE FORMAT FOR EACH PAGE/BLOCK ENTRY IN THE NEW LIST IS AS
                                   39127    4105.     *
 000000                00000 0000C 39128    4106.     HSRWPLST RECORD BEGIN
 000000                            39136  1 4107.     HSRWPPGE   DS    F              PAGE VIRTUAL ADDRESS IN CENTRAL STOR
 000004                            39137  1 4108.     HSRWPBLK   DS    F              HIPERSPACE BLOCK ESTOR VIRTUAL ADDR
 000008                            39138  1 4109.     HSRWPCDE   DS    F              THIS ENTRY'S MVPG/HSPSERV ERROR CODE
 00000C                0000C 00008 39139  1 4110.                ORG   HSRWPCDE
 000008 00                         39140  1 4111.     HSRWFLAG   FLAG  ,
 HSRWFLAG.HSRWERR  80 ONES         39144  1 4112.                FLAG  HSRWERR
 000009                00009 0000C 39149    4113.              END   ,
1IOSERV   (IOSE00) (09:40) (22MAR04) ORVYL'S ESO Hiperspace Service Routines                                                Page  184
0Loc    Object Code    Addr1 Addr2  Stmt Lv Lineno    Source Statement           (Hibal 5, Asmedit 3.3)  HLASM R4.0  2004/03/22 09.40
+___    ______ ____    _____ _____  ____ __ ______    ______ _________
0                                  39159    4115.     *******************************************************************
                                   39160    4116.     *                                                                 *
                                   39161    4117.     *    HSRDWRT - Common Hiperspace Read/Write routine               *
                                   39162    4118.     *                                                                 *
                                   39163    4119.     *                                                                 *
                                   39164    4120.     *    Input - @HSRDWRT                                             *
                                   39165    4121.     *                                                                 *
                                   39166    4122.     *******************************************************************
-
                                   39168    4124.     *
                                   39169    4125.     *  THIS ROUTINE PERFORMS PAGE MOVEMENT BETWEEN CENTRAL STORAGE
                                   39170    4126.     *  AND HIPERSPACE EXPANDED STORAGE.  HIPERSPACE CAN BE EITHER
                                   39171    4127.     *  STANDARD OR EXPANDED STORAGE ONLY (ESO).  STANDARD HSPACE
                                   39172    4128.     *  WILL BE PAGED OUT TO AUXILIARY STORAGE WHEN MVS RSM DETECTS
                                   39173    4129.     *  A SHORTAGE OF EXPANDED STORAGE, THUS ITS DATA INTEGRITY IS
                                   39174    4130.     *  ALWAYS ASSURED.  AN ESO HSPACE ACTS ONLY AS A CACHE AND
                                   39175    4131.     *  THE USER IS EXPECTED TO KEEP A COPY OF THE DATA ELSEWHERE
                                   39176    4132.     *  BECAUSE IF DATA IN ESO IS DISCARDED BY RSM IT CAN NEVER BE
                                   39177    4133.     *  RETRIEVED FROM ESTOR UNTIL IT IS WRITTEN ONCE AGAIN INTO
                                   39178    4134.     *  HIPERSPACE.
                                   39179    4135.     *
                                   39180    4136.     *  PAGE MOVEMENT IS FIRST ATTEMPTED WITH A DIRECT MVPG INSTRUCTION.
                                   39181    4137.     *  A DIRECT MVPG SUCCEEDS ONLY WHEN BOTH A CENTRAL AND EXTENDED
                                   39182    4138.     *  STORAGE FRAME CURRENTLY BACK UP THE VIRTUAL PAGE AND HIPERSPACE
                                   39183    4139.     *  BLOCK MVPG OPERANDS.  THUS, A MVPG WRITE TO A HIPERSPACE BLOCK
                                   39184    4140.     *  WILL FAIL UNTIL AN HSPSERV WRITE HAS BEEN PERFORMED TO ASSIGN AN
                                   39185    4141.     *  ESTOR FRAME FOR THE BLOCK.  LIKEWISE, A MVPG READ FROM A
                                   39186    4142.     *  PAGED-OUT HIPERSPACE BLOCK WILL ALSO FAIL. IN THESE CASES EXCEPT
                                   39187    4143.     *  FOR A DISCARDED ESO PAGE, THE OPERATION MUST BE RETRIED WITH AN
                                   39188    4144.     *  HSPSERV REQUEST IN ORDER TO ASSIGN AN ESTOR FRAME TO A NEW BLOCK
                                   39189    4145.     *  OR RECALL A PAGED-OUT FRAME.
                                   39190    4146.     *
                                   39191    4147.     *  ALTHOUGH IT IS NOT MENTIONED IN THE IBM MANUALS, A CENTRAL
                                   39192    4148.     *  STORAGE FRAME TO BE USED IN A MVPG OR HSPSERV OPERATION MAY NOT
                                   39193    4149.     *  BE PAGE-FIXED.  THUS ORVYL PAGES MAY NOT BE DIRECTLY USED IN A
                                   39194    4150.     *  MVPG OR HSPSERV OPERATION. OTHERWISE A CONDITION CODE OF 1 OR AN
                                   39195    4151.     *  01D ABEND WITH REASON CODE XXXX10XX WILL RESULT.  THE FOLLOWING
                                   39196    4152.     *  HIPERSPACE ROUTINES WILL USE A STORAGE MACRO TO OBTAIN STORAGE
                                   39197    4153.     *  FOR A PAGE BUFFER.
                                   39198    4154.     *
1IOSERV   (IOSE00) (09:40) (22MAR04) ORVYL'S ESO Hiperspace Service Routines                                                Page  185
0Loc    Object Code    Addr1 Addr2  Stmt Lv Lineno    Source Statement           (Hibal 5, Asmedit 3.3)  HLASM R4.0  2004/03/22 09.40
+___    ______ ____    _____ _____  ____ __ ______    ______ _________
0003496                            39200    4156.     HSRDWRT  PROC  @HSRDWRT,SCOPE=LOCAL
 003496 C8E2D9C4E6D9E340           39205             +
 00349E 0008/0000                  39206             +
 0034A2 900F D004/18AF       00004 39208             +
 USING  HSRDWRT,R10
 0034A8 50D0 C000/18CD       00000 39223             +
 0034AE 9680 C000      00000       39225             +
 USING  @HSRDWRT-72,R12
 0034B2 41D0 C050            00050 39239             +
 USING  RTCB,R9                    39240    4157.              WITH  (RTCB,RTCBR)
 0034B6 5810 90AC/1211       000AC 39253    4158.              IF    ('LT RS,RTCBBUFR',Z),BEGIN IF NO MVPG BUFFER ASSIGNED
 0034BC 4770 A046            034E8 39264             +
 0034C0 47F0 A02A            034CC 39269  1 4159.                STORAGE OBTAIN,LENGTH=4096,BNDRY=PAGE GET BUFFER FOR MVPG
 0034C4 00001000/00/00             39273  1          +
 0034CA 00/06                      39276  1          +
 0034CC 5800 A022            034C4 39279  1          +
 0034D0 58F0 A026            034C8 39280  1          +
 0034D4 58E0 0010            00010 39281  1          +
 0034D8 58EE 0304            00304 39282  1          +
 0034DC 58EE 00A0            000A0 39283  1          +
 0034E0 B218 E000      00000       39284  1          +
 0034E4 5010 90AC            000AC 39285  1 4160.                ST    RS,RTCBBUFR             STORE BUFFER ADDR IN RTCB
 0034E8                            39286    4161.              END   ,                    OF IF NO MVPG BUFFER ASSIGNED
 0034E8 5860 C048            00000 39290    4162.              L     RX,@HSWKADR             GET HSPCWORK
 USING  HSPCWORK,R6                39291    4163.              WITH  (HSPCWORK,RX)
 0034EC 5870 C04C            00004 39304    4164.              L     RY,@HSHDBAD             GET HDB
 USING  HDB,R7                     39305    4165.              WITH (HDB,RY)
 0034F0 5840 6000            00000 39318    4166.              L     RJ,HSPCCNT              USER'S PAGE COUNT
 0034F4 5940 A3F2            03894 39319    4167.              IF    (RJ,GT,255),'KAPUT HSPCNT' TOO MANY PAGES
 0034F8 47D0 A06A            0350C 39331             +
 0034FC 4110 0001            00001 39344  1          +
 003500 4100 0080            00080 39345  1          +
 003504 8900 0018/1610       00018 39346  1          +
 00350A 0A0D                       39348             +
                                   39353    4168.     *
                                   39354    4169.     *  OBTAIN MEMORY FOR AN HSPSERV WORK AREA (HSRWWORK). HSRWWORK
                                   39355    4170.     *  WILL CONTAIN HSPSERV PARAMETER LIST AND A LIST OF PAGE/BLOCK
                                   39356    4171.     *  PAIRS TRANSLATED FROM THE CALLER'S LIST.  NOTE THAT WHILE
                                   39357    4172.     *  THE CALLER'S LIST MAY CONTAIN SEVERAL CONCATENATED SUBLISTS
                                   39358    4173.     *  THE HSRWWORK LIST WE WILL BUILD FOR THIS ROUTINE CONSISTS OF
                                   39359    4174.     *  A SINGLE CONSOLIDATED LIST.
                                   39360    4175.     *
 00350C 1824                       39361    4176.              LR    RA,RJ                   PAGE/BLOCK LIST LENGTH IS
 00350E 4C20 A412            038B4 39362    4177.              MH    RA,=H'12'                 PAGE COUNT * 12
 003512 4122 012C            0012C 39363    4178.              LA    RA,L'HSRWWORK(RA)         PLUS HSRWWORK LENGTH
                                   39364    4179.     *        MEMGET (RA),TYPE=GLOBAL         = MEMGET LENGTH
 003516 1802                       39365    4180.              LR    RVR,RA
 003518 47F0 A07E/00         03520 39366    4181.     HSRWOB   STORAGE OBTAIN,LENGTH=(RVR),SP=10,RELATED=HSRWRL
 00351D 00/0A/02/1800              39372             +
 003522 58F0 A07A            0351C 39377             +
 003526 58E0 0010            00010 39378             +
 00352A 58EE 0304            00304 39379             +
 00352E 58EE 00A0            000A0 39380             +
 003532 B218 E000      00000       39381             +
 003536 1881                       39382    4182.              LR    RM,RS                   ASSIGN HSRWWORK BASE REG
 003538 5010 6008            00008 39383    4183.              ST    RS,HSPCRWWK             SAVE ADDR FOR MEMFREE
1IOSERV   (IOSE00) (09:40) (22MAR04) ORVYL'S ESO Hiperspace Service Routines                                                Page  186
0Current Usings:  (HSPCWORK,R6) (HDB,R7) (HSRWWORK,R8) (RTCB,R9) (HSRDWRT,R10) (@HSRDWRT-72,R12)
0Loc    Object Code    Addr1 Addr2  Stmt Lv Lineno    Source Statement           (Hibal 5, Asmedit 3.3)  HLASM R4.0  2004/03/22 09.40
+___    ______ ____    _____ _____  ____ __ ______    ______ _________
0USING  HSRWWORK,R8                39384    4184.              WITH  (HSRWWORK,RM)
 AUSING (HSRWPLST,HSRWREND)        39397    4185.              WITH  (HSRWPLST,HSRWREND)
 00353C                            39404    4186.              CLEAR HSRWWORK
 00353C D7FF 8000 8000 00000 00000 39410             +
 003542 D72B 8100 8100 00100 00100 39411             +
 003548 D203 8000 A3F6 00000 03898 39412    4187.              MVC   HSRWID,=C'HSRW'         MOVE IN ACRONYM
 00354E 5020 8004            00004 39413    4188.              ST    RA,HSRWLEN              SAVE LENGTH FOR FREE
 003552 5070 800C            0000C 39414    4189.              ST    RY,HSRWHDB              SAVE HDB
 003556 5040 8010            00010 39415    4190.              ST    RJ,HSRWCNT              SAVE PAGE COUNT
 00355A 5820 6010            00010 39416    4191.              L     RA,HSPCRQID             SAVE
 00355E 5020 8014            00014 39417    4192.              ST    RA,HSRWRQID               PARM
 003562 D200 801D 6014 0001D 00014 39418    4193.              MVC   HSRWFLG,HSPCFLG        SAVE READ/WRITE FLAG
 003568 4110 8048            00048 39419    4194.              LA    RS,HSRWPGAD             FORMAT HSPSERV
 00356C 5010 8044            00044 39420    4195.              ST    RS,HSRWRNGL               RANGELIST
 003570 4120 0001            00001 39421    4196.              LA    RA,1                    WE SUBMIT ONLY ONE PAGE
 003574 5020 8050            00050 39422    4197.              ST    RA,HSRWNBLK               AT A TIME TO HSPSERV
                                   39423    4198.     *
                                   39424    4199.     * THE FOLLOWING ROUTINE FORMATS THE TRANSLATED PAGE/BLOCK LIST.
                                   39425    4200.     * SOME VALIDATION OF PAGE/BLOCK PAIRS IS PERFORMED.
                                   39426    4201.     *
                                   39427    4202.   C          WHILE ('LT RB,HSPCLIST',NZ),  WHILE THERE'S A NEXT LIST
 003578 5830 6004/1233       00004          4203.                    BEGIN
 00357E 4780 A1A0            03642 39440             +
 003582 5E30 600C            0000C 39445  1 4204.                AL    RB,HSPCIOFF             TRANSLATE TO VIRTUAL
 USING  #HSPL,R3                   39446  1 4205.                WITH  (#HSPL,RB)              OLD LIST
 003586 D203 6004 3000 00004 00000 39459  1 4206.                MVC   HSPCLIST,#HSPLNXT       PRIME NEXT SUBLIST
 00358C 1B22                       39460  1 4207.                CLEAR RA                      RA WILL BE NEW LIST INDEX REG
 00358E 1B55                       39464  1 4208.                CLEAR RK                      RK WILL BE OLD LIST INDEX REG
1IOSERV   (IOSE00) (09:40) (22MAR04) ORVYL'S ESO Hiperspace Service Routines                                                Page  187
0Current Usings:  (#HSPL,R3) (HSPCWORK,R6) (HDB,R7) (HSRWWORK,R8) (RTCB,R9) (HSRDWRT,R10) (@HSRDWRT-72,R12)
0Loc    Object Code    Addr1 Addr2  Stmt Lv Lineno    Source Statement           (Hibal 5, Asmedit 3.3)  HLASM R4.0  2004/03/22 09.40
+___    ______ ____    _____ _____  ____ __ ______    ______ _________
0003590                            39469  1 4210.                LOOP  BEGIN
                                   39475  2 4211.     *
                                   39476  2 4212.     *  PAGE COUNT CANNOT GO NEGATIVE UNTIL END OF LIST HAS BEEN
                                   39477  2 4213.     *  REACHED.
                                   39478  2 4214.     *
 003590 0640                       39479  2 4215.                  DECR  RJ                      DECREMENT COUNT BY 1
 003592 1244/47B0 A106       035A8 39481  2 4216.                  IF    (RJ,M),'KAPUT HSPCCNT'
 003598 4110 0001            00001 39498  3 03-KAPUT +*,THIS FUNCTION IS NOT IMPLEMENTED
 00359C 4100 0080            00080 39504  3          +
 0035A0 8900 0018/1610       00018 39505  3          +
 0035A6 0A0D                       39507  2          +
                                   39512  2 4217.     *
                                   39513  2 4218.     *  ADDRESSES IN PAGE LIST MUST BE ON A PAGE BOUNDARY
                                   39514  2 4219.     *
 0035A8 4110 0FFF            00FFF 39515  2 4220.                  LA    RS,4095
 0035AC 5415 3004            00004 39516  2 4221.                  IF    ('N  RS,#HSPLPGE(RK)',NZ),'KAPUT HSNPGBDY'
 0035B0 4780 A122            035C4 39524  2          +
 0035B4 4110 0001            00001 39537  3          +
 0035B8 4100 0080            00080 39538  3          +
 0035BC 8900 0018/1610       00018 39539  3          +
 0035C2 0A0D                       39541  2          +
                                   39546  2 4222.     *
                                   39547  2 4223.     *  PAGE MUST BE BACKED BY A REAL PAGE FRAME
                                   39548  2 4224.     *
 0035C4 5815 3004            00004 39549  2 4225.                  L     RS,#HSPLPGE(RK)        GET A PAGE POINTER
 0035C8 8910 0001            00001 39550  2 4226.                  SLL   RS,1                   CLEAR END-OF-LIST FLAG
 0035CC 8810 0001            00001 39551  2 4227.                  SRL   RS,1                      IN HIGH-ORDER BIT
 0035D0 5E10 600C            0000C 39552  2 4228.                  AL    RS,HSPCIOFF            MAKE IT MVS VIRTUAL
 0035D4 B100 1000            00000 39553  2 4229.                  LRA   RVR,@RS                MAKE SURE REAL IS IN
 0035D8 4780 A14A            035EC 39554  2 4230.                  IF    NZ,'KAPUT HSPNFIX'
 0035DC 4110 0001            00001 39573  3          +
 0035E0 4100 0080            00080 39574  3          +
 0035E4 8900 0018/1610       00018 39575  3          +
 0035EA 0A0D                       39577  2          +
 0035EC 5012 812C            00000 39582  2 4231.                  ST    RS,HSRWPPGE(RA)        SAVE IN HSRWPLST SLOT
                                   39583  2 4232.     *
                                   39584  2 4233.     *  BLOCK NUMBER CANNOT BE GREATER THAN MAXIMUM REQUESTED AT
                                   39585  2 4234.     *  OPEN TIME IN DSPSERV REQUEST.
                                   39586  2 4235.     *
 0035F0 5815 3008            00008 39587  2 4236.                  L     RS,#HSPLBLK(RK)        NOW GET BLOCK NUMBER
 0035F4 5910 7024            00024 39588  2 4237.                  IF    (RS,GT,HDBHPSIZ),'KAPUT GTHPSIZ'
 0035F8 47D0 A16A            0360C 39600  2          +
 0035FC 4110 0001            00001 39613  3          +
 003600 4100 0080            00080 39614  3          +
 003604 8900 0018/1610       00018 39615  3          +
 00360A 0A0D                       39617  2          +
                                   39622  2 4238.     *
                                   39623  2 4239.     *  RELATIVE BLOCK NUMBER MUST BE CONVERTED TO A VIRTUAL
                                   39624  2 4240.     *  ADDRESS REQUIRED BY MVPG OR HSPSERV.
                                   39625  2 4241.     *
 00360C 8910 000C            0000C 39626  2 4242.                  SLL   RS,12                  CONVERT TO VIRTUAL ADDR
 003610 5A10 7014            00014 39627  2 4243.                  A     RS,HDBORIG             ADD OFFSET TO HSP START
 003614 5012 8130            00004 39628  2 4244.                  ST    RS,HSRWPBLK(RA)        STORE IN HSRWPLST
 003618 9200 3008      00008       39629  2 4245.                  CLEAR #HSPLFLG               RESET #HSPL ERROR FLG**ESO1**
1IOSERV   (IOSE00) (09:40) (22MAR04) ORVYL'S ESO Hiperspace Service Routines                                                Page  188
0Current Usings:  (#HSPL,R3) (HSPCWORK,R6) (HDB,R7) (HSRWWORK,R8) (RTCB,R9) (HSRDWRT,R10) (@HSRDWRT-72,R12)
0Loc    Object Code    Addr1 Addr2  Stmt Lv Lineno    Source Statement           (Hibal 5, Asmedit 3.3)  HLASM R4.0  2004/03/22 09.40
+___    ______ ____    _____ _____  ____ __ ______    ______ _________
000361C 4110 3008            00008 39636  2 4246.                  LA    RS,#HSPLFLG            SAVE ADDR FOR PASSING**ESO1**
 003620 5012 8134            00008 39637  2 4247.                  ST    RS,HSRWPCDE(RA)          BACK ERROR CODE    **ESO1**
 003624 4112 812C            00000 39638  2 4248.                  LA    RS,HSRWPPGE(RA)        SAVE CURR PGE PTR FOR END
 003628 41E5 3004            00004 39639  2 4249.                  LA    RAR,#HSPLPGE(RK)       SAVE OLD PAGE PTR FOR END
 00362C 4120 200C            0000C 39640  2 4250.                  LA    RA,@RA+12              BUMP INDEX FOR NEXT NEW ENTRY
 003630 4150 5008            00008 39641  2 4251.                  LA    RK,@RK+8               BUMP INDEX FOR NEXT ENTRY
 003634 9180 E000      00000       39642  1 4252.                UNTIL @RAR.X'80',END         OLD LIST HAS ENDED
 003638 47E0 A0EE            03590 39660  1          +
 00363C 1B55                       39666  1 4253.                CLEAR RK                     POINT TO NEXT OLD LIST IF ANY
 00363E 47F0 A0D6            03578 39670    4254.              END   ,                   OF WHILE THERE'S NEXT LIST
 DROP   #HSPL,R3
 003642 9680 1000      00000       39680    4255.              OI    @RS,X'80'              TURN ON END FLAG IN NEW LIST
                                   39681    4256.     *
                                   39682    4257.     *  HSRWWORK HAS BEEN FORMATTED.  HSRWPLST CONTAINS PAGE/BLOCK
                                   39683    4258.     *  ENTRIES TO BE USED BY MVPG OR HSPSERV.
                                   39684    4259.     *
                                   39685    4260.     *  HIPERSPACE SERVICES REQUIRE USE OF A LINKAGE STACK.   NOTE
                                   39686    4261.     *  THAT HSPSERV WILL REQUIRE THAT R13 POINT TO A 144-BYTE SAVE
                                   39687    4262.     *  AREA.  WE HAVE RESERVED THIS AREA IN HSRWWORK.
                                   39688    4263.     *
 003646 58E0 A3FA            0389C 39689    4264.              L     RAR,=A(HSRWEND+X'80000000') PR WILL GO TO HSRWEND
 00364A B240 00E0                  39690    4265.              BAKR  RAR,0                     FOR AR MODE SWITCHING
                                   39691    4266.     *
                                   39692    4267.     *  FOR MVPG, R2 POINTS TO CENTRAL STORAGE PAGE
                                   39693    4268.     *            AR2 CONTAINS A ZERO VALUE FOR PRIMARY ADDR SPACE
                                   39694    4269.     *            R3 POINTS TO HIPERSPACE BLOCK IN EXPANDED STORAGE
                                   39695    4270.     *            AR3 CONTAINS ALET KEPT IN HDBALET FROM DSPSERV
                                   39696    4271.     *            R0 REQUIRED BY S/390 ARCHITECTURE TO CONTAIN X'100'
                                   39697    4272.     *
 00364E 5840 6000            00000 39698    4273.              L     RJ,HSPCCNT              COUNT OF LIST ENTRIES
 003652 1B55                       39699    4274.              CLEAR RK                      CLEAR PAGE LIST INDEX
 003654 1B22                       39703    4275.              CLEAR RA                      LOAD HOME ADDRSPC
 003656 B24E 0022                  39707    4276.              SAR   RA,RA                     ALET OF 0 INTO AR2
 00365A 9A33 7018            00018 39708    4277.              LAM   RB,RB,HDBALET           LOAD HDBALET INTO AR3
                                   39709    4278.     *
                                   39710    4279.     *  NOW A MVPG IS MADE ON EACH PAGE/BLOCK PAIR IN THE LIST.
                                   39711    4280.     *  HSRWRC IS INITIALLY SET TO ZERO.  IF ANY MVPG ERRORS ARE
                                   39712    4281.     *  ENCOUNTERED, IT IS SET TO NON-ZERO AND THE ERROR FLAG FOR
                                   39713    4282.     *  THE PAGE/BLOCK IN THE CALLER'S LIST IS TURNED ON.  LATER,
                                   39714    4283.     *  IN ROUTINE HSPRETRY, IF HSRWRC IS NON-ZERO, A RESCAN OF THE
                                   39715    4284.     *  LIST IS PERFORMED AND FOR EACH PAGE/BLOCK ENTRY FLAGGED
                                   39716    4285.     *  IN ERROR, A RETRY OF THE OPERATION WILL BE SCHEDULED IN
                                   39717    4286.     *  SUBTASK HSPCETSK VIA HSPSERV.
                                   39718    4287.     *
 00365E 1244/4780 A312       037B4 39719    4288.              WHILE (RJ,NZ),BEGIN           WHILE PAGES LEFT TO DO
 003664 9200 801C      0001C       39735  1 4289.                CLEAR HSRWRC                  ZERO RETURN CODE
 003668 1B00                       39742  1 4290.                CLEAR RVR                     ZERO RETURN CODE REG
                                   39746  1 4291.     *
                                   39747  1 4292.     *  KEY ZERO IS NEEDED WHEN ACCESSING A BUFFER PROVIDED BY THE
                                   39748  1 4293.     *  GUEST.
                                   39749  1 4294.     *
 00366A B20B 0000                  39750  1 4295.                MODESET EXTKEY=ZERO,SAVEKEY=(2)  GET INTO KEY ZERO
 00366E B20A 0000      00000       39753  1          +
 003672 5020 8024            00024 39754  1 4296.                ST    RA,HSRWKEYS             SAVE OLD KEY IN R1
1IOSERV   (IOSE00) (09:40) (22MAR04) ORVYL'S ESO Hiperspace Service Routines                                                Page  189
0Current Usings:  (HSPCWORK,R6) (HDB,R7) (HSRWWORK,R8) (RTCB,R9) (HSRDWRT,R10) (@HSRDWRT-72,R12)
0Loc    Object Code    Addr1 Addr2  Stmt Lv Lineno    Source Statement           (Hibal 5, Asmedit 3.3)  HLASM R4.0  2004/03/22 09.40
+___    ______ ____    _____ _____  ____ __ ______    ______ _________
0003676 5800 A3FE            038A0 39755  1 4297.                L     RVR,=F'256'             LOAD R0 PARM FOR MVPG
                                   39756  1 4298.     *
                                   39757  1 4299.     * ESO HIPERSPACE REQUESTS USE CALLER'S AREA DIRECTLY.
                                   39758  1 4300.     *
 00367A 9140 7028      00028       39759  1 4301.                IF (HDBFLG.HDBESO),'L RA,HSRWPPGE(RK)'            **ESO1**
 00367E 47E0 A1E4            03686 39769  1          +
 003682 5825 812C            00000 39775  1          +
                                   39780  1 4302.     *
                                   39781  1 4303.     * STANDARD HIPERSPACE REQUESTS MUST USE A NON-PAGE-FIXED BUFFER
                                   39782  1 4304.     *
 003686 A1E8           03686 03680 39783  1 4305.                ELSE  'L RA,RTCBBUFR'  ELSE  GET BUFFER FROM RTCB **ESO1**
 003686 47F0 A1EC            0368E 39788  1          +
 00368A 5820 90AC            000AC 39795  1          +
                                   39800  1 4306.     *
                                   39801  1 4307.     *  BEGIN A WRITE OPERATION
                                   39802  1 4308.     *
 00368E 9180 6014      00014       39803  1 4309.                IF (HSPCFLG.HSPCWRIT),BEGIN   MVPG WRITE
 003692 47E0 A25A            036FC 39813  1          +
 003696 5830 A402            038A4 39818  2 4310.                  L     RB,=F'4096'             GET PAGE LEN FOR MVCL
 00369A 18F3                       39819  2 4311.                  LR    EPAR,RB                   LENGTH REGISTERS
 00369C 9180 7028      00028       39820  2 4312.                  IF    (HDBFLG.HDBSTND),BEGIN  IF STANDARD HSPACE  **ESO1**
 0036A0 47E0 A214            036B6 39830  2          +
 0036A4 58E5 812C            00000 39835  3 4313.                    L     RAR,HSRWPPGE(RK)        GET A PAGE ENTRY
 0036A8 89E0 0001            00001 39836  3 4314.                    SLL   RAR,1                   REMOVE
 0036AC 88E0 0001            00001 39837  3 4315.                    SRL   RAR,1                     HIGH BIT
 0036B0 0E2E                       39838  3 4316.                    MVCL  RA,RAR                  MOVE TO BUFFER
 0036B2 5820 90AC            000AC 39839  3 4317.                    L     RA,RTCBBUFR             MVCL WIPED OUT BUFAD
 0036B6                            39840  2 4318.                  END   ,                    OF IF STANDARD HSPACE  **ESO1**
 0036B6 5835 8130            00004 39844  2 4319.                  L     RB,HSRWPBLK(RK)         HSPACE BLOCK NUMBER
 0036BA B219 0200      00200       39845  2 4320.                  SAC   512                     ENTER ASC MODE
 0036BE B254 0032                  39846  2 4321.                  MVPG  RB,RA                   WRITE INTO HIPERSPACE
 0036C2 B219 0000      00000       39847  2 4322.                  SAC   0                       SWITCH MODE BACK
 0036C6 4780 A230            036D2 39848  2 4323.                  IF    (NZ),BEGIN              MVPG WRITE FAILED
                                   39859  3 4324.     *
                                   39860  3 4325.     *  MVPG WRITE FAILED
                                   39861  3 4326.     *
 0036CA 4100 0008            00008 39862  3 4327.                    LA    RVR,8                   WE HAD A REAL
 0036CE 4200 801C            0001C 39863  3 4328.                    STC   RVR,HSRWRC                MVPG ERROR
 0036D2                            39864  2 4329.                  END   ,                    OF MVPG WRITE FAILED
 0036D2 A234           036D2 036C8 39868  2 4330.                  ELSE  BEGIN                   MVPG WRITE OK
 0036D2 47F0 A25A            036FC 39873  2          +
                                   39879  3 4331.     *
                                   39880  3 4332.     *  MVPG WRITE WAS OK
                                   39881  3 4333.     *
 0036D6 5810 7038            00038 39882  3 4334.                    L     RS,HDBMVWR              INCREMENT
 0036DA                            39883  3 4335.                    LOOP  BEGIN
 0036DA 41F0 0001            00001 39889  4 4336.                      LA    R15,1                     MVPG
 0036DE 1EF1                       39890  4 4337.                      ALR   R15,RS                    WRITE COUNT
 0036E0 BA1F 7038            00038 39891  4 4338.                      CS    RS,R15,HDBMVWR            SERIALIZED
 0036E4 4770 A238            036DA 39892  3 4339.                    UNTIL Z,END                     IN HDB
 0036E8 5810 7030            00030 39911  3 4340.                    L     RS,HDBWRFR              INCREMENT
 0036EC                            39912  3 4341.                    LOOP  BEGIN
 0036EC 41F0 0001            00001 39918  4 4342.                      LA    R15,1                     FRAME
 0036F0 1EF1                       39919  4 4343.                      ALR   R15,RS                    WRITE COUNT
1IOSERV   (IOSE00) (09:40) (22MAR04) ORVYL'S ESO Hiperspace Service Routines                                                Page  190
0Current Usings:  (HSPCWORK,R6) (HDB,R7) (HSRWWORK,R8) (RTCB,R9) (HSRDWRT,R10) (@HSRDWRT-72,R12)
0Loc    Object Code    Addr1 Addr2  Stmt Lv Lineno    Source Statement           (Hibal 5, Asmedit 3.3)  HLASM R4.0  2004/03/22 09.40
+___    ______ ____    _____ _____  ____ __ ______    ______ _________
00036F2 BA1F 7030            00030 39920  4 4344.                      CS    RS,R15,HDBWRFR            SERIALIZED
 0036F6 4770 A24A            036EC 39921  3 4345.                    UNTIL Z,END                     IN HDB
 0036FA 1B00                       39940  3 4346.                    CLEAR RVR                     ZERO RC
 0036FC                            39944  2 4347.                  END   ,                    OF MVPG WRITE OK
 0036FC                            39948  1 4348.                END   ,                    OF MVPG WRITE
 0036FC A25E           036FC 03694 39952  1 4349.                ELSEIF (HSPCFLG.HSPCREAD),BEGIN  MVPG READ
 0036FC 47F0 A2D4            03776 39958  1          +
 003700 9140 6014      00014       39970  1          +
 003704 47E0 A2D4            03776 39971  1          +
                                   39976  2 4350.     *
                                   39977  2 4351.     *  BEGIN A READ OPERATION
                                   39978  2 4352.     *
 003708 5835 8130            00004 39979  2 4353.                  L     RB,HSRWPBLK(RK)         HSPACE BLOCK NUMBER
 00370C 58E5 812C            00000 39980  2 4354.                  L     RAR,HSRWPPGE(RK)        GET A PAGE ENTRY
 003710 B219 0200      00200       39981  2 4355.                  SAC   512                     ENTER ASC MODE
 003714 B254 0023                  39982  2 4356.                  MVPG  RA,RB                   READ FROM HIPERSPACE
 003718 B219 0000      00000       39983  2 4357.                  SAC   0
 00371C 4780 A286            03728 39984  2 4358.                  IF    (NZ),BEGIN              MVPG READ FAILED
                                   39995  3 4359.     *
                                   39996  3 4360.     *  MVPG READ FAILED
                                   39997  3 4361.     *
 003720 4100 0008            00008 39998  3 4362.                    LA    RVR,8
 003724 4200 801C            0001C 39999  3 4363.                    STC   RVR,HSRWRC
 003728                            40000  2 4364.                  END   ,                    OF MVPG READ FAILED
 003728 A28A           03728 0371E 40004  2 4365.                  ELSE  BEGIN                   MVPG READ OK
 003728 47F0 A2D4            03776 40009  2          +
                                   40015  3 4366.     *
                                   40016  3 4367.     *  MVPG READ WAS OK
                                   40017  3 4368.     *
 00372C 5810 7034            00034 40018  3 4369.                    L     RS,HDBMVRD              INCREMENT
 003730                            40019  3 4370.                    LOOP  BEGIN
 003730 41F0 0001            00001 40025  4 4371.                      LA    R15,1                     MVPG
 003734 1EF1                       40026  4 4372.                      ALR   R15,RS                    READ COUNT
 003736 BA1F 7034            00034 40027  4 4373.                      CS    RS,R15,HDBMVRD            SERIALIZED
 00373A 4770 A28E            03730 40028  3 4374.                    UNTIL Z,END                     IN HDB
 00373E 5810 702C            0002C 40047  3 4375.                    L     RS,HDBRDFR              INCREMENT
 003742                            40048  3 4376.                    LOOP  BEGIN
 003742 41F0 0001            00001 40054  4 4377.                      LA    R15,1                     FRAME
 003746 1EF1                       40055  4 4378.                      ALR   R15,RS                    READ COUNT
 003748 BA1F 702C            0002C 40056  4 4379.                      CS    RS,R15,HDBRDFR            SERIALIZED
 00374C 4770 A2A0            03742 40057  3 4380.                    UNTIL Z,END                     IN HDB
 003750 9180 7028      00028       40076  3 4381.                    IF    (HDBFLG.HDBSTND),BEGIN  IF STANDARD HSPACE  **ESO1**
 003754 47E0 A2D2            03774 40086  3          +
 003758 5820 90AC            000AC 40091  4 4382.                      L     RA,RTCBBUFR             MVCL WIPED OUT BUFAD
 00375C 5830 A402            038A4 40092  4 4383.                      L     RB,=F'4096'                 GET PAGE LEN FOR MVCL
 003760 18F3                       40093  4 4384.                      LR    EPAR,RB                   LENGTH REGISTERS
 003762 58E5 812C            00000 40094  4 4385.                      L     RAR,HSRWPPGE(RK)        GET A PAGE ENTRY
 003766 89E0 0001            00001 40095  4 4386.                      SLL   RAR,1                   REMOVE
 00376A 88E0 0001            00001 40096  4 4387.                      SRL   RAR,1                     HIGH BIT
 00376E 0EE2                       40097  4 4388.                      MVCL  RAR,RA                  MOVE TO BUFFER
 003770 58E5 812C            00000 40098  4 4389.                      L     RAR,HSRWPPGE(RK)        GET A PAGE ENTRY
 003774                            40099  3 4390.                    END   ,                    OF IF STANDARD HSPACE  **ESO1**
 003774 1700                       40103  3 4391.                    XR    RVR,RVR                 ZERO RC
 003776                            40104  2 4392.                  END   ,                    OF MVPG READ OK
1IOSERV   (IOSE00) (09:40) (22MAR04) ORVYL'S ESO Hiperspace Service Routines                                                Page  191
0Current Usings:  (HSPCWORK,R6) (HDB,R7) (HSRWWORK,R8) (RTCB,R9) (HSRDWRT,R10) (@HSRDWRT-72,R12)
0Loc    Object Code    Addr1 Addr2  Stmt Lv Lineno    Source Statement           (Hibal 5, Asmedit 3.3)  HLASM R4.0  2004/03/22 09.40
+___    ______ ____    _____ _____  ____ __ ______    ______ _________
0003776                            40108  1 4393.                END   ,                    OF MVPG READ
 003776 A2D8           03776 03706 40112  1 4394.                ELSE  'KAPUT HSPCNOPR'        ABEND HSPCNOPR
 003776 47F0 A2E8            0378A 40117  1          +
 00377A 4110 0001            00001 40131  2          +
 00377E 4100 0080            00080 40132  2          +
 003782 8900 0018/1610       00018 40133  2          +
 003788 0A0D                       40135  1          +
                                   40140  1 4395.     *
                                   40141  1 4396.     *  END OF MVPG READ OR WRITE
                                   40142  1 4397.     *
 00378A 5820 8024            00024 40143  1 4398.                L     RA,HSRWKEYS             RESTORE KEY
 00378E 18E0                       40144  1 4399.                LR    RAR,RVR                 SAVE R0
 003790 B20A 2000      00000       40145  1 4400.                MODESET KEYADDR=(2)           BACK TO OUR KEY
                                   40148  1 4401.     *
                                   40149  1 4402.     *  FOR REAL ERRORS, SAVE ERROR CODE IN THE PAGE/BLOCK ENTRY
                                   40150  1 4403.     *
 003794 12EE/4780 A308       037AA 40151  1 4404.                IF    (RAR,NZ),BEGIN          IF THERE ARE ERRORS **ESO1**
 00379A 58E5 8134            00008 40165  2 4405.                  L     RAR,HSRWPCDE(RK)        GET #HSPLFLG ADDR   **ESO1**
 00379E 9680 E000      00008       40166  2 4406.                  WITH  (#HSPLFLG,RAR),'SET #HSPLERR' AND SET       **ESO1**
 USING  #HSPLFLG,R14
 DROP   #HSPLFLG,R14
 0037A2 41E5 8134            00008 40195  2 4407.                  LA     RAR,HSRWPCDE(RK)        GET ADDR OF CALLER **ESO1**
 0037A6 9680 E000      00008       40196  2 4408.                  WITH  (HSRWPCDE,RAR),'SET HSRWERR' ERROR CODE     **ESO1**
 USING  HSRWPCDE,R14
 DROP   HSRWPCDE,R14
 0037AA                            40225  1 4409.                END   ,                    OF IF THERE ARE ERRORS **ESO1**
 0037AA 0640                       40229  1 4410.                DECR  RJ
 0037AC 4150 500C            0000C 40231  1 4411.                LA    RK,@RK+12               BUMP TO NEXT PAGE
 0037B0 47F0 A1BC            0365E 40232    4412.              END   ,                    OF WHILE PAGES LEFT TO DO
 0037B4 0101                       40237    4413.              PR                            POP OUT OF STACK
                                   40238    4414.     HSRWEND  EQU *
                                   40239    4415.     *
                                   40240    4416.     *  A MVPG HAS BEEN PERFORMED ON THE ENTIRE PAGE/BLOCK LIST.
                                   40241    4417.     *  IF NO ERRORS WERE ENCOUNTERED THE OPERATION IS COMPLETE.
                                   40242    4418.     *  A RETURN CODE OF 1 IS SIGNALLED TO THE CALLER (THE ORVYL
                                   40243    4419.     *  GUEST) INDICATING THE I/O WAS COMPLETED IMMEDIATELY BY
                                   40244    4420.     *  THE START SUBCHANNEL PROCESSING.  OTHERWISE, IF ANY PAGE
                                   40245    4421.     *  ENTRIES ENCOUNTERED A MVPG ERROR, THE ENTIRE LIST IS
                                   40246    4422.     *  RE-SCANNED SO THAT AN HSPSERV OPERATION CAN BE ATTEMPTED
                                   40247    4423.     *  UNLESS THE FAILED MVPG WAS A READ FOR AN ESO HIPERSPACE.
                                   40248    4424.     *
 0037B6 4100 0001            00001 40249    4425.              LA    RVR,1                   ASSUME IMMEDIATE CODE
 0037BA 9500 801C      0001C       40250    4426.     HSPRETRY IF (HSRWRC,NZ),BEGIN          IF ANY MVPG ERRORS?
 0037BE 4780 A388            0382A 40262             +
                                   40267  1 4427.     *
                                   40268  1 4428.     *  NOW WE PERFORM A RE-SCAN OF THE LIST AND WILL SCHEDULE AN
                                   40269  1 4429.     *  HSPSERV RETRY FOR ANY PAGE/BLOCK WITH A MVPG ERROR FLAG.
                                   40270  1 4430.     *  BECAUSE HSPSERV MIGHT REQUIRE A REAL DASD OPERATION, WE
                                   40271  1 4431.     *  WILL NOT RISK PUTTING THE MOTHER TASK TO SLEEP BY DOING
                                   40272  1 4432.     *  THE REQUEST HERE.  RATHER WE WILL SIGNAL THE HIPERSPACE
                                   40273  1 4433.     *  SUBTASK TO DO THIS FOR US ASYNCHRONOUSLY.  A CODE OF ZERO
                                   40274  1 4434.     *  IS RETURNED TO THE REQUESTOR INDICATING THAT THE REQUEST
                                   40275  1 4435.     *  HAS BEEN DEFERRED AND THE CALLER MUST CHECK FOR I/O
                                   40276  1 4436.     *  COMPLETION LATER.
1IOSERV   (IOSE00) (09:40) (22MAR04) ORVYL'S ESO Hiperspace Service Routines                                                Page  192
0Current Usings:  (HSPCWORK,R6) (HDB,R7) (HSRWWORK,R8) (RTCB,R9) (HSRDWRT,R10) (@HSRDWRT-72,R12)
0Loc    Object Code    Addr1 Addr2  Stmt Lv Lineno    Source Statement           (Hibal 5, Asmedit 3.3)  HLASM R4.0  2004/03/22 09.40
+___    ______ ____    _____ _____  ____ __ ______    ______ _________
0                                  40277  1 4437.     *
 0037C2 9200 801C      0001C       40278  1 4438.                CLEAR HSRWRC                  CLEAR RC FOR HSPSERV
                                   40285  1 4439.     *
                                   40286  1 4440.     *  IF AN ESO READ FAILED, THAT MEANS THAT THE PAGE HAS BEEN
                                   40287  1 4441.     *  DISCARDED AND RETRY SHOULD NOT BE ATTEMPTED.
                                   40288  1 4442.     *
                                   40289  1 4443.   C            IF    ((HSPCFLG.HSPCREAD),AND,(HDBFLG.HDBESO)),
 0037C6 9140 6014      00014              1 4444.                      BEGIN                   IF ESO READ
 0037CA 47E0 A33C            037DE 40301  1          +
 0037CE 9140 7028      00028       40312  1          +
 0037D2 47E0 A33C            037DE 40313  1          +
 0037D6 4100 0001            00001 40318  2 4445.                  LA    RVR,1                   POST IMMED. COMPLETION
 0037DA 47F0 A388            0382A 40319  2 4446.                  EXIT HSPRETRY                 EXIT
 0037DE                            40322  1 4447.                END   ,                    OF IF ESO READ
                                   40326  1 4448.     *
                                   40327  1 4449.     *  WE WILL PERFORM THE HSPSERV RETRY IN THE HIPERSPACE SUBTASK.
                                   40328  1 4450.     *
 0037DE 5840 90A8            000A8 40329  1 4451.                WITH  (RTCB,RTCBR),'L  RJ,RTCBIOT'   IOT POINTER
 USING  IOT,R4                     40341  1 4452.                WITH  (IOT,RJ)
                                   40354  1 4453.     *
                                   40355  1 4454.     *  OBTAIN A MESSAGE BUFFER FOR SUBTASK COMMUNICATION
                                   40356  1 4455.     *
 0037E2 5800 4018            00018 40357  1 4456.                MSGGBUF IOTHTMC,4
 USING  @MSGGBUF-72,R13
 0037E6 5000 D048            00000 40373  1          +
 0037EA 4100 0004            00004 40380  1          +
 0037EE 5000 D04C            00004 40381  1          +
 0037F2 58F0 A406/0DEF       038A8 40384  1          +
 0037F8 1850                       40386  1 4457.                LR    RK,RVR                  MESSAGE BUFFER
                                   40387  1 4458.     *
                                   40388  1 4459.     *  PASS HSRWWORK AS THE PARAMETER FOR HSPCETSK SUBTASK.
                                   40389  1 4460.     *  NOTE: DO NOT REFERENCE HSRWWORK AFTER MSGSEND BECAUSE
                                   40390  1 4461.     *  SUBTASK HSPCETSK CAN RELEASE HSRWWORK BEFORE CODE THAT
                                   40391  1 4462.     *  FOLLOWS MSGSEND GETS TO RUN.
                                   40392  1 4463.     *
 0037FA 5050 8008            00008 40393  1 4464.                ST    RK,HSRWMBUF             SAVE ADDR IN HSRWWORK
 0037FE 5080 5000            00000 40394  1 4465.                ST    RM,@RK                  SAVE HSRWWORK IN BUFFER
 003802 5820 6010            00010 40395  1 4466.                L     RA,HSPCRQID             GET IRCB
 003806 9201 2020      00020       40396  1 4467.                WITH  (IRCB,RA),'MVI IRCBHSP,1' INDICATE IOCB IN USE
 USING  IRCB,R2
 DROP   IRCB,R2
 00380A B205 8028      00028       40420  1 4468.                STCK  HSRWSTOD                TIMESTAMP START OF REQUEST
                                   40421  1 4469.     *
                                   40422  1 4470.     *  SIGNAL SUBTASK
                                   40423  1 4471.     *
 00380E 5800 4018            00018 40424  1 4472.                MSGSEND IOTHTMC,(RK)
 DROP   @MSGGBUF-72,R13
 USING  @MSGSEND-72,R13
 003812 5000 D048/1805       00000 40443  1          +
 003818 5000 D04C            00004 40449  1          +
 00381C D703 D058 D058 00010 00010 40456  1          +
 003822 58F0 A40A/0DEF       038AC 40459  1          +
                                   40461  1 4473.     *
                                   40462  1 4474.     *  INDICATE TO THE GUEST THAT I/O HAS BEEN DEFERRED AND THAT AN
1IOSERV   (IOSE00) (09:40) (22MAR04) ORVYL'S ESO Hiperspace Service Routines                                                Page  193
0Current Usings:  (IOT,R4) (HSPCWORK,R6) (HDB,R7) (HSRWWORK,R8) (RTCB,R9) (HSRDWRT,R10) (@HSRDWRT-72,R12) (@MSGSEND-72,R13)
0Loc    Object Code    Addr1 Addr2  Stmt Lv Lineno    Source Statement           (Hibal 5, Asmedit 3.3)  HLASM R4.0  2004/03/22 09.40
+___    ______ ____    _____ _____  ____ __ ______    ______ _________
0                                  40463  1 4475.     *  INDICATION OF COMPLETION WILL BE SIGNALLED BY THE SUBTASK.
0003828 1B00                       40465  1 4477.                CLEAR RVR                     SIGNAL DEFERRED COMPLETION
 DROP   IOT,R4                     40469    4478.              END   ,                    OF IF ANY MVPG ERRORS?
 00382A 5900 A40E            038B0 40478    4479.              IF    (RVR,EQ,1),BEGIN        IF IMMEDIATE RC
 00382E 4770 A3DA            0387C 40490             +
 003832                            40495  1 4480.                IF    (HSRWID,NE,=C'HSRW'),'KAPUT BADHSRW'
 003832 D503 A3F6 8000 03898 00000 40506  1          +
 003838 4780 A3AA            0384C 40507  1          +
 00383C 4110 0001            00001 40520  2          +
 003840 4100 0080            00080 40521  2          +
 003844 8900 0018/1610       00018 40522  2          +
 00384A 0A0D                       40524  1          +
 00384C                            40529  1 4481.                CLEAR HSRWID
 00384C D703 8000 8000 00000 00000 40535  1          +
 003852 5820 8004            00004 40536  1 4482.                L     RA,HSRWLEN                MEMFREE
                                   40537  1 4483.     *        MEMFREE (RA),A=(RM),TYPE=GLOBAL HSRWWORK
                                   40538  1 4484.   C HSRWRL1    STORAGE RELEASE,ADDR=(RM),LENGTH=(RA),
 003856 0700/47F0 A3BE       03860        1 4485.                      SP=10,RELATED=HSRWOB
 00385C 00/00/0A/03                40543  1          +
 003860 1802/1818                  40548  1          +
 003864 58F0 A3BA            0385C 40550  1          +
 003868 58E0 0010            00010 40551  1          +
 00386C 58EE 0304            00304 40552  1          +
 003870 58EE 00CC            000CC 40553  1          +
 003874 B218 E000      00000       40554  1          +
 003878 4100 0001            00001 40555  1 4486.                LA    RVR,1                   RELOAD IMMED. RC
 00387C                            40556    4487.              END   ,                    OF IF IMMEDIATE RC
 00387C 981F C008            00008 40560    4488.              PEND
 DROP   HSRWWORK,R8
 DROP   HDB,R7
 DROP   HSPCWORK,R6
 DROP   RTCB,R9
 DROP   @HSRDWRT-72,R12
 DROP   HSRDWRT,R10
 003880 9680 C000/0B0E 00000       40595             +
 DROP   @MSGSEND-72,R13
 003888                            40604    4489.              LTORG
 003888 00000010                   40606                             =A(#HSWRIT)
 00388C 0000000C                   40607                             =A(#HSREAD)
 003890 000034A2                   40608                             =A(HSRDWRT)
 003894 000000FF                   40609                             =A(255)
 003898 C8E2D9E6                   40610                             =C'HSRW'
 00389C 800037B6                   40611                             =A(HSRWEND+X'80000000')
 0038A0 00000100                   40612                             =F'256'
 0038A4 00001000                   40613                             =F'4096'
 0038A8 00000000                   40614                             =V(MSGGBUF)
 0038AC 00000000                   40615                             =V(MSGSEND)
 0038B0 00000001                   40616                             =A(1)
 0038B4 000C           038B6 06A98 40617                             =H'12'
1IOSERV   (IOSE00) (09:40) (22MAR04) ORVYL'S JES I/O Service Routines                                                       Page  194
0Loc    Object Code    Addr1 Addr2  Stmt Lv Lineno    Source Statement           (Hibal 5, Asmedit 3.3)  HLASM R4.0  2004/03/22 09.40
+___    ______ ____    _____ _____  ____ __ ______    ______ _________
0                                  40622    4491.              COPY  JESPARM
                                   40623             =*******************************************************************
                                   40624             =*                                                                 *
                                   40625             =*    JESPARM - ORVYL JES I/O request parameters                   *
                                   40626             =*                                                                 *
                                   40627             =*******************************************************************
0                                  40629             =*
                                   40630             =* Prefix for every request
                                   40631             =*
 000000                00000 00004 40632             =#JESCOM  RECORD BEGIN
 000000                            40640  1          =#JESCMD    DS    A
                                   40641  1          =*
                                   40642  1          =* Jes Device I/O command codes
                                   40643  1          =*
                                   40644  1          =#JCOPEN    EQU   4                       Open action code
                                   40645  1          =#JCCLOSE   EQU   8                       Close I/O code
                                   40646  1          =#JCWRITE   EQU   12                      Write I/O code
                                   40647  1          =#JCJBND    EQU   16                      Job end code
 000004                00004 00004 40648             =         END   ,
-                                  40658             =*
                                   40659             =* Jes Device Open request
                                   40660             =*
 000000                00000 00008 40661             =#JESOPEN RECORD BEGIN
 000000                            40669  1          =#JESOCMD   DS    XL(L'#JESCOM)
 000004                            40670  1          =#JESALLO   DS    A                       Ptr to Data set alloc info
 000008                00008 00008 40671             =         END   ,
-                                  40681             =*
                                   40682             =* Jes Device Close request
                                   40683             =*
 000000                00000 00004 40684             =#JESCLOS RECORD BEGIN
 000000                            40692  1          =#JESCCMD   DS    XL(L'#JESCOM)
 000004                00004 00004 40693             =         END   ,
-                                  40703             =*
                                   40704             =* Jes Device Write request
                                   40705             =*
 000000                00000 00010 40706             =#JESWRIT RECORD BEGIN
 000000                            40714  1          =#JESWCMD   DS    XL(L'#JESCOM)
 000004                            40715  1          =#JESWLST   DS    A                       List of buffers and lengths
 000008                            40716  1          =#JESWLEN   DS    A                       Total data length
 00000C                            40717  1          =#JESWLRC   DS    A                       Record length (0 = Variable)
 000010                00010 00010 40718             =         END   ,
-                                  40728             =*
                                   40729             =*  Jes Device job end request
                                   40730             =*
 000000                00000 00008 40731             =#JESJBND RECORD BEGIN
 000000                            40739  1          =#JESNCMD   DS    XL(L'#JESCOM)
 000004                            40740  1          =#JESNLOC   DS    A                       Address of 4 byte return area
1IOSERV   (IOSE00) (09:40) (22MAR04) ORVYL'S JES I/O Service Routines                                                       Page  195
0Loc    Object Code    Addr1 Addr2  Stmt Lv Lineno    Source Statement           (Hibal 5, Asmedit 3.3)  HLASM R4.0  2004/03/22 09.40
+___    ______ ____    _____ _____  ____ __ ______    ______ _________
0000008                00008 00008 40741             =         END   ,
1IOSERV   (IOSE00) (09:40) (22MAR04) ORVYL'S JES I/O Service Routines                                                       Page  196
0Loc    Object Code    Addr1 Addr2  Stmt Lv Lineno    Source Statement           (Hibal 5, Asmedit 3.3)  HLASM R4.0  2004/03/22 09.40
+___    ______ ____    _____ _____  ____ __ ______    ______ _________
0                                  40751    4493.     *******************************************************************
                                   40752    4494.     *                                                                 *
                                   40753    4495.     *    JESIO  - ORVYL JES I/O Driver                                *
                                   40754    4496.     *                                                                 *
                                   40755    4497.     *                                                                 *
                                   40756    4498.     *     Input - @DOIO                                               *
                                   40757    4499.     *                                                                 *
                                   40758    4500.     *    Output - None                                                *
                                   40759    4501.     *                                                                 *
                                   40760    4502.     *                                                                 *
                                   40761    4503.     *******************************************************************
-
 0038B6                            40763    4505.     JESIO    PROC  @DOIO,SCOPE=LOCAL
 0038B6 D1C5E2C9D6404040           40768             +
 0038BE 0010/0000                  40769             +
 0038C2 900F D004/18AF       00004 40771             +
 USING  JESIO,R10
 0038C8 50D0 C000/18CD       00000 40786             +
 0038CE 9680 C000      00000       40788             +
 USING  @DOIO-72,R12
 0038D2 41D0 C058            00058 40802             +
 0038D6 5870 C050            00008 40803    4506.              L     RY,@DOIORB              INTERFACE PARAMETERS
 USING  @IORB,R7                   40804    4507.              WITH  (@IORB,RY)
 0038DA 5860 C048            00000 40817    4508.              L     RX,@DOUPRM              USER PARAMETERS
 USING  #JESCOM,R6                 40818    4509.              WITH  (#JESCOM,RX)
 0038DE 5830 C04C            00004 40831    4510.              L     RB,@DODSID              JDB POINTER
 USING  JDB,R3                     40832    4511.              WITH  (JDB,RB)
 AUSING (COMDB,JDB)                40845    4512.              WITH  (COMDB,JDB),'CLC  COMDBID,=CL4"JDB"'    Validate
 0038E2 D503 3000 A18E 00000 03A50 40856             +
 0038E8 4780 A03A            038FC 40860    4513.              IF    NE,'KAPUT JDBPTR'
 0038EC 4110 0001            00001 40879  1          +
 0038F0 4100 0080            00080 40880  1          +
 0038F4 8900 0018/1610       00018 40881  1          +
 0038FA 0A0D                       40883             +
1IOSERV   (IOSE00) (09:40) (22MAR04) ORVYL'S JES I/O Service Routines                                                       Page  197
0Current Usings:  (JDB,R3) (#JESCOM,R6) (@IORB,R7) (JESIO,R10) (@DOIO-72,R12)
0Loc    Object Code    Addr1 Addr2  Stmt Lv Lineno    Source Statement           (Hibal 5, Asmedit 3.3)  HLASM R4.0  2004/03/22 09.40
+___    ______ ____    _____ _____  ____ __ ______    ______ _________
0                                  40889    4515.     *
                                   40890    4516.     *   Prepare to send JES request to subtask
                                   40891    4517.     *
 0038FC 5820 90A8            000A8 40892    4518.              WITH  (RTCB,RTCBR),'L  RA,RTCBIOT'   IOT POINTER
 USING  RTCB,R9
 DROP   RTCB,R9
 USING  IOT,R2                     40916    4519.              WITH  (IOT,RA)
 003900 5800 2014            00014 40929    4520.              MSGGBUF IOTJTMC,L'$JESMSG
 USING  @MSGGBUF-72,R13
 003904 5000 D048            00000 40945             +
 003908 4100 0020            00020 40952             +
 00390C 5000 D04C            00004 40953             +
 003910 58F0 A192/0DEF       03A54 40956             +
 003916 1850                       40958    4521.              LR    RK,RVR                  MESSAGE BUFFER
 USING  $JESMSG,R5                 40959    4522.              WITH  ($JESMSG,RK)
                                   40972    4523.     *
                                   40973    4524.     *  Pass user parms for open request
                                   40974    4525.     *
 003918                            40975    4526.              IF    (#JESCMD,EQ,#JCOPEN),BEGIN
 003918 D503 A196 6000 03A58 00000 40987             +
 00391E 4770 A066            03928 40988             +
 DROP   #JESCOM,R6                 40993  1 4527.                WITH  (#JESOPEN,RX)           USER PARM
 USING  #JESOPEN,R6
 003922 D207 5010 6000 00010 00000 41009  1 4528.                MVC   $JESPARM(L'#JESOPEN),#JESOPEN
 DROP   #JESOPEN,R6                41010    4529.              END   ,
 USING  #JESCOM,R6
                                   41026    4530.     *
                                   41027    4531.     *  Pass user parms for close request
                                   41028    4532.     *
 003928 A06A           03928 03920 41029    4533.              ELSEIF (#JESCMD,EQ,#JCCLOSE),BEGIN
 003928 47F0 A07A            0393C 41035             +
 00392C D503 A19A 6000 03A5C 00000 41050             +
 003932 4770 A07A            0393C 41051             +
 DROP   #JESCOM,R6                 41056  1 4534.                WITH  (#JESCLOS,RX)           USER PARM
 USING  #JESCLOS,R6
 003936 D203 5010 6000 00010 00000 41072  1 4535.                MVC   $JESPARM(L'#JESCLOS),#JESCLOS
 DROP   #JESCLOS,R6                41073    4536.              END   ,
 USING  #JESCOM,R6
                                   41089    4537.     *
                                   41090    4538.     *  Pass user parms for write request
                                   41091    4539.     *
 00393C A07E           0393C 03934 41092    4540.              ELSEIF (#JESCMD,EQ,#JCWRITE),BEGIN
 00393C 47F0 A08E            03950 41098             +
 003940 D503 A19E 6000 03A60 00000 41113             +
 003946 4770 A08E            03950 41114             +
 DROP   #JESCOM,R6                 41119  1 4541.                WITH  (#JESWRIT,RX)           USER PARM
 USING  #JESWRIT,R6
 00394A D20F 5010 6000 00010 00000 41135  1 4542.                MVC   $JESPARM(L'#JESWRIT),#JESWRIT
 DROP   #JESWRIT,R6                41136    4543.              END   ,
 USING  #JESCOM,R6
1IOSERV   (IOSE00) (09:40) (22MAR04) ORVYL'S JES I/O Service Routines                                                       Page  198
0Current Usings:  (IOT,R2) (JDB,R3) ($JESMSG,R5) (#JESCOM,R6) (@IORB,R7) (JESIO,R10) (@DOIO-72,R12) (@MSGGBUF-72,R13)
0Loc    Object Code    Addr1 Addr2  Stmt Lv Lineno    Source Statement           (Hibal 5, Asmedit 3.3)  HLASM R4.0  2004/03/22 09.40
+___    ______ ____    _____ _____  ____ __ ______    ______ _________
0                                  41153    4545.     *
                                   41154    4546.     *  Pass user parms for job end request
                                   41155    4547.     *
 003950 A092           03950 03948 41156    4548.              ELSEIF (#JESCMD,EQ,#JCJBND),BEGIN
 003950 47F0 A0A2            03964 41162             +
 003954 D503 A1A2 6000 03A64 00000 41177             +
 00395A 4770 A0A2            03964 41178             +
 DROP   #JESCOM,R6                 41183  1 4549.                WITH  (#JESJBND,RX)           USER PARM
 USING  #JESJBND,R6
 00395E D207 5010 6000 00010 00000 41199  1 4550.                MVC   $JESPARM(L'#JESJBND),#JESJBND
 DROP   #JESJBND,R6                41200    4551.              END   ,
 USING  #JESCOM,R6
                                   41216    4552.     *
                                   41217    4553.     *  Invalid request
                                   41218    4554.     *
 003964 A0A6           03964 0395C 41219    4555.              ELSE  BEGIN
 003964 47F0 A0B6            03978 41224             +
 003968 4110 0001            00001 41230  1 4556.                KAPUT JESCODE
 00396C 4100 0080            00080 41238  1          +
 003970 8900 0018/1610       00018 41239  1          +
 003976 0A0D                       41241  1          +
 003978                            41242    4557.              END   ,
                                   41246    4558.     *
                                   41247    4559.     *  Complete message buffer and send to subtask
                                   41248    4560.     *
 003978 5030 5000            00000 41249    4561.              ST    RB,$JESJDB              JDB pointer
 00397C D203 5004 7000 00004 00000 41250    4562.              MVC   $JESRQID,@IORRQID       Request ID
 003982 D203 5008 7004 00008 00004 41251    4563.              MVC   $JESOFF,@IOROFF         Offset (guest real to MVS)
 003988 D200 500C 7010 0000C 00010 41252    4564.              MVC   $JESKEY,@IORKEY         Protect key
 00398E 5800 2014            00014 41253    4565.              MSGSEND IOTJTMC,(RK)
 DROP   @MSGGBUF-72,R13
 USING  @MSGSEND-72,R13
 003992 5000 D048/1805       00000 41272             +
 003998 5000 D04C            00004 41278             +
 00399C D703 D058 D058 00010 00010 41285             +
 0039A2 58F0 A1A6/0DEF       03A68 41288             +
 0039A8 1B00                       41290    4566.              CLEAR RVR                     SET CONDITION CODE
 0039AA 981F C008            00008 41294    4567.              PEND
 DROP   $JESMSG,R5
 DROP   IOT,R2
 DROP   JDB,R3
 DROP   #JESCOM,R6
 DROP   @IORB,R7
 DROP   @DOIO-72,R12
 DROP   JESIO,R10
 0039AE 9680 C000/0B0E 00000       41334             +
 DROP   @MSGSEND-72,R13
1IOSERV   (IOSE00) (09:40) (22MAR04) ORVYL'S MVS File I/O Service Routines                                                  Page  199
0Loc    Object Code    Addr1 Addr2  Stmt Lv Lineno    Source Statement           (Hibal 5, Asmedit 3.3)  HLASM R4.0  2004/03/22 09.40
+___    ______ ____    _____ _____  ____ __ ______    ______ _________
0                                  41344    4569.     *******************************************************************
                                   41345    4570.     *                                                                 *
                                   41346    4571.     *    OSFIO  - ORVYL O/S File I/O Driver
                                   41347    4572.     *                                                                 *
                                   41348    4573.     *                                                                 *
                                   41349    4574.     *     Input - @DOIO                                               *
                                   41350    4575.     *                                                                 *
                                   41351    4576.     *    Output - None                                                *
                                   41352    4577.     *                                                                 *
                                   41353    4578.     *                                                                 *
                                   41354    4579.     *******************************************************************
-
 0039B4                            41356    4581.     OSFIO    PROC  @DOIO,SCOPE=LOCAL
 0039B4 D6E2C6C9D6404040           41361             +
 0039BC 0010/0000                  41362             +
 0039C0 900F D004/18AF       00004 41364             +
 USING  OSFIO,R10
 0039C6 50D0 C000/18CD       00000 41379             +
 0039CC 9680 C000      00000       41381             +
 USING  @DOIO-72,R12
 0039D0 41D0 C058            00058 41395             +
 0039D4 5870 C050            00008 41396    4582.              L     RY,@DOIORB              INTERFACE PARAMETERS
 USING  @IORB,R7                   41397    4583.              WITH  (@IORB,RY)
 0039D8 5860 C048            00000 41410    4584.              L     RX,@DOUPRM              USER PARAMETERS
                                   41411    4585.     *         WITH  (@OSFIO,RX)
 0039DC 5830 C04C            00004 41412    4586.              L     RB,@DODSID              DDB POINTER
 USING  DDB,R3                     41413    4587.              WITH  (DDB,RB)
 AUSING (COMDB,DDB)                41426    4588.              WITH  (COMDB,DDB),'CLC  COMDBID,=CL4"DDB"'
 0039E0 D503 3000 A0AC 00000 03A6C 41437             +
 0039E6 4780 A03A            039FA 41441    4589.              IF    NE,'KAPUT ODBPTR'
 0039EA 4110 0001            00001 41460  1          +
 0039EE 4100 0080            00080 41461  1          +
 0039F2 8900 0018/1610       00018 41462  1          +
 0039F8 0A0D                       41464             +
                                   41469    4590.     *
                                   41470    4591.     *   Send OS File request to subtask
                                   41471    4592.     *
 0039FA 5820 90A8            000A8 41472    4593.              WITH  (RTCB,RTCBR),'L  RA,RTCBIOT'   IOT POINTER
 USING  RTCB,R9
 DROP   RTCB,R9
 USING  IOT,R2                     41496    4594.              WITH  (IOT,RA),BEGIN
 0039FE 5800 2010            00010 41510  1 4595.                MSGGBUF IOTMTMC,L'$MVIOCOM
 USING  @MSGGBUF-72,R13
 003A02 5000 D048            00000 41526  1          +
 003A06 4100 0010            00010 41533  1          +
 003A0A 5000 D04C            00004 41534  1          +
 003A0E 58F0 A094/0DEF       03A54 41537  1          +
 003A14 1850                       41539  1 4596.                LR    RK,RVR                  MESSAGE BUFFER
 USING  $MVIOCOM,R5                41540  1 4597.                WITH  ($MVIOCOM,RK)
 003A16 5030 5000            00000 41553  1 4598.                ST    RB,$MVIDSID             SET DEVICE ID
 003A1A D203 5004 7000 00004 00000 41554  1 4599.                MVC   $MVIRQID,@IORRQID       Request ID
 003A20 D203 5008 7004 00008 00004 41555  1 4600.                MVC   $MVIOFF,@IOROFF         Offset (guest real to MVS)
 003A26 5010 500C            0000C 41556  1 4601.                ST    RS,$MVIFUNC             SET FUNCTION CODE
 003A2A 5800 2010            00010 41557  1 4602.                MSGSEND IOTMTMC,(RK)
1IOSERV   (IOSE00) (09:40) (22MAR04) ORVYL'S MVS File I/O Service Routines                                                  Page  200
0Current Usings:  (IOT,R2) (DDB,R3) ($MVIOCOM,R5) (@IORB,R7) (OSFIO,R10) (@DOIO-72,R12) (@MSGSEND-72,R13)
0Loc    Object Code    Addr1 Addr2  Stmt Lv Lineno    Source Statement           (Hibal 5, Asmedit 3.3)  HLASM R4.0  2004/03/22 09.40
+___    ______ ____    _____ _____  ____ __ ______    ______ _________
0DROP   @MSGGBUF-72,R13
 USING  @MSGSEND-72,R13
 003A2E 5000 D048/1805       00000 41576  1          +
 003A34 5000 D04C            00004 41582  1          +
 003A38 D703 D058 D058 00010 00010 41589  1          +
 003A3E 58F0 A0A8/0DEF       03A68 41592  1          +
 DROP   $MVIOCOM,R5                41594    4603.              END
 DROP   IOT,R2
 003A44 1B00                       41607    4604.              CLEAR RVR                     SET CONDITION CODE
 003A46 981F C008            00008 41611    4605.              PEND
 DROP   DDB,R3
 DROP   @IORB,R7
 DROP   @DOIO-72,R12
 DROP   OSFIO,R10
 003A4A 9680 C000/0B0E 00000       41636             +
 DROP   @MSGSEND-72,R13
1IOSERV   (IOSE00) (09:40) (22MAR04) ORVYL'S MVS File I/O Service Routines                                                  Page  201
0Loc    Object Code    Addr1 Addr2  Stmt Lv Lineno    Source Statement           (Hibal 5, Asmedit 3.3)  HLASM R4.0  2004/03/22 09.40
+___    ______ ____    _____ _____  ____ __ ______    ______ _________
0003A50                            41646    4607.              LTORG
 003A50 D1C4C240                   41648                             =CL4'JDB'
 003A54 00000000                   41649                             =V(MSGGBUF)
 003A58 00000004                   41650                             =AL4(#JCOPEN)
 003A5C 00000008                   41651                             =AL4(#JCCLOSE)
 003A60 0000000C                   41652                             =AL4(#JCWRITE)
 003A64 00000010                   41653                             =AL4(#JCJBND)
 003A68 00000000                   41654                             =V(MSGSEND)
 003A6C C4C4C240       03A70 06A98 41655                             =CL4'DDB'
1IOSERV   (IOSE00) (09:40) (22MAR04) ORVYL'S Parameter File I/O Service Routines                                            Page  202
0Loc    Object Code    Addr1 Addr2  Stmt Lv Lineno    Source Statement           (Hibal 5, Asmedit 3.3)  HLASM R4.0  2004/03/22 09.40
+___    ______ ____    _____ _____  ____ __ ______    ______ _________
0                                  41660    4609.     *******************************************************************
                                   41661    4610.     *                                                                 *
                                   41662    4611.     *    Parameter file DCB and End of data exit                      *
                                   41663    4612.     *                                                                 *
                                   41664    4613.     *******************************************************************
0003E16                03E16 06A98 41666    4615.              DATA  BEGIN
                                   41672  1 4617.     PRMFDCB    DCB   DSORG=PS,MACRF=(GL),DDNAME=PARMS,BFTEK=A
0                                  41675  1          +*                       DATA CONTROL BLOCK
                                   41676  1          +*
 003E16 0000                              1          +
 003E18                            41677  1 01-DCB   +PRMFDCB    DC    0F'0'          ORIGIN ON WORD BOUNDARY
                                   41678  1          +*                       DIRECT ACCESS DEVICE INTERFACE
 003E18 0000000000000000           41679  1 01-DCB   +           DC    BL16'0'        FDAD, DVTBL
 003E28 00000000                   41680  1 01-DCB   +           DC    A(0)           KEYLEN, DEVT, TRBAL
                                   41681  1          +*                       COMMON ACCESS METHOD INTERFACE
 003E2C 00                         41682  1 01-DCB   +           DC    AL1(0)         BUFNO, NUMBER OF BUFFERS
 003E2D 000001                     41683  1 01-DCB   +           DC    AL3(1)         BUFCB, BUFFER POOL CONTROL BLOCK
 003E30 0000                       41684  1 01-DCB   +           DC    AL2(0)         BUFL, BUFFER LENGTH
 003E32 4000                       41685  1 01-DCB   +           DC    BL2'0100000000000000' DSORG, DATA SET ORGANIZATION
 003E34 00000001                   41686  1 01-DCB   +           DC    A(1)           IOBAD FOR EXCP OR RESERVED
                                   41687  1          +*                       FOUNDATION EXTENSION
 003E38 60                         41688  1 01-DCB   +           DC    BL1'01100000'  BFTEK, BFALN, DCBE INDICATORS
 003E39 000001                     41689  1 01-DCB   +           DC    AL3(1)         EODAD (END OF DATA ROUTINE ADDRESS)
 003E3C 00                         41690  1 01-DCB   +           DC    BL1'00000000'  RECFM (RECORD FORMAT)
 003E3D 000000                     41691  1 01-DCB   +           DC    AL3(0)         EXLST (EXIT LIST ADDRESS)
                                   41692  1          +*                       FOUNDATION BLOCK
 003E40 D7C1D9D4E2404040           41693  1 01-DCB   +           DC    CL8'PARMS'     DDNAME
 003E48 02                         41694  1 01-DCB   +           DC    BL1'00000010'  OFLGS (OPEN FLAGS)
 003E49 00                         41695  1 01-DCB   +           DC    BL1'00000000'  IFLGS (IOS FLAGS)
 003E4A 4800                       41696  1 01-DCB   +           DC    BL2'0100100000000000' MACR (MACRO FORMAT)
                                   41697  1          +*                       BSAM-BPAM-QSAM INTERFACE
 003E4C 00                         41698  1 01-DCB   +           DC    BL1'00000000'  OPTCD, OPTION CODES
 003E4D 000001                     41699  1 01-DCB   +           DC    AL3(1)         CHECK OR INTERNAL QSAM SYNCHRONIZING RTN.
 003E50 00000001                   41700  1 01-DCB   +           DC    A(1)           SYNAD, SYNCHRONOUS ERROR RTN. (3 BYTES)
 003E54 0000                       41701  1 01-DCB   +           DC    H'0'           INTERNAL ACCESS METHOD FLAGS
 003E56 0000                       41702  1 01-DCB   +           DC    AL2(0)         BLKSIZE, BLOCK SIZE
 003E58 00000000                   41703  1 01-DCB   +           DC    F'0'           INTERNAL ACCESS METHOD FLAGS
 003E5C 00000001                   41704  1 01-DCB   +           DC    A(1)           INTERNAL ACCESS METHOD USE
                                   41705  1          +*                            QSAM INTERFACE
 003E60 00000001                   41706  1 01-DCB   +           DC    A(1)           EOBAD
 003E64 00000001                   41707  1 01-DCB   +           DC    A(1)           RECAD
 003E68 0000                       41708  1 01-DCB   +           DC    H'0'           QSWS (FLAGS) AND EITHER DIRCT OR BUFOFF
 003E6A 0000                       41709  1 01-DCB   +           DC    AL2(0)         LRECL
 003E6C 00                         41710  1 01-DCB   +           DC    BL1'00000000'  EROPT, ERROR OPTION
 003E6D 000001                     41711  1 01-DCB   +           DC    AL3(1)         CNTRL
 003E70 00000000                   41712  1 01-DCB   +           DC    H'0,0'         RESERVED AND PRECL
 003E74 00000001                   41713  1 01-DCB   +           DC    A(1)           EOB, INTERNAL ACCESS METHOD FIELD
-                                         1
                                   41716  1 4620.     *******************************************************************
                                   41717  1 4621.     *                                                                 *
                                   41718  1 4622.     *       24 bit mode End of Data routine                           *
                                   41719  1 4623.     *                                                                 *
1IOSERV   (IOSE00) (09:40) (22MAR04) ORVYL'S Parameter File I/O Service Routines                                            Page  203
0Loc    Object Code    Addr1 Addr2  Stmt Lv Lineno    Source Statement           (Hibal 5, Asmedit 3.3)  HLASM R4.0  2004/03/22 09.40
+___    ______ ____    _____ _____  ____ __ ______    ______ _________
0                                  41720  1 4624.     *******************************************************************
-003E78                            41722  1 4626.                DS    0H
 003E78 05F0                       41723  1 4627.     PRMFE24    BALR  R15,0
 003E7A 58F0 F006            03E80 41724  1 4628.                WITH  (*,15),'L  R15,PRMFEAD'   Address of actual routine
 USING  *,R15
 DROP   *,R15
 003E7E 0B0F                       41749  1 4629.                BSM   0,R15                   Go do it
0003E80 80003C96                   41751  1 4631.     PRMFEAD    DC    A(PRMIOEOD+X'80000000')
                                   41752  1 4632.     PRMFEOD    EQU   PRMFE24,*-PRMFE24,C'X'
-                                  41754  1 4634.     *
                                   41755  1 4635.     *  WORK AREA ANCHOR
                                   41756  1 4636.     *
 003E84 00000000                   41757  1 4637.     PRMFWRK    DC    A(0)                    WORK AREA ANCHOR
 003A70                03A70 06A98 41758    4638.              END   ,
1IOSERV   (IOSE00) (09:40) (22MAR04) ORVYL'S Parameter File I/O Service Routines                                            Page  204
0Loc    Object Code    Addr1 Addr2  Stmt Lv Lineno    Source Statement           (Hibal 5, Asmedit 3.3)  HLASM R4.0  2004/03/22 09.40
+___    ______ ____    _____ _____  ____ __ ______    ______ _________
0                                  41765    4640.              COPY  PRDPARM
                                   41766             =*******************************************************************
                                   41767             =*                                                                 *
                                   41768             =*    PRDPARM - ORVYL Initialization parameter file read           *
                                   41769             =*                                                                 *
                                   41770             =*******************************************************************
0000000                00000 00008 41772             =@PRMIOPN RECORD BEGIN
 000000                            41780  1          =@PRMIONM   DS    CL8
 000008                00008 00008 41781             =         END   ,
-
                                   41791    4642.     *******************************************************************
                                   41792    4643.     *                                                                 *
                                   41793    4644.     *    Parameter file work area                                     *
                                   41794    4645.     *                                                                 *
                                   41795    4646.     *******************************************************************
0000000                00000 00158 41797    4648.     PARMWORK RECORD BEGIN
 000000                            41805  1 4649.     PRMWDCB    DS    XL(DCBLNGQS)            DCB
 000060                            41806  1 4650.                DS    0D
 000060                            41807  1 4651.     PRMWJFCB   DS    XL(JFCBLGTH)            JFCB
 000110                            41808  1 4652.     PRMWEXL    DS    A                       DCB EXIT LIST
 000114                            41809  1 4653.     PRMWEOD    DS    ((L'PRMFEOD+3)/4)A      END OF DATA ROUTINE
 000120                            41810  1 4654.     PRMWOPN    DS    A                       OPEN/CLOSE PARAMETER LIST
 000124                            41811  1 4655.     PRMWBUFF   DS    A                       LOCAL BUFFER
 000128                            41812  1 4656.     PRMWBFL    DS    A                        AND LENGTH
 000130                            41813  1 4657.     PRMWA24    DS    5D                      AMODE 24 CAP ROUTINE
 000158                            41814  1 4658.     PRMW@A24   DS    0D                      CAP ROUTINE PARAMETERS
 000158                00158 00158 41815    4659.              END   ,
1IOSERV   (IOSE00) (09:40) (22MAR04) ORVYL'S Parameter File I/O Service Routines                                            Page  205
0Loc    Object Code    Addr1 Addr2  Stmt Lv Lineno    Source Statement           (Hibal 5, Asmedit 3.3)  HLASM R4.0  2004/03/22 09.40
+___    ______ ____    _____ _____  ____ __ ______    ______ _________
0                                  41825    4661.     *******************************************************************
                                   41826    4662.     *                                                                 *
                                   41827    4663.     *   PRMIOPEN - Open parameter file                                *
                                   41828    4664.     *                                                                 *
                                   41829    4665.     *                                                                 *
                                   41830    4666.     *     Input -                                                     *
                                   41831    4667.     *                                                                 *
                                   41832    4668.     *    Output - None                                                *
                                   41833    4669.     *                                                                 *
                                   41834    4670.     *                                                                 *
                                   41835    4671.     *******************************************************************
-
 003A70                            41837    4673.     PRMIOPEN PROC  @PRMIOPN,SCOPE=GLOBAL
 003A70 D7D9D4C9D6D7C5D5           41843             +
 003A78 0008/0000                  41844             +
 003A7C 900F D004/18AF       00004 41846             +
 USING  PRMIOPEN,R10
 003A82 50D0 C000/18CD       00000 41861             +
 003A88 9680 C000      00000       41863             +
 USING  @PRMIOPN-72,R12
 003A8C 41D0 C050            00050 41877             +
 003A90 5870 A408            03E84 41878    4674.              L     RY,PRMFWRK              PARM WORK AREA
 USING  PARMWORK,R7                41879    4675.              WITH  (PARMWORK,RY)
                                   41892    4676.     *
                                   41893    4677.     *  Parameter file work area not yet created
                                   41894    4678.     *
 003A94 1277/4770 A07A       03AF6 41895    4679.              IF    (RY,Z),BEGIN
 USING  @MEMGET-72,R13             41909  1 4680.                MEMGET L'PARMWORK+L'@AM24,TYPE=BELOW16M
 003A9A D709 D048 D048 00000 00000 41928  1          +
 003AA0 4100 01F4            001F4 41935  1          +
 003AA4 5000 D04C            00004 41936  1          +
 003AA8 9201 D051      00009       41943  1          +
 003AAC 58F0 A37C/0DEF       03DF8 41946  1          +
 003AB2 1870                       41948  1 4681.                LR    RY,RVR
 003AB4 5070 A408            03E84 41949  1 4682.                ST    RY,PRMFWRK              Save work area pointer
1IOSERV   (IOSE00) (09:40) (22MAR04) ORVYL'S Parameter File I/O Service Routines                                            Page  206
0Current Usings:  (PARMWORK,R7) (PRMIOPEN,R10) (@PRMIOPN-72,R12) (@MEMGET-72,R13)
0Loc    Object Code    Addr1 Addr2  Stmt Lv Lineno    Source Statement           (Hibal 5, Asmedit 3.3)  HLASM R4.0  2004/03/22 09.40
+___    ______ ____    _____ _____  ____ __ ______    ______ _________
0                                  41951  1 4684.     *
                                   41952  1 4685.     *  Set up DCB
                                   41953  1 4686.     *
 003AB8 D25F 7000 A39C 00000 03E18 41954  1 4687.                MVC   PRMWDCB(DCBLNGQS),PRMFDCB      COPY DCB SKELETON
 AUSING (IHADCB,PRMWDCB)           41955  1 4688.                WITH  (IHADCB,PRMWDCB)
 003ABE 4110 7114            00114 41962  1 4689.                LA    RS,PRMWEOD              END OF DATA ROUTINE
 003AC2 BE17 7021            00021 41963  1 4690.                ST3   RS,DCBEODA               TO DCB
 003AC6 4110 7110            00110 41965  1 4691.                LA    RS,PRMWEXL              DCB EXIT LIST ADDRESS
 003ACA BE17 7025            00025 41966  1 4692.                ST3   RS,DCBEXLSA              TO DCB
                                   41968  1 4693.     *
                                   41969  1 4694.     *  Set up SVC and DCB parameters
                                   41970  1 4695.     *
 003ACE 4110 7000            00000 41971  1 4696.                LA    RS,PRMWDCB              SET UP
 003AD2 5010 7120            00120 41972  1 4697.                ST    RS,PRMWOPN               OPEN PARAMETER
 003AD6 9680 7120      00120       41973  1 4698.                SET   PRMWOPN.X'80'             LIST
 003ADA 4110 7060            00060 41980  1 4699.                LA    RS,PRMWJFCB             JFCB POINTER
 003ADE 5010 7110            00110 41981  1 4700.                ST    RS,PRMWEXL              SET UP DCB
 003AE2 9287 7110      00110       41982  1 4701.                MVI   PRMWEXL,X'87'            EXIT LIST
                                   41983  1 4702.     *
                                   41984  1 4703.     *  Set up 24 bit mode cap and end of data exit
                                   41985  1 4704.     *
 003AE6 5810 A380            03DFC 41986  1 4705.                L     RS,=A(AM24CAP)          CAP ROUTINE
 003AEA D213 7130 1000 00130 00000 41987  1 4706.                MVC   PRMWA24(AM24CLEN),@RS
 003AF0 D20B 7114 A3FC 00114 03E78 41988  1 4707.                MVC   PRMWEOD(L'PRMFEOD),PRMFEOD    END OF DATA ROUTINE
 003AF6                            41989    4708.              END   ,
                                   41993    4709.     *
                                   41994    4710.     *  DCB ALREADY OPENED
                                   41995    4711.     *
 AUSING (IHADCB,PRMWDCB)           41996    4712.              WITH  (IHADCB,PRMWDCB)
 003AF6 9110 7030      00030       42003    4713.              IF    DCBOFLGS.DCBOFOPN,BEGIN
 003AFA 47E0 A08A            03B06 42014             +
 003AFE 4100 0004            00004 42019  1 4714.                LA    RVR,4
 003B02 47F0 A15C            03BD8 42020  1 4715.                EXIT  PRMIOPEN
 003B06                            42023    4716.              END   ,
                                   42027    4717.     *
                                   42028    4718.     *  SET STAE EXIT AND GET JFCB
                                   42029    4719.     *
 003B06 900F D04C            00004 42030    4720.              ESTAEON PRMOERR               CATCH ABENDS
 DROP   @MEMGET-72,R13
 USING  @ESTAE-72,R13
 003B0A 4100 A114            03B90 42052             +
 003B0E 5000 D048            00000 42053             +
 003B12 58F0 A384/0DEF       03E00 42056             +
 003B18 4110 7120/0A40       00120 42058    4721.              RDJFCB MF=(E,PRMWOPN)
 003B1E 12FF/4780 A0B0       03B2C 42063    4722.              IF    (R15,NZ),BEGIN
 003B24 4100 000C            0000C 42077  1 4723.                LA    RVR,12                  ERROR CODE
 003B28 47F0 A15C            03BD8 42078  1 4724.                EXIT  PRMIOPEN
 003B2C                            42081    4725.              END   ,
 AUSING (JFCB,PRMWJFCB)            42085    4726.              WITH  (JFCB,PRMWJFCB)
1IOSERV   (IOSE00) (09:40) (22MAR04) ORVYL'S Parameter File I/O Service Routines                                            Page  207
0Current Usings:  (PARMWORK,R7) (PRMIOPEN,R10) (@PRMIOPN-72,R12) (@ESTAE-72,R13)
0Loc    Object Code    Addr1 Addr2  Stmt Lv Lineno    Source Statement           (Hibal 5, Asmedit 3.3)  HLASM R4.0  2004/03/22 09.40
+___    ______ ____    _____ _____  ____ __ ______    ______ _________
0                                  42093    4728.     *
                                   42094    4729.     *  SET MEMBER NAME
                                   42095    4730.     *
 003B2C                            42096    4731.              IF    (@PRMIONM,NZ),BEGIN
 003B2C D607 C048 C048 00000 00000 42106             +
 003B32 4780 A0F2            03B6E 42107             +
 003B36 95C1 708C      0002C       42112  1 4732.                IF    ('CLI  JFCBELNM,C"A"',L),EXIT    NOT A PDS
 003B3A 4740 A0F2            03B6E 42122  1          +
                                   42128  1 4733.     *
                                   42129  1 4734.     *  GET LENGTH OF REQUESTED MEMBER NAME
                                   42130  1 4735.     *
 003B3E 41F0 0008            00008 42131  1 4736.                LA    R15,L'@PRMIONM          MAXIMUM NAME LENGTH
 003B42 41E0 C04F            00007 42132  1 4737.                LA    R14,@PRMIONM+L'@PRMIONM-1   LAST CHARACTER
 003B46 12FF/47D0 A0E0       03B5C 42133  1 4738.                WHILE (R15,P),BEGIN
 003B4C 9540 E000      00000       42149  2 4739.                  IF    ('CLI  @R14,C" "',NE),EXIT
 003B50 4770 A0E0            03B5C 42159  2          +
 003B54 06F0                       42165  2 4740.                  DECR  R15
 003B56 06E0                       42167  2 4741.                  DECR  R14
 003B58 47F0 A0CA            03B46 42169  1 4742.                END   ,
 003B5C 12FF/4780 A0F2       03B6E 42174  1 4743.                IF    (R15,Z),EXIT            NO NAME WAS SUPPLIED
                                   42191  1 4744.     *
                                   42192  1 4745.     *  MOVE IN THE NAME
                                   42193  1 4746.     *
 003B62 D207 708C A36C 0002C 03DE8 42194  1 4747.                MVC   JFCBELNM,=CL8' '        BLANK OUT PREVIOUS
 003B68 06F0/44F0 A40C       03E88 42195  1 4748.                DEX   R15,'MVC  JFCBELNM(0),@PRMIONM'   NEW MEMBER NAME
 003E88 D200 708C C048 0002C 00000 42206  1          +
 003B6E                            42214    4749.              END   ,
                                   42218    4750.     *
                                   42219    4751.     *  DO OPEN
                                   42220    4752.     *
 003B6E 4110 7120/0A16       00120 42221    4753.              OPEN  MF=(E,PRMWOPN),TYPE=J   DO IT
 003B74 58F0 A388/0DEF       03E04 42225    4754.              ESTAEOFF ,                    CLEAR ABEND INTERCEPT
 003B7A 9110 7030      00030       42230    4755.              IF    DCBOFLGS.DCBOFOPN,'CLEAR  RA'   OPEN WAS SUCCESSFUL
 003B7E 47E0 A108/1B22       03B84 42241             +
 003B84 A10C           03B84 03B80 42255    4756.              ELSE  'L  RA,=F"-4"'          OPEN FAILED
 003B84 47F0 A110            03B8C 42260             +
 003B88 5820 A38C            03E08 42267             +
                                   42272    4757.     *
                                   42273    4758.     *  ESTAE RETRY ROUTINE
                                   42274    4759.     *
 003B8C                            42275    4760.              BEGIN
 003B8C 47F0 A116            03B92 42279  1 4761.                EXIT
 003B90                            42282  1 4762.     PRMOERR    LABEL ,
 003B90 1820                       42284  1 4763.                LR    RA,RVR                  ESTAE INFO POINTER
 003B92                            42285    4764.              END   ,
1IOSERV   (IOSE00) (09:40) (22MAR04) ORVYL'S Parameter File I/O Service Routines                                            Page  208
0Current Usings:  (PARMWORK,R7) (PRMIOPEN,R10) (@PRMIOPN-72,R12) (@ESTAE-72,R13)
0Loc    Object Code    Addr1 Addr2  Stmt Lv Lineno    Source Statement           (Hibal 5, Asmedit 3.3)  HLASM R4.0  2004/03/22 09.40
+___    ______ ____    _____ _____  ____ __ ______    ______ _________
0                                  42290    4766.     *
                                   42291    4767.     *  GET LOCAL BUFFER
                                   42292    4768.     *
 003B92 5830 7124/1233       00124 42293    4769.              IF    ('LT  RB,PRMWBUFF',Z),BEGIN
 003B98 4770 A144            03BC0 42304             +
 003B9C 48F0 7052            00052 42309  1 4770.                LH    R15,DCBLRECL            LRECL
 003BA0 41F0 F004            00004 42310  1 4771.                LA    R15,@R15+4              ROOM FOR RDW
 003BA4 50F0 7128            00128 42311  1 4772.                ST    R15,PRMWBFL              NOTE LENGTH
 DROP   @ESTAE-72,R13              42312  1 4773.                MEMGET  (R15)
 USING  @MEMGET-72,R13
 003BA8 D709 D048 D048 00000 00000 42334  1          +
 003BAE 50F0 D04C            00004 42335  1          +
 003BB2 9211 D051      00009       42345  1          +
 003BB6 58F0 A37C/0DEF       03DF8 42348  1          +
 003BBC 5000 7124            00124 42350  1 4774.                ST    RVR,PRMWBUFF            SET BUFFER POINTER
 003BC0                            42351    4775.              END   ,
                                   42355    4776.     *
                                   42356    4777.     *  DIS-ALLOW RECFM U
                                   42357    4778.     *
 003BC0 91C0 7024      00024       42358    4779.              IF    DCBRECFM.DCBRECU,BEGIN
 003BC4 47E0 A15A            03BD6 42369             +
 003BC8 41F0 A322/0DEF       03D9E 42374  1 4780.                LCALL PRMIOCLS                CLOSE THE FILE
 003BCE 4100 0008            00008 42383  1 4781.                LA    RVR,8                   ERROR CODE
 003BD2 47F0 A15C            03BD8 42384  1 4782.                EXIT  PRMIOPEN
 003BD6                            42387    4783.              END   ,
                                   42391    4784.     *
                                   42392    4785.     *  RETURN TO CALLER
                                   42393    4786.     *
 003BD6 1802                       42394    4787.              LR    RVR,RA
 003BD8 981F C008            00008 42395    4788.              PEND
 DROP   PARMWORK,R7
 DROP   @PRMIOPN-72,R12
 DROP   PRMIOPEN,R10
 003BDC 9680 C000/0B0E 00000       42415             +
 DROP   @MEMGET-72,R13
1IOSERV   (IOSE00) (09:40) (22MAR04) ORVYL'S Parameter File I/O Service Routines                                            Page  209
0Loc    Object Code    Addr1 Addr2  Stmt Lv Lineno    Source Statement           (Hibal 5, Asmedit 3.3)  HLASM R4.0  2004/03/22 09.40
+___    ______ ____    _____ _____  ____ __ ______    ______ _________
0                                  42425    4790.     *******************************************************************
                                   42426    4791.     *                                                                 *
                                   42427    4792.     *   PRMIORD - Read parameter file                                 *
                                   42428    4793.     *                                                                 *
                                   42429    4794.     *                                                                 *
                                   42430    4795.     *     Input -                                                     *
                                   42431    4796.     *                                                                 *
                                   42432    4797.     *    Output - None                                                *
                                   42433    4798.     *                                                                 *
                                   42434    4799.     *                                                                 *
                                   42435    4800.     *******************************************************************
-
 003BE2                            42437    4802.     PRMIORD  PROC  ,SCOPE=GLOBAL
 003BE2 D7D9D4C9D6D9C440           42443             +
 003BEA 0000/0000                  42444             +
 003BEE 900F D004/18AF       00004 42446             +
 USING  PRMIORD,R10
 003BF4 50D0 C000/18CD       00000 42461             +
 003BFA 9680 C000      00000       42463             +
 003BFE 41D0 C048            00048 42464             +
 003C02 5870 A296            03E84 42465    4803.              L     RY,PRMFWRK              PARM WORK AREA
 USING  PARMWORK,R7                42466    4804.              WITH  (PARMWORK,RY)
 AUSING (IHADCB,PRMWDCB)           42479    4805.              WITH  (IHADCB,PRMWDCB)
                                   42486    4806.     *
                                   42487    4807.     *  Parameter file not opened
                                   42488    4808.     *
 003C06 1277/4780 A026       03C14 42489    4809.              IF    ((RY,Z),OR,~DCBOFLGS.DCBOFOPN),BEGIN
 003C0C 9110 7030      00030       42512             +
 003C10 4710 A02C            03C1A 42513             +
 003C14 1B00                       42518  1 4810.                CLEAR RVR
 003C16 47F0 A0B0            03C9E 42522  1 4811.                EXIT  PRMIORD
 003C1A                            42525    4812.              END   ,
1IOSERV   (IOSE00) (09:40) (22MAR04) ORVYL'S Parameter File I/O Service Routines                                            Page  210
0Current Usings:  (PARMWORK,R7) (PRMIORD,R10)
0Loc    Object Code    Addr1 Addr2  Stmt Lv Lineno    Source Statement           (Hibal 5, Asmedit 3.3)  HLASM R4.0  2004/03/22 09.40
+___    ______ ____    _____ _____  ____ __ ______    ______ _________
0                                  42530    4814.     *
                                   42531    4815.     *  Branch to GET routine in 24 bit mode
                                   42532    4816.     *
 003C1A                            42533    4817.              LOOP  BEGIN
 003C1A 4110 7000/1FFF       00000 42539  1 4818.                GET   PRMWDCB
 003C20 BFF7 1031/05EF       00031 42543  1          +
 003C26                03C26 03C24 42545  1 4819.                ORG   *-2
 AUSING (@AM24,PRMW@A24)           42546  1 4820.                WITH  (@AM24,PRMW@A24)
 003C24                            42553  1 4821.                CLEAR @AM24
 003C24 D79B 7158 7158 00000 00000 42559  1          +
 003C2A 90F1 71A0            00048 42560  1 4822.                STM   R15,R1,@AM24RGS         Set parameter regs
 003C2E 4110 7158            00158 42561  1 4823.                LA    R1,PRMW@A24             Set cap parameter pointer
 003C32 41F0 7130            00130 42562  1 4824.                LA    EPAR,PRMWA24            GO TO AMODE 24
 003C36 0CEF                       42563  1 4825.                BASSM RAR,EPAR
                                   42564  1 4826.     *
                                   42565  1 4827.     *  Determine length of record
                                   42566  1 4828.     *
 003C38 1821                       42567  1 4829.                LR    RA,R1                   Record pointer
 003C3A 9180 7024      00024       42568  1 4830.                IF    DCBRECFM.DCBRECF,'LH  R15,DCBLRECL'   Lrecl
 003C3E 47E0 A058            03C46 42579  1          +
 003C42 48F0 7052            00052 42585  1          +
 003C46 A05C           03C46 03C40 42590  1 4831.                ELSE  BEGIN
 003C46 47F0 A068            03C56 42595  1          +
 003C4A 48F0 2000            00000 42601  2 4832.                  LH    R15,@RA                 RDW length
 003C4E 4BF0 A226            03E14 42602  2 4833.                  SH    R15,=Y(4)               Data length
 003C52 4120 2004            00004 42603  2 4834.                  LA    RA,@RA+4                Point at data portion
 003C56                            42604  1 4835.                END   ,
                                   42608  1 4836.     *
                                   42609  1 4837.     *  Strip trailing blanks
                                   42610  1 4838.     *
 003C56 411F 2000            00000 42611  1 4839.                LA    RS,@RA(R15)             Point at end
 003C5A 0610                       42612  1 4840.                DECR  RS                       of record
 003C5C 12FF/47D0 A084       03C72 42614  1 4841.                WHILE (R15,P),BEGIN
 003C62 9540 1000      00000       42630  2 4842.                  IF    ('CLI  @RS,C" "',NE),EXIT   Found a non-blank
 003C66 4770 A084            03C72 42640  2          +
 003C6A 0610                       42646  2 4843.                  DECR  RS
 003C6C 06F0                       42648  2 4844.                  DECR  R15
 003C6E 47F0 A06E            03C5C 42650  1 4845.                END   ,
 003C72 12FF/4780 A02C       03C1A 42655    4846.              UNTIL (R15,NZ),END            Find a non-blank record
                                   42677    4847.     *
                                   42678    4848.     *  Move record to local area
                                   42679    4849.     *
 003C78 58E0 7124            00124 42680    4850.              L     R14,PRMWBUFF            Local buffer
 003C7C 4110 F004            00004 42681    4851.              LA    RS,@R15+4               Create RDW
 003C80 4010 E000            00000 42682    4852.              STH   RS,@R14
 003C84 41E0 E004            00004 42683    4853.              LA    R14,@R14+4              Point at data area
 003C88 183F                       42684    4854.              LR    RB,R15                  Copy length
 003C8A 0EE2                       42685    4855.              MVCL  R14,RA                  Move the data
 003C8C 5800 7124            00124 42686    4856.              L     RVR,PRMWBUFF
 003C90 1810                       42687    4857.              LR    RS,RVR
 003C92 47F0 A0B0            03C9E 42688    4858.              EXIT  PRMIORD
1IOSERV   (IOSE00) (09:40) (22MAR04) ORVYL'S Parameter File I/O Service Routines                                            Page  211
0Current Usings:  (PARMWORK,R7) (PRMIORD,R10)
0Loc    Object Code    Addr1 Addr2  Stmt Lv Lineno    Source Statement           (Hibal 5, Asmedit 3.3)  HLASM R4.0  2004/03/22 09.40
+___    ______ ____    _____ _____  ____ __ ______    ______ _________
0                                  42692    4860.     *
                                   42693    4861.     *  Process end of data condition
                                   42694    4862.     *
 003C96                            42695    4863.     PRMIOEOD LABEL ,
 003C96 41F0 A1B0/0DEF       03D9E 42697    4864.              LCALL PRMIOCLS                CLOSE THE DCB
 003C9C 1B00                       42706    4865.              CLEAR RVR
 003C9E 981F C008            00008 42710    4866.              PEND
 DROP   PARMWORK,R7
 DROP   PRMIORD,R10
 003CA2 9680 C000/0B0E 00000       42725             +
1IOSERV   (IOSE00) (09:40) (22MAR04) ORVYL'S Parameter File I/O Service Routines                                            Page  212
0Loc    Object Code    Addr1 Addr2  Stmt Lv Lineno    Source Statement           (Hibal 5, Asmedit 3.3)  HLASM R4.0  2004/03/22 09.40
+___    ______ ____    _____ _____  ____ __ ______    ______ _________
0                                  42732    4868.     *******************************************************************
                                   42733    4869.     *                                                                 *
                                   42734    4870.     *   PRMIOEND - Terminate parameter file processing                *
                                   42735    4871.     *                                                                 *
                                   42736    4872.     *                                                                 *
                                   42737    4873.     *     Input - None                                                *
                                   42738    4874.     *                                                                 *
                                   42739    4875.     *    Output - None                                                *
                                   42740    4876.     *                                                                 *
                                   42741    4877.     *                                                                 *
                                   42742    4878.     *******************************************************************
-
 003CA8                            42744    4880.     PRMIOEND PROC  ,SCOPE=GLOBAL
 003CA8 D7D9D4C9D6C5D5C4           42750             +
 003CB0 0000/0000                  42751             +
 003CB4 900F D004/18AF       00004 42753             +
 USING  PRMIOEND,R10
 003CBA 50D0 C000/18CD       00000 42768             +
 003CC0 9680 C000      00000       42770             +
 003CC4 41D0 C048            00048 42771             +
 003CC8 5870 A1D0            03E84 42772    4881.              L     RY,PRMFWRK              PARM WORK AREA
 003CCC 1277/4780 A0D4       03D88 42773    4882.              IF    (RY,NZ),BEGIN
 003CD2                            42787  1 4883.                CLEAR PRMFWRK                 PARMS ARE LONGER AVAILABLE
 003CD2 D703 A1D0 A1D0 03E84 03E84 42793  1          +
 USING  PARMWORK,R7                42794  1 4884.                WITH  (PARMWORK,RY)
 AUSING (IHADCB,PRMWDCB)           42807  1 4885.                WITH  (IHADCB,PRMWDCB)
                                   42814  1 4886.     *
                                   42815  1 4887.     *  Free the local buffer
                                   42816  1 4888.     *
 003CD8 5830 7124            00124 42817  1 4889.                L     RB,PRMWBUFF             BUFFER POINTER
 003CDC 1233/4780 A04A       03CFE 42818  1 4890.                IF    (RB,NZ),BEGIN
 003CE2 58F0 7128            00128 42832  2 4891.                  L     R15,PRMWBFL             BUFFER LENGTH
 USING  @MEMFREE-72,R13            42833  2 4892.                  MEMFREE (R15),A=(RB)          FREE IT
 003CE6 D709 D048 D048 00000 00000 42852  2          +
 003CEC 50F0 D04C            00004 42853  2          +
 003CF0 5030 D048            00000 42854  2          +
 003CF4 9210 D051      00009       42861  2          +
 003CF8 58F0 A158/0DEF       03E0C 42864  2          +
 003CFE                            42866  1 4893.                END   ,
                                   42870  1 4894.     *
                                   42871  1 4895.     *  Close the data set and release the buffer pool
                                   42872  1 4896.     *
 003CFE 9110 7030      00030       42873  1 4897.                IF    DCBOFLGS.DCBOFOPN,'LCALL PRMIOCLS'
 003D02 47E0 A058            03D0C 42884  1          +
 003D06 41F0 A0EA/0DEF       03D9E 42897  1          +
1IOSERV   (IOSE00) (09:40) (22MAR04) ORVYL'S Parameter File I/O Service Routines                                            Page  213
0Current Usings:  (PARMWORK,R7) (PRMIOEND,R10) (@MEMFREE-72,R13)
0Loc    Object Code    Addr1 Addr2  Stmt Lv Lineno    Source Statement           (Hibal 5, Asmedit 3.3)  HLASM R4.0  2004/03/22 09.40
+___    ______ ____    _____ _____  ____ __ ______    ______ _________
0                                  42904  1 4899.     *
                                   42905  1 4900.     *  N.B.  The FREEPOOL macro is not intended to run in 31-bit mode
                                   42906  1 4901.     *        however if we first clear the high order byte of the
                                   42907  1 4902.     *        buffer control block field in the DCB it will, in fact,
                                   42908  1 4903.     *        work properly.  Now, can I interest you in a bridge?
                                   42909  1 4904.     *
 003D0C 9200 7014      00014       42910  1 4905.                MVI   DCBBUFCB,0
                                   42912  1 4907.                FREEPOOL PRMWDCB
 003D10 4110 7000            00000 42914  1 02-IHBIN +           LA    1,PRMWDCB                         LOAD PARAMETER REG 1
 003D14 9101 1017      00017       42915  1 01-FREEP +           TM    23(1),1                 IS BUFCB ALREADY FREED    @L1A
 003D18 4710 A0AA            03D5E 42916  1 01-FREEP +           BO    IHB15177                IF SO, NO FREEMAIN        @L1A
 003D1C 1FFF                       42917  1 01-FREEP +           SLR   15,15                                             @L1A
 003D1E BFF7 1015            00015 42918  1 01-FREEP +           ICM   15,7,21(1)              LOAD BUFCB ADDRESS        @L1C
 003D22 58E0 F000            00000 42919  1 01-FREEP +           L     14,0(,15)               GET 1ST WORD OF BUFCB     @04A
 003D26 12EE                       42920  1 01-FREEP +           LTR   14,14                   1ST BUFFER ADDR ZERO ?    @04A
 003D28 4770 A080            03D34 42921  1 01-FREEP +           BNZ   *+12                    NO, BR TO DO FREEMAIN     @04A
 003D2C 9130 F004      00004       42922  1 01-FREEP +           TM    4(15),X'30'             CAN MACRO DO FREEING?     @L3C
 003D30 4770 A0AA            03D5E 42923  1 01-FREEP +           BNZ   IHB15177                NO,  BR TO BYPASS FREE    @L3C
 003D34 9601 1017      00017       42924  1 01-FREEP +           OI    23(1),1                 INDICATE NO BUFCB ADDR
 003D38 1BEE                       42925  1 01-FREEP +           SR    14,14                   CLEAR REGISTER
 003D3A 1B11                       42926  1 01-FREEP +           SR    1,1                     CLEAR REGISTER            @01A
 003D3C BF13 F006            00006 42927  1 01-FREEP +           ICM   1,3,6(15)               LOAD LENGTH OF BUFFERS    @02C
 003D40 43E0 F005            00005 42928  1 01-FREEP +           IC    14,5(0,15)              NUMBER OF BUFFERS         @01A
 003D44 1C0E                       42929  1 01-FREEP +           MR    0,14                    AREA TO BE FREED          @01A
 003D46 4110 1008            00008 42930  1 01-FREEP +           LA    1,8(0,1)                ACCOUNT FOR BCB           @02C
 003D4A 9140 F004      00004       42931  1 01-FREEP +           TM    4(15),X'40'             IS BUFCB 16 BYTES       @ZA19719
 003D4E 47E0 A0A2            03D56 42932  1 01-FREEP +           BNO   *+8                     BRANCH IF BUFCB = 8 BYTES
 003D52 4110 1008            00008 42933  1 01-FREEP +           LA    1,8(0,1)                ADJUST SIZE PLUS 8 BYTES   @03C
 003D56 1801                       42934  1 01-FREEP +           LR    0,1                     LOAD LENGTH OF FREEMAIN    @02A
 003D58 4110 F000            00000 42935  1 01-FREEP +           LA    1,0(0,15)               LOAD AREA ADDRESS
 003D5C 0A0A                       42936  1 01-FREEP +           SVC   10                      ISSUE FREEMAIN SVC
 003D5E                            42937  1 01-FREEP +IHB15177     DS    0H                                              @L1A
                                   42939  1 4909.     *
                                   42940  1 4910.     *  Deallocate the data set
                                   42941  1 4911.     *
 DROP   @MEMFREE-72,R13            42942  1 4912.                PSET  @DUNALLO
 USING  @DUNALLO-72,R13
 003D5E D70B D048 D048 00000 00000 42962  1          +
 003D64 D207 D048 A13C 00000 03DF0 42963  1 4913.                MVC   @DUNDDN,=CL8'PARMS'     SET DDNAME
 003D6A 58F0 A15C/0DEF       03E10 42964  1 4914.                ACALL DUNALLO
                                   42971  1 4915.     *
                                   42972  1 4916.     *  Release the work area
                                   42973  1 4917.     *
 DROP   @DUNALLO-72,R13            42974  1 4918.                MEMFREE L'PARMWORK+L'@AM24,A=(RY),TYPE=BELOW16M
 USING  @MEMFREE-72,R13
 003D70 D709 D048 D048 00000 00000 42996  1          +
 003D76 4100 01F4            001F4 43003  1          +
 003D7A 5000 D04C            00004 43004  1          +
 003D7E 5070 D048            00000 43005  1          +
 003D82 58F0 A158/0DEF       03E0C 43008  1          +
 DROP   PARMWORK,R7                43010    4919.              END   ,
 003D88 981F C008            00008 43019    4920.              PEND
 DROP   PRMIOEND,R10
 003D8C 9680 C000/0B0E 00000       43029             +
1IOSERV   (IOSE00) (09:40) (22MAR04) ORVYL'S Parameter File I/O Service Routines                                            Page  214
0Loc    Object Code    Addr1 Addr2  Stmt Lv Lineno    Source Statement           (Hibal 5, Asmedit 3.3)  HLASM R4.0  2004/03/22 09.40
+___    ______ ____    _____ _____  ____ __ ______    ______ _________
0DROP   @MEMFREE-72,R13
1IOSERV   (IOSE00) (09:40) (22MAR04) ORVYL'S Parameter File I/O Service Routines                                            Page  215
0Loc    Object Code    Addr1 Addr2  Stmt Lv Lineno    Source Statement           (Hibal 5, Asmedit 3.3)  HLASM R4.0  2004/03/22 09.40
+___    ______ ____    _____ _____  ____ __ ______    ______ _________
0                                  43039    4922.     *******************************************************************
                                   43040    4923.     *                                                                 *
                                   43041    4924.     *   PRMIOCLS - Close parameter file                               *
                                   43042    4925.     *                                                                 *
                                   43043    4926.     *                                                                 *
                                   43044    4927.     *     Input - None                                                *
                                   43045    4928.     *                                                                 *
                                   43046    4929.     *    Output - None                                                *
                                   43047    4930.     *                                                                 *
                                   43048    4931.     *                                                                 *
                                   43049    4932.     *******************************************************************
-
 003D92                            43051    4934.     PRMIOCLS PROC  ,SCOPE=LOCAL
 003D92 D7D9D4C9D6C3D3E2           43056             +
 003D9A 0000/0000                  43057             +
 003D9E 900F D004/18AF       00004 43059             +
 USING  PRMIOCLS,R10
 003DA4 50D0 C000/18CD       00000 43074             +
 003DAA 9680 C000      00000       43076             +
 003DAE 41D0 C048            00048 43077             +
 003DB2 5870 A0E6            03E84 43078    4935.              L     RY,PRMFWRK              PARM WORK AREA
 USING  PARMWORK,R7                43079    4936.              WITH  (PARMWORK,RY)
                                   43092    4937.     *
                                   43093    4938.     *  SET STAE AND CLOSE DCB
                                   43094    4939.     *
 003DB6 900F D04C            00004 43095    4940.              ESTAEON PRMFCLS               CATCH ABENDS
 USING  @ESTAE-72,R13
 003DBA 4100 A03C            03DDA 43114             +
 003DBE 5000 D048            00000 43115             +
 003DC2 58F0 A062/0DEF       03E00 43118             +
 003DC8 4110 7120/0A14       00120 43120    4941.              CLOSE MF=(E,PRMWOPN)          DO IT
 003DCE 182F                       43124    4942.              LR    RA,R15                  RETURN CODE
 003DD0 58F0 A066/0DEF       03E04 43125    4943.              ESTAEOFF ,                    CLEAR ABEND INTERCEPT
1IOSERV   (IOSE00) (09:40) (22MAR04) ORVYL'S Parameter File I/O Service Routines                                            Page  216
0Current Usings:  (PARMWORK,R7) (PRMIOCLS,R10) (@ESTAE-72,R13)
0Loc    Object Code    Addr1 Addr2  Stmt Lv Lineno    Source Statement           (Hibal 5, Asmedit 3.3)  HLASM R4.0  2004/03/22 09.40
+___    ______ ____    _____ _____  ____ __ ______    ______ _________
0                                  43131    4945.     *
                                   43132    4946.     *  ESTAE RETRY ROUTINE
                                   43133    4947.     *
 003DD6                            43134    4948.              BEGIN
 003DD6 47F0 A03E            03DDC 43138  1 4949.                EXIT
 003DDA                            43141  1 4950.     PRMFCLS    LABEL ,
 003DDA 1820                       43143  1 4951.                LR    RA,RVR                  ESTAE INFO POINTER
 003DDC                            43144    4952.              END   ,
 003DDC 1802                       43148    4953.              LR    RVR,RA                  SET RETURN CODE
 003DDE 981F C008            00008 43149    4954.              PEND
 DROP   PARMWORK,R7
 DROP   PRMIOCLS,R10
 003DE2 9680 C000/0B0E 00000       43164             +
 DROP   @ESTAE-72,R13
 003DE8                            43173    4955.              LTORG
 003DE8 4040404040404040           43175                             =CL8' '
 003DF0 D7C1D9D4E2404040           43176                             =CL8'PARMS'
 003DF8 00000000                   43177                             =V(MEMGET)
 003DFC 000068D4                   43178                             =A(AM24CAP)
 003E00 00000000                   43179                             =V(ESTAEON)
 003E04 00000000                   43180                             =V(ESTAEOFF)
 003E08 FFFFFFFC                   43181                             =F'-4'
 003E0C 00000000                   43182                             =V(MEMFREE)
 003E10 00006808                   43183                             =A(DUNALLO)
 003E14 0004           03E8E 06A98 43184                             =Y(4)
1IOSERV   (IOSE00) (09:40) (22MAR04) ORVYL'S SCOM I/O Subtask                                                               Page  217
0Loc    Object Code    Addr1 Addr2  Stmt Lv Lineno    Source Statement           (Hibal 5, Asmedit 3.3)  HLASM R4.0  2004/03/22 09.40
+___    ______ ____    _____ _____  ____ __ ______    ______ _________
0                                  43190    4958.     *******************************************************************
                                   43191    4959.     *                                                                 *
                                   43192    4960.     *    SCSTWORK - SCOM sub-task work area                           *
                                   43193    4961.     *                                                                 *
                                   43194    4962.     *******************************************************************
0000000                00000 0001C 43196    4964.     SCSTWORK RECORD BEGIN
 000000                            43204  1 4965.     SCTMCHN    DS    A                       MESSAGE CHANNEL ID
 000004                            43205  1 4966.     SCTMECBP   DS    A                       MESSAGE CHANNEL ECB ADDRESS
 000008                            43206  1 4967.     SCTPECBP   DS    A                       PATH POST ECB ADDRESS
                                   43207  1 4968.     SCTECBL    EQU   SCTMECBP                ECB LIST
 00000C                            43208  1 4969.     SCTPECB    DS    A                       PATH ECB
 000010                            43209  1 4970.     SCTIOCT    DS    A                       IOCT ADDRESS
 000014                            43210  1 4971.     SCTETAB    DS    A                       EVENT TABLE ADDRESS
 000018                            43211  1 4972.     SCTPATH    DS    A                       Address of path to be opened
 00001C                0001C 0001C 43212    4973.              END
-
                                   43222    4975.     *******************************************************************
                                   43223    4976.     *                                                                 *
                                   43224    4977.     *     $SCMIMSG - SCOM Subtask Services Message Buffer             *
                                   43225    4978.     *                                                                 *
                                   43226    4979.     *******************************************************************
0000000                00000 00015 43228    4981.     $SCMIMSG RECORD BEGIN
 000000                            43236  1 4982.     $SCMSDB    DS    A                       Device ID
 000004                            43237  1 4983.     $SCMUPRM   DS    A                       User parameter
 000008                            43238  1 4984.     $SCMRQID   DS    A                       Request ID
 00000C                            43239  1 4985.     $SCMFUNC   DS    A                       Function code
 000010                            43240  1 4986.     $SCMOFF    DS    A                       Offset to convert address
 000014                            43241  1 4987.     $SCMKEY    DS    X                       Protect key
 000015                00015 00015 43242    4988.              END
-
                                   43252    4990.     *******************************************************************
                                   43253    4991.     *                                                                 *
                                   43254    4992.     *    @SCOMDO   - Parameters passed to SCOM drivers                *
                                   43255    4993.     *                                                                 *
                                   43256    4994.     *******************************************************************
0000000                00000 00008 43258    4996.     @SCOMDO  RECORD BEGIN
 000000                            43266  1 4997.     @SCMDMSG   DS    A                       Message buffer pointer
 000004                            43267  1 4998.     @SCMDWRK   DS    A                       Work area pointer
 000008                00008 00008 43268    4999.              END   ,
1IOSERV   (IOSE00) (09:40) (22MAR04) ORVYL'S Hiperspace Subtask                                                             Page  218
0Loc    Object Code    Addr1 Addr2  Stmt Lv Lineno    Source Statement           (Hibal 5, Asmedit 3.3)  HLASM R4.0  2004/03/22 09.40
+___    ______ ____    _____ _____  ____ __ ______    ______ _________
0                                  43279    5002.     *******************************************************************
                                   43280    5003.     *                                                                 *
                                   43281    5004.     *    HSPCETSK - HIPERSPACE sub-task work area                     *
                                   43282    5005.     *                                                                 *
                                   43283    5006.     *******************************************************************
0000000                00000 00010 43285    5008.     HSPWORK  RECORD BEGIN
 000000                            43293  1 5009.     HSPMCHN    DS    A                       MESSAGE CHANNEL ID
 000004                            43294  1 5010.     HSPMECB    DS    A                       MESSAGE CHANNEL ECB
 000008                            43295  1 5011.     HSPIOCT    DS    A                       IOCT ADDRESS
 00000C                            43296  1 5012.     HSPMESS    DS    A                       MESSAGE ADDRESS
 000010                00010 00010 43297    5013.              END
-
                                   43307    5015.     *******************************************************************
                                   43308    5016.     *                                                                 *
                                   43309    5017.     *      MVIOMSG - MVS I/O Services Message Buffers                 *
                                   43310    5018.     *                                                                 *
                                   43311    5019.     *******************************************************************
0000000                00000 0000C 43313    5021.     $HSRDWKA RECORD BEGIN
 000000                            43321  1 5022.     $HSRWKAD   DS    A                       Ptr to HSPCWORK
 000004                            43322  1 5023.     $HSRHDB    DS    A                       Ptr to HDB
 000008                            43323  1 5024.     $HSROFF    DS    A                       Ptr to MVS OFFSET
 00000C                0000C 0000C 43324    5025.              END   ,
1IOSERV   (IOSE00) (09:40) (22MAR04) ORVYL'S Hiperspace Subtask                                                             Page  219
0Loc    Object Code    Addr1 Addr2  Stmt Lv Lineno    Source Statement           (Hibal 5, Asmedit 3.3)  HLASM R4.0  2004/03/22 09.40
+___    ______ ____    _____ _____  ____ __ ______    ______ _________
0                                  43334    5027.     *******************************************************************
                                   43335    5028.     *                                                                 *
                                   43336    5029.     *   HSPCETSK - HIPERSPACE WAIT service                            *
                                   43337    5030.     *                                                                 *
                                   43338    5031.     *  THIS TASK IS ONLY REQUIRED FOR STANDARD HIPERSPACE REQUESTS    *
                                   43339    5032.     *  WHICH CAN NECESSITATE I/O TO DASD FOR PAGED-OUT FRAMES AND     *
                                   43340    5033.     *  AND WILL COMPLETE ASYNCHRONOUOSLY.  THIS REQUEST IS STARTED    *
                                   43341    5034.     *  IN A SUBTASK SO THAT THE MOTHER TASK WILL NOT BE PUT TO SLEEP  *
                                   43342    5035.     *  WAITING FOR THE I/O TO COMPLETE.  ESO HIPERSPACES DO NOT       *
                                   43343    5036.     *  INVOLVE I/O TO DASD HENCE WILL ALWAYS COMPLETELY SYNCHRONOUSLY *
                                   43344    5037.     *  IN THE MAIN TASK, ALONG WITH STANDARD HIPERSPACE WRITES.       *
                                   43345    5038.     *                                                                 *
                                   43346    5039.     *     Input -  SBTPARM                                            *
                                   43347    5040.     *                                                                 *
                                   43348    5041.     *    Output -                                                     *
                                   43349    5042.     *                                                                 *
                                   43350    5043.     *                                                                 *
                                   43351    5044.     *******************************************************************
-
 003E8E                            43353    5046.     HSPCETSK PROC  SBTPARM,SCOPE=LOCAL
 003E8E C8E2D7C3C5E3E2D2           43358             +
 003E96 0008/0000                  43359             +
 003E9A 900F D004/18AF       00004 43361             +
 USING  HSPCETSK,R10
 003EA0 50D0 C000/18CD       00000 43376             +
 003EA6 9680 C000      00000       43378             +
 USING  SBTPARM-72,R12
 003EAA 41D0 C050            00050 43392             +
 USING  RTCB,R9                    43393    5047.              WITH  (RTCB,RTCBR)
 003EAE 5810 90AC/1211       000AC 43406    5048.              IF    ('LT RS,RTCBBUFR',Z),BEGIN IF NO MVPG BUFFER ASSIGNED
 003EB4 4770 A046            03EE0 43417             +
 003EB8 47F0 A02A            03EC4 43422  1 5049.                STORAGE OBTAIN,LENGTH=4096,BNDRY=PAGE GET BUFFER FOR MVPG
 003EBC 00001000/00/00             43426  1          +
 003EC2 00/06                      43429  1          +
 003EC4 5800 A022            03EBC 43432  1          +
 003EC8 58F0 A026            03EC0 43433  1          +
 003ECC 58E0 0010            00010 43434  1          +
 003ED0 58EE 0304            00304 43435  1          +
 003ED4 58EE 00A0            000A0 43436  1          +
 003ED8 B218 E000      00000       43437  1          +
 003EDC 5010 90AC            000AC 43438  1 5050.                ST    RS,RTCBBUFR             STORE BUFFER ADDR IN RTCB
 003EE0                            43439    5051.              END   ,                    OF IF NO MVPG BUFFER ASSIGNED
 USING  @MEMGET-72,R13             43443    5052.              MEMGET L'HSPWORK,TYPE=LOCAL   GET WORK AREA
 003EE0 D709 D048 D048 00000 00000 43462             +
 003EE6 4100 0010            00010 43469             +
 003EEA 5000 D04C            00004 43470             +
 003EEE 9211 D051      00009       43480             +
 003EF2 58F0 A4FE/0DEF       04398 43483             +
 003EF8 1270/4770 A074       03F0E 43485    5053.              IF    ('LTR RY,RVR',Z),'KAPUT HSPWORK'
 003EFE 4110 0001            00001 43501  1 03-KAPUT +*,THIS FUNCTION IS NOT IMPLEMENTED
 003F02 4100 0080            00080 43507  1          +
 003F06 8900 0018/1610       00018 43508  1          +
 003F0C 0A0D                       43510             +
 USING  HSPWORK,R7                 43515    5054.              WITH  (HSPWORK,RY)
1IOSERV   (IOSE00) (09:40) (22MAR04) ORVYL'S Hiperspace Subtask                                                             Page  220
0Current Usings:  (HSPWORK,R7) (RTCB,R9) (HSPCETSK,R10) (SBTPARM-72,R12) (@MEMGET-72,R13)
0Loc    Object Code    Addr1 Addr2  Stmt Lv Lineno    Source Statement           (Hibal 5, Asmedit 3.3)  HLASM R4.0  2004/03/22 09.40
+___    ______ ____    _____ _____  ____ __ ______    ______ _________
0003F0E 5820 C048            00000 43528    5055.              L     RA,SBTDATA              IOCT pointer
 003F12 5020 7008            00008 43529    5056.              ST    RA,HSPIOCT              Save it
 DROP   @MEMGET-72,R13             43530    5057.              MSGATT HSPCETSK,TYPE=SERV     Open channel
 USING  @MSGATT-72,R13
 003F16 D207 D048 A4F6 00000 04390 43545             +
 003F1C 58F0 A502/0DEF       0439C 43548             +
 003F22 5000 7000            00000 43550    5058.              ST    RVR,HSPMCHN             MESSAGE CHANNEL ID
 003F26 5810 D050            00008 43551    5059.              L     RS,@MSGCECB             MESSAGE ECB
 003F2A 5010 7004            00004 43552    5060.              ST    RS,HSPMECB              SET POINTER
1IOSERV   (IOSE00) (09:40) (22MAR04) ORVYL'S Hiperspace Subtask                                                             Page  221
0Current Usings:  (HSPWORK,R7) (RTCB,R9) (HSPCETSK,R10) (SBTPARM-72,R12) (@MSGATT-72,R13)
0Loc    Object Code    Addr1 Addr2  Stmt Lv Lineno    Source Statement           (Hibal 5, Asmedit 3.3)  HLASM R4.0  2004/03/22 09.40
+___    ______ ____    _____ _____  ____ __ ______    ______ _________
0                                  43554    5062.     *
                                   43555    5063.     *  HIPERSPACE TASK LOOP
                                   43556    5064.     *
 003F2E                            43557    5065.              LOOP  BEGIN                   HIPERSPACE TASK LOOP
 DROP   @MSGATT-72,R13             43563  1 5066.                FWAIT HSPMECB                 FAST WAIT (BRANCH ENTRY)
 USING  @FWAIT-72,R13
 003F2E D703 D048 D048 00000 00000 43584  1          +
 003F34 58E0 7004            00004 43588  1          +
 003F38 50E0 D048            00000 43589  1          +
 003F3C 58F0 A506/0DEF       043A0 43592  1          +
 003F42 5810 7004            00004 43594  1 5067.                L     RS,HSPMECB              ECB POINTER
 003F46                            43595  1 5068.                CLEAR (@RS,4)                 CLEAR IT
 003F46 D703 1000 1000 00000 00000 43601  1          +
 003F4C                            43602  1 5069.                LOOP  BEGIN                   MSGRECV LOOP
 003F4C 5800 7000            00000 43608  2 5070.                  MSGRECV HSPMCHN               RECEIVE A MESSAGE
 DROP   @FWAIT-72,R13
 USING  @MSGRECV-72,R13
 003F50 5000 D048            00000 43627  2          +
 003F54 58F0 A50A/0DEF       043A4 43630  2          +
 003F5A 1280/4780 A4DA       04374 43632  2 5071.                  IF    ('LTR  RM,RVR',Z),EXIT  NO MORE TO GET
 003F60 5080 700C            0000C 43648  2 5072.                  ST    RM,HSPMESS              SAVE MESSAGE ADDR
                                   43649  2 5073.     *
                                   43650  2 5074.     *  WE HAVE BEEN POSTED.  MSGBUFF POINTS TO HSRWWORK FROM A
                                   43651  2 5075.     *  PAGE/SWAP REQUEST LIST WITH SOME UNSUCCESSFUL MVPG.
                                   43652  2 5076.     *
 003F64 5880 8000/1288       00000 43653  2 5077.                  IF    ('LT RM,@RM',Z),'KAPUT NOHSPTR'
 003F6A 4770 A0E4            03F7E 43664  2          +
 003F6E 4110 0001            00001 43677  3          +
 003F72 4100 0080            00080 43678  3          +
 003F76 8900 0018/1610       00018 43679  3          +
 003F7C 0A0D                       43681  2          +
 USING  HSRWWORK,R8                43686  2 5078.                  WITH  (HSRWWORK,RM)           POINT TO HSRWWORK
 AUSING (HSRWPLST,HSRWREND)        43699  2 5079.                  WITH  (HSRWPLST,HSRWREND)
 003F7E                            43706  2 5080.                  IF    (HSRWID,NE,=C'HSRW'),'KAPUT NOHSRWWORK'
 003F7E D503 A50E 8000 043A8 00000 43717  2          +
 003F84 4780 A0FE            03F98 43718  2          +
 003F88 4110 0001            00001 43731  3          +
 003F8C 4100 0080            00080 43732  3          +
 003F90 8900 0018/1610       00018 43733  3          +
 003F96 0A0D                       43735  2          +
 003F98 5860 800C            0000C 43740  2 5081.                  L     RX,HSRWHDB              GET HDB
 USING  HDB,R6                     43741  2 5082.                  WITH  (HDB,RX)
 AUSING (COMDB,HDB)                43754  2 5083.                  WITH  (COMDB,HDB)
 003F9C                            43761  2 5084.                  IF    (COMDBID,NE,=C'HDB'),'KAPUT BADHDB'
 003F9C D502 A526 6000 043C0 00000 43772  2          +
 003FA2 4780 A11C            03FB6 43773  2          +
 003FA6 4110 0001            00001 43786  3          +
 003FAA 4100 0080            00080 43787  3          +
 003FAE 8900 0018/1610       00018 43788  3          +
 003FB4 0A0D                       43790  2          +
 003FB6 58E0 A512            043AC 43795  2 5085.                  L     RAR,=A(HSPVEND+X'80000000') POINT TO PR EXIT
 003FBA B240 00E0                  43796  2 5086.                  BAKR  RAR,0                   USE HARDWARE STACK
                                   43797  2 5087.     *
                                   43798  2 5088.     *  HSPSERV EXPECTS A 144-BYTE SAVE AREA FOR SAVING BOTH GP AND
1IOSERV   (IOSE00) (09:40) (22MAR04) ORVYL'S Hiperspace Subtask                                                             Page  222
0Current Usings:  (HDB,R6) (HSPWORK,R7) (HSRWWORK,R8) (RTCB,R9) (HSPCETSK,R10) (SBTPARM-72,R12) (@MSGRECV-72,R13)
0Loc    Object Code    Addr1 Addr2  Stmt Lv Lineno    Source Statement           (Hibal 5, Asmedit 3.3)  HLASM R4.0  2004/03/22 09.40
+___    ______ ____    _____ _____  ____ __ ______    ______ _________
0                                  43799  2 5089.     *  AR REGS.
                                   43800  2 5090.     *
 003FBE 5840 8010            00010 43801  2 5091.                  L     RJ,HSRWCNT              USER'S PAGE COUNT
 003FC2 1B55                       43802  2 5092.                  CLEAR RK                      CLEAR PAGE LIST INDEX
 003FC4 1244/4780 A408       042A2 43806  2 5093.                  WHILE (RJ,NZ),BEGIN           WHILE WE'VE HSPSERV TO DO
 003FCA 4125 8134            00008 43822  3 5094.                    LA     RA,HSRWPCDE(RK)        GET ADDR OF CALLER **ESO1**
 USING  HSRWPCDE,R2                43823  3 5095.                    WITH  (HSRWPCDE,RA)               ERROR CODE     **ESO1**
 003FCE 9180 2000      00008       43836  3 5096.                    IF    HSRWERR,BEGIN        IF MVPG HAD AN ERROR  **ESO1**
 003FD2 47E0 A3FE            04298 43846  3          +
 DROP   HSRWPCDE,R2                43851  4 5097.                      DROP  RA                                         **ESO1**
                                   43858  4 5098.     *
                                   43859  4 5099.     *  THIS PARTICULAR PAGE/BLOCK HAD A MVPG ERROR.  SET UP HSPSERV
                                   43860  4 5100.     *  PARAMETERS
                                   43861  4 5101.     *
 003FD6 5825 8130            00004 43862  4 5102.                      L     RA,HSRWPBLK(RK)         HSPACE BLOCK NUMBER
 003FDA 5020 804C            0004C 43863  4 5103.                      ST    RA,HSRWHLOC               RANGELIST
 003FDE B20B 0000                  43864  4 5104.                      MODESET EXTKEY=ZERO,SAVEKEY=(2)  GET INTO KEY ZERO
 003FE2 B20A 0000      00000       43867  4          +
 003FE6 5020 8024            00024 43868  4 5105.                      ST    RA,HSRWKEYS             SAVE OLD KEY IN R1
 003FEA 1B00                       43869  4 5106.                      CLEAR RVR                     ZERO RETURN CODE REG
 003FEC 5820 90AC            000AC 43873  4 5107.                      L     RA,RTCBBUFR             GET BUFFER ADDR FROM RTCB
 003FF0 5020 8048            00048 43874  4 5108.                      ST    RA,HSRWPGAD             UPDATE HSPSERV RANGELIST
 003FF4 9180 801D      0001D       43875  4 5109.                      IF (HSRWFLG.HSPCWRIT),BEGIN   IF MVPG WRITE
 003FF8 47E0 A2A4            0413E 43885  4          +
 003FFC 5830 A516            043B0 43890  5 5110.                        L     RB,=F'4096'             GET PAGE LEN FOR MVCL
 004000 18F3                       43891  5 5111.                        LR    EPAR,RB                   LENGTH REGISTERS
 004002 58E5 812C            00000 43892  5 5112.                        L     RAR,HSRWPPGE(RK)        GET A PAGE ENTRY
 004006 89E0 0001            00001 43893  5 5113.                        SLL   RAR,1                   REMOVE
 00400A 88E0 0001            00001 43894  5 5114.                        SRL   RAR,1                     HIGH BIT
 00400E 0E2E                       43895  5 5115.                        MVCL  RA,RAR                  MOVE TO BUFFER
 004010 182D                       43896  5 5116.                        LR    RA,SPR                  SAVE R13
 004012 41D0 808C            0008C 43897  5 5117.                        LA    SPR,HSRWSAVE            POINT TO 36F S/A
 004016 9180 6028      00028       43898  5 5118.                        IF (HDBFLG.HDBSTND),BEGIN     IF STANDARD WRITE
 00401A 47E0 A1FE            04098 43908  5          +
                                   43913  6 5119.     *
                                   43914  6 5120.     *  DO AN SWRITE
                                   43915  6 5121.     *
                                   43916  6 5122.   C                      HSPSERV SWRITE,STOKEN=HDBTOKEN,RANGLIST=HSRWRNGL,
                                          6 5123.   C                            HSPALET=HDBALET,RETCODE=HSRWRTCD,
                                          6 5124.   C                            RSNCODE=HSRWRSCD,
 00401E 4110 806C            0006C        6 5125.                                MF=(E,HSRWSERV,COMPLETE)
 004022 D71B 1000 1000 00000 00000 43924  6          +
 004028 9201 1000      00000       43925  6          +
 00402C 9202 1001      00001       43926  6          +
 004030 D207 1008 601C 00008 0001C 43927  6          +
 004036 D203 1010 A51A 00010 043B4 43928  6          +
 00403C D203 1014 8044 00014 00044 43929  6          +
 004042 D203 1018 6018 00018 00018 43930  6          +
 004048 B219 0200      00200       43931  6          +
 00404C 58F0 0010            00010 43934  6          +
 004050 58FF 0164            00164 43935  6          +
 004054 58FF 00D0/05EF       000D0 43936  6          +
 00405A B219 0000      00000       43938  6          +
 00405E 50F0 8018            00018 43942  6          +
1IOSERV   (IOSE00) (09:40) (22MAR04) ORVYL'S Hiperspace Subtask                                                             Page  223
0Current Usings:  (HDB,R6) (HSPWORK,R7) (HSRWWORK,R8) (RTCB,R9) (HSPCETSK,R10) (SBTPARM-72,R12) (@MSGRECV-72,R13)
0Loc    Object Code    Addr1 Addr2  Stmt Lv Lineno    Source Statement           (Hibal 5, Asmedit 3.3)  HLASM R4.0  2004/03/22 09.40
+___    ______ ____    _____ _____  ____ __ ______    ______ _________
0004062 5000 8020            00020 43943  6          +
0                                  43948  6 5126.     *
                                   43949  6 5127.     *  IF SWRITE FAILED, ABORT.  GUEST CANNOT HANDLE THIS CONDITION
                                   43950  6 5128.     *
 004066                            43951  6 5129.                          IF    (HSRWRTCD,NZ),'KAPUT BADSWRITE'
 004066 D603 8018 8018 00018 00018 43961  6          +
 00406C 4780 A1E6            04080 43962  6          +
 004070 4110 0001            00001 43975  7          +
 004074 4100 0080            00080 43976  7          +
 004078 8900 0018/1610       00018 43977  7          +
 00407E 0A0D                       43979  6          +
 004080 18D2                       43984  6 5130.                          LR    SPR,RA                  RESTORE R13
 004082 1B00                       43985  6 5131.                          CLEAR RVR                     ZERO RETURN CODE REG
                                   43989  6 5132.     *
                                   43990  6 5133.     *  SWRITE WAS OK
                                   43991  6 5134.     *
 004084 5810 6030            00030 43992  6 5135.                          L     RS,HDBWRFR              INCREMENT
 004088                            43993  6 5136.                          LOOP  BEGIN
 004088 41F0 0001            00001 43999  7 5137.                            LA    R15,1                     FRAME
 00408C 1EF1                       44000  7 5138.                            ALR   R15,RS                    WRITE COUNT
 00408E BA1F 6030            00030 44001  7 5139.                            CS    RS,R15,HDBWRFR            SERIALIZED
 004092 4770 A1EE            04088 44002  6 5140.                          UNTIL Z,END                     IN HDB
                                   44021  6 5141.     *** SYSD TEST CODE ***
                                   44022  6 5142.     *        IF    (HDBWRFR,LGT,HDBWCT),'KAPUT BADWRCT'
                                   44023  6 5143.     *** END OF SYSD TEST CODE ***
 004096 1B00                       44024  6 5144.                          CLEAR RVR                     ZERO RETURN CODE REG
 004098                            44028  5 5145.                        END   ,                    OF IF STANDARD WRITE
 004098 A202           04098 0401C 44032  5 5146.                        ELSEIF (HDBFLG.HDBESO),BEGIN  ELSEIF ESO WRITE
 004098 47F0 A290            0412A 44038  5          +
 00409C 9140 6028      00028       44050  5          +
 0040A0 47E0 A290            0412A 44051  5          +
                                   44056  6 5147.     *
                                   44057  6 5148.     *  DO A CWRITE
                                   44058  6 5149.     *
                                   44059  6 5150.   C                      HSPSERV CWRITE,STOKEN=HDBTOKEN,RANGLIST=HSRWRNGL,
                                          6 5151.   C                            HSPALET=HDBALET,RETCODE=HSRWRTCD,
                                          6 5152.   C                            RSNCODE=HSRWRSCD,
 0040A4 4110 806C            0006C        6 5153.                                MF=(E,HSRWSERV,COMPLETE)
 0040A8 D71B 1000 1000 00000 00000 44067  6          +
 0040AE 9201 1000      00000       44068  6          +
 0040B2 9204 1001      00001       44069  6          +
 0040B6 9624 1004      00004       44070  6          +
 0040BA D207 1008 601C 00008 0001C 44071  6          +
 0040C0 D203 1010 A51A 00010 043B4 44072  6          +
 0040C6 D203 1014 8044 00014 00044 44073  6          +
 0040CC D203 1018 6018 00018 00018 44074  6          +
 0040D2 B219 0200      00200       44075  6          +
 0040D6 58F0 0010            00010 44078  6          +
 0040DA 58FF 0164            00164 44079  6          +
 0040DE 58FF 00D0/05EF       000D0 44080  6          +
 0040E4 B219 0000      00000       44082  6          +
 0040E8 50F0 8018            00018 44086  6          +
 0040EC 5000 8020            00020 44087  6          +
1IOSERV   (IOSE00) (09:40) (22MAR04) ORVYL'S Hiperspace Subtask                                                             Page  224
0Current Usings:  (HDB,R6) (HSPWORK,R7) (HSRWWORK,R8) (RTCB,R9) (HSPCETSK,R10) (SBTPARM-72,R12) (@MSGRECV-72,R13)
0Loc    Object Code    Addr1 Addr2  Stmt Lv Lineno    Source Statement           (Hibal 5, Asmedit 3.3)  HLASM R4.0  2004/03/22 09.40
+___    ______ ____    _____ _____  ____ __ ______    ______ _________
00040F0 1B00                       44092  6 5154.                          CLEAR RVR                     ZERO RETURN CODE REG
 0040F2 18D2                       44096  6 5155.                          LR    SPR,RA                  RESTORE R13
 0040F4 5820 8134            00008 44097  6 5156.                          L  RA,HSRWPCDE                GET SAVED #HSPLFLG  **ESO1**
 0040F8 947F 2000      00008       44098  6 5157.                          WITH (#HSPLFLG,RA),'CLEAR #HSPLERR' CLEAR ERROR   **ESO1**
 USING  #HSPLFLG,R2
 DROP   #HSPLFLG,R2
 0040FC                            44128  6 5158.                          IF    (HSRWRTCD,NZ),BEGIN     IF HSPSERV CWRITE FAILED
 0040FC D603 8018 8018 00018 00018 44138  6          +
 004102 4780 A278            04112 44139  6          +
                                   44144  7 5159.     *
                                   44145  7 5160.     *  CWRITE FAILED
                                   44146  7 5161.     *
 004106 4100 0004            00004 44147  7 5162.                            LA RVR,4
 00410A 4200 801C            0001C 44148  7 5163.                            STC   RVR,HSRWRC              STORE ERROR CODE
 00410E 9680 2000      00008       44149  7 5164.                            WITH (#HSPLFLG,RA),'SET #HSPLERR' SET ERROR FLAG  **ESO1**
 USING  #HSPLFLG,R2
 DROP   #HSPLFLG,R2
 004112                            44178  6 5165.                          END   ,                    OF IF HSPSERV CWRITE FAILED
 004112 A27C           04112 04104 44182  6 5166.                          ELSE BEGIN                    ELSE CWRITE OK
 004112 47F0 A290            0412A 44187  6          +
                                   44193  7 5167.     *
                                   44194  7 5168.     *  WRITE OK
                                   44195  7 5169.     *
 004116 5810 6030            00030 44196  7 5170.                            L     RS,HDBWRFR              INCREMENT
 00411A                            44197  7 5171.                            LOOP  BEGIN
 00411A 41F0 0001            00001 44203  8 5172.                              LA    R15,1                     REQUESTED
 00411E 1EF1                       44204  8 5173.                              ALR   R15,RS                    WRITE COUNT
 004120 BA1F 6030            00030 44205  8 5174.                              CS    RS,R15,HDBWRFR            SERIALIZED
 004124 4770 A280            0411A 44206  7 5175.                            UNTIL Z,END                     IN HDB
 004128 1B00                       44225  7 5176.                            CLEAR RVR                     ZERO RETURN CODE REG
 00412A                            44229  6 5177.                          END   ,                    OF ELSE CWRITE OK
 00412A                            44233  5 5178.                        END   ,                    OF ELSEIF ESO WRITE
 00412A A294           0412A 040A2 44237  5 5179.                        ELSE  'KAPUT NOWRITETYPE'
 00412A 47F0 A2A4            0413E 44242  5          +
 00412E 4110 0001            00001 44256  6          +
 004132 4100 0080            00080 44257  6          +
 004136 8900 0018/1610       00018 44258  6          +
 00413C 0A0D                       44260  5          +
 00413E                            44265  4 5180.                      END   ,                    OF IF MVPG WRITE
 00413E A2A8           0413E 03FFA 44269  4 5181.                      ELSEIF (HSRWFLG.HSPCREAD),BEGIN IF MVPG READ
 00413E 47F0 A3DE            04278 44275  4          +
 004142 9140 801D      0001D       44287  4          +
 004146 47E0 A3DE            04278 44288  4          +
 00414A 182D                       44293  5 5182.                        LR    RA,SPR                  SAVE R13
 00414C 41D0 808C            0008C 44294  5 5183.                        LA    SPR,HSRWSAVE            POINT TO 36F S/A
                                   44295  5 5184.   C                    HSPSERV SREAD,STOKEN=HDBTOKEN,RANGLIST=HSRWRNGL,
                                          5 5185.   C                          HSPALET=HDBALET,RETCODE=HSRWRTCD,
                                          5 5186.   C                          RSNCODE=HSRWRSCD,
 004150 4110 806C            0006C        5 5187.                              MF=(E,HSRWSERV,COMPLETE)
 004154 D71B 1000 1000 00000 00000 44303  5          +
 00415A 9201 1000      00000       44304  5          +
 00415E 9201 1001      00001       44305  5          +
 004162 D207 1008 601C 00008 0001C 44306  5          +
 004168 D203 1010 A51A 00010 043B4 44307  5          +
1IOSERV   (IOSE00) (09:40) (22MAR04) ORVYL'S Hiperspace Subtask                                                             Page  225
0Current Usings:  (HDB,R6) (HSPWORK,R7) (HSRWWORK,R8) (RTCB,R9) (HSPCETSK,R10) (SBTPARM-72,R12) (@MSGRECV-72,R13)
0Loc    Object Code    Addr1 Addr2  Stmt Lv Lineno    Source Statement           (Hibal 5, Asmedit 3.3)  HLASM R4.0  2004/03/22 09.40
+___    ______ ____    _____ _____  ____ __ ______    ______ _________
000416E D203 1014 8044 00014 00044 44308  5          +
 004174 D203 1018 6018 00018 00018 44309  5          +
 00417A B219 0200      00200       44310  5          +
 00417E 58F0 0010            00010 44313  5          +
 004182 58FF 0164            00164 44314  5          +
 004186 58FF 00D0/05EF       000D0 44315  5          +
 00418C B219 0000      00000       44317  5          +
 004190 50F0 8018            00018 44321  5          +
 004194 5000 8020            00020 44322  5          +
0004198 18D2                       44327  5 5188.                        LR    SPR,RA                  RESTORE R13
 00419A                            44328  5 5189.                        IF    (HSRWRTCD,NZ),'KAPUT BADHSPREAD'
 00419A D603 8018 8018 00018 00018 44338  5          +
 0041A0 4780 A31A            041B4 44339  5          +
 0041A4 4110 0001            00001 44352  6          +
 0041A8 4100 0080            00080 44353  6          +
 0041AC 8900 0018/1610       00018 44354  6          +
 0041B2 0A0D                       44356  5          +
                                   44361  5 5190.     *
                                   44362  5 5191.     *  SREAD COMPLETED OK, NOW MOVE PAGE TO CALLER'S AREA
                                   44363  5 5192.     *
 0041B4 5830 A516            043B0 44364  5 5193.                        L     RB,=F'4096'             GET PAGE LENGTH FOR MVCL
 0041B8 18F3                       44365  5 5194.                        LR    EPAR,RB                   LENGTH REGISTERS
 0041BA 5820 90AC            000AC 44366  5 5195.                        L     RA,RTCBBUFR             GET BUFFER FROM RTCB
 0041BE 58E5 812C            00000 44367  5 5196.                        L     RAR,HSRWPPGE(RK)        GET A PAGE ENTRY
 0041C2 0EE2                       44368  5 5197.                        MVCL  RAR,RA                  MOVE TO BUFFER
 0041C4 5810 602C            0002C 44369  5 5198.                        L     RS,HDBRDFR              INCREMENT
 0041C8                            44370  5 5199.                        LOOP  BEGIN
 0041C8 41F0 0001            00001 44376  6 5200.                          LA    R15,1                     FRAME
 0041CC 1EF1                       44377  6 5201.                          ALR   R15,RS                    READ COUNT
 0041CE BA1F 602C            0002C 44378  6 5202.                          CS    RS,R15,HDBRDFR            SERIALIZED
 0041D2 4770 A32E            041C8 44379  5 5203.                        UNTIL Z,END                     IN HDB
                                   44398  5 5204.     *
                                   44399  5 5205.     *  IF MVPG READ FAILED IN HSRDWRT BUT HSPSERV SREAD NOW SUCCEEDS,
                                   44400  5 5206.     *  THIS INDICATES THAT THE PAGE HAD BEEN MIGRATED TO AUX STORAGE.
                                   44401  5 5207.     *  ONCE THIS HAPPENS, IT NEVER GETS BACK TO ESTOR EVEN AFTER THE
                                   44402  5 5208.     *  SREAD UNLESS ORVYL REWRITES IT.  SINCE IT HAS JUST BEEN
                                   44403  5 5209.     *  REFERENCED, NOW IS A GOOD A TIME TO REWRITE IT TO ESTOR.
                                   44404  5 5210.     *
 0041D6 4125 8134            00008 44405  5 5211.                        LA     RA,HSRWPCDE(RK)        GET ADDR OF CALLER **ESO1**
 USING  HSRWPCDE,R2                44406  5 5212.                        WITH  (HSRWPCDE,RA)               ERROR CODE     **ESO1**
 0041DA 9180 2000      00008       44419  5 5213.                        IF    HSRWERR,BEGIN     IF MVPG HAD AN ERROR  **ESO1**
 0041DE 47E0 A3DC            04276 44429  5          +
 0041E2 5825 8130            00004 44434  6 5214.                          L     RA,HSRWPBLK(RK)         HSPACE BLOCK NUMBER
 0041E6 5020 804C            0004C 44435  6 5215.                          ST    RA,HSRWHLOC               RANGELIST
 0041EA 5820 90AC            000AC 44436  6 5216.                          L     RA,RTCBBUFR             GET BUFFER ADDR FROM RTCB
 0041EE 5020 8048            00048 44437  6 5217.                          ST    RA,HSRWPGAD             UPDATE HSPSERV RANGELIST
 0041F2 4120 0001            00001 44438  6 5218.                          LA    RA,1                    WE SUBMIT ONLY ONE PAGE
 0041F6 5020 8050            00050 44439  6 5219.                          ST    RA,HSRWNBLK               AT A TIME TO HSPSERV
 0041FA 182D                       44440  6 5220.                          LR    RA,SPR                  SAVE R13
 0041FC 41D0 808C            0008C 44441  6 5221.                          LA    SPR,HSRWSAVE            POINT TO 36F S/A
                                   44442  6 5222.     *
                                   44443  6 5223.     *  DO AN SWRITE
                                   44444  6 5224.     *
1IOSERV   (IOSE00) (09:40) (22MAR04) ORVYL'S Hiperspace Subtask                                                             Page  226
0Current Usings:  (HSRWPCDE,R2) (HDB,R6) (HSPWORK,R7) (HSRWWORK,R8) (RTCB,R9) (HSPCETSK,R10) (SBTPARM-72,R12) (@MSGRECV-72,R13)
0Loc    Object Code    Addr1 Addr2  Stmt Lv Lineno    Source Statement           (Hibal 5, Asmedit 3.3)  HLASM R4.0  2004/03/22 09.40
+___    ______ ____    _____ _____  ____ __ ______    ______ _________
0                                  44445  6 5225.   C                      HSPSERV SWRITE,STOKEN=HDBTOKEN,RANGLIST=HSRWRNGL,
                                          6 5226.   C                            HSPALET=HDBALET,RETCODE=HSRWRTCD,
                                          6 5227.   C                            RSNCODE=HSRWRSCD,
 004200 4110 806C            0006C        6 5228.                                MF=(E,HSRWSERV,COMPLETE)
 004204 D71B 1000 1000 00000 00000 44453  6          +
 00420A 9201 1000      00000       44454  6          +
 00420E 9202 1001      00001       44455  6          +
 004212 D207 1008 601C 00008 0001C 44456  6          +
 004218 D203 1010 A51A 00010 043B4 44457  6          +
 00421E D203 1014 8044 00014 00044 44458  6          +
 004224 D203 1018 6018 00018 00018 44459  6          +
 00422A B219 0200      00200       44460  6          +
 00422E 58F0 0010            00010 44463  6          +
 004232 58FF 0164            00164 44464  6          +
 004236 58FF 00D0/05EF       000D0 44465  6          +
 00423C B219 0000      00000       44467  6          +
 004240 50F0 8018            00018 44471  6          +
 004244 5000 8020            00020 44472  6          +
0                                  44477  6 5229.     *
                                   44478  6 5230.     *  IF SWRITE FAILED, ABORT.  GUEST CANNOT HANDLE THIS CONDITION
                                   44479  6 5231.     *
 004248                            44480  6 5232.                          IF    (HSRWRTCD,NZ),'KAPUT BADSWRITE'
 004248 D603 8018 8018 00018 00018 44490  6          +
 00424E 4780 A3C8            04262 44491  6          +
 004252 4110 0001            00001 44504  7          +
 004256 4100 0080            00080 44505  7          +
 00425A 8900 0018/1610       00018 44506  7          +
 004260 0A0D                       44508  6          +
 004262 18D2                       44513  6 5233.                          LR    SPR,RA                  RESTORE R13
 004264 5810 604C            0004C 44514  6 5234.                          L     RS,HDBRWRT              INCREMENT
 004268                            44515  6 5235.                          LOOP  BEGIN
 004268 41F0 0001            00001 44521  7 5236.                            LA    R15,1                     REWRITE
 00426C 1EF1                       44522  7 5237.                            ALR   R15,RS                    COUNT
 00426E BA1F 604C            0004C 44523  7 5238.                            CS    RS,R15,HDBRWRT            SERIALIZED
 004272 4770 A3CE            04268 44524  6 5239.                          UNTIL Z,END                     IN HDB
 004276                            44543  5 5240.                        END   ,                    OF IF MVPG READ HAD AN ERROR
 004276 1B00                       44547  5 5241.                        CLEAR RVR                     ZERO RETURN CODE REG
 DROP   HSRWPCDE,R2                44551  4 5242.                      END   ,                    OF IF MVPG READ
 004278 A3E2           04278 04148 44560  4 5243.                      ELSE  'KAPUT NOTRDORWRT'
 004278 47F0 A3F2            0428C 44565  4          +
 00427C 4110 0001            00001 44579  5          +
 004280 4100 0080            00080 44580  5          +
 004284 8900 0018/1610       00018 44581  5          +
 00428A 0A0D                       44583  4          +
 00428C 4205 8134            00008 44588  4 5244.                      STC   RVR,HSRWPCDE(RK)        CLEAR HSRW ERROR CODE
 004290 5820 8024            00024 44589  4 5245.                      L     RA,HSRWKEYS             RESTORE KEY
 004294 B20A 2000      00000       44590  4 5246.                      MODESET KEYADDR=(2)           BACK TO OUR KEY
 004298                            44593  3 5247.                    END   ,                    OF IF MVPG READ ERROR
 004298 0640                       44597  3 5248.                    DECR  RJ
 00429A 4150 500C            0000C 44599  3 5249.                    LA    RK,@RK+12               BUMP TO NEXT PAGE
 00429E 47F0 A12A            03FC4 44600  2 5250.                  END   ,                    OF WHILE WE'VE HSPSERV TO DO
 0042A2 0101                       44607  2 5251.                  PR
                                   44608  2 5252.     HSPVEND      EQU   *
1IOSERV   (IOSE00) (09:40) (22MAR04) ORVYL'S Hiperspace Subtask                                                             Page  227
0Current Usings:  (HDB,R6) (HSPWORK,R7) (HSRWWORK,R8) (RTCB,R9) (HSPCETSK,R10) (SBTPARM-72,R12) (@MSGRECV-72,R13)
0Loc    Object Code    Addr1 Addr2  Stmt Lv Lineno    Source Statement           (Hibal 5, Asmedit 3.3)  HLASM R4.0  2004/03/22 09.40
+___    ______ ____    _____ _____  ____ __ ______    ______ _________
0                                  44609  2 5253.     *
                                   44610  2 5254.     *  THE FOLLOWING CODE MAKES SURE THAT WE DO NOT SIGNAL MODULE
                                   44611  2 5255.     *  GSTINTF TO DO I/O BACK-END PROCESSING UNTIL WE ARE NOTIFIED
                                   44612  2 5256.     *  THAT THE ORIGINAL FRONT-END PROCESSING STARTED BY SSCH HAS
                                   44613  2 5257.     *  ENDED.  OTHERWISE, DUE TO MULTIPROCESSING EFFECTS WHICH WILL
                                   44614  2 5258.     *  NOT HAPPEN WITH REAL PAGE OR SWAP I/O, THE GUEST MACHINE CAN
                                   44615  2 5259.     *  BE POSTED FOR THE I/O INTERRUPT BEFORE IT GETS CONTROL FROM
                                   44616  2 5260.     *  THE SSCH.  WE WILL TRY TO AVOID THIS IF POSSIBLE BY INTRODUCING
                                   44617  2 5261.     *  AN STIMERM DELAY.
                                   44618  2 5262.     *
 0042A4 5820 8014            00014 44619  2 5263.                  L     RA,HSRWRQID
                                   44620  2 5264.     *
                                   44621  2 5265.     *  IRCBHSP IS TURNED ON IN ROUTINE HSRDWRT BEFORE OUR SUBTASK WAS
                                   44622  2 5266.     *  AWAKENED.  WHEN HSRDWRT RETURNS TO THE CALLER (GSTINTF ROUTINE
                                   44623  2 5267.     *  IXSSCH), GSTINTF TURNS IT  OFF.  IF WE ARE DISPATCHED BEFORE
                                   44624  2 5268.     *  THIS HAPPENS, WE WILL TRY TO DEFER SIGNALLING GSTINTF BACK-END.
                                   44625  2 5269.     *
 USING  IRCB,R2                    44626  2 5270.                  WITH  (IRCB,RA),'NC IRCBHSP,IRCBHSP'
 0042A8 D400 2020 2020 00020 00020 44641  2          +
 DROP   IRCB,R2
 0042AE 4780 A460            042FA 44650  2 5271.                  IF    NZ,BEGIN                 STILL NO SIGNAL FROM GSTINTF
                                   44661  3 5272.     *
                                   44662  3 5273.     *  WE WAIT FOR A MINIMUM INTERVAL.
                                   44663  3 5274.     *
 0042B2 9200 2020      00020       44664  3 5275.                    WITH  (IRCB,RA),'CLEAR IRCBHSP'
 USING  IRCB,R2
 DROP   IRCB,R2
 0042B6 4130 0001            00001 44694  3 5276.                    INCR  RB,HDBSTIMX       COUNT TOTAL TIMES WE DO STIMER MAX
 0042BA 5E30 605C            0005C 44698  3          +
 0042BE 5030 605C            0005C 44699  3          +
 0042C2                            44700  3 5277.                    CLEAR HSRWINTV
 0042C2 D707 8038 8038 00038 00038 44706  3          +
 0042C8 D203 803C A4EE 0003C 04388 44707  3 5278.                    MVC   HSRWINTV+4(4),STIMRMAX
                                   44708  3 5279.   C                STIMERM SET,ID=HSRWTMID,WAIT=YES,MICVL=HSRWINTV,
 0042CE 4110 8054            00054        3 5280.                          MF=(E,HSRWTIMR)
 0042D2 D717 1000 1000 00000 00000 44712  3          +
 0042D8 9221 1000      00000       44713  3          +
 0042DC 9201 1003      00003       44714  3          +
 0042E0 41F0 8040            00040 44715  3          +
 0042E4 50F0 1004            00004 44716  3          +
 0042E8 41F0 8038            00038 44717  3          +
 0042EC 50F0 1008            00008 44718  3          +
 0042F0 4100 0004            00004 44719  3          +
 0042F4 8900 0018/0A2F       00018 44720  3          +
 0042FA                            44722  2 5281.                  END  ,                     OF NO SIGNAL FROM GSTINTF YET
                                   44726  2 5282.     *
                                   44727  2 5283.     *
                                   44728  2 5284.     *  NOTIFY GUEST MACHINE OF COMPLETION
                                   44729  2 5285.     *
 DROP   @MSGRECV-72,R13            44730  2 5286.                  PSET  @GSTIIOT
 USING  @GSTIIOT-72,R13
 0042FA D707 D048 D048 00000 00000 44750  2          +
 004300                            44751  2 5287.                  CLEAR @GSTICS                 Completion status
 004300 D703 D04C D04C 00004 00004 44757  2          +
1IOSERV   (IOSE00) (09:40) (22MAR04) ORVYL'S Hiperspace Subtask                                                             Page  228
0Current Usings:  (HDB,R6) (HSPWORK,R7) (HSRWWORK,R8) (RTCB,R9) (HSPCETSK,R10) (SBTPARM-72,R12) (@GSTIIOT-72,R13)
0Loc    Object Code    Addr1 Addr2  Stmt Lv Lineno    Source Statement           (Hibal 5, Asmedit 3.3)  HLASM R4.0  2004/03/22 09.40
+___    ______ ____    _____ _____  ____ __ ______    ______ _________
0004306 D203 D048 8014 00000 00014 44758  2 5288.                  MVC   @GSTIRQI,HSRWRQID       Request ID
 00430C 58F0 A51E/0DEF       043B8 44759  2 5289.                  VCALL GSTIIOT                 NOTIFY THE USER
1IOSERV   (IOSE00) (09:40) (22MAR04) ORVYL'S Hiperspace Subtask                                                             Page  229
0Current Usings:  (HDB,R6) (HSPWORK,R7) (HSRWWORK,R8) (RTCB,R9) (HSPCETSK,R10) (SBTPARM-72,R12) (@GSTIIOT-72,R13)
0Loc    Object Code    Addr1 Addr2  Stmt Lv Lineno    Source Statement           (Hibal 5, Asmedit 3.3)  HLASM R4.0  2004/03/22 09.40
+___    ______ ____    _____ _____  ____ __ ______    ______ _________
0                                  44764  2 5291.     *
                                   44765  2 5292.     *  FREE THE MESSAGE BUFFER
                                   44766  2 5293.     *
 004312 5840 700C            0000C 44767  2 5294.                  L     RJ,HSPMESS
 004316 5800 7000            00000 44768  2 5295.                  MSGFREE HSPMCHN,(RJ)          FREE MESSAGE BUFFER
 DROP   @GSTIIOT-72,R13
 USING  @MSGFREE-72,R13
 00431A 5000 D048/1804       00000 44787  2          +
 004320 5000 D04C            00004 44792  2          +
 004324 58F0 A522/0DEF       043BC 44795  2          +
 00432A                            44797  2 5296.                  IF    (HSRWID,NE,=C'HSRW'),'KAPUT NOHSRWWORK'
 00432A D503 A50E 8000 043A8 00000 44808  2          +
 004330 4780 A4AA            04344 44809  2          +
 004334 4110 0001            00001 44822  3          +
 004338 4100 0080            00080 44823  3          +
 00433C 8900 0018/1610       00018 44824  3          +
 004342 0A0D                       44826  2          +
 004344                            44831  2 5297.                  CLEAR HSRWID
 004344 D703 8000 8000 00000 00000 44837  2          +
 00434A 5820 8004            00004 44838  2 5298.                  L     RA,HSRWLEN                MEMFREE
                                   44839  2 5299.     *        MEMFREE (RA),A=(RM),TYPE=GLOBAL   HSRWWORK
                                   44840  2 5300.   C HSRWRL2      STORAGE RELEASE,ADDR=(RM),LENGTH=(RA),
 00434E 0700/47F0 A4BE       04358        2 5301.                        SP=10,RELATED=HSRWOB
 004354 00/00/0A/03                44845  2          +
 004358 1802/1818                  44850  2          +
 00435C 58F0 A4BA            04354 44852  2          +
 004360 58E0 0010            00010 44853  2          +
 004364 58EE 0304            00304 44854  2          +
 004368 58EE 00CC            000CC 44855  2          +
 00436C B218 E000      00000       44856  2          +
 004370 47F0 A0B2            03F4C 44857  1 5302.                END   ,                    OF MSGRECV LOOP
 DROP   HDB,R6
 DROP   HSRWWORK,R8
 004374 47F0 A094            03F2E 44872    5303.              END   ,                    OF HIPERSPACE TASK LOOP
 004378 981F C008            00008 44877    5304.              PEND
 DROP   HSPWORK,R7
 DROP   RTCB,R9
 DROP   SBTPARM-72,R12
 DROP   HSPCETSK,R10
 00437C 9680 C000/0B0E 00000       44902             +
 DROP   @MSGFREE-72,R13
 004384                            44911    5305.              DS    0F
 004384 007D0000                   44912    5306.     STIMRMIN DC    X'007D0000'            2 MILLISECONDs
 004388 02710000                   44913    5307.     STIMRMAX DC    X'02710000'           10 MILLISECONDS
 004390                            44914    5308.              LTORG
 004390 C8E2D7C3C5E3E2D2           44916                             =CL8'HSPCETSK'
 004398 00000000                   44917                             =V(MEMGET)
 00439C 00000000                   44918                             =V(MSGATTS)
 0043A0 00000000                   44919                             =V(FWAIT)
 0043A4 00000000                   44920                             =V(MSGRECV)
 0043A8 C8E2D9E6                   44921                             =C'HSRW'
 0043AC 800042A4                   44922                             =A(HSPVEND+X'80000000')
 0043B0 00001000                   44923                             =F'4096'
 0043B4 00000001                   44924                             =FL4'1'
1IOSERV   (IOSE00) (09:40) (22MAR04) ORVYL'S Hiperspace Subtask                                                             Page  230
0Loc    Object Code    Addr1 Addr2  Stmt Lv Lineno    Source Statement           (Hibal 5, Asmedit 3.3)  HLASM R4.0  2004/03/22 09.40
+___    ______ ____    _____ _____  ____ __ ______    ______ _________
00043B8 00000000                   44925                             =V(GSTIIOT)
 0043BC 00000000                   44926                             =V(MSGFREE)
 0043C0 C8C4C2         043C3 06A98 44927                             =C'HDB'
1IOSERV   (IOSE00) (09:40) (22MAR04) ORVYL'S Hiperspace Subtask                                                             Page  231
0Loc    Object Code    Addr1 Addr2  Stmt Lv Lineno    Source Statement           (Hibal 5, Asmedit 3.3)  HLASM R4.0  2004/03/22 09.40
+___    ______ ____    _____ _____  ____ __ ______    ______ _________
0                                  44932    5310.              COPY  PFINFO
                                   44933             =*******************************************************************
                                   44934             =*                                                                 *
                                   44935             =*    PFINFO - ORVYL Page and File System Description              *
                                   44936             =*                                                                 *
                                   44937             =*******************************************************************
0000000                00000 00020 44939             =#PFINFO  RECORD BEGIN
                                   44947  1          =*
                                   44948  1          =*  Disk Information
                                   44949  1          =*
 000000                            44950  1          =#PFIBKS    DS    A                       Number of blocks
 000004                            44951  1          =#PFIBTK    DS    A                       Blocks per track
 000008                            44952  1          =#PFITCY    DS    A                       Tracks per cylinder
 00000C                            44953  1          =           DS    CL6                     Available
 000012 00                         44954  1          =#PFISPF    FLAG  ,                       Space flags
 #PFISPF.#PFOCYL   80 ONES         44958  1          =           FLAG  #PFOCYL                 Cylinder allocation
 #PFISPF.#PFOCNTG  40 ONES         44963  1          =           FLAG  #PFOCNTG                Single extent
                                   44968  1          =*
                                   44969  1          =*  DCB Information
                                   44970  1          =*
 000013 00                         44971  1          =#PFIDSO    FLAG  ,                       Data set organization
 #PFIDSO.#PFODSQ   40 ONES         44975  1          =           FLAG  (#PFODSQ,X'40')         Sequential
 #PFIDSO.#PFODPO   02 ONES         44984  1          =           FLAG  (#PFODPO,X'02')         Partitioned
 #PFIDSO.#PFODIR   20 ONES         44993  1          =           FLAG  (#PFODIR,X'20')         Direct
                                   45002  1          =
 000014 00                         45003  1          =#PFIRFM    FLAG  ,                       Record Format
 #PFIRFM.#PFORF    80 ONES         45007  1          =           FLAG  (#PFORF,X'80')          Fixed
 #PFIRFM.#PFORV    40 ONES         45016  1          =           FLAG  (#PFORV,X'40')          Variable
 #PFIRFM.#PFORN    C0 ONES         45025  1          =           FLAG  (#PFORN,X'C0')          Undefined
 #PFIRFM.#PFORB    10 ONES         45034  1          =           FLAG  (#PFORB,X'10')          Blocked
                                   45043  1          =
 000015                            45044  1          =#PFIKEY    DS    X                       Key length
 000018                            45045  1          =#PFILRC    DS    A                       Record length
 00001C                            45046  1          =#PFIBLK    DS    A                       Block size
 000020                00020 00020 45047             =         END   ,
1IOSERV   (IOSE00) (09:40) (22MAR04) ORVYL'S Hiperspace Subtask                                                             Page  232
0Loc    Object Code    Addr1 Addr2  Stmt Lv Lineno    Source Statement           (Hibal 5, Asmedit 3.3)  HLASM R4.0  2004/03/22 09.40
+___    ______ ____    _____ _____  ____ __ ______    ______ _________
0                                  45057    5312.     *******************************************************************
                                   45058    5313.     *                                                                 *
                                   45059    5314.     *   SCOMTASK - SUZAN Path wait service                            *
                                   45060    5315.     *                                                                 *
                                   45061    5316.     *                                                                 *
                                   45062    5317.     *     Input -                                                     *
                                   45063    5318.     *                                                                 *
                                   45064    5319.     *    Output -                                                     *
                                   45065    5320.     *                                                                 *
                                   45066    5321.     *                                                                 *
                                   45067    5322.     *******************************************************************
-
 0043C4                            45069    5324.     SCOMTASK PROC  SBTPARM,SCOPE=LOCAL
 0043C4 E2C3D6D4E3C1E2D2           45074             +
 0043CC 0008/0000                  45075             +
 0043D0 900F D004/18AF       00004 45077             +
 USING  SCOMTASK,R10
 0043D6 50D0 C000/18CD       00000 45092             +
 0043DC 9680 C000      00000       45094             +
 USING  SBTPARM-72,R12
 0043E0 41D0 C050            00050 45108             +
 USING  @MEMGET-72,R13             45109    5325.              MEMGET L'SCSTWORK,TYPE=LOCAL   GET WORK AREA
 0043E4 D709 D048 D048 00000 00000 45128             +
 0043EA 4100 001C            0001C 45135             +
 0043EE 5000 D04C            00004 45136             +
 0043F2 9211 D051      00009       45146             +
 0043F6 58F0 A190/0DEF       04560 45149             +
 0043FC 1270/4770 A042       04412 45151    5326.              IF    ('LTR RY,RVR',Z),'KAPUT SCMORK'
 004402 4110 0001            00001 45167  1 03-KAPUT +*,THIS FUNCTION IS NOT IMPLEMENTED
 004406 4100 0080            00080 45173  1          +
 00440A 8900 0018/1610       00018 45174  1          +
 004410 0A0D                       45176             +
 USING  SCSTWORK,R7                45181    5327.              WITH  (SCSTWORK,RY)
 004412                            45194    5328.              CLEAR SCSTWORK
 004412 D71B 7000 7000 00000 00000 45200             +
 004418 D203 7010 C048 00010 00000 45201    5329.              MVC   SCTIOCT,SBTDATA         SAVE IOCT pointer
 DROP   @MEMGET-72,R13             45202    5330.              MSGATT SCOMTASK,TYPE=SERV     Open channel
 USING  @MSGATT-72,R13
 00441E D207 D048 A188 00000 04558 45217             +
 004424 58F0 A194/0DEF       04564 45220             +
 00442A 5000 7000            00000 45222    5331.              ST    RVR,SCTMCHN             MESSAGE CHANNEL ID
 00442E 58F0 D050            00008 45223    5332.              L     R15,@MSGCECB            MESSAGE ECB ADDRESS
 004432 50F0 7004            00004 45224    5333.              ST    R15,SCTMECBP            SET POINTER
 004436 4110 700C            0000C 45225    5334.              LA    RS,SCTPECB              PATH POST ECB
 00443A 5010 7008            00008 45226    5335.              ST    RS,SCTPECBP             SET POINTER IN ECBLIST
 00443E 9680 7008      00008       45227    5336.              SET   SCTPECBP.X'80'           END OF LIST
1IOSERV   (IOSE00) (09:40) (22MAR04) ORVYL'S Hiperspace Subtask                                                             Page  233
0Current Usings:  (SCSTWORK,R7) (SCOMTASK,R10) (SBTPARM-72,R12) (@MSGATT-72,R13)
0Loc    Object Code    Addr1 Addr2  Stmt Lv Lineno    Source Statement           (Hibal 5, Asmedit 3.3)  HLASM R4.0  2004/03/22 09.40
+___    ______ ____    _____ _____  ____ __ ______    ______ _________
0                                  45235    5338.     *
                                   45236    5339.     *  SCOM I/O TASK LOOP
                                   45237    5340.     *
 004442                            45238    5341.              LOOP  BEGIN
 004442 4100 0001            00001 45244  1 5342.                WAIT  ECBLIST=SCTECBL         WAIT FOR SOMETHING
 004446 4110 7004/1311       00004 45249  1          +
 00444C 0A01                       45251  1          +
 00444E 5810 7004            00004 45252  1 5343.                L     RS,SCTMECBP             MESSAGE ECB POINTER
 004452 9140 1000      00000       45253  1 5344.                IF    @RS.X'40',BEGIN         MESSAGE ECB POSTED
 004456 47E0 A118            044E8 45264  1          +
 00445A                            45269  2 5345.                  CLEAR (@RS,4)                 CLEAR MESSAGE ECB
 00445A D703 1000 1000 00000 00000 45275  2          +
 004460                            45276  2 5346.                  LOOP  BEGIN
 004460 5800 7000            00000 45282  3 5347.                    MSGRECV SCTMCHN               RECEIVE A MESSAGE
 DROP   @MSGATT-72,R13
 USING  @MSGRECV-72,R13
 004464 5000 D048            00000 45301  3          +
 004468 58F0 A198/0DEF       04568 45304  3          +
 00446E 1240/4780 A118       044E8 45306  3 5348.                    IF    ('LTR  RJ,RVR',Z),EXIT   NO MORE MESSAGES
 USING  $SCMIMSG,R4                45322  3 5349.                    WITH  ($SCMIMSG,RJ)
 DROP   @MSGRECV-72,R13            45335  3 5350.                    PSET  @SCOMDO
 USING  @SCOMDO-72,R13
 004474 D707 D048 D048 00000 00000 45355  3          +
 00447A 5040 D048            00000 45356  3 5351.                    ST    RJ,@SCMDMSG             PASS MESSAGE POINTER
 00447E 5070 D04C            00004 45357  3 5352.                    ST    RY,@SCMDWRK              AND WORK AREA POINTER
 004482 5810 400C            0000C 45358  3 5353.                    L     RS,$SCMFUNC             FUNCTION CODE
 004486 1211/4770 A0CC       0449C 45359  3 5354.                    IF    (RS,Z),'KAPUT SCMFUNZ'
 00448C 4110 0001            00001 45376  4 03-KAPUT +*,THIS FUNCTION IS NOT IMPLEMENTED
 004490 4100 0080            00080 45382  4          +
 004494 8900 0018/1610       00018 45383  4          +
 00449A 0A0D                       45385  3          +
 00449C 5910 A19C            0456C 45390  3 5355.                    IF    (RS,GT,SCMFMAX),'KAPUT SCMFUNHI'
 0044A0 47D0 A0E4            044B4 45402  3          +
 0044A4 4110 0001            00001 45415  4          +
 0044A8 4100 0080            00080 45416  4          +
 0044AC 8900 0018/1610       00018 45417  4          +
 0044B2 0A0D                       45419  3          +
 0044B4 58F1 A340/0DEF       04710 45424  3 5356.                    ACALL SCOMFUNC(RS)            FUNCTION ROUTINE
                                   45431  3 5357.     *                                      RETURN CODE IS IN RVR
                                   45432  3 5358.     *
                                   45433  3 5359.     *  NOTIFY GUEST MACHINE OF COMPLETION
                                   45434  3 5360.     *
 DROP   @SCOMDO-72,R13             45435  3 5361.                    PSET  @GSTIIOT
 USING  @GSTIIOT-72,R13
 0044BA D707 D048 D048 00000 00000 45455  3          +
 0044C0 5000 D04C            00004 45456  3 5362.                    ST    RVR,@GSTICS             Completion status
 0044C4 D203 D048 4008 00000 00008 45457  3 5363.                    MVC   @GSTIRQI,$SCMRQID       Request ID
 0044CA 58F0 A1A0/0DEF       04570 45458  3 5364.                    VCALL GSTIIOT                 NOTIFY THE USER
                                   45462  3 5365.     *
                                   45463  3 5366.     *  FREE THE MESSAGE BUFFER
                                   45464  3 5367.     *
 0044D0 5800 7000            00000 45465  3 5368.                    MSGFREE SCTMCHN,(RJ)          FREE MESSAGE BUFFER
 DROP   @GSTIIOT-72,R13
 USING  @MSGFREE-72,R13
1IOSERV   (IOSE00) (09:40) (22MAR04) ORVYL'S Hiperspace Subtask                                                             Page  234
0Current Usings:  ($SCMIMSG,R4) (SCSTWORK,R7) (SCOMTASK,R10) (SBTPARM-72,R12) (@MSGFREE-72,R13)
0Loc    Object Code    Addr1 Addr2  Stmt Lv Lineno    Source Statement           (Hibal 5, Asmedit 3.3)  HLASM R4.0  2004/03/22 09.40
+___    ______ ____    _____ _____  ____ __ ______    ______ _________
00044D4 5000 D048/1804       00000 45484  3          +
 0044DA 5000 D04C            00004 45489  3          +
 0044DE 58F0 A1A4/0DEF       04574 45492  3          +
 0044E4 47F0 A090            04460 45494  2 5369.                  END   ,
 DROP   $SCMIMSG,R4
 0044E8                            45504  1 5370.                END   ,
1IOSERV   (IOSE00) (09:40) (22MAR04) ORVYL'S Hiperspace Subtask                                                             Page  235
0Current Usings:  (SCSTWORK,R7) (SCOMTASK,R10) (SBTPARM-72,R12) (@MSGFREE-72,R13)
0Loc    Object Code    Addr1 Addr2  Stmt Lv Lineno    Source Statement           (Hibal 5, Asmedit 3.3)  HLASM R4.0  2004/03/22 09.40
+___    ______ ____    _____ _____  ____ __ ______    ______ _________
0                                  45509  1 5372.     *
                                   45510  1 5373.     *  PATH POST HAS OCCURRED FIND OUT WHICH ONE
                                   45511  1 5374.     *
 0044E8 9140 700C      0000C       45512  1 5375.                IF    SCTPECB.X'40',BEGIN     PATH POST ECB POSTED
 0044EC 47E0 A176            04546 45523  1          +
 0044F0                            45528  2 5376.                  CLEAR SCTPECB                 CLEAR PATH POST ECB
 0044F0 D703 700C 700C 0000C 0000C 45534  2          +
 0044F6 5850 7010            00010 45535  2 5377.                  L     RK,SCTIOCT              GET IOCT POINTER
 USING  IOCT,R5                    45536  2 5378.                  WITH  (IOCT,RK)
 0044FA 5800 504C            0004C 45549  2 5379.                  LOCKOB IOCTSNTL               GET NOTIFY CHAIN LOCK
 DROP   @MSGFREE-72,R13
 USING  @LOCKS-72,R13
 0044FE 5000 D048            00000 45568  2          +
 004502 58F0 A1A8/0DEF       04578 45571  2          +
 004508 5860 5068            00068 45573  2 5380.                  L     RX,IOCTSNFP             FIRST ELEMENT IN CHAIN
 USING  SDB,R6                     45574  2 5381.                  WITH  (SDB,RX)
 00450C 4120 5060            00060 45587  2 5382.                  LA    RA,IOCTSNFP-(SDBFP-SDB)   END OF CHAIN ANCHOR
 004510 1962/4780 A168       04538 45588  2 5383.                  WHILE (RX,NE,RA),BEGIN        DO ENTIRE CHAIN
 004516 5830 6008            00008 45605  3 5384.                    L     RB,SDBFP                NEXT PATH TO INSPECT
                                   45606  3 5385.     *
                                   45607  3 5386.     *  POST PATH WITH NOTIFY COMPLETION
                                   45608  3 5387.     *
 00451A 9500 601C      0001C       45609  3 5388.                    IF    (SDBPFL,NZ),BEGIN       THIS ONE POSTED
 00451E 4780 A162            04532 45620  3          +
 DROP   @LOCKS-72,R13              45625  4 5389.                      PSET  @SCOMDB
 USING  @SCOMDB-72,R13
 004522 D703 D048 D048 00000 00000 45645  4          +
 004528 5060 D048            00000 45646  4 5390.                      ST    RX,@SCOMSDB             SDB POINTER
 00452C 58F0 A1AC/0DEF       0457C 45647  4 5391.                      ACALL SCOMNTFY                NOTIFY COMPLETE
 004532                            45654  3 5392.                    END   ,
 004532 1863                       45658  3 5393.                    LR    RX,RB                   NEXT SDB TO CHECK
 004534 47F0 A140            04510 45659  2 5394.                  END   ,
 004538 5800 504C            0004C 45664  2 5395.                  LOCKRL IOCTSNTL               RELEASE NOTIFY CHAIN LOCK
 DROP   @SCOMDB-72,R13
 USING  @LOCKS-72,R13
 00453C 5000 D048            00000 45683  2          +
 004540 58F0 A1B0/0DEF       04580 45686  2          +
 DROP   SDB,R6                     45688  1 5396.                END   ,
 DROP   IOCT,R5
 004546 47F0 A072            04442 45702    5397.              END   ,
 00454A 981F C008            00008 45707    5398.              PEND
 DROP   SCSTWORK,R7
 DROP   SBTPARM-72,R12
 DROP   SCOMTASK,R10
 00454E 9680 C000/0B0E 00000       45727             +
 DROP   @LOCKS-72,R13
 004558                            45736    5399.              LTORG
 004558 E2C3D6D4E3C1E2D2           45738                             =CL8'SCOMTASK'
 004560 00000000                   45739                             =V(MEMGET)
 004564 00000000                   45740                             =V(MSGATTS)
 004568 00000000                   45741                             =V(MSGRECV)
 00456C 00000004                   45742                             =A(SCMFMAX)
 004570 00000000                   45743                             =V(GSTIIOT)
 004574 00000000                   45744                             =V(MSGFREE)
1IOSERV   (IOSE00) (09:40) (22MAR04) ORVYL'S Hiperspace Subtask                                                             Page  236
0Loc    Object Code    Addr1 Addr2  Stmt Lv Lineno    Source Statement           (Hibal 5, Asmedit 3.3)  HLASM R4.0  2004/03/22 09.40
+___    ______ ____    _____ _____  ____ __ ______    ______ _________
0004578 00000000                   45745                             =V(LOCKOB)
 00457C 0000469E                   45746                             =A(SCOMNTFY)
 004580 00000000       04584 06A98 45747                             =V(LOCKREL)
1IOSERV   (IOSE00) (09:40) (22MAR04) ORVYL'S Hiperspace Subtask                                                             Page  237
0Loc    Object Code    Addr1 Addr2  Stmt Lv Lineno    Source Statement           (Hibal 5, Asmedit 3.3)  HLASM R4.0  2004/03/22 09.40
+___    ______ ____    _____ _____  ____ __ ______    ______ _________
0                                  45752    5401.     *******************************************************************
                                   45753    5402.     *                                                                 *
                                   45754    5403.     *    FUNCTION TABLE                                               *
                                   45755    5404.     *                                                                 *
                                   45756    5405.     *******************************************************************
000470D                0470D 06A98 45758    5407.              DATA  BEGIN
 00470D 000000                            1
 004710 00000000                   45763  1 5408.     SCOMFUNC   DC    A(0)
 004714 00004590                   45764  1 5409.                DC    A(SCOMOPEN)
                                   45765  1 5410.     SCMFMAX    EQU   *-SCOMFUNC-4            MAXIMUM
 004584                04584 06A98 45766    5411.              END   ,
1IOSERV   (IOSE00) (09:40) (22MAR04) ORVYL'S Hiperspace Subtask                                                             Page  238
0Loc    Object Code    Addr1 Addr2  Stmt Lv Lineno    Source Statement           (Hibal 5, Asmedit 3.3)  HLASM R4.0  2004/03/22 09.40
+___    ______ ____    _____ _____  ____ __ ______    ______ _________
0                                  45773    5413.     *******************************************************************
                                   45774    5414.     *                                                                 *
                                   45775    5415.     *    SCOMOPEN - Open SCOM paths                                   *
                                   45776    5416.     *                                                                 *
                                   45777    5417.     *                                                                 *
                                   45778    5418.     *     Input -  @SCOMDO                                            *
                                   45779    5419.     *                                                                 *
                                   45780    5420.     *    Output -  Return code in RVR                                 *
                                   45781    5421.     *                                                                 *
                                   45782    5422.     *                                                                 *
                                   45783    5423.     *******************************************************************
-
 004584                            45785    5425.     SCOMOPEN PROC  @SCOMDO,SCOPE=LOCAL
 004584 E2C3D6D4D6D7C5D5           45790             +
 00458C 0008/0000                  45791             +
 004590 900F D004/18AF       00004 45793             +
 USING  SCOMOPEN,R10
 004596 50D0 C000/18CD       00000 45808             +
 00459C 9680 C000      00000       45810             +
 USING  @SCOMDO-72,R12
 0045A0 41D0 C050            00050 45824             +
 0045A4 5840 C048            00000 45825    5426.              L     RJ,@SCMDMSG             Message
 USING  $SCMIMSG,R4                45826    5427.              WITH  ($SCMIMSG,RJ)
 0045A8 5870 C04C            00004 45839    5428.              L     RY,@SCMDWRK             WORK AREA
 USING  SCSTWORK,R7                45840    5429.              WITH  (SCSTWORK,RY)
 0045AC 5850 4000            00000 45853    5430.              L     RK,$SCMSDB              SDB POINTER
 USING  SDB,R5                     45854    5431.              WITH  (SDB,RK)
 AUSING (COMDB,SDB)                45867    5432.              WITH  (COMDB,SDB),'CLC  COMDBID,=CL4"SDB"'    Validate
 0045B0 D503 5000 A168 00000 046F8 45878             +
 0045B6 4780 A03A            045CA 45882    5433.              IF    NE,'KAPUT SDBPTR'
 0045BA 4110 0001            00001 45901  1          +
 0045BE 4100 0080            00080 45902  1          +
 0045C2 8900 0018/1610       00018 45903  1          +
 0045C8 0A0D                       45905             +
                                   45910    5434.     *
                                   45911    5435.     *  SET UP ECB
                                   45912    5436.     *
 0045CA 4110 700C            0000C 45913    5437.              LA    RS,SCTPECB              ECB Pointer
 0045CE 5010 5048            00048 45914    5438.              ST    RS,PATHECB               SET
                                   45915    5439.     *
                                   45916    5440.     *  ISSUE SCOM SVC
                                   45917    5441.     *
 0045D2 4110 5020            00020 45918    5442.              LA    RS,PATH                 PATH BLOCK
 0045D6 5010 7018            00018 45919    5443.              ST    RS,SCTPATH               TO PARAMETER LIST
 0045DA 9680 7018      00018       45920    5444.              SET   SCTPATH.X'80'           END OF LIST
 0045DE 1B00/1BFF                  45927    5445.              SCOM  OPEN,SCTPATH            TRY OPENING IT
 0045E2 4110 7018/0AFB       00018 45942             +
 0045E8 182F                       45944    5446.              LR    RA,R15                  Save return code
                                   45945    5447.     *
                                   45946    5448.     *  Release Info area (if there is one)
                                   45947    5449.     *
 0045EA 5830 5050/1233       00050 45948    5450.              IF    ('LT  RB,PATHPINP',NZ),BEGIN
 0045F0 4780 A08A            0461A 45959             +
 0045F4 4110 0004            00004 45964  1 5451.                LA    RS,4
1IOSERV   (IOSE00) (09:40) (22MAR04) ORVYL'S Hiperspace Subtask                                                             Page  239
0Current Usings:  ($SCMIMSG,R4) (SDB,R5) (SCSTWORK,R7) (SCOMOPEN,R10) (@SCOMDO-72,R12)
0Loc    Object Code    Addr1 Addr2  Stmt Lv Lineno    Source Statement           (Hibal 5, Asmedit 3.3)  HLASM R4.0  2004/03/22 09.40
+___    ______ ____    _____ _____  ____ __ ______    ______ _________
00045F8 5E10 3000            00000 45965  1 5452.                AL    RS,@RB                  Area length
 USING  @MEMFREE-72,R13            45966  1 5453.                MEMFREE (RS),A=(RB),TYPE=GLOBAL
 0045FC D709 D048 D048 00000 00000 45985  1          +
 004602 5010 D04C            00004 45986  1          +
 004606 5030 D048            00000 45987  1          +
 00460A 9212 D051      00009       45997  1          +
 00460E 58F0 A16C/0DEF       046FC 46000  1          +
 004614                            46002  1 5454.                CLEAR PATHPINP
 004614 D703 5050 5050 00050 00050 46008  1          +
 00461A                            46009    5455.              END
                                   46013    5456.     *
                                   46014    5457.     *  If Path open failed - release PATH block
                                   46015    5458.     *
 00461A 1222/4780 A0A0       04630 46016    5459.              IF    (RA,NZ),BEGIN
 DROP   @MEMFREE-72,R13            46030  1 5460.                PSET  @SCOMDB
 USING  @SCOMDB-72,R13
 004620 D703 D048 D048 00000 00000 46050  1          +
 004626 5050 D048            00000 46051  1 5461.                ST    RK,@SCOMSDB             PATH ID
 00462A 58F0 A170/0DEF       04700 46052  1 5462.                ACALL SCOMCLS                 RELEASE PATH BLOCK
 004630                            46059    5463.              END   ,
 004630 1802                       46063    5464.              LR    RVR,RA                  CONDITION CODE
 004632 981F C008            00008 46064    5465.              PEND
 DROP   SDB,R5
 DROP   SCSTWORK,R7
 DROP   $SCMIMSG,R4
 DROP   @SCOMDO-72,R12
 DROP   SCOMOPEN,R10
 004636 9680 C000/0B0E 00000       46094             +
 DROP   @SCOMDB-72,R13
1IOSERV   (IOSE00) (09:40) (22MAR04) ORVYL'S Hiperspace Subtask                                                             Page  240
0Loc    Object Code    Addr1 Addr2  Stmt Lv Lineno    Source Statement           (Hibal 5, Asmedit 3.3)  HLASM R4.0  2004/03/22 09.40
+___    ______ ____    _____ _____  ____ __ ______    ______ _________
0                                  46104    5467.     *******************************************************************
                                   46105    5468.     *                                                                 *
                                   46106    5469.     *   SCOMFLG  - SUZAN Path post flag routine                       *
                                   46107    5470.     *                                                                 *
                                   46108    5471.     *                                                                 *
                                   46109    5472.     *     Input -  @SCOMDB                                            *
                                   46110    5473.     *                                                                 *
                                   46111    5474.     *    Output -  RVR contains path post flags from SDBPFL           *
                                   46112    5475.     *                                                                 *
                                   46113    5476.     *                                                                 *
                                   46114    5477.     *******************************************************************
-
 00463C                            46116    5479.     SCOMFLG  PROC  @SCOMDB,SCOPE=LOCAL
 00463C E2C3D6D4C6D3C740           46121             +
 004644 0008/0000                  46122             +
 004648 900F D004/18AF       00004 46124             +
 USING  SCOMFLG,R10
 00464E 50D0 C000/18CD       00000 46139             +
 004654 9680 C000      00000       46141             +
 USING  @SCOMDB-72,R12
 004658 41D0 C050            00050 46155             +
 00465C 5860 C048            00000 46156    5480.              L     RX,@SCOMSDB             PATH BLOCK
 USING  SDB,R6                     46157    5481.              WITH  (SDB,RX)
 004660 41F0 0001            00001 46170    5482.              LA    R15,1
 004664 13EF                       46171    5483.              LCR   R14,R15
 004666 89F0 0003            00003 46172    5484.              SLL   R15,3-((SDBPFL-SDB)-(((SDBPFL-SDB)/4)*4))
 00466A 44F0 A0D0            04718 46173    5485.              EX    R15,'ICM  R14,0,=X"00"'
 004718 BFE0 A0C4            0470C 46181             +
 00466E 58F0 601C            0001C 46189    5486.              L     R15,SDB+((SDBPFL-SDB)/4*4)
 004672                            46190    5487.              LOOP  BEGIN
 004672 181F                       46196  1 5488.                LR    RS,R15
 004674 141E                       46197  1 5489.                NR    RS,R14
 004676 BAF1 601C            0001C 46198  1 5490.                CS    R15,RS,SDB+((SDBPFL-SDB)/4*4)
 00467A 4770 A02A            04672 46199    5491.              UNTIL Z,END
 00467E 88F0 0018            00018 46218    5492.              SRL   R15,8*(3-((SDBPFL-SDB)-(((SDBPFL-SDB)/4)*4)))
 004682 4100 00FF            000FF 46219    5493.              LA    RVR,255
 004686 140F                       46220    5494.              NR    RVR,R15                 RETURN CLEARED FLAGS
 004688 981F C008            00008 46221    5495.              PEND
 DROP   SDB,R6
 DROP   @SCOMDB-72,R12
 DROP   SCOMFLG,R10
 00468C 9680 C000/0B0E 00000       46241             +
1IOSERV   (IOSE00) (09:40) (22MAR04) ORVYL'S Hiperspace Subtask                                                             Page  241
0Loc    Object Code    Addr1 Addr2  Stmt Lv Lineno    Source Statement           (Hibal 5, Asmedit 3.3)  HLASM R4.0  2004/03/22 09.40
+___    ______ ____    _____ _____  ____ __ ______    ______ _________
0                                  46248    5497.     *******************************************************************
                                   46249    5498.     *                                                                 *
                                   46250    5499.     *   SCOMNTFY - SUZAN Path notify routine                          *
                                   46251    5500.     *                                                                 *
                                   46252    5501.     *                                                                 *
                                   46253    5502.     *     Input -  @SCOMDB                                            *
                                   46254    5503.     *              Path notify lock held                              *
                                   46255    5504.     *                                                                 *
                                   46256    5505.     *    Output -  None                                               *
                                   46257    5506.     *                                                                 *
                                   46258    5507.     *                                                                 *
                                   46259    5508.     *******************************************************************
-
 004692                            46261    5510.     SCOMNTFY PROC  @SCOMDB,SCOPE=LOCAL
 004692 E2C3D6D4D5E3C6E8           46266             +
 00469A 0008/0000                  46267             +
 00469E 900F D004/18AF       00004 46269             +
 USING  SCOMNTFY,R10
 0046A4 50D0 C000/18CD       00000 46284             +
 0046AA 9680 C000      00000       46286             +
 USING  @SCOMDB-72,R12
 0046AE 41D0 C050            00050 46300             +
 0046B2 5860 C048            00000 46301    5511.              L     RX,@SCOMSDB             PATH BLOCK
 USING  SDB,R6                     46302    5512.              WITH  (SDB,RX)
 0046B6 98EF 6008            00008 46315    5513.              LM    R14,R15,SDBFP           FORWARD AND BACKWARD POINTERS
 0046BA 50F0 E00C            0000C 46316    5514.              WITH  (SDB,R14),'ST  R15,SDBBP'  NEXT POINTS TO PREV
 USING  SDB,R14
 DROP   SDB,R14
 0046BE 50E0 F008            00008 46340    5515.              WITH  (SDB,R15),'ST  R14,SDBFP'  PREV POINTS TO NEXT
 USING  SDB,R15
 DROP   SDB,R15
 0046C2                            46364    5516.              CLEAR (SDBFP,8)               ZERO POINTERS
 0046C2 D707 6008 6008 00008 00008 46370             +
 0046C8 947F 601D      0001D       46371    5517.              CLEAR SDBFNTFY                TAKEN OFF THE NOTIFY QUEUE
                                   46378    5518.     *
                                   46379    5519.     *  GET POST FLAGS
                                   46380    5520.     *
 USING  @SCOMDB-72,R13             46381    5521.              PSET  @SCOMDB,CLEAR=NO
 0046CC 5060 D048            00000 46392    5522.              ST    RX,@SCOMSDB             PATH BLOCK POINTER
 0046D0 58F0 A066/0DEF       04704 46393    5523.              ACALL SCOMFLG                 POST FLAGS RETURNED IN RVR
                                   46400    5524.     *
                                   46401    5525.     *  NOTIFY GUEST MACHINE OF COMPLETION
                                   46402    5526.     *
 DROP   @SCOMDB-72,R13             46403    5527.              PSET  @GSTIIOT
 USING  @GSTIIOT-72,R13
 0046D6 D707 D048 D048 00000 00000 46423             +
 0046DC 5000 D04C            00004 46424    5528.              ST    RVR,@GSTICS             Completion status
 0046E0 D203 D048 6010 00000 00010 46425    5529.              MVC   @GSTIRQI,SDBRQID        Request ID
 0046E6 58F0 A06A/0DEF       04708 46426    5530.              VCALL GSTIIOT                 NOTIFY THE USER
 0046EC 981F C008            00008 46430    5531.              PEND
 DROP   SDB,R6
 DROP   @SCOMDB-72,R12
 DROP   SCOMNTFY,R10
 0046F0 9680 C000/0B0E 00000       46450             +
1IOSERV   (IOSE00) (09:40) (22MAR04) ORVYL'S Hiperspace Subtask                                                             Page  242
0Loc    Object Code    Addr1 Addr2  Stmt Lv Lineno    Source Statement           (Hibal 5, Asmedit 3.3)  HLASM R4.0  2004/03/22 09.40
+___    ______ ____    _____ _____  ____ __ ______    ______ _________
0DROP   @GSTIIOT-72,R13
1IOSERV   (IOSE00) (09:40) (22MAR04) ORVYL'S Hiperspace Subtask                                                             Page  243
0Loc    Object Code    Addr1 Addr2  Stmt Lv Lineno    Source Statement           (Hibal 5, Asmedit 3.3)  HLASM R4.0  2004/03/22 09.40
+___    ______ ____    _____ _____  ____ __ ______    ______ _________
00046F8                            46460    5533.              LTORG
 0046F8 E2C4C240                   46462                             =CL4'SDB'
 0046FC 00000000                   46463                             =V(MEMFREE)
 004700 00002B1A                   46464                             =A(SCOMCLS)
 004704 00004648                   46465                             =A(SCOMFLG)
 004708 00000000                   46466                             =V(GSTIIOT)
 00470C 00             0471C 06A98 46467                             =X'00'
1IOSERV   (IOSE00) (09:40) (22MAR04) ORVYL'S JES I/O Subtask                                                                Page  244
0Loc    Object Code    Addr1 Addr2  Stmt Lv Lineno    Source Statement           (Hibal 5, Asmedit 3.3)  HLASM R4.0  2004/03/22 09.40
+___    ______ ____    _____ _____  ____ __ ______    ______ _________
0                                  46472    5535.     *******************************************************************
                                   46473    5536.     *                                                                 *
                                   46474    5537.     *    JESWORK - JES I/O sub-task work area                         *
                                   46475    5538.     *                                                                 *
                                   46476    5539.     *******************************************************************
0000000                00000 00014 46478    5541.     JESWORK  RECORD BEGIN
 000000                            46486  1 5542.     JESMCHN    DS    A                       MESSAGE CHANNEL ID
 000004                            46487  1 5543.     JESMECB    DS    A                       MESSAGE CHANNEL ECB
 000008                            46488  1 5544.     JESIOCT    DS    A                       IOCT ADDRESS
 00000C                            46489  1 5545.     JESRPL     DS    A                       RPL POINTER
 000010                            46490  1 5546.     JESWBUFF   DS    A                       WRITE BUFFER POINTER
 000014                00014 00014 46491    5547.              END
-
                                   46501    5549.     *******************************************************************
                                   46502    5550.     *                                                                 *
                                   46503    5551.     *      JESMSG - JES I/O Services Message Buffer                   *
                                   46504    5552.     *                                                                 *
                                   46505    5553.     *******************************************************************
0000000                00000 00020 46507    5555.     $JESMSG  RECORD BEGIN
 000000                            46515  1 5556.     $JESJDB    DS    A                       Device ID
 000004                            46516  1 5557.     $JESRQID   DS    A                       Request ID
 000008                            46517  1 5558.     $JESOFF    DS    A                       Offset to convert address
 00000C                            46518  1 5559.     $JESKEY    DS    X                       Protect key
 000010                            46519  1 5560.     $JESPARM   DS    4A                      User parameter area
 000020                00020 00010 46520  1 5561.                ORG   $JESPARM
 000010                            46521  1 5562.                DS    XL(L'#JESOPEN)
 000018                00018 00010 46522  1 5563.                ORG   $JESPARM
 000010                            46523  1 5564.                DS    XL(L'#JESCLOS)
 000014                00014 00010 46524  1 5565.                ORG   $JESPARM
 000010                            46525  1 5566.                DS    XL(L'#JESWRIT)
 000020                00020 00010 46526  1 5567.                ORG   $JESPARM
 000010                            46527  1 5568.                DS    XL(L'#JESOPEN)
 000018                00018 00020 46528  1 5569.                ORG   ,
 000020                00020 00020 46529    5570.              END
1IOSERV   (IOSE00) (09:40) (22MAR04) ORVYL'S JES I/O Subtask                                                                Page  245
0Loc    Object Code    Addr1 Addr2  Stmt Lv Lineno    Source Statement           (Hibal 5, Asmedit 3.3)  HLASM R4.0  2004/03/22 09.40
+___    ______ ____    _____ _____  ____ __ ______    ______ _________
0                                  46539    5572.     *******************************************************************
                                   46540    5573.     *                                                                 *
                                   46541    5574.     *    @JESDO   - Parameters passed to JES drivers                  *
                                   46542    5575.     *                                                                 *
                                   46543    5576.     *******************************************************************
0000000                00000 00008 46545    5578.     @JESDO   RECORD BEGIN
 000000                            46553  1 5579.     @JESDMSG   DS    A                       Message buffer pointer
 000004                            46554  1 5580.     @JESDWRK   DS    A                       Work area pointer
 000008                00008 00008 46555    5581.              END   ,
-
                                   46565    5583.     *******************************************************************
                                   46566    5584.     *                                                                 *
                                   46567    5585.     *    @JESCLS  - Parameters for JES close routine                  *
                                   46568    5586.     *                                                                 *
                                   46569    5587.     *******************************************************************
0000000                00000 00004 46571    5589.     @JESCLS  RECORD BEGIN
 000000                            46579  1 5590.     @JESCJDB   DS    A                       JES device block pointer
 000004                00004 00004 46580    5591.              END   ,
-
                                   46590    5593.     *******************************************************************
                                   46591    5594.     *                                                                 *
                                   46592    5595.     *    FUNCTION TABLE                                               *
                                   46593    5596.     *                                                                 *
                                   46594    5597.     *******************************************************************
0005090                05090 06A98 46596    5599.              DATA  BEGIN
 005090 00000000                   46601  1 5600.     JESFUNC    DC    A(0)
 005094 000048E4                   46602  1 5601.                DC    A(JESOPEN)
 005098 00004AC0                   46603  1 5602.                DC    A(JESCLOSE)
 00509C 00004C6C                   46604  1 5603.                DC    A(JESWRITE)
 0050A0 00004DB0                   46605  1 5604.                DC    A(JESJBEND)
                                   46606  1 5605.     JESFMAX    EQU   *-JESFUNC-4             MAXIMUM
 00471C                0471C 06A98 46607    5606.              END   ,
1IOSERV   (IOSE00) (09:40) (22MAR04) ORVYL'S JES I/O Subtask                                                                Page  246
0Loc    Object Code    Addr1 Addr2  Stmt Lv Lineno    Source Statement           (Hibal 5, Asmedit 3.3)  HLASM R4.0  2004/03/22 09.40
+___    ______ ____    _____ _____  ____ __ ______    ______ _________
0                                  46614    5608.     *******************************************************************
                                   46615    5609.     *                                                                 *
                                   46616    5610.     *   JESIOTSK - JES I/O service sub-task                           *
                                   46617    5611.     *                                                                 *
                                   46618    5612.     *                                                                 *
                                   46619    5613.     *     Input -  None                                               *
                                   46620    5614.     *                                                                 *
                                   46621    5615.     *    Output -  None                                               *
                                   46622    5616.     *                                                                 *
                                   46623    5617.     *                                                                 *
                                   46624    5618.     *******************************************************************
-
 00471C                            46626    5620.     JESIOTSK PROC  SBTPARM,SCOPE=LOCAL
 00471C D1C5E2C9D6E3E2D2           46631             +
 004724 0008/0000                  46632             +
 004728 900F D004/18AF       00004 46634             +
 USING  JESIOTSK,R10
 00472E 50D0 C000/18CD       00000 46649             +
 004734 9680 C000      00000       46651             +
 USING  SBTPARM-72,R12
 004738 41D0 C050            00050 46665             +
 USING  @MEMGET-72,R13             46666    5621.              MEMGET L'JESWORK,TYPE=LOCAL   GET WORK AREA
 00473C D709 D048 D048 00000 00000 46685             +
 004742 4100 0014            00014 46692             +
 004746 5000 D04C            00004 46693             +
 00474A 9211 D051      00009       46703             +
 00474E 58F0 A910/0DEF       05038 46706             +
 004754 1270/4770 A042       0476A 46708    5622.              IF    ('LTR RY,RVR',Z),'KAPUT JESWORK'
 00475A 4110 0001            00001 46724  1 03-KAPUT +*,THIS FUNCTION IS NOT IMPLEMENTED
 00475E 4100 0080            00080 46730  1          +
 004762 8900 0018/1610       00018 46731  1          +
 004768 0A0D                       46733             +
 USING  JESWORK,R7                 46738    5623.              WITH  (JESWORK,RY)
 00476A D203 7008 C048 00008 00000 46751    5624.              MVC   JESIOCT,SBTDATA         IOCT pointer
 DROP   @MEMGET-72,R13             46752    5625.              MSGATT JESIOTSK,TYPE=SERV     Open channel
 USING  @MSGATT-72,R13
 004770 D207 D048 A900 00000 05028 46767             +
 004776 58F0 A914/0DEF       0503C 46770             +
 00477C 5000 7000            00000 46772    5626.              ST    RVR,JESMCHN             MESSAGE CHANNEL ID
 004780 5810 D050            00008 46773    5627.              L     RS,@MSGCECB             MESSAGE ECB
 004784 5010 7004            00004 46774    5628.              ST    RS,JESMECB              SET POINTER
1IOSERV   (IOSE00) (09:40) (22MAR04) ORVYL'S JES I/O Subtask                                                                Page  247
0Current Usings:  (JESWORK,R7) (JESIOTSK,R10) (SBTPARM-72,R12) (@MSGATT-72,R13)
0Loc    Object Code    Addr1 Addr2  Stmt Lv Lineno    Source Statement           (Hibal 5, Asmedit 3.3)  HLASM R4.0  2004/03/22 09.40
+___    ______ ____    _____ _____  ____ __ ______    ______ _________
0                                  46776    5630.     *
                                   46777    5631.     *  CREATE RPL
                                   46778    5632.     *
 DROP   @MSGATT-72,R13             46779    5633.              MEMGET RPLSIZE,TYPE=BELOW16M   FIRST GET
 USING  @MEMGET-72,R13
 004788 D709 D048 D048 00000 00000 46801             +
 00478E 4100 004C            0004C 46808             +
 004792 5000 D04C            00004 46809             +
 004796 9201 D051      00009       46816             +
 00479A 58F0 A910/0DEF       05038 46819             +
 0047A0 1820                       46821    5634.              LR    RA,RVR                   RPL AREA
 0047A2 5020 700C            0000C 46822    5635.              ST    RA,JESRPL               SET POINTER
 0047A6                            46823    5636.              MEMGET GENRPL,TYPE=BELOW16M    THEN GET SOME
 0047A6 D709 D048 D048 00000 00000 46835             +
 0047AC 4100 0024            00024 46842             +
 0047B0 5000 D04C            00004 46843             +
 0047B4 9201 D051      00009       46850             +
 0047B8 58F0 A910/0DEF       05038 46853             +
 0047BE 1830                       46855    5637.              LR    RB,RVR                    WORK AREA
                                   46857    5639.   C          GENCB BLK=RPL,OPTCD=(ADR,SEQ,SYN,NUP,MVE),WAREA=(RA),
                                            5640.                    LENGTH=RPLSIZE,MF=(G,(RB),GENRPL)
                                   46890    02-IDACB +GENRPL   EQU   36                      LENGTH OF PARM LIST AREA USED
 0047C0                            46891    02-IDACB +         CNOP  0,4
 0047C0 45F0 A0B8            047E0 46892    02-IDACB +         BAL   15,*+32                 BRANCH OVER CONSTANTS
 0047C4 C0                         46893    02-IDACB +         DC    AL1(192)                BLOCK TYPE CODE
 0047C5 01                         46894    02-IDACB +         DC    AL1(1)                  FUNCTION TYPE CODE
 0047C6 0001                       46895    02-IDACB +         DC    AL2(1)                       HEADER FIELD VALUE
 0047C8 00000000                   46896    02-IDACB +         DC    AL4(0)                   HEADER FIELD VALUE
 0047CC 004C                       46897    02-IDACB +         DC    AL2(RPLSIZE)                 HEADER FIELD VALUE
 0047CE 00                         46898    02-IDACB +         DC    B'00000000'              GENCB FLAGS                @L9A
 0047CF 00                         46899    02-IDACB +         DC    AL1(0)                   RESERVED                   @L9A
 0047D0 0034                       46900    02-IDACB +         DC    AL2(52)                    ELEMENT ID
 0047D2 0002                       46901    02-IDACB +         DC    AL2(2)                  BIT STRING LENGTH         X03004
 0047D4 52810000                   46902    02-IDACBC+         DC    B'01010010100000010000000000000000'
                                                     +                                       ELEMENT VALUE
 0047D8 00000000                   46903    02-IDACBC+         DC    B'00000000000000000000000000000000'
                                                     +                                       ELEMENT VALUE             X03004
 0047DC 00000000                   46904    02-IDACBC+         DC    B'00000000000000000000000000000000'
                                                     +                                       ELEMENT VALUE             X03004
 0047E0 1813                       46907    02-IDACB +         LR    1,RB                    POINT TO PARAMETER LIST AREA
 0047E2 D21B 1008 F000 00008 00000 46908    02-IDACB +         MVC   8(28,1),0(15)           MOVE ACES TO AREA
 0047E8 41F0 1008            00008 46909    02-IDACB +         LA    15,8(,1)                POINT TO HEADER ACE
 0047EC 50F0 1000            00000 46910    02-IDACB +         ST    15,0(,1)                STORE ADDRESS IN PARAMETER LIST
 0047F0 41F0 1014            00014 46911    02-IDACB +         LA    15,20(,1)               POINT TO ELEMENT ACE
 0047F4 50F0 1004            00004 46912    02-IDACB +         ST    15,4(,1)                STORE ADDRESS IN PARAMETER LIST
 0047F8 9680 1004      00004       46913    02-IDACB +         OI    4(1),X'80'              MARK END OF PARAMETER LIST
 0047FC 5020 100C            0000C 46914    02-IDACB +         ST    RA,12(,1)               STORE VALUE IN HEADER
 004800 58F0 0010            00010 46915    02-IDACB +IDA17225B    L     15,16                  POINT TO CVT         X03004HS
 004804 58F0 F100            00100 46916    02-IDACB +         L     15,256(,15)             POINT TO AMCBS
 004808 58F0 F00C            0000C 46917    02-IDACB +         L     15,12(,15)              POINT TO CB MANIPULATION ROUTINE
 00480C 45E0 F00C            0000C 46918    02-IDACB +         BAL   14,12(,15)              BRANCH TO ROUTINE       @Z40BHCJ
 DROP   @MEMGET-72,R13             46920    5642.              MEMFREE GENRPL,A=(RB),TYPE=BELOW16M    RELEASE WORK AREA
 USING  @MEMFREE-72,R13
 004810 D709 D048 D048 00000 00000 46942             +
1IOSERV   (IOSE00) (09:40) (22MAR04) ORVYL'S JES I/O Subtask                                                                Page  248
0Current Usings:  (JESWORK,R7) (JESIOTSK,R10) (SBTPARM-72,R12) (@MEMFREE-72,R13)
0Loc    Object Code    Addr1 Addr2  Stmt Lv Lineno    Source Statement           (Hibal 5, Asmedit 3.3)  HLASM R4.0  2004/03/22 09.40
+___    ______ ____    _____ _____  ____ __ ______    ______ _________
0004816 4100 0024            00024 46949             +
 00481A 5000 D04C            00004 46950             +
 00481E 5030 D048            00000 46951             +
 004822 58F0 A918/0DEF       05040 46954             +
                                   46956    5643.     *
                                   46957    5644.     *  JES I/O TASK LOOP
                                   46958    5645.     *
 004828                            46959    5646.              LOOP  BEGIN
 DROP   @MEMFREE-72,R13            46965  1 5647.                FWAIT JESMECB                 FAST WAIT (BRANCH ENTRY)
 USING  @FWAIT-72,R13
 004828 D703 D048 D048 00000 00000 46986  1          +
 00482E 58E0 7004            00004 46990  1          +
 004832 50E0 D048            00000 46991  1          +
 004836 58F0 A91C/0DEF       05044 46994  1          +
 00483C 5810 7004            00004 46996  1 5648.                L     RS,JESMECB              ECB POINTER
 004840                            46997  1 5649.                CLEAR (@RS,4)                 CLEAR IT
 004840 D703 1000 1000 00000 00000 47003  1          +
 004846 5800 7000            00000 47004  1 5650.                MSGRECV JESMCHN               RECEIVE A MESSAGE
 DROP   @FWAIT-72,R13
 USING  @MSGRECV-72,R13
 00484A 5000 D048            00000 47023  1          +
 00484E 58F0 A920/0DEF       05048 47026  1          +
 004854 1240/4780 A100       04828 47028  1 5651.                IF    ('LTR  RJ,RVR',Z),NEXT   NO MORE TO GET
 USING  $JESMSG,R4                 47044  1 5652.                WITH  ($JESMSG,RJ)
 DROP   @MSGRECV-72,R13            47057  1 5653.                PSET  @JESDO
 USING  @JESDO-72,R13
 00485A D707 D048 D048 00000 00000 47077  1          +
 004860 5040 D048            00000 47078  1 5654.                ST    RJ,@JESDMSG             PASS MESSAGE POINTER
 004864 5070 D04C            00004 47079  1 5655.                ST    RY,@JESDWRK              AND WORK AREA POINTER
 AUSING (#JESCOM,$JESPARM)         47080  1 5656.                WITH  (#JESCOM,$JESPARM)
 004868 5810 4010            00000 47087  1 5657.                L     RS,#JESCMD              FUNCTION CODE
 00486C 1211/4770 A15A       04882 47088  1 5658.                IF    (RS,Z),'KAPUT JESFUNZ'
 004872 4110 0001            00001 47105  2 03-KAPUT +*,THIS FUNCTION IS NOT IMPLEMENTED
 004876 4100 0080            00080 47111  2          +
 00487A 8900 0018/1610       00018 47112  2          +
 004880 0A0D                       47114  1          +
 004882 5910 A924            0504C 47119  1 5659.                IF    (RS,GT,JESFMAX),'KAPUT JESFUNHI'
 004886 47D0 A172            0489A 47131  1          +
 00488A 4110 0001            00001 47144  2          +
 00488E 4100 0080            00080 47145  2          +
 004892 8900 0018/1610       00018 47146  2          +
 004898 0A0D                       47148  1          +
 00489A 58F1 A968/0DEF       05090 47153  1 5660.                ACALL JESFUNC(RS)             FUNCTION ROUTINE
                                   47160  1 5661.     *                                      RETURN CODE IS IN RVR
1IOSERV   (IOSE00) (09:40) (22MAR04) ORVYL'S JES I/O Subtask                                                                Page  249
0Current Usings:  ($JESMSG,R4) (JESWORK,R7) (JESIOTSK,R10) (SBTPARM-72,R12) (@JESDO-72,R13)
0Loc    Object Code    Addr1 Addr2  Stmt Lv Lineno    Source Statement           (Hibal 5, Asmedit 3.3)  HLASM R4.0  2004/03/22 09.40
+___    ______ ____    _____ _____  ____ __ ______    ______ _________
0                                  47162  1 5663.     *
                                   47163  1 5664.     *  NOTIFY GUEST MACHINE OF COMPLETION
                                   47164  1 5665.     *
 DROP   @JESDO-72,R13              47165  1 5666.                PSET  @GSTIIOT
 USING  @GSTIIOT-72,R13
 0048A0 D707 D048 D048 00000 00000 47185  1          +
 0048A6 5000 D04C            00004 47186  1 5667.                ST    RVR,@GSTICS             Completion status
 0048AA D203 D048 4004 00000 00004 47187  1 5668.                MVC   @GSTIRQI,$JESRQID       Request ID
 0048B0 58F0 A928/0DEF       05050 47188  1 5669.                VCALL GSTIIOT                 NOTIFY THE USER
                                   47192  1 5670.     *
                                   47193  1 5671.     *  FREE THE MESSAGE BUFFER
                                   47194  1 5672.     *
 0048B6 5800 7000            00000 47195  1 5673.                MSGFREE JESMCHN,(RJ)          FREE MESSAGE BUFFER
 DROP   @GSTIIOT-72,R13
 USING  @MSGFREE-72,R13
 0048BA 5000 D048/1804       00000 47214  1          +
 0048C0 5000 D04C            00004 47219  1          +
 0048C4 58F0 A92C/0DEF       05054 47222  1          +
 0048CA 47F0 A100            04828 47224    5674.              END
 DROP   $JESMSG,R4
 0048CE 981F C008            00008 47234    5675.              PEND
 DROP   JESWORK,R7
 DROP   SBTPARM-72,R12
 DROP   JESIOTSK,R10
 0048D2 9680 C000/0B0E 00000       47254             +
 DROP   @MSGFREE-72,R13
1IOSERV   (IOSE00) (09:40) (22MAR04) ORVYL'S JES I/O Subtask                                                                Page  250
0Loc    Object Code    Addr1 Addr2  Stmt Lv Lineno    Source Statement           (Hibal 5, Asmedit 3.3)  HLASM R4.0  2004/03/22 09.40
+___    ______ ____    _____ _____  ____ __ ______    ______ _________
0                                  47264    5677.     *******************************************************************
                                   47265    5678.     *                                                                 *
                                   47266    5679.     *    JESOPEN - Open JES data sets                                 *
                                   47267    5680.     *                                                                 *
                                   47268    5681.     *                                                                 *
                                   47269    5682.     *     Input -  @JESDO                                             *
                                   47270    5683.     *                                                                 *
                                   47271    5684.     *    Output -  Return code in RVR                                 *
                                   47272    5685.     *                                                                 *
                                   47273    5686.     *                                                                 *
                                   47274    5687.     *******************************************************************
-
 0048D8                            47276    5689.     JESOPEN  PROC  @JESDO,SCOPE=LOCAL
 0048D8 D1C5E2D6D7C5D540           47281             +
 0048E0 0008/0000                  47282             +
 0048E4 900F D004/18AF       00004 47284             +
 USING  JESOPEN,R10
 0048EA 50D0 C000/18CD       00000 47299             +
 0048F0 9680 C000      00000       47301             +
 USING  @JESDO-72,R12
 0048F4 41D0 C050            00050 47315             +
 0048F8 5840 C048            00000 47316    5690.              L     RJ,@JESDMSG             Message
 USING  $JESMSG,R4                 47317    5691.              WITH  ($JESMSG,RJ)
 AUSING (#JESOPEN,$JESPARM)        47330    5692.              WITH  (#JESOPEN,$JESPARM)
 0048FC 5850 4000            00000 47337    5693.              L     RK,$JESJDB              JDB POINTER
 USING  JDB,R5                     47338    5694.              WITH  (JDB,RK)
 AUSING (COMDB,JDB)                47351    5695.              WITH  (COMDB,JDB),'CLC  COMDBID,=CL4"JDB"'    Validate
 004900 D503 5000 A774 00000 05058 47362             +
 004906 4780 A036            0491A 47366    5696.              IF    NE,'KAPUT JDBPTR'
 00490A 4110 0001            00001 47385  1          +
 00490E 4100 0080            00080 47386  1          +
 004912 8900 0018/1610       00018 47387  1          +
 004918 0A0D                       47389             +
                                   47394    5697.     *
                                   47395    5698.     *  FIRST DO ALLOCATE
                                   47396    5699.     *
 USING  @JSDALLO-72,R13            47397    5700.              PSET  @JSDALLO
 00491A D703 D048 D048 00000 00000 47414             +
 004920 5810 4014            00004 47415    5701.              L     RS,#JESALLO             Pointer to allocation parms
 004924 5E10 4008            00008 47416    5702.              AL    RS,$JESOFF               Convert to MVS virtual
 004928 5010 D048            00000 47417    5703.              ST    RS,@JSDPARM
 00492C 58F0 A778/0DEF       0505C 47418    5704.              ACALL JSALLO                  Go do allocate
 USING  @JSALLO,R1                 47425    5705.              WITH  (@JSALLO,RS),'MVC  JDBDDNAM,@JSDDNM'  GET DDNAME
 004932 D207 5010 1000 00010 00000 47440             +
 DROP   @JSALLO,R1
1IOSERV   (IOSE00) (09:40) (22MAR04) ORVYL'S JES I/O Subtask                                                                Page  251
0Current Usings:  ($JESMSG,R4) (JDB,R5) (JESOPEN,R10) (@JESDO-72,R12) (@JSDALLO-72,R13)
0Loc    Object Code    Addr1 Addr2  Stmt Lv Lineno    Source Statement           (Hibal 5, Asmedit 3.3)  HLASM R4.0  2004/03/22 09.40
+___    ______ ____    _____ _____  ____ __ ______    ______ _________
0                                  47450    5707.     *
                                   47451    5708.     *  ALLOCATE WAS SUCCESSFUL - CREATE ACB
                                   47452    5709.     *
 004938 1260/4770 A1AE       04A92 47453    5710.              IF    ('LTR RX,RVR',Z),BEGIN
 DROP   @JSDALLO-72,R13            47466  1 5711.                MEMGET ACBSIZE,TYPE=BELOW16M  GET ACB AREA
 USING  @MEMGET-72,R13
 00493E D709 D048 D048 00000 00000 47488  1          +
 004944 4100 004C            0004C 47495  1          +
 004948 5000 D04C            00004 47496  1          +
 00494C 9201 D051      00009       47503  1          +
 004950 58F0 A754/0DEF       05038 47506  1          +
 004956 1830                       47508  1 5712.                LR    RB,RVR
 004958 5030 500C            0000C 47509  1 5713.                ST    RB,JDBACB               SAVE ACB POINTER
 00495C                            47510  1 5714.                MEMGET GENACB,TYPE=BELOW16M
 00495C D709 D048 D048 00000 00000 47522  1          +
 004962 4100 0030            00030 47529  1          +
 004966 5000 D04C            00004 47530  1          +
 00496A 9201 D051      00009       47537  1          +
 00496E 58F0 A754/0DEF       05038 47540  1          +
 004974 1820                       47542  1 5715.                LR    RA,RVR
                                   47544  1 5717.   C            GENCB BLK=ACB,MACRF=(ADR,OUT,AMODE31),LENGTH=ACBSIZE,
                                          1 5718.                      WAREA=(RB),DDNAME=(*,JDBDDNAM),MF=(G,(RA),GENACB)
                                   47562  1 02-IDACB +GENACB     EQU   48                      LENGTH OF PARM LIST AREA USED
 004976 0700                       47563  1 02-IDACB +           CNOP  0,4
 004978 45F0 A0BC            049A0 47564  1 02-IDACB +           BAL   15,*+40                 BRANCH OVER CONSTANTS
 00497C A0                         47565  1 02-IDACB +           DC    AL1(160)                BLOCK TYPE CODE
 00497D 01                         47566  1 02-IDACB +           DC    AL1(1)                  FUNCTION TYPE CODE
 00497E 0001                       47567  1 02-IDACB +           DC    AL2(1)                       HEADER FIELD VALUE
 004980 00000000                   47568  1 02-IDACB +           DC    AL4(0)                   HEADER FIELD VALUE
 004984 004C                       47569  1 02-IDACB +           DC    AL2(ACBSIZE)                 HEADER FIELD VALUE
 004986 00                         47570  1 02-IDACB +           DC    B'00000000'              GENCB FLAGS                @L9A
 004987 00                         47571  1 02-IDACB +           DC    AL1(0)                   RESERVED                   @L9A
 004988 0009                       47572  1 02-IDACB +           DC    AL2(9)                     ELEMENT ID
 00498A 0000                       47573  1 02-IDACB +           DC    AL2(0)                  RESERVED                    @LQC
 00498C 00000000                   47574  1 02-IDACB +           DC    A(0)                    ELEMENT VALUE TO BE MODIFIED
 004990 00000000                   47575  1 02-IDACB +           DC    A(0)                    REMAINDER OF ELEMENT FIELD
 004994 0012                       47576  1 02-IDACB +           DC    AL2(18)                    ELEMENT ID
 004996 0001                       47577  1 02-IDACB +           DC    AL2(1)                  BIT STRING LENGTH           @LQA
 004998 41080000                   47578  1 02-IDACBC+           DC    B'01000001000010000000000000000000'
                                          1          +                                         ELEMENT VALUE
 00499C 00000000                   47579  1 02-IDACBC+           DC    B'00000000000000000000000000000000'
                                          1          +                                         ELEMENT VALUE               @LQA
 0049A0 1812                       47582  1 02-IDACB +           LR    1,RA                    POINT TO PARAMETER LIST AREA
 0049A2 D223 100C F000 0000C 00000 47583  1 02-IDACB +           MVC   12(36,1),0(15)          MOVE ACES TO AREA
 0049A8 41F0 100C            0000C 47584  1 02-IDACB +           LA    15,12(,1)               POINT TO HEADER ACE
 0049AC 50F0 1000            00000 47585  1 02-IDACB +           ST    15,0(,1)                STORE ADDRESS IN PARAMETER LIST
 0049B0 41F0 1018            00018 47586  1 02-IDACB +           LA    15,24(,1)               POINT TO ELEMENT ACE
 0049B4 50F0 1004            00004 47587  1 02-IDACB +           ST    15,4(,1)                STORE ADDRESS IN PARAMETER LIST
 0049B8 41F0 1024            00024 47588  1 02-IDACB +           LA    15,36(,1)               POINT TO ELEMENT ACE
 0049BC 50F0 1008            00008 47589  1 02-IDACB +           ST    15,8(,1)                STORE ADDRESS IN PARAMETER LIST
 0049C0 9680 1008      00008       47590  1 02-IDACB +           OI    8(1),X'80'              MARK END OF PARAMETER LIST
 0049C4 5030 1010            00010 47591  1 02-IDACB +           ST    RB,16(,1)               STORE VALUE IN HEADER
 0049C8 41F0                       47592  1 02-IDACB +           DC    X'41F0'                 LOAD POINTER TO VALUE
 0049CA 5010                       47593  1 02-IDACB +           DC    S(JDBDDNAM)
1IOSERV   (IOSE00) (09:40) (22MAR04) ORVYL'S JES I/O Subtask                                                                Page  252
0Current Usings:  ($JESMSG,R4) (JDB,R5) (JESOPEN,R10) (@JESDO-72,R12) (@MEMGET-72,R13)
0Loc    Object Code    Addr1 Addr2  Stmt Lv Lineno    Source Statement           (Hibal 5, Asmedit 3.3)  HLASM R4.0  2004/03/22 09.40
+___    ______ ____    _____ _____  ____ __ ______    ______ _________
00049CC D207 101C F000 0001C 00000 47594  1 02-IDACB +           MVC   28(8,1),0(15)           MOVE VALUE TO ELEMENT
 0049D2 58F0 0010            00010 47595  1 02-IDACB +IDA17653B      L     15,16                  POINT TO CVT         X03004HS
 0049D6 58F0 F100            00100 47596  1 02-IDACB +           L     15,256(,15)             POINT TO AMCBS
 0049DA 58F0 F00C            0000C 47597  1 02-IDACB +           L     15,12(,15)              POINT TO CB MANIPULATION ROUTINE
 0049DE 45E0 F008            00008 47598  1 02-IDACB +           BAL   14,8(,15)               BRANCH TO ROUTINE       @Z40BHCJ
 0049E2 12FF/4780 A114       049F8 47600  1 5720.                IF    (R15,NZ),'KAPUT GENACB'
 0049E8 4110 0001            00001 47617  2 03-KAPUT +*,THIS FUNCTION IS NOT IMPLEMENTED
 0049EC 4100 0080            00080 47623  2          +
 0049F0 8900 0018/1610       00018 47624  2          +
 0049F6 0A0D                       47626  1          +
 DROP   @MEMGET-72,R13             47631  1 5721.                MEMFREE GENACB,A=(RA),TYPE=BELOW16M
 USING  @MEMFREE-72,R13
 0049F8 D709 D048 D048 00000 00000 47653  1          +
 0049FE 4100 0030            00030 47660  1          +
 004A02 5000 D04C            00004 47661  1          +
 004A06 5020 D048            00000 47662  1          +
 004A0A 58F0 A75C/0DEF       05040 47665  1          +
                                   47667  1 5722.     *
                                   47668  1 5723.     *  SET UP PARAMETER LIST AND DO OPEN
                                   47669  1 5724.     *
 DROP   @MEMFREE-72,R13            47670  1 5725.                MEMGET 4,TYPE=BELOW16M        SET UP
 USING  @MEMGET-72,R13
 004A10 D709 D048 D048 00000 00000 47692  1          +
 004A16 4100 0004            00004 47699  1          +
 004A1A 5000 D04C            00004 47700  1          +
 004A1E 9201 D051      00009       47707  1          +
 004A22 58F0 A754/0DEF       05038 47710  1          +
 004A28 1820                       47712  1 5726.                LR    RA,RVR                   OPEN
 004A2A 5030 2000            00000 47713  1 5727.                ST    RB,@RA                    PARAMETER
 004A2E 9680 2000      00000       47714  1 5728.                OI    @RA,X'80'                  LIST
 004A32 900F D04C            00004 47715  1 5729.                ESTAEON ACBOERR               CATCH ABENDS
 DROP   @MEMGET-72,R13
 USING  @ESTAE-72,R13
 004A36 4100 A170            04A54 47737  1          +
 004A3A 5000 D048            00000 47738  1          +
 004A3E 58F0 A77C/0DEF       05060 47741  1          +
 004A44 1812/0A13                  47743  1 5730.                OPEN  MF=(E,(RA))             DO IT
 004A48 186F                       47747  1 5731.                LR    RX,R15                  RETURN CODE
 004A4A 58F0 A780/0DEF       05064 47748  1 5732.                ESTAEOFF ,                    CLEAR ABEND INTERCEPT
                                   47753  1 5733.     *
                                   47754  1 5734.     *  ESTAE RETRY ROUTINE
                                   47755  1 5735.     *
 004A50                            47756  1 5736.                BEGIN
 004A50 47F0 A172            04A56 47760  2 5737.                  EXIT
 004A54                            47763  2 5738.     ACBOERR      LABEL ,
 004A54 1860                       47765  2 5739.                  LR    RX,RVR                  ESTAE INFO POINTER
 004A56                            47766  1 5740.                END   ,
1IOSERV   (IOSE00) (09:40) (22MAR04) ORVYL'S JES I/O Subtask                                                                Page  253
0Current Usings:  ($JESMSG,R4) (JDB,R5) (JESOPEN,R10) (@JESDO-72,R12) (@ESTAE-72,R13)
0Loc    Object Code    Addr1 Addr2  Stmt Lv Lineno    Source Statement           (Hibal 5, Asmedit 3.3)  HLASM R4.0  2004/03/22 09.40
+___    ______ ____    _____ _____  ____ __ ______    ______ _________
0                                  47771  1 5742.     *
                                   47772  1 5743.     *  FREE THE OPEN PARAMETER LIST
                                   47773  1 5744.     *
 DROP   @ESTAE-72,R13              47774  1 5745.                MEMFREE 4,A=(RA),TYPE=BELOW16M   FREE PARAMETER LIST
 USING  @MEMFREE-72,R13
 004A56 D709 D048 D048 00000 00000 47796  1          +
 004A5C 4100 0004            00004 47803  1          +
 004A60 5000 D04C            00004 47804  1          +
 004A64 5020 D048            00000 47805  1          +
 004A68 58F0 A75C/0DEF       05040 47808  1          +
                                   47810  1 5746.     *
                                   47811  1 5747.     *  IF OPEN FAILED RELEASE THE ACB
                                   47812  1 5748.     *
 004A6E 1266/4780 A1AE       04A92 47813  1 5749.                IF    (RX,NZ),BEGIN
 004A74                            47827  2 5750.                  CLEAR JDBACB                  REMOVE ACB POINTER
 004A74 D703 500C 500C 0000C 0000C 47833  2          +
 004A7A                            47834  2 5751.                  MEMFREE ACBSIZE,A=(RB),TYPE=BELOW16M
 004A7A D709 D048 D048 00000 00000 47846  2          +
 004A80 4100 004C            0004C 47853  2          +
 004A84 5000 D04C            00004 47854  2          +
 004A88 5030 D048            00000 47855  2          +
 004A8C 58F0 A75C/0DEF       05040 47858  2          +
 004A92                            47860  1 5752.                END   ,
 004A92                            47864    5753.              END   ,
                                   47868    5754.     *
                                   47869    5755.     *  IF ALLOCATION OR OPENED FAILED FREE THE JDB
                                   47870    5756.     *
 004A92 1266/4780 A1C4       04AA8 47871    5757.              IF    (RX,NZ),BEGIN
 DROP   @MEMFREE-72,R13            47885  1 5758.                PSET  @JESCLS
 USING  @JESCLS-72,R13
 004A98 D703 D048 D048 00000 00000 47905  1          +
 004A9E 5050 D048            00000 47906  1 5759.                ST    RK,@JESCJDB             JDB POINTER
 004AA2 58F0 A784/0DEF       05068 47907  1 5760.                ACALL JESCLS
 004AA8                            47914    5761.              END   ,
 004AA8 1806                       47918    5762.              LR    RVR,RX                  SET RETURN CODE
 004AAA 981F C008            00008 47919    5763.              PEND
 DROP   JDB,R5
 DROP   $JESMSG,R4
 DROP   @JESDO-72,R12
 DROP   JESOPEN,R10
 004AAE 9680 C000/0B0E 00000       47944             +
 DROP   @JESCLS-72,R13
1IOSERV   (IOSE00) (09:40) (22MAR04) ORVYL'S JES I/O Subtask                                                                Page  254
0Loc    Object Code    Addr1 Addr2  Stmt Lv Lineno    Source Statement           (Hibal 5, Asmedit 3.3)  HLASM R4.0  2004/03/22 09.40
+___    ______ ____    _____ _____  ____ __ ______    ______ _________
0                                  47954    5765.     *******************************************************************
                                   47955    5766.     *                                                                 *
                                   47956    5767.     *    JESCLOSE - Close JES data sets                               *
                                   47957    5768.     *                                                                 *
                                   47958    5769.     *                                                                 *
                                   47959    5770.     *     Input -  @JESDO                                             *
                                   47960    5771.     *                                                                 *
                                   47961    5772.     *    Output -                                                     *
                                   47962    5773.     *                                                                 *
                                   47963    5774.     *                                                                 *
                                   47964    5775.     *******************************************************************
-
 004AB4                            47966    5777.     JESCLOSE PROC  @JESDO,SCOPE=LOCAL
 004AB4 D1C5E2C3D3D6E2C5           47971             +
 004ABC 0008/0000                  47972             +
 004AC0 900F D004/18AF       00004 47974             +
 USING  JESCLOSE,R10
 004AC6 50D0 C000/18CD       00000 47989             +
 004ACC 9680 C000      00000       47991             +
 USING  @JESDO-72,R12
 004AD0 41D0 C050            00050 48005             +
 004AD4 5840 C048            00000 48006    5778.              L     RJ,@JESDMSG             Message
 USING  $JESMSG,R4                 48007    5779.              WITH  ($JESMSG,RJ)
 AUSING (#JESCLOS,$JESPARM)        48020    5780.              WITH  (#JESCLOS,$JESPARM)
 004AD8 5850 4000            00000 48027    5781.              L     RK,$JESJDB              JDB POINTER
 USING  JDB,R5                     48028    5782.              WITH  (JDB,RK)
 AUSING (COMDB,JDB)                48041    5783.              WITH  (COMDB,JDB),'CLC  COMDBID,=CL4"JDB"'    Validate
 004ADC D503 5000 A598 00000 05058 48052             +
 004AE2 4780 A036            04AF6 48056    5784.              IF    NE,'KAPUT JDBPTR'
 004AE6 4110 0001            00001 48075  1          +
 004AEA 4100 0080            00080 48076  1          +
 004AEE 8900 0018/1610       00018 48077  1          +
 004AF4 0A0D                       48079             +
 USING  @JESCLS-72,R13             48084    5785.              PSET  @JESCLS
 004AF6 D703 D048 D048 00000 00000 48101             +
 004AFC 5050 D048            00000 48102    5786.              ST    RK,@JESCJDB             JDB is parm
 004B00 41F0 A05C/0DEF       04B1C 48103    5787.              LCALL JESCLS
 004B06 981F C008            00008 48112    5788.              PEND
 DROP   JDB,R5
 DROP   $JESMSG,R4
 DROP   @JESDO-72,R12
 DROP   JESCLOSE,R10
 004B0A 9680 C000/0B0E 00000       48137             +
 DROP   @JESCLS-72,R13
1IOSERV   (IOSE00) (09:40) (22MAR04) ORVYL'S JES I/O Subtask                                                                Page  255
0Loc    Object Code    Addr1 Addr2  Stmt Lv Lineno    Source Statement           (Hibal 5, Asmedit 3.3)  HLASM R4.0  2004/03/22 09.40
+___    ______ ____    _____ _____  ____ __ ______    ______ _________
0                                  48147    5790.     *******************************************************************
                                   48148    5791.     *                                                                 *
                                   48149    5792.     *    JESCLS - Close a JES device                                  *
                                   48150    5793.     *                                                                 *
                                   48151    5794.     *                                                                 *
                                   48152    5795.     *     Input -  @JESCLS                                            *
                                   48153    5796.     *                                                                 *
                                   48154    5797.     *    Output -                                                     *
                                   48155    5798.     *                                                                 *
                                   48156    5799.     *                                                                 *
                                   48157    5800.     *******************************************************************
-
 004B10                            48159    5802.     JESCLS   PROC  @JESCLS,SCOPE=LOCAL
 004B10 D1C5E2C3D3E24040           48164             +
 004B18 0008/0000                  48165             +
 004B1C 900F D004/18AF       00004 48167             +
 USING  JESCLS,R10
 004B22 50D0 C000/18CD       00000 48182             +
 004B28 9680 C000      00000       48184             +
 USING  @JESCLS-72,R12
 004B2C 41D0 C050            00050 48198             +
 004B30 5850 C048            00000 48199    5803.              L     RK,@JESCJDB             JDB Pointer
 USING  JDB,R5                     48200    5804.              WITH  (JDB,RK)
 AUSING (COMDB,JDB)                48213    5805.              WITH  (COMDB,JDB),BEGIN
 004B34 D503 5000 A53C 00000 05058 48223  1 5806.                CLC   COMDBID,=CL4'JDB'       Validate
 004B3A 4780 A032            04B4E 48224  1 5807.                IF    NE,'KAPUT JDBPTR'
 004B3E 4110 0001            00001 48243  2          +
 004B42 4100 0080            00080 48244  2          +
 004B46 8900 0018/1610       00018 48245  2          +
 004B4C 0A0D                       48247  1          +
 004B4E                            48252  1 5808.                CLEAR (COMDBID,4)             JDB no longer valid
 004B4E D703 5000 5000 00000 00000 48258  1          +
                                   48259    5809.              END   ,
 004B54 5840 500C            0000C 48262    5810.              L     RJ,JDBACB               GET ACB POINTER
1IOSERV   (IOSE00) (09:40) (22MAR04) ORVYL'S JES I/O Subtask                                                                Page  256
0Current Usings:  (JDB,R5) (JESCLS,R10) (@JESCLS-72,R12)
0Loc    Object Code    Addr1 Addr2  Stmt Lv Lineno    Source Statement           (Hibal 5, Asmedit 3.3)  HLASM R4.0  2004/03/22 09.40
+___    ______ ____    _____ _____  ____ __ ______    ______ _________
0                                  48264    5812.     *
                                   48265    5813.     *  SET UP PARAMETER LIST AND CLOSE IT
                                   48266    5814.     *
 004B58 1244/4780 A0B6       04BD2 48267    5815.              IF    (RJ,NZ),BEGIN
 USING  @MEMGET-72,R13             48281  1 5816.                MEMGET 4,TYPE=BELOW16M        SET UP
 004B5E D709 D048 D048 00000 00000 48300  1          +
 004B64 4100 0004            00004 48307  1          +
 004B68 5000 D04C            00004 48308  1          +
 004B6C 9201 D051      00009       48315  1          +
 004B70 58F0 A51C/0DEF       05038 48318  1          +
 004B76 1830                       48320  1 5817.                LR    RB,RVR                   CLOSE
 004B78 5040 3000            00000 48321  1 5818.                ST    RJ,@RB                    PARAMETER
 004B7C 9680 3000      00000       48322  1 5819.                OI    @RB,X'80'                  LIST
 004B80 900F D04C            00004 48323  1 5820.                ESTAEON CLSJERR               CATCH ABENDS
 DROP   @MEMGET-72,R13
 USING  @ESTAE-72,R13
 004B84 4100 A084            04BA0 48345  1          +
 004B88 5000 D048            00000 48346  1          +
 004B8C 58F0 A544/0DEF       05060 48349  1          +
 004B92 1813/0A14                  48351  1 5821.                CLOSE MF=(E,(RB))             DO IT
 004B96 58F0 A548/0DEF       05064 48355  1 5822.                ESTAEOFF ,                    CLEAR ABEND INTERCEPT
                                   48360  1 5823.     *
                                   48361  1 5824.     *  ESTAE RETRY ROUTINE
                                   48362  1 5825.     *
 004B9C                            48363  1 5826.                BEGIN
 004B9C 47F0 A086            04BA2 48367  2 5827.                  EXIT
 004BA0                            48370  2 5828.     CLSJERR      LABEL ,
 004BA0 1820                       48372  2 5829.                  LR    RA,RVR                  ESTAE INFO POINTER
 004BA2                            48373  1 5830.                END   ,
 DROP   @ESTAE-72,R13              48377  1 5831.                MEMFREE 4,A=(RB),TYPE=BELOW16M   FREE PARAMETER LIST
 USING  @MEMFREE-72,R13
 004BA2 D709 D048 D048 00000 00000 48399  1          +
 004BA8 4100 0004            00004 48406  1          +
 004BAC 5000 D04C            00004 48407  1          +
 004BB0 5030 D048            00000 48408  1          +
 004BB4 58F0 A524/0DEF       05040 48411  1          +
                                   48413  1 5832.     *
                                   48414  1 5833.     *  RELEASE ACB
                                   48415  1 5834.     *
 004BBA                            48416  1 5835.                MEMFREE ACBSIZE,A=(RJ),TYPE=BELOW16M
 004BBA D709 D048 D048 00000 00000 48428  1          +
 004BC0 4100 004C            0004C 48435  1          +
 004BC4 5000 D04C            00004 48436  1          +
 004BC8 5040 D048            00000 48437  1          +
 004BCC 58F0 A524/0DEF       05040 48440  1          +
 004BD2                            48442    5836.              END   ,
1IOSERV   (IOSE00) (09:40) (22MAR04) ORVYL'S JES I/O Subtask                                                                Page  257
0Current Usings:  (JDB,R5) (JESCLS,R10) (@JESCLS-72,R12) (@MEMFREE-72,R13)
0Loc    Object Code    Addr1 Addr2  Stmt Lv Lineno    Source Statement           (Hibal 5, Asmedit 3.3)  HLASM R4.0  2004/03/22 09.40
+___    ______ ____    _____ _____  ____ __ ______    ______ _________
0                                  48447    5838.     *
                                   48448    5839.     *  DATA SET NOT OPENED - DEALLOCATE IT
                                   48449    5840.     *
 004BD2 A0BA           04BD2 04B5C 48450    5841.              ELSE  BEGIN
 004BD2 47F0 A0D8            04BF4 48455             +
 004BD6                            48461  1 5842.                IF    (JDBDDNAM,Z),EXIT       ALLOCATION INCOMPLETE
 004BD6 D607 5010 5010 00010 00010 48471  1          +
 004BDC 4780 A0D8            04BF4 48474  1          +
 DROP   @MEMFREE-72,R13            48480  1 5843.                PSET  @DUNALLO
 USING  @DUNALLO-72,R13
 004BE0 D70B D048 D048 00000 00000 48500  1          +
 004BE6 D207 D048 5010 00000 00010 48501  1 5844.                MVC   @DUNDDN,JDBDDNAM        SET DDNAME
 004BEC 58F0 A550/0DEF       0506C 48502  1 5845.                ACALL DUNALLO
 004BF2 1820                       48509  1 5846.                LR    RA,RVR                  Return code
 004BF4                            48510    5847.              END   ,
                                   48514    5848.     *
                                   48515    5849.     *  UNCHAIN JDB
                                   48516    5850.     *
 004BF4 5860 9004            00004 48517    5851.              WITH  (RTCB,RTCBR),'L  RX,RTCBCBAT'   CBAT POINTER
 USING  RTCB,R9
 DROP   RTCB,R9
 004BF8 5860 6054            00054 48541    5852.              WITH  (CBAT,RX),'L  RX,CBATIOCT'      IOCT POINTER
 USING  CBAT,R6
 DROP   CBAT,R6
 USING  IOCT,R6                    48565    5853.              WITH  (IOCT,RX)
 004BFC 5800 6044            00044 48578    5854.              LOCKOB IOCTJDBL               GET JDB CHAIN LOCK
 DROP   @DUNALLO-72,R13
 USING  @LOCKS-72,R13
 004C00 5000 D048            00000 48597             +
 004C04 58F0 A554/0DEF       05070 48600             +
 004C0A 4110 6030            00030 48602    5855.              LA    RS,IOCTJDBS             JDB CHAIN
 004C0E 4B10 A56C            05088 48603    5856.              SH    RS,=Y(JDBCHAIN-JDB)     OFFSET
 004C12                            48604    5857.              LOOP  BEGIN
 DROP   JDB,R5                     48610  1 5858.                WITH  (JDB,RS)
 USING  JDB,R1
 004C12 5950 1008            00008 48631  1 5859.                IF    (RK,EQ,JDBCHAIN),EXIT   FOUND
 004C16 4780 A106            04C22 48645  1          +
 004C1A 5810 1008            00008 48651  1 5860.                L     RS,JDBCHAIN
 004C1E 47F0 A0F6            04C12 48652    5861.              END   ,
 USING  JDB,R5
 DROP   JDB,R1
 004C22 58E0 5008            00008 48671    5862.              L     R14,JDBCHAIN            NEXT IN CHAIN
 004C26 50E0 1008            00008 48672    5863.              WITH  (JDB,RS),'ST  R14,JDBCHAIN'    UPDATE FREE CHAIN
 DROP   JDB,R5
 USING  JDB,R1
 USING  JDB,R5
 DROP   JDB,R1
 004C2A 5800 6044            00044 48713    5864.              LOCKRL IOCTJDBL               RELEASE JDB CHAIN LOCK
 004C2E 5000 D048            00000 48722             +
 004C32 58F0 A558/0DEF       05074 48725             +
1IOSERV   (IOSE00) (09:40) (22MAR04) ORVYL'S JES I/O Subtask                                                                Page  258
0Current Usings:  (JDB,R5) (IOCT,R6) (JESCLS,R10) (@JESCLS-72,R12) (@LOCKS-72,R13)
0Loc    Object Code    Addr1 Addr2  Stmt Lv Lineno    Source Statement           (Hibal 5, Asmedit 3.3)  HLASM R4.0  2004/03/22 09.40
+___    ______ ____    _____ _____  ____ __ ______    ______ _________
0                                  48728    5866.     *
                                   48729    5867.     *  RELEASE JDB THEN RETURN
                                   48730    5868.     *
 DROP   @LOCKS-72,R13              48731    5869.              MEMFREE L'JDB,A=(RK),TYPE=GLOBAL
 USING  @MEMFREE-72,R13
 004C38 D709 D048 D048 00000 00000 48753             +
 004C3E 4100 0018            00018 48760             +
 004C42 5000 D04C            00004 48761             +
 004C46 5050 D048            00000 48762             +
 004C4A 9212 D051      00009       48772             +
 004C4E 58F0 A524/0DEF       05040 48775             +
 004C54 1802                       48777    5870.              LR    RVR,RA                  SET RETURN CODE
 004C56 981F C008            00008 48778    5871.              PEND
 DROP   IOCT,R6
 DROP   JDB,R5
 DROP   @JESCLS-72,R12
 DROP   JESCLS,R10
 004C5A 9680 C000/0B0E 00000       48803             +
 DROP   @MEMFREE-72,R13
1IOSERV   (IOSE00) (09:40) (22MAR04) ORVYL'S JES I/O Subtask                                                                Page  259
0Loc    Object Code    Addr1 Addr2  Stmt Lv Lineno    Source Statement           (Hibal 5, Asmedit 3.3)  HLASM R4.0  2004/03/22 09.40
+___    ______ ____    _____ _____  ____ __ ______    ______ _________
0                                  48813    5873.     *******************************************************************
                                   48814    5874.     *                                                                 *
                                   48815    5875.     *    JESWRITE - Write data to JES                                 *
                                   48816    5876.     *                                                                 *
                                   48817    5877.     *                                                                 *
                                   48818    5878.     *     Input -  @JESDO                                             *
                                   48819    5879.     *                                                                 *
                                   48820    5880.     *    Output -                                                     *
                                   48821    5881.     *                                                                 *
                                   48822    5882.     *                                                                 *
                                   48823    5883.     *******************************************************************
-
 004C60                            48825    5885.     JESWRITE PROC  @JESDO,SCOPE=LOCAL
 004C60 D1C5E2E6D9C9E3C5           48830             +
 004C68 0008/0000                  48831             +
 004C6C 900F D004/18AF       00004 48833             +
 USING  JESWRITE,R10
 004C72 50D0 C000/18CD       00000 48848             +
 004C78 9680 C000      00000       48850             +
 USING  @JESDO-72,R12
 004C7C 41D0 C050            00050 48864             +
 004C80 5840 C048            00000 48865    5886.              L     RJ,@JESDMSG             Message
 USING  $JESMSG,R4                 48866    5887.              WITH  ($JESMSG,RJ)
 004C84 5870 C04C            00004 48879    5888.              L     RY,@JESDWRK             WORK AREA
 USING  JESWORK,R7                 48880    5889.              WITH  (JESWORK,RY)
 AUSING (#JESWRIT,$JESPARM)        48893    5890.              WITH  (#JESWRIT,$JESPARM)
 004C88 5850 4000            00000 48900    5891.              L     RK,$JESJDB              JDB POINTER
 USING  JDB,R5                     48901    5892.              WITH  (JDB,RK)
 AUSING (COMDB,JDB)                48914    5893.              WITH  (COMDB,JDB),'CLC  COMDBID,=CL4"JDB"'    Validate
 004C8C D503 5000 A3EC 00000 05058 48925             +
 004C92 4780 A03A            04CA6 48929    5894.              IF    NE,'KAPUT JDBPTR'
 004C96 4110 0001            00001 48948  1          +
 004C9A 4100 0080            00080 48949  1          +
 004C9E 8900 0018/1610       00018 48950  1          +
 004CA4 0A0D                       48952             +
1IOSERV   (IOSE00) (09:40) (22MAR04) ORVYL'S JES I/O Subtask                                                                Page  260
0Current Usings:  ($JESMSG,R4) (JDB,R5) (JESWORK,R7) (JESWRITE,R10) (@JESDO-72,R12)
0Loc    Object Code    Addr1 Addr2  Stmt Lv Lineno    Source Statement           (Hibal 5, Asmedit 3.3)  HLASM R4.0  2004/03/22 09.40
+___    ______ ____    _____ _____  ____ __ ______    ______ _________
0                                  48958    5896.     *
                                   48959    5897.     *  GET LOCAL BUFFER AND MOVE IN USER DATA
                                   48960    5898.     *
 004CA6 5820 4018            00008 48961    5899.              L     RA,#JESWLEN             TOTAL LENGTH OF DATA
 USING  @MEMGET-72,R13             48962    5900.              MEMGET (RA),TYPE=BELOW16M     GET LOCAL BUFFER
 004CAA D709 D048 D048 00000 00000 48981             +
 004CB0 5020 D04C            00004 48982             +
 004CB4 9201 D051      00009       48989             +
 004CB8 58F0 A3CC/0DEF       05038 48992             +
 004CBE 1820                       48994    5901.              LR    RA,RVR                  BUFFER POINTER
 004CC0 5020 7010            00010 48995    5902.              ST    RA,JESWBUFF             SAVE BUFFER POINTER
 004CC4 5810 4014            00004 48996    5903.              L     RS,#JESWLST             USER BUFFER LIST
 004CC8 5E10 4008            00008 48997    5904.              AL    RS,$JESOFF               TO MVS VIRTUAL
 004CCC 58F0 4018            00008 48998    5905.              L     R15,#JESWLEN            TOTAL LENGTH
 004CD0                            48999    5906.              LOOP  BEGIN
 004CD0 58E0 1000            00000 49005  1 5907.                L     R14,@RS                 ADDRESS OF SEGMENT
 004CD4 5EE0 4008            00008 49006  1 5908.                AL    R14,$JESOFF              TO MVS VIRTUAL
 004CD8 5830 1004            00004 49007  1 5909.                L     RB,@RS+4                LENGTH OF SEGMENT
 004CDC 0E2E                       49008  1 5910.                MVCL  RA,R14                  MOVE THIS SEGMENT
 004CDE 9180 1000      00000       49009  1 5911.                IF    @RS.X'80',EXIT          DONE IF END OF LIST
 004CE2 4710 A082            04CEE 49022  1          +
 004CE6 4110 1008            00008 49028  1 5912.                LA    RS,@RS+8                NEXT LIST ENTRY
 004CEA 47F0 A064            04CD0 49029    5913.              END   ,
                                   49034    5914.     *
                                   49035    5915.     *  LENGTHS DIDN'T MATCH
                                   49036    5916.     *
 004CEE 12FF/4780 A098       04D04 49037    5917.              IF    (R15,NZ),'KAPUT JESWLEN'
 004CF4 4110 0001            00001 49054  1 03-KAPUT +*,THIS FUNCTION IS NOT IMPLEMENTED
 004CF8 4100 0080            00080 49060  1          +
 004CFC 8900 0018/1610       00018 49061  1          +
 004D02 0A0D                       49063             +
                                   49068    5918.     *
                                   49069    5919.     *  SEND RECORDS TO JES
                                   49070    5920.     *
 004D04 5830 7010            00010 49071    5921.              L     RB,JESWBUFF
 004D08 1932/47B0 A110       04D7C 49072    5922.              WHILE (RB,LT,RA),BEGIN
 004D0E 5860 401C            0000C 49089  1 5923.                L     RX,#JESWLRC             LRECL
                                   49090  1 5924.     *
                                   49091  1 5925.     *  VARIABLE LENGTH RECORDS ARE SELF DESCRIBING
                                   49092  1 5926.     *
 004D12 1266/4770 A0B8       04D24 49093  1 5927.                IF    (RX,Z),BEGIN
 004D18 4860 3000            00000 49107  2 5928.                  LH    RX,@RB                  LENGTH OF THIS RECORD
 004D1C 4130 3004            00004 49108  2 5929.                  LA    RB,@RB+4                ACTUAL DATA START
 004D20 4B60 A41E            0508A 49109  2 5930.                  SH    RX,=Y(4)                ACTUAL DATA LENGTH
 004D24                            49110  1 5931.                END   ,
1IOSERV   (IOSE00) (09:40) (22MAR04) ORVYL'S JES I/O Subtask                                                                Page  261
0Current Usings:  ($JESMSG,R4) (JDB,R5) (JESWORK,R7) (JESWRITE,R10) (@JESDO-72,R12) (@MEMGET-72,R13)
0Loc    Object Code    Addr1 Addr2  Stmt Lv Lineno    Source Statement           (Hibal 5, Asmedit 3.3)  HLASM R4.0  2004/03/22 09.40
+___    ______ ____    _____ _____  ____ __ ______    ______ _________
0                                  49115  1 5933.     *
                                   49116  1 5934.     *  SET RPL FIELDS
                                   49117  1 5935.     *
 004D24 5810 700C            0000C 49118  1 5936.                L     RS,JESRPL               RPL POINTER
 USING  IFGRPL,R1                  49119  1 5937.                WITH  (IFGRPL,RS),BEGIN
 004D28 5030 1020            00020 49133  2 5938.                  ST    RB,RPLAREA              RECORD LOCATION
 004D2C 5060 1030            00030 49134  2 5939.                  ST    RX,RPLRLEN               AND LENGTH
 004D30 5060 1034            00034 49135  2 5940.                  ST    RX,RPLBUFL              BUFFER LENGTH
 004D34 D203 1018 500C 00018 0000C 49136  2 5941.                  MVC   RPLDACB,JDBACB          ACB POINTER
 DROP   IFGRPL,R1                  49137  1 5942.                END   ,
                                   49145  1 5943.     *
                                   49146  1 5944.     *  ISSUE PUT
                                   49147  1 5945.     *
                                   49148  1 5946.     *         PUT   RPL=(RS)                DO THE ACTUAL PUT
 DROP   @MEMGET-72,R13             49149  1 5947.                PSET  @AM24RTN
 USING  @AM24RTN-72,R13
 004D3A D713 D048 D048 00000 00000 49169  1          +
 004D40 D203 D04C A40C 00004 05078 49170  1 5948.                MVC   @AM24R0,=A(1)           "PUT" CODE IN R0
 004D46 5010 D050            00008 49171  1 5949.                ST    RS,@AM24R1              RPL IN R1
 004D4A 58F0 500C            0000C 49172  1 5950.                L     R15,JDBACB              ACB POINTER TO R15
 USING  IFGACB,R15                 49173  1 5951.                WITH  (IFGACB,R15),'MVC  @AM24R15,ACBINRTN'
 004D4E D203 D048 F008 00000 00008 49188  1          +
 DROP   IFGACB,R15
 004D54 58F0 A410/0DEF       0507C 49197  1 5952.                ACALL AM24RTN
 004D5A 58F0 D048            00000 49204  1 5953.                L     R15,@AM24R15
 004D5E 12FF/4780 A108       04D74 49205  1 5954.                IF    (R15,NZ),'KAPUT JESWPUT'
 004D64 4110 0001            00001 49222  2 03-KAPUT +*,THIS FUNCTION IS NOT IMPLEMENTED
 004D68 4100 0080            00080 49228  2          +
 004D6C 8900 0018/1610       00018 49229  2          +
 004D72 0A0D                       49231  1          +
 004D74 4136 3000            00000 49236  1 5955.                LA    RB,@RB(RX)              NEXT RECORD
 004D78 47F0 A09C            04D08 49237    5956.              END   ,
1IOSERV   (IOSE00) (09:40) (22MAR04) ORVYL'S JES I/O Subtask                                                                Page  262
0Current Usings:  ($JESMSG,R4) (JDB,R5) (JESWORK,R7) (JESWRITE,R10) (@JESDO-72,R12) (@AM24RTN-72,R13)
0Loc    Object Code    Addr1 Addr2  Stmt Lv Lineno    Source Statement           (Hibal 5, Asmedit 3.3)  HLASM R4.0  2004/03/22 09.40
+___    ______ ____    _____ _____  ____ __ ______    ______ _________
0                                  49243    5958.     *
                                   49244    5959.     *  Release buffer and return
                                   49245    5960.     *
 004D7C 5820 7010            00010 49246    5961.              L     RA,JESWBUFF             BUFFER ADDRESS
 004D80 5830 4018            00008 49247    5962.              L     RB,#JESWLEN              AND LENGTH
 DROP   @AM24RTN-72,R13            49248    5963.              MEMFREE (RB),A=(RA),TYPE=BELOW16M    FREE LOCAL BUFFER
 USING  @MEMFREE-72,R13
 004D84 D709 D048 D048 00000 00000 49270             +
 004D8A 5030 D04C            00004 49271             +
 004D8E 5020 D048            00000 49272             +
 004D92 58F0 A3D4/0DEF       05040 49275             +
 004D98 1B00                       49277    5964.              CLEAR RVR
 004D9A 981F C008            00008 49281    5965.              PEND
 DROP   JDB,R5
 DROP   JESWORK,R7
 DROP   $JESMSG,R4
 DROP   @JESDO-72,R12
 DROP   JESWRITE,R10
 004D9E 9680 C000/0B0E 00000       49311             +
 DROP   @MEMFREE-72,R13
1IOSERV   (IOSE00) (09:40) (22MAR04) ORVYL'S JES I/O Subtask                                                                Page  263
0Loc    Object Code    Addr1 Addr2  Stmt Lv Lineno    Source Statement           (Hibal 5, Asmedit 3.3)  HLASM R4.0  2004/03/22 09.40
+___    ______ ____    _____ _____  ____ __ ______    ______ _________
0                                  49321    5967.     *******************************************************************
                                   49322    5968.     *                                                                 *
                                   49323    5969.     *    JESJBEND - End job stream being sent to JES                  *
                                   49324    5970.     *                                                                 *
                                   49325    5971.     *                                                                 *
                                   49326    5972.     *     Input -  @JESDO                                             *
                                   49327    5973.     *                                                                 *
                                   49328    5974.     *    Output -                                                     *
                                   49329    5975.     *                                                                 *
                                   49330    5976.     *                                                                 *
                                   49331    5977.     *******************************************************************
-
 004DA4                            49333    5979.     JESJBEND PROC  @JESDO,SCOPE=LOCAL
 004DA4 D1C5E2D1C2C5D5C4           49338             +
 004DAC 0008/0000                  49339             +
 004DB0 900F D004/18AF       00004 49341             +
 USING  JESJBEND,R10
 004DB6 50D0 C000/18CD       00000 49356             +
 004DBC 9680 C000      00000       49358             +
 USING  @JESDO-72,R12
 004DC0 41D0 C050            00050 49372             +
 004DC4 5840 C048            00000 49373    5980.              L     RJ,@JESDMSG             Message
 USING  $JESMSG,R4                 49374    5981.              WITH  ($JESMSG,RJ)
 004DC8 5870 C04C            00004 49387    5982.              L     RY,@JESDWRK             WORK AREA
 USING  JESWORK,R7                 49388    5983.              WITH  (JESWORK,RY)
 AUSING (#JESJBND,$JESPARM)        49401    5984.              WITH  (#JESJBND,$JESPARM)
 004DCC 5850 4000            00000 49408    5985.              L     RK,$JESJDB              JDB POINTER
 USING  JDB,R5                     49409    5986.              WITH  (JDB,RK)
 AUSING (COMDB,JDB)                49422    5987.              WITH  (COMDB,JDB),'CLC  COMDBID,=CL4"JDB"'    Validate
 004DD0 D503 5000 A2A8 00000 05058 49433             +
 004DD6 4780 A03A            04DEA 49437    5988.              IF    NE,'KAPUT JDBPTR'
 004DDA 4110 0001            00001 49456  1          +
 004DDE 4100 0080            00080 49457  1          +
 004DE2 8900 0018/1610       00018 49458  1          +
 004DE8 0A0D                       49460             +
                                   49465    5989.     *
                                   49466    5990.     *  SET RPL FIELDS
                                   49467    5991.     *
 004DEA 5820 700C            0000C 49468    5992.              L     RA,JESRPL               RPL POINTER
 USING  IFGRPL,R2                  49469    5993.              WITH  (IFGRPL,RA)
 004DEE D203 2018 500C 00018 0000C 49482    5994.              MVC   RPLDACB,JDBACB          ACB POINTER
1IOSERV   (IOSE00) (09:40) (22MAR04) ORVYL'S JES I/O Subtask                                                                Page  264
0Current Usings:  (IFGRPL,R2) ($JESMSG,R4) (JDB,R5) (JESWORK,R7) (JESJBEND,R10) (@JESDO-72,R12)
0Loc    Object Code    Addr1 Addr2  Stmt Lv Lineno    Source Statement           (Hibal 5, Asmedit 3.3)  HLASM R4.0  2004/03/22 09.40
+___    ______ ____    _____ _____  ____ __ ______    ______ _________
0                                  49484    5996.     *
                                   49485    5997.     *  SIGNAL JES
                                   49486    5998.     *
                                   49487    5999.     *         ENDREQ RPL=(RA)
 USING  @AM24RTN-72,R13            49488    6000.              PSET  @AM24RTN
 004DF4 D713 D048 D048 00000 00000 49505             +
 004DFA D203 D04C A2D0 00004 05080 49506    6001.              MVC   @AM24R0,=A(4)           "END" CODE IN R0
 004E00 5020 D050            00008 49507    6002.              ST    RA,@AM24R1              RPL IN R1
 004E04 58F0 500C            0000C 49508    6003.              L     R15,JDBACB              ACB POINTER TO R15
 USING  IFGACB,R15                 49509    6004.              WITH  (IFGACB,R15),'MVC  @AM24R15,ACBINRTN'
 004E08 D203 D048 F008 00000 00008 49524             +
 DROP   IFGACB,R15
 004E0E 58F0 A2CC/0DEF       0507C 49533    6005.              ACALL AM24RTN
 004E14 58F0 D048            00000 49540    6006.              L     R15,@AM24R15
 004E18 12FF/4780 A07E       04E2E 49541    6007.              IF    (R15,NZ),'KAPUT JSJBEND'
 004E1E 4110 0001            00001 49558  1 03-KAPUT +*,THIS FUNCTION IS NOT IMPLEMENTED
 004E22 4100 0080            00080 49564  1          +
 004E26 8900 0018/1610       00018 49565  1          +
 004E2C 0A0D                       49567             +
                                   49572    6008.     *
                                   49573    6009.     *  RETRIEVE JOB NUMBER
                                   49574    6010.     *
 004E2E 5830 2040            00040 49575    6011.              L     RB,RPLRBAR+4            ANSWER AREA
 004E32 5860 4014            00004 49576    6012.              L     RX,#JESNLOC             USER LOCATION
 004E36 5E60 4008            00008 49577    6013.              AL    RX,$JESOFF               TO MVS VIRTUAL
 004E3A 5030 6000            00000 49578    6014.              ST    RB,@RX                  TO USER AREA
 004E3E 1B00                       49579    6015.              CLEAR RVR
 004E40 981F C008            00008 49583    6016.              PEND
 DROP   IFGRPL,R2
 DROP   JDB,R5
 DROP   JESWORK,R7
 DROP   $JESMSG,R4
 DROP   @JESDO-72,R12
 DROP   JESJBEND,R10
 004E44 9680 C000/0B0E 00000       49618             +
 DROP   @AM24RTN-72,R13
1IOSERV   (IOSE00) (09:40) (22MAR04) ORVYL'S JES I/O Subtask                                                                Page  265
0Loc    Object Code    Addr1 Addr2  Stmt Lv Lineno    Source Statement           (Hibal 5, Asmedit 3.3)  HLASM R4.0  2004/03/22 09.40
+___    ______ ____    _____ _____  ____ __ ______    ______ _________
0                                  49628    6018.              COPY  JSALPARM
                                   49629             =*******************************************************************
                                   49630             =*                                                                 *
                                   49631             =*    @JSDALLO - Parameters for JES dynamic allocation routine     *
                                   49632             =*                                                                 *
                                   49633             =*******************************************************************
0000000                00000 00004 49635             =@JSDALLO RECORD BEGIN
 000000                            49643  1          =@JSDPARM   DS    A                       Pointer to @JSALLO parm area
 000004                00004 00004 49644             =         END   ,
-
                                   49654             =*******************************************************************
                                   49655             =*                                                                 *
                                   49656             =*    JSALPARM - JES device allocation parameters                  *
                                   49657             =*                                                                 *
                                   49658             =*******************************************************************
0000000                00000 00036 49660             =@JSALLO  RECORD BEGIN
 000000                            49668  1          =@JSDDNM    DS    CL8                     DD name
 000008                            49669  1          =@JSRTN     DS    H                       Return code from SVC 99
 00000A                            49670  1          =@JSERR     DS    H                       Error code from SVC 99
 00000C                            49671  1          =@JSRSN     DS    H                       Reason code from SVC 99
                                   49672  1          =
 00000E 00                         49673  1          =@JSFLAG    FLAG  ,
 @JSFLAG.@JSINTR   80 ONES         49677  1          =           FLAG  @JSINTR                 Internal Reader
 @JSFLAG.@JSHOLD   40 ONES         49682  1          =           FLAG  @JSHOLD                 Output hold
                                   49687  1          =*
                                   49688  1          =*  The following are ignored for Internal Reader requests
                                   49689  1          =*
 00000F                            49690  1          =           DS    X                       Reserved
 000010                            49691  1          =@JSCLAS    DS    C                       Sysout class
 000011                            49692  1          =@JSCOPY    DS    X                       Copies
 000012                            49693  1          =@JSFORM    DS    CL4                     Forms
 000016                            49694  1          =@JSCHAR    DS    4CL4                    Chars
 000026                            49695  1          =@JSFLAS    DS    CL4                     Forms flash
 00002A                            49696  1          =@JSFCB     DS    CL4                     Fcb
 00002E                            49697  1          =@JSDEST    DS    CL8                     Destination
 000036                00036 00036 49698             =         END   ,
1IOSERV   (IOSE00) (09:40) (22MAR04) ORVYL'S JES I/O Subtask                                                                Page  266
0Loc    Object Code    Addr1 Addr2  Stmt Lv Lineno    Source Statement           (Hibal 5, Asmedit 3.3)  HLASM R4.0  2004/03/22 09.40
+___    ______ ____    _____ _____  ____ __ ______    ______ _________
0                                  49708    6020.     *******************************************************************
                                   49709    6021.     *                                                                 *
                                   49710    6022.     *    JSALWORK - JES device allocation data                        *
                                   49711    6023.     *                                                                 *
                                   49712    6024.     *******************************************************************
00050A4                05090 06A98 49714    6026.              DATA  BEGIN
 0050A4 0000000000000000           49719  1 6027.     JSTULIST   DC    12A(0)
                                   49720  1 6028.
 0050D4 000100010008               49721  1 6029.     JSTUDDN    DC    AL2(DALDDNAM,1,8)       DDNAME - KEY, NUMBER, LENGTH
 0050DA 4040404040404040           49722  1 6030.                DC    CL8' '                  DDNAME - STRING
                                   49723  1 6031.
 0050E2 001C0000                   49724  1 6032.     JSTUFREE   DC    AL2(DALCLOSE,0)         FREE=CLOSE - KEY AND NUMBER
                                   49725  1 6033.
 0050E6 001800000001               49726  1 6034.     JSTUSYSO   DC    AL2(DALSYSOU,0,1)       SYSOUT - KEY, NUMBER, LENGTH
 0050EC 40                         49727  1 6035.                DC    C' '                    SYSOUT - STRING
                                   49728  1 6036.
 0050ED 00190001                   49729  1 6037.     JSTUWRTN   DC    AL2(DALSPGNM,1)         PROGRAM NAME - KEY AND NUMBER
 0050F1 0006                       49730  1 6038.                DC    AL2(6)                  PROGRAM NAME - LENGTH
 0050F3 C9D5E3D9C4D9               49731  1 6039.                DC    CL6'INTRDR'             PROGRAM NAME - STRING
                                   49732  1 6040.
 0050F9 001A00010004               49733  1 6041.     JSTUFORM   DC    AL2(DALSFMNO,1,4)       FORMS - KEY, NUMBER, LENGTH
 0050FF 40404040                   49734  1 6042.                DC    CL4' '                  FORMS - STRING
                                   49735  1 6043.
 005103 006700010004               49736  1 6044.     JSTUFLSH   DC    AL2(DALFFORM,1,4)       FORM FLASH - KEY, NUMBER, LEN
 005109 40404040                   49737  1 6045.                DC    CL4' '                  FORM FLASH - STRING
                                   49738  1 6046.
 00510D 005800010008               49739  1 6047.     JSTUDEST   DC    AL2(DALSUSER,1,8)       DESTINATION - KEY, NUMBER, LEN
 005113 4040404040404040           49740  1 6048.                DC    CL8' '                  DESTINATION - STRING
                                   49741  1 6049.
 00511B 002500010004               49742  1 6050.     JSTUFCB    DC    AL2(DALFCBIM,1,4)       FCB - KEY AND NUMBER
 005121 40404040                   49743  1 6051.                DC    CL4' '                  FCB - STRING
                                   49744  1 6052.
 005125 001D00010001               49745  1 6053.     JSTUCOPY   DC    AL2(DALCOPYS,1,1)       COPIES - KEY AND NUMBER
 00512B 40                         49746  1 6054.                DC    C' '                    COPIES - STRING
                                   49747  1 6055.
 00512C 00590000                   49748  1 6056.     JSTUHOLD   DC    AL2(DALSHOLD,0)         OUTPUT HOLD - KEY AND NUMBER
                                   49749  1 6057.
 005130 00650001                   49750  1 6058.     JSTUCHAR   DC    AL2(DALCHARS,1)         CHARS - KEY AND NUMBER
 005134 000440404040               49751  1 6059.                DC    AL2(4),CL4' '           CHARS - LENGTHS AND STRINGS
 00513A 000440404040               49752  1 6060.                DC    AL2(4),CL4' '
 005140 000440404040               49753  1 6061.                DC    AL2(4),CL4' '
 005146 000440404040               49754  1 6062.                DC    AL2(4),CL4' '
                                   49755  1 6063.
                                   49756  1 6064.     JSALWORK   EQU   JSTULIST,*-JSTULIST
 004E4A                0471C 06A98 49757    6065.              END   ,
1IOSERV   (IOSE00) (09:40) (22MAR04) ORVYL'S JES I/O Subtask                                                                Page  267
0Loc    Object Code    Addr1 Addr2  Stmt Lv Lineno    Source Statement           (Hibal 5, Asmedit 3.3)  HLASM R4.0  2004/03/22 09.40
+___    ______ ____    _____ _____  ____ __ ______    ______ _________
0                                  49764    6067.     *******************************************************************
                                   49765    6068.     *                                                                 *
                                   49766    6069.     *   JSALLO - JES Sysout and Intrdr Device Allocation              *
                                   49767    6070.     *                                                                 *
                                   49768    6071.     *                                                                 *
                                   49769    6072.     *     Input - @JSDALLO                                            *
                                   49770    6073.     *                                                                 *
                                   49771    6074.     *    Output - RVR contains return code from SVC 99                *
                                   49772    6075.     *                                                                 *
                                   49773    6076.     *                                                                 *
                                   49774    6077.     *******************************************************************
-
 004E4A                            49776    6079.     JSALLO   PROC  @JSDALLO,SCOPE=GLOBAL
 004E4A D1E2C1D3D3D64040           49782             +
 004E52 0008/0000                  49783             +
 004E56 900F D004/18AF       00004 49785             +
 USING  JSALLO,R10
 004E5C 50D0 C000/18CD       00000 49800             +
 004E62 9680 C000      00000       49802             +
 USING  @JSDALLO-72,R12
 004E66 41D0 C050            00050 49816             +
 004E6A 5870 C048            00000 49817    6080.              L     RY,@JSDPARM             USER PARAMETERS
 USING  @JSALLO,R7                 49818    6081.              WITH  (@JSALLO,RY)
                                   49831    6082.     *
                                   49832    6083.     *  FIRST SET UP WORK AREA
                                   49833    6084.     *
 USING  @MEMGET-72,R13             49834    6085.              MEMGET L'JSALWORK             WORK AREA
 004E6E D709 D048 D048 00000 00000 49853             +
 004E74 4100 00A8            000A8 49860             +
 004E78 5000 D04C            00004 49861             +
 004E7C 9211 D051      00009       49871             +
 004E80 58F0 A1E2/0DEF       05038 49874             +
 004E86 1860                       49876    6086.              LR    RX,RVR                   POINTER
 004E88 D2A7 6000 A24E 00000 050A4 49877    6087.              MVC   @RX(L'JSALWORK),JSALWORK  COPY PARAMETERS
 USING  JSALWORK,R6                49878    6088.              WITH  (JSALWORK,RX)
 004E8E 4150 6000            050A4 49891    6089.              LA    RK,JSTULIST             LIST POINTER
1IOSERV   (IOSE00) (09:40) (22MAR04) ORVYL'S JES I/O Subtask                                                                Page  268
0Current Usings:  (JSALWORK,R6) (@JSALLO,R7) (JSALLO,R10) (@JSDALLO-72,R12) (@MEMGET-72,R13)
0Loc    Object Code    Addr1 Addr2  Stmt Lv Lineno    Source Statement           (Hibal 5, Asmedit 3.3)  HLASM R4.0  2004/03/22 09.40
+___    ______ ____    _____ _____  ____ __ ______    ______ _________
0                                  49893    6091.     *
                                   49894    6092.     *  BUILD COMMON TEXT UNITS - START WITH FREE=CLOSE
                                   49895    6093.     *
 004E92 4110 603E            050E2 49896    6094.              LA    RS,JSTUFREE             POINTER TO TEXT UNIT
 004E96 5010 5000            00000 49897    6095.              ST    RS,@RK                  ADD TO LIST
 004E9A 4150 5004            00004 49898    6096.              LA    RK,@RK+4                UPDATE LIST POINTER
                                   49899    6097.     *
                                   49900    6098.     *  BUILD DDNAME/RETURN DDNAME UNIT
                                   49901    6099.     *
 004E9E 4110 6030            050D4 49902    6100.              LA    RS,JSTUDDN              POINTER TO TEXT UNIT
 004EA2 5010 5000            00000 49903    6101.              ST    RS,@RK                  ADD TO LIST
 004EA6 4150 5004            00004 49904    6102.              LA    RK,@RK+4                UPDATE LIST POINTER
 USING  S99TUNIT,R1                49905    6103.              WITH  (S99TUNIT,RS),BEGIN
 004EAA                            49919  1 6104.                IF    (@JSDDNM,Z),'MVC  S99TUKEY,=AL2(DALRTDDN)'
 004EAA D607 7000 7000 00000 00000 49929  1          +
 004EB0 4770 A064            04EBA 49930  1          +
 004EB4 D201 1000 A236 00000 0508C 49936  1          +
 004EBA A068           04EBA 04EB2 49941  1 6105.                ELSE  'MVC  S99TUPAR(8),@JSDDNM'   PUT IN DDNAME
 004EBA 47F0 A06E            04EC4 49946  1          +
 004EBE D207 1006 7000 00006 00000 49953  1          +
 DROP   S99TUNIT,R1                49958    6106.              END   ,
                                   49966    6107.     *
                                   49967    6108.     *  BUILD SYSOUT UNIT
                                   49968    6109.     *
 004EC4 4110 6042            050E6 49969    6110.              LA    RS,JSTUSYSO             POINTER TO TEXT UNIT
 004EC8 5010 5000            00000 49970    6111.              ST    RS,@RK                  ADD TO LIST
 004ECC 4150 5004            00004 49971    6112.              LA    RK,@RK+4                UPDATE LIST POINTER
 004ED0 9500 7010      00010       49972    6113.              IF    (@JSCLAS,NZ),BEGIN
 004ED4 4780 A08E            04EE4 49983             +
 USING  S99TUNIT,R1                49988  1 6114.                WITH  (S99TUNIT,RS)
 004ED8 D201 1002 A238 00002 0508E 50001  1 6115.                MVC   S99TUNUM,=AL2(1)        NUMBER OF PARAMETERS
 004EDE D200 1006 7010 00006 00010 50002  1 6116.                MVC   S99TUPAR(1),@JSCLAS     PUT IN CLASS
 DROP   S99TUNIT,R1                50003    6117.              END
                                   50012    6118.     *
                                   50013    6119.     *  PROCESS INTRDR REQUESTS - BUILD PROGRAM NAME UNIT
                                   50014    6120.     *
 004EE4 9180 700E      0000E       50015    6121.              IF    @JSINTR,BEGIN
 004EE8 47E0 A0A2            04EF8 50025             +
 004EEC 4110 6049            050ED 50030  1 6122.                LA    RS,JSTUWRTN             POINTER TO TEXT UNIT
 004EF0 5010 5000            00000 50031  1 6123.                ST    RS,@RK                  ADD TO LIST
 004EF4 4150 5004            00004 50032  1 6124.                LA    RK,@RK+4                UPDATE LIST POINTER
 004EF8                            50033    6125.              END   ,
1IOSERV   (IOSE00) (09:40) (22MAR04) ORVYL'S JES I/O Subtask                                                                Page  269
0Current Usings:  (JSALWORK,R6) (@JSALLO,R7) (JSALLO,R10) (@JSDALLO-72,R12) (@MEMGET-72,R13)
0Loc    Object Code    Addr1 Addr2  Stmt Lv Lineno    Source Statement           (Hibal 5, Asmedit 3.3)  HLASM R4.0  2004/03/22 09.40
+___    ______ ____    _____ _____  ____ __ ______    ______ _________
0                                  50038    6127.     *
                                   50039    6128.     *  REQUEST IS FOR SYSOUT -  START WITH COPIES
                                   50040    6129.     *
 004EF8 A0A6           04EF8 04EEA 50041    6130.              ELSE  BEGIN
 004EF8 47F0 A160            04FB6 50046             +
 004EFC 9500 7011      00011       50052  1 6131.                IF    (@JSCOPY,NZ),BEGIN
 004F00 4780 A0C0            04F16 50063  1          +
 004F04 4110 6081            05125 50068  2 6132.                  LA    RS,JSTUCOPY             POINTER TO TEXT UNIT
 004F08 5010 5000            00000 50069  2 6133.                  ST    RS,@RK                  ADD TO LIST
 004F0C 4150 5004            00004 50070  2 6134.                  LA    RK,@RK+4                UPDATE LIST POINTER
 USING  S99TUNIT,R1                50071  2 6135.                  WITH  (S99TUNIT,RS)
 004F10 D200 1006 7011 00006 00011 50084  2 6136.                  MVC   S99TUPAR(L'@JSCOPY),@JSCOPY   PUT IN COPIES
 DROP   S99TUNIT,R1                50085  1 6137.                END   ,
                                   50094  1 6138.     *
                                   50095  1 6139.     *  BUILD FORMS UNIT
                                   50096  1 6140.     *
 004F16                            50097  1 6141.                IF    (@JSFORM,NZ),BEGIN
 004F16 D603 7012 7012 00012 00012 50107  1          +
 004F1C 4780 A0DC            04F32 50108  1          +
 004F20 4110 6055            050F9 50113  2 6142.                  LA    RS,JSTUFORM             POINTER TO TEXT UNIT
 004F24 5010 5000            00000 50114  2 6143.                  ST    RS,@RK                  ADD TO LIST
 004F28 4150 5004            00004 50115  2 6144.                  LA    RK,@RK+4                UPDATE LIST POINTER
 USING  S99TUNIT,R1                50116  2 6145.                  WITH  (S99TUNIT,RS)
 004F2C D203 1006 7012 00006 00012 50129  2 6146.                  MVC   S99TUPAR(4),@JSFORM     PUT IN FORMS
 DROP   S99TUNIT,R1                50130  1 6147.                END   ,
                                   50139  1 6148.     *
                                   50140  1 6149.     *  BUILD CHARS UNIT
                                   50141  1 6150.     *
 004F32                            50142  1 6151.                IF    (@JSCHAR,NZ),BEGIN
 004F32 D603 7016 7016 00016 00016 50152  1          +
 004F38 4780 A0F8            04F4E 50153  1          +
 004F3C 4110 608C            05130 50158  2 6152.                  LA    RS,JSTUCHAR             POINTER TO TEXT UNIT
 004F40 5010 5000            00000 50159  2 6153.                  ST    RS,@RK                  ADD TO LIST
 004F44 4150 5004            00004 50160  2 6154.                  LA    RK,@RK+4                UPDATE LIST POINTER
 USING  S99TUNIT,R1                50161  2 6155.                  WITH  (S99TUNIT,RS)
 004F48 D203 1006 7016 00006 00016 50174  2 6156.                  MVC   S99TUPAR(4),@JSCHAR     PUT IN CHARS
 DROP   S99TUNIT,R1                50175  1 6157.                END   ,
                                   50184  1 6158.     *
                                   50185  1 6159.     *  BUILD FLASH UNIT
                                   50186  1 6160.     *
 004F4E                            50187  1 6161.                IF    (@JSFLAS,NZ),BEGIN
 004F4E D603 7026 7026 00026 00026 50197  1          +
 004F54 4780 A114            04F6A 50198  1          +
 004F58 4110 605F            05103 50203  2 6162.                  LA    RS,JSTUFLSH             POINTER TO TEXT UNIT
 004F5C 5010 5000            00000 50204  2 6163.                  ST    RS,@RK                  ADD TO LIST
 004F60 4150 5004            00004 50205  2 6164.                  LA    RK,@RK+4                UPDATE LIST POINTER
 USING  S99TUNIT,R1                50206  2 6165.                  WITH  (S99TUNIT,RS)
 004F64 D203 1006 7026 00006 00026 50219  2 6166.                  MVC   S99TUPAR(4),@JSFLAS     PUT IN FLASH
 DROP   S99TUNIT,R1                50220  1 6167.                END   ,
1IOSERV   (IOSE00) (09:40) (22MAR04) ORVYL'S JES I/O Subtask                                                                Page  270
0Current Usings:  (JSALWORK,R6) (@JSALLO,R7) (JSALLO,R10) (@JSDALLO-72,R12) (@MEMGET-72,R13)
0Loc    Object Code    Addr1 Addr2  Stmt Lv Lineno    Source Statement           (Hibal 5, Asmedit 3.3)  HLASM R4.0  2004/03/22 09.40
+___    ______ ____    _____ _____  ____ __ ______    ______ _________
0                                  50230  1 6169.     *
                                   50231  1 6170.     *  BUILD FCB UNIT
                                   50232  1 6171.     *
 004F6A                            50233  1 6172.                IF    (@JSFCB,NZ),BEGIN
 004F6A D603 702A 702A 0002A 0002A 50243  1          +
 004F70 4780 A130            04F86 50244  1          +
 004F74 4110 6077            0511B 50249  2 6173.                  LA    RS,JSTUFCB              POINTER TO TEXT UNIT
 004F78 5010 5000            00000 50250  2 6174.                  ST    RS,@RK                  ADD TO LIST
 004F7C 4150 5004            00004 50251  2 6175.                  LA    RK,@RK+4                UPDATE LIST POINTER
 USING  S99TUNIT,R1                50252  2 6176.                  WITH  (S99TUNIT,RS)
 004F80 D203 1006 702A 00006 0002A 50265  2 6177.                  MVC   S99TUPAR(4),@JSFCB      PUT IN FLASH
 DROP   S99TUNIT,R1                50266  1 6178.                END   ,
                                   50275  1 6179.     *
                                   50276  1 6180.     *  BUILD DEST UNIT
                                   50277  1 6181.     *
 004F86                            50278  1 6182.                IF    (@JSDEST,NZ),BEGIN
 004F86 D607 702E 702E 0002E 0002E 50288  1          +
 004F8C 4780 A14C            04FA2 50289  1          +
 004F90 4110 6069            0510D 50294  2 6183.                  LA    RS,JSTUDEST             POINTER TO TEXT UNIT
 004F94 5010 5000            00000 50295  2 6184.                  ST    RS,@RK                  ADD TO LIST
 004F98 4150 5004            00004 50296  2 6185.                  LA    RK,@RK+4                UPDATE LIST POINTER
 USING  S99TUNIT,R1                50297  2 6186.                  WITH  (S99TUNIT,RS)
 004F9C D207 1006 702E 00006 0002E 50310  2 6187.                  MVC   S99TUPAR(8),@JSDEST     PUT IN DESTINATION
 DROP   S99TUNIT,R1                50311  1 6188.                END   ,
                                   50320  1 6189.     *
                                   50321  1 6190.     *  BUILD HOLD UNIT
                                   50322  1 6191.     *
 004FA2 9140 700E      0000E       50323  1 6192.                IF    @JSHOLD,BEGIN
 004FA6 47E0 A160            04FB6 50333  1          +
 004FAA 4110 6088            0512C 50338  2 6193.                  LA    RS,JSTUHOLD             POINTER TO TEXT UNIT
 004FAE 5010 5000            00000 50339  2 6194.                  ST    RS,@RK                  ADD TO LIST
 004FB2 4150 5004            00004 50340  2 6195.                  LA    RK,@RK+4                UPDATE LIST POINTER
 004FB6                            50341  1 6196.                END   ,
 004FB6                            50345    6197.              END   ,
                                   50349    6198.     *
                                   50350    6199.     *  MARK END OF LIST AND DO DYNAMIC ALLOCATE
                                   50351    6200.     *
 004FB6 9680 5000      00000       50352    6201.              SET   @RK.S99TUPLN            NOTE LIST END
 DROP   @MEMGET-72,R13             50359    6202.              PSET  @DYNALLO
 USING  @DYNALLO-72,R13
 004FBA D707 D048 D048 00000 00000 50379             +
 004FC0 4110 6000            050A4 50380    6203.              LA    RS,JSTULIST             LIST POINTER
 004FC4 5010 D048            00000 50381    6204.              ST    RS,@DYNTXTU             SET LIST ADDRESS
 004FC8 58F0 A22E/0DEF       05084 50382    6205.              ACALL DYNALLO
 004FCE 4000 7008            00008 50389    6206.              STH   RVR,@JSRTN              SAVE RETURN CODE
                                   50390    6207.     *
                                   50391    6208.     *  IF ERROR IN DYNAMIC ALLOCATE SET ERROR CODES
                                   50392    6209.     *
 004FD2 1250/4780 A18E       04FE4 50393    6210.              IF    ('LTR  RK,RVR',NZ),BEGIN
 004FD8 D201 700A D04C 0000A 00004 50406  1 6211.                MVC   @JSERR,@DYNERR          COPY ERROR CODE
 004FDE D201 700C D04E 0000C 00006 50407  1 6212.                MVC   @JSRSN,@DYNRSN           AND REASON CODE
 004FE4                            50408    6213.              END   ,
1IOSERV   (IOSE00) (09:40) (22MAR04) ORVYL'S JES I/O Subtask                                                                Page  271
0Current Usings:  (JSALWORK,R6) (@JSALLO,R7) (JSALLO,R10) (@JSDALLO-72,R12) (@DYNALLO-72,R13)
0Loc    Object Code    Addr1 Addr2  Stmt Lv Lineno    Source Statement           (Hibal 5, Asmedit 3.3)  HLASM R4.0  2004/03/22 09.40
+___    ______ ____    _____ _____  ____ __ ______    ______ _________
0                                  50413    6215.     *
                                   50414    6216.     *  ALLOCATE SUCCESSFUL - RETURN DDNAME
                                   50415    6217.     *
 004FE4 A192           04FE4 04FD6 50416    6218.              ELSE  BEGIN
 004FE4 47F0 A1A6            04FFC 50421             +
 004FE8                            50427  1 6219.                IF    (@JSDDNM,NE,=XL8'00'),EXIT
 004FE8 D507 A1DA 7000 05030 00000 50437  1          +
 004FEE 4770 A1A6            04FFC 50440  1          +
 004FF2 4110 6030            050D4 50446  1 6220.                LA    RS,JSTUDDN              POINTER TO DDNAME TEXT UNIT
 USING  S99TUNIT,R1                50447  1 6221.                WITH  (S99TUNIT,RS)
 004FF6 D207 7000 1006 00000 00006 50460  1 6222.                MVC   @JSDDNM,S99TUPAR        COPY DDNAME
 DROP   S99TUNIT,R1                50461    6223.              END   ,
 DROP   JSALWORK,R6                50470    6224.              DROP  RX
                                   50477    6225.     *
                                   50478    6226.     *  RELEASE WORK AREA AND RETURN
                                   50479    6227.     *
 DROP   @DYNALLO-72,R13            50480    6228.              MEMFREE L'JSALWORK,A=(RX)     RELEASE WORK AREA
 USING  @MEMFREE-72,R13
 004FFC D709 D048 D048 00000 00000 50502             +
 005002 4100 00A8            000A8 50509             +
 005006 5000 D04C            00004 50510             +
 00500A 5060 D048            00000 50511             +
 00500E 9210 D051      00009       50518             +
 005012 58F0 A1EA/0DEF       05040 50521             +
 005018 1805                       50523    6229.              LR    RVR,RK
 00501A 981F C008            00008 50524    6230.              PEND
 DROP   @JSALLO,R7
 DROP   @JSDALLO-72,R12
 DROP   JSALLO,R10
 00501E 9680 C000/0B0E 00000       50546             +
 DROP   @MEMFREE-72,R13
 005028                            50555    6231.              LTORG
 005028 D1C5E2C9D6E3E2D2           50557                             =CL8'JESIOTSK'
 005030 0000000000000000           50558                             =XL8'00'
 005038 00000000                   50559                             =V(MEMGET)
 00503C 00000000                   50560                             =V(MSGATTS)
 005040 00000000                   50561                             =V(MEMFREE)
 005044 00000000                   50562                             =V(FWAIT)
 005048 00000000                   50563                             =V(MSGRECV)
 00504C 00000010                   50564                             =A(JESFMAX)
 005050 00000000                   50565                             =V(GSTIIOT)
 005054 00000000                   50566                             =V(MSGFREE)
 005058 D1C4C240                   50567                             =CL4'JDB'
 00505C 00004E56                   50568                             =A(JSALLO)
 005060 00000000                   50569                             =V(ESTAEON)
 005064 00000000                   50570                             =V(ESTAEOFF)
 005068 00004B1C                   50571                             =A(JESCLS)
 00506C 00006808                   50572                             =A(DUNALLO)
 005070 00000000                   50573                             =V(LOCKOB)
 005074 00000000                   50574                             =V(LOCKREL)
 005078 00000001                   50575                             =A(1)
 00507C 00006726                   50576                             =A(AM24RTN)
 005080 00000004                   50577                             =A(4)
 005084 000067A2                   50578                             =A(DYNALLO)
1IOSERV   (IOSE00) (09:40) (22MAR04) ORVYL'S JES I/O Subtask                                                                Page  272
0Loc    Object Code    Addr1 Addr2  Stmt Lv Lineno    Source Statement           (Hibal 5, Asmedit 3.3)  HLASM R4.0  2004/03/22 09.40
+___    ______ ____    _____ _____  ____ __ ______    ______ _________
0005088 0008                       50579                             =Y(JDBCHAIN-JDB)
 00508A 0004                       50580                             =Y(4)
 00508C 0055                       50581                             =AL2(DALRTDDN)
 00508E 0001           0514C 06A98 50582                             =AL2(1)
1IOSERV   (IOSE00) (09:40) (22MAR04) ORVYL'S JES I/O Subtask                                                                Page  273
0Loc    Object Code    Addr1 Addr2  Stmt Lv Lineno    Source Statement           (Hibal 5, Asmedit 3.3)  HLASM R4.0  2004/03/22 09.40
+___    ______ ____    _____ _____  ____ __ ______    ______ _________
0                                  50587    6233.     *
                                   50588    6234.     * SNAP DUMP PARAMETER RECORD
                                   50589    6235.     *
 000000                00000 0000C 50590    6236.     @SNDPPRM RECORD BEGIN
 000000                            50598  1 6237.     @SNDADDR   DS    A                       SNAP DUMP LINE TO WRITE
 000004                            50599  1 6238.     @SNDLEN    DS    A                       SNAP DUMP LINE LENGTH
 000008                            50600  1 6239.     @SNDTOKN   DS    A                       SNAP DUMP DATA SET ID
 00000C                0000C 0000C 50601    6240.              END   ,
1IOSERV   (IOSE00) (09:40) (22MAR04) ORVYL'S JES I/O Subtask                                                                Page  274
0Loc    Object Code    Addr1 Addr2  Stmt Lv Lineno    Source Statement           (Hibal 5, Asmedit 3.3)  HLASM R4.0  2004/03/22 09.40
+___    ______ ____    _____ _____  ____ __ ______    ______ _________
0                                  50612    6243.     *******************************************************************
                                   50613    6244.     *                                                                 *
                                   50614    6245.     *     SNDPALLO - Routine to dynamically allocate and open a       *
                                   50615    6246.     *                SNAPDUMP sysout data set.                        *
                                   50616    6247.     *                                                                 *
                                   50617    6248.     *                                                                 *
                                   50618    6249.     *      Input - none                                               *
                                   50619    6250.     *                                                                 *
                                   50620    6251.     *     Output - Token representing SNAPDUMP data set created.      *
                                   50621    6252.     *                                                                 *
                                   50622    6253.     *                                                                 *
                                   50623    6254.     *******************************************************************
-00514C                            50625    6256.     SNDPALLO PROC  @SNDPPRM,SCOPE=GLOBAL
 00514C E2D5C4D7C1D3D3D6           50631             +
 005154 0010/0000                  50632             +
 005158 900F D004/18AF       00004 50634             +
 USING  SNDPALLO,R10
 00515E 50D0 C000/18CD       00000 50649             +
 005164 9680 C000      00000       50651             +
 USING  @SNDPPRM-72,R12
 005168 41D0 C058            00058 50665             +
 USING  @MEMGET-72,R13             50666    6257.              MEMGET L'@JSALLO
 00516C D709 D048 D048 00000 00000 50685             +
 005172 4100 0036            00036 50692             +
 005176 5000 D04C            00004 50693             +
 00517A 9211 D051      00009       50703             +
 00517E 58F0 A2C8/0DEF       05420 50706             +
 005184 1850                       50708    6258.              LR    RK,RVR
 USING  @JSALLO,R5                 50709    6259.              WITH  (@JSALLO,RK)
 005186                            50722    6260.              MEMGET L'SNDB,TYPE=GLOBAL     Get storage for an SNDB
 005186 D709 D048 D048 00000 00000 50734             +
 00518C 4100 001C            0001C 50741             +
 005190 5000 D04C            00004 50742             +
 005194 9213 D051      00009       50756             +
 005198 58F0 A2C8/0DEF       05420 50759             +
 00519E 1880                       50761    6261.              LR    RM,RVR
 USING  SNDB,R8                    50762    6262.              WITH  (SNDB,RM)
 0051A0                            50775    6263.              CLEAR SNDB
 0051A0 D71B 8000 8000 00000 00000 50781             +
 DROP   SNDB,R8                    50782    6264.              WITH  (COMDB,RM),BEGIN        Set ID
 USING  COMDB,R8
 0051A6 D203 8000 A2CC 00000 05424 50799  1 6265.                MVC   COMDBID,=CL4'SNDB'       to SNDB
 DROP   COMDB,R8                   50800    6266.              END   ,                       OF Set ID
 USING  SNDB,R8
1IOSERV   (IOSE00) (09:40) (22MAR04) ORVYL'S JES I/O Subtask                                                                Page  275
0Current Usings:  (@JSALLO,R5) (SNDB,R8) (SNDPALLO,R10) (@SNDPPRM-72,R12) (@MEMGET-72,R13)
0Loc    Object Code    Addr1 Addr2  Stmt Lv Lineno    Source Statement           (Hibal 5, Asmedit 3.3)  HLASM R4.0  2004/03/22 09.40
+___    ______ ____    _____ _____  ____ __ ______    ______ _________
0                                  50816    6268.     *
                                   50817    6269.     *  ASSIGN A DDNAME SUFFIX USING COUNT FROM SNDB
                                   50818    6270.     *
 0051AC 5870 9004            00004 50819    6271.              WITH  (RTCB,RTCBR),'L  RY,RTCBCBAT'   CBAT pointer
 USING  RTCB,R9
 DROP   RTCB,R9
 0051B0 5870 7054            00054 50843    6272.              WITH  (CBAT,RY),'L  RY,CBATIOCT'      IOCT pointer
 USING  CBAT,R7
 DROP   CBAT,R7
 USING  IOCT,R7                    50867    6273.              WITH  (IOCT,RY)
 0051B4 5800 7054            00054 50880    6274.              LOCKOB IOCTSNPL               Get SNDB chain lock
 DROP   @MEMGET-72,R13
 USING  @LOCKS-72,R13
 0051B8 5000 D048            00000 50899             +
 0051BC 58F0 A2D0/0DEF       05428 50902             +
 0051C2 1B11                       50904    6275.              SR    RS,RS                   Init count to zero
                                   50905    6276.     *
                                   50906    6277.     *  IF SNDBS ARE IN CHAIN, THERE IS A COUNT TO BE USED
                                   50907    6278.     *
 0051C4 4810 7090            00090 50908    6279.              LH    RS,IOCTSNCT
 0051C8 4110 1001            00001 50909    6280.              LA    RS,1(,RS)              Increment count
 0051CC 5910 A2D4            0542C 50910    6281.              IF    (RS,GT,999),'LA RS,1'  If count > 999 start over
 0051D0 47D0 A080            051D8 50922             +
 0051D4 4110 0001            00001 50928             +
 0051D8 4010 7090            00090 50933    6282.              STH   RS,IOCTSNCT            Update count
 0051DC 4E10 5000            00000 50934    6283.              CVD   RS,@JSDDNM             Convert count to decimal
 0051E0 5800 7054            00054 50935    6284.              LOCKRL IOCTSNPL              Release SNDB chain lock
 0051E4 5000 D048            00000 50944             +
 0051E8 58F0 A2D8/0DEF       05430 50947             +
1IOSERV   (IOSE00) (09:40) (22MAR04) ORVYL'S JES I/O Subtask                                                                Page  276
0Current Usings:  (@JSALLO,R5) (IOCT,R7) (SNDB,R8) (SNDPALLO,R10) (@SNDPPRM-72,R12) (@LOCKS-72,R13)
0Loc    Object Code    Addr1 Addr2  Stmt Lv Lineno    Source Statement           (Hibal 5, Asmedit 3.3)  HLASM R4.0  2004/03/22 09.40
+___    ______ ____    _____ _____  ____ __ ______    ______ _________
0                                  50950    6286.     *
                                   50951    6287.     *  BUILD THE DYNAMIC ALLOCATION PARAMETER AREA STARTING
                                   50952    6288.     *  WITH DDNAME.
                                   50953    6289.     *
 0051EE F321 5000 5006 00000 00006 50954    6290.              UNPK  @JSDDNM(3),@JSDDNM+6(2) Make count alphanumeric
 0051F4 D202 5005 5000 00005 00000 50955    6291.              MVC   @JSDDNM+5(3),@JSDDNM    Shift right to form suffix
 0051FA 96F0 5007      00007       50956    6292.              OI    @JSDDNM+7,X'F0'         Clear sign
 0051FE D204 5000 A2E4 00000 0543C 50957    6293.              MVC   @JSDDNM(5),=C'SNAPD'    Move in DDNAME prefix
 005204 9640 500E      0000E       50958    6294.              SET   @JSHOLD                 Output hold
 005208 92C1 5010      00010       50964    6295.              MVI   @JSCLAS,C'A'            SYSOUT=A
 00520C D207 8010 5000 00010 00000 50965    6296.              MVC   SNDBDDN,@JSDDNM         Save DDN in SNDB
                                   50966    6297.     *
                                   50967    6298.     *  Do the dynamic allocation
                                   50968    6299.     *
 DROP   @LOCKS-72,R13              50969    6300.              PSET  @JSDALLO                Point to
 USING  @JSDALLO-72,R13
 005212 D703 D048 D048 00000 00000 50989             +
 005218 5050 D048            00000 50990    6301.              ST    RK,@JSDPARM             Allocation parameter area
 00521C 58F0 A2DC/0DEF       05434 50991    6302.              VCALL JSALLO                  Call JES allocation
                                   50995    6303.     *
                                   50996    6304.     *  IF ALLOCATION FAILED LOG THE ERROR AND FREE SNDB
                                   50997    6305.     *
 005222 1260/4780 A130       05288 50998    6306.              IF    ('LTR RX,RVR',NZ),BEGIN Allocation failed
 005228 4510 A0F8/001F       05250 51011  1 6307.                WTO   'Unable to allocate SNAPDUMP',ROUTCDE=11
 00522E 8000                       51015  1          +
 005230 E4958182938540A3           51016  1          +
 005238 9640819393968381                  1          +
 00524B 0000/0020/0A23             51017  1          +
 005252 0700/0ADE                  51021  1 6308.                QSNAP @JSRTN,6
 005256 080600005008               51024  1          +
                                   51025  1 6309.     *** FOR THE SHORT TERM, ABEND ORVYL WITH DUMP FOR DEBUGGING
 00525C 4110 0001            00001 51026  1 6310.                KAPUT 'DTALFAIL'
 005260 4100 0080            00080 51034  1          +
 005264 8900 0018/1610       00018 51035  1          +
 00526A 0A0D                       51037  1          +
 DROP   @JSDALLO-72,R13            51038  1 6311.                MEMFREE L'SNDB,A=(RM)         FREE SNDB
 USING  @MEMFREE-72,R13
 00526C D709 D048 D048 00000 00000 51060  1          +
 005272 4100 001C            0001C 51067  1          +
 005276 5000 D04C            00004 51068  1          +
 00527A 5080 D048            00000 51069  1          +
 00527E 9210 D051      00009       51076  1          +
 005282 58F0 A2E0/0DEF       05438 51079  1          +
 005288                            51081    6312.              END   ,                       OF Allocation failed
                                   51085    6313.     *
                                   51086    6314.     *  FREE THE DYNAMIC ALLOCATION PARAMETER AREA
                                   51087    6315.     *
 005288                            51088    6316.              MEMFREE L'@JSALLO,A=(RK)
 005288 D709 D048 D048 00000 00000 51100             +
 00528E 4100 0036            00036 51107             +
 005292 5000 D04C            00004 51108             +
 005296 5050 D048            00000 51109             +
 00529A 9210 D051      00009       51116             +
 00529E 58F0 A2E0/0DEF       05438 51119             +
1IOSERV   (IOSE00) (09:40) (22MAR04) ORVYL'S JES I/O Subtask                                                                Page  277
0Current Usings:  (IOCT,R7) (SNDB,R8) (SNDPALLO,R10) (@SNDPPRM-72,R12) (@MEMFREE-72,R13)
0Loc    Object Code    Addr1 Addr2  Stmt Lv Lineno    Source Statement           (Hibal 5, Asmedit 3.3)  HLASM R4.0  2004/03/22 09.40
+___    ______ ____    _____ _____  ____ __ ______    ______ _________
0DROP   @JSALLO,R5                 51121    6317.              DROP  RK
                                   51128    6318.     *
                                   51129    6319.     *  IF ALLOCATION SUCCEEDED, GET AN AREA FOR THE ACB
                                   51130    6320.     *
 0052A4 1266/4770 A2AE       05406 51131    6321.              IF    (RX,Z),BEGIN            Allocation succeeded
                                   51145  1 6322.     *
                                   51146  1 6323.     *  CREATE DCBE
                                   51147  1 6324.     *
 DROP   @MEMFREE-72,R13            51148  1 6325.                MEMGET SNAPDELN               Get storage for DCBE
 USING  @MEMGET-72,R13
 0052AA D709 D048 D048 00000 00000 51170  1          +
 0052B0 4100 0038            00038 51177  1          +
 0052B4 5000 D04C            00004 51178  1          +
 0052B8 9211 D051      00009       51188  1          +
 0052BC 58F0 A2C8/0DEF       05420 51191  1          +
 0052C2 1850                       51193  1 6326.                LR    RK,RVR                  Save DCBE pointer
 0052C4 5050 8018            00018 51194  1 6327.                ST    RK,SNDBDCBE              into SNDB for MEMFREE
 0052C8 D237 5000 A2EC 00000 05444 51195  1 6328.                MVC   0(SNAPDELN,RK),SNAPDCBE Copy model DCBE to real
                                   51196  1 6329.     *
                                   51197  1 6330.     *  CREATE DCB
                                   51198  1 6331.     *
 0052CE                            51199  1 6332.                MEMGET SNAPDLEN,TYPE=BELOW16M Get storage for DCB
 0052CE D709 D048 D048 00000 00000 51211  1          +
 0052D4 4100 0060            00060 51218  1          +
 0052D8 5000 D04C            00004 51219  1          +
 0052DC 9201 D051      00009       51226  1          +
 0052E0 58F0 A2C8/0DEF       05420 51229  1          +
 0052E6 1820                       51231  1 6333.                LR    RA,RVR                  Save DCB pointer
 0052E8 5020 800C            0000C 51232  1 6334.                ST    RA,SNDBDCB               into SNDB
 USING  IHADCB,R2                  51233  1 6335.                WITH  (IHADCB,RA)
 0052EC D25F 2000 A324 00000 0547C 51246  1 6336.                MVC   IHADCB(SNAPDLEN),SNAPDCB   COPY DCB
 0052F2 D207 2028 8010 00028 00010 51247  1 6337.                MVC   DCBDDNAM,SNDBDDN        SET DD NAME
 0052F8 5050 2000            00000 51248  1 6338.                ST    RK,DCBDCBE              SET DCBE
                                   51249  1 6339.     *
                                   51250  1 6340.     *  SET UP PARAMETER LIST AND DO OPEN
                                   51251  1 6341.     *
 0052FC                            51252  1 6342.                MEMGET 8                      Set up
 0052FC D709 D048 D048 00000 00000 51264  1          +
 005302 4100 0008            00008 51271  1          +
 005306 5000 D04C            00004 51272  1          +
 00530A 9211 D051      00009       51282  1          +
 00530E 58F0 A2C8/0DEF       05420 51285  1          +
 005314 1850                       51287  1 6343.                LR    RK,RVR                   Open
 005316 D703 5000 5000 00000 00000 51288  1 6344.                XC    0(4,RK),0(RK)
 00531C 5020 5004            00004 51289  1 6345.                ST    RA,@RK+4                  Parameter
 005320 928F 5000      00000       51290  1 6346.                MVI   @RK,143                    List
                                   51292          OPEN  MF=(E,(RK)),MODE=31     Do it                            6348.
 005324 1815                       51294+         LR    1,RK                              LOAD PARAMETER REG 1   02-IHBIN
 005326 1801                       51295+         LR    0,1                                                 @L1A 01-OPEN
 005328 1B11                       51296+         SR    1,1                                                 @L1A 01-OPEN
 00532A 0A13                       51297+         SVC   19                           ISSUE OPEN SVC              01-OPEN
 00532C 186F                       51299  1 6350.                LR    RX,R15                  Return code
1IOSERV   (IOSE00) (09:40) (22MAR04) ORVYL'S JES I/O Subtask                                                                Page  278
0Current Usings:  (IHADCB,R2) (IOCT,R7) (SNDB,R8) (SNDPALLO,R10) (@SNDPPRM-72,R12) (@MEMGET-72,R13)
0Loc    Object Code    Addr1 Addr2  Stmt Lv Lineno    Source Statement           (Hibal 5, Asmedit 3.3)  HLASM R4.0  2004/03/22 09.40
+___    ______ ____    _____ _____  ____ __ ______    ______ _________
0                                  51301  1 6352.     *
                                   51302  1 6353.     *  FREE THE OPEN PARAMETER LIST
                                   51303  1 6354.     *
 DROP   @MEMGET-72,R13             51304  1 6355.                MEMFREE 8,A=(RK)                 Free OPEN parm list
 USING  @MEMFREE-72,R13
 00532E D709 D048 D048 00000 00000 51326  1          +
 005334 4100 0008            00008 51333  1          +
 005338 5000 D04C            00004 51334  1          +
 00533C 5050 D048            00000 51335  1          +
 005340 9210 D051      00009       51342  1          +
 005344 58F0 A2E0/0DEF       05438 51345  1          +
                                   51347  1 6356.     *
                                   51348  1 6357.     *  IF OPEN FAILED RELEASE THE DCB, DCBE AND SNDB
                                   51349  1 6358.     *
 00534A 1266/4780 A27E       053D6 51350  1 6359.                IF    (RX,NZ),BEGIN           OPEN failed
 005350 4510 A218/0018       05370 51364  2 6360.                  WTO   'OPEN SNAPDUMP failed',ROUTCDE=11
 005356 8000                       51368  2          +
 005358 D6D7C5D540E2D5C1           51369  2          +
 00536C 0000/0020/0A23             51370  2          +
                                   51374  2 6361.     *** FOR THE SHORT TERM, ABEND ORVYL WITH DUMP FOR DEBUGGING
 005372 4110 0001            00001 51375  2 6362.                  KAPUT 'DTOPFAIL'
 005376 4100 0080            00080 51383  2          +
 00537A 8900 0018/1610       00018 51384  2          +
 005380 0A0D                       51386  2          +
                                   51387  2 6363.     *
                                   51388  2 6364.     *  RELEASE DCB
                                   51389  2 6365.     *
 005382                            51390  2 6366.                  MEMFREE SNAPDLEN,A=(RK),TYPE=BELOW16M
 005382 D709 D048 D048 00000 00000 51402  2          +
 005388 4100 0060            00060 51409  2          +
 00538C 5000 D04C            00004 51410  2          +
 005390 5050 D048            00000 51411  2          +
 005394 58F0 A2E0/0DEF       05438 51414  2          +
                                   51416  2 6367.     *
                                   51417  2 6368.     *  RELEASE DCBE
                                   51418  2 6369.     *
 00539A 5850 8018            00018 51419  2 6370.                  L     RK,SNDBDCBE
 00539E                            51420  2 6371.                  MEMFREE SNAPDELN,A=(RK)
 00539E D709 D048 D048 00000 00000 51432  2          +
 0053A4 4100 0038            00038 51439  2          +
 0053A8 5000 D04C            00004 51440  2          +
 0053AC 5050 D048            00000 51441  2          +
 0053B0 9210 D051      00009       51448  2          +
 0053B4 58F0 A2E0/0DEF       05438 51451  2          +
                                   51453  2 6372.     *
                                   51454  2 6373.     *  RELEASE SNDB
                                   51455  2 6374.     *
 0053BA                            51456  2 6375.                  MEMFREE L'SNDB,A=(RM)         FREE SNDB
 0053BA D709 D048 D048 00000 00000 51468  2          +
 0053C0 4100 001C            0001C 51475  2          +
 0053C4 5000 D04C            00004 51476  2          +
 0053C8 5080 D048            00000 51477  2          +
 0053CC 9210 D051      00009       51484  2          +
 0053D0 58F0 A2E0/0DEF       05438 51487  2          +
1IOSERV   (IOSE00) (09:40) (22MAR04) ORVYL'S JES I/O Subtask                                                                Page  279
0Current Usings:  (IHADCB,R2) (IOCT,R7) (SNDB,R8) (SNDPALLO,R10) (@SNDPPRM-72,R12) (@MEMFREE-72,R13)
0Loc    Object Code    Addr1 Addr2  Stmt Lv Lineno    Source Statement           (Hibal 5, Asmedit 3.3)  HLASM R4.0  2004/03/22 09.40
+___    ______ ____    _____ _____  ____ __ ______    ______ _________
00053D6 A282           053D6 0534E 51489  1 6376.                END   ELSE,BEGIN          END OF OPEN failed; BEGIN OPEN OK
 0053D6 47F0 A2AE            05406 51498  1          +
                                   51504  2 6377.     *
                                   51505  2 6378.     *  OPEN WAS SUCCESSFUL, STORE SNDB INTO CHAIN ANCHORED AT
                                   51506  2 6379.     *  IOCTSNDB.
                                   51507  2 6380.     *
 0053DA 5800 7054            00054 51508  2 6381.                  LOCKOB IOCTSNPL
 DROP   @MEMFREE-72,R13
 USING  @LOCKS-72,R13
 0053DE 5000 D048            00000 51527  2          +
 0053E2 58F0 A2D0/0DEF       05428 51530  2          +
 0053E8 D203 8008 703C 00008 0003C 51532  2 6382.                  MVC   SNDBCHN,IOCTSNDB        Get SNDB chain lock
 0053EE 5080 703C            0003C 51533  2 6383.                  ST    RM,IOCTSNDB             Former head of chain
 0053F2 5800 7054            00054 51534  2 6384.                  LOCKRL IOCTSNPL               Add this one to chain head
 0053F6 5000 D048            00000 51543  2          +
 0053FA 58F0 A2D8/0DEF       05430 51546  2          +
 005400 5080 C050            00008 51548  2 6385.                  ST    RM,@SNDTOKN             Pass back SNDB addr as token
 005404 1B00                       51549  2 6386.                  SR    RVR,RVR                 Return cond code 0
 005406                            51550  1 6387.                END   ,                       of OPEN OK
                                   51554  1 6388.     *
                                   51555  1 6389.     *  END OF ALLOCATION AND OPEN PROCESSING.  IF SUCCESSFUL
                                   51556  1 6390.     *  R15 ALREADY HAS RC 0.
                                   51557  1 6391.     *
 DROP   IHADCB,R2                  51558    6392.              END   ,                       OF Allocation succeeded
 005406 1266/4780 A2B8       05410 51567    6393.              IF (RX,NZ),'LA RVR,4'         For any errors, RC = 4
 00540C 4100 0004            00004 51582             +
 005410 981F C008            00008 51587    6394.              PEND
 DROP   IOCT,R7
 DROP   SNDB,R8
 DROP   @SNDPPRM-72,R12
 DROP   SNDPALLO,R10
 005414 9680 C000/0B0E 00000       51614             +
 DROP   @LOCKS-72,R13
 005420                            51623    6395.              LTORG
 005420 00000000                   51625                             =V(MEMGET)
 005424 E2D5C4C2                   51626                             =CL4'SNDB'
 005428 00000000                   51627                             =V(LOCKOB)
 00542C 000003E7                   51628                             =A(999)
 005430 00000000                   51629                             =V(LOCKREL)
 005434 00000000                   51630                             =V(JSALLO)
 005438 00000000                   51631                             =V(MEMFREE)
 00543C E2D5C1D7C4     05441 06A98 51632                             =C'SNAPD'
 005441 000000                     51636    6396.     SNAPDCBE DCBE RMODE31=BUFF
 005444 C4C3C2C5/0038              51638             +
 00544A 0000/00000000              51640             +
 005450 00000000/00/80             51642             +
 005456 0000/00000000              51645             +
 00545C 00000000                   51647             +
 005460 00000000                   51648             +
 005464 0000000000000000           51649             +
 00546C 00000000                   51650             +
 005470 00000000                   51651             +
 005474 000000000000               51652             +
 00547A 0000                       51653             +
1IOSERV   (IOSE00) (09:40) (22MAR04) ORVYL'S JES I/O Subtask                                                                Page  280
0Loc    Object Code    Addr1 Addr2  Stmt Lv Lineno    Source Statement           (Hibal 5, Asmedit 3.3)  HLASM R4.0  2004/03/22 09.40
+___    ______ ____    _____ _____  ____ __ ______    ______ _________
0                                  51654    6397.     SNAPDELN EQU *-SNAPDCBE
                                   51655    6398.   C SNAPDCB  DCB DDNAME=SNAPDUMP,DSORG=PS,MACRF=PM,
 00547C                                     6399.                    LRECL=133,RECFM=FB,BLKSIZE=1330
 00547C 0000000000000000           51662             +
 00548C 00000000/00                51663             +
 005491 000001/0000                51666             +
 005496 4000/00000001              51668             +
 00549C 00/000001/90               51671             +
 0054A1 000000                     51674             +
 0054A4 E2D5C1D7C4E4D4D7           51676             +
 0054AC 02/00/0050/00              51677             +
 0054B1 000001                     51682             +
 0054B4 00000001/0000              51683             +
 0054BA 0532/00000000              51685             +
 0054C0 00000001                   51687             +
 0054C4 00000001                   51689             +
 0054C8 00000001/0000              51690             +
 0054CE 0085/00/000001             51692             +
 0054D4 00000000                   51695             +
 0054D8 00000001                   51696             +
                                   51697    6400.     SNAPDLEN EQU *-SNAPDCB
1IOSERV   (IOSE00) (09:40) (22MAR04) ORVYL'S JES I/O Subtask                                                                Page  281
0Loc    Object Code    Addr1 Addr2  Stmt Lv Lineno    Source Statement           (Hibal 5, Asmedit 3.3)  HLASM R4.0  2004/03/22 09.40
+___    ______ ____    _____ _____  ____ __ ______    ______ _________
0                                  51699    6402.     *******************************************************************
                                   51700    6403.     *                                                                 *
                                   51701    6404.     *     SNDPWRT  - Routine to write a line to a SNAPDUMP JES2       *
                                   51702    6405.     *                sysout data set.                                 *
                                   51703    6406.     *                                                                 *
                                   51704    6407.     *                                                                 *
                                   51705    6408.     *     Input - @SNDPPRM contains line to write, length and token   *
                                   51706    6409.     *                                                                 *
                                   51707    6410.     *     Output - none                                               *
                                   51708    6411.     *                                                                 *
                                   51709    6412.     *                                                                 *
                                   51710    6413.     *******************************************************************
 0054DC                            51711    6414.     SNDPWRT  PROC  @SNDPPRM,SCOPE=GLOBAL
 0054DC E2D5C4D7E6D9E340           51717             +
 0054E4 0010/0000                  51718             +
 0054E8 900F D004/18AF       00004 51720             +
 USING  SNDPWRT,R10
 0054EE 50D0 C000/18CD       00000 51735             +
 0054F4 9680 C000      00000       51737             +
 USING  @SNDPPRM-72,R12
 0054F8 41D0 C058            00058 51751             +
 0054FC 5860 9004            00004 51752    6415.              WITH  (RTCB,RTCBR),'L  RX,RTCBCBAT'   CBAT pointer
 USING  RTCB,R9
 DROP   RTCB,R9
 005500 5860 6054            00054 51776    6416.              WITH  (CBAT,RX),'L  RX,CBATIOCT'      IOCT pointer
 USING  CBAT,R6
 DROP   CBAT,R6
 USING  IOCT,R6                    51800    6417.              WITH  (IOCT,RX)
 005504 5820 C050            00008 51813    6418.              L     RA,@SNDTOKN             Get token (SNDB ptr)
 005508 4140 0004            00004 51814    6419.              LA    RJ,4                    Preload bad return code
 00550C 5800 6054            00054 51815    6420.              LOCKOB IOCTSNPL               Get SNDB chain lock
 USING  @LOCKS-72,R13
 005510 5000 D048            00000 51831             +
 005514 58F0 ACD0/0DEF       061B8 51834             +
 00551A 5810 603C            0003C 51836    6421.              L     RS,IOCTSNDB             Get SNDB chain anchor
 00551E                            51837    6422.     LOOP1    LOOP  BEGIN                   Run SNDB chain
 USING  SNDB,R1                    51844  1 6423.                WITH  (SNDB,RS)
 00551E 1211/4780 A050       05538 51857  1 6424.                IF    (RS,Z),EXIT             End of chain
 005524 1921/4770 A048       05530 51874  1 6425.                IF    (RA,EQ,RS),'SR RJ,RJ;EXIT LOOP1' Found match
 00552A 1B44/47F0 A050       05538 51890  1          +
 005530 5810 1008            00008 51898  1 6426.                L     RS,SNDBCHN              Get next entry
 005534 47F0 A036            0551E 51899    6427.              END   ,                       OF Run SNDB chain
 DROP   SNDB,R1
 005538 5800 6054            00054 51909    6428.              LOCKRL IOCTSNPL               Release SNDB chain lock
 00553C 5000 D048            00000 51918             +
 005540 58F0 ACD4/0DEF       061BC 51921             +
1IOSERV   (IOSE00) (09:40) (22MAR04) ORVYL'S JES I/O Subtask                                                                Page  282
0Current Usings:  (IOCT,R6) (SNDPWRT,R10) (@SNDPPRM-72,R12) (@LOCKS-72,R13)
0Loc    Object Code    Addr1 Addr2  Stmt Lv Lineno    Source Statement           (Hibal 5, Asmedit 3.3)  HLASM R4.0  2004/03/22 09.40
+___    ______ ____    _____ _____  ____ __ ______    ______ _________
0                                  51924    6430.     *
                                   51925    6431.     * IF THE SNDB WAS FOUND, THEN PREPARE TO DO THE WRITE TO JES
                                   51926    6432.     *
 USING  SNDB,R2                    51927    6433.              WITH  (SNDB,RA)
 005546 1244/4770 A102       055EA 51940    6434.     SNDBOK   IF (RJ,Z),BEGIN               SNDB found; write to JES
 AUSING (COMDB,SNDB)               51955  1 6435.                WITH (COMDB,SNDB),'CLC COMDBID,=CL4"SNDB"' Check ID
 00554C D503 2000 ACD8 00000 061C0 51966  1          +
 005552 4780 A0AE            05596 51970  1 6436.                IF NE,BEGIN                   No matching SNDB ID
 005556 0700/4510 A098       05580 51981  2 6437.                  WTO   'NO SNDB ID MATCH AT PUT TIME',ROUTCDE=11
 00555C 0020/8000                  51984  2          +
 005560 D5D640E2D5C4C240           51986  2          +
 005568 C9C440D4C1E3C3C8                  2          +
 00557C 0000/0020/0A23             51987  2          +
                                   51991  2 6438.     *** FOR THE SHORT TERM, ABEND ORVYL WITH DUMP FOR DEBUGGING
 005582 4110 0001            00001 51992  2 6439.                  KAPUT  'SNDB PTR'
 005586 4100 0080            00080 52000  2          +
 00558A 8900 0018/1610       00018 52001  2          +
 005590 0A0D                       52003  2          +
 005592 47F0 A102            055EA 52004  2 6440.                  EXIT   SNDBOK
 005596                            52007  1 6441.                END    ,                      OF No matching SNDB ID
                                   52011  1 6442.     *
                                   52012  1 6443.     *  SET RPL FIELDS
                                   52013  1 6444.     *
 005596 5810 200C            0000C 52014  1 6445.                L     RS,SNDBDCB              DCB pointer
 00559A 1211/4770 A0F2       055DA 52015  1 6446.                IF    (RS,Z),BEGIN            No DCB found
 0055A0 4510 A0DC/001C       055C4 52029  2 6447.                  WTO   'NO DCB FOUND AT PUT TIME',ROUTCDE=11
 0055A6 8000                       52033  2          +
 0055A8 D5D640C4C3C240C6           52034  2          +
 0055B0 D6E4D5C440C1E340                  2          +
 0055C0 0000/0020/0A23             52035  2          +
                                   52039  2 6448.     *** FOR THE SHORT TERM, ABEND ORVYL WITH DUMP FOR DEBUGGING
 0055C6 4110 0001            00001 52040  2 6449.                  KAPUT 'NO DCB'
 0055CA 4100 0080            00080 52048  2          +
 0055CE 8900 0018/1610       00018 52049  2          +
 0055D4 0A0D                       52051  2          +
 0055D6 47F0 A102            055EA 52052  2 6450.                  EXIT   SNDBOK
 0055DA                            52055  1 6451.                END   ,                       No DCB found
 0055DA 5800 C048            00000 52059  1 6452.                L     RVR,@SNDADDR            Record Location
                                   52060  1 6453.     *
                                   52061  1 6454.     *  ISSUE PUT
                                   52062  1 6455.     *
 0055DE 1811/1800/1FFF             52063  1 6456.                PUT  (RS),(RVR)               Do the actual PUT
 0055E4 BFF7 1031/05EF       00031 52068  1          +
 0055EA                            52070    6457.              END   ,                       OF SNDB found; write to JES
 0055EA 1804                       52074    6458.              LR    RVR,RJ                  Pass return code to caller
 0055EC 981F C008            00008 52075    6459.              PEND
 DROP   SNDB,R2
 DROP   IOCT,R6
 DROP   @SNDPPRM-72,R12
 DROP   SNDPWRT,R10
 0055F0 9680 C000/0B0E 00000       52100             +
 DROP   @LOCKS-72,R13
