1                        J E S 2  J O B  L O G  --  S Y S T E M  S Y S B  --  N O D E  R L G
0
 09.45.31 JOB05970 ---- MONDAY,    22 MAR 2004 ----
 09.45.31 JOB05970  ICH70001I GG$PJG   LAST ACCESS AT 09:45:24 ON MONDAY, MARCH 22, 2004
 09.45.31 JOB05970  $HASP373 PJG#VBLD STARTED - INIT 3    - CLASS E - SYS SYSB
 09.45.31 JOB05970  ***  HCMD      STEP $$QUIET
 09.45.31 JOB05970  PURGE * Q=OUTPUT MULTIPLE
 09.45.31 JOB05970  JOB PJG#VBLD NOT IN OUTPUT QUEUE
 09.45.32 JOB05970  PJG#VBLD.$$QUIET .         RC=0008 TapeIO=0000 DiskIO=0000 CPU=  .01s Elapsed=31.28s
 09.45.32 JOB05970  PJG#VBLD.$CND    .         RC=Zero TapeIO=0000 DiskIO=0002 CPU=  .01s Elapsed=32.34s
 09.45.32 JOB05970  PJG#VBLD.$UNP    .         RC=Zero TapeIO=0000 DiskIO=0036 CPU=  .06s Elapsed=32.65s
 09.45.50 JOB05970  PJG#VBLD.ASM     .         RC=Zero TapeIO=0000 DiskIO=0764 CPU= 3.56s Elapsed=33.02s
 09.45.53 JOB05970  PJG#VBLD.$EDIT   .         RC=Zero TapeIO=0000 DiskIO=0196 CPU=  .80s Elapsed=50.84s
 09.45.53 JOB05970  PJG#VBLD Ended.  Name=Module: VBLD                   Total CPU= 4.44s Elapsed=31.28s
 09.45.53 JOB05970
 09.45.53 JOB05970  Execution charges   Priority=Standard   Block=Day
 09.45.53 JOB05970
 09.45.53 JOB05970  CPU Usage          81.18          $50.33   Standard Processing Unit Equivalent
 09.45.53 JOB05970                                   =======
 09.45.53 JOB05970                                    $50.33   Total Job execution charge
 09.45.53 JOB05970
 09.45.53 JOB05970  See back separator page for print charges
 09.45.53 JOB05970
 09.45.53 JOB05970  $HASP395 PJG#VBLD ENDED  ASM=0
1        1 //PJG#VBLD JOB PJG$GG,'Module: VBLD',TIME=1,MSGCLASS=C                  JOB05970
           /*JOBPARM HOLD=OUTPUT,LINES=50,CHARS=TN15,NOTIFY=YES
         2 //       EXEC PURGEOLD
         3 XXPURGEOLD PROC
           XX*
           XX* This proc is maintained by Jim Stosick
           XX*
         4 XX$$QUIET  EXEC PGM=HCMDX,PARM='PURGE * Q=OUTPUT MULTIPLE',
           XX         ACCT=(PURGEOLD,SYS3)
         5 //$CND   EXEC PGM=BILBO,REGION=512K,PARM='RECS=100'
         6 //STEPLIB  DD DSN=WYL.GG.ORV.LINKLIB,DISP=SHR
         7 //SYSPRINT DD SYSOUT=$
         8 //SYSUT1   DD DSN=WYL.GG.PJG.OBJ,DISP=OLD
         9 //SYSUT2   DD DSN=WYL.GG.PJG.OBJ,DISP=OLD
        10 //SYSIN    DD DUMMY
        11 //$UNP   EXEC PGM=WUNPRESS,PARM='NUM'
        12 //SYSPRINT DD SYSOUT=$
        13 //SYSUT1   DD DSN=WYL.GG.ORV.SOURCE.FILEUTIL(VBLD),DISP=SHR
        14 //SYSUT2   DD DSN=&&INPUT,DISP=(,PASS),UNIT=SYSDA,
           //            SPACE=(TRK,(25,25),RLSE),DCB=CARD
        15 //ASM    EXEC PGM=ASMA90,REGION=8M,COND=(0,NE,$UNP),
           //            PARM=('SYSPARM(VBLD),TERM,LANG(EN),OBJ',
           //          'LC(32500),XREF(SHORT),NODECK,NORLD,NODX,NOUS')
           //*STEPLIB  DD DSN=SYS1.SASMMOD1,DISP=SHR
        16 //SYSLIB   DD DSN=SYS3.DUMMYMAC,DISP=SHR,DCB=BLKSIZE=27920
        17 //         DD DSN=WYL.GG.SYS.MACLIB,DISP=SHR
        18 //         DD DSN=WYL.GG.ORV.BC.MACLIB,DISP=SHR
        19 //         DD DSN=WYL.GG.ORV.MACLIB.VCATBAT,DISP=SHR
        20 //         DD DSN=WYL.GG.ORV.MACLIB,DISP=SHR
        21 //         DD DSN=SYS3.MACLIB,DISP=SHR
        22 //         DD DSN=SYS1.MACLIB,DISP=SHR
        23 //SYSUT1   DD DSN=&&SYSUT1,UNIT=VIO,DISP=(,DELETE),
           //            SPACE=(4088,(500,250),,CONTIG,ROUND)
        24 //SYSTERM  DD SYSOUT=$
        25 //SYSPRINT DD DSN=&&PRINT,UNIT=SYSDA,DISP=(,PASS),
           //            SPACE=(6650,(250,250),RLSE),
           //            DCB=(BLKSIZE=6650,LRECL=133,RECFM=FB)
        26 //SYSLIN   DD DSN=WYL.GG.PJG.OBJ(VBLD),DISP=OLD
        27 //SYSUDUMP DD SYSOUT=A
        28 //SYSIN    DD DSN=&&INPUT,DISP=(OLD,DELETE)
        29 //$EDIT  EXEC PGM=ASMEDIT,REGION=1M,
           //            COND=EVEN,PARM='STMT,DATA'
        30 //STEPLIB  DD DSN=WYL.GG.SYS.LINKLIB,DISP=SHR
        31 //ASMOUT   DD DSN=&&PRINT,DISP=(OLD,DELETE)
        32 //SYSPRINT DD SYSOUT=A
        33 //SYSUDUMP DD SYSOUT=A
1 STMT NO. MESSAGE
         2 IEFC001I PROCEDURE PURGEOLD WAS EXPANDED USING SYSTEM LIBRARY SYS3.BETAPROC
        14 IGD01010I STORCLAS= TEMP STORGROUP =
        14 IGD01010I STORGRP=VIO ASSIGNED.
        23 IGD01010I STORCLAS= TEMP STORGROUP =
        23 IGD01010I STORGRP=VIO ASSIGNED.
        25 IGD01010I STORCLAS= TEMP STORGROUP =
        25 IGD01010I STORGRP=VIO ASSIGNED.
 ICH70001I GG$PJG   LAST ACCESS AT 09:45:24 ON MONDAY, MARCH 22, 2004
 IEF142I PJG#VBLD $$QUIET - STEP WAS EXECUTED - COND CODE 0008
 *********************************************************************************
 *   PJG#VBLD/$$QUIET /                    Return Code      0008                 *
 *   Region used      260K (16K user + 244K system)                              *
 *   Extended region  9352K (4K user + 9348K system)                             *
 *                                                                               *
 *   Paging              In      Out                                             *
 *   Private <-> Aux      0        0       CPU time (TCB)   00:00:00.01          *
 *   Private <-> Exp      0        0       CPU time (SRB)   00:00:00.00          *
 *   VIO                  0        0       Elapsed time    920:42:21.68          *
 *   Common               0      ---                                             *
 *                                                                               *
 *                                                                               *
 *   CPU Usage          0.18         $0.11  Standard Processing Unit Equivalent  *
 *                                   $0.11  Total Step execution charge          *
 *                                                                               *
 *    I/O count  DDname   Type Addr           I/O count  DDname   Type Addr      *
 *                         *** No I/O for this step ***                          *
 *********************************************************************************
 IEF373I STEP/$$QUIET /START 2004082.0945
 IEF374I STEP/$$QUIET /STOP  2004082.0945 CPU    0MIN 00.01SEC SRB    0MIN 00.00SEC VIRT    16K SYS   244K EXT       4K SYS    9348K
 IEF236I ALLOC. FOR PJG#VBLD $CND
 IEF237I 0401 ALLOCATED TO STEPLIB
 IEF237I JES2 ALLOCATED TO SYSPRINT
 IEF237I 04DC ALLOCATED TO SYSUT1
 IEF237I 04DC ALLOCATED TO SYSUT2
 IEF237I DMY  ALLOCATED TO SYSIN
 IEF142I PJG#VBLD $CND - STEP WAS EXECUTED - COND CODE 0000
 IEF285I   WYL.GG.ORV.LINKLIB                           KEPT
 IEF285I   VOL SER NOS= SYSB01.
 IEF285I   GG$PJG.PJG#VBLD.JOB05970.D0000101.?          SYSOUT
 IEF285I   WYL.GG.PJG.OBJ                               KEPT
 IEF285I   VOL SER NOS= SYSB05.
 IEF285I   WYL.GG.PJG.OBJ                               KEPT
 IEF285I   VOL SER NOS= SYSB05.
 *********************************************************************************
 *   PJG#VBLD/$CND    /                    Return Code      Zero                 *
 *   Region used      288K (16K user + 272K system)                              *
 *   Extended region  9392K (4K user + 9388K system)                             *
 *                                                                               *
 *   Paging              In      Out                                             *
 *   Private <-> Aux      0        0       CPU time (TCB)   00:00:00.01          *
 *   Private <-> Exp      0        0       CPU time (SRB)   00:00:00.00          *
 *   VIO                  0        0       Elapsed time    920:42:20.62          *
 *   Common               0      ---                                             *
 *                                                                               *
 *                                                                               *
 *   CPU Usage          0.18         $0.11  Standard Processing Unit Equivalent  *
 *                                   $0.11  Total Step execution charge          *
 *                                                                               *
 *    I/O count  DDname   Type Addr           I/O count  DDname   Type Addr      *
 *            2  STEPLIB  Disk 0401                   0  SYSPRINT      ----      *
 *            0  SYSUT1   Disk 04DC                   0  SYSUT2   Disk 04DC      *
 *            0  SYSIN         ----                                              *
 *********************************************************************************
 IEF373I STEP/$CND    /START 2004082.0945
 IEF374I STEP/$CND    /STOP  2004082.0945 CPU    0MIN 00.01SEC SRB    0MIN 00.00SEC VIRT    16K SYS   272K EXT       4K SYS    9388K
 IEF236I ALLOC. FOR PJG#VBLD $UNP
 IEF237I JES2 ALLOCATED TO SYSPRINT
 IEF237I 0402 ALLOCATED TO SYSUT1
 IGD101I SMS ALLOCATED TO DDNAME (SYSUT2  )
         DSN (SYS04082.T094531.RA000.PJG#VBLD.INPUT.H01   )
         STORCLAS (TEMP) MGMTCLAS (        ) DATACLAS (        )
         VOL SER NOS= SCR100
 IEF142I PJG#VBLD $UNP - STEP WAS EXECUTED - COND CODE 0000
 IEF285I   GG$PJG.PJG#VBLD.JOB05970.D0000102.?          SYSOUT
 IEF285I   WYL.GG.ORV.SOURCE.FILEUTIL                   KEPT
 IEF285I   VOL SER NOS= SYSB02.
 IGD106I SYS04082.T094531.RA000.PJG#VBLD.INPUT.H01    PASSED,    DDNAME=SYSUT2
 *********************************************************************************
 *   PJG#VBLD/$UNP    /                    Return Code      Zero                 *
 *   Region used      388K (108K user + 280K system)                             *
 *   Extended region  9468K (4K user + 9464K system)                             *
 *                                                                               *
 *   Paging              In      Out                                             *
 *   Private <-> Aux      0        0       CPU time (TCB)   00:00:00.06          *
 *   Private <-> Exp      0        0       CPU time (SRB)   00:00:00.00          *
 *   VIO                  0        0       Elapsed time    920:42:20.31          *
 *   Common               0      ---                                             *
 *                                                                               *
 *                                                                               *
 *   CPU Usage          1.12         $0.69  Standard Processing Unit Equivalent  *
 *                                   $0.69  Total Step execution charge          *
 *                                                                               *
 *    I/O count  DDname   Type Addr           I/O count  DDname   Type Addr      *
 *            0  SYSPRINT      ----                   4  SYSUT1   Disk 0402      *
 *           32  SYSUT2   Disk 038B                                              *
 *********************************************************************************
 IEF373I STEP/$UNP    /START 2004082.0945
 IEF374I STEP/$UNP    /STOP  2004082.0945 CPU    0MIN 00.06SEC SRB    0MIN 00.00SEC VIRT   108K SYS   280K EXT       4K SYS    9464K
 IEF236I ALLOC. FOR PJG#VBLD ASM
 IEF237I 0402 ALLOCATED TO SYSLIB
 IEF237I 04DC ALLOCATED TO
 IEF237I 0402 ALLOCATED TO
 IEF237I 0402 ALLOCATED TO
 IEF237I 0402 ALLOCATED TO
 IEF237I 0402 ALLOCATED TO
 IEF237I 04A0 ALLOCATED TO
 IGD101I SMS ALLOCATED TO DDNAME (SYSUT1  )
         DSN (SYS04082.T094531.RA000.PJG#VBLD.SYSUT1.H01  )
         STORCLAS (TEMP) MGMTCLAS (        ) DATACLAS (        )
         VOL SER NOS= VIO
 IEF237I JES2 ALLOCATED TO SYSTERM
 IGD101I SMS ALLOCATED TO DDNAME (SYSPRINT)
         DSN (SYS04082.T094531.RA000.PJG#VBLD.PRINT.H01   )
         STORCLAS (TEMP) MGMTCLAS (        ) DATACLAS (        )
         VOL SER NOS= SCR101
 IEF237I 04DC ALLOCATED TO SYSLIN
 IEF237I JES2 ALLOCATED TO SYSUDUMP
 IGD103I SMS ALLOCATED TO DDNAME SYSIN
 IEF142I PJG#VBLD ASM - STEP WAS EXECUTED - COND CODE 0000
 IEF285I   SYS3.DUMMYMAC                                KEPT
 IEF285I   VOL SER NOS= SYSB02.
 IEF285I   WYL.GG.SYS.MACLIB                            KEPT
 IEF285I   VOL SER NOS= SYSB05.
 IEF285I   WYL.GG.ORV.BC.MACLIB                         KEPT
 IEF285I   VOL SER NOS= SYSB02.
 IEF285I   WYL.GG.ORV.MACLIB.VCATBAT                    KEPT
 IEF285I   VOL SER NOS= SYSB02.
 IEF285I   WYL.GG.ORV.MACLIB                            KEPT
 IEF285I   VOL SER NOS= SYSB02.
 IEF285I   SYS3.MACLIB                                  KEPT
 IEF285I   VOL SER NOS= SYSB02.
 IEF285I   SYS1.MACLIB                                  KEPT
 IEF285I   VOL SER NOS= MVSBR9.
 IGD105I SYS04082.T094531.RA000.PJG#VBLD.SYSUT1.H01   DELETED,   DDNAME=SYSUT1
 IEF285I   GG$PJG.PJG#VBLD.JOB05970.D0000103.?          SYSOUT
 IGD106I SYS04082.T094531.RA000.PJG#VBLD.PRINT.H01    PASSED,    DDNAME=SYSPRINT
 IEF285I   WYL.GG.PJG.OBJ                               KEPT
 IEF285I   VOL SER NOS= SYSB05.
 IEF285I   GG$PJG.PJG#VBLD.JOB05970.D0000104.?          SYSOUT
 IGD105I SYS04082.T094531.RA000.PJG#VBLD.INPUT.H01    DELETED,   DDNAME=SYSIN
 *********************************************************************************
 *   PJG#VBLD/ASM     /                    Return Code      Zero                 *
 *   Region used      8484K (8192K user + 292K system)                           *
 *   Extended region  9952K (412K user + 9540K system)                           *
 *                                                                               *
 *   Paging              In      Out                                             *
 *   Private <-> Aux      0        0       CPU time (TCB)   00:00:03.47          *
 *   Private <-> Exp      0        0       CPU time (SRB)   00:00:00.09          *
 *   VIO                  0        0       Elapsed time    920:42:19.94          *
 *   Common               0      ---                                             *
 *                                                                               *
 *                                                                               *
 *   CPU Usage         65.06        $40.33  Standard Processing Unit Equivalent  *
 *                                  $40.33  Total Step execution charge          *
 *                                                                               *
 *    I/O count  DDname   Type Addr           I/O count  DDname   Type Addr      *
 *          117  SYSLIB   Disk 0402                 164  SYSLIB   Disk 04DC      *
 *            0  SYSLIB   Disk 0402                   0  SYSLIB   Disk 0402      *
 *            0  SYSLIB   Disk 0402                   0  SYSLIB   Disk 0402      *
 *          248  SYSLIB   Disk 04A0                   0  SYSUT1   VIO  ----      *
 *            0  SYSTERM       ----                 193  SYSPRINT Disk 04E3      *
 *            9  SYSLIN   Disk 04DC                   0  SYSUDUMP      ----      *
 *           33  SYSIN    Disk 038B                                              *
 *********************************************************************************
 IEF373I STEP/ASM     /START 2004082.0945
 IEF374I STEP/ASM     /STOP  2004082.0945 CPU    0MIN 03.47SEC SRB    0MIN 00.09SEC VIRT  8192K SYS   292K EXT     412K SYS    9540K
 IEF236I ALLOC. FOR PJG#VBLD $EDIT
 IEF237I 0402 ALLOCATED TO STEPLIB
 IGD103I SMS ALLOCATED TO DDNAME ASMOUT
 IEF237I JES2 ALLOCATED TO SYSPRINT
 IEF237I JES2 ALLOCATED TO SYSUDUMP
 IEF142I PJG#VBLD $EDIT - STEP WAS EXECUTED - COND CODE 0000
 IEF285I   WYL.GG.SYS.LINKLIB                           KEPT
 IEF285I   VOL SER NOS= SYSB02.
 IGD105I SYS04082.T094531.RA000.PJG#VBLD.PRINT.H01    DELETED,   DDNAME=ASMOUT
 IEF285I   GG$PJG.PJG#VBLD.JOB05970.D0000105.?          SYSOUT
 IEF285I   GG$PJG.PJG#VBLD.JOB05970.D0000106.?          SYSOUT
 *********************************************************************************
 *   PJG#VBLD/$EDIT   /                    Return Code      Zero                 *
 *   Region used      388K (116K user + 272K system)                             *
 *   Extended region  9472K (4K user + 9468K system)                             *
 *                                                                               *
 *   Paging              In      Out                                             *
 *   Private <-> Aux      0        0       CPU time (TCB)   00:00:00.78          *
 *   Private <-> Exp      0        0       CPU time (SRB)   00:00:00.02          *
 *   VIO                  0        0       Elapsed time    920:42:02.12          *
 *   Common               0      ---                                             *
 *                                                                               *
 *                                                                               *
 *   CPU Usage         14.62         $9.06  Standard Processing Unit Equivalent  *
 *                                   $9.06  Total Step execution charge          *
 *                                                                               *
 *    I/O count  DDname   Type Addr           I/O count  DDname   Type Addr      *
 *            2  STEPLIB  Disk 0402                 194  ASMOUT   Disk 04E3      *
 *            0  SYSPRINT      ----                   0  SYSUDUMP      ----      *
 *********************************************************************************
 IEF373I STEP/$EDIT   /START 2004082.0945
 IEF374I STEP/$EDIT   /STOP  2004082.0945 CPU    0MIN 00.78SEC SRB    0MIN 00.02SEC VIRT   116K SYS   272K EXT       4K SYS    9468K
 *********************************************************************************
 *                                                                               *
 *                      S t a n f o r d   U n i v e r s i t y                    *
 *                                                                               *
 *                              *** Job Summary ***                              *
 *                                                                               *
 *   System Id      SYSB                   Input time     09:38:31  Mar 22, 2004 *
 *                                                                               *
 *   System Release SP6.1.0                Start time     09:45:31  Mar 22, 2004 *
 *                                                                               *
 *   Job name       PJG#VBLD               Stop  time     00:00:00  Mar 22, 2004 *
 *                                                                               *
 *   Account        PJG$GG                 Elapsed time  920:42:21.68            *
 *                                                                               *
 *   User Name      Module: VBLD           CPU time       00:00:04.33            *
 *                                                                               *
 *   Job class      E                      SRB Time       00:00:00.11            *
 *                                                                               *
 *********************************************************************************
 IEF375I  JOB/PJG#VBLD/START 2004082.0945
 IEF376I  JOB/PJG#VBLD/STOP  2004082.0945 CPU    0MIN 04.33SEC SRB    0MIN 00.11SEC
1Data set successfully converted from EDIT to FB format
1Assembler Done VBLD No Statements Flagged
1         High Level Assembler Option Summary                   (PTF UQ57391)                                               Page    1
-                                                                                            HLASM R4.0  2004/03/22 09.45
0  No Overriding ASMAOPT Parameters
   Overriding Parameters-  SYSPARM(VBLD),TERM,LANG(EN),OBJ,LC(32500),XREF(SHORT),NODECK,NORLD,NODX,NOUS
   No Process Statements


   Options for this Assembly
0  NOADATA
     ALIGN
   NOASA
     BATCH
     CODEPAGE(047C)
   NOCOMPAT
   NODBCS
 3 NODECK
 3 NODXREF
     ESD
   NOEXIT
     FLAG(0,ALIGN,CONT,NOIMPLEN,NOPAGE0,PUSH,RECORD,NOSUBSTR,USING0)
   NOFOLD
   NOGOFF
   NOINFO
 3   LANGUAGE(EN)
   NOLIBMAC
 3   LINECOUNT(32500)
     LIST(121)
     MXREF(SOURCE)
 3   OBJECT
     OPTABLE(UNI,NOLIST)
   NOPCONTROL
   NOPESTOP
   NOPROFILE
   NORA2
   NORENT
 3 NORLD
     RXREF
     SIZE(MAX)
 3   SYSPARM(VBLD)
 3   TERM(WIDE)
   NOTEST
     THREAD
   NOTRANSLATE
 3 NOUSING
 3   XREF(SHORT)

   No Overriding DD Names

1VBLD     External Symbol Dictionary                                                                                        Page    2
-Symbol   Type   Id     Address  Length     LD ID  Flags Alias-of                            HLASM R4.0  2004/03/22 09.45
0VBLD      SD 00000001 00000000 00003848             00
 VBLD21    LD          00000000           00000001
 START     LD          00000016           00000001
 VCNTRL    ER 00000002
 SCINIT    ER 00000003
 SCAN      ER 00000004
 VSEG      ER 00000005
 VWRITE    ER 00000006
 BTD       ER 00000007
 FMTCLCK   ER 00000008
 BTX       ER 00000009
 VFCLS     ER 0000000A
 VFOPN     ER 0000000B
 VFIO      ER 0000000C
 BTDC      ER 0000000D
 VCATENT   ER 0000000E
 FMTDATE   ER 0000000F
 SETREAD1  LD          00002C4E           00000001
 SETWRIT1  LD          00002CDC           00000001
 VWTO      LD          00002D54           00000001
 VTRACE    LD          00002D78           00000001
 VKAPUT    LD          00002D7A           00000001
 VCAT      ER 00000010
 FMTTIME   ER 00000011

1VBLD     ORVYL'S Catalog Re-Build Utility Routine                                                                          Page    3
0Loc    Object Code    Addr1 Addr2  Stmt Lv Lineno    Source Statement                    (Asmedit 3.3)  HLASM R4.0  2004/03/22 09.45
+___    ______ ____    _____ _____  ____ __ ______    ______ _________
0                                      2       2.     ********************************************************************
                                       3       3.     *                                                                  *
                                       4       4.     *      ORVYL/370  Release III - Class I - Stanford Proprietary     *
                                       5       5.     *                                                                  *
                                       6       6.     ********************************************************************
-                                      8       8.              HIBAL ,
 000000                00000 03848   989       9.     VBLD     CSECT ,
                                     993      10.              IDENT 21                  Set module identification
                                     996             +
                                     997    01-IDENT +         ENTRY VBLD21
                                     998             +
 000000 14E5C2D3C4F2F16B             999    01-IDENT +VBLD21   DC    AL1(20),C'VBLD21,22MAR04,09:45'
                                    1000             +*
-
-
                                    1003      12.              REGS  ,,SR,TR,QR,RR,BRR,BR,WAR,RAR,,,,WR
                                    1127      13.     *        REGS  MIX,IX,DSK,NOD,,RQBR,,,CHKR,,FSBR,,CTR   VCAT REGS
                                    1128      14.              REGS  MIX,IX,DSK,NOD,,RQBR,,,CHKR,,FSBR        VCAT REGS
1VBLD     (VBLD21) (09:45) (22MAR04) ORVYL'S Catalog Re-Build Utility Routine                                               Page    4
0Loc    Object Code    Addr1 Addr2  Stmt Lv Lineno    Source Statement           (Hibal 5, Asmedit 3.3)  HLASM R4.0  2004/03/22 09.45
+___    ______ ____    _____ _____  ____ __ ______    ______ _________
0                                   1227      16.     *********************************************************************
                                    1228      17.     *       FUNCTION                                                    *
                                    1229      18.     *                                                                   *
                                    1230      19.     *               1.   Dump Catalog                                   *
                                    1231      20.     *               2.   List Catalog Entrys                            *
                                    1232      21.     *               3.   Verify Catalog Structure                       *
                                    1233      22.     *               4.   Rebuild Catalog                                *
                                    1234      23.     *                      a) from current Catalog                      *
                                    1235      24.     *                      b) from supplied backup                      *
                                    1236      25.     *               5.   Modify/Reformat FSMB and Checkpoint blocks     *
                                    1237      26.     *                                                                   *
                                    1238      27.     *********************************************************************
                                    1239      28.     *                                                                   *
                                    1240      29.     *       PARAMETERS                                                  *
                                    1241      30.     *                                                                   *
                                    1242      31.     *  (NO)LIST     Either list or don't list files to LIST DD          *
                                    1243      32.     *                                                                   *
                                    1244      33.     *  DUMP         Dump Catalog to CATDUMP DD                          *
                                    1245      34.     *                                                                   *
                                    1246      35.     *  REBUILD      Rebuild Catalog                                     *
                                    1247      36.     *                                                                   *
                                    1248      37.     *  RESTART      Use supplied FILS DD for REBUILD instead of         *
                                    1249      38.     *               disecting current Catalog to rebuild                *
                                    1250      39.     *                                                                   *
                                    1251      40.     *  NEWFSMB      Convert FSMB to a new format                        *
                                    1252      41.     *  NEWCHK       Convert CHKPNT block to a new format                *
                                    1253      42.     *  NEWENTRY     Convert Entrys to a new format                      *
                                    1254      43.     *  NOCHKREC     Bypass Checkpoint recovery (for conversion)         *
                                    1255      44.     *  CATSB=nnn    Specify New Catalog Start Block for FSMB            *
                                    1256      45.     *  CATBC=nnn    Specify New Catalog Block Count for FSMB            *
                                    1257      46.     *                                                                   *
                                    1258      47.     *  SYSTEM=parm  Supply file system name for listing                 *
                                    1259      48.     *                                                                   *
                                    1260      49.     *  SPIRES       Write spires file to SPIRES DD                      *
                                    1261      50.     *                                                                   *
                                    1262      51.     *********************************************************************
1VBLD     (VBLD21) (09:45) (22MAR04) ORVYL'S Catalog Re-Build Utility Routine                                               Page    5
0Loc    Object Code    Addr1 Addr2  Stmt Lv Lineno    Source Statement           (Hibal 5, Asmedit 3.3)  HLASM R4.0  2004/03/22 09.45
+___    ______ ____    _____ _____  ____ __ ______    ______ _________
0                                   1264      53.              MACRO
                                    1265      54.     &L       VWRT  &LOC,&LEN
                                    1266      55.     &L       LABEL ,
                                    1267      56.              AIF   ('&LOC' EQ '').NOSEG
                                    1268      57.              VSEG  &LOC,&LEN
                                    1269      58.     .NOSEG   ANOP  ,
                                    1270      59.              LCALL WRTLN
                                    1271      60.              MEND
-                                   1273      62.              MACRO
                                    1274      63.     &L       TOTAL &REG,&SRC,&STAT
                                    1275      64.     &L      $L     &REG,&SRC
                                    1276      65.              A     &REG,&STAT
                                    1277      66.              ST    &REG,&STAT
                                    1278      67.              MEND
-                                   1280      69.              MACRO ,                       CALL VCAT ROUTINE
                                    1281      70.     &L       VCAT  &TYPE,&RET=NOTSET
                                    1282      71.     &L       ST    WR,RQBLWR2              SET UP RQBL STACK
                                    1283      72.              LA    WR,RQBLSAV              Î
                                    1284      73.              L     R3,=V(VCATENT)
                                    1285      74.              LA    R2,KAT&TYPE
                                    1286      75.              AIF   ('&RET' NE 'NOTSET').NOSET
                                    1287      76.              BASR  RAR,R3
                                    1288      77.              AGO   .SET
                                    1289      78.     .NOSET   ANOP  ,
                                    1290      79.              BR    R3
                                    1291      80.     .SET     ANOP  ,
                                    1292      81.              L     WR,RQBLWR2              BACK TO NORMAL STACK
                                    1293      82.              MEND  ,
-                                   1295      84.              MACRO
                                    1296      85.     &L       TOCAT &ROUTINE,&RET=NO,&FILE=NO,&NAME=RQBLNAME
                                    1297      86.     &L       LABEL ,
                                    1298      87.              AIF   ('&RET' NE 'NO').RET
                                    1299      88.     &FUNCT   SETC  '&ROUTINE'
                                    1300      89.              MVI   &NAME.,C' '
                                    1301      90.     &LQ      SETC  'L'''
                                    1302      91.              MVC   &NAME.+1(&LQ&NAME.-1),&NAME      Î
                                    1303      92.              LR    QR,R0                   MOVE NAME INTO "&NAME"
                                    1304      93.              DEX   QR,'MVC &NAME.(0),@R1 ' Î
                                    1305      94.              AIF   ('&FILE' EQ 'NO').NOFIL
                                    1306      95.              LA    R0,FILEMODE
                                    1307      96.              AGO   .FILE
                                    1308      97.     .NOFIL   ANOP  ,
                                    1309      98.              LA    R0,ACCMODE
                                    1310      99.     .FILE    ANOP  ,
                                    1311     100.              AGO   .VCAT
                                    1312     101.     .RET     ANOP  ,
                                    1313     102.              LR    QR,R1                   R1 POINTS AT ENTRY
                                    1314     103.     &FUNCT   SETC  'CONT'
                                    1315     104.     .VCAT    ANOP  ,
                                    1316     105.              VCAT  &FUNCT
1VBLD     (VBLD21) (09:45) (22MAR04) ORVYL'S Catalog Re-Build Utility Routine                                               Page    6
0Loc    Object Code    Addr1 Addr2  Stmt Lv Lineno    Source Statement           (Hibal 5, Asmedit 3.3)  HLASM R4.0  2004/03/22 09.45
+___    ______ ____    _____ _____  ____ __ ______    ______ _________
0                                   1317     106.              MEND
1VBLD     (VBLD21) (09:45) (22MAR04) FILE constants                                                                         Page    7
0Loc    Object Code    Addr1 Addr2  Stmt Lv Lineno    Source Statement           (Hibal 5, Asmedit 3.3)  HLASM R4.0  2004/03/22 09.45
+___    ______ ____    _____ _____  ____ __ ______    ______ _________
0                                   1319     108.              COPY  FILCONST
                                    1320             =         PRINT OFF                     ERRCODE MACRO
0000016                             1337             =DIRCONST BEGIN ,                       VARIOUS AND SUNDRY CONSTANTS
                                    1342  1          =PGESZ      EQU   4096                    ORVYL PAGE SIZE
                                    1343  1          =M1AMSK     EQU   X'00FFFFFF'             Mode 1 address mask
                                    1344  1          =PGEMSK     EQU   M1AMSK-PGESZ+1          PAGE ALIGN MASK
0                                   1346  1          =GRSZ       EQU   6                       ACCOUNT LENGTH
                                    1347  1          =DIRNFER    ERRCODE FIRST=YES             CONDITION: LEAF NOT FOUND
                                    1350  1          =DIRDUPER   ERRCODE ,                     ERROR: CAN'T INS DUPLICATE LEAF
                                    1353  1          =DIRDELAC   ERRCODE ,                     ERROR: CAN'T DEL ACC W/ FILES
                                    1356  1          =DIRNTSZ    ERRCODE ,                     ERROR: INVALID ENTRY SIZE
                                    1359  1          =DIRMODLN   ERRCODE ,                     ERROR: CAN'T CH LEN W/OUT FLAG
                                    1362  1          =DIRRENAC   ERRCODE ,                     ERROR: CAN'T RENAME ACCOUNTS
                                    1365  1          =DIRNMR     ERRCODE ,                     ERROR: NO MORE ROOM IN DIR
                                    1368  1          =DIRSTOV    ERRCODE ,                     ERROR: LIST_STACK OVERFLOW
                                    1371  1          =DIRSTUF    ERRCODE ,                     ERROR: LIST_STACK UNDERFLOW
                                    1374  1          =DIRTAGER   ERRCODE ,                     ERROR: BLOCK TAG MISMATCH
                                    1377  1          =DIRBLKER   ERRCODE ,                     ERROR: BLOCK NUMBER MISMATCH
                                    1380  1          =DIRIOS     ERRCODE ,                     ERROR: NO MORE I/O SPACE
                                    1383  1          =DIRIONF    ERRCODE ,                     ERROR: I/O BUFFER NOT FOUND
                                    1386  1          =DIRNIMP    ERRCODE ,                     CONDITION: NOT IMPLEMENTED
                                    1389  1          =ACCMODE    EQU   0                       INDICATE ACCOUNT MODE
                                    1390  1          =FILEMODE   EQU   4                       INDICATE FILE MODE
                                    1391  1          =CSEQNONT   EQU   16                      SEQ ACC: NO ENTRYS IN THIS TREE
                                    1392  1          =CSEQEND    EQU   8                       SEQ ACC: NO MORE ENTRYS IN TREE
                                    1393  1          =FALLBT     EQU   X'FF'                   A BYTE OF ONES
                                    1394  1          =NIL        EQU   X'FF'                   END OF LIST INDICATOR
                                    1395  1          =CDIRIOM    EQU   X'0100'                 I/O ROUTINES ARE MODULE #1
                                    1396  1          =CDIRDGM    EQU   X'0200'                 DSKGET ROUTINE IS MODULE #2
                                    1397  1          =CDIRDFM    EQU   X'0300'                 DSKFREE ROUTINE IS MODULE #3
                                    1398  1          =CDIRBUG    EQU   X'0400'                 DIRBUG ROUTINES ARE MODULE #4
                                    1399  1          =VIOFREE    EQU   X'7FFFFF00'             CONSTANT TO FREE A BUFFER (AND)
                                    1400  1          =VIOLOCK    EQU   X'000000FF'             CONSTANT TO LOCK A BUFFER (OR)
                                    1401  1          =BITAVAIL   EQU   X'7FFFFF00'             CONSTANT TO FREE A BUFFER (AND)
                                    1402  1          =BITMOD     EQU   X'000000FF'             CONSTANT TO SET BUFFER MOD (OR)
 000016                             1403             =         END   ,                       OF VARIOUS AND SUNDRY CONSTANTS
                                    1407     109.     *         TITLE 'FILECB Definition'
                                    1408     110.     *         COPY  FILECB
1VBLD     (VBLD21) (09:45) (22MAR04) Trace Table Entry Definition                                                           Page    8
0Loc    Object Code    Addr1 Addr2  Stmt Lv Lineno    Source Statement           (Hibal 5, Asmedit 3.3)  HLASM R4.0  2004/03/22 09.45
+___    ______ ____    _____ _____  ____ __ ______    ______ _________
0                                   1410     112.              COPY  TRCENTRY
 000000                00000 00024  1411             =TRCENTRY RECORD BEGIN
                                    1419  1          =*
                                    1420  1          =* THIS DSECT DESCRIBES THE ORVYL TRACE TABLE ENTRY
                                    1421  1          =*
 000000 00                          1422  1          =TRCETYPE   FLAG   ,         TYPE OF THE TRACE ENTRY
 TRCETYPE.TRCFIO   00 EQ            1426  1          =           FLAG   (TRCFIO,X'00',EQ)      I/O
 TRCETYPE.TRCFEXT  10 EQ            1436  1          =           FLAG   (TRCFEXT,X'10',EQ)     EXTERNAL
 TRCETYPE.TRCFSVC  20 EQ            1446  1          =           FLAG   (TRCFSVC,X'20',EQ)     SVC
 TRCETYPE.TRCFPI   30 EQ            1456  1          =           FLAG   (TRCFPI,X'30',EQ)      PI
 TRCETYPE.TRCFTRA  40 EQ            1466  1          =           FLAG   (TRCFTRA,X'40',EQ)     TRACE
 TRCETYPE.TRCFKAP  50 EQ            1476  1          =           FLAG   (TRCFKAP,X'50',EQ)     KAPUT
 TRCETYPE.TRCFABND 60 EQ            1486  1          =           FLAG   (TRCFABND,X'60',EQ)    ABEND
 TRCETYPE.TRCFMCHK 70 EQ            1496  1          =           FLAG   (TRCFMCHK,X'70',EQ)    M CHK
 TRCETYPE.TRCFRSRT 80 EQ            1506  1          =           FLAG   (TRCFRSRT,X'80',EQ)    ESTART KEY
 000001                             1516  1          =           DS     X         FUTURE USE
 000002                             1517  1          =TRCEIC     DS     H         INTERRUPT CODE
 000004                             1518  1          =TRCETS     DS     XL8       TIME STAMP (STCK AT TRACE TIME)
 00000C                             1519  1          =TRCEPSW    DS     XL8       PSW FOR TRACE
 000014                             1520  1          =TRCEREGS   DS     4F        REGISTERS OR DATA
 000024                00024 00024  1521             =         END    ,
1VBLD     (VBLD21) (09:45) (22MAR04) Request Process Block                                                                  Page    9
0Loc    Object Code    Addr1 Addr2  Stmt Lv Lineno    Source Statement           (Hibal 5, Asmedit 3.3)  HLASM R4.0  2004/03/22 09.45
+___    ______ ____    _____ _____  ____ __ ______    ______ _________
0                                   1531     114.              COPY  RPBL
 000000                00000 00100  1532             =RPBDSECT DSECT
                                    1533             =         COPY  RPBBASIC
                                    1534             =*
                                    1535             =*  REQUEST PROCESS BLOCK
                                    1536             =*
 000000                             1537             =RPBSTART DS    0D
 000000                             1538             =RPBFP    DS    A                       FORWARD PTR FREE/ACTIVE CHAIN
 000004                             1539             =RPBBP    DS    A                       BACKWARD PTR ACTIVE CHAIN
 000008                             1540             =RPBRQB   DS    A                       CURRENT REQUEST QUEUE BLOCK
 00000C                             1541             =RPBTASK  DS    H                       CONTROLLING TASK
 00000E                             1542             =RPBDN    DS    H                       DEVICE NUMBER
 000010                             1543             =RPBCL    DS    X                       DEVICE CLASS
 000011 00                          1544             =RPBFL    FLAG  ,                       FLAGS
 RPBFL.RPBFFREE    80 ONES          1548             =         FLAG  RPBFFREE                RPB IS FREE
 RPBFL.RPBFWANT    40 ONES          1553             =         FLAG  RPBFWANT                RPB IS WANTED
 RPBFL.RPBFRES1    20 ONES          1558             =         FLAG  RPBFRES1                AVAILABLE
 RPBFL.RPBFAX      10 ONES          1563             =         FLAG  RPBFAX                  ENTER ATTN EXIT ROUTINE
 RPBFL.RPBFEXVR    08 ONES          1568             =         FLAG  RPBFEXVR                EXCPVR IS TO BE USED
 RPBFL.RPBFSIO     04 ONES          1573             =         FLAG  RPBFSIO                 STARTIO IS TO BE USED
                                    1578             =
 000014                             1579             =RPBDDX   DS    0F                   START OF DEVICE DEPENDENT EXTENSION
                                    1580             =         COPY  RPBIOB
 000014                00014 00014  1581             =         ORG   RPBDDX
 000018                             1582             =RPBIOB   DS    0D
                                    1583             =         COPY  IOB
                                    1584             =***********************************************************************
                                    1585             =*                                                                     *
                                    1586             =*                    STANDARD SECTION OF THE IOB                      *
                                    1587             =*                                                                     *
                                    1588             =***********************************************************************
-
 000018                             1590             =IOBSTDRD DS    0D
0000018                             1592             =IOBFLAG1 DS    B -       FLAG BYTE
                                    1593             =IOBDATCH EQU   X'80' --- DATA CHAINING USED IN CHANNEL PROGRAM
                                    1594             =IOBCMDCH EQU   X'40' --- COMMAND CHAINING USED IN CHANNEL PROGRAM
                                    1595             =IOBERRTN EQU   X'20' --- ERROR ROUTINE IS IN CONTROL
                                    1596             =IOBRPSTN EQU   X'10' --- DEVICE IS TO BE REPOSITIONED
                                    1597             =IOBCYCCK EQU   X'08' --- CYCLIC REDUNDANCY CHECK NEEDED(TAPE ONLY)
                                    1598             =IOBFCREX EQU   X'08' --- FETCH COMMAND RETRY EXIT (DIRECT ACCESS ONLY)
                                    1599             =IOBIOERR EQU   X'04' --- I/O ERROR HAS OCCURRED
                                    1600             =IOBUNREL EQU   X'02' --- THIS I/O REQUEST IS UNRELATED(NON-SEQUENTIAL)
                                    1601             =IOBRSTRT EQU   X'01' --- RESTART ADDR.IN IOB TO BE USED
 000019                             1602             =IOBFLAG2 DS    B -       FLAG BYTE
                                    1603             =IOBHALT  EQU   X'80' --- HALT I/O HAS BEEN ISSUED BY SVC PURGE ROUTINE
                                    1604             =IOBSENSE EQU   X'40' --- ISSUE SENSE COMMAND AFTER DEVICE END OCCURS
                                    1605             =IOBPURGE EQU   X'20' --- IOB HAS BEEN PURGED *ALLOW I/O TO QUIESCE
                                    1606             =IOBRDHA0 EQU   X'10' --- HOME ADDRESS TO BE READ * NO SEEK NEEDED
                                    1607             =IOBALTTR EQU   X'08' --- NO TEST FOR OUT-OF-EXTENT * AN ALTERNATE TRACK
                                    1608             =*                        IS IN USE
                                    1609             =IOBSKUPD EQU   X'04' --- SEEK ADDRESS IS BEING UPDATED -CYLINDER END
                                    1610             =*                        OR FILE MASK VIOLATION HAS OCCURRED
                                    1611             =IOBSTATO EQU   X'02' --- DEVICE END STATUS HAS BEEN ORED WITH
1VBLD     (VBLD21) (09:45) (22MAR04) Request Process Block                                                                  Page   10
0Loc    Object Code    Addr1 Addr2  Stmt Lv Lineno    Source Statement           (Hibal 5, Asmedit 3.3)  HLASM R4.0  2004/03/22 09.45
+___    ______ ____    _____ _____  ____ __ ______    ______ _________
0                                   1612             =*                        CHANNEL END STATUS - GRAPHICS DEVICE
                                    1613             =IOBPNCH  EQU   X'01' --- TURNED ON BY QSAM WHEN ERROR RECOVERY IS TO
                                    1614             =*                        BE PROVIDED FOR THE 2540 CARD PUNCH
 00001A                             1615             =IOBSENS0 DS    B ------- FIRST SENSE BYTE
                                    1616             =IOBS0B0  EQU   X'80' --- BIT 0 (DEVICE DEPENDENT)
                                    1617             =IOBS0B1  EQU   X'40' --- BIT 1 (DEVICE DEPENDENT)
                                    1618             =IOBS0B2  EQU   X'20' --- BIT 2 (DEVICE DEPENDENT)
                                    1619             =IOBS0B3  EQU   X'10' --- BIT 3 (DEVICE DEPENDENT)
                                    1620             =IOBS0B4  EQU   X'08' --- BIT 4 (DEVICE DEPENDENT)
                                    1621             =IOBS0B5  EQU   X'04' --- BIT 5 (DEVICE DEPENDENT)
                                    1622             =IOBS0B6  EQU   X'02' --- BIT 6 (DEVICE DEPENDENT)
                                    1623             =IOBS0B7  EQU   X'01' --- BIT 7 (DEVICE DEPENDENT)
                                    1624             =IOBSNSC9 EQU   X'01' --- CHANNEL 9 SENSED IN CARRIAGE TAPE
 00001B                             1625             =IOBSENS1 DS    B ------- SECOND SENSE BYTE
                                    1626             =IOBS1B0  EQU   X'80' --- BIT 0 (DEVICE DEPENDENT)
                                    1627             =IOBS1B1  EQU   X'40' --- BIT 1 (DEVICE DEPENDENT)
                                    1628             =IOBS1B2  EQU   X'20' --- BIT 2 (DEVICE DEPENDENT)
                                    1629             =IOBS1B3  EQU   X'10' --- BIT 3 (DEVICE DEPENDENT)
                                    1630             =IOBS1B4  EQU   X'08' --- BIT 4 (DEVICE DEPENDENT)
                                    1631             =IOBS1B5  EQU   X'04' --- BIT 5 (DEVICE DEPENDENT)
                                    1632             =IOBS1B6  EQU   X'02' --- BIT 6 (DEVICE DEPENDENT)
                                    1633             =IOBS1B7  EQU   X'01' --- BIT 7 (DEVICE DEPENDENT)
 00001C                             1634             =IOBECBPT DS    0A ------ ADDRESS OF ECB TO BE POSTED ON I/O COMPLETION
 00001C                             1635             =IOBECBCC DS    CL1 ---- COMPLETION CODE FOR THIS I/O REQUEST
 00001D                             1636             =IOBECBPB DS    AL3 ----- ADDRESS OF ECB TO BE POSTED ON I/O COMPLETION
 000020                             1637             =IOBFLAG3 DS    B ------- ERROR ROUTINE FLAG BYTE
 000021                             1638             =IOBCSW   DS    CL7 ----- LOW ORDER 7 BYTES OF CSW AT CHANNEL END
 000028                             1639             =IOBSTART DS    0A ------ ADDRESS OF CHANNEL PROGRAM
 000028                             1640             =IOBSIOCC DS    B ------- BITS 2 AND 3 = C.C. FROM SIO
 000029                             1641             =IOBSTRTB DS    AL3 ----- ADDRESS OF CHANNEL PROGRAM
 00002C                             1642             =IOBDCBPT DS    0A ------ ADDRESS OF DATA CONTROL BLOCK FOR THIS IOB
 00002C                             1643             =IOBRSV36 DS    XL1 ----- RESERVED
 00002D                             1644             =IOBDCBPB DS    AL3 ----- ADDRESS OF DATA CONTROL BLOCK FOR THIS IOB
 000030                             1645             =IOBRESTR DS    0A ------ RESTART ADDRESS FOR ERROR RETRY
 000030                             1646             =IOBREPOS DS    CL1 ----- CODE USED TO REPOSITION DEVICE
 000031                             1647             =IOBRSTRB DS    AL3 ----- RESTART ADDRESS FOR ERROR RETRY
 000034                             1648             =IOBINCAM DS    0H ------ VALUE USED TO INCREMENT BLOCK COUNT ON TAPE
 000034                             1649             =IOBBTAMF DS    B ------- FLAG BYTE FOR BTAM
                                    1650             =IOBPRMER EQU   X'80' --- 'SAD','ENABLE' ISSUED BY OPEN CAUSED I/O ERROR
                                    1651             =IOBINUSE EQU   X'40' --- IOB IS IN USE
                                    1652             =IOBRSV14 EQU   X'20',,C'X' RESERVED
                                    1653             =IOBRSV15 EQU   X'10',,C'X' RESERVED
                                    1654             =IOBRSV16 EQU   X'08',,C'X' RESERVED
                                    1655             =IOBRSV17 EQU   X'04',,C'X' RESERVED
                                    1656             =IOBRFTMG EQU   X'02' --- INDICATES A REQUEST-FOR-TEST MESSAGE FROM A
                                    1657             =*                        REMOTE 3270                             ICB478
                                    1658             =IOBOLTST EQU   X'01' --- LINE IS UNDER ON-LINE TEST OPERATION
 000035                             1659             =IOBRSV19 DS    XL1 ----- RESERVED
0000036                00036 00034  1661             =         ORG   IOBINCAM
 000034                             1662             =IOBCRDCC DS    CL1 ----- OPTICAL READER: DATA CHECK ERROR COUNT
 000035                             1663             =IOBCRILC DS    CL1 ----- OPTICAL READER: INCORRECT LENGTH ERROR COUNT
-000036                             1665             =IOBERRCT DS    H ------- NUMBER OF ERROR RETRIES
1VBLD     (VBLD21) (09:45) (22MAR04) Request Process Block                                                                  Page   11
0Loc    Object Code    Addr1 Addr2  Stmt Lv Lineno    Source Statement           (Hibal 5, Asmedit 3.3)  HLASM R4.0  2004/03/22 09.45
+___    ______ ____    _____ _____  ____ __ ______    ______ _________
0
                                    1667             =***********************************************************************
                                    1668             =*                                                                     *
                                    1669             =*                   EXTENSION SECTIONS OF THE IOB                     *
                                    1670             =*                                                                     *
                                    1671             =***********************************************************************
0000038                             1673             =IOBEXTEN DS    0D
0                                   1675             =*                            ******************************************
                                    1676             =*                            *                                        *
                                    1677             =*                            *  DIRECT ACCESS EXTENSION ** 16 BYTES   *
                                    1678             =*                            *                                        *
                                    1679             =*                            ******************************************
0000038                             1681             =IOBSEEK  DS    0CL8 ----
 000038                             1682             =IOBM     DS    CL1 ----- RELATIVE EXTENT NUMBER FOR THIS REQUEST(0-15)
 000039                             1683             =IOBBB    DS    0CL2 ---- BIN NUMBER(DATA CELL)
 000039                             1684             =IOBBB1   DS    CL1
 00003A                             1685             =IOBBB2   DS    CL1
 00003B                             1686             =IOBCC    DS    0CL2 ---- CYLINDER NUMBER
 00003B                             1687             =IOBCC1   DS    CL1
 00003C                             1688             =IOBCC2   DS    CL1
 00003D                             1689             =IOBHH    DS    0CL2 ---- TRACK NUMBER
 00003D                             1690             =IOBHH1   DS    CL1
 00003E                             1691             =IOBHH2   DS    CL1
 00003F                             1692             =IOBR     DS    CL1 ----- RECORD NUMBER
                                    1693             =IOBAREA  EQU   IOBSTDRD,*-IOBSTDRD,C'R'         LENGTH OF IOB
                                    1694             =
 000040                             1695             =IOBLIMIT DS    CL8 ----- LIMIT ADDRESS FOR EXTENDED SEARCHES
 000048                             1696             =IOBCHAIN DS    A                       COMPLETION CHAIN
 00004C                             1697             =RPBIOST  DS    A                       I/O START TIME
 000050                             1698             =RPBSRB   DS    A                       I/O SRB
 000054                             1699             =RPBIOSB  DS    A                       IOSB
 000058                             1700             =RPBUCB   DS    A                       UCB ADDRESS
 00005C                             1701             =RPBIOBX  DS    0A                      END OF IOB AREA
                                    1702             =         COPY  RPBFILE
                                    1703             =*
                                    1704             =*  FILE SERVICE EXTENSION (CLASS 2)
                                    1705             =*
 00005C                0005C 0005C  1706             =         ORG   RPBIOBX
                                    1707             =
 000060                             1708             =RPBLCCCW DS    D                       SET SECTOR CCW
 000068                             1709             =RPBLSCCW DS    D                       SEARCH CCW
 000070                             1710             =RPBLTCCW DS    D                       TIC CCW
 000078                             1711             =RPBLICCW DS    D                       READ/WRITE ID CCW
 000080                             1712             =RPBLFCCW DS    D                       READ/WRITE CCW
 000088                             1713             =RPBLIDAW DS    D                       INDIRECT ADDRESS WORDS
                                    1714             =RPBLLCCW EQU   RPBLIDAW                SECOND CCW
 000090                             1715             =RPBLIDRD DS    XL80                    AREA TO READ ID INTO
                                    1716             =RPBLIDLN EQU   RPBLIDRD+6,2            USER DATA LENGTH
 0000E0                             1717             =RPBLSECT DS    X                       SECTOR NUMBER
                                    1718             =
 0000E1                000E1 00100  1719             =         ORG   RPBSTART+X'100'         16 RPBLS PER PAGE
                                    1720             =
 000100                             1721             =RPBLNEXT DS    0D
1VBLD     (VBLD21) (09:45) (22MAR04) Request Process Block                                                                  Page   12
0Loc    Object Code    Addr1 Addr2  Stmt Lv Lineno    Source Statement           (Hibal 5, Asmedit 3.3)  HLASM R4.0  2004/03/22 09.45
+___    ______ ____    _____ _____  ____ __ ______    ______ _________
0                                   1722             =RPBL     EQU   RPBSTART,*-RPBSTART
 000100                             1723             =         DS    0S(L'RPBL-256,256-L'RPBL)  LENGTH CHECK
                                    1724             =
1VBLD     (VBLD21) (09:45) (22MAR04) File System Master Block                                                               Page   13
0D-Loc  Object Code    Addr1 Addr2  Stmt Lv Lineno    Source Statement           (Hibal 5, Asmedit 3.3)  HLASM R4.0  2004/03/22 09.45
+_____  ______ ____    _____ _____  ____ __ ______    ______ _________
0                                   1726     116.              COPY  FSMB
 000000                00000 00800  1727             =FSMB     RECORD BEGIN
                                    1735  1          =*
                                    1736  1          =*  FILE SYSTEM MASTER BLOCK  (DISK RESIDENT)
                                    1737  1          =*
 000000                             1738  1          =FSMSTART   DC    0D'0'                   FILE SYSTEM BLOCK START
 000000 C7C74BE4E4E4                1739  1          =FSMOWNER   DC    CL6'GG.UUU' NOT USED ** FILE-SYSTEM MASTER ACCOUNT
0000006 00                          1741  1          =FSMOFLGS   FLAG  ,                       FILE-SYSTEM OPTIONS
 FSMOFLGS.FSMOSE   80 ONES          1745  1          =           FLAG  FSMOSE   ** NOT USED **      SECURITY ERASE
0                                   1751  1          =*
                                    1752  1          =*  FILE-SYSTEM BLOCK LIMITS
                                    1753  1          =*                AND AVAILABLE BLOCKS
                                    1754  1          =*
 000008                             1755  1          =FSMMBLK    DS    A        ** NOT USED ** MAXIMUM BLOCK ALLOCATION
 00000C                             1756  1          =FSMTBLK    DS    A        ** NOT USED ** TOTAL NUMBER OF BLOCKS
 000010                             1757  1          =FSMDBLK    DS    A        ** NOT USED ** DEFAULT BLOCK ALLOCATION
 000014                             1758  1          =FSMNAME    DS    CL8      ** NOT USED ** FILE-SYSTEM NAME
 00001C                             1759  1          =FSMSYMB    DS    CL8      ** NOT USED ** FILE-SYSTEM DATA SET NAME
 000024                             1760  1          =FSMCATSB   DS    A                       CATALOGUE STARTING BLOCK
 000028                             1761  1          =FSMCATBC   DS    A                       CATALOGUE BLOCK COUNT
 00002C                             1762  1          =FSMBITSB   DS    A                       BIT-MAP STARTING BLOCK
 000030                             1763  1          =FSMBITBC   DS    A                       BIT-MAP BLOCK COUNT
                                    1764  1          =FSML1      EQU   FSMMBLK,*-FSMMBLK,C'X'
 000034                             1765  1          =FSMDSCNT   DS    H        ** NOT USED ** DATA SETS COMPRISING SYSTEM
                                    1766  1          =*
                                    1767  1          =*
 000036                             1768  1          =FSMAUCNT   DS    X        ** NOT USED ** ALLOWED-USER ACTIVE COUNT
 000037 00                                1
 000038                             1769  1          =           CNOP   0,4
 000038                             1770  1          =FSMBALST   DS     0X
 000038                             1771  1          =FSMDSZ     DS     Y                 Size of disk block
 00003A                             1772  1          =FSMDAVA    DS     Y                 Available space per block
 00003C                             1773  1          =FSMDTAGX   DS     Y                 Offset of end tag in block
 00003E                             1774  1          =FSMNALEN   DS     Y                 Account: Length of node
 000040                             1775  1          =FSMNASPA   DS     Y                 Î Free space in node
 000042                             1776  1          =FSMTAXLN   DS     Y                 Î Maximum length of entry
 000044                             1777  1          =FSMNAMXL   DS     Y                 Î Max len of entry in node
 000046                             1778  1          =FSMNAXSP   DS     Y                 Î Max free space per node
 000048                             1779  1          =FSMNANSP   DS     Y                 Î Min free space per node
 00004A                             1780  1          =FSMNFLEN   DS     Y                 File: Length of node
 00004C                             1781  1          =FSMNFSPA   DS     Y                 Î Free space in node
 00004E                             1782  1          =FSMTFXLN   DS     Y                 Î Maximum length of entry
 000050                             1783  1          =FSMNFMXL   DS     Y                 Î Max len of entry in node
 000052                             1784  1          =FSMNFXSP   DS     Y                 Î Max free space per node
 000054                             1785  1          =FSMNFNSP   DS     Y                 Î Min free space per node
 000056                             1786  1          =FSMTXXLN   DS     Y                 Max len of extended data entry
 000058                             1787  1          =FSMLOGFR   DS     Y                 Minimum logical block count
 00005A                             1788  1          =FSMMNFRE   DS     Y                 Minimum number of free blks in Cat
                                    1789  1          =FSMBALLN   EQU    *-FSMBALST
                                    1790  1          =FSMBALX    EQU    *                 End of balance parms
 00005C 07000700                    1791  1          =           CNOP   0,8                    FORCE ALIGNMENT
0                                   1793  1          =*
                                    1794  1          =*  FILE-SYSTEM VOLUME TABLE, MAXIMUM OF 128 VOLUMES
1VBLD     (VBLD21) (09:45) (22MAR04) File System Master Block                                                               Page   14
0D-Loc  Object Code    Addr1 Addr2  Stmt Lv Lineno    Source Statement           (Hibal 5, Asmedit 3.3)  HLASM R4.0  2004/03/22 09.45
+_____  ______ ____    _____ _____  ____ __ ______    ______ _________
0                                   1795  1          =*  IN FILE-SYSTEM
                                    1796  1          =*
 000060                00060 00500  1797  1          =           ORG   FSMSTART+1280           ORIGIN OUT
 000500                             1798  1          =FSMVOLS    DS    128CL6   ** NOT USED ** ROOM FOR 128 VOLUME SERIALS
 000800                00800 00800  1799             =         END   ,
1VBLD     (VBLD21) (09:45) (22MAR04) FSB Definition                                                                         Page   15
0D-Loc  Object Code    Addr1 Addr2  Stmt Lv Lineno    Source Statement           (Hibal 5, Asmedit 3.3)  HLASM R4.0  2004/03/22 09.45
+_____  ______ ____    _____ _____  ____ __ ______    ______ _________
0                                   1809     118.              COPY  FSB
 000000                00000 001E0  1810             =FSB      RECORD BEGIN
                                    1818  1          =CCAT0PCT   EQU   10                      % OF FREE BLOCKS FOR WARNING
                                    1819  1          =CCAT0MIN   EQU   60                      MIN FREE BEFORE WARNING
                                    1820  1          =CCAT1PCT   EQU   5                       % OF MIN LOGICAL FREE BLOCKS
                                    1821  1          =CCAT1MIN   EQU   60                      MIN FREE LOGICAL BLOCK NUM
                                    1822  1          =CCAT2PCT   EQU   1                       % OF MIN FREE BLOCKS
                                    1823  1          =CCAT2MIN   EQU   10                      MIN FREE BLOCK NUM
                                    1824  1          =
                                    1825  1          =CNODA99    EQU   72,72,C'N'              99th percentile
                                    1826  1          =CNODF99    EQU   65,65,C'N'              Non permit len, no per, max name
                                    1827  1          =
                                    1828  1          =CFSBFLSZ   EQU   40                      MAX FIL NAME LEN(DOTS, ~"ORV.")
                                    1829  1          =CFSBNDOT   EQU   38                      MAX FIL NAME LEN(~DOTS, ~"ORV.")
                                    1830  1          =CFSBNMSZ   EQU   33                      MAX NAME LEN TO SEARCH
                                    1831  1          =CFSBDBLK   EQU   3                       3 DOUBLE WRITE BLOCKS
                                    1832  1          =CFSBSTK    EQU   7                       STACK DEPTH OF 7
                                    1833  1          =CFSBMXNT   EQU   256+41                  MAX ENTRY LENGTH
                                    1834  1          =OBLKPL     EQU   3,3,C'N'                ORVYL FILE BLOCK POINTER LEN
                                    1835  1          =BL         EQU   2,2,C'N'                BLOCK POINTER LEN
                                    1836  1          =OL         EQU   2,2,C'N'                OFFSET POINTER LEN
                                    1837  1          =PL         EQU   BL+OL,BL+OL,C'N'        TOTAL POINTER LEN
                                    1838  1          =           GBLA  &BL,&L
                                    1839  1          =&BL        SETA  L'BL
                                    1840  1          =&L         SETA  L'PL                    TOTAL POINTER LENGTH
                                    1841  1          =*
                                    1842  1          =*  FILE SYSTEM BLOCK
                                    1843  1          =*
 000000 C6E2C240                    1844  1          =FSBBID     DC    CL4'FSB'                BLOCK ID
                                    1845  1          =
 000004                             1846  1          =FSBCHAIN   DS    A                       NEXT FSB ON CHAIN
                                    1847  1          =
 000008                             1848  1          =FSBID      DS    X                       FILE-SYSTEM ID NUMBER
                                    1849  1          =
 000009 00                          1850  1          =FSBAFLGS   FLAG  ,                       FILE-SYSTEM AVAILABILITY
 FSBAFLGS.FSBANAVL 80 ONES          1854  1          =           FLAG  FSBANAVL                NOT AVAILABLE
 FSBAFLGS.FSBARO   40 ONES          1859  1          =           FLAG  FSBARO                  READ-ONLY STATUS
 FSBAFLGS.FSBINIT  20 ONES          1864  1          =           FLAG  FSBINIT                 INITIALIZATION PROCESS
 FSBAFLGS.FSBCLOSE 10 ONES          1869  1          =           FLAG  FSBCLOSE                SHUTDOWN PROCESS
 FSBAFLGS.FSBCATNI 08 ONES          1874  1          =           FLAG  FSBCATNIN               CATALOG IN NoInsert MODE
 FSBAFLGS.FSBCATNL 04 ONES          1879  1          =           FLAG  FSBCATNLM               CATALOG IN NoLenMod MODE
                                    1884  1          =
 00000A 00                          1885  1          =FSBSFLGS   FLAG  ,                       FILE-SYSTEM STATUS
 FSBSFLGS.FSBSPROD 80 ONES          1889  1          =           FLAG  FSBSPROD                PRODUCTION FILE SYSTEM
 FSBSFLGS.FSBSABRO 40 ONES          1894  1          =           FLAG  FSBSABRO                ALLOW BATCH THOUGH R/O
 FSBSFLGS.FSBSTEMP 20 ONES          1899  1          =           FLAG  FSBSTEMP                DEDICATED TO TEMP FILES
                                    1904  1          =
 00000B 00                          1905  1          =FSBOFLGS   FLAG  ,                       FILE-SYSTEM OPTIONS
 FSBOFLGS.FSBONIXR 80 ONES          1909  1          =           FLAG  FSBONIXR                NON-IXR FILES ALLOWED
 FSBOFLGS.FSBFCACH 40 ONES          1914  1          =           FLAG  FSBFCACHE               Use file block caching
 FSBOFLGS.FSBHCACH 20 ONES          1919  1          =           FLAG  FSBHCACHE               Use hiperspace caching
                                    1924  1          =
 00000C                             1925  1          =FSBFRDB    DS    A                       FIRST RDB FOR FILE-SYSTEM
 000010                             1926  1          =FSBLRDB    DS    A                       LAST RDB FOR FILE-SYSTEM
 000014                             1927  1          =FSBDDN     DS    CL4                     DDNAME
 000018                             1928  1          =FSBNAME    DS    CL8                     FILE-SYSTEM NAME
1VBLD     (VBLD21) (09:45) (22MAR04) FSB Definition                                                                         Page   16
0D-Loc  Object Code    Addr1 Addr2  Stmt Lv Lineno    Source Statement           (Hibal 5, Asmedit 3.3)  HLASM R4.0  2004/03/22 09.45
+_____  ______ ____    _____ _____  ____ __ ______    ______ _________
0000020 C7C74BE4E4E4                1929  1          =FSBOWNER   DC    CL6'GG.UUU'             FILE-SYSTEM MASTER ACCOUNT
                                    1930  1          =
 000026                             1931  1          =           DS    XL2                     Spare
                                    1932  1          =
 000028                             1933  1          =FSBCGRI    DS    A                       Catalog general resource id
 00002C                             1934  1          =FSBRBT     DS    A                       Read Buffer Table Pointer
 000030                             1935  1          =FSBCACHE   DS    A                       Cache table pointer
 000034                             1936  1          =FSBCACHS   DS    A                       System cache table pointer
 000038                             1937  1          =           DS    A                       Spare
 00003C                             1938  1          =FSBAHFB    DS    A                       File attached hash table
 000040                             1939  1          =FSBIOP     DS    A                       File IO parm buffers
                                    1940  1          =*
                                    1941  1          =*  CATALOG MANAGEMENT AREA
                                    1942  1          =*
 000044                             1943  1          =FSBCATSB   DS    A                       CATALOGUE START BLOCK
 000048                             1944  1          =FSBCATBC   DS    A                       CATALOGUE BLOCK COUNT
                                    1945  1          =*SBBMALO DS    A   ** MOVE TO STATS ** ALLOCATION REQUESTS
                                    1946  1          =*SBBMALS DS    A   ** MOVE TO STATS ** ALLOCATION NOT CACHED
                                    1947  1          =*SBBMFRE DS    A   ** MOVE TO STATS ** BITMAP RELEASES
                                    1948  1          =*SBBMFRS DS    A   ** MOVE TO STATS ** BITMAP RELEASES - TO SYS
 00004C                             1949  1          =           DS    4A                      Available
                                    1950  1          =CFSBBL     EQU   4                       FSB BLOCK PTR LEN
                                    1951  1          =CFSBPL     EQU   8,8,C'N'                FSB POINTER LEN (BLOCK + ADDR)
                                    1952  1          =CFSBBUF    EQU   8,8,C'N'                8 CAT BLOCK BUFFERS ALLOWED
 00005C                             1953  1          =FSBBLKTOP   DS   A                       POINTS TO LAST BUFFER SLOT
 000060                             1954  1          =FSBCHKA    DS    A                       CHECK POINT BUFFER ADDRESS
 000064                             1955  1          =FSBROOTB   DS    A                       BLOCK NUMBER IN ROOT BUFFER
 000068                             1956  1          =FSBROOTA   DS    A                       | ADDRESS OF ROOT BUFFER
 00006C                             1957  1          =FSBBLK1    DS    A                       BLOCK NUMBER IN 1ST BUFFER
 000070                             1958  1          =FSBBUF1    DS    A                       | ADDRESS OF 1ST BUFFER
                                    1959  1          =&BUFLEN    SETA  (L'CFSBBUF-1)*L'CFSBPL
                                    1960  1          =           DS    &BUFLEN.X               | LEN OF REMAINING BUF SLOTS
 000074                                   1          +           DS    56X                     | LEN OF REMAINING BUF SLOTS
                                    1961  1          =*
                                    1962  1          =*  Catalog Balancing Parameters
                                    1963  1          =*
 0000AC                             1964  1          =FSBBALST   DS    0X
 0000AC                             1965  1          =FSBDSZ     DS    Y                       Size of disk block
 0000AE                             1966  1          =FSBDAVA    DS    Y                       Available space per block
 0000B0                             1967  1          =FSBDTAGX   DS    Y                       Offset of end tag in block
 0000B2                             1968  1          =FSBNALEN   DS    Y                       Account: Length of node
 0000B4                             1969  1          =FSBNASPA   DS    Y                       | Free space in node
 0000B6                             1970  1          =FSBTAXLN   DS    Y                       | Maximum length of entry
 0000B8                             1971  1          =FSBNAMXL   DS    Y                       | Max len of entry in node
 0000BA                             1972  1          =FSBNAXSP   DS    Y                       | Max free space per node
 0000BC                             1973  1          =FSBNANSP   DS    Y                       | Min free space per node
 0000BE                             1974  1          =FSBNFLEN   DS    Y                       File: Length of node
 0000C0                             1975  1          =FSBNFSPA   DS    Y                       | Free space in node
 0000C2                             1976  1          =FSBTFXLN   DS    Y                       | Maximum length of entry
 0000C4                             1977  1          =FSBNFMXL   DS    Y                       | Max len of entry in node
 0000C6                             1978  1          =FSBNFXSP   DS    Y                       | Max free space per node
 0000C8                             1979  1          =FSBNFNSP   DS    Y                       | Min free space per node
 0000CA                             1980  1          =FSBTXXLN   DS    Y                       Max len of extended data entry
 0000CC                             1981  1          =FSBLOGFR   DS    Y                       Minimum logical block count
 0000CE                             1982  1          =FSBMNFRE   DS    Y                       Min num of free blks in Cat
                                    1983  1          =FSBBALLN   EQU   *-FSBBALST
1VBLD     (VBLD21) (09:45) (22MAR04) FSB Definition                                                                         Page   17
0D-Loc  Object Code    Addr1 Addr2  Stmt Lv Lineno    Source Statement           (Hibal 5, Asmedit 3.3)  HLASM R4.0  2004/03/22 09.45
+_____  ______ ____    _____ _____  ____ __ ______    ______ _________
0                                   1984  1          =*
                                    1985  1          =*  BITMAP MANAGEMENT AREA
                                    1986  1          =*
 0000D0                             1987  1          =FSBBMCNO   DS    Y                       SPECIFIED CNT BLK# IN AVAIL LIST
 0000D4                             1988  1          =FSBBITSB   DS    A                       BIT MAP FIRST BLOCK
 0000D8                             1989  1          =FSBBITBC   DS    A                       BIT MAP BLOCK COUNT
 0000DC                             1990  1          =FSBABLK    DS    A                       NUMBER OF AVAILABLE BLOCKS
 0000E0                             1991  1          =FSBTBLK    DS    A                       TOTAL NUMBER OF BLOCKS
 0000E4                             1992  1          =FSBDBLK    DS    A                       DEFAULT BLOCK ALLOCATION
 0000E8                             1993  1          =FSBABNL    DS    A                       AVAILABLE BLOCK NUMBER LIST
                                    1994  1          =
 0000EC                             1995  1          =FSBSMF     DS    2A                      SMF STATISTICS WORK AREA
 0000F4                             1996  1          =FSBSTATS   DS    0X
 0000F4                             1997  1          =FSBCTRD    DS    F                       CATALOG READ COUNTER
 0000F8                             1998  1          =FSBCTRRD   DS    F                       CATALOG ROOT "READ" COUNTER
 0000FC                             1999  1          =FSBCTCRD   DS    F                       CATALOG CASHED READ COUNTER
 000100                             2000  1          =FSBCTBRD   DS    F                       CATALOG BALANCE READ COUNTER
 000104                             2001  1          =FSBCTWR    DS    F                       CATALOG WRITE COUNTER
 000108                             2002  1          =FSBCTIWR   DS    F                       CATALOG INTENTIONS WRITE CNT
 00010C                             2003  1          =FSBCTBWR   DS    F                       CATALOG BALANCE WRITE COUNTER
 000110                             2004  1          =FSBCTDWR   DS    F                       CATALOG DOUBLE WRITE COUNTER
                                    2005  1          =*
                                    2006  1          =*  Total IO's and IO time
                                    2007  1          =*
 000114                             2008  1          =FSBIOCT    DS    F                   Total I/O count
 000118                             2009  1          =FSBIOTIM   DS    D                   Total I/O time
                                    2010  1          =
 000120                             2011  1          =FSBCAT4K   DS    F                   Cat io 4K buffer (2K file sys only)
                                    2012  1          =
 000124                             2013  1          =CTFILATT   DS    F                   Number of files attached
 000128                             2014  1          =CTFILATM   DS    F                   | max number attached
 00012C                             2015  1          =CTFILAUS   DS    F                   Number of user attaches
 000130                             2016  1          =CTFILAUM   DS    F                   | max number of user attaches
 000134                             2017  1          =CTFILATP   DS    F                   Number of temp files attached
 000138                             2018  1          =CTFILAPM   DS    F                   | max number of temp files attached
000013C                             2020  1          =           DS    F                   Spare
                                    2021  1          =*
                                    2022  1          =* Note: don't modify the following counters in any way unless
                                    2023  1          =*       FILECB and the routine FDOIODO are also modified.
                                    2024  1          =*
                                    2025  1          =*  File read counts from disk
                                    2026  1          =*
 000140                             2027  1          =FSBFIOCT   DS    0D                  First IO count
 000140                             2028  1          =CTREADCT   DS    0D
 000140                             2029  1          =CTMASRCT   DS    D                   Master - read counts
 000148                             2030  1          =CTCATRCT   DS    D                   Catalog - read counts
 000150                             2031  1          =CTBITRCT   DS    D                   Bitmap - read counts
 000158                             2032  1          =CTIXRRCT   DS    D                   IXR - read counts
 000160                             2033  1          =CTUSERCT   DS    D                   User  - read counts
 000168                             2034  1          =CTOTHRCT   DS    D                   Other?? - read counts
                                    2035  1          =*
                                    2036  1          =* Counter indexes - All counters are referenced with the
                                    2037  1          =* generic label and using one of the following indexes.
                                    2038  1          =*
                                    2039  1          =CTMASD     EQU   CTMASRCT-CTREADCT
1VBLD     (VBLD21) (09:45) (22MAR04) FSB Definition                                                                         Page   18
0D-Loc  Object Code    Addr1 Addr2  Stmt Lv Lineno    Source Statement           (Hibal 5, Asmedit 3.3)  HLASM R4.0  2004/03/22 09.45
+_____  ______ ____    _____ _____  ____ __ ______    ______ _________
0                                   2040  1          =CTCATD     EQU   CTCATRCT-CTREADCT
                                    2041  1          =CTBITD     EQU   CTBITRCT-CTREADCT
                                    2042  1          =CTIXRD     EQU   CTIXRRCT-CTREADCT
                                    2043  1          =CTUSED     EQU   CTUSERCT-CTREADCT
                                    2044  1          =CTOTHD     EQU   CTOTHRCT-CTREADCT
                                    2045  1          =*
                                    2046  1          =*  File write counts
                                    2047  1          =*
 000170                             2048  1          =CTWRITCT   DS    0D
 000170                             2049  1          =CTMASWCT   DS    D                   Master - writes
 000178                             2050  1          =CTCATWCT   DS    D                   Catalog - writes
 000180                             2051  1          =CTBITWCT   DS    D                   Bitmap -  writes
 000188                             2052  1          =CTIXRWCT   DS    D                   IXR - writes
 000190                             2053  1          =CTUSEWCT   DS    D                   User -  writes
 000198                             2054  1          =CTOTHWCT   DS    D                   Other?? - writes
                                    2055  1          =FSBFIOCN   EQU   (*-FSBFIOCT)/L'FSBFIOCT
                                    2056  1          =*
                                    2057  1          =*  File read counts from cache
                                    2058  1          =*
 0001A0                             2059  1          =FSBFCACT   DS    0D                  First cache count
 0001A0                             2060  1          =CTCACHCT   DS    0D
 0001A0                             2061  1          =CTMASCCT   DS    D                   Master - read counts
 0001A8                             2062  1          =CTCATCCT   DS    D                   Catalog - read counts
 0001B0                             2063  1          =CTBITCCT   DS    D                   Bitmap - read counts
 0001B8                             2064  1          =CTIXRCCT   DS    D                   IXR - read counts
 0001C0                             2065  1          =CTUSECCT   DS    D                   User  - read counts
 0001C8                             2066  1          =CTOTHCCT   DS    D                   Other?? - read counts
                                    2067  1          =
                                    2068  1          =CTREADD    EQU   CTREADCT-FSBFIOCT
                                    2069  1          =CTWRITD    EQU   CTWRITCT-FSBFIOCT
                                    2070  1          =CTCACHD    EQU   CTCACHCT-FSBFIOCT
                                    2071  1          =
                                    2072  1          =FSBFCACN   EQU   (*-FSBFCACT)/L'FSBFCACT
                                    2073  1          =CTFILECT   EQU   CTREADCT,*-CTREADCT
                                    2074  1          =CTFILECC   EQU   (*-CTREADCT)/L'CTREADCT
00001D0                             2076  1          =           DS    4A                  Spare
00001E0                001E0 001E0  2078             =         END   ,
1VBLD     (VBLD21) (09:45) (22MAR04) Checkpoint Block Definition                                                            Page   19
0D-Loc  Object Code    Addr1 Addr2  Stmt Lv Lineno    Source Statement           (Hibal 5, Asmedit 3.3)  HLASM R4.0  2004/03/22 09.45
+_____  ______ ____    _____ _____  ____ __ ______    ______ _________
0                                   2088     120.              COPY  CHKPNT
                                    2089             =         PRINT OFF                     CHKPREC MACRO
0000000                00000 00008  2114             =CHKDSTK  RECORD BEGIN                  STACK ENTRY DEFINITIONS
 000000                             2122  1          =CHKSTBK    DS    AL(BL)                  BLOCK
 000002                             2123  1          =CHKSTNO    DS    AL(OL)                  NODE OFFSET
 000004                             2124  1          =CHKSTEO    DS    AL(OL)                  ENTRY OFFSET
 000006 00                          2125  1          =CHKSTFLG   FLAG  ,                       STACK FLAGS
 CHKSTFLG.CHKSTFOL 80 ONES          2129  1          =           FLAG  CHKSTFOLD               TRUE = This node is old
 000007                             2134  1          =           DS    X                       ** AVAILABLE **
 000008                00008 00008  2135             =         END   ,                       OF STACK ENTRY DEFINITIONS
-000000                00000 00640  2145             =CHKPNT   RECORD BEGIN                  CHECKPOINT CONTROL BLOCK
                                    2153  1          =CCHKSTK    EQU   7                       STACK DEPTH OF 7
                                    2154  1          =**
 000000                             2155  1          =CHKSTART   DS    0X                      START OF CHECKPOINT BLOCK
 000000                             2156  1          =CHKTIME    DS    D                       TIME OF WRITE ("STCK")
 000008                             2157  1          =CHKDWRT    DS    AL(BL)                  1ST DOUBLE WRITE BLOCK
 00000A                             2158  1          =CHKROOTB   DS    AL(BL)                  ROOT LOCATION (BLOCK)
 00000C                             2159  1          =CHKROOTN   DS    AL(OL)                  | (OFFSET)
 00000E                             2160  1          =CHKFBNO    DS    AL(BL)                  NUMBER OF FREE BLOCKS
 000010                             2161  1          =CHKFREB    DS    AL(BL)                  FIRST FREE BLOCK ADDRESS
 000012                             2162  1          =CHKNXDB    DS    AL(BL)                  NEXT AVAILABLE DATA BLOCK
                                    2163  1          =CHKANCH    EQU   CHKFREB,*-CHKFREB,C'R'  CHAIN ANCHORS
                                    2164  1          =CHKCHAIN   EQU   CHKFBNO,*-CHKFBNO,C'R'  CHAIN DATA
 000014                             2165  1          =           DS    2A
                                    2166  1          =*
                                    2167  1          =* CHECKPOINT SEARCH BLOCK
                                    2168  1          =*
 00001C                             2169  1          =CHKSFLG    DS    0X                      START OF FLAGS
 00001C 00                          2170  1          =CHKFLG     FLAG  ,                       REENTRANT FLAGS. 1/ATOMIC ACTION
 CHKFLG.CHKFACC    80 ONES          2174  1          =           FLAG  CHKFACC                 TRUE = Acc search; FALSE = File
 CHKFLG.CHKFMOD    40 ONES          2179  1          =           FLAG  CHKFMOD                 TRUE = Intent to modify entry
 CHKFLG.CHKFPER    20 ONES          2184  1          =           FLAG  CHKFPER                 Search for permits
 CHKFLG.CHKFINS    10 ONES          2189  1          =           FLAG  CHKFINS                 Insert in progress
 CHKFLG.CHKFDEL    08 ONES          2194  1          =           FLAG  CHKFDEL                 Delete in progress
 CHKFLG.CHKFLEAF   04 ONES          2199  1          =           FLAG  CHKFLEAF                Leaf is being operated on
 CHKFLG.CHKFLFTU   02 ONES          2204  1          =           FLAG  CHKFLFTU                Left sibling needs updating
 CHKFLG.CHKFRHTU   01 ONES          2209  1          =           FLAG  CHKFRHTU                Right sibling needs updating
 00001D 00                          2214  1          =CHKFLG2    FLAG  ,
 CHKFLG2.CHKFBAL   80 ONES          2218  1          =           FLAG  CHKFBAL                 Need to balance (NODBAL)
 CHKFLG2.CHKF3BAL  40 ONES          2223  1          =           FLAG  CHKF3BAL                Min 3 nodes in balance (NODBAL)
 CHKFLG2.CHKFDSRC  20 ONES          2228  1          =           FLAG  CHKFDSRC                Delete source of move (NODBAL)
 CHKFLG2.CHKFDLXT  10 ONES          2233  1          =           FLAG  CHKFDLXT                Del extended data area (NTRYCHG)
 CHKFLG2.CHKFINXT  08 ONES          2238  1          =           FLAG  CHKFINXT                Ins extended data area (NTRYCHG)
 CHKFLG2.CHKFXTAV  04 ONES          2243  1          =           FLAG  CHKFXTAV                Ext data block avail (NTRYCHG)
 CHKFLG2.CHKFNBLK  02 ONES          2248  1          =           FLAG  CHKFNBLK                New block on traverse
                                    2253  1          =CHKFLGS    EQU   CHKSFLG,*-CHKSFLG,C'R'
 00001E                             2254  1          =           DS    AL2                     ** AVAILABLE **
 000020                             2255  1          =CHKPT      DS    0X                      SEARCH POINTERS
 000020                             2256  1          =           CHKPREC PTRS=PAR              Parent pointers
 000020                             2260  1 01-02101 +CHKPARA    DS    A                       | Buffer address
 000024                             2261  1 01-02102 +CHKPARB    DS    AL(BL)                  | Block number
 000026                             2262  1 01-02103 +CHKPARN    DS    AL(OL)                  | Offset
 000028                             2266  1          =           CHKPREC PTRS=LFT              Left sibling pointers
1VBLD     (VBLD21) (09:45) (22MAR04) Checkpoint Block Definition                                                            Page   20
0D-Loc  Object Code    Addr1 Addr2  Stmt Lv Lineno    Source Statement           (Hibal 5, Asmedit 3.3)  HLASM R4.0  2004/03/22 09.45
+_____  ______ ____    _____ _____  ____ __ ______    ______ _________
0000028                             2270  1 01-02101 +CHKLFTA    DS    A                       | Buffer address
 00002C                             2271  1 01-02102 +CHKLFTB    DS    AL(BL)                  | Block number
 00002E                             2272  1 01-02103 +CHKLFTN    DS    AL(OL)                  | Offset
 000030                             2276  1          =           CHKPREC PTRS=CUR              Current sibling pointers
 000030                             2280  1 01-02101 +CHKCURA    DS    A                       | Buffer address
 000034                             2281  1 01-02102 +CHKCURB    DS    AL(BL)                  | Block number
 000036                             2282  1 01-02103 +CHKCURN    DS    AL(OL)                  | Offset
 000038                             2286  1          =           CHKPREC PTRS=RHT              Right sibling pointers
 000038                             2290  1 01-02101 +CHKRHTA    DS    A                       | Buffer address
 00003C                             2291  1 01-02102 +CHKRHTB    DS    AL(BL)                  | Block number
 00003E                             2292  1 01-02103 +CHKRHTN    DS    AL(OL)                  | Offset
                                    2296  1          =CHKSPNT    EQU   CHKPT,*-CHKPT,C'R'      LEN OF SEARCH POINTERS
 000040                             2297  1          =           CHKPREC PTRS=NT               Entry pointers
 000040                             2301  1 01-02101 +CHKNTA     DS    A                       | Buffer address
 000044                             2302  1 01-02102 +CHKNTB     DS    AL(BL)                  | Block number
 000046                             2303  1 01-02103 +CHKNTN     DS    AL(OL)                  | Offset
 000048                             2307  1          =           CHKPREC PTRS=WRK              Work pointers
 000048                             2311  1 01-02101 +CHKWRKA    DS    A                       | Buffer address
 00004C                             2312  1 01-02102 +CHKWRKB    DS    AL(BL)                  | Block number
 00004E                             2313  1 01-02103 +CHKWRKN    DS    AL(OL)                  | Offset
 000050                             2317  1          =           CHKPREC PTRS=2WR              2nd work pointers
 000050                             2321  1 01-02101 +CHK2WRA    DS    A                       | Buffer address
 000054                             2322  1 01-02102 +CHK2WRB    DS    AL(BL)                  | Block number
 000056                             2323  1 01-02103 +CHK2WRN    DS    AL(OL)                  | Offset
 000058                             2327  1          =           CHKPREC PTRS=ACC              Account entry pointers
 000058                             2331  1 01-02101 +CHKACCA    DS    A                       | Buffer address
 00005C                             2332  1 01-02102 +CHKACCB    DS    AL(BL)                  | Block number
 00005E                             2333  1 01-02103 +CHKACCN    DS    AL(OL)                  | Offset
 000060                             2337  1          =           CHKPREC PTRS=BAL              Balance-Causing pointers
 000060                             2341  1 01-02101 +CHKBALA    DS    A                       | Buffer address
 000064                             2342  1 01-02102 +CHKBALB    DS    AL(BL)                  | Block number
 000066                             2343  1 01-02103 +CHKBALN    DS    AL(OL)                  | Offset
 000068                             2347  1          =           CHKPREC PTRS=SEQ              Sequential Access pointers
 000068                             2351  1 01-02101 +CHKSEQA    DS    A                       | Buffer address
 00006C                             2352  1 01-02102 +CHKSEQB    DS    AL(BL)                  | Block number
 00006E                             2353  1 01-02103 +CHKSEQN    DS    AL(OL)                  | Offset
 000070                             2357  1          =           CHKPREC PTRS=SEQE             Sequential Access Extended ptrs
 000070                             2361  1 01-02101 +CHKSEQEA   DS    A                       | Buffer address
 000074                             2362  1 01-02102 +CHKSEQEB   DS    AL(BL)                  | Block number
 000076                             2363  1 01-02103 +CHKSEQEN   DS    AL(OL)                  | Offset
                                    2367  1          =CHKAPNT    EQU   CHKPT,*-CHKPT,C'R'      LENGTH OF POINTERS
 000078                             2368  1          =CHKCHKA    DS    A                       POINTER TO RECOVERY CHECKPOINT
 00007C                             2369  1          =CHKBSAD    DS    A                       BALANCE WORK AREA - SOURCE ADDR
 000080                             2370  1          =CHKBDAD    DS    A                       | DESTINATION ADDR
 000084                             2371  1          =CHKBLAD    DS    A                       | LEFT ADDR
 000088                             2372  1          =CHKBCAD    DS    A                       | CURRENT ADDR
 00008C                             2373  1          =CHKBRAD    DS    A                       | RIGHT ADDR
 000090                             2374  1          =CHKBLPA    DS    A                       | LEFT PARENT ADDR
 000094                             2375  1          =CHKBRPA    DS    A                       | RIGHT PARENT ADDR
 000098                             2376  1          =CHKBNPA    DS    A                       | NEW PARENT ADDR
 00009C                             2377  1          =CHKBSLN    DS    Y                       | SOURCE LEN
 00009E                             2378  1          =CHKBSN     DS    Y                       | SOURCE NUMBER OF ENTRYS
 0000A0                             2379  1          =CHKBDLN    DS    Y                       | DESTINATION LEFT LEN
 0000A2                             2380  1          =CHKBLLN    DS    Y                       | LEFT LEN
 0000A4                             2381  1          =CHKBCLN    DS    Y                       | CURRENT LEN
 0000A6                             2382  1          =CHKBRLN    DS    Y                       | RIGHT LEN
1VBLD     (VBLD21) (09:45) (22MAR04) Checkpoint Block Definition                                                            Page   21
0D-Loc  Object Code    Addr1 Addr2  Stmt Lv Lineno    Source Statement           (Hibal 5, Asmedit 3.3)  HLASM R4.0  2004/03/22 09.45
+_____  ______ ____    _____ _____  ____ __ ______    ______ _________
00000A8                             2383  1          =CHKBLPL    DS    Y                       | LEFT PARENT LEN
 0000AA                             2384  1          =CHKBRPL    DS    Y                       | RIGHT PARENT LEN
 0000AC                             2385  1          =CHKBNPL    DS    Y                       | NEW PARENT LEN
 0000AE                             2386  1          =CHKSPAC    DS    Y                       | SPACE IN BALANCE
 0000B0                             2387  1          =CHKNODN    DS    Y                       | NUM OF NODES IN BALANCE
 0000B4                             2388  1          =           DS    4A
 0000C4                             2389  1          =CHKFNMSZ   DS    X                       NAME LEN
 0000C5                             2390  1          =CHKFNAME   DS    CL(CFSBNDOT)            ACTUAL NAME (NO DOTS)
 0000EB                             2391  1          =           DS    0SL2(CHKFNAME-CHKFNMSZ-1,CHKFNMSZ-(CHKFNAME-1))
 0000EB                             2392  1          =CHKFRNMS   DS    X                       RENAME LEN
 0000EC                             2393  1          =CHKFRNAM   DS    CL(CFSBNDOT)            ACTUAL RENAME (NO DOTS)
 000112                             2394  1          =           DS    0SL2(CHKFRNAM-CHKFRNMS-1,CHKFRNMS-(CHKFRNAM-1))
 000112                             2395  1          =CHKFIX     DS    0X
                                    2396  1          =*
                                    2397  1          =* VARIABLE INTENTIONS INDICATORS
                                    2398  1          =*
 000112                             2399  1          =CHKISTRT   DS    0H                      START OF INTENTIONS BLOCK
 000112                             2400  1          =CHKITYPE   DS    X                       Type of transaction taking place
 000113                             2401  1          =CHKIFLG    DS    X                       FLAG
 000114                             2402  1          =CHKIFBNO   DS    AL(BL)                  Old_Free_Block_Num
 000116                             2403  1          =CHKIFREB   DS    AL(BL)                  Old_Free_Block
 000118                             2404  1          =CHKINXDB   DS    AL(BL)                  Old_Next_Leaf_Block
                                    2405  1          =CHKICHAN   EQU   CHKIFBNO,*-CHKIFBNO,C'R'         Old_Chain_Data
 00011A                             2406  1          =CHKIVAR    DS    0X                      START OF VAR INTENTIONS FIELD
                                    2407  1          =*
                                    2408  1          =* Insert Tree Root
 00011A                0011A 0011A  2409  1          =           ORG   CHKIVAR
                                    2410  1          =CCHKRTIN   EQU   4                       TRANSACTION TYPE (Insert root)
                                    2411  1          =* Entrys are the same as Entry Insert
                                    2412  1          =*
                                    2413  1          =* Delete Tree Root
 00011A                0011A 0011A  2414  1          =           ORG   CHKIVAR
                                    2415  1          =CCHKRTDL   EQU   8                       TRANSACTION TYPE (Delete root)
                                    2416  1          =* Entrys are the same as Entry Delete
                                    2417  1          =*
                                    2418  1          =* Split Root Node
 00011A                0011A 0011A  2419  1          =           ORG   CHKIVAR
                                    2420  1          =CCHKRTSP   EQU   12                      TRANSACTION TYPE (Split root)
 00011A                             2421  1          =CHKIRSPB   DS    AL(BL)                  Root_Split-Parent_Block
 00011C                             2422  1          =CHKIRSPN   DS    AL(OL)                  Root_Split-Parent_Node_Offset
 00011E                             2423  1          =CHKIRSLB   DS    AL(BL)                  Root_Split-Left_Block
 000120                             2424  1          =CHKIRSLN   DS    AL(OL)                  Root_Split-Left_Node_Offset
 000122                             2425  1          =CHKIRSCB   DS    AL(BL)                  Root_Split-Cur_Block
 000124                             2426  1          =CHKIRSCN   DS    AL(OL)                  Root_Split-Cur_Node_Offset
                                    2427  1          =*
                                    2428  1          =* Collapse Root Node
 000126                00126 0011A  2429  1          =           ORG   CHKIVAR
                                    2430  1          =CCHKRTCL   EQU   16                      TRANSACTION TYPE (Collapse root)
 00011A                             2431  1          =CHKIRCPB   DS    AL(BL)                  Root_Collapse-Parent_Block
 00011C                             2432  1          =CHKIRCPN   DS    AL(OL)                  Root_Collapse-Parent_Node_Offset
 00011E                             2433  1          =CHKIRCLB   DS    AL(BL)                  Root_Collapse-Left_Block
 000120                             2434  1          =CHKIRCLN   DS    AL(OL)                  Root_Collapse-Left_Node_Offset
 000122                             2435  1          =CHKIRCCB   DS    AL(BL)                  Root_Collapse-Cur_Block
 000124                             2436  1          =CHKIRCCN   DS    AL(OL)                  Root_Collapse-Cur_Node_Offset
                                    2437  1          =*
                                    2438  1          =* Balance nodes (No Insert or Delete)
1VBLD     (VBLD21) (09:45) (22MAR04) Checkpoint Block Definition                                                            Page   22
0D-Loc  Object Code    Addr1 Addr2  Stmt Lv Lineno    Source Statement           (Hibal 5, Asmedit 3.3)  HLASM R4.0  2004/03/22 09.45
+_____  ______ ____    _____ _____  ____ __ ______    ______ _________
0000126                00126 0011A  2439  1          =           ORG   CHKIVAR
                                    2440  1          =CCHKNBAL   EQU   20                      TRANSACTION TYPE (Balance nodes)
 00011A                             2441  1          =CHKINBPB   DS    AL(BL)                  Node_Balance-Parent_Block
 00011C                             2442  1          =CHKINBPN   DS    AL(OL)                  Node_Balance-Parent_Node_Offset
 00011E                             2443  1          =CHKINBPC   DS    XL(4-BL)                Node_Balance-Parent_Clock_Tag
 000120                             2444  1          =CHKINBLB   DS    AL(BL)                  Node_Balance-Left_Block
 000122                             2445  1          =CHKINBLN   DS    AL(OL)                  Node_Balance-Left_Node_Offset
 000124                             2446  1          =CHKINBCB   DS    AL(BL)                  Node_Balance-Current_Block
 000126                             2447  1          =CHKINBCN   DS    AL(OL)                  Node_Balance-Current_Node_Offset
 000128                             2448  1          =CHKINBRB   DS    AL(BL)                  Node_Balance-Right_Block
 00012A                             2449  1          =CHKINBRN   DS    AL(OL)                  Node_Balance-Right_Node_Offset
                                    2450  1          =*
                                    2451  1          =* Balance nodes (With Insert)
 00012C                0012C 0011A  2452  1          =           ORG   CHKIVAR
                                    2453  1          =CCHKBINS   EQU   24                      TRANSACTION TYPE (Balance - ins)
 00011A                             2454  1          =CHKIBIPB   DS    AL(BL)                  Balance_Insert-Parent_Block
 00011C                             2455  1          =CHKIBIPN   DS    AL(OL)                  Balance_Ins-Parent_Node_Offset
 00011E                             2456  1          =CHKIBIPC   DS    XL(4-BL)                Balance_Insert-Parent_Clock_Tag
 000120                             2457  1          =CHKIBILB   DS    AL(BL)                  Balance_Insert-Left_Block
 000122                             2458  1          =CHKIBILN   DS    AL(OL)                  Balance_Insert-Left_Node_Offset
 000124                             2459  1          =CHKIBICB   DS    AL(BL)                  Balance_Insert-Current_Block
 000126                             2460  1          =CHKIBICN   DS    AL(OL)                  Balance_Ins-Current_Node_Offset
 000128                             2461  1          =CHKIBIRB   DS    AL(BL)                  Balance_Insert-Right_Block
 00012A                             2462  1          =CHKIBIRN   DS    AL(OL)                  Balance_Insert-Right_Node_Offset
 00012C                             2463  1          =CHKIBIRC   DS    XL(4-BL)                Balance_Ins-Right_Clock_Tag
                                    2464  1          =*
                                    2465  1          =* Balance nodes (With Delete)
 00012E                0012E 0011A  2466  1          =           ORG   CHKIVAR
                                    2467  1          =CCHKBDEL   EQU   28                      TRANSACTION TYPE (Balance - del)
 00011A                             2468  1          =CHKIBDPB   DS    AL(BL)                  Balance_Delete-Parent_Block
 00011C                             2469  1          =CHKIBDPN   DS    AL(OL)                  Balance_Del-Parent_Node_Offset
 00011E                             2470  1          =CHKIBDPC   DS    XL(4-BL)                Balance_Delete-Parent_Clock_Tag
 000120                             2471  1          =CHKIBDLB   DS    AL(BL)                  Balance_Delete-Left_Block
 000122                             2472  1          =CHKIBDLN   DS    AL(OL)                  Balance_Delete-Left_Node_Offset
 000124                             2473  1          =CHKIBDCB   DS    AL(BL)                  Balance_Delete-Current_Block
 000126                             2474  1          =CHKIBDCN   DS    AL(OL)                  Balance_Del-Current_Node_Offset
 000128                             2475  1          =CHKIBDOB   DS    AL(BL)                  Balance_Delete-Old(Del)_Block
 00012A                             2476  1          =CHKIBDON   DS    AL(OL)                  Balance_Del-Old(Del)_Node_Offset
 00012C                             2477  1          =CHKIBDOC   DS    XL(4-BL)                Balance_Delete-Old_Clock_Tag
                                    2478  1          =*
                                    2479  1          =* Modify Entry
                                    2480  1          =*   Current, Old, and New fields should be the same for Mod, Ins, and
                                    2481  1          =* Del entry
 00012E                0012E 0011A  2482  1          =           ORG   CHKIVAR
                                    2483  1          =CCHKNTRY   EQU   32                      TRANSACTION TYPE (Entry Mods)
 00011A                             2484  1          =CHKINTCB   DS    AL(BL)                  Entry-Current_Block
 00011C                             2485  1          =CHKINTCN   DS    AL(OL)                  Entry-Current_Node_Offset
 00011E                             2486  1          =CHKINTCT   DS    AL(OL)                  Entry-Current_enTry_Offset
 000120                             2487  1          =CHKINTCL   DS    AL(BL)                  Entry-Current_Link
 000122                             2488  1          =CHKINTCC   DS    XL(4-BL)                Entry-Current_Clock_Tag
 000124                             2489  1          =CHKINTOB   DS    AL(BL)                  Entry-Old_Data_Block
 000126                             2490  1          =CHKINTON   DS    AL(OL)                  Entry-Old_Data_Offset
 000128                             2491  1          =CHKINTOL   DS    AL(BL)                  Entry-Old_Data_Block_Link
 00012A                             2492  1          =CHKINTOC   DS    XL(4-BL)                Entry-Old_Data_Clock_Tag
 00012C                             2493  1          =CHKINTOF   DS    X                       Entry-Old_Data_Block_Flags
 00012D                             2494  1          =           DS    X
1VBLD     (VBLD21) (09:45) (22MAR04) Checkpoint Block Definition                                                            Page   23
0D-Loc  Object Code    Addr1 Addr2  Stmt Lv Lineno    Source Statement           (Hibal 5, Asmedit 3.3)  HLASM R4.0  2004/03/22 09.45
+_____  ______ ____    _____ _____  ____ __ ______    ______ _________
000012E                             2495  1          =CHKINTNB   DS    AL(BL)                  Entry-New_Data_Block
 000130                             2496  1          =CHKINTNN   DS    AL(OL)                  Entry-New_Data_Offset
 000132                             2497  1          =CHKINTNL   DS    AL(BL)                  Entry-New_Data_Block_Link
 000134                             2498  1          =CHKINTNC   DS    XL(4-BL)                Entry-New_Data_Clock_Tag
 000136                             2499  1          =CHKINTNF   DS    X                       Entry-New_Data_Block_Flags
                                    2500  1          =*
                                    2501  1          =* Insert Entry
                                    2502  1          =*   Current, Old, and New fields should be the same for Mod, Ins, and
                                    2503  1          =* Del entry
 000137                00137 0011A  2504  1          =           ORG   CHKIVAR
                                    2505  1          =CCHKNTIN   EQU   36                      TRANSACTION TYPE (Insert Entry)
 00011A                             2506  1          =CHKINICB   DS    AL(BL)                  Entry_Insert-Current_Block
 00011C                             2507  1          =CHKINICN   DS    AL(OL)                  Entry_Ins-Current_Node_Offset
 00011E                             2508  1          =CHKINICT   DS    AL(OL)                  Entry_Ins-Current_enTry_Offset
 000120                             2509  1          =CHKINICL   DS    AL(BL)                  Entry_Insert-Current_Link
 000122                             2510  1          =CHKINICC   DS    XL(4-BL)                Entry_Insert-Cur_Clock_Tag
 000124                             2511  1          =CHKINIOB   DS    AL(BL)                  Entry_Insert-Old_Data_Block
 000126                             2512  1          =CHKINION   DS    AL(OL)                  Entry_Insert-Old_Data_Offset
 000128                             2513  1          =CHKINIOL   DS    AL(BL)                  Entry_Insert-Old_Data_Block_Link
 00012A                             2514  1          =CHKINIOC   DS    XL(4-BL)                Entry_Insert-Old_Data_Clock_Tag
 00012C                             2515  1          =CHKINIOF   DS    X                       Entry_Ins-Old_Data_Block_Flags
 00012D                             2516  1          =           DS    X
 00012E                             2517  1          =CHKININB   DS    AL(BL)                  Entry_Insert-New_Data_Block
 000130                             2518  1          =CHKININN   DS    AL(OL)                  Entry_Insert-New_Data_Offset
 000132                             2519  1          =CHKININL   DS    AL(BL)                  Entry_Insert-New_Data_Block_Link
 000134                             2520  1          =CHKININC   DS    XL(4-BL)                Entry_Insert-New_Data_Clock_Tag
 000136                             2521  1          =CHKININF   DS    X                       Entry_Ins-New_Data_Block_Flags
 000137                             2522  1          =           DS    X
 000138                             2523  1          =CHKINIAB   DS    AL(BL)                  Entry_Ins-Acc_Entry_Blk (Files)
 00013A                             2524  1          =CHKINIAN   DS    AL(OL)                  Entry_Ins-Acc_Entry_Node_Offset|
 00013C                             2525  1          =CHKINIAC   DS    XL(4-BL)                Entry_Ins-Acc_Entry_Clock_Tag
                                    2526  1          =*
                                    2527  1          =* Delete Entry
                                    2528  1          =*   Current, Old, and New fields should be the same for Mod, Ins, and
                                    2529  1          =* Del entry
 00013E                0013E 0011A  2530  1          =           ORG   CHKIVAR
                                    2531  1          =CCHKNTDL   EQU   40                      TRANSACTION TYPE (Delete Entry)
 00011A                             2532  1          =CHKINDCB   DS    AL(BL)                  Entry_Delete-Current_Block
 00011C                             2533  1          =CHKINDCN   DS    AL(OL)                  Entry_Delete-Current_Node_Offset
 00011E                             2534  1          =CHKINDCT   DS    AL(OL)                  Entry_Del-Current_enTry_Offset
 000120                             2535  1          =CHKINDCL   DS    AL(BL)                  Entry_Delete-Current_Link
 000122                             2536  1          =CHKINDCC   DS    XL(4-BL)                Entry_Delete-Current_Clock_Tag
 000124                             2537  1          =CHKINDOB   DS    AL(BL)                  Entry_Delete-Old_Data_Block
 000126                             2538  1          =CHKINDON   DS    AL(OL)                  Entry_Delete-Old_Data_Offset
 000128                             2539  1          =CHKINDOL   DS    AL(BL)                  Entry_Del-Old_Data_Block_Link
 00012A                             2540  1          =CHKINDOC   DS    XL(4-BL)                Entry_Delete-Old_Data_Clock_Tag
 00012C                             2541  1          =CHKINDOF   DS    X                       Entry_Del-Old_Data_Block_Flags
 00012D                             2542  1          =           DS    X
 00012E                             2543  1          =CHKINDNB   DS    AL(BL)                  Entry_Delete-New_Data_Block
 000130                             2544  1          =CHKINDNN   DS    AL(OL)                  Entry_Delete-New_Data_Offset
 000132                             2545  1          =CHKINDNL   DS    AL(BL)                  Entry_Del-New_Data_Block_Link
 000134                             2546  1          =CHKINDNC   DS    XL(4-BL)                Entry_Delete-New_Data_Clock_Tag
 000136                             2547  1          =CHKINDNF   DS    X                       Entry_Del-New_Data_Block_Flags
 000137                             2548  1          =           DS    X
 000138                             2549  1          =CHKINDAB   DS    AL(BL)                  Entry_Del-Account_Entry_Block
 00013A                             2550  1          =CHKINDAN   DS    AL(OL)                  Entry_Del-Account_Entry__Offset
1VBLD     (VBLD21) (09:45) (22MAR04) Checkpoint Block Definition                                                            Page   24
0D-Loc  Object Code    Addr1 Addr2  Stmt Lv Lineno    Source Statement           (Hibal 5, Asmedit 3.3)  HLASM R4.0  2004/03/22 09.45
+_____  ______ ____    _____ _____  ____ __ ______    ______ _________
000013C                             2551  1          =CHKINDAC   DS    XL(4-BL)                Entry_Delete-Account_Clock_Tag
 00013E                             2552  1          =CHKIND2B   DS    AL(BL)                  Entry_Del-2nd_Entry_Block (Leaf)
 000140                             2553  1          =CHKIND2N   DS    AL(OL)                  Entry_Del-2nd_Entry_Node_Offset
 000142                             2554  1          =CHKIND2C   DS    XL(4-BL)                Entry_Del-2nd_Entry_Clock_Tag
                                    2555  1          =**
 000144                00144 00144  2556  1          =           ORG   ,
 000144                             2557  1          =           DS    4A
                                    2558  1          =CHKIV1LN   EQU   CHKIVAR,*-CHKIVAR,C'N'
                                    2559  1          =CHKIVLV1   EQU   CHKISTRT,*-CHKISTRT,C'R'         1ST VAR INTENTIONS BLK
-000154                             2561  1          =CHKI2ST    DS    0X                      START OF 2ND LEVEL OF INTENTIONS
 000154                             2562  1          =CHKI2TYP   DS    X                       Type of transaction taking place
 000155                             2563  1          =CHKI2FLG   DS    X                       FLAG
 000156                             2564  1          =CHKI2VAR   DS    0X
                                    2565  1          =*
                                    2566  1          =* Balance leaves after non-leaf delete
                                    2567  1          =CCHKDBAL   EQU   4                       TRANSACTION TYPE (Bal after del)
 000156                             2568  1          =CHKIDBAB   DS    AL(BL)                  Delete_Balance-Account_Block
 000158                             2569  1          =CHKIDBAN   DS    AL(OL)                  Delete_Balance-Account_Offset
 00015A                             2570  1          =CHKIDBAS   DS    H                       Del_Balance-Acc_Stack_Pointer
 00015C                             2571  1          =CHKIDBSZ   DS    X                       Delete_Balance-Entry_Name_Size
 00015D                             2572  1          =CHKIDBNM   DS    CL(CFSBNDOT)            Delete_Balance-Entry_Name
 000184                             2573  1          =           DS    4A
                                    2574  1          =CHKIV2LN   EQU   CHKI2VAR,*-CHKI2VAR,C'N'
                                    2575  1          =CHKIVLV2   EQU   CHKISTRT,*-CHKISTRT,C'R'         2ND VAR INTENTIONS BLK
-000194                             2577  1          =CHKI3ST    DS    0X                      START OF 3rd LEVEL OF INTENTIONS
 000194                             2578  1          =CHKI3TYP   DS    X                       Type of transaction taking place
 000195                             2579  1          =CHKI3FLG   DS    X                       FLAG
 000196                             2580  1          =CHKI3VAR   DS    0X
                                    2581  1          =*
                                    2582  1          =* Rename entry
                                    2583  1          =CCHKREN    EQU   4                       TRANSACTION TYPE (Rename entry)
                                    2584  1          =CCHKBREN   EQU   8                       | (Backup Rename - NMR)
 000196                             2585  1          =CHKIERAB   DS    AL(BL)                  Entry_Rename-Account_Block
 000198                             2586  1          =CHKIERAN   DS    AL(OL)                  Entry_Rename-Account_Offset
 00019A                             2587  1          =CHKIERAS   DS    H                       Entry_Rename-Acc_Stack_Pointer
 00019C                             2588  1          =CHKIERCB   DS    AL(BL)                  Entry_Rename-Cur_Block
 00019E                             2589  1          =CHKIERCN   DS    AL(OL)                  Entry_Rename-Cur_Node_Offset
 0001A0                             2590  1          =CHKIERCT   DS    AL(OL)                  Entry_Rename-Cur_enTry_Offset
 0001A2 00                          2591  1          =CHKIERFL   FLAG  ,                       Entry_Rename-Flag
 CHKIERFL.RENLEAF  80 ONES          2595  1          =           FLAG  RENLEAF                 Entry_Rename-Flag-Leaf_Rename
 CHKIERFL.RENRTDL  40 ONES          2600  1          =           FLAG  RENRTDL                 Entry_Rename-Flag-Root_Delete
 0001A3                             2605  1          =CHKIEROS   DS    X                       Entry_Rename-Old_entry_Name_Size
 0001A4                             2606  1          =CHKIERON   DS    CL(CFSBNDOT)            Entry_Rename-Old_entry_Name
 0001CA                             2607  1          =           DS    0SL2(CHKIERON-CHKIEROS-1,CHKIEROS-(CHKIERON-1))
 0001CA                             2608  1          =CHKIERNS   DS    X                       Entry_Rename-New_entry_Name_Size
 0001CB                             2609  1          =CHKIERNN   DS    CL(CFSBNDOT)            Entry_Rename-New_entry_Name
 0001F1                             2610  1          =           DS    0SL2(CHKIERNN-CHKIERNS-1,CHKIERNS-(CHKIERNN-1))
 0001F4                             2611  1          =           DS    4A
                                    2612  1          =CHKIV3LN   EQU   CHKI3VAR,*-CHKI3VAR,C'N'
                                    2613  1          =CHKIVLV3   EQU   CHKISTRT,*-CHKISTRT,C'R'         3rd VAR INTENTIONS BLK
 000204                             2614  1          =           DS    0F
 000204                             2615  1          =CHKINTRY   DS    512X                    Space for largest ntry (fil/acc)
1VBLD     (VBLD21) (09:45) (22MAR04) Checkpoint Block Definition                                                            Page   25
0D-Loc  Object Code    Addr1 Addr2  Stmt Lv Lineno    Source Statement           (Hibal 5, Asmedit 3.3)  HLASM R4.0  2004/03/22 09.45
+_____  ______ ____    _____ _____  ____ __ ______    ______ _________
0000404                             2616  1          =           DS                            0F
 000404                             2617  1          =CHKIRNT    DS    512X                    |
 000604                             2618  1          =           DS    0SL2(512-CFSBMXNT)
                                    2619  1          =*
                                    2620  1          =*        Tree traversal stack
                                    2621  1          =*
 000604                             2622  1          =CHKACSP    DS    H                       CUR ACCOUNT STACK POINTER
 000606                             2623  1          =CHKSTKP    DS    H                       STACK POINTER
                                    2624  1          =&CHKDST    SETA  L'CHKDSTK               | ROOM FOR 'CCHKSTK' ENTRYS
                                    2625  1          =CHKSTAK    DS    (CCHKSTK)XL(&CHKDST)    |
 000608                                   1          +CHKSTAK    DS    (CCHKSTK)XL(8)          |
 000640                00640 00640  2626             =         END   ,                       OF CHECKPOINT RECORD
1VBLD     (VBLD21) (09:45) (22MAR04) RQB Definition                                                                         Page   26
0D-Loc  Object Code    Addr1 Addr2  Stmt Lv Lineno    Source Statement           (Hibal 5, Asmedit 3.3)  HLASM R4.0  2004/03/22 09.45
+_____  ______ ____    _____ _____  ____ __ ______    ______ _________
0                                   2636     122.     *         COPY  RQBL
                                    2637     123.              COPY  CATRQBL
                                    2638             =*
                                    2639             =* Portions of an obsolete work area being retained
                                    2640             =* as an interface area for the module FILEVCAT. Used
                                    2641             =* in both online orvyl and offline file utilities.
                                    2642             =*
 000000                00000 000D4  2643             =RQBL     RECORD BEGIN
 000000                             2651  1          =RQB        DS    0F
                                    2652  1          =
 000000 D9D8C2D3                    2653  1          =RQBLRQBL   DC    CL4'RQBL'
 000004                             2654  1          =RQBRPB     DS    A                       RPB POINTER
 000008                             2655  1          =RQBRTN2    DS    A                       INTERNAL DDR RETURN POINT
 00000C                             2656  1          =RQBLR14    DS    A                       REG 14 (CORE)
 000010                             2657  1          =RQBLR1     DS    A                       REG 1 (UTILITY CELL)
0000014                             2659  1          =RQBFBR2    DS    A                       INTERNAL FBR SAVE
 000018                             2660  1          =RQBLBR2    DS    A                       INTERNAL BR SAVE (VCAT)
 00001C                             2661  1          =RQBLWAR    DS    A                       WORK AREA REGISTER
 000020                             2662  1          =RQBLWR2    DS    A                       WR = STACK REGISTER
 000024                             2663  1          =RQBLWR3    DS    A                       SAVE STACK POINTER (IO ROUTINE)
 000028                             2664  1          =RQBLSPTR   DS    A                       SAVE STACK POINTER
                                    2665  1          =
 00002C 00                          2666  1          =RQBLFLG1   FLAG  ,                       1ST FILE FLAG BYTE
 RQBLFLG1.RQFIOER  80 ONES          2670  1          =           FLAG  RQFIOER                 HAVE I/O ERROR
 RQBLFLG1.RQFCLP   40 ONES          2675  1          =           FLAG  RQFCLP                  CLP OPERATION (ATTACH)
 RQBLFLG1.RQFNNOD  20 ONES          2680  1          =           FLAG  RQFNNOD                 NEW NODE IN SEQUENTIAL ACCESS
                                    2685  1          =
 000030                             2686  1          =           DS    0A                      Allign
 000030                             2687  1          =RQBLRNAM   DS    CL(CFSBFLSZ+4)          RENAME NAME (ROOM FOR "ORV.")
 00005C                             2688  1          =RQBLNAME   DS    CL(CFSBFLSZ+4)        * NAME BEING SEARCHED
 000088                00088 00062  2689  1          =           ORG   RQBLNAME+6            * STATUS 103 WORK AREA
 000062                             2690  1          =RQBLMXSP   DS    XL4                     MAX USER SPACE
 000066                             2691  1          =RQBLUSSP   DS    XL4                     USED SPACE
 00006A                0006A 00088  2692  1          =           ORG   ,
0000088                             2694  1          =RQBLWORK   DS    CL16                  * STATUS 2 WORK AREA
 000098                00098 00088  2695  1          =           ORG   RQBLWORK
 000088                             2696  1          =RQBLCRDT   DS    A                       CREATION DATE (SENSE2/CLP)
 00008C                             2697  1          =RQBLLSDT   DS    A                       LAST ACCESS DATE (SENSE2/CLP)
 000090                             2698  1          =RQBLUINF   DS    A                       USER INFO (SENSE2/CLP)
 000094                00094 00088  2699  1          =           ORG   RQBLWORK
 000088                             2700  1          =RQBLCCRD   DS    CL6                     CREATE DATE "YYMMDD" (SENSE2)
 00008E                             2701  1          =RQBLCLSD   DS    CL6                     LAST ACCESS "YYMMDD" (SENSE2)
 000094                00094 00098  2702  1          =           ORG   ,
 000098                             2703  1          =RQBLSAV    DS    (15)A                   Room for reg saves
00000D4                000D4 000D4  2705             =         END   ,
1VBLD     (VBLD21) (09:45) (22MAR04) DSKBLK Definition                                                                      Page   27
0D-Loc  Object Code    Addr1 Addr2  Stmt Lv Lineno    Source Statement           (Hibal 5, Asmedit 3.3)  HLASM R4.0  2004/03/22 09.45
+_____  ______ ____    _____ _____  ____ __ ______    ______ _________
0                                   2715     125.              COPY  DSKBLK                  CONTROL BLOCK
                                    2716             =         PRINT  OFF               DSKCHN MACRO
 000000                00000 00010  2735             =DSKBLK   RECORD BEGIN
                                    2743  1          =*  NOTE: THE SIZE OF A DISK HEADER MUST EVENLY DIVIDE INTO
                                    2744  1          =*        THE SIZE OF A DISK BLOCK.
                                    2745  1          =CDSKLLIM   EQU    8,8,C'N'          MINIMUM ALLOC SIZE IN A BLOCK
                                    2746  1          =*  NOTE: THE MINIMUM ALLOC SIZE IN A BLOCK MUST EVENLY DIVIDE INTO
                                    2747  1          =*        THE SIZE OF A DISK BLOCK.
                                    2748  1          =CDSKNIL    EQU    -1                END OF LIST POINTER
                                    2749  1          =CDSKSERR   EQU    4                 NOT ENOUGH SPACE FOR DSKGET
                                    2750  1          =CDSKINER   EQU    8                 BLOCK NOT INITIALIZED ERROR
                                    2751  1          =CDSKLNER   EQU    4                 LENGTH ERROR (DSKFREE)
                                    2752  1          =CDSKADER   EQU    8                 ADDRESS ERROR (DSKFREE)
                                    2753  1          =CDSKOVER   EQU    12                OVERLAP ERROR (DSKFREE)
                                    2754  1          =**
                                    2755  1          =DSKSTART   EQU    *
 000000                             2756  1          =DSKTAG     DS     Y                 IDENT FIELD (2 RAND BYTES)
 000002                             2757  1          =DSKBNUM    DS     Y                 Î (BLK #)
 000004                             2758  1          =DSKHEAD    DSKCHN PFX=DSK
 000004                             2763  1 01-02727 +DSKSIZ     DS     H                 SIZE OF THIS BLOCK
 000006                             2764  1 01-02728 +DSKFFWD    DS     H                 FIRST FIT FORWARD POINTER
 000008                             2765  1 01-02729 +DSKFBAC    DS     H                 FIRST FIT BACKWARD POINTER
 00000A                             2768  1          =DSKFRE     DS     H                 TOTAL AVAILABLE MEMORY
 00000C                             2769  1          =DSKBLINK   DS     H                 LINK TO NEXT BLOCK
 00000E 00                          2770  1          =DSKFL      FLAG   ,                 TYPE OF BLOCK USING FLAGS
 DSKFL.DSKFINIT    80 ONES          2774  1          =           FLAG   DSKFINIT          <TRUE> = INITIALIZED
 DSKFL.DSKFMOD     40 ONES          2779  1          =           FLAG   DSKFMOD           INDICATES MODIFICATION SINCE READ
 DSKFL.DSKFDLNK    20 ONES          2784  1          =           FLAG   DSKFDLNK          IN AVALIABLE_DATA LINKED LIST
 DSKFL.DSKFDATA    10 ONES          2789  1          =           FLAG   DSKFDATA          BLOCK IS FOR EXTENDED DATA NODES
 DSKFL.DSKFSTAT    08 ONES          2794  1          =           FLAG   DSKFSTAT          USED FOR STATS
0                                   2800  1          =HLEN       EQU    0,*-DSKSTART,C'N'
                                    2801  1          =&HLEN      SETA   ((L'HLEN+L'CDSKLLIM-1)/L'CDSKLLIM)*L'CDSKLLIM
                                    2802  1          =CDSKHSIZ   EQU    &HLEN
                                          1          +CDSKHSIZ   EQU    16
000000F                0000F 00010  2804  1          =           ORG    DSKSTART+CDSKHSIZ
 000010                             2805  1          =DSKDATA    DS     0X
 000010                00010 00010  2806             =         END   ,                  OF DSKBLK RECORD
1VBLD     (VBLD21) (09:45) (22MAR04) Node Definition                                                                        Page   28
0D-Loc  Object Code    Addr1 Addr2  Stmt Lv Lineno    Source Statement           (Hibal 5, Asmedit 3.3)  HLASM R4.0  2004/03/22 09.45
+_____  ______ ____    _____ _____  ____ __ ______    ______ _________
0                                   2816     127.              COPY  NODE
 000000                00000 00008  2817             =NODE     RECORD BEGIN             INTERNAL NODE RECORD
                                    2825  1          =*   Minimum space allowed in balanced node is set such that there is
                                    2826  1          =* always room for one more insert of maximum length in balanced node.
                                    2827  1          =CNODNLLN   EQU    OL+PL,,C'N'       LENGTH OF NIL ENTRY
                                    2828  1          =**
 000000                             2829  1          =NODSTRT    DS     0X
 000000                             2830  1          =NODLEN     DS     H                 NUMBER OF BYTES IN REC
 000002                             2831  1          =NODNTNUM   DS     H                 NUMBER OF ENTRYS IN NODE
 000004                             2832  1          =NODSPACE   DS     H                 NUMBER OF FREE BYTES
 000006 00                          2833  1          =NODFL      FLAG   ,
 NODFL.NODFACC     80 ONES          2837  1          =           FLAG   NODFACC           SET = ACCOUNT NODE; CLEAR = FILE
 NODFL.NODFLEAF    40 ONES          2842  1          =           FLAG   NODFLEAF          LEAF OF TREE
 NODFL.NODFTRT     20 ONES          2847  1          =           FLAG   NODFTRT           ROOT OF TREE
 NODFL.NODFFUL     10 ONES          2852  1          =           FLAG   NODFFUL           NODE IS FULL
 NODFL.NODFEMT     08 ONES          2857  1          =           FLAG   NODFEMT           NODE IS CLOSE TO EMPTY
 NODFL.NODFSTAT    04 ONES          2862  1          =           FLAG   NODFSTAT          USED FOR STATS
 NODFL.NODFAVA     02 ONES          2867  1          =           FLAG   NODFAVA **NOT USED**  NODE AVAILABLE FOR LOCKING
 NODFL.NODFLOK     01 ONES          2872  1          =           FLAG   NODFLOK **NOT USED**  NODE IS LOCKED
 000007                             2877  1          =           DS     X                 ** AVAILABLE **
 000008                             2878  1          =NODNTRYS   DS     0X                ENTRIES BEGIN HERE
 000008                00008 00008  2879             =         END    ,                 OF NODE RECORD
1VBLD     (VBLD21) (09:45) (22MAR04) File System Privilege Flag Codes                                                       Page   29
0D-Loc  Object Code    Addr1 Addr2  Stmt Lv Lineno    Source Statement           (Hibal 5, Asmedit 3.3)  HLASM R4.0  2004/03/22 09.45
+_____  ______ ____    _____ _____  ____ __ ______    ______ _________
0                                   2889     129.              COPY  FPC
                                    2890             =*
                                    2891             =*  FILE SYSTEM PRIVILEGE FLAG CODES
                                    2892             =*
                                    2893             =FPMIXR   EQU   X'80',,C'N'             **RESERVE** IXR MASTER IXR
                                    2894             =FPSIXR   EQU   X'40',,C'N'             **RESERVE** IXR SUPER IXR
                                    2895             =FPZIXR   EQU   X'20',,C'N'             **RESERVE** IXR HYBRID IXR
                                    2896             =FPFIXR   EQU   X'10',,C'N'             **RESERVE** IXR FIRST HYBRID
                                    2897             =FPN      EQU   X'00',,C'N'             PRIMITIVE NO-ACCESS
                                    2898             =FPR      EQU   X'01',,C'N'             PRIMITIVE READ
                                    2899             =FPA      EQU   X'02',,C'N'             PRIMITIVE APPEND
                                    2900             =FPW      EQU   X'04',,C'N'             PRIMITIVE WRITE
                                    2901             =FPE      EQU   X'08',,C'N'             PRIMITIVE EXTEND
                                    2902             =FPS      EQU   X'10',,C'N'             PRIMITIVE SHARE
                                    2903             =
                                    2904             =FRO      EQU   FPR                     READ ONLY
                                    2905             =FRW      EQU   FPR+FPA+FPW             READ & WRITE
                                    2906             =FRP      EQU   FPR+FPA                 READ & APPEND
                                    2907             =FAO      EQU   FPA                     APPEND ONLY
                                    2908             =FSHR     EQU   FPS                     SHARE ONLY
                                    2909             =FAC      EQU   FPE                     EXTEND ONLY
                                    2910             =FPALL    EQU   FRW+FPE                 ALL PRIVILEGES
                                    2911             =FPNONE   EQU   FPN                     NO-ACCESS
                                    2912             =
                                    2913             =FPREAD   EQU   FPR                     READ ONLY
                                    2914             =FPAPPEND EQU   FPA                     APPEND ONLY
                                    2915             =FPWRITE  EQU   FPW                     WRITE ONLY
                                    2916             =FPEXTEND EQU   FPE                     EXTEND
                                    2917             =FPFWRITE EQU   FPR+FPA+FPW             FULL WRITE
1VBLD     (VBLD21) (09:45) (22MAR04) Entry Definition                                                                       Page   30
0D-Loc  Object Code    Addr1 Addr2  Stmt Lv Lineno    Source Statement           (Hibal 5, Asmedit 3.3)  HLASM R4.0  2004/03/22 09.45
+_____  ______ ____    _____ _____  ____ __ ______    ______ _________
0                                   2919     131.              COPY  NTRY
 000000                00000 00020  2920             =NTRY     RECORD BEGIN
                                    2928  1          =CNTAMXL    EQU    264                MAx len of account entry
                                    2929  1          =CNTFMXL    EQU    297                Max len of account entry
 000000                             2930  1          =           DS     0S(CFSBMXNT-CNTAMXL),0S(CFSBMXNT-CNTFMXL)
                                    2931  1          =CNTAMXSZ   EQU    5                  Maximum length of account name
                                    2932  1          =CNTFMXSZ   EQU    CFSBNMSZ           Maximum length of file name
                                    2933  1          =**
 000000                             2934  1          =NTRYSTRT   DS     0X
 000000                             2935  1          =NTRYLEN    DS     AL(OL)             Total length of entry
 000002                             2936  1          =NTRYOFFB   DS     AL(BL)             Offspring pointer (block)
 000004                             2937  1          =NTRYOFFN   DS     AL(OL)             = (offset)
 000006                             2938  1          =NTRYDATB   DS     AL(BL)             Data pointer (block)
 000008                             2939  1          =NTRYDATN   DS     AL(OL)             = (offset)
 00000A                             2940  1          =NTRYVAR    DS     0X
                                    2941  1          =*
                                    2942  1          =* FILE CATALOG ACCOUNT ENTRY
                                    2943  1          =*
 00000A                             2944  1          =NTGNAME    DS    XL(CNTAMXSZ)        Account
 00000F                             2945  1          =NTGMXSP    DS    XL3                 Max space allowed for account
 000012                             2946  1          =NTGUSSP    DS    XL3                 Space already used by account
 000015                             2947  1          =NTGFLRB    DS     AL(BL)             File root pointer (block)
 000017                             2948  1          =NTGFLRN    DS     AL(OL)             = (offset)
 000019 00                          2949  1          =NTGFLG     FLAG  ,                   Permits for public
 NTGFLG.NTGFRO     01 ONES          2953  1          =           FLAG  (NTGFRO,FRO)  (PUBLIC)        READ ONLY
 NTGFLG.NTGFRW     07 ONES          2962  1          =           FLAG  (NTGFRW,FRW)  (PUBLIC)        READ & WRITE
 NTGFLG.NTGFRP     03 ONES          2971  1          =           FLAG  (NTGFRP,FRP)  (PUBLIC)        READ & APPEND
 NTGFLG.NTGFAO     02 ONES          2980  1          =           FLAG  (NTGFAO,FAO)  (PUBLIC)        APPEND ONLY
 00001A                             2989  1          =NTGMEMBR   DS    0X                  Members start here
                                    2990  1          =NTRYGR     EQU    NTRYSTRT,*-NTRYSTRT,C'R'
                                    2991  1          =
 00001A                0001A 0000A  2992  1          =           ORG    NTRYVAR
                                    2993  1          =*
                                    2994  1          =* FILE CATALOG FILE ENTRY
                                    2995  1          =*
 00000A                             2996  1          =NTFLOC     DS    XL3                 Location of file index
 00000D                             2997  1          =NTFCNT     DS    XL3                 Number of blocks (non-ixr)
 000010 00                          2998  1          =NTFCODE    FLAG  ,                   File flags
 NTFCODE.NTFCLP    80 ONES          3002  1          =           FLAG  NTFCLP              Only clp can attach this file
 NTFCODE.NTFSFORM  40 ONES          3007  1          =           FLAG  NTFSFORM            User info is format data
 NTFCODE.NTFNOCLP  20 ONES          3012  1          =           FLAG  NTFNOCLP            Clp can't change this file
 NTFCODE.NTFNIXR   10 ONES          3017  1          =           FLAG  NTFNIXR             Non-ixr file
 NTFCODE.NTFSPI    08 ONES          3022  1          =           FLAG  NTFSPI              Only spires can attach file
 NTFCODE.NTFHYBR   04 ONES          3027  1          =           FLAG  NTFHYBR             IXR/Non-IXR hybrid file type
 000011 00                          3032  1          =NTFFLGP    FLAG  ,                   Permits for public
 NTFFLGP.NTFPFRO   01 ONES          3036  1          =           FLAG  (NTFPFRO,FRO)  (PUBLIC)       READ ONLY
 NTFFLGP.NTFPFRW   07 ONES          3045  1          =           FLAG  (NTFPFRW,FRW)  (PUBLIC)       READ & WRITE
 NTFFLGP.NTFPFRP   03 ONES          3054  1          =           FLAG  (NTFPFRP,FRP)  (PUBLIC)       READ & APPEND
 NTFFLGP.NTFPFAO   02 ONES          3063  1          =           FLAG  (NTFPFAO,FAO)  (PUBLIC)       APPEND ONLY
 NTFFLGP.NTFPSHR   10 ONES          3072  1          =           FLAG  (NTFPSHR,FSHR) (PUBLIC)       SHARE ONLY
 000012 00                          3081  1          =NTFFLGO    FLAG  ,                   Permits for owner
 NTFFLGO.NTFOFRO   01 ONES          3085  1          =           FLAG  (NTFOFRO,FRO)  (OWNER)        READ ONLY
 NTFFLGO.NTFOFRW   07 ONES          3094  1          =           FLAG  (NTFOFRW,FRW)  (OWNER)        READ & WRITE
 NTFFLGO.NTFOFAO   02 ONES          3103  1          =           FLAG  (NTFOFAO,FAO)  (OWNER)        APPEND ONLY
 NTFFLGO.NTFOFRP   03 ONES          3112  1          =           FLAG  (NTFOFRP,FRP)  (OWNER)        READ & APPEND
 000013                             3121  1          =NTFCRDT    DS    XL4                 Creation date & time
1VBLD     (VBLD21) (09:45) (22MAR04) Entry Definition                                                                       Page   31
0D-Loc  Object Code    Addr1 Addr2  Stmt Lv Lineno    Source Statement           (Hibal 5, Asmedit 3.3)  HLASM R4.0  2004/03/22 09.45
+_____  ______ ____    _____ _____  ____ __ ______    ______ _________
0000017                             3122  1          =NTFLSDT    DS    XL4                 Last reference date & time
 00001B                             3123  1          =NTFUINFO   DS    XL4                 User info - set by control 14
 00001F                             3124  1          =NTFLNMSZ   DS    X                   Length of file name
 000020                             3125  1          =NTFLNAME   DS    0X                  File name here
                                    3126  1          =NTRYFL     EQU    NTRYSTRT,*-NTRYSTRT,C'R'
                                    3127  1          =*        MEMBERS START HERE AFTER FILE NAME
 000020                00020 00020  3128             =         END   ,
-000000                00000 00002  3138             =NTRYXTND RECORD BEGIN
 000000                             3146  1          =NTRYXST    DS     0X                 Start of extended_data
 000000                             3147  1          =NTRYXLEN   DS     AL(OL)             Len of extended_data entry
                                    3148  1          =CNTXFXLN   EQU    *-NTRYXST          Fixed overhead length
 000002                             3149  1          =NTRYXPER   DS     0X                 Permits start here
 000002                00002 00002  3150             =         END    ,
0000000                00000 00007  3160             =NTRYPR   RECORD BEGIN
                                    3168  1          =*
                                    3169  1          =* FILE CATALOG PERMIT ENTRY
                                    3170  1          =*      APPENDED TO ACCOUNT AND FILE ENTRYS
                                    3171  1          =*
 000000                             3172  1          =NTPNAME    DS    XL6                     PERMIT MEMBER ACCOUNT
 000006 00                          3173  1          =NTPFLG     FLAG  ,                       PERMIT FLAGS
 NTPFLG.NTPFRO     01 ONES          3177  1          =           FLAG  (NTPFRO,FRO)                  READ ONLY
 NTPFLG.NTPFRW     07 ONES          3186  1          =           FLAG  (NTPFRW,FRW)                  READ & WRITE
 NTPFLG.NTPFRP     03 ONES          3195  1          =           FLAG  (NTPFRP,FRP)                  READ & APPEND
 NTPFLG.NTPFAO     02 ONES          3204  1          =           FLAG  (NTPFAO,FAO)                  APPEND ONLY
 NTPFLG.NTPFAC     08 ONES          3213  1          =           FLAG  (NTPFAC,FAC)                  PERMIT ACCESS
 000007                00007 00007  3222             =         END   ,
                                    3231     132.     *         SPACE 2
                                    3232     133.     *         COPY  NTRYPR
1VBLD     (VBLD21) (09:45) (22MAR04) Account Entry Definition - Dump Format                                                 Page   32
0D-Loc  Object Code    Addr1 Addr2  Stmt Lv Lineno    Source Statement           (Hibal 5, Asmedit 3.3)  HLASM R4.0  2004/03/22 09.45
+_____  ______ ____    _____ _____  ____ __ ______    ______ _________
0                                   3234     135.              COPY  NXRYGR
 000000                00000 00010  3235             =NXRYGR   RECORD BEGIN
                                    3243  1          =*
                                    3244  1          =* FILE CATALOG ACCOUNX ENXRY
                                    3245  1          =*
 000000                             3246  1          =NXGBYTS    DS    XL2                     TOTAL LENGTH OF ENXRY
 000002                             3247  1          =NXGNAME    DS    XL6                     ACCOUNX
 000008                             3248  1          =NXGCODE    DS    X                       ACCOUNX ENXRY FLAG (X'FF')
 000009                             3249  1          =NXGMXSP    DS    XL3                     MAX SPACE ALLOWED FOR ACCOUNX
 00000C                             3250  1          =NXGUSSP    DS    XL3                     SPACE ALREADY USED BY ACCOUNX
 00000F 00                          3251  1          =NXGFLG     FLAG  ,                       PERMITS FOR PUBLIC
 NXGFLG.NXGFRO     01 ONES          3255  1          =           FLAG  (NXGFRO,FRO)  (PUBLIC)        READ ONLY
 NXGFLG.NXGFRW     07 ONES          3264  1          =           FLAG  (NXGFRW,FRW)  (PUBLIC)        READ & WRITE
 NXGFLG.NXGFRP     03 ONES          3273  1          =           FLAG  (NXGFRP,FRP)  (PUBLIC)        READ & APPEND
 NXGFLG.NXGFAO     02 ONES          3282  1          =           FLAG  (NXGFAO,FAO)  (PUBLIC)        APPEND ONLY
 000010                             3291  1          =NXGMEMBR   DS    0X                       MEMBERS START HERE
                                    3292  1          =
 000010                00010 00010  3293             =         END   ,
1VBLD     (VBLD21) (09:45) (22MAR04) Old File Entry Definition - Dump Format                                                Page   33
0D-Loc  Object Code    Addr1 Addr2  Stmt Lv Lineno    Source Statement           (Hibal 5, Asmedit 3.3)  HLASM R4.0  2004/03/22 09.45
+_____  ______ ____    _____ _____  ____ __ ______    ______ _________
0                                   3303     137.              COPY  NXRYFL
 000000                00000 00018  3304             =NXRYFL   RECORD BEGIN
                                    3312  1          =*
                                    3313  1          =* FILE CATALOG FILE ENTRY
                                    3314  1          =*
 000000                             3315  1          =NXFBYTS    DS    XL2                     TOTAL LENGTH OF ENTRY
 000002                             3316  1          =NXFLOC     DS    XL3                     LOCATION OF FILE INDEX
 000005                             3317  1          =NXFCNT     DS    XL3                     NUMBER OF BLOCKS (NON-IXR)
 000008 00                          3318  1          =NXFCODE    FLAG  ,                       FILE FLAGS
 NXFCODE.NXFCLP    80 ONES          3322  1          =           FLAG  NXFCLP                  ONLY CLP CAN ATTACH THIS FILE
 NXFCODE.NXFSFORM  40 ONES          3327  1          =           FLAG  NXFSFORM                USER INFO IS FORMAT DATA
 NXFCODE.NXFNOCLP  20 ONES          3332  1          =           FLAG  NXFNOCLP                CLP CAN'T CHANGE THIS FILE
 NXFCODE.NXFNIXR   10 ONES          3337  1          =           FLAG  NXFNIXR                 NON-IXR FILE
 NXFCODE.NXFSPI    08 ONES          3342  1          =           FLAG  NXFSPI                  ONLY SPIRES CAN ATTACH FILE
 NXFCODE.NXFHYBR   04 ONES          3347  1          =           FLAG  NXFHYBR                 IXR/Non-IXR hybrid file type
 000009 00                          3352  1          =NXFFLGP    FLAG  ,                       PERMITS FOR PUBLIC
 NXFFLGP.NXFPFRO   01 ONES          3356  1          =           FLAG  (NXFPFRO,FRO)  (PUBLIC)       READ ONLY
 NXFFLGP.NXFPFRW   07 ONES          3365  1          =           FLAG  (NXFPFRW,FRW)  (PUBLIC)       READ & WRITE
 NXFFLGP.NXFPFRP   03 ONES          3374  1          =           FLAG  (NXFPFRP,FRP)  (PUBLIC)       READ & APPEND
 NXFFLGP.NXFPFAO   02 ONES          3383  1          =           FLAG  (NXFPFAO,FAO)  (PUBLIC)       APPEND ONLY
 NXFFLGP.NXFPSHR   10 ONES          3392  1          =           FLAG  (NXFPSHR,FSHR) (PUBLIC)       SHARE ONLY
 00000A 00                          3401  1          =NXFFLGO    FLAG  ,                       PERMITS FOR OWNER
 NXFFLGO.NXFOFRO   01 ONES          3405  1          =           FLAG  (NXFOFRO,FRO)  (OWNER)        READ ONLY
 NXFFLGO.NXFOFRW   07 ONES          3414  1          =           FLAG  (NXFOFRW,FRW)  (OWNER)        READ & WRITE
 NXFFLGO.NXFOFAO   02 ONES          3423  1          =           FLAG  (NXFOFAO,FAO)  (OWNER)        APPEND ONLY
 NXFFLGO.NXFOFRP   03 ONES          3432  1          =           FLAG  (NXFOFRP,FRP)  (OWNER)        READ & APPEND
 00000B                             3441  1          =NXFCRDT    DS    XL4                     CREATION DATE & TIME
 00000F                             3442  1          =NXFLSDT    DS    XL4                     LAST REFERENCE DATE & TIME
 000013                             3443  1          =NXFUINFO   DS    XL4                     USER INFO - SET BY CONTROL 14
 000017                             3444  1          =NXFLNMSZ   DS    X                       LENGTH OF FILE NAME
 000018                             3445  1          =NXFLNAME   DS    0X                      FILE NAME HERE
 000018                00018 00018  3446             =         END   ,
1VBLD     (VBLD21) (09:45) (22MAR04) File block header                                                                      Page   34
0D-Loc  Object Code    Addr1 Addr2  Stmt Lv Lineno    Source Statement           (Hibal 5, Asmedit 3.3)  HLASM R4.0  2004/03/22 09.45
+_____  ______ ____    _____ _____  ____ __ ______    ______ _________
0                                   3456     139.              COPY  FBHDR
 000000                00000 00014  3457             =FBHDR    RECORD BEGIN
                                    3465  1          =*
                                    3466  1          =*  ORVYL File Block Header Field
                                    3467  1          =*
 000000                             3468  1          =FBHBLOCK   DS    AL3                     Block number in file system
 000003                             3469  1          =FBHTYPE    DS    AL1                     Block type
                                    3470  1          =
                                    3471  1          =FBHTFSMB   EQU   X'FF'                   File System Master Block
                                    3472  1          =FBHTCAT    EQU   X'80'                   Catalog
                                    3473  1          =FBHTBIT    EQU   X'40'                   Bit Map
                                    3474  1          =FBHTZIXR   EQU   X'10'                   ZIXR
                                    3475  1          =FBHTIXR    EQU   X'08'                   IXR
                                    3476  1          =FBHTSIXR   EQU   X'04'                   SIXR
                                    3477  1          =FBHTMIXR   EQU   X'02'                   MIXR
                                    3478  1          =FBHTUSER   EQU   X'01'                   User data block
                                    3479  1          =FBHTIXRT   EQU   FBHTIXR+FBHTSIXR+FBHTMIXR+FBHTZIXR
                                    3480  1          =FBHTBICA   EQU   FBHTCAT+FBHTBIT
                                    3481  1          =FBHTSYSR   EQU   FBHTIXRT+FBHTBICA
                                    3482  1          =
 000004                             3483  1          =           DS    AL2                     Reserved
 000006                             3484  1          =FBHLEN     DS    AL2                     User data length in block
 000008                             3485  1          =FBHTIME    DS    AL4                     Time (STCK) block written
                                    3486  1          =
                                    3487  1          =FBHDTLEN   EQU   *-FBHDR                 Saved header length (VDMP)
 00000C                             3488  1          =FBHAVAIL   DS    2AL4                    Available
 000014                00014 00014  3489             =         END   ,
1VBLD     (VBLD21) (09:45) (22MAR04) Generate VCAT constants                                                                Page   35
0D-Loc  Object Code    Addr1 Addr2  Stmt Lv Lineno    Source Statement           (Hibal 5, Asmedit 3.3)  HLASM R4.0  2004/03/22 09.45
+_____  ______ ____    _____ _____  ____ __ ______    ______ _________
0                                   3499     141.              GENCAT CONST
                                    3510    01-GENCA +KATLOOK  EQU    0,0,C'N'
                                    3511    01-GENCA +*,          Inspect/Change Entry
                                    3512    01-GENCA +KATINS   EQU    2,2,C'N'
                                    3513    01-GENCA +*,          Insert Entry
                                    3514    01-GENCA +KATDEL   EQU    4,4,C'N'
                                    3515    01-GENCA +*,          Delete Entry
                                    3516    01-GENCA +KATLIS   EQU    6,6,C'N'
                                    3517    01-GENCA +*,          List Entrys
                                    3518    01-GENCA +KATRENAM EQU    8,8,C'N'
                                    3519    01-GENCA +*,          Rename
                                    3520    01-GENCA +KATSEQ   EQU    10,10,C'N'
                                    3521    01-GENCA +*,          Sequential Access
                                    3522    01-GENCA +KATCONT  EQU    12,12,C'N'
                                    3523    01-GENCA +*,          Continue operation
                                    3524    01-GENCA +KATREC   EQU    14,14,C'N'
                                    3525    01-GENCA +*,          Checkpoint Recovery
1VBLD     (VBLD21) (09:45) (22MAR04) IO area definition                                                                     Page   36
0D-Loc  Object Code    Addr1 Addr2  Stmt Lv Lineno    Source Statement           (Hibal 5, Asmedit 3.3)  HLASM R4.0  2004/03/22 09.45
+_____  ______ ____    _____ _____  ____ __ ______    ______ _________
0                                   3530     144.              VFAREA COPYIOB=NO
 000000                00000 02800  3531    01-VFARE +IOINFO   DSECT ,
 000000 00000000                    3532    01-VFARE +IONXT    DC    A(0)                    NEXT BLOCK ON CHAIN
 000004 00000000                    3533    01-VFARE +IOPRV    DC    A(0)                    PREVIOUS BLOCK ON CHAIN
 000008 00000000/00                 3534    01-VFARE +IOECB    DC    A(0)                    ECB TO POST (MAYBE?)
 IOFLGS.IOWRITE    80 ONES
000000D 00                          3546    01-VFARE +IORET    DC    X'00'                   RETURN CODE FROM VFRD
 00000E 00                          3547    01-VFARE +IOSECT   DC    X'00'                   SECTOR NUMBER FOR I/O
 00000F 00                                           +
 000010 00000000                    3548    01-VFARE +         DC    A(0)                Available
 000018                             3549    01-VFARE +         DS    0D
 000018                00018 00040  3550    01-VFARE +         ORG   *+L'IOBAREA
0000040                             3552    01-VFARE +IOCCW    DC    0D'0'
 000040 2300000E40000001            3553    01-VFARE +CCWSECT  CCW   X'23',IOSECT,X'40',1    SET SECTOR
 000048 3100003B40000005            3554    01-VFARE +CCWSRCH  CCW   X'31',IOBCC,X'40',5     SEARCH ID EQUAL
 000050 0800004840000001            3555    01-VFARE +CCWTIC   CCW   X'08',*-8,X'40',1       TIC *-1
 000058 0E000068C0000050            3556    01-VFARE +CCWREAD  CCW   X'0E',IOHDR,X'C0',80    READ HEADER
 000060 0000080000000800            3557    01-VFARE +CCWR2    CCW   X'00',IOIXR,X'00',2048  READ BLOCK
0000068 0000000000000000            3559    01-VFARE +IOHDR    DC    XL80'00'                HEADER AREA
0                                   3561             +*
                                    3562             +*  DEFINE ERROR LIST FORMAT
                                    3563             +*
                                    3564             +*        NOTE: These entries must remain together.
                                    3565             +*
00000B8 00000000                    3567    01-VFARE +BITNO    DC    A(0)                    Bit number of error
                                    3568    01-VFARE +CLASS    EQU   BITNO,1,C'C'            Error class (number)
 0000BC 4040404040404040            3569    01-VFARE +FILENAME DC    CL40' '                 Filename
 0000E4 00000000                    3570    01-VFARE +RELBLK   DC    A(0)                    Relative block number
 0000E8 00000000                    3571    01-VFARE +TYPE     DC    A(0)                    Error location
 0000EC 0000000000000000            3572    01-VFARE +CCHHR    DC    2A(0)                   MBBCCHHR Address
00000F4 00000000                    3574    01-VFARE +NIXRCNT  DC    A(0)                    NUMBER OF RECORDS IN NIXR FILE
 0000F8 00000000                    3575    01-VFARE +SCNDHDR  DC    A(0)                    SECOND IXR BLK FOR SUPER IXRS
 0000FC 0000                        3576    01-VFARE +IXRNDX   DC    H'0'                    Index into SIXR's IXR pointers
 0000FE                             3577    01-VFARE +IOVOL    DS    CL6                     CURRENT VOLUME SERIAL
0                                   3579             +*
                                    3580             +* VFRD WORK AREAS
                                    3581             +*
 000104 00000000                    3582    01-VFARE +RELTRK   DC    A(0)                    RELATIVE TRACK
 000108 00000000                    3583    01-VFARE +XELBLK   DC    A(0)                    RELATIVE BLOCK ON TRACK
 00010C 00000000                    3584    01-VFARE +WORK     DC    A(0)                    WORK-AREA
0000110                00110 007C8  3586    01-VFARE +         ORG   IOINFO+2048-56          NICE DUMP READING ALIGNMENT
 0007C8                             3587    01-VFARE +MYHDR    DC    0D'0'                   SELECTIVE RESTORE INFO
 0007C8 4040404040404040            3588    01-VFARE +MYFILE   DC    CL40' '                 FILENAME
 0007F0 40404040                    3589    01-VFARE +         DC    CL4' '                  FILLER
 0007F4 00000000                    3590    01-VFARE +MYREL    DC    A(0)                    FILE RELATIVE BLOCK
 0007F8 00000000                    3591    01-VFARE +MAINHDR  DC    A(0)                    FIRST 4 BYTES OF HEADER
 0007FC 0000                        3592    01-VFARE +         DC    AL2(0)                  FILLER
 0007FE 0000                        3593    01-VFARE +MAINSZ   DC    AL2(0)                  RECORD SIZE
1VBLD     (VBLD21) (09:45) (22MAR04) IO area definition                                                                     Page   37
0D-Loc  Object Code    Addr1 Addr2  Stmt Lv Lineno    Source Statement           (Hibal 5, Asmedit 3.3)  HLASM R4.0  2004/03/22 09.45
+_____  ______ ____    _____ _____  ____ __ ______    ______ _________
0000800 0000000000000000            3594    01-VFARE +IOIXR    DC    4096X'00'               AREA FOR IXR
                                    3595    01-VFARE +USERINFO EQU   IOIXR+62                *? (CHECK THIS ONE OUT)
 001800 0000000000000000            3596    01-VFARE +SCNDREC  DC    4096X'00'
1VBLD     (VBLD21) (09:45) (22MAR04) Define output lines                                                                    Page   38
0D-Loc  Object Code    Addr1 Addr2  Stmt Lv Lineno    Source Statement           (Hibal 5, Asmedit 3.3)  HLASM R4.0  2004/03/22 09.45
+_____  ______ ____    _____ _____  ____ __ ______    ______ _________
0000000                00000 00321  3599     147.     OUTLNES  RECORD BEGIN                  DEFINE OUTPUT LINES
0000000                             3608  1  149.     L1ST       DS    0C                      START OF LINE 1
 000000 00500000                    3609  1  150.     L1LEN      DC    AL2(L'LINE1,0)          DEFINE RDW LENGTH
 000004                             3610  1  151.     L1CC       DS    C                       CARRIAGE CONTROL
 000005                             3611  1  152.                DS    CL58
 00003F                             3612  1  153.     L1NAME     DS    CL17                    Orvyl File System
                                    3613  1  154.     LINE1      EQU   L1ST,*-L1ST,C'C'        DEFINE LINE 1
0000050                             3615  1  156.     L2ST       DS    0C                      DEFINE START OF LINE 2
 000050 00500000                    3616  1  157.     L2LEN      DC    AL2(L'LINE2,0)          DEFINE RDW FOR LINE 2
 000054                             3617  1  158.     L2CC       DS    C                       CARRIAGE CONTROL
 000055                00055 0008F  3618  1  159.                ORG   L2ST+L1NAME-LINE1
 00008F                             3619  1  160.     L2UND      DS    CL17                    UNDERLINE POSITION
                                    3620  1  161.     LINE2      EQU   L2ST,*-L2ST,C'C'
00000A0                             3622  1  163.     L3ST       DS    0C                      DEFINE START OF LINE 3
 0000A0 00840000                    3623  1  164.     L3LEN      DC    AL2(L'LINE3,0)          DEFINE RDW FOR LINE 3
 0000A4                             3624  1  165.     L3CC       DS    C                       LINE 3 CARRIAGE CONTROL
 0000A5                             3625  1  166.     L3DATE     DS    CL26                    TIME AND DATE
 0000BF                000BF 000E1  3626  1  167.                ORG   L3ST+65
 0000E1                             3627  1  168.     L3SYS      DS    CL8                     FILE SYSTEM
 0000E9                000E9 00118  3628  1  169.                ORG   L3ST+132-12
 000118                             3629  1  170.     L3PAGE     DS    CL4                     PAGE
 00011C                             3630  1  171.                DS    C
 00011D                             3631  1  172.     L3S#       DS    CL2                     SECONDAY PAGE NUMBER
 00011F                             3632  1  173.     L3DASH     DS    C                       "-"
 000120                             3633  1  174.     L3P#       DS    CL4                     PAGE NUMBER
                                    3634  1  175.     LINE3      EQU   L3ST,*-L3ST,C'C'        DEFINE LINE 3 LENGTH
0000124                             3636  1  177.     L4ST       DS    0C                      DEFINE LINE 4
 000124 00470000                    3637  1  178.     L4LEN      DC    AL2(L'LINE4,0)          DEFINE RDW FOR LINE 4
 000128                             3638  1  179.     L4CC       DS    C                       CARRIAGE CONTROL
 000129                00129 00165  3639  1  180.                ORG   L4ST+65
 000165                             3640  1  181.     L4UND      DS    CL6                     UNDERLINE POSITION
                                    3641  1  182.     LINE4      EQU   L4ST,*-L4ST,C'C'        DEFINE LINE 4 LENGTH
000016B                             3643  1  184.     L5ST       DS    0C                      DEFINE LINE 5 START
 00016B 00370000                    3644  1  185.     L5LEN      DC    AL2(L'LINE5,0)          DEFINE RDW FOR LINE 5
 00016F                             3645  1  186.     L5CC       DS    C                       CARRIAGE CONTROL
 000170                             3646  1  187.                DS    CL2
 000172                             3647  1  188.     L5ACCT     DS    CL7                     ACCOUNT
 000179                             3648  1  189.                DS    CL3
 00017C                             3649  1  190.     L5ALL      DS    CL10                    ALLOCATION
 000186                             3650  1  191.                DS    CL3
 000189                             3651  1  192.     L5USD      DS    CL10                    USED
 000193                             3652  1  193.                DS    CL4
 000197 4DC39695A38995A4            3653  1  194.     L5CONT     DC    C'(Continued)'
                                    3654  1  195.     LINE5      EQU   L5ST,*-L5ST,C'C'        DEFINE LINE 5 LENGTH
00001A2                             3656  1  197.     L6ST       DS    0C                      DEFINE LINE 6 START
 0001A2 00280000                    3657  1  198.     L6LEN      DC    AL2(L'LINE6,0)          DEFINE RDW FOR LINE 6
 0001A6                             3658  1  199.     L6CC       DS    C                       CARRIAGE CONTROL
 0001A7                             3659  1  200.                DS    CL2
 0001A9                             3660  1  201.     L6UND1     DS    CL7
 0001B0                             3661  1  202.                DS    CL3
1VBLD     (VBLD21) (09:45) (22MAR04) Define output lines                                                                    Page   39
0D-Loc  Object Code    Addr1 Addr2  Stmt Lv Lineno    Source Statement           (Hibal 5, Asmedit 3.3)  HLASM R4.0  2004/03/22 09.45
+_____  ______ ____    _____ _____  ____ __ ______    ______ _________
00001B3                             3662  1  203.     L6UND2     DS    CL10
 0001BD                             3663  1  204.                DS    CL3
 0001C0                             3664  1  205.     L6UND3     DS    CL10
                                    3665  1  206.     LINE6      EQU   L6ST,*-L6ST,C'C'        DEFINE LINE 6 LENGTH
00001CA                             3667  1  208.     L7ST       DS    0C                      DEFINE LINE 7 START
 0001CA 00280000                    3668  1  209.     L7LEN      DC    AL2(L'LINE7,0)          DEFINE RDW FOR LINE 7
 0001CE                             3669  1  210.     L7CC       DS    C                       CARRIAGE CONTROL
 0001CF                             3670  1  211.                DS    CL2
 0001D1                             3671  1  212.     L7ACCT     DS    CL6                     ACCOUNT (GG.UUU)
 0001D7                             3672  1  213.                DS    CL4
 0001DB                             3673  1  214.     L7ALL      DS    CL10
 0001E5                             3674  1  215.                DS    CL3
 0001E8                             3675  1  216.     L7USD      DS    CL10
                                    3676  1  217.     LINE7      EQU   L7ST,*-L7ST,C'C'        DEFINE LINE 7 LENGTH
00001F2                             3678  1  219.     L8ST       DS    0C                      DEFINE LINE 8 START
 0001F2 00480000                    3679  1  220.     L8LEN      DC    AL2(L'LINE8,0)          DEFINE RDW FOR LINE 8
 0001F6                             3680  1  221.     L8CC       DS    C                       CARRIAGE CONTROL
 0001F7                             3681  1  222.                DS    CL6
 0001FD                             3682  1  223.     L8FILE     DS    CL33                    FILENAME
 00021E                             3683  1  224.                DS    CL2
 000220                             3684  1  225.     L8CREATE   DS    CL13                    CREATION DATE
 00022D                             3685  1  226.                DS    CL2
 00022F                             3686  1  227.     L8LAST     DS    CL11                    LAST ACCESS DATE
                                    3687  1  228.     LINE8      EQU   L8ST,*-L8ST,C'C'        DEFINE LINE 8 LENGTH
000023A                             3689  1  230.     L9ST       DS    0C                      DEFINE LINE 9 START
 00023A 00480000                    3690  1  231.     L9LEN      DC    AL2(L'LINE9,0)          DEFINE RDW FOR LINE 9
 00023E                             3691  1  232.     L9CC       DS    C                       CARRIAGE CONTROL
 00023F                             3692  1  233.                DS    CL6
 000245                             3693  1  234.     L9UND1     DS    CL33
 000266                             3694  1  235.                DS    CL2
 000268                             3695  1  236.     L9UND2     DS    CL13
 000275                             3696  1  237.                DS    CL2
 000277                             3697  1  238.     L9UND3     DS    CL11
                                    3698  1  239.     LINE9      EQU   L9ST,*-L9ST,C'C'        DEFINE LINE 9 LENGTH
0000282                             3700  1  241.     L10ST      DS    0C                      DEFINE LINE 10 START
 000282 00460000                    3701  1  242.     L10LEN     DC    AL2(L'LINE10,0)         DEFINE RDW FOR LINE 10
 000286                             3702  1  243.     L10CC      DS    C                       CARRIAGE CONTROL
 000287                             3703  1  244.                DS    CL6
 00028D                             3704  1  245.     L10NAME    DS    CL33                    FILENAME
 0002AE                             3705  1  246.                DS    CL3
 0002B1                             3706  1  247.     L10CREAT   DS    CL9                     CREATION DATE
 0002BA                             3707  1  248.                DS    CL5
 0002BF                             3708  1  249.     L10LAST    DS    CL9                     LAST ACCESS
                                    3709  1  250.     LINE10     EQU   L10ST,*-L10ST,C'C'      DEFINE LINE 10 LENGTH
00002C8                             3711  1  252.     L11ST      DS    0C                      DEFINE LINE 11 START
 0002C8 00590000                    3712  1  253.     L11LEN     DC    AL2(L'LINE11,0)         DEFINE RDW FOR LINE 11
 0002CC                             3713  1  254.     L11CC      DS    CL1                     CARRIAGE CONTROL
 0002CD                002CD 00312  3714  1  255.                ORG   L11ST+L10LAST-LINE10+L'L10LAST+4
 000312 4DE28585409585A7            3715  1  256.     L11MSG     DC    C'(See next page)'
                                    3716  1  257.     LINE11     EQU   L11ST,*-L11ST,C'C'      DEFINE LINE 11 LENGTH
 000321                00321 00321  3717     258.              END   ,
1VBLD     (VBLD21) (09:45) (22MAR04) Define output lines                                                                    Page   40
0D-Loc  Object Code    Addr1 Addr2  Stmt Lv Lineno    Source Statement           (Hibal 5, Asmedit 3.3)  HLASM R4.0  2004/03/22 09.45
+_____  ______ ____    _____ _____  ____ __ ______    ______ _________
0                                   3727     260.              PRINT OFF                     DCBD
1VBLD     (VBLD21) (09:45) (22MAR04) Data Definitions                                                                       Page   41
0D-Loc  Object Code    Addr1 Addr2  Stmt Lv Lineno    Source Statement           (Hibal 5, Asmedit 3.3)  HLASM R4.0  2004/03/22 09.45
+_____  ______ ____    _____ _____  ____ __ ______    ______ _________
0
0000016                00000 03848  6084     275.     VBLD     CSECT ,
 000957                00957 03848  6086     276.              DATA  BEGIN
 000957 00                                1
 000958                             6091  1  277.     DATASECT   DC    0D'0'                   Data section begin
 000958 00                          6092  1  278.     RETCOD     DC    X'00'                   Return code from program
0000959 00                          6094  1  280.     GENFLG     FLAG  ,                       General flags
 GENFLG.FSOPEN     80 ONES          6098  1  281.                FLAG  FSOPEN                  File system open
 GENFLG.FDERRS     40 ONES          6103  1  282.                FLAG  FDERRS                  FD Errors exist
 GENFLG.CONERRS    20 ONES          6108  1  283.                FLAG  CONERRS                 Consistancy errors exist
 GENFLG.FNOP       10 ONES          6113  1  284.                FLAG  FNOP                    Filename not printed
 GENFLG.FRSTACC    08 ONES          6118  1  285.                FLAG  FRSTACC                 First ACCOUNT in tree
 GENFLG.FRSTFIL    04 ONES          6123  1  286.                FLAG  FRSTFIL                 First FILE in tree
000095A 00                          6129  1  288.     RUNFLG     FLAG  ,                       RUN OPTIONS
 RUNFLG.LISTF      80 ONES          6133  1  289.                FLAG  LISTF                   LIST FILES
 RUNFLG.RBLD       40 ONES          6138  1  290.                FLAG  RBLD                    REBUILD FILE-DIRECTORY
 RUNFLG.PMAP       20 ONES          6143  1  291.                FLAG  PMAP                    PRINT FDD MAP
 RUNFLG.PSPI       10 ONES          6148  1  292.                FLAG  PSPI                    OUTPUT SPIRES
 RUNFLG.RESTART    08 ONES          6153  1  293.                FLAG  RESTART                 RE-USE "FILES" DATA SET
 RUNFLG.DUMP       04 ONES          6158  1  294.                FLAG  DUMP                    DUMP CATALOG "PIECES" TO TAPE
000095B 00                          6164  1  296.     CONVFLGS   FLAG  ,                       CONVERSION FLAGS
 CONVFLGS.CONVERT  80 ONES          6168  1  297.                FLAG  CONVERT                 A CONVERSION MODE SET
 CONVFLGS.CONVENTS 40 ONES          6173  1  298.                FLAG  CONVENTS                CONVERT ENTRYS
 CONVFLGS.CONVFSMB 20 ONES          6178  1  299.                FLAG  CONVFSMB                CONVERT FSMB
 CONVFLGS.CONCATMV 10 ONES          6183  1  300.                FLAG  CONCATMV                MOVE CAT - FSMB PTRS
 CONVFLGS.CONVCHK  08 ONES          6188  1  301.                FLAG  CONVCHK                 CONVERT CHECKPOINT BLOCK
 CONVFLGS.NOCHKREC 04 ONES          6193  1  302.                FLAG  NOCHKREC                BYPASS CHECKPOINT RECOVERY
000095C 0010                        6199  1  304.     ACCXLEN    DC    Y(L'NXRYGR)             LENGTH
 00095E E9F94BE9F9FA                6200  1  305.     NULLACCT   DC    C'Z9.Z9',X'FA'          NULL ACCT
 000964 FF                          6201  1  306.                DC    X'FF'                   CODE SAYS IT'S ACCT
 000965 00000000000000              6202  1  307.                DC    7X'00'                  ZERO MAX/USED SPACE FLGS
                                    6203  1  308.     ACCEND     EQU   ACCXLEN,*-ACCXLEN,C'R'  DEFINE END ACCOUNT
 00096C C1C14BC4D4D4                6204  1  309.     CURACCT    DC    CL6'AA.DMM'             Current account
 000972 0000                              1
 000974                             6205  1  310.                DC    0F'0'                   Alignment
 000974 00000000                    6206  1  311.     ExecPtr    DC    A(0)                Address of EXEC parameter string
 000978 00000000                    6207  1  312.     FDMODE     DC    A(0)                    ACC/FILE mode
 00097C 00000000                    6208  1  313.     FDCATSB    DC    A(0)                    New Catalog Start Block
 000980 00000000                    6209  1  314.     FDCATBC    DC    A(0)                    New Catalog Block Count
 000984 00000000                    6210  1  315.     FDBCNT     DC    A(0)                    Number of Catalog blocks
 000988 00000000                    6211  1  316.     FILCNT     DC    A(0)                    File count
 00098C 00000000                    6212  1  317.     ACCCNT     DC    A(0)                    Number of accounts
 000990 00000000                    6213  1  318.     FDFBNO     DC    A(0)                    Number of free blocks
 000994 00000000                    6214  1  319.     FDBYTCNT   DC    A(0)                    FD byte count, total
 000998 00000000                    6215  1  320.     FDABYTS    DC    A(0)                    ACC byte count, total
 00099C 00000000                    6216  1  321.     FDFBYTS    DC    A(0)                    FILE byte count, total
 0009A0 00000000                    6217  1  322.     FDADEPTH   DC    A(0)                    ACC tree depth
 0009A4 00000000                    6218  1  323.     FDFTREES   DC    A(0)                    Number of file trees
 0009A8 00000000                    6219  1  324.     FDFDEPMX   DC    A(0)                    Max depth of a FILE tree
 0009AC 00000000                    6220  1  325.     FDFDEPTH   DC    A(0)                    Total of FILE tree depths
 0009B0 00000000                    6221  1  326.     FDANOD     DC    A(0)                    Number of ACC nodes
1VBLD     (VBLD21) (09:45) (22MAR04) Data Definitions                                                                       Page   42
0D-Loc  Object Code    Addr1 Addr2  Stmt Lv Lineno    Source Statement           (Hibal 5, Asmedit 3.3)  HLASM R4.0  2004/03/22 09.45
+_____  ______ ____    _____ _____  ____ __ ______    ______ _________
00009B4 00000000                    6222  1  327.     FDANOB     DC    A(0)                    ACC nodes over balanced
 0009B8 00000000                    6223  1  328.     FDANUB     DC    A(0)                    ACC nodes under balanced
 0009BC 00000000                    6224  1  329.     FDANSP     DC    A(0)                    ACC node avail space
 0009C0 00000000                    6225  1  330.     FDENTMAX   DC    A(0)                    MAXIMUM ENTRY LENGTH IN FD
 0009C4 00000000                    6226  1  331.     FDENTAVG   DC    A(0)                    AVERAGE ENTRY LENGTH IN FD
0                                   6228  1  333.     *VCTDSCT  DC    A(0)                    Dummy CT
                                    6229  1  334.     *VCTDSCTLN DC   A(0)                    = len
 0009C8 00000000                    6230  1  335.     FILBUF     DC    A(0)                    File list buffer address
 0009CC 00000000                    6231  1  336.     FILBUFLN   DC    A(0)                    Î len
 0009D0 00000000                    6232  1  337.     CONVBUF    DC    A(0)                    Conversion buffer address
 0009D4 00000000                    6233  1  338.     CONVBUFLN   DC   A(0)                    Î len
 0009D8 00000000                    6234  1  339.     CATBIT     DC    A(0)                    Catalog verification bitmap
 0009DC 00000000                    6235  1  340.     CATBITLN   DC    A(0)                    Î Length
 0009E0 00000000                    6236  1  341.     CATBUF     DC    A(0)                    Start of VCAT buffers
 0009E4 00000000                    6237  1  342.     CATBUFLN   DC    A(0)                    Î Length
00009E8 0000000000000000            6239  1  344.     CLCKSTRT   DC    D'0'                    Clock starting time
 0009F0 0000000000000000            6240  1  345.     CLCKEND    DC    D'0'                    Clock ending time
 0009F8 0000000000000000            6241  1  346.     CLCKNOW    DC    D'0'                    Current clock
 000A00 0000000000000000            6242  1  347.     CLWTEMP    DC    8D'0'                   Conversion work area
 000A40 4040404040404040            6243  1  348.     FSNAM      DC    CL8' '                  FILE SYSTEM NAME
 000A48 00000000                    6244  1  349.     CATMNFRE   DC    A(0)                    MINIMUM NUMBER OF FREE BLOCKS
-000A4C 00000000                    6246  1  351.     SUBHEAD    DC    A(0)                    Sub-Title Routine
 000A50 00000000                    6247  1  352.     LNCNT      DC    A(0)                    Current line count for page
 000A54 00000001                    6248  1  353.     PGENO      DC    A(1)                    Current page number
 000A58 00000000                    6249  1  354.     OUTBUF     DC    A(0)                    ADDRESS OF OUTPUT LINES
 000A5C 00000C                      6250  1  355.     PGE#1      DC    PL3'0'                  PAGE NUMBER
 000A5F 001C                        6251  1  356.     PGE#2      DC    PL2'1'                  SECONDARY PAGE NUMBER
-000A64                             6253  1  358.     VCATPSW    DS    A(0)                    VCAT PSW @ ERROR DETECT
 000A68                             6254  1  359.     VCATRET    DS    F'0'                    VCAT RETURN CODE
 000A6C                             6255  1  360.     OUTPUT     DS    32X'00'
                                    6256  1  361.     *                 MONFUDGE is used in the CONVDATE routine to convert
                                    6257  1  362.     *               the date field in file entrys from packed decimal
                                    6258  1  363.     *               format to TOD form.
 000A8C 00000001FFFF0000            6259  1  364.     MONFUDGE   DC    Y(0,1,-1,0,0,1,1,2,3,3,4,4)
1VBLD     (VBLD21) (09:45) (22MAR04) Data Definitions                                                                       Page   43
0Loc    Object Code    Addr1 Addr2  Stmt Lv Lineno    Source Statement           (Hibal 5, Asmedit 3.3)  HLASM R4.0  2004/03/22 09.45
+___    ______ ____    _____ _____  ____ __ ______    ______ _________
0000AA8                             6261  1  366.     KTIME      DS    D                       Time of kaput
 000AB0                             6262  1  367.     KREGS      DS    16F                     Kaput Registers
 000AF0                             6263  1  368.     LTRACE     DS    A                       Last trace address
 000AF4                             6264  1  369.                DS    0A
                                    6265  1  370.   C VFSBDSCT   FSBGEN  DDN=DISK,FSID=0,NAME=VBLDFSB,
 000AF4                                   1  371.                      OF=L'FSBONIXR,CATBUF=8
 000AF4 0000000000000000            6267  1          +
 000AF4 C6E2C240       00AF8 00AF8  6270  1          +
 000AF8 00000000       00AFC 00B14  6273  1          +
 000B14 C7C74BD6D9E5   00B1A 00AFD  6276  1          +
 000AFD 20/00          00AFE 00AFE  6279  1          +
 000AFF 80/00          00B00 00AFC  6285  1          +
 000B08 C4C9E2D2       00B0C 00BD8  6291  1          +
 000BD8 000009C4       00BDC 00B0C  6294  1          +
 000B0C E5C2D3C4C6E2C240            6297  1          +
 000B50 00000008/0800  00B54 00BA0  6302  1          +
 000BC4 0001           00BC6 00CD4  6311  1          +
1VBLD     (VBLD21) (09:45) (22MAR04) Data Definitions                                                                       Page   44
0Loc    Object Code    Addr1 Addr2  Stmt Lv Lineno    Source Statement           (Hibal 5, Asmedit 3.3)  HLASM R4.0  2004/03/22 09.45
+___    ______ ____    _____ _____  ____ __ ______    ______ _________
0000CD4                             6314  1  373.                DS    0F
 000CD4 0000000000000000            6315  1  374.     VRQBDSCT   DC    (L'RQBL)X'00'           DUMMY RQBL
 000DA8                00DA8 00CD8  6316  1  375.                ORG   VRQBDSCT-RQBL+RQBRPB
 000CD8 00000DA8                    6317  1  376.                DC    A(VRPBDSCT)             RPB POINTER
 000CDC                00CDC 00DA8  6318  1  377.                ORG   ,
 000DA8 0000000000000000            6319  1  378.     VRPBDSCT   DC    (L'RPBL)X'00'           DUMMY RPBL
1VBLD     (VBLD21) (09:45) (22MAR04) Data Definitions                                                                       Page   45
0Loc    Object Code    Addr1 Addr2  Stmt Lv Lineno    Source Statement           (Hibal 5, Asmedit 3.3)  HLASM R4.0  2004/03/22 09.45
+___    ______ ____    _____ _____  ____ __ ______    ______ _________
0                                   6321  1  380.     *
                                    6322  1  381.     *    VFREAD Parameter lists
                                    6323  1  382.     *
 000EA8 FFFFFFFE                    6324  1  383.     VOPN       DC    A(-2)               New style parameter list
 000EAC 00                          6325  1  384.     VOPN_FL    FLAG  ,
 VOPN_FL.VOPN_BCV  80 ONES          6329  1  385.                FLAG  VOPN_BCV              - BCV processing mode
                                    6334  1  386.     *                                    - CAUTION: LAST X'01' OUTPUT
 000EAD 000ED0                      6335  1  387.                DC    AL3(VPOW)           Open for input only
 000EB0 00000EDC                    6336  1  388.                DC    A(IOAREA)           Chain address
 000EB4 00000ED4                    6337  1  389.                DC    A(BLDECB)           ECB address for post
 000EB8 00000ED8                    6338  1  390.                DC    A(MAXNO)            Return total file blocks
 000EBC C3D6D5E3D9D6D340            6339  1  391.                DC    CL8'CONTROL'        Ddname of control file
 000EC4 C4E2D24040404040            6340  1  392.                DC    CL8'DSK'            Ddname prefix for allocation
 000ECC 00000EE0                    6341  1  393.                DC    A(BLOCKLEN)         Blocksize
                                    6342  1  394.
 000ED0 00000001                    6343  1  395.     VPOW       DC    A(1)                Number of I/O blocks
 000ED4 00000000                    6344  1  396.     BLDECB     DC    A(0)                ECB for I/O posting
 000ED8 00000000                    6345  1  397.     MAXNO      DC    A(0)                Maximum ORVYL block number
 000EDC 00000000                    6346  1  398.     IOAREA     DC    A(0)                IO Information area
 000EE0 00000000                    6347  1  399.     BLOCKLEN   DC    A(0)                Blocksize
0000EE4 00000000                    6349  1  401.     VSAREA     DC    A(0)                VS save area address
 000EE8 0000000000000000            6350  1  402.     STACK      DC    128A(0)             Stack area
-                                         1
                                    6352  1  404.                PRINT NOGEN
                                    6354  1  405.   C FILS       DCB   DDNAME=FILES,DSORG=PS,RECFM=VBS,MACRF=(GM,PM),
 0010E8 0000000000000000                  1  406.                      BLKSIZE=6233,LRECL=4100,EODAD=LSTEND
0                                   6397  1  408.   C LIST       DCB   DDNAME=LIST,DSORG=PS,RECFM=VBA,MACRF=PM,
 001148 0000000000000000                  1  409.                      BLKSIZE=6223,LRECL=137
-                                   6440  1  411.   C DUMPDCB    DCB   DDNAME=CATDUMP,DSORG=PS,RECFM=VB,MACRF=PM,
 0011A8 0000000000000000                  1  412.                      BLKSIZE=6233,LRECL=4100
-                                   6483  1  414.   C SPIDCB     DCB   DDNAME=SPIRES,DSORG=PS,RECFM=FB,MACRF=PM,
 001208 0000000000000000                  1  415.                      BLKSIZE=6160,LRECL=80
                                    6525  1  416.                PRINT GEN
-                                         1
 001268                             6528  1  418.     KWRT       SCKW  LIST,SLST,A             LIST FILES
 001268 0B000496D3C9E2E3            6529  1          +
 001270                             6530  1  419.                SCKW  NOLIST,CLST,A           Î OR DON'T DO IT
 001270 0D00049CD5D6D3C9            6531  1          +
 00127A                             6532  1  420.                SCKW  REBUILD,SBLD,A          BUILD FROM TEMP (JUST DUMPED)
 00127A 0E0004A2D9C5C2E4            6533  1          +
 001285                             6534  1  421.                SCKW  SYSTEM,SSYS,(A,P)       FILE SYSTEM NAME
 001285 8D0004A8E2E8E2E3            6535  1          +
 00128F                             6536  1  422.                SCKW  DUMP,SDUMP              DUMP CATALOG
 00128F 03000506C4E4D4D7            6537  1          +
 001297                             6538  1  423.                SCKW  CONVERT,SCONV,P         ***CONVERSION
 001297 860004B6C3D6D5E5            6539  1          +
1VBLD     (VBLD21) (09:45) (22MAR04) Data Definitions                                                                       Page   46
0Loc    Object Code    Addr1 Addr2  Stmt Lv Lineno    Source Statement           (Hibal 5, Asmedit 3.3)  HLASM R4.0  2004/03/22 09.45
+___    ______ ____    _____ _____  ____ __ ______    ______ _________
00012A2                             6540  1  424.                SCKW  SPIRES,SPI,A            WRITE SPIRES FILE
 0012A2 0D0004FAE2D7C9D9            6541  1          +
 0012AC                             6542  1  425.                SCKW  RESTART,RSTRT,A         BUILD FROM BACKUP
 0012AC 0E000500D9C5E2E3            6543  1          +
 0012B7                             6544  1  426.                SCKW  NEWFSMB,SFSMB           NEW FSMB FORMAT
 0012B7 060004C2D5C5E6C6            6545  1          +
 0012C2                             6546  1  427.                SCKW  NEWCHK,SCHK             NEW CHECKPOINT BLK FORMAT
 0012C2 050004C8D5C5E6C3            6547  1          +
 0012CC                             6548  1  428.                SCKW  NEWENTRY,SENTRY         NEW ENTRY FORMAT
 0012CC 070004BCD5C5E6C5            6549  1          +
 0012D8                             6550  1  429.                SCKW  CATSB,SCATSB,(P,PI)     NEW CATALOG START BLOCK
 0012D8 A40004D4C3C1E3E2            6551  1          +
 0012E1                             6552  1  430.                SCKW  CATBC,SCATBC,(P,PI)     NEW CATALOG BLOCK COUNT
 0012E1 A40004E4C3C1E3C2            6553  1          +
 0012EA                             6554  1  431.                SCKW  NOCHKREC,SNOCHK         NO CHECKPOINT RECOVERY
 0012EA 070004CED5D6C3C8            6555  1          +
 0012F6                             6556  1  432.                SCKW  BCV,SBCV                BCV PROCESSING
 0012F6 020004F4C2C3E5              6557  1          +
 0012FD FF000462                    6558  1  433.                SCKW  ,SINV                   INVALID
 001304                             6560  1  434.                SCANCB PFX=SCN
 000016                00000 03848  6573     435.              END   ,                       OF DATASECT
1VBLD     (VBLD21) (09:45) (22MAR04) ORVYL'S Catalog Re-Build Utility Routine                                               Page   47
0Loc    Object Code    Addr1 Addr2  Stmt Lv Lineno    Source Statement           (Hibal 5, Asmedit 3.3)  HLASM R4.0  2004/03/22 09.45
+___    ______ ____    _____ _____  ____ __ ______    ______ _________
0                                   6580     437.     *********************************************************************
                                    6581     438.     *   VBLD uses ORVYL's VCAT module for CATALOG access methods.  So   *
                                    6582     439.     * when VCAT is called, FSBR, RQBR, and CTR should point to dummy    *
                                    6583     440.     * FSB, RQBL, and FILECB. The work area register (WR/R13) should     *
                                    6584     441.     * point to the RQBL stack on entry to VCAT, and will point to it on *
                                    6585     442.     * return.                                                           *
                                    6586     443.     *   R11 is used throughout VBLD as a pointer to the data area, and  *
                                    6587     444.     * assumes that VCAT/VFIL use R11 as SCBR, and won't change or       *
                                    6588     445.     * depend on that register pointing to a SCB                         *
                                    6589     446.     *********************************************************************
 000016                00000 03848  6590     447.     VBLD     CSECT ,                   Define rebuild control section
                                    6592     448.              ENTRY START               Define module entry address
 000016                             6593     449.     START    LABEL ,
 000016 90EC D00C            0000C  6595     450.              STM   R14,R12,@R13+12     Save calling registers
 00001A 0D60                        6596     451.              BASE  BRR                 Program basing
 USING  *,R6
 00001C                             6610     452.     BASE     LABEL ,
 00001C 58B0 671C            00738  6612     453.              L     R11,=A(DATASECT)    Address of data section
 USING  DATASECT,R11                6613     454.              USING DATASECT,R11        ## global data addr
 000020 50D0 B58C            00EE4  6622     455.              ST    R13,VSAREA          Save vs save area address
 000024 41D0 B590            00EE8  6623     456.              LA    R13,STACK           Set our save stack address
-000028 5010 B01C            00974  6625     458.              ST    R1,ExecPtr          Save pointer to exec parm
 00002C 1821                        6626     459.              LR    R2,R1               Copy for later access
 00002E 4110 66BC            006D8  6627     460.              LA    R1,=CL8'VBLDPRT'    Address of print ddname
 000032 5890 6720/0D99       0073C  6628     461.              ACALL CHKLIST             Allocate if not there
 000038 4100 0020            00020  6632     462.              VCNTL DDNAM,=CL8'VBLDPRT' Preset vbld ddname
 00003C 4110 66BC            006D8  6640             +
 000040 5890 6724/0D99       00740  6649             +
 000046 D203 B0F4 6728 00A4C 00744  6651     463.              MVC   SUBHEAD,=A(SUBHDR1) Prime subheader address
 00004C 5890 672C/0D99       00748  6652     464.              ACALL HEADER              Announce ourselves to the world
 000052 5810 2000            00000  6656     465.              L     R1,@R2              Address parameter string
 000056 4800 1000            00000  6657     466.              LH    R0,@R1              Parameter length
 00005A 4110 1002            00002  6658     467.              LA    R1,@R1+2            Bump to parameter start
 00005E 41F0 B9AC            01304  6659     468.              SCINIT (R1),(R0),SCNCB    Initialize scanner
 000062 58E0 6730/0DEE       0074C  6677             +
 000068 4110 B910            01268  6679     469.     SSCAN    SCAN  KWRT,(R15)          Scan off parameters
 00006C 58E0 6734/0DEE       00750  6693             +
 000072 4770 6446            00462  6695     470.              IF    NZ,SINV             Invalid parameter
                                    6709     471.              ¿þþþþþþþþþþþþþþþþþþþþþþþþþþþþþþþþþþþþþþþþþþþþþþþþþþþþþþþþþþþþþÜ
                                    6710     472.                The only time checkpoint recovery can be bypassed is when  
                                    6711     473.                the catalog is being rebuilt from an existing FILES DD.    
                                    6712     474.              ¾þþþþþþþþþþþþþþþþþþþþþþþþþþþþþþþþþþþþþþþþþþþþþþþþþþþþþþþþþþþþþ»
 000076 9104 B003      0095B        6713     475.              IF    (NOCHKREC,AND,~RESTART),BLDERR
 00007A 47E0 606A            00086  6725             +
 00007E 9108 B002      0095A        6736             +
 000082 47E0 6370            0038C  6739             +
 000086 B205 B090      009E8        6745     476.              STCK  CLCKSTRT            Save starting tod clock
-00008A 5890 6738/0D99       00754  6747     478.              ACALL OPENFS              Open file system
 000090 5890 673C/0D99       00758  6751     479.              ACALL FORMDSCT            Format control blocks
 000096 9108 B002      0095A        6755     480.              IF    ~RESTART,BEGIN      Use current catalog
 00009A 4710 6090            000AC  6765             +
 00009E 9110 B003      0095B        6770  1  481.                IF    CONCATMV,INVCOM     Catalog moved - invalid combo
1VBLD     (VBLD21) (09:45) (22MAR04) ORVYL'S Catalog Re-Build Utility Routine                                               Page   48
0Current Usings:  (*,R6) (DATASECT,R11)
0Loc    Object Code    Addr1 Addr2  Stmt Lv Lineno    Source Statement           (Hibal 5, Asmedit 3.3)  HLASM R4.0  2004/03/22 09.45
+___    ______ ____    _____ _____  ____ __ ______    ______ _________
00000A2 4710 630C            00328  6782  1          +
 0000A6 5890 6740/0D99       0075C  6788  1  482.                ACALL PASSONE             Disect catalog
 0000AC                             6792     483.              END   ,                   Of use current catalog
 0000AC 9180 B002      0095A        6796     484.              IF    LISTF,'ACALL LISTFLS'   Print file list
 0000B0 47E0 609E            000BA  6806             +
 0000B4 5890 6744/0D99       00760  6814             +
 0000BA 9104 B002      0095A        6820     485.              IF    DUMP,'ACALL DUMPCAT'    Do catalog backup
 0000BE 47E0 60AC            000C8  6830             +
 0000C2 5890 6748/0D99       00764  6838             +
 0000C8 9110 B002      0095A        6844     486.              IF    PSPI,'ACALL SPIOUT'     Do Spires output
 0000CC 47E0 60BA            000D6  6854             +
 0000D0 5890 674C/0D99       00768  6862             +
 0000D6 9140 B002      0095A        6868     487.              IF    RBLD,'ACALL REBUILD'    Rebuild file-directory
 0000DA 47E0 60C8            000E4  6878             +
 0000DE 5890 6750/0D99       0076C  6886             +
 0000E4 47F0 64F0            0050C  6892     488.              B     CLOSE                   End of processing, (for now)
1VBLD     (VBLD21) (09:45) (22MAR04) ORVYL'S Catalog Re-Build Utility Routine                                               Page   49
0Current Usings:  (*,R6) (DATASECT,R11)
0Loc    Object Code    Addr1 Addr2  Stmt Lv Lineno    Source Statement           (Hibal 5, Asmedit 3.3)  HLASM R4.0  2004/03/22 09.45
+___    ______ ____    _____ _____  ____ __ ______    ______ _________
0                                   6894     490.     ********************************************************************
                                    6895     491.     *                                                                  *
                                    6896     492.     *                  FDD Print Header Routine                        *
                                    6897     493.     *                                                                  *
                                    6898     494.     ********************************************************************
00000E8                             6900     496.     FDDHEAD  LABEL ,
 0000E8 9029 D000            00000  6902     497.              VPUSH SR,RAR,*                Save calling registers
 0000EC 41D0 D020            00020  6904             +
                                    6905     498.              PRINT NOGEN                   Suppress macro expansion
 0000F0 4100 0010            00010  6907     499.              VCNTL BLANK,8                 Spacer
 0000FE 4110 67D8            007F4  6926     500.              VSEG  'Page  '                Set page number title
 00010C 4110 66C4            006E0  6935     501.              VSEG  'Length  '              Set length title
 00011A 4110 66CC            006E8  6944     502.              VSEG  'Account '              Set account title
 000128 4110 66D4            006F0  6953     503.              VSEG  'Filename'              Set filename title
                                    6962     504.              PRINT GEN                     Turn macro expansion on
 000136 4D90 612C            00148  6964     505.              LCALL WRTLN                   OUTPUT BUFFER
 00013A 4D90 612C            00148  6966     506.              LCALL WRTLN                   OUTPUT BLANK LINK
 00013E 4BD0 67DE            007FA  6968     507.              VPOP  SR,RAR,*                RESTORE CALLING REGISTERS
 000142 9829 D000            00000  6970             +
 000146 07F9                        6971     508.              BR    RAR                     RETURN TO CALLER
-                                   6973     510.     ********************************************************************
                                    6974     511.     *                                                                  *
                                    6975     512.     *  Write line routine                                              *
                                    6976     513.     *                                                                  *
                                    6977     514.     ********************************************************************
-000148                             6979     516.     WRTLN    LABEL ,
 000148 5090 D000            00000  6981     517.              VPUSH RAR,,*              Save return register
 00014C 41D0 D004            00004  6983             +
 000150 5890 6758/0D99       00774  6984     518.              VWRITE ,                  Output buffer
 000156 4110 0001            00001  6989     519.              INCR  R1,LNCNT            Bump line count
 00015A 5E10 B0F8            00A50  6993             +
 00015E 5010 B0F8            00A50  6994             +
 000162 5910 675C            00778  6995     520.              IF    (R1,GE,59),BEGIN    New header needed
 000166 4750 6154            00170  7007             +
 00016A 5890 672C/0D99       00748  7012  1  521.                ACALL HEADER              Write new header
 000170                             7016     522.              END   ,
 000170 4BD0 67E0            007FC  7020     523.              VPOP  RAR,,*              Restore return register
 000174 5890 D000            00000  7022             +
 000178 07F9                        7023     524.              BR    RAR                 And return to caller
1VBLD     (VBLD21) (09:45) (22MAR04) ORVYL'S Catalog Re-Build Utility Routine                                               Page   50
0Current Usings:  (*,R6) (DATASECT,R11)
0Loc    Object Code    Addr1 Addr2  Stmt Lv Lineno    Source Statement           (Hibal 5, Asmedit 3.3)  HLASM R4.0  2004/03/22 09.45
+___    ______ ____    _____ _____  ____ __ ______    ______ _________
0                                   7025     526.     ********************************************************************
                                    7026     527.     *                                                                  *
                                    7027     528.     *                       Header Routine                             *
                                    7028     529.     *                                                                  *
                                    7029     530.     ********************************************************************
-00017A                             7031     532.     HEADER   LABEL ,
 00017A 9029 D000            00000  7033     533.              VPUSH SR,RAR,*            Save calling registers
 00017E 41D0 D020            00020  7035             +
                                    7036     534.              PRINT NOGEN               Suppress macro expansion
 000182 4100 001C            0001C  7038     535.              VCNTL PAGE                Skip page
 00018E 4110 684C            00868  7054     536.              VSEG  'VBLD -- File Directory Re-Build'
 00019C 4100 0010            00010  7063     537.              VCNTL BLANK,40            Spacer for page title
 0001AA 4110 686B            00887  7082     538.              VSEG  'Page '             Set page in title
 0001B8 58F0 B0FC            00A54  7091     539.              SEGDC 3,PGENO             Seg page number
 0001D0 5890 6758            00774  7133     540.              VWRITE ,                  Output buffer
 0001D6 4770 6382            0039E  7138     541.              IF    NZ,PRTERR           Error opening sysprint file
 0001DA 4110 0001            00001  7152     542.              INCR  R1,PGENO            bump page number
 0001E6 4100 0010            00010  7158     543.              VCNTL BLANK,8             Spacer for ident string
 0001F4 4110 66DC            006F8  7177     544.              VSEG  'Version='          Report VBLD version string
 000202 5810 6764            00780  7186     545.              L     R1,=A(VBLD)         Point to IDENT string
 000206 1F00                        7187     546.              LC    R0,@R1              Load length of ident string
 00020C 4110 1001            00001  7192     547.              LA    R1,@R1+1            Bump to start of IDENT string
 000210 5890 6754            00770  7193     548.              VSEG  (R1),(R0)           Report version and assembly time
 000216 5890 6758            00774  7208     549.              VWRITE ,                  Write to report file
 00021C 4100 0010            00010  7213     550.              VCNTL BLANK,8             spacer for time line
 00022A 4110 6768            00784  7232     551.              VSEG  'Run date is '      Neatness counts
 000238 9801 B090            009E8  7241     552.              LM    R0,R1,CLCKSTRT      set tod clock value
 00023C 41F0 B0A8            00A00  7242     553.              LA    R15,CLWTEMP         address of work area
 000240 58E0 6774            00790  7243     554.              XCALL FMTCLCK             format time & date
 000246 5890 6754            00770  7247     555.              VSEG  (1),(0)             seg into buffer
 00024C 5890 6758            00774  7264     556.              VWRITE ,                  output time header line
                                    7269     557.              PRINT GEN                 turn macro expansion back on
 000252 4110 0003            00003  7271     558.              LA    R1,3                set line count
 000256 5010 B0F8            00A50  7272     559.              ST    R1,LNCNT            reset line counter
 00025A 5890 B0F4/1299       00A4C  7273     560.              LT    RAR,SUBHEAD         any header routine
 000260 4780 624A/0599       00266  7277     561.              IF    NZ,'BALR RAR,RAR'   yep -- doit
 000266 4BD0 67DE            007FA  7294     562.              VPOP  SR,RAR,*            pop return register
 00026A 9829 D000            00000  7296             +
 00026E 07F9                        7297     563.              BR    RAR                 return to caller
1VBLD     (VBLD21) (09:45) (22MAR04) ORVYL'S Catalog Re-Build Utility Routine                                               Page   51
0Current Usings:  (*,R6) (DATASECT,R11)
0Loc    Object Code    Addr1 Addr2  Stmt Lv Lineno    Source Statement           (Hibal 5, Asmedit 3.3)  HLASM R4.0  2004/03/22 09.45
+___    ______ ____    _____ _____  ____ __ ______    ______ _________
0                                   7299     565.     ¿þþþþþþþþþþþþþþþþþþþþþþþþþþþþþþþþþþþþþþþþþþþþþþþþþþþþþþþþþþþþþþþþþþþþþÜ
                                    7300     566.                                                                          
                                    7301     567.       Opening page sub header routine to report exec parameter string    
                                    7302     568.                                                                          
                                                      ¾þþþþþþþþþþþþþþþþþþþþþþþþþþþþþþþþþþþþþþþþþþþþþþþþþþþþþþþþþþþþþþþþþþþþþ»
-000270                             7304     570.     SUBHDR1  LABEL ,
 000270 9029 D000            00000  7306     571.              VPUSH R2,RAR,*            Enter and save calling registers
 000274 41D0 D020            00020  7308             +
 000278 4140 0001            00001  7309     572.              LA    R4,1                Set incremental line count
 00027C 5820 B01C            00974  7310     573.              L     R2,EXECPTR          Address of exec parm string
 000280 5820 2000            00000  7311     574.              L     R2,@R2              Address of (ll,string)
 000284 4830 2000            00000  7312     575.              LH    R3,@R2              Load length of exec parm string
 000288 4120 2002            00002  7313     576.              LA    R2,@R2+2            Bump to start of string
 00028C 1233/4780 62B4       002D0  7314     577.              IF    (R3,NZ),BEGIN       A parameter was passed
 000292 4100 0010            00010  7328  1  578.                VCNTL BLANK,8             Provide report spacing
 000296 4110 0008            00008  7336  1          +
 00029A 5890 6724/0D99       00740  7345  1          +
 0002A0 4110 67E2            007FE  7347  1  579.                VSEG  'Run Parm="'        Highlight parameter string
 0002A4 4100 000A            0000A  7351  1          +
 0002A8 5890 6754/0D99       00770  7354  1          +
 0002AE 1812/1803                   7356  1  580.                VSEG  (R2),(R3)           Set parameter into line buffer
 0002B2 5890 6754/0D99       00770  7371  1          +
 0002B8 4110 6870            0088C  7373  1  581.                VSEG  '"'                 Terminate quoted string
 0002BC 4100 0001            00001  7377  1          +
 0002C0 5890 6754/0D99       00770  7380  1          +
 0002C6 5890 6758/0D99       00774  7382  1  582.                VWRITE ,                  Write parameter string into report
 0002CC 4140 4001            00001  7387  1  583.                LA    R4,@r4+1            Bump incremental line counter
 0002D0                             7388     584.              END   ,
 0002D0 5890 6758/0D99       00774  7392     585.              Vwrite ,                  Write out a blank line
 0002D6 5A40 B0F8            00A50  7397     586.              A     R4,LNCNT            Add in page header line count
 0002DA 5040 B0F8            00A50  7398     587.              ST    R4,LNCNT            And save for page ejects
 0002DE                             7399     588.              CLEAR SUBHEAD             Clear this subheader print routine
 0002DE D703 B0F4 B0F4 00A4C 00A4C  7405             +
 0002E4 4BD0 67EC            00808  7406     589.              VPOP  R2,RAR,*            Restore calling registers and return
 0002E8 9829 D000            00000  7408             +
 0002EC 07F9                        7409     590.              BR    RAR                 Return to caller
1VBLD     (VBLD21) (09:45) (22MAR04) ORVYL'S Catalog Re-Build Utility Routine                                               Page   52
0Current Usings:  (*,R6) (DATASECT,R11)
0Loc    Object Code    Addr1 Addr2  Stmt Lv Lineno    Source Statement           (Hibal 5, Asmedit 3.3)  HLASM R4.0  2004/03/22 09.45
+___    ______ ____    _____ _____  ____ __ ______    ______ _________
0                                   7411     592.     *********************************************************************
                                    7412     593.     * On Entry:     R1  = Amount of memory to get                       *
                                    7413     594.     * On Exit:      R1  = Address of obtained memory                    *
                                    7414     595.     *               R0  = Length of obtained memory                     *
                                    7415     596.     *                 If not enough memory exists the routine exits     *
                                    7416     597.     *               through the NOMEM Error exit                        *
                                    7417     598.     *********************************************************************
00002EE 9029 D000            00000  7419     600.     GETMEM   VPUSH SR,RAR,*
 0002F2 41D0 D020            00020  7421             +
 0002F6 1831                        7422     601.              LR    TR,R1                   LEN
 0002F8 47F0 62E4/00         00300  7423     602.              GETMAIN RC,LV=(TR)
 0002FD 00/00/00/1803               7428             +
 000302 58F0 62E0/1B11       002FC  7433             +
 000308 0A78                        7435             +
 00030A 12FF/4770 6460       0047C  7436     603.              IF    (R15,NZ),NOMEM
 000310 1821                        7453     604.              LR    SR,R1                   LOCATION - SAVE
 000312 1802                        7454     605.              LR    R0,SR                   Î
 000314 1813                        7455     606.              LR    R1,TR                   LEN
 000316 1BFF                        7456     607.              CLEAR R15                     CLEAR MEM (0 SOURCE LEN/PAD)
 000318 0E0E                        7460     608.              MVCL  R0,R14                  Î
 00031A 1812                        7461     609.              LR    R1,SR                   LOCATION
 00031C 1803                        7462     610.              LR    R0,TR                   LEN
 00031E 4BD0 67DE            007FA  7463     611.              VPOP  SR,RAR,*
 000322 9829 D000            00000  7465             +
 000326 07F9                        7466     612.              BR    RAR
1VBLD     (VBLD21) (09:45) (22MAR04) ORVYL'S Catalog Re-Build Utility Routine                                               Page   53
0Current Usings:  (*,R6) (DATASECT,R11)
0Loc    Object Code    Addr1 Addr2  Stmt Lv Lineno    Source Statement           (Hibal 5, Asmedit 3.3)  HLASM R4.0  2004/03/22 09.45
+___    ______ ____    _____ _____  ____ __ ______    ______ _________
0                                   7468     614.     ********************************************************************
                                    7469     615.     *                                                                  *
                                    7470     616.     *  Error exit routines                                             *
                                    7471     617.     *                                                                  *
                                    7472     618.     ********************************************************************
0                                   7474     620.              PRINT NOGEN                   Suppress macro expansion
 000328 4110 67EE            0080A  7476     621.     INVCOM   VSEG  'CATSB/CATBC and ~RESTART is an invalid combination'
 000336 4D90 612C            00148  7485     622.              LCALL WRTLN
 00033A 47F0 64F0            0050C  7487     623.              B     CLOSE
0                                   7489     625.     BLKERR   LABEL ,                       Block error
 00033E 4110 66E4            00700  7491     626.              VSEG  'Block out of range error'
 00034C 47F0 646E            0048A  7500     627.              B     EXTPC
0                                   7502     629.     IOERR    LABEL ,                       I/O ERROR
 000350 58F0 B57C            00ED4  7504     630.              BTX   OUTPUT,8,BLDECB         WRITE ECB IN ERROR
 000362 5890 6754            00770  7528     631.              VSEG  (R1),(R0)               Î
 000368 4110 6871            0088D  7543     632.              VSEG  ' = ECB. File System I/O error'
 000376 47F0 646E            0048A  7552     633.              B     EXTPC                   SET RETURN CODE & EXIT
0                                   7554     635.     CHKERR   LABEL ,                       CHECKPOINT BLK ERROR
 00037A 4110 688E            008AA  7556     636.              VSEG  'Checkpoint Block Incomplete'
 000388 47F0 646E            0048A  7565     637.              B     EXTPC                   SET RETURN CODE & EXIT
0                                   7567     639.     BLDERR   LABEL ,                       BUILD ERROR
 00038C 4110 68A9            008C5  7569     640.              VSEG  'Checkpoint recovery must be on unless RESTART set'
 00039A 47F0 646E            0048A  7578     641.              B     EXTPC                   SET RETURN CODE & EXIT
0                                   7580     643.     PRTERR   LABEL ,
 00039E 0700                        7582     644.              WTO   'SYSPRINT Open Error',MCSFLAG=HRDCPY
 0003BE 9210 B000      00958        7590     645.              MVI   RETCOD,16
 0003C2 47F0 64F0            0050C  7591     646.              B     CLOSE
0                                   7593     648.     FILERR   LABEL ,
 0003C6 4110 677C            00798  7595     649.              VSEG  'Work File Open Error'
 0003D4 47F0 646E            0048A  7604     650.              B     EXTPC                   set return code & exit
0                                   7606     652.     DUMERR   LABEL ,
 0003D8 4110 6790            007AC  7608     653.              VSEG  'Dump Tape Open Error'
 0003E6 47F0 646E            0048A  7617     654.              B     EXTPC                   set return code & exit
0                                   7619     656.     FDOPNERR LABEL ,
 0003EA 4110 6820            0083C  7621     657.              VSEG  'Catalog Open Error'
 0003F8 47F0 646E            0048A  7630     658.              B     EXTPC                   set return code & exit
0                                   7632     660.     CATBERR  LABEL ,
 0003FC 4110 68DA            008F6  7634     661.              VSEG  'Catalog Block Header length error'
 00040A 47F0 646E            0048A  7643     662.              B     EXTPC                   set return code & exit
0                                   7645     664.     NOCATBSE LABEL ,
 00040E 4110 6832            0084E  7647     665.              VSEG  'Catalog base block invalid'
 00041C 47F0 646E            0048A  7656     666.              B     EXTPC                   set return code & exit
1VBLD     (VBLD21) (09:45) (22MAR04) ORVYL'S Catalog Re-Build Utility Routine                                               Page   54
0Current Usings:  (*,R6) (DATASECT,R11)
0Loc    Object Code    Addr1 Addr2  Stmt Lv Lineno    Source Statement           (Hibal 5, Asmedit 3.3)  HLASM R4.0  2004/03/22 09.45
+___    ______ ____    _____ _____  ____ __ ______    ______ _________
0                                   7658     668.     CATCNTER LABEL ,
 000420 4110 68FB            00917  7660     669.              VSEG  'Catalog block count invalid'
 00042E 47F0 646E            0048A  7669     670.              B     EXTPC                   set return code & exit
0                                   7671     672.     FDERR    LABEL ,
 000432 4110 67A4            007C0  7673     673.              VSEG  'Catalog Format Error'
 000440 9208 B000      00958        7682     674.              MVI   RETCOD,8                SET RETURN CODE
 000444 47F0 6472            0048E  7683     675.              B     EXTP                    EXIT PROGRAM
0000448 4110 67B8            007D4  7685     677.     SOMIT    VWRT  'Value omitted in parm string'
 00045A 9210 B000      00958        7699     678.              MVI   RETCOD,16               SET RETURN CODE
 00045E 47F0 6472            0048E  7700     679.              B     EXTP                    COMPLETE PROCESSING
0                                   7702     681.     SINV     LABEL ,
 000462 4110 66FC            00718  7704     682.              VSEG  'Invalid parameter in parm string'
 000470 4D90 612C            00148  7713     683.              LCALL WRTLN                   OUTPUT ERROR MESSAGE
 000474 9210 B000      00958        7715     684.              MVI   RETCOD,16               SET RETURN CODE
 000478 47F0 6472            0048E  7716     685.              B     EXTP                    COMPLETE PROCESSING
0                                   7718     687.     NOMEM    LABEL ,
 00047C 4110 6916            00932  7720     688.              VSEG  'VBLD Terminated - Insufficient Memory'
000048A 920C B000      00958        7730     690.     EXTPC    MVI   RETCOD,12               SET RETURN CODE
 00048E 4D90 612C            00148  7731     691.     EXTP     LCALL WRTLN                   OUTPUT ERROR MESSAGE
 000492 47F0 64F0            0050C  7733     692.              B     CLOSE                   CLOSE OUT PROCESSING
                                    7734     693.              PRINT GEN                     Return macro expansion
1VBLD     (VBLD21) (09:45) (22MAR04) ORVYL'S Catalog Re-Build Utility Routine                                               Page   55
0Current Usings:  (*,R6) (DATASECT,R11)
0Loc    Object Code    Addr1 Addr2  Stmt Lv Lineno    Source Statement           (Hibal 5, Asmedit 3.3)  HLASM R4.0  2004/03/22 09.45
+___    ______ ____    _____ _____  ____ __ ______    ______ _________
0                                   7737     695.     ********************************************************************
                                    7738     696.     *                                                                  *
                                    7739     697.     *  Scan exit routines                                              *
                                    7740     698.     *                                                                  *
                                    7741     699.     ********************************************************************
0000496                             7743     701.     SLST     LABEL ,
 000496 9680 B002      0095A        7745     702.              SET   LISTF                   SET LIST FILE FLAG
 00049A 07FE                        7751     703.              SCRTN (R15)                   RETURN TO SCANNER
000049C                             7758     705.     CLST     LABEL ,
 00049C 947F B002      0095A        7760     706.              CLEAR LISTF                   CLEAR LIST FILE FLAG
 0004A0 07FE                        7767     707.              SCRTN (R15)                   RETURN TO SCANNER
00004A2                             7774     709.     SBLD     LABEL ,                       BUILD FROM TEMP FILE
 0004A2 9640 B002      0095A        7776     710.              SET   RBLD                    SET REBUILD FLAG
 0004A6 07FE                        7782     711.              SCRTN (R15)                   RETURN TO SCANNER
00004A8                             7789     713.     SSYS     LABEL ,
 0004A8 47D0 6446            00462  7791     714.              IF    NP,SINV                 INVALID STRING
 0004AC 1820                        7805     715.              LR    SR,R0                   COPY STRING LENGTH FOR "EX"
 0004AE 0620/4420 B9CC       01324  7806     716.              DEX   SR,'MVC FSNAM(0),@R1'   MOVE FILE-SYS NAME FOR PRINT
 001324 D200 B0E8 1000 00A40 00000  7817             +
 0004B4 07FE                        7825     717.              SCRTN (R15)                   RETURN TO SCANNER
00004B6                             7832     719.     SCONV    LABEL ,
 0004B6 9680 B003      0095B        7834     720.              SET   CONVERT                 SET CONVERSION
 0004BA 07FE                        7840     721.              SCRTN (R15)
00004BC 9640 B003      0095B        7847     723.     SENTRY   SET   CONVENTS                CONVERT ENTRYS
 0004C0 07FE                        7854     724.              SCRTN (R15)
00004C2 9620 B003      0095B        7861     726.     SFSMB    SET   CONVFSMB                MODIFY/CONVERT FSMB
 0004C6 07FE                        7868     727.              SCRTN (R15)
00004C8 9608 B003      0095B        7875     729.     SCHK     SET   CONVCHK                 MODIFY/CONVERT CHECKPOINT BLOCK
 0004CC 07FE                        7882     730.              SCRTN (R15)
00004CE 9604 B003      0095B        7889     732.     SNOCHK   SET   NOCHKREC                NO CHECKPOINT RECOVERY
 0004D2 07FE                        7896     733.              SCRTN (R15)
00004D4 4780 642C            00448  7903     735.     SCATSB   IF    Z,SOMIT                 PARM OMITTED
 0004D8 9610 B003      0095B        7918     736.              SET   CONCATMV                CATALOG BEING MOVED
 0004DC D203 B024 B9AC 0097C 01304  7924     737.              MVC   FDCATSB,SCNVAL          MOVE IN NEW CAT START BLOCK
 0004E2 07FE                        7925     738.              SCRTN (R15)
00004E4 4780 642C            00448  7932     740.     SCATBC   IF    Z,SOMIT                 PARM OMITTED
 0004E8 9610 B003      0095B        7947     741.              SET   CONCATMV                CATALOG BEING MOVED
 0004EC D203 B028 B9AC 00980 01304  7953     742.              MVC   FDCATBC,SCNVAL          MOVE IN NEW CAT BLOCK COUNT
 0004F2 07FE                        7954     743.              SCRTN (R15)
00004F4                             7961     745.     SBCV     LABEL ,                   Process business continuance volume
 0004F4 9680 B554      00EAC        7963     746.              SET   VOPN_BCV            Set for processing bcv volume
 0004F8 07FE                        7969     747.              SCRTN (R15)               And return to scanner
1VBLD     (VBLD21) (09:45) (22MAR04) ORVYL'S Catalog Re-Build Utility Routine                                               Page   56
0Current Usings:  (*,R6) (DATASECT,R11)
0Loc    Object Code    Addr1 Addr2  Stmt Lv Lineno    Source Statement           (Hibal 5, Asmedit 3.3)  HLASM R4.0  2004/03/22 09.45
+___    ______ ____    _____ _____  ____ __ ______    ______ _________
00004FA                             7976     749.     SPI      LABEL ,
 0004FA 9610 B002      0095A        7978     750.              SET   PSPI                    SET SPIRES OUTPUT
 0004FE 07FE                        7984     751.              SCRTN (R15)
0000500                             7991     753.     RSTRT    LABEL ,                       BUILD FROM BACKUP
 000500 9608 B002      0095A        7993     754.              SET   RESTART
 000504 07FE                        7999     755.              SCRTN (R15)
0000506                             8006     757.     SDUMP    LABEL ,
 000506 9604 B002      0095A        8008     758.              SET   DUMP                    DUMP CATALOG TO TAPE
 00050A 07FE                        8014     759.              SCRTN (R15)                   RETURN TO SCANNER
1VBLD     (VBLD21) (09:45) (22MAR04) ORVYL'S Catalog Re-Build Utility Routine                                               Page   57
0Current Usings:  (*,R6) (DATASECT,R11)
0Loc    Object Code    Addr1 Addr2  Stmt Lv Lineno    Source Statement           (Hibal 5, Asmedit 3.3)  HLASM R4.0  2004/03/22 09.45
+___    ______ ____    _____ _____  ____ __ ______    ______ _________
000050C                             8021     761.     CLOSE    LABEL ,
 00050C 5810 B070/1211       009C8  8023     762.              LT    R1,FILBUF               FILE BUFFER EXIST?
 000512 4780 6504            00520  8027     763.              IF    NZ,BEGIN                YEP -- RELEASE IT
 000516 5800 B074            009CC  8038  1  764.                L     R0,FILBUFLN             LENGTH TO RELEASE
 00051A 4110 1000/0A0A       00000  8039  1  765.                FREEMAIN R,LV=(0),A=(1)       RELEASE CORE
 000520                             8043     766.              END   ,
0000520 5810 B078/1211       009D0  8048     768.              LT    R1,CONVBUF              CONV BUFFER EXIST?
 000526 4780 6518            00534  8052     769.              IF    NZ,BEGIN                YEP -- RELEASE IT
 00052A 5800 B07C            009D4  8063  1  770.                L     R0,CONVBUFLN            LENGTH TO RELEASEE
 00052E 4110 1000/0A0A       00000  8064  1  771.                FREEMAIN R,LV=(0),A=(1)       RELEASE CORE
 000534                             8068     772.              END   ,
0000534 5810 B080/1211       009D8  8073     774.              LT    R1,CATBIT               CATALOG's bitmap exist?
 00053A 4780 652C            00548  8077     775.              IF    NZ,BEGIN                YEP -- RELEASE IT
 00053E 5800 B084            009DC  8088  1  776.                L     R0,CATBITLN             LENGTH TO RELEASE
 000542 4110 1000/0A0A       00000  8089  1  777.                FREEMAIN R,LV=(0),A=(1)       RELEASE CORE
 000548                             8093     778.              END   ,
0000548 5810 B088/1211       009E0  8098     780.              LT    R1,CATBUF               VCAT buffers?
 00054E 4780 6540            0055C  8102     781.              IF    NZ,BEGIN                YEP -- RELEASE IT
 000552 5800 B08C            009E4  8113  1  782.                L     R0,CATBUFLN             LENGTH TO RELEASE
 000556 4110 1000/0A0A       00000  8114  1  783.                FREEMAIN R,LV=(0),A=(1)       RELEASE CORE
 00055C                             8118     784.              END   ,
0                                   8123     786.     *         LT    R1,VCTDSCT              Dummy CT
                                    8124     787.     *         IF    NZ,BEGIN                YEP -- RELEASE IT
                                    8125     788.     *         L     R0,VCTDSCTLN            LENGTH TO RELEASE
                                    8126     789.     *         FREEMAIN R,LV=(0),A=(1)       RELEASE CORE
                                    8127     790.     *         END   ,
                                    8128     791.     *         SPACE ,
 00055C 9180 B001      00959        8129     792.              IF    FSOPEN,BEGIN
 000560 47E0 6552            0056E  8139             +
 000564 4110 B550            00EA8  8144  1  793.                LA    R1,VOPN                 MAKE INITIAL CALL TO VFREAD
 000568 5890 67D4/0D99       007F0  8145  1  794.                VCALL VFCLS                   CLOSE FILE SYSTEM
 00056E                             8149     795.              END   ,
0USING  IHADCB,R1                   8154     797.              WITH  (IHADCB,R1),BEGIN       ##DCB ADDR
 00056E 4110 B790            010E8  8168  1  798.                LA    R1,FILS                 FILES DCB ADDRESS
 000572 9110 1030      00030        8169  1  799.                IF    DCBOFLGS.DCBOFOPN,BEGIN
 000576 47E0 65B8            005D4  8180  1          +
 00057A 0700/4510 6568       00584  8185  2  800.                  CLOSE (FILS)                  CLOSE FILE
 000580 80/0010E8/0A14              8188  2          +
 000586 4110 B790            010E8  8191  2  801.                  FREEPOOL FILS                 RELEASE BUFFER POOL
 00058A 9101 1017      00017        8194  2          +
 00058E 4710 65B8/1FFF       005D4  8195  2          +
 000594 BFF7 1015            00015  8197  2          +
 000598 58E0 F000/12EE       00000  8198  2          +
 00059E 4770 658E            005AA  8200  2          +
 0005A2 9130 F004      00004        8201  2          +
 0005A6 4770 65B8            005D4  8202  2          +
 0005AA 9601 1017/1BEE 00017        8203  2          +
 0005B0 1B11/BF13 F006       00006  8205  2          +
 0005B6 43E0 F005/1C0E       00005  8207  2          +
1VBLD     (VBLD21) (09:45) (22MAR04) ORVYL'S Catalog Re-Build Utility Routine                                               Page   58
0Current Usings:  (IHADCB,R1) (*,R6) (DATASECT,R11)
0Loc    Object Code    Addr1 Addr2  Stmt Lv Lineno    Source Statement           (Hibal 5, Asmedit 3.3)  HLASM R4.0  2004/03/22 09.45
+___    ______ ____    _____ _____  ____ __ ______    ______ _________
00005BC 4110 1008            00008  8209  2          +
 0005C0 9140 F004      00004        8210  2          +
 0005C4 47E0 65B0            005CC  8211  2          +
 0005C8 4110 1008/1801       00008  8212  2          +
 0005CE 4110 F000/0A0A       00000  8214  2          +
 0005D4                             8217  1  802.                END   ,
 0005D4 4110 B7F0            01148  8221  1  803.                LA    R1,LIST                 LIST DCB ADDRESS
 0005D8 9110 1030      00030        8222  1  804.                IF    DCBOFLGS.DCBOFOPN,BEGIN
 0005DC 47E0 661C            00638  8233  1          +
 0005E0 4510 65CC/80         005E8  8238  2  805.                  CLOSE (LIST)                  CLOSE FILE
 0005E5 001148/0A14                 8242  2          +
 0005EA 4110 B7F0            01148  8244  2  806.                  FREEPOOL LIST                 RELEASE BUFFER POOL
 0005EE 9101 1017      00017        8247  2          +
 0005F2 4710 661C/1FFF       00638  8248  2          +
 0005F8 BFF7 1015            00015  8250  2          +
 0005FC 58E0 F000/12EE       00000  8251  2          +
 000602 4770 65F2            0060E  8253  2          +
 000606 9130 F004      00004        8254  2          +
 00060A 4770 661C            00638  8255  2          +
 00060E 9601 1017/1BEE 00017        8256  2          +
 000614 1B11/BF13 F006       00006  8258  2          +
 00061A 43E0 F005/1C0E       00005  8260  2          +
 000620 4110 1008            00008  8262  2          +
 000624 9140 F004      00004        8263  2          +
 000628 47E0 6614            00630  8264  2          +
 00062C 4110 1008/1801       00008  8265  2          +
 000632 4110 F000/0A0A       00000  8267  2          +
 000638                             8270  1  807.                END   ,
 000638 4110 B850            011A8  8274  1  808.                LA    R1,DUMPDCB              DUMPDCB DCB ADDRESS
 00063C 9110 1030      00030        8275  1  809.                IF    DCBOFLGS.DCBOFOPN,BEGIN
 000640 47E0 6632            0064E  8286  1          +
 000644 4510 6630/80         0064C  8291  2  810.                  CLOSE (DUMPDCB)               CLOSE FILE
 000649 0011A8/0A14                 8295  2          +
 00064E                             8297  1  811.                END   ,
 00064E 4110 B8B0            01208  8301  1  812.                LA    R1,SPIDCB               SPIDCB DCB ADDRESS
 000652 9110 1030      00030        8302  1  813.                IF    DCBOFLGS.DCBOFOPN,BEGIN
 000656 47E0 6698            006B4  8313  1          +
 00065A 0700/4510 6648       00664  8318  2  814.                  CLOSE (SPIDCB)                CLOSE FILE
 000660 80/001208/0A14              8321  2          +
 000666 4110 B8B0            01208  8324  2  815.                  FREEPOOL SPIDCB               RELEASE BUFFER POOL
 00066A 9101 1017      00017        8327  2          +
 00066E 4710 6698/1FFF       006B4  8328  2          +
 000674 BFF7 1015            00015  8330  2          +
 000678 58E0 F000/12EE       00000  8331  2          +
 00067E 4770 666E            0068A  8333  2          +
 000682 9130 F004      00004        8334  2          +
 000686 4770 6698            006B4  8335  2          +
 00068A 9601 1017/1BEE 00017        8336  2          +
 000690 1B11/BF13 F006       00006  8338  2          +
 000696 43E0 F005/1C0E       00005  8340  2          +
 00069C 4110 1008            00008  8342  2          +
 0006A0 9140 F004      00004        8343  2          +
 0006A4 47E0 6690            006AC  8344  2          +
 0006A8 4110 1008/1801       00008  8345  2          +
1VBLD     (VBLD21) (09:45) (22MAR04) ORVYL'S Catalog Re-Build Utility Routine                                               Page   59
0Current Usings:  (IHADCB,R1) (*,R6) (DATASECT,R11)
0Loc    Object Code    Addr1 Addr2  Stmt Lv Lineno    Source Statement           (Hibal 5, Asmedit 3.3)  HLASM R4.0  2004/03/22 09.45
+___    ______ ____    _____ _____  ____ __ ______    ______ _________
00006AE 4110 F000/0A0A       00000  8347  2          +
 0006B4                             8350  1  816.                END   ,
 DROP   IHADCB,R1                   8354     817.              END   ,                       OF DCB ADDR
1VBLD     (VBLD21) (09:45) (22MAR04) ORVYL'S Catalog Re-Build Utility Routine                                               Page   60
0Current Usings:  (*,R6) (DATASECT,R11)
0Loc    Object Code    Addr1 Addr2  Stmt Lv Lineno    Source Statement           (Hibal 5, Asmedit 3.3)  HLASM R4.0  2004/03/22 09.45
+___    ______ ____    _____ _____  ____ __ ______    ______ _________
00006B4 4100 000C/1B11       0000C  8363     819.              VCNTL CLOSE                   CLOSE SYSPRINT FILE
 0006BA 5890 6724/0D99       00740  8377             +
 0006C0 1FFF/43F0 B000       00958  8379     820.              LC    R15,RETCOD              SET PROGRAM RETURN CODE
 0006C6 58D0 B58C            00EE4  8386     821.              L     R13,VSAREA              RESET VS SAVE AREA ADDRESS
 0006CA 58E0 D00C            0000C  8387     822.              L     R14,@R13+12             RESET RETURN ADDRESS
 0006CE 980C D014            00014  8388     823.              LM    R0,R12,@R13+20          RESET REMAINING REGS
 0006D2 07FE                        8389     824.              BR    R14                     RETURN TO SYSTEM
1VBLD     (VBLD21) (09:45) (22MAR04) ORVYL'S Catalog Re-Build Utility Routine                                               Page   61
0Current Usings:  (*,R6) (DATASECT,R11)
0Loc    Object Code    Addr1 Addr2  Stmt Lv Lineno    Source Statement           (Hibal 5, Asmedit 3.3)  HLASM R4.0  2004/03/22 09.45
+___    ______ ____    _____ _____  ____ __ ______    ______ _________
00006D8                             8391     826.              LTORG ,
 0006D8 E5C2D3C4D7D9E340            8393                             =CL8'VBLDPRT'
 0006E0 D3859587A3884040            8394                             =C'Length  '
 0006E8 C1838396A495A340            8395                             =C'Account '
 0006F0 C689938595819485            8396                             =C'Filename'
 0006F8 E58599A28996957E            8397                             =C'Version='
 000700 C2939683924096A4            8398                             =C'Block out of range error'
 000718 C995A58193898440            8399                             =C'Invalid parameter in parm string'
 000738 00000958                    8400                             =A(DATASECT)
 00073C 0000315C                    8401                             =A(CHKLIST)
 000740 00000000                    8402                             =V(VCNTRL)
 000744 00000270                    8403                             =A(SUBHDR1)
 000748 0000017A                    8404                             =A(HEADER)
 00074C 00000000                    8405                             =V(SCINIT)
 000750 00000000                    8406                             =V(SCAN)
 000754 0000132A                    8407                             =A(OPENFS)
 000758 00001366                    8408                             =A(FORMDSCT)
 00075C 000017B2                    8409                             =A(PASSONE)
 000760 00001CB8                    8410                             =A(LISTFLS)
 000764 00002240                    8411                             =A(DUMPCAT)
 000768 000023A0                    8412                             =A(SPIOUT)
 00076C 000024B6                    8413                             =A(REBUILD)
 000770 00000000                    8414                             =V(VSEG)
 000774 00000000                    8415                             =V(VWRITE)
 000778 0000003B                    8416                             =A(59)
 00077C 00000000                    8417                             =V(BTD)
 000780 00000000                    8418                             =A(VBLD)
 000784 D9A495408481A385            8419                             =C'Run date is '
 000790 00000000                    8420                             =V(FMTCLCK)
 000794 00000000                    8421                             =V(BTX)
 000798 E696999240C68993            8422                             =C'Work File Open Error'
 0007AC C4A4949740E38197            8423                             =C'Dump Tape Open Error'
 0007C0 C381A38193968740            8424                             =C'Catalog Format Error'
 0007D4 E58193A485409694            8425                             =C'Value omitted in parm string'
 0007F0 00000000                    8426                             =V(VFCLS)
 0007F4 D78187854040                8427                             =C'Page  '
 0007FA 0020                        8428                             =Y((RAR+1-(SR)+16*((SR)/(RAR+1))/((SR)/(RAR+1)))*4)
 0007FC 0004                        8429                             =Y(4)
 0007FE D9A49540D7819994            8430                             =C'Run Parm="'
 000808 0020                        8431                             =Y((RAR+1-(R2)+16*((R2)/(RAR+1))/((R2)/(RAR+1)))*4)
 00080A C3C1E3E2C261C3C1            8432                             =C'CATSB/CATBC and ~RESTART is an invalid combination'
 00083C C381A38193968740            8433                             =C'Catalog Open Error'
 00084E C381A38193968740            8434                             =C'Catalog base block invalid'
 000868 E5C2D3C440606040            8435                             =C'VBLD -- File Directory Re-Build'
 000887 D781878540                  8436                             =C'Page '
 00088C 7F                          8437                             =C'"'
 00088D 407E40C5C3C24B40            8438                             =C' = ECB. File System I/O error'
 0008AA C388858392979689            8439                             =C'Checkpoint Block Incomplete'
 0008C5 C388858392979689            8440                             =C'Checkpoint recovery must be on unless RESTART set'
 0008F6 C381A38193968740            8441                             =C'Catalog Block Header length error'
 000917 C381A38193968740            8442                             =C'Catalog block count invalid'
 000932 E5C2D3C440E38599            8443                             =C'VBLD Terminated - Insufficient Memory'
1VBLD     (VBLD21) (09:45) (22MAR04) Open File System                                                                       Page   62
0Current Usings:  (*,R6) (DATASECT,R11)
0Loc    Object Code    Addr1 Addr2  Stmt Lv Lineno    Source Statement           (Hibal 5, Asmedit 3.3)  HLASM R4.0  2004/03/22 09.45
+___    ______ ____    _____ _____  ____ __ ______    ______ _________
0                                   8448     828.     ********************************************************************
                                    8449     829.     *                                                                  *
                                    8450     830.     *    Open File System                                              *
                                    8451     831.     *        R11 = Global Data area pointer                            *
                                    8452     832.     ********************************************************************
000132A 9029 D000/188D       00000  8454     834.     OPENFS   VENTER SR,RAR,*,LOCAL         GENERATE LOCAL ADDR
 001330 41D0 D020/0D70       00020  8458             +
 001336 4110 B550            00EA8  8473     835.              LA    R1,VOPN                 MAKE INITIAL CALL TO VFREAD
 USING  *,R7
 00133A 9140 B002      0095A        8474     836.              IF (RBLD,OR,(CONVFSMB+CONVCHK+CONCATMV)),BEGIN WRITE ACCESS
 00133E 4710 7014            0134A  8488             +
 001342 9138 B003      0095B        8504             +
 001346 4780 7018            0134E  8505             +
 00134A 9601 1004      00004        8510  1  837.                OI    @R1+4,1                 OPEN FOR WRITE
 00134E                             8511     838.              END   ,                       OF WRITE ACCESS
 00134E 5890 77DA/0D99       01B10  8515     839.              VCALL VFOPN                   OPEN ORVYL FILE SYSTEM
 001354 12FF/4770 63CE       003EA  8519     840.              IF    (R15,NZ),FDOPNERR       FILE DIRECTORY OPEN ERROR
 00135A 9680 B001      00959        8536     841.              SET   FSOPEN                  Note File System open
 00135E 18D8/9829 D000       00000  8542     842.              VEXIT SR,RAR
 001364 07F9                        8546             +
1VBLD     (VBLD21) (09:45) (22MAR04) Format Control blocks                                                                  Page   63
0Current Usings:  (*,R6) (*,R7) (DATASECT,R11)
0Loc    Object Code    Addr1 Addr2  Stmt Lv Lineno    Source Statement           (Hibal 5, Asmedit 3.3)  HLASM R4.0  2004/03/22 09.45
+___    ______ ____    _____ _____  ____ __ ______    ______ _________
0                                   8548     844.     *********************************************************************
                                    8549     845.     * Format Control Blocks                                             *
                                    8550     846.     * ON ENTRY:     File system has been opened                         *
                                    8551     847.     *               R11 has VBLD DATASECT addr                          *
                                    8552     848.     * ON EXIT:      Control Blocks have been initialized/converted      *
                                    8553     849.     *********************************************************************
 001366 9029 D000/188D       00000  8554     850.     FORMDSCT VENTER SR,RAR,*,LOCAL         FORMAT CONTROL BLOCKS
 00136C 41D0 D020/0D70       00020  8558             +
 DROP   *,R7                        8576     851.     *         L     R1,=A(L'FILECB)         GET DUMMY CT AREA
 USING  *,R7
                                    8577     852.     *         ST    R1,VCTDSCTLN            = LEN
                                    8578     853.     *         LCALL GETMEM                  =
                                    8579     854.     *         ST    R1,VCTDSCT              =
                                    8580     855.     *         SPACE ,
 001372 4110 012D            0012D  8581     856.              LA    R1,CFSBMXNT+4           FILE BUF (MAX NTRY LEN + RDW)
 001376 5010 B074            009CC  8582     857.              ST    R1,FILBUFLN             Î LEN
 00137A 4D90 62D2            002EE  8583     858.              LCALL GETMEM                  Î R1/R0 = LOC/LEN ON RET
 00137E 5010 B070            009C8  8585     859.              ST    R1,FILBUF               Î
 001382 5810 B588            00EE0  8586     860.              L     R1,BLOCKLEN             CONVERT BUF
 001386 5010 B07C            009D4  8587     861.              ST    R1,CONVBUFLN            Î LEN
 00138A 4D90 62D2            002EE  8588     862.              LCALL GETMEM                  Î R1/R0 = LOC/LEN ON RET
 00138E 5010 B078            009D0  8590     863.              ST    R1,CONVBUF              Î
                                    8591     864.     *               Initialize Dummy FSB, RQB for buffers etc...
                                    8592     865.     *
                                    8593     866.     *  GET WORK AREA
                                    8594     867.     *
 001392 58A0 77A2            01B14  8595     868.              L     FSBR,=A(VFSBDSCT)       FSB ADDR
 USING  FSB,R10                     8596     869.              WITH  (FSB,FSBR),BEGIN        Î
 001396 D203 A05C 77A6 0005C 01B18  8610  1  870.                MVC   FSBBLKTOP,=A(4)
 00139C 5810 B588            00EE0  8611  1  871.                L     R1,BLOCKLEN             File system Block size
 0013A0 4010 A0AC            000AC  8612  1  872.                STH   R1,FSBDSZ                Set it
 0013A4 5810 A05C            0005C  8613  1  873.                L     R1,FSBBLKTOP            NUM OF BUFFERS (LAST)
 0013A8 4110 1002            00002  8614  1  874.                LA    R1,2(,R1)               + Checkpoint + Root
 0013AC 4C10 A0AC            000AC  8615  1  875.                MH    R1,FSBDSZ
                                    8616  1  876.     *        LA    R0,FSBROOTB-(2*CFSBPL)  = ALL BUFFs + CHECKPOINT
                                    8617  1  877.     *        SR    R1,R0                   =
                                    8618  1  878.     *        CLEAR R0                      =
                                    8619  1  879.     *        D     R0,=A(CFSBPL)           = NUM OF SLOTS
                                    8620  1  880.     *        M     R0,BLOCKLEN             =
 0013B0 1821                        8621  1  881.                LR    SR,R1                   Î SAVE LEN
 0013B2 0700/4510 7050       013C2  8622  1  882.                GETMAIN EC,LV=(SR),A=CATBUF,BNDRY=PAGE
 0013B8 00000000                    8626  1          +
 0013BC 000009E0/30/00              8627  1          +
 0013C2 5020 1000/0A04       00000  8630  1          +
 0013C8 12FF/4770 6460       0047C  8632  1  883.                IF    (R15,NZ),NOMEM          Î
 0013CE 5020 B08C            009E4  8649  1  884.                ST    SR,CATBUFLN             Î LEN
 0013D2 D203 A060 B088 00060 009E0  8650  1  885.                MVC   FSBCHKA,CATBUF          START OF BUFFERS = CHECKPOINT
                                    8651  1  886.     *
                                    8652  1  887.     * Read FSMB
                                    8653  1  888.     *
 0013D8 5820 B584            00EDC  8654  1  889.                L     SR,IOAREA               IOINFO ADDR
 USING  IOINFO,R2                   8655  1  890.                WITH  (IOINFO,SR),BEGIN       Î
 0013DC 41F0 2800            00800  8669  2  891.                  LA    R15,IOIXR               READ FSMB (BUFFER ADDR)
 0013E0 BEF7 2061            00061  8670  2  892.                  ST3   R15,CCWR2+1             Î
1VBLD     (VBLD21) (09:45) (22MAR04) Format Control blocks                                                                  Page   64
0Current Usings:  (IOINFO,R2) (*,R6) (*,R7) (FSB,R10) (DATASECT,R11)
0Loc    Object Code    Addr1 Addr2  Stmt Lv Lineno    Source Statement           (Hibal 5, Asmedit 3.3)  HLASM R4.0  2004/03/22 09.45
+___    ______ ____    _____ _____  ____ __ ______    ______ _________
00013E4 947F 200C      0000C        8672  2  893.                  CLEAR IOWRITE                 Î
 0013E8                             8679  2  894.                  CLEAR BITNO                   Î
 0013E8 D703 20B8 20B8 000B8 000B8  8685  2          +
 0013EE                             8686  2  895.                  CLEAR BLDECB                  ZERO ECB FOR POSTING
 0013EE D703 B57C B57C 00ED4 00ED4  8692  2          +
 0013F4 1812                        8693  2  896.                  LR    R1,SR                   COPY IOAREA ADDRESS
 0013F6 5890 77AA/0D99       01B1C  8694  2  897.                  VCALL VFIO                    INITIATE I/O REQUEST
 0013FC 4770 6322            0033E  8698  2  898.                  IF    NZ,BLKERR               WHOOPS, CAN'T HAVE THIS
 001400 4100 0001            00001  8712  2  899.                  WAIT  ECB=BLDECB              WAIT FOR I/O TO COMPLETE
 001404 4110 B57C/0A01       00ED4  8717  2          +
 00140A 957F B57C      00ED4        8719  2  900.                  IF    (BLDECB,NE,X'7F'),IOERR NOR AN I/O ERROR
 00140E 4770 6334            00350  8733  2          +
 001412 41F0 2068            00068  8739  2  901.                  LA    R15,IOHDR               GET BLOCK LENGTH
 001416 48F0 F006            00006  8740  2  902.                  WITH  (FBHDR,R15),'LH  R15,FBHLEN'
 USING  FBHDR,R15
 DROP   FBHDR,R15
 00141A 59F0 B588            00EE0  8764  2  903.                  IF    (R15,NE,BLOCKLEN),BEGIN MUST HAVE RIGHT COUNT
 00141E 4780 70D4            01446  8776  2          +
                                    8781  3  904.                    PRINT NOGEN                   Suppress macros expasion
 001422 4110 77AE            01B20  8783  3  905.                    VSEG  'FSMB Header Error, Length = '
 001430 1B00                        8792  3  906.                    SEGDC 0,(15)                  Report length in header
                                    8831  3  907.                    PRINT GEN                     Turn macros on
 001442 4D90 612C            00148  8833  3  908.                    LCALL WRTLN                   Print error message
 001446                             8835  2  909.                  END   ,                       OF MUST HAVE RIGHT COUNT
 001446 4120 2800            00800  8839  2  910.                  LA    SR,IOIXR                FSMB ADDR
 DROP   IOINFO,R2                   8840  1  911.                END   ,                       OF IOINFO ADDR
 USING  FSMB,R2                     8848  1  912.                WITH  (FSMB,SR),BEGIN         FSMB ADDR
 00144A D203 A044 2024 00044 00024  8862  2  913.                  MVC   FSBCATSB,FSMCATSB       SET FIRST BLOCK OF CATALOGUE
 001450 D203 A048 2028 00048 00028  8863  2  914.                  MVC   FSBCATBC,FSMCATBC       AND CATALOGUE BLOCK COUNT
 001456 D203 A0D4 202C 000D4 0002C  8864  2  915.                  MVC   FSBBITSB,FSMBITSB       GET FIRST BLOCK OF BIT MAP
 00145C D203 A0D8 2030 000D8 00030  8865  2  916.                  MVC   FSBBITBC,FSMBITBC       AND BIT MAP BLOCK COUNT
 001462 D223 A0AC 2038 000AC 00038  8866  2  917.                  MVC   FSBBALST(FSBBALLN),FSMBALST
 001468 9104 B003      0095B        8867  2  918.                  IF    ~NOCHKREC,BEGIN         READ CHKPNT IF TO CHECK IT
 00146C 4710 7110            01482  8877  2          +
 001470 5850 77D2            01B44  8882  3  919.                    L     RQBR,=A(VRQBDSCT)       RQBL ADDR
 USING  RQB,R5                      8883  3  920.                    WITH  (RQB,RQBR),BEGIN        Î
 001474 D203 500C A060 0000C 00060  8897  4  921.                      MVC   RQBLR14,FSBCHKA         READ CHECKPOINT BLOCK
 00147A 1B11                        8898  4  922.                      CLEAR R1                      Î
 00147C 5890 77D6/0D99       01B48  8902  4  923.                      ACALL CATREAD                 Î
 DROP   RQB,R5                      8906  3  924.                    END   ,                       OF RQBL ADDR
 001482                             8914  2  925.                  END   ,                       OF READ CHKPNT IF TO CHECK IT
 DROP   FSMB,R2                     8918  1  926.                END   ,                       OF FSMB ADDR
                                    8926  1  927.     *
                                    8927  1  928.     * Initialize buffer pointers
                                    8928  1  929.     *
 001482 5810 A060            00060  8929  1  930.                L     R1,FSBCHKA              CHECK POINT BUFFER
 001486 4120 0008            00008  8930  1  931.                LA    R2,CFSBPL               FILL BUFFER SLOTS (INCR)
 00148A 5830 A05C            0005C  8931  1  932.                L     R3,FSBBLKTOP            Î UPPER LIMIT
 00148E 0630                        8932  1  933.                DECR  R3                      Î
 001490 4C30 785E            01BD0  8934  1  934.                MH    R3,=Y(CFSBPL)           Î
 001494 4133 A06C            0006C  8935  1  935.                LA    R3,FSBBLK1(R3)          Î
 001498 5030 A05C            0005C  8936  1  936.                ST    R3,FSBBLKTOP            Î
 00149C 4140 A064            00064  8937  1  937.                LA    R4,FSBROOTB             Î STARTING ADDR
 0014A0 4A10 A0AC            000AC  8938  1  938.     INILOOP    AH    R1,FSBDSZ               Î BUFFER LEN
1VBLD     (VBLD21) (09:45) (22MAR04) Format Control blocks                                                                  Page   65
0Current Usings:  (*,R6) (*,R7) (FSB,R10) (DATASECT,R11)
0Loc    Object Code    Addr1 Addr2  Stmt Lv Lineno    Source Statement           (Hibal 5, Asmedit 3.3)  HLASM R4.0  2004/03/22 09.45
+___    ______ ____    _____ _____  ____ __ ______    ______ _________
00014A4                             8939  1  939.                MVC   @R4(CFSBBL),=&L.AL1(NIL)         Î EMPTY
 0014A4 D203 4000 77DA 00000 01B4C        1          +
 0014AA 5010 4004            00004  8940  1  940.                ST    R1,@R4+CFSBBL           Î BUFFER ADDR
 0014AE D403 4004 77DE 00004 01B50  8941  1  941.                NC    @R4+CFSBBL(4),=A(VIOFREE)        Î BUFFER N AVAILABLE
 0014B4 8742 712E            014A0  8942  1  942.                BXLE  R4,R2,INILOOP           DO ALL SLOTS
                                    8943  1  943.     *
                                    8944  1  944.     * Do FSMB formatting
                                    8945  1  945.     *
 0014B8 5820 B584            00EDC  8946  1  946.                L     SR,IOAREA               ADDR TO FSMB BLOCK
 0014BC 4120 2800            00800  8947  1  947.                WITH  (IOINFO,SR),'LA SR,IOIXR '       Î
 USING  IOINFO,R2
 DROP   IOINFO,R2
 USING  FSMB,R2                     8971  1  948.                WITH  (FSMB,SR),BEGIN         Î
 0014C0 9120 B003      0095B        8985  2  949.                  IF    CONVFSMB,BEGIN          CONVERT FSMB
 0014C4 47E0 7156            014C8  8995  2          +
 0014C8                             9000  2  950.                  END   ,                       OF CONVERT FSMB
 0014C8 5840 B024/1244       0097C  9004  2  951.                  LT    QR,FDCATSB              NEW START BLOCK
 0014CE 4780 7164            014D6  9008  2  952.                  IF    NZ,'ST QR,FSMCATSB '    Î
 0014D2 5040 2024            00024  9020  2          +
 0014D6 5840 B028/1244       00980  9025  2  953.                  LT    QR,FDCATBC              NEW BLOCK COUNT
 0014DC 4780 7172            014E4  9029  2  954.                  IF    NZ,'ST QR,FSMCATBC '    Î
 0014E0 5040 2028            00028  9041  2          +
 0014E4 9130 B003      0095B        9046  2  955.                  IF    CONCATMV+CONVFSMB,BEGIN CATALOG MOVED/LEN CHANGED
 0014E8 4780 727A            015EC  9059  2          +
                                    9064  3  956.
 0014EC 5840 B588            00EE0  9065  3  957.                    L     QR,BLOCKLEN             PHYSICAL SIZE OF DISK BLOCK
 0014F0 4040 2038            00038  9066  3  958.                    STH   QR,FSMDSZ               Î
 0014F4 4B40 7860            01BD2  9067  3  959.                    SH    QR,=Y(8)                END DISK TAG OFFSET
 0014F8 4040 203C            0003C  9068  3  960.                    STH   QR,FSMDTAGX             Î
 0014FC 4B40 7862            01BD4  9069  3  961.                    SH    QR,=Y(CDSKHSIZ)         AVAILABLE SPACE ON BLOCK
 001500 4040 203A            0003A  9070  3  962.                    STH   QR,FSMDAVA              Î
 001504 4040 203E            0003E  9071  3  963.                    STH   QR,FSMNALEN             LEN OF ACC NODE (WHOLE BLOCK)
 001508 4040 204A            0004A  9072  3  964.                    STH   QR,FSMNFLEN             LEN OF FILE NODE (WHOLE BLK)
 00150C 4B40 7864            01BD6  9073  3  965.                    SH    QR,=Y(L'NODE+CNODNLLN)  FREE SPACE IN NODE
 001510 4040 2040            00040  9074  3  966.                    STH   QR,FSMNASPA             Î
 001514 4040 204C            0004C  9075  3  967.                    STH   QR,FSMNFSPA             Î (FILE)
 001518 4840 7866            01BD8  9076  3  968.                    LH    QR,=Y(CNODA99)          MAX ENTRY SIZE IN INDEX NODE
 00151C 4040 2044            00044  9077  3  969.                    STH   QR,FSMNAMXL             Î (ACCOUNT)
 001520 4A40 7866            01BD8  9078  3  970.                    AH    QR,=Y(CNODA99)          MIN FREE SPA IN BAL ACC NODE
 001524 4B40 7868            01BDA  9079  3  971.                    SH    QR,=Y(L'NTRYGR)         Î MAX ENTRY + MAX DIFF
 001528 4040 2048            00048  9080  3  972.                    STH   QR,FSMNANSP             Î
 00152C 4840 786A            01BDC  9081  3  973.                    LH    QR,=Y(CNODF99)          MAX ENTRY SIZE IN INDEX NODE
 001530 4040 2050            00050  9082  3  974.                    STH   QR,FSMNFMXL             Î (FILE)
 001534 4A40 786A            01BDC  9083  3  975.                    AH    QR,=Y(CNODF99)          MIN FREE SPA IN BAL FILE NODE
 001538 4B40 786C            01BDE  9084  3  976.                    SH    QR,=Y(L'NTRYFL+1)       Î MAX ENTRY + MAX DIFF
 00153C 4040 2054            00054  9085  3  977.                    STH   QR,FSMNFNSP             Î
 001540 4840 2040            00040  9086  3  978.                    LH    QR,FSMNASPA             MAX FREE SPA IN BAL ACC NODE
 001544 4B40 2048            00048  9087  3  979.                    SH    QR,FSMNANSP             Î TOTAL-MAX_FREE
 001548 5E40 77E2            01B54  9088  3  980.                    INCR  QR                      Î Î = MIN_USED
 00154C 8A40 0001            00001  9091  3  981.                    SRA   QR,1                    Î 1/2*(MIN_USED)
 001550 4B40 2044            00044  9092  3  982.                    SH    QR,FSMNAMXL             Î (1/2*(MIN_USED))-MX_IX_NTRY
 001554 1344                        9093  3  983.                    LCR   QR,QR                   Î -(MIN_AFTER_SPLIT)
 001556 4A40 2040            00040  9094  3  984.                    AH    QR,FSMNASPA             Î TOTAL-(MIN_AFTER_SPLIT)
 00155A 4040 2046            00046  9095  3  985.                    STH   QR,FSMNAXSP             Î MAX FREE SPACE
1VBLD     (VBLD21) (09:45) (22MAR04) Format Control blocks                                                                  Page   66
0Current Usings:  (FSMB,R2) (*,R6) (*,R7) (FSB,R10) (DATASECT,R11)
0Loc    Object Code    Addr1 Addr2  Stmt Lv Lineno    Source Statement           (Hibal 5, Asmedit 3.3)  HLASM R4.0  2004/03/22 09.45
+___    ______ ____    _____ _____  ____ __ ______    ______ _________
000155E 4840 204C            0004C  9096  3  986.                    LH    QR,FSMNFSPA             MAX FREE SPA IN BAL FILE NODE
 001562 4B40 2054            00054  9097  3  987.                    SH    QR,FSMNFNSP             Î TOTAL-MAX_FREE
 001566 5E40 77E2            01B54  9098  3  988.                    INCR  QR                      Î Î = MIN_USED
 00156A 8A40 0001            00001  9101  3  989.                    SRA   QR,1                    Î 1/2*(MIN_USED)
 00156E 4B40 2050            00050  9102  3  990.                    SH    QR,FSMNFMXL             Î (1/2*(MIN_USED))-MX_IX_NTRY
 001572 1344                        9103  3  991.                    LCR   QR,QR                   Î -(MIN_AFTER_SPLIT)
 001574 4A40 204C            0004C  9104  3  992.                    AH    QR,FSMNFSPA             Î TOTAL-(MIN_AFTER_SPLIT)
 001578 4040 2052            00052  9105  3  993.                    STH   QR,FSMNFXSP             Î MAX FREE SPACE
 00157C 4840 786E            01BE0  9106  3  994.                    LH    QR,=Y(CNTAMXL)          MAX ENTRY SIZE
 001580 4040 2042            00042  9107  3  995.                    STH   QR,FSMTAXLN             Î ACCOUNT
 001584 4840 7870            01BE2  9108  3  996.                    LH    QR,=Y(CNTFMXL)          MAX ENTRY SIZE
 001588 4040 204E            0004E  9109  3  997.                    STH   QR,FSMTFXLN             Î FILE
                                    9110  3  998.
 00158C 4840 204E            0004E  9111  3  999.                    LH    QR,FSMTFXLN             MAX FILE ENTRY EXTENT LEN
 001590 4B40 2050            00050  9112  3 1000.                    SH    QR,FSMNFMXL             Î
 001594 4140 4002            00002  9113  3 1001.                    LA    QR,@QR+CNTXFXLN         Î
 001598 4810 2042            00042  9114  3 1002.                    LH    R1,FSMTAXLN             MAX ACC ENTRY EXTENT LEN
 00159C 4B10 2044            00044  9115  3 1003.                    SH    R1,FSMNAMXL             Î
 0015A0 4110 1002            00002  9116  3 1004.                    LA    R1,@R1+CNTXFXLN         Î
 0015A4 1914/47D0 723A       015AC  9117  3 1005.                    IF    (R1,GT,QR),'LR QR,R1 '  Î
 0015AA 1841                        9133  3          +
 0015AC 4040 2056            00056  9138  3 1006.                    STH   QR,FSMTXXLN             MAX EXTENDED ENTRY LENGTH
                                    9139  3 1007.
 0015B0 5810 2028            00028  9140  3 1008.                    L     R1,FSMCATBC             MIN LOGICAL FREE BLOCK NUM
 0015B4 4C10 7872            01BE4  9141  3 1009.                    MH    R1,=Y(CCAT1PCT)         Î
 0015B8 1B00                        9142  3 1010.                    CLEAR R0                      Î
 0015BA 5D00 77E6            01B58  9146  3 1011.                    D     R0,=A(100)              Î PERCENTAGE
 0015BE 4910 7874            01BE6  9147  3 1012.                    FLOOR R1,=Y(CCAT1MIN)         Î ABSOLUTE MINIMUM
 0015C2 47B0 7258            015CA  9150  3          +
 0015C6 4810 7874            01BE6  9151  3          +
 0015CA 4010 2058            00058  9152  3 1013.                    STH   R1,FSMLOGFR             Î
                                    9153  3 1014.
 0015CE 5810 2028            00028  9154  3 1015.                    L     R1,FSMCATBC             MIN FREE BLOCK NUM
 0015D2 4C10 7876            01BE8  9155  3 1016.                    MH    R1,=Y(CCAT2PCT)         Î
 0015D6 1B00                        9156  3 1017.                    CLEAR R0                      Î
 0015D8 5D00 77E6            01B58  9160  3 1018.                    D     R0,=A(100)              Î PERCENTAGE
 0015DC 4910 7878            01BEA  9161  3 1019.                    FLOOR R1,=Y(CCAT2MIN)         Î ABSOLUTE MINIMUM
 0015E0 47B0 7276            015E8  9164  3          +
 0015E4 4810 7878            01BEA  9165  3          +
 0015E8 4010 205A            0005A  9166  3 1020.                    STH   R1,FSMMNFRE             Î
                                    9167  3 1021.
 0015EC                             9168  2 1022.                  END   ,                       OF CATALOG MOVED/LEN CHANGED
 0015EC 9120 B003      0095B        9172  2 1023.                  IF    CONVFSMB,BEGIN          CONVERT FSMB
 0015F0 47E0 7282            015F4  9182  2          +
 0015F4                             9187  2 1024.                  END   ,                       OF CONVERT FSMB
 0015F4 5830 2024/1233       00024  9191  2 1025.                  LT    TR,FSMCATSB             CATALOG START BLOCK
 0015FA 4780 63F2            0040E  9195  2 1026.                  IF    Z,NOCATBSE              Î NO CATALOG BASE
 0015FE 5930 B580            00ED8  9209  2 1027.                  IF    (TR,GT,MAXNO),NOCATBSE  Î OUT OF RANGE
 001602 4720 63F2            0040E  9223  2          +
 001606 5810 2028            00028  9229  2 1028.                  L     R1,FSMCATBC             CATALOG BLOCK COUNT
 00160A 5910 77EA            01B5C  9230  2 1029.                  IF    (R1,LT,6),CATCNTER      MUST BE AT LEAST 6 BLOCKS
 00160E 4740 6404            00420  9244  2          +
                                    9250  2 1030.     * Need 1 Chkpnt + 3 Double + 1 Acc Rt + 1 Master Acc File Rt
 001612 1A31                        9251  2 1031.                  AR    TR,R1                   COMPUTE LAST BLOCK+1
1VBLD     (VBLD21) (09:45) (22MAR04) Format Control blocks                                                                  Page   67
0Current Usings:  (FSMB,R2) (*,R6) (*,R7) (FSB,R10) (DATASECT,R11)
0Loc    Object Code    Addr1 Addr2  Stmt Lv Lineno    Source Statement           (Hibal 5, Asmedit 3.3)  HLASM R4.0  2004/03/22 09.45
+___    ______ ____    _____ _____  ____ __ ______    ______ _________
0001614 5930 B580            00ED8  9252  2 1032.                  IF    (TR,GE,MAXNO),CATCNTER  CAN'T EXTEND OVER END EITHER
 001618 47A0 6404            00420  9266  2          +
 DROP   FSMB,R2                     9272  1 1033.                END   ,                       OF FSMB ADDR
 00161C 9130 B003      0095B        9280  1 1034.                IF    CONCATMV+CONVFSMB,BEGIN WRITE NEW FSMB
 001620 4780 7390            01702  9293  1          +
 001624 5820 B584            00EDC  9298  2 1035.                  L     SR,IOAREA               IOAREA ADDR
 USING  IOINFO,R2                   9299  2 1036.                  WITH  (IOINFO,SR),BEGIN       Î
 001628 41F0 2068            00068  9313  3 1037.                    LA    R15,IOHDR               ADDR TO HEADER
 USING  FBHDR,R15                   9314  3 1038.                    WITH  (FBHDR,R15),BEGIN       Î
 00162C                             9328  4 1039.                      CLEAR FBHBLOCK                SET BLOCK NUMBER
 00162C D702 F000 F000 00000 00000  9334  4          +
 001632 D201 F006 A0AC 00006 000AC  9335  4 1040.                      MVC   FBHLEN,FSBDSZ           TOTAL LENGTH OF BLOCK
 001638 B205 B0A0      009F8        9336  4 1041.                      STCK  CLCKNOW                 GET TIME & DATE
 00163C D203 F008 B0A0 00008 009F8  9337  4 1042.                      MVC   FBHTIME,CLCKNOW         SET TIME WRITTEN
 001642 92FF F003      00003        9338  4 1043.                      MVI   FBHTYPE,FBHTFSMB        SET MASTER BLOCK
 DROP   FBHDR,R15                   9339  3 1044.                    END   ,                       OF ADDR TO HEADER
 001646 41F0 2800            00800  9347  3 1045.                    LA    R15,IOIXR               WRITE FSMB (BUFFER ADDR)
 00164A BEF7 2061            00061  9348  3 1046.                    ST3   R15,CCWR2+1             Î
 00164E 9680 200C      0000C        9350  3 1047.                    SET   IOWRITE                 Î
 001652                             9356  3 1048.                    CLEAR BITNO                   Î
 001652 D703 20B8 20B8 000B8 000B8  9362  3          +
 001658                             9363  3 1049.                    CLEAR BLDECB                  ZERO ECB FOR POSTING
 001658 D703 B57C B57C 00ED4 00ED4  9369  3          +
 00165E 1812                        9370  3 1050.                    LR    R1,SR                   COPY IOAREA ADDRESS
 001660 5890 77AA/0D99       01B1C  9371  3 1051.                    VCALL VFIO                    INITIATE I/O REQUEST
 001666 4770 6322            0033E  9375  3 1052.                    IF    NZ,BLKERR               WHOOPS, CAN'T HAVE THIS
 00166A 4100 0001            00001  9389  3 1053.                    WAIT  ECB=BLDECB              WAIT FOR I/O TO COMPLETE
 00166E 4110 B57C/0A01       00ED4  9394  3          +
 001674 957F B57C      00ED4        9396  3 1054.                    IF    (BLDECB,NE,X'7F'),IOERR NOR AN I/O ERROR
 001678 4770 6334            00350  9410  3          +
 DROP   IOINFO,R2                   9416  2 1055.                  END   ,                       OF IOAREA ADDR
                                    9424  2 1056.                  PRINT NOGEN
 00167C 9110 B003      0095B        9426  2 1057.                  IF    CONCATMV,BEGIN          CATALOG PTRS CHANGED
 001684 D603 B024 B024 0097C 0097C  9441  3 1058.                    IF    (FDCATSB,NZ),BEGIN      NEW START BLOCK
 00168E 4110 787A            01BEC  9457  4 1059.                      VSEG  'New Catalog start block = '
 00169C 58F0 B024            0097C  9466  4 1060.                      SEGDC 0,FDCATSB,COMMAS=YES
 0016B2 4D90 612C            00148  9505  4 1061.                      VWRT  ,
                                    9509  3 1062.                    END   ,                       OF NEW START BLOCK
 0016B6 D603 B028 B028 00980 00980  9513  3 1063.                    IF    (FDCATBC,NZ),BEGIN      NEW BLOCK COUNT
 0016C0 4110 7894            01C06  9529  4 1064.                      VSEG  'New Catalog block count = '
 0016CE 58F0 B028            00980  9538  4 1065.                      SEGDC 0,FDCATBC,COMMAS=YES
 0016E4 4D90 612C            00148  9577  4 1066.                      VWRT  ,
                                    9581  3 1067.                    END   ,                       OF NEW BLOCK COUNT
                                    9585  2 1068.                  END   ,                       OF CATALOG PTRS CHANGED
 0016E8 9120 B003      0095B        9589  2 1069.                  IF    CONVFSMB,BEGIN          FSMB CONVERTED
 0016F0 4110 78F0            01C62  9604  3 1070.                    VWRT  'FSMB converted to new format.'
                                    9617  2 1071.                  END   ,                       OF FSMB CONVERTED
                                    9621  2 1072.                  PRINT GEN
 001702                             9623  1 1073.                END   ,                       OF WRITE NEW FSMB
 001702 5820 B584            00EDC  9627  1 1074.                L     SR,IOAREA               ADDR TO FSMB BUFFER
 001706 4120 2800            00800  9628  1 1075.                WITH  (IOINFO,SR),'LA SR,IOIXR '
 USING  IOINFO,R2
 DROP   IOINFO,R2
 USING  FSMB,R2                     9652  1 1076.                WITH  (FSMB,SR),BEGIN         Î
1VBLD     (VBLD21) (09:45) (22MAR04) Format Control blocks                                                                  Page   68
0Current Usings:  (FSMB,R2) (*,R6) (*,R7) (FSB,R10) (DATASECT,R11)
0Loc    Object Code    Addr1 Addr2  Stmt Lv Lineno    Source Statement           (Hibal 5, Asmedit 3.3)  HLASM R4.0  2004/03/22 09.45
+___    ______ ____    _____ _____  ____ __ ______    ______ _________
000170A D203 A044 2024 00044 00024  9666  2 1077.                  MVC   FSBCATSB,FSMCATSB       SET FIRST BLOCK OF CATALOGUE
 001710 D203 A048 2028 00048 00028  9667  2 1078.                  MVC   FSBCATBC,FSMCATBC       AND CATALOGUE BLOCK COUNT
 001716 D203 A0D4 202C 000D4 0002C  9668  2 1079.                  MVC   FSBBITSB,FSMBITSB       GET FIRST BLOCK OF BIT MAP
 00171C D203 A0D8 2030 000D8 00030  9669  2 1080.                  MVC   FSBBITBC,FSMBITBC       AND BIT MAP BLOCK COUNT
 001722 D223 A0AC 2038 000AC 00038  9670  2 1081.                  MVC   FSBBALST(FSBBALLN),FSMBALST
 DROP   FSMB,R2                     9671  1 1082.                END   ,                       OF FSMB ADDR
1VBLD     (VBLD21) (09:45) (22MAR04) Format Control blocks                                                                  Page   69
0Current Usings:  (*,R6) (*,R7) (FSB,R10) (DATASECT,R11)
0Loc    Object Code    Addr1 Addr2  Stmt Lv Lineno    Source Statement           (Hibal 5, Asmedit 3.3)  HLASM R4.0  2004/03/22 09.45
+___    ______ ____    _____ _____  ____ __ ______    ______ _________
0                                   9680  1 1084.     *
                                    9681  1 1085.     *  EXAMINE CHECKPOINT BLOCK
                                    9682  1 1086.     *
 001728 9104 B003      0095B        9683  1 1087.                IF    ~NOCHKREC,BEGIN         DO CHECKPOINT RECOVERY
 00172C 4710 7438            017AA  9693  1          +
 001730 5850 77D2            01B44  9698  2 1088.                  L     RQBR,=A(VRQBDSCT)       RQBL ADDR
 USING  RQB,R5                      9699  2 1089.                  WITH  (RQB,RQBR),BEGIN        Î
 001734 58E0 A060            00060  9713  3 1090.                    L     R14,FSBCHKA             CHECKPOINT ADDR
 USING  CHKPNT,R14                  9714  3 1091.                    WITH  (CHKPNT,R14),BEGIN      Î
 001738 4830 A0B0            000B0  9728  4 1092.                      LH    TR,FSBDTAGX             CHECK FIRST/LAST BYTES
 00173C 4133 E000            00000  9729  4 1093.                      LA    TR,CHKPNT(TR)           Î
 001740                             9730  4 1094.                      IF    ('CLC CHKTIME,@TR',NE),CHKERR    CHKPNT INCOMPLETE
 001740 D507 E000 3000 00000 00000  9737  4          +
 001746 4770 635E            0037A  9740  4          +
 00174A 9500 E112      00112        9746  4 1095.                      IF ((CHKITYPE,NZ),OR,(CHKI2TYP,NZ),OR,(CHKI3TYP,NZ)),BEGIN
 00174E 4770 73F0            01762  9761  4          +
 001752 9500 E154      00154        9771  4          +
 001756 4770 73F0            01762  9774  4          +
 00175A 9500 E194      00194        9784  4          +
 00175E 4780 7406            01778  9785  4          +
                                    9790  5 1096.     *        L     CTR,VCTDSCT             ADDRESS OF DUMMY CT
 001762 50D0 5020            00020  9791  5 1097.                        VCAT  REC                     RECOVER FROM CHECKPOINTED OPER
 001766 41D0 5098            00098  9793  5          +
 00176A 5830 77F2            01B64  9794  5          +
 00176E 4120 000E/0D93       0000E  9795  5          +
 001774 58D0 5020            00020  9797  5          +
 001778                             9798  4 1098.                      END   ,                       OF RECOVER FROM CHKPNTED OPER
 DROP   CHKPNT,R14                  9802  3 1099.                    END   ,                       OF CHECKPOINT ADDR
 001778 9108 B003      0095B        9810  3 1100.                    IF    (CONVCHK),BEGIN         CONVERT CHKPNT
 00177C 47E0 7420            01792  9820  3          +
 001780 4110 77F6            01B68  9825  4 1101.                      VWRT  'CHECKPOINT format is current'
 001784 4100 001C            0001C  9831  4          +
 001788 5890 77CA/0D99       01B3C  9834  4          +
 00178E 4D90 612C            00148  9837  4          +
 001792                             9838  3 1102.                    END   ,                       OF CONV CHKPNT
 001792 58E0 A060            00060  9842  3 1103.                    L     R14,FSBCHKA             CHECKPOINT ADDR
 001796 4810 E00A            0000A  9843  3 1104.                    WITH  (CHKPNT,R14),'LH R1,CHKROOTB '
 USING  CHKPNT,R14
 DROP   CHKPNT,R14
 00179A 5010 A064            00064  9867  3 1105.                    ST    R1,FSBROOTB             Î
 00179E D203 500C A068 0000C 00068  9868  3 1106.                    MVC   RQBLR14,FSBROOTA        READ IN ROOT
 0017A4 5890 77D6/0D99       01B48  9869  3 1107.                    ACALL CATREAD                 Î
 DROP   RQB,R5                      9873  2 1108.                  END   ,                       OF RQB ADDR
 0017AA                             9881  1 1109.                END   ,                       OF DO CHECKPOINT RECOVERY
 DROP   FSB,R10                     9885    1110.              END   ,                       OF FSB ADDR
 0017AA 18D8/9829 D000       00000  9893    1111.              VEXIT SR,RAR                  RETURN
 0017B0 07F9                        9897             +
1VBLD     (VBLD21) (09:45) (22MAR04) Disect Catalog and write to FILS (temp)                                                Page   70
0Current Usings:  (*,R6) (*,R7) (DATASECT,R11)
0Loc    Object Code    Addr1 Addr2  Stmt Lv Lineno    Source Statement           (Hibal 5, Asmedit 3.3)  HLASM R4.0  2004/03/22 09.45
+___    ______ ____    _____ _____  ____ __ ______    ______ _________
0                                   9899    1113.     ********************************************************************
                                    9900    1114.     *                                                                  *
                                    9901    1115.     *               PROCESS CATALOG FILE                               *
                                    9902    1116.     *                                                                  *
                                    9903    1117.     ********************************************************************
00017B2 902C D000/188D       00000  9905    1119.     PASSONE  VENTER SR,R12,*,LOCAL         GENERATE LOCAL ADDR
 0017B8 41D0 D02C/0D70       0002C  9909             +
 DROP   *,R7                        9927    1120.     *        L     CTR,VCTDSCT             CT ADDR
 USING  *,R7
 0017BE 5850 7386            01B44  9928    1121.              L     RQBR,=A(VRQBDSCT)       RQB ADDR
 USING  RQB,R5                      9929    1122.              USING RQB,RQBR                Î
 0017C2 58A0 7356            01B14  9938    1123.              L     FSBR,=A(VFSBDSCT)       FSB ADDR
 USING  FSB,R10                     9939    1124.              USING FSB,FSBR                Î
                                    9948    1125.     *               Get memory for CATALOG file's bitmap (not ORV bitmap)
 0017C6 5810 A048            00048  9949    1126.              L     R1,FSBCATBC             CATALOG BLOCK COUNT
 0017CA 1B00                        9950    1127.              CLEAR R0                      Î
 0017CC 5D00 73C6            01B84  9954    1128.              D     R0,=A(8)                NUM OF BYTES NEEDED
 0017D0 1200/4780 701C       017DA  9955    1129.              IF    (R0,NZ),'INCR R1'       Î
 0017D6 5E10 7396            01B54  9972             +
 0017DA 4D90 62D2            002EE  9977    1130.              LCALL GETMEM                  Î R1/R0 = LOC/LEN ON RET
 0017DE 5010 B080            009D8  9979    1131.              ST    R1,CATBIT               Î
 0017E2 5000 B084            009DC  9980    1132.              ST    R0,CATBITLN             Î
                                    9981    1133.
 0017E6 58F0 A048            00048  9982    1134.              L     R15,FSBCATBC            Number of blocks in Catalog
 0017EA 4100 000B            0000B  9983    1135.              SEGDC 11,(R15),COMMAS=YES     Output FD block count
 0017EE 4110 B0A8            00A00 10002             +
 0017F2 58E0 73A2/0DEE       01B60 10005             +
 0017F8 5890 737E/0D99       01B3C 10022             +
 0017FE 4110 7462            01C20 10024    1136.              VSEG  ' Blocks in Catalog'
 001802 4100 0012            00012 10028             +
 001806 5890 737E/0D99       01B3C 10031             +
 00180C 4D90 612C            00148 10033    1137.              LCALL WRTLN                   Output line
 001810 4D90 612C            00148 10035    1138.              LCALL WRTLN                   Output line
                                   10037    1139.              PRINT GEN                     Turn on macro expansion
1VBLD     (VBLD21) (09:45) (22MAR04) Disect Catalog and write to FILS (temp)                                                Page   71
0Current Usings:  (RQB,R5) (*,R6) (*,R7) (FSB,R10) (DATASECT,R11)
0Loc    Object Code    Addr1 Addr2  Stmt Lv Lineno    Source Statement           (Hibal 5, Asmedit 3.3)  HLASM R4.0  2004/03/22 09.45
+___    ______ ____    _____ _____  ____ __ ______    ______ _________
0                                  10040    1141.     *
                                   10041    1142.     * WRITE FILE DATA SET
                                   10042    1143.     *
0001814 4110 734A            01B08 10044    1145.              LA    R1,=CL8'LIST'           SET ADDRESS OF DDNAME
 001818 5890 73CA/0D99       01B88 10045    1146.              ACALL CHKFILES                CHECK FOR A FILES DDCARD
 00181E 0700/4510 706A       01828 10049    1147.              OPEN  (FILS,(OUTPUT))
 001824 8F/0010E8/0A13             10052             +
 00182A 4120 B790            010E8 10055    1148.              LA    SR,FILS                 DATA CONTROL BLOCK ADDRESS
 USING  IHADCB,R2                  10056    1149.              WITH  (IHADCB,SR),BEGIN       DCB ADDR
 00182E 9110 2030      00030       10070  1 1150.                IF    ~DCBOFLGS.DCBOFOPN,FILERR        OPEN ERROR FOR FILES
 001832 47E0 63AA            003C6 10083  1          +
 DROP   IHADCB,R2                  10089    1151.              END   ,                       OF DCB ADDR
0001836 9608 B001      00959       10098    1153.              SET   FRSTACC                 FIRST ACCOUNT TO COME
 00183A 50D0 5020            00020 10104    1154.              VCAT  SEQ                     SEQUENTIAL LIST
 00183E 41D0 5098            00098 10106             +
 001842 5830 73A6            01B64 10107             +
 001846 4120 000A/0D93       0000A 10108             +
 00184C 58D0 5020            00020 10110             +
                                   10111    1155.     *                 VCAT returns:
                                   10112    1156.     *               R1 & QR = LOC of entry
                                   10113    1157.     *               R0      = LEN of entry (& in entry)
                                   10114    1158.     *               IF R14 = 0, it's an account entry
                                   10115    1159.     *                  R14 = 4, it's a file entry
 001850 4770 71BE            0197C 10116    1160.              WHILE ZERO,BEGIN              Î
 001854 50E0 B020            00978 10129  1 1161.                ST    R14,FDMODE              ACC/FILE MODE
                                   10130  1 1162.                AGO   .NONEWCH
                                   10131  1 1175.     .NONEWCH   ANOP  ,
 USING  NTRY,R1                    10132  1 1176.                WITH  (NTRY,R1)               ENTRY ADDR
 001858                            10145  1 1177.                IF  (FDMODE,EQ,ACCMODE),BEGIN ACCOUNT ENTRY
 001858 D503 73CE B020 01B8C 00978 10157  1          +
 00185E 4770 7108            018C6 10158  1          +
 001862 9604 B001      00959       10163  2 1178.                  SET   FRSTFIL                 1ST FILE FOR ACC TO COME
                                   10169  2 1179.                  AGO   .NANODCH
                                   10170  2 1190.     .NANODCH     ANOP  ,
 001866 4140 0001            00001 10171  2 1191.                  INCR  QR,ACCCNT               BUMP NUMBER OF ACCTS
 00186A 5E40 B034            0098C 10175  2          +
 00186E 5040 B034            0098C 10176  2          +
 001872 4840 1000            00000 10177  2 1192.                  LH    QR,NTRYLEN              ACC SPACE
 001876 5A40 B040            00998 10178  2 1193.                  A     QR,FDABYTS              Î
 00187A 5040 B040            00998 10179  2 1194.                  ST    QR,FDABYTS              Î
 00187E 5840 B070            009C8 10180  2 1195.                  L     QR,FILBUF               FILE BUFFER
 001882 4140 4004            00004 10181  2 1196.                  LA    QR,@QR+4                Î ROOM FOR RDW
 USING  NXRYGR,R4                  10182  2 1197.                  WITH  (NXRYGR,QR),BEGIN       ACC DUMP FORMAT ADDR
 001886 48F0 1000            00000 10196  3 1198.                    LH    R15,NTRYLEN             ENTRY LENGTH
 00188A 4BF0 7474            01C32 10197  3 1199.                    SH    R15,=Y(L'NTRYGR-L'NXRYGR)        Î DIFFERENCE
 00188E 40F0 4000            00000 10198  3 1200.                    STH   R15,NXGBYTS             Î
 001892 D201 4002 100A 00002 0000A 10199  3 1201.                    MVC   NXGNAME(2),NTGNAME      ACCOUNT NAME (gg)
 001898 924B 4004      00004       10200  3 1202.                    MVI   NXGNAME+2,C'.'          Î Ubiquitous Dot
 00189C D202 4005 100C 00005 0000C 10201  3 1203.                    MVC   NXGNAME+3(3),NTGNAME+2  Î (uuu)
 0018A2 92FF 4008      00008       10202  3 1204.                    MVI   NXGCODE,X'FF'           INDICATE ACCOUNT (DUMP FMT)
 0018A6 D205 4009 100F 00009 0000F 10203  3 1205.                    MVC   NXGMXSP(L'NXGMXSP+L'NXGUSSP),NTGMXSP
 0018AC D200 400F 1019 0000F 00019 10204  3 1206.                    MVC   NXGFLG,NTGFLG           FLAGS
1VBLD     (VBLD21) (09:45) (22MAR04) Disect Catalog and write to FILS (temp)                                                Page   72
0Current Usings:  (NTRY,R1) (NXRYGR,R4) (RQB,R5) (*,R6) (*,R7) (FSB,R10) (DATASECT,R11)
0Loc    Object Code    Addr1 Addr2  Stmt Lv Lineno    Source Statement           (Hibal 5, Asmedit 3.3)  HLASM R4.0  2004/03/22 09.45
+___    ______ ____    _____ _____  ____ __ ______    ______ _________
00018B2 4120 4010            00010 10205  3 1207.                    LA    SR,NXGMEMBR             PERMIT MOVE (DEST)
 0018B6 41E0 101A            0001A 10206  3 1208.                    LA    R14,NTGMEMBR            Î (SOURCE)
 0018BA 48F0 1000            00000 10207  3 1209.                    LH    R15,NTRYLEN             Î (LENGTH)
 0018BE 4BF0 741C            01BDA 10208  3 1210.                    SH    R15,=Y(L'NTRYGR)        Î Î - FIXED PORTION
 0018C2 183F                       10209  3 1211.                    LR    TR,R15                  Î Î
 0018C4 0E2E                       10210  3 1212.                    MVCL  SR,R14                  Î
 DROP   NXRYGR,R4                  10211  2 1213.                  END   ,                       OF ACC DUMP FORMAT ADDR
 0018C6 710C           018C6 01860 10219  1 1214.                END   ELSE,BEGIN              FILE ENTRY
 0018C6 47F0 7164            01922 10228  1          +
                                   10234  2 1215.                  AGO   .NFNODCH
                                   10235  2 1232.     .NFNODCH     ANOP  ,
 0018CA 4140 0001            00001 10236  2 1233.                  INCR  QR,FILCNT               BUMP NUMBER OF FILES
 0018CE 5E40 B030            00988 10240  2          +
 0018D2 5040 B030            00988 10241  2          +
 0018D6 4840 1000            00000 10242  2 1234.                  LH    QR,NTRYLEN              FILE SPACE
 0018DA 5A40 B044            0099C 10243  2 1235.                  A     QR,FDFBYTS              Î
 0018DE 5040 B044            0099C 10244  2 1236.                  ST    QR,FDFBYTS              Î
 0018E2 5840 B070            009C8 10245  2 1237.                  L     QR,FILBUF               FILE BUFFER
 0018E6 4140 4004            00004 10246  2 1238.                  LA    QR,@QR+4                Î ROOM FOR RDW
 USING  NXRYFL,R4                  10247  2 1239.                  WITH  (NXRYFL,QR),BEGIN       FILE DUMP FORMAT ADDR
 0018EA 48F0 1000            00000 10261  3 1240.                    LH    R15,NTRYLEN             ENTRY LENGTH
 0018EE 4BF0 7476            01C34 10262  3 1241.                    SH    R15,=Y(L'NTRYFL-L'NXRYFL)        Î DIFFERENCE
 0018F2 40F0 4000            00000 10263  3 1242.                    STH   R15,NXFBYTS             Î
 0018F6 D214 4002 100A 00002 0000A 10264  3 1243.                    MVC   NXFLOC(NXFLNMSZ-NXFLOC),NTFLOC   THIS PART THE SAME
 0018FC 1F33/4330 101F       0001F 10265  3 1244.                    LC    TR,NTFLNMSZ             FILE NAME
 001902 0630/4430 74F4       01CB2 10272  3 1245.                    DEX   TR,'MVC NXFLNAME(0),NTFLNAME '   Î
 001CB2 D200 4018 1020 00018 00020 10283  3          +
 001908 4230 4017            00017 10291  3 1246.                    STC   TR,NXFLNMSZ             Î
                                   10292  3 1247.     *               Dump format for NXFLNMSZ really is len-1
 00190C 4123 4019            00019 10293  3 1248.                    LA    SR,NXFLNAME+1(TR)       PERMIT MOVE (DEST)
 001910 41E3 1021            00021 10294  3 1249.                    LA    R14,NTFLNAME+1(TR)      Î (SOURCE)
 001914 48F0 1000            00000 10295  3 1250.                    LH    R15,NTRYLEN             Î (LENGTH)
 001918 4BF0 7420            01BDE 10296  3 1251.                    SH    R15,=Y(L'NTRYFL+1)      Î Î - (FIXED_PORTION + 1)
 00191C 1BF3                       10297  3 1252.                    SR    R15,TR                  Î Î - (NAME_LEN - 1)
 00191E 183F                       10298  3 1253.                    LR    TR,R15                  Î Î
 001920 0E2E                       10299  3 1254.                    MVCL  SR,R14                  Î
 DROP   NXRYFL,R4                  10300  2 1255.                  END   ,                       OF FILE DUMP FORMAT ADDR
 001922                            10308  1 1256.                END   ,                       OF FILE ENTRY
 001922 4830 1000            00000 10312  1 1257.                LH    TR,NTRYLEN              ENTRY LENGTH
 001926 5930 B068            009C0 10313  1 1258.                IF    (TR,GT,FDENTMAX),'ST TR,FDENTMAX'
 00192A 47D0 7174            01932 10325  1          +
 00192E 5030 B068            009C0 10331  1          +
 001932 5A30 B03C            00994 10336  1 1259.                A     TR,FDBYTCNT             TOTAL ALL LENGTHS
 001936 5030 B03C            00994 10337  1 1260.                ST    TR,FDBYTCNT             Î SAVE BACK
 00193A 58E0 B070            009C8 10338  1 1261.                L     R14,FILBUF              GET FILE BUFFER ADDRESS
 00193E 183E                       10339  1 1262.                LR    TR,R14                  Î
 001940 4130 3004            00004 10340  1 1263.                LA    TR,@TR+4                Î ENTRY AFTER RDW
 001944 4830 3000            00000 10341  1 1264.                WITH  (NXRYGR,TR),'LH TR,NXGBYTS '     BYTE COUNT
 USING  NXRYGR,R3
 DROP   NXRYGR,R3
 001948 4130 3004            00004 10365  1 1265.                LA    TR,@TR+4                Î TOTAL VBS LENGTH
 00194C 8930 0010            00010 10366  1 1266.                SLL   TR,16                   CREATE RDW FOR RECORD
 001950 5030 E000            00000 10367  1 1267.                ST    TR,@R14                 SET RDW IN RECORD BUFFER
 001954 180E                       10368  1 1268.                LR    R0,R14                  FILE BUFFER
1VBLD     (VBLD21) (09:45) (22MAR04) Disect Catalog and write to FILS (temp)                                                Page   73
0Current Usings:  (NTRY,R1) (RQB,R5) (*,R6) (*,R7) (FSB,R10) (DATASECT,R11)
0Loc    Object Code    Addr1 Addr2  Stmt Lv Lineno    Source Statement           (Hibal 5, Asmedit 3.3)  HLASM R4.0  2004/03/22 09.45
+___    ______ ____    _____ _____  ____ __ ______    ______ _________
0001956 4110 B790/1FFF       010E8 10369  1 1269.                PUT   FILS,(0)                OUTPUT RECORD
 00195C BFF7 1031/05EF       00031 10373  1          +
 001962 50D0 5020            00020 10375  1 1270.                VCAT  CONT                    GET NEXT ENTRY (CONTinue)
 001966 41D0 5098            00098 10377  1          +
 00196A 5830 73A6            01B64 10378  1          +
 00196E 4120 000C/0D93       0000C 10379  1          +
 001974 58D0 5020            00020 10381  1          +
 001978 47F0 7092            01850 10382    1271.              END   ,                       OF SEQUENTIAL LIST (WHILE)
 DROP   NTRY,R1
000197C 59F0 73D2            01B90 10393    1273.              IF    ((R15,NE,CSEQEND),AND,(R15,NE,CSEQNONT)),BEGIN
 001980 4780 71D8            01996 10407             +
 001984 59F0 73D6            01B94 10420             +
 001988 4780 71D8            01996 10421             +
 00198C 9640 B001      00959       10426  1 1274.                SET   FDERRS                  INDICATE ERRORS
 001990 5890 73DA/0D99       01B98 10432  1 1275.                ACALL DIRCODE
 001996                            10436    1276.              END   ,
 001996                            10440    1277.              BEGIN ,                       PUT IN END ACCT (FOR OLD FMT)
 001996 58E0 B070            009C8 10444  1 1278.                L     R14,FILBUF              ADDR TO BUFFER
 00199A 4110 E004            00004 10445  1 1279.                LA    R1,@R14+4               Î
 00199E D20F 1000 B004 00000 0095C 10446  1 1280.                MVC   @R1(L'ACCEND),ACCEND    Î MOVE IN END ACCT
 0019A4 4110 0014            00014 10447  1 1281.                LA    R1,L'ACCEND+4           TOTAL VBS LEN
 0019A8 8910 0010            00010 10448  1 1282.                SLL   R1,16                   CREATE RDW
 0019AC 5010 E000            00000 10449  1 1283.                ST    R1,@R14                 Î
 0019B0 180E                       10450  1 1284.                LR    R0,R14                  PUT RECORD
 0019B2 4110 B790/1FFF       010E8 10451  1 1285.                PUT   FILS,(0)                Î
 0019B8 BFF7 1031/05EF       00031 10455  1          +
 0019BE                            10457    1286.              END   ,                       OF PUT IN END ACCT
-                                  10462    1288.              PRINT NOGEN                   SUPPRESS MACRO EXPANSION
 0019BE 58F0 B034            0098C 10464    1289.              SEGDC 11,ACCCNT,COMMAS=YES
 0019D6 4110 73DE            01B9C 10506    1290.              VSEG  ' Accounts processed.'
 0019E4 4D90 612C            00148 10515    1291.              LCALL WRTLN                   OUTPUT BUFFER
 0019E8 58F0 B030            00988 10517    1292.              SEGDC 11,FILCNT,COMMAS=YES
 001A00 4110 74C1            01C7F 10559    1293.              VSEG  ' Files processed.'
 001A0E 4D90 612C            00148 10568    1294.              LCALL WRTLN                   OUTPUT BUFFER
 001A12 58F0 B03C            00994 10570    1295.              SEGDC 11,FDBYTCNT,COMMAS=YES  TOTAL FD BYTE COUNT
 001A2A 4110 7478            01C36 10612    1296.              VSEG  ' Bytes in File-Directory, '
 001A38 5810 A060            00060 10621    1297.              L     R1,FSBCHKA              CHECKPOINT ADDR
 USING  CHKPNT,R1                  10622    1298.              WITH (CHKPNT,R1),'LH R0,CHKFBNO '      NUM OF FREE BLKS
 DROP   CHKPNT,R1
 001A40 5000 B038            00990 10646    1299.              ST    R0,FDFBNO               Î
 001A44 58F0 B038            00990 10647    1300.              SEGDC 0,FDFBNO
 001A5A 4110 73F2            01BB0 10686    1301.              VSEG  ' free blocks'          Î
 001A68 D503 B038 B0F0 00990 00A48 10695    1302.              IF    (FDFBNO,LT,CATMNFRE),BEGIN       NOT ENOUGH - COMPLAIN
 001A72 4110 7492            01C50 10713  1 1303.                VSEG  ' - REBUILD needed.'
                                   10722    1304.              END   ELSE,BEGIN              ENOUGH
 001A84 4110 74D2            01C90 10737  1 1305.                VSEG  '.'                     BE NEAT
                                   10746    1306.              END   ,                       OF ENOUGH
 001A92 4D90 612C            00148 10750    1307.              LCALL WRTLN                   OUTPUT BUFFER
 001A96 5830 B03C            00994 10752    1308.              L     TR,FDBYTCNT             TOTAL BYTE COUNT
 001A9A 1B22                       10753    1309.              CLEAR SR                      CLEAR FOR DIVIDE
 001A9C 5810 B030            00988 10757    1310.              L     R1,FILCNT               TOTAL NUMBER OF FILES
1VBLD     (VBLD21) (09:45) (22MAR04) Disect Catalog and write to FILS (temp)                                                Page   74
0Current Usings:  (RQB,R5) (*,R6) (*,R7) (FSB,R10) (DATASECT,R11)
0Loc    Object Code    Addr1 Addr2  Stmt Lv Lineno    Source Statement           (Hibal 5, Asmedit 3.3)  HLASM R4.0  2004/03/22 09.45
+___    ______ ____    _____ _____  ____ __ ______    ______ _________
0001AA0 5A10 B034            0098C 10758    1311.              A     R1,ACCCNT               + NUMBER OF ACCOUNTS
 001AA4 1D21                       10759    1312.              DR    SR,R1                   AVERAGE LENGTH OF AN ENTRY
 001AA6 5030 B06C            009C4 10760    1313.              ST    TR,FDENTAVG             SAVE IT
 001AAA 4110 74D3            01C91 10761    1314.              VSEG  '            Largest FD entry was '
 001AB8 58F0 B068            009C0 10770    1315.              SEGDC 0,FDENTMAX              REPORT LARGEST ENTRY
 001ACE 4110 73FE            01BBC 10809    1316.              VSEG  ', Average length is '
 001ADC 18F3                       10818    1317.              SEGDC 0,(TR)                  REPORT AVERAGE LENGTH
 001AF0 4D90 612C            00148 10857    1318.              LCALL WRTLN                   OUTPUT BUFFER
                                   10859    1319.              PRINT GEN                     TURN MACROS EXPANSION ON
0001AF4 4510 733E/80         01AFC 10862    1321.              CLOSE (FILS,)                 CLOSE FILE DATA SET
 001AF9 0010E8/0A14                10866             +
 001AFE 18D8/982C D000       00000 10868    1322.              VEXIT SR,R12,LTR              RETURN TO DRIVER
 001B04 12FF/07F9                  10872             +
 DROP   FSB,R10                    10874    1323.              DROP  FSBR
 DROP   RQB,R5                     10881    1324.              DROP  RQBR
                                   10888    1325.     *         DROP  CTR
                                   10889    1326.              AGO   .NCHKRTN
                                   10890    1386.     .NCHKRTN ANOP  ,
 001B08                            10891    1387.              LTORG ,
 001B08 D3C9E2E340404040           10893                             =CL8'LIST'
 001B10 00000000                   10894                             =V(VFOPN)
 001B14 00000AF4                   10895                             =A(VFSBDSCT)
 001B18 00000004                   10896                             =A(4)
 001B1C 00000000                   10897                             =V(VFIO)
 001B20 C6E2D4C240C88581           10898                             =C'FSMB Header Error, Length = '
 001B3C 00000000                   10899                             =V(VSEG)
 001B40 00000000                   10900                             =V(BTD)
 001B44 00000CD4                   10901                             =A(VRQBDSCT)
 001B48 00002C2A                   10902                             =A(CATREAD)
 001B4C FFFFFFFF                   10903                             =4AL1(NIL)
 001B50 7FFFFF00                   10904                             =A(VIOFREE)
 001B54 00000001                   10905                             =A(1)
 001B58 00000064                   10906                             =A(100)
 001B5C 00000006                   10907                             =A(6)
 001B60 00000000                   10908                             =V(BTDC)
 001B64 00000000                   10909                             =V(VCATENT)
 001B68 C3C8C5C3D2D7D6C9           10910                             =C'CHECKPOINT format is current'
 001B84 00000008                   10911                             =A(8)
 001B88 0000319E                   10912                             =A(CHKFILES)
 001B8C 00000000                   10913                             =AL4(ACCMODE)
 001B90 00000008                   10914                             =A(CSEQEND)
 001B94 00000010                   10915                             =A(CSEQNONT)
 001B98 0000298A                   10916                             =A(DIRCODE)
 001B9C 40C1838396A495A3           10917                             =C' Accounts processed.'
 001BB0 4086998585408293           10918                             =C' free blocks'
 001BBC 6B40C1A585998187           10919                             =C', Average length is '
 001BD0 0008                       10920                             =Y(CFSBPL)
 001BD2 0008                       10921                             =Y(8)
 001BD4 0010                       10922                             =Y(CDSKHSIZ)
 001BD6 000E                       10923                             =Y(L'NODE+CNODNLLN)
 001BD8 0048                       10924                             =Y(CNODA99)
 001BDA 001A                       10925                             =Y(L'NTRYGR)
 001BDC 0041                       10926                             =Y(CNODF99)
1VBLD     (VBLD21) (09:45) (22MAR04) Disect Catalog and write to FILS (temp)                                                Page   75
0Current Usings:  (*,R6) (*,R7) (DATASECT,R11)
0Loc    Object Code    Addr1 Addr2  Stmt Lv Lineno    Source Statement           (Hibal 5, Asmedit 3.3)  HLASM R4.0  2004/03/22 09.45
+___    ______ ____    _____ _____  ____ __ ______    ______ _________
0001BDE 0021                       10927                             =Y(L'NTRYFL+1)
 001BE0 0108                       10928                             =Y(CNTAMXL)
 001BE2 0129                       10929                             =Y(CNTFMXL)
 001BE4 0005                       10930                             =Y(CCAT1PCT)
 001BE6 003C                       10931                             =Y(CCAT1MIN)
 001BE8 0001                       10932                             =Y(CCAT2PCT)
 001BEA 000A                       10933                             =Y(CCAT2MIN)
 001BEC D585A640C381A381           10934                             =C'New Catalog start block = '
 001C06 D585A640C381A381           10935                             =C'New Catalog block count = '
 001C20 40C293968392A240           10936                             =C' Blocks in Catalog'
 001C32 000A                       10937                             =Y(L'NTRYGR-L'NXRYGR)
 001C34 0008                       10938                             =Y(L'NTRYFL-L'NXRYFL)
 001C36 40C2A8A385A24089           10939                             =C' Bytes in File-Directory, '
 001C50 406040D9C5C2E4C9           10940                             =C' - REBUILD needed.'
 001C62 C6E2D4C240839695           10941                             =C'FSMB converted to new format.'
 001C7F 40C6899385A24097           10942                             =C' Files processed.'
 001C90 4B                         10943                             =C'.'
 001C91 4040404040404040           10944                             =C'            Largest FD entry was '
1VBLD     (VBLD21) (09:45) (22MAR04) Print the CATALOG to LIST                                                              Page   76
0Current Usings:  (*,R6) (*,R7) (DATASECT,R11)
0Loc    Object Code    Addr1 Addr2  Stmt Lv Lineno    Source Statement           (Hibal 5, Asmedit 3.3)  HLASM R4.0  2004/03/22 09.45
+___    ______ ____    _____ _____  ____ __ ______    ______ _________
0                                  10949    1389.     *
                                   10950    1390.     *  PRINT FILE DATA SET TO MICRO-FICHE
                                   10951    1391.     *
0001CB8 9029 D000/188D       00000 10953    1393.     LISTFLS  VENTER SR,RAR,*,LOCAL         SAVE REGISTERS, GET ADDR
 001CBE 41D0 D020/0D70       00020 10957             +
 001CC4 4110 0321            00321 10975    1394.              LA    R1,L'OUTLNES            GET MEMORY
 DROP   *,R7
 USING  *,R7
 001CC8 4D90 62D2            002EE 10976    1395.              LCALL GETMEM                  Î R1/R0 = LOC/LEN ON RET
 001CCC 5010 B100            00A58 10978    1396.              ST    R1,OUTBUF               Î
 001CD0 1710                       10979    1397.              XR    R1,R0                   SWITCH - R1/R0 = LEN/LOC
 001CD2 1701                       10980    1398.              XR    R0,R1                   Î
 001CD4 1710                       10981    1399.              XR    R1,R0                   Î
 001CD6 1BFF                       10982    1400.              CLEAR R15                     Î ZERO LEN, BLANK PAD
 001CD8 BFF8 7520            021E4 10986    1401.              ICM   R15,8,=C' '             Î Î
 001CDC 0E0E                       10987    1402.              MVCL  R0,R14                  Î
0001CDE 4110 7484            02148 10989    1404.              LA    R1,=CL8'LIST'           SET DDNAME FOR LIST FILE
 001CE2 5890 7494/0D99       02158 10990    1405.              ACALL CHKLIST                 CHECK FOR "LIST" DDNAME
 001CE8 4510 7030/00         01CF4 10994    1406.              OPEN  (FILS,(INPUT),LIST,(OUTPUT))     OPEN FILES
 001CED 0010E8/8F                  10998             +
 001CF1 001148/0A13                11000             +
 001CF6 58C0 B100            00A58 11002    1407.              L     R12,OUTBUF              BUFFER ADDRESSES
 USING  OUTLNES,R12                11003    1408.              USING OUTLNES,R12             ## OUTPUT ADDR
0001CFA D201 C000 74C4 00000 02188 11013    1410.              MVC   L1LEN,=AL2(L'LINE1)     SET LINE LENGTH
 001D00 92F1 C004      00004       11014    1411.              MVI   L1CC,C'1'               PAGE EJECT FOR CC
 001D04 D210 C03F 7521 0003F 021E5 11015    1412.              MVC   L1NAME,=C'ORVYL File System'
 001D0A D201 C050 74C6 00050 0218A 11016    1413.              MVC   L2LEN,=AL2(L'LINE2)     SET LINE LENGTH
 001D10 924E C054      00054       11017    1414.              MVI   L2CC,C'+'               OVERPRINT UNDERLINE
 001D14 D210 C08F 74C8 0008F 0218C 11018    1415.              MVC   L2UND,=38C'_'           SET UNDERSCORE IN RECORD
0001D1A D201 C0A0 74EE 000A0 021B2 11020    1417.              MVC   L3LEN,=AL2(L'LINE3)     SET LINE LENGTH
 001D20 D203 B0F8 7498 00A50 0215C 11021    1418.              MVC   LNCNT,=A(9999)          INSURE PAGE EJECT FIRST TIME
 001D26 9801 B090            009E8 11022    1419.              LM    R0,R1,CLCKSTRT          TOD CLOCK AT START OF RUN
 001D2A 41F0 C0A5            000A5 11023    1420.              LA    R15,L3DATE              OUTPUT ADDRESS
 001D2E 58E0 749C/0DEE       02160 11024    1421.              XCALL FMTCLCK                 SET TIME & DATE IN OUTPUT
 001D34 D207 C0E1 B0E8 000E1 00A40 11028    1422.              MVC   L3SYS,FSNAM             SET FILE SYSTEM
 001D3A D203 C118 74A0 00118 02164 11029    1423.              MVC   L3PAGE,=C'Page'
 001D40 9260 C11F      0011F       11030    1424.              MVI   L3DASH,C'-'             SET DASH IN OUTPUT LINE
 001D44 D201 C124 74F0 00124 021B4 11031    1425.              MVC   L4LEN,=AL2(L'LINE4)     SET LINE LENGTH
 001D4A 924E C128      00128       11032    1426.              MVI   L4CC,C'+'               OVERPRINT CC
 001D4E D205 C165 74C8 00165 0218C 11033    1427.              MVC   L4UND,=38C'_'           SET UNDERSCORE
0001D54 D201 C16B 74F2 0016B 021B6 11035    1429.              MVC   L5LEN,=AL2(L'LINE5)     SET LINE LENGTH
 001D5A 9260 C16F      0016F       11036    1430.              MVI   L5CC,C'-'               TRIPLE SPACE
 001D5E D206 C172 7532 00172 021F6 11037    1431.              MVC   L5ACCT,=C'Account'
 001D64 D209 C17C 74F4 0017C 021B8 11038    1432.              MVC   L5ALL,=C'Allocation'
 001D6A D203 C18C 74A4 0018C 02168 11039    1433.              MVC   L5USD+3(4),=C'Used'     SET TITLE
0001D70 D201 C1A2 74FE 001A2 021C2 11041    1435.              MVC   L6LEN,=AL2(L'LINE6)     SET LINE LENGTH
 001D76 924E C1A6      001A6       11042    1436.              MVI   L6CC,C'+'               OVERPRINT
 001D7A D206 C1A9 74C8 001A9 0218C 11043    1437.              MVC   L6UND1,=38C'_'
1VBLD     (VBLD21) (09:45) (22MAR04) Print the CATALOG to LIST                                                              Page   77
0Current Usings:  (*,R6) (*,R7) (DATASECT,R11) (OUTLNES,R12)
0Loc    Object Code    Addr1 Addr2  Stmt Lv Lineno    Source Statement           (Hibal 5, Asmedit 3.3)  HLASM R4.0  2004/03/22 09.45
+___    ______ ____    _____ _____  ____ __ ______    ______ _________
0001D80 D209 C1B3 74C8 001B3 0218C 11044    1438.              MVC   L6UND2,=38C'_'
 001D86 D209 C1C0 74C8 001C0 0218C 11045    1439.              MVC   L6UND3,=38C'_'
0001D8C D201 C1CA 7500 001CA 021C4 11047    1441.              MVC   L7LEN,=AL2(L'LINE7)     SET LINE LENGTH
 001D92 D201 C1F2 7502 001F2 021C6 11048    1442.              MVC   L8LEN,=AL2(L'LINE8)     SET LINE LENGTH
 001D98 92F0 C1F6      001F6       11049    1443.              MVI   L8CC,C'0'               DOUBLE SPACE
 001D9C D207 C1FD 748C 001FD 02150 11050    1444.              MVC   L8FILE(8),=C'Filename'
 001DA2 D20C C220 7539 00220 021FD 11051    1445.              MVC   L8CREATE,=C'Creation Date'
 001DA8 D20A C22F 7546 0022F 0220A 11052    1446.              MVC   L8LAST,=C'Last access'
 001DAE D201 C23A 7504 0023A 021C8 11053    1447.              MVC   L9LEN,=AL2(L'LINE9)     SET LINE LENGTH
 001DB4 924E C23E      0023E       11054    1448.              MVI   L9CC,C'+'               OVERPRINT
 001DB8 D220 C245 74C8 00245 0218C 11055    1449.              MVC   L9UND1,=38C'_'
 001DBE D20C C268 74C8 00268 0218C 11056    1450.              MVC   L9UND2,=38C'_'
 001DC4 D20A C277 74C8 00277 0218C 11057    1451.              MVC   L9UND3,=38C'_'
 001DCA D201 C282 7506 00282 021CA 11058    1452.              MVC   L10LEN,=AL2(L'LINE10)
 001DD0 D201 C2C8 7508 002C8 021CC 11059    1453.              MVC   L11LEN,=AL2(L'LINE11)
 001DD6 924E C2CC      002CC       11060    1454.              MVI   L11CC,C'+'              UNDERSCORE LAST LINE
 001DDA D20E C312 7551 00312 02215 11061    1455.              MVC   L11MSG,=C'(See next page)'
0001DE0 5830 B070            009C8 11063    1457.              L     TR,FILBUF               INPUT BUFFER ADDRESS
 001DE4                            11064    1458.              LOOP  BEGIN                   READ ALL RECORDS
 001DE4 4120 3004            00004 11070  1 1459.                LA    SR,@TR+4                BYPASS RDW
 001DE8 4110 B790/1803       010E8 11071  1 1460.                GET   FILS,(TR)               READ RECORD
 001DEE 1FFF/BFF7 1031       00031 11075  1          +
 001DF4 05EF                       11077  1          +
 USING  NXRYGR,R2                  11078  1 1461.                WITH  (NXRYGR,SR)             ## FILE ADDR
 001DF6 95FF 2008      00008       11091  1 1462.                IF    (NXGCODE,EQ,X'FF'),BEGIN
 001DFA 4770 7148            01E0C 11103  1          +
 001DFE                            11108  2 1463.                  IF    (NXGNAME,EQ,NULLACCT),EXIT       ALL DONE
 001DFE D505 2002 B006 00002 0095E 11120  2          +
 001E04 4780 7148            01E0C 11123  2          +
 001E08 4D90 7218            01EDC 11129  2 1464.                  LCALL PRNTACCT                PRINT ENTRY
 001E0C 714C           01E0C 01DFC 11131  1 1465.                END   ELSE,'LCALL PRNTFILE'
 001E0C 47F0 7150            01E14 11140  1          +
 001E10 4D90 72C2            01F86 11148  1          +
 001E14 47F0 7120            01DE4 11153    1466.              END   ,
 DROP   NXRYGR,R2
1VBLD     (VBLD21) (09:45) (22MAR04) Print the CATALOG to LIST                                                              Page   78
0Current Usings:  (*,R6) (*,R7) (DATASECT,R11) (OUTLNES,R12)
0Loc    Object Code    Addr1 Addr2  Stmt Lv Lineno    Source Statement           (Hibal 5, Asmedit 3.3)  HLASM R4.0  2004/03/22 09.45
+___    ______ ____    _____ _____  ____ __ ______    ______ _________
0001E18                            11164    1468.     LSTEND   LABEL ,
 001E18 4510 7162            01E26 11166    1469.              FREEMAIN EC,LV=L'OUTLNES,A=OUTBUF
 001E1C 00000321                   11170             +
 001E20 00000A58/20/00             11171             +
 001E26 0A05                       11174             +
 001E28 4510 7170/00         01E34 11175    1470.              CLOSE (FILS,,LIST)            CLOSE FILES
 001E2D 0010E8/80                  11179             +
 001E31 001148/0A14                11181             +
 001E36 4110 B790            010E8 11183    1471.              FREEPOOL FILS                 RELEASE BUFFER POOL
 001E3A 9101 1017      00017       11186             +
 001E3E 4710 71C0/1FFF       01E84 11187             +
 001E44 BFF7 1015            00015 11189             +
 001E48 58E0 F000/12EE       00000 11190             +
 001E4E 4770 7196            01E5A 11192             +
 001E52 9130 F004      00004       11193             +
 001E56 4770 71C0            01E84 11194             +
 001E5A 9601 1017/1BEE 00017       11195             +
 001E60 1B11/BF13 F006       00006 11197             +
 001E66 43E0 F005/1C0E       00005 11199             +
 001E6C 4110 1008            00008 11201             +
 001E70 9140 F004      00004       11202             +
 001E74 47E0 71B8            01E7C 11203             +
 001E78 4110 1008/1801       00008 11204             +
 001E7E 4110 F000/0A0A       00000 11206             +
 001E84 4110 B7F0            01148 11209    1472.              FREEPOOL LIST                 RELEASE BUFFER POOL
 001E88 9101 1017      00017       11212             +
 001E8C 4710 720E/1FFF       01ED2 11213             +
 001E92 BFF7 1015            00015 11215             +
 001E96 58E0 F000/12EE       00000 11216             +
 001E9C 4770 71E4            01EA8 11218             +
 001EA0 9130 F004      00004       11219             +
 001EA4 4770 720E            01ED2 11220             +
 001EA8 9601 1017/1BEE 00017       11221             +
 001EAE 1B11/BF13 F006       00006 11223             +
 001EB4 43E0 F005/1C0E       00005 11225             +
 001EBA 4110 1008            00008 11227             +
 001EBE 9140 F004      00004       11228             +
 001EC2 47E0 7206            01ECA 11229             +
 001EC6 4110 1008/1801       00008 11230             +
 001ECC 4110 F000/0A0A       00000 11232             +
0001ED2 18D8/9829 D000       00000 11236    1474.              VEXIT SR,RAR,LTR
 001ED8 12FF/07F9                  11240             +
1VBLD     (VBLD21) (09:45) (22MAR04) Print the CATALOG to LIST                                                              Page   79
0Current Usings:  (*,R6) (*,R7) (DATASECT,R11) (OUTLNES,R12)
0Loc    Object Code    Addr1 Addr2  Stmt Lv Lineno    Source Statement           (Hibal 5, Asmedit 3.3)  HLASM R4.0  2004/03/22 09.45
+___    ______ ____    _____ _____  ____ __ ______    ______ _________
0001EDC                            11243    1476.     PRNTACCT LABEL ,
 001EDC 9029 D000            00000 11245    1477.              VPUSH SR,RAR,*                SAVE CALLING REGISTERS
 001EE0 41D0 D020            00020 11247             +
 USING  NXRYGR,R2                  11248    1478.              USING NXRYGR,SR               ##
 001EE4 F810 B107 7560 00A5F 02224 11257    1479.              ZAP   PGE#2,=PL1'1'           RESET SUB-PAGE NO
 001EEA                            11258    1480.              IF    (LNCNT,GT,51),'LCALL PRNTFHD'
 001EEA D503 74A8 B0F8 0216C 00A50 11270             +
 001EF0 47B0 7234            01EF8 11271             +
 001EF4 4D90 7412            020D6 11278             +
 001EF8 4110 B7F0            01148 11283    1481.              PUT   LIST,LINE5              OUTPUT HEADER FOR ACCOUNT
 001EFC 4100 C16B/1FFF       0016B 11286             +
 001F02 BFF7 1031/05EF       00031 11288             +
 001F08 4110 B7F0            01148 11290    1482.              PUT   LIST,LINE6              AND UNDERLINE FOR HEADER
 001F0C 4100 C1A2/1FFF       001A2 11293             +
 001F12 BFF7 1031/05EF       00031 11295             +
 001F18 D205 C1D1 2002 001D1 00002 11297    1483.              MVC   L7ACCT,NXGNAME          SET ACCOUNT IN LINE
 001F1E 1F00/BF07 2009       00009 11298    1484.              L3    R0,NXGMXSP              GET MAX SPACE ALLOWED
 001F24 5900 74AC            02170 11304    1485.              IF    (R0,EQ,X'FFFFFF'),BEGIN NO SPACE LIMIT
 001F28 4770 726E            01F32 11316             +
 001F2C D209 C1DB 750A 001DB 021CE 11321  1 1486.                MVC   L7ALL,=C'    ---   '
 001F32 7272           01F32 01F2A 11322    1487.              END   ELSE,BEGIN              ELSE DO MAX SPACE
 001F32 47F0 7282            01F46 11331             +
 001F36 4E00 B0A8            00A00 11337  1 1488.                CVD   R0,CLWTEMP              CONVERT TO PACKED
 001F3A D209 C1DB 7514 001DB 021D8 11338  1 1489.                MVC   L7ALL,=X'40206B2020206B202120'   EDIT MASK
 001F40 DE09 C1DB B0AC 001DB 00A04 11339  1 1490.                ED    L7ALL,CLWTEMP+4         EDIT INTO LINE
 001F46                            11340    1491.              END   ,
 001F46 1F00/BF07 200C       0000C 11344    1492.              L3    R0,NXGUSSP              GET BLOCKS USED
 001F4C 4E00 B0A8            00A00 11350    1493.              CVD   R0,CLWTEMP              CONVERT TO PACKED
 001F50 D209 C1E8 7514 001E8 021D8 11351    1494.              MVC   L7USD,=X'40206B2020206B202120'   EDIT MASK
 001F56 DE09 C1E8 B0AC 001E8 00A04 11352    1495.              ED    L7USD,CLWTEMP+4         EDIT INTO LINE
 001F5C 94EF B001      00959       11353    1496.              CLEAR FNOP                    FILENAME NOT PRINTED
 001F60 5800 B0F8            00A50 11360    1497.              L     R0,LNCNT                GET LINE COUNTER
 001F64 5A00 74B0            02174 11361    1498.              A     R0,=A(4)                BUMP LINE COUNTER
 001F68 5000 B0F8            00A50 11362    1499.              ST    R0,LNCNT                AND SAVE BACK
 001F6C 4110 B7F0            01148 11363    1500.              PUT   LIST,LINE7              OUTPUT ACCOUNT LINE
 001F70 4100 C1CA/1FFF       001CA 11366             +
 001F76 BFF7 1031/05EF       00031 11368             +
 DROP   NXRYGR,R2                  11370    1501.              DROP  SR                      ##
 001F7C 4BD0 751E            021E2 11377    1502.              VPOP  SR,RAR,*                RESTORE CALLING REGISTERS
 001F80 9829 D000            00000 11379             +
 001F84 07F9                       11380    1503.              BR    RAR                     RETURN TO CALLER
1VBLD     (VBLD21) (09:45) (22MAR04) Print the CATALOG to LIST                                                              Page   80
0Current Usings:  (*,R6) (*,R7) (DATASECT,R11) (OUTLNES,R12)
0Loc    Object Code    Addr1 Addr2  Stmt Lv Lineno    Source Statement           (Hibal 5, Asmedit 3.3)  HLASM R4.0  2004/03/22 09.45
+___    ______ ____    _____ _____  ____ __ ______    ______ _________
0001F86                            11382    1505.     PRNTFILE LABEL ,
 001F86 9029 D000            00000 11384    1506.              VPUSH SR,RAR,*
 001F8A 41D0 D020            00020 11386             +
 001F8E                            11387    1507.              IF    (LNCNT,GT,58),BEGIN
 001F8E D503 74B4 B0F8 02178 00A50 11399             +
 001F94 47B0 7338            01FFC 11400             +
 001F98 4110 B7F0            01148 11405  1 1508.                PUT   LIST,LINE11             OVERPRINT NEXT PGE MESSAGE
 001F9C 4100 C2C8/1FFF       002C8 11408  1          +
 001FA2 BFF7 1031/05EF       00031 11410  1          +
 001FA8 FA10 B107 7560 00A5F 02224 11412  1 1509.                AP    PGE#2,=PL1'1'           BUMP SECONDARY PAGE
 001FAE 4D90 7412            020D6 11413  1 1510.                LCALL PRNTFHD                 PRINT PAGE HEADER
 001FB2 94EF B001      00959       11415  1 1511.                CLEAR FNOP                    CLEAR FILENAME HEADER DONE
 001FB6 D20A C197 7561 00197 02225 11422  1 1512.                MVC   L5CONT,=C'(Continued)'  SUB-TITLE
 001FBC 4110 B7F0            01148 11423  1 1513.                PUT   LIST,LINE5
 001FC0 4100 C16B/1FFF       0016B 11426  1          +
 001FC6 BFF7 1031/05EF       00031 11428  1          +
 001FCC 4110 B7F0            01148 11430  1 1514.                PUT   LIST,LINE6
 001FD0 4100 C1A2/1FFF       001A2 11433  1          +
 001FD6 BFF7 1031/05EF       00031 11435  1          +
 001FDC 4110 B7F0            01148 11437  1 1515.                PUT   LIST,LINE7
 001FE0 4100 C1CA/1FFF       001CA 11440  1          +
 001FE6 BFF7 1031/05EF       00031 11442  1          +
 001FEC 9240 C197      00197       11444  1 1516.                MVI   L5CONT,C' '
 001FF0 D209 C198 C197 00198 00197 11445  1 1517.                MVC   L5CONT+1(L'L5CONT-1),L5CONT      BLANK FILL
 001FF6 D203 B0F8 74B8 00A50 0217C 11446  1 1518.                MVC   LNCNT,=A(6)
 001FFC                            11447    1519.              END   ,
 001FFC 9110 B001      00959       11451    1520.              IF    ~FNOP,BEGIN             NEED HEADER INFO
 002000 4710 7370            02034 11461             +
 002004 4110 B7F0            01148 11466  1 1521.                PUT   LIST,LINE8              OUTPUT FILENAME HEADER
 002008 4100 C1F2/1FFF       001F2 11469  1          +
 00200E BFF7 1031/05EF       00031 11471  1          +
 002014 4110 B7F0            01148 11473  1 1522.                PUT   LIST,LINE9              AND UNDERLINE HEADER
 002018 4100 C23A/1FFF       0023A 11476  1          +
 00201E BFF7 1031/05EF       00031 11478  1          +
 002024 9610 B001      00959       11480  1 1523.                SET   FNOP                    SET HEADER WRITTEN
 002028 5800 B0F8            00A50 11486  1 1524.                L     R0,LNCNT                GET LINE COUNTER
 00202C 5A00 74BC            02180 11487  1 1525.                A     R0,=A(2)                BUMP LINE COUNTER
 002030 5000 B0F8            00A50 11488  1 1526.                ST    R0,LNCNT                AND RESAVE
 002034                            11489    1527.              END   ,
0002034 9240 C28D      0028D       11494    1529.              MVI   L10NAME,C' '            BLANK CURRENT FILENAME
 002038 D21F C28E C28D 0028E 0028D 11495    1530.              MVC   L10NAME+1(L'L10NAME-1),L10NAME
 USING  NXRYFL,R2                  11496    1531.              USING NXRYFL,SR               ## FILE ADDR
 00203E 1F11/4310 2017       00017 11505    1532.              LC    R1,NXFLNMSZ             SIZE OF FILE NAME
 002044 4410 7576            0223A 11512    1533.              EX    R1,'MVC L10NAME(0),NXFLNAME'     MOVE IN FILE NAME
 002239 00                                1          +
 00223A D200 C28D 2018 0028D 00018 11520             +
 002048 BF0F 200B            0000B 11528    1534.              L4    R0,NXFCRDT              CREATE DATE
 00204C 9500 200B      0000B       11530    1535.              IF    ('CLI  NXFCRDT,X"00"',EQ),BEGIN  OLD STYLE?
 002050 4770 73A8            0206C 11538             +
 002054 BE02 B0A8            00A00 11543  1 1536.                STCM  R0,2,CLWTEMP            SAVE MM
 002058 BE01 B0A9            00A01 11544  1 1537.                STCM  R0,1,CLWTEMP+1          SAVE DD
 00205C BE04 B0AA            00A02 11545  1 1538.                STCM  R0,4,CLWTEMP+2          SAVE YY
 002060 D208 C2B1 756C 002B1 02230 11546  1 1539.                MVC   L10CREAT,=X'402020612020612020'
1VBLD     (VBLD21) (09:45) (22MAR04) Print the CATALOG to LIST                                                              Page   81
0Current Usings:  (NXRYFL,R2) (*,R6) (*,R7) (DATASECT,R11) (OUTLNES,R12)
0Loc    Object Code    Addr1 Addr2  Stmt Lv Lineno    Source Statement           (Hibal 5, Asmedit 3.3)  HLASM R4.0  2004/03/22 09.45
+___    ______ ____    _____ _____  ____ __ ______    ______ _________
0002066 DE08 C2B1 B0A8 002B1 00A00 11547  1 1540.                ED    L10CREAT,CLWTEMP        EDIT INTO PLACE
 00206C 73AC           0206C 02052 11548    1541.              END   ELSE,BEGIN
 00206C 47F0 73B8            0207C 11557             +
 002070 1B11                       11563  1 1542.                CLEAR R1
 002072 41F0 C2B2            002B2 11567  1 1543.                LA    R15,L10CREAT+1          TARGET
 002076 58E0 74C0/0DEE       02184 11568  1 1544.                XCALL FMTDATE                 FORMAT IT
 00207C                            11572    1545.              END   ,
 00207C BF0F 200F            0000F 11576    1546.              L4    R0,NXFLSDT              LAST ACCESS DATE
 002080 9500 200F      0000F       11578    1547.              IF    ('CLI  NXFLSDT,X"00"',EQ),BEGIN  OLD STYLE?
 002084 4770 73DC            020A0 11586             +
 002088 BE02 B0A8            00A00 11591  1 1548.                STCM  R0,2,CLWTEMP            SAVE MM
 00208C BE01 B0A9            00A01 11592  1 1549.                STCM  R0,1,CLWTEMP+1          SAVE DD
 002090 BE04 B0AA            00A02 11593  1 1550.                STCM  R0,4,CLWTEMP+2          SAVE YY
 002094 D208 C2BF 756C 002BF 02230 11594  1 1551.                MVC   L10LAST,=X'402020612020612020'
 00209A DE08 C2BF B0A8 002BF 00A00 11595  1 1552.                ED    L10LAST,CLWTEMP         EDIT INTO PLACE
 0020A0 73E0           020A0 02086 11596    1553.              END   ELSE,BEGIN
 0020A0 47F0 73EC            020B0 11605             +
 0020A4 1B11                       11611  1 1554.                CLEAR R1
 0020A6 41F0 C2C0            002C0 11615  1 1555.                LA    R15,L10LAST+1           TARGET
 0020AA 58E0 74C0/0DEE       02184 11616  1 1556.                XCALL FMTDATE                 MAKE IT NICE
 0020B0                            11620    1557.              END   ,
 0020B0 4100 0001            00001 11624    1558.              INCR  R0,LNCNT                BUMP LINE COUNTER
 0020B4 5E00 B0F8            00A50 11628             +
 0020B8 5000 B0F8            00A50 11629             +
 0020BC 4110 B7F0            01148 11630    1559.              PUT   LIST,LINE10             OUTPUT FILE LINE
 0020C0 4100 C282/1FFF       00282 11633             +
 0020C6 BFF7 1031/05EF       00031 11635             +
 DROP   NXRYFL,R2                  11637    1560.              DROP  SR                      ##
 0020CC 4BD0 751E            021E2 11644    1561.              VPOP  SR,RAR,*                RESTORE REGISTERS
 0020D0 9829 D000            00000 11646             +
 0020D4 07F9                       11647    1562.              BR    RAR
1VBLD     (VBLD21) (09:45) (22MAR04) Print the CATALOG to LIST                                                              Page   82
0Current Usings:  (*,R6) (*,R7) (DATASECT,R11) (OUTLNES,R12)
0Loc    Object Code    Addr1 Addr2  Stmt Lv Lineno    Source Statement           (Hibal 5, Asmedit 3.3)  HLASM R4.0  2004/03/22 09.45
+___    ______ ____    _____ _____  ____ __ ______    ______ _________
00020D6                            11649    1564.     PRNTFHD  LABEL ,
 0020D6 9029 D000            00000 11651    1565.              VPUSH SR,RAR,*
 0020DA 41D0 D020            00020 11653             +
 0020DE 4110 B7F0            01148 11654    1566.              PUT   LIST,LINE1              OUTPUT NEW PAGE
 0020E2 4100 C000/1FFF       00000 11657             +
 0020E8 BFF7 1031/05EF       00031 11659             +
 0020EE 4110 B7F0            01148 11661    1567.              PUT   LIST,LINE2              UNDERLINE
 0020F2 4100 C050/1FFF       00050 11664             +
 0020F8 BFF7 1031/05EF       00031 11666             +
 0020FE FA20 B104 7560 00A5C 02224 11668    1568.              AP    PGE#1,=PL1'1'           BUMP PAGE NUMBER
 002104 F332 C120 B104 00120 00A5C 11669    1569.              UNPK  L3P#,PGE#1              CONVERT PAGE TO
 00210A 96F0 C123      00123       11670    1570.              OI    L3P#+3,X'F0'            EBCDIC
 00210E F311 C11D B107 0011D 00A5F 11671    1571.              UNPK  L3S#,PGE#2              CONVERT SECOND PAGE # TO
 002114 96F0 C11E      0011E       11672    1572.              OI    L3S#+1,X'F0'            EBCDIC
 002118 4110 B7F0            01148 11673    1573.              PUT   LIST,LINE3              OUTPUT SECOND HEADER LINE
 00211C 4100 C0A0/1FFF       000A0 11676             +
 002122 BFF7 1031/05EF       00031 11678             +
 002128 4110 B7F0            01148 11680    1574.              PUT   LIST,LINE4              AND UNDERLINE RECORD
 00212C 4100 C124/1FFF       00124 11683             +
 002132 BFF7 1031/05EF       00031 11685             +
 002138 D203 B0F8 74B0 00A50 02174 11687    1575.              MVC   LNCNT,=A(4)             RESET LINE COUNTER
 00213E 4BD0 751E            021E2 11688    1576.              VPOP  SR,RAR,*                POP REGISTERS
 002142 9829 D000            00000 11690             +
 002146 07F9                       11691    1577.              BR    RAR                     AND RETURN
-DROP   OUTLNES,R12                11693    1579.              DROP  R12                     ##
1VBLD     (VBLD21) (09:45) (22MAR04) Print the CATALOG to LIST                                                              Page   83
0Current Usings:  (*,R6) (*,R7) (DATASECT,R11)
0Loc    Object Code    Addr1 Addr2  Stmt Lv Lineno    Source Statement           (Hibal 5, Asmedit 3.3)  HLASM R4.0  2004/03/22 09.45
+___    ______ ____    _____ _____  ____ __ ______    ______ _________
0002148                            11701    1581.              LTORG ,
 002148 D3C9E2E340404040           11703                             =CL8'LIST'
 002150 C689938595819485           11704                             =C'Filename'
 002158 0000315C                   11705                             =A(CHKLIST)
 00215C 0000270F                   11706                             =A(9999)
 002160 00000000                   11707                             =V(FMTCLCK)
 002164 D7818785                   11708                             =C'Page'
 002168 E4A28584                   11709                             =C'Used'
 00216C 00000033                   11710                             =AL4(51)
 002170 00FFFFFF                   11711                             =A(X'FFFFFF')
 002174 00000004                   11712                             =A(4)
 002178 0000003A                   11713                             =AL4(58)
 00217C 00000006                   11714                             =A(6)
 002180 00000002                   11715                             =A(2)
 002184 00000000                   11716                             =V(FMTDATE)
 002188 0050                       11717                             =AL2(L'LINE1)
 00218A 0050                       11718                             =AL2(L'LINE2)
 00218C 6D6D6D6D6D6D6D6D           11719                             =38C'_'
 0021B2 0084                       11720                             =AL2(L'LINE3)
 0021B4 0047                       11721                             =AL2(L'LINE4)
 0021B6 0037                       11722                             =AL2(L'LINE5)
 0021B8 C19393968381A389           11723                             =C'Allocation'
 0021C2 0028                       11724                             =AL2(L'LINE6)
 0021C4 0028                       11725                             =AL2(L'LINE7)
 0021C6 0048                       11726                             =AL2(L'LINE8)
 0021C8 0048                       11727                             =AL2(L'LINE9)
 0021CA 0046                       11728                             =AL2(L'LINE10)
 0021CC 0059                       11729                             =AL2(L'LINE11)
 0021CE 4040404060606040           11730                             =C'    ---   '
 0021D8 40206B2020206B20           11731                             =X'40206B2020206B202120'
 0021E2 0020                       11732                             =Y((RAR+1-(SR)+16*((SR)/(RAR+1))/((SR)/(RAR+1)))*4)
 0021E4 40                         11733                             =C' '
 0021E5 D6D9E5E8D340C689           11734                             =C'ORVYL File System'
 0021F6 C1838396A495A3             11735                             =C'Account'
 0021FD C3998581A3899695           11736                             =C'Creation Date'
 00220A D381A2A340818383           11737                             =C'Last access'
 002215 4DE28585409585A7           11738                             =C'(See next page)'
 002224 1C                         11739                             =PL1'1'
 002225 4DC39695A38995A4           11740                             =C'(Continued)'
 002230 4020206120206120           11741                             =X'402020612020612020'
1VBLD     (VBLD21) (09:45) (22MAR04) Dump the CATALOG                                                                       Page   84
0Current Usings:  (*,R6) (*,R7) (DATASECT,R11)
0Loc    Object Code    Addr1 Addr2  Stmt Lv Lineno    Source Statement           (Hibal 5, Asmedit 3.3)  HLASM R4.0  2004/03/22 09.45
+___    ______ ____    _____ _____  ____ __ ______    ______ _________
0                                  11746    1583.     ********************************************************************
                                   11747    1584.     *                                                                  *
                                   11748    1585.     *                  Catalog Dump                                    *
                                   11749    1586.     *                                                                  *
                                   11750    1587.     ********************************************************************
0002240 9029 D000/188D       00000 11752    1589.     DUMPCAT  VENTER SR,RAR,*,LOCAL
 002246 41D0 D020/0D70       00020 11756             +
 00224C 5890 7124/0D99       02370 11774    1590.              ACALL CHKDUMP                 ALLOCATE DUMP DATA SET
 DROP   *,R7
 USING  *,R7
 002252 0700/4510 7014       02260 11778    1591.              OPEN  (FILS,(INPUT),DUMPDCB,(OUTPUT))
 002258 00/0010E8/8F               11781             +
 00225D 0011A8/0A13                11784             +
 002262 4110 B790            010E8 11786    1592.              LA    R1,FILS
 USING  IHADCB,R1                  11787    1593.              USING IHADCB,R1
 002266 9110 1030      00030       11796    1594.              IF    ~DCBOFLGS.DCBOFOPN,FILERR        QUIT QUICK IF NOT OPEN
 00226A 47E0 63AA            003C6 11809             +
 00226E 4120 705A            022A6 11815    1595.              LA    SR,DUMPEND              EODAD ADDRESS
 002272 BE27 1021            00021 11816    1596.              ST3   SR,DCBEODA              CHANGE EODAD ADDRESS
 002276 4110 B850            011A8 11818    1597.              LA    R1,DUMPDCB              Check dump tape also
 00227A 9110 1030      00030       11819    1598.              IF    ~DCBOFLGS.DCBOFOPN,DUMERR        QUIT QUICK IF NOT OPEN
 00227E 47E0 63BC            003D8 11832             +
 DROP   IHADCB,R1                  11838    1599.              DROP  R1
 002282                            11845    1600.              LOOP  BEGIN
 002282 5830 B070            009C8 11851  1 1601.                L     TR,FILBUF               INPUT BUFFER ADDRESS
 002286 4110 B790/1803       010E8 11852  1 1602.                GET   FILS,(TR)               READ A RECORD
 00228C 1FFF/BFF7 1031       00031 11856  1          +
 002292 05EF                       11858  1          +
 002294 4110 B850/1803       011A8 11859  1 1603.                PUT   DUMPDCB,(TR)            DUMP IT OUT AS IS
 00229A 1FFF/BFF7 1031       00031 11863  1          +
 0022A0 05EF                       11865  1          +
 0022A2 47F0 7036            02282 11866    1604.              END   ,
 0022A6                            11871    1605.     DUMPEND  LABEL ,
 0022A6 0700/4510 7068       022B4 11873    1606.              CLOSE (FILS,,DUMPDCB)
 0022AC 00/0010E8/80               11876             +
 0022B1 0011A8/0A14                11879             +
 0022B6 4110 B790            010E8 11881    1607.              FREEPOOL FILS                 RELEASE BUFFER POOL
 0022BA 9101 1017      00017       11884             +
 0022BE 4710 70B8/1FFF       02304 11885             +
 0022C4 BFF7 1015            00015 11887             +
 0022C8 58E0 F000/12EE       00000 11888             +
 0022CE 4770 708E            022DA 11890             +
 0022D2 9130 F004      00004       11891             +
 0022D6 4770 70B8            02304 11892             +
 0022DA 9601 1017/1BEE 00017       11893             +
 0022E0 1B11/BF13 F006       00006 11895             +
 0022E6 43E0 F005/1C0E       00005 11897             +
 0022EC 4110 1008            00008 11899             +
 0022F0 9140 F004      00004       11900             +
 0022F4 47E0 70B0            022FC 11901             +
 0022F8 4110 1008/1801       00008 11902             +
 0022FE 4110 F000/0A0A       00000 11904             +
 002304 4110 B850            011A8 11907    1608.              FREEPOOL DUMPDCB              RELEASE BUFFER POOL
1VBLD     (VBLD21) (09:45) (22MAR04) Dump the CATALOG                                                                       Page   85
0Current Usings:  (*,R6) (*,R7) (DATASECT,R11)
0Loc    Object Code    Addr1 Addr2  Stmt Lv Lineno    Source Statement           (Hibal 5, Asmedit 3.3)  HLASM R4.0  2004/03/22 09.45
+___    ______ ____    _____ _____  ____ __ ______    ______ _________
0002308 9101 1017      00017       11910             +
 00230C 4710 7106/1FFF       02352 11911             +
 002312 BFF7 1015            00015 11913             +
 002316 58E0 F000/12EE       00000 11914             +
 00231C 4770 70DC            02328 11916             +
 002320 9130 F004      00004       11917             +
 002324 4770 7106            02352 11918             +
 002328 9601 1017/1BEE 00017       11919             +
 00232E 1B11/BF13 F006       00006 11921             +
 002334 43E0 F005/1C0E       00005 11923             +
 00233A 4110 1008            00008 11925             +
 00233E 9140 F004      00004       11926             +
 002342 47E0 70FE            0234A 11927             +
 002346 4110 1008/1801       00008 11928             +
 00234C 4110 F000/0A0A       00000 11930             +
                                   11933    1609.              PRINT NOGEN                   SUPPRESS MACRO EXPANSION
 002352 4110 712C            02378 11935    1610.              VSEG  '            Catalog Successfully Dumped'
 002360 4D90 612C            00148 11944    1611.              LCALL WRTLN                   OUTPUT BUFFER
                                   11946    1612.              PRINT GEN
 002364 18D8/9829 D000       00000 11948    1613.              VEXIT SR,RAR
 00236A 07F9                       11952             +
-002370                            11954    1615.              LTORG ,
 002370 000031E2                   11956                             =A(CHKDUMP)
 002374 00000000                   11957                             =V(VSEG)
 002378 4040404040404040           11958                             =C'            Catalog Successfully Dumped'
1VBLD     (VBLD21) (09:45) (22MAR04) Output SPIRES file                                                                     Page   86
0Current Usings:  (*,R6) (*,R7) (DATASECT,R11)
0Loc    Object Code    Addr1 Addr2  Stmt Lv Lineno    Source Statement           (Hibal 5, Asmedit 3.3)  HLASM R4.0  2004/03/22 09.45
+___    ______ ____    _____ _____  ____ __ ______    ______ _________
0                                  11963    1617.     *
                                   11964    1618.     *  Output SPIRES file
                                   11965    1619.     *
 00239F 00/9029 D000         00000 11966    1620.     SPIOUT   VENTER SR,RAR,*,LOCAL         SAVE REGISTERS, GETT ADDR
 0023A4 188D/41D0 D020       00020 11969             +
 0023AA 0D70                       11973             +
 DROP   *,R7
 USING  *,R7
 0023AC 4510 700C/00         023B8 11988    1621.              OPEN  (FILS,(INPUT),SPIDCB,(OUTPUT))
 0023B1 0010E8/8F                  11992             +
 0023B5 001208/0A13                11994             +
 0023BA 4110 B790            010E8 11996    1622.              LA    R1,FILS
 USING  IHADCB,R1                  11997    1623.              USING IHADCB,R1
 0023BE 4120 7052            023FE 12006    1624.              LA    SR,SPIEND               EODAD ADDRESS
 0023C2 BE27 1021            00021 12007    1625.              ST3   SR,DCBEODA              CHANGE EODAD ADDRESS
 DROP   IHADCB,R1                  12009    1626.              DROP  R1
 0023C6                            12016    1627.              LOOP  BEGIN
 0023C6 5830 B070            009C8 12022  1 1628.                L     TR,FILBUF               INPUT BUFFER ADDRESS
 0023CA 9240 70B1      0245D       12023  1 1629.                MVI   SPIFL,C' '              BLANK OUTPUT BUFFER
 0023CE D24E 70B2 70B1 0245E 0245D 12024  1 1630.                MVC   SPIFL+1(L'SPIFL-1),SPIFL         PROPOGATE BLANKS
 0023D4 4110 B790/1803       010E8 12025  1 1631.                GET   FILS,(TR)               READ A RECORD
 0023DA 1FFF/BFF7 1031       00031 12029  1          +
 0023E0 05EF                       12031  1          +
 0023E2 4130 3004            00004 12032  1 1632.                LA    TR,@TR+4                PAST RDW
 USING  NXRYGR,R3                  12033  1 1633.                WITH  (NXRYGR,TR)
 0023E6 95FF 3008      00008       12046  1 1634.                IF    (NXGCODE,EQ,X'FF'),'LCALL SPIACCT'
 0023EA 4770 7046            023F2 12058  1          +
 0023EE 4D90 706C            02418 12065  1          +
 0023F2 704A           023F2 023EC 12070  1 1635.                ELSE  'LCALL SPIFIL'
 0023F2 47F0 704E            023FA 12075  1          +
 0023F6 4D90 7088            02434 12083  1          +
 0023FA 47F0 701A            023C6 12088    1636.              END   ,
 DROP   NXRYGR,R3
 0023FE                            12098    1637.     SPIEND   LABEL ,
 0023FE 0700/4510 7060       0240C 12100    1638.              CLOSE (FILS,,SPIDCB)
 002404 00/0010E8/80               12103             +
 002409 001208/0A14                12106             +
 00240E 18D8/9829 D000       00000 12108    1639.              VEXIT SR,RAR,LTR              OK BACK
 002414 12FF/07F9                  12112             +
1VBLD     (VBLD21) (09:45) (22MAR04) Output SPIRES file                                                                     Page   87
0Current Usings:  (*,R6) (*,R7) (DATASECT,R11)
0Loc    Object Code    Addr1 Addr2  Stmt Lv Lineno    Source Statement           (Hibal 5, Asmedit 3.3)  HLASM R4.0  2004/03/22 09.45
+___    ______ ____    _____ _____  ____ __ ______    ______ _________
0002418                            12115    1641.     SPIACCT  LABEL ,
 USING  NXRYGR,R3                  12117    1642.              USING NXRYGR,TR               ##
 002418 92C1 70A8      02454       12126    1643.              MVI   SPIAD,C'A'
 00241C D205 70AA 3002 02456 00002 12127    1644.              MVC   SPIAC,NXGNAME
 002422 4110 B8B0            01208 12128    1645.              PUT   SPIDCB,SPIAD
 002426 4100 70A8/1FFF       02454 12131             +
 00242C BFF7 1031/05EF       00031 12133             +
 DROP   NXRYGR,R3                  12135    1646.              DROP  TR                      ##
 002432 07F9                       12142    1647.              BR    RAR
0002434                            12144    1649.     SPIFIL   LABEL ,
 002434 92C6 70A8      02454       12146    1650.              MVI   SPIAD,C'F'
 USING  NXRYFL,R3                  12147    1651.              USING NXRYFL,TR
 002438 1F11/4310 3017       00017 12156    1652.              LC    R1,NXFLNMSZ             FILENAME SIZE
 00243E 4410 7104            024B0 12163    1653.              EX    R1,'MVC SPIFL(0),NXFLNAME'
 0024B0 D200 70B1 3018 0245D 00018 12171             +
 002442 4110 B8B0            01208 12179    1654.              PUT   SPIDCB,SPIAD
 002446 4100 70A8/1FFF       02454 12182             +
 00244C BFF7 1031/05EF       00031 12184             +
 DROP   NXRYFL,R3                  12186    1655.              DROP  TR
 002452 07F9                       12193    1656.              BR    RAR
0002454 C140                       12195    1658.     SPIAD    DC    C'A '
 002456 C7C74BD7D1C7               12196    1659.     SPIAC    DC    CL6'GG.PJG'
 00245C 40                         12197    1660.              DC    C' '
 00245D 4040404040404040           12198    1661.     SPIFL    DC    CL80' '
 0024B0                024B6 03848 12199    1662.              LTORG ,
1VBLD     (VBLD21) (09:45) (22MAR04) Rebuild the CATALOG                                                                    Page   88
0Current Usings:  (*,R6) (*,R7) (DATASECT,R11)
0Loc    Object Code    Addr1 Addr2  Stmt Lv Lineno    Source Statement           (Hibal 5, Asmedit 3.3)  HLASM R4.0  2004/03/22 09.45
+___    ______ ____    _____ _____  ____ __ ______    ______ _________
0                                  12205    1664.     ********************************************************************
                                   12206    1665.     *                                                                  *
                                   12207    1666.     *  Catalog Re-build                                                *
                                   12208    1667.     *                                                                  *
                                   12209    1668.     ********************************************************************
00024B6 902C D000/188D       00000 12211    1670.     REBUILD  VENTER SR,R12,*,LOCAL
 0024BC 41D0 D02C/0D70       0002C 12215             +
 DROP   *,R7                       12233    1671.     *         L     CTR,VCTDSCT             CT ADDR
 USING  *,R7
                                   12234    1672.     *         USING FILECB,CTR              =
 0024C2 58A0 7A0E            02ED0 12235    1673.              L     FSBR,=A(VFSBDSCT)       FSB ADDR
 USING  FSB,R10                    12236    1674.              USING FSB,FSBR                Î
 0024C6 5850 7A12            02ED4 12245    1675.              L     RQBR,=A(VRQBDSCT)       RQBL ADDR
 USING  RQBL,R5                    12246    1676.              USING RQBL,RQBR               Î
 USING  DSKBLK,R2                  12255    1677.              USING DSKBLK,DSK              DSKBLK ADDR
 0024CA 9140 B001      00959       12264    1678.              IF    FDERRS,BEGIN
 0024CE 47E0 702A            024EC 12274             +
 0024D2 4110 7B7C            0303E 12279  1 1679.                VSEG  '(006) Catalog errors, Re-Build bypassed'
 0024D6 4100 0027            00027 12283  1          +
 0024DA 5890 7A16/0D99       02ED8 12286  1          +
 0024E0 4D90 612C            00148 12288  1 1680.                LCALL WRTLN                   PRINT ERROR MESSAGE
 0024E4 920C B000      00958       12290  1 1681.                MVI   RETCOD,12               SET RETURN CODE
 0024E8 47F0 7424            028E6 12291  1 1682.                B     RBLDEXIT                AND RETURN
 0024EC                            12292    1683.              END   ,
 0024EC 4510 7032/80         024F4 12296    1684.              OPEN  (FILS,(INPUT))          OPEN FILES
 0024F1 0010E8/0A13                12300             +
 USING  IHADCB,R1                  12302    1685.              WITH  (IHADCB,R1),BEGIN       ##DCB ADDR
 0024F6 4110 B790            010E8 12316  1 1686.                LA    R1,FILS                 FILES DCB ADDRESS
 0024FA 9110 1030      00030       12317  1 1687.                IF    ~DCBOFLGS.DCBOFOPN,FILERR        QUIT QUICK IF NOT OPEN
 0024FE 47E0 63AA            003C6 12330  1          +
 002502 4120 73B2            02874 12336  1 1688.                LA    SR,RBUILDX              EODAD ADDRESS
 002506 BE27 1021            00021 12337  1 1689.                ST3   SR,DCBEODA              CHANGE EODAD ADDRESS
 DROP   IHADCB,R1                  12339    1690.              END   ,
 00250A 9108 B002      0095A       12347    1691.              IF    ~RESTART,BEGIN          STATS JUST DONE
 00250E 4710 7094            02556 12357             +
 002512 5810 B03C            00994 12362  1 1692.                L     R1,FDBYTCNT             BLKS NEEDED (VERY ROUGH EST)
 002516 1B00                       12363  1 1693.                CLEAR R0                      Î
 002518 4820 A0B4            000B4 12367  1 1694.                LH    SR,FSBNASPA             Î FREE SPACE IN ACC NODE
 00251C 4B20 A0BC            000BC 12368  1 1695.                SH    SR,FSBNANSP             Î
 002520 1D02                       12369  1 1696.                DR    R0,SR                   Î BLOCKS REQUIRED
 002522 1200/4780 706A       0252C 12370  1 1697.                IF    (R0,NZ),'INCR R1'       Î Î
 002528 5E10 7A1A            02EDC 12387  1          +
 00252C 5A10 B0F0            00A48 12392  1 1698.                A     R1,CATMNFRE             Î Î + MIN FREE
 002530 5A10 7A1E            02EE0 12393  1 1699.                A     R1,=A(4)                Î Î + CHK + DWRT
 002534 5910 A048            00048 12394  1 1700.                IF    (R1,LE,FSBCATBC),EXIT   LOOKS LIKE IT WILL FIT
 002538 47C0 7094            02556 12408  1          +
 00253C 4110 7BA3            03065 12414  1 1701.                VSEG  '(004) CATALOG file too small, Re-Build bypassed'
 002540 4100 002F            0002F 12418  1          +
 002544 5890 7A16/0D99       02ED8 12421  1          +
 00254A 4D90 612C            00148 12423  1 1702.                LCALL WRTLN                   PRINT ERROR MESSAGE
 00254E 920C B000      00958       12425  1 1703.                MVI   RETCOD,12               SET RETURN CODE
 002552 47F0 7424            028E6 12426  1 1704.                B     RBLDEXIT                AND RETURN
 002556                            12427    1705.              END   ,                       OF STATS JUST DONE
1VBLD     (VBLD21) (09:45) (22MAR04) Rebuild the CATALOG                                                                    Page   89
0Current Usings:  (DSKBLK,R2) (RQBL,R5) (*,R6) (*,R7) (FSB,R10) (DATASECT,R11)
0Loc    Object Code    Addr1 Addr2  Stmt Lv Lineno    Source Statement           (Hibal 5, Asmedit 3.3)  HLASM R4.0  2004/03/22 09.45
+___    ______ ____    _____ _____  ____ __ ______    ______ _________
0002556 5840 B584            00EDC 12431    1706.              L     QR,IOAREA               EXTENDED RPB ADDR
 USING  IOINFO,R4                  12432    1707.              WITH  (IOINFO,QR),BEGIN       FORMAT HEADER
 00255A                            12446  1 1708.                CLEAR IOHDR                   CLEAR HEADER
 00255A D74F 4068 4068 00068 00068 12452  1          +
 002560 D201 406E B58A 0006E 00EE2 12453  1 1709.                MVC   IOHDR+6(2),BLOCKLEN+2   = AND PUT IN BLK LEN
 DROP   IOINFO,R4                  12454    1710.              END   ,                       OF FORMAT HEADER
                                   12462    1711.     *               Initialize and write Checkpoint block
 002566 5840 A060            00060 12463    1712.              L     QR,FSBCHKA              CHKPNT ADDR
 USING  CHKPNT,R4                  12464    1713.              WITH  (CHKPNT,QR),BEGIN       Î
 00256A 18E4/58F0 B588       00EE0 12478  1 1714.                ZOT   CHKPNT,L:BLOCKLEN       CLEAR CHECKPOINT
 002570 1B11/0EE0                  12491  1          +
 002574 D201 4008 7AC2 00008 02F84 12493  1 1715.                MVC   CHKDWRT,=Y(1)           1ST DBL WRITE BLK
 00257A 5810 A048            00048 12494  1 1716.                L     R1,FSBCATBC             NUM OF CAT BLKS
 00257E 4B10 7AC4            02F86 12495  1 1717.                SH    R1,=Y(CFSBDBLK+1)       Î -(CHKPNT+DBL)
 002582 4010 400E            0000E 12496  1 1718.                STH   R1,CHKFBNO              Î
 002586                            12497  1 1719.                MVC   CHKROOTB(PL),=&L.AL1(NIL)        NIL ROOT BLK AND OFFSET
 002586 D203 400A 7A22 0000A 02EE4        1          +
 00258C                            12498  1 1720.                MVC   CHKNXDB(BL),=&L.AL1(NIL)         Î AND NEXT DATA_BLOCK
 00258C D201 4012 7A22 00012 02EE4        1          +
 002592 D201 4010 7AC4 00010 02F86 12499  1 1721.                MVC   CHKFREB,=Y(CFSBDBLK+1)  1ST FREE BLK (REL)
 DROP   CHKPNT,R4                  12500    1722.              END   ,                       OF CHKPNT ADDR
 002598 5020 500C            0000C 12508    1723.              ST    SR,RQBLR14              WRITE CHECKPOINT (BUF ADDR)
 00259C 1B11                       12509    1724.              CLEAR R1                      Î CAT BLK 0
 00259E 5890 7A26/0D99       02EE8 12513    1725.              ACALL CATWRIT                 Î
                                   12517    1726.     *               Link blocks in free chain
 0025A4 5840 A048            00048 12518    1727.              L     QR,FSBCATBC             NUM OF BLOCKS TO LINK
 0025A8 4B40 7AC4            02F86 12519    1728.              SH    QR,=Y(CFSBDBLK+1)       Î - (CHECKPOINT + DBL WRITE)
 0025AC 4830 7AC4            02F86 12520    1729.              LH    TR,=Y(CFSBDBLK+1)       FIRST OF LINKED BLOCKS
 0025B0 5820 A070            00070 12521    1730.              L     DSK,FSBBUF1             CLEAR BUFFER SPACE
 0025B4 5020 500C            0000C 12522    1731.              ST    DSK,RQBLR14             Î
 0025B8 18E2/58F0 B588       00EE0 12523    1732.              ZOT   (DSK),L:BLOCKLEN        =
 0025BE 1B11/0EE0                  12534             +
 0025C2 1244/47D0 7148       0260A 12536    1733.              WHILE (QR,POS),BEGIN          STILL MORE TO LINK
 0025C8 5820 500C            0000C 12552  1 1734.                L     DSK,RQBLR14             BUFFER ADDRESS
 0025CC 48E0 A0B0            000B0 12553  1 1735.                LH    R14,FSBDTAGX            END TAG ADDRESS
 0025D0 41EE 2000            00000 12554  1 1736.                LA    R14,DSKBLK(R14)         Î
 0025D4 B205 E000      00000       12555  1 1737.                STCK  @R14                    Î
 0025D8 1813                       12556  1 1738.                LR    R1,TR                   BLOCK #
 0025DA 4010 E006            00006 12557  1 1739.                STH   R1,@R14+6               Î INIT BLOCK
 0025DE D203 2000 E004 00000 00004 12558  1 1740.                MVC   DSKTAG(4),@R14+4        Î REPLICATE TAG (BLK # INCL)
 0025E4 5E30 7A1A            02EDC 12559  1 1741.                INCR  TR                      Î LINK TO NEXT
 0025E8 5930 A048            00048 12562  1 1742.                IF    (TR,GE,FSBCATBC),'L R0,=&L.AL1(NIL) '
 0025EC 4750 7132            025F4 12574  1          +
 0025F0 5800 7A22            02EE4 12580  1          +
 0025F4 7136           025F4 025EE 12585  1 1743.                ELSE  'LR R0,TR'
 0025F4 47F0 7138/1803       025FA 12590  1          +
 0025FA 4000 200C            0000C 12602  1 1744.                STH   R0,DSKBLINK             Î (LINK)
 0025FE 5890 7A26/0D99       02EE8 12603  1 1745.                ACALL CATWRIT                 WRIT BLK (R1=#/RQBLR14=ADDR)
 002604 0640                       12607  1 1746.                DECR  QR                      ONE LESS TO LINK
 002606 47F0 7100            025C2 12609    1747.              END   ,                       OF STILL MORE TO LINK
                                   12614    1748.     *               Create new Catalog from FILS data set
 00260A 5810 7A22            02EE4 12615    1749.              L     R1,=&L.AL1(NIL)         SET ALL BUFFERS TO NIL
 00260E 4120 0008            00008 12616    1750.              LA    R2,CFSBPL               Î SLOT LENGTH
 002612 5830 A05C            0005C 12617    1751.              L     R3,FSBBLKTOP            Î UPPER LIMIT
1VBLD     (VBLD21) (09:45) (22MAR04) Rebuild the CATALOG                                                                    Page   90
0Current Usings:  (DSKBLK,R2) (RQBL,R5) (*,R6) (*,R7) (FSB,R10) (DATASECT,R11)
0Loc    Object Code    Addr1 Addr2  Stmt Lv Lineno    Source Statement           (Hibal 5, Asmedit 3.3)  HLASM R4.0  2004/03/22 09.45
+___    ______ ____    _____ _____  ____ __ ______    ______ _________
0002616 4140 A064            00064 12618    1752.              LA    R4,FSBROOTB             Î START ADDR
 00261A 5010 4000            00000 12619    1753.     INIRBLD  ST    R1,@R4                  Î NILL THIS BUFFER
 00261E 8742 7158            0261A 12620    1754.              BXLE  R4,R2,INIRBLD           Î DO ALL OF THEM
 002622 5840 B070            009C8 12621    1755.              L     QR,FILBUF               INPUT BUFFER ADDRESS
 002626 4110 B790/1804       010E8 12622    1756.              GET   FILS,(QR)               Î
 00262C 1FFF/BFF7 1031       00031 12626             +
 002632 05EF                       12628             +
 002634 4140 4004            00004 12629    1757.              LA    QR,@QR+4                Î BYPASS RDW
 USING  NXRYGR,R4                  12630    1758.              USING NXRYGR,QR               NXRYGR ADDR
 002638                            12639    1759.              WHILE ('CLC NXGNAME(L"NXGNAME+1),NULLACCT',NE),BEGIN
 002638 D506 4002 B006 00002 0095E 12648             +
 00263E 4780 73B2            02874 12649             +
                                   12654  1 1760.     *                 NXGCODE determines if the current entry is an
                                   12655  1 1761.     *               account, and since it immediately follows
                                   12656  1 1762.     *               NXGNAME, if both NXGCODE and NXGNAME are equal
                                   12657  1 1763.     *               to the end account, then this is the last entry.
 002642 D500 4008 7BD2 00008 03094 12658  1 1764.                CLC   NXGCODE,=X'FF'
 DROP   NXRYGR,R4                  12659  1 1765.                DROP  QR                      NXRYGR ADDR
 002648 4770 7242            02704 12666  1 1766.                IF    EQ,BEGIN                ACCOUNT ENTRY
 USING  NXRYGR,R4                  12677  2 1767.                  WITH  (NXRYGR,QR)
 00264C 4110 4002            00002 12690  2 1768.                  LA    R1,NXGNAME              NAME
 002650 4100 0006            00006 12691  2 1769.                  LA    R0,CNTAMXSZ+1           LOC/LEN OF ACC NAME (R1,R0)
 002654 9240 505C      0005C       12692  2 1770.                  TOCAT INS
 002658 D22A 505D 505C 0005D 0005C 12695  2          +
 00265E 1840/0640                  12696  2          +
 002662 4440 7C88            0314A 12701  2          +
 00314A D200 505C 1000 0005C 00000 12708  2          +
 002666 4100 0000            00000 12716  2          +
 00266A 50D0 5020            00020 12718  2          +
 00266E 41D0 5098            00098 12719  2          +
 002672 5830 7A2A            02EEC 12720  2          +
 002676 4120 0002/0D93       00002 12721  2          +
 00267C 58D0 5020            00020 12723  2          +
 002680 12FF/4780 71D2       02694 12724  2 1771.                  IF    (R15,NZ),BEGIN          NOT NORMAL FINISH
 002686 5890 7A2E/0D99       02EF0 12738  3 1772.                    ACALL DIRCODE
 00268C 4770 73B2            02874 12742  3 1773.                    IF    NZ,RBUILDX              TERMINATING ERROR
 002690 47F0 7398            0285A 12756  3 1774.                    B     RBUICONT                CONTINUE WITH INSERTS
 002694                            12757  2 1775.                  END   ,                       OF NOT NORMAL FINISH
 002694 5840 B070            009C8 12761  2 1776.                  L     QR,FILBUF               OLD ENTRY LOC
 002698 4140 4004            00004 12762  2 1777.                  LA    QR,4(,QR)               Î BYPASS RDW
 USING  NTRY,R1                    12763  2 1778.                  WITH  (NTRY,R1),BEGIN         NEW ENTRY ADDR
 00269C D201 100A 4002 0000A 00002 12777  3 1779.                    MVC   NTGNAME(2),NXGNAME      PUT IN ACC NAME
 0026A2 D202 100C 4005 0000C 00005 12778  3 1780.                    MVC   NTGNAME+2(3),NXGNAME+3  Î
 0026A8 D202 100F 4009 0000F 00009 12779  3 1781.                    MVC   NTGMXSP,NXGMXSP         MAX SPACE
 0026AE D202 1012 400C 00012 0000C 12780  3 1782.                    MVC   NTGUSSP,NXGUSSP         USED SPACE
 0026B4 D200 1019 400F 00019 0000F 12781  3 1783.                    MVC   NTGFLG,NXGFLG           FLAGS
 0026BA 48F0 4000            00000 12782  3 1784.                    LH    R15,NXGBYTS             R15 = OLD PERMIT LEN
 0026BE 41E0 0010            00010 12783  3 1785.                    LA    R14,L'NXRYGR            Î
 0026C2 1BFE                       12784  3 1786.                    SR    R15,R14                 Î
 0026C4 41E0 4010            00010 12785  3 1787.                    LA    R14,NXGMEMBR            R14 = OLD PERMIT LOC
 0026C8 4120 101A            0001A 12786  3 1788.                    LA    SR,NTGMEMBR             NEW PERMIT LOC
 0026CC 183F                       12787  3 1789.                    LR    TR,R15                  NEW LEN = OLD LEN
 0026CE 0E2E                       12788  3 1790.                    MVCL  SR,R14                  MOVE IN PERMITS
 0026D0 48E0 4000            00000 12789  3 1791.                    LH    R14,NXGBYTS
1VBLD     (VBLD21) (09:45) (22MAR04) Rebuild the CATALOG                                                                    Page   91
0Current Usings:  (NTRY,R1) (DSKBLK,R2) (NXRYGR,R4) (RQBL,R5) (*,R6) (*,R7) (FSB,R10) (DATASECT,R11)
0Loc    Object Code    Addr1 Addr2  Stmt Lv Lineno    Source Statement           (Hibal 5, Asmedit 3.3)  HLASM R4.0  2004/03/22 09.45
+___    ______ ____    _____ _____  ____ __ ______    ______ _________
00026D4 410E 000A            0000A 12790  3 1792.                    LA    R0,L'NTRYGR-L'NXRYGR(R14)
 DROP   NTRY,R1                    12791  2 1793.                  END   ,                       OF NEW ENTRY ADDR
 0026D8 1841/50D0 5020       00020 12799  2 1794.                  TOCAT RET=YES
 0026DE 41D0 5098            00098 12804  2          +
 0026E2 5830 7A2A            02EEC 12805  2          +
 0026E6 4120 000C/0D93       0000C 12806  2          +
 0026EC 58D0 5020            00020 12808  2          +
 0026F0 12FF/4780 7242       02704 12809  2 1795.                  IF    (R15,NZ),BEGIN          NOT NORMAL FINISH
 0026F6 5890 7A2E/0D99       02EF0 12823  3 1796.                    ACALL DIRCODE
 0026FC 4770 73B2            02874 12827  3 1797.                    IF    NZ,RBUILDX              TERMINATING ERROR
 002700 47F0 7398            0285A 12841  3 1798.                    B     RBUICONT                CONTINUE WITH INSERTS
 002704                            12842  2 1799.                  END   ,                       OF NOT NORMAL FINISH
 DROP   NXRYGR,R4                  12846  1 1800.                END   ,                       OF ACCOUNT ENTRY
 002704 7246           02704 0264A 12855  1 1801.                ELSE  BEGIN                   FILE ENTRY
 002704 47F0 7398            0285A 12860  1          +
 USING  NXRYFL,R4                  12866  2 1802.                  WITH  (NXRYFL,QR)
 002708 4110 4018            00018 12879  2 1803.                  LA    R1,NXFLNAME             NAME
 00270C 1F22/4320 4017       00017 12880  2 1804.                  LC    SR,NXFLNMSZ        LOC AND LEN OF FILE NAME (R1,SR)
 002712 9240 5030      00030       12887  2 1805.                  MVI   RQBLRNAM,C' '
 002716 D22A 5031 5030 00031 00030 12888  2 1806.                  MVC   RQBLRNAM+1(L'RQBLRNAM-1),RQBLRNAM
 00271C D205 5030 505C 00030 0005C 12889  2 1807.                  MVC   RQBLRNAM(6),RQBLNAME    ADD OLD ACCOUNT NAME
 002722 924B 5036      00036       12890  2 1808.                  MVI   RQBLRNAM+6,C'.'         Î SEPARATING DOT
 002726 4420 7C8E            03150 12891  2 1809.                  EX    SR,'MVC RQBLRNAM+7(0),@R1 '      ADD FILE NAME
 003150 D200 5037 1000 00037 00000 12899  2          +
 00272A 4110 5030            00030 12907  2 1810.                  LA    R1,RQBLRNAM             LOC/LEN = R1/R0
 00272E 4102 0008            00008 12908  2 1811.                  LA    R0,CNTAMXSZ+3(SR)       Î 2 DOTS + 1 = REAL LEN
 002732 9240 505C      0005C       12909  2 1812.                  TOCAT INS,FILE=YES
 002736 D22A 505D 505C 0005D 0005C 12912  2          +
 00273C 1840/0640                  12913  2          +
 002740 4440 7C94            03156 12918  2          +
 003156 D200 505C 1000 0005C 00000 12925  2          +
 002744 4100 0004            00004 12933  2          +
 002748 50D0 5020            00020 12935  2          +
 00274C 41D0 5098            00098 12936  2          +
 002750 5830 7A2A            02EEC 12937  2          +
 002754 4120 0002/0D93       00002 12938  2          +
 00275A 58D0 5020            00020 12940  2          +
 00275E 12FF/4780 72B0       02772 12941  2 1813.                  IF    (R15,NZ),BEGIN          NOT NORMAL FINISH
 002764 5890 7A2E/0D99       02EF0 12955  3 1814.                    ACALL DIRCODE
 00276A 4770 73B2            02874 12959  3 1815.                    IF    NZ,RBUILDX              TERMINATING ERROR
 00276E 47F0 7398            0285A 12973  3 1816.                    B     RBUICONT                CONTINUE WITH INSERTS
 002772                            12974  2 1817.                  END   ,                       OF NOT NORMAL FINISH
 002772 5840 B070            009C8 12978  2 1818.                  L     QR,FILBUF               OLD ENTRY LOC
 002776 4140 4004            00004 12979  2 1819.                  LA    QR,4(,QR)               Î BYPASS RDW
 USING  NTRY,R1                    12980  2 1820.                  WITH  (NTRY,R1),BEGIN         NEW ENTRY ADDR
 00277A D202 100A 4002 0000A 00002 12994  3 1821.                    MVC   NTFLOC,NXFLOC           IXR LOCATION
 002780 D202 100D 4005 0000D 00005 12995  3 1822.                    MVC   NTFCNT,NXFCNT           NON IXR BLK CNT
 002786 D200 1010 4008 00010 00008 12996  3 1823.                    MVC   NTFCODE,NXFCODE         FILE FLAGS
 00278C D200 1011 4009 00011 00009 12997  3 1824.                    MVC   NTFFLGP,NXFFLGP         PUBLIC PERMITS
 002792 D200 1012 400A 00012 0000A 12998  3 1825.                    MVC   NTFFLGO,NXFFLGO         OWNER PERMITS
 002798 9140 B003      0095B       12999  3 1826.                    IF    CONVENTS,BEGIN          CONVERT ENTRYS
 00279C 47E0 72FE            027C0 13009  3          +
 0027A0 9500 400B      0000B       13014  4 1827.                      IF    ('CLI NXFCRDT,X"00"',EQ),BEGIN   PACKED DECIMAL
 0027A4 4770 72F4            027B6 13022  4          +
1VBLD     (VBLD21) (09:45) (22MAR04) Rebuild the CATALOG                                                                    Page   92
0Current Usings:  (NTRY,R1) (DSKBLK,R2) (NXRYFL,R4) (RQBL,R5) (*,R6) (*,R7) (FSB,R10) (DATASECT,R11)
0Loc    Object Code    Addr1 Addr2  Stmt Lv Lineno    Source Statement           (Hibal 5, Asmedit 3.3)  HLASM R4.0  2004/03/22 09.45
+___    ______ ____    _____ _____  ____ __ ______    ______ _________
00027A8 41F0 400B            0000B 13027  5 1828.                        LA    R15,NXFCRDT             DATE TO CONVERT
 0027AC 5890 7A32/0D99       02EF4 13028  5 1829.                        ACALL CONVDATE                CONVERT TO TOD FORM
 0027B2 BE0F 1013            00013 13032  5 1830.                        ST4   R0,NTFCRDT              Î
 0027B6 72F8           027B6 027A6 13034  4 1831.                      END   ELSE,BEGIN              NOT PACKED
 0027B6 47F0 72FE            027C0 13043  4          +
 0027BA D203 1013 400B 00013 0000B 13049  5 1832.                        MVC   NTFCRDT,NXFCRDT         CREATION DATE
 0027C0                            13050  4 1833.                      END   ,                       OF NOT PACKED
 0027C0 7302           027C0 0279E 13054  3 1834.                    END   ELSE,BEGIN              DON'T CONVERT ENTRYS
 0027C0 47F0 7308            027CA 13063  3          +
 0027C4 D203 1013 400B 00013 0000B 13069  4 1835.                      MVC   NTFCRDT,NXFCRDT         CREATION DATE
 0027CA                            13070  3 1836.                    END   ,                       OF DON'T CONVERTY ENTRYS
 0027CA 9140 B003      0095B       13074  3 1837.                    IF    CONVENTS,BEGIN          CONVERT ENTRYS
 0027CE 47E0 7330            027F2 13084  3          +
 0027D2 9500 400F      0000F       13089  4 1838.                      IF    ('CLI NXFLSDT,X"00"',EQ),BEGIN   PACKED DECIMAL
 0027D6 4770 7326            027E8 13097  4          +
 0027DA 41F0 400F            0000F 13102  5 1839.                        LA    R15,NXFLSDT             DATE TO CONVERT
 0027DE 5890 7A32/0D99       02EF4 13103  5 1840.                        ACALL CONVDATE                CONVERT TO TOD FORM
 0027E4 BE0F 1017            00017 13107  5 1841.                        ST4   R0,NTFLSDT              Î
 0027E8 732A           027E8 027D8 13109  4 1842.                      END   ELSE,BEGIN              NOT PACKED
 0027E8 47F0 7330            027F2 13118  4          +
 0027EC D203 1017 400F 00017 0000F 13124  5 1843.                        MVC   NTFLSDT,NXFLSDT         LAST ACCESS DATE
 0027F2                            13125  4 1844.                      END   ,                       OF NOT PACKED
 0027F2 7334           027F2 027D0 13129  3 1845.                    END   ELSE,BEGIN              DON'T CONVERT ENTRYS
 0027F2 47F0 733A            027FC 13138  3          +
 0027F6 D203 1017 400F 00017 0000F 13144  4 1846.                      MVC   NTFLSDT,NXFLSDT         LAST ACCESS DATE
 0027FC                            13145  3 1847.                    END   ,                       OF DON'T CONVERTY ENTRYS
 0027FC D203 101B 4013 0001B 00013 13149  3 1848.                    MVC   NTFUINFO,NXFUINFO       USER INFO (CONTROL 14)
 002802 48F0 4000            00000 13150  3 1849.                    LH    R15,NXFBYTS             R15 = OLD PERMIT LEN
 002806 1FEE/43E0 4017       00017 13151  3 1850.                    LC    R14,NXFLNMSZ            Î NAME LEN
 00280C 41EE 0019            00019 13158  3 1851.                    LA    R14,L'NXRYFL+1(R14)     Î + FIXED + 1 = NON PERMIT
 002810 1BFE                       13159  3 1852.                    SR    R15,R14                 Î
 002812 4120 0008            00008 13160  3 1853.                    LA    SR,L'NTRYFL-L'NXRYFL    NEW PERMIT LOC
 002816 4122 1000            00000 13161  3 1854.                    LA    SR,NTRYFL(SR)           Î
 00281A 4122 E000            00000 13162  3 1855.                    LA    SR,@R14(SR)             Î
 00281E 41EE 4000            00000 13163  3 1856.                    LA    R14,NXRYFL(R14)         R14 = OLD PERMIT LOC
 002822 183F                       13164  3 1857.                    LR    TR,R15                  NEW LEN = OLD LEN
 002824 0E2E                       13165  3 1858.                    MVCL  SR,R14                  MOVE IN PERMITS
 002826 48E0 4000            00000 13166  3 1859.                    LH    R14,NXFBYTS             ENTRY LEN
 00282A 410E 0008            00008 13167  3 1860.                    LA    R0,L'NTRYFL-L'NXRYFL(R14)
 DROP   NTRY,R1                    13168  2 1861.                  END   ,                       OF NEW ENTRY ADDR
 00282E 1841/50D0 5020       00020 13176  2 1862.                  TOCAT RET=YES
 002834 41D0 5098            00098 13181  2          +
 002838 5830 7A2A            02EEC 13182  2          +
 00283C 4120 000C/0D93       0000C 13183  2          +
 002842 58D0 5020            00020 13185  2          +
 002846 12FF/4780 7398       0285A 13186  2 1863.                  IF    (R15,NZ),BEGIN          NOT NORMAL FINISH
 00284C 5890 7A2E/0D99       02EF0 13200  3 1864.                    ACALL DIRCODE
 002852 4770 73B2            02874 13204  3 1865.                    IF    NZ,RBUILDX              TERMINATING ERROR
 002856 47F0 7398            0285A 13218  3 1866.                    B     RBUICONT                CONTINUE WITH INSERTS
 00285A                            13219  2 1867.                  END   ,                       OF NOT NORMAL FINISH
 DROP   NXRYFL,R4                  13223  1 1868.                END   ,                       OF FILE ENTRY
 00285A                            13232  1 1869.     RBUICONT   LABEL ,
 00285A 5840 B070            009C8 13234  1 1870.                L     QR,FILBUF               GET NEXT ENTRY
 00285E 4110 B790/1804       010E8 13235  1 1871.                GET   FILS,(QR)               Î
1VBLD     (VBLD21) (09:45) (22MAR04) Rebuild the CATALOG                                                                    Page   93
0Current Usings:  (DSKBLK,R2) (RQBL,R5) (*,R6) (*,R7) (FSB,R10) (DATASECT,R11)
0Loc    Object Code    Addr1 Addr2  Stmt Lv Lineno    Source Statement           (Hibal 5, Asmedit 3.3)  HLASM R4.0  2004/03/22 09.45
+___    ______ ____    _____ _____  ____ __ ______    ______ _________
0002864 1FFF/BFF7 1031       00031 13239  1          +
 00286A 05EF                       13241  1          +
 00286C 4140 4004            00004 13242  1 1872.                LA    QR,@QR+4                Î BYPASS RDW
 002870 47F0 7176            02638 13243    1873.              END   ,                       OF WHILE NOT @ END
-
 002874                            13249    1875.     RBUILDX  LABEL ,
 002874 4510 73BA/80         0287C 13251    1876.              CLOSE (FILS,)                 CLOSE FILES
 002879 0010E8/0A14                13255             +
                                   13257    1877.              PRINT NOGEN                   SUPPRESS MACRO EXPANSION
 00287E 4110 7BD3            03095 13259    1878.              VSEG  '            Catalog rebuilt, '
 00288C 58F0 A060            00060 13268    1879.              L     R15,FSBCHKA             NUM OF FREE BLOCKS (CHKPNT)
 USING  CHKPNT,R15                 13269    1880.              WITH (CHKPNT,R15),'LH R15,CHKFBNO '
 DROP   CHKPNT,R15
 002894 50F0 B038            00990 13293    1881.              ST    R15,FDFBNO              Î
 002898 1B00                       13294    1882.              SEGDC 0,(15)                  Î
 0028AA 4110 7A3A            02EFC 13333    1883.              VSEG  ' free blocks'
 0028B8 D503 B038 B0F0 00990 00A48 13342    1884.              IF    (FDFBNO,LT,CATMNFRE),BEGIN       NOT ENOUGH ROOM
 0028C2 4110 7BF0            030B2 13360  1 1885.                VSEG  ' - REBUILD with larger file needed.'
                                   13369    1886.              END   ELSE,BEGIN              ENOUGH ROOM
 0028D4 4110 7C13            030D5 13384  1 1887.                VSEG  '.'                     BE THOUROUGH
                                   13393    1888.              END   ,                       OF ENOUGH ROOM
 0028E2 4D90 612C            00148 13397    1889.              LCALL WRTLN                   OUTPUT BUFFER
                                   13399    1890.              PRINT GEN
 0028E6 18D8/9829 D000       00000 13401    1891.     RBLDEXIT VEXIT SR,RAR
 0028EC 07F9                       13405             +
1VBLD     (VBLD21) (09:45) (22MAR04) Convert Date to TOD form                                                               Page   94
0Current Usings:  (DSKBLK,R2) (RQBL,R5) (*,R6) (*,R7) (FSB,R10) (DATASECT,R11)
0Loc    Object Code    Addr1 Addr2  Stmt Lv Lineno    Source Statement           (Hibal 5, Asmedit 3.3)  HLASM R4.0  2004/03/22 09.45
+___    ______ ____    _____ _____  ____ __ ______    ______ _________
00028EE 9019 D000/188D       00000 13407    1893.     CONVDATE VENTER R1,RAR,*,LOCAL
 0028F4 41D0 D024/0D70       00024 13411             +
 0028FA 5830 F000            00000 13429    1894.              L     TR,@R15                 CONVERT TO BINARY
 DROP   *,R7
 USING  *,R7
 0028FE 8B30 0004            00004 13430    1895.              SLA   TR,4                    PUT IN SIGN NIBBLE
 002902 5630 760E            02F08 13431    1896.              O     TR,=X'0000000C'         Î POSITIVE
 002906                            13432    1897.              CLEAR (RQBLWORK,8)            Î
 002906 D707 5088 5088 00088 00088 13438             +
 00290C BE3F 508C            0008C 13439    1898.              ST4   TR,RQBLWORK+4           Î
 002910 4130 5088            00088 13441    1899.              LA    TR,RQBLWORK             SCAN OFF YEAR IN TR
 002914 4F30 3000            00000 13442    1900.              CVB   TR,@TR                  Î
 002918 1B22                       13443    1901.              CLEAR SR                      Î
 00291A 5D20 7612            02F0C 13447    1902.              D     SR,=A(10000)            Î
 00291E 18F3                       13448    1903.              LR    R15,TR                  NUMBER OF DAYS IN YEARS
 002920 4CF0 768E            02F88 13449    1904.              MH    R15,=Y(365)             Î ALL BUT LEAP DAYS
 002924 1B22                       13450    1905.              CLEAR SR                      Î
 002926 5D20 75E6            02EE0 13454    1906.              D     SR,=A(4)                Î
 00292A 18E2                       13455    1907.              LR    R14,SR                  Î (R14 = 0 IF LEAP YEAR)
 00292C 12EE/4770 703A       02934 13456    1908.              IF    (R14,ZERO),'DECR TR '   Î
 002932 0630                       13472             +
 002934 1AF3                       13477    1909.              AR    R15,TR                  Î PLUS LEAP YEARS
 002936 4130 5088            00088 13478    1910.              LA    TR,RQBLWORK             SCAN OFF DAY IN SR
 00293A 4F30 3000            00000 13479    1911.              CVB   TR,@TR                  Î
 00293E 1B22                       13480    1912.              CLEAR SR                      Î
 002940 5D20 7616            02F10 13484    1913.              D     SR,=A(100)              Î
 002944 1AF2                       13485    1914.              AR    R15,SR                  TOTAL DAYS
 002946 1B22                       13486    1915.              CLEAR SR                      SCAN OFF MONTH IN SR
 002948 5D20 7616            02F10 13490    1916.              D     SR,=A(100)              Î
 00294C 5920 761A            02F14 13491    1917.              IF    ((SR,GT,2),AND,(R14,ZERO)),'INCR R15 '   LEAP DAY
 002950 47D0 7064/12EE       0295E 13505             +
 002956 4770 7064            0295E 13516             +
 00295A 5EF0 75E2            02EDC 13524             +
 00295E 0620                       13529    1918.              DECR  SR                      Î RANGE 0..11
 002960 1832                       13531    1919.              LR    TR,SR                   Î LOAD MONTH FUDGE
 002962 8B30 0001            00001 13532    1920.              SLA   TR,1                    Î (HALFWORD)
 002966 4833 B134            00A8C 13533    1921.              LH    TR,MONFUDGE(TR)         Î
 00296A 4C20 7690            02F8A 13534    1922.              MH    SR,=Y(30)               Î 30 DAY/MO
 00296E 1A23                       13535    1923.              AR    SR,TR                   Î
 002970 1AF2                       13536    1924.              AR    R15,SR                  Î TOTAL # DAYS
 002972 06F0                       13537    1925.              DECR  R15                     Î 00:00:00 OF THAT DAY
 002974 5CE0 761E            02F18 13539    1926.              M     R14,=A(10546875)        Î (TIMER UNITS/DAY)/2Î25
 002978 8DE0 0019            00019 13540    1927.              SLDL  R14,25                  THIS IS IT BUCKO!
 00297C 180E                       13541    1928.              LR    R0,R14                  RETURN IN R0
 00297E 5E00 75E2            02EDC 13542    1929.              INCR  R0                      Î ADD 1.048576 SECS
 002982 18D8/9819 D000       00000 13545    1930.              VEXIT R1,RAR
 002988 07F9                       13549             +
-DROP   RQBL,R5                    13551    1932.              DROP  RQBR
                                   13558    1933.     *        DROP  CTR
 DROP   FSB,R10                    13559    1934.              DROP  FSBR
1VBLD     (VBLD21) (09:45) (22MAR04) Directory error routines                                                               Page   95
0Current Usings:  (DSKBLK,R2) (*,R6) (*,R7) (DATASECT,R11)
0Loc    Object Code    Addr1 Addr2  Stmt Lv Lineno    Source Statement           (Hibal 5, Asmedit 3.3)  HLASM R4.0  2004/03/22 09.45
+___    ______ ____    _____ _____  ____ __ ______    ______ _________
0USING  RQB,R5                     13567    1936.              USING RQB,RQBR
 USING  FSB,R10                    13576    1937.              USING FSB,FSBR
 00298A 9079 D000/188D       00000 13585    1938.     DIRCODE  VENTER BR,RAR,*,LOCAL
 002990 41D0 D00C/0D70       0000C 13589             +
 002996 50F0 B110            00A68 13607    1939.              ST    R15,VCATRET
 DROP   *,R7
 USING  *,R7
 00299A 50E0 B10C            00A64 13608    1940.              ST    R14,VCATPSW
                                   13609    1941.              PRINT NOGEN                   NO MACRO EXPANSION
 00299E 4110 505C            0005C 13611    1942.              VSEG  RQBLNAME,L'RQBLNAME     WRITE CURRENT NAME
 0029AC 4110 7740            030D6 13632    1943.              VWRT  '|'                     Î (DELIMITER)
 0029BE 4110 7512            02EA8 13645    1944.              VSEG  'Module: '              ERROR CODE - MODULE
 0029CC 58F0 B110            00A68 13654    1945.              L     R15,VCATRET             Î
 0029D0 88F0 0008            00008 13655    1946.              SRL   R15,8                   Î
 0029D4 182F                       13656    1947.              LR    SR,R15                  Î
 0029D6 4100 0004            00004 13657    1948.              BTX   OUTPUT,4,(R15)          Î
 0029E4 5890 7542            02ED8 13680    1949.              VWRT  (R1),(R0)               Î
 0029EE 1222                       13699    1950.              IF    (SR,NZ),DIFMOD          NOT MAIN MODULE
 0029F4 58F0 B110            00A68 13716    1951.              L     R15,VCATRET             ERROR CODE - MAIN MOD
 0029F8 54F0 758A            02F20 13717    1952.              N     R15,=X'000000FF'        Î
 0029FC 59F0 758E            02F24 13718    1953.              IF    (R15,EQ,DIRNFER),BEGIN
 002A04 4110 75F6            02F8C 13735  1 1954.                VWRT  'Leaf not found'
                                   13748    1955.              END   ,
 002A02 7084                       13752    1956.              ELSEIF (R15,EQ,DIRDUPER),BEGIN
 002A22 4110 7604            02F9A 13778  1 1957.                VWRT  'Can''t insert duplicate'
                                   13791    1958.              END   ,
 002A20 70A2                       13795    1959.              ELSEIF (R15,EQ,DIRDELAC),BEGIN
 002A40 4110 7741            030D7 13821  1 1960.                VWRT  'Can''t delete account with files'
                                   13834    1961.              END   ,
 002A3E 70C0                       13838    1962.              ELSEIF (R15,EQ,DIRNTSZ),BEGIN
 002A5E 4110 761A            02FB0 13864  1 1963.                VWRT  'Invalid entry size'
                                   13877    1964.              END   ,
 002A5C 70DE                       13881    1965.              ELSEIF (R15,EQ,DIRMODLN),BEGIN
 002A7C 4110 762C            02FC2 13907  1 1966.                VWRT  'Can''t change entry size w/out indication on search'
                                   13920    1967.              END   ,
 002A7A 70FC                       13924    1968.              ELSEIF (R15,EQ,DIRSTOV),BEGIN
 002A9A 4110 765E            02FF4 13950  1 1969.                VWRT  'Stack overflow'
                                   13963    1970.              END   ,
 002A98 711A                       13967    1971.              ELSEIF (R15,EQ,DIRSTUF),BEGIN
 002AB8 4110 7760            030F6 13993  1 1972.                VWRT  'Stack underflow'
                                   14006    1973.              END   ,
 002AB6 7138                       14010    1974.              ELSEIF (R15,EQ,DIRNMR),BEGIN
 002AD6 4110 776F            03105 14036  1 1975.                VWRT  'No more room in directory'
                                   14049    1976.              END   ,
 002AD4 7156                       14053    1977.              ELSEIF (R15,EQ,DIRTAGER),BEGIN
 002AF4 4110 766C            03002 14079  1 1978.                VWRT  'Block tags don''t match'
                                   14092    1979.              END   ,
 002AF2 7174                       14096    1980.              ELSEIF (R15,EQ,DIRBLKER),BEGIN
 002B12 4110 7682            03018 14122  1 1981.                VWRT  'Block number doesn''t match'
                                   14135    1982.              END   ,
 002B10 7192                       14139    1983.              ELSEIF (R15,EQ,DIRIOS),BEGIN
 002B30 4110 7788            0311E 14165  1 1984.                VWRT  'No more I/O space'
                                   14178    1985.              END   ,
 002B2E 71B0                       14182    1986.              ELSEIF (R15,EQ,DIRIONF),BEGIN
1VBLD     (VBLD21) (09:45) (22MAR04) Directory error routines                                                               Page   96
0Current Usings:  (DSKBLK,R2) (RQB,R5) (*,R6) (*,R7) (FSB,R10) (DATASECT,R11)
0Loc    Object Code    Addr1 Addr2  Stmt Lv Lineno    Source Statement           (Hibal 5, Asmedit 3.3)  HLASM R4.0  2004/03/22 09.45
+___    ______ ____    _____ _____  ____ __ ______    ______ _________
0002B4E 4110 75BE            02F54 14208  1 1987.                VWRT  'I/O buffer not found'
                                   14221    1988.              END   ,
 002B4C 71CE                       14225    1989.              ELSEIF (R15,EQ,DIRNIMP),BEGIN
 002B6C 4110 751A            02EB0 14251  1 1990.                VWRT  'Function not implemented'
                                   14264    1991.              END   ,
 002B6A 71EC                       14268    1992.              ELSE  BEGIN                   ERROR CODE NOT RECOGNIZED
 002B82 4110 7532            02EC8 14279  1 1993.     DIFMOD     VSEG  'Return: '
 002B90 58F0 B110            00A68 14288  1 1994.                L     R15,VCATRET             TAKE OFF MOD NUM
 002B94 54F0 758A            02F20 14289  1 1995.                N     R15,=X'000000FF'        Î
 002B98 4100 0004            00004 14290  1 1996.                BTD   OUTPUT,4,(R15)
 002BA6 5890 7542            02ED8 14313  1 1997.                VWRT  (R1),(R0)
                                   14332    1998.              END   ,                       OF ERROR CODE NOT RECOGNIZED
                                   14336    1999.              PRINT GEN                     MACRO EXPANSION AGAIN
 002BB0 4110 7799            0312F 14338    2000.              VSEG  'R14 = 0'
 002BB4 4100 0007            00007 14342             +
 002BB8 5890 7542/0D99       02ED8 14345             +
 002BBE 58F0 B10C            00A64 14347    2001.              BTX   OUTPUT,8,VCATPSW        ADDRESS
 002BC2 4100 0008            00008 14359             +
 002BC6 4110 B114            00A6C 14366             +
 002BCA 58E0 7586/0DEE       02F1C 14369             +
 002BD0 5890 7542/0D99       02ED8 14371    2002.              VSEG  (R1),(R0)               Î
 002BD6 4110 77A0            03136 14386    2003.              VSEG  ' VCAT+0'               Î VCAT OFFSET
 002BDA 4100 0007            00007 14390             +
 002BDE 5890 7542/0D99       02ED8 14393             +
 002BE4 58F0 B10C            00A64 14395    2004.              L     R15,VCATPSW             Î Î
 002BE8 5BF0 75D6            02F6C 14396    2005.              S     R15,=V(VCAT)            Î Î
 002BEC 1B00/4110 B114       00A6C 14397    2006.              BTX   OUTPUT,0,(R15)          Î Î
 002BF2 58E0 7586/0DEE       02F1C 14415             +
 002BF8 5890 7542/0D99       02ED8 14417    2007.              VWRT  (R1),(R0)               Î
 002BFE 4D90 612C            00148 14435             +
 002C02 41F0 0001            00001 14436    2008.              LA    R15,1              SET TO INDICATE TERMINATING ERROR
 002C06 91FF B112      00A6A       14437    2009.              TM    VCATRET+2,X'FF'    DIFFERENT MODULE = TERMINATING ERROR
 002C0A 4770 728A            02C20 14438    2010.              IF    NZ,TERERROR             Î
 002C0E 5800 B110            00A68 14452    2011.              L     R0,VCATRET              TAKE OFF MOD NUM
 002C12 5400 758A            02F20 14453    2012.              N     R0,=X'000000FF'         Î
 002C16 5900 75AA            02F40 14454    2013.              IF    (R0,GE,DIRNMR),TERERROR TERMINATING ERROR
 002C1A 47A0 728A            02C20 14468             +
 002C1E 1BFF                       14474    2014.              CLEAR R15                     NOT A TERMINATING ERROR
 002C20 18D8/9879 D000       00000 14478    2015.     TERERROR VEXIT BR,RAR,LTR
 002C26 12FF/07F9                  14482             +
-DROP   FSB,R10                    14485    2017.              DROP  FSBR
 DROP   RQB,R5                     14492    2018.              DROP  RQBR
 DROP   DATASECT,R11               14499    2019.              DROP  R11                     DATASECT ADDR
1VBLD     (VBLD21) (09:45) (22MAR04) Read Catalog Block                                                                     Page   97
0Current Usings:  (DSKBLK,R2) (*,R6) (*,R7)
0Loc    Object Code    Addr1 Addr2  Stmt Lv Lineno    Source Statement           (Hibal 5, Asmedit 3.3)  HLASM R4.0  2004/03/22 09.45
+___    ______ ____    _____ _____  ____ __ ______    ______ _________
0                                  14507    2021.     *********************************************************************
                                   14508    2022.     * On Entry:    RQBLR14 = Buffer address of read                     *
                                   14509    2023.     *              R1      = Relative catalog block number              *
                                   14510    2024.     *              RQBR    = Addr to RQBL                               *
                                   14511    2025.     *              FSBR    = Addr to FSB                                *
                                   14512    2026.     *********************************************************************
 002C2A 9079 D000/188D       00000 14513    2027.     CATREAD  VENTER BR,RAR,*,LOCAL
 002C30 41D0 D00C/0D70       0000C 14517             +
 DROP   *,R7                       14535    2028.              WITH  (RQBL,RQBR),BEGIN       RQBL ADDR
 USING  *,R7
 USING  RQBL,R5
 USING  FSB,R10                    14549  1 2029.                WITH  (FSB,FSBR),BEGIN        FSB ADDR
 002C36 5E10 A044            00044 14563  2 2030.                  AL    R1,FSBCATSB             CATALOG BLOCK
 002C3A 5010 5010            00010 14564  2 2031.                  ST    R1,RQBLR1               Î SAVE AS BLOCK NUMBER
 002C3E 4800 A0AC            000AC 14565  2 2032.                  LH    R0,FSBDSZ               BLOCK DATA LENGTH
 002C42 4D90 7018            02C4E 14566  2 2033.                  LCALL SETREAD1
 DROP   FSB,R10                    14568  1 2034.                END   ,                       OF FSB ADDR
 DROP   RQBL,R5                    14576    2035.              END   ,                       OF RQBL ADDR
 002C46 18D8/9879 D000       00000 14584    2036.              VEXIT BR,RAR
 002C4C 07F9                       14588             +
1VBLD     (VBLD21) (09:45) (22MAR04) Read entry point from VCAT                                                             Page   98
0Current Usings:  (DSKBLK,R2) (*,R6) (*,R7)
0Loc    Object Code    Addr1 Addr2  Stmt Lv Lineno    Source Statement           (Hibal 5, Asmedit 3.3)  HLASM R4.0  2004/03/22 09.45
+___    ______ ____    _____ _____  ____ __ ______    ______ _________
0                                  14590    2038.     *********************************************************************
                                   14591    2039.     * On entry:     RQBR = Dummy RQBL address                           *
                                   14592    2040.     *               RQBLR14 = Buffer address of Read                    *
                                   14593    2041.     *               RQBLR1  = ORVYL file system block number            *
                                   14594    2042.     *               R0      = Length of read                            *
                                   14595    2043.     * On exit:      RQBLR14 = Buffer address of Read                    *
                                   14596    2044.     *               RQBLR1  = Absolute ORVYL block number               *
                                   14597    2045.     *               R14 = Buffer address of Read                        *
                                   14598    2046.     *               R1  = Absolute ORVYL block number                   *
                                   14599    2047.     *               RQBR Unchanged                                      *
                                   14600    2048.     *********************************************************************
 USING  RQB,R5                     14601    2049.              USING RQB,RQBR                RQBL ADDR
 002C4E 902C D000/188D       00000 14610    2050.     SETREAD1 VENTER SR,R12,*
 002C54 41D0 D02C/0D70       0002C 14615             +
 002C5A 5860 7316            02F70 14633    2051.              L     BRR,=A(BASE)            VBLD PROGRAM BASE
 DROP   *,R7
 USING  *,R7
 002C5E 58B0 731A            02F74 14634    2052.              L     R11,=A(DATASECT)        ADDR TO WORK AREA
 USING  DATASECT,R11               14635    2053.              WITH  (DATASECT,R11),BEGIN    Î
 002C62 5820 B584            00EDC 14649  1 2054.                L     SR,IOAREA               ADDR TO I/O AREA (IOB +...)
 DROP   DSKBLK,R2                  14650  1 2055.                WITH  (IOINFO,SR),BEGIN       Î
 USING  IOINFO,R2
 002C66 D203 20B8 5010 000B8 00010 14667  2 2056.                  MVC   BITNO,RQBLR1            BLOCK NUMBER
 002C6C D202 2061 500D 00061 0000D 14668  2 2057.                  MVC   CCWR2+1(3),RQBLR14+1    I/O BUFFER ADDRESS
 002C72 947F 200C      0000C       14669  2 2058.                  CLEAR IOWRITE                 Î SET READ FOR VFRD
 002C76                            14676  2 2059.                  CLEAR BLDECB                  ZERO ECB FOR POSTING
 002C76 D703 B57C B57C 00ED4 00ED4 14682  2          +
 002C7C 1812                       14683  2 2060.                  LR    R1,SR                   I/O REQUEST (IOINFO ADDR)
 002C7E 5890 731E/0D99       02F78 14684  2 2061.                  VCALL VFIO                    Î
 002C84 4770 6322            0033E 14688  2 2062.                  IF    NZ,BLKERR               WHOOPS, CAN'T HAVE THIS
 002C88 4100 0001            00001 14702  2 2063.                  WAIT  ECB=BLDECB              WAIT FOR I/O TO COMPLETE
 002C8C 4110 B57C/0A01       00ED4 14707  2          +
 002C92 957F B57C      00ED4       14709  2 2064.                  IF    (BLDECB,NE,X'7F'),IOERR NOR AN I/O ERROR
 002C96 4770 6334            00350 14723  2          +
 002C9A 5830 5004            00004 14729  2 2065.                  L     TR,RQBRPB               ADDR TO DUMMY RPB
 USING  RPBL,R3                    14730  2 2066.                  WITH  (RPBL,TR),BEGIN         Î
 002C9E D24F 3090 2068 00090 00068 14744  3 2067.                    MVC   RPBLIDRD,IOHDR          MOVE IN BLOCK HEADER
 DROP   RPBL,R3                    14745  2 2068.                  END   ,                       OF ADDR TO DUMMY RPB
 DROP   IOINFO,R2                  14753  1 2069.                END   ,                       OF ADDR TO I/O AREA
 USING  DSKBLK,R2
 DROP   DATASECT,R11               14768    2070.              END   ,                       OF ADDR TO WORK AREA
                                   14776    2071.
 002CA4 58E0 500C            0000C 14777    2072.              L     R14,RQBLR14             BUFFER ADDRESS
 002CA8 5810 5010            00010 14778    2073.              L     R1,RQBLR1               ABS ORVYL BLOCK
 002CAC 18D8/982C D000       00000 14779    2074.              VEXIT SR,R12
 002CB2 07F9                       14783             +
-DROP   RQB,R5                     14785    2076.              DROP  RQBR                    RQB ADDR
1VBLD     (VBLD21) (09:45) (22MAR04) Write Catalog Block                                                                    Page   99
0Current Usings:  (DSKBLK,R2) (*,R6) (*,R7)
0Loc    Object Code    Addr1 Addr2  Stmt Lv Lineno    Source Statement           (Hibal 5, Asmedit 3.3)  HLASM R4.0  2004/03/22 09.45
+___    ______ ____    _____ _____  ____ __ ______    ______ _________
0                                  14793    2078.     *********************************************************************
                                   14794    2079.     * On Entry:    RQBLR14 = Buffer address of write                    *
                                   14795    2080.     *              R1      = Relative catalog block number              *
                                   14796    2081.     *              RQBR    = Addr to RQBL                               *
                                   14797    2082.     *              FSBR    = Addr to FSB                                *
                                   14798    2083.     *********************************************************************
 002CB4 9079 D000/188D       00000 14799    2084.     CATWRIT  VENTER BR,RAR,*,LOCAL
 002CBA 41D0 D00C/0D70       0000C 14803             +
 DROP   *,R7                       14821    2085.              WITH  (RQBL,RQBR),BEGIN       RQBL ADDR
 USING  *,R7
 USING  RQBL,R5
 USING  FSB,R10                    14835  1 2086.                WITH  (FSB,FSBR),BEGIN        FSB ADDR
 002CC0 5E10 A044            00044 14849  2 2087.                  AL    R1,FSBCATSB             CATALOG BLOCK
 002CC4 5010 5010            00010 14850  2 2088.                  ST    R1,RQBLR1               Î SAVE AS BLOCK NUMBER
 002CC8 4800 A0AC            000AC 14851  2 2089.                  LH    R0,FSBDSZ               BLOCK DATA LENGTH
 002CCC 41F0 0080            00080 14852  2 2090.                  LA    R15,FBHTCAT             CATALOG BLOCK TYPE
 002CD0 4D90 701C            02CDC 14853  2 2091.                  LCALL SETWRIT1
 DROP   FSB,R10                    14855  1 2092.                END   ,                       OF FSB ADDR
 DROP   RQBL,R5                    14863    2093.              END   ,                       OF RQBL ADDR
 002CD4 18D8/9879 D000       00000 14871    2094.              VEXIT BR,RAR
 002CDA 07F9                       14875             +
1VBLD     (VBLD21) (09:45) (22MAR04) Write entry point from VCAT                                                            Page  100
0Current Usings:  (DSKBLK,R2) (*,R6) (*,R7)
0Loc    Object Code    Addr1 Addr2  Stmt Lv Lineno    Source Statement           (Hibal 5, Asmedit 3.3)  HLASM R4.0  2004/03/22 09.45
+___    ______ ____    _____ _____  ____ __ ______    ______ _________
0                                  14877    2096.     *********************************************************************
                                   14878    2097.     * On entry:     RQBR = Dummy RQBL address                           *
                                   14879    2098.     *               RQBLR14 = Buffer address of Write                   *
                                   14880    2099.     *               RQBLR1  = ORVYL file system block number            *
                                   14881    2100.     *               R15     = Block type                                *
                                   14882    2101.     *               R0      = Length of write                           *
                                   14883    2102.     * On exit:      RQBLR14 = Buffer address of Read                    *
                                   14884    2103.     *               RQBLR1  = Absolute ORVYL block number               *
                                   14885    2104.     *               R14 = Buffer address of Read                        *
                                   14886    2105.     *               R1  = Absolute ORVYL block number                   *
                                   14887    2106.     *               RQBR Unchanged                                      *
                                   14888    2107.     *********************************************************************
 USING  RQB,R5                     14889    2108.              USING RQB,RQBR                RQBL ADDR
 002CDC 902C D000/188D       00000 14898    2109.     SETWRIT1 VENTER SR,R12,*
 002CE2 41D0 D02C/0D70       0002C 14903             +
 002CE8 5860 7288            02F70 14921    2110.              L     BRR,=A(BASE)            VBLD PROGRAM BASE
 DROP   *,R7
 USING  *,R7
 002CEC 58B0 728C            02F74 14922    2111.              L     R11,=A(DATASECT)        ADDR TO WORK AREA
 USING  DATASECT,R11               14923    2112.              WITH  (DATASECT,R11),BEGIN    Î
 002CF0 5820 B584            00EDC 14937  1 2113.                L     SR,IOAREA               ADDR TO I/O AREA (IOB +...)
 DROP   DSKBLK,R2                  14938  1 2114.                WITH  (IOINFO,SR),BEGIN       Î
 USING  IOINFO,R2
 002CF4 D203 20B8 5010 000B8 00010 14955  2 2115.                  MVC   BITNO,RQBLR1            BLOCK NUMBER
 002CFA 41E0 2068            00068 14956  2 2116.                  LA    R14,IOHDR               HEADER
 USING  FBHDR,R14                  14957  2 2117.                  WITH  (FBHDR,R14),BEGIN
 002CFE 42F0 E003            00003 14971  3 2118.                    STC   R15,FBHTYPE             SET CATALOG BLOCK
 002D02 4000 E006            00006 14972  3 2119.                    STH   R0,FBHLEN               TOTAL LENGTH OF BLOCK
 002D06 D202 E000 5011 00000 00011 14973  3 2120.                    MVC   FBHBLOCK(3),RQBLR1+1    SET BLOCK NUMBER
 002D0C B205 B0A0      009F8       14974  3 2121.                    STCK  CLCKNOW                 GET TIME & DATE
 002D10 D203 E008 B0A0 00008 009F8 14975  3 2122.                    MVC   FBHTIME,CLCKNOW         SET TIME WRITTEN
 DROP   FBHDR,R14                  14976  2 2123.                  END   ,
 002D16 D202 2061 500D 00061 0000D 14984  2 2124.                  MVC   CCWR2+1(3),RQBLR14+1    I/O BUFFER ADDRESS
 002D1C 9680 200C      0000C       14985  2 2125.                  SET   IOWRITE                 Î SET WRITE FOR VFRD
 002D20                            14991  2 2126.                  CLEAR BLDECB                  ZERO ECB FOR POSTING
 002D20 D703 B57C B57C 00ED4 00ED4 14997  2          +
 002D26 1812                       14998  2 2127.                  LR    R1,SR                   I/O REQUEST (IOAREA ADDR)
 002D28 5890 7290/0D99       02F78 14999  2 2128.                  VCALL VFIO                    Î
 002D2E 4770 6322            0033E 15003  2 2129.                  IF    NZ,BLKERR               WHOOPS, CAN'T HAVE THIS
 002D32 4100 0001            00001 15017  2 2130.                  WAIT  ECB=BLDECB              WAIT FOR I/O TO COMPLETE
 002D36 4110 B57C/0A01       00ED4 15022  2          +
 002D3C 957F B57C      00ED4       15024  2 2131.                  IF    (BLDECB,NE,X'7F'),IOERR NOR AN I/O ERROR
 002D40 4770 6334            00350 15038  2          +
 DROP   IOINFO,R2                  15044  1 2132.                END   ,                       OF ADDR TO I/O AREA
 USING  DSKBLK,R2
 DROP   DATASECT,R11               15059    2133.              END   ,                       OF ADDR TO WORK AREA
                                   15067    2134.
 002D44 58E0 500C            0000C 15068    2135.              L     R14,RQBLR14             BUFFER ADDR
 002D48 5810 5010            00010 15069    2136.              L     R1,RQBLR1               ABS ORVYL BLOCK
 002D4C 18D8/982C D000       00000 15070    2137.              VEXIT SR,R12
 002D52 07F9                       15074             +
-DROP   RQB,R5                     15076    2139.              DROP  RQBR                    RQB ADDR
1VBLD     (VBLD21) (09:45) (22MAR04) Write entry point from VCAT                                                            Page  101
0Loc    Object Code    Addr1 Addr2  Stmt Lv Lineno    Source Statement           (Hibal 5, Asmedit 3.3)  HLASM R4.0  2004/03/22 09.45
+___    ______ ____    _____ _____  ____ __ ______    ______ _________
0DROP   *,R7                       15083    2140.              DROP  ,
 DROP   *,R6
 DROP   DSKBLK,R2
1VBLD     (VBLD21) (09:45) (22MAR04) VCAT simulations                                                                       Page  102
0Loc    Object Code    Addr1 Addr2  Stmt Lv Lineno    Source Statement           (Hibal 5, Asmedit 3.3)  HLASM R4.0  2004/03/22 09.45
+___    ______ ____    _____ _____  ____ __ ______    ______ _________
0                                  15126    2142.     *********************************************************************
                                   15127    2143.     *                    Dummy VWTO routine                             *
                                   15128    2144.     *********************************************************************
 002D54 9079 D000/188D       00000 15129    2145.     VWTO     VENTER BR,RAR,*
 002D5A 41D0 D00C/0D70       0000C 15134             +
 002D60 5860 7210            02F70 15149    2146.              L     BRR,=A(BASE)
 USING  *,R7
 USING  BASE,R6                    15150    2147.              USING BASE,BRR
 002D64 1000                       15159    2148.              LPR   R0,R0                   ABSOLUTE VALUE OF LENGTH
 002D66 5890 7178/0D99       02ED8 15160    2149.              VWRT  (R1),(R0)               WRITE MESSAGE
 002D6C 4D90 612C            00148 15178             +
 002D70 18D8/9879 D000       00000 15179    2150.              VEXIT BR,RAR
 002D76 07F9                       15183             +
 DROP   *,R7                       15184    2151.              DROP  ,
 DROP   BASE,R6
                                   15223    2152.     *         SPACE 4
                                   15224    2153.     *********************************************************************
                                   15225    2154.     *                   Dummy Get and Free RPBs                         *
                                   15226    2155.     *********************************************************************
                                   15227    2156.     *         ENTRY GETDEVW
                                   15228    2157.     *GETDEVW  BR    RAR                     DUMMY
                                   15229    2158.     *         SPACE 4
                                   15230    2159.     *         ENTRY FREEDEV
                                   15231    2160.     *FREEDEV  BR    RAR                     DUMMY
1VBLD     (VBLD21) (09:45) (22MAR04) VCAT simulations                                                                       Page  103
0Loc    Object Code    Addr1 Addr2  Stmt Lv Lineno    Source Statement           (Hibal 5, Asmedit 3.3)  HLASM R4.0  2004/03/22 09.45
+___    ______ ____    _____ _____  ____ __ ______    ______ _________
0                                  15233    2162.     *********************************************************************
                                   15234    2163.     *                  Dummy Trace routine                              *
                                   15235    2164.     *********************************************************************
                                   15236    2165.              ENTRY VTRACE
 002D78 07F9                       15237    2166.     VTRACE   BR    RAR                     DUMMY
                                   15238    2167.
                                   15239    2168.              ENTRY VKAPUT
 002D7A 0D70                       15240    2169.     VKAPUT   BASE  BR
 USING  *,R7
 002D7C 5860 71F4            02F70 15254    2170.              L     BRR,=A(BASE)
 USING  BASE,R6                    15255    2171.              USING BASE,BRR
 002D80 58B0 71F8            02F74 15264    2172.              L     R11,=A(DATASECT)
 USING  DATASECT,R11               15265    2173.              USING DATASECT,R11
 002D84 0ADE/0106                  15274    2174.              QSNAP 'VKAPUT'
 002D88 4100 72B6            03032 15278             +
 002D8C 0ADE/020100                15279    2175.              QSNAP (R9)
 002D91 900000                     15283             +
 002D94 900F B158            00AB0 15284    2176.              STM   R0,R15,KREGS            Save the Kaput Registers
 002D98 41D0 B590            00EE8 15285    2177.              LA    R13,STACK               Î AND SAVE AREA
 002D9C 4110 72BC            03038 15286    2178.              VSEG  'KAPUT '
 002DA0 4100 0006            00006 15290             +
 002DA4 5890 715C/0D99       02ED8 15293             +
 002DAA 5810 B17C            00AD4 15295    2179.              L     R1,KREGS+RAR*4          Get the address of the name
 002DAE 4100 0008            00008 15296    2180.              VSEG  (R1),8                  Î
 002DB2 5890 715C/0D99       02ED8 15312             +
 002DB8 4110 73C1            0313D 15314    2181.              VSEG  ' '                     Î
 002DBC 4100 0001            00001 15318             +
 002DC0 5890 715C/0D99       02ED8 15321             +
 002DC6 B205 B150      00AA8       15323    2182.              STCK  KTIME                   Time of the kaput
 002DCA 9801 B150            00AA8 15324    2183.              LM    R0,R1,KTIME             TOD CONVERSION
 002DCE 41F0 B114            00A6C 15325    2184.              LA    R15,OUTPUT              Î
 002DD2 58E0 7200/0DEE       02F7C 15326    2185.              XCALL FMTTIME                 Î
 002DD8 5890 715C/0D99       02ED8 15330    2186.              VSEG  (R1),(R0)               Î
 002DDE 4110 73C2            0313E 15345    2187.              VSEG  ' R4VCAT+0'               ADDRESS
 002DE2 4100 0009            00009 15349             +
 002DE6 5890 715C/0D99       02ED8 15352             +
 002DEC 58F0 B17C            00AD4 15354    2188.              L     R15,KREGS+RAR*4         =
 002DF0 5BF0 71F0            02F6C 15355    2189.              S     R15,=V(VCAT)            Î
 002DF4 1B00/4110 B114       00A6C 15356    2190.              BTX   OUTPUT,0,(R15)          Î
 002DFA 58E0 71A0/0DEE       02F1C 15374             +
 002E00 5890 715C/0D99       02ED8 15376    2191.              VSEG  (R1),(R0)               Î
 002E06 4110 73CB            03147 15391    2192.              VSEG  '   '
 002E0A 4100 0003            00003 15395             +
 002E0E 5890 715C/0D99       02ED8 15398             +
 002E14 58F0 B190            00AE8 15400    2193.              BTX   OUTPUT,8,KREGS+14*4     REG 14
 002E18 4100 0008            00008 15412             +
 002E1C 4110 B114            00A6C 15419             +
 002E20 58E0 71A0/0DEE       02F1C 15422             +
 002E26 5890 715C/0D99       02ED8 15424    2194.              VSEG  (R1),(R0)
 002E2C 4110 73C1            0313D 15439    2195.              VSEG  ' '
 002E30 4100 0001            00001 15443             +
 002E34 5890 715C/0D99       02ED8 15446             +
 002E3A 58F0 B194            00AEC 15448    2196.              BTX   OUTPUT,8,KREGS+15*4     REG 15
 002E3E 4100 0008            00008 15460             +
 002E42 4110 B114            00A6C 15467             +
 002E46 58E0 71A0/0DEE       02F1C 15470             +
1VBLD     (VBLD21) (09:45) (22MAR04) VCAT simulations                                                                       Page  104
0Current Usings:  (BASE,R6) (*,R7) (DATASECT,R11)
0Loc    Object Code    Addr1 Addr2  Stmt Lv Lineno    Source Statement           (Hibal 5, Asmedit 3.3)  HLASM R4.0  2004/03/22 09.45
+___    ______ ____    _____ _____  ____ __ ______    ______ _________
0002E4C 5890 715C/0D99       02ED8 15472    2197.              VSEG  (R1),(R0)
 002E52 4110 73C1            0313D 15487    2198.              VSEG  ' '
 002E56 4100 0001            00001 15491             +
 002E5A 5890 715C/0D99       02ED8 15494             +
 002E60 58F0 B158            00AB0 15496    2199.              BTX   OUTPUT,8,KREGS+0*4      REG 0
 002E64 4100 0008            00008 15508             +
 002E68 4110 B114            00A6C 15515             +
 002E6C 58E0 71A0/0DEE       02F1C 15518             +
 002E72 5890 715C/0D99       02ED8 15520    2200.              VSEG  (R1),(R0)
 002E78 4110 73C1            0313D 15535    2201.              VSEG  ' '
 002E7C 4100 0001            00001 15539             +
 002E80 5890 715C/0D99       02ED8 15542             +
 002E86 58F0 B15C            00AB4 15544    2202.              BTX   OUTPUT,8,KREGS+1*4      REG 1
 002E8A 4100 0008            00008 15556             +
 002E8E 4110 B114            00A6C 15563             +
 002E92 58E0 71A0/0DEE       02F1C 15566             +
 002E98 5890 715C/0D99       02ED8 15568    2203.              VSEG  (R1),(R0)
 002E9E 5890 7204            02F80 15583    2204.              L     RAR,=A(EXTPC)           SET RETURN CODE AND QUIT
 002EA2 07F9                       15584    2205.              BR    RAR
 DROP   DATASECT,R11               15585    2206.              DROP  ,
 DROP   *,R7
 DROP   BASE,R6
1VBLD     (VBLD21) (09:45) (22MAR04) VCAT simulations                                                                       Page  105
0Loc    Object Code    Addr1 Addr2  Stmt Lv Lineno    Source Statement           (Hibal 5, Asmedit 3.3)  HLASM R4.0  2004/03/22 09.45
+___    ______ ____    _____ _____  ____ __ ______    ______ _________
0002EA8                            15628    2208.              LTORG ,
 002EA8 D49684A493857A40           15630                             =C'Module: '
 002EB0 C6A49583A3899695           15631                             =C'Function not implemented'
 002EC8 D985A3A499957A40           15632                             =C'Return: '
 002ED0 00000AF4                   15633                             =A(VFSBDSCT)
 002ED4 00000CD4                   15634                             =A(VRQBDSCT)
 002ED8 00000000                   15635                             =V(VSEG)
 002EDC 00000001                   15636                             =A(1)
 002EE0 00000004                   15637                             =A(4)
 002EE4 FFFFFFFF                   15638                             =4AL1(NIL)
 002EE8 00002CB4                   15639                             =A(CATWRIT)
 002EEC 00000000                   15640                             =V(VCATENT)
 002EF0 0000298A                   15641                             =A(DIRCODE)
 002EF4 000028EE                   15642                             =A(CONVDATE)
 002EF8 00000000                   15643                             =V(BTD)
 002EFC 4086998585408293           15644                             =C' free blocks'
 002F08 0000000C                   15645                             =X'0000000C'
 002F0C 00002710                   15646                             =A(10000)
 002F10 00000064                   15647                             =A(100)
 002F14 00000002                   15648                             =A(2)
 002F18 00A0EEBB                   15649                             =A(10546875)
 002F1C 00000000                   15650                             =V(BTX)
 002F20 000000FF                   15651                             =X'000000FF'
 002F24 00000004                   15652                             =A(DIRNFER)
 002F28 00000008                   15653                             =A(DIRDUPER)
 002F2C 0000000C                   15654                             =A(DIRDELAC)
 002F30 00000010                   15655                             =A(DIRNTSZ)
 002F34 00000014                   15656                             =A(DIRMODLN)
 002F38 00000020                   15657                             =A(DIRSTOV)
 002F3C 00000024                   15658                             =A(DIRSTUF)
 002F40 0000001C                   15659                             =A(DIRNMR)
 002F44 00000028                   15660                             =A(DIRTAGER)
 002F48 0000002C                   15661                             =A(DIRBLKER)
 002F4C 00000030                   15662                             =A(DIRIOS)
 002F50 00000034                   15663                             =A(DIRIONF)
 002F54 C961D64082A48686           15664                             =C'I/O buffer not found'
 002F68 00000038                   15665                             =A(DIRNIMP)
 002F6C 00000000                   15666                             =V(VCAT)
 002F70 0000001C                   15667                             =A(BASE)
 002F74 00000958                   15668                             =A(DATASECT)
 002F78 00000000                   15669                             =V(VFIO)
 002F7C 00000000                   15670                             =V(FMTTIME)
 002F80 0000048A                   15671                             =A(EXTPC)
 002F84 0001                       15672                             =Y(1)
 002F86 0004                       15673                             =Y(CFSBDBLK+1)
 002F88 016D                       15674                             =Y(365)
 002F8A 001E                       15675                             =Y(30)
 002F8C D3858186409596A3           15676                             =C'Leaf not found'
 002F9A C381957DA3408995           15677                             =C'Can''t insert duplicate'
 002FB0 C995A58193898440           15678                             =C'Invalid entry size'
 002FC2 C381957DA3408388           15679                             =C'Can''t change entry size w/out indication on search'
 002FF4 E2A38183924096A5           15680                             =C'Stack overflow'
 003002 C29396839240A381           15681                             =C'Block tags don''t match'
 003018 C2939683924095A4           15682                             =C'Block number doesn''t match'
 003032 E5D2C1D7E4E3               15683                             =C'VKAPUT'
 003038 D2C1D7E4E340               15684                             =C'KAPUT '
1VBLD     (VBLD21) (09:45) (22MAR04) VCAT simulations                                                                       Page  106
0Loc    Object Code    Addr1 Addr2  Stmt Lv Lineno    Source Statement           (Hibal 5, Asmedit 3.3)  HLASM R4.0  2004/03/22 09.45
+___    ______ ____    _____ _____  ____ __ ______    ______ _________
000303E 4DF0F0F65D40C381           15685                             =C'(006) Catalog errors, Re-Build bypassed'
 003065 4DF0F0F45D40C3C1           15686                             =C'(004) CATALOG file too small, Re-Build bypassed'
 003094 FF                         15687                             =X'FF'
 003095 4040404040404040           15688                             =C'            Catalog rebuilt, '
 0030B2 406040D9C5C2E4C9           15689                             =C' - REBUILD with larger file needed.'
 0030D5 4B                         15690                             =C'.'
 0030D6 4F                         15691                             =C'|'
 0030D7 C381957DA3408485           15692                             =C'Can''t delete account with files'
 0030F6 E2A381839240A495           15693                             =C'Stack underflow'
 003105 D596409496998540           15694                             =C'No more room in directory'
 00311E D596409496998540           15695                             =C'No more I/O space'
 00312F D9F1F4407E40F0             15696                             =C'R14 = 0'
 003136 40E5C3C1E34EF0             15697                             =C' VCAT+0'
 00313D 40                         15698                             =C' '
 00313E 40D9F4E5C3C1E34E           15699                             =C' R4VCAT+0'
 003147 404040         0315C 03848 15700                             =C'   '
1VBLD     (VBLD21) (09:45) (22MAR04) VCAT simulations                                                                       Page  107
0Loc    Object Code    Addr1 Addr2  Stmt Lv Lineno    Source Statement           (Hibal 5, Asmedit 3.3)  HLASM R4.0  2004/03/22 09.45
+___    ______ ____    _____ _____  ____ __ ______    ______ _________
0                                  15705    2210.     *
                                   15706    2211.     *  DEFINE DATA SEGMENT FOR DYNAMIC ALLOCATION ROUTINES
                                   15707    2212.     *
0003593                03593 03848 15709    2214.              DATA  BEGIN
 003593 00                                1
 003594                            15714  1 2215.                DC    0A(0)                   PROVIDE FULLWORD ALIGNMENT
 003594 80003598                   15715  1 2216.     SDYNBLK    DC    X'80',AL3(SDYNPRM)      Pointer to svc99 request block
 003598 14                         15716  1 2217.     SDYNPRM    DC    AL1(20)                 Length of svc99 request block
 003599 01                         15717  1 2218.                DC    AL1(S99VRBAL)           Dsname allocation
 00359A 00                         15718  1 2219.                DC    AL1(0)                  Don't mount volumes
 00359B 00                         15719  1 2220.                DC    AL1(0)                  Reserved flags
 00359C 00000000                   15720  1 2221.                DC    AL2(0,0)                Error and reason codes
 0035A0 000035AC                   15721  1 2222.                DC    A(STXTS)                Address of text unit list
 0035A4 00000000                   15722  1 2223.                DC    A(0)                    Reserved
 0035A8 00000000                   15723  1 2224.                DC    A(0)                    System flag information
00035AC 000036DE                   15725  1 2226.     STXTS      DC    A(SDD)                  Pointer to ddname unit
 0035B0 800036EC                   15726  1 2227.                DC    X'80',AL3(SOUT)         to sysout=$ unit
00035B4 000036DE                   15728  1 2229.     DTXTS      DC    A(SDD)                  Pointer to ddname unit
 0035B8 000036F0                   15729  1 2230.                DC    A(DNDISP)               to disposition
 0035BC 000036F7                   15730  1 2231.                DC    A(DBLKLN)               to space unit
 0035C0 00003700                   15731  1 2232.                DC    A(DPRIME)               to primary allocation
 0035C4 00003709                   15732  1 2233.                DC    A(DSEC)                 to secondary allocation
 0035C8 00003712                   15733  1 2234.                DC    A(DRLSE)                to relese text unit
 0035CC 80003716                   15734  1 2235.                DC    X'80',AL3(DUNIT)        to unit name text unit
00035D0 00003618                   15736  1 2237.     TPTRS      DC    A(TDDN)                 Pointer to DDNAME unit
 0035D4 00003626                   15737  1 2238.                DC    A(TDSN)                 To dsname unit
 0035D8 00003660                   15738  1 2239.                DC    A(TSTAT)                To dsn status unit
 0035DC 00003658                   15739  1 2240.                DC    A(TMEM)                 To relative generation
 0035E0 00003667                   15740  1 2241.                DC    A(TNDSP)                To normal disposition
 0035E4 0000366E                   15741  1 2242.                DC    A(TCDSP)                To conditional disposition
 0035E8 00003675                   15742  1 2246.                DC    A(TCNT)                 To volume count
 0035EC 0000367C                   15743  1 2247.                DC    A(TUNIT)                To unit specification
 0035F0 0000368A                   15744  1 2248.                DC    A(TLBL)                 To label type unit
 0035F4 00003691                   15745  1 2249.                DC    A(TSEQ)                 To label sequence number
 0035F8 0000369D                   15746  1 2250.                DC    A(TRETP)                To retention period
 0035FC 00003699                   15747  1 2251.                DC    A(TFREE)                To FREE=CLOSE unit
 003600 800036A5                   15748  1 2252.                DC    X'80',AL3(TPROT)        To DCB dsname reference
0003604 00003618                   15750  1 2254.     TPTRU      DC    A(TDDN)                 Pointer to DDNAME text unit
 003608 00003626                   15751  1 2255.                DC    A(TDSN)                 to DSNAME text unit
 00360C 800036D7                   15752  1 2256.                DC    X'80',AL3(TUNA)         to DISP change unit
0003610 4040404040404040           15754  1 2256.2    TunitCat   DC    CL8' '              Potentialy different Tape unit
0003618 000100010008C3C1           15756  1 2258.     TDDN       DC    AL2(DALDDNAM,1,8),CL8'CATDUMP'
 003626 00020001002C4040           15757  1 2259.     TDSN       DC    AL2(DALDSNAM,1,44),CL44' '
 003658 0003000100024EF1           15758  1 2260.     TMEM       DC    AL2(DALMEMBR,1,2),CL2'+1'
 003660 00040001000104             15759  1 2261.     TSTAT      DC    AL2(DALSTATS,1,1),X'04' DISP=NEW
 003667 00050001000102             15760  1 2262.     TNDSP      DC    AL2(DALNDISP,1,1),X'02' DISP=(,CATLG)
 00366E 00060001000104             15761  1 2263.     TCDSP      DC    AL2(DALCDISP,1,1),X'04' DISP=(,,DELETE)
 003675 00130001000104             15762  1 2267.     TCNT       DC    AL2(DALVLCNT,1,1),AL1(4)         VOL=(,,,4)
 00367C 0015000100084040           15763  1 2268.     TUNIT      DC    AL2(DALUNIT,1,8),CL8' '          UNIT=TAPE
1VBLD     (VBLD21) (09:45) (22MAR04) VCAT simulations                                                                       Page  108
0Loc    Object Code    Addr1 Addr2  Stmt Lv Lineno    Source Statement           (Hibal 5, Asmedit 3.3)  HLASM R4.0  2004/03/22 09.45
+___    ______ ____    _____ _____  ____ __ ______    ______ _________
000368A 001E0001000102             15764  1 2269.     TLBL       DC    AL2(DALLABEL,1,1),XL1'02'        LABEL=(,SL)
 003691 001F000100020001           15765  1 2270.     TSEQ       DC    AL2(DALDSSEQ,1,2),AL2(1)         LABEL=1
 003699 001C0000                   15766  1 2271.     TFREE      DC    AL2(DALCLOSE,0)
 00369D 002300010002005A           15767  1 2272.     TRETP      DC    AL2(DALRETPD,1,2),AL2(90)
 0036A5 002C0001002CE2E8           15768  1 2273.     TPROT      DC    AL2(DALDCBDS,1,44),CL44'SYS3.PROTO.DSCB'
 0036D7 00050001000102             15769  1 2274.     TUNA       DC    AL2(DUNOVDSP,1,1),X'02' DISP=(,CATLG)
00036DE 000100010008E2E8           15771  1 2276.     SDD        DC    AL2(DALDDNAM,1,8),CL8'SYSPRINT'
 0036EC 00180000                   15772  1 2277.     SOUT       DC    AL2(DALSYSOU,0)
 0036F0 00050001000108             15773  1 2278.     DNDISP     DC    AL2(DALNDISP,1,1),X'08' DISP=(,KEEP)
 0036F7 0009000100030008           15774  1 2279.     DBLKLN     DC    AL2(DALBLKLN,1,3),AL3(2048)      SPACE=(2048,(0,0))
 003700 000A000100030003           15775  1 2280.     DPRIME     DC    AL2(DALPRIME,1,3),AL3(900)       SPACE=(2048,(200,0))
 003709 000B000100030001           15776  1 2281.     DSEC       DC    AL2(DALSECND,1,3),AL3(300)       SPACE=(2048,(200,200))
 003712 000D0000                   15777  1 2282.     DRLSE      DC    AL2(DALRLSE,0)          SPACE=(,,RLSE)
 003716 001500010005E2E8           15778  1 2283.     DUNIT      DC    AL2(DALUNIT,1,5),CL5'SYSDA'      UNIT=SYSDA
-003721 00000000000000                    1
 003728 0000000000000000           15780  1 2285.     SWRK       DC    2D'0'                   LOCAL WORK AREA
 003738 4040404040404040           15781  1 2286.     CNTBUFR    DC    CL80' '                 CONTROL FILE DATA BUFFER
                                   15783  1 2288.                SCANCB PFX=CNT                GENERATE SCANNER CONTROL BLOCK
 003788                            15784  1 01-SCANC +CNTCB      DS    0F
 003788                            15785  1 01-SCANC +CNTVAL     DS    A                       VALUE RETURNED
 00378C                            15786  1 01-SCANC +CNTKW      DS    CL8                     CURRENT KEY WORD
 003794                            15787  1 01-SCANC +CNTLEN     DS    A                       LENGTH LEFT TO SCAN
 003798                            15788  1 01-SCANC +CNTLOC     DS    A                       NEXT THING TO SCAN
 00379C                            15789  1 01-SCANC +CNTRA      DS    A                       RETURN ADDRESS
 0037A0                            15790  1 01-SCANC +CNTPRT     DS    A                       ROUTING TABLE ADDRESS
 0037A4                            15791  1 01-SCANC +CNTCLT     DS    A                       SCAN TYPE
                                   15792  1          +*                                      0 = NORMAL SCAN
                                   15793  1          +*                                      4 = EXPRESSION ISOLATION
                                   15794  1          +*                                      8 = EXPRESSION SCAN
                                   15795  1 01-SCANC +CNTCBL     EQU *-CNTCB
                                   15797  1 2290.                PRINT NOGEN                   SUPRESS MACRO EXPANSION
 0037A8 0000000000000000           15799  1 2291.     CNTDCB     DCB   DDNAME=CONTROL,MACRF=GM,DSORG=PS,EODAD=CNTEOD
                                   15841  1 2292.                PRINT GEN
 003808                            15843  1 2293.     CNTKWR     SCKW  TAPE,CTAPE,(A,P)
 003808 8B0033E6E3C1D7C5           15844  1          +
 003810                            15845  1 2294.                SCKW  UNIT,CUNIT,(A,P)
 003810 8B003404E4D5C9E3           15846  1          +
 003818                            15847  1 2294.1               SCKW  UNITCAT,CUNITCT,(P)
 003818 86003414E4D5C9E3           15848  1          +
 003823                            15849  1 2294.2               SCKW  UNITIX,,(P)         Swallow IXRDUMP allocation unit
 003823 85000000E4D5C9E3           15850  1          +
 00382D FF000000                   15851  1 2295.                SCKW  ,
000315C                0315C 03848 15854    2297.              END   ,
1VBLD     (VBLD21) (09:45) (22MAR04) VCAT simulations                                                                       Page  109
0Loc    Object Code    Addr1 Addr2  Stmt Lv Lineno    Source Statement           (Hibal 5, Asmedit 3.3)  HLASM R4.0  2004/03/22 09.45
+___    ______ ____    _____ _____  ____ __ ______    ______ _________
0                                  15861    2298.1    ¿þþþþþþþþþþþþþþþþþþþþþþþþþþþþþþþþþþþþþþþþþþþþþþþþþþþþþþþþþþþþþþþþþþþþþÜ
                                   15862    2299.                                                                          
                                   15863    2300.       Check for "LIST" DDname                                            
                                   15864    2301.                                                                          
                                                      ¾þþþþþþþþþþþþþþþþþþþþþþþþþþþþþþþþþþþþþþþþþþþþþþþþþþþþþþþþþþþþþþþþþþþþþ»
000315C                            15866    2303.     AUXROUT  LABEL ,
 00315C 9029 D000/188D       00000 15868    2304.     CHKLIST  VENTER SR,RAR,*,LOCAL     Enter and save calling registers
 003162 41D0 D020/0D70       00020 15872             +
 003168 5870 7380            034E8 15887    2305.              L     BR,=A(AUXROUT)          Set common base register
 USING  *,R7
 DROP   *,R7                       15888    2306.              USING AUXROUT,BR              ## declare addressability
 USING  AUXROUT,R7
 00316C 1841                       15900    2307.              LR    QR,R1                   SAVE POINTER TO DDNAME
 00316E 4D90 72FE            0345A 15901    2308.              LCALL FINDDD                  Check for "list" ddname
 003172 4780 7038            03194 15903    2309.              IF    NZ,BEGIN                Not allocated via tiot
 003176 4100 7450            035AC 15914  1 2310.                LA    R0,STXTS                Address of sysout text units
 00317A 4110 743C            03598 15915  1 2311.                LA    R1,SDYNPRM              Address of svc99 request block
 USING  S99RB,R1                   15916  1 2312.                USING S99RB,R1                ## addressability to block
 00317E 5000 1008            00008 15925  1 2313.                ST    R0,S99TXTPP             Save text unit pointer
 DROP   S99RB,R1                   15926  1 2314.                DROP  R1                      ## release svc99 request block
 003182 D207 7588 4000 036E4 00000 15933  1 2315.                MVC   SDD+6(8),@QR            Set ddname in svc99 area
 003188 4110 7438            03594 15934  1 2316.                LA    R1,SDYNBLK              Address of svc99 request block
 00318C 0A63                       15935  1 2317.                DYNALLOC ,                    Issue dynamic allocation
 00318E 12FF/4770 71D2       0332E 15938  1 2318.                IF    (R15,NZ),DYNEXIT        Error return to dynalloc
 003194                            15955    2319.              END   ,
 003194 18D8/9829 D000       00000 15959    2320.              VEXIT SR,RAR,LTR              Restore and return to caller
 00319A 12FF/07F9                  15963             +
                                   15965    2320.1    ¿þþþþþþþþþþþþþþþþþþþþþþþþþþþþþþþþþþþþþþþþþþþþþþþþþþþþþþþþþþþþþþþþþþþþþÜ
                                   15966    2321.                                                                          
                                   15967    2322.       Routine to check for "FILES" DDname                                
                                   15968    2323.                                                                          
                                                      ¾þþþþþþþþþþþþþþþþþþþþþþþþþþþþþþþþþþþþþþþþþþþþþþþþþþþþþþþþþþþþþþþþþþþþþ»
000319E 9029 D000/188D       00000 15970    2325.     CHKFILES VENTER SR,RAR,*,LOCAL     Enter and save calling registers
 0031A4 41D0 D020/0D70       00020 15974             +
 0031AA 5870 733E            034E8 15992    2326.              L     BR,=A(AUXROUT)          Set common base address
 DROP   AUXROUT,R7
 USING  *,R7
 DROP   *,R7                       15993    2327.              USING AUXROUT,BR              ## declare addressability
 USING  AUXROUT,R7
 0031AE 4110 733C            03498 16005    2328.              LA    R1,=CL8'FILES'          Address of files ddname
 0031B2 4D90 72FE            0345A 16006    2329.              LCALL FINDDD                  Check for files via tiot
 0031B6 4780 707C            031D8 16008    2330.              IF    NZ,BEGIN                Not there -- allocate one
 0031BA D207 7588 733C 036E4 03498 16019  1 2331.                MVC   SDD+6(8),=CL8'FILES'    set ddname in svc99 txt unit
 0031C0 4100 7458            035B4 16020  1 2332.                LA    R0,DTXTS            Address of dasd text unit pointers
 0031C4 4110 743C            03598 16021  1 2333.                LA    R1,SDYNPRM              Address of svc99 request block
 USING  S99RB,R1                   16022  1 2334.                USING S99RB,R1                ## addressability to svc99 rb
 0031C8 5000 1008            00008 16031  1 2335.                ST    R0,S99TXTPP             Save text unit point
 DROP   S99RB,R1                   16032  1 2336.                DROP  R1                      ## release svc99 request block
 0031CC 4110 7438            03594 16039  1 2337.                LA    R1,SDYNBLK              Address of svc99 parameter list
 0031D0 0A63                       16040  1 2338.                DYNALLOC ,                    Issue dynamic request
 0031D2 12FF/4770 71D2       0332E 16043  1 2339.                IF    (R15,NZ),DYNEXIT        Dynamic request failed
 0031D8                            16060    2340.              END   ,
 0031D8 18D8/9829 D000       00000 16064    2341.              VEXIT SR,RAR,LTR              Restore registers and return
 0031DE 12FF/07F9                  16068             +
1VBLD     (VBLD21) (09:45) (22MAR04) VCAT simulations                                                                       Page  110
0Current Usings:  (AUXROUT,R7)
0Loc    Object Code    Addr1 Addr2  Stmt Lv Lineno    Source Statement           (Hibal 5, Asmedit 3.3)  HLASM R4.0  2004/03/22 09.45
+___    ______ ____    _____ _____  ____ __ ______    ______ _________
0                                  16070    2342.     *
                                   16071    2343.     *  CHECK FOR CATALOG DUMP DDNAME
                                   16072    2344.     *
 0031E2 9029 D000/188D       00000 16073    2345.     CHKDUMP  VENTER SR,RAR,*,LOCAL     ENTER AND SAVE CALLING REGISTERS
 0031E8 41D0 D020/0D70       00020 16077             +
 0031EE 5870 72FA            034E8 16095    2346.              L     BR,=A(AUXROUT)          SET COMMON BASE ADDRESS
 DROP   AUXROUT,R7
 USING  *,R7
 DROP   *,R7                       16096    2347.              USING AUXROUT,BR              ## DECLARE ADDRESSABILITY
 USING  AUXROUT,R7
 0031F2 4110 7344            034A0 16108    2348.              LA    R1,=CL8'CATDUMP'        CATALOG DUMP DDNAME
 0031F6 4D90 72FE            0345A 16109    2349.              LCALL FINDDD                  CHECK FOR DDNAME PRESENT
 0031FA 4780 71C8            03324 16111    2350.              IF    Z,CHKDXIT               IT'S THERE -- JUST RETURN
 0031FE 4110 734C            034A8 16125    2351.              LA    R1,=CL8'CONTROL'        CHECK FOR THE CONTROL FILE
 003202 4D90 72FE            0345A 16126    2352.              LCALL FINDDD                  CHECK VIA TIOT
 003206 4770 71C8            03324 16128    2353.              IF    NZ,CHKDXIT              LET THE USER BEWARE, I'M TIRED
 00320A 0700/4510 70B8       03214 16142    2354.              OPEN  (CNTDCB,(INPUT))        OPEN CONTROL FILE
 003210 80/0037A8/0A13             16145             +
 003216 4120 764C            037A8 16148    2355.              LA    SR,CNTDCB               ADDRESS OF CONTROL DCB
 USING  IHADCB,R2                  16149    2356.              USING IHADCB,SR               ## ADDRESSABILITY TO DCB
 00321A 9110 2030      00030       16158    2357.              IF    ~DCBOFLGS.DCBOFOPN,BEGIN
 00321E 4710 70E2            0323E 16169             +
 003222 4110 73DC            03538 16174  1 2358.                VSEG  'Unable to open "CONTROL" file.'
 003226 4100 001E            0001E 16178  1          +
 00322A 5890 7390/0D99       034EC 16181  1          +
 003230 5890 7394/0D99       034F0 16183  1 2359.                VWRITE ,
 003236 41F0 0020            00020 16188  1 2360.                LA    R15,32                  SET RETURN CODE
 00323A 47F0 71C8            03324 16189  1 2361.                B     CHKDXIT                 AND JUST RETURN FROM HERE
 00323E                            16190    2362.              END   ,
 DROP   IHADCB,R2                  16194    2363.              DROP  SR
 00323E                            16201    2364.              LOOP BEGIN                    LOOK FOR TAPE PREFIX
 00323E 4110 764C            037A8 16207  1 2365.                GET   CNTDCB,CNTBUFR          READ RECORD INTO CONTROL BUFFER
 003242 4100 75DC/1FFF       03738 16210  1          +
 003248 BFF7 1031/05EF       00031 16212  1          +
 00324E 4110 75DC            03738 16214  1 2366.                SCINIT CNTBUFR,L'CNTBUFR,CNTCB         INITIALIZE SCANNER
 003252 4100 0050            00050 16228  1          +
 003256 41F0 762C            03788 16235  1          +
 00325A 58E0 7398/0DEE       034F4 16238  1          +
 003260 4110 76AC            03808 16240  1 2367.                SCAN  CNTKWR,(R15)            LOOK FOR TAPE PREFIX
 003264 58E0 739C/0DEE       034F8 16254  1          +
 00326A 47F0 70E2            0323E 16256    2368.              END   ,
 00326E                            16261    2369.     CNTEOD   LABEL ,
 00326E D52B 74D0 73A0 0362C 034FC 16263    2370.              CLC   TDSN+6(44),=CL44' '     TAPE PREFIX FOUND?
 003274 4770 7138            03294 16264    2371.              IF    EQ,BEGIN
 003278 4110 7354            034B0 16275  1 2372.                VSEG  'Unable to determine tape prefix.'
 00327C 4100 0020            00020 16279  1          +
 003280 5890 7390/0D99       034EC 16282  1          +
 003286 5890 7394/0D99       034F0 16284  1 2373.                VWRITE ,                      WRITE TO REPORT FILE
 00328C 41F0 0020            00020 16289  1 2374.                LA    R15,32                  SET RETURN CODE
 003290 47F0 71C8            03324 16290  1 2375.                B     CHKDXIT                 AND JUST RETURN FROM HERE
 003294                            16291    2376.              END   ,
 003294 4510 7140/80         0329C 16295    2377.              CLOSE CNTDCB                  CLOSE CONTROL FILE
 003299 0037A8/0A14                16299             +
 00329E 4110 764C            037A8 16301    2378.              FREEPOOL CNTDCB               AND RELEASE BUFFER POOL
1VBLD     (VBLD21) (09:45) (22MAR04) VCAT simulations                                                                       Page  111
0Current Usings:  (AUXROUT,R7)
0Loc    Object Code    Addr1 Addr2  Stmt Lv Lineno    Source Statement           (Hibal 5, Asmedit 3.3)  HLASM R4.0  2004/03/22 09.45
+___    ______ ____    _____ _____  ____ __ ______    ______ _________
00032A2 9101 1017      00017       16304             +
 0032A6 4710 7190/1FFF       032EC 16305             +
 0032AC BFF7 1015            00015 16307             +
 0032B0 58E0 F000/12EE       00000 16308             +
 0032B6 4770 7166            032C2 16310             +
 0032BA 9130 F004      00004       16311             +
 0032BE 4770 7190            032EC 16312             +
 0032C2 9601 1017/1BEE 00017       16313             +
 0032C8 1B11/BF13 F006       00006 16315             +
 0032CE 43E0 F005/1C0E       00005 16317             +
 0032D4 4110 1008            00008 16319             +
 0032D8 9140 F004      00004       16320             +
 0032DC 47E0 7188            032E4 16321             +
 0032E0 4110 1008/1801       00008 16322             +
 0032E6 4110 F000/0A0A       00000 16324             +
 0032EC                            16327    2378.1             IF    (TUNITCAT,NE,=CL8' '),BEGIN
 0032EC D507 7374 74B4 034D0 03610 16338             +
 0032F2 4780 71A0            032FC 16339             +
 0032F6 D207 7526 74B4 03682 03610 16344  1 2378.2               MVC   TUNIT+6(8),TUNITCAT     UPDATE ALLOCATION UNIT
 0032FC                            16345    2378.3             END   ,
 0032FC D507 7526 7374 03682 034D0 16349    2378.4             CLC   TUNIT+6(8),=CL8' '      CHECK FOR MISSING TAPE ALLOC
 003302 4770 71B0            0330C 16350    2378.41            IF    EQ,BEGIN                SET DEFAULT ALLOCATION
 003306 D207 7526 737C 03682 034D8 16361  1 2378.42              MVC   TUNIT+6(8),=CL8'TAPE'   DEFAULT TO GENERIC TAPE
 00330C                            16362    2378.43            END   ,
 00330C 4110 743C            03598 16366    2379.              LA    R1,SDYNPRM              ADDRESS OF SVC99 REQUEST
 USING  S99RB,R1                   16367    2380.              USING S99RB,R1                ## ADDRESSABILITY TO SVC99 RB
 003310 4100 7474            035D0 16376    2381.              LA    R0,TPTRS                ADDRESS OF TEXT UNIT POINTERS
 003314 5000 1008            00008 16377    2382.              ST    R0,S99TXTPP             SAVE ADDRESS OF POINTERS
 DROP   S99RB,R1                   16378    2383.              DROP  R1                      ## RELEASE SVC99 RB
 003318 4110 7438            03594 16385    2384.              LA    R1,SDYNBLK              POINTER TO SVC99 RB
 00331C 0A63                       16386    2385.              DYNALLOC ,                    ALLOCATE THE TAPE
 00331E 12FF/4770 71D2       0332E 16389    2386.              IF    (R15,NZ),DYNEXIT        ERROR IN DYNAMIC ALLOCATION
0003324 18D8/9829 D000       00000 16407    2388.     CHKDXIT  VEXIT SR,RAR,LTR              RESTORE REGISTERS AND RETURN
 00332A 12FF/07F9                  16411             +
1VBLD     (VBLD21) (09:45) (22MAR04) VCAT simulations                                                                       Page  112
0Current Usings:  (AUXROUT,R7)
0Loc    Object Code    Addr1 Addr2  Stmt Lv Lineno    Source Statement           (Hibal 5, Asmedit 3.3)  HLASM R4.0  2004/03/22 09.45
+___    ______ ____    _____ _____  ____ __ ______    ______ _________
000332E                            16414    2390.     DYNEXIT  LABEL ,                       DYNAMIC ALLOCATION ERROR EXIT
 00332E 182F                       16416    2391.              LR    SR,R15                  SAVE SVC99 RETURN CODE
 003330 4110 740A            03566 16417    2392.              VSEG  'Dynamic allocation error. Return('
 003334 4100 0021            00021 16421             +
 003338 5890 7390/0D99       034EC 16424             +
 00333E 18F2/1B00                  16426    2393.              SEGDC 0,(SR),WORK=SWRK        ADD TO MESSAGE
 003342 4110 75CC            03728 16443             +
 003346 58E0 73CC/0DEE       03528 16446             +
 00334C 5890 7390/0D99       034EC 16463             +
 003352 4110 742B            03587 16465    2394.              VSEG  ')'                     ADD CLOSING PAREND
 003356 4100 0001            00001 16469             +
 00335A 5890 7390/0D99       034EC 16472             +
 003360 5890 7394/0D99       034F0 16474    2395.              VWRITE ,
 003366 4100 0010            00010 16479    2396.              VCNTL BLANK,5                 ADD SPACES TO MESSAGE
 00336A 4110 0005            00005 16487             +
 00336E 5890 73D0/0D99       0352C 16496             +
 003374 4110 742C            03588 16498    2397.              VSEG  'Error code('
 003378 4100 000B            0000B 16502             +
 00337C 5890 7390/0D99       034EC 16505             +
 003382 1FFF/BFF3 7440       0359C 16507    2398.              L2    R15,SDYNPRM+4           SET ERROR CODE
 003388 4100 0004            00004 16515    2399.              SEGHX 4,(R15),WORK=SWRK       ADD TO MESSAGE
 00338C 4110 75CC            03728 16534             +
 003390 58E0 73D4/0DEE       03530 16537             +
 003396 5890 7390/0D99       034EC 16554             +
 00339C 4110 73FA            03556 16556    2400.              VSEG  ') Reason code('
 0033A0 4100 000E            0000E 16560             +
 0033A4 5890 7390/0D99       034EC 16563             +
 0033AA 1FFF/BFF3 7442       0359E 16565    2401.              L2    R15,SDYNPRM+6           SET REASON CODE
 0033B0 4100 0004            00004 16573    2402.              SEGHX 4,(R15),WORK=SWRK       ADD TO MESSAGE
 0033B4 4110 75CC            03728 16592             +
 0033B8 58E0 73D4/0DEE       03530 16595             +
 0033BE 5890 7390/0D99       034EC 16612             +
 0033C4 4110 742B            03587 16614    2403.              VSEG  ')'                     ADD CLOSING PAREND
 0033C8 4100 0001            00001 16618             +
 0033CC 5890 7390/0D99       034EC 16621             +
 0033D2 5890 7394/0D99       034F0 16623    2404.              VWRITE ,                      WRITE TO REPORT FILE
 0033D8 41F0 0020            00020 16628    2405.              LA    R15,32                  SET ERROR RETURN CODE
 0033DC 18D8/9829 D000       00000 16629    2406.              VEXIT SR,RAR,LTR              RESTORE REGISTERS AND RETURN
 0033E2 12FF/07F9                  16633             +
00033E6                            16636    2408.     CTAPE    LABEL ,                       RETRIEVE TAPE PREFIX NAME
 0033E6 1820                       16638    2409.              LR    SR,R0                   COPY LENGTH OF PREFIX
 0033E8 0620/4420 76D6       03832 16639    2410.              DEX   SR,'MVC TDSN+6(0),@R1'  MOVE PREFIX
 003831 00                                1          +
 003832 D200 74D0 1000 0362C 00000 16650             +
 0033EE 4110 74D0            0362C 16658    2411.              LA    R1,TDSN+6           POINT TO FIRST CHARACTER OF NAME
 0033F2 4100 002C            0002C 16659    2412.              LA    R0,44                   AND SET MAXIMUM LENGTH
 0033F6 4D90 72C2            0341E 16660    2413.              LCALL RTRIM                   TRIM TRAILING BLANKS
 0033FA 1E10                       16662    2414.              ALR   R1,R0                   POINT TO END
 0033FC D207 1000 7384 00000 034E0 16663    2415.              MVC   @R1(8),=C'.DIRDUMP'     SET PROPER DATA SET NAME
 003402 07FE                       16664    2416.              SCRTN (R15)               RETURN TO THE SCANNER
0003404                            16671    2418.     CUNIT    LABEL ,                   Set global tape allocation unit
 003404 1820                       16673    2419.              LR    SR,R0                   COPY LENGTH OF UNIT NAME
1VBLD     (VBLD21) (09:45) (22MAR04) VCAT simulations                                                                       Page  113
0Current Usings:  (AUXROUT,R7)
0Loc    Object Code    Addr1 Addr2  Stmt Lv Lineno    Source Statement           (Hibal 5, Asmedit 3.3)  HLASM R4.0  2004/03/22 09.45
+___    ______ ____    _____ _____  ____ __ ______    ______ _________
0003406 D207 7526 7374 03682 034D0 16674    2420.              MVC   TUNIT+6(8),=CL8' '      BLANK OUT UNIT NAME
 00340C 0620/4420 76DC       03838 16675    2421.              DEX   SR,'MVC TUNIT+6(0),@R1' SET TAPE UNIT NAME
 003838 D200 7526 1000 03682 00000 16686             +
 003412 07FE                       16694    2422.              SCRTN (R15)                   RETURN TO THE SCANNER
-003414                            16701    2423.1    CUNITCT  LABEL ,                   Set overriding catalog dump unit
 003414 1820                       16703    2423.3             LR    SR,R0                   COPY LENGTH OF UNIT NAME
 003416 0620/4420 76E2       0383E 16704    2423.5             DEX   SR,'MVC TunitCat(0),@R1'  SET TAPE UNIT NAME
 00383E D200 74B4 1000 03610 00000 16715             +
 00341C 07FE                       16723    2423.6             SCRTN (R15)                       RETURN TO THE SCANNER
-00341E                            16730    2424.     RTRIM    LABEL ,                   Right trim character string
 00341E 1200/0789                  16732    2425.              IF    (R0,Z),RAR          Just return if length is zero
 003422 5020 D000            00000 16749    2426.              VPUSH SR,,*               Save work register
 003426 41D0 D004            00004 16751             +
 00342A 1821                       16752    2427.              LR    SR,R1               Copy address of string start
 00342C 1E20                       16753    2428.              ALR   SR,R0               Set address of end of string +1
 00342E 5B20 73D8            03534 16754    2429.              S     SR,=A(1)            Point to last character
 003432                            16755    2430.              LOOP  BEGIN               Find first non-blank character
 003432 9540 2000      00000       16761  1 2431.                CLI   @SR,C' '            Any blank there?
 003436 4770 72EA            03446 16762  1 2432.                IF    NE,EXIT             Exit loop if non-balnk
 00343A 5F20 73D8            03534 16776  1 2433.                SL    SR,=A(1)            Decrement compare address
 00343E 5B00 73D8            03534 16777  1 2434.                S     R0,=A(1)            Decrement string length
 003442 4770 72D6            03432 16778    2435.              UNTIL Z,END               Loop back to check next character
 003446 4BD0 7408            03564 16797    2436.              VPOP  SR,,*               Restore registers
 00344A 5820 D000            00000 16799             +
 00344E 07F9                       16800    2437.              BR    RAR                 And return
 003450 18D8/9829 D000       00000 16801    2438.              VEXIT SR,RAR,LTR          Restore registers and return
 003456 12FF/07F9                  16805             +
1VBLD     (VBLD21) (09:45) (22MAR04) VCAT simulations                                                                       Page  114
0Current Usings:  (AUXROUT,R7)
0Loc    Object Code    Addr1 Addr2  Stmt Lv Lineno    Source Statement           (Hibal 5, Asmedit 3.3)  HLASM R4.0  2004/03/22 09.45
+___    ______ ____    _____ _____  ____ __ ______    ______ _________
0                                  16808    2440.     ********************************************************************
                                   16809    2441.     *                                                                  *
                                   16810    2442.     * SEARCH TIOT FOR SPECIFIED DDNAME                                 *
                                   16811    2443.     *                                                                  *
                                   16812    2444.     *                                                                  *
                                   16813    2445.     *        ENTRY:                                                    *
                                   16814    2446.     *                R1 -> DDNAME                                      *
                                   16815    2447.     *                                                                  *
                                   16816    2448.     *               Z -- DDCARD FOUND                                  *
                                   16817    2449.     *              NZ -- NO DDCARD FOUND                               *
                                   16818    2450.     *                                                                  *
                                   16819    2451.     ********************************************************************
000345A                            16821    2453.     FINDDD   LABEL ,
 00345A 5820 0010            00010 16823    2454.              L     SR,16                   Cvt address
 00345E 5820 2000            00000 16824    2455.              L     SR,@SR                  Address of TCB words
 003462 5820 2004            00004 16825    2456.              L     SR,@SR+4                Address of TCB
 USING  TCB,R2                     16826    2457.              USING TCB,SR                  ##
 003466 5820 200C            0002C 16835    2458.              L     SR,TCBTIO               Address of tiot
 DROP   TCB,R2                     16836    2459.              USING TIOT,SR                 ##
 USING  TIOT,R2
 00346A 4120 2018            00018 16848    2460.              LA    SR,TIOELNGH             Dd entries
 DROP   TIOT,R2                    16849    2461.              USING TIOELNGH,SR             ##
 USING  TIOELNGH,R2
 00346E 1B33                       16861    2462.              CLEAR TR                      Clear for length bytes
 003470 9500 2000      00018       16865    2463.              WHILE (TIOELNGH,NZ),BEGIN
 003474 4780 7330            0348C 16878             +
 003478 D507 1000 2004 00000 0001C 16883  1 2464.                CLC   @R1(8),TIOEDDNM         Found ddname?
 00347E 0789                       16884  1 2465.                BER   RAR                     Yep -- return
 003480 4330 2000            00018 16885  1 2466.                IC    TR,TIOELNGH             Entry length
 003484 4123 2000            00000 16886  1 2467.                LA    SR,0(TR,SR)             Bump entry address
 003488 47F0 7314            03470 16887    2468.              END   ,
 00348C 9500 7330      0348C       16892    2469.              CLI   *,0                     Set cc ne
 003490 07F9                       16893    2470.              BR    RAR                     Return
-DROP   TIOELNGH,R2                16895    2472.              DROP  SR                      ## rlse tioelngh
1VBLD     (VBLD21) (09:45) (22MAR04) VCAT simulations                                                                       Page  115
0Current Usings:  (AUXROUT,R7)
0Loc    Object Code    Addr1 Addr2  Stmt Lv Lineno    Source Statement           (Hibal 5, Asmedit 3.3)  HLASM R4.0  2004/03/22 09.45
+___    ______ ____    _____ _____  ____ __ ______    ______ _________
0003498                            16903    2474.              LTORG ,
 003498 C6C9D3C5E2404040           16905                             =CL8'FILES'
 0034A0 C3C1E3C4E4D4D740           16906                             =CL8'CATDUMP'
 0034A8 C3D6D5E3D9D6D340           16907                             =CL8'CONTROL'
 0034B0 E4958182938540A3           16908                             =C'Unable to determine tape prefix.'
 0034D0 4040404040404040           16909                             =CL8' '
 0034D8 E3C1D7C540404040           16910                             =CL8'TAPE'
 0034E0 4BC4C9D9C4E4D4D7           16911                             =C'.DIRDUMP'
 0034E8 0000315C                   16912                             =A(AUXROUT)
 0034EC 00000000                   16913                             =V(VSEG)
 0034F0 00000000                   16914                             =V(VWRITE)
 0034F4 00000000                   16915                             =V(SCINIT)
 0034F8 00000000                   16916                             =V(SCAN)
 0034FC 4040404040404040           16917                             =CL44' '
 003528 00000000                   16918                             =V(BTD)
 00352C 00000000                   16919                             =V(VCNTRL)
 003530 00000000                   16920                             =V(BTX)
 003534 00000001                   16921                             =A(1)
 003538 E4958182938540A3           16922                             =C'Unable to open "CONTROL" file.'
 003556 5D40D98581A29695           16923                             =C') Reason code('
 003564 0004                       16924                             =Y(4)
 003566 C4A8958194898340           16925                             =C'Dynamic allocation error. Return('
 003587 5D                         16926                             =C')'
 003588 C599999699408396           16927                             =C'Error code('
 003848                03848 03848 16931    2475.              END   .

1VBLD     (VBLD21) (09:45) (22MAR04) Ordinary Symbol and Literal Cross Reference                                            Page  116
-Symbol   Length   Value     Id    R Type   Defn References                                  HLASM R4.0  2004/03/22 09.45
0$$$@R0        1 00000000 FFFFFFFE     J     706  1141
 $$$@R1        1 00000000 FFFFFFFD     J     719  1154
 $$$@R10       1 00000000 FFFFFFF4     J     836  1219
 $$$@R13       1 00000000 FFFFFFF1     J     875  1120
 $$$@R2        1 00000000 FFFFFFFC     J     732  1016   1167
 $$$@R3        1 00000000 FFFFFFFB     J     745  1029   1180
 $$$@R4        1 00000000 FFFFFFFA     J     758  1042
 $$$@R5        1 00000000 FFFFFFF9     J     771  1055   1193
 $$$@R6        1 00000000 FFFFFFF8     J     784  1068
 $$$@R7        1 00000000 FFFFFFF7     J     797  1081
 $$$@R8        1 00000000 FFFFFFF6     J     810  1094   1206
 $$$@R9        1 00000000 FFFFFFF5     J     823  1107
 $$$C1VBLD
               1 0000132A 00000001     J    8444  8446  10289
 $$$C2VBLD
               1 00001CB8 00000001     J   10945 10947  11526
 $$$C3VBLD
               1 00002240 00000001     J   11742 11744
 $$$C4VBLD
               1 0000239F 00000001     J   11959 11961  12177
 $$$C5VBLD
               1 000024B6 00000001     J   12201 12203  12714  12905  12931
 $$$C6VBLD
               1 0000315C 00000001     J   15701 15703  15858  16656  16692  16721
 $$$C7VBLD
               1 00003844 00000001     J   16928 16930
 $$$C8VBLD
               1 00003848 00000001     J   16934 16936
 $$$D0VBLD
               1 00000957 00000001     J     991  6087   7812
 $$$D1VBLD
               1 00001CB2 00000001     J    8445 10278
 $$$D2VBLD
               1 00002239 00000001     J   10946 11515
 $$$D4VBLD
               1 000024B0 00000001     J   11960 12166
 $$$D5VBLD
               1 0000314A 00000001     J   12202 12703  12894  12920
 $$$D6VBLD
               1 00003593 00000001     J   15702 15710  16645  16681  16710
 $$$RCHKDSTK
               1 00000000 FFFFFFEA     J    2116  2141   2141
 $$$RCHKPNT
               1 00000000 FFFFFFE9     J    2147  2632   2632
 $$$RDSKBLK
               1 00000000 FFFFFFE7     J    2737  2812   2812
 $$$RFBHDR
               1 00000000 FFFFFFE0     J    3459  3495   3495
 $$$RFSB       1 00000000 FFFFFFEB     J    1812  2084   2084
 $$$RFSMB      1 00000000 FFFFFFEC     J    1729  1805   1805
 $$$RNODE      1 00000000 FFFFFFE6     J    2819  2885   2885
 $$$RNTRY      1 00000000 FFFFFFE5     J    2922  3134   3134
 $$$RNTRYPR
               1 00000000 FFFFFFE3     J    3162  3228   3228
 $$$RNTRYXTND
1VBLD     (VBLD21) (09:45) (22MAR04) Ordinary Symbol and Literal Cross Reference                                            Page  117
               1 00000000 FFFFFFE4     J    3140  3156   3156
 $$$RNXRYFL
               1 00000000 FFFFFFE1     J    3306  3452   3452
 $$$RNXRYGR
               1 00000000 FFFFFFE2     J    3237  3299   3299
 $$$ROUTLNES
               1 00000000 FFFFFFDE     J    3601  3723   3723
 $$$RRQBL      1 00000000 FFFFFFE8     J    2645  2711   2711
 $$$RTRCENTRY
               1 00000000 FFFFFFEE     J    1413  1527   1527
 $$$100F       2 00001702 00000001     H    9620  9599B
 $$$101F       2 000017AA 00000001     H    9884  9693B
 $$$103F       2 00001778 00000001     H    9801  9785B
 $$$103T       2 00001762 00000001     H    9788  9761B  9774B
 $$$106F       2 00001792 00000001     H    9841  9820B
 $$$107B       1 000017BE 00000001     X    9915  9925U
 $$$108F       2 000017DA 00000001     H    9976  9964B
 $$$111F       2 0000197C 00000001     H   10391 10124B
 $$$111S       2 00001850 00000001     H   10121 10390B
 $$$113B       4 0000185E 00000001     I   10158 10225
 $$$113F       2 000018C6 00000001     H   10222 10158B 10224
 $$$114E       2 000018CA 00000001     H   10232 10226
 $$$114F       2 00001922 00000001     H   10311 10228B
 $$$115        6 00001CB2 00000001     I   10284 10276X
 $$$116        6 00001CB2 00000001     I   10283 10284  10284
 $$$117F       2 00001932 00000001     H   10335 10325B
 $$$118F       2 00001996 00000001     H   10439 10407B 10421B
 $$$121B       4 00001A6E 00000001     I   10708 10728
 $$$121F       2 00001A80 00000001     H   10725 10708B 10727
 $$$122E       2 00001A84 00000001     H   10735 10729
 $$$122F       2 00001A92 00000001     H   10749 10731B
 $$$123B       1 00001CC4 00000001     X   10963 10973U
 $$$124S       2 00001DE4 00000001     H   11068 11161B
 $$$125B       4 00001DFA 00000001     I   11103 11137
 $$$125F       2 00001E0C 00000001     H   11134 11103B 11123B 11136
 $$$127E       2 00001E10 00000001     H   11144 11138
 $$$127F       2 00001E14 00000001     H   11152 11140B
 $$$128F       2 00001EF8 00000001     H   11282 11271B
 $$$129B       4 00001F28 00000001     I   11316 11328
 $$$129F       2 00001F32 00000001     H   11325 11316B 11327
 $$$130E       2 00001F36 00000001     H   11335 11329
 $$$130F       2 00001F46 00000001     H   11343 11331B
 $$$131F       2 00001FFC 00000001     H   11450 11400B
 $$$132F       2 00002034 00000001     H   11492 11461B
 $$$133        6 0000223A 00000001     I   11521 11513X
 $$$134        6 0000223A 00000001     I   11520 11521  11521
 $$$135B       4 00002050 00000001     I   11538 11554
 $$$135F       2 0000206C 00000001     H   11551 11538B 11553
 $$$136E       2 00002070 00000001     H   11561 11555
 $$$136F       2 0000207C 00000001     H   11575 11557B
 $$$137B       4 00002084 00000001     I   11586 11602
 $$$137F       2 000020A0 00000001     H   11599 11586B 11601
 $$$138E       2 000020A4 00000001     H   11609 11603
 $$$138F       2 000020B0 00000001     H   11623 11605B
 $$$139B       1 0000224C 00000001     X   11762 11772U
 $$$144S       2 00002282 00000001     H   11849 11869B
 $$$145B       1 000023AC 00000001     X   11976 11986U
 $$$146S       2 000023C6 00000001     H   12020 12096B
 $$$147B       4 000023EA 00000001     I   12058 12072
1VBLD     (VBLD21) (09:45) (22MAR04) Ordinary Symbol and Literal Cross Reference                                            Page  118
 $$$147F       2 000023F2 00000001     H   12069 12058B 12071
 $$$148E       2 000023F6 00000001     H   12079 12073
 $$$148F       2 000023FA 00000001     H   12087 12075B
 $$$149        6 000024B0 00000001     I   12172 12164X
 $$$150        6 000024B0 00000001     I   12171 12172  12172
 $$$151B       1 000024C2 00000001     X   12221 12231U
 $$$152F       2 000024EC 00000001     H   12295 12274B
 $$$155F       2 00002556 00000001     H   12430 12357B 12408B
 $$$156F       2 0000252C 00000001     H   12391 12379B
 $$$158F       2 0000260A 00000001     H   12613 12547B
 $$$158S       2 000025C2 00000001     H   12541 12612B
 $$$160B       4 000025EC 00000001     I   12574 12587
 $$$160F       2 000025F4 00000001     H   12584 12574B 12586
 $$$161E       2 000025F8 00000001     H   12594 12588
 $$$161F       2 000025FA 00000001     H   12601 12590B
 $$$162F       2 00002874 00000001     H   13247 12649B
 $$$162S       2 00002638 00000001     H   12644 13246B
 $$$164B       4 00002648 00000001     I   12672 12857
 $$$164F       2 00002704 00000001     H   12854 12672B 12856
 $$$165        6 0000314A 00000001     I   12709 12701X
 $$$166        6 0000314A 00000001     I   12708 12709  12709
 $$$167F       2 00002694 00000001     H   12760 12733B
 $$$169F       2 00002704 00000001     H   12845 12818B
 $$$171E       2 00002708 00000001     H   12864 12858
 $$$171F       2 0000285A 00000001     H   13231 12860B
 $$$172        6 00003150 00000001     I   12900 12892X
 $$$173        6 00003150 00000001     I   12899 12900  12900
 $$$174        6 00003156 00000001     I   12926 12918X
 $$$175        6 00003156 00000001     I   12925 12926  12926
 $$$176F       2 00002772 00000001     H   12977 12950B
 $$$178B       4 0000279C 00000001     I   13009 13060
 $$$178F       2 000027C0 00000001     H   13057 13009B 13059
 $$$179B       4 000027A4 00000001     I   13022 13040
 $$$179F       2 000027B6 00000001     H   13037 13022B 13039
 $$$180E       2 000027BA 00000001     H   13047 13041
 $$$180F       2 000027C0 00000001     H   13053 13043B
 $$$181E       2 000027C4 00000001     H   13067 13061
 $$$181F       2 000027CA 00000001     H   13073 13063B
 $$$182B       4 000027CE 00000001     I   13084 13135
 $$$182F       2 000027F2 00000001     H   13132 13084B 13134
 $$$183B       4 000027D6 00000001     I   13097 13115
 $$$183F       2 000027E8 00000001     H   13112 13097B 13114
 $$$184E       2 000027EC 00000001     H   13122 13116
 $$$184F       2 000027F2 00000001     H   13128 13118B
 $$$185E       2 000027F6 00000001     H   13142 13136
 $$$185F       2 000027FC 00000001     H   13148 13138B
 $$$186F       2 0000285A 00000001     H   13222 13195B
 $$$188B       4 000028BE 00000001     I   13355 13375
 $$$188F       2 000028D0 00000001     H   13372 13355B 13374
 $$$189E       2 000028D4 00000001     H   13382 13376
 $$$189F       2 000028E2 00000001     H   13396 13378B
 $$$190B       1 000028FA 00000001     X   13417 13427U
 $$$192F       2 00002934 00000001     H   13476 13465B
 $$$193F       2 0000295E 00000001     H   13528 13505B 13516B
 $$$195B       1 00002996 00000001     X   13595 13605U
 $$$197B       4 00002A00 00000001     I   13730 13755
 $$$197F       2 00002A16 00000001     H   13751 13730B 13754
 $$$198B       4 00002A1E 00000001     I   13773 13798
 $$$198E       2 00002A1A 00000001     H   13762 13756
1VBLD     (VBLD21) (09:45) (22MAR04) Ordinary Symbol and Literal Cross Reference                                            Page  119
 $$$198F       2 00002A34 00000001     H   13794 13758B 13773B 13797
 $$$200B       4 00002A3C 00000001     I   13816 13841
 $$$200E       2 00002A38 00000001     H   13805 13799
 $$$200F       2 00002A52 00000001     H   13837 13801B 13816B 13840
 $$$202B       4 00002A5A 00000001     I   13859 13884
 $$$202E       2 00002A56 00000001     H   13848 13842
 $$$202F       2 00002A70 00000001     H   13880 13844B 13859B 13883
 $$$204B       4 00002A78 00000001     I   13902 13927
 $$$204E       2 00002A74 00000001     H   13891 13885
 $$$204F       2 00002A8E 00000001     H   13923 13887B 13902B 13926
 $$$206B       4 00002A96 00000001     I   13945 13970
 $$$206E       2 00002A92 00000001     H   13934 13928
 $$$206F       2 00002AAC 00000001     H   13966 13930B 13945B 13969
 $$$208B       4 00002AB4 00000001     I   13988 14013
 $$$208E       2 00002AB0 00000001     H   13977 13971
 $$$208F       2 00002ACA 00000001     H   14009 13973B 13988B 14012
 $$$210B       4 00002AD2 00000001     I   14031 14056
 $$$210E       2 00002ACE 00000001     H   14020 14014
 $$$210F       2 00002AE8 00000001     H   14052 14016B 14031B 14055
 $$$212B       4 00002AF0 00000001     I   14074 14099
 $$$212E       2 00002AEC 00000001     H   14063 14057
 $$$212F       2 00002B06 00000001     H   14095 14059B 14074B 14098
 $$$214B       4 00002B0E 00000001     I   14117 14142
 $$$214E       2 00002B0A 00000001     H   14106 14100
 $$$214F       2 00002B24 00000001     H   14138 14102B 14117B 14141
 $$$216B       4 00002B2C 00000001     I   14160 14185
 $$$216E       2 00002B28 00000001     H   14149 14143
 $$$216F       2 00002B42 00000001     H   14181 14145B 14160B 14184
 $$$218B       4 00002B4A 00000001     I   14203 14228
 $$$218E       2 00002B46 00000001     H   14192 14186
 $$$218F       2 00002B60 00000001     H   14224 14188B 14203B 14227
 $$$220B       4 00002B68 00000001     I   14246 14270
 $$$220E       2 00002B64 00000001     H   14235 14229
 $$$220F       2 00002B7E 00000001     H   14267 14231B 14246B 14269
 $$$222E       2 00002B82 00000001     H   14277 14271
 $$$222F       2 00002BB0 00000001     H   14335 14273B
 $$$225B       1 00002C36 00000001     X   14523 14533U
 $$$226B       1 00002C5A 00000001     X   14621 14631U
 $$$229B       1 00002CC0 00000001     X   14809 14819U
 $$$230B       1 00002CE8 00000001     X   14909 14919U
 $$$233B       1 00002D60 00000001     X   15140 15147U
 $$$234B       1 00002D7C 00000001     X   15245 15252U
 $$$235B       1 00003168 00000001     X   15878 15885U
 $$$236F       2 00003194 00000001     H   15958 15909B
 $$$238B       1 000031AA 00000001     X   15980 15990U
 $$$239F       2 000031D8 00000001     H   16063 16014B
 $$$241B       1 000031EE 00000001     X   16083 16093U
 $$$244F       2 0000323E 00000001     H   16193 16169B
 $$$246S       2 0000323E 00000001     H   16205 16259B
 $$$247F       2 00003294 00000001     H   16294 16270B
 $$$248F       2 000032FC 00000001     H   16348 16339B
 $$$249F       2 0000330C 00000001     H   16365 16356B
 $$$251        6 00003832 00000001     I   16651 16643X
 $$$252        6 00003832 00000001     I   16650 16651  16651
 $$$253        6 00003838 00000001     I   16687 16679X
 $$$254        6 00003838 00000001     I   16686 16687  16687
 $$$255        6 0000383E 00000001     I   16716 16708X
 $$$256        6 0000383E 00000001     I   16715 16716  16716
 $$$258F       2 00003446 00000001     H   16794 16770B
1VBLD     (VBLD21) (09:45) (22MAR04) Ordinary Symbol and Literal Cross Reference                                            Page  120
 $$$258S       2 00003432 00000001     H   16759 16791B
 $$$262F       2 0000348C 00000001     H   16891 16878B
 $$$262S       2 00003470 00000001     H   16870 16890B
 $$$41B        1 0000001C 00000001     X    6601  6608U
 $$$43F        2 00000086 00000001     H    6742  6725B
 $$$45F        2 000000AC 00000001     H    6795  6765B
 $$$47F        2 000000BA 00000001     H    6819  6806B
 $$$48F        2 000000C8 00000001     H    6843  6830B
 $$$49F        2 000000D6 00000001     H    6867  6854B
 $$$50F        2 000000E4 00000001     H    6891  6878B
 $$$51F        2 00000170 00000001     H    7019  7007B
 $$$53F        2 00000266 00000001     H    7293  7283B
 $$$54F        2 000002D0 00000001     H    7391  7323B
 $$$57         6 00001324 00000001     I    7818  7810X
 $$$58         6 00001324 00000001     I    7817  7818   7818
 $$$61F        2 00000520 00000001     H    8046  8033B
 $$$62F        2 00000534 00000001     H    8071  8058B
 $$$63F        2 00000548 00000001     H    8096  8083B
 $$$64F        2 0000055C 00000001     H    8121  8108B
 $$$65F        2 0000056E 00000001     H    8152  8139B
 $$$66F        2 000005D4 00000001     H    8220  8180B
 $$$68F        2 00000638 00000001     H    8273  8233B
 $$$70F        2 0000064E 00000001     H    8300  8286B
 $$$72F        2 000006B4 00000001     H    8353  8313B
 $$$74B        1 00001336 00000001     X    8464  8471U
 $$$75F        2 0000134E 00000001     H    8514  8505B
 $$$75T        2 0000134A 00000001     H    8508  8488B
 $$$78B        1 00001372 00000001     X    8564  8574U
 $$$82F        2 00001446 00000001     H    8838  8776B
 $$$83F        2 00001482 00000001     H    8917  8877B
 $$$84F        2 000014C8 00000001     H    9003  8995B
 $$$85F        2 000014D6 00000001     H    9024  9014B
 $$$86F        2 000014E4 00000001     H    9045  9035B
 $$$87F        2 000015EC 00000001     H    9171  9059B
 $$$88F        2 000015AC 00000001     H    9137  9127B
 $$$89F        2 000015F4 00000001     H    9190  9182B
 $$$94F        2 00001702 00000001     H    9626  9293B
 $$$97F        2 000016E8 00000001     H    9588  9436B
 $$$98F        2 000016B6 00000001     H    9512  9452B
 $$$99F        2 000016E8 00000001     H    9584  9524B
 @QR           0 00000000 FFFFFFFA     @    1043  9113  10181  10246  12629  13242  15933
 @R0           0 00000000 FFFFFFFE     @     707   983U
 @R1           0 00000000 FFFFFFFD     @     720   979U  6657   6658   7191   7192   7817   8360U  8510M  9116  10387U
                                                 10446M 10644U 11511U 11843U 12014U 12162U 12345U 12708  12797U 12899
                                                 12925  13174U 15931U 16037U 16383U 16650  16663M 16686  16715  16883
 @R10          0 00000000 FFFFFFF4     @     837   943U  9891U 10879U 13564U 14490U 14574U 14861U
 @R11          0 00000000 FFFFFFF3     @     850   939U 14504U 14774U 15065U 15597U
 @R12          0 00000000 FFFFFFF2     @     863   935U 11698U
 @R13          0 00000000 FFFFFFF1     @     876   931U  6595M  8387   8388
 @R14          0 00000000 FFFFFFF0     @     889   927U  9808U  9865U 10367M 10445  10449M 12555M 12557M 12558  13157U
                                                 13162  14982U
 @R15          0 00000000 FFFFFFEF     @     902   923U  8385U  8762U  9345U 13291U 13429  16514U 16572U
 @R2           0 00000000 FFFFFFFC     @     733   975U  6656   7311   7312   7313   8846U  8924U  8969U  9278U  9422U
                                                  9650U  9677U 10095U 11158U 11375U 11642U 14659U 14763U 14947U 15054U
                                                 15119U 16199U 16843U 16856U 16900U
 @R3           0 00000000 FFFFFFFB     @     746   971U 10271U 10363U 12093U 12140U 12191U 14751U
 @R4           0 00000000 FFFFFFFA     @     759   967U  7387   8939M  8940M  8941M 10217U 10306U 12460U 12506U 12619M
                                                 12664U 12851U 13228U
 @R5           0 00000000 FFFFFFF9     @     772   963U  8912U  9879U 10886U 13556U 14497U 14582U 14790U 14869U 15081U
1VBLD     (VBLD21) (09:45) (22MAR04) Ordinary Symbol and Literal Cross Reference                                            Page  121
 @R6           0 00000000 FFFFFFF8     @     785   959U 15108U 15209U 15613U
 @R7           0 00000000 FFFFFFF7     @     798   955U  8571U  9922U 10970U 11769U 11983U 12228U 13424U 13602U 14530U
                                                 14628U 14816U 14916U 15103U 15204U 15608U 15895U 15987U 16000U 16090U
                                                 16103U
 @R8           0 00000000 FFFFFFF6     @     811   951U
 @R9           0 00000000 FFFFFFF5     @     824   947U
 @SR           0 00000000 FFFFFFFC     @    1017 16761  16824  16825
 @TR           0 00000000 FFFFFFFB     @    1030  9737  10340  10365  11070  12032  13442  13479
 ACCCNT        4 0000098C 00000001     A    6212 10175  10176M 10470  10758
 ACCEND       16 0000095C 00000001     R    6203 10446  10446  10447
 ACCMODE       1 00000000 00000001 A   U    1389 10913  12716
 ACCXLEN       2 0000095C 00000001     Y    6199  6203   6203
 AUXROUT       2 0000315C 00000001     H   15867 15898U 16003U 16106U 16912
 BASE          2 0000001C 00000001     H    6611 15157U 15262U 15667
 BITNO         4 000000B8 FFFFFFDF     A    3567  3568   8685M  8685   9362M  9362  14667M 14955M
 BL            2 00000002 FFFFFFEB A   N    1835  1837   1837   2122   2157   2158   2160   2161   2162   2261   2271
                                                  2281   2291   2302   2312   2322   2332   2342   2352   2362   2402
                                                  2403   2404   2421   2423   2425   2431   2433   2435   2441   2443
                                                  2444   2446   2448   2454   2456   2457   2459   2461   2463   2468
                                                  2470   2471   2473   2475   2477   2484   2487   2488   2489   2491
                                                  2492   2495   2497   2498   2506   2509   2510   2511   2513   2514
                                                  2517   2519   2520   2523   2525   2532   2535   2536   2537   2539
                                                  2540   2543   2545   2546   2549   2551   2552   2554   2568   2585
                                                  2588   2936   2938   2947  12498
 BLDECB        4 00000ED4 00000001     A    6344  6337   7509   8692M  8692   8717   8730   9369M  9369   9394   9407
                                                 14682M 14682  14707  14720  14997M 14997  15022  15035
 BLDERR        2 0000038C 00000001     H    7568  6739B
 BLKERR        2 0000033E 00000001     H    7490  8706B  9383B 14696B 15011B
 BLOCKLEN      4 00000EE0 00000001     A    6347  6341   8586   8611   8775   9065  12453  12490  12533
 BR            7 00000007 00000001 A   #    1075 13587  13589  13589  13589  14481M 14515  14517  14517  14517  14587M
                                                 14801  14803  14803  14803  14874M 15132  15134  15134  15134  15182M
                                                 15887M 15898U 15992M 16003U 16095M 16106U
 BRR           6 00000006 00000001 A   #    1062 14633M 14921M 15149M 15157U 15254M 15262U
 BTD           1 00000000 00000007     T    8417  8417  10900  15643  16918
 BTDC          1 00000000 0000000D     T   10908 10908
 BTX           1 00000000 00000009     T    8421  8421  15650  16920
 CATBIT        4 000009D8 00000001     A    6234  8075   9979M
 CATBITLN      4 000009DC 00000001     A    6235  8088   9980M
 CATBUF        4 000009E0 00000001     A    6236  8100   8627   8650
 CATBUFLN      4 000009E4 00000001     A    6237  8113   8649M
 CATCNTER      2 00000420 00000001     H    7659  9244B  9266B
 CATMNFRE      4 00000A48 00000001     A    6244 10707  12392  13354
 CATREAD       4 00002C2A 00000001     I   14515 10902
 CATWRIT       4 00002CB4 00000001     I   14801 15639
 CCAT1MIN      1 0000003C FFFFFFEB A   U    1821 10931
 CCAT1PCT      1 00000005 FFFFFFEB A   U    1820 10930
 CCAT2MIN      1 0000000A FFFFFFEB A   U    1823 10933
 CCAT2PCT      1 00000001 FFFFFFEB A   U    1822 10932
 CCHKSTK       1 00000007 FFFFFFE9 A   U    2153  2625
 CCWR2         8 00000060 FFFFFFDF     W    3557  8671M  9349M 14668M 14984M
 CDSKHSIZ      1 00000010 FFFFFFE7 A   U    2802  2804  10922
 CFSBBL        1 00000004 FFFFFFEB A   U    1950  8939   8940M  8941M
 CFSBBUF       8 00000008 FFFFFFEB A   N    1952  6299
 CFSBDBLK      1 00000003 FFFFFFEB A   U    1831 15673
 CFSBFLSZ      1 00000028 FFFFFFEB A   U    1828  2687   2688
 CFSBMXNT      1 00000129 FFFFFFEB A   U    1833  2618   2930   2930   8581
 CFSBNDOT      1 00000026 FFFFFFEB A   U    1829  2390   2393   2572   2606   2609
 CFSBNMSZ      1 00000021 FFFFFFEB A   U    1830  2932
 CFSBPL        8 00000008 FFFFFFEB A   N    1951  8930  10920  12616
1VBLD     (VBLD21) (09:45) (22MAR04) Ordinary Symbol and Literal Cross Reference                                            Page  122
 CHKDUMP       4 000031E2 00000001     I   16075 11956
 CHKDWRT       2 00000008 FFFFFFE9     R    2157 12493M
 CHKDXIT       2 00003324 00000001     I   16409 16119B 16136B 16189B 16290B
 CHKERR        2 0000037A 00000001     H    7555  9740B
 CHKFBNO       2 0000000E FFFFFFE9     R    2160  2164   2164  10637  12496M 13284
 CHKFILES      4 0000319E 00000001     I   15972 10912
 CHKFLG        1 0000001C FFFFFFE9     R    2172  2176   2181   2186   2191   2196   2201   2206   2211
 CHKFLG2       1 0000001D FFFFFFE9     R    2216  2220   2225   2230   2235   2240   2245   2250
 CHKFNAME     38 000000C5 FFFFFFE9     C    2390  2391   2391
 CHKFNMSZ      1 000000C4 FFFFFFE9     X    2389  2391   2391
 CHKFREB       2 00000010 FFFFFFE9     R    2161  2163   2163  12499M
 CHKFRNAM     38 000000EC FFFFFFE9     C    2393  2394   2394
 CHKFRNMS      1 000000EB FFFFFFE9     X    2392  2394   2394
 CHKIERFL      1 000001A2 FFFFFFE9     R    2593  2597   2602
 CHKIERNN     38 000001CB FFFFFFE9     C    2609  2610   2610
 CHKIERNS      1 000001CA FFFFFFE9     X    2608  2610   2610
 CHKIERON     38 000001A4 FFFFFFE9     C    2606  2607   2607
 CHKIEROS      1 000001A3 FFFFFFE9     X    2605  2607   2607
 CHKIFBNO      2 00000114 FFFFFFE9     R    2402  2405   2405
 CHKISTRT      2 00000112 FFFFFFE9     H    2399  2559   2559   2575   2575   2613   2613
 CHKITYPE      1 00000112 FFFFFFE9     X    2400  9758
 CHKIVAR       1 0000011A FFFFFFE9     X    2406  2409   2414   2419   2429   2439   2452   2466   2482   2504   2530
                                                  2558   2558
 CHKI2TYP      1 00000154 FFFFFFE9     X    2562  9771
 CHKI2VAR      1 00000156 FFFFFFE9     X    2564  2574   2574
 CHKI3TYP      1 00000194 FFFFFFE9     X    2578  9784
 CHKI3VAR      1 00000196 FFFFFFE9     X    2580  2612   2612
 CHKLIST       4 0000315C 00000001     I   15870  8401  11705
 CHKNXDB       2 00000012 FFFFFFE9     R    2162 12498M
 CHKPNT     1600 00000000 FFFFFFE9     J    2632  9723U  9729   9852U 10631U 12473U 13278U
 CHKPT         1 00000020 FFFFFFE9     X    2255  2296   2296   2367   2367
 CHKROOTB      2 0000000A FFFFFFE9     R    2158  9858  12497M
 CHKSFLG       1 0000001C FFFFFFE9     X    2169  2253   2253
 CHKSTFLG      1 00000006 FFFFFFEA     R    2127  2131
 CHKTIME       8 00000000 FFFFFFE9     D    2156  9737
 CHK0396       1 00000020 FFFFFFE9     X    2258  2264   2264
 CHK0397       1 00000028 FFFFFFE9     X    2268  2274   2274
 CHK0398       1 00000030 FFFFFFE9     X    2278  2284   2284
 CHK0399       1 00000038 FFFFFFE9     X    2288  2294   2294
 CHK0400       1 00000040 FFFFFFE9     X    2299  2305   2305
 CHK0401       1 00000048 FFFFFFE9     X    2309  2315   2315
 CHK0402       1 00000050 FFFFFFE9     X    2319  2325   2325
 CHK0403       1 00000058 FFFFFFE9     X    2329  2335   2335
 CHK0404       1 00000060 FFFFFFE9     X    2339  2345   2345
 CHK0405       1 00000068 FFFFFFE9     X    2349  2355   2355
 CHK0406       1 00000070 FFFFFFE9     X    2359  2365   2365
 CLCKNOW       8 000009F8 00000001     D    6241  9336M  9337  14974M 14975
 CLCKSTRT      8 000009E8 00000001     D    6239  6745M  7241  11022
 CLOSE         2 0000050C 00000001     H    8022  6892B  7487B  7591B  7733B
 CLST          2 0000049C 00000001     H    7759  6531
 CLWTEMP       8 00000A00 00000001     D    6242  7111   7242   8809   9483   9555  10002  10484  10537  10590  10664
                                                 10787  10835  11337M 11339  11350M 11352  11543M 11544M 11545M 11547
                                                 11591M 11592M 11593M 11595  13311
 CNODA99      72 00000048 FFFFFFEB A   N    1825 10924
 CNODF99      65 00000041 FFFFFFEB A   N    1826 10926
 CNODNLLN      2 00000006 FFFFFFE6 A   N    2827 10923
 CNTAMXL       1 00000108 FFFFFFE5 A   U    2928  2930  10928
 CNTAMXSZ      1 00000005 FFFFFFE5 A   U    2931  2944  12691  12908
 CNTBUFR      80 00003738 00000001     C   15781 16210  16221  16228
1VBLD     (VBLD21) (09:45) (22MAR04) Ordinary Symbol and Literal Cross Reference                                            Page  123
 CNTCB         4 00003788 00000001     F   15784 15795  16235
 CNTDCB        4 000037A8 00000001     F   15804 16146  16148  16209  16299  16303
 CNTEOD        2 0000326E 00000001     H   16262 15816
 CNTFMXL       1 00000129 FFFFFFE5 A   U    2929  2930  10929
 CNTKWR        1 00003808 00000001     R   15844 16247
 CNTXFXLN      1 00000002 FFFFFFE4 A   U    3148  9113   9116
 CONCATMV     16 0000095B 00000001         6185  6779   7923M  7952M  8502   8502   8503   8503   9057   9057   9058
                                                  9291   9291   9292   9435
 CONVBUF       4 000009D0 00000001     A    6232  8050   8590M
 CONVBUFLN
               4 000009D4 00000001     A    6233  8063   8587M
 CONVCHK       8 0000095B 00000001         6190  7881M  8501   8501   8503   8503   9819
 CONVDATE      4 000028EE 00000001     I   13409 15642
 CONVENTS     64 0000095B 00000001         6175  7853M 13008  13083
 CONVERT     128 0000095B 00000001         6170  7839M
 CONVFLGS      1 0000095B 00000001     R    6166  6170   6175   6180   6185   6190   6195
 CONVFSMB     32 0000095B 00000001         6180  7867M  8501   8501   8502   8502   8504   8994   9057   9057   9181
                                                  9291   9291   9598
 CSEQEND       1 00000008 00000001 A   U    1392 10914
 CSEQNONT      1 00000010 00000001 A   U    1391 10915
 CTAPE         2 000033E6 00000001     H   16637 15844
 CTBITRCT      8 00000150 FFFFFFEB     D    2031  2041
 CTCACHCT      8 000001A0 FFFFFFEB     D    2060  2070
 CTCATRCT      8 00000148 FFFFFFEB     D    2030  2040
 CTIXRRCT      8 00000158 FFFFFFEB     D    2032  2042
 CTMASRCT      8 00000140 FFFFFFEB     D    2029  2039
 CTOTHRCT      8 00000168 FFFFFFEB     D    2034  2044
 CTREADCT      8 00000140 FFFFFFEB     D    2028  2039   2040   2041   2042   2043   2044   2068   2073   2073   2074
                                                  2074
 CTUSERCT      8 00000160 FFFFFFEB     D    2033  2043
 CTWRITCT      8 00000170 FFFFFFEB     D    2048  2069
 CUNIT         2 00003404 00000001     H   16672 15846
 CUNITCT       2 00003414 00000001     H   16702 15848
 DALBLKLN      1 00000009 FFFFFFD3 A   U    5842 15774
 DALCDISP      1 00000006 FFFFFFD3 A   U    5839 15761
 DALCLOSE      1 0000001C FFFFFFD3 A   U    5861 15766
 DALDCBDS      1 0000002C FFFFFFD3 A   U    5877 15768
 DALDDNAM      1 00000001 FFFFFFD3 A   U    5834 15756  15771
 DALDSNAM      1 00000002 FFFFFFD3 A   U    5835 15757
 DALDSSEQ      1 0000001F FFFFFFD3 A   U    5864 15765
 DALLABEL      1 0000001E FFFFFFD3 A   U    5863 15764
 DALMEMBR      1 00000003 FFFFFFD3 A   U    5836 15758
 DALNDISP      1 00000005 FFFFFFD3 A   U    5838 15760  15773
 DALPRIME      1 0000000A FFFFFFD3 A   U    5843 15775
 DALRETPD      1 00000023 FFFFFFD3 A   U    5868 15767
 DALRLSE       1 0000000D FFFFFFD3 A   U    5846 15777
 DALSECND      1 0000000B FFFFFFD3 A   U    5844 15776
 DALSTATS      1 00000004 FFFFFFD3 A   U    5837 15759
 DALSYSOU      1 00000018 FFFFFFD3 A   U    5857 15772
 DALUNIT       1 00000015 FFFFFFD3 A   U    5854 15763  15778
 DALVLCNT      1 00000013 FFFFFFD3 A   U    5852 15762
 DATASECT      8 00000958 00000001     D    6091  6620U  8400  14644U 14932U 15272U 15668
 DBLKLN        2 000036F7 00000001     R   15774 15730
 DCBBIT0       1 00000080 FFFFFFDD A   U    3745  3833   3841   3855   3877   3919   3921   3922   3924   3944   3947
                                                  3969   3973   3988   4025   4081
 DCBBIT1       1 00000040 FFFFFFDD A   U    3746  3834   3842   3857   3886   3887   3896   3902   3919   3921   3923
                                                  3924   3949   3969   3971   3973   3991   3992   3993   4028   4029
                                                  4081
 DCBBIT2       1 00000020 FFFFFFDD A   U    3747  3835   3843   3858   3859   3860   3886   3887   3891   3897   3902
1VBLD     (VBLD21) (09:45) (22MAR04) Ordinary Symbol and Literal Cross Reference                                            Page  124
                                                  3919   3920   3925   3951   3974   3975   3996   3997   3998   4032
                                                  4033   4082
 DCBBIT3       1 00000010 FFFFFFDD A   U    3748  3836   3858   3860   3861   3886   3899   3926   3954   3974   3977
                                                  4000   4001   4002   4036   4037   4082
 DCBBIT4       1 00000008 FFFFFFDD A   U    3749  3844   3900   3901   3902   3927   3955   3979   3984   3985   4005
                                                  4006   4040   4041   4043   4044   4083
 DCBBIT5       1 00000004 FFFFFFDD A   U    3750  3845   3907   3930   3931   3957   3979   3981   3982   3985   4009
                                                  4011   4012   4013   4047   4048   4049   4050   4083
 DCBBIT6       1 00000002 FFFFFFDD A   U    3751  3837   3909   3910   3913   3930   3932   3958   4016   4017   4018
                                                  4019   4053   4054   4055   4056   4084
 DCBBIT7       1 00000001 FFFFFFDD A   U    3752  3838   3909   3911   3913   3934   3963   4021   4022   4059   4060
                                                  4062   4063
 DCBDCBE       4 00000000 FFFFFFDD     A    3760  3764
 DCBEODA       3 00000021 FFFFFFDD     R    3915 11817M 12008M 12338M
 DCBFDAD       8 00000005 FFFFFFDD     C    3776  3778
 DCBOFIOF      1 00000001 FFFFFFDD A   U    3963  3965
 DCBOFLGS      1 00000030 FFFFFFDD     B    3943  8179   8232   8285   8312  10080  11806  11829  12327  16168
 DCBOFOPN      1 00000010 FFFFFFDD A   U    3954  8177   8230   8283   8310  10078  11804  11827  12325  16166
 DCBOFUEX      1 00000002 FFFFFFDD A   U    3958  3962
 DIFMOD        4 00002B82 00000001     I   14282 13710B
 DIRBLKER      1 0000002C 00000001 A   U    1378 15661
 DIRCODE       4 0000298A 00000001     I   13587 10916  15641
 DIRDELAC      1 0000000C 00000001 A   U    1354 15654
 DIRDUPER      1 00000008 00000001 A   U    1351 15653
 DIRIONF       1 00000034 00000001 A   U    1384 15663
 DIRIOS        1 00000030 00000001 A   U    1381 15662
 DIRMODLN      1 00000014 00000001 A   U    1360 15656
 DIRNFER       1 00000004 00000001 A   U    1348 15652
 DIRNIMP       1 00000038 00000001 A   U    1387 15665
 DIRNMR        1 0000001C 00000001 A   U    1366 15659
 DIRNTSZ       1 00000010 00000001 A   U    1357 15655
 DIRSTOV       1 00000020 00000001 A   U    1369 15657
 DIRSTUF       1 00000024 00000001 A   U    1372 15658
 DIRTAGER      1 00000028 00000001 A   U    1375 15660
 DNDISP        2 000036F0 00000001     R   15773 15729
 DPRIME        2 00003700 00000001     R   15775 15731
 DRLSE         2 00003712 00000001     R   15777 15733
 DSEC          2 00003709 00000001     R   15776 15732
 DSK           2 00000002 00000001 A   #    1161 12262U 12521M 12522  12528  12552M
 DSKBLINK      2 0000000C FFFFFFE7     H    2769 12602M
 DSKBLK       16 00000000 FFFFFFE7     J    2812 12262U 12554  12886U 14766U 15057U
 DSKFL         1 0000000E FFFFFFE7     R    2772  2776   2781   2786   2791   2796
 DSKSTART      1 00000000 FFFFFFE7     U    2755  2800   2804
 DSKTAG        2 00000000 FFFFFFE7     Y    2756 12558M
 DTXTS         4 000035B4 00000001     A   15728 16020
 DUMERR        2 000003D8 00000001     H    7607 11832B
 DUMP          4 0000095A 00000001         6160  6829   8013M
 DUMPCAT       4 00002240 00000001     I   11754  8411
 DUMPDCB       4 000011A8 00000001     F    6445  8274   8295  11784  11818  11861  11879  11909
 DUMPEND       2 000022A6 00000001     H   11872 11815
 DUNIT         2 00003716 00000001     R   15778 15734
 DUNOVDSP      1 00000005 FFFFFFD3 A   U    6064 15769
 DYNEXIT       2 0000332E 00000001     H   16415 15949B 16054B 16400B
 ExecPtr       4 00000974 00000001     A    6206  6625M  7310
 EXTP          4 0000048E 00000001     I    7732  7683B  7700B  7716B
 EXTPC         4 0000048A 00000001     I    7730  7500B  7552B  7565B  7578B  7604B  7617B  7630B  7643B  7656B  7669B
                                                 15671
 FAC           1 00000008 FFFFFFED A   U    2909  3217
 FAO           1 00000002 FFFFFFED A   U    2907  2984   3067   3107   3208   3286   3387   3427
1VBLD     (VBLD21) (09:45) (22MAR04) Ordinary Symbol and Literal Cross Reference                                            Page  125
 FBHBLOCK      3 00000000 FFFFFFE0     R    3468  9334M  9334  14973M
 FBHDR        20 00000000 FFFFFFE0     J    3495  3487   8749U  9323U 14966U
 FBHLEN        2 00000006 FFFFFFE0     R    3484  8755   9335M 14972M
 FBHTBICA      1 000000C0 FFFFFFE0 A   U    3480  3481
 FBHTBIT       1 00000040 FFFFFFE0 A   U    3473  3480
 FBHTCAT       1 00000080 FFFFFFE0 A   U    3472  3480  14852
 FBHTFSMB      1 000000FF FFFFFFE0 A   U    3471  9338
 FBHTIME       4 00000008 FFFFFFE0     R    3485  9337M 14975M
 FBHTIXR       1 00000008 FFFFFFE0 A   U    3475  3479
 FBHTIXRT      1 0000001E FFFFFFE0 A   U    3479  3481
 FBHTMIXR      1 00000002 FFFFFFE0 A   U    3477  3479
 FBHTSIXR      1 00000004 FFFFFFE0 A   U    3476  3479
 FBHTYPE       1 00000003 FFFFFFE0     R    3469  9338M 14971M
 FBHTZIXR      1 00000010 FFFFFFE0 A   U    3474  3479
 FDABYTS       4 00000998 00000001     A    6215 10178  10179M
 FDBYTCNT      4 00000994 00000001     A    6214 10336  10337M 10576  10752  12362
 FDCATBC       4 00000980 00000001     A    6209  7953M  9027   9523M  9523   9544
 FDCATSB       4 0000097C 00000001     A    6208  7924M  9006   9451M  9451   9472
 FDENTAVG      4 000009C4 00000001     A    6226 10760M
 FDENTMAX      4 000009C0 00000001     A    6225 10324  10331M 10776
 FDERRS       64 00000959 00000001         6105 10431M 12273
 FDFBNO        4 00000990 00000001     A    6213 10646M 10653  10707  13293M 13354
 FDFBYTS       4 0000099C 00000001     A    6216 10243  10244M
 FDMODE        4 00000978 00000001     A    6207 10129M 10157
 FDOPNERR      2 000003EA 00000001     H    7620  8530B
 FILBUF        4 000009C8 00000001     A    6230  8025   8585M 10180  10245  10338  10444  11063  11851  12022  12621
                                                 12761  12978  13234
 FILBUFLN      4 000009CC 00000001     A    6231  8038   8582M
 FILCNT        4 00000988 00000001     A    6211 10240  10241M 10523  10757
 FILEMODE      1 00000004 00000001 A   U    1390 12933
 FILERR        2 000003C6 00000001     H    7594 10083B 11809B 12330B
 FILS          4 000010E8 00000001     F    6359  8168   8189   8193  10053  10055  10371  10453  10866  10998  11073
                                                 11179  11185  11782  11786  11854  11877  11883  11992  11996  12027
                                                 12104  12300  12316  12624  13237  13255
 FINDDD        2 0000345A 00000001     H   16822 15902B 16007B 16110B 16127B
 FMTCLCK       1 00000000 00000008     T    8420  8420  11707
 FMTDATE       1 00000000 0000000F     T   11716 11716
 FMTTIME       1 00000000 00000011     T   15670 15670
 FNOP         16 00000959 00000001         6115 11359M 11421M 11460  11485M
 FORMDSCT      4 00001366 00000001     I    8556  8408
 FPA           1 00000002 FFFFFFED A   N    2899  2905   2906   2907   2914   2917
 FPE           1 00000008 FFFFFFED A   N    2901  2909   2910   2916
 FPN           1 00000000 FFFFFFED A   N    2897  2911
 FPR           1 00000001 FFFFFFED A   N    2898  2904   2905   2906   2913   2917
 FPS           1 00000010 FFFFFFED A   N    2902  2908
 FPW           1 00000004 FFFFFFED A   N    2900  2905   2915   2917
 FRO           1 00000001 FFFFFFED A   U    2904  2957   3040   3089   3181   3259   3360   3409
 FRP           1 00000003 FFFFFFED A   U    2906  2975   3058   3116   3199   3277   3378   3436
 FRSTACC       8 00000959 00000001         6120 10103M
 FRSTFIL       4 00000959 00000001         6125 10168M
 FRW           1 00000007 FFFFFFED A   U    2905  2910   2966   3049   3098   3190   3268   3369   3418
 FSB         480 00000000 FFFFFFEB     J    2084  6267   6269   6272   6275   6278   6281   6284   6287   6290   6293
                                                  6296   6301   6305   6310   8605U  9946U 12243U 13583U 14558U 14844U
 FSBAFLGS      1 00000009 FFFFFFEB     R    1852  1856   1861   1866   1871   1876   1881   6278
 FSBBALLN      1 00000024 FFFFFFEB A   U    1983  8866   9670
 FSBBALST      1 000000AC FFFFFFEB     X    1964  1983   8866M  9670M
 FSBBID        4 00000000 FFFFFFEB     C    1844  6269
 FSBBITBC      4 000000D8 FFFFFFEB     A    1989  8865M  9669M
 FSBBITSB      4 000000D4 FFFFFFEB     A    1988  8864M  9668M
1VBLD     (VBLD21) (09:45) (22MAR04) Ordinary Symbol and Literal Cross Reference                                            Page  126
 FSBBLKTOP
               4 0000005C FFFFFFEB     A    1953  6301   8610M  8613   8931   8936M 12617
 FSBBLK1       4 0000006C FFFFFFEB     A    1957  8935
 FSBBMCNO      2 000000D0 FFFFFFEB     Y    1987  6310
 FSBBUF1       4 00000070 FFFFFFEB     A    1958 12521
 FSBCATBC      4 00000048 FFFFFFEB     A    1944  8863M  9667M  9949   9982  12405  12494  12518  12573
 FSBCATSB      4 00000044 FFFFFFEB     A    1943  8862M  9666M 14563  14849
 FSBCHAIN      4 00000004 FFFFFFEB     A    1846  6272
 FSBCHKA       4 00000060 FFFFFFEB     A    1954  8650M  8897   8929   9713   9842  10621  12463  13268
 FSBDBLK       4 000000E4 FFFFFFEB     A    1992  6293
 FSBDDN        4 00000014 FFFFFFEB     C    1927  6290
 FSBDSZ        2 000000AC FFFFFFEB     Y    1965  6305   8612M  8615   8938   9335  14565  14851
 FSBDTAGX      2 000000B0 FFFFFFEB     Y    1967  9728  12553
 FSBFCACT      8 000001A0 FFFFFFEB     D    2059  2072   2072
 FSBFIOCT      8 00000140 FFFFFFEB     D    2027  2055   2055   2068   2069   2070
 FSBID         1 00000008 FFFFFFEB     X    1848  6287
 FSBINIT      32 00000009 FFFFFFEB         1866  6279
 FSBNAME       8 00000018 FFFFFFEB     C    1928  6296
 FSBNANSP      2 000000BC FFFFFFEB     Y    1973 12368
 FSBNASPA      2 000000B4 FFFFFFEB     Y    1969 12367
 FSBOFLGS      1 0000000B FFFFFFEB     R    1907  1911   1916   1921   6284
 FSBONIXR    128 0000000B FFFFFFEB         1911  6285
 FSBOWNER      6 00000020 FFFFFFEB     C    1929  6275
 FSBR         10 0000000A 00000001 A   #    1213  8595M  8605U  9938M  9946U 12235M 12243U 13583U 14558U 14844U
 FSBROOTA      4 00000068 FFFFFFEB     A    1956  9868
 FSBROOTB      4 00000064 FFFFFFEB     A    1955  8937   9867M 12618
 FSBSFLGS      1 0000000A FFFFFFEB     R    1887  1891   1896   1901   6281
 FSHR          1 00000010 FFFFFFED A   U    2908  3076   3396
 FSMB       2048 00000000 FFFFFFEC     J    1805  8857U  8980U  9661U
 FSMBALST      1 00000038 FFFFFFEC     X    1770  1789   8866   9670
 FSMBITBC      4 00000030 FFFFFFEC     A    1763  8865   9669
 FSMBITSB      4 0000002C FFFFFFEC     A    1762  8864   9668
 FSMCATBC      4 00000028 FFFFFFEC     A    1761  8863   9041M  9140   9154   9229   9667
 FSMCATSB      4 00000024 FFFFFFEC     A    1760  8862   9020M  9193   9666
 FSMDAVA       2 0000003A FFFFFFEC     Y    1772  9070M
 FSMDSZ        2 00000038 FFFFFFEC     Y    1771  9066M
 FSMDTAGX      2 0000003C FFFFFFEC     Y    1773  9068M
 FSMLOGFR      2 00000058 FFFFFFEC     Y    1787  9152M
 FSMMBLK       4 00000008 FFFFFFEC     A    1755  1764   1764
 FSMMNFRE      2 0000005A FFFFFFEC     Y    1788  9166M
 FSMNALEN      2 0000003E FFFFFFEC     Y    1774  9071M
 FSMNAMXL      2 00000044 FFFFFFEC     Y    1777  9077M  9092   9115
 FSMNANSP      2 00000048 FFFFFFEC     Y    1779  9080M  9087
 FSMNASPA      2 00000040 FFFFFFEC     Y    1775  9074M  9086   9094
 FSMNAXSP      2 00000046 FFFFFFEC     Y    1778  9095M
 FSMNFLEN      2 0000004A FFFFFFEC     Y    1780  9072M
 FSMNFMXL      2 00000050 FFFFFFEC     Y    1783  9082M  9102   9112
 FSMNFNSP      2 00000054 FFFFFFEC     Y    1785  9085M  9097
 FSMNFSPA      2 0000004C FFFFFFEC     Y    1781  9075M  9096   9104
 FSMNFXSP      2 00000052 FFFFFFEC     Y    1784  9105M
 FSMOFLGS      1 00000006 FFFFFFEC     R    1743  1747
 FSMSTART      8 00000000 FFFFFFEC     D    1738  1797
 FSMTAXLN      2 00000042 FFFFFFEC     Y    1776  9107M  9114
 FSMTFXLN      2 0000004E FFFFFFEC     Y    1782  9109M  9111
 FSMTXXLN      2 00000056 FFFFFFEC     Y    1786  9138M
 FSNAM         8 00000A40 00000001     C    6243  7817M 11028
 FSOPEN      128 00000959 00000001         6100  8138   8541M
 GENFLG        1 00000959 00000001     R    6096  6100   6105   6110   6115   6120   6125
 GETMEM        4 000002EE 00000001     I    7420  8584B  8589B  9978B 10977B
1VBLD     (VBLD21) (09:45) (22MAR04) Ordinary Symbol and Literal Cross Reference                                            Page  127
 HEADER        2 0000017A 00000001     H    7032  8404
 HIBAL         1 00000000 FFFFFFFF     J     692   708    721    734    747    760    773    786    799    812    825
                                                   838    851    864    877    890    903
 IHADCB        1 00000000 FFFFFFDD     J    3735  3815   3865   3940   4067   4072   4087   8163U 10065U 11794U 12004U
                                                 12311U 16156U
 IHB1209C      2 00000300 00000001     H    7431  7426B
 IHB1209F      1 000002FC 00000001     B    7427  7433
 IHB1285A      2 000003BC 00000001     H    7588  7584B
 IHB1630       2 000005D4 00000001     H    8216  8195B  8202B
 IHB1646       2 00000638 00000001     H    8269  8248B  8255B
 IHB1676       2 000006B4 00000001     H    8349  8328B  8335B
 IHB3270       2 00001E84 00000001     H   11208 11187B 11194B
 IHB3272       2 00001ED2 00000001     H   11234 11213B 11220B
 IHB3561       2 00002304 00000001     H   11906 11885B 11892B
 IHB3563       2 00002352 00000001     H   11932 11911B 11918B
 IHB6002       2 000032EC 00000001     H   16326 16305B 16312B
 INILOOP       4 000014A0 00000001     I    8938  8942B
 INIRBLD       4 0000261A 00000001     I   12619 12620B
 INVCOM        4 00000328 00000001     I    7479  6782B
 IOAREA        4 00000EDC 00000001     A    6346  6336   8654   8946   9298   9627  12431  14649  14937
 IOBAREA      40 00000018 FFFFFFED     R    1693  3550
 IOBCC         2 0000003B FFFFFFED     C    1686  3554
 IOBINCAM      2 00000034 FFFFFFED     H    1648  1661
 IOBSTDRD      8 00000018 FFFFFFED     D    1590  1693   1693
 IOERR         2 00000350 00000001     H    7503  8733B  9410B 14723B 15038B
 IOFLGS        1 0000000C FFFFFFDF     R    3538  3542
 IOHDR        80 00000068 FFFFFFDF     X    3559  3556   8739   9313  12452M 12452  12453M 14744  14956
 IOINFO        1 00000000 FFFFFFDF     J    3531  3586   3724   8664U  8956U  9308U  9637U 12441U 14662U 14950U
 IOIXR         1 00000800 FFFFFFDF     X    3594  3557   3595   8669   8839   8962   9347   9643
 IOSECT        1 0000000E FFFFFFDF     X    3547  3553
 IOWRITE     128 0000000C FFFFFFDF         3542  8678M  9355M 14675M 14990M
 KATCONT      12 0000000C FFFFFFED A   N    3522 10379  12806  13183
 KATINS        2 00000002 FFFFFFED A   N    3512 12721  12938
 KATREC       14 0000000E FFFFFFED A   N    3524  9795
 KATSEQ       10 0000000A FFFFFFED A   N    3520 10108
 KREGS         4 00000AB0 00000001     F    6262 15284M 15295  15354  15405  15453  15501  15549
 KTIME         8 00000AA8 00000001     D    6261 15323M 15324
 KWRT          1 00001268 00000001     R    6529  6686
 LINE1        80 00000000 FFFFFFDE     C    3613  3609   3618  11657  11717
 LINE10       70 00000282 FFFFFFDE     C    3709  3701   3714  11633  11728
 LINE11       89 000002C8 FFFFFFDE     C    3716  3712  11408  11729
 LINE2        80 00000050 FFFFFFDE     C    3620  3616  11664  11718
 LINE3       132 000000A0 FFFFFFDE     C    3634  3623  11676  11720
 LINE4        71 00000124 FFFFFFDE     C    3641  3637  11683  11721
 LINE5        55 0000016B FFFFFFDE     C    3654  3644  11286  11426  11722
 LINE6        40 000001A2 FFFFFFDE     C    3665  3657  11293  11433  11724
 LINE7        40 000001CA FFFFFFDE     C    3676  3668  11366  11440  11725
 LINE8        72 000001F2 FFFFFFDE     C    3687  3679  11469  11726
 LINE9        72 0000023A FFFFFFDE     C    3698  3690  11476  11727
 LIST          4 00001148 00000001     F    6402  8221   8242   8246  11000  11181  11211  11285  11292  11365  11407
                                                 11425  11432  11439  11468  11475  11632  11656  11663  11675  11682
 LISTF       128 0000095A 00000001         6135  6805   7750M  7766M
 LISTFLS       4 00001CB8 00000001     I   10955  8410
 LNCNT         4 00000A50 00000001     A    6247  6993   6994M  7272M  7397   7398M 11021M 11270  11360  11362M 11399
                                                 11446M 11486  11488M 11628  11629M 11687M
 LSTEND        2 00001E18 00000001     H   11165  6371
 L1CC          1 00000004 FFFFFFDE     C    3610 11014M
 L1LEN         2 00000000 FFFFFFDE     R    3609 11013M
 L1NAME       17 0000003F FFFFFFDE     C    3612  3618  11015M
1VBLD     (VBLD21) (09:45) (22MAR04) Ordinary Symbol and Literal Cross Reference                                            Page  128
 L1ST          1 00000000 FFFFFFDE     C    3608  3613   3613
 L10CREAT      9 000002B1 FFFFFFDE     C    3706 11546M 11547M 11567
 L10LAST       9 000002BF FFFFFFDE     C    3708  3714   3714  11594M 11595M 11615
 L10LEN        2 00000282 FFFFFFDE     R    3701 11058M
 L10NAME      33 0000028D FFFFFFDE     C    3704 11494M 11495  11495M 11495  11520M
 L10ST         1 00000282 FFFFFFDE     C    3700  3709   3709
 L11CC         1 000002CC FFFFFFDE     C    3713 11060M
 L11LEN        2 000002C8 FFFFFFDE     R    3712 11059M
 L11MSG       15 00000312 FFFFFFDE     C    3715 11061M
 L11ST         1 000002C8 FFFFFFDE     C    3711  3714   3716   3716
 L2CC          1 00000054 FFFFFFDE     C    3617 11017M
 L2LEN         2 00000050 FFFFFFDE     R    3616 11016M
 L2ST          1 00000050 FFFFFFDE     C    3615  3618   3620   3620
 L2UND        17 0000008F FFFFFFDE     C    3619 11018M
 L3DASH        1 0000011F FFFFFFDE     C    3632 11030M
 L3DATE       26 000000A5 FFFFFFDE     C    3625 11023
 L3LEN         2 000000A0 FFFFFFDE     R    3623 11020M
 L3P#          4 00000120 FFFFFFDE     C    3633 11669M 11670M
 L3PAGE        4 00000118 FFFFFFDE     C    3629 11029M
 L3S#          2 0000011D FFFFFFDE     C    3631 11671M 11672M
 L3ST          1 000000A0 FFFFFFDE     C    3622  3626   3628   3634   3634
 L3SYS         8 000000E1 FFFFFFDE     C    3627 11028M
 L4CC          1 00000128 FFFFFFDE     C    3638 11032M
 L4LEN         2 00000124 FFFFFFDE     R    3637 11031M
 L4ST          1 00000124 FFFFFFDE     C    3636  3639   3641   3641
 L4UND         6 00000165 FFFFFFDE     C    3640 11033M
 L5ACCT        7 00000172 FFFFFFDE     C    3647 11037M
 L5ALL        10 0000017C FFFFFFDE     C    3649 11038M
 L5CC          1 0000016F FFFFFFDE     C    3645 11036M
 L5CONT       11 00000197 FFFFFFDE     C    3653 11422M 11444M 11445  11445M 11445
 L5LEN         2 0000016B FFFFFFDE     R    3644 11035M
 L5ST          1 0000016B FFFFFFDE     C    3643  3654   3654
 L5USD        10 00000189 FFFFFFDE     C    3651 11039M
 L6CC          1 000001A6 FFFFFFDE     C    3658 11042M
 L6LEN         2 000001A2 FFFFFFDE     R    3657 11041M
 L6ST          1 000001A2 FFFFFFDE     C    3656  3665   3665
 L6UND1        7 000001A9 FFFFFFDE     C    3660 11043M
 L6UND2       10 000001B3 FFFFFFDE     C    3662 11044M
 L6UND3       10 000001C0 FFFFFFDE     C    3664 11045M
 L7ACCT        6 000001D1 FFFFFFDE     C    3671 11297M
 L7ALL        10 000001DB FFFFFFDE     C    3673 11321M 11338M 11339M
 L7LEN         2 000001CA FFFFFFDE     R    3668 11047M
 L7ST          1 000001CA FFFFFFDE     C    3667  3676   3676
 L7USD        10 000001E8 FFFFFFDE     C    3675 11351M 11352M
 L8CC          1 000001F6 FFFFFFDE     C    3680 11049M
 L8CREATE     13 00000220 FFFFFFDE     C    3684 11051M
 L8FILE       33 000001FD FFFFFFDE     C    3682 11050M
 L8LAST       11 0000022F FFFFFFDE     C    3686 11052M
 L8LEN         2 000001F2 FFFFFFDE     R    3679 11048M
 L8ST          1 000001F2 FFFFFFDE     C    3678  3687   3687
 L9CC          1 0000023E FFFFFFDE     C    3691 11054M
 L9LEN         2 0000023A FFFFFFDE     R    3690 11053M
 L9ST          1 0000023A FFFFFFDE     C    3689  3698   3698
 L9UND1       33 00000245 FFFFFFDE     C    3693 11055M
 L9UND2       13 00000268 FFFFFFDE     C    3695 11056M
 L9UND3       11 00000277 FFFFFFDE     C    3697 11057M
 MAXNO         4 00000ED8 00000001     A    6345  6338   9220   9263
 MONFUDGE      2 00000A8C 00000001     Y    6259 13533
 M1AMSK        1 00FFFFFF 00000001 A   U    1343  1344
1VBLD     (VBLD21) (09:45) (22MAR04) Ordinary Symbol and Literal Cross Reference                                            Page  129
 NIL           1 000000FF 00000001 A   U    1394 10903  15638
 NOCATBSE      2 0000040E 00000001     H    7646  9203B  9223B
 NOCHKREC      4 0000095B 00000001         6195  6724   7895M  8876   9692
 NODE          8 00000000 FFFFFFE6     J    2885 10923
 NODFL         1 00000006 FFFFFFE6     R    2835  2839   2844   2849   2854   2859   2864   2869   2874
 NOMEM         2 0000047C 00000001     H    7719  7447B  8643B
 NTFCNT        3 0000000D FFFFFFE5     X    2997 12995M
 NTFCODE       1 00000010 FFFFFFE5     R    3000  3004   3009   3014   3019   3024   3029  12996M
 NTFCRDT       4 00000013 FFFFFFE5     X    3121 13033M 13049M 13069M
 NTFFLGO       1 00000012 FFFFFFE5     R    3083  3091   3100   3109   3118  12998M
 NTFFLGP       1 00000011 FFFFFFE5     R    3034  3042   3051   3060   3069   3078  12997M
 NTFLNAME      1 00000020 FFFFFFE5     X    3125 10283  10294
 NTFLNMSZ      1 0000001F FFFFFFE5     X    3124 10270
 NTFLOC        3 0000000A FFFFFFE5     X    2996 10264  12994M
 NTFLSDT       4 00000017 FFFFFFE5     X    3122 13108M 13124M 13144M
 NTFUINFO      4 0000001B FFFFFFE5     X    3123 13149M
 NTGFLG        1 00000019 FFFFFFE5     R    2951  2959   2968   2977   2986  10204  12781M
 NTGMEMBR      1 0000001A FFFFFFE5     X    2989 10206  12786
 NTGMXSP       3 0000000F FFFFFFE5     X    2945 10203  12779M
 NTGNAME       5 0000000A FFFFFFE5     X    2944 10199  10201  12777M 12778M
 NTGUSSP       3 00000012 FFFFFFE5     X    2946 12780M
 NTPFLG        1 00000006 FFFFFFE3     R    3175  3183   3192   3201   3210   3219
 NTRY         32 00000000 FFFFFFE5     J    3134 10141U 12772U 12989U
 NTRYFL       32 00000000 FFFFFFE5     R    3126 10927  10938  13160  13161  13167
 NTRYGR       26 00000000 FFFFFFE5     R    2990 10925  10937  12790
 NTRYLEN       2 00000000 FFFFFFE5     R    2935 10177  10196  10207  10242  10261  10295  10312
 NTRYSTRT      1 00000000 FFFFFFE5     X    2934  2990   2990   3126   3126
 NTRYVAR       1 0000000A FFFFFFE5     X    2940  2992
 NTRYXST       1 00000000 FFFFFFE4     X    3146  3148
 NULLACCT      5 0000095E 00000001     C    6200 11120  12648
 NXFBYTS       2 00000000 FFFFFFE1     X    3315 10263M 13150  13166
 NXFCNT        3 00000005 FFFFFFE1     X    3317 12995
 NXFCODE       1 00000008 FFFFFFE1     R    3320  3324   3329   3334   3339   3344   3349  12996
 NXFCRDT       4 0000000B FFFFFFE1     X    3441 11529  11537  13021  13027  13049  13069
 NXFFLGO       1 0000000A FFFFFFE1     R    3403  3411   3420   3429   3438  12998
 NXFFLGP       1 00000009 FFFFFFE1     R    3354  3362   3371   3380   3389   3398  12997
 NXFLNAME      1 00000018 FFFFFFE1     X    3445 10283M 10293  11520  12171  12879
 NXFLNMSZ      1 00000017 FFFFFFE1     X    3444 10264  10291M 11510  12161  12885  13156
 NXFLOC        3 00000002 FFFFFFE1     X    3316 10264  10264M 12994
 NXFLSDT       4 0000000F FFFFFFE1     X    3442 11577  11585  13096  13102  13124  13144
 NXFUINFO      4 00000013 FFFFFFE1     X    3443 13149
 NXGBYTS       2 00000000 FFFFFFE2     X    3246 10198M 10356  12782  12789
 NXGCODE       1 00000008 FFFFFFE2     X    3248 10202M 11102  12057  12658
 NXGFLG        1 0000000F FFFFFFE2     R    3253  3261   3270   3279   3288  10204M 12781
 NXGMEMBR      1 00000010 FFFFFFE2     X    3291 10205  12785
 NXGMXSP       3 00000009 FFFFFFE2     X    3249 10203  10203M 11303  12779
 NXGNAME       6 00000002 FFFFFFE2     X    3247 10199M 10200M 10201M 11120  11297  12127  12648  12648  12690  12777
                                                 12778
 NXGUSSP       3 0000000C FFFFFFE2     X    3250 10203  11349  12780
 NXRYFL       24 00000000 FFFFFFE1     J    3452 10256U 10938  11503U 12154U 12875U 13158  13160  13163  13167
 NXRYGR       16 00000000 FFFFFFE2     J    3299  6199  10191U 10350U 10937  11087U 11255U 12042U 12124U 12637U 12686U
                                                 12783  12790
 OL            2 00000002 FFFFFFEB A   N    1836  1837   1837   2123   2124   2159   2262   2272   2282   2292   2303
                                                  2313   2323   2333   2343   2353   2363   2422   2424   2426   2432
                                                  2434   2436   2442   2445   2447   2449   2455   2458   2460   2462
                                                  2469   2472   2474   2476   2485   2486   2490   2496   2507   2508
                                                  2512   2518   2524   2533   2534   2538   2544   2550   2553   2569
                                                  2586   2589   2590   2827   2935   2937   2939   2948   3147
 OPENFS        4 0000132A 00000001     I    8456  8407
1VBLD     (VBLD21) (09:45) (22MAR04) Ordinary Symbol and Literal Cross Reference                                            Page  130
 OUTBUF        4 00000A58 00000001     A    6249 10978M 11002  11171
 OUTLNES     801 00000000 FFFFFFDE     J    3723 10975  11010U 11170
 OUTPUT        1 00000A6C 00000001     X    6255  7523  13675  14308  14366  14412  15325  15371  15419  15467  15515
                                                 15563
 PASSONE       4 000017B2 00000001     I    9907  8409
 PGE#1         3 00000A5C 00000001     P    6250 11668M 11669
 PGE#2         2 00000A5F 00000001     P    6251 11257M 11412M 11671
 PGENO         4 00000A54 00000001     A    6248  7097   7156   7157M
 PGESZ         1 00001000 00000001 A   U    1342  1344
 PL            4 00000004 FFFFFFEB A   N    1837  2827  12497
 PRNTACCT      2 00001EDC 00000001     H   11244 11130B
 PRNTFHD       2 000020D6 00000001     H   11650 11278B 11414B
 PRNTFILE      2 00001F86 00000001     H   11383 11148B
 PRTERR        2 0000039E 00000001     H    7581  7146B
 PSPI         16 0000095A 00000001         6150  6853   7983M
 QR            4 00000004 00000001 A   #    1036  9006M  9007M  9007   9020   9027M  9028M  9028   9041   9065M  9066
                                                  9067M  9068   9069M  9070   9071   9072   9073M  9074   9075   9076M
                                                  9077   9078M  9079M  9080   9081M  9082   9083M  9084M  9085   9086M
                                                  9087M  9090M  9091M  9092M  9093M  9093   9094M  9095   9096M  9097M
                                                  9100M  9101M  9102M  9103M  9103   9104M  9105   9106M  9107   9108M
                                                  9109   9111M  9112M  9113M  9126   9133M  9138  10174M 10175M 10176
                                                 10177M 10178M 10179  10180M 10181M 10191U 10239M 10240M 10241  10242M
                                                 10243M 10244  10245M 10246M 10256U 12431M 12441U 12463M 12473U 12518M
                                                 12519M 12546M 12546  12608M 12621M 12625  12629M 12637U 12686U 12696M
                                                 12699M 12701  12761M 12762M 12762  12801M 12875U 12913M 12916M 12918
                                                 12978M 12979M 12979  13178M 13234M 13238  13242M 15900M
 RAR           9 00000009 00000001 A   #    1101  6630M  6631M  6631B  6649M  6650M  6650B  6654M  6655M  6655B  6749M
                                                  6750M  6750B  6753M  6754M  6754B  6790M  6791M  6791B  6814M  6815M
                                                  6815B  6838M  6839M  6839B  6862M  6863M  6863B  6886M  6887M  6887B
                                                  6903   6904   6904   6904   6924M  6925M  6925B  6933M  6934M  6934B
                                                  6942M  6943M  6943B  6951M  6952M  6952B  6960M  6961M  6961B  6965M
                                                  6967M  6970M  6971B  6982   6987M  6988M  6988B  7014M  7015M  7015B
                                                  7022M  7023B  7034   7035   7035   7035   7052M  7053M  7053B  7061M
                                                  7062M  7062B  7080M  7081M  7081B  7089M  7090M  7090B  7131M  7132M
                                                  7132B  7136M  7137M  7137B  7175M  7176M  7176B  7184M  7185M  7185B
                                                  7206M  7207M  7207B  7211M  7212M  7212B  7230M  7231M  7231B  7239M
                                                  7240M  7240B  7262M  7263M  7263B  7267M  7268M  7268B  7275M  7276M
                                                  7276   7289M  7289B  7296M  7297B  7307   7308   7308   7308   7345M
                                                  7346M  7346B  7354M  7355M  7355B  7371M  7372M  7372B  7380M  7381M
                                                  7381B  7385M  7386M  7386B  7395M  7396M  7396B  7408M  7409B  7420
                                                  7421   7421   7421   7465M  7466B  7483M  7484M  7484B  7486M  7498M
                                                  7499M  7499B  7541M  7542M  7542B  7550M  7551M  7551B  7563M  7564M
                                                  7564B  7576M  7577M  7577B  7602M  7603M  7603B  7615M  7616M  7616B
                                                  7628M  7629M  7629B  7641M  7642M  7642B  7654M  7655M  7655B  7667M
                                                  7668M  7668B  7680M  7681M  7681B  7695M  7696M  7696B  7698M  7711M
                                                  7712M  7712B  7714M  7727M  7728M  7728B  7732M  8147M  8148M  8148B
                                                  8377M  8378M  8378B  8428   8428   8428   8431   8431   8431   8456
                                                  8458   8458   8458   8517M  8518M  8518B  8545M  8556   8558   8558
                                                  8558   8584M  8589M  8696M  8697M  8697B  8790M  8791M  8791B  8829M
                                                  8830M  8830B  8834M  8904M  8905M  8905B  9373M  9374M  9374B  9464M
                                                  9465M  9465B  9503M  9504M  9504B  9508M  9536M  9537M  9537B  9575M
                                                  9576M  9576B  9580M  9613M  9614M  9614B  9616M  9796M  9834M  9835M
                                                  9835B  9837M  9871M  9872M  9872B  9896M  9978M 10022M 10023M 10023B
                                                 10031M 10032M 10032B 10034M 10036M 10047M 10048M 10048B 10109M 10380M
                                                 10434M 10435M 10435B 10504M 10505M 10505B 10513M 10514M 10514B 10516M
                                                 10557M 10558M 10558B 10566M 10567M 10567B 10569M 10610M 10611M 10611B
                                                 10619M 10620M 10620B 10684M 10685M 10685B 10693M 10694M 10694B 10720M
                                                 10721M 10721B 10744M 10745M 10745B 10751M 10768M 10769M 10769B 10807M
                                                 10808M 10808B 10816M 10817M 10817B 10855M 10856M 10856B 10858M 10955
1VBLD     (VBLD21) (09:45) (22MAR04) Ordinary Symbol and Literal Cross Reference                                            Page  131
                                                 10957  10957  10957  10977M 10992M 10993M 10993B 11130M 11148M 11239M
                                                 11246  11247  11247  11247  11278M 11379M 11380B 11385  11386  11386
                                                 11386  11414M 11646M 11647B 11652  11653  11653  11653  11690M 11691B
                                                 11732  11732  11732  11754  11756  11756  11756  11776M 11777M 11777B
                                                 11942M 11943M 11943B 11945M 11951M 11968  11970  11970  11970  12065M
                                                 12083M 12111M 12142B 12193B 12286M 12287M 12287B 12289M 12421M 12422M
                                                 12422B 12424M 12515M 12516M 12516B 12605M 12606M 12606B 12722M 12740M
                                                 12741M 12741B 12807M 12825M 12826M 12826B 12939M 12957M 12958M 12958B
                                                 13030M 13031M 13031B 13105M 13106M 13106B 13184M 13202M 13203M 13203B
                                                 13266M 13267M 13267B 13331M 13332M 13332B 13340M 13341M 13341B 13367M
                                                 13368M 13368B 13391M 13392M 13392B 13398M 13404M 13409  13411  13411
                                                 13411  13548M 13587  13589  13589  13589  13630M 13631M 13631B 13641M
                                                 13642M 13642B 13644M 13652M 13653M 13653B 13695M 13696M 13696B 13698M
                                                 13744M 13745M 13745B 13747M 13787M 13788M 13788B 13790M 13830M 13831M
                                                 13831B 13833M 13873M 13874M 13874B 13876M 13916M 13917M 13917B 13919M
                                                 13959M 13960M 13960B 13962M 14002M 14003M 14003B 14005M 14045M 14046M
                                                 14046B 14048M 14088M 14089M 14089B 14091M 14131M 14132M 14132B 14134M
                                                 14174M 14175M 14175B 14177M 14217M 14218M 14218B 14220M 14260M 14261M
                                                 14261B 14263M 14286M 14287M 14287B 14328M 14329M 14329B 14331M 14345M
                                                 14346M 14346B 14384M 14385M 14385B 14393M 14394M 14394B 14432M 14433M
                                                 14433B 14435M 14481M 14515  14517  14517  14517  14567M 14587M 14686M
                                                 14687M 14687B 14801  14803  14803  14803  14854M 14874M 15001M 15002M
                                                 15002B 15132  15134  15134  15134  15175M 15176M 15176B 15178M 15182M
                                                 15237B 15293M 15294M 15294B 15295  15312M 15313M 15313B 15321M 15322M
                                                 15322B 15343M 15344M 15344B 15352M 15353M 15353B 15354  15389M 15390M
                                                 15390B 15398M 15399M 15399B 15437M 15438M 15438B 15446M 15447M 15447B
                                                 15485M 15486M 15486B 15494M 15495M 15495B 15533M 15534M 15534B 15542M
                                                 15543M 15543B 15581M 15582M 15582B 15583M 15584B 15870  15872  15872
                                                 15872  15902M 15962M 15972  15974  15974  15974  16007M 16067M 16075
                                                 16077  16077  16077  16110M 16127M 16181M 16182M 16182B 16186M 16187M
                                                 16187B 16282M 16283M 16283B 16287M 16288M 16288B 16410M 16424M 16425M
                                                 16425B 16463M 16464M 16464B 16472M 16473M 16473B 16477M 16478M 16478B
                                                 16496M 16497M 16497B 16505M 16506M 16506B 16554M 16555M 16555B 16563M
                                                 16564M 16564B 16612M 16613M 16613B 16621M 16622M 16622B 16626M 16627M
                                                 16627B 16632M 16661M 16743B 16800B 16804M 16884B 16893B
 RBLD         64 0000095A 00000001         6140  6877   7781M  8485
 RBLDEXIT      2 000028E6 00000001     I   13403 12291B 12426B
 RBUICONT      2 0000285A 00000001     H   13233 12756B 12841B 12973B 13218B
 RBUILDX       2 00002874 00000001     H   13250 12336  12750B 12835B 12967B 13212B
 REBUILD       4 000024B6 00000001     I   12213  8413
 RESTART       8 0000095A 00000001         6155  6736   6764   7998M 12356
 RETCOD        1 00000958 00000001     X    6092  7590M  7682M  7699M  7715M  7730M  8384  12290M 12425M
 RPBDDX        4 00000014 FFFFFFED     F    1579  1581
 RPBDSECT      1 00000000 FFFFFFED     J    1532  1806   2085   2142   2633   2712   2813   2886   3135   3157   3229
                                                  3300   3453   3496
 RPBFL         1 00000011 FFFFFFED     R    1546  1550   1555   1560   1565   1570   1575
 RPBIOBX       4 0000005C FFFFFFED     A    1701  1706
 RPBL        256 00000000 FFFFFFED     U    1722  1723   1723   6319  14739U
 RPBLIDAW      8 00000088 FFFFFFED     D    1713  1714
 RPBLIDRD     80 00000090 FFFFFFED     X    1715  1716  14744M
 RPBSTART      8 00000000 FFFFFFED     D    1537  1719   1722   1722
 RQB           4 00000000 FFFFFFE8     F    2651  8892U  9708U  9936U 13574U 14608U 14896U
 RQBL        212 00000000 FFFFFFE8     J    2711  6315   6316  12253U 14544U 14830U
 RQBLFLG1      1 0000002C FFFFFFE8     R    2668  2672   2677   2682
 RQBLNAME     44 0000005C FFFFFFE8     C    2688  2689  12694M 12695  12695M 12695  12708M 12889  12911M 12912  12912M
                                                 12912  12925M 13620  13627
 RQBLRNAM     44 00000030 FFFFFFE8     C    2687 12887M 12888  12888M 12888  12889M 12890M 12899M 12907
 RQBLR1        4 00000010 FFFFFFE8     A    2657 14564M 14667  14778  14850M 14955  14973  15069
 RQBLR14       4 0000000C FFFFFFE8     A    2656  8897M  9868M 12508M 12522M 12552  14668  14777  14984  15068
1VBLD     (VBLD21) (09:45) (22MAR04) Ordinary Symbol and Literal Cross Reference                                            Page  132
 RQBLSAV       4 00000098 FFFFFFE8     A    2703  9793  10106  10377  12719  12804  12936  13181
 RQBLWORK     16 00000088 FFFFFFE8     C    2694  2695   2699  13438M 13438  13440M 13441  13478
 RQBLWR2       4 00000020 FFFFFFE8     A    2662  9792M  9797  10105M 10110  10376M 10381  12718M 12723  12803M 12808
                                                 12935M 12940  13180M 13185
 RQBR          5 00000005 00000001 A   #    1187  8882M  8892U  9698M  9708U  9928M  9936U 12245M 12253U 13574U 14544U
                                                 14608U 14830U 14896U
 RQBRPB        4 00000004 FFFFFFE8     A    2654  6316  14729
 RSTRT         2 00000500 00000001     H    7992  6543
 RTRIM         2 0000341E 00000001     H   16731 16661B
 RUNFLG        1 0000095A 00000001     R    6131  6135   6140   6145   6150   6155   6160
 R0            0 00000000 FFFFFFFF A   #     700  6657M  7191M  7241M  7454M  7460M  7462M  7805   8038M  8063M  8088M
                                                  8113M  8388M  9145M  9145   9146M  9159M  9159   9160M  9953M  9953
                                                  9954M  9963M  9963   9980  10368M 10450M 10637M 10646  10979  10980M
                                                 10981  10987M 11022M 11303M 11315  11337  11349M 11350  11360M 11361M
                                                 11362  11486M 11487M 11488  11529M 11543  11544  11545  11577M 11591
                                                 11592  11593  11627M 11628M 11629  12366M 12366  12369M 12378M 12378
                                                 12491M 12491  12492M 12534M 12534  12535M 12580M 12597M 12602  12691M
                                                 12696  12716M 12790M 12908M 12913  12933M 13033  13108  13167M 13541M
                                                 13544M 14452M 14453M 14465  14565M 14851M 14972  15159M 15159  15284
                                                 15324M 15914M 15925  16020M 16031  16376M 16377  16638  16659M 16662
                                                 16673  16703  16740M 16740  16753  16777M
 R1            1 00000001 FFFFFFFF A   #     713  6625   6626   6627M  6656M  6658M  6992M  6993M  6994   7006   7155M
                                                  7156M  7157   7186M  7192M  7241M  7271M  7272   7422   7453   7455M
                                                  7461M  8025M  8026M  8026   8050M  8051M  8051   8075M  8076M  8076
                                                  8100M  8101M  8101   8144M  8163U  8168M  8221M  8274M  8301M  8473M
                                                  8581M  8582   8585   8586M  8587   8590   8611M  8612   8613M  8614M
                                                  8614   8615M  8621   8693M  8901M  8901   8929M  8938M  8940   9114M
                                                  9115M  9116M  9126   9133   9140M  9141M  9149   9151M  9152   9154M
                                                  9155M  9163   9165M  9166   9229M  9241   9251   9370M  9858M  9867
                                                  9949M  9972M  9979  10044M 10141U 10445M 10447M 10448M 10449  10621M
                                                 10631U 10757M 10758M 10759  10975M 10978  10979M 10980  10981M 10989M
                                                 11022M 11510M 11513  11566M 11566  11614M 11614  11786M 11794U 11818M
                                                 11996M 12004U 12161M 12164  12311U 12316M 12362M 12387M 12392M 12393M
                                                 12405  12494M 12495M 12496  12512M 12512  12556M 12557  12615M 12619
                                                 12690M 12772U 12801  12879M 12907M 12989U 13178  13409  13411  13411
                                                 13411  13548M 14563M 14564  14683M 14778M 14849M 14850  14998M 15069M
                                                 15295M 15324M 15900  15915M 15923U 15934M 16005M 16021M 16029U 16039M
                                                 16108M 16125M 16366M 16374U 16385M 16658M 16662M 16752
 R11          11 0000000B FFFFFFFF A   #     843  6612M  6620U 14634M 14644U 14922M 14932U 15264M 15272U
 R12          12 0000000C FFFFFFFF A   #     856  6595   8388M  9907   9909   9909   9909  10871M 11002M 11010U 12213
                                                 12215  12215  12215  14613  14615  14615  14615  14782M 14901  14903
                                                 14903  14903  15073M
 R13          13 0000000D FFFFFFFF A   #     869  6622   6623M  8386M 15285M
 R14          14 0000000E FFFFFFFF A   #     882  6595   7460M  8387M  8389B  9713M  9723U  9842M  9852U 10129  10206M
                                                 10210M 10294M 10299M 10338M 10339  10368  10444M 10450  10987M 12485M
                                                 12490M 12492M 12528M 12533M 12535M 12553M 12554M 12554  12783M 12784
                                                 12785M 12788M 12789M 12790  13156M 13158M 13158  13159  13163M 13163
                                                 13165M 13166M 13167  13455M 13464M 13464  13515M 13515  13539M 13540M
                                                 13541  13608  14777M 14956M 14966U 15068M
 R15          15 0000000F FFFFFFFF A   #     895  7242M  7444M  7444   7459M  7459   8384M  8527M  8527   8640M  8640
                                                  8669M  8671   8739M  8749U  8755M  8775   9313M  9323U  9347M  9349
                                                  9982M 10196M 10197M 10198  10207M 10208M 10209  10261M 10262M 10263
                                                 10295M 10296M 10297M 10298  10406  10420  10985M 10985  10986M 11023M
                                                 11567M 11615M 12732M 12732  12782M 12784M 12787  12817M 12817  12949M
                                                 12949  13027M 13102M 13150M 13159M 13164  13194M 13194  13268M 13278U
                                                 13284M 13293  13448M 13449M 13477M 13485M 13524M 13536M 13538M 13607
                                                 13654M 13655M 13656  13716M 13717M 13729  13772  13815  13858  13901
                                                 13944  13987  14030  14073  14116  14159  14202  14245  14288M 14289M
                                                 14395M 14396M 14436M 14477M 14477  14852M 14971  15284  15325M 15354M
1VBLD     (VBLD21) (09:45) (22MAR04) Ordinary Symbol and Literal Cross Reference                                            Page  133
                                                 15355M 15946M 15946  16051M 16051  16188M 16289M 16397M 16397  16416
                                                 16513M 16571M 16628M
 R2            2 00000002 FFFFFFFF A   #     726  6626M  7307   7308   7308   7308   7310M  7311M  7313M  7363   7408M
                                                  8431   8431   8431   8930M  8942   9795M 10108M 10379M 12616M 12620
                                                 12721M 12806M 12938M 13183M
 R3            3 00000003 FFFFFFFF A   #     739  7312M  7322M  7322   7368   8931M  8933M  8934M  8935M  8935   8936
                                                  9794M  9796B 10107M 10109B 10378M 10380B 12617M 12720M 12722B 12805M
                                                 12807B 12937M 12939B 13182M 13184B
 R4            4 00000004 FFFFFFFF A   #     752  7309M  7387M  7397M  7398   8937M  8942M 12618M 12620M
 R9            9 00000009 FFFFFFFF A   #     817 15283
 SBCV          2 000004F4 00000001     H    7962  6557
 SBLD          2 000004A2 00000001     H    7775  6533
 SCAN          1 00000000 00000004     T    8406  8406  16916
 SCATBC        2 000004E4 00000001     H    7934  6553
 SCATSB        2 000004D4 00000001     H    7905  6551
 SCHK          2 000004C8 00000001     H    7877  6547
 SCINIT        1 00000000 00000003     T    8405  8405  16915
 SCNCB         4 00001304 00000001     F    6561  6572   6674
 SCNVAL        4 00001304 00000001     A    6562  7924   7953
 SCONV         2 000004B6 00000001     H    7833  6539
 SDD           2 000036DE 00000001     R   15771 15725  15728  15933M 16019M
 SDUMP         2 00000506 00000001     H    8007  6537
 SDYNBLK       1 00003594 00000001     X   15715 15934  16039  16385
 SDYNPRM       1 00003598 00000001     R   15716 15715  15915  16021  16366  16513  16571
 SENTRY        2 000004BC 00000001     H    7849  6549
 SETREAD1      4 00002C4E 00000001     I   14613 14567B 14611
 SETWRIT1      4 00002CDC 00000001     I   14901 14854B 14899
 SFSMB         2 000004C2 00000001     H    7863  6545
 SINV          2 00000462 00000001     H    7703  6559   6703B  7799B
 SLST          2 00000496 00000001     H    7744  6529
 SNOCHK        2 000004CE 00000001     H    7891  6555
 SOMIT         2 00000448 00000001     H    7687  7912B  7941B
 SOUT          2 000036EC 00000001     R   15772 15726
 SPI           2 000004FA 00000001     H    7977  6541
 SPIAC         6 00002456 00000001     C   12196 12127M
 SPIACCT       2 00002418 00000001     H   12116 12065B
 SPIAD         2 00002454 00000001     C   12195 12126M 12131  12146M 12182
 SPIDCB        4 00001208 00000001     F    6488  8301   8322   8326  11994  12106  12130  12181
 SPIEND        2 000023FE 00000001     H   12099 12006
 SPIFIL        2 00002434 00000001     H   12145 12083B
 SPIFL        80 0000245D 00000001     C   12198 12023M 12024  12024M 12024  12171M
 SPIOUT        4 000023A0 00000001     I   11968  8412
 SR            2 00000002 00000001 A   #    1010  6903   6904   6904   6904   6970M  7034   7035   7035   7035   7296M
                                                  7420   7421   7421   7421   7453M  7454   7461   7465M  7805M  7808M
                                                  7810   8428   8428   8428   8456   8458   8458   8458   8545M  8556
                                                  8558   8558   8558   8621M  8630   8649   8654M  8664U  8693   8839M
                                                  8857U  8946M  8956U  8962M  8980U  9298M  9308U  9370   9627M  9637U
                                                  9643M  9661U  9896M  9907   9909   9909   9909  10055M 10065U 10205M
                                                 10210M 10293M 10299M 10756M 10756  10759M 10871M 10955  10957  10957
                                                 10957  11070M 11087U 11239M 11246  11247  11247  11247  11255U 11379M
                                                 11385  11386  11386  11386  11503U 11646M 11652  11653  11653  11653
                                                 11690M 11732  11732  11732  11754  11756  11756  11756  11815M 11817
                                                 11951M 11968  11970  11970  11970  12006M 12008  12111M 12213  12215
                                                 12215  12215  12336M 12338  12367M 12368M 12369  12508  12786M 12788M
                                                 12885M 12892  12908  13160M 13161M 13161  13162M 13162  13165M 13404M
                                                 13446M 13446  13447M 13453M 13453  13454M 13455  13483M 13483  13484M
                                                 13485  13489M 13489  13490M 13504  13530M 13531  13534M 13535M 13536
                                                 13656M 13707M 13707  14613  14615  14615  14615  14649M 14662U 14683
                                                 14782M 14901  14903  14903  14903  14937M 14950U 14998  15073M 15870
1VBLD     (VBLD21) (09:45) (22MAR04) Ordinary Symbol and Literal Cross Reference                                            Page  134
                                                 15872  15872  15872  15962M 15972  15974  15974  15974  16067M 16075
                                                 16077  16077  16077  16148M 16156U 16410M 16416M 16432  16632M 16638M
                                                 16641M 16643  16673M 16677M 16679  16703M 16706M 16708  16750  16752M
                                                 16753M 16754M 16776M 16799M 16804M 16823M 16824M 16825M 16833U 16835M
                                                 16846U 16848M 16859U 16886M 16886
 SSYS          2 000004A8 00000001     H    7790  6535
 STACK         4 00000EE8 00000001     A    6350  6623  15285
 START         2 00000016 00000001     H    6594  6592
 STXTS         4 000035AC 00000001     A   15725 15721  15914
 SUBHDR1       2 00000270 00000001     H    7305  8403
 SUBHEAD       4 00000A4C 00000001     A    6246  6651M  7275   7405M  7405
 SWRK          8 00003728 00000001     D   15780 16443  16534  16592
 S99RB         1 00000000 FFFFFFD8     J    5463 15923U 16029U 16374U
 S99TXTPP      4 00000008 FFFFFFD8     F    5511 15925M 16031M 16377M
 S99VRBAL      1 00000001 FFFFFFD8 A   U    5467 15717
 TCB           1 00000020 FFFFFFDC     U    4253  4952  16833U
 TCBAE         4 000000BC FFFFFFDC     A    4497  4500
 TCBDARPN      1 00000040 FFFFFFDC A   U    4543  4545
 TCBDARTN      1 00000080 FFFFFFDC A   U    4540  4542
 TCBFIX        1 00000000 FFFFFFDC     J    4241  4248
 TCBMNLEN      1 00000158 FFFFFFDC A   U    4952  4997
 TCBPXLEN      1 00000020 FFFFFFDC A   U    4248  4997
 TCBRD         4 000000B8 FFFFFFDC     A    4492  4496
 TCBTIO        4 0000002C FFFFFFDC     A    4261 16835
 TCBXTNT2      1 00000000 FFFFFFDB     J    4957  4995
 TCBX2LEN      1 00000020 FFFFFFDB A   U    4995  4997
 TCDSP         2 0000366E 00000001     R   15761 15741
 TCNT          2 00003675 00000001     R   15762 15742
 TDDN          2 00003618 00000001     R   15756 15736  15750
 TDSN          2 00003626 00000001     R   15757 15737  15751  16263  16650M 16658
 TERERROR      2 00002C20 00000001     I   14480 14446B 14468B
 TFREE         2 00003699 00000001     R   15766 15747
 TIOEDDNM      8 0000001C FFFFFFDA     C    5176 16883
 TIOELNGH      1 00000018 FFFFFFDA     G    5133 16848  16859U 16877  16885
 TIOT          1 00000000 FFFFFFDA     J    5004 16846U
 TLBL          2 0000368A 00000001     R   15764 15744
 TMEM          2 00003658 00000001     R   15758 15739
 TNDSP         2 00003667 00000001     R   15760 15740
 TPROT         2 000036A5 00000001     R   15768 15748
 TPTRS         4 000035D0 00000001     A   15736 16376
 TR            3 00000003 00000001 A   #    1023  7422M  7432   7455   7462   9193M  9194M  9194   9220   9251M  9263
                                                  9728M  9729M  9729  10209M 10270M 10274M 10276  10291  10293  10294
                                                 10297  10298M 10312M 10324  10331  10336M 10337  10339M 10340M 10350U
                                                 10356M 10365M 10366M 10367  10752M 10760  10824  11063M 11074  11851M
                                                 11855  11862  12022M 12028  12032M 12042U 12124U 12154U 12520M 12556
                                                 12561M 12573  12597  12787M 13164M 13429M 13430M 13431M 13440  13441M
                                                 13442M 13448  13472M 13477  13478M 13479M 13531M 13532M 13533M 13533
                                                 13535  14729M 14739U 16864M 16864  16885M 16886
 TRCETYPE      1 00000000 FFFFFFEE     R    1424  1433   1443   1453   1463   1473   1483   1493   1503   1513
 TRETP         2 0000369D 00000001     R   15767 15746
 TSEQ          2 00003691 00000001     R   15765 15745
 TSTAT         2 00003660 00000001     R   15759 15738
 TUNA          2 000036D7 00000001     R   15769 15752
 TUNIT         2 0000367C 00000001     R   15763 15743  16344M 16349  16361M 16674M 16686M
 TunitCat      8 00003610 00000001     C   15754 16338  16344  16715M
 VBLD          1 00000000 00000001     J     990   992   1018   1031   1044   1057   1070   1083   1096   1109   1122
                                                  1143   1156   1169   1182   1195   1208   1221   1528   6085   6577
                                                  6591   7823   8418
 VBLD21        1 00000000 00000001     R     999   997
1VBLD     (VBLD21) (09:45) (22MAR04) Ordinary Symbol and Literal Cross Reference                                            Page  135
 VCAT          1 00000000 00000010     T   15666 15666
 VCATENT       1 00000000 0000000E     T   10909 10909  15640
 VCATPSW       4 00000A64 00000001     A    6253 13608M 14352  14395
 VCATRET       4 00000A68 00000001     F    6254 13607M 13654  13716  14288  14437  14452
 VCNTRL        1 00000000 00000002     T    8402  8402  16919
 VFCLS         1 00000000 0000000A     T    8426  8426
 VFIO          1 00000000 0000000C     T   10897 10897  15669
 VFOPN         1 00000000 0000000B     T   10894 10894
 VFSBDSCT      4 00000AF4 00000001     A    6266  6269   6272   6275   6278   6281   6284   6287   6290   6293   6296
                                                  6301   6305   6310  10895  15633
 VIOFREE       1 7FFFFF00 00000001 A   U    1399 10904
 VKAPUT        2 00002D7A 00000001     I   15242 15239
 VOPN          4 00000EA8 00000001     A    6324  8144   8473
 VOPN_BCV    128 00000EAC 00000001         6331  7968M
 VOPN_FL       1 00000EAC 00000001     R    6327  6331
 VPOW          4 00000ED0 00000001     A    6343  6335
 VRPBDSCT      1 00000DA8 00000001     X    6319  6317
 VRQBDSCT      1 00000CD4 00000001     X    6315  6316  10901  15634
 VSAREA        4 00000EE4 00000001     A    6349  6622M  8386
 VSEG          1 00000000 00000005     T    8414  8414  10899  11957  15635  16913
 VTRACE        2 00002D78 00000001     I   15237 15236
 VWRITE        1 00000000 00000006     T    8415  8415  16914
 VWTO          4 00002D54 00000001     I   15132 15130
 WR           13 0000000D 00000001 A   #    1114  9792   9793M  9797M 10105  10106M 10110M 10376  10377M 10381M 12718
                                                 12719M 12723M 12803  12804M 12808M 12935  12936M 12940M 13180  13181M
                                                 13185M
 WRTLN         2 00000148 00000001     H    6980  6965B  6967B  7486B  7698B  7714B  7732B  8834B  9508B  9580B  9616B
                                                  9837B 10034B 10036B 10516B 10569B 10751B 10858B 11945B 12289B 12424B
                                                 13398B 13644B 13698B 13747B 13790B 13833B 13876B 13919B 13962B 14005B
                                                 14048B 14091B 14134B 14177B 14220B 14263B 14331B 14435B 15178B
 =A(AUXROUT)
               4 000034E8 00000001     A   16912 15887  15992  16095
 =A(BASE)      4 00002F70 00000001     A   15667 14633  14921  15149  15254
 =A(CATREAD)
               4 00001B48 00000001     A   10902  8904   9871
 =A(CATWRIT)
               4 00002EE8 00000001     A   15639 12515  12605
 =A(CHKDUMP)
               4 00002370 00000001     A   11956 11776
 =A(CHKFILES)
               4 00001B88 00000001     A   10912 10047
 =A(CHKLIST)
               4 0000073C 00000001     A    8401  6630
 =A(CHKLIST)
               4 00002158 00000001     A   11705 10992
 =A(CONVDATE)
               4 00002EF4 00000001     A   15642 13030  13105
 =A(CSEQEND)
               4 00001B90 00000001     A   10914 10406
 =A(CSEQNONT)
               4 00001B94 00000001     A   10915 10420
 =A(DATASECT)
               4 00000738 00000001     A    8400  6612
 =A(DATASECT)
               4 00002F74 00000001     A   15668 14634  14922  15264
 =A(DIRBLKER)
               4 00002F48 00000001     A   15661 14116
 =A(DIRCODE)
               4 00001B98 00000001     A   10916 10434
1VBLD     (VBLD21) (09:45) (22MAR04) Ordinary Symbol and Literal Cross Reference                                            Page  136
 =A(DIRCODE)
               4 00002EF0 00000001     A   15641 12740  12825  12957  13202
 =A(DIRDELAC)
               4 00002F2C 00000001     A   15654 13815
 =A(DIRDUPER)
               4 00002F28 00000001     A   15653 13772
 =A(DIRIONF)
               4 00002F50 00000001     A   15663 14202
 =A(DIRIOS)
               4 00002F4C 00000001     A   15662 14159
 =A(DIRMODLN)
               4 00002F34 00000001     A   15656 13901
 =A(DIRNFER)
               4 00002F24 00000001     A   15652 13729
 =A(DIRNIMP)
               4 00002F68 00000001     A   15665 14245
 =A(DIRNMR)
               4 00002F40 00000001     A   15659 14030  14465
 =A(DIRNTSZ)
               4 00002F30 00000001     A   15655 13858
 =A(DIRSTOV)
               4 00002F38 00000001     A   15657 13944
 =A(DIRSTUF)
               4 00002F3C 00000001     A   15658 13987
 =A(DIRTAGER)
               4 00002F44 00000001     A   15660 14073
 =A(DUMPCAT)
               4 00000764 00000001     A    8411  6838
 =A(EXTPC)
               4 00002F80 00000001     A   15671 15583
 =A(FORMDSCT)
               4 00000758 00000001     A    8408  6753
 =A(HEADER)
               4 00000748 00000001     A    8404  6654   7014
 =A(LISTFLS)
               4 00000760 00000001     A    8410  6814
 =A(OPENFS)
               4 00000754 00000001     A    8407  6749
 =A(PASSONE)
               4 0000075C 00000001     A    8409  6790
 =A(REBUILD)
               4 0000076C 00000001     A    8413  6886
 =A(SPIOUT)
               4 00000768 00000001     A    8412  6862
 =A(SUBHDR1)
               4 00000744 00000001     A    8403  6651
 =A(VBLD)      4 00000780 00000001     A    8418  7186
 =A(VFSBDSCT)
               4 00001B14 00000001     A   10895  8595   9938
 =A(VFSBDSCT)
               4 00002ED0 00000001     A   15633 12235
 =A(VIOFREE)
               4 00001B50 00000001     A   10904  8941
 =A(VRQBDSCT)
               4 00001B44 00000001     A   10901  8882   9698   9928
 =A(VRQBDSCT)
               4 00002ED4 00000001     A   15634 12245
 =A(X'FFFFFF')
               4 00002170 00000001     A   11711 11315
1VBLD     (VBLD21) (09:45) (22MAR04) Ordinary Symbol and Literal Cross Reference                                            Page  137
 =A(1)         4 00001B54 00000001     A   10905  9090   9100   9972
 =A(1)         4 00002EDC 00000001     A   15636 12387  12561  13524  13544
 =A(1)         4 00003534 00000001     A   16921 16754  16776  16777
 =A(100)       4 00001B58 00000001     A   10906  9146   9160
 =A(100)       4 00002F10 00000001     A   15647 13484  13490
 =A(10000)
               4 00002F0C 00000001     A   15646 13447
 =A(10546875)
               4 00002F18 00000001     A   15649 13539
 =A(2)         4 00002180 00000001     A   11715 11487
 =A(2)         4 00002F14 00000001     A   15648 13504
 =A(4)         4 00001B18 00000001     A   10896  8610
 =A(4)         4 00002174 00000001     A   11712 11361  11687
 =A(4)         4 00002EE0 00000001     A   15637 12393  13454
 =A(59)        4 00000778 00000001     A    8416  7006
 =A(6)         4 00001B5C 00000001     A   10907  9241
 =A(6)         4 0000217C 00000001     A   11714 11446
 =A(8)         4 00001B84 00000001     A   10911  9954
 =A(9999)      4 0000215C 00000001     A   11706 11021
 =AL2(L'LINE1)
               2 00002188 00000001     R   11717 11013
 =AL2(L'LINE10)
               2 000021CA 00000001     R   11728 11058
 =AL2(L'LINE11)
               2 000021CC 00000001     R   11729 11059
 =AL2(L'LINE2)
               2 0000218A 00000001     R   11718 11016
 =AL2(L'LINE3)
               2 000021B2 00000001     R   11720 11020
 =AL2(L'LINE4)
               2 000021B4 00000001     R   11721 11031
 =AL2(L'LINE5)
               2 000021B6 00000001     R   11722 11035
 =AL2(L'LINE6)
               2 000021C2 00000001     R   11724 11041
 =AL2(L'LINE7)
               2 000021C4 00000001     R   11725 11047
 =AL2(L'LINE8)
               2 000021C6 00000001     R   11726 11048
 =AL2(L'LINE9)
               2 000021C8 00000001     R   11727 11053
 =AL4(ACCMODE)
               4 00001B8C 00000001     R   10913 10157
 =AL4(51)      4 0000216C 00000001     R   11710 11270
 =AL4(58)      4 00002178 00000001     R   11713 11399
 =C'            Catalog rebuilt, '
              29 00003095 00000001     C   15688 13262
 =C'            Catalog Successfully Dumped'
              39 00002378 00000001     C   11958 11938
 =C'            Largest FD entry was '
              33 00001C91 00000001     C   10944 10764
 =C'    ---   '
              10 000021CE 00000001     C   11730 11321
 =C'   '       3 00003147 00000001     C   15700 15394
 =C' - REBUILD needed.'
              18 00001C50 00000001     C   10940 10716
 =C' - REBUILD with larger file needed.'
              35 000030B2 00000001     C   15689 13363
 =C' '         1 000021E4 00000001     C   11733 10986
1VBLD     (VBLD21) (09:45) (22MAR04) Ordinary Symbol and Literal Cross Reference                                            Page  138
 =C' '         1 0000313D 00000001     C   15698 15317  15442  15490  15538
 =C' = ECB. File System I/O error'
              29 0000088D 00000001     C    8438  7546
 =C' free blocks'
              12 00001BB0 00000001     C   10918 10689
 =C' free blocks'
              12 00002EFC 00000001     C   15644 13336
 =C' Accounts processed.'
              20 00001B9C 00000001     C   10917 10509
 =C' Blocks in Catalog'
              18 00001C20 00000001     C   10936 10027
 =C' Bytes in File-Directory, '
              26 00001C36 00000001     C   10939 10615
 =C' Files processed.'
              17 00001C7F 00000001     C   10942 10562
 =C' R4VCAT+0'
               9 0000313E 00000001     C   15699 15348
 =C' VCAT+0'
               7 00003136 00000001     C   15697 14389
 =C'.'         1 00001C90 00000001     C   10943 10740
 =C'.'         1 000030D5 00000001     C   15690 13387
 =C'.DIRDUMP'
               8 000034E0 00000001     C   16911 16663
 =C'(Continued)'
              11 00002225 00000001     C   11740 11422
 =C'(See next page)'
              15 00002215 00000001     C   11738 11061
 =C'(004) CATALOG file too small, Re-Build bypassed'
              47 00003065 00000001     C   15686 12417
 =C'(006) Catalog errors, Re-Build bypassed'
              39 0000303E 00000001     C   15685 12282
 =C'|'         1 000030D6 00000001     C   15691 13637
 =C') Reason code('
              14 00003556 00000001     C   16923 16559
 =C')'         1 00003587 00000001     C   16926 16468  16617
 =C', Average length is '
              20 00001BBC 00000001     C   10919 10812
 =C'"'         1 0000088C 00000001     C    8437  7376
 =C'Account '
               8 000006E8 00000001     C    8395  6947
 =C'Account'
               7 000021F6 00000001     C   11735 11037
 =C'Allocation'
              10 000021B8 00000001     C   11723 11038
 =C'Block number doesn''t match'
              26 00003018 00000001     C   15682 14127
 =C'Block out of range error'
              24 00000700 00000001     C    8398  7494
 =C'Block tags don''t match'
              22 00003002 00000001     C   15681 14084
 =C'Can''t change entry size w/out indication on search'
              50 00002FC2 00000001     C   15679 13912
 =C'Can''t delete account with files'
              31 000030D7 00000001     C   15692 13826
 =C'Can''t insert duplicate'
              22 00002F9A 00000001     C   15677 13783
 =C'Catalog base block invalid'
              26 0000084E 00000001     C    8434  7650
 =C'Catalog block count invalid'
1VBLD     (VBLD21) (09:45) (22MAR04) Ordinary Symbol and Literal Cross Reference                                            Page  139
              27 00000917 00000001     C    8442  7663
 =C'Catalog Block Header length error'
              33 000008F6 00000001     C    8441  7637
 =C'Catalog Format Error'
              20 000007C0 00000001     C    8424  7676
 =C'Catalog Open Error'
              18 0000083C 00000001     C    8433  7624
 =C'Checkpoint recovery must be on unless RESTART set'
              49 000008C5 00000001     C    8440  7572
 =C'Checkpoint Block Incomplete'
              27 000008AA 00000001     C    8439  7559
 =C'Creation Date'
              13 000021FD 00000001     C   11736 11051
 =C'CATSB/CATBC and ~RESTART is an invalid combination'
              50 0000080A 00000001     C    8432  7479
 =C'CHECKPOINT format is current'
              28 00001B68 00000001     C   10910  9830
 =C'Dump Tape Open Error'
              20 000007AC 00000001     C    8423  7611
 =C'Dynamic allocation error. Return('
              33 00003566 00000001     C   16925 16420
 =C'Error code('
              11 00003588 00000001     C   16927 16501
 =C'Filename'
               8 000006F0 00000001     C    8396  6956
 =C'Filename'
               8 00002150 00000001     C   11704 11050
 =C'Function not implemented'
              24 00002EB0 00000001     C   15631 14256
 =C'FSMB converted to new format.'
              29 00001C62 00000001     C   10941  9609
 =C'FSMB Header Error, Length = '
              28 00001B20 00000001     C   10898  8786
 =C'I/O buffer not found'
              20 00002F54 00000001     C   15664 14213
 =C'Invalid entry size'
              18 00002FB0 00000001     C   15678 13869
 =C'Invalid parameter in parm string'
              32 00000718 00000001     C    8399  7707
 =C'KAPUT '
               6 00003038 00000001     C   15684 15289
 =C'Last access'
              11 0000220A 00000001     C   11737 11052
 =C'Leaf not found'
              14 00002F8C 00000001     C   15676 13740
 =C'Length  '
               8 000006E0 00000001     C    8394  6938
 =C'Module: '
               8 00002EA8 00000001     C   15630 13648
 =C'New Catalog block count = '
              26 00001C06 00000001     C   10935  9532
 =C'New Catalog start block = '
              26 00001BEC 00000001     C   10934  9460
 =C'No more room in directory'
              25 00003105 00000001     C   15694 14041
 =C'No more I/O space'
              17 0000311E 00000001     C   15695 14170
 =C'ORVYL File System'
              17 000021E5 00000001     C   11734 11015
1VBLD     (VBLD21) (09:45) (22MAR04) Ordinary Symbol and Literal Cross Reference                                            Page  140
 =C'Page  '
               6 000007F4 00000001     C    8427  6929
 =C'Page '
               5 00000887 00000001     C    8436  7085
 =C'Page'      4 00002164 00000001     C   11708 11029
 =C'Return: '
               8 00002EC8 00000001     C   15632 14282
 =C'Run date is '
              12 00000784 00000001     C    8419  7235
 =C'Run Parm="'
              10 000007FE 00000001     C    8430  7350
 =C'R14 = 0'
               7 0000312F 00000001     C   15696 14341
 =C'Stack overflow'
              14 00002FF4 00000001     C   15680 13955
 =C'Stack underflow'
              15 000030F6 00000001     C   15693 13998
 =C'Unable to determine tape prefix.'
              32 000034B0 00000001     C   16908 16278
 =C'Unable to open "CONTROL" file.'
              30 00003538 00000001     C   16922 16177
 =C'Used'      4 00002168 00000001     C   11709 11039
 =C'Value omitted in parm string'
              28 000007D4 00000001     C    8425  7691
 =C'Version='
               8 000006F8 00000001     C    8397  7180
 =C'VBLD -- File Directory Re-Build'
              31 00000868 00000001     C    8435  7057
 =C'VBLD Terminated - Insufficient Memory'
              37 00000932 00000001     C    8443  7723
 =C'VKAPUT'
               6 00003032 00000001     C   15683 15278
 =C'Work File Open Error'
              20 00000798 00000001     C    8422  7598
 =CL44' '     44 000034FC 00000001     C   16917 16263
 =CL8' '       8 000034D0 00000001     C   16909 16338  16349  16674
 =CL8'CATDUMP'
               8 000034A0 00000001     C   16906 16108
 =CL8'CONTROL'
               8 000034A8 00000001     C   16907 16125
 =CL8'FILES'
               8 00003498 00000001     C   16905 16005  16019
 =CL8'LIST'
               8 00001B08 00000001     C   10893 10044
 =CL8'LIST'
               8 00002148 00000001     C   11703 10989
 =CL8'TAPE'
               8 000034D8 00000001     C   16910 16361
 =CL8'VBLDPRT'
               8 000006D8 00000001     C    8393  6627   6640
 =PL1'1'       1 00002224 00000001     P   11739 11257  11412  11668
 =V(BTD)       4 0000077C 00000001     V    8417  7114
 =V(BTD)       4 00001B40 00000001     V   10900  8812  10667  10790  10838
 =V(BTD)       4 00002EF8 00000001     V   15643 13314  14311
 =V(BTD)       4 00003528 00000001     V   16918 16446
 =V(BTDC)      4 00001B60 00000001     V   10908  9486   9558  10005  10487  10540  10593
 =V(BTX)       4 00000794 00000001     V    8421  7526
 =V(BTX)       4 00002F1C 00000001     V   15650 13678  14369  14415  15374  15422  15470  15518  15566
 =V(BTX)       4 00003530 00000001     V   16920 16537  16595
1VBLD     (VBLD21) (09:45) (22MAR04) Ordinary Symbol and Literal Cross Reference                                            Page  141
 =V(FMTCLCK)
               4 00000790 00000001     V    8420  7245
 =V(FMTCLCK)
               4 00002160 00000001     V   11707 11026
 =V(FMTDATE)
               4 00002184 00000001     V   11716 11570  11618
 =V(FMTTIME)
               4 00002F7C 00000001     V   15670 15328
 =V(SCAN)      4 00000750 00000001     V    8406  6693
 =V(SCAN)      4 000034F8 00000001     V   16916 16254
 =V(SCINIT)
               4 0000074C 00000001     V    8405  6677
 =V(SCINIT)
               4 000034F4 00000001     V   16915 16238
 =V(VCAT)      4 00002F6C 00000001     V   15666 14396  15355
 =V(VCATENT)
               4 00001B64 00000001     V   10909  9794  10107  10378
 =V(VCATENT)
               4 00002EEC 00000001     V   15640 12720  12805  12937  13182
 =V(VCNTRL)
               4 00000740 00000001     V    8402  6649   6924   7052   7080   7175   7230   7345   8377
 =V(VCNTRL)
               4 0000352C 00000001     V   16919 16496
 =V(VFCLS)
               4 000007F0 00000001     V    8426  8147
 =V(VFIO)      4 00001B1C 00000001     V   10897  8696   9373
 =V(VFIO)      4 00002F78 00000001     V   15669 14686  15001
 =V(VFOPN)
               4 00001B10 00000001     V   10894  8517
 =V(VSEG)      4 00000770 00000001     V    8414  6933   6942   6951   6960   7061   7089   7131   7184   7206   7239
                                                  7262   7354   7371   7380   7483   7498   7541   7550   7563   7576
                                                  7602   7615   7628   7641   7654   7667   7680   7695   7711   7727
 =V(VSEG)      4 00001B3C 00000001     V   10899  8790   8829   9464   9503   9536   9575   9613   9834  10022  10031
                                                 10504  10513  10557  10566  10610  10619  10684  10693  10720  10744
                                                 10768  10807  10816  10855
 =V(VSEG)      4 00002374 00000001     V   11957 11942
 =V(VSEG)      4 00002ED8 00000001     V   15635 12286  12421  13266  13331  13340  13367  13391  13630  13641  13652
                                                 13695  13744  13787  13830  13873  13916  13959  14002  14045  14088
                                                 14131  14174  14217  14260  14286  14328  14345  14384  14393  14432
                                                 15175  15293  15312  15321  15343  15352  15389  15398  15437  15446
                                                 15485  15494  15533  15542  15581
 =V(VSEG)      4 000034EC 00000001     V   16913 16181  16282  16424  16463  16472  16505  16554  16563  16612  16621
 =V(VWRITE)
               4 00000774 00000001     V    8415  6987   7136   7211   7267   7385   7395
 =V(VWRITE)
               4 000034F0 00000001     V   16914 16186  16287  16477  16626
 =X'FF'        1 00003094 00000001     X   15687 12658
 =X'000000FF'
               4 00002F20 00000001     X   15651 13717  14289  14453
 =X'0000000C'
               4 00002F08 00000001     X   15645 13431
 =X'402020612020612020'
               9 00002230 00000001     X   11741 11546  11594
 =X'40206B2020206B202120'
              10 000021D8 00000001     X   11731 11338  11351
 =Y((RAR+1-(R2)+16*((R2)/(RAR+1))/((R2)/(RAR+1)))*4)
               2 00000808 00000001     Y    8431  7407
 =Y((RAR+1-(SR)+16*((SR)/(RAR+1))/((SR)/(RAR+1)))*4)
               2 000007FA 00000001     Y    8428  6969   7295   7464
1VBLD     (VBLD21) (09:45) (22MAR04) Ordinary Symbol and Literal Cross Reference                                            Page  142
 =Y((RAR+1-(SR)+16*((SR)/(RAR+1))/((SR)/(RAR+1)))*4)
               2 000021E2 00000001     Y   11732 11378  11645  11689
 =Y(CCAT1MIN)
               2 00001BE6 00000001     Y   10931  9149   9151
 =Y(CCAT1PCT)
               2 00001BE4 00000001     Y   10930  9141
 =Y(CCAT2MIN)
               2 00001BEA 00000001     Y   10933  9163   9165
 =Y(CCAT2PCT)
               2 00001BE8 00000001     Y   10932  9155
 =Y(CDSKHSIZ)
               2 00001BD4 00000001     Y   10922  9069
 =Y(CFSBDBLK+1)
               2 00002F86 00000001     Y   15673 12495  12499  12519  12520
 =Y(CFSBPL)
               2 00001BD0 00000001     Y   10920  8934
 =Y(CNODA99)
               2 00001BD8 00000001     Y   10924  9076   9078
 =Y(CNODF99)
               2 00001BDC 00000001     Y   10926  9081   9083
 =Y(CNTAMXL)
               2 00001BE0 00000001     Y   10928  9106
 =Y(CNTFMXL)
               2 00001BE2 00000001     Y   10929  9108
 =Y(L'NODE+CNODNLLN)
               2 00001BD6 00000001     Y   10923  9073
 =Y(L'NTRYFL+1)
               2 00001BDE 00000001     Y   10927  9084  10296
 =Y(L'NTRYFL-L'NXRYFL)
               2 00001C34 00000001     Y   10938 10262
 =Y(L'NTRYGR)
               2 00001BDA 00000001     Y   10925  9079  10208
 =Y(L'NTRYGR-L'NXRYGR)
               2 00001C32 00000001     Y   10937 10197
 =Y(1)         2 00002F84 00000001     Y   15672 12493
 =Y(30)        2 00002F8A 00000001     Y   15675 13534
 =Y(365)       2 00002F88 00000001     Y   15674 13449
 =Y(4)         2 000007FC 00000001     Y    8429  7021
 =Y(4)         2 00003564 00000001     Y   16924 16798
 =Y(8)         2 00001BD2 00000001     Y   10921  9067
 =38C'_'       1 0000218C 00000001     C   11719 11018  11033  11043  11044  11045  11055  11056  11057
 =4AL1(NIL)
               1 00001B4C 00000001     R   10903  8939
 =4AL1(NIL)
               1 00002EE4 00000001     R   15638 12497  12498  12580  12615

1VBLD     (VBLD21) (09:45) (22MAR04) Macro and Copy Code Source Summary                                                     Page  143
- Con Source                                        Volume    Members                        HLASM R4.0  2004/03/22 09.45
0     PRIMARY INPUT                                           CHKPREC  CSECT    DROP     DSKCHN   END      ERRCODE  EX
                                                              LTORG    POP      PRINT    PUSH     START    TOCAT
                                                              TOTAL    USING    VCAT     VWRT
   L2 WYL.GG.SYS.MACLIB                             SYSB05    $BC      $BFLKUP  $BV      $CCLKUP  $CRS     $CSS     $L
                                                              $LA      $LBLAD   $LEXP    $LOR     $REL     $RGLKUP
                                                              $USLKUP  ACALL    BASE     BEGIN    CLEAR    CSECT    DATA
                                                              DECR     DEFCC    DEX      DROP     ELSE     ELSEIF   END
                                                              EX       FLAG     FLOOR    GEN      HIBAL    IDENT    IF
                                                              INCR     LABEL    LC       LCALL    LCM      LOOP     LS
                                                              LT       LTORG    L2       L3       L4       POP
                                                              PRINT    PUSH     RECORD   REG      REGS     SET
                                                              START    ST3      ST4      SYSLR    SYSQS    UNTIL
                                                              USING    VCALL    WHILE    WITH     ZOT
   L3 WYL.GG.ORV.BC.MACLIB                          SYSB02    BTD      BTX      CBORG    CHKPNT   FSBGEN   IOB
                                                              NXRYFL   NXRYGR   RPBBASIC RPBFILE  RPBIOB   RPBL     SCAN
                                                              SCANCB   SCINIT   SCKW     SCRTN    SEGDC    SEGHX
                                                              TRCENTRY VCNTL    VENTER   VEXIT    VFAREA   VPOP
                                                              VPUSH    VREST    VSAVE    VSEG     VWRITE   XCALL
   L5 WYL.GG.ORV.MACLIB                             SYSB02    CATCODE  CATRQBL  DSKBLK   FBHDR    FILCONST FPC      FSB
                                                              FSMB     GENCAT   NODE     NTRY
   L6 SYS3.MACLIB                                   SYSB02    QSNAP
   L7 SYS1.MACLIB                                   MVSBR9    CLOSE    DCB      DCBD     DYNALLOC FREEMAIN FREEPOOL GET
                                                              GETMAIN  IEFSJDKY IEFTIOT1 IEFZB4D0 IEFZB4D2 IHBERMAC
                                                              IHBINNRA IHB01    IKJTCB   OPEN     PUT      SYSSTATE WAIT
                                                              WTO

1         (VBLD21) (09:45) (22MAR04) General Purpose Register Cross Reference                                               Page  144
- Register  References (M=modified, B=branch, U=USING, D=DROP, N=index)                      HLASM R4.0  2004/03/22 09.45
0    0(0)      983U   984D  6595   6633M  6657M  6908M  6930M  6939M  6948M  6957M  7039M  7058M  7064M  7086M  7104M
              7159M  7181M  7190M  7190   7191M  7214M  7236M  7241M  7329M  7351M  7368M  7377M  7432M  7454M  7460M
              7462M  7480M  7495M  7516M  7547M  7560M  7573M  7599M  7612M  7625M  7638M  7651M  7664M  7677M  7692M
              7708M  7724M  7805   8038M  8063M  8088M  8113M  8208M  8213M  8261M  8266M  8341M  8346M  8364M  8388M
              8715M  8787M  8802M  8802   9145M  9145   9146M  9159M  9159   9160M  9392M  9461M  9476M  9476   9533M
              9548M  9548   9610M  9831M  9953M  9953   9954M  9963M  9963   9980   9995M 10028M 10368M 10450M 10477M
             10510M 10530M 10563M 10583M 10616M 10637M 10646  10657M 10657  10690M 10717M 10741M 10765M 10780M 10780
             10813M 10828M 10828  10979  10980M 10981  10987M 11022M 11074M 11200M 11205M 11226M 11231M 11286M 11293M
             11302M 11302  11303M 11315  11337  11348M 11348  11349M 11350  11360M 11361M 11362  11366M 11408M 11426M
             11433M 11440M 11469M 11476M 11486M 11487M 11488  11529M 11543  11544  11545  11577M 11591  11592  11593
             11627M 11628M 11629  11633M 11657M 11664M 11676M 11683M 11855M 11862M 11898M 11903M 11924M 11929M 11939M
             12028M 12131M 12182M 12283M 12366M 12366  12369M 12378M 12378  12418M 12492M 12535M 12580M 12597M 12602
             12625M 12691M 12696  12716M 12790M 12908M 12913  12933M 13033  13108  13167M 13238M 13263M 13304M 13304
             13337M 13364M 13388M 13541M 13544M 13627M 13638M 13649M 13668M 13741M 13784M 13827M 13870M 13913M 13956M
             13999M 14042M 14085M 14128M 14171M 14214M 14257M 14283M 14301M 14342M 14359M 14390M 14405M 14405  14452M
             14453M 14465  14565M 14705M 14851M 14972  15020M 15159M 15159  15278M 15284  15290M 15309M 15318M 15324M
             15349M 15364M 15364  15395M 15412M 15443M 15460M 15491M 15508M 15539M 15556M 15914M 15925  16020M 16031
             16178M 16210M 16228M 16279M 16318M 16323M 16376M 16377  16421M 16436M 16436  16469M 16480M 16502M 16527M
             16560M 16585M 16618M 16638  16659M 16662  16673  16703  16740M 16740  16753  16777M
     1(1)      979U  6595   6625   6626   6627M  6640M  6656M  6658M  6686M  6915M  6929M  6938M  6947M  6956M  6992M
              6993M  6994   7006   7043M  7043   7057M  7071M  7085M  7111M  7155M  7156M  7157   7166M  7180M  7186M
              7192M  7221M  7235M  7241M  7271M  7272   7336M  7350M  7363M  7376M  7422   7434M  7434   7453   7455M
              7460M  7461M  7479M  7494M  7523M  7546M  7559M  7572M  7584M  7598M  7611M  7624M  7637M  7650M  7663M
              7676M  7691M  7707M  7723M  8025M  8026M  8026   8041M  8041   8050M  8051M  8051   8066M  8066   8075M
              8076M  8076   8091M  8091   8100M  8101M  8101   8116M  8116   8144M  8163U  8168M  8187M  8193M  8194
              8197   8203   8205M  8205   8206M  8208M  8209M  8209   8212M  8212   8213   8214M  8221M  8240M  8246M
              8247   8250   8256   8258M  8258   8259M  8261M  8262M  8262   8265M  8265   8266   8267M  8274M  8293M
              8301M  8320M  8326M  8327   8330   8336   8338M  8338   8339M  8341M  8342M  8342   8345M  8345   8346
              8347M  8360U  8368M  8368   8388M  8473M  8581M  8582   8585   8586M  8587   8590   8611M  8612   8613M
              8614M  8614   8615M  8621   8625M  8630   8693M  8717M  8786M  8809M  8901M  8901   8929M  8938M  8940
              9114M  9115M  9116M  9126   9133   9140M  9141M  9146M  9149   9151M  9152   9154M  9155M  9160M  9163
              9165M  9166   9229M  9241   9251   9370M  9394M  9460M  9483M  9532M  9555M  9609M  9830M  9858M  9867
              9949M  9954M  9972M  9979  10002M 10027M 10044M 10051M 10141U 10371M 10373  10387U 10445M 10447M 10448M
             10449  10453M 10455  10484M 10509M 10537M 10562M 10590M 10615M 10621M 10631U 10644U 10664M 10689M 10716M
             10740M 10757M 10758M 10759  10764M 10787M 10812M 10835M 10864M 10975M 10978  10979M 10980  10981M 10987M
             10989M 10996M 11022M 11073M 11076  11169M 11177M 11185M 11186  11189  11195  11197M 11197  11198M 11200M
             11201M 11201  11204M 11204  11205  11206M 11211M 11212  11215  11221  11223M 11223  11224M 11226M 11227M
             11227  11230M 11230  11231  11232M 11285M 11288  11292M 11295  11365M 11368  11407M 11410  11425M 11428
             11432M 11435  11439M 11442  11468M 11471  11475M 11478  11507D 11509M 11509  11510M 11511U 11513  11566M
             11566  11614M 11614  11632M 11635  11656M 11659  11663M 11666  11675M 11678  11682M 11685  11780M 11786M
             11794U 11818M 11843U 11854M 11857  11861M 11864  11875M 11883M 11884  11887  11893  11895M 11895  11896M
             11898M 11899M 11899  11902M 11902  11903  11904M 11909M 11910  11913  11919  11921M 11921  11922M 11924M
             11925M 11925  11928M 11928  11929  11930M 11938M 11990M 11996M 12004U 12014U 12027M 12030  12102M 12130M
             12133  12158D 12160M 12160  12161M 12162U 12164  12181M 12184  12282M 12298M 12311U 12316M 12345U 12362M
             12369M 12387M 12392M 12393M 12405  12417M 12491M 12491  12492M 12494M 12495M 12496  12512M 12512  12534M
             12534  12535M 12556M 12557  12615M 12619  12624M 12627  12690M 12772U 12797U 12801  12879M 12907M 12989U
             13174U 13178  13237M 13240  13253M 13262M 13311M 13336M 13363M 13387M 13409  13548M 13620M 13637M 13648M
             13675M 13740M 13783M 13826M 13869M 13912M 13955M 13998M 14041M 14084M 14127M 14170M 14213M 14256M 14282M
             14308M 14341M 14366M 14389M 14412M 14563M 14564  14683M 14707M 14778M 14849M 14850  14998M 15022M 15069M
             15284  15289M 15295M 15317M 15324M 15348M 15371M 15394M 15419M 15442M 15467M 15490M 15515M 15538M 15563M
             15900  15915M 15923U 15931U 15934M 16005M 16021M 16029U 16037U 16039M 16108M 16125M 16144M 16177M 16209M
             16212  16221M 16247M 16278M 16297M 16303M 16304  16307  16313  16315M 16315  16316M 16318M 16319M 16319
             16322M 16322  16323  16324M 16366M 16374U 16383U 16385M 16420M 16443M 16468M 16487M 16501M 16534M 16559M
             16592M 16617M 16658M 16662M 16752
     2(2)      975U  6595   6626M  6903   6970M  7034   7296M  7307   7310M  7311M  7313M  7363   7408M  7420   7453M
1         (VBLD21) (09:45) (22MAR04) General Purpose Register Cross Reference                                               Page  145
              7454   7461   7465M  7805M  7808M  7810   8388M  8456   8545M  8556   8621M  8630   8649   8654M  8693
              8839M  8930M  8942   8946M  8962M  9298M  9370   9627M  9643M  9795M  9896M  9907  10055M 10108M 10205M
             10210M 10293M 10299M 10379M 10756M 10756  10759M 10871M 10955  11070M 11087U 11158U 11239M 11246  11379M
             11385  11646M 11652  11690M 11754  11815M 11817  11951M 11968  12006M 12008  12111M 12213  12336M 12338
             12367M 12368M 12369  12508  12521M 12522  12528  12552M 12616M 12620  12721M 12786M 12788M 12806M 12882D
             12884M 12884  12885M 12892  12908N 12938M 13160M 13161M 13161N 13162M 13162N 13165M 13183M 13404M 13409
             13446M 13446  13447M 13453M 13453  13454M 13455  13483M 13483  13484M 13485  13489M 13489  13490M 13504
             13530M 13531  13534M 13535M 13536  13548M 13656M 13707M 13707  14613  14649M 14683  14782M 14901  14937M
             14998  15073M 15119U 15284  15870  15962M 15972  16067M 16075  16148M 16199U 16410M 16416M 16432  16632M
             16638M 16641M 16643  16673M 16677M 16679  16703M 16706M 16708  16750  16752M 16753M 16754M 16776M 16799M
             16804M 16823M 16824M 16825M 16835M 16848M 16886M 16886  16900U
     3(3)      971U  6595   6903   6970M  7034   7296M  7307   7312M  7322M  7322   7368   7408M  7420   7422M  7432
              7455   7462   7465M  8388M  8456   8545M  8556   8931M  8933M  8934M  8935M  8935N  8936   8942   9193M
              9194M  9194   9220   9251M  9263   9728M  9729M  9729N  9794M  9796B  9896M  9907  10107M 10109B 10209M
             10210M 10267D 10269M 10269  10270M 10271U 10274M 10276  10291  10293N 10294N 10297  10298M 10299M 10312M
             10324  10331  10336M 10337  10339M 10340M 10350U 10356M 10363U 10365M 10366M 10367  10378M 10380B 10752M
             10759M 10760  10824  10871M 10955  11063M 11074  11239M 11246  11379M 11385  11646M 11652  11690M 11754
             11851M 11855  11862  11951M 11968  12022M 12028  12032M 12042U 12093U 12111M 12124U 12140U 12154U 12191U
             12213  12520M 12556  12561M 12573  12597  12617M 12620  12720M 12722B 12787M 12788M 12805M 12807B 12937M
             12939B 13164M 13165M 13182M 13184B 13404M 13409  13429M 13430M 13431M 13440  13441M 13442M 13447M 13448
             13454M 13472M 13477  13478M 13479M 13484M 13490M 13531M 13532M 13533M 13533N 13535  13548M 14613  14729M
             14739U 14751U 14782M 14901  15073M 15284  15870  15962M 15972  16067M 16075  16410M 16632M 16804M 16864M
             16864  16885M 16886N
     4(4)      967U  6595   6903   6970M  7034   7296M  7307   7309M  7387M  7397M  7398   7408M  7420   7465M  8388M
              8456   8545M  8556   8937M  8942M  9006M  9007M  9007   9020   9027M  9028M  9028   9041   9065M  9066
              9067M  9068   9069M  9070   9071   9072   9073M  9074   9075   9076M  9077   9078M  9079M  9080   9081M
              9082   9083M  9084M  9085   9086M  9087M  9090M  9091M  9092M  9093M  9093   9094M  9095   9096M  9097M
              9100M  9101M  9102M  9103M  9103   9104M  9105   9106M  9107   9108M  9109   9111M  9112M  9113M  9126
              9133M  9138   9896M  9907  10174M 10175M 10176  10177M 10178M 10179  10180M 10181M 10191U 10217U 10239M
             10240M 10241  10242M 10243M 10244  10245M 10246M 10256U 10306U 10871M 10955  11239M 11246  11379M 11385
             11646M 11652  11690M 11754  11951M 11968  12111M 12213  12431M 12441U 12460U 12463M 12473U 12485  12506U
             12518M 12519M 12546M 12546  12608M 12618M 12620M 12621M 12625  12629M 12637U 12664U 12686U 12696M 12699M
             12701  12761M 12762M 12762  12801M 12851U 12875U 12913M 12916M 12918  12978M 12979M 12979  13178M 13228U
             13234M 13238  13242M 13404M 13409  13548M 14613  14782M 14901  15073M 15284  15870  15900M 15962M 15972
             16067M 16075  16410M 16632M 16804M
     5(5)      963U  6595   6903   6970M  7034   7296M  7307   7408M  7420   7465M  8388M  8456   8545M  8556   8882M
              8892U  8912U  9698M  9708U  9879U  9896M  9907   9928M  9936U 10871M 10886U 10955  11239M 11246  11379M
             11385  11646M 11652  11690M 11754  11951M 11968  12111M 12213  12245M 12253U 13404M 13409  13548M 13556U
             13574U 14497U 14544U 14582U 14608U 14613  14782M 14790U 14830U 14869U 14896U 14901  15073M 15081U 15284
             15870  15962M 15972  16067M 16075  16410M 16632M 16804M
     6(6)      959U  6595   6598M  6608U  6903   6970M  7034   7296M  7307   7408M  7420   7465M  8388M  8456   8545M
              8556   9896M  9907  10871M 10955  11239M 11246  11379M 11385  11646M 11652  11690M 11754  11951M 11968
             12111M 12213  13404M 13409  13548M 14613  14633M 14782M 14901  14921M 15073M 15108U 15149M 15157U 15209U
             15254M 15262U 15284  15613U 15870  15962M 15972  16067M 16075  16410M 16632M 16804M
     7(7)      955U  6595   6903   6970M  7034   7296M  7307   7408M  7420   7465M  8388M  8456   8461M  8471U  8545M
              8556   8561M  8571U  8574U  9896M  9907   9912M  9922U  9925U 10871M 10955  10960M 10970U 10973U 11239M
             11246  11379M 11385  11646M 11652  11690M 11754  11759M 11769U 11772U 11951M 11968  11973M 11983U 11986U
             12111M 12213  12218M 12228U 12231U 13404M 13409  13414M 13424U 13427U 13548M 13587  13592M 14481M 14515
             14520M 14587M 14613  14618M 14628U 14631U 14782M 14801  14806M 14874M 14901  14906M 14916U 14919U 15073M
             15103U 15132  15137M 15182M 15204U 15242M 15284  15608U 15870  15875M 15885U 15887M 15895U 15898U 15962M
             15972  15977M 15987U 15990U 15992M 16000U 16003U 16067M 16075  16080M 16090U 16093U 16095M 16103U 16106U
             16410M 16632M 16804M
     8(8)      951U  6595   6903   6970M  7034   7296M  7307   7408M  7420   7465M  8388M  8456   8457M  8544   8545M
              8556   8557M  9895   9896M  9907   9908M 10870  10871M 10955  10956M 11238  11239M 11246  11379M 11385
             11646M 11652  11690M 11754  11755M 11950  11951M 11968  11969M 12110  12111M 12213  12214M 13403  13404M
             13409  13410M 13547  13548M 13587  13588M 14480  14481M 14515  14516M 14586  14587M 14613  14614M 14781
             14782M 14801  14802M 14873  14874M 14901  14902M 15072  15073M 15132  15133M 15181  15182M 15284  15870
             15871M 15961  15962M 15972  15973M 16066  16067M 16075  16076M 16409  16410M 16631  16632M 16803  16804M
     9(9)      947U  6595   6630M  6631M  6631B  6649M  6650M  6650B  6654M  6655M  6655B  6749M  6750M  6750B  6753M
1         (VBLD21) (09:45) (22MAR04) General Purpose Register Cross Reference                                               Page  146
              6754M  6754B  6790M  6791M  6791B  6814M  6815M  6815B  6838M  6839M  6839B  6862M  6863M  6863B  6886M
              6887M  6887B  6903   6924M  6925M  6925B  6933M  6934M  6934B  6942M  6943M  6943B  6951M  6952M  6952B
              6960M  6961M  6961B  6965M  6967M  6970M  6971B  6982   6987M  6988M  6988B  7014M  7015M  7015B  7022M
              7023B  7034   7052M  7053M  7053B  7061M  7062M  7062B  7080M  7081M  7081B  7089M  7090M  7090B  7131M
              7132M  7132B  7136M  7137M  7137B  7175M  7176M  7176B  7184M  7185M  7185B  7206M  7207M  7207B  7211M
              7212M  7212B  7230M  7231M  7231B  7239M  7240M  7240B  7262M  7263M  7263B  7267M  7268M  7268B  7275M
              7276M  7276   7289M  7289B  7296M  7297B  7307   7345M  7346M  7346B  7354M  7355M  7355B  7371M  7372M
              7372B  7380M  7381M  7381B  7385M  7386M  7386B  7395M  7396M  7396B  7408M  7409B  7420   7465M  7466B
              7483M  7484M  7484B  7486M  7498M  7499M  7499B  7541M  7542M  7542B  7550M  7551M  7551B  7563M  7564M
              7564B  7576M  7577M  7577B  7602M  7603M  7603B  7615M  7616M  7616B  7628M  7629M  7629B  7641M  7642M
              7642B  7654M  7655M  7655B  7667M  7668M  7668B  7680M  7681M  7681B  7695M  7696M  7696B  7698M  7711M
              7712M  7712B  7714M  7727M  7728M  7728B  7732M  8147M  8148M  8148B  8377M  8378M  8378B  8388M  8456
              8517M  8518M  8518B  8545M  8546B  8556   8584M  8589M  8696M  8697M  8697B  8790M  8791M  8791B  8829M
              8830M  8830B  8834M  8904M  8905M  8905B  9373M  9374M  9374B  9464M  9465M  9465B  9503M  9504M  9504B
              9508M  9536M  9537M  9537B  9575M  9576M  9576B  9580M  9613M  9614M  9614B  9616M  9796M  9834M  9835M
              9835B  9837M  9871M  9872M  9872B  9896M  9897B  9907   9978M 10022M 10023M 10023B 10031M 10032M 10032B
             10034M 10036M 10047M 10048M 10048B 10109M 10380M 10434M 10435M 10435B 10504M 10505M 10505B 10513M 10514M
             10514B 10516M 10557M 10558M 10558B 10566M 10567M 10567B 10569M 10610M 10611M 10611B 10619M 10620M 10620B
             10684M 10685M 10685B 10693M 10694M 10694B 10720M 10721M 10721B 10744M 10745M 10745B 10751M 10768M 10769M
             10769B 10807M 10808M 10808B 10816M 10817M 10817B 10855M 10856M 10856B 10858M 10871M 10873B 10955  10977M
             10992M 10993M 10993B 11130M 11148M 11239M 11241B 11246  11278M 11379M 11380B 11385  11414M 11646M 11647B
             11652  11690M 11691B 11754  11776M 11777M 11777B 11942M 11943M 11943B 11945M 11951M 11952B 11968  12065M
             12083M 12111M 12113B 12142B 12193B 12213  12286M 12287M 12287B 12289M 12421M 12422M 12422B 12424M 12515M
             12516M 12516B 12605M 12606M 12606B 12722M 12740M 12741M 12741B 12807M 12825M 12826M 12826B 12939M 12957M
             12958M 12958B 13030M 13031M 13031B 13105M 13106M 13106B 13184M 13202M 13203M 13203B 13266M 13267M 13267B
             13331M 13332M 13332B 13340M 13341M 13341B 13367M 13368M 13368B 13391M 13392M 13392B 13398M 13404M 13405B
             13409  13548M 13549B 13587  13630M 13631M 13631B 13641M 13642M 13642B 13644M 13652M 13653M 13653B 13695M
             13696M 13696B 13698M 13744M 13745M 13745B 13747M 13787M 13788M 13788B 13790M 13830M 13831M 13831B 13833M
             13873M 13874M 13874B 13876M 13916M 13917M 13917B 13919M 13959M 13960M 13960B 13962M 14002M 14003M 14003B
             14005M 14045M 14046M 14046B 14048M 14088M 14089M 14089B 14091M 14131M 14132M 14132B 14134M 14174M 14175M
             14175B 14177M 14217M 14218M 14218B 14220M 14260M 14261M 14261B 14263M 14286M 14287M 14287B 14328M 14329M
             14329B 14331M 14345M 14346M 14346B 14384M 14385M 14385B 14393M 14394M 14394B 14432M 14433M 14433B 14435M
             14481M 14483B 14515  14567M 14587M 14588B 14613  14686M 14687M 14687B 14782M 14783B 14801  14854M 14874M
             14875B 14901  15001M 15002M 15002B 15073M 15074B 15132  15175M 15176M 15176B 15178M 15182M 15183B 15237B
             15284  15293M 15294M 15294B 15312M 15313M 15313B 15321M 15322M 15322B 15343M 15344M 15344B 15352M 15353M
             15353B 15389M 15390M 15390B 15398M 15399M 15399B 15437M 15438M 15438B 15446M 15447M 15447B 15485M 15486M
             15486B 15494M 15495M 15495B 15533M 15534M 15534B 15542M 15543M 15543B 15581M 15582M 15582B 15583M 15584B
             15870  15902M 15962M 15964B 15972  16007M 16067M 16069B 16075  16110M 16127M 16181M 16182M 16182B 16186M
             16187M 16187B 16282M 16283M 16283B 16287M 16288M 16288B 16410M 16412B 16424M 16425M 16425B 16463M 16464M
             16464B 16472M 16473M 16473B 16477M 16478M 16478B 16496M 16497M 16497B 16505M 16506M 16506B 16554M 16555M
             16555B 16563M 16564M 16564B 16612M 16613M 16613B 16621M 16622M 16622B 16626M 16627M 16627B 16632M 16634B
             16661M 16743B 16800B 16804M 16806B 16884B 16893B
    10(A)      943U  6595   8388M  8595M  8605U  9891U  9907   9938M  9946U 10871M 10879U 12213  12235M 12243U 13564U
             13583U 14490U 14558U 14574U 14613  14782M 14844U 14861U 14901  15073M 15284
    11(B)      939U  6595   6612M  6620U  8388M  9907  10871M 12213  14504U 14613  14634M 14644U 14774U 14782M 14901
             14922M 14932U 15065U 15073M 15264M 15272U 15284  15597U
    12(C)      935U  6595   8388M  9907  10871M 11002M 11010U 11698U 12213  14613  14782M 14901  15073M 15284
    13(D)      931U  6622   6623M  6903   6904M  6904   6969M  6970   6982   6983M  6983   7021M  7022   7034   7035M
              7035   7295M  7296   7307   7308M  7308   7407M  7408   7420   7421M  7421   7464M  7465   8386M  8456
              8457   8458M  8458   8544M  8545   8556   8557   8558M  8558   9792   9793M  9797M  9895M  9896   9907
              9908   9909M  9909  10105  10106M 10110M 10376  10377M 10381M 10870M 10871  10955  10956  10957M 10957
             11238M 11239  11246  11247M 11247  11378M 11379  11385  11386M 11386  11645M 11646  11652  11653M 11653
             11689M 11690  11754  11755  11756M 11756  11950M 11951  11968  11969  11970M 11970  12110M 12111  12213
             12214  12215M 12215  12718  12719M 12723M 12803  12804M 12808M 12935  12936M 12940M 13180  13181M 13185M
             13403M 13404  13409  13410  13411M 13411  13547M 13548  13587  13588  13589M 13589  14480M 14481  14515
             14516  14517M 14517  14586M 14587  14613  14614  14615M 14615  14781M 14782  14801  14802  14803M 14803
             14873M 14874  14901  14902  14903M 14903  15072M 15073  15132  15133  15134M 15134  15181M 15182  15284
             15285M 15870  15871  15872M 15872  15961M 15962  15972  15973  15974M 15974  16066M 16067  16075  16076
             16077M 16077  16409M 16410  16631M 16632  16750  16751M 16751  16798M 16799  16803M 16804
1         (VBLD21) (09:45) (22MAR04) General Purpose Register Cross Reference                                               Page  147
    14(E)      927U  6595   6677M  6678M  6678B  6693M  6694M  6694B  7114M  7115M  7115B  7245M  7246M  7246B  7460M
              7526M  7527M  7527B  7756B  7772B  7787B  7830B  7845B  7859B  7873B  7887B  7901B  7930B  7959B  7974B
              7989B  8004B  8019B  8198M  8199M  8199   8204M  8204   8207M  8208   8251M  8252M  8252   8257M  8257
              8260M  8261   8331M  8332M  8332   8337M  8337   8340M  8341   8387M  8389B  8812M  8813M  8813B  9486M
              9487M  9487B  9558M  9559M  9559B  9713M  9723U  9808U  9842M  9852U  9865U 10005M 10006M 10006B 10129
             10206M 10210M 10294M 10299M 10338M 10339  10368  10374M 10444M 10450  10456M 10487M 10488M 10488B 10540M
             10541M 10541B 10593M 10594M 10594B 10667M 10668M 10668B 10790M 10791M 10791B 10838M 10839M 10839B 10987M
             11026M 11027M 11027B 11077M 11190M 11191M 11191  11196M 11196  11199M 11200  11216M 11217M 11217  11222M
             11222  11225M 11226  11289M 11296M 11369M 11411M 11429M 11436M 11443M 11472M 11479M 11570M 11571M 11571B
             11618M 11619M 11619B 11636M 11660M 11667M 11679M 11686M 11858M 11865M 11888M 11889M 11889  11894M 11894
             11897M 11898  11914M 11915M 11915  11920M 11920  11923M 11924  12031M 12134M 12185M 12485M 12492M 12528M
             12535M 12553M 12554M 12554N 12628M 12783M 12784  12785M 12788M 12789M 12790N 13153D 13155M 13155  13156M
             13157U 13158M 13158N 13159  13163M 13163N 13165M 13166M 13167N 13241M 13314M 13315M 13315B 13455M 13464M
             13464  13515M 13515  13539M 13540M 13541  13608  13678M 13679M 13679B 14311M 14312M 14312B 14369M 14370M
             14370B 14415M 14416M 14416B 14777M 14956M 14966U 14982U 15068M 15284  15328M 15329M 15329B 15374M 15375M
             15375B 15422M 15423M 15423B 15470M 15471M 15471B 15518M 15519M 15519B 15566M 15567M 15567B 16213M 16238M
             16239M 16239B 16254M 16255M 16255B 16308M 16309M 16309  16314M 16314  16317M 16318  16446M 16447M 16447B
             16537M 16538M 16538B 16595M 16596M 16596B 16669B 16699B 16728B
    15(F)      923U  6595   6674M  7097M  7242M  7433M  7444M  7444   7459M  7459   7460M  7509M  8196M  8196   8197M
              8198   8201   8206   8207   8210   8214   8249M  8249   8250M  8251   8254   8259   8260   8263   8267
              8329M  8329   8330M  8331   8334   8339   8340   8343   8347   8381D  8383M  8383   8384M  8385U  8527M
              8527   8640M  8640   8669M  8671   8739M  8749U  8755M  8762U  8775   9313M  9323U  9345U  9347M  9349
              9472M  9544M  9982M 10196M 10197M 10198  10207M 10208M 10209  10210M 10261M 10262M 10263  10295M 10296M
             10297M 10298  10299M 10372M 10372  10373M 10374B 10406  10420  10454M 10454  10455M 10456B 10470M 10523M
             10576M 10653M 10776M 10824M 10872M 10872  10985M 10985  10986M 10987M 11023M 11075M 11075  11076M 11077B
             11188M 11188  11189M 11190  11193  11198  11199  11202  11206  11214M 11214  11215M 11216  11219  11224
             11225  11228  11232  11240M 11240  11287M 11287  11288M 11289B 11294M 11294  11295M 11296B 11367M 11367
             11368M 11369B 11409M 11409  11410M 11411B 11427M 11427  11428M 11429B 11434M 11434  11435M 11436B 11441M
             11441  11442M 11443B 11470M 11470  11471M 11472B 11477M 11477  11478M 11479B 11567M 11615M 11634M 11634
             11635M 11636B 11658M 11658  11659M 11660B 11665M 11665  11666M 11667B 11677M 11677  11678M 11679B 11684M
             11684  11685M 11686B 11856M 11856  11857M 11858B 11863M 11863  11864M 11865B 11886M 11886  11887M 11888
             11891  11896  11897  11900  11904  11912M 11912  11913M 11914  11917  11922  11923  11926  11930  12029M
             12029  12030M 12031B 12112M 12112  12132M 12132  12133M 12134B 12183M 12183  12184M 12185B 12490M 12492M
             12533M 12535M 12626M 12626  12627M 12628B 12732M 12732  12782M 12784M 12787  12788M 12817M 12817  12949M
             12949  13027M 13102M 13150M 13159M 13164  13165M 13194M 13194  13239M 13239  13240M 13241B 13268M 13278U
             13284M 13291U 13293  13448M 13449M 13477M 13485M 13524M 13536M 13538M 13539M 13540M 13607  13654M 13655M
             13656  13716M 13717M 13729  13772  13815  13858  13901  13944  13987  14030  14073  14116  14159  14202
             14245  14288M 14289M 14352M 14395M 14396M 14436M 14477M 14477  14482M 14482  14852M 14971  15284  15325M
             15354M 15355M 15405M 15453M 15501M 15549M 15946M 15946  15963M 15963  16051M 16051  16068M 16068  16188M
             16211M 16211  16212M 16213B 16235M 16289M 16306M 16306  16307M 16308  16311  16316  16317  16320  16324
             16397M 16397  16411M 16411  16416  16432M 16510D 16512M 16512  16513M 16514U 16568D 16570M 16570  16571M
             16572U 16628M 16633M 16633  16805M 16805

1VBLD     (VBLD21) (09:45) (22MAR04) Diagnostic Cross Reference and Assembler Summary                                       Page  148
-                                                                                            HLASM R4.0  2004/03/22 09.45
0     No Statements Flagged in this Assembly
 HIGH LEVEL ASSEMBLER, 5696-234, RELEASE 4.0, PTF UQ57391
0SYSTEM: OS/390 02.10.00            JOBNAME: PJG#VBLD    STEPNAME: ASM        PROCSTEP: (NOPROC)
0Datasets Allocated for this Assembly
  Con DDname   Dataset Name                                 Volume  Member
   P1 SYSIN    SYS04082.T094531.RA000.PJG#VBLD.INPUT.H01    SCR100
   L1 SYSLIB   SYS3.DUMMYMAC                                SYSB02
   L2          WYL.GG.SYS.MACLIB                            SYSB05
   L3          WYL.GG.ORV.BC.MACLIB                         SYSB02
   L4          WYL.GG.ORV.MACLIB.VCATBAT                    SYSB02
   L5          WYL.GG.ORV.MACLIB                            SYSB02
   L6          SYS3.MACLIB                                  SYSB02
   L7          SYS1.MACLIB                                  MVSBR9
      SYSLIN   WYL.GG.PJG.OBJ                               SYSB05  VBLD
      SYSPRINT SYS04082.T094531.RA000.PJG#VBLD.PRINT.H01    SCR101
      SYSTERM  GG$PJG.PJG#VBLD.JOB05970.D0000103.?

    7812K allocated to Buffer Pool,         3813K would be required for this to be an In-Storage Assembly
    2487 Primary Input Records Read        21525 Library Records Read                  0 Work File Reads
       0 ASMAOPT Records Read               9643 Primary Print Records Written         0 Work File Writes
     349 Punch Records Written                 0 ADATA Records Written
0Assembly Start Time: 09.45.33 Stop Time: 09.45.50 Processor Time: 00.00.03.3750
 Return Code 000
