1                        J E S 2  J O B  L O G  --  S Y S T E M  S Y S B  --  N O D E  R L G
0
 09.38.15 JOB05927 ---- MONDAY,    22 MAR 2004 ----
 09.38.15 JOB05927  ICH70001I GG$PJG   LAST ACCESS AT 02:00:01 ON MONDAY, MARCH 22, 2004
 09.38.15 JOB05927  $HASP373 PJG#ACCT STARTED - INIT 2    - CLASS E - SYS SYSB
 09.38.15 JOB05927  ***  HCMD      STEP $$QUIET
 09.38.15 JOB05927  PURGE * Q=OUTPUT MULTIPLE
 09.38.15 JOB05927  JOB PJG#ACCT NOT IN OUTPUT QUEUE
 09.38.16 JOB05927  PJG#ACCT.$$QUIET .         RC=0008 TapeIO=0000 DiskIO=0000 CPU=  .01s Elapsed=95.61s
 09.38.16 JOB05927  PJG#ACCT.$CND    .         RC=Zero TapeIO=0000 DiskIO=0003 CPU=  .01s Elapsed=96.65s
 09.38.17 JOB05927  PJG#ACCT.$UNP    .         RC=Zero TapeIO=0000 DiskIO=0008 CPU=  .05s Elapsed=96.97s
 09.38.20 JOB05927  PJG#ACCT.ASM     .         RC=Zero TapeIO=0000 DiskIO=0249 CPU=  .95s Elapsed=97.39s
 09.38.21 JOB05927  PJG#ACCT.$EDIT   .         RC=Zero TapeIO=0000 DiskIO=0048 CPU=  .20s Elapsed=00.70s
 09.38.21 JOB05927  PJG#ACCT Ended.  Name=Module: ACCOUNT                Total CPU= 1.22s Elapsed=95.61s
 09.38.21 JOB05927
 09.38.21 JOB05927  Execution charges   Priority=Standard   Block=Day
 09.38.21 JOB05927
 09.38.21 JOB05927  CPU Usage          21.93          $13.59   Standard Processing Unit Equivalent
 09.38.21 JOB05927                                   =======
 09.38.21 JOB05927                                    $13.59   Total Job execution charge
 09.38.21 JOB05927
 09.38.21 JOB05927  See back separator page for print charges
 09.38.21 JOB05927
 09.38.21 JOB05927  $HASP395 PJG#ACCT ENDED  ASM=0
1        1 //PJG#ACCT JOB PJG$GG,'Module: ACCOUNT',TIME=1,MSGCLASS=C               JOB05927
           /*JOBPARM HOLD=OUTPUT,LINES=50,CHARS=TN15,NOTIFY=YES
         2 //       EXEC PURGEOLD
         3 XXPURGEOLD PROC
           XX*
           XX* This proc is maintained by Jim Stosick
           XX*
         4 XX$$QUIET  EXEC PGM=HCMDX,PARM='PURGE * Q=OUTPUT MULTIPLE',
           XX         ACCT=(PURGEOLD,SYS3)
         5 //$CND   EXEC PGM=BILBO,REGION=512K,PARM='RECS=100'
         6 //STEPLIB  DD DSN=WYL.GG.ORV.LINKLIB,DISP=SHR
         7 //SYSPRINT DD SYSOUT=$
         8 //SYSUT1   DD DSN=WYL.GG.PJG.OBJ,DISP=OLD
         9 //SYSUT2   DD DSN=WYL.GG.PJG.OBJ,DISP=OLD
        10 //SYSIN    DD DUMMY
        11 //$UNP   EXEC PGM=WUNPRESS,PARM='NUM'
        12 //SYSPRINT DD SYSOUT=$
        13 //SYSUT1   DD DSN=WYL.GG.ORV.SOURCE(ACCOUNT),DISP=SHR
        14 //SYSUT2   DD DSN=&&INPUT,DISP=(,PASS),UNIT=SYSDA,
           //            SPACE=(TRK,(25,25),RLSE),DCB=CARD
        15 //ASM    EXEC PGM=ASMA90,REGION=8M,COND=(0,NE,$UNP),
           //            PARM=('SYSPARM(ACCOUNT),TERM,LANG(EN),OBJ',
           //          'LC(32500),XREF(SHORT),NODECK,NORLD,NODX,NOUS')
           //*STEPLIB  DD DSN=SYS1.SASMMOD1,DISP=SHR
        16 //SYSLIB   DD DSN=SYS3.DUMMYMAC,DISP=SHR,DCB=BLKSIZE=27920
        17 //         DD DSN=WYL.GG.ORV.MACLIB,DISP=SHR
        18 //         DD DSN=WYL.GG.SYS.MACLIB,DISP=SHR
        19 //SYSUT1   DD DSN=&&SYSUT1,UNIT=VIO,DISP=(,DELETE),
           //            SPACE=(4088,(500,250),,CONTIG,ROUND)
        20 //SYSTERM  DD SYSOUT=$
        21 //SYSPRINT DD DSN=&&PRINT,UNIT=SYSDA,DISP=(,PASS),
           //            SPACE=(6650,(250,250),RLSE),
           //            DCB=(BLKSIZE=6650,LRECL=133,RECFM=FB)
        22 //SYSLIN   DD DSN=WYL.GG.PJG.OBJ(ACCOUNT),DISP=OLD
        23 //SYSUDUMP DD SYSOUT=A
        24 //SYSIN    DD DSN=&&INPUT,DISP=(OLD,DELETE)
        25 //$EDIT  EXEC PGM=ASMEDIT,REGION=1M,
           //            COND=EVEN,PARM='STMT,DATA'
        26 //STEPLIB  DD DSN=WYL.GG.SYS.LINKLIB,DISP=SHR
        27 //ASMOUT   DD DSN=&&PRINT,DISP=(OLD,DELETE)
        28 //SYSPRINT DD SYSOUT=A
        29 //SYSUDUMP DD SYSOUT=A
1 STMT NO. MESSAGE
         2 IEFC001I PROCEDURE PURGEOLD WAS EXPANDED USING SYSTEM LIBRARY SYS3.BETAPROC
        14 IGD01010I STORCLAS= TEMP STORGROUP =
        14 IGD01010I STORGRP=VIO ASSIGNED.
        19 IGD01010I STORCLAS= TEMP STORGROUP =
        19 IGD01010I STORGRP=VIO ASSIGNED.
        21 IGD01010I STORCLAS= TEMP STORGROUP =
        21 IGD01010I STORGRP=VIO ASSIGNED.
 ICH70001I GG$PJG   LAST ACCESS AT 02:00:01 ON MONDAY, MARCH 22, 2004
 IEF142I PJG#ACCT $$QUIET - STEP WAS EXECUTED - COND CODE 0008
 *********************************************************************************
 *   PJG#ACCT/$$QUIET /                    Return Code      0008                 *
 *   Region used      260K (16K user + 244K system)                              *
 *   Extended region  9352K (4K user + 9348K system)                             *
 *                                                                               *
 *   Paging              In      Out                                             *
 *   Private <-> Aux      0        0       CPU time (TCB)   00:00:00.01          *
 *   Private <-> Exp      0        0       CPU time (SRB)   00:00:00.00          *
 *   VIO                  0        0       Elapsed time    920:49:37.35          *
 *   Common               0      ---                                             *
 *                                                                               *
 *                                                                               *
 *   CPU Usage          0.18         $0.11  Standard Processing Unit Equivalent  *
 *                                   $0.11  Total Step execution charge          *
 *                                                                               *
 *    I/O count  DDname   Type Addr           I/O count  DDname   Type Addr      *
 *                         *** No I/O for this step ***                          *
 *********************************************************************************
 IEF373I STEP/$$QUIET /START 2004082.0938
 IEF374I STEP/$$QUIET /STOP  2004082.0938 CPU    0MIN 00.01SEC SRB    0MIN 00.00SEC VIRT    16K SYS   244K EXT       4K SYS    9348K
 IEF236I ALLOC. FOR PJG#ACCT $CND
 IEF237I 0401 ALLOCATED TO STEPLIB
 IEF237I JES2 ALLOCATED TO SYSPRINT
 IEF237I 04DC ALLOCATED TO SYSUT1
 IEF237I 04DC ALLOCATED TO SYSUT2
 IEF237I DMY  ALLOCATED TO SYSIN
 IEF142I PJG#ACCT $CND - STEP WAS EXECUTED - COND CODE 0000
 IEF285I   WYL.GG.ORV.LINKLIB                           KEPT
 IEF285I   VOL SER NOS= SYSB01.
 IEF285I   GG$PJG.PJG#ACCT.JOB05927.D0000101.?          SYSOUT
 IEF285I   WYL.GG.PJG.OBJ                               KEPT
 IEF285I   VOL SER NOS= SYSB05.
 IEF285I   WYL.GG.PJG.OBJ                               KEPT
 IEF285I   VOL SER NOS= SYSB05.
 *********************************************************************************
 *   PJG#ACCT/$CND    /                    Return Code      Zero                 *
 *   Region used      280K (16K user + 264K system)                              *
 *   Extended region  9392K (4K user + 9388K system)                             *
 *                                                                               *
 *   Paging              In      Out                                             *
 *   Private <-> Aux      0        0       CPU time (TCB)   00:00:00.01          *
 *   Private <-> Exp      0        0       CPU time (SRB)   00:00:00.00          *
 *   VIO                  0        0       Elapsed time    920:49:36.31          *
 *   Common               0      ---                                             *
 *                                                                               *
 *                                                                               *
 *   CPU Usage          0.18         $0.11  Standard Processing Unit Equivalent  *
 *                                   $0.11  Total Step execution charge          *
 *                                                                               *
 *    I/O count  DDname   Type Addr           I/O count  DDname   Type Addr      *
 *            3  STEPLIB  Disk 0401                   0  SYSPRINT      ----      *
 *            0  SYSUT1   Disk 04DC                   0  SYSUT2   Disk 04DC      *
 *            0  SYSIN         ----                                              *
 *********************************************************************************
 IEF373I STEP/$CND    /START 2004082.0938
 IEF374I STEP/$CND    /STOP  2004082.0938 CPU    0MIN 00.01SEC SRB    0MIN 00.00SEC VIRT    16K SYS   264K EXT       4K SYS    9388K
 IEF236I ALLOC. FOR PJG#ACCT $UNP
 IEF237I JES2 ALLOCATED TO SYSPRINT
 IEF237I 0402 ALLOCATED TO SYSUT1
 IGD101I SMS ALLOCATED TO DDNAME (SYSUT2  )
         DSN (SYS04082.T093815.RA000.PJG#ACCT.INPUT.H01   )
         STORCLAS (TEMP) MGMTCLAS (        ) DATACLAS (        )
         VOL SER NOS= SCR100
 IEF142I PJG#ACCT $UNP - STEP WAS EXECUTED - COND CODE 0000
 IEF285I   GG$PJG.PJG#ACCT.JOB05927.D0000102.?          SYSOUT
 IEF285I   WYL.GG.ORV.SOURCE                            KEPT
 IEF285I   VOL SER NOS= SYSB02.
 IGD106I SYS04082.T093815.RA000.PJG#ACCT.INPUT.H01    PASSED,    DDNAME=SYSUT2
 *********************************************************************************
 *   PJG#ACCT/$UNP    /                    Return Code      Zero                 *
 *   Region used      380K (108K user + 272K system)                             *
 *   Extended region  9468K (4K user + 9464K system)                             *
 *                                                                               *
 *   Paging              In      Out                                             *
 *   Private <-> Aux      0        0       CPU time (TCB)   00:00:00.05          *
 *   Private <-> Exp      0        0       CPU time (SRB)   00:00:00.00          *
 *   VIO                  0        0       Elapsed time    920:49:35.99          *
 *   Common               0      ---                                             *
 *                                                                               *
 *                                                                               *
 *   CPU Usage          0.93         $0.57  Standard Processing Unit Equivalent  *
 *                                   $0.57  Total Step execution charge          *
 *                                                                               *
 *    I/O count  DDname   Type Addr           I/O count  DDname   Type Addr      *
 *            0  SYSPRINT      ----                   2  SYSUT1   Disk 0402      *
 *            6  SYSUT2   Disk 038B                                              *
 *********************************************************************************
 IEF373I STEP/$UNP    /START 2004082.0938
 IEF374I STEP/$UNP    /STOP  2004082.0938 CPU    0MIN 00.05SEC SRB    0MIN 00.00SEC VIRT   108K SYS   272K EXT       4K SYS    9464K
 IEF236I ALLOC. FOR PJG#ACCT ASM
 IEF237I 0402 ALLOCATED TO SYSLIB
 IEF237I 0402 ALLOCATED TO
 IEF237I 04DC ALLOCATED TO
 IGD101I SMS ALLOCATED TO DDNAME (SYSUT1  )
         DSN (SYS04082.T093815.RA000.PJG#ACCT.SYSUT1.H01  )
         STORCLAS (TEMP) MGMTCLAS (        ) DATACLAS (        )
         VOL SER NOS= VIO
 IEF237I JES2 ALLOCATED TO SYSTERM
 IGD101I SMS ALLOCATED TO DDNAME (SYSPRINT)
         DSN (SYS04082.T093815.RA000.PJG#ACCT.PRINT.H01   )
         STORCLAS (TEMP) MGMTCLAS (        ) DATACLAS (        )
         VOL SER NOS= SCR100
 IEF237I 04DC ALLOCATED TO SYSLIN
 IEF237I JES2 ALLOCATED TO SYSUDUMP
 IGD103I SMS ALLOCATED TO DDNAME SYSIN
 IEF142I PJG#ACCT ASM - STEP WAS EXECUTED - COND CODE 0000
 IEF285I   SYS3.DUMMYMAC                                KEPT
 IEF285I   VOL SER NOS= SYSB02.
 IEF285I   WYL.GG.ORV.MACLIB                            KEPT
 IEF285I   VOL SER NOS= SYSB02.
 IEF285I   WYL.GG.SYS.MACLIB                            KEPT
 IEF285I   VOL SER NOS= SYSB05.
 IGD105I SYS04082.T093815.RA000.PJG#ACCT.SYSUT1.H01   DELETED,   DDNAME=SYSUT1
 IEF285I   GG$PJG.PJG#ACCT.JOB05927.D0000103.?          SYSOUT
 IGD106I SYS04082.T093815.RA000.PJG#ACCT.PRINT.H01    PASSED,    DDNAME=SYSPRINT
 IEF285I   WYL.GG.PJG.OBJ                               KEPT
 IEF285I   VOL SER NOS= SYSB05.
 IEF285I   GG$PJG.PJG#ACCT.JOB05927.D0000104.?          SYSOUT
 IGD105I SYS04082.T093815.RA000.PJG#ACCT.INPUT.H01    DELETED,   DDNAME=SYSIN
 *********************************************************************************
 *   PJG#ACCT/ASM     /                    Return Code      Zero                 *
 *   Region used      8476K (8192K user + 284K system)                           *
 *   Extended region  9952K (412K user + 9540K system)                           *
 *                                                                               *
 *   Paging              In      Out                                             *
 *   Private <-> Aux      0        0       CPU time (TCB)   00:00:00.91          *
 *   Private <-> Exp      0        0       CPU time (SRB)   00:00:00.04          *
 *   VIO                  0        0       Elapsed time    920:49:35.57          *
 *   Common               0      ---                                             *
 *                                                                               *
 *                                                                               *
 *   CPU Usage         17.06        $10.57  Standard Processing Unit Equivalent  *
 *                                  $10.57  Total Step execution charge          *
 *                                                                               *
 *    I/O count  DDname   Type Addr           I/O count  DDname   Type Addr      *
 *           68  SYSLIB   Disk 0402                   0  SYSLIB   Disk 0402      *
 *          128  SYSLIB   Disk 04DC                   0  SYSUT1   VIO  ----      *
 *            0  SYSTERM       ----                  45  SYSPRINT Disk 038B      *
 *            1  SYSLIN   Disk 04DC                   0  SYSUDUMP      ----      *
 *            7  SYSIN    Disk 038B                                              *
 *********************************************************************************
 IEF373I STEP/ASM     /START 2004082.0938
 IEF374I STEP/ASM     /STOP  2004082.0938 CPU    0MIN 00.91SEC SRB    0MIN 00.04SEC VIRT  8192K SYS   284K EXT     412K SYS    9540K
 IEF236I ALLOC. FOR PJG#ACCT $EDIT
 IEF237I 0402 ALLOCATED TO STEPLIB
 IGD103I SMS ALLOCATED TO DDNAME ASMOUT
 IEF237I JES2 ALLOCATED TO SYSPRINT
 IEF237I JES2 ALLOCATED TO SYSUDUMP
 IEF142I PJG#ACCT $EDIT - STEP WAS EXECUTED - COND CODE 0000
 IEF285I   WYL.GG.SYS.LINKLIB                           KEPT
 IEF285I   VOL SER NOS= SYSB02.
 IGD105I SYS04082.T093815.RA000.PJG#ACCT.PRINT.H01    DELETED,   DDNAME=ASMOUT
 IEF285I   GG$PJG.PJG#ACCT.JOB05927.D0000105.?          SYSOUT
 IEF285I   GG$PJG.PJG#ACCT.JOB05927.D0000106.?          SYSOUT
 *********************************************************************************
 *   PJG#ACCT/$EDIT   /                    Return Code      Zero                 *
 *   Region used      388K (116K user + 272K system)                             *
 *   Extended region  9468K (4K user + 9464K system)                             *
 *                                                                               *
 *   Paging              In      Out                                             *
 *   Private <-> Aux      0        0       CPU time (TCB)   00:00:00.19          *
 *   Private <-> Exp      0        0       CPU time (SRB)   00:00:00.01          *
 *   VIO                  0        0       Elapsed time    920:49:32.26          *
 *   Common               0      ---                                             *
 *                                                                               *
 *                                                                               *
 *   CPU Usage          3.56         $2.20  Standard Processing Unit Equivalent  *
 *                                   $2.20  Total Step execution charge          *
 *                                                                               *
 *    I/O count  DDname   Type Addr           I/O count  DDname   Type Addr      *
 *            2  STEPLIB  Disk 0402                  46  ASMOUT   Disk 038B      *
 *            0  SYSPRINT      ----                   0  SYSUDUMP      ----      *
 *********************************************************************************
 IEF373I STEP/$EDIT   /START 2004082.0938
 IEF374I STEP/$EDIT   /STOP  2004082.0938 CPU    0MIN 00.19SEC SRB    0MIN 00.01SEC VIRT   116K SYS   272K EXT       4K SYS    9464K
 *********************************************************************************
 *                                                                               *
 *                      S t a n f o r d   U n i v e r s i t y                    *
 *                                                                               *
 *                              *** Job Summary ***                              *
 *                                                                               *
 *   System Id      SYSB                   Input time     09:38:15  Mar 22, 2004 *
 *                                                                               *
 *   System Release SP6.1.0                Start time     09:38:15  Mar 22, 2004 *
 *                                                                               *
 *   Job name       PJG#ACCT               Stop  time     00:00:00  Mar 22, 2004 *
 *                                                                               *
 *   Account        PJG$GG                 Elapsed time  920:49:37.35            *
 *                                                                               *
 *   User Name      Module: ACCOUNT        CPU time       00:00:01.17            *
 *                                                                               *
 *   Job class      E                      SRB Time       00:00:00.05            *
 *                                                                               *
 *********************************************************************************
 IEF375I  JOB/PJG#ACCT/START 2004082.0938
 IEF376I  JOB/PJG#ACCT/STOP  2004082.0938 CPU    0MIN 01.17SEC SRB    0MIN 00.05SEC
1Data set successfully converted from EDIT to FB format
1Assembler Done ACCOUNT No Statements Flagged
1         High Level Assembler Option Summary                   (PTF UQ57391)                                               Page    1
-                                                                                            HLASM R4.0  2004/03/22 09.38
0  No Overriding ASMAOPT Parameters
   Overriding Parameters-  SYSPARM(ACCOUNT),TERM,LANG(EN),OBJ,LC(32500),XREF(SHORT),NODECK,NORLD,NODX,NOUS
   No Process Statements


   Options for this Assembly
0  NOADATA
     ALIGN
   NOASA
     BATCH
     CODEPAGE(047C)
   NOCOMPAT
   NODBCS
 3 NODECK
 3 NODXREF
     ESD
   NOEXIT
     FLAG(0,ALIGN,CONT,NOIMPLEN,NOPAGE0,PUSH,RECORD,NOSUBSTR,USING0)
   NOFOLD
   NOGOFF
   NOINFO
 3   LANGUAGE(EN)
   NOLIBMAC
 3   LINECOUNT(32500)
     LIST(121)
     MXREF(SOURCE)
 3   OBJECT
     OPTABLE(UNI,NOLIST)
   NOPCONTROL
   NOPESTOP
   NOPROFILE
   NORA2
   NORENT
 3 NORLD
     RXREF
     SIZE(MAX)
 3   SYSPARM(ACCOUNT)
 3   TERM(WIDE)
   NOTEST
     THREAD
   NOTRANSLATE
 3 NOUSING
 3   XREF(SHORT)

   No Overriding DD Names

1ACCOUNT  External Symbol Dictionary                                                                                        Page    2
-Symbol   Type   Id     Address  Length     LD ID  Flags Alias-of                            HLASM R4.0  2004/03/22 09.38
0ACCOUNT   SD 00000001 00000000 000005A2             06
 ACCO00    LD          00000000           00000001
 ACCTINIT  LD          00000022           00000001
 ACLOGON   LD          000000DC           00000001
 ACLOGOFF  LD          000001BA           00000001
 ACAINFO   LD          00000256           00000001
 ACINFO    LD          000002DA           00000001
 ACPINFO   LD          000003C2           00000001
 ACSPINF   LD          0000040A           00000001
 ACDSKIO   LD          00000452           00000001
 ACPUCHG   LD          0000049C           00000001
 TCPUCHG   LD          000004FE           00000001
 TRCD10    LD          00000554           00000001
 VMGET     ER 00000002
 DISPCPTA  ER 00000003
 PAGPIOA   ER 00000004
 VMFREE    ER 00000005
 ACPUTIME  ER 00000006
 TCPUTIME  ER 00000007

1ACCOUNT  User Resource Accounting Routines                                                                                 Page    3
0Loc    Object Code    Addr1 Addr2  Stmt Lv Lineno    Source Statement                    (Asmedit 3.3)  HLASM R4.0  2004/03/22 09.38
+___    ______ ____    _____ _____  ____ __ ______    ______ _________
0                                      2       2.              COPY  HEADER
                                       3             =*********************************************************************
                                       4             =*                                                                   *
                                       5             =*                                                                   *
                                       6             =*                          M P - O R V Y L                          *
                                       7             =*                                                                   *
                                       8             =*       ORVYL - Release 5.0 - Class I - Stanford Proprietary        *
                                       9             =*                                                                   *
                                      10             =*                                                                   *
                                      11             =*********************************************************************
-
-                                     13             =         SPLEVEL SET=2
                                      16             =         HIBAL ASSOC=YES
-
                                     998             =*
                                     999             =* REGISTER CONVENTIONS (USE ONLY THE SYMBOLS)
                                    1000             =*
                                    1001             =*                     CLASS  USAGE
                                    1002             =*                     -----  -----------------------------
                                    1003             =RVR      REG   0        1    RETURN VALUE REGISTER
                                    1015             =RS       REG   1        *    SCRATCH
                                    1027             =RA       REG   2        *    SCRATCH
                                    1039             =RB       REG   3        *    SCRATCH
                                    1051             =RJ       REG   4        *    SCRATCH
                                    1063             =RK       REG   5        *    SCRATCH
                                    1075             =RX       REG   6        *    SCRATCH
                                    1087             =RY       REG   7        *    SCRATCH
                                    1099             =RM       REG   8        *    SCRATCH
                                    1111             =RN       REG   9        *    SCRATCH (In Guest)
                                    1123             =RTCBR    REG   9        -    POINTER TO THE RTCB (In Host)
                                    1135             =BR       REG   10       -    FIRST BASE REGISTER
                                    1147             =BRR      REG   11       -    SECOND BASE REGISTER
                                    1159             =WAR      REG   12       -    WORK AREA POINTER
                                    1171             =SPR      REG   13       -    STACK TOP POINTER
                                    1183             =RAR      REG   14       1    RETURN ADDRESS REGISTER
                                    1195             =EPAR     REG   15       1    ENTRY POINT ADDRESS
                                    1207             =*
                                    1208             =*      CLASS   MEANING
                                    1209             =*      -----   --------------------------------------------------
                                    1210             =*        *     Register may be freely used for scratch
                                    1211             =*        -     Register may not be used
                                    1212             =*        1     Available but may change on subroutine calls
                                    1213             =*
1ACCOUNT  User Resource Accounting Routines                                                                                 Page    4
0D-Loc  Object Code    Addr1 Addr2  Stmt Lv Lineno    Source Statement           (Hibal 5, Asmedit 3.3)  HLASM R4.0  2004/03/22 09.38
+_____  ______ ____    _____ _____  ____ __ ______    ______ _________
0000000                00000 005A2  1216       4.     ACCOUNT  MODULE TRCNUM=10
                                    1226             +*
                                    1227    02-IDENT +         ENTRY ACCO00
                                    1228             +
 000000 14C1C3C3D6F0F06B            1229    02-IDENT +ACCO00   DC    AL1(20),C'ACCO00,22MAR04,09:38'
                                    1230             +*
1ACCOUNT  (ACCO00) (09:38) (22MAR04) User Resource Accounting Routines                                                      Page    5
0Loc    Object Code    Addr1 Addr2  Stmt Lv Lineno    Source Statement           (Hibal 5, Asmedit 3.3)  HLASM R4.0  2004/03/22 09.38
+___    ______ ____    _____ _____  ____ __ ______    ______ _________
0                                   1233       6.              COPY  PZERO
 000000                00000 00280  1234             =PZERO    RECORD BEGIN
                                    1242  1          =*
                                    1243  1          =* Real Page 0.  Each CPU has its own copy of this area.
                                    1244  1          =*
-                                   1246  1          =****************************************************************
                                    1247  1          =*               Fields Fixed by the Architecture               *
                                    1248  1          =*               ********************************               *
                                    1249  1          =*                                                              *
 000000                             1250  1          =PZRSNPSW   DS    D             Restart new PSW                 *
 000008                             1251  1          =PZRSOPSW   DS    D             Restart old PSW                 *
 000010                             1252  1          =           DS    D                                             *
 000018                             1253  1          =PZEXOPSW   DS    D             External old PSW                *
 000020                             1254  1          =PZSVOPSW   DS    D             Supervisor old PSW              *
 000028                             1255  1          =PZPIOPSW   DS    D             Program old PSW                 *
 000030                             1256  1          =PZMCOPSW   DS    D             Machine check old PSW           *
 000038                             1257  1          =PZIOOPSW   DS    D             I/O old PSW                     *
 000040                             1258  1          =           DS    3D                                            *
 000058                             1259  1          =PZEXNPSW   DS    D             External new PSW                *
 000060                             1260  1          =PZSVNPSW   DS    D             Supervisor new PSW              *
 000068                             1261  1          =PZPINPSW   DS    D             Program new PSW                 *
 000070                             1262  1          =PZMCNPSW   DS    D             Machine check new PSW           *
 000078                             1263  1          =PZIONPSW   DS    D             I/O new PSW                     *
 000080                             1264  1          =           DS    F                                             *
 000084                             1265  1          =PZEXCPU    DS    H             CPU address for EXT int         *
 000086                             1266  1          =PZEXIC     DS    H             External interrupt code         *
 000088                             1267  1          =PZSVILC    DS    H             Supervisor call ILC             *
 00008A                             1268  1          =PZSVIC     DS    H             Supervisor interrupt code       *
 00008C                             1269  1          =PZPIILC    DS    H             Program ILC                     *
 00008E                             1270  1          =PZPIIC     DS    H             Program interrupt code          *
 000090                             1271  1          =PZTREXA    DS    A             Translation exception address   *
 000094                             1272  1          =PZMONCL    DS    H             Monitor Class number            *
 000096                             1273  1          =PZPERCD    DS    H             PER code                        *
 000098                             1274  1          =PZPERA     DS    A             PER Address                     *
 00009C                             1275  1          =PZMONCD    DS    A             Monitor Code                    *
 0000A0                             1276  1          =           DS    3D                                            *
 0000B8                             1277  1          =PZIOSID    DS    A             I/O subsystem ID word           *
 0000BC                             1278  1          =PZIOPRM    DS    A             I/O Parameter                   *
 0000C0                             1279  1          =PZIOSCS    DS    A             I/O subchannel ending status    *
 0000C4                             1280  1          =           DS    A                                             *
 0000C8                             1281  1          =           DS    39D                                           *
                                    1282  1          =*                                                              *
                                    1283  1          =*            ***************************************           *
                                    1284  1          =*            End of Fields fixed by the architecture           *
                                    1285  1          =****************************************************************
1ACCOUNT  (ACCO00) (09:38) (22MAR04) User Resource Accounting Routines                                                      Page    6
0D-Loc  Object Code    Addr1 Addr2  Stmt Lv Lineno    Source Statement           (Hibal 5, Asmedit 3.3)  HLASM R4.0  2004/03/22 09.38
+_____  ______ ____    _____ _____  ____ __ ______    ______ _________
0                                   1287  1          =*
                                    1288  1          =* Fields of general interest
                                    1289  1          =*
 000200                             1290  1          =PZMATP     DS    A             Address of the MAT
 000204                             1291  1          =           DS    A             ** Reserved **
 000208                             1292  1          =PZCURPID   DS    0D            Unique ID of the current process
 000208                             1293  1          =PZCURASB   DS    A             Addr of ASB for current Address space
 00020C                             1294  1          =PZCURTSK   DS    A             ID of current task in the Address space
 000210                             1295  1          =PZLCPUA    DS    A             Logical CPU address
 000214                             1296  1          =PZCPUMSK   DS    A             CPU address mask bit
 000218                             1297  1          =PZPSWM     DS    X             PSW mask for disabling
 000219                             1298  1          =           DS    X             ** Reserved **
                                    1299  1          =*
                                    1300  1          =* Termination/Trace information
                                    1301  1          =*
 00021A 00                          1302  1          =PZTERMFL   FLAG  ,             Termination flags
 PZTERMFL.PZABORT  80 ONES          1306  1          =           FLAG  PZABORT         ABORT macro issued
 PZTERMFL.PZATERM  40 ONES          1311  1          =           FLAG  PZATERM         Start termination processing
 00021B                             1316  1          =PZABSM     DS    X             Save area for system mask in ABORT
 00021C                             1317  1          =PZABR15    DS    A             Save area for R15 in an ABORT
 000220                             1318  1          =PZTZOFF    DS    D             Time zone offset
 000228                             1319  1          =           DS    22A           ** Reserved **
                                    1320  1          =*         DS    24A           ** Reserved **
 000280                00280 00280  1321             =         END   ,
 USING  PZERO,R0                    1330       7.              USING PZERO,R0
1ACCOUNT  (ACCO00) (09:38) (22MAR04) User Resource Accounting Routines                                                      Page    7
0Current Usings:  (PZERO,R0)
0Loc    Object Code    Addr1 Addr2  Stmt Lv Lineno    Source Statement           (Hibal 5, Asmedit 3.3)  HLASM R4.0  2004/03/22 09.38
+___    ______ ____    _____ _____  ____ __ ______    ______ _________
0                                   1340       9.              COPY  MAT
                                    1341             =*****************************************************************
                                    1342             =*                                                               *
                                    1343             =*        *** M A S T E R   A D D R E S S   T A B L E ***        *
                                    1344             =*                                                               *
                                    1345             =*****************************************************************
-000000                00000 00100  1347             =MAT      RECORD BEGIN
                                    1355  1          =MATPTR     EQU   X'200',4,C'A' Address of the MAT in PZERO
 000000 D4C1E340                    1356  1          =           DC    CL4'MAT'      Control block ID
                                    1357  1          =*
                                    1358  1          =* Addresses of global control blocks
                                    1359  1          =*
 000004                             1360  1          =MATVMCB    DS    A             Virtual memory control block
 000008                             1361  1          =MATDCT     DS    A             Dispatcher control table
 00000C                             1362  1          =MATPAGCB   DS    A             Real memory control block
 000010                             1363  1          =MATM1CT    DS    A             CT for Mode 1 users
 000014                             1364  1          =MATLCT     DS    A             Lock manager control table
 000018                             1365  1          =MATQCT     DS    A             Queue manager control table
 00001C                             1366  1          =MATIOCB    DS    A             I/O Manager control block
 000020                             1367  1          =MATSBWB    DS    A             System buffer wait blocks
 000024                             1368  1          =MATGTCT    DS    A             Terminal global control table
 000028                             1369  1          =MATFILCB   DS    A             File master control table
 00002C                             1370  1          =MATJESCB   DS    A             JES master control table
 000030                             1371  1          =MATSYSCB   DS    A             System task control table
 000034                             1372  1          =MATACCT    DS    A             Accounting control table
 000038                             1373  1          =MATGRCT    DS    A             General Resource control table
 00003C                             1374  1          =MATGNCT    DS    A             Global Network Control table
 000040                             1375  1          =MATTECB    DS    D             Termination wait ECB
 000048                             1376  1          =           DS    25A           Reserved
                                    1377  1          =*
                                    1378  1          =* Control Block Chains
                                    1379  1          =*
 0000AC                             1380  1          =MATASBS    DS    A             Pointer to chain of ASBs
 0000B0                             1381  1          =MATASBL    DS    A             Id of suspend lock for ASB chain
 0000B4                             1382  1          =           DS    8A            **  RESERVED
                                    1383  1          =*
                                    1384  1          =* Control information
                                    1385  1          =*
 0000D4                             1386  1          =MATSNAME   DS    CL8           System Name
 0000DC                             1387  1          =MATPAGFN   DS    A             Current value of the Paging function
 0000E0                             1388  1          =MATSKEY    DS    X             SYSTEM storage key (in high 4 bits)
 0000E1                             1389  1          =MATUKEY    DS    X             USER storage key
                                    1390= 1          =           ¿þþþþþþþþþþþþþþþþþþþþþþþþþþþþþþþþÜ
                                    1391= 1          =           Ÿ  Information about the Kernel  Ÿ
                                    1392= 1          =           ¾þþþþþþþþþþþþþþþþþþþþþþþþþþþþþþþþ»
 0000E4                             1393  1          =MATKSTRT   DS    A             Starting address of the Kernel
 0000E8                             1394  1          =MATKMAP    DS    A             Address of the Kernel map
 0000EC                             1395  1          =MATKMAPL   DS    A             Length of the Kernel map
1ACCOUNT  (ACCO00) (09:38) (22MAR04) User Resource Accounting Routines                                                      Page    8
0Current Usings:  (PZERO,R0)
0Loc    Object Code    Addr1 Addr2  Stmt Lv Lineno    Source Statement           (Hibal 5, Asmedit 3.3)  HLASM R4.0  2004/03/22 09.38
+___    ______ ____    _____ _____  ____ __ ______    ______ _________
0                                   1396= 1          =           ¿þþþþþþþþþþþþþþþþþþþþþþþþþÜ
                                    1397= 1          =           Ÿ  Failsoft information.  Ÿ
                                    1398= 1          =           ¾þþþþþþþþþþþþþþþþþþþþþþþþþ»
 0000F0                             1399  1          =MATNCLPE   DS    F             Number of CLP errors
 0000F4                             1400  1          =MATNFAIL   DS    F             Number of failsofts
 0000F8                             1401  1          =           DS    2A            Reserved
 000100                00100 00100  1402             =         END
1ACCOUNT  (ACCO00) (09:38) (22MAR04) User Resource Accounting Routines                                                      Page    9
0Current Usings:  (PZERO,R0)
0Loc    Object Code    Addr1 Addr2  Stmt Lv Lineno    Source Statement           (Hibal 5, Asmedit 3.3)  HLASM R4.0  2004/03/22 09.38
+___    ______ ____    _____ _____  ____ __ ______    ______ _________
0                                   1412      11.              COPY  ASB
 000000                00000 00044  1413             =ASB      RECORD BEGIN
 000000 C1E2C240                    1421  1          =ASBID      DC    CL4'ASB'
 000004                             1422  1          =ASBNEXT    DS    A                       Next ASB in system
                                    1423  1          =*
                                    1424  1          =*  Load Address Space Parameters area
                                    1425  1          =*
 000008                             1426  1          =ASBLASP    DS    0D                      Load Addr Space Parms
 000008                             1427  1          =ASBPKM     DS    H                       Program Key Mask
 00000A                             1428  1          =ASBSASN    DS    H                       Secondary ASN
 00000C                             1429  1          =ASBAX      DS    H                       Authorization index
 00000E                             1430  1          =ASBPASN    DS    H                       Primary ASN
                                    1431  1          =ASBLPARM   EQU   3                       LASP parameter
                                    1432  1          =
 000010                             1433  1          =ASBSASB    DS    A                       Address of secondary ASB
 000014 00                          1434  1          =ASBGCFLG   FLAG  ,
 ASBGCFLG.ASBFGBLC 80 ONES          1438  1          =           FLAG  ASBFGBLC                This is ASB for global/common
 000015                             1443  1          =           DS    3X                      - Available -
                                    1444  1          =*
                                    1445  1          =*  Related control blocks
                                    1446  1          =*
 000018                             1447  1          =ASBVSCT    DS    A                       VSCT for the Address space
 00001C                             1448  1          =ASBASDB    DS    A                       AS dispatching block
 000020                             1449  1          =ASBPAGB    DS    A                       AS paging block
 000024                             1450  1          =ASBIOB     DS    A                       AS I/O block
 000028                             1451  1          =ASBENQ     DS    A                       AS Enqueue table
 00002C                             1452  1          =ASBM1SCP   DS    A                       Mode 1 SCP
 000030                             1453  1          =ASBTCCB    DS    A                       Terminal Control block
 000034                             1454  1          =ASBAIB     DS    A                       Accouting information
 000038                             1455  1          =ASBASFB    DS    A                       File services control block
 00003C                             1456  1          =ASBMSTR    DS    A                       AS Master Control block
 000040                             1457  1          =ASBNET     DS    A                       Local Network Control Block
                                    1458  1          =*ASBLW    DS    A     ** Temp RESMAN ** Lock waiting for
                                    1459  1          =*ASBLH    DS    A     ** Temp RESMAN ** Lock held
 000044                00044 00044  1460             =         END   ,
1ACCOUNT  (ACCO00) (09:38) (22MAR04) User Resource Accounting Routines                                                      Page   10
0Current Usings:  (PZERO,R0)
0Loc    Object Code    Addr1 Addr2  Stmt Lv Lineno    Source Statement           (Hibal 5, Asmedit 3.3)  HLASM R4.0  2004/03/22 09.38
+___    ______ ____    _____ _____  ____ __ ______    ______ _________
0                                   1470      13.              COPY  ACCTPARM
                                    1471             =*****************************************************************
                                    1472             =*                                                               *
                                    1473             =*  ACCTPARM -- Parameters for the Accounting Routines.          *
                                    1474             =*                                                               *
                                    1475             =*****************************************************************
-                                   1477             =*
                                    1478             =* Start accounting for an address space
                                    1479             =*
0000000                00000 0001C  1481             =@ACLOGON RECORD BEGIN
 000000                             1489  1          =@ACLASB    DS    A             ASB of the Address Space
 000004                             1490  1          =@ACLUID    DS    CL8           User ID
 00000C                             1491  1          =@ACLUPR    DS    A             User Privileges
 000010                             1492  1          =@ACLLOT    DS    D             TOD Clock at Logon
 000018                             1493  1          =@ACLTID    DS    A             Terminal ID
 00001C                0001C 0001C  1494             =         END   ,
-                                   1504             =*
                                    1505             =* Get accounting info for an address space.
                                    1506             =*
0000000                00000 00018  1508             =@ACAINFO RECORD BEGIN
 000000                             1516  1          =@ACAASB    DS    A             ASB of the address space
 000004                             1517  1          =@ACAUID    DS    CL8           User ID
 00000C                             1518  1          =@ACAUPR    DS    A             User Privileges
                                    1519  1          =MILPRIV    EQU   @ACAUPR+3     Milten priv byte *** TEMP ***
 000010                             1520  1          =@ACALOT    DS    D             TOD Clock at Logon
 000018                00018 00018  1521             =         END   ,
-                                   1531             =*
                                    1532             =* Get resource usage info for an address space
                                    1533             =*
0000000                00000 00028  1535             =@ACINFO  RECORD BEGIN
 000000                             1543  1          =@ACIASB    DS    A             ASB of the Address space
 000004                             1544  1          =@ACIIOS    DS    A             Number of I/O's
 000008                             1545  1          =@ACICPU    DS    D             CPU time (TOD)
 000010                             1546  1          =@ACICON    DS    D             Connect time (TOD)
 000018                             1547  1          =@ACIPGNM   DS    CL8           Program name
 000020                             1548  1          =@ACITID    DS    A             Terminal Identifier
 000024                             1549  1          =@ACIORG    DS    A             Shared program address
 000028                00028 00028  1550             =         END   ,
                                    1559             =*
                                    1560             =* Set program information
                                    1561             =*
0000000                00000 0000C  1563             =@ACPINFO RECORD BEGIN
 000000                             1571  1          =@ACPASB    DS    A             ASB of the Address space
 000004                             1572  1          =@ACPPGNM   DS    CL8           Program name
1ACCOUNT  (ACCO00) (09:38) (22MAR04) User Resource Accounting Routines                                                      Page   11
0Current Usings:  (PZERO,R0)
0Loc    Object Code    Addr1 Addr2  Stmt Lv Lineno    Source Statement           (Hibal 5, Asmedit 3.3)  HLASM R4.0  2004/03/22 09.38
+___    ______ ____    _____ _____  ____ __ ______    ______ _________
000000C                0000C 0000C  1573             =         END   ,
                                    1582             =*
                                    1583             =* Set shared program information
                                    1584             =*
0000000                00000 00008  1586             =@ACSPINF RECORD BEGIN
 000000                             1594  1          =@ACSPASB   DS    A             ASB of the Address space
 000004                             1595  1          =@ACSPORG   DS    A             Shared program address
 000008                00008 00008  1596             =         END   ,
1ACCOUNT  (ACCO00) (09:38) (22MAR04) User Resource Accounting Routines                                                      Page   12
0Current Usings:  (PZERO,R0)
0Loc    Object Code    Addr1 Addr2  Stmt Lv Lineno    Source Statement           (Hibal 5, Asmedit 3.3)  HLASM R4.0  2004/03/22 09.38
+___    ______ ____    _____ _____  ____ __ ______    ______ _________
0                                   1606      15.              COPY  VMPARM
                                    1607             =*******************************************************************
                                    1608             =*                                                                 *
                                    1609             =*    Memory parms for inside the virtual machine.                 *
                                    1610             =*                                                                 *
                                    1611             =*******************************************************************
-000000                00000 0000B  1613             =@VMGET   RECORD BEGIN        Parm area for getting virtual memory
 000000                             1621  1          =@VMGLEN    DS    A             Amount of memory needed
 000004                             1622  1          =@VMGDAT    DS    A             More data. Address or maxlen.
 000008                             1623  1          =@VMGPOOL   DS    H             Pool/Subpool to get the memory from
 00000A 00                          1624  1          =@VMGFLG    FLAG  ,
 @VMGFLG.@VMGPAGE  80 ONES          1628  1          =           FLAG  @VMGPAGE      Page Aligned
 @VMGFLG.@VMGONEP  40 ONES          1633  1          =           FLAG  @VMGONEP      Don't cross page boundary
 00000B                0000B 0000B  1638             =         END   ,
-000000                00000 0000A  1648             =@VMFREE  RECORD BEGIN        Used for VMFREE and VMCHECK
 000000                             1656  1          =@VMFLOC    DS    A             Location of the storage to free
 000004                             1657  1          =@VMFLEN    DS    A             Amount to free
 000008                             1658  1          =@VMFPOOL   DS    H             Pool/Subpool where the storage lives
 00000A                0000A 0000A  1659             =         END   ,
-000000                00000 00009  1669             =@VMINFO  RECORD BEGIN        Returns User address limits/hash val
 000000                             1677  1          =@VMIUST    DS    A             Start of the user address space
 000004                             1678  1          =@VMIULEN   DS    A             Length of the user address space
 000008                             1679  1          =@VMITRSH   DS    X             Trash value
 000009                00009 00009  1680             =         END   ,
1ACCOUNT  (ACCO00) (09:38) (22MAR04) User Resource Accounting Routines                                                      Page   13
0Current Usings:  (PZERO,R0)
0Loc    Object Code    Addr1 Addr2  Stmt Lv Lineno    Source Statement           (Hibal 5, Asmedit 3.3)  HLASM R4.0  2004/03/22 09.38
+___    ______ ____    _____ _____  ____ __ ______    ______ _________
0                                   1690      17.              COPY  PARMPARM
                                    1691             =*********************************************************************
                                    1692             =*                                                                   *
                                    1693             =*          Parameters to obtain initialization parameters           *
                                    1694             =*                                                                   *
                                    1695             =*********************************************************************
0000000                00000 00010  1697             =@PARMDO  RECORD BEGIN
 000000                             1705  1          =@PARILOC   DS    A                       Input location
 000004                             1706  1          =@PARILEN   DS    A                       | length
 000008                             1707  1          =@PAROLOC   DS    A                       Output location
 00000C                             1708  1          =@PAROLEN   DS    A                       | length
 000010                00010 00010  1709             =         END   ,
0000000                00000 00004  1719             =PARMIN   RECORD BEGIN
 000000 00                          1727  1          =PARMTYPE   FLAG  ,
 PARMTYPE.PARMFSTR 00 EQ            1731  1          =           FLAG  (PARMFSTR,0,EQ)         Return a string
 PARMTYPE.PARMFINT 04 EQ            1741  1          =           FLAG  (PARMFINT,4,EQ)         Return an integer
 PARMTYPE.PARMFYN  08 EQ            1751  1          =           FLAG  (PARMFYN,8,EQ)          Return Yea or Nay
 PARMTYPE.PARMFFLT 0C EQ            1761  1          =           FLAG  (PARMFFLT,12,EQ)        Return a floating point
 000001                             1771  1          =           DS    3X                      - Available -
 000004                             1772  1          =PARMKEYS   DS    0A                      Start of 8 byte keys
 000004                00004 00004  1773             =         END   ,
1ACCOUNT  (ACCO00) (09:38) (22MAR04) User Resource Accounting Routines                                                      Page   14
0Current Usings:  (PZERO,R0)
0Loc    Object Code    Addr1 Addr2  Stmt Lv Lineno    Source Statement           (Hibal 5, Asmedit 3.3)  HLASM R4.0  2004/03/22 09.38
+___    ______ ____    _____ _____  ____ __ ______    ______ _________
0                                   1783      19.     *****************************************************************
                                    1784      20.     *                                                               *
                                    1785      21.     *     ACCT --  Global accounting information table              *
                                    1786      22.     *                                                               *
                                    1787      23.     *****************************************************************
-000000                00000 00010  1789      25.     ACCT     RECORD BEGIN
 000000 C1C3C3E3                    1797  1   26.                DC    C'ACCT'       Control Block ID
                                    1798  1   27.     *
                                    1799  1   28.     *  CPU charging factor
                                    1800  1   29.     *
 000008                             1801  1   30.     ACFACTOR   DS    D             CPU charging factor
 000010                00010 00010  1802      31.              END   ,
-
                                    1812      33.              COPY  AIB
                                    1813             =*****************************************************************
                                    1814             =*                                                               *
                                    1815             =*      AIB --  This control block contains the accouting info   *
                                    1816             =*              for each Address space for which accounting is   *
                                    1817             =*              active.  Fields marked with '*' are not used but *
                                    1818             =*              could well be in the future.  They are included  *
                                    1819             =*              only as an estimate of what might be charged.    *
                                    1820             =*                                                               *
                                    1821             =*****************************************************************
                                    1822             =*
                                    1823             =*  This DSECT is copied only for INTERNAL monitor programs.
                                    1824             =*  Otherwise it is a private area
                                    1825             =*
-000000                00000 00040  1827             =AIB      RECORD BEGIN
 000000 C1C9C240                    1835  1          =           DC    C'AIB '       Control Block ID
                                    1836  1          =*
                                    1837  1          =* Identify the User/Session
                                    1838  1          =*
 000004                             1839  1          =AIBASB     DS    A             Address of the ASB this belongs to
 000008                             1840  1          =AIBUSER    DS    CL8           User ID
 000010                             1841  1          =AIBLOT     DS    D             Time of logon (TOD)
 000018                             1842  1          =AIBPRIVS   DS    A             Privileges
                                    1843  1          =*
                                    1844  1          =* Keep track of the resources used
                                    1845  1          =*
 00001C                             1846  1          =AIBORG     DS    A             Shared program address
 000020                             1847  1          =AIBDIOS    DS    A             Disk I/O's
 000024                             1848  1          =AIBTIOS    DS    A           * Terminal I/O's
 000028                             1849  1          =AIBPIOSA   DS    A             Address of Page I/O's field (NC)
 00002C                             1850  1          =AIBVMUSE   DS    A           * Virtual memory useage
 000030                             1851  1          =AIBCPUTA   DS    A             Address of the CPU time used
 000034                             1852  1          =AIBTID     DS    A             Terminal ID
 000038                             1853  1          =AIBPGNM    DS    CL8           Current program name
 000040                00040 00040  1854             =         END   ,
1ACCOUNT  (ACCO00) (09:38) (22MAR04) User Resource Accounting Routines                                                      Page   15
0Current Usings:  (PZERO,R0)
0Loc    Object Code    Addr1 Addr2  Stmt Lv Lineno    Source Statement           (Hibal 5, Asmedit 3.3)  HLASM R4.0  2004/03/22 09.38
+___    ______ ____    _____ _____  ____ __ ______    ______ _________
0                                   1864      35.     *****************************************************************
                                    1865      36.     *                                                               *
                                    1866      37.     * ACCTINIT --  This is the Accounting initialization routine.   *
                                    1867      38.     *              It is called once at system initialization time. *
                                    1868      39.     *                                                               *
                                    1869      40.     *   Input  --  none                                             *
                                    1870      41.     *                                                               *
                                    1871      42.     *  Output  --  none                                             *
                                    1872      43.     *                                                               *
                                    1873      44.     *****************************************************************
-000000                00000 00024  1875      46.     ACIWORK  RECORD BEGIN
 000000                             1883  1   47.     ACIFACT    DS    D
 000008                             1884  1   48.     ACIPARM    DS    XL(L'PARMIN)
 00000C                             1885  1   49.     ACIKEYS    DS    3CL8
 000024                00024 00024  1886      50.              END
-000016                             1896      52.     ACCTINIT PROC  ,ACIWORK,SCOPE=GLOBAL
 000016 C1C3C3E3C9D5C9E3            1902             +
 00001E 0000/0028                   1903             +
 000022 900F D004/18AF       00004  1905             +
 USING  ACCTINIT,R10
 000028 50D0 C000/18CD       00000  1920             +
 00002E 9680 C000      00000        1922             +
 USING  ACIWORK-72,R12
 000032 41D0 C070            00070  1936             +
                                    1937      53.     *
                                    1938      54.     *  First create the ACCT
                                    1939      55.     *
 USING  @VMGET-72,R13               1940      56.              VMGET L'ACCT,LOC=GLOBHI
 000036 D70A D048 D048 00000 00000  1964             +
 00003C 4100 0010            00010  1976             +
 000040 5000 D048            00000  1981             +
 000044 D201 D050 A57E 00008 005A0  1982             +
 00004A 58F0 A556/0DEF       00578  1985             +
 000050 1270/4770 A064       00086  1987      57.              IF    ('LTR  RY,RVR',Z),'ABORT NOACCT'
 000056 AC04 021B      0021B        2004  1          +
 00005A 9680 021A      0021A        2010  1          +
 00005E 50F0 021C            0021C  2011  1          +
 000062 58F0 0210            00210  2012  1          +
 000066 89F0 0010            00010  2013  1          +
 00006A 88F0 0010            00010  2014  1          +
 00006E 41F0 F000            00000  2015  1          +
 000072 AEFF 0006            00006  2016  1          +
 000076 D5D6C1C3C3E34040            2017             +
 USING  ACCT,R7                     2022      58.              WITH  (ACCT,RY)
                                    2035      59.     *
                                    2036      60.     *  Clear it and set the id
                                    2037      61.     *
 000086 4110 0010            00010  2038      62.              LA    R1,L'ACCT
 00008A 1BFF                        2039      63.              CLEAR R15
 00008C 0E0E                        2043      64.              MVCL  R0,R14                  Clear it
1ACCOUNT  (ACCO00) (09:38) (22MAR04) User Resource Accounting Routines                                                      Page   16
0Current Usings:  (PZERO,R0) (ACCT,R7) (ACCTINIT,R10) (ACIWORK-72,R12) (@VMGET-72,R13)
0Loc    Object Code    Addr1 Addr2  Stmt Lv Lineno    Source Statement           (Hibal 5, Asmedit 3.3)  HLASM R4.0  2004/03/22 09.38
+___    ______ ____    _____ _____  ____ __ ______    ______ _________
000008E D203 7000 A55A 00000 0057C  2044      65.              MVC   ACCT(4),=CL4'ACCT'       and set the id
                                    2045      66.     *
                                    2046      67.     *  Connect the ACCT to the MAT
                                    2047      68.     *
 000094 5820 0200            00200  2048      69.              L     RA,PZMATP               MAT pointer
 000098 5070 2034            00034  2049      70.              WITH  (MAT,RA),'ST  RY,MATACCT'   ACCT pointer
 USING  MAT,R2
 DROP   MAT,R2
                                    2073      71.     *
                                    2074      72.     *  Set the defaults
                                    2075      73.     *
 00009C D207 7008 A536 00008 00558  2076      74.              MVC   ACFACTOR,=D'1'          Charges to CPU used are 1:1
                                    2077      75.     *
                                    2078      76.     *  Get the factor from the parm file
                                    2079      77.     *
 AUSING (PARMIN,ACIPARM)            2080      78.              WITH  (PARMIN,ACIPARM)
                                    2087      79.   C          GETPARM2 ACIFACT,,TYPE=FLOAT,KEY=(ACCOUNT,FACTOR),
 0000A2 920C C050      00000                  80.                    REGS=(R0,R14)           Read in the parms
 0000A6 D207 C054 A53E 00004 00560  2094             +
 0000AC D207 C05C A546 0000C 00568  2095             +
 0000B2 41E0 C050            00000  2102             +
 0000B6 41F0 0014            00014  2109             +
 0000BA 830E0016                    2112             +
 0000BE 4770 A0A4            000C6  2113      81.              IF    Z,'ST  R0,ACFACTOR'     The factor was specified
 0000C2 5000 7008            00008  2125             +
 0000C6 981F C008            00008  2130      82.              PEND  ,
 DROP   ACCT,R7
 DROP   ACIWORK-72,R12
 DROP   ACCTINIT,R10
 0000CA 9680 C000/0B0E 00000        2150             +
 DROP   @VMGET-72,R13
1ACCOUNT  (ACCO00) (09:38) (22MAR04) User Resource Accounting Routines                                                      Page   17
0Current Usings:  (PZERO,R0)
0Loc    Object Code    Addr1 Addr2  Stmt Lv Lineno    Source Statement           (Hibal 5, Asmedit 3.3)  HLASM R4.0  2004/03/22 09.38
+___    ______ ____    _____ _____  ____ __ ______    ______ _________
0                                   2160      84.     *****************************************************************
                                    2161      85.     *                                                               *
                                    2162      86.     *  ACLOGON --  This routine is called to initialize the         *
                                    2163      87.     *              accounting info for a user.                      *
                                    2164      88.     *                                                               *
                                    2165      89.     *   Input  --  @ACLOGON                                         *
                                    2166      90.     *                                                               *
                                    2167      91.     *  Output  --  none                                             *
                                    2168      92.     *                                                               *
                                    2169      93.     *****************************************************************
-0000D0                             2171      95.     ACLOGON  PROC  @ACLOGON,SCOPE=GLOBAL
 0000D0 C1C3D3D6C7D6D540            2177             +
 0000D8 0020/0000                   2178             +
 0000DC 900F D004/18AF       00004  2180             +
 USING  ACLOGON,R10
 0000E2 50D0 C000/18CD       00000  2195             +
 0000E8 9680 C000      00000        2197             +
 USING  @ACLOGON-72,R12
 0000EC 41D0 C068            00068  2211             +
                                    2212      96.     *
                                    2213      97.     * Get our bearings
                                    2214      98.     *
 0000F0 5860 C048            00000  2215      99.              L     RX,@ACLASB              Get the ASB address
 USING  ASB,R6                      2216     100.              WITH  (ASB,RX)
 0000F4                             2229     101.              IF    (ASB,NE,'ASB '),'ABORT BADASB'
 0000F4 D503 A4A4 6000 00580 00000  2240             +
 0000FA 4780 A052            0012E  2241             +
 0000FE AC04 021B      0021B        2250  1          +
 000102 9680 021A      0021A        2256  1          +
 000106 50F0 021C            0021C  2257  1          +
 00010A 58F0 0210            00210  2258  1          +
 00010E 89F0 0010            00010  2259  1          +
 000112 88F0 0010            00010  2260  1          +
 000116 41F0 F000            00000  2261  1          +
 00011A AEFF 0006            00006  2262  1          +
 00011E C2C1C4C1E2C24040            2263             +
 00012E 5870 6034/1277       00034  2268     102.              LT    RY,ASBAIB
 USING  AIB,R7                      2272     103.              WITH  (AIB,RY)
 000134 4780 A062            0013E  2285     104.              IF    NZ,BEGIN                Already logged on
 000138 D203 7018 C054 00018 0000C  2296  1  105.                MVC   AIBPRIVS,@ACLUPR        Update privs only
 00013E A066           0013E 00136  2297     106.              END   ELSE,BEGIN
 00013E 47F0 A0C8            001A4  2306             +
                                    2312  1  107.     *
                                    2313  1  108.     * Get an AIB
                                    2314  1  109.     *
 USING  @VMGET-72,R13               2315  1  110.                VMGET L'AIB,LOC=GLOBHI
 000142 D70A D048 D048 00000 00000  2339  1          +
 000148 4100 0040            00040  2351  1          +
 00014C 5000 D048            00000  2356  1          +
 000150 D201 D050 A4C4 00008 005A0  2357  1          +
 000156 58F0 A49C/0DEF       00578  2360  1          +
 00015C 1200/4780 A0C8       001A4  2362  1  111.                IF    (RVR,Z),EXIT
1ACCOUNT  (ACCO00) (09:38) (22MAR04) User Resource Accounting Routines                                                      Page   18
0Current Usings:  (PZERO,R0) (ASB,R6) (AIB,R7) (ACLOGON,R10) (@ACLOGON-72,R12) (@VMGET-72,R13)
0Loc    Object Code    Addr1 Addr2  Stmt Lv Lineno    Source Statement           (Hibal 5, Asmedit 3.3)  HLASM R4.0  2004/03/22 09.38
+___    ______ ____    _____ _____  ____ __ ______    ______ _________
0000162 1870                        2379  1  112.                LR    RY,RVR                  Copy the Address
 000164                             2380  1  113.                CLEAR AIB
 000164 D73F 7000 7000 00000 00000  2386  1          +
 00016A D203 7000 A4A8 00000 00584  2387  1  114.                MVC   AIB(4),=C'AIB '         Move in the ID
                                    2388  1  115.     *
                                    2389  1  116.     * Fill in the AIB
                                    2390  1  117.     *
 000170 5060 7004            00004  2391  1  118.                ST    RX,AIBASB               Save the ASB address
 000174 D207 7008 C04C 00008 00004  2392  1  119.                MVC   AIBUSER,@ACLUID         User ID
 00017A D203 7018 C054 00018 0000C  2393  1  120.                MVC   AIBPRIVS,@ACLUPR        Privs
 000180 D207 7010 C058 00010 00010  2394  1  121.                MVC   AIBLOT,@ACLLOT          Logon time
 000186 D203 7034 C060 00034 00018  2395  1  122.                MVC   AIBTID,@ACLTID          Terminal id
 00018C 58F0 A4AC/0DEF       00588  2396  1  123.                VCALL DISPCPTA                Find out where the CPU time is
 000192 5000 7030            00030  2400  1  124.                ST    RVR,AIBCPUTA            Save the location
 000196 58F0 A4B0/0DEF       0058C  2401  1  125.                VCALL PAGPIOA                 Find out where paging info is
 00019C 5000 7028            00028  2405  1  126.                ST    RVR,AIBPIOSA            Save the location
                                    2406  1  127.     *
                                    2407  1  128.     * Put the AIB address in the ASB
                                    2408  1  129.     *
 0001A0 5070 6034            00034  2409  1  130.                ST    RY,ASBAIB               Save the AIB address
 0001A4                             2410     131.              END   ,
 0001A4 981F C008            00008  2414     132.              PEND  ,
 DROP   AIB,R7
 DROP   ASB,R6
 DROP   @ACLOGON-72,R12
 DROP   ACLOGON,R10
 0001A8 9680 C000/0B0E 00000        2439             +
 DROP   @VMGET-72,R13
1ACCOUNT  (ACCO00) (09:38) (22MAR04) User Resource Accounting Routines                                                      Page   19
0Current Usings:  (PZERO,R0)
0Loc    Object Code    Addr1 Addr2  Stmt Lv Lineno    Source Statement           (Hibal 5, Asmedit 3.3)  HLASM R4.0  2004/03/22 09.38
+___    ______ ____    _____ _____  ____ __ ______    ______ _________
0                                   2449     134.     *****************************************************************
                                    2450     135.     *                                                               *
                                    2451     136.     * ACLOGOFF --  This routine is called to terminate accounting   *
                                    2452     137.     *              for a user.                                      *
                                    2453     138.     *                                                               *
                                    2454     139.     *   Input  --  none                                             *
                                    2455     140.     *                                                               *
                                    2456     141.     *  Output  --  none                                             *
                                    2457     142.     *                                                               *
                                    2458     143.     *****************************************************************
-0001AE                             2460     145.     ACLOGOFF PROC  SCOPE=GLOBAL
 0001AE C1C3D3D6C7D6C6C6            2466             +
 0001B6 0000/0000                   2467             +
 0001BA 900F D004/18AF       00004  2469             +
 USING  ACLOGOFF,R10
 0001C0 50D0 C000/18CD       00000  2484             +
 0001C6 9680 C000      00000        2486             +
 0001CA 41D0 C048            00048  2487             +
                                    2488     146.     *
                                    2489     147.     * Get our bearings
                                    2490     148.     *
 0001CE 5860 0208            00208  2491     149.              L     RX,PZCURASB             Get the ASB address
 USING  ASB,R6                      2492     150.              WITH  (ASB,RX)
 0001D2 5870 6034/1277       00034  2505     151.              LT    RY,ASBAIB
 0001D8 4780 A086            00240  2509     152.              IF    Z,EXIT                  No AIB here
 USING  AIB,R7                      2523     153.              WITH  (AIB,RY)
 0001DC                             2536     154.              IF    (AIB,NE,'AIB '),'ABORT BADAIB'
 0001DC D503 A3CA 7000 00584 00000  2547             +
 0001E2 4780 A05C            00216  2548             +
 0001E6 AC04 021B      0021B        2557  1          +
 0001EA 9680 021A      0021A        2563  1          +
 0001EE 50F0 021C            0021C  2564  1          +
 0001F2 58F0 0210            00210  2565  1          +
 0001F6 89F0 0010            00010  2566  1          +
 0001FA 88F0 0010            00010  2567  1          +
 0001FE 41F0 F000            00000  2568  1          +
 000202 AEFF 0006            00006  2569  1          +
 000206 C2C1C4C1C9C24040            2570             +
                                    2575     155.     *
                                    2576     156.     * Free the AIB
                                    2577     157.     *
 000216                             2578     158.              CLEAR AIB                     Give it a blank look
 000216 D73F 7000 7000 00000 00000  2584             +
 USING  @VMFREE-72,R13              2585     159.              VMFREE L'AIB,A=(RY),LOC=GLOBHI
 00021C D709 D048 D048 00000 00000  2609             +
 000222 4100 0040            00040  2621             +
 000226 5000 D04C            00004  2626             +
 00022A 5070 D048            00000  2636             +
 00022E D201 D050 A3E6 00008 005A0  2637             +
 000234 58F0 A3D6/0DEF       00590  2640             +
 00023A                             2642     160.              CLEAR ASBAIB                  clear the pointer to it
 00023A D703 6034 6034 00034 00034  2648             +
1ACCOUNT  (ACCO00) (09:38) (22MAR04) User Resource Accounting Routines                                                      Page   20
0Current Usings:  (PZERO,R0) (@VMFREE-72,R13)
0Loc    Object Code    Addr1 Addr2  Stmt Lv Lineno    Source Statement           (Hibal 5, Asmedit 3.3)  HLASM R4.0  2004/03/22 09.38
+___    ______ ____    _____ _____  ____ __ ______    ______ _________
0000240 981F C008            00008  2649     161.              PEND  ,
 DROP   AIB,R7
 DROP   ASB,R6
 DROP   ACLOGOFF,R10
 000244 9680 C000/0B0E 00000        2669             +
 DROP   @VMFREE-72,R13
1ACCOUNT  (ACCO00) (09:38) (22MAR04) User Resource Accounting Routines                                                      Page   21
0Current Usings:  (PZERO,R0)
0Loc    Object Code    Addr1 Addr2  Stmt Lv Lineno    Source Statement           (Hibal 5, Asmedit 3.3)  HLASM R4.0  2004/03/22 09.38
+___    ______ ____    _____ _____  ____ __ ______    ______ _________
0                                   2679     163.     *****************************************************************
                                    2680     164.     *                                                               *
                                    2681     165.     *  ACAINFO --  This routine returns information about the       *
                                    2682     166.     *              account associated with the given ASB.           *
                                    2683     167.     *                                                               *
                                    2684     168.     *   Input  --  @ACAINFO                                         *
                                    2685     169.     *                                                               *
                                    2686     170.     *  Output  --  none                                             *
                                    2687     171.     *                                                               *
                                    2688     172.     *****************************************************************
-00024A                             2690     174.     ACAINFO  PROC  @ACAINFO,SCOPE=GLOBAL
 00024A C1C3C1C9D5C6D640            2696             +
 000252 0018/0000                   2697             +
 000256 900F D004/18AF       00004  2699             +
 USING  ACAINFO,R10
 00025C 50D0 C000/18CD       00000  2714             +
 000262 9680 C000      00000        2716             +
 USING  @ACAINFO-72,R12
 000266 41D0 C060            00060  2730             +
                                    2731     175.     *
                                    2732     176.     * Find out who they want to know about
                                    2733     177.     *
 00026A 5860 C048            00000  2734     178.              L     RX,@ACAASB              Get the ASB address
 USING  ASB,R6                      2735     179.              WITH  (ASB,RX)
 00026E                             2748     180.              IF    (ASB,NE,'ASB '),'ABORT BADASB'
 00026E D503 A32A 6000 00580 00000  2759             +
 000274 4780 A052            002A8  2760             +
 000278 AC04 021B      0021B        2769  1          +
 00027C 9680 021A      0021A        2775  1          +
 000280 50F0 021C            0021C  2776  1          +
 000284 58F0 0210            00210  2777  1          +
 000288 89F0 0010            00010  2778  1          +
 00028C 88F0 0010            00010  2779  1          +
 000290 41F0 F000            00000  2780  1          +
 000294 AEFF 0006            00006  2781  1          +
 000298 C2C1C4C1E2C24040            2782             +
 0002A8 5870 6034/1277       00034  2787     181.              LT    RY,ASBAIB               Get the AIB address
 0002AE 4780 A06E            002C4  2791     182.              IF    Z,EXIT                  No accounting info here
 USING  AIB,R7                      2805     183.              WITH  (AIB,RY)
                                    2818     184.     *
                                    2819     185.     * Fill in the response
                                    2820     186.     *
 0002B2 D207 C04C 7008 00004 00008  2821     187.              MVC   @ACAUID,AIBUSER
 0002B8 D203 C054 7018 0000C 00018  2822     188.              MVC   @ACAUPR,AIBPRIVS
 0002BE D207 C058 7010 00010 00010  2823     189.              MVC   @ACALOT,AIBLOT
 0002C4 981F C008            00008  2824     190.              PEND  ,
 DROP   AIB,R7
 DROP   ASB,R6
 DROP   @ACAINFO-72,R12
 DROP   ACAINFO,R10
 0002C8 9680 C000/0B0E 00000        2849             +
1ACCOUNT  (ACCO00) (09:38) (22MAR04) User Resource Accounting Routines                                                      Page   22
0Current Usings:  (PZERO,R0)
0Loc    Object Code    Addr1 Addr2  Stmt Lv Lineno    Source Statement           (Hibal 5, Asmedit 3.3)  HLASM R4.0  2004/03/22 09.38
+___    ______ ____    _____ _____  ____ __ ______    ______ _________
0                                   2856     192.     *****************************************************************
                                    2857     193.     *                                                               *
                                    2858     194.     *   ACINFO --  This routine returns information about the       *
                                    2859     195.     *              resources used by the given ASB.                 *
                                    2860     196.     *                                                               *
                                    2861     197.     *   Input  --  @ACINFO                                          *
                                    2862     198.     *                                                               *
                                    2863     199.     *  Output  --  none                                             *
                                    2864     200.     *                                                               *
                                    2865     201.     *****************************************************************
-0002CE                             2867     203.     ACINFO   PROC  @ACINFO,SCOPE=GLOBAL
 0002CE C1C3C9D5C6D64040            2873             +
 0002D6 0028/0000                   2874             +
 0002DA 900F D004/18AF       00004  2876             +
 USING  ACINFO,R10
 0002E0 50D0 C000/18CD       00000  2891             +
 0002E6 9680 C000      00000        2893             +
 USING  @ACINFO-72,R12
 0002EA 41D0 C070            00070  2907             +
                                    2908     204.     *
                                    2909     205.     * Find out who they want to know about
                                    2910     206.     *
 0002EE 5860 C048            00000  2911     207.              L     RX,@ACIASB              Get the ASB address
 USING  ASB,R6                      2912     208.              WITH  (ASB,RX)
 0002F2                             2925     209.              IF    (ASB,NE,'ASB '),'ABORT BADASB'
 0002F2 D503 A2A6 6000 00580 00000  2936             +
 0002F8 4780 A052            0032C  2937             +
 0002FC AC04 021B      0021B        2946  1          +
 000300 9680 021A      0021A        2952  1          +
 000304 50F0 021C            0021C  2953  1          +
 000308 58F0 0210            00210  2954  1          +
 00030C 89F0 0010            00010  2955  1          +
 000310 88F0 0010            00010  2956  1          +
 000314 41F0 F000            00000  2957  1          +
 000318 AEFF 0006            00006  2958  1          +
 00031C C2C1C4C1E2C24040            2959             +
 00032C 5870 6034/1277       00034  2964     210.              LT    RY,ASBAIB               Get the AIB address
 000332 4780 A0D2            003AC  2968     211.              IF    Z,EXIT                  No accounting info here
 USING  AIB,R7                      2982     212.              WITH  (AIB,RY)
                                    2995     213.     *
                                    2996     214.     * Calculate the connect time
                                    2997     215.     *
 000336 B205 C058      00010        2998     216.              STCK  @ACICON                 Save current time
 00033A 9823 C058            00010  2999     217.              LM    RA,RB,@ACICON           Get the value
 00033E 5E30 0224            00224  3000     218.              ADL   RA,PZTZOFF              Add time zone offset
 000342 47C0 A070            0034A  3009             +
 000346 5E20 A2BA            00594  3015             +
 00034A 5E20 0220            00220  3020             +
 00034E 5F30 7014            00014  3021     219.              SDL   RA,AIBLOT               Less the logon time
 000352 47B0 A07E/0620       00358  3023             +
 000358 5F20 7010            00010  3025             +
 00035C 9023 C058            00010  3026     220.              STM   RA,RB,@ACICON           Gives the connect time
1ACCOUNT  (ACCO00) (09:38) (22MAR04) User Resource Accounting Routines                                                      Page   23
0Current Usings:  (PZERO,R0) (ASB,R6) (AIB,R7) (ACINFO,R10) (@ACINFO-72,R12)
0Loc    Object Code    Addr1 Addr2  Stmt Lv Lineno    Source Statement           (Hibal 5, Asmedit 3.3)  HLASM R4.0  2004/03/22 09.38
+___    ______ ____    _____ _____  ____ __ ______    ______ _________
0                                   3027     221.     *
                                    3028     222.     * Move in the rest of the info
                                    3029     223.     *
 000360 5810 7030            00030  3030     224.              L     RS,AIBCPUTA             Location of the CPU time
 000364 D207 C050 1000 00008 00000  3031     225.              MVC   @ACICPU,@RS             CPU time
 00036A D203 C04C 7020 00004 00020  3032     226.              MVC   @ACIIOS,AIBDIOS         I/Os
 000370 D203 C068 7034 00020 00034  3033     227.              MVC   @ACITID,AIBTID          Terminal id
 000376 D207 C060 7038 00018 00038  3034     228.              MVC   @ACIPGNM,AIBPGNM        Program name
 00037C D203 C06C 701C 00024 0001C  3035     229.              MVC   @ACIORG,AIBORG          Shared program address
                                    3036     230.     *
                                    3037     231.     *  Get pointer to Account information table
                                    3038     232.     *
 000382 5880 0200            00200  3039     233.              L     RM,PZMATP               MAT POINTER
 000386 5880 8034            00034  3040     234.              WITH  (MAT,RM),'L  RM,MATACCT'   ACCT POINTER
 USING  MAT,R8
 DROP   MAT,R8
 USING  ACCT,R8                     3064     235.              WITH  (ACCT,RM)
                                    3077     236.     *
                                    3078     237.     *  Calculate the charge time factor
                                    3079     238.     *
 00038A                             3080     239.              IF    (ACFACTOR,NE,=D'1'),BEGIN
 00038A D507 A27E 8008 00558 00008  3091             +
 000390 4780 A0D2            003AC  3092             +
 000394 924E C050      00008        3097  1  240.                MVI   @ACICPU,X'4E'           Add exponent to make CPU time
 000398 6800 C050            00008  3098  1  241.                LD    0,@ACICPU                into a floating point value
 00039C 6C00 8008            00008  3099  1  242.                MD    0,ACFACTOR              CPU factor
 0003A0 6E00 A296            00570  3100  1  243.                AW    0,=X'4E00000000000000'  Scale the result
 0003A4 6000 C050            00008  3101  1  244.                STD   0,@ACICPU                and save it back
 0003A8 9200 C050      00008        3102  1  245.                MVI   @ACICPU,0               Remove exponent
 0003AC                             3103     246.              END
 0003AC 981F C008            00008  3107     247.              PEND  ,                       Return to the caller
 DROP   ACCT,R8
 DROP   AIB,R7
 DROP   ASB,R6
 DROP   @ACINFO-72,R12
 DROP   ACINFO,R10
 0003B0 9680 C000/0B0E 00000        3137             +
1ACCOUNT  (ACCO00) (09:38) (22MAR04) User Resource Accounting Routines                                                      Page   24
0Current Usings:  (PZERO,R0)
0Loc    Object Code    Addr1 Addr2  Stmt Lv Lineno    Source Statement           (Hibal 5, Asmedit 3.3)  HLASM R4.0  2004/03/22 09.38
+___    ______ ____    _____ _____  ____ __ ______    ______ _________
0                                   3144     249.     *****************************************************************
                                    3145     250.     *                                                               *
                                    3146     251.     *   ACPNFO --  This routine sets certain program specific       *
                                    3147     252.     *              information in AIB.                              *
                                    3148     253.     *                                                               *
                                    3149     254.     *   Input  --  @ACPINFO                                         *
                                    3150     255.     *                                                               *
                                    3151     256.     *  Output  --  none                                             *
                                    3152     257.     *                                                               *
                                    3153     258.     *****************************************************************
-0003B6                             3155     260.     ACPINFO  PROC  @ACPINFO,SCOPE=GLOBAL
 0003B6 C1C3D7C9D5C6D640            3161             +
 0003BE 0010/0000                   3162             +
 0003C2 900F D004/18AF       00004  3164             +
 USING  ACPINFO,R10
 0003C8 50D0 C000/18CD       00000  3179             +
 0003CE 9680 C000      00000        3181             +
 USING  @ACPINFO-72,R12
 0003D2 41D0 C058            00058  3195             +
                                    3196     261.     *
                                    3197     262.     * Find out who they want to know about
                                    3198     263.     *
 0003D6 5860 C048            00000  3199     264.              L     RX,@ACPASB              Get the ASB address
 USING  ASB,R6                      3200     265.              WITH  (ASB,RX)
 0003DA                             3213     266.              IF    (ASB,NE,'ASB '),EXIT
 0003DA D503 A1BE 6000 00580 00000  3224             +
 0003E0 4770 A032            003F4  3227             +
 0003E4 5870 6034/1277       00034  3233     267.              LT    RY,ASBAIB               Get the AIB address
 0003EA 4780 A032            003F4  3237     268.              IF    Z,EXIT                  No accounting info here
 USING  AIB,R7                      3251     269.              WITH  (AIB,RY)
 0003EE D207 7038 C04C 00038 00004  3264     270.              MVC   AIBPGNM,@ACPPGNM        Set program name
 0003F4 981F C008            00008  3265     271.              PEND  ,
 DROP   AIB,R7
 DROP   ASB,R6
 DROP   @ACPINFO-72,R12
 DROP   ACPINFO,R10
 0003F8 9680 C000/0B0E 00000        3290             +
1ACCOUNT  (ACCO00) (09:38) (22MAR04) User Resource Accounting Routines                                                      Page   25
0Current Usings:  (PZERO,R0)
0Loc    Object Code    Addr1 Addr2  Stmt Lv Lineno    Source Statement           (Hibal 5, Asmedit 3.3)  HLASM R4.0  2004/03/22 09.38
+___    ______ ____    _____ _____  ____ __ ______    ______ _________
0                                   3297     273.     *****************************************************************
                                    3298     274.     *                                                               *
                                    3299     275.     *   ACSPNFO -- This routine sets certain shared program         *
                                    3300     276.     *              specific information in AIB.                     *
                                    3301     277.     *                                                               *
                                    3302     278.     *   Input  --  @ACPINFO                                         *
                                    3303     279.     *                                                               *
                                    3304     280.     *  Output  --  none                                             *
                                    3305     281.     *                                                               *
                                    3306     282.     *****************************************************************
-0003FE                             3308     284.     ACSPINF  PROC  @ACSPINF,SCOPE=GLOBAL
 0003FE C1C3E2D7C9D5C640            3314             +
 000406 0008/0000                   3315             +
 00040A 900F D004/18AF       00004  3317             +
 USING  ACSPINF,R10
 000410 50D0 C000/18CD       00000  3332             +
 000416 9680 C000      00000        3334             +
 USING  @ACSPINF-72,R12
 00041A 41D0 C050            00050  3348             +
                                    3349     285.     *
                                    3350     286.     * Find out who they want to know about
                                    3351     287.     *
 00041E 5860 C048            00000  3352     288.              L     RX,@ACSPASB              Get the ASB address
 USING  ASB,R6                      3353     289.              WITH  (ASB,RX)
 000422                             3366     290.              IF    (ASB,NE,'ASB '),EXIT
 000422 D503 A176 6000 00580 00000  3377             +
 000428 4770 A032            0043C  3380             +
 00042C 5870 6034/1277       00034  3386     291.              LT    RY,ASBAIB               Get the AIB address
 000432 4780 A032            0043C  3390     292.              IF    Z,EXIT                  No accounting info here
 USING  AIB,R7                      3404     293.              WITH  (AIB,RY)
 000436 D203 701C C04C 0001C 00004  3417     294.              MVC   AIBORG,@ACSPORG         Set Shared program address
 00043C 981F C008            00008  3418     295.              PEND  ,
 DROP   AIB,R7
 DROP   ASB,R6
 DROP   @ACSPINF-72,R12
 DROP   ACSPINF,R10
 000440 9680 C000/0B0E 00000        3443             +
1ACCOUNT  (ACCO00) (09:38) (22MAR04) User Resource Accounting Routines                                                      Page   26
0Current Usings:  (PZERO,R0)
0Loc    Object Code    Addr1 Addr2  Stmt Lv Lineno    Source Statement           (Hibal 5, Asmedit 3.3)  HLASM R4.0  2004/03/22 09.38
+___    ______ ____    _____ _____  ____ __ ______    ______ _________
0                                   3450     297.     *****************************************************************
                                    3451     298.     *                                                               *
                                    3452     299.     *  ACDSKIO --  This routine is called to signal the completion  *
                                    3453     300.     *              of chargable disk I/O.                           *
                                    3454     301.     *                                                               *
                                    3455     302.     *   Input  --  none                                             *
                                    3456     303.     *                                                               *
                                    3457     304.     *  Output  --  none                                             *
                                    3458     305.     *                                                               *
                                    3459     306.     *****************************************************************
-000446                             3461     308.     ACDSKIO  PROC  SCOPE=GLOBAL
 000446 C1C3C4E2D2C9D640            3467             +
 00044E 0000/0000                   3468             +
 000452 900F D004/18AF       00004  3470             +
 USING  ACDSKIO,R10
 000458 50D0 C000/18CD       00000  3485             +
 00045E 9680 C000      00000        3487             +
 000462 41D0 C048            00048  3488             +
                                    3489     309.     *
                                    3490     310.     * Get our bearings
                                    3491     311.     *
 000466 5860 0208            00208  3492     312.              L     RX,PZCURASB             Get the current ASB address
 USING  ASB,R6                      3493     313.              WITH  (ASB,RX)
 00046A 5870 6034/1277       00034  3506     314.              LT    RY,ASBAIB               Get the AIB location
 000470 4780 A034            00486  3510     315.              IF    Z,EXIT                  Don't count it
 USING  AIB,R7                      3524     316.              WITH  (AIB,RY)
                                    3537     317.     *
                                    3538     318.     * Add this Disk I/O to the count
                                    3539     319.     *
 000474 5820 7020            00020  3540     320.              L     RA,AIBDIOS
 000478                             3541     321.              LOOP  BEGIN
 000478 1812                        3547  1  322.                LR    RS,RA
 00047A 5A10 A142            00594  3548  1  323.                A     RS,=A(1)                Add this I/O
 00047E BA21 7020            00020  3549  1  324.                CS    RA,RS,AIBDIOS           Update the count
 000482 4770 A026            00478  3550     325.              UNTIL Z,END
 000486 981F C008            00008  3569     326.              PEND  ,                       Then return
 DROP   AIB,R7
 DROP   ASB,R6
 DROP   ACDSKIO,R10
 00048A 9680 C000/0B0E 00000        3589             +
1ACCOUNT  (ACCO00) (09:38) (22MAR04) User Resource Accounting Routines                                                      Page   27
0Current Usings:  (PZERO,R0)
0Loc    Object Code    Addr1 Addr2  Stmt Lv Lineno    Source Statement           (Hibal 5, Asmedit 3.3)  HLASM R4.0  2004/03/22 09.38
+___    ______ ____    _____ _____  ____ __ ______    ______ _________
0                                   3596     328.     *****************************************************************
                                    3597     329.     *                                                               *
                                    3598     330.     *  ACPUCHG --  This routine returns the CPU charges for this    *
                                    3599     331.     *              Address space in FPR 0.  The CPU charge is the   *
                                    3600     332.     *              CPU time times charge factor and is in the form  *
                                    3601     333.     *              of an unnormalized TOD value.                    *
                                    3602     334.     *                                                               *
                                    3603     335.     *   Input  --  none                                             *
                                    3604     336.     *                                                               *
                                    3605     337.     *  Output  --  FPR 0 contains the address space CPU charges     *
                                    3606     338.     *                                                               *
                                    3607     339.     *****************************************************************
-000000                00000 00008  3609     341.     ACPWORK  RECORD BEGIN
 000000                             3617  1  342.     ACPTIME    DS    D
 000008                00008 00008  3618     343.              END
-000490                             3628     345.     ACPUCHG  PROC  ,ACPWORK,SCOPE=GLOBAL
 000490 C1C3D7E4C3C8C740            3634             +
 000498 0000/0008                   3635             +
 00049C 900F D004/18AF       00004  3637             +
 USING  ACPUCHG,R10
 0004A2 50D0 C000/18CD       00000  3652             +
 0004A8 9680 C000      00000        3654             +
 USING  ACPWORK-72,R12
 0004AC 41D0 C050            00050  3668             +
                                    3669     346.     *
                                    3670     347.     *  First get CPU time from dispatcher
                                    3671     348.     *
 0004B0 58F0 A0FC/0DEF       00598  3672     349.              VCALL ACPUTIME
                                    3676     350.     *
                                    3677     351.     *  Get pointer to Account information table
                                    3678     352.     *
 0004B6 5880 0200            00200  3679     353.              L     RM,PZMATP               MAT POINTER
 0004BA 5880 8034            00034  3680     354.              WITH  (MAT,RM),'L  RM,MATACCT'   ACCT POINTER
 USING  MAT,R8
 DROP   MAT,R8
 USING  ACCT,R8                     3704     355.              WITH  (ACCT,RM)
                                    3717     356.     *
                                    3718     357.     *  Now apply the factor to it
                                    3719     358.     *
 0004BE                             3720     359.              IF    (ACFACTOR,NE,=D'1'),BEGIN
 0004BE D507 A0BC 8008 00558 00008  3731             +
 0004C4 4780 A04C            004E8  3732             +
 0004C8 6000 C048            00000  3737  1  360.                STD   0,ACPTIME               CPU time returned by dispatch
 0004CC 924E C048      00000        3738  1  361.                MVI   ACPTIME,X'4E'           Add exponent to make CPU time
 0004D0 6800 C048            00000  3739  1  362.                LD    0,ACPTIME                into a floating point value
 0004D4 6C00 8008            00008  3740  1  363.                MD    0,ACFACTOR              CPU factor
 0004D8 6E00 A0D4            00570  3741  1  364.                AW    0,=X'4E00000000000000'  Scale the result
 0004DC 6000 C048            00000  3742  1  365.                STD   0,ACPTIME                and store it to
 0004E0 9200 C048      00000        3743  1  366.                MVI   ACPTIME,0                remove exponent
 0004E4 6800 C048            00000  3744  1  367.                LD    0,ACPTIME               Provide caller with charges
1ACCOUNT  (ACCO00) (09:38) (22MAR04) User Resource Accounting Routines                                                      Page   28
0Current Usings:  (PZERO,R0) (ACCT,R8) (ACPUCHG,R10) (ACPWORK-72,R12)
0Loc    Object Code    Addr1 Addr2  Stmt Lv Lineno    Source Statement           (Hibal 5, Asmedit 3.3)  HLASM R4.0  2004/03/22 09.38
+___    ______ ____    _____ _____  ____ __ ______    ______ _________
00004E8                             3745     368.              END
 0004E8 981F C008            00008  3749     369.              PEND  ,
 DROP   ACCT,R8
 DROP   ACPWORK-72,R12
 DROP   ACPUCHG,R10
 0004EC 9680 C000/0B0E 00000        3769             +
1ACCOUNT  (ACCO00) (09:38) (22MAR04) User Resource Accounting Routines                                                      Page   29
0Current Usings:  (PZERO,R0)
0Loc    Object Code    Addr1 Addr2  Stmt Lv Lineno    Source Statement           (Hibal 5, Asmedit 3.3)  HLASM R4.0  2004/03/22 09.38
+___    ______ ____    _____ _____  ____ __ ______    ______ _________
0                                   3776     371.     *****************************************************************
                                    3777     372.     *                                                               *
                                    3778     373.     *  TCPUCHG --  This routine returns the CPU charges for this    *
                                    3779     374.     *              task in FPR 0.  The CPU charge is the CPU time   *
                                    3780     375.     *              times charge factor and is in the form           *
                                    3781     376.     *              of an unnormalized TOD value.                    *
                                    3782     377.     *                                                               *
                                    3783     378.     *   Input  --  none                                             *
                                    3784     379.     *                                                               *
                                    3785     380.     *  Output  --  FPR 0 contains the task CPU time                 *
                                    3786     381.     *                                                               *
                                    3787     382.     *****************************************************************
-000000                00000 00008  3789     384.     TCPWORK  RECORD BEGIN
 000000                             3797  1  385.     TCPTIME    DS    D
 000008                00008 00008  3798     386.              END
-0004F2                             3808     388.     TCPUCHG  PROC  ,TCPWORK,SCOPE=GLOBAL
 0004F2 E3C3D7E4C3C8C740            3814             +
 0004FA 0000/0008                   3815             +
 0004FE 900F D004/18AF       00004  3817             +
 USING  TCPUCHG,R10
 000504 50D0 C000/18CD       00000  3832             +
 00050A 9680 C000      00000        3834             +
 USING  TCPWORK-72,R12
 00050E 41D0 C050            00050  3848             +
                                    3849     389.     *
                                    3850     390.     *  First get CPU time from dispatcher
                                    3851     391.     *
 000512 58F0 A09E/0DEF       0059C  3852     392.              VCALL TCPUTIME
                                    3856     393.     *
                                    3857     394.     *  Get pointer to Account information table
                                    3858     395.     *
 000518 5880 0200            00200  3859     396.              L     RM,PZMATP               MAT POINTER
 00051C 5880 8034            00034  3860     397.              WITH  (MAT,RM),'L  RM,MATACCT'   ACCT POINTER
 USING  MAT,R8
 DROP   MAT,R8
 USING  ACCT,R8                     3884     398.              WITH  (ACCT,RM)
                                    3897     399.     *
                                    3898     400.     *  Now apply the factor to it
                                    3899     401.     *
 000520                             3900     402.              IF    (ACFACTOR,NE,=D'1'),BEGIN
 000520 D507 A05A 8008 00558 00008  3911             +
 000526 4780 A04C            0054A  3912             +
 00052A 6000 C048            00000  3917  1  403.                STD   0,TCPTIME               CPU time returned by dispatch
 00052E 924E C048      00000        3918  1  404.                MVI   TCPTIME,X'4E'           Add exponent to make CPU time
 000532 6800 C048            00000  3919  1  405.                LD    0,TCPTIME                into a floating point value
 000536 6C00 8008            00008  3920  1  406.                MD    0,ACFACTOR              CPU factor
 00053A 6E00 A072            00570  3921  1  407.                AW    0,=X'4E00000000000000'  Scale the result
 00053E 6000 C048            00000  3922  1  408.                STD   0,TCPTIME                and store it to
 000542 9200 C048      00000        3923  1  409.                MVI   TCPTIME,0                remove exponent
 000546 6800 C048            00000  3924  1  410.                LD    0,TCPTIME               Provide caller with charges
1ACCOUNT  (ACCO00) (09:38) (22MAR04) User Resource Accounting Routines                                                      Page   30
0Current Usings:  (PZERO,R0) (ACCT,R8) (TCPUCHG,R10) (TCPWORK-72,R12)
0Loc    Object Code    Addr1 Addr2  Stmt Lv Lineno    Source Statement           (Hibal 5, Asmedit 3.3)  HLASM R4.0  2004/03/22 09.38
+___    ______ ____    _____ _____  ____ __ ______    ______ _________
000054A                             3925     411.              END
 00054A 981F C008            00008  3929     412.              PEND  ,
 DROP   ACCT,R8
 DROP   TCPWORK-72,R12
 DROP   TCPUCHG,R10
 00054E 9680 C000/0B0E 00000        3949             +
1ACCOUNT  (ACCO00) (09:38) (22MAR04) User Resource Accounting Routines                                                      Page   31
0Current Usings:  (PZERO,R0)
0Loc    Object Code    Addr1 Addr2  Stmt Lv Lineno    Source Statement           (Hibal 5, Asmedit 3.3)  HLASM R4.0  2004/03/22 09.38
+___    ______ ____    _____ _____  ____ __ ______    ______ _________
0000554 00000000                    3956     414.              XTRCDATA                      Generate the trace info
 000558                             3959     415.              END   .
 000558 4110000000000000            3962                             =D'1'
 000560 C1C3C3D6E4D5E340            3963                             =CL8'ACCOUNT'
 000568 C6C1C3E3D6D94040            3964                             =CL8'FACTOR'
 000570 4E00000000000000            3965                             =X'4E00000000000000'
 000578 00000000                    3966                             =V(VMGET)
 00057C C1C3C3E3                    3967                             =CL4'ACCT'
 000580 C1E2C240                    3968                             =C'ASB '
 000584 C1C9C240                    3969                             =C'AIB '
 000588 00000000                    3970                             =V(DISPCPTA)
 00058C 00000000                    3971                             =V(PAGPIOA)
 000590 00000000                    3972                             =V(VMFREE)
 000594 00000001                    3973                             =A(1)
 000598 00000000                    3974                             =V(ACPUTIME)
 00059C 00000000                    3975                             =V(TCPUTIME)
 0005A0 3B00           005A2 005A2  3976                             =Y(59*256+0)

1ACCOUNT  (ACCO00) (09:38) (22MAR04) Ordinary Symbol and Literal Cross Reference                                            Page   32
-Symbol   Length   Value     Id    R Type   Defn References                                  HLASM R4.0  2004/03/22 09.38
0$$$@R0        1 00000000 FFFFFFFE     J     714 1010
 $$$@R1        1 00000000 FFFFFFFD     J     727 1022
 $$$@R10       1 00000000 FFFFFFF4     J     844 1142
 $$$@R11       1 00000000 FFFFFFF3     J     857 1154
 $$$@R12       1 00000000 FFFFFFF2     J     870 1166
 $$$@R13       1 00000000 FFFFFFF1     J     883 1178
 $$$@R14       1 00000000 FFFFFFF0     J     896 1190
 $$$@R15       1 00000000 FFFFFFEF     J     909 1202
 $$$@R2        1 00000000 FFFFFFFC     J     740 1034
 $$$@R3        1 00000000 FFFFFFFB     J     753 1046
 $$$@R4        1 00000000 FFFFFFFA     J     766 1058
 $$$@R5        1 00000000 FFFFFFF9     J     779 1070
 $$$@R6        1 00000000 FFFFFFF8     J     792 1082
 $$$@R7        1 00000000 FFFFFFF7     J     805 1094
 $$$@R8        1 00000000 FFFFFFF6     J     818 1106
 $$$@R9        1 00000000 FFFFFFF5     J     831 1118  1130
 $$$C1ACCOUNT
               1 000005A2 00000001     J    3977 3979
 $$$R@ACAINFO
               1 00000000 FFFFFFEA     J    1510 1527  1527
 $$$R@ACINFO
               1 00000000 FFFFFFE9     J    1537 1556  1556
 $$$R@ACLOGON
               1 00000000 FFFFFFEB     J    1483 1500  1500
 $$$R@ACPINFO
               1 00000000 FFFFFFE8     J    1565 1579  1579
 $$$R@ACSPINF
               1 00000000 FFFFFFE7     J    1588 1602  1602
 $$$R@PARMDO
               1 00000000 FFFFFFE3     J    1699 1715  1715
 $$$R@VMFREE
               1 00000000 FFFFFFE5     J    1650 1665  1665
 $$$R@VMGET
               1 00000000 FFFFFFE6     J    1615 1644  1644
 $$$R@VMINFO
               1 00000000 FFFFFFE4     J    1671 1686  1686
 $$$RACCT      1 00000000 FFFFFFE1     J    1791 1808  1808
 $$$RACIWORK
               1 00000000 FFFFFFDF     J    1877 1892  1892
 $$$RACPWORK
               1 00000000 FFFFFFDE     J    3611 3624  3624
 $$$RAIB       1 00000000 FFFFFFE0     J    1829 1860  1860
 $$$RASB       1 00000000 FFFFFFEC     J    1415 1466  1466
 $$$RMAT       1 00000000 FFFFFFED     J    1349 1408  1408
 $$$RPARMIN
               1 00000000 FFFFFFE2     J    1721 1779  1779
 $$$RPZERO
               1 00000000 FFFFFFEE     J    1236 1327  1327
 $$$RTCPWORK
               1 00000000 FFFFFFDD     J    3791 3804  3804
 $$$10E        2 00000142 00000001     H    2310 2304
 $$$10F        2 000001A4 00000001     H    2413 2306B 2373B
 $$$12F        2 00000240 00000001     H    2667 2517B
 $$$14F        2 00000216 00000001     H    2574 2548B
 $$$15F        2 000002C4 00000001     H    2847 2799B
1ACCOUNT  (ACCO00) (09:38) (22MAR04) Ordinary Symbol and Literal Cross Reference                                            Page   33
 $$$16F        2 000002A8 00000001     H    2786 2760B
 $$$18F        2 000003AC 00000001     H    3135 2976B
 $$$19F        2 0000032C 00000001     H    2963 2937B
 $$$21F        2 0000034A 00000001     H    3019 3009B
 $$$22F        2 000003AC 00000001     H    3106 3092B
 $$$23F        2 000003F4 00000001     H    3288 3227B 3245B
 $$$26F        2 0000043C 00000001     H    3441 3380B 3398B
 $$$29F        2 00000486 00000001     H    3587 3518B
 $$$31S        2 00000478 00000001     H    3545 3563B
 $$$35F        2 000004E8 00000001     H    3748 3732B
 $$$37F        2 0000054A 00000001     H    3928 3912B
 $$$5F         2 00000086 00000001     H    2021 1995B
 $$$6F         2 000000C6 00000001     H    2129 2119B
 $$$8F         2 0000012E 00000001     H    2267 2241B
 $$$9B         4 00000134 00000001     I    2291 2303
 $$$9F         2 0000013E 00000001     H    2300 2291B 2302
 @ACAASB       4 00000000 FFFFFFEA     A    1516 2734
 @ACAINFO     24 00000000 FFFFFFEA     J    1527 2726U
 @ACALOT       8 00000010 FFFFFFEA     D    1520 2823M
 @ACAUID       8 00000004 FFFFFFEA     C    1517 2821M
 @ACAUPR       4 0000000C FFFFFFEA     A    1518 1519  2822M
 @ACIASB       4 00000000 FFFFFFE9     A    1543 2911
 @ACICON       8 00000010 FFFFFFE9     D    1546 2998M 2999  3026M
 @ACICPU       8 00000008 FFFFFFE9     D    1545 3031M 3097M 3098  3101M 3102M
 @ACIIOS       4 00000004 FFFFFFE9     A    1544 3032M
 @ACINFO      40 00000000 FFFFFFE9     J    1556 2903U
 @ACIORG       4 00000024 FFFFFFE9     A    1549 3035M
 @ACIPGNM      8 00000018 FFFFFFE9     C    1547 3034M
 @ACITID       4 00000020 FFFFFFE9     A    1548 3033M
 @ACLASB       4 00000000 FFFFFFEB     A    1489 2215
 @ACLLOT       8 00000010 FFFFFFEB     D    1492 2394
 @ACLOGON     28 00000000 FFFFFFEB     J    1500 2207U
 @ACLTID       4 00000018 FFFFFFEB     A    1493 2395
 @ACLUID       8 00000004 FFFFFFEB     C    1490 2392
 @ACLUPR       4 0000000C FFFFFFEB     A    1491 2296  2393
 @ACPASB       4 00000000 FFFFFFE8     A    1571 3199
 @ACPINFO     12 00000000 FFFFFFE8     J    1579 3191U
 @ACPPGNM      8 00000004 FFFFFFE8     C    1572 3264
 @ACSPASB      4 00000000 FFFFFFE7     A    1594 3352
 @ACSPINF      8 00000000 FFFFFFE7     J    1602 3344U
 @ACSPORG      4 00000004 FFFFFFE7     A    1595 3417
 @RS           0 00000000 FFFFFFFD     @    1023 3031
 @R0           0 00000000 FFFFFFFE     @     715  991U
 @R1           0 00000000 FFFFFFFD     @     728  987U
 @R10          0 00000000 FFFFFFF4     @     845  951U 2146U 2435U 2665U 2845U 3133U 3286U 3439U 3585U 3765U 3945U
 @R11          0 00000000 FFFFFFF3     @     858  947U
 @R12          0 00000000 FFFFFFF2     @     871  943U 2141U 2430U 2840U 3128U 3281U 3434U 3760U 3940U
 @R13          0 00000000 FFFFFFF1     @     884  939U 2157U 2446U 2676U
 @R14          0 00000000 FFFFFFF0     @     897  935U
 @R15          0 00000000 FFFFFFEF     @     910  931U
 @R2           0 00000000 FFFFFFFC     @     741  983U 2071U
 @R3           0 00000000 FFFFFFFB     @     754  979U
 @R4           0 00000000 FFFFFFFA     @     767  975U
 @R5           0 00000000 FFFFFFF9     @     780  971U
 @R6           0 00000000 FFFFFFF8     @     793  967U 2425U 2660U 2835U 3123U 3276U 3429U 3580U
 @R7           0 00000000 FFFFFFF7     @     806  963U 2136U 2420U 2655U 2830U 3118U 3271U 3424U 3575U
 @R8           0 00000000 FFFFFFF6     @     819  959U 3062U 3113U 3702U 3755U 3882U 3935U
 @R9           0 00000000 FFFFFFF5     @     832  955U
 @VMFLEN       4 00000004 FFFFFFE5     A    1657 2626M
1ACCOUNT  (ACCO00) (09:38) (22MAR04) Ordinary Symbol and Literal Cross Reference                                            Page   34
 @VMFLOC       4 00000000 FFFFFFE5     A    1656 2636M
 @VMFPOOL      2 00000008 FFFFFFE5     H    1658 2637M
 @VMFREE      10 00000000 FFFFFFE5     J    1665 2601U 2609M 2609
 @VMGET       11 00000000 FFFFFFE6     J    1644 1956U 1964M 1964  2331U 2339M 2339
 @VMGFLG       1 0000000A FFFFFFE6     R    1626 1630  1635
 @VMGLEN       4 00000000 FFFFFFE6     A    1621 1981M 2356M
 @VMGPOOL      2 00000008 FFFFFFE6     H    1623 1982M 2357M
 ACAINFO       4 00000256 00000001     I    2699 2694  2710U
 ACCOUNT       1 00000000 00000001     J    1220 1217  1218  1222  1328  1409  1467  1501  1528  1557  1580  1603  1645
                                                 1666  1687  1716  1780  1809  1861  1893  3625  3805
 ACCO00        1 00000000 00000001     R    1229 1227
 ACCT         16 00000000 FFFFFFE1     J    1808 1976  2031U 2038  2044M 3073U 3713U 3893U
 ACCTINIT      4 00000022 00000001     I    1905 1900  1916U
 ACDSKIO       4 00000452 00000001     I    3470 3465  3481U
 ACFACTOR      8 00000008 FFFFFFE1     D    1801 2076M 2125M 3091  3099  3731  3740  3911  3920
 ACINFO        4 000002DA 00000001     I    2876 2871  2887U
 ACIPARM       4 00000008 FFFFFFDF     X    1884 2085U
 ACIWORK      36 00000000 FFFFFFDF     J    1892 1932U
 ACLOGOFF      4 000001BA 00000001     I    2469 2464  2480U
 ACLOGON       4 000000DC 00000001     I    2180 2175  2191U
 ACPINFO       4 000003C2 00000001     I    3164 3159  3175U
 ACPTIME       8 00000000 FFFFFFDE     D    3617 3737M 3738M 3739  3742M 3743M 3744
 ACPUCHG       4 0000049C 00000001     I    3637 3632  3648U
 ACPUTIME      1 00000000 00000006     T    3974 3974
 ACPWORK       8 00000000 FFFFFFDE     J    3624 3664U
 ACSPINF       4 0000040A 00000001     I    3317 3312  3328U
 AIB          64 00000000 FFFFFFE0     J    1860 2281U 2351  2386M 2386  2387M 2532U 2547  2584M 2584  2621  2814U 2991U
                                                 3260U 3413U 3533U
 AIBASB        4 00000004 FFFFFFE0     A    1839 2391M
 AIBCPUTA      4 00000030 FFFFFFE0     A    1851 2400M 3030
 AIBDIOS       4 00000020 FFFFFFE0     A    1847 3032  3540  3549M
 AIBLOT        8 00000010 FFFFFFE0     D    1841 2394M 2823  3022  3025
 AIBORG        4 0000001C FFFFFFE0     A    1846 3035  3417M
 AIBPGNM       8 00000038 FFFFFFE0     C    1853 3034  3264M
 AIBPIOSA      4 00000028 FFFFFFE0     A    1849 2405M
 AIBPRIVS      4 00000018 FFFFFFE0     A    1842 2296M 2393M 2822
 AIBTID        4 00000034 FFFFFFE0     A    1852 2395M 3033
 AIBUSER       8 00000008 FFFFFFE0     C    1840 2392M 2821
 ASB          68 00000000 FFFFFFEC     J    1466 2225U 2240  2501U 2744U 2759  2921U 2936  3209U 3224  3362U 3377  3502U
 ASBAIB        4 00000034 FFFFFFEC     A    1454 2270  2409M 2507  2648M 2648  2789  2966  3235  3388  3508
 ASBGCFLG      1 00000014 FFFFFFEC     R    1436 1440
 BR           10 0000000A FFFFFFFF A   #    1136 1906M 1916U 2181M 2191U 2470M 2480U 2700M 2710U 2877M 2887U 3165M 3175U
                                                 3318M 3328U 3471M 3481U 3638M 3648U 3818M 3828U
 DISPCPTA      1 00000000 00000003     T    3970 3970
 EPAR         15 0000000F FFFFFFFF A   #    1196 1906  1985M 1986B 2181  2360M 2361B 2398M 2399B 2403M 2404B 2470  2640M
                                                 2641B 2700  2877  3165  3318  3471  3638  3674M 3675B 3818  3854M 3855B
 HIBAL         1 00000000 FFFFFFFF     J     700  716   729   742   755   768   781   794   807   820   833   846   859
                                                  872   885   898   911  1012  1024  1036  1048  1060  1072  1084  1096
                                                 1108  1120  1132  1144  1156  1168  1180  1192  1204
 MAT         256 00000000 FFFFFFED     J    1408 2058U 3049U 3689U 3869U
 MATACCT       4 00000034 FFFFFFED     A    1372 2064M 3055  3695  3875
 PAGPIOA       1 00000000 00000004     T    3971 3971
 PARMFFLT     12 00000000 FFFFFFE2         1768 2093M
 PARMIN        4 00000000 FFFFFFE2     J    1779 1884  2085U 2102  2109
 PARMKEYS      4 00000004 FFFFFFE2     A    1772 2094M 2095M
 PARMTYPE      1 00000000 FFFFFFE2     R    1729 1738  1748  1758  1768
 PZABORT     128 0000021A FFFFFFEE         1308 2010M 2256M 2563M 2775M 2952M
 PZABR15       4 0000021C FFFFFFEE     A    1317 2011M 2257M 2564M 2776M 2953M
 PZABSM        1 0000021B FFFFFFEE     X    1316 2004M 2250M 2557M 2769M 2946M
1ACCOUNT  (ACCO00) (09:38) (22MAR04) Ordinary Symbol and Literal Cross Reference                                            Page   35
 PZCURASB      4 00000208 FFFFFFEE     A    1293 2491  3492
 PZERO       640 00000000 FFFFFFEE     J    1327 1337U
 PZLCPUA       4 00000210 FFFFFFEE     A    1295 2012  2258  2565  2777  2954
 PZMATP        4 00000200 FFFFFFEE     A    1290 2048  3039  3679  3859
 PZTERMFL      1 0000021A FFFFFFEE     R    1304 1308  1313
 PZTZOFF       8 00000220 FFFFFFEE     D    1318 3008  3020
 RA            2 00000002 FFFFFFFF A   #    1028 2048M 2058U 2999M 3008M 3015M 3020M 3022M 3024M 3025M 3026  3540M 3547
                                                 3549M
 RAR          14 0000000E FFFFFFFF A   #    1184 1986M 2151B 2361M 2399M 2404M 2440B 2641M 2670B 2850B 3138B 3291B 3444B
                                                 3590B 3675M 3770B 3855M 3950B
 RB            3 00000003 FFFFFFFF A   #    1040 2999M 3026
 RM            8 00000008 FFFFFFFF A   #    1100 3039M 3049U 3055M 3073U 3679M 3689U 3695M 3713U 3859M 3869U 3875M 3893U
 RS            1 00000001 FFFFFFFF A   #    1016 3030M 3547M 3548M 3549
 RVR           0 00000000 FFFFFFFF A   #    1004 1976M 1994  2351M 2370M 2370  2379  2400  2405  2621M
 RX            6 00000006 FFFFFFFF A   #    1076 2215M 2225U 2391  2491M 2501U 2734M 2744U 2911M 2921U 3199M 3209U 3352M
                                                 3362U 3492M 3502U
 RY            7 00000007 FFFFFFFF A   #    1088 1994M 2031U 2064  2270M 2271M 2271  2281U 2379M 2409  2507M 2508M 2508
                                                 2532U 2789M 2790M 2790  2814U 2966M 2967M 2967  2991U 3235M 3236M 3236
                                                 3260U 3388M 3389M 3389  3413U 3508M 3509M 3509  3533U
 R0            0 00000000 FFFFFFFF A   #     708 1337U 1905  2043M 2112  2125  2180  2469  2699  2876  3164  3317  3470
                                                 3637  3817
 R1            1 00000001 FFFFFFFF A   #     721 2038M 2149M 2438M 2668M 2848M 3136M 3289M 3442M 3588M 3768M 3948M
 R14          14 0000000E FFFFFFFF A   #     890 2043M 2102M 2109M 2112
 R15          15 0000000F FFFFFFFF A   #     903 1905  2011  2012M 2013M 2014M 2015M 2016M 2016  2042M 2042  2149M 2180
                                                 2257  2258M 2259M 2260M 2261M 2262M 2262  2438M 2469  2564  2565M 2566M
                                                 2567M 2568M 2569M 2569  2668M 2699  2776  2777M 2778M 2779M 2780M 2781M
                                                 2781  2848M 2876  2953  2954M 2955M 2956M 2957M 2958M 2958  3136M 3164
                                                 3289M 3317  3442M 3470  3588M 3637  3768M 3817  3948M
 SPR          13 0000000D FFFFFFFF A   #    1172 1905  1920  1921  1936M 1956U 2180  2195  2196  2211M 2331U 2469  2484
                                                 2485  2487M 2601U 2699  2714  2715  2730M 2876  2891  2892  2907M 3164
                                                 3179  3180  3195M 3317  3332  3333  3348M 3470  3485  3486  3488M 3637
                                                 3652  3653  3668M 3817  3832  3833  3848M
 TCPTIME       8 00000000 FFFFFFDD     D    3797 3917M 3918M 3919  3922M 3923M 3924
 TCPUCHG       4 000004FE 00000001     I    3817 3812  3828U
 TCPUTIME      1 00000000 00000007     T    3975 3975
 TCPWORK       8 00000000 FFFFFFDD     J    3804 3844U
 TRCD10        4 00000554 00000001     A    3958 3957
 VMFREE        1 00000000 00000005     T    3972 3972
 VMGET         1 00000000 00000002     T    3966 3966
 WAR          12 0000000C FFFFFFFF A   #    1160 1920  1921M 1922  1932U 1936  2149  2150  2195  2196M 2197  2207U 2211
                                                 2438  2439  2484  2485M 2486  2487  2668  2669  2714  2715M 2716  2726U
                                                 2730  2848  2849  2891  2892M 2893  2903U 2907  3136  3137  3179  3180M
                                                 3181  3191U 3195  3289  3290  3332  3333M 3334  3344U 3348  3442  3443
                                                 3485  3486M 3487  3488  3588  3589  3652  3653M 3654  3664U 3668  3768
                                                 3769  3832  3833M 3834  3844U 3848  3948  3949
 =A(1)         4 00000594 00000001     A    3973 3015  3548
 =C'AIB '      4 00000584 00000001     C    3969 2387  2547
 =C'ASB '      4 00000580 00000001     C    3968 2240  2759  2936  3224  3377
 =CL4'ACCT'
               4 0000057C 00000001     C    3967 2044
 =CL8'ACCOUNT'
               8 00000560 00000001     C    3963 2094
 =CL8'FACTOR'
               8 00000568 00000001     C    3964 2095
 =D'1'         8 00000558 00000001     D    3962 2076  3091  3731  3911
 =V(ACPUTIME)
               4 00000598 00000001     V    3974 3674
 =V(DISPCPTA)
               4 00000588 00000001     V    3970 2398
1ACCOUNT  (ACCO00) (09:38) (22MAR04) Ordinary Symbol and Literal Cross Reference                                            Page   36
 =V(PAGPIOA)
               4 0000058C 00000001     V    3971 2403
 =V(TCPUTIME)
               4 0000059C 00000001     V    3975 3854
 =V(VMFREE)
               4 00000590 00000001     V    3972 2640
 =V(VMGET)
               4 00000578 00000001     V    3966 1985  2360
 =X'4E00000000000000'
               8 00000570 00000001     X    3965 3100  3741  3921
 =Y(59*256+0)
               2 000005A0 00000001     Y    3976 1982  2357  2637

1ACCOUNT  (ACCO00) (09:38) (22MAR04) Macro and Copy Code Source Summary                                                     Page   37
- Con Source                                        Volume    Members                        HLASM R4.0  2004/03/22 09.38
0     PRIMARY INPUT                                           CSECT    DROP     END      EX       LTORG    POP
                                                              PRINT    PUSH     START    USING
   L2 WYL.GG.ORV.MACLIB                             SYSB02    $LKPARM  ABORT    ACCTPARM AIB      ASB      GETPARM2
                                                              HEADER   MAT      MODULE   PARMPARM PEND     PMOV     PROC
                                                              PSET     PZERO    REG      SPLEVEL  SYSCTL   VCALL
                                                              VMFREE   VMGET    VMPARM   XTRCDATA
   L3 WYL.GG.SYS.MACLIB                             SYSB05    $BC      $BFLKUP  $BV      $CCLKUP  $CSS     $L       $LA
                                                              $LBLAD   $LEXP    $LOR     $REL     $RGLKUP  $USLKUP  ADL
                                                              AUSING   BEGIN    CLEAR    CSECT    DEFCC    DIAG     DROP
                                                              ELSE     END      EX       FLAG     GEN      HIBAL
                                                              IDENT    IF       LABEL    LOOP     LT       LTORG    POP
                                                              PRINT    PUSH     RECORD   REGS     SDL      SET
                                                              START    STF      UNTIL    USING    WHILE    WITH

1         (ACCO00) (09:38) (22MAR04) General Purpose Register Cross Reference                                               Page   38
- Register  References (M=modified, B=branch, U=USING, D=DROP, N=index)                      HLASM R4.0  2004/03/22 09.38
0    0(0)     991U  992D 1337U 1905  1976M 1981  1994  2043M 2125  2180  2351M 2356  2370M 2370  2379  2400  2405  2469
             2621M 2626  2699  2876  3164  3317  3470  3637  3817
     1(1)     987U 1905  2038M 2043M 2149M 2180  2438M 2469  2668M 2699  2848M 2876  3030M 3136M 3164  3289M 3317  3442M
             3470  3547M 3548M 3549  3588M 3637  3768M 3817  3948M
     2(2)     983U 1905  2048M 2058U 2071U 2149M 2180  2438M 2469  2668M 2699  2848M 2876  2999M 3015M 3020M 3024M 3025M
             3026  3136M 3164  3289M 3317  3442M 3470  3540M 3547  3549M 3588M 3637  3768M 3817  3948M
     3(3)     979U 1905  2149M 2180  2438M 2469  2668M 2699  2848M 2876  2999M 3008M 3022M 3026  3136M 3164  3289M 3317
             3442M 3470  3588M 3637  3768M 3817  3948M
     4(4)     975U 1905  2149M 2180  2438M 2469  2668M 2699  2848M 2876  3136M 3164  3289M 3317  3442M 3470  3588M 3637
             3768M 3817  3948M
     5(5)     971U 1905  2149M 2180  2438M 2469  2668M 2699  2848M 2876  3136M 3164  3289M 3317  3442M 3470  3588M 3637
             3768M 3817  3948M
     6(6)     967U 1905  2149M 2180  2215M 2225U 2391  2425U 2438M 2469  2491M 2501U 2660U 2668M 2699  2734M 2744U 2835U
             2848M 2876  2911M 2921U 3123U 3136M 3164  3199M 3209U 3276U 3289M 3317  3352M 3362U 3429U 3442M 3470  3492M
             3502U 3580U 3588M 3637  3768M 3817  3948M
     7(7)     963U 1905  1994M 2031U 2064  2136U 2149M 2180  2270M 2271M 2271  2281U 2379M 2409  2420U 2438M 2469  2507M
             2508M 2508  2532U 2636  2655U 2668M 2699  2789M 2790M 2790  2814U 2830U 2848M 2876  2966M 2967M 2967  2991U
             3118U 3136M 3164  3235M 3236M 3236  3260U 3271U 3289M 3317  3388M 3389M 3389  3413U 3424U 3442M 3470  3508M
             3509M 3509  3533U 3575U 3588M 3637  3768M 3817  3948M
     8(8)     959U 1905  2149M 2180  2438M 2469  2668M 2699  2848M 2876  3039M 3049U 3055M 3062U 3073U 3113U 3136M 3164
             3289M 3317  3442M 3470  3588M 3637  3679M 3689U 3695M 3702U 3713U 3755U 3768M 3817  3859M 3869U 3875M 3882U
             3893U 3935U 3948M
     9(9)     955U 1905  2149M 2180  2438M 2469  2668M 2699  2848M 2876  3136M 3164  3289M 3317  3442M 3470  3588M 3637
             3768M 3817  3948M
    10(A)     951U 1905  1906M 1916U 2146U 2149M 2180  2181M 2191U 2435U 2438M 2469  2470M 2480U 2665U 2668M 2699  2700M
             2710U 2845U 2848M 2876  2877M 2887U 3133U 3136M 3164  3165M 3175U 3286U 3289M 3317  3318M 3328U 3439U 3442M
             3470  3471M 3481U 3585U 3588M 3637  3638M 3648U 3765U 3768M 3817  3818M 3828U 3945U 3948M
    11(B)     947U 1905  2149M 2180  2438M 2469  2668M 2699  2848M 2876  3136M 3164  3289M 3317  3442M 3470  3588M 3637
             3768M 3817  3948M
    12(C)     943U 1905  1920  1921M 1922  1932U 1936  2141U 2149M 2149  2150  2180  2195  2196M 2197  2207U 2211  2430U
             2438M 2438  2439  2469  2484  2485M 2486  2487  2668M 2668  2669  2699  2714  2715M 2716  2726U 2730  2840U
             2848M 2848  2849  2876  2891  2892M 2893  2903U 2907  3128U 3136M 3136  3137  3164  3179  3180M 3181  3191U
             3195  3281U 3289M 3289  3290  3317  3332  3333M 3334  3344U 3348  3434U 3442M 3442  3443  3470  3485  3486M
             3487  3488  3588M 3588  3589  3637  3652  3653M 3654  3664U 3668  3760U 3768M 3768  3769  3817  3832  3833M
             3834  3844U 3848  3940U 3948M 3948  3949
    13(D)     939U 1905  1905  1920  1921  1936M 1956U 2149M 2157U 2180  2180  2195  2196  2211M 2331U 2438M 2446U 2469
             2469  2484  2485  2487M 2601U 2668M 2676U 2699  2699  2714  2715  2730M 2848M 2876  2876  2891  2892  2907M
             3136M 3164  3164  3179  3180  3195M 3289M 3317  3317  3332  3333  3348M 3442M 3470  3470  3485  3486  3488M
             3588M 3637  3637  3652  3653  3668M 3768M 3817  3817  3832  3833  3848M 3948M
    14(E)     935U 1905  1986M 2043M 2102M 2149M 2151B 2180  2361M 2399M 2404M 2438M 2440B 2469  2641M 2668M 2670B 2699
             2848M 2850B 2876  3136M 3138B 3164  3289M 3291B 3317  3442M 3444B 3470  3588M 3590B 3637  3675M 3768M 3770B
             3817  3855M 3948M 3950B
    15(F)     931U 1905  1906  1985M 1986B 2011  2012M 2013M 2014M 2015M 2015  2016M 2016  2042M 2042  2043M 2109M 2149M
             2180  2181  2257  2258M 2259M 2260M 2261M 2261  2262M 2262  2360M 2361B 2398M 2399B 2403M 2404B 2438M 2469
             2470  2564  2565M 2566M 2567M 2568M 2568  2569M 2569  2640M 2641B 2668M 2699  2700  2776  2777M 2778M 2779M
             2780M 2780  2781M 2781  2848M 2876  2877  2953  2954M 2955M 2956M 2957M 2957  2958M 2958  3136M 3164  3165
             3289M 3317  3318  3442M 3470  3471  3588M 3637  3638  3674M 3675B 3768M 3817  3818  3854M 3855B 3948M

1ACCOUNT  (ACCO00) (09:38) (22MAR04) Diagnostic Cross Reference and Assembler Summary                                       Page   39
-                                                                                            HLASM R4.0  2004/03/22 09.38
0     No Statements Flagged in this Assembly
 HIGH LEVEL ASSEMBLER, 5696-234, RELEASE 4.0, PTF UQ57391
0SYSTEM: OS/390 02.10.00            JOBNAME: PJG#ACCT    STEPNAME: ASM        PROCSTEP: (NOPROC)
0Datasets Allocated for this Assembly
  Con DDname   Dataset Name                                 Volume  Member
   P1 SYSIN    SYS04082.T093815.RA000.PJG#ACCT.INPUT.H01    SCR100
   L1 SYSLIB   SYS3.DUMMYMAC                                SYSB02
   L2          WYL.GG.ORV.MACLIB                            SYSB02
   L3          WYL.GG.SYS.MACLIB                            SYSB05
      SYSLIN   WYL.GG.PJG.OBJ                               SYSB05  ACCOUNT
      SYSPRINT SYS04082.T093815.RA000.PJG#ACCT.PRINT.H01    SCR100
      SYSTERM  GG$PJG.PJG#ACCT.JOB05927.D0000103.?

    7812K allocated to Buffer Pool,          781K would be required for this to be an In-Storage Assembly
     415 Primary Input Records Read         4399 Library Records Read                  0 Work File Reads
       0 ASMAOPT Records Read               2203 Primary Print Records Written         0 Work File Writes
      38 Punch Records Written                 0 ADATA Records Written
0Assembly Start Time: 09.38.17 Stop Time: 09.38.20 Processor Time: 00.00.00.8266
 Return Code 000
