1                        J E S 2  J O B  L O G  --  S Y S T E M  S Y S B  --  N O D E  R L G
0
 09.46.10 JOB05972 ---- MONDAY,    22 MAR 2004 ----
 09.46.10 JOB05972  ICH70001I GG$PJG   LAST ACCESS AT 09:45:53 ON MONDAY, MARCH 22, 2004
 09.46.10 JOB05972  $HASP373 PJG#VCLP STARTED - INIT 3    - CLASS E - SYS SYSB
 09.46.10 JOB05972  ***  HCMD      STEP $$QUIET
 09.46.10 JOB05972  PURGE * Q=OUTPUT MULTIPLE
 09.46.10 JOB05972  JOB PJG#VCLP NOT IN OUTPUT QUEUE
 09.46.11 JOB05972  PJG#VCLP.$$QUIET .         RC=0008 TapeIO=0000 DiskIO=0000 CPU=  .01s Elapsed=70.55s
 09.46.11 JOB05972  PJG#VCLP.$CND    .         RC=Zero TapeIO=0000 DiskIO=0002 CPU=  .01s Elapsed=71.71s
 09.46.12 JOB05972  PJG#VCLP.$UNP    .         RC=Zero TapeIO=0000 DiskIO=0026 CPU=  .05s Elapsed=71.86s
 09.46.16 JOB05972  PJG#VCLP.ASM     .         RC=Zero TapeIO=0000 DiskIO=0428 CPU= 2.23s Elapsed=72.17s
 09.46.17 JOB05972  PJG#VCLP.$EDIT   .         RC=Zero TapeIO=0000 DiskIO=0138 CPU=  .53s Elapsed=76.65s
 09.46.17 JOB05972  PJG#VCLP Ended.  Name=Module: VCLP                   Total CPU= 2.83s Elapsed=70.55s
 09.46.17 JOB05972
 09.46.17 JOB05972  Execution charges   Priority=Standard   Block=Day
 09.46.17 JOB05972
 09.46.17 JOB05972  CPU Usage          51.93          $32.19   Standard Processing Unit Equivalent
 09.46.17 JOB05972                                   =======
 09.46.17 JOB05972                                    $32.19   Total Job execution charge
 09.46.17 JOB05972
 09.46.17 JOB05972  See back separator page for print charges
 09.46.17 JOB05972
 09.46.17 JOB05972  $HASP395 PJG#VCLP ENDED  ASM=0
1        1 //PJG#VCLP JOB PJG$GG,'Module: VCLP',TIME=1,MSGCLASS=C                  JOB05972
           /*JOBPARM HOLD=OUTPUT,LINES=50,CHARS=TN15,NOTIFY=YES
         2 //       EXEC PURGEOLD
         3 XXPURGEOLD PROC
           XX*
           XX* This proc is maintained by Jim Stosick
           XX*
         4 XX$$QUIET  EXEC PGM=HCMDX,PARM='PURGE * Q=OUTPUT MULTIPLE',
           XX         ACCT=(PURGEOLD,SYS3)
         5 //$CND   EXEC PGM=BILBO,REGION=512K,PARM='RECS=100'
         6 //STEPLIB  DD DSN=WYL.GG.ORV.LINKLIB,DISP=SHR
         7 //SYSPRINT DD SYSOUT=$
         8 //SYSUT1   DD DSN=WYL.GG.PJG.OBJ,DISP=OLD
         9 //SYSUT2   DD DSN=WYL.GG.PJG.OBJ,DISP=OLD
        10 //SYSIN    DD DUMMY
        11 //$UNP   EXEC PGM=WUNPRESS,PARM='NUM'
        12 //SYSPRINT DD SYSOUT=$
        13 //SYSUT1   DD DSN=WYL.GG.ORV.SOURCE(VCLP),DISP=SHR
        14 //SYSUT2   DD DSN=&&INPUT,DISP=(,PASS),UNIT=SYSDA,
           //            SPACE=(TRK,(25,25),RLSE),DCB=CARD
        15 //ASM    EXEC PGM=ASMA90,REGION=8M,COND=(0,NE,$UNP),
           //            PARM=('SYSPARM(VCLP),TERM,LANG(EN),OBJ',
           //          'LC(32500),XREF(SHORT),NODECK,NORLD,NODX,NOUS')
           //*STEPLIB  DD DSN=SYS1.SASMMOD1,DISP=SHR
        16 //SYSLIB   DD DSN=SYS3.DUMMYMAC,DISP=SHR,DCB=BLKSIZE=27920
        17 //         DD DSN=WYL.GG.SYS.MACLIB,DISP=SHR
        18 //         DD DSN=WYL.GG.ORV.BC.MACLIB,DISP=SHR
        19 //         DD DSN=WYL.GG.ORV.MACLIB,DISP=SHR
        20 //         DD DSN=SYS3.ORVYL.UMACLIB,DISP=SHR
        21 //         DD DSN=SYS3.IS.MACLIB,DISP=SHR
        22 //SYSUT1   DD DSN=&&SYSUT1,UNIT=VIO,DISP=(,DELETE),
           //            SPACE=(4088,(500,250),,CONTIG,ROUND)
        23 //SYSTERM  DD SYSOUT=$
        24 //SYSPRINT DD DSN=&&PRINT,UNIT=SYSDA,DISP=(,PASS),
           //            SPACE=(6650,(250,250),RLSE),
           //            DCB=(BLKSIZE=6650,LRECL=133,RECFM=FB)
        25 //SYSLIN   DD DSN=WYL.GG.PJG.OBJ(VCLP),DISP=OLD
        26 //SYSUDUMP DD SYSOUT=A
        27 //SYSIN    DD DSN=&&INPUT,DISP=(OLD,DELETE)
        28 //$EDIT  EXEC PGM=ASMEDIT,REGION=1M,
           //            COND=EVEN,PARM='STMT,DATA'
        29 //STEPLIB  DD DSN=WYL.GG.SYS.LINKLIB,DISP=SHR
        30 //ASMOUT   DD DSN=&&PRINT,DISP=(OLD,DELETE)
        31 //SYSPRINT DD SYSOUT=A
        32 //SYSUDUMP DD SYSOUT=A
1 STMT NO. MESSAGE
         2 IEFC001I PROCEDURE PURGEOLD WAS EXPANDED USING SYSTEM LIBRARY SYS3.BETAPROC
        14 IGD01010I STORCLAS= TEMP STORGROUP =
        14 IGD01010I STORGRP=VIO ASSIGNED.
        22 IGD01010I STORCLAS= TEMP STORGROUP =
        22 IGD01010I STORGRP=VIO ASSIGNED.
        24 IGD01010I STORCLAS= TEMP STORGROUP =
        24 IGD01010I STORGRP=VIO ASSIGNED.
 ICH70001I GG$PJG   LAST ACCESS AT 09:45:53 ON MONDAY, MARCH 22, 2004
 IEF142I PJG#VCLP $$QUIET - STEP WAS EXECUTED - COND CODE 0008
 *********************************************************************************
 *   PJG#VCLP/$$QUIET /                    Return Code      0008                 *
 *   Region used      260K (16K user + 244K system)                              *
 *   Extended region  9352K (4K user + 9348K system)                             *
 *                                                                               *
 *   Paging              In      Out                                             *
 *   Private <-> Aux      0        0       CPU time (TCB)   00:00:00.01          *
 *   Private <-> Exp      0        0       CPU time (SRB)   00:00:00.00          *
 *   VIO                  0        0       Elapsed time    920:41:42.41          *
 *   Common               0      ---                                             *
 *                                                                               *
 *                                                                               *
 *   CPU Usage          0.18         $0.11  Standard Processing Unit Equivalent  *
 *                                   $0.11  Total Step execution charge          *
 *                                                                               *
 *    I/O count  DDname   Type Addr           I/O count  DDname   Type Addr      *
 *                         *** No I/O for this step ***                          *
 *********************************************************************************
 IEF373I STEP/$$QUIET /START 2004082.0946
 IEF374I STEP/$$QUIET /STOP  2004082.0946 CPU    0MIN 00.01SEC SRB    0MIN 00.00SEC VIRT    16K SYS   244K EXT       4K SYS    9348K
 IEF236I ALLOC. FOR PJG#VCLP $CND
 IEF237I 0401 ALLOCATED TO STEPLIB
 IEF237I JES2 ALLOCATED TO SYSPRINT
 IEF237I 04DC ALLOCATED TO SYSUT1
 IEF237I 04DC ALLOCATED TO SYSUT2
 IEF237I DMY  ALLOCATED TO SYSIN
 IEF142I PJG#VCLP $CND - STEP WAS EXECUTED - COND CODE 0000
 IEF285I   WYL.GG.ORV.LINKLIB                           KEPT
 IEF285I   VOL SER NOS= SYSB01.
 IEF285I   GG$PJG.PJG#VCLP.JOB05972.D0000101.?          SYSOUT
 IEF285I   WYL.GG.PJG.OBJ                               KEPT
 IEF285I   VOL SER NOS= SYSB05.
 IEF285I   WYL.GG.PJG.OBJ                               KEPT
 IEF285I   VOL SER NOS= SYSB05.
 *********************************************************************************
 *   PJG#VCLP/$CND    /                    Return Code      Zero                 *
 *   Region used      280K (16K user + 264K system)                              *
 *   Extended region  9392K (4K user + 9388K system)                             *
 *                                                                               *
 *   Paging              In      Out                                             *
 *   Private <-> Aux      0        0       CPU time (TCB)   00:00:00.01          *
 *   Private <-> Exp      0        0       CPU time (SRB)   00:00:00.00          *
 *   VIO                  0        0       Elapsed time    920:41:41.25          *
 *   Common               0      ---                                             *
 *                                                                               *
 *                                                                               *
 *   CPU Usage          0.18         $0.11  Standard Processing Unit Equivalent  *
 *                                   $0.11  Total Step execution charge          *
 *                                                                               *
 *    I/O count  DDname   Type Addr           I/O count  DDname   Type Addr      *
 *            2  STEPLIB  Disk 0401                   0  SYSPRINT      ----      *
 *            0  SYSUT1   Disk 04DC                   0  SYSUT2   Disk 04DC      *
 *            0  SYSIN         ----                                              *
 *********************************************************************************
 IEF373I STEP/$CND    /START 2004082.0946
 IEF374I STEP/$CND    /STOP  2004082.0946 CPU    0MIN 00.01SEC SRB    0MIN 00.00SEC VIRT    16K SYS   264K EXT       4K SYS    9388K
 IEF236I ALLOC. FOR PJG#VCLP $UNP
 IEF237I JES2 ALLOCATED TO SYSPRINT
 IEF237I 0402 ALLOCATED TO SYSUT1
 IGD101I SMS ALLOCATED TO DDNAME (SYSUT2  )
         DSN (SYS04082.T094610.RA000.PJG#VCLP.INPUT.H01   )
         STORCLAS (TEMP) MGMTCLAS (        ) DATACLAS (        )
         VOL SER NOS= SCR100
 IEF142I PJG#VCLP $UNP - STEP WAS EXECUTED - COND CODE 0000
 IEF285I   GG$PJG.PJG#VCLP.JOB05972.D0000102.?          SYSOUT
 IEF285I   WYL.GG.ORV.SOURCE                            KEPT
 IEF285I   VOL SER NOS= SYSB02.
 IGD106I SYS04082.T094610.RA000.PJG#VCLP.INPUT.H01    PASSED,    DDNAME=SYSUT2
 *********************************************************************************
 *   PJG#VCLP/$UNP    /                    Return Code      Zero                 *
 *   Region used      388K (108K user + 280K system)                             *
 *   Extended region  9468K (4K user + 9464K system)                             *
 *                                                                               *
 *   Paging              In      Out                                             *
 *   Private <-> Aux      0        0       CPU time (TCB)   00:00:00.05          *
 *   Private <-> Exp      0        0       CPU time (SRB)   00:00:00.00          *
 *   VIO                  0        0       Elapsed time    920:41:41.10          *
 *   Common               0      ---                                             *
 *                                                                               *
 *                                                                               *
 *   CPU Usage          0.93         $0.57  Standard Processing Unit Equivalent  *
 *                                   $0.57  Total Step execution charge          *
 *                                                                               *
 *    I/O count  DDname   Type Addr           I/O count  DDname   Type Addr      *
 *            0  SYSPRINT      ----                   3  SYSUT1   Disk 0402      *
 *           23  SYSUT2   Disk 038B                                              *
 *********************************************************************************
 IEF373I STEP/$UNP    /START 2004082.0946
 IEF374I STEP/$UNP    /STOP  2004082.0946 CPU    0MIN 00.05SEC SRB    0MIN 00.00SEC VIRT   108K SYS   280K EXT       4K SYS    9464K
 IEF236I ALLOC. FOR PJG#VCLP ASM
 IEF237I 0402 ALLOCATED TO SYSLIB
 IEF237I 04DC ALLOCATED TO
 IEF237I 0402 ALLOCATED TO
 IEF237I 0402 ALLOCATED TO
 IEF237I 0402 ALLOCATED TO
 IEF237I 04DC ALLOCATED TO
 IGD101I SMS ALLOCATED TO DDNAME (SYSUT1  )
         DSN (SYS04082.T094610.RA000.PJG#VCLP.SYSUT1.H01  )
         STORCLAS (TEMP) MGMTCLAS (        ) DATACLAS (        )
         VOL SER NOS= VIO
 IEF237I JES2 ALLOCATED TO SYSTERM
 IGD101I SMS ALLOCATED TO DDNAME (SYSPRINT)
         DSN (SYS04082.T094610.RA000.PJG#VCLP.PRINT.H01   )
         STORCLAS (TEMP) MGMTCLAS (        ) DATACLAS (        )
         VOL SER NOS= SCR100
 IEF237I 04DC ALLOCATED TO SYSLIN
 IEF237I JES2 ALLOCATED TO SYSUDUMP
 IGD103I SMS ALLOCATED TO DDNAME SYSIN
 IEF142I PJG#VCLP ASM - STEP WAS EXECUTED - COND CODE 0000
 IEF285I   SYS3.DUMMYMAC                                KEPT
 IEF285I   VOL SER NOS= SYSB02.
 IEF285I   WYL.GG.SYS.MACLIB                            KEPT
 IEF285I   VOL SER NOS= SYSB05.
 IEF285I   WYL.GG.ORV.BC.MACLIB                         KEPT
 IEF285I   VOL SER NOS= SYSB02.
 IEF285I   WYL.GG.ORV.MACLIB                            KEPT
 IEF285I   VOL SER NOS= SYSB02.
 IEF285I   SYS3.ORVYL.UMACLIB                           KEPT
 IEF285I   VOL SER NOS= SYSB02.
 IEF285I   SYS3.IS.MACLIB                               KEPT
 IEF285I   VOL SER NOS= SYSB05.
 IGD105I SYS04082.T094610.RA000.PJG#VCLP.SYSUT1.H01   DELETED,   DDNAME=SYSUT1
 IEF285I   GG$PJG.PJG#VCLP.JOB05972.D0000103.?          SYSOUT
 IGD106I SYS04082.T094610.RA000.PJG#VCLP.PRINT.H01    PASSED,    DDNAME=SYSPRINT
 IEF285I   WYL.GG.PJG.OBJ                               KEPT
 IEF285I   VOL SER NOS= SYSB05.
 IEF285I   GG$PJG.PJG#VCLP.JOB05972.D0000104.?          SYSOUT
 IGD105I SYS04082.T094610.RA000.PJG#VCLP.INPUT.H01    DELETED,   DDNAME=SYSIN
 *********************************************************************************
 *   PJG#VCLP/ASM     /                    Return Code      Zero                 *
 *   Region used      8484K (8192K user + 292K system)                           *
 *   Extended region  9952K (412K user + 9540K system)                           *
 *                                                                               *
 *   Paging              In      Out                                             *
 *   Private <-> Aux      0        0       CPU time (TCB)   00:00:02.18          *
 *   Private <-> Exp      0        0       CPU time (SRB)   00:00:00.05          *
 *   VIO                  0        0       Elapsed time    920:41:40.79          *
 *   Common               0      ---                                             *
 *                                                                               *
 *                                                                               *
 *   CPU Usage         40.87        $25.33  Standard Processing Unit Equivalent  *
 *                                  $25.33  Total Step execution charge          *
 *                                                                               *
 *    I/O count  DDname   Type Addr           I/O count  DDname   Type Addr      *
 *          110  SYSLIB   Disk 0402                 153  SYSLIB   Disk 04DC      *
 *            0  SYSLIB   Disk 0402                   0  SYSLIB   Disk 0402      *
 *            0  SYSLIB   Disk 0402                   0  SYSLIB   Disk 04DC      *
 *            0  SYSUT1   VIO  ----                   0  SYSTERM       ----      *
 *          135  SYSPRINT Disk 038B                   6  SYSLIN   Disk 04DC      *
 *            0  SYSUDUMP      ----                  24  SYSIN    Disk 038B      *
 *********************************************************************************
 IEF373I STEP/ASM     /START 2004082.0946
 IEF374I STEP/ASM     /STOP  2004082.0946 CPU    0MIN 02.18SEC SRB    0MIN 00.05SEC VIRT  8192K SYS   292K EXT     412K SYS    9540K
 IEF236I ALLOC. FOR PJG#VCLP $EDIT
 IEF237I 0402 ALLOCATED TO STEPLIB
 IGD103I SMS ALLOCATED TO DDNAME ASMOUT
 IEF237I JES2 ALLOCATED TO SYSPRINT
 IEF237I JES2 ALLOCATED TO SYSUDUMP
 IEF142I PJG#VCLP $EDIT - STEP WAS EXECUTED - COND CODE 0000
 IEF285I   WYL.GG.SYS.LINKLIB                           KEPT
 IEF285I   VOL SER NOS= SYSB02.
 IGD105I SYS04082.T094610.RA000.PJG#VCLP.PRINT.H01    DELETED,   DDNAME=ASMOUT
 IEF285I   GG$PJG.PJG#VCLP.JOB05972.D0000105.?          SYSOUT
 IEF285I   GG$PJG.PJG#VCLP.JOB05972.D0000106.?          SYSOUT
 *********************************************************************************
 *   PJG#VCLP/$EDIT   /                    Return Code      Zero                 *
 *   Region used      388K (116K user + 272K system)                             *
 *   Extended region  9468K (4K user + 9464K system)                             *
 *                                                                               *
 *   Paging              In      Out                                             *
 *   Private <-> Aux      0        0       CPU time (TCB)   00:00:00.52          *
 *   Private <-> Exp      0        0       CPU time (SRB)   00:00:00.01          *
 *   VIO                  0        0       Elapsed time    920:41:36.31          *
 *   Common               0      ---                                             *
 *                                                                               *
 *                                                                               *
 *   CPU Usage          9.75         $6.04  Standard Processing Unit Equivalent  *
 *                                   $6.04  Total Step execution charge          *
 *                                                                               *
 *    I/O count  DDname   Type Addr           I/O count  DDname   Type Addr      *
 *            2  STEPLIB  Disk 0402                 136  ASMOUT   Disk 038B      *
 *            0  SYSPRINT      ----                   0  SYSUDUMP      ----      *
 *********************************************************************************
 IEF373I STEP/$EDIT   /START 2004082.0946
 IEF374I STEP/$EDIT   /STOP  2004082.0946 CPU    0MIN 00.52SEC SRB    0MIN 00.01SEC VIRT   116K SYS   272K EXT       4K SYS    9464K
 *********************************************************************************
 *                                                                               *
 *                      S t a n f o r d   U n i v e r s i t y                    *
 *                                                                               *
 *                              *** Job Summary ***                              *
 *                                                                               *
 *   System Id      SYSB                   Input time     09:38:32  Mar 22, 2004 *
 *                                                                               *
 *   System Release SP6.1.0                Start time     09:46:10  Mar 22, 2004 *
 *                                                                               *
 *   Job name       PJG#VCLP               Stop  time     00:00:00  Mar 22, 2004 *
 *                                                                               *
 *   Account        PJG$GG                 Elapsed time  920:41:42.41            *
 *                                                                               *
 *   User Name      Module: VCLP           CPU time       00:00:02.77            *
 *                                                                               *
 *   Job class      E                      SRB Time       00:00:00.06            *
 *                                                                               *
 *********************************************************************************
 IEF375I  JOB/PJG#VCLP/START 2004082.0946
 IEF376I  JOB/PJG#VCLP/STOP  2004082.0946 CPU    0MIN 02.77SEC SRB    0MIN 00.06SEC
1Data set successfully converted from EDIT to FB format
1Assembler Done VCLP No Statements Flagged
1         High Level Assembler Option Summary                   (PTF UQ57391)                                               Page    1
-                                                                                            HLASM R4.0  2004/03/22 09.46
0  No Overriding ASMAOPT Parameters
   Overriding Parameters-  SYSPARM(VCLP),TERM,LANG(EN),OBJ,LC(32500),XREF(SHORT),NODECK,NORLD,NODX,NOUS
   No Process Statements


   Options for this Assembly
0  NOADATA
     ALIGN
   NOASA
     BATCH
     CODEPAGE(047C)
   NOCOMPAT
   NODBCS
 3 NODECK
 3 NODXREF
     ESD
   NOEXIT
     FLAG(0,ALIGN,CONT,NOIMPLEN,NOPAGE0,PUSH,RECORD,NOSUBSTR,USING0)
   NOFOLD
   NOGOFF
   NOINFO
 3   LANGUAGE(EN)
   NOLIBMAC
 3   LINECOUNT(32500)
     LIST(121)
     MXREF(SOURCE)
 3   OBJECT
     OPTABLE(UNI,NOLIST)
   NOPCONTROL
   NOPESTOP
   NOPROFILE
   NORA2
   NORENT
 3 NORLD
     RXREF
     SIZE(MAX)
 3   SYSPARM(VCLP)
 3   TERM(WIDE)
   NOTEST
     THREAD
   NOTRANSLATE
 3 NOUSING
 3   XREF(SHORT)

   No Overriding DD Names

1VCLP     External Symbol Dictionary                                                                                        Page    2
-Symbol   Type   Id     Address  Length     LD ID  Flags Alias-of                            HLASM R4.0  2004/03/22 09.46
0VCLP      SD 00000001 00000000 00002080             00
 STARTUP   LD          00000000           00000001
 VCLP00    LD          00000006           00000001
 CLRIDTS   ER 00000002
 PROGRAMS  ER 00000003
 CLRENQS   ER 00000004
 VSEG      ER 00000005
 VSEGLOC   ER 00000006
 BTD       ER 00000007
 VWRITE    ER 00000008
 READCORE  ER 00000009
 BTX       ER 0000000A
 RITECORE  ER 0000000B
 PROGMON   ER 0000000C
 TIMEOUT   ER 0000000D
 SCINIT    ER 0000000E
 SCAN      ER 0000000F
 TYPEIT    ER 00000010
 FILES     ER 00000011
 FILESHOW  ER 00000012
 PROGSERV  ER 00000013
 SCTELL    ER 00000014
 SET       ER 00000015
 CLEAR     ER 00000016
 SHOW      ER 00000017
 SHOWLAST  ER 00000018
 PATCH     ER 00000019
 CLEANTRP  LD          000016BA           00000001
 CLRIDTS   LD          0000170E           00000001
 CLRENQS   LD          0000178C           00000001
 CHKATTN   LD          000017CE           00000001
 TYPEIT    LD          000017EA           00000001
 SEGSECS   LD          000018A6           00000001
 SHOWLAST  LD          000018D8           00000001
 VSEG      LD          0000193A           00000001
 VSEGLOC   LD          0000197E           00000001
 VMARK     LD          00001AB8           00000001
 VWRITE    LD          00001AC0           00000001
 VREAD     LD          00001C74           00000001
 GETCLW    LD          00001D30           00000001
 FREECLW   LD          00001D4C           00000001
 PRIVTEST  LD          00001D68           00000001
 PRIVTNOM  LD          00001DAE           00000001
 MVCOS     LD          00001F1C           00000001
 BTR       ER 0000001A
 LDSECT    ER 0000001B
 LDENTRY   ER 0000001C
 GETCLW    ER 0000001D
 FREECLW   ER 0000001E

1VCLP     ORVYL'S COMMAND LANGUAGE PROCESSOR                                                                                Page    3
0Loc    Object Code    Addr1 Addr2  Stmt Lv Lineno    Source Statement                    (Asmedit 3.3)  HLASM R4.0  2004/03/22 09.46
+___    ______ ____    _____ _____  ____ __ ______    ______ _________
0                                      2       2.     ********************************************************************
                                       3       3.     *                                                                  *
                                       4       4.     *       ORVYL/370  RELEASE III - CLASS I - STANFORD PROPRIETARY    *
                                       5       5.     *                                                                  *
                                       6       6.     ********************************************************************
-                                      8       8.              HIBAL ,
-                                    990      10.     * MODIFICATIONS
                                     991      11.     *
1VCLP     ORVYL'S COMMAND LANGUAGE PROCESSOR                                                                                Page    4
0D-Loc  Object Code    Addr1 Addr2  Stmt Lv Lineno    Source Statement           (Hibal 5, Asmedit 3.3)  HLASM R4.0  2004/03/22 09.46
+_____  ______ ____    _____ _____  ____ __ ______    ______ _________
0000000                00000 02080   993      13.     VCLP     CSECT
-                                    998      15.              COPY  ORVDEFN
                                     999             =         SYSDEFN  ,
                                    1000             =         GBLB  &PROTECT
                                    1001             =         GBLC  &MODULE
                                    1002      16.     &MODULE  SETC  'VCLP'
-
                                    1004      18.              REGS  ,,SR,TR,QR,RR,PR,BR,WAR,RAR,CLWR,(LCBR,SCPR)
1VCLP     ORVYL'S COMMAND LANGUAGE PROCESSOR                                                                                Page    5
0Loc    Object Code    Addr1 Addr2  Stmt Lv Lineno    Source Statement           (Hibal 5, Asmedit 3.3)  HLASM R4.0  2004/03/22 09.46
+___    ______ ____    _____ _____  ____ __ ______    ______ _________
0                                   1154      20.              MACRO
                                    1155      21.     &L       ERRMSG  &STR,&LEN
                                    1156      22.     &L       LS    TR,SR,&STR,&LEN
                                    1157      23.              MEND
                                    1158      24.
                                    1159      25.              MACRO
                                    1160      26.              CODE  &MSG
                                    1161      27.              GBLA  &CODES
                                    1162      28.     &CODES   SETA  &CODES+1
                                    1163      29.              DC    AL1(L'CODE&CODES)
                                    1164      30.     CODE&CODES DC C&MSG
                                    1165      31.              MEND
                                    1166      32.
                                    1167      33.              MACRO
                                    1168      34.              CODES
                                    1169      35.              GBLA  &CODES
                                    1170      36.              LCLA  &X
                                    1171      37.     CODETBL  DC    A(&CODES)
                                    1172      38.     .LOOP    ANOP
                                    1173      39.     &X       SETA  &X+1
                                    1174      40.              DC    A(CODE&X-1)
                                    1175      41.              AIF   (&X LT &CODES).LOOP
                                    1176      42.              MEND
                                    1177      43.
                                    1178      44.              MACRO
                                    1179      45.     &L       BTD   &LOC,&LEN,&WORD,&SW,&COMMAS=NO
                                    1180      46.              LCLC  &CM
                                    1181      47.              AIF   ('&COMMAS' NE 'YES').NOCM
                                    1182      48.     &CM      SETC  'C'
                                    1183      49.     .NOCM    ANOP
                                    1184      50.     &L       SYSLR 15,&WORD,OP=L
                                    1185      51.              SYSLR 0,&LEN,TYPE=&SW
                                    1186      52.              SYSLR 1,&LOC
                                    1187      53.              XCALL BTD&CM
                                    1188      54.              MEND
                                    1189      55.
                                    1190      56.              MACRO
                                    1191      57.     &L       BTX   &LOC,&LEN,&WORD
                                    1192      58.     &L       SYSLR 15,&WORD,OP=L
                                    1193      59.              SYSLR 0,&LEN
                                    1194      60.              SYSLR 1,&LOC
                                    1195      61.              XCALL BTX
                                    1196      62.              MEND
1VCLP     ORVYL'S COMMAND LANGUAGE PROCESSOR                                                                                Page    6
0Loc    Object Code    Addr1 Addr2  Stmt Lv Lineno    Source Statement           (Hibal 5, Asmedit 3.3)  HLASM R4.0  2004/03/22 09.46
+___    ______ ____    _____ _____  ____ __ ______    ______ _________
0                                   1199      65.              COPY  WYLMDWD
                                    1200             =*
                                    1201             =*   EQUS FOR VALUES IN WYLBUR MODE WORD - LOW ORDER BYTE
                                    1202             =*
                                    1203             =WPREST   EQU   X'01',,C'N'              RETURN DATA IN PREST FORMAT
                                    1204             =WNFORM   EQU   X'02',,C'N'              INFORM OF WDS CHANGES (RE)
                                    1205             =WPRHBT   EQU   X'04',,C'N'              PROHIBIT WDS CHANGES (RE)
                                    1206             =WNNUMB   EQU   X'08',,C'N'              NUMBER COMMAND INVALID
                                    1207             =WNALGN   EQU   X'10',,C'N'              ALIGN,JUSTIFY,CENTER INVALID
                                    1208             =WSSBRK   EQU   X'20',,C'N'              PROHIBIT SESS BREAK WDS CHGS
1VCLP     ORVYL'S COMMAND LANGUAGE PROCESSOR                                                                                Page    7
0Loc    Object Code    Addr1 Addr2  Stmt Lv Lineno    Source Statement           (Hibal 5, Asmedit 3.3)  HLASM R4.0  2004/03/22 09.46
+___    ______ ____    _____ _____  ____ __ ______    ______ _________
0                                   1210      67.              COPY  PZERO
 000000                00000 00280  1211             =PZERO    RECORD BEGIN
                                    1219  1          =*
                                    1220  1          =* Real Page 0.  Each CPU has its own copy of this area.
                                    1221  1          =*
-                                   1223  1          =****************************************************************
                                    1224  1          =*               Fields Fixed by the Architecture               *
                                    1225  1          =*               ********************************               *
                                    1226  1          =*                                                              *
 000000                             1227  1          =PZRSNPSW   DS    D             Restart new PSW                 *
 000008                             1228  1          =PZRSOPSW   DS    D             Restart old PSW                 *
 000010                             1229  1          =           DS    D                                             *
 000018                             1230  1          =PZEXOPSW   DS    D             External old PSW                *
 000020                             1231  1          =PZSVOPSW   DS    D             Supervisor old PSW              *
 000028                             1232  1          =PZPIOPSW   DS    D             Program old PSW                 *
 000030                             1233  1          =PZMCOPSW   DS    D             Machine check old PSW           *
 000038                             1234  1          =PZIOOPSW   DS    D             I/O old PSW                     *
 000040                             1235  1          =           DS    3D                                            *
 000058                             1236  1          =PZEXNPSW   DS    D             External new PSW                *
 000060                             1237  1          =PZSVNPSW   DS    D             Supervisor new PSW              *
 000068                             1238  1          =PZPINPSW   DS    D             Program new PSW                 *
 000070                             1239  1          =PZMCNPSW   DS    D             Machine check new PSW           *
 000078                             1240  1          =PZIONPSW   DS    D             I/O new PSW                     *
 000080                             1241  1          =           DS    F                                             *
 000084                             1242  1          =PZEXCPU    DS    H             CPU address for EXT int         *
 000086                             1243  1          =PZEXIC     DS    H             External interrupt code         *
 000088                             1244  1          =PZSVILC    DS    H             Supervisor call ILC             *
 00008A                             1245  1          =PZSVIC     DS    H             Supervisor interrupt code       *
 00008C                             1246  1          =PZPIILC    DS    H             Program ILC                     *
 00008E                             1247  1          =PZPIIC     DS    H             Program interrupt code          *
 000090                             1248  1          =PZTREXA    DS    A             Translation exception address   *
 000094                             1249  1          =PZMONCL    DS    H             Monitor Class number            *
 000096                             1250  1          =PZPERCD    DS    H             PER code                        *
 000098                             1251  1          =PZPERA     DS    A             PER Address                     *
 00009C                             1252  1          =PZMONCD    DS    A             Monitor Code                    *
 0000A0                             1253  1          =           DS    3D                                            *
 0000B8                             1254  1          =PZIOSID    DS    A             I/O subsystem ID word           *
 0000BC                             1255  1          =PZIOPRM    DS    A             I/O Parameter                   *
 0000C0                             1256  1          =PZIOSCS    DS    A             I/O subchannel ending status    *
 0000C4                             1257  1          =           DS    A                                             *
 0000C8                             1258  1          =           DS    39D                                           *
                                    1259  1          =*                                                              *
                                    1260  1          =*            ***************************************           *
                                    1261  1          =*            End of Fields fixed by the architecture           *
                                    1262  1          =****************************************************************
1VCLP     ORVYL'S COMMAND LANGUAGE PROCESSOR                                                                                Page    8
0D-Loc  Object Code    Addr1 Addr2  Stmt Lv Lineno    Source Statement           (Hibal 5, Asmedit 3.3)  HLASM R4.0  2004/03/22 09.46
+_____  ______ ____    _____ _____  ____ __ ______    ______ _________
0                                   1264  1          =*
                                    1265  1          =* Fields of general interest
                                    1266  1          =*
 000200                             1267  1          =PZMATP     DS    A             Address of the MAT
 000204                             1268  1          =           DS    A             ** Reserved **
 000208                             1269  1          =PZCURPID   DS    0D            Unique ID of the current process
 000208                             1270  1          =PZCURASB   DS    A             Addr of ASB for current Address space
 00020C                             1271  1          =PZCURTSK   DS    A             ID of current task in the Address space
 000210                             1272  1          =PZLCPUA    DS    A             Logical CPU address
 000214                             1273  1          =PZCPUMSK   DS    A             CPU address mask bit
 000218                             1274  1          =PZPSWM     DS    X             PSW mask for disabling
 000219                             1275  1          =           DS    X             ** Reserved **
                                    1276  1          =*
                                    1277  1          =* Termination/Trace information
                                    1278  1          =*
 00021A 00                          1279  1          =PZTERMFL   FLAG  ,             Termination flags
 PZTERMFL.PZABORT  80 ONES          1283  1          =           FLAG  PZABORT         ABORT macro issued
 PZTERMFL.PZATERM  40 ONES          1288  1          =           FLAG  PZATERM         Start termination processing
 00021B                             1293  1          =PZABSM     DS    X             Save area for system mask in ABORT
 00021C                             1294  1          =PZABR15    DS    A             Save area for R15 in an ABORT
 000220                             1295  1          =PZTZOFF    DS    D             Time zone offset
 000228                             1296  1          =           DS    22A           ** Reserved **
                                    1297  1          =*         DS    24A           ** Reserved **
 000280                00280 00280  1298             =         END   ,
1VCLP     ORVYL'S COMMAND LANGUAGE PROCESSOR                                                                                Page    9
0Loc    Object Code    Addr1 Addr2  Stmt Lv Lineno    Source Statement           (Hibal 5, Asmedit 3.3)  HLASM R4.0  2004/03/22 09.46
+___    ______ ____    _____ _____  ____ __ ______    ______ _________
0                                   1308      69.              COPY  SCP
                                    1309             =*******************************************************************
                                    1310             =*                                                                 *
                                    1311             =*    SCP  -  Mode 1 Session Control Page                          *
                                    1312             =*                                                                 *
                                    1313             =*******************************************************************
0000000                00000 00294  1315             =SCP      RECORD BEGIN
 000000                             1323  1          =SCPID      DS    CL4'SCP'
                                    1324  1          =
 000008                             1325  1          =SCPPSW     DS    D                       RESUME PSW
 000010                             1326  1          =SCPGPRS    DS    16F                     RESUME GPRS
 000050                             1327  1          =SCPFPRS    DS    4D                      RESUME FPRS
                                    1328  1          =
 000070                             1329  1          =SCPXPSW    DS    D                       EXIT PSW
 000078                             1330  1          =SCPXGPRS   DS    16F                     EXIT GPRS
                                    1331  1          =
 0000B8                             1332  1          =SCPSBPSW   DS    D                       SESSION BREAK PSW
 0000C0                             1333  1          =SCPSBGPR   DS    16F                     SESSION BREAK GPRS
                                    1334  1          =
 000100                             1335  1          =SCPCLPSW   DS    D                       CLP ERROR PSW
 000108                             1336  1          =SCPCLPGP   DS    16F                     CLP ERROR GPRS
                                    1337  1          =
 000148                             1338  1          =SCPSVPSW   DS    D                       SVC ERROR PSW
 000150                             1339  1          =SCPSVGPR   DS    16F                     SVC ERROR GPRS
                                    1340  1          =
 000190                             1341  1          =SCPCTL8    DS    A                       CONTROL REGISTER 8 (MON CALL)
 000194                             1342  1          =SCPCTL9    DS    3A                      CONTROL REGISTERS 9-11 (PER)
                                    1343  1          =
 0001A0                             1344  1          =SCPPXA     DS    A                       PAGING EXCEPTION ADDR
 0001A4                             1345  1          =SCPIPSW    DS    A                       INTERRUPT PSW
 0001A8                             1346  1          =SCPPAN     DS    H                       PANIC CODE
                                    1347  1          =SCPPANSY   EQU   SCPPAN+1,1,C'X'         FOR ONE BYTE PANIC CODE
                                    1348  1          =
                                    1349  1          =PANOPER    EQU   1,,C'N'                 OPERATION ERROR
                                    1350  1          =PANPROT    EQU   4,,C'N'                 PROTECTION ERROR
                                    1351  1          =PANADDR    EQU   5,,C'N'                 ADDRESSING ERROR
                                    1352  1          =PANSPEC    EQU   6,,C'N'                 SPECIFICATION ERROR
                                    1353  1          =PANWAIT    EQU   16,,C'N'                MISSING WAIT ERROR
                                    1354  1          =
 0001AA                             1355  1          =SCPACCT    DS    C'GG.UUU'               SIGNED-ON ACCOUNT
                                    1356  1          =SCPUSER    EQU   SCPACCT+3,3,C'C'        SIGNED-ON USER
                                    1357  1          =SCPGROUP   EQU   SCPACCT,2,C'C'          SIGNED-ON GROUP
                                    1358  1          =*
                                    1359  1          =*SCPPACCT DS    C'GG.UUU'               PSEUDO ACCOUNT
                                    1360  1          =*SCPPUSER EQU   SCPPACCT+3,3,C'C'       PSEUDO USER
                                    1361  1          =*SCPPGRP  EQU   SCPPACCT,2,C'C'         PSEUDO GROUP
                                    1362  1          =*SCPPRIVS DS    X                       PSEUDO ACCOUNT PRIVS
 0001B0                             1363  1          =           DS    XL7                     SPARE
                                    1364  1          =
 0001B7                             1365  1          =SCPPRIV    DS    X                       ACCOUNT PRIVS
 0001B8                             1366  1          =SCPCLW     DS    A                       POINTER TO THE CLW
 0001BC                             1367  1          =SCPPCAT    DS    A                       PROGRAM CATALOG POINTER
1VCLP     ORVYL'S COMMAND LANGUAGE PROCESSOR                                                                                Page   10
0D-Loc  Object Code    Addr1 Addr2  Stmt Lv Lineno    Source Statement           (Hibal 5, Asmedit 3.3)  HLASM R4.0  2004/03/22 09.46
+_____  ______ ____    _____ _____  ____ __ ______    ______ _________
00001C0                             1369  1          =SCPSID     DS    D                       SUSPEND ID
 0001C8                             1370  1          =SCPUCLK    DS    A                       USER CLOCK ID
 0001CC                             1371  1          =SCPUCXIT   DS    A                       USER CLOCK EXIT ID
 0001D0                             1372  1          =SCPCCLK    DS    A                       CLP CLOCK ID
 0001D4                             1373  1          =SCPCCXIT   DS    A                       CLP CLOCK EXIT ID
                                    1374  1          =
 0001D8                             1375  1          =SCPTXEP    DS    A                       TIMER EXIT ENTRY POINT
 0001DC                             1376  1          =SCPTXI     DS    A                       USER POINTER FOR TIMER EXIT
 0001E0                             1377  1          =SCPPXEP    DS    A                       PANIC EXIT ENTRY POINT
 0001E4                             1378  1          =SCPPXI     DS    A                       USER POINTER FOR PANIC EXIT
 0001E8                             1379  1          =SCPSXEP    DS    A                       SVC EXIT ENTRY POINT
 0001EC                             1380  1          =SCPSXI     DS    A                       USER POINTER FOR SVC EXIT
                                    1381  1          =
 0001F0                             1382  1          =SCPUMSIZ   DS    A                       ADDRESS SPACE LIMIT
 0001F4                             1383  1          =SCPRRSEG   DS    A                       LOW ADDR FOR RESERVE/RELEASE
 0001F8                             1384  1          =SCPRESRV   DS    H                       RESERVED (GETMAINED) PAGES
 0001FA                             1385  1          =SCPUNRSV   DS    H                       UNRESERVED PAGE COUNT
 0001FC                             1386  1          =SCPUMAP    DS    A                       USER MAP SIZE
                                    1387  1          =
 000200 00                          1388  1          =SCPFL      FLAG  ,                       FLAG BYTE
 SCPFL.SCPFERR     80 ONES          1392  1          =           FLAG  SCPFERR                 ERROR IN CLP
 SCPFL.SCPFPER     40 ONES          1397  1          =           FLAG  SCPFPER                 PER IS ACTIVE
 SCPFL.SCPFMON     20 ONES          1402  1          =           FLAG  SCPFMON                 MONITOR CALL IS ACTIVE
 SCPFL.SCPFPSEU    10 ONES          1407  1          =           FLAG  SCPFPSEU                PSUEDO USER SET
 SCPFL.SCPFSAM     08 ONES          1412  1          =           FLAG  SCPFSAM                 USER IS STAND-ALONE
 SCPFL.SCPFPRT     04 ONES          1417  1          =           FLAG  SCPFPRT                 USER PROGRAM "PROTECTED"
 SCPFL.SCPFTRU     02 ONES          1422  1          =           FLAG  SCPFTRU                 USER TRACE ACTIVE
 SCPFL.SCPFTRC     01 ONES          1427  1          =           FLAG  SCPFTRC                 CLP TRACE ACTIVE
                                    1432  1          =
 000201                             1433  1          =SCPKLUDG   DS    X     ***KLUDGE***      "KLUDGE" BYTE
 000202                             1434  1          =SCPTRASH   DS    X                       MEMORY CLEARING VALUE
 000203                             1435  1          =SCPJESR    DS    X                       NUMBER OF JES READERS IN USE
                                    1436  1          =
 000204                             1437  1          =SCPPER     DS    A                       PER INTERRUPT CODE,ADDRESS
 000208                             1438  1          =SCPMON     DS    A                       MONITOR INTERRUPT CODE,ADDRESS
                                    1439  1          =
 00020C                             1440  1          =SCPIDT     DS    A                       I/O ID TABLES
 000210                             1441  1          =SCPNIDT    DS    H                       NUMBER OF ID BLOCKS
 000212                             1442  1          =SCPQIDT    DS    H                       ENQ/DEQ ID TABLE
                                    1443  1          =
                                    1444  1          =SCPCWASZ   EQU   16,,C'N'                SIZE OF COMMON WORK AREA
 000214                             1445  1          =SCPCWA     DS    (SCPCWASZ)X
                                    1446  1          =
                                    1447  1          =CLWIBUFL   EQU   235                     LENGTH OF COMMAND BUFFER
 000224                             1448  1          =SCPCMDP    DS    A                       =>AL2(LEN),CL133'COMMAND'
 000228                             1449  1          =SCPPARMP   DS    A                       =>AL2(LEN),CL133'PARM'
 00022C                             1450  1          =SCPLCMDL   DS    H                       LENGTH OF LAST CMD
 00022E                             1451  1          =SCPLCMD    DS    CL40                    LAST COMMAND
                                    1452  1          =
 000256                             1453  1          =SCPNENQ    DS    H                       NUMBER OF ALLOWED ENQ'S
 000258                             1454  1          =SCPENQL    DS    A                       ENQUEUE ID TABLE ADDRESS
                                    1455  1          =
 00025C                             1456  1          =SCPTRACE   DS    A                       MODE 1 TRACE BUFFER CHAIN
1VCLP     ORVYL'S COMMAND LANGUAGE PROCESSOR                                                                                Page   11
0D-Loc  Object Code    Addr1 Addr2  Stmt Lv Lineno    Source Statement           (Hibal 5, Asmedit 3.3)  HLASM R4.0  2004/03/22 09.46
+_____  ______ ____    _____ _____  ____ __ ______    ______ _________
0                                   1458  1          =*******************************************************************
                                    1459  1          =*                                                                 *
                                    1460  1          =*    SCB  -  Mode 1 Session Control Block                         *
                                    1461  1          =*                                                                 *
                                    1462  1          =*******************************************************************
0000260 00                          1464  1          =SCBWFL     FLAG  ,                       WAIT FLAGS
 SCBWFL.SCBFWAIT   80 ONES          1468  1          =           FLAG  SCBFWAIT                WAITING
                                    1473  1          =
 000261 00                          1474  1          =SCBCFL     FLAG  ,                       COMMON FLAGS
 SCBCFL.SCBCFALP   80 ONES          1478  1          =           FLAG  SCBCFALP                AUTO LOGOFF BEING PROCESSED
 SCBCFL.SCBCFCLA   40 ONES          1483  1          =           FLAG  SCBCFCLA                IDLE ATTN IN CLP
 SCBCFL.SCBCFAX    20 ONES          1488  1          =           FLAG  SCBCFAX                 BRANCH TO ATTENTION EXIT
 SCBCFL.SCBCFNMA   10 ONES          1493  1          =           FLAG  SCBCFNMA                SUPPRESS MULTIPLE ATTN BREAK
 SCBCFL.SCBFNESC   08 ONES          1498  1          =           FLAG  SCBFNESC                FORCE SESSION BREAK ON ATTN
                                    1503  1          =
 000262 00                          1504  1          =SCBFL      FLAG  ,                       FLAGS
 SCBFL.SCBFCLP     80 ONES          1508  1          =           FLAG  SCBFCLP                 CLP IN CONTROL
 SCBFL.SCBFSVC     40 ONES          1513  1          =           FLAG  SCBFSVC                 USER IS IN SVC PROCESSING
 SCBFL.SCBFNPUP    20 ONES          1518  1          =           FLAG  SCBFNPUP                NO PSW CC CHANGES
 SCBFL.SCBFASLK    10 ONES          1523  1          =           FLAG  SCBFASLK                ADDRESS SPACE LOCK HELD
 SCBFL.SCBFPCLP    08 ONES          1528  1          =           FLAG  SCBFPCLP                PSEUDO CLP
                                    1533  1          =
 000263 00                          1534  1          =SCBTFL     FLAG  ,                       TIMER FLAGS
 SCBTFL.SCBTUTR    80 ONES          1538  1          =           FLAG  SCBTUTR                 USER TIMER RUNNING
 SCBTFL.SCBTUCT    40 ONES          1543  1          =           FLAG  SCBTUCT                 USER TIMING CPU TIME
 SCBTFL.SCBTCPTR   20 ONES          1548  1          =           FLAG  SCBTCPTR                COMMAND TIMER RUNNING
 SCBTFL.SCBTCPCT   10 ONES          1553  1          =           FLAG  SCBTCPCT                COMMAND TIMING CPU TIME
 SCBTFL.SCBTCPQU   08 ONES          1558  1          =           FLAG  SCBTCPQU                "QUEUED" TIMER RUNNING
                                    1563  1          =
 000264 00                          1564  1          =SCBMB      FLAG  ,                       EXIT ENABLED FLAG
                                    1568  1          =*
                                    1569  1          =* FOLLOWING FLAGS USED FOR BOTH SCBMB AND SCBXFL
                                    1570  1          =*
 000265 00                          1571  1          =SCBXFL     FLAG   ,                      EXIT FLAGS
 SCBXFL.SCBXT      80 ONES          1575  1          =           FLAG  SCBXT                   TIMER EXIT
 SCBXFL.SCBXA      40 ONES          1580  1          =           FLAG  SCBXA                   ATTN EXIT
 SCBXFL.SCBXW      20 ONES          1585  1          =           FLAG  SCBXW                   WAIT EXIT
 SCBXFL.SCBXP      10 ONES          1590  1          =           FLAG  SCBXP                   PANIC EXIT
 SCBXFL.SCBXCPT    08 ONES          1595  1          =           FLAG  SCBXCPT                 CLP TIMER EXIT
 SCBXFL.SCBXALO    04 ONES          1600  1          =           FLAG  SCBXALO                 AUTO LOGOFF
 SCBXFL.SCBDEFMB   F0 NZ            1605  1          =           FLAG  (SCBDEFMB,SCBXT+SCBXA+SCBXW+SCBXP)  DEFAULT
                                    1625  1          =
 000268                             1626  1          =SCBSPB     DS    A                       SPB POINTER
 00026C                             1627  1          =SCBENQ     DS    A                       ENQUEUE ID
 000270                             1628  1          =SCPEPXIT   DS    A                       ENQUEUE POST EXIT ID
                                    1629  1          =
 000278                             1630  1          =           DS    D                       Available
 000280                             1631  1          =SCBPNAML   DS    H                       LENGTH OF THE PROGRAM NAME
 000282                             1632  1          =SCBPNAM    DS    CL8                     PROGRAM NAME
 00028A                             1633  1          =SCBUPRI    DS    X                       USER PRIORITY
                                    1634  1          =*
                                    1635  1          =* Shared symbol control
                                    1636  1          =*
 00028C                             1637  1          =SCBSSAB    DS    A                       POINTER TO SSAB CHAIN
                                    1638  1          =
1VCLP     ORVYL'S COMMAND LANGUAGE PROCESSOR                                                                                Page   12
0D-Loc  Object Code    Addr1 Addr2  Stmt Lv Lineno    Source Statement           (Hibal 5, Asmedit 3.3)  HLASM R4.0  2004/03/22 09.46
+_____  ______ ____    _____ _____  ____ __ ______    ______ _________
0000290                             1639  1          =SCBWAITB   DS    A         WAIT BLOCK PTR (SEE M1GOWAIT IN M1SERV)
 000294                00294 00294  1640             =         END
1VCLP     ORVYL'S COMMAND LANGUAGE PROCESSOR                                                                                Page   13
0Loc    Object Code    Addr1 Addr2  Stmt Lv Lineno    Source Statement           (Hibal 5, Asmedit 3.3)  HLASM R4.0  2004/03/22 09.46
+___    ______ ____    _____ _____  ____ __ ______    ______ _________
0                                   1650      71.              COPY  CLW
                                    1651             =*
                                    1652             =*                   COMMAND LANGUAGE WORK AREA
                                    1653             =*
                                    1654             =* ORGANIZATION:
                                    1655             =*
                                    1656             =*        COMMONLY USED CLP FLAGS, COMMAND BUFFERS AND OTHER CONTROL
                                    1657             =*        INFORMATION FOLLOW THE SESSION CONTROL PAGE INFORMATION.
                                    1658             =*        THE BALANCE OF THIS PAGE IS THE CLP SAVE AREA STACK.
                                    1659             =*
 000000                00000 00618  1660             =CLW      RECORD BEGIN
 000000                             1668  1          =CLWSTART   DS    0F
 000000                             1669  1          =CLWSCP     DS    A                       POINTER TO THE SCP
 000004                             1670  1          =           DS    5A                      AVAILABLE
 000018                             1671  1          =CLWUWST    DS    A                       STARTING LOC OF USER WORK AREA
 00001C                             1672  1          =CLWUPST    DS    A                       STARTING LOC OF USER PROGRAM
 000020                             1673  1          =CLWUPML    DS    A                       MAXIMUM LEN OF USER PROGRAM
 000024                             1674  1          =CLWUPRSV   DS    H                       USER PROGRAM RESERVE COUNT
 000026                             1675  1          =CLWUPURV   DS    H                       USER PROGRAM UN-RESERVE COUNT
 000028                             1676  1          =CLWIBUFN   DS    H                       LENGTH OF INPUT LINE
 00002A 606E40                      1677  1          =           DC    C'-> '
 00002D                             1678  1          =CLWIBUF    DS    CL235                   INPUT BUFFER
                                    1679  1          =
 000118                             1680  1          =CLWOBUF    DS    2H                      WRITE/PROMPT COUNTS
 00011C                             1681  1          =           DS    CL235                   OUTPUT BUFFER
                                    1682  1          =CLWOBUFL   EQU   *-CLWOBUF-4
                                    1683  1          =*                                      SESSION BREAK FLAGS:
 000207 00                          1684  1          =CLWFL      FLAG  ,                       ZEROED AT SESSION BREAK START
 CLWFL.CLWFTYPD    80 ONES          1688  1          =           FLAG  CLWFTYPD                CURRENT COMMAND WAS TYPED
 CLWFL.CLWFCMD     40 ONES          1693  1          =           FLAG  CLWFCMD                 PROCESSING COMMAND SVC
 CLWFL.CLWFWYL     20 ONES          1698  1          =           FLAG  CLWFWYL                 COMMAND HAS BEEN TO WYLBUR
                                    1703  1          =
 000208 00                          1704  1          =CLWFLG     FLAG  ,                       FLAGS
 CLWFLG.CLWFCERR   80 ONES          1708  1          =           FLAG  CLWFCERR                COMMAND ERROR: EXE BREAK
 CLWFLG.CLWFGPW    40 ONES          1713  1          =           FLAG  CLWFGPW                 GET-PUT WORK AREA ALLOCATED
 CLWFLG.CLWFTTRP   20 ONES          1718  1          =           FLAG  CLWFTTRP                TEMPORARY TRAP SET
 CLWFLG.CLWFTRAP   10 ONES          1723  1          =           FLAG  CLWFTRAP                TRAP IN PROGRESS
 CLWFLG.CLWFOSC    08 ONES          1728  1          =           FLAG  CLWFOSC                 READ/WRITE REAL (OS) CORE
 CLWFLG.CLWFQMSG   04 ONES          1733  1          =           FLAG  CLWFQMSG                "QUEUED" MESSAGE SENT
 CLWFLG.CLWFM31    02 ONES          1738  1          =           FLAG  CLWFM31                 PROGRAM IN 31 BIT MODE
                                    1743  1          =
 000209 00                          1744  1          =CLWPFL     FLAG  ,                       PROGRAM FLAGS
 CLWPFL.CLWPFSUP   80 ONES          1748  1          =           FLAG  CLWPFSUP                LINK AREA SET UP
 CLWPFL.CLWPFPL    40 ONES          1753  1          =           FLAG  CLWPFPL                 PROGRAM LOADING
 CLWPFL.CLWPFPIC   20 ONES          1758  1          =           FLAG  CLWPFPIC                PROGRAM ENTERED
 CLWPFL.CLWPFRUN   10 ONES          1763  1          =           FLAG  CLWPFRUN                EXECUTE PROGRAM
 CLWPFL.CLWPFPAU   08 ONES          1768  1          =           FLAG  CLWPFPAU                PAUSE BEFORE EXECUTION
 CLWPFL.CLWPFPRV   04 ONES          1773  1          =           FLAG  CLWPFPRV                PRIVATE PROGRAM
 CLWPFL.CLWPFPRT   02 ONES          1778  1          =           FLAG  CLWPFPRT                PROGRAM PROTECTED
 CLWPFL.CLWPFSHR   01 ONES          1783  1          =           FLAG  CLWPFSHR                SHARED PROGRAM LOADED
                                    1788  1          =
 00020A 00                          1789  1          =CLWMFL     FLAG  ,                       MISCELLANEOUS FLAGS
 CLWMFL.CLWMEVCN   80 ONES          1793  1          =           FLAG  CLWMEVCN                CONTINUE AFTER EVENTS
 CLWMFL.CLWMMNCN   40 ONES          1798  1          =           FLAG  CLWMMNCN                CONTINUE AFTER MONITORS
 CLWMFL.CLWMBSUC   20 ONES          1803  1          =           FLAG  CLWMBSUC                SIMULATED BRANCH SUCCESSFUL
 CLWMFL.CLWMNCST   10 ONES          1808  1          =           FLAG  CLWMNCST                SUPPRESS AUTOMATIC COST PRINT
1VCLP     ORVYL'S COMMAND LANGUAGE PROCESSOR                                                                                Page   14
0Loc    Object Code    Addr1 Addr2  Stmt Lv Lineno    Source Statement           (Hibal 5, Asmedit 3.3)  HLASM R4.0  2004/03/22 09.46
+___    ______ ____    _____ _____  ____ __ ______    ______ _________
0CLWMFL.CLWMCLRP   08 ONES          1813  1          =           FLAG  CLWMCLRP                UNREC. CLR FOUND
 CLWMFL.CLWMNOL    04 ONES          1818  1          =           FLAG  CLWMNOL                 DON'T PRINT ON CONT. EVENTS
 CLWMFL.CLWMDSUP   02 ONES          1823  1          =           FLAG  CLWMDSUP                DUMP AREA SET UP
 CLWMFL.CLWMDUMP   01 ONES          1828  1          =           FLAG  CLWMDUMP                DUMP COMMAND BEING PROCESSED
                                    1833  1          =
 00020B 00                          1834  1          =CLWMONF    FLAG  ,                       PROGLOOK/MONITOR FLAGS
 CLWMONF.CLWFMWP   80 ONES          1838  1          =           FLAG  CLWFMWP                 MONITOR WORK PAGE EXISTS
 CLWMONF.CLWFPRGL  40 ONES          1843  1          =           FLAG  CLWFPRGL                PROGLOOK IN PROGRESS
 CLWMONF.CLWDOTIM  20 ONES          1848  1          =           FLAG  CLWDOTIM                SET TIMER AT RUN
 CLWMONF.CLWCPTIM  10 ONES          1853  1          =           FLAG  CLWCPTIM                SET CPU TIME TIMER
                                    1858  1          =
 00020C 00                          1859  1          =CLWSFL     FLAG  ,                       SESSION FLAGS
 CLWSFL.CLWSSAM    80 ONES          1863  1          =           FLAG  CLWSSAM                 STAND ALONE MODE
 CLWSFL.CLWSSP     40 ONES          1868  1          =           FLAG  CLWSSP                  SPECIAL PERSON
                                    1873  1          =
 00020D                             1874  1          =           DS    X
                                    1875  1          =
 00020E                             1876  1          =CLWEXSVC   DS    H                       EXIT SVC
 000210                             1877  1          =CLWPSVC    DS    H                       PAUSE/TRAP SVC
 000212                             1878  1          =CLWCSVC    DS    H                       COMMAND SVC
                                    1879  1          =
 000214                             1880  1          =CLWDSP     DS    X                       DISPATCHING PRIORITY
 000215                             1881  1          =CLWPFS     DS    X                       PARAMTER FLAG SAVE
 000218                             1882  1          =CLWPS      DS    3F                      PARAMETER SAVE
                                    1883  1          =
 000224                             1884  1          =CLWMLMOD   DS    F                       MILTEN MODE WORD
 000228                             1885  1          =CLWWLMOD   DS    F                       WYLBUR MODE WORD
                                    1886  1          =
 00022C                             1887  1          =CLWTIMER   DS    A                       TIMER VALUE TO BE SET AT RUN
 000230                             1888  1          =CLWTIMAX   DS    H                       MAX TIMER INTERVAL (IN .1 SEC)
 000232                             1889  1          =CLWTIVAL   DS    H                       CURRENT TIMER INTERVAL
 000234                             1890  1          =CLWTMAX    DS    H                       CPU TIME LIMIT
 000236                             1891  1          =CLWTIME    DS    H                       CURRENT CPU TIME
 000238                             1892  1          =CLWPELT    DS    A                       ELAPSED TIME
 00023C                             1893  1          =CLWPCVM    DS    A                       VM CHARGES
 000240                             1894  1          =CLWPIOS    DS    A                       I/O COUNTS
 000244                             1895  1          =CLWPCUSE   DS    A                       CPU TIME
                                    1896  1          =
 000248                             1897  1          =CLWPROGN   DS    CL8                     PROGRAM NAME
 000250                             1898  1          =CLWLNKP    DS    A                       LINK PAGE POINTER
 000254                             1899  1          =CLWGPWP    DS    A                       GET-PUT WORK PAGE POINTER
 000258                             1900  1          =CLWMONP    DS    A                       MONITOR/PROGLOOK PAGE
 00025C                             1901  1          =CLWSPB     DS    A                       SHARED PROGRAM BLOCK
 000260                             1902  1          =CLWDUMPB   DS    A                       POINTER TO DUMP BUFFER
                                    1903  1          =
 000264                             1904  1          =CLWPER     DS    A                       PER INFO
 000268                             1905  1          =CLWMON     DS    A                       MONITOR INFO
                                    1906  1          =
 00026C                             1907  1          =CLWEVCNT   DS    A                       NUMBER OF EVENTS TO EXECUTE
 000270                             1908  1          =CLWTRAPA   DS    A                       ADDR OF INST BEING TRAPPED
 000274                             1909  1          =CLWTRAPB   DS    A                       ADDR OF INST AFTER
 000278                             1910  1          =CLWTRAPI   DS    3H                      INSTRUCTION BEING TRAPPED
 00027E                             1911  1          =CLWTRAPJ   DS    H                       1ST HALFWORD OF INST AFTER
                                    1912  1          =
                                    1913  1          =CLWNTRAP   EQU   8,,C'N'                 NO. OF TRAPS
 000280                             1914  1          =CLWTRAPS   DS    (CLWNTRAP)XL5           TRAP TABLE
1VCLP     ORVYL'S COMMAND LANGUAGE PROCESSOR                                                                                Page   15
0Loc    Object Code    Addr1 Addr2  Stmt Lv Lineno    Source Statement           (Hibal 5, Asmedit 3.3)  HLASM R4.0  2004/03/22 09.46
+___    ______ ____    _____ _____  ____ __ ______    ______ _________
00002A8                             1915  1          =CLWTTRAP   DS    XL5                     TEMPORARY TRAP
                                    1916  1          =*
                                    1917  1          =* KEYWORD FILE RECORD AREA
                                    1918  1          =*
 0002AD                             1919  1          =CLWKFL     DS    X                       KEYWORD FILE FLAGS
                                    1920  1          =
                                    1921  1          =CLWKFAC    EQU   X'80'                   PROGRAM AUTO CALL
                                    1922  1          =CLWKFMP    EQU   X'40'                   PROGRAM MANDATORY
                                    1923  1          =
 0002AE                             1924  1          =CLWKACC    DS    CL5                     ACCOUNT FOR PROGRAM SEARCH
 0002B3                             1925  1          =CLWKPROG   DS    CL8                     DEFAULT/MANDATORY PROGRAM
 0002BB                             1926  1          =CLWKMISC   DS    CL8                     MISCELLANEOUS FIELDS
                                    1927  1          =*
                                    1928  1          =*  SCANNER UTILITY AREA
                                    1929  1          =*
                                    1930  1          =           SCANCB PFX=CLWKW
 0002C4                             1931  1 01-SCANC +CLWKWCB    DS    0F
 0002C4                             1932  1 01-SCANC +CLWKWVAL   DS    A                       VALUE RETURNED
 0002C8                             1933  1 01-SCANC +CLWKWKW    DS    CL8                     CURRENT KEY WORD
 0002D0                             1934  1 01-SCANC +CLWKWLEN   DS    A                       LENGTH LEFT TO SCAN
 0002D4                             1935  1 01-SCANC +CLWKWLOC   DS    A                       NEXT THING TO SCAN
 0002D8                             1936  1 01-SCANC +CLWKWRA    DS    A                       RETURN ADDRESS
 0002DC                             1937  1 01-SCANC +CLWKWPRT   DS    A                       ROUTING TABLE ADDRESS
 0002E0                             1938  1 01-SCANC +CLWKWCLT   DS    A                       SCAN TYPE
                                    1939  1          +*                                      0 = NORMAL SCAN
                                    1940  1          +*                                      4 = EXPRESSION ISOLATION
                                    1941  1          +*                                      8 = EXPRESSION SCAN
                                    1942  1 01-SCANC +CLWKWCBL   EQU *-CLWKWCB
                                    1943  1          =
 0002E8                             1944  1          =CLWTEMP    DS    4D                      WORK AREA
                                    1945  1          =
 000308                             1946  1          =CLWDELTA   DS    F                       Wylbr line delta
 00030C                             1947  1          =           DS    F                       Spare
 000310                             1948  1          =CLWEVHST   DS    8D                      EVENT HISTORY
 000350                             1949  1          =CLWEVENT   DS    D                       LAST EVENT INFO
 000358                             1950  1          =CLWQRET    DS    3F                      QUICK RETURN FOR VSUB
                                    1951  1          =*                                      SAVE AREA FOR BRR,BR,WAR
                                    1952  1          =*
 000368                             1953  1          =CLWSBPSW   DS    D                       SESSION BREAK PSW
 000370                             1954  1          =CLWSBGPR   DS    16F                     SESSION BREAK GPRS
 0003B0                             1955  1          =CLWACCT    DS    C'GG.UUU'               USER ACCOUNT
                                    1956  1          =CLWUSER    EQU   CLWACCT+3,3,C'C'        USER
                                    1957  1          =CLWGROUP   EQU   CLWACCT,2,C'C'          GROUP
 0003B8                             1958  1          =CLWIDT     DS    A                       ADDRESS OF THE IDTS
 0003BC                             1959  1          =CLWNIDT    DS    H                       NUMBER OF IDTS
 0003C0                             1960  1          =           DS    0F                      START OF SAVE AREA
 0003C0                             1961  1          =CLWSVA     DS    XL600                   SAVE STACK
                                    1962  1          =CLWSVAEN   EQU   *-4,4,C'X'              LAST WORD OF THE STACK
 000618                00618 00618  1963             =         END   ,
1VCLP     ORVYL'S COMMAND LANGUAGE PROCESSOR                                                                                Page   16
0Loc    Object Code    Addr1 Addr2  Stmt Lv Lineno    Source Statement           (Hibal 5, Asmedit 3.3)  HLASM R4.0  2004/03/22 09.46
+___    ______ ____    _____ _____  ____ __ ______    ______ _________
0                                   1973      73.     *         COPY  IDT                 (For TEST CLP initialization)
1VCLP     ORVYL'S COMMAND LANGUAGE PROCESSOR                                                                                Page   17
0D-Loc  Object Code    Addr1 Addr2  Stmt Lv Lineno    Source Statement           (Hibal 5, Asmedit 3.3)  HLASM R4.0  2004/03/22 09.46
+_____  ______ ____    _____ _____  ____ __ ______    ______ _________
0000000                00000 000CC  1975      75.     KWRD     DSECT
                                    1976      76.              KWREC ,
                                    1977             +*
                                    1978             +*       Keyword Record
                                    1979             +*
 000000                             1980    01-KWREC +KWRSTART   DS  0F
 000000 E4E4E4                      1981    01-KWREC +KWRUSER    DC  C'UUU'              User
 000003 C7C7                        1982    01-KWREC +KWRGRP     DC  C'GG'               Group
                                    1983             +
                                    1984    01-KWREC +KWRDATA    EQU *
 000005 000000                      1985    01-KWREC +           DC  XL3'00'             Reserved
 000008 0000                        1986    01-KWREC +KWRRJE     DC  H'0'                No. of jobs run
 00000A 0000                        1987    01-KWREC +KWRSPUSD   DC  H'0'                Disk space used
 00000C FFFF                        1988    01-KWREC +KWRSPMAX   DC  H'-1'               Disk space allowed
 00000E 80                          1989    01-KWREC +KWRIFL     DC  X'80'               Initials flags
 00000F 98                          1990    01-KWREC +KWRAFL     DC  X'98'               Account flags
 000010 6F6F6F                      1991    01-KWREC +KWRBIN     DC  C'???'              Bin
 000013 00                          1992    01-KWREC +KWRWRCT    DC  X'00'               Record rewrite count
 000014 000000                      1993    01-KWREC +KWRBGT     DC  XL3'00'             Account budget
 000017 000000                      1994    01-KWREC +KWRBAL     DC  XL3'00'             Account year-to-date balance
 00001A 0000                        1995    01-KWREC +KWRLCP     DC  H'0'                Punch card limit -- in hundreds
 00001C 0000                        1996    01-KWREC +KWRLLC     DC  H'0'                Line count limit -- in thousands
 00001E 0000                        1997    01-KWREC +KWRLET     DC  H'0'                Execution time limit in seconds
                                    1998             +
 000020 84                          1999    01-KWREC +KWRBFL     DC  X'84'               Batch flags
                                    2000    01-KWREC +KWRBFVAL   EQU X'80'               - Valid for batch
                                    2001    01-KWREC +KWRBFIN    EQU X'40'               - No input setups allowed
                                    2002    01-KWREC +KWRBFOUT   EQU X'20'               - No output setups allowed
                                    2003    01-KWREC +KWRBFNON   EQU X'10'               - No non-standard priority allowed
                                    2004    01-KWREC +KWRBFE     EQU X'08'               - Class E only
                                    2005    01-KWREC +KWRBFP     EQU X'04'               - Class P permitted
                                    2006             +
 000021 D3D6C3C1D3404040            2007    01-KWREC +KWRDEST    DC  CL8'LOCAL'          Destination for output data
 000029 F1F1F8F1                    2008    01-KWREC +KWRFORM    DC  CL4'1181'           Default forms code
 00002D 0000000000000000            2009    01-KWREC +           DC  XL8'00'             Reserved
                                    2010             +
 000035 80                          2011    01-KWREC +KWRMACH    DC  X'80'               Machine access flags
                                    2012    01-KWREC +KWRFALP    EQU X'80'               - ALPHA access allowed
                                    2013    01-KWREC +KWRFRLG    EQU X'01'               - RLG   access allowed
                                    2014             +
 000036 00                          2015    01-KWREC +KWRSFL     DC  X'00'               Status flags
                                    2016    01-KWREC +KWRSFKEP   EQU X'80'               - Kept mail waiting
                                    2017    01-KWREC +KWRSFMAI   EQU X'40'               - New mail waiting
                                    2018             +
 000037 02                          2019    01-KWREC +KWRJFL     DC  X'02'               Job flags
                                    2020    01-KWREC +KWRJFNUM   EQU X'80'               - Numbered job submission
                                    2021    01-KWREC +KWRJFFOR   EQU X'40'               - Force user id as job prefix
                                    2022    01-KWREC +KWRJFATH   EQU X'07'               - Job auth, as follows...
                                    2023    01-KWREC +KWRJFPUB   EQU X'04'                  Auth=public
                                    2024    01-KWREC +KWRJFCOM   EQU X'02'                  Auth=community
                                    2025    01-KWREC +KWRJFGRP   EQU X'01'                  Auth=group
                                    2026             +
 000038 4040404040404040            2027    01-KWREC +KWRJPFX    DC  CL8' '              Users job prefix
 000040 0000                        2028    01-KWREC +KWRJNO     DC  H'0'                Users job count
                                    2029             +
 000042 0000                        2030    01-KWREC +KWRHRSAL   DC  H'0'                Connect hrs allowed (hrs/10)
1VCLP     ORVYL'S COMMAND LANGUAGE PROCESSOR                                                                                Page   18
0D-Loc  Object Code    Addr1 Addr2  Stmt Lv Lineno    Source Statement           (Hibal 5, Asmedit 3.3)  HLASM R4.0  2004/03/22 09.46
+_____  ______ ____    _____ _____  ____ __ ______    ______ _________
0000044 0000                        2031    01-KWREC +KWRACCH    DC  H'0'                Connect hrs accounted (hrs/10)
 000046 00                          2032    01-KWREC +KWRMINWT   DC  X'00'               Minimum delay between sessions
 000047 00                          2033    01-KWREC +KWRMAXSL   DC  X'00'               Maximum session length
                                    2034             +
 000048 00                          2035    01-KWREC +KWRTACF    DC  X'00'               Type/account class flags
                                    2036    01-KWREC +KWRTNST    EQU X'80'               - No logoff statistics
                                    2037    01-KWREC +KWRTNTM    EQU X'40'               - No session timeouts
                                    2038    01-KWREC +KWRTARPA   EQU X'20'               - Arpanet access is allowed
                                    2039    01-KWREC +KWRTRLG    EQU X'08'               - Use ORVYLRLG
                                    2040    01-KWREC +KWRTSTUD   EQU X'04'               - Student account
                                    2041    01-KWREC +KWRTNDAY   EQU X'02'               - No daytime access allowed
                                    2042    01-KWREC +KWRTLCIP   EQU X'01'               - LCIP
                                    2043             +
 000049 3C                          2044    01-KWREC +KWRTFL     DC  X'3C'               Timesharing flags
                                    2045    01-KWREC +KWRTFAC    EQU X'80'               - Automatic call of named program
                                    2046    01-KWREC +KWRTFMP    EQU X'40'               - Named program is mandatory
                                    2047    01-KWREC +KWRTFAN    EQU X'20'               - Auto news at logon
                                    2048    01-KWREC +KWRTFAM    EQU X'10'               - Auto mail at logon
                                    2049    01-KWREC +KWRTFAR    EQU X'08'               - Auto recovery at logon
                                    2050    01-KWREC +KWRTFAE    EQU X'04'               - Auto exec at logon
                                    2051    01-KWREC +KWRTFAL    EQU X'02'               - Auto ltime at logon
                                    2052    01-KWREC +KWRTFAK    EQU X'01'               - Auto ktime at logon
                                    2053             +
 00004A 0000000000                  2054    01-KWREC +KWRVLIB    DC  XL5'00'             Program library (gguuu)
 00004F 0000000000000000            2055    01-KWREC +KWRVPGM    DC  XL8'00'             Program name
                                    2056             +
 000057 01                          2057    01-KWREC +KWROFL     DC  X'01'               Online flags
                                    2058    01-KWREC +KWRFMULT   EQU X'80'               - Multiple sessions allowed
                                    2059    01-KWREC +KWRFMAIL   EQU X'40'               - Mail is allowed
                                    2060    01-KWREC +KWRFSEC    EQU X'20'               - Secure session (EXEC SECURE)
                                    2061             +
 000058 00000000                    2062    01-KWREC +KWRLTIM    DC  XL4'00'             Last logoff time(high 32 clck bits)
 00005C 00000000                    2063    01-KWREC +KWRKTIM    DC  XL4'00'             Last time keyword changed (" ")
                                    2064             +
 000060 00                          2065    01-KWREC +KWRAC      DC  X'00'               Accounting flags
                                    2066             +
 000061 40                          2067    01-KWREC +KWRSOF     DC  C' '                Source of funds code
                                    2068    01-KWREC +KWRSSUS    EQU C'0'                - Suspense (?)
                                    2069    01-KWREC +KWRSRLN    EQU C'1'                - RLIN
                                    2070    01-KWREC +KWRSNS     EQU C'2'                - Non-stanford funded (see ar)
                                    2071    01-KWREC +KWRSGOV    EQU C'3'                - Government sponsered
                                    2072    01-KWREC +KWRSOTH    EQU C'4'                - Other university
                                    2073    01-KWREC +KWRSUSR    EQU C'5'                - Unsponsered research
                                    2074    01-KWREC +KWRSINS    EQU C'6'                - Instructional comp.
                                    2075    01-KWREC +KWRSHOS    EQU C'7'                - Hospital
                                    2076    01-KWREC +KWRSSCP    EQU C'8'                - CIT/overhead
                                    2077    01-KWREC +KWRSADM    EQU C'9'                - University admin.
                                    2078    01-KWREC +KWRSINT    EQU C'A'                - Internal systems
                                    2079             +
 000062 40                          2080    01-KWREC +KWRAR      DC  C' '                Accounts receivable code (if SOF=2)
                                    2081    01-KWREC +KWRASTAN   EQU C'0'                - Stanford user
                                    2082    01-KWREC +KWRAOTHC   EQU C'1'                - Other college
                                    2083    01-KWREC +KWRAOTHE   EQU C'2'                - Other (error)
                                    2084    01-KWREC +KWRANPRO   EQU C'3'                - Non-profit
                                    2085    01-KWREC +KWRAFED    EQU C'4'                - Federal
                                    2086    01-KWREC +KWRAPRO    EQU C'5'                - For profit
1VCLP     ORVYL'S COMMAND LANGUAGE PROCESSOR                                                                                Page   19
0D-Loc  Object Code    Addr1 Addr2  Stmt Lv Lineno    Source Statement           (Hibal 5, Asmedit 3.3)  HLASM R4.0  2004/03/22 09.46
+_____  ______ ____    _____ _____  ____ __ ______    ______ _________
0                                   2087             +
 000063 40                          2088    01-KWREC +KWRSTAT    DC  C' '                Account status code
                                    2089    01-KWREC +KWRSEXP    EQU C'1'                - Expired
                                    2090    01-KWREC +KWRSCLS    EQU C'2'                - Closed
                                    2091    01-KWREC +KWRSOVB    EQU C'3'                - Over-budget
                                    2092    01-KWREC +KWRSUHL    EQU C'4'                - User hold
                                    2093             +
 000064 10                          2094    01-KWREC +KWRTFL2    DC  X'10'               Timesharing flags  (second byte)
                                    2095    01-KWREC +KWRTFAPE   EQU X'80'               - Auto pubexec at logon
                                    2096    01-KWREC +KWRTFML    EQU X'40'               - Ok to receive mail
                                    2097    01-KWREC +KWRTFAT    EQU X'20'               - Auto term type prompt at logon
                                    2098    01-KWREC +KWRTFANE   EQU X'10'               - Auto newexec at logon
                                    2099             +
 000065 00                          2100    01-KWREC +           DC  X'00'               Reserved
                                    2101             +
 000066 0000                        2102    01-KWREC +KWRHRSFR   DC  H'0'                Free connect hrs to date (hrs/10)
 000068 0000                        2103    01-KWREC +KWRHRSUS   DC  H'0'                Hours used to date (hrs/10)
 00006A FFFF                        2104    01-KWREC +KWRDSKMX   DC  H'-1'               Disk kilobytes allowed
 00006C 00000000                    2105    01-KWREC +KWRDSKUS   DC  F'0'                Disk bytes used
                                    2106             +
 000070 0000000000000000            2107    01-KWREC +KWRPASS    DC  XL8'00'             Password
 000078 0000000000000000            2108    01-KWREC +KWRNAME    DC  XL20'00'            User's name
 00008C 000000000000                2109    01-KWREC +KWRVOL     DC  XL6'00'             User's permanent volume
                                    2110             +
 000092 0000000000000000            2111    01-KWREC +KWRMTXT    DC  XL20'00'            Mail information text
 0000A6 000000000000                2112    01-KWREC +KWRMACC    DC  XL6'00'             Mail forwaring account
                                    2113             +
 0000AC 000000                      2114    01-KWREC +           DC  XL3'00'             Reserved
                                    2115             +
 0000AF 00                          2116    01-KWREC +KWRXCNT    DC  X'00'               Unsuccessful logon attempt count
 0000B0 00000000                    2117    01-KWREC +KWRXTIM    DC  XL4'00'             Last unsuccessful logon time
                                    2118             +
 0000B4 00000000                    2119    01-KWREC +KWRNEWDT   DC  F'0'                Date news was last read
                                    2120             +
 0000B8 00000000                    2121    01-KWREC +KWRCDATE   DC  F'0'                Date of charges update
 0000BC 000000                      2122    01-KWREC +KWRMTD     DC  XL3'0'              Account month-to-date balance
 0000BF 000000                      2123    01-KWREC +KWRPBAL    DC  XL3'0'              Account previous ytd charges
                                    2124             +
 0000C2 0000000000000000            2125    01-KWREC +         DC    XL8'00'             Reserved
                                    2126             +
                                    2127    01-KWREC +KWREND     EQU *                   End of physical record
                                    2128             +
 0000CA 00                          2129    01-KWREC +KWRHFL     DC  X'00'               Status flags
                                    2130    01-KWREC +KWRHFCK    EQU X'80'               - Keyword checking in effect
                                    2131    01-KWREC +KWRHFUOK   EQU X'40'         update successful--cannot occur with
                                    2132             +*                            kwrhferr or kwrhfful.  if kwrhfuok,
                                    2133             +*                            err, and ful are all 0, the record has
                                    2134             +*                            been changed since it was read.
                                    2135    01-KWREC +KWRHFERR   EQU X'20'               - I/O error reading keyword file
                                    2136    01-KWREC +KWRHFFUL   EQU X'10'               - No room to add user
                                    2137             +
 0000CC                             2138    01-KWREC +         DS    0F
                                    2139    01-KWREC +KWRSIZE    EQU *-KWRSTART
                                    2140             +*
                                    2141             +*  Operation codes.
                                    2142             +*
1VCLP     ORVYL'S COMMAND LANGUAGE PROCESSOR                                                                                Page   20
0D-Loc  Object Code    Addr1 Addr2  Stmt Lv Lineno    Source Statement           (Hibal 5, Asmedit 3.3)  HLASM R4.0  2004/03/22 09.46
+_____  ______ ____    _____ _____  ____ __ ______    ______ _________
0                                   2143    01-KWREC +KWRCWR      EQU  X'80'             Write
                                    2144    01-KWREC +KWRCRD      EQU  X'40'             Read
                                    2145    01-KWREC +KWRCDIE     EQU  X'FF'             Shutdown keyword routines
                                    2146             +*
                                    2147             +*  Privilege flags.
                                    2148             +*
                                    2149    01-KWREC +KWRIFVAL    EQU  X'80'             - Valid user
                                    2150    01-KWREC +KWRIFAPR    EQU  X'40'             - ACCT privs
                                    2151    01-KWREC +KWRIFSPR    EQU  X'20'             - SYS privs
                                    2152    01-KWREC +KWRIFOPR    EQU  X'10'             - OPR privs
                                    2153    01-KWREC +KWRIFSBM    EQU  X'08'             - SUBMIT priv
                                    2154    01-KWREC +KWRIFSUB    EQU  X'04'             - SUBADMIN privs
                                    2155    01-KWREC +KWRIFADM    EQU  X'02'             - ADMIN privs
                                    2156    01-KWREC +KWRIFPC     EQU  X'01'             - PC privs
                                    2157             +*
                                    2158             +*  Account flags.
                                    2159             +*
                                    2160    01-KWREC +KWRAFVAL    EQU  X'80'             - Valid account
                                    2161    01-KWREC +KWRAFDOK    EQU  X'10'             - Disk usage permitted
                                    2162    01-KWREC +KWRAFTOK    EQU  X'08'             - Terminal usage permitted
                                    2163    01-KWREC +KWRAFASV    EQU  X'01'             - Active file saved last session
                                    2164      77.
                                    2165      78.     KWR      EQU   KWRSTART,KWRVPGM+8-KWRSTART
1VCLP     ORVYL'S COMMAND LANGUAGE PROCESSOR                                                                                Page   21
0D-Loc  Object Code    Addr1 Addr2  Stmt Lv Lineno    Source Statement           (Hibal 5, Asmedit 3.3)  HLASM R4.0  2004/03/22 09.46
+_____  ______ ____    _____ _____  ____ __ ______    ______ _________
0000000                00000 02080  2168      81.     VCLP     CSECT ,
 USING  SCP,R11                     2170      82.              USING SCP,SCPR                ##
 USING  CLW,R10                     2179      83.              USING CLW,CLWR
                                    2188      84.     *  ENTRY POINT
                                    2189      85.     *
                                    2190      86.     * CLP HAS TWO DISTINCT PARTS:
                                    2191      87.     *        1) THE SESSION BREAK ROUTINES WHICH ARE ENTERED FOR
                                    2192      88.     *            A) LOGON/LOGOFF PROCESSING
                                    2193      89.     *            B) ATTENTION, CLP TIMER AND PROGRAM INTERRUPTS
                                    2194      90.     *            C) PANIC,PAUSE,EXIT,AND COMMAND SVCS FROM THE USER PROGRAM
                                    2195      91.     *
                                    2196      92.     *        2) THE BASIC COMMAND LOOP WHICH ISSUES A READ MODE=EDIT, SCANS
                                    2197      93.     *           THE COMMAND AND RETURNS TO READ THE NEXT COMMAND.
                                    2198      94.     *
                                    2199      95.     *        NOTES ON ADDRESSABILITY: THE SESSION BREAK ROUTINES EITHER
                                    2200      96.     *              RETURN TO THE USER PROGRAM OR BRANCH TO THE COMMAND
                                    2201      97.     *              LOOP. WHEN THE COMMAND LOOP IS ENTERED IT SETS UP ITS
                                    2202      98.     *              OWN BASE REGISTER AND NEVER BRANCHES INTO THE
                                    2203      99.     *              SESSION BREAK ROUTINES.
                                    2204     100.     *
                                    2205     101.              ENTRY STARTUP
 000000 0D70                        2206     102.     STARTUP  BASE  BR
 USING  *,R7
                                    2220     103.     ENTBASE  EQU   *
 000002 47F0 701A            0001C  2221     104.              B     STARTCLP
                                    2222     105.              IDENT 00
                                    2225             +
                                    2226    01-IDENT +         ENTRY VCLP00
                                    2227             +
 000006 14E5C3D3D7F0F06B            2228    01-IDENT +VCLP00   DC    AL1(20),C'VCLP00,22MAR04,09:46'
                                    2229             +*
 00001B 00
 00001C 18BE                        2231     106.     STARTCLP LR    SCPR,R14                GET THE SCP ADDRESS
 00001E 58A0 B1B8            001B8  2232     107.              L     CLWR,SCPCLW             GET ADDRESS OF THE CLW
 000022 41D0 A3C0            003C0  2233     108.              LA    R13,CLWSVA              SAVE AREA
 000026 04D0                        2234     109.              SPM   R13                     ZOT PROGRAM MASK
 000028 1221                        2235     110.              LTR   SR,R1                   SR - ENTRY CODE
 00002A 47D0 7030            00032  2236     111.              IF    P,'LCALL INITCLP'       DO ENTRY INIT AS REQUIRED
 00002E 4D90 7072            00074  2249             +
 000032 7034           00032 0002C  2254     112.              ELSEIF (MINUS,AND,(CLWTIVAL,NE,0)),'LCALL INITCLP'
 000032 47F0 7046            00048  2260             +
 000036 47B0 7046            00048  2271             +
 00003A D501 7D62 A232 00D64 00232  2285             +
 000040 4780 7046            00048  2286             +
 000044 4D90 7072            00074  2293             +
 000048 47F2 704E            00050  2298     113.              B     *+8(SR)                 BR ON ENTRY CODE
 00004C 47F0 7C6A            00C6C  2299     114.              B     TIMER                   -4
 000050 47F0 7104            00106  2300     115.              B     LOGON                   0
 000054 47F0 7272            00274  2301     116.              B     LOGOFF                  4
 000058 47F0 72A8            002AA  2302     117.              B     PANIC                   8
 00005C 47F0 76FA            006FC  2303     118.              B     PAUSEXIT                12
 000060 47F0 7BE6            00BE8  2304     119.              B     ATTEN                   16
 000064 47F0 7C9C            00C9E  2305     120.              B     EXITSVC                 20
 000068 47F0 7CA4            00CA6  2306     121.              B     COMMAND                 24
 00006C 47F0 76FA            006FC  2307     122.              B     PAUSEXIT                28
 000070 47F0 76F6            006F8  2308     123.              B     QPAUSE                  32
1VCLP     (VCLP00) (09:46) (22MAR04) ORVYL'S COMMAND LANGUAGE PROCESSOR                                                     Page   22
0Current Usings:  (*,R7) (CLW,R10) (SCP,R11)
0Loc    Object Code    Addr1 Addr2  Stmt Lv Lineno    Source Statement           (Hibal 5, Asmedit 3.3)  HLASM R4.0  2004/03/22 09.46
+___    ______ ____    _____ _____  ____ __ ______    ______ _________
0                                   2310     125.     *
                                    2311     126.     *  CLP ENTRY INITIALIZATION CODE,
                                    2312     127.     *           (DON'T DIDDLE SR (R2))
 000074                             2313     128.     INITCLP  LABEL ,                       SAVE VARIOUS USER INFO
 000074 90F0 A264            00264  2315     129.              STM   R15,0,CLWPER            SAVE PER,MON INFO
 000078 4100 0001/0AF2       00001  2316     130.              WAIT  LA:1                    WAIT FOR TERMINAL TO BE IDLE
 00007E 9180 B200      00200        2324     131.              IF    SCPFERR,BEGIN           IN CLP PREVIOUSLY
 000082 47E0 7092            00094  2334             +
 000086 4100 0001            00001  2339  1  132.                CONTROL LA:1,30,0             RESET MILTEN MODES
 00008A 4110 001E/1BFF       0001E  2351  1          +
 000090 0AF5                        2360  1          +
 000092 0AF2                        2362  1  133.                WAIT  (0)
 000094 7096           00094 00084  2370     134.              END   ELSE,BEGIN
 000094 47F0 70DE            000E0  2379             +
 000098 4100 000C            0000C  2385  1  135.                VSET  12,15                   SET PRIORITY
 00009C 4110 000F/0AFB       0000F  2399  1          +
 0000A2 42F0 A214            00214  2409  1  136.                STC   R15,CLWDSP              SAVE PREVIOUS
 0000A6 4100 0068/0AED       00068  2410  1  137.                CLPSERV TERMPUSH
 0000AC 9200 A207      00207        2419  1  138.                CLEAR CLWFL
                                    2426  1  139.
 0000B0 4100 0001            00001  2427  1  140.                CONTROL LA:1,31               SENSE MILTEN MODE
 0000B4 4110 001F/0AF5       0001F  2439  1          +
 0000BA 0AF2                        2449  1  141.                WAIT  (0)
 0000BC 5010 A224            00224  2457  1  142.                ST    R1,CLWMLMOD             SAVE
 0000C0 1200/4780 70D2       000D4  2458  1  143.                IF    (R0,NZ),BEGIN
 0000C6 4100 0001            00001  2472  2  144.                  CONTROL LA:1,30,0             SET NEW MILTEN MODE WORD
 0000CA 4110 001E/1BFF       0001E  2484  2          +
 0000D0 0AF5                        2493  2          +
 0000D2 0AF2                        2495  2  145.                  WAIT  (0)
 0000D4                             2503  1  146.                END
                                    2507  1  147.
 0000D4 4110 000D/0AF5       0000D  2508  1  148.                CONTROL (0),13                SENSE MODE WORD
 0000DA 0AF2                        2530  1  149.                WAIT  (0)
 0000DC 5010 A228            00228  2538  1  150.                ST    R1,CLWWLMOD             SAVED WYLBUR MODE WORD
 0000E0                             2539     151.              END   ,
 0000E0 1BFF                        2543     152.              CLEAR R15
 0000E2 59F0 A228            00228  2547     153.              IF    (R15,NE,CLWWLMOD),BEGIN      ANY WYLBUR MODES SET
 0000E6 4780 70FC            000FE  2559             +
 0000EA 9120 A22B      0022B        2564  1  154.                TM    CLWWLMOD+3,WSSBRK       ALLOW CHANGE DURING SB?
 0000EE 47E0 70F4            000F6  2565  1  155.                IF    ONE,'LA R15,WPRHBT+WNNUMB+WNALGN' BLOCK CHANGES
 0000F2 41F0 001C            0001C  2577  1          +
 0000F6 4110 000C/0AF5       0000C  2582  1  156.                CONTROL (0),12,(15)           SET APPROPRIATE WYLBUR MODE
 0000FC 0AF2                        2606  1  157.                WAIT  (0)
 0000FE                             2614     158.              END
                                    2618     159.     *
                                    2619     160.     * SAVE INFO FROM THE SCP
                                    2620     161.     *
 0000FE D247 A368 B0B8 00368 000B8  2621     162.              MVC   CLWSBPSW(72),SCPSBPSW
                                    2622     163.
 000104 07F9                        2623     164.              BR    RAR                DONE WITH CLP INIT
1VCLP     (VCLP00) (09:46) (22MAR04) ORVYL'S COMMAND LANGUAGE PROCESSOR                                                     Page   23
0Current Usings:  (*,R7) (CLW,R10) (SCP,R11)
0Loc    Object Code    Addr1 Addr2  Stmt Lv Lineno    Source Statement           (Hibal 5, Asmedit 3.3)  HLASM R4.0  2004/03/22 09.46
+___    ______ ____    _____ _____  ____ __ ______    ______ _________
0                                   2625     166.     *
                                    2626     167.     *  PROCESS LOGON
                                    2627     168.     *
 000106                             2628     169.     LOGON    DS    0H
 000106 9680 B200      00200        2629     170.              SET   SCPFERR                 SET CLPERR FLAG
                                    2635     171.     *
                                    2636     172.     *  Set up CLW
                                    2637     173.     *
 00010A 50B0 A000            00000  2638     174.              ST    SCPR,CLWSCP             SCP POINTER
 00010E D203 A614 7D96 00614 00D98  2639     175.              MVC   CLWSVAEN,=X'FEDCBA98'   SO WE'LL KNOW IF IT OVERFLOWS
 000114 920F A214      00214        2640     176.              MVI   CLWDSP,15               DISPATCHING PRIORITY
 000118 9260 A228      00228        2641     177.              MVI   CLWWLMOD,C'-'           DEFAULT PROMPT FOR READ EDIT
 00011C D201 A210 7E02 00210 00E04  2642     178.              MVC   CLWPSVC,=X'0AFF'        PAUSE SVC
 000122 D201 A212 7E04 00212 00E06  2643     179.              MVC   CLWCSVC,=X'0AFE'        COMMAND SVC
 000128 D201 A20E 7E06 0020E 00E08  2644     180.              MVC   CLWEXSVC,=X'0AFD'       EXIT SVC
                                    2645     181.     *
                                    2646     182.     *  SET THE CLP RESERVE/ALLOCATED CORE STATUS
                                    2647     183.     *
 00012E D203 A01C B1F4 0001C 001F4  2648     184.              MVC   CLWUPST,SCPRRSEG        COPY ADDRESS SPACE START
 000134 4810 B1FA            001FA  2649     185.              LH    R1,SCPUNRSV             MAXIMUM NUMBER OF PAGES
 000138 5010 A020            00020  2650     186.              ST    R1,CLWUPML              IS REGION MAXIMUM
                                    2651     187.     *
                                    2652     188.     *  GET US ALL LOGGED ON
                                    2653     189.     *
 00013C 4100 0001/1B11       00001  2654     190.              ATTACH 1,0                    ATTACH MASTER TERMINAL
 000142 1BEE/0AF9                   2672             +
 000146 0AF2                        2676     191.              WAIT  (0)
 000148 5890 7D9A/0D99       00D9C  2684     192.              ACALL CKLOGON                 CHECK THE LOGON
                                    2688     193.     *
                                    2689     194.     * INITIALIZE THE REST OF THE CLW
                                    2690     195.     *
 00014E 4110 7E36            00E38  2691     196.              LS    R1,R15,'  CLP'          CLP'S NAME
 000152 41F0 0005            00005  2693             +
 000156 4100 0018/0AFB       00018  2694     197.              VSET  24,(R1),(R15)           SET IT
 00015C D205 A3B0 B1AA 003B0 001AA  2716     198.              MVC   CLWACCT,SCPACCT         SAVE OUR ACCT IN CLW
 000162                             2717     199.              IF    ((CLWGROUP,EQ,'GG'),OR,(CLWGROUP,EQ,'GQ')),BEGIN
 000162 D501 7E08 A3B0 00E0A 003B0  2730             +
 000168 4780 7174            00176  2733             +
 00016C D501 7E0A A3B0 00E0C 003B0  2744             +
 000172 4770 722A            0022C  2745             +
 000176                             2750  1  200.                IF    (CLWUSER,EQ,'RAL'),'SET  CLWSSP'   Rich Levitt
 000176 D502 7E3B A3B3 00E3D 003B3  2761  1          +
 00017C 4770 7182            00184  2762  1          +
 000180 9640 A20C      0020C        2773  1          +
 000184                             2778  1  201.                IF    (CLWUSER,EQ,'MPD'),'SET  CLWSSP'   Mike Durket
 000184 D502 7E3E A3B3 00E40 003B3  2789  1          +
 00018A 4770 7190            00192  2790  1          +
 00018E 9640 A20C      0020C        2801  1          +
 000192                             2806  1  202.                IF    (CLWUSER,EQ,'AOS'),'SET  CLWSSP'   Sal Serafica
 000192 D502 7E41 A3B3 00E43 003B3  2817  1          +
 000198 4770 719E            001A0  2818  1          +
 00019C 9640 A20C      0020C        2829  1          +
 0001A0                             2834  1  203.                IF    (CLWUSER,EQ,'ORV'),'SET  CLWSSP'   Orvyl Maintenance
 0001A0 D502 7E44 A3B3 00E46 003B3  2845  1          +
1VCLP     (VCLP00) (09:46) (22MAR04) ORVYL'S COMMAND LANGUAGE PROCESSOR                                                     Page   24
0Current Usings:  (*,R7) (CLW,R10) (SCP,R11)
0Loc    Object Code    Addr1 Addr2  Stmt Lv Lineno    Source Statement           (Hibal 5, Asmedit 3.3)  HLASM R4.0  2004/03/22 09.46
+___    ______ ____    _____ _____  ____ __ ______    ______ _________
00001A6 4770 71AC            001AE  2846  1          +
 0001AA 9640 A20C      0020C        2857  1          +
 0001AE                             2862  1  204.                IF    (CLWUSER,EQ,'DFF'),'SET  CLWSSP'   Doug Fletcher
 0001AE D502 7E47 A3B3 00E49 003B3  2873  1          +
 0001B4 4770 71BA            001BC  2874  1          +
 0001B8 9640 A20C      0020C        2885  1          +
 0001BC                             2890  1  205.                IF    (CLWUSER,EQ,'SRS'),'SET  CLWSSP'   Sal Serafica
 0001BC D502 7E4A A3B3 00E4C 003B3  2901  1          +
 0001C2 4770 71C8            001CA  2902  1          +
 0001C6 9640 A20C      0020C        2913  1          +
 0001CA                             2918  1  206.                IF    (CLWUSER,EQ,'JWS'),'SET  CLWSSP'   Jim Stosick
 0001CA D502 7E4D A3B3 00E4F 003B3  2929  1          +
 0001D0 4770 71D6            001D8  2930  1          +
 0001D4 9640 A20C      0020C        2941  1          +
 0001D8                             2946  1  207.                IF    (CLWUSER,EQ,'PJG'),'SET  CLWSSP'   Parker Gillespie
 0001D8 D502 7E50 A3B3 00E52 003B3  2957  1          +
 0001DE 4770 71E4            001E6  2958  1          +
 0001E2 9640 A20C      0020C        2969  1          +
 0001E6                             2974  1  208.                IF    (CLWUSER,EQ,'RLG'),'SET  CLWSSP'   Dick Guertin
 0001E6 D502 7E53 A3B3 00E55 003B3  2985  1          +
 0001EC 4770 71F2            001F4  2986  1          +
 0001F0 9640 A20C      0020C        2997  1          +
 0001F4                             3002  1  209.                IF    (CLWUSER,EQ,'SLP'),'SET  CLWSSP'   Susan Plass
 0001F4 D502 7E56 A3B3 00E58 003B3  3013  1          +
 0001FA 4770 7200            00202  3014  1          +
 0001FE 9640 A20C      0020C        3025  1          +
 000202                             3030  1  210.                IF    (CLWUSER,EQ,'WCK'),'SET  CLWSSP'   Bill Kiefer
 000202 D502 7E59 A3B3 00E5B 003B3  3041  1          +
 000208 4770 720E            00210  3042  1          +
 00020C 9640 A20C      0020C        3053  1          +
 000210                             3058  1  211.                IF    (CLWUSER,EQ,'XXX'),'SET  CLWSSP'   Dummy for patching
 000210 D502 7E5C A3B3 00E5E 003B3  3069  1          +
 000216 4770 721C            0021E  3070  1          +
 00021A 9640 A20C      0020C        3081  1          +
 00021E                             3086  1  212.                IF    (CLWUSER,EQ,'ZZZ'),'SET  CLWSSP'   Dummy for patching
 00021E D502 7E5F A3B3 00E61 003B3  3097  1          +
 000224 4770 722A            0022C  3098  1          +
 000228 9640 A20C      0020C        3109  1          +
 00022C                             3114     213.              END   ,
                                    3118     214.     *
                                    3119     215.     * READ THE KEYWORD FILE TO GET THE ORVYL AUTO CALL AND
                                    3120     216.     * MANDATORY CALL INFORMATION.
                                    3121     217.     *
 00022C 47F0 726A            0026C  3122     218.              B     LOGONEND                **** SKIP KEYWORD ACCESS ****
 000230 4100 0008/1B11       00008  3123     219.              ATTACH 8                      ATTACH THE KEYWORD FILE
 000236 1BEE/0AF9                   3141             +
 00023A 4770 726A            0026C  3145     220.              IF    NZ,LOGONEND             GIVE UP IF ERROR
 00023E 0AF2                        3159     221.              WAIT  (0)                     WAIT
 000240 186D/41D0 D058       00058  3167     222.              VPUSH ,,L'KWR,PTR=PR          GET A TEMPORARY AREA
 USING  KWR,R6                      3170     223.              WITH  (KWR,PR),BEGIN
 000246 1300/1816                   3184  1  224.                READ  (0),KWR,L'KWR,CLWACCT,MODE=WAIT
 00024A 41F0 0057            00057  3202  1          +
 00024E 41E0 A3B0/0AF7       003B0  3209  1          +
 000254 4770 7266            00268  3213  1  225.                IF    NZ,LOKEYEND             GIVE UP IF ERROR
1VCLP     (VCLP00) (09:46) (22MAR04) ORVYL'S COMMAND LANGUAGE PROCESSOR                                                     Page   25
0Current Usings:  (KWR,R6) (*,R7) (CLW,R10) (SCP,R11)
0Loc    Object Code    Addr1 Addr2  Stmt Lv Lineno    Source Statement           (Hibal 5, Asmedit 3.3)  HLASM R4.0  2004/03/22 09.46
+___    ______ ____    _____ _____  ____ __ ______    ______ _________
0000258 0AF2                        3227  1  226.                WAIT  (0)
 00025A 4770 7266            00268  3235  1  227.                IF    NZ,LOKEYEND
 00025E D215 A2AD 6049 002AD 00049  3249  1  228.                MVC   CLWKFL(KWRVPGM+16-KWRTFL),KWRTFL   SET INFO
 DROP   KWR,R6                      3250     229.              END   ,
 000264 4BD0 7E0C            00E0E  3258     230.              VPOP  ,,L'KWR
 000268 0AF8                        3260     231.     LOKEYEND DETACH (0)
 00026A 0AF2                        3269     232.              WAIT (0)
                                    3277     233.     *
                                    3278     234.     *  THE LOGON PROCESS IS COMPLETE
                                    3279     235.     *
 00026C 947F B200      00200        3280     236.     LOGONEND CLEAR SCPFERR                 CLEAR CLPERR FLAG
 000270 47F0 7EF8            00EFA  3288     237.              B     READ                    HEAD OFF TO THE CMD LOOP
1VCLP     (VCLP00) (09:46) (22MAR04) ORVYL'S COMMAND LANGUAGE PROCESSOR                                                     Page   26
0Current Usings:  (*,R7) (CLW,R10) (SCP,R11)
0Loc    Object Code    Addr1 Addr2  Stmt Lv Lineno    Source Statement           (Hibal 5, Asmedit 3.3)  HLASM R4.0  2004/03/22 09.46
+___    ______ ____    _____ _____  ____ __ ______    ______ _________
0                                   3290     239.     *  LOGOFF
                                    3291     240.     *
 000274                             3292     241.     LOGOFF   DS    0H
 000274 9680 B200      00200        3293     242.              SET   SCPFERR                 SET CLPERROR DURING LOGOUT
 000278 1B11/4100 0058       00058  3299     243.              CLPSERV PSEUDO,0              CLEAR PRIV BIT
 00027E 0AED                        3311             +
                                    3312     244.     *
                                    3313     245.     * HALT ALL ACTIVE DEVICES
                                    3314     246.     *
 000280 4110 0004            00004  3315     247.              LA    R1,4
 000284 5890 7D9E/0D99       00DA0  3316     248.              VCALL CLRIDTS
                                    3320     249.     *
                                    3321     250.     * CLEAR PROGRAM CORE
                                    3322     251.     *
 00028A 9180 A209      00209        3323     252.              IF    CLWPFSUP,BEGIN
 00028E 47E0 7298            0029A  3333             +
 000292 1BFF                        3338  1  253.                CLEAR R15                     CLEAR CORE (EXIT) CODE
 000294 5890 7DA2/0D99       00DA4  3342  1  254.                VCALL PROGRAMS                CLEAR USER MEMORY
 00029A                             3346     255.              END
                                    3350     256.     *
                                    3351     257.     * HALT AND DETACH ALL ACTIVE DEVICES
                                    3352     258.     *
 00029A 1B11                        3353     259.              CLEAR R1                      Do all DEVICES
 00029C 5890 7D9E/0D99       00DA0  3357     260.              VCALL CLRIDTS
                                    3361     261.     *
                                    3362     262.     * RELEASE ANY ENQUEUED RESOURCES
                                    3363     263.     *
 0002A2 5890 7DA6/0D99       00DA8  3364     264.              VCALL CLRENQS
                                    3368     265.     *
                                    3369     266.     * AND THEN EXIT
                                    3370     267.     *
 0002A8 0AFD                        3371     268.              XIT   ,                       EXIT FROM CLP IS LOGOFF
1VCLP     (VCLP00) (09:46) (22MAR04) ORVYL'S COMMAND LANGUAGE PROCESSOR                                                     Page   27
0Current Usings:  (*,R7) (CLW,R10) (SCP,R11)
0Loc    Object Code    Addr1 Addr2  Stmt Lv Lineno    Source Statement           (Hibal 5, Asmedit 3.3)  HLASM R4.0  2004/03/22 09.46
+___    ______ ____    _____ _____  ____ __ ______    ______ _________
0                                   3375     270.     *
                                    3376     271.     *  PROCESS PANIC
                                    3377     272.     *
 0002AA                             3378     273.     PANIC    DS    0H
 0002AA 4120 A368            00368  3379     274.              LA    SR,CLWSBPSW             USER ERROR PSW
 0002AE 9180 B200      00200        3380     275.              IF    SCPFERR,BEGIN          CLP ERROR
 0002B2 47E0 72D8            002DA  3390             +
 0002B6                             3395  1  276.                CLEAR (CLWOBUF,4)             KILL ANY OUTPUT BEFORE ERROR
 0002B6 D703 A118 A118 00118 00118  3401  1          +
 0002BC 94E7 A208      00208        3402  1  277.                CLEAR CLWFTRAP+CLWFOSC
 0002C0 94EF A209      00209        3412  1  278.                CLEAR CLWPFRUN
 0002C4 94FC A20A      0020A        3419  1  279.                CLEAR CLWMDUMP+CLWMDSUP
 0002C8 4110 7E62            00E64  3429  1  280.                VSEG  'CLP error, '
 0002CC 4100 000B            0000B  3433  1          +
 0002D0 5890 7DAA/0D99       00DAC  3436  1          +
 0002D6 4120 B100            00100  3438  1  281.                LA    SR,SCPCLPSW             CLP ERROR PSW
 0002DA                             3439     282.              END
 0002DA 9110 A208      00208        3443     283.              IF    CLWFTRAP,PAUSEXIT       PANIC ON TRAP
 0002DE 4710 76FA            006FC  3455             +
 0002E2 98EF 2000            00000  3461     284.              LM    R14,R15,@SR             ERROR PSW
 0002E6 88E0 000D            0000D  3462     285.              SRL   R14,8+6-1
 0002EA 54E0 7DAE            00DB0  3463     286.              N     R14,=A(6)
 0002EE 1FFE                        3464     287.              SLR   R15,R14
 0002F0 184F                        3465     288.              LR    QR,R15                  SAVE ADDR
 0002F2 4830 2000            00000  3466     289.              LH    TR,@SR                  PANIC CODE
 0002F6 1233                        3467     290.              LTR   TR,TR                   USER PANIC
 0002F8 47D0 7332            00334  3468     291.              BNP   PANREAL
 0002FC 9180 2001      00001        3469     292.              TM    @SR+1,X'80'             PER EVENT
 000300 47E0 7306            00308  3470     293.              IF    ON,'L  QR,CLWPER'
 000304 5840 A264            00264  3482             +
 000308 913F 2001      00001        3487     294.              TM    @SR+1,X'3F'             REAL PANIC?
 00030C 4770 7332            00334  3488     295.              BNZ   PANREAL                 YES
 000310 D603 A26C A26C 0026C 0026C  3489     296.              OC    CLWEVCNT,CLWEVCNT       ANY COUNT?
 000316 4780 7332            00334  3490     297.              BZ    PANREAL
 00031A 9104 A20A      0020A        3491     298.              IF    CLWMNOL,READ            DON'T PRINT EVENT
 00031E 4710 7EF8            00EFA  3503             +
 000322 4110 7E6D            00E6F  3509     299.              VSEG  'Interrupt at '
 000326 4100 000D            0000D  3513             +
 00032A 5890 7DAA/0D99       00DAC  3516             +
 000330 47F0 7336            00338  3518     300.              B     PANREA2
 000334 4D90 7D34            00D36  3519     301.     PANREAL  LCALL BREAK
 000338                             3521     302.     PANREA2  DS    0H
                                    3522     303.     *         VSEGLOC @QR
 000338 1814                        3523     304.              LR    R1,QR
 00033A 5410 7DB2            00DB4  3524     305.              N     R1,=X'0FFFFFFF'         TURN OFF ADDRESS MODE
 00033E 5890 7DB6/0D99       00DB8  3525     306.              VCALL VSEGLOC
 000344                             3529     307.     PANTRAP  DS    0H                      JOIN AFTER TRAP MESSAGE
 000344 1233/47D0 7366       00368  3530     308.              IF    (TR,NPOS),PANUSER       USER PANIC
 00034A 913F 2001      00001        3547     309.              TM    @SR+1,X'3F'             PROGRAM CHECK?
 00034E 4780 73FA            003FC  3548     310.              BZ    PANPE                   NO: CHECK FOR PROGRAM EVENT
 000352 4110 7D66            00D68  3549     311.              VSEG  ', System'
 000356 4100 0008            00008  3553             +
 00035A 5890 7DAA/0D99       00DAC  3556             +
 000360 5430 7DBA            00DBC  3558     312.              N     TR,=X'0000003F'         MASK OFF PER|MON
1VCLP     (VCLP00) (09:46) (22MAR04) ORVYL'S COMMAND LANGUAGE PROCESSOR                                                     Page   28
0Current Usings:  (*,R7) (CLW,R10) (SCP,R11)
0Loc    Object Code    Addr1 Addr2  Stmt Lv Lineno    Source Statement           (Hibal 5, Asmedit 3.3)  HLASM R4.0  2004/03/22 09.46
+___    ______ ____    _____ _____  ____ __ ______    ______ _________
0000364 47F0 7374            00376  3559     313.              B     PAN3SEG
 000368 4110 7E0E            00E10  3560     314.     PANUSER  VSEG  ', User'
 00036C 4100 0006            00006  3564             +
 000370 5890 7DAA/0D99       00DAC  3567             +
 000376 4110 7E14            00E16  3569     315.     PAN3SEG  VSEG  ' panic code = '
 00037A 4100 000E            0000E  3573             +
 00037E 5890 7DAA/0D99       00DAC  3576             +
 000384 10F3                        3578     316.              LPR   R15,TR
 000386 1B00/4110 A2E8       002E8  3579     317.              SEGDC 0,(R15)                 CONVERT CODE
 00038C 58E0 7DBE/0DEE       00DC0  3598             +
 000392 5890 7DAA/0D99       00DAC  3615             +
 000398 12E3                        3617     318.              LTR   R14,TR                  SYSTEM CODE?
 00039A 47D0 73D8            003DA  3618     319.              BNP   PANWR                   BR IF NOT
 00039E 55E0 76B2            006B4  3619     320.              CL    R14,CODETBL             BE CAREFUL
 0003A2 4720 73D8            003DA  3620     321.              BH    PANWR
 0003A6 89E0 0002            00002  3621     322.              SLL   R14,2
 0003AA 58EE 76B2            006B4  3622     323.              L     R14,CODETBL(14)         GET MESSAGE PTR
 0003AE 4110 7E22            00E24  3623     324.              VSEG  ' ('
 0003B2 4100 0002            00002  3627             +
 0003B6 5890 7DAA/0D99       00DAC  3630             +
 0003BC 4110 E001/1F00       00001  3632     325.              VSEG  @R14+1,IC:@R14
 0003C2 4300 E000            00000  3649             +
 0003C6 5890 7DAA/0D99       00DAC  3652             +
 0003CC 4110 7E7A            00E7C  3654     326.              VSEG  ')'
 0003D0 4100 0001            00001  3658             +
 0003D4 5890 7DAA/0D99       00DAC  3661             +
 0003DA                             3663     327.     PANWR    DS    0H
 0003DA 9680 A208      00208        3664     328.              SET   CLWFCERR                FORCE EXEC BREAK
 0003DE 4110 7E7B            00E7D  3670     329.              VWRITE '.'                    GIVE PANIC MESSAGE
 0003E2 4100 0001            00001  3675             +
 0003E6 5890 7DAA/0D99       00DAC  3678             +
 0003EC 5890 7DC2/0D99       00DC4  3682             +
 0003F2 4770 75BA            005BC  3684     330.              BNZ   PANATTN                 ATTN ON MSG
 0003F6 1233/47D0 75C4       005C6  3685     331.              IF    (TR,NPOS),PANFIX        USER PANIC
                                    3702     332.     *
 0003FC 9180 2001      00001        3703     333.     PANPE    TM    @SR+1,X'80'             PROGRAM EVENT?
 000400 4780 7548            0054A  3704     334.              BZ    PANMON                  CHECK MONITOR EVENT
 000404 D207 A350 A264 00350 00264  3705     335.              MVC   CLWEVENT,CLWPER         SAVE LAST EVENT
 00040A 4110 7D6E            00D70  3706     336.              VSEG  ' Event ('
 00040E 4100 0008            00008  3710             +
 000412 5890 7DAA/0D99       00DAC  3713             +
 000418 9140 A264      00264        3715     337.              IF    PEFETCH,BEGIN
 00041C 47E0 742C            0042E  3725             +
 000420 4110 7E24            00E26  3730  1  338.                VSEG  'Fetch,'
 000424 4100 0006            00006  3734  1          +
 000428 5890 7DAA/0D99       00DAC  3737  1          +
 00042E                             3739     339.              END
 00042E 9120 A264      00264        3743     340.              IF    PESTORE,BEGIN
 000432 47E0 74D4            004D6  3753             +
 000436 4110 7E7C            00E7E  3758  1  341.                VSEG  'Store at '
 00043A 4100 0009            00009  3762  1          +
 00043E 5890 7DAA/0D99       00DAC  3765  1          +
 000444 5810 A264            00264  3767  1  342.                L     R1,CLWPER               INSTRUCTION ADDRESS
                                    3768  1  343.     *         LA    R1,0(,R1)               ELIMINATE SIGN BIT
1VCLP     (VCLP00) (09:46) (22MAR04) ORVYL'S COMMAND LANGUAGE PROCESSOR                                                     Page   29
0Current Usings:  (*,R7) (CLW,R10) (SCP,R11)
0Loc    Object Code    Addr1 Addr2  Stmt Lv Lineno    Source Statement           (Hibal 5, Asmedit 3.3)  HLASM R4.0  2004/03/22 09.46
+___    ______ ____    _____ _____  ____ __ ______    ______ _________
0000448 5410 7DB2            00DB4  3769  1  344.                N     R1,=X'0FFFFFFF'         ELIMINATE SIGN BIT
 00044C 4100 A2E8            002E8  3770  1  345.     PEREX      LA    R0,CLWTEMP
 000450 41F0 0004            00004  3771  1  346.                LA    R15,4
 000454 5890 7DC6/0D99       00DC8  3772  1  347.                VCALL READCORE
 00045A 1B00                        3776  1  348.                CLEAR R0                      COMPUTE EFFECTIVE STORE ADDRESS
 00045C 9180 A2E8      002E8        3780  1  349.                TM    CLWTEMP,B'10000000'     RS,SI,SS TYPE INSTRUCTION?
 000460 4710 7490            00492  3781  1  350.                BO    PERSS
 000464 9140 A2E8      002E8        3782  1  351.                TM    CLWTEMP,B'01000000'     RX TYPE?
 000468 4710 747C            0047E  3783  1  352.                BO    PERRX                   YES
 00046C 4110 7E85            00E87  3784  1  353.                VSEG  '??,'                   RR TYPE: SORRY, CHUMP
 000470 4100 0003            00003  3788  1          +
 000474 5890 7DAA/0D99       00DAC  3791  1          +
 00047A 47F0 74D4            004D6  3793  1  354.                B     PANPE2
                                    3794  1  355.
 00047E 4310 A2E9            002E9  3795  1  356.     PERRX      IC    R1,CLWTEMP+1            INDEX
 000482 8910 0002            00002  3796  1  357.                SLL   R1,2
 000486 5410 7DCA            00DCC  3797  1  358.                N     R1,=BL4'111100'
 00048A 4780 7490            00492  3798  1  359.                IF    NZ,'AL R0,@SR+8(R1)'    ADD INDEX VALUE
 00048E 5E01 2008            00008  3810  1          +
 000492 4810 A2EA            002EA  3815  1  360.     PERSS      LH    R1,CLWTEMP+2            DISPLACEMENT
 000496 5410 7DCE            00DD0  3816  1  361.                N     R1,=XL4'FFF'
 00049A 1E01                        3817  1  362.                ALR   R0,R1
 00049C 4310 A2EA            002EA  3818  1  363.                IC    R1,CLWTEMP+2            BASE
 0004A0 8810 0002            00002  3819  1  364.                SRL   R1,2
 0004A4 5410 7DCA            00DCC  3820  1  365.                N     R1,=BL4'111100'
 0004A8 4780 74AE            004B0  3821  1  366.                IF    NZ,'AL R0,@SR+8(R1)'    ADD BASE VALUE
 0004AC 5E01 2008            00008  3833  1          +
 0004B0 1810                        3838  1  367.                LR    R1,0
                                    3839  1  368.     *         LA    R1,0(,R1)               ELIMINATE SIGN BIT
 0004B2 5410 7DB2            00DB4  3840  1  369.                N     R1,=X'0FFFFFFF'         ELIMINATE SIGN BIT
 0004B6 9544 A2E8      002E8        3841  1  370.                CLI   CLWTEMP,X'44'           EX?
 0004BA 4780 744A            0044C  3842  1  371.                BE    PEREX
 0004BE 5010 A354            00354  3843  1  372.                ST    R1,CLWEVENT+4
 0004C2 5890 7DB6/0D99       00DB8  3844  1  373.                VCALL VSEGLOC
 0004C8 4110 7E88            00E8A  3848  1  374.                VSEG  ','
 0004CC 4100 0001            00001  3852  1          +
 0004D0 5890 7DAA/0D99       00DAC  3855  1          +
 0004D6                             3857     375.              END
 0004D6 9180 A264      00264        3861     376.     PANPE2   IF    PEBRANCH,BEGIN
 0004DA 47E0 750A            0050C  3872             +
 0004DE 4110 7E2A            00E2C  3877  1  377.                VSEG  'Branch to '
 0004E2 4100 000A            0000A  3881  1          +
 0004E6 5890 7DAA/0D99       00DAC  3884  1          +
 0004EC 5810 2004            00004  3886  1  378.                L     R1,4(,SR)               NEW PSW ADDRESS
 0004F0 5410 7DB2            00DB4  3887  1  379.                N     R1,=X'0FFFFFFF'
 0004F4 5010 A354            00354  3888  1  380.                ST    R1,CLWEVENT+4
 0004F8 5890 7DB6/0D99       00DB8  3889  1  381.                VCALL VSEGLOC
 0004FE 4110 7E88            00E8A  3893  1  382.                VSEG  ','
 000502 4100 0001            00001  3897  1          +
 000506 5890 7DAA/0D99       00DAC  3900  1          +
 00050C                             3902     383.              END
 00050C 9110 A264      00264        3906     384.              IF    PEREG,BEGIN
 000510 47E0 7520            00522  3916             +
 000514 4110 7E89            00E8B  3921  1  385.                VSEG  'Register)'
1VCLP     (VCLP00) (09:46) (22MAR04) ORVYL'S COMMAND LANGUAGE PROCESSOR                                                     Page   30
0Current Usings:  (*,R7) (CLW,R10) (SCP,R11)
0Loc    Object Code    Addr1 Addr2  Stmt Lv Lineno    Source Statement           (Hibal 5, Asmedit 3.3)  HLASM R4.0  2004/03/22 09.46
+___    ______ ____    _____ _____  ____ __ ______    ______ _________
0000518 4100 0009            00009  3925  1          +
 00051C 5890 7DAA/0D99       00DAC  3928  1          +
 000522 7524           00522 00512  3930     386.              END   ELSE,BEGIN
 000522 47F0 7530            00532  3939             +
 000526 48F0 A118            00118  3945  1  387.                LH    R15,CLWOBUF             OUTPUT POINTER
 00052A 41FF A11B            0011B  3946  1  388.                LA    R15,CLWOBUF+3(15)
 00052E 925D F000      00000        3947  1  389.                MVI   @R15,C')'
 000532                             3948     390.              END
 000532 4110 7E7B            00E7D  3952     391.              VWRITE '.'
 000536 4100 0001            00001  3957             +
 00053A 5890 7DAA/0D99       00DAC  3960             +
 000540 5890 7DC2/0D99       00DC4  3964             +
 000546 4770 75BA            005BC  3966     392.              BNZ   PANATTN                 ATTN ON MSG
000054A 9140 2001      00001        3968     394.     PANMON   TM    @SR+1,X'40'             MONITOR INTERRUPTION?
 00054E 4780 75C4            005C6  3969     395.              BZ    PANFIX                  NO
 000552 4110 7E92            00E94  3970     396.              VSEG  'Monitor class= '
 000556 4100 000F            0000F  3974             +
 00055A 5890 7DAA/0D99       00DAC  3977             +
 000560 1FFF/43F0 A268       00268  3979     397.              SEGDC 0,IC:CLWMON
 000566 1B00/4110 A2E8       002E8  3994             +
 00056C 58E0 7DBE/0DEE       00DC0  4004             +
 000572 5890 7DAA/0D99       00DAC  4021             +
 000578 4110 7D76            00D78  4023     398.              VSEG  ', Monitor code= '
 00057C 4100 0010            00010  4027             +
 000580 5890 7DAA/0D99       00DAC  4030             +
 000586 58F0 A268            00268  4032     399.              L     R15,CLWMON
 00058A 4100 F000            00000  4033     400.              LA    R0,@R15                 CLEAN UP
 00058E 18F0/4100 0006       00006  4034     401.              SEGHX 6,(0)
 000594 4110 A2E8            002E8  4055             +
 000598 58E0 7DD2/0DEE       00DD4  4058             +
 00059E 5890 7DAA/0D99       00DAC  4075             +
 0005A4 4110 7E7B            00E7D  4077     402.              VWRITE '.'
 0005A8 4100 0001            00001  4082             +
 0005AC 5890 7DAA/0D99       00DAC  4085             +
 0005B2 5890 7DC2/0D99       00DC4  4089             +
 0005B8 4780 75C4            005C6  4091     403.              BZ    PANFIX                  NO ATTN ON MSG
 0005BC 94EF A209      00209        4092     404.     PANATTN  CLEAR CLWPFRUN                CLEAR CONTINUE
 0005C0                             4100     405.              CLEAR CLWEVCNT                CLEAR COUNT
 0005C0 D703 A26C A26C 0026C 0026C  4106             +
 0005C6 947F B200      00200        4107     406.     PANFIX   CLEAR SCPFERR                 CANCEL ERROR CONDITION
 0005CA 47F0 7EF8            00EFA  4115     407.              B     READ                    STOP ON TRAP
                                    4116     408.
 0005CE 09                          4117     409.              CODE  'Operation'
 0005CF D697859981A38996            4119             +
 0005D8 14                          4120     410.              CODE  'Privileged Operation'
 0005D9 D79989A589938587            4122             +
 0005ED 11                          4123     411.              CODE  'Execute Exception'
 0005EE C5A78583A4A38540            4125             +
 0005FF 0A                          4126     412.              CODE  'Protection'
 000600 D79996A38583A389            4128             +
 00060A 0A                          4129     413.              CODE  'Addressing'
 00060B C184849985A2A289            4131             +
 000615 0D                          4132     414.              CODE  'Specification'
1VCLP     (VCLP00) (09:46) (22MAR04) ORVYL'S COMMAND LANGUAGE PROCESSOR                                                     Page   31
0Current Usings:  (*,R7) (CLW,R10) (SCP,R11)
0Loc    Object Code    Addr1 Addr2  Stmt Lv Lineno    Source Statement           (Hibal 5, Asmedit 3.3)  HLASM R4.0  2004/03/22 09.46
+___    ______ ____    _____ _____  ____ __ ______    ______ _________
0000616 E297858389868983            4134             +
 000623 04/C481A381                 4135     415.              CODE  'Data'
 000628 0E                          4138     416.              CODE  'Fixed Overflow'
 000629 C689A7858440D6A5            4140             +
 000637 0C                          4141     417.              CODE  'Fixed Divide'
 000638 C689A7858440C489            4143             +
 000644 10                          4144     418.              CODE  'Decimal Overflow'
 000645 C485838994819340            4146             +
 000655 0E                          4147     419.              CODE  'Decimal Divide'
 000656 C485838994819340            4149             +
 000664 11                          4150     420.              CODE  'Exponent Overflow'
 000665 C5A79796958595A3            4152             +
 000676 12                          4153     421.              CODE  'Exponent Underflow'
 000677 C5A79796958595A3            4155             +
 000689 0C                          4156     422.              CODE  'Significance'
 00068A E289879589868983            4158             +
 000696 0F                          4159     423.              CODE  'Floating Divide'
 000697 C6939681A3899587            4161             +
 0006A6 0C                          4162     424.              CODE  'Missing Wait'
 0006A7 D489A2A289958740            4164             +
                                    4165     425.
 0006B3 00/00000010                 4166     426.              CODES
 0006B8 000005CE                    4168             +
 0006BC 000005D8                    4169             +
 0006C0 000005ED                    4170             +
 0006C4 000005FF                    4171             +
 0006C8 0000060A                    4172             +
 0006CC 00000615                    4173             +
 0006D0 00000623                    4174             +
 0006D4 00000628                    4175             +
 0006D8 00000637                    4176             +
 0006DC 00000644                    4177             +
 0006E0 00000655                    4178             +
 0006E4 00000664                    4179             +
 0006E8 00000676                    4180             +
 0006EC 00000689                    4181             +
 0006F0 00000696                    4182             +
 0006F4 000006A6                    4183             +
                                    4184     427.     PEFETCH  EQU   CLWPER,B'01000000',1
                                    4185     428.     PESTORE  EQU   CLWPER,B'00100000',1
                                    4186     429.     PEBRANCH EQU   CLWPER,B'10000000',1
                                    4187     430.     PEREG    EQU   CLWPER,B'00010000',1
1VCLP     (VCLP00) (09:46) (22MAR04) ORVYL'S COMMAND LANGUAGE PROCESSOR                                                     Page   32
0Current Usings:  (*,R7) (CLW,R10) (SCP,R11)
0Loc    Object Code    Addr1 Addr2  Stmt Lv Lineno    Source Statement           (Hibal 5, Asmedit 3.3)  HLASM R4.0  2004/03/22 09.46
+___    ______ ____    _____ _____  ____ __ ______    ______ _________
0                                   4189     432.     *
                                    4190     433.     *  Process Quiet Pause.
                                    4191     434.     *
 0006F8 47F0 7EF8            00EFA  4192     435.     QPAUSE   B     READ                Nothing to do
-                                   4194     437.     *  PROCESS PAUSE
                                    4195     438.     *
 0006FC                             4196     439.     PAUSEXIT DS    0H
 0006FC 9110 A208      00208        4197     440.              IF    CLWFTRAP,TRAPDONE       PAUSE AFTER TRAP
 000700 4710 7B06            00B08  4209             +
 000704 9845 A368            00368  4215     441.              LM    QR,RR,CLWSBPSW          COMPUTE INTR. ADDR.
 000708 5450 7DB2            00DB4  4216     442.              N     RR,=X'0FFFFFFF'         CLEAR MODE BIT
                                    4217     443.
 00070C 8840 000D            0000D  4218     444.              SRL   QR,8+6-1
 000710 5440 7DAE            00DB0  4219     445.              N     QR,=A(6)
 000714 1F54                        4220     446.              SLR   RR,QR
 000716 5050 A270            00270  4221     447.              ST    RR,CLWTRAPA             LOOK UP IN TRAP TABLE
 00071A 4120 A280            00280  4222     448.              LA    SR,CLWTRAPS
 00071E 4130 0009            00009  4223     449.              LA    TR,CLWNTRAP+1
 000722 D502 A271 2000 00271 00000  4224     450.     TRYTRAP  CLC   CLWTRAPA+1(3),@SR       IN TABLE?
 000728 4780 775A            0075C  4225     451.              BE    TRAPDO                  BR IF SO
 00072C 4120 2005            00005  4226     452.              LA    SR,5(,SR)               TRY NEXT
 000730 4630 7720            00722  4227     453.              BCT   TR,TRYTRAP
 000734 4D90 7D34            00D36  4228     454.              LCALL BREAK
                                    4230     455.     *         LA    R1,@RR
 000738 1815                        4231     456.              LR    R1,RR
 00073A 5410 7DB2            00DB4  4232     457.              N     R1,=X'0FFFFFFF'
 00073E 5890 7DB6/0D99       00DB8  4233     458.              VCALL VSEGLOC
 000744 4110 7EA1            00EA3  4237     459.              VWRITE ', Pause'              GIVE PAUSE MSG
 000748 4100 0007            00007  4242             +
 00074C 5890 7DAA/0D99       00DAC  4245             +
 000752 5890 7DC2/0D99       00DC4  4249             +
 000758 47F0 7EF8            00EFA  4251     460.              B     READ
1VCLP     (VCLP00) (09:46) (22MAR04) ORVYL'S COMMAND LANGUAGE PROCESSOR                                                     Page   33
0Current Usings:  (*,R7) (CLW,R10) (SCP,R11)
0Loc    Object Code    Addr1 Addr2  Stmt Lv Lineno    Source Statement           (Hibal 5, Asmedit 3.3)  HLASM R4.0  2004/03/22 09.46
+___    ______ ____    _____ _____  ____ __ ______    ______ _________
0                                   4253     462.     *  EXECUTE THE TRAPPED INSTRUCTION
                                    4254     463.     *
 00075C                             4255     464.     TRAPDO   DS    0H
 00075C 94DF A20A      0020A        4256     465.              CLEAR CLWMBSUC                ASSUME UNSUCCESSFUL BRANCH
 000760 D201 A278 2003 00278 00003  4263     466.              MVC   CLWTRAPI(2),@SR+3       1ST HALFWORD OF THE INST.
 000766 4140 5002            00002  4264     467.              LA    QR,@RR+2                MINIMUM INSTR. LEN.
 00076A 91C0 A278      00278        4265     468.              TM    CLWTRAPI,X'C0'          COMPUT INSTR. LEN.
 00076E 4780 777C            0077E  4266     469.              BZ    TRAP1HW                 ONE HALF WORD
 000772 4740 7778            0077A  4267     470.              BM    TRAP2HW                 TWO HALF WORDS
 000776 4140 4002            00002  4268     471.              LA    QR,@QR+2                THREE HALF WORDS
 00077A 4140 4002            00002  4269     472.     TRAP2HW  LA    QR,@QR+2
 00077E 5040 A274            00274  4270     473.     TRAP1HW  ST    QR,CLWTRAPB
 000782 9200 A27F      0027F        4271     474.              MVI   CLWTRAPJ+1,0            OR BYTE FROM EXECUTE
 000786 4110 7878            0087A  4272     475.     TRAPDOX  LA    R1,BRTBL                TABLE OF BRANCH OPCODES
 00078A D500 A278 1000 00278 00000  4273     476.     TRAPSRCH CLC   CLWTRAPI(1),@R1         IS THIS IT?
 000790 4780 7802            00804  4274     477.              BE    TRAPSIM                 BR IF SO
 000794 4110 1002            00002  4275     478.              LA    R1,@R1+2                NEXT ENTRY
 000798 9500 1000      00000        4276     479.              CLI   @R1,0                   DONE?
 00079C 4770 7788            0078A  4277     480.              BNE   TRAPSRCH                BR IF NOT
                                    4278     481.     *
                                    4279     482.     *  EXECUTE THE TRAPPED INSTRUCTION IN PLACE
                                    4280     483.     *
 0007A0                             4281     484.     TRAPXIP  DS    0H
 0007A0 41F0 0002            00002  4282     485.              LA    R15,2
 0007A4 5810 A270            00270  4283     486.              L     R1,CLWTRAPA
 0007A8 5010 A36C            0036C  4284     487.              ST    R1,CLWSBPSW+4           RESET INSTRUCTION ADDR
 0007AC 9102 A208      00208        4285     488.              IF    CLWFM31,'OI CLWSBPSW+4,X"80"' Set to 31 bit mode
 0007B0 47E0 77B6            007B8  4295             +
 0007B4 9680 A36C      0036C        4301             +
 0007B8 4100 2003            00003  4306     489.              LA    R0,@SR+3
 0007BC 5890 7DD6/0D99       00DD8  4307     490.              VCALL RITECORE                RESTORE THE INSTRUCTION
 0007C2 5810 A274            00274  4311     491.              L     R1,CLWTRAPB
 0007C6 4100 A27E            0027E  4312     492.              LA    R0,CLWTRAPJ
 0007CA 41F0 0002            00002  4313     493.              LA    R15,2
 0007CE 5890 7DC6/0D99       00DC8  4314     494.              VCALL READCORE                SAVE INST. AFTER
 0007D4 55F0 7DDA            00DDC  4318     495.              CL    R15,=F'4'
 0007D8 4720 77EC            007EE  4319     496.              BH    TRAPNW                  BR IF NOTHING THERE
 0007DC 41F0 0002            00002  4320     497.              LA    R15,2
 0007E0 5810 A274            00274  4321     498.              L     R1,CLWTRAPB
 0007E4 4100 A210            00210  4322     499.              LA    R0,CLWPSVC
 0007E8 5890 7DD6/0D99       00DD8  4323     500.              VCALL RITECORE                PUT A PAUSE THERE
 0007EE D200 A27A A36B 0027A 0036B  4327     501.     TRAPNW   MVC   CLWTRAPI+2(1),CLWSBPSW+3  SAVE MASK BYTE
 0007F4 9200 A36B      0036B        4328     502.              MVI   CLWSBPSW+3,0            PROHIBIT EXITS
 0007F8 9610 A208      00208        4329     503.              SET   CLWFTRAP                SET TRAP FLAG
 0007FC 9610 A209      00209        4335     504.              SET   CLWPFRUN                CONTINUE EXECUTION
 000800 47F0 7EF8            00EFA  4341     505.              B     READ
1VCLP     (VCLP00) (09:46) (22MAR04) ORVYL'S COMMAND LANGUAGE PROCESSOR                                                     Page   34
0Current Usings:  (*,R7) (CLW,R10) (SCP,R11)
0Loc    Object Code    Addr1 Addr2  Stmt Lv Lineno    Source Statement           (Hibal 5, Asmedit 3.3)  HLASM R4.0  2004/03/22 09.46
+___    ______ ____    _____ _____  ____ __ ______    ______ _________
0                                   4343     507.     *  SIMULATE A TRAPPED BRANCH
                                    4344     508.     *
 000804 1B33                        4345     509.     TRAPSIM  CLEAR TR
 000806 4330 1001            00001  4350     510.              IC    TR,@R1+1                BRANCH CODE
 00080A 91C0 A278      00278        4351     511.              TM    CLWTRAPI,X'C0'          HALFWORD INST?
 00080E 4780 784A            0084C  4352     512.              BZ    TRAPHW                  BR IF SO
 000812 41F0 0002            00002  4353     513.              LA    R15,2
 000816 4110 5002            00002  4354     514.              LA    R1,2(,RR)
 00081A 4100 A27A            0027A  4355     515.              LA    R0,CLWTRAPI+2
 00081E 5890 7DC6/0D99       00DC8  4356     516.              VCALL READCORE                READ 2ND HALF
 000824 55F0 7DDA            00DDC  4360     517.              CL    R15,=F'4'
 000828 4720 779E            007A0  4361     518.              BH    TRAPXIP                 BR IF NOTHING THERE
 00082C 5810 A270            00270  4362     519.              L     R1,CLWTRAPA             SET CORRECT ADDR IN PSW
 000830 4110 1004            00004  4363     520.              LA    R1,4(,R1)
 000834 5010 A36C            0036C  4364     521.              ST    R1,CLWSBPSW+4
 000838 9102 A208      00208        4365     522.              IF    CLWFM31,'OI CLWSBPSW+4,X"80"' Set to 31 bit mode
 00083C 47E0 7842            00844  4375             +
 000840 9680 A36C      0036C        4381             +
 000844 943F A36A      0036A        4386     523.              NI    CLWSBPSW+2,X'3F'          ALSO SET ILC
 000848 9680 A36A      0036A        4387     524.              OI    CLWSBPSW+2,X'80'          FOR A NICE TOUCH
                                    4388     525.
 00084C D600 A279 A27F 00279 0027F  4389     526.     TRAPHW   OC    CLWTRAPI+1(1),CLWTRAPJ+1  OR IN BYTE FROM EXECUTE
 000852 47F3 7854            00856  4390     527.              B     *+4(TR)                 BR TO SIMULATION ROUTINE
 000856 47F0 7894            00896  4391     528.              B     SIMBALR
 00085A 47F0 7906            00908  4392     529.              B     SIMBCR
 00085E 47F0 7956            00958  4393     530.              B     SIMBCTR
 000862 47F0 7A6E            00A70  4394     531.              B     SIMEX
 000866 47F0 7AB0            00AB2  4395     532.              B     SIMBAL
 00086A 47F0 7AB8            00ABA  4396     533.              B     SIMBC
 00086E 47F0 7AC0            00AC2  4397     534.              B     SIMBCT
 000872 47F0 79AC            009AE  4398     535.              B     SIMBX                   BXH, BXLE
 000876 47F0 7A16            00A18  4399     536.              B     SIMBSM
-
                                    4401     538.     *
                                    4402     539.     *  TABLE OF BRANCH INSTRUCTIONS
                                    4403     540.     *
 00087A 0500                        4404     541.     BRTBL    DC    X'0500'                 BALR
 00087C 0608                        4405     542.              DC    X'0608'                 BCTR
 00087E 0704                        4406     543.              DC    X'0704'                 BCR
 000880 0B20                        4407     544.              DC    X'0B20'                 BSM
 000882 0C00                        4408     545.              DC    X'0C00'                 BASSM
 000884 0D00                        4409     546.              DC    X'0D00'                 BASR
 000886 440C                        4410     547.              DC    X'440C'                 EX
 000888 4510                        4411     548.              DC    X'4510'                 BAL
 00088A 4618                        4412     549.              DC    X'4618'                 BCT
 00088C 4714                        4413     550.              DC    X'4714'                 BC
 00088E 4D10                        4414     551.              DC    X'4D10'                 BAS
 000890 861C                        4415     552.              DC    X'861C'                 BXH
 000892 871C                        4416     553.              DC    X'871C'                 BXLE
 000894 00                          4417     554.              DC    X'00'
1VCLP     (VCLP00) (09:46) (22MAR04) ORVYL'S COMMAND LANGUAGE PROCESSOR                                                     Page   35
0Current Usings:  (*,R7) (CLW,R10) (SCP,R11)
0Loc    Object Code    Addr1 Addr2  Stmt Lv Lineno    Source Statement           (Hibal 5, Asmedit 3.3)  HLASM R4.0  2004/03/22 09.46
+___    ______ ____    _____ _____  ____ __ ______    ______ _________
0                                   4419     556.     *
                                    4420     557.     *  BALR, BASR, BASSM
                                    4421     558.     *
 000896 1BFF                        4422     559.     SIMBALR  CLEAR R15
 000898 06F0                        4427     560.              DECR  R15                     COMPUTE BRANCH ADDRESS
 00089A 43E0 A279            00279  4429     561.              IC    R14,CLWTRAPI+1
 00089E 89E0 0002            00002  4430     562.              SLL   R14,2
 0008A2 54E0 7DCA            00DCC  4431     563.              IF    ('N  R14,=BL4"111100"',NZ),BEGIN
 0008A6 4780 78B8            008BA  4439             +
 0008AA 58FE A370            00370  4444  1  564.                L     R15,CLWSBGPR(14)
 0008AE 950C A278      00278        4445  1  565.                IF    (CLWTRAPI.X'0C',NE),'LA  R15,@R15'   BALR & BASR ONLY
 0008B2 4780 78B8            008BA  4458  1          +
 0008B6 41F0 F000            00000  4464  1          +
 0008BA                             4469     566.              END   ,
 0008BA 5800 A36C            0036C  4473     567.     SIMBALX  L     R0,CLWSBPSW+4           "LINK" ADDRESS
 0008BE 9102 A208      00208        4474     568.              IF    ~CLWFM31,BEGIN          IF NOT IN 31 BIT MODE
 0008C2 4710 78D0            008D2  4484             +
 0008C6 9108 A278      00278        4489  1  569.                IF    ~CLWTRAPI.X'08','ICM  R0,8,CLWSBPSW+2'   ADD ILC/CC
 0008CA 4710 78D0            008D2  4500  1          +
 0008CE BF08 A36A            0036A  4506  1          +
 0008D2                             4511     570.              END   ,
 0008D2 78D4           008D2 008C4  4515     571.              ELSE  'O R0,=X"80000000"'     Set addressing mode
 0008D2 47F0 78D8            008DA  4520             +
 0008D6 5600 7DDE            00DE0  4527             +
 0008DA 4310 A279            00279  4532     572.              IC    R1,CLWTRAPI+1           FIND REGISTER TO STORE IN
 0008DE 8810 0002            00002  4533     573.              SRL   R1,2
 0008E2 5410 7DCA            00DCC  4534     574.              N     R1,=BL4'111100'
 0008E6 5001 A370            00370  4535     575.              ST    R0,CLWSBGPR(R1)         STORE IT
 0008EA 12FF/4740 7B44       00B46  4536     576.              IF    (R15,M),TRAPMSG         NO BRANCH
 0008F0 50F0 A36C            0036C  4553     577.              ST    R15,CLWSBPSW+4          STORE BRANCH ADDR
 0008F4 9102 A208      00208        4554     578.              IF    CLWFM31,'OI CLWSBPSW+4,X"80"' Set to 31 bit mode
 0008F8 47E0 78FE            00900  4564             +
 0008FC 9680 A36C      0036C        4570             +
 000900 9620 A20A      0020A        4575     579.              SET   CLWMBSUC                SUCCESSFUL BRANCH SIMULATED
 000904 47F0 7B44            00B46  4581     580.              B     TRAPMSG
                                    4582     581.     *
                                    4583     582.     *  BCR
                                    4584     583.     *
 000908 4310 A279            00279  4585     584.     SIMBCR   IC    R1,CLWTRAPI+1           COMPUTE BRANCH ADDR
 00090C 8910 0002            00002  4586     585.              SLL   R1,2
 000910 5410 7DCA            00DCC  4587     586.              N     R1,=BL4'111100'
 000914 58F1 A370            00370  4588     587.              L     R15,CLWSBGPR(1)
 000918 41F0 F000            00000  4589     588.              LA    R15,@R15
 00091C 4310 A36A            0036A  4590     589.     SIMBCX   IC    R1,CLWSBPSW+2           GET CONDITION CODE
 000920 8810 0002            00002  4591     590.              SRL   R1,2
 000924 5410 7DE2            00DE4  4592     591.              N     R1,=BL4'1100'
 000928 4401 7946            00948  4593     592.              EX    R0,BCTMS(R1)            TEST MASK BIT
 00092C 4780 7B44            00B46  4595     593.              BZ    TRAPMSG                  BR IF NO BRANCH
 000930 50F0 A36C            0036C  4596     594.              ST    R15,CLWSBPSW+4          SET BRANCH ADDR
 000934 9102 A208      00208        4597     595.              IF    CLWFM31,'OI CLWSBPSW+4,X"80"' Set to 31 bit mode
 000938 47E0 793E            00940  4607             +
 00093C 9680 A36C      0036C        4613             +
 000940 9620 A20A      0020A        4618     596.              SET   CLWMBSUC                SUCCESSFUL BRANCH SIMULATED
 000944 47F0 7B44            00B46  4624     597.              B     TRAPMSG
1VCLP     (VCLP00) (09:46) (22MAR04) ORVYL'S COMMAND LANGUAGE PROCESSOR                                                     Page   36
0Current Usings:  (*,R7) (CLW,R10) (SCP,R11)
0Loc    Object Code    Addr1 Addr2  Stmt Lv Lineno    Source Statement           (Hibal 5, Asmedit 3.3)  HLASM R4.0  2004/03/22 09.46
+___    ______ ____    _____ _____  ____ __ ______    ______ _________
0                                   4625     598.
 000948 9180 A279      00279        4626     599.     BCTMS    TM    CLWTRAPI+1,X'80'
 00094C 9140 A279      00279        4627     600.              TM    CLWTRAPI+1,X'40'
 000950 9120 A279      00279        4628     601.              TM    CLWTRAPI+1,X'20'
 000954 9110 A279      00279        4629     602.              TM    CLWTRAPI+1,X'10'
1VCLP     (VCLP00) (09:46) (22MAR04) ORVYL'S COMMAND LANGUAGE PROCESSOR                                                     Page   37
0Current Usings:  (*,R7) (CLW,R10) (SCP,R11)
0Loc    Object Code    Addr1 Addr2  Stmt Lv Lineno    Source Statement           (Hibal 5, Asmedit 3.3)  HLASM R4.0  2004/03/22 09.46
+___    ______ ____    _____ _____  ____ __ ______    ______ _________
0                                   4631     604.     *
                                    4632     605.     *  BCTR
                                    4633     606.     *
 000958 1BFF                        4634     607.     SIMBCTR  CLEAR R15                     COMPUTE BRANCH ADDR
 00095A 06F0                        4639     608.              DECR  R15
 00095C 4310 A279            00279  4641     609.              IC    R1,CLWTRAPI+1
 000960 8910 0002            00002  4642     610.              SLL   R1,2
 000964 5410 7DCA            00DCC  4643     611.              N     R1,=BL4'111100'
 000968 4780 7972            00974  4644     612.              BZ    SIMBCTX
 00096C 58F1 A370            00370  4645     613.              L     R15,CLWSBGPR(1)
 000970 41F0 F000            00000  4646     614.              LA    R15,@R15
 000974 4310 A279            00279  4647     615.     SIMBCTX  IC    R1,CLWTRAPI+1           GET COUNT REGISTER
 000978 8810 0002            00002  4648     616.              SRL   R1,2
 00097C 5410 7DCA            00DCC  4649     617.              N     R1,=BL4'111100'
 000980 5801 A370            00370  4650     618.              L     R0,CLWSBGPR(R1)
 000984 0600                        4651     619.              DECR  R0
 000986 5001 A370            00370  4653     620.              ST    R0,CLWSBGPR(R1)
 00098A 1200/4780 7B44       00B46  4654     621.              IF    (R0,Z),TRAPMSG          COUNT WENT TO ZERO
 000990 12FF/4740 7B44       00B46  4671     622.              IF    (R15,M),TRAPMSG         NO BRANCH WANTED
 000996 50F0 A36C            0036C  4688     623.              ST    R15,CLWSBPSW+4
 00099A 9102 A208      00208        4689     624.              IF    CLWFM31,'OI CLWSBPSW+4,X"80"' Set to 31 bit mode
 00099E 47E0 79A4            009A6  4699             +
 0009A2 9680 A36C      0036C        4705             +
 0009A6 9620 A20A      0020A        4710     625.              SET   CLWMBSUC                SUCCESSFUL BRANCH SIMULATED
 0009AA 47F0 7B44            00B46  4716     626.              B     TRAPMSG
                                    4717     627.     *
                                    4718     628.     *  BXH, BXLE
                                    4719     629.     *
 0009AE D201 A2EA A27A 002EA 0027A  4720     630.     SIMBX    MVC   CLWTEMP+2(2),CLWTRAPI+2
 0009B4 9200 A2E9      002E9        4721     631.              MVI   CLWTEMP+1,0
 0009B8 4D90 7AD0            00AD2  4722     632.              LCALL RXADDR                  COMPUTE BRANCH ADDR
 0009BC 4310 A279            00279  4724     633.              IC    R1,CLWTRAPI+1           GET SUM REGISTER
 0009C0 8810 0002            00002  4725     634.              SRL   R1,2
 0009C4 5410 7DCA            00DCC  4726     635.              N     R1,=BL4'111100'
 0009C8 5801 A370            00370  4727     636.              L     R0,CLWSBGPR(R1)           SUM VALUE
 0009CC 43E0 A279            00279  4728     637.              IC    R14,CLWTRAPI+1          GET INCREMENT REGISTER
 0009D0 89E0 0002            00002  4729     638.              SLL   R14,2
 0009D4 54E0 7DCA            00DCC  4730     639.              N     R14,=BL4'111100'
 0009D8 5E0E A370            00370  4731     640.              AL    R0,CLWSBGPR(R14)          COMPUTE NEW SUM
 0009DC 56E0 7DDA            00DDC  4732     641.              O     R14,=F'4'               GET COMPARAND REGISTER
 0009E0 58EE A370            00370  4733     642.              L     R14,CLWSBGPR(14)
 0009E4 5001 A370            00370  4734     643.              ST    R0,CLWSBGPR(R1)           STORE NEW SUM
 0009E8 9101 A278      00278        4735     644.              TM    CLWTRAPI,1              BXLE?
 0009EC 4710 7A0C            00A0E  4736     645.              BO    SIMBXLE                 BR IF SO
 0009F0 190E                        4737     646.              CR    R0,14                   BRANCH IF SUM HIGH
 0009F2 47D0 7B44            00B46  4738     647.              BNH   TRAPMSG
 0009F6 50F0 A36C            0036C  4739     648.     SIMBXBRA ST    R15,CLWSBPSW+4            STORE BRANCH ADDR
 0009FA 9102 A208      00208        4740     649.              IF    CLWFM31,'OI CLWSBPSW+4,X"80"' Set to 31 bit mode
 0009FE 47E0 7A04            00A06  4750             +
 000A02 9680 A36C      0036C        4756             +
 000A06 9620 A20A      0020A        4761     650.              SET   CLWMBSUC                SUCCESSFUL BRANCH SIMULATED
 000A0A 47F0 7B44            00B46  4767     651.              B     TRAPMSG
                                    4768     652.
 000A0E 190E                        4769     653.     SIMBXLE  CR    R0,14                   BRANCH IF SUM LOW-EQUAL
1VCLP     (VCLP00) (09:46) (22MAR04) ORVYL'S COMMAND LANGUAGE PROCESSOR                                                     Page   38
0Current Usings:  (*,R7) (CLW,R10) (SCP,R11)
0Loc    Object Code    Addr1 Addr2  Stmt Lv Lineno    Source Statement           (Hibal 5, Asmedit 3.3)  HLASM R4.0  2004/03/22 09.46
+___    ______ ____    _____ _____  ____ __ ______    ______ _________
0000A10 47D0 79F4            009F6  4770     654.              BNH   SIMBXBRA
 000A14 47F0 7B44            00B46  4771     655.              B     TRAPMSG
1VCLP     (VCLP00) (09:46) (22MAR04) ORVYL'S COMMAND LANGUAGE PROCESSOR                                                     Page   39
0Current Usings:  (*,R7) (CLW,R10) (SCP,R11)
0Loc    Object Code    Addr1 Addr2  Stmt Lv Lineno    Source Statement           (Hibal 5, Asmedit 3.3)  HLASM R4.0  2004/03/22 09.46
+___    ______ ____    _____ _____  ____ __ ______    ______ _________
0                                   4773     657.     *
                                    4774     658.     *  BSM
                                    4775     659.     *
 000A18 1BFF                        4776     660.     SIMBSM   CLEAR R15
 000A1A 06F0                        4781     661.              DECR  R15                     COMPUTE BRANCH ADDRESS
 000A1C 43E0 A279            00279  4783     662.              IC    R14,CLWTRAPI+1
 000A20 89E0 0002            00002  4784     663.              SLL   R14,2
 000A24 54E0 7DCA            00DCC  4785     664.              IF    ('N  R14,=BL4"111100"',NZ),'L  R15,CLWSBGPR(14)'
 000A28 4780 7A2E            00A30  4793             +
 000A2C 58FE A370            00370  4799             +
 000A30 4310 A279            00279  4804     665.              IC    R1,CLWTRAPI+1           FIND REGISTER TO STORE IN
 000A34 8810 0002            00002  4805     666.              SRL   R1,2
 000A38 5410 7DCA            00DCC  4806     667.              IF    ('N  R1,=BL4"111100"',NZ),BEGIN
 000A3C 4780 7A50            00A52  4814             +
 000A40 1F00/BF08 7EA8       00EAA  4819  1  668.                LCM   R0,8,=X'80'             ISOLATE CURRENT MODE
 000A46 5400 A36C            0036C  4824  1  669.                N     R0,CLWSBPSW+4            FROM PSW
 000A4A 5601 A370            00370  4825  1  670.                O     R0,CLWSBGPR(R1)         ADD TO REGISTER
 000A4E 5001 A370            00370  4826  1  671.                ST    R0,CLWSBGPR(R1)         STORE IT
 000A52                             4827     672.              END   ,
 000A52 12FF/4740 7B44       00B46  4831     673.              IF    (R15,M),TRAPMSG         NO BRANCH
 000A58 50F0 A36C            0036C  4848     674.              ST    R15,CLWSBPSW+4          STORE BRANCH ADDR
 000A5C 9102 A208      00208        4849     675.              IF    CLWFM31,'OI CLWSBPSW+4,X"80"' Set to 31 bit mode
 000A60 47E0 7A66            00A68  4859             +
 000A64 9680 A36C      0036C        4865             +
 000A68 9620 A20A      0020A        4870     676.              SET   CLWMBSUC                SUCCESSFUL BRANCH SIMULATED
 000A6C 47F0 7B44            00B46  4876     677.              B     TRAPMSG
                                    4877     678.     *
                                    4878     679.     *  EX
                                    4879     680.     *
 000A70 4D90 7AC8            00ACA  4880     681.     SIMEX    LCALL RXADDRM                 COMPUTE ADDR OF INSTRUCTION
 000A74 4310 A279            00279  4882     682.              IC    R1,CLWTRAPI+1           GET "OR" REGISTER
 000A78 8810 0002            00002  4883     683.              SRL   R1,2
 000A7C 5410 7DCA            00DCC  4884     684.              IF    ('N  R1,=BL4"111100"',NZ),'IC  R1,CLWSBGPR+3(1)'
 000A80 4780 7A86            00A88  4892             +
 000A84 4311 A373            00373  4898             +
 000A88 4210 A27F            0027F  4903     685.              STC   R1,CLWTRAPJ+1           SAVE IT
 000A8C 185F                        4904     686.              LR    RR,R15
 000A8E 181F                        4905     687.              LR    R1,R15
 000A90 4100 A278            00278  4906     688.              LA    R0,CLWTRAPI             READ THE INSTRUCTION
 000A94 41F0 0002            00002  4907     689.              LA    R15,2
 000A98 5890 7DC6/0D99       00DC8  4908     690.              VCALL READCORE
 000A9E 55F0 7DDA            00DDC  4912     691.              CL    R15,=F'4'
 000AA2 4720 779E            007A0  4913     692.              BH    TRAPXIP                 BR IF NOT THERE
 000AA6 9544 A278      00278        4914     693.              CLI   CLWTRAPI,X'44'          EXECUTING AN EXECUTE?
 000AAA 4780 779E            007A0  4915     694.              BE    TRAPXIP                 BR IF SO
 000AAE 47F0 7784            00786  4916     695.              B     TRAPDOX                 GO EXECUTE IT
1VCLP     (VCLP00) (09:46) (22MAR04) ORVYL'S COMMAND LANGUAGE PROCESSOR                                                     Page   40
0Current Usings:  (*,R7) (CLW,R10) (SCP,R11)
0Loc    Object Code    Addr1 Addr2  Stmt Lv Lineno    Source Statement           (Hibal 5, Asmedit 3.3)  HLASM R4.0  2004/03/22 09.46
+___    ______ ____    _____ _____  ____ __ ______    ______ _________
0                                   4918     697.     *
                                    4919     698.     *  BAL, BAS
                                    4920     699.     *
 000AB2 4D90 7AC8            00ACA  4921     700.     SIMBAL   LCALL RXADDRM                 GET BRANCH ADDR
 000AB6 47F0 78B8            008BA  4923     701.              B     SIMBALX
                                    4924     702.     *
                                    4925     703.     *  BC
                                    4926     704.     *
 000ABA 4D90 7AC8            00ACA  4927     705.     SIMBC    LCALL RXADDRM                 COMPUTE BRANCH ADDR
 000ABE 47F0 791A            0091C  4929     706.              B     SIMBCX
                                    4930     707.     *
                                    4931     708.     *  BCT
                                    4932     709.     *
 000AC2 4D90 7AC8            00ACA  4933     710.     SIMBCT   LCALL RXADDRM                 GET BRANCH ADDR
 000AC6 47F0 7972            00974  4935     711.              B     SIMBCTX
                                    4936     712.     *
                                    4937     713.     *  ROUTINE TO FORM EFFECTIVE ADDRESS
                                    4938     714.     *
 000ACA 58F0 A278            00278  4939     715.     RXADDRM  L     R15,CLWTRAPI            MOVE INSTRUCTION TO WORK AREA
 000ACE 50F0 A2E8            002E8  4940     716.              ST    R15,CLWTEMP
 000AD2 48F0 A2EA            002EA  4941     717.     RXADDR   LH    R15,CLWTEMP+2           GET DISPLACEMENT
 000AD6 54F0 7DCE            00DD0  4942     718.              N     R15,=XL4'FFF'
 000ADA 43E0 A2EA            002EA  4943     719.              IC    R14,CLWTEMP+2           GET BASE
 000ADE 88E0 0002            00002  4944     720.              SRL   R14,2
 000AE2 54E0 7DCA            00DCC  4945     721.              IF    ('N  R14,=BL4"111100"',NZ),'AL  R15,CLWSBGPR(14)'
 000AE6 4780 7AEC            00AEE  4953             +
 000AEA 5EFE A370            00370  4959             +
 000AEE 43E0 A2E9            002E9  4964     722.              IC    R14,CLWTEMP+1           GET INDEX
 000AF2 89E0 0002            00002  4965     723.              SLL   R14,2
 000AF6 54E0 7DCA            00DCC  4966     724.              IF    ('N  R14,=BL4"111100"',NZ),'AL  R15,CLWSBGPR(14)'
 000AFA 4780 7B00            00B02  4974             +
 000AFE 5EFE A370            00370  4980             +
 000B02 41F0 F000            00000  4985     725.              LA    R15,@R15                BE NEAT
 000B06 07F9                        4986     726.              BR    RAR
1VCLP     (VCLP00) (09:46) (22MAR04) ORVYL'S COMMAND LANGUAGE PROCESSOR                                                     Page   41
0Current Usings:  (*,R7) (CLW,R10) (SCP,R11)
0Loc    Object Code    Addr1 Addr2  Stmt Lv Lineno    Source Statement           (Hibal 5, Asmedit 3.3)  HLASM R4.0  2004/03/22 09.46
+___    ______ ____    _____ _____  ____ __ ______    ______ _________
0                                   4988     728.     * TRAPPED INSTRUCTION EXECUTED. RESET TRAP.
                                    4989     729.     *
 000B08 94EF A208      00208        4990     730.     TRAPDONE CLEAR CLWFTRAP                CLEAR TRAP FLAG
 000B0C D200 A36B A27A 0036B 0027A  4998     731.              MVC   CLWSBPSW+3(1),CLWTRAPI+2    RESTORE MASK BYTE
 000B12 5810 A274            00274  4999     732.              L     R1,CLWTRAPB             RESTORE INSTRUCTION AFTER
 000B16 5010 A36C            0036C  5000     733.              ST    R1,CLWSBPSW+4           RESET NEXT INSTRUCTION
 000B1A 9102 A208      00208        5001     734.              IF    CLWFM31,'OI CLWSBPSW+4,X"80"' Set to 31 bit mode
 000B1E 47E0 7B24            00B26  5011             +
 000B22 9680 A36C      0036C        5017             +
 000B26 4100 A27E            0027E  5022     735.              LA    R0,CLWTRAPJ
 000B2A 41F0 0002            00002  5023     736.              LA    R15,2
 000B2E 5890 7DD6/0D99       00DD8  5024     737.              VCALL RITECORE
 000B34 5810 A270            00270  5028     738.              L     R1,CLWTRAPA             PUT PAUSE BACK
 000B38 4100 A210            00210  5029     739.              LA    R0,CLWPSVC
 000B3C 41F0 0002            00002  5030     740.              LA    R15,2
 000B40 5890 7DD6/0D99       00DD8  5031     741.              VCALL RITECORE
-                                   5036     743.     * SET CORRECT ILC AND PRINT MESSAGE. CHECK FOR SIMULTANEOUS PANIC
                                    5037     744.     *
 000B46 5810 A274            00274  5038     745.     TRAPMSG  L     R1,CLWTRAPB
 000B4A 5B10 A270            00270  5039     746.              S     R1,CLWTRAPA             INSTRUCTION LENGTH
 000B4E 943F A36A      0036A        5040     747.              NI    CLWSBPSW+2,255-X'C0'    CLEAR ILC
 000B52 8910 0005            00005  5041     748.              SLL   R1,5                    SHIFT TO ILC POSITION
 000B56 4410 7EE8            00EEA  5042     749.              EX    R1,'OI  CLWSBPSW+2,0'
 000EE9 00/9600 A36A   0036A                         +
 000B5A                             5058     750.              IF    (CLWEVCNT,Z),'LCALL BREAK'
 000B5A D603 A26C A26C 0026C 0026C  5068             +
 000B60 4770 7B66            00B68  5069             +
 000B64 4D90 7D34            00D36  5076             +
 000B68 7B6A           00B68 00B62  5081     751.              ELSE  BEGIN
 000B68 47F0 7B80            00B82  5086             +
 000B6C 9104 A20A      0020A        5092  1  752.                IF    CLWMNOL,READ            DON'T PRINT EVENT
 000B70 4710 7EF8            00EFA  5104  1          +
 000B74 4110 7E6D            00E6F  5110  1  753.                VSEG  'Interrupt at '
 000B78 4100 000D            0000D  5114  1          +
 000B7C 5890 7DAA/0D99       00DAC  5117  1          +
 000B82                             5119     754.              END   ,
 000B82 5810 A270            00270  5123     755.              L     R1,CLWTRAPA
 000B86 5410 7DB2            00DB4  5124     756.              N     R1,=X'0FFFFFFF'
 000B8A 5890 7DB6/0D99       00DB8  5125     757.              VCALL VSEGLOC
 000B90 4110 7EA9            00EAB  5129     758.              VSEG  ', Trap sprung'
 000B94 4100 000D            0000D  5133             +
 000B98 5890 7DAA/0D99       00DAC  5136             +
 000B9E 9120 A20A      0020A        5138     759.              IF    CLWMBSUC,BEGIN          SUCCESSFUL BRANCH
 000BA2 47E0 7BC0            00BC2  5148             +
 000BA6 4110 7DE6            00DE8  5153  1  760.                VSEG  ', Branch to '
 000BAA 4100 000C            0000C  5157  1          +
 000BAE 5890 7DAA/0D99       00DAC  5160  1          +
 000BB4 5810 A36C            0036C  5162  1  761.                L     R1,CLWSBPSW+4           SEG BRANCH ADDRESS
 000BB8 5410 7DB2            00DB4  5163  1  762.                N     R1,=X'0FFFFFFF'
 000BBC 5890 7DB6/0D99       00DB8  5164  1  763.                VCALL VSEGLOC
 000BC2                             5168     764.              END   ,
 000BC2 4110 7E7B            00E7D  5172     765.              VWRITE '.'
1VCLP     (VCLP00) (09:46) (22MAR04) ORVYL'S COMMAND LANGUAGE PROCESSOR                                                     Page   42
0Current Usings:  (*,R7) (CLW,R10) (SCP,R11)
0Loc    Object Code    Addr1 Addr2  Stmt Lv Lineno    Source Statement           (Hibal 5, Asmedit 3.3)  HLASM R4.0  2004/03/22 09.46
+___    ______ ____    _____ _____  ____ __ ______    ______ _________
0000BC6 4100 0001            00001  5177             +
 000BCA 5890 7DAA/0D99       00DAC  5180             +
 000BD0 5890 7DC2/0D99       00DC4  5184             +
 000BD6 4770 75BA            005BC  5186     766.              BNZ   PANATTN                 ATTN ON MSG
 000BDA 4830 A368            00368  5187     767.              LH    TR,CLWSBPSW             ANY PANIC?
 000BDE 1233/4770 7342       00344  5188     768.              IF    (TR,NZ),PANTRAP
 000BE4 47F0 7EF8            00EFA  5205     769.              B     READ
                                    5206     770.
1VCLP     (VCLP00) (09:46) (22MAR04) ORVYL'S COMMAND LANGUAGE PROCESSOR                                                     Page   43
0Current Usings:  (*,R7) (CLW,R10) (SCP,R11)
0Loc    Object Code    Addr1 Addr2  Stmt Lv Lineno    Source Statement           (Hibal 5, Asmedit 3.3)  HLASM R4.0  2004/03/22 09.46
+___    ______ ____    _____ _____  ____ __ ______    ______ _________
0                                   5208     772.     *  PROCESS ATTN
                                    5209     773.     *
 000BE8 9823 A368            00368  5210     774.     ATTEN    LM    SR,TR,CLWSBPSW            COMPUTE INST. ADDR
 000BEC 8820 000D            0000D  5211     775.              SRL   SR,8+6-1
 000BF0 5420 7DAE            00DB0  5212     776.              N     SR,=A(6)
 000BF4 1F32                        5213     777.              SLR   TR,SR
 000BF6 9110 A208      00208        5214     778.              IF    ~CLWFTRAP,ATTNBRK       NOT A TRAP
 000BFA 47E0 7C0C            00C0E  5226             +
 000BFE 5530 A270            00270  5232     779.              CL    TR,CLWTRAPA             EXECUTED THE TRAP YET?
 000C02 4770 7B06            00B08  5233     780.              BNE   TRAPDONE               BR IF SO
 000C06 9610 A209      00209        5234     781.              SET   CLWPFRUN                CONTINUE EXECUTION
 000C0A 47F0 7EF8            00EFA  5240     782.              B     READ
                                    5241     783.
 000C0E                             5242     784.     ATTNBRK  DS    0H
 000C0E 4D90 7D34            00D36  5243     785.              LCALL BREAK
 000C12 1813                        5245     786.              LR    R1,TR
 000C14 5410 7DB2            00DB4  5246     787.              N     R1,=X'0FFFFFFF'
 000C18 5890 7DB6/0D99       00DB8  5247     788.              VCALL VSEGLOC
 000C1E 4110 7EB6            00EB8  5251     789.              VSEG  ', Attention'
 000C22 4100 000B            0000B  5255             +
 000C26 5890 7DAA/0D99       00DAC  5258             +
 000C2C 4100 000C            0000C  5260     790.              SENSE 12,1
 000C30 4110 0001/0AFA       00001  5274             +
 000C36 4780 7C60            00C62  5283     791.              BZ    ATTNWR
 000C3A 9140 A36B      0036B        5284     792.              IF    ~CLWSBPSW+3.SCBXA,ATTNXDIS    EXIT IS DISABLED
 000C3E 47E0 7C52            00C54  5296             +
 000C42 4110 7EC1            00EC3  5302     793.              VSEG  ' (Multiple attention)'
 000C46 4100 0015            00015  5306             +
 000C4A 5890 7DAA/0D99       00DAC  5309             +
 000C50 47F0 7C60            00C62  5311     794.              B     ATTNWR
 000C54 4110 7D86            00D88  5312     795.     ATTNXDIS VSEG  ' (Exit disabled)'
 000C58 4100 0010            00010  5316             +
 000C5C 5890 7DAA/0D99       00DAC  5319             +
 000C62 5890 7DC2/0D99       00DC4  5321     796.     ATTNWR   VWRITE
 000C68 47F0 7EF8            00EFA  5326     797.              B     READ
                                    5327     798.
1VCLP     (VCLP00) (09:46) (22MAR04) ORVYL'S COMMAND LANGUAGE PROCESSOR                                                     Page   44
0Current Usings:  (*,R7) (CLW,R10) (SCP,R11)
0Loc    Object Code    Addr1 Addr2  Stmt Lv Lineno    Source Statement           (Hibal 5, Asmedit 3.3)  HLASM R4.0  2004/03/22 09.46
+___    ______ ____    _____ _____  ____ __ ______    ______ _________
0                                   5329     800.     *  PROCESS TIMER FIRE
                                    5330     801.     *
 000C6C                             5331     802.     TIMER    DS    0H
 000C6C 9140 A20B      0020B        5332     803.              IF    CLWFPRGL,BEGIN
 000C70 47E0 7C88            00C8A  5342             +
 000C74 D247 A368 B0B8 00368 000B8  5347  1  804.                MVC   CLWSBPSW(72),SCPSBPSW
 000C7A 5890 7DF2/0D99       00DF4  5348  1  805.                VCALL PROGMON                 IF PROGLOOK, MONITOR PROGRAM
 000C80 4100 000A            0000A  5352  1  806.                VSET  10,CLWSBPSW                 AND RETURN TO USER PROGRAM
 000C84 4110 A368/0AFB       00368  5366  1          +
 000C8A                             5376     807.              END
 000C8A                             5380     808.              IF   (CLWTIVAL,NE,0),BEGIN
 000C8A D501 7D62 A232 00D64 00232  5392             +
 000C90 4780 7C9C            00C9E  5393             +
 000C94 5890 7DF6/0D99       00DF8  5398  1  809.                VCALL TIMEOUT                 IF TIMER EXPIRED, WARN USER
 000C9A 47F0 7EF8            00EFA  5402  1  810.                B     READ                         AND ASK TO CONTINUE
 000C9E                             5403     811.              END
                                    5407     812.     * EXIT SVC
                                    5408     813.     *
 000C9E                             5409     814.     EXITSVC  DS    0H
 000C9E 5870 7DFA            00DFC  5410     815.              L     BR,=A(NEXT)
 000CA2 47F0 7398            00398  5411     816.              B     EXIT-NEXT(,BR)
1VCLP     (VCLP00) (09:46) (22MAR04) ORVYL'S COMMAND LANGUAGE PROCESSOR                                                     Page   45
0Current Usings:  (*,R7) (CLW,R10) (SCP,R11)
0Loc    Object Code    Addr1 Addr2  Stmt Lv Lineno    Source Statement           (Hibal 5, Asmedit 3.3)  HLASM R4.0  2004/03/22 09.46
+___    ______ ____    _____ _____  ____ __ ______    ______ _________
0                                   5413     818.     *  COMMAND
                                    5414     819.     *
 000CA6                             5415     820.     COMMAND  DS    0H
 000CA6 9640 A207      00207        5416     821.              SET   CLWFCMD
 000CAA 9801 A370            00370  5422     822.              LM    R0,R1,CLWSBGPR          TEST IF CMD WAS TYPED
 000CAE 1200/4770 7CB6       00CB8  5423     823.              IF    (R0,Z),'SET  CLWFTYPD'  COMMAND TYPED
 000CB4 9680 A207      00207        5443             +
 000CB8 1211/4740 7CC0       00CC2  5448     824.              IF    (R1,NM),'SET  CLWFWYL'  WYLBUR NOT WANTED
 000CBE 9620 A207      00207        5468             +
 000CC2 9180 A20C      0020C        5473     825.              IF    CLWSSAM,'SET  CLWFWYL'  WYLBUR NOT WANTED
 000CC6 47E0 7CCC            00CCE  5483             +
 000CCA 9620 A207      00207        5494             +
 000CCE 1011                        5499     826.              LPR   R1,R1                   COMMAND LOC
 000CD0 5800 A3AC            003AC  5500     827.              L     R0,CLWSBGPR+15*4        LENGTH
 000CD4 1BFF                        5501     828.              CLEAR R15                     SET RETURN CODE
 000CD6 50F0 A3AC            003AC  5505     829.              ST    R15,CLWSBGPR+15*4
 000CDA 94CF A36A      0036A        5506     830.              NI    CLWSBPSW+2,X'CF'        CLEAR CC
 000CDE 1020                        5507     831.              LPR   SR,R0
 000CE0 4770 7CEA            00CEC  5508     832.              IF    Z,BEGIN
 000CE4 5870 7DFA            00DFC  5519  1  833.                L     BR,=A(NEXT)
 000CE8 47F0 7184            00184  5520  1  834.                B     CMDRET-NEXT(,BR)        ALL DONE
 000CEC                             5521     835.              END   ,
 000CEC 5920 7DFE            00E00  5525     836.              CEIL  SR,CLWIBUFL
 000CF0 47D0 7CF6            00CF8  5534             +
 000CF4 5820 7DFE            00E00  5539             +
 000CF8 4020 A028            00028  5544     837.              STH   SR,CLWIBUFN             POS BUFF LENGTH
 000CFC 9180 A36C      0036C        5545     838.              TM    CLWSBPSW+4,X'80'
 000D00 47E0 7D18            00D1A  5546     839.              IF    O,BEGIN                 IF USER IN 31 BIT MODE
 000D04 41F0 7D0C            00D0E  5557  1  840.                LA    R15,COMMAN2
 000D08 56F0 7DDE            00DE0  5558  1  841.                O     R15,=X'80000000'
 000D0C 0B0F                        5559  1  842.                BSM   0,R15
 000D0E                             5560  1  843.     COMMAN2    LABEL ,
 000D0E 0620/4420 7EEC       00EEE  5562  1  844.                DEX   SR,'MVC  CLWIBUF(0),@R1'
 000EEE D200 A02D 1000 0002D 00000  5573  1          +
 000D14 41F0 7D18            00D1A  5581  1  845.                LA    R15,COMMAN3
 000D18 0B0F                        5582  1  846.                BSM   0,R15
 000D1A                             5583  1  847.     COMMAN3    LABEL ,
 000D1A                             5585     848.              END   ,
 000D1A 7D1C           00D1A 00D02  5589     849.              ELSE  BEGIN
 000D1A 47F0 7D22            00D24  5594             +
 000D1E 0620/4420 7EF2       00EF4  5600  1  850.                DEX   SR,'MVC  CLWIBUF(0),@R1'
 000EF4 D200 A02D 1000 0002D 00000  5611  1          +
 000D24                             5619     851.              END   ,
 000D24 5870 7DFA            00DFC  5623     852.              L     BR,=A(NEXT)
 000D28 1820                        5624     853.              LR    SR,R0
 000D2A 1000                        5625     854.              LPR   R0,R0
 000D2C 1222                        5626     855.              LTR   SR,SR                   POS LENGTH?
 000D2E 47D0 7366            00366  5627     856.              IF    NP,SENDWYL-NEXT(,BR)
 000D32 47F0 70A2            000A2  5641     857.              B     VERBSCAN-NEXT(,BR)      JUMP INTO COMMAND LOOP
1VCLP     (VCLP00) (09:46) (22MAR04) ORVYL'S COMMAND LANGUAGE PROCESSOR                                                     Page   46
0Current Usings:  (*,R7) (CLW,R10) (SCP,R11)
0Loc    Object Code    Addr1 Addr2  Stmt Lv Lineno    Source Statement           (Hibal 5, Asmedit 3.3)  HLASM R4.0  2004/03/22 09.46
+___    ______ ____    _____ _____  ____ __ ______    ______ _________
0000D36 9029 D000            00000  5643     859.     BREAK    VPUSH SR,RAR,*                SAVE RETURN
 000D3A 41D0 D020            00020  5645             +
 000D3E 4110 7ED6            00ED8  5646     860.              VSEG  'Session break at '
 000D42 4100 0011            00011  5650             +
 000D46 5890 7DAA/0D99       00DAC  5653             +
 000D4C 94EF A209      00209        5655     861.              CLEAR CLWPFRUN                CANCEL CONTINUE
 000D50                             5662     862.              CLEAR CLWEVCNT
 000D50 D703 A26C A26C 0026C 0026C  5668             +
 000D56 94FB A20A      0020A        5669     863.              CLEAR CLWMNOL                 CLEAR NOLIST
 000D5A 4BD0 7E34            00E36  5676     864.              VPOP  SR,RAR,*
 000D5E 9829 D000            00000  5678             +
 000D62 07F9                        5679     865.              BR    RAR
1VCLP     (VCLP00) (09:46) (22MAR04) ORVYL'S COMMAND LANGUAGE PROCESSOR                                                     Page   47
0Current Usings:  (*,R7) (CLW,R10) (SCP,R11)
0Loc    Object Code    Addr1 Addr2  Stmt Lv Lineno    Source Statement           (Hibal 5, Asmedit 3.3)  HLASM R4.0  2004/03/22 09.46
+___    ______ ____    _____ _____  ____ __ ______    ______ _________
0000D64 0000                        5681     867.              LTORG
 000D68 6B40E2A8A2A38594            5684                             =C', System'
 000D70 40C5A58595A3404D            5685                             =C' Event ('
 000D78 6B40D4969589A396            5686                             =C', Monitor code= '
 000D88 404DC5A789A34084            5687                             =C' (Exit disabled)'
 000D98 FEDCBA98                    5688                             =X'FEDCBA98'
 000D9C 00001DE0                    5689                             =A(CKLOGON)
 000DA0 00000000                    5690                             =V(CLRIDTS)
 000DA4 00000000                    5691                             =V(PROGRAMS)
 000DA8 00000000                    5692                             =V(CLRENQS)
 000DAC 00000000                    5693                             =V(VSEG)
 000DB0 00000006                    5694                             =A(6)
 000DB4 0FFFFFFF                    5695                             =X'0FFFFFFF'
 000DB8 00000000                    5696                             =V(VSEGLOC)
 000DBC 0000003F                    5697                             =X'0000003F'
 000DC0 00000000                    5698                             =V(BTD)
 000DC4 00000000                    5699                             =V(VWRITE)
 000DC8 00000000                    5700                             =V(READCORE)
 000DCC 0000003C                    5701                             =BL4'111100'
 000DD0 00000FFF                    5702                             =XL4'FFF'
 000DD4 00000000                    5703                             =V(BTX)
 000DD8 00000000                    5704                             =V(RITECORE)
 000DDC 00000004                    5705                             =F'4'
 000DE0 80000000                    5706                             =X'80000000'
 000DE4 0000000C                    5707                             =BL4'1100'
 000DE8 6B40C29981958388            5708                             =C', Branch to '
 000DF4 00000000                    5709                             =V(PROGMON)
 000DF8 00000000                    5710                             =V(TIMEOUT)
 000DFC 00000EFC                    5711                             =A(NEXT)
 000E00 000000EB                    5712                             =A(CLWIBUFL)
 000E04 0AFF                        5713                             =X'0AFF'
 000E06 0AFE                        5714                             =X'0AFE'
 000E08 0AFD                        5715                             =X'0AFD'
 000E0A C7C7                        5716                             =C'GG'
 000E0C C7D8                        5717                             =C'GQ'
 000E0E 0058                        5718                             =Y((L'KWR+3)/4*4)
 000E10 6B40E4A28599                5719                             =C', User'
 000E16 4097819589834083            5720                             =C' panic code = '
 000E24 404D                        5721                             =C' ('
 000E26 C685A383886B                5722                             =C'Fetch,'
 000E2C C2998195838840A3            5723                             =C'Branch to '
 000E36 0020                        5724                             =Y((RAR+1-(SR)+16*((SR)/(RAR+1))/((SR)/(RAR+1)))*4)
 000E38 4040C3D3D7                  5725                             =C'  CLP'
 000E3D D9C1D3                      5726                             =C'RAL'
 000E40 D4D7C4                      5727                             =C'MPD'
 000E43 C1D6E2                      5728                             =C'AOS'
 000E46 D6D9E5                      5729                             =C'ORV'
 000E49 C4C6C6                      5730                             =C'DFF'
 000E4C E2D9E2                      5731                             =C'SRS'
 000E4F D1E6E2                      5732                             =C'JWS'
 000E52 D7D1C7                      5733                             =C'PJG'
 000E55 D9D3C7                      5734                             =C'RLG'
 000E58 E2D3D7                      5735                             =C'SLP'
 000E5B E6C3D2                      5736                             =C'WCK'
1VCLP     (VCLP00) (09:46) (22MAR04) ORVYL'S COMMAND LANGUAGE PROCESSOR                                                     Page   48
0Current Usings:  (*,R7) (CLW,R10) (SCP,R11)
0Loc    Object Code    Addr1 Addr2  Stmt Lv Lineno    Source Statement           (Hibal 5, Asmedit 3.3)  HLASM R4.0  2004/03/22 09.46
+___    ______ ____    _____ _____  ____ __ ______    ______ _________
0000E5E E7E7E7                      5737                             =C'XXX'
 000E61 E9E9E9                      5738                             =C'ZZZ'
 000E64 C3D3D74085999996            5739                             =C'CLP error, '
 000E6F C995A3859999A497            5740                             =C'Interrupt at '
 000E7C 5D                          5741                             =C')'
 000E7D 4B                          5742                             =C'.'
 000E7E E2A39699854081A3            5743                             =C'Store at '
 000E87 6F6F6B                      5744                             =C'??,'
 000E8A 6B                          5745                             =C','
 000E8B D9858789A2A38599            5746                             =C'Register)'
 000E94 D4969589A3969940            5747                             =C'Monitor class= '
 000EA3 6B40D781A4A285              5748                             =C', Pause'
 000EAA 80                          5749                             =X'80'
 000EAB 6B40E399819740A2            5750                             =C', Trap sprung'
 000EB8 6B40C1A3A38595A3            5751                             =C', Attention'
 000EC3 404DD4A493A38997            5752                             =C' (Multiple attention)'
 000ED8 E285A2A289969540            5753                             =C'Session break at '
1VCLP     (VCLP00) (09:46) (22MAR04) ORVYL'S COMMAND LANGUAGE PROCESSOR                                                     Page   49
0Current Usings:  (*,R7) (CLW,R10) (SCP,R11)
0Loc    Object Code    Addr1 Addr2  Stmt Lv Lineno    Source Statement           (Hibal 5, Asmedit 3.3)  HLASM R4.0  2004/03/22 09.46
+___    ______ ____    _____ _____  ____ __ ______    ______ _________
0                                   5758     869.     *  GET NEXT COMMAND
                                    5759     870.     *
 000EFA 0D70                        5760     871.     READ     BASE  BR                      SET UP BASE
 DROP   *,R7
 USING  *,R7
 000EFC                             5777     872.     NEXT     DS    0H
 000EFC 41D0 A3C0            003C0  5778     873.              LA    R13,CLWSVA              SAVE AREA
 000F00 9140 A207      00207        5779     874.              IF    CLWFCMD,CMDRET          COMMAND SVC
 000F04 4710 7184            01080  5791             +
 000F08 9108 A209      00209        5797     875.              IF    CLWPFPAU,PAURET         PAUSE NOW
 000F0C 4710 71B0            010AC  5809             +
 000F10 9110 A209      00209        5815     876.              IF    CLWPFRUN,GORUN          RUN
 000F14 4710 702C            00F28  5827             +
 000F18 5810 A26C/1211       0026C  5833     877.              IF    ('LT R1,CLWEVCNT',POS),BEGIN CHECK EVENT COUNTER
 000F1E 47D0 703C            00F38  5844             +
 000F22 0610                        5849  1  878.                DECR  R1
 000F24 5010 A26C            0026C  5851  1  879.                ST    R1,CLWEVCNT
 000F28 9140 B261      00261        5852  1  880.     GORUN      IF    ~SCBCFCLA,RUN           NO ATTENTION
 000F2C 47E0 7614            01510  5865  1          +
 000F30 9620 B261      00261        5871  1  881.                SET   SCBCFAX                 SET ATTENTION INTERRUPT
 000F34 47F0 7614            01510  5877  1  882.                B     RUN
 000F38                             5878     883.              END
 000F38 D602 A2A8 A2A8 002A8 002A8  5882     884.              OC    CLWTTRAP(3),CLWTTRAP    ANY TRAP THERE?
 000F3E 4780 7068            00F64  5883     885.              BZ    GORU1
 000F42 D202 A2E9 A2A8 002E9 002A8  5884     886.              MVC   CLWTEMP+1(3),CLWTTRAP   ALIGN
 000F48 5810 A2E8            002E8  5885     887.              L     R1,CLWTEMP              ADDRESS TO REPAIR
 000F4C 4110 1000            00000  5886     888.              LA    R1,@R1                  CLEAN IT UP
 000F50 41F0 0002            00002  5887     889.              LA    R15,2                   LENGTH OF TEXT
 000F54 4100 A2AB            002AB  5888     890.              LA    R0,CLWTTRAP+3           ADDRESS OF TEXT
 000F58 5890 76BC/0D99       015B8  5889     891.              VCALL RITECORE                RESTORE
 000F5E                             5893     892.              CLEAR CLWTTRAP                CLEAR ENTRY
 000F5E D704 A2A8 A2A8 002A8 002A8  5899             +
 000F64                             5900     893.     GORU1    DS    0H
 000F64 D503 A614 76C0 00614 015BC  5901     894.              CLC   CLWSVAEN,=X'FEDCBA98'   STACK OVERFLOW?
 000F6A 4780 7078            00F74  5902     895.              IF    NE,BEGIN                YES
                                    5913  1  896.     *
                                    5914  1  897.     * STACK OVERFLOW...RESET THE INDICATOR
                                    5915  1  898.     *
 000F6E D203 A614 76C0 00614 015BC  5916  1  899.                MVC   CLWSVAEN,=X'FEDCBA98'   PUT IT BACK IN
 000F74                             5917     900.              END   ,
 000F74 4100 0001            00001  5921     901.              READ  LA:1,CLWIBUF,CLWIBUFL,MODE=EDIT
 000F78 4110 A02D            0002D  5933             +
 000F7C 41F0 00EB/13FF       000EB  5940             +
 000F82 1BEE/0AF7                   5945             +
 000F86 0AF2                        5949     902.              WAIT  (0)
 000F88 96A0 A207      00207        5957     903.              SET   CLWFTYPD+CLWFWYL
 000F8C 1211/07D7                   5966     904.              IF    (R1,NP),BR              NULL LINE
 000F90 4010 A028            00028  5983     905.              STH   R1,CLWIBUFN             SAVE COUNT
 000F94 12EE/4780 70A2       00F9E  5984     906.              IF    (R14,NZ),'CLEAR CLWFTYPD'  SET NOT TYPED
 000F9A 947F A207      00207        6005             +
-                                   6011     908.     *
                                    6012     909.     *  SCAN FOR VERB
1VCLP     (VCLP00) (09:46) (22MAR04) ORVYL'S COMMAND LANGUAGE PROCESSOR                                                     Page   50
0Current Usings:  (*,R7) (CLW,R10) (SCP,R11)
0Loc    Object Code    Addr1 Addr2  Stmt Lv Lineno    Source Statement           (Hibal 5, Asmedit 3.3)  HLASM R4.0  2004/03/22 09.46
+___    ______ ____    _____ _____  ____ __ ______    ______ _________
0                                   6013     910.     *
                                    6014     911.     *
 000F9E                             6015     912.     VERBSCAN DS    0H
 000F9E 94BF B261      00261        6016     913.              CLEAR SCBCFCLA                CLEAR ATTN FLAG
                                    6023     914.     *
                                    6024     915.     * MOVE 1ST N CHARACTERS INTO SCP FOR DEBUGGING
                                    6025     916.     *
 000FA2 4810 A028            00028  6026     917.              LH    R1,CLWIBUFN             GET THE ACTUAL SIZE
 000FA6 5910 76C4            015C0  6027     918.              CEIL  R1,L'SCPLCMD            MAX LENGTH TO MOVE
 000FAA 47D0 70B6            00FB2  6036             +
 000FAE 5810 76C4            015C0  6041             +
 000FB2 4010 B22C            0022C  6046     919.              STH   R1,SCPLCMDL             SAVE THE LENGTH
 000FB6 0610/4410 77B8       016B4  6047     920.              DEX   R1,'MVC SCPLCMD(0),CLWIBUF'
 0016B4 D200 B22E A02D 0022E 0002D  6058             +
                                    6066     921.     *
 000FBC 4110 A02D            0002D  6067     922.              SCINIT CLWIBUF,LH:CLWIBUFN,CLWKWCB  SET FOR SCAN
 000FC0 4800 A028            00028  6078             +
 000FC4 41F0 A2C4            002C4  6085             +
 000FC8 58E0 76C8/0DEE       015C4  6088             +
 000FCE 4110 71C8            010C4  6090     923.              SCAN  VERBTBL,CLWKWCB         SCAN FOR VERB
 000FD2 41F0 A2C4            002C4  6104             +
 000FD6 58E0 76CC/0DEE       015C8  6107             +
                                    6109     924.
 000FDC                             6110     925.     SCRET    DS    0H
 000FDC 1000                        6111     926.              LPR   R0,0                    SCAN OK?
 000FDE 0787                        6112     927.              BZR   BR                      BR IF SO
 000FE0 5890 76D0/0D99       015CC  6113     928.              VSEG  (1),(0)
 000FE6 4110 769C            01598  6130     929.              VSEG  ': Invalid string'
 000FEA 4100 0010            00010  6134             +
 000FEE 5890 76D0/0D99       015CC  6137             +
                                    6139     930.     *
                                    6140     931.     *  PROCESS ERROR
                                    6141     932.     *
 000FF4 5890 76D4/0D99       015D0  6142     933.     ERROR    VCALL TYPEIT                  GO TYPE COMMAND AND ERRMSG
 000FFA 07F7                        6146     934.              BR    BR
                                    6147     935.     *  PROCESS UNIMPLEMENTED COMMAND
                                    6148     936.     *
 000FFC                             6149     937.     NOTYET   DS    0H
 000FFC 5890 76D0/0D99       015CC  6150     938.              VSEG  (1),(0)
 001002 4110 772C            01628  6167     939.              VSEG  ': Function not yet implemented'
 001006 4100 001E            0001E  6171             +
 00100A 5890 76D0/0D99       015CC  6174             +
 001010 47F0 70F8            00FF4  6176     940.              B     ERROR
1VCLP     (VCLP00) (09:46) (22MAR04) ORVYL'S COMMAND LANGUAGE PROCESSOR                                                     Page   51
0Current Usings:  (*,R7) (CLW,R10) (SCP,R11)
0Loc    Object Code    Addr1 Addr2  Stmt Lv Lineno    Source Statement           (Hibal 5, Asmedit 3.3)  HLASM R4.0  2004/03/22 09.46
+___    ______ ____    _____ _____  ____ __ ______    ______ _________
0001014                             6178     942.     UNREC    DS    0H
 001014 5890 76D0/0D99       015CC  6179     943.              VSEG  (1),(0)
 00101A 4110 7770            0166C  6196     944.              VSEG  ': unrecognized '
 00101E 4100 000F            0000F  6200             +
 001022 5890 76D0/0D99       015CC  6203             +
 001028 1222/4780 714A       01046  6205     945.              IF    (SR,NZ),BEGIN
 00102E 1813/1802                   6219  1  946.                VSEG  (TR),(SR)
 001032 5890 76D0/0D99       015CC  6234  1          +
 001038 4110 777F            0167B  6236  1  947.                VSEG  ' option'
 00103C 4100 0007            00007  6240  1          +
 001040 5890 76D0/0D99       015CC  6243  1          +
 001046 714E           01046 0102C  6245     948.              END   ELSE,BEGIN
 001046 47F0 715C            01058  6254             +
 00104A 4110 7786            01682  6260  1  949.                VSEG  'command'
 00104E 4100 0007            00007  6264  1          +
 001052 5890 76D0/0D99       015CC  6267  1          +
 001058                             6269     950.              END   ,
 001058 47F0 70F8            00FF4  6273     951.              B     ERROR
                                    6274     952.     *
                                    6275     953.     *  HERE FOR INVALID VALUE
                                    6276     954.     *
 00105C 4110 778D            01689  6277     955.     ILLVAL   VSEG  'Invalid value'
 001060 4100 000D            0000D  6281             +
 001064 5890 76D0/0D99       015CC  6284             +
 00106A 47F0 70F8            00FF4  6286     956.              B     ERROR
                                    6287     957.     *
                                    6288     958.     *  OPERAND MISSING
                                    6289     959.     *
 00106E 4110 76AC            015A8  6290     960.     MISSING  VSEG  'Operand missing.'
 001072 4100 0010            00010  6294             +
 001076 5890 76D0/0D99       015CC  6297             +
 00107C 47F0 70F8            00FF4  6299     961.              B     ERROR
1VCLP     (VCLP00) (09:46) (22MAR04) ORVYL'S COMMAND LANGUAGE PROCESSOR                                                     Page   52
0Current Usings:  (*,R7) (CLW,R10) (SCP,R11)
0Loc    Object Code    Addr1 Addr2  Stmt Lv Lineno    Source Statement           (Hibal 5, Asmedit 3.3)  HLASM R4.0  2004/03/22 09.46
+___    ______ ____    _____ _____  ____ __ ______    ______ _________
0                                   6301     963.     *
                                    6302     964.     *  RETURN FROM COMMAND SVC
                                    6303     965.     *
 001080 58F0 A3AC            003AC  6304     966.     CMDRET   L     R15,CLWSBGPR+15*4       RETURN CODE
 001084 12FF                        6305     967.              LTR   R15,R15                 SET CONDITION CODE
 001086 05F0                        6306     968.              BALR  R15,0
 001088 88F0 0010            00010  6307     969.              SRL   R15,16
 00108C 54F0 76D8            015D4  6308     970.              N     R15,=XL4'00003000'
 001090 94CF A36A      0036A        6309     971.              NI    CLWSBPSW+2,X'CF'
 001094 56F0 A368            00368  6310     972.              O     R15,CLWSBPSW
 001098 50F0 A368            00368  6311     973.              ST    R15,CLWSBPSW
 00109C 94BF A207      00207        6312     974.              CLEAR CLWFCMD
 0010A0 9610 A209      00209        6319     975.              SET   CLWPFRUN
 0010A4 94BF B261      00261        6325     976.              CLEAR SCBCFCLA                CLEAR ATTN FLAG
 0010A8 47F0 7000            00EFC  6332     977.              B     NEXT
                                    6333     978.     *
                                    6334     979.     * SIMULATE A PAUSE
                                    6335     980.     *
 0010AC 94E7 A209      00209        6336     981.     PAURET   CLEAR CLWPFRUN+CLWPFPAU       CANCEL RUN REQUEST
 0010B0 9120 A209      00209        6347     982.              IF    ~CLWPFPIC,'B  NEXT'     NO PROGRAM EXECUTING
 0010B4 4710 71C0            010BC  6357             +
 0010B8 47F0 7000            00EFC  6363             +
 0010BC 5870 76DC            015D8  6368     983.              L     BR,=A(ENTBASE)
 0010C0 47F0 76FA            006FA  6369     984.              B     (PAUSEXIT-ENTBASE)(,BR)
1VCLP     (VCLP00) (09:46) (22MAR04) ORVYL'S COMMAND LANGUAGE PROCESSOR                                                     Page   53
0Current Usings:  (*,R7) (CLW,R10) (SCP,R11)
0Loc    Object Code    Addr1 Addr2  Stmt Lv Lineno    Source Statement           (Hibal 5, Asmedit 3.3)  HLASM R4.0  2004/03/22 09.46
+___    ______ ____    _____ _____  ____ __ ______    ______ _________
0                                   6371     986.     *  VERB TABLE
                                    6372     987.     *
 0010C4                             6373     988.     VERBTBL  DS    0X
 0010C4                             6374     989.              SCKW  SET,SET
 0010C4 020013A2E2C5E3              6375             +
 0010CB                             6376     990.              SCKW  SHOW,SHOW,A
 0010CB 0B00143CE2C8D6E6            6377             +
 0010D3                             6378     991.              SCKW  CLEAR,CLEAR,A
 0010D3 0C0013D2C3D3C5C1            6379             +
 0010DC                             6380     992.              SCKW  CLR,CLEAR
 0010DC 020013D2C3D3D9              6381             +
 0010E3                             6382     993.              SCKW  PATCH,PATCH,A
 0010E3 0C0014A6D7C1E3C3            6383             +
 0010EC                             6384     994.              SCKW  DUMP,DUMP,A
 0010EC 0B001450C4E4D4D7            6385             +
 0010F4                             6386     995.              SCKW  DUMPN,DUMPN
 0010F4 04001450C4E4D4D7            6387             +
 0010FD                             6388     996.              SCKW  LOGOFF,BYEBYE           PASS THE BUCK
 0010FD 0500133CD3D6C7D6            6389             +
 001107                             6390     997.              SCKW  REL,INVALID             SEND IT TO WYLBUR
 001107 02001260D9C5D3              6391             +
                                    6393     999.              VPMTAB KWRT
 00110E 0B001294C5E7C9E3            6395    02-SCKW  +         DC    AL1(11),AL3(EXIT),CL4'EXIT'
 001116 0B00129CD3C9D5D2            6397    02-SCKW  +         DC    AL1(11),AL3(LINK),CL4'LINK'
 00111E 0D0012A4E4D5D3D6            6399    02-SCKW  +         DC    AL1(13),AL3(UNLOAD),CL6'UNLOAD'
 001128 0D0012ACD9C5D3D6            6401    02-SCKW  +         DC    AL1(13),AL3(RELOAD),CL6'RELOAD'
 001132 0B0012B4C3C1D3D3            6403    02-SCKW  +         DC    AL1(11),AL3(CALL),CL4'CALL'
 00113A 0C0012BCC5D5E3C5            6405    02-SCKW  +         DC    AL1(12),AL3(ENTER),CL5'ENTER'
 001143 090012C4C7D6                6407    02-SCKW  +         DC    AL1(9),AL3(GO),CL2'GO'
 001149 0B0012CCC1E3E3D5            6409    02-SCKW  +         DC    AL1(11),AL3(ATTN),CL4'ATTN'
 001151 0C0012D4D7C1E4E2            6411    02-SCKW  +         DC    AL1(12),AL3(PAUSE),CL5'PAUSE'
                                    6412    1000.              SCKW  G,GO
 00115A 000012C4C7                  6413    01-SCKW  +         DC    AL1(0),AL3(GO),CL1'G'
                                    6414    1001.              SCKW  ATTEN,ATTN,A
 00115F 0C0012CCC1E3E3C5            6415    01-SCKW  +         DC    AL1(12),AL3(ATTN),CL5'ATTEN'
                                    6416    1002.              VGPTAB KWRT
 001168 0D0012E4C3D9C5C1            6418    02-SCKW  +         DC    AL1(13),AL3(CREATE),CL6'CREATE'
 001172 0C0012ECC5D9C1E2            6420    02-SCKW  +         DC    AL1(12),AL3(ERASE),CL5'ERASE'
 00117B 0A0012F4C7C5E3              6422    02-SCKW  +         DC    AL1(10),AL3(GET),CL3'GET'
 001182 0A0012FCD7E4E3              6424    02-SCKW  +         DC    AL1(10),AL3(PUT),CL3'PUT'
 001189 0D001304D9C5D5C1            6426    02-SCKW  +         DC    AL1(13),AL3(RENAME),CL6'RENAME'
 001193 0D00130CE2C8D9C9            6428    02-SCKW  +         DC    AL1(13),AL3(SHRINK),CL6'SHRINK'
 00119D 0B001314C6C2C1D3            6430    02-SCKW  +         DC    AL1(11),AL3(FBAL),CL4'FBAL'
                                    6431    1003.              VFSHTAB KWRT
                                    6432    1004.              VPSTAB KWRT
 0011A5 0F00132CD7D9D6C7            6434    02-SCKW  +         DC    AL1(15),AL3(PROGLOOK),CL8'PROGLOOK'
 0011B1 01001420E2D7                6436    1006.              SCKW  SP,SHABBR
 0011B7 01001420E2C7                6438    1007.              SCKW  SG,SHABBR
 0011BD                             6440    1008.              SCKW  SET,SHABBR
 0011BD 02001420E2C5E3              6441             +
 0011C4 01001420E2C3                6442    1009.              SCKW  SC,SHABBR
 0011CA                             6444    1010.              SCKW  SOSC,SHABBR             SHO OS CORE
 0011CA 03001420E2D6E2C3            6445             +
 0011D2 01001420E2C1                6446    1011.              SCKW  SA,SHABBR               SHO ADDRESS
1VCLP     (VCLP00) (09:46) (22MAR04) ORVYL'S COMMAND LANGUAGE PROCESSOR                                                     Page   54
0Current Usings:  (*,R7) (CLW,R10) (SCP,R11)
0Loc    Object Code    Addr1 Addr2  Stmt Lv Lineno    Source Statement           (Hibal 5, Asmedit 3.3)  HLASM R4.0  2004/03/22 09.46
+___    ______ ____    _____ _____  ____ __ ______    ______ _________
00011D8                             6448    1012.              SCKW  SOSA,SHABBR             SHO OS ADDRESS
 0011D8 03001420E2D6E2C1            6449             +
 0011E0                             6450    1013.              SCKW  SSG,SHABBR
 0011E0 02001420E2E2C7              6451             +
 0011E7                             6452    1014.              SCKW  SSP,SHABBR
 0011E7 02001420E2E2D7              6453             +
 0011EE                             6454    1015.              SCKW  SCG,SHABBR
 0011EE 02001420E2C3C7              6455             +
 0011F5                             6456    1016.              SCKW  SCP,SHABBR
 0011F5 02001420E2C3D7              6457             +
 0011FC 0100148AD7C3                6458    1017.              SCKW  PC,PATABBR
 001202                             6460    1018.              SCKW  POSC,PATABBR
 001202 0300148AD7D6E2C3            6461             +
 00120A 0100148AD7C7                6462    1019.              SCKW  PG,PATABBR
 001210 0100148AD7C6                6464    1020.              SCKW  PF,PATABBR
 001216                             6466    1021.              SCKW  PIA,PATABBR
 001216 0200148AD7C9C1              6467             +
 00121D 0100148AD7D7                6468    1022.              SCKW  PP,PATABBR
 001223                             6470    1023.              SCKW  PSG,PATABBR
 001223 0200148AD7E2C7              6471             +
 00122A                             6472    1024.              SCKW  PSP,PATABBR
 00122A 0200148AD7E2D7              6473             +
 001231                             6474    1025.              SCKW  PSIA,PATABBR
 001231 0300148AD7E2C9C1            6475             +
 001239 01001386E2E3                6476    1026.              SCKW  ST,SETABBR
 00123F 010013B6C3E3                6478    1027.              SCKW  CT,CLRABBR
 001245                             6480    1028.              SCKW  CTS,CLRABBR
 001245 020013B6C3E3E2              6481             +
 00124C                             6482    1029.              SCKW  STS,SHABBR
 00124C 02001420E2E3E2              6483             +
 001253                             6484    1030.              SCKW  ABORT,GOABORT
 001253 040014C2C1C2D6D9            6485             +
 00125C FF001260                    6486    1031.              SCKW  ,INVALID
1VCLP     (VCLP00) (09:46) (22MAR04) ORVYL'S COMMAND LANGUAGE PROCESSOR                                                     Page   55
0Current Usings:  (*,R7) (CLW,R10) (SCP,R11)
0Loc    Object Code    Addr1 Addr2  Stmt Lv Lineno    Source Statement           (Hibal 5, Asmedit 3.3)  HLASM R4.0  2004/03/22 09.46
+___    ______ ____    _____ _____  ____ __ ______    ______ _________
0                                   6489    1033.     *
                                    6490    1034.     *  UNRECOGNIZED COMMAND
                                    6491    1035.     *
 001260                             6492    1036.     INVALID  LABEL ,
 001260 1B22                        6494    1037.              CLEAR SR
                                    6498    1038.     *
                                    6499    1039.     *  SEND UNRECOGNIZED COMMAND TO WYLBUR
                                    6500    1040.     *
 001262                             6501    1041.     SENDWYL  LABEL ,
 001262 9120 A207      00207        6503    1042.              IF    CLWFWYL,UNREC
 001266 4710 7118            01014  6515             +
 00126A 4110 A02D            0002D  6521    1043.              LA    R1,CLWIBUF
 00126E 48F0 A028            00028  6522    1044.              LH    R15,CLWIBUFN
 001272 1BEE                        6523    1045.              CLEAR R14                     ASSUME TYPED
 001274 9180 A207      00207        6527    1046.              IF    ~CLWFTYPD,'LA  R14,1'   SIGNAL NOT TYPED
 001278 4710 7384            01280  6537             +
 00127C 41E0 0001            00001  6543             +
 001280 4100 0001/13FF       00001  6548    1047.              WRITE LA:1,(1),(15),(14),MODE=EDIT
 001286 0AF6                        6569             +
 001288 0AF2                        6571    1048.              WAIT  (0)
 00128A 07B7                        6579    1049.              BNMR  BR                      WYLBUR LIKED IT
 00128C 9680 A207      00207        6580    1050.              SET   CLWFTYPD                ERROR MSG ALREADY WRITTEN
 001290 47F0 70F8            00FF4  6586    1051.              B     ERROR
1VCLP     (VCLP00) (09:46) (22MAR04) ORVYL'S COMMAND LANGUAGE PROCESSOR                                                     Page   56
0Current Usings:  (*,R7) (CLW,R10) (SCP,R11)
0Loc    Object Code    Addr1 Addr2  Stmt Lv Lineno    Source Statement           (Hibal 5, Asmedit 3.3)  HLASM R4.0  2004/03/22 09.46
+___    ______ ____    _____ _____  ____ __ ______    ______ _________
0                                   6588    1053.     *
                                    6589    1054.     * PROGRAM PROCESSING
                                    6591    1056.              VPMTAB CLPTAB,15
 001294 41F0 0000            00000  6592    01-VPMTA +EXIT      LA   15,(1-1)*4
 001298 47F0 73E0            012DC  6593    01-VPMTA +         B     $2841
 00129C 41F0 0004            00004  6594    01-VPMTA +LINK      LA   15,(2-1)*4
 0012A0 47F0 73E0            012DC  6595    01-VPMTA +         B     $2841
 0012A4 41F0 0008            00008  6596    01-VPMTA +UNLOAD    LA   15,(3-1)*4
 0012A8 47F0 73E0            012DC  6597    01-VPMTA +         B     $2841
 0012AC 41F0 000C            0000C  6598    01-VPMTA +RELOAD    LA   15,(4-1)*4
 0012B0 47F0 73E0            012DC  6599    01-VPMTA +         B     $2841
 0012B4 41F0 0010            00010  6600    01-VPMTA +CALL      LA   15,(5-1)*4
 0012B8 47F0 73E0            012DC  6601    01-VPMTA +         B     $2841
 0012BC 41F0 0014            00014  6602    01-VPMTA +ENTER     LA   15,(6-1)*4
 0012C0 47F0 73E0            012DC  6603    01-VPMTA +         B     $2841
 0012C4 41F0 0018            00018  6604    01-VPMTA +GO        LA   15,(7-1)*4
 0012C8 47F0 73E0            012DC  6605    01-VPMTA +         B     $2841
 0012CC 41F0 001C            0001C  6606    01-VPMTA +ATTN      LA   15,(8-1)*4
 0012D0 47F0 73E0            012DC  6607    01-VPMTA +         B     $2841
 0012D4 41F0 0020            00020  6608    01-VPMTA +PAUSE     LA   15,(9-1)*4
 0012D8 47F0 73E0            012DC  6609    01-VPMTA +         B     $2841
                                    6610    01-VPMTA +$2841    EQU   *
                                    6611    1057.              VCALL PROGRAMS
 0012DC 5890 76E0            015DC  6613    01-VCALL +         L     RAR,=V(PROGRAMS)
 0012E0 0D99                        6614    01-VCALL +         BASR  RAR,RAR
 0012E2 07F7                        6615    1058.              BR    BR                      NEXT COMMAND
1VCLP     (VCLP00) (09:46) (22MAR04) ORVYL'S COMMAND LANGUAGE PROCESSOR                                                     Page   57
0Current Usings:  (*,R7) (CLW,R10) (SCP,R11)
0Loc    Object Code    Addr1 Addr2  Stmt Lv Lineno    Source Statement           (Hibal 5, Asmedit 3.3)  HLASM R4.0  2004/03/22 09.46
+___    ______ ____    _____ _____  ____ __ ______    ______ _________
0                                   6618    1061.     *
                                    6619    1062.     * FILE PROCESSING
0                                   6621    1064.              VGPTAB CLPTAB,15              LOAD 15 WITH VGP CODE
 0012E4 41F0 0000            00000  6622    01-VGPTA +CREATE    LA   15,(1-1)*4
 0012E8 47F0 7420            0131C  6623    01-VGPTA +         B     $2843
 0012EC 41F0 0004            00004  6624    01-VGPTA +ERASE     LA   15,(2-1)*4
 0012F0 47F0 7420            0131C  6625    01-VGPTA +         B     $2843
 0012F4 41F0 0008            00008  6626    01-VGPTA +GET       LA   15,(3-1)*4
 0012F8 47F0 7420            0131C  6627    01-VGPTA +         B     $2843
 0012FC 41F0 000C            0000C  6628    01-VGPTA +PUT       LA   15,(4-1)*4
 001300 47F0 7420            0131C  6629    01-VGPTA +         B     $2843
 001304 41F0 0010            00010  6630    01-VGPTA +RENAME    LA   15,(5-1)*4
 001308 47F0 7420            0131C  6631    01-VGPTA +         B     $2843
 00130C 41F0 0014            00014  6632    01-VGPTA +SHRINK    LA   15,(6-1)*4
 001310 47F0 7420            0131C  6633    01-VGPTA +         B     $2843
 001314 41F0 0018            00018  6634    01-VGPTA +FBAL      LA   15,(7-1)*4
 001318 47F0 7420            0131C  6635    01-VGPTA +         B     $2843
                                    6636    01-VGPTA +$2843    EQU   *
 00131C 5890 76E4/0D99       015E0  6638    1066.              VCALL FILES                   0 HAS KEYWORD LENGTH
 001322 07F7                        6642    1067.              BR    BR
1VCLP     (VCLP00) (09:46) (22MAR04) ORVYL'S COMMAND LANGUAGE PROCESSOR                                                     Page   58
0Current Usings:  (*,R7) (CLW,R10) (SCP,R11)
0Loc    Object Code    Addr1 Addr2  Stmt Lv Lineno    Source Statement           (Hibal 5, Asmedit 3.3)  HLASM R4.0  2004/03/22 09.46
+___    ______ ____    _____ _____  ____ __ ______    ______ _________
0                                   6644    1069.              VFSHTAB CLPTAB,15              LOAD 15 WITH VFSH CODE
 001324 5890 76E8/0D99       015E4  6646    1070.              VCALL FILESHOW                0 HAS KEYWORD LENGTH
 00132A 07F7                        6650    1071.              BR    BR
-
-                                   6652    1073.     *  PROGRAM SERVICES PROCESSING
                                    6653    1074.     *
                                    6655    1076.              VPSTAB CLPTAB,15
 00132C 41F0 0000            00000  6656    01-VPSTA +PROGLOOK  LA   15,(1-1)*4
 001330 47F0 7438            01334  6657    01-VPSTA +         B     $2847
                                    6658    01-VPSTA +$2847    EQU   *
 001334 5890 76EC/0D99       015E8  6660    1078.              VCALL PROGSERV
 00133A 07F7                        6664    1079.              BR    BR
-
1VCLP     (VCLP00) (09:46) (22MAR04) ORVYL'S COMMAND LANGUAGE PROCESSOR                                                     Page   59
0Current Usings:  (*,R7) (CLW,R10) (SCP,R11)
0Loc    Object Code    Addr1 Addr2  Stmt Lv Lineno    Source Statement           (Hibal 5, Asmedit 3.3)  HLASM R4.0  2004/03/22 09.46
+___    ______ ____    _____ _____  ____ __ ______    ______ _________
0                                   6667    1082.     *
                                    6668    1083.     *  PROCESS THE LOGOFF COMMAND
                                    6669    1084.     *
 00133C 9180 A20C      0020C        6670    1085.     BYEBYE   IF    ~CLWSSAM,INVALID             DON'T DO IT
 001340 47E0 7364            01260  6683             +
 001344 4100 0001            00001  6689    1086.              WRITE LA:1,OFFMSG,L'OFFMSG
 001348 4110 7460            0135C  6701             +
 00134C 41F0 002A/0AF6       0002A  6708             +
 001352 0AF2                        6715    1087.              WAIT  (0)
 001354 5870 76DC            015D8  6723    1088.              L     BR,=A(ENTBASE)
 001358 47F0 7272            00272  6724    1089.              B     (LOGOFF-ENTBASE)(,BR)         FAKE THE ENTRY
 00135C                             6725    1090.     OFMSTRT  DS    0C
 00135C 27ADF2D127AD86              6726    1091.              DC    X'27ADF2D127AD86'
 001363 151515                      6727    1092.              DC    X'151515'
 001366 5C5C5C5C5C40C5D5            6728    1093.              DC    C'***** END OF ORVYL SESSION *****'
                                    6729    1094.     OFFMSG   EQU   OFMSTRT,*-OFMSTRT,C'C'
                                    6730    1095.     *
                                    6731    1096.     *  PROCESS SET COMMAND ABBREVIATIONS
                                    6732    1097.     *
 001386                             6733    1098.     SETABBR  DS    0H
 001386 1821                        6734    1099.              LR    SR,R1                   SAVE LOC OF TOKEN
 001388 58E0 76F0/0DEE       015EC  6735    1100.              SCTELL ,CLWKWCB               CURRENT POSITION
 00138E 1E01                        6743    1101.              ALR   R0,R1
 001390 1F02                        6744    1102.              SLR   R0,SR
 001392 0600                        6745    1103.              DECR  R0
 001394 4110 2001            00001  6747    1104.              SCINIT @SR+1,(0),CLWKWCB      SET NEW POSITION
 001398 41F0 A2C4            002C4  6766             +
 00139C 58E0 76C8/0DEE       015C4  6769             +
-
                                    6772    1106.     *
                                    6773    1107.     *  PROCESS SET COMMAND
                                    6774    1108.     *
 0013A2 5890 76F4/0D99       015F0  6775    1109.     SET      VCALL SET
 0013A8 0787                        6779    1110.              BZR   BR                      COMMAND PROCESSED
 0013AA 4130 779A            01696  6780    1111.              ERRMSG 'SET'
 0013AE 4120 0003            00003  6783             +
 0013B2 47F0 7366            01262  6784    1112.              B     SENDWYL                 MUST SEND TO WYLBUR
                                    6785    1113.
1VCLP     (VCLP00) (09:46) (22MAR04) ORVYL'S COMMAND LANGUAGE PROCESSOR                                                     Page   60
0Current Usings:  (*,R7) (CLW,R10) (SCP,R11)
0Loc    Object Code    Addr1 Addr2  Stmt Lv Lineno    Source Statement           (Hibal 5, Asmedit 3.3)  HLASM R4.0  2004/03/22 09.46
+___    ______ ____    _____ _____  ____ __ ______    ______ _________
0                                   6787    1115.     *  PROCESS CLEAR COMMAND ABBREVIATIONS
                                    6788    1116.     *
 0013B6                             6789    1117.     CLRABBR  DS    0H
 0013B6 1821                        6790    1118.              LR    SR,R1                   SAVE LOC OF TOKEN
 0013B8 58E0 76F0/0DEE       015EC  6791    1119.              SCTELL ,CLWKWCB               CURRENT POSITION
 0013BE 1E01                        6799    1120.              ALR   R0,R1
 0013C0 1F02                        6800    1121.              SLR   R0,SR
 0013C2 0600                        6801    1122.              DECR  R0
 0013C4 4110 2001            00001  6803    1123.              SCINIT @SR+1,(0),CLWKWCB      SET NEW POSITION
 0013C8 41F0 A2C4            002C4  6822             +
 0013CC 58E0 76C8/0DEE       015C4  6825             +
                                    6827    1124.     *
                                    6828    1125.     *  PROCESS CLEAR COMMAND
                                    6829    1126.     *
 0013D2 5890 76F8/0D99       015F4  6830    1127.     CLEAR    VCALL CLEAR
 0013D8 0787                        6834    1128.              BZR   BR                      WE LIKED IT
 0013DA 9120 A207      00207        6835    1129.              IF    ~CLWFWYL,SENDWYL        NOT BEEN TO WYLBUR YET
 0013DE 47E0 7366            01262  6847             +
 0013E2                             6853    1130.              LOOP  BEGIN
 0013E2 1B11/41F0 A2C4       002C4  6859  1 1131.                SCAN  ,CLWKWCB
 0013E8 58E0 76CC/0DEE       015C8  6873  1          +
 0013EE 4780 7522            0141E  6875  1 1132.                IF    Z,EXIT
 0013F2 5900 76FC            015F8  6889  1 1133.                CEIL  R0,16
 0013F6 47D0 7502            013FE  6898  1          +
 0013FA 5800 76FC            015F8  6903  1          +
 0013FE 5890 76D0/0D99       015CC  6908  1 1134.                VSEG  (R1),(R0)
 001404 4110 779D            01699  6923  1 1135.                VWRITE ': unrecognized CLEAR option'
 001408 4100 001B            0001B  6928  1          +
 00140C 5890 76D0/0D99       015CC  6931  1          +
 001412 5890 7700/0D99       015FC  6935  1          +
 001418 0777                        6937  1 1136.                BNZR  BR
 00141A 47F0 74E6            013E2  6938    1137.              END   ,
 00141E 07F7                        6943    1138.              BR    BR
1VCLP     (VCLP00) (09:46) (22MAR04) ORVYL'S COMMAND LANGUAGE PROCESSOR                                                     Page   61
0Current Usings:  (*,R7) (CLW,R10) (SCP,R11)
0Loc    Object Code    Addr1 Addr2  Stmt Lv Lineno    Source Statement           (Hibal 5, Asmedit 3.3)  HLASM R4.0  2004/03/22 09.46
+___    ______ ____    _____ _____  ____ __ ______    ______ _________
0                                   6945    1140.     *  PROCESS SHOW COMMAND ABBREVIATIONS
                                    6946    1141.     *
 001420                             6947    1142.     SHABBR   DS    0H
 001420 1821                        6948    1143.              LR    SR,R1                   SAVE LOC OF TOKEN
 001422 58E0 76F0/0DEE       015EC  6949    1144.              SCTELL ,CLWKWCB               CURRENT POSITION
 001428 1E01                        6957    1145.              ALR   R0,R1
 00142A 1F02                        6958    1146.              SLR   R0,SR
 00142C 0600                        6959    1147.              DECR  R0
 00142E 4110 2001            00001  6961    1148.              SCINIT @SR+1,(0),CLWKWCB      SET NEW POSITION
 001432 41F0 A2C4            002C4  6980             +
 001436 58E0 76C8/0DEE       015C4  6983             +
-
                                    6986    1150.     *
                                    6987    1151.     *  PROCESS SHOW COMMAND
                                    6988    1152.     *
 00143C 5890 7704/0D99       01600  6989    1153.     SHOW     VCALL SHOW
 001442 0787                        6993    1154.              BZR   BR
 001444 4130 7708            01604  6994    1155.              ERRMSG 'SHOW'
 001448 4120 0004            00004  6997             +
 00144C 47F0 7366            01262  6998    1156.              B     SENDWYL                 BR IF MUST SEND TO MILTEN
-
                                    7000    1158.     *
                                    7001    1159.     *  PROCESS DUMP COMMAND
                                    7002    1160.     *
 001450                             7003    1161.     DUMP     DS    0H
 001450 9601 A20A      0020A        7004    1162.     DUMPN    SET   CLWMDUMP
 001454 5890 7704/0D99       01600  7011    1163.              VCALL SHOW
 00145A 4780 756E            0146A  7015    1164.              IF    NZ,BEGIN
 00145E 4130 770C            01608  7026  1 1165.                ERRMSG 'DUMP'
 001462 4120 0004            00004  7029  1          +
 001466 47F0 7366            01262  7030  1 1166.                B     SENDWYL                 BR IF MUST SEND TO WYLBUR
 00146A                             7031    1167.              END   ,
 00146A 9101 A20A      0020A        7035    1168.              IF    CLWMDUMP,BEGIN         IF DUMP NOT ABORTED
 00146E 47E0 758C            01488  7045             +
 001472 92FF A11A      0011A        7050  1 1169.                MVI   CLWOBUF+2,X'FF'         MARK BUFF CLEAR
 001476 5890 7700/0D99       015FC  7051  1 1170.                VWRITE ,                      CLEAR DUMP BUFFER
 00147C 9180 A207/07E7 00207        7056  1 1171.                IF    ~CLWFTYPD,BR            NO MESSAGE IF NOT TYPED
 001482 5890 7710/0D99       0160C  7074  1 1172.                VCALL SHOWLAST                SEND LAST LINE MESSAGE
 001488                             7078    1173.              END   ,
 001488 07F7                        7082    1174.              BR    BR                      ALL DONE
1VCLP     (VCLP00) (09:46) (22MAR04) ORVYL'S COMMAND LANGUAGE PROCESSOR                                                     Page   62
0Current Usings:  (*,R7) (CLW,R10) (SCP,R11)
0Loc    Object Code    Addr1 Addr2  Stmt Lv Lineno    Source Statement           (Hibal 5, Asmedit 3.3)  HLASM R4.0  2004/03/22 09.46
+___    ______ ____    _____ _____  ____ __ ______    ______ _________
0                                   7084    1176.     * PROCESS PATCH COMMAND ABBREVIATIONS
                                    7085    1177.     *
 00148A                             7086    1178.     PATABBR  DS    0H
 00148A 1821                        7087    1179.              LR    SR,R1
 00148C 58E0 76F0/0DEE       015EC  7088    1180.              SCTELL ,CLWKWCB
 001492 1E01                        7096    1181.              ALR   R0,R1
 001494 1F02                        7097    1182.              SLR   R0,SR
 001496 0600                        7098    1183.              DECR  R0
 001498 4110 2001            00001  7100    1184.              SCINIT @SR+1,(0),CLWKWCB
 00149C 41F0 A2C4            002C4  7119             +
 0014A0 58E0 76C8/0DEE       015C4  7122             +
                                    7124    1185.     *
                                    7125    1186.     *  PROCESS PATCH COMMAND
                                    7126    1187.     *
 0014A6 5890 7714/0D99       01610  7127    1188.     PATCH    VCALL PATCH
 0014AC 07F7                        7131    1189.              BR    BR
-
                                    7133    1191.     *
                                    7134    1192.     *  ABORT THE SYSTEM
                                    7135    1193.     *
 0014AE C1829699A3409781            7136    1194.              DC    C'Abort patch here ==>'
 0014C2                             7137    1195.     GOABORT  LABEL ,
 0014C2 47F0 7602            014FE  7139    1196.              B     NOABORT                Patch if you really want to ...
 0014C6 9140 A20C      0020C        7140    1197.              IF    ~CLWSSP,NOABORT
 0014CA 47E0 7602            014FE  7152             +
 0014CE AC04 021B      0021B        7158    1198.              ABORT CLP_ABORT_CMD
 USING  PZERO,R0
 0014D2 9680 021A      0021A        7176             +
 0014D6 50F0 021C            0021C  7177             +
 0014DA 58F0 0210            00210  7178             +
 0014DE 89F0 0010            00010  7179             +
 0014E2 88F0 0010            00010  7180             +
 0014E6 41F0 F000            00000  7181             +
 0014EA AEFF 0006            00006  7182             +
 0014EE C3D3D76DC1C2D6D9            7183             +
 DROP   PZERO,R0
 0014FE 4110 774A            01646  7192    1199.     NOABORT  VSEG  'Not authorized to issue abort command!'
 001502 4100 0026            00026  7196             +
 001506 5890 76D0/0D99       015CC  7199             +
 00150C 47F0 70F8            00FF4  7201    1200.              B     ERROR
1VCLP     (VCLP00) (09:46) (22MAR04) ORVYL'S COMMAND LANGUAGE PROCESSOR                                                     Page   63
0Current Usings:  (*,R7) (CLW,R10) (SCP,R11)
0Loc    Object Code    Addr1 Addr2  Stmt Lv Lineno    Source Statement           (Hibal 5, Asmedit 3.3)  HLASM R4.0  2004/03/22 09.46
+___    ______ ____    _____ _____  ____ __ ______    ______ _________
0                                   7203    1202.     * RUN USER PROGRAM SET UP BY VPM
                                    7204    1203.     *
 001510                             7205    1204.     RUN      DS    0H
 001510 94EF A209      00209        7206    1205.              CLEAR CLWPFRUN
 001514 9120 A209      00209        7213    1206.              IF    ~CLWPFPIC,BEGIN         NO PROGRAM IN CORE
 001518 4710 7632            0152E  7223             +
 00151C 4110 7718            01614  7228  1 1207.                VSEG  'No program executing'
 001520 4100 0014            00014  7232  1          +
 001524 5890 76D0/0D99       015CC  7235  1          +
 00152A 47F0 70F8            00FF4  7237  1 1208.                B     ERROR
 00152E                             7238    1209.              END   ,
 00152E 4100 0001            00001  7242    1210.              CONTROL LA:1,12,L:CLWWLMOD      RESTORE MODE WORD
 001532 4110 000C            0000C  7254             +
 001536 58F0 A228/0AF5       00228  7259             +
 00153C 0AF2                        7266    1211.              WAIT  (0)
 00153E 4110 001E            0001E  7274    1212.              CONTROL (0),30,L:CLWMLMOD     SET MILTEN MODE WORD
 001542 58F0 A224/0AF5       00224  7291             +
 001548 0AF2                        7298    1213.              WAIT  (0)
 00154A 4100 000C/1F11       0000C  7306    1214.              VSET  12,IC:CLWDSP            RESTORE PRIORITY
 001550 4310 A214/0AFB       00214  7322             +
 001556 9120 A20B      0020B        7333    1215.              IF    CLWDOTIM,BEGIN         SHOULD TIMER BE SET?
 00155A 47E0 767C            01578  7343             +
 00155E 94DF A20B      0020B        7348  1 1216.                CLEAR CLWDOTIM                NOT A SECOND TIME
 001562 4100 0098            00098  7355  1 1217.                LA    R0,152                  ASSUME REAL INTERVAL
 001566 9110 A20B      0020B        7356  1 1218.                IF    CLWCPTIM,'LA R0,153'    SET COMPUTE, IF SO
 00156A 47E0 7676            01572  7366  1          +
 00156E 4100 0099            00099  7372  1          +
 001572 5810 A22C/0AFB       0022C  7377  1 1219.                VSET  (0),L:CLWTIMER          SET CLP TIMER
 001578                             7397    1220.              END   ,
 001578 4100 006C/0AED       0006C  7401    1221.              CLPSERV TERMPOP
 00157E 9102 A208      00208        7410    1222.              IF    CLWFM31,'OI CLWSBPSW+4,X"80"' Set to 31 bit mode
 001582 47E0 768E            0158A  7420             +
 001586 9680 A36C      0036C        7426             +
 00158A 4100 000A            0000A  7431    1223.              VSET  10,CLWSBPSW             RESTORE FROM BREAK
 00158E 4110 A368/0AFB       00368  7445             +
-
 DROP   *,R7                        7456    1225.              DROP  BR                      ##
1VCLP     (VCLP00) (09:46) (22MAR04) ORVYL'S COMMAND LANGUAGE PROCESSOR                                                     Page   64
0Current Usings:  (CLW,R10) (SCP,R11)
0Loc    Object Code    Addr1 Addr2  Stmt Lv Lineno    Source Statement           (Hibal 5, Asmedit 3.3)  HLASM R4.0  2004/03/22 09.46
+___    ______ ____    _____ _____  ____ __ ______    ______ _________
0                                   7464    1227.     *  CONSTANTS
                                    7465    1228.     *
 001598                             7466    1229.              LTORG
 001598 7A40C995A5819389            7468                             =C': Invalid string'
 0015A8 D697859981958440            7469                             =C'Operand missing.'
 0015B8 00000000                    7470                             =V(RITECORE)
 0015BC FEDCBA98                    7471                             =X'FEDCBA98'
 0015C0 00000028                    7472                             =A(L'SCPLCMD)
 0015C4 00000000                    7473                             =V(SCINIT)
 0015C8 00000000                    7474                             =V(SCAN)
 0015CC 00000000                    7475                             =V(VSEG)
 0015D0 00000000                    7476                             =V(TYPEIT)
 0015D4 00003000                    7477                             =XL4'00003000'
 0015D8 00000002                    7478                             =A(ENTBASE)
 0015DC 00000000                    7479                             =V(PROGRAMS)
 0015E0 00000000                    7480                             =V(FILES)
 0015E4 00000000                    7481                             =V(FILESHOW)
 0015E8 00000000                    7482                             =V(PROGSERV)
 0015EC 00000000                    7483                             =V(SCTELL)
 0015F0 00000000                    7484                             =V(SET)
 0015F4 00000000                    7485                             =V(CLEAR)
 0015F8 00000010                    7486                             =A(16)
 0015FC 00000000                    7487                             =V(VWRITE)
 001600 00000000                    7488                             =V(SHOW)
 001604 E2C8D6E6                    7489                             =C'SHOW'
 001608 C4E4D4D7                    7490                             =C'DUMP'
 00160C 00000000                    7491                             =V(SHOWLAST)
 001610 00000000                    7492                             =V(PATCH)
 001614 D596409799968799            7493                             =C'No program executing'
 001628 7A40C6A49583A389            7494                             =C': Function not yet implemented'
 001646 D596A34081A4A388            7495                             =C'Not authorized to issue abort command!'
 00166C 7A40A49599858396            7496                             =C': unrecognized '
 00167B 409697A3899695              7497                             =C' option'
 001682 83969494819584              7498                             =C'command'
 001689 C995A58193898440            7499                             =C'Invalid value'
 001696 E2C5E3                      7500                             =C'SET'
 001699 7A40A49599858396            7501                             =C': unrecognized CLEAR option'
1VCLP     (VCLP00) (09:46) (22MAR04) ORVYL'S COMMAND LANGUAGE PROCESSOR                                                     Page   65
0Current Usings:  (CLW,R10) (SCP,R11)
0Loc    Object Code    Addr1 Addr2  Stmt Lv Lineno    Source Statement           (Hibal 5, Asmedit 3.3)  HLASM R4.0  2004/03/22 09.46
+___    ______ ____    _____ _____  ____ __ ______    ______ _________
0                                   7506    1231.     *  CLEAN UP TRAPS
                                    7507    1232.     *
 0016BA 9029 D000/188D       00000  7508    1233.     CLEANTRP VENTER SR,RAR,*
 0016C0 41D0 D020/0D70       00020  7513             +
 0016C6 4120 A280            00280  7528    1234.              LA    SR,CLWTRAPS             RUN THRU TABLE
 USING  *,R7
 0016CA 4130 0008            00008  7529    1235.              LA    TR,CLWNTRAP
 0016CE D502 2000 7958 00000 0201E  7530    1236.     CLTSLOOP CLC   @SR(3),=X'000000'      EMPTY TRAP?
 0016D4 4780 702E            016F4  7531    1237.              BE    CLTSNX                  BR IF SO
 0016D8 4100 2003            00003  7532    1238.              LA    R0,3(,SR)               RESTORE TRAP
 0016DC D202 A2E9 2000 002E9 00000  7533    1239.              MVC   CLWTEMP+1(3),@SR        ADDR
 0016E2 5810 A2E8            002E8  7534    1240.              L     R1,CLWTEMP
 0016E6 4110 1000            00000  7535    1241.              LA    R1,@R1
 0016EA 41F0 0002            00002  7536    1242.              LA    R15,2
 0016EE 5890 78D2/0D99       01F98  7537    1243.              VCALL RITECORE
 0016F4 4120 2005            00005  7541    1244.     CLTSNX   LA    SR,5(,SR)
 0016F8 4630 7008            016CE  7542    1245.              BCT   TR,CLTSLOOP
 0016FC 5030 A270            00270  7543    1246.              ST    TR,CLWTRAPA
 001700                             7544    1247.              CLEAR (CLWTRAPS,5*CLWNTRAP)   CLEAR TRAP TABLE
 001700 D727 A280 A280 00280 00280  7550             +
 001706 18D8/9829 D000       00000  7551    1248.              VEXIT SR,RAR
 00170C 07F9                        7555             +
1VCLP     (VCLP00) (09:46) (22MAR04) ORVYL'S COMMAND LANGUAGE PROCESSOR                                                     Page   66
0Current Usings:  (*,R7) (CLW,R10) (SCP,R11)
0Loc    Object Code    Addr1 Addr2  Stmt Lv Lineno    Source Statement           (Hibal 5, Asmedit 3.3)  HLASM R4.0  2004/03/22 09.46
+___    ______ ____    _____ _____  ____ __ ______    ______ _________
0                                   7557    1250.     *  CLEAR ATTACHED DEVICES
                                    7558    1251.     *
 00170E 9029 D000/188D       00000  7559    1252.     CLRIDTS  VENTER SR,RAR,*
 001714 41D0 D020/0D70       00020  7564             +
 DROP   *,R7                        7582    1253.     *
 USING  *,R7
                                    7583    1254.     *  Delete possible terminal exits
                                    7584    1255.     *
 00171A 1231/4780 701E       01738  7585    1256.              IF    ('LTR  TR,R1',NZ),BEGIN    Note scan level
 001720 4100 0008/1B11       00008  7598  1 1257.                VSET  8,0,1                   CLEAR ATTENTION EXIT
 001726 41F0 0001/0AFB       00001  7616  1          +
 00172C 4100 0009/1B11       00009  7623  1 1258.                VSET  9,0,1                   CLEAR WAIT EXIT
 001732 41F0 0001/0AFB       00001  7641  1          +
 001738                             7648    1259.              END
                                    7652    1260.     *
                                    7653    1261.     *  Then halt any existing I/O
                                    7654    1262.     *
 001738 1B22                        7655    1263.              CLEAR SR
 00173A                             7659    1264.              LOOP  BEGIN
 00173A 1BFF/1812                   7665  1 1265.                CLPSERV DEVSCAN,(SR),0
 00173E 4100 0060/0AED       00060  7681  1          +
 001744 4770 704E            01768  7683  1 1266.                IF    NZ,EXIT
 001748 1821                        7697  1 1267.                LR    SR,R1
 00174A 4100 0008/1B11       00008  7698  1 1268.                VSET  8,0,(SR)                CLEAR ATTENTION EXIT
 001750 18F2/0AFB                   7714  1          +
 001754 4100 0009/1B11       00009  7721  1 1269.                VSET  9,0,(SR)                CLEAR WAIT EXIT
 00175A 18F2/0AFB                   7737  1          +
 00175E 1802/0AEC                   7744  1 1270.                HALT  (SR)                    CEASE ALL ACTIVITY ON DEVICE
 001762 0AF2                        7751  1 1271.                WAIT  (0)                     WAIT FOR COMPLETION
 001764 47F0 7020            0173A  7759    1272.              END
                                    7764    1273.     *
                                    7765    1274.     *  Then detach all devices
                                    7766    1275.     *
 001768 1B22                        7767    1276.              CLEAR SR
 00176A                             7771    1277.              LOOP  BEGIN
 00176A 18F3/1812                   7777  1 1278.                CLPSERV DEVSCAN,(SR),(TR)
 00176E 4100 0060/0AED       00060  7794  1          +
 001774 4770 706A            01784  7796  1 1279.                IF    NZ,EXIT
 001778 1821                        7810  1 1280.                LR    SR,R1
 00177A 1802/0AF8                   7811  1 1281.                DETACH (SR)                   DETACH DEVICE
 00177E 0AF2                        7819  1 1282.                WAIT  (0)                     WAIT FOR DETACH COMPLETION
 001780 47F0 7050            0176A  7827    1283.              END   ,
 001784 18D8/9829 D000       00000  7832    1284.              VEXIT SR,RAR
 00178A 07F9                        7836             +
1VCLP     (VCLP00) (09:46) (22MAR04) ORVYL'S COMMAND LANGUAGE PROCESSOR                                                     Page   67
0Current Usings:  (*,R7) (CLW,R10) (SCP,R11)
0Loc    Object Code    Addr1 Addr2  Stmt Lv Lineno    Source Statement           (Hibal 5, Asmedit 3.3)  HLASM R4.0  2004/03/22 09.46
+___    ______ ____    _____ _____  ____ __ ______    ______ _________
0                                   7838    1286.     *  CLEAR ENQUEUE TABLE
                                    7839    1287.     *
 00178C 9029 D000/188D       00000  7840    1288.     CLRENQS  VENTER SR,RAR,*
 001792 41D0 D020/0D70       00020  7845             +
 001798 5830 A000            00000  7863    1289.              L     TR,CLWSCP
 DROP   *,R7
 USING  *,R7
 DROP   SCP,R11                     7864    1290.              WITH  (SCP,TR),BEGIN
 USING  SCP,R3
 00179C 1B22                        7886  1 1291.                CLEAR SR                      SLOT NUMBER
 00179E 4840 3256            00256  7890  1 1292.                LH    QR,SCPNENQ              NUMBER OF ENQ ENTRIES
 0017A2 5820 3258            00258  7891  1 1293.                L     SR,SCPENQL              ENQ ID TABLE ADDRESS
 0017A6 5810 2000/1211       00000  7892  1 1294.     DEQUEUE    LT    R1,@SR                  GET ENQ ID
 0017AC 4780 7026            017BE  7896  1 1295.                IF    NZ,BEGIN                SLOT IS VALID
 0017B0 4100 0005/1BFF       00005  7907  2 1296.                  DEQ   (R1),0                  DEQUEUE RESOURCE
 0017B6 41E0 0004/0AEF       00004  7929  2          +
 0017BC 0AF2                        7932  2 1297.                  WAIT  (0)                     WAIT FOR COMPLETION
 0017BE                             7940  1 1298.                END   ,
 0017BE 4120 2004            00004  7944  1 1299.                LA    SR,@SR+4                 NEXT SLOT
 0017C2 4640 700E            017A6  7945  1 1300.                BCT   QR,DEQUEUE                UNTIL DONE
 USING  SCP,R11                     7946    1301.              END
 DROP   SCP,R3
 0017C6 18D8/9829 D000       00000  7963    1302.              VEXIT SR,RAR
 0017CC 07F9                        7967             +
1VCLP     (VCLP00) (09:46) (22MAR04) ORVYL'S COMMAND LANGUAGE PROCESSOR                                                     Page   68
0Current Usings:  (*,R7) (CLW,R10) (SCP,R11)
0Loc    Object Code    Addr1 Addr2  Stmt Lv Lineno    Source Statement           (Hibal 5, Asmedit 3.3)  HLASM R4.0  2004/03/22 09.46
+___    ______ ____    _____ _____  ____ __ ______    ______ _________
0                                   7969    1304.     *  CHECK FOR IDLE ATTENTION
                                    7970    1305.     *
 0017CE 9029 D000/188D       00000  7971    1306.     CHKATTN  VENTER SR,RAR,*
 0017D4 41D0 D020/0D70       00020  7976             +
 0017DA 5810 A000            00000  7994    1307.              L     R1,CLWSCP
 DROP   *,R7
 USING  *,R7
 DROP   SCP,R11                     7995    1308.              WITH  (SCP,R1),BEGIN
 USING  SCP,R1
 0017DE 9140 1261      00261        8017  1 1309.                TM    SCBCFL,L'SCBCFCLA       TEST FOR IDLE ATTN
 USING  SCP,R11                     8018    1310.              END   ,
 DROP   SCP,R1
 0017E2 18D8/9829 D000       00000  8035    1311.              VEXIT SR,RAR
 0017E8 07F9                        8039             +
1VCLP     (VCLP00) (09:46) (22MAR04) ORVYL'S COMMAND LANGUAGE PROCESSOR                                                     Page   69
0Current Usings:  (*,R7) (CLW,R10) (SCP,R11)
0Loc    Object Code    Addr1 Addr2  Stmt Lv Lineno    Source Statement           (Hibal 5, Asmedit 3.3)  HLASM R4.0  2004/03/22 09.46
+___    ______ ____    _____ _____  ____ __ ______    ______ _________
0                                   8041    1313.     *  TYPE COMMAND WHICH IS IN ERROR
                                    8042    1314.     *
 0017EA 900E D000/188D       00000  8043    1315.     TYPEIT   VENTER R0,R14,*
 0017F0 41D0 D03C/0D70       0003C  8048             +
 0017F6 9680 A208      00208        8066    1316.              SET   CLWFCERR                INVALID COMMAND
 DROP   *,R7
 USING  *,R7
 0017FA 9140 A207      00207        8072    1317.              IF    CLWFCMD,BEGIN          COMMAND SVC?
 0017FE 47E0 7014            0180A  8082             +
 001802 41F0 0004            00004  8087  1 1318.                LA    R15,4                   SET ERROR CODE
 001806 50F0 A3AC            003AC  8088  1 1319.                ST    R15,CLWSBGPR+15*4
 00180A 7018           0180A 01800  8089    1320.              END   ELSE,BEGIN
 00180A 47F0 7026            0181C  8098             +
 00180E 4100 0001            00001  8104  1 1321.                CONTROL LA:1,32,0             SET MODE RETRY
 001812 4110 0020/1BFF       00020  8116  1          +
 001818 0AF5                        8125  1          +
 00181A 0AF2                        8127  1 1322.                WAIT  (0)
 00181C                             8135    1323.              END   ,
 00181C 9101 A20A      0020A        8139    1324.              IF    CLWMDUMP,BEGIN         DUMPING?
 001820 47E0 7038            0182E  8149             +
 001824 92FF A11A      0011A        8154  1 1325.                  MVI CLWOBUF+2,X'FF'
 001828 5890 77A6/0D99       01F9C  8155  1 1326.                  VWRITE ,                      CLEAR UP BUFFER
 00182E                             8160    1327.              END   ,
 00182E 1BFF                        8164    1328.              CLEAR R15
 001830 9180 A207      00207        8168    1329.              IF    ~CLWFTYPD,BEGIN         TYPE COMMAND IN ERROR
 001834 4710 7096            0188C  8178             +
 001838 9680 A207      00207        8183  1 1330.                SET   CLWFTYPD
 00183C 48F0 A028            00028  8189  1 1331.                LH    R15,CLWIBUFN
 001840 41F0 F003            00003  8190  1 1332.                LA    R15,@R15+3
 001844 4110 A02A            0002A  8191  1 1333.                LA    R1,CLWIBUF-3
 001848 D202 A02A 782B 0002A 02021  8192  1 1334.                MVC   CLWIBUF-3(3),=C'-> '
 00184E 9502 A02D      0002D        8193  1 1335.                CLI   CLWIBUF,X'02'
 001852 4770 7080            01876  8194  1 1336.                IF    EQ,BEGIN                OBJECT CARD
 001856 D202 A2E8 782B 002E8 02021  8205  2 1337.                  MVC   CLWTEMP(3),=C'-> '
 00185C D202 A2EB A02E 002EB 0002E  8206  2 1338.                  MVC   CLWTEMP+3(3),CLWIBUF+1    CARD TYPE
 001862 D204 A2EE 782E 002EE 02024  8207  2 1339.                  MVC   CLWTEMP+3+3(5),=C' ... '
 001868 D207 A2F3 A075 002F3 00075  8208  2 1340.                  MVC   CLWTEMP+3+3+5(8),CLWIBUF+72  SEQUENCE NUMBER
 00186E 4110 A2E8            002E8  8209  2 1341.                  LA    R1,CLWTEMP
 001872 41F0 0013            00013  8210  2 1342.                  LA    R15,3+3+5+8
 001876                             8211  1 1343.                END   ,
 001876 4100 0001/0AF6       00001  8215  1 1344.                WRITE LA:1,(1),(15)             TYPE THE COMMAND
 00187C 0AF2                        8237  1 1345.                WAIT  (0)
 00187E 4780 7096            0188C  8245  1 1346.                IF    NZ,BEGIN
 001882                             8256  2 1347.                  CLEAR (CLWOBUF,4)
 001882 D703 A118 A118 00118 00118  8262  2          +
 001888 47F0 70A6            0189C  8263  2 1348.                  B     TYPEITX
 00188C                             8264  1 1349.                END   ,
 00188C                             8268    1350.              END   ,
 00188C 4820 A118            00118  8272    1351.              LH    SR,CLWOBUF
 001890 1222/4780 70A6       0189C  8273    1352.              IF    (SR,NZ),'VWRITE'
 001896 5890 77A6/0D99       01F9C  8291             +
 00189C 18D8/980E D000       00000  8297    1353.     TYPEITX  VEXIT R0,R14,LTR
 0018A2 12FF/07F9                   8301             +
1VCLP     (VCLP00) (09:46) (22MAR04) ORVYL'S COMMAND LANGUAGE PROCESSOR                                                     Page   70
0Current Usings:  (*,R7) (CLW,R10) (SCP,R11)
0Loc    Object Code    Addr1 Addr2  Stmt Lv Lineno    Source Statement           (Hibal 5, Asmedit 3.3)  HLASM R4.0  2004/03/22 09.46
+___    ______ ____    _____ _____  ____ __ ______    ______ _________
0                                   8304    1355.     * SPECIAL OUTPUT FORMATTING ROUTINES
                                    8305    1356.     *
                                    8306    1357.     *     OUTPUT TIME IN NNNNN.NNN FORMAT (R1 IS 26 MIC TUNITS)
                                    8307    1358.     *
 0018A6 9079 D000/188D       00000  8308    1359.     SEGSECS  VENTER BR,RAR,*
 0018AC 41D0 D00C/0D70       0000C  8313             +
 0018B2 5C00 76EE            01FA0  8331    1360.              M     R0,=A(10)               SO DIV RESULT IS MILLISECONDS
 DROP   *,R7
 USING  *,R7
 0018B6 5D00 76F2            01FA4  8332    1361.              D     R0,=A(384)              THE MAGIC NUMBER
 0018BA 18F1                        8333    1362.              LR    R15,R1                  VALUE
 0018BC 4110 A2E8            002E8  8334    1363.              LA    R1,CLWTEMP              TARGET
 0018C0 4100 0003            00003  8335    1364.              LA    R0,3                    FIELD DESCRIPTOR
 0018C4 58E0 76F6/0DEE       01FA8  8336    1365.              XCALL BTR                     GO CONVERT
 0018CA 5890 76FA/0D99       01FAC  8340    1366.              VSEG  (1),(0)
 0018D0 18D8/9879 D000       00000  8357    1367.              VEXIT BR,RAR
 0018D6 07F9                        8361             +
1VCLP     (VCLP00) (09:46) (22MAR04) ORVYL'S COMMAND LANGUAGE PROCESSOR                                                     Page   71
0Current Usings:  (*,R7) (CLW,R10) (SCP,R11)
0Loc    Object Code    Addr1 Addr2  Stmt Lv Lineno    Source Statement           (Hibal 5, Asmedit 3.3)  HLASM R4.0  2004/03/22 09.46
+___    ______ ____    _____ _____  ____ __ ______    ______ _________
0                                   8363    1369.     *
                                    8364    1370.     * WRITE OUT LAST LINE MESSAGE
                                    8365    1371.     *
 0018D8 9029 D000/188D       00000  8366    1372.     SHOWLAST VENTER SR,RAR,*
 0018DE 41D0 D020/0D70       00020  8371             +
 0018E4 4100 0001            00001  8389    1373.              CONTROL LA:1,16               GET LAST LINE IN ACTIVE
 DROP   *,R7
 USING  *,R7
 0018E8 4110 0010/0AF5       00010  8401             +
 0018EE 0AF2                        8411    1374.              WAIT  (0)
 0018F0 4770 704E            01932  8419    1375.              BNZ   SLEXIT                  QUIT IF VOID
 0018F4 18F1                        8420    1376.              LR    R15,R1                  SET
 0018F6 4110 A2E8            002E8  8421    1377.              LA    R1,CLWTEMP               UP
 0018FA 4100 0003            00003  8422    1378.              LA    R0,3                      FOR
 0018FE 58E0 76C4/0DEE       01FA8  8423    1379.              XCALL BTR                        CONVERSION
 001904 1820                        8427    1380.              LR    SR,R0                   LENGTH
 001906 1A21                        8428    1381.              AR    SR,R1                   LAST POSITION + ONE
 001908 0620                        8429    1382.     SLALOOP  BCTR  SR,0                    LAST POSTION
 00190A 95F0 2000      00000        8430    1383.              CLI   0(SR),C'0'              ZERO?
 00190E 4770 7034            01918  8431    1384.              BNE   SLSEG                   OK TO SEND IF NOT
 001912 0600                        8432    1385.              BCTR  R0,0                    MINUS ONE
 001914 47F0 7024            01908  8433    1386.              B     SLALOOP                 KEEP GOING
 001918 5890 76C8/0D99       01FAC  8434    1387.     SLSEG    VSEG  (1),(0)                 FORMAT
 00191E 4110 7745            02029  8452    1388.              VWRITE ' - LAST LINE.'        MESSAGE
 001922 4100 000D            0000D  8457             +
 001926 5890 76C8/0D99       01FAC  8460             +
 00192C 5890 76B8/0D99       01F9C  8464             +
 001932 18D8/9829 D000       00000  8466    1389.     SLEXIT   VEXIT SR,RAR
 001938 07F9                        8470             +
1VCLP     (VCLP00) (09:46) (22MAR04) ORVYL'S COMMAND LANGUAGE PROCESSOR                                                     Page   72
0Current Usings:  (*,R7) (CLW,R10) (SCP,R11)
0Loc    Object Code    Addr1 Addr2  Stmt Lv Lineno    Source Statement           (Hibal 5, Asmedit 3.3)  HLASM R4.0  2004/03/22 09.46
+___    ______ ____    _____ _____  ____ __ ______    ______ _________
0                                   8472    1391.     *  ADD SEGMENT TO OUTPUT BUFFER
                                    8473    1392.     *
 00193A 9009 D000/188D       00000  8474    1393.     VSEG     VENTER R0,RAR
 001940 0D70                        8481             +
 DROP   *,R7
 USING  *,R7
 001942 1230                        8496    1394.              LTR   TR,R0                   TEST LENGTH
 001944 47D0 7034            01976  8497    1395.              IF    P,BEGIN
 001948 4120 00EB            000EB  8508  1 1396.                LA    SR,CLWOBUFL             COMPUTE REMAINING LENGTH
 00194C 4B20 A118            00118  8509  1 1397.                SH    SR,CLWOBUF
 001950 47D0 7034            01976  8510  1 1398.                IF    NP,EXIT
 001954 1B23                        8524  1 1399.                SR    SR,TR
 001956 47B0 701C            0195E  8525  1 1400.                IF    M,BEGIN
 00195A 1A32                        8536  2 1401.                  AR    TR,SR
 00195C 1B22                        8537  2 1402.                  CLEAR SR
 00195E                             8541  1 1403.                END   ,
 00195E 4150 A11C            0011C  8545  1 1404.                LA    RR,CLWOBUF+4            COMPUT MOVE ADDR
 001962 4A50 A118            00118  8546  1 1405.                AH    RR,CLWOBUF
 001966 0630/4430 772A       0206C  8547  1 1406.                DEX   TR,'MVC  @RR(*-*),@R1'  MOVE SEG TO BUFFER
 00206B 00                                2          +
 00206C D200 5000 1000 00000 00000  8558  1          +
 00196C 4130 00EB            000EB  8566  1 1407.                LA    TR,CLWOBUFL             COMPUTE NEW LENGTH
 001970 1B32                        8567  1 1408.                SR    TR,SR
 001972 4030 A118            00118  8568  1 1409.                STH   TR,CLWOBUF
 001976                             8569    1410.              END   ,
 001976 18D8/9809 D000       00000  8573    1411.              VEXIT R0,RAR
 00197C 07F9                        8577             +
1VCLP     (VCLP00) (09:46) (22MAR04) ORVYL'S COMMAND LANGUAGE PROCESSOR                                                     Page   73
0Current Usings:  (*,R7) (CLW,R10) (SCP,R11)
0Loc    Object Code    Addr1 Addr2  Stmt Lv Lineno    Source Statement           (Hibal 5, Asmedit 3.3)  HLASM R4.0  2004/03/22 09.46
+___    ______ ____    _____ _____  ____ __ ______    ______ _________
0                                   8579    1413.     *  SEG A RELATIVE ADDRESS (CSECT+OFFSET)
                                    8580    1414.     *
 00197E 900E D000/188D       00000  8581    1415.     VSEGLOC  VENTER R0,R14,*
 001984 41D0 D03C/0D70       0003C  8586             +
 00198A 1831                        8604    1416.              LR    TR,R1                   SAVE ENTRY ADDRESS
 DROP   *,R7
 USING  *,R7
 00198C 1011                        8605    1417.              LPR   R1,R1                   MAKE POSITIVE
                                    8606    1418.     *         LA    SR,@R1                  ADDRESS
 00198E 1821                        8607    1419.              LR    SR,R1                   ADDRESS
 001990 1841                        8608    1420.              LR    QR,R1                   ADDRESS
 001992 9160 A209      00209        8609    1421.              IF    (CLWPFPL+CLWPFPIC,Z),NOSECT   LOADING OR EXECUTING?
 001996 4780 711E            01AA8  8626             +
 00199A 58B0 A250            00250  8632    1422.              L     LCBR,CLWLNKP
 00199E 5890 7626/0D99       01FB0  8633    1423.              VCALL LDSECT                  FIND SECTION
 0019A4 4780 711E            01AA8  8637    1424.              BZ    NOSECT
 0019A8 1F21                        8638    1425.              SLR   SR,R1
 0019AA 4100 0008            00008  8639    1426.              LA    R0,8                    MAX LENGTH
 0019AE 4110 F007            00007  8640    1427.              LA    R1,7(,15)               NAME END POINTER
 0019B2 9540 1000      00000        8641    1428.     CLRBLNK  CLI   @R1,C' '                TRAILING BLANK
 0019B6 4770 7036            019C0  8642    1429.              BNE   ENDBLNK                 NO
 0019BA 0610                        8643    1430.              DECR  R1
 0019BC 4600 7028            019B2  8645    1431.              BCT   R0,CLRBLNK
 0019C0 181F/5890 7622       01FAC  8646    1432.     ENDBLNK  VSEG  (15),(0)
 0019C6 0D99                        8663             +
 0019C8 1222                        8664    1433.              LTR   SR,SR                   ANY OFFSET?
 0019CA 4780 7116            01AA0  8665    1434.              BZ    VSGEX
 0019CE 4110 76AC            02036  8666    1435.              VSEG  '+'
 0019D2 4100 0001            00001  8670             +
 0019D6 5890 7622/0D99       01FAC  8673             +
 0019DC 18F2/4100 0007       00007  8675    1436.     OFFSET   BTX   CLWTEMP,7,(SR)
 0019E2 4110 A2E8            002E8  8694             +
 0019E6 58E0 762A/0DEE       01FB4  8697             +
 0019EC 4110 A2E8            002E8  8699    1437.              LA    R1,CLWTEMP
 0019F0 92E7 A2EF      002EF        8700    1438.              MVI   CLWTEMP+7,C'X'          BE SURE THE FOLLOWING STOPS
 0019F4 95F0 1001      00001        8701    1439.     CLRZERO  CLI   @R1+1,C'0'              TWO LEADING ZEROES?
 0019F8 4770 707A            01A04  8702    1440.              BNE   VLSEG
 0019FC 4110 1001            00001  8703    1441.              LA    R1,@R1+1
 001A00 4600 706A            019F4  8704    1442.              BCT   R0,CLRZERO
 001A04 5890 7622/0D99       01FAC  8705    1443.     VLSEG    VSEG  (1),(0)
 001A0A 1224                        8723    1444.              LTR   SR,QR                   FIND LOCAL SYMBOL?
 001A0C 4780 7116            01AA0  8724    1445.              BZ    VSGEX
 001A10 1814                        8725    1446.              LR    R1,QR                   LOCATION
 001A12 5890 762E/0D99       01FB8  8726    1447.              VCALL LDENTRY                 FIND LOCAL SYMBOL
 001A18 4780 7116            01AA0  8730    1448.              BZ    VSGEX
 001A1C 1F21                        8731    1449.              SLR   SR,R1
 001A1E 4100 0008            00008  8732    1450.              LA    R0,8                    MAX LENGTH
 001A22 4110 F007            00007  8733    1451.              LA    R1,7(,15)               NAME END POINTER
 001A26 9540 1000      00000        8734    1452.     CLRBLNK2 CLI   @R1,C' '                TRAILING BLANK
 001A2A 4770 70AA            01A34  8735    1453.              BNE   ENDBLNK2                NO
 001A2E 0610                        8736    1454.              DECR  R1
 001A30 4600 709C            01A26  8738    1455.              BCT   R0,CLRBLNK2
 001A34 1840                        8739    1456.     ENDBLNK2 LR    QR,R0
 001A36 4110 7676            02000  8740    1457.              VSEG  ' ('
1VCLP     (VCLP00) (09:46) (22MAR04) ORVYL'S COMMAND LANGUAGE PROCESSOR                                                     Page   74
0Current Usings:  (*,R7) (CLW,R10) (SCP,R11)
0Loc    Object Code    Addr1 Addr2  Stmt Lv Lineno    Source Statement           (Hibal 5, Asmedit 3.3)  HLASM R4.0  2004/03/22 09.46
+___    ______ ____    _____ _____  ____ __ ______    ______ _________
0001A3A 4100 0002            00002  8744             +
 001A3E 5890 7622/0D99       01FAC  8747             +
 001A44 181F/1804                   8749    1458.              VSEG  (15),(QR)
 001A48 5890 7622/0D99       01FAC  8765             +
 001A4E 1222                        8767    1459.              LTR   SR,SR                   ANY OFFSET?
 001A50 4780 7106            01A90  8768    1460.              BZ    VLSEG3
 001A54 4110 76AC            02036  8769    1461.              VSEG  '+'
 001A58 4100 0001            00001  8773             +
 001A5C 5890 7622/0D99       01FAC  8776             +
 001A62 18F2/4100 0007       00007  8778    1462.              BTX   CLWTEMP,7,(SR)
 001A68 4110 A2E8            002E8  8797             +
 001A6C 58E0 762A/0DEE       01FB4  8800             +
 001A72 4110 A2E8            002E8  8802    1463.              LA    R1,CLWTEMP
 001A76 92E7 A2EF      002EF        8803    1464.              MVI   CLWTEMP+7,C'X'          BE SURE THE FOLLOWING STOPS
 001A7A 95F0 1001      00001        8804    1465.     CLRZERO2 CLI   @R1+1,C'0'              TWO LEADING ZEROES?
 001A7E 4770 7100            01A8A  8805    1466.              BNE   VLSEG2
 001A82 4110 1001            00001  8806    1467.              LA    R1,@R1+1
 001A86 4600 70F0            01A7A  8807    1468.              BCT   R0,CLRZERO2
 001A8A 5890 7622/0D99       01FAC  8808    1469.     VLSEG2   VSEG  (1),(0)
 001A90 4110 76AD            02037  8826    1470.     VLSEG3   VSEG  ')'
 001A94 4100 0001            00001  8830             +
 001A98 5890 7622/0D99       01FAC  8833             +
 001A9E 1BFF                        8835    1471.              CLEAR R15
 001AA0 18D8/980E D000       00000  8839    1472.     VSGEX    VEXIT R0,R14
 001AA6 07F9                        8843             +
 001AA8 1B44                        8844    1473.     NOSECT   CLEAR QR                      DO NOT FIND LOCAL SYMBOL
 001AAA 1233                        8849    1474.              LTR   TR,TR                   IS PRINT CONDITIONAL?
 001AAC 47B0 7052            019DC  8850    1475.              BNM   OFFSET                  NO
 001AB0 41F0 0004            00004  8851    1476.              LA    R15,4                   RETURN CODE
 001AB4 47F0 7116            01AA0  8852    1477.              B     VSGEX
1VCLP     (VCLP00) (09:46) (22MAR04) ORVYL'S COMMAND LANGUAGE PROCESSOR                                                     Page   75
0Current Usings:  (*,R7) (CLW,R10) (SCP,R11)
0Loc    Object Code    Addr1 Addr2  Stmt Lv Lineno    Source Statement           (Hibal 5, Asmedit 3.3)  HLASM R4.0  2004/03/22 09.46
+___    ______ ____    _____ _____  ____ __ ______    ______ _________
0                                   8854    1479.     *  MARK START OF PROMPT
                                    8855    1480.     *
                                    8856    1481.              ENTRY VMARK
 001AB8 D201 A11A A118 0011A 00118  8857    1482.     VMARK    MVC   CLWOBUF+2(2),CLWOBUF
 001ABE 07F9                        8858    1483.              BR    RAR
1VCLP     (VCLP00) (09:46) (22MAR04) ORVYL'S COMMAND LANGUAGE PROCESSOR                                                     Page   76
0Current Usings:  (*,R7) (CLW,R10) (SCP,R11)
0Loc    Object Code    Addr1 Addr2  Stmt Lv Lineno    Source Statement           (Hibal 5, Asmedit 3.3)  HLASM R4.0  2004/03/22 09.46
+___    ______ ____    _____ _____  ____ __ ______    ______ _________
0                                   8860    1485.     *  TYPE THE BUFFER
                                    8861    1486.     *
 001AC0 9029 D000/188D       00000  8862    1487.     VWRITE   VENTER SR,RAR,*
 001AC6 41D0 D020/0D70       00020  8867             +
 001ACC 9101 A20A      0020A        8885    1488.              IF    CLWMDUMP,VWDUMP         TO WDS?
 DROP   *,R7
 USING  *,R7
 001AD0 4710 701C            01AE8  8897             +
 001AD4 4100 0001            00001  8903    1489.     VWTERM   WRITE LA:1,CLWOBUF+4,LH:CLWOBUF
 001AD8 4110 A11C            0011C  8915             +
 001ADC 48F0 A118/0AF6       00118  8919             +
 001AE2 0AF2                        8926    1490.              WAIT  (0)
 001AE4 47F0 70F0            01BBC  8934    1491.              B     VWDONE
                                    8935    1492.
 001AE8 9102 A20A      0020A        8936    1493.     VWDUMP   IF    CLWMDSUP,VW1            DUMP AREA SET UP?
 001AEC 4710 7074            01B40  8949             +
 001AF0 4110 0FFF            00FFF  8955    1494.              GETCLW  4095,4095               GET A BUFFER FOR DUMP
 001AF4 41F0 0FFF            00FFF  8969             +
 001AF8 5890 74F0/0D99       01FBC  8972             +
 001AFE 4770 7190            01C5C  8974    1495.              BNZ   NOCORE
 001B02 9602 A20A      0020A        8975    1496.              SET   CLWMDSUP                DUMP AREA SET UP
 001B06 5010 A260            00260  8981    1497.              ST    R1,CLWDUMPB             SAVE ADD OF DUMP BUFFER
 001B0A                             8982    1498.              CLEAR (@R1,4)                 CLEAR CONTROL WORD
 001B0A D703 1000 1000 00000 00000  8988             +
 001B10 1821                        8989    1499.              LR    SR,R1                   SAVE BUFF POINTER
 001B12 4100 0001            00001  8990    1500.              CONTROL LA:1,16               SENSE LAST LINE NUMBER
 001B16 4110 0010/0AF5       00010  9002             +
 001B1C 0AF2                        9012    1501.              WAIT  (0)
                                    9020    1502.     *         A     R1,=A(1000)             GET NEXT WHOLE LINE NUMBER
                                    9021    1503.     *         CLEAR R0
                                    9022    1504.     *         D     R0,=A(1000)
                                    9023    1505.     *         M     R0,=A(1000)
                                    9024    1506.     *         ST    R1,4(,SR)               SAVE LINENNUMBER IN BUFFER
 001B1E 1831                        9025    1507.              LR    R3,R1                   SAVE
 001B20 4100 0001            00001  9026    1508.              CONTROL LA:1,28               SENSE DELTA
 001B24 4110 001C/0AF5       0001C  9038             +
 001B2A 0AF2                        9048    1509.              WAIT  (0)
 001B2C 1211/4770 706A       01B36  9056    1510.              IF    (R1,Z),'LA R1,1000'     Mikey is not ready yet
 001B32 4110 03E8            003E8  9071             +
 001B36 5010 A308            00308  9076    1511.              ST    R1,CLWDELTA             SAVE
 001B3A 1A13                        9077    1512.              AR    R1,R3                   CALC NEXT LINE
 001B3C 5010 2004            00004  9078    1513.              ST    R1,4(,SR)               SAVE LINE NUMBER IN BUFFER
0001B40 5820 A260            00260  9080    1515.     VW1      L     SR,CLWDUMPB             GET DUMP BUFFER
 001B44 5830 2000            00000  9081    1516.              L     TR,@SR                  CONTROL WORD
 001B48 95FF A11A      0011A        9082    1517.              CLI   CLWOBUF+2,X'FF'         CLEAR BUFFER?
 001B4C 4780 7096            01B62  9083    1518.              BE    VW2
 001B50 1BFF                        9084    1519.              CLEAR R15                     RETURN CODE IF NO WRITE
 001B52 4850 A118            00118  9088    1520.              LH    RR,CLWOBUF              LENGTH OF THIS LINE
 001B56 4145 3005            00005  9089    1521.              LA    QR,@TR+4+1(RR)          NEW CONTROL WORD
 001B5A 5940 74F4            01FC0  9090    1522.              C     QR,=A(4096-4-4)         WILL IT FIT?
 001B5E 4740 70C8            01B94  9091    1523.              BL    VW4                     YES
                                    9092    1524.     *
                                    9093    1525.     * TIME TO WRITE TO WDS
1VCLP     (VCLP00) (09:46) (22MAR04) ORVYL'S COMMAND LANGUAGE PROCESSOR                                                     Page   77
0Current Usings:  (*,R7) (CLW,R10) (SCP,R11)
0Loc    Object Code    Addr1 Addr2  Stmt Lv Lineno    Source Statement           (Hibal 5, Asmedit 3.3)  HLASM R4.0  2004/03/22 09.46
+___    ______ ____    _____ _____  ____ __ ______    ______ _________
0                                   9094    1526.     *
 001B62 12F3                        9095    1527.     VW2      LTR   R15,TR                  BUFF LENGTH
 001B64 4780 70B0            01B7C  9096    1528.              BZ    VW3
 001B68 56F0 74F8            01FC4  9097    1529.              O     R15,=X'00020000'        OPTION CODE: INSERT
 001B6C 1BEE                        9098    1530.              CLEAR R14
 001B6E 4100 0001            00001  9102    1531.              WRITE LA:1,4(SR),(15),MODE=TEXT
 001B72 4112 0004/1311       00004  9114             +
 001B78 0AF6                        9125             +
 001B7A 0AF2                        9127    1532.              WAIT  (0)
 001B7C 95FF A11A      0011A        9135    1533.     VW3      CLI   CLWOBUF+2,X'FF'         WDS BUFFER CLEARED?
 001B80 4780 712C            01BF8  9136    1534.              BE    VWFREE0                 RELEASE BUFFER
 001B84 4132 3004            00004  9137    1535.              LA    TR,4(SR,TR)             OLD END OF BUFFER
 001B88 D203 2004 3000 00004 00000  9138    1536.              MVC   @SR+4(4),@TR            MOVE UP NEXT LINE NUMBER
 001B8E 4140 5005            00005  9139    1537.              LA    QR,@RR+4+1              NEW CONTROL WORD
 001B92 1B33                        9140    1538.              CLEAR TR
 001B94 5040 2000            00000  9144    1539.     VW4      ST    QR,@SR                  NEW CONTROL WORD
 001B98 4132 3004            00004  9145    1540.              LA    TR,4(SR,TR)             BUFFER FOR NEW LINE
 001B9C 4250 3004            00004  9146    1541.              STC   RR,4(,TR)               LENGTH BYTE
 001BA0 4450 75A6            02072  9147    1542.              EX    RR,'MVC   5(*-*,TR),CLWOBUF+4'   MOVE LINE TO BUFFER
 002072 D200 3005 A11C 00005 0011C  9155             +
 001BA4 BF1F 3000            00000  9163    1543.              L4    R1,@TR                  PRE-SET LINE NUMBER
                                    9165    1544.     *         A     R1,=A(1000)             NEXT LINE NUMBER
 001BA8 5A10 A308            00308  9166    1545.              A     R1,CLWDELTA             NEXT LINE NUMBER
 001BAC 4135 3000            00000  9167    1546.              LA    TR,@TR(RR)              ADD
 001BB0 BE1F 3005            00005  9168    1547.              ST4   R1,5(TR)                KEEP AT END OF LAST LINE
 001BB4 54F0 74FC            01FC8  9170    1548.              N     R15,=X'FFFFFFF8'        MASK EDIT RETURN CODE=4
 001BB8 4770 7132            01BFE  9171    1549.              BNZ   VWERR
 001BBC 9140 B261      00261        9172    1550.     VWDONE   IF    ~SCBCFCLA,VWEXIT        IDLE ATTN?
 001BC0 47E0 711C            01BE8  9185             +
 001BC4 9140 A207      00207        9191    1551.              IF    ~CLWFCMD,BEGIN         IF NOT DOING COMMAND SVC
 001BC8 4710 7110            01BDC  9201             +
 001BCC 4100 0001            00001  9206  1 1552.                CONTROL  LA:1,32,4            INDICATE ATTENTION
 001BD0 4110 0020            00020  9218  1          +
 001BD4 41F0 0004/0AF5       00004  9225  1          +
 001BDA 0AF2                        9232  1 1553.                WAIT  (0)
 001BDC                             9240    1554.              END   ,
 001BDC 41F0 0004            00004  9244    1555.              LA    R15,4                   ABORT CODE
 001BE0 9102 A20A      0020A        9245    1556.              IF    CLWMDSUP,VWABORT        DUMPING?
 001BE4 4710 7156            01C22  9257             +
 001BE8                             9263    1557.     VWEXIT   DS    0H
 001BE8                             9264    1558.              CLEAR (CLWOBUF,4)
 001BE8 D703 A118 A118 00118 00118  9270             +
 001BEE 18D8/9829 D000       00000  9271    1559.     VWEX1    VEXIT SR,RAR,LTR
 001BF4 12FF/07F9                   9275             +
                                    9277    1560.
 001BF8 1BFF                        9278    1561.     VWFREE0  CLEAR R15                     GIVE GOOD RETURN
 001BFA 47F0 7136            01C02  9283    1562.              B     VWFREE
 001BFE 41F0 0004            00004  9284    1563.     VWERR    LA    R15,4                   ERROR CODE
 001C02 94FC A20A      0020A        9285    1564.     VWFREE   CLEAR CLWMDUMP+CLWMDSUP
 001C06 182F                        9296    1565.              LR    SR,R15                  SAVE RETURN
 001C08 5810 A260            00260  9297    1566.              FREECLW L:CLWDUMPB,4095        FREE DUMP BUFFER
 001C0C 41F0 0FFF            00FFF  9309             +
 001C10 5890 7500/0D99       01FCC  9312             +
 001C16                             9314    1567.              CLEAR (CLWOBUF+2,2)           PRESERVE ERROR MESSAGE
1VCLP     (VCLP00) (09:46) (22MAR04) ORVYL'S COMMAND LANGUAGE PROCESSOR                                                     Page   78
0Current Usings:  (*,R7) (CLW,R10) (SCP,R11)
0Loc    Object Code    Addr1 Addr2  Stmt Lv Lineno    Source Statement           (Hibal 5, Asmedit 3.3)  HLASM R4.0  2004/03/22 09.46
+___    ______ ____    _____ _____  ____ __ ______    ______ _________
0001C16 D701 A11A A11A 0011A 0011A  9320             +
 001C1C 12F2                        9321    1568.              LTR   R15,SR                  ERROR OR ATTN?
 001C1E 47F0 7122            01BEE  9322    1569.              B     VWEX1                   ERROR
                                    9323    1570.
 001C22 92FF A11A      0011A        9324    1571.     VWABORT  MVI   CLWOBUF+2,X'FF'         MARK BUFF CLEAR
 001C26 5890 74D0/0D99       01F9C  9325    1572.              VWRITE ,                      CLEAR DUMP BUFFER
 001C2C                             9330    1573.              CLEAR (CLWOBUF,4)
 001C2C D703 A118 A118 00118 00118  9336             +
 001C32 4110 7504            01FD0  9337    1574.              VSEG  'Dump aborted'
 001C36 4100 000C            0000C  9341             +
 001C3A 5890 74E0/0D99       01FAC  9344             +
 001C40 4110 756C            02038  9346    1575.              VSEG  =X'15',1                ADD A NEW LINE
 001C44 4100 0001            00001  9362             +
 001C48 5890 74E0/0D99       01FAC  9365             +
 001C4E 5890 7510/0D99       01FDC  9367    1576.              VCALL SHOWLAST                TELL WHERE WE STOPPED
 001C54 41F0 0004            00004  9371    1577.              LA    R15,4
 001C58 47F0 7122            01BEE  9372    1578.              B     VWEX1                   DONE
                                    9373    1579.     *
                                    9374    1580.     *
 001C5C 4110 756D            02039  9375    1581.     NOCORE   VWRITE 'INSUFFICIENT USER MEMORY TO PROCESS COMMAND'
 001C60 4100 002B            0002B  9380             +
 001C64 5890 74E0/0D99       01FAC  9383             +
 001C6A 5890 74D0/0D99       01F9C  9387             +
 001C70 47F0 7132            01BFE  9389    1582.              B     VWERR
1VCLP     (VCLP00) (09:46) (22MAR04) ORVYL'S COMMAND LANGUAGE PROCESSOR                                                     Page   79
0Current Usings:  (*,R7) (CLW,R10) (SCP,R11)
0Loc    Object Code    Addr1 Addr2  Stmt Lv Lineno    Source Statement           (Hibal 5, Asmedit 3.3)  HLASM R4.0  2004/03/22 09.46
+___    ______ ____    _____ _____  ____ __ ______    ______ _________
0                                   9391    1584.     *  TYPE AND PROMPT
                                    9392    1585.     *
 001C74 9029 D000/188D       00000  9393    1586.     VREAD    VENTER SR,RAR,*
 001C7A 41D0 D020/0D70       00020  9398             +
 001C80 4110 7382            02002  9416    1587.              VSEG  '? '
 DROP   *,R7
 USING  *,R7
 001C84 4100 0002            00002  9420             +
 001C88 5890 732C/0D99       01FAC  9423             +
 001C8E 4820 A118            00118  9425    1588.              LH    SR,CLWOBUF              COMPUTE COUNTS
 001C92 4830 A11A            0011A  9426    1589.              LH    TR,CLWOBUF+2
 001C96 4030 A118            00118  9427    1590.              STH   TR,CLWOBUF
 001C9A 1B23                        9428    1591.              SR    SR,TR
 001C9C 4020 A11A            0011A  9429    1592.              STH   SR,CLWOBUF+2
 001CA0                             9430    1593.     VRAGAIN  DS    0H
 001CA0 4100 0001            00001  9431    1594.              READ  LA:1,CLWIBUF,CLWIBUFL,LA:CLWOBUF
 001CA4 4110 A02D            0002D  9443             +
 001CA8 41F0 00EB            000EB  9450             +
 001CAC 41E0 A118/0AF7       00118  9455             +
 001CB2 0AF2                        9459    1595.              WAIT  (0)
 001CB4 4740 7056            01CD6  9467    1596.              BM    VRIO                    BR IF I/O ERROR
 001CB8 4720 707E            01CFE  9468    1597.              BP    VRATTN                  BR IF ATTN
 001CBC 4010 A028            00028  9469    1598.     VRRET    STH   R1,CLWIBUFN
 001CC0 1801                        9470    1599.              LR    R0,R1
 001CC2 4110 A02D            0002D  9471    1600.              LA    R1,CLWIBUF
 001CC6                             9472    1601.              CLEAR (CLWOBUF,4)
 001CC6 D703 A118 A118 00118 00118  9478             +
 001CCC 18D8/9829 D000       00000  9479    1602.              VEXIT SR,RAR,LTR
 001CD2 12FF/07F9                   9483             +
                                    9485    1603.     *
                                    9486    1604.     *
 001CD6                             9487    1605.     VRIO     DS    0H
 001CD6 4110 73E4            02064  9488    1606.              SYSQS R1,15,'RETYPE.'
 001CDA 41F0 0007            00007  9491             +
 001CDE 0AF6                        9492    1607.              WRITE (0),(1),(15)
 001CE0 0AF2                        9514    1608.              WAIT  (0)
                                    9522    1609.
 001CE2                             9523    1610.     VREPROM  DS    0H
 001CE2 4120 A11C            0011C  9524    1611.              LA    SR,CLWOBUF+4            MOVE PROMPT TO START OF BUFFER
 001CE6 4A20 A118            00118  9525    1612.              AH    SR,CLWOBUF
 001CEA 4830 A11A            0011A  9526    1613.              LH    TR,CLWOBUF+2
 001CEE 0630/4430 73F8       02078  9527    1614.              DEX   TR,'MVC  CLWOBUF+4(0),@SR'
 002078 D200 A11C 2000 0011C 00000  9538             +
 001CF4 1B33                        9546    1615.              CLEAR TR
 001CF6 4030 A118            00118  9550    1616.              STH   TR,CLWOBUF
 001CFA 47F0 7020            01CA0  9551    1617.              B     VRAGAIN
                                    9552    1618.
1VCLP     (VCLP00) (09:46) (22MAR04) ORVYL'S COMMAND LANGUAGE PROCESSOR                                                     Page   80
0Current Usings:  (*,R7) (CLW,R10) (SCP,R11)
0Loc    Object Code    Addr1 Addr2  Stmt Lv Lineno    Source Statement           (Hibal 5, Asmedit 3.3)  HLASM R4.0  2004/03/22 09.46
+___    ______ ____    _____ _____  ____ __ ______    ______ _________
0                                   9554    1620.     *
 001CFE 1211/4770 7062       01CE2  9555    1621.     VRATTN   IF    (R1,NZER),VREPROM       REPROMPT IF SOMETHING
 001D04 9140 A207      00207        9573    1622.              IF    CLWFCMD,VRRET           DONE IF IN COMMAND SVC
 001D08 4710 703C            01CBC  9585             +
 001D0C 90F1 D000            00000  9591    1623.              VPUSH R15,R1,*                SAVE
 001D10 41D0 D00C            0000C  9593             +
 001D14 4100 0001            00001  9594    1624.              CONTROL  LA:1,32,4            INDICATE ATTENTION
 001D18 4110 0020            00020  9606             +
 001D1C 41F0 0004/0AF5       00004  9613             +
 001D22 0AF2                        9620    1625.              WAIT  (0)
 001D24 4BD0 7384            02004  9628    1626.              VPOP  R15,R1,*
 001D28 98F1 D000            00000  9630             +
 001D2C 47F0 703C            01CBC  9631    1627.              B     VRRET                   RETURN
1VCLP     (VCLP00) (09:46) (22MAR04) ORVYL'S COMMAND LANGUAGE PROCESSOR                                                     Page   81
0Current Usings:  (*,R7) (CLW,R10) (SCP,R11)
0Loc    Object Code    Addr1 Addr2  Stmt Lv Lineno    Source Statement           (Hibal 5, Asmedit 3.3)  HLASM R4.0  2004/03/22 09.46
+___    ______ ____    _____ _____  ____ __ ______    ______ _________
0                                   9633    1629.     * OBTAIN WORK SPACE FOR CLP
                                    9634    1630.     *
 001D30 902B D000/188D       00000  9635    1631.     GETCLW   VENTER SR,SCPR,*
 001D36 41D0 D028/0D70       00028  9640             +
 001D3C 4100 0020/0AED       00020  9658    1632.              CLPSERV  GETCLW,(1),(15)      GET CORE FOR CLP
 DROP   *,R7
 USING  *,R7
 001D42 18D8/982B D000       00000  9677    1633.              VEXIT SR,SCPR,LTR
 001D48 12FF/07F9                   9681             +
-
                                    9684    1635.     * RELEASE WORK SPACE FOR CLP
                                    9685    1636.     *
 001D4C 902B D000/188D       00000  9686    1637.     FREECLW  VENTER SR,SCPR,*
 001D52 41D0 D028/0D70       00028  9691             +
 001D58 4100 0024/0AED       00024  9709    1638.              CLPSERV FREECLW,(1),(15)      FREE CLW
 DROP   *,R7
 USING  *,R7
 001D5E 18D8/982B D000       00000  9728    1639.              VEXIT SR,SCPR,LTR
 001D64 12FF/07F9                   9732             +
1VCLP     (VCLP00) (09:46) (22MAR04) ORVYL'S COMMAND LANGUAGE PROCESSOR                                                     Page   82
0Current Usings:  (*,R7) (CLW,R10) (SCP,R11)
0Loc    Object Code    Addr1 Addr2  Stmt Lv Lineno    Source Statement           (Hibal 5, Asmedit 3.3)  HLASM R4.0  2004/03/22 09.46
+___    ______ ____    _____ _____  ____ __ ______    ______ _________
0                                   9735    1641.     *  TEST FOR PRIVILIGED USER
                                    9736    1642.     *
 001D68 9079 D000/188D       00000  9737    1643.     PRIVTEST VENTER BR,RAR,*
 001D6E 41D0 D00C/0D70       0000C  9742             +
 001D74 4100 0028/0AED       00028  9760    1644.              CLPSERV PRIVTST               UPDATE PRIVS
 DROP   *,R7
 USING  *,R7
 001D7A 58F0 A000            00000  9769    1645.              L     R15,CLWSCP              SCP POINTER
 001D7E 9120 F1B7      001B7        9770    1646.              WITH  (SCP,R15),'TM  SCPPRIV,KWRIFSPR'
 USING  SCP,R15
 DROP   SCP,R15
 001D82 47E0 7018/1BFF       01D8C  9794    1647.              IF    O,'CLEAR R15;B PRIVEXIT'      BR IF SO
 001D88 47F0 7030            01DA4  9810             +
 001D8C 4110 7292            02006  9815    1648.              VSEG  'Privileged command'
 001D90 4100 0012            00012  9819             +
 001D94 5890 7238/0D99       01FAC  9822             +
 001D9A 5890 726C/0D99       01FE0  9824    1649.              VCALL TYPEIT
 001DA0 41F0 0004            00004  9828    1650.              LA    R15,4                   SET BAD RETURN
 001DA4 18D8/9879 D000       00000  9829    1651.     PRIVEXIT VEXIT BR,RAR,LTR
 001DAA 12FF/07F9                   9833             +
-
                                    9836    1653.     *  TEST FOR PRIVILEGED USER, BUT DON'T WRITE A MESSAGE
                                    9837    1654.     *
 001DAE 9079 D000/188D       00000  9838    1655.     PRIVTNOM VENTER BR,RAR,*
 001DB4 41D0 D00C/0D70       0000C  9843             +
 001DBA 4100 0028/0AED       00028  9861    1656.              CLPSERV PRIVTST
 DROP   *,R7
 USING  *,R7
 001DC0 58F0 A000            00000  9870    1657.              L     R15,CLWSCP              SCP POINTER
 001DC4 9120 F1B7      001B7        9871    1658.              WITH  (SCP,R15),'TM  SCPPRIV,KWRIFSPR'
 USING  SCP,R15
 DROP   SCP,R15
 001DC8 47E0 7014/1BFF       01DCE  9895    1659.              IF    O,'CLEAR R15'           IS PRIVILEGED
 001DCE 7018           01DCE 01DCA  9915    1660.              ELSE  'LA  R15,4'              IS NOT
 001DCE 47F0 701C            01DD6  9920             +
 001DD2 41F0 0004            00004  9927             +
 001DD6 18D8/9879 D000       00000  9932    1661.              VEXIT BR,RAR,LTR
 001DDC 12FF/07F9                   9936             +
1VCLP     (VCLP00) (09:46) (22MAR04) LOGON ROUTINE                                                                          Page   83
0Current Usings:  (*,R7) (CLW,R10) (SCP,R11)
0Loc    Object Code    Addr1 Addr2  Stmt Lv Lineno    Source Statement           (Hibal 5, Asmedit 3.3)  HLASM R4.0  2004/03/22 09.46
+___    ______ ____    _____ _____  ____ __ ______    ______ _________
0                                   9940    1664.     *
                                    9941    1665.     * ROUTINE TO HANDLE THE CASE WHERE WE MUST ASK THE USER ABOUT
                                    9942    1666.     * HIS USER ID AND PASSWORD TO ALLOW HIM ON
                                    9943    1667.     *
 000000                00000 00134  9944    1668.     CKLWA    RECORD BEGIN
                                    9952  1 1669.                VSA   R0,R15
 000000                             9953  1 01-VSA   +           DS    (R15+1-(R0)+16*((R0)/(R15+1))/((R0)/(R15+1)))F
 000040                             9954  1 1670.     CKLKWR     DS    XL(KWRSIZE)        ROOM FOR THE KWR RECORD
 00010C                             9955  1 1671.     CKLABUF    DS    XL20               ROOM FOR THE ACCOUNT RESPONSE
 000120                             9956  1 1672.     CKLKBUF    DS    XL20               ROOM FOR THE KEYWORD RESPONSE
 000134                00134 00134  9957    1673.              END   ,
 001DE0 900F D000/188D       00000  9966    1674.     CKLOGON  VENTER R0,R15,L'CKLWA,LOCAL
 001DE6 41D0 D134/0D70       00134  9970             +
 DROP   *,R7                        9988    1675.              USING CKLWA,WAR          ADDRESS THE WORK AREA
 USING  *,R7
 USING  CKLWA,R8
 001DEC                             9997    1676.              IF    (SCPACCT,NE,'  .   '),CKLDONE    ALREADY HAVE IT
 001DEC D505 722C B1AA 02018 001AA 10008             +
 001DF2 4770 70C2            01EAE 10011             +
 001DF6 9680 A20C      0020C       10017    1677.              SET   CLWSSAM                          MUST BE STAND ALONE
 001DFA D213 810C 71F8 0010C 01FE4 10023    1678.     REASK    MVC   CKLABUF,=CL20' '
 001E00 D213 8120 71F8 00120 01FE4 10024    1679.              MVC   CKLKBUF,=CL20' '
 001E06 4100 0001            00001 10025    1680.              READ  LA:1,CKLABUF,L'CKLABUF,CKLACCP   PROMPT FOR ACCOUNT
 001E0A 4110 810C            0010C 10037             +
 001E0E 41F0 0014            00014 10044             +
 001E12 41E0 70CA/0AF7       01EB6 10051             +
 001E18 0AF2                       10055    1681.              WAIT  (0)
 001E1A 4770 700E            01DFA 10063    1682.              IF    NZ,REASK
 001E1E 4100 0001            00001 10077    1683.              READ  LA:1,CKLKBUF,L'CKLKBUF,CKLKEYP   PROMPT FOR KEYWORD
 001E22 4110 8120            00120 10089             +
 001E26 41F0 0014            00014 10096             +
 001E2A 41E0 70E6/0AF7       01ED2 10103             +
 001E30 0AF2                       10107    1684.              WAIT  (0)
 001E32 4770 700E            01DFA 10115    1685.              IF    NZ,REASK
                                   10129    1686.     *
                                   10130    1687.     * NOW VERIFY THAT THEY ARE OK
                                   10131    1688.     *
 001E36 954B 810E      0010E       10132    1689.              IF    (CKLABUF+2,NE,'.'),BLITZEM   NOGOOD AS IS
 001E3A 4770 70BA            01EA6 10146             +
 001E3E 47F0 70BA            01EA6 10152    1690.              B     BLITZEM                 **** NO KEYWORD ACCESS ****
 001E42 4100 0008/1B11       00008 10153    1691.              ATTACH 8
 001E48 1BEE/0AF9                  10171             +
 001E4C 4770 70BA            01EA6 10175    1692.              IF    NZ,BLITZEM
 001E50 0AF2                       10189    1693.              WAIT  (0)
 001E52 4770 70BA            01EA6 10197    1694.              IF    NZ,BLITZEM
 001E56 4110 8040            00040 10211    1695.              READ  (0),CKLKWR,KWRSIZE,CKLABUF     READ IN THE KWR REC
 001E5A 41F0 00CC            000CC 10230             +
 001E5E 41E0 810C/0AF7       0010C 10237             +
 001E64 4770 70BA            01EA6 10241    1696.              IF    NZ,BLITZEM
 001E68 0AF2                       10255    1697.              WAIT  (0)
 001E6A 4770 70BA            01EA6 10263    1698.              IF    NZ,BLITZEM
 001E6E 0AF8                       10277    1699.              DETACH (0)
 001E70 0AF2                       10285    1700.              WAIT  (0)
 001E72 4150 8040            00040 10293    1701.              LA    R5,CKLKWR
1VCLP     (VCLP00) (09:46) (22MAR04) LOGON ROUTINE                                                                          Page   84
0Current Usings:  (KWR,R5) (*,R7) (CKLWA,R8) (CLW,R10) (SCP,R11)
0Loc    Object Code    Addr1 Addr2  Stmt Lv Lineno    Source Statement           (Hibal 5, Asmedit 3.3)  HLASM R4.0  2004/03/22 09.46
+___    ______ ____    _____ _____  ____ __ ______    ______ _________
0USING  KWR,R5                     10294    1702.              USING KWR,R5
 001E76 D703 8124 8120 00124 00120 10303    1703.              XC    CKLKBUF+4(4),CKLKBUF         MISH
 001E7C D707 8120 71A4 00120 01F90 10304    1704.              XC    CKLKBUF(8),=C'EATATCIT'      MASH
 001E82 D507 5070 8120 00070 00120 10305    1705.              CLC   KWRPASS,CKLKBUF
 001E88 4770 70BA            01EA6 10306    1706.              IF    NE,BLITZEM
                                   10320    1707.     *
                                   10321    1708.     * OK...IT LOOKS AS IF HE IS OK
                                   10322    1709.     *
 001E8C D205 B1AA 810C 001AA 0010C 10323    1710.              MVC   SCPACCT,CKLABUF              MOVE IN ACCOUNT HERE
 001E92 4100 0001            00001 10324    1711.              WRITE LA:1,GREETING,L'GREETING
 001E96 4110 7102            01EEE 10336             +
 001E9A 41F0 002D/0AF6       0002D 10343             +
 001EA0 0AF2                       10350    1712.              WAIT  (0)
 001EA2 47F0 70C2            01EAE 10358    1713.              B     CKLDONE
 001EA6 5870 720C            01FF8 10359    1714.     BLITZEM  L     BR,=A(ENTBASE)
 001EAA 47F0 7272            00272 10360    1715.              B     (LOGOFF-ENTBASE)(,BR)        DROP THEM
                                   10361    1716.
 001EAE                            10362    1717.     CKLDONE  LABEL ,
 001EAE 18D8/980F D000       00000 10364    1718.              VEXIT R0,R15
 001EB4 07F9                       10368             +
                                   10369    1719.
 001EB6                            10370    1720.     CKLACCP  DS    0H
 001EB6 0000                       10371    1721.              DC    Y(0)
 001EB8 0018                       10372    1722.              DC    Y(L'CKLAP2)
 001EBA 7C7CE2E8E2D4D6C4           10373    1723.     CKLAPX   DC    C'@@SYSMODE:'
 001EC4 00800000                   10374    1724.              DC    X'00800000'
 001EC8 7A                         10375    1725.              DC    C':'
 001EC9 C1C3C3D6E4D5E36F           10376    1726.              DC    C'ACCOUNT? '
                                   10377    1727.     CKLAP2   EQU   CKLAPX,*-CKLAPX,C'C'
                                   10378    1728.
 001ED2                            10379    1729.     CKLKEYP  DS    0H
 001ED2 0000                       10380    1730.              DC    Y(0)
 001ED4 0018                       10381    1731.              DC    Y(L'CKLKP2)
 001ED6 7C7CE2E8E2D4D6C4           10382    1732.     CKLKPX   DC    C'@@SYSMODE:'
 001EE0 00800400                   10383    1733.              DC    X'00800400'
 001EE4 7A                         10384    1734.              DC    C':'
 001EE5 D2C5E8E6D6D9C46F           10385    1735.              DC    C'KEYWORD? '
                                   10386    1736.     CKLKP2   EQU   CKLKPX,*-CKLKPX,C'C'
                                   10387    1737.
 001EEE                            10388    1738.     GRSTART  DS    0C
 001EEE 27ADF2D127AD86             10389    1739.              DC    X'27ADF2D127AD86'
 001EF5 151515                     10390    1740.              DC    X'151515'
 001EF8 5C5C5C5C5C40D6D9           10391    1741.              DC    C'***** ORVYL LOGON COMPLETE *****'
 001F18 151515                     10392    1742.              DC    X'151515'
                                   10393    1743.     GREETING EQU   GRSTART,*-GRSTART,C'C'
 DROP   CKLWA,R8                   10394    1744.              DROP  WAR
 DROP   KWR,R5                     10401    1745.              DROP  R5
1VCLP     (VCLP00) (09:46) (22MAR04) LOGON ROUTINE                                                                          Page   85
0Current Usings:  (*,R7) (CLW,R10) (SCP,R11)
0Loc    Object Code    Addr1 Addr2  Stmt Lv Lineno    Source Statement           (Hibal 5, Asmedit 3.3)  HLASM R4.0  2004/03/22 09.46
+___    ______ ____    _____ _____  ____ __ ______    ______ _________
0                                  10409    1747.     * ROUTINE TO MOVE INFO FROM OS/VS CORE TO LOCAL CORE
                                   10410    1748.     *
                                   10411    1749.     *        ROUTINE IS CALLED WITH RAR POINTING TO AN MVC INSTRUCTION. THE
                                   10412    1750.     *        SOURCE IS ASSUMED TO BE IN OS/VS CORE AND THE DESTINATION IN
                                   10413    1751.     *        LOCAL MEMORY. AFTER SIMULATING THE MVC INSTRUCTION, CONTROL
                                   10414    1752.     *        IS RETURNED FOLLOWING THE MVC INSTRUCTION. NOTE: ONE MAY NOT
                                   10415    1753.     *        'EX' AN MVCOS PSEUDO-INSTRUCTION.
                                   10416    1754.     *
 001F1B 00/900F D000         00000 10417    1755.     MVCOS    VENTER R0,R15,*               STORE REGS IN TABLE FASHION.
 001F20 188D/41D0 D040       00040 10421             +
 001F26 0D70                       10425             +
 DROP   *,R7
 USING  *,R7
 001F28 1FFF/43F0 9001       00001 10440    1756.              LC    R15,@RAR+1              PICK UP MVC LENGTH
 001F2E 41F0 F001            00001 10447    1757.              LA    R15,@R15+1              ADJUST FOR ONE LESS
 001F32 4820 9002            00002 10448    1758.              LH    SR,@RAR+2               D(B) OF DESTINATION
 001F36 5420 70D4            01FFC 10449    1759.              N     SR,=X'0000FFFF'         CLEAR SIGN BIT(S)
 001F3A 8C20 000C            0000C 10450    1760.              SRDL  SR,12                   PUT D IN TR
 001F3E 8830 0014            00014 10451    1761.              SRL   TR,32-12                RIGHT ADJUST D
 001F42 1222/4780 7028       01F50 10452    1762.              IF    (SR,NZ),BEGIN           BASE REG
 001F48 1A22                       10466  1 1763.                  AR  SR,SR
 001F4A 1A22                       10467  1 1764.                  AR  SR,SR                 ADDRESS WORD IN TABLE
 001F4C 5E32 8000            00000 10468  1 1765.                  AL  TR,@WAR(SR)           ADD B TO D
 001F50                            10469    1766.              END   ,
 001F50 1813                       10473    1767.              LR    R1,TR                   DESTINATION POINTER
 001F52 4820 9004            00004 10474    1768.              LH    SR,@RAR+4               D(B) OF SOURCE
 001F56 5420 70D4            01FFC 10475    1769.              N     SR,=X'0000FFFF'         CLEAR SIGN BIT(S)
 001F5A 8C20 000C            0000C 10476    1770.              SRDL  SR,12                   PUT D IN TR
 001F5E 8830 0014            00014 10477    1771.              SRL   TR,32-12                RIGHT ADJUST D
 001F62 1222/4780 7048       01F70 10478    1772.              IF    (SR,NZ),BEGIN           BASE REG
 001F68 1A22                       10492  1 1773.                  AR  SR,SR
 001F6A 1A22                       10493  1 1774.                  AR  SR,SR                 ADDRESS WORD IN TABLE
 001F6C 5E32 8000            00000 10494  1 1775.                  AL  TR,@WAR(SR)           ADD B TO D
 001F70                            10495    1776.              END   ,
 001F70 18E3                       10499    1777.              LR    R14,TR                  SOURCE POINTER
 001F72 41EE 704A            01F72 10500    1778.              CLPSERV FETCH,(1),(15),*(14)   DO CORE MOVE
 001F76 4100 0008/0AED       00008 10524             +
 001F7C 4190 9006            00006 10526    1779.              LA    RAR,@RAR+6              UPDATE RETURN
 001F80 5090 8024            00024 10527    1780.              ST    RAR,@WAR+RAR*4
 001F84 18D8/980F D000       00000 10528    1781.              VEXIT R0,R15
 001F8A 07F9                       10532             +
1VCLP     (VCLP00) (09:46) (22MAR04) LOGON ROUTINE                                                                          Page   86
0Current Usings:  (*,R7) (CLW,R10) (SCP,R11)
0Loc    Object Code    Addr1 Addr2  Stmt Lv Lineno    Source Statement           (Hibal 5, Asmedit 3.3)  HLASM R4.0  2004/03/22 09.46
+___    ______ ____    _____ _____  ____ __ ______    ______ _________
0                                  10534    1783.     *  CONSTANTS
                                   10535    1784.     *
 001F90                            10536    1785.              LTORG
 001F90 C5C1E3C1E3C3C9E3           10538                             =C'EATATCIT'
 001F98 00000000                   10539                             =V(RITECORE)
 001F9C 00000000                   10540                             =V(VWRITE)
 001FA0 0000000A                   10541                             =A(10)
 001FA4 00000180                   10542                             =A(384)
 001FA8 00000000                   10543                             =V(BTR)
 001FAC 00000000                   10544                             =V(VSEG)
 001FB0 00000000                   10545                             =V(LDSECT)
 001FB4 00000000                   10546                             =V(BTX)
 001FB8 00000000                   10547                             =V(LDENTRY)
 001FBC 00000000                   10548                             =V(GETCLW)
 001FC0 00000FF8                   10549                             =A(4096-4-4)
 001FC4 00020000                   10550                             =X'00020000'
 001FC8 FFFFFFF8                   10551                             =X'FFFFFFF8'
 001FCC 00000000                   10552                             =V(FREECLW)
 001FD0 C4A4949740818296           10553                             =C'Dump aborted'
 001FDC 00000000                   10554                             =V(SHOWLAST)
 001FE0 00000000                   10555                             =V(TYPEIT)
 001FE4 4040404040404040           10556                             =CL20' '
 001FF8 00000002                   10557                             =A(ENTBASE)
 001FFC 0000FFFF                   10558                             =X'0000FFFF'
 002000 404D                       10559                             =C' ('
 002002 6F40                       10560                             =C'? '
 002004 000C                       10561                             =Y((R1+1-(R15)+16*((R15)/(R1+1))/((R15)/(R1+1)))*4)
 002006 D79989A589938587           10562                             =C'Privileged command'
 002018 40404B404040               10563                             =C'  .   '
 00201E 000000                     10564                             =X'000000'
 002021 606E40                     10565                             =C'-> '
 002024 404B4B4B40                 10566                             =C' ... '
 002029 406040D3C1E2E340           10567                             =C' - LAST LINE.'
 002036 4E                         10568                             =C'+'
 002037 5D                         10569                             =C')'
 002038 15                         10570                             =X'15'
 002039 C9D5E2E4C6C6C9C3           10571                             =C'INSUFFICIENT USER MEMORY TO PROCESS COMMAND'
 002064 D9C5E3E8D7C54B             10572                             =C'RETYPE.'
 002080                02080 02080 10576    1786.              END   .

1VCLP     (VCLP00) (09:46) (22MAR04) Ordinary Symbol and Literal Cross Reference                                            Page   87
-Symbol   Length   Value     Id    R Type   Defn References                                  HLASM R4.0  2004/03/22 09.46
0$$$@R10       1 00000000 FFFFFFF4     J     836  1121
 $$$@R11       1 00000000 FFFFFFF3     J     849  1134   1146
 $$$@R2        1 00000000 FFFFFFFC     J     732  1017
 $$$@R3        1 00000000 FFFFFFFB     J     745  1030
 $$$@R4        1 00000000 FFFFFFFA     J     758  1043
 $$$@R5        1 00000000 FFFFFFF9     J     771  1056
 $$$@R6        1 00000000 FFFFFFF8     J     784  1069
 $$$@R7        1 00000000 FFFFFFF7     J     797  1082
 $$$@R8        1 00000000 FFFFFFF6     J     810  1095
 $$$@R9        1 00000000 FFFFFFF5     J     823  1108
 $$$C1VCLP
               1 00000EFA 00000001     J    5754  5756   6064
 $$$C2VCLP
               1 000016BA 00000001     J    7502  7504   8564   9161   9544   9964
 $$$C3VCLP
               1 0000207E 00000001     J   10573 10575
 $$$C4VCLP
               1 00002080 00000001     J   10579 10581
 $$$D0VCLP
               1 00000EE9 00000001     J     995  5045   5568   5606
 $$$D1VCLP
               1 000016B4 00000001     J    5755  6053
 $$$D2VCLP
               1 0000206B 00000001     J    7503  8553   9150   9533
 $$$RCKLWA
               1 00000000 FFFFFFEA     J    9946  9963   9963
 $$$RCLW       1 00000000 FFFFFFEC     J    1662  1969   1969
 $$$RPZERO
               1 00000000 FFFFFFEE     J    1213  1304   1304
 $$$RSCP       1 00000000 FFFFFFED     J    1317  1646   1646
 $$$Z0         4 00000D64 00000001     F    5682  2285   5392
 $$$0B         1 00000002 00000001     X    2211  2218U
 $$$1B         4 0000002A 00000001     I    2242  2257
 $$$1F         2 00000032 00000001     H    2253  2242B  2256
 $$$10F        2 0000022C 00000001     H    3117  2745B
 $$$10T        2 00000176 00000001     H    2748  2733B
 $$$100F       2 00000F9E 00000001     H    6009  5993B
 $$$101F       2 00000FB2 00000001     H    6045  6036B
 $$$102        6 000016B4 00000001     I    6059  6051X
 $$$103        6 000016B4 00000001     I    6058  6059   6059
 $$$104B       4 0000102A 00000001     I    6214  6251
 $$$104F       2 00001046 00000001     H    6248  6214B  6250
 $$$105E       2 0000104A 00000001     H    6258  6252
 $$$105F       2 00001058 00000001     H    6272  6254B
 $$$106F       2 000010BC 00000001     H    6367  6357B
 $$$108F       2 00001280 00000001     H    6547  6537B
 $$$111F       2 0000141E 00000001     H    6942  6883B
 $$$111S       2 000013E2 00000001     H    6857  6941B
 $$$113F       2 000013FE 00000001     H    6907  6898B
 $$$114F       2 0000146A 00000001     H    7034  7021B
 $$$115F       2 00001488 00000001     H    7081  7045B
 $$$118F       2 0000152E 00000001     H    7241  7223B
 $$$119F       2 00001578 00000001     H    7400  7343B
 $$$12F        2 00000184 00000001     H    2777  2762B
 $$$120F       2 00001572 00000001     H    7376  7366B
1VCLP     (VCLP00) (09:46) (22MAR04) Ordinary Symbol and Literal Cross Reference                                            Page   88
 $$$121F       2 0000158A 00000001     H    7430  7420B
 $$$122B       1 000016C6 00000001     X    7519  7526U
 $$$124B       1 0000171A 00000001     X    7570  7580U
 $$$125F       2 00001738 00000001     H    7651  7593B
 $$$126F       2 00001768 00000001     H    7763  7691B
 $$$126S       2 0000173A 00000001     H    7663  7762B
 $$$128F       2 00001784 00000001     H    7831  7804B
 $$$128S       2 0000176A 00000001     H    7775  7830B
 $$$13F        2 00000192 00000001     H    2805  2790B
 $$$130B       1 00001798 00000001     X    7851  7861U
 $$$131F       2 000017BE 00000001     H    7943  7902B
 $$$132B       1 000017DA 00000001     X    7982  7992U
 $$$133B       1 000017F6 00000001     X    8054  8064U
 $$$134B       4 000017FE 00000001     I    8082  8095
 $$$134F       2 0000180A 00000001     H    8092  8082B  8094
 $$$135E       2 0000180E 00000001     H    8102  8096
 $$$135F       2 0000181C 00000001     H    8138  8098B
 $$$136F       2 0000182E 00000001     H    8163  8149B
 $$$137F       2 0000188C 00000001     H    8271  8178B
 $$$138F       2 00001876 00000001     H    8214  8200B
 $$$139F       2 0000188C 00000001     H    8267  8251B
 $$$14F        2 000001A0 00000001     H    2833  2818B
 $$$141F       2 0000189C 00000001     H    8296  8282B
 $$$142B       1 000018B2 00000001     X    8319  8329U
 $$$143B       1 000018E4 00000001     X    8377  8387U
 $$$144B       1 00001942 00000001     X    8484  8494U
 $$$145F       2 00001976 00000001     H    8572  8503B  8518B
 $$$147F       2 0000195E 00000001     H    8544  8531B
 $$$148        6 0000206C 00000001     I    8559  8551X
 $$$149        6 0000206C 00000001     I    8558  8559   8559
 $$$15F        2 000001AE 00000001     H    2861  2846B
 $$$150B       1 0000198A 00000001     X    8592  8602U
 $$$152B       1 00001ACC 00000001     X    8873  8883U
 $$$156F       2 00001B36 00000001     H    9075  9065B
 $$$157        6 00002072 00000001     I    9156  9148X
 $$$158        6 00002072 00000001     I    9155  9156   9156
 $$$16F        2 000001BC 00000001     H    2889  2874B
 $$$160F       2 00001BDC 00000001     H    9243  9201B
 $$$165B       1 00001C80 00000001     X    9404  9414U
 $$$167        6 00002078 00000001     I    9539  9531X
 $$$168        6 00002078 00000001     I    9538  9539   9539
 $$$17F        2 000001CA 00000001     H    2917  2902B
 $$$171B       1 00001D3C 00000001     X    9646  9656U
 $$$172B       1 00001D58 00000001     X    9697  9707U
 $$$173B       1 00001D74 00000001     X    9748  9758U
 $$$174F       2 00001D8C 00000001     H    9814  9800B
 $$$175B       1 00001DBA 00000001     X    9849  9859U
 $$$176B       4 00001DC8 00000001     I    9901  9917
 $$$176F       2 00001DCE 00000001     H    9914  9901B  9916
 $$$177E       2 00001DD2 00000001     H    9924  9918
 $$$177F       2 00001DD6 00000001     H    9931  9920B
 $$$178B       1 00001DEC 00000001     X    9976  9986U
 $$$18F        2 000001D8 00000001     H    2945  2930B
 $$$188B       1 00001F28 00000001     X   10428 10438U
 $$$189F       2 00001F50 00000001     H   10472 10461B
 $$$19F        2 000001E6 00000001     H    2973  2958B
 $$$190F       2 00001F70 00000001     H   10498 10487B
 $$$2E         2 00000036 00000001     H    2264  2258
 $$$2F         2 00000048 00000001     H    2297  2260B  2271B  2286B
1VCLP     (VCLP00) (09:46) (22MAR04) Ordinary Symbol and Literal Cross Reference                                            Page   89
 $$$20F        2 000001F4 00000001     H    3001  2986B
 $$$21F        2 00000202 00000001     H    3029  3014B
 $$$22F        2 00000210 00000001     H    3057  3042B
 $$$23F        2 0000021E 00000001     H    3085  3070B
 $$$24F        2 0000022C 00000001     H    3113  3098B
 $$$28F        2 0000029A 00000001     H    3349  3333B
 $$$29F        2 000002DA 00000001     H    3442  3390B
 $$$32F        2 00000308 00000001     H    3486  3476B
 $$$36F        2 0000042E 00000001     H    3742  3725B
 $$$37F        2 000004D6 00000001     H    3860  3753B
 $$$38F        2 00000492 00000001     H    3814  3804B
 $$$39F        2 000004B0 00000001     H    3837  3827B
 $$$40F        2 0000050C 00000001     H    3905  3872B
 $$$41B        4 00000510 00000001     I    3916  3936
 $$$41F        2 00000522 00000001     H    3933  3916B  3935
 $$$42E        2 00000526 00000001     H    3943  3937
 $$$42F        2 00000532 00000001     H    3951  3939B
 $$$44F        2 000007B8 00000001     H    4305  4295B
 $$$45F        2 00000844 00000001     H    4385  4375B
 $$$46F        2 000008BA 00000001     H    4472  4439B
 $$$47F        2 000008BA 00000001     H    4468  4458B
 $$$49B        4 000008C2 00000001     I    4484  4517
 $$$49F        2 000008D2 00000001     H    4514  4484B  4516
 $$$5B         4 00000082 00000001     I    2334  2376
 $$$5F         2 00000094 00000001     H    2373  2334B  2375
 $$$50F        2 000008D2 00000001     H    4510  4500B
 $$$52E        2 000008D6 00000001     H    4524  4518
 $$$52F        2 000008DA 00000001     H    4531  4520B
 $$$54F        2 00000900 00000001     H    4574  4564B
 $$$56F        2 00000940 00000001     H    4617  4607B
 $$$59F        2 000009A6 00000001     H    4709  4699B
 $$$6E         2 00000098 00000001     H    2383  2377
 $$$6F         2 000000E0 00000001     H    2542  2379B
 $$$60F        2 00000A06 00000001     H    4760  4750B
 $$$61F        2 00000A30 00000001     H    4803  4793B
 $$$62F        2 00000A52 00000001     H    4830  4814B
 $$$64F        2 00000A68 00000001     H    4869  4859B
 $$$65F        2 00000A88 00000001     H    4902  4892B
 $$$66F        2 00000AEE 00000001     H    4963  4953B
 $$$67F        2 00000B02 00000001     H    4984  4974B
 $$$68F        2 00000B26 00000001     H    5021  5011B
 $$$69         4 00000EEA 00000001     I    5051  5043X
 $$$7F         2 000000D4 00000001     H    2506  2467B
 $$$70         4 00000EEA 00000001     I    5050  5051   5051
 $$$71B        4 00000B60 00000001     I    5069  5083
 $$$71F        2 00000B68 00000001     H    5080  5069B  5082
 $$$72E        2 00000B6C 00000001     H    5090  5084
 $$$72F        2 00000B82 00000001     H    5122  5086B
 $$$74F        2 00000BC2 00000001     H    5171  5148B
 $$$78F        2 00000C8A 00000001     H    5379  5342B
 $$$79F        2 00000C9E 00000001     H    5406  5393B
 $$$8F         2 000000FE 00000001     H    2617  2559B
 $$$80F        2 00000CB8 00000001     H    5447  5432B
 $$$81F        2 00000CC2 00000001     H    5472  5457B
 $$$82F        2 00000CCE 00000001     H    5498  5483B
 $$$83F        2 00000CEC 00000001     H    5524  5514B
 $$$84F        2 00000CF8 00000001     H    5543  5534B
 $$$85B        4 00000D00 00000001     I    5552  5591
 $$$85F        2 00000D1A 00000001     H    5588  5552B  5590
1VCLP     (VCLP00) (09:46) (22MAR04) Ordinary Symbol and Literal Cross Reference                                            Page   90
 $$$86         6 00000EEE 00000001     I    5574  5566X
 $$$87         6 00000EEE 00000001     I    5573  5574   5574
 $$$88E        2 00000D1E 00000001     H    5598  5592
 $$$88F        2 00000D24 00000001     H    5622  5594B
 $$$89         6 00000EF4 00000001     I    5612  5604X
 $$$9F         2 000000F6 00000001     H    2581  2571B
 $$$90         6 00000EF4 00000001     I    5611  5612   5612
 $$$92B        1 00000EFC 00000001     X    5765  5775U
 $$$96F        2 00000F38 00000001     H    5881  5844B
 $$$98F        2 00000F74 00000001     H    5920  5908B
 $2841         1 000012DC 00000001     U    6610  6593B  6595B  6597B  6599B  6601B  6603B  6605B  6607B  6609B
 $2843         1 0000131C 00000001     U    6636  6623B  6625B  6627B  6629B  6631B  6633B  6635B
 $2847         1 00001334 00000001     U    6658  6657B
 @QR           0 00000000 FFFFFFFA     @    1044  4268   4269
 @RAR          0 00000000 FFFFFFF5     @    1109 10445  10448  10474  10526
 @RR           0 00000000 FFFFFFF9     @    1057  4264   8558M  9139
 @R0           0 00000000 FFFFFFFE     @     707   983U  7189U
 @R1           0 00000000 FFFFFFFD     @     720   979U  4273   4275   4276   4350   5573   5611   5886   7323U  7535
                                                  8033U  8558   8641   8701   8703   8734   8804   8806   8988M  8988
 @R10          0 00000000 FFFFFFF4     @     837   943U
 @R11          0 00000000 FFFFFFF3     @     850   939U  7878U  8009U
 @R12          0 00000000 FFFFFFF2     @     863   935U
 @R13          0 00000000 FFFFFFF1     @     876   931U
 @R14          0 00000000 FFFFFFF0     @     889   927U  3641   3649
 @R15          0 00000000 FFFFFFEF     @     902   923U  3947M  3990U  4033   4464   4589   4646   4985   8190   9792U
                                                  9893U 10446U 10447
 @R2           0 00000000 FFFFFFFC     @     733   975U
 @R3           0 00000000 FFFFFFFB     @     746   971U  7961U
 @R4           0 00000000 FFFFFFFA     @     759   967U
 @R5           0 00000000 FFFFFFF9     @     772   963U 10406U
 @R6           0 00000000 FFFFFFF8     @     785   959U  3256U
 @R7           0 00000000 FFFFFFF7     @     798   955U  5772U  7461U  7577U  7858U  7989U  8061U  8326U  8384U  8491U
                                                  8599U  8880U  9411U  9653U  9704U  9755U  9856U  9983U 10435U
 @R8           0 00000000 FFFFFFF6     @     811   951U 10399U
 @R9           0 00000000 FFFFFFF5     @     824   947U
 @SR           0 00000000 FFFFFFFC     @    1018  3461   3466   3469   3487   3547   3703   3810   3833   3968   4224
                                                  4263   4306   6754   6810   6968   7107   7530   7533   7894   7944
                                                  9081   9138M  9144M  9538
 @TR           0 00000000 FFFFFFFB     @    1031  9089   9138   9164   9167
 @WAR          0 00000000 FFFFFFF6     @    1096 10468  10494  10527M
 ATTEN         4 00000BE8 00000001     I    5210  2304B
 ATTN          4 000012CC 00000001     I    6606  6409   6415
 ATTNBRK       2 00000C0E 00000001     H    5242  5226B
 ATTNWR        4 00000C62 00000001     I    5324  5283B  5311B
 ATTNXDIS      4 00000C54 00000001     I    5315  5296B
 BCTMS         4 00000948 00000001     I    4626  4594X
 BLITZEM       4 00001EA6 00000001     I   10359 10146B 10152B 10183B 10205B 10249B 10271B 10314B
 BR            7 00000007 00000001 A   #    1076  5410M  5411B  5519M  5520B  5623M  5635B  5641B  5977B  6112B  6146B
                                                  6368M  6369B  6579B  6615B  6642B  6650B  6664B  6723M  6724B  6779B
                                                  6834B  6937B  6943B  6993B  7068B  7082B  7131B  8311   8313   8313
                                                  8313   8360M  9740   9742   9742   9742   9832M  9841   9843   9843
                                                  9843   9935M 10359M 10360B
 BREAK         4 00000D36 00000001     I    5644  3520B  4229B  5076B  5244B
 BRTBL         2 0000087A 00000001     X    4404  4272
 BTD           1 00000000 00000007     T    5698  5698
 BTR           1 00000000 0000001A     T   10543 10543
 BTX           1 00000000 0000000A     T    5703  5703  10546
 BYEBYE        2 0000133C 00000001     H    6672  6389
 CALL          4 000012B4 00000001     I    6600  6403
1VCLP     (VCLP00) (09:46) (22MAR04) Ordinary Symbol and Literal Cross Reference                                            Page   91
 CHKATTN       4 000017CE 00000001     I    7974  7972
 CKLABUF      20 0000010C FFFFFFEA     X    9955 10023M 10037  10044  10143  10237  10323
 CKLACCP       2 00001EB6 00000001     H   10370 10051
 CKLAPX       10 00001EBA 00000001     C   10373 10377  10377
 CKLAP2       24 00001EBA 00000001     C   10377 10372
 CKLDONE       2 00001EAE 00000001     H   10363 10011B 10358B
 CKLKBUF      20 00000120 FFFFFFEA     X    9956 10024M 10089  10096  10303M 10303  10304M 10305
 CKLKEYP       2 00001ED2 00000001     H   10379 10103
 CKLKPX       10 00001ED6 00000001     C   10382 10386  10386
 CKLKP2       24 00001ED6 00000001     C   10386 10381
 CKLKWR      204 00000040 FFFFFFEA     X    9954 10223  10293
 CKLOGON       4 00001DE0 00000001     I    9968  5689
 CKLWA       308 00000000 FFFFFFEA     J    9963  9970   9995U
 CLEANTRP      4 000016BA 00000001     I    7511  7509
 CLEAR         4 000013D2 00000001     I    6832  6379   6381
 CLEAR         1 00000000 00000016     T    7485  7485
 CLRABBR       2 000013B6 00000001     H    6789  6479   6481
 CLRBLNK       4 000019B2 00000001     I    8641  8645B
 CLRBLNK2      4 00001A26 00000001     I    8734  8738B
 CLRENQS       4 0000178C 00000001     I    7843  7841
 CLRENQS       1 00000000 00000004     T    5692  5692
 CLRIDTS       4 0000170E 00000001     I    7562  7560
 CLRIDTS       1 00000000 00000002     T    5690  5690
 CLRZERO       4 000019F4 00000001     I    8701  8704B
 CLRZERO2      4 00001A7A 00000001     I    8804  8807B
 CLTSLOOP      6 000016CE 00000001     I    7530  7542B
 CLTSNX        4 000016F4 00000001     I    7541  7531B
 CLW        1560 00000000 FFFFFFEC     J    1969  2186U
 CLWACCT       6 000003B0 FFFFFFEC     C    1955  1956   1957   2716M  3209
 CLWCPTIM     16 0000020B FFFFFFEC         1855  7365
 CLWCSVC       2 00000212 FFFFFFEC     H    1878  2643M
 CLWDELTA      4 00000308 FFFFFFEC     F    1946  9076M  9166
 CLWDOTIM     32 0000020B FFFFFFEC         1850  7342   7354M
 CLWDSP        1 00000214 FFFFFFEC     X    1880  2409M  2640M  7322
 CLWDUMPB      4 00000260 FFFFFFEC     A    1902  8981M  9080   9302
 CLWEVCNT      4 0000026C FFFFFFEC     A    1907  3489M  3489   4106M  4106   5068M  5068   5668M  5668   5842   5851M
 CLWEVENT      8 00000350 FFFFFFEC     D    1949  3705M  3843M  3888M
 CLWEXSVC      2 0000020E FFFFFFEC     H    1876  2644M
 CLWFCERR    128 00000208 FFFFFFEC         1710  3669M  8071M
 CLWFCMD      64 00000207 FFFFFFEC         1695  5421M  5788   6318M  8081   9200   9582
 CLWFL         1 00000207 FFFFFFEC     R    1686  1690   1695   1700   2425M
 CLWFLG        1 00000208 FFFFFFEC     R    1706  1710   1715   1720   1725   1730   1735   1740
 CLWFM31       2 00000208 FFFFFFEC         1740  4294   4374   4483   4563   4606   4698   4749   4858   5010   7419
 CLWFOSC       8 00000208 FFFFFFEC         1730  3410   3410
 CLWFPRGL     64 0000020B FFFFFFEC         1845  5341
 CLWFTRAP     16 00000208 FFFFFFEC         1725  3410   3410   3411M  3452   4206   4334M  4997M  5223
 CLWFTYPD    128 00000207 FFFFFFEC         1690  5443M  5964   5964   5965M  6005M  6536   6585M  7065   8177   8188M
 CLWFWYL      32 00000207 FFFFFFEC         1700  5468M  5494M  5964   5964   6512   6844
 CLWGROUP      2 000003B0 FFFFFFEC     C    1957  2730   2744
 CLWIBUF     235 0000002D FFFFFFEC     C    1678  5573M  5611M  5933   6058   6074   6521   8191   8192M  8193   8206
                                                  8208   9443   9471
 CLWIBUFL      1 000000EB FFFFFFED A   U    1447  5712   5940   9450
 CLWIBUFN      2 00000028 FFFFFFEC     H    1676  5544M  5983M  6026   6078   6522   8189   9469M
 CLWKFL        1 000002AD FFFFFFEC     X    1919  3249M
 CLWKWCB       4 000002C4 FFFFFFEC     F    1931  1942   6085   6104   6766   6822   6870   6980   7119
 CLWLNKP       4 00000250 FFFFFFEC     A    1898  8632
 CLWMBSUC     32 0000020A FFFFFFEC         1805  4262M  4580M  4623M  4715M  4766M  4875M  5147
 CLWMDSUP      2 0000020A FFFFFFEC         1825  3427   3427   8946   8980M  9254   9294   9294
 CLWMDUMP      1 0000020A FFFFFFEC         1830  3427   3427   3428M  7010M  7044   8148   8894   9294   9294   9295M
1VCLP     (VCLP00) (09:46) (22MAR04) Ordinary Symbol and Literal Cross Reference                                            Page   92
 CLWMFL        1 0000020A FFFFFFEC     R    1791  1795   1800   1805   1810   1815   1820   1825   1830
 CLWMLMOD      4 00000224 FFFFFFEC     F    1884  2457M  7291
 CLWMNOL       4 0000020A FFFFFFEC         1820  3500   5101   5675M
 CLWMON        4 00000268 FFFFFFEC     A    1905  3989   4032
 CLWMONF       1 0000020B FFFFFFEC     R    1836  1840   1845   1850   1855
 CLWNTRAP      1 00000008 FFFFFFEC A   N    1913  1914   4223   7529   7549
 CLWOBUF       2 00000118 FFFFFFEC     H    1680  1682   3401M  3401   3945   3946   7050M  8154M  8262M  8262   8272
                                                  8509   8545   8546   8568M  8857M  8857   8915   8919   9082   9088
                                                  9135   9155   9270M  9270   9320M  9320   9324M  9336M  9336   9425
                                                  9426   9427M  9429M  9455   9478M  9478   9524   9525   9526   9538M
                                                  9550M
 CLWOBUFL      1 000000EB FFFFFFEC A   U    1682  8508   8566
 CLWPER        4 00000264 FFFFFFEC     A    1904  2315M  3482   3705   3767   4184   4185   4186   4187
 CLWPFL        1 00000209 FFFFFFEC     R    1746  1750   1755   1760   1765   1770   1775   1780   1785
 CLWPFPAU      8 00000209 FFFFFFEC         1770  5806   6345   6345
 CLWPFPIC     32 00000209 FFFFFFEC         1760  6356   7222   8622   8622
 CLWPFPL      64 00000209 FFFFFFEC         1755  8622   8622   8623
 CLWPFRUN     16 00000209 FFFFFFEC         1765  3418M  4099M  4340M  5239M  5661M  5824   6324M  6345   6345   6346M
                                                  7212M
 CLWPFSUP    128 00000209 FFFFFFEC         1750  3332
 CLWPSVC       2 00000210 FFFFFFEC     H    1877  2642M  4322   5029
 CLWR         10 0000000A 00000001 A   #    1115  2186U  2232M
 CLWSBGPR      4 00000370 FFFFFFEC     F    1954  4444   4535M  4588   4645   4650   4653M  4727   4731   4733   4734M
                                                  4799   4825   4826M  4898   4959   4980   5422   5500   5505M  6304
                                                  8088M
 CLWSBPSW      8 00000368 FFFFFFEC     D    1953  2621M  3379   4215   4284M  4301M  4327   4328M  4364M  4381M  4386M
                                                  4387M  4473   4506   4553M  4570M  4590   4596M  4613M  4688M  4705M
                                                  4739M  4756M  4824   4848M  4865M  4998M  5000M  5017M  5040M  5050M
                                                  5162   5187   5210   5293   5347M  5366   5506M  5545   6309M  6310
                                                  6311M  7426M  7445
 CLWSCP        4 00000000 FFFFFFEC     A    1669  2638M  7863   7994   9769   9870
 CLWSFL        1 0000020C FFFFFFEC     R    1861  1865   1870
 CLWSSAM     128 0000020C FFFFFFEC         1865  5482   6680  10022M
 CLWSSP       64 0000020C FFFFFFEC         1870  2773M  2801M  2829M  2857M  2885M  2913M  2941M  2969M  2997M  3025M
                                                  3053M  3081M  3109M  7149
 CLWSVA      600 000003C0 FFFFFFEC     X    1961  2233   5778
 CLWSVAEN      4 00000614 FFFFFFEC     X    1962  2639M  5901   5916M
 CLWTEMP       8 000002E8 FFFFFFEC     D    1944  3595   3770   3780   3782   3795   3815   3818   3841   4001   4055
                                                  4720M  4721M  4940M  4941   4943   4964   5884M  5885   7533M  7534
                                                  8205M  8206M  8207M  8208M  8209   8334   8421   8694   8699   8700M
                                                  8797   8802   8803M
 CLWTIMER      4 0000022C FFFFFFEC     A    1887  7387
 CLWTIVAL      2 00000232 FFFFFFEC     H    1889  2285   5392
 CLWTRAPA      4 00000270 FFFFFFEC     A    1908  4221M  4224   4283   4362   5028   5039   5123   5232   7543M
 CLWTRAPB      4 00000274 FFFFFFEC     A    1909  4270M  4311   4321   4999   5038
 CLWTRAPI      2 00000278 FFFFFFEC     H    1910  4263M  4265   4273   4327M  4351   4355   4389M  4429   4457   4499
                                                  4532   4585   4626   4627   4628   4629   4641   4647   4720   4724
                                                  4728   4735   4783   4804   4882   4906   4914   4939   4998
 CLWTRAPJ      2 0000027E FFFFFFEC     H    1911  4271M  4312   4389   4903M  5022
 CLWTRAPS      5 00000280 FFFFFFEC     X    1914  4222   7528   7550M  7550
 CLWTTRAP      5 000002A8 FFFFFFEC     X    1915  5882M  5882   5884   5888   5899M  5899
 CLWUPML       4 00000020 FFFFFFEC     A    1673  2650M
 CLWUPST       4 0000001C FFFFFFEC     A    1672  2648M
 CLWUSER       3 000003B3 FFFFFFEC     C    1956  2761   2789   2817   2845   2873   2901   2929   2957   2985   3013
                                                  3041   3069   3097
 CLWWLMOD      4 00000228 FFFFFFEC     F    1885  2538M  2558   2564   2641M  7259
 CMDRET        4 00001080 00000001     I    6304  5520B  5791B
 CODETBL       4 000006B4 00000001     A    4167  3619   3622
 CODE1         9 000005CF 00000001     C    4119  4118   4168
1VCLP     (VCLP00) (09:46) (22MAR04) Ordinary Symbol and Literal Cross Reference                                            Page   93
 CODE10       16 00000645 00000001     C    4146  4145   4177
 CODE11       14 00000656 00000001     C    4149  4148   4178
 CODE12       17 00000665 00000001     C    4152  4151   4179
 CODE13       18 00000677 00000001     C    4155  4154   4180
 CODE14       12 0000068A 00000001     C    4158  4157   4181
 CODE15       15 00000697 00000001     C    4161  4160   4182
 CODE16       12 000006A7 00000001     C    4164  4163   4183
 CODE2        20 000005D9 00000001     C    4122  4121   4169
 CODE3        17 000005EE 00000001     C    4125  4124   4170
 CODE4        10 00000600 00000001     C    4128  4127   4171
 CODE5        10 0000060B 00000001     C    4131  4130   4172
 CODE6        13 00000616 00000001     C    4134  4133   4173
 CODE7         4 00000624 00000001     C    4137  4136   4174
 CODE8        14 00000629 00000001     C    4140  4139   4175
 CODE9        12 00000638 00000001     C    4143  4142   4176
 COMMAND       2 00000CA6 00000001     H    5415  2306B
 COMMAN2       2 00000D0E 00000001     H    5561  5557
 COMMAN3       2 00000D1A 00000001     H    5584  5581
 CREATE        4 000012E4 00000001     I    6622  6418
 DEQUEUE       4 000017A6 00000001     I    7894  7945B
 DUMP          2 00001450 00000001     H    7003  6385
 DUMPN         2 00001450 00000001     H    7006  6387
 ENDBLNK       2 000019C0 00000001     I    8654  8642B
 ENDBLNK2      2 00001A34 00000001     I    8739  8735B
 ENTBASE       1 00000002 00000001     U    2220  6369B  6724B  7478  10360B 10557
 ENTER         4 000012BC 00000001     I    6602  6405
 ERASE         4 000012EC 00000001     I    6624  6420
 ERROR         4 00000FF4 00000001     I    6144  6176B  6273B  6286B  6299B  6586B  7201B  7237B
 EXIT          4 00001294 00000001     I    6592  5411B  6395
 EXITSVC       2 00000C9E 00000001     H    5409  2305B
 FBAL          4 00001314 00000001     I    6634  6430
 FILES         1 00000000 00000011     T    7480  7480
 FILESHOW      1 00000000 00000012     T    7481  7481
 FREECLW       4 00001D4C 00000001     I    9689  9687
 FREECLW       1 00000000 0000001E     T   10552 10552
 GET           4 000012F4 00000001     I    6626  6422
 GETCLW        4 00001D30 00000001     I    9638  9636
 GETCLW        1 00000000 0000001D     T   10548 10548
 GO            4 000012C4 00000001     I    6604  6407   6413
 GOABORT       2 000014C2 00000001     H    7138  6485
 GORUN         2 00000F28 00000001     H    5854  5827B
 GORU1         2 00000F64 00000001     H    5900  5883B
 GREETING     45 00001EEE 00000001     C   10393 10336  10343
 GRSTART       1 00001EEE 00000001     C   10388 10393  10393
 HIBAL         1 00000000 FFFFFFFF     J     692   708    721    734    747    760    773    786    799    812    825
                                                   838    851    864    877    890    903
 INITCLP       2 00000074 00000001     H    2314  2249B  2293B
 INVALID       2 00001260 00000001     H    6493  6391   6487   6683B
 KWR          87 00000000 FFFFFFEB     U    2165  3169   3179U  3202   5718  10301U
 KWRIFSPR      1 00000020 FFFFFFEB A   U    2151  9785   9886
 KWRPASS       8 00000070 FFFFFFEB     X    2107 10305
 KWRSIZE       1 000000CC FFFFFFEB A   U    2139  9954  10230
 KWRSTART      4 00000000 FFFFFFEB     F    1980  2139   2165   2165
 KWRTFL        1 00000049 FFFFFFEB     X    2044  3249   3249
 KWRVPGM       8 0000004F FFFFFFEB     X    2055  2165   3249
 LCBR         11 0000000B 00000001 A   #    1128  8632M
 LDENTRY       1 00000000 0000001C     T   10547 10547
 LDSECT        1 00000000 0000001B     T   10545 10545
 LINK          4 0000129C 00000001     I    6594  6397
1VCLP     (VCLP00) (09:46) (22MAR04) Ordinary Symbol and Literal Cross Reference                                            Page   94
 LOGOFF        2 00000274 00000001     H    3292  2301B  6724B 10360B
 LOGON         2 00000106 00000001     H    2628  2300B
 LOGONEND      2 0000026C 00000001     H    3282  3122B  3153B
 LOKEYEND      2 00000268 00000001     H    3266  3221B  3243B
 MVCOS         4 00001F1C 00000001     I   10420 10418
 NEXT          2 00000EFC 00000001     H    5777  5411B  5520B  5635B  5641B  5711   6332B  6363B
 NOABORT       4 000014FE 00000001     I    7195  7139B  7152B
 NOCORE        4 00001C5C 00000001     I    9379  8974B
 NOSECT        2 00001AA8 00000001     H    8846  8626B  8637B
 OFFMSG       42 0000135C 00000001     C    6729  6701   6708
 OFFSET        2 000019DC 00000001     I    8680  8850B
 OFMSTRT       1 0000135C 00000001     C    6725  6729   6729
 PANATTN       2 000005BC 00000001     H    4094  3684B  3966B  5186B
 PANFIX        2 000005C6 00000001     H    4109  3696B  3969B  4091B
 PANIC         2 000002AA 00000001     H    3378  2302B
 PANMON        4 0000054A 00000001     I    3968  3704B
 PANPE         4 000003FC 00000001     I    3703  3548B
 PANPE2        2 000004D6 00000001     H    3863  3793B
 PANREAL       4 00000334 00000001     I    3520  3468B  3488B  3490B
 PANREA2       2 00000338 00000001     H    3521  3518B
 PANTRAP       2 00000344 00000001     H    3529  5199B
 PANUSER       4 00000368 00000001     I    3563  3541B
 PANWR         2 000003DA 00000001     H    3663  3618B  3620B
 PAN3SEG       4 00000376 00000001     I    3572  3559B
 PATABBR       2 0000148A 00000001     H    7086  6459   6461   6463   6465   6467   6469   6471   6473   6475
 PATCH         4 000014A6 00000001     I    7129  6383
 PATCH         1 00000000 00000019     T    7492  7492
 PAURET        2 000010AC 00000001     H    6338  5809B
 PAUSE         4 000012D4 00000001     I    6608  6411
 PAUSEXIT      2 000006FC 00000001     H    4196  2303B  2307B  3455B  6369B
 PEBRANCH    128 00000264 FFFFFFEC         4186  3871
 PEFETCH      64 00000264 FFFFFFEC         4184  3724
 PEREG        16 00000264 FFFFFFEC         4187  3915
 PEREX         4 0000044C 00000001     I    3770  3842B
 PERRX         4 0000047E 00000001     I    3795  3783B
 PERSS         4 00000492 00000001     I    3815  3781B
 PESTORE      32 00000264 FFFFFFEC         4185  3752
 PR            6 00000006 00000001 A   #    1063  3168M  3179U
 PRIVEXIT      2 00001DA4 00000001     I    9831  9810B
 PRIVTEST      4 00001D68 00000001     I    9740  9738
 PRIVTNOM      4 00001DAE 00000001     I    9841  9839
 PROGLOOK      4 0000132C 00000001     I    6656  6434
 PROGMON       1 00000000 0000000C     T    5709  5709
 PROGRAMS      1 00000000 00000003     T    5691  5691   7479
 PROGSERV      1 00000000 00000013     T    7482  7482
 PUT           4 000012FC 00000001     I    6628  6424
 PZABORT     128 0000021A FFFFFFEE         1285  7176M
 PZABR15       4 0000021C FFFFFFEE     A    1294  7177M
 PZABSM        1 0000021B FFFFFFEE     X    1293  7170M
 PZERO       640 00000000 FFFFFFEE     J    1304  7168U
 PZLCPUA       4 00000210 FFFFFFEE     A    1272  7178
 PZTERMFL      1 0000021A FFFFFFEE     R    1281  1285   1290
 QPAUSE        4 000006F8 00000001     I    4192  2308B
 QR            4 00000004 00000001 A   #    1037  3465M  3482M  3523   4215M  4218M  4219M  4220   4264M  4268M  4269M
                                                  4270   7890M  7945M  8608M  8723   8725   8739M  8762   8848M  8848
                                                  9089M  9090   9139M  9144
 RAR           9 00000009 00000001 A   #    1102  2249M  2293M  2623B  2686M  2687M  2687B  3318M  3319M  3319B  3344M
                                                  3345M  3345B  3359M  3360M  3360B  3366M  3367M  3367B  3436M  3437M
                                                  3437B  3516M  3517M  3517B  3520M  3527M  3528M  3528B  3556M  3557M
1VCLP     (VCLP00) (09:46) (22MAR04) Ordinary Symbol and Literal Cross Reference                                            Page   95
                                                  3557B  3567M  3568M  3568B  3576M  3577M  3577B  3615M  3616M  3616B
                                                  3630M  3631M  3631B  3652M  3653M  3653B  3661M  3662M  3662B  3678M
                                                  3679M  3679B  3682M  3683M  3683B  3713M  3714M  3714B  3737M  3738M
                                                  3738B  3765M  3766M  3766B  3774M  3775M  3775B  3791M  3792M  3792B
                                                  3846M  3847M  3847B  3855M  3856M  3856B  3884M  3885M  3885B  3891M
                                                  3892M  3892B  3900M  3901M  3901B  3928M  3929M  3929B  3960M  3961M
                                                  3961B  3964M  3965M  3965B  3977M  3978M  3978B  4021M  4022M  4022B
                                                  4030M  4031M  4031B  4075M  4076M  4076B  4085M  4086M  4086B  4089M
                                                  4090M  4090B  4229M  4235M  4236M  4236B  4245M  4246M  4246B  4249M
                                                  4250M  4250B  4309M  4310M  4310B  4316M  4317M  4317B  4325M  4326M
                                                  4326B  4358M  4359M  4359B  4723M  4881M  4910M  4911M  4911B  4922M
                                                  4928M  4934M  4986B  5026M  5027M  5027B  5033M  5034M  5034B  5076M
                                                  5117M  5118M  5118B  5127M  5128M  5128B  5136M  5137M  5137B  5160M
                                                  5161M  5161B  5166M  5167M  5167B  5180M  5181M  5181B  5184M  5185M
                                                  5185B  5244M  5249M  5250M  5250B  5258M  5259M  5259B  5309M  5310M
                                                  5310B  5319M  5320M  5320B  5324M  5325M  5325B  5350M  5351M  5351B
                                                  5400M  5401M  5401B  5644   5645   5645   5645   5653M  5654M  5654B
                                                  5678M  5679B  5724   5724   5724   5891M  5892M  5892B  6128M  6129M
                                                  6129B  6137M  6138M  6138B  6144M  6145M  6145B  6165M  6166M  6166B
                                                  6174M  6175M  6175B  6194M  6195M  6195B  6203M  6204M  6204B  6234M
                                                  6235M  6235B  6243M  6244M  6244B  6267M  6268M  6268B  6284M  6285M
                                                  6285B  6297M  6298M  6298B  6613M  6614M  6614B  6640M  6641M  6641B
                                                  6648M  6649M  6649B  6662M  6663M  6663B  6777M  6778M  6778B  6832M
                                                  6833M  6833B  6921M  6922M  6922B  6931M  6932M  6932B  6935M  6936M
                                                  6936B  6991M  6992M  6992B  7013M  7014M  7014B  7054M  7055M  7055B
                                                  7076M  7077M  7077B  7129M  7130M  7130B  7199M  7200M  7200B  7235M
                                                  7236M  7236B  7511   7513   7513   7513   7539M  7540M  7540B  7554M
                                                  7562   7564   7564   7564   7835M  7843   7845   7845   7845   7966M
                                                  7974   7976   7976   7976   8038M  8158M  8159M  8159B  8291M  8292M
                                                  8292B  8311   8313   8313   8313   8355M  8356M  8356B  8360M  8369
                                                  8371   8371   8371   8450M  8451M  8451B  8460M  8461M  8461B  8464M
                                                  8465M  8465B  8469M  8477   8576M  8635M  8636M  8636B  8662M  8663M
                                                  8663B  8673M  8674M  8674B  8721M  8722M  8722B  8728M  8729M  8729B
                                                  8747M  8748M  8748B  8765M  8766M  8766B  8776M  8777M  8777B  8824M
                                                  8825M  8825B  8833M  8834M  8834B  8858B  8865   8867   8867   8867
                                                  8972M  8973M  8973B  9274M  9312M  9313M  9313B  9328M  9329M  9329B
                                                  9344M  9345M  9345B  9365M  9366M  9366B  9369M  9370M  9370B  9383M
                                                  9384M  9384B  9387M  9388M  9388B  9396   9398   9398   9398   9423M
                                                  9424M  9424B  9482M  9740   9742   9742   9742   9822M  9823M  9823B
                                                  9826M  9827M  9827B  9832M  9841   9843   9843   9843   9935M 10526M
                                                 10527  10527M
 READ          2 00000EFA 00000001     I    5762  3288B  3503B  4115B  4192B  4251B  4341B  5104B  5205B  5240B  5326B
                                                  5402B
 READCORE      1 00000000 00000009     T    5700  5700
 REASK         6 00001DFA 00000001     I   10023 10071B 10123B
 RELOAD        4 000012AC 00000001     I    6598  6401
 RENAME        4 00001304 00000001     I    6630  6426
 RITECORE      1 00000000 0000000B     T    5704  5704   7470  10539
 RR            5 00000005 00000001 A   #    1050  4215M  4216M  4220M  4221   4231   4354   4904M  8545M  8546M  9088M
                                                  9089   9146   9148   9167
 RUN           2 00001510 00000001     H    7205  5865B  5877B
 RXADDR        4 00000AD2 00000001     I    4941  4723B
 RXADDRM       4 00000ACA 00000001     I    4939  4881B  4922B  4928B  4934B
 R0            0 00000000 FFFFFFFF A   #     700  2466M  2466   3770M  3779M  3779   3810M  3817M  3833M  4033M  4306M
                                                  4312M  4322M  4355M  4473M  4506M  4527M  4535   4594   4650M  4652M
                                                  4653   4662M  4662   4727M  4731M  4734   4737   4769   4823M  4824M
                                                  4825M  4826   4906M  5022M  5029M  5422M  5431M  5431   5500M  5507
                                                  5624   5625M  5625   5888M  6111M  6743M  6744M  6746M  6799M  6800M
                                                  6802M  6891   6903M  6957M  6958M  6960M  7096M  7097M  7099M  7168U
1VCLP     (VCLP00) (09:46) (22MAR04) Ordinary Symbol and Literal Cross Reference                                            Page   96
                                                  7355M  7372M  7532M  8046   8048   8048   8048   8300M  8331M  8332M
                                                  8335M  8422M  8427   8432M  8477   8496   8576M  8584   8586   8586
                                                  8586   8639M  8645M  8704M  8732M  8738M  8739   8807M  8842M  9470M
                                                  9953   9953   9953   9968  10367M 10420  10422  10422  10422  10531M
 R1            1 00000001 FFFFFFFF A   #     713  2235   2457   2538   2649M  2650   2692M  3315M  3356M  3356   3523M
                                                  3524M  3767M  3769M  3795M  3796M  3797M  3810   3815M  3816M  3817
                                                  3818M  3819M  3820M  3833   3838M  3840M  3843   3886M  3887M  3888
                                                  4231M  4232M  4272M  4275M  4283M  4284   4311M  4321M  4354M  4362M
                                                  4363M  4363   4364   4532M  4533M  4534M  4535   4585M  4586M  4587M
                                                  4590M  4591M  4592M  4594   4641M  4642M  4643M  4647M  4648M  4649M
                                                  4650   4653   4724M  4725M  4726M  4727   4734   4804M  4805M  4813M
                                                  4825   4826   4882M  4883M  4891M  4898M  4903   4905M  4999M  5000
                                                  5028M  5038M  5039M  5041M  5043   5123M  5124M  5162M  5163M  5245M
                                                  5246M  5422M  5456M  5456   5499M  5499   5842M  5843M  5843   5850M
                                                  5851   5885M  5886M  5974M  5974   5983   6026M  6029   6041M  6046
                                                  6049M  6051   6521M  6734   6743   6790   6799   6948   6957   7087
                                                  7096   7534M  7535M  7592   7697   7810   7894M  7895M  7895   7994M
                                                  8012U  8191M  8209M  8333   8334M  8420   8421M  8428   8604   8605M
                                                  8605   8607   8608   8638   8640M  8644M  8699M  8703M  8725M  8731
                                                  8733M  8737M  8802M  8806M  8981   8989   9025   9064M  9064   9071M
                                                  9076   9077M  9078   9164M  9166M  9169   9469   9470   9471M  9490M
                                                  9564M  9564   9592   9593   9593   9593   9630M 10473M 10561  10561
                                                 10561
 R13          13 0000000D FFFFFFFF A   #     869  2233M  2234   5778M
 R14          14 0000000E FFFFFFFF A   #     882  2231   3461M  3462M  3463M  3464   3617M  3619   3621M  3622M  4429M
                                                  4430M  4438M  4728M  4729M  4730M  4731   4732M  4733M  4783M  4784M
                                                  4792M  4943M  4944M  4952M  4964M  4965M  4973M  5992M  5992   6526M
                                                  6526   6543M  8046   8048   8048   8048   8300M  8584   8586   8586
                                                  8586   8842M  9101M  9101  10499M
 R15          15 0000000F FFFFFFFF A   #     895  2315   2409   2546M  2546   2558   2577M  2693M  3341M  3341   3461M
                                                  3464M  3465   3578M  3771M  3945M  3946M  4032M  4282M  4313M  4318
                                                  4320M  4353M  4360   4426M  4426   4428M  4444M  4464M  4544M  4544
                                                  4553   4588M  4589M  4596   4638M  4638   4640M  4645M  4646M  4679M
                                                  4679   4688   4739   4780M  4780   4782M  4799M  4839M  4839   4848
                                                  4904   4905   4907M  4912   4939M  4940   4941M  4942M  4959M  4980M
                                                  4985M  5023M  5030M  5504M  5504   5505   5557M  5558M  5559B  5581M
                                                  5582B  5887M  6304M  6305M  6305   6306M  6307M  6308M  6310M  6311
                                                  6522M  7177   7178M  7179M  7180M  7181M  7182M  7182   7536M  8087M
                                                  8088   8167M  8167   8189M  8190M  8210M  8333M  8420M  8838M  8838
                                                  8851M  9087M  9087   9095M  9097M  9170M  9244M  9282M  9282   9284M
                                                  9296   9321M  9371M  9592   9593   9593   9593   9630M  9769M  9779U
                                                  9809M  9809   9828M  9870M  9880U  9910M  9910   9927M  9953   9953
                                                  9953   9968  10367M 10420  10422  10422  10422  10445M 10447M 10531M
                                                 10561  10561  10561
 R3            3 00000003 FFFFFFFF A   #     739  9025M  9077
 R5            5 00000005 FFFFFFFF A   #     765 10293M 10301U
 SCAN          1 00000000 0000000F     T    7474  7474
 SCBCFAX      32 00000261 FFFFFFED         1490  5876M
 SCBCFCLA     64 00000261 FFFFFFED         1485  5862   6022M  6331M  8017   9182
 SCBCFL        1 00000261 FFFFFFED     R    1476  1480   1485   1490   1495   1500   8017
 SCBFL         1 00000262 FFFFFFED     R    1506  1510   1515   1520   1525   1530
 SCBTFL        1 00000263 FFFFFFED     R    1536  1540   1545   1550   1555   1560
 SCBWFL        1 00000260 FFFFFFED     R    1466  1470
 SCBXA        64 00000265 FFFFFFED         1582  1616   1616   1618   1618   1620   1620
 SCBXFL        1 00000265 FFFFFFED     R    1573  1577   1582   1587   1592   1597   1602   1622
 SCBXP        16 00000265 FFFFFFED         1592  1619   1619   1620   1620   1621   1621
 SCBXT       128 00000265 FFFFFFED         1577  1616   1616   1617   1617   1619   1619
 SCBXW        32 00000265 FFFFFFED         1587  1617   1617   1618   1618   1621   1621
 SCINIT        1 00000000 0000000E     T    7473  7473
1VCLP     (VCLP00) (09:46) (22MAR04) Ordinary Symbol and Literal Cross Reference                                            Page   97
 SCP         660 00000000 FFFFFFED     J    1646  2177U  7881U  7956U  8012U  8028U  9779U  9880U
 SCPACCT       6 000001AA FFFFFFED     C    1355  1356   1357   2716  10008  10323M
 SCPCLPSW      8 00000100 FFFFFFED     D    1335  3438
 SCPCLW        4 000001B8 FFFFFFED     A    1366  2232
 SCPCWASZ      1 00000010 FFFFFFED A   N    1444  1445
 SCPENQL       4 00000258 FFFFFFED     A    1454  7891
 SCPFERR     128 00000200 FFFFFFED         1394  2333   2634M  3287M  3298M  3389   4114M
 SCPFL         1 00000200 FFFFFFED     R    1390  1394   1399   1404   1409   1414   1419   1424   1429
 SCPLCMD      40 0000022E FFFFFFED     C    1451  6058M  7472
 SCPLCMDL      2 0000022C FFFFFFED     H    1450  6046M
 SCPNENQ       2 00000256 FFFFFFED     H    1453  7890
 SCPPAN        2 000001A8 FFFFFFED     H    1346  1347
 SCPPRIV       1 000001B7 FFFFFFED     X    1365  9785   9886
 SCPR         11 0000000B 00000001 A   #    1140  2177U  2231M  2638   9638   9640   9640   9640   9680M  9689   9691
                                                  9691   9691   9731M
 SCPRRSEG      4 000001F4 FFFFFFED     A    1383  2648
 SCPSBPSW      8 000000B8 FFFFFFED     D    1332  2621   5347
 SCPUNRSV      2 000001FA FFFFFFED     H    1385  2649
 SCTELL        1 00000000 00000014     T    7483  7483
 SEGSECS       4 000018A6 00000001     I    8311  8309
 SENDWYL       2 00001262 00000001     H    6502  5635B  6784B  6847B  6998B  7030B
 SET           4 000013A2 00000001     I    6777  6375
 SET           1 00000000 00000015     T    7484  7484
 SETABBR       2 00001386 00000001     H    6733  6477
 SHABBR        2 00001420 00000001     H    6947  6437   6439   6441   6443   6445   6447   6449   6451   6453   6455
                                                  6457   6483
 SHOW          4 0000143C 00000001     I    6991  6377
 SHOW          1 00000000 00000017     T    7488  7488
 SHOWLAST      4 000018D8 00000001     I    8369  8367
 SHOWLAST      1 00000000 00000018     T    7491  7491  10554
 SHRINK        4 0000130C 00000001     I    6632  6428
 SIMBAL        4 00000AB2 00000001     I    4922  4395B
 SIMBALR       2 00000896 00000001     H    4424  4391B
 SIMBALX       4 000008BA 00000001     I    4473  4923B
 SIMBC         4 00000ABA 00000001     I    4928  4396B
 SIMBCR        4 00000908 00000001     I    4585  4392B
 SIMBCT        4 00000AC2 00000001     I    4934  4397B
 SIMBCTR       2 00000958 00000001     H    4636  4393B
 SIMBCTX       4 00000974 00000001     I    4647  4644B  4935B
 SIMBCX        4 0000091C 00000001     I    4590  4929B
 SIMBSM        2 00000A18 00000001     H    4778  4399B
 SIMBX         6 000009AE 00000001     I    4720  4398B
 SIMBXBRA      4 000009F6 00000001     I    4739  4770B
 SIMBXLE       2 00000A0E 00000001     I    4769  4736B
 SIMEX         4 00000A70 00000001     I    4881  4394B
 SLALOOP       2 00001908 00000001     I    8429  8433B
 SLEXIT        2 00001932 00000001     I    8468  8419B
 SLSEG         2 00001918 00000001     H    8442  8431B
 SR            2 00000002 00000001 A   #    1011  2235M  2298B  3379M  3438M  3886   4222M  4226M  4226   5210M  5211M
                                                  5212M  5213   5507M  5527   5539M  5544   5564M  5566   5602M  5604
                                                  5624M  5626M  5626   5644   5645   5645   5645   5678M  5724   5724
                                                  5724   6213M  6213   6231   6497M  6497   6734M  6744   6783M  6790M
                                                  6800   6948M  6958   6997M  7029M  7087M  7097   7511   7513   7513
                                                  7513   7528M  7532   7541M  7541   7554M  7562   7564   7564   7564
                                                  7658M  7658   7674   7697M  7714   7737   7749   7770M  7770   7787
                                                  7810M  7816   7835M  7843   7845   7845   7845   7889M  7889   7891M
                                                  7944M  7966M  7974   7976   7976   7976   8038M  8272M  8281M  8281
                                                  8369   8371   8371   8371   8427M  8428M  8429M  8430   8469M  8508M
                                                  8509M  8524M  8536   8540M  8540   8567   8607M  8638M  8664M  8664
1VCLP     (VCLP00) (09:46) (22MAR04) Ordinary Symbol and Literal Cross Reference                                            Page   98
                                                  8680   8723M  8731M  8767M  8767   8783   8865   8867   8867   8867
                                                  8989M  9078   9080M  9114   9137   9145   9274M  9296M  9321   9396
                                                  9398   9398   9398   9425M  9428M  9429   9482M  9524M  9525M  9638
                                                  9640   9640   9640   9680M  9689   9691   9691   9691   9731M 10448M
                                                 10449M 10450M 10460M 10460  10466M 10466  10467M 10467  10468  10474M
                                                 10475M 10476M 10486M 10486  10492M 10492  10493M 10493  10494
 STARTCLP      2 0000001C 00000001     I    2231  2221B
 STARTUP       2 00000000 00000001     I    2208  2205
 TIMEOUT       1 00000000 0000000D     T    5710  5710
 TIMER         2 00000C6C 00000001     H    5331  2299B
 TR            3 00000003 00000001 A   #    1024  3466M  3467M  3467   3538M  3538   3558M  3578   3617   3693M  3693
                                                  4223M  4227M  4349M  4349   4350M  4390B  5187M  5196M  5196   5210M
                                                  5213M  5232   5245   6226   6782M  6996M  7028M  7529M  7542M  7543
                                                  7592M  7782   7863M  7881U  8496M  8524   8536M  8549M  8551   8566M
                                                  8567M  8568   8604M  8849M  8849   9081M  9095   9137M  9137   9143M
                                                  9143   9145M  9145   9146   9155   9167M  9169   9426M  9427   9428
                                                  9526M  9529M  9531   9549M  9549   9550  10451M 10468M 10473  10477M
                                                 10494M 10499
 TRAPDO        2 0000075C 00000001     H    4255  4225B
 TRAPDONE      2 00000B08 00000001     H    4992  4209B  5233B
 TRAPDOX       4 00000786 00000001     I    4272  4916B
 TRAPHW        6 0000084C 00000001     I    4389  4352B
 TRAPMSG       4 00000B46 00000001     I    5038  4547B  4581B  4595B  4624B  4665B  4682B  4716B  4738B  4767B  4771B
                                                  4842B  4876B
 TRAPNW        6 000007EE 00000001     I    4327  4319B
 TRAPSIM       2 00000804 00000001     H    4347  4274B
 TRAPSRCH      6 0000078A 00000001     I    4273  4277B
 TRAPXIP       2 000007A0 00000001     H    4281  4361B  4913B  4915B
 TRAP1HW       4 0000077E 00000001     I    4270  4266B
 TRAP2HW       4 0000077A 00000001     I    4269  4267B
 TRYTRAP       6 00000722 00000001     I    4224  4227B
 TYPEIT        4 000017EA 00000001     I    8046  8044
 TYPEIT        1 00000000 00000010     T    7476  7476  10555
 TYPEITX       2 0000189C 00000001     I    8299  8263B
 UNLOAD        4 000012A4 00000001     I    6596  6399
 UNREC         2 00001014 00000001     H    6178  6515B
 VCLP          1 00000000 00000001     J     994   996   1019   1032   1045   1058   1071   1084   1097   1110   1123
                                                  1136   1148   1305   1647   1970   2169   5056   5579   5617
 VCLP00        1 00000006 00000001     R    2228  2226
 VERBSCAN      2 00000F9E 00000001     H    6015  5641B
 VERBTBL       1 000010C4 00000001     X    6373  6097
 VLSEG         2 00001A04 00000001     H    8713  8702B
 VLSEG2        2 00001A8A 00000001     H    8816  8805B
 VLSEG3        4 00001A90 00000001     I    8829  8768B
 VMARK         6 00001AB8 00000001     I    8857  8856
 VRAGAIN       2 00001CA0 00000001     H    9430  9551B
 VRATTN        2 00001CFE 00000001     H    9557  9468B
 VREAD         4 00001C74 00000001     I    9396  9394
 VREPROM       2 00001CE2 00000001     H    9523  9567B
 VRIO          2 00001CD6 00000001     H    9487  9467B
 VRRET         4 00001CBC 00000001     I    9469  9585B  9631B
 VSEG          4 0000193A 00000001     I    8477  8475
 VSEG          1 00000000 00000005     T    5693  5693   7475  10544
 VSEGLOC       4 0000197E 00000001     I    8584  8582
 VSEGLOC       1 00000000 00000006     T    5696  5696
 VSGEX         2 00001AA0 00000001     I    8841  8665B  8724B  8730B  8852B
 VWABORT       4 00001C22 00000001     I    9324  9257B
 VWDONE        2 00001BBC 00000001     H    9174  8934B
 VWDUMP        2 00001AE8 00000001     H    8938  8897B
1VCLP     (VCLP00) (09:46) (22MAR04) Ordinary Symbol and Literal Cross Reference                                            Page   99
 VWERR         4 00001BFE 00000001     I    9284  9171B  9389B
 VWEXIT        2 00001BE8 00000001     H    9263  9185B
 VWEX1         2 00001BEE 00000001     I    9273  9322B  9372B
 VWFREE        2 00001C02 00000001     H    9287  9283B
 VWFREE0       2 00001BF8 00000001     H    9280  9136B
 VWRITE        4 00001AC0 00000001     I    8865  8863
 VWRITE        1 00000000 00000008     T    5699  5699   7487  10540
 VW1           4 00001B40 00000001     I    9080  8949B
 VW2           2 00001B62 00000001     I    9095  9083B
 VW3           4 00001B7C 00000001     I    9135  9096B
 VW4           4 00001B94 00000001     I    9144  9091B
 WAR           8 00000008 00000001 A   #    1089  9995U
 WNALGN        1 00000010 00000001 A   N    1207  2577
 WNNUMB        1 00000008 00000001 A   N    1206  2577
 WPRHBT        1 00000004 00000001 A   N    1205  2577
 WSSBRK        1 00000020 00000001 A   N    1208  2564
 =A(CKLOGON)
               4 00000D9C 00000001     A    5689  2686
 =A(CLWIBUFL)
               4 00000E00 00000001     A    5712  5527   5539
 =A(ENTBASE)
               4 000015D8 00000001     A    7478  6368   6723
 =A(ENTBASE)
               4 00001FF8 00000001     A   10557 10359
 =A(L'SCPLCMD)
               4 000015C0 00000001     A    7472  6029   6041
 =A(NEXT)      4 00000DFC 00000001     A    5711  5410   5519   5623
 =A(10)        4 00001FA0 00000001     A   10541  8331
 =A(16)        4 000015F8 00000001     A    7486  6891   6903
 =A(384)       4 00001FA4 00000001     A   10542  8332
 =A(4096-4-4)
               4 00001FC0 00000001     A   10549  9090
 =A(6)         4 00000DB0 00000001     A    5694  3463   4219   5212
 =BL4'1100'
               4 00000DE4 00000001     B    5707  4592
 =BL4'111100'
               4 00000DCC 00000001     B    5701  3797   3820   4438   4534   4587   4643   4649   4726   4730   4792
                                                  4813   4891   4952   4973
 =C'  .   '
               6 00002018 00000001     C   10563 10008
 =C'  CLP'
               5 00000E38 00000001     C    5725  2692
 =C' ... '
               5 00002024 00000001     C   10566  8207
 =C' ('        2 00000E24 00000001     C    5721  3626
 =C' ('        2 00002000 00000001     C   10559  8743
 =C' (Exit disabled)'
              16 00000D88 00000001     C    5687  5315
 =C' (Multiple attention)'
              21 00000EC3 00000001     C    5752  5305
 =C' - LAST LINE.'
              13 00002029 00000001     C   10567  8456
 =C' option'
               7 0000167B 00000001     C    7497  6239
 =C' panic code = '
              14 00000E16 00000001     C    5720  3572
 =C' Event ('
               8 00000D70 00000001     C    5685  3709
 =C'.'         1 00000E7D 00000001     C    5742  3674   3956   4081   5176
1VCLP     (VCLP00) (09:46) (22MAR04) Ordinary Symbol and Literal Cross Reference                                            Page  100
 =C'+'         1 00002036 00000001     C   10568  8669   8772
 =C')'         1 00000E7C 00000001     C    5741  3657
 =C')'         1 00002037 00000001     C   10569  8829
 =C'-> '       3 00002021 00000001     C   10565  8192   8205
 =C', Attention'
              11 00000EB8 00000001     C    5751  5254
 =C', Branch to '
              12 00000DE8 00000001     C    5708  5156
 =C', Monitor code= '
              16 00000D78 00000001     C    5686  4026
 =C', Pause'
               7 00000EA3 00000001     C    5748  4241
 =C', System'
               8 00000D68 00000001     C    5684  3552
 =C', Trap sprung'
              13 00000EAB 00000001     C    5750  5132
 =C', User'
               6 00000E10 00000001     C    5719  3563
 =C','         1 00000E8A 00000001     C    5745  3851   3896
 =C'? '        2 00002002 00000001     C   10560  9419
 =C'??,'       3 00000E87 00000001     C    5744  3787
 =C': unrecognized '
              15 0000166C 00000001     C    7496  6199
 =C': unrecognized CLEAR option'
              27 00001699 00000001     C    7501  6927
 =C': Function not yet implemented'
              30 00001628 00000001     C    7494  6170
 =C': Invalid string'
              16 00001598 00000001     C    7468  6133
 =C'command'
               7 00001682 00000001     C    7498  6263
 =C'AOS'       3 00000E43 00000001     C    5728  2817
 =C'Branch to '
              10 00000E2C 00000001     C    5723  3880
 =C'CLP error, '
              11 00000E64 00000001     C    5739  3432
 =C'Dump aborted'
              12 00001FD0 00000001     C   10553  9340
 =C'DFF'       3 00000E49 00000001     C    5730  2873
 =C'DUMP'      4 00001608 00000001     C    7490  7028
 =C'EATATCIT'
               8 00001F90 00000001     C   10538 10304
 =C'Fetch,'
               6 00000E26 00000001     C    5722  3733
 =C'GG'        2 00000E0A 00000001     C    5716  2730
 =C'GQ'        2 00000E0C 00000001     C    5717  2744
 =C'Interrupt at '
              13 00000E6F 00000001     C    5740  3512   5113
 =C'Invalid value'
              13 00001689 00000001     C    7499  6280
 =C'INSUFFICIENT USER MEMORY TO PROCESS COMMAND'
              43 00002039 00000001     C   10571  9379
 =C'JWS'       3 00000E4F 00000001     C    5732  2929
 =C'Monitor class= '
              15 00000E94 00000001     C    5747  3973
 =C'MPD'       3 00000E40 00000001     C    5727  2789
 =C'No program executing'
              20 00001614 00000001     C    7493  7231
 =C'Not authorized to issue abort command!'
1VCLP     (VCLP00) (09:46) (22MAR04) Ordinary Symbol and Literal Cross Reference                                            Page  101
              38 00001646 00000001     C    7495  7195
 =C'Operand missing.'
              16 000015A8 00000001     C    7469  6293
 =C'ORV'       3 00000E46 00000001     C    5729  2845
 =C'Privileged command'
              18 00002006 00000001     C   10562  9818
 =C'PJG'       3 00000E52 00000001     C    5733  2957
 =C'Register)'
               9 00000E8B 00000001     C    5746  3924
 =C'RAL'       3 00000E3D 00000001     C    5726  2761
 =C'RETYPE.'
               7 00002064 00000001     C   10572  9490
 =C'RLG'       3 00000E55 00000001     C    5734  2985
 =C'Session break at '
              17 00000ED8 00000001     C    5753  5649
 =C'Store at '
               9 00000E7E 00000001     C    5743  3761
 =C'SET'       3 00001696 00000001     C    7500  6782
 =C'SHOW'      4 00001604 00000001     C    7489  6996
 =C'SLP'       3 00000E58 00000001     C    5735  3013
 =C'SRS'       3 00000E4C 00000001     C    5731  2901
 =C'WCK'       3 00000E5B 00000001     C    5736  3041
 =C'XXX'       3 00000E5E 00000001     C    5737  3069
 =C'ZZZ'       3 00000E61 00000001     C    5738  3097
 =CL20' '     20 00001FE4 00000001     C   10556 10023  10024
 =F'4'         4 00000DDC 00000001     F    5705  4318   4360   4732   4912
 =V(BTD)       4 00000DC0 00000001     V    5698  3598   4004
 =V(BTR)       4 00001FA8 00000001     V   10543  8338   8425
 =V(BTX)       4 00000DD4 00000001     V    5703  4058
 =V(BTX)       4 00001FB4 00000001     V   10546  8697   8800
 =V(CLEAR)
               4 000015F4 00000001     V    7485  6832
 =V(CLRENQS)
               4 00000DA8 00000001     V    5692  3366
 =V(CLRIDTS)
               4 00000DA0 00000001     V    5690  3318   3359
 =V(FILES)
               4 000015E0 00000001     V    7480  6640
 =V(FILESHOW)
               4 000015E4 00000001     V    7481  6648
 =V(FREECLW)
               4 00001FCC 00000001     V   10552  9312
 =V(GETCLW)
               4 00001FBC 00000001     V   10548  8972
 =V(LDENTRY)
               4 00001FB8 00000001     V   10547  8728
 =V(LDSECT)
               4 00001FB0 00000001     V   10545  8635
 =V(PATCH)
               4 00001610 00000001     V    7492  7129
 =V(PROGMON)
               4 00000DF4 00000001     V    5709  5350
 =V(PROGRAMS)
               4 00000DA4 00000001     V    5691  3344
 =V(PROGRAMS)
               4 000015DC 00000001     V    7479  6613
 =V(PROGSERV)
               4 000015E8 00000001     V    7482  6662
 =V(READCORE)
1VCLP     (VCLP00) (09:46) (22MAR04) Ordinary Symbol and Literal Cross Reference                                            Page  102
               4 00000DC8 00000001     V    5700  3774   4316   4358   4910
 =V(RITECORE)
               4 00000DD8 00000001     V    5704  4309   4325   5026   5033
 =V(RITECORE)
               4 000015B8 00000001     V    7470  5891
 =V(RITECORE)
               4 00001F98 00000001     V   10539  7539
 =V(SCAN)      4 000015C8 00000001     V    7474  6107   6873
 =V(SCINIT)
               4 000015C4 00000001     V    7473  6088   6769   6825   6983   7122
 =V(SCTELL)
               4 000015EC 00000001     V    7483  6741   6797   6955   7094
 =V(SET)       4 000015F0 00000001     V    7484  6777
 =V(SHOW)      4 00001600 00000001     V    7488  6991   7013
 =V(SHOWLAST)
               4 0000160C 00000001     V    7491  7076
 =V(SHOWLAST)
               4 00001FDC 00000001     V   10554  9369
 =V(TIMEOUT)
               4 00000DF8 00000001     V    5710  5400
 =V(TYPEIT)
               4 000015D0 00000001     V    7476  6144
 =V(TYPEIT)
               4 00001FE0 00000001     V   10555  9826
 =V(VSEG)      4 00000DAC 00000001     V    5693  3436   3516   3556   3567   3576   3615   3630   3652   3661   3678
                                                  3713   3737   3765   3791   3855   3884   3900   3928   3960   3977
                                                  4021   4030   4075   4085   4245   5117   5136   5160   5180   5258
                                                  5309   5319   5653
 =V(VSEG)      4 000015CC 00000001     V    7475  6128   6137   6165   6174   6194   6203   6234   6243   6267   6284
                                                  6297   6921   6931   7199   7235
 =V(VSEG)      4 00001FAC 00000001     V   10544  8355   8450   8460   8662   8673   8721   8747   8765   8776   8824
                                                  8833   9344   9365   9383   9423   9822
 =V(VSEGLOC)
               4 00000DB8 00000001     V    5696  3527   3846   3891   4235   5127   5166   5249
 =V(VWRITE)
               4 00000DC4 00000001     V    5699  3682   3964   4089   4249   5184   5324
 =V(VWRITE)
               4 000015FC 00000001     V    7487  6935   7054
 =V(VWRITE)
               4 00001F9C 00000001     V   10540  8158   8291   8464   9328   9387
 =X'FEDCBA98'
               4 00000D98 00000001     X    5688  2639
 =X'FEDCBA98'
               4 000015BC 00000001     X    7471  5901   5916
 =X'FFFFFFF8'
               4 00001FC8 00000001     X   10551  9170
 =X'0AFD'      2 00000E08 00000001     X    5715  2644
 =X'0AFE'      2 00000E06 00000001     X    5714  2643
 =X'0AFF'      2 00000E04 00000001     X    5713  2642
 =X'0FFFFFFF'
               4 00000DB4 00000001     X    5695  3524   3769   3840   3887   4216   4232   5124   5163   5246
 =X'0000FFFF'
               4 00001FFC 00000001     X   10558 10449  10475
 =X'000000'
               3 0000201E 00000001     X   10564  7530
 =X'0000003F'
               4 00000DBC 00000001     X    5697  3558
 =X'00020000'
               4 00001FC4 00000001     X   10550  9097
1VCLP     (VCLP00) (09:46) (22MAR04) Ordinary Symbol and Literal Cross Reference                                            Page  103
 =X'15'        1 00002038 00000001     X   10570  9355
 =X'80'        1 00000EAA 00000001     X    5749  4823
 =X'80000000'
               4 00000DE0 00000001     X    5706  4527   5558
 =XL4'FFF'
               4 00000DD0 00000001     X    5702  3816   4942
 =XL4'00003000'
               4 000015D4 00000001     X    7477  6308
 =Y((L'KWR+3)/4*4)
               2 00000E0E 00000001     Y    5718  3259
 =Y((RAR+1-(SR)+16*((SR)/(RAR+1))/((SR)/(RAR+1)))*4)
               2 00000E36 00000001     Y    5724  5677
 =Y((R1+1-(R15)+16*((R15)/(R1+1))/((R15)/(R1+1)))*4)
               2 00002004 00000001     Y   10561  9629

1VCLP     (VCLP00) (09:46) (22MAR04) Macro and Copy Code Source Summary                                                     Page  104
- Con Source                                        Volume    Members                        HLASM R4.0  2004/03/22 09.46
0     PRIMARY INPUT                                           BTD      BTX      CODE     CODES    CSECT    DROP     END
                                                              ERRMSG   EX       LTORG    POP      PRINT    PUSH
                                                              START    USING
   L2 WYL.GG.SYS.MACLIB                             SYSB05    $BC      $BFLKUP  $BV      $CCLKUP  $CRS     $CSS     $L
                                                              $LA      $LBLAD   $LEXP    $LOR     $REL     $RGLKUP
                                                              $USLKUP  ACALL    BASE     BEGIN    CEIL     CLEAR
                                                              CSECT    DATA     DECR     DEFCC    DEX      DROP     ELSE
                                                              ELSEIF   END      EX       FLAG     GEN      HIBAL
                                                              IDENT    IF       LABEL    LC       LCALL    LCM      LOOP
                                                              LS       LT       LTORG    L4       POP      PRINT    PUSH
                                                              RECORD   REG      REGS     SET      START    ST4
                                                              SYSLR    SYSQS    USING    VCALL    WITH
   L3 WYL.GG.ORV.BC.MACLIB                          SYSB02    CLPSERV  CLW      FREECLW  GETCLW   HALT     ORVDEFN  SCAN
                                                              SCANCB   SCINIT   SCKW     SCTELL   SEGDC    SEGHX
                                                              VENTER   VEXIT    VFSHTAB  VGPTAB   VPMTAB   VPOP
                                                              VPSTAB   VPUSH    VREST    VSA      VSAVE    VSEG
                                                              VWRITE   WYLMDWD  XCALL
   L4 WYL.GG.ORV.MACLIB                             SYSB02    ABORT    KWREC    PZERO    SCP
   L5 SYS3.ORVYL.UMACLIB                            SYSB02    ATTACH   CALLSYS  CONTROL  DEQ      DETACH   READ
                                                              SENSE    SYSKWT   VSET     WAIT     WRITE    XIT
   L6 SYS3.IS.MACLIB                                SYSB05    SYSDEFN

1         (VCLP00) (09:46) (22MAR04) General Purpose Register Cross Reference                                               Page  105
- Register  References (M=modified, B=branch, U=USING, D=DROP, N=index)                      HLASM R4.0  2004/03/22 09.46
0    0(0)      983U   984D  2315   2321M  2344M  2392M  2417M  2432M  2466M  2466   2477M  2661M  2701M  3130M  3188M
              3188   3310M  3433M  3513M  3553M  3564M  3573M  3588M  3588   3627M  3648M  3648   3649M  3658M  3675M
              3710M  3734M  3762M  3770M  3779M  3779   3788M  3810M  3817M  3833M  3838   3852M  3881M  3897M  3925M
              3957M  3974M  3994M  3994   4027M  4033M  4041   4048M  4082M  4242M  4306M  4312M  4322M  4355M  4473M
              4506M  4527M  4535   4650M  4652M  4653   4662M  4662   4727M  4731M  4734   4737   4769   4822M  4822
              4823M  4824M  4825M  4826   4906M  5022M  5029M  5114M  5133M  5157M  5177M  5255M  5267M  5306M  5316M
              5359M  5422M  5431M  5431   5500M  5507   5624   5625M  5625   5650M  5888M  5926M  6078M  6111M  6111
              6134M  6171M  6200M  6231M  6240M  6264M  6281M  6294M  6553M  6694M  6743M  6744M  6746M  6799M  6800M
              6802M  6891   6903M  6928M  6957M  6958M  6960M  7096M  7097M  7099M  7168U  7189U  7190D  7196M  7232M
              7247M  7313M  7355M  7372M  7408M  7438M  7532M  7605M  7630M  7681M  7705M  7728M  7749M  7794M  7816M
              7914M  8046   8109M  8220M  8300M  8331M  8332M  8335M  8394M  8422M  8427   8432M  8457M  8477   8496
              8576M  8584   8639M  8645M  8670M  8687M  8704M  8732M  8738M  8739   8744M  8762M  8773M  8790M  8807M
              8830M  8842M  8908M  8995M  9031M  9107M  9211M  9341M  9362M  9380M  9420M  9436M  9470M  9592   9599M
              9630M  9675M  9726M  9767M  9819M  9868M  9968  10030M 10082M 10160M 10329M 10367M 10420  10524M 10531M
     1(1)      979U  2235   2351M  2399M  2439M  2457   2484M  2520M  2538   2594M  2649M  2650   2665M  2665   2692M
              3134M  3134   3195M  3303M  3303   3315M  3356M  3356   3432M  3512M  3523M  3524M  3552M  3563M  3572M
              3595M  3626M  3641M  3657M  3674M  3709M  3733M  3761M  3767M  3769M  3787M  3795M  3796M  3797M  3810N
              3815M  3816M  3817   3818M  3819M  3820M  3833N  3838M  3840M  3843   3851M  3880M  3886M  3887M  3888
              3896M  3924M  3956M  3973M  4001M  4026M  4055M  4081M  4231M  4232M  4241M  4272M  4275M  4283M  4284
              4311M  4321M  4354M  4362M  4363M  4363   4364   4532M  4533M  4534M  4535N  4585M  4586M  4587M  4588N
              4590M  4591M  4592M  4594N  4641M  4642M  4643M  4645N  4647M  4648M  4649M  4650N  4653N  4724M  4725M
              4726M  4727N  4734N  4804M  4805M  4813M  4825N  4826N  4882M  4883M  4891M  4898M  4898N  4903   4905M
              4999M  5000   5028M  5038M  5039M  5041M  5043   5113M  5123M  5124M  5132M  5156M  5162M  5163M  5176M
              5245M  5246M  5254M  5274M  5305M  5315M  5366M  5422M  5456M  5456   5499M  5499   5649M  5842M  5843M
              5843   5850M  5851   5885M  5886M  5933M  5974M  5974   5983   6026M  6029   6041M  6046   6049M  6051
              6074M  6097M  6133M  6170M  6199M  6226M  6239M  6263M  6280M  6293M  6521M  6701M  6734   6743   6754M
              6790   6799   6810M  6863M  6863   6927M  6948   6957   6968M  7087   7096   7107M  7195M  7231M  7254M
              7286M  7319D  7321M  7321   7322M  7323U  7387M  7445M  7534M  7535M  7592   7609M  7609   7634M  7634
              7674M  7697   7709M  7709   7732M  7732   7787M  7810   7894M  7895M  7895   7994M  8012U  8033U  8046
              8116M  8191M  8209M  8300M  8331M  8332M  8333   8334M  8401M  8420   8421M  8428   8456M  8477   8576M
              8584   8604   8605M  8605   8607   8608   8638   8640M  8644M  8654M  8669M  8694M  8699M  8703M  8725M
              8731   8733M  8737M  8743M  8757M  8772M  8797M  8802M  8806M  8829M  8842M  8915M  8962M  8981   8989
              9002M  9025   9038M  9064M  9064   9071M  9076   9077M  9078   9114M  9115M  9115   9164M  9166M  9169
              9218M  9302M  9340M  9355M  9379M  9419M  9443M  9469   9470   9471M  9490M  9564M  9564   9592   9606M
              9630M  9818M  9968  10037M 10089M 10164M 10164  10223M 10336M 10367M 10420  10473M 10531M
     2(2)      975U  2235M  2298N  3379M  3438M  3886   4222M  4226M  4226   5210M  5211M  5212M  5213   5507M  5527
              5539M  5544   5564M  5566   5602M  5604   5624M  5626M  5626   5644   5678M  6213M  6213   6231   6497M
              6497   6734M  6744   6783M  6790M  6800   6948M  6958   6997M  7029M  7087M  7097   7511   7528M  7532
              7541M  7541   7554M  7562   7658M  7658   7674   7697M  7714   7737   7749   7770M  7770   7787   7810M
              7816   7835M  7843   7889M  7889   7891M  7944M  7966M  7974   8038M  8046   8272M  8281M  8281   8300M
              8369   8427M  8428M  8429M  8430   8469M  8477   8508M  8509M  8524M  8536   8540M  8540   8567   8576M
              8584   8607M  8638M  8664M  8664   8680   8723M  8731M  8767M  8767   8783   8842M  8865   8989M  9078
              9080M  9114N  9137N  9145N  9274M  9296M  9321   9396   9425M  9428M  9429   9482M  9524M  9525M  9638
              9680M  9689   9731M  9968  10367M 10420  10448M 10449M 10450M 10460M 10460  10466M 10466  10467M 10467
             10468N 10474M 10475M 10476M 10486M 10486  10492M 10492  10493M 10493  10494N 10531M
     3(3)      971U  3466M  3467M  3467   3538M  3538   3558M  3578   3617   3693M  3693   4223M  4227M  4349M  4349
              4350M  4390N  5187M  5196M  5196   5210M  5213M  5232   5245   5644   5678M  6226   6782M  6996M  7028M
              7511   7529M  7542M  7543   7554M  7562   7592M  7782   7835M  7843   7863M  7881U  7961U  7966M  7974
              8038M  8046   8300M  8369   8469M  8477   8496M  8524   8536M  8549M  8551   8566M  8567M  8568   8576M
              8584   8604M  8842M  8849M  8849   8865   9025M  9077   9081M  9095   9137M  9137   9143M  9143   9145M
              9145   9146   9155   9167M  9169   9274M  9396   9426M  9427   9428   9482M  9526M  9529M  9531   9549M
              9549   9550   9638   9680M  9689   9731M  9968  10367M 10420  10450M 10451M 10468M 10473  10476M 10477M
             10494M 10499  10531M
     4(4)      967U  3465M  3482M  3523   4215M  4218M  4219M  4220   4264M  4268M  4269M  4270   5644   5678M  7511
              7554M  7562   7835M  7843   7890M  7945M  7966M  7974   8038M  8046   8300M  8369   8469M  8477   8576M
1         (VCLP00) (09:46) (22MAR04) General Purpose Register Cross Reference                                               Page  106
              8584   8608M  8723   8725   8739M  8762   8842M  8848M  8848   8865   9089M  9090   9139M  9144   9274M
              9396   9482M  9638   9680M  9689   9731M  9968  10367M 10420  10531M
     5(5)      963U  4215M  4216M  4220M  4221   4231   4354   4904M  5644   5678M  7511   7554M  7562   7835M  7843
              7966M  7974   8038M  8046   8300M  8369   8469M  8477   8545M  8546M  8576M  8584   8842M  8865   9088M
              9089N  9146   9148   9167N  9274M  9396   9482M  9638   9680M  9689   9731M  9968  10293M 10301U 10367M
             10406U 10420  10531M
     6(6)      959U  3168M  3179U  3195   3256U  5644   5678M  7511   7554M  7562   7835M  7843   7966M  7974   8038M
              8046   8300M  8369   8469M  8477   8576M  8584   8842M  8865   9274M  9396   9482M  9638   9680M  9689
              9731M  9968  10367M 10420  10531M
     7(7)      955U  2208M  2218U  5410M  5411   5519M  5520   5623M  5635   5641   5644   5678M  5762M  5772U  5775U
              5977B  6112B  6146B  6368M  6369   6579B  6615B  6642B  6650B  6664B  6723M  6724   6779B  6834B  6937B
              6943B  6993B  7068B  7082B  7131B  7461U  7511   7516M  7526U  7554M  7562   7567M  7577U  7580U  7835M
              7843   7848M  7858U  7861U  7966M  7974   7979M  7989U  7992U  8038M  8046   8051M  8061U  8064U  8300M
              8311   8316M  8360M  8369   8374M  8384U  8387U  8469M  8477   8481M  8491U  8494U  8576M  8584   8589M
              8599U  8602U  8842M  8865   8870M  8880U  8883U  9274M  9396   9401M  9411U  9414U  9482M  9638   9643M
              9653U  9656U  9680M  9689   9694M  9704U  9707U  9731M  9740   9745M  9832M  9841   9846M  9935M  9968
              9973M  9983U  9986U 10359M 10360  10367M 10420  10425M 10435U 10438U 10531M
     8(8)      951U  5644   5678M  7511   7512M  7553   7554M  7562   7563M  7834   7835M  7843   7844M  7965   7966M
              7974   7975M  8037   8038M  8046   8047M  8299   8300M  8311   8312M  8359   8360M  8369   8370M  8468
              8469M  8477   8478M  8575   8576M  8584   8585M  8841   8842M  8865   8866M  9273   9274M  9396   9397M
              9481   9482M  9638   9639M  9679   9680M  9689   9690M  9730   9731M  9740   9741M  9831   9832M  9841
              9842M  9934   9935M  9968   9969M  9995U 10366  10367M 10399U 10420  10421M 10530  10531M
     9(9)      947U  2249M  2293M  2623B  2686M  2687M  2687B  3318M  3319M  3319B  3344M  3345M  3345B  3359M  3360M
              3360B  3366M  3367M  3367B  3436M  3437M  3437B  3516M  3517M  3517B  3520M  3527M  3528M  3528B  3556M
              3557M  3557B  3567M  3568M  3568B  3576M  3577M  3577B  3615M  3616M  3616B  3630M  3631M  3631B  3652M
              3653M  3653B  3661M  3662M  3662B  3678M  3679M  3679B  3682M  3683M  3683B  3713M  3714M  3714B  3737M
              3738M  3738B  3765M  3766M  3766B  3774M  3775M  3775B  3791M  3792M  3792B  3846M  3847M  3847B  3855M
              3856M  3856B  3884M  3885M  3885B  3891M  3892M  3892B  3900M  3901M  3901B  3928M  3929M  3929B  3960M
              3961M  3961B  3964M  3965M  3965B  3977M  3978M  3978B  4021M  4022M  4022B  4030M  4031M  4031B  4075M
              4076M  4076B  4085M  4086M  4086B  4089M  4090M  4090B  4229M  4235M  4236M  4236B  4245M  4246M  4246B
              4249M  4250M  4250B  4309M  4310M  4310B  4316M  4317M  4317B  4325M  4326M  4326B  4358M  4359M  4359B
              4723M  4881M  4910M  4911M  4911B  4922M  4928M  4934M  4986B  5026M  5027M  5027B  5033M  5034M  5034B
              5076M  5117M  5118M  5118B  5127M  5128M  5128B  5136M  5137M  5137B  5160M  5161M  5161B  5166M  5167M
              5167B  5180M  5181M  5181B  5184M  5185M  5185B  5244M  5249M  5250M  5250B  5258M  5259M  5259B  5309M
              5310M  5310B  5319M  5320M  5320B  5324M  5325M  5325B  5350M  5351M  5351B  5400M  5401M  5401B  5644
              5653M  5654M  5654B  5678M  5679B  5891M  5892M  5892B  6128M  6129M  6129B  6137M  6138M  6138B  6144M
              6145M  6145B  6165M  6166M  6166B  6174M  6175M  6175B  6194M  6195M  6195B  6203M  6204M  6204B  6234M
              6235M  6235B  6243M  6244M  6244B  6267M  6268M  6268B  6284M  6285M  6285B  6297M  6298M  6298B  6613M
              6614M  6614B  6640M  6641M  6641B  6648M  6649M  6649B  6662M  6663M  6663B  6777M  6778M  6778B  6832M
              6833M  6833B  6921M  6922M  6922B  6931M  6932M  6932B  6935M  6936M  6936B  6991M  6992M  6992B  7013M
              7014M  7014B  7054M  7055M  7055B  7076M  7077M  7077B  7129M  7130M  7130B  7199M  7200M  7200B  7235M
              7236M  7236B  7511   7539M  7540M  7540B  7554M  7555B  7562   7835M  7836B  7843   7966M  7967B  7974
              8038M  8039B  8046   8158M  8159M  8159B  8291M  8292M  8292B  8300M  8302B  8311   8355M  8356M  8356B
              8360M  8361B  8369   8450M  8451M  8451B  8460M  8461M  8461B  8464M  8465M  8465B  8469M  8470B  8477
              8576M  8577B  8584   8635M  8636M  8636B  8662M  8663M  8663B  8673M  8674M  8674B  8721M  8722M  8722B
              8728M  8729M  8729B  8747M  8748M  8748B  8765M  8766M  8766B  8776M  8777M  8777B  8824M  8825M  8825B
              8833M  8834M  8834B  8842M  8843B  8858B  8865   8972M  8973M  8973B  9274M  9276B  9312M  9313M  9313B
              9328M  9329M  9329B  9344M  9345M  9345B  9365M  9366M  9366B  9369M  9370M  9370B  9383M  9384M  9384B
              9387M  9388M  9388B  9396   9423M  9424M  9424B  9482M  9484B  9638   9680M  9682B  9689   9731M  9733B
              9740   9822M  9823M  9823B  9826M  9827M  9827B  9832M  9834B  9841   9935M  9937B  9968  10367M 10368B
             10420  10526M 10527  10531M 10532B
    10(A)      943U  2186U  2232M  8046   8300M  8584   8842M  9638   9680M  9689   9731M  9968  10367M 10420  10531M
    11(B)      939U  2177U  2231M  2638   7878U  7956U  8009U  8028U  8046   8300M  8584   8632M  8842M  9638   9680M
              9689   9731M  9968  10367M 10420  10531M
    12(C)      935U  8046   8300M  8584   8842M  9968  10367M 10420  10531M
    13(D)      931U  2233M  2234   3168   3169M  3169   3259M  5644   5645M  5645   5677M  5678   5778M  7511   7512
              7513M  7513   7553M  7554   7562   7563   7564M  7564   7834M  7835   7843   7844   7845M  7845   7965M
              7966   7974   7975   7976M  7976   8037M  8038   8046   8046   8047   8048M  8048   8299M  8300M  8300
              8311   8312   8313M  8313   8359M  8360   8369   8370   8371M  8371   8468M  8469   8477   8478   8575M
1         (VCLP00) (09:46) (22MAR04) General Purpose Register Cross Reference                                               Page  107
              8576   8584   8584   8585   8586M  8586   8841M  8842M  8842   8865   8866   8867M  8867   9273M  9274
              9396   9397   9398M  9398   9481M  9482   9592   9593M  9593   9629M  9630   9638   9639   9640M  9640
              9679M  9680   9689   9690   9691M  9691   9730M  9731   9740   9741   9742M  9742   9831M  9832   9841
              9842   9843M  9843   9934M  9935   9968   9968   9969   9970M  9970  10366M 10367M 10367  10420  10420
             10421  10422M 10422  10530M 10531M 10531
    14(E)      927U  2231   2672M  2672   3141M  3141   3209M  3461M  3462M  3463M  3464   3598M  3599M  3599B  3617M
              3619   3621M  3622M  3622N  4004M  4005M  4005B  4058M  4059M  4059B  4429M  4430M  4438M  4444N  4728M
              4729M  4730M  4731N  4732M  4733M  4733N  4737   4769   4783M  4784M  4792M  4799N  4943M  4944M  4952M
              4959N  4964M  4965M  4973M  4980N  5945M  5945   5992M  5992   6088M  6089M  6089B  6107M  6108M  6108B
              6526M  6526   6543M  6741M  6742M  6742B  6769M  6770M  6770B  6797M  6798M  6798B  6825M  6826M  6826B
              6873M  6874M  6874B  6955M  6956M  6956B  6983M  6984M  6984B  7094M  7095M  7095B  7122M  7123M  7123B
              7929M  8046   8300M  8338M  8339M  8339B  8425M  8426M  8426B  8584   8697M  8698M  8698B  8800M  8801M
              8801B  8842M  9101M  9101   9455M  9968  10051M 10103M 10171M 10171  10237M 10367M 10420  10499M 10507M
             10507N 10531M
    15(F)      923U  2315   2355M  2355   2409   2488M  2488   2546M  2546   2558   2577M  2693M  3202M  3341M  3341
              3461M  3464M  3465   3578M  3771M  3945M  3946M  3946N  3986D  3988M  3988   3989M  3990U  4032M  4041M
              4282M  4313M  4318   4320M  4353M  4360   4426M  4426   4428M  4444M  4464M  4544M  4544   4553   4588M
              4589M  4596   4638M  4638   4640M  4645M  4646M  4679M  4679   4688   4739   4780M  4780   4782M  4799M
              4839M  4839   4848   4904   4905   4907M  4912   4939M  4940   4941M  4942M  4959M  4980M  4985M  5023M
              5030M  5504M  5504   5505   5557M  5558M  5559B  5581M  5582B  5887M  5940M  5941M  5941   6085M  6104M
              6304M  6305M  6305   6306M  6307M  6308M  6310M  6311   6522M  6562M  6562   6592M  6594M  6596M  6598M
              6600M  6602M  6604M  6606M  6608M  6622M  6624M  6626M  6628M  6630M  6632M  6634M  6656M  6708M  6766M
              6822M  6870M  6980M  7119M  7177   7178M  7179M  7180M  7181M  7181   7182M  7182   7259M  7291M  7536M
              7616M  7641M  7669M  7669   7714M  7737M  7782M  7922M  7922   8087M  8088   8120M  8120   8167M  8167
              8189M  8190M  8210M  8301M  8301   8333M  8420M  8640   8654   8680M  8733   8757   8783M  8838M  8838
              8851M  8919M  8969M  9087M  9087   9095M  9097M  9170M  9225M  9244M  9275M  9275   9282M  9282   9284M
              9296   9309M  9321M  9371M  9450M  9483M  9483   9491M  9592   9613M  9630M  9681M  9681   9732M  9732
              9769M  9779U  9792U  9809M  9809   9828M  9833M  9833   9870M  9880U  9893U  9910M  9910   9927M  9936M
              9936   9968  10044M 10096M 10230M 10343M 10367M 10420  10442D 10444M 10444  10445M 10446U 10447M 10531M

1VCLP     (VCLP00) (09:46) (22MAR04) Diagnostic Cross Reference and Assembler Summary                                       Page  108
-                                                                                            HLASM R4.0  2004/03/22 09.46
0     No Statements Flagged in this Assembly
 HIGH LEVEL ASSEMBLER, 5696-234, RELEASE 4.0, PTF UQ57391
0SYSTEM: OS/390 02.10.00            JOBNAME: PJG#VCLP    STEPNAME: ASM        PROCSTEP: (NOPROC)
0Datasets Allocated for this Assembly
  Con DDname   Dataset Name                                 Volume  Member
   P1 SYSIN    SYS04082.T094610.RA000.PJG#VCLP.INPUT.H01    SCR100
   L1 SYSLIB   SYS3.DUMMYMAC                                SYSB02
   L2          WYL.GG.SYS.MACLIB                            SYSB05
   L3          WYL.GG.ORV.BC.MACLIB                         SYSB02
   L4          WYL.GG.ORV.MACLIB                            SYSB02
   L5          SYS3.ORVYL.UMACLIB                           SYSB02
   L6          SYS3.IS.MACLIB                               SYSB05
      SYSLIN   WYL.GG.PJG.OBJ                               SYSB05  VCLP
      SYSPRINT SYS04082.T094610.RA000.PJG#VCLP.PRINT.H01    SCR100
      SYSTERM  GG$PJG.PJG#VCLP.JOB05972.D0000103.?

    7812K allocated to Buffer Pool,         1549K would be required for this to be an In-Storage Assembly
    1786 Primary Input Records Read         4627 Library Records Read                  0 Work File Reads
       0 ASMAOPT Records Read               6704 Primary Print Records Written         0 Work File Writes
     203 Punch Records Written                 0 ADATA Records Written
0Assembly Start Time: 09.46.12 Stop Time: 09.46.16 Processor Time: 00.00.02.0942
 Return Code 000
