1                        J E S 2  J O B  L O G  --  S Y S T E M  S Y S B  --  N O D E  R L G
0
 09.47.13 JOB05981 ---- MONDAY,    22 MAR 2004 ----
 09.47.13 JOB05981  ICH70001I GG$PJG   LAST ACCESS AT 09:47:00 ON MONDAY, MARCH 22, 2004
 09.47.13 JOB05981  $HASP373 PJG#VFRD STARTED - INIT 3    - CLASS E - SYS SYSB
 09.47.13 JOB05981  ***  HCMD      STEP $$QUIET
 09.47.13 JOB05981  PURGE * Q=OUTPUT MULTIPLE
 09.47.13 JOB05981  JOB PJG#VFRD NOT IN OUTPUT QUEUE
 09.47.14 JOB05981  PJG#VFRD.$$QUIET .         RC=0008 TapeIO=0000 DiskIO=0000 CPU=  .01s Elapsed=33.91s
 09.47.15 JOB05981  PJG#VFRD.$CND    .         RC=Zero TapeIO=0000 DiskIO=0002 CPU=  .01s Elapsed=35.06s
 09.47.16 JOB05981  PJG#VFRD.$UNP    .         RC=Zero TapeIO=0000 DiskIO=0013 CPU=  .05s Elapsed=35.83s
 09.47.25 JOB05981  PJG#VFRD.ASM     .         RC=Zero TapeIO=0000 DiskIO=0541 CPU= 1.90s Elapsed=37.17s
 09.47.26 JOB05981  PJG#VFRD.$EDIT   .         RC=Zero TapeIO=0000 DiskIO=0059 CPU=  .24s Elapsed=45.69s
 09.47.26 JOB05981  PJG#VFRD Ended.  Name=Module: VFRD                   Total CPU= 2.21s Elapsed=33.91s
 09.47.26 JOB05981
 09.47.26 JOB05981  Execution charges   Priority=Standard   Block=Day
 09.47.26 JOB05981
 09.47.26 JOB05981  CPU Usage          39.75          $24.64   Standard Processing Unit Equivalent
 09.47.26 JOB05981                                   =======
 09.47.26 JOB05981                                    $24.64   Total Job execution charge
 09.47.26 JOB05981
 09.47.26 JOB05981  See back separator page for print charges
 09.47.26 JOB05981
 09.47.26 JOB05981  $HASP395 PJG#VFRD ENDED  ASM=0
1        1 //PJG#VFRD JOB PJG$GG,'Module: VFRD',TIME=1,MSGCLASS=C                  JOB05981
           /*JOBPARM HOLD=OUTPUT,LINES=50,CHARS=TN15,NOTIFY=YES
         2 //       EXEC PURGEOLD
         3 XXPURGEOLD PROC
           XX*
           XX* This proc is maintained by Jim Stosick
           XX*
         4 XX$$QUIET  EXEC PGM=HCMDX,PARM='PURGE * Q=OUTPUT MULTIPLE',
           XX         ACCT=(PURGEOLD,SYS3)
         5 //$CND   EXEC PGM=BILBO,REGION=512K,PARM='RECS=100'
         6 //STEPLIB  DD DSN=WYL.GG.ORV.LINKLIB,DISP=SHR
         7 //SYSPRINT DD SYSOUT=$
         8 //SYSUT1   DD DSN=WYL.GG.PJG.OBJ,DISP=OLD
         9 //SYSUT2   DD DSN=WYL.GG.PJG.OBJ,DISP=OLD
        10 //SYSIN    DD DUMMY
        11 //$UNP   EXEC PGM=WUNPRESS,PARM='NUM'
        12 //SYSPRINT DD SYSOUT=$
        13 //SYSUT1   DD DSN=WYL.GG.ORV.SOURCE.FILEUTIL(VFRD),DISP=SHR
        14 //SYSUT2   DD DSN=&&INPUT,DISP=(,PASS),UNIT=SYSDA,
           //            SPACE=(TRK,(25,25),RLSE),DCB=CARD
        15 //ASM    EXEC PGM=ASMA90,REGION=8M,COND=(0,NE,$UNP),
           //            PARM=('SYSPARM(VFRD),TERM,LANG(EN),OBJ',
           //          'LC(32500),XREF(SHORT),NODECK,NORLD,NODX,NOUS')
           //*STEPLIB  DD DSN=SYS1.SASMMOD1,DISP=SHR
        16 //SYSLIB   DD DSN=SYS3.DUMMYMAC,DISP=SHR,DCB=BLKSIZE=27920
        17 //         DD DSN=WYL.GG.SYS.MACLIB,DISP=SHR
        18 //         DD DSN=WYL.GG.ORV.BC.MACLIB,DISP=SHR
        19 //         DD DSN=WYL.GG.ORV.MACLIB,DISP=SHR
        20 //         DD DSN=SYS3.IS.MACLIB,DISP=SHR
        21 //         DD DSN=SYS3.MACLIB,DISP=SHR
        22 //         DD DSN=SYS1.MACLIB,DISP=SHR
        23 //         DD DSN=SYS1.MODGEN,DISP=SHR
        24 //SYSUT1   DD DSN=&&SYSUT1,UNIT=VIO,DISP=(,DELETE),
           //            SPACE=(4088,(500,250),,CONTIG,ROUND)
        25 //SYSTERM  DD SYSOUT=$
        26 //SYSPRINT DD DSN=&&PRINT,UNIT=SYSDA,DISP=(,PASS),
           //            SPACE=(6650,(250,250),RLSE),
           //            DCB=(BLKSIZE=6650,LRECL=133,RECFM=FB)
        27 //SYSLIN   DD DSN=WYL.GG.PJG.OBJ(VFRD),DISP=OLD
        28 //SYSUDUMP DD SYSOUT=A
        29 //SYSIN    DD DSN=&&INPUT,DISP=(OLD,DELETE)
        30 //$EDIT  EXEC PGM=ASMEDIT,REGION=1M,
           //            COND=EVEN,PARM='STMT,DATA'
        31 //STEPLIB  DD DSN=WYL.GG.SYS.LINKLIB,DISP=SHR
        32 //ASMOUT   DD DSN=&&PRINT,DISP=(OLD,DELETE)
        33 //SYSPRINT DD SYSOUT=A
        34 //SYSUDUMP DD SYSOUT=A
1 STMT NO. MESSAGE
         2 IEFC001I PROCEDURE PURGEOLD WAS EXPANDED USING SYSTEM LIBRARY SYS3.BETAPROC
        14 IGD01010I STORCLAS= TEMP STORGROUP =
        14 IGD01010I STORGRP=VIO ASSIGNED.
        24 IGD01010I STORCLAS= TEMP STORGROUP =
        24 IGD01010I STORGRP=VIO ASSIGNED.
        26 IGD01010I STORCLAS= TEMP STORGROUP =
        26 IGD01010I STORGRP=VIO ASSIGNED.
 ICH70001I GG$PJG   LAST ACCESS AT 09:47:00 ON MONDAY, MARCH 22, 2004
 IEF142I PJG#VFRD $$QUIET - STEP WAS EXECUTED - COND CODE 0008
 *********************************************************************************
 *   PJG#VFRD/$$QUIET /                    Return Code      0008                 *
 *   Region used      268K (16K user + 252K system)                              *
 *   Extended region  9352K (4K user + 9348K system)                             *
 *                                                                               *
 *   Paging              In      Out                                             *
 *   Private <-> Aux      0        0       CPU time (TCB)   00:00:00.01          *
 *   Private <-> Exp      0        0       CPU time (SRB)   00:00:00.00          *
 *   VIO                  0        0       Elapsed time    920:40:39.05          *
 *   Common               0      ---                                             *
 *                                                                               *
 *                                                                               *
 *   CPU Usage          0.18         $0.11  Standard Processing Unit Equivalent  *
 *                                   $0.11  Total Step execution charge          *
 *                                                                               *
 *    I/O count  DDname   Type Addr           I/O count  DDname   Type Addr      *
 *                         *** No I/O for this step ***                          *
 *********************************************************************************
 IEF373I STEP/$$QUIET /START 2004082.0947
 IEF374I STEP/$$QUIET /STOP  2004082.0947 CPU    0MIN 00.01SEC SRB    0MIN 00.00SEC VIRT    16K SYS   252K EXT       4K SYS    9348K
 IEF236I ALLOC. FOR PJG#VFRD $CND
 IEF237I 0401 ALLOCATED TO STEPLIB
 IEF237I JES2 ALLOCATED TO SYSPRINT
 IEF237I 04DC ALLOCATED TO SYSUT1
 IEF237I 04DC ALLOCATED TO SYSUT2
 IEF237I DMY  ALLOCATED TO SYSIN
 IEF142I PJG#VFRD $CND - STEP WAS EXECUTED - COND CODE 0000
 IEF285I   WYL.GG.ORV.LINKLIB                           KEPT
 IEF285I   VOL SER NOS= SYSB01.
 IEF285I   GG$PJG.PJG#VFRD.JOB05981.D0000101.?          SYSOUT
 IEF285I   WYL.GG.PJG.OBJ                               KEPT
 IEF285I   VOL SER NOS= SYSB05.
 IEF285I   WYL.GG.PJG.OBJ                               KEPT
 IEF285I   VOL SER NOS= SYSB05.
 *********************************************************************************
 *   PJG#VFRD/$CND    /                    Return Code      Zero                 *
 *   Region used      288K (16K user + 272K system)                              *
 *   Extended region  9392K (4K user + 9388K system)                             *
 *                                                                               *
 *   Paging              In      Out                                             *
 *   Private <-> Aux      0        0       CPU time (TCB)   00:00:00.01          *
 *   Private <-> Exp      0        0       CPU time (SRB)   00:00:00.00          *
 *   VIO                  0        0       Elapsed time    920:40:37.90          *
 *   Common               0      ---                                             *
 *                                                                               *
 *                                                                               *
 *   CPU Usage          0.18         $0.11  Standard Processing Unit Equivalent  *
 *                                   $0.11  Total Step execution charge          *
 *                                                                               *
 *    I/O count  DDname   Type Addr           I/O count  DDname   Type Addr      *
 *            2  STEPLIB  Disk 0401                   0  SYSPRINT      ----      *
 *            0  SYSUT1   Disk 04DC                   0  SYSUT2   Disk 04DC      *
 *            0  SYSIN         ----                                              *
 *********************************************************************************
 IEF373I STEP/$CND    /START 2004082.0947
 IEF374I STEP/$CND    /STOP  2004082.0947 CPU    0MIN 00.01SEC SRB    0MIN 00.00SEC VIRT    16K SYS   272K EXT       4K SYS    9388K
 IEF236I ALLOC. FOR PJG#VFRD $UNP
 IEF237I JES2 ALLOCATED TO SYSPRINT
 IEF237I 0402 ALLOCATED TO SYSUT1
 IGD101I SMS ALLOCATED TO DDNAME (SYSUT2  )
         DSN (SYS04082.T094713.RA000.PJG#VFRD.INPUT.H01   )
         STORCLAS (TEMP) MGMTCLAS (        ) DATACLAS (        )
         VOL SER NOS= SCR100
 IEF142I PJG#VFRD $UNP - STEP WAS EXECUTED - COND CODE 0000
 IEF285I   GG$PJG.PJG#VFRD.JOB05981.D0000102.?          SYSOUT
 IEF285I   WYL.GG.ORV.SOURCE.FILEUTIL                   KEPT
 IEF285I   VOL SER NOS= SYSB02.
 IGD106I SYS04082.T094713.RA000.PJG#VFRD.INPUT.H01    PASSED,    DDNAME=SYSUT2
 *********************************************************************************
 *   PJG#VFRD/$UNP    /                    Return Code      Zero                 *
 *   Region used      388K (108K user + 280K system)                             *
 *   Extended region  9468K (4K user + 9464K system)                             *
 *                                                                               *
 *   Paging              In      Out                                             *
 *   Private <-> Aux      0        0       CPU time (TCB)   00:00:00.05          *
 *   Private <-> Exp      0        0       CPU time (SRB)   00:00:00.00          *
 *   VIO                  0        0       Elapsed time    920:40:37.13          *
 *   Common               0      ---                                             *
 *                                                                               *
 *                                                                               *
 *   CPU Usage          0.93         $0.57  Standard Processing Unit Equivalent  *
 *                                   $0.57  Total Step execution charge          *
 *                                                                               *
 *    I/O count  DDname   Type Addr           I/O count  DDname   Type Addr      *
 *            0  SYSPRINT      ----                   2  SYSUT1   Disk 0402      *
 *           11  SYSUT2   Disk 038B                                              *
 *********************************************************************************
 IEF373I STEP/$UNP    /START 2004082.0947
 IEF374I STEP/$UNP    /STOP  2004082.0947 CPU    0MIN 00.05SEC SRB    0MIN 00.00SEC VIRT   108K SYS   280K EXT       4K SYS    9464K
 IEF236I ALLOC. FOR PJG#VFRD ASM
 IEF237I 0402 ALLOCATED TO SYSLIB
 IEF237I 04DC ALLOCATED TO
 IEF237I 0402 ALLOCATED TO
 IEF237I 0402 ALLOCATED TO
 IEF237I 04DC ALLOCATED TO
 IEF237I 0402 ALLOCATED TO
 IEF237I 04A0 ALLOCATED TO
 IEF237I 04A0 ALLOCATED TO
 IGD101I SMS ALLOCATED TO DDNAME (SYSUT1  )
         DSN (SYS04082.T094713.RA000.PJG#VFRD.SYSUT1.H01  )
         STORCLAS (TEMP) MGMTCLAS (        ) DATACLAS (        )
         VOL SER NOS= VIO
 IEF237I JES2 ALLOCATED TO SYSTERM
 IGD101I SMS ALLOCATED TO DDNAME (SYSPRINT)
         DSN (SYS04082.T094713.RA000.PJG#VFRD.PRINT.H01   )
         STORCLAS (TEMP) MGMTCLAS (        ) DATACLAS (        )
         VOL SER NOS= SCR100
 IEF237I 04DC ALLOCATED TO SYSLIN
 IEF237I JES2 ALLOCATED TO SYSUDUMP
 IGD103I SMS ALLOCATED TO DDNAME SYSIN
 IEF142I PJG#VFRD ASM - STEP WAS EXECUTED - COND CODE 0000
 IEF285I   SYS3.DUMMYMAC                                KEPT
 IEF285I   VOL SER NOS= SYSB02.
 IEF285I   WYL.GG.SYS.MACLIB                            KEPT
 IEF285I   VOL SER NOS= SYSB05.
 IEF285I   WYL.GG.ORV.BC.MACLIB                         KEPT
 IEF285I   VOL SER NOS= SYSB02.
 IEF285I   WYL.GG.ORV.MACLIB                            KEPT
 IEF285I   VOL SER NOS= SYSB02.
 IEF285I   SYS3.IS.MACLIB                               KEPT
 IEF285I   VOL SER NOS= SYSB05.
 IEF285I   SYS3.MACLIB                                  KEPT
 IEF285I   VOL SER NOS= SYSB02.
 IEF285I   SYS1.MACLIB                                  KEPT
 IEF285I   VOL SER NOS= MVSBR9.
 IEF285I   SYS1.MODGEN                                  KEPT
 IEF285I   VOL SER NOS= MVSBR9.
 IGD105I SYS04082.T094713.RA000.PJG#VFRD.SYSUT1.H01   DELETED,   DDNAME=SYSUT1
 IEF285I   GG$PJG.PJG#VFRD.JOB05981.D0000103.?          SYSOUT
 IGD106I SYS04082.T094713.RA000.PJG#VFRD.PRINT.H01    PASSED,    DDNAME=SYSPRINT
 IEF285I   WYL.GG.PJG.OBJ                               KEPT
 IEF285I   VOL SER NOS= SYSB05.
 IEF285I   GG$PJG.PJG#VFRD.JOB05981.D0000104.?          SYSOUT
 IGD105I SYS04082.T094713.RA000.PJG#VFRD.INPUT.H01    DELETED,   DDNAME=SYSIN
 *********************************************************************************
 *   PJG#VFRD/ASM     /                    Return Code      Zero                 *
 *   Region used      8484K (8192K user + 292K system)                           *
 *   Extended region  9956K (412K user + 9544K system)                           *
 *                                                                               *
 *   Paging              In      Out                                             *
 *   Private <-> Aux      0        0       CPU time (TCB)   00:00:01.82          *
 *   Private <-> Exp      0        0       CPU time (SRB)   00:00:00.08          *
 *   VIO                  0        0       Elapsed time    920:40:35.79          *
 *   Common               0      ---                                             *
 *                                                                               *
 *                                                                               *
 *   CPU Usage         34.12        $21.15  Standard Processing Unit Equivalent  *
 *                                  $21.15  Total Step execution charge          *
 *                                                                               *
 *    I/O count  DDname   Type Addr           I/O count  DDname   Type Addr      *
 *           45  SYSLIB   Disk 0402                 155  SYSLIB   Disk 04DC      *
 *            0  SYSLIB   Disk 0402                   0  SYSLIB   Disk 0402      *
 *            0  SYSLIB   Disk 04DC                   0  SYSLIB   Disk 0402      *
 *          271  SYSLIB   Disk 04A0                   0  SYSLIB   Disk 04A0      *
 *            0  SYSUT1   VIO  ----                   0  SYSTERM       ----      *
 *           56  SYSPRINT Disk 038B                   2  SYSLIN   Disk 04DC      *
 *            0  SYSUDUMP      ----                  12  SYSIN    Disk 038B      *
 *********************************************************************************
 IEF373I STEP/ASM     /START 2004082.0947
 IEF374I STEP/ASM     /STOP  2004082.0947 CPU    0MIN 01.82SEC SRB    0MIN 00.08SEC VIRT  8192K SYS   292K EXT     412K SYS    9544K
 IEF236I ALLOC. FOR PJG#VFRD $EDIT
 IEF237I 0402 ALLOCATED TO STEPLIB
 IGD103I SMS ALLOCATED TO DDNAME ASMOUT
 IEF237I JES2 ALLOCATED TO SYSPRINT
 IEF237I JES2 ALLOCATED TO SYSUDUMP
 IEF142I PJG#VFRD $EDIT - STEP WAS EXECUTED - COND CODE 0000
 IEF285I   WYL.GG.SYS.LINKLIB                           KEPT
 IEF285I   VOL SER NOS= SYSB02.
 IGD105I SYS04082.T094713.RA000.PJG#VFRD.PRINT.H01    DELETED,   DDNAME=ASMOUT
 IEF285I   GG$PJG.PJG#VFRD.JOB05981.D0000105.?          SYSOUT
 IEF285I   GG$PJG.PJG#VFRD.JOB05981.D0000106.?          SYSOUT
 *********************************************************************************
 *   PJG#VFRD/$EDIT   /                    Return Code      Zero                 *
 *   Region used      388K (116K user + 272K system)                             *
 *   Extended region  9472K (4K user + 9468K system)                             *
 *                                                                               *
 *   Paging              In      Out                                             *
 *   Private <-> Aux      0        0       CPU time (TCB)   00:00:00.23          *
 *   Private <-> Exp      0        0       CPU time (SRB)   00:00:00.01          *
 *   VIO                  0        0       Elapsed time    920:40:27.27          *
 *   Common               0      ---                                             *
 *                                                                               *
 *                                                                               *
 *   CPU Usage          4.31         $2.67  Standard Processing Unit Equivalent  *
 *                                   $2.67  Total Step execution charge          *
 *                                                                               *
 *    I/O count  DDname   Type Addr           I/O count  DDname   Type Addr      *
 *            2  STEPLIB  Disk 0402                  57  ASMOUT   Disk 038B      *
 *            0  SYSPRINT      ----                   0  SYSUDUMP      ----      *
 *********************************************************************************
 IEF373I STEP/$EDIT   /START 2004082.0947
 IEF374I STEP/$EDIT   /STOP  2004082.0947 CPU    0MIN 00.23SEC SRB    0MIN 00.01SEC VIRT   116K SYS   272K EXT       4K SYS    9468K
 *********************************************************************************
 *                                                                               *
 *                      S t a n f o r d   U n i v e r s i t y                    *
 *                                                                               *
 *                              *** Job Summary ***                              *
 *                                                                               *
 *   System Id      SYSB                   Input time     09:38:35  Mar 22, 2004 *
 *                                                                               *
 *   System Release SP6.1.0                Start time     09:47:13  Mar 22, 2004 *
 *                                                                               *
 *   Job name       PJG#VFRD               Stop  time     00:00:00  Mar 22, 2004 *
 *                                                                               *
 *   Account        PJG$GG                 Elapsed time  920:40:39.05            *
 *                                                                               *
 *   User Name      Module: VFRD           CPU time       00:00:02.12            *
 *                                                                               *
 *   Job class      E                      SRB Time       00:00:00.09            *
 *                                                                               *
 *********************************************************************************
 IEF375I  JOB/PJG#VFRD/START 2004082.0947
 IEF376I  JOB/PJG#VFRD/STOP  2004082.0947 CPU    0MIN 02.12SEC SRB    0MIN 00.09SEC
1Data set successfully converted from EDIT to FB format
1Assembler Done VFRD No Statements Flagged
1         High Level Assembler Option Summary                   (PTF UQ57391)                                               Page    1
-                                                                                            HLASM R4.0  2004/03/22 09.47
0  No Overriding ASMAOPT Parameters
   Overriding Parameters-  SYSPARM(VFRD),TERM,LANG(EN),OBJ,LC(32500),XREF(SHORT),NODECK,NORLD,NODX,NOUS
   No Process Statements


   Options for this Assembly
0  NOADATA
     ALIGN
   NOASA
     BATCH
     CODEPAGE(047C)
   NOCOMPAT
   NODBCS
 3 NODECK
 3 NODXREF
     ESD
   NOEXIT
     FLAG(0,ALIGN,CONT,NOIMPLEN,NOPAGE0,PUSH,RECORD,NOSUBSTR,USING0)
   NOFOLD
   NOGOFF
   NOINFO
 3   LANGUAGE(EN)
   NOLIBMAC
 3   LINECOUNT(32500)
     LIST(121)
     MXREF(SOURCE)
 3   OBJECT
     OPTABLE(UNI,NOLIST)
   NOPCONTROL
   NOPESTOP
   NOPROFILE
   NORA2
   NORENT
 3 NORLD
     RXREF
     SIZE(MAX)
 3   SYSPARM(VFRD)
 3   TERM(WIDE)
   NOTEST
     THREAD
   NOTRANSLATE
 3 NOUSING
 3   XREF(SHORT)

   No Overriding DD Names

1VFRD     External Symbol Dictionary                                                                                        Page    2
-Symbol   Type   Id     Address  Length     LD ID  Flags Alias-of                            HLASM R4.0  2004/03/22 09.47
0VFRD      SD 00000001 00000000 00000C80             00
 VFRD00    LD          00000000           00000001
 VFIO      LD          00000016           00000001
 VFOPN     LD          0000015A           00000001
 VFCLS     LD          000007DE           00000001
 VFRETFS   LD          00000878           00000001
 SCINIT    ER 00000002
 SCAN      ER 00000003
 BTD       ER 00000004
 CALCTRK   ER 00000005
 CALCRPS   ER 00000006

1VFRD     ORVYL FILE DISK READING SUBROUTINE                                                                                Page    3
0D-Loc  Object Code    Addr1 Addr2  Stmt Lv Lineno    Source Statement                    (Asmedit 3.3)  HLASM R4.0  2004/03/22 09.47
+_____  ______ ____    _____ _____  ____ __ ______    ______ _________
0                                      2       2.     ******************************************************************
                                       3       3.     *                                                                *
                                       4       4.     * ORVYL/370 - RELEASE III - CLASS I - STANFORD PROPRIETARY       *
                                       5       5.     *                                                                *
                                       6       6.     ******************************************************************
-                                      8       8.              HIBAL ,
-                                    990      10.     *  MODIFICATIONS
                                     991      11.     *
1VFRD     ORVYL FILE DISK READING SUBROUTINE                                                                                Page    4
0D-Loc  Object Code    Addr1 Addr2  Stmt Lv Lineno    Source Statement           (Hibal 5, Asmedit 3.3)  HLASM R4.0  2004/03/22 09.47
+_____  ______ ____    _____ _____  ____ __ ______    ______ _________
0000000                00000 00C80   993      13.     VFRD     CSECT ,
                                     997      14.              IDENT 00
                                    1000             +
                                    1001    01-IDENT +         ENTRY VFRD00
                                    1002             +
 000000 14E5C6D9C4F0F06B            1003    01-IDENT +VFRD00   DC    AL1(20),C'VFRD00,22MAR04,09:47'
                                    1004             +*
-                                   1007      16.              COPY  ORVDEFN
                                    1008             =         SYSDEFN  ,
                                    1009             =         GBLB  &PROTECT
                                    1010             =         GBLC  &MODULE
                                    1011      17.     &MODULE  SETC  'VFRD'
-                                   1013      19.              REGS  ,,SR,TR,QR,RR,PR,BR,WAR,RAR,RDBR,IOBREG
1VFRD     (VFRD00) (09:47) (22MAR04) ORVYL FILE DISK READING SUBROUTINE                                                     Page    5
0Loc    Object Code    Addr1 Addr2  Stmt Lv Lineno    Source Statement           (Hibal 5, Asmedit 3.3)  HLASM R4.0  2004/03/22 09.47
+___    ______ ____    _____ _____  ____ __ ______    ______ _________
0                                   1151      21.              PRINT OFF
1VFRD     (VFRD00) (09:47) (22MAR04) ORVYL FILE DISK READING SUBROUTINE                                                     Page    6
0D-Loc  Object Code    Addr1 Addr2  Stmt Lv Lineno    Source Statement           (Hibal 5, Asmedit 3.3)  HLASM R4.0  2004/03/22 09.47
+_____  ______ ____    _____ _____  ____ __ ______    ______ _________
0                                   6404      51.     *
                                    6405      52.     *  DEFINE VFRD OPEN PARAMETER LIST
                                    6406      53.     *
0000000                00000 00028  6408      55.     VFOPRM   RECORD BEGIN              Describe open parameters
 000000                             6416  1   56.     VFOREC     DS    A(0)                Address to plug total blks
 000004                             6417  1   57.     VFOPOW     DS    A(0)                Address of power function
                                    6418  1   57.1    VFO_BCV    EQU   VFOPOW,X'80',1      Access paired BCV
                                    6419  1   58.     VFOOUT     EQU   VFOPOW,X'01',1      Open for input/output
 000008                             6420  1   59.     VFOADR     DS    A(0)                Address of block anchor
 00000C                             6421  1   60.     VFOECB     DS    A(0)                Address of ecb to excp
 000010 00000000                    6422  1   61.     VFOREC2    DC    A(0)                Secondary format total blocks
 000014 C3D6D5E3D9D6D340            6423  1   62.     VFOCNTL    DC    CL8'CONTROL'        Ddname of passed control file
 00001C C4C9E2D240404040            6424  1   63.     VFOPFX     DC    CL8'DISK'           Ddname prefix for disk allocation
 000024 00000000                    6425  1   64.     VFOBKSZ    DC    A(0)                Address of block size field
 000028                00028 00028  6426      65.              END   ,
1VFRD     (VFRD00) (09:47) (22MAR04) ORVYL FILE DISK READING SUBROUTINE                                                     Page    7
0D-Loc  Object Code    Addr1 Addr2  Stmt Lv Lineno    Source Statement           (Hibal 5, Asmedit 3.3)  HLASM R4.0  2004/03/22 09.47
+_____  ______ ____    _____ _____  ____ __ ______    ______ _________
0                                   6437      68.              VFAREA
 000000                00000 02800  6438    01-VFARE +IOINFO   DSECT ,
 000000 00000000                    6439    01-VFARE +IONXT    DC    A(0)                    NEXT BLOCK ON CHAIN
 000004 00000000                    6440    01-VFARE +IOPRV    DC    A(0)                    PREVIOUS BLOCK ON CHAIN
 000008 00000000/00                 6441    01-VFARE +IOECB    DC    A(0)                    ECB TO POST (MAYBE?)
 IOFLGS.IOWRITE    80 ONES
000000D 00                          6453    01-VFARE +IORET    DC    X'00'                   RETURN CODE FROM VFRD
 00000E 00                          6454    01-VFARE +IOSECT   DC    X'00'                   SECTOR NUMBER FOR I/O
 00000F 00                                           +
 000010 00000000                    6455    01-VFARE +         DC    A(0)                Available
                                    6456             +***********************************************************************
                                    6457             +*                                                                     *
                                    6458             +*                    STANDARD SECTION OF THE IOB                      *
                                    6459             +*                                                                     *
                                    6460             +***********************************************************************
-
 000018                             6462    01-VFARE +IOBSTDRD DS    0D
0000018                             6464    01-VFARE +IOBFLAG1 DS    B -       FLAG BYTE
                                    6465    01-VFARE +IOBDATCH EQU   X'80' --- DATA CHAINING USED IN CHANNEL PROGRAM
                                    6466    01-VFARE +IOBCMDCH EQU   X'40' --- COMMAND CHAINING USED IN CHANNEL PROGRAM
                                    6467    01-VFARE +IOBERRTN EQU   X'20' --- ERROR ROUTINE IS IN CONTROL
                                    6468    01-VFARE +IOBRPSTN EQU   X'10' --- DEVICE IS TO BE REPOSITIONED
                                    6469    01-VFARE +IOBCYCCK EQU   X'08' --- CYCLIC REDUNDANCY CHECK NEEDED(TAPE ONLY)
                                    6470    01-VFARE +IOBFCREX EQU   X'08' --- FETCH COMMAND RETRY EXIT (DIRECT ACCESS ONLY)
                                    6471    01-VFARE +IOBIOERR EQU   X'04' --- I/O ERROR HAS OCCURRED
                                    6472    01-VFARE +IOBUNREL EQU   X'02' --- THIS I/O REQUEST IS UNRELATED(NON-SEQUENTIAL)
                                    6473    01-VFARE +IOBRSTRT EQU   X'01' --- RESTART ADDR.IN IOB TO BE USED
 000019                             6474    01-VFARE +IOBFLAG2 DS    B -       FLAG BYTE
                                    6475    01-VFARE +IOBHALT  EQU   X'80' --- HALT I/O HAS BEEN ISSUED BY SVC PURGE ROUTINE
                                    6476    01-VFARE +IOBSENSE EQU   X'40' --- ISSUE SENSE COMMAND AFTER DEVICE END OCCURS
                                    6477    01-VFARE +IOBPURGE EQU   X'20' --- IOB HAS BEEN PURGED *ALLOW I/O TO QUIESCE
                                    6478    01-VFARE +IOBRDHA0 EQU   X'10' --- HOME ADDRESS TO BE READ * NO SEEK NEEDED
                                    6479    01-VFARE +IOBALTTR EQU   X'08' --- NO TEST FOR OUT-OF-EXTENT * AN ALTERNATE TRACK
                                    6480             +*                        IS IN USE
                                    6481    01-VFARE +IOBSKUPD EQU   X'04' --- SEEK ADDRESS IS BEING UPDATED -CYLINDER END
                                    6482             +*                        OR FILE MASK VIOLATION HAS OCCURRED
                                    6483    01-VFARE +IOBSTATO EQU   X'02' --- DEVICE END STATUS HAS BEEN ORED WITH
                                    6484             +*                        CHANNEL END STATUS - GRAPHICS DEVICE
                                    6485    01-VFARE +IOBPNCH  EQU   X'01' --- TURNED ON BY QSAM WHEN ERROR RECOVERY IS TO
                                    6486             +*                        BE PROVIDED FOR THE 2540 CARD PUNCH
 00001A                             6487    01-VFARE +IOBSENS0 DS    B ------- FIRST SENSE BYTE
                                    6488    01-VFARE +IOBS0B0  EQU   X'80' --- BIT 0 (DEVICE DEPENDENT)
                                    6489    01-VFARE +IOBS0B1  EQU   X'40' --- BIT 1 (DEVICE DEPENDENT)
                                    6490    01-VFARE +IOBS0B2  EQU   X'20' --- BIT 2 (DEVICE DEPENDENT)
                                    6491    01-VFARE +IOBS0B3  EQU   X'10' --- BIT 3 (DEVICE DEPENDENT)
                                    6492    01-VFARE +IOBS0B4  EQU   X'08' --- BIT 4 (DEVICE DEPENDENT)
                                    6493    01-VFARE +IOBS0B5  EQU   X'04' --- BIT 5 (DEVICE DEPENDENT)
                                    6494    01-VFARE +IOBS0B6  EQU   X'02' --- BIT 6 (DEVICE DEPENDENT)
                                    6495    01-VFARE +IOBS0B7  EQU   X'01' --- BIT 7 (DEVICE DEPENDENT)
                                    6496    01-VFARE +IOBSNSC9 EQU   X'01' --- CHANNEL 9 SENSED IN CARRIAGE TAPE
 00001B                             6497    01-VFARE +IOBSENS1 DS    B ------- SECOND SENSE BYTE
                                    6498    01-VFARE +IOBS1B0  EQU   X'80' --- BIT 0 (DEVICE DEPENDENT)
1VFRD     (VFRD00) (09:47) (22MAR04) ORVYL FILE DISK READING SUBROUTINE                                                     Page    8
0D-Loc  Object Code    Addr1 Addr2  Stmt Lv Lineno    Source Statement           (Hibal 5, Asmedit 3.3)  HLASM R4.0  2004/03/22 09.47
+_____  ______ ____    _____ _____  ____ __ ______    ______ _________
0                                   6499    01-VFARE +IOBS1B1  EQU   X'40' --- BIT 1 (DEVICE DEPENDENT)
                                    6500    01-VFARE +IOBS1B2  EQU   X'20' --- BIT 2 (DEVICE DEPENDENT)
                                    6501    01-VFARE +IOBS1B3  EQU   X'10' --- BIT 3 (DEVICE DEPENDENT)
                                    6502    01-VFARE +IOBS1B4  EQU   X'08' --- BIT 4 (DEVICE DEPENDENT)
                                    6503    01-VFARE +IOBS1B5  EQU   X'04' --- BIT 5 (DEVICE DEPENDENT)
                                    6504    01-VFARE +IOBS1B6  EQU   X'02' --- BIT 6 (DEVICE DEPENDENT)
                                    6505    01-VFARE +IOBS1B7  EQU   X'01' --- BIT 7 (DEVICE DEPENDENT)
 00001C                             6506    01-VFARE +IOBECBPT DS    0A ------ ADDRESS OF ECB TO BE POSTED ON I/O COMPLETION
 00001C                             6507    01-VFARE +IOBECBCC DS    CL1 ---- COMPLETION CODE FOR THIS I/O REQUEST
 00001D                             6508    01-VFARE +IOBECBPB DS    AL3 ----- ADDRESS OF ECB TO BE POSTED ON I/O COMPLETION
 000020                             6509    01-VFARE +IOBFLAG3 DS    B ------- ERROR ROUTINE FLAG BYTE
 000021                             6510    01-VFARE +IOBCSW   DS    CL7 ----- LOW ORDER 7 BYTES OF CSW AT CHANNEL END
 000028                             6511    01-VFARE +IOBSTART DS    0A ------ ADDRESS OF CHANNEL PROGRAM
 000028                             6512    01-VFARE +IOBSIOCC DS    B ------- BITS 2 AND 3 = C.C. FROM SIO
 000029                             6513    01-VFARE +IOBSTRTB DS    AL3 ----- ADDRESS OF CHANNEL PROGRAM
 00002C                             6514    01-VFARE +IOBDCBPT DS    0A ------ ADDRESS OF DATA CONTROL BLOCK FOR THIS IOB
 00002C                             6515    01-VFARE +IOBRSV36 DS    XL1 ----- RESERVED
 00002D                             6516    01-VFARE +IOBDCBPB DS    AL3 ----- ADDRESS OF DATA CONTROL BLOCK FOR THIS IOB
 000030                             6517    01-VFARE +IOBRESTR DS    0A ------ RESTART ADDRESS FOR ERROR RETRY
 000030                             6518    01-VFARE +IOBREPOS DS    CL1 ----- CODE USED TO REPOSITION DEVICE
 000031                             6519    01-VFARE +IOBRSTRB DS    AL3 ----- RESTART ADDRESS FOR ERROR RETRY
 000034                             6520    01-VFARE +IOBINCAM DS    0H ------ VALUE USED TO INCREMENT BLOCK COUNT ON TAPE
 000034                             6521    01-VFARE +IOBBTAMF DS    B ------- FLAG BYTE FOR BTAM
                                    6522    01-VFARE +IOBPRMER EQU   X'80' --- 'SAD','ENABLE' ISSUED BY OPEN CAUSED I/O ERROR
                                    6523    01-VFARE +IOBINUSE EQU   X'40' --- IOB IS IN USE
                                    6524    01-VFARE +IOBRSV14 EQU   X'20',,C'X' RESERVED
                                    6525    01-VFARE +IOBRSV15 EQU   X'10',,C'X' RESERVED
                                    6526    01-VFARE +IOBRSV16 EQU   X'08',,C'X' RESERVED
                                    6527    01-VFARE +IOBRSV17 EQU   X'04',,C'X' RESERVED
                                    6528    01-VFARE +IOBRFTMG EQU   X'02' --- INDICATES A REQUEST-FOR-TEST MESSAGE FROM A
                                    6529             +*                        REMOTE 3270                             ICB478
                                    6530    01-VFARE +IOBOLTST EQU   X'01' --- LINE IS UNDER ON-LINE TEST OPERATION
 000035                             6531    01-VFARE +IOBRSV19 DS    XL1 ----- RESERVED
0000036                00036 00034  6533    01-VFARE +         ORG   IOBINCAM
 000034                             6534    01-VFARE +IOBCRDCC DS    CL1 ----- OPTICAL READER: DATA CHECK ERROR COUNT
 000035                             6535    01-VFARE +IOBCRILC DS    CL1 ----- OPTICAL READER: INCORRECT LENGTH ERROR COUNT
-000036                             6537    01-VFARE +IOBERRCT DS    H ------- NUMBER OF ERROR RETRIES
-
                                    6539             +***********************************************************************
                                    6540             +*                                                                     *
                                    6541             +*                   EXTENSION SECTIONS OF THE IOB                     *
                                    6542             +*                                                                     *
                                    6543             +***********************************************************************
0000038                             6545    01-VFARE +IOBEXTEN DS    0D
0                                   6547             +*                            ******************************************
                                    6548             +*                            *                                        *
                                    6549             +*                            *  DIRECT ACCESS EXTENSION ** 16 BYTES   *
                                    6550             +*                            *                                        *
                                    6551             +*                            ******************************************
1VFRD     (VFRD00) (09:47) (22MAR04) ORVYL FILE DISK READING SUBROUTINE                                                     Page    9
0D-Loc  Object Code    Addr1 Addr2  Stmt Lv Lineno    Source Statement           (Hibal 5, Asmedit 3.3)  HLASM R4.0  2004/03/22 09.47
+_____  ______ ____    _____ _____  ____ __ ______    ______ _________
0000038                             6553    01-VFARE +IOBSEEK  DS    0CL8 ----
 000038                             6554    01-VFARE +IOBM     DS    CL1 ----- RELATIVE EXTENT NUMBER FOR THIS REQUEST(0-15)
 000039                             6555    01-VFARE +IOBBB    DS    0CL2 ---- BIN NUMBER(DATA CELL)
 000039                             6556    01-VFARE +IOBBB1   DS    CL1
 00003A                             6557    01-VFARE +IOBBB2   DS    CL1
 00003B                             6558    01-VFARE +IOBCC    DS    0CL2 ---- CYLINDER NUMBER
 00003B                             6559    01-VFARE +IOBCC1   DS    CL1
 00003C                             6560    01-VFARE +IOBCC2   DS    CL1
 00003D                             6561    01-VFARE +IOBHH    DS    0CL2 ---- TRACK NUMBER
 00003D                             6562    01-VFARE +IOBHH1   DS    CL1
 00003E                             6563    01-VFARE +IOBHH2   DS    CL1
 00003F                             6564    01-VFARE +IOBR     DS    CL1 ----- RECORD NUMBER
                                    6565    01-VFARE +IOBAREA  EQU   IOBSTDRD,*-IOBSTDRD,C'R'         LENGTH OF IOB
0000040                             6567    01-VFARE +IOCCW    DC    0D'0'
 000040 2300000E40000001            6568    01-VFARE +CCWSECT  CCW   X'23',IOSECT,X'40',1    SET SECTOR
 000048 3100003B40000005            6569    01-VFARE +CCWSRCH  CCW   X'31',IOBCC,X'40',5     SEARCH ID EQUAL
 000050 0800004840000001            6570    01-VFARE +CCWTIC   CCW   X'08',*-8,X'40',1       TIC *-1
 000058 0E000068C0000050            6571    01-VFARE +CCWREAD  CCW   X'0E',IOHDR,X'C0',80    READ HEADER
 000060 0000080000000800            6572    01-VFARE +CCWR2    CCW   X'00',IOIXR,X'00',2048  READ BLOCK
0000068 0000000000000000            6574    01-VFARE +IOHDR    DC    XL80'00'                HEADER AREA
0                                   6576             +*
                                    6577             +*  DEFINE ERROR LIST FORMAT
                                    6578             +*
                                    6579             +*        NOTE: These entries must remain together.
                                    6580             +*
00000B8 00000000                    6582    01-VFARE +BITNO    DC    A(0)                    Bit number of error
                                    6583    01-VFARE +CLASS    EQU   BITNO,1,C'C'            Error class (number)
 0000BC 4040404040404040            6584    01-VFARE +FILENAME DC    CL40' '                 Filename
 0000E4 00000000                    6585    01-VFARE +RELBLK   DC    A(0)                    Relative block number
 0000E8 00000000                    6586    01-VFARE +TYPE     DC    A(0)                    Error location
 0000EC 0000000000000000            6587    01-VFARE +CCHHR    DC    2A(0)                   MBBCCHHR Address
00000F4 00000000                    6589    01-VFARE +NIXRCNT  DC    A(0)                    NUMBER OF RECORDS IN NIXR FILE
 0000F8 00000000                    6590    01-VFARE +SCNDHDR  DC    A(0)                    SECOND IXR BLK FOR SUPER IXRS
 0000FC 0000                        6591    01-VFARE +IXRNDX   DC    H'0'                    Index into SIXR's IXR pointers
 0000FE                             6592    01-VFARE +IOVOL    DS    CL6                     CURRENT VOLUME SERIAL
0                                   6594             +*
                                    6595             +* VFRD WORK AREAS
                                    6596             +*
 000104 00000000                    6597    01-VFARE +RELTRK   DC    A(0)                    RELATIVE TRACK
 000108 00000000                    6598    01-VFARE +XELBLK   DC    A(0)                    RELATIVE BLOCK ON TRACK
 00010C 00000000                    6599    01-VFARE +WORK     DC    A(0)                    WORK-AREA
0000110                00110 007C8  6601    01-VFARE +         ORG   IOINFO+2048-56          NICE DUMP READING ALIGNMENT
 0007C8                             6602    01-VFARE +MYHDR    DC    0D'0'                   SELECTIVE RESTORE INFO
 0007C8 4040404040404040            6603    01-VFARE +MYFILE   DC    CL40' '                 FILENAME
 0007F0 40404040                    6604    01-VFARE +         DC    CL4' '                  FILLER
 0007F4 00000000                    6605    01-VFARE +MYREL    DC    A(0)                    FILE RELATIVE BLOCK
 0007F8 00000000                    6606    01-VFARE +MAINHDR  DC    A(0)                    FIRST 4 BYTES OF HEADER
 0007FC 0000                        6607    01-VFARE +         DC    AL2(0)                  FILLER
 0007FE 0000                        6608    01-VFARE +MAINSZ   DC    AL2(0)                  RECORD SIZE
1VFRD     (VFRD00) (09:47) (22MAR04) ORVYL FILE DISK READING SUBROUTINE                                                     Page   10
0D-Loc  Object Code    Addr1 Addr2  Stmt Lv Lineno    Source Statement           (Hibal 5, Asmedit 3.3)  HLASM R4.0  2004/03/22 09.47
+_____  ______ ____    _____ _____  ____ __ ______    ______ _________
0000800 0000000000000000            6609    01-VFARE +IOIXR    DC    4096X'00'               AREA FOR IXR
                                    6610    01-VFARE +USERINFO EQU   IOIXR+62                *? (CHECK THIS ONE OUT)
 001800 0000000000000000            6611    01-VFARE +SCNDREC  DC    4096X'00'
1VFRD     (VFRD00) (09:47) (22MAR04) ORVYL FILE DISK READING SUBROUTINE                                                     Page   11
0D-Loc  Object Code    Addr1 Addr2  Stmt Lv Lineno    Source Statement           (Hibal 5, Asmedit 3.3)  HLASM R4.0  2004/03/22 09.47
+_____  ______ ____    _____ _____  ____ __ ______    ______ _________
0                                   6614      71.     *
                                    6615      72.     *  REQUEST DEVICE BLOCK
                                    6616      73.     *
 000000                00000 00080  6617      74.     RDBDSECT DSECT ,
 000000                             6618      75.     RDBUNIT  DS    X                       UNIT TYPE
                                    6619      76.
                                    6620      77.     RDB2301  EQU   X'02',,C'N'             2301 PARALLEL DRUM
                                    6621      78.     RDB23051 EQU   X'06',,C'N'             2305 MOD 1 FIXED HEAD STORAGE
                                    6622      79.     RDB23052 EQU   X'07',,C'N'             2305 MOD 2 FIXED HEAD STORAGE
                                    6623      80.     RDB2314  EQU   X'08',,C'N'             2314 D.A. STORAGE FACILITY
                                    6624      81.     RDB3330  EQU   X'09',,C'N'             3330 DISK STORAGE
                                    6625      82.     RDB33301 EQU   X'0D',,C'N'             3330 MOD 11 DISK
                                    6626      83.     RDB3350  EQU   X'0B',,C'N'             3350 DISK STORAGE
                                    6627      84.     RDB3380  EQU   X'0E',,C'N'             3380 DISK
                                    6628      85.
 000001 00                          6629      86.     RDBFL    FLAG  ,                       FLAGS
                                    6633      87.
 RDBFL.RDBFRPS     80 ONES          6634      88.              FLAG  (RDBFRPS,X'80')         DEVICE HAS RPS
 RDBFL.RDBFOFL     40 ONES          6643      89.              FLAG  (RDBFOFL,X'40')         DEVICE HAS OVERFLOW
 RDBFL.RDBFEXVR    08 ONES          6652      90.              FLAG  (RDBFEXVR,X'08')         EXCPVR IS TO BE USED
 RDBFL.RDBFNWR     04 ONES          6661      91.              FLAG  (RDBFNWR,X'04')         WRITES NOT ALLOWED
 RDBFL.RDBFKEY     02 ONES          6670      92.              FLAG  (RDBFKEY,X'02')         FILE HDR IN RECORD KEY
                                    6679      93.
 000002                             6680      94.              DS    H
                                    6682      96.     RDBDCB   DCB   MACRF=(E),DEVD=DA,DDNAME=DUMMY
0                                   6685             +*                       DATA CONTROL BLOCK
                                    6686             +*
 000004                             6687    01-DCB   +RDBDCB   DS    0F'0'          ORIGIN ON WORD BOUNDARY
 000004                00004 00008  6688    01-DCB   +         ORG   *+4            TO ORIGIN GENERATION
                                    6689             +*                       DIRECT ACCESS DEVICE INTERFACE
 000008 0000000000000000            6690    01-DCB   +         DC    BL12'0'        FDAD, DVTBL
 000014 00000000                    6691    01-DCB   +         DC    A(0)           KEYLEN, DEVT, TRBAL
                                    6692             +*                       COMMON ACCESS METHOD INTERFACE
 000018 00                          6693    01-DCB   +         DC    AL1(0)         BUFNO, NUMBER OF BUFFERS
 000019 000001                      6694    01-DCB   +         DC    AL3(1)         BUFCB, BUFFER POOL CONTROL BLOCK
 00001C 0000                        6695    01-DCB   +         DC    AL2(0)         BUFL, BUFFER LENGTH
 00001E 0000                        6696    01-DCB   +         DC    BL2'0000000000000000' DSORG, DATA SET ORGANIZATION
 000020 00000001                    6697    01-DCB   +         DC    A(1)           IOBAD FOR EXCP OR RESERVED
                                    6698             +*                       FOUNDATION EXTENSION
 000024 00                          6699    01-DCB   +         DC    BL1'00000000'  BFTEK, BFALN, DCBE INDICATORS
 000025 000001                      6700    01-DCB   +         DC    AL3(1)         EODAD (END OF DATA ROUTINE ADDRESS)
 000028 00                          6701    01-DCB   +         DC    BL1'00000000'  RECFM (RECORD FORMAT)
 000029 000000                      6702    01-DCB   +         DC    AL3(0)         EXLST (EXIT LIST ADDRESS)
                                    6703             +*                       FOUNDATION BLOCK
 00002C C4E4D4D4E8404040            6704    01-DCB   +         DC    CL8'DUMMY'     DDNAME
 000034 02                          6705    01-DCB   +         DC    BL1'00000010'  OFLGS (OPEN FLAGS)
 000035 00                          6706    01-DCB   +         DC    BL1'00000000'  IFLGS (IOS FLAGS)
 000036 D004                        6707    01-DCB   +         DC    BL2'1101000000000100' MACR (MACRO FORMAT)
 000038                             6710      98.     RDBIOCNT DS    A                       I/O COUNT
 00003C                             6711      99.     RDBIOTIM DS    A                       I/O TIME
                                    6712     100.
 000040                             6713     101.     RDBDDX   DS    0A
                                    6714     102.     RDB      EQU   RDBDSECT,*-RDBDSECT
                                    6715     103.     *
                                    6716     104.     *  FILE SERVICE EXTENSION (CLASS 2)
1VFRD     (VFRD00) (09:47) (22MAR04) ORVYL FILE DISK READING SUBROUTINE                                                     Page   12
0D-Loc  Object Code    Addr1 Addr2  Stmt Lv Lineno    Source Statement           (Hibal 5, Asmedit 3.3)  HLASM R4.0  2004/03/22 09.47
+_____  ______ ____    _____ _____  ____ __ ______    ______ _________
0                                   6717     105.     *
 000040                00040 00040  6718     106.              ORG   RDBDDX
 000040                             6719     107.     RDBLFB   DS    A                       FIRST LOGICAL BLOCK ON DEVICE
 000044                             6720     108.     RDBLNB   DS    A                       NUMBER OF LOGICAL BLOCKS
 000048                             6721     109.     RDBLBT   DS    A                       BLOCKS PER TRACK
 00004C                             6722     110.     RDBLRPS  DS    A                       ADDRESS OF RPS TABLE
 000050                             6723     111.     RDBLDEBE DS    A                       ADDRESS OF DEB EXTENT TABLE
 000054                             6724     112.     RDBLTRC  DS    A                       TRACKS PER CYLINDER
 000058                             6725     113.     RDBLBLK  DS    A                       BLOCK SIZE THIS DEVICE
 00005C                             6726     114.     RDBLHDL  DS    H                       HEADER LENGTH
 00005E                             6727     115.     RDBLVOL  DS    CL6                     VOLUME SERIAL THIS DEVICE
                                    6728     116.
 000064                00064 00080  6729     117.              ORG   RDBDSECT+X'80'          32 RDBLS PER PAGE
 000080                             6730     118.     RDBLNEXT DS    0D
                                    6731     119.     RDBL     EQU   RDBDSECT,*-RDBDSECT
1VFRD     (VFRD00) (09:47) (22MAR04) ORVYL FILE DISK READING SUBROUTINE                                                     Page   13
0D-Loc  Object Code    Addr1 Addr2  Stmt Lv Lineno    Source Statement           (Hibal 5, Asmedit 3.3)  HLASM R4.0  2004/03/22 09.47
+_____  ______ ____    _____ _____  ____ __ ______    ______ _________
0                                   6733     121.              COPY  FBHDR
 000000                00000 00014  6734             =FBHDR    RECORD BEGIN
                                    6742  1          =*
                                    6743  1          =*  ORVYL File Block Header Field
                                    6744  1          =*
 000000                             6745  1          =FBHBLOCK   DS    AL3                     Block number in file system
 000003                             6746  1          =FBHTYPE    DS    AL1                     Block type
                                    6747  1          =
                                    6748  1          =FBHTFSMB   EQU   X'FF'                   File System Master Block
                                    6749  1          =FBHTCAT    EQU   X'80'                   Catalog
                                    6750  1          =FBHTBIT    EQU   X'40'                   Bit Map
                                    6751  1          =FBHTZIXR   EQU   X'10'                   ZIXR
                                    6752  1          =FBHTIXR    EQU   X'08'                   IXR
                                    6753  1          =FBHTSIXR   EQU   X'04'                   SIXR
                                    6754  1          =FBHTMIXR   EQU   X'02'                   MIXR
                                    6755  1          =FBHTUSER   EQU   X'01'                   User data block
                                    6756  1          =FBHTIXRT   EQU   FBHTIXR+FBHTSIXR+FBHTMIXR+FBHTZIXR
                                    6757  1          =FBHTBICA   EQU   FBHTCAT+FBHTBIT
                                    6758  1          =FBHTSYSR   EQU   FBHTIXRT+FBHTBICA
                                    6759  1          =
 000004                             6760  1          =           DS    AL2                     Reserved
 000006                             6761  1          =FBHLEN     DS    AL2                     User data length in block
 000008                             6762  1          =FBHTIME    DS    AL4                     Time (STCK) block written
                                    6763  1          =
                                    6764  1          =FBHDTLEN   EQU   *-FBHDR                 Saved header length (VDMP)
 00000C                             6765  1          =FBHAVAIL   DS    2AL4                    Available
 000014                00014 00014  6766             =         END   ,
1VFRD     (VFRD00) (09:47) (22MAR04) ORVYL FILE DISK READING SUBROUTINE                                                     Page   14
0D-Loc  Object Code    Addr1 Addr2  Stmt Lv Lineno    Source Statement           (Hibal 5, Asmedit 3.3)  HLASM R4.0  2004/03/22 09.47
+_____  ______ ____    _____ _____  ____ __ ______    ______ _________
0000015                00000 00C80  6776     123.     VFRD     CSECT ,
                                    6778     124.     *
                                    6779     125.     *              VFRD DATA SECTION
                                    6780     126.     *
 000937                00937 00C80  6781     127.              DATA  BEGIN
 000937 00                                1
 000938 00000000                    6786  1  128.     RDBCOUNT   DC    F'0'                    NUMBER OF RDB'S
 00093C 0000000000000000            6787  1  129.     DVTWORK    DC    7F'0'                   DEVIVE TYPE AREA
 000958 C4C9E2D240404040            6788  1  130.     XDNAME     DC    CL8'DISK'           DDNAME PREFIX
 000960 C4C9E2D2F0404040            6789  1  131.     YDNAME     DC    CL8'DISK0'          CURRENT DDNAME WITH VOLUME SUFFIX
 000968 C3D6D5E3D9D6D340            6790  1  132.     CNTDDN     DC    CL8'CONTROL'        CONTROL DDNAME TO PROCESS
 000970 00000000                    6791  1  133.     RDFJFCB    DC    A(0)                    ADDRESS OF JFCB, AND FMT1 DSCB
 000974 00000000                    6792  1  134.     NUMRDB     DC    F'0'                    NUMBER OF RDB'S
 000978 00000000                    6793  1  135.     CTFRDBL    DC    F'0'                    FIRST RDB ADDRESS
 00097C 00000000                    6794  1  136.     CTLRDBL    DC    F'0'                    LAST RDB ADDRESS
 000980 00000000                    6795  1  137.     CTFILTOT   DC    F'0'                    TOTAL BLOCKS IN FILE SYSTEM
 000984 00000000                    6796  1  138.     DATALEN    DC    A(0)                    DISK FILE BLOCK SIZE
 000988 00000000                    6797  1  139.     VFBUFS     DC    A(0)                    BUFFER ADDRESSES
 00098C 00000000                    6798  1  140.     VFBLEN     DC    A(0)                     AND LENGTH
 000990 00000000                    6799  1  141.     BKINFO     DC    A(0)                    INIT AREA
 000994 5CE495929596A695            6800  1  141.1    FSNAME     DC    CL8'*Unknown'       Initial file system name
                                    6801  1  142.     *
                                    6802  1  143.     *
 00099C C1/00/00/00                 6803  1  144.     VTOC       CAMLST SEARCH,VTOCNAME,VTOCVOL,*-*
 0009A0 000009AC                    6809  1          +
 0009A4 000009D8                    6810  1          +
 0009A8 00000000                    6811  1          +
 0009AC 4040404040404040            6812  1  145.     VTOCNAME   DC    CL44' '
 0009D8 404040404040                6813  1  146.     VTOCVOL    DC    CL6' '
 000015                00000 00C80  6814     147.              END   ,
1VFRD     (VFRD00) (09:47) (22MAR04) ORVYL FILE DISK READING SUBROUTINE                                                     Page   15
0Loc    Object Code    Addr1 Addr2  Stmt Lv Lineno    Source Statement           (Hibal 5, Asmedit 3.3)  HLASM R4.0  2004/03/22 09.47
+___    ______ ____    _____ _____  ____ __ ______    ______ _________
0                                   6821     149.     ********************************************************************
                                    6822     150.     *                                                                  *
                                    6823     151.     **                   START VFREAD ASSEMBLY                        **
                                    6824     152.     *                                                                  *
                                    6825     153.     ********************************************************************
                                    6826     154.     *
                                    6827     155.     *
                                    6828     156.     *        ORVYL FILE UTILITY READ/WRITE PROGRAM
                                    6829     157.     *
                                    6830     158.     *
                                    6831     159.     *
 000015                00000 00C80  6832     160.     VFRD     CSECT ,
 USING  RDBDSECT,R10                6834     161.              USING RDBDSECT,RDBR           ## RDB ADDR
 USING  IOINFO,R11                  6843     162.              USING IOINFO,IOBREG           ## INPUT/OUTPUT AREA
0000015 00/902E D000         00000  6853     164.     VFIO     VENTER SR,R14,*               VFRD I/O ENTRY POINT
 00001A 188D/41D0 D034       00034  6857             +
 000020 0D70                        6861             +
 USING  *,R7
 000022 18B1                        6873     165.              LR    IOBREG,R1               COPY IOINFO ADDRESS
 000024 9200 B00D      0000D        6874     166.              CLEAR IORET                   PRESET ZERO RETURN CODE
 000028 1F33/BF37 B0B9       000B9  6881     167.              L3    TR,BITNO+1              RETRIEVE RELATIVE BLOCK
 00002E 1233/4740 7130       00152  6889     168.              IF    (TR,M),ERROR1           NO ZERO OR NEGATIVE
 000034 5930 795E            00980  6906     169.              IF    (TR,GE,CTFILTOT),ERROR1 NO OUT OF EXTENT EITHER
 000038 47A0 7130            00152  6920             +
 00003C 58A0 7956            00978  6926     170.              L     RDBR,CTFRDBL            ADDRESS OF RDB LIST
0000040                             6928     172.     GTRLOOP  LABEL ,
 000040 5930 A044            00044  6930     173.              IF    (TR,LT,RDBLNB),GTRCMP   WITHIN CURRENT RDB
 000044 4740 703A            0005C  6944             +
 000048 5B30 A044            00044  6950     174.              S     TR,RDBLNB               DECREMENT LOGICAL BLOCKS
 00004C 41A0 A080            00080  6951     175.              LA    RDBR,L'RDBL(,RDBR)      NEXT RDB PLEASE
 000050 55A0 795A            0097C  6952     176.              CL    RDBR,CTLRDBL            STILL IN FILE RANGE?
 000054 4740 701E            00040  6953     177.              BL    GTRLOOP                 YEP, GO CHEK RELATIVE BLOCK
 000058 47F0 7130            00152  6954     178.              B     ERROR1                  OUT OF BOUNDS ERROR
000005C                             6956     180.     GTRCMP   LABEL ,
 00005C D205 B0FE A05E 000FE 0005E  6958     181.              MVC   IOVOL,RDBLVOL           SET CURRENT VOLUME SERIAL
 000062 5030 B108            00108  6959     182.              ST    TR,XELBLK               SAVE RELATIVE BLOCK
 000066 1BEE                        6960     183.              CLEAR R14                     CLEAR FOR DIVIDE
 000068 58F0 B108            00108  6964     184.              L     R15,XELBLK              RELATIVE BLOCK ON DEVICE
 00006C 5DE0 A048            00048  6965     185.              D     R14,RDBLBT              TRACK AND BLOCK RESIDUAL
 000070 50F0 B104            00104  6966     186.              ST    R15,RELTRK              SAVE RELATIVE TRACK
0                                   6968     188.     *
                                    6969     189.     *  GET RPS VALUE IF NEEDED
                                    6970     190.     *
 000074 4110 B048            00048  6971     191.              LA    R1,CCWSRCH              ASSUME NO RPS
 000078 9180 A001      00001        6972     192.              IF    RDBFRPS,BEGIN          HAVE RPS DEVICE
 00007C 47E0 706E            00090  6982             +
 000080 5810 A04C            0004C  6987  1  193.                L     R1,RDBLRPS              RPS SECTOR TABLE
 000084 4311 E000            00000  6988  1  194.                IC    R1,0(R1,R14)            GET SECTOR NUMBER
 000088 4210 B00E            0000E  6989  1  195.                STC   R1,IOSECT               SAVE SECTOR VALUE
 00008C 4110 B040            00040  6990  1  196.                LA    R1,IOCCW                SET RPS CCW START
 000090                             6991     197.              END   ,
 000090 5010 B028            00028  6995     198.              ST    R1,IOBSTART             SET CCW START IN IOB
1VFRD     (VFRD00) (09:47) (22MAR04) ORVYL FILE DISK READING SUBROUTINE                                                     Page   16
0Current Usings:  (*,R7) (RDBDSECT,R10) (IOINFO,R11)
0Loc    Object Code    Addr1 Addr2  Stmt Lv Lineno    Source Statement           (Hibal 5, Asmedit 3.3)  HLASM R4.0  2004/03/22 09.47
+___    ______ ____    _____ _____  ____ __ ______    ______ _________
0                                   6997     200.     *
                                    6998     201.     *  CALCULATE SEEK ADDRESS
                                    6999     202.     *
 000094 5810 A050            00050  7000     203.              L     R1,RDBLDEBE             ADDRESS OF DEB EXTENT TABLE
 USING  DEBDDEP,R1                  7001     204.              USING DEBDDEP,R1              ##
 000098 1F00/4300 A050       00050  7010     205.              LC    R0,RDBLDEBE             NUMBER OF EXTENTS
 00009E 1B44                        7015     206.              CLEAR R4                      CLEAR EXTENT NUMBER
 0000A0                             7019     207.     SEEKLOOP LABEL ,
 0000A0 1F22/BF23 100E       00052  7021     207.1             L2    SR,DEBNMTRK         Load tracks in current extent
 0000A6 15F2                        7029     208.              CLR   R15,SR              In this extent?
 0000A8 4740 70A8            000CA  7030     209.              BL    SETSEEK             Set seek if so
 0000AC 1FF2                        7031     210.              SLR   R15,SR              Decrement by num of tracks
 0000AE 4110 1010            00010  7032     211.              LA    R1,DEBDSZDA(,R1)        TO NEXT EXTENT ENTRY
 0000B2 4140 4001            00001  7033     212.              LA    R4,@R4+1                BUMP EXTENT NUMBER
 0000B6 4600 707E            000A0  7034     213.              BCT   R0,SEEKLOOP             KEEP LOOKING
 0000BA 4110 0001            00001  7035     214.              ABEND 1,DUMP                  I'M SO CONFUSED
 0000BE 4100 0080            00080  7040             +
 0000C2 8900 0018/1610       00018  7041             +
 0000C8 0A0D                        7043             +
 0000CA                             7044     215.     SETSEEK  LABEL ,
 0000CA D205 B039 1004 00039 00048  7046     216.              MVC   IOBSEEK+1(6),DEBBINUM   SET EXTEND STARTING BBCCHH
 0000D0 4240 B038            00038  7047     217.              STC   R4,IOBSEEK              SET EXTENT NUMBER
 DROP   DEBDDEP,R1                  7048     218.              DROP  R1                      ## FREE DEB ADDR
 0000D4 1B00                        7055     219.              CLEAR R0                      CLEAR FOR DIVIDE
 0000D6 181F                        7059     220.              LR    R1,R15                  LOGICAL TRACK WITHIN EXTENT
 0000D8 5D00 A054            00054  7060     221.              D     R0,RDBLTRC              DIVIDE BY TRACKS/CYLINDER
 0000DC 41E0 E001            00001  7061     222.              LA    R14,@R14+1              NO RECORD ZERO
 0000E0 42E0 B03F            0003F  7062     223.              STC   R14,IOBSEEK+7           SET RECORD NUMBER
 0000E4 D201 B10C B03D 0010C 0003D  7063     224.              MVC   WORK(2),IOBSEEK+5       ALIGNMENT
 0000EA 4A00 B10C            0010C  7064     225.              AH    R0,WORK                 ADD TO RESIDUL TRACK
 0000EE 4900 A056            00056  7065     226.              CH    R0,RDBLTRC+2            INTO NEXT CYLINDER?
 0000F2 4740 70DC            000FE  7066     227.              IF    NL,BEGIN               WE HAVE OVERFLOW
 0000F6 4B00 A056            00056  7077  1  228.                SH    R0,RDBLTRC+2            BACK OFF OVERFLOW AMOUNT
 0000FA 4110 1001            00001  7078  1  229.                LA    R1,@R1+1                BUMP CYLINDER NUMBER
 0000FE                             7079     230.              END   ,
 0000FE 4000B03D                    7083     231.              ST2   R0,IOBSEEK+5            SET TRACK SEEK ADDRESS
 000102 D201 B10C B03B 0010C 0003B  7085     232.              MVC   WORK(2),IOBSEEK+3       ALIGNMENT
 000108 4A10 B10C            0010C  7086     233.              AH    R1,WORK                 CYLINDER ADDRESS
 00010C 4010B03B                    7087     234.              ST2   R1,IOBSEEK+3            SET BACK IN MBBCCHHR
0                                   7090     236.     *
                                    7091     237.     *  ISSUE READ/WRITE EXCP NOW
                                    7092     238.     *
 000110 9206 B058      00058        7093     239.              MVI CCWREAD,X'06'                   SET READEY DATA
 000114 9180 B00C      0000C        7094     240.              IF    IOWRITE,'MVI CCWREAD,X"05"'   SET WRITE
 000118 47E0 70FE            00120  7104             +
 00011C 9205 B058      00058        7110             +
 000120 9102 A001      00001        7115     241.              IF    RDBFKEY,'OI CCWREAD,X"08"'    SET KEY I/O
 000124 47E0 710A            0012C  7125             +
 000128 9608 B058      00058        7131             +
 00012C 4110 A004            00004  7136     242.              LA    R1,RDBDCB               ADDRESS OF DCB
 000130 5010 B02C            0002C  7137     243.              ST    R1,IOBDCBPT             STASH IN IOB
 000134 4810 A05C            0005C  7138     244.              LH    R1,RDBLHDL              GET LENGTH OF HEADER
 000138 4010 B05E            0005E  7139     245.              STH   R1,CCWREAD+6            PLUG HDR LENGTH IN READ
1VFRD     (VFRD00) (09:47) (22MAR04) ORVYL FILE DISK READING SUBROUTINE                                                     Page   17
0Current Usings:  (*,R7) (RDBDSECT,R10) (IOINFO,R11)
0Loc    Object Code    Addr1 Addr2  Stmt Lv Lineno    Source Statement           (Hibal 5, Asmedit 3.3)  HLASM R4.0  2004/03/22 09.47
+___    ______ ____    _____ _____  ____ __ ______    ______ _________
000013C 4110 B018/0A00       00018  7140     246.              EXCP  IOBSTDRD                ISSUE I/O REQUEST
                                    7144     247.     *
                                    7145     248.     *  RETURN
                                    7146     249.     *
 000142 1FFF/43F0 B00D       0000D  7147     250.     EXIT     LC    R15,IORET               SET I/O RETURN CODE
 000148 18D8/982E D000       00000  7154     251.              VEXIT SR,R14,LTR
 00014E 12FF/07F9                   7158             +
0000152                             7161     253.     ERROR1   LABEL ,                  BLOCK NUMBER OUT OF RANGE
 000152 9201 B00D      0000D        7163     254.              MVI   IORET,1                 SET RETURN CODE
 000156 47F0 7120            00142  7164     255.              B     EXIT
1VFRD     (VFRD00) (09:47) (22MAR04) ORVYL FILE DISK READING SUBROUTINE                                                     Page   18
0Current Usings:  (*,R7) (RDBDSECT,R10) (IOINFO,R11)
0Loc    Object Code    Addr1 Addr2  Stmt Lv Lineno    Source Statement           (Hibal 5, Asmedit 3.3)  HLASM R4.0  2004/03/22 09.47
+___    ______ ____    _____ _____  ____ __ ______    ______ _________
0                                   7166     257.
                                    7167     258.
                                    7168     259.       Open file system for Input/Output
                                    7169     260.
                                    7170     261.

-00015A 900E D000/188D       00000  7172     263.     VFOPN    VENTER R0,R14,*           File system open
 000160 41D0 D03C/0D70       0003C  7177             +
 000166 18B1                        7195     264.              LR    IOBREG,R1           Copy open parameter list
 DROP   *,R7
 USING  *,R7
 DROP   IOINFO,R11                  7196     265.              USING VFOPRM,IOBREG       ## addr open parameter list
 USING  VFOPRM,R11
0                                   7209     267.
                                    7210     268.           Check for new style parameter list and process accordingly
                                    7211     269.
0000168 5810 B000/1211       00000  7213     271.              IF    ('LT R1,VFOREC',M),BEGIN
 00016E 47B0 7018            0017E  7224             +
 000172 D207 7802 B014 00968 00014  7229  1  272.                MVC   CNTDDN,VFOCNTL          MOVE CONTROL FILE DDNAME
 000178 D207 77F2 B01C 00958 0001C  7230  1  273.                MVC   XDNAME,VFOPFX           SET DD PREFIX FOR FILE VOLUMES
 00017E 701C           0017E 00170  7231     274.              END   ELSE,BEGIN
 00017E 47F0 7028            0018E  7240             +
 000182 D207 7802 7762 00968 008C8  7246  1  275.                MVC   CNTDDN,=CL8'CONTROL'    DEFAULT CONTROL DDANME
 000188 D207 77F2 776A 00958 008D0  7247  1  276.                MVC   XDNAME,=CL8'DSK'        DEFAULT DISK PREFIX NAME
 00018E                             7248     277.              END   ,
 00018E 4110 7802            00968  7252     278.              LA    R1,CNTDDN           CONTROL FILE PRESENT
 000192 5890 777A/0D99       008E0  7253     279.              ACALL FINDDD                CHECK FOR "CONTROL" DD
 000198 4770 703A            001A0  7257     280.              IF    Z,'LCALL ALLO'          YEP - ALLOCATE FILES
 00019C 4D90 71F6            0035C  7270             +
                                    7275     281.     *
                                    7276     282.     *  FIND OUT HOW MANY FILE VOLUMES WE HAVE
                                    7277     283.     *
00001A0 4110 77F2            00958  7279     285.              LA    R1,XDNAME           SET ADDRESS OF DDNAME PREFIX
 0001A4 4100 0008            00008  7280     286.              LA    R0,8                  SET MAXIMUM DDNAME LENGTH
 0001A8 4D90 772E            00894  7281     287.              LCALL RTRIM                   COMPUTE PREFIX NAME LENGTH
 0001AC 4D90 73CA            00530  7283     288.              LCALL DDCOUNT             GO COUNT FILE VOLUMES
 0001B0 5000 780E            00974  7285     289.              ST    R0,NUMRDB           SAVE NUMBER OF RDB'S
 0001B4 4C00 77BA            00920  7286     290.              MH    R0,=Y(L'RDBL)       CORE REQUIRED
 0001B8 1820                        7287     291.              LR    SR,R0               SAVE LENGTH
 0001BA 4510 7058/0A0A       001BE  7288     292.              GETMAIN R,LV=(0)          REQUEST CORE
 0001C0 5010 7812            00978  7292     293.              ST    R1,CTFRDBL          SAVE FIRST ADDRESS
 0001C4 18E1                        7293     294.              LR    R14,R1                  SAVE FIRST ADDRESS
 0001C6 18F2                        7294     295.              LR    R15,SR                  SET LENGTH FOR CLEAR
 0001C8 1A1F                        7295     296.              AR    R1,R15                  LAST RDB ADDRESS
 0001CA 5010 7816            0097C  7296     297.              ST    R1,CTLRDBL              SAVE ENDING ADDRESS
 0001CE 1B11                        7297     298.              CLEAR R1
 0001D0 0EE0                        7301     299.              MVCL  R14,R0                  ZERO CORE
00001D2 4100 00C0            000C0  7303     301.              GETMAIN R,LV=192              CORE FOR JFCB, AND DSCB1
1VFRD     (VFRD00) (09:47) (22MAR04) ORVYL FILE DISK READING SUBROUTINE                                                     Page   19
0Current Usings:  (*,R7) (RDBDSECT,R10) (VFOPRM,R11)
0Loc    Object Code    Addr1 Addr2  Stmt Lv Lineno    Source Statement           (Hibal 5, Asmedit 3.3)  HLASM R4.0  2004/03/22 09.47
+___    ______ ____    _____ _____  ____ __ ______    ______ _________
00001D6 4510 7074/0A0A       001DA  7306             +
 0001DC 5010 780A            00970  7308     302.              ST    R1,RDFJFCB              SAVE ADDRESS
 0001E0 9287 780A      00970        7309     303.              MVI   RDFJFCB,X'87'           SET DCB EXIT LIST FLAGS
 0001E4 58A0 7812            00978  7310     304.              L     RDBR,CTFRDBL            ADDRESS OF FIRST RDB
 0001E8                             7311     305.              CLEAR RDBCOUNT                CLEAR COUNT OF RDB'S
 0001E8 D703 77D2 77D2 00938 00938  7317             +
 0001EE 1B66                        7318     306.              CLEAR PR                      ZERO BLOCK COUNTER
 0001F0 47F0 709A            00200  7322     307.              B     FILDO
 0001F4 4D90 740E            00574  7323     308.     FILOOP   LCALL INITFILE                DO THIS FILE
 0001F8 4770 7668            007CE  7325     309.              IF    NZ,ERROR9               CANT OPEN FILE
 0001FC 41A0 A080            00080  7339     310.              LA    RDBR,RDBL+L'RDBL        DUMP TO NEXT RDB
 000200 55A0 7816            0097C  7340     311.     FILDO    CL    RDBR,CTLRDBL            DONE?
 000204 4740 708E            001F4  7341     312.              BL    FILOOP                  CONTINUE IF NOT
                                    7342     313.
 000208 1266/4780 7668       007CE  7343     314.              IF    (PR,Z),ERROR9           WHOOPS, NO BLOCKS
 00020E 5060 781A            00980  7360     315.              ST    PR,CTFILTOT             SAVE FILE TOTAL
 000212 5810 B000            00000  7361     316.              L     R1,VFOREC               ADDRESS TO TOTAL BLOCKS
 000216 1211/47B0 70CE       00234  7362     317.              IF    (R1,M),BEGIN
 00021C 5910 777E            008E4  7376  1  318.                IF    (R1,EQ,-2),BEGIN
 000220 4770 70CA            00230  7387  1          +
 000224 5810 B024            00024  7392  2  319.                  L     R1,VFOBKSZ              Caller Blocksize pointer
 000228 5800 781E            00984  7393  2  320.                  L     R0,DATALEN              Block size
 00022C 5000 1000            00000  7394  2  321.                  ST    R0,@R1                  Return it
 000230                             7395  1  322.                END   ,
 000230 5810 B010            00010  7399  1  323.                L     R1,VFOREC2              SET SECONDAY ADDRESS
 000234                             7400     324.              END   ,
 000234 5060 1000            00000  7404     325.              ST    PR,@R1                  SAVE IN CALLER'S AREA
 000238 5810 780A            00970  7405     326.              L     R1,RDFJFCB              GET WORK BLOCK ADDR
 00023C 4100 00C0            000C0  7406     327.              FREEMAIN R,LV=192,A=(1)       FREE UP
 000240 4110 1000/0A0A       00000  7409             +
1VFRD     (VFRD00) (09:47) (22MAR04) ORVYL FILE DISK READING SUBROUTINE                                                     Page   20
0Current Usings:  (*,R7) (RDBDSECT,R10) (VFOPRM,R11)
0Loc    Object Code    Addr1 Addr2  Stmt Lv Lineno    Source Statement           (Hibal 5, Asmedit 3.3)  HLASM R4.0  2004/03/22 09.47
+___    ______ ____    _____ _____  ____ __ ______    ______ _________
0                                   7412     329.     *
                                    7413     330.     *  INIT IOB AREAS
                                    7414     331.     *
0000246 5820 B004            00004  7416     333.              L     SR,VFOPOW           ADDRESS OF POWER VALUE
 00024A 5820 2000            00000  7417     334.              L     SR,@SR                RETRIEVE POWER VALUE
 00024E 1842                        7418     335.              LR    QR,SR                   SAVE POWER VALUE
 000250 4C20 77BC            00922  7419     336.              MH    SR,=Y(8*1024)             8K PER AREA
 000254 4510 70FC            00262  7420     337.              GETMAIN EC,LV=(SR),A=VFBUFS,BNDRY=PAGE
 000258 00000000                    7424             +
 00025C 00000988/30/00              7425             +
 000262 5020 1000/0A04       00000  7428             +
 000268 12FF/4770 7670       007D6  7430     338.              IF    (R15,NZ),ERROR8     INSUFFICIENT MEMORY ERROR
 00026E 5800 7822            00988  7447     339.              L     R0,VFBUFS           ADDRESS OF CORE
 000272 1812                        7448     340.              LR    R1,SR                 + LENGTH
 000274 1BFF                        7449     341.              CLEAR R15                     ZERO PAD AND FROM LENGTH
 000276 0E0E                        7453     342.              MVCL  R0,R14                    ZERO GOTTEN CORE
0000278 5810 B008            00008  7455     344.              L     R1,VFOADR               ADDRESS FOR CHAIN BASE
 00027C 5820 7822            00988  7456     345.              L     SR,VFBUFS               ADDRESS OF IOB AREA'S
 000280 1244/47D0 7198       002FE  7457     346.              WHILE (QR,P),BEGIN            INITIALIZE ALL AREA'S
 000286 5020 1000            00000  7473  1  347.                ST    SR,@R1                  SET PREVIOUS CHAIN ADDRESS
 USING  IOINFO,R2                   7474  1  348.                USING IOINFO,SR               ## ADDR PLEASE
 00028A 96C2 2018      00018        7483  1  349.                SET   IOBFLAG1.IOBDATCH+IOBCMDCH+IOBUNREL
 00028E 5810 B00C            0000C  7496  1  350.                L     R1,VFOECB               ADDRESS OF ECB TO POST
 000292 5010 201C            0001C  7497  1  351.                ST    R1,IOBECBPT             SAVE IN IOB
 000296 4110 200E            0000E  7498  1  352.                LA    R1,IOSECT               SECTOR ADDRESS
 00029A BF18 77CE            00934  7499  1  353.                ICM   R1,8,=X'23'             SET SECTORE COMMAND CODE
 00029E 5010 2040            00040  7500  1  354.                ST    R1,CCWSECT              PART 1
 0002A2 D203 2044 7782 00044 008E8  7501  1  355.                MVC   CCWSECT+4(4),=AL1(X'40',0,0,1)
 0002A8 4110 203B            0003B  7502  1  356.                LA    R1,IOBCC                SEEK ADDRESS ADDRESS
 0002AC BF18 77CF            00935  7503  1  357.                ICM   R1,8,=X'31'             SEARCH ID EQUAL COMMAND CODE
 0002B0 5010 2048            00048  7504  1  358.                ST    R1,CCWSRCH              PART 1
 0002B4 D203 204C 7786 0004C 008EC  7505  1  359.                MVC   CCWSRCH+4(4),=AL1(X'40',0,0,5)
 0002BA 4110 2048            00048  7506  1  360.                LA    R1,CCWSRCH              TIC BACK ADDRESS
 0002BE BF18 77D0            00936  7507  1  361.                ICM   R1,8,=X'08'             TIC COMMAND CODE
 0002C2 5010 2050            00050  7508  1  362.                ST    R1,CCWTIC               PART 1
 0002C6 D203 2054 7782 00054 008E8  7509  1  363.                MVC   CCWTIC+4(4),=AL1(X'40',0,0,1)
 0002CC 4110 2068            00068  7510  1  364.                LA    R1,IOHDR                HEADER ADDRESS
 0002D0 5010 2058            00058  7511  1  365.                ST    R1,CCWREAD              COMMAND CODE SET LATER
 0002D4 92C0 205C      0005C        7512  1  366.                MVI   CCWREAD+4,X'C0'         CMD+DAT LENGTH SET LATER
 0002D8 4110 2800            00800  7513  1  367.                LA    R1,IOIXR                IXR READ ADDRESS
 0002DC 5010 2060            00060  7514  1  368.                ST    R1,CCWR2                REMAINDER SET LATER
 0002E0 5810 781E            00984  7515  1  369.                L     R1,DATALEN              BLOCK LENGTH
 0002E4 4010 2066            00066  7516  1  370.                STH   R1,CCWR2+6              SAVE LENGTH PLEASE
00002E8 1812                        7518  1  372.                LR    R1,SR                   COPY ADDRESS
 0002EA 5E10 778A            008F0  7519  1  373.                AL    R1,=A(SCNDREC-IOINFO)   PLUS OFFSET
 0002EE 5010 20F8            000F8  7520  1  374.                ST    R1,SCNDHDR              SAVE ADDRESS
 0002F2 1812                        7521  1  375.                LR    R1,SR                   SAVE ADDRESS
 0002F4 5E20 778E            008F4  7522  1  376.                AL    SR,=A(8*1024)           NEXT ONE PLEASE
 0002F8 0640                        7523  1  377.                DECR  QR                      DECREMENT NUMBER
 0002FA 47F0 711A            00280  7525     378.              END   ,
 0002FE 5820 7822            00988  7530     379.              L     SR,VFBUFS
1VFRD     (VFRD00) (09:47) (22MAR04) ORVYL FILE DISK READING SUBROUTINE                                                     Page   21
0Current Usings:  (IOINFO,R2) (*,R7) (RDBDSECT,R10) (VFOPRM,R11)
0Loc    Object Code    Addr1 Addr2  Stmt Lv Lineno    Source Statement           (Hibal 5, Asmedit 3.3)  HLASM R4.0  2004/03/22 09.47
+___    ______ ____    _____ _____  ____ __ ______    ______ _________
0000302 5020 1000            00000  7531     380.              ST    SR,@R1                  COMPLETE CHAIN
 000306 1BFF                        7532     381.              CLEAR R15                     ZERO RETURN CODE
 000308 18D8/980E D000       00000  7536     382.     VFOXIT   VEXIT R0,R14,LTR              RETURN TO CALLER
 00030E 12FF/07F9                   7540             +
                                    7542     383.     *
                                    7543     384.     **  LOCATE SPECIFIED DDNAME IN TIOT
                                    7544     385.     **       R1 -> EIGHT CHARACTER RIGHT PADDED DDNAME
                                    7545     386.     **       R1 -> ON RETURN IS ADDRESS OF TIOT ENTRY
                                    7546     387.     **       R15 -> ON RETURN 0, DDNAME FOUND
                                    7547     388.     **                        4, DDNAME NOT FOUND
                                    7548     389.     *
 000312                             7549     390.     FINDDD   LABEL  ,
 000312 5820 0010            00010  7551     391.              L     SR,16               ADDRESS OF CVT
 DROP   IOINFO,R2                   7552     392.              USING CVTMAP,SR           ## ADDR TO CVT
 USING  CVTMAP,R2
 000316 5820 2000            00000  7564     393.              L     SR,CVTTCBP          ADDRESS OF TCB DOUBLE WORDS
 DROP   CVTMAP,R2                   7565     394.              DROP  SR                  ## RLSE ADDR TO CVT
 00031A 5820 2004            00004  7572     395.              L     SR,@SR+4            CURRENT TCB ADDRESS, OURS NAMELY
 USING  TCB,R2                      7573     396.              USING TCB,SR              ## ADDR TO TCB
 00031E 5820 200C            0002C  7582     397.              L     SR,TCBTIO           TIOT ADDRESS FROM TCB
 DROP   TCB,R2                      7583     398.              USING TIOT1,SR            ## ADDR TO TIOT
 USING  TIOT1,R2
 000322 4120 2018            00018  7595     399.              LA    SR,TIOENTRY         START OF DDNAME ENTRIES
 DROP   TIOT1,R2                    7596     400.              USING TIOENTRY,SR         ## ADDR TO TIOT ENTRIES
 USING  TIOENTRY,R2
 000326 1F33/4330 2000       00018  7608     401.              LC    TR,TIOELNGH         LENGTH OF CURRENT ENTRY OR ZERO
 00032C 1233/4780 71E4       0034A  7615     402.              WHILE (TR,NZ),BEGIN       LOOP THROUGH NON-ZERO ENTRIES
 000332                             7631  1  403.                IF    (TIOEDDNM,EQ,@R1),EXIT  EXIT LOOP IF DDNAME FOUND
 000332 D507 2004 1000 0001C 00000  7642  1          +
 000338 4780 71E4            0034A  7645  1          +
 00033C 4123 2000            00018  7651  1  404.                LA    SR,TIOELNGH(TR)     NEXT POSSIBLE DDNAME ENTRY
 000340 1F33/4330 2000       00018  7652  1  405.                LC    TR,TIOELNGH         LENGTH OF NEXT ENTRY
 000346 47F0 71C6            0032C  7659     406.              END   ,
 00034A 41F0 0004            00004  7664     407.              LA    R15,4               SET NOT FOUND RETURN CODE
 00034E 1233/4780 71F2       00358  7665     408.              IF    (TR,NZ),BEGIN       FOUND DDNAME SET RETURN REGS
 000354 1812                        7679  1  409.                LR    R1,SR               ADDRESS OF TIOT ENTRY
 000356 1BFF                        7680  1  410.                CLEAR R15                 ZERO RETURN CODE
 DROP   TIOENTRY,R2                 7684  1  411.                DROP  SR,TR               ## RELEASE ADDRESSABILITY
 000358                             7694     412.              END   ,
 000358 12FF                        7698     413.              LTR   R15,R15             SET CONDITION CODE PLEASE
 00035A 07F9                        7699     414.              BR    RAR                 RETURN TO CALLER
1VFRD     (VFRD00) (09:47) (22MAR04) ORVYL FILE DISK READING SUBROUTINE                                                     Page   22
0Current Usings:  (*,R7) (RDBDSECT,R10) (VFOPRM,R11)
0Loc    Object Code    Addr1 Addr2  Stmt Lv Lineno    Source Statement           (Hibal 5, Asmedit 3.3)  HLASM R4.0  2004/03/22 09.47
+___    ______ ____    _____ _____  ____ __ ______    ______ _________
0                                   7701     416.     ********************************************************************
                                    7702     417.     *                                                                  *
                                    7703     418.     *  DYNAMIC ALLOCATION INTERFACE ROUTINE FOR "DISKn" FILES          *
                                    7704     419.     *                                                                  *
                                    7705     420.     ********************************************************************
 0009DE                00937 00C80  7706     421.              DATA  BEGIN
 0009DE 0000                              1
 0009E0 00000000                    7711  1  422.     SCNTR      DC    A(0)                Ddname counter
 0009E4                             7712  1  423.                DC    0A(0)               Force alignment
 0009E4 800009E8                    7713  1  424.     SDYNBLK    DC    X'80',AL3(SDYNPRM)  Pointer to svc 99 request block
 0009E8 14                          7714  1  425.     SDYNPRM    DC    AL1(20)             Svc 99 parameter list
 0009E9 01                          7715  1  426.                DC    AL1(S99VRBAL)       Define allocation request
 0009EA 20                          7716  1  427.                DC    AL1(S99NOMNT)       Don't mount volumes
 0009EB 00                          7717  1  428.                DC    AL1(0)              Reserved flags
 0009EC 00000000                    7718  1  429.                DC    AL2(0),AL2(0)       Error and reason codes
 0009F0 000009FC                    7719  1  430.                DC    A(SFILPTRS)         Pointer to text pointers
 0009F4 00000000                    7720  1  431.                DC    A(0)                Reserved
 0009F8 00000000                    7721  1  432.                DC    A(0)                System flag information
                                    7722  1  433.     *
                                    7723  1  434.     ** Define direct access class text unit pointers
                                    7724  1  435.     *
 0009FC 00000A10                    7725  1  436.     SFILPTRS   DC    A(SFILDD)           Pointer to ddname text unit
 000A00 00000A1E                    7726  1  437.                DC    A(SFILDSN)            +4       dsn text unit
 000A04 00000A57                    7727  1  437.1               DC    A(SFILFREE)           +8       dsn text unit
 000A08 80000A50                    7728  1  438.                DC    X'80',AL3(SFILDISP)   +12      disp=shr text unit
 000A0C 80000A5B                    7729  1  438.1               DC    X'80',AL3(SFILVOL)    +16
0                                   7731  1  440.     *
                                    7732  1  441.     ** Define direct access class text Unit's
                                    7733  1  442.     *
 000A10 000100010008C4C9            7734  1  443.     SFILDD     DC    AL2(DALDDNAM,1,8),CL8'DISK'   ddname
 000A1E 00020001002C4040            7735  1  444.     SFILDSN    DC    AL2(DALDSNAM,1,44),CL44' '    data set name
 000A50 00040001000108              7736  1  445.     SFILDISP   DC    AL2(DALSTATS,1,1),X'08'       disp=shr
 000A57 001C0000                    7737  1  445.01   SFILFREE   DC    AL2(DALCLOSE,0)
 000A5B 001000010006E5D6            7738  1  445.1    SFILVOL    DC    AL2(DALVLSER,1,6),CL6'VOLSER' vol=ser=XXXXXX
0000A68 44/00/00/00                 7740  1  446.1    LOCCAM     CAMLST NAME,SFILDSN+6,,CATWRKA
 000A6C 00000A24                    7746  1          +
 000A70 00000000                    7747  1          +
 000A74 00000A78                    7748  1          +
 000A78                             7749  1  446.2               DC    0D'0'
 000A78 0000000000000000            7750  1  446.3    CATWRKA    DC    265XL1'00'          LOCATE WORK AREA
0000B81 00                          7752  1  447.     SFLG       FLAG  ,
 SFLG.SDOALLO      80 ONES          7756  1  448.                FLAG  SDOALLO             ALLOCATE NOW
0                                   7762  1  450.                PRINT NOGEN
 000B84 0000000000000000            7764  1  451.     CDCB       DCB   DDNAME=CONTROL,MACRF=GM,RECFM=FB,EODAD=CEOD,DSORG=PS
                                    7806  1  452.                PRINT GEN
 000BE4 4040404040404040            7808  1  453.     CBUF       DC    CL80' '
 000C34                             7809  1  454.                SCANCB ,
 000C54                             7822  1  455.     CKWR       SCKW  FILE,CFILE,(A,P)
 000C54 8B00049EC6C9D3C5            7823  1          +
 000C5C 890004F6D6D5                7824  1  455.1               SCKW  ON,CONVOL,(A,P)
1VFRD     (VFRD00) (09:47) (22MAR04) ORVYL FILE DISK READING SUBROUTINE                                                     Page   23
0Current Usings:  (*,R7) (RDBDSECT,R10) (VFOPRM,R11)
0Loc    Object Code    Addr1 Addr2  Stmt Lv Lineno    Source Statement           (Hibal 5, Asmedit 3.3)  HLASM R4.0  2004/03/22 09.47
+___    ______ ____    _____ _____  ____ __ ______    ______ _________
0000C62                             7826  1  455.2               SCKW  NAME,CFSNAME,(A,P)
 000C62 8B000514D5C1D4C5            7827  1          +
 000C6A FF000000                    7828  1  456.                SCKW  ,
 00035C                00000 00C80  7830     457.              END   ,
1VFRD     (VFRD00) (09:47) (22MAR04) ORVYL FILE DISK READING SUBROUTINE                                                     Page   24
0Current Usings:  (*,R7) (RDBDSECT,R10) (VFOPRM,R11)
0Loc    Object Code    Addr1 Addr2  Stmt Lv Lineno    Source Statement           (Hibal 5, Asmedit 3.3)  HLASM R4.0  2004/03/22 09.47
+___    ______ ____    _____ _____  ____ __ ______    ______ _________
0                                   7837     459.     *
                                    7838     460.     *  PROCESS CONTROL FILE FOR APPLICABLE FILE DDCARDS
                                    7839     461.     *
000035C                             7841     463.     ALLO     LABEL ,                   Dynamic allocation routine
 00035C 9029 D000            00000  7843     464.              VPUSH SR,RAR,*            Enter and save calling registers
 000360 41D0 D020            00020  7845             +
 000364 4120 7A1E            00B84  7846     465.              LA    SR,CDCB
 USING  IHADCB,R2                   7847     466.              WITH  (IHADCB,SR),BEGIN
 000368 D207 2028 7802 00028 00968  7861  1  467.                MVC   DCBDDNAM,CNTDDN     SET PROPER DDNAME FOR CONTROL
 00036E 0700/4510 7212       00378  7862  1  468.                OPEN  (CDCB,(INPUT))      Open control file
 000374 80/000B84/0A13              7865  1          +
 00037A 9110 2030      00030        7868  1  469.                IF    ~DCBOFLGS.DCBOFOPN,BEGIN
 00037E 4710 7222            00388  7879  1          +
 000382 4110 04D3/0A0D       004D3  7884  2  470.                  ABEND 1235
 000388                             7890  1  471.                END   ,
 DROP   IHADCB,R2                   7894     472.              END   ,
 000388                             7902     473.              LOOP  BEGIN               Process all "file" entries
 000388 4110 7A1E            00B84  7908  1  474.                GET   CDCB,CBUF           Read record from control file
 00038C 4100 7A7E/1FFF       00BE4  7911  1          +
 000392 BFF7 1031/05EF       00031  7913  1          +
 000398 947F 7A1B      00B81        7915  1  475.                CLEAR SDOALLO             Clear allocation flag
 00039C D205 78FB 77BE 00A61 00924  7922  1  475.1               MVC   SFILVOL+6(6),=CL6' '    Indicate no volume
 0003A2 4110 7A7E            00BE4  7923  1  476.                SCINIT CBUF,L'CBUF,SCNCB  Initialize scanner buffer
 0003A6 4100 0050            00050  7937  1          +
 0003AA 41F0 7ACE            00C34  7944  1          +
 0003AE 58E0 7792/0DEE       008F8  7947  1          +
 0003B4 4110 7AEE            00C54  7949  1  477.                SCAN  CKWR,(R15)          Scan for "FILE" entries
 0003B8 58E0 7796/0DEE       008FC  7963  1          +
 0003BE 9180 7A1B      00B81        7965  1  478.                IF    SDOALLO,BEGIN       Found a good entry?
 0003C2 47E0 72D2            00438  7975  1          +
 0003C6 4110 78B0            00A16  7980  2  479.                  LA    R1,SFILDD+6         Set address for DDNAME
 0003CA 4D90 71AC            00312  7981  2  480.                  LCALL FINDDD              Is there one already allocated
 0003CE 4780 72D2            00438  7983  2  481.                  IF    NZ,BEGIN            Nope - Dynamically grab it
                                          3
                                    7994  3  481.01                    Check if in BCV mode and if so switch volumes
                                          3
 0003D2 9180 B004      00004        7995  3  481.02                  IF    VFO_BCV,BEGIN       Processing in BCV mode, switch vols
 0003D6 47E0 729E            00404  8005  3          +
 0003DA D505 78FB 77BE 00A61 00924  8010  4  481.03                    CLC   SFILVOL+6(6),=CL6' '    Insure that <ON volser>
 0003E0 4770 729E            00404  8011  4  481.04                    IF    NE,EXIT                 has not been specified
 0003E4 4110 7902/0A1A       00A68  8025  4  481.05                    LOCATE LOCCAM                 FIND CATALOGED VOLUME
 0003EA 12FF/4780 7290       003F6  8029  4  481.06                    IF    (R15,NZ),BEGIN          Problems if we can't find it
 0003F0 4110 0142/0A0D       00142  8043  5  481.07                      ABEND 322                     Abort for now
 0003F6                             8049  4  481.08                    END   ,
                                          4
                                    8053  4  481.09                      Catalog locate has been successful, swap volumes
                                          4
 0003F6 D205 78FB 7918 00A61 00A7E  8054  4  481.1                     MVC   SFILVOL+6(6),CATWRKA+6  MOVE IN BCV VOLUME
 0003FC 92C2 78FB      00A61        8055  4  481.11                    MVI   SFILVOL+6,C'B'          MODIFY VOLUME TO B*****
 000400 947F 78A2      00A08        8056  4  481.98                    NI    SFILPTRS+12,X'7F'   Enable VOL=SER= text unit
 000404                             8057  3  481.99                  END   ,
 000404 4110 787E            009E4  8061  3  482.                    LA    R1,SDYNBLK          Address of SVC99 request block
 000408 0A63                        8062  3  483.                    DYNALLOC ,                Issue dynamic allocation request
1VFRD     (VFRD00) (09:47) (22MAR04) ORVYL FILE DISK READING SUBROUTINE                                                     Page   25
0Current Usings:  (*,R7) (RDBDSECT,R10) (VFOPRM,R11)
0Loc    Object Code    Addr1 Addr2  Stmt Lv Lineno    Source Statement           (Hibal 5, Asmedit 3.3)  HLASM R4.0  2004/03/22 09.47
+___    ______ ____    _____ _____  ____ __ ______    ______ _________
000040A 12FF/4780 72D2       00438  8065  3  484.                    IF    (R15,NZ),BEGIN      Check return code from DYNALLOC
 000410 0ADE                        8079  4  485.                      QSNAP SDYNPRM,20          Dump SVC99 request block
 000412 081400007882                8082  4          +
 000418 0ADE                        8083  4  486.                      QSNAP SFILDD,14           Dump current DDNAME
 00041A 080E000078AA                8086  4          +
 000420 0ADE                        8087  4  487.                      QSNAP SFILDSN,50          Dump current data set name
 000422 0832000078B8                8090  4          +
 000428 4110 04D2            004D2  8091  4  488.                      ABEND 1234,DUMP           Abend task
 00042C 4100 0080            00080  8096  4          +
 000430 8900 0018/1610       00018  8097  4          +
 000436 0A0D                        8099  4          +
 000438                             8100  3  489.                    END   ,
 000438                             8104  2  490.                  END   ,
 000438                             8108  1  491.                END   ,
 000438 47F0 7222            00388  8112     492.              END   ,
000043C                             8118     494.     CEOD     LABEL ,                   Control file EOD entry
 00043C 4510 72DE/80         00444  8120     495.              CLOSE CDCB                Close control file
 000441 000B84/0A14                 8124             +
 000446 4110 7A1E            00B84  8126     496.              FREEPOOL CDCB             RELEASE BUFFER POOL
 00044A 9101 1017      00017        8129             +
 00044E 4710 732E/1FFF       00494  8130             +
 000454 BFF7 1015            00015  8132             +
 000458 58E0 F000/12EE       00000  8133             +
 00045E 4770 7304            0046A  8135             +
 000462 9130 F004      00004        8136             +
 000466 4770 732E            00494  8137             +
 00046A 9601 1017/1BEE 00017        8138             +
 000470 1B11/BF13 F006       00006  8140             +
 000476 43E0 F005/1C0E       00005  8142             +
 00047C 4110 1008            00008  8144             +
 000480 9140 F004      00004        8145             +
 000484 47E0 7326            0048C  8146             +
 000488 4110 1008/1801       00008  8147             +
 00048E 4110 F000/0A0A       00000  8149             +
 000494 4BD0 77C4            0092A  8152     497.              VPOP  SR,RAR,*            Restore calling registers
 000498 9829 D000            00000  8154             +
 00049C 07F9                        8155     498.              BR    RAR                 Return to calling module
1VFRD     (VFRD00) (09:47) (22MAR04) ORVYL FILE DISK READING SUBROUTINE                                                     Page   26
0Current Usings:  (*,R7) (RDBDSECT,R10) (VFOPRM,R11)
0Loc    Object Code    Addr1 Addr2  Stmt Lv Lineno    Source Statement           (Hibal 5, Asmedit 3.3)  HLASM R4.0  2004/03/22 09.47
+___    ______ ____    _____ _____  ____ __ ______    ______ _________
0                                   8157     500.     *
                                    8158     501.     *  SCANNER EXIT ROUTINES FOR DYNAMIC ALLOCATION REQUEST
                                    8159     502.     *
000049E                             8161     504.     CFILE    LABEL ,                   Process "FILE" parameter
 00049E 90EF D000            00000  8163     505.              VPUSH R14,R15,*           Save scanner return registers
 0004A2 41D0 D008            00008  8165             +
 0004A6 9240 78BE      00A24        8166     506.              MVI   SFILDSN+6,C' '      Blank fill data set name
 0004AA D22A 78BF 78BE 00A25 00A24  8167     507.              MVC   SFILDSN+7(43),SFILDSN+6       Propogate blanks
 0004B0 1820                        8168     508.              LR    SR,R0               Copy filename length
 0004B2 0620/4420 7B08       00C6E  8169     509.              DEX   SR,'MVC SFILDSN+6(0),@R1'     Move in data set name
 000C6E D200 78BE 1000 00A24 00000  8180             +
 0004B8 D207 78B0 77F2 00A16 00958  8188     510.              MVC   SFILDD+6(8),XDNAME  Set ddname prefix
 0004BE 4110 78B0            00A16  8189     511.              LA    R1,SFILDD+6         Point to prefix
 0004C2 4100 0008            00008  8190     512.              LA    R0,8                  set maximum length
 0004C6 4D90 772E            00894  8191     513.              LCALL RTRIM                   comput prefix name length
 0004CA 1E10                        8193     514.              ALR   R1,R0                     point to end of prefix
 0004CC 58F0 787A/1B00       009E0  8194     515.              BTD   (R1),0,L:SCNTR              Set ddname in list
 0004D2 58E0 779A/0DEE       00900  8210             +
 0004D8 4100 0001            00001  8212     516.              INCR  R0,SCNTR                Bump counter for next file
 0004DC 5E00 787A            009E0  8216             +
 0004E0 5000 787A            009E0  8217             +
 0004E4 9680 7A1B      00B81        8218     517.              SET   SDOALLO                 Set allocation flag
 0004E8 9680 78A2      00A08        8224     517.1             OI    SFILPTRS+12,X'80'       Assume no volume specified
 0004EC 4BD0 77C6            0092C  8225     518.              VPOP  R14,R15,*               Restore scanner registers
 0004F0 98EF D000            00000  8227             +
 0004F4 07FE                        8228     519.              SCRTN (R15)                   And return to scanner
 0004F6                             8234     519.01   CONVOL   LABEL ,                       Process on volume
 0004F6 47D0 739C            00502  8236     519.02            IF    (NP,OR,(R0,NE,6)),BEGIN
 0004FA 5900 779E            00904  8257             +
 0004FE 4780 73A2            00508  8258             +
 000502 4110 036A/0A0D       0036A  8263  1  519.03              ABEND 874                 LAZY
 000508                             8269     519.04            END   ,
 000508 D205 78FB 1000 00A61 00000  8273     519.05            MVC   SFILVOL+6(6),@R1    Move in requested volser
 00050E 947F 78A2      00A08        8274     519.06            NI    SFILPTRS+12,X'7F'   Enable vol=ser text unit
 000512 07FE                        8275     519.07            SCRTN (R15)               Return to the scanner
0000514                             8282     519.09   CFSNAME  LABEL ,
 000514 47D0 73C8            0052E  8284     519.1             IF    (P,AND,(R0,LE,8)),BEGIN SAVE FILE SYSTEM NAME
 000518 5900 77A2            00908  8305             +
 00051C 4730 73C8            0052E  8306             +
 000520 1820                        8311  1  519.11              LR    R2,R0               MOVE LENGTH OF SYSTEM NAME
 000522 D207 782E 7772 00994 008D8  8312  1  519.96              MVC   FSNAME,=CL8' '      BLANK FILL FILE SYSTEM NAME
 000528 0620/4420 7B0E       00C74  8313  1  519.97              DEX   R2,'MVC FSNAME(0),@R1'  MOVE IN FILE SYSTEM NAME
 000C74 D200 782E 1000 00994 00000  8324  1          +
 00052E                             8332     519.98            END   ,
 00052E 07FE                        8336     519.99            SCRTN (R15)               RETURN TO SCANNER
1VFRD     (VFRD00) (09:47) (22MAR04) ORVYL FILE DISK READING SUBROUTINE                                                     Page   27
0Current Usings:  (*,R7) (RDBDSECT,R10) (VFOPRM,R11)
0Loc    Object Code    Addr1 Addr2  Stmt Lv Lineno    Source Statement           (Hibal 5, Asmedit 3.3)  HLASM R4.0  2004/03/22 09.47
+___    ______ ____    _____ _____  ____ __ ______    ______ _________
0                                   8343     521.     *
                                    8344     522.     *  TIOT DDNAME COUNTER
                                    8345     523.     *
 000530                             8346     524.     DDCOUNT  LABEL ,
 000530 5830 0010            00010  8348     525.              L     TR,16                   CVT ADDRESS
 000534 5830 3000            00000  8349     526.              L     TR,@TR                  ADDRESS OF TCB DBLWRDS
 000538 5830 3004            00004  8350     527.              L     TR,@TR+4                CURRENT TCB ADDRESS
 USING  TCB,R3                      8351     528.              USING TCB,TR                  ##
 00053C 5830 300C            0002C  8360     529.              L     TR,TCBTIO               TIOT
 DROP   TCB,R3                      8361     530.              USING TIOT,TR                 ##
 USING  TIOT,R3
 000540 18F0                        8373     531.              LR    R15,R0                  GET DDNAME STEM LENGTH
 000542 06F0                        8374     532.              BCTR  R15,0
 000544 4130 3018            00018  8375     533.              LA    TR,TIOENTRY             FIRST DD ENTRY
 DROP   TIOT,R3                     8376     534.              USING TIOENTRY,TR             ##
 USING  TIOENTRY,R3
 000548 1B00                        8388     535.              CLEAR R0                      CLEAR COUNTER
 00054A 1B22                        8392     536.              CLEAR SR                       AND LENGTH (FOR LATER)
 00054C 44F0 7B14            00C7A  8396     537.     DDLOOP   EX    R15,'CLC  TIOEDDNM(0),@R1'   WANT THIS ONE?
 000C7A D500 3004 1000 0001C 00000  8404             +
 000550 4770 73FC            00562  8412     538.              BNE   DDNEXT                  NO
 000554 D502 3011 77A6 00029 0090C  8413     539.              CLC   TIOEFSRT,=A(0)          DD DUMMY?
 00055A 4780 73FC            00562  8414     540.              BE    DDNEXT                  IGNORE IF SO
 00055E 5A00 77AA            00910  8415     541.              A     R0,=A(1)                COUNT
 000562 4320 3000            00018  8416     542.     DDNEXT   IC    SR,TIOELNGH             ENTRY LENGTH
 000566 1E32                        8417     543.              ALR   TR,SR                   TO NEXT
 000568 D503 3000 77A6 00018 0090C  8418     544.              CLC   TIOENTRY(4),=A(0)       END?
 00056E 0789                        8419     545.              BER   RAR                     RETURN IF SO
 000570 47F0 73E6            0054C  8420     546.              B     DDLOOP                  CONTINUE ON IF MORE
                                    8421     547.
-
 DROP   TIOENTRY,R3                 8423     549.              DROP  TR                      ##
1VFRD     (VFRD00) (09:47) (22MAR04) ORVYL FILE DISK READING SUBROUTINE                                                     Page   28
0Current Usings:  (*,R7) (RDBDSECT,R10) (VFOPRM,R11)
0Loc    Object Code    Addr1 Addr2  Stmt Lv Lineno    Source Statement           (Hibal 5, Asmedit 3.3)  HLASM R4.0  2004/03/22 09.47
+___    ______ ____    _____ _____  ____ __ ______    ______ _________
0                                   8431     551.     *
                                    8432     552.     *  DETERMINE FILE CHARACTERISTICS
                                    8433     553.     *
 000574                             8434     554.     INITFILE LABEL ,
 000574 5090 D000            00000  8436     555.              VPUSH RAR,,*                  SAVE RETURN
 000578 41D0 D004            00004  8438             +
 00057C 58F0 77D2            00938  8439     556.              L     R15,RDBCOUNT            CURRENT COUNT
 000580 41E0 F001            00001  8440     557.              LA    R14,@R15+1               UPDATE
 000584 50E0 77D2            00938  8441     558.              ST    R14,RDBCOUNT              AND PUT BACK
 000588 D207 77FA 77F2 00960 00958  8442     559.              MVC   YDNAME,XDNAME       RESET DDNAME PREFIX
 00058E 4110 77FA            00960  8443     560.              LA    R1,YDNAME           ADDRESS OF DDNAME PREFIX
 000592 4100 0008            00008  8444     561.              LA    R0,8                  SET MAXIMUM LENGTH
 000596 5890 77AE/0D99       00914  8445     562.              ACALL RTRIM                   COMPUT DDNAME PREFIX LENGTH
 00059C 1E10                        8449     563.              ALR   R1,R0                     POINT TO NEXT AVAILABLE BYTE
 00059E 1B00/58E0 779A       00900  8450     564.              BTD   (R1),0,(15)         CONCATENATE FILE NUMBER TO DDNAME
 0005A4 0DEE                        8467             +
 0005A6 4110 77FA            00960  8468     565.              LA    R1,YDNAME           RESET ADDRESS OF DDNAME
 0005AA 4D90 763C            007A2  8469     566.              LCALL BUILDDCB            BUILD RDB
 0005AE 4110 77FA            00960  8471     567.              DEVTYPE YDNAME,DVTWORK,DEVTAB,RPS
 0005B2 4100 77D6/1311       0093C  8474             +
 0005B8 1300/0A18                   8476             +
 0005BC 12FF/4770 7634       0079A  8478     568.              IF    (R15,NZ),INITERR        BRANCH IF NOT
                                    8495     569.     *
 0005C2 4110 77D6            0093C  8496     570.              LA    R1,DVTWORK              SET R1 TO DEVICE TABLE
 USING  DVTAREA,R1                  8497     571.              USING DVTAREA,R1              ##
 0005C6 59F0 1000            00000  8506     572.              C     R15,DVTDEVCD            DUMMY?
 0005CA 4780 7634            0079A  8507     573.              BE    INITERR                 SOUND THE ALARM
 0005CE 9520 1002      00002        8508     574.              CLI   DVTDEVCD+2,X'20'        DIRECT ACCESS DEVICE?
 0005D2 4770 7634            0079A  8509     575.              BNE   INITERR                 SKIP IF NOT
 0005D6 D200 A000 1003 00000 00003  8510     576.              MVC   RDBUNIT,DVTDEVCD+3      DEVICE CODE
 0005DC 9110 1001      00001        8511     577.              TM    DVTDEVCD+1,DVTFRPS      RPS DEVICE?
 0005E0 47E0 7482            005E8  8512     578.              IF    O,'SET RDBFRPS'         SET RPS
 0005E4 9680 A001      00001        8529             +
 0005E8 4800 100A            0000A  8534     579.              LH    R0,DVTNUMT              TRKS/CYL
 0005EC 5000 A054            00054  8535     580.              ST    R0,RDBLTRC              SAVE TRACKS PER CYLINDER
 DROP   DVTAREA,R1                  8536     581.              DROP  R1                      ##
                                    8543     582.
 0005F0 4120 A004            00004  8544     583.              LA    SR,RDBDCB
 USING  IHADCB,R2                   8545     584.              USING IHADCB,SR               ##
 0005F4 4110 780A            00970  8554     585.              LA    R1,RDFJFCB              EXIT LIST ADDRESS
 0005F8 BE17 2025            00025  8555     586.              ST3   R1,DCBEXLSA             TO DCB
 0005FC 4510 749E            00604  8557     587.              RDJFCB  ((SR))
 000600 00000000                    8561             +
 000604 5021 0000            00000  8562             +
 000608 9280 1000/0A40 00000        8563             +
 00060E                             8565     588.              CLEAR (DCBEXLSA)              CLEAR DCB EXIT LIST
 00060E D702 2025 2025 00025 00025  8571             +
 DROP   IHADCB,R2                   8572     589.              DROP  SR                      ##
 000614 121F                        8579     590.              LTR   R1,R15                  OK?
 000616 4770 7634            0079A  8580     591.              BNZ   INITERR                 ERROR IF NOT
 00061A 5820 780A            00970  8581     592.              L     SR,RDFJFCB              AREA
 USING  INFMJFCB,R2                 8582     593.              USING INFMJFCB,SR             ##
 00061E D205 7872 2076 009D8 00076  8591     594.              MVC   VTOCVOL,JFCBVOLS        VOLUME
 000624 D22B 7846 2000 009AC 00000  8592     595.              MVC   VTOCNAME,JFCBDSNM       DSNAME
1VFRD     (VFRD00) (09:47) (22MAR04) ORVYL FILE DISK READING SUBROUTINE                                                     Page   29
0Current Usings:  (INFMJFCB,R2) (*,R7) (RDBDSECT,R10) (VFOPRM,R11)
0Loc    Object Code    Addr1 Addr2  Stmt Lv Lineno    Source Statement           (Hibal 5, Asmedit 3.3)  HLASM R4.0  2004/03/22 09.47
+___    ______ ____    _____ _____  ____ __ ______    ______ _________
000062A D205 A05E 2076 0005E 00076  8593     596.              MVC   RDBLVOL,JFCBVOLS        SET VOLUME IN RDB
 000630 5020 7842            009A8  8594     597.              ST    SR,VTOC+12              WORKAREA
 000634 4110 7836/0A1B       0099C  8595     598.              OBTAIN VTOC                   GET THE VTOC
 00063A 12FF/4770 7634       0079A  8599     599.              IF    (R15,NZ),INITERR        QUIT IF NOT SUCCESSFUL
 DROP   INFMJFCB,R2                 8616     600.              USING DS1FMTID,SR             ##
 USING  DS1FMTID,R2
 000640 4810 202A            00056  8628     601.              LH    R1,DS1BLKL              GET BLOCKSIZE
 000644 1F00/4300 202E       0005A  8629     602.              LC    R0,DS1KEYL               and Key length
 00064A 1200/4780 74F0       00656  8634     603.              IF    (R0,NZ),BEGIN
 000650 9602 A001      00001        8648  1  604.                SET   RDBFKEY                 Note KEYED
 000654 1A10                        8654  1  605.                AR    R1,R0                   Total length
 000656                             8655     606.              END   ,
 000656 74F4           00656 0064E  8659     607.              ELSE  'LA  R0,L"FBHDR'        Header length
 000656 47F0 74F8            0065E  8664             +
 00065A 4100 0014            00014  8671             +
 00065E 5010 A058            00058  8676     608.              ST    R1,RDBLBLK              SAVE TOTAL LENGTH
 000662 4900 77C8            0092E  8677     609.              CH    R0,=Y(80)               IS HEADER TOO LONG
 000666 4720 7634            0079A  8678     610.              BH    INITERR                   YES
 00066A 4000 A05C            0005C  8679     611.              STH   R0,RDBLHDL              SAVE HEADER LENGTH
 00066E 1B10                        8680     612.              SR    R1,R0                   Actual Block Size
 000670                             8681     613.              IF    (DATALEN,Z),'ST  R1,DATALEN'
 000670 D603 781E 781E 00984 00984  8691             +
 000676 4770 7518            0067E  8692             +
 00067A 5010 781E            00984  8698             +
 00067E 751C           0067E 00678  8703     614.              ELSE  BEGIN
 00067E 47F0 7524            0068A  8708             +
 000682 5910 781E            00984  8714  1  615.                IF    (R1,NE,DATALEN),INITERR
 000686 4770 7634            0079A  8728  1          +
 00068A                             8734     616.              END   ,
                                    8738     617.     *
                                    8739     618.     *  OPEN FILE
                                    8740     619.     *
 00068A 41F0 A004            00004  8741     620.              LA    R15,RDBDCB
 00068E 9101 B004      00004        8742     621.              IF    VFOOUT,BEGIN        OPEN DISK FILE
 000692 47E0 7544            006AA  8752             +
 000696 0700/4510 753A       006A0  8757  1  622.                OPEN  ((15),(OUTPUT))
 00069C 00000000                    8760  1          +
 0006A0 50F1 0000            00000  8761  1          +
 0006A4 928F 1000/0A13 00000        8762  1          +
 0006AA                             8764     623.              END
 0006AA 7548           006AA 00694  8768     624.              ELSE BEGIN
 0006AA 47F0 755C            006C2  8773             +
 0006AE 0700/4510 7552       006B8  8779  1  625.                OPEN  ((15),(INPUT))
 0006B4 00000000                    8782  1          +
 0006B8 50F1 0000            00000  8783  1          +
 0006BC 9280 1000/0A13 00000        8784  1          +
 0006C2                             8786     626.              END  ,
 0006C2 9110 A034      00034        8790     627.              TM    RDBDCB+(DCBOFLGS-IHADCB),DCBOFOPN  OPEN?
 0006C6 4780 7634            0079A  8791     628.              BZ    INITERR                 BR IF NOT
 0006CA 4800 202A            00056  8792     629.              LH    R0,DS1BLKL              GET BLOCKSIZE
 0006CE 9102 A001      00001        8793     630.              IF    RDBFKEY,'ICM  R0,4,DS1KEYL'   ADD KEY LENGTH
 0006D2 47E0 7574            006DA  8803             +
 0006D6 BF04 202E            0005A  8809             +
 0006DA 5000 782A            00990  8814     631.              ST    R0,BKINFO               SAVE
1VFRD     (VFRD00) (09:47) (22MAR04) ORVYL FILE DISK READING SUBROUTINE                                                     Page   30
0Current Usings:  (DS1FMTID,R2) (*,R7) (RDBDSECT,R10) (VFOPRM,R11)
0Loc    Object Code    Addr1 Addr2  Stmt Lv Lineno    Source Statement           (Hibal 5, Asmedit 3.3)  HLASM R4.0  2004/03/22 09.47
+___    ______ ____    _____ _____  ____ __ ______    ______ _________
00006DE 4110 77D6            0093C  8815     632.              LA    R1,DVTWORK              SET R1 TO DEVICE TABLE
 0006E2 5890 77B2/0D99       00918  8816     633.              VCALL CALCTRK                GET # OF RECORDS/TRACK
 0006E8 5010 A048            00048  8820     634.              ST    R1,RDBLBT               SAVE BLOCKS/TRACK
                                    8821     635.     *
                                    8822     636.     *  COMPUTE NUMBER OF TRACKS
                                    8823     637.     *
 0006EC 5820 A030            00030  8824     638.              L     SR,RDBDCB+(DCBDEBAD-IHADCB)  DEB ADDR
 DROP   DS1FMTID,R2                 8825     639.              USING DEBBASIC,SR             ##
 USING  DEBBASIC,R2
 0006F0 1F33/4330 2010       00034  8837     640.              LC    TR,DEBNMEXT             NO. OF EXTENTS
 0006F6 4120 2020            00044  8844     641.              LA    SR,DEBDDEP              DEVICE DEPENDENT SECTION
 0006FA 5020 A050            00050  8845     642.              ST    SR,RDBLDEBE             SAVE EXTENT POINTER
 0006FE 4230 A050            00050  8846     643.              STC   TR,RDBLDEBE             AND NUMBER OF EXTENTS
 DROP   DEBBASIC,R2                 8847     644.              USING DEBDDEP,SR              ##
 USING  DEBDDEP,R2
 000702 1B55                        8859     645.              CLEAR RR                      Initialize to zero tracks
 000704                             8863     646.     CNTTRK   LABEL ,                       Loop for each DSN extent
 000704 1F00/BF03 200E       00052  8865     646.11            L2    R0,DEBNMTRK             Load tracks in this extent
 00070A 1E50                        8871     646.12            ALR   RR,R0                   Tally this extent's track
 DROP   DEBDDEP,R2                  8872     647.              DROP  SR                      ##
 00070C 4120 2010            00010  8879     648.              LA    SR,@SR+DEBDSZDA         SIZE OF EXTENT AREA
 000710 4630 759E            00704  8880     649.              BCT   TR,CNTTRK               NEXT EXTENT
 000714 5C40 A048            00048  8881     650.              M     QR,RDBLBT               CALCULATE AND SAVE
                                    8882     651.
 000718 5050 A044            00044  8883     652.              ST    RR,RDBLNB               SAVE NUMBER OF BLOCKS
 00071C 5060 A040            00040  8884     653.              ST    PR,RDBLFB               AND FIRST BLOCK
 000720 1A65                        8885     654.              AR    PR,RR                   UPDATE COUNT
                                    8886     655.     *
                                    8887     656.     *  SET-UP RPS TABLE
                                    8888     657.     *
 000722 5810 7812            00978  8889     658.              L     R1,CTFRDBL              LOOK FOR DUPLICATES
 000726 151A                        8890     659.     FILTLOOP CLR   R1,RDBR                 ARE WE DONE YET?
 000728 47B0 75EE            00754  8891     660.              BNL   FILTNEW                 BR IF SO
 00072C D500 A000 1000 00000 00000  8892     661.              CLC   RDBUNIT,@R1+RDBUNIT-RDBL
 000732 4770 75E6            0074C  8893     662.              BNE   FILTNEXT                TRY NEXT IF DIFFERENT DEVICE
 000736 D503 A058 1058 00058 00058  8894     663.              CLC   RDBLBLK,@R1+RDBLBLK-RDBL   SAME BLOCKSIZE?
 00073C 4770 75E6            0074C  8895     664.              BNE   FILTNEXT                TRY NEXT IF DIFFERENT
 000740 5800 104C            0004C  8896     665.              L     R0,@R1+RDBLRPS-RDBL     GET RPS TABLE
 000744 5000 A04C            0004C  8897     666.              ST    R0,RDBLRPS              AND COPY
 000748 47F0 7626            0078C  8898     667.              B     NEXTFIL                 NEW TEA PARTY
                                    8899     668.
 00074C 4110 1080            00080  8900     669.     FILTNEXT LA    R1,@R1+L'RDBL           OINT TO NEXT
 000750 47F0 75C0            00726  8901     670.              B     FILTLOOP                CONTINUE
                                    8902     671.     *
                                    8903     672.     *  NEW DEVICE TYPE - BUILD RPS TABLE
                                    8904     673.     *
 000754                             8905     674.     FILTNEW  LABEL ,
 000754 5800 A048            00048  8907     675.              L     R0,RDBLBT               GET BLOCKS PER UNIT
 000758 1840                        8908     676.              LR    QR,R0                   SAVE FOR LOOP
 00075A 4510 75F8/0A0A       0075E  8909     677.              GETMAIN R,LV=(0)              GET CORE SUBPOOL 0
 000760 5010 A04C            0004C  8913     678.              ST    R1,RDBLRPS              TABLE POINTER
                                    8914     679.
 000764 1831                        8915     680.     RPSTAB   LR    TR,R1                   SAVE RPS TABLE ADDRESS
 000766 4110 77D6            0093C  8916     681.              LA    R1,DVTWORK              TO CALL
1VFRD     (VFRD00) (09:47) (22MAR04) ORVYL FILE DISK READING SUBROUTINE                                                     Page   31
0Current Usings:  (*,R7) (RDBDSECT,R10) (VFOPRM,R11)
0Loc    Object Code    Addr1 Addr2  Stmt Lv Lineno    Source Statement           (Hibal 5, Asmedit 3.3)  HLASM R4.0  2004/03/22 09.47
+___    ______ ____    _____ _____  ____ __ ______    ______ _________
000076A 1BEE                        8917     682.              CLEAR R14                     CALCRPS
 00076C 1B22                        8921     683.              CLEAR SR
 00076E 47F0 7610            00776  8925     684.              B     *+8                     FIRST TIME THROUGH
 000772 4120 2001            00001  8926     685.     RPSLOOP  LA    SR,@SR+1                INCREMENT OUTPUT POINTER
 000776 41F0 2001            00001  8927     686.              LA    R15,@SR+1               AND BLOCK NUMBER
 00077A 5800 782A            00990  8928     687.              L     R0,BKINFO               GET KEY AND BLOCK SIZE
 00077E 5890 77B6/0D99       0091C  8929     688.              VCALL CALCRPS
 000784 42F2 3000            00000  8933     689.              STC   R15,@TR(SR)             SAVE RPS VALUE
 000788 4640 760C            00772  8934     690.              BCT   QR,RPSLOOP              DO WHOLE SERIES
                                    8935     691.
 00078C 1BFF                        8936     692.     NEXTFIL  CLEAR R15                     CLEAR RETURN
 00078E 4BD0 77CA            00930  8941     693.     INITRET  VPOP  RAR,,*                  POP UP RETURN REG
 000792 5890 D000            00000  8943             +
 000796 12FF                        8944     694.              LTR   R15,R15                 SET CONDITION CODE
 000798 07F9                        8945     695.              BR    RAR                     RETURN
 00079A 41F0 0004            00004  8946     696.     INITERR  LA    R15,4                   BAD RETURN
 00079E 47F0 7628            0078E  8947     697.              B     INITRET
-                                   8949     699.     *
                                    8950     700.     *  BUILD DCB
                                    8951     701.     *
 0007A2                             8952     702.     BUILDDCB LABEL ,
 0007A2 4110 A004            00004  8954     703.              LA    R1,RDBDCB               DCB POINTER
 USING  IHADCB,R1                   8955     704.              USING IHADCB,R1               ##
 0007A6 4100 0001            00001  8964     705.              LA    R0,1
 0007AA 5000 1014            00014  8965     706.              ST    R0,DCBBUFCB             SET BUFFER CONTROL
 0007AE 5000 101C            0001C  8966     707.              ST    R0,DCBIOBAD              IOB
 0007B2 5000 1020            00020  8967     708.              ST    R0,DCBEODAD               AND END OF DATA
 0007B6 9220 101A      0001A        8968     709.              MVI   DCBDSORG,DCBDSGDA       SET DIRECT ORGANIZATION
 0007BA 9202 1030      00030        8969     710.              MVI   DCBOFLGS,DCBOFUEX       PRESET USER EXIT FLAG
 0007BE 92D0 1032      00032        8970     711.              MVI   DCBMACR1,DCBMRECP+DCBMRFE+DCBMRCI
 0007C2 9204 1033      00033        8971     712.              MVI   DCBMACR2,DCBMR4WD       SET MACRO REFERENCE
 0007C6 D207 1028 77FA 00028 00960  8972     713.              MVC   DCBDDNAM,YDNAME         SET DDNAME
 0007CC 07F9                        8973     714.              BR    RAR
-
 DROP   IHADCB,R1                   8975     716.              DROP  R1                      ##
 0007CE                             8982     717.     ERROR9   LABEL ,                  OPEN ERROR, VARIOUS CAUSES
 0007CE 41F0 000C            0000C  8984     718.              LA    R15,12                  OPEN ERROR
 0007D2 47F0 71A2            00308  8985     719.              B     VFOXIT
00007D6                             8987     721.     ERROR8   LABEL ,                       INSUFFICIENT MEMORY
 0007D6 41F0 0008            00008  8989     722.              LA    R15,8                   SET RETURN CODE
 0007DA 47F0 71A2            00308  8990     723.              B     VFOXIT                  AND RETURN TO CALLER
-DROP   VFOPRM,R11                  8992     725.              DROP  IOBREG                  ## RLSE OPEN PARAMETER LIST
1VFRD     (VFRD00) (09:47) (22MAR04) ORVYL FILE DISK READING SUBROUTINE                                                     Page   32
0Current Usings:  (*,R7) (RDBDSECT,R10)
0Loc    Object Code    Addr1 Addr2  Stmt Lv Lineno    Source Statement           (Hibal 5, Asmedit 3.3)  HLASM R4.0  2004/03/22 09.47
+___    ______ ____    _____ _____  ____ __ ______    ______ _________
0                                   9000     727.     *
                                    9001     728.     *  CLOSE FILE SYSTEM
                                    9002     729.     *
00007DE 902E D000/188D       00000  9004     731.     VFCLS    VENTER SR,R14,*
 0007E4 41D0 D034/0D70       00034  9009             +
 0007EA 18B1                        9027     732.              LR    IOBREG,R1               COPY OPEN PARAMETER LIST
 DROP   *,R7
 USING  *,R7
 USING  VFOPRM,R11                  9028     733.              USING VFOPRM,IOBREG           ## ADDR OPEN PARAMETER LIST
 0007EC 58A0 718E            00978  9037     734.              L     RDBR,CTFRDBL            FIRST RDB ADDRESS
 0007F0 59A0 7192            0097C  9038     735.              WHILE (RDBR,LT,CTLRDBL),BEGIN
 0007F4 47B0 705E            00848  9052             +
 0007F8 41F0 A004            00004  9057  1  736.                LA    R15,RDBDCB              ADDRESS OF DCB
 0007FC 4510 701A            00804  9058  1  737.                CLOSE ((15))                  CLOSE THIS RDB
 000800 00000000                    9061  1          +
 000804 50F1 0000            00000  9062  1          +
 000808 9280 1000/0A14 00000        9063  1          +
 00080E 9180 A001      00001        9065  1  738.     FREERPS    IF    RDBFRPS,BEGIN           NO RPS, NEXT RDB PLSE
 000812 47E0 7056            00840  9076  1          +
 000816 5810 718E            00978  9081  2  739.                  L     R1,CTFRDBL              GET FIRST RDB AGAIN
 00081A 191A/47B0 7048       00832  9082  2  740.                  WHILE (R1,LT,RDBR),BEGIN      TEST FOR DUPLICATE TABLES
 000820 D503 A04C 104C 0004C 0004C  9099  3  741.                    CLC   RDBLRPS,@R1+RDBLRPS-RDBL   DUPLICATE TABLE?
 000826 4780 7056            00840  9100  3  742.                    IF    E,EXIT,FREERPS          ALREADY FREED
 00082A 4110 1080            00080  9114  3  743.                    LA    R1,@R1+L'RDBL           NEXT RDB
 00082E 47F0 7030            0081A  9115  2  744.                  END   ,
 000832 5800 A048            00048  9120  2  745.                  L     R0,RDBLBT               RPS TABLE SIZE
 000836 5810 A04C            0004C  9121  2  746.                  L     R1,RDBLRPS              RPS TABLE ADDRESS
 00083A 4110 1000/0A0A       00000  9122  2  747.                  FREEMAIN R,LV=(0),A=(1)       FREE THE TABLE
 000840                             9126  1  748.                END   ,
 000840 41A0 A080            00080  9130  1  749.                LA    RDBR,L'RDBL(,RDBR)      NEXT RDB PLEASE
 000844 47F0 7006            007F0  9131     750.              END   ,
 000848 5800 7192            0097C  9136     751.              L     R0,CTLRDBL              LAST RDB ADDRESS
 00084C 5810 718E            00978  9137     752.              L     R1,CTFRDBL              FIRST RDB ADDRESS
 000850 1F01                        9138     753.              SLR   R0,R1                   LENGTH OF RDB'S
 000852 4110 1000/0A0A       00000  9139     754.              FREEMAIN R,LV=(0),A=(1)       FREE RBD CORE
 000858 5800 71A2            0098C  9143     755.              L     R0,VFBLEN               LENGTH OF AREA
 00085C 5810 719E            00988  9144     756.              L     R1,VFBUFS                AND POINTER
 000860 4110 1000/0A0A       00000  9145     757.              FREEMAIN R,LV=(0),A=(1)       FREE THE I/O AREAS
 000866 1BFF                        9149     758.              CLEAR R15                     ZERO RETURN CODE
 000868 5810 B008            00008  9153     759.              L     R1,VFOADR               ADDRESS FOR CHAIN BASE
 00086C 50F0 1000            00000  9154     760.              ST    R15,@R1                 CLEAR CHAIN
 000870 18D8/982E D000       00000  9155     761.              VEXIT SR,R14
 000876 07F9                        9159             +
1VFRD     (VFRD00) (09:47) (22MAR04) ORVYL FILE DISK READING SUBROUTINE                                                     Page   33
0Current Usings:  (*,R7) (RDBDSECT,R10) (VFOPRM,R11)
0Loc    Object Code    Addr1 Addr2  Stmt Lv Lineno    Source Statement           (Hibal 5, Asmedit 3.3)  HLASM R4.0  2004/03/22 09.47
+___    ______ ____    _____ _____  ____ __ ______    ______ _________
0                                   9161     762.01
                                    9162     762.02
                                    9163     762.03     Return file system name
                                    9164     762.04

0000878 902E D000/188D       00000  9166     762.06   VFRETFS  VENTER SR,R14,*           SAVE CALLINGREGISTERS
 00087E 41D0 D034/0D70       00034  9171             +
 000884 D207 1000 7110 00000 00994  9189     762.96            MVC   @R1(L'FSNAME),FSNAME    PASS BACK REQUESTED FS NAME
 DROP   *,R7
 USING  *,R7
 00088A 1BFF                        9190     762.97            CLEAR R15                     ZERO RETURN CODE
 00088C 18D8/982E D000       00000  9194     762.98            VEXIT SR,R14              RESTORE CALLING REGS AND RETURN
 000892 07F9                        9198             +
1VFRD     (VFRD00) (09:47) (22MAR04) ORVYL FILE DISK READING SUBROUTINE                                                     Page   34
0Current Usings:  (*,R7) (RDBDSECT,R10) (VFOPRM,R11)
0Loc    Object Code    Addr1 Addr2  Stmt Lv Lineno    Source Statement           (Hibal 5, Asmedit 3.3)  HLASM R4.0  2004/03/22 09.47
+___    ______ ____    _____ _____  ____ __ ______    ______ _________
0                                   9200     763.     ********************************************************************
                                    9201     764.     *                                                                  *
                                    9202     765.     *  Trim trailing blanks from a character string                    *
                                    9203     766.     *                                                                  *
                                    9204     767.     ********************************************************************
0000894                             9206     769.     RTRIM    LABEL ,                   Right trim character string
 000894 1200/0789                   9208     770.              IF    (R0,Z),RAR          Just return if length is zero
 000898 9023 D000            00000  9225     771.              VPUSH SR,TR,*             Save work register
 00089C 41D0 D008            00008  9227             +
 0008A0 0530                        9228     772.              BALR  TR,0                SET ADDRESSABILITY REGISTER
 USING  *,R3                        9229     773.              USING *,TR                DECLAURE ADDRESSABILITY
 0008A2 1821                        9239     774.              LR    SR,R1               Copy address of string start
 0008A4 1E20                        9240     775.              ALR   SR,R0               Set address of end of string +1
 0008A6 5B20 306E            00910  9241     776.              S     SR,=A(1)            Point to last character
 0008AA                             9242     777.              LOOP  BEGIN               Find first non-blank character
 0008AA 9540 2000      00000        9248  1  778.                CLI   @SR,C' '            Any blank there?
 0008AE 4770 301C            008BE  9249  1  779.                IF    NE,EXIT             Exit loop if non-balnk
 0008B2 5F20 306E            00910  9263  1  780.                SL    SR,=A(1)            Decrement compare address
 0008B6 5B00 306E            00910  9264  1  781.                S     R0,=A(1)            Decrement string length
 0008BA 4770 3008            008AA  9265     782.              UNTIL Z,END               Loop back to check next character
 0008BE 4BD0 3090            00932  9284     783.              VPOP  SR,TR,*             Restore registers
 0008C2 9823 D000            00000  9286             +
 0008C6 07F9                        9287     784.              BR    RAR                 And return
1VFRD     (VFRD00) (09:47) (22MAR04) ORVYL FILE DISK READING SUBROUTINE                                                     Page   35
0Current Usings:  (*,R3) (*,R7) (RDBDSECT,R10) (VFOPRM,R11)
0Loc    Object Code    Addr1 Addr2  Stmt Lv Lineno    Source Statement           (Hibal 5, Asmedit 3.3)  HLASM R4.0  2004/03/22 09.47
+___    ______ ____    _____ _____  ____ __ ______    ______ _________
0                                   9289     786.
                                    9290     787.       DEFINE FINAL LITERAL POOL
                                    9291     788.

-0008C8                             9293     790.              LTORG ,
 0008C8 C3D6D5E3D9D6D340            9295                             =CL8'CONTROL'
 0008D0 C4E2D24040404040            9296                             =CL8'DSK'
 0008D8 4040404040404040            9297                             =CL8' '
 0008E0 00000312                    9298                             =A(FINDDD)
 0008E4 FFFFFFFE                    9299                             =A(-2)
 0008E8 40000001                    9300                             =AL1(X'40',0,0,1)
 0008EC 40000005                    9301                             =AL1(X'40',0,0,5)
 0008F0 00001800                    9302                             =A(SCNDREC-IOINFO)
 0008F4 00002000                    9303                             =A(8*1024)
 0008F8 00000000                    9304                             =V(SCINIT)
 0008FC 00000000                    9305                             =V(SCAN)
 000900 00000000                    9306                             =V(BTD)
 000904 00000006                    9307                             =A(6)
 000908 00000008                    9308                             =A(8)
 00090C 00000000                    9309                             =A(0)
 000910 00000001                    9310                             =A(1)
 000914 00000894                    9311                             =A(RTRIM)
 000918 00000000                    9312                             =V(CALCTRK)
 00091C 00000000                    9313                             =V(CALCRPS)
 000920 0080                        9314                             =Y(L'RDBL)
 000922 2000                        9315                             =Y(8*1024)
 000924 404040404040                9316                             =CL6' '
 00092A 0020                        9317                             =Y((RAR+1-(SR)+16*((SR)/(RAR+1))/((SR)/(RAR+1)))*4)
 00092C 0008                        9318                             =Y((R15+1-(R14)+16*((R14)/(R15+1))/((R14)/(R15+1)))*4)
 00092E 0050                        9319                             =Y(80)
 000930 0004                        9320                             =Y(4)
 000932 0008                        9321                             =Y((TR+1-(SR)+16*((SR)/(TR+1))/((SR)/(TR+1)))*4)
 000934 23                          9322                             =X'23'
 000935 31                          9323                             =X'31'
 000936 08             00C80 00C80  9324                             =X'08'
-000C80                00C80 00C80  9329     792.              END   .

1VFRD     (VFRD00) (09:47) (22MAR04) Ordinary Symbol and Literal Cross Reference                                            Page   36
-Symbol   Length   Value     Id    R Type   Defn References                                  HLASM R4.0  2004/03/22 09.47
0$$$@R10       1 00000000 FFFFFFF4     J     836 1130
 $$$@R11       1 00000000 FFFFFFF3     J     849 1143
 $$$@R2        1 00000000 FFFFFFFC     J     732 1026
 $$$@R3        1 00000000 FFFFFFFB     J     745 1039
 $$$@R4        1 00000000 FFFFFFFA     J     758 1052
 $$$@R5        1 00000000 FFFFFFF9     J     771 1065
 $$$@R6        1 00000000 FFFFFFF8     J     784 1078
 $$$@R7        1 00000000 FFFFFFF7     J     797 1091
 $$$@R8        1 00000000 FFFFFFF6     J     810 1104
 $$$@R9        1 00000000 FFFFFFF5     J     823 1117
 $$$C1VFRD
               1 00000C80 00000001     J    9325 9327
 $$$C2VFRD
               1 00000C80 00000001     J    9332 9334
 $$$D0VFRD
               1 00000937 00000001     J     995 6782  7707  8175  8319  8399
 $$$RDEB       1 00000000 FFFFFFDB     J    6317 6397  6397
 $$$RFBHDR
               1 00000000 FFFFFFD7     J    6736 6772  6772
 $$$RVFOPRM
               1 00000000 FFFFFFDA     J    6410 6432  6432
 $$$10F        2 000000FE 00000001     H    7082 7072B
 $$$11F        2 00000120 00000001     H    7114 7104B
 $$$12F        2 0000012C 00000001     H    7135 7125B
 $$$13B        1 00000166 00000001     X    7183 7193U
 $$$14B        4 0000016E 00000001     I    7224 7237
 $$$14F        2 0000017E 00000001     H    7234 7224B 7236
 $$$15E        2 00000182 00000001     H    7244 7238
 $$$15F        2 0000018E 00000001     H    7251 7240B
 $$$16F        2 000001A0 00000001     H    7274 7263B
 $$$19F        2 00000234 00000001     H    7403 7371B
 $$$20F        2 00000230 00000001     H    7398 7387B
 $$$22F        2 000002FE 00000001     H    7529 7468B
 $$$22S        2 00000280 00000001     H    7462 7528B
 $$$27F        2 0000034A 00000001     H    7663 7626B 7645B
 $$$27S        2 0000032C 00000001     H    7620 7662B
 $$$30F        2 00000358 00000001     H    7697 7674B
 $$$31F        2 00000388 00000001     H    7893 7879B
 $$$33S        2 00000388 00000001     H    7906 8115B
 $$$34F        2 00000438 00000001     H    8111 7975B
 $$$35F        2 00000438 00000001     H    8107 7989B
 $$$36F        2 00000404 00000001     H    8060 8005B 8019B
 $$$38F        2 000003F6 00000001     H    8052 8038B
 $$$39F        2 00000438 00000001     H    8103 8074B
 $$$40         6 00000C6E 00000001     I    8181 8173X
 $$$41         6 00000C6E 00000001     I    8180 8181  8181
 $$$42F        2 00000508 00000001     H    8272 8258B
 $$$42T        2 00000502 00000001     H    8261 8246B
 $$$44F        2 0000052E 00000001     H    8335 8292B 8306B
 $$$46         6 00000C74 00000001     I    8325 8317X
 $$$47         6 00000C74 00000001     I    8324 8325  8325
 $$$48         6 00000C7A 00000001     I    8405 8397X
 $$$49         6 00000C7A 00000001     I    8404 8405  8405
 $$$5B         1 00000022 00000001     X    6864 6871U
 $$$51F        2 000005E8 00000001     H    8533 8518B
1VFRD     (VFRD00) (09:47) (22MAR04) Ordinary Symbol and Literal Cross Reference                                            Page   37
 $$$53B        4 0000064C 00000001     I    8643 8661
 $$$53F        2 00000656 00000001     H    8658 8643B 8660
 $$$54E        2 0000065A 00000001     H    8668 8662
 $$$54F        2 0000065E 00000001     H    8675 8664B
 $$$55B        4 00000676 00000001     I    8692 8705
 $$$55F        2 0000067E 00000001     H    8702 8692B 8704
 $$$56E        2 00000682 00000001     H    8712 8706
 $$$56F        2 0000068A 00000001     H    8737 8708B
 $$$58B        4 00000692 00000001     I    8752 8770
 $$$58F        2 000006AA 00000001     H    8767 8752B 8769
 $$$59E        2 000006AE 00000001     H    8777 8771
 $$$59F        2 000006C2 00000001     H    8789 8773B
 $$$60F        2 000006DA 00000001     H    8813 8803B
 $$$61B        1 000007EA 00000001     X    9015 9025U
 $$$62F        2 00000848 00000001     H    9135 9052B
 $$$62S        2 000007F0 00000001     H    9043 9134B
 $$$64F        2 00000840 00000001     H    9129 9076B 9108B
 $$$65F        2 00000832 00000001     H    9119 9094B
 $$$65S        2 0000081A 00000001     H    9087 9118B
 $$$68B        1 00000884 00000001     X    9177 9187U
 $$$70B        1 000008A2 00000001     X    9230 9237U
 $$$71F        2 000008BE 00000001     H    9281 9257B
 $$$71S        2 000008AA 00000001     H    9246 9278B
 $$$9F         2 00000090 00000001     H    6994 6982B
 @R0           0 00000000 FFFFFFFE     @     707  983U
 @R1           0 00000000 FFFFFFFD     @     720  979U 7053U 7078  7394M 7404M 7473M 7531M 7642  8180  8273  8324  8404
                                                 8541U 8892  8894  8896  8900  8980U 9099  9114  9154M 9189M
 @R10          0 00000000 FFFFFFF4     @     837  943U
 @R11          0 00000000 FFFFFFF3     @     850  939U 7203U 8997U
 @R12          0 00000000 FFFFFFF2     @     863  935U
 @R13          0 00000000 FFFFFFF1     @     876  931U
 @R14          0 00000000 FFFFFFF0     @     889  927U 7061
 @R15          0 00000000 FFFFFFEF     @     902  923U 7153U 8440
 @R2           0 00000000 FFFFFFFC     @     733  975U 7028U 7559U 7570U 7590U 7603U 7689U 7900U 8577U 8623U 8832U 8854U
                                                 8877U
 @R3           0 00000000 FFFFFFFB     @     746  971U 6888U 7614U 7658U 8368U 8383U 8428U 8843U
 @R4           0 00000000 FFFFFFFA     @     759  967U 7033
 @R5           0 00000000 FFFFFFF9     @     772  963U
 @R6           0 00000000 FFFFFFF8     @     785  959U
 @R7           0 00000000 FFFFFFF7     @     798  955U 7190U 9022U 9184U
 @R8           0 00000000 FFFFFFF6     @     811  951U
 @R9           0 00000000 FFFFFFF5     @     824  947U
 @SR           0 00000000 FFFFFFFC     @    1027 7417  7572  8879  8926  8927  9248
 @TR           0 00000000 FFFFFFFB     @    1040 8349  8350  8933M
 AHLHEAD       1 00000000 00000000 A   T    5098 5098
 AHLVCCR8      1 00000000 00000000 A   T    5589 5589
 ALLO          2 0000035C 00000001     H    7842 7270B
 ASMVT         1 00000000 00000000 A   T    5478 5478
 BITNO         4 000000B8 FFFFFFD9     A    6582 6583  6887
 BKINFO        4 00000990 00000001     A    6799 8814M 8928
 BTD           1 00000000 00000004     T    9306 9306
 BUILDDCB      2 000007A2 00000001     H    8953 8470B
 CALCRPS       1 00000000 00000006     T    9313 9313
 CALCTRK       1 00000000 00000005     T    9312 9312
 CATWRKA       1 00000A78 00000001     X    7750 7748  8054
 CBBRANCH      1 00000000 00000000 A   T    5634 5634
 CBUF         80 00000BE4 00000001     C    7808 7911  7930  7937
 CCWREAD       8 00000058 FFFFFFD9     W    6571 7093M 7110M 7131M 7139M 7511M 7512M
 CCWR2         8 00000060 FFFFFFD9     W    6572 7514M 7516M
1VFRD     (VFRD00) (09:47) (22MAR04) Ordinary Symbol and Literal Cross Reference                                            Page   38
 CCWSECT       8 00000040 FFFFFFD9     W    6568 7500M 7501M
 CCWSRCH       8 00000048 FFFFFFD9     W    6569 6971  7504M 7505M 7506
 CCWTIC        8 00000050 FFFFFFD9     W    6570 7508M 7509M
 CDCB          4 00000B84 00000001     F    7769 7846  7866  7910  8124  8128
 CEOD          2 0000043C 00000001     H    8119 7781
 CFILE         2 0000049E 00000001     H    8162 7823
 CFSNAME       2 00000514 00000001     H    8283 7827
 CKWR          1 00000C54 00000001     R    7823 7956
 CNTDDN        8 00000968 00000001     C    6790 7229M 7246M 7252  7861
 CNTTRK        2 00000704 00000001     H    8864 8880B
 CONVOL        2 000004F6 00000001     H    8235 7825
 CRBRANCH      1 00000000 00000000 A   T    5375 5375
 CSRTABLE      1 00000000 00000000 A   T    5395 5395
 CSVARMGR      1 00000000 00000000 A   T    5443 5443
 CSVEXIT       1 00000000 00000000 A   T    5316 5316
 CSVLLCB       1 00000000 00000000 A   T    4916 4916
 CSVLLTRM      1 00000000 00000000 A   T    4917 4917
 CSVMEM        1 00000000 00000000 A   T    5144 5144
 CSVVFGET      1 00000000 00000000 A   T    5708 5708
 CSVVFIND      1 00000000 00000000 A   T    5706 5706
 CTFILTOT      4 00000980 00000001     F    6795 6917  7360M
 CTFRDBL       4 00000978 00000001     F    6793 6926  7292M 7310  8889  9037  9081  9137
 CTLRDBL       4 0000097C 00000001     F    6794 6952  7296M 7340  9051  9136
 CVTBRET       2 00000052 FFFFFFE1     H    4941 5454  5533
 CVTMAP        1 00000000 FFFFFFE1     U    4891 7562U
 CVTTCBP       4 00000000 FFFFFFE1     V    4893 7564
 CVTVSTGX      1 00000000 FFFFFFE0     J    5906 5770
 CVTXTNT1      1 00000000 FFFFFFDF     J    5945 5113
 CVTXTNT2      1 00000000 FFFFFFDE     J    5953 5183
 CVT4MS1       1 00000010 FFFFFFE1 A   U    4966 4974
 CVT6DAT       1 00000002 FFFFFFE1 A   U    4970 4974
 DALCLOSE      1 0000001C FFFFFFE8 A   U    1774 7737
 DALDDNAM      1 00000001 FFFFFFE8 A   U    1747 7734
 DALDSNAM      1 00000002 FFFFFFE8 A   U    1748 7735
 DALSTATS      1 00000004 FFFFFFE8 A   U    1750 7736
 DALVLSER      1 00000010 FFFFFFE8 A   U    1762 7738
 DATALEN       4 00000984 00000001     A    6796 7393  7515  8691M 8691  8698M 8725
 DCBBIT0       1 00000080 FFFFFFE7 A   U    2007 2095  2103  2117  2139  2181  2183  2184  2186  2206  2209  2231  2235
                                                 2250  2287  2343  2361
 DCBBIT1       1 00000040 FFFFFFE7 A   U    2008 2096  2104  2119  2148  2149  2158  2164  2181  2183  2185  2186  2211
                                                 2231  2233  2235  2253  2254  2255  2290  2291  2343  2363
 DCBBIT2       1 00000020 FFFFFFE7 A   U    2009 2097  2105  2120  2121  2122  2148  2149  2153  2159  2164  2181  2182
                                                 2187  2213  2236  2237  2258  2259  2260  2294  2295  2344  2364
 DCBBIT3       1 00000010 FFFFFFE7 A   U    2010 2098  2120  2122  2123  2148  2161  2188  2216  2236  2239  2262  2263
                                                 2264  2298  2299  2344  2365
 DCBBIT4       1 00000008 FFFFFFE7 A   U    2011 2106  2162  2163  2164  2189  2217  2241  2246  2247  2267  2268  2302
                                                 2303  2305  2306  2345  2366
 DCBBIT5       1 00000004 FFFFFFE7 A   U    2012 2107  2169  2192  2193  2219  2241  2243  2244  2247  2271  2273  2274
                                                 2275  2309  2310  2311  2312  2345  2367
 DCBBIT6       1 00000002 FFFFFFE7 A   U    2013 2099  2171  2172  2175  2192  2194  2220  2278  2279  2280  2281  2315
                                                 2316  2317  2318  2346  2368
 DCBBIT7       1 00000001 FFFFFFE7 A   U    2014 2100  2171  2173  2175  2196  2225  2283  2284  2321  2322  2324  2325
                                                 2369
 DCBBUFCB      4 00000014 FFFFFFE7     A    2084 8965M
 DCBDCBE       4 00000000 FFFFFFE7     A    2022 2026
 DCBDDNAM      8 00000028 FFFFFFE7     C    2203 7861M 8972M
 DCBDEBAD      4 0000002C FFFFFFE7     A    2341 8824
 DCBDSGDA      1 00000020 FFFFFFE7 A   U    2097 8968
 DCBDSORG      2 0000001A FFFFFFE7     B    2093 8968M
1VFRD     (VFRD00) (09:47) (22MAR04) Ordinary Symbol and Literal Cross Reference                                            Page   39
 DCBEODAD      4 00000020 FFFFFFE7     A    2135 8967M
 DCBEXLSA      3 00000025 FFFFFFE7     R    2198 8556M 8571M 8571
 DCBFDAD       8 00000005 FFFFFFE7     C    2038 2040
 DCBIOBAD      4 0000001C FFFFFFE7     A    2108 8966M
 DCBMACR1      1 00000032 FFFFFFE7     B    2249 8970M
 DCBMACR2      1 00000033 FFFFFFE7     B    2286 8971M
 DCBMRCI       1 00000010 FFFFFFE7 A   U    2262 8970
 DCBMRECP      1 00000080 FFFFFFE7 A   U    2250 8970
 DCBMRFE       1 00000040 FFFFFFE7 A   U    2253 8970
 DCBMR4WD      1 00000004 FFFFFFE7 A   U    2309 8971
 DCBOFIOF      1 00000001 FFFFFFE7 A   U    2225 2227
 DCBOFLGS      1 00000030 FFFFFFE7     B    2205 7878  8790  8969M
 DCBOFOPN      1 00000010 FFFFFFE7 A   U    2216 7876  8790
 DCBOFUEX      1 00000002 FFFFFFE7 A   U    2220 2224  8969
 DDCOUNT       2 00000530 00000001     H    8347 7284B
 DDLOOP        4 0000054C 00000001     I    8397 8420B
 DDNEXT        4 00000562 00000001     I    8416 8412B 8414B
 DEBAPP        4 00000000 FFFFFFDB     F    6331 6337
 DEBBASIC      4 00000024 FFFFFFDB     F    6351 6371  8835U
 DEBBINUM      2 00000048 FFFFFFDB     H    6383 7046
 DEBDDEP       4 00000044 FFFFFFDB     F    6375 6379  6380  6381  6390  7008U 8844  8857U
 DEBDSZDA      1 00000010 FFFFFFDB A   U    6390 7032  8879
 DEBNMEXT      1 00000034 FFFFFFDB     X    6361 8842
 DEBNMTRK      2 00000052 FFFFFFDB     H    6388 7027  8870
 DEBPFX        4 00000014 FFFFFFDB     F    6341 6347
 DFAIDTAB      1 00000000 00000000 A   T    5783 5783
 DS1BLKL       2 00000056 FFFFFFE6     X    2534 8628  8792
 DS1FMTID      1 0000002C FFFFFFE6     C    2409 8626U
 DS1IND01      1 00000001 FFFFFFE6 A   U    2568 2569
 DS1IND02      1 00000002 FFFFFFE6 A   U    2564 2567
 DS1IND04      1 00000004 FFFFFFE6 A   U    2557 2563
 DS1IND10      1 00000010 FFFFFFE6 A   U    2552 2555
 DS1IND40      1 00000040 FFFFFFE6 A   U    2548 2549
 DS1KEYL       1 0000005A FFFFFFE6     X    2543 8633  8809
 DVTAREA       1 00000000 FFFFFFDC     J    6258 6398  6433  8504U
 DVTDEVCD      4 00000000 FFFFFFDC     F    6261 6263  6267  6276  8506  8508  8510  8511
 DVTFRPS       1 00000010 FFFFFFDC A   U    6264 8511
 DVTNUMT       2 0000000A FFFFFFDC     H    6289 8534
 DVTWORK       4 0000093C 00000001     F    6787 8474  8496  8815  8916
 ERROR1        2 00000152 00000001     H    7162 6900B 6920B 6954B
 ERROR8        2 000007D6 00000001     H    8988 7441B
 ERROR9        2 000007CE 00000001     H    8983 7333B 7354B
 EXIT          2 00000142 00000001     I    7151 7164B
 FBHDR        20 00000000 FFFFFFD7     J    6772 6764  8671
 FBHTBICA      1 000000C0 FFFFFFD7 A   U    6757 6758
 FBHTBIT       1 00000040 FFFFFFD7 A   U    6750 6757
 FBHTCAT       1 00000080 FFFFFFD7 A   U    6749 6757
 FBHTIXR       1 00000008 FFFFFFD7 A   U    6752 6756
 FBHTIXRT      1 0000001E FFFFFFD7 A   U    6756 6758
 FBHTMIXR      1 00000002 FFFFFFD7 A   U    6754 6756
 FBHTSIXR      1 00000004 FFFFFFD7 A   U    6753 6756
 FBHTZIXR      1 00000010 FFFFFFD7 A   U    6751 6756
 FILDO         4 00000200 00000001     I    7340 7322B
 FILOOP        4 000001F4 00000001     I    7324 7341B
 FILTLOOP      2 00000726 00000001     I    8890 8901B
 FILTNEW       2 00000754 00000001     H    8906 8891B
 FILTNEXT      4 0000074C 00000001     I    8900 8893B 8895B
 FINDDD        2 00000312 00000001     H    7550 7982B 9298
 FMBRANCH      1 00000000 00000000 A   T    5559 5559
1VFRD     (VFRD00) (09:47) (22MAR04) Ordinary Symbol and Literal Cross Reference                                            Page   40
 FSNAME        8 00000994 00000001     C    6800 8312M 8324M 9189  9189
 GLBRANCH      1 00000000 00000000 A   T    5465 5465
 GMBRANCH      1 00000000 00000000 A   T    5561 5561
 GTRCMP        2 0000005C 00000001     H    6957 6944B
 GTRLOOP       2 00000040 00000001     H    6929 6953B
 GVT           1 00000000 00000000 A   T    5327 5327
 HIBAL         1 00000000 FFFFFFFF     J     692  708   721   734   747   760   773   786   799   812   825   838   851
                                                  864   877   890   903
 IARMPVT       1 00000000 00000000 A   T    5202 5202
 IARMRRCE      1 00000000 00000000 A   T    5747 5747
 IARPIBR       1 00000000 00000000 A   T    5717 5717
 IARPSIV       1 00000000 00000000 A   T    5541 5541
 IARPSXM       1 00000000 00000000 A   T    5690 5690
 IARXKEY       1 00000000 00000000 A   T    5648 5648
 IARXVIO       1 00000000 00000000 A   T    5542 5542
 ICYMMVTC      1 00000000 00000000 A   T    5973 5973
 IDA121CV      1 00000000 00000000 A   T    5480 5480
 IEABEND       1 00000000 00000000 A   T    5064 5064
 IEADQIQE      1 00000000 00000000 A   T    5460 5460
 IEAECVT       1 00000000 00000000 A   T    4989 4989
 IEAGSMQ       1 00000000 00000000 A   T    5437 5437
 IEAIHASU      1 00000000 00000000 A   T    5677 5677
 IEALSMQ       1 00000000 00000000 A   T    5439 5439
 IEAMASCB      1 00000000 00000000 A   T    5407 5407  5411
 IEAPATCH      1 00000000 00000000 A   T    5072 5072
 IEAPDSRT      1 00000000 00000000 A   T    5335 5335
 IEAPTRV       1 00000000 00000000 A   T    5151 5151
 IEAQCDSR      1 00000000 00000000 A   T    5055 5055
 IEAQCS01      1 00000000 00000000 A   T    5447 5447
 IEAQLPAQ      1 00000000 00000000 A   T    5056 5056
 IEAQTD00      1 00000000 00000000 A   T    4952 4952
 IEAQTE00      1 00000000 00000000 A   T    4950 4950
 IEARPOST      1 00000000 00000000 A   T    5462 5462
 IEASMFEX      1 00000000 00000000 A   T    5339 5339
 IEASMFSP      1 00000000 00000000 A   T    5685 5685
 IEASPOST      1 00000000 00000000 A   T    5482 5482
 IEASVDCB      1 00000000 00000000 A   T    4943 4943
 IEATCBP       1 00000000 00000000 A   T    4893 4893
 IEATPC        1 00000000 00000000 A   T    4945 4945
 IEATRSCN      1 00000000 00000000 A   T    5303 5303
 IEAVAR02      1 00000000 00000000 A   T    5387 5387
 IEAVBLDP      1 00000000 00000000 A   T    5371 5371
 IEAVDELP      1 00000000 00000000 A   T    5374 5374
 IEAVEAC0      1 00000000 00000000 A   T    5464 5464
 IEAVEADV      1 00000000 00000000 A   T    5622 5622
 IEAVEDR1      1 00000000 00000000 A   T    5507 5507
 IEAVELRM      1 00000000 00000000 A   T    5456 5456
 IEAVENLU      1 00000000 00000000 A   T    5803 5803
 IEAVENQ2      1 00000000 00000000 A   T    5453 5453
 IEAVEQV1      1 00000000 00000000 A   T    5610 5610
 IEAVEQV2      1 00000000 00000000 A   T    5613 5613
 IEAVEQV3      1 00000000 00000000 A   T    5616 5616
 IEAVERI1      1 00000000 00000000 A   T    5509 5509
 IEAVERP1      1 00000000 00000000 A   T    5511 5511
 IEAVERX1      1 00000000 00000000 A   T    5699 5699
 IEAVESC1      1 00000000 00000000 A   T    5638 5638
 IEAVESPR      1 00000000 00000000 A   T    5567 5567
 IEAVESTU      1 00000000 00000000 A   T    5801 5801
 IEAVESVT      1 00000000 00000000 A   T    5573 5573
1VFRD     (VFRD00) (09:47) (22MAR04) Ordinary Symbol and Literal Cross Reference                                            Page   41
 IEAVET6E      1 00000000 00000000 A   T    5673 5673
 IEAVEVT2      1 00000000 00000000 A   T    5627 5627
 IEAVEXPR      1 00000000 00000000 A   T    5435 5435
 IEAVEXP1      1 00000000 00000000 A   T    5604 5604
 IEAVFRCL      1 00000000 00000000 A   T    5373 5373
 IEAVGSDA      1 00000000 00000000 A   T    5618 5618
 IEAVGTCL      1 00000000 00000000 A   T    5372 5372
 IEAVGWSA      1 00000000 00000000 A   T    5467 5467
 IEAVLKRM      1 00000000 00000000 A   T    5174 5174
 IEAVMFRM      1 00000000 00000000 A   T    5552 5552
 IEAVMSGS      1 00000000 00000000 A   T    5121 5121
 IEAVNVT0      1 00000000 00000000 A   T    5786 5786
 IEAVRSUH      1 00000000 00000000 A   T    5665 5665
 IEAVRT03      1 00000000 00000000 A   T    5279 5279
 IEAVSPND      1 00000000 00000000 A   T    5675 5675
 IEAVSTAG      1 00000000 00000000 A   T    5415 5415
 IEAVTCTL      1 00000000 00000000 A   T    5667 5667
 IEAVTEST      1 00000000 00000000 A   T    5178 5178
 IEAVTRGR      1 00000000 00000000 A   T    5475 5475
 IEAVTRG1      1 00000000 00000000 A   T    4924 4924
 IEAVTRV3      1 00000000 00000000 A   T    5171 5171
 IEAVTSBP      1 00000000 00000000 A   T    5421 5421
 IEAVTSFR      1 00000000 00000000 A   T    5142 5142
 IEAVTSGL      1 00000000 00000000 A   T    5419 5419
 IEAVVMSR      1 00000000 00000000 A   T    5200 5200
 IEAVWAIT      1 00000000 00000000 A   T    5442 5442
 IEAVWSAC      1 00000000 00000000 A   T    5473 5473
 IEAVWSAG      1 00000000 00000000 A   T    5471 5471
 IEAVWSAL      1 00000000 00000000 A   T    5469 5469
 IEAVXEXT      1 00000000 00000000 A   T    5550 5550
 IEAVXSFT      1 00000000 00000000 A   T    5517 5517
 IEAVXSTN      1 00000000 00000000 A   T    5523 5523
 IEAVXSTS      1 00000000 00000000 A   T    5521 5521
 IEAVXUNN      1 00000000 00000000 A   T    5546 5546
 IEAVXUNS      1 00000000 00000000 A   T    5525 5525
 IEAWTCB       1 00000000 00000000 A   T    5582 5582
 IEA0DS        1 00000000 00000000 A   T    4988 4988
 IEA0EF00      1 00000000 00000000 A   T    4894 4894
 IEA0EF01      1 00000000 00000000 A   T    4934 4934
 IEA0PT0E      1 00000000 00000000 A   T    5654 5654
 IEA0PT01      1 00000000 00000000 A   T    4995 4995
 IEA0PT02      1 00000000 00000000 A   T    5579 5579
 IEA0PT03      1 00000000 00000000 A   T    5656 5656
 IEA0VL00      1 00000000 00000000 A   T    4905 4905
 IEA0VL01      1 00000000 00000000 A   T    5312 5312
 IECIXAVL      1 00000000 00000000 A   T    4980 4980
 IECPCNVT      1 00000000 00000000 A   T    4908 4908
 IECPRLTV      1 00000000 00000000 A   T    4912 4912
 IECSDSL1      1 00000000 FFFFFFE6     U    2406 2407
 IECVEXCL      1 00000000 00000000 A   T    5544 5544
 IECXAPG       1 00000000 00000000 A   T    4903 4903
 IECXITP       1 00000000 00000000 A   T    4933 4933
 IECXTLER      1 00000000 00000000 A   T    4919 4919
 IEC0SCR1      1 00000000 00000000 A   T    5078 5078
 IEECUCB       1 00000000 00000000 A   T    4949 4949
 IEEMSER       1 00000000 00000000 A   T    4927 4927  4993
 IEEVEXSN      1 00000000 00000000 A   T    5282 5282
 IEEVSTOP      1 00000000 00000000 A   T    5592 5592
 IEFAQTOP      1 00000000 00000000 A   T    5399 5399
1VFRD     (VFRD00) (09:47) (22MAR04) Ordinary Symbol and Literal Cross Reference                                            Page   42
 IEFAUSDM      1 00000000 00000000 A   T    4899 4899
 IEFENFDM      1 00000000 00000000 A   T    5058 5058
 IEFJESCT      1 00000000 00000000 A   T    5158 5158
 IEFLINK       1 00000000 00000000 A   T    4896 4896
 IEFQMWR       1 00000000 00000000 A   T    5009 5009
 IEWFBOSV      1 00000000 00000000 A   T    4986 4986
 IEWMSEPT      1 00000000 00000000 A   T    5491 5491
 IFBDCB        1 00000000 00000000 A   T    4975 4975
 IFDOLT0A      1 00000000 00000000 A   T    5337 5337
 IFGDEBVR      1 00000000 00000000 A   T    5968 5968
 IGC043BR      1 00000000 00000000 A   T    5383 5383
 IGC044R2      1 00000000 00000000 A   T    5493 5493
 IGC062R1      1 00000000 00000000 A   T    5463 5463
 IGC07903      1 00000000 00000000 A   T    5608 5608
 IGC124        1 00000000 00000000 A   T    5624 5624
 IGFRVT        1 00000000 00000000 A   T    5073 5073
 IGVCPBDB      1 00000000 00000000 A   T    5739 5739
 IGVCPDLB      1 00000000 00000000 A   T    5741 5741
 IGVCPFRE      1 00000000 00000000 A   T    5731 5731
 IGVCPGTC      1 00000000 00000000 A   T    5729 5729
 IGVCPGUB      1 00000000 00000000 A   T    5723 5723
 IGVCPGUP      1 00000000 00000000 A   T    5726 5726
 IGVCPGUS      1 00000000 00000000 A   T    5749 5749
 IGVGCAS       1 00000000 00000000 A   T    5377 5377
 IGVGFAS       1 00000000 00000000 A   T    5381 5381
 IGVGRRGN      1 00000000 00000000 A   T    5753 5753
 IGVGVRGN      1 00000000 00000000 A   T    5755 5755
 IGVQSPET      1 00000000 00000000 A   T    5379 5379
 IGVSLIST      1 00000000 00000000 A   T    5733 5733
 IGVSLOC       1 00000000 00000000 A   T    5737 5737
 IGVSREGN      1 00000000 00000000 A   T    5735 5735
 IGVSTSKI      1 00000000 00000000 A   T    5720 5720
 IHADCB        1 00000000 FFFFFFE7     J    1997 2077  2127  2202  2329  2334  2349  2358  2402  7856U 8552U 8790  8824
                                                 8962U
 IHB0927       2 00000494 00000001     H    8151 8130B 8137B
 ILRJTERM      1 00000000 00000000 A   T    5662 5662
 INFMJFCB      1 00000000 FFFFFFE5     U    3016 8589U
 INITERR       4 0000079A 00000001     I    8946 8489B 8507B 8509B 8580B 8610B 8678B 8728B 8791B
 INITFILE      2 00000574 00000001     H    8435 7324B
 INITRET       4 0000078E 00000001     I    8942 8947B
 IOBCC         2 0000003B FFFFFFD9     C    6558 6569  7502
 IOBCMDCH      1 00000040 FFFFFFD9 A   U    6466 7490
 IOBDATCH      1 00000080 FFFFFFD9 A   U    6465 7487
 IOBDCBPT      4 0000002C FFFFFFD9     A    6514 7137M
 IOBECBPT      4 0000001C FFFFFFD9     A    6506 7497M
 IOBFLAG1      1 00000018 FFFFFFD9     B    6464 7495M
 IOBINCAM      2 00000034 FFFFFFD9     H    6520 6533
 IOBREG       11 0000000B 00000001 A   #    1137 6850U 6873M 7195M 7206U 9027M 9035U
 IOBSEEK       8 00000038 FFFFFFD9     C    6553 7046M 7047M 7062M 7063  7084  7085  7088
 IOBSTART      4 00000028 FFFFFFD9     A    6511 6995M
 IOBSTDRD      8 00000018 FFFFFFD9     D    6462 6565  6565  7142
 IOBUNREL      1 00000002 FFFFFFD9 A   U    6472 7493
 IOCCW         8 00000040 FFFFFFD9     D    6567 6990
 IOFLGS        1 0000000C FFFFFFD9     R    6445 6449
 IOHDR        80 00000068 FFFFFFD9     X    6574 6571  7510
 IOINFO        1 00000000 FFFFFFD9     J    6438 6601  6850U 7481U 9302
 IOIXR         1 00000800 FFFFFFD9     X    6609 6572  6610  7513
 IORET         1 0000000D FFFFFFD9     X    6453 6880M 7152  7163M
 IOSECT        1 0000000E FFFFFFD9     X    6454 6568  6989M 7498
1VFRD     (VFRD00) (09:47) (22MAR04) Ordinary Symbol and Literal Cross Reference                                            Page   43
 IOSVDEVN      1 00000000 00000000 A   T    5679 5679
 IOSVHID       1 00000000 00000000 A   T    5689 5689
 IOSVSUCB      1 00000000 00000000 A   T    5692 5692
 IOVOL         6 000000FE FFFFFFD9     C    6592 6958M
 IOWRITE     128 0000000C FFFFFFD9         6449 7103
 IRARMCNS      1 00000000 00000000 A   T    5433 5433
 IRARMEPS      1 00000000 00000000 A   T    5651 5651
 IRARMI00      1 00000000 00000000 A   T    5390 5390
 ISNBRNCH      1 00000000 00000000 A   T    5548 5548
 JFCBDSNM     44 00000000 FFFFFFE5     C    3020 8592
 JFCBVOLS     30 00000076 FFFFFFE5     C    3664 8591  8593
 JFCRESRV      4 0000006C FFFFFFE5     B    3581 3618
 LOCCAM        4 00000A68 00000001     F    7741 8027
 NEXTFIL       2 0000078C 00000001     H    8938 8898B
 NUMRDB        4 00000974 00000001     F    6792 7285M
 PR            6 00000006 00000001 A   #    1072 7321M 7321  7351M 7351  7360  7404  8884  8885M
 QR            4 00000004 00000001 A   #    1046 7418M 7467M 7467  7524M 8881M 8908M 8934M
 RAR           9 00000009 00000001 A   #    1111 7255M 7256M 7256B 7270M 7282M 7284M 7324M 7699B 7844  7845  7845  7845
                                                 7982M 8154M 8155B 8192M 8419B 8437  8447M 8448M 8448B 8470M 8818M 8819M
                                                 8819B 8931M 8932M 8932B 8943M 8945B 8973B 9219B 9287B 9317  9317  9317
 RDBCOUNT      4 00000938 00000001     F    6786 7317M 7317  8439  8441M
 RDBDCB        4 00000004 FFFFFFD8     F    6687 7136  8544  8741  8790  8824  8954  9057
 RDBDDX        4 00000040 FFFFFFD8     A    6713 6718
 RDBDSECT      1 00000000 FFFFFFD8     J    6617 6714  6714  6729  6731  6731  6773  6841U
 RDBFKEY       2 00000001 FFFFFFD8         6676 7124  8653M 8802
 RDBFL         1 00000001 FFFFFFD8     R    6631 6640  6649  6658  6667  6676
 RDBFRPS     128 00000001 FFFFFFD8         6640 6981  8529M 9075
 RDBL        128 00000000 FFFFFFD8     U    6731 6951  7339  7339  8892  8894  8896  8900  9099  9114  9130  9314
 RDBLBLK       4 00000058 FFFFFFD8     A    6725 8676M 8894  8894
 RDBLBT        4 00000048 FFFFFFD8     A    6721 6965  8820M 8881  8907  9120
 RDBLDEBE      4 00000050 FFFFFFD8     A    6723 7000  7014  8845M 8846M
 RDBLFB        4 00000040 FFFFFFD8     A    6719 8884M
 RDBLHDL       2 0000005C FFFFFFD8     H    6726 7138  8679M
 RDBLNB        4 00000044 FFFFFFD8     A    6720 6941  6950  8883M
 RDBLRPS       4 0000004C FFFFFFD8     A    6722 6987  8896  8897M 8913M 9099  9099  9121
 RDBLTRC       4 00000054 FFFFFFD8     A    6724 7060  7065  7077  8535M
 RDBLVOL       6 0000005E FFFFFFD8     C    6727 6958  8593M
 RDBR         10 0000000A 00000001 A   #    1124 6841U 6926M 6951M 6951  6952  7310M 7339M 7340  8890  9037M 9051  9093
                                                 9130M 9130
 RDBUNIT       1 00000000 FFFFFFD8     X    6618 8510M 8892  8892
 RDFJFCB       4 00000970 00000001     A    6791 7308M 7309M 7405  8554  8581
 RELTRK        4 00000104 FFFFFFD9     A    6597 6966M
 RMBRANCH      1 00000000 00000000 A   T    5558 5558
 RPSLOOP       4 00000772 00000001     I    8926 8934B
 RR            5 00000005 00000001 A   #    1059 8862M 8862  8871M 8883  8885
 RTRIM         2 00000894 00000001     H    9207 7282B 8192B 9311
 R0            0 00000000 FFFFFFFF A   #     700 7014M 7034M 7058M 7058  7060M 7064M 7065  7077M 7084  7175  7177  7177
                                                 7177  7280M 7285  7286M 7287  7301M 7393M 7394  7447M 7453M 7539M 8168
                                                 8190M 8193  8215M 8216M 8217  8257  8305  8311  8373  8391M 8391  8415M
                                                 8444M 8449  8534M 8535  8633M 8642M 8642  8654  8671M 8677  8679  8680
                                                 8792M 8809M 8814  8870M 8871  8896M 8897  8907M 8908  8928M 8964M 8965
                                                 8966  8967  9120M 9136M 9138M 9143M 9216M 9216  9240  9264M
 R1            1 00000001 FFFFFFFF A   #     713 6873  6971M 6987M 6988M 6988  6989  6990M 6995  7000M 7008U 7032M 7032
                                                 7059M 7078M 7086M 7088  7136M 7137  7138M 7139  7195  7222M 7223M 7223
                                                 7252M 7279M 7292  7293  7295M 7296  7300M 7300  7308  7361M 7370M 7370
                                                 7386  7392M 7399M 7405M 7448M 7455M 7496M 7497  7498M 7499M 7500  7502M
                                                 7503M 7504  7506M 7507M 7508  7510M 7511  7513M 7514  7515M 7516  7518M
                                                 7519M 7520  7521M 7679M 7980M 8061M 8189M 8193M 8443M 8449M 8468M 8496M
                                                 8504U 8554M 8556  8579M 8628M 8654M 8676  8680M 8698  8725  8815M 8820
1VFRD     (VFRD00) (09:47) (22MAR04) Ordinary Symbol and Literal Cross Reference                                            Page   44
                                                 8889M 8890  8900M 8913  8915  8916M 8954M 8962U 9027  9081M 9093  9114M
                                                 9121M 9137M 9138  9144M 9153M 9239
 R14          14 0000000E FFFFFFFF A   #     882 6856  6858  6858  6858  6963M 6963  6965M 6988  7061M 7062  7157M 7175
                                                 7177  7177  7177  7293M 7301M 7453M 7539M 8164  8165  8165  8165  8227M
                                                 8440M 8441  8920M 8920  9007  9009  9009  9009  9158M 9169  9171  9171
                                                 9171  9197M 9318  9318  9318
 R15          15 0000000F FFFFFFFF A   #     895 6964M 6966  7029  7031M 7059  7152M 7294M 7295  7438M 7438  7452M 7452
                                                 7535M 7535  7664M 7683M 7683  7698M 7698  8037M 8037  8073M 8073  8164
                                                 8165  8165  8165  8227M 8373M 8374M 8397  8439M 8486M 8486  8506  8579
                                                 8607M 8607  8741M 8927M 8933  8940M 8940  8944M 8944  8946M 8984M 8989M
                                                 9057M 9152M 9152  9154  9193M 9193  9318  9318  9318
 R2            2 00000002 FFFFFFFF A   #     726 8311M 8315M 8317
 R4            4 00000004 FFFFFFFF A   #     752 7018M 7018  7033M 7047
 SCAN          1 00000000 00000003     T    9305 9305
 SCINIT        1 00000000 00000002     T    9304 9304
 SCNCB         4 00000C34 00000001     F    7810 7821  7944
 SCNDHDR       4 000000F8 FFFFFFD9     A    6590 7520M
 SCNDREC       1 00001800 FFFFFFD9     X    6611 9302
 SCNTR         4 000009E0 00000001     A    7711 8199  8216  8217M
 SDOALLO     128 00000B81 00000001         7758 7921M 7974  8223M
 SDYNBLK       1 000009E4 00000001     X    7713 8061
 SDYNPRM       1 000009E8 00000001     R    7714 7713  8082
 SEEKLOOP      2 000000A0 00000001     H    7020 7034B
 SETSEEK       2 000000CA 00000001     H    7045 7030B
 SFILDD        2 00000A10 00000001     R    7734 7725  7980  8086  8188M 8189
 SFILDISP      2 00000A50 00000001     R    7736 7728
 SFILDSN       2 00000A1E 00000001     R    7735 7726  7746  8090  8166M 8167M 8167  8180M
 SFILFREE      2 00000A57 00000001     R    7737 7727
 SFILPTRS      4 000009FC 00000001     A    7725 7719  8056M 8224M 8274M
 SFILVOL       2 00000A5B 00000001     R    7738 7729  7922M 8010  8054M 8055M 8273M
 SFLG          1 00000B81 00000001     R    7754 7758
 SR            2 00000002 00000001 A   #    1020 6856  6858  6858  6858  7027M 7029  7031  7157M 7287M 7294  7416M 7417M
                                                 7418  7419M 7428  7448  7456M 7473  7481U 7518  7521  7522M 7530M 7531
                                                 7551M 7562U 7564M 7572M 7580U 7582M 7593U 7595M 7606U 7651M 7679  7844
                                                 7845  7845  7845  7846M 7856U 8154M 8168M 8171M 8173  8395M 8395  8416M
                                                 8417  8544M 8552U 8562  8581M 8589U 8594  8626U 8824M 8835U 8844M 8845
                                                 8857U 8879M 8924M 8924  8926M 8933  9007  9009  9009  9009  9158M 9169
                                                 9171  9171  9171  9197M 9226  9227  9227  9227  9239M 9240M 9241M 9263M
                                                 9286M 9317  9317  9317  9321  9321  9321
 S99NOMNT      1 00000020 FFFFFFED A   U    1397 7716
 S99VRBAL      1 00000001 FFFFFFED A   U    1381 7715
 TCB           1 00000020 FFFFFFE3     U    3941 4640  7580U 8358U
 TCBAE         4 000000BC FFFFFFE3     A    4185 4188
 TCBDARPN      1 00000040 FFFFFFE3 A   U    4231 4233
 TCBDARTN      1 00000080 FFFFFFE3 A   U    4228 4230
 TCBFIX        1 00000000 FFFFFFE3     J    3929 3936
 TCBMNLEN      1 00000158 FFFFFFE3 A   U    4640 4685
 TCBPXLEN      1 00000020 FFFFFFE3 A   U    3936 4685
 TCBRD         4 000000B8 FFFFFFE3     A    4180 4184
 TCBTIO        4 0000002C FFFFFFE3     A    3949 7582  8360
 TCBXTNT2      1 00000000 FFFFFFE2     J    4645 4683
 TCBX2LEN      1 00000020 FFFFFFE2 A   U    4683 4685
 TIOEDDNM      8 0000001C FFFFFFDD     C    6195 7642  8404
 TIOEFSRT      3 00000029 FFFFFFDD     R    6235 8413
 TIOELNGH      1 00000018 FFFFFFDD     G    6152 7613  7651  7657  8416
 TIOENTRY      1 00000018 FFFFFFDD     U    6151 7595  7606U 8375  8386U 8418
 TIOT          1 00000000 FFFFFFDD     J    6023 8371U
 TIOT1         1 00000000 FFFFFFDD     U    6130 7593U
 TR            3 00000003 00000001 A   #    1033 6887M 6897M 6897  6917  6941  6950M 6959  7613M 7625M 7625  7651  7657M
1VFRD     (VFRD00) (09:47) (22MAR04) Ordinary Symbol and Literal Cross Reference                                            Page   45
                                                 7673M 7673  8348M 8349M 8350M 8358U 8360M 8371U 8375M 8386U 8417M 8842M
                                                 8846  8880M 8915M 9226  9227  9227  9227  9228M 9237U 9286M 9321  9321
                                                 9321
 VFBLEN        4 0000098C 00000001     A    6798 9143
 VFBUFS        4 00000988 00000001     A    6797 7425  7447  7456  7530  9144
 VFCLS         4 000007DE 00000001     I    9007 9005
 VFIO          4 00000016 00000001     I    6856 6854
 VFO_BCV     128 00000004 FFFFFFDA         6418 8004
 VFOADR        4 00000008 FFFFFFDA     A    6420 7455  9153
 VFOBKSZ       4 00000024 FFFFFFDA     A    6425 7392
 VFOCNTL       8 00000014 FFFFFFDA     C    6423 7229
 VFOECB        4 0000000C FFFFFFDA     A    6421 7496
 VFOOUT        1 00000004 FFFFFFDA         6419 8751
 VFOPFX        8 0000001C FFFFFFDA     C    6424 7230
 VFOPN         4 0000015A 00000001     I    7175 7173
 VFOPOW        4 00000004 FFFFFFDA     A    6417 6418  6419  7416
 VFOPRM       40 00000000 FFFFFFDA     J    6432 7206U 9035U
 VFOREC        4 00000000 FFFFFFDA     A    6416 7222  7361
 VFOREC2       4 00000010 FFFFFFDA     A    6422 7399
 VFOXIT        2 00000308 00000001     I    7538 8985B 8990B
 VFRD          1 00000000 00000001     J     994  996  1028  1041  1054  1067  1080  1093  1106  1119  1132  1145  6777
                                                 6818  6833  7834  8186  8330  8410
 VFRD00        1 00000000 00000001     R    1003 1001
 VFRETFS       4 00000878 00000001     I    9169 9167
 VTOC          4 0000099C 00000001     F    6804 8594M 8597
 VTOCNAME     44 000009AC 00000001     C    6812 6809  8592M
 VTOCVOL       6 000009D8 00000001     C    6813 6810  8591M
 WORK          4 0000010C FFFFFFD9     A    6599 7063M 7064  7085M 7086
 XDNAME        8 00000958 00000001     C    6788 7230M 7247M 7279  8188  8442
 XELBLK        4 00000108 FFFFFFD9     A    6598 6959M 6964
 YDNAME        8 00000960 00000001     C    6789 8442M 8443  8468  8473  8972
 =A(-2)        4 000008E4 00000001     A    9299 7386
 =A(FINDDD)
               4 000008E0 00000001     A    9298 7255
 =A(RTRIM)
               4 00000914 00000001     A    9311 8447
 =A(SCNDREC-IOINFO)
               4 000008F0 00000001     A    9302 7519
 =A(0)         4 0000090C 00000001     A    9309 8413  8418
 =A(1)         4 00000910 00000001     A    9310 8415  9241  9263  9264
 =A(6)         4 00000904 00000001     A    9307 8257
 =A(8*1024)
               4 000008F4 00000001     A    9303 7522
 =A(8)         4 00000908 00000001     A    9308 8305
 =AL1(X'40',0,0,1)
               1 000008E8 00000001     R    9300 7501  7509
 =AL1(X'40',0,0,5)
               1 000008EC 00000001     R    9301 7505
 =CL6' '       6 00000924 00000001     C    9316 7922  8010
 =CL8' '       8 000008D8 00000001     C    9297 8312
 =CL8'CONTROL'
               8 000008C8 00000001     C    9295 7246
 =CL8'DSK'
               8 000008D0 00000001     C    9296 7247
 =V(BTD)       4 00000900 00000001     V    9306 8210  8466
 =V(CALCRPS)
               4 0000091C 00000001     V    9313 8931
 =V(CALCTRK)
               4 00000918 00000001     V    9312 8818
1VFRD     (VFRD00) (09:47) (22MAR04) Ordinary Symbol and Literal Cross Reference                                            Page   46
 =V(SCAN)      4 000008FC 00000001     V    9305 7963
 =V(SCINIT)
               4 000008F8 00000001     V    9304 7947
 =X'08'        1 00000936 00000001     X    9324 7507
 =X'23'        1 00000934 00000001     X    9322 7499
 =X'31'        1 00000935 00000001     X    9323 7503
 =Y((RAR+1-(SR)+16*((SR)/(RAR+1))/((SR)/(RAR+1)))*4)
               2 0000092A 00000001     Y    9317 8153
 =Y((R15+1-(R14)+16*((R14)/(R15+1))/((R14)/(R15+1)))*4)
               2 0000092C 00000001     Y    9318 8226
 =Y((TR+1-(SR)+16*((SR)/(TR+1))/((SR)/(TR+1)))*4)
               2 00000932 00000001     Y    9321 9285
 =Y(L'RDBL)
               2 00000920 00000001     Y    9314 7286
 =Y(4)         2 00000930 00000001     Y    9320 8942
 =Y(8*1024)
               2 00000922 00000001     Y    9315 7419
 =Y(80)        2 0000092E 00000001     Y    9319 8677

1VFRD     (VFRD00) (09:47) (22MAR04) Macro and Copy Code Source Summary                                                     Page   47
- Con Source                                        Volume    Members                        HLASM R4.0  2004/03/22 09.47
0     PRIMARY INPUT                                           CSECT    DROP     END      EX       LTORG    POP
                                                              PRINT    PUSH     START    USING
   L2 WYL.GG.SYS.MACLIB                             SYSB05    $BC      $BFLKUP  $BV      $CCLKUP  $CRS     $CSS     $L
                                                              $LBLAD   $LEXP    $LOR     $REL     $RGLKUP  $USLKUP
                                                              ACALL    BASE     BEGIN    CLEAR    CSECT    DATA     DECR
                                                              DEFCC    DEX      DROP     ELSE     END      EX       FLAG
                                                              GEN      HIBAL    IDENT    IF       INCR     LABEL    LC
                                                              LCALL    LCM      LOOP     LT       LTORG    L2       L3
                                                              POP      PRINT    PUSH     RECORD   REG      REGS     SET
                                                              START    ST2      ST3      SYSLR    UNTIL    USING
                                                              VCALL    WHILE    WITH
   L3 WYL.GG.ORV.BC.MACLIB                          SYSB02    BTD      DEB      IOB      ORVDEFN  SCAN     SCANCB
                                                              SCINIT   SCKW     SCRTN    VENTER   VEXIT    VFAREA   VPOP
                                                              VPUSH    VREST    VSAVE    XCALL
   L4 WYL.GG.ORV.MACLIB                             SYSB02    FBHDR
   L5 SYS3.IS.MACLIB                                SYSB05    DVTAREA  SYSDEFN
   L6 SYS3.MACLIB                                   SYSB02    QSNAP
   L7 SYS1.MACLIB                                   MVSBR9    ABEND    CAMLST   CLOSE    CVT      DCB      DCBD
                                                              DEVTYPE  DYNALLOC EXCP     FREEMAIN FREEPOOL GET
                                                              GETMAIN  IEFJFCBN IEFSJDKY IEFTIOT1 IEFZB4D0 IEFZB4D2
                                                              IHBINNRA IHBINNRR IHB01    IKJTCB   LOCATE   OPEN
                                                              RDJFCB   SYSSTATE
   L8 SYS1.MODGEN                                   MVSBR9    IECSDSL1 OBTAIN

1         (VFRD00) (09:47) (22MAR04) General Purpose Register Cross Reference                                               Page   48
- Register  References (M=modified, B=branch, U=USING, D=DROP, N=index)                      HLASM R4.0  2004/03/22 09.47
0    0(0)     983U  984D 7013M 7013  7014M 7034M 7040M 7041M 7042  7058M 7058  7060M 7064M 7065  7077M 7175  7280M 7285
             7286M 7287  7301M 7305M 7393M 7394  7408M 7447M 7453M 7539M 7911M 7937M 8096M 8097M 8098  8143M 8148M 8168
             8190M 8193  8203M 8203  8215M 8216M 8217  8257  8305  8311  8373  8391M 8391  8415M 8444M 8449  8459M 8459
             8474M 8476M 8476  8534M 8535  8632M 8632  8633M 8642M 8642  8654  8671M 8677  8679  8680  8792M 8809M 8814
             8869M 8869  8870M 8871  8896M 8897  8907M 8908  8928M 8964M 8965  8966  8967  9120M 9136M 9138M 9143M 9216M
             9216  9240  9264M
     1(1)     979U 6873  6971M 6987M 6988M 6988N 6989  6990M 6995  7000M 7008U 7032M 7032  7039M 7042M 7053U 7059M 7060M
             7078M 7086M 7136M 7137  7138M 7139  7142M 7175  7195  7222M 7223M 7223  7252M 7279M 7290M 7292  7293  7295M
             7296  7300M 7300  7301M 7306M 7308  7361M 7370M 7370  7386  7392M 7399M 7405M 7409M 7409  7423M 7428  7448M
             7453M 7455M 7496M 7497  7498M 7499M 7500  7502M 7503M 7504  7506M 7507M 7508  7510M 7511  7513M 7514  7515M
             7516  7518M 7519M 7520  7521M 7539M 7679M 7864M 7888M 7910M 7913  7930M 7956M 7980M 8027M 8047M 8061M 8095M
             8098M 8122M 8128M 8129  8132  8138  8140M 8140  8141M 8143M 8144M 8144  8147M 8147  8148  8149M 8189M 8193M
             8267M 8443M 8449M 8468M 8473M 8475M 8475  8496M 8504U 8541U 8554M 8556  8560M 8562N 8563  8579M 8597M 8628M
             8654M 8676  8680M 8698  8725  8759M 8761N 8762  8781M 8783N 8784  8815M 8820  8889M 8890  8900M 8911M 8913
             8915  8916M 8954M 8962U 8980U 9027  9060M 9062N 9063  9081M 9093  9114M 9121M 9124M 9124  9137M 9138  9141M
             9141  9144M 9147M 9147  9153M 9239
     2(2)     975U 6856  7024D 7026M 7026  7027M 7029  7031  7157M 7175  7287M 7294  7416M 7417M 7418  7419M 7428  7448
             7456M 7473  7481U 7518  7521  7522M 7530M 7531  7539M 7551M 7559U 7562U 7564M 7570U 7572M 7580U 7582M 7590U
             7593U 7595M 7603U 7606U 7651M 7679  7689U 7844  7846M 7900U 8154M 8168M 8171M 8173  8311M 8315M 8317  8395M
             8395  8416M 8417  8544M 8552U 8562  8577U 8581M 8589U 8594  8623U 8626U 8824M 8832U 8835U 8844M 8845  8854U
             8857U 8877U 8879M 8924M 8924  8926M 8933N 9007  9158M 9169  9197M 9226  9239M 9240M 9241M 9263M 9286M
     3(3)     971U 6856  6884D 6886M 6886  6887M 6888U 6897M 6897  6917  6941  6950M 6959  7157M 7175  7539M 7610D 7612M
             7612  7613M 7614U 7625M 7625  7651N 7654D 7656M 7656  7657M 7658U 7673M 7673  7844  8154M 8348M 8349M 8350M
             8358U 8360M 8368U 8371U 8375M 8383U 8386U 8417M 8428U 8839D 8841M 8841  8842M 8843U 8846  8880M 8915M 9007
             9158M 9169  9197M 9226  9228M 9237U 9286M
     4(4)     967U 6856  7018M 7018  7033M 7047  7157M 7175  7418M 7467M 7467  7524M 7539M 7844  8154M 8881M 8908M 8934M
             9007  9158M 9169  9197M
     5(5)     963U 6856  7157M 7175  7539M 7844  8154M 8862M 8862  8871M 8881M 8883  8885  9007  9158M 9169  9197M
     6(6)     959U 6856  7157M 7175  7321M 7321  7351M 7351  7360  7404  7539M 7844  8154M 8884  8885M 9007  9158M 9169
             9197M
     7(7)     955U 6856  6861M 6871U 7157M 7175  7180M 7190U 7193U 7539M 7844  8154M 9007  9012M 9022U 9025U 9158M 9169
             9174M 9184U 9187U 9197M
     8(8)     951U 6856  6857M 7156  7157M 7175  7176M 7538  7539M 7844  8154M 9007  9008M 9157  9158M 9169  9170M 9196
             9197M
     9(9)     947U 6856  7157M 7159B 7175  7255M 7256M 7256B 7270M 7282M 7284M 7324M 7539M 7541B 7699B 7844  7982M 8154M
             8155B 8192M 8419B 8437  8447M 8448M 8448B 8470M 8818M 8819M 8819B 8931M 8932M 8932B 8943M 8945B 8973B 9007
             9158M 9159B 9169  9197M 9198B 9219B 9287B
    10(A)     943U 6841U 6856  6926M 6951M 6951  6952  7157M 7175  7310M 7339M 7340  7539M 8890  9007  9037M 9051  9093
             9130M 9130  9158M 9169  9197M
    11(B)     939U 5301B 5302B 6850U 6856  6873M 7157M 7175  7195M 7203U 7206U 7539M 8997U 9007  9027M 9035U 9158M 9169
             9197M
    12(C)     935U 6856  7157M 7175  7539M 9007  9158M 9169  9197M
    13(D)     931U 6856  6856  6857  6858M 6858  7156M 7157M 7157  7175  7175  7176  7177M 7177  7538M 7539M 7539  7844
             7845M 7845  8153M 8154  8164  8165M 8165  8226M 8227  8437  8438M 8438  8942M 8943  9007  9007  9008  9009M
             9009  9157M 9158M 9158  9169  9169  9170  9171M 9171  9196M 9197M 9197  9226  9227M 9227  9285M 9286
    14(E)     927U 6856  6963M 6963  6965M 6988  7061M 7062  7157M 7175  7293M 7301M 7453M 7539M 7914M 7947M 7948M 7948B
             7963M 7964M 7964B 8133M 8134M 8134  8139M 8139  8142M 8143  8164  8210M 8211M 8211B 8227M 8233B 8280B 8341B
             8440M 8441  8466M 8467M 8467B 8920M 8920  9007  9158M 9169  9197M
    15(F)     923U 5763M 5763  6964M 6965M 6966  7029  7031M 7059  7149D 7151M 7151  7152M 7153U 7158M 7158  7294M 7295
             7301M 7438M 7438  7452M 7452  7453M 7535M 7535  7540M 7540  7664M 7683M 7683  7698M 7698  7912M 7912  7913M
             7914B 7944M 8037M 8037  8073M 8073  8131M 8131  8132M 8133  8136  8141  8142  8145  8149  8164  8199M 8227M
             8373M 8374M 8397  8439M 8486M 8486  8506  8579  8607M 8607  8741M 8761  8783  8927M 8933  8940M 8940  8944M
             8944  8946M 8984M 8989M 9057M 9062  9152M 9152  9154  9193M 9193

1VFRD     (VFRD00) (09:47) (22MAR04) Diagnostic Cross Reference and Assembler Summary                                       Page   49
-                                                                                            HLASM R4.0  2004/03/22 09.47
0     No Statements Flagged in this Assembly
 HIGH LEVEL ASSEMBLER, 5696-234, RELEASE 4.0, PTF UQ57391
0SYSTEM: OS/390 02.10.00            JOBNAME: PJG#VFRD    STEPNAME: ASM        PROCSTEP: (NOPROC)
0Datasets Allocated for this Assembly
  Con DDname   Dataset Name                                 Volume  Member
   P1 SYSIN    SYS04082.T094713.RA000.PJG#VFRD.INPUT.H01    SCR100
   L1 SYSLIB   SYS3.DUMMYMAC                                SYSB02
   L2          WYL.GG.SYS.MACLIB                            SYSB05
   L3          WYL.GG.ORV.BC.MACLIB                         SYSB02
   L4          WYL.GG.ORV.MACLIB                            SYSB02
   L5          SYS3.IS.MACLIB                               SYSB05
   L6          SYS3.MACLIB                                  SYSB02
   L7          SYS1.MACLIB                                  MVSBR9
   L8          SYS1.MODGEN                                  MVSBR9
      SYSLIN   WYL.GG.PJG.OBJ                               SYSB05  VFRD
      SYSPRINT SYS04082.T094713.RA000.PJG#VFRD.PRINT.H01    SCR100
      SYSTERM  GG$PJG.PJG#VFRD.JOB05981.D0000103.?

    7812K allocated to Buffer Pool,         3257K would be required for this to be an In-Storage Assembly
     847 Primary Input Records Read        21281 Library Records Read                  0 Work File Reads
       0 ASMAOPT Records Read               2796 Primary Print Records Written         0 Work File Writes
      78 Punch Records Written                 0 ADATA Records Written
0Assembly Start Time: 09.47.18 Stop Time: 09.47.25 Processor Time: 00.00.01.7026
 Return Code 000
