1                        J E S 2  J O B  L O G  --  S Y S T E M  S Y S B  --  N O D E  R L G
0
 09.44.24 JOB05962 ---- MONDAY,    22 MAR 2004 ----
 09.44.24 JOB05962  ICH70001I GG$PJG   LAST ACCESS AT 09:44:10 ON MONDAY, MARCH 22, 2004
 09.44.24 JOB05962  $HASP373 PJG#SYST STARTED - INIT 3    - CLASS E - SYS SYSB
 09.44.24 JOB05962  ***  HCMD      STEP $$QUIET
 09.44.24 JOB05962  PURGE * Q=OUTPUT MULTIPLE
 09.44.24 JOB05962  JOB PJG#SYST NOT IN OUTPUT QUEUE
 09.44.25 JOB05962  PJG#SYST.$$QUIET .         RC=0008 TapeIO=0000 DiskIO=0000 CPU=  .01s Elapsed=64.50s
 09.44.25 JOB05962  PJG#SYST.$CND    .         RC=Zero TapeIO=0000 DiskIO=0002 CPU=  .01s Elapsed=65.69s
 09.44.26 JOB05962  PJG#SYST.$UNP    .         RC=Zero TapeIO=0000 DiskIO=0009 CPU=  .05s Elapsed=66.03s
 09.44.32 JOB05962  PJG#SYST.ASM     .         RC=Zero TapeIO=0000 DiskIO=0285 CPU= 1.15s Elapsed=66.30s
 09.44.32 JOB05962  PJG#SYST.$EDIT   .         RC=Zero TapeIO=0000 DiskIO=0077 CPU=  .29s Elapsed=72.16s
 09.44.32 JOB05962  PJG#SYST Ended.  Name=Module: SYSTEM                 Total CPU= 1.51s Elapsed=64.50s
 09.44.32 JOB05962
 09.44.32 JOB05962  Execution charges   Priority=Standard   Block=Day
 09.44.32 JOB05962
 09.44.32 JOB05962  CPU Usage          27.37          $16.96   Standard Processing Unit Equivalent
 09.44.32 JOB05962                                   =======
 09.44.32 JOB05962                                    $16.96   Total Job execution charge
 09.44.32 JOB05962
 09.44.32 JOB05962  See back separator page for print charges
 09.44.32 JOB05962
 09.44.32 JOB05962  $HASP395 PJG#SYST ENDED  ASM=0
1        1 //PJG#SYST JOB PJG$GG,'Module: SYSTEM',TIME=1,MSGCLASS=C                JOB05962
           /*JOBPARM HOLD=OUTPUT,LINES=50,CHARS=TN15,NOTIFY=YES
         2 //       EXEC PURGEOLD
         3 XXPURGEOLD PROC
           XX*
           XX* This proc is maintained by Jim Stosick
           XX*
         4 XX$$QUIET  EXEC PGM=HCMDX,PARM='PURGE * Q=OUTPUT MULTIPLE',
           XX         ACCT=(PURGEOLD,SYS3)
         5 //$CND   EXEC PGM=BILBO,REGION=512K,PARM='RECS=100'
         6 //STEPLIB  DD DSN=WYL.GG.ORV.LINKLIB,DISP=SHR
         7 //SYSPRINT DD SYSOUT=$
         8 //SYSUT1   DD DSN=WYL.GG.PJG.OBJ,DISP=OLD
         9 //SYSUT2   DD DSN=WYL.GG.PJG.OBJ,DISP=OLD
        10 //SYSIN    DD DUMMY
        11 //$UNP   EXEC PGM=WUNPRESS,PARM='NUM'
        12 //SYSPRINT DD SYSOUT=$
        13 //SYSUT1   DD DSN=WYL.GG.ORV.SOURCE(SYSTEM),DISP=SHR
        14 //SYSUT2   DD DSN=&&INPUT,DISP=(,PASS),UNIT=SYSDA,
           //            SPACE=(TRK,(25,25),RLSE),DCB=CARD
        15 //ASM    EXEC PGM=ASMA90,REGION=8M,COND=(0,NE,$UNP),
           //            PARM=('SYSPARM(SYSTEM),TERM,LANG(EN),OBJ',
           //          'LC(32500),XREF(SHORT),NODECK,NORLD,NODX,NOUS')
           //*STEPLIB  DD DSN=SYS1.SASMMOD1,DISP=SHR
        16 //SYSLIB   DD DSN=SYS3.DUMMYMAC,DISP=SHR,DCB=BLKSIZE=27920
        17 //         DD DSN=WYL.GG.ORV.MACLIB,DISP=SHR
        18 //         DD DSN=WYL.GG.SYS.MACLIB,DISP=SHR
        19 //SYSUT1   DD DSN=&&SYSUT1,UNIT=VIO,DISP=(,DELETE),
           //            SPACE=(4088,(500,250),,CONTIG,ROUND)
        20 //SYSTERM  DD SYSOUT=$
        21 //SYSPRINT DD DSN=&&PRINT,UNIT=SYSDA,DISP=(,PASS),
           //            SPACE=(6650,(250,250),RLSE),
           //            DCB=(BLKSIZE=6650,LRECL=133,RECFM=FB)
        22 //SYSLIN   DD DSN=WYL.GG.PJG.OBJ(SYSTEM),DISP=OLD
        23 //SYSUDUMP DD SYSOUT=A
        24 //SYSIN    DD DSN=&&INPUT,DISP=(OLD,DELETE)
        25 //$EDIT  EXEC PGM=ASMEDIT,REGION=1M,
           //            COND=EVEN,PARM='STMT,DATA'
        26 //STEPLIB  DD DSN=WYL.GG.SYS.LINKLIB,DISP=SHR
        27 //ASMOUT   DD DSN=&&PRINT,DISP=(OLD,DELETE)
        28 //SYSPRINT DD SYSOUT=A
        29 //SYSUDUMP DD SYSOUT=A
1 STMT NO. MESSAGE
         2 IEFC001I PROCEDURE PURGEOLD WAS EXPANDED USING SYSTEM LIBRARY SYS3.BETAPROC
        14 IGD01010I STORCLAS= TEMP STORGROUP =
        14 IGD01010I STORGRP=VIO ASSIGNED.
        19 IGD01010I STORCLAS= TEMP STORGROUP =
        19 IGD01010I STORGRP=VIO ASSIGNED.
        21 IGD01010I STORCLAS= TEMP STORGROUP =
        21 IGD01010I STORGRP=VIO ASSIGNED.
 ICH70001I GG$PJG   LAST ACCESS AT 09:44:10 ON MONDAY, MARCH 22, 2004
 IEF142I PJG#SYST $$QUIET - STEP WAS EXECUTED - COND CODE 0008
 *********************************************************************************
 *   PJG#SYST/$$QUIET /                    Return Code      0008                 *
 *   Region used      260K (16K user + 244K system)                              *
 *   Extended region  9352K (4K user + 9348K system)                             *
 *                                                                               *
 *   Paging              In      Out                                             *
 *   Private <-> Aux      0        0       CPU time (TCB)   00:00:00.01          *
 *   Private <-> Exp      0        0       CPU time (SRB)   00:00:00.00          *
 *   VIO                  0        0       Elapsed time    920:43:28.46          *
 *   Common               0      ---                                             *
 *                                                                               *
 *                                                                               *
 *   CPU Usage          0.18         $0.11  Standard Processing Unit Equivalent  *
 *                                   $0.11  Total Step execution charge          *
 *                                                                               *
 *    I/O count  DDname   Type Addr           I/O count  DDname   Type Addr      *
 *                         *** No I/O for this step ***                          *
 *********************************************************************************
 IEF373I STEP/$$QUIET /START 2004082.0944
 IEF374I STEP/$$QUIET /STOP  2004082.0944 CPU    0MIN 00.01SEC SRB    0MIN 00.00SEC VIRT    16K SYS   244K EXT       4K SYS    9348K
 IEF236I ALLOC. FOR PJG#SYST $CND
 IEF237I 0401 ALLOCATED TO STEPLIB
 IEF237I JES2 ALLOCATED TO SYSPRINT
 IEF237I 04DC ALLOCATED TO SYSUT1
 IEF237I 04DC ALLOCATED TO SYSUT2
 IEF237I DMY  ALLOCATED TO SYSIN
 IEF142I PJG#SYST $CND - STEP WAS EXECUTED - COND CODE 0000
 IEF285I   WYL.GG.ORV.LINKLIB                           KEPT
 IEF285I   VOL SER NOS= SYSB01.
 IEF285I   GG$PJG.PJG#SYST.JOB05962.D0000101.?          SYSOUT
 IEF285I   WYL.GG.PJG.OBJ                               KEPT
 IEF285I   VOL SER NOS= SYSB05.
 IEF285I   WYL.GG.PJG.OBJ                               KEPT
 IEF285I   VOL SER NOS= SYSB05.
 *********************************************************************************
 *   PJG#SYST/$CND    /                    Return Code      Zero                 *
 *   Region used      280K (16K user + 264K system)                              *
 *   Extended region  9392K (4K user + 9388K system)                             *
 *                                                                               *
 *   Paging              In      Out                                             *
 *   Private <-> Aux      0        0       CPU time (TCB)   00:00:00.01          *
 *   Private <-> Exp      0        0       CPU time (SRB)   00:00:00.00          *
 *   VIO                  0        0       Elapsed time    920:43:27.27          *
 *   Common               0      ---                                             *
 *                                                                               *
 *                                                                               *
 *   CPU Usage          0.18         $0.11  Standard Processing Unit Equivalent  *
 *                                   $0.11  Total Step execution charge          *
 *                                                                               *
 *    I/O count  DDname   Type Addr           I/O count  DDname   Type Addr      *
 *            2  STEPLIB  Disk 0401                   0  SYSPRINT      ----      *
 *            0  SYSUT1   Disk 04DC                   0  SYSUT2   Disk 04DC      *
 *            0  SYSIN         ----                                              *
 *********************************************************************************
 IEF373I STEP/$CND    /START 2004082.0944
 IEF374I STEP/$CND    /STOP  2004082.0944 CPU    0MIN 00.01SEC SRB    0MIN 00.00SEC VIRT    16K SYS   264K EXT       4K SYS    9388K
 IEF236I ALLOC. FOR PJG#SYST $UNP
 IEF237I JES2 ALLOCATED TO SYSPRINT
 IEF237I 0402 ALLOCATED TO SYSUT1
 IGD101I SMS ALLOCATED TO DDNAME (SYSUT2  )
         DSN (SYS04082.T094424.RA000.PJG#SYST.INPUT.H01   )
         STORCLAS (TEMP) MGMTCLAS (        ) DATACLAS (        )
         VOL SER NOS= SCR100
 IEF142I PJG#SYST $UNP - STEP WAS EXECUTED - COND CODE 0000
 IEF285I   GG$PJG.PJG#SYST.JOB05962.D0000102.?          SYSOUT
 IEF285I   WYL.GG.ORV.SOURCE                            KEPT
 IEF285I   VOL SER NOS= SYSB02.
 IGD106I SYS04082.T094424.RA000.PJG#SYST.INPUT.H01    PASSED,    DDNAME=SYSUT2
 *********************************************************************************
 *   PJG#SYST/$UNP    /                    Return Code      Zero                 *
 *   Region used      380K (108K user + 272K system)                             *
 *   Extended region  9468K (4K user + 9464K system)                             *
 *                                                                               *
 *   Paging              In      Out                                             *
 *   Private <-> Aux      0        0       CPU time (TCB)   00:00:00.05          *
 *   Private <-> Exp      0        0       CPU time (SRB)   00:00:00.00          *
 *   VIO                  0        0       Elapsed time    920:43:26.93          *
 *   Common               0      ---                                             *
 *                                                                               *
 *                                                                               *
 *   CPU Usage          0.93         $0.57  Standard Processing Unit Equivalent  *
 *                                   $0.57  Total Step execution charge          *
 *                                                                               *
 *    I/O count  DDname   Type Addr           I/O count  DDname   Type Addr      *
 *            0  SYSPRINT      ----                   2  SYSUT1   Disk 0402      *
 *            7  SYSUT2   Disk 038B                                              *
 *********************************************************************************
 IEF373I STEP/$UNP    /START 2004082.0944
 IEF374I STEP/$UNP    /STOP  2004082.0944 CPU    0MIN 00.05SEC SRB    0MIN 00.00SEC VIRT   108K SYS   272K EXT       4K SYS    9464K
 IEF236I ALLOC. FOR PJG#SYST ASM
 IEF237I 0402 ALLOCATED TO SYSLIB
 IEF237I 0402 ALLOCATED TO
 IEF237I 04DC ALLOCATED TO
 IGD101I SMS ALLOCATED TO DDNAME (SYSUT1  )
         DSN (SYS04082.T094424.RA000.PJG#SYST.SYSUT1.H01  )
         STORCLAS (TEMP) MGMTCLAS (        ) DATACLAS (        )
         VOL SER NOS= VIO
 IEF237I JES2 ALLOCATED TO SYSTERM
 IGD101I SMS ALLOCATED TO DDNAME (SYSPRINT)
         DSN (SYS04082.T094424.RA000.PJG#SYST.PRINT.H01   )
         STORCLAS (TEMP) MGMTCLAS (        ) DATACLAS (        )
         VOL SER NOS= SCR100
 IEF237I 04DC ALLOCATED TO SYSLIN
 IEF237I JES2 ALLOCATED TO SYSUDUMP
 IGD103I SMS ALLOCATED TO DDNAME SYSIN
 IEF142I PJG#SYST ASM - STEP WAS EXECUTED - COND CODE 0000
 IEF285I   SYS3.DUMMYMAC                                KEPT
 IEF285I   VOL SER NOS= SYSB02.
 IEF285I   WYL.GG.ORV.MACLIB                            KEPT
 IEF285I   VOL SER NOS= SYSB02.
 IEF285I   WYL.GG.SYS.MACLIB                            KEPT
 IEF285I   VOL SER NOS= SYSB05.
 IGD105I SYS04082.T094424.RA000.PJG#SYST.SYSUT1.H01   DELETED,   DDNAME=SYSUT1
 IEF285I   GG$PJG.PJG#SYST.JOB05962.D0000103.?          SYSOUT
 IGD106I SYS04082.T094424.RA000.PJG#SYST.PRINT.H01    PASSED,    DDNAME=SYSPRINT
 IEF285I   WYL.GG.PJG.OBJ                               KEPT
 IEF285I   VOL SER NOS= SYSB05.
 IEF285I   GG$PJG.PJG#SYST.JOB05962.D0000104.?          SYSOUT
 IGD105I SYS04082.T094424.RA000.PJG#SYST.INPUT.H01    DELETED,   DDNAME=SYSIN
 *********************************************************************************
 *   PJG#SYST/ASM     /                    Return Code      Zero                 *
 *   Region used      8476K (8192K user + 284K system)                           *
 *   Extended region  9952K (412K user + 9540K system)                           *
 *                                                                               *
 *   Paging              In      Out                                             *
 *   Private <-> Aux      0        0       CPU time (TCB)   00:00:01.11          *
 *   Private <-> Exp      0        0       CPU time (SRB)   00:00:00.04          *
 *   VIO                  0        0       Elapsed time    920:43:26.66          *
 *   Common               0      ---                                             *
 *                                                                               *
 *                                                                               *
 *   CPU Usage         20.81        $12.90  Standard Processing Unit Equivalent  *
 *                                  $12.90  Total Step execution charge          *
 *                                                                               *
 *    I/O count  DDname   Type Addr           I/O count  DDname   Type Addr      *
 *           87  SYSLIB   Disk 0402                   0  SYSLIB   Disk 0402      *
 *          114  SYSLIB   Disk 04DC                   0  SYSUT1   VIO  ----      *
 *            0  SYSTERM       ----                  74  SYSPRINT Disk 038B      *
 *            2  SYSLIN   Disk 04DC                   0  SYSUDUMP      ----      *
 *            8  SYSIN    Disk 038B                                              *
 *********************************************************************************
 IEF373I STEP/ASM     /START 2004082.0944
 IEF374I STEP/ASM     /STOP  2004082.0944 CPU    0MIN 01.11SEC SRB    0MIN 00.04SEC VIRT  8192K SYS   284K EXT     412K SYS    9540K
 IEF236I ALLOC. FOR PJG#SYST $EDIT
 IEF237I 0402 ALLOCATED TO STEPLIB
 IGD103I SMS ALLOCATED TO DDNAME ASMOUT
 IEF237I JES2 ALLOCATED TO SYSPRINT
 IEF237I JES2 ALLOCATED TO SYSUDUMP
 IEF142I PJG#SYST $EDIT - STEP WAS EXECUTED - COND CODE 0000
 IEF285I   WYL.GG.SYS.LINKLIB                           KEPT
 IEF285I   VOL SER NOS= SYSB02.
 IGD105I SYS04082.T094424.RA000.PJG#SYST.PRINT.H01    DELETED,   DDNAME=ASMOUT
 IEF285I   GG$PJG.PJG#SYST.JOB05962.D0000105.?          SYSOUT
 IEF285I   GG$PJG.PJG#SYST.JOB05962.D0000106.?          SYSOUT
 *********************************************************************************
 *   PJG#SYST/$EDIT   /                    Return Code      Zero                 *
 *   Region used      388K (116K user + 272K system)                             *
 *   Extended region  9480K (4K user + 9476K system)                             *
 *                                                                               *
 *   Paging              In      Out                                             *
 *   Private <-> Aux      0        0       CPU time (TCB)   00:00:00.28          *
 *   Private <-> Exp      0        0       CPU time (SRB)   00:00:00.01          *
 *   VIO                  0        0       Elapsed time    920:43:20.80          *
 *   Common               0      ---                                             *
 *                                                                               *
 *                                                                               *
 *   CPU Usage          5.25         $3.25  Standard Processing Unit Equivalent  *
 *                                   $3.25  Total Step execution charge          *
 *                                                                               *
 *    I/O count  DDname   Type Addr           I/O count  DDname   Type Addr      *
 *            2  STEPLIB  Disk 0402                  75  ASMOUT   Disk 038B      *
 *            0  SYSPRINT      ----                   0  SYSUDUMP      ----      *
 *********************************************************************************
 IEF373I STEP/$EDIT   /START 2004082.0944
 IEF374I STEP/$EDIT   /STOP  2004082.0944 CPU    0MIN 00.28SEC SRB    0MIN 00.01SEC VIRT   116K SYS   272K EXT       4K SYS    9476K
 *********************************************************************************
 *                                                                               *
 *                      S t a n f o r d   U n i v e r s i t y                    *
 *                                                                               *
 *                              *** Job Summary ***                              *
 *                                                                               *
 *   System Id      SYSB                   Input time     09:38:27  Mar 22, 2004 *
 *                                                                               *
 *   System Release SP6.1.0                Start time     09:44:24  Mar 22, 2004 *
 *                                                                               *
 *   Job name       PJG#SYST               Stop  time     00:00:00  Mar 22, 2004 *
 *                                                                               *
 *   Account        PJG$GG                 Elapsed time  920:43:28.46            *
 *                                                                               *
 *   User Name      Module: SYSTEM         CPU time       00:00:01.46            *
 *                                                                               *
 *   Job class      E                      SRB Time       00:00:00.05            *
 *                                                                               *
 *********************************************************************************
 IEF375I  JOB/PJG#SYST/START 2004082.0944
 IEF376I  JOB/PJG#SYST/STOP  2004082.0944 CPU    0MIN 01.46SEC SRB    0MIN 00.05SEC
1Data set successfully converted from EDIT to FB format
1Assembler Done SYSTEM No Statements Flagged
1         High Level Assembler Option Summary                   (PTF UQ57391)                                               Page    1
-                                                                                            HLASM R4.0  2004/03/22 09.44
0  No Overriding ASMAOPT Parameters
   Overriding Parameters-  SYSPARM(SYSTEM),TERM,LANG(EN),OBJ,LC(32500),XREF(SHORT),NODECK,NORLD,NODX,NOUS
   No Process Statements


   Options for this Assembly
0  NOADATA
     ALIGN
   NOASA
     BATCH
     CODEPAGE(047C)
   NOCOMPAT
   NODBCS
 3 NODECK
 3 NODXREF
     ESD
   NOEXIT
     FLAG(0,ALIGN,CONT,NOIMPLEN,NOPAGE0,PUSH,RECORD,NOSUBSTR,USING0)
   NOFOLD
   NOGOFF
   NOINFO
 3   LANGUAGE(EN)
   NOLIBMAC
 3   LINECOUNT(32500)
     LIST(121)
     MXREF(SOURCE)
 3   OBJECT
     OPTABLE(UNI,NOLIST)
   NOPCONTROL
   NOPESTOP
   NOPROFILE
   NORA2
   NORENT
 3 NORLD
     RXREF
     SIZE(MAX)
 3   SYSPARM(SYSTEM)
 3   TERM(WIDE)
   NOTEST
     THREAD
   NOTRANSLATE
 3 NOUSING
 3   XREF(SHORT)

   No Overriding DD Names

1SYSTEM   External Symbol Dictionary                                                                                        Page    2
-Symbol   Type   Id     Address  Length     LD ID  Flags Alias-of                            HLASM R4.0  2004/03/22 09.44
0SYSTEM    SD 00000001 00000000 000006C2             06
 SYST00    LD          00000000           00000001
 SYSTASK   LD          00000022           00000001
 SYSTERM   LD          000002EC           00000001
 IMEINIT5  LD          00000368           00000001
 IMEDRIV5  LD          00000452           00000001
 GWSMAN5   LD          000004C8           00000001
 SMFCALL5  LD          00000516           00000001
 RAMCALL5  LD          0000055A           00000001
 DISPSHLD  ER 00000002
 VMINIT3   ER 00000003
 INITDIS3  ER 00000004
 PAGINIT2  ER 00000005
 ENQINIT   ER 00000006
 GRINIT    ER 00000007
 M1SVINIT  ER 00000008
 JESINIT   ER 00000009
 FILEINIT  ER 0000000A
 TERMINIT  ER 0000000B
 NETINIT   ER 0000000C
 ACCTINIT  ER 0000000D
 PAGWSMAN  ER 0000000E
 VMGET     ER 0000000F
 VMFREE    ER 00000010
 ACREATE   ER 00000011
 SUSPEND   ER 00000012
 DISPRD    ER 00000013
 AWAITAS   ER 00000014
 FMANTERM  ER 00000015
 EXRADD    ER 00000016
 XITMASK   ER 00000017
 XITNEW    ER 00000018
 RTSET     ER 00000019
 EXRDONE   ER 0000001A
 PAGSMF    ER 0000001B
 FILSMF    ER 0000001C
 PAGINTV   ER 0000001D

1SYSTEM   System Address Space                                                                                              Page    3
0Loc    Object Code    Addr1 Addr2  Stmt Lv Lineno    Source Statement                    (Asmedit 3.3)  HLASM R4.0  2004/03/22 09.44
+___    ______ ____    _____ _____  ____ __ ______    ______ _________
0                                      2       2.              COPY  HEADER
                                       3             =*********************************************************************
                                       4             =*                                                                   *
                                       5             =*                                                                   *
                                       6             =*                          M P - O R V Y L                          *
                                       7             =*                                                                   *
                                       8             =*       ORVYL - Release 5.0 - Class I - Stanford Proprietary        *
                                       9             =*                                                                   *
                                      10             =*                                                                   *
                                      11             =*********************************************************************
-
-                                     13             =         SPLEVEL SET=2
                                      16             =         HIBAL ASSOC=YES
-
                                     998             =*
                                     999             =* REGISTER CONVENTIONS (USE ONLY THE SYMBOLS)
                                    1000             =*
                                    1001             =*                     CLASS  USAGE
                                    1002             =*                     -----  -----------------------------
                                    1003             =RVR      REG   0        1    RETURN VALUE REGISTER
                                    1015             =RS       REG   1        *    SCRATCH
                                    1027             =RA       REG   2        *    SCRATCH
                                    1039             =RB       REG   3        *    SCRATCH
                                    1051             =RJ       REG   4        *    SCRATCH
                                    1063             =RK       REG   5        *    SCRATCH
                                    1075             =RX       REG   6        *    SCRATCH
                                    1087             =RY       REG   7        *    SCRATCH
                                    1099             =RM       REG   8        *    SCRATCH
                                    1111             =RN       REG   9        *    SCRATCH (In Guest)
                                    1123             =RTCBR    REG   9        -    POINTER TO THE RTCB (In Host)
                                    1135             =BR       REG   10       -    FIRST BASE REGISTER
                                    1147             =BRR      REG   11       -    SECOND BASE REGISTER
                                    1159             =WAR      REG   12       -    WORK AREA POINTER
                                    1171             =SPR      REG   13       -    STACK TOP POINTER
                                    1183             =RAR      REG   14       1    RETURN ADDRESS REGISTER
                                    1195             =EPAR     REG   15       1    ENTRY POINT ADDRESS
                                    1207             =*
                                    1208             =*      CLASS   MEANING
                                    1209             =*      -----   --------------------------------------------------
                                    1210             =*        *     Register may be freely used for scratch
                                    1211             =*        -     Register may not be used
                                    1212             =*        1     Available but may change on subroutine calls
                                    1213             =*
1SYSTEM   System Address Space                                                                                              Page    4
0D-Loc  Object Code    Addr1 Addr2  Stmt Lv Lineno    Source Statement           (Hibal 5, Asmedit 3.3)  HLASM R4.0  2004/03/22 09.44
+_____  ______ ____    _____ _____  ____ __ ______    ______ _________
0000000                00000 006C2  1216       4.     SYSTEM   MODULE TRCNUM=5
                                    1226             +*
                                    1227    02-IDENT +         ENTRY SYST00
                                    1228             +
 000000 14E2E8E2E3F0F06B            1229    02-IDENT +SYST00   DC    AL1(20),C'SYST00,22MAR04,09:44'
                                    1230             +*
1SYSTEM   (SYST00) (09:44) (22MAR04) System Address Space                                                                   Page    5
0Loc    Object Code    Addr1 Addr2  Stmt Lv Lineno    Source Statement           (Hibal 5, Asmedit 3.3)  HLASM R4.0  2004/03/22 09.44
+___    ______ ____    _____ _____  ____ __ ______    ______ _________
0                                   1233       6.              COPY  PZERO
 000000                00000 00280  1234             =PZERO    RECORD BEGIN
                                    1242  1          =*
                                    1243  1          =* Real Page 0.  Each CPU has its own copy of this area.
                                    1244  1          =*
-                                   1246  1          =****************************************************************
                                    1247  1          =*               Fields Fixed by the Architecture               *
                                    1248  1          =*               ********************************               *
                                    1249  1          =*                                                              *
 000000                             1250  1          =PZRSNPSW   DS    D             Restart new PSW                 *
 000008                             1251  1          =PZRSOPSW   DS    D             Restart old PSW                 *
 000010                             1252  1          =           DS    D                                             *
 000018                             1253  1          =PZEXOPSW   DS    D             External old PSW                *
 000020                             1254  1          =PZSVOPSW   DS    D             Supervisor old PSW              *
 000028                             1255  1          =PZPIOPSW   DS    D             Program old PSW                 *
 000030                             1256  1          =PZMCOPSW   DS    D             Machine check old PSW           *
 000038                             1257  1          =PZIOOPSW   DS    D             I/O old PSW                     *
 000040                             1258  1          =           DS    3D                                            *
 000058                             1259  1          =PZEXNPSW   DS    D             External new PSW                *
 000060                             1260  1          =PZSVNPSW   DS    D             Supervisor new PSW              *
 000068                             1261  1          =PZPINPSW   DS    D             Program new PSW                 *
 000070                             1262  1          =PZMCNPSW   DS    D             Machine check new PSW           *
 000078                             1263  1          =PZIONPSW   DS    D             I/O new PSW                     *
 000080                             1264  1          =           DS    F                                             *
 000084                             1265  1          =PZEXCPU    DS    H             CPU address for EXT int         *
 000086                             1266  1          =PZEXIC     DS    H             External interrupt code         *
 000088                             1267  1          =PZSVILC    DS    H             Supervisor call ILC             *
 00008A                             1268  1          =PZSVIC     DS    H             Supervisor interrupt code       *
 00008C                             1269  1          =PZPIILC    DS    H             Program ILC                     *
 00008E                             1270  1          =PZPIIC     DS    H             Program interrupt code          *
 000090                             1271  1          =PZTREXA    DS    A             Translation exception address   *
 000094                             1272  1          =PZMONCL    DS    H             Monitor Class number            *
 000096                             1273  1          =PZPERCD    DS    H             PER code                        *
 000098                             1274  1          =PZPERA     DS    A             PER Address                     *
 00009C                             1275  1          =PZMONCD    DS    A             Monitor Code                    *
 0000A0                             1276  1          =           DS    3D                                            *
 0000B8                             1277  1          =PZIOSID    DS    A             I/O subsystem ID word           *
 0000BC                             1278  1          =PZIOPRM    DS    A             I/O Parameter                   *
 0000C0                             1279  1          =PZIOSCS    DS    A             I/O subchannel ending status    *
 0000C4                             1280  1          =           DS    A                                             *
 0000C8                             1281  1          =           DS    39D                                           *
                                    1282  1          =*                                                              *
                                    1283  1          =*            ***************************************           *
                                    1284  1          =*            End of Fields fixed by the architecture           *
                                    1285  1          =****************************************************************
1SYSTEM   (SYST00) (09:44) (22MAR04) System Address Space                                                                   Page    6
0D-Loc  Object Code    Addr1 Addr2  Stmt Lv Lineno    Source Statement           (Hibal 5, Asmedit 3.3)  HLASM R4.0  2004/03/22 09.44
+_____  ______ ____    _____ _____  ____ __ ______    ______ _________
0                                   1287  1          =*
                                    1288  1          =* Fields of general interest
                                    1289  1          =*
 000200                             1290  1          =PZMATP     DS    A             Address of the MAT
 000204                             1291  1          =           DS    A             ** Reserved **
 000208                             1292  1          =PZCURPID   DS    0D            Unique ID of the current process
 000208                             1293  1          =PZCURASB   DS    A             Addr of ASB for current Address space
 00020C                             1294  1          =PZCURTSK   DS    A             ID of current task in the Address space
 000210                             1295  1          =PZLCPUA    DS    A             Logical CPU address
 000214                             1296  1          =PZCPUMSK   DS    A             CPU address mask bit
 000218                             1297  1          =PZPSWM     DS    X             PSW mask for disabling
 000219                             1298  1          =           DS    X             ** Reserved **
                                    1299  1          =*
                                    1300  1          =* Termination/Trace information
                                    1301  1          =*
 00021A 00                          1302  1          =PZTERMFL   FLAG  ,             Termination flags
 PZTERMFL.PZABORT  80 ONES          1306  1          =           FLAG  PZABORT         ABORT macro issued
 PZTERMFL.PZATERM  40 ONES          1311  1          =           FLAG  PZATERM         Start termination processing
 00021B                             1316  1          =PZABSM     DS    X             Save area for system mask in ABORT
 00021C                             1317  1          =PZABR15    DS    A             Save area for R15 in an ABORT
 000220                             1318  1          =PZTZOFF    DS    D             Time zone offset
 000228                             1319  1          =           DS    22A           ** Reserved **
                                    1320  1          =*         DS    24A           ** Reserved **
 000280                00280 00280  1321             =         END   ,
 USING  PZERO,R0                    1330       7.              USING (PZERO,R0)
1SYSTEM   (SYST00) (09:44) (22MAR04) System Address Space                                                                   Page    7
0Current Usings:  (PZERO,R0)
0Loc    Object Code    Addr1 Addr2  Stmt Lv Lineno    Source Statement           (Hibal 5, Asmedit 3.3)  HLASM R4.0  2004/03/22 09.44
+___    ______ ____    _____ _____  ____ __ ______    ______ _________
0                                   1341       9.              COPY  MAT
                                    1342             =*****************************************************************
                                    1343             =*                                                               *
                                    1344             =*        *** M A S T E R   A D D R E S S   T A B L E ***        *
                                    1345             =*                                                               *
                                    1346             =*****************************************************************
-000000                00000 00100  1348             =MAT      RECORD BEGIN
                                    1356  1          =MATPTR     EQU   X'200',4,C'A' Address of the MAT in PZERO
 000000 D4C1E340                    1357  1          =           DC    CL4'MAT'      Control block ID
                                    1358  1          =*
                                    1359  1          =* Addresses of global control blocks
                                    1360  1          =*
 000004                             1361  1          =MATVMCB    DS    A             Virtual memory control block
 000008                             1362  1          =MATDCT     DS    A             Dispatcher control table
 00000C                             1363  1          =MATPAGCB   DS    A             Real memory control block
 000010                             1364  1          =MATM1CT    DS    A             CT for Mode 1 users
 000014                             1365  1          =MATLCT     DS    A             Lock manager control table
 000018                             1366  1          =MATQCT     DS    A             Queue manager control table
 00001C                             1367  1          =MATIOCB    DS    A             I/O Manager control block
 000020                             1368  1          =MATSBWB    DS    A             System buffer wait blocks
 000024                             1369  1          =MATGTCT    DS    A             Terminal global control table
 000028                             1370  1          =MATFILCB   DS    A             File master control table
 00002C                             1371  1          =MATJESCB   DS    A             JES master control table
 000030                             1372  1          =MATSYSCB   DS    A             System task control table
 000034                             1373  1          =MATACCT    DS    A             Accounting control table
 000038                             1374  1          =MATGRCT    DS    A             General Resource control table
 00003C                             1375  1          =MATGNCT    DS    A             Global Network Control table
 000040                             1376  1          =MATTECB    DS    D             Termination wait ECB
 000048                             1377  1          =           DS    25A           Reserved
                                    1378  1          =*
                                    1379  1          =* Control Block Chains
                                    1380  1          =*
 0000AC                             1381  1          =MATASBS    DS    A             Pointer to chain of ASBs
 0000B0                             1382  1          =MATASBL    DS    A             Id of suspend lock for ASB chain
 0000B4                             1383  1          =           DS    8A            **  RESERVED
                                    1384  1          =*
                                    1385  1          =* Control information
                                    1386  1          =*
 0000D4                             1387  1          =MATSNAME   DS    CL8           System Name
 0000DC                             1388  1          =MATPAGFN   DS    A             Current value of the Paging function
 0000E0                             1389  1          =MATSKEY    DS    X             SYSTEM storage key (in high 4 bits)
 0000E1                             1390  1          =MATUKEY    DS    X             USER storage key
                                    1391= 1          =           ¿þþþþþþþþþþþþþþþþþþþþþþþþþþþþþþþþÜ
                                    1392= 1          =           Ÿ  Information about the Kernel  Ÿ
                                    1393= 1          =           ¾þþþþþþþþþþþþþþþþþþþþþþþþþþþþþþþþ»
 0000E4                             1394  1          =MATKSTRT   DS    A             Starting address of the Kernel
 0000E8                             1395  1          =MATKMAP    DS    A             Address of the Kernel map
 0000EC                             1396  1          =MATKMAPL   DS    A             Length of the Kernel map
1SYSTEM   (SYST00) (09:44) (22MAR04) System Address Space                                                                   Page    8
0Current Usings:  (PZERO,R0)
0Loc    Object Code    Addr1 Addr2  Stmt Lv Lineno    Source Statement           (Hibal 5, Asmedit 3.3)  HLASM R4.0  2004/03/22 09.44
+___    ______ ____    _____ _____  ____ __ ______    ______ _________
0                                   1397= 1          =           ¿þþþþþþþþþþþþþþþþþþþþþþþþþÜ
                                    1398= 1          =           Ÿ  Failsoft information.  Ÿ
                                    1399= 1          =           ¾þþþþþþþþþþþþþþþþþþþþþþþþþ»
 0000F0                             1400  1          =MATNCLPE   DS    F             Number of CLP errors
 0000F4                             1401  1          =MATNFAIL   DS    F             Number of failsofts
 0000F8                             1402  1          =           DS    2A            Reserved
 000100                00100 00100  1403             =         END
1SYSTEM   (SYST00) (09:44) (22MAR04) System Address Space                                                                   Page    9
0Current Usings:  (PZERO,R0)
0Loc    Object Code    Addr1 Addr2  Stmt Lv Lineno    Source Statement           (Hibal 5, Asmedit 3.3)  HLASM R4.0  2004/03/22 09.44
+___    ______ ____    _____ _____  ____ __ ______    ______ _________
0                                   1413      11.              COPY  SIGPARM
                                    1414             =*
                                    1415             =*  AWAIT/AWAITAS parameters
                                    1416             =*    For task based calls, the ECB is a double word.
                                    1417             =*    For address space based calls, the ECB is a word.
                                    1418             =*
 000000                00000 00005  1419             =@AWAIT   RECORD BEGIN
 000000                             1427  1          =@AWTECB    DS    A                       Address of ECB
 000004 00                          1428  1          =@AWTFLG    FLAG  ,
 @AWTFLG.@AWTLONG  80 ONES          1432  1          =           FLAG  @AWTLONG                Long term wait
 000005                00005 00005  1437             =         END   ,
0                                   1447             =*
                                    1448             =*  SIGNAL/SIGNALAS parameters
                                    1449             =*    For task based calls, the ECB and post code is a double word.
                                    1450             =*    For address space based calls, the ECB and post code is a word.
                                    1451             =*
 000000                00000 00014  1452             =@SIGNAL  RECORD BEGIN
 000000                             1460  1          =@SGCODE    DS    D                       Post code
 000008                             1461  1          =@SGECB     DS    A                       Address of ECB
                                    1462  1          =*  -- Parms for task signal --
                                    1463  1          =*    Zero ASB means post in this AS
                                    1464  1          =*    @PSSRID is only used for cross AS posts
 00000C                             1465  1          =@SGASB     DS    A                       ASB to be posted
 000010                             1466  1          =@SGSRID    DS    A                       System routine ID for cross
                                    1467  1          =*                                          AS posting
 000014                00014 00014  1468             =         END   ,
1SYSTEM   (SYST00) (09:44) (22MAR04) System Address Space                                                                   Page   10
0Current Usings:  (PZERO,R0)
0Loc    Object Code    Addr1 Addr2  Stmt Lv Lineno    Source Statement           (Hibal 5, Asmedit 3.3)  HLASM R4.0  2004/03/22 09.44
+___    ______ ____    _____ _____  ____ __ ______    ______ _________
0                                   1478      13.              COPY  DISPPARM
                                    1479             =*****************************************************************
                                    1480             =*                                                               *
                                    1481             =*  DISPPARM -- Parameters for the dispatcher global routines.   *
                                    1482             =*                                                               *
                                    1483             =*****************************************************************
-                                   1485             =*
                                    1486             =* Routines to indicate completion of a page or swap I/O
                                    1487             =*
 000000                00000 00004  1488             =@DISPPIOC RECORD BEGIN                 Page I/O completion parms
 000000                             1496  1          =@DPIOASB   DS    A                       ASB of completing I/O
 000004                00004 00004  1497             =         END   ,
0000000                00000 00004  1507             =@DISPSIOC RECORD BEGIN                 Swap I/O completion parms
 000000                             1515  1          =@DSIOASB   DS    A                       ASB of completing I/O
 000004                00004 00004  1516             =         END   ,
-                                   1526             =*
                                    1527             =* SUSPEND parameters
                                    1528             =*
0000000                00000 00009  1530             =@SUSPEND RECORD BEGIN
 000000                             1538  1          =@SUSPCTL   DS    0D            ID of the Control level suspended
 000000                             1539  1          =@SUSPID    DS    A             ID of the task/address space suspended
 000004                             1540  1          =@SUSPLC    DS    A             For tasks: Level of control suspended
 000008 00                          1541  1          =@SUSPFLG   FLAG  ,
 @SUSPFLG.@SUSPLNG 80 ONES          1545  1          =           FLAG  @SUSPLNG      This will be of long duration
 @SUSPFLG.@SUSPAS  40 ONES          1550  1          =           FLAG  @SUSPAS       Suspend the entire address space
 @SUSPFLG.@SUSPPLC 20 ONES          1555  1          =           FLAG  @SUSPPLC      Suspend previous level of control
 000009                00009 00009  1560             =         END   ,
-                                   1570             =*
                                    1571             =* RESUMAS/RESUMTS parameters
                                    1572             =*
0000000                00000 00008  1574             =@RESUME  RECORD BEGIN
 000000                             1582  1          =@RESCTL    DS    0D            ID of the unit of work to be resumed
 000000                             1583  1          =@RESUNIT   DS    A             Address of the ASB/task Id to resume
 000004                             1584  1          =@RESLC     DS    A             Level of control in a task
 000008                00008 00008  1585             =         END   ,
-                                   1595             =*
                                    1596             =* DISPSHLD/DISPSREL parmameters
                                    1597             =*
0000000                00000 00004  1599             =@DISPSWP RECORD BEGIN
 000000                             1607  1          =@DISPSAS   DS    A             Address of the ASB being manipulated
 000004                00004 00004  1608             =         END   ,
1SYSTEM   (SYST00) (09:44) (22MAR04) System Address Space                                                                   Page   11
0Current Usings:  (PZERO,R0)
0Loc    Object Code    Addr1 Addr2  Stmt Lv Lineno    Source Statement           (Hibal 5, Asmedit 3.3)  HLASM R4.0  2004/03/22 09.44
+___    ______ ____    _____ _____  ____ __ ______    ______ _________
0                                   1618             =*
                                    1619             =* ACREATE parameters
                                    1620             =*
0000000                00000 00008  1622             =@ACREATE RECORD BEGIN
 000000                             1630  1          =@ACRPSW    DS    D             Instruction address for task
 000008                00008 00008  1631             =         END   ,
-                                   1641             =*
                                    1642             =* TCREATE parameters
                                    1643             =*
0000000                00000 00015  1645             =@TCREATE RECORD BEGIN
 000000                             1653  1          =@TCRPSW    DS    D             Initial PSW for the task
 000008                             1654  1          =@TCRPARM   DS    2A            Parameter for the task
 000010                             1655  1          =@TCRPRIO   DS    A             Adjustment to priority from Current task
 000014 00                          1656  1          =@TCRFLAG   FLAG  ,             Task creation flags
 @TCRFLAG.@TCRFSTK 80 ONES          1660  1          =           FLAG  @TCRFSTK        Task entered with a stack
 @TCRFLAG.@TCRFPAB 40 ONES          1665  1          =           FLAG  @TCRFPABS       Prio is absolute
 000015                00015 00015  1670             =         END   ,
-                                   1680             =*
                                    1681             =* TREMOVE parameters
                                    1682             =*
0000000                00000 00004  1684             =@TREMOVE RECORD BEGIN
 000000                             1692  1          =@TREID     DS    A             ID of the task to be removed
 000004                00004 00004  1693             =         END   ,
-                                   1703             =*
                                    1704             =* TENTRY Parameters  (on entry to a created task)
                                    1705             =*
0000000                00000 00008  1707             =@TENTRY  RECORD BEGIN
 000000                             1715  1          =@TEPARM    DS    2A            Entry parm for the task
 000008                00008 00008  1716             =         END   ,
-                                   1726             =*
                                    1727             =* TEXIT parameters
                                    1728             =*
0000000                00000 00004  1730             =@TEXIT   RECORD BEGIN
 000000                             1738  1          =           DS    A             Not used
 000004                00004 00004  1739             =         END   ,
-                                   1749             =*
                                    1750             =* SYSRNEW -- Get a new SYSR ID
                                    1751             =*
1SYSTEM   (SYST00) (09:44) (22MAR04) System Address Space                                                                   Page   12
0Current Usings:  (PZERO,R0)
0Loc    Object Code    Addr1 Addr2  Stmt Lv Lineno    Source Statement           (Hibal 5, Asmedit 3.3)  HLASM R4.0  2004/03/22 09.44
+___    ______ ____    _____ _____  ____ __ ______    ______ _________
0000000                00000 00004  1753             =@SYSRNEW RECORD BEGIN
 000000                             1761  1          =           DS    A             Not used
 000004                00004 00004  1762             =         END   ,
-                                   1772             =*
                                    1773             =* SYSRDEL -- Delete a previous SYSR ID
                                    1774             =*
 000000                00000 00004  1775             =@SYSRDEL RECORD BEGIN
 000000                             1783  1          =@SYSRDID   DS    A             Id of the SYSR
 000004                00004 00004  1784             =         END   ,
-                                   1794             =*
                                    1795             =* SYSRDO -- Schedule a system routine to run in another address space
                                    1796             =*
0000000                00000 0001C  1798             =@SYSRDO  RECORD BEGIN
 000000                             1806  1          =@SYSRID    DS    A             Id from SYSRNEW
 000004                             1807  1          =@SYSRASB   DS    A             ASB of the Address space where it goes
 000008                             1808  1          =@SYSRLOC   DS    A             Location of the system routine
 00000C                             1809  1          =@SYSRPRM   DS    4A            Parameters for the routine
 00001C                0001C 0001C  1810             =         END   ,
-                                   1820             =*
                                    1821             =* SYSRTN -- Parameter passed to a system routine
                                    1822             =*
0000000                00000 00010  1824             =@SYSRTN  RECORD BEGIN
 000000                             1832  1          =@SYSPARS   DS    4A            Parameters
 000010                00010 00010  1833             =         END   ,
-                                   1843             =*
                                    1844             =* PERSET -- Set the Per registers
                                    1845             =*
0000000                00000 0000C  1847             =@PERSET  RECORD BEGIN
 000000                             1855  1          =@PERSDAT   DS    3F            3 Registers (corresponds to CRs 9-11)
 00000C                0000C 0000C  1856             =         END   ,
-                                   1866             =*
                                    1867             =* MONSET -- Set the MON masks
                                    1868             =*
0000000                00000 00002  1870             =@MONSET  RECORD BEGIN
 000000                             1878  1          =@MONSDAT   DS    H             Monitor Class Mask
 000002                00002 00002  1879             =         END   ,
-                                   1889             =*
                                    1890             =* DSPSTAT -- Return Dispatcher Statistics
1SYSTEM   (SYST00) (09:44) (22MAR04) System Address Space                                                                   Page   13
0Current Usings:  (PZERO,R0)
0Loc    Object Code    Addr1 Addr2  Stmt Lv Lineno    Source Statement           (Hibal 5, Asmedit 3.3)  HLASM R4.0  2004/03/22 09.44
+___    ______ ____    _____ _____  ____ __ ______    ______ _________
0                                   1891             =*
0000000                00000 00020  1893             =@DSPSTAT RECORD BEGIN
 000000                             1901  1          =@DSPSST    DS    D             TOD clock when system started
 000008                             1902  1          =@DSPSCHG   DS    D             Total CPU time charged (TOD)
 000010                             1903  1          =@DSPSDSP   DS    D             Dispatch CPU time (TOD)
 000018                             1904  1          =@DSPSIOS   DS    D             I/O Service time (TOD)
 000020                00020 00020  1905             =         END   ,
1SYSTEM   (SYST00) (09:44) (22MAR04) System Address Space                                                                   Page   14
0Current Usings:  (PZERO,R0)
0Loc    Object Code    Addr1 Addr2  Stmt Lv Lineno    Source Statement           (Hibal 5, Asmedit 3.3)  HLASM R4.0  2004/03/22 09.44
+___    ______ ____    _____ _____  ____ __ ______    ______ _________
0                                   1915      15.              COPY  LOCKPARM
                                    1916             =*******************************************************************
                                    1917             =*                                                                 *
                                    1918             =*    LOCKPARM - Lock routine calling parms                        *
                                    1919             =*                                                                 *
                                    1920             =*******************************************************************
0000000                00000 00011  1922             =@LOCKCRE RECORD BEGIN
 000000                             1930  1          =@LOCKNAM   DS    CL16          Name of the lock
 000010 00                          1931  1          =@LOCKFL    FLAG  ,
 @LOCKFL.@LFSPIN   80 ONES          1935  1          =           FLAG  @LFSPIN       Spin type lock
 000011                00011 00011  1940             =         END   ,
                                    1949             =*
 000000                00000 00004  1950             =@LOCKS   RECORD BEGIN
 000000                             1958  1          =@LOCKID    DS    A             Lock id
 000004                00004 00004  1959             =         END   ,
1SYSTEM   (SYST00) (09:44) (22MAR04) System Address Space                                                                   Page   15
0Current Usings:  (PZERO,R0)
0Loc    Object Code    Addr1 Addr2  Stmt Lv Lineno    Source Statement           (Hibal 5, Asmedit 3.3)  HLASM R4.0  2004/03/22 09.44
+___    ______ ____    _____ _____  ____ __ ______    ______ _________
0                                   1969      17.              COPY  IOSIPARM
 000000                00000 00004  1970             =@IOSASC  RECORD BEGIN                  Address space init
 000000                             1978  1          =@IOASCAS   DS    A                       ASB for this addr space
 000004                00004 00004  1979             =         END   ,
1SYSTEM   (SYST00) (09:44) (22MAR04) System Address Space                                                                   Page   16
0Current Usings:  (PZERO,R0)
0Loc    Object Code    Addr1 Addr2  Stmt Lv Lineno    Source Statement           (Hibal 5, Asmedit 3.3)  HLASM R4.0  2004/03/22 09.44
+___    ______ ____    _____ _____  ____ __ ______    ______ _________
0                                   1989      19.              COPY  TIMEPARM
                                    1990             =*****************************************************************
                                    1991             =*                                                               *
                                    1992             =*  TIMEPARM -- Parameters for the timer routines.               *
                                    1993             =*                                                               *
                                    1994             =*****************************************************************
-                                   1996             =*
                                    1997             =* Start a Real-time timer
                                    1998             =*
0000000                00000 00018  2000             =@RTSET   RECORD BEGIN
 000000                             2008  1          =@RTSCLK    DS    D             Time of day or interval in TOD format
 000008 00                          2009  1          =@RTSFLG    FLAG  ,             Request flags
 @RTSFLG.@RTSFINT  80 ONES          2013  1          =           FLAG  @RTSFINT       Interval timer
 00000C                             2018  1          =@RTSXIT    DS    A             ID of the Exit request
 000010                             2019  1          =@RTSPARM   DS    2A            Parms passed to the exit
 000018                00018 00018  2020             =         END   ,
-                                   2030             =*
                                    2031             =* Cancel (RTCAN) Or Check (RTCHK) a Real-time timer
                                    2032             =*
0000000                00000 00020  2034             =@RTCNCK  RECORD BEGIN        Cancel or Check
 000000                             2042  1          =@RTCID     DS    A             ID of the Timer
 000008                             2043  1          =@RTCCLK    DS    D             Interval until the clock expires
 000010                             2044  1          =@RTCPARM   DS    4A            Same as the parm area in exit
 000020                00020 00020  2045             =         END   ,
-                                   2055             =*
                                    2056             =* Layout of parms passed to the Real time timer exit
                                    2057             =*
0000000                00000 00010  2059             =RTEXIT   RECORD BEGIN
 000000                             2067  1          =RTXTID     DS    A             ID of the timer
 000004                             2068  1          =RTXXID     DS    A             ID of the timer Exit
 000008                             2069  1          =RTXPARM    DS    2A            Parms set when the timer was set
 000010                00010 00010  2070             =         END   ,
-                                   2080             =*
                                    2081             =* Start a CPU-time timer
                                    2082             =*
0000000                00000 00014  2084             =@CPSET   RECORD BEGIN
 000000                             2092  1          =@CPSCLK    DS    D             Time of day or interval in TOD format
 000008                             2093  1          =@CPSXIT    DS    A             ID of the Exit request
 00000C                             2094  1          =@CPSPARM   DS    2A            Parms passed to the exit
 000014                00014 00014  2095             =         END   ,
1SYSTEM   (SYST00) (09:44) (22MAR04) System Address Space                                                                   Page   17
0Current Usings:  (PZERO,R0)
0Loc    Object Code    Addr1 Addr2  Stmt Lv Lineno    Source Statement           (Hibal 5, Asmedit 3.3)  HLASM R4.0  2004/03/22 09.44
+___    ______ ____    _____ _____  ____ __ ______    ______ _________
0                                   2105             =*
                                    2106             =* Cancel (CPCAN) Or Check (CPCHK) a CPU-time timer
                                    2107             =*
0000000                00000 00020  2109             =@CPCNCK  RECORD BEGIN        Cancel or Check
 000000                             2117  1          =@CPCID     DS    A             ID of the Timer
 000008                             2118  1          =@CPCCLK    DS    D             Interval until the clock expires
 000010                             2119  1          =@CPCPARM   DS    4A            Same as the parm area in exit
 000020                00020 00020  2120             =         END   ,
-                                   2130             =*
                                    2131             =* Layout of parms passed to the CPU-time timer exit
                                    2132             =*
0000000                00000 00010  2134             =CPEXIT   RECORD BEGIN
 000000                             2142  1          =CPXTID     DS    A             ID of the timer
 000004                             2143  1          =CPXXID     DS    A             ID of the timer Exit
 000008                             2144  1          =CPXPARM    DS    2A            Parms set when the timer was set
 000010                00010 00010  2145             =         END   ,
1SYSTEM   (SYST00) (09:44) (22MAR04) System Address Space                                                                   Page   18
0Current Usings:  (PZERO,R0)
0Loc    Object Code    Addr1 Addr2  Stmt Lv Lineno    Source Statement           (Hibal 5, Asmedit 3.3)  HLASM R4.0  2004/03/22 09.44
+___    ______ ____    _____ _____  ____ __ ______    ______ _________
0                                   2155      21.              COPY  VMPARM
                                    2156             =*******************************************************************
                                    2157             =*                                                                 *
                                    2158             =*    Memory parms for inside the virtual machine.                 *
                                    2159             =*                                                                 *
                                    2160             =*******************************************************************
-000000                00000 0000B  2162             =@VMGET   RECORD BEGIN        Parm area for getting virtual memory
 000000                             2170  1          =@VMGLEN    DS    A             Amount of memory needed
 000004                             2171  1          =@VMGDAT    DS    A             More data. Address or maxlen.
 000008                             2172  1          =@VMGPOOL   DS    H             Pool/Subpool to get the memory from
 00000A 00                          2173  1          =@VMGFLG    FLAG  ,
 @VMGFLG.@VMGPAGE  80 ONES          2177  1          =           FLAG  @VMGPAGE      Page Aligned
 @VMGFLG.@VMGONEP  40 ONES          2182  1          =           FLAG  @VMGONEP      Don't cross page boundary
 00000B                0000B 0000B  2187             =         END   ,
-000000                00000 0000A  2197             =@VMFREE  RECORD BEGIN        Used for VMFREE and VMCHECK
 000000                             2205  1          =@VMFLOC    DS    A             Location of the storage to free
 000004                             2206  1          =@VMFLEN    DS    A             Amount to free
 000008                             2207  1          =@VMFPOOL   DS    H             Pool/Subpool where the storage lives
 00000A                0000A 0000A  2208             =         END   ,
-000000                00000 00009  2218             =@VMINFO  RECORD BEGIN        Returns User address limits/hash val
 000000                             2226  1          =@VMIUST    DS    A             Start of the user address space
 000004                             2227  1          =@VMIULEN   DS    A             Length of the user address space
 000008                             2228  1          =@VMITRSH   DS    X             Trash value
 000009                00009 00009  2229             =         END   ,
1SYSTEM   (SYST00) (09:44) (22MAR04) System Address Space                                                                   Page   19
0Current Usings:  (PZERO,R0)
0Loc    Object Code    Addr1 Addr2  Stmt Lv Lineno    Source Statement           (Hibal 5, Asmedit 3.3)  HLASM R4.0  2004/03/22 09.44
+___    ______ ____    _____ _____  ____ __ ______    ______ _________
0                                   2239      23.              COPY  PAGEPARM
                                    2240             =*
                                    2241             =*  Page fault return codes
                                    2242             =*
                                    2243             =@PFRINP  EQU   0                       Fault in progress
                                    2244             =@PFRADDR EQU   4                       Addressing exception
                                    2245             =@PFROK   EQU   8                       Fault resolved
                                    2246             =@PFRWAIT EQU   12                      Must wait for some resource
0000000                00000 00005  2248             =@PAGSWAP RECORD BEGIN
 000000                             2256  1          =@SWASB     DS    A                       Address of ASB being swapped
                                    2257  1          =* -- Return parameters --
 000004 00                          2258  1          =@SWFLG     FLAG  ,
 @SWFLG.@SWFINP    00 EQ            2262  1          =           FLAG  (@SWFINP,0,EQ)          Swap in progress
 @SWFLG.@SWFOK     04 EQ            2272  1          =           FLAG  (@SWFOK,4,EQ)           Swap done now
 @SWFLG.@SWFWAIT   08 EQ            2282  1          =           FLAG  (@SWFWAIT,8,EQ)         Must wait for some resource
 000005                00005 00005  2292             =         END   ,
0000000                00000 00004  2302             =@PAGSWADV RECORD BEGIN                 Give swap advice
 000000                             2310  1          =@ADVASB    DS    A                       ASB of advice
 000004                00004 00004  2311             =         END   ,
0000000                00000 0000D  2321             =@PAGWSMA RECORD BEGIN                  Working Set management
 000000                             2329  1          =@WSASB     DS    A                       ASB of AS to be managed
 000004                             2330  1          =@WSINT     DS    A                       Number of elapsed intervals
 000008                             2331  1          =@WSLIMIT   DS    A                       Maximum number of frames
 00000C 00                          2332  1          =@WSFLG     FLAG  ,
 @WSFLG.@WSFGLOB   80 ONES          2336  1          =           FLAG  @WSFGLOB                Manage Global AS
 00000D                0000D 0000D  2341             =         END   ,
0000000                00000 0000A  2351             =@PAGDEF  RECORD BEGIN                  Define a page
 000000                             2359  1          =@PDADDR    DS    A                       Page VA
 000004                             2360  1          =@PDLEN     DS    A                       Length of definition (bytes)
 000008                             2361  1          =@PDKEY     DS    X                       Storage key (+ key protect)
                                    2362  1          =* @PDHASH  DS    X                       Hash value for page
 000009 00                          2363  1          =@PDF1      FLAG  @PDFGLOB                In global memory
 @PDF1.@PDFGLOB    80 ONES
 @PDF1.@PDFPROT    40 ONES          2369  1          =           FLAG  @PDFPROT                Page table protection
 00000A                0000A 0000A  2374             =         END   ,
0000000                00000 0000A  2384             =@PAGSEGD RECORD BEGIN                  Define a segment
 000000                             2392  1          =@SDADDR    DS    A                       Segment address
 000004                             2393  1          =@SDLEN     DS    A                       Length of definition (bytes)
 000008                             2394  1          =@SDHASH    DS    X                       Hash value for segment
 000009 00                          2395  1          =@SDF1      FLAG  @SDFGLOB                In global memory
 @SDF1.@SDFGLOB    80 ONES
 00000A                0000A 0000A  2401             =         END   ,
0000000                00000 00008  2411             =@PAGASC1 RECORD BEGIN
 000000                             2419  1          =@ASCASB    DS    A                       ASB for AS being created
 000004                             2420  1          =@ASCWSLM   DS    A                       Maximum size of working set
 000008                00008 00008  2421             =         END   ,
0000000                00000 00005  2431             =@PAGASC2 RECORD BEGIN                  Address space creation
1SYSTEM   (SYST00) (09:44) (22MAR04) System Address Space                                                                   Page   20
0Current Usings:  (PZERO,R0)
0Loc    Object Code    Addr1 Addr2  Stmt Lv Lineno    Source Statement           (Hibal 5, Asmedit 3.3)  HLASM R4.0  2004/03/22 09.44
+___    ______ ____    _____ _____  ____ __ ______    ______ _________
0000000                             2439  1          =@ASCVA     DS    A                       Virtual address of 1st PT
 000004                             2440  1          =@ASCKEY    DS    X                       Storage key (+ key protect)
 000005                00005 00005  2441             =         END   ,
0000000                00000 00009  2451             =@PAGE    RECORD BEGIN                  General paging routine parms
 000000                             2459  1          =@PAGLOC    DS    A                       Virtual address
 000004                             2460  1          =@PAGLEN    DS    A                       Length (in bytes)
 000008                             2461  1          =@PAGKEY    DS    X                       Key - where required
                                    2462  1          =@PAGHASH   EQU   @PAGKEY                 Hash - where required
 000009                00009 00009  2463             =         END   ,
0000000                00000 00008  2473             =@PAGRV   RECORD BEGIN                  Real to virtual translation
 000000                             2481  1          =@PAGRVAD   DS    A                       Real addr to be translated
                                    2482  1          =* -- Return parms --
 000004                             2483  1          =@PAGRVASB   DS   A                       Address space block
 000008                00008 00008  2484             =         END   ,
0000000                00000 00004  2494             =@PAGINTV RECORD BEGIN                  Paging management interval
 000000                             2502  1          =@PAGINT    DS    A                       Number of intervals in cycle
 000004                00004 00004  2503             =         END   ,
0000000                00000 00008  2513             =@PAGINIT RECORD BEGIN                  Global initialization
 000000                             2521  1          =@PAGIASB   DS    A                       Global ASB address
 000004                             2522  1          =@PAGIMEG   DS    A                       Maximum number of bytes in VA
 000008                00008 00008  2523             =         END   ,
1SYSTEM   (SYST00) (09:44) (22MAR04) System Address Space                                                                   Page   21
0Current Usings:  (PZERO,R0)
0Loc    Object Code    Addr1 Addr2  Stmt Lv Lineno    Source Statement           (Hibal 5, Asmedit 3.3)  HLASM R4.0  2004/03/22 09.44
+___    ______ ____    _____ _____  ____ __ ______    ______ _________
0                                   2533      25.              COPY  XITPARM
                                    2534             =*****************************************************************
                                    2535             =*                                                               *
                                    2536             =*  XITPARM --  Parameters for the routines dealing with exit    *
                                    2537             =*              routine definition and execution.                *
                                    2538             =*                                                               *
                                    2539             =*****************************************************************
-                                   2541             =*
                                    2542             =*  @EXRADD -- Define a new exit routine.
                                    2543             =*
0000000                00000 00015  2545             =@EXRADD  RECORD BEGIN
 000000                             2553  1          =@EXRTYPE   DS    A             Exit type bit map
 000004                             2554  1          =@EXRQUAL   DS    A             Exit Qualifier
 000008                             2555  1          =@EXRPSW    DS    D             Exit PSW
 000010                             2556  1          =@EXRPARM   DS    A             Parm for the exit
 000014 00                          2557  1          =@EXRAFLG   FLAG  ,
 @EXRAFLG.@EXRAFQ  80 ONES          2561  1          =           FLAG  @EXRAFQ       Exit should be qualified
 @EXRAFLG.@EXRAFS  40 ONES          2566  1          =           FLAG  @EXRAFS       System exit (entered with a stack)
 000015                00015 00015  2571             =         END   ,
-                                   2581             =*
                                    2582             =*  @EXRDEL -- Remove an exit routine definition.
                                    2583             =*
0000000                00000 00004  2585             =@EXRDEL  RECORD BEGIN
 000000                             2593  1          =@EXRDID    DS    A             Exit routine ID
 000004                00004 00004  2594             =         END   ,
-                                   2604             =*
                                    2605             =*  @EXRDONE -- Complete exit processing.
                                    2606             =*
0000000                00000 00001  2608             =@EXRDONE RECORD BEGIN
 000000 00                          2616  1          =@EXRDCD    FLAG  ,
 @EXRDCD.@EXRDFIN  00 EQ            2620  1          =           FLAG  (@EXRDFIN,0,EQ)         No further processing needed
 @EXRDCD.@EXRDNXT  01 EQ            2630  1          =           FLAG  (@EXRDNXT,1,EQ)         Percolate the exit request
 000001                00001 00001  2640             =         END   ,
-                                   2650             =*
                                    2651             =*  @XITNEW -- Define a new exit request.
                                    2652             =*
0000000                00000 00001  2654             =@XITNEW  RECORD BEGIN
 000000 00                          2662  1          =@XITNFL    FLAG  ,
 @XITNFL.@XITNFG   80 ONES          2666  1          =           FLAG  @XITNFG       Global exit request
 000001                00001 00001  2671             =         END   ,
1SYSTEM   (SYST00) (09:44) (22MAR04) System Address Space                                                                   Page   22
0Current Usings:  (PZERO,R0)
0Loc    Object Code    Addr1 Addr2  Stmt Lv Lineno    Source Statement           (Hibal 5, Asmedit 3.3)  HLASM R4.0  2004/03/22 09.44
+___    ______ ____    _____ _____  ____ __ ______    ______ _________
0                                   2681             =*
                                    2682             =*  @XITDEL -- Delete an exit request
                                    2683             =*
0000000                00000 00004  2685             =@XITDEL  RECORD BEGIN
 000000                             2693  1          =@XITDID    DS    A             Exit request ID
 000004                00004 00004  2694             =         END   ,
-                                   2704             =*
                                    2705             =*  @XITDO -- Schedule an exit.
                                    2706             =*
 000000                00000 00020  2707             =@XITDO   RECORD BEGIN
 000000                             2715  1          =@XITRQID   DS    A             Request ID (from XITNEW)
 000004                             2716  1          =@XITTSK    DS    A             Task Id where this exit is to run
 000008                             2717  1          =@XITTYPE   DS    X             Exit type (Integer)
 00000C                             2718  1          =@XITQUAL   DS    A             Exit qualifier
 000010                             2719  1          =@XITPARM   DS    XL16          Exit parameter area
 000020                00020 00020  2720             =         END   ,
-                                   2730             =*
                                    2731             =*  @XITGPST -- Info about the status of the previous level of control
                                    2732             =*              used by XITGST and XITPST
                                    2733             =*
0000000                00000 00068  2735             =@XITGPST RECORD BEGIN
 000000                             2743  1          =@XITSPSW   DS    D             PSW
 000008                             2744  1          =@XITSGPR   DS    16F           GPRs
 000048                             2745  1          =@XITSFPR   DS    4D            FPRs
 000068                00068 00068  2746             =         END   ,
-                                   2756             =*
                                    2757             =*  @XITMASK -- Modify the current exit mask
                                    2758             =*
0000000                00000 00005  2760             =@XITMASK RECORD BEGIN
 000000                             2768  1          =@XITMSK    DS    A             Bit mask of the data
 000004 00                          2769  1          =@XITMREQ   FLAG  ,             Request type
 @XITMREQ.@XITMSO  00 EQ            2773  1          =           FLAG  (@XITMSO,0,EQ)  OR this data into the mask
 @XITMREQ.@XITMSN  01 EQ            2783  1          =           FLAG  (@XITMSN,1,EQ)  AND this data into the mask
 @XITMREQ.@XITMSS  02 EQ            2793  1          =           FLAG  (@XITMSS,2,EQ)  Store this data into the mask
 000005                00005 00005  2803             =         END   ,
-                                   2813             =*
                                    2814             =* Definition of the types of exits
                                    2815             =*
0                                   2817             =XITTPI   EQU    0          * Program interrupt
                                    2818             =XITTSVC  EQU    1          * Supervisor Call
                                    2819             =XITTRTC  EQU    2            Real time clock expiration
                                    2820             =XITTCTC  EQU    3            CPU time clock expiration
1SYSTEM   (SYST00) (09:44) (22MAR04) System Address Space                                                                   Page   23
0Current Usings:  (PZERO,R0)
0Loc    Object Code    Addr1 Addr2  Stmt Lv Lineno    Source Statement           (Hibal 5, Asmedit 3.3)  HLASM R4.0  2004/03/22 09.44
+___    ______ ____    _____ _____  ____ __ ______    ______ _________
0                                   2821             =XITTPER  EQU    4            Program Event
                                    2822             =XITTMON  EQU    5            Monitor Call
                                    2823             =XITTLGO  EQU    6            Logoff
                                    2824             =XITTR07  EQU    7            -- reserved --
                                    2825             =XITTATTN EQU    8            Attention
                                    2826             =XITTIOCN EQU    9            I/O Completed normally
                                    2827             =XITTIOCA EQU   10            I/O Completed abnormally
-                                   2829             =*
                                    2830             =* Definition of the exit mask
                                    2831             =*
0000000                00000 00004  2833             =XITMSKD  RECORD BEGIN
                                    2841  1          =
 000000 00                          2842  1          =MITMK1     FLAG  ,             First byte of the mask
 MITMK1.XITMPI     80 ONES          2846  1          =           FLAG  XITMPI          Program interrupt
 MITMK1.XITMSVC    40 ONES          2851  1          =           FLAG  XITMSVC         Supervisor Call
 MITMK1.XITMRTC    20 ONES          2856  1          =           FLAG  XITMRTC         Real time clock expiration
 MITMK1.XITMCTC    10 ONES          2861  1          =           FLAG  XITMCTC         CPU time clock expiration
 MITMK1.XITMPER    08 ONES          2866  1          =           FLAG  XITMPER         Program Event
 MITMK1.XITMMON    04 ONES          2871  1          =           FLAG  XITMMON         Monitor Call
 MITMK1.XITMLGO    02 ONES          2876  1          =           FLAG  XITMLGO         Logoff
 MITMK1.XITMR07    01 ONES          2881  1          =           FLAG  XITMR07         -- reserved --
                                    2886  1          =
 000001 00                          2887  1          =MITMK2     FLAG  ,             Second byte of the mask
 MITMK2.XITMATTN   80 ONES          2891  1          =           FLAG  XITMATTN        Attention
 MITMK2.XITMIOCN   40 ONES          2896  1          =           FLAG  XITMIOCN        I/O Completed normally
 MITMK2.XITMIOCA   20 ONES          2901  1          =           FLAG  XITMIOCA        I/O Completed abnormally
                                    2906  1          =
 000002 00                          2907  1          =MITMK3     FLAG  ,             Third byte of the mask
                                    2911  1          =
 000003 00                          2912  1          =MITMK4     FLAG  ,             Fourth byte of the mask
 000004                00004 00004  2916             =         END   ,
-                                   2926             =*
                                    2927             =* Definition of Exit routine entry data area
                                    2928             =*
0000000                00000 00004  2930             =@XITDATA RECORD BEGIN
 000000                             2938  1          =@XITDSA    DS    A             Pointer to XITSAREA (exit status area)
 000004                00004 00004  2939             =         END   ,
-                                   2949             =*
                                    2950             =* Definition of the Exit Status area
                                    2951             =*
0000000                00000 0001C  2953             =XITSAREA RECORD BEGIN
 000000                             2961  1          =XITSRPRM   DS    A             Parm value for the Routine
 000004                             2962  1          =XITSTYPE   DS    X             Type of the exit
 000008                             2963  1          =XITSQUAL   DS    A             Exit Qualifier
 00000C                             2964  1          =XITSXPRM   DS    XL16          Exit parameter area
1SYSTEM   (SYST00) (09:44) (22MAR04) System Address Space                                                                   Page   24
0Current Usings:  (PZERO,R0)
0Loc    Object Code    Addr1 Addr2  Stmt Lv Lineno    Source Statement           (Hibal 5, Asmedit 3.3)  HLASM R4.0  2004/03/22 09.44
+___    ______ ____    _____ _____  ____ __ ______    ______ _________
000001C                0001C 0001C  2965             =         END   ,
1SYSTEM   (SYST00) (09:44) (22MAR04) System Address Space                                                                   Page   25
0Current Usings:  (PZERO,R0)
0Loc    Object Code    Addr1 Addr2  Stmt Lv Lineno    Source Statement           (Hibal 5, Asmedit 3.3)  HLASM R4.0  2004/03/22 09.44
+___    ______ ____    _____ _____  ____ __ ______    ______ _________
0                                   2975      27.              COPY  SEXIPARM
                                    2976             =*****************************************************************
                                    2977             =*                                                               *
                                    2978             =*  SEXIPARM -- Parameters on entry to System EXIt routines.     *
                                    2979             =*              These dsects define the layout of the parameter  *
                                    2980             =*              area (XITSXPRM) containd in the dsect XITSAREA   *
                                    2981             =*              whose address is passed to the exit routine.     *
                                    2982             =*                                                               *
                                    2983             =*****************************************************************
-                                   2985             =*
                                    2986             =* Supervisor Call Information
                                    2987             =*
0000000                00000 00004  2989             =SEXITSVC RECORD BEGIN
 000000                             2997  1          =SXISILC    DS    H             Supervisor Call Instruction length
 000002                             2998  1          =SXISNUM    DS    H             Supervisor Call number
 000004                00004 00004  2999             =         END   ,
-                                   3009             =*
                                    3010             =* Program Interrupt Information
                                    3011             =*
0000000                00000 00008  3013             =SEXITPI  RECORD BEGIN
 000000                             3021  1          =SXIPILC    DS    H             Instruction Length
 000002                             3022  1          =SXIPCODE   DS    H             Interrupt code
 000004                             3023  1          =SXIPEXA    DS    A             Exception address (codes 16 & 17)
 000008                00008 00008  3024             =         END   ,
-                                   3034             =*
                                    3035             =* Program Event Recording Information
                                    3036             =*
0000000                00000 00008  3038             =SEXITPER RECORD BEGIN
 000000                             3046  1          =SXIEILC    DS    H             Instruction Length
 000002                             3047  1          =SXIECODE   DS    H             PER Code
 000004                             3048  1          =SXIEPERA   DS    A             PER Address
 000008                00008 00008  3049             =         END   ,
-                                   3059             =*
                                    3060             =* Monitor Call Information
                                    3061             =*
0000000                00000 00008  3063             =SEXITMC  RECORD BEGIN
 000000                             3071  1          =SXIMILC    DS    H             Instruction Length
 000002                             3072  1          =SXIMCLA    DS    H             Monitor Class
 000004                             3073  1          =SXIMCODE   DS    A             Monitor Code
 000008                00008 00008  3074             =         END   ,
1SYSTEM   (SYST00) (09:44) (22MAR04) System Address Space                                                                   Page   26
0Current Usings:  (PZERO,R0)
0Loc    Object Code    Addr1 Addr2  Stmt Lv Lineno    Source Statement           (Hibal 5, Asmedit 3.3)  HLASM R4.0  2004/03/22 09.44
+___    ______ ____    _____ _____  ____ __ ______    ______ _________
0                                   3084      29.              COPY  PARMPARM
                                    3085             =*********************************************************************
                                    3086             =*                                                                   *
                                    3087             =*          Parameters to obtain initialization parameters           *
                                    3088             =*                                                                   *
                                    3089             =*********************************************************************
0000000                00000 00010  3091             =@PARMDO  RECORD BEGIN
 000000                             3099  1          =@PARILOC   DS    A                       Input location
 000004                             3100  1          =@PARILEN   DS    A                       | length
 000008                             3101  1          =@PAROLOC   DS    A                       Output location
 00000C                             3102  1          =@PAROLEN   DS    A                       | length
 000010                00010 00010  3103             =         END   ,
0000000                00000 00004  3113             =PARMIN   RECORD BEGIN
 000000 00                          3121  1          =PARMTYPE   FLAG  ,
 PARMTYPE.PARMFSTR 00 EQ            3125  1          =           FLAG  (PARMFSTR,0,EQ)         Return a string
 PARMTYPE.PARMFINT 04 EQ            3135  1          =           FLAG  (PARMFINT,4,EQ)         Return an integer
 PARMTYPE.PARMFYN  08 EQ            3145  1          =           FLAG  (PARMFYN,8,EQ)          Return Yea or Nay
 PARMTYPE.PARMFFLT 0C EQ            3155  1          =           FLAG  (PARMFFLT,12,EQ)        Return a floating point
 000001                             3165  1          =           DS    3X                      - Available -
 000004                             3166  1          =PARMKEYS   DS    0A                      Start of 8 byte keys
 000004                00004 00004  3167             =         END   ,
1SYSTEM   (SYST00) (09:44) (22MAR04) System Address Space                                                                   Page   27
0Current Usings:  (PZERO,R0)
0Loc    Object Code    Addr1 Addr2  Stmt Lv Lineno    Source Statement           (Hibal 5, Asmedit 3.3)  HLASM R4.0  2004/03/22 09.44
+___    ______ ____    _____ _____  ____ __ ______    ______ _________
0000000                00000 00028  3177      31.     SYSCB    RECORD BEGIN
 000000 E2E8E2C3C2404040            3185  1   32.     SYSCBID    DC    CL8'SYSCB'
 000008                             3186  1   33.     SYSSMFI    DS    D                       SMF interval - TOD fmt
 000010                             3187  1   34.     SYSGWSI    DS    D                       Global WS interval - TOD fmt
 000018                             3188  1   35.     SYSFRAI    DS    D                       Real frame interval - TOD fmt
 000020                             3189  1   36.     SYSFRACT   DS    A                       Number of intervals
 000024                             3190  1   37.     SYSFRAN    DS    A                       Intervals remaining
 000028                00028 00028  3191      38.              END   ,
-
0000000                00000 00048  3201      40.     SYSPARM  RECORD BEGIN
 000000                             3209  1   41.     SYSPIFLG   DS    XL(L'PARMIN)
 000004                             3210  1   42.     SYSPKEY1   DS    CL8                     1st keyword
 00000C                             3211  1   43.     SYSPKEY2   DS    CL8                     2nd keyword
                                    3212  1   44.     SYSPIN     EQU   SYSPIFLG,*-SYSPIFLG,C'R'
 000014                             3213  1   45.     SYSPOUT    DS    A                       Output area
 000018                             3214  1   46.                DS    A                       - Available -
 000020                             3215  1   47.     FLTWRK     DS    D                       Floating point work area
 000028                             3216  1   48.     FPR0       DS    D                       Floating point save area
 000030                             3217  1   49.     FPR2       DS    D                       |
 000038                             3218  1   50.     FPR4       DS    D                       |
 000040                             3219  1   51.     FPR6       DS    D                       |
 000048                00048 00048  3220      52.              END   ,                       OF SYSPARM record
1SYSTEM   (SYST00) (09:44) (22MAR04) System Address Space                                                                   Page   28
0Current Usings:  (PZERO,R0)
0Loc    Object Code    Addr1 Addr2  Stmt Lv Lineno    Source Statement           (Hibal 5, Asmedit 3.3)  HLASM R4.0  2004/03/22 09.44
+___    ______ ____    _____ _____  ____ __ ______    ______ _________
0                                   3230      54.     *****************************************************************
                                    3231      55.     *                                                               *
                                    3232      56.     *  SYSTASK --  This is the initial code for the system address  *
                                    3233      57.     *              space.  It completes the initialization steps    *
                                    3234      58.     *              that must be done under and address space.       *
                                    3235      59.     *                                                               *
                                    3236      60.     *   Input  --  none                                             *
                                    3237      61.     *                                                               *
                                    3238      62.     *  Output  --  none                                             *
                                    3239      63.     *                                                               *
                                    3240      64.     *****************************************************************
-000016                             3242      66.     SYSTASK  PROC  SCOPE=GLOBAL
 000016 E2E8E2E3C1E2D240            3248             +
 00001E 0000/0000                   3249             +
 000022 900F D004/18AF       00004  3251             +
 USING  SYSTASK,R10
 000028 50D0 C000/18CD       00000  3266             +
 00002E 9680 C000      00000        3268             +
 000032 41D0 C048            00048  3269             +
                                    3270      67.     *
                                    3271      68.     *  Set address space as non swappable
                                    3272      69.     *
 USING  @DISPSWP-72,R13             3273      70.              PSET  @DISPSWP
 000036 D703 D048 D048 00000 00000  3290             +
 00003C 58F0 A5F6/0DEF       00618  3291      71.              VCALL DISPSHLD
                                    3295      72.
 000042 58F0 A5FA/0DEF       0061C  3296      73.              VCALL VMINIT3                 Finish the virtual memory init
 000048 58F0 A5FE/0DEF       00620  3300      74.              VCALL INITDIS3                Finish dispatcher init
 00004E 58F0 A602/0DEF       00624  3304      75.              VCALL PAGINIT2                Finish real memory init
 000054 58F0 A606/0DEF       00628  3308      76.              VCALL ENQINIT                 Initialize the Enq Manager
 00005A 58F0 A60A/0DEF       0062C  3312      77.              VCALL GRINIT                  Init General Resource Manager
 000060 58F0 A60E/0DEF       00630  3316      78.              VCALL M1SVINIT                Initialize Mode 1 services
 000066 58F0 A612/0DEF       00634  3320      79.              VCALL JESINIT                 Initialize JES services
                                    3324      80.     *
                                    3325      81.     *  Init file systems
                                    3326      82.     *
 00006C 58F0 A616/0DEF       00638  3327      83.              VCALL FILEINIT
                                    3331      84.     *
                                    3332      85.     *  Initialize terminals
                                    3333      86.     *
 000072 58F0 A61A/0DEF       0063C  3334      87.              VCALL TERMINIT                Initialize terminal operations
                                    3338      88.     *
                                    3339      89.     *  Initialize network services
                                    3340      90.     *
 000078 58F0 A61E/0DEF       00640  3341      91.              VCALL NETINIT
                                    3345      92.     *
                                    3346      93.     *  Initialize accounting services
                                    3347      94.     *
 00007E 58F0 A622/0DEF       00644  3348      95.              VCALL ACCTINIT                Initialize accounting services
                                    3352      96.     *
                                    3353      97.     *  Page out as many global frames as we can
                                    3354      98.     *
1SYSTEM   (SYST00) (09:44) (22MAR04) System Address Space                                                                   Page   29
0Current Usings:  (PZERO,R0) (SYSTASK,R10) (@PAGWSMA-72,R13)
0Loc    Object Code    Addr1 Addr2  Stmt Lv Lineno    Source Statement           (Hibal 5, Asmedit 3.3)  HLASM R4.0  2004/03/22 09.44
+___    ______ ____    _____ _____  ____ __ ______    ______ _________
0DROP   @DISPSWP-72,R13             3355      99.              PSET  @PAGWSMA
 USING  @PAGWSMA-72,R13
 000084 D70C D048 D048 00000 00000  3375             +
 00008A D203 D04C A626 00004 00648  3376     100.              MVC   @WSINT,=A(1)            One interval
 000090 9680 D054      0000C        3377     101.              SET   @WSFGLOB                Mark it for global
 000094 58F0 A62A/0DEF       0064C  3383     102.              VCALL PAGWSMAN
 00009A                             3387     103.              PSET  @PAGWSMA
 00009A D70C D048 D048 00000 00000  3397             +
 0000A0 D203 D04C A62E 00004 00650  3398     104.              MVC   @WSINT,=A(18)           Enough to push it all out
 0000A6 9680 D054      0000C        3399     105.              SET   @WSFGLOB                Mark it for global
 0000AA 58F0 A62A/0DEF       0064C  3405     106.              VCALL PAGWSMAN                Then do the pushing
                                    3409     107.     *
                                    3410     108.     *  Set up global control block
                                    3411     109.     *
 DROP   @PAGWSMA-72,R13             3412     110.              VMGET L'SYSCB,LOC=GLOBHI,FIX=YES
 USING  @VMGET-72,R13
 0000B0 D70A D048 D048 00000 00000  3439             +
 0000B6 4100 0028            00028  3451             +
 0000BA 5000 D048            00000  3456             +
 0000BE D201 D050 A686 00008 006A8  3457             +
 0000C4 58F0 A632/0DEF       00654  3460             +
 0000CA 1880                        3462     111.              LR    RM,RVR
 0000CC 5820 0200            00200  3463     112.              L     RA,MATPTR
 0000D0 5080 2030            00030  3464     113.              WITH  (MAT,RA),'ST RM,MATSYSCB'        Save our roots
 USING  MAT,R2
 DROP   MAT,R2
 USING  SYSCB,R8                    3488     114.              WITH  (SYSCB,RM),BEGIN        SYSCB addr
 0000D4                             3502  1  115.                CLEAR SYSCB
 0000D4 D727 8000 8000 00000 00000  3508  1          +
 0000DA D207 8000 A5B6 00000 005D8  3509  1  116.                MVC   SYSCBID,=CL8'SYSCB'
 0000E0 D207 8008 A5A6 00008 005C8  3510  1  117.                MVC   SYSSMFI,SMFINT
 0000E6 D207 8010 A59E 00010 005C0  3511  1  118.                MVC   SYSGWSI,GWSINT
 0000EC D207 8018 A5AE 00018 005D0  3512  1  119.                MVC   SYSFRAI,FRAMINT
                                    3513  1  120.     *
                                    3514  1  121.     *  Look for parameters
                                    3515  1  122.     *
 0000F2                             3516  1  123.                VMGET L'SYSPARM,LOC=GLOBHI
 0000F2 D70A D048 D048 00000 00000  3533  1          +
 0000F8 4100 0048            00048  3545  1          +
 0000FC 5000 D048            00000  3550  1          +
 000100 D201 D050 A688 00008 006AA  3551  1          +
 000106 58F0 A632/0DEF       00654  3554  1          +
 00010C 1890                        3556  1  124.                LR    RN,RVR
 USING  SYSPARM,R9                  3557  1  125.                WITH  (SYSPARM,RN)
 AUSING (PARMIN,SYSPIN)             3570  1  126.                WITH  (PARMIN,SYSPIN)
 00010E                             3577  1  127.                CLEAR PARMIN
 00010E D703 9000 9000 00000 00000  3583  1          +
 000114 6000 9028            00028  3584  1  128.                STD   R0,FPR0                 Save floating point regs
 000118 6020 9030            00030  3585  1  129.                STD   R2,FPR2                 |
 00011C 6040 9038            00038  3586  1  130.                STD   R4,FPR4                 |
 000120 6060 9040            00040  3587  1  131.                STD   R6,FPR6                 |
                                    3588  1  132.     *
                                    3589  1  133.     *  Get SMF interval - in seconds
                                    3590  1  134.     *
1SYSTEM   (SYST00) (09:44) (22MAR04) System Address Space                                                                   Page   30
0Current Usings:  (PZERO,R0) (SYSCB,R8) (SYSPARM,R9) (SYSTASK,R10) (@VMGET-72,R13)
0Loc    Object Code    Addr1 Addr2  Stmt Lv Lineno    Source Statement           (Hibal 5, Asmedit 3.3)  HLASM R4.0  2004/03/22 09.44
+___    ______ ____    _____ _____  ____ __ ______    ______ _________
0000124 9204 9000      00000        3591  1  135.                GETPARM2 KEY=(SYSTEM,SMFINT),REGS=(RA,RJ)
 000128 D207 9004 A5BE 00004 005E0  3598  1          +
 00012E D207 900C A5C6 0000C 005E8  3599  1          +
 000134 4140 9000            00000  3606  1          +
 000138 4150 0014            00014  3613  1          +
 00013C 83240016                    3616  1          +
 000140 4770 A140            00162  3617  1  136.                IF    ZERO,BEGIN              SMF Parameter OK
 000144 D207 9020 A596 00020 005B8  3628  2  137.                  MVC   FLTWRK,FLTZERO
 00014A 5020 9024            00024  3629  2  138.                  ST    RA,FLTWRK+4
 00014E 6800 9020            00020  3630  2  139.                  LD    R0,FLTWRK
 000152 6C00 A5CE            005F0  3631  2  140.                  MD    R0,=D'4096E6'           Convert seconds to TOD fmt
 000156 6E00 A596            005B8  3632  2  141.                  AW    R0,FLTZERO              |
 00015A 6000 8008            00008  3633  2  142.                  STD   R0,SYSSMFI              |
 00015E 9200 8008      00008        3634  2  143.                  MVI   SYSSMFI,0               | no exponent
 000162                             3635  1  144.                END   ,                       OF SMF Parameter OK
                                    3639  1  145.     *
                                    3640  1  146.     *  Get global working set interval - mS
                                    3641  1  147.     *
 000162 9204 9000      00000        3642  1  148.                GETPARM2 KEY=(,GBLWSINT),REGS=(RA,RJ)
 000166 D207 900C A5D6 0000C 005F8  3649  1          +
 00016C 4140 9000            00000  3656  1          +
 000170 4150 0014            00014  3663  1          +
 000174 83240016                    3666  1          +
 000178 4770 A178            0019A  3667  1  149.                IF    ZERO,BEGIN              GWS Parameter OK
 00017C D207 9020 A596 00020 005B8  3678  2  150.                  MVC   FLTWRK,FLTZERO
 000182 5020 9024            00024  3679  2  151.                  ST    RA,FLTWRK+4
 000186 6800 9020            00020  3680  2  152.                  LD    R0,FLTWRK
 00018A 6C00 A5DE            00600  3681  2  153.                  MD    R0,=D'4096E3'           Convert mS to TOD fmt
 00018E 6E00 A596            005B8  3682  2  154.                  AW    R0,FLTZERO              |
 000192 6000 8010            00010  3683  2  155.                  STD   R0,SYSGWSI              |
 000196 9200 8010      00010        3684  2  156.                  MVI   SYSGWSI,0               | no exponent
 00019A                             3685  1  157.                END   ,                       OF GWS Parameter OK
                                    3689  1  158.     *
                                    3690  1  159.     *  Get real frame management interval - seconds
                                    3691  1  160.     *
 00019A 9204 9000      00000        3692  1  161.                GETPARM2 KEY=(,FRAMEINT),REGS=(RA,RJ)
 00019E D207 900C A5E6 0000C 00608  3699  1          +
 0001A4 4140 9000            00000  3706  1          +
 0001A8 4150 0014            00014  3713  1          +
 0001AC 83240016                    3716  1          +
 0001B0 4770 A1B0            001D2  3717  1  162.                IF    ZERO,BEGIN              Frame interval Parameter OK
 0001B4 D207 9020 A596 00020 005B8  3728  2  163.                  MVC   FLTWRK,FLTZERO
 0001BA 5020 9024            00024  3729  2  164.                  ST    RA,FLTWRK+4
 0001BE 6800 9020            00020  3730  2  165.                  LD    R0,FLTWRK
 0001C2 6C00 A5CE            005F0  3731  2  166.                  MD    R0,=D'4096E6'           Convert seconds to TOD fmt
 0001C6 6E00 A596            005B8  3732  2  167.                  AW    R0,FLTZERO              |
 0001CA 6000 8018            00018  3733  2  168.                  STD   R0,SYSFRAI              |
 0001CE 9200 8018      00018        3734  2  169.                  MVI   SYSFRAI,0               | no exponent
 0001D2                             3735  1  170.                END   ,                       OF Frame interval Parameter OK
                                    3739  1  171.     *
                                    3740  1  172.     *  Get real frame managemenr interval loop count
                                    3741  1  173.     *    this many loop counts before action is taken on measured stats
                                    3742  1  174.     *
 0001D2 9204 9000      00000        3743  1  175.                GETPARM2 KEY=(,FRAMEINO),REGS=(RA,RJ)
1SYSTEM   (SYST00) (09:44) (22MAR04) System Address Space                                                                   Page   31
0Current Usings:  (PZERO,R0) (SYSCB,R8) (SYSPARM,R9) (SYSTASK,R10) (@VMGET-72,R13)
0Loc    Object Code    Addr1 Addr2  Stmt Lv Lineno    Source Statement           (Hibal 5, Asmedit 3.3)  HLASM R4.0  2004/03/22 09.44
+___    ______ ____    _____ _____  ____ __ ______    ______ _________
00001D6 D207 900C A5EE 0000C 00610  3750  1          +
 0001DC 4140 9000            00000  3757  1          +
 0001E0 4150 0014            00014  3764  1          +
 0001E4 83240016                    3767  1          +
 0001E8 4130 000A            0000A  3768  1  176.                LA    RB,10                   Default
 0001EC 4770 A1D0            001F2  3769  1  177.                IF    ZERO,BEGIN              Frame interval count OK
 0001F0 1832                        3780  2  178.                  LR    RB,RA                   Get parameter
 0001F2                             3781  1  179.                END   ,                       OF Frame interval count OK
 0001F2 5030 8020            00020  3785  1  180.                ST    RB,SYSFRACT             Init counters
 0001F6 5030 8024            00024  3786  1  181.                ST    RB,SYSFRAN              |
                                    3787  1  182.     *
                                    3788  1  183.     *  Restore floating point regs
                                    3789  1  184.     *
 0001FA 6800 9028            00028  3790  1  185.                LD    R0,FPR0                 Restore floating point regs
 0001FE 6820 9030            00030  3791  1  186.                LD    R2,FPR2                 |
 000202 6840 9038            00038  3792  1  187.                LD    R4,FPR4                 |
 000206 6860 9040            00040  3793  1  188.                LD    R6,FPR6                 |
                                    3794  1  189.     *
                                    3795  1  190.     *  Free memory for parameters
                                    3796  1  191.     *
 DROP   @VMGET-72,R13               3797  1  192.                VMFREE A=LA:SYSPARM,L'SYSPARM,LOC=GLOBHI
 USING  @VMFREE-72,R13
 00020A D709 D048 D048 00000 00000  3824  1          +
 000210 4100 0048            00048  3836  1          +
 000214 5000 D04C            00004  3841  1          +
 000218 5090 D048            00000  3852  1          +
 00021C D201 D050 A688 00008 006AA  3853  1          +
 000222 58F0 A636/0DEF       00658  3856  1          +
 DROP   SYSPARM,R9                  3858     193.              END   ,                       OF SYSCB addr
 DROP   SYSCB,R8
                                    3871     194.     *
                                    3872     195.     *  Set up real-time timers
                                    3873     196.     *
 000228 41F0 A352/0DEF       00374  3874     197.              LCALL TIMEINIT
                                    3883     198.     *
                                    3884     199.     *  Tell the operator we're here
                                    3885     200.     *
 00022E 4120 A68A            006AC  3886     201.              LS    RA,RB,'***          *** Ready'
 000232 4130 0016            00016  3888             +
 DROP   @VMFREE-72,R13              3889     202.              VMGET (RB),LOC=GLOBHI
 USING  @VMGET-72,R13
 000236 D70A D048 D048 00000 00000  3916             +
 00023C 5030 D048            00000  3926             +
 000240 D201 D050 A688 00008 006AA  3927             +
 000246 58F0 A632/0DEF       00654  3930             +
 00024C 18E0                        3932     203.              LR    R14,RVR                 Message area
 00024E 18F3                        3933     204.              LR    R15,RB                   and length
 000250 1813                        3934     205.              LR    RS,RB                   Length for move
 000252 0E02                        3935     206.              MVCL  RVR,RA                  Move message in
 000254 5820 0200            00200  3936     207.              L     RA,MATPTR
 USING  MAT,R2                      3937     208.              WITH  (MAT,RA),'MVC  @R14+4(L"MATSNAME),MATSNAME'
 000258 D207 E004 20D4 00004 000D4  3952             +
 DROP   MAT,R2
 00025E 4100 0002            00002  3961     209.              ORVWTO (R14),(R15)
1SYSTEM   (SYST00) (09:44) (22MAR04) System Address Space                                                                   Page   32
0Current Usings:  (PZERO,R0) (SYSTASK,R10) (@VMGET-72,R13)
0Loc    Object Code    Addr1 Addr2  Stmt Lv Lineno    Source Statement           (Hibal 5, Asmedit 3.3)  HLASM R4.0  2004/03/22 09.44
+___    ______ ____    _____ _____  ____ __ ______    ______ _________
0000262 83E00013                    3972             +
 DROP   @VMGET-72,R13               3973     210.              VMFREE (R15),A=(R14),LOC=GLOBHI
 USING  @VMFREE-72,R13
 000266 D709 D048 D048 00000 00000  4000             +
 00026C 50F0 D04C            00004  4010             +
 000270 50E0 D048            00000  4020             +
 000274 D201 D050 A688 00008 006AA  4021             +
 00027A 58F0 A636/0DEF       00658  4024             +
                                    4026     211.     *
                                    4027     212.     *  Create an address space for termination processing
                                    4028     213.     *
 DROP   @VMFREE-72,R13              4029     214.              PSET  @ACREATE
 USING  @ACREATE-72,R13
 000280 D707 D048 D048 00000 00000  4049             +
 000286 D203 D048 A63A 00000 0065C  4050     215.              MVC   @ACRPSW(4),=X'070C0000' Default location
 USING  MAT,R2                      4051     216.              WITH  (MAT,RA),'OC @ACRPSW+1(1),MATSKEY' System Key
 00028C D600 D049 20E0 00001 000E0  4066             +
 DROP   MAT,R2
 000292 D203 D04C A63E 00004 00660  4075     217.              MVC   @ACRPSW+4(4),=A(X'80000000'+SYSTERM)
 000298 58F0 A642/0DEF       00664  4076     218.              VCALL ACREATE                 Create the address space
0DROP   @ACREATE-72,R13             4081     220.              PSET  @SUSPEND
 USING  @SUSPEND-72,R13
 00029E D708 D048 D048 00000 00000  4101             +
 0002A4 58F0 A646/0DEF       00668  4102     221.              VCALL SUSPEND
 0002AA 58F0 A64A/0DEF       0066C  4106     222.              VCALL DISPRD                  Go to sleep
 0002B0 AC04 021B      0021B        4110     223.              ABORT SYSTASK                 If we ever wake up
 0002B4 9680 021A      0021A        4119             +
 0002B8 50F0 021C            0021C  4120             +
 0002BC 58F0 0210            00210  4121             +
 0002C0 89F0 0010            00010  4122             +
 0002C4 88F0 0010            00010  4123             +
 0002C8 41F0 F000            00000  4124             +
 0002CC AEFF 0006            00006  4125             +
 0002D0 E2E8E2E3C1E2D240            4126             +
0DROP   SYSTASK,R10                 4128     225.              PEND  CODE=NO
 DROP   @SUSPEND-72,R13
1SYSTEM   (SYST00) (09:44) (22MAR04) System Address Space                                                                   Page   33
0Current Usings:  (PZERO,R0)
0Loc    Object Code    Addr1 Addr2  Stmt Lv Lineno    Source Statement           (Hibal 5, Asmedit 3.3)  HLASM R4.0  2004/03/22 09.44
+___    ______ ____    _____ _____  ____ __ ______    ______ _________
0                                   4145     227.     *****************************************************************
                                    4146     228.     *                                                               *
                                    4147     229.     *  SYSTERM --  Go to sleep until termination time. Then call    *
                                    4148     230.     *              global termination routines.                     *
                                    4149     231.     *                                                               *
                                    4150     232.     *   Input  --  none                                             *
                                    4151     233.     *                                                               *
                                    4152     234.     *  Output  --  none                                             *
                                    4153     235.     *                                                               *
                                    4154     236.     *****************************************************************
-0002E0                             4156     238.     SYSTERM  PROC  SCOPE=GLOBAL
 0002E0 E2E8E2E3C5D9D440            4162             +
 0002E8 0000/0000                   4163             +
 0002EC 900F D004/18AF       00004  4165             +
 USING  SYSTERM,R10
 0002F2 50D0 C000/18CD       00000  4180             +
 0002F8 9680 C000      00000        4182             +
 0002FC 41D0 C048            00048  4183             +
                                    4184     239.     *
                                    4185     240.     *  Wait until termination time (may be days or weeks)
                                    4186     241.     *
 000300 5820 0200            00200  4187     242.              L     RA,MATPTR
 USING  MAT,R2                      4188     243.              WITH  (MAT,RA),BEGIN
 USING  @AWAIT-72,R13               4202  1  244.                AWAIT MATTECB,TYPE=AS,LEN=LONG
 000304 D704 D048 D048 00000 00000  4220  1          +
 00030A 4100 2040            00040  4232  1          +
 00030E 5000 D048            00000  4237  1          +
 000312 9680 D04C      00004        4243  1          +
 000316 58F0 A384/0DEF       00670  4246  1          +
 DROP   MAT,R2                      4248     245.              END   ,
                                    4256     246.     *
                                    4257     247.     *  Make calls to termination routines
                                    4258     248.     *
 00031C 58F0 A388/0DEF       00674  4259     249.              VCALL FMANTERM                Terminate file processing
0000322 8300001C                    4264     251.              SYSCTL TYPE=DTERMCOM          Signal host that we are done
0DROP   @AWAIT-72,R13               4268     253.              PSET  @SUSPEND
 USING  @SUSPEND-72,R13
 000326 D708 D048 D048 00000 00000  4288             +
 00032C 58F0 A37C/0DEF       00668  4289     254.              VCALL SUSPEND
 000332 58F0 A380/0DEF       0066C  4293     255.              VCALL DISPRD                  Go to sleep
 000338 AC04 021B      0021B        4297     256.              ABORT SYSTERM                 If we ever wake up
 00033C 9680 021A      0021A        4306             +
 000340 50F0 021C            0021C  4307             +
 000344 58F0 0210            00210  4308             +
 000348 89F0 0010            00010  4309             +
 00034C 88F0 0010            00010  4310             +
 000350 41F0 F000            00000  4311             +
 000354 AEFF 0006            00006  4312             +
 000358 E2E8E2E3C5D9D440            4313             +
1SYSTEM   (SYST00) (09:44) (22MAR04) System Address Space                                                                   Page   34
0Current Usings:  (PZERO,R0)
0Loc    Object Code    Addr1 Addr2  Stmt Lv Lineno    Source Statement           (Hibal 5, Asmedit 3.3)  HLASM R4.0  2004/03/22 09.44
+___    ______ ____    _____ _____  ____ __ ______    ______ _________
0DROP   SYSTERM,R10                 4315     258.              PEND  CODE=NO
 DROP   @SUSPEND-72,R13
1SYSTEM   (SYST00) (09:44) (22MAR04) System Address Space                                                                   Page   35
0Current Usings:  (PZERO,R0)
0Loc    Object Code    Addr1 Addr2  Stmt Lv Lineno    Source Statement           (Hibal 5, Asmedit 3.3)  HLASM R4.0  2004/03/22 09.44
+___    ______ ____    _____ _____  ____ __ ______    ______ _________
0                                   4332     260.     *****************************************************************
                                    4333     261.     *                                                               *
                                    4334     262.     *  TIMEINIT --  This routine initializes global timers for      *
                                    4335     263.     *               global routines                                 *
                                    4336     264.     *                                                               *
                                    4337     265.     *   Input  --  @TIMES                                           *
                                    4338     266.     *                                                               *
                                    4339     267.     *  Output  --  none                                             *
                                    4340     268.     *                                                               *
                                    4341     269.     *****************************************************************
-000368                             4343     271.     TIMEINIT PROC  ,
 000368 E3C9D4C5C9D5C9E3            4350             +
 000370 0000/0000                   4351             +
 000374 900F D004/18AF       00004  4353             +
 USING  TIMEINIT,R10
 00037A 50D0 C000/18CD       00000  4368             +
 000380 9680 C000      00000        4370             +
 000384 41D0 C048            00048  4371             +
 000388 5880 0200            00200  4372     272.              L     RM,MATPTR
 00038C 5880 8030            00030  4373     273.              WITH  (MAT,RM),'L RM,MATSYSCB'
 USING  MAT,R8
 DROP   MAT,R8
 USING  SYSCB,R8                    4397     274.              WITH  (SYSCB,RM)
                                    4410     275.     *
                                    4411     276.     *  First establish an exit routine
                                    4412     277.     *
 USING  @EXRADD-72,R13              4413     278.              PSET  @EXRADD
 000390 D714 D048 D048 00000 00000  4430             +
 AUSING (XITMSKD,@EXRTYPE)          4431     279.              WITH  (XITMSKD,@EXRTYPE)
 000396 9620 D048      00000        4438     280.              SET   XITMRTC                 Real time clock only
 00039A D203 D050 A2E8 00008 0065C  4444     281.              MVC   @EXRPSW(4),=X'070C0000'
 0003A0 D203 D054 A304 0000C 00678  4445     282.              MVC   @EXRPSW+4(4),=A(X'80000000'+TIMEDRIV)
 0003A6 9640 D05C      00014        4446     283.              SET   @EXRAFS                 Enter it with a Stack
 0003AA 58F0 A308/0DEF       0067C  4452     284.              VCALL EXRADD                  Add the Exit routine
                                    4456     285.     *
                                    4457     286.     *  Enable the Exit
                                    4458     287.     *
 DROP   @EXRADD-72,R13              4459     288.              PSET  @XITMASK
 USING  @XITMASK-72,R13
 0003B0 D704 D048 D048 00000 00000  4479             +
 AUSING (XITMSKD,@XITMSK)           4480     289.              WITH  (XITMSKD,@XITMSK)
 0003B6 9620 D048      00000        4487     290.              SET   XITMRTC                 Real time-timer
 0003BA 9200 D04C      00004        4493     291.              SET   @XITMSO                 Or it in
 0003BE 58F0 A30C/0DEF       00680  4499     292.              VCALL XITMASK                 Set the mask
                                    4503     293.     *
                                    4504     294.     *  Get a new XIT ID
                                    4505     295.     *
 0003C4 9200 D048      00000        4506     296.              PSET  @XITNEW
 DROP   @XITMASK-72,R13
 USING  @XITNEW-72,R13
 0003C8 58F0 A310/0DEF       00684  4527     297.              VCALL XITNEW
 0003CE 1820                        4531     298.              LR    RA,RVR                  Copy the ID
1SYSTEM   (SYST00) (09:44) (22MAR04) System Address Space                                                                   Page   36
0Current Usings:  (PZERO,R0) (SYSCB,R8) (TIMEINIT,R10) (@XITNEW-72,R13)
0Loc    Object Code    Addr1 Addr2  Stmt Lv Lineno    Source Statement           (Hibal 5, Asmedit 3.3)  HLASM R4.0  2004/03/22 09.44
+___    ______ ____    _____ _____  ____ __ ______    ______ _________
0                                   4532     299.     *
                                    4533     300.     *  Start up the global working set timer
                                    4534     301.     *
 DROP   @XITNEW-72,R13              4535     302.              PSET  @RTSET
 USING  @RTSET-72,R13
 0003D0 D717 D048 D048 00000 00000  4555             +
 0003D6 5020 D054            0000C  4556     303.              ST    RA,@RTSXIT              Tell him the exit ID
 0003DA 9680 D050      00008        4557     304.              SET   @RTSFINT                Interval timer
 0003DE D207 D048 8010 00000 00010  4563     305.              MVC   @RTSCLK,SYSGWSI         Interval
 0003E4 D203 D058 A314 00010 00688  4564     306.              MVC   @RTSPARM(4),=A(GWSMAN)
 0003EA 58F0 A318/0DEF       0068C  4565     307.              VCALL RTSET                   Set the time
                                    4569     308.     *
                                    4570     309.     *  Get a new XIT ID
                                    4571     310.     *
 0003F0 9200 D048      00000        4572     311.              PSET  @XITNEW
 DROP   @RTSET-72,R13
 USING  @XITNEW-72,R13
 0003F4 58F0 A310/0DEF       00684  4593     312.              VCALL XITNEW
 0003FA 1820                        4597     313.              LR    RA,RVR                  Copy the ID
                                    4598     314.     *
                                    4599     315.     *  Set up to call statistics routines on a real-time interval
                                    4600     316.     *
 DROP   @XITNEW-72,R13              4601     317.              PSET  @RTSET
 USING  @RTSET-72,R13
 0003FC D717 D048 D048 00000 00000  4621             +
 000402 5020 D054            0000C  4622     318.              ST    RA,@RTSXIT              Tell him the exit ID
 000406 9680 D050      00008        4623     319.              SET   @RTSFINT                Interval timer
 00040A D207 D048 8008 00000 00008  4629     320.              MVC   @RTSCLK,SYSSMFI         Interval
 000410 D203 D058 A31C 00010 00690  4630     321.              MVC   @RTSPARM(4),=A(SMFCALL)
 000416 58F0 A318/0DEF       0068C  4631     322.              VCALL RTSET                   Set the time
                                    4635     323.     *
                                    4636     324.     *  Get a new XIT ID
                                    4637     325.     *
 00041C 9200 D048      00000        4638     326.              PSET  @XITNEW
 DROP   @RTSET-72,R13
 USING  @XITNEW-72,R13
 000420 58F0 A310/0DEF       00684  4659     327.              VCALL XITNEW
 000426 1820                        4663     328.              LR    RA,RVR                  Copy the ID
                                    4664     329.     *
                                    4665     330.     *  Set up to call real frame management
                                    4666     331.     *
 DROP   @XITNEW-72,R13              4667     332.              PSET  @RTSET
 USING  @RTSET-72,R13
 000428 D717 D048 D048 00000 00000  4687             +
 00042E 5020 D054            0000C  4688     333.              ST    RA,@RTSXIT              Tell him the exit ID
 000432 9680 D050      00008        4689     334.              SET   @RTSFINT                Interval timer
 000436 D207 D048 8018 00000 00018  4695     335.              MVC   @RTSCLK,SYSFRAI         Interval
 00043C D203 D058 A320 00010 00694  4696     336.              MVC   @RTSPARM(4),=A(FRAMCALL)
 000442 58F0 A318/0DEF       0068C  4697     337.              VCALL RTSET                   Set the time
 000448 981F C008            00008  4701     338.              PEND  ,
 DROP   SYSCB,R8
 DROP   TIMEINIT,R10
 00044C 9680 C000/0B0E 00000        4716             +
 DROP   @RTSET-72,R13
1SYSTEM   (SYST00) (09:44) (22MAR04) System Address Space                                                                   Page   37
0Current Usings:  (PZERO,R0)
0Loc    Object Code    Addr1 Addr2  Stmt Lv Lineno    Source Statement           (Hibal 5, Asmedit 3.3)  HLASM R4.0  2004/03/22 09.44
+___    ______ ____    _____ _____  ____ __ ______    ______ _________
0                                   4726     340.     *****************************************************************
                                    4727     341.     *                                                               *
                                    4728     342.     *   TIMEDRIV - This routine is the driver for timer based       *
                                    4729     343.     *              routines.  It is entered when a real time timer  *
                                    4730     344.     *              expires.  It assumes that the first parameter    *
                                    4731     345.     *              is the address of the routine to be called for   *
                                    4732     346.     *              this parameter, and calls that routine.          *
                                    4733     347.     *              The called routine should return the next        *
                                    4734     348.     *              interval to set, if there is one.                *
                                    4735     349.     *                                                               *
                                    4736     350.     *   Input  --  @XITDATA                                         *
                                    4737     351.     *                                                               *
                                    4738     352.     *  Output  --  none                                             *
                                    4739     353.     *                                                               *
                                    4740     354.     *****************************************************************
-000000                00000 00008  4742     356.     @TIMERTN RECORD BEGIN
                                    4750  1  357.     * -- Return parameters --
 000000                             4751  1  358.     @TIMEINT   DS    D                       Interval to set next time
 000008                00008 00008  4752     359.              END   ,
0000452                             4762     361.     TIMEDRIV PROC  @XITDATA
 000452 E3C9D4C5C4D9C9E5            4769             +
 00045A 0008/0000                   4770             +
 00045E 900F D004/18AF       00004  4772             +
 USING  TIMEDRIV,R10
 000464 50D0 C000/18CD       00000  4787             +
 00046A 9680 C000      00000        4789             +
 USING  @XITDATA-72,R12
 00046E 41D0 C050            00050  4803             +
                                    4804     362.     *
                                    4805     363.     *  Find out the info we need
                                    4806     364.     *
 000472 5860 C048            00000  4807     365.              L     RX,@XITDSA              Address of the status area
 USING  XITSAREA,R6                 4808     366.              WITH  (XITSAREA,RX)
 AUSING (RTEXIT,XITSXPRM)           4821     367.              WITH  (RTEXIT,XITSXPRM)       Map the exit parms
                                    4828     368.     *
                                    4829     369.     *  Get the XIT id
                                    4830     370.     *
 000476 5820 6010            00004  4831     371.              L     RA,RTXXID               Get the exit ID
 00047A 5830 6014            00008  4832     372.              L     RB,RTXPARM              Address of routine to call
 USING  @TIMERTN-72,R13             4833     373.              PSET  @TIMERTN
 00047E D707 D048 D048 00000 00000  4850             +
 000484 18F3/0DEF                   4851     374.              ACALL (RB)
 000488 9845 D048            00000  4858     375.              LM    RJ,RK,@TIMEINT
                                    4859     376.     *
                                    4860     377.     *  Re-start the timer
                                    4861     378.     *
 00048C 1244/4770 A03A       00498  4862     379.              IF    ((RJ,NZ),OR,(RK,NZ)),BEGIN       Set timer if spec
 000492 1255/4780 A056       004B4  4883             +
 DROP   @TIMERTN-72,R13             4889  1  380.                PSET  @RTSET
 USING  @RTSET-72,R13
 000498 D717 D048 D048 00000 00000  4909  1          +
1SYSTEM   (SYST00) (09:44) (22MAR04) System Address Space                                                                   Page   38
0Current Usings:  (PZERO,R0) (XITSAREA,R6) (TIMEDRIV,R10) (@XITDATA-72,R12) (@RTSET-72,R13)
0Loc    Object Code    Addr1 Addr2  Stmt Lv Lineno    Source Statement           (Hibal 5, Asmedit 3.3)  HLASM R4.0  2004/03/22 09.44
+___    ______ ____    _____ _____  ____ __ ______    ______ _________
000049E 5020 D054            0000C  4910  1  381.                ST    RA,@RTSXIT              Tell him the exit ID
 0004A2 9680 D050      00008        4911  1  382.                SET   @RTSFINT                Interval timer
 0004A6 9045 D048            00000  4917  1  383.                STM   RJ,RK,@RTSCLK           Interval
 0004AA 5030 D058            00010  4918  1  384.                ST    RB,@RTSPARM             Specify the routine as parm
 0004AE 58F0 A22E/0DEF       0068C  4919  1  385.                VCALL RTSET                   Set the time
 0004B4                             4923     386.              END   ,                       OF Set timer if spec
                                    4927     387.     *
                                    4928     388.     *  Finish up the exit
                                    4929     389.     *
 0004B4 9200 D048      00000        4930     390.              PSET  @EXRDONE
 DROP   @RTSET-72,R13
 USING  @EXRDONE-72,R13
 0004B8 58F0 A23A/0DEF       00698  4951     391.              VCALL EXRDONE                 All done here
 0004BE 981F C008            00008  4955     392.              PEND
 DROP   XITSAREA,R6
 DROP   @XITDATA-72,R12
 DROP   TIMEDRIV,R10
 0004C2 9680 C000/0B0E 00000        4975             +
 DROP   @EXRDONE-72,R13
1SYSTEM   (SYST00) (09:44) (22MAR04) System Address Space                                                                   Page   39
0Current Usings:  (PZERO,R0)
0Loc    Object Code    Addr1 Addr2  Stmt Lv Lineno    Source Statement           (Hibal 5, Asmedit 3.3)  HLASM R4.0  2004/03/22 09.44
+___    ______ ____    _____ _____  ____ __ ______    ______ _________
0                                   4985     394.     *****************************************************************
                                    4986     395.     *                                                               *
                                    4987     396.     *   GWSMAN --  This routine does the global working set         *
                                    4988     397.     *              management.  It is timer based, and called when  *
                                    4989     398.     *              the timer expires.  It does the management and   *
                                    4990     399.     *              specifies the interval to do it all over again   *
                                    4991     400.     *                                                               *
                                    4992     401.     *   Input  --  @TIMERTN                                         *
                                    4993     402.     *                                                               *
                                    4994     403.     *  Output  --  @TIMERTN                                         *
                                    4995     404.     *                                                               *
                                    4996     405.     *****************************************************************
-0004C8                             4998     407.     GWSMAN   PROC  @TIMERTN
 0004C8 C7E6E2D4C1D54040            5005             +
 0004D0 0008/0000                   5006             +
 0004D4 900F D004/18AF       00004  5008             +
 USING  GWSMAN,R10
 0004DA 50D0 C000/18CD       00000  5023             +
 0004E0 9680 C000      00000        5025             +
 USING  @TIMERTN-72,R12
 0004E4 41D0 C050            00050  5039             +
 0004E8 5880 0200            00200  5040     408.              L     RM,MATPTR
 0004EC 5880 8030            00030  5041     409.              WITH  (MAT,RM),'L RM,MATSYSCB'
 USING  MAT,R8
 DROP   MAT,R8
 USING  SYSCB,R8                    5065     410.              WITH  (SYSCB,RM)
                                    5078     411.     *
                                    5079     412.     *  Do the Working set management
                                    5080     413.     *
 USING  @PAGWSMA-72,R13             5081     414.              PSET  @PAGWSMA
 0004F0 D70C D048 D048 00000 00000  5098             +
 0004F6 D203 D04C A174 00004 00648  5099     415.              MVC   @WSINT,=A(1)            One interval
 0004FC 9680 D054      0000C        5100     416.              SET   @WSFGLOB                Mark it for global
 000500 58F0 A178/0DEF       0064C  5106     417.              VCALL PAGWSMAN
                                    5110     418.     *
                                    5111     419.     *  Specify the next timer interval
                                    5112     420.     *
 000506 D207 C048 8010 00000 00010  5113     421.              MVC   @TIMEINT,SYSGWSI
 00050C 981F C008            00008  5114     422.              PEND  ,
 DROP   SYSCB,R8
 DROP   @TIMERTN-72,R12
 DROP   GWSMAN,R10
 000510 9680 C000/0B0E 00000        5134             +
 DROP   @PAGWSMA-72,R13
1SYSTEM   (SYST00) (09:44) (22MAR04) System Address Space                                                                   Page   40
0Current Usings:  (PZERO,R0)
0Loc    Object Code    Addr1 Addr2  Stmt Lv Lineno    Source Statement           (Hibal 5, Asmedit 3.3)  HLASM R4.0  2004/03/22 09.44
+___    ______ ____    _____ _____  ____ __ ______    ______ _________
0                                   5144     424.     *****************************************************************
                                    5145     425.     *                                                               *
                                    5146     426.     *   SMFCALL --  This routine calls the various SMF-record       *
                                    5147     427.     *               writing routines when a real-time timer expires *
                                    5148     428.     *               After doing the work it specifies the next      *
                                    5149     429.     *               timer interval to do it all over again.         *
                                    5150     430.     *                                                               *
                                    5151     431.     *   Input  --  @TIMERTN                                         *
                                    5152     432.     *                                                               *
                                    5153     433.     *  Output  --  @TIMERTN                                         *
                                    5154     434.     *                                                               *
                                    5155     435.     *****************************************************************
-000516                             5157     437.     SMFCALL  PROC  @TIMERTN
 000516 E2D4C6C3C1D3D340            5164             +
 00051E 0008/0000                   5165             +
 000522 900F D004/18AF       00004  5167             +
 USING  SMFCALL,R10
 000528 50D0 C000/18CD       00000  5182             +
 00052E 9680 C000      00000        5184             +
 USING  @TIMERTN-72,R12
 000532 41D0 C050            00050  5198             +
 000536 5880 0200            00200  5199     438.              L     RM,MATPTR
 00053A 5880 8030            00030  5200     439.              WITH  (MAT,RM),'L RM,MATSYSCB'
 USING  MAT,R8
 DROP   MAT,R8
 USING  SYSCB,R8                    5224     440.              WITH  (SYSCB,RM)
                                    5237     441.     *
                                    5238     442.     *  Do the SMF work
                                    5239     443.     *
 00053E 58F0 A17A/0DEF       0069C  5240     444.              VCALL PAGSMF                  Paging system
 000544 58F0 A17E/0DEF       006A0  5244     445.              VCALL FILSMF                  File system
                                    5248     446.     *
                                    5249     447.     *  Specify the next interval
                                    5250     448.     *
 00054A D207 C048 8008 00000 00008  5251     449.              MVC   @TIMEINT,SYSSMFI
 000550 981F C008            00008  5252     450.              PEND  ,
 DROP   SYSCB,R8
 DROP   @TIMERTN-72,R12
 DROP   SMFCALL,R10
 000554 9680 C000/0B0E 00000        5272             +
1SYSTEM   (SYST00) (09:44) (22MAR04) System Address Space                                                                   Page   41
0Current Usings:  (PZERO,R0)
0Loc    Object Code    Addr1 Addr2  Stmt Lv Lineno    Source Statement           (Hibal 5, Asmedit 3.3)  HLASM R4.0  2004/03/22 09.44
+___    ______ ____    _____ _____  ____ __ ______    ______ _________
0                                   5279     452.     *****************************************************************
                                    5280     453.     *                                                               *
                                    5281     454.     *   FRAMCALL    This routine calls the real-frame interval      *
                                    5282     455.     *               management routine.                             *
                                    5283     456.     *               After doing the work it specifies the next      *
                                    5284     457.     *               timer interval to do it all over again.         *
                                    5285     458.     *                                                               *
                                    5286     459.     *   Input  --  @TIMERTN                                         *
                                    5287     460.     *                                                               *
                                    5288     461.     *  Output  --  @TIMERTN                                         *
                                    5289     462.     *                                                               *
                                    5290     463.     *****************************************************************
-00055A                             5292     465.     FRAMCALL PROC  @TIMERTN
 00055A C6D9C1D4C3C1D3D3            5299             +
 000562 0008/0000                   5300             +
 000566 900F D004/18AF       00004  5302             +
 USING  FRAMCALL,R10
 00056C 50D0 C000/18CD       00000  5317             +
 000572 9680 C000      00000        5319             +
 USING  @TIMERTN-72,R12
 000576 41D0 C050            00050  5333             +
 00057A 5880 0200            00200  5334     466.              L     RM,MATPTR
 00057E 5880 8030            00030  5335     467.              WITH  (MAT,RM),'L RM,MATSYSCB'
 USING  MAT,R8
 DROP   MAT,R8
 USING  SYSCB,R8                    5359     468.              WITH  (SYSCB,RM)
                                    5372     469.     *
                                    5373     470.     *  Real frame interval management
                                    5374     471.     *
 000582 5820 8024            00024  5375     472.              L     RA,SYSFRAN              Number of intervals to action
 000586 0620                        5376     473.              DECR  RA                      |
 USING  @PAGINTV-72,R13             5378     474.              PSET  @PAGINTV                Paging system
 000588 D703 D048 D048 00000 00000  5395             +
 00058E 5020 D048            00000  5396     475.              PMOV  @PAGINT,(RA)            | Intervals remaining
 000592 58F0 A13E/0DEF       006A4  5406     476.              VCALL PAGINTV                 |
                                    5410     477.
 000598 1222/4720 A03C       005A2  5411     478.              IF    (RA,NPOS),'L RA,SYSFRACT'
 00059E 5820 8020            00020  5426             +
 0005A2 5020 8024            00024  5431     479.              ST    RA,SYSFRAN
                                    5432     480.     *
                                    5433     481.     *  Specify the next interval
                                    5434     482.     *
 0005A6 D207 C048 8018 00000 00018  5435     483.              MVC   @TIMEINT,SYSFRAI
 0005AC 981F C008            00008  5436     484.              PEND  ,
 DROP   SYSCB,R8
 DROP   @TIMERTN-72,R12
 DROP   FRAMCALL,R10
 0005B0 9680 C000/0B0E 00000        5456             +
 DROP   @PAGINTV-72,R13
1SYSTEM   (SYST00) (09:44) (22MAR04) System Address Space                                                                   Page   42
0Current Usings:  (PZERO,R0)
0Loc    Object Code    Addr1 Addr2  Stmt Lv Lineno    Source Statement           (Hibal 5, Asmedit 3.3)  HLASM R4.0  2004/03/22 09.44
+___    ______ ____    _____ _____  ____ __ ______    ______ _________
00005B8                             5466     486.              DS    0D
 0005B8 4E00000000000000            5467     487.     FLTZERO  DC    XL8'4E00000000000000'   Floating point zero
                                    5468     488.     *
                                    5469     489.     *  Working set interval for the global address space
                                    5470     490.     *
 0005C0 00000000F4240000            5471     491.     GWSINT   DC    FL8S12E6'1'             1 Second
                                    5472     492.     *
                                    5473     493.     *  SMF interval
                                    5474     494.     *
 0005C8 0000035A4E900000            5475     495.     SMFINT   DC    FL8S12E6'900'           15 minutes = 900 seconds
                                    5476     496.     *
                                    5477     497.     *  Interval for real frame management
                                    5478     498.     *
 0005D0 0000003938700000            5479     499.     FRAMINT  DC    FL8S12E6'60'            1 minute
 0005D8                             5480     500.              END   .
 0005D8 E2E8E2C3C2404040            5483                             =CL8'SYSCB'
 0005E0 E2E8E2E3C5D44040            5484                             =CL8'SYSTEM'
 0005E8 E2D4C6C9D5E34040            5485                             =CL8'SMFINT'
 0005F0 48F4240000000000            5486                             =D'4096E6'
 0005F8 C7C2D3E6E2C9D5E3            5487                             =CL8'GBLWSINT'
 000600 463E800000000000            5488                             =D'4096E3'
 000608 C6D9C1D4C5C9D5E3            5489                             =CL8'FRAMEINT'
 000610 C6D9C1D4C5C9D5D6            5490                             =CL8'FRAMEINO'
 000618 00000000                    5491                             =V(DISPSHLD)
 00061C 00000000                    5492                             =V(VMINIT3)
 000620 00000000                    5493                             =V(INITDIS3)
 000624 00000000                    5494                             =V(PAGINIT2)
 000628 00000000                    5495                             =V(ENQINIT)
 00062C 00000000                    5496                             =V(GRINIT)
 000630 00000000                    5497                             =V(M1SVINIT)
 000634 00000000                    5498                             =V(JESINIT)
 000638 00000000                    5499                             =V(FILEINIT)
 00063C 00000000                    5500                             =V(TERMINIT)
 000640 00000000                    5501                             =V(NETINIT)
 000644 00000000                    5502                             =V(ACCTINIT)
 000648 00000001                    5503                             =A(1)
 00064C 00000000                    5504                             =V(PAGWSMAN)
 000650 00000012                    5505                             =A(18)
 000654 00000000                    5506                             =V(VMGET)
 000658 00000000                    5507                             =V(VMFREE)
 00065C 070C0000                    5508                             =X'070C0000'
 000660 800002EC                    5509                             =A(X'80000000'+SYSTERM)
 000664 00000000                    5510                             =V(ACREATE)
 000668 00000000                    5511                             =V(SUSPEND)
 00066C 00000000                    5512                             =V(DISPRD)
 000670 00000000                    5513                             =V(AWAITAS)
 000674 00000000                    5514                             =V(FMANTERM)
 000678 8000045E                    5515                             =A(X'80000000'+TIMEDRIV)
 00067C 00000000                    5516                             =V(EXRADD)
 000680 00000000                    5517                             =V(XITMASK)
 000684 00000000                    5518                             =V(XITNEW)
 000688 000004D4                    5519                             =A(GWSMAN)
 00068C 00000000                    5520                             =V(RTSET)
 000690 00000522                    5521                             =A(SMFCALL)
1SYSTEM   (SYST00) (09:44) (22MAR04) System Address Space                                                                   Page   43
0Current Usings:  (PZERO,R0)
0Loc    Object Code    Addr1 Addr2  Stmt Lv Lineno    Source Statement           (Hibal 5, Asmedit 3.3)  HLASM R4.0  2004/03/22 09.44
+___    ______ ____    _____ _____  ____ __ ______    ______ _________
0000694 00000566                    5522                             =A(FRAMCALL)
 000698 00000000                    5523                             =V(EXRDONE)
 00069C 00000000                    5524                             =V(PAGSMF)
 0006A0 00000000                    5525                             =V(FILSMF)
 0006A4 00000000                    5526                             =V(PAGINTV)
 0006A8 3F00                        5527                             =Y(63*256+0)
 0006AA 3B00                        5528                             =Y(59*256+0)
 0006AC 5C5C5C4040404040            5529                             =C'***          *** Ready'

1SYSTEM   (SYST00) (09:44) (22MAR04) Ordinary Symbol and Literal Cross Reference                                            Page   44
-Symbol   Length   Value     Id    R Type   Defn References                                  HLASM R4.0  2004/03/22 09.44
0$$$@R0        1 00000000 FFFFFFFE     J     714 1010
 $$$@R1        1 00000000 FFFFFFFD     J     727 1022
 $$$@R10       1 00000000 FFFFFFF4     J     844 1142
 $$$@R11       1 00000000 FFFFFFF3     J     857 1154
 $$$@R12       1 00000000 FFFFFFF2     J     870 1166
 $$$@R13       1 00000000 FFFFFFF1     J     883 1178
 $$$@R14       1 00000000 FFFFFFF0     J     896 1190
 $$$@R15       1 00000000 FFFFFFEF     J     909 1202
 $$$@R2        1 00000000 FFFFFFFC     J     740 1034
 $$$@R3        1 00000000 FFFFFFFB     J     753 1046
 $$$@R4        1 00000000 FFFFFFFA     J     766 1058
 $$$@R5        1 00000000 FFFFFFF9     J     779 1070
 $$$@R6        1 00000000 FFFFFFF8     J     792 1082
 $$$@R7        1 00000000 FFFFFFF7     J     805 1094
 $$$@R8        1 00000000 FFFFFFF6     J     818 1106
 $$$@R9        1 00000000 FFFFFFF5     J     831 1118  1130
 $$$C1SYSTEM
               1 000006C2 00000001     J    5530 5532
 $$$R@ACREATE
               1 00000000 FFFFFFE5     J    1624 1637  1637
 $$$R@AWAIT
               1 00000000 FFFFFFEC     J    1421 1443  1443
 $$$R@CPCNCK
               1 00000000 FFFFFFD2     J    2111 2126  2126
 $$$R@CPSET
               1 00000000 FFFFFFD3     J    2086 2101  2101
 $$$R@DISPPIOC
               1 00000000 FFFFFFEA     J    1490 1503  1503
 $$$R@DISPSIOC
               1 00000000 FFFFFFE9     J    1509 1522  1522
 $$$R@DISPSWP
               1 00000000 FFFFFFE6     J    1601 1614  1614
 $$$R@DSPSTAT
               1 00000000 FFFFFFDA     J    1895 1911  1911
 $$$R@EXRADD
               1 00000000 FFFFFFC2     J    2547 2577  2577
 $$$R@EXRDEL
               1 00000000 FFFFFFC1     J    2587 2600  2600
 $$$R@EXRDONE
               1 00000000 FFFFFFC0     J    2610 2646  2646
 $$$R@IOSASC
               1 00000000 FFFFFFD7     J    1972 1985  1985
 $$$R@LOCKCRE
               1 00000000 FFFFFFD9     J    1924 1946  1946
 $$$R@LOCKS
               1 00000000 FFFFFFD8     J    1952 1965  1965
 $$$R@MONSET
               1 00000000 FFFFFFDB     J    1872 1885  1885
 $$$R@PAGASC1
               1 00000000 FFFFFFC8     J    2413 2427  2427
 $$$R@PAGASC2
               1 00000000 FFFFFFC7     J    2433 2447  2447
 $$$R@PAGDEF
               1 00000000 FFFFFFCA     J    2353 2380  2380
 $$$R@PAGE
1SYSTEM   (SYST00) (09:44) (22MAR04) Ordinary Symbol and Literal Cross Reference                                            Page   45
               1 00000000 FFFFFFC6     J    2453 2469  2469
 $$$R@PAGINIT
               1 00000000 FFFFFFC3     J    2515 2529  2529
 $$$R@PAGINTV
               1 00000000 FFFFFFC4     J    2496 2509  2509
 $$$R@PAGRV
               1 00000000 FFFFFFC5     J    2475 2490  2490
 $$$R@PAGSEGD
               1 00000000 FFFFFFC9     J    2386 2407  2407
 $$$R@PAGSWADV
               1 00000000 FFFFFFCC     J    2304 2317  2317
 $$$R@PAGSWAP
               1 00000000 FFFFFFCD     J    2250 2298  2298
 $$$R@PAGWSMA
               1 00000000 FFFFFFCB     J    2323 2347  2347
 $$$R@PARMDO
               1 00000000 FFFFFFB3     J    3093 3109  3109
 $$$R@PERSET
               1 00000000 FFFFFFDC     J    1849 1862  1862
 $$$R@RESUME
               1 00000000 FFFFFFE7     J    1576 1591  1591
 $$$R@RTCNCK
               1 00000000 FFFFFFD5     J    2036 2051  2051
 $$$R@RTSET
               1 00000000 FFFFFFD6     J    2002 2026  2026
 $$$R@SIGNAL
               1 00000000 FFFFFFEB     J    1454 1474  1474
 $$$R@SUSPEND
               1 00000000 FFFFFFE8     J    1532 1566  1566
 $$$R@SYSRDEL
               1 00000000 FFFFFFDF     J    1777 1790  1790
 $$$R@SYSRDO
               1 00000000 FFFFFFDE     J    1800 1816  1816
 $$$R@SYSRNEW
               1 00000000 FFFFFFE0     J    1755 1768  1768
 $$$R@SYSRTN
               1 00000000 FFFFFFDD     J    1826 1839  1839
 $$$R@TCREATE
               1 00000000 FFFFFFE4     J    1647 1676  1676
 $$$R@TENTRY
               1 00000000 FFFFFFE2     J    1709 1722  1722
 $$$R@TEXIT
               1 00000000 FFFFFFE1     J    1732 1745  1745
 $$$R@TIMERTN
               1 00000000 FFFFFFAF     J    4744 4758  4758
 $$$R@TREMOVE
               1 00000000 FFFFFFE3     J    1686 1699  1699
 $$$R@VMFREE
               1 00000000 FFFFFFCF     J    2199 2214  2214
 $$$R@VMGET
               1 00000000 FFFFFFD0     J    2164 2193  2193
 $$$R@VMINFO
               1 00000000 FFFFFFCE     J    2220 2235  2235
 $$$R@XITDATA
               1 00000000 FFFFFFB9     J    2932 2945  2945
 $$$R@XITDEL
               1 00000000 FFFFFFBE     J    2687 2700  2700
 $$$R@XITDO
               1 00000000 FFFFFFBD     J    2709 2726  2726
1SYSTEM   (SYST00) (09:44) (22MAR04) Ordinary Symbol and Literal Cross Reference                                            Page   46
 $$$R@XITGPST
               1 00000000 FFFFFFBC     J    2737 2752  2752
 $$$R@XITMASK
               1 00000000 FFFFFFBB     J    2762 2809  2809
 $$$R@XITNEW
               1 00000000 FFFFFFBF     J    2656 2677  2677
 $$$RCPEXIT
               1 00000000 FFFFFFD1     J    2136 2151  2151
 $$$RMAT       1 00000000 FFFFFFED     J    1350 1409  1409
 $$$RPARMIN
               1 00000000 FFFFFFB2     J    3115 3173  3173
 $$$RPZERO
               1 00000000 FFFFFFEE     J    1236 1327  1327
 $$$RRTEXIT
               1 00000000 FFFFFFD4     J    2061 2076  2076
 $$$RSEXITMC
               1 00000000 FFFFFFB4     J    3065 3080  3080
 $$$RSEXITPER
               1 00000000 FFFFFFB5     J    3040 3055  3055
 $$$RSEXITPI
               1 00000000 FFFFFFB6     J    3015 3030  3030
 $$$RSEXITSVC
               1 00000000 FFFFFFB7     J    2991 3005  3005
 $$$RSYSCB
               1 00000000 FFFFFFB1     J    3179 3197  3197
 $$$RSYSPARM
               1 00000000 FFFFFFB0     J    3203 3226  3226
 $$$RXITMSKD
               1 00000000 FFFFFFBA     J    2835 2922  2922
 $$$RXITSAREA
               1 00000000 FFFFFFB8     J    2955 2971  2971
 $$$13F        2 00000162 00000001     H    3638 3623B
 $$$14F        2 0000019A 00000001     H    3688 3673B
 $$$15F        2 000001D2 00000001     H    3738 3723B
 $$$16F        2 000001F2 00000001     H    3784 3775B
 $$$20F        2 000004B4 00000001     H    4926 4884B
 $$$20T        2 00000498 00000001     H    4887 4875B
 $$$25F        2 000005A2 00000001     H    5430 5420B
 @ACREATE      8 00000000 FFFFFFE5     J    1637 4041U 4049M 4049
 @ACRPSW       8 00000000 FFFFFFE5     D    1630 4050M 4066M 4075M
 @AWAIT        5 00000000 FFFFFFEC     J    1443 4212U 4220M 4220
 @AWTECB       4 00000000 FFFFFFEC     A    1427 4237M
 @AWTFLG       1 00000004 FFFFFFEC     R    1430 1434
 @AWTLONG    128 00000004 FFFFFFEC         1434 4243M
 @DISPSWP      4 00000000 FFFFFFE6     J    1614 3282U 3290M 3290
 @EXRADD      21 00000000 FFFFFFC2     J    2577 4422U 4430M 4430
 @EXRAFLG      1 00000014 FFFFFFC2     R    2559 2563  2568
 @EXRAFS      64 00000014 FFFFFFC2         2568 4451M
 @EXRDCD       1 00000000 FFFFFFC0     R    2618 2627  2637
 @EXRDONE      1 00000000 FFFFFFC0     J    2646 4942U 4950M
 @EXRPSW       8 00000008 FFFFFFC2     D    2555 4444M 4445M
 @EXRTYPE      4 00000000 FFFFFFC2     A    2553 4436U
 @LOCKFL       1 00000010 FFFFFFD9     R    1933 1937
 @PAGINT       4 00000000 FFFFFFC4     A    2502 5405M
 @PAGINTV      4 00000000 FFFFFFC4     J    2509 5387U 5395M 5395
 @PAGKEY       1 00000008 FFFFFFC6     X    2461 2462
 @PAGWSMA     13 00000000 FFFFFFCB     J    2347 3367U 3375M 3375  3397M 3397  5090U 5098M 5098
 @PDF1         1 00000009 FFFFFFCA     R    2365 2366  2371
 @RTSCLK       8 00000000 FFFFFFD6     D    2008 4563M 4629M 4695M 4917M
1SYSTEM   (SYST00) (09:44) (22MAR04) Ordinary Symbol and Literal Cross Reference                                            Page   47
 @RTSET       24 00000000 FFFFFFD6     J    2026 4547U 4555M 4555  4613U 4621M 4621  4679U 4687M 4687  4901U 4909M 4909
 @RTSFINT    128 00000008 FFFFFFD6         2015 4562M 4628M 4694M 4916M
 @RTSFLG       1 00000008 FFFFFFD6     R    2011 2015
 @RTSPARM      4 00000010 FFFFFFD6     A    2019 4564M 4630M 4696M 4918M
 @RTSXIT       4 0000000C FFFFFFD6     A    2018 4556M 4622M 4688M 4910M
 @R0           0 00000000 FFFFFFFE     @     715  991U
 @R1           0 00000000 FFFFFFFD     @     728  987U
 @R10          0 00000000 FFFFFFF4     @     845  951U 4134U 4321U 4712U 4971U 5130U 5268U 5452U
 @R11          0 00000000 FFFFFFF3     @     858  947U
 @R12          0 00000000 FFFFFFF2     @     871  943U 4966U 5125U 5263U 5447U
 @R13          0 00000000 FFFFFFF1     @     884  939U 3364U 3428U 3813U 3905U 3989U 4038U 4090U 4142U 4277U 4329U 4468U
                                                 4515U 4544U 4581U 4610U 4647U 4676U 4723U 4898U 4939U 4982U 5141U 5463U
 @R14          0 00000000 FFFFFFF0     @     897  935U 3952M
 @R15          0 00000000 FFFFFFEF     @     910  931U
 @R2           0 00000000 FFFFFFFC     @     741  983U 3486U 3959U 4073U 4254U
 @R3           0 00000000 FFFFFFFB     @     754  979U
 @R4           0 00000000 FFFFFFFA     @     767  975U
 @R5           0 00000000 FFFFFFF9     @     780  971U
 @R6           0 00000000 FFFFFFF8     @     793  967U 4961U
 @R7           0 00000000 FFFFFFF7     @     806  963U
 @R8           0 00000000 FFFFFFF6     @     819  959U 3869U 4395U 4707U 5063U 5120U 5222U 5258U 5357U 5442U
 @R9           0 00000000 FFFFFFF5     @     832  955U 3863U
 @SDF1         1 00000009 FFFFFFC9     R    2397 2398
 @SUSPEND      9 00000000 FFFFFFE8     J    1566 4093U 4101M 4101  4280U 4288M 4288
 @SUSPFLG      1 00000008 FFFFFFE8     R    1543 1547  1552  1557
 @SWFLG        1 00000004 FFFFFFCD     R    2260 2269  2279  2289
 @TCRFLAG      1 00000014 FFFFFFE4     R    1658 1662  1667
 @TIMEINT      8 00000000 FFFFFFAF     D    4751 4858  5113M 5251M 5435M
 @TIMERTN      8 00000000 FFFFFFAF     J    4758 4842U 4850M 4850  5035U 5194U 5329U
 @VMFLEN       4 00000004 FFFFFFCF     A    2206 3841M 4010M
 @VMFLOC       4 00000000 FFFFFFCF     A    2205 3852M 4020M
 @VMFPOOL      2 00000008 FFFFFFCF     H    2207 3853M 4021M
 @VMFREE      10 00000000 FFFFFFCF     J    2214 3816U 3824M 3824  3992U 4000M 4000
 @VMGET       11 00000000 FFFFFFD0     J    2193 3431U 3439M 3439  3533M 3533  3908U 3916M 3916
 @VMGFLG       1 0000000A FFFFFFD0     R    2175 2179  2184
 @VMGLEN       4 00000000 FFFFFFD0     A    2170 3456M 3550M 3926M
 @VMGPOOL      2 00000008 FFFFFFD0     H    2172 3457M 3551M 3927M
 @WSFGLOB    128 0000000C FFFFFFCB         2338 3382M 3404M 5105M
 @WSFLG        1 0000000C FFFFFFCB     R    2334 2338
 @WSINT        4 00000004 FFFFFFCB     A    2330 3376M 3398M 5099M
 @XITDATA      4 00000000 FFFFFFB9     J    2945 4799U
 @XITDSA       4 00000000 FFFFFFB9     A    2938 4807
 @XITMASK      5 00000000 FFFFFFBB     J    2809 4471U 4479M 4479
 @XITMREQ      1 00000004 FFFFFFBB     R    2771 2780  2790  2800
 @XITMSK       4 00000000 FFFFFFBB     A    2768 4485U
 @XITMSO       0 00000004 FFFFFFBB         2780 4498M
 @XITNEW       1 00000000 FFFFFFBF     J    2677 4518U 4526M 4584U 4592M 4650U 4658M
 @XITNFL       1 00000000 FFFFFFBF     R    2664 2668
 ACCTINIT      1 00000000 0000000D     T    5502 5502
 ACREATE       1 00000000 00000011     T    5510 5510
 AWAITAS       1 00000000 00000014     T    5513 5513
 BR           10 0000000A FFFFFFFF A   #    1136 3252M 3262U 4166M 4176U 4354M 4364U 4773M 4783U 5009M 5019U 5168M 5178U
                                                 5303M 5313U
 DISPRD        1 00000000 00000013     T    5512 5512
 DISPSHLD      1 00000000 00000002     T    5491 5491
 ENQINIT       1 00000000 00000006     T    5495 5495
 EPAR         15 0000000F FFFFFFFF A   #    1196 3252  3293M 3294B 3298M 3299B 3302M 3303B 3306M 3307B 3310M 3311B 3314M
                                                 3315B 3318M 3319B 3322M 3323B 3329M 3330B 3336M 3337B 3343M 3344B 3350M
                                                 3351B 3385M 3386B 3407M 3408B 3460M 3461B 3554M 3555B 3856M 3857B 3881M
1SYSTEM   (SYST00) (09:44) (22MAR04) Ordinary Symbol and Literal Cross Reference                                            Page   48
                                                 3882B 3930M 3931B 4024M 4025B 4078M 4079B 4104M 4105B 4108M 4109B 4166
                                                 4246M 4247B 4261M 4262B 4291M 4292B 4295M 4296B 4354  4454M 4455B 4501M
                                                 4502B 4529M 4530B 4567M 4568B 4595M 4596B 4633M 4634B 4661M 4662B 4699M
                                                 4700B 4773  4856M 4857B 4921M 4922B 4953M 4954B 5009  5108M 5109B 5168
                                                 5242M 5243B 5246M 5247B 5303  5408M 5409B
 EXRADD        1 00000000 00000016     T    5516 5516
 EXRDONE       1 00000000 0000001A     T    5523 5523
 FILEINIT      1 00000000 0000000A     T    5499 5499
 FILSMF        1 00000000 0000001C     T    5525 5525
 FLTWRK        8 00000020 FFFFFFB0     D    3215 3628M 3629M 3630  3678M 3679M 3680  3728M 3729M 3730
 FLTZERO       8 000005B8 00000001     X    5467 3628  3632  3678  3682  3728  3732
 FMANTERM      1 00000000 00000015     T    5514 5514
 FPR0          8 00000028 FFFFFFB0     D    3216 3584M 3790
 FPR2          8 00000030 FFFFFFB0     D    3217 3585M 3791
 FPR4          8 00000038 FFFFFFB0     D    3218 3586M 3792
 FPR6          8 00000040 FFFFFFB0     D    3219 3587M 3793
 FRAMCALL      4 00000566 00000001     I    5302 5313U 5522
 FRAMINT       8 000005D0 00000001     G    5479 3512
 GRINIT        1 00000000 00000007     T    5496 5496
 GWSINT        8 000005C0 00000001     G    5471 3511
 GWSMAN        4 000004D4 00000001     I    5008 5019U 5519
 GWSMAN5       2 000004C8 00000001     H    5003 5002
 HIBAL         1 00000000 FFFFFFFF     J     700  716   729   742   755   768   781   794   807   820   833   846   859
                                                  872   885   898   911  1012  1024  1036  1048  1060  1072  1084  1096
                                                 1108  1120  1132  1144  1156  1168  1180  1192  1204
 IMEDRIV5      2 00000452 00000001     H    4767 4766
 IMEINIT5      2 00000368 00000001     H    4348 4347
 INITDIS3      1 00000000 00000004     T    5493 5493
 JESINIT       1 00000000 00000009     T    5498 5498
 MAT         256 00000000 FFFFFFED     J    1409 3473U 3946U 4060U 4197U 4382U 5050U 5209U 5344U
 MATPTR        4 00000200 FFFFFFED A   A    1356 3463  3936  4187  4372  5040  5199  5334
 MATSKEY       1 000000E0 FFFFFFED     X    1389 4066
 MATSNAME      8 000000D4 FFFFFFED     C    1387 3952  3952
 MATSYSCB      4 00000030 FFFFFFED     A    1372 3479M 4388  5056  5215  5350
 MATTECB       8 00000040 FFFFFFED     D    1376 4232
 MITMK1        1 00000000 FFFFFFBA     R    2844 2848  2853  2858  2863  2868  2873  2878  2883
 MITMK2        1 00000001 FFFFFFBA     R    2889 2893  2898  2903
 M1SVINIT      1 00000000 00000008     T    5497 5497
 NETINIT       1 00000000 0000000C     T    5501 5501
 PAGINIT2      1 00000000 00000005     T    5494 5494
 PAGINTV       1 00000000 0000001D     T    5526 5526
 PAGSMF        1 00000000 0000001B     T    5524 5524
 PAGWSMAN      1 00000000 0000000E     T    5504 5504
 PARMFINT      4 00000000 FFFFFFB2         3142 3597M 3648M 3698M 3749M
 PARMIN        4 00000000 FFFFFFB2     J    3173 3209  3575U 3583M 3583  3606  3613  3656  3663  3706  3713  3757  3764
 PARMKEYS      4 00000004 FFFFFFB2     A    3166 3598M 3599M 3649M 3699M 3750M
 PARMTYPE      1 00000000 FFFFFFB2     R    3123 3132  3142  3152  3162
 PZABORT     128 0000021A FFFFFFEE         1308 4119M 4306M
 PZABR15       4 0000021C FFFFFFEE     A    1317 4120M 4307M
 PZABSM        1 0000021B FFFFFFEE     X    1316 4113M 4300M
 PZERO       640 00000000 FFFFFFEE     J    1327 1338U
 PZLCPUA       4 00000210 FFFFFFEE     A    1295 4121  4308
 PZTERMFL      1 0000021A FFFFFFEE     R    1304 1308  1313
 RA            2 00000002 FFFFFFFF A   #    1028 3463M 3473U 3616  3629  3666  3679  3716  3729  3767  3780  3887M 3935M
                                                 3936M 3946U 4060U 4187M 4197U 4531M 4556  4597M 4622  4663M 4688  4831M
                                                 4910  5375M 5377M 5419M 5419  5426M 5431
 RAMCALL5      2 0000055A 00000001     H    5297 5296
 RAR          14 0000000E FFFFFFFF A   #    1184 3294M 3299M 3303M 3307M 3311M 3315M 3319M 3323M 3330M 3337M 3344M 3351M
                                                 3386M 3408M 3461M 3555M 3857M 3882M 3931M 4025M 4079M 4105M 4109M 4247M
1SYSTEM   (SYST00) (09:44) (22MAR04) Ordinary Symbol and Literal Cross Reference                                            Page   49
                                                 4262M 4292M 4296M 4455M 4502M 4530M 4568M 4596M 4634M 4662M 4700M 4717B
                                                 4857M 4922M 4954M 4976B 5109M 5135B 5243M 5247M 5273B 5409M 5457B
 RB            3 00000003 FFFFFFFF A   #    1040 3768M 3780M 3785  3786  3888M 3933  3934  4832M 4856  4918
 RJ            4 00000004 FFFFFFFF A   #    1052 3606M 3613M 3616  3656M 3663M 3666  3706M 3713M 3716  3757M 3764M 3767
                                                 4858M 4872M 4872  4917
 RK            5 00000005 FFFFFFFF A   #    1064 4858M 4883M 4883  4917
 RM            8 00000008 FFFFFFFF A   #    1100 3462M 3479  3497U 4372M 4382U 4388M 4406U 5040M 5050U 5056M 5074U 5199M
                                                 5209U 5215M 5233U 5334M 5344U 5350M 5368U
 RN            9 00000009 FFFFFFFF A   #    1112 3556M 3566U
 RS            1 00000001 FFFFFFFF A   #    1016 3934M
 RTEXIT       16 00000000 FFFFFFD4     J    2076 4826U
 RTSET         1 00000000 00000019     T    5520 5520
 RTXPARM       4 00000008 FFFFFFD4     A    2069 4832
 RTXXID        4 00000004 FFFFFFD4     A    2068 4831
 RVR           0 00000000 FFFFFFFF A   #    1004 3451M 3462  3545M 3556  3836M 3932  3935M 4232M 4531  4597  4663
 RX            6 00000006 FFFFFFFF A   #    1076 4807M 4817U
 R0            0 00000000 FFFFFFFF A   #     708 1338U 3251  3584  3630M 3631M 3632M 3633  3680M 3681M 3682M 3683  3730M
                                                 3731M 3732M 3733  3790M 3969M 3972  4165  4353  4772  5008  5167  5302
 R1            1 00000001 FFFFFFFF A   #     721 4715M 4974M 5133M 5271M 5455M
 R14          14 0000000E FFFFFFFF A   #     890 3932M 3972
 R15          15 0000000F FFFFFFFF A   #     903 3251  3933M 4120  4121M 4122M 4123M 4124M 4125M 4125  4165  4307  4308M
                                                 4309M 4310M 4311M 4312M 4312  4353  4715M 4772  4974M 5008  5133M 5167
                                                 5271M 5302  5455M
 R2            2 00000002 FFFFFFFF A   #     734 3585  3791M
 R4            4 00000004 FFFFFFFF A   #     760 3586  3792M
 R6            6 00000006 FFFFFFFF A   #     786 3587  3793M
 SMFCALL       4 00000522 00000001     I    5167 5178U 5521
 SMFCALL5      2 00000516 00000001     H    5162 5161
 SMFINT        8 000005C8 00000001     G    5475 3510
 SPR          13 0000000D FFFFFFFF A   #    1172 3251  3266  3267  3269M 3282U 3367U 3431U 3816U 3908U 3992U 4041U 4093U
                                                 4165  4180  4181  4183M 4212U 4280U 4353  4368  4369  4371M 4422U 4471U
                                                 4518U 4547U 4584U 4613U 4650U 4679U 4772  4787  4788  4803M 4842U 4901U
                                                 4942U 5008  5023  5024  5039M 5090U 5167  5182  5183  5198M 5302  5317
                                                 5318  5333M 5387U
 SUSPEND       1 00000000 00000012     T    5511 5511
 SYSCB        40 00000000 FFFFFFB1     J    3197 3451  3497U 3508M 3508  4406U 5074U 5233U 5368U
 SYSCBID       8 00000000 FFFFFFB1     C    3185 3509M
 SYSFRACT      4 00000020 FFFFFFB1     A    3189 3785M 5426
 SYSFRAI       8 00000018 FFFFFFB1     D    3188 3512M 3733M 3734M 4695  5435
 SYSFRAN       4 00000024 FFFFFFB1     A    3190 3786M 5375  5431M
 SYSGWSI       8 00000010 FFFFFFB1     D    3187 3511M 3683M 3684M 4563  5113
 SYSPARM      72 00000000 FFFFFFB0     J    3226 3545  3566U 3836
 SYSPIFLG      4 00000000 FFFFFFB0     X    3209 3212  3212
 SYSPIN       20 00000000 FFFFFFB0     R    3212 3575U
 SYSSMFI       8 00000008 FFFFFFB1     D    3186 3510M 3633M 3634M 4629  5251
 SYSTASK       4 00000022 00000001     I    3251 3246  3262U
 SYSTEM        1 00000000 00000001     J    1220 1217  1218  1222  1328  1410  1444  1475  1504  1523  1567  1592  1615
                                                 1638  1677  1700  1723  1746  1769  1791  1817  1840  1863  1886  1912
                                                 1947  1966  1986  2027  2052  2077  2102  2127  2152  2194  2215  2236
                                                 2299  2318  2348  2381  2408  2428  2448  2470  2491  2510  2530  2578
                                                 2601  2647  2678  2701  2727  2753  2810  2923  2946  2972  3006  3031
                                                 3056  3081  3110  3174  3198  3227  4759
 SYSTERM       4 000002EC 00000001     I    4165 4160  4176U 5509
 SYST00        1 00000000 00000001     R    1229 1227
 TERMINIT      1 00000000 0000000B     T    5500 5500
 TIMEDRIV      4 0000045E 00000001     I    4772 4783U 5515
 TIMEINIT      4 00000374 00000001     I    4353 3881  4364U
 VMFREE        1 00000000 00000010     T    5507 5507
 VMGET         1 00000000 0000000F     T    5506 5506
1SYSTEM   (SYST00) (09:44) (22MAR04) Ordinary Symbol and Literal Cross Reference                                            Page   50
 VMINIT3       1 00000000 00000003     T    5492 5492
 WAR          12 0000000C FFFFFFFF A   #    1160 3266  3267M 3268  3269  4180  4181M 4182  4183  4368  4369M 4370  4371
                                                 4715  4716  4787  4788M 4789  4799U 4803  4974  4975  5023  5024M 5025
                                                 5035U 5039  5133  5134  5182  5183M 5184  5194U 5198  5271  5272  5317
                                                 5318M 5319  5329U 5333  5455  5456
 XITMASK       1 00000000 00000017     T    5517 5517
 XITMRTC      32 00000000 FFFFFFBA         2858 4443M 4492M
 XITMSKD       4 00000000 FFFFFFBA     J    2922 4436U 4485U
 XITNEW        1 00000000 00000018     T    5518 5518
 XITSAREA     28 00000000 FFFFFFB8     J    2971 4817U
 XITSXPRM     16 0000000C FFFFFFB8     X    2964 4826U
 =A(FRAMCALL)
               4 00000694 00000001     A    5522 4696
 =A(GWSMAN)
               4 00000688 00000001     A    5519 4564
 =A(SMFCALL)
               4 00000690 00000001     A    5521 4630
 =A(X'80000000'+SYSTERM)
               4 00000660 00000001     A    5509 4075
 =A(X'80000000'+TIMEDRIV)
               4 00000678 00000001     A    5515 4445
 =A(1)         4 00000648 00000001     A    5503 3376  5099
 =A(18)        4 00000650 00000001     A    5505 3398
 =C'***          *** Ready'
              22 000006AC 00000001     C    5529 3887
 =CL8'FRAMEINO'
               8 00000610 00000001     C    5490 3750
 =CL8'FRAMEINT'
               8 00000608 00000001     C    5489 3699
 =CL8'GBLWSINT'
               8 000005F8 00000001     C    5487 3649
 =CL8'SMFINT'
               8 000005E8 00000001     C    5485 3599
 =CL8'SYSCB'
               8 000005D8 00000001     C    5483 3509
 =CL8'SYSTEM'
               8 000005E0 00000001     C    5484 3598
 =D'4096E3'
               8 00000600 00000001     D    5488 3681
 =D'4096E6'
               8 000005F0 00000001     D    5486 3631  3731
 =V(ACCTINIT)
               4 00000644 00000001     V    5502 3350
 =V(ACREATE)
               4 00000664 00000001     V    5510 4078
 =V(AWAITAS)
               4 00000670 00000001     V    5513 4246
 =V(DISPRD)
               4 0000066C 00000001     V    5512 4108  4295
 =V(DISPSHLD)
               4 00000618 00000001     V    5491 3293
 =V(ENQINIT)
               4 00000628 00000001     V    5495 3310
 =V(EXRADD)
               4 0000067C 00000001     V    5516 4454
 =V(EXRDONE)
               4 00000698 00000001     V    5523 4953
 =V(FILEINIT)
               4 00000638 00000001     V    5499 3329
1SYSTEM   (SYST00) (09:44) (22MAR04) Ordinary Symbol and Literal Cross Reference                                            Page   51
 =V(FILSMF)
               4 000006A0 00000001     V    5525 5246
 =V(FMANTERM)
               4 00000674 00000001     V    5514 4261
 =V(GRINIT)
               4 0000062C 00000001     V    5496 3314
 =V(INITDIS3)
               4 00000620 00000001     V    5493 3302
 =V(JESINIT)
               4 00000634 00000001     V    5498 3322
 =V(M1SVINIT)
               4 00000630 00000001     V    5497 3318
 =V(NETINIT)
               4 00000640 00000001     V    5501 3343
 =V(PAGINIT2)
               4 00000624 00000001     V    5494 3306
 =V(PAGINTV)
               4 000006A4 00000001     V    5526 5408
 =V(PAGSMF)
               4 0000069C 00000001     V    5524 5242
 =V(PAGWSMAN)
               4 0000064C 00000001     V    5504 3385  3407  5108
 =V(RTSET)
               4 0000068C 00000001     V    5520 4567  4633  4699  4921
 =V(SUSPEND)
               4 00000668 00000001     V    5511 4104  4291
 =V(TERMINIT)
               4 0000063C 00000001     V    5500 3336
 =V(VMFREE)
               4 00000658 00000001     V    5507 3856  4024
 =V(VMGET)
               4 00000654 00000001     V    5506 3460  3554  3930
 =V(VMINIT3)
               4 0000061C 00000001     V    5492 3298
 =V(XITMASK)
               4 00000680 00000001     V    5517 4501
 =V(XITNEW)
               4 00000684 00000001     V    5518 4529  4595  4661
 =X'070C0000'
               4 0000065C 00000001     X    5508 4050  4444
 =Y(59*256+0)
               2 000006AA 00000001     Y    5528 3551  3853  3927  4021
 =Y(63*256+0)
               2 000006A8 00000001     Y    5527 3457

1SYSTEM   (SYST00) (09:44) (22MAR04) Macro and Copy Code Source Summary                                                     Page   52
- Con Source                                        Volume    Members                        HLASM R4.0  2004/03/22 09.44
0     PRIMARY INPUT                                           CSECT    DROP     END      EX       LTORG    POP
                                                              PRINT    PUSH     START    USING
   L2 WYL.GG.ORV.MACLIB                             SYSB02    $LKPARM  ABORT    ACALL    AWAIT    DISPPARM GETPARM2
                                                              HEADER   IOSIPARM LCALL    LOCKPARM MAT      MODULE
                                                              ORVWTO   PAGEPARM PARMPARM PEND     PMOV     PROC     PSET
                                                              PZERO    REG      SEXIPARM SIGPARM  SPLEVEL  SYSCTL
                                                              TIMEPARM VCALL    VMFREE   VMGET    VMPARM   XITPARM
   L3 WYL.GG.SYS.MACLIB                             SYSB05    $BC      $BFLKUP  $BV      $CCLKUP  $L       $LA
                                                              $LBLAD   $LEXP    $LOR     $REL     $RGLKUP  $USLKUP
                                                              AUSING   BEGIN    CLEAR    CSECT    DECR     DEFCC    DIAG
                                                              DROP     END      EX       FLAG     GEN      HIBAL
                                                              IDENT    IF       LABEL    LS       LTORG    POP
                                                              PRINT    PUSH     RECORD   REGS     SET      START    STF
                                                              USING    WITH

1         (SYST00) (09:44) (22MAR04) General Purpose Register Cross Reference                                               Page   53
- Register  References (M=modified, B=branch, U=USING, D=DROP, N=index)                      HLASM R4.0  2004/03/22 09.44
0    0(0)     991U  992D 1338U 3251  3451M 3456  3462  3545M 3550  3556  3836M 3841  3932  3935M 3969M 4165  4232M 4237
             4353  4531  4597  4663  4772  5008  5167  5302
     1(1)     987U 3251  3934M 3935M 4165  4353  4715M 4772  4974M 5008  5133M 5167  5271M 5302  5455M
     2(2)     983U 3251  3463M 3473U 3486U 3629  3679  3729  3780  3887M 3935M 3936M 3946U 3959U 4060U 4073U 4165  4187M
             4197U 4254U 4353  4531M 4556  4597M 4622  4663M 4688  4715M 4772  4831M 4910  4974M 5008  5133M 5167  5271M
             5302  5375M 5377M 5405  5419M 5419  5426M 5431  5455M
     3(3)     979U 3251  3768M 3780M 3785  3786  3888M 3926  3933  3934  3935M 4165  4353  4715M 4772  4832M 4856  4918
             4974M 5008  5133M 5167  5271M 5302  5455M
     4(4)     975U 3251  3606M 3656M 3706M 3757M 4165  4353  4715M 4772  4858M 4872M 4872  4917  4974M 5008  5133M 5167
             5271M 5302  5455M
     5(5)     971U 3251  3613M 3663M 3713M 3764M 4165  4353  4715M 4772  4858M 4883M 4883  4917  4974M 5008  5133M 5167
             5271M 5302  5455M
     6(6)     967U 3251  4165  4353  4715M 4772  4807M 4817U 4961U 4974M 5008  5133M 5167  5271M 5302  5455M
     7(7)     963U 3251  4165  4353  4715M 4772  4974M 5008  5133M 5167  5271M 5302  5455M
     8(8)     959U 3251  3462M 3479  3497U 3869U 4165  4353  4372M 4382U 4388M 4395U 4406U 4707U 4715M 4772  4974M 5008
             5040M 5050U 5056M 5063U 5074U 5120U 5133M 5167  5199M 5209U 5215M 5222U 5233U 5258U 5271M 5302  5334M 5344U
             5350M 5357U 5368U 5442U 5455M
     9(9)     955U 3251  3556M 3566U 3852  3863U 4165  4353  4715M 4772  4974M 5008  5133M 5167  5271M 5302  5455M
    10(A)     951U 3251  3252M 3262U 4134U 4165  4166M 4176U 4321U 4353  4354M 4364U 4712U 4715M 4772  4773M 4783U 4971U
             4974M 5008  5009M 5019U 5130U 5133M 5167  5168M 5178U 5268U 5271M 5302  5303M 5313U 5452U 5455M
    11(B)     947U 3251  4165  4353  4715M 4772  4974M 5008  5133M 5167  5271M 5302  5455M
    12(C)     943U 3251  3266  3267M 3268  3269  4165  4180  4181M 4182  4183  4353  4368  4369M 4370  4371  4715M 4715
             4716  4772  4787  4788M 4789  4799U 4803  4966U 4974M 4974  4975  5008  5023  5024M 5025  5035U 5039  5125U
             5133M 5133  5134  5167  5182  5183M 5184  5194U 5198  5263U 5271M 5271  5272  5302  5317  5318M 5319  5329U
             5333  5447U 5455M 5455  5456
    13(D)     939U 3251  3251  3266  3267  3269M 3282U 3364U 3367U 3428U 3431U 3813U 3816U 3905U 3908U 3989U 3992U 4038U
             4041U 4090U 4093U 4142U 4165  4165  4180  4181  4183M 4212U 4277U 4280U 4329U 4353  4353  4368  4369  4371M
             4422U 4468U 4471U 4515U 4518U 4544U 4547U 4581U 4584U 4610U 4613U 4647U 4650U 4676U 4679U 4715M 4723U 4772
             4772  4787  4788  4803M 4842U 4898U 4901U 4939U 4942U 4974M 4982U 5008  5008  5023  5024  5039M 5090U 5133M
             5141U 5167  5167  5182  5183  5198M 5271M 5302  5302  5317  5318  5333M 5387U 5455M 5463U
    14(E)     935U 3251  3294M 3299M 3303M 3307M 3311M 3315M 3319M 3323M 3330M 3337M 3344M 3351M 3386M 3408M 3461M 3555M
             3857M 3882M 3931M 3932M 4020  4025M 4079M 4105M 4109M 4165  4247M 4262M 4292M 4296M 4353  4455M 4502M 4530M
             4568M 4596M 4634M 4662M 4700M 4715M 4717B 4772  4857M 4922M 4954M 4974M 4976B 5008  5109M 5133M 5135B 5167
             5243M 5247M 5271M 5273B 5302  5409M 5455M 5457B
    15(F)     931U 3251  3252  3293M 3294B 3298M 3299B 3302M 3303B 3306M 3307B 3310M 3311B 3314M 3315B 3318M 3319B 3322M
             3323B 3329M 3330B 3336M 3337B 3343M 3344B 3350M 3351B 3385M 3386B 3407M 3408B 3460M 3461B 3554M 3555B 3856M
             3857B 3881M 3882B 3930M 3931B 3933M 4010  4024M 4025B 4078M 4079B 4104M 4105B 4108M 4109B 4120  4121M 4122M
             4123M 4124M 4124  4125M 4125  4165  4166  4246M 4247B 4261M 4262B 4291M 4292B 4295M 4296B 4307  4308M 4309M
             4310M 4311M 4311  4312M 4312  4353  4354  4454M 4455B 4501M 4502B 4529M 4530B 4567M 4568B 4595M 4596B 4633M
             4634B 4661M 4662B 4699M 4700B 4715M 4772  4773  4856M 4857B 4921M 4922B 4953M 4954B 4974M 5008  5009  5108M
             5109B 5133M 5167  5168  5242M 5243B 5246M 5247B 5271M 5302  5303  5408M 5409B 5455M

1SYSTEM   (SYST00) (09:44) (22MAR04) Diagnostic Cross Reference and Assembler Summary                                       Page   54
-                                                                                            HLASM R4.0  2004/03/22 09.44
0     No Statements Flagged in this Assembly
 HIGH LEVEL ASSEMBLER, 5696-234, RELEASE 4.0, PTF UQ57391
0SYSTEM: OS/390 02.10.00            JOBNAME: PJG#SYST    STEPNAME: ASM        PROCSTEP: (NOPROC)
0Datasets Allocated for this Assembly
  Con DDname   Dataset Name                                 Volume  Member
   P1 SYSIN    SYS04082.T094424.RA000.PJG#SYST.INPUT.H01    SCR100
   L1 SYSLIB   SYS3.DUMMYMAC                                SYSB02
   L2          WYL.GG.ORV.MACLIB                            SYSB02
   L3          WYL.GG.SYS.MACLIB                            SYSB05
      SYSLIN   WYL.GG.PJG.OBJ                               SYSB05  SYSTEM
      SYSPRINT SYS04082.T094424.RA000.PJG#SYST.PRINT.H01    SCR100
      SYSTERM  GG$PJG.PJG#SYST.JOB05962.D0000103.?

    7812K allocated to Buffer Pool,          877K would be required for this to be an In-Storage Assembly
     500 Primary Input Records Read         4614 Library Records Read                  0 Work File Reads
       0 ASMAOPT Records Read               3681 Primary Print Records Written         0 Work File Writes
      51 Punch Records Written                 0 ADATA Records Written
0Assembly Start Time: 09.44.26 Stop Time: 09.44.31 Processor Time: 00.00.01.0377
 Return Code 000
