1                        J E S 2  J O B  L O G  --  S Y S T E M  S Y S B  --  N O D E  R L G
0
 09.40.00 JOB05937 ---- MONDAY,    22 MAR 2004 ----
 09.40.00 JOB05937  ICH70001I GG$PJG   LAST ACCESS AT 09:39:47 ON MONDAY, MARCH 22, 2004
 09.40.00 JOB05937  $HASP373 PJG#FHCA STARTED - INIT 3    - CLASS E - SYS SYSB
 09.40.00 JOB05937  ***  HCMD      STEP $$QUIET
 09.40.00 JOB05937  PURGE * Q=OUTPUT MULTIPLE
 09.40.00 JOB05937  JOB PJG#FHCA NOT IN OUTPUT QUEUE
 09.40.01 JOB05937  PJG#FHCA.$$QUIET .         RC=0008 TapeIO=0000 DiskIO=0000 CPU=  .01s Elapsed=00.54s
 09.40.01 JOB05937  PJG#FHCA.$CND    .         RC=Zero TapeIO=0000 DiskIO=0002 CPU=  .01s Elapsed=01.59s
 09.40.02 JOB05937  PJG#FHCA.$UNP    .         RC=Zero TapeIO=0000 DiskIO=0008 CPU=  .04s Elapsed=01.73s
 09.40.05 JOB05937  PJG#FHCA.ASM     .         RC=Zero TapeIO=0000 DiskIO=0257 CPU= 1.01s Elapsed=02.02s
 09.40.05 JOB05937  PJG#FHCA.$EDIT   .         RC=Zero TapeIO=0000 DiskIO=0058 CPU=  .24s Elapsed=05.14s
 09.40.05 JOB05937  PJG#FHCA Ended.  Name=Module: FILHCACH               Total CPU= 1.31s Elapsed=00.54s
 09.40.05 JOB05937
 09.40.05 JOB05937  Execution charges   Priority=Standard   Block=Day
 09.40.05 JOB05937
 09.40.05 JOB05937  CPU Usage          23.62          $14.64   Standard Processing Unit Equivalent
 09.40.05 JOB05937                                   =======
 09.40.05 JOB05937                                    $14.64   Total Job execution charge
 09.40.05 JOB05937
 09.40.05 JOB05937  See back separator page for print charges
 09.40.05 JOB05937
 09.40.05 JOB05937  $HASP395 PJG#FHCA ENDED  ASM=0
1        1 //PJG#FHCA JOB PJG$GG,'Module: FILHCACH',TIME=1,MSGCLASS=C              JOB05937
           /*JOBPARM HOLD=OUTPUT,LINES=50,CHARS=TN15,NOTIFY=YES
         2 //       EXEC PURGEOLD
         3 XXPURGEOLD PROC
           XX*
           XX* This proc is maintained by Jim Stosick
           XX*
         4 XX$$QUIET  EXEC PGM=HCMDX,PARM='PURGE * Q=OUTPUT MULTIPLE',
           XX         ACCT=(PURGEOLD,SYS3)
         5 //$CND   EXEC PGM=BILBO,REGION=512K,PARM='RECS=100'
         6 //STEPLIB  DD DSN=WYL.GG.ORV.LINKLIB,DISP=SHR
         7 //SYSPRINT DD SYSOUT=$
         8 //SYSUT1   DD DSN=WYL.GG.PJG.OBJ,DISP=OLD
         9 //SYSUT2   DD DSN=WYL.GG.PJG.OBJ,DISP=OLD
        10 //SYSIN    DD DUMMY
        11 //$UNP   EXEC PGM=WUNPRESS,PARM='NUM'
        12 //SYSPRINT DD SYSOUT=$
        13 //SYSUT1   DD DSN=WYL.GG.ORV.SOURCE(FILHCACH),DISP=SHR
        14 //SYSUT2   DD DSN=&&INPUT,DISP=(,PASS),UNIT=SYSDA,
           //            SPACE=(TRK,(25,25),RLSE),DCB=CARD
        15 //ASM    EXEC PGM=ASMA90,REGION=8M,COND=(0,NE,$UNP),
           //            PARM=('SYSPARM(FILHCACH),TERM,LANG(EN),OBJ',
           //          'LC(32500),XREF(SHORT),NODECK,NORLD,NODX,NOUS')
           //*STEPLIB  DD DSN=SYS1.SASMMOD1,DISP=SHR
        16 //SYSLIB   DD DSN=SYS3.DUMMYMAC,DISP=SHR,DCB=BLKSIZE=27920
        17 //         DD DSN=WYL.GG.ORV.MACLIB,DISP=SHR
        18 //         DD DSN=WYL.GG.SYS.MACLIB,DISP=SHR
        19 //SYSUT1   DD DSN=&&SYSUT1,UNIT=VIO,DISP=(,DELETE),
           //            SPACE=(4088,(500,250),,CONTIG,ROUND)
        20 //SYSTERM  DD SYSOUT=$
        21 //SYSPRINT DD DSN=&&PRINT,UNIT=SYSDA,DISP=(,PASS),
           //            SPACE=(6650,(250,250),RLSE),
           //            DCB=(BLKSIZE=6650,LRECL=133,RECFM=FB)
        22 //SYSLIN   DD DSN=WYL.GG.PJG.OBJ(FILHCACH),DISP=OLD
        23 //SYSUDUMP DD SYSOUT=A
        24 //SYSIN    DD DSN=&&INPUT,DISP=(OLD,DELETE)
        25 //$EDIT  EXEC PGM=ASMEDIT,REGION=1M,
           //            COND=EVEN,PARM='STMT,DATA'
        26 //STEPLIB  DD DSN=WYL.GG.SYS.LINKLIB,DISP=SHR
        27 //ASMOUT   DD DSN=&&PRINT,DISP=(OLD,DELETE)
        28 //SYSPRINT DD SYSOUT=A
        29 //SYSUDUMP DD SYSOUT=A
1 STMT NO. MESSAGE
         2 IEFC001I PROCEDURE PURGEOLD WAS EXPANDED USING SYSTEM LIBRARY SYS3.BETAPROC
        14 IGD01010I STORCLAS= TEMP STORGROUP =
        14 IGD01010I STORGRP=VIO ASSIGNED.
        19 IGD01010I STORCLAS= TEMP STORGROUP =
        19 IGD01010I STORGRP=VIO ASSIGNED.
        21 IGD01010I STORCLAS= TEMP STORGROUP =
        21 IGD01010I STORGRP=VIO ASSIGNED.
 ICH70001I GG$PJG   LAST ACCESS AT 09:39:47 ON MONDAY, MARCH 22, 2004
 IEF142I PJG#FHCA $$QUIET - STEP WAS EXECUTED - COND CODE 0008
 *********************************************************************************
 *   PJG#FHCA/$$QUIET /                    Return Code      0008                 *
 *   Region used      260K (16K user + 244K system)                              *
 *   Extended region  9352K (4K user + 9348K system)                             *
 *                                                                               *
 *   Paging              In      Out                                             *
 *   Private <-> Aux      0        0       CPU time (TCB)   00:00:00.01          *
 *   Private <-> Exp      0        0       CPU time (SRB)   00:00:00.00          *
 *   VIO                  0        0       Elapsed time    920:47:52.42          *
 *   Common               0      ---                                             *
 *                                                                               *
 *                                                                               *
 *   CPU Usage          0.18         $0.11  Standard Processing Unit Equivalent  *
 *                                   $0.11  Total Step execution charge          *
 *                                                                               *
 *    I/O count  DDname   Type Addr           I/O count  DDname   Type Addr      *
 *                         *** No I/O for this step ***                          *
 *********************************************************************************
 IEF373I STEP/$$QUIET /START 2004082.0940
 IEF374I STEP/$$QUIET /STOP  2004082.0940 CPU    0MIN 00.01SEC SRB    0MIN 00.00SEC VIRT    16K SYS   244K EXT       4K SYS    9348K
 IEF236I ALLOC. FOR PJG#FHCA $CND
 IEF237I 0401 ALLOCATED TO STEPLIB
 IEF237I JES2 ALLOCATED TO SYSPRINT
 IEF237I 04DC ALLOCATED TO SYSUT1
 IEF237I 04DC ALLOCATED TO SYSUT2
 IEF237I DMY  ALLOCATED TO SYSIN
 IEF142I PJG#FHCA $CND - STEP WAS EXECUTED - COND CODE 0000
 IEF285I   WYL.GG.ORV.LINKLIB                           KEPT
 IEF285I   VOL SER NOS= SYSB01.
 IEF285I   GG$PJG.PJG#FHCA.JOB05937.D0000101.?          SYSOUT
 IEF285I   WYL.GG.PJG.OBJ                               KEPT
 IEF285I   VOL SER NOS= SYSB05.
 IEF285I   WYL.GG.PJG.OBJ                               KEPT
 IEF285I   VOL SER NOS= SYSB05.
 *********************************************************************************
 *   PJG#FHCA/$CND    /                    Return Code      Zero                 *
 *   Region used      280K (16K user + 264K system)                              *
 *   Extended region  9392K (4K user + 9388K system)                             *
 *                                                                               *
 *   Paging              In      Out                                             *
 *   Private <-> Aux      0        0       CPU time (TCB)   00:00:00.01          *
 *   Private <-> Exp      0        0       CPU time (SRB)   00:00:00.00          *
 *   VIO                  0        0       Elapsed time    920:47:51.37          *
 *   Common               0      ---                                             *
 *                                                                               *
 *                                                                               *
 *   CPU Usage          0.18         $0.11  Standard Processing Unit Equivalent  *
 *                                   $0.11  Total Step execution charge          *
 *                                                                               *
 *    I/O count  DDname   Type Addr           I/O count  DDname   Type Addr      *
 *            2  STEPLIB  Disk 0401                   0  SYSPRINT      ----      *
 *            0  SYSUT1   Disk 04DC                   0  SYSUT2   Disk 04DC      *
 *            0  SYSIN         ----                                              *
 *********************************************************************************
 IEF373I STEP/$CND    /START 2004082.0940
 IEF374I STEP/$CND    /STOP  2004082.0940 CPU    0MIN 00.01SEC SRB    0MIN 00.00SEC VIRT    16K SYS   264K EXT       4K SYS    9388K
 IEF236I ALLOC. FOR PJG#FHCA $UNP
 IEF237I JES2 ALLOCATED TO SYSPRINT
 IEF237I 0402 ALLOCATED TO SYSUT1
 IGD101I SMS ALLOCATED TO DDNAME (SYSUT2  )
         DSN (SYS04082.T094000.RA000.PJG#FHCA.INPUT.H01   )
         STORCLAS (TEMP) MGMTCLAS (        ) DATACLAS (        )
         VOL SER NOS= SCR101
 IEF142I PJG#FHCA $UNP - STEP WAS EXECUTED - COND CODE 0000
 IEF285I   GG$PJG.PJG#FHCA.JOB05937.D0000102.?          SYSOUT
 IEF285I   WYL.GG.ORV.SOURCE                            KEPT
 IEF285I   VOL SER NOS= SYSB02.
 IGD106I SYS04082.T094000.RA000.PJG#FHCA.INPUT.H01    PASSED,    DDNAME=SYSUT2
 *********************************************************************************
 *   PJG#FHCA/$UNP    /                    Return Code      Zero                 *
 *   Region used      380K (108K user + 272K system)                             *
 *   Extended region  9468K (4K user + 9464K system)                             *
 *                                                                               *
 *   Paging              In      Out                                             *
 *   Private <-> Aux      0        0       CPU time (TCB)   00:00:00.04          *
 *   Private <-> Exp      0        0       CPU time (SRB)   00:00:00.00          *
 *   VIO                  0        0       Elapsed time    920:47:51.23          *
 *   Common               0      ---                                             *
 *                                                                               *
 *                                                                               *
 *   CPU Usage          0.75         $0.46  Standard Processing Unit Equivalent  *
 *                                   $0.46  Total Step execution charge          *
 *                                                                               *
 *    I/O count  DDname   Type Addr           I/O count  DDname   Type Addr      *
 *            0  SYSPRINT      ----                   2  SYSUT1   Disk 0402      *
 *            6  SYSUT2   Disk 04E3                                              *
 *********************************************************************************
 IEF373I STEP/$UNP    /START 2004082.0940
 IEF374I STEP/$UNP    /STOP  2004082.0940 CPU    0MIN 00.04SEC SRB    0MIN 00.00SEC VIRT   108K SYS   272K EXT       4K SYS    9464K
 IEF236I ALLOC. FOR PJG#FHCA ASM
 IEF237I 0402 ALLOCATED TO SYSLIB
 IEF237I 0402 ALLOCATED TO
 IEF237I 04DC ALLOCATED TO
 IGD101I SMS ALLOCATED TO DDNAME (SYSUT1  )
         DSN (SYS04082.T094000.RA000.PJG#FHCA.SYSUT1.H01  )
         STORCLAS (TEMP) MGMTCLAS (        ) DATACLAS (        )
         VOL SER NOS= VIO
 IEF237I JES2 ALLOCATED TO SYSTERM
 IGD101I SMS ALLOCATED TO DDNAME (SYSPRINT)
         DSN (SYS04082.T094000.RA000.PJG#FHCA.PRINT.H01   )
         STORCLAS (TEMP) MGMTCLAS (        ) DATACLAS (        )
         VOL SER NOS= SCR100
 IEF237I 04DC ALLOCATED TO SYSLIN
 IEF237I JES2 ALLOCATED TO SYSUDUMP
 IGD103I SMS ALLOCATED TO DDNAME SYSIN
 IEF142I PJG#FHCA ASM - STEP WAS EXECUTED - COND CODE 0000
 IEF285I   SYS3.DUMMYMAC                                KEPT
 IEF285I   VOL SER NOS= SYSB02.
 IEF285I   WYL.GG.ORV.MACLIB                            KEPT
 IEF285I   VOL SER NOS= SYSB02.
 IEF285I   WYL.GG.SYS.MACLIB                            KEPT
 IEF285I   VOL SER NOS= SYSB05.
 IGD105I SYS04082.T094000.RA000.PJG#FHCA.SYSUT1.H01   DELETED,   DDNAME=SYSUT1
 IEF285I   GG$PJG.PJG#FHCA.JOB05937.D0000103.?          SYSOUT
 IGD106I SYS04082.T094000.RA000.PJG#FHCA.PRINT.H01    PASSED,    DDNAME=SYSPRINT
 IEF285I   WYL.GG.PJG.OBJ                               KEPT
 IEF285I   VOL SER NOS= SYSB05.
 IEF285I   GG$PJG.PJG#FHCA.JOB05937.D0000104.?          SYSOUT
 IGD105I SYS04082.T094000.RA000.PJG#FHCA.INPUT.H01    DELETED,   DDNAME=SYSIN
 *********************************************************************************
 *   PJG#FHCA/ASM     /                    Return Code      Zero                 *
 *   Region used      8476K (8192K user + 284K system)                           *
 *   Extended region  9952K (412K user + 9540K system)                           *
 *                                                                               *
 *   Paging              In      Out                                             *
 *   Private <-> Aux      0        0       CPU time (TCB)   00:00:00.97          *
 *   Private <-> Exp      0        0       CPU time (SRB)   00:00:00.04          *
 *   VIO                  0        0       Elapsed time    920:47:50.94          *
 *   Common               0      ---                                             *
 *                                                                               *
 *                                                                               *
 *   CPU Usage         18.18        $11.27  Standard Processing Unit Equivalent  *
 *                                  $11.27  Total Step execution charge          *
 *                                                                               *
 *    I/O count  DDname   Type Addr           I/O count  DDname   Type Addr      *
 *           66  SYSLIB   Disk 0402                   0  SYSLIB   Disk 0402      *
 *          127  SYSLIB   Disk 04DC                   0  SYSUT1   VIO  ----      *
 *            0  SYSTERM       ----                  55  SYSPRINT Disk 038B      *
 *            2  SYSLIN   Disk 04DC                   0  SYSUDUMP      ----      *
 *            7  SYSIN    Disk 04E3                                              *
 *********************************************************************************
 IEF373I STEP/ASM     /START 2004082.0940
 IEF374I STEP/ASM     /STOP  2004082.0940 CPU    0MIN 00.97SEC SRB    0MIN 00.04SEC VIRT  8192K SYS   284K EXT     412K SYS    9540K
 IEF236I ALLOC. FOR PJG#FHCA $EDIT
 IEF237I 0402 ALLOCATED TO STEPLIB
 IGD103I SMS ALLOCATED TO DDNAME ASMOUT
 IEF237I JES2 ALLOCATED TO SYSPRINT
 IEF237I JES2 ALLOCATED TO SYSUDUMP
 IEF142I PJG#FHCA $EDIT - STEP WAS EXECUTED - COND CODE 0000
 IEF285I   WYL.GG.SYS.LINKLIB                           KEPT
 IEF285I   VOL SER NOS= SYSB02.
 IGD105I SYS04082.T094000.RA000.PJG#FHCA.PRINT.H01    DELETED,   DDNAME=ASMOUT
 IEF285I   GG$PJG.PJG#FHCA.JOB05937.D0000105.?          SYSOUT
 IEF285I   GG$PJG.PJG#FHCA.JOB05937.D0000106.?          SYSOUT
 *********************************************************************************
 *   PJG#FHCA/$EDIT   /                    Return Code      Zero                 *
 *   Region used      388K (116K user + 272K system)                             *
 *   Extended region  9468K (4K user + 9464K system)                             *
 *                                                                               *
 *   Paging              In      Out                                             *
 *   Private <-> Aux      0        0       CPU time (TCB)   00:00:00.23          *
 *   Private <-> Exp      0        0       CPU time (SRB)   00:00:00.01          *
 *   VIO                  0        0       Elapsed time    920:47:47.82          *
 *   Common               0      ---                                             *
 *                                                                               *
 *                                                                               *
 *   CPU Usage          4.31         $2.67  Standard Processing Unit Equivalent  *
 *                                   $2.67  Total Step execution charge          *
 *                                                                               *
 *    I/O count  DDname   Type Addr           I/O count  DDname   Type Addr      *
 *            2  STEPLIB  Disk 0402                  56  ASMOUT   Disk 038B      *
 *            0  SYSPRINT      ----                   0  SYSUDUMP      ----      *
 *********************************************************************************
 IEF373I STEP/$EDIT   /START 2004082.0940
 IEF374I STEP/$EDIT   /STOP  2004082.0940 CPU    0MIN 00.23SEC SRB    0MIN 00.01SEC VIRT   116K SYS   272K EXT       4K SYS    9464K
 *********************************************************************************
 *                                                                               *
 *                      S t a n f o r d   U n i v e r s i t y                    *
 *                                                                               *
 *                              *** Job Summary ***                              *
 *                                                                               *
 *   System Id      SYSB                   Input time     09:38:19  Mar 22, 2004 *
 *                                                                               *
 *   System Release SP6.1.0                Start time     09:40:00  Mar 22, 2004 *
 *                                                                               *
 *   Job name       PJG#FHCA               Stop  time     00:00:00  Mar 22, 2004 *
 *                                                                               *
 *   Account        PJG$GG                 Elapsed time  920:47:52.42            *
 *                                                                               *
 *   User Name      Module: FILHCACH       CPU time       00:00:01.26            *
 *                                                                               *
 *   Job class      E                      SRB Time       00:00:00.05            *
 *                                                                               *
 *********************************************************************************
 IEF375I  JOB/PJG#FHCA/START 2004082.0940
 IEF376I  JOB/PJG#FHCA/STOP  2004082.0940 CPU    0MIN 01.26SEC SRB    0MIN 00.05SEC
1Data set successfully converted from EDIT to FB format
1Assembler Done FILHCACH No Statements Flagged
1         High Level Assembler Option Summary                   (PTF UQ57391)                                               Page    1
-                                                                                            HLASM R4.0  2004/03/22 09.40
0  No Overriding ASMAOPT Parameters
   Overriding Parameters-  SYSPARM(FILHCACH),TERM,LANG(EN),OBJ,LC(32500),XREF(SHORT),NODECK,NORLD,NODX,NOUS
   No Process Statements


   Options for this Assembly
0  NOADATA
     ALIGN
   NOASA
     BATCH
     CODEPAGE(047C)
   NOCOMPAT
   NODBCS
 3 NODECK
 3 NODXREF
     ESD
   NOEXIT
     FLAG(0,ALIGN,CONT,NOIMPLEN,NOPAGE0,PUSH,RECORD,NOSUBSTR,USING0)
   NOFOLD
   NOGOFF
   NOINFO
 3   LANGUAGE(EN)
   NOLIBMAC
 3   LINECOUNT(32500)
     LIST(121)
     MXREF(SOURCE)
 3   OBJECT
     OPTABLE(UNI,NOLIST)
   NOPCONTROL
   NOPESTOP
   NOPROFILE
   NORA2
   NORENT
 3 NORLD
     RXREF
     SIZE(MAX)
 3   SYSPARM(FILHCACH)
 3   TERM(WIDE)
   NOTEST
     THREAD
   NOTRANSLATE
 3 NOUSING
 3   XREF(SHORT)

   No Overriding DD Names

1FILHCACH External Symbol Dictionary                                                                                        Page    2
-Symbol   Type   Id     Address  Length     LD ID  Flags Alias-of                            HLASM R4.0  2004/03/22 09.40
0FILHCACH  SD 00000001 00000000 00000880             06
 FILH00    LD          00000000           00000001
 CHOPEN    LD          00000022           00000001
 CHREAD    LD          000002A4           00000001
 CHWRITE   LD          00000582           00000001
 VMGET     ER 00000002
 GRCRE     ER 00000003
 IOSIDGET  ER 00000004
 IOSDOIO   ER 00000005
 GRGET     ER 00000006
 IOSTIME   ER 00000007
 GRREL     ER 00000008

1FILHCACH ORVYL'S Hiperspace Caching Routines                                                                               Page    3
0Loc    Object Code    Addr1 Addr2  Stmt Lv Lineno    Source Statement                    (Asmedit 3.3)  HLASM R4.0  2004/03/22 09.40
+___    ______ ____    _____ _____  ____ __ ______    ______ _________
0                                      2       2.              COPY  HEADER
                                       3             =*********************************************************************
                                       4             =*                                                                   *
                                       5             =*                                                                   *
                                       6             =*                          M P - O R V Y L                          *
                                       7             =*                                                                   *
                                       8             =*       ORVYL - Release 5.0 - Class I - Stanford Proprietary        *
                                       9             =*                                                                   *
                                      10             =*                                                                   *
                                      11             =*********************************************************************
-
-                                     13             =         SPLEVEL SET=2
                                      16             =         HIBAL ASSOC=YES
-
                                     998             =*
                                     999             =* REGISTER CONVENTIONS (USE ONLY THE SYMBOLS)
                                    1000             =*
                                    1001             =*                     CLASS  USAGE
                                    1002             =*                     -----  -----------------------------
                                    1003             =RVR      REG   0        1    RETURN VALUE REGISTER
                                    1015             =RS       REG   1        *    SCRATCH
                                    1027             =RA       REG   2        *    SCRATCH
                                    1039             =RB       REG   3        *    SCRATCH
                                    1051             =RJ       REG   4        *    SCRATCH
                                    1063             =RK       REG   5        *    SCRATCH
                                    1075             =RX       REG   6        *    SCRATCH
                                    1087             =RY       REG   7        *    SCRATCH
                                    1099             =RM       REG   8        *    SCRATCH
                                    1111             =RN       REG   9        *    SCRATCH (In Guest)
                                    1123             =RTCBR    REG   9        -    POINTER TO THE RTCB (In Host)
                                    1135             =BR       REG   10       -    FIRST BASE REGISTER
                                    1147             =BRR      REG   11       -    SECOND BASE REGISTER
                                    1159             =WAR      REG   12       -    WORK AREA POINTER
                                    1171             =SPR      REG   13       -    STACK TOP POINTER
                                    1183             =RAR      REG   14       1    RETURN ADDRESS REGISTER
                                    1195             =EPAR     REG   15       1    ENTRY POINT ADDRESS
                                    1207             =*
                                    1208             =*      CLASS   MEANING
                                    1209             =*      -----   --------------------------------------------------
                                    1210             =*        *     Register may be freely used for scratch
                                    1211             =*        -     Register may not be used
                                    1212             =*        1     Available but may change on subroutine calls
                                    1213             =*
1FILHCACH ORVYL'S Hiperspace Caching Routines                                                                               Page    4
0D-Loc  Object Code    Addr1 Addr2  Stmt Lv Lineno    Source Statement           (Hibal 5, Asmedit 3.3)  HLASM R4.0  2004/03/22 09.40
+_____  ______ ____    _____ _____  ____ __ ______    ______ _________
0                                   1215       3.     *
 000000                00000 00880  1216       4.     FILHCACH MODULE TRCNUM=52
                                    1226             +*
                                    1227    02-IDENT +         ENTRY FILH00
                                    1228             +
 000000 14C6C9D3C8F0F06B            1229    02-IDENT +FILH00   DC    AL1(20),C'FILH00,22MAR04,09:40'
                                    1230             +*
                                    1232       5.     *
                                    1233       6.              COPY  PZERO
 000000                00000 00280  1234             =PZERO    RECORD BEGIN
                                    1242  1          =*
                                    1243  1          =* Real Page 0.  Each CPU has its own copy of this area.
                                    1244  1          =*
-                                   1246  1          =****************************************************************
                                    1247  1          =*               Fields Fixed by the Architecture               *
                                    1248  1          =*               ********************************               *
                                    1249  1          =*                                                              *
 000000                             1250  1          =PZRSNPSW   DS    D             Restart new PSW                 *
 000008                             1251  1          =PZRSOPSW   DS    D             Restart old PSW                 *
 000010                             1252  1          =           DS    D                                             *
 000018                             1253  1          =PZEXOPSW   DS    D             External old PSW                *
 000020                             1254  1          =PZSVOPSW   DS    D             Supervisor old PSW              *
 000028                             1255  1          =PZPIOPSW   DS    D             Program old PSW                 *
 000030                             1256  1          =PZMCOPSW   DS    D             Machine check old PSW           *
 000038                             1257  1          =PZIOOPSW   DS    D             I/O old PSW                     *
 000040                             1258  1          =           DS    3D                                            *
 000058                             1259  1          =PZEXNPSW   DS    D             External new PSW                *
 000060                             1260  1          =PZSVNPSW   DS    D             Supervisor new PSW              *
 000068                             1261  1          =PZPINPSW   DS    D             Program new PSW                 *
 000070                             1262  1          =PZMCNPSW   DS    D             Machine check new PSW           *
 000078                             1263  1          =PZIONPSW   DS    D             I/O new PSW                     *
 000080                             1264  1          =           DS    F                                             *
 000084                             1265  1          =PZEXCPU    DS    H             CPU address for EXT int         *
 000086                             1266  1          =PZEXIC     DS    H             External interrupt code         *
 000088                             1267  1          =PZSVILC    DS    H             Supervisor call ILC             *
 00008A                             1268  1          =PZSVIC     DS    H             Supervisor interrupt code       *
 00008C                             1269  1          =PZPIILC    DS    H             Program ILC                     *
 00008E                             1270  1          =PZPIIC     DS    H             Program interrupt code          *
 000090                             1271  1          =PZTREXA    DS    A             Translation exception address   *
 000094                             1272  1          =PZMONCL    DS    H             Monitor Class number            *
 000096                             1273  1          =PZPERCD    DS    H             PER code                        *
 000098                             1274  1          =PZPERA     DS    A             PER Address                     *
 00009C                             1275  1          =PZMONCD    DS    A             Monitor Code                    *
 0000A0                             1276  1          =           DS    3D                                            *
 0000B8                             1277  1          =PZIOSID    DS    A             I/O subsystem ID word           *
 0000BC                             1278  1          =PZIOPRM    DS    A             I/O Parameter                   *
 0000C0                             1279  1          =PZIOSCS    DS    A             I/O subchannel ending status    *
 0000C4                             1280  1          =           DS    A                                             *
 0000C8                             1281  1          =           DS    39D                                           *
                                    1282  1          =*                                                              *
                                    1283  1          =*            ***************************************           *
                                    1284  1          =*            End of Fields fixed by the architecture           *
                                    1285  1          =****************************************************************
1FILHCACH (FILH00) (09:40) (22MAR04) ORVYL'S Hiperspace Caching Routines                                                    Page    5
0D-Loc  Object Code    Addr1 Addr2  Stmt Lv Lineno    Source Statement           (Hibal 5, Asmedit 3.3)  HLASM R4.0  2004/03/22 09.40
+_____  ______ ____    _____ _____  ____ __ ______    ______ _________
0                                   1287  1          =*
                                    1288  1          =* Fields of general interest
                                    1289  1          =*
 000200                             1290  1          =PZMATP     DS    A             Address of the MAT
 000204                             1291  1          =           DS    A             ** Reserved **
 000208                             1292  1          =PZCURPID   DS    0D            Unique ID of the current process
 000208                             1293  1          =PZCURASB   DS    A             Addr of ASB for current Address space
 00020C                             1294  1          =PZCURTSK   DS    A             ID of current task in the Address space
 000210                             1295  1          =PZLCPUA    DS    A             Logical CPU address
 000214                             1296  1          =PZCPUMSK   DS    A             CPU address mask bit
 000218                             1297  1          =PZPSWM     DS    X             PSW mask for disabling
 000219                             1298  1          =           DS    X             ** Reserved **
                                    1299  1          =*
                                    1300  1          =* Termination/Trace information
                                    1301  1          =*
 00021A 00                          1302  1          =PZTERMFL   FLAG  ,             Termination flags
 PZTERMFL.PZABORT  80 ONES          1306  1          =           FLAG  PZABORT         ABORT macro issued
 PZTERMFL.PZATERM  40 ONES          1311  1          =           FLAG  PZATERM         Start termination processing
 00021B                             1316  1          =PZABSM     DS    X             Save area for system mask in ABORT
 00021C                             1317  1          =PZABR15    DS    A             Save area for R15 in an ABORT
 000220                             1318  1          =PZTZOFF    DS    D             Time zone offset
 000228                             1319  1          =           DS    22A           ** Reserved **
                                    1320  1          =*         DS    24A           ** Reserved **
 000280                00280 00280  1321             =         END   ,
 USING  PZERO,R0                    1330       7.              USING PZERO,R0
                                    1339       8.
                                    1340       9.              COPY  IOSPARM
 000000                00000 0001E  1341             =@IOSDOIO RECORD BEGIN
 000000                             1349  1          =@IOSCHID   DS    A                       Subchannel ID
 000004                             1350  1          =@IOSID     DS    A                       I/O ID
 000008                             1351  1          =@IOSPID    DS    D                       Process ID
 000010                             1352  1          =@IOSCP     DS    A                       Channel program addr (VA)
 000014                             1353  1          =@IOSXID    DS    A                       Exit ID/Fast path rtn addr
 000018                             1354  1          =@IOSXPAR   DS    A                       Ending parameter
 00001C                             1355  1          =@IOSKEY    DS    X                       Key for I/O
 00001D 00                          1356  1          =@IOSF1     FLAG  ,
 @IOSF1.@IOSFSYNC  80 ONES          1360  1          =           FLAG  @IOSFSYNC               Do I/O synchronous
 @IOSF1.@IOSFAS    40 ONES          1365  1          =           FLAG  @IOSFAS                 | do AS waits for this I/O
 @IOSF1.@IOSFAST   20 ONES          1370  1          =           FLAG  @IOSFAST                Fast path I/O
 00001E                0001E 0001E  1375             =         END   ,
-000000                00000 00008  1385             =@IOTERM  RECORD BEGIN                  I/O termination routine parms
 000000                             1393  1          =@IOTPARM   DS    A                       Termination routine parameter
 000004                             1394  1          =@IOTEND    DS    A                       Ending status of operation
 000008                00008 00008  1395             =         END   ,
-000000                00000 00010  1405             =@IOSTIME RECORD BEGIN
 000000                             1413  1          =@IOSTID    DS    A                       I/O ID
 000008                             1414  1          =@IOSIOTIME   DS  D                       Time of this I/O
 000010                00010 00010  1415             =         END   ,
-000000                00000 00001  1425             =@IOSIDGET RECORD BEGIN
 000000 00                          1433  1          =@IOSIDF     FLAG   ,
1FILHCACH (FILH00) (09:40) (22MAR04) ORVYL'S Hiperspace Caching Routines                                                    Page    6
0Current Usings:  (PZERO,R0)
0D-Loc  Object Code    Addr1 Addr2  Stmt Lv Lineno    Source Statement           (Hibal 5, Asmedit 3.3)  HLASM R4.0  2004/03/22 09.40
+_____  ______ ____    _____ _____  ____ __ ______    ______ _________
0@IOSIDF.@IOSFWAIT 80 ONES          1437  1          =            FLAG   @IOSFWAIT             If need be, wait for id
 000001                00001 00001  1442             =          END    ,
-000000                00000 00004  1452             =@IOSIDFRE RECORD BEGIN
 000000                             1460  1          =@IOSFID     DS   A                       ID being freed
 000004                00004 00004  1461             =          END  ,
1FILHCACH (FILH00) (09:40) (22MAR04) ORVYL'S Hiperspace Caching Routines                                                    Page    7
0Current Usings:  (PZERO,R0)
0Loc    Object Code    Addr1 Addr2  Stmt Lv Lineno    Source Statement           (Hibal 5, Asmedit 3.3)  HLASM R4.0  2004/03/22 09.40
+___    ______ ____    _____ _____  ____ __ ______    ______ _________
0                                   1471             =         COPY  IORPARM
                                    1472             =*******************************************************************
                                    1473             =*                                                                 *
                                    1474             =*     @IORPARM - ORVYL I/O request parameters                     *
                                    1475             =*                                                                 *
                                    1476             =*******************************************************************
0000000                00000 00014  1478             =@IORB    RECORD BEGIN
 000000                             1486  1          =@IORRQID   DS    A                       Request ID
 000004                             1487  1          =@IOROFF    DS    A                       Offset (guest real to MVS)
 000008                             1488  1          =@IORPARM   DS    A                       Pointer to user parm list
 00000C                             1489  1          =@IORSCH    DS    A                       Subchannel (device ID)
 000010                             1490  1          =@IORKEY    DS    X                       Channel program protect key
 000011                             1491  1          =@IORCC     DS    X                       Condition code (returned)
 000012                             1492  1          =           DS    2X                      Reserved
 000014                00014 00014  1493             =         END   ,
-
                                    1503             =*******************************************************************
                                    1504             =*                                                                 *
                                    1505             =*     @IOUPARM - I/O Device id allocate request parameters        *
                                    1506             =*                                                                 *
                                    1507             =*******************************************************************
0000000                00000 00004  1509             =@IOUPARM RECORD BEGIN
 000000                             1517  1          =@IOUDEVT   DS    A
                                    1518  1          =*
                                    1519  1          =*  Device types
                                    1520  1          =*
                                    1521  1          =#IOUPAGE   EQU   4                       | paging
                                    1522  1          =#IOUSWAP   EQU   8                       | swap
                                    1523  1          =#IOUFILE   EQU   12                      | file
                                    1524  1          =#IOUSCOM   EQU   16                      | path
                                    1525  1          =#IOUJES    EQU   20                      | JES
                                    1526  1          =#IOUHSP    EQU   24                      | Standard hiperspace
                                    1527  1          =#IOUESO    EQU   28                      | Cached hiperspace
 000004                00004 00004  1528             =         END   ,
                                    1537      10.     *
                                    1538      11.              COPY  VMPARM              Virtual memory
                                    1539             =*******************************************************************
                                    1540             =*                                                                 *
                                    1541             =*    Memory parms for inside the virtual machine.                 *
                                    1542             =*                                                                 *
                                    1543             =*******************************************************************
-000000                00000 0000B  1545             =@VMGET   RECORD BEGIN        Parm area for getting virtual memory
 000000                             1553  1          =@VMGLEN    DS    A             Amount of memory needed
 000004                             1554  1          =@VMGDAT    DS    A             More data. Address or maxlen.
 000008                             1555  1          =@VMGPOOL   DS    H             Pool/Subpool to get the memory from
 00000A 00                          1556  1          =@VMGFLG    FLAG  ,
 @VMGFLG.@VMGPAGE  80 ONES          1560  1          =           FLAG  @VMGPAGE      Page Aligned
 @VMGFLG.@VMGONEP  40 ONES          1565  1          =           FLAG  @VMGONEP      Don't cross page boundary
1FILHCACH (FILH00) (09:40) (22MAR04) ORVYL'S Hiperspace Caching Routines                                                    Page    8
0Current Usings:  (PZERO,R0)
0Loc    Object Code    Addr1 Addr2  Stmt Lv Lineno    Source Statement           (Hibal 5, Asmedit 3.3)  HLASM R4.0  2004/03/22 09.40
+___    ______ ____    _____ _____  ____ __ ______    ______ _________
000000B                0000B 0000B  1570             =         END   ,
-000000                00000 0000A  1580             =@VMFREE  RECORD BEGIN        Used for VMFREE and VMCHECK
 000000                             1588  1          =@VMFLOC    DS    A             Location of the storage to free
 000004                             1589  1          =@VMFLEN    DS    A             Amount to free
 000008                             1590  1          =@VMFPOOL   DS    H             Pool/Subpool where the storage lives
 00000A                0000A 0000A  1591             =         END   ,
-000000                00000 00009  1601             =@VMINFO  RECORD BEGIN        Returns User address limits/hash val
 000000                             1609  1          =@VMIUST    DS    A             Start of the user address space
 000004                             1610  1          =@VMIULEN   DS    A             Length of the user address space
 000008                             1611  1          =@VMITRSH   DS    X             Trash value
 000009                00009 00009  1612             =         END   ,
                                    1621      12.     *
                                    1622      13.              COPY  GRPARM              General resources
                                    1623             =*****************************************************************
                                    1624             =*
                                    1625             =* General Resource API
                                    1626             =*
                                    1627             =*****************************************************************
 000000                00000 00009  1628             =@GRES   RECORD BEGIN               General Resource Routine api
0000000                             1637  1          =@GRCID     DS    A                   Caller id
 000004                             1638  1          =@GRID      DS    A                   Resource id
0000008 00                          1640  1          =@GRFLAG    FLAG  ,
 @GRFLAG.@GRWAIT   80 ONES          1644  1          =           FLAG  @GRWAIT             Wait for resource to come free
 @GRFLAG.@GREXCL   40 ONES          1649  1          =           FLAG  @GREXCL             Get hold exclusively
 @GRFLAG.@GRCANAS  20 ONES          1654  1          =           FLAG  @GRCANAS            Cancel only this address space
0000009                00009 00009  1660             =         END   ,
0                                   1670             =*****************************************************************
                                    1671             =*
                                    1672             =* Create a general resource item
                                    1673             =*
                                    1674             =*   CALLID is a four byte caller identifier
                                    1675             =*
                                    1676             =*   The resource id is returned in RVR
                                    1677             =*
                                    1678             =*****************************************************************
                                    1679             =         MACRO ,
                                    1680             =&LABEL   GRCRE &CID=
                                    1681             =         AIF   ('&LABEL' EQ '').NOLAB
                                    1682             =&LABEL   LABEL ,
                                    1683             =.NOLAB   ANOP  ,
                                    1684             =         AIF   ('&CID' EQ '').ERR
                                    1685             =         PSET  @GRES
                                    1686             =         PMOV  @GRCID,&CID         Set caller id
                                    1687             =         VCALL GRCRE               Create a general resource item
                                    1688             =         AGO   .EXIT
                                    1689             =.ERR     MNOTE 8,'CID is a required parameter'
1FILHCACH (FILH00) (09:40) (22MAR04) ORVYL'S Hiperspace Caching Routines                                                    Page    9
0Current Usings:  (PZERO,R0)
0Loc    Object Code    Addr1 Addr2  Stmt Lv Lineno    Source Statement           (Hibal 5, Asmedit 3.3)  HLASM R4.0  2004/03/22 09.40
+___    ______ ____    _____ _____  ____ __ ______    ______ _________
0                                   1690             =.EXIT    ANOP  ,
                                    1691             =         MEND  ,
0                                   1693             =*****************************************************************
                                    1694             =*
                                    1695             =* Delete a general resource item
                                    1696             =*
                                    1697             =*   RID is a four byte resource id returned from GRCRE
                                    1698             =*
                                    1699             =*****************************************************************
                                    1700             =         MACRO ,
                                    1701             =&LABEL   GRDEL &RID=
                                    1702             =         AIF   ('&LABEL' EQ '').NOLAB
                                    1703             =&LABEL   LABEL ,
                                    1704             =.NOLAB   ANOP  ,
                                    1705             =         AIF   ('&RID' EQ '').ERR
                                    1706             =         PSET  @GRES
                                    1707             =         PMOV  @GRID,&RID          Set resource id
                                    1708             =         VCALL GRDEL               Delete a general resource item
                                    1709             =         AGO   .EXIT
                                    1710             =.ERR     MNOTE 8,'Resource ID is a requried parameter'
                                    1711             =.EXIT    ANOP  ,
                                    1712             =         MEND  ,
0                                   1714             =*****************************************************************
                                    1715             =*
                                    1716             =* Get a general resource item hold
                                    1717             =*
                                    1718             =*   RID is a four byte resource id returned from GRCRE
                                    1719             =*
                                    1720             =*   The resource hold id is returned in RVR
                                    1721             =*
                                    1722             =*****************************************************************
                                    1723             =         MACRO ,
                                    1724             =&LABEL   GRGET &RID=,&WAIT=YES,&EXCL=NO
                                    1725             =         AIF   ('&LABEL' EQ '').NOLAB
                                    1726             =&LABEL   LABEL ,
                                    1727             =.NOLAB   ANOP  ,
                                    1728             =         AIF   ('&RID' EQ '').ERR1
                                    1729             =         PSET  @GRES
                                    1730             =         PMOV  @GRID,&RID
                                    1731             =         AIF   ('&WAIT' EQ 'NO').EXCL
                                    1732             =         AIF   ('&WAIT' NE 'YES').ERR2
                                    1733             =         SET   @GRWAIT
                                    1734             =.EXCL    AIF   ('&EXCL' EQ 'NO').VCALL
                                    1735             =         AIF   ('&EXCL' NE 'YES').ERR3
                                    1736             =         SET   @GREXCL
                                    1737             =.VCALL   VCALL GRGET               Get general resource item
                                    1738             =         AGO   .EXIT
                                    1739             =.ERR1    MNOTE 8,'Resource ID is a requried parameter'
                                    1740             =         AGO   .EXIT
                                    1741             =.ERR2    MNOTE 8,'Valid values for WAIT= are YES or NO'
                                    1742             =         AGO   .EXIT
                                    1743             =.ERR3    MNOTE 8,'Valid values for EXCL= are YES or NO'
1FILHCACH (FILH00) (09:40) (22MAR04) ORVYL'S Hiperspace Caching Routines                                                    Page   10
0Current Usings:  (PZERO,R0)
0Loc    Object Code    Addr1 Addr2  Stmt Lv Lineno    Source Statement           (Hibal 5, Asmedit 3.3)  HLASM R4.0  2004/03/22 09.40
+___    ______ ____    _____ _____  ____ __ ______    ______ _________
0                                   1744             =.EXIT    ANOP  ,
                                    1745             =         MEND  ,
0                                   1747             =*****************************************************************
                                    1748             =*
                                    1749             =* Release a general resource item hold
                                    1750             =*
                                    1751             =*   RID is a four byte resource hold id returned from GRGET
                                    1752             =*     Note: The RID can be the resource id or hold id if the
                                    1753             =*           get was exclusive. See GRREL in RESMAN.
                                    1754             =*
                                    1755             =*****************************************************************
                                    1756             =         MACRO ,
                                    1757             =&LABEL   GRREL &RID=
                                    1758             =         AIF   ('&LABEL' EQ '').NOLAB
                                    1759             =&LABEL   LABEL ,
                                    1760             =.NOLAB   ANOP  ,
                                    1761             =         AIF   ('&RID' EQ '').ERR
                                    1762             =         PSET  @GRES
                                    1763             =         PMOV  @GRID,&RID
                                    1764             =         VCALL GRREL               Release a general resource item
                                    1765             =         AGO   .EXIT
                                    1766             =.ERR     MNOTE 8,'Resource ID is a requried parameter'
                                    1767             =         AGO   .EXIT
                                    1768             =.EXIT    ANOP  ,
                                    1769             =         MEND  ,
0                                   1771             =*****************************************************************
                                    1772             =*
                                    1773             =* Change an exclusive hold to a share hold
                                    1774             =*
                                    1775             =*   RID is a four byte resource id returned from GRGET
                                    1776             =*
                                    1777             =*****************************************************************
                                    1778             =         MACRO ,
                                    1779             =&LABEL   GRX2S &RID=
                                    1780             =         AIF   ('&LABEL' EQ '').NOLAB
                                    1781             =&LABEL   LABEL ,
                                    1782             =.NOLAB   ANOP  ,
                                    1783             =         AIF   ('&RID' EQ '').ERR
                                    1784             =         PSET  @GRES
                                    1785             =         PMOV  @GRID,&RID
                                    1786             =         VCALL GRX2S     Change an exclusive hold to a share hold
                                    1787             =         AGO   .EXIT
                                    1788             =.ERR     MNOTE 8,'Resource ID is a requried parameter'
                                    1789             =         AGO   .EXIT
                                    1790             =.EXIT    ANOP  ,
                                    1791             =         MEND  ,
0                                   1793             =*****************************************************************
                                    1794             =*
                                    1795             =* Cancel a general resource item waiting for hold
                                    1796             =*
                                    1797             =*   RID is a four byte resource id returned from GRGET
1FILHCACH (FILH00) (09:40) (22MAR04) ORVYL'S Hiperspace Caching Routines                                                    Page   11
0Current Usings:  (PZERO,R0)
0Loc    Object Code    Addr1 Addr2  Stmt Lv Lineno    Source Statement           (Hibal 5, Asmedit 3.3)  HLASM R4.0  2004/03/22 09.40
+___    ______ ____    _____ _____  ____ __ ______    ______ _________
0                                   1798             =*   TYPE is either ALL for cancel all waiters or AS for all
                                    1799             =*        waiters in this address space only
                                    1800             =*
                                    1801             =*****************************************************************
                                    1802             =         MACRO ,
                                    1803             =&LABEL   GRCAN &RID=,&TYPE=AS
                                    1804             =         AIF   ('&LABEL' EQ '').NOLAB
                                    1805             =&LABEL   LABEL ,
                                    1806             =.NOLAB   ANOP  ,
                                    1807             =         AIF   ('&RID' EQ '').ERR
                                    1808             =         PSET  @GRES
                                    1809             =         AIF   ('&TYPE' EQ 'ALL').CANALL
                                    1810             =         AIF   ('&TYPE' NE 'AS').ERR2
                                    1811             =         SET   @GRCANAS            Cancel only waiters of this AS
                                    1812             =.CANALL  ANOP  ,
                                    1813             =         PMOV  @GRID,&RID
                                    1814             =         VCALL GRCAN               Cancel a general resource item
                                    1815             =         AGO   .EXIT
                                    1816             =.ERR2    MNOTE 8,'Type must be ALL or AS'
                                    1817             =         AGO   .EXIT
                                    1818             =.ERR     MNOTE 8,'Resource ID is a requried parameter'
                                    1819             =.EXIT    ANOP  ,
                                    1820             =         MEND  ,
-                                   1823      14.
                                    1824      15.              COPY  HSPCPARM
                                    1825             =*******************************************************************
                                    1826             =*                                                                 *
                                    1827             =*    HSPCPARM - ORVYL Hiperspace request parameters               *
                                    1828             =*                                                                 *
                                    1829             =*******************************************************************
0                                   1831             =*
                                    1832             =* Prefix for every request
                                    1833             =*
 000000                00000 00004  1834             =#HSPCCMD RECORD BEGIN
 000000                             1842  1          =#HSCMD     DS    A
 000004                00004 00003  1843  1          =           ORG   #HSCMD+3
 000003                             1844  1          =#HSCCODE   DS    X
                                    1845  1          =*
                                    1846  1          =* Hspace Device I/O command codes
                                    1847  1          =*
                                    1848  1          =#HSOPEN    EQU   4                       Open action code
                                    1849  1          =#HSCLOS    EQU   8                       Close I/O code
                                    1850  1          =#HSREAD    EQU   12                      Read I/O code
                                    1851  1          =#HSWRIT    EQU   16                      Write I/O code
 000004                00004 00004  1852             =         END   ,
-                                   1862             =*
                                    1863             =* Hspace Device Open request
                                    1864             =*
 000000                00000 0000C  1865             =#HSPOPEN RECORD BEGIN
1FILHCACH (FILH00) (09:40) (22MAR04) ORVYL'S Hiperspace Caching Routines                                                    Page   12
0Current Usings:  (PZERO,R0)
0Loc    Object Code    Addr1 Addr2  Stmt Lv Lineno    Source Statement           (Hibal 5, Asmedit 3.3)  HLASM R4.0  2004/03/22 09.40
+___    ______ ____    _____ _____  ____ __ ______    ______ _________
0000000                             1873  1          =#HSPOCMD   DS    XL(L'#HSPCCMD)
 000004                             1874  1          =#HSPSIZE   DS    A                       Hspace max block #
 000008                             1875  1          =#HSPINFO   DS    A                       Data set info return area
 00000C                0000C 0000C  1876             =         END   ,
-                                   1886             =*
                                    1887             =* Hspace Device Close request
                                    1888             =*
 000000                00000 00004  1889             =#HSPCLOS RECORD BEGIN
 000000                             1897  1          =#HSPCLMD   DS    XL(L'#HSPCCMD)
 000004                00004 00004  1898             =         END   ,
-                                   1908             =*
                                    1909             =* Hspace Device Read/Write request
                                    1910             =*
 000000                00000 0000C  1911             =#HSPDO   RECORD BEGIN
 000000                             1919  1          =#HSPDCMD   DS    XL(L'#HSPCCMD)
 000004                             1920  1          =#HSPLIST   DS    A                       Pointer to page list
 000008                             1921  1          =#HSPCNT    DS    H                       Total number of pages
 00000A                             1922  1          =#HSPRC     DS    H                       Return Code
                                    1923  1          =#HSPEND    EQU *
 00000C                0000C 00003  1924  1          =           ORG   #HSPDCMD+3
 000003                             1925  1          =#HSPCODE   DS    X
 000004                00004 0000C  1926  1          =           ORG   #HSPEND
 00000C                0000C 0000C  1927             =         END   ,
                                    1936             =*
                                    1937             =*  The page list pointed to by #HSPLIST follows.
                                    1938             =*  The first entry is a pointer to the next list
                                    1939             =*  which is zero for the last list.  Page list
                                    1940             =*  entries follow this pointer.
                                    1941             =*
                                    1942             =*  Each entry consists of 2 fullwords
                                    1943             =*  Word 1 contains a guest real page addr
                                    1944             =*  Word 2 contains a Hiperspace block #
                                    1945             =*
                                    1946             =*  Upon return hi-order byte of Word 2 contains
                                    1947             =*  error info from MVPG or HSPSERV if #HSPRC is
                                    1948             =*  non-zero.
                                    1949             =*
 000000                00000 0000C  1950             =#HSPL    RECORD BEGIN
 000000                             1958  1          =#HSPLNXT   DS     F                      Pointer to next list
 000004                             1959  1          =#HSPLPGE   DS     F                      Page Entry
 000008                             1960  1          =#HSPLBLK   DS     F                      Block Number
                                    1961  1          =#HSPLEND   EQU *
 00000C                0000C 00008  1962  1          =           ORG    #HSPLBLK
 000008 00                          1963  1          =#HSPLFLG   FLAG   ,
 #HSPLFLG.#HSPLERR 80 ONES          1967  1          =           FLAG   #HSPLERR               HSPACE error
 000009                00009 0000C  1972             =         END    ,
-                                   1982      16.     *
                                    1983      17.              COPY  CACHPARM            Caching api
1FILHCACH (FILH00) (09:40) (22MAR04) ORVYL'S Hiperspace Caching Routines                                                    Page   13
0Current Usings:  (PZERO,R0)
0Loc    Object Code    Addr1 Addr2  Stmt Lv Lineno    Source Statement           (Hibal 5, Asmedit 3.3)  HLASM R4.0  2004/03/22 09.40
+___    ______ ____    _____ _____  ____ __ ______    ______ _________
0                                   1984=            =
                                    1985=            =
                                    1986=            =        CACHPARM - Caching routine calling parms
                                    1987=            =

0000000                00000 00009  1988             =@CAOPEN  RECORD BEGIN              CAOPEN parameters...
 000000                             1996  1          =@CAODLEN   DS    F                   Data entry length
 000004                             1997  1          =@CAONBUF   DS    F                   Number of buffers
 000008 00                          1998  1          =@CAOFLAG   FLAG  ,                   Flag
 @CAOFLAG.@CAOFNOT 80 ONES          2002  1          =           FLAG  @CAOFNOT            Don't dump cache blocks
 000009                00009 00009  2007             =         END
                                    2016=            =
 000000                00000 0000C  2017             =@CACTRL  RECORD BEGIN              CACTRL parameters...
 000000                             2025  1          =@CACCIT    DS    A                   CIT ptr
 000004                             2026  1          =@CACCNO    DS    F                   Control number
 000008                             2027  1          =@CACPARM   DS    F                   Control parameter
 00000C                0000C 0000C  2028             =         END
                                    2037=            =
 000000                00000 00020  2038             =@CAIO    RECORD BEGIN              CAREAD/CAWRITE parameters...
 000000                             2046  1          =@CAIOCIT   DS    A                   CIT ptr
 000004                             2047  1          =@CAIOHP    DS    A                   Header ptr (move to/from here)
 000008                             2048  1          =@CAIOHL    DS    F                   Header length
 00000C                             2049  1          =@CAIODP    DS    A                   Data ptr   (move to/from here)
 000010                             2050  1          =@CAIODL    DS    F                   Data length
 000018                             2051  1          =@CAIOKEY   DS    D                   64-bit key
 000020                00020 00020  2052             =         END
                                    2061=            =
 000000                00000 00004  2062             =@CAVERIFY RECORD BEGIN             CAVERIFY parameters...
 000000                             2070  1          =@CAVRCIT   DS    A                   CIT ptr
 000004                00004 00004  2071             =         END
                                    2080=            =
 000000                00000 00004  2081             =@CACLOSE RECORD BEGIN              CACLOSE parameters...
 000000                             2089  1          =@CACLCIT   DS    A                   CIT ptr
 000004                00004 00004  2090             =         END
                                    2099      18.     *
                                    2100      19.              COPY  CACHCBH             Cache control block
                                    2101             =*
                                    2102             =*  Hiperspace cache
                                    2103             =*
                                    2104             =*        CABH -- Cache Buffer Entry
                                    2105             =*
 000000                00000 00050  2106             =CABH     RECORD BEGIN
 000000                             2114  1          =CABHBID    DS    C'CABH'             Self-identification
 000004                             2115  1          =CABHBLKN   DS    A                   ESO data block number
                                    2116  1          =
 000008                             2117  1          =CABHQUE    DS    0D
 000008                             2118  1          =CABHQFP    DS    A                   Forw CABH ptr in hash queue
 00000C                             2119  1          =CABHQBP    DS    A                   Back CABH ptr in hash queue
                                    2120  1          =
 000010                             2121  1          =CABHAGE    DS    0D
 000010                             2122  1          =CABHAFP    DS    A                   Forw CABH ptr in aging queue
 000014                             2123  1          =CABHABP    DS    A                   Back CABH ptr in aging queue
                                    2124  1          =
1FILHCACH (FILH00) (09:40) (22MAR04) ORVYL'S Hiperspace Caching Routines                                                    Page   14
0Current Usings:  (PZERO,R0)
0Loc    Object Code    Addr1 Addr2  Stmt Lv Lineno    Source Statement           (Hibal 5, Asmedit 3.3)  HLASM R4.0  2004/03/22 09.40
+___    ______ ____    _____ _____  ____ __ ______    ______ _________
0000018                             2125  1          =CABHKEY    DS    D                   64-bit key for this buffer
 000020                             2126  1          =CABHHDR    DS    XL32                32-byte header
 000040                             2127  1          =CABHTOD    DS    F                   Active since this time
 000044                             2128  1          =CABHCHK    DS    F                   Check sum result
 000048                             2129  1          =CABHNRDS   DS    F                   No. cache reads for this buffer
 00004C                             2130  1          =CABHNWRS   DS    F                   No. cache writes for this buffer
                                    2131  1          =CABHCLR    EQU   CABHKEY,*-CABHKEY
 000050                00050 00050  2132             =         END   ,
                                    2141             =*
                                    2142             =*        CITH -- Cache Information Table
                                    2143             =*
                                    2144             =* Cache buffers are chained of a queue in one of 16 hash tables.
                                    2145             =* The hash table is determined by the last 4 bits of the hash key.
                                    2146             =* This helps prevent lock contention because there are 16 locks.
                                    2147             =* The number of queues per hash table is determined by the number
                                    2148             =* of blocks defined for the cache.
                                    2149             =*
 000000                00000 00348  2150             =CITH     RECORD BEGIN
                                    2158  1          =
 000000                             2159  1          =CITHBID    DS    C'CITH'             Self-identification
 000004                             2160  1          =           DS    F                   Spare
 000008                             2161  1          =CITHSIZE   DS    A                   Length of this block
 00000C                             2162  1          =CITHTSIZ   DS    A                   Above plus length of CABH area
 000010                             2163  1          =CITHASH    DS    H                   Some nice prime number
 000012 00                          2164  1          =CITHFLAG   FLAG  ,
 CITHFLAG.CITHFCHK 80 ONES          2168  1          =           FLAG  CITHFCHK            Check sum option
 000013                             2173  1          =           DS    X                   Spare
 000014                             2174  1          =           DS    F                   Spare
 000018                             2175  1          =CITHNBUF   DS    F                   Number of cache buffers
 00001C                             2176  1          =           DS    F                   Spare
                                    2177= 1          =
                                    2178= 1          =             Statistics.
                                    2179= 1          =
 000020                             2180  1          =CITH#RD    DS    F                   Number of CAREAD calls
 000024                             2181  1          =CITH#RDF   DS    F                   Number of CAREADs found in cache
 000028                             2182  1          =CITH#RDS   DS    F                   Number of stollen blocks
 00002C                             2183  1          =CITH#WR    DS    F                   Number of CAWRITE calls
 000030                             2184  1          =CITH#RDT   DS    D                   Total read IO time (found only)
 000038                             2185  1          =CITH#WRT   DS    D                   Total write IO time
                                    2186  1          =
 000040                             2187  1          =CITHCTL    DS    0XL48               Control areas
 000040                             2188  1          =CITHCBID   DS    C'CIT0'             Eye catcher
 000044                             2189  1          =CITHGRES   DS    A                   Reserve ID
 000048                             2190  1          =CITHIORB   DS    A                   IORB address
 00004C                             2191  1          =CITHAFP    DS    A                   Aging queue forward pointer
 000050                             2192  1          =CITHABP    DS    A                   Aging queue backward pointer
 000054                             2193  1          =CITHTOKN   DS    F                   Hiperspace token
 000058                             2194  1          =CITHESO    DS    XL24                ESO parm area
 000070                             2195  1          =           DS    15XL(L'CITHCTL)     16 total
                                    2196  1          =
 000340                             2197  1          =CITHQUE    DS    0D                  Hash queues
 000340                             2198  1          =CITHQFP    DS    A                   Forward pointer
 000344                             2199  1          =CITHQBP    DS    A                   Backward pointer
 000348                00348 00348  2200             =         END
1FILHCACH (FILH00) (09:40) (22MAR04) ORVYL'S Hiperspace Caching Routines                                                    Page   15
0Current Usings:  (PZERO,R0)
0Loc    Object Code    Addr1 Addr2  Stmt Lv Lineno    Source Statement           (Hibal 5, Asmedit 3.3)  HLASM R4.0  2004/03/22 09.40
+___    ______ ____    _____ _____  ____ __ ______    ______ _________
0                                   2209      20.     *
                                    2210      21.     *        CHHASH -- Macro to form number between 0 and CITNHASH-1
                                    2211      22.     *          based on a 64-bit key. It also set addressability
                                    2212      23.     *          to the control area and hash queue based on an index
                                    2213      24.     *          derived by using the last nibble of the 64-bit key.
                                    2214      25.     *
                                    2215      26.              MACRO
                                    2216      27.     &L       CHHASH &KEY
                                    2217      28.     &L       LM    RA,RB,&KEY          Get Key
                                    2218      29.              SLL   RA,16
                                    2219      30.              ALR   RB,RA               Form 32 bit hash
                                    2220      31.              N     RB,=A(X'7FFFFFFF')  Force positive number
                                    2221      32.              CLEAR RA
                                    2222      33.              LH    RS,CITHASH
                                    2223      34.              DR    RA,RS               RA = num between 0 and CITHASH-1
                                    2224      35.              SLL   RA,3                Times len of queue (8)
                                    2225      36.              L     RB,&KEY+4           Get block number
                                    2226      37.              N     RB,=A(15)           Get hash index, last nibble
                                    2227      38.              LR    RS,RB               Get it again
                                    2228      39.              MH    RB,CITHASH          Calc disp to correct hash group
                                    2229      40.              SLL   RB,3                Times len of queue (8)
                                    2230      41.              AR    RB,RA               Calc disp to correct hash slot
                                    2231      42.              LA    RA,CITHQUE(RB)      Point to hash queue list
                                    2232      43.              MH    RS,=Y(L'CITHCTL)    Calc displacement to control area
                                    2233      44.              LA    RB,CITHCTL(RS)      Point to the correct control area
                                    2234      45.              WITH  (CITHCTL,RB)
                                    2235      46.              WITH  (CITHQUE,RA)
                                    2236      47.              MEND
                                    2237      48.
                                    2238      49.              MACRO
                                    2239      50.     &L       LQUE  &HEAD,&ITEM         Put on end of list
                                    2240      51.     &L       L     R14,&HEAD.BP        Point to old last
                                    2241      52.              LA    R15,&ITEM.FP        Point to new last
                                    2242      53.              ST    R15,&HEAD.BP        New last
                                    2243      54.              ST    R14,&ITEM.BP        Point back to old last
                                    2244      55.              ST    R15,0(R14)          Old last points to new last
                                    2245      56.              LA    R14,&HEAD.FP        Point to queue head
                                    2246      57.              ST    R14,&ITEM.FP        New points to head
                                    2247      58.              MEND
                                    2248      59.
                                    2249      60.              MACRO
                                    2250      61.     &L       LPUSH &HEAD,&ITEM         Put at start of list
                                    2251      62.     &L       L     R14,&HEAD.FP        Point to old first
                                    2252      63.              LA    R15,&ITEM.FP        Point to new first
                                    2253      64.              ST    R15,&HEAD.FP        New first
                                    2254      65.              ST    R14,&ITEM.FP        Point to old first
                                    2255      66.              ST    R15,4(R14)          Old first points to new first
                                    2256      67.              LA    R14,&HEAD.FP        Point to queue head
                                    2257      68.              ST    R14,&ITEM.BP        New points to head
                                    2258      69.              MEND
                                    2259      70.
                                    2260      71.              MACRO
                                    2261      72.     &L       LREM  &ITEM               Remove from list
                                    2262      73.     &L       L     R14,&ITEM.BP        Point back
1FILHCACH (FILH00) (09:40) (22MAR04) ORVYL'S Hiperspace Caching Routines                                                    Page   16
0Current Usings:  (PZERO,R0)
0Loc    Object Code    Addr1 Addr2  Stmt Lv Lineno    Source Statement           (Hibal 5, Asmedit 3.3)  HLASM R4.0  2004/03/22 09.40
+___    ______ ____    _____ _____  ____ __ ______    ______ _________
0                                   2263      74.              L     R15,&ITEM.FP        Point forward
                                    2264      75.              ST    R14,4(R15)          Reset the chain
                                    2265      76.              ST    R15,0(R14)          Reset the chain
                                    2266      77.              XC    &ITEM.FP(8),&ITEM.FP Keep things tiddy
                                    2267      78.              MEND
1FILHCACH (FILH00) (09:40) (22MAR04) ORVYL'S Hiperspace Caching Routines                                                    Page   17
0Current Usings:  (PZERO,R0)
0Loc    Object Code    Addr1 Addr2  Stmt Lv Lineno    Source Statement           (Hibal 5, Asmedit 3.3)  HLASM R4.0  2004/03/22 09.40
+___    ______ ____    _____ _____  ____ __ ______    ______ _________
0                                   2269      80.     *
                                    2270      81.     *  CHOPEN -- Routine to establish a cache area.
                                    2271      82.     *
                                    2272      83.     *    On entry:
                                    2273      84.     *      @CAONBUF - number of buffers to allocate
                                    2274      85.     *
                                    2275      86.     *    On exit, RVR:
                                    2276      87.     *      0 - cache not available
                                    2277      88.     *      nz- CIT ptr
                                    2278      89.     *
 000016                             2279      90.     CHOPEN   PROC  @CAOPEN,SCOPE=GLOBAL
 000016 C3C8D6D7C5D54040            2285             +
 00001E 0010/0000                   2286             +
 000022 900F D004/18AF       00004  2288             +
 USING  CHOPEN,R10
 000028 50D0 C000/18CD       00000  2303             +
 00002E 9680 C000      00000        2305             +
 USING  @CAOPEN-72,R12
 000032 41D0 C058            00058  2319             +
                                    2320      91.
                                    2321      92.                Allocate CITH.
                                    2322      93.
 USING  CABH,R9                     2323      94.              WITH  (CABH,RN)
 USING  CITH,R8                     2336      95.              WITH  (CITH,RM)
 000036 5820 C04C            00004  2349      96.              L     RA,@CAONBUF         Count of buffers
                                    2350      97.     * We need 16 groups each
 00003A 4120 200F            0000F  2351      98.              LA    RA,@RA+15           Round up
 00003E 5420 A7FE            00820  2352      99.              N     RA,=X'FFFFFFF0'     Even multiple of 16
 000042 1892                        2353     100.              LR    RN,RA               Save count
 000044 1852                        2354     101.              LR    RK,RA               Get count
 000046 4C20 A83A            0085C  2355     102.              MH    RA,=Y(L'CABH)       Calc length of CABH's
 00004A 5A50 A802            00824  2356     103.              A     RK,=A(4096)         Round up
 00004E 8850 000E            0000E  2357     104.              SRL   RK,14               Divide by 16384 for index
 000052 8950 0001            00001  2358     105.              SLL   RK,1                Calc offset
 000056 4950 A83C            0085E  2359     106.              IF    (RK,GT,=Y(HASHTMAX)),'LH RK,=Y(HASHTMAX)'
 00005A 47D0 A040            00062  2370             +
 00005E 4850 A83C            0085E  2376             +
 000062 4855 A238            0025A  2381     107.              LH    RK,HASHTAB(RK)      Get hash number
 000066 1815                        2382     108.              LR    RS,RK               Get hash number
 000068 8910 0004            00004  2383     109.              SLL   RS,4                Times 16
 00006C 4C10 A83E            00860  2384     110.              MH    RS,=Y(L'CITHQUE)    Calc length of queues
 000070 4A10 A840            00862  2385     111.              AH    RS,=Y(L'CITH-L'CITHQUE) Basic CITH length
 000074 1831                        2386     112.              LR    RB,RS               Save CITH size
 000076 1A12                        2387     113.              AR    RS,RA               Calc total
 000078 1821                        2388     114.              LR    RA,RS               Save total
 USING  @VMGET-72,R13               2389     115.              VMGET (RS),LOC=GLOBHI,FIX=YES,PAGE=YES Allocate
 00007A D70A D048 D048 00000 00000  2413             +
 000080 5010 D048            00000  2423             +
 000084 D201 D050 A842 00008 00864  2424             +
 00008A 9680 D052      0000A        2430             +
 00008E 58F0 A806/0DEF       00828  2433             +
 000094 1200/4780 A22E       00250  2435     116.              IF    (RVR,Z),EXIT        No memory, forget it
 00009A 1880                        2452     117.              LR    RM,RVR              Set pointer
 00009C 1BFF                        2453     118.              CLEAR R15
1FILHCACH (FILH00) (09:40) (22MAR04) ORVYL'S Hiperspace Caching Routines                                                    Page   18
0Current Usings:  (PZERO,R0) (CITH,R8) (CABH,R9) (CHOPEN,R10) (@CAOPEN-72,R12) (@VMGET-72,R13)
0Loc    Object Code    Addr1 Addr2  Stmt Lv Lineno    Source Statement           (Hibal 5, Asmedit 3.3)  HLASM R4.0  2004/03/22 09.40
+___    ______ ____    _____ _____  ____ __ ______    ______ _________
000009E 0E0E                        2457     119.              MVCL  RVR,R14             Clear area
 0000A0 D203 8000 A80A 00000 0082C  2458     120.              MVC   CITHBID,=C'CITH'    Set tag
 0000A6 5090 8018            00018  2459     121.              ST    RN,CITHNBUF         Count of buffers
 0000AA 4050 8010            00010  2460     122.              STH   RK,CITHASH          Hash number
 0000AE 5030 8008            00008  2461     123.              ST    RB,CITHSIZE         Size of CITH
 0000B2 5020 800C            0000C  2462     124.              ST    RA,CITHTSIZ         Save total size
                                    2463     125.     * Include cache in dump?
 0000B6 9180 C050      00008        2464     126.              IF    @CAOFNOT,BEGIN
 0000BA 47E0 A0A0            000C2  2474             +
 0000BE 8382001D                    2479  1  127.                SYSCTL RM,RA,TYPE=DUMPNOT
 0000C2                             2482     128.              END   ,
                                    2486     129.     * This option causes a checksum to be calculated on each write. Then
                                    2487     130.     * on each read, it is calculated again and compared to the write value.
                                    2488     131.     * A dump occurs if the values don't match. Some day this could be
                                    2489     132.     * removed for performance considerations.
 0000C2 9680 8012      00012        2490     133.              SET   CITHFCHK            Set checksum option
                                    2496     134.
 0000C6 4820 8010            00010  2497     135.              LH    RA,CITHASH          Hash number
 0000CA 8920 0004            00004  2498     136.              SLL   RA,4                Times 16
 0000CE 4130 8340            00340  2499     137.              LA    RB,CITHQUE          First one
 USING  CITHQUE,R3                  2500     138.              WITH  (CITHQUE,RB),BEGIN
 0000D2                             2514  1  139.                LOOP  BEGIN
 0000D2 5030 3000            00340  2520  2  140.                  ST    RB,CITHQFP          Init queue head
 0000D6 5030 3004            00344  2521  2  141.                  ST    RB,CITHQBP
 0000DA 4130 3008            00348  2522  2  142.                  LA    RB,CITHQUE+L'CITHQUE Increment pointer
 0000DE 4620 A0B0            000D2  2523  1  143.                UNTIL (BCT,RA),END
 DROP   CITHQUE,R3                  2533     144.              END   ,
                                    2541     145.
 0000E2                             2542     146.              CLEAR CITHESO             Set up open API
 0000E2 D717 8058 8058 00058 00058  2548             +
 0000E8 4170 8058            00058  2549     147.              LA    RY,CITHESO          Open the device
 USING  #HSPOPEN,R7                 2550     148.              WITH  (#HSPOPEN,RY),BEGIN
 0000EC 41F0 0004            00004  2564  1  149.                LA    R15,#HSOPEN
 0000F0 50F0 7000            00000  2565  1  150.                ST    R15,#HSPOCMD
 0000F4 5860 8018            00018  2566  1  151.                L     RX,CITHNBUF         Count of buffers
 0000F8 8860 0004            00004  2567  1  152.                SRL   RX,4                Divide by 16
 0000FC 5060 7004            00004  2568  1  153.                ST    RX,#HSPSIZE
 DROP   #HSPOPEN,R7                 2569     154.              END   ,
                                    2577     155.
 000100 4120 0010            00010  2578     156.              LA    RA,16               Count of control areas
 000104 4130 8040            00040  2579     157.              LA    RB,CITHCTL          First one
 USING  CITHCTL,R3                  2580     158.              WITH  (CITHCTL,RB),BEGIN
 000108                             2594  1  159.                LOOP  BEGIN
 000108 D203 3000 A80E 00040 00830  2600  2  160.                  MVC   CITHCBID,=C'CIT0'
 00010E 41F0 0010            00010  2601  2  161.                  LA    R15,16
 000112 1BF2                        2602  2  162.                  SR    R15,RA
 000114 41FF A7EE            00810  2603  2  163.                  LA    R15,=C'0123456789ABCDEF'(R15)
 000118 D200 3003 F000 00043 00000  2604  2  164.                  MVC   CITHCBID+L'CITHCBID-1(1),@R15
 DROP   @VMGET-72,R13               2605  2  165.                  GRCRE CID=CITHCBID        Get GRES id
 USING  @GRES-72,R13
 00011E D708 D048 D048 00000 00000  2626  2          +
 000124 D203 D048 3000 00000 00040  2631  2          +
 00012A 58F0 A812/0DEF       00834  2634  2          +
 000130 5000 3004            00044  2636  2  166.                  ST    RVR,CITHGRES        Set id
1FILHCACH (FILH00) (09:40) (22MAR04) ORVYL'S Hiperspace Caching Routines                                                    Page   19
0Current Usings:  (PZERO,R0) (CITHCTL,R3) (CITH,R8) (CABH,R9) (CHOPEN,R10) (@CAOPEN-72,R12) (@IOSIDGET-72,R13)
0Loc    Object Code    Addr1 Addr2  Stmt Lv Lineno    Source Statement           (Hibal 5, Asmedit 3.3)  HLASM R4.0  2004/03/22 09.40
+___    ______ ____    _____ _____  ____ __ ______    ______ _________
0000134 9200 D048      00000        2637  2  167.                  PSET  @IOSIDGET           Get IORB
 DROP   @GRES-72,R13
 USING  @IOSIDGET-72,R13
 000138 9680 D048      00000        2658  2  168.                  SET   @IOSFWAIT
 00013C 58F0 A816/0DEF       00838  2664  2  169.                  VCALL IOSIDGET
 000142 5000 3008            00048  2668  2  170.                  ST    RVR,CITHIORB
 000146 4110 300C            0004C  2669  2  171.                  LA    RS,CITHAFP
 00014A 5010 300C            0004C  2670  2  172.                  ST    RS,CITHAFP          Init aging queue head
 00014E 5010 3010            00050  2671  2  173.                  ST    RS,CITHABP
 000152 4160 001C            0001C  2672  2  174.                  LA    RX,#IOUESO          Hiperspace type (extended storage)
 000156 83600007                    2673  2  175.                  SYSCTL (RX),TYPE=ALLOC
 00015A 1266/4770 A16E       00190  2676  2  176.                  IF    (RX,ZERO),'ABORT NO_HCACHE_SPACE'
 000160 AC04 021B      0021B        2694  3          +
 000164 9680 021A      0021A        2700  3          +
 000168 50F0 021C            0021C  2701  3          +
 00016C 58F0 0210            00210  2702  3          +
 000170 89F0 0010            00010  2703  3          +
 000174 88F0 0010            00010  2704  3          +
 000178 41F0 F000            00000  2705  3          +
 00017C AEFF 0006            00006  2706  3          +
 000180 D5D66DC8C3C1C3C8            2707  2          +
 000190 5060 3014            00054  2712  2  177.                  ST    RX,CITHTOKN         Save our identifier
 DROP   @IOSIDGET-72,R13            2713  2  178.                  PSET  @IOSDOIO            Call IO Supervisor
 USING  @IOSDOIO-72,R13
 000194 D71D D048 D048 00000 00000  2733  2          +
 00019A                             2734  2  179.                  PMOV  @IOSCHID,CITHTOKN   Hiperspace cache identifier
 00019A D203 D048 3014 00000 00054  2738  2          +
 0001A0                             2739  2  180.                  PMOV  @IOSID,CITHIORB     I/O supervisor ID
 0001A0 D203 D04C 3008 00004 00048  2743  2          +
 0001A6                             2744  2  181.                  PMOV  @IOSPID,PZCURPID
 0001A6 D207 D050 0208 00008 00208  2748  2          +
 0001AC 5070 D058            00010  2749  2  182.                  PMOV  @IOSCP,(RY)         Open API
 0001B0 9680 D065      0001D        2759  2  183.                  SET   @IOSFSYNC           Wait for I/O to complete
 0001B4 58F0 A81A/0DEF       0083C  2765  2  184.                  VCALL IOSDOIO
 0001BA 1200/4780 A1CE       001F0  2769  2  185.                  IF    (RVR,NZ),'ABORT CHOPEN_NOT!'
 0001C0 AC04 021B      0021B        2787  3          +
 0001C4 9680 021A      0021A        2793  3          +
 0001C8 50F0 021C            0021C  2794  3          +
 0001CC 58F0 0210            00210  2795  3          +
 0001D0 89F0 0010            00010  2796  3          +
 0001D4 88F0 0010            00010  2797  3          +
 0001D8 41F0 F000            00000  2798  3          +
 0001DC AEFF 0006            00006  2799  3          +
 0001E0 C3C8D6D7C5D56DD5            2800  2          +
 0001F0 4130 3030            00070  2805  2  186.                  LA    RB,CITHCTL+L'CITHCTL Increment pointer
 0001F4 4620 A0E6            00108  2806  1  187.                UNTIL (BCT,RA),END
 DROP   CITHCTL,R3                  2816     188.              END   ,
                                    2824     189.
 0001F8 4120 0010            00010  2825     190.              LA    RA,16               Count of control areas
 0001FC 4130 8040            00040  2826     191.              LA    RB,CITHCTL          First one
 USING  CITHCTL,R3                  2827     192.              WITH  (CITHCTL,RB),BEGIN
 000200 5890 8008            00008  2841  1  193.                L     RN,CITHSIZE         Get size of CITH
 000204 4199 8000            00000  2842  1  194.                LA    RN,CITH(RN)         Point to CABHs
 000208                             2843  1  195.                LOOP  BEGIN
1FILHCACH (FILH00) (09:40) (22MAR04) ORVYL'S Hiperspace Caching Routines                                                    Page   20
0Current Usings:  (PZERO,R0) (CITHCTL,R3) (CITH,R8) (CABH,R9) (CHOPEN,R10) (@CAOPEN-72,R12) (@IOSDOIO-72,R13)
0Loc    Object Code    Addr1 Addr2  Stmt Lv Lineno    Source Statement           (Hibal 5, Asmedit 3.3)  HLASM R4.0  2004/03/22 09.40
+___    ______ ____    _____ _____  ____ __ ______    ______ _________
0000208 5860 8018            00018  2849  2  196.                  L     RX,CITHNBUF         Count of buffers
 00020C 8860 0004            00004  2850  2  197.                  SRL   RX,4                Divide by 16
 000210 1B77                        2851  2  198.                  CLEAR RY                  Buffer number
 000212                             2855  2  199.                  LOOP  BEGIN
 000212 D203 9000 A81E 00000 00840  2861  3  200.                    MVC   CABHBID,=C'CABH'    Set id
 000218 5070 9004            00004  2862  3  201.                    ST    RY,CABHBLKN         Set buffer number
 00021C 5E70 A822            00844  2863  3  202.                    INCR  RY                  Next buffer number
 000220 58E0 3010            00050  2866  3  203.                    LQUE  CITHA,CABHA         Queue it up
 000224 41F0 9010            00010  2868  3          +
 000228 50F0 3010            00050  2869  3          +
 00022C 50E0 9014            00014  2870  3          +
 000230 50FE 0000            00000  2871  3          +
 000234 41E0 300C            0004C  2872  3          +
 000238 50E0 9010            00010  2873  3          +
 00023C 4190 9050            00050  2874  3  204.                    LA    RN,CABH+L'CABH      Point to next one
 000240 4660 A1F0            00212  2875  2  205.                  UNTIL (BCT,RX),END
 000244 4130 3030            00070  2885  2  206.                  LA    RB,CITHCTL+L'CITHCTL Increment pointer
 000248 4620 A1E6            00208  2886  1  207.                UNTIL (BCT,RA),END
 DROP   CITHCTL,R3                  2896     208.              END   ,
                                    2904     209.
 00024C 4100 8000            00000  2905     210.              LA    RVR,CITH            Return CIT ptr to caller
 000250 981F C008            00008  2906     211.              PEND  ,
 DROP   CITH,R8
 DROP   CABH,R9
 DROP   @CAOPEN-72,R12
 DROP   CHOPEN,R10
 000254 9680 C000/0B0E 00000        2931             +
 DROP   @IOSDOIO-72,R13
                                    2940     212.     *
                                    2941     213.     * The offset to the prime number used as a hash number for the table
                                    2942     214.     * is caculated by dividing the number of records defined for the cache
                                    2943     215.     * by 16384. These hash numbers are the nearest prime number to the
                                    2944     216.     * next successive multiple of 82. This will give an average queue
                                    2945     217.     * depth of around 13 or 14. This table accomodates cache sizes of
                                    2946     218.     * up to 500,000 blocks or so. Add some more prime numbers to the
                                    2947     219.     * end of this table if cache sizes go above this amount some day.
                                    2948     220.     *
 00025A 005300A30107014B            2949     221.     HASHTAB  DC    Y(83,163,263,331,409,491,571,653,739,821,907,983)
 000272 0427047F04CF051B            2950     222.              DC    Y(1063,1151,1231,1307,1399,1471,1559,1637,1721,1801)
 000286 076107B508050853            2951     223.              DC    Y(1889,1973,2053,2131,2213,2297,2377,2459,2543)
                                    2952     224.     HASHTMAX EQU   *-HASHTAB-L'HASHTAB Max index
1FILHCACH (FILH00) (09:40) (22MAR04) ORVYL'S Hiperspace Caching Routines                                                    Page   21
0Current Usings:  (PZERO,R0)
0Loc    Object Code    Addr1 Addr2  Stmt Lv Lineno    Source Statement           (Hibal 5, Asmedit 3.3)  HLASM R4.0  2004/03/22 09.40
+___    ______ ____    _____ _____  ____ __ ______    ______ _________
0                                   2954     226.     *
                                    2955     227.     *  CHCLOSE -- Routine to close the hiperspace cache
                                    2956     228.     * Currently not used. See MASTER for how the host closes all
                                    2957     229.     * hiperspaces.
                                    2958     230.     *
                                    2959     231.     *HCLOSE  PROC  @CACLOSE,SCOPE=GLOBAL
                                    2960     232.     *        L     RM,@CACLCIT
                                    2961     233.     *        WITH  (CITH,RM)
                                    2962     234.     *        IF    (CITHBID,NE,'CITH'),'ABORT CHCLOSE_BADCIT'
                                    2963     235.     *        MVI   CITHBID,C'c'        Invalidate the block
                                    2964     236.     *
                                    2965     237.     *        CLEAR CITHESO             Set up close API
                                    2966     238.     *        LA    RY,CITHESO
                                    2967     239.     *        WITH  (#HSPCLOS,RY),BEGIN
                                    2968     240.     *        LA    R15,#HSCLOS
                                    2969     241.     *        ST    R15,#HSPCLMD
                                    2970     242.     *        END   ,
                                    2971     243.     *
                                    2972     244.     *        PSET  @IOSDOIO            Call IO Supervisor
                                    2973     245.     *        PMOV  @IOSID,CITHIORB     I/O supervisor ID
                                    2974     246.     *        PMOV  @IOSPID,PZCURPID
                                    2975     247.     *        PMOV  @IOSCP,(RY)
                                    2976     248.     *        SET   @IOSFSYNC           Wait for I/O to complete
                                    2977     249.     *
                                    2978     250.     *        LA    RX,16
                                    2979     251.     *        LA    RB,CITHCTL          Point to the control area
                                    2980     252.     *        WITH  (CITHCTL,RB)
                                    2981     253.     *        LOOP  BEGIN
                                    2982     254.     *        PMOV  @IOSCHID,CITHTOKN
                                    2983     255.     *        VCALL IOSDOIO
                                    2984     256.     *        LA    RB,CITHCTL+L'CITHCTL
                                    2985     257.     *        UNTIL (BCT,RX),END
                                    2986     258.     *        PEND  ,
1FILHCACH (FILH00) (09:40) (22MAR04) ORVYL'S Hiperspace Caching Routines                                                    Page   22
0Current Usings:  (PZERO,R0)
0Loc    Object Code    Addr1 Addr2  Stmt Lv Lineno    Source Statement           (Hibal 5, Asmedit 3.3)  HLASM R4.0  2004/03/22 09.40
+___    ______ ____    _____ _____  ____ __ ______    ______ _________
0                                   2988     260.     *
                                    2989     261.     *  CHREAD -- Routine to read a buffer from the cache if possible.
                                    2990     262.     *
                                    2991     263.     *    On entry:
                                    2992     264.     *      @CAIO - key and data/header ptrs
                                    2993     265.     *
                                    2994     266.     *    On exit, RVR:
                                    2995     267.     *      0 - OK (data moved)
                                    2996     268.     *      4 - not found
                                    2997     269.     *      8 - data block stolen from hiperspace cache
                                    2998     270.     *
 000298                             2999     271.     CHREAD   PROC  @CAIO,SCOPE=GLOBAL
 000298 C3C8D9C5C1C44040            3005             +
 0002A0 0020/0000                   3006             +
 0002A4 900F D004/18AF       00004  3008             +
 USING  CHREAD,R10
 0002AA 50D0 C000/18CD       00000  3023             +
 0002B0 9680 C000      00000        3025             +
 USING  @CAIO-72,R12
 0002B4 41D0 C068            00068  3039             +
 0002B8 5880 C048            00000  3040     272.              L     RM,@CAIOCIT
 USING  CITH,R8                     3041     273.              WITH  (CITH,RM)
 USING  CABH,R9                     3054     274.              WITH  (CABH,RN)
 0002BC                             3067     275.              IF    (CITHBID,NE,'CITH'),'ABORT CHREAD_BADCIT'
 0002BC D503 A588 8000 0082C 00000  3078             +
 0002C2 4780 A052            002F6  3079             +
 0002C6 AC04 021B      0021B        3088  1          +
 0002CA 9680 021A      0021A        3094  1          +
 0002CE 50F0 021C            0021C  3095  1          +
 0002D2 58F0 0210            00210  3096  1          +
 0002D6 89F0 0010            00010  3097  1          +
 0002DA 88F0 0010            00010  3098  1          +
 0002DE 41F0 F000            00000  3099  1          +
 0002E2 AEFF 0006            00006  3100  1          +
 0002E6 C3C8D9C5C1C46DC2            3101             +
                                    3106     276.     *
 0002F6 58E0 8020/18FE       00020  3107     277.              INCRS CITH#RD             Count no of read requests
 0002FC 5EF0 A5A0            00844  3118  1          +
 000300 BAEF 8020            00020  3119             +
 000304 4770 A056            002FA  3133             +
                                    3139     278.
 000308 9823 C060            00018  3140     279.              CHHASH @CAIOKEY           Calc hash and displacement
 00030C 8920 0010/1E32       00010  3142             +
 000312 5430 A5A4/1B22       00848  3144             +
 000318 4810 8010/1D21       00010  3149             +
 00031E 8920 0003            00003  3151             +
 000322 5830 C064            0001C  3152             +
 000326 5430 A5A8/1813       0084C  3153             +
 00032C 4C30 8010            00010  3155             +
 000330 8930 0003/1A32       00003  3156             +
 000336 4123 8340            00340  3158             +
 00033A 4C10 A5C2            00866  3159             +
 00033E 4131 8040            00040  3160             +
 USING  CITHCTL,R3
1FILHCACH (FILH00) (09:40) (22MAR04) ORVYL'S Hiperspace Caching Routines                                                    Page   23
0Current Usings:  (PZERO,R0) (CITHQUE,R2) (CITHCTL,R3) (CITH,R8) (CABH,R9) (CHREAD,R10) (@CAIO-72,R12)
0Loc    Object Code    Addr1 Addr2  Stmt Lv Lineno    Source Statement           (Hibal 5, Asmedit 3.3)  HLASM R4.0  2004/03/22 09.40
+___    ______ ____    _____ _____  ____ __ ______    ______ _________
0USING  CITHQUE,R2
 USING  @GRES-72,R13                3187     280.              GRGET RID=CITHGRES,EXCL=YES Get resource hold
 000342 D708 D048 D048 00000 00000  3205             +
 000348 D203 D04C 3004 00004 00044  3210             +
 00034E 9680 D050      00008        3216             +
 000352 9640 D050      00008        3222             +
 000356 58F0 A5AC/0DEF       00850  3225             +
                                    3227     281.
 00035C 5860 2000            00340  3228     282.              L     RX,CITHQFP          Get forward pointer
 000360 4170 2000            00340  3229     283.              LA    RY,CITHQUE          Point to list head
 000364 1967/4780 A0DE       00382  3230     284.              WHILE (RX,NE,RY),BEGIN
 00036A 1896                        3247  1  285.                LR    RN,RX               Point to item
 00036C 4B90 A5C4            00868  3248  1  286.                SH    RN,=Y(CABHQUE-CABH) Adjust to start of block
 000370                             3249  1  287.                IF    (CABHKEY,EQ,@CAIOKEY),EXIT Found!
 000370 D507 9018 C060 00018 00018  3260  1          +
 000376 4780 A0DE            00382  3263  1          +
 00037A 5860 9008            00008  3269  1  288.                L     RX,CABHQFP          Point to next in line
 00037E 47F0 A0C0            00364  3270     289.              END   ,
 000382 4100 0004            00004  3275     290.              LA    RVR,4               Init to not found
 000386 1967/4780 A2B2       00556  3276     291.              IF    (RX,EQ,RY),CHREADX  Not found
 00038C 58E0 9014            00014  3294     292.              LREM  CABHA               Remove from aging queue
 000390 58F0 9010            00010  3296             +
 000394 50EF 0004            00004  3297             +
 000398 50FE 0000            00000  3298             +
 00039C D707 9010 9010 00010 00010  3299             +
                                    3300     293.
 0003A2 5810 C054            0000C  3301     294.              L     RS,@CAIODP          Get data pointer
 0003A6 41F0 0FFF            00FFF  3302     295.              LA    R15,4095
 0003AA 14F1/4780 A13C       003E0  3303     296.              IF    ('NR R15,RS',NZ),BEGIN
 0003B0 AC04 021B      0021B        3316  1  297.                ABORT CHREA_NOT_PAGE_B
 0003B4 9680 021A      0021A        3325  1          +
 0003B8 50F0 021C            0021C  3326  1          +
 0003BC 58F0 0210            00210  3327  1          +
 0003C0 89F0 0010            00010  3328  1          +
 0003C4 88F0 0010            00010  3329  1          +
 0003C8 41F0 F000            00000  3330  1          +
 0003CC AEFF 0006            00006  3331  1          +
 0003D0 C3C8D9C5C16DD5D6            3332  1          +
 0003E0                             3333     298.              END
 0003E0 B110 1000            00000  3337     299.              LRA   RS,@RS              Guest real (MVS virtual)
 0003E4                             3338     300.              CLEAR CITHESO
 0003E4 D717 3018 3018 00058 00058  3344             +
 0003EA 4170 3018            00058  3345     301.              LA    RY,CITHESO          Point to parm area
 USING  #HSPDO,R7                   3346     302.              WITH  (#HSPDO,RY),BEGIN
 AUSING (#HSPL,#HSPEND)             3360  1  303.                WITH  (#HSPL,#HSPEND),BEGIN
 0003EE 5010 7010            00004  3370  2  304.                  ST    RS,#HSPLPGE         Set data pointer
 0003F2 9680 7010      00004        3371  2  305.                  OI    #HSPLPGE,X'80'      Indicate last page in list
 0003F6 41F0 000C            0000C  3372  2  306.                  LA    R15,#HSREAD         Set to read command
 0003FA 50F0 7000            00000  3373  2  307.                  ST    R15,#HSPDCMD
 0003FE 41F0 700C            00000  3374  2  308.                  LA    R15,#HSPL           Point to page list
 000402 B1F0 F000            00000  3375  2  309.                  LRA   R15,@R15            Guest real (MVS virtual)
 000406 50F0 7004            00004  3376  2  310.                  ST    R15,#HSPLIST        Set page list
 00040A D201 7008 A5C6 00008 0086A  3377  2  311.                  MVC   #HSPCNT,=H'1'       One page
 000410 D203 7014 9004 00008 00004  3378  2  312.                  MVC   #HSPLBLK,CABHBLKN   Hiperspace cache block number
1FILHCACH (FILH00) (09:40) (22MAR04) ORVYL'S Hiperspace Caching Routines                                                    Page   24
0Current Usings:  (PZERO,R0) (CITHQUE,R2) (CITHCTL,R3) (#HSPDO,R7) (CITH,R8) (CABH,R9) (CHREAD,R10) (@CAIO-72,R12) (@GRES-72,R13)
0Loc    Object Code    Addr1 Addr2  Stmt Lv Lineno    Source Statement           (Hibal 5, Asmedit 3.3)  HLASM R4.0  2004/03/22 09.40
+___    ______ ____    _____ _____  ____ __ ______    ______ _________
0                                   3379  2  313.
 DROP   @GRES-72,R13                3380  2  314.                  PSET  @IOSDOIO            Call IO Supervisor
 USING  @IOSDOIO-72,R13
 000416 D71D D048 D048 00000 00000  3400  2          +
 00041C                             3401  2  315.                  PMOV  @IOSCHID,CITHTOKN
 00041C D203 D048 3014 00000 00054  3405  2          +
 000422                             3406  2  316.                  PMOV  @IOSID,CITHIORB     I/O supervisor ID
 000422 D203 D04C 3008 00004 00048  3410  2          +
 000428                             3411  2  317.                  PMOV  @IOSPID,PZCURPID
 000428 D207 D050 0208 00008 00208  3415  2          +
 00042E 5070 D058            00010  3416  2  318.                  PMOV  @IOSCP,(RY)
 000432 9680 D065      0001D        3426  2  319.                  SET   @IOSFSYNC           Wait for I/O to complete
 000436 58F0 A598/0DEF       0083C  3432  2  320.                  VCALL IOSDOIO
 00043C 1B00                        3436  2  321.                  CLEAR RVR
 00043E 4300 7014            00008  3440  2  322.                  IC    RVR,#HSPLBLK        Get return code
                                    3441  1  323.                END   ,                   #HSPDO addressing
 DROP   #HSPDO,R7                   3444     324.              END   ,                   #HSPL addressing
                                    3452     325.
 000442 1200/4770 A260       00504  3453     326.              IF    (RVR,Z),BEGIN       Successfull
 000448 9180 8012      00012        3467  1  327.                IF    CITHFCHK,BEGIN      Checksum option
 00044C 47E0 A1F0            00494  3477  1          +
 000450 58E0 C054            0000C  3482  2  328.                  L     R14,@CAIODP         Get data pointer
 000454 58F0 A580            00824  3483  2  329.                  L     R15,=A(4096)        Length
 000458 B241 005E                   3484  2  330.                  CKSM  RK,R14              Calculate check sum
 00045C 5950 9044            00044  3485  2  331.                  IF    (RK,NE,CABHCHK),'ABORT CHREAD_CHECKSUM'
 000460 4780 A1F0            00494  3497  2          +
 000464 AC04 021B      0021B        3506  3          +
 000468 9680 021A      0021A        3512  3          +
 00046C 50F0 021C            0021C  3513  3          +
 000470 58F0 0210            00210  3514  3          +
 000474 89F0 0010            00010  3515  3          +
 000478 88F0 0010            00010  3516  3          +
 00047C 41F0 F000            00000  3517  3          +
 000480 AEFF 0006            00006  3518  3          +
 000484 C3C8D9C5C1C46DC3            3519  2          +
 000494                             3524  1  332.                END   ,                   Checksum option
 000494 58E0 C04C            00004  3528  1  333.                L     R14,@CAIOHP         Move header
 000498 58F0 C050            00008  3529  1  334.                L     R15,@CAIOHL
 00049C 06F0/44F0 A5CA       0086E  3530  1  335.                DEX   R15,'MVC @R14(1),CABHHDR'
 00086E D200 E000 9020 00000 00020  3541  1          +
 0004A2 58E0 3010            00050  3549  1  336.                LQUE  CITHA,CABHA         Put on end of aging queue
 0004A6 41F0 9010            00010  3551  1          +
 0004AA 50F0 3010            00050  3552  1          +
 0004AE 50E0 9014            00014  3553  1          +
 0004B2 50FE 0000            00000  3554  1          +
 0004B6 41E0 300C            0004C  3555  1          +
 0004BA 50E0 9010            00010  3556  1          +
 0004BE 58E0 8024/18FE       00024  3557  1  337.                INCRS CITH#RDF            Count no of successful reads
 0004C4 5EF0 A5A0            00844  3568  2          +
 0004C8 BAEF 8024            00024  3569  1          +
 0004CC 4770 A21E            004C2  3583  1          +
 DROP   @IOSDOIO-72,R13             3589  1  338.                PSET  @IOSTIME
 USING  @IOSTIME-72,R13
 0004D0 D70F D048 D048 00000 00000  3609  1          +
1FILHCACH (FILH00) (09:40) (22MAR04) ORVYL'S Hiperspace Caching Routines                                                    Page   25
0Current Usings:  (PZERO,R0) (CITHQUE,R2) (CITHCTL,R3) (CITH,R8) (CABH,R9) (CHREAD,R10) (@CAIO-72,R12) (@IOSTIME-72,R13)
0Loc    Object Code    Addr1 Addr2  Stmt Lv Lineno    Source Statement           (Hibal 5, Asmedit 3.3)  HLASM R4.0  2004/03/22 09.40
+___    ______ ____    _____ _____  ____ __ ______    ______ _________
00004D6                             3610  1  339.                PMOV  @IOSTID,CITHIORB
 0004D6 D203 D048 3008 00000 00048  3614  1          +
 0004DC 58F0 A5B0/0DEF       00854  3615  1  340.                VCALL IOSTIME
 0004E2 98EF 8030            00030  3619  1  341.                LM    R14,R15,CITH#RDT    Get total read IO time
 0004E6                             3620  1  342.                LOOP  BEGIN
 0004E6 180E                        3626  2  343.                  LR    R0,R14
 0004E8 181F                        3627  2  344.                  LR    R1,R15
 0004EA 5E10 D054            0000C  3628  2  345.                  ADL   R0,@IOSIOTIME       Calc new total
 0004EE 47C0 A252            004F6  3637  2          +
 0004F2 5E00 A5A0            00844  3643  2          +
 0004F6 5E00 D050            00008  3648  2          +
 0004FA BBE0 8030            00030  3649  2  346.                  CDS   R14,R0,CITH#RDT     Save
 0004FE 4770 A242            004E6  3650  1  347.                UNTIL Z,END
 000502 1B00                        3669  1  348.                CLEAR RVR                 Indicate found
 000504                             3673     349.              END   ,                   Successfull
 000504 A264           00504 00446  3677     350.              ELSE  BEGIN               Not successfull
 000504 47F0 A2B2            00556  3682             +
 000508 58E0 900C            0000C  3688  1  351.                LREM  CABHQ               Remove from hash queue
 00050C 58F0 9008            00008  3690  1          +
 000510 50EF 0004            00004  3691  1          +
 000514 50FE 0000            00000  3692  1          +
 000518 D707 9008 9008 00008 00008  3693  1          +
 00051E D737 9018 9018 00018 00018  3694  1  352.                XC    CABHCLR,CABHCLR     Clear record data
 000524 58E0 300C            0004C  3695  1  353.                LPUSH CITHA,CABHA         Put on begining of aging queue
 000528 41F0 9010            00010  3697  1          +
 00052C 50F0 300C            0004C  3698  1          +
 000530 50E0 9010            00010  3699  1          +
 000534 50FE 0004            00004  3700  1          +
 000538 41E0 300C            0004C  3701  1          +
 00053C 50E0 9014            00014  3702  1          +
 000540 58E0 8028/18FE       00028  3703  1  354.                INCRS CITH#RDS            Count no of reads stollen from ESO
 000546 5EF0 A5A0            00844  3714  2          +
 00054A BAEF 8028            00028  3715  1          +
 00054E 4770 A2A0            00544  3729  1          +
 000552 4100 0008            00008  3735  1  355.                LA    RVR,8               Indicate ESO cache block stollen
 000556                             3736     356.              END   ,
                                    3740     357.
 000556                             3741     358.     CHREADX  LABEL ,
 000556 1810                        3743     359.              LR    RS,RVR
 DROP   @IOSTIME-72,R13             3744     360.              GRREL RID=CITHGRES        Release resource
 USING  @GRES-72,R13
 000558 D708 D048 D048 00000 00000  3765             +
 00055E D203 D04C 3004 00004 00044  3770             +
 000564 58F0 A5B4/0DEF       00858  3773             +
 00056A 1801                        3775     361.              LR    RVR,RS
 00056C 981F C008            00008  3776     362.              PEND  ,
 DROP   CITHQUE,R2
 DROP   CITHCTL,R3
 DROP   CABH,R9
 DROP   CITH,R8
 DROP   @CAIO-72,R12
 DROP   CHREAD,R10
 000570 9680 C000/0B0E 00000        3811             +
 DROP   @GRES-72,R13
1FILHCACH (FILH00) (09:40) (22MAR04) Cache Write Routine                                                                    Page   26
0Current Usings:  (PZERO,R0)
0Loc    Object Code    Addr1 Addr2  Stmt Lv Lineno    Source Statement           (Hibal 5, Asmedit 3.3)  HLASM R4.0  2004/03/22 09.40
+___    ______ ____    _____ _____  ____ __ ______    ______ _________
0                                   3821     364.     *
                                    3822     365.     *  CHWRITE -- Routine to copy the buffer passed to us into the
                                    3823     366.     *    cache.
                                    3824     367.     *
                                    3825     368.     *    On entry:
                                    3826     369.     *      @CAIO - key and data/header ptrs
                                    3827     370.     *
                                    3828     371.     *    On exit, RVR:
                                    3829     372.     *      0 - OK
                                    3830     373.     *
 000576                             3831     374.     CHWRITE  PROC  @CAIO,SCOPE=GLOBAL
 000576 C3C8E6D9C9E3C540            3837             +
 00057E 0020/0000                   3838             +
 000582 900F D004/18AF       00004  3840             +
 USING  CHWRITE,R10
 000588 50D0 C000/18CD       00000  3855             +
 00058E 9680 C000      00000        3857             +
 USING  @CAIO-72,R12
 000592 41D0 C068            00068  3871             +
 000596 5880 C048            00000  3872     375.              L     RM,@CAIOCIT
 USING  CITH,R8                     3873     376.              WITH  (CITH,RM)
 USING  CABH,R9                     3886     377.              WITH  (CABH,RN)
 00059A                             3899     378.              IF    (CITHBID,NE,'CITH'),'ABORT CHWRITE_BADCIT'
 00059A D503 A2AA 8000 0082C 00000  3910             +
 0005A0 4780 A052            005D4  3911             +
 0005A4 AC04 021B      0021B        3920  1          +
 0005A8 9680 021A      0021A        3926  1          +
 0005AC 50F0 021C            0021C  3927  1          +
 0005B0 58F0 0210            00210  3928  1          +
 0005B4 89F0 0010            00010  3929  1          +
 0005B8 88F0 0010            00010  3930  1          +
 0005BC 41F0 F000            00000  3931  1          +
 0005C0 AEFF 0006            00006  3932  1          +
 0005C4 C3C8E6D9C9E3C56D            3933             +
                                    3938     379.     *
 0005D4 58E0 802C/18FE       0002C  3939     380.              INCRS CITH#WR             Count no of write requests
 0005DA 5EF0 A2C2            00844  3950  1          +
 0005DE BAEF 802C            0002C  3951             +
 0005E2 4770 A056            005D8  3965             +
                                    3971     381.
 0005E6 9823 C060            00018  3972     382.              CHHASH @CAIOKEY           Calc hash and displacement
 0005EA 8920 0010/1E32       00010  3974             +
 0005F0 5430 A2C6/1B22       00848  3976             +
 0005F6 4810 8010/1D21       00010  3981             +
 0005FC 8920 0003            00003  3983             +
 000600 5830 C064            0001C  3984             +
 000604 5430 A2CA/1813       0084C  3985             +
 00060A 4C30 8010            00010  3987             +
 00060E 8930 0003/1A32       00003  3988             +
 000614 4123 8340            00340  3990             +
 000618 4C10 A2E4            00866  3991             +
 00061C 4131 8040            00040  3992             +
 USING  CITHCTL,R3
 USING  CITHQUE,R2
1FILHCACH (FILH00) (09:40) (22MAR04) Cache Write Routine                                                                    Page   27
0Current Usings:  (PZERO,R0) (CITHQUE,R2) (CITHCTL,R3) (CITH,R8) (CABH,R9) (CHWRITE,R10) (@CAIO-72,R12) (@GRES-72,R13)
0Loc    Object Code    Addr1 Addr2  Stmt Lv Lineno    Source Statement           (Hibal 5, Asmedit 3.3)  HLASM R4.0  2004/03/22 09.40
+___    ______ ____    _____ _____  ____ __ ______    ______ _________
0USING  @GRES-72,R13                4019     383.              GRGET RID=CITHGRES,EXCL=YES Get resource hold
 000620 D708 D048 D048 00000 00000  4037             +
 000626 D203 D04C 3004 00004 00044  4042             +
 00062C 9680 D050      00008        4048             +
 000630 9640 D050      00008        4054             +
 000634 58F0 A2CE/0DEF       00850  4057             +
                                    4059     384.
 00063A 5860 2000            00340  4060     385.              L     RX,CITHQFP          Get forward pointer
 00063E 4170 2000            00340  4061     386.              LA    RY,CITHQUE          Point to list head
 000642 1967/4780 A0DE       00660  4062     387.              WHILE (RX,NE,RY),BEGIN
 000648 1896                        4079  1  388.                LR    RN,RX               Point to item
 00064A 4B90 A2E6            00868  4080  1  389.                SH    RN,=Y(CABHQUE-CABH) Adjust to start of block
 00064E                             4081  1  390.                IF    (CABHKEY,EQ,@CAIOKEY),EXIT Found!
 00064E D507 9018 C060 00018 00018  4092  1          +
 000654 4780 A0DE            00660  4095  1          +
 000658 5860 9008            00008  4101  1  391.                L     RX,CABHQFP          Point to next in line
 00065C 47F0 A0C0            00642  4102     392.              END   ,
 000660 1967/4770 A13E       006C0  4107     393.              IF    (RX,EQ,RY),BEGIN    Not found
 000666 5890 300C            0004C  4122  1  394.                L     RN,CITHAFP          Get first on aging queue
 00066A 4B90 A2EA            0086C  4123  1  395.                SH    RN,=Y(CABHAGE-CABH) Adjust to start of block
 00066E                             4124  1  396.                IF    (CABHQUE,NZ),BEGIN  It is on another queue
 00066E D607 9008 9008 00008 00008  4134  1          +
 000674 4780 A10C            0068E  4135  1          +
 000678 58E0 900C            0000C  4140  2  397.                  LREM  CABHQ               Remove from other hash queue
 00067C 58F0 9008            00008  4142  2          +
 000680 50EF 0004            00004  4143  2          +
 000684 50FE 0000            00000  4144  2          +
 000688 D707 9008 9008 00008 00008  4145  2          +
 00068E                             4146  1  398.                END   ,
 00068E 58E0 2000            00340  4150  1  399.                LPUSH CITHQ,CABHQ         First on this hash queue
 000692 41F0 9008            00008  4152  1          +
 000696 50F0 2000            00340  4153  1          +
 00069A 50E0 9008            00008  4154  1          +
 00069E 50FE 0004            00004  4155  1          +
 0006A2 41E0 2000            00340  4156  1          +
 0006A6 50E0 900C            0000C  4157  1          +
 0006AA D737 9018 9018 00018 00018  4158  1  400.                XC    CABHCLR,CABHCLR     Clear record data
 0006B0 B205 9018      00018        4159  1  401.                STCK  CABHKEY             Get TOD
 0006B4 D203 9040 9018 00040 00018  4160  1  402.                MVC   CABHTOD,CABHKEY     Move to TOD
 0006BA D207 9018 C060 00018 00018  4161  1  403.                MVC   CABHKEY,@CAIOKEY    Set the key
 0006C0                             4162     404.              END   ,                   Not found
                                    4166     405.
 0006C0 58E0 9014            00014  4167     406.              LREM  CABHA               Remove from aging queue
 0006C4 58F0 9010            00010  4169             +
 0006C8 50EF 0004            00004  4170             +
 0006CC 50FE 0000            00000  4171             +
 0006D0 D707 9010 9010 00010 00010  4172             +
 0006D6 58E0 3010            00050  4173     407.              LQUE  CITHA,CABHA         Put on end of aging queue
 0006DA 41F0 9010            00010  4175             +
 0006DE 50F0 3010            00050  4176             +
 0006E2 50E0 9014            00014  4177             +
 0006E6 50FE 0000            00000  4178             +
 0006EA 41E0 300C            0004C  4179             +
 0006EE 50E0 9010            00010  4180             +
1FILHCACH (FILH00) (09:40) (22MAR04) Cache Write Routine                                                                    Page   28
0Current Usings:  (PZERO,R0) (CITHQUE,R2) (CITHCTL,R3) (CITH,R8) (CABH,R9) (CHWRITE,R10) (@CAIO-72,R12) (@GRES-72,R13)
0Loc    Object Code    Addr1 Addr2  Stmt Lv Lineno    Source Statement           (Hibal 5, Asmedit 3.3)  HLASM R4.0  2004/03/22 09.40
+___    ______ ____    _____ _____  ____ __ ______    ______ _________
00006F2 41F0 0001            00001  4181     408.              INCR  R15,CABHNWRS        Number of writes
 0006F6 5EF0 904C            0004C  4185             +
 0006FA 50F0 904C            0004C  4186             +
                                    4187     409.
 0006FE 9180 8012      00012        4188     410.              IF    CITHFCHK,BEGIN      Checksum option
 000702 47E0 A194            00716  4198             +
 000706 58E0 C054            0000C  4203  1  411.                L     R14,@CAIODP         Get data pointer
 00070A 58F0 A2A2            00824  4204  1  412.                L     R15,=A(4096)        Length
 00070E B241 005E                   4205  1  413.                CKSM  RK,R14              Calculate check sum
 000712 5050 9044            00044  4206  1  414.                ST    RK,CABHCHK          Save
 000716                             4207     415.              END   ,
 000716 58E0 C04C            00004  4211     416.              L     R14,@CAIOHP         Move header
 00071A 58F0 C050            00008  4212     417.              L     R15,@CAIOHL
 00071E 06F0/44F0 A2F2       00874  4213     418.              DEX   R15,'MVC CABHHDR(1),@R14'
 000874 D200 9020 E000 00020 00000  4224             +
 000724 5810 C054            0000C  4232     419.              L     RS,@CAIODP          Get data pointer
 000728 41F0 0FFF            00FFF  4233     420.              LA    R15,4095
 00072C 14F1/4780 A1E0       00762  4234     421.              IF    ('NR R15,RS',NZ),BEGIN
 000732 AC04 021B      0021B        4247  1  422.                ABORT CHWRI_NOT_PAGE_B
 000736 9680 021A      0021A        4256  1          +
 00073A 50F0 021C            0021C  4257  1          +
 00073E 58F0 0210            00210  4258  1          +
 000742 89F0 0010            00010  4259  1          +
 000746 88F0 0010            00010  4260  1          +
 00074A 41F0 F000            00000  4261  1          +
 00074E AEFF 0006            00006  4262  1          +
 000752 C3C8E6D9C96DD5D6            4263  1          +
 000762                             4264     423.              END
 000762 B110 1000            00000  4268     424.              LRA   RS,@RS              Guest real (MVS virtual)
 000766                             4269     425.              CLEAR CITHESO
 000766 D717 3018 3018 00058 00058  4275             +
 00076C 4170 3018            00058  4276     426.              LA    RY,CITHESO          Point to parm area
 USING  #HSPDO,R7                   4277     427.              WITH  (#HSPDO,RY),BEGIN
 AUSING (#HSPL,#HSPEND)             4291  1  428.                WITH  (#HSPL,#HSPEND),BEGIN
 000770 5010 7010            00004  4301  2  429.                  ST    RS,#HSPLPGE         Set data pointer
 000774 9680 7010      00004        4302  2  430.                  OI    #HSPLPGE,X'80'      Indicate last page in list
 000778 41F0 0010            00010  4303  2  431.                  LA    R15,#HSWRIT         Set to write command
 00077C 50F0 7000            00000  4304  2  432.                  ST    R15,#HSPDCMD
 000780 41F0 700C            00000  4305  2  433.                  LA    R15,#HSPL           Point to page list
 000784 B1F0 F000            00000  4306  2  434.                  LRA   R15,@R15            Guest real (MVS virtual)
 000788 50F0 7004            00004  4307  2  435.                  ST    R15,#HSPLIST        Set page list
 00078C D201 7008 A2E8 00008 0086A  4308  2  436.                  MVC   #HSPCNT,=H'1'       One page
 000792 D203 7014 9004 00008 00004  4309  2  437.                  MVC   #HSPLBLK,CABHBLKN   Hiperspace cache block number
                                    4310  1  438.                END   ,                   #HSPDO addressing
 DROP   #HSPDO,R7                   4313     439.              END   ,                   #HSPL addressing
                                    4321     440.
 DROP   @GRES-72,R13                4322     441.              PSET  @IOSDOIO            Call IO Supervisor
 USING  @IOSDOIO-72,R13
 000798 D71D D048 D048 00000 00000  4342             +
 00079E                             4343     442.              PMOV  @IOSCHID,CITHTOKN
 00079E D203 D048 3014 00000 00054  4347             +
 0007A4                             4348     443.              PMOV  @IOSID,CITHIORB     I/O supervisor ID
 0007A4 D203 D04C 3008 00004 00048  4352             +
 0007AA                             4353     444.              PMOV  @IOSPID,PZCURPID
1FILHCACH (FILH00) (09:40) (22MAR04) Cache Write Routine                                                                    Page   29
0Current Usings:  (PZERO,R0) (CITHQUE,R2) (CITHCTL,R3) (CITH,R8) (CABH,R9) (CHWRITE,R10) (@CAIO-72,R12) (@IOSDOIO-72,R13)
0Loc    Object Code    Addr1 Addr2  Stmt Lv Lineno    Source Statement           (Hibal 5, Asmedit 3.3)  HLASM R4.0  2004/03/22 09.40
+___    ______ ____    _____ _____  ____ __ ______    ______ _________
00007AA D207 D050 0208 00008 00208  4357             +
 0007B0 5070 D058            00010  4358     445.              PMOV  @IOSCP,(RY)
 0007B4 9680 D065      0001D        4368     446.              SET   @IOSFSYNC           Wait for I/O to complete
 0007B8 58F0 A2BA/0DEF       0083C  4374     447.              VCALL IOSDOIO
 DROP   @IOSDOIO-72,R13             4378     448.              PSET  @IOSTIME
 USING  @IOSTIME-72,R13
 0007BE D70F D048 D048 00000 00000  4398             +
 0007C4                             4399     449.              PMOV  @IOSTID,CITHIORB
 0007C4 D203 D048 3008 00000 00048  4403             +
 0007CA 58F0 A2D2/0DEF       00854  4404     450.              VCALL IOSTIME
 0007D0 98EF 8038            00038  4408     451.              LM    R14,R15,CITH#WRT    Get total write IO time
 0007D4                             4409     452.              LOOP  BEGIN
 0007D4 180E                        4415  1  453.                LR    R0,R14
 0007D6 181F                        4416  1  454.                LR    R1,R15
 0007D8 5E10 D054            0000C  4417  1  455.                ADL   R0,@IOSIOTIME       Calc new total
 0007DC 47C0 A262            007E4  4426  1          +
 0007E0 5E00 A2C2            00844  4432  1          +
 0007E4 5E00 D050            00008  4437  1          +
 0007E8 BBE0 8038            00038  4438  1  456.                CDS   R14,R0,CITH#WRT     Save
 0007EC 4770 A252            007D4  4439     457.              UNTIL Z,END
                                    4458     458.
 DROP   @IOSTIME-72,R13             4459     459.              GRREL RID=CITHGRES        Release resource
 USING  @GRES-72,R13
 0007F0 D708 D048 D048 00000 00000  4480             +
 0007F6 D203 D04C 3004 00004 00044  4485             +
 0007FC 58F0 A2D6/0DEF       00858  4488             +
 000802 1B00                        4490     460.              CLEAR RVR
 000804 981F C008            00008  4494     461.              PEND  ,
 DROP   CITHQUE,R2
 DROP   CITHCTL,R3
 DROP   CABH,R9
 DROP   CITH,R8
 DROP   @CAIO-72,R12
 DROP   CHWRITE,R10
 000808 9680 C000/0B0E 00000        4529             +
 DROP   @GRES-72,R13
1FILHCACH (FILH00) (09:40) (22MAR04) Cache Write Routine                                                                    Page   30
0Current Usings:  (PZERO,R0)
0Loc    Object Code    Addr1 Addr2  Stmt Lv Lineno    Source Statement           (Hibal 5, Asmedit 3.3)  HLASM R4.0  2004/03/22 09.40
+___    ______ ____    _____ _____  ____ __ ______    ______ _________
0000810                             4539     463.              LTORG ,
 000810 F0F1F2F3F4F5F6F7            4541                             =C'0123456789ABCDEF'
 000820 FFFFFFF0                    4542                             =X'FFFFFFF0'
 000824 00001000                    4543                             =A(4096)
 000828 00000000                    4544                             =V(VMGET)
 00082C C3C9E3C8                    4545                             =C'CITH'
 000830 C3C9E3F0                    4546                             =C'CIT0'
 000834 00000000                    4547                             =V(GRCRE)
 000838 00000000                    4548                             =V(IOSIDGET)
 00083C 00000000                    4549                             =V(IOSDOIO)
 000840 C3C1C2C8                    4550                             =C'CABH'
 000844 00000001                    4551                             =A(1)
 000848 7FFFFFFF                    4552                             =A(X'7FFFFFFF')
 00084C 0000000F                    4553                             =A(15)
 000850 00000000                    4554                             =V(GRGET)
 000854 00000000                    4555                             =V(IOSTIME)
 000858 00000000                    4556                             =V(GRREL)
 00085C 0050                        4557                             =Y(L'CABH)
 00085E 003C                        4558                             =Y(HASHTMAX)
 000860 0008                        4559                             =Y(L'CITHQUE)
 000862 0340                        4560                             =Y(L'CITH-L'CITHQUE)
 000864 3F00                        4561                             =Y(63*256+0)
 000866 0030                        4562                             =Y(L'CITHCTL)
 000868 0008                        4563                             =Y(CABHQUE-CABH)
 00086A 0001                        4564                             =H'1'
 00086C 0010           0087A 00880  4565                             =Y(CABHAGE-CABH)
 000880                00880 00880  4569     464.              END   .

1FILHCACH (FILH00) (09:40) (22MAR04) Ordinary Symbol and Literal Cross Reference                                            Page   31
-Symbol   Length   Value     Id    R Type   Defn References                                  HLASM R4.0  2004/03/22 09.40
0$$$@R0        1 00000000 FFFFFFFE     J     714 1010
 $$$@R1        1 00000000 FFFFFFFD     J     727 1022
 $$$@R10       1 00000000 FFFFFFF4     J     844 1142
 $$$@R11       1 00000000 FFFFFFF3     J     857 1154
 $$$@R12       1 00000000 FFFFFFF2     J     870 1166
 $$$@R13       1 00000000 FFFFFFF1     J     883 1178
 $$$@R14       1 00000000 FFFFFFF0     J     896 1190
 $$$@R15       1 00000000 FFFFFFEF     J     909 1202
 $$$@R2        1 00000000 FFFFFFFC     J     740 1034
 $$$@R3        1 00000000 FFFFFFFB     J     753 1046
 $$$@R4        1 00000000 FFFFFFFA     J     766 1058
 $$$@R5        1 00000000 FFFFFFF9     J     779 1070
 $$$@R6        1 00000000 FFFFFFF8     J     792 1082
 $$$@R7        1 00000000 FFFFFFF7     J     805 1094
 $$$@R8        1 00000000 FFFFFFF6     J     818 1106
 $$$@R9        1 00000000 FFFFFFF5     J     831 1118  1130
 $$$C1FILHCACH
               1 0000087A 00000001     J    4566 4568
 $$$C2FILHCACH
               1 00000880 00000001     J    4572 4574
 $$$D0FILHCACH
               1 0000086E 00000001     J    1221 3536  4219
 $$$R#HSPCCMD
               1 00000000 FFFFFFE2     J    1836 1858  1858
 $$$R#HSPCLOS
               1 00000000 FFFFFFE0     J    1891 1904  1904
 $$$R#HSPDO
               1 00000000 FFFFFFDF     J    1913 1933  1933
 $$$R#HSPL
               1 00000000 FFFFFFDE     J    1952 1978  1978
 $$$R#HSPOPEN
               1 00000000 FFFFFFE1     J    1867 1882  1882
 $$$R@CACLOSE
               1 00000000 FFFFFFD9     J    2083 2096  2096
 $$$R@CACTRL
               1 00000000 FFFFFFDC     J    2019 2034  2034
 $$$R@CAIO
               1 00000000 FFFFFFDB     J    2040 2058  2058
 $$$R@CAOPEN
               1 00000000 FFFFFFDD     J    1990 2013  2013
 $$$R@CAVERIFY
               1 00000000 FFFFFFDA     J    2064 2077  2077
 $$$R@GRES
               1 00000000 FFFFFFE3     J    1630 1666  1666
 $$$R@IORB
               1 00000000 FFFFFFE8     J    1480 1499  1499
 $$$R@IOSDOIO
               1 00000000 FFFFFFED     J    1343 1381  1381
 $$$R@IOSIDFRE
               1 00000000 FFFFFFE9     J    1454 1467  1467
 $$$R@IOSIDGET
               1 00000000 FFFFFFEA     J    1427 1448  1448
 $$$R@IOSTIME
               1 00000000 FFFFFFEB     J    1407 1421  1421
 $$$R@IOTERM
1FILHCACH (FILH00) (09:40) (22MAR04) Ordinary Symbol and Literal Cross Reference                                            Page   32
               1 00000000 FFFFFFEC     J    1387 1401  1401
 $$$R@IOUPARM
               1 00000000 FFFFFFE7     J    1511 1534  1534
 $$$R@VMFREE
               1 00000000 FFFFFFE5     J    1582 1597  1597
 $$$R@VMGET
               1 00000000 FFFFFFE6     J    1547 1576  1576
 $$$R@VMINFO
               1 00000000 FFFFFFE4     J    1603 1618  1618
 $$$RCABH      1 00000000 FFFFFFD8     J    2108 2138  2138
 $$$RCITH      1 00000000 FFFFFFD7     J    2152 2206  2206
 $$$RPZERO
               1 00000000 FFFFFFEE     J    1236 1327  1327
 $$$0F         2 00000250 00000001     H    2929 2446B
 $$$1F         2 00000062 00000001     H    2380 2370B
 $$$10S        2 00000208 00000001     H    2847 2891B
 $$$11S        2 00000212 00000001     H    2859 2880B
 $$$15F        2 000002F6 00000001     H    3105 3079B
 $$$16S        2 000002FA 00000001     H    3113 3133B
 $$$19F        2 00000382 00000001     H    3274 3242B 3263B
 $$$19S        2 00000364 00000001     H    3235 3273B
 $$$23F        2 000003E0 00000001     H    3336 3311B
 $$$24B        4 00000444 00000001     I    3462 3679
 $$$24F        2 00000504 00000001     H    3676 3462B 3678
 $$$25F        2 00000494 00000001     H    3527 3477B
 $$$26F        2 00000494 00000001     H    3523 3497B
 $$$27         6 0000086E 00000001     I    3542 3534X
 $$$28         6 0000086E 00000001     I    3541 3542  3542
 $$$29S        2 000004C2 00000001     H    3563 3583B
 $$$3F         2 000000C2 00000001     H    2485 2474B
 $$$32S        2 000004E6 00000001     H    3624 3663B
 $$$33F        2 000004F6 00000001     H    3647 3637B
 $$$36E        2 00000508 00000001     H    3686 3680
 $$$36F        2 00000556 00000001     H    3739 3682B
 $$$37S        2 00000544 00000001     H    3709 3729B
 $$$4S         2 000000D2 00000001     H    2518 2528B
 $$$41F        2 000005D4 00000001     H    3937 3911B
 $$$42S        2 000005D8 00000001     H    3945 3965B
 $$$45F        2 00000660 00000001     H    4106 4074B 4095B
 $$$45S        2 00000642 00000001     H    4067 4105B
 $$$48F        2 000006C0 00000001     H    4165 4117B
 $$$49F        2 0000068E 00000001     H    4149 4135B
 $$$50F        2 00000716 00000001     H    4210 4198B
 $$$51         6 00000874 00000001     I    4225 4217X
 $$$52         6 00000874 00000001     I    4224 4225  4225
 $$$53F        2 00000762 00000001     H    4267 4242B
 $$$54S        2 000007D4 00000001     H    4413 4452B
 $$$55F        2 000007E4 00000001     H    4436 4426B
 $$$6S         2 00000108 00000001     H    2598 2811B
 $$$7F         2 00000190 00000001     H    2711 2685B
 $$$8F         2 000001F0 00000001     H    2804 2778B
 #HSCMD        4 00000000 FFFFFFE2     A    1842 1843
 #HSOPEN       1 00000004 FFFFFFE2 A   U    1848 2564
 #HSPCCMD      4 00000000 FFFFFFE2     J    1858 1873  1897  1919
 #HSPCNT       2 00000008 FFFFFFDF     H    1921 3377M 4308M
 #HSPDCMD      4 00000000 FFFFFFDF     X    1919 1924  3373M 4304M
 #HSPDO       12 00000000 FFFFFFDF     J    1933 3355U 4286U
 #HSPEND       1 0000000C FFFFFFDF     U    1923 1926  3365U 4296U
 #HSPL        12 00000000 FFFFFFDE     J    1978 3365U 3374  4296U 4305
1FILHCACH (FILH00) (09:40) (22MAR04) Ordinary Symbol and Literal Cross Reference                                            Page   33
 #HSPLBLK      4 00000008 FFFFFFDE     F    1960 1962  3378M 3440  4309M
 #HSPLFLG      1 00000008 FFFFFFDE     R    1965 1969
 #HSPLIST      4 00000004 FFFFFFDF     A    1920 3376M 4307M
 #HSPLPGE      4 00000004 FFFFFFDE     F    1959 3370M 3371M 4301M 4302M
 #HSPOCMD      4 00000000 FFFFFFE1     X    1873 2565M
 #HSPOPEN     12 00000000 FFFFFFE1     J    1882 2559U
 #HSPSIZE      4 00000004 FFFFFFE1     A    1874 2568M
 #HSREAD       1 0000000C FFFFFFE2 A   U    1850 3372
 #HSWRIT       1 00000010 FFFFFFE2 A   U    1851 4303
 #IOUESO       1 0000001C FFFFFFE7 A   U    1527 2672
 @CAIO        32 00000000 FFFFFFDB     J    2058 3035U 3867U
 @CAIOCIT      4 00000000 FFFFFFDB     A    2046 3040  3872
 @CAIODP       4 0000000C FFFFFFDB     A    2049 3301  3482  4203  4232
 @CAIOHL       4 00000008 FFFFFFDB     F    2048 3529  4212
 @CAIOHP       4 00000004 FFFFFFDB     A    2047 3528  4211
 @CAIOKEY      8 00000018 FFFFFFDB     D    2051 3141  3152  3260  3973  3984  4092  4161
 @CAOFLAG      1 00000008 FFFFFFDD     R    2000 2004
 @CAOFNOT    128 00000008 FFFFFFDD         2004 2473
 @CAONBUF      4 00000004 FFFFFFDD     F    1997 2349
 @CAOPEN       9 00000000 FFFFFFDD     J    2013 2315U
 @GRCID        4 00000000 FFFFFFE3     A    1637 2631M
 @GRES         9 00000000 FFFFFFE3     J    1666 2618U 2626M 2626  3197U 3205M 3205  3757U 3765M 3765  4029U 4037M 4037
                                                 4472U 4480M 4480
 @GREXCL      64 00000008 FFFFFFE3         1651 3222M 4054M
 @GRFLAG       1 00000008 FFFFFFE3     R    1642 1646  1651  1656
 @GRID         4 00000004 FFFFFFE3     A    1638 3210M 3770M 4042M 4485M
 @GRWAIT     128 00000008 FFFFFFE3         1646 3216M 4048M
 @IOSCHID      4 00000000 FFFFFFED     A    1349 2738M 3405M 4347M
 @IOSCP        4 00000010 FFFFFFED     A    1352 2758M 3425M 4367M
 @IOSDOIO     30 00000000 FFFFFFED     J    1381 2725U 2733M 2733  3392U 3400M 3400  4334U 4342M 4342
 @IOSFSYNC
             128 0000001D FFFFFFED         1362 2764M 3431M 4373M
 @IOSFWAIT
             128 00000000 FFFFFFEA         1439 2663M
 @IOSF1        1 0000001D FFFFFFED     R    1358 1362  1367  1372
 @IOSID        4 00000004 FFFFFFED     A    1350 2743M 3410M 4352M
 @IOSIDF       1 00000000 FFFFFFEA     R    1435 1439
 @IOSIDGET
               1 00000000 FFFFFFEA     J    1448 2649U 2657M
 @IOSIOTIME
               8 00000008 FFFFFFEB     D    1414 3636  3648  4425  4437
 @IOSPID       8 00000008 FFFFFFED     D    1351 2748M 3415M 4357M
 @IOSTID       4 00000000 FFFFFFEB     A    1413 3614M 4403M
 @IOSTIME     16 00000000 FFFFFFEB     J    1421 3601U 3609M 3609  4390U 4398M 4398
 @RA           0 00000000 FFFFFFFC     @    1035 2351
 @RS           0 00000000 FFFFFFFD     @    1023 3337  4268
 @R0           0 00000000 FFFFFFFE     @     715  991U
 @R1           0 00000000 FFFFFFFD     @     728  987U
 @R10          0 00000000 FFFFFFF4     @     845  951U 2927U 3807U 4525U
 @R11          0 00000000 FFFFFFF3     @     858  947U
 @R12          0 00000000 FFFFFFF2     @     871  943U 2922U 3802U 4520U
 @R13          0 00000000 FFFFFFF1     @     884  939U 2615U 2646U 2722U 2938U 3389U 3598U 3754U 3818U 4331U 4387U 4469U
                                                 4536U
 @R14          0 00000000 FFFFFFF0     @     897  935U 3541M 4224
 @R15          0 00000000 FFFFFFEF     @     910  931U 2604  3375  4306
 @R2           0 00000000 FFFFFFFC     @     741  983U 3782U 4500U
 @R3           0 00000000 FFFFFFFB     @     754  979U 2539U 2822U 2902U 3787U 4505U
 @R4           0 00000000 FFFFFFFA     @     767  975U
 @R5           0 00000000 FFFFFFF9     @     780  971U
1FILHCACH (FILH00) (09:40) (22MAR04) Ordinary Symbol and Literal Cross Reference                                            Page   34
 @R6           0 00000000 FFFFFFF8     @     793  967U
 @R7           0 00000000 FFFFFFF7     @     806  963U 2575U 3450U 4319U
 @R8           0 00000000 FFFFFFF6     @     819  959U 2912U 3797U 4515U
 @R9           0 00000000 FFFFFFF5     @     832  955U 2917U 3792U 4510U
 @VMGET       11 00000000 FFFFFFE6     J    1576 2405U 2413M 2413
 @VMGFLG       1 0000000A FFFFFFE6     R    1558 1562  1567
 @VMGLEN       4 00000000 FFFFFFE6     A    1553 2423M
 @VMGPAGE    128 0000000A FFFFFFE6         1562 2430M
 @VMGPOOL      2 00000008 FFFFFFE6     H    1555 2424M
 BR           10 0000000A FFFFFFFF A   #    1136 2289M 2299U 3009M 3019U 3841M 3851U
 CABH         80 00000000 FFFFFFD8     J    2138 2332U 2874  2874  3063U 3895U 4557  4563  4565
 CABHABP       4 00000014 FFFFFFD8     A    2123 2870M 3295  3553M 3702M 4168  4177M
 CABHAFP       4 00000010 FFFFFFD8     A    2122 2868  2873M 3296  3299M 3299  3551  3556M 3697  3699M 4169  4172M 4172
                                                 4175  4180M
 CABHAGE       8 00000010 FFFFFFD8     D    2121 4565
 CABHBID       4 00000000 FFFFFFD8     C    2114 2861M
 CABHBLKN      4 00000004 FFFFFFD8     A    2115 2862M 3378  4309
 CABHCHK       4 00000044 FFFFFFD8     F    2128 3496  4206M
 CABHCLR      56 00000018 FFFFFFD8     U    2131 3694M 3694  4158M 4158
 CABHHDR      32 00000020 FFFFFFD8     X    2126 3541  4224M
 CABHKEY       8 00000018 FFFFFFD8     D    2125 2131  2131  3260  4092  4159M 4160  4161M
 CABHNWRS      4 0000004C FFFFFFD8     F    2130 4185  4186M
 CABHQBP       4 0000000C FFFFFFD8     A    2119 3689  4141  4157M
 CABHQFP       4 00000008 FFFFFFD8     A    2118 3269  3690  3693M 3693  4101  4142  4145M 4145  4152  4154M
 CABHQUE       8 00000008 FFFFFFD8     D    2117 4134M 4134  4563
 CABHTOD       4 00000040 FFFFFFD8     F    2127 4160M
 CHOPEN        4 00000022 00000001     I    2288 2283  2299U
 CHREAD        4 000002A4 00000001     I    3008 3003  3019U
 CHREADX       2 00000556 00000001     H    3742 3288B
 CHWRITE       4 00000582 00000001     I    3840 3835  3851U
 CITH        840 00000000 FFFFFFD7     J    2206 2345U 2842  2905  3050U 3882U 4560
 CITH#RD       4 00000020 FFFFFFD7     F    2180 3108  3119M
 CITH#RDF      4 00000024 FFFFFFD7     F    2181 3558  3569M
 CITH#RDS      4 00000028 FFFFFFD7     F    2182 3704  3715M
 CITH#RDT      8 00000030 FFFFFFD7     D    2184 3619  3649M
 CITH#WR       4 0000002C FFFFFFD7     F    2183 3940  3951M
 CITH#WRT      8 00000038 FFFFFFD7     D    2185 4408  4438M
 CITHABP       4 00000050 FFFFFFD7     A    2192 2671M 2867  2869M 3550  3552M 4174  4176M
 CITHAFP       4 0000004C FFFFFFD7     A    2191 2669  2670M 2872  3555  3696  3698M 3701  4122  4179
 CITHASH       2 00000010 FFFFFFD7     H    2163 2460M 2497  3149  3155  3981  3987
 CITHBID       4 00000000 FFFFFFD7     C    2159 2458M 3078  3910
 CITHCBID      4 00000040 FFFFFFD7     C    2188 2600M 2604M 2604M 2631
 CITHCTL      48 00000040 FFFFFFD7     X    2187 2195  2579  2589U 2805  2805  2826  2836U 2885  2885  3160  3170U 3992
                                                 4002U 4562
 CITHESO      24 00000058 FFFFFFD7     X    2194 2548M 2548  2549  3344M 3344  3345  4275M 4275  4276
 CITHFCHK    128 00000012 FFFFFFD7         2170 2495M 3476  4197
 CITHFLAG      1 00000012 FFFFFFD7     R    2166 2170
 CITHGRES      4 00000044 FFFFFFD7     A    2189 2636M 3210  3770  4042  4485
 CITHIORB      4 00000048 FFFFFFD7     A    2190 2668M 2743  3410  3614  4352  4403
 CITHNBUF      4 00000018 FFFFFFD7     F    2175 2459M 2566  2849
 CITHQBP       4 00000344 FFFFFFD7     A    2199 2521M
 CITHQFP       4 00000340 FFFFFFD7     A    2198 2520M 3228  4060  4151  4153M 4156
 CITHQUE       8 00000340 FFFFFFD7     D    2197 2499  2509U 2522  2522  3158  3183U 3229  3990  4015U 4061  4559  4560
 CITHSIZE      4 00000008 FFFFFFD7     A    2161 2461M 2841
 CITHTOKN      4 00000054 FFFFFFD7     F    2193 2712M 2738  3405  4347
 CITHTSIZ      4 0000000C FFFFFFD7     A    2162 2462M
 EPAR         15 0000000F FFFFFFFF A   #    1196 2289  2433M 2434B 2634M 2635B 2666M 2667B 2767M 2768B 3009  3225M 3226B
                                                 3434M 3435B 3617M 3618B 3773M 3774B 3841  4057M 4058B 4376M 4377B 4406M
                                                 4407B 4488M 4489B
1FILHCACH (FILH00) (09:40) (22MAR04) Ordinary Symbol and Literal Cross Reference                                            Page   35
 FILHCACH      1 00000000 00000001     J    1220 1217  1218  1222  1328  1382  1402  1422  1449  1468  1500  1535  1577
                                                 1598  1619  1667  1859  1883  1905  1934  1979  2014  2035  2059  2078
                                                 2097  2139  2207  3547  4230
 FILH00        1 00000000 00000001     R    1229 1227
 GRCRE         1 00000000 00000003     T    4547 4547
 GRGET         1 00000000 00000006     T    4554 4554
 GRREL         1 00000000 00000008     T    4556 4556
 HASHTAB       2 0000025A 00000001     Y    2949 2381  2952  2952
 HASHTMAX      1 0000003C 00000001 A   U    2952 4558
 HIBAL         1 00000000 FFFFFFFF     J     700  716   729   742   755   768   781   794   807   820   833   846   859
                                                  872   885   898   911  1012  1024  1036  1048  1060  1072  1084  1096
                                                 1108  1120  1132  1144  1156  1168  1180  1192  1204
 IOSDOIO       1 00000000 00000005     T    4549 4549
 IOSIDGET      1 00000000 00000004     T    4548 4548
 IOSTIME       1 00000000 00000007     T    4555 4555
 PZABORT     128 0000021A FFFFFFEE         1308 2700M 2793M 3094M 3325M 3512M 3926M 4256M
 PZABR15       4 0000021C FFFFFFEE     A    1317 2701M 2794M 3095M 3326M 3513M 3927M 4257M
 PZABSM        1 0000021B FFFFFFEE     X    1316 2694M 2787M 3088M 3319M 3506M 3920M 4250M
 PZCURPID      8 00000208 FFFFFFEE     D    1292 2748  3415  4357
 PZERO       640 00000000 FFFFFFEE     J    1327 1337U
 PZLCPUA       4 00000210 FFFFFFEE     A    1295 2702  2795  3096  3327  3514  3928  4258
 PZTERMFL      1 0000021A FFFFFFEE     R    1304 1308  1313
 RA            2 00000002 FFFFFFFF A   #    1028 2349M 2351M 2352M 2353  2354  2355M 2387  2388M 2462  2481  2497M 2498M
                                                 2578M 2602  2825M 3141M 3142M 3143  3148M 3148  3150M 3151M 3157  3158M
                                                 3183U 3973M 3974M 3975  3980M 3980  3982M 3983M 3989  3990M 4015U
 RAR          14 0000000E FFFFFFFF A   #    1184 2434M 2635M 2667M 2768M 2932B 3226M 3435M 3618M 3774M 3812B 4058M 4377M
                                                 4407M 4489M 4530B
 RB            3 00000003 FFFFFFFF A   #    1040 2386M 2461  2499M 2509U 2520  2521  2522M 2579M 2589U 2805M 2826M 2836U
                                                 2885M 3141M 3143M 3144M 3152M 3153M 3154  3155M 3156M 3157M 3158  3160M
                                                 3170U 3973M 3975M 3976M 3984M 3985M 3986  3987M 3988M 3989M 3990  3992M
                                                 4002U
 RK            5 00000005 FFFFFFFF A   #    1064 2354M 2356M 2357M 2358M 2369  2376M 2381M 2381  2382  2460  3484M 3496
                                                 4205M 4206
 RM            8 00000008 FFFFFFFF A   #    1100 2345U 2452M 2481  3040M 3050U 3872M 3882U
 RN            9 00000009 FFFFFFFF A   #    1112 2332U 2353M 2459  2841M 2842M 2842  2874M 3063U 3247M 3248M 3895U 4079M
                                                 4080M 4122M 4123M
 RS            1 00000001 FFFFFFFF A   #    1016 2382M 2383M 2384M 2385M 2386  2387M 2388  2669M 2670  2671  3149M 3150
                                                 3154M 3159M 3160  3301M 3310  3337M 3370  3743M 3775  3981M 3982  3986M
                                                 3991M 3992  4232M 4241  4268M 4301
 RVR           0 00000000 FFFFFFFF A   #    1004 2443M 2443  2452  2457M 2636  2668  2777M 2777  2905M 3275M 3439M 3439
                                                 3440M 3461M 3461  3672M 3672  3735M 3743  3775M 4493M 4493
 RX            6 00000006 FFFFFFFF A   #    1076 2566M 2567M 2568  2672M 2675  2684M 2684  2712  2849M 2850M 3228M 3241
                                                 3247  3269M 3285  4060M 4073  4079  4101M 4116
 RY            7 00000007 FFFFFFFF A   #    1088 2549M 2559U 2854M 2854  2862  2865M 3229M 3241  3285  3345M 3355U 4061M
                                                 4073  4116  4276M 4286U
 R0            0 00000000 FFFFFFFF A   #     708 1337U 2288  3008  3626M 3636M 3643M 3648M 3649  3840  4415M 4425M 4432M
                                                 4437M 4438
 R1            1 00000001 FFFFFFFF A   #     721 2930M 3627M 3810M 4416M 4528M
 R14          14 0000000E FFFFFFFF A   #     890 2457M 2867M 2870  2871  2872M 2873  3108M 3115  3119M 3295M 3297  3298
                                                 3482M 3484  3528M 3550M 3553  3554  3555M 3556  3558M 3565  3569M 3619M
                                                 3626  3649M 3689M 3691  3692  3696M 3699  3700  3701M 3702  3704M 3711
                                                 3715M 3940M 3947  3951M 4141M 4143  4144  4151M 4154  4155  4156M 4157
                                                 4168M 4170  4171  4174M 4177  4178  4179M 4180  4203M 4205  4211M 4408M
                                                 4415  4438M
 R15          15 0000000F FFFFFFFF A   #     903 2288  2456M 2456  2564M 2565  2601M 2602M 2603M 2603  2701  2702M 2703M
                                                 2704M 2705M 2706M 2706  2794  2795M 2796M 2797M 2798M 2799M 2799  2868M
                                                 2869  2871  2930M 3008  3095  3096M 3097M 3098M 3099M 3100M 3100  3115M
                                                 3118M 3119  3296M 3297  3298  3302M 3310M 3326  3327M 3328M 3329M 3330M
                                                 3331M 3331  3372M 3373  3374M 3375M 3376  3483M 3513  3514M 3515M 3516M
1FILHCACH (FILH00) (09:40) (22MAR04) Ordinary Symbol and Literal Cross Reference                                            Page   36
                                                 3517M 3518M 3518  3529M 3532M 3534  3551M 3552  3554  3565M 3568M 3569
                                                 3619M 3627  3690M 3691  3692  3697M 3698  3700  3711M 3714M 3715  3810M
                                                 3840  3927  3928M 3929M 3930M 3931M 3932M 3932  3947M 3950M 3951  4142M
                                                 4143  4144  4152M 4153  4155  4169M 4170  4171  4175M 4176  4178  4184M
                                                 4185M 4186  4204M 4212M 4215M 4217  4233M 4241M 4257  4258M 4259M 4260M
                                                 4261M 4262M 4262  4303M 4304  4305M 4306M 4307  4408M 4416  4528M
 SPR          13 0000000D FFFFFFFF A   #    1172 2288  2303  2304  2319M 2405U 2618U 2649U 2725U 3008  3023  3024  3039M
                                                 3197U 3392U 3601U 3757U 3840  3855  3856  3871M 4029U 4334U 4390U 4472U
 VMGET         1 00000000 00000002     T    4544 4544
 WAR          12 0000000C FFFFFFFF A   #    1160 2303  2304M 2305  2315U 2319  2930  2931  3023  3024M 3025  3035U 3039
                                                 3810  3811  3855  3856M 3857  3867U 3871  4528  4529
 =A(X'7FFFFFFF')
               4 00000848 00000001     A    4552 3144  3976
 =A(1)         4 00000844 00000001     A    4551 2865  3118  3568  3643  3714  3950  4432
 =A(15)        4 0000084C 00000001     A    4553 3153  3985
 =A(4096)      4 00000824 00000001     A    4543 2356  3483  4204
 =C'CABH'      4 00000840 00000001     C    4550 2861
 =C'CITH'      4 0000082C 00000001     C    4545 2458  3078  3910
 =C'CIT0'      4 00000830 00000001     C    4546 2600
 =C'0123456789ABCDEF'
              16 00000810 00000001     C    4541 2603
 =H'1'         2 0000086A 00000001     H    4564 3377  4308
 =V(GRCRE)
               4 00000834 00000001     V    4547 2634
 =V(GRGET)
               4 00000850 00000001     V    4554 3225  4057
 =V(GRREL)
               4 00000858 00000001     V    4556 3773  4488
 =V(IOSDOIO)
               4 0000083C 00000001     V    4549 2767  3434  4376
 =V(IOSIDGET)
               4 00000838 00000001     V    4548 2666
 =V(IOSTIME)
               4 00000854 00000001     V    4555 3617  4406
 =V(VMGET)
               4 00000828 00000001     V    4544 2433
 =X'FFFFFFF0'
               4 00000820 00000001     X    4542 2352
 =Y(CABHAGE-CABH)
               2 0000086C 00000001     Y    4565 4123
 =Y(CABHQUE-CABH)
               2 00000868 00000001     Y    4563 3248  4080
 =Y(HASHTMAX)
               2 0000085E 00000001     Y    4558 2369  2376
 =Y(L'CABH)
               2 0000085C 00000001     Y    4557 2355
 =Y(L'CITH-L'CITHQUE)
               2 00000862 00000001     Y    4560 2385
 =Y(L'CITHCTL)
               2 00000866 00000001     Y    4562 3159  3991
 =Y(L'CITHQUE)
               2 00000860 00000001     Y    4559 2384
 =Y(63*256+0)
               2 00000864 00000001     Y    4561 2424

1FILHCACH (FILH00) (09:40) (22MAR04) Macro and Copy Code Source Summary                                                     Page   37
- Con Source                                        Volume    Members                        HLASM R4.0  2004/03/22 09.40
0     PRIMARY INPUT                                           CHHASH   CSECT    DROP     END      EX       GRCAN
                                                              GRCRE    GRDEL    GRGET    GRREL    GRX2S    LPUSH    LQUE
                                                              LREM     LTORG    POP      PRINT    PUSH     START
                                                              USING
   L2 WYL.GG.ORV.MACLIB                             SYSB02    $LKPARM  ABORT    CACHCBH  CACHPARM GRPARM   HEADER
                                                              HSPCPARM INCRS    IORPARM  IOSPARM  MODULE   PEND     PMOV
                                                              PROC     PSET     PZERO    REG      SPLEVEL  SYSCTL
                                                              VCALL    VMGET    VMPARM
   L3 WYL.GG.SYS.MACLIB                             SYSB05    $BC      $BFLKUP  $BV      $CCLKUP  $CRS     $CSS
                                                              $LBLAD   $LEXP    $LOR     $REL     $RGLKUP  $USLKUP  ADL
                                                              AUSING   BEGIN    CLEAR    CSECT    DATA     DEFCC    DEX
                                                              DIAG     DROP     ELSE     END      EX       FLAG     GEN
                                                              HIBAL    IDENT    IF       INCR     LABEL    LOOP
                                                              LTORG    POP      PRINT    PUSH     RECORD   REGS     SET
                                                              START    STF      UNTIL    USING    WHILE    WITH

1         (FILH00) (09:40) (22MAR04) General Purpose Register Cross Reference                                               Page   38
- Register  References (M=modified, B=branch, U=USING, D=DROP, N=index)                      HLASM R4.0  2004/03/22 09.40
0    0(0)     991U  992D 1337U 2288  2443M 2443  2452  2457M 2636  2668  2777M 2777  2905M 3008  3275M 3439M 3439  3440M
             3461M 3461  3626M 3643M 3648M 3649  3672M 3672  3735M 3743  3775M 3840  4415M 4432M 4437M 4438  4493M 4493
     1(1)     987U 2288  2382M 2383M 2384M 2385M 2386  2387M 2388  2423  2457M 2669M 2670  2671  2930M 3008  3149M 3150
             3154M 3159M 3160N 3301M 3310  3337M 3370  3627M 3636M 3649  3743M 3775  3810M 3840  3981M 3982  3986M 3991M
             3992N 4232M 4241  4268M 4301  4416M 4425M 4438  4528M
     2(2)     983U 2288  2349M 2351M 2352M 2353  2354  2355M 2387  2388M 2462  2497M 2498M 2528M 2578M 2602  2811M 2825M
             2891M 2930M 3008  3141M 3142M 3143  3148M 3148  3150M 3151M 3157  3158M 3782U 3810M 3840  3973M 3974M 3975
             3980M 3980  3982M 3983M 3989  3990M 4500U 4528M
     3(3)     979U 2288  2386M 2461  2499M 2509U 2520  2521  2522M 2539U 2579M 2589U 2805M 2822U 2826M 2836U 2885M 2902U
             2930M 3008  3141M 3143M 3144M 3150M 3152M 3153M 3154  3155M 3156M 3157M 3158N 3160M 3170U 3787U 3810M 3840
             3973M 3975M 3976M 3982M 3984M 3985M 3986  3987M 3988M 3989M 3990N 3992M 4002U 4505U 4528M
     4(4)     975U 2288  2930M 3008  3810M 3840  4528M
     5(5)     971U 2288  2354M 2356M 2357M 2358M 2369  2376M 2381M 2381N 2382  2460  2930M 3008  3484M 3496  3810M 3840
             4205M 4206  4528M
     6(6)     967U 2288  2566M 2567M 2568  2672M 2684M 2684  2712  2849M 2850M 2880M 2930M 3008  3228M 3241  3247  3269M
             3285  3810M 3840  4060M 4073  4079  4101M 4116  4528M
     7(7)     963U 2288  2549M 2559U 2575U 2758  2854M 2854  2862  2865M 2930M 3008  3229M 3241  3285  3345M 3355U 3425
             3450U 3810M 3840  4061M 4073  4116  4276M 4286U 4319U 4367  4528M
     8(8)     959U 2288  2345U 2452M 2912U 2930M 3008  3040M 3050U 3797U 3810M 3840  3872M 3882U 4515U 4528M
     9(9)     955U 2288  2332U 2353M 2459  2841M 2842M 2842N 2874M 2917U 2930M 3008  3063U 3247M 3248M 3792U 3810M 3840
             3895U 4079M 4080M 4122M 4123M 4510U 4528M
    10(A)     951U 2288  2289M 2299U 2927U 2930M 3008  3009M 3019U 3807U 3810M 3840  3841M 3851U 4525U 4528M
    11(B)     947U 2288  2930M 3008  3810M 3840  4528M
    12(C)     943U 2288  2303  2304M 2305  2315U 2319  2922U 2930M 2930  2931  3008  3023  3024M 3025  3035U 3039  3802U
             3810M 3810  3811  3840  3855  3856M 3857  3867U 3871  4520U 4528M 4528  4529
    13(D)     939U 2288  2288  2303  2304  2319M 2405U 2615U 2618U 2646U 2649U 2722U 2725U 2930M 2938U 3008  3008  3023
             3024  3039M 3197U 3389U 3392U 3598U 3601U 3754U 3757U 3810M 3818U 3840  3840  3855  3856  3871M 4029U 4331U
             4334U 4387U 4390U 4469U 4472U 4528M 4536U
    14(E)     935U 2288  2434M 2457M 2635M 2667M 2768M 2867M 2870  2871N 2872M 2873  2930M 2932B 3008  3108M 3115  3119M
             3226M 3295M 3297  3298N 3435M 3482M 3484  3528M 3550M 3553  3554N 3555M 3556  3558M 3565  3569M 3618M 3619M
             3626  3649M 3689M 3691  3692N 3696M 3699  3700N 3701M 3702  3704M 3711  3715M 3774M 3810M 3812B 3840  3940M
             3947  3951M 4058M 4141M 4143  4144N 4151M 4154  4155N 4156M 4157  4168M 4170  4171N 4174M 4177  4178N 4179M
             4180  4203M 4205  4211M 4377M 4407M 4408M 4415  4438M 4489M 4528M 4530B
    15(F)     931U 2288  2289  2433M 2434B 2456M 2456  2457M 2564M 2565  2601M 2602M 2603M 2603N 2634M 2635B 2666M 2667B
             2701  2702M 2703M 2704M 2705M 2705  2706M 2706  2767M 2768B 2794  2795M 2796M 2797M 2798M 2798  2799M 2799
             2868M 2869  2871  2930M 3008  3009  3095  3096M 3097M 3098M 3099M 3099  3100M 3100  3115M 3118M 3119  3225M
             3226B 3296M 3297N 3298  3302M 3310M 3326  3327M 3328M 3329M 3330M 3330  3331M 3331  3372M 3373  3374M 3375M
             3376  3434M 3435B 3483M 3484  3513  3514M 3515M 3516M 3517M 3517  3518M 3518  3529M 3532M 3534  3551M 3552
             3554  3565M 3568M 3569  3617M 3618B 3619M 3627  3649M 3690M 3691N 3692  3697M 3698  3700  3711M 3714M 3715
             3773M 3774B 3810M 3840  3841  3927  3928M 3929M 3930M 3931M 3931  3932M 3932  3947M 3950M 3951  4057M 4058B
             4142M 4143N 4144  4152M 4153  4155  4169M 4170N 4171  4175M 4176  4178  4184M 4185M 4186  4204M 4205  4212M
             4215M 4217  4233M 4241M 4257  4258M 4259M 4260M 4261M 4261  4262M 4262  4303M 4304  4305M 4306M 4307  4376M
             4377B 4406M 4407B 4408M 4416  4438M 4488M 4489B 4528M

1FILHCACH (FILH00) (09:40) (22MAR04) Diagnostic Cross Reference and Assembler Summary                                       Page   39
-                                                                                            HLASM R4.0  2004/03/22 09.40
0     No Statements Flagged in this Assembly
 HIGH LEVEL ASSEMBLER, 5696-234, RELEASE 4.0, PTF UQ57391
0SYSTEM: OS/390 02.10.00            JOBNAME: PJG#FHCA    STEPNAME: ASM        PROCSTEP: (NOPROC)
0Datasets Allocated for this Assembly
  Con DDname   Dataset Name                                 Volume  Member
   P1 SYSIN    SYS04082.T094000.RA000.PJG#FHCA.INPUT.H01    SCR101
   L1 SYSLIB   SYS3.DUMMYMAC                                SYSB02
   L2          WYL.GG.ORV.MACLIB                            SYSB02
   L3          WYL.GG.SYS.MACLIB                            SYSB05
      SYSLIN   WYL.GG.PJG.OBJ                               SYSB05  FILHCACH
      SYSPRINT SYS04082.T094000.RA000.PJG#FHCA.PRINT.H01    SCR100
      SYSTERM  GG$PJG.PJG#FHCA.JOB05937.D0000103.?

    7812K allocated to Buffer Pool,          817K would be required for this to be an In-Storage Assembly
     464 Primary Input Records Read         4279 Library Records Read                  0 Work File Reads
       0 ASMAOPT Records Read               2739 Primary Print Records Written         0 Work File Writes
      50 Punch Records Written                 0 ADATA Records Written
0Assembly Start Time: 09.40.02 Stop Time: 09.40.04 Processor Time: 00.00.00.8945
 Return Code 000
