1                        J E S 2  J O B  L O G  --  S Y S T E M  S Y S B  --  N O D E  R L G
0
 09.50.06 JOB06011 ---- MONDAY,    22 MAR 2004 ----
 09.50.06 JOB06011  ICH70001I GG$PJG   LAST ACCESS AT 09:49:58 ON MONDAY, MARCH 22, 2004
 09.50.06 JOB06011  $HASP373 PJG#VSUB STARTED - INIT 2    - CLASS E - SYS SYSB
 09.50.06 JOB06011  ***  HCMD      STEP $$QUIET
 09.50.06 JOB06011  PURGE * Q=OUTPUT MULTIPLE
 09.50.06 JOB06011  JOB PJG#VSUB NOT IN OUTPUT QUEUE
 09.50.08 JOB06011  PJG#VSUB.$$QUIET .         RC=0008 TapeIO=0000 DiskIO=0000 CPU=  .01s Elapsed=06.98s
 09.50.08 JOB06011  PJG#VSUB.$CND    .         RC=Zero TapeIO=0000 DiskIO=0002 CPU=  .01s Elapsed=08.05s
 09.50.08 JOB06011  PJG#VSUB.$UNP    .         RC=Zero TapeIO=0000 DiskIO=0039 CPU=  .06s Elapsed=08.30s
 09.50.16 JOB06011  PJG#VSUB.ASM     .         RC=Zero TapeIO=0000 DiskIO=0488 CPU= 2.88s Elapsed=08.80s
 09.50.18 JOB06011  PJG#VSUB.$EDIT   .         RC=Zero TapeIO=0000 DiskIO=0184 CPU=  .70s Elapsed=16.72s
 09.50.18 JOB06011  PJG#VSUB Ended.  Name=Module: VSUB                   Total CPU= 3.66s Elapsed=06.98s
 09.50.18 JOB06011
 09.50.18 JOB06011  Execution charges   Priority=Standard   Block=Day
 09.50.18 JOB06011
 09.50.18 JOB06011  CPU Usage          67.31          $41.73   Standard Processing Unit Equivalent
 09.50.18 JOB06011                                   =======
 09.50.18 JOB06011                                    $41.73   Total Job execution charge
 09.50.18 JOB06011
 09.50.18 JOB06011  See back separator page for print charges
 09.50.18 JOB06011
 09.50.18 JOB06011  $HASP395 PJG#VSUB ENDED  ASM=0
1        1 //PJG#VSUB JOB PJG$GG,'Module: VSUB',TIME=1,MSGCLASS=C                  JOB06011
           /*JOBPARM HOLD=OUTPUT,LINES=50,CHARS=TN15,NOTIFY=YES
         2 //       EXEC PURGEOLD
         3 XXPURGEOLD PROC
           XX*
           XX* This proc is maintained by Jim Stosick
           XX*
         4 XX$$QUIET  EXEC PGM=HCMDX,PARM='PURGE * Q=OUTPUT MULTIPLE',
           XX         ACCT=(PURGEOLD,SYS3)
         5 //$CND   EXEC PGM=BILBO,REGION=512K,PARM='RECS=100'
         6 //STEPLIB  DD DSN=WYL.GG.ORV.LINKLIB,DISP=SHR
         7 //SYSPRINT DD SYSOUT=$
         8 //SYSUT1   DD DSN=WYL.GG.PJG.OBJ,DISP=OLD
         9 //SYSUT2   DD DSN=WYL.GG.PJG.OBJ,DISP=OLD
        10 //SYSIN    DD DUMMY
        11 //$UNP   EXEC PGM=WUNPRESS,PARM='NUM'
        12 //SYSPRINT DD SYSOUT=$
        13 //SYSUT1   DD DSN=WYL.GG.ORV.SOURCE(VSUB),DISP=SHR
        14 //SYSUT2   DD DSN=&&INPUT,DISP=(,PASS),UNIT=SYSDA,
           //            SPACE=(TRK,(25,25),RLSE),DCB=CARD
        15 //ASM    EXEC PGM=ASMA90,REGION=8M,COND=(0,NE,$UNP),
           //            PARM=('SYSPARM(VSUB),TERM,LANG(EN),OBJ',
           //          'LC(32500),XREF(SHORT),NODECK,NORLD,NODX,NOUS')
           //*STEPLIB  DD DSN=SYS1.SASMMOD1,DISP=SHR
        16 //SYSLIB   DD DSN=SYS3.DUMMYMAC,DISP=SHR,DCB=BLKSIZE=27920
        17 //         DD DSN=WYL.GG.SYS.MACLIB,DISP=SHR
        18 //         DD DSN=WYL.GG.ORV.BC.MACLIB,DISP=SHR
        19 //         DD DSN=WYL.GG.ORV.MACLIB,DISP=SHR
        20 //         DD DSN=SYS3.ORVYL.UMACLIB,DISP=SHR
        21 //         DD DSN=SYS3.IS.MACLIB,DISP=SHR
        22 //SYSUT1   DD DSN=&&SYSUT1,UNIT=VIO,DISP=(,DELETE),
           //            SPACE=(4088,(500,250),,CONTIG,ROUND)
        23 //SYSTERM  DD SYSOUT=$
        24 //SYSPRINT DD DSN=&&PRINT,UNIT=SYSDA,DISP=(,PASS),
           //            SPACE=(6650,(250,250),RLSE),
           //            DCB=(BLKSIZE=6650,LRECL=133,RECFM=FB)
        25 //SYSLIN   DD DSN=WYL.GG.PJG.OBJ(VSUB),DISP=OLD
        26 //SYSUDUMP DD SYSOUT=A
        27 //SYSIN    DD DSN=&&INPUT,DISP=(OLD,DELETE)
        28 //$EDIT  EXEC PGM=ASMEDIT,REGION=1M,
           //            COND=EVEN,PARM='STMT,DATA'
        29 //STEPLIB  DD DSN=WYL.GG.SYS.LINKLIB,DISP=SHR
        30 //ASMOUT   DD DSN=&&PRINT,DISP=(OLD,DELETE)
        31 //SYSPRINT DD SYSOUT=A
        32 //SYSUDUMP DD SYSOUT=A
1 STMT NO. MESSAGE
         2 IEFC001I PROCEDURE PURGEOLD WAS EXPANDED USING SYSTEM LIBRARY SYS3.BETAPROC
        14 IGD01010I STORCLAS= TEMP STORGROUP =
        14 IGD01010I STORGRP=VIO ASSIGNED.
        22 IGD01010I STORCLAS= TEMP STORGROUP =
        22 IGD01010I STORGRP=VIO ASSIGNED.
        24 IGD01010I STORCLAS= TEMP STORGROUP =
        24 IGD01010I STORGRP=VIO ASSIGNED.
 ICH70001I GG$PJG   LAST ACCESS AT 09:49:58 ON MONDAY, MARCH 22, 2004
 IEF142I PJG#VSUB $$QUIET - STEP WAS EXECUTED - COND CODE 0008
 *********************************************************************************
 *   PJG#VSUB/$$QUIET /                    Return Code      0008                 *
 *   Region used      260K (16K user + 244K system)                              *
 *   Extended region  9352K (4K user + 9348K system)                             *
 *                                                                               *
 *   Paging              In      Out                                             *
 *   Private <-> Aux      0        0       CPU time (TCB)   00:00:00.01          *
 *   Private <-> Exp      0        0       CPU time (SRB)   00:00:00.00          *
 *   VIO                  0        0       Elapsed time    920:37:45.98          *
 *   Common               0      ---                                             *
 *                                                                               *
 *                                                                               *
 *   CPU Usage          0.18         $0.11  Standard Processing Unit Equivalent  *
 *                                   $0.11  Total Step execution charge          *
 *                                                                               *
 *    I/O count  DDname   Type Addr           I/O count  DDname   Type Addr      *
 *                         *** No I/O for this step ***                          *
 *********************************************************************************
 IEF373I STEP/$$QUIET /START 2004082.0950
 IEF374I STEP/$$QUIET /STOP  2004082.0950 CPU    0MIN 00.01SEC SRB    0MIN 00.00SEC VIRT    16K SYS   244K EXT       4K SYS    9348K
 IEF236I ALLOC. FOR PJG#VSUB $CND
 IEF237I 0401 ALLOCATED TO STEPLIB
 IEF237I JES2 ALLOCATED TO SYSPRINT
 IEF237I 04DC ALLOCATED TO SYSUT1
 IEF237I 04DC ALLOCATED TO SYSUT2
 IEF237I DMY  ALLOCATED TO SYSIN
 IEF142I PJG#VSUB $CND - STEP WAS EXECUTED - COND CODE 0000
 IEF285I   WYL.GG.ORV.LINKLIB                           KEPT
 IEF285I   VOL SER NOS= SYSB01.
 IEF285I   GG$PJG.PJG#VSUB.JOB06011.D0000101.?          SYSOUT
 IEF285I   WYL.GG.PJG.OBJ                               KEPT
 IEF285I   VOL SER NOS= SYSB05.
 IEF285I   WYL.GG.PJG.OBJ                               KEPT
 IEF285I   VOL SER NOS= SYSB05.
 *********************************************************************************
 *   PJG#VSUB/$CND    /                    Return Code      Zero                 *
 *   Region used      280K (16K user + 264K system)                              *
 *   Extended region  9392K (4K user + 9388K system)                             *
 *                                                                               *
 *   Paging              In      Out                                             *
 *   Private <-> Aux      0        0       CPU time (TCB)   00:00:00.01          *
 *   Private <-> Exp      0        0       CPU time (SRB)   00:00:00.00          *
 *   VIO                  0        0       Elapsed time    920:37:44.91          *
 *   Common               0      ---                                             *
 *                                                                               *
 *                                                                               *
 *   CPU Usage          0.18         $0.11  Standard Processing Unit Equivalent  *
 *                                   $0.11  Total Step execution charge          *
 *                                                                               *
 *    I/O count  DDname   Type Addr           I/O count  DDname   Type Addr      *
 *            2  STEPLIB  Disk 0401                   0  SYSPRINT      ----      *
 *            0  SYSUT1   Disk 04DC                   0  SYSUT2   Disk 04DC      *
 *            0  SYSIN         ----                                              *
 *********************************************************************************
 IEF373I STEP/$CND    /START 2004082.0950
 IEF374I STEP/$CND    /STOP  2004082.0950 CPU    0MIN 00.01SEC SRB    0MIN 00.00SEC VIRT    16K SYS   264K EXT       4K SYS    9388K
 IEF236I ALLOC. FOR PJG#VSUB $UNP
 IEF237I JES2 ALLOCATED TO SYSPRINT
 IEF237I 0402 ALLOCATED TO SYSUT1
 IGD101I SMS ALLOCATED TO DDNAME (SYSUT2  )
         DSN (SYS04082.T095006.RA000.PJG#VSUB.INPUT.H01   )
         STORCLAS (TEMP) MGMTCLAS (        ) DATACLAS (        )
         VOL SER NOS= SCR100
 IEF142I PJG#VSUB $UNP - STEP WAS EXECUTED - COND CODE 0000
 IEF285I   GG$PJG.PJG#VSUB.JOB06011.D0000102.?          SYSOUT
 IEF285I   WYL.GG.ORV.SOURCE                            KEPT
 IEF285I   VOL SER NOS= SYSB02.
 IGD106I SYS04082.T095006.RA000.PJG#VSUB.INPUT.H01    PASSED,    DDNAME=SYSUT2
 *********************************************************************************
 *   PJG#VSUB/$UNP    /                    Return Code      Zero                 *
 *   Region used      388K (108K user + 280K system)                             *
 *   Extended region  9468K (4K user + 9464K system)                             *
 *                                                                               *
 *   Paging              In      Out                                             *
 *   Private <-> Aux      0        0       CPU time (TCB)   00:00:00.06          *
 *   Private <-> Exp      0        0       CPU time (SRB)   00:00:00.00          *
 *   VIO                  0        0       Elapsed time    920:37:44.66          *
 *   Common               0      ---                                             *
 *                                                                               *
 *                                                                               *
 *   CPU Usage          1.12         $0.69  Standard Processing Unit Equivalent  *
 *                                   $0.69  Total Step execution charge          *
 *                                                                               *
 *    I/O count  DDname   Type Addr           I/O count  DDname   Type Addr      *
 *            0  SYSPRINT      ----                   4  SYSUT1   Disk 0402      *
 *           35  SYSUT2   Disk 038B                                              *
 *********************************************************************************
 IEF373I STEP/$UNP    /START 2004082.0950
 IEF374I STEP/$UNP    /STOP  2004082.0950 CPU    0MIN 00.06SEC SRB    0MIN 00.00SEC VIRT   108K SYS   280K EXT       4K SYS    9464K
 IEF236I ALLOC. FOR PJG#VSUB ASM
 IEF237I 0402 ALLOCATED TO SYSLIB
 IEF237I 04DC ALLOCATED TO
 IEF237I 0402 ALLOCATED TO
 IEF237I 0402 ALLOCATED TO
 IEF237I 0402 ALLOCATED TO
 IEF237I 04DC ALLOCATED TO
 IGD101I SMS ALLOCATED TO DDNAME (SYSUT1  )
         DSN (SYS04082.T095006.RA000.PJG#VSUB.SYSUT1.H01  )
         STORCLAS (TEMP) MGMTCLAS (        ) DATACLAS (        )
         VOL SER NOS= VIO
 IEF237I JES2 ALLOCATED TO SYSTERM
 IGD101I SMS ALLOCATED TO DDNAME (SYSPRINT)
         DSN (SYS04082.T095006.RA000.PJG#VSUB.PRINT.H01   )
         STORCLAS (TEMP) MGMTCLAS (        ) DATACLAS (        )
         VOL SER NOS= SCR101
 IEF237I 04DC ALLOCATED TO SYSLIN
 IEF237I JES2 ALLOCATED TO SYSUDUMP
 IGD103I SMS ALLOCATED TO DDNAME SYSIN
 IEF142I PJG#VSUB ASM - STEP WAS EXECUTED - COND CODE 0000
 IEF285I   SYS3.DUMMYMAC                                KEPT
 IEF285I   VOL SER NOS= SYSB02.
 IEF285I   WYL.GG.SYS.MACLIB                            KEPT
 IEF285I   VOL SER NOS= SYSB05.
 IEF285I   WYL.GG.ORV.BC.MACLIB                         KEPT
 IEF285I   VOL SER NOS= SYSB02.
 IEF285I   WYL.GG.ORV.MACLIB                            KEPT
 IEF285I   VOL SER NOS= SYSB02.
 IEF285I   SYS3.ORVYL.UMACLIB                           KEPT
 IEF285I   VOL SER NOS= SYSB02.
 IEF285I   SYS3.IS.MACLIB                               KEPT
 IEF285I   VOL SER NOS= SYSB05.
 IGD105I SYS04082.T095006.RA000.PJG#VSUB.SYSUT1.H01   DELETED,   DDNAME=SYSUT1
 IEF285I   GG$PJG.PJG#VSUB.JOB06011.D0000103.?          SYSOUT
 IGD106I SYS04082.T095006.RA000.PJG#VSUB.PRINT.H01    PASSED,    DDNAME=SYSPRINT
 IEF285I   WYL.GG.PJG.OBJ                               KEPT
 IEF285I   VOL SER NOS= SYSB05.
 IEF285I   GG$PJG.PJG#VSUB.JOB06011.D0000104.?          SYSOUT
 IGD105I SYS04082.T095006.RA000.PJG#VSUB.INPUT.H01    DELETED,   DDNAME=SYSIN
 *********************************************************************************
 *   PJG#VSUB/ASM     /                    Return Code      Zero                 *
 *   Region used      8484K (8192K user + 292K system)                           *
 *   Extended region  9952K (412K user + 9540K system)                           *
 *                                                                               *
 *   Paging              In      Out                                             *
 *   Private <-> Aux      0        0       CPU time (TCB)   00:00:02.83          *
 *   Private <-> Exp      0        0       CPU time (SRB)   00:00:00.05          *
 *   VIO                  0        0       Elapsed time    920:37:44.16          *
 *   Common               0      ---                                             *
 *                                                                               *
 *                                                                               *
 *   CPU Usage         53.06        $32.89  Standard Processing Unit Equivalent  *
 *                                  $32.89  Total Step execution charge          *
 *                                                                               *
 *    I/O count  DDname   Type Addr           I/O count  DDname   Type Addr      *
 *          109  SYSLIB   Disk 0402                 155  SYSLIB   Disk 04DC      *
 *            0  SYSLIB   Disk 0402                   0  SYSLIB   Disk 0402      *
 *            0  SYSLIB   Disk 0402                   0  SYSLIB   Disk 04DC      *
 *            0  SYSUT1   VIO  ----                   0  SYSTERM       ----      *
 *          181  SYSPRINT Disk 04E3                   7  SYSLIN   Disk 04DC      *
 *            0  SYSUDUMP      ----                  36  SYSIN    Disk 038B      *
 *********************************************************************************
 IEF373I STEP/ASM     /START 2004082.0950
 IEF374I STEP/ASM     /STOP  2004082.0950 CPU    0MIN 02.83SEC SRB    0MIN 00.05SEC VIRT  8192K SYS   292K EXT     412K SYS    9540K
 IEF236I ALLOC. FOR PJG#VSUB $EDIT
 IEF237I 0402 ALLOCATED TO STEPLIB
 IGD103I SMS ALLOCATED TO DDNAME ASMOUT
 IEF237I JES2 ALLOCATED TO SYSPRINT
 IEF237I JES2 ALLOCATED TO SYSUDUMP
 IEF142I PJG#VSUB $EDIT - STEP WAS EXECUTED - COND CODE 0000
 IEF285I   WYL.GG.SYS.LINKLIB                           KEPT
 IEF285I   VOL SER NOS= SYSB02.
 IGD105I SYS04082.T095006.RA000.PJG#VSUB.PRINT.H01    DELETED,   DDNAME=ASMOUT
 IEF285I   GG$PJG.PJG#VSUB.JOB06011.D0000105.?          SYSOUT
 IEF285I   GG$PJG.PJG#VSUB.JOB06011.D0000106.?          SYSOUT
 *********************************************************************************
 *   PJG#VSUB/$EDIT   /                    Return Code      Zero                 *
 *   Region used      388K (116K user + 272K system)                             *
 *   Extended region  9480K (4K user + 9476K system)                             *
 *                                                                               *
 *   Paging              In      Out                                             *
 *   Private <-> Aux      0        0       CPU time (TCB)   00:00:00.68          *
 *   Private <-> Exp      0        0       CPU time (SRB)   00:00:00.02          *
 *   VIO                  0        0       Elapsed time    920:37:36.24          *
 *   Common               0      ---                                             *
 *                                                                               *
 *                                                                               *
 *   CPU Usage         12.75         $7.90  Standard Processing Unit Equivalent  *
 *                                   $7.90  Total Step execution charge          *
 *                                                                               *
 *    I/O count  DDname   Type Addr           I/O count  DDname   Type Addr      *
 *            2  STEPLIB  Disk 0402                 182  ASMOUT   Disk 04E3      *
 *            0  SYSPRINT      ----                   0  SYSUDUMP      ----      *
 *********************************************************************************
 IEF373I STEP/$EDIT   /START 2004082.0950
 IEF374I STEP/$EDIT   /STOP  2004082.0950 CPU    0MIN 00.68SEC SRB    0MIN 00.02SEC VIRT   116K SYS   272K EXT       4K SYS    9476K
 *********************************************************************************
 *                                                                               *
 *                      S t a n f o r d   U n i v e r s i t y                    *
 *                                                                               *
 *                              *** Job Summary ***                              *
 *                                                                               *
 *   System Id      SYSB                   Input time     09:38:44  Mar 22, 2004 *
 *                                                                               *
 *   System Release SP6.1.0                Start time     09:50:06  Mar 22, 2004 *
 *                                                                               *
 *   Job name       PJG#VSUB               Stop  time     00:00:00  Mar 22, 2004 *
 *                                                                               *
 *   Account        PJG$GG                 Elapsed time  920:37:45.98            *
 *                                                                               *
 *   User Name      Module: VSUB           CPU time       00:00:03.59            *
 *                                                                               *
 *   Job class      E                      SRB Time       00:00:00.07            *
 *                                                                               *
 *********************************************************************************
 IEF375I  JOB/PJG#VSUB/START 2004082.0950
 IEF376I  JOB/PJG#VSUB/STOP  2004082.0950 CPU    0MIN 03.59SEC SRB    0MIN 00.07SEC
1Data set successfully converted from EDIT to FB format
1Assembler Done VSUB No Statements Flagged
1         High Level Assembler Option Summary                   (PTF UQ57391)                                               Page    1
-                                                                                            HLASM R4.0  2004/03/22 09.50
0  No Overriding ASMAOPT Parameters
   Overriding Parameters-  SYSPARM(VSUB),TERM,LANG(EN),OBJ,LC(32500),XREF(SHORT),NODECK,NORLD,NODX,NOUS
   No Process Statements


   Options for this Assembly
0  NOADATA
     ALIGN
   NOASA
     BATCH
     CODEPAGE(047C)
   NOCOMPAT
   NODBCS
 3 NODECK
 3 NODXREF
     ESD
   NOEXIT
     FLAG(0,ALIGN,CONT,NOIMPLEN,NOPAGE0,PUSH,RECORD,NOSUBSTR,USING0)
   NOFOLD
   NOGOFF
   NOINFO
 3   LANGUAGE(EN)
   NOLIBMAC
 3   LINECOUNT(32500)
     LIST(121)
     MXREF(SOURCE)
 3   OBJECT
     OPTABLE(UNI,NOLIST)
   NOPCONTROL
   NOPESTOP
   NOPROFILE
   NORA2
   NORENT
 3 NORLD
     RXREF
     SIZE(MAX)
 3   SYSPARM(VSUB)
 3   TERM(WIDE)
   NOTEST
     THREAD
   NOTRANSLATE
 3 NOUSING
 3   XREF(SHORT)

   No Overriding DD Names

1VSUB     External Symbol Dictionary                                                                                        Page    2
-Symbol   Type   Id     Address  Length     LD ID  Flags Alias-of                            HLASM R4.0  2004/03/22 09.50
0VSUB      SD 00000001 00000000 00002D08             00
 VSUB00    LD          00000000           00000001
 FREECLW   ER 00000002
 GETCLW    ER 00000003
 SETFMT    ER 00000004
 SCAN      ER 00000005
 SCTELL    ER 00000006
 SCINIT    ER 00000007
 VWRITE    ER 00000008
 VREAD     ER 00000009
 BTX       ER 0000000A
 VSEG      ER 0000000B
 GOTNKWR   LD          00001E6A           00000001
 KWFNOPT   LD          00001DDA           00000001
 QUIET     LD          00001E64           00000001
 FORACT    LD          00001E88           00000001
 FORPUB    LD          00001EE2           00000001
 SETPUB    LD          00001F16           00000001
 GROUP     LD          00001F58           00000001
 USER      LD          00001FAA           00000001
 USR$GRP   LD          00001FFC           00000001
 OSOPTS    LD          00001E17           00000001
 OSCREATE  LD          00001E3C           00000001
 PRIVTNOM  ER 0000000C
 FSUB#COM  LD          000021B2           00000001
 FSUB#COM  ER 0000000D

1VSUB     ORVYL'S COMMAND PROCESSOR FILE SUBROUTINES                                                                        Page    3
0Loc    Object Code    Addr1 Addr2  Stmt Lv Lineno    Source Statement                    (Asmedit 3.3)  HLASM R4.0  2004/03/22 09.50
+___    ______ ____    _____ _____  ____ __ ______    ______ _________
0                                      2       2.     ********************************************************************
                                       3       3.     *                                                                  *
                                       4       4.     *       ORVYL/370  RELEASE III - CLASS I - STANFORD PROPRIETARY    *
                                       5       5.     *                                                                  *
                                       6       6.     ********************************************************************
-                                      8       8.              HIBAL
-                                    990      10.     * MODIFICATIONS
                                     991      11.     *
1VSUB     ORVYL'S COMMAND PROCESSOR FILE SUBROUTINES                                                                        Page    4
0D-Loc  Object Code    Addr1 Addr2  Stmt Lv Lineno    Source Statement           (Hibal 5, Asmedit 3.3)  HLASM R4.0  2004/03/22 09.50
+_____  ______ ____    _____ _____  ____ __ ______    ______ _________
0000000                00000 02D08   993      13.     VSUB     CSECT ,
                                     997      14.              IDENT 00                      MODULE ID
                                    1000             +
                                    1001    01-IDENT +         ENTRY VSUB00
                                    1002             +
 000000 14E5E2E4C2F0F06B            1003    01-IDENT +VSUB00   DC    AL1(20),C'VSUB00,22MAR04,09:50'
                                    1004             +*
-                                   1007      16.              GBLC  &SYSGRP,&SYSUSER
                                    1008      17.              COPY  ORVDEFN
                                    1009             =         SYSDEFN  ,
                                    1010             =         GBLB  &PROTECT
                                    1011             =         GBLC  &MODULE
0                                   1013      19.     &MODULE  SETC  'VSUB'
-
                                    1015      21.              REGS  ,,SR,TR,QR,(RR,FSUBR),BRR,BR,WAR,RAR,CLWR,,GPWR
                                    1164      22.
                                    1165      23.              MACRO
                                    1166      24.     &L       BTD   &LOC,&LEN,&WORD,&SW,&COMMAS=NO
                                    1167      25.              LCLC  &CM
                                    1168      26.              AIF   ('&COMMAS' NE 'YES').NOCM
                                    1169      27.     &CM      SETC  'C'
                                    1170      28.     .NOCM    ANOP
                                    1171      29.     &L       SYSLR 15,&WORD,OP=L
                                    1172      30.              SYSLR 0,&LEN,TYPE=&SW
                                    1173      31.              SYSLR 1,&LOC
                                    1174      32.              XCALL BTD&CM
                                    1175      33.              MEND
                                    1176      34.
                                    1177      35.              MACRO
                                    1178      36.     &L       BTX   &LOC,&LEN,&WORD
                                    1179      37.     &L       SYSLR 15,&WORD,OP=L
                                    1180      38.              SYSLR 0,&LEN
                                    1181      39.              SYSLR 1,&LOC
                                    1182      40.              XCALL BTX
                                    1183      41.              MEND
                                    1184      42.
                                    1185      43.              MACRO
                                    1186      44.     &L       CNTRLCOD &CODE
                                    1187      45.     &L       BAL   R1,DOCONTRL
                                    1188      46.              DC    AL2(&CODE)
                                    1189      47.              MEND
1VSUB     (VSUB00) (09:50) (22MAR04) ORVYL'S COMMAND PROCESSOR FILE SUBROUTINES                                             Page    5
0Loc    Object Code    Addr1 Addr2  Stmt Lv Lineno    Source Statement           (Hibal 5, Asmedit 3.3)  HLASM R4.0  2004/03/22 09.50
+___    ______ ____    _____ _____  ____ __ ______    ______ _________
0                                   1192      50.              COPY  SCP
                                    1193             =*******************************************************************
                                    1194             =*                                                                 *
                                    1195             =*    SCP  -  Mode 1 Session Control Page                          *
                                    1196             =*                                                                 *
                                    1197             =*******************************************************************
0000000                00000 00294  1199             =SCP      RECORD BEGIN
 000000                             1207  1          =SCPID      DS    CL4'SCP'
                                    1208  1          =
 000008                             1209  1          =SCPPSW     DS    D                       RESUME PSW
 000010                             1210  1          =SCPGPRS    DS    16F                     RESUME GPRS
 000050                             1211  1          =SCPFPRS    DS    4D                      RESUME FPRS
                                    1212  1          =
 000070                             1213  1          =SCPXPSW    DS    D                       EXIT PSW
 000078                             1214  1          =SCPXGPRS   DS    16F                     EXIT GPRS
                                    1215  1          =
 0000B8                             1216  1          =SCPSBPSW   DS    D                       SESSION BREAK PSW
 0000C0                             1217  1          =SCPSBGPR   DS    16F                     SESSION BREAK GPRS
                                    1218  1          =
 000100                             1219  1          =SCPCLPSW   DS    D                       CLP ERROR PSW
 000108                             1220  1          =SCPCLPGP   DS    16F                     CLP ERROR GPRS
                                    1221  1          =
 000148                             1222  1          =SCPSVPSW   DS    D                       SVC ERROR PSW
 000150                             1223  1          =SCPSVGPR   DS    16F                     SVC ERROR GPRS
                                    1224  1          =
 000190                             1225  1          =SCPCTL8    DS    A                       CONTROL REGISTER 8 (MON CALL)
 000194                             1226  1          =SCPCTL9    DS    3A                      CONTROL REGISTERS 9-11 (PER)
                                    1227  1          =
 0001A0                             1228  1          =SCPPXA     DS    A                       PAGING EXCEPTION ADDR
 0001A4                             1229  1          =SCPIPSW    DS    A                       INTERRUPT PSW
 0001A8                             1230  1          =SCPPAN     DS    H                       PANIC CODE
                                    1231  1          =SCPPANSY   EQU   SCPPAN+1,1,C'X'         FOR ONE BYTE PANIC CODE
                                    1232  1          =
                                    1233  1          =PANOPER    EQU   1,,C'N'                 OPERATION ERROR
                                    1234  1          =PANPROT    EQU   4,,C'N'                 PROTECTION ERROR
                                    1235  1          =PANADDR    EQU   5,,C'N'                 ADDRESSING ERROR
                                    1236  1          =PANSPEC    EQU   6,,C'N'                 SPECIFICATION ERROR
                                    1237  1          =PANWAIT    EQU   16,,C'N'                MISSING WAIT ERROR
                                    1238  1          =
 0001AA                             1239  1          =SCPACCT    DS    C'GG.UUU'               SIGNED-ON ACCOUNT
                                    1240  1          =SCPUSER    EQU   SCPACCT+3,3,C'C'        SIGNED-ON USER
                                    1241  1          =SCPGROUP   EQU   SCPACCT,2,C'C'          SIGNED-ON GROUP
                                    1242  1          =*
                                    1243  1          =*SCPPACCT DS    C'GG.UUU'               PSEUDO ACCOUNT
                                    1244  1          =*SCPPUSER EQU   SCPPACCT+3,3,C'C'       PSEUDO USER
                                    1245  1          =*SCPPGRP  EQU   SCPPACCT,2,C'C'         PSEUDO GROUP
                                    1246  1          =*SCPPRIVS DS    X                       PSEUDO ACCOUNT PRIVS
 0001B0                             1247  1          =           DS    XL7                     SPARE
                                    1248  1          =
 0001B7                             1249  1          =SCPPRIV    DS    X                       ACCOUNT PRIVS
 0001B8                             1250  1          =SCPCLW     DS    A                       POINTER TO THE CLW
 0001BC                             1251  1          =SCPPCAT    DS    A                       PROGRAM CATALOG POINTER
1VSUB     (VSUB00) (09:50) (22MAR04) ORVYL'S COMMAND PROCESSOR FILE SUBROUTINES                                             Page    6
0D-Loc  Object Code    Addr1 Addr2  Stmt Lv Lineno    Source Statement           (Hibal 5, Asmedit 3.3)  HLASM R4.0  2004/03/22 09.50
+_____  ______ ____    _____ _____  ____ __ ______    ______ _________
00001C0                             1253  1          =SCPSID     DS    D                       SUSPEND ID
 0001C8                             1254  1          =SCPUCLK    DS    A                       USER CLOCK ID
 0001CC                             1255  1          =SCPUCXIT   DS    A                       USER CLOCK EXIT ID
 0001D0                             1256  1          =SCPCCLK    DS    A                       CLP CLOCK ID
 0001D4                             1257  1          =SCPCCXIT   DS    A                       CLP CLOCK EXIT ID
                                    1258  1          =
 0001D8                             1259  1          =SCPTXEP    DS    A                       TIMER EXIT ENTRY POINT
 0001DC                             1260  1          =SCPTXI     DS    A                       USER POINTER FOR TIMER EXIT
 0001E0                             1261  1          =SCPPXEP    DS    A                       PANIC EXIT ENTRY POINT
 0001E4                             1262  1          =SCPPXI     DS    A                       USER POINTER FOR PANIC EXIT
 0001E8                             1263  1          =SCPSXEP    DS    A                       SVC EXIT ENTRY POINT
 0001EC                             1264  1          =SCPSXI     DS    A                       USER POINTER FOR SVC EXIT
                                    1265  1          =
 0001F0                             1266  1          =SCPUMSIZ   DS    A                       ADDRESS SPACE LIMIT
 0001F4                             1267  1          =SCPRRSEG   DS    A                       LOW ADDR FOR RESERVE/RELEASE
 0001F8                             1268  1          =SCPRESRV   DS    H                       RESERVED (GETMAINED) PAGES
 0001FA                             1269  1          =SCPUNRSV   DS    H                       UNRESERVED PAGE COUNT
 0001FC                             1270  1          =SCPUMAP    DS    A                       USER MAP SIZE
                                    1271  1          =
 000200 00                          1272  1          =SCPFL      FLAG  ,                       FLAG BYTE
 SCPFL.SCPFERR     80 ONES          1276  1          =           FLAG  SCPFERR                 ERROR IN CLP
 SCPFL.SCPFPER     40 ONES          1281  1          =           FLAG  SCPFPER                 PER IS ACTIVE
 SCPFL.SCPFMON     20 ONES          1286  1          =           FLAG  SCPFMON                 MONITOR CALL IS ACTIVE
 SCPFL.SCPFPSEU    10 ONES          1291  1          =           FLAG  SCPFPSEU                PSUEDO USER SET
 SCPFL.SCPFSAM     08 ONES          1296  1          =           FLAG  SCPFSAM                 USER IS STAND-ALONE
 SCPFL.SCPFPRT     04 ONES          1301  1          =           FLAG  SCPFPRT                 USER PROGRAM "PROTECTED"
 SCPFL.SCPFTRU     02 ONES          1306  1          =           FLAG  SCPFTRU                 USER TRACE ACTIVE
 SCPFL.SCPFTRC     01 ONES          1311  1          =           FLAG  SCPFTRC                 CLP TRACE ACTIVE
                                    1316  1          =
 000201                             1317  1          =SCPKLUDG   DS    X     ***KLUDGE***      "KLUDGE" BYTE
 000202                             1318  1          =SCPTRASH   DS    X                       MEMORY CLEARING VALUE
 000203                             1319  1          =SCPJESR    DS    X                       NUMBER OF JES READERS IN USE
                                    1320  1          =
 000204                             1321  1          =SCPPER     DS    A                       PER INTERRUPT CODE,ADDRESS
 000208                             1322  1          =SCPMON     DS    A                       MONITOR INTERRUPT CODE,ADDRESS
                                    1323  1          =
 00020C                             1324  1          =SCPIDT     DS    A                       I/O ID TABLES
 000210                             1325  1          =SCPNIDT    DS    H                       NUMBER OF ID BLOCKS
 000212                             1326  1          =SCPQIDT    DS    H                       ENQ/DEQ ID TABLE
                                    1327  1          =
                                    1328  1          =SCPCWASZ   EQU   16,,C'N'                SIZE OF COMMON WORK AREA
 000214                             1329  1          =SCPCWA     DS    (SCPCWASZ)X
                                    1330  1          =
                                    1331  1          =CLWIBUFL   EQU   235                     LENGTH OF COMMAND BUFFER
 000224                             1332  1          =SCPCMDP    DS    A                       =>AL2(LEN),CL133'COMMAND'
 000228                             1333  1          =SCPPARMP   DS    A                       =>AL2(LEN),CL133'PARM'
 00022C                             1334  1          =SCPLCMDL   DS    H                       LENGTH OF LAST CMD
 00022E                             1335  1          =SCPLCMD    DS    CL40                    LAST COMMAND
                                    1336  1          =
 000256                             1337  1          =SCPNENQ    DS    H                       NUMBER OF ALLOWED ENQ'S
 000258                             1338  1          =SCPENQL    DS    A                       ENQUEUE ID TABLE ADDRESS
                                    1339  1          =
 00025C                             1340  1          =SCPTRACE   DS    A                       MODE 1 TRACE BUFFER CHAIN
1VSUB     (VSUB00) (09:50) (22MAR04) ORVYL'S COMMAND PROCESSOR FILE SUBROUTINES                                             Page    7
0D-Loc  Object Code    Addr1 Addr2  Stmt Lv Lineno    Source Statement           (Hibal 5, Asmedit 3.3)  HLASM R4.0  2004/03/22 09.50
+_____  ______ ____    _____ _____  ____ __ ______    ______ _________
0                                   1342  1          =*******************************************************************
                                    1343  1          =*                                                                 *
                                    1344  1          =*    SCB  -  Mode 1 Session Control Block                         *
                                    1345  1          =*                                                                 *
                                    1346  1          =*******************************************************************
0000260 00                          1348  1          =SCBWFL     FLAG  ,                       WAIT FLAGS
 SCBWFL.SCBFWAIT   80 ONES          1352  1          =           FLAG  SCBFWAIT                WAITING
                                    1357  1          =
 000261 00                          1358  1          =SCBCFL     FLAG  ,                       COMMON FLAGS
 SCBCFL.SCBCFALP   80 ONES          1362  1          =           FLAG  SCBCFALP                AUTO LOGOFF BEING PROCESSED
 SCBCFL.SCBCFCLA   40 ONES          1367  1          =           FLAG  SCBCFCLA                IDLE ATTN IN CLP
 SCBCFL.SCBCFAX    20 ONES          1372  1          =           FLAG  SCBCFAX                 BRANCH TO ATTENTION EXIT
 SCBCFL.SCBCFNMA   10 ONES          1377  1          =           FLAG  SCBCFNMA                SUPPRESS MULTIPLE ATTN BREAK
 SCBCFL.SCBFNESC   08 ONES          1382  1          =           FLAG  SCBFNESC                FORCE SESSION BREAK ON ATTN
                                    1387  1          =
 000262 00                          1388  1          =SCBFL      FLAG  ,                       FLAGS
 SCBFL.SCBFCLP     80 ONES          1392  1          =           FLAG  SCBFCLP                 CLP IN CONTROL
 SCBFL.SCBFSVC     40 ONES          1397  1          =           FLAG  SCBFSVC                 USER IS IN SVC PROCESSING
 SCBFL.SCBFNPUP    20 ONES          1402  1          =           FLAG  SCBFNPUP                NO PSW CC CHANGES
 SCBFL.SCBFASLK    10 ONES          1407  1          =           FLAG  SCBFASLK                ADDRESS SPACE LOCK HELD
 SCBFL.SCBFPCLP    08 ONES          1412  1          =           FLAG  SCBFPCLP                PSEUDO CLP
                                    1417  1          =
 000263 00                          1418  1          =SCBTFL     FLAG  ,                       TIMER FLAGS
 SCBTFL.SCBTUTR    80 ONES          1422  1          =           FLAG  SCBTUTR                 USER TIMER RUNNING
 SCBTFL.SCBTUCT    40 ONES          1427  1          =           FLAG  SCBTUCT                 USER TIMING CPU TIME
 SCBTFL.SCBTCPTR   20 ONES          1432  1          =           FLAG  SCBTCPTR                COMMAND TIMER RUNNING
 SCBTFL.SCBTCPCT   10 ONES          1437  1          =           FLAG  SCBTCPCT                COMMAND TIMING CPU TIME
 SCBTFL.SCBTCPQU   08 ONES          1442  1          =           FLAG  SCBTCPQU                "QUEUED" TIMER RUNNING
                                    1447  1          =
 000264 00                          1448  1          =SCBMB      FLAG  ,                       EXIT ENABLED FLAG
                                    1452  1          =*
                                    1453  1          =* FOLLOWING FLAGS USED FOR BOTH SCBMB AND SCBXFL
                                    1454  1          =*
 000265 00                          1455  1          =SCBXFL     FLAG   ,                      EXIT FLAGS
 SCBXFL.SCBXT      80 ONES          1459  1          =           FLAG  SCBXT                   TIMER EXIT
 SCBXFL.SCBXA      40 ONES          1464  1          =           FLAG  SCBXA                   ATTN EXIT
 SCBXFL.SCBXW      20 ONES          1469  1          =           FLAG  SCBXW                   WAIT EXIT
 SCBXFL.SCBXP      10 ONES          1474  1          =           FLAG  SCBXP                   PANIC EXIT
 SCBXFL.SCBXCPT    08 ONES          1479  1          =           FLAG  SCBXCPT                 CLP TIMER EXIT
 SCBXFL.SCBXALO    04 ONES          1484  1          =           FLAG  SCBXALO                 AUTO LOGOFF
 SCBXFL.SCBDEFMB   F0 NZ            1489  1          =           FLAG  (SCBDEFMB,SCBXT+SCBXA+SCBXW+SCBXP)  DEFAULT
                                    1509  1          =
 000268                             1510  1          =SCBSPB     DS    A                       SPB POINTER
 00026C                             1511  1          =SCBENQ     DS    A                       ENQUEUE ID
 000270                             1512  1          =SCPEPXIT   DS    A                       ENQUEUE POST EXIT ID
                                    1513  1          =
 000278                             1514  1          =           DS    D                       Available
 000280                             1515  1          =SCBPNAML   DS    H                       LENGTH OF THE PROGRAM NAME
 000282                             1516  1          =SCBPNAM    DS    CL8                     PROGRAM NAME
 00028A                             1517  1          =SCBUPRI    DS    X                       USER PRIORITY
                                    1518  1          =*
                                    1519  1          =* Shared symbol control
                                    1520  1          =*
 00028C                             1521  1          =SCBSSAB    DS    A                       POINTER TO SSAB CHAIN
                                    1522  1          =
1VSUB     (VSUB00) (09:50) (22MAR04) ORVYL'S COMMAND PROCESSOR FILE SUBROUTINES                                             Page    8
0D-Loc  Object Code    Addr1 Addr2  Stmt Lv Lineno    Source Statement           (Hibal 5, Asmedit 3.3)  HLASM R4.0  2004/03/22 09.50
+_____  ______ ____    _____ _____  ____ __ ______    ______ _________
0000290                             1523  1          =SCBWAITB   DS    A         WAIT BLOCK PTR (SEE M1GOWAIT IN M1SERV)
 000294                00294 00294  1524             =         END
1VSUB     (VSUB00) (09:50) (22MAR04) ORVYL'S COMMAND PROCESSOR FILE SUBROUTINES                                             Page    9
0Loc    Object Code    Addr1 Addr2  Stmt Lv Lineno    Source Statement           (Hibal 5, Asmedit 3.3)  HLASM R4.0  2004/03/22 09.50
+___    ______ ____    _____ _____  ____ __ ______    ______ _________
0                                   1534      52.              COPY  CLW
                                    1535             =*
                                    1536             =*                   COMMAND LANGUAGE WORK AREA
                                    1537             =*
                                    1538             =* ORGANIZATION:
                                    1539             =*
                                    1540             =*        COMMONLY USED CLP FLAGS, COMMAND BUFFERS AND OTHER CONTROL
                                    1541             =*        INFORMATION FOLLOW THE SESSION CONTROL PAGE INFORMATION.
                                    1542             =*        THE BALANCE OF THIS PAGE IS THE CLP SAVE AREA STACK.
                                    1543             =*
 000000                00000 00618  1544             =CLW      RECORD BEGIN
 000000                             1552  1          =CLWSTART   DS    0F
 000000                             1553  1          =CLWSCP     DS    A                       POINTER TO THE SCP
 000004                             1554  1          =           DS    5A                      AVAILABLE
 000018                             1555  1          =CLWUWST    DS    A                       STARTING LOC OF USER WORK AREA
 00001C                             1556  1          =CLWUPST    DS    A                       STARTING LOC OF USER PROGRAM
 000020                             1557  1          =CLWUPML    DS    A                       MAXIMUM LEN OF USER PROGRAM
 000024                             1558  1          =CLWUPRSV   DS    H                       USER PROGRAM RESERVE COUNT
 000026                             1559  1          =CLWUPURV   DS    H                       USER PROGRAM UN-RESERVE COUNT
 000028                             1560  1          =CLWIBUFN   DS    H                       LENGTH OF INPUT LINE
 00002A 606E40                      1561  1          =           DC    C'-> '
 00002D                             1562  1          =CLWIBUF    DS    CL235                   INPUT BUFFER
                                    1563  1          =
 000118                             1564  1          =CLWOBUF    DS    2H                      WRITE/PROMPT COUNTS
 00011C                             1565  1          =           DS    CL235                   OUTPUT BUFFER
                                    1566  1          =CLWOBUFL   EQU   *-CLWOBUF-4
                                    1567  1          =*                                      SESSION BREAK FLAGS:
 000207 00                          1568  1          =CLWFL      FLAG  ,                       ZEROED AT SESSION BREAK START
 CLWFL.CLWFTYPD    80 ONES          1572  1          =           FLAG  CLWFTYPD                CURRENT COMMAND WAS TYPED
 CLWFL.CLWFCMD     40 ONES          1577  1          =           FLAG  CLWFCMD                 PROCESSING COMMAND SVC
 CLWFL.CLWFWYL     20 ONES          1582  1          =           FLAG  CLWFWYL                 COMMAND HAS BEEN TO WYLBUR
                                    1587  1          =
 000208 00                          1588  1          =CLWFLG     FLAG  ,                       FLAGS
 CLWFLG.CLWFCERR   80 ONES          1592  1          =           FLAG  CLWFCERR                COMMAND ERROR: EXE BREAK
 CLWFLG.CLWFGPW    40 ONES          1597  1          =           FLAG  CLWFGPW                 GET-PUT WORK AREA ALLOCATED
 CLWFLG.CLWFTTRP   20 ONES          1602  1          =           FLAG  CLWFTTRP                TEMPORARY TRAP SET
 CLWFLG.CLWFTRAP   10 ONES          1607  1          =           FLAG  CLWFTRAP                TRAP IN PROGRESS
 CLWFLG.CLWFOSC    08 ONES          1612  1          =           FLAG  CLWFOSC                 READ/WRITE REAL (OS) CORE
 CLWFLG.CLWFQMSG   04 ONES          1617  1          =           FLAG  CLWFQMSG                "QUEUED" MESSAGE SENT
 CLWFLG.CLWFM31    02 ONES          1622  1          =           FLAG  CLWFM31                 PROGRAM IN 31 BIT MODE
                                    1627  1          =
 000209 00                          1628  1          =CLWPFL     FLAG  ,                       PROGRAM FLAGS
 CLWPFL.CLWPFSUP   80 ONES          1632  1          =           FLAG  CLWPFSUP                LINK AREA SET UP
 CLWPFL.CLWPFPL    40 ONES          1637  1          =           FLAG  CLWPFPL                 PROGRAM LOADING
 CLWPFL.CLWPFPIC   20 ONES          1642  1          =           FLAG  CLWPFPIC                PROGRAM ENTERED
 CLWPFL.CLWPFRUN   10 ONES          1647  1          =           FLAG  CLWPFRUN                EXECUTE PROGRAM
 CLWPFL.CLWPFPAU   08 ONES          1652  1          =           FLAG  CLWPFPAU                PAUSE BEFORE EXECUTION
 CLWPFL.CLWPFPRV   04 ONES          1657  1          =           FLAG  CLWPFPRV                PRIVATE PROGRAM
 CLWPFL.CLWPFPRT   02 ONES          1662  1          =           FLAG  CLWPFPRT                PROGRAM PROTECTED
 CLWPFL.CLWPFSHR   01 ONES          1667  1          =           FLAG  CLWPFSHR                SHARED PROGRAM LOADED
                                    1672  1          =
 00020A 00                          1673  1          =CLWMFL     FLAG  ,                       MISCELLANEOUS FLAGS
 CLWMFL.CLWMEVCN   80 ONES          1677  1          =           FLAG  CLWMEVCN                CONTINUE AFTER EVENTS
 CLWMFL.CLWMMNCN   40 ONES          1682  1          =           FLAG  CLWMMNCN                CONTINUE AFTER MONITORS
 CLWMFL.CLWMBSUC   20 ONES          1687  1          =           FLAG  CLWMBSUC                SIMULATED BRANCH SUCCESSFUL
 CLWMFL.CLWMNCST   10 ONES          1692  1          =           FLAG  CLWMNCST                SUPPRESS AUTOMATIC COST PRINT
1VSUB     (VSUB00) (09:50) (22MAR04) ORVYL'S COMMAND PROCESSOR FILE SUBROUTINES                                             Page   10
0Loc    Object Code    Addr1 Addr2  Stmt Lv Lineno    Source Statement           (Hibal 5, Asmedit 3.3)  HLASM R4.0  2004/03/22 09.50
+___    ______ ____    _____ _____  ____ __ ______    ______ _________
0CLWMFL.CLWMCLRP   08 ONES          1697  1          =           FLAG  CLWMCLRP                UNREC. CLR FOUND
 CLWMFL.CLWMNOL    04 ONES          1702  1          =           FLAG  CLWMNOL                 DON'T PRINT ON CONT. EVENTS
 CLWMFL.CLWMDSUP   02 ONES          1707  1          =           FLAG  CLWMDSUP                DUMP AREA SET UP
 CLWMFL.CLWMDUMP   01 ONES          1712  1          =           FLAG  CLWMDUMP                DUMP COMMAND BEING PROCESSED
                                    1717  1          =
 00020B 00                          1718  1          =CLWMONF    FLAG  ,                       PROGLOOK/MONITOR FLAGS
 CLWMONF.CLWFMWP   80 ONES          1722  1          =           FLAG  CLWFMWP                 MONITOR WORK PAGE EXISTS
 CLWMONF.CLWFPRGL  40 ONES          1727  1          =           FLAG  CLWFPRGL                PROGLOOK IN PROGRESS
 CLWMONF.CLWDOTIM  20 ONES          1732  1          =           FLAG  CLWDOTIM                SET TIMER AT RUN
 CLWMONF.CLWCPTIM  10 ONES          1737  1          =           FLAG  CLWCPTIM                SET CPU TIME TIMER
                                    1742  1          =
 00020C 00                          1743  1          =CLWSFL     FLAG  ,                       SESSION FLAGS
 CLWSFL.CLWSSAM    80 ONES          1747  1          =           FLAG  CLWSSAM                 STAND ALONE MODE
 CLWSFL.CLWSSP     40 ONES          1752  1          =           FLAG  CLWSSP                  SPECIAL PERSON
                                    1757  1          =
 00020D                             1758  1          =           DS    X
                                    1759  1          =
 00020E                             1760  1          =CLWEXSVC   DS    H                       EXIT SVC
 000210                             1761  1          =CLWPSVC    DS    H                       PAUSE/TRAP SVC
 000212                             1762  1          =CLWCSVC    DS    H                       COMMAND SVC
                                    1763  1          =
 000214                             1764  1          =CLWDSP     DS    X                       DISPATCHING PRIORITY
 000215                             1765  1          =CLWPFS     DS    X                       PARAMTER FLAG SAVE
 000218                             1766  1          =CLWPS      DS    3F                      PARAMETER SAVE
                                    1767  1          =
 000224                             1768  1          =CLWMLMOD   DS    F                       MILTEN MODE WORD
 000228                             1769  1          =CLWWLMOD   DS    F                       WYLBUR MODE WORD
                                    1770  1          =
 00022C                             1771  1          =CLWTIMER   DS    A                       TIMER VALUE TO BE SET AT RUN
 000230                             1772  1          =CLWTIMAX   DS    H                       MAX TIMER INTERVAL (IN .1 SEC)
 000232                             1773  1          =CLWTIVAL   DS    H                       CURRENT TIMER INTERVAL
 000234                             1774  1          =CLWTMAX    DS    H                       CPU TIME LIMIT
 000236                             1775  1          =CLWTIME    DS    H                       CURRENT CPU TIME
 000238                             1776  1          =CLWPELT    DS    A                       ELAPSED TIME
 00023C                             1777  1          =CLWPCVM    DS    A                       VM CHARGES
 000240                             1778  1          =CLWPIOS    DS    A                       I/O COUNTS
 000244                             1779  1          =CLWPCUSE   DS    A                       CPU TIME
                                    1780  1          =
 000248                             1781  1          =CLWPROGN   DS    CL8                     PROGRAM NAME
 000250                             1782  1          =CLWLNKP    DS    A                       LINK PAGE POINTER
 000254                             1783  1          =CLWGPWP    DS    A                       GET-PUT WORK PAGE POINTER
 000258                             1784  1          =CLWMONP    DS    A                       MONITOR/PROGLOOK PAGE
 00025C                             1785  1          =CLWSPB     DS    A                       SHARED PROGRAM BLOCK
 000260                             1786  1          =CLWDUMPB   DS    A                       POINTER TO DUMP BUFFER
                                    1787  1          =
 000264                             1788  1          =CLWPER     DS    A                       PER INFO
 000268                             1789  1          =CLWMON     DS    A                       MONITOR INFO
                                    1790  1          =
 00026C                             1791  1          =CLWEVCNT   DS    A                       NUMBER OF EVENTS TO EXECUTE
 000270                             1792  1          =CLWTRAPA   DS    A                       ADDR OF INST BEING TRAPPED
 000274                             1793  1          =CLWTRAPB   DS    A                       ADDR OF INST AFTER
 000278                             1794  1          =CLWTRAPI   DS    3H                      INSTRUCTION BEING TRAPPED
 00027E                             1795  1          =CLWTRAPJ   DS    H                       1ST HALFWORD OF INST AFTER
                                    1796  1          =
                                    1797  1          =CLWNTRAP   EQU   8,,C'N'                 NO. OF TRAPS
 000280                             1798  1          =CLWTRAPS   DS    (CLWNTRAP)XL5           TRAP TABLE
1VSUB     (VSUB00) (09:50) (22MAR04) ORVYL'S COMMAND PROCESSOR FILE SUBROUTINES                                             Page   11
0Loc    Object Code    Addr1 Addr2  Stmt Lv Lineno    Source Statement           (Hibal 5, Asmedit 3.3)  HLASM R4.0  2004/03/22 09.50
+___    ______ ____    _____ _____  ____ __ ______    ______ _________
00002A8                             1799  1          =CLWTTRAP   DS    XL5                     TEMPORARY TRAP
                                    1800  1          =*
                                    1801  1          =* KEYWORD FILE RECORD AREA
                                    1802  1          =*
 0002AD                             1803  1          =CLWKFL     DS    X                       KEYWORD FILE FLAGS
                                    1804  1          =
                                    1805  1          =CLWKFAC    EQU   X'80'                   PROGRAM AUTO CALL
                                    1806  1          =CLWKFMP    EQU   X'40'                   PROGRAM MANDATORY
                                    1807  1          =
 0002AE                             1808  1          =CLWKACC    DS    CL5                     ACCOUNT FOR PROGRAM SEARCH
 0002B3                             1809  1          =CLWKPROG   DS    CL8                     DEFAULT/MANDATORY PROGRAM
 0002BB                             1810  1          =CLWKMISC   DS    CL8                     MISCELLANEOUS FIELDS
                                    1811  1          =*
                                    1812  1          =*  SCANNER UTILITY AREA
                                    1813  1          =*
                                    1814  1          =           SCANCB PFX=CLWKW
 0002C4                             1815  1 01-SCANC +CLWKWCB    DS    0F
 0002C4                             1816  1 01-SCANC +CLWKWVAL   DS    A                       VALUE RETURNED
 0002C8                             1817  1 01-SCANC +CLWKWKW    DS    CL8                     CURRENT KEY WORD
 0002D0                             1818  1 01-SCANC +CLWKWLEN   DS    A                       LENGTH LEFT TO SCAN
 0002D4                             1819  1 01-SCANC +CLWKWLOC   DS    A                       NEXT THING TO SCAN
 0002D8                             1820  1 01-SCANC +CLWKWRA    DS    A                       RETURN ADDRESS
 0002DC                             1821  1 01-SCANC +CLWKWPRT   DS    A                       ROUTING TABLE ADDRESS
 0002E0                             1822  1 01-SCANC +CLWKWCLT   DS    A                       SCAN TYPE
                                    1823  1          +*                                      0 = NORMAL SCAN
                                    1824  1          +*                                      4 = EXPRESSION ISOLATION
                                    1825  1          +*                                      8 = EXPRESSION SCAN
                                    1826  1 01-SCANC +CLWKWCBL   EQU *-CLWKWCB
                                    1827  1          =
 0002E8                             1828  1          =CLWTEMP    DS    4D                      WORK AREA
                                    1829  1          =
 000308                             1830  1          =CLWDELTA   DS    F                       Wylbr line delta
 00030C                             1831  1          =           DS    F                       Spare
 000310                             1832  1          =CLWEVHST   DS    8D                      EVENT HISTORY
 000350                             1833  1          =CLWEVENT   DS    D                       LAST EVENT INFO
 000358                             1834  1          =CLWQRET    DS    3F                      QUICK RETURN FOR VSUB
                                    1835  1          =*                                      SAVE AREA FOR BRR,BR,WAR
                                    1836  1          =*
 000368                             1837  1          =CLWSBPSW   DS    D                       SESSION BREAK PSW
 000370                             1838  1          =CLWSBGPR   DS    16F                     SESSION BREAK GPRS
 0003B0                             1839  1          =CLWACCT    DS    C'GG.UUU'               USER ACCOUNT
                                    1840  1          =CLWUSER    EQU   CLWACCT+3,3,C'C'        USER
                                    1841  1          =CLWGROUP   EQU   CLWACCT,2,C'C'          GROUP
 0003B8                             1842  1          =CLWIDT     DS    A                       ADDRESS OF THE IDTS
 0003BC                             1843  1          =CLWNIDT    DS    H                       NUMBER OF IDTS
 0003C0                             1844  1          =           DS    0F                      START OF SAVE AREA
 0003C0                             1845  1          =CLWSVA     DS    XL600                   SAVE STACK
                                    1846  1          =CLWSVAEN   EQU   *-4,4,C'X'              LAST WORD OF THE STACK
 000618                00618 00618  1847             =         END   ,
1VSUB     (VSUB00) (09:50) (22MAR04) ORVYL'S COMMAND PROCESSOR FILE SUBROUTINES                                             Page   12
0Loc    Object Code    Addr1 Addr2  Stmt Lv Lineno    Source Statement           (Hibal 5, Asmedit 3.3)  HLASM R4.0  2004/03/22 09.50
+___    ______ ____    _____ _____  ____ __ ______    ______ _________
0                                   1857      54.              COPY  WYLMDWD
                                    1858             =*
                                    1859             =*   EQUS FOR VALUES IN WYLBUR MODE WORD - LOW ORDER BYTE
                                    1860             =*
                                    1861             =WPREST   EQU   X'01',,C'N'              RETURN DATA IN PREST FORMAT
                                    1862             =WNFORM   EQU   X'02',,C'N'              INFORM OF WDS CHANGES (RE)
                                    1863             =WPRHBT   EQU   X'04',,C'N'              PROHIBIT WDS CHANGES (RE)
                                    1864             =WNNUMB   EQU   X'08',,C'N'              NUMBER COMMAND INVALID
                                    1865             =WNALGN   EQU   X'10',,C'N'              ALIGN,JUSTIFY,CENTER INVALID
                                    1866             =WSSBRK   EQU   X'20',,C'N'              PROHIBIT SESS BREAK WDS CHGS
1VSUB     (VSUB00) (09:50) (22MAR04) ORVYL'S COMMAND PROCESSOR FILE SUBROUTINES                                             Page   13
0Loc    Object Code    Addr1 Addr2  Stmt Lv Lineno    Source Statement           (Hibal 5, Asmedit 3.3)  HLASM R4.0  2004/03/22 09.50
+___    ______ ____    _____ _____  ____ __ ______    ______ _________
0                                   1868      56.              COPY  GPW                     COPY GET/PUT WORK AREA
                                    1869             =*
                                    1870             =* GET PUT WORK PAGE. ALLOCATED ON ENTRY TO VGP. DE-ALLOCATED ON EXIT
                                    1871             =*
 000000                00000 03000  1872             =GPWDSECT DSECT
 000000                             1873             =GPWSTART DS    0D
 000000 00                          1874             =GPWGFL   FLAG  ,                       GENERAL FLAGS
 GPWGFL.GPWFFREE   80 ONES          1878             =         FLAG  GPWFFREE                FREE CORE
 GPWGFL.GPWFALTF   40 ONES          1883             =         FLAG  GPWFALTF                PROCESS ALTERNATE FILE
 GPWGFL.GPWFALTA   20 ONES          1888             =         FLAG  GPWFALTA                PROCESS ALTERNATE ACCOUNT
 GPWGFL.GPWFARET   10 ONES          1893             =         FLAG  GPWFARET                TAKE ALTERNATE RETURN
 GPWGFL.GPWFPCAT   08 ONES          1898             =         FLAG  GPWFPCAT                PROCESSING PROGRAM CATALOG
                                    1903             =
 000001 00                          1904             =GPWPRFL  FLAG  ,                       PROCESSING FLAGS
 GPWPRFL.GPWFTRN   80 ONES          1908             =         FLAG  GPWFTRN                 SOME LINES TRUNCATED
 GPWPRFL.GPWFNOE   40 ONES          1913             =         FLAG  GPWFNOE                 NO ERROR IF FILE NOT FOUND (ATT)
 GPWPRFL.GPWFANW   20 ONES          1918             =         FLAG  GPWFANW                 ATTACH NEW IF FILE NOT FOUND
 GPWPRFL.GPWFNSF   10 ONES          1923             =         FLAG  GPWFNSF                 DO NOT SENSE USER INFO ON ATTACH
 GPWPRFL.GPWFNSKP  08 ONES          1928             =         FLAG  GPWFNSKP                READ WITH NO MODE = SKIP
 GPWPRFL.GPWFQIET  04 ONES          1933             =         FLAG  GPWFQIET                QUIET OPTION SET
 GPWPRFL.GPWOSFOK  02 ONES          1938             =         FLAG  GPWOSFOK                OS/FILES IMPLEMENTED FOR CMD
                                    1943             =
 000002 00                          1944             =GPWPRFL2 FLAG  ,                       MORE PROCESSING FLAGS
 GPWPRFL2.GPWSRCHC 80 ONES          1948             =         FLAG  GPWSRCHC                CONTINUE DIRECTORY SEARCH
 GPWPRFL2.GPWFFRST 40 ONES          1953             =         FLAG  GPWFFRST                FIRST PASS (FBAL)
 GPWPRFL2.GPWFRST  20 ONES          1958             =         FLAG  GPWFRST                 RESET BLOCKS (FBAL)
 GPWPRFL2.GPWFNIXR 10 ONES          1963             =         FLAG  GPWFNIXR                NON-IXR'ED FILE ATTACHED
 GPWPRFL2.GPWFHYBR 08 ONES          1968             =         FLAG  GPWFHYBR                HYBRID NON-IXR'ED FILE ATTACHED
                                    1973             =
 000003 00                          1974             =GPWKWFL  FLAG  ,                       KEYWORD SCAN FLAGS
 GPWKWFL.GPWFERS   80 ONES          1978             =         FLAG  (GPWFERS,X'80')         ERASE
 GPWKWFL.GPWFCLR   80 ONES          1987             =         FLAG  (GPWFCLR,X'80')         CLEAR TEXT (ON GET)
 GPWKWFL.GPWFAPP   40 ONES          1996             =         FLAG  (GPWFAPP,X'40')         APPEND
 GPWKWFL.GPWFMRG   40 ONES          2005             =         FLAG  (GPWFMRG,X'40')         MERGE
 GPWKWFL.GPWFCON   20 ONES          2014             =         FLAG  (GPWFCON,X'20')         CONTENTS
 GPWKWFL.GPWFCREF  20 ONES          2023             =         FLAG  (GPWFCREF,X'20')        CREATE BEING PROCESSED
 GPWKWFL.GPWFNCOM  10 ONES          2032             =         FLAG  (GPWFNCOM,X'10')        NO COMMENT
 GPWKWFL.GPWFELIB  10 ONES          2041             =         FLAG  (GPWFELIB,X'10')        LIBRARY (ON ERASE)
 GPWKWFL.GPWFPUB   08 ONES          2050             =         FLAG  (GPWFPUB,X'08')         PUBLIC SPECIFIED
 GPWKWFL.GPWFACC   04 ONES          2059             =         FLAG  (GPWFACC,X'04')         ACCOUNT SPECIFIED
 GPWKWFL.GPWFAACC  02 ONES          2068             =         FLAG  (GPWFAACC,X'02')        ALTERNATE ACCOUNT SPECIFIED
 GPWKWFL.GPWFRNUM  01 ONES          2077             =         FLAG  (GPWFRNUM,X'01')        RENUMBER (FOR GET)
 GPWKWFL.GPWFPMBR  01 ONES          2086             =         FLAG  (GPWFPMBR,X'01')        PUT LIBRARY MEMBER
                                    2095             =
 000004 00                          2096             =GPWSFFL  FLAG  ,                       SHOW FILES FLAGS
 GPWSFFL.GPWSFER   80 ONES          2100             =         FLAG  GPWSFER                 ERASE  (SHOW FILES)
 GPWSFFL.GPWSFDT   40 ONES          2105             =         FLAG  GPWSFDT                 DATED    "    "
 GPWSFFL.GPWSFLK   20 ONES          2110             =         FLAG  GPWSFLK                 LIKE     "    "
 GPWSFFL.GPWSFUNL  10 ONES          2115             =         FLAG  GPWSFUNL                UNLIKE   "    "
 GPWSFFL.GPWSFFRO  08 ONES          2120             =         FLAG  GPWSFFRO                FROM     "    "
 GPWSFFL.GPWSFATT  04 ONES          2125             =         FLAG  GPWSFATT                ATTACH   "    "
 GPWSFFL.GPWSFBLO  02 ONES          2130             =         FLAG  GPWSFBLO                BLOCKS   "    "
 GPWSFFL.GPWSFFMT  01 ONES          2135             =         FLAG  GPWSFFMT                FORMAT
1VSUB     (VSUB00) (09:50) (22MAR04) ORVYL'S COMMAND PROCESSOR FILE SUBROUTINES                                             Page   14
0D-Loc  Object Code    Addr1 Addr2  Stmt Lv Lineno    Source Statement           (Hibal 5, Asmedit 3.3)  HLASM R4.0  2004/03/22 09.50
+_____  ______ ____    _____ _____  ____ __ ______    ______ _________
0000005                             2141             =GPWPERM  DS    X                       PERMIT FLAGS
                                    2142             =GPWPRMRD EQU   GPWPERM,X'01',1         READ ONLY
                                    2143             =GPWPRMAP EQU   GPWPERM,X'02',1         APPEND ONLY
                                    2144             =GPWPRMRP EQU   GPWPERM,X'03',1         READ AND APPEND
                                    2145             =GPWPRMWR EQU   GPWPERM,X'07',1         WRITE
                                    2146             =GPWPRMEX EQU   GPWPERM,X'08',1         EXTEND
                                    2147             =
 000006 00                          2148             =GPWGPFL  FLAG  ,                       FLAGS FOR GET/PUT
 GPWGPFL.GPWGPFIN  80 ONES          2152             =         FLAG  GPWGPFIN                INTEGER
 GPWGPFL.GPWGPFV   40 ONES          2157             =         FLAG  GPWGPFV                 VARIABLE
 GPWGPFL.GPWGPFLR  20 ONES          2162             =         FLAG  GPWGPFLR                LRECL
 GPWGPFL.GPWGPFE   10 ONES          2167             =         FLAG  GPWGPFE                 EDIT
 GPWGPFL.GPWGPFSK  08 ONES          2172             =         FLAG  GPWGPFSK                SKIP COUNT
 GPWGPFL.GPWGPFBK  04 ONES          2177             =         FLAG  GPWGPFBK                BLOCKING FACTOR
 GPWGPFL.GPWGPFHX  02 ONES          2182             =         FLAG  GPWGPFHX                HEX
 GPWGPFL.GPWGPFN   01 ONES          2187             =         FLAG  GPWGPFN                 NUMBERED
                                    2192             =
 000007                             2193             =ACCT     DS    0C'UUU$GG'
 000007                             2194             =GPWACCT  DS    C'UUU$GG'               GROUP NAME
 00000D                             2195             =GPWAACCT DS    C'UUU$GG'               ALTERNATE GROUP NAME
 000013                             2196             =UUU      DS    0C'UUU'                 STANDARD USER PATTERN
 000013                             2197             =GG       DS    0C'GG'                  STANDARD GROUP PATTERN
                                    2198             =
 000013                             2199             =GPWSUSER DS    C'UUU'                   'SET' USER
 000016                             2200             =GPWSGRP  DS    C'GG'                    'SET' GROUP
                                    2201             =GPWSACCT EQU   GPWSUSER,*-GPWSUSER
                                    2202             =
 000018                             2203             =         DS    0F                      ALIGN WYLBUR INFO
 000018                             2204             =GPWOPT   DS    AL2(0)                  * READ TEXT OPTION
 00001A 0000                        2205             =GPWBLK   DC    AL2(0)                  W READ BLOCKING FACTOR
                                    2206             =GPWWBL   EQU   GPWBLK                  Y WRITE BUFFER LEN
 00001C                             2207             =GPWFWDS  DS    A(0)                    L FIRST LINE OF WDS
 000020                             2208             =GPWLWDS  DS    A(0)                    B LAST LINE OF WDS
 000024                             2209             =GPWFCOL  DS    AL2(0)                  U FIRST COLUMN (RANGE)
 000026                             2210             =GPWLCOL  DS    AL2(0)                  R LAST COLUMN (RANGE)
 000028                             2211             =GPWSLEN  DS    AL2(0)                  * STRING LEN (RANGE)
 00002A                             2212             =GPWSTR   DS    0CL44                   * STRING (RANGE)
                                    2213             =GPWMSGL  EQU   GPWFWDS,4,C'C'          LENGTH OF SAVED MESSAGE
                                    2214             =GPWMSGA  EQU   GPWLWDS,4               START OF SAVED MESSAGE
 00002A 0000
 00002C 00000000                    2215             =GPWSKIP  DC    A(0)                    SKIPING COUNT
 000030 00000000                    2216             =GPWLINCT DC    A(0)                    LINE COUNT
                                    2217             =
 000034 0000                        2218             =GPWLREC  DC    AL2(0)                  LRECL
 000036 0000                        2219             =GPWRBL   DC    AL2(0)                  READ BUFFER LEN
                                    2220             =GPWWBLK  EQU   GPWRBL                  WRITE BLOCKING FACTOR
1VSUB     (VSUB00) (09:50) (22MAR04) ORVYL'S COMMAND PROCESSOR FILE SUBROUTINES                                             Page   15
0D-Loc  Object Code    Addr1 Addr2  Stmt Lv Lineno    Source Statement           (Hibal 5, Asmedit 3.3)  HLASM R4.0  2004/03/22 09.50
+_____  ______ ____    _____ _____  ____ __ ______    ______ _________
0000038                             2222             =GPWBUFA  DS    A                       ADDRESS OF GENERAL BUFFER
 00003C                             2223             =GPWDATAD DS    A                       START OF DATA IN BLOCK
                                    2224             =MONBUFA  EQU   GPWBUFA,4,C'A'          ALTERNATE NAME FOR VPS
 000040                             2225             =GPWDIRAP DS    A                       POINTER TO FIRST DIRECTORY BLOCK
 000044                             2226             =GPWDIRAL DS    A                       LENGTH OF DIRECTORY AREA
 000048                             2227             =GPWDIRAE DS    A                       ADDR OF END OF LAST VALID DIRB
 00004C                             2228             =GPWARETA DS    A                       ALTERNATE RETURN ADDRESS
 000050                             2229             =GPWDIRLS DS    A                       LAST DIRECTORY ENTRY LOC
-000054                             2231             =PFX      DS    0C'ORV.GG.UUU.'        STANDARD FILENAME PREFIX
 000054                             2232             =GPWFFN   DS    C'ORV.'                 FULL FILE NAME
 000058                             2233             =GPWGRP   DS    C'GG'                    GROUP ON LAST FILE
 00005A                             2234             =GPWGDOT  DS    C'.'
 00005B                             2235             =GPWUSER  DS    C'UUU'                   USER FOR LAST FILE
 00005E                             2236             =GPWUDOT  DS    C'.'
 00005F                             2237             =GPWFN    DS    CL44                    FILE NAME (AS TYPED)
 00008B                             2238             =         DS    C                       SPACE FOR BLANK FOLLOWING NAME
1VSUB     (VSUB00) (09:50) (22MAR04) ORVYL'S COMMAND PROCESSOR FILE SUBROUTINES                                             Page   16
0D-Loc  Object Code    Addr1 Addr2  Stmt Lv Lineno    Source Statement           (Hibal 5, Asmedit 3.3)  HLASM R4.0  2004/03/22 09.50
+_____  ______ ____    _____ _____  ____ __ ______    ______ _________
0
                                    2241             =* GPW FILE CONTROL BLOCK
                                    2242             =*
 00008C                             2243             =GPWFILE  DS    0F                      FILE CONTROL BLOCK
                                    2244             =*
                                    2245             =*                            NOTE:  GPWPFFL AND GPWFID MUST
                                    2246             =*                                   REMAIN PAIRED FOR VPM
                                    2247             =*
 00008C 00                          2248             =GPWPFFL  FLAG  ,                       PRIMARY FILE FLAGS
 GPWPFFL.GPWFATT   80 ONES          2252             =         FLAG  GPWFATT                 FILE IS ATTACHED
 GPWPFFL.GPWFSHR   40 ONES          2257             =         FLAG  GPWFSHR                 ATTACH FILE SHARE
 GPWPFFL.GPWFNEW   20 ONES          2262             =         FLAG  GPWFNEW                 FILE IS NEW
 GPWPFFL.GPWFFMT   10 ONES          2267             =         FLAG  GPWFFMT                 USER INFO IS FORMAT
 GPWPFFL.GPWFVOSF  08 ONES          2272             =         FLAG  GPWFVOSF                FILE IS AN OS/FILE
 GPWPFFL.GPWOSFED  04 ONES          2277             =         FLAG  GPWOSFED                OS/FILE IS EDIT FORMAT
 GPWPFFL.GPWFFFN   02 ONES          2282             =         FLAG  GPWFFFN                 FULL FILENAME SPECIFIED
                                    2287             =
 00008D                             2288             =GPWFID   DS    X                       FILE ID NUMBER
 00008E                             2289             =GPWFNL   DS    X                       FILE NAME LENGTH
                                    2290             =*
                                    2291             =*        LIBRARY DATA AND FLAGS
                                    2292             =*
 00008F                             2293             =GPWLMNL  DS    AL1                     LIBRARY MEMBER NAME LENGTH
 000090                             2294             =GPWLMN   DS    CL8                     LIBRARY MEMBER NAME
 000098                             2295             =GPWLMN2  DS    CL8                     LIBRARY MEMBER NAME2 (ALIAS)
 0000A0                             2296             =GPWLMF1  DS    X                       LIB MEMBER
 0000A1                             2297             =GPWLMF2  DS    X                       DIRECTORY FLAGS
                                    2298             =GPWLMFLS EQU   GPWLMF1,*-GPWLMF1
 0000A4                             2299             =GPWLMFBN DS    A                       FIRST BLOCK # OF LIB MEMBER
 0000A8                             2300             =GPWLMBCT DS    A                       NUM OF BLOCKS IN LIB MEMBER
                                    2301             =GPWLMSPC EQU   GPWLMN,*-GPWLMN,C'X'    SPECIFIES LIB MBR.
                                    2302             =GPWLMFLD EQU   GPWLMF1,*-GPWLMF1       DESCRIPTORS OF LIB MBR.
 0000AC                             2303             =GPWLMLBN DS    A                       LAST BLOCK NUMBER OF LIB MEMBER
 0000B0                             2304             =GPWNXTAD DS    A                       ADDRESS OF NEXT ENTRY IN LIB DIR
                                    2305             =
 0000B4 00                          2306             =GPWLFLAG FLAG  ,                       LIBRARY FLAGS
 GPWLFLAG.GPWLREP  80 ONES          2310             =     FLAG  GPWLREP                     REPLACE PDS MEMBER
 GPWLFLAG.GPWLGOTD 40 ONES          2315             =     FLAG  GPWLGOTD                    GOT DIRECTORY BLK, SKIP READ
 GPWLFLAG.GPWLNEWD 20 ONES          2320             =     FLAG  GPWLNEWD                    NEW DIRECTORY, CREATE DIRE
 GPWLFLAG.GPWALIAS 10 ONES          2325             =     FLAG  GPWALIAS                    ALIAS USED FOR FSCALL, GPWLMN
 GPWLFLAG.GPWLNXTM 08 ONES          2330             =     FLAG  GPWLNXTM                    SCAN NEXT MEMBER IN DIR
 GPWLFLAG.GPWLLDMD 04 ONES          2335             =     FLAG  GPWLLDMD                    OS/LOAD MODULE PDS
 GPWLFLAG.GPWLLIST 02 ONES          2340             =     FLAG  GPWLLIST                    LIST OF MEMBERS IN INCLUDE, ETC
 GPWLFLAG.GPWLMORE 01 ONES          2345             =     FLAG  GPWLMORE                    UNUSED, MORE LIB FLAGS TO COME?
                                    2350             =*
                                    2351             =*  FILE INFO WORD
                                    2352             =*
 0000B8                             2353             =GPWUINFO DS    0F                      USER INFO FIELD
 0000B8                             2354             =GPWUIFMT DS    AL1                     FILE FORMAT
                                    2355             =GPWUILIB EQU   GPWUIFMT,X'80',1        LIBRARY
                                    2356             =GPWUILDF EQU   GPWUIFMT,X'40',1        LOADFILE
                                    2357             =GPWUIDA  EQU   GPWUIFMT,X'20',1        KEYED DIRECT ACCESS (URAM)
                                    2358             =GPWUIUND EQU   GPWUIFMT,X'10',1        UNDEFINED (URAM)
                                    2359             =GPWUIVBS EQU   GPWUIFMT,X'08',1        VAR. BLOCKED SPANNED  (URAM)
                                    2360             =GPWUIFLR EQU   GPWUIFMT,X'04',1        LRECL=
                                    2361             =GPWUIFN  EQU   GPWUIFMT,X'01',1        NUMBERED (LRECL ASSUMED)
1VSUB     (VSUB00) (09:50) (22MAR04) ORVYL'S COMMAND PROCESSOR FILE SUBROUTINES                                             Page   17
0D-Loc  Object Code    Addr1 Addr2  Stmt Lv Lineno    Source Statement           (Hibal 5, Asmedit 3.3)  HLASM R4.0  2004/03/22 09.50
+_____  ______ ____    _____ _____  ____ __ ______    ______ _________
0                                   2362             =GPWUIFI  EQU   GPWUIFMT,X'02',1        INTEGER (LRECL ASSUMED)
                                    2363             =GPWUIFE  EQU   GPWUIFMT,X'01',1        EDIT
                                    2364             =GPWUIFV  EQU   GPWUIFMT,X'02',1        VARIABLE
                                    2365             =GPWUIMSK EQU   GPWUIFMT,X'7F',1        FORMAT MASK
 0000B9                             2366             =         DS    AL1                     RESERVED
 0000BA                             2367             =GPWUILRC DS    AL2                     FILE LRECL
                                    2368             =
                                    2369             =GPWMAXBS EQU   X'02000'                MAXIMUM BLOCKSIZE, 8K
                                    2370             =
 0000BC                             2371             =GPWBLKSZ DS    AL2                     File Block Size
 0000C0                             2372             =GPWBN    DS    A                       NUMBER OF NEXT BLOCK
00000C4                             2374             =GPWFILN  DS    CL44
                                    2375             =GPWFGRP  EQU   GPWFILN+4,2,C'C'        GROUP
                                    2376             =GPWFUSR  EQU   GPWFILN+7,3,C'C'        USER
                                    2377             =GPWFNAM  EQU   GPWFILN+11,33,C'C'
 0000F0                000F0 000C4  2378             =         ORG   GPWFILN                 OVERLAP OSFPB
1VSUB     (VSUB00) (09:50) (22MAR04) ORVYL'S COMMAND PROCESSOR FILE SUBROUTINES                                             Page   18
0D-Loc  Object Code    Addr1 Addr2  Stmt Lv Lineno    Source Statement           (Hibal 5, Asmedit 3.3)  HLASM R4.0  2004/03/22 09.50
+_____  ______ ____    _____ _____  ____ __ ______    ______ _________
0                                   2380             =         COPY  OSFPB                   COPY IN FILE PARAMETER BLOCK
                                    2381             =*
                                    2382             =*  OS FILE PARAMETER BLOCK
                                    2383             =*
 0000C4                             2384             =OSFPBDS  DS    0F
 0000C4                             2385             =OSFDSN   DS    CL44                    DSNAME
 0000F0                             2386             =OSFMEM   DS    CL8                     MEMBER NAME
 0000F8                             2387             =OSFVOL   DS    CL6                     VOLUME ID
                                    2388             =
 0000FE 00                          2389             =OSFFDISP FLAG  ,                       DATA SET DISPOSITION FLAGS
 OSFFDISP.OSFNEW   C0 ONES          2393             =         FLAG  (OSFNEW,X'C0')          NEW DS
 OSFFDISP.OSFMOD   80 ONES          2402             =         FLAG  (OSFMOD,X'80')          MOD DS
 OSFFDISP.OSFOLD   40 ONES          2411             =         FLAG  (OSFOLD,X'40')          OLD DS
 OSFFDISP.OSFSHR   08 ONES          2420             =         FLAG  (OSFSHR,X'08')          SHARE (IMPLIES OLD)
 OSFFDISP.OSFIDSP  37 NZ            2429             =         FLAG  (OSFIDSP,X'37',NZ)      DISPOSITION RESERVED BITS
                                    2439             =
 0000FF 00                          2440             =OSFDSORG FLAG  ,                       DATA SET ORGANIZATION FLAGS
 OSFDSORG.OSFPS    40 ONES          2444             =         FLAG  (OSFPS,X'40')           SEQUENTIAL DATA SET
 OSFDSORG.OSFDA    20 ONES          2453             =         FLAG  (OSFDA,X'20')           DIRECT ACCESS DATA SET
 OSFDSORG.OSFPO    02 ONES          2462             =         FLAG  (OSFPO,X'02')           PARTITIONED DATA SET
 OSFDSORG.OSFIDSG  AD NZ            2471             =         FLAG  (OSFIDSG,X'AD',NZ)      DSORG RESERVED BITS
                                    2481             =
 000100 00                          2482             =OSFRECFM FLAG  ,                       DATA SET FORMAT FLAGS
 OSFRECFM.OSFRCFMU C0 ONES          2486             =         FLAG  (OSFRCFMU,X'C0')        RECFM=U
 OSFRECFM.OSFRCFMF 80 ONES          2495             =         FLAG  (OSFRCFMF,X'80')        RECFM=F
 OSFRECFM.OSFRCFMV 40 ONES          2504             =         FLAG  (OSFRCFMV,X'40')        RECFM=V
 OSFRECFM.OSFRCFMB 10 ONES          2513             =         FLAG  (OSFRCFMB,X'10')        RECFM=?B
 OSFRECFM.OSFRCFMS 08 ONES          2522             =         FLAG  (OSFRCFMS,X'08')        RECFM=?S
 OSFRECFM.OSFRCFMA 04 ONES          2531             =         FLAG  (OSFRCFMA,X'04')        RECFM=?A
 OSFRECFM.OSFRCFMM 02 ONES          2540             =         FLAG  (OSFRCFMM,X'02')        RECFM=?M
 OSFRECFM.OSFIRCFM 21 NZ            2549             =         FLAG  (OSFIRCFM,X'21',NZ)     RESERVED RECFM BITS
                                    2559             =
 000101                             2560             =OSFKEY   DS    X                       KEY LENGTH
 000102                             2561             =OSFLRECL DS    H                       LRECL
 000104                             2562             =OSFBLKSZ DS    H                       BLOCKSIZE
                                    2563             =
 000106 00                          2564             =OSFSPTYP FLAG  ,                       SPACE FLAGS
 OSFSPTYP.OSFSPCYL C0 ONES          2568             =         FLAG  (OSFSPCYL,X'C0')        CYLINDER ALLOCATION
 OSFSPTYP.OSFSPTRK 80 ONES          2577             =         FLAG  (OSFSPTRK,X'80')        TRACK ALLOCATION
 OSFSPTYP.OSFSPBLK 40 ONES          2586             =         FLAG  (OSFSPBLK,X'40')        BLOCK ALLOCATION
 OSFSPTYP.OSFSPCON 08 ONES          2595             =         FLAG  (OSFSPCON,X'08')        CONTIG
 OSFSPTYP.OSFSPMXG 04 ONES          2604             =         FLAG  (OSFSPMXG,X'04')        MAXIMUM CONTIG
 OSFSPTYP.OSFSPRND 01 ONES          2613             =         FLAG  (OSFSPRND,X'01')        ROUND
 OSFSPTYP.OSFISP   32 NZ            2622             =         FLAG  (OSFISP,X'32',NZ)       RESERVED SPACE BITS
                                    2632             =
 000107 00                          2633             =OSFFLAG  FLAG  ,                       MISCELLANY
 OSFFLAG.OSFSPRLS  20 ONES          2637             =         FLAG  (OSFSPRLS,X'20')        RLSE
 OSFFLAG.OSFIN     08 ONES          2646             =         FLAG  (OSFIN,X'08')           WILL READ DATA SET
 OSFFLAG.OSFOUT    04 ONES          2655             =         FLAG  (OSFOUT,X'04')          WILL WRITE DATA SET
 OSFFLAG.OSFUPD    02 ONES          2664             =         FLAG  (OSFUPD,X'02')          WILL UPDATE DATA SET
 OSFFLAG.OSFIFLG   D1 NZ            2673             =         FLAG  (OSFIFLG,X'D1',NZ)      RESERVED MISC BITS
                                    2683             =
 000108                             2684             =OSFSPQTY DS    F                       PRIMARY ALLOCATION QUANTITY
 00010C                             2685             =OSFSSQTY DS    F                       SECONDARY ALLOCATION QUANTITY
 000110                             2686             =OSFSDBLK DS    H                       NUMBER OF DIRECTORY BLOCKS
 000112                             2687             =OSFLIMCT DS    H                       LIMIT COUNT ON DA SEARCH
1VSUB     (VSUB00) (09:50) (22MAR04) ORVYL'S COMMAND PROCESSOR FILE SUBROUTINES                                             Page   19
0D-Loc  Object Code    Addr1 Addr2  Stmt Lv Lineno    Source Statement           (Hibal 5, Asmedit 3.3)  HLASM R4.0  2004/03/22 09.50
+_____  ______ ____    _____ _____  ____ __ ______    ______ _________
0                                   2688             =
 000114                             2689             =         DS    22X                     RESERVED
                                    2690             =
                                    2691             =OSFPB    EQU   OSFPBDS,*-OSFPBDS
 00012A                0012A 0012A  2692             =         ORG   ,
                                    2693             =GPWFCB   EQU   GPWFILE,*-GPWFILE,C'X'  LENGTH OF FILE BLOCK
1VSUB     (VSUB00) (09:50) (22MAR04) ORVYL'S COMMAND PROCESSOR FILE SUBROUTINES                                             Page   20
0D-Loc  Object Code    Addr1 Addr2  Stmt Lv Lineno    Source Statement           (Hibal 5, Asmedit 3.3)  HLASM R4.0  2004/03/22 09.50
+_____  ______ ____    _____ _____  ____ __ ______    ______ _________
0                                   2695             =* ALTERNATE FILE CONTROL BLOCK
                                    2696             =*
 00012C                             2697             =         DS    0F                      ALIGNMENT CHECK
 00012C                             2698             =GPWAFILE DS    0XL(L'GPWFCB)           ALTERNATE FILE CONTROL
 00012C                             2699             =GPWAFFL  DS    X                       ALTERNATE FILE FLAGS
 00012D                             2700             =GPWAFID  DS    X                       ALTERNATE FILE ID
 00012E                             2701             =GPWAFNL  DS    X                       ALTERNATE FILE NAME LEN
 00012F                             2702             =GPWALMNL DS    X                       ALTERNATE MEMBER LENGTH
 000130                             2703             =GPWALMN  DS    CL8                     ALTERNATE MEMBER NAME
 000138                             2704             =GPWALMN2 DS    CL8                     ALTERNAME MEMBER NAME2 (ALIAS)
 000140                             2705             =GPWALMF1 DS    X                       ALTERNATE MEMBER F1
 000141                             2706             =GPWALMF2 DS    X                       ALTERNATE MEMBER F2 FLGS
 000144                             2707             =GPWAMFBN DS    A                       ALTERNATE MEMBER FRST BLK
 000148                             2708             =GPWAMBCT DS    A                       ALTERNATE MEMBER # BLK'S
 00014C                             2709             =GPWAMLBN DS    A                       ALTERNATE MEMBER LST BLK
 000150                             2710             =GPWANXTA DS    A                       ALTERNATE NEXT ADDRESS
 000154                             2711             =GPWAFLG  DS    X                       ALTERNATE LIBRARY FLAGS
 000158                             2712             =GPWAUINF DS    A                       ALTERNATE FILE USER INFO
 00015C                             2713             =GPWABKSZ DS    AL2                     ALTERNATE File Block Size
 000160                             2714             =GPWABN   DS    A                       ALTERNATE FILE BLK #
 000164                             2715             =GPWAFN   DS    CL44                    ALTERNATE FILE NAME
 000190                00190 001CA  2716             =         ORG   GPWAFILE+L'GPWFCB
 0001CC                             2717             =GPWHCNT  DS    F                       COUNT OF HYBRID FILE BLOCKS
 0001D0                             2718             =GPWDELTA DS    F                       WYLBUR LINE NUMBER DELTA
                                    2719             =GPWWRK   EQU   GPWSTART,*-GPWSTART     CLEARED WORK AREA
-
                                    2721             =GPWTST   EQU   *                       1024 BYTE MAXIMUM LENGTH
 0001D4                001D4 00800  2722             =         ORG   GPWSTART+2*1024         PUT HEX BUFFER AT END
 000800                             2723             =         DC    0Y(*-GPWTST)            ASSEMBLY ERROR IF OVERFLOW
 000800                             2724             =GPWHXBUF DS    XL2048                  I/O BUFFER FOR HEX OPERATIONS
 001000                             2725             =GPWBUF   DS    XL8192                  GENERAL I/O BUFFER
                                    2726             =GPW      EQU   GPWSTART,*-GPWSTART,C'X'
1VSUB     (VSUB00) (09:50) (22MAR04) ORVYL'S COMMAND PROCESSOR FILE SUBROUTINES                                             Page   21
0D-Loc  Object Code    Addr1 Addr2  Stmt Lv Lineno    Source Statement           (Hibal 5, Asmedit 3.3)  HLASM R4.0  2004/03/22 09.50
+_____  ______ ____    _____ _____  ____ __ ______    ______ _________
0                                   2729      59.              COPY  PRGCAT                  COPY PROGRAM CATALOG FMT
 000000                00000 0000C  2730             =PRGCAT   DSECT
 000000                             2731             =PCATPTR  DS    A                       POINTER TO START OF CATALOG
 000004                             2732             =PCATEND  DS    A                       POINTER TO END OF CATALOG
 000008                             2733             =PCATSTRT DS    F                       PROGRAM CATALOG STARTS HERE
-                                   2735      61.              COPY  DENTRY                  COPY DIRECTORY ENTRY FMT
                                    2736             =* LIBRARY DIRECTORY ENTRY
                                    2737             =*
 000000                00000 00010  2738             =DENTRY   DSECT
 000000                             2739             =DNAME    DS    CL8
 000008                             2740             =DALINAM  DS    CL8                     MEMBER NAME IF ALIAS
                                    2741             =DALICD   EQU   C' '                    ALIAS IF HIGHER THAN THIS
                                    2742             =
 000010                00010 00008  2743             =         ORG   DALINAM
 000008                             2744             =DFLG1    DS    X
                                    2745             =*        EQU   X'80'                    DON'T USE
                                    2746             =*        EQU   X'40'                   DON'T USE
                                    2747             =DFL1SHR  EQU   X'20'                   PROGRAM IS SHARABLE
                                    2748             =DFL1REF  EQU   X'10'                   MODULE IS PROTECTED(REFRESHABLE)
                                    2749             =DFL1PRV  EQU   X'08'                   MODULE IS PRIVATE
                                    2750             =DFL1M31  EQU   X'04'                   START IN 31 BIT MODE
                                    2751             =DFL1PAG  EQU   X'01'                   MODULE REQUIRES PAGE ALIGNMENT
                                    2752             =
 000009                             2753             =DFLG2    DS    X
                                    2754             =DFLGS    EQU   DFLG1,*-DFLG1
 00000A                             2755             =DFBN     DS    AL3                     FIRST BLOCK NUMBER
 00000D                             2756             =DBCT     DS    AL3                     BLOCK COUNT
 000010                             2757             =DNEXT    DS    0F
                                    2758             =DFLD     EQU   DFLG1,*-DFLG1
                                    2759             =DENTSIZ  EQU   *-DENTRY
-                                   2761      63.              COPY  DIRB                    COPY DIRECTORY BLOCK FMT
                                    2762             =*  LIBRARY DIRECTORY BLOCK
                                    2763             =*
 000000                00000 00800  2764             =DIRB     DSECT
 000000                             2765             =DIRBLINK DS    A                       BLOCK NUMBER OF NEXT DIRB
 000004                             2766             =DIRBBNUM DS    A                       NUMBER OF THIS DIRB
 000008                             2767             =         DS    2A                      ***RESERVED***
 000010                             2768             =DIRBDENT DS    127CL(DENTSIZ)          DIRECTORY ENTRIES
                                    2769             =DIRBLEN  EQU   *-DIRB                  LENGTH OF DIRB
1VSUB     (VSUB00) (09:50) (22MAR04) ORVYL'S COMMAND PROCESSOR FILE SUBROUTINES                                             Page   22
0D-Loc  Object Code    Addr1 Addr2  Stmt Lv Lineno    Source Statement           (Hibal 5, Asmedit 3.3)  HLASM R4.0  2004/03/22 09.50
+_____  ______ ____    _____ _____  ____ __ ______    ______ _________
0000015                00000 02D08  2771      65.     VSUB     CSECT ,                       RESUME CONTROL SECTION
0USING  CLW,R10                     2774      67.              USING CLW,CLWR                ##
 USING  GPW,R12                     2783      68.              USING GPW,GPWR                ##
 USING  FSUB#COM,R6                 2792      69.              USING FSUB#COM,BRR            ## ADDR FOR COMMON ROUTINES
                                    2802      71.              FSCALL FSUB#1                 GENERATE SEGMENT 1
 000016                             2803    01-FSCAL +FSUB#1   DS    0H
 000016 0D70                        2806    02-BASE  +         BASR  7,0
 000018                             2809    04-00068 +$$$42B       DS 0X
 USING  *,R7                        2816    04-00180 +       $$USING $$$42B,7
 000018 5855 7008            00020  2818    01-FSCAL +         L     FSUBR,FSUB#1L(FSUBR)    GET ROUTINE ADDRESS
 00001C 07F5                        2819    01-FSCAL +         BR    FSUBR                   ENTER ROUTINE
 00001E 0700                        2820    01-FSCAL +         CNOP  0,4                     ALIGNMENT
 000020                             2821    01-FSCAL +FSUB#1L  DS    0H
 000020 00000044                    2822    01-FSCAL +         DC    A(FILSETUP)
 000024 000000A6                    2823    01-FSCAL +         DC    A(FNINIT)
 000028 000000C2                    2824    01-FSCAL +         DC    A(ATTNEW)
 00002C 00000108                    2825    01-FSCAL +         DC    A(ATTOLD)
 000030 0000012E                    2826    01-FSCAL +         DC    A(ATTOLDE)
 000034 000000E0                    2827    01-FSCAL +         DC    A(ATTOLDX)
 000038 00000290                    2828    01-FSCAL +         DC    A(CHECKOS)
 00003C 000002EC                    2829    01-FSCAL +         DC    A(ATTOUTOS)
 000040 00000380                    2830    01-FSCAL +         DC    A(DETACH)
1VSUB     (VSUB00) (09:50) (22MAR04) ORVYL'S COMMAND PROCESSOR FILE SUBROUTINES                                             Page   23
0Current Usings:  (FSUB#COM,R6) (*,R7) (CLW,R10) (GPW,R12)
0Loc    Object Code    Addr1 Addr2  Stmt Lv Lineno    Source Statement           (Hibal 5, Asmedit 3.3)  HLASM R4.0  2004/03/22 09.50
+___    ______ ____    _____ _____  ____ __ ______    ______ _________
0000044                             2833      74.     FILSETUP LABEL ,
 000044 58C0 A254            00254  2835      75.              L     GPWR,CLWGPWP            ADDRESS OF GET/PUT WRK PGE
 000048 9140 A208      00208        2836      76.              IF    CLWFGPW,BEGIN           PAGE ALREADY ALLOCATED
 00004C 47E0 704C            00064  2846             +
 000050 58F0 C044/12FF       00044  2851  1   77.                LT    R15,GPWDIRAL            ANY DIRECTORY SPACE ?
 000056 4780 704C            00064  2855  1   78.                IF    NZ,BEGIN                FREE EXISTING DIR CORE
 00005A 5810 C040            00040  2866  2   79.                  L     R1,GPWDIRAP             POINT TO DIRECTORY CORE
 00005E 5890 7380/0D99       00398  2867  2   80.                  FREECLW (1),(15)              FREE DIRECTORY CORE
 000064                             2882  1   81.                END   ,
 000064 7050           00064 0004E  2886      82.              END   ELSE,BEGIN
 000064 47F0 706A            00082  2895             +
 000068 5810 7384            0039C  2901  1   83.                L     R1,=A(L'GPW)            GPW LENGTH
 00006C 18F1/5890 7388       003A0  2902  1   84.                GETCLW (1),(1)                GET GPW CORE
 000072 0D99                        2917  1          +
 000074 4770 60D2            02284  2918  1   85.                IF    NZ,FSNOCORE             NOT ENOUGH, GIVE UP
 000078 18C1                        2932  1   86.                LR    GPWR,R1                 SET BASE FOR GPW
 00007A 5010 A254            00254  2933  1   87.                ST    R1,CLWGPWP              SET GP WORK ADDRESS
 00007E 9640 A208      00208        2934  1   88.                SET   CLWFGPW                 GP WORK AREA OBTAINED
 000082                             2940      89.              END   ,
0000082 180C                        2945      91.              LR    R0,GPWR                 CLEAR GPW TO ZEROS
 000084 4110 01D4            001D4  2946      92.              LA    R1,L'GPWWRK             LENGTH TO CLEAR
 000088 1B33                        2947      93.              CLEAR TR                      ZERO FROM LENGTH
 00008A 0E02                        2951      94.              MVCL  R0,SR                   ZERO PAD WORK AREA
000008C 9680 C000      00000        2953      96.              SET   GPWFFREE                FREE CORE AT EXIT
 000090 D202 C013 A3B3 00013 003B3  2959      97.              MVC   GPWSUSER,CLWUSER        DFLT SIGNED-ON USER
 000096 D201 C016 A3B0 00016 003B0  2960      98.              MVC   GPWSGRP,CLWGROUP        DFLT SIGNED-ON GROUP
 00009C 5810 738C            003A4  2961      99.              L     R1,=A(GPWBUF-GPWSTART)  GENERAL BUFFER OFFSET
 0000A0 1E1C                        2962     100.              ALR   R1,GPWR                 ADDRESS OF GENERAL BUFFER
 0000A2 5010 C038            00038  2963     101.              ST    R1,GPWBUFA              SET BUFFER ADDRESS IN GPW
0                                   2965     103.     * FALL INTO FNINIT CODE
                                    2966     104.     *
00000A6                             2968     106.     FNINIT   LABEL ,
 0000A6                             2970     107.              CLEAR GPWBN                   CLEAR NEXT BLOCK NUMBER
 0000A6 D703 C0C0 C0C0 000C0 000C0  2976             +
 0000AC                             2977     108.              CLEAR (GPWPFFL,3)             CLEAR FLAGS IN GP FCB
 0000AC D702 C08C C08C 0008C 0008C  2983             +
 0000B2 D20B C054 7390 00054 003A8  2984     109.              MVC   GPWFFN(L'PFX+1),=C'ORV.  .   . '
 0000B8 D22B C060 C05F 00060 0005F  2985     110.              MVC   GPWFN+1(L'GPWFN),GPWFN  BLANK FILL
 0000BE 47F0 6062            02214  2986     111.              B     FSUB0                   EXIT, RC=0
1VSUB     (VSUB00) (09:50) (22MAR04) ORVYL'S COMMAND PROCESSOR FILE SUBROUTINES                                             Page   24
0Current Usings:  (FSUB#COM,R6) (*,R7) (CLW,R10) (GPW,R12)
0Loc    Object Code    Addr1 Addr2  Stmt Lv Lineno    Source Statement           (Hibal 5, Asmedit 3.3)  HLASM R4.0  2004/03/22 09.50
+___    ______ ____    _____ _____  ____ __ ______    ______ _________
0                                   2988     113.     *
                                    2989     114.     *  ATTACH ROUTINES
                                    2990     115.     *
                                    2991     116.     *  THERE  ARE ATTACH ROUTINES FOR BOTH ORVYL AND OS/FILES.
                                    2992     117.     *  ORVYL FIRST.
                                    2993     118.     *
                                    2994     119.     *
 0000C2                             2995     120.     ATTNEW   LABEL ,                       ATTACH NEW
 0000C2 9108 C08C      0008C        2997     121.              IF    GPWFVOSF,NOVOSF         NO OS NEW ATTACH, SEE ATTOUTOS
 0000C6 4710 626C            0241E  3009             +
 0000CA 4100 0002            00002  3015     122.              ATTACH 2,GPWFILN,IC:GPWFNL
 0000CE 4110 C0C4/1FFF       000C4  3029             +
 0000D4 43F0 C08E/1BEE       0008E  3038             +
 0000DA 0AF9                        3045             +
 0000DC 47F0 7136            0014E  3047     123.              B     ATTCOM
                                    3048     124.
 0000E0                             3049     125.     ATTOLDX  LABEL ,                       MARK SHARED ATTACH
 0000E0 9108 C08C      0008C        3051     126.              IF    GPWFVOSF,OSATTSHR       O.S FILE ATTACH ->
 0000E4 4710 7210            00228  3063             +
 0000E8 9640 C08C      0008C        3069     127.              SET   GPWFSHR
 0000EC 1BEE                        3075     128.              CLEAR R14
 0000EE 06E0                        3079     129.              BCTR  R14,0                   DON'T UPDATE ACCESS DATE
 0000F0 4100 0002            00002  3080     130.              ATTACH 2,GPWFILN,IC:GPWFNL,(R14),MODE=(OLD,SHARE)
 0000F4 4110 C0C4/1311       000C4  3094             +
 0000FA 1FFF/43F0 C08E       0008E  3103             +
 000100 13FF/0AF9                   3106             +
 000104 47F0 7136            0014E  3114     131.              B     ATTCOM
                                    3115     132.
 000108                             3116     133.     ATTOLD   LABEL ,                       MARK SHARED ATTACH
 000108 9108 C08C      0008C        3118     134.              IF    GPWFVOSF,OSATTSHR       O.S FILE ATTACH ->
 00010C 4710 7210            00228  3130             +
 000110 9640 C08C      0008C        3136     135.              SET   GPWFSHR
 000114 4100 0002            00002  3142     136.              ATTACH 2,GPWFILN,IC:GPWFNL,MODE=(OLD,SHARE)
 000118 4110 C0C4/1311       000C4  3156             +
 00011E 1FFF/43F0 C08E       0008E  3165             +
 000124 13FF/1BEE/0AF9              3168             +
 00012A 47F0 7136            0014E  3176     137.              B     ATTCOM
                                    3177     138.
 00012E                             3178     139.     ATTOLDE  LABEL ,                       MARK EXCLUSIVE ATTACH
 00012E 9108 C08C      0008C        3180     140.              IF    GPWFVOSF,OSATOLDE       OS/FILE ATTACH ->
 000132 4710 721C            00234  3192             +
 000136 94BF C08C      0008C        3198     141.              CLEAR GPWFSHR
 00013A 4100 0002            00002  3205     142.              ATTACH 2,GPWFILN,IC:GPWFNL,MODE=(OLD)
 00013E 4110 C0C4/1FFF       000C4  3219             +
 000144 43F0 C08E/13FF       0008E  3228             +
 00014A 1BEE/0AF9                   3234             +
                                    3238     143.
 00014E 47FF 7146            0015E  3239     144.     ATTCOM   B     *+16(15)
 000152 47F0 61A2            02354  3240     145.              B     NOFILSYS                -12 FILE SYSTEM NOT AVAILABLE
 000156 47F0 6118            022CA  3241     146.              B     ILLNAME                 -8 ILLEGAL DEVICE (NAME?)
 00015A 47F0 61CA            0237C  3242     147.              B     TOOMANY                 -4 TOO MANY DEVICES ALREADY
 00015E 47F0 7156            0016E  3243     148.              B     ATTWAIT                  0 ATTACH STARTED
 000162 47F0 62B0            02462  3244     149.              B     ISATT                    4 RECURSIVE ATTACH
 000166 47F0 62B0            02462  3245     150.              B     ISATT                    8 ALREADY ATTACHED
1VSUB     (VSUB00) (09:50) (22MAR04) ORVYL'S COMMAND PROCESSOR FILE SUBROUTINES                                             Page   25
0Current Usings:  (FSUB#COM,R6) (*,R7) (CLW,R10) (GPW,R12)
0Loc    Object Code    Addr1 Addr2  Stmt Lv Lineno    Source Statement           (Hibal 5, Asmedit 3.3)  HLASM R4.0  2004/03/22 09.50
+___    ______ ____    _____ _____  ____ __ ______    ______ _________
000016A 47F0 62B0            02462  3246     151.              B     ISATT                   12 ALREADY ATTACHED
 00016E 0AF2                        3247     152.     ATTWAIT  WAIT  (0)
 000170 47FF 7160            00178  3256     153.              B     *+8(15)
 000174 47F0 620C            023BE  3257     154.              B     ATTEXCLU                -4 FILE UNAVAILABLE
 000178 47F0 7184            0019C  3258     155.              B     ATTCOMP                  0 ATTACH COMPLETE
 00017C 47F0 63AC            0255E  3259     156.              B     NOACCESS                 4 ACCESS NOT PERMITTED
 000180 47F0 6248            023FA  3260     157.              B     NOUSPACE                 8 USER SPACE EXHAUSTED
 000184 47F0 623C            023EE  3261     158.              B     NODSPACE                12 FILE DIRECTORY FULL
 000188 47F0 71F8            00210  3262     159.              B     TRYNEW                  16 FILE NOT THERE
 00018C 47F0 621E            023D0  3263     160.              B     EXISTS                  20 FILE ALREADY THERE
 000190 47F0 6200            023B2  3264     161.              B     OFLOW                   24 SYSTEM TABLES OVERFLOWED
 000194 47F0 623C            023EE  3265     162.              B     NODSPACE                28 NO MORE DISK SPACE
 000198 47F0 61E2            02394  3266     163.              B     SHRONLY                 32 FILE ATTACHABLE ONLY SHARE
                                    3267     164.
 00019C 9680 C08C      0008C        3268     165.     ATTCOMP  SET   GPWFATT                 MARK FILE ATTACHED
 0001A0 4200 C08D            0008D  3275     166.              STC   R0,GPWFID                 SAVE ID
 0001A4 4D90 602A/08B0       021DC  3276     167.              FSCALL SENBLKSZ               Get Blocksize
 0001AA 4010 C0BC            000BC  3280     168.              STH   R1,GPWBLKSZ              Save it
 0001AE 94EF C002      00002        3281     169.              CLEAR GPWFNIXR,GPWFHYBR       ASSUME NORMAL MODE
 0001B2 94F7 C002      00002        3292             +
 0001B6 4D90 602A/08AC       021DC  3293     170.              FSCALL SENMODE                WHICH IS IT?
 0001BC 4780 71C2            001DA  3297     171.              IF    NZ,BEGIN
 0001C0 9610 C002      00002        3308  1  172.                SET   GPWFNIXR                NON-IXR'ED
 0001C4 59F0 739C            003B4  3314  1  173.                IF    (R15,EQ,28),BEGIN       HYBRID
 0001C8 4770 71C2            001DA  3326  1          +
 0001CC 9608 C002      00002        3331  2  174.                  SET   GPWFHYBR                HYBRID FILE TYPE
 0001D0 4D90 602A/08B4       021DC  3337  2  175.                  FSCALL SENNRECH               GET NUMBER OF IXRs
 0001D6 50E0 C1CC            001CC  3341  2  176.                  ST    R14,GPWHCNT             SAVE IXR COUNT
 0001DA                             3342  1  177.                END   ,
 0001DA                             3346     178.              END   ,
 0001DA 9610 C08C      0008C        3350     179.              SET   GPWFFMT                 ASSUME FORMAT
 0001DE 9110 C001      00001        3356     180.              IF    ~GPWFNSF,'FSCALL SENUINFO'    GET FORMAT IF NECC
 0001E2 4710 71D4            001EC  3366             +
 0001E6 4D90 602A/0834       021DC  3374             +
 0001EC 4780 71DE            001F6  3380     181.              IF    NZ,BEGIN               IS A FORMAT
 0001F0 94EF C08C      0008C        3391  1  182.                CLEAR GPWFFMT                 CAN'T WIN THEM ALL
 0001F4 1B11                        3398  1  183.                CLEAR R1
 0001F6                             3402     184.              END   ,
 0001F6 5010 C0B8            000B8  3406     185.              ST    R1,GPWUINFO             SET FORMAT INFO
 0001FA 9140 C08C      0008C        3407     186.              IF    GPWFSHR,FSUB0           SCKIP CHECK IF SHARE
 0001FE 4710 6062            02214  3419             +
 000202 4D90 602A/083C       021DC  3425     187.              FSCALL DOSENCLP               SENSE CLP ACCESS
 000208 4770 6254            02406  3429     188.              BNZ   NOCLPACC                SORRY...
 00020C 47F0 6062            02214  3430     189.              B     FSUB0                   RETURN TO CALLER
                                    3431     190.
 000210                             3432     191.     TRYNEW   LABEL ,                       OLD FILE NOT THERE
 000210 9140 C001      00001        3434     192.              IF    GPWFNOE,FSUBX           FORGIVE AND FORGET?(CALL)
 000214 4710 6064            02216  3446             +
 000218 9120 C001      00001        3452     193.              IF    ~GPWFANW,NOTHERE        TRY NEW? (PUT AND LOADFILE)
 00021C 47E0 61EE            023A0  3464             +
 000220 9620 C08C      0008C        3470     194.              SET   GPWFNEW                 SET NEW FILE
 000224 47F0 70AA            000C2  3476     195.              B     ATTNEW                  ONCE MORE, ONCE
1VSUB     (VSUB00) (09:50) (22MAR04) ORVYL'S COMMAND PROCESSOR FILE SUBROUTINES                                             Page   26
0Current Usings:  (FSUB#COM,R6) (*,R7) (CLW,R10) (GPW,R12)
0Loc    Object Code    Addr1 Addr2  Stmt Lv Lineno    Source Statement           (Hibal 5, Asmedit 3.3)  HLASM R4.0  2004/03/22 09.50
+___    ______ ____    _____ _____  ____ __ ______    ______ _________
0                                   3478     197.     *
                                    3479     198.     * ATTACH OS/FILES
                                    3480     199.     *  FIRST WE DO EXISTING, INPUT FILES.  IE ATTACH OLD
                                    3481     200.     *  THEN WE DO OUTPUT FILE ATTACHES.  ROUTINES FOLLOW
                                    3482     201.     *
                                    3483     202.     *
                                    3484     203.     *  ATTACH FOR INPUT
                                    3485     204.     *
                                    3486     205.     *
 000228                             3487     206.     OSATTSHR LABEL ,                       OS/FILE ATTACH
 000228 9640 C08C      0008C        3489     207.              SET   GPWFSHR
 00022C 9608 C0FE      000FE        3495     208.              SET   OSFSHR
 000230 47F0 7228            00240  3501     209.              B     ATTACHOS
0000234                             3503     211.     OSATOLDE LABEL ,                       EXCLUSIVE OS FILE ATTACH
 000234 94BF C08C      0008C        3505     212.              CLEAR GPWFSHR
 000238 9640 C0FE      000FE        3512     213.              SET   OSFOLD
 00023C 9608 C107      00107        3518     214.              SET   OSFIN
                                    3524     215.     *        B     ATTACHOS                PISTACHIOS
0000240 4100 0003            00003  3526     217.     ATTACHOS ATTACH 3,OSFPB,L'OSFPB,MODE=(RETURN,FULLDSN) ATTACH OS
 000244 4110 C0C4/1311       000C4  3540             +
 00024A 41F0 0066/13FF       00066  3548             +
 000250 1BEE/0AF9                   3553             +
 000254 4770 6278            0242A  3557     218.              BNZ   HOTERROS
 000258 0AF2                        3558     219.              WAIT  (0)
 00025A 4770 6266            02418  3566     220.              BNZ   ERROS                   ATTACH ERROR
 00025E 9680 C08C      0008C        3567     221.              SET   GPWFATT                 MARK ATTACHED, SAVE ID
 000262 4200 C08D            0008D  3573     222.              STC   R0,GPWFID
 000266 4820 C104            00104  3574     223.              LH    SR,OSFBLKSZ
 00026A 4920 C102            00102  3575     224.              IF    (('CH SR,OSFLRECL',E),AND,OSFRCFMU),'SET GPWOSFED'
 00026E 4770 7266            0027E  3585             +
 000272 91C0 C100      00100        3596             +
 000276 47E0 7266            0027E  3597             +
 00027A 9604 C08C      0008C        3608             +
 00027E 9610 C08C      0008C        3613     225.              SET   GPWFFMT                 SET FILE FORMAT
 000282 4D90 602A/0834       021DC  3619     226.              FSCALL SENUINFO
 000288 5010 C0B8            000B8  3623     227.              ST    R1,GPWUINFO
 00028C 47F0 6062            02214  3624     228.              B     FSUB0                   DONE
1VSUB     (VSUB00) (09:50) (22MAR04) ORVYL'S COMMAND PROCESSOR FILE SUBROUTINES                                             Page   27
0Current Usings:  (FSUB#COM,R6) (*,R7) (CLW,R10) (GPW,R12)
0Loc    Object Code    Addr1 Addr2  Stmt Lv Lineno    Source Statement           (Hibal 5, Asmedit 3.3)  HLASM R4.0  2004/03/22 09.50
+___    ______ ____    _____ _____  ____ __ ______    ______ _________
0                                   3626     230.     *
                                    3627     231.     *  CHECK OUT OS FILE
                                    3628     232.     *
                                    3629     233.     *  MINUS RETURN IF FILE DOES NOT EXIST.   IF FILE EXISTS,
                                    3630     234.     *  WE FILL THE OSFPB AND SET THE FILE INFO WORD.   WE NOTE,
                                    3631     235.     *  THIS MUST BE CALLED BEFORE THE ATTACH, BUMMER CITY.
                                    3632     236.     *
 000290                             3633     237.     CHECKOS  LABEL ,
 000290 47F0 6298            0244A  3635     238.              B     NOOSFIL2
 000294 4100 0001            00001  3636     238.1             SERVICE 1,OSFPB,L'OSFPB,MODE=FULLDSN
 000298 4110 C0C4/1311       000C4  3650             +
 00029E 41F0 0066/0AF0       00066  3658             +
 0002A4 4770 6278            0242A  3665     239.              BNZ   HOTERROS
 0002A8 0AF2                        3666     240.              WAIT  (0)
 0002AA 59F0 73A0            003B8  3674     241.              IF    (R15,EQ,8),BEGIN        FILE DOES NOT EXIST
 0002AE 4770 72A4            002BC  3686             +
 0002B2 41F0 0004            00004  3691  1  242.                LA    R15,4
 0002B6 13FF                        3692  1  243.                LCR   R15,R15
 0002B8 47F0 6064            02216  3693  1  244.                B     FSUBX
 0002BC                             3694     245.              END   ,
 0002BC 12FF                        3698     246.              LTR   R15,R15
 0002BE 4770 6266            02418  3699     247.              BNZ   ERROS
 0002C2 4820 C104            00104  3700     248.              LH    SR,OSFBLKSZ
 0002C6 4920 C102            00102  3701     249.              IF    (('CH SR,OSFLRECL',E),AND,OSFRCFMU),'SET GPWOSFED'
 0002CA 4770 72C2            002DA  3711             +
 0002CE 91C0 C100      00100        3722             +
 0002D2 47E0 72C2            002DA  3723             +
 0002D6 9604 C08C      0008C        3734             +
 0002DA 9610 C08C      0008C        3739     250.              SET   GPWFFMT                 SET FILE FORMAT
 0002DE 4D90 602A/0834       021DC  3745     251.              FSCALL SENUINFO
 0002E4 5010 C0B8            000B8  3749     252.              ST    R1,GPWUINFO
 0002E8 47F0 6062            02214  3750     253.              B     FSUB0                   DONE
1VSUB     (VSUB00) (09:50) (22MAR04) ORVYL'S COMMAND PROCESSOR FILE SUBROUTINES                                             Page   28
0Current Usings:  (FSUB#COM,R6) (*,R7) (CLW,R10) (GPW,R12)
0Loc    Object Code    Addr1 Addr2  Stmt Lv Lineno    Source Statement           (Hibal 5, Asmedit 3.3)  HLASM R4.0  2004/03/22 09.50
+___    ______ ____    _____ _____  ____ __ ______    ______ _________
0                                   3752     255.     *
                                    3753     256.     *  ATTACH OS/FILE FOR OUTPUT
                                    3754     257.     *
                                    3755     258.     *  NOTE UNLESS SET EXTERNALLY THE DISP= FIELD WILL DEFAULT TO NEW.
                                    3756     259.     *  OTHER OSFPB OPTIONS ARE SET THE BEST THEY CAN.
                                    3757     260.     *
                                    3758     261.     *
 0002EC                             3759     262.     ATTOUTOS LABEL ,                       ATTACH FOR OUTPUT
 0002EC 9604 C107      00107        3761     263.              SET   OSFOUT                  OUTPUT
 0002F0 5890 73A4/0D99       003BC  3767     264.              VCALL SETFMT                  GET FILE INFO
 0002F6 9500 C0FF      000FF        3771     265.              CLI   OSFDSORG,X'00'          IF DSORG NOT SET, SET IT
 0002FA 4770 72FA            00312  3772     266.              IF    E,BEGIN
 0002FE 9180 C0B8      000B8        3783  1  267.                IF    GPWUILIB,' SET OSFPO '            PDS
 000302 47E0 72F2            0030A  3793  1          +
 000306 9602 C0FF      000FF        3804  1          +
 00030A 72F6           0030A 00304  3809  1  268.                ELSE  'SET OSFPS'             SEQUENTIAL
 00030A 47F0 72FA            00312  3814  1          +
 00030E 9640 C0FF      000FF        3826  1          +
 000312                             3831     269.              END   ,
 000312 D201 C102 C0BA 00102 000BA  3835     270.              MVC   OSFLRECL(2),GPWUILRC
 000318 9104 C0B8      000B8        3836     271.              IF    GPWUIFLR,'SET OSFRCFMF'
 00031C 47E0 730C            00324  3846             +
 000320 9680 C100      00100        3857             +
 000324 9140 C0B8      000B8        3862     272.              IF    GPWUILDF,'SET OSFRCFMU'
 000328 47E0 7318            00330  3872             +
 00032C 96C0 C100      00100        3883             +
                                    3888     273.     *$ NOTE: WE ONLY EXPECT FIXED AND EDIT, OTHERS ARE IN TROUBLE.
 000330 4100 0003            00003  3889     274.              ATTACH 3,OSFPB,L'OSFPB,MODE=(RETURN,FULLDSN) ATTACH OS
 000334 4110 C0C4/1311       000C4  3903             +
 00033A 41F0 0066/13FF       00066  3911             +
 000340 1BEE/0AF9                   3916             +
 000344 4770 6278            0242A  3920     275.              BNZ   HOTERROS
 000348 0AF2                        3921     276.              WAIT  (0)
 00034A 4770 6266            02418  3929     277.              BNZ   ERROS                   ATTACH ERROR
 00034E 9680 C08C      0008C        3930     278.              SET   GPWFATT                 MARK ATTACHED, SAVE ID
 000352 4200 C08D            0008D  3936     279.              STC   R0,GPWFID
 000356 4820 C104            00104  3937     280.              LH    SR,OSFBLKSZ
 00035A 4920 C102            00102  3938     281.              IF    (('CH SR,OSFLRECL',E),AND,OSFRCFMU),'SET GPWOSFED'
 00035E 4770 7356            0036E  3948             +
 000362 91C0 C100      00100        3959             +
 000366 47E0 7356            0036E  3960             +
 00036A 9604 C08C      0008C        3971             +
 00036E 9610 C08C      0008C        3976     282.              SET   GPWFFMT                 SET FILE FORMAT
 000372 4D90 602A/0834       021DC  3982     283.              FSCALL SENUINFO
 000378 5010 C0B8            000B8  3986     284.              ST    R1,GPWUINFO
 00037C 47F0 6062            02214  3987     285.              B     FSUB0                   DONE
1VSUB     (VSUB00) (09:50) (22MAR04) ORVYL'S COMMAND PROCESSOR FILE SUBROUTINES                                             Page   29
0Current Usings:  (FSUB#COM,R6) (*,R7) (CLW,R10) (GPW,R12)
0Loc    Object Code    Addr1 Addr2  Stmt Lv Lineno    Source Statement           (Hibal 5, Asmedit 3.3)  HLASM R4.0  2004/03/22 09.50
+___    ______ ____    _____ _____  ____ __ ______    ______ _________
0                                   3989     287.     *  DETACH ROUTINE
                                    3990     288.     *
 000380                             3991     289.     DETACH   LABEL ,
 000380 1F00/4300 C08D       0008D  3993     290.              DETACH IC:GPWFID
 000386 0AF8                        4003             +
 000388 0AF2                        4004     291.              WAIT  (0)
 00038A 947F C08C      0008C        4012     292.              CLEAR GPWFATT                 CLEAR ATTACHED
 00038E 47F0 6062            02214  4019     293.              B     FSUB0                   RETURN TO CALLER
-
-000398                             4021     295.              LTORG ,
 000398 00000000                    4023                             =V(FREECLW)
 00039C 00003000                    4024                             =A(L'GPW)
 0003A0 00000000                    4025                             =V(GETCLW)
 0003A4 00001000                    4026                             =A(GPWBUF-GPWSTART)
 0003A8 D6D9E54B40404B40            4027                             =C'ORV.  .   . '
 0003B4 0000001C                    4028                             =A(28)
 0003B8 00000008                    4029                             =A(8)
 0003BC 00000000       003C0 02D08  4030                             =V(SETFMT)
1VSUB     (VSUB00) (09:50) (22MAR04) ORVYL'S COMMAND PROCESSOR FILE SUBROUTINES                                             Page   30
0Current Usings:  (FSUB#COM,R6) (*,R7) (CLW,R10) (GPW,R12)
0Loc    Object Code    Addr1 Addr2  Stmt Lv Lineno    Source Statement           (Hibal 5, Asmedit 3.3)  HLASM R4.0  2004/03/22 09.50
+___    ______ ____    _____ _____  ____ __ ______    ______ _________
0                                   4036     298.              FSCALL FSUB#2                 GENERATE SEGMENT 2
 0003C0                             4037    01-FSCAL +FSUB#2   DS    0H
 0003C0 0D70                        4040    02-BASE  +         BASR  7,0
 0003C2                             4043    04-00068 +$$$71B       DS 0X
 DROP   *,R7                        4050    06-00180 +       $$USING @R7,7
 USING  *,R7                        4053    04-00180 +       $$USING $$$71B,7
 0003C2 5855 7006            003C8  4055    01-FSCAL +         L     FSUBR,FSUB#2L(FSUBR)    GET ROUTINE ADDRESS
 0003C6 07F5                        4056    01-FSCAL +         BR    FSUBR                   ENTER ROUTINE
 0003C8                             4057    01-FSCAL +         CNOP  0,4                     ALIGNMENT
 0003C8                             4058    01-FSCAL +FSUB#2L  DS    0H
 0003C8 00000536                    4059    01-FSCAL +         DC    A(GETMEMBR)
 0003CC 000003E0                    4060    01-FSCAL +         DC    A(GETNAME)
 0003D0 00000622                    4061    01-FSCAL +         DC    A(SCNMLIST)
 0003D4 000003EC                    4062    01-FSCAL +         DC    A(GOTNAME)
 0003D8 00000676                    4063    01-FSCAL +         DC    A(SEGMEMB)
 0003DC 000006BA                    4064    01-FSCAL +         DC    A(SEGNAME)
1VSUB     (VSUB00) (09:50) (22MAR04) ORVYL'S COMMAND PROCESSOR FILE SUBROUTINES                                             Page   31
0Current Usings:  (FSUB#COM,R6) (*,R7) (CLW,R10) (GPW,R12)
0Loc    Object Code    Addr1 Addr2  Stmt Lv Lineno    Source Statement           (Hibal 5, Asmedit 3.3)  HLASM R4.0  2004/03/22 09.50
+___    ______ ____    _____ _____  ____ __ ______    ______ _________
0                                   4067     301.     *  GET FILE NAME
                                    4068     302.     *
 0003E0                             4069     303.     GETNAME  LABEL ,
 0003E0 1B11/41F0 A2C4       002C4  4071     304.              SCAN  ,CLWKWCB
 0003E6 58E0 735E/0DEE       00720  4085             +
 0003EC 1220                        4087     305.     GOTNAME  LTR   SR,R0                   KEYWORD ROUTINE ENTRY
 0003EE 47D0 60DE            02290  4088     306.              BNP   FSSCNRTN                NO
 0003F2 955B 1000      00000        4089     307.              IF    (@R1,EQ,'$'),BEGIN      OS/FILE SPECIFIED
 0003F6 4770 7054            00416  4100             +
 0003FA 960A C08C      0008C        4105  1  308.                SET   GPWFVOSF+GPWFFFN        OS/FILE AND FULL FORMAT
 0003FE 5900 7362            00724  4114  1  309.                IF    (R0,GT,45),FSUNREC      LENGTH TESTS
 000402 4720 612A            022DC  4128  1          +
 000406 5900 7366            00728  4134  1  310.                IF    (R0,LE,1),FSUNREC      STANDALONE '$' ILLEGAL
 00040A 47C0 612A            022DC  4148  1          +
 00040E 5E10 7366            00728  4154  1  311.                INCR  R1                      ADJUST STARTING ADDRESS
 000412 0620                        4157  1  312.                DECR  SR                      ADJUST LENGTH
 000414 1802                        4159  1  313.                LR    R0,SR                   RESET R0 TO ADJUSTED LENGTH
 000416 7058           00416 003F8  4160     314.              END   ELSE,BEGIN              PROCESS UNQUALIFIED NAME
 000416 47F0 7060            00422  4169             +
 00041A 5900 736A            0072C  4175  1  315.                IF    (R0,GT,44),FSUNREC      LENGTH TEST
 00041E 4720 612A            022DC  4189  1          +
 000422                             4195     316.              END   ,
0000422 4220 C08E            0008E  4200     318.              STC   SR,GPWFNL               SET LENGTH IN GPW
 000426 0620/4420 7390       00752  4201     319.              DEX   SR,'OC  GPWFN(0),@R1'   MOVE NAME INTO GPW SPACE
 000752 D600 C05F 1000 0005F 00000  4212             +
 00042C 1820                        4220     320.              LR    SR,R0                   RESET CORRECT LENGTH
0                                   4222     322.   C          IF    ((GPWFN+10,EQ,'.'),AND,       FULLY QUALIFIED NAME
                                             323.   C                (GPWFN+6,EQ,'.'),AND,         TEST FOR PROPER
 00042E 954B C069      00069                 324.                    (GPWFN+3,EQ,'.')),BEGIN            FORMAT
 000432 4770 70B0            00472  4236             +
 000436 954B C065      00065        4249             +
 00043A 4770 70B0            00472  4250             +
 00043E 954B C062      00062        4263             +
 000442 4770 70B0            00472  4264             +
 000446                             4269  1  325.                IF    (=C'WYL',EQ,GPWFN),'SET GPWFVOSF+GPWFFFN'
 000446 D502 7388 C05F 0074A 0005F  4280  1          +
 00044C 4770 7092            00454  4281  1          +
 000450 960A C08C      0008C        4295  1          +
 000454                             4300  1  326.                IF    (=C'ORV',EQ,GPWFN),'SET GPWFFFN'
 000454 D502 738B C05F 0074D 0005F  4311  1          +
 00045A 4770 70A0            00462  4312  1          +
 00045E 9602 C08C      0008C        4323  1          +
 000462 9102 C08C      0008C        4328  1  327.                IF    (GPWFFFN,AND,(SR,LT,L'PFX+1)),FSHRTORV
 000466 47E0 70B0            00472  4340  1          +
 00046A 5920 736E            00730  4353  1          +
 00046E 4740 613A            022EC  4356  1          +
 000472                             4362     328.              END   ,
1VSUB     (VSUB00) (09:50) (22MAR04) ORVYL'S COMMAND PROCESSOR FILE SUBROUTINES                                             Page   32
0Current Usings:  (FSUB#COM,R6) (*,R7) (CLW,R10) (GPW,R12)
0Loc    Object Code    Addr1 Addr2  Stmt Lv Lineno    Source Statement           (Hibal 5, Asmedit 3.3)  HLASM R4.0  2004/03/22 09.50
+___    ______ ____    _____ _____  ____ __ ______    ______ _________
0000472 9102 C08C      0008C        4367     330.              IF    GPWFFFN,BEGIN                 QUALIFIED NAME
 000476 47E0 70C2            00484  4377             +
 00047A D22B C054 C05F 00054 0005F  4382  1  331.                MVC   GPWFFN(44),GPWFN              SHIFT FILENAME
 000480 47F0 6062            02214  4383  1  332.                B     FSUB0
 000484                             4384     333.              END   ,
 000484 4120 200B            0000B  4388     334.              LA    SR,@SR+L'PFX
 000488                             4389     335.              LOOP  BEGIN
 000488 957C C05F      0005F        4395  1  336.                IF    (GPWFN,EQ,'@'),BEGIN          GROUP SPECIFIED
 00048C 4770 710A            004CC  4407  1          +
 000490 9540 C058      00058        4412  2  337.                  IF    (GPWGRP,NE,' '),FSDBLGRP      GROUP ALREADY SPEC
 000494 4770 616A            0231C  4426  2          +
 000498 954B C060      00060        4432  2  338.                  IF    (GPWFN+1,EQ,'.'),BEGIN        JUST @.
 00049C 4770 70EE            004B0  4444  2          +
 0004A0 D201 C058 A3B0 00058 003B0  4449  3  339.                    MVC   GPWGRP,CLWGROUP               SIGNED ON GROUP
 0004A6 D229 C05F C061 0005F 00061  4450  3  340.                    MVC   GPWFN(L'GPWFN-2),GPWFN+2      SKIP @.
 0004AC 4B20 737A            0073C  4451  3  341.                    SH    SR,=Y(2)                      DECREMENT LENGTH
 0004B0 70F2           004B0 0049E  4452  2  342.                  END   ELSE,BEGIN
 0004B0 47F0 710A            004CC  4461  2          +
 0004B4 954B C062      00062        4467  3  343.                    CLI   GPWFN+L'GPWGRP+1,C'.'         DOT?
 0004B8 4770 7164            00526  4468  3  344.                    BNE   ILLFN
 0004BC D201 C058 C060 00058 00060  4469  3  345.                    MVC   GPWGRP,GPWFN+1
 0004C2 D227 C05F C063 0005F 00063  4470  3  346.                    MVC   GPWFN(L'GPWFN-L'GPWGRP-2),GPWFN+2+L'GPWGRP
 0004C8 4B20 737C            0073E  4471  3  347.                    SH    SR,=Y(2+L'GPWGRP)             DECREMENT LENGTH
 0004CC                             4472  2  348.                  END   ,
 0004CC                             4476  1  349.                END   ,
 0004CC 710E           004CC 0048E  4480  1  350.                ELSEIF (GPWFN,EQ,'&&'),BEGIN
 0004CC 47F0 7154            00516  4486  1          +
 0004D0 D500 738E C05F 00750 0005F  4500  1          +
 0004D6 4770 7154            00516  4501  1          +
 0004DA 9540 C05B      0005B        4506  2  351.                  IF    (GPWUSER,NE,' '),FSDBLUSR
 0004DE 4770 6176            02328  4520  2          +
 0004E2 954B C060      00060        4526  2  352.                  IF    (GPWFN+1,EQ,'.'),BEGIN  JUST &.
 0004E6 4770 7138            004FA  4538  2          +
 0004EA D202 C05B A3B3 0005B 003B3  4543  3  353.                    MVC   GPWUSER,CLWUSER               USE SIGNED ON USER
 0004F0 D229 C05F C061 0005F 00061  4544  3  354.                    MVC   GPWFN(L'GPWFN-2),GPWFN+2      REMOVE &.
 0004F6 4B20 737A            0073C  4545  3  355.                    SH    SR,=Y(2)                      DECREMENT LENGTH
 0004FA 713C           004FA 004E8  4546  2  356.                  END   ELSE,BEGIN
 0004FA 47F0 7154            00516  4555  2          +
 0004FE 954B C063      00063        4561  3  357.                    IF    (GPWFN+L'GPWUSER+1,NE,'.'),ILLFN
 000502 4770 7164            00526  4575  3          +
 000506 D202 C05B C060 0005B 00060  4581  3  358.                    MVC   GPWUSER,GPWFN+1
 00050C D226 C05F C064 0005F 00064  4582  3  359.                    MVC   GPWFN(L'GPWFN-L'GPWUSER-2),GPWFN+2+L'GPWUSER
 000512 4B20 737E            00740  4583  3  360.                    SH    SR,=Y(2+L'GPWUSER)            DECREMENT LENGTH
 000516                             4584  2  361.                  END   ,
 000516 7158           00516 004D8  4588  1  362.                END   ELSE,BEGIN
 000516 47F0 7160            00522  4597  1          +
 00051A 4220 C08E            0008E  4603  2  363.                  STC   SR,GPWFNL               RESET UPDATED LENGTH
 00051E 47F0 6062            02214  4604  2  364.                  B     FSUB0                   RETURN
 000522                             4605  1  365.                END   ,
 000522 47F0 70C6            00488  4609     366.              END   ,
0000526 4110 C05F            0005F  4615     368.     ILLFN    SEG   GPWFN,1(SR)
 00052A 4102 0001            00001  4631             +
 00052E 4590 603A            021EC  4632             +
1VSUB     (VSUB00) (09:50) (22MAR04) ORVYL'S COMMAND PROCESSOR FILE SUBROUTINES                                             Page   33
0Current Usings:  (FSUB#COM,R6) (*,R7) (CLW,R10) (GPW,R12)
0Loc    Object Code    Addr1 Addr2  Stmt Lv Lineno    Source Statement           (Hibal 5, Asmedit 3.3)  HLASM R4.0  2004/03/22 09.50
+___    ______ ____    _____ _____  ____ __ ______    ______ _________
0000532 47F0 611E            022D0  4633     369.              B     FSILNAM1
1VSUB     (VSUB00) (09:50) (22MAR04) ORVYL'S COMMAND PROCESSOR FILE SUBROUTINES                                             Page   34
0Current Usings:  (FSUB#COM,R6) (*,R7) (CLW,R10) (GPW,R12)
0Loc    Object Code    Addr1 Addr2  Stmt Lv Lineno    Source Statement           (Hibal 5, Asmedit 3.3)  HLASM R4.0  2004/03/22 09.50
+___    ______ ____    _____ _____  ____ __ ______    ______ _________
0                                   4635     371.     *  ROUTINE TO SCAN FOR A FILENAME#MEMBER OR FILENAME(MEMBER)
                                    4636     372.     *  RETURNS ZERO COND CODE IF MEMBER IS FOUND
 000536                             4637     373.     GETMEMBR LABEL ,
 000536 41F0 A2C4            002C4  4639     374.              SCTELL CLWKWCB                SAVE SCAN
 00053A 58E0 7372/0DEE       00734  4649             +
 000540 184D/41D0 D020       00020  4651     375.              VPUSH ,,CLWKWCBL,PTR=QR
 000546 18F4/58E0 7376       00738  4654     376.              SCINIT (1),(0),(QR)           START NEW SCAN
 00054C 0DEE                        4673             +
 00054E 1B11/18F4                   4674     377.              SCAN  0,(QR)                  FILE OR MEMBER NAME
 000552 58E0 735E/0DEE       00720  4686             +
 000558 47D0 7252            00614  4688     378.              BNP   NOMEMBR                 NOTHING THERE...
 00055C 954D 1000      00000        4689     379.              CLI   @R1,C'('                MEMBER ALREADY?
 000560 4780 618A            0233C  4690     380.              BE    FSNDFLIB                NOT SUPPORTED (YET?)
 000564 957B 1000      00000        4691     381.              CLI   @R1,C'#'                MEMBER ALREADY?
 000568 4780 618A            0233C  4692     382.              BE    FSNDFLIB                NOT SUPPORTED (YET?)
 00056C 1831                        4693     383.              LR    TR,R1                   SAVE
 00056E 1820                        4694     384.              LR    SR,0                     FILENAME
 000570 957B 3000      00000        4695     385.     SRCH#MEM CLI   @TR,C'#'                START OF MEMBER NAME?
 000574 4780 71F2            005B4  4696     386.              BE    FOUND#                  YES
 000578 4130 3001            00001  4697     387.              LA    TR,@TR+1                BUMP POINTER
 00057C 4620 71AE            00570  4698     388.              BCT   SR,SRCH#MEM              AND LOOP
 000580 9001 D000            00000  4699     389.              VPUSH R0,R1,*                 PUSH FILENAME ONTO STACK
 000584 41D0 D008            00008  4701             +
 000588 1820                        4702     390.              LR    SR,0                    COMPUTE ADDRESS OF
 00058A 1A21                        4703     391.              AR    SR,R1                    OF END OF FILENAME
 00058C 1B11/18F4                   4704     392.              SCAN  0,(QR)                  LOOK FOR '(MEMBER)'
 000590 58E0 735E/0DEE       00720  4716             +
 000596 47D0 7252            00614  4718     393.              BNP   NOMEMBR                 IF NOTHING THERE, NOT MEMB
 00059A 1512                        4719     394.              CLR   R1,SR                   IS IT RIGHT AFTER FILENAME
 00059C 4770 7252            00614  4720     395.              BNE   NOMEMBR                 NO, FORGET IT
 0005A0 954D 1000      00000        4721     396.              CLI   @R1,C'('                START WITH '('
 0005A4 4770 7252            00614  4722     397.              BNE   NOMEMBR                 NO, FORGET IT
 0005A8 0600                        4723     398.              DECR  R0                      DECREMENT LENGTH
 0005AA 4D90 602A/0408       021DC  4725     399.              FSCALL SCNMLIST               POSSIBLE MEMBER LIST
 0005B0 47F0 720A            005CC  4729     400.              B     MEMCOM                  GO TO COMMON PART
                                    4730     401.
 0005B4                             4731     402.     FOUND#   LABEL ,
 0005B4 94FD C0B4      000B4        4733     403.              CLEAR GPWLLIST                CLEAR MULTI LIST FLAG
 0005B8 1B02                        4740     404.              SR    R0,SR                    FILE NAME LENGTH
 0005BA 9001 D000            00000  4741     405.              VPUSH R0,R1,*                 SAVE FILE NAME
 0005BE 41D0 D008            00008  4743             +
 0005C2 1802                        4744     406.              LR    R0,SR                    MEMBER NAME LENGTH
 0005C4 1813                        4745     407.              LR    R1,TR                   MEMBER NAME STARTING POINT
 0005C6 4110 1001            00001  4746     408.              LA    R1,@R1+1                SKIP # OR (
 0005CA 0600                        4747     409.              DECR  R0                      DECREMENT LENGTH
 0005CC 1200                        4749     410.     MEMCOM   LTR   R0,0                     ANYTHING LEFT?
 0005CE 47D0 6196            02348  4750     411.              BNP   FSINVMEM                NO, FORGET IT
 0005D2 4900 7380            00742  4751     412.              CH    R0,=Y(8)                 TOO LONG?
 0005D6 4720 6196            02348  4752     413.              BH    FSINVMEM                YES
 0005DA 4200 C08F            0008F  4753     414.              STC   R0,GPWLMNL               SAVE MEMBER NAME LENGTH
 0005DE 1820                        4754     415.              LR    SR,0                    PUT LENGTH WHERE USEABLE
 0005E0 D207 C090 7356 00090 00718  4755     416.              MVC   GPWLMN,=CL8' '          BLANK IT OUT
 0005E6 0620/4420 7396       00758  4756     417.              DEX   SR,'OC  GPWLMN(0),@R1'  MOVE IT IN
 000758 D600 C090 1000 00090 00000  4767             +
1VSUB     (VSUB00) (09:50) (22MAR04) ORVYL'S COMMAND PROCESSOR FILE SUBROUTINES                                             Page   35
0Current Usings:  (FSUB#COM,R6) (*,R7) (CLW,R10) (GPW,R12)
0Loc    Object Code    Addr1 Addr2  Stmt Lv Lineno    Source Statement           (Hibal 5, Asmedit 3.3)  HLASM R4.0  2004/03/22 09.50
+___    ______ ____    _____ _____  ____ __ ______    ______ _________
00005EC 4BD0 7382            00744  4775     418.              VPOP  R0,R1,*                 GET FILENAME
 0005F0 9801 D000            00000  4777             +
 0005F4 1821                        4778     419.              LR    SR,R1                   FOR CALLING SEQUENCE
 0005F6 4D90 602A/040C       021DC  4779     420.              FSCALL GOTNAME
 0005FC 18F4/58E0 7372       00734  4783     421.              SCTELL (QR)
 000602 0DEE                        4792             +
 000604 41F0 A2C4            002C4  4793     422.              SCINIT (1),(0),CLWKWCB        UPDATE SCAN
 000608 58E0 7376/0DEE       00738  4813             +
 00060E 18D4                        4815     423.              VPOP  ,,PTR=QR                FIX UP STACK
 000610 47F0 6062            02214  4817     424.              B     FSUB0                   RETURN, CC=0
                                    4818     425.
 000614 18D4                        4819     426.     NOMEMBR  VPOP  ,,PTR=QR                RESTORE STACK
 000616 94FD C0B4      000B4        4821     427.              CLEAR GPWLLIST                CLEAR MULTI LIST FLAG
 00061A 41F0 0004            00004  4828     428.              LA    R15,4
 00061E 47F0 6064            02216  4829     429.              B     FSUBX                   RECURN, CC=4
1VSUB     (VSUB00) (09:50) (22MAR04) ORVYL'S COMMAND PROCESSOR FILE SUBROUTINES                                             Page   36
0Current Usings:  (FSUB#COM,R6) (*,R7) (CLW,R10) (GPW,R12)
0Loc    Object Code    Addr1 Addr2  Stmt Lv Lineno    Source Statement           (Hibal 5, Asmedit 3.3)  HLASM R4.0  2004/03/22 09.50
+___    ______ ____    _____ _____  ____ __ ______    ______ _________
0                                   4831     431.     *
                                    4832     432.     * SCAN MEMBER LIST FOR NEXT NAME
                                    4833     433.     *  INPUT - R0 = LENGTH OF LIST (INCLUDING ',' OR '('
                                    4834     434.     *          R1 = ADDRESS OF LIST
                                    4835     435.     * OUTPUT - R0 = LENGTH OF MEMBER, R1 = LOCATION
                                    4836     436.     *        - GPWLMFBN(0/8) = LENGTH/ADDRESS OF REST OF LIST
                                    4837     437.     *
 000622                             4838     438.     SCNMLIST LABEL ,
 000622 4110 1001            00001  4840     439.              LA    R1,@R1+1                SKIP IST CHARACTER
 000626 0600                        4841     440.              DECR  R0
 000628 9001 D000            00000  4843     441.              VPUSH R0,R1,*                 SAVE REST
 00062C 41D0 D008            00008  4845             +
 000630 956B 1000      00000        4846     442.     SCNMCMA  CLI   @R1,C','                CHECK FOR COMMA
 000634 4780 7296            00658  4847     443.              BE    SCANMCOM
 000638 9540 1000      00000        4848     444.              CLI   @R1,C' '                BLANK?
 00063C 4780 6196            02348  4849     445.              BE    FSINVMEM
 000640 4110 1001            00001  4850     446.              LA    R1,@R1+1                BUMP POINTER
 000644 4600 726E            00630  4851     447.              BCT   R0,SCNMCMA              LOOP
 000648 4BD0 7382            00744  4852     448.              VPOP  R0,R1,*                 RESTORE
 00064C 9801 D000            00000  4854             +
 000650 94FD C0B4      000B4        4855     449.              CLEAR GPWLLIST                CLEAR MULTI LIST FLAG
 000654 47F0 72B0            00672  4862     450.              B     SCNMEND
 000658                             4863     451.     SCANMCOM LABEL ,                       COMMA FOUND
 000658 9102 C0B4      000B4        4865     452.              IF    ~GPWLLIST,FSINVMEM
 00065C 47E0 6196            02348  4877             +
 000660 9001 C0A4            000A4  4883     453.              STM   R0,R1,GPWLMFBN          SAVE FOR NEXT TIME
 000664 4BD0 7384            00746  4884     454.              VPOP  SR,TR,*                 GET ORIGIONAL POSITION
 000668 9823 D000            00000  4886             +
 00066C 1B20                        4887     455.              SR    SR,R0
 00066E 1802                        4888     456.              LR    R0,SR                   MEMBER NAME LENGTH
 000670 1813                        4889     457.              LR    R1,TR                   ADDRESS
 000672 47F0 6062            02214  4890     458.     SCNMEND  B     FSUB0
1VSUB     (VSUB00) (09:50) (22MAR04) ORVYL'S COMMAND PROCESSOR FILE SUBROUTINES                                             Page   37
0Current Usings:  (FSUB#COM,R6) (*,R7) (CLW,R10) (GPW,R12)
0Loc    Object Code    Addr1 Addr2  Stmt Lv Lineno    Source Statement           (Hibal 5, Asmedit 3.3)  HLASM R4.0  2004/03/22 09.50
+___    ______ ____    _____ _____  ____ __ ______    ______ _________
0                                   4892     460.     *  FORMAT MEMBER NAME OR FILE NAME
                                    4893     461.     *
 000676                             4894     462.     SEGMEMB  LABEL ,
 000676 9180 C0B8      000B8        4896     463.              IF    GPWUILIB,BEGIN
 00067A 47E0 72F8            006BA  4906             +
 00067E 1F00/4300 C08F       0008F  4911  1  464.                LC    R0,GPWLMNL
 000684 1200/47D0 72F8       006BA  4916  1  465.                IF    (R0,POS),BEGIN
 00068A 9110 C0B4      000B4        4930  2  466.                  IF    ~GPWALIAS,'LA R1,GPWLMN'      MEMBER NAME
 00068E 4710 72D4            00696  4940  2          +
 000692 4110 C090            00090  4946  2          +
 000696 72D8           00696 00690  4951  2  467.                  ELSE  'LA R1,GPWLMN2'         OR ALIAS NAME
 000696 47F0 72DC            0069E  4956  2          +
 00069A 4110 C098            00098  4963  2          +
 00069E 4121 0008            00008  4968  2  468.                  LA    R2,8(R1)
 0006A2 0620                        4969  2  469.     SEGMLEN      DECR  R2                      SEGMEMT LENGTH
 0006A4 9540 2000      00000        4971  2  470.                  CLI   0(R2),C' '
 0006A8 4780 72E0            006A2  4972  2  471.                  BE    SEGMLEN
 0006AC 1B21                        4973  2  472.                  SR    R2,R1
 0006AE 4102 0001            00001  4974  2  473.                  LA    R0,1(R2)
 0006B2 4590 603A            021EC  4975  2  474.                  SEG   (R1),(R0),B             OUTPUT MEMBER
 0006B6 47F0 7346            00708  4987  2  475.                  B     SEGNX
 0006BA                             4988  1  476.                END   ,
 0006BA                             4992     477.              END ,
0                                   4997     479.     *
                                    4998     480.     *  SEGMEMB FALLS THOUGH TO SEGNAME TO
                                    4999     481.     *  COMPLETE FILENAME FORMATTING
                                    5000     482.     *
1VSUB     (VSUB00) (09:50) (22MAR04) ORVYL'S COMMAND PROCESSOR FILE SUBROUTINES                                             Page   38
0Current Usings:  (FSUB#COM,R6) (*,R7) (CLW,R10) (GPW,R12)
0Loc    Object Code    Addr1 Addr2  Stmt Lv Lineno    Source Statement           (Hibal 5, Asmedit 3.3)  HLASM R4.0  2004/03/22 09.50
+___    ______ ____    _____ _____  ____ __ ______    ______ _________
0                                   5002     484.     *  FORMAT FILE NAME
                                    5003     485.     *
 0006BA                             5004     486.     SEGNAME  LABEL ,
 0006BA 1F33/4330 C08E       0008E  5006     487.              LC    TR,GPWFNL               LENGTH OF FILENAME
 0006C0 4120 C0C4            000C4  5013     488.              LA    SR,GPWFILN              AND LOCATION
 0006C4 9140 C000      00000        5014     489.              IF    GPWFALTF,BEGIN          PROCESSING ALTERNATE FILE?
 0006C8 47E0 731A            006DC  5024             +
 0006CC 4120 C164            00164  5029  1  490.                LA    SR,GPWAFN               ALTERNATE FILE ANME
 0006D0 4330 C12E            0012E  5030  1  491.                IC    TR,GPWAFNL
 0006D4 9102 C12C      0012C        5031  1  492.                IF    GPWAFFL.GPWFFFN,SEGFULL FORMAT FULL FILENAME
 0006D8 4710 733E            00700  5043  1          +
 0006DC                             5049     493.              END   ,
 0006DC 9102 C08C      0008C        5053     494.              IF    GPWFFFN,SEGFULL         FULL DSN SPECIFIED
 0006E0 4710 733E            00700  5065             +
 0006E4 D501 A3B0 2004 003B0 00004  5071     495.              CLC   CLWGROUP,GPWGRP-GPWFFN(SR) SIGNED ON GROUP?
 0006EA 4770 733E            00700  5072     496.              IF    NE,SEGFULL              FORMAT ALL IF NOT
 0006EE D502 A3B3 2007 003B3 00007  5086     497.              CLC   CLWUSER,GPWUSER-GPWFFN(SR) SIGNED ON USER?
 0006F4 4770 733E            00700  5087     498.              IF    NE,SEGFULL              FORMAT ALL IF NOT
 0006F8 4120 200B            0000B  5101     499.              LA    SR,@SR+(GPWFN-GPWFFN)   FILE NAME STEM ONLY
 0006FC 4B30 7386            00748  5102     500.              SH    TR,=Y(L'PFX)            REMOVE ORV.GG.UUU. LENGTH
 000700 1812/1803                   5103     501.     SEGFULL  SEG   (SR),(TR),B             SEG FILENAME
 000704 4590 603A            021EC  5116             +
                                    5117     502.
 000708 4110 738F            00751  5118     503.     SEGNX    SEG   ' ',,B                  PLUS BLANK
 00070C 4100 0001            00001  5122             +
 000710 4590 603A            021EC  5123             +
 000714 47F0 6062            02214  5124     504.              B     FSUB0                   RETURN
1VSUB     (VSUB00) (09:50) (22MAR04) ORVYL'S COMMAND PROCESSOR FILE SUBROUTINES                                             Page   39
0Current Usings:  (FSUB#COM,R6) (*,R7) (CLW,R10) (GPW,R12)
0Loc    Object Code    Addr1 Addr2  Stmt Lv Lineno    Source Statement           (Hibal 5, Asmedit 3.3)  HLASM R4.0  2004/03/22 09.50
+___    ______ ____    _____ _____  ____ __ ______    ______ _________
0000718                             5126     506.              LTORG ,
 000718 4040404040404040            5128                             =CL8' '
 000720 00000000                    5129                             =V(SCAN)
 000724 0000002D                    5130                             =A(45)
 000728 00000001                    5131                             =A(1)
 00072C 0000002C                    5132                             =A(44)
 000730 0000000C                    5133                             =A(L'PFX+1)
 000734 00000000                    5134                             =V(SCTELL)
 000738 00000000                    5135                             =V(SCINIT)
 00073C 0002                        5136                             =Y(2)
 00073E 0004                        5137                             =Y(2+L'GPWGRP)
 000740 0005                        5138                             =Y(2+L'GPWUSER)
 000742 0008                        5139                             =Y(8)
 000744 0008                        5140                             =Y((R1+1-(R0)+16*((R0)/(R1+1))/((R0)/(R1+1)))*4)
 000746 0008                        5141                             =Y((TR+1-(SR)+16*((SR)/(TR+1))/((SR)/(TR+1)))*4)
 000748 000B                        5142                             =Y(L'PFX)
 00074A E6E8D3                      5143                             =C'WYL'
 00074D D6D9E5                      5144                             =C'ORV'
 000750 50                          5145                             =C'&&'
 000751 40             0075E 02D08  5146                             =C' '
1VSUB     (VSUB00) (09:50) (22MAR04) ORVYL'S COMMAND PROCESSOR FILE SUBROUTINES                                             Page   40
0Current Usings:  (FSUB#COM,R6) (*,R7) (CLW,R10) (GPW,R12)
0Loc    Object Code    Addr1 Addr2  Stmt Lv Lineno    Source Statement           (Hibal 5, Asmedit 3.3)  HLASM R4.0  2004/03/22 09.50
+___    ______ ____    _____ _____  ____ __ ______    ______ _________
0                                   5152     509.              FSCALL FSUB#3                 GENERATE SEGMENT 3
 00075E                             5153    01-FSCAL +FSUB#3   DS    0H
 00075E 0D70                        5156    02-BASE  +         BASR  7,0
 000760                             5159    04-00068 +$$$111B      DS 0X
 DROP   *,R7                        5166    06-00180 +       $$USING @R7,7
 USING  *,R7                        5169    04-00180 +       $$USING $$$111B,7
 000760 5855 7008            00768  5171    01-FSCAL +         L     FSUBR,FSUB#3L(FSUBR)    GET ROUTINE ADDRESS
 000764 07F5                        5172    01-FSCAL +         BR    FSUBR                   ENTER ROUTINE
 000766 0700                        5173    01-FSCAL +         CNOP  0,4                     ALIGNMENT
 000768                             5174    01-FSCAL +FSUB#3L  DS    0H
 000768 00000A44                    5175    01-FSCAL +         DC    A(CREC)
 00076C 00000A4E                    5176    01-FSCAL +         DC    A(DELREC)
 000770 00000A54                    5177    01-FSCAL +         DC    A(DELLOTS)
 000774 00000A5A                    5178    01-FSCAL +         DC    A(SENREC)
 000778 00000A60                    5179    01-FSCAL +         DC    A(SENFREC)
 00077C 00000A66                    5180    01-FSCAL +         DC    A(SENLREC)
 000780 00000A6C                    5181    01-FSCAL +         DC    A(SENNREC)
 000784 00000A72                    5182    01-FSCAL +         DC    A(FORCE)
 000788 00000A76                    5183    01-FSCAL +         DC    A(DOPUBPER)
 00078C 00000A7C                    5184    01-FSCAL +         DC    A(SENUPRV)
 000790 00000A8A                    5185    01-FSCAL +         DC    A(SETSHR)
 000794 00000A90                    5186    01-FSCAL +         DC    A(SENSHR)
 000798 00000A96                    5187    01-FSCAL +         DC    A(SETUINFO)
 00079C 00000AAC                    5188    01-FSCAL +         DC    A(SENUINFO)
 0007A0 00000B04                    5189    01-FSCAL +         DC    A(DOSETCLP)
 0007A4 00000B0A                    5190    01-FSCAL +         DC    A(DOSENCLP)
 0007A8 00000B22                    5191    01-FSCAL +         DC    A(DOSETSPI)
 0007AC 00000B28                    5192    01-FSCAL +         DC    A(DOSENSPI)
 0007B0 00000B10                    5193    01-FSCAL +         DC    A(SETLDF)
 0007B4 00000B16                    5194    01-FSCAL +         DC    A(SENLDF)
 0007B8 00000B98                    5195    01-FSCAL +         DC    A(DOERASE)
 0007BC 00000BA8                    5196    01-FSCAL +         DC    A(DORENAME)
 0007C0 00000C5C                    5197    01-FSCAL +         DC    A(DOPERM)
 0007C4 000009D2                    5198    01-FSCAL +         DC    A(RESETWMW)
 0007C8 000009E4                    5199    01-FSCAL +         DC    A(SETPREST)
 0007CC 000009F4                    5200    01-FSCAL +         DC    A(SETWMW)
 0007D0 000009FC                    5201    01-FSCAL +         DC    A(SENWMW)
 0007D4 00000A04                    5202    01-FSCAL +         DC    A(SENSWDS)
 0007D8 00000A0C                    5203    01-FSCAL +         DC    A(SENFWDS)
 0007DC 00000A14                    5204    01-FSCAL +         DC    A(SENLWDS)
 0007E0 00000A1C                    5205    01-FSCAL +         DC    A(CLRWDS)
 0007E4 00000A24                    5206    01-FSCAL +         DC    A(ABWYL)
 0007E8 000008E8                    5207    01-FSCAL +         DC    A(MEMBER)
 0007EC 0000093E                    5208    01-FSCAL +         DC    A(PUBLIC)
 0007F0 0000094E                    5209    01-FSCAL +         DC    A(SENFILE)
 0007F4 0000098A                    5210    01-FSCAL +         DC    A(SENMEM)
 0007F8 000009BC                    5211    01-FSCAL +         DC    A(SENSP)
 0007FC 00000824                    5212    01-FSCAL +         DC    A(MILWYL)
 000800 0000082C                    5213    01-FSCAL +         DC    A(FILEXIT)
 000804 000008C8                    5214    01-FSCAL +         DC    A(MSGEXIT)
 000808 000008CC                    5215    01-FSCAL +         DC    A(WRITEXIT)
 00080C 000008D6                    5216    01-FSCAL +         DC    A(QIETEXIT)
 000810 000009A4                    5217    01-FSCAL +         DC    A(STAT3OR4)
 000814 00000B1C                    5218    01-FSCAL +         DC    A(SENMODE)
1VSUB     (VSUB00) (09:50) (22MAR04) ORVYL'S COMMAND PROCESSOR FILE SUBROUTINES                                             Page   41
0Current Usings:  (FSUB#COM,R6) (*,R7) (CLW,R10) (GPW,R12)
0Loc    Object Code    Addr1 Addr2  Stmt Lv Lineno    Source Statement           (Hibal 5, Asmedit 3.3)  HLASM R4.0  2004/03/22 09.50
+___    ______ ____    _____ _____  ____ __ ______    ______ _________
0000818 00000B2E                    5219    01-FSCAL +         DC    A(SENBLKSZ)
 00081C 00000B34                    5220    01-FSCAL +         DC    A(SENNRECH)
 000820 00000A2C                    5221    01-FSCAL +         DC    A(GETDELTA)
1VSUB     (VSUB00) (09:50) (22MAR04) ORVYL'S COMMAND PROCESSOR FILE SUBROUTINES                                             Page   42
0Current Usings:  (FSUB#COM,R6) (*,R7) (CLW,R10) (GPW,R12)
0Loc    Object Code    Addr1 Addr2  Stmt Lv Lineno    Source Statement           (Hibal 5, Asmedit 3.3)  HLASM R4.0  2004/03/22 09.50
+___    ______ ____    _____ _____  ____ __ ______    ______ _________
0                                   5224     512.     *  RETURN TO CLP
                                    5225     513.     *
                                    5226     514.     *        RETURN CODES:  0 - PROCESS NEXT COMMAND
                                    5227     515.     *                       4 - SEND COMMAND TO WYL/MIL
                                    5228     516.     *
 000824 4120 0004            00004  5229     517.     MILWYL   LA    SR,4
 000828 47F0 70CE            0082E  5230     518.              B     FILX0
                                    5231     519.
 00082C 1B22                        5232     520.     FILEXIT  CLEAR SR
 00082E 9140 A208      00208        5237     521.     FILX0    IF    ~CLWFGPW,FSCLPRTN       GET/PUT PAGE ALLOCATED?
 000832 47E0 605C            0220E  5250             +
 000836 4D90 602A/085C       021DC  5256     522.              FSCALL RESETWMW               RESET WYLBUR MODE WORD
 00083C 9180 C08C      0008C        5260     523.              IF    GPWFATT,BEGIN           FILE ATTACHED
 000840 47E0 70EE            0084E  5270             +
 000844 4D90 602A/0020       021DC  5275  1  524.                FSCALL DETACH                 DETACH
 00084A 947F C08C      0008C        5279  1  525.                CLEAR GPWFATT
 00084E                             5286     526.              END   ,
 00084E 9180 C12C      0012C        5290     527.              IF    GPWAFFL.GPWFATT,BEGIN   ALTERNANTE FILE ATTACHED
 000852 47E0 7106            00866  5300             +
 000856 D200 C08D C12D 0008D 0012D  5305  1  528.                MVC   GPWFID,GPWAFID
 00085C 4D90 602A/0020       021DC  5306  1  529.                FSCALL DETACH
 000862 947F C12C      0012C        5310  1  530.                CLEAR GPWAFFL.GPWFATT
 000866                             5317     531.              END   ,
 000866 9108 C000      00000        5321     532.              IF    GPWFPCAT,BEGIN
 00086A 47E0 7138            00898  5331             +
                                    5336  1  533.     * ASSUMED ERROR IN PROGRAM CATALOG. RESET IT AND RELEASE IT.
 00086E 5840 A000            00000  5337  1  534.                L     QR,CLWSCP
 000872 5840 41BC            001BC  5338  1  535.                WITH  (SCP,QR),'L  QR,SCPPCAT'     POINT TO CATALOG
 USING  SCP,R4
 DROP   SCP,R4
 000876 41F0 0FFF/1814       00FFF  5362  1  536.                CLPSERV PGPRTOFF,(QR),4095    UNPROTECT THE PAGE
 00087C 4100 0044/0AED       00044  5381  1          +
 USING  PRGCAT,R4                   5383  1  537.                USING PRGCAT,QR               ##
 000882                             5392  1  538.                CLEAR PCATPTR                 ZERO PROG CAT POINTERS
 000882 D703 4000 4000 00000 00000  5398  1          +
 000888                             5399  1  539.                CLEAR PCATEND
 000888 D703 4004 4004 00004 00004  5405  1          +
 DROP   PRGCAT,R4                   5406  1  540.                DROP  QR                      ##
 00088E 4D90 602A/0C28       021DC  5413  1  541.                FSCALL DEQ                    DEQ FROM CATALOG
 000894 94F7 C000      00000        5417  1  542.                CLEAR GPWFPCAT                DONE CATALOGING
 000898                             5424     543.              END   ,
 000898 9180 C000      00000        5428     544.              IF    ~GPWFFREE,FSCLPRTN      GO TO EXIT
 00089C 47E0 605C            0220E  5440             +
 0008A0 58F0 C044/12FF       00044  5446     545.              LT    R15,GPWDIRAL            ANY DIRECTORY AREA?
 0008A6 4780 7154            008B4  5450     546.              IF    NZ,' FREECLW L:GPWDIRAP,(15)'   FREE DIRECTORY AREA
 0008AA 5810 C040            00040  5467  1          +
 0008AE 5890 7560/0D99       00CC0  5475             +
 0008B4 94BF A208      00208        5481     547.              CLEAR CLWFGPW             Clear allocation
 0008B8 181C/58F0 7564       00CC4  5488     548.              FREECLW (GPWR),L:=A(L'GPW)  Now free buffer
 0008BE 5890 7560/0D99       00CC0  5501             +
 0008C4 47F0 605C            0220E  5503     549.              B     FSCLPRTN                GO TO EXIT
-                                   5505     551.     *  SET MESSAGE, CLEAN UP AND LEAVE
1VSUB     (VSUB00) (09:50) (22MAR04) ORVYL'S COMMAND PROCESSOR FILE SUBROUTINES                                             Page   43
0Current Usings:  (FSUB#COM,R6) (*,R7) (CLW,R10) (GPW,R12)
0Loc    Object Code    Addr1 Addr2  Stmt Lv Lineno    Source Statement           (Hibal 5, Asmedit 3.3)  HLASM R4.0  2004/03/22 09.50
+___    ______ ____    _____ _____  ____ __ ______    ______ _________
0                                   5506     552.     *
 0008C8                             5507     553.     MSGEXIT  LABEL ,
 0008C8 4590 603A            021EC  5509     554.              SEG   (R1),(R0)
 0008CC                             5521     555.     WRITEXIT LABEL ,                       :::
 0008CC 5890 7568/0D99       00CC8  5523     556.              VWRITE ,                      SEND MESSAGE
 0008D2 47F0 70CC            0082C  5528     557.              B     FILEXIT                 RETURN
 0008D6                             5529     558.     QIETEXIT LABEL ,                       :::
 0008D6 9104 C001      00001        5531     559.              IF    ~GPWFQIET,WRITEXIT
 0008DA 47E0 716C            008CC  5543             +
 0008DE                             5549     560.              CLEAR (CLWOBUF,4)             QUIET!!
 0008DE D703 A118 A118 00118 00118  5555             +
 0008E4 47F0 70CC            0082C  5556     561.              B     FILEXIT
1VSUB     (VSUB00) (09:50) (22MAR04) ORVYL'S COMMAND PROCESSOR FILE SUBROUTINES                                             Page   44
0Current Usings:  (FSUB#COM,R6) (*,R7) (CLW,R10) (GPW,R12)
0Loc    Object Code    Addr1 Addr2  Stmt Lv Lineno    Source Statement           (Hibal 5, Asmedit 3.3)  HLASM R4.0  2004/03/22 09.50
+___    ______ ____    _____ _____  ____ __ ______    ______ _________
0                                   5558     563.     *  CREATE MEMBERS AND PRIVILEGES (STATUS 0)
                                    5559     564.     *
 0008E8                             5560     565.     MEMBER   LABEL ,
 0008E8 9108 C003      00003        5562     566.              IF    GPWFPUB,PUBLIC          PUBLIC?
 0008EC 4710 71DE            0093E  5574             +
 0008F0 1BEE                        5580     567.              CLEAR R14                     ASSUME OWNER
 0008F2 41F0 C007            00007  5584     568.              LA    R15,GPWACCT             EXTENDEE
 0008F6 9102 C003      00003        5585     569.              IF    ~GPWFAACC,DOMEM         ALTERNATE GROUP?
 0008FA 47E0 71A2            00902  5597             +
 0008FE 41E0 C00D            0000D  5603     570.              LA    R14,GPWAACCT            EXTENDER
 000902                             5604     571.     DOMEM    LABEL ,
 000902 1B00/1F11                   5606     572.              STATUS 0,IC:GPWPERM,(15),(14)
 000906 4310 C005/0AF1       00005  5619             +
 00090C 47FF 71BC            0091C  5633     573.              B     *+16(15)
 000910 47F0 61A2            02354  5634     574.              B     NOFILSYS                -12 FILE SYSTEM NOT AVAILABLE
 000914 47F0 630A            024BC  5635     575.              B     ILLGRP                  -8 ILLEGAL GROUP NAME
 000918 47F0 61CA            0237C  5636     576.              B     TOOMANY                 -4 TOO MANY DEVICES ATTACHED
 00091C 47F0 71C4            00924  5637     577.              B     *+8                      0 OPERATION STARTED
 000920 47F0 61D6            02388  5638     578.              B     NONOWN                   4 ATTEMPT TO ALTER OWNING GROUP
 000924 0AF2                        5639     579.              WAIT  (0)
 000926 47FF 71CA            0092A  5647     580.              B     *+4(15)
 00092A 47F0 6062            02214  5648     581.              B     FSUB0                    0 GOOD COMPLETION
 00092E 47F0 62FE            024B0  5649     582.              B     DONTHAVE                 4 DOESN'T HAVE PRIVILEGES
 000932 47F0 630A            024BC  5650     583.              B     ILLGRP                   8 ILLEGAL GROUP
 000936 47F0 630A            024BC  5651     584.              B     ILLGRP                  12 ILLEGAL GROUP
 00093A 47F0 623C            023EE  5652     585.              B     NODSPACE                16 FILE DIRECTORY FULL
1VSUB     (VSUB00) (09:50) (22MAR04) ORVYL'S COMMAND PROCESSOR FILE SUBROUTINES                                             Page   45
0Current Usings:  (FSUB#COM,R6) (*,R7) (CLW,R10) (GPW,R12)
0Loc    Object Code    Addr1 Addr2  Stmt Lv Lineno    Source Statement           (Hibal 5, Asmedit 3.3)  HLASM R4.0  2004/03/22 09.50
+___    ______ ____    _____ _____  ____ __ ______    ______ _________
0                                   5654     587.     *  ESTABLISH PRIVILEGES FOR PUBLIC (STATUS 1)
                                    5655     588.     *
 00093E                             5656     589.     PUBLIC   LABEL ,
 00093E 4100 0001/1F11       00001  5658     590.              STATUS 1,IC:GPWPERM
 000944 4310 C005/0AF1       00005  5674             +
 00094A 47F0 7200            00960  5684     591.              B     STATCHK                 JOIN RETURN CHECK CODE
-
                                    5686     593.     *  SENSE FILES (STATUS 2)
                                    5687     594.     *
 00094E                             5688     595.     SENFILE  LABEL ,
 00094E 4100 0002            00002  5690     596.              STATUS 2,L:GPWBUFA,2048,GPWFGRP
 000952 5810 C038            00038  5702             +
 000956 41F0 0800            00800  5709             +
 00095A 41E0 C0C8/0AF1       000C8  5716             +
 000960 47FF 7210            00970  5719     597.     STATCHK  B     *+16(15)
 000964 47F0 61A2            02354  5720     598.              B     NOFILSYS                -12 FILE SYSTEM NOT AVAILABLE
 000968 47F0 6118            022CA  5721     599.              B     ILLNAME                 -8 ILLEGAL FILE NAME
 00096C 47F0 61CA            0237C  5722     600.              B     TOOMANY                 -4 TOO MANY DEVICES ATTACHED
 000970 0AF2                        5723     601.              WAIT  (0)
 000972 47FF 7216            00976  5731     602.              B     *+4(15)
 000976 47F0 6062            02214  5732     603.              B     FSUB0                    0 GOOD COMPLETION
 00097A 47F0 630A            024BC  5733     604.              B     ILLGRP                   4 GROUP DOES NOT EXIST
 00097E 47F0 70CC            0082C  5734     605.              B     FILEXIT                  8 NO FILES EXIST
 000982 47F0 6380            02532  5735     606.              B     NOSHACC                 12 ACCESS NOT PERMITTED
 000986 47F0 70CC            0082C  5736     607.              B     FILEXIT                 16 NO MORE FILES TO SENSE
1VSUB     (VSUB00) (09:50) (22MAR04) ORVYL'S COMMAND PROCESSOR FILE SUBROUTINES                                             Page   46
0Current Usings:  (FSUB#COM,R6) (*,R7) (CLW,R10) (GPW,R12)
0Loc    Object Code    Addr1 Addr2  Stmt Lv Lineno    Source Statement           (Hibal 5, Asmedit 3.3)  HLASM R4.0  2004/03/22 09.50
+___    ______ ____    _____ _____  ____ __ ______    ______ _________
0                                   5738     609.     *  SENSE GROUP MEMBERS (STATUS 3)
                                    5739     610.     *
 00098A                             5740     611.     SENMEM   LABEL ,
 00098A 1BEE                        5742     612.              CLEAR R14                     SET CALLER
 00098C 9102 C003      00003        5746     613.              IF    GPWFAACC,'LA R14,GPWAACCT'
 000990 47E0 7238            00998  5756             +
 000994 41E0 C00D            0000D  5762             +
 000998 41F0 0800            00800  5767     614.              LA    R15,2048                 BUFFER SIZE
 00099C 5810 C038            00038  5768     615.              L     R1,GPWBUFA              BUFFER
 0009A0 4100 0003            00003  5769     616.              LA    R0,3
 0009A4 0AF1                        5770     617.     STAT3OR4 STATUS (0),(1),(15),(14)
 0009A6 4770 7200            00960  5794     618.              BNZ   STATCHK                 SAME STATUS ERRORS
 0009AA 0AF2                        5795     619.              WAIT  (0)
 0009AC 47FF 7250            009B0  5803     620.              B     *+4(15)
 0009B0 47F0 6062            02214  5804     621.              B     FSUB0                    0 GOOD COMPLETION
 0009B4 47F0 630A            024BC  5805     622.              B     ILLGRP                   4 GROUP DOES NOT EXIST
 0009B8 47F0 6380            02532  5806     623.              B     NOSHACC                  8 ACCESS NOT PERMITTED
-
                                    5808     625.     *  SENSE SPACE (STATUS 4)
                                    5809     626.     *
 0009BC                             5810     627.     SENSP    LABEL ,
 0009BC 1B11                        5812     628.              CLEAR R1                      ASSUME CALLER
 0009BE 9104 C003      00003        5816     629.              IF    GPWFACC,'LA R1,GPWACCT' POIN TO GROUP
 0009C2 47E0 726A            009CA  5826             +
 0009C6 4110 C007            00007  5832             +
 0009CA 4100 0004            00004  5837     630.              LA    R0,4
 0009CE 47F0 7244            009A4  5838     631.              B     STAT3OR4                DO STATUS 4
1VSUB     (VSUB00) (09:50) (22MAR04) ORVYL'S COMMAND PROCESSOR FILE SUBROUTINES                                             Page   47
0Current Usings:  (FSUB#COM,R6) (*,R7) (CLW,R10) (GPW,R12)
0Loc    Object Code    Addr1 Addr2  Stmt Lv Lineno    Source Statement           (Hibal 5, Asmedit 3.3)  HLASM R4.0  2004/03/22 09.50
+___    ______ ____    _____ _____  ____ __ ______    ______ _________
0                                   5840     633.     *  MISCELLANEOUS TERMINAL CONTROLS
                                    5841     634.     *
 0009D2                             5842     635.     RESETWMW LABEL ,                       RESET WYLBUR MODE WORD
 0009D2 1BFF                        5844     636.              CLEAR R15
 0009D4 9120 A22B      0022B        5848     637.              TM    CLWWLMOD+3,WSSBRK       NO CHANGES IN SESSION BREAK?
 0009D8 4780 7294            009F4  5849     638.              BZ    SETWMW                  DOESN'T CARE
 0009DC 41F0 001C            0001C  5850     639.              LA    R15,WPRHBT+WNNUMB+WNALGN
 0009E0 47F0 7294            009F4  5851     640.              B     SETWMW
                                    5852     641.
 0009E4                             5853     642.     SETPREST LABEL ,
 0009E4 41F0 0001            00001  5855     643.              LA    R15,WPREST              SET EDIT FORMAT
 0009E8 9120 A22B      0022B        5856     644.              TM    CLWWLMOD+3,WSSBRK       CHANGES DURING SESSION BREAK?
 0009EC 4780 7294            009F4  5857     645.              BZ    SETWMW                  YES
 0009F0 41F0 F01C            0001C  5858     646.              LA    R15,@R15+WPRHBT+WNNUMB+WNALGN
 0009F4                             5859     647.     SETWMW   LABEL ,                       SET WYLBUR MODE WORD
 0009F4 4110 000C            0000C  5861     648.              LA    R1,12
 0009F8 47F0 72D0            00A30  5862     649.              B     TERMCON
                                    5863     650.
 0009FC                             5864     651.     SENWMW   LABEL ,                       SENSE WYLBUR MODE WORD
 0009FC 4110 000D            0000D  5866     652.              LA    R1,13
 000A00 47F0 72D0            00A30  5867     653.              B     TERMCON
                                    5868     654.
 000A04                             5869     655.     SENSWDS  LABEL ,                       SENSE SIZE OF WDS
 000A04 4110 000E            0000E  5871     656.              LA    R1,14
 000A08 47F0 72D0            00A30  5872     657.              B     TERMCON
                                    5873     658.
 000A0C                             5874     659.     SENFWDS  LABEL ,                       SENSE FIRST LINE OF WDS
 000A0C 4110 000F            0000F  5876     660.              LA    R1,15
 000A10 47F0 72D0            00A30  5877     661.              B     TERMCON
                                    5878     662.
 000A14                             5879     663.     SENLWDS  LABEL ,                       SENSE LAST LINE OF WDS
 000A14 4110 0010            00010  5881     664.              LA    R1,16
 000A18 47F0 72D0            00A30  5882     665.              B     TERMCON
                                    5883     666.
 000A1C                             5884     667.     CLRWDS   LABEL ,                       CLEAR WDS (TEXT)
 000A1C 4110 0011            00011  5886     668.              LA    R1,17
 000A20 47F0 72D0            00A30  5887     669.              B     TERMCON
                                    5888     670.
 000A24                             5889     671.     ABWYL    LABEL ,                       ABORT CURRENT WYLBUR COMMAND
 000A24 4110 0012            00012  5891     672.              LA    R1,18
 000A28 47F0 72D0            00A30  5892     673.              B     TERMCON
                                    5893     674.
 000A2C                             5894     675.     GETDELTA LABEL ,
 000A2C 4110 001C            0001C  5896     676.              LA    R1,28                   GET WYLBUR LINE DELTA
                                    5897     677.
 000A30                             5898     678.     TERMCON  LABEL ,
 000A30 4100 0001/0AF5       00001  5900     679.              CONTROL LA:1,(1),(15)
 000A36 4770 6374            02526  5922     680.              BNZ   NOWYL                   -12 WYLBUR NOT AVAILABLE
 000A3A 0AF2                        5923     681.              WAIT  (0)
 000A3C 4780 6062            02214  5931     682.              BZ    FSUB0                    0 GOOD COMPLETION
 000A40 47F0 6368            0251A  5932     683.              B     VOID                     4 VOID RANGE
1VSUB     (VSUB00) (09:50) (22MAR04) ORVYL'S COMMAND PROCESSOR FILE SUBROUTINES                                             Page   48
0Current Usings:  (FSUB#COM,R6) (*,R7) (CLW,R10) (GPW,R12)
0Loc    Object Code    Addr1 Addr2  Stmt Lv Lineno    Source Statement           (Hibal 5, Asmedit 3.3)  HLASM R4.0  2004/03/22 09.50
+___    ______ ____    _____ _____  ____ __ ______    ______ _________
0                                   5934     685.     *  DO MISCELLANEOUS CHORES (CONTROLS 0-7,10-19)
                                    5935     686.     *
 000A44 58F0 C0C0            000C0  5936     687.     CREC     L     R15,GPWBN               BLOCK NUMBER
 000A48 4510 73DA/0000       00B3A  5937     688.              CNTRLCOD 0                    CREATE A BLOCK
                                    5940     689.
 000A4E 4510 73DA/0001       00B3A  5941     690.     DELREC   CNTRLCOD 1                    DELETE ONE BLOCK
                                    5944     691.
 000A54 4510 73DA/0002       00B3A  5945     692.     DELLOTS  CNTRLCOD 2                    DELETE A SERIES OF BLOCKS
                                    5948     693.
 000A5A 4510 73DA/0003       00B3A  5949     694.     SENREC   CNTRLCOD 3                     SENSE EXISTENCE OF ONE BLOCK
                                    5952     695.
 000A60 4510 73DA/0004       00B3A  5953     696.     SENFREC  CNTRLCOD 4                     SENSE NUMBER OF FIRST REC
                                    5956     697.
 000A66 4510 73DA/0005       00B3A  5957     698.     SENLREC  CNTRLCOD 5                     SENSE NUMBER OF LAST BLOCK
                                    5960     699.
 000A6C 4510 73DA/0006       00B3A  5961     700.     SENNREC  CNTRLCOD 6                     SENSE NUMBER OF BLOCKS
                                    5964     701.
 000A72 47F0 6064            02216  5965     702.     FORCE    B     FSUBX                   FORCE IXR DELETED
                                    5966     703.
 000A76 4510 73DA/000A       00B3A  5967     704.     DOPUBPER CNTRLCOD 10                    SET PUBLIC PRIVILEGES
                                    5970     705.
 000A7C 58F0 C038            00038  5971     706.     SENUPRV  L     R15,GPWBUFA             SENSE ALL USER PRIVILEGES
 000A80 41E0 0800            00800  5972     707.              LA    R14,2048
 000A84 4510 73DA/000B       00B3A  5973     708.              CNTRLCOD 11
                                    5976     709.
 000A8A 4510 73DA/000C       00B3A  5977     710.     SETSHR   CNTRLCOD 12                    SET ATTACHABILITY STATUS
                                    5980     711.
 000A90 4510 73DA/000D       00B3A  5981     712.     SENSHR   CNTRLCOD 13                   SENSE ATTACHABILITY STATUS
                                    5984     713.
 000A96 4110 000E            0000E  5985     714.     SETUINFO LA    R1,14                   SET USER INFORMATION FIELD
 000A9A 9110 C08C      0008C        5986     715.              IF    GPWFFMT,'LCR  R1,R1'    SET MODE=FORMAT
 000A9E 47E0 7344/1311       00AA4  5996             +
 000AA4 58F0 C0B8            000B8  6007     716.              L     R15,GPWUINFO
 000AA8 47F0 73DE            00B3E  6008     717.              B     CONTCOM
1VSUB     (VSUB00) (09:50) (22MAR04) ORVYL'S COMMAND PROCESSOR FILE SUBROUTINES                                             Page   49
0Current Usings:  (FSUB#COM,R6) (*,R7) (CLW,R10) (GPW,R12)
0Loc    Object Code    Addr1 Addr2  Stmt Lv Lineno    Source Statement           (Hibal 5, Asmedit 3.3)  HLASM R4.0  2004/03/22 09.50
+___    ______ ____    _____ _____  ____ __ ______    ______ _________
0                                   6010     719.     *
 000AAC                             6011     720.     SENUINFO LABEL ,                        SENSE USER INFORMATION FIELD
 000AAC 9108 C08C      0008C        6013     721.              IF    GPWFVOSF,BEGIN
 000AB0 47E0 739E            00AFE  6023             +
 000AB4 5800 C0B8            000B8  6028  1  722.                L     R0,GPWUINFO             FAKE FOR OS FILES
 000AB8 D201 C0BA C102 000BA 00102  6029  1  723.                MVC   GPWUILRC(2),OSFLRECL                    LRECL
 000ABE 9180 C100      00100        6030  1  724.                IF    OSFRCFMF,'SET GPWUIFLR'  FIXED
 000AC2 47E0 736A            00ACA  6040  1          +
 000AC6 9604 C0B8      000B8        6051  1          +
 000ACA 9104 C08C      0008C        6056  1  725.                IF    GPWOSFED,'SET GPWUIFE'   EDIT
 000ACE 47E0 7376            00AD6  6066  1          +
 000AD2 9601 C0B8      000B8        6077  1          +
 000AD6 9102 C0FF      000FF        6082  1  726.                IF    OSFPO,'SET GPWUILIB'     PDS
 000ADA 47E0 7382            00AE2  6092  1          +
 000ADE 9680 C0B8      000B8        6103  1          +
 000AE2 9104 C0B4      000B4        6108  1  727.                IF    GPWLLDMD,BEGIN          LOAD FILE
 000AE6 47E0 7392            00AF2  6118  1          +
 000AEA 94FB C0B4      000B4        6123  2  728.                  CLEAR GPWLLDMD
 000AEE 9640 C0B8      000B8        6130  2  729.                  SET   GPWUILDF
 000AF2                             6136  1  730.                END
 000AF2 5810 C0B8            000B8  6140  1  731.                L     R1,GPWUINFO
 000AF6 5000 C0B8            000B8  6141  1  732.                ST    R0,GPWUINFO
 000AFA 47F0 6062            02214  6142  1  733.                B     FSUB0
 000AFE                             6143     734.              END
0000AFE 4510 73DA/000F       00B3A  6148     736.              CNTRLCOD 15
                                    6151     737.
 000B04 4510 73DA/0010       00B3A  6152     738.     DOSETCLP CNTRLCOD 16                    SET CLP STATUS
                                    6155     739.
 000B0A 4510 73DA/0011       00B3A  6156     740.     DOSENCLP CNTRLCOD 17                    SENSE CLP STATUS
                                    6159     741.
 000B10 4510 73DA/0012       00B3A  6160     742.     SETLDF   CNTRLCOD 18                    SET LOADFILE(PROTECTED) STATUS
                                    6163     743.
 000B16 4510 73DA/0013       00B3A  6164     744.     SENLDF   CNTRLCOD 19                    SENSE PROTECTED STATUS
                                    6167     745.
 000B1C 4510 73DA/0014       00B3A  6168     746.     SENMODE  CNTRLCOD 20                    SENSE IXR/NON-IXR MODE
                                    6171     747.
 000B22 4510 73DA/0015       00B3A  6172     748.     DOSETSPI CNTRLCOD 21                   SET SPIRES STATUS
                                    6175     749.
 000B28 4510 73DA/0016       00B3A  6176     750.     DOSENSPI CNTRLCOD 22                   SENSE SPIRES STATUS
                                    6179     751.
 000B2E 4510 73DA/0017       00B3A  6180     752.     SENBLKSZ CNTRLCOD 23                   Sense Blocksize
                                    6183     753.
 000B34 4510 73DA/0018       00B3A  6184     754.     SENNRECH CNTRLCOD 24                   Sense max number data blocks
1VSUB     (VSUB00) (09:50) (22MAR04) ORVYL'S COMMAND PROCESSOR FILE SUBROUTINES                                             Page   50
0Current Usings:  (FSUB#COM,R6) (*,R7) (CLW,R10) (GPW,R12)
0Loc    Object Code    Addr1 Addr2  Stmt Lv Lineno    Source Statement           (Hibal 5, Asmedit 3.3)  HLASM R4.0  2004/03/22 09.50
+___    ______ ____    _____ _____  ____ __ ______    ______ _________
0                                   6188     756.     *
 000B3A                             6189     757.     DOCONTRL LABEL ,
 000B3A 4810 1000            00000  6191     758.              LH    R1,0(,R1)
                                    6192     759.
 000B3E                             6193     760.     CONTCOM  LABEL ,                       COMMON CONTROL SVC
 000B3E 9108 C08C      0008C        6195     761.              IF    GPWFVOSF,FSUB0          NO-OP CONTROLS FOR OS FILES
 000B42 4710 6062            02214  6207             +
                                    6213     762.     *$       IS    THIS OK                 ,WE NOOP DELETE BLOCKS ETC, OK
 000B46 1F00/4300 C08D       0008D  6214     763.              LC    R0,GPWFID                NORMAL ID
 000B4C 9140 C000      00000        6219     764.              IF    GPWFALTF,' IC R0,GPWAFID'
 000B50 47E0 73F8            00B58  6229             +
 000B54 4300 C12D            0012D  6235             +
 000B58 4D90 6070            02222  6240     765.              LCALL SAVRETRY                SET UP FOR RETRY
 000B5C 0AF5                        6242     766.              CONTROL (0),(1),(15),(14)
 000B5E 4740 61A2            02354  6266     767.              BM    NOFILSYS                -12 FILE SYSTEM NOT AVAIL.
 000B62 4720 61D6            02388  6267     768.              BP    NONOWN                  4 CONTROLS 10 12 16
 000B66 0AF2                        6268     769.     CONTWAIT WAIT  (0)
 000B68 47FF 7418            00B78  6277     770.              B     *+16(15)
 000B6C 47F0 61A2            02354  6278     771.              B     NOFILSYS               -12 FILE SYSTEM UNAVAILABLE
 000B70 47F0 61A2            02354  6279     772.              B     NOFILSYS                -8 FILE SYSTEM UNAVAILABLE
 000B74 47F0 62C2            02474  6280     773.              B     IOERR                   -4 PERMANENT I/O ERROR
 000B78 47F0 6064            02216  6281     774.              B     FSUBX                    0 GOOD COMPLETION
 000B7C 47F0 607E            02230  6282     775.              B     UNAVAIL                  4 NOT IMMEDIATELY AVAIL
 000B80 47F0 63AC            0255E  6283     776.              B     NOACCESS                 8 ACCESS NOT PERMITTED
 000B84 47F0 6064            02216  6284     777.              B     FSUBX                   12 MEANINGFUL INFO
 000B88 47F0 6248            023FA  6285     778.              B     NOUSPACE                16 USER ALLOCATION EXHAUSTED
 000B8C 47F0 623C            023EE  6286     779.              B     NODSPACE                20 DISK SPACE EXHAUSTED
 000B90 47F0 6118            022CA  6287     780.              B     ILLNAME                 24 INVALID FOR CONTIGUOUS FILES
 000B94 47F0 6064            02216  6288     781.              B     FSUBX                   28 MEANINGFUL INFO
1VSUB     (VSUB00) (09:50) (22MAR04) ORVYL'S COMMAND PROCESSOR FILE SUBROUTINES                                             Page   51
0Current Usings:  (FSUB#COM,R6) (*,R7) (CLW,R10) (GPW,R12)
0Loc    Object Code    Addr1 Addr2  Stmt Lv Lineno    Source Statement           (Hibal 5, Asmedit 3.3)  HLASM R4.0  2004/03/22 09.50
+___    ______ ____    _____ _____  ____ __ ______    ______ _________
0                                   6290     783.     *  DO ERASE OR RENAME (CONTROL 8)
                                    6291     784.     *
 000B98                             6292     785.     DOERASE  LABEL ,
 000B98 9108 C08C      0008C        6294     786.              IF    GPWFVOSF,ERASEOS
 000B9C 4710 74AC            00C0C  6306             +
 000BA0 1BFF                        6312     787.              CLEAR R15                     NO FILE NAME
 000BA2 1BEE                        6316     788.              CLEAR R14
 000BA4 47F0 745A            00BBA  6320     789.              B     CONEIGHT
 000BA8                             6321     790.     DORENAME LABEL ,
 000BA8 9108 C08C      0008C        6323     791.              IF    GPWFVOSF,RENAMEOS
 000BAC 4710 74D4            00C34  6335             +
 000BB0 41F0 C0C4            000C4  6341     792.              LA    R15,GPWFILN            NW FILE NAME
 000BB4 1FEE/43E0 C08E       0008E  6342     793.              LC    R14,GPWFNL                NEW FILE NAME LEN
 000BBA 1F00/4300 C08D       0008D  6349     794.     CONEIGHT LC    R0,GPWFID                FILE ID
 000BC0 9140 C000      00000        6354     795.              IF    GPWFALTF,' IC R0,GPWAFID'
 000BC4 47E0 746C            00BCC  6364             +
 000BC8 4300 C12D            0012D  6370             +
                                    6375     796.
 000BCC 4D90 6070            02222  6376     797.              LCALL SAVRETRY                SET UP FOR RETRY
 000BD0 4110 0008/0AF5       00008  6378     798.              CONTROL (0),8,(15),(14)
 000BD6 47FF 7486            00BE6  6404     799.              B     *+16(15)
 000BDA 47F0 61A2            02354  6405     800.              B     NOFILSYS                -12 FILE SYSTEM NOT AVAIL.
 000BDE 47F0 6118            022CA  6406     801.              B     ILLNAME                 -8 ILLEGAL NAME
 000BE2 47F0 620C            023BE  6407     802.              B     ATTEXCLU                -4 FILE ATTACHED MODE=SHR
 000BE6 47F0 748E            00BEE  6408     803.              B     CON8WAIT
 000BEA 47F0 62F2            024A4  6409     804.              B     ACCTCHNG
0000BEE 0AF2                        6411     806.     CON8WAIT WAIT  (0)
 000BF0 47FF 7498            00BF8  6420     807.              B     *+8(15)
 000BF4 47F0 62C2            02474  6421     808.              B     IOERR                   -4 PERMANENT I/O ERROR
 000BF8 47F0 6064            02216  6422     809.              B     FSUBX                    0 GOOD RETURN
 000BFC 47F0 62B0            02462  6423     810.              B     ISATT                    4 FILE ALREADY ATTACHED
 000C00 47F0 63AC            0255E  6424     811.              B     NOACCESS                 8 ACCESS TO FILE ILLEGAL
 000C04 47F0 621E            023D0  6425     812.              B     EXISTS                  12 FILE NAME ALREADY EXISTS
 000C08 47F0 623C            023EE  6426     813.              B     NODSPACE                16 NO SPACE REMAINS IN DIRECTORY
1VSUB     (VSUB00) (09:50) (22MAR04) ORVYL'S COMMAND PROCESSOR FILE SUBROUTINES                                             Page   52
0Current Usings:  (FSUB#COM,R6) (*,R7) (CLW,R10) (GPW,R12)
0Loc    Object Code    Addr1 Addr2  Stmt Lv Lineno    Source Statement           (Hibal 5, Asmedit 3.3)  HLASM R4.0  2004/03/22 09.50
+___    ______ ____    _____ _____  ____ __ ______    ______ _________
0                                   6428     815.     *
                                    6429     816.     * OS/FILE ERASE AND RENAME
                                    6430     817.     *
                                    6431     818.     *$ NO ALTERNATE FILE ID PROCESSING
                                    6432     819.     *$ FILE MUST NOT BE ATTACHED; SKIP ATTACH IN VGP, ETC
                                    6433     820.     *
 000C0C                             6434     821.     ERASEOS  LABEL ,
 000C0C 47F0 6298            0244A  6436     822.              B     NOOSFIL2
 000C10 4100 0002            00002  6437     822.1             SERVICE 2,GPWFILN,IC:GPWFNL,OSFVOL,MODE=FULLDSN
 000C14 4110 C0C4/1311       000C4  6451             +
 000C1A 1FFF/43F0 C08E       0008E  6460             +
 000C20 41E0 C0F8/0AF0       000F8  6469             +
 000C26 4770 6278            0242A  6473     823.              BNZ   HOTERROS
 000C2A 0AF2                        6474     824.              WAIT  (0)
 000C2C 4780 6062            02214  6482     825.              BZ    FSUB0
 000C30 47F0 6266            02418  6483     826.              B     ERROS
-
 000C34                             6485     828.     RENAMEOS LABEL ,
 000C34 47F0 6298            0244A  6487     829.              B     NOOSFIL2
 000C38 4100 0003            00003  6488     829.1             SERVICE 3,GPWAFN,GPWFILN,OSFVOL,MODE=(FULLDSN,FULLDSN2)
 000C3C 4110 C164/1311       00164  6502             +
 000C42 41F0 C0C4/13FF       000C4  6510             +
 000C48 41E0 C0F8/0AF0       000F8  6518             +
 000C4E 4770 6278            0242A  6522     830.              BNZ   HOTERROS
 000C52 0AF2                        6523     831.              WAIT  (0)
 000C54 4780 6062            02214  6531     832.              BZ    FSUB0
 000C58 47F0 6266            02418  6532     833.              B     ERROS
                                    6533     834.     *$ CHECK ERROR RETURNS
1VSUB     (VSUB00) (09:50) (22MAR04) ORVYL'S COMMAND PROCESSOR FILE SUBROUTINES                                             Page   53
0Current Usings:  (FSUB#COM,R6) (*,R7) (CLW,R10) (GPW,R12)
0Loc    Object Code    Addr1 Addr2  Stmt Lv Lineno    Source Statement           (Hibal 5, Asmedit 3.3)  HLASM R4.0  2004/03/22 09.50
+___    ______ ____    _____ _____  ____ __ ______    ______ _________
0                                   6535     836.     *  SET USER PRIVILEGES (CONTROL 9)
                                    6536     837.     *
 000C5C                             6537     838.     DOPERM   LABEL ,
 000C5C 1FFF/43F0 C005       00005  6539     839.              LC    R15,GPWPERM
 000C62 9108 C003      00003        6546     840.              IF    GPWFPUB,DOPUBPER        PUBLIC?
 000C66 4710 7316            00A76  6558             +
 000C6A 1BEE                        6564     841.              CLEAR R14                     TRY IT
 000C6C 9104 C003      00003        6568     842.              IF    GPWFACC,'LA R14,GPWACCT' POINT AT GROUP
 000C70 47E0 7518            00C78  6578             +
 000C74 41E0 C007            00007  6584             +
 000C78 1F00/4300 C08D       0008D  6589     843.              CONTROL IC:GPWFID,9,(15),(14)
 000C7E 4110 0009/0AF5       00009  6604             +
 000C84 47FF 7534            00C94  6618     844.              B     *+16(15)
 000C88 47F0 61A2            02354  6619     845.              B     NOFILSYS                -12 FILE SYSTEM NOT AVAIL.
 000C8C 47F0 630A            024BC  6620     846.              B     ILLGRP                  -8 GROUP NAME ILLEGAL
 000C90 47F0 62B0            02462  6621     847.              B     ISATT                   -4 FILE ALREADY ATTACHED
 000C94 47F0 753C            00C9C  6622     848.              B     *+8                      0 GOOD START
 000C98 47F0 61D6            02388  6623     849.              B     NONOWN                   4 NON OWNER TRYING TO CHANGE
 000C9C 0AF2                        6624     850.              WAIT  (0)
 000C9E 47FF 7546            00CA6  6632     851.              B     *+8(15)
 000CA2 47F0 62C2            02474  6633     852.              B     IOERR                   -4 PERMANENT I/O ERROR
 000CA6 47F0 6062            02214  6634     853.              B     FSUB0                    0 GOOD COMPLETION
 000CAA 47F0 62B0            02462  6635     854.              B     ISATT                    4 NOT IMMEDIATELY AVAILABLE
 000CAE 47F0 62FE            024B0  6636     855.              B     DONTHAVE                 8 CAN ONLY EXTEND PRIVS HE HAS
 000CB2 47F0 630A            024BC  6637     856.              B     ILLGRP                  12 ILLEGAL GROUP
 000CB6 47F0 623C            023EE  6638     857.              B     NODSPACE                16 FILE DIRECTORY FULL
1VSUB     (VSUB00) (09:50) (22MAR04) ORVYL'S COMMAND PROCESSOR FILE SUBROUTINES                                             Page   54
0Current Usings:  (FSUB#COM,R6) (*,R7) (CLW,R10) (GPW,R12)
0Loc    Object Code    Addr1 Addr2  Stmt Lv Lineno    Source Statement           (Hibal 5, Asmedit 3.3)  HLASM R4.0  2004/03/22 09.50
+___    ______ ____    _____ _____  ____ __ ______    ______ _________
0000CC0                             6640     859.              LTORG ,
 000CC0 00000000                    6642                             =V(FREECLW)
 000CC4 00003000                    6643                             =A(L'GPW)
 000CC8 00000000       00CCC 02D08  6644                             =V(VWRITE)
1VSUB     (VSUB00) (09:50) (22MAR04) ORVYL'S COMMAND PROCESSOR FILE SUBROUTINES                                             Page   55
0Current Usings:  (FSUB#COM,R6) (*,R7) (CLW,R10) (GPW,R12)
0Loc    Object Code    Addr1 Addr2  Stmt Lv Lineno    Source Statement           (Hibal 5, Asmedit 3.3)  HLASM R4.0  2004/03/22 09.50
+___    ______ ____    _____ _____  ____ __ ______    ______ _________
0                                   6650     862.              FSCALL FSUB#4                 GENERATE SEGMENT 4
 000CCC                             6651    01-FSCAL +FSUB#4   DS    0H
 000CCC 0D70                        6654    02-BASE  +         BASR  7,0
 000CCE                             6657    04-00068 +$$$137B      DS 0X
 DROP   *,R7                        6664    06-00180 +       $$USING @R7,7
 USING  *,R7                        6667    04-00180 +       $$USING $$$137B,7
 000CCE 5855 7006            00CD4  6669    01-FSCAL +         L     FSUBR,FSUB#4L(FSUBR)    GET ROUTINE ADDRESS
 000CD2 07F5                        6670    01-FSCAL +         BR    FSUBR                   ENTER ROUTINE
 000CD4                             6671    01-FSCAL +         CNOP  0,4                     ALIGNMENT
 000CD4                             6672    01-FSCAL +FSUB#4L  DS    0H
 000CD4 00000D08                    6673    01-FSCAL +         DC    A(READWDS)
 000CD8 00000D52                    6674    01-FSCAL +         DC    A(WRITEWDS)
 000CDC 00000D94                    6675    01-FSCAL +         DC    A(READ)
 000CE0 00000DA0                    6676    01-FSCAL +         DC    A(REDNOIDL)
 000CE4 00000DB4                    6677    01-FSCAL +         DC    A(READGO)
 000CE8 00000E5C                    6678    01-FSCAL +         DC    A(WRITE)
 000CEC 00000E60                    6679    01-FSCAL +         DC    A(WRITEGO)
 000CF0 00000E90                    6680    01-FSCAL +         DC    A(WRITERR)
 000CF4 00000ED4                    6681    01-FSCAL +         DC    A(BSPACE)
 000CF8 00000F12                    6682    01-FSCAL +         DC    A(ENQ)
 000CFC 00000F28                    6683    01-FSCAL +         DC    A(DEQ)
 000D00 00000F34                    6684    01-FSCAL +         DC    A(GETCAT)
 000D04 00000FDE                    6685    01-FSCAL +         DC    A(RELCAT)
1VSUB     (VSUB00) (09:50) (22MAR04) ORVYL'S COMMAND PROCESSOR FILE SUBROUTINES                                             Page   56
0Current Usings:  (FSUB#COM,R6) (*,R7) (CLW,R10) (GPW,R12)
0Loc    Object Code    Addr1 Addr2  Stmt Lv Lineno    Source Statement           (Hibal 5, Asmedit 3.3)  HLASM R4.0  2004/03/22 09.50
+___    ______ ____    _____ _____  ____ __ ______    ______ _________
0                                   6688     865.     *
                                    6689     866.     *  READ WYLBUR WORKING DATA SET
                                    6690     867.     *
 000D08                             6691     868.     READWDS  LABEL ,
 000D08 5810 A000            00000  6693     869.              L     R1,CLWSCP
 USING  SCP,R1                      6694     870.              WITH  (SCP,R1),BEGIN
 000D0C 9140 1261      00261        6708  1  871.                IF    SCBCFCLA,IDLEATTN       BR ON IDLE ATTN
 000D10 4710 63C4            02576  6720  1          +
 DROP   SCP,R1                      6726     872.              END   ,
 000D14 5810 C038            00038  6734     873.              L     R1,GPWBUFA              ASSUME STANDARD READ
 000D18 58F0 C034            00034  6735     874.              L     R15,GPWLREC
 000D1C 9102 C006      00006        6736     875.              IF    GPWGPFHX,'LA 1,GPWHXBUF'      HEX
 000D20 47E0 705A            00D28  6746             +
 000D24 4110 C800            00800  6752             +
 000D28 9104 C08C      0008C        6757     876.              IF    GPWOSFED,BEGIN         IF OS EDIT, NEED HEADER ROOM
 000D2C 47E0 706A            00D38  6767             +
 000D30 4110 1002            00002  6772  1  877.                LA    R1,@R1+2
 000D34 5BF0 731A            00FE8  6773  1  878.                S     R15,=F'2'
 000D38                             6774     879.              END
 000D38 5010 C03C            0003C  6778     880.              ST    R1,GPWDATAD
 000D3C 4100 0001/1311       00001  6779     881.              READ  LA:1,(1),(15),GPWOPT,MODE=TEXT
 000D42 41E0 C018/0AF7       00018  6800             +
 000D48 4770 6374            02526  6804     882.              BNZ   NOWYL               -12 WYLBUR NOT AVAILABLE
 000D4C 0AF2                        6805     883.              WAIT  (0)
 000D4E 47F0 6064            02216  6813     884.              B     FSUBX                 0 GOOD COMPLETION
                                    6814     885.     *                                    4 VOID OR END OF RANGE
1VSUB     (VSUB00) (09:50) (22MAR04) ORVYL'S COMMAND PROCESSOR FILE SUBROUTINES                                             Page   57
0Current Usings:  (FSUB#COM,R6) (*,R7) (CLW,R10) (GPW,R12)
0Loc    Object Code    Addr1 Addr2  Stmt Lv Lineno    Source Statement           (Hibal 5, Asmedit 3.3)  HLASM R4.0  2004/03/22 09.50
+___    ______ ____    _____ _____  ____ __ ______    ______ _________
0                                   6816     887.     *  WRITE WYLBUR WORKING DATA SET
                                    6817     888.     *
 000D52                             6818     889.     WRITEWDS LABEL ,
 000D52 4100 0001/1311       00001  6820     890.              WRITE LA:1,(1),L:GPWOPT,L:GPWLREC,MODE=TEXT
 000D58 58F0 C018            00018  6834             +
 000D5C 58E0 C034/0AF6       00034  6839             +
 000D62 4770 6374            02526  6843     891.              BNZ   NOWYL                   -12 WYLBUR NOT AVAILABLE
 000D66 0AF2                        6844     892.              WAIT  (0)
 000D68 47FF 709E            00D6C  6852     893.              B     *+4(15)
 000D6C 47F0 6062            02214  6853     894.              B     FSUB0                    0 COMPLETE
 000D70 47F0 6062            02214  6854     895.              B     FSUB0                    4 COMPLETE, LINE > DELTA
 000D74 47F0 70BE            00D8C  6855     896.              B     WRWDSTRN                 8 COMPLETE, LINE TRUNCATED
 000D78 47F0 63D8            0258A  6856     897.              B     WDSFULL                 12 WORKING DATA SET FULL
 000D7C 47F0 63CC            0257E  6857     898.              B     REQABORT                16 LINE NOT THERE
 000D80 47F0 6424            025D6  6858     899.              B     NOREP                   20 LINE ALREADY THERE
 000D84 47F0 63E4            02596  6859     900.              B     BADFORM                 24 INVALID DATA
 000D88 47F0 63E4            02596  6860     901.              B     BADFORM                 28 LINE NUMBER TOO LARGE
                                    6861     902.
 000D8C 9680 C001      00001        6862     903.     WRWDSTRN SET   GPWFTRN                 SET SOME LINE TRUNCATED
 000D90 47F0 6064            02216  6869     904.              B     FSUBX
                                    6870     905.
1VSUB     (VSUB00) (09:50) (22MAR04) ORVYL'S COMMAND PROCESSOR FILE SUBROUTINES                                             Page   58
0Current Usings:  (FSUB#COM,R6) (*,R7) (CLW,R10) (GPW,R12)
0Loc    Object Code    Addr1 Addr2  Stmt Lv Lineno    Source Statement           (Hibal 5, Asmedit 3.3)  HLASM R4.0  2004/03/22 09.50
+___    ______ ____    _____ _____  ____ __ ______    ______ _________
0                                   6872     907.     *  READ FILE ROUTINE
                                    6873     908.     *
 000D94                             6874     909.     READ     LABEL ,
 000D94 5810 A000            00000  6876     910.              L     R1,CLWSCP
 USING  SCP,R1                      6877     911.              WITH  (SCP,R1),BEGIN
 000D98 9140 1261      00261        6891  1  912.                IF    SCBCFCLA,IDLEATTN       BR ON IDLE ATTN
 000D9C 4710 63C4            02576  6903  1          +
 DROP   SCP,R1                      6909     913.              END   ,
 000DA0                             6917     914.     REDNOIDL LABEL ,                       BYPASS IDLE ATTN TEST
 000DA0 5810 C038            00038  6919     915.              L     R1,GPWBUFA              STANDARD CLP BUFFER
 000DA4 48F0 C0BC            000BC  6920     916.              LH    R15,GPWBLKSZ             ONE BLOCK IS DEFAULT
 000DA8 9108 C08C      0008C        6921     917.              IF    GPWFVOSF,'LH  R15,OSFBLKSZ'
 000DAC 47E0 70E6            00DB4  6931             +
 000DB0 48F0 C104            00104  6937             +
 000DB4 5010 C03C            0003C  6942     918.     READGO   ST    R1,GPWDATAD
 000DB8 1F00/4300 C08D       0008D  6943     919.              LC    R0,GPWFID                FILE ID
 000DBE 9140 C000      00000        6948     920.              IF    GPWFALTF,' LC  R0,GPWAFID'
 000DC2 47E0 70FE/1F00       00DCC  6958             +
 000DC8 4300 C12D            0012D  6968             +
 000DCC 9108 C08C      0008C        6973     921.              IF    GPWFVOSF,OSREAD
 000DD0 4710 7140            00E0E  6985             +
 000DD4 9108 C001      00001        6991     922.              IF    GPWFNSKP,READNSK
 000DD8 4710 7110            00DDE  7003             +
 000DDC 13FF                        7009     923.              LCR   R15,R15                  SET SKIP MODE
 000DDE 4D90 6070            02222  7010     924.     READNSK  LCALL SAVRETRY                SAVE INFO FOR RETRY
 000DE2 58E0 C0C0/0AF7       000C0  7012     925.              READ  (0),(1),(15),L:GPWBN
 000DE8 4770 61A2            02354  7036     926.              BNZ   NOFILSYS                -12 FILE SYSTEM NOT AVAIL.
 000DEC 0AF2                        7037     927.              WAIT  (0)
 000DEE 50E0 C0C0            000C0  7045     928.              ST    R14,GPWBN               SAVE NEXT REC NUM
 000DF2 47FF 712C            00DFA  7046     929.              B     *+8(15)
 000DF6 47F0 62C2            02474  7047     930.              B     IOERR                   -4 PERMANENT I/O ERROR
 000DFA 47F0 6064            02216  7048     931.              B     FSUBX                    0 GOOD COMPLETION
 000DFE 47F0 607E            02230  7049     932.              B     UNAVAIL                  4 NOT IMMEDIATELY AVAIL
 000E02 47F0 63A4            02556  7050     933.              B     NORACC                   8 READ ACCESS NOT PERMITTED
 000E06 47F0 6064            02216  7051     934.              B     FSUBX                   12 BLOCK DOES NOT EXIST
 000E0A 47F0 6064            02216  7052     935.              B     FSUBX                   16 BLOCK DOES NOT EXIST
1VSUB     (VSUB00) (09:50) (22MAR04) ORVYL'S COMMAND PROCESSOR FILE SUBROUTINES                                             Page   59
0Current Usings:  (FSUB#COM,R6) (*,R7) (CLW,R10) (GPW,R12)
0Loc    Object Code    Addr1 Addr2  Stmt Lv Lineno    Source Statement           (Hibal 5, Asmedit 3.3)  HLASM R4.0  2004/03/22 09.50
+___    ______ ____    _____ _____  ____ __ ______    ______ _________
0                                   7054     937.     *
                                    7055     938.     *  READ OS/FILE
                                    7056     939.     *
 000E0E                             7057     940.     OSREAD   LABEL ,                       READ OS/FILE BLOCK
 000E0E 4D90 6070            02222  7059     941.              LCALL SAVRETRY
 000E12 1BEE/0AF7                   7061     942.              READ  (0),(1),(15)
 000E16 4770 61A2            02354  7084     943.              BNZ   NOFILSYS
 000E1A 0AF2                        7085     944.              WAIT  (0)
 000E1C 4770 717A            00E48  7093     945.              IF    Z,BEGIN
 000E20 9104 C08C      0008C        7104  1  946.                IF    GPWOSFED,BEGIN          EDIT FILE, CHECK LEN HEADER
 000E24 47E0 7176            00E44  7114  1          +
 000E28 5820 C03C            0003C  7119  2  947.                  L     R2,GPWDATAD
 000E2C 4832 0000            00000  7120  2  948.                  LH    R3,0(R2)                DATA LENGTH
 000E30 1931                        7121  2  949.                  CR    R3,R1                   COMPARE LEN IN HEADR - LEN READ
 000E32 4720 63E4            02596  7122  2  950.                  BH    BADFORM
 000E36 1813                        7123  2  951.                  LR    R1,R3
 000E38 4130 0002            00002  7124  2  952.                  LA    R3,2                    SKIP EDIT HEADER
 000E3C 1B13                        7125  2  953.                  SR    R1,R3                   DECR LENGTH, BUMP ADDR
 000E3E 1A23                        7126  2  954.                  AR    R2,R3
 000E40 5020 C03C            0003C  7127  2  955.                  ST    R2,GPWDATAD
 000E44                             7128  1  956.                END   ,
 000E44 47F0 6062            02214  7132  1  957.                B     FSUB0
 000E48                             7133     958.              END
                                    7137     959.     *$  WORRY ABOUT ZERO LENGTH BLOCK READS ????
 000E48 49F0 731E            00FEC  7138     960.              CH    R15,=H'44'              EOF
 000E4C 4770 718A            00E58  7139     961.              IF    E,BEGIN
 000E50 41F0 000C            0000C  7150  1  962.                LA    R15,12
 000E54 47F0 6064            02216  7151  1  963.                B     FSUBX
 000E58                             7152     964.              END
 000E58 47F0 6266            02418  7156     965.              B     ERROS                   REST OF OS ERRORS
1VSUB     (VSUB00) (09:50) (22MAR04) ORVYL'S COMMAND PROCESSOR FILE SUBROUTINES                                             Page   60
0Current Usings:  (FSUB#COM,R6) (*,R7) (CLW,R10) (GPW,R12)
0Loc    Object Code    Addr1 Addr2  Stmt Lv Lineno    Source Statement           (Hibal 5, Asmedit 3.3)  HLASM R4.0  2004/03/22 09.50
+___    ______ ____    _____ _____  ____ __ ______    ______ _________
0                                   7158     967.     *  WRITE FILE ROUTINE
                                    7159     968.     *
 000E5C                             7160     969.     WRITE    LABEL ,
 000E5C 5810 C038            00038  7162     970.              L     R1,GPWBUFA              STANDARD CLP BUFFER
 000E60 1F00/4300 C08D       0008D  7163     971.     WRITEGO  LC    R0,GPWFID                FILE ID
 000E66 9140 C000      00000        7168     972.              IF    GPWFALTF,'LC R0,GPWAFID'
 000E6A 47E0 71A6/1F00       00E74  7178             +
 000E70 4300 C12D            0012D  7188             +
 000E74 4D90 6070            02222  7193     973.              LCALL SAVRETRY                SET UP FOR RETRY
 000E78 9108 C08C      0008C        7195     974.              IF    GPWFVOSF,OSWRITE
 000E7C 4710 71E6            00EB4  7207             +
 000E80 58E0 C0C0/0AF6       000C0  7213     975.              WRITE (0),(1),(15),L:GPWBN
 000E86 4770 61A2            02354  7237     976.              BNZ   NOFILSYS                -12 FILE SYSTEM NOT AVAIL.
 000E8A 0AF2                        7238     977.              WAIT  (0)
 000E8C 50E0 C0C0            000C0  7246     978.              ST    R14,GPWBN               SAVE NEXT BLOCK NUM
 000E90 47FF 71CA            00E98  7247     979.     WRITERR  B     *+8(15)
 000E94 47F0 62C2            02474  7248     980.              B     IOERR                   -4 PERMANENT I/O ERROR
 000E98 47F0 6064            02216  7249     981.              B     FSUBX                    0 GOOD COMPLETION
 000E9C 47F0 607E            02230  7250     982.              B     UNAVAIL                  4 NOT IMMEDIATELY AVAIL
 000EA0 47F0 638C            0253E  7251     983.              B     NOAACC                   8 APPEND ACCESS NOT PERMITTED
 000EA4 47F0 6398            0254A  7252     984.              B     NOWACC                  12 WRITE ACCESS NOT PERMITTED
 000EA8 47F0 6248            023FA  7253     985.              B     NOUSPACE                16 USER ALLOCATION DEPLETED
 000EAC 47F0 623C            023EE  7254     986.              B     NODSPACE                20 DISK SPACE DEPLETED
 000EB0 47F0 6230            023E2  7255     987.              B     OUTRANGE                24 FILE FULL
-
                                    7257     989.     *
                                    7258     990.     *  WRITE OS/FILE BLOCK
                                    7259     991.     *
 000EB4                             7260     992.     OSWRITE  LABEL ,
 000EB4 9104 C08C      0008C        7262     993.              IF    GPWOSFED,BEGIN         OS EDIT FILE NEEDS HEADER
 000EB8 47E0 71F6            00EC4  7272             +
 000EBC 41F0 F002            00002  7277  1  994.                LA    R15,@R15+2              2 BYTES OF LENGTH
 000EC0 40F0 1000            00000  7278  1  995.                STH   R15,@R1
                                    7279  1  996.     *$ NOTE MAY BE CALCULATED IN ERROR, WELL SEE.
 000EC4                             7280     997.              END
 000EC4 0AF6                        7284     998.              WRITE (0),(1),(15)
 000EC6 4770 61A2            02354  7306     999.              BNZ   NOFILSYS
 000ECA 0AF2                        7307    1000.              WAIT  (0)
 000ECC 4780 6062            02214  7315    1001.              BZ    FSUB0
 000ED0 47F0 6266            02418  7316    1002.              B     ERROS
1VSUB     (VSUB00) (09:50) (22MAR04) ORVYL'S COMMAND PROCESSOR FILE SUBROUTINES                                             Page   61
0Current Usings:  (FSUB#COM,R6) (*,R7) (CLW,R10) (GPW,R12)
0Loc    Object Code    Addr1 Addr2  Stmt Lv Lineno    Source Statement           (Hibal 5, Asmedit 3.3)  HLASM R4.0  2004/03/22 09.50
+___    ______ ____    _____ _____  ____ __ ______    ______ _________
0                                   7318    1004.     *
                                    7319    1005.     *  BACK SPACE
                                    7320    1006.     *
                                    7321    1007.     *  OS FILES: DO A BACKSPACE CONTROL
                                    7322    1008.     *  ORVYL FILES: ALMOST A NO-OP, DECREMENT BLOCK COUNT
                                    7323    1009.     *
 000ED4                             7324    1010.     BSPACE   LABEL ,
 000ED4 9108 C08C      0008C        7326    1011.              IF    ~GPWFVOSF,BEGIN        ORVYL FILE, DECR BLOCK NUMBER
 000ED8 4710 721C            00EEA  7336             +
 000EDC 5820 C0C0/0620       000C0  7341  1 1012.                DECR  SR,GPWBN
 000EE2 5020 C0C0            000C0  7345  1          +
 000EE6 47F0 6062            02214  7346  1 1013.                B     FSUB0
 000EEA                             7347    1014.              END
 000EEA 7220           00EEA 00EDA  7351    1015.              ELSE  BEGIN                   OS FILE, DO BACKSPACE SVC
 000EEA 47F0 7244            00F12  7356             +
 000EEE 1F00/4300 C08D       0008D  7362  1 1016.                LC    R0,GPWFID                FILE ID
 000EF4 9140 C000      00000        7367  1 1017.                IF    GPWFALTF,'LC R0,GPWAFID'
 000EF8 47E0 7234/1F00       00F02  7377  1          +
 000EFE 4300 C12D            0012D  7387  1          +
 000F02 4110 0005/0AF5       00005  7392  1 1018.                CONTROL (0),5
 000F08 0AF2                        7414  1 1019.                WAIT  (0)
 000F0A 4780 6062            02214  7422  1 1020.                BZ    FSUB0
 000F0E 47F0 6266            02418  7423  1 1021.                B     ERROS
 000F12                             7424    1022.              END
1VSUB     (VSUB00) (09:50) (22MAR04) ORVYL'S COMMAND PROCESSOR FILE SUBROUTINES                                             Page   62
0Current Usings:  (FSUB#COM,R6) (*,R7) (CLW,R10) (GPW,R12)
0Loc    Object Code    Addr1 Addr2  Stmt Lv Lineno    Source Statement           (Hibal 5, Asmedit 3.3)  HLASM R4.0  2004/03/22 09.50
+___    ______ ____    _____ _____  ____ __ ______    ______ _________
0                                   7429    1024.     * ENQ ON SOMETHING
                                    7430    1025.     *        ADDRESS IN R1, LENGTH IN R0
                                    7431    1026.     *
 000F12                             7432    1027.     ENQ      LABEL ,
 000F12 18F0                        7434    1028.              LR    R15,R0                  PUT LENGTH IN RIGHT REG
 000F14 4D90 6070            02222  7435    1029.              LCALL SAVRETRY                SET UP FOR RETRY IF NECESSARY
 000F18 4100 0015/13FF       00015  7437    1030.              VSET  21,(R1),(R15),MODE=IMMED
 000F1E 0AFB                        7457             +
 000F20 4770 607E            02230  7459    1031.              BNZ   UNAVAIL                 DIDN'T GET IT
 000F24 47F0 6064            02216  7460    1032.              B     FSUBX                   GOT IT, GO RETURN
-
-                                   7462    1034.     * DEQ ON SOMETHING
                                    7463    1035.     *        NO ARGUMENTS NECESSARY
                                    7464    1036.     *
 000F28                             7465    1037.     DEQ      LABEL ,
 000F28 4100 0016/1B11       00016  7467    1038.              VSET  22                      DO DEQ
 000F2E 0AFB                        7486             +
 000F30 47F0 6064            02216  7488    1039.              B     FSUBX
1VSUB     (VSUB00) (09:50) (22MAR04) ORVYL'S COMMAND PROCESSOR FILE SUBROUTINES                                             Page   63
0Current Usings:  (FSUB#COM,R6) (*,R7) (CLW,R10) (GPW,R12)
0Loc    Object Code    Addr1 Addr2  Stmt Lv Lineno    Source Statement           (Hibal 5, Asmedit 3.3)  HLASM R4.0  2004/03/22 09.50
+___    ______ ____    _____ _____  ____ __ ______    ______ _________
0                                   7490    1041.     *
                                    7491    1042.     ** ENQ ON PROGRAM CATALOG. IF NECESSARY, READ IT INTO CLP PROGRAM CORE
                                    7492    1043.     *
 000F34                             7493    1044.     GETCAT   LABEL ,
 000F34 4110 7332            01000  7495    1045.              SETMSG 'PROGRAM CATALOG'      NAME TO ENQ ON
 000F38 4100 000F            0000F  7498             +
 000F3C 4D90 602A/0C24       021DC  7499    1046.              FSCALL ENQ                    ENQ ON IT
 000F42 9608 C000      00000        7503    1047.              SET   GPWFPCAT                INDICATE ENQUEUED ON CAT
 000F46 5840 A000            00000  7509    1048.              L     QR,CLWSCP
 000F4A 5840 41BC            001BC  7510    1049.              WITH  (SCP,QR),'L  QR,SCPPCAT'     POINT TO CATALOG
 USING  SCP,R4
 DROP   SCP,R4
 USING  PRGCAT,R4                   7534    1050.              USING PRGCAT,QR               ##
 000F4E 5830 4000/1233       00000  7543    1051.              LT    TR,PCATPTR              CATALOG LOADED?
 000F54 4770 72FE            00FCC  7547    1052.              IF    Z,BEGIN                 NO, LET'S DO IT NOW
                                    7558  1 1053.     *  READ IN PROGRAM CATALOG
 000F58 4D90 602A/0004       021DC  7559  1 1054.                FSCALL FNINIT                 CLEAR FILE NAME
 000F5E 4110 7320            00FEE  7563  1 1055.                SETMSG '@GG.&&ORV.CATALOGUE'  NAME OF PROGRAM CATALOG FILE
 000F62 4100 0012            00012  7566  1          +
 000F66 4D90 602A/040C       021DC  7567  1 1056.                FSCALL GOTNAME                SET NAME
 000F6C 4D90 602A/1408       021DC  7571  1 1057.                FSCALL ASMBLNAM               PUT NAME TOGETHER
 000F72 9640 C001      00001        7575  1 1058.                SET   GPWFNOE                 NO ERROR IF FILE NOT THERE
 000F76 4D90 602A/000C       021DC  7581  1 1059.                FSCALL ATTOLD                 GET FILE
 000F7C 12FF                        7585  1 1060.                LTR   R15,R15                 GOT IT?
 000F7E 4770 7304            00FD2  7586  1 1061.                BNZ   PCATERR                 NO, ERROR
 000F82                             7587  1 1062.                CLEAR GPWBN                   START WITH BLOCK 0
 000F82 D703 C0C0 C0C0 000C0 000C0  7593  1          +
 000F88 4120 4008            00008  7594  1 1063.                LA    SR,PCATSTRT             START OF ENTRY AREA
 000F8C 5020 4000            00000  7595  1 1064.                ST    SR,PCATPTR              SET BEGINNING OF ENTRIES
 000F90 4130 0FF8            00FF8  7596  1 1065.                LA    TR,4096-(PCATSTRT-PRGCAT)    LENGTH OF ENTRY AREA
 000F94 1233/47D0 72E8       00FB6  7597  1 1066.                WHILE (TR,P),BEGIN
 000F9A 4D90 602A/0C08       021DC  7613  2 1067.                  FSCALL READ                   GET NEXT BLOCK
 000FA0 4770 72E8            00FB6  7617  2 1068.                  IF    NZ,EXIT                 THAT'S ALL
 000FA4 58E0 C038            00038  7631  2 1069.                  L     R14,GPWBUFA             GET LOCATION OF DATA
 000FA8 18F3                        7632  2 1070.                  LR    R15,TR                   AND REMAINING AREA LENGTH
 000FAA 1802                        7633  2 1071.                  LR    R0,SR                   LOCATION IN AREA
 000FAC 0E0E                        7634  2 1072.                  MVCL  R0,R14                  MOVE THE CATALOG ENTRIES
 000FAE 1820                        7635  2 1073.                  LR    SR,R0                   CURRENT AREA POSITION
 000FB0 183F                        7636  2 1074.                  LR    TR,R15                   AND AREA LENGTH
 000FB2 47F0 72C6            00F94  7637  1 1075.                END   ,                       READ ALL
                                    7642  1 1076.
 000FB6 4D90 602A/0020       021DC  7643  1 1077.                FSCALL DETACH                 DETACH FILE
 000FBC 5020 4004            00004  7647  1 1078.                ST    SR,PCATEND              SET END OF CATALOG ENTRIES
 000FC0 41F0 0FFF/1814       00FFF  7648  1 1079.                CLPSERV PGPRTON,(QR),4095     PROTECT THE PAGE
 000FC6 4100 0040/0AED       00040  7667  1          +
 000FCC                             7669    1080.              END   ,
 000FCC 1814                        7673    1081.              LR    R1,QR                   SAVE BASE TO CATALOG
 000FCE 47F0 6062            02214  7674    1082.              B     FSUB0
 DROP   PRGCAT,R4                   7675    1083.              DROP  QR                      ##
-000FD2 4110 0000            00000  7683    1085.     PCATERR  SEG   'Program catalog error'
 000FD6 4590 643C            025EE  7685             +
 000FDA 47F0 6052            02204  7686    1086.              B     FSERRTN                 ERROR EXIT
1VSUB     (VSUB00) (09:50) (22MAR04) ORVYL'S COMMAND PROCESSOR FILE SUBROUTINES                                             Page   64
0Current Usings:  (FSUB#COM,R6) (*,R7) (CLW,R10) (GPW,R12)
0Loc    Object Code    Addr1 Addr2  Stmt Lv Lineno    Source Statement           (Hibal 5, Asmedit 3.3)  HLASM R4.0  2004/03/22 09.50
+___    ______ ____    _____ _____  ____ __ ______    ______ _________
0                                   7688    1088.     *  RELEASE PROGRAM CATALOG
 000FDE                             7689    1089.     RELCAT   LABEL ,
 000FDE 94F7 C000      00000        7691    1090.              CLEAR GPWFPCAT                NO LONGER HAVE CATALOG
 000FE2 47F0 725A            00F28  7698    1091.              B     DEQ                     GO DEQ FROM CATALOG
1VSUB     (VSUB00) (09:50) (22MAR04) ORVYL'S COMMAND PROCESSOR FILE SUBROUTINES                                             Page   65
0Current Usings:  (FSUB#COM,R6) (*,R7) (CLW,R10) (GPW,R12)
0Loc    Object Code    Addr1 Addr2  Stmt Lv Lineno    Source Statement           (Hibal 5, Asmedit 3.3)  HLASM R4.0  2004/03/22 09.50
+___    ______ ____    _____ _____  ____ __ ______    ______ _________
0000FE8                             7700    1093.              LTORG ,
 000FE8 00000002                    7702                             =F'2'
 000FEC 002C                        7703                             =H'44'
 000FEE 7CC7C74B50D6D9E5            7704                             =C'@GG.&&ORV.CATALOGUE'
 001000 D7D9D6C7D9C1D440            7705                             =C'PROGRAM CATALOG'
1VSUB     (VSUB00) (09:50) (22MAR04) ORVYL'S COMMAND PROCESSOR FILE SUBROUTINES                                             Page   66
0Current Usings:  (FSUB#COM,R6) (*,R7) (CLW,R10) (GPW,R12)
0Loc    Object Code    Addr1 Addr2  Stmt Lv Lineno    Source Statement           (Hibal 5, Asmedit 3.3)  HLASM R4.0  2004/03/22 09.50
+___    ______ ____    _____ _____  ____ __ ______    ______ _________
0                                   7712    1097.              FSCALL FSUB#5                 GENERATE SEGMENT 5
 001010                             7713    01-FSCAL +FSUB#5   DS    0H
 001010 0D70                        7716    02-BASE  +         BASR  7,0
 001012                             7719    04-00068 +$$$159B      DS 0X
 DROP   *,R7                        7726    06-00180 +       $$USING @R7,7
 USING  *,R7                        7729    04-00180 +       $$USING $$$159B,7
 001012 5855 7006            01018  7731    01-FSCAL +         L     FSUBR,FSUB#5L(FSUBR)    GET ROUTINE ADDRESS
 001016 07F5                        7732    01-FSCAL +         BR    FSUBR                   ENTER ROUTINE
 001018                             7733    01-FSCAL +         CNOP  0,4                     ALIGNMENT
 001018                             7734    01-FSCAL +FSUB#5L  DS    0H
 001018 00001048                    7735    01-FSCAL +         DC    A(GETDIR)
 00101C 000010DE                    7736    01-FSCAL +         DC    A(PUTDIR)
 001020 0000110C                    7737    01-FSCAL +         DC    A(CHECKMEM)
 001024 00001168                    7738    01-FSCAL +         DC    A(GETMEM)
 001028 0000121A                    7739    01-FSCAL +         DC    A(PUTMEM)
 00102C 000012A4                    7740    01-FSCAL +         DC    A(EOFMEM)
 001030 00001370                    7741    01-FSCAL +         DC    A(RNAMEMEM)
 001034 0000141E                    7742    01-FSCAL +         DC    A(ADDALIAS)
 001038 000014D6                    7743    01-FSCAL +         DC    A(DELMEM)
 00103C 0000159E                    7744    01-FSCAL +         DC    A(NXTMEM)
 001040 00001622                    7745    01-FSCAL +         DC    A(NXTENTRY)
 001044 0000168A                    7746    01-FSCAL +         DC    A(NXTALIAS)
1VSUB     (VSUB00) (09:50) (22MAR04) ORVYL'S COMMAND PROCESSOR FILE SUBROUTINES                                             Page   67
0Current Usings:  (FSUB#COM,R6) (*,R7) (CLW,R10) (GPW,R12)
0Loc    Object Code    Addr1 Addr2  Stmt Lv Lineno    Source Statement           (Hibal 5, Asmedit 3.3)  HLASM R4.0  2004/03/22 09.50
+___    ______ ____    _____ _____  ____ __ ______    ______ _________
0                                   7749    1100.     *  DIRECTORY MANIPULATING ROUTINES
                                    7750    1101.     *
 001048                             7751    1102.     GETDIR   LABEL ,                       BRING DIRECTORY INTO CORE
 001048 58F0 C044/12FF       00044  7753    1103.              LT    R15,GPWDIRAL            ANY CORE ALREADY GOTTEN?
 00104E 4780 7050            01062  7757    1104.              IF    NZ,BEGIN               YES
 001052 5810 C040            00040  7768  1 1105.                FREECLW L:GPWDIRAP,(15)       FREE PREVIOUS DIRECTORY
 001056 5890 7A0E/0D99       01A20  7781  1          +
 00105C 1BFF                        7783  1 1106.                CLEAR R15                     ZERO LENGTH
 00105E 50F0 C044            00044  7787  1 1107.                ST    R15,GPWDIRAL            IN CASE OF ERROR
 001062                             7788    1108.              END   ,
 001062 9180 C0B8      000B8        7792    1109.              IF    ~GPWUILIB,NOTLIB        SKIP IF NOT LIBRARY
 001066 47E0 62E0            02492  7804             +
 00106A 4110 0800            00800  7810    1110.              GETCLW DIRBLEN,DIRBLEN        GET SOME ELBOW ROOM
 00106E 41F0 0800            00800  7824             +
 001072 5890 7A12/0D99       01A24  7827             +
 001078 4770 62CE            02480  7829    1111.              BNZ   NODIRCOR                NOT ENOUGH
 00107C 5010 C040            00040  7830    1112.              ST    R1,GPWDIRAP             SAVE BEGINNING
 001080 5010 C050            00050  7831    1113.              ST    R1,GPWDIRLS             INITIALIZE LAST ENTRY
 001084 5000 C044            00044  7832    1114.              ST    R0,GPWDIRAL               AND LENGTH
 001088                             7833    1115.              CLEAR GPWBN                   FIRST DIRECTORY BLOCK IS ZERO
 001088 D703 C0C0 C0C0 000C0 000C0  7839             +
 00108E 1831                        7840    1116.              LR    TR,R1                   SAVE START ADDRESS
 001090 1820                        7841    1117.              LR    SR,0                    LENGTH
 001092 1A23                        7842    1118.              AR    SR,TR                   + START
 001094 4B20 7A2A            01A3C  7843    1119.              SH    SR,=Y(DIRBLEN)           -1 BLOCK IS AS FAR AS WE CAN GO
 USING  DIRB,R3                     7844    1120.              USING DIRB,TR                ##
 001098 1813                        7853    1121.     DIRREADX LR    R1,TR                   WHERE TO READ IT
 00109A 41F0 0800            00800  7854    1122.              LA    R15,DIRBLEN             HOW MUCH TO READ
 00109E 4D90 602A/0C10       021DC  7855    1123.              FSCALL READGO                 GO GET IT
 0010A4 4770 77AC            017BE  7859    1124.              BNZ   BADDIR                   NOT THERE
 0010A8 4910 7A2A            01A3C  7860    1125.              CH    R1,=Y(DIRBLEN)          RIGHT LENGTH?
 0010AC 4770 77AC            017BE  7861    1126.              BNE   BADDIR                   NO
 0010B0 9500 3000      00000        7862    1127.              CLI   0(TR),0                 FIRST BYTE 0
 0010B4 4770 77AC            017BE  7863    1128.              BNE   BADDIR
 0010B8 5800 3000/1200       00000  7864    1129.              LT    R0,DIRBLINK              NEXT BLOCK POINTER
 0010BE 4780 70C2            010D4  7868    1130.              BZ    GOTDIRX                  THAT IS ALL
 0010C2 4130 3800            00800  7869    1131.              LA    TR,DIRBLEN(,TR)         POINT TO NEXT AREA
 0010C6 5000 C0C0            000C0  7870    1132.              ST    R0,GPWBN                 SAVE BLOCK NUMBER
 0010CA 1932                        7871    1133.              CR    TR,SR                   GONE TOO FAR?
 0010CC 47B0 62CE            02480  7872    1134.              BNL   NODIRCOR
 0010D0 47F0 7086            01098  7873    1135.              B     DIRREADX                 GO GET NEXT BLOCK
                                    7874    1136.
 0010D4                             7875    1137.     GOTDIRX  LABEL ,
 0010D4 1813                        7877    1138.              LR    R1,TR
 0010D6 4D90 7924            01936  7878    1139.              LCALL FREUPDIR
 0010DA 47F0 6062            02214  7880    1140.              B     FSUB0
 DROP   DIRB,R3                     7881    1141.              DROP  TR                       ##
1VSUB     (VSUB00) (09:50) (22MAR04) ORVYL'S COMMAND PROCESSOR FILE SUBROUTINES                                             Page   68
0Current Usings:  (FSUB#COM,R6) (*,R7) (CLW,R10) (GPW,R12)
0Loc    Object Code    Addr1 Addr2  Stmt Lv Lineno    Source Statement           (Hibal 5, Asmedit 3.3)  HLASM R4.0  2004/03/22 09.50
+___    ______ ____    _____ _____  ____ __ ______    ______ _________
00010DE                             7889    1143.     PUTDIR   LABEL ,                       REWRITE DIRECTORY
 0010DE 5830 C040            00040  7891    1144.              L     TR,GPWDIRAP             POINT TO FIRST BLOCK
 USING  DIRB,R3                     7892    1145.              USING DIRB,TR                ##
 0010E2 D203 C0C0 3004 000C0 00004  7901    1146.     PUTDIRLX MVC   GPWBN,DIRBBNUM          BLOCK TO WRITE
 0010E8 41F0 0800            00800  7902    1147.              LA    R15,DIRBLEN             LENGTH TO WRITE
 0010EC 1813                        7903    1148.              LR    R1,TR                   WHERE TO WRITE FROM
 0010EE 4D90 602A/0C18       021DC  7904    1149.              FSCALL WRITEGO                GO WRITE IT
 0010F4 4D90 602A/081C       021DC  7908    1150.              FSCALL FORCE
 0010FA 5810 3000/1211       00000  7912    1151.              LT    R1,DIRBLINK             LAST BLOCK?
 001100 4130 3800            00800  7916    1152.              LA    TR,DIRBLEN(,TR)         POINT TO NEXT DIRB
 001104 4770 70D0            010E2  7917    1153.              BNZ   PUTDIRLX                NOT LAST, WRITE ANOTHER
 001108 47F0 6062            02214  7918    1154.              B     FSUB0                   ETURN
 DROP   DIRB,R3                     7919    1155.              DROP TR                       ##
1VSUB     (VSUB00) (09:50) (22MAR04) ORVYL'S COMMAND PROCESSOR FILE SUBROUTINES                                             Page   69
0Current Usings:  (FSUB#COM,R6) (*,R7) (CLW,R10) (GPW,R12)
0Loc    Object Code    Addr1 Addr2  Stmt Lv Lineno    Source Statement           (Hibal 5, Asmedit 3.3)  HLASM R4.0  2004/03/22 09.50
+___    ______ ____    _____ _____  ____ __ ______    ______ _________
0USING  DENTRY,R14                  7927    1157.              USING DENTRY,14               ##
                                    7936    1158.     *
                                    7937    1159.     *  CHECK TO SEE IF MEMBER EXISTS
                                    7938    1160.     *
                                    7939    1161.     *  MINUS RETURN IF MEMBER DOES NOT EXIST.
                                    7940    1162.     *
 00110C                             7941    1163.     CHECKMEM LABEL ,                       ORVYL PDS MEMBERS FIRST
 00110C 9108 C08C      0008C        7943    1164.              IF    ~GPWFVOSF,BEGIN
 001110 4710 7112            01124  7953             +
 001114 4D90 77BE            017D0  7958  1 1165.                LCALL GETDIRX
 001118 4D90 7736            01748  7960  1 1166.                LCALL SRCHDIRX                SEARCH FOR MEMBER
 00111C 4740 79E6            019F8  7962  1 1167.                BM    MINUSRET
 001120 47F0 6062            02214  7963  1 1168.                B     FSUB0                   FOUND
 001124                             7964    1169.              END   ,
 001124 7116           01124 01112  7968    1170.              ELSE  BEGIN                   OS PDS CHECK
 001124 47F0 7156            01168  7973             +
 001128 1F00/4300 C08D       0008D  7979  1 1171.                LC    R0,GPWFID                FILE ID
 00112E 9140 C000      00000        7984  1 1172.                IF    GPWFALTF,' LC R0,GPWAFID'
 001132 47E0 712A/1F00       0113C  7994  1          +
 001138 4300 C12D            0012D  8004  1          +
 00113C D203 A2E8 7A16 002E8 01A28  8009  1 1173.                MVC   CLWTEMP(4),=X'00010008'
 001142 D207 A2E8 C090 002E8 00090  8010  1 1174.                MVC   CLWTEMP(8),GPWLMN       SET UP PDS SENSE AREA
 001148 4110 0004            00004  8011  1 1175.                CONTROL (0),4,CLWTEMP,MODE=NAME
 00114C 41F0 A2E8/0AF5       002E8  8030  1          +
 001152 4770 6278            0242A  8037  1 1176.                BNZ   HOTERROS
 001156 0AF2                        8038  1 1177.                WAIT (0)
 001158 4780 6062            02214  8046  1 1178.                BZ    FSUB0                   GOOD RETURN
 00115C 49F0 7A2C            01A3E  8047  1 1179.                CH    R15,=H'56'              MEMBER NOT FOUND
 001160 4780 79E6            019F8  8048  1 1180.                BE    MINUSRET
 001164 47F0 6266            02418  8049  1 1181.                B     ERROS                   OS ERROR RETURNS
 001168                             8050    1182.              END   ,
1VSUB     (VSUB00) (09:50) (22MAR04) ORVYL'S COMMAND PROCESSOR FILE SUBROUTINES                                             Page   70
0Current Usings:  (FSUB#COM,R6) (*,R7) (CLW,R10) (GPW,R12) (DENTRY,R14)
0Loc    Object Code    Addr1 Addr2  Stmt Lv Lineno    Source Statement           (Hibal 5, Asmedit 3.3)  HLASM R4.0  2004/03/22 09.50
+___    ______ ____    _____ _____  ____ __ ______    ______ _________
0                                   8055    1184.     *  INITIALIZE PDS MEMBER FOR INPUT
                                    8056    1185.     *
                                    8057    1186.     *  GET MEMBER: ORVYL FILES
                                    8058    1187.     *
 001168                             8059    1188.     GETMEM   LABEL ,                       INITIALIZE PDS INPUT
 001168 9108 C08C      0008C        8061    1189.              IF    ~GPWFVOSF,BEGIN        ORVYL PDS
 00116C 4710 71BA            011CC  8071             +
 001170 9108 C0B4      000B4        8076  1 1190.                IF    GPWLNXTM,BEGIN         GET NEXT MEMBER IN DIR
 001174 47E0 7174            01186  8086  1          +
 001178 94BF C0B4      000B4        8091  2 1191.                  CLEAR GPWLGOTD
 00117C 4D90 602A/1024       021DC  8098  2 1192.                  FSCALL NXTMEM
 001182 4740 79E6            019F8  8102  2 1193.                  BM    MINUSRET                NO MORE
 001186                             8103  1 1194.                END   ,
 001186 7178           01186 01176  8107  1 1195.                ELSE  BEGIN                   OR GET MEMBER SPECIFIED
 001186 47F0 7184            01196  8112  1          +
 00118A 4D90 77BE            017D0  8118  2 1196.                  LCALL GETDIRX
 00118E 4D90 7736            01748  8120  2 1197.                  LCALL SRCHDIRX
 001192 4740 79E6            019F8  8122  2 1198.                  BM    MINUSRET                NOT FOUND
 001196                             8123  1 1199.                END
                                    8127  1 1200.     *        IF    DFLG1.DFL1PRV,BEGIN
                                    8128  1 1201.     *        SEG   'Cannot read private program'
                                    8129  1 1202.     *        B     FSERRTN                 BR TO ERROR EXIT
                                    8130  1 1203.     *        END   ,
 001196 1F11/BF17 E00D       0000D  8131  1 1204.                L3    R1,DBCT                 RETURN DIRECTORY INFO
 00119C 5010 C0A8            000A8  8139  1 1205.                ST    R1,GPWLMBCT
 0011A0 1F22/BF27 E00A       0000A  8140  1 1206.                L3    R2,DFBN
 0011A6 1211/4770 719C       011AE  8148  1 1207.                IF    (R1,Z),'DECR  R2'       MAKES NO BLOCKS CAUSE EOF
 0011AC 0620                        8164  1          +
 0011AE 5020 C0A4            000A4  8169  1 1208.                ST    R2,GPWLMFBN
 0011B2 5020 C0C0            000C0  8170  1 1209.                ST    R2,GPWBN
 0011B6 9608 C001      00001        8171  1 1210.                SET   GPWFNSKP                NO MODE SKIP ON READ
 0011BA 0610                        8177  1 1211.                DECR  R1
 0011BC 1E12                        8179  1 1212.                ALR   R1,R2
 0011BE 5010 C0AC            000AC  8180  1 1213.                ST    R1,GPWLMLBN
 0011C2 D201 C0A0 E008 000A0 00008  8181  1 1214.                MVC   GPWLMFLS,DFLGS
 0011C8 47F0 6062            02214  8182  1 1215.                B     FSUB0                   RETURN
 0011CC                             8183    1216.              END   ,                       END INIT ORVYL FILE PDS READ
1VSUB     (VSUB00) (09:50) (22MAR04) ORVYL'S COMMAND PROCESSOR FILE SUBROUTINES                                             Page   71
0Current Usings:  (FSUB#COM,R6) (*,R7) (CLW,R10) (GPW,R12) (DENTRY,R14)
0Loc    Object Code    Addr1 Addr2  Stmt Lv Lineno    Source Statement           (Hibal 5, Asmedit 3.3)  HLASM R4.0  2004/03/22 09.50
+___    ______ ____    _____ _____  ____ __ ______    ______ _________
0                                   8188    1218.     *
                                    8189    1219.     *  GET MEMBER: OS/FILES
                                    8190    1220.     *
 0011CC 71BE           011CC 0116E  8191    1221.              ELSE  BEGIN
 0011CC 47F0 7208            0121A  8196             +
 0011D0 9108 C0B4      000B4        8202  1 1222.                IF    GPWLNXTM,'FSCALL NXTMEM'  GET NEXT MEMBER
 0011D4 47E0 71CC            011DE  8212  1          +
 0011D8 4D90 602A/1024       021DC  8220  1          +
 0011DE 71D0           011DE 011D6  8226  1 1223.                ELSE  'LA R14,GPWLMN'           OR GET MEMBER SPECIFIED
 0011DE 47F0 71D4            011E6  8231  1          +
 0011E2 41E0 C090            00090  8238  1          +
 0011E6 18FE                        8243  1 1224.                LR    R15,R14                   MEMBER ADDRESS, LENGTH
 0011E8 41E0 0008            00008  8244  1 1225.                LA    R14,8
 0011EC 1F00/4300 C08D       0008D  8245  1 1226.                LC    R0,GPWFID                FILE ID
 0011F2 9140 C000      00000        8250  1 1227.                IF    GPWFALTF,'LC R0,GPWAFID'
 0011F6 47E0 71EE/1F00       01200  8260  1          +
 0011FC 4300 C12D            0012D  8270  1          +
 001200 1B11/0AF5                   8275  1 1228.                CONTROL (0),0,(15),(14)
 001204 4770 6278            0242A  8298  1 1229.                BNZ   HOTERROS                PROCESS ERRORS
 001208 0AF2                        8299  1 1230.                WAIT  (0)
 00120A 4780 6062            02214  8307  1 1231.                BZ    FSUB0                   GOOD RETURN
 00120E 49F0 7A2C            01A3E  8308  1 1232.                CH    R15,=H'56'              MEMBER NOT FOUND
 001212 4780 79E6            019F8  8309  1 1233.                BE    MINUSRET
 001216 47F0 6266            02418  8310  1 1234.                B     ERROS                   OS ERROR RETURNS
 00121A                             8311    1235.              END   ,
1VSUB     (VSUB00) (09:50) (22MAR04) ORVYL'S COMMAND PROCESSOR FILE SUBROUTINES                                             Page   72
0Current Usings:  (FSUB#COM,R6) (*,R7) (CLW,R10) (GPW,R12) (DENTRY,R14)
0Loc    Object Code    Addr1 Addr2  Stmt Lv Lineno    Source Statement           (Hibal 5, Asmedit 3.3)  HLASM R4.0  2004/03/22 09.50
+___    ______ ____    _____ _____  ____ __ ______    ______ _________
0                                   8316    1237.     *  INITIALIZE PDS FOR OUTPUT
                                    8317    1238.     *
                                    8318    1239.     *  PUT MEMBER: ORVYL FILES
                                    8319    1240.     *
                                    8320    1241.     *        WE SEARCH TO SEE IF MEMBER IS THERE, IF SO REPLACE ??
                                    8321    1242.     *        GPWLREP FLAG SET IF REPLACE IS OK.
                                    8322    1243.     *
 00121A                             8323    1244.     PUTMEM   LABEL ,
 00121A 9108 C08C      0008C        8325    1245.              IF    ~GPWFVOSF,BEGIN        INITIALIZE PDS FOR OUTPUT
 00121E 4710 723E            01250  8335             +
 001222 4D90 77BE            017D0  8340  1 1246.                LCALL GETDIRX
 001226 9180 C0B4      000B4        8342  1 1247.                IF    ~GPWLREP,BEGIN         IF NOT REPLACE AND MEMBER
 00122A 4710 7224            01236  8352  1          +
 00122E 4D90 7736            01748  8357  2 1248.                  LCALL SRCHDIRX                MINUS RETURN
 001232 4780 79E6            019F8  8359  2 1249.                  BZ    MINUSRET
 001236                             8360  1 1250.                END   ,
 001236 4D90 602A/0814       021DC  8364  1 1251.                FSCALL SENLREC                GET LAST BLOCK
 00123C 4110 1002            00002  8368  1 1252.                LA    R1,@R1+2                NEXT+1 FOR MEMBER START
 001240 5010 C0C0            000C0  8369  1 1253.                ST    R1,GPWBN
 001244 5010 C0A4            000A4  8370  1 1254.                ST    R1,GPWLMFBN
 001248 947F C0B4      000B4        8371  1 1255.                CLEAR GPWLREP                 ZERO REPLACE OK FLAG
 00124C 47F0 6062            02214  8378  1 1256.                B     FSUB0                   OK
 001250                             8379    1257.              END   ,
1VSUB     (VSUB00) (09:50) (22MAR04) ORVYL'S COMMAND PROCESSOR FILE SUBROUTINES                                             Page   73
0Current Usings:  (FSUB#COM,R6) (*,R7) (CLW,R10) (GPW,R12) (DENTRY,R14)
0Loc    Object Code    Addr1 Addr2  Stmt Lv Lineno    Source Statement           (Hibal 5, Asmedit 3.3)  HLASM R4.0  2004/03/22 09.50
+___    ______ ____    _____ _____  ____ __ ______    ______ _________
0                                   8384    1259.     *
                                    8385    1260.     *  PUT MEMBER: OS/FILES
                                    8386    1261.     *
 001250 7242           01250 01220  8387    1262.              ELSE  BEGIN
 001250 47F0 7292            012A4  8392             +
 001254 9180 C0B4      000B4        8398  1 1263.                IF    ~GPWLREP,BEGIN         IF NOT REPLACE AND MEMBER
 001258 4710 728A            0129C  8408  1          +
 00125C 1F00/4300 C08D       0008D  8413  2 1264.                  LC    R0,GPWFID               FILE ID
 001262 4780 725A/1F00       0126C  8418  2 1265.                  IF    NZ,'LC  R0,GPWAFID'
 001268 4300 C12D            0012D  8434  2          +
 00126C 41F0 C090            00090  8439  2 1266.                  LA    R15,GPWLMN              MINUS RETURN
 001270 D203 A2E8 7A16 002E8 01A28  8440  2 1267.                  MVC   CLWTEMP(4),=X'00010008'
 001276 D207 A2E8 C090 002E8 00090  8441  2 1268.                  MVC   CLWTEMP(8),GPWLMN       SET UP PDS SENSE AREA
 00127C 4110 0004            00004  8442  2 1269.                  CONTROL (0),4,CLWTEMP,MODE=NAME
 001280 41F0 A2E8/0AF5       002E8  8461  2          +
 001286 4770 6278            0242A  8468  2 1270.                  BNZ   HOTERROS
 00128A 0AF2                        8469  2 1271.                  WAIT  (0)
 00128C 4780 79E6            019F8  8477  2 1272.                  BZ    MINUSRET
 001290 49F0 7A2C            01A3E  8478  2 1273.                  CH    R15,=H'56'              MEMBER NOT FOUND
 001294 4780 6062            02214  8479  2 1274.                  BE    FSUB0
 001298 47F0 6266            02418  8480  2 1275.                  B     ERROS
 00129C                             8481  1 1276.                END   ,
 00129C 947F C0B4      000B4        8485  1 1277.                CLEAR GPWLREP                 ZERO REPLACE OK FLAG
 0012A0 47F0 6062            02214  8492  1 1278.                B     FSUB0                   END OF INIT OUTPUT PDS
 0012A4                             8493    1279.              END   ,
1VSUB     (VSUB00) (09:50) (22MAR04) ORVYL'S COMMAND PROCESSOR FILE SUBROUTINES                                             Page   74
0Current Usings:  (FSUB#COM,R6) (*,R7) (CLW,R10) (GPW,R12) (DENTRY,R14)
0Loc    Object Code    Addr1 Addr2  Stmt Lv Lineno    Source Statement           (Hibal 5, Asmedit 3.3)  HLASM R4.0  2004/03/22 09.50
+___    ______ ____    _____ _____  ____ __ ______    ______ _________
0                                   8498    1281.     *$
                                    8499    1282.     *$ WE NEED THE RIGHT CONTROL. GOT A NEW ONE FOR SINGLE MEMBER SENSE
                                    8500    1283.     *$
                                    8501    1284.     * PROCESS OUTPUT PDS; END OF FILE PROCESSING.
                                    8502    1285.     *
                                    8503    1286.     *  EOFMEM: ORVYL FILES
                                    8504    1287.     *
                                    8505    1288.     *  ASSUMES PUTMEM CALLED, REPLACE ALREADY CHECKED, ETC.
                                    8506    1289.     *  ASSUMES DIRECTORY BLOCK(S) ARE IN MEMORY
                                    8507    1290.     *
 0012A4                             8508    1291.     EOFMEM   LABEL ,                       OUTPUT PDS EOF PROCESSING
 0012A4 947F C0B4      000B4        8510    1292.              CLEAR GPWLREP                 REPLACE FLAG CHECKED IN PUTMEM
 0012A8 9108 C08C      0008C        8517    1293.              IF    ~GPWFVOSF,BEGIN
 0012AC 4710 7328            0133A  8527             +
 0012B0 4D90 7736            01748  8532  1 1294.                LCALL SRCHDIRX                FIND PLACE IN DIR FOR ENTRY
 0012B4 4740 72F2            01304  8534  1 1295.                BM    NEWENTRY
 0012B8 5810 C0A4            000A4  8535  1 1296.                L     R1,GPWLMFBN             WE REPLACE ENTRY
 0012BC 5820 C0C0            000C0  8536  1 1297.                L     2,GPWBN                 CALCULATE BLOCK COUNT
 0012C0 1B21                        8537  1 1298.                SR    R2,R1
 0012C2 5020 C0A8            000A8  8538  1 1299.                ST    2,GPWLMBCT
 0012C6 1F55/BF57 E00A       0000A  8539  1 1300.                L3    R5,DFBN                 GET AND REMEBER OLD MEMBER INFO
 0012CC 1F44/BF47 E00D       0000D  8547  1 1301.                L3    R4,DBCT
 0012D2 1A45                        8555  1 1302.                AR    R4,R5                   FIRST,LAST BLOCKS OF OLD MEM
 0012D4 0640                        8556  1 1303.                DECR  R4
 0012D6 D201 E008 C0A0 00008 000A0  8558  1 1304.                MVC   DFLG1(2),GPWLMF1        REPLACE OLD W/NEW MEMBER INFO
 0012DC D202 E00A C0A5 0000A 000A5  8559  1 1305.                MVC   DFBN(3),GPWLMFBN+1
 0012E2 D202 E00D C0A9 0000D 000A9  8560  1 1306.                MVC   DBCT(3),GPWLMBCT+1
 0012E8 4D90 78E8            018FA  8561  1 1307.                LCALL PUTDIRX                 WRITE OUT DIRECTORY
 0012EC 18F5                        8563  1 1308.                LR    R15,R5                 NOW DELETE BLOCKS OF OLD MEM
 0012EE 18E4                        8564  1 1309.                LR    R14,R4                 FIRST, LAST BLOCKS TO DELETE
 0012F0 4D90 602A/0808       021DC  8565  1 1310.                FSCALL DELLOTS
 0012F6 4D90 602A/081C       021DC  8569  1 1311.                FSCALL FORCE
 0012FC 9680 C004      00004        8573  1 1312.                SET   GPWSFER
 001300 47F0 6062            02214  8579  1 1313.                B     FSUB0
 001304                             8580  1 1314.     NEWENTRY   LABEL ,                       WE SET NEW ENTRY
 001304 4D90 76EC            016FE  8582  1 1315.                LCALL FINDBLNK                GET BLANK ENTRY
 001308 4740 6430            025E2  8584  1 1316.                BM    LIBFULL
 00130C 5810 C0A4            000A4  8585  1 1317.                L     R1,GPWLMFBN             CALCULATE BLOCK COUNT
 001310 5820 C0C0            000C0  8586  1 1318.                L     2,GPWBN                  =FIRST-(LAST+1)
 001314 1B21                        8587  1 1319.                SR    R2,R1
 001316 5020 C0A8            000A8  8588  1 1320.                ST    2,GPWLMBCT
 00131A D207 E000 C090 00000 00090  8589  1 1321.                MVC   DNAME,GPWLMN            SET MEMBER INFO IN DIRECTORY
 001320 D201 E008 C0A0 00008 000A0  8590  1 1322.                MVC   DFLG1(2),GPWLMF1        FLAGS
 001326 D202 E00A C0A5 0000A 000A5  8591  1 1323.                MVC   DFBN(3),GPWLMFBN+1      FIRST BLOCK
 00132C D202 E00D C0A9 0000D 000A9  8592  1 1324.                MVC   DBCT(3),GPWLMBCT+1      AND NUMBER OF BLOCKS
 001332 4D90 78E8            018FA  8593  1 1325.                LCALL PUTDIRX                 WRITE OUT DIRECTORY
 001336 47F0 6062            02214  8595  1 1326.                B     FSUB0
 00133A                             8596    1327.              END   ,
1VSUB     (VSUB00) (09:50) (22MAR04) ORVYL'S COMMAND PROCESSOR FILE SUBROUTINES                                             Page   75
0Current Usings:  (FSUB#COM,R6) (*,R7) (CLW,R10) (GPW,R12) (DENTRY,R14)
0Loc    Object Code    Addr1 Addr2  Stmt Lv Lineno    Source Statement           (Hibal 5, Asmedit 3.3)  HLASM R4.0  2004/03/22 09.50
+___    ______ ____    _____ _____  ____ __ ______    ______ _________
0                                   8601    1329.     *
                                    8602    1330.     *  EOFMEM: OS/FILES
                                    8603    1331.     *
                                    8604    1332.     *        WE ISSUE CONTROL MODE=REPLACE AND IGNORE IF NOT THERE
                                    8605    1333.     * RETURN CODE.
                                    8606    1334.     *
 00133A 732C           0133A 012AE  8607    1335.              ELSE  BEGIN
 00133A 47F0 735E            01370  8612             +
 00133E 1F00/4300 C08D       0008D  8618  1 1336.                LC    R0,GPWFID                FILE ID
 001344 9140 C000      00000        8623  1 1337.                IF    GPWFALTF,' LC  R0,GPWAFID'
 001348 47E0 7340/1F00       01352  8633  1          +
 00134E 4300 C12D            0012D  8643  1          +
 001352 4110 0001            00001  8648  1 1338.                CONTROL (0),1,GPWLMN,8,MODE=REPLACE
 001356 41F0 C090            00090  8667  1          +
 00135A 41E0 0008/13EE       00008  8674  1          +
 001360 0AF5                        8677  1          +
 001362 4770 6278            0242A  8679  1 1339.                BNZ   HOTERROS
 001366 0AF2                        8680  1 1340.                WAIT  (0)
 001368 4780 6062            02214  8688  1 1341.                BZ    FSUB0                   OK
 00136C 47F0 6266            02418  8689  1 1342.                B     ERROS                   NOT OK
 001370                             8690    1343.              END   ,
1VSUB     (VSUB00) (09:50) (22MAR04) ORVYL'S COMMAND PROCESSOR FILE SUBROUTINES                                             Page   76
0Current Usings:  (FSUB#COM,R6) (*,R7) (CLW,R10) (GPW,R12) (DENTRY,R14)
0Loc    Object Code    Addr1 Addr2  Stmt Lv Lineno    Source Statement           (Hibal 5, Asmedit 3.3)  HLASM R4.0  2004/03/22 09.50
+___    ______ ____    _____ _____  ____ __ ______    ______ _________
0                                   8695    1345.     *
                                    8696    1346.     *        RENAME MEMBER
                                    8697    1347.     *
 001370                             8698    1348.     RNAMEMEM LABEL ,                       ORVYL PDS RENAME
 001370 9108 C08C      0008C        8700    1349.              IF    ~GPWFVOSF,BEGIN
 001374 4710 73C0            013D2  8710             +
 001378 4D90 77BE            017D0  8715  1 1350.                LCALL GETDIRX
 00137C D20F A2E8 C090 002E8 00090  8717  1 1351.                MVC   CLWTEMP(16),GPWLMN      SAVE NAME1 AND NAME2
 001382 D207 C090 C098 00090 00098  8718  1 1352.                MVC   GPWLMN(8),GPWLMN2
 001388 4D90 76B8            016CA  8719  1 1353.                LCALL FINDNTRY                SEE IF NAME2 ALREADY EXISTS
 00138C D207 C090 A2E8 00090 002E8  8721  1 1354.                MVC   GPWLMN(8),CLWTEMP
 001392 4780 79F0            01A02  8722  1 1355.                BZ    PLUSRET
 001396 4D90 76B8            016CA  8723  1 1356.                LCALL FINDNTRY                SEE IF NAME1 EXISTS
 00139A 4740 79E6            019F8  8725  1 1357.                BM    MINUSRET
 00139E D207 E000 C098 00000 00098  8726  1 1358.                MVC   DNAME(8),GPWLMN2        RENAME NAME1 WITH NAME2
 0013A4 9540 E008      00008        8727  1 1359.                CLI   DALINAM,C' '
 0013A8 4720 73B8            013CA  8728  1 1360.                IF    H,RNAMDONE              IF ALIAS,  RENAME DONE
 0013AC 9640 C0B4      000B4        8742  1 1361.                SET   GPWLGOTD                IF MEMBER
 0013B0                             8748  1 1362.                CLEAR GPWNXTAD                WE MUST UPDATE ALL ALIAS
 0013B0 D703 C0B0 C0B0 000B0 000B0  8754  1          +
 0013B6                             8755  1 1363.     CHNGALAS   LABEL ,                       POINTERS TO NEW MEM NAME
 0013B6 4D90 602A/102C       021DC  8757  1 1364.                FSCALL NXTALIAS               LOOP THROUGH ALL ALIASES
 0013BC 4740 73B8            013CA  8761  1 1365.                BM    RNAMDONE
 0013C0 D207 E008 C098 00008 00098  8762  1 1366.                MVC   DALINAM(8),GPWLMN2
 0013C6 47F0 73A4            013B6  8763  1 1367.                B     CHNGALAS
 0013CA                             8764  1 1368.     RNAMDONE   LABEL ,
 0013CA 4D90 78E8            018FA  8766  1 1369.                LCALL PUTDIRX                 WRITE OUT DIRECTORY BLOCK
 0013CE 47F0 6062            02214  8768  1 1370.                B     FSUB0
 0013D2                             8769    1371.              END   ,
-
 0013D2 73C4           013D2 01376  8774    1373.              ELSE  BEGIN                   OS PDS MEMBER RENAME
 0013D2 47F0 740C            0141E  8779             +
 0013D6 1F00/4300 C08D       0008D  8785  1 1374.                LC    R0,GPWFID                FILE ID
 0013DC 9140 C000      00000        8790  1 1375.                IF    GPWFALTF,' LC  R0,GPWAFID'
 0013E0 47E0 73D8/1F00       013EA  8800  1          +
 0013E6 4300 C12D            0012D  8810  1          +
 0013EA 4110 0003            00003  8815  1 1376.                CONTROL (0),3,GPWLMN,GPWLMN2
 0013EE 41F0 C090            00090  8834  1          +
 0013F2 41E0 C098/0AF5       00098  8841  1          +
 0013F8 4770 6278            0242A  8845  1 1377.                BNZ   HOTERROS
 0013FC 0AF2                        8846  1 1378.                WAIT  (0)
 0013FE 4780 6062            02214  8854  1 1379.                BZ    FSUB0
 001402 49F0 7A2E            01A40  8855  1 1380.                CH    R15,=H'52'              MEMBER ALREADY EXISTS
 001406 4780 79F0            01A02  8856  1 1381.                BE    PLUSRET
 00140A 49F0 7A2C            01A3E  8857  1 1382.                CH    R15,=H'56'              MEMBER NOT FOUND
 00140E 4780 79E6            019F8  8858  1 1383.                BE    MINUSRET
 001412 49F0 7A30            01A42  8859  1 1384.                CH    R15,=H'60'              NO DIRECTORY SPACE
 001416 4780 6430            025E2  8860  1 1385.                BE    LIBFULL
 00141A 47F0 6266            02418  8861  1 1386.                B     ERROS
 00141E                             8862    1387.              END   ,
1VSUB     (VSUB00) (09:50) (22MAR04) ORVYL'S COMMAND PROCESSOR FILE SUBROUTINES                                             Page   77
0Current Usings:  (FSUB#COM,R6) (*,R7) (CLW,R10) (GPW,R12) (DENTRY,R14)
0Loc    Object Code    Addr1 Addr2  Stmt Lv Lineno    Source Statement           (Hibal 5, Asmedit 3.3)  HLASM R4.0  2004/03/22 09.50
+___    ______ ____    _____ _____  ____ __ ______    ______ _________
0                                   8867    1389.     *
                                    8868    1390.     *        ADDALIAS
                                    8869    1391.     *
 00141E                             8870    1392.     ADDALIAS LABEL ,
 00141E 9108 C08C      0008C        8872    1393.              IF    ~GPWFVOSF,BEGIN        ORVYL FILES
 001422 4710 747C            0148E  8882             +
 001426 4D90 77BE            017D0  8887  1 1394.                LCALL GETDIRX
 00142A D20F A2E8 C090 002E8 00090  8889  1 1395.                MVC   CLWTEMP(16),GPWLMN      SAVE NAME AND ALIAS
 001430 D207 C090 C098 00090 00098  8890  1 1396.                MVC   GPWLMN(8),GPWLMN2       SEE IF ALIAS ALREADY EXISTS
 001436 4D90 76B8            016CA  8891  1 1397.                LCALL FINDNTRY
 00143A 4770 7446            01458  8893  1 1398.                IF    Z,BEGIN                ALIAS EXISTS
 00143E D207 C098 A2E8 00098 002E8  8904  2 1399.                  MVC   GPWLMN2(8),CLWTEMP
 001444 D50F E000 C090 00000 00090  8905  2 1400.                  CLC   DENTRY(16),GPWLMN       ALIAS  FOR SPECIFIED NAME, OK
 00144A D20F C090 A2E8 00090 002E8  8906  2 1401.                  MVC   GPWLMN(16),CLWTEMP      ALIAS FOR ANOTHER MEMBER, ERROR
 001450 4780 6062            02214  8907  2 1402.                  BE    FSUB0
 001454 47F0 79F0            01A02  8908  2 1403.                  B     PLUSRET
 001458                             8909  1 1404.                END
 001458 D207 C090 A2E8 00090 002E8  8913  1 1405.                MVC   GPWLMN(8),CLWTEMP       NOW SEE IF MEMBER DOES NOT
 00145E 4D90 7736            01748  8914  1 1406.                LCALL SRCHDIRX                   EXIST
 001462 94EF C0B4      000B4        8916  1 1407.                CLEAR GPWALIAS
 001466 12FF                        8923  1 1408.                LTR   R15,R15
 001468 4740 79E6            019F8  8924  1 1409.                BM    MINUSRET
 00146C 4D90 76EC            016FE  8925  1 1410.                LCALL FINDBLNK                GET BLANK ENTRY FOR ALIAS
 001470 4740 6430            025E2  8927  1 1411.                BM    LIBFULL
 001474 D207 E008 C090 00008 00090  8928  1 1412.                MVC   DALINAM(8),GPWLMN       MOVE IN MEMBER NAME
 00147A D20F C090 A2E8 00090 002E8  8929  1 1413.                MVC   GPWLMN(16),CLWTEMP      RESTORE NAME1 AND NAME2
 001480 D207 E000 C098 00000 00098  8930  1 1414.                MVC   DNAME(8),GPWLMN2        MOVE IN ALIAS
 001486 4D90 78E8            018FA  8931  1 1415.                LCALL PUTDIRX                 WRITE DIRECTORY BLOCK
 00148A 47F0 6062            02214  8933  1 1416.                B     FSUB0
 00148E                             8934    1417.              END   ,
-
 00148E 7480           0148E 01424  8939    1419.              ELSE  BEGIN                   OS PDS ADD ALIAS
 00148E 47F0 74C4            014D6  8944             +
 001492 1F00/4300 C08D       0008D  8950  1 1420.                LC    R0,GPWFID                FILE ID
 001498 9140 C000      00000        8955  1 1421.                IF    GPWFALTF,' LC  R0,GPWAFID'
 00149C 47E0 7494/1F00       014A6  8965  1          +
 0014A2 4300 C12D            0012D  8975  1          +
 0014A6 4110 0003            00003  8980  1 1422.                CONTROL (0),3,GPWLMN,GPWLMN2,MODE=(ALIAS,REPLACE)
 0014AA 41F0 C090/13FF       00090  8999  1          +
 0014B0 41E0 C098/13EE       00098  9007  1          +
 0014B6 0AF5                        9010  1          +
 0014B8 4770 6278            0242A  9012  1 1423.                BNZ   HOTERROS
 0014BC 0AF2                        9013  1 1424.                WAIT  (0)
 0014BE 4780 6062            02214  9021  1 1425.                BZ    FSUB0
 0014C2 49F0 7A2C            01A3E  9022  1 1426.                CH    R15,=H'56'              MEMBER NOT FOUND
 0014C6 4780 79E6            019F8  9023  1 1427.                BE    MINUSRET
 0014CA 49F0 7A30            01A42  9024  1 1428.                CH    R15,=H'60'              NO DIRECTORY SPACE
 0014CE 4780 6430            025E2  9025  1 1429.                BE    LIBFULL
 0014D2 47F0 6266            02418  9026  1 1430.                B     ERROS
 0014D6                             9027    1431.              END   ,
1VSUB     (VSUB00) (09:50) (22MAR04) ORVYL'S COMMAND PROCESSOR FILE SUBROUTINES                                             Page   78
0Current Usings:  (FSUB#COM,R6) (*,R7) (CLW,R10) (GPW,R12) (DENTRY,R14)
0Loc    Object Code    Addr1 Addr2  Stmt Lv Lineno    Source Statement           (Hibal 5, Asmedit 3.3)  HLASM R4.0  2004/03/22 09.50
+___    ______ ____    _____ _____  ____ __ ______    ______ _________
0                                   9032    1433.     *
                                    9033    1434.     *  DELETE MEMBER: ORVYL FILES
                                    9034    1435.     *
 0014D6                             9035    1436.     DELMEM   LABEL ,                       DELETE PDS MEMBER
 0014D6 9108 C08C      0008C        9037    1437.              IF    ~GPWFVOSF,BEGIN
 0014DA 4710 7554            01566  9047             +
 0014DE 4D90 77BE            017D0  9052  1 1438.                LCALL GETDIRX
 0014E2 4D90 76B8            016CA  9054  1 1439.                LCALL FINDNTRY                FIND ENTRY
 0014E6 4740 79E6            019F8  9056  1 1440.                BM    MINUSRET
 0014EA 9540 E008      00008        9057  1 1441.                CLI   DALINAM,C' '
 0014EE 47D0 74FE            01510  9058  1 1442.                IF    H,BEGIN                IF ALIAS, DELETE ONLY ALIAS
 0014F2 9610 C0B4      000B4        9069  2 1443.                  SET   GPWALIAS                SET ALIAS FLAG, ETC
 0014F6 D207 C090 E008 00090 00008  9075  2 1444.                  MVC   GPWLMN(8),DALINAM
 0014FC D207 C098 E000 00098 00000  9076  2 1445.                  MVC   GPWLMN2(8),DNAME
 001502 D20F E000 79F8 00000 01A0A  9077  2 1446.                  MVC   DENTRY(16),BLANKS
 001508 4D90 78E8            018FA  9078  2 1447.                  LCALL PUTDIRX
 00150C 47F0 6062            02214  9080  2 1448.                  B     FSUB0
 001510                             9081  1 1449.                END   ,
 001510                             9085  1 1450.                CLEAR GPWNXTAD                ELSE, DELETE ALL ALIAS'S
 001510 D703 C0B0 C0B0 000B0 000B0  9091  1          +
 001516                             9092  1 1451.                LOOP  BEGIN                   SEARCH FOR NEXT ALIAS
 001516 4D90 602A/102C       021DC  9098  2 1452.                  FSCALL NXTALIAS
 00151C 4740 7518            0152A  9102  2 1453.                  IF    M,EXIT
 001520 D20F E000 79F8 00000 01A0A  9116  2 1454.                  MVC   DENTRY(16),BLANKS       DELETE ALIAS
 001526 47F0 7504            01516  9117  1 1455.                END   ,
 00152A 4D90 7736            01748  9122  1 1456.                LCALL SRCHDIRX                DELETE ACTUAL MEMBER
 00152E 1F55/BF57 E00A       0000A  9124  1 1457.                L3    R5,DFBN                 GET REMEMBER MEMBER BLOCK INFO
 001534 1F44/BF47 E00D       0000D  9132  1 1458.                L3    R4,DBCT
 00153A 1A45                        9140  1 1459.                AR    R4,R5                   FIRST, LAST BLOCKS IN MEMBER
 00153C 0640                        9141  1 1460.                DECR  R4
 00153E D20F E000 79F8 00000 01A0A  9143  1 1461.                MVC   DENTRY(16),BLANKS
 001544 4D90 78E8            018FA  9144  1 1462.                LCALL PUTDIRX                 WRITE OUT DIRECTORY BLOCK
 001548 18F5                        9146  1 1463.                LR    R15,R5
 00154A 18E4                        9147  1 1464.                LR    R14,R4
 00154C 19EF/4750 7550       01562  9148  1 1465.                IF    (R14,GE,R15),BEGIN
 001552 4D90 602A/0808       021DC  9163  2 1466.                  FSCALL DELLOTS                NO BLOCKS, NO DELETE
 001558 4D90 602A/081C       021DC  9167  2 1467.                  FSCALL FORCE                  DELETE BLOCKS OF MEMBER
 00155E 9680 C004      00004        9171  2 1468.                  SET GPWSFER
 001562                             9177  1 1469.                END   ,
 001562 47F0 6062            02214  9181  1 1470.                B     FSUB0                   DONE
 001566                             9182    1471.              END   ,
1VSUB     (VSUB00) (09:50) (22MAR04) ORVYL'S COMMAND PROCESSOR FILE SUBROUTINES                                             Page   79
0Current Usings:  (FSUB#COM,R6) (*,R7) (CLW,R10) (GPW,R12) (DENTRY,R14)
0Loc    Object Code    Addr1 Addr2  Stmt Lv Lineno    Source Statement           (Hibal 5, Asmedit 3.3)  HLASM R4.0  2004/03/22 09.50
+___    ______ ____    _____ _____  ____ __ ______    ______ _________
0                                   9187    1473.     *
                                    9188    1474.     * DELETE MEMBER: OS/FILES
                                    9189    1475.     *
 001566 7558           01566 014DC  9190    1476.              ELSE  BEGIN
 001566 47F0 758C            0159E  9195             +
 00156A 1F00/4300 C08D       0008D  9201  1 1477.                LC    R0,GPWFID                FILE ID
 001570 9140 C000      00000        9206  1 1478.                IF    GPWFALTF,'LC  R0,GPWAFID'
 001574 47E0 756C/1F00       0157E  9216  1          +
 00157A 4300 C12D            0012D  9226  1          +
 00157E 4110 0002            00002  9231  1 1479.                CONTROL (0),2,GPWLMN,8             DELETE MEMBER
 001582 41F0 C090            00090  9250  1          +
 001586 41E0 0008/0AF5       00008  9257  1          +
 00158C 4770 6278            0242A  9261  1 1480.                BNZ   HOTERROS
 001590 0AF2                        9262  1 1481.                WAIT  (0)
 001592 4780 6062            02214  9270  1 1482.                BZ    FSUB0                   OK
 001596 4720 79E6            019F8  9271  1 1483.                BP    MINUSRET                MEMBER NOT FOUND
 00159A 47F0 6266            02418  9272  1 1484.                B     ERROS
 00159E                             9273    1485.              END   ,
1VSUB     (VSUB00) (09:50) (22MAR04) ORVYL'S COMMAND PROCESSOR FILE SUBROUTINES                                             Page   80
0Current Usings:  (FSUB#COM,R6) (*,R7) (CLW,R10) (GPW,R12) (DENTRY,R14)
0Loc    Object Code    Addr1 Addr2  Stmt Lv Lineno    Source Statement           (Hibal 5, Asmedit 3.3)  HLASM R4.0  2004/03/22 09.50
+___    ______ ____    _____ _____  ____ __ ______    ______ _________
0                                   9278    1487.     *
                                    9279    1488.     *        NEXT PDS MEMBER, SKIPS BLANKS AND ALIAS'S
                                    9280    1489.     *
                                    9281    1490.     *  RETURNS ENTRY ADDRESS IN GPWNXTAD, IF GPWNXTAD=0 NEXT CALL STARTS
                                    9282    1491.     *  AT BEGINING OF DIRECTORY.
                                    9283    1492.     *  READS DIRECTORY BLOCK ONLY FOR FIRST TIME THRU!! BEWARE.
                                    9284    1493.     *
 00159E                             9285    1494.     NXTMEM   LABEL ,                       RETURN NEXT MEMBER
 00159E 9108 C08C      0008C        9287    1495.              IF    ~GPWFVOSF,BEGIN
 0015A2 4710 75D8            015EA  9297             +
 0015A6 58E0 C0B0/12EE       000B0  9302  1 1496.                LT    R14,GPWNXTAD            LAST MEMBER ENTRY ADDR
 0015AC 4770 75A6            015B8  9306  1 1497.                IF    Z,BEGIN
 0015B0 4D90 77BE            017D0  9317  2 1498.                  LCALL GETDIRX                 IF ZERO START AFRESH
 0015B4 58E0 C040            00040  9319  2 1499.                  L     R14,GPWDIRAP            R14 - ENTRY POINTER
 0015B8                             9320  1 1500.                END   ,
 0015B8 5810 C048            00048  9324  1 1501.                L     R1,GPWDIRAE             R1 - END OF BLOCK
 0015BC                             9325  1 1502.                LOOP  BEGIN                   GET NEXT MEMBER
 0015BC 41EE 0010            00010  9331  2 1503.                  LA    R14,DENTSIZ(R14)
 0015C0 19E1/47A0 75D0       015E2  9332  2 1504.                  IF    (R14,GE,R1),EXIT        DONE
 0015C6 9540 E000      00000        9350  2 1505.                  CLI   DNAME,C' '              SKIP BLANK ENTRIES
 0015CA 47D0 75AA            015BC  9351  2 1506.                  IF    NH,NEXT
 0015CE 9540 E008      00008        9365  2 1507.                  CLI   DALINAM,C' '            SKIP ALIASES
 0015D2 4720 75AA            015BC  9366  2 1508.                  IF    H,NEXT
 0015D6 50E0 C0B0            000B0  9380  2 1509.                  ST    R14,GPWNXTAD            GOT NEXT MEMBER
 0015DA 47F0 6062            02214  9381  2 1510.                  B     FSUB0                   RETURN
 0015DE 47F0 75AA            015BC  9382  1 1511.                END   ,
 0015E2 94F7 C0B4      000B4        9387  1 1512.                CLEAR GPWLNXTM                NO NEXT MEMBER, BM ->
 0015E6 47F0 79E6            019F8  9394  1 1513.                B     MINUSRET
 0015EA                             9395    1514.              END   ,
-
                                    9400    1516.     *
                                    9401    1517.     *        OS PDS'S
                                    9402    1518.     *
 0015EA 75DC           015EA 015A4  9403    1519.              ELSE  BEGIN
 0015EA 47F0 7610            01622  9408             +
 0015EE 58E0 C0B0/12EE       000B0  9414  1 1520.                LT    R14,GPWNXTAD            LAST MEMBER ENTRY ADDR
 0015F4 4770 75F2            01604  9418  1 1521.                IF    Z,BEGIN
 0015F8 4D90 7942            01954  9429  2 1522.                  LCALL GETMEMS                 IF ZERO START AFRESH
 0015FC 58E0 C040            00040  9431  2 1523.                  L     R14,GPWDIRAP            R14 - ENTRY POINTER
 001600 5BE0 7A1A            01A2C  9432  2 1524.                  S     R14,=F'8'
 001604                             9433  1 1525.                END   ,
 001604 5810 C048            00048  9437  1 1526.                L     R1,GPWDIRAE             R1 - END OF BLOCK
 001608                             9438  1 1527.                LOOP  BEGIN                   GET NEXT MEMBER
 001608 41EE 000C            0000C  9444  2 1528.                  LA    R14,12(R14)
 00160C 19E1/47A0 79E6       019F8  9445  2 1529.                  IF    (R14,GE,R1),MINUSRET    END OF DIRECTORY
 001612 9180 E00B      0000B        9463  2 1530.                  TM    11(R14),X'80'           SKIP ALIAS'S
 001616 4770 75F6            01608  9464  1 1531.                UNTIL Z,END
                                    9483  1 1532.     *$ 11(14) TSK TSK BE SERIOUS !!!
 00161A 50E0 C0B0            000B0  9484  1 1533.                ST    R14,GPWNXTAD            GOT NEXT MEMBER
 00161E 47F0 6062            02214  9485  1 1534.                B     FSUB0                   RETURN
 001622                             9486    1535.              END   ,
1VSUB     (VSUB00) (09:50) (22MAR04) ORVYL'S COMMAND PROCESSOR FILE SUBROUTINES                                             Page   81
0Current Usings:  (FSUB#COM,R6) (*,R7) (CLW,R10) (GPW,R12) (DENTRY,R14)
0Loc    Object Code    Addr1 Addr2  Stmt Lv Lineno    Source Statement           (Hibal 5, Asmedit 3.3)  HLASM R4.0  2004/03/22 09.50
+___    ______ ____    _____ _____  ____ __ ______    ______ _________
0                                   9491    1537.     *
                                    9492    1538.     *        NEXT PDS ENTRY, SKIPS ONLY BLANK ENTRY
                                    9493    1539.     *
                                    9494    1540.     *  RETURNS ENTRY ADDRESS IN GPWNXTAD, IF GPWNXTAD=0 NEXT CALL STARTS
                                    9495    1541.     *  AT BEGINING OF DIRECTORY.
                                    9496    1542.     *  READS DIRECTORY BLOCK ONLY FOR FIRST TIME THRU!! BEWARE.
                                    9497    1543.     *
 001622                             9498    1544.     NXTENTRY LABEL ,                       RETURN NEXT ENTRY
 001622 9108 C08C      0008C        9500    1545.              IF    ~GPWFVOSF,BEGIN
 001626 4710 7648            0165A  9510             +
 00162A 58E0 C0B0/12EE       000B0  9515  1 1546.                LT    R14,GPWNXTAD            LAST MEMBER ENTRY ADDR
 001630 4770 762A            0163C  9519  1 1547.                IF    Z,BEGIN
 001634 4D90 77BE            017D0  9530  2 1548.                  LCALL GETDIRX                 IF ZERO START AFRESH
 001638 58E0 C040            00040  9532  2 1549.                  L     R14,GPWDIRAP            R14 - ENTRY POINTER
 00163C                             9533  1 1550.                END   ,
 00163C 5810 C048            00048  9537  1 1551.                L     R1,GPWDIRAE             R1 - END OF BLOCK
 001640                             9538  1 1552.                LOOP  BEGIN                   GET NEXT ENTRY
 001640 41EE 0010            00010  9544  2 1553.                  LA    R14,DENTSIZ(R14)
 001644 19E1/47A0 79E6       019F8  9545  2 1554.                  IF    (R14,GE,R1),MINUSRET    END OF DIRECTORY
 00164A 9540 E000      00000        9563  2 1555.                  CLI   DNAME,C' '              SKIP BLANK ENTRIES
 00164E 47D0 762E            01640  9564  1 1556.                UNTIL H,END
 001652 50F0 C0B0            000B0  9583  1 1557.                ST    R15,GPWNXTAD            GOT NEXT MEMBER
 001656 47F0 6062            02214  9584  1 1558.                B     FSUB0                   RETURN
 00165A                             9585    1559.              END   ,
-
                                    9590    1561.     *
                                    9591    1562.     *        OS PDS'S
                                    9592    1563.     *
 00165A 764C           0165A 01628  9593    1564.              ELSE  BEGIN
 00165A 47F0 7678            0168A  9598             +
 00165E 58E0 C0B0/12EE       000B0  9604  1 1565.                LT    R14,GPWNXTAD            LAST MEMBER ENTRY ADDR
 001664 4770 7662            01674  9608  1 1566.                IF    Z,BEGIN
 001668 4D90 7942            01954  9619  2 1567.                  LCALL GETMEMS                 IF ZERO START AFRESH
 00166C 58E0 C040            00040  9621  2 1568.                  L     R14,GPWDIRAP            R14 - ENTRY POINTER
 001670 5BE0 7A1A            01A2C  9622  2 1569.                  S     R14,=F'8'
 001674                             9623  1 1570.                END   ,
 001674 5810 C048            00048  9627  1 1571.                L     R1,GPWDIRAE             R1 - END OF BLOCK
 001678 41EE 000C            0000C  9628  1 1572.                LA    R14,12(R14)              GET NEXT MEMBER
 00167C 19E1/47A0 79E6       019F8  9629  1 1573.                IF    (R14,GE,R1),MINUSRET    END OF DIRECTORY
 001682 50E0 C0B0            000B0  9647  1 1574.                ST    R14,GPWNXTAD            GOT NEXT MEMBER
 001686 47F0 6062            02214  9648  1 1575.                B     FSUB0                   RETURN
 00168A                             9649    1576.              END   ,
1VSUB     (VSUB00) (09:50) (22MAR04) ORVYL'S COMMAND PROCESSOR FILE SUBROUTINES                                             Page   82
0Current Usings:  (FSUB#COM,R6) (*,R7) (CLW,R10) (GPW,R12) (DENTRY,R14)
0Loc    Object Code    Addr1 Addr2  Stmt Lv Lineno    Source Statement           (Hibal 5, Asmedit 3.3)  HLASM R4.0  2004/03/22 09.50
+___    ______ ____    _____ _____  ____ __ ______    ______ _________
0                                   9654    1578.     *
                                    9655    1579.     *        GET NEXT ALIAS FOR NAME1
                                    9656    1580.     *
                                    9657    1581.     *   RETURNS ALIAS OF GPWLMN ADDRESS IN GPWNXTAD, IF GPWNXTAD IS
                                    9658    1582.     *   ZERO IT STARTS WITH FIRST ALIAS OF MEMBER. IF NO MEMBERS WE
                                    9659    1583.     *   GIVE A MINUS RETURN. OS/FILES ARE NOP-ED (IE ALWAYS HAVE
                                    9660    1584.     *   MINUS RETURN).
                                    9661    1585.     *   THE DIRECTORY BLOCK IS ONLY READ FIRST TIME CALLED, NATCH.
                                    9662    1586.     *   IF NAME FIRST CALLED WITH IS AN ALIAS IT WORKS ALL THE SAME.
 00168A                             9663    1587.     NXTALIAS LABEL ,
 00168A 9108 C08C      0008C        9665    1588.              IF    GPWFVOSF,MINUSRET       OS GETS A MINUS RETURN ALWAYS
 00168E 4710 79E6            019F8  9677             +
 001692 58E0 C0B0/12EE       000B0  9683    1589.              LT    R14,GPWNXTAD            IF ZERO START AFRESH
 001698 4770 7692            016A4  9687    1590.              BNZ   RETALIAS
 00169C 4D90 77BE            017D0  9688    1591.              LCALL GETDIRX
 0016A0 58E0 C040            00040  9690    1592.              L     R14,GPWDIRAP
 0016A4 5810 C048            00048  9691    1593.     RETALIAS L     R1,GPWDIRAE             SET UP FOR BXLE
 0016A8 4100 0010            00010  9692    1594.              LA    R0,DENTSIZ
 0016AC 47F0 76A8            016BA  9693    1595.              B     TRYNEXTA
 0016B0                             9694    1596.     GTALOOP  LABEL ,                       LOOP SEARCHING FOR ALIAS
 0016B0 D507 E008 C090 00008 00090  9696    1597.              CLC   DALINAM(8),GPWLMN
 0016B6 4780 76B0            016C2  9697    1598.              BE    GTARET
 0016BA 87E0 769E            016B0  9698    1599.     TRYNEXTA BXLE  R14,R0,GTALOOP          LOOP
 0016BE 47F0 79E6            019F8  9699    1600.              B     MINUSRET                NOT FOUND
 0016C2 50E0 C0B0            000B0  9700    1601.     GTARET   ST    R14,GPWNXTAD            FOUND
 0016C6 47F0 6062            02214  9701    1602.              B     FSUB0
1VSUB     (VSUB00) (09:50) (22MAR04) ORVYL'S COMMAND PROCESSOR FILE SUBROUTINES                                             Page   83
0Current Usings:  (FSUB#COM,R6) (*,R7) (CLW,R10) (GPW,R12) (DENTRY,R14)
0Loc    Object Code    Addr1 Addr2  Stmt Lv Lineno    Source Statement           (Hibal 5, Asmedit 3.3)  HLASM R4.0  2004/03/22 09.50
+___    ______ ____    _____ _____  ____ __ ______    ______ _________
0                                   9703    1604.     *
                                    9704    1605.     *        GET DIRECTORY ENTRY FOR MEMBER IN GPWLMN
                                    9705    1606.     *
 0016CA                             9706    1607.     FINDNTRY LABEL ,
 0016CA 9009 D000            00000  9708    1608.              VPUSH R0,R9,*
 0016CE 41D0 D028            00028  9710             +
 0016D2 1BFF                        9711    1609.              CLEAR R15
 0016D4 58E0 C040            00040  9715    1610.              L     R14,GPWDIRAP            START OF BLOCK
 0016D8 5810 C048            00048  9716    1611.              L     R1,GPWDIRAE             END OF BLOCK
 0016DC 4100 0010            00010  9717    1612.              LA    R0,DENTSIZ              LENGTH OF ENTRY
 0016E0                             9718    1613.     GTELOOP  LABEL ,
 0016E0 D507 E000 C090 00000 00090  9720    1614.              CLC   DNAME(8),GPWLMN         IS IT REQUESTED ENTRY
 0016E6 4780 76E0            016F2  9721    1615.              BE    GTERET                  YES ->
 0016EA 87E0 76CE            016E0  9722    1616.              BXLE  R14,R0,GTELOOP          NO LOOP
 0016EE 41F0 0004            00004  9723    1617.              LA    R15,4                   NOT FOUND
 0016F2 4BD0 7A32            01A44  9724    1618.     GTERET   VPOP  R0,R9,*                 FOUND
 0016F6 9809 D000            00000  9726             +
 0016FA 13FF                        9727    1619.              LCR   R15,R15
 0016FC 07F9                        9728    1620.              BR    RAR
-
                                    9730    1622.     *
                                    9731    1623.     *        GET BLANK DIRECTORY ENTRY
                                    9732    1624.     *
 0016FE                             9733    1625.     FINDBLNK LABEL ,
 0016FE 9009 D000            00000  9735    1626.              VPUSH R0,R9,*
 001702 41D0 D028            00028  9737             +
 001706 1BFF                        9738    1627.              CLEAR R15
 001708 58E0 C040            00040  9742    1628.              L     R14,GPWDIRAP            START OF BLOCK
 00170C 5810 C048            00048  9743    1629.              L     R1,GPWDIRAE             END OF BLOCK
 001710 4100 0010            00010  9744    1630.              LA    R0,DENTSIZ              LENGTH OF ENTRY
 001714 47F0 7722            01734  9745    1631.              B     NICETRY
 001718                             9746    1632.     GTBLOOP  LABEL ,
 001718 9540 E000      00000        9748    1633.              CLI   DNAME,C' '              GET BLANK ENTRY
 00171C 4720 7722            01734  9749    1634.              BH    NICETRY
 001720 D507 E000 79F8 00000 01A0A  9750    1635.              CLC   DNAME(8),BLANKS         MAKE SURE ALL BLANK
 001726 4780 772A            0173C  9751    1636.              BE    GTBRET
 00172A D607 E000 E000 00000 00000  9752    1637.              OC    DNAME(8),DNAME          OR ZEROS
 001730 4780 772A            0173C  9753    1638.              BZ    GTBRET
 001734 87E0 7706            01718  9754    1639.     NICETRY  BXLE  R14,R0,GTBLOOP          ELSE LOOP
 001738 41F0 0004            00004  9755    1640.              LA    R15,4                   NOT FOUND
 00173C 4BD0 7A32            01A44  9756    1641.     GTBRET   VPOP  R0,R9,*                 FOUND
 001740 9809 D000            00000  9758             +
 001744 13FF                        9759    1642.              LCR   R15,R15
 001746 07F9                        9760    1643.              BR    RAR
1VSUB     (VSUB00) (09:50) (22MAR04) ORVYL'S COMMAND PROCESSOR FILE SUBROUTINES                                             Page   84
0Current Usings:  (FSUB#COM,R6) (*,R7) (CLW,R10) (GPW,R12) (DENTRY,R14)
0Loc    Object Code    Addr1 Addr2  Stmt Lv Lineno    Source Statement           (Hibal 5, Asmedit 3.3)  HLASM R4.0  2004/03/22 09.50
+___    ______ ____    _____ _____  ____ __ ______    ______ _________
0                                   9762    1645.     *
                                    9763    1646.     *        SEARCH DIRETORY
                                    9764    1647.     *
                                    9765    1648.     *  FIND MEMBER FOR NAME IN GPWLMN, IF IT IS AN ALIAS MOVE NAME TO
                                    9766    1649.     *  GPWLMN2, THEN INSERT ACTUAL MEMBER NAME IN GPWLN AND SET GPWALIAS
                                    9767    1650.     *  FLAG.
                                    9768    1651.     *
 001748                             9769    1652.     SRCHDIRX LABEL ,
 001748 9009 D000            00000  9771    1653.              VPUSH R0,R9,*
 00174C 41D0 D028            00028  9773             +
 001750 1BFF                        9774    1654.              CLEAR R15
 001752 94EF C0B4      000B4        9778    1655.              CLEAR GPWALIAS
 001756 58E0 C040            00040  9785    1656.     SRCHIT   L     R14,GPWDIRAP
 00175A 5810 C048            00048  9786    1657.              L     R1,GPWDIRAE
 00175E 4100 0010            00010  9787    1658.              LA    R0,DENTSIZ
 001762                             9788    1659.     SRCHLOOP LABEL ,
 001762 D507 E000 C090 00000 00090  9790    1660.              CLC   DNAME(8),GPWLMN
 001768 4780 776E            01780  9791    1661.              BE    SRCHECK
 00176C 87E0 7750            01762  9792    1662.              BXLE  R14,R0,SRCHLOOP
 001770 41F0 0004            00004  9793    1663.              LA    R15,4
 001774 4BD0 7A32            01A44  9794    1664.              VPOP  R0,R9,*
 001778 9809 D000            00000  9796             +
 00177C 13FF                        9797    1665.              LCR   R15,R15
 00177E 07F9                        9798    1666.              BR    RAR
 001780                             9799    1667.     SRCHECK  LABEL ,
 001780 9540 E008      00008        9801    1668.              CLI   DALINAM,C' '            IS IT AN ALIAS
 001784 4740 77A0            017B2  9802    1669.              BL    SRCHRET
 001788 9110 C0B4      000B4        9803    1670.              IF    GPWALIAS,BEGIN         YES ALL ALIAS MUST POINT
 00178C 47E0 7788            0179A  9813             +
 001790 D507 E008 C090 00008 00090  9818  1 1671.                CLC   DALINAM(8),GPWLMN       TO SAME MEMBER NAME
 001796 4770 77AC            017BE  9819  1 1672.                BNE   BADDIR
 00179A                             9820    1673.              END   ,
 00179A 778C           0179A 0178E  9824    1674.              ELSE  BEGIN                   FOR FIRST ALIAS FOUND
 00179A 47F0 779C            017AE  9829             +
 00179E D207 C098 C090 00098 00090  9835  1 1675.                MVC   GPWLMN2(8),GPWLMN       WE MOVE ALIAS TO NAME2
 0017A4 D207 C090 E008 00090 00008  9836  1 1676.                MVC   GPWLMN(8),DALINAM        AND MEMBER NAME TO NAME1
 0017AA 9610 C0B4      000B4        9837  1 1677.                SET   GPWALIAS                WE ALSO SET ALIAS FLAG
 0017AE                             9843    1678.              END   ,
 0017AE 47F0 7744            01756  9847    1679.              B     SRCHIT                  IF ALIAS WE CONTINUE SEARCH
 0017B2                             9848    1680.     SRCHRET  LABEL ,
 0017B2 4BD0 7A32            01A44  9850    1681.              VPOP  R0,R9,*                 FOUND ACTUAL MEMBER, POP
 0017B6 9809 D000            00000  9852             +
 0017BA 12FF                        9853    1682.              LTR   R15,R15
 0017BC 07F9                        9854    1683.              BR    RAR
 0017BE 4110 0016            00016  9855    1684.     BADDIR   SEG   'Directory error in '
 0017C2 4590 643C            025EE  9857             +
 0017C6 4D90 602A/0414       021DC  9858    1685.              FSCALL SEGNAME
 0017CC 47F0 6052            02204  9862    1686.              B     FSERRTN                 ERROR EXIT
1VSUB     (VSUB00) (09:50) (22MAR04) ORVYL'S COMMAND PROCESSOR FILE SUBROUTINES                                             Page   85
0Current Usings:  (FSUB#COM,R6) (*,R7) (CLW,R10) (GPW,R12) (DENTRY,R14)
0Loc    Object Code    Addr1 Addr2  Stmt Lv Lineno    Source Statement           (Hibal 5, Asmedit 3.3)  HLASM R4.0  2004/03/22 09.50
+___    ______ ____    _____ _____  ____ __ ______    ______ _________
0                                   9864    1688.     *
                                    9865    1689.     *        GET ORVYL PDS DIRECTORY
                                    9866    1690.     *
                                    9867    1691.     *  IF GPWLGOTD: GOT DIRECTORY BLOCK, SKIP DIRECTORY BLOCK READ
                                    9868    1692.     *  IF GPWLNEWD: NEW DIRECTORY, CREATE FIRST DIRECTORY BLOCK
                                    9869    1693.     *
 0017D0                             9870    1694.     GETDIRX  LABEL ,
 0017D0 90E9 D000            00000  9872    1695.              VPUSH R14,R9,*
 0017D4 41D0 D030            00030  9874             +
 0017D8 9140 C0B4      000B4        9875    1696.              IF    GPWLGOTD,BEGIN         IF WE HAVE DIRECTORY BLOCK
 0017DC 47E0 77DC            017EE  9885             +
 0017E0 94BF C0B4      000B4        9890  1 1697.                CLEAR GPWLGOTD
 0017E4 4BD0 7A34            01A46  9897  1 1698.                VPOP  R14,R9,*                RETURN
 0017E8 98E9 D000            00000  9899  1          +
 0017EC 07F9                        9900  1 1699.                BR    RAR
 0017EE                             9901    1700.              END   ,
                                    9905    1701.     *
                                    9906    1702.     * CREATE NEW DIRECTORY
                                    9907    1703.     *
 0017EE 9120 C0B4      000B4        9908    1704.              IF    GPWLNEWD,BEGIN         IF NEW DIRECTORY, CREATE IT
 0017F2 47E0 784C            0185E  9918             +
 0017F6 94DF C0B4      000B4        9923  1 1705.                CLEAR GPWLNEWD
 0017FA 58F0 C044/12FF       00044  9930  1 1706.                LT    R15,GPWDIRAL            ANY CORE ALREADY GOTTEN?
 001800 4780 7802            01814  9934  1 1707.                IF    NZ,BEGIN
 001804 5810 C040            00040  9945  2 1708.                  FREECLW L:GPWDIRAP,(15)       FREE PREVIOUS DIRECTORY
 001808 5890 7A0E/0D99       01A20  9958  2          +
 00180E 1BFF                        9960  2 1709.                  CLEAR R15             ZE      RO LENGTH
 001810 50F0 C044            00044  9964  2 1710.                  ST    R15,GPWDIRAL            IN CASE OF ERROR
 001814                             9965  1 1711.                END   ,                         MLP03
 001814 4110 0800            00800  9969  1 1712.                GETCLW DIRBLEN,DIRBLEN        GET SOME ELBOW ROOM
 001818 41F0 0800            00800  9983  1          +
 00181C 5890 7A12/0D99       01A24  9986  1          +
 001822 4770 62CE            02480  9988  1 1713.                BNZ   NODIRCOR                NOT ENOUGH
 001826 5010 C040            00040  9989  1 1714.                ST    R1,GPWDIRAP              SAVE BEGINNING
 00182A 5000 C044            00044  9990  1 1715.                ST    R0,GPWDIRAL               AND LENGTH
 00182E 1801                        9991  1 1716.                LR    R0,R1               DUMMY UP A DIRECTORY
 001830 4110 0800            00800  9992  1 1717.                LA    R1,DIRBLEN
 001834 1B22                        9993  1 1718.                CLEAR R2
 001836 5830 7A1E            01A30  9997  1 1719.                L     R3,=X'40000000'
 00183A 0E02                        9998  1 1720.                MVCL  R0,R2
 00183C 5810 C040            00040  9999  1 1721.                L     R1,GPWDIRAP
 001840                            10000  1 1722.                CLEAR (@R1,DENTSIZ)
 001840 D70F 1000 1000 00000 00000 10006  1          +
 001846 4D90 7924            01936 10007  1 1723.                LCALL FREUPDIR
 00184A 41F0 0800            00800 10009  1 1724.                LA    R15,DIRBLEN
 00184E 4D90 602A/0C18       021DC 10010  1 1725.                FSCALL WRITEGO
 001854 4BD0 7A34            01A46 10014  1 1726.                VPOP  R14,R9,*                CREATED NEW DIRECTORY
 001858 98E9 D000            00000 10016  1          +
 00185C 07F9                       10017  1 1727.                BR    RAR
 00185E                            10018    1728.              END   ,
                                   10022    1729.     *
                                   10023    1730.     * READ EXISTING DIRECTORY
                                   10024    1731.     *
 00185E                            10025    1732.     READDIR  LABEL ,
1VSUB     (VSUB00) (09:50) (22MAR04) ORVYL'S COMMAND PROCESSOR FILE SUBROUTINES                                             Page   86
0Current Usings:  (FSUB#COM,R6) (*,R7) (CLW,R10) (GPW,R12) (DENTRY,R14)
0Loc    Object Code    Addr1 Addr2  Stmt Lv Lineno    Source Statement           (Hibal 5, Asmedit 3.3)  HLASM R4.0  2004/03/22 09.50
+___    ______ ____    _____ _____  ____ __ ______    ______ _________
000185E 58F0 C044/12FF       00044 10027    1733.              LT    R15,GPWDIRAL            ANY CORE ALREADY GOTTEN?
 001864 4780 7866            01878 10031    1734.              IF    NZ,BEGIN               YES
 001868 5810 C040            00040 10042  1 1735.                FREECLW L:GPWDIRAP,(15)       FREE PREVIOUS DIRECTORY
 00186C 5890 7A0E/0D99       01A20 10055  1          +
 001872 1BFF                       10057  1 1736.                CLEAR R15                     ZERO LENGTH
 001874 50F0 C044            00044 10061  1 1737.                ST    R15,GPWDIRAL            IN CASE OF ERROR
 001878                            10062    1738.              END   ,
 001878 9180 C0B8      000B8       10066    1739.              IF    ~GPWUILIB,NOTLIB        SKIP IF NOT LIBRARY
 00187C 47E0 62E0            02492 10078             +
 001880 4110 0800            00800 10084    1740.              GETCLW DIRBLEN,DIRBLEN        GET SOME ELBOW ROOM
 001884 41F0 0800            00800 10098             +
 001888 5890 7A12/0D99       01A24 10101             +
 00188E 4770 62CE            02480 10103    1741.              BNZ   NODIRCOR                NOT ENOUGH
 001892 5010 C040            00040 10104    1742.              ST    R1,GPWDIRAP             SAVE BEGINNING
 001896 5010 C050            00050 10105    1743.              ST    R1,GPWDIRLS             INITIALIZE LAST ENTRY
 00189A 5000 C044            00044 10106    1744.              ST    R0,GPWDIRAL               AND LENGTH
 00189E                            10107    1745.              CLEAR GPWBN                   FIRST DIRECTORY BLOCK IS ZERO
 00189E D703 C0C0 C0C0 000C0 000C0 10113             +
 0018A4 1831                       10114    1746.              LR    TR,R1                   SAVE START ADDRESS
 0018A6 1820                       10115    1747.              LR    SR,0                    LENGTH
 0018A8 1A23                       10116    1748.              AR    SR,TR                   + START
 0018AA 4B20 7A2A            01A3C 10117    1749.              SH    SR,=Y(DIRBLEN)           -1 BLOCK IS AS FAR AS WE CAN GO
 USING  DIRB,R3                    10118    1750.              USING DIRB,TR                ##
 0018AE 1813                       10127    1751.     DIRREAD  LR    R1,TR                   WHERE TO READ IT
 0018B0 41F0 0800            00800 10128    1752.              LA    R15,DIRBLEN             HOW MUCH TO READ
 0018B4 4D90 602A/0C10       021DC 10129    1753.              FSCALL READGO                 GO GET IT
 0018BA 4770 77AC            017BE 10133    1754.              BNZ   BADDIR                  NOT THERE
 0018BE 4910 7A2A            01A3C 10134    1755.              CH    R1,=Y(DIRBLEN)          RIGHT LENGTH?
 0018C2 4770 77AC            017BE 10135    1756.              BNE   BADDIR                  NO
 0018C6 9500 3000      00000       10136    1757.              CLI   0(TR),0                 FIRST BYTE 0
 0018CA 4770 77AC            017BE 10137    1758.              BNE   BADDIR
 0018CE 5800 3000/1200       00000 10138    1759.              LT    R0,DIRBLINK              NEXT BLOCK POINTER
 0018D4 4780 78D8            018EA 10142    1760.              BZ    GOTDIR                  THAT IS ALL
 0018D8 4130 3800            00800 10143    1761.              LA    TR,DIRBLEN(,TR)         POINT TO NEXT AREA
 0018DC 5000 C0C0            000C0 10144    1762.              ST    R0,GPWBN                 SAVE BLOCK NUMBER
 0018E0 1932                       10145    1763.              CR    TR,SR                   GONE TOO FAR?
 0018E2 47B0 62CE            02480 10146    1764.              BNL   NODIRCOR
 0018E6 47F0 789C            018AE 10147    1765.              B     DIRREAD                 GO GET NEXT BLOCK
                                   10148    1766.
 0018EA                            10149    1767.     GOTDIR   LABEL ,
 0018EA 1813                       10151    1768.              LR    R1,TR
 0018EC 4D90 7924            01936 10152    1769.              LCALL FREUPDIR
 0018F0 4BD0 7A34            01A46 10154    1770.              VPOP  R14,R9,*
 0018F4 98E9 D000            00000 10156             +
 0018F8 07F9                       10157    1771.              BR    RAR
 DROP   DIRB,R3                    10158    1772.              DROP  TR                       ##
1VSUB     (VSUB00) (09:50) (22MAR04) ORVYL'S COMMAND PROCESSOR FILE SUBROUTINES                                             Page   87
0Current Usings:  (FSUB#COM,R6) (*,R7) (CLW,R10) (GPW,R12) (DENTRY,R14)
0Loc    Object Code    Addr1 Addr2  Stmt Lv Lineno    Source Statement           (Hibal 5, Asmedit 3.3)  HLASM R4.0  2004/03/22 09.50
+___    ______ ____    _____ _____  ____ __ ______    ______ _________
0                                  10166    1774.     *
                                   10167    1775.     *  REWRITE DIRECTORY BLOCK
                                   10168    1776.     *
 0018FA                            10169    1777.     PUTDIRX  LABEL ,
 0018FA 90E9 D000            00000 10171    1778.              VPUSH R14,R9,*
 0018FE 41D0 D030            00030 10173             +
 001902 5830 C040            00040 10174    1779.              L     TR,GPWDIRAP             POINT TO FIRST BLOCK
 USING  DIRB,R3                    10175    1780.              USING DIRB,TR                ##
 001906 D203 C0C0 3004 000C0 00004 10184    1781.     PUTDIRLP MVC   GPWBN,DIRBBNUM          BLOCK TO WRITE
 00190C 41F0 0800            00800 10185    1782.              LA    R15,DIRBLEN             LENGTH TO WRITE
 001910 1813                       10186    1783.              LR    R1,TR                   WHERE TO WRITE FROM
 001912 4D90 602A/0C18       021DC 10187    1784.              FSCALL WRITEGO                GO WRITE IT
 001918 4D90 602A/081C       021DC 10191    1785.              FSCALL FORCE
 00191E 5810 3000/1211       00000 10195    1786.              LT    R1,DIRBLINK             LAST BLOCK?
 001924 4130 3800            00800 10199    1787.              LA    TR,DIRBLEN(,TR)         POINT TO NEXT DIRB
 001928 4770 78F4            01906 10200    1788.              BNZ   PUTDIRLP                NOT LAST, WRITE ANOTHER
 00192C 4BD0 7A34            01A46 10201    1789.              VPOP  R14,R9,*
 001930 98E9 D000            00000 10203             +
 001934 07F9                       10204    1790.              BR    RAR
1VSUB     (VSUB00) (09:50) (22MAR04) ORVYL'S COMMAND PROCESSOR FILE SUBROUTINES                                             Page   88
0Current Usings:  (DIRB,R3) (FSUB#COM,R6) (*,R7) (CLW,R10) (GPW,R12) (DENTRY,R14)
0Loc    Object Code    Addr1 Addr2  Stmt Lv Lineno    Source Statement           (Hibal 5, Asmedit 3.3)  HLASM R4.0  2004/03/22 09.50
+___    ______ ____    _____ _____  ____ __ ______    ______ _________
0                                  10206    1792.     *
                                   10207    1793.     *        FREE UP UNUSED DIRECTORY SPACE
                                   10208    1794.     *        (????)
                                   10209    1795.     *
 001936                            10210    1796.     FREUPDIR LABEL ,
 001936 90E9 D000            00000 10212    1797.              VPUSH R14,R9,*
 00193A 41D0 D030            00030 10214             +
 00193E 4130 1800            00800 10215    1798.              LA    TR,DIRBLEN(,R1)         POINT TO END OF LAST BLOCK
 001942 1823                       10216    1799.              LR    SR,TR                   SAVE LAST USED ADDRESS
 001944 0620                       10217    1800.              DECR  SR                      MINUS 1
 001946 5020 C048            00048 10219    1801.              ST    SR,GPWDIRAE             END OF DIRECTORY
                                   10220    1802.     *         LA    TR,DIRBLEN(,TR)         SKIP ONE EXTRA BLOCK
                                   10221    1803.     *         LA    TR,X'FFF'(,TR)          ROUND UP
                                   10222    1804.     *         N     TR,=X'00FFF000'          TO PAGE BOUNDARY
                                   10223    1805.     *         L     R15,GPWDIRAP            START ADDRESS
                                   10224    1806.     *         A     R15,GPWDIRAL            LAST ADDRESS GOTTEN MINUS
                                   10225    1807.     *         SR    R15,TR                   LAST ADDR USED = LENGTH T
                                   10226    1808.     *         L     SR,GPWDIRAL             ORIGINAL LENGTH
                                   10227    1809.     *         SR    SR,R15                   - REMAINING LENGTH
                                   10228    1810.     *         ST    SR,GPWDIRAL              = ALLOCATED LENGTH
                                   10229    1811.     *         LR    R1,TR                   START OF AREA TO FREE
                                   10230    1812.     *         FREECLW (1),(15)              FREE UNUSED SPACE
 00194A 4BD0 7A34            01A46 10231    1813.              VPOP  R14,R9,*
 00194E 98E9 D000            00000 10233             +
 001952 07F9                       10234    1814.              BR    RAR
1VSUB     (VSUB00) (09:50) (22MAR04) ORVYL'S COMMAND PROCESSOR FILE SUBROUTINES                                             Page   89
0Current Usings:  (DIRB,R3) (FSUB#COM,R6) (*,R7) (CLW,R10) (GPW,R12) (DENTRY,R14)
0Loc    Object Code    Addr1 Addr2  Stmt Lv Lineno    Source Statement           (Hibal 5, Asmedit 3.3)  HLASM R4.0  2004/03/22 09.50
+___    ______ ____    _____ _____  ____ __ ______    ______ _________
0                                  10236    1816.     *
                                   10237    1817.     *  READ IN ALL MEMBERS OF OS PDS
                                   10238    1818.     *
                                   10239    1819.     *  NOTE THE ENTRIES START AT GPDIRAP+4 AND ARE 12 BYTES LONG
                                   10240    1820.     *  THERE ARE UP TO 8K OF THEM. (IE 682 ENTRIES).  YUM. EAT IT UP.
                                   10241    1821.     *
 001954                            10242    1822.     GETMEMS  LABEL ,
 001954 90E9 D000            00000 10244    1823.              VPUSH R14,R9,*
 001958 41D0 D030            00030 10246             +
 00195C 58F0 C044/12FF       00044 10247    1824.              LT    R15,GPWDIRAL            ANY CORE ALREADY GOTTEN?
 001962 4780 7964            01976 10251    1825.              IF    NZ,BEGIN                YES
 001966 5810 C040            00040 10262  1 1826.                FREECLW L:GPWDIRAP,(15)       FREE PREVIOUS DIRECTORY
 00196A 5890 7A0E/0D99       01A20 10275  1          +
 001970 1BFF                       10277  1 1827.                CLEAR R15                     ZERO LENGTH
 001972 50F0 C044            00044 10281  1 1828.                ST    R15,GPWDIRAL            IN CASE OF ERROR
 001976                            10282    1829.              END   ,
 001976 9180 C0B8      000B8       10286    1830.              IF    ~GPWUILIB,NOTLIB        SKIP IF NOT LIBRARY
 00197A 47E0 62E0            02492 10298             +
 00197E 5810 79DE/1BFF       019F0 10304    1831.              GETCLW L:OSDIRLEN,0           GET SOME ELBOW ROOM
 001984 5890 7A12/0D99       01A24 10316             +
 00198A 4770 62CE            02480 10318    1832.              BNZ   NODIRCOR                NOT ENOUGH
 00198E 5010 C040            00040 10319    1833.              ST    R1,GPWDIRAP             SAVE BEGINNING
 001992 5010 C050            00050 10320    1834.              ST    R1,GPWDIRLS             INITIALIZE LAST ENTRY
 001996 5000 C044            00044 10321    1835.              ST    R0,GPWDIRAL             AND LENGTH
 00199A D203 1000 79E2 00000 019F4 10322    1836.              MVC   @R1(4),OSDRRQST         INFO REQUEST IN AREA HEADR
 0019A0 18F1                       10323    1837.              LR    R15,R1                  INFO AREA FOR CONTROL
 0019A2 1F00/4300 C08D       0008D 10324    1838.              LC    R0,GPWFID               FILE ID
 0019A8 9140 C000      00000       10329    1839.              IF    GPWFALTF,' LC  R0,GPWAFID'
 0019AC 47E0 79A4/1F00       019B6 10339             +
 0019B2 4300 C12D            0012D 10349             +
 0019B6 58E0 7A22            01A34 10354    1840.              L     R14,=A(8192-4)          LENGTH
 0019BA 4110 0004/0AF5       00004 10355    1841.              CONTROL (0),4,(15),(14)       GET INFO
 0019C0 4770 6278            0242A 10381    1842.              BNZ   HOTERROS
 0019C4 0AF2                       10382    1843.              WAIT  (0)
 0019C6 4770 6266            02418 10390    1844.              BNZ   ERROS
 0019CA 5820 C040            00040 10391    1845.              L     R2,GPWDIRAP             START+LENGTH=END OF INFO AREA
 0019CE 1A21                       10392    1846.              AR    R2,R1
 0019D0 5020 C048            00048 10393    1847.              ST    R2,GPWDIRAE
 0019D4 5020 C050            00050 10394    1848.              ST    R2,GPWDIRLS             ??
 0019D8 5830 C040            00040 10395    1849.              L     R3,GPWDIRAP             END OF AREA - 12
 0019DC 5B30 7A26            01A38 10396    1850.              S     R3,=F'12'
 0019E0 1913/4720 62CE       02480 10397    1851.              IF    (R1,GT,R3),NODIRCOR     MORE INFO THAN AREA ERR
 0019E6 4BD0 7A34            01A46 10415    1852.              VPOP  R14,R9,*
 0019EA 98E9 D000            00000 10417             +
 0019EE 07F9                       10418    1853.              BR    RAR
 DROP   DENTRY,R14                 10419    1854.              DROP  R14                     ##
 0019F0                            10426    1855.              DS    0F
 0019F0 00002000                   10427    1856.     OSDIRLEN DC    X'00002000'             8K
 0019F4 02AA000C                   10428    1857.     OSDRRQST DC    X'02AA000C'             682 12 BYTE ENTRIES
1VSUB     (VSUB00) (09:50) (22MAR04) ORVYL'S COMMAND PROCESSOR FILE SUBROUTINES                                             Page   90
0Current Usings:  (DIRB,R3) (FSUB#COM,R6) (*,R7) (CLW,R10) (GPW,R12)
0Loc    Object Code    Addr1 Addr2  Stmt Lv Lineno    Source Statement           (Hibal 5, Asmedit 3.3)  HLASM R4.0  2004/03/22 09.50
+___    ______ ____    _____ _____  ____ __ ______    ______ _________
0                                  10430    1859.     *
                                   10431    1860.     *  MISCELLANEOUS DIRECTORY RETURN ROUTINES, CONSTANTS, ETC.
                                   10432    1861.     *
 0019F8                            10433    1862.     MINUSRET LABEL ,                       RETURN R15 = -4
 0019F8 41F0 0004            00004 10435    1863.              LA    R15,4
 0019FC 13FF                       10436    1864.              LCR   R15,R15
 0019FE 47F0 6064            02216 10437    1865.              B     FSUBX
0001A02                            10439    1867.     PLUSRET  LABEL ,                       RETURN R15 = 4
 001A02 41F0 0004            00004 10441    1868.              LA    R15,4
 001A06 47F0 6064            02216 10442    1869.              B     FSUBX
0001A0A 4040404040404040           10444    1871.     BLANKS   DC    16C' '                  CONSTANTS
 001A20                            10445    1872.              LTORG
 001A20 00000000                   10447                             =V(FREECLW)
 001A24 00000000                   10448                             =V(GETCLW)
 001A28 00010008                   10449                             =X'00010008'
 001A2C 00000008                   10450                             =F'8'
 001A30 40000000                   10451                             =X'40000000'
 001A34 00001FFC                   10452                             =A(8192-4)
 001A38 0000000C                   10453                             =F'12'
 001A3C 0800                       10454                             =Y(DIRBLEN)
 001A3E 0038                       10455                             =H'56'
 001A40 0034                       10456                             =H'52'
 001A42 003C                       10457                             =H'60'
 001A44 0028                       10458                             =Y((R9+1-(R0)+16*((R0)/(R9+1))/((R0)/(R9+1)))*4)
 001A46 0030           01A48 02D08 10459                             =Y((R9+1-(R14)+16*((R14)/(R9+1))/((R14)/(R9+1)))*4)
1VSUB     (VSUB00) (09:50) (22MAR04) ORVYL'S COMMAND PROCESSOR FILE SUBROUTINES                                             Page   91
0Current Usings:  (DIRB,R3) (FSUB#COM,R6) (*,R7) (CLW,R10) (GPW,R12)
0Loc    Object Code    Addr1 Addr2  Stmt Lv Lineno    Source Statement           (Hibal 5, Asmedit 3.3)  HLASM R4.0  2004/03/22 09.50
+___    ______ ____    _____ _____  ____ __ ______    ______ _________
0                                  10465    1875.              FSCALL FSUB#6                 GENERATE SEGMENT 6
 001A48                            10466    01-FSCAL +FSUB#6   DS    0H
 001A48 0D70                       10469    02-BASE  +         BASR  7,0
 001A4A                            10472    04-00068 +$$$230B      DS 0X
 DROP   *,R7                       10479    06-00180 +       $$USING @R7,7
 USING  *,R7                       10482    04-00180 +       $$USING $$$230B,7
 001A4A 5855 7006            01A50 10484    01-FSCAL +         L     FSUBR,FSUB#6L(FSUBR)    GET ROUTINE ADDRESS
 001A4E 07F5                       10485    01-FSCAL +         BR    FSUBR                   ENTER ROUTINE
 001A50                            10486    01-FSCAL +         CNOP  0,4                     ALIGNMENT
 001A50                            10487    01-FSCAL +FSUB#6L  DS    0H
 001A50 00001A74                   10488    01-FSCAL +         DC    A(TSEGACC)
 001A54 00001A94                   10489    01-FSCAL +         DC    A(SEGACCT)
 001A58 00001AAA                   10490    01-FSCAL +         DC    A(ASMBLNAM)
 001A5C 00001B00                   10491    01-FSCAL +         DC    A(ASKMBERS)
 001A60 00001B1A                   10492    01-FSCAL +         DC    A(ASKERASE)
 001A64 00001B28                   10493    01-FSCAL +         DC    A(RDERASE)
 001A68 00001BB4                   10494    01-FSCAL +         DC    A(FORGROUP)
 001A6C 00001C50                   10495    01-FSCAL +         DC    A(OSERROR)
 001A70 00001B94                   10496    01-FSCAL +         DC    A(CHKSPIRE)
1VSUB     (VSUB00) (09:50) (22MAR04) ORVYL'S COMMAND PROCESSOR FILE SUBROUTINES                                             Page   92
0Current Usings:  (DIRB,R3) (FSUB#COM,R6) (*,R7) (CLW,R10) (GPW,R12)
0Loc    Object Code    Addr1 Addr2  Stmt Lv Lineno    Source Statement           (Hibal 5, Asmedit 3.3)  HLASM R4.0  2004/03/22 09.50
+___    ______ ____    _____ _____  ____ __ ______    ______ _________
0                                  10499    1878.     * TEST FOR GROUP LEVEL ACCOUNT PRIOR TO CONVERT
                                   10500    1879.     *
 001A74                            10501    1880.     TSEGACC  LABEL ,
 001A74 D502 1003 7386 00003 01DD0 10503    1881.              CLC   @R1+3(L'UUU),=C'PUB'
 001A7A 4770 704A            01A94 10504    1882.              BNE   SEGACC1                 NOT GROUP LEVEL
 001A7E D201 C164 1000 00164 00000 10505    1883.              MVC   GPWAFN(L'GG),@R1        GROUP CODE
 001A84 4110 002A            0002A 10506    1884.              SEG   'Group '
 001A88 4590 643C            025EE 10508             +
 001A8C 4100 0002            00002 10509    1885.              LA    R0,2                    NUMBER OF CHARS
 001A90 47F0 7054            01A9E 10510    1886.              B     SEGACC2
                                   10511    1887.     * CONVERT GG.UUU TO UUU$GG AND PRINT   (MOVED FROM VGP)
                                   10512    1888.     *
 001A94                            10513    1889.     SEGACCT  LABEL ,
 001A94 D205 C164 1000 00164 00000 10515    1890.     SEGACC1  MVC   GPWAFN(L'ACCT),@R1      USE ALT FILENAME FOR WORK
 001A9A 4100 0006            00006 10516    1891.              LA    R0,6
 001A9E 4110 C164            00164 10517    1892.     SEGACC2  SEG   GPWAFN,(R0)
 001AA2 4590 603A            021EC 10531             +
 001AA6 47F0 6062            02214 10532    1893.              B     FSUB0
-                                  10534    1895.     * PUT NAME TOGETHER
                                   10535    1896.     *
 001AAA                            10536    1897.     ASMBLNAM LABEL ,                       PUT TOGETHER FILE NAME
 001AAA 9108 C08C      0008C       10538    1898.              IF    (GPWFVOSF,AND,~GPWOSFOK),NOVOSF
 001AAE 47E0 7070            01ABA 10550             +
 001AB2 9102 C001      00001       10561             +
 001AB6 47E0 626C            0241E 10564             +
                                   10570    1899.     *        IF    (GPWFVOSF,AND,(GPWSGRP,NE,'G')),NOVOSF
 001ABA 9500 C08E      0008E       10571    1900.              CLI   GPWFNL,0                FILE NAME SPECIFIED?
 001ABE 4780 63B8            0256A 10572    1901.              BE    ASMNONAM                NO - ERROR
 001AC2 9240 C0C4      000C4       10573    1902.              MVI   GPWFILN,C' '            BLANK FILE NAME
 001AC6 D22A C0C5 C0C4 000C5 000C4 10574    1903.              MVC   GPWFILN+1(L'GPWFILN-1),GPWFILN
 001ACC 9102 C08C      0008C       10575    1904.              IF    ~GPWFFFN,BEGIN          ONLY IF WHOLE NAME
 001AD0 4710 70A6            01AF0 10585             +
 001AD4 9540 C05B      0005B       10590  1 1905.                CLI   GPWUSER,C' '            USER SPECIFIED?
 001AD8 4770 7098            01AE2 10591  1 1906.                IF    EQ,' MVC   GPWUSER,GPWSUSER'   USE 'SET' USER
 001ADC D202 C05B C013 0005B 00013 10603  1          +
 001AE2 9540 C058      00058       10608  1 1907.                CLI   GPWGRP,C' '             GROUP SPECIFIED?
 001AE6 4770 70A6            01AF0 10609  1 1908.                IF    EQ,' MVC   GPWGRP,GPWSGRP'     USE 'SET' GROUP
 001AEA D201 C058 C016 00058 00016 10621  1          +
 001AF0                            10626    1909.              END   ,
 001AF0 1F22/4320 C08E       0008E 10630    1910.              LC    SR,GPWFNL               GET FILENAME LENGTH
 001AF6 0620/4420 738A       01DD4 10637    1911.              DEX   SR,'MVC  GPWFILN(0),GPWFFN'    MOVE FILENAME TO FCB
 001DD3 00                                1          +
 001DD4 D200 C0C4 C054 000C4 00054 10648             +
                                   10656    1912.     *
 001AFC 47F0 6062            02214 10657    1913.              B     FSUB0
1VSUB     (VSUB00) (09:50) (22MAR04) ORVYL'S COMMAND PROCESSOR FILE SUBROUTINES                                             Page   93
0Current Usings:  (DIRB,R3) (FSUB#COM,R6) (*,R7) (CLW,R10) (GPW,R12)
0Loc    Object Code    Addr1 Addr2  Stmt Lv Lineno    Source Statement           (Hibal 5, Asmedit 3.3)  HLASM R4.0  2004/03/22 09.50
+___    ______ ____    _____ _____  ____ __ ______    ______ _________
0                                  10659    1915.     *  ASK TO ERASE LIBRARY MEMBER
                                   10660    1916.     *
 001B00                            10661    1917.     ASKMBERS LABEL ,
 001B00 4110 0031            00031 10663    1918.              SEG   'Replace '
 001B04 4590 643C            025EE 10665             +
 001B08 4D90 602A/0410       021DC 10666    1919.              FSCALL SEGMEMB
 001B0E 4110 003A            0003A 10670    1920.              SEG   'in '
 001B12 4590 643C            025EE 10672             +
 001B16 47F0 70D8            01B22 10673    1921.              B     ERAS1
                                   10674    1922.     *
                                   10675    1923.     *  REQUEST USER FOR ERASE OPTION
                                   10676    1924.     *
 001B1A                            10677    1925.     ASKERASE LABEL ,
 001B1A 4110 0031            00031 10679    1926.              SEG   'Replace '
 001B1E 4590 643C            025EE 10681             +
 001B22 4D90 602A/0414       021DC 10682    1927.     ERAS1    FSCALL SEGNAME
                                   10686    1928.
 001B28                            10687    1929.     RDERASE  LABEL ,
 001B28 5890 736E/0D99       01DB8 10689    1930.              VREAD
 001B2E 4780 70EE            01B38 10694    1931.              IF    NZ,'FSCALL FILEXIT'     QUIT IF ATTENTION
 001B32 4D90 602A/0898       021DC 10708             +
 001B38 1200/4780 7146       01B90 10714    1932.              IF    (R0,Z),RDEXIT           NO RESPONSE
 001B3E 41F0 A2C4            002C4 10731    1933.              SCINIT (1),(0),CLWKWCB
 001B42 58E0 7372/0DEE       01DBC 10751             +
 001B48 4110 7110            01B5A 10753    1934.              SCAN  ERASETBL,CLWKWCB
 001B4C 41F0 A2C4            002C4 10767             +
 001B50 58E0 7376/0DEE       01DC0 10770             +
 001B56 47F0 7146            01B90 10772    1935.              B     RDEXIT                  IGNORE IF NOT IN TABLE
                                   10773    1936.
 001B5A                            10774    1937.     ERASETBL SCKW  YES,ERASEOK
 001B5A 02001B84E8C5E2             10775             +
 001B61 01001B84D6D2               10776    1938.              SCKW  OK,ERASEOK
 001B67                            10778    1939.              SCKW  APPEND,APPENOK,A
 001B67 0D001B8CC1D7D7C5           10779             +
 001B71                            10780    1940.              SCKW  MERGE,APPENOK,A
 001B71 0C001B8CD4C5D9C7           10781             +
 001B7A 00001B84E8                 10782    1941.              SCKW  Y,ERASEOK
 001B7F FF001B90                   10784    1942.              SCKW  ,RDEXIT
                                   10786    1943.
 001B84                            10787    1944.     ERASEOK  LABEL ,
 001B84 9680 C003      00003       10789    1945.              SET   GPWFERS                 SET ERASE OK
 001B88 47F0 7146            01B90 10795    1946.              B     RDEXIT
                                   10796    1947.
 001B8C 9640 C003      00003       10797    1948.     APPENOK  SET   GPWFAPP
 001B90                            10804    1949.     RDEXIT   LABEL ,
 001B90 47F0 6062            02214 10806    1950.              B     FSUB0                   RETURN TO CALLER
1VSUB     (VSUB00) (09:50) (22MAR04) ORVYL'S COMMAND PROCESSOR FILE SUBROUTINES                                             Page   94
0Current Usings:  (DIRB,R3) (FSUB#COM,R6) (*,R7) (CLW,R10) (GPW,R12)
0Loc    Object Code    Addr1 Addr2  Stmt Lv Lineno    Source Statement           (Hibal 5, Asmedit 3.3)  HLASM R4.0  2004/03/22 09.50
+___    ______ ____    _____ _____  ____ __ ______    ______ _________
0                                  10808    1952.     *
                                   10809    1953.     *  CHECK FOR SPIRES ONLY ATTRIBUTE
                                   10810    1954.     *
 001B94                            10811    1955.     CHKSPIRE LABEL ,
 001B94 4D90 602A/0844       021DC 10813    1956.              FSCALL  DOSENSPI              CHECK IT OUT
 001B9A 4780 6062            02214 10817    1957.              IF    Z,FSUB0                 NOT SPIRES ONLY
 001B9E                            10831    1958.              IF    (CLWACCT,EQ,GPWFGRP),FSUB0  OWNER CAN DO ANYTHING
 001B9E D505 A3B0 C0C8 003B0 000C8 10843             +
 001BA4 4780 6062            02214 10846             +
 001BA8 4110 003E            0003E 10852    1959.              SEG   'CLP cannot access Spires-only file'
 001BAC 4590 643C            025EE 10854             +
 001BB0 47F0 6052            02204 10855    1960.              B     FSERRTN
1VSUB     (VSUB00) (09:50) (22MAR04) ORVYL'S COMMAND PROCESSOR FILE SUBROUTINES                                             Page   95
0Current Usings:  (DIRB,R3) (FSUB#COM,R6) (*,R7) (CLW,R10) (GPW,R12)
0Loc    Object Code    Addr1 Addr2  Stmt Lv Lineno    Source Statement           (Hibal 5, Asmedit 3.3)  HLASM R4.0  2004/03/22 09.50
+___    ______ ____    _____ _____  ____ __ ______    ______ _________
0001BB4 4900 7382            01DCC 10857    1962.     FORGROUP CH    R0,=Y(L'ACCT)            RIGHT LENGTH?
 001BB8 4770 6330            024E2 10858    1963.              BNE   BADACCT                 NO - INVALID
 001BBC 1821                       10859    1964.              LR    SR,R1                   SAVE ACCOUNT POINTER
 001BBE 955B 2003      00003       10860    1965.              CLI   L'UUU(SR),C'$'            SEPARATOR?
 001BC2 4770 7194            01BDE 10861    1966.              BNE   FORGP1                  IS MOT $
 001BC6 D201 C007 1004 00007 00004 10862    1967.              MVC   GPWACCT(L'GG),L'UUU+@R1+1  GROUP
 001BCC D202 C00A 1000 0000A 00000 10863    1968.              MVC   GPWACCT+L'GG+1(L'UUU),@R1  USER
 001BD2 924B C009      00009       10864    1969.              MVI   GPWACCT+L'GG,C'.'
 001BD6 92F0 2003      00003       10865    1970.              MVI   L'UUU(SR),C'0'            TEMP FIX FOR TEST
 001BDA 47F0 71A6            01BF0 10866    1971.              B     GRPTST
 001BDE 954B 2002      00002       10867    1972.     FORGP1   CLI   L'GG(SR),C'.'           TRY OTHER OPTION
 001BE2 4770 6330            024E2 10868    1973.              BNE   BADACCT
 001BE6 D205 C007 1000 00007 00000 10869    1974.              MVC   GPWACCT(L'ACCT),@R1     MOVE ACCOUNT
 001BEC 92F0 2002      00002       10870    1975.              MVI   L'GG(SR),C'0'           FOR TEST
 001BF0 95C1 2000      00000       10871    1976.     GRPTST   CLI   @SR,C'A'                CHECK VALIDITY OF ACCOUNT
 001BF4 4740 6330            024E2 10872    1977.              BL    BADACCT
 001BF8 95C9 2000      00000       10873    1978.              CLI   @SR,C'I'
 001BFC 47D0 71E6            01C30 10874    1979.              BNH   CHKNXG
 001C00 95D1 2000      00000       10875    1980.              CLI   @SR,C'J'
 001C04 4740 6330            024E2 10876    1981.              BL    BADACCT
 001C08 95D9 2000      00000       10877    1982.              CLI   @SR,C'R'
 001C0C 47D0 71E6            01C30 10878    1983.              BNH   CHKNXG
 001C10 95E2 2000      00000       10879    1984.              CLI   @SR,C'S'
 001C14 4740 6330            024E2 10880    1985.              BL    BADACCT
 001C18 95E9 2000      00000       10881    1986.              CLI   @SR,C'Z'
 001C1C 47D0 71E6            01C30 10882    1987.              BNH   CHKNXG
 001C20 95F0 2000      00000       10883    1988.              CLI   @SR,C'0'
 001C24 4740 6330            024E2 10884    1989.              BL    BADACCT
 001C28 95F9 2000      00000       10885    1990.              CLI   @SR,C'9'
 001C2C 4720 6330            024E2 10886    1991.              BH    BADACCT
                                   10887    1992.
 001C30 4120 2001            00001 10888    1993.     CHKNXG   LA    SR,@SR+1
 001C34 4600 71A6            01BF0 10889    1994.              BCT   R0,GRPTST                DO ALL
 001C38 95F0 C007      00007       10890    1995.              CLI   GPWACCT,C'0'            FIRST MUST BE ALPHA
 001C3C 47B0 6330            024E2 10891    1996.              BNL   BADACCT
 001C40 95F0 C00A      0000A       10892    1997.              CLI   GPWACCT+L'GG+1,C'0'     ALSO THIS ONE
 001C44 47B0 6330            024E2 10893    1998.              BNL   BADACCT
 001C48 9604 C003      00003       10894    1999.              SET   GPWFACC                 INDICATE GROUP SET
 001C4C 47F0 6062            02214 10900    2000.              B     FSUB0
1VSUB     (VSUB00) (09:50) (22MAR04) ORVYL'S COMMAND PROCESSOR FILE SUBROUTINES                                             Page   96
0Current Usings:  (DIRB,R3) (FSUB#COM,R6) (*,R7) (CLW,R10) (GPW,R12)
0Loc    Object Code    Addr1 Addr2  Stmt Lv Lineno    Source Statement           (Hibal 5, Asmedit 3.3)  HLASM R4.0  2004/03/22 09.50
+___    ______ ____    _____ _____  ____ __ ______    ______ _________
0                                  10902    2002.     *
                                   10903    2003.     * OS ERROR MESSAGES
                                   10904    2004.     *
 001C50                            10905    2005.     OSERROR  LABEL ,                 WE DO  EM ALL
 001C50 50F0 D000            00000 10907    2006.              VPUSH R15,,*
 001C54 41D0 D004            00004 10909             +
 001C58 4110 0061            00061 10910    2007.              SEG   'Request aborted, '     TELL REQUEST ABORTED
 001C5C 4590 643C            025EE 10912             +
 001C60 4BD0 7384            01DCE 10913    2008.              VPOP  R15,,*
 001C64 58F0 D000            00000 10915             +
 001C68 41FF 000C            0000C 10916    2009.              LA    R15,12(R15)
 001C6C 47FF 7226            01C70 10917    2010.              B     OSERRS(R15)
 001C70 47F0 7276            01CC0 10918    2011.     OSERRS   B     OSERRM12                -12 UNUSUAL OS ERROR
 001C74 47F0 7298            01CE2 10919    2012.              B     OSERRM8                 -8
 001C78 47F0 72A4            01CEE 10920    2013.              B     OSERRM4                 -4
 001C7C 47F0 6062            02214 10921    2014.              B     FSUB0                    0  IS OK
 001C80 47F0 72B0            01CFA 10922    2015.              B     OSERR4                   4  ERROR
 001C84 47F0 72BC            01D06 10923    2016.              B     OSERR8                   8   ERRORS
 001C88 47F0 72C8            01D12 10924    2017.              B     OSERR12                 12       AND MORE ERRORS
 001C8C 47F0 72D4            01D1E 10925    2018.              B     OSERR16                 16
 001C90 47F0 72E0            01D2A 10926    2019.              B     OSERR20                 20
 001C94 47F0 72EC            01D36 10927    2020.              B     OSERR24                 24
 001C98 47F0 72F8            01D42 10928    2021.              B     OSERR28                 28
 001C9C 47F0 7304            01D4E 10929    2022.              B     OSERR32                 32
 001CA0 47F0 7310            01D5A 10930    2023.              B     OSERR36                 36
 001CA4 47F0 731C            01D66 10931    2024.              B     OSERR40                 40
 001CA8 47F0 7328            01D72 10932    2025.              B     OSERR44                 44
 001CAC 47F0 7334            01D7E 10933    2026.              B     OSERR48                 48
 001CB0 47F0 7346            01D90 10934    2027.              B     OSERR52                 52
 001CB4 47F0 7352            01D9C 10935    2028.              B     OSERR56                 56
 001CB8 47F0 735E            01DA8 10936    2029.              B     OSERR60                 60
 001CBC 00000000                   10937    2030.              DC    F'0'                    64   BOMB
-
-001CC0                            10939    2032.     OSERRM12 LABEL ,                       UNUSUAL OS ERROR
 001CC0 4110 0073            00073 10941    2033.              SEG   'Unusual OS file error - R14: '
 001CC4 4590 643C            025EE 10943             +
 001CC8 18FE/4100 0008       00008 10944    2034.              SEGHX 8,(R14)                PRINT HEX CONTENTS OF R14
 001CCE 4110 A2E8            002E8 10964             +
 001CD2 58E0 737A/0DEE       01DC4 10967             +
 001CD8 5890 737E/0D99       01DC8 10984             +
 001CDE 47F0 6052            02204 10986    2035.              B     FSERRTN
-001CE2                            10988    2037.     OSERRM8  LABEL ,                       INVALID OPERATION
 001CE2 4110 0091            00091 10990    2038.              SEG   'Invalid operation'     ??
 001CE6 4590 643C            025EE 10992             +
 001CEA 47F0 6052            02204 10993    2039.              B     FSERRTN
-001CEE                            10995    2041.     OSERRM4  LABEL ,                       I/O ERROR
1VSUB     (VSUB00) (09:50) (22MAR04) ORVYL'S COMMAND PROCESSOR FILE SUBROUTINES                                             Page   97
0Current Usings:  (DIRB,R3) (FSUB#COM,R6) (*,R7) (CLW,R10) (GPW,R12)
0Loc    Object Code    Addr1 Addr2  Stmt Lv Lineno    Source Statement           (Hibal 5, Asmedit 3.3)  HLASM R4.0  2004/03/22 09.50
+___    ______ ____    _____ _____  ____ __ ______    ______ _________
0001CEE 4110 00A3            000A3 10997    2042.              SEG   'I/O error'
 001CF2 4590 643C            025EE 10999             +
 001CF6 47F0 6052            02204 11000    2043.              B     FSERRTN
-001CFA                            11002    2045.     OSERR4   LABEL ,                       INVALID FILE,VOLUME,ETC NAME
 001CFA 4110 00AD            000AD 11004    2046.              SEG   'Illegal file, volume, or member name'
 001CFE 4590 643C            025EE 11006             +
 001D02 47F0 6052            02204 11007    2047.              B     FSERRTN
-001D06                            11009    2049.     OSERR8   LABEL ,                       DATA SET NOT ON VOL
 001D06 4110 00D2            000D2 11011    2050.              SEG   'Data set not found on volume'
 001D0A 4590 643C            025EE 11013             +
 001D0E 47F0 6052            02204 11014    2051.              B     FSERRTN
-001D12                            11016    2053.     OSERR12  LABEL ,                       DATA SET NOT ON CATALOUGE
 001D12 4110 00EF            000EF 11018    2054.              SEG   'Data set not found on catalog'
 001D16 4590 643C            025EE 11020             +
 001D1A 47F0 6052            02204 11021    2055.              B     FSERRTN
-001D1E                            11023    2057.     OSERR16  LABEL ,                       ACCESS NOT PERMITTED
 001D1E 4110 010D            0010D 11025    2058.              SEG   'Access not permitted'
 001D22 4590 643C            025EE 11027             +
 001D26 47F0 6052            02204 11028    2059.              B     FSERRTN
-001D2A                            11030    2061.     OSERR20  LABEL ,                       DATA SET IN USE
 001D2A 4110 0122            00122 11032    2062.              SEG   'Data set in use'
 001D2E 4590 643C            025EE 11034             +
 001D32 47F0 6052            02204 11035    2063.              B     FSERRTN
-001D36                            11037    2065.     OSERR24  LABEL ,                       DATA SET ALREADY ON VOLUME
 001D36 4110 0132            00132 11039    2066.              SEG   'Data set already on volume'
 001D3A 4590 643C            025EE 11041             +
 001D3E 47F0 6052            02204 11042    2067.              B     FSERRTN
-001D42                            11044    2069.     OSERR28  LABEL ,                       VOLUME FULL
 001D42 4110 014D            0014D 11046    2070.              SEG   'Volume specified is full'
 001D46 4590 643C            025EE 11048             +
 001D4A 47F0 6052            02204 11049    2071.              B     FSERRTN
-001D4E                            11051    2073.     OSERR32  LABEL ,                       VOLUME VTOC FULL
 001D4E 4110 0166            00166 11053    2074.              SEG   'Volume VTOC is full'
 001D52 4590 643C            025EE 11055             +
 001D56 47F0 6052            02204 11056    2075.              B     FSERRTN
-001D5A                            11058    2077.     OSERR36  LABEL ,                       SYSTEM TABLES FULL
1VSUB     (VSUB00) (09:50) (22MAR04) ORVYL'S COMMAND PROCESSOR FILE SUBROUTINES                                             Page   98
0Current Usings:  (DIRB,R3) (FSUB#COM,R6) (*,R7) (CLW,R10) (GPW,R12)
0Loc    Object Code    Addr1 Addr2  Stmt Lv Lineno    Source Statement           (Hibal 5, Asmedit 3.3)  HLASM R4.0  2004/03/22 09.50
+___    ______ ____    _____ _____  ____ __ ______    ______ _________
0001D5A 4110 017A            0017A 11060    2078.              SEG   'System tables full'
 001D5E 4590 643C            025EE 11062             +
 001D62 47F0 6052            02204 11063    2079.              B     FSERRTN
-001D66                            11065    2081.     OSERR40  LABEL ,                       FILE TABLES FULL
 001D66 4110 018D            0018D 11067    2082.              SEG   'File tables full'
 001D6A 4590 643C            025EE 11069             +
 001D6E 47F0 6052            02204 11070    2083.              B     FSERRTN
-001D72                            11072    2085.     OSERR44  LABEL ,                       END OF FILE
 001D72 4110 019E            0019E 11074    2086.              SEG   'End of file'           NEVER CALLED (?)
 001D76 4590 643C            025EE 11076             +
 001D7A 47F0 6052            02204 11077    2087.              B     FSERRTN
-001D7E                            11079    2089.     OSERR48  LABEL ,                       FILE FULL (END OF EXTENT)
 001D7E 4D90 602A/0414       021DC 11081    2090.              FSCALL SEGNAME
 001D84 4110 01AA            001AA 11085    2091.              SEG   ' full (End of extent)'
 001D88 4590 643C            025EE 11087             +
 001D8C 47F0 6052            02204 11088    2092.              B     FSERRTN
-001D90                            11090    2094.     OSERR52  LABEL ,                       MEMBER EXISTS
 001D90 4110 01C0            001C0 11092    2095.              SEG   'Member already exists' NEVER CALLED (?)
 001D94 4590 643C            025EE 11094             +
 001D98 47F0 6052            02204 11095    2096.              B     FSERRTN
-001D9C                            11097    2098.     OSERR56  LABEL ,                       MEMBER NOF FOUND
 001D9C 4110 01D6            001D6 11099    2099.              SEG   'Member not found'      NEVER CALLED (?)
 001DA0 4590 643C            025EE 11101             +
 001DA4 47F0 6052            02204 11102    2100.              B     FSERRTN
-001DA8                            11104    2102.     OSERR60  LABEL ,                       NO SPACE IN DIRECTORY
 001DA8 4110 01E7            001E7 11106    2103.              SEG   'No space in file directory'
 001DAC 4590 643C            025EE 11108             +
 001DB0 47F0 6052            02204 11109    2104.              B     FSERRTN
1VSUB     (VSUB00) (09:50) (22MAR04) ORVYL'S COMMAND PROCESSOR FILE SUBROUTINES                                             Page   99
0Current Usings:  (DIRB,R3) (FSUB#COM,R6) (*,R7) (CLW,R10) (GPW,R12)
0Loc    Object Code    Addr1 Addr2  Stmt Lv Lineno    Source Statement           (Hibal 5, Asmedit 3.3)  HLASM R4.0  2004/03/22 09.50
+___    ______ ____    _____ _____  ____ __ ______    ______ _________
0001DB8                            11112    2107.              LTORG ,
 001DB8 00000000                   11114                             =V(VREAD)
 001DBC 00000000                   11115                             =V(SCINIT)
 001DC0 00000000                   11116                             =V(SCAN)
 001DC4 00000000                   11117                             =V(BTX)
 001DC8 00000000                   11118                             =V(VSEG)
 001DCC 0006                       11119                             =Y(L'ACCT)
 001DCE 0004                       11120                             =Y(4)
 001DD0 D7E4C2         01DDA 02D08 11121                             =C'PUB'
1VSUB     (VSUB00) (09:50) (22MAR04) ORVYL'S COMMAND PROCESSOR FILE SUBROUTINES                                             Page  100
0Current Usings:  (DIRB,R3) (FSUB#COM,R6) (*,R7) (CLW,R10) (GPW,R12)
0Loc    Object Code    Addr1 Addr2  Stmt Lv Lineno    Source Statement           (Hibal 5, Asmedit 3.3)  HLASM R4.0  2004/03/22 09.50
+___    ______ ____    _____ _____  ____ __ ______    ______ _________
0                                  11126    2109.     *
                                   11127    2110.     *  GLOBAL KEYWORD SCAN TABLES
                                   11128    2111.     *         KEYWORD EXIT ROUTINES
                                   11129    2112.     *
0                                  11131    2114.              ENTRY GOTNKWR                 GOTNAME EXIT ROUTINE
                                   11132    2115.              ENTRY KWFNOPT                 USER/GROUP OPTIONS
                                   11133    2116.              ENTRY QUIET                   QUIET SCAN EXIT
                                   11134    2117.              ENTRY FORACT
                                   11135    2118.              ENTRY FORPUB
                                   11136    2119.              ENTRY SETPUB
                                   11137    2120.              ENTRY GROUP
                                   11138    2121.              ENTRY USER
                                   11139    2122.              ENTRY USR$GRP
                                   11140    2123.              ENTRY OSOPTS                  OS/FILE OPTIONS
                                   11141    2124.              ENTRY OSCREATE                OS/FILE CREATE OPTIONS
0001DDA                            11143    2126.     KWFNOPT  SCKW  USER,USER,(A,P)
 001DDA 8B001FAAE4E2C5D9           11144             +
 001DE2                            11145    2127.              SCKW  GROUP,GROUP,(A,P)
 001DE2 8C001F58C7D9D6E4           11146             +
 001DEB                            11147    2128.              SCKW  ACCOUNT,USR$GRP,(A,P)
 001DEB 8E001FFCC1C3C3D6           11148             +
 001DF6                            11149    2129.              SCKW  PUBLIC,SETPUB,A
 001DF6 0D001F16D7E4C2D3           11150             +
 001E00                            11151    2130.              SCKW  GRP,GROUP,P
 001E00 82001F58C7D9D7             11152             +
 001E07                            11153    2131.              SCKW  USR,USER,P
 001E07 82001FAAE4E2D9             11154             +
 001E0E                            11155    2132.              SCKW  ACCT,USR$GRP,P
 001E0E 83001FFCC1C3C3E3           11156             +
 001E16 F9                         11157    2133.              SCKW  ,,POP
0001E17 810020BED6D5               11160    2135.     OSOPTS   SCKW  ON,VOLUME,P
 001E1D                            11162    2136.              SCKW  OSFILE,OSFILE,A
 001E1D 0D002098D6E2C6C9           11163             +
 001E27                            11164    2137.              SCKW  LOADFILE,LOADFILE
 001E27 0700205CD3D6C1C4           11165             +
 001E33                            11166    2138.              SCKW  OSOK,OSOK               *TESTOS
 001E33 03002062D6E2D6D2           11167             +
 001E3B F9                         11168    2139.              SCKW  ,,POP
0001E3C                            11171    2141.     OSCREATE SCKW  SPACE,SPACE,(P,PI,A),1200
 001E3C BC002126E2D7C1C3           11172             +
 001E45 000004B0                   11173             +
 001E49                            11174    2142.              SCKW  DSPACE,DSPACE,(P,PI),1200
 001E49 B500214CC4E2D7C1           11175             +
 001E53 000004B0                   11176             +
 001E57                            11177    2143.              SCKW  DSPA,DSPACE,(P,PI),1200
 001E57 B300214CC4E2D7C1           11178             +
 001E5F 000004B0                   11179             +
 001E63 F9                         11180    2144.              SCKW  ,,POP
1VSUB     (VSUB00) (09:50) (22MAR04) ORVYL'S COMMAND PROCESSOR FILE SUBROUTINES                                             Page  101
0Current Usings:  (DIRB,R3) (FSUB#COM,R6) (*,R7) (CLW,R10) (GPW,R12)
0Loc    Object Code    Addr1 Addr2  Stmt Lv Lineno    Source Statement           (Hibal 5, Asmedit 3.3)  HLASM R4.0  2004/03/22 09.50
+___    ______ ____    _____ _____  ____ __ ______    ______ _________
0                                  11183    2146.     *  SET QUIET OPTION FOR VAROUS COMMANDS
                                   11184    2147.     *
 001E64 9604 C001      00001       11185    2148.     QUIET    SET   GPWFQIET                SET QUIET FLAG
 001E68 07FE                       11192    2149.              SCRTN (15)                    RETURN TO SCANNER
0001E6A                            11200    2151.     GOTNKWR  LABEL ,
 001E6A 906F D000            00000 11202    2152.              VPUSH BRR,R15,*               GET ADDRESSABILITY
 001E6E 41D0 D028            00028 11204             +
 001E72 0570                       11205    2153.              BALR  BR,0
 DROP   *,R7                       11206    2154.              USING *,BR                    ##
 USING  *,R7
 001E74 5860 7304            02178 11219    2155.              L     BRR,=A(FSUB#COM)        COMMON ADDRESABILITY
 001E78 4D90 602A/040C       021DC 11220    2156.              FSCALL GOTNAME                ENTER FILE SUBROUTINE
 001E7E 4BD0 7318            0218C 11224    2157.              VPOP  BRR,R15,*               RESET SCANNER RETURN
 001E82 986F D000            00000 11226             +
 001E86 07FE                       11227    2158.              SCRTN (15)                    RETURN TO SCANNER
1VSUB     (VSUB00) (09:50) (22MAR04) ORVYL'S COMMAND PROCESSOR FILE SUBROUTINES                                             Page  102
0Current Usings:  (DIRB,R3) (FSUB#COM,R6) (*,R7) (CLW,R10) (GPW,R12)
0Loc    Object Code    Addr1 Addr2  Stmt Lv Lineno    Source Statement           (Hibal 5, Asmedit 3.3)  HLASM R4.0  2004/03/22 09.50
+___    ______ ____    _____ _____  ____ __ ______    ______ _________
0                                  11235    2160.     * THE ROUTINES TO PROCESS 'FOR' CLAUSES IN SET AND SHO
                                   11236    2161.     * PERMITS, FILES, ETC. COMMANDS HAVE BEEN MOVED TO VFSB
                                   11237    2162.     *
                                   11238    2163.     * PROCESS UUU$GG FORM OF ACCOUNT
 001E88                            11239    2164.     FORACT   LABEL ,
 001E88 9067 D000            00000 11241    2165.              VPUSH BRR,BR,*
 001E8C 41D0 D008            00008 11243             +
 001E90 0570                       11244    2166.              BALR  BR,0
 DROP   *,R7                       11245    2167.              USING *,BR                    ##
 USING  *,R7
 001E92 5860 72E6            02178 11258    2168.              L     BRR,=A(FSUB#COM)        COMMON ROUTINES
 001E96 4900 72FC            0218E 11259    2169.              CH    R0,=Y(L'ACCT)
 001E9A 4770 612A            022DC 11260    2170.              BNE   FSUNREC
 001E9E 955B 1003      00003       11261    2171.              CLI   @R1+L'UUU,C'$'          CHECK DELIMITER TYPE
 001EA2 4770 701C            01EAE 11262    2172.              BNE   FORAC1
 001EA6 4120 1004            00004 11263    2173.              LA    R2,@R1+L'UUU+1
 001EAA 47F0 702A            01EBC 11264    2174.              B     FORAC2
 001EAE 954B 1002      00002       11265    2175.     FORAC1   CLI   @R1+L'GG,C'.'
 001EB2 4770 612A            022DC 11266    2176.              BNE   FSUNREC
 001EB6 1821                       11267    2177.              LR    R2,R1
 001EB8 4111 0003            00003 11268    2178.              LA    R1,L'GG+1(R1)
 001EBC 9540 C058      00058       11269    2179.     FORAC2   CLI   GPWGRP,C' '             GROUP ALREADY?
 001EC0 4770 616A            0231C 11270    2180.              BNE   FSDBLGRP
 001EC4 9540 C05B      0005B       11271    2181.              CLI   GPWUSER,C' '
 001EC8 4770 6176            02328 11272    2182.              BNE   FSDBLUSR
 001ECC D202 C05B 1000 0005B 00000 11273    2183.              MVC   GPWUSER,@R1
 001ED2 D201 C058 2000 00058 00000 11274    2184.              MVC   GPWGRP,@R2
 001ED8 4BD0 72FE            02190 11275    2185.              VPOP  BRR,BR,*                RESTORE REGISTERS
 001EDC 9867 D000            00000 11277             +
 001EE0 07FE                       11278    2186.              SCRTN (R15)                   RETURN
                                   11284    2187.     *
                                   11285    2188.     * PROCESS PUBLIC
 001EE2 9067 D000            00000 11286    2189.     FORPUB   VPUSH BRR,BR,*
 001EE6 41D0 D008            00008 11288             +
 001EEA 0570                       11289    2190.              BALR  BR,0
 DROP   *,R7                       11290    2191.              USING *,BR                    ##
 USING  *,R7
 001EEC 5860 728C            02178 11303    2192.              L     BRR,=A(FSUB#COM)        COMMON ROUTINES
 001EF0 9608 C003      00003       11304    2193.              SET   GPWFPUB
 001EF4 9540 C058      00058       11310    2194.              CLI   GPWGRP,C' '             GROUP ALREADY?
 001EF8 4770 612A            022DC 11311    2195.              BNE   FSUNREC                 YES
 001EFC 9540 C05B      0005B       11312    2196.              CLI   GPWUSER,C' '            HOW ABOUT USER?
 001F00 4770 612A            022DC 11313    2197.              BNE   FSUNREC
 001F04 92F0 C058      00058       11314    2198.              MVI   GPWGRP,C'0'             IN CASE OF
 001F08 92F0 C05B      0005B       11315    2199.              MVI   GPWUSER,C'0'              DUPLICATE
 001F0C 4BD0 72A4            02190 11316    2200.              VPOP  BRR,BR,*                RESTORE REGISTERS
 001F10 9867 D000            00000 11318             +
 001F14 07FE                       11319    2201.              SCRTN (R15)                   RETURN
1VSUB     (VSUB00) (09:50) (22MAR04) ORVYL'S COMMAND PROCESSOR FILE SUBROUTINES                                             Page  103
0Current Usings:  (DIRB,R3) (FSUB#COM,R6) (*,R7) (CLW,R10) (GPW,R12)
0Loc    Object Code    Addr1 Addr2  Stmt Lv Lineno    Source Statement           (Hibal 5, Asmedit 3.3)  HLASM R4.0  2004/03/22 09.50
+___    ______ ____    _____ _____  ____ __ ______    ______ _________
0                                  11326    2203.     * GROUP AND USER KEYWORD ROUTINES
                                   11327    2204.     *
                                   11328    2205.     *
 001F16                            11329    2206.     SETPUB   LABEL ,
 001F16 9067 D000            00000 11331    2207.              VPUSH BRR,BR,*
 001F1A 41D0 D008            00008 11333             +
 001F1E 0570                       11334    2208.              BALR  BR,0
 DROP   *,R7                       11335    2209.              USING *,BR                    ##
 USING  *,R7
 001F20 5860 7258            02178 11348    2210.              L     BRR,=A(FSUB#COM)        COMMON ROUTINES
 001F24 50E0 D000            00000 11349    2211.              VPUSH R14,,*                  QUICK RETURN SAVE
 001F28 41D0 D004            00004 11351             +
 001F2C 4110 7284            021A4 11352    2212.              SETMSG '&SYSUSER'
 001F30 4100 0003            00003 11355             +
 001F34 1200                       11356    2213.              LTR   R0,R0                   MAKE POS CC
 001F36 45E0 708A            01FAA 11357    2214.              BAL   R14,USER                FAKE KEYWORD ROUTINE ENTRY
 001F3A 4110 7272            02192 11358    2215.              SETMSG '&SYSGRP'
 001F3E 4100 0002            00002 11361             +
 001F42 45E0 7038            01F58 11362    2216.              BAL   R14,GROUP               FAKE KEYWORD ENTRY
 001F46 4BD0 7274            02194 11363    2217.              VPOP  R14,,*                  RESTORE SCAN RETURN
 001F4A 58E0 D000            00000 11365             +
 001F4E 4BD0 7270            02190 11366    2218.              VPOP  BRR,BR,*
 001F52 9867 D000            00000 11368             +
 001F56 07FE                       11369    2219.              SCRTN (15)
1VSUB     (VSUB00) (09:50) (22MAR04) ORVYL'S COMMAND PROCESSOR FILE SUBROUTINES                                             Page  104
0Current Usings:  (DIRB,R3) (FSUB#COM,R6) (*,R7) (CLW,R10) (GPW,R12)
0Loc    Object Code    Addr1 Addr2  Stmt Lv Lineno    Source Statement           (Hibal 5, Asmedit 3.3)  HLASM R4.0  2004/03/22 09.50
+___    ______ ____    _____ _____  ____ __ ______    ______ _________
0001F58 9068 D000            00000 11377    2221.     GROUP    VPUSH BRR,WAR,*
 001F5C 41D0 D00C            0000C 11379             +
 001F60 0570                       11380    2222.              BALR  BR,0
 DROP   *,R7                       11381    2223.              USING *,BR                    ##
 USING  *,R7
 001F62 5860 7216            02178 11394    2224.              L     BRR,=A(FSUB#COM)        COMMON ROUTINES
 001F66 4780 60F4            022A6 11395    2225.              BZ    FSMISSNG
 001F6A 9540 C058      00058       11396    2226.              CLI   GPWGRP,C' '             ALREADY A GROUP?
 001F6E 4770 616A            0231C 11397    2227.              BNE   FSDBLGRP                YES - ILLEGAL
 001F72 957C 1000      00000       11398    2228.              CLI   0(1),C'@'               RIGHT CHARACTER?
 001F76 4770 7030            01F92 11399    2229.              BNE   GROUP2                  NO
 001F7A 4110 1001            00001 11400    2230.              LA    R1,@R1+1                SKIP @
 001F7E 4600 7030            01F92 11401    2231.              BCT   R0,GROUP2                GO GET REST OF GROUP
 001F82 D201 C058 A3B0 00058 003B0 11402    2232.              MVC   GPWGRP,CLWGROUP         SIGNED ON GROUP
 001F88 4BD0 7234            02196 11403    2233.              VPOP  BRR,WAR,*
 001F8C 9868 D000            00000 11405             +
 001F90 07FE                       11406    2234.              SCRTN (15)                    RETURN TO SCANNER
 001F92 4900 7236            02198 11413    2235.     GROUP2   CH    R0,=Y(L'GG)
 001F96 4770 633C            024EE 11414    2236.              BNE   BADGRP
 001F9A D601 C058 1000 00058 00000 11415    2237.              OC    GPWGRP,@R1
 001FA0 4BD0 7234            02196 11416    2238.              VPOP  BRR,WAR,*
 001FA4 9868 D000            00000 11418             +
 001FA8 07FE                       11419    2239.              SCRTN (15)                    RETURN TO SCANNER
                                   11426    2240.
 001FAA 9068 D000            00000 11427    2241.     USER     VPUSH BRR,WAR,*
 001FAE 41D0 D00C            0000C 11429             +
 001FB2 0570                       11430    2242.              BALR  BR,0
 DROP   *,R7                       11431    2243.              USING *,BR                    ##
 USING  *,R7
 001FB4 5860 71C4            02178 11444    2244.              L     BRR,=A(FSUB#COM)        COMMON ROUTINES
 001FB8 4780 60F4            022A6 11445    2245.              BZ    FSMISSNG
 001FBC 9540 C05B      0005B       11446    2246.              CLI   GPWUSER,C' '            ALREADY A USER?
 001FC0 4770 6176            02328 11447    2247.              BNE   FSDBLUSR                YES - ILLEGAL
 001FC4 9550 1000      00000       11448    2248.              CLI   @R1,C'&&'               RIGHT CHARACTER?
 001FC8 4770 7030            01FE4 11449    2249.              BNE   USER3                   NO
 001FCC 4110 1001            00001 11450    2250.              LA    R1,@R1+1                SKIP &
 001FD0 4600 7030            01FE4 11451    2251.              BCT   R0,USER3                 GO GET REST OF USER
 001FD4 D202 C05B A3B3 0005B 003B3 11452    2252.              MVC   GPWUSER,CLWUSER         USE SIGNED ON USER
 001FDA 4BD0 71E2            02196 11453    2253.              VPOP  BRR,WAR,*
 001FDE 9868 D000            00000 11455             +
 001FE2 07FE                       11456    2254.              SCRTN (15)                    RETURN TO SCANNER
 001FE4 4900 71E6            0219A 11463    2255.     USER3    CH    R0,=Y(L'UUU)            RIGHT LENGTH?
 001FE8 4770 6348            024FA 11464    2256.              BNE   BADUSR                  NO - ILLEGAL
 001FEC D602 C05B 1000 0005B 00000 11465    2257.              OC    GPWUSER,@R1
 001FF2 4BD0 71E2            02196 11466    2258.              VPOP  BRR,WAR,*
 001FF6 9868 D000            00000 11468             +
 001FFA 07FE                       11469    2259.              SCRTN (15)                    RETURN TO SCANNER
1VSUB     (VSUB00) (09:50) (22MAR04) ORVYL'S COMMAND PROCESSOR FILE SUBROUTINES                                             Page  105
0Current Usings:  (DIRB,R3) (FSUB#COM,R6) (*,R7) (CLW,R10) (GPW,R12)
0Loc    Object Code    Addr1 Addr2  Stmt Lv Lineno    Source Statement           (Hibal 5, Asmedit 3.3)  HLASM R4.0  2004/03/22 09.50
+___    ______ ____    _____ _____  ____ __ ______    ______ _________
0001FFC 9067 D000            00000 11477    2261.     USR$GRP  VPUSH BRR,BR,*
 002000 41D0 D008            00008 11479             +
 002004 0570                       11480    2262.              BALR  BR,0
 DROP   *,R7                       11481    2263.              USING *,BR                    ##
 USING  *,R7
 002006 5860 7172            02178 11494    2264.              L     BRR,=A(FSUB#COM)        COMMON ROUTINES
 00200A 4780 60F4            022A6 11495    2265.              BZ    FSMISSNG
 00200E 4900 7188            0218E 11496    2266.              CH    R0,=Y(L'ACCT)
 002012 4770 6330            024E2 11497    2267.              BNE   BADACCT
 002016 9540 C058      00058       11498    2268.              CLI   GPWGRP,C' '             GROUP ALREADY?
 00201A 4770 616A            0231C 11499    2269.              BNE   FSDBLGRP
 00201E 9540 C05B      0005B       11500    2270.              CLI   GPWUSER,C' '
 002022 4770 6176            02328 11501    2271.              BNE   FSDBLUSR
 002026 955B 1003      00003       11502    2272.              CLI   @R1+L'UUU,C'$'          CHECK DELIMITER TYPE
 00202A 4770 7038            0203E 11503    2273.              BNE   GRP$USR
 00202E D601 C058 1004 00058 00004 11504    2274.              OC    GPWGRP,@R1+L'UUU+1
 002034 D602 C05B 1000 0005B 00000 11505    2275.              OC    GPWUSER,@R1
 00203A 47F0 704C            02052 11506    2276.              B     USR$RET
 00203E 954B 1002      00002       11507    2277.     GRP$USR  CLI   @R1+L'GG,C'.'           OTHER OPTION
 002042 4770 6330            024E2 11508    2278.              BNE   BADACCT
 002046 D601 C058 1000 00058 00000 11509    2279.              OC    GPWGRP,@R1
 00204C D602 C05B 1003 0005B 00003 11510    2280.              OC    GPWUSER,@R1+L'GG+1
 002052 4BD0 718A            02190 11511    2281.     USR$RET  VPOP  BRR,BR,*
 002056 9867 D000            00000 11513             +
 00205A 07FE                       11514    2282.              SCRTN (15)                    RETURN TO SCANNER
1VSUB     (VSUB00) (09:50) (22MAR04) ORVYL'S COMMAND PROCESSOR FILE SUBROUTINES                                             Page  106
0Current Usings:  (DIRB,R3) (FSUB#COM,R6) (*,R7) (CLW,R10) (GPW,R12)
0Loc    Object Code    Addr1 Addr2  Stmt Lv Lineno    Source Statement           (Hibal 5, Asmedit 3.3)  HLASM R4.0  2004/03/22 09.50
+___    ______ ____    _____ _____  ____ __ ______    ______ _________
0                                  11522    2284.     *
                                   11523    2285.     *  OS/FILE PARAMETER SCANING,  'ON VOLUME'  ETC.
                                   11524    2286.     *
 00205C 9604 C0B4      000B4       11525    2287.     LOADFILE SET   GPWLLDMD                LOADFILE
 002060 07FE                       11532    2288.              SCRTN (15)
-002062                            11540    2290.     OSOK     DS   0H
 002062 182D/9067 D000       00000 11541    2291.              VPUSH BRR,BR,*,PTR=SR
 002068 41D0 D008            00008 11544             +
 00206C 183D/9085 D000       00000 11545    2292.              VPUSH WAR,R5,*,PTR=TR
 002072 41D0 D038            00038 11548             +
 002076 0570                       11549    2293.              BALR  BR,0
 DROP   *,R7                       11550    2294.              USING *,BR                    ##
 USING  *,R7
 002078 5860 7100            02178 11563    2295.              L     BRR,=A(FSUB#COM)
 00207C 9602 C001      00001       11564    2296.              SET   GPWOSFOK               *TESTOS OS FILES OK
 002080 5890 7104/0D99       0217C 11570    2297.              VCALL PRIVTNOM                OKDOKIE?
 002086 18D3/9885 D000       00000 11574    2298.              VPOP  WAR,R5,PTR=TR           RESTORE
 00208C 4770 612A            022DC 11577    2299.              BNZ   FSUNREC                 NOPE
 002090 18D2/9867 D000       00000 11578    2300.              VPOP  BRR,BR,PTR=SR
 002096 07FE                       11581    2301.              SCRTN (15)                    RETURN TO SCANNER
-
 002098                            11589    2303.     OSFILE   LABEL ,                       OS FILES
 002098 9067 D000            00000 11591    2304.              VPUSH BRR,BR,*
 00209C 41D0 D008            00008 11593             +
 0020A0 0570                       11594    2305.              BALR  BR,0
 DROP   *,R7                       11595    2306.              USING *,BR                    ##
 USING  *,R7
 0020A2 9102 C08C      0008C       11608    2307.              IF    ~GPWFFFN,BEGIN
 0020A6 4710 700E            020B0 11618             +
 0020AA D203 C054 70DE 00054 02180 11623  1 2308.                MVC   GPWFFN(4),=C'WYL.'       SET WYLBUR FILE PREFIX
 0020B0                            11624    2309.              END   ,
 0020B0 9608 C08C      0008C       11628    2310.              SET   GPWFVOSF                 SET OS FILE FLAG
 0020B4 4BD0 70EE            02190 11634    2311.              VPOP  BRR,BR,*
 0020B8 9867 D000            00000 11636             +
 0020BC 07FE                       11637    2312.              SCRTN (15)
-
 0020BE                            11645    2314.     VOLUME   LABEL ,                       SCAN FOR OS VOLUME
 0020BE 9067 D000            00000 11647    2315.              VPUSH BRR,BR,*
 0020C2 41D0 D008            00008 11649             +
 0020C6 0570                       11650    2316.              BALR  BR,0
 DROP   *,R7                       11651    2317.              USING *,BR                    ##
 USING  *,R7
 0020C8 5860 70B0            02178 11664    2318.              L     BRR,=A(FSUB#COM)        COMMON ROUTINES
 0020CC 4780 610C            022BE 11665    2319.              BZ    ILLVOL                  VOLUME NAME WAY TOO SHORT
 0020D0 4900 70D4            0219C 11666    2320.              CH    R0,=H'6'                VOLUME NAME TOO LONG
 0020D4 4720 610C            022BE 11667    2321.              BH    ILLVOL
 0020D8 D205 C0F8 70D6 000F8 0219E 11668    2322.              MVC   OSFVOL(6),=C'      '    BLANK VOLUME NAME
 0020DE D502 1000 70DF 00000 021A7 11669    2323.              CLC   0(3,R1),=C'CATLG'       CATOLOGUE  ??
1VSUB     (VSUB00) (09:50) (22MAR04) ORVYL'S COMMAND PROCESSOR FILE SUBROUTINES                                             Page  107
0Current Usings:  (DIRB,R3) (FSUB#COM,R6) (*,R7) (CLW,R10) (GPW,R12)
0Loc    Object Code    Addr1 Addr2  Stmt Lv Lineno    Source Statement           (Hibal 5, Asmedit 3.3)  HLASM R4.0  2004/03/22 09.50
+___    ______ ____    _____ _____  ____ __ ______    ______ _________
00020E4 4770 7028            020F0 11670    2324.              IF    (E,AND,(R0,EQ,3)),VOLCAT
 0020E8 5900 70BC            02184 11691             +
 0020EC 4780 7042            0210A 11694             +
 0020F0 D504 1000 70DF 00000 021A7 11700    2325.              CLC   0(5,R1),=C'CATLG'
 0020F6 4770 703A            02102 11701    2326.              IF    (E,AND,(R0,EQ,5)),VOLCAT
 0020FA 5900 70C0            02188 11722             +
 0020FE 4780 7042            0210A 11725             +
 002102 1820                       11731    2327.              LR    SR,R0
 002104 0620/4420 70E4       021AC 11732    2328.              DEX   SR,'MVC  OSFVOL(0),@R1'
 0021AC D200 C0F8 1000 000F8 00000 11743             +
 00210A                            11751    2329.     VOLCAT   LABEL ,                        BLANK NAME DEFAULTS TO CAT
 00210A 9102 C08C      0008C       11753    2330.              IF    ~GPWFFFN,BEGIN
 00210E 4710 7050            02118 11763             +
 002112 D203 C054 70B8 00054 02180 11768  1 2331.                MVC   GPWFFN(4),=C'WYL.'       SET WYLBUR FILE PREFIX
 002118                            11769    2332.              END   ,
 002118 9608 C08C      0008C       11773    2333.              SET   GPWFVOSF                 SET OS FILE FLAG
 00211C 4BD0 70C8            02190 11779    2334.              VPOP  BRR,BR,*
 002120 9867 D000            00000 11781             +
 002124 07FE                       11782    2335.              SCRTN (15)
                                   11789    2336.     *$  WHAT DO WE DO WITH ORV.GG.UUU.TEMP ON SCR002  ????
1VSUB     (VSUB00) (09:50) (22MAR04) ORVYL'S COMMAND PROCESSOR FILE SUBROUTINES                                             Page  108
0Current Usings:  (DIRB,R3) (FSUB#COM,R6) (*,R7) (CLW,R10) (GPW,R12)
0Loc    Object Code    Addr1 Addr2  Stmt Lv Lineno    Source Statement           (Hibal 5, Asmedit 3.3)  HLASM R4.0  2004/03/22 09.50
+___    ______ ____    _____ _____  ____ __ ______    ______ _________
0                                  11791    2338.     *
                                   11792    2339.     *  PROCESS SPACE PARMETERS
                                   11793    2340.     *
                                   11794    2341.     *
 002126                            11795    2342.     SPACE    LABEL ,
 002126 9067 D000            00000 11797    2343.              VPUSH BRR,BR,*                SCAN FOR OS SPACE
 00212A 41D0 D008            00008 11799             +
 00212E 0570                       11800    2344.              BALR  BR,0
 DROP   *,R7                       11801    2345.              USING *,BR                    ##
 USING  *,R7
 002130 5860 7048            02178 11814    2346.              L     BRR,=A(FSUB#COM)        COMMON ROUTINES
 002134 4780 6100            022B2 11815    2347.              BZ    ILLSPACE                NO PRIMARY SPACE PARM
 002138 D203 C108 F000 00108 00000 11816    2348.              MVC   OSFSPQTY(4),@R15        PRIMARY SPACE PARM, SAVE IT
 00213E 9680 C106      00106       11817    2349.              SET   OSFSPTRK                ALL ALLOCATIONS IN TRACKS
 002142 4BD0 7060            02190 11823    2350.              VPOP  BRR,BR,*
 002146 9867 D000            00000 11825             +
 00214A 07FE                       11826    2351.              SCRTN (15)
-
-00214C                            11834    2353.     DSPACE   LABEL ,
 00214C 9067 D000            00000 11836    2354.              VPUSH BRR,BR,*                SCAN FOR OS SPACE
 002150 41D0 D008            00008 11838             +
 002154 0570                       11839    2355.              BALR  BR,0
 DROP   *,R7                       11840    2356.              USING *,BR                    ##
 USING  *,R7
 002156 5860 7022            02178 11853    2357.              L     BRR,=A(FSUB#COM)        COMMON ROUTINES
 00215A 4780 6100            022B2 11854    2358.              BZ    ILLSPACE                NO DIRECTORY SPACE PARM
 00215E 9680 C106      00106       11855    2359.              SET   OSFSPTRK
 002162 D201 C110 F002 00110 00002 11861    2360.              MVC   OSFSDBLK(2),2(R15)      DIRECTORY SPACE PARM, SAVE IT
 002168 4BD0 703A            02190 11862    2361.              VPOP  BRR,BR,*
 00216C 9867 D000            00000 11864             +
 002170 07FE                       11865    2362.              SCRTN (15)
1VSUB     (VSUB00) (09:50) (22MAR04) ORVYL'S COMMAND PROCESSOR FILE SUBROUTINES                                             Page  109
0Current Usings:  (DIRB,R3) (FSUB#COM,R6) (*,R7) (CLW,R10) (GPW,R12)
0Loc    Object Code    Addr1 Addr2  Stmt Lv Lineno    Source Statement           (Hibal 5, Asmedit 3.3)  HLASM R4.0  2004/03/22 09.50
+___    ______ ____    _____ _____  ____ __ ______    ______ _________
0002178                            11873    2364.              LTORG ,
 002178 000021B2                   11875                             =A(FSUB#COM)
 00217C 00000000                   11876                             =V(PRIVTNOM)
 002180 E6E8D34B                   11877                             =C'WYL.'
 002184 00000003                   11878                             =A(3)
 002188 00000005                   11879                             =A(5)
 00218C 0028                       11880                             =Y((R15+1-(BRR)+16*((BRR)/(R15+1))/((BRR)/(R15+1)))*4)
 00218E 0006                       11881                             =Y(L'ACCT)
 002190 0008                       11882                             =Y((BR+1-(BRR)+16*((BRR)/(BR+1))/((BRR)/(BR+1)))*4)
 002192 C7C7                       11883                             =C'GG'
 002194 0004                       11884                             =Y(4)
 002196 000C                       11885                             =Y((WAR+1-(BRR)+16*((BRR)/(WAR+1))/((BRR)/(WAR+1)))*4)
 002198 0002                       11886                             =Y(L'GG)
 00219A 0003                       11887                             =Y(L'UUU)
 00219C 0006                       11888                             =H'6'
 00219E 404040404040               11889                             =C'      '
 0021A4 D7E4C2                     11890                             =C'PUB'
 0021A7 C3C1E3D3C7     021B2 02D08 11891                             =C'CATLG'
1VSUB     (VSUB00) (09:50) (22MAR04) ORVYL'S COMMAND PROCESSOR FILE SUBROUTINES                                             Page  110
0Current Usings:  (DIRB,R3) (FSUB#COM,R6) (*,R7) (CLW,R10) (GPW,R12)
0Loc    Object Code    Addr1 Addr2  Stmt Lv Lineno    Source Statement           (Hibal 5, Asmedit 3.3)  HLASM R4.0  2004/03/22 09.50
+___    ______ ____    _____ _____  ____ __ ______    ______ _________
0                                  11896    2366.     *
                                   11897    2367.     *  START OF COMMON ADDRESSABILITY ROUTINES
                                   11898    2368.     *
                                   11901    2371.              FSCALL FSUB#COM               MUST BE FIRST IN SECTION
                                   11902    01-FSCAL +         ENTRY FSUB#COM
 0021B2                            11903    01-FSCAL +FSUB#COM DS    0H
                                   11906    02-LC    +       $$DROP  7
 0021B2 1F77                       11908    02-LC    +         SLR   7,7
 0021B4 4370 9000            00000 11909    02-LC    +         IC    BR,@RAR
                                   11910    02-LC    +       $$USING $$$261B,7
 0021B8 5877 6012            021C4 11911    01-FSCAL +         L     BR,FSUB#SEG(BR)         GET SEGMENT ADDRESS
                                   11914    02-LC    +       $$DROP  5
 0021BC 1F55                       11916    02-LC    +         SLR   5,5
 0021BE 4350 9001            00001 11917    02-LC    +         IC    FSUBR,@RAR+1
                                   11918    02-LC    +       $$USING @R5,5
 0021C2 07F7                       11919    01-FSCAL +         BR    BR                      ENTER ROUTINE
 0021C4                            11920    01-FSCAL +         CNOP  0,4                     ALIGNMENT
 0021C4                            11921    01-FSCAL +FSUB#SEG DS    0F
 0021C4 00000016                   11922    01-FSCAL +         DC    A(FSUB#1)
 0021C8 000003C0                   11923    01-FSCAL +         DC    A(FSUB#2)
 0021CC 0000075E                   11924    01-FSCAL +         DC    A(FSUB#3)
 0021D0 00000CCC                   11925    01-FSCAL +         DC    A(FSUB#4)
 0021D4 00001010                   11926    01-FSCAL +         DC    A(FSUB#5)
 0021D8 00001A48                   11927    01-FSCAL +         DC    A(FSUB#6)
-
                                   11929    2373.              FSCALL GOSUB
 0021DC                            11930    01-FSCAL +GOSUB    DS    0H
 0021DC 9029 D000            00000 11932    02-VSAVE +         STM   SR,RAR,0(13)
 0021E0 188D                       11933    02-VSAVE +         LR    8,13
 0021E2 41D0 D020            00020 11934    02-VSAVE +         LA    13,(RAR+1-(SR)+16*((SR)/(RAR+1))/((SR)/(RAR+1)))*4(,13)
 0021E6 5860 645E            02610 11935    01-FSCAL +         L     BRR,=V(FSUB#COM)        ENTRY ADDRESS
 0021EA 07F6                       11936    01-FSCAL +         BR    BRR                     ENTER FILESUBS
1VSUB     (VSUB00) (09:50) (22MAR04) ORVYL'S COMMAND PROCESSOR FILE SUBROUTINES                                             Page  111
0Current Usings:  (DIRB,R3) (FSUB#COM,R6) (*,R7) (CLW,R10) (GPW,R12)
0Loc    Object Code    Addr1 Addr2  Stmt Lv Lineno    Source Statement           (Hibal 5, Asmedit 3.3)  HLASM R4.0  2004/03/22 09.50
+___    ______ ____    _____ _____  ____ __ ______    ______ _________
00021EC                            11939    2376.     SEG      DS   0H
 0021EC 5090 D000            00000 11940    2377.              VPUSH RAR,,*
 0021F0 41D0 D004            00004 11942             +
 0021F4 5890 6462/0D99       02614 11943    2378.              VSEG  (R1),(R0)
 0021FA 4BD0 6482            02634 11958    2379.              VPOP  RAR,,*
 0021FE 5890 D000            00000 11960             +
 002202 07F9                       11961    2380.              BR    RAR
0002204                            11963    2382.     FSERRTN  LABEL ,
 002204 9868 A358            00358 11965    2383.              LM    BRR,WAR,CLWQRET         BACK TO ORIGINAL CALLER
                                   11966    2384.     *         B     4(,BR)                  RETURN TO CLP
 002208 41F0 7004            00004 11967    2385.              LA    R15,4(,BR)
 00220C 0B0F                       11968    2386.              BSM   0,R15                   RETURN TO CLP IN 24 BIT MODE
000220E                            11970    2388.     FSCLPRTN LABEL ,
 00220E 9868 A358            00358 11972    2389.              LM    BRR,WAR,CLWQRET         BACK TO ORIGINAL CALLER
                                   11973    2390.     *         BR    BR                      RETURN TO CLP
 002212 0B07                       11974    2391.              BSM   0,BR                    RETURN TO CLP IN 24 BIT MODE
0002214                            11976    2393.     FSUB0    LABEL ,                       GENERAL RETURN FROM VSUB
 002214 1BFF                       11978    2394.              CLEAR R15                     CLEAR RETURN CODE
0002216                            11983    2396.     FSUBX    LABEL ,                       GENERAL RETURN WITH R15 SET
 002216 18D8/9829 D000       00000 11985    2397.              VREST SR,RAR
 00221C 12FF                       11988    2398.              LTR   R15,R15                 SET CONDITION CODE
 00221E 47F0 9002            00002 11989    2399.              B     2(,RAR)                 AND RETURN
1VSUB     (VSUB00) (09:50) (22MAR04) ORVYL'S COMMAND PROCESSOR FILE SUBROUTINES                                             Page  112
0Current Usings:  (DIRB,R3) (FSUB#COM,R6) (*,R7) (CLW,R10) (GPW,R12)
0Loc    Object Code    Addr1 Addr2  Stmt Lv Lineno    Source Statement           (Hibal 5, Asmedit 3.3)  HLASM R4.0  2004/03/22 09.50
+___    ______ ____    _____ _____  ____ __ ______    ______ _________
0                                  11991    2401.     *
                                   11992    2402.     * THE FOLLOWING ROUTINES ARE USED BY FILE READ, WRITE AND CONTROLS
                                   11993    2403.     *  (INCLUDING ERASE AND RENAME) TO SET UP FOR, AND RETRY,
                                   11994    2404.     *  OPERATIONS WHICH WERE BLOCKED BECAUSE OF FILE UNAVAILABILITY
-002222                            11996    2406.     SAVRETRY LABEL ,                       SAVE REGS FOR RETRY
 002222 94FB A208      00208       11998    2407.              CLEAR CLWFQMSG                Note message not yet sent
 002226 90E1 D000            00000 12005    2408.              VPUSH R14,R1,*
 00222A 41D0 D010            00010 12007             +
 00222E 07F9                       12008    2409.              BR    RAR                      AND RETURN
-002230                            12010    2411.     UNAVAIL  LABEL ,                       FILE UNAVAILABLE
 002230 9104 A208      00208       12012    2412.              IF    ~CLWFQMSG,BEGIN
 002234 4710 60B2            02264 12022             +
 002238 5090 D000            00000 12027  1 2413.                VPUSH RAR,,*                  SAVE RETRY ADDRESS
 00223C 41D0 D004            00004 12029  1          +
 002240 4110 6466            02618 12030  1 2414.                VWRITE 'Orvyl Queued'         INDICATE A WAIT
 002244 4100 000C            0000C 12035  1          +
 002248 5890 6462/0D99       02614 12038  1          +
 00224E 5890 6472/0D99       02624 12042  1          +
 002254 4770 63CC            0257E 12044  1 2415.                BNZ   REQABORT                IMPATIENT USERS!
 002258 9604 A208      00208       12045  1 2416.                SET   CLWFQMSG                Message sent
 00225C 4BD0 6482            02634 12051  1 2417.                VPOP  RAR,,*                  RESTORE RETRY ADDRESS
 002260 5890 D000            00000 12053  1          +
 002264                            12054    2418.              END
 002264 4100 0074/0AED       00074 12058    2419.              CLPSERV QTIMER                Wait a second
 00226A 5810 A000            00000 12067    2420.              L     R1,CLWSCP
 USING  SCP,R1                     12068    2421.              WITH  (SCP,R1),BEGIN
 00226E 9140 1261      00261       12082  1 2422.                IF    SCBCFCLA,IDLEATTN       BR ON IDLE ATTN
 002272 4710 63C4            02576 12094  1          +
 DROP   SCP,R1                     12100    2423.              END   ,
 002276 4BD0 6484            02636 12108    2424.              VPOP  R14,R1,*                RESTORE REGS FOR RETRY
 00227A 98E1 D000            00000 12110             +
 00227E 41D0 D010            00010 12111    2425.              VPUSH ,,16                    LEAVE R14,R1 THERE
 002282 07F9                       12113    2426.              BR    RAR                     AND TRY AGAIN
1VSUB     (VSUB00) (09:50) (22MAR04) ORVYL'S COMMAND PROCESSOR FILE SUBROUTINES                                             Page  113
0Current Usings:  (DIRB,R3) (FSUB#COM,R6) (*,R7) (CLW,R10) (GPW,R12)
0Loc    Object Code    Addr1 Addr2  Stmt Lv Lineno    Source Statement           (Hibal 5, Asmedit 3.3)  HLASM R4.0  2004/03/22 09.50
+___    ______ ____    _____ _____  ____ __ ______    ______ _________
0                                  12115    2428.     *
                                   12116    2429.     * GLOBAL ERROR MESSAGE ROUTINES
                                   12117    2430.     *
 002284                            12118    2431.     FSNOCORE LABEL ,
 002284 4110 0202            00202 12120    2432.              SEG   'Insufficient user memory to process command'
 002288 4590 643C            025EE 12122             +
 00228C 47F0 6052            02204 12123    2433.              B     FSERRTN                 BR TO ERROR RETURN
0002290                            12125    2435.     FSSCNRTN LABEL ,                       ERROR EXIT FROM SCANNER
 002290 1000                       12127    2436.              LPR   R0,R0                   ANYONE HOME (??)
 002292 4780 60F4            022A6 12128    2437.              IF    Z,FSMISSNG              SOMEBODY'S MISSING
0002296                            12143    2439.     FSILLSTR LABEL ,
 002296 4590 603A            021EC 12145    2440.              SEG   (R1),(R0)               REPORT ILLAGAL STRING
 00229A 4110 022E            0022E 12157    2441.              SEG   ': Invalid string'
 00229E 4590 643C            025EE 12159             +
 0022A2 47F0 6052            02204 12160    2442.              B     FSERRTN                 BR TO ERROR RETURN
00022A6                            12162    2444.     FSMISSNG LABEL ,
 0022A6 4110 023F            0023F 12164    2445.              SEG   'Operand missing'
 0022AA 4590 643C            025EE 12166             +
 0022AE 47F0 6052            02204 12167    2446.              B     FSERRTN                 BR TO ERROR RETURN
00022B2                            12169    2448.     ILLSPACE LABEL ,
 0022B2 4110 024F            0024F 12171    2449.              SEG   'Invalid space parameter'
 0022B6 4590 643C            025EE 12173             +
 0022BA 47F0 6052            02204 12174    2450.              B     FSERRTN
00022BE                            12176    2452.     ILLVOL   LABEL ,
 0022BE 4110 0267            00267 12178    2453.              SEG   'Invalid volume name'
 0022C2 4590 643C            025EE 12180             +
 0022C6 47F0 6052            02204 12181    2454.              B     FSERRTN
 0022CA                            12182    2455.     ILLNAME  LABEL ,
 0022CA 4D90 602A/0414       021DC 12184    2456.              FSCALL SEGNAME
 0022D0                            12188    2457.     FSILNAM1 LABEL ,
 0022D0 4110 027B            0027B 12190    2458.              SEG   'Invalid file name'
 0022D4 4590 643C            025EE 12192             +
 0022D8 47F0 6052            02204 12193    2459.              B     FSERRTN                 BR TO ERROR RETURN
00022DC                            12195    2461.     FSUNREC  LABEL ,
 0022DC 4590 603A            021EC 12197    2462.              SEG   (R1),(R0)
 0022E0 4110 028D            0028D 12209    2463.              SEG   ': Invalid'
 0022E4 4590 643C            025EE 12211             +
 0022E8 47F0 6052            02204 12212    2464.              B     FSERRTN                 BR TO ERROR RETURN
1VSUB     (VSUB00) (09:50) (22MAR04) ORVYL'S COMMAND PROCESSOR FILE SUBROUTINES                                             Page  114
0Current Usings:  (DIRB,R3) (FSUB#COM,R6) (*,R7) (CLW,R10) (GPW,R12)
0Loc    Object Code    Addr1 Addr2  Stmt Lv Lineno    Source Statement           (Hibal 5, Asmedit 3.3)  HLASM R4.0  2004/03/22 09.50
+___    ______ ____    _____ _____  ____ __ ______    ______ _________
00022EC                            12214    2466.     FSHRTORV LABEL ,
 0022EC 4110 0297            00297 12216    2467.              SEG   'Name starting with '
 0022F0 4590 643C            025EE 12218             +
 0022F4 9108 C08C      0008C       12219    2468.              IF    GPWFVOSF,BEGIN
 0022F8 47E0 6152            02304 12229             +
 0022FC 4110 02AB            002AB 12234  1 2469.                SEG   '"WYL."'
 002300 4590 643C            025EE 12236  1          +
 002304 6156           02304 022FA 12237    2470.              END   ELSE,BEGIN
 002304 47F0 615E            02310 12246             +
 002308 4110 02B2            002B2 12252  1 2471.                SEG   '"ORV."'
 00230C 4590 643C            025EE 12254  1          +
 002310                            12255    2472.              END   ,
 002310 4110 02B9            002B9 12259    2473.              SEG   ' must be fully qualified.'
 002314 4590 643C            025EE 12261             +
 002318 47F0 6052            02204 12262    2474.              B     FSERRTN                 BR TO ERROR RETURN
000231C                            12264    2476.     FSDBLGRP LABEL ,
 00231C 4110 02D3            002D3 12266    2477.              SEG   'Group'
 002320 4590 643C            025EE 12268             +
 002324 47F0 617E            02330 12269    2478.              B     FSDBLDEF
0002328                            12271    2480.     FSDBLUSR LABEL ,
 002328 4110 02D9            002D9 12273    2481.              SEG   'User'
 00232C 4590 643C            025EE 12275             +
0002330                            12277    2483.     FSDBLDEF LABEL ,
 002330 4110 02DE            002DE 12279    2484.              SEG   ' Defined twice'
 002334 4590 643C            025EE 12281             +
 002338 47F0 6052            02204 12282    2485.              B     FSERRTN                 BR TO ERROR RETURN
000233C                            12284    2487.     FSNDFLIB LABEL ,
 00233C 4110 02ED            002ED 12286    2488.              SEG   'Default library name not implemented'
 002340 4590 643C            025EE 12288             +
 002344 47F0 6052            02204 12289    2489.              B     FSERRTN                 BR TO ERROR RETURN
0002348                            12291    2491.     FSINVMEM LABEL ,
 002348 4110 0312            00312 12293    2492.              SEG   'Invalid member name specified'
 00234C 4590 643C            025EE 12295             +
 002350 47F0 6052            02204 12296    2493.              B     FSERRTN                 BR TO ERROR RETURN
0002354                            12298    2495.     NOFILSYS LABEL ,
 002354 59F0 6476            02628 12300    2496.              IF    ((R15,EQ,-12),AND,(R1,EQ,4)),BEGIN
 002358 4770 61BA            0236C 12313             +
 00235C 5910 647A            0262C 12326             +
 002360 4770 61BA            0236C 12327             +
 002364 4110 0330            00330 12332  1 2497.                SEG   'File system maintenance in progress'
 002368 4590 643C            025EE 12334  1          +
 00236C 61BE           0236C 0235A 12335    2498.              END   ELSE,BEGIN
 002362 61BE           02364 0236C 12344             +
 00236C 47F0 61C6            02378 12346             +
 002370 4110 0354            00354 12352  1 2499.                SEG   'Orvyl File System not available'
 002374 4590 643C            025EE 12354  1          +
 002378                            12355    2500.              END   ,
 002378 47F0 6052            02204 12359    2501.              B     FSERRTN                 BR TO ERROR RETURN
1VSUB     (VSUB00) (09:50) (22MAR04) ORVYL'S COMMAND PROCESSOR FILE SUBROUTINES                                             Page  115
0Current Usings:  (DIRB,R3) (FSUB#COM,R6) (*,R7) (CLW,R10) (GPW,R12)
0Loc    Object Code    Addr1 Addr2  Stmt Lv Lineno    Source Statement           (Hibal 5, Asmedit 3.3)  HLASM R4.0  2004/03/22 09.50
+___    ______ ____    _____ _____  ____ __ ______    ______ _________
000237C                            12361    2503.     TOOMANY  LABEL ,
 00237C 4110 0374            00374 12363    2504.              SEG   'Too many devices already attached'
 002380 4590 643C            025EE 12365             +
 002384 47F0 6052            02204 12366    2505.              B     FSERRTN                 BR TO ERROR RETURN
0002388                            12368    2507.     NONOWN   LABEL ,
 002388 4110 0396            00396 12370    2508.              SEG   'Non-owner may not change privileges'
 00238C 4590 643C            025EE 12372             +
 002390 47F0 6052            02204 12373    2509.              B     FSERRTN                 BR TO ERROR RETURN
 002394                            12374    2510.     SHRONLY  LABEL ,
 002394 4110 03BA            003BA 12376    2511.              SEG   'Attachable share only'
 002398 4590 643C            025EE 12378             +
 00239C 47F0 6052            02204 12379    2512.              B     FSERRTN                 BR TO ERROR RETURN
00023A0                            12381    2514.     NOTHERE  LABEL ,
 0023A0 4D90 602A/0414       021DC 12383    2515.              FSCALL SEGNAME
 0023A6 4110 03D0            003D0 12387    2516.              SEG   'not found'
 0023AA 4590 643C            025EE 12389             +
 0023AE 47F0 6052            02204 12390    2517.              B     FSERRTN                 BR TO ERROR RETURN
00023B2                            12392    2519.     OFLOW    LABEL ,
 0023B2 4110 03DA            003DA 12394    2520.              SEG   'System table overflow'
 0023B6 4590 643C            025EE 12396             +
 0023BA 47F0 6052            02204 12397    2521.              B     FSERRTN                 BR TO ERROR RETURN
00023BE                            12399    2523.     ATTEXCLU LABEL ,
 0023BE 4D90 602A/0414       021DC 12401    2524.              FSCALL SEGNAME                WRITE NAME
 0023C4 4110 03F0            003F0 12405    2525.              SEG   'Attached exclusively by other user'
 0023C8 4590 643C            025EE 12407             +
 0023CC 47F0 6052            02204 12408    2526.              B     FSERRTN                 BR TO ERROR RETURN
00023D0                            12410    2528.     EXISTS   LABEL ,
 0023D0 4D90 602A/0414       021DC 12412    2529.              FSCALL SEGNAME
 0023D6 4110 0413            00413 12416    2530.              SEG   'already there'
 0023DA 4590 643C            025EE 12418             +
 0023DE 47F0 6052            02204 12419    2531.              B     FSERRTN                 BR TO ERROR RETURN
00023E2                            12421    2533.     OUTRANGE LABEL ,
 0023E2 4110 0421            00421 12423    2534.              SEG   'File overflow, block out of range'
 0023E6 4590 643C            025EE 12425             +
 0023EA 47F0 6052            02204 12426    2535.              B     FSERRTN                 BR TO ERROR RETURN
00023EE                            12428    2537.     NODSPACE LABEL ,
 0023EE 4110 0443            00443 12430    2538.              SEG   'File system full'
 0023F2 4590 643C            025EE 12432             +
 0023F6 47F0 6052            02204 12433    2539.              B     FSERRTN                 BR TO ERROR RETURN
00023FA                            12435    2541.     NOUSPACE LABEL ,
 0023FA 4110 0454            00454 12437    2542.              SEG   'User allocation depleted'
 0023FE 4590 643C            025EE 12439             +
 002402 47F0 6052            02204 12440    2543.              B     FSERRTN                 BR TO ERROR RETURN
0002406                            12442    2545.     NOCLPACC LABEL ,
 002406 4D90 602A/0414       021DC 12444    2546.              FSCALL SEGNAME
1VSUB     (VSUB00) (09:50) (22MAR04) ORVYL'S COMMAND PROCESSOR FILE SUBROUTINES                                             Page  116
0Current Usings:  (DIRB,R3) (FSUB#COM,R6) (*,R7) (CLW,R10) (GPW,R12)
0Loc    Object Code    Addr1 Addr2  Stmt Lv Lineno    Source Statement           (Hibal 5, Asmedit 3.3)  HLASM R4.0  2004/03/22 09.50
+___    ______ ____    _____ _____  ____ __ ______    ______ _________
000240C 4110 046D            0046D 12448    2547.              SEG   'may not be changed by CLP'
 002410 4590 643C            025EE 12450             +
 002414 47F0 6052            02204 12451    2548.              B     FSERRTN                 BR TO ERROR RETURN
1VSUB     (VSUB00) (09:50) (22MAR04) ORVYL'S COMMAND PROCESSOR FILE SUBROUTINES                                             Page  117
0Current Usings:  (DIRB,R3) (FSUB#COM,R6) (*,R7) (CLW,R10) (GPW,R12)
0Loc    Object Code    Addr1 Addr2  Stmt Lv Lineno    Source Statement           (Hibal 5, Asmedit 3.3)  HLASM R4.0  2004/03/22 09.50
+___    ______ ____    _____ _____  ____ __ ______    ______ _________
0                                  12453    2550.     *
                                   12454    2551.     *  PROCESS OS ERRORS HERE
                                   12455    2552.     *
                                   12456    2553.     *  (MOSTLY LINKAGES)
                                   12457    2554.     *  (LINKAGE SAUSAGE)
                                   12458    2555.     *
 002418                            12459    2556.     ERROS    LABEL ,                       SWEET AND SIMPLE
 002418 4D90 602A/141C       021DC 12461    2557.              FSCALL OSERROR                HANDLE ALL WAIT ERR RETURNS
-00241E                            12466    2559.     NOVOSF   LABEL ,                       OS FILES INVALID FOR COMMAND
 00241E 4110 0487            00487 12468    2560.              SEG   'OS File invalid for this command'
 002422 4590 643C            025EE 12470             +
 002426 47F0 6052            02204 12471    2561.              B     FSERRTN
-00242A                            12473    2563.     HOTERROS LABEL ,                       OS ERRS BEFORE WAIT
 00242A 41FF 000C            0000C 12475    2564.              LA    R15,12(R15)
 00242E 47FF 6280            02432 12476    2565.              B     HMERROS(R15)
 002432 47F0 628C            0243E 12477    2566.     HMERROS  B     NOOSFILS                -12 OS FILES NOT AVAILABLE
 002436 47F0 62A4            02456 12478    2567.              B     BADIDS                  -8  INVALID NAME
 00243A 47F0 61CA            0237C 12479    2568.              B     TOOMANY                 -4  TOO MANY DEVICES ATTACHED
000243E                            12481    2570.     NOOSFILS LABEL ,
 00243E 4110 04A8            004A8 12483    2571.              SEG   'OS File system not available'
 002442 4590 643C            025EE 12485             +
 002446 47F0 6052            02204 12486    2572.              B     FSERRTN
 00244A                            12487    2573.     NOOSFIL2 LABEL ,
 00244A 4110 04C5            004C5 12489    2574.              SEG   'OS File system not currently supported by Orvyl'
 00244E 4590 643C            025EE 12491             +
 002452 47F0 6052            02204 12492    2575.              B     FSERRTN
 002456                            12493    2576.     BADIDS   LABEL ,
 002456 4110 04F5            004F5 12495    2577.              SEG   'Invalid file, volume, or member name'
 00245A 4590 643C            025EE 12497             +
 00245E 47F0 6052            02204 12498    2578.              B     FSERRTN
1VSUB     (VSUB00) (09:50) (22MAR04) ORVYL'S COMMAND PROCESSOR FILE SUBROUTINES                                             Page  118
0Current Usings:  (DIRB,R3) (FSUB#COM,R6) (*,R7) (CLW,R10) (GPW,R12)
0Loc    Object Code    Addr1 Addr2  Stmt Lv Lineno    Source Statement           (Hibal 5, Asmedit 3.3)  HLASM R4.0  2004/03/22 09.50
+___    ______ ____    _____ _____  ____ __ ______    ______ _________
0002462                            12500    2580.     ISATT    LABEL ,
 002462 4D90 602A/0414       021DC 12502    2581.              FSCALL SEGNAME
 002468 4110 051A            0051A 12506    2582.              SEG   'already attached'
 00246C 4590 643C            025EE 12508             +
 002470 47F0 6052            02204 12509    2583.              B     FSERRTN
0002474                            12511    2585.     IOERR    LABEL ,
 002474 4110 052B            0052B 12513    2586.              SEG   'Permanent I/O error'
 002478 4590 643C            025EE 12515             +
 00247C 47F0 6052            02204 12516    2587.              B     FSERRTN
0002480 4110 053F            0053F 12518    2589.     NODIRCOR SEG   'Directory too large in '
 002484 4590 643C            025EE 12520             +
 002488 4D90 602A/0414       021DC 12521    2590.              FSCALL SEGNAME
 00248E 47F0 6052            02204 12525    2591.              B     FSERRTN
                                   12526    2592.
 002492 4D90 602A/0414       021DC 12527    2593.     NOTLIB   FSCALL SEGNAME
 002498 4110 0557            00557 12531    2594.              SEG   'is not a library'
 00249C 4590 643C            025EE 12533             +
 0024A0 47F0 6052            02204 12534    2595.              B     FSERRTN
00024A4                            12536    2597.     ACCTCHNG LABEL ,
 0024A4 4110 0568            00568 12538    2598.              SEG   'Rename does not change account'
 0024A8 4590 643C            025EE 12540             +
 0024AC 47F0 6052            02204 12541    2599.              B     FSERRTN
00024B0                            12543    2601.     DONTHAVE LABEL ,
 0024B0 4110 0587            00587 12545    2602.              SEG   'Attempt to give privileges you don''t have'
 0024B4 4590 643C            025EE 12547             +
 0024B8 47F0 6052            02204 12548    2603.              B     FSERRTN
00024BC                            12550    2605.     ILLGRP   LABEL ,
 0024BC 9104 C003      00003       12552    2606.              IF    GPWFACC,BEGIN           GROUP SPECIFIED?
 0024C0 47E0 6324            024D6 12562             +
 0024C4 4110 C007            00007 12567  1 2607.                LA    R1,GPWACCT              POINT TO ACCOUNT
 0024C8 4D90 602A/1404       021DC 12568  1 2608.                FSCALL SEGACCT                WRITE USER'S ACCOUNT
 0024CE 4110 05B1            005B1 12572  1 2609.                SEG   ' - '
 0024D2 4590 643C            025EE 12574  1          +
 0024D6                            12575    2610.              END   ,
 0024D6 4110 05B5            005B5 12579    2611.              SEG   'No file space allocated'
 0024DA 4590 643C            025EE 12581             +
 0024DE 47F0 6052            02204 12582    2612.              B     FSERRTN
1VSUB     (VSUB00) (09:50) (22MAR04) ORVYL'S COMMAND PROCESSOR FILE SUBROUTINES                                             Page  119
0Current Usings:  (DIRB,R3) (FSUB#COM,R6) (*,R7) (CLW,R10) (GPW,R12)
0Loc    Object Code    Addr1 Addr2  Stmt Lv Lineno    Source Statement           (Hibal 5, Asmedit 3.3)  HLASM R4.0  2004/03/22 09.50
+___    ______ ____    _____ _____  ____ __ ______    ______ _________
0                                  12584    2614.     * GROUP/USER ERRORS
                                   12585    2615.     *
 0024E2 41F0 6486            02638 12586    2616.     BADACCT  SYSQS R15,14,'ACCOUNT'
 0024E6 41E0 0007            00007 12589             +
 0024EA 47F0 6350            02502 12590    2617.              B     BADGU
                                   12591    2618.
 0024EE 41F0 648D            0263F 12592    2619.     BADGRP   SYSQS R15,14,'GROUP'
 0024F2 41E0 0005            00005 12595             +
 0024F6 47F0 6350            02502 12596    2620.              B     BADGU
                                   12597    2621.
 0024FA 41F0 647E            02630 12598    2622.     BADUSR   SYSQS R15,14,'USER'
 0024FE 41E0 0004            00004 12601             +
 002502 4590 603A            021EC 12602    2623.     BADGU    SEG   (R1),(R0)               ILLEGAL TOKEN
 002506 4110 05CD            005CD 12615    2624.              SEG   ': Invalid '
 00250A 4590 643C            025EE 12617             +
 00250E 181F/180E                  12618    2625.              SEG   (15),(14)
 002512 4590 603A            021EC 12633             +
 002516 47F0 6052            02204 12634    2626.              B     FSERRTN
000251A                            12636    2628.     VOID     LABEL ,
 00251A 4110 05D8            005D8 12638    2629.              SEG   'Void range'
 00251E 4590 643C            025EE 12640             +
 002522 47F0 6052            02204 12641    2630.              B     FSERRTN
0002526                            12643    2632.     NOWYL    LABEL ,
 002526 4110 05E3            005E3 12645    2633.              SEG   'Wylbur not available'
 00252A 4590 643C            025EE 12647             +
 00252E 47F0 6052            02204 12648    2634.              B     FSERRTN
0                                  12650    2636.
 002532 4110 05F8            005F8 12651    2637.     NOSHACC  SEG   'Show '
 002536 4590 643C            025EE 12653             +
 00253A 47F0 63AC            0255E 12654    2638.              B     NOACCESS
                                   12655    2639.
 00253E 4110 05FE            005FE 12656    2640.     NOAACC   SEG   'Append '
 002542 4590 643C            025EE 12658             +
 002546 47F0 63AC            0255E 12659    2641.              B     NOACCESS
                                   12660    2642.
 00254A 4110 0606            00606 12661    2643.     NOWACC   SEG   'Write '
 00254E 4590 643C            025EE 12663             +
 002552 47F0 63AC            0255E 12664    2644.              B     NOACCESS
                                   12665    2645.
 002556 4110 060D            0060D 12666    2646.     NORACC   SEG   'Read '
 00255A 4590 643C            025EE 12668             +
                                   12669    2647.
 00255E 4110 010D            0010D 12670    2648.     NOACCESS SEG   'Access not permitted'
 002562 4590 643C            025EE 12672             +
 002566 47F0 6052            02204 12673    2649.              B     FSERRTN
000256A                            12675    2651.     ASMNONAM LABEL ,
 00256A 4110 0613            00613 12677    2652.              SEG   'Missing file name'
 00256E 4590 643C            025EE 12679             +
 002572 47F0 6052            02204 12680    2653.              B     FSERRTN
1VSUB     (VSUB00) (09:50) (22MAR04) ORVYL'S COMMAND PROCESSOR FILE SUBROUTINES                                             Page  120
0Current Usings:  (DIRB,R3) (FSUB#COM,R6) (*,R7) (CLW,R10) (GPW,R12)
0Loc    Object Code    Addr1 Addr2  Stmt Lv Lineno    Source Statement           (Hibal 5, Asmedit 3.3)  HLASM R4.0  2004/03/22 09.50
+___    ______ ____    _____ _____  ____ __ ______    ______ _________
0002576                            12682    2655.     IDLEATTN LABEL ,
 002576 5810 A000            00000 12684    2656.              L     R1,CLWSCP
 00257A 94BF 1261      00261       12685    2657.              WITH  (SCP,R1),'CLEAR SCBCFCLA'        IDLE ATTN
 USING  SCP,R1
 DROP   SCP,R1
 00257E 4110 0625            00625 12715    2658.     REQABORT SEG   'Request aborted'
 002582 4590 643C            025EE 12717             +
 002586 47F0 6052            02204 12718    2659.              B     FSERRTN                 TAKE ERROR EXIT
000258A 4110 0635            00635 12720    2661.     WDSFULL  SEG   'Active file full'
 00258E 4590 643C            025EE 12722             +
 002592 47F0 6052            02204 12723    2662.              B     FSERRTN                 TAKE ERROR EXIT
0002596 4110 0646            00646 12725    2664.     BADFORM  SEG   'File not '
 00259A 4590 643C            025EE 12727             +
 00259E 9140 C006      00006       12728    2665.              IF    ~GPWGPFV,BADEDIT        FILE VARIABLE FORMAT?
 0025A2 47E0 6400            025B2 12740             +
 0025A6 4110 0650            00650 12746    2666.              SEG   'variable'
 0025AA 4590 643C            025EE 12748             +
 0025AE 47F0 6418            025CA 12749    2667.              B     BADFCOM
 0025B2 4110 0659            00659 12750    2668.     BADEDIT  SEG   'edit'
 0025B6 4590 643C            025EE 12752             +
 0025BA 9120 C006      00006       12753    2669.              IF    ~GPWGPFLR,BADFCOM       EDIT OR CARD?
 0025BE 47E0 6418            025CA 12765             +
 0025C2 4110 065E            0065E 12771    2670.              SEG   ' or card'
 0025C6 4590 643C            025EE 12773             +
 0025CA                            12774    2671.     BADFCOM  LABEL ,
 0025CA 4110 0667            00667 12776    2672.              SEG   ' format'
 0025CE 4590 643C            025EE 12778             +
 0025D2 47F0 6052            02204 12779    2673.              B     FSERRTN                 TAKE ERROR EXIT
00025D6 4110 066F            0066F 12781    2675.     NOREP    SEG   'Command does not replace (try renumber option)'
 0025DA 4590 643C            025EE 12783             +
 0025DE 47F0 6052            02204 12784    2676.              B     FSERRTN
00025E2                            12786    2678.     LIBFULL  LABEL ,
 0025E2 4110 069E            0069E 12788    2679.              SEG   'No more directory space in library'
 0025E6 4590 643C            025EE 12790             +
 0025EA 47F0 6052            02204 12791    2680.              B     FSERRTN
1VSUB     (VSUB00) (09:50) (22MAR04) ORVYL'S COMMAND PROCESSOR FILE SUBROUTINES                                             Page  121
0Current Usings:  (DIRB,R3) (FSUB#COM,R6) (*,R7) (CLW,R10) (GPW,R12)
0Loc    Object Code    Addr1 Addr2  Stmt Lv Lineno    Source Statement           (Hibal 5, Asmedit 3.3)  HLASM R4.0  2004/03/22 09.50
+___    ______ ____    _____ _____  ____ __ ______    ______ _________
00025EE 5090 D000            00000 12794    2683.              GENMSGS ,                     GENERATE MESSAGE POOL
 0025F2 41D0 D004/1F00       00004 12798             +
 0025F8 4301 6492            02644 12803             +
 0025FC 4111 6493            02645 12804             +
 002600 5890 6462/0D99       02614 12820             +
 002606 4BD0 6482            02634 12823             +
 00260A 5890 D000/07F9       00000 12824             +
 002610 00000000                   12828                             =V(FSUB#COM)
 002614 00000000                   12829                             =V(VSEG)
 002618 D699A5A89340D8A4           12830                             =C'Orvyl Queued'
 002624 00000000                   12831                             =V(VWRITE)
 002628 FFFFFFF4                   12832                             =A(-12)
 00262C 00000004                   12833                             =A(4)
 002630 E4E2C5D9                   12834                             =C'USER'
 002634 0004                       12835                             =Y(4)
 002636 0010                       12836                             =Y((R1+1-(R14)+16*((R14)/(R1+1))/((R14)/(R1+1)))*4)
 002638 C1C3C3D6E4D5E3             12837                             =C'ACCOUNT'
 00263F C7D9D6E4D7     02644 02D08 12838                             =C'GROUP'
 002D08                02D08 02D08 13015    2684.              END   .

1VSUB     (VSUB00) (09:50) (22MAR04) Ordinary Symbol and Literal Cross Reference                                            Page  122
-Symbol   Length   Value     Id    R Type   Defn References                                  HLASM R4.0  2004/03/22 09.50
0$$$@R10       1 00000000 FFFFFFF4     J     836  1144
 $$$@R12       1 00000000 FFFFFFF2     J     862  1157
 $$$@R2        1 00000000 FFFFFFFC     J     732  1028
 $$$@R3        1 00000000 FFFFFFFB     J     745  1041
 $$$@R4        1 00000000 FFFFFFFA     J     758  1054
 $$$@R5        1 00000000 FFFFFFF9     J     771  1067   1079
 $$$@R6        1 00000000 FFFFFFF8     J     784  1092
 $$$@R7        1 00000000 FFFFFFF7     J     797  1105
 $$$@R8        1 00000000 FFFFFFF6     J     810  1118
 $$$@R9        1 00000000 FFFFFFF5     J     823  1131
 $$$C1VSUB
               1 000003C0 00000001     J    4031  4033   4218   4773
 $$$C2VSUB
               1 0000075E 00000001     J    5147  5149
 $$$C3VSUB
               1 00000CCC 00000001     J    6645  6647
 $$$C4VSUB
               1 0000100F 00000001     J    7706  7708
 $$$C5VSUB
               1 00001A48 00000001     J   10460 10462  10654
 $$$C6VSUB
               1 00001DDA 00000001     J   11122 11124  11749
 $$$C7VSUB
               1 000021B2 00000001     J   11892 11894
 $$$C8VSUB
               1 00002644 00000001     J   12839 12841
 $$$C9VSUB
               1 00002D08 00000001     J   13018 13020
 $$$D1VSUB
               1 00000752 00000001     J    4032  4207   4762
 $$$D5VSUB
               1 00001DD3 00000001     J   10461 10643
 $$$D6VSUB
               1 000021AC 00000001     J   11123 11738
 $$$RCLW       1 00000000 FFFFFFED     J    1546  1853   1853
 $$$RSCP       1 00000000 FFFFFFEE     J    1201  1530   1530
 $$$100        6 00000758 00000001     I    4767  4768   4768
 $$$102F       2 000006BA 00000001     H    4995  4906B
 $$$103F       2 000006BA 00000001     H    4991  4925B
 $$$104B       4 0000068E 00000001     I    4940  4953
 $$$104F       2 00000696 00000001     H    4950  4940B  4952
 $$$105E       2 0000069A 00000001     H    4960  4954
 $$$105F       2 0000069E 00000001     H    4967  4956B
 $$$106F       2 000006DC 00000001     H    5052  5024B
 $$$111B       1 00000760 00000001     X    5159  5169U
 $$$113F       2 0000084E 00000001     H    5289  5270B
 $$$114F       2 00000866 00000001     H    5320  5300B
 $$$115F       2 00000898 00000001     H    5427  5331B
 $$$117F       2 000008B4 00000001     H    5480  5456B
 $$$122F       2 00000998 00000001     H    5766  5756B
 $$$123F       2 000009CA 00000001     H    5836  5826B
 $$$124F       2 00000AA4 00000001     H    6006  5996B
 $$$125F       2 00000AFE 00000001     H    6146  6023B
 $$$126F       2 00000ACA 00000001     H    6055  6040B
 $$$127F       2 00000AD6 00000001     H    6081  6066B
1VSUB     (VSUB00) (09:50) (22MAR04) Ordinary Symbol and Literal Cross Reference                                            Page  123
 $$$128F       2 00000AE2 00000001     H    6107  6092B
 $$$129F       2 00000AF2 00000001     H    6139  6118B
 $$$131F       2 00000B58 00000001     H    6239  6229B
 $$$134F       2 00000BCC 00000001     H    6374  6364B
 $$$136F       2 00000C78 00000001     H    6588  6578B
 $$$137B       1 00000CCE 00000001     X    6657  6667U
 $$$139F       2 00000D28 00000001     H    6756  6746B
 $$$140F       2 00000D38 00000001     H    6777  6767B
 $$$142F       2 00000DB4 00000001     H    6941  6931B
 $$$143F       2 00000DCC 00000001     H    6972  6958B
 $$$146F       2 00000E48 00000001     H    7136  7099B
 $$$147F       2 00000E44 00000001     H    7131  7114B
 $$$148F       2 00000E58 00000001     H    7155  7145B
 $$$149F       2 00000E74 00000001     H    7192  7178B
 $$$151F       2 00000EC4 00000001     H    7283  7272B
 $$$152B       4 00000ED8 00000001     I    7336  7353
 $$$152F       2 00000EEA 00000001     H    7350  7336B  7352
 $$$153E       2 00000EEE 00000001     H    7360  7354
 $$$153F       2 00000F12 00000001     H    7427  7356B
 $$$154F       2 00000F02 00000001     H    7391  7377B
 $$$155F       2 00000FCC 00000001     H    7672  7553B
 $$$156F       2 00000FB6 00000001     H    7641  7608B  7625B
 $$$156S       2 00000F94 00000001     H    7602  7640B
 $$$159B       1 00001012 00000001     X    7719  7729U
 $$$160F       2 00001062 00000001     H    7791  7763B
 $$$162B       4 00001110 00000001     I    7953  7970
 $$$162F       2 00001124 00000001     H    7967  7953B  7969
 $$$163E       2 00001128 00000001     H    7977  7971
 $$$163F       2 00001168 00000001     H    8053  7973B
 $$$164F       2 0000113C 00000001     H    8008  7994B
 $$$165B       4 0000116C 00000001     I    8071  8193
 $$$165F       2 000011CC 00000001     H    8186  8071B  8192
 $$$166B       4 00001174 00000001     I    8086  8109
 $$$166F       2 00001186 00000001     H    8106  8086B  8108
 $$$167E       2 0000118A 00000001     H    8116  8110
 $$$167F       2 00001196 00000001     H    8126  8112B
 $$$168F       2 000011AE 00000001     H    8168  8157B
 $$$169E       2 000011D0 00000001     H    8200  8194
 $$$169F       2 0000121A 00000001     H    8314  8196B
 $$$170B       4 000011D4 00000001     I    8212  8228
 $$$170F       2 000011DE 00000001     H    8225  8212B  8227
 $$$171E       2 000011E2 00000001     H    8235  8229
 $$$171F       2 000011E6 00000001     H    8242  8231B
 $$$172F       2 00001200 00000001     H    8274  8260B
 $$$173B       4 0000121E 00000001     I    8335  8389
 $$$173F       2 00001250 00000001     H    8382  8335B  8388
 $$$174F       2 00001236 00000001     H    8363  8352B
 $$$175E       2 00001254 00000001     H    8396  8390
 $$$175F       2 000012A4 00000001     H    8496  8392B
 $$$176F       2 0000129C 00000001     H    8484  8408B
 $$$177F       2 0000126C 00000001     H    8438  8424B
 $$$178B       4 000012AC 00000001     I    8527  8609
 $$$178F       2 0000133A 00000001     H    8599  8527B  8608
 $$$179E       2 0000133E 00000001     H    8616  8610
 $$$179F       2 00001370 00000001     H    8693  8612B
 $$$180F       2 00001352 00000001     H    8647  8633B
 $$$181B       4 00001374 00000001     I    8710  8776
 $$$181F       2 000013D2 00000001     H    8772  8710B  8775
 $$$183E       2 000013D6 00000001     H    8783  8777
1VSUB     (VSUB00) (09:50) (22MAR04) Ordinary Symbol and Literal Cross Reference                                            Page  124
 $$$183F       2 0000141E 00000001     H    8865  8779B
 $$$184F       2 000013EA 00000001     H    8814  8800B
 $$$185B       4 00001422 00000001     I    8882  8941
 $$$185F       2 0000148E 00000001     H    8937  8882B  8940
 $$$186F       2 00001458 00000001     H    8912  8899B
 $$$187E       2 00001492 00000001     H    8948  8942
 $$$187F       2 000014D6 00000001     H    9030  8944B
 $$$188F       2 000014A6 00000001     H    8979  8965B
 $$$189B       4 000014DA 00000001     I    9047  9192
 $$$189F       2 00001566 00000001     H    9185  9047B  9191
 $$$190F       2 00001510 00000001     H    9084  9064B
 $$$191F       2 0000152A 00000001     H    9121  9110B
 $$$191S       2 00001516 00000001     H    9096  9120B
 $$$193F       2 00001562 00000001     H    9180  9158B
 $$$194E       2 0000156A 00000001     H    9199  9193
 $$$194F       2 0000159E 00000001     H    9276  9195B
 $$$195F       2 0000157E 00000001     H    9230  9216B
 $$$196B       4 000015A2 00000001     I    9297  9405
 $$$196F       2 000015EA 00000001     H    9398  9297B  9404
 $$$197F       2 000015B8 00000001     H    9323  9312B
 $$$198F       2 000015E2 00000001     H    9386  9344B
 $$$198S       2 000015BC 00000001     H    9329  9359B  9374B  9385B
 $$$202E       2 000015EE 00000001     H    9412  9406
 $$$202F       2 00001622 00000001     H    9489  9408B
 $$$203F       2 00001604 00000001     H    9436  9424B
 $$$204S       2 00001608 00000001     H    9442  9477B
 $$$208B       4 00001626 00000001     I    9510  9595
 $$$208F       2 0000165A 00000001     H    9588  9510B  9594
 $$$209F       2 0000163C 00000001     H    9536  9525B
 $$$210S       2 00001640 00000001     H    9542  9577B
 $$$214E       2 0000165E 00000001     H    9602  9596
 $$$214F       2 0000168A 00000001     H    9652  9598B
 $$$215F       2 00001674 00000001     H    9626  9614B
 $$$218B       4 0000178C 00000001     I    9813  9826
 $$$218F       2 0000179A 00000001     H    9823  9813B  9825
 $$$219E       2 0000179E 00000001     H    9833  9827
 $$$219F       2 000017AE 00000001     H    9846  9829B
 $$$220F       2 000017EE 00000001     H    9904  9885B
 $$$221F       2 0000185E 00000001     H   10021  9918B
 $$$222F       2 00001814 00000001     H    9968  9940B
 $$$224F       2 00001878 00000001     H   10065 10037B
 $$$226F       2 00001976 00000001     H   10285 10257B
 $$$228F       2 000019B6 00000001     H   10353 10339B
 $$$230B       1 00001A4A 00000001     X   10472 10482U
 $$$231F       2 00001ABA 00000001     H   10567 10550B
 $$$233F       2 00001AF0 00000001     H   10629 10585B
 $$$234F       2 00001AE2 00000001     H   10607 10597B
 $$$235F       2 00001AF0 00000001     H   10625 10615B
 $$$236        6 00001DD4 00000001     I   10649 10641X
 $$$237        6 00001DD4 00000001     I   10648 10649  10649
 $$$238F       2 00001B38 00000001     H   10713 10700B
 $$$242B       1 00001E74 00000001     X   11207 11217U
 $$$243B       1 00001E92 00000001     X   11246 11256U
 $$$244B       1 00001EEC 00000001     X   11291 11301U
 $$$245B       1 00001F20 00000001     X   11336 11346U
 $$$246B       1 00001F62 00000001     X   11382 11392U
 $$$247B       1 00001FB4 00000001     X   11432 11442U
 $$$248B       1 00002006 00000001     X   11482 11492U
 $$$249B       1 00002078 00000001     X   11551 11561U
1VSUB     (VSUB00) (09:50) (22MAR04) Ordinary Symbol and Literal Cross Reference                                            Page  125
 $$$250B       1 000020A2 00000001     X   11596 11606U
 $$$251F       2 000020B0 00000001     H   11627 11618B
 $$$252B       1 000020C8 00000001     X   11652 11662U
 $$$253F       2 000020F0 00000001     H   11697 11678B
 $$$255F       2 00002102 00000001     H   11728 11709B
 $$$257        6 000021AC 00000001     I   11744 11736X
 $$$258        6 000021AC 00000001     I   11743 11744  11744
 $$$259F       2 00002118 00000001     H   11772 11763B
 $$$260B       1 00002130 00000001     X   11802 11812U
 $$$261B       1 00002156 00000001     X   11841 11851U 11910U
 $$$262F       2 00002264 00000001     H   12057 12022B
 $$$265B       4 000022F8 00000001     I   12229 12243
 $$$265F       2 00002304 00000001     H   12240 12229B 12242
 $$$266E       2 00002308 00000001     H   12250 12244
 $$$266F       2 00002310 00000001     H   12258 12246B
 $$$267B       4 00002360 00000001     I   12327 12343
 $$$267F       2 0000236C 00000001     H   12338 12313B 12327B 12340
 $$$268B       4 00002358 00000001     I   12313 12341
 $$$269E       2 00002370 00000001     H   12350 12342  12344
 $$$269F       2 00002378 00000001     H   12358 12346B
 $$$270F       2 000024D6 00000001     H   12578 12562B
 $$$42B        1 00000018 00000001     X    2809  2816U
 $$$43B        4 0000004C 00000001     I    2846  2892
 $$$43F        2 00000064 00000001     H    2889  2846B  2891
 $$$44F        2 00000064 00000001     H    2885  2861B
 $$$45E        2 00000068 00000001     H    2899  2893
 $$$45F        2 00000082 00000001     H    2943  2895B
 $$$52F        2 000001DA 00000001     H    3349  3303B
 $$$53F        2 000001DA 00000001     H    3345  3326B
 $$$54F        2 000001EC 00000001     H    3379  3366B
 $$$55F        2 000001F6 00000001     H    3405  3386B
 $$$59F        2 0000027E 00000001     H    3612  3585B  3597B
 $$$61F        2 000002BC 00000001     H    3697  3686B
 $$$62F        2 000002DA 00000001     H    3738  3711B  3723B
 $$$64F        2 00000312 00000001     H    3834  3778B
 $$$65B        4 00000302 00000001     I    3793  3811
 $$$65F        2 0000030A 00000001     H    3808  3793B  3810
 $$$66E        2 0000030E 00000001     H    3818  3812
 $$$66F        2 00000312 00000001     H    3830  3814B
 $$$67F        2 00000324 00000001     H    3861  3846B
 $$$68F        2 00000330 00000001     H    3887  3872B
 $$$69F        2 0000036E 00000001     H    3975  3948B  3960B
 $$$71B        1 000003C2 00000001     X    4043  4053U
 $$$72B        4 000003F6 00000001     I    4100  4166
 $$$72F        2 00000416 00000001     H    4163  4100B  4165
 $$$75E        2 0000041A 00000001     H    4173  4167
 $$$75F        2 00000422 00000001     H    4198  4169B
 $$$77         6 00000752 00000001     I    4213  4205X
 $$$78         6 00000752 00000001     I    4212  4213   4213
 $$$79F        2 00000472 00000001     H    4365  4236B  4250B  4264B
 $$$82F        2 00000454 00000001     H    4299  4281B
 $$$83F        2 00000462 00000001     H    4327  4312B
 $$$84F        2 00000472 00000001     H    4359  4340B
 $$$86F        2 00000484 00000001     H    4387  4377B
 $$$87S        2 00000488 00000001     H    4393  4612B
 $$$88B        4 0000048C 00000001     I    4407  4483
 $$$88F        2 000004CC 00000001     H    4479  4407B  4482
 $$$90B        4 0000049C 00000001     I    4444  4458
 $$$90F        2 000004B0 00000001     H    4455  4444B  4457
1VSUB     (VSUB00) (09:50) (22MAR04) Ordinary Symbol and Literal Cross Reference                                            Page  126
 $$$91E        2 000004B4 00000001     H    4465  4459
 $$$91F        2 000004CC 00000001     H    4475  4461B
 $$$92B        4 000004D6 00000001     I    4501  4594
 $$$92E        2 000004D0 00000001     H    4490  4484
 $$$92F        2 00000516 00000001     H    4591  4486B  4501B  4593
 $$$95B        4 000004E6 00000001     I    4538  4552
 $$$95F        2 000004FA 00000001     H    4549  4538B  4551
 $$$96E        2 000004FE 00000001     H    4559  4553
 $$$96F        2 00000516 00000001     H    4587  4555B
 $$$98E        2 0000051A 00000001     H    4601  4595
 $$$98F        2 00000522 00000001     H    4608  4597B
 $$$99         6 00000758 00000001     I    4768  4760X
 #VSUBA1M      1 00002644 00000001     R   12845  7684
 #VSUBA1T     21 00002645 00000001     C   12846 12845
 #VSUBA2M      1 0000265A 00000001     R   12847  9856
 #VSUBA2T     19 0000265B 00000001     C   12848 12847
 #VSUBA3M      1 0000266E 00000001     R   12849 10507
 #VSUBA3T      6 0000266F 00000001     C   12850 12849
 #VSUBA4M      1 00002675 00000001     R   12851 10664  12855
 #VSUBA4T      8 00002676 00000001     C   12852 12851
 #VSUBA5M      1 0000267E 00000001     R   12853 10671
 #VSUBA5T      3 0000267F 00000001     C   12854 12853
 #VSUBA6M      1 00002675 00000001     U   12855 10680
 #VSUBA7M      1 00002682 00000001     R   12856 10853
 #VSUBA7T     34 00002683 00000001     C   12857 12856
 #VSUBA8M      1 000026A5 00000001     R   12858 10911
 #VSUBA8T     17 000026A6 00000001     C   12859 12858
 #VSUBA9M      1 000026B7 00000001     R   12860 10942
 #VSUBA9T     29 000026B8 00000001     C   12861 12860
 #VSUBB0M      1 000026D5 00000001     R   12862 10991
 #VSUBB0T     17 000026D6 00000001     C   12863 12862
 #VSUBB1M      1 000026E7 00000001     R   12864 10998
 #VSUBB1T      9 000026E8 00000001     C   12865 12864
 #VSUBB2M      1 000026F1 00000001     R   12866 11005
 #VSUBB2T     36 000026F2 00000001     C   12867 12866
 #VSUBB3M      1 00002716 00000001     R   12868 11012
 #VSUBB3T     28 00002717 00000001     C   12869 12868
 #VSUBB4M      1 00002733 00000001     R   12870 11019
 #VSUBB4T     29 00002734 00000001     C   12871 12870
 #VSUBB5M      1 00002751 00000001     R   12872 11026  12992
 #VSUBB5T     20 00002752 00000001     C   12873 12872
 #VSUBB6M      1 00002766 00000001     R   12874 11033
 #VSUBB6T     15 00002767 00000001     C   12875 12874
 #VSUBB7M      1 00002776 00000001     R   12876 11040
 #VSUBB7T     26 00002777 00000001     C   12877 12876
 #VSUBB8M      1 00002791 00000001     R   12878 11047
 #VSUBB8T     24 00002792 00000001     C   12879 12878
 #VSUBB9M      1 000027AA 00000001     R   12880 11054
 #VSUBB9T     19 000027AB 00000001     C   12881 12880
 #VSUBC0M      1 000027BE 00000001     R   12882 11061
 #VSUBC0T     18 000027BF 00000001     C   12883 12882
 #VSUBC1M      1 000027D1 00000001     R   12884 11068
 #VSUBC1T     16 000027D2 00000001     C   12885 12884
 #VSUBC2M      1 000027E2 00000001     R   12886 11075
 #VSUBC2T     11 000027E3 00000001     C   12887 12886
 #VSUBC3M      1 000027EE 00000001     R   12888 11086
 #VSUBC3T     21 000027EF 00000001     C   12889 12888
 #VSUBC4M      1 00002804 00000001     R   12890 11093
 #VSUBC4T     21 00002805 00000001     C   12891 12890
1VSUB     (VSUB00) (09:50) (22MAR04) Ordinary Symbol and Literal Cross Reference                                            Page  127
 #VSUBC5M      1 0000281A 00000001     R   12892 11100
 #VSUBC5T     16 0000281B 00000001     C   12893 12892
 #VSUBC6M      1 0000282B 00000001     R   12894 11107
 #VSUBC6T     26 0000282C 00000001     C   12895 12894
 #VSUBC7M      1 00002846 00000001     R   12896 12121
 #VSUBC7T     43 00002847 00000001     C   12897 12896
 #VSUBC8M      1 00002872 00000001     R   12898 12158
 #VSUBC8T     16 00002873 00000001     C   12899 12898
 #VSUBC9M      1 00002883 00000001     R   12900 12165
 #VSUBC9T     15 00002884 00000001     C   12901 12900
 #VSUBD0M      1 00002893 00000001     R   12902 12172
 #VSUBD0T     23 00002894 00000001     C   12903 12902
 #VSUBD1M      1 000028AB 00000001     R   12904 12179
 #VSUBD1T     19 000028AC 00000001     C   12905 12904
 #VSUBD2M      1 000028BF 00000001     R   12906 12191
 #VSUBD2T     17 000028C0 00000001     C   12907 12906
 #VSUBD3M      1 000028D1 00000001     R   12908 12210
 #VSUBD3T      9 000028D2 00000001     C   12909 12908
 #VSUBD4M      1 000028DB 00000001     R   12910 12217
 #VSUBD4T     19 000028DC 00000001     C   12911 12910
 #VSUBD5M      1 000028EF 00000001     R   12912 12235
 #VSUBD5T      6 000028F0 00000001     C   12913 12912
 #VSUBD6M      1 000028F6 00000001     R   12914 12253
 #VSUBD6T      6 000028F7 00000001     C   12915 12914
 #VSUBD7M      1 000028FD 00000001     R   12916 12260
 #VSUBD7T     25 000028FE 00000001     C   12917 12916
 #VSUBD8M      1 00002917 00000001     R   12918 12267
 #VSUBD8T      5 00002918 00000001     C   12919 12918
 #VSUBD9M      1 0000291D 00000001     R   12920 12274
 #VSUBD9T      4 0000291E 00000001     C   12921 12920
 #VSUBE0M      1 00002922 00000001     R   12922 12280
 #VSUBE0T     14 00002923 00000001     C   12923 12922
 #VSUBE1M      1 00002931 00000001     R   12924 12287
 #VSUBE1T     36 00002932 00000001     C   12925 12924
 #VSUBE2M      1 00002956 00000001     R   12926 12294
 #VSUBE2T     29 00002957 00000001     C   12927 12926
 #VSUBE3M      1 00002974 00000001     R   12928 12333
 #VSUBE3T     35 00002975 00000001     C   12929 12928
 #VSUBE4M      1 00002998 00000001     R   12930 12353
 #VSUBE4T     31 00002999 00000001     C   12931 12930
 #VSUBE5M      1 000029B8 00000001     R   12932 12364
 #VSUBE5T     33 000029B9 00000001     C   12933 12932
 #VSUBE6M      1 000029DA 00000001     R   12934 12371
 #VSUBE6T     35 000029DB 00000001     C   12935 12934
 #VSUBE7M      1 000029FE 00000001     R   12936 12377
 #VSUBE7T     21 000029FF 00000001     C   12937 12936
 #VSUBE8M      1 00002A14 00000001     R   12938 12388
 #VSUBE8T      9 00002A15 00000001     C   12939 12938
 #VSUBE9M      1 00002A1E 00000001     R   12940 12395
 #VSUBE9T     21 00002A1F 00000001     C   12941 12940
 #VSUBF0M      1 00002A34 00000001     R   12942 12406
 #VSUBF0T     34 00002A35 00000001     C   12943 12942
 #VSUBF1M      1 00002A57 00000001     R   12944 12417
 #VSUBF1T     13 00002A58 00000001     C   12945 12944
 #VSUBF2M      1 00002A65 00000001     R   12946 12424
 #VSUBF2T     33 00002A66 00000001     C   12947 12946
 #VSUBF3M      1 00002A87 00000001     R   12948 12431
 #VSUBF3T     16 00002A88 00000001     C   12949 12948
 #VSUBF4M      1 00002A98 00000001     R   12950 12438
1VSUB     (VSUB00) (09:50) (22MAR04) Ordinary Symbol and Literal Cross Reference                                            Page  128
 #VSUBF4T     24 00002A99 00000001     C   12951 12950
 #VSUBF5M      1 00002AB1 00000001     R   12952 12449
 #VSUBF5T     25 00002AB2 00000001     C   12953 12952
 #VSUBF6M      1 00002ACB 00000001     R   12954 12469
 #VSUBF6T     32 00002ACC 00000001     C   12955 12954
 #VSUBF7M      1 00002AEC 00000001     R   12956 12484
 #VSUBF7T     28 00002AED 00000001     C   12957 12956
 #VSUBF8M      1 00002B09 00000001     R   12958 12490
 #VSUBF8T     47 00002B0A 00000001     C   12959 12958
 #VSUBF9M      1 00002B39 00000001     R   12960 12496
 #VSUBF9T     36 00002B3A 00000001     C   12961 12960
 #VSUBG0M      1 00002B5E 00000001     R   12962 12507
 #VSUBG0T     16 00002B5F 00000001     C   12963 12962
 #VSUBG1M      1 00002B6F 00000001     R   12964 12514
 #VSUBG1T     19 00002B70 00000001     C   12965 12964
 #VSUBG2M      1 00002B83 00000001     R   12966 12519
 #VSUBG2T     23 00002B84 00000001     C   12967 12966
 #VSUBG3M      1 00002B9B 00000001     R   12968 12532
 #VSUBG3T     16 00002B9C 00000001     C   12969 12968
 #VSUBG4M      1 00002BAC 00000001     R   12970 12539
 #VSUBG4T     30 00002BAD 00000001     C   12971 12970
 #VSUBG5M      1 00002BCB 00000001     R   12972 12546
 #VSUBG5T     41 00002BCC 00000001     C   12973 12972
 #VSUBG6M      1 00002BF5 00000001     R   12974 12573
 #VSUBG6T      3 00002BF6 00000001     C   12975 12974
 #VSUBG7M      1 00002BF9 00000001     R   12976 12580
 #VSUBG7T     23 00002BFA 00000001     C   12977 12976
 #VSUBG8M      1 00002C11 00000001     R   12978 12616
 #VSUBG8T     10 00002C12 00000001     C   12979 12978
 #VSUBG9M      1 00002C1C 00000001     R   12980 12639
 #VSUBG9T     10 00002C1D 00000001     C   12981 12980
 #VSUBH0M      1 00002C27 00000001     R   12982 12646
 #VSUBH0T     20 00002C28 00000001     C   12983 12982
 #VSUBH1M      1 00002C3C 00000001     R   12984 12652
 #VSUBH1T      5 00002C3D 00000001     C   12985 12984
 #VSUBH2M      1 00002C42 00000001     R   12986 12657
 #VSUBH2T      7 00002C43 00000001     C   12987 12986
 #VSUBH3M      1 00002C4A 00000001     R   12988 12662
 #VSUBH3T      6 00002C4B 00000001     C   12989 12988
 #VSUBH4M      1 00002C51 00000001     R   12990 12667
 #VSUBH4T      5 00002C52 00000001     C   12991 12990
 #VSUBH5M      1 00002751 00000001     U   12992 12671
 #VSUBH6M      1 00002C57 00000001     R   12993 12678
 #VSUBH6T     17 00002C58 00000001     C   12994 12993
 #VSUBH7M      1 00002C69 00000001     R   12995 12716
 #VSUBH7T     15 00002C6A 00000001     C   12996 12995
 #VSUBH8M      1 00002C79 00000001     R   12997 12721
 #VSUBH8T     16 00002C7A 00000001     C   12998 12997
 #VSUBH9M      1 00002C8A 00000001     R   12999 12726
 #VSUBH9T      9 00002C8B 00000001     C   13000 12999
 #VSUBI0M      1 00002C94 00000001     R   13001 12747
 #VSUBI0T      8 00002C95 00000001     C   13002 13001
 #VSUBI1M      1 00002C9D 00000001     R   13003 12751
 #VSUBI1T      4 00002C9E 00000001     C   13004 13003
 #VSUBI2M      1 00002CA2 00000001     R   13005 12772
 #VSUBI2T      8 00002CA3 00000001     C   13006 13005
 #VSUBI3M      1 00002CAB 00000001     R   13007 12777
 #VSUBI3T      7 00002CAC 00000001     C   13008 13007
 #VSUBI4M      1 00002CB3 00000001     R   13009 12782
1VSUB     (VSUB00) (09:50) (22MAR04) Ordinary Symbol and Literal Cross Reference                                            Page  129
 #VSUBI4T     46 00002CB4 00000001     C   13010 13009
 #VSUBI5M      1 00002CE2 00000001     R   13011 12789
 #VSUBI5T     34 00002CE3 00000001     C   13012 13011
 @RAR          0 00000000 FFFFFFF5     @    1132 11909  11917
 @R0           0 00000000 FFFFFFFE     @     707   983U
 @R1           0 00000000 FFFFFFFD     @     720   979U  4099   4212   4689   4691   4721   4746   4767   4840   4846
                                                  4848   4850   5620U  5675U  6732U  6772   6915U  7278M  8138U  8368
                                                 10006M 10006  10322M 10503  10505  10515  10862  10863  10869  11261
                                                 11263  11265  11273  11400  11415  11448  11450  11465  11502  11504
                                                 11505  11507  11509  11510  11743  12106U 12713U
 @R10          0 00000000 FFFFFFF4     @     837   943U
 @R11          0 00000000 FFFFFFF3     @     850   939U
 @R12          0 00000000 FFFFFFF2     @     863   935U
 @R13          0 00000000 FFFFFFF1     @     876   931U
 @R14          0 00000000 FFFFFFF0     @     889   927U  6348U 10424U
 @R15          0 00000000 FFFFFFEF     @     902   923U  3039U  3105U  3167U  3229U  5858   6462U  6545U  7277  11816
 @R2           0 00000000 FFFFFFFC     @     733   975U  8147U 10636U 11274
 @R3           0 00000000 FFFFFFFB     @     746   971U  5012U  7886U  7924U 10163U
 @R4           0 00000000 FFFFFFFA     @     759   967U  5360U  5411U  7532U  7680U  8554U  9139U
 @R5           0 00000000 FFFFFFF9     @     772   963U  8546U  9131U 11918U
 @R6           0 00000000 FFFFFFF8     @     785   959U
 @R7           0 00000000 FFFFFFF7     @     798   955U  4050U  5166U  6664U  7726U 10479U 11214U 11253U 11298U 11343U
                                                 11389U 11439U 11489U 11558U 11603U 11659U 11809U 11848U
 @R8           0 00000000 FFFFFFF6     @     811   951U
 @R9           0 00000000 FFFFFFF5     @     824   947U
 @SR           0 00000000 FFFFFFFC     @    1029  4388   5101  10871  10873  10875  10877  10879  10881  10883  10885
                                                 10888
 @TR           0 00000000 FFFFFFFB     @    1042  4695   4697
 ABWYL         2 00000A24 00000001     H    5890  5206
 ACCT          6 00000007 FFFFFFEC     C    2193 10515  10869  11119  11881
 ACCTCHNG      2 000024A4 00000001     H   12537  6409B
 ADDALIAS      2 0000141E 00000001     H    8871  7742
 APPENOK       2 00001B8C 00000001     H   10799 10779  10781
 ASKERASE      2 00001B1A 00000001     H   10678 10492
 ASKMBERS      2 00001B00 00000001     H   10662 10491
 ASMBLNAM      2 00001AAA 00000001     H   10537 10490
 ASMNONAM      2 0000256A 00000001     H   12676 10572B
 ATTACHOS      4 00000240 00000001     I    3533  3501B
 ATTCOM        4 0000014E 00000001     I    3239  3047B  3114B  3176B
 ATTCOMP       2 0000019C 00000001     H    3270  3258B
 ATTEXCLU      2 000023BE 00000001     H   12400  3257B  6407B
 ATTNEW        2 000000C2 00000001     H    2996  2824   3476B
 ATTOLD        2 00000108 00000001     H    3117  2825
 ATTOLDE       2 0000012E 00000001     H    3179  2826
 ATTOLDX       2 000000E0 00000001     H    3050  2827
 ATTOUTOS      2 000002EC 00000001     H    3760  2829
 ATTWAIT       2 0000016E 00000001     H    3253  3243B
 BADACCT       4 000024E2 00000001     I   12588 10858B 10868B 10872B 10876B 10880B 10884B 10886B 10891B 10893B 11497B
                                                 11508B
 BADDIR        4 000017BE 00000001     I    9856  7859B  7861B  7863B  9819B 10133B 10135B 10137B
 BADEDIT       4 000025B2 00000001     I   12751 12740B
 BADFCOM       2 000025CA 00000001     H   12775 12749B 12765B
 BADFORM       4 00002596 00000001     I   12726  6859B  6860B  7122B
 BADGRP        4 000024EE 00000001     I   12594 11414B
 BADGU         2 00002502 00000001     H   12609 12590B 12596B
 BADIDS        2 00002456 00000001     H   12494 12478B
 BADUSR        4 000024FA 00000001     I   12600 11464B
 BLANKS        1 00001A0A 00000001     C   10444  9077   9116   9143   9750
 BR            7 00000007 00000001 A   #    1099 11205M 11217U 11242  11243  11243  11243  11244M 11256U 11277M 11287
1VSUB     (VSUB00) (09:50) (22MAR04) Ordinary Symbol and Literal Cross Reference                                            Page  130
                                                 11288  11288  11288  11289M 11301U 11318M 11332  11333  11333  11333
                                                 11334M 11346U 11368M 11380M 11392U 11430M 11442U 11478  11479  11479
                                                 11479  11480M 11492U 11513M 11543  11544  11544  11544  11549M 11561U
                                                 11580M 11592  11593  11593  11593  11594M 11606U 11636M 11648  11649
                                                 11649  11649  11650M 11662U 11781M 11798  11799  11799  11799  11800M
                                                 11812U 11825M 11837  11838  11838  11838  11839M 11851U 11864M 11882
                                                 11882  11882  11909M 11911M 11911  11919B 11967  11974B
 BRR           6 00000006 00000001 A   #    1086  2799U 11203  11204  11204  11204  11219M 11226M 11242  11243  11243
                                                 11243  11258M 11277M 11287  11288  11288  11288  11303M 11318M 11332
                                                 11333  11333  11333  11348M 11368M 11378  11379  11379  11379  11394M
                                                 11405M 11418M 11428  11429  11429  11429  11444M 11455M 11468M 11478
                                                 11479  11479  11479  11494M 11513M 11543  11544  11544  11544  11563M
                                                 11580M 11592  11593  11593  11593  11636M 11648  11649  11649  11649
                                                 11664M 11781M 11798  11799  11799  11799  11814M 11825M 11837  11838
                                                 11838  11838  11853M 11864M 11880  11880  11880  11882  11882  11882
                                                 11885  11885  11885  11935M 11936B 11965M 11972M
 BSPACE        2 00000ED4 00000001     H    7325  6681
 BTX           1 00000000 0000000A     T   11117 11117
 CHECKMEM      2 0000110C 00000001     H    7942  7737
 CHECKOS       2 00000290 00000001     H    3634  2828
 CHKNXG        4 00001C30 00000001     I   10888 10874B 10878B 10882B
 CHKSPIRE      2 00001B94 00000001     H   10812 10496
 CHNGALAS      2 000013B6 00000001     H    8756  8763B
 CLRWDS        2 00000A1C 00000001     H    5885  5205
 CLW        1560 00000000 FFFFFFED     J    1853  2781U
 CLWACCT       6 000003B0 FFFFFFED     C    1839  1840   1841  10843
 CLWFGPW      64 00000208 FFFFFFED         1599  2845   2939M  5247   5487M
 CLWFL         1 00000207 FFFFFFED     R    1570  1574   1579   1584
 CLWFLG        1 00000208 FFFFFFED     R    1590  1594   1599   1604   1609   1614   1619   1624
 CLWFQMSG      4 00000208 FFFFFFED         1619 12004M 12021  12050M
 CLWGPWP       4 00000254 FFFFFFED     A    1783  2835   2933M
 CLWGROUP      2 000003B0 FFFFFFED     C    1841  2960   4449   5071  11402
 CLWKWCB       4 000002C4 FFFFFFED     F    1815  1826   4082   4646   4810  10748  10767
 CLWKWCBL      1 00000020 FFFFFFED A   U    1826  4653
 CLWMFL        1 0000020A FFFFFFED     R    1675  1679   1684   1689   1694   1699   1704   1709   1714
 CLWMONF       1 0000020B FFFFFFED     R    1720  1724   1729   1734   1739
 CLWNTRAP      1 00000008 FFFFFFED A   N    1797  1798
 CLWOBUF       2 00000118 FFFFFFED     H    1564  1566   5555M  5555
 CLWPFL        1 00000209 FFFFFFED     R    1630  1634   1639   1644   1649   1654   1659   1664   1669
 CLWQRET       4 00000358 FFFFFFED     F    1834 11965  11972
 CLWR         10 0000000A 00000001 A   #    1138  2781U
 CLWSCP        4 00000000 FFFFFFED     A    1553  5337   6693   6876   7509  12067  12684
 CLWSFL        1 0000020C FFFFFFED     R    1745  1749   1754
 CLWTEMP       8 000002E8 FFFFFFED     D    1828  8009M  8010M  8030   8440M  8441M  8461   8717M  8721   8889M  8904
                                                  8906   8913   8929  10964
 CLWUSER       3 000003B3 FFFFFFED     C    1840  2959   4543   5086  11452
 CLWWLMOD      4 00000228 FFFFFFED     F    1769  5848   5856
 CONEIGHT      2 00000BBA 00000001     I    6352  6320B
 CONTCOM       2 00000B3E 00000001     H    6194  6008B
 CON8WAIT      2 00000BEE 00000001     H    6417  6408B
 CREC          4 00000A44 00000001     I    5936  5175
 DALINAM       8 00000008 FFFFFFEA     C    2740  2743   8727   8762M  8928M  9057   9075   9365   9696   9801   9818
                                                  9836
 DBCT          3 0000000D FFFFFFEA     R    2756  8137   8553   8560M  8592M  9138
 DELLOTS       4 00000A54 00000001     I    5946  5177
 DELMEM        2 000014D6 00000001     H    9036  7743
 DELREC        4 00000A4E 00000001     I    5942  5176
 DENTRY        1 00000000 FFFFFFEA     J    2738  2759   7934U  8905   9077M  9116M  9143M
 DENTSIZ       1 00000010 FFFFFFEA A   U    2759  2768   9331   9544   9692   9717   9744   9787  10005
1VSUB     (VSUB00) (09:50) (22MAR04) Ordinary Symbol and Literal Cross Reference                                            Page  131
 DEQ           2 00000F28 00000001     H    7466  6683   7698B
 DETACH        2 00000380 00000001     H    3992  2830
 DFBN          3 0000000A FFFFFFEA     R    2755  8146   8545   8559M  8591M  9130
 DFLGS         2 00000008 FFFFFFEA     U    2754  8181
 DFLG1         1 00000008 FFFFFFEA     X    2744  2754   2754   2758   2758   8558M  8590M
 DIRB          1 00000000 FFFFFFE9     J    2764  2769   7851U  7899U 10125U 10182U
 DIRBBNUM      4 00000004 FFFFFFE9     A    2766  7901  10184
 DIRBLEN       1 00000800 FFFFFFE9 A   U    2769  7817   7824   7854   7869   7902   7916   9976   9983   9992  10009
                                                 10091  10098  10128  10143  10185  10199  10215  10454
 DIRBLINK      4 00000000 FFFFFFE9     A    2765  7866   7914  10140  10197
 DIRREAD       2 000018AE 00000001     I   10127 10147B
 DIRREADX      2 00001098 00000001     I    7853  7873B
 DNAME         8 00000000 FFFFFFEA     C    2739  8589M  8726M  8930M  9076   9350   9563   9720   9748   9750   9752M
                                                  9752   9790
 DOCONTRL      2 00000B3A 00000001     H    6190  5938B  5942B  5946B  5950B  5954B  5958B  5962B  5968B  5974B  5978B
                                                  5982B  6149B  6153B  6157B  6161B  6165B  6169B  6173B  6177B  6181B
                                                  6185B
 DOERASE       2 00000B98 00000001     H    6293  5195
 DOMEM         2 00000902 00000001     H    5605  5597B
 DONTHAVE      2 000024B0 00000001     H   12544  5649B  6636B
 DOPERM        2 00000C5C 00000001     H    6538  5197
 DOPUBPER      4 00000A76 00000001     I    5968  5183   6558B
 DORENAME      2 00000BA8 00000001     H    6322  5196
 DOSENCLP      4 00000B0A 00000001     I    6157  5190
 DOSENSPI      4 00000B28 00000001     I    6177  5192
 DOSETCLP      4 00000B04 00000001     I    6153  5189
 DOSETSPI      4 00000B22 00000001     I    6173  5191
 DSPACE        2 0000214C 00000001     H   11835 11175  11178
 ENQ           2 00000F12 00000001     H    7433  6682
 EOFMEM        2 000012A4 00000001     H    8509  7740
 ERASEOK       2 00001B84 00000001     H   10788 10775  10777  10783
 ERASEOS       2 00000C0C 00000001     H    6435  6306B
 ERASETBL      1 00001B5A 00000001     R   10775 10760
 ERAS1         4 00001B22 00000001     I   10684 10673B
 ERROS         2 00002418 00000001     H   12460  3566B  3699B  3929B  6483B  6532B  7156B  7316B  7423B  8049B  8310B
                                                  8480B  8689B  8861B  9026B  9272B 10390B
 EXISTS        2 000023D0 00000001     H   12411  3263B  6425B
 FILEXIT       2 0000082C 00000001     H    5234  5213   5528B  5556B  5734B  5736B
 FILSETUP      2 00000044 00000001     H    2834  2822
 FILX0         2 0000082E 00000001     H    5239  5230B
 FINDBLNK      2 000016FE 00000001     H    9734  8583B  8926B
 FINDNTRY      2 000016CA 00000001     H    9707  8720B  8724B  8892B  9055B
 FNINIT        2 000000A6 00000001     H    2969  2823
 FORACT        2 00001E88 00000001     H   11240 11134
 FORAC1        4 00001EAE 00000001     I   11265 11262B
 FORAC2        4 00001EBC 00000001     I   11269 11264B
 FORCE         4 00000A72 00000001     I    5965  5182
 FORGP1        4 00001BDE 00000001     I   10867 10861B
 FORGROUP      4 00001BB4 00000001     I   10857 10494
 FORPUB        4 00001EE2 00000001     I   11287 11135
 FOUND#        2 000005B4 00000001     H    4732  4696B
 FREECLW       1 00000000 00000002     T    4023  4023   6642  10447
 FREUPDIR      2 00001936 00000001     H   10211  7879B 10008B 10153B
 FSCLPRTN      2 0000220E 00000001     H   11971  5250B  5440B  5503B
 FSDBLDEF      2 00002330 00000001     H   12278 12269B
 FSDBLGRP      2 0000231C 00000001     H   12265  4426B 11270B 11397B 11499B
 FSDBLUSR      2 00002328 00000001     H   12272  4520B 11272B 11447B 11501B
 FSERRTN       2 00002204 00000001     H   11964  7686B  9862B 10855B 10986B 10993B 11000B 11007B 11014B 11021B 11028B
                                                 11035B 11042B 11049B 11056B 11063B 11070B 11077B 11088B 11095B 11102B
1VSUB     (VSUB00) (09:50) (22MAR04) Ordinary Symbol and Literal Cross Reference                                            Page  132
                                                 11109B 12123B 12160B 12167B 12174B 12181B 12193B 12212B 12262B 12282B
                                                 12289B 12296B 12359B 12366B 12373B 12379B 12390B 12397B 12408B 12419B
                                                 12426B 12433B 12440B 12451B 12471B 12486B 12492B 12498B 12509B 12516B
                                                 12525B 12534B 12541B 12548B 12582B 12634B 12641B 12648B 12673B 12680B
                                                 12718B 12723B 12779B 12784B 12791B
 FSHRTORV      2 000022EC 00000001     H   12215  4356B
 FSILNAM1      2 000022D0 00000001     H   12189  4633B
 FSINVMEM      2 00002348 00000001     H   12292  4750B  4752B  4849B  4877B
 FSMISSNG      2 000022A6 00000001     H   12163 11395B 11445B 11495B 12136B
 FSNDFLIB      2 0000233C 00000001     H   12285  4690B  4692B
 FSNOCORE      2 00002284 00000001     H   12119  2926B
 FSSCNRTN      2 00002290 00000001     H   12126  4088B
 FSUB#COM      2 000021B2 00000001     H   11903  2799U 11875  11902
 FSUB#COM      1 00000000 0000000D     T   12828 12828
 FSUB#SEG      4 000021C4 00000001     F   11921 11911
 FSUB#1        2 00000016 00000001     H    2803 11922
 FSUB#1L       2 00000020 00000001     H    2821  2818
 FSUB#2        2 000003C0 00000001     H    4037 11923
 FSUB#2L       2 000003C8 00000001     H    4058  4055
 FSUB#3        2 0000075E 00000001     H    5153 11924
 FSUB#3L       2 00000768 00000001     H    5174  5171
 FSUB#4        2 00000CCC 00000001     H    6651 11925
 FSUB#4L       2 00000CD4 00000001     H    6672  6669
 FSUB#5        2 00001010 00000001     H    7713 11926
 FSUB#5L       2 00001018 00000001     H    7734  7731
 FSUB#6        2 00001A48 00000001     H   10466 11927
 FSUB#6L       2 00001A50 00000001     H   10487 10484
 FSUBR         5 00000005 00000001 A   #    1073  2818M  2818   2819B  4055M  4055   4056B  5171M  5171   5172B  6669M
                                                  6669   6670B  7731M  7731   7732B 10484M 10484  10485B 11917M
 FSUBX         2 00002216 00000001     H   11984  3446B  3693B  4829B  5965B  6281B  6284B  6288B  6422B  6813B  6869B
                                                  7048B  7051B  7052B  7151B  7249B  7460B  7488B 10437B 10442B
 FSUB0         2 00002214 00000001     H   11977  2986B  3419B  3430B  3624B  3750B  3987B  4019B  4383B  4604B  4817B
                                                  4890B  5124B  5648B  5732B  5804B  5931B  6142B  6207B  6482B  6531B
                                                  6634B  6853B  6854B  7132B  7315B  7346B  7422B  7674B  7880B  7918B
                                                  7963B  8046B  8182B  8307B  8378B  8479B  8492B  8579B  8595B  8688B
                                                  8768B  8854B  8907B  8933B  9021B  9080B  9181B  9270B  9381B  9485B
                                                  9584B  9648B  9701B 10532B 10657B 10806B 10825B 10846B 10900B 10921B
 FSUNREC       2 000022DC 00000001     H   12196  4128B  4148B  4189B 11260B 11266B 11311B 11313B 11577B
 GETCAT        2 00000F34 00000001     H    7494  6684
 GETCLW        1 00000000 00000003     T    4025  4025  10448
 GETDELTA      2 00000A2C 00000001     H    5895  5221
 GETDIR        2 00001048 00000001     H    7752  7735
 GETDIRX       2 000017D0 00000001     H    9871  7959B  8119B  8341B  8716B  8888B  9053B  9318B  9531B  9689B
 GETMEM        2 00001168 00000001     H    8060  7738
 GETMEMBR      2 00000536 00000001     H    4638  4059
 GETMEMS       2 00001954 00000001     H   10243  9430B  9620B
 GETNAME       2 000003E0 00000001     H    4070  4060
 GG            2 00000013 FFFFFFEC     C    2197 10505  10862  10863M 10864M 10867  10870M 10892  11265  11268  11507
                                                 11510  11886
 GOSUB         2 000021DC 00000001     H   11930  3278B  3295B  3339B  3374B  3427B  3621B  3747B  3984B  4727B  4781B
                                                  5258B  5277B  5308B  5415B  7501B  7561B  7569B  7573B  7583B  7615B
                                                  7645B  7857B  7906B  7910B  8100B  8220B  8366B  8567B  8571B  8759B
                                                  9100B  9165B  9169B  9860B 10012B 10131B 10189B 10193B 10668B 10684B
                                                 10708B 10815B 11083B 11222B 12186B 12385B 12403B 12414B 12446B 12463B
                                                 12504B 12523B 12529B 12570B
 GOTDIR        2 000018EA 00000001     H   10150 10142B
 GOTDIRX       2 000010D4 00000001     H    7876  7868B
 GOTNAME       2 000003EC 00000001     I    4087  4062
 GOTNKWR       2 00001E6A 00000001     H   11201 11131
1VSUB     (VSUB00) (09:50) (22MAR04) Ordinary Symbol and Literal Cross Reference                                            Page  133
 GPW       12288 00000000 FFFFFFEC     X    2726  2790U  4024   6643
 GPWAACCT      6 0000000D FFFFFFEC     C    2195  5603   5762
 GPWACCT       6 00000007 FFFFFFEC     C    2194  5584   5832   6584  10862M 10863M 10864M 10869M 10890  10892  12567
 GPWAFFL       1 0000012C FFFFFFEC     X    2699  5040   5299   5316M
 GPWAFID       1 0000012D FFFFFFEC     X    2700  5305   6235   6370   6968   7188   7387   8004   8270   8434   8643
                                                  8810   8975   9226  10349
 GPWAFILE    158 0000012C FFFFFFEC     X    2698  2716
 GPWAFN       44 00000164 FFFFFFEC     C    2715  5029   6502  10505M 10515M 10526
 GPWAFNL       1 0000012E FFFFFFEC     X    2701  5030
 GPWALIAS     16 000000B4 FFFFFFEC         2327  4939   8922M  9074M  9784M  9812   9842M
 GPWBLK        2 0000001A FFFFFFEC     R    2205  2206
 GPWBLKSZ      2 000000BC FFFFFFEC     R    2371  3280M  6920
 GPWBN         4 000000C0 FFFFFFEC     A    2372  2976M  2976   5936   7032   7045M  7233   7246M  7343   7345M  7593M
                                                  7593   7839M  7839   7870M  7901M  8170M  8369M  8536   8586  10113M
                                                 10113  10144M 10184M
 GPWBUF     8192 00001000 FFFFFFEC     X    2725  4026
 GPWBUFA       4 00000038 FFFFFFEC     A    2222  2224   2963M  5702   5768   5971   6734   6919   7162   7631
 GPWDATAD      4 0000003C FFFFFFEC     A    2223  6778M  6942M  7119   7127M
 GPWDIRAE      4 00000048 FFFFFFEC     A    2227  9324   9437   9537   9627   9691   9716   9743   9786  10219M 10393M
 GPWDIRAL      4 00000044 FFFFFFEC     A    2226  2853   5448   7755   7787M  7832M  9932   9964M  9990M 10029  10061M
                                                 10106M 10249  10281M 10321M
 GPWDIRAP      4 00000040 FFFFFFEC     A    2225  2866   5467   7773   7830M  7891   9319   9431   9532   9621   9690
                                                  9715   9742   9785   9950   9989M  9999  10047  10104M 10174  10267
                                                 10319M 10391  10395
 GPWDIRLS      4 00000050 FFFFFFEC     A    2229  7831M 10105M 10320M 10394M
 GPWFAACC      2 00000003 FFFFFFEC         2074  5594   5755
 GPWFACC       4 00000003 FFFFFFEC         2065  5825   6577  10899M 12561
 GPWFALTF     64 00000000 FFFFFFEC         1885  5023   6228   6363   6957   7177   7376   7993   8259   8632   8799
                                                  8964   9215  10338
 GPWFANW      32 00000001 FFFFFFEC         1920  3461
 GPWFAPP      64 00000003 FFFFFFEC         2002 10803M
 GPWFATT     128 0000008C FFFFFFEC         2254  3274M  3572M  3935M  4018M  5269   5285M
 GPWFCB      158 0000008C FFFFFFEC     X    2693  2698   2716
 GPWFERS     128 00000003 FFFFFFEC         1984 10794M
 GPWFFFN       2 0000008C FFFFFFEC         2284  4112   4112   4294   4294   4323M  4339   4376   5062  10584  11617
                                                 11762
 GPWFFMT      16 0000008C FFFFFFEC         2269  3355M  3397M  3618M  3744M  3981M  5995
 GPWFFN        4 00000054 FFFFFFEC     C    2232  2984M  4382M  5071   5086   5101  10648  11623M 11768M
 GPWFFREE    128 00000000 FFFFFFEC         1880  2958M  5437
 GPWFGRP       2 000000C8 FFFFFFEC     C    2375  5716  10843
 GPWFHYBR      8 00000002 FFFFFFEC         1970  3292M  3336M
 GPWFID        1 0000008D FFFFFFEC     X    2288  3275M  3573M  3936M  4001   5305M  6218   6353   6597   6947   7167
                                                  7366   7983   8249   8417   8622   8789   8954   9205  10328
 GPWFILE       4 0000008C FFFFFFEC     F    2243  2693   2693
 GPWFILN      44 000000C4 FFFFFFEC     C    2374  2375   2376   2377   2378   3029   3094   3156   3219   5013   6341
                                                  6451   6510  10573M 10574  10574M 10574  10648M
 GPWFN        44 0000005F FFFFFFEC     C    2237  2985   2985M  2985   4212M  4235   4249   4263   4280   4311   4382
                                                  4406   4443   4450   4450M  4450   4467   4469   4470   4470M  4470
                                                  4500   4537   4544   4544M  4544   4572   4581   4582   4582M  4582
                                                  4624   5101
 GPWFNEW      32 0000008C FFFFFFEC         2264  3475M
 GPWFNIXR     16 00000002 FFFFFFEC         1965  3287M  3313M
 GPWFNL        1 0000008E FFFFFFEC     X    2289  3038   3104   3166   3228   4200M  4603M  5011   6347   6461  10571
                                                 10635
 GPWFNOE      64 00000001 FFFFFFEC         1915  3443   7580M
 GPWFNSF      16 00000001 FFFFFFEC         1925  3365
 GPWFNSKP      8 00000001 FFFFFFEC         1930  7000   8176M
 GPWFPCAT      8 00000000 FFFFFFEC         1900  5330   5423M  7508M  7697M
 GPWFPUB       8 00000003 FFFFFFEC         2056  5571   6555  11309M
1VSUB     (VSUB00) (09:50) (22MAR04) Ordinary Symbol and Literal Cross Reference                                            Page  134
 GPWFQIET      4 00000001 FFFFFFEC         1935  5540  11191M
 GPWFSHR      64 0000008C FFFFFFEC         2259  3074M  3141M  3204M  3416   3494M  3511M
 GPWFTRN     128 00000001 FFFFFFEC         1910  6868M
 GPWFVOSF      8 0000008C FFFFFFEC         2274  3006   3060   3127   3189   4112   4112   4113M  4294   4294   4295M
                                                  6022   6204   6303   6332   6930   6982   7204   7335   7952   8070
                                                  8334   8526   8709   8881   9046   9296   9509   9674  10549  11633M
                                                 11778M 12228
 GPWFWDS       4 0000001C FFFFFFEC     A    2207  2213
 GPWGFL        1 00000000 FFFFFFEC     R    1876  1880   1885   1890   1895   1900
 GPWGPFHX      2 00000006 FFFFFFEC         2184  6745
 GPWGPFL       1 00000006 FFFFFFEC     R    2150  2154   2159   2164   2169   2174   2179   2184   2189
 GPWGPFLR     32 00000006 FFFFFFEC         2164 12762
 GPWGPFV      64 00000006 FFFFFFEC         2159 12737
 GPWGRP        2 00000058 FFFFFFEC     C    2233  4423   4449M  4467   4469M  4470   4470   5071   5137  10608  10621M
                                                 11269  11274M 11310  11314M 11396  11402M 11415M 11498  11504M 11509M
 GPWHCNT       4 000001CC FFFFFFEC     F    2717  3341M
 GPWHXBUF   2048 00000800 FFFFFFEC     X    2724  6752
 GPWKWFL       1 00000003 FFFFFFEC     R    1976  1984   1993   2002   2011   2020   2029   2038   2047   2056   2065
                                                  2074   2083   2092
 GPWLFLAG      1 000000B4 FFFFFFEC     R    2308  2312   2317   2322   2327   2332   2337   2342   2347
 GPWLGOTD     64 000000B4 FFFFFFEC         2317  8097M  8747M  9884   9896M
 GPWLLDMD      4 000000B4 FFFFFFEC         2337  6117   6129M 11531M
 GPWLLIST      2 000000B4 FFFFFFEC         2342  4739M  4827M  4861M  4874
 GPWLMBCT      4 000000A8 FFFFFFEC     A    2300  8139M  8538M  8560   8588M  8592
 GPWLMFBN      4 000000A4 FFFFFFEC     A    2299  4883M  8169M  8370M  8535   8559   8585   8591
 GPWLMFLS      2 000000A0 FFFFFFEC     U    2298  8181M
 GPWLMF1       1 000000A0 FFFFFFEC     X    2296  2298   2298   2302   2302   8558   8590
 GPWLMLBN      4 000000AC FFFFFFEC     A    2303  8180M
 GPWLMN        8 00000090 FFFFFFEC     C    2294  2301   2301   4755M  4767M  4946   8010   8238   8439   8441   8589
                                                  8667   8717   8718M  8721M  8834   8889   8890M  8905   8906M  8913M
                                                  8928   8929M  8999   9075M  9250   9696   9720   9790   9818   9835
                                                  9836M
 GPWLMNL       1 0000008F FFFFFFEC     R    2293  4753M  4915
 GPWLMN2       8 00000098 FFFFFFEC     C    2295  4963   8718   8726   8762   8841   8890   8904M  8930   9007   9076M
                                                  9835M
 GPWLNEWD     32 000000B4 FFFFFFEC         2322  9917   9929M
 GPWLNXTM      8 000000B4 FFFFFFEC         2332  8085   8211   9393M
 GPWLREC       2 00000034 FFFFFFEC     R    2218  6735   6839
 GPWLREP     128 000000B4 FFFFFFEC         2312  8351   8377M  8407   8491M  8516M
 GPWLWDS       4 00000020 FFFFFFEC     A    2208  2214
 GPWNXTAD      4 000000B0 FFFFFFEC     A    2304  8754M  8754   9091M  9091   9304   9380M  9416   9484M  9517   9583M
                                                  9606   9647M  9685   9700M
 GPWOPT        2 00000018 FFFFFFEC     R    2204  6800   6834
 GPWOSFED      4 0000008C FFFFFFEC         2279  3608M  3734M  3971M  6065   6766   7113   7271
 GPWOSFOK      2 00000001 FFFFFFEC         1940 10561  11569M
 GPWPERM       1 00000005 FFFFFFEC     X    2141  2142   2143   2144   2145   2146   5619   5674   6544
 GPWPFFL       1 0000008C FFFFFFEC     R    2250  2254   2259   2264   2269   2274   2279   2284   2983M  2983
 GPWPRFL       1 00000001 FFFFFFEC     R    1906  1910   1915   1920   1925   1930   1935   1940
 GPWPRFL2      1 00000002 FFFFFFEC     R    1946  1950   1955   1960   1965   1970
 GPWR         12 0000000C 00000001 A   #    1151  2790U  2835M  2932M  2945   2962   5493
 GPWRBL        2 00000036 FFFFFFEC     R    2219  2220
 GPWSFER     128 00000004 FFFFFFEC         2102  8578M  9176M
 GPWSFFL       1 00000004 FFFFFFEC     R    2098  2102   2107   2112   2117   2122   2127   2132   2137
 GPWSGRP       2 00000016 FFFFFFEC     C    2200  2960M 10621
 GPWSTART      8 00000000 FFFFFFEC     D    1873  2719   2719   2722   2726   2726   4026
 GPWSUSER      3 00000013 FFFFFFEC     C    2199  2201   2201   2959M 10603
 GPWTST        1 000001D4 FFFFFFEC     U    2721  2723
 GPWUIFE       1 000000B8 FFFFFFEC         2363  6077M
 GPWUIFLR      4 000000B8 FFFFFFEC         2360  3845   6051M
1VSUB     (VSUB00) (09:50) (22MAR04) Ordinary Symbol and Literal Cross Reference                                            Page  135
 GPWUIFMT      1 000000B8 FFFFFFEC     R    2354  2355   2356   2357   2358   2359   2360   2361   2362   2363   2364
                                                  2365
 GPWUILDF     64 000000B8 FFFFFFEC         2356  3871   6135M
 GPWUILIB    128 000000B8 FFFFFFEC         2355  3792   4905   6103M  7801  10075  10295
 GPWUILRC      2 000000BA FFFFFFEC     R    2367  3835   6029M
 GPWUINFO      4 000000B8 FFFFFFEC     F    2353  3406M  3623M  3749M  3986M  6007   6028   6140   6141M
 GPWUSER       3 0000005B FFFFFFEC     C    2235  4517   4543M  4572   4581M  4582   4582   5086   5138  10590  10603M
                                                 11271  11273M 11312  11315M 11446  11452M 11465M 11500  11505M 11510M
 GPWWRK      468 00000000 FFFFFFEC     U    2719  2946
 GROUP         4 00001F58 00000001     I   11378 11137  11146  11152  11362B
 GROUP2        4 00001F92 00000001     I   11413 11399B 11401B
 GRP$USR       4 0000203E 00000001     I   11507 11503B
 GRPTST        4 00001BF0 00000001     I   10871 10866B 10889B
 GTALOOP       2 000016B0 00000001     H    9695  9698B
 GTARET        4 000016C2 00000001     I    9700  9697B
 GTBLOOP       2 00001718 00000001     H    9747  9754B
 GTBRET        4 0000173C 00000001     I    9757  9751B  9753B
 GTELOOP       2 000016E0 00000001     H    9719  9722B
 GTERET        4 000016F2 00000001     I    9725  9721B
 HIBAL         1 00000000 FFFFFFFF     J     692   708    721    734    747    760    773    786    799    812    825
                                                   838    851    864    877    890    903
 HMERROS       4 00002432 00000001     I   12477 12476B
 HOTERROS      2 0000242A 00000001     H   12474  3557B  3665B  3920B  6473B  6522B  8037B  8298B  8468B  8679B  8845B
                                                  9012B  9261B 10381B
 IDLEATTN      2 00002576 00000001     H   12683  6720B  6903B 12094B
 ILLFN         4 00000526 00000001     I    4624  4468B  4575B
 ILLGRP        2 000024BC 00000001     H   12551  5635B  5650B  5651B  5733B  5805B  6620B  6637B
 ILLNAME       2 000022CA 00000001     H   12183  3241B  5721B  6287B  6406B
 ILLSPACE      2 000022B2 00000001     H   12170 11815B 11854B
 ILLVOL        2 000022BE 00000001     H   12177 11665B 11667B
 IOERR         2 00002474 00000001     H   12512  6280B  6421B  6633B  7047B  7248B
 ISATT         2 00002462 00000001     H   12501  3244B  3245B  3246B  6423B  6621B  6635B
 KWFNOPT       1 00001DDA 00000001     R   11144 11132
 LIBFULL       2 000025E2 00000001     H   12787  8584B  8860B  8927B  9025B
 LOADFILE      2 0000205C 00000001     H   11527 11165
 MEMBER        2 000008E8 00000001     H    5561  5207
 MEMCOM        2 000005CC 00000001     I    4749  4729B
 MILWYL        4 00000824 00000001     I    5229  5212
 MINUSRET      2 000019F8 00000001     H   10434  7962B  8048B  8102B  8122B  8309B  8359B  8477B  8725B  8858B  8924B
                                                  9023B  9056B  9271B  9394B  9457B  9557B  9641B  9677B  9699B
 MSGEXIT       2 000008C8 00000001     H    5508  5214
 NEWENTRY      2 00001304 00000001     H    8581  8534B
 NICETRY       4 00001734 00000001     I    9754  9745B  9749B
 NOAACC        4 0000253E 00000001     I   12657  7251B
 NOACCESS      4 0000255E 00000001     I   12671  3259B  6283B  6424B 12654B 12659B 12664B
 NOCLPACC      2 00002406 00000001     H   12443  3429B
 NODIRCOR      4 00002480 00000001     I   12519  7829B  7872B  9988B 10103B 10146B 10318B 10409B
 NODSPACE      2 000023EE 00000001     H   12429  3261B  3265B  5652B  6286B  6426B  6638B  7254B
 NOFILSYS      2 00002354 00000001     H   12299  3240B  5634B  5720B  6266B  6278B  6279B  6405B  6619B  7036B  7084B
                                                  7237B  7306B
 NOMEMBR       2 00000614 00000001     I    4820  4688B  4718B  4720B  4722B
 NONOWN        2 00002388 00000001     H   12369  5638B  6267B  6623B
 NOOSFILS      2 0000243E 00000001     H   12482 12477B
 NOOSFIL2      2 0000244A 00000001     H   12488  3635B  6436B  6487B
 NORACC        4 00002556 00000001     I   12667  7050B
 NOREP         4 000025D6 00000001     I   12782  6858B
 NOSHACC       4 00002532 00000001     I   12652  5735B  5806B
 NOTHERE       2 000023A0 00000001     H   12382  3464B
 NOTLIB        4 00002492 00000001     I   12529  7804B 10078B 10298B
1VSUB     (VSUB00) (09:50) (22MAR04) Ordinary Symbol and Literal Cross Reference                                            Page  136
 NOUSPACE      2 000023FA 00000001     H   12436  3260B  6285B  7253B
 NOVOSF        2 0000241E 00000001     H   12467  3009B 10564B
 NOWACC        4 0000254A 00000001     I   12662  7252B
 NOWYL         2 00002526 00000001     H   12644  5922B  6804B  6843B
 NXTALIAS      2 0000168A 00000001     H    9664  7746
 NXTENTRY      2 00001622 00000001     H    9499  7745
 NXTMEM        2 0000159E 00000001     H    9286  7744
 OFLOW         2 000023B2 00000001     H   12393  3264B
 OSATOLDE      2 00000234 00000001     H    3504  3192B
 OSATTSHR      2 00000228 00000001     H    3488  3063B  3130B
 OSCREATE      1 00001E3C 00000001     R   11172 11141
 OSDIRLEN      4 000019F0 00000001     X   10427 10309
 OSDRRQST      4 000019F4 00000001     X   10428 10322
 OSERRM12      2 00001CC0 00000001     H   10940 10918B
 OSERRM4       2 00001CEE 00000001     H   10996 10920B
 OSERRM8       2 00001CE2 00000001     H   10989 10919B
 OSERROR       2 00001C50 00000001     H   10906 10495
 OSERRS        4 00001C70 00000001     I   10918 10917B
 OSERR12       2 00001D12 00000001     H   11017 10924B
 OSERR16       2 00001D1E 00000001     H   11024 10925B
 OSERR20       2 00001D2A 00000001     H   11031 10926B
 OSERR24       2 00001D36 00000001     H   11038 10927B
 OSERR28       2 00001D42 00000001     H   11045 10928B
 OSERR32       2 00001D4E 00000001     H   11052 10929B
 OSERR36       2 00001D5A 00000001     H   11059 10930B
 OSERR4        2 00001CFA 00000001     H   11003 10922B
 OSERR40       2 00001D66 00000001     H   11066 10931B
 OSERR44       2 00001D72 00000001     H   11073 10932B
 OSERR48       2 00001D7E 00000001     H   11080 10933B
 OSERR52       2 00001D90 00000001     H   11091 10934B
 OSERR56       2 00001D9C 00000001     H   11098 10935B
 OSERR60       2 00001DA8 00000001     H   11105 10936B
 OSERR8        2 00001D06 00000001     H   11010 10923B
 OSFBLKSZ      2 00000104 FFFFFFEC     H    2562  3574   3700   3937   6937
 OSFDSORG      1 000000FF FFFFFFEC     R    2442  2450   2459   2468   2478   3771
 OSFFDISP      1 000000FE FFFFFFEC     R    2391  2399   2408   2417   2426   2436
 OSFFLAG       1 00000107 FFFFFFEC     R    2635  2643   2652   2661   2670   2680
 OSFILE        2 00002098 00000001     H   11590 11163
 OSFIN         8 00000107 FFFFFFEC         2652  3523M
 OSFLRECL      2 00000102 FFFFFFEC     H    2561  3584   3710   3835M  3947   6029
 OSFOLD       64 000000FE FFFFFFEC         2417  3517M
 OSFOUT        4 00000107 FFFFFFEC         2661  3766M
 OSFPB       102 000000C4 FFFFFFEC     U    2691  3540   3548   3650   3658   3903   3911
 OSFPBDS       4 000000C4 FFFFFFEC     F    2384  2691   2691
 OSFPO         2 000000FF FFFFFFEC         2468  3804M  6091
 OSFPS        64 000000FF FFFFFFEC         2450  3826M
 OSFRCFMF    128 00000100 FFFFFFEC         2501  3857M  6039
 OSFRCFMU    192 00000100 FFFFFFEC         2492  3596   3722   3883M  3959
 OSFRECFM      1 00000100 FFFFFFEC     R    2484  2492   2501   2510   2519   2528   2537   2546   2556
 OSFSDBLK      2 00000110 FFFFFFEC     H    2686 11861M
 OSFSHR        8 000000FE FFFFFFEC         2426  3500M
 OSFSPQTY      4 00000108 FFFFFFEC     F    2684 11816M
 OSFSPTRK    128 00000106 FFFFFFEC         2583 11822M 11860M
 OSFSPTYP      1 00000106 FFFFFFEC     R    2566  2574   2583   2592   2601   2610   2619   2629
 OSFVOL        6 000000F8 FFFFFFEC     C    2387  6469   6518  11668M 11743M
 OSOK          2 00002062 00000001     H   11540 11167
 OSOPTS        1 00001E17 00000001     R   11161 11140
 OSREAD        2 00000E0E 00000001     H    7058  6985B
 OSWRITE       2 00000EB4 00000001     H    7261  7207B
1VSUB     (VSUB00) (09:50) (22MAR04) Ordinary Symbol and Literal Cross Reference                                            Page  137
 OUTRANGE      2 000023E2 00000001     H   12422  7255B
 PCATEND       4 00000004 FFFFFFEB     A    2732  5405M  5405   7647M
 PCATERR       4 00000FD2 00000001     I    7684  7586B
 PCATPTR       4 00000000 FFFFFFEB     A    2731  5398M  5398   7545   7595M
 PCATSTRT      4 00000008 FFFFFFEB     F    2733  7594   7596
 PFX          11 00000054 FFFFFFEC     C    2231  2984   4388   5133   5142
 PLUSRET       2 00001A02 00000001     H   10440  8722B  8856B  8908B
 PRGCAT        1 00000000 FFFFFFEB     J    2730  5390U  7541U  7596
 PRIVTNOM      1 00000000 0000000C     T   11876 11876
 PUBLIC        2 0000093E 00000001     H    5657  5208   5574B
 PUTDIR        2 000010DE 00000001     H    7890  7736
 PUTDIRLP      6 00001906 00000001     I   10184 10200B
 PUTDIRLX      6 000010E2 00000001     I    7901  7917B
 PUTDIRX       2 000018FA 00000001     H   10170  8562B  8594B  8767B  8932B  9079B  9145B
 PUTMEM        2 0000121A 00000001     H    8324  7739
 QIETEXIT      2 000008D6 00000001     H    5530  5216
 QR            4 00000004 00000001 A   #    1048  4652M  4669   4683   4713   4788   4816   4820   5337M  5347U  5353M
                                                  5374   5390U  7509M  7519U  7525M  7541U  7660   7673
 QUIET         2 00001E64 00000001     H   11187 11133
 RAR           9 00000009 00000001 A   #    1125  2880M  2881M  2881B  2916M  2917M  2917B  3278M  3295M  3339M  3374M
                                                  3427M  3621M  3747M  3769M  3770M  3770B  3984M  4632M  4727M  4781M
                                                  4986M  5116M  5123M  5258M  5277M  5308M  5415M  5475M  5476M  5476B
                                                  5501M  5502M  5502B  5520M  5526M  5527M  5527B  6241M  6377M  7011M
                                                  7060M  7194M  7436M  7501M  7561M  7569M  7573M  7583M  7615M  7645M
                                                  7685M  7781M  7782M  7782B  7827M  7828M  7828B  7857M  7879M  7906M
                                                  7910M  7959M  7961M  8100M  8119M  8121M  8220M  8341M  8358M  8366M
                                                  8533M  8562M  8567M  8571M  8583M  8594M  8716M  8720M  8724M  8759M
                                                  8767M  8888M  8892M  8915M  8926M  8932M  9053M  9055M  9079M  9100M
                                                  9123M  9145M  9165M  9169M  9318M  9430M  9531M  9620M  9689M  9728B
                                                  9760B  9798B  9854B  9857M  9860M  9900B  9958M  9959M  9959B  9986M
                                                  9987M  9987B 10008M 10012M 10017B 10055M 10056M 10056B 10101M 10102M
                                                 10102B 10131M 10153M 10157B 10189M 10193M 10204B 10234B 10275M 10276M
                                                 10276B 10316M 10317M 10317B 10418B 10508M 10531M 10665M 10668M 10672M
                                                 10681M 10684M 10692M 10693M 10693B 10708M 10815M 10854M 10912M 10943M
                                                 10984M 10985M 10985B 10992M 10999M 11006M 11013M 11020M 11027M 11034M
                                                 11041M 11048M 11055M 11062M 11069M 11076M 11083M 11087M 11094M 11101M
                                                 11108M 11222M 11572M 11573M 11573B 11932  11934  11934  11934  11941
                                                 11956M 11957M 11957B 11960M 11961B 11987M 11989B 12008B 12028  12038M
                                                 12039M 12039B 12042M 12043M 12043B 12053M 12113B 12122M 12156M 12159M
                                                 12166M 12173M 12180M 12186M 12192M 12208M 12211M 12218M 12236M 12254M
                                                 12261M 12268M 12275M 12281M 12288M 12295M 12334M 12354M 12365M 12372M
                                                 12378M 12385M 12389M 12396M 12403M 12407M 12414M 12418M 12425M 12432M
                                                 12439M 12446M 12450M 12463M 12470M 12485M 12491M 12497M 12504M 12508M
                                                 12515M 12520M 12523M 12529M 12533M 12540M 12547M 12570M 12574M 12581M
                                                 12614M 12617M 12633M 12640M 12647M 12653M 12658M 12663M 12668M 12672M
                                                 12679M 12717M 12722M 12727M 12748M 12752M 12773M 12778M 12783M 12790M
                                                 12797  12820M 12821M 12821B 12824M 12825B
 RDERASE       2 00001B28 00000001     H   10688 10493
 RDEXIT        2 00001B90 00000001     H   10805 10725B 10772B 10785  10795B
 READ          2 00000D94 00000001     H    6875  6675
 READGO        4 00000DB4 00000001     I    6942  6677
 READNSK       4 00000DDE 00000001     I    7011  7003B
 READWDS       2 00000D08 00000001     H    6692  6673
 REDNOIDL      2 00000DA0 00000001     H    6918  6676
 RELCAT        2 00000FDE 00000001     H    7690  6685
 RENAMEOS      2 00000C34 00000001     H    6486  6335B
 REQABORT      4 0000257E 00000001     I   12716  6857B 12044B
 RESETWMW      2 000009D2 00000001     H    5843  5198
 RETALIAS      4 000016A4 00000001     I    9691  9687B
1VSUB     (VSUB00) (09:50) (22MAR04) Ordinary Symbol and Literal Cross Reference                                            Page  138
 RNAMDONE      2 000013CA 00000001     H    8765  8736B  8761B
 RNAMEMEM      2 00001370 00000001     H    8699  7741
 R0            0 00000000 FFFFFFFF A   #     700  2945M  2951M  3275   3573   3936   4087   4125   4145   4159M  4186
                                                  4220   4631M  4700   4701   4701   4701   4724M  4740M  4742   4743
                                                  4743   4743   4744M  4748M  4749M  4751   4753   4777M  4842M  4844
                                                  4845   4845   4845   4851M  4854M  4883   4887   4888M  4915M  4924M
                                                  4924   4974M  5115M  5122M  5140   5140   5140   5769M  5837M  6028M
                                                  6141   6218M  6235M  6353M  6370M  6947M  6968M  7167M  7188M  7366M
                                                  7387M  7434   7498M  7566M  7633M  7634M  7635   7832   7866M  7867M
                                                  7867   7870   7983M  8004M  8249M  8270M  8417M  8434M  8622M  8643M
                                                  8789M  8810M  8954M  8975M  9205M  9226M  9692M  9698   9709   9710
                                                  9710   9710   9717M  9722   9726M  9736   9737   9737   9737   9744M
                                                  9754   9758M  9772   9773   9773   9773   9787M  9792   9796M  9852M
                                                  9990   9991M  9998M 10106  10140M 10141M 10141  10144  10321  10328M
                                                 10349M 10458  10458  10458  10509M 10516M 10722M 10722  10857  10889M
                                                 11259  11355M 11356M 11356  11361M 11401M 11413  11451M 11463  11496
                                                 11666  11691  11722  11731  12127M 12127  12632M 12803M
 R1            1 00000001 FFFFFFFF A   #     713  2866M  2901M  2932   2933   2946M  2961M  2962M  2963   3280   3401M
                                                  3401   3406   3623   3749   3986   4156M  4624M  4693   4700   4701
                                                  4701   4701   4703   4719   4742   4743   4743   4743   4745M  4746M
                                                  4777M  4778   4840M  4844   4845   4845   4845   4850M  4854M  4883
                                                  4889M  4946M  4963M  4968   4973   5110M  5121M  5140   5140   5140
                                                  5768M  5815M  5815   5832M  5861M  5866M  5871M  5876M  5881M  5886M
                                                  5891M  5896M  5938M  5942M  5946M  5950M  5954M  5958M  5962M  5968M
                                                  5974M  5978M  5982M  5985M  6002M  6002   6140M  6149M  6153M  6157M
                                                  6161M  6165M  6169M  6173M  6177M  6181M  6185M  6191M  6191   6693M
                                                  6703U  6734M  6772M  6778   6876M  6886U  6919M  6942   7121   7123M
                                                  7125M  7162M  7497M  7565M  7673M  7830   7831   7840   7853M  7860
                                                  7877M  7903M  7914M  7915M  7915   8137M  8139   8156M  8156   8178M
                                                  8179M  8180   8368M  8369   8370   8535M  8537   8585M  8587   9324M
                                                  9341   9437M  9454   9537M  9554   9627M  9638   9691M  9716M  9743M
                                                  9786M  9989   9991   9992M  9999M 10104  10105  10114  10127M 10134
                                                 10151M 10186M 10197M 10198M 10198  10215  10319  10320  10323  10392
                                                 10406  10526M 10859  11267  11268M 11268  11354M 11360M 11400M 11450M
                                                 11669  11700  12006  12007  12007  12007  12067M 12077U 12110M 12326
                                                 12567M 12626M 12684M 12694U 12804M 12836  12836  12836
 R14          14 0000000E FFFFFFFF A   #     882  3078M  3078   3079M  3341   5583M  5583   5603M  5745M  5745   5762M
                                                  5972M  6319M  6319   6347M  6567M  6567   6584M  7045   7246   7631M
                                                  7634M  8238M  8243   8244M  8564M  9147M  9157   9304M  9305M  9305
                                                  9319M  9331M  9331   9341   9380   9416M  9417M  9417   9431M  9432M
                                                  9444M  9444   9454   9463   9484   9517M  9518M  9518   9532M  9544M
                                                  9544   9554   9606M  9607M  9607   9621M  9622M  9628M  9628   9638
                                                  9647   9685M  9686M  9686   9690M  9698M  9700   9715M  9722M  9742M
                                                  9754M  9785M  9792M  9873   9874   9874   9874   9899M 10016M 10156M
                                                 10172  10173  10173  10173  10203M 10213  10214  10214  10214  10233M
                                                 10245  10246  10246  10246  10354M 10417M 10459  10459  10459  10950
                                                 11350  11357M 11362M 11365M 12006  12007  12007  12007  12110M 12836
                                                 12836  12836
 R15          15 0000000F FFFFFFFF A   #     895  2853M  2854M  2854   3325   3685   3691M  3692M  3692   3698M  3698
                                                  4828M  5448M  5449M  5449   5584M  5767M  5847M  5847   5850M  5855M
                                                  5858M  5936M  5971M  6007M  6315M  6315   6341M  6544M  6735M  6773M
                                                  6920M  6937M  7009M  7009   7138   7150M  7277M  7278   7434M  7452
                                                  7585M  7585   7632M  7636   7755M  7756M  7756   7786M  7786   7787
                                                  7854M  7902M  8047   8243M  8308   8439M  8478   8563M  8855   8857
                                                  8859   8923M  8923   9022   9024   9146M  9157   9583   9714M  9714
                                                  9723M  9727M  9727   9741M  9741   9755M  9759M  9759   9777M  9777
                                                  9793M  9797M  9797   9853M  9853   9932M  9933M  9933   9963M  9963
                                                  9964  10009M 10029M 10030M 10030  10060M 10060  10061  10128M 10185M
                                                 10249M 10250M 10250  10280M 10280  10281  10323M 10435M 10436M 10436
1VSUB     (VSUB00) (09:50) (22MAR04) Ordinary Symbol and Literal Cross Reference                                            Page  139
                                                 10441M 10908  10915M 10916M 10916  10917B 11203  11204  11204  11204
                                                 11226M 11861  11880  11880  11880  11967M 11968B 11981M 11981  11988M
                                                 11988  12312  12475M 12475  12476B 12588M 12594M 12600M
 R2            2 00000002 FFFFFFFF A   #     726  4968M  4970M  4971   4973M  4974   7119M  7120   7126M  7127   8146M
                                                  8164M  8169   8170   8179   8537M  8587M  9996M  9996   9998M 10391M
                                                 10392M 10393  10394  11263M 11267M
 R3            3 00000003 FFFFFFFF A   #     739  7120M  7121   7123   7124M  7125   7126   9997M 10395M 10396M 10406
 R4            4 00000004 FFFFFFFF A   #     752  8553M  8555M  8557M  8564   9138M  9140M  9142M  9147
 R5            5 00000005 FFFFFFFF A   #     765  8545M  8555   8563   9130M  9140   9146  11547  11548  11548  11548
                                                 11576M
 R9            9 00000009 FFFFFFFF A   #     817  9709   9710   9710   9710   9726M  9736   9737   9737   9737   9758M
                                                  9772   9773   9773   9773   9796M  9852M  9873   9874   9874   9874
                                                  9899M 10016M 10156M 10172  10173  10173  10173  10203M 10213  10214
                                                 10214  10214  10233M 10245  10246  10246  10246  10417M 10458  10458
                                                 10458  10459  10459  10459
 SAVRETRY      2 00002222 00000001     H   11997  6241B  6377B  7011B  7060B  7194B  7436B
 SCAN          1 00000000 00000005     T    5129  5129  11116
 SCANMCOM      2 00000658 00000001     H    4864  4847B
 SCBCFCLA     64 00000261 FFFFFFEE         1369  6717   6900  12091  12706M
 SCBCFL        1 00000261 FFFFFFEE     R    1360  1364   1369   1374   1379   1384
 SCBFL         1 00000262 FFFFFFEE     R    1390  1394   1399   1404   1409   1414
 SCBTFL        1 00000263 FFFFFFEE     R    1420  1424   1429   1434   1439   1444
 SCBWFL        1 00000260 FFFFFFEE     R    1350  1354
 SCBXA        64 00000265 FFFFFFEE         1466  1500   1500   1502   1502   1504   1504
 SCBXFL        1 00000265 FFFFFFEE     R    1457  1461   1466   1471   1476   1481   1486   1506
 SCBXP        16 00000265 FFFFFFEE         1476  1503   1503   1504   1504   1505   1505
 SCBXT       128 00000265 FFFFFFEE         1461  1500   1500   1501   1501   1503   1503
 SCBXW        32 00000265 FFFFFFEE         1471  1501   1501   1502   1502   1505   1505
 SCINIT        1 00000000 00000007     T    5135  5135  11115
 SCNMCMA       4 00000630 00000001     I    4846  4851B
 SCNMEND       4 00000672 00000001     I    4890  4862B
 SCNMLIST      2 00000622 00000001     H    4839  4061
 SCP         660 00000000 FFFFFFEE     J    1530  5347U  6703U  6886U  7519U 12077U 12694U
 SCPACCT       6 000001AA FFFFFFEE     C    1239  1240   1241
 SCPCWASZ      1 00000010 FFFFFFEE A   N    1328  1329
 SCPFL         1 00000200 FFFFFFEE     R    1274  1278   1283   1288   1293   1298   1303   1308   1313
 SCPPAN        2 000001A8 FFFFFFEE     H    1230  1231
 SCPPCAT       4 000001BC FFFFFFEE     A    1251  5353   7525
 SCTELL        1 00000000 00000006     T    5134  5134
 SEG           2 000021EC 00000001     H   11939  4632B  4986B  5116B  5123B  5520B 10531B 12156B 12208B 12614B 12633B
 SEGACCT       2 00001A94 00000001     H   10514 10489
 SEGACC1       6 00001A94 00000001     I   10515 10504B
 SEGACC2       4 00001A9E 00000001     I   10526 10510B
 SEGFULL       2 00000700 00000001     I    5110  5043B  5065B  5080B  5095B
 SEGMEMB       2 00000676 00000001     H    4895  4063
 SEGMLEN       2 000006A2 00000001     I    4970  4972B
 SEGNAME       2 000006BA 00000001     H    5005  4064
 SEGNX         4 00000708 00000001     I    5121  4987B
 SENBLKSZ      4 00000B2E 00000001     I    6181  5219
 SENFILE       2 0000094E 00000001     H    5689  5209
 SENFREC       4 00000A60 00000001     I    5954  5179
 SENFWDS       2 00000A0C 00000001     H    5875  5203
 SENLDF        4 00000B16 00000001     I    6165  5194
 SENLREC       4 00000A66 00000001     I    5958  5180
 SENLWDS       2 00000A14 00000001     H    5880  5204
 SENMEM        2 0000098A 00000001     H    5741  5210
 SENMODE       4 00000B1C 00000001     I    6169  5218
 SENNREC       4 00000A6C 00000001     I    5962  5181
 SENNRECH      4 00000B34 00000001     I    6185  5220
1VSUB     (VSUB00) (09:50) (22MAR04) Ordinary Symbol and Literal Cross Reference                                            Page  140
 SENREC        4 00000A5A 00000001     I    5950  5178
 SENSHR        4 00000A90 00000001     I    5982  5186
 SENSP         2 000009BC 00000001     H    5811  5211
 SENSWDS       2 00000A04 00000001     H    5870  5202
 SENUINFO      2 00000AAC 00000001     H    6012  5188
 SENUPRV       4 00000A7C 00000001     I    5971  5184
 SENWMW        2 000009FC 00000001     H    5865  5201
 SETFMT        1 00000000 00000004     T    4030  4030
 SETLDF        4 00000B10 00000001     I    6161  5193
 SETPREST      2 000009E4 00000001     H    5854  5199
 SETPUB        2 00001F16 00000001     H   11330 11136  11150
 SETSHR        4 00000A8A 00000001     I    5978  5185
 SETUINFO      4 00000A96 00000001     I    5985  5187
 SETWMW        2 000009F4 00000001     H    5860  5200   5849B  5851B  5857B
 SHRONLY       2 00002394 00000001     H   12375  3266B
 SPACE         2 00002126 00000001     H   11796 11172
 SR            2 00000002 00000001 A   #    1022  2951M  3574M  3584   3700M  3710   3937M  3947   4087M  4158M  4159
                                                  4200   4203M  4205   4220M  4353   4388M  4451M  4471M  4545M  4583M
                                                  4603   4631   4694M  4698M  4702M  4703M  4719   4740   4744   4754M
                                                  4758M  4760   4778M  4886M  4887M  4888   5013M  5029M  5071   5086
                                                  5101M  5110   5141   5141   5141   5229M  5236M  5236   7343M  7344M
                                                  7345   7594M  7595   7633   7635M  7647   7841M  7842M  7843M  7871
                                                 10115M 10116M 10117M 10145  10216M 10218M 10219  10635M 10639M 10641
                                                 10859M 10860  10865  10867  10870  10888M 11542M 11579  11731M 11734M
                                                 11736  11932  11934  11934  11934  11987M
 SRCH#MEM      4 00000570 00000001     I    4695  4698B
 SRCHDIRX      2 00001748 00000001     H    9770  7961B  8121B  8358B  8533B  8915B  9123B
 SRCHECK       2 00001780 00000001     H    9800  9791B
 SRCHIT        4 00001756 00000001     I    9785  9847B
 SRCHLOOP      2 00001762 00000001     H    9789  9792B
 SRCHRET       2 000017B2 00000001     H    9849  9802B
 STATCHK       4 00000960 00000001     I    5719  5684B  5794B
 STAT3OR4      2 000009A4 00000001     H    5776  5217   5838B
 TERMCON       2 00000A30 00000001     H    5899  5862B  5867B  5872B  5877B  5882B  5887B  5892B
 TOOMANY       2 0000237C 00000001     H   12362  3242B  5636B  5722B 12479B
 TR            3 00000003 00000001 A   #    1035  2950M  2950   4693M  4697M  4745   4886M  4889   5011M  5030M  5102M
                                                  5115   5141   5141   5141   7545M  7546M  7546   7596M  7607M  7607
                                                  7632   7636M  7840M  7842   7851U  7853   7862   7869M  7869   7871
                                                  7877   7891M  7899U  7903   7916M  7916  10114M 10116  10125U 10127
                                                 10136  10143M 10143  10145  10151  10174M 10182U 10186  10199M 10199
                                                 10215M 10216  11546M 11575
 TRYNEW        2 00000210 00000001     H    3433  3262B
 TRYNEXTA      4 000016BA 00000001     I    9698  9693B
 TSEGACC       2 00001A74 00000001     H   10502 10488
 UNAVAIL       2 00002230 00000001     H   12011  6282B  7049B  7250B  7459B
 USER          4 00001FAA 00000001     I   11428 11138  11144  11154  11357B
 USER3         4 00001FE4 00000001     I   11463 11449B 11451B
 USR$GRP       4 00001FFC 00000001     I   11478 11139  11148  11156
 USR$RET       4 00002052 00000001     I   11512 11506B
 UUU           3 00000013 FFFFFFEC     C    2196 10503  10860  10862  10863  10865M 11261  11263  11502  11504  11887
 VOID          2 0000251A 00000001     H   12637  5932B
 VOLCAT        2 0000210A 00000001     H   11752 11694B 11725B
 VOLUME        2 000020BE 00000001     H   11646 11161
 VREAD         1 00000000 00000009     T   11114 11114
 VSEG          1 00000000 0000000B     T   11118 11118  12829
 VSUB          1 00000000 00000001     J     994   996   1030   1043   1056   1069   1081   1094   1107   1120   1133
                                                  1146   1159   1531   1854   2772
 VSUB#SEG      2 000025EE 00000001     H   12795  7685B  9857B 10508B 10665B 10672B 10681B 10854B 10912B 10943B 10992B
                                                 10999B 11006B 11013B 11020B 11027B 11034B 11041B 11048B 11055B 11062B
1VSUB     (VSUB00) (09:50) (22MAR04) Ordinary Symbol and Literal Cross Reference                                            Page  141
                                                 11069B 11076B 11087B 11094B 11101B 11108B 12122B 12159B 12166B 12173B
                                                 12180B 12192B 12211B 12218B 12236B 12254B 12261B 12268B 12275B 12281B
                                                 12288B 12295B 12334B 12354B 12365B 12372B 12378B 12389B 12396B 12407B
                                                 12418B 12425B 12432B 12439B 12450B 12470B 12485B 12491B 12497B 12508B
                                                 12515B 12520B 12533B 12540B 12547B 12574B 12581B 12617B 12640B 12647B
                                                 12653B 12658B 12663B 12668B 12672B 12679B 12717B 12722B 12727B 12748B
                                                 12752B 12773B 12778B 12783B 12790B
 VSUBMORG      1 00002644 00000001     U   12842  7684   9856  10507  10664  10671  10680  10853  10911  10942  10991
                                                 10998  11005  11012  11019  11026  11033  11040  11047  11054  11061
                                                 11068  11075  11086  11093  11100  11107  12121  12158  12165  12172
                                                 12179  12191  12210  12217  12235  12253  12260  12267  12274  12280
                                                 12287  12294  12333  12353  12364  12371  12377  12388  12395  12406
                                                 12417  12424  12431  12438  12449  12469  12484  12490  12496  12507
                                                 12514  12519  12532  12539  12546  12573  12580  12616  12639  12646
                                                 12652  12657  12662  12667  12671  12678  12716  12721  12726  12747
                                                 12751  12772  12777  12782  12789  12803  12804
 VSUB00        1 00000000 00000001     R    1003  1001
 VWRITE        1 00000000 00000008     T    6644  6644  12831
 WAR           8 00000008 00000001 A   #    1112 11378  11379  11379  11379  11405M 11418M 11428  11429  11429  11429
                                                 11455M 11468M 11547  11548  11548  11548  11576M 11885  11885  11885
                                                 11965M 11972M
 WDSFULL       4 0000258A 00000001     I   12721  6856B
 WNALGN        1 00000010 00000001 A   N    1865  5850   5858
 WNNUMB        1 00000008 00000001 A   N    1864  5850   5858
 WPREST        1 00000001 00000001 A   N    1861  5855
 WPRHBT        1 00000004 00000001 A   N    1863  5850   5858
 WRITE         2 00000E5C 00000001     H    7161  6678
 WRITEGO       2 00000E60 00000001     I    7166  6679
 WRITERR       4 00000E90 00000001     I    7247  6680
 WRITEWDS      2 00000D52 00000001     H    6819  6674
 WRITEXIT      2 000008CC 00000001     H    5522  5215   5543B
 WRWDSTRN      2 00000D8C 00000001     H    6864  6855B
 WSSBRK        1 00000020 00000001 A   N    1866  5848   5856
 =A(-12)       4 00002628 00000001     A   12832 12312
 =A(FSUB#COM)
               4 00002178 00000001     A   11875 11219  11258  11303  11348  11394  11444  11494  11563  11664  11814
                                                 11853
 =A(GPWBUF-GPWSTART)
               4 000003A4 00000001     A    4026  2961
 =A(L'GPW)
               4 0000039C 00000001     A    4024  2901
 =A(L'GPW)
               4 00000CC4 00000001     A    6643  5498
 =A(L'PFX+1)
               4 00000730 00000001     A    5133  4353
 =A(1)         4 00000728 00000001     A    5131  4145   4156
 =A(28)        4 000003B4 00000001     A    4028  3325
 =A(3)         4 00002184 00000001     A   11878 11691
 =A(4)         4 0000262C 00000001     A   12833 12326
 =A(44)        4 0000072C 00000001     A    5132  4186
 =A(45)        4 00000724 00000001     A    5130  4125
 =A(5)         4 00002188 00000001     A   11879 11722
 =A(8)         4 000003B8 00000001     A    4029  3685
 =A(8192-4)
               4 00001A34 00000001     A   10452 10354
 =C'      '
               6 0000219E 00000001     C   11889 11668
 =C' '         1 00000751 00000001     C    5146  5121
 =C'&&'        1 00000750 00000001     C    5145  4500
1VSUB     (VSUB00) (09:50) (22MAR04) Ordinary Symbol and Literal Cross Reference                                            Page  142
 =C'@GG.&&ORV.CATALOGUE'
              18 00000FEE 00000001     C    7704  7565
 =C'ACCOUNT'
               7 00002638 00000001     C   12837 12588
 =C'CATLG'
               5 000021A7 00000001     C   11891 11669  11700
 =C'GG'        2 00002192 00000001     C   11883 11360
 =C'GROUP'
               5 0000263F 00000001     C   12838 12594
 =C'Orvyl Queued'
              12 00002618 00000001     C   12830 12034
 =C'ORV.  .   . '
              12 000003A8 00000001     C    4027  2984
 =C'ORV'       3 0000074D 00000001     C    5144  4311
 =C'PROGRAM CATALOG'
              15 00001000 00000001     C    7705  7497
 =C'PUB'       3 00001DD0 00000001     C   11121 10503
 =C'PUB'       3 000021A4 00000001     C   11890 11354
 =C'USER'      4 00002630 00000001     C   12834 12600
 =C'WYL.'      4 00002180 00000001     C   11877 11623  11768
 =C'WYL'       3 0000074A 00000001     C    5143  4280
 =CL8' '       8 00000718 00000001     C    5128  4755
 =F'12'        4 00001A38 00000001     F   10453 10396
 =F'2'         4 00000FE8 00000001     F    7702  6773
 =F'8'         4 00001A2C 00000001     F   10450  9432   9622
 =H'44'        2 00000FEC 00000001     H    7703  7138
 =H'52'        2 00001A40 00000001     H   10456  8855
 =H'56'        2 00001A3E 00000001     H   10455  8047   8308   8478   8857   9022
 =H'6'         2 0000219C 00000001     H   11888 11666
 =H'60'        2 00001A42 00000001     H   10457  8859   9024
 =V(BTX)       4 00001DC4 00000001     V   11117 10967
 =V(FREECLW)
               4 00000398 00000001     V    4023  2880
 =V(FREECLW)
               4 00000CC0 00000001     V    6642  5475   5501
 =V(FREECLW)
               4 00001A20 00000001     V   10447  7781   9958  10055  10275
 =V(FSUB#COM)
               4 00002610 00000001     V   12828 11935
 =V(GETCLW)
               4 000003A0 00000001     V    4025  2916
 =V(GETCLW)
               4 00001A24 00000001     V   10448  7827   9986  10101  10316
 =V(PRIVTNOM)
               4 0000217C 00000001     V   11876 11572
 =V(SCAN)      4 00000720 00000001     V    5129  4085   4686   4716
 =V(SCAN)      4 00001DC0 00000001     V   11116 10770
 =V(SCINIT)
               4 00000738 00000001     V    5135  4672   4813
 =V(SCINIT)
               4 00001DBC 00000001     V   11115 10751
 =V(SCTELL)
               4 00000734 00000001     V    5134  4649   4791
 =V(SETFMT)
               4 000003BC 00000001     V    4030  3769
 =V(VREAD)
               4 00001DB8 00000001     V   11114 10692
 =V(VSEG)      4 00001DC8 00000001     V   11118 10984
 =V(VSEG)      4 00002614 00000001     V   12829 11956  12038  12820
1VSUB     (VSUB00) (09:50) (22MAR04) Ordinary Symbol and Literal Cross Reference                                            Page  143
 =V(VWRITE)
               4 00000CC8 00000001     V    6644  5526
 =V(VWRITE)
               4 00002624 00000001     V   12831 12042
 =X'00010008'
               4 00001A28 00000001     X   10449  8009   8440
 =X'40000000'
               4 00001A30 00000001     X   10451  9997
 =Y((BR+1-(BRR)+16*((BRR)/(BR+1))/((BRR)/(BR+1)))*4)
               2 00002190 00000001     Y   11882 11276  11317  11367  11512  11635  11780  11824  11863
 =Y((R1+1-(R0)+16*((R0)/(R1+1))/((R0)/(R1+1)))*4)
               2 00000744 00000001     Y    5140  4776   4853
 =Y((R1+1-(R14)+16*((R14)/(R1+1))/((R14)/(R1+1)))*4)
               2 00002636 00000001     Y   12836 12109
 =Y((R15+1-(BRR)+16*((BRR)/(R15+1))/((BRR)/(R15+1)))*4)
               2 0000218C 00000001     Y   11880 11225
 =Y((R9+1-(R0)+16*((R0)/(R9+1))/((R0)/(R9+1)))*4)
               2 00001A44 00000001     Y   10458  9725   9757   9795   9851
 =Y((R9+1-(R14)+16*((R14)/(R9+1))/((R14)/(R9+1)))*4)
               2 00001A46 00000001     Y   10459  9898  10015  10155  10202  10232  10416
 =Y((TR+1-(SR)+16*((SR)/(TR+1))/((SR)/(TR+1)))*4)
               2 00000746 00000001     Y    5141  4885
 =Y((WAR+1-(BRR)+16*((BRR)/(WAR+1))/((BRR)/(WAR+1)))*4)
               2 00002196 00000001     Y   11885 11404  11417  11454  11467
 =Y(DIRBLEN)
               2 00001A3C 00000001     Y   10454  7843   7860  10117  10134
 =Y(L'ACCT)
               2 00001DCC 00000001     Y   11119 10857
 =Y(L'ACCT)
               2 0000218E 00000001     Y   11881 11259  11496
 =Y(L'GG)      2 00002198 00000001     Y   11886 11413
 =Y(L'PFX)
               2 00000748 00000001     Y    5142  5102
 =Y(L'UUU)
               2 0000219A 00000001     Y   11887 11463
 =Y(2+L'GPWGRP)
               2 0000073E 00000001     Y    5137  4471
 =Y(2+L'GPWUSER)
               2 00000740 00000001     Y    5138  4583
 =Y(2)         2 0000073C 00000001     Y    5136  4451   4545
 =Y(4)         2 00001DCE 00000001     Y   11120 10914
 =Y(4)         2 00002194 00000001     Y   11884 11364
 =Y(4)         2 00002634 00000001     Y   12835 11959  12052  12823
 =Y(8)         2 00000742 00000001     Y    5139  4751

1VSUB     (VSUB00) (09:50) (22MAR04) Macro and Copy Code Source Summary                                                     Page  144
- Con Source                                        Volume    Members                        HLASM R4.0  2004/03/22 09.50
0     PRIMARY INPUT                                           BTD      BTX      CNTRLCOD CSECT    DROP     END      EX
                                                              LTORG    POP      PRINT    PUSH     START    USING
   L2 WYL.GG.SYS.MACLIB                             SYSB05    $BC      $BFLKUP  $BV      $CCLKUP  $CRS     $CSS     $L
                                                              $LA      $LBLAD   $LEXP    $LOR     $REL     $RGLKUP
                                                              $USLKUP  BASE     BEGIN    CLEAR    CSECT    DATA     DECR
                                                              DEFCC    DEX      DROP     ELSE     ELSEIF   END      EX
                                                              FLAG     GEN      HIBAL    IDENT    IF       INCR
                                                              LABEL    LC       LCALL    LCM      LOOP     LS       LT
                                                              LTORG    L3       POP      PRINT    PUSH     RECORD   REG
                                                              REGS     SET      SETMSG   START    SYSLR    SYSQS
                                                              UNTIL    USING    VCALL    WHILE    WITH
   L3 WYL.GG.ORV.BC.MACLIB                          SYSB02    CLPSERV  CLW      DENTRY   DIRB     FREECLW  FSCALL
                                                              GENMSGS  GETCLW   GPW      ORVDEFN  OSFPB    PRGCAT   SCAN
                                                              SCANCB   SCINIT   SCKW     SCRTN    SCTELL   SEG
                                                              SEGHX    VPOP     VPUSH    VREAD    VREST    VSAVE    VSEG
                                                              VWRITE   WYLMDWD  XCALL
   L4 WYL.GG.ORV.MACLIB                             SYSB02    SCP
   L5 SYS3.ORVYL.UMACLIB                            SYSB02    ATTACH   CALLSYS  CONTROL  DETACH   READ     SERVICE
                                                              STATUS   SYSKWT   VSET     WAIT     WRITE
   L6 SYS3.IS.MACLIB                                SYSB05    SYSDEFN

1         (VSUB00) (09:50) (22MAR04) General Purpose Register Cross Reference                                               Page  145
- Register  References (M=modified, B=branch, U=USING, D=DROP, N=index)                      HLASM R4.0  2004/03/22 09.50
0    0(0)      983U   984D  2945M  2951M  3022M  3087M  3149M  3212M  3275   3533M  3573   3643M  3896M  3936   4000M
              4000   4001M  4087   4125   4145   4159M  4186   4220   4631M  4694   4700   4702   4724M  4740M  4742
              4744M  4748M  4749M  4749   4751   4753   4754   4777M  4842M  4844   4851M  4854M  4883   4887   4888M
              4914M  4914   4915M  4924M  4924   4974M  5115M  5122M  5381M  5610M  5610   5665M  5697M  5769M  5837M
              5905M  6028M  6141   6217M  6217   6218M  6235M  6352M  6352   6353M  6370M  6444M  6495M  6596M  6596
              6597M  6784M  6825M  6946M  6946   6947M  6967M  6967   6968M  7166M  7166   7167M  7187M  7187   7188M
              7365M  7365   7366M  7386M  7386   7387M  7434   7444M  7474M  7498M  7566M  7633M  7634M  7635   7667M
              7832   7841   7866M  7867M  7867   7870   7982M  7982   7983M  8003M  8003   8004M  8248M  8248   8249M
              8269M  8269   8270M  8416M  8416   8417M  8433M  8433   8434M  8621M  8621   8622M  8642M  8642   8643M
              8788M  8788   8789M  8809M  8809   8810M  8953M  8953   8954M  8974M  8974   8975M  9204M  9204   9205M
              9225M  9225   9226M  9692M  9698   9709   9717M  9722   9726M  9736   9744M  9754   9758M  9772   9787M
              9792   9796M  9852M  9873   9899M  9990   9991M  9998M 10016M 10106  10115  10140M 10141M 10141  10144
             10156M 10172  10203M 10213  10233M 10245  10321  10327M 10327  10328M 10348M 10348  10349M 10417M 10509M
             10516M 10722M 10722  10857  10889M 10957M 11259  11355M 11356M 11356  11361M 11401M 11413  11451M 11463
             11496  11547  11576M 11666  11691  11722  11731  12006  12035M 12065M 12110M 12127M 12127  12632M 12802M
             12802  12803M
     1(1)      979U  2866M  2901M  2913   2932   2933   2946M  2951M  2961M  2962M  2963   3029M  3094M  3095M  3095
              3156M  3157M  3157   3219M  3280   3401M  3401   3406   3540M  3541M  3541   3623   3650M  3651M  3651
              3749   3903M  3904M  3904   3986   4075M  4075   4156M  4624M  4678M  4678   4693   4700   4703   4708M
              4708   4719   4742   4745M  4746M  4777M  4778   4840M  4844   4850M  4854M  4883   4889M  4946M  4963M
              4968N  4973   5110M  5121M  5374M  5467M  5493M  5616D  5618M  5618   5619M  5620U  5671D  5673M  5673
              5674M  5675U  5702M  5768M  5815M  5815   5832M  5861M  5866M  5871M  5876M  5881M  5886M  5891M  5896M
              5938M  5942M  5946M  5950M  5954M  5958M  5962M  5968M  5974M  5978M  5982M  5985M  6002M  6002   6140M
              6149M  6153M  6157M  6161M  6165M  6169M  6173M  6177M  6181M  6185M  6191M  6191   6390M  6451M  6452M
              6452   6502M  6503M  6503   6604M  6693M  6703U  6732U  6734M  6752M  6772M  6778   6788M  6788   6829M
              6829   6876M  6886U  6915U  6919M  6942   7121   7123M  7125M  7162M  7404M  7478M  7478   7497M  7565M
              7634M  7660M  7673M  7684M  7773M  7817M  7830   7831   7840   7853M  7860   7877M  7903M  7914M  7915M
              7915   8023M  8134D  8136M  8136   8137M  8138U  8139   8156M  8156   8178M  8179M  8180   8284M  8284
              8368M  8369   8370   8454M  8535M  8537   8585M  8587   8660M  8827M  8992M  9243M  9324M  9341   9437M
              9454   9537M  9554   9627M  9638   9691M  9698   9709   9716M  9722   9726M  9736   9743M  9754   9758M
              9772   9786M  9792   9796M  9852M  9856M  9873   9899M  9950M  9976M  9989   9991   9992M  9998M  9999M
             10016M 10047M 10091M 10104  10105  10114  10127M 10134  10151M 10156M 10172  10186M 10197M 10198M 10198
             10203M 10213  10215  10233M 10245  10267M 10309M 10319  10320  10323  10367M 10392  10406  10417M 10507M
             10526M 10664M 10671M 10680M 10760M 10853M 10859  10911M 10942M 10964M 10991M 10998M 11005M 11012M 11019M
             11026M 11033M 11040M 11047M 11054M 11061M 11068M 11075M 11086M 11093M 11100M 11107M 11267  11268M 11268N
             11354M 11360M 11398  11400M 11450M 11547  11576M 11669  11700  12006  12034M 12067M 12077U 12106U 12110M
             12121M 12158M 12165M 12172M 12179M 12191M 12210M 12217M 12235M 12253M 12260M 12267M 12274M 12280M 12287M
             12294M 12326  12333M 12353M 12364M 12371M 12377M 12388M 12395M 12406M 12417M 12424M 12431M 12438M 12449M
             12469M 12484M 12490M 12496M 12507M 12514M 12519M 12532M 12539M 12546M 12567M 12573M 12580M 12616M 12626M
             12639M 12646M 12652M 12657M 12662M 12667M 12671M 12678M 12684M 12694U 12713U 12716M 12721M 12726M 12747M
             12751M 12772M 12777M 12782M 12789M 12803N 12804M 12804N
     2(2)      975U  2951M  3574M  3584   3700M  3710   3937M  3947   4087M  4158M  4159   4200   4203M  4205   4220M
              4353   4388M  4451M  4471M  4545M  4583M  4603   4631N  4694M  4698M  4702M  4703M  4719   4740   4744
              4754M  4758M  4760   4778M  4886M  4887M  4888   4968M  4970M  4971   4973M  4974N  5013M  5029M  5071
              5086   5101M  5110   5229M  5236M  5236   7119M  7120N  7126M  7127   7343M  7344M  7345   7594M  7595
              7633   7635M  7647   7841M  7842M  7843M  7871   8143D  8145M  8145   8146M  8164M  8169   8170   8179
              8536M  8537M  8538   8586M  8587M  8588   9709   9726M  9736   9758M  9772   9796M  9852M  9873   9899M
              9996M  9996   9998M 10016M 10115M 10116M 10117M 10145  10156M 10172  10203M 10213  10216M 10218M 10219
             10233M 10245  10391M 10392M 10393  10394  10417M 10632D 10634M 10634  10635M 10636U 10639M 10641  10859M
             10860  10865  10867  10870  10888M 11263M 11267M 11542M 11547  11576M 11579  11731M 11734M 11736  11932
             11987M
     3(3)      971U  2950M  2950   2951M  4693M  4697M  4745   4886M  4889   5008D  5010M  5010   5011M  5012U  5030M
              5102M  5115   7120M  7121   7123   7124M  7125   7126   7545M  7546M  7546   7596M  7607M  7607   7632
              7636M  7840M  7842   7851U  7853   7862   7869M  7869   7871   7877   7886U  7891M  7899U  7903   7916M
              7916   7924U  9709   9726M  9736   9758M  9772   9796M  9852M  9873   9899M  9997M  9998M 10016M 10114M
1         (VSUB00) (09:50) (22MAR04) General Purpose Register Cross Reference                                               Page  146
             10116  10125U 10127  10136  10143M 10143  10145  10151  10156M 10163U 10172  10174M 10182U 10186  10199M
             10199  10203M 10213  10215M 10216  10233M 10245  10395M 10396M 10406  10417M 11546M 11547  11575  11576M
             11932  11987M
     4(4)      967U  4652M  4669   4683   4713   4788   4816   4820   5337M  5347U  5353M  5360U  5374   5390U  5411U
              7509M  7519U  7525M  7532U  7541U  7660   7673   7680U  8550D  8552M  8552   8553M  8554U  8555M  8557M
              8564   9135D  9137M  9137   9138M  9139U  9140M  9142M  9147   9709   9726M  9736   9758M  9772   9796M
              9852M  9873   9899M 10016M 10156M 10172  10203M 10213  10233M 10245  10417M 11547  11576M 11932  11987M
     5(5)      963U  2818M  2818N  2819B  4055M  4055N  4056B  5171M  5171N  5172B  6669M  6669N  6670B  7731M  7731N
              7732B  8542D  8544M  8544   8545M  8546U  8555   8563   9127D  9129M  9129   9130M  9131U  9140   9146
              9709   9726M  9736   9758M  9772   9796M  9852M  9873   9899M 10016M 10156M 10172  10203M 10213  10233M
             10245  10417M 10484M 10484N 10485B 11547  11576M 11914D 11916M 11916  11917M 11918U 11932  11987M
     6(6)      959U  2799U  9709   9726M  9736   9758M  9772   9796M  9852M  9873   9899M 10016M 10156M 10172  10203M
             10213  10233M 10245  10417M 11203  11219M 11226M 11242  11258M 11277M 11287  11303M 11318M 11332  11348M
             11368M 11378  11394M 11405M 11418M 11428  11444M 11455M 11468M 11478  11494M 11513M 11543  11563M 11580M
             11592  11636M 11648  11664M 11781M 11798  11814M 11825M 11837  11853M 11864M 11932  11935M 11936B 11965M
             11972M 11987M
     7(7)      955U  2806M  2816U  4040M  4050U  4053U  5156M  5166U  5169U  6654M  6664U  6667U  7716M  7726U  7729U
              9709   9726M  9736   9758M  9772   9796M  9852M  9873   9899M 10016M 10156M 10172  10203M 10213  10233M
             10245  10417M 10469M 10479U 10482U 11203  11205M 11214U 11217U 11226M 11242  11244M 11253U 11256U 11277M
             11287  11289M 11298U 11301U 11318M 11332  11334M 11343U 11346U 11368M 11378  11380M 11389U 11392U 11405M
             11418M 11428  11430M 11439U 11442U 11455M 11468M 11478  11480M 11489U 11492U 11513M 11543  11549M 11558U
             11561U 11580M 11592  11594M 11603U 11606U 11636M 11648  11650M 11659U 11662U 11781M 11798  11800M 11809U
             11812U 11825M 11837  11839M 11848U 11851U 11864M 11906D 11908M 11908  11909M 11910U 11911M 11911N 11919B
             11932  11965M 11967  11972M 11974B 11987M
     8(8)      951U  9709   9726M  9736   9758M  9772   9796M  9852M  9873   9899M 10016M 10156M 10172  10203M 10213
             10233M 10245  10417M 11203  11226M 11378  11405M 11418M 11428  11455M 11468M 11547  11576M 11932  11933M
             11965M 11972M 11986  11987M
     9(9)      947U  2880M  2881M  2881B  2916M  2917M  2917B  3278M  3295M  3339M  3374M  3427M  3621M  3747M  3769M
              3770M  3770B  3984M  4632M  4727M  4781M  4986M  5116M  5123M  5258M  5277M  5308M  5415M  5475M  5476M
              5476B  5501M  5502M  5502B  5520M  5526M  5527M  5527B  6241M  6377M  7011M  7060M  7194M  7436M  7501M
              7561M  7569M  7573M  7583M  7615M  7645M  7685M  7781M  7782M  7782B  7827M  7828M  7828B  7857M  7879M
              7906M  7910M  7959M  7961M  8100M  8119M  8121M  8220M  8341M  8358M  8366M  8533M  8562M  8567M  8571M
              8583M  8594M  8716M  8720M  8724M  8759M  8767M  8888M  8892M  8915M  8926M  8932M  9053M  9055M  9079M
              9100M  9123M  9145M  9165M  9169M  9318M  9430M  9531M  9620M  9689M  9709   9726M  9728B  9736   9758M
              9760B  9772   9796M  9798B  9852M  9854B  9857M  9860M  9873   9899M  9900B  9958M  9959M  9959B  9986M
              9987M  9987B 10008M 10012M 10016M 10017B 10055M 10056M 10056B 10101M 10102M 10102B 10131M 10153M 10156M
             10157B 10172  10189M 10193M 10203M 10204B 10213  10233M 10234B 10245  10275M 10276M 10276B 10316M 10317M
             10317B 10417M 10418B 10508M 10531M 10665M 10668M 10672M 10681M 10684M 10692M 10693M 10693B 10708M 10815M
             10854M 10912M 10943M 10984M 10985M 10985B 10992M 10999M 11006M 11013M 11020M 11027M 11034M 11041M 11048M
             11055M 11062M 11069M 11076M 11083M 11087M 11094M 11101M 11108M 11203  11222M 11226M 11547  11572M 11573M
             11573B 11576M 11932  11941  11956M 11957M 11957B 11960M 11961B 11987M 11989  12008B 12028  12038M 12039M
             12039B 12042M 12043M 12043B 12053M 12113B 12122M 12156M 12159M 12166M 12173M 12180M 12186M 12192M 12208M
             12211M 12218M 12236M 12254M 12261M 12268M 12275M 12281M 12288M 12295M 12334M 12354M 12365M 12372M 12378M
             12385M 12389M 12396M 12403M 12407M 12414M 12418M 12425M 12432M 12439M 12446M 12450M 12463M 12470M 12485M
             12491M 12497M 12504M 12508M 12515M 12520M 12523M 12529M 12533M 12540M 12547M 12570M 12574M 12581M 12614M
             12617M 12633M 12640M 12647M 12653M 12658M 12663M 12668M 12672M 12679M 12717M 12722M 12727M 12748M 12752M
             12773M 12778M 12783M 12790M 12797  12820M 12821M 12821B 12824M 12825B
    10(A)      943U  2781U 11203  11226M 11547  11576M
    11(B)      939U 11203  11226M 11547  11576M
    12(C)      935U  2790U  2835M  2932M  2945   2962   5493  11203  11226M 11547  11576M
    13(D)      931U  4652   4653M  4653   4700   4701M  4701   4742   4743M  4743   4776M  4777   4816M  4820M  4844
              4845M  4845   4853M  4854   4885M  4886   9709   9710M  9710   9725M  9726   9736   9737M  9737   9757M
              9758   9772   9773M  9773   9795M  9796   9851M  9852   9873   9874M  9874   9898M  9899  10015M 10016
             10155M 10156  10172  10173M 10173  10202M 10203  10213  10214M 10214  10232M 10233  10245  10246M 10246
             10416M 10417  10908  10909M 10909  10914M 10915  11203  11203  11204M 11204  11225M 11226M 11226  11242
             11243M 11243  11276M 11277  11287  11288M 11288  11317M 11318  11332  11333M 11333  11350  11351M 11351
             11364M 11365  11367M 11368  11378  11379M 11379  11404M 11405  11417M 11418  11428  11429M 11429  11454M
             11455  11467M 11468  11478  11479M 11479  11512M 11513  11542  11543  11544M 11544  11546  11547  11547
             11548M 11548  11575M 11576M 11576  11579M 11580  11592  11593M 11593  11635M 11636  11648  11649M 11649
1         (VSUB00) (09:50) (22MAR04) General Purpose Register Cross Reference                                               Page  147
             11780M 11781  11798  11799M 11799  11824M 11825  11837  11838M 11838  11863M 11864  11932  11933  11934M
             11934  11941  11942M 11942  11959M 11960  11986M 11987  12006  12007M 12007  12028  12029M 12029  12052M
             12053  12109M 12110  12112M 12112  12797  12798M 12798  12823M 12824
    14(E)      927U  3043M  3043   3078M  3078   3079M  3172M  3172   3234M  3234   3341   3553M  3553   3916M  3916
              4085M  4086M  4086B  4649M  4650M  4650B  4672M  4673M  4673B  4686M  4687M  4687B  4716M  4717M  4717B
              4791M  4792M  4792B  4813M  4814M  4814B  5583M  5583   5603M  5716M  5745M  5745   5762M  5972M  6319M
              6319   6344D  6346M  6346   6347M  6348U  6469M  6518M  6567M  6567   6584M  6800M  6839M  7032M  7045
              7080M  7080   7233M  7246   7631M  7634M  7934U  8238M  8243   8244M  8564M  8674M  8675M  8675   8841M
              9007M  9008M  9008   9147M  9157   9257M  9304M  9305M  9305   9319M  9331M  9331N  9341   9380   9416M
              9417M  9417   9431M  9432M  9444M  9444N  9454   9463   9484   9517M  9518M  9518   9532M  9544M  9544N
              9554   9606M  9607M  9607   9621M  9622M  9628M  9628N  9638   9647   9685M  9686M  9686   9690M  9698M
              9700   9715M  9722M  9742M  9754M  9785M  9792M  9873   9899M 10016M 10156M 10172  10203M 10213  10233M
             10245  10354M 10417M 10424U 10751M 10752M 10752B 10770M 10771M 10771B 10950  10967M 10968M 10968B 11198B
             11203  11226M 11233B 11283B 11324B 11350  11357M 11362M 11365M 11375B 11412B 11425B 11462B 11475B 11520B
             11538B 11547  11576M 11587B 11643B 11788B 11832B 11871B 12006  12110M 12589M 12595M 12601M 12632
    15(F)      923U  2853M  2854M  2854   2913M  3035D  3037M  3037   3038M  3039U  3101D  3103M  3103   3104M  3105U
              3106M  3106   3163D  3165M  3165   3166M  3167U  3168M  3168   3225D  3227M  3227   3228M  3229U  3230M
              3230   3239N  3256N  3325   3548M  3549M  3549   3658M  3685   3691M  3692M  3692   3698M  3698   3911M
              3912M  3912   4082M  4646M  4669M  4683M  4713M  4788M  4810M  4828M  5369M  5448M  5449M  5449   5498M
              5584M  5633N  5647N  5709M  5719N  5731N  5767M  5803N  5847M  5847   5850M  5855M  5858M  5936M  5971M
              6007M  6277N  6315M  6315   6341M  6404N  6420N  6458D  6460M  6460   6461M  6462U  6510M  6511M  6511
              6541D  6543M  6543   6544M  6545U  6618N  6632N  6735M  6773M  6834M  6852N  6920M  6937M  7009M  7009
              7046N  7138   7150M  7247N  7277M  7278   7434M  7452M  7452   7585M  7585   7632M  7634M  7636   7655M
              7755M  7756M  7756   7786M  7786   7787   7824M  7854M  7902M  8030M  8047   8243M  8308   8439M  8461M
              8478   8563M  8667M  8834M  8855   8857   8859   8923M  8923   8999M  9000M  9000   9022   9024   9146M
              9157   9250M  9583   9714M  9714   9723M  9727M  9727   9741M  9741   9755M  9759M  9759   9777M  9777
              9793M  9797M  9797   9853M  9853   9873   9899M  9932M  9933M  9933   9963M  9963   9964   9983M 10009M
             10016M 10029M 10030M 10030  10060M 10060  10061  10098M 10128M 10156M 10172  10185M 10203M 10213  10233M
             10245  10249M 10250M 10250  10280M 10280  10281  10313M 10313  10323M 10417M 10435M 10436M 10436  10441M
             10748M 10767M 10908  10915M 10916M 10916N 10917N 10950M 11203  11226M 11547  11576M 11861  11967M 11968B
             11981M 11981  11988M 11988  12006  12110M 12312  12475M 12475N 12476N 12588M 12594M 12600M 12626

1VSUB     (VSUB00) (09:50) (22MAR04) Diagnostic Cross Reference and Assembler Summary                                       Page  148
-                                                                                            HLASM R4.0  2004/03/22 09.50
0     No Statements Flagged in this Assembly
 HIGH LEVEL ASSEMBLER, 5696-234, RELEASE 4.0, PTF UQ57391
0SYSTEM: OS/390 02.10.00            JOBNAME: PJG#VSUB    STEPNAME: ASM        PROCSTEP: (NOPROC)
0Datasets Allocated for this Assembly
  Con DDname   Dataset Name                                 Volume  Member
   P1 SYSIN    SYS04082.T095006.RA000.PJG#VSUB.INPUT.H01    SCR100
   L1 SYSLIB   SYS3.DUMMYMAC                                SYSB02
   L2          WYL.GG.SYS.MACLIB                            SYSB05
   L3          WYL.GG.ORV.BC.MACLIB                         SYSB02
   L4          WYL.GG.ORV.MACLIB                            SYSB02
   L5          SYS3.ORVYL.UMACLIB                           SYSB02
   L6          SYS3.IS.MACLIB                               SYSB05
      SYSLIN   WYL.GG.PJG.OBJ                               SYSB05  VSUB
      SYSPRINT SYS04082.T095006.RA000.PJG#VSUB.PRINT.H01    SCR101
      SYSTERM  GG$PJG.PJG#VSUB.JOB06011.D0000103.?

    7812K allocated to Buffer Pool,         1821K would be required for this to be an In-Storage Assembly
    2687 Primary Input Records Read         4723 Library Records Read                  0 Work File Reads
       0 ASMAOPT Records Read               9005 Primary Print Records Written         0 Work File Writes
     273 Punch Records Written                 0 ADATA Records Written
0Assembly Start Time: 09.50.09 Stop Time: 09.50.16 Processor Time: 00.00.02.7435
 Return Code 000
