1                        J E S 2  J O B  L O G  --  S Y S T E M  S Y S B  --  N O D E  R L G
0
 09.44.10 JOB05961 ---- MONDAY,    22 MAR 2004 ----
 09.44.10 JOB05961  ICH70001I GG$PJG   LAST ACCESS AT 09:44:01 ON MONDAY, MARCH 22, 2004
 09.44.10 JOB05961  $HASP373 PJG#SRES STARTED - INIT 2    - CLASS E - SYS SYSB
 09.44.10 JOB05961  ***  HCMD      STEP $$QUIET
 09.44.10 JOB05961  PURGE * Q=OUTPUT MULTIPLE
 09.44.10 JOB05961  JOB PJG#SRES NOT IN OUTPUT QUEUE
 09.44.11 JOB05961  PJG#SRES.$$QUIET .         RC=0008 TapeIO=0000 DiskIO=0000 CPU=  .01s Elapsed=50.67s
 09.44.12 JOB05961  PJG#SRES.$CND    .         RC=Zero TapeIO=0000 DiskIO=0002 CPU=  .01s Elapsed=51.78s
 09.44.12 JOB05961  PJG#SRES.$UNP    .         RC=Zero TapeIO=0000 DiskIO=0023 CPU=  .05s Elapsed=52.37s
 09.44.22 JOB05961  PJG#SRES.ASM     .         RC=Zero TapeIO=0000 DiskIO=0509 CPU= 2.23s Elapsed=52.72s
 09.44.24 JOB05961  PJG#SRES.$EDIT   .         RC=Zero TapeIO=0000 DiskIO=0109 CPU=  .44s Elapsed=62.52s
 09.44.24 JOB05961  PJG#SRES Ended.  Name=Module: SRES                   Total CPU= 2.74s Elapsed=50.67s
 09.44.24 JOB05961
 09.44.24 JOB05961  Execution charges   Priority=Standard   Block=Day
 09.44.24 JOB05961
 09.44.24 JOB05961  CPU Usage          49.87          $30.91   Standard Processing Unit Equivalent
 09.44.24 JOB05961                                   =======
 09.44.24 JOB05961                                    $30.91   Total Job execution charge
 09.44.24 JOB05961
 09.44.24 JOB05961  See back separator page for print charges
 09.44.24 JOB05961
 09.44.24 JOB05961  $HASP395 PJG#SRES ENDED  ASM=0
1        1 //PJG#SRES JOB PJG$GG,'Module: SRES',TIME=1,MSGCLASS=C                  JOB05961
           /*JOBPARM HOLD=OUTPUT,LINES=50,CHARS=TN15,NOTIFY=YES
         2 //       EXEC PURGEOLD
         3 XXPURGEOLD PROC
           XX*
           XX* This proc is maintained by Jim Stosick
           XX*
         4 XX$$QUIET  EXEC PGM=HCMDX,PARM='PURGE * Q=OUTPUT MULTIPLE',
           XX         ACCT=(PURGEOLD,SYS3)
         5 //$CND   EXEC PGM=BILBO,REGION=512K,PARM='RECS=100'
         6 //STEPLIB  DD DSN=WYL.GG.ORV.LINKLIB,DISP=SHR
         7 //SYSPRINT DD SYSOUT=$
         8 //SYSUT1   DD DSN=WYL.GG.PJG.OBJ,DISP=OLD
         9 //SYSUT2   DD DSN=WYL.GG.PJG.OBJ,DISP=OLD
        10 //SYSIN    DD DUMMY
        11 //$UNP   EXEC PGM=WUNPRESS,PARM='NUM'
        12 //SYSPRINT DD SYSOUT=$
        13 //SYSUT1   DD DSN=WYL.GG.ORV.SOURCE.FILEUTIL(SRES),DISP=SHR
        14 //SYSUT2   DD DSN=&&INPUT,DISP=(,PASS),UNIT=SYSDA,
           //            SPACE=(TRK,(25,25),RLSE),DCB=CARD
        15 //ASM    EXEC PGM=ASMA90,REGION=8M,COND=(0,NE,$UNP),
           //            PARM=('SYSPARM(SRES),TERM,LANG(EN),OBJ',
           //          'LC(32500),XREF(SHORT),NODECK,NORLD,NODX,NOUS')
           //*STEPLIB  DD DSN=SYS1.SASMMOD1,DISP=SHR
        16 //SYSLIB   DD DSN=SYS3.DUMMYMAC,DISP=SHR,DCB=BLKSIZE=27920
        17 //         DD DSN=WYL.GG.SYS.MACLIB,DISP=SHR
        18 //         DD DSN=WYL.GG.ORV.BC.MACLIB,DISP=SHR
        19 //         DD DSN=WYL.GG.ORV.MACLIB,DISP=SHR
        20 //         DD DSN=SYS3.ORVYL.UMACLIB,DISP=SHR
        21 //         DD DSN=SYS3.IS.MACLIB,DISP=SHR
        22 //         DD DSN=SYS3.MACLIB,DISP=SHR
        23 //         DD DSN=SYS1.MACLIB,DISP=SHR
        24 //SYSUT1   DD DSN=&&SYSUT1,UNIT=VIO,DISP=(,DELETE),
           //            SPACE=(4088,(500,250),,CONTIG,ROUND)
        25 //SYSTERM  DD SYSOUT=$
        26 //SYSPRINT DD DSN=&&PRINT,UNIT=SYSDA,DISP=(,PASS),
           //            SPACE=(6650,(250,250),RLSE),
           //            DCB=(BLKSIZE=6650,LRECL=133,RECFM=FB)
        27 //SYSLIN   DD DSN=WYL.GG.PJG.OBJ(SRES),DISP=OLD
        28 //SYSUDUMP DD SYSOUT=A
        29 //SYSIN    DD DSN=&&INPUT,DISP=(OLD,DELETE)
        30 //$EDIT  EXEC PGM=ASMEDIT,REGION=1M,
           //            COND=EVEN,PARM='STMT,DATA'
        31 //STEPLIB  DD DSN=WYL.GG.SYS.LINKLIB,DISP=SHR
        32 //ASMOUT   DD DSN=&&PRINT,DISP=(OLD,DELETE)
        33 //SYSPRINT DD SYSOUT=A
        34 //SYSUDUMP DD SYSOUT=A
1 STMT NO. MESSAGE
         2 IEFC001I PROCEDURE PURGEOLD WAS EXPANDED USING SYSTEM LIBRARY SYS3.BETAPROC
        14 IGD01010I STORCLAS= TEMP STORGROUP =
        14 IGD01010I STORGRP=VIO ASSIGNED.
        24 IGD01010I STORCLAS= TEMP STORGROUP =
        24 IGD01010I STORGRP=VIO ASSIGNED.
        26 IGD01010I STORCLAS= TEMP STORGROUP =
        26 IGD01010I STORGRP=VIO ASSIGNED.
 ICH70001I GG$PJG   LAST ACCESS AT 09:44:01 ON MONDAY, MARCH 22, 2004
 IEF142I PJG#SRES $$QUIET - STEP WAS EXECUTED - COND CODE 0008
 *********************************************************************************
 *   PJG#SRES/$$QUIET /                    Return Code      0008                 *
 *   Region used      268K (16K user + 252K system)                              *
 *   Extended region  9352K (4K user + 9348K system)                             *
 *                                                                               *
 *   Paging              In      Out                                             *
 *   Private <-> Aux      0        0       CPU time (TCB)   00:00:00.01          *
 *   Private <-> Exp      0        0       CPU time (SRB)   00:00:00.00          *
 *   VIO                  0        0       Elapsed time    920:43:42.29          *
 *   Common               0      ---                                             *
 *                                                                               *
 *                                                                               *
 *   CPU Usage          0.18         $0.11  Standard Processing Unit Equivalent  *
 *                                   $0.11  Total Step execution charge          *
 *                                                                               *
 *    I/O count  DDname   Type Addr           I/O count  DDname   Type Addr      *
 *                         *** No I/O for this step ***                          *
 *********************************************************************************
 IEF373I STEP/$$QUIET /START 2004082.0944
 IEF374I STEP/$$QUIET /STOP  2004082.0944 CPU    0MIN 00.01SEC SRB    0MIN 00.00SEC VIRT    16K SYS   252K EXT       4K SYS    9348K
 IEF236I ALLOC. FOR PJG#SRES $CND
 IEF237I 0401 ALLOCATED TO STEPLIB
 IEF237I JES2 ALLOCATED TO SYSPRINT
 IEF237I 04DC ALLOCATED TO SYSUT1
 IEF237I 04DC ALLOCATED TO SYSUT2
 IEF237I DMY  ALLOCATED TO SYSIN
 IEF142I PJG#SRES $CND - STEP WAS EXECUTED - COND CODE 0000
 IEF285I   WYL.GG.ORV.LINKLIB                           KEPT
 IEF285I   VOL SER NOS= SYSB01.
 IEF285I   GG$PJG.PJG#SRES.JOB05961.D0000101.?          SYSOUT
 IEF285I   WYL.GG.PJG.OBJ                               KEPT
 IEF285I   VOL SER NOS= SYSB05.
 IEF285I   WYL.GG.PJG.OBJ                               KEPT
 IEF285I   VOL SER NOS= SYSB05.
 *********************************************************************************
 *   PJG#SRES/$CND    /                    Return Code      Zero                 *
 *   Region used      288K (16K user + 272K system)                              *
 *   Extended region  9392K (4K user + 9388K system)                             *
 *                                                                               *
 *   Paging              In      Out                                             *
 *   Private <-> Aux      0        0       CPU time (TCB)   00:00:00.01          *
 *   Private <-> Exp      0        0       CPU time (SRB)   00:00:00.00          *
 *   VIO                  0        0       Elapsed time    920:43:41.18          *
 *   Common               0      ---                                             *
 *                                                                               *
 *                                                                               *
 *   CPU Usage          0.18         $0.11  Standard Processing Unit Equivalent  *
 *                                   $0.11  Total Step execution charge          *
 *                                                                               *
 *    I/O count  DDname   Type Addr           I/O count  DDname   Type Addr      *
 *            2  STEPLIB  Disk 0401                   0  SYSPRINT      ----      *
 *            0  SYSUT1   Disk 04DC                   0  SYSUT2   Disk 04DC      *
 *            0  SYSIN         ----                                              *
 *********************************************************************************
 IEF373I STEP/$CND    /START 2004082.0944
 IEF374I STEP/$CND    /STOP  2004082.0944 CPU    0MIN 00.01SEC SRB    0MIN 00.00SEC VIRT    16K SYS   272K EXT       4K SYS    9388K
 IEF236I ALLOC. FOR PJG#SRES $UNP
 IEF237I JES2 ALLOCATED TO SYSPRINT
 IEF237I 0402 ALLOCATED TO SYSUT1
 IGD101I SMS ALLOCATED TO DDNAME (SYSUT2  )
         DSN (SYS04082.T094410.RA000.PJG#SRES.INPUT.H01   )
         STORCLAS (TEMP) MGMTCLAS (        ) DATACLAS (        )
         VOL SER NOS= SCR101
 IEF142I PJG#SRES $UNP - STEP WAS EXECUTED - COND CODE 0000
 IEF285I   GG$PJG.PJG#SRES.JOB05961.D0000102.?          SYSOUT
 IEF285I   WYL.GG.ORV.SOURCE.FILEUTIL                   KEPT
 IEF285I   VOL SER NOS= SYSB02.
 IGD106I SYS04082.T094410.RA000.PJG#SRES.INPUT.H01    PASSED,    DDNAME=SYSUT2
 *********************************************************************************
 *   PJG#SRES/$UNP    /                    Return Code      Zero                 *
 *   Region used      388K (108K user + 280K system)                             *
 *   Extended region  9468K (4K user + 9464K system)                             *
 *                                                                               *
 *   Paging              In      Out                                             *
 *   Private <-> Aux      0        0       CPU time (TCB)   00:00:00.05          *
 *   Private <-> Exp      0        0       CPU time (SRB)   00:00:00.00          *
 *   VIO                  0        0       Elapsed time    920:43:40.59          *
 *   Common               0      ---                                             *
 *                                                                               *
 *                                                                               *
 *   CPU Usage          0.93         $0.57  Standard Processing Unit Equivalent  *
 *                                   $0.57  Total Step execution charge          *
 *                                                                               *
 *    I/O count  DDname   Type Addr           I/O count  DDname   Type Addr      *
 *            0  SYSPRINT      ----                   3  SYSUT1   Disk 0402      *
 *           20  SYSUT2   Disk 04E3                                              *
 *********************************************************************************
 IEF373I STEP/$UNP    /START 2004082.0944
 IEF374I STEP/$UNP    /STOP  2004082.0944 CPU    0MIN 00.05SEC SRB    0MIN 00.00SEC VIRT   108K SYS   280K EXT       4K SYS    9464K
 IEF236I ALLOC. FOR PJG#SRES ASM
 IEF237I 0402 ALLOCATED TO SYSLIB
 IEF237I 04DC ALLOCATED TO
 IEF237I 0402 ALLOCATED TO
 IEF237I 0402 ALLOCATED TO
 IEF237I 0402 ALLOCATED TO
 IEF237I 04DC ALLOCATED TO
 IEF237I 0402 ALLOCATED TO
 IEF237I 04A0 ALLOCATED TO
 IGD101I SMS ALLOCATED TO DDNAME (SYSUT1  )
         DSN (SYS04082.T094410.RA000.PJG#SRES.SYSUT1.H01  )
         STORCLAS (TEMP) MGMTCLAS (        ) DATACLAS (        )
         VOL SER NOS= VIO
 IEF237I JES2 ALLOCATED TO SYSTERM
 IGD101I SMS ALLOCATED TO DDNAME (SYSPRINT)
         DSN (SYS04082.T094410.RA000.PJG#SRES.PRINT.H01   )
         STORCLAS (TEMP) MGMTCLAS (        ) DATACLAS (        )
         VOL SER NOS= SCR100
 IEF237I 04DC ALLOCATED TO SYSLIN
 IEF237I JES2 ALLOCATED TO SYSUDUMP
 IGD103I SMS ALLOCATED TO DDNAME SYSIN
 IEF142I PJG#SRES ASM - STEP WAS EXECUTED - COND CODE 0000
 IEF285I   SYS3.DUMMYMAC                                KEPT
 IEF285I   VOL SER NOS= SYSB02.
 IEF285I   WYL.GG.SYS.MACLIB                            KEPT
 IEF285I   VOL SER NOS= SYSB05.
 IEF285I   WYL.GG.ORV.BC.MACLIB                         KEPT
 IEF285I   VOL SER NOS= SYSB02.
 IEF285I   WYL.GG.ORV.MACLIB                            KEPT
 IEF285I   VOL SER NOS= SYSB02.
 IEF285I   SYS3.ORVYL.UMACLIB                           KEPT
 IEF285I   VOL SER NOS= SYSB02.
 IEF285I   SYS3.IS.MACLIB                               KEPT
 IEF285I   VOL SER NOS= SYSB05.
 IEF285I   SYS3.MACLIB                                  KEPT
 IEF285I   VOL SER NOS= SYSB02.
 IEF285I   SYS1.MACLIB                                  KEPT
 IEF285I   VOL SER NOS= MVSBR9.
 IGD105I SYS04082.T094410.RA000.PJG#SRES.SYSUT1.H01   DELETED,   DDNAME=SYSUT1
 IEF285I   GG$PJG.PJG#SRES.JOB05961.D0000103.?          SYSOUT
 IGD106I SYS04082.T094410.RA000.PJG#SRES.PRINT.H01    PASSED,    DDNAME=SYSPRINT
 IEF285I   WYL.GG.PJG.OBJ                               KEPT
 IEF285I   VOL SER NOS= SYSB05.
 IEF285I   GG$PJG.PJG#SRES.JOB05961.D0000104.?          SYSOUT
 IGD105I SYS04082.T094410.RA000.PJG#SRES.INPUT.H01    DELETED,   DDNAME=SYSIN
 *********************************************************************************
 *   PJG#SRES/ASM     /                    Return Code      Zero                 *
 *   Region used      8484K (8192K user + 292K system)                           *
 *   Extended region  9952K (412K user + 9540K system)                           *
 *                                                                               *
 *   Paging              In      Out                                             *
 *   Private <-> Aux      0        0       CPU time (TCB)   00:00:02.16          *
 *   Private <-> Exp      0        0       CPU time (SRB)   00:00:00.07          *
 *   VIO                  0        0       Elapsed time    920:43:40.24          *
 *   Common               0      ---                                             *
 *                                                                               *
 *                                                                               *
 *   CPU Usage         40.50        $25.11  Standard Processing Unit Equivalent  *
 *                                  $25.11  Total Step execution charge          *
 *                                                                               *
 *    I/O count  DDname   Type Addr           I/O count  DDname   Type Addr      *
 *           57  SYSLIB   Disk 0402                 140  SYSLIB   Disk 04DC      *
 *            0  SYSLIB   Disk 0402                   0  SYSLIB   Disk 0402      *
 *            0  SYSLIB   Disk 0402                   0  SYSLIB   Disk 04DC      *
 *            0  SYSLIB   Disk 0402                 177  SYSLIB   Disk 04A0      *
 *            0  SYSUT1   VIO  ----                   0  SYSTERM       ----      *
 *          106  SYSPRINT Disk 038B                   8  SYSLIN   Disk 04DC      *
 *            0  SYSUDUMP      ----                  21  SYSIN    Disk 04E3      *
 *********************************************************************************
 IEF373I STEP/ASM     /START 2004082.0944
 IEF374I STEP/ASM     /STOP  2004082.0944 CPU    0MIN 02.16SEC SRB    0MIN 00.07SEC VIRT  8192K SYS   292K EXT     412K SYS    9540K
 IEF236I ALLOC. FOR PJG#SRES $EDIT
 IEF237I 0402 ALLOCATED TO STEPLIB
 IGD103I SMS ALLOCATED TO DDNAME ASMOUT
 IEF237I JES2 ALLOCATED TO SYSPRINT
 IEF237I JES2 ALLOCATED TO SYSUDUMP
 IEF142I PJG#SRES $EDIT - STEP WAS EXECUTED - COND CODE 0000
 IEF285I   WYL.GG.SYS.LINKLIB                           KEPT
 IEF285I   VOL SER NOS= SYSB02.
 IGD105I SYS04082.T094410.RA000.PJG#SRES.PRINT.H01    DELETED,   DDNAME=ASMOUT
 IEF285I   GG$PJG.PJG#SRES.JOB05961.D0000105.?          SYSOUT
 IEF285I   GG$PJG.PJG#SRES.JOB05961.D0000106.?          SYSOUT
 *********************************************************************************
 *   PJG#SRES/$EDIT   /                    Return Code      Zero                 *
 *   Region used      388K (116K user + 272K system)                             *
 *   Extended region  9468K (4K user + 9464K system)                             *
 *                                                                               *
 *   Paging              In      Out                                             *
 *   Private <-> Aux      0        0       CPU time (TCB)   00:00:00.43          *
 *   Private <-> Exp      0        0       CPU time (SRB)   00:00:00.01          *
 *   VIO                  0        0       Elapsed time    920:43:30.44          *
 *   Common               0      ---                                             *
 *                                                                               *
 *                                                                               *
 *   CPU Usage          8.06         $4.99  Standard Processing Unit Equivalent  *
 *                                   $4.99  Total Step execution charge          *
 *                                                                               *
 *    I/O count  DDname   Type Addr           I/O count  DDname   Type Addr      *
 *            2  STEPLIB  Disk 0402                 107  ASMOUT   Disk 038B      *
 *            0  SYSPRINT      ----                   0  SYSUDUMP      ----      *
 *********************************************************************************
 IEF373I STEP/$EDIT   /START 2004082.0944
 IEF374I STEP/$EDIT   /STOP  2004082.0944 CPU    0MIN 00.43SEC SRB    0MIN 00.01SEC VIRT   116K SYS   272K EXT       4K SYS    9464K
 *********************************************************************************
 *                                                                               *
 *                      S t a n f o r d   U n i v e r s i t y                    *
 *                                                                               *
 *                              *** Job Summary ***                              *
 *                                                                               *
 *   System Id      SYSB                   Input time     09:38:27  Mar 22, 2004 *
 *                                                                               *
 *   System Release SP6.1.0                Start time     09:44:10  Mar 22, 2004 *
 *                                                                               *
 *   Job name       PJG#SRES               Stop  time     00:00:00  Mar 22, 2004 *
 *                                                                               *
 *   Account        PJG$GG                 Elapsed time  920:43:42.29            *
 *                                                                               *
 *   User Name      Module: SRES           CPU time       00:00:02.66            *
 *                                                                               *
 *   Job class      E                      SRB Time       00:00:00.08            *
 *                                                                               *
 *********************************************************************************
 IEF375I  JOB/PJG#SRES/START 2004082.0944
 IEF376I  JOB/PJG#SRES/STOP  2004082.0944 CPU    0MIN 02.66SEC SRB    0MIN 00.08SEC
1Data set successfully converted from EDIT to FB format
1Assembler Done SRES No Statements Flagged
1         High Level Assembler Option Summary                   (PTF UQ57391)                                               Page    1
-                                                                                            HLASM R4.0  2004/03/22 09.44
0  No Overriding ASMAOPT Parameters
   Overriding Parameters-  SYSPARM(SRES),TERM,LANG(EN),OBJ,LC(32500),XREF(SHORT),NODECK,NORLD,NODX,NOUS
   No Process Statements


   Options for this Assembly
0  NOADATA
     ALIGN
   NOASA
     BATCH
     CODEPAGE(047C)
   NOCOMPAT
   NODBCS
 3 NODECK
 3 NODXREF
     ESD
   NOEXIT
     FLAG(0,ALIGN,CONT,NOIMPLEN,NOPAGE0,PUSH,RECORD,NOSUBSTR,USING0)
   NOFOLD
   NOGOFF
   NOINFO
 3   LANGUAGE(EN)
   NOLIBMAC
 3   LINECOUNT(32500)
     LIST(121)
     MXREF(SOURCE)
 3   OBJECT
     OPTABLE(UNI,NOLIST)
   NOPCONTROL
   NOPESTOP
   NOPROFILE
   NORA2
   NORENT
 3 NORLD
     RXREF
     SIZE(MAX)
 3   SYSPARM(SRES)
 3   TERM(WIDE)
   NOTEST
     THREAD
   NOTRANSLATE
 3 NOUSING
 3   XREF(SHORT)

   No Overriding DD Names

1SRES     External Symbol Dictionary                                                                                        Page    2
-Symbol   Type   Id     Address  Length     LD ID  Flags Alias-of                            HLASM R4.0  2004/03/22 09.44
0SRES      SD 00000001 00000000 000037F8             00
 BUILDTBL  LD          000001F2           00000001
 VSEG      ER 00000002
 VWRITE    ER 00000003
 SCINIT    ER 00000004
 SCAN      ER 00000005
 BUILDTBL  ER 00000006
 ATTFILES  ER 00000007
 GETBLOCK  ER 00000008
 PUTBLOCK  ER 00000009
 PSTATUS   ER 0000000A
 DETFILES  ER 0000000B
 VAM       ER 0000000C
 VCNTRL    ER 0000000D
 GETCMD    ER 0000000E
 FILESORT  ER 0000000F
 DOIXRS    ER 00000010
 SPACECHK  ER 00000011
 MOVEFILE  ER 00000012
 DUPCHECK  ER 00000013
 BTD       ER 00000014
 SCTELL    ER 00000015
 DUPCHECK  LD          000007D4           00000001
 SPACECHK  LD          00000818           00000001
 GETUSRSP  LD          0000094A           00000001
 FILSPACE  LD          000009DE           00000001
 MOVEFILE  LD          00000B14           00000001
 GETUSRSP  ER 00000016
 FILSPACE  ER 00000017
 FILESORT  LD          00000BEA           00000001
 DOIXRS    LD          00000C66           00000001
 SORT      ER 00000018
 SORT      LD          000018C8           00000001
 ATTFILES  LD          0000195C           00000001
 GETBLOCK  LD          000023D4           00000001
 FINDNEXT  ER 00000019
 BTDC      ER 0000001A
 FINDNEXT  LD          00002850           00000001
 PUTBLOCK  LD          000029AC           00000001
 PSTATUS   LD          00002AF0           00000001
 ERROR     LD          00002C0E           00000001
 DETFILES  LD          000036CC           00000001
 ERROR     ER 0000001B

1SRES     ORVYL File System Selective Restore                                                                               Page    3
0Loc    Object Code    Addr1 Addr2  Stmt Lv Lineno    Source Statement                    (Asmedit 3.3)  HLASM R4.0  2004/03/22 09.44
+___    ______ ____    _____ _____  ____ __ ______    ______ _________
0                                      2       2.     ******************************************************************
                                       3       3.     *                                                                *
                                       4       4.     *      ORVYL/370  RELEASE III - CLASS I - STANFORD PROPRIETARY   *
                                       5       5.     *                                                                *
                                       6       6.     ******************************************************************
-                                      8       8.              HIBAL ,
-                                    990      10.     ******************************************************************
                                     991      11.     *  Usage:                                                        *
                                     992      12.     *                                                                *
                                     993      13.     *     <filename> := [ORV.gg.uuu. | [&uuu.] [&gg.] ] name         *
                                     994      14.     *                                                                *
                                     995      15.     *   RES <filename> [ TO <filename> ] [REP] [IXR | NONIXR]        *
                                     996      16.     *                                                                *
                                     997      17.     ******************************************************************
-                                    999      19.     *  MODIFICATIONS
                                    1000      20.     *
                                    1001      21.     *  DDF - 09/10/01            Modifications for new hybrid file
                                    1002      22.     *                            type. Hybrid to hybrid only supported.
                                    1003      23.     *  JKR - 03/18/85            Fix (enable) non-ixr mode restores
                                    1004      24.     *                            from ixr/non-ixr files.
-                                   1006      26.   C          REGS  ,,(SR,CTR1),(TR,CTR2),QR,RR,PR,BR,,(RAR,LINK1),TBLPTR,
                                              27.                    WAREG,BASE
1SRES     ORVYL File System Selective Restore                                                                               Page    4
0D-Loc  Object Code    Addr1 Addr2  Stmt Lv Lineno    Source Statement           (Hibal 5, Asmedit 3.3)  HLASM R4.0  2004/03/22 09.44
+_____  ______ ____    _____ _____  ____ __ ______    ______ _________
0000000                00000 037F8  1180      29.     SRES     CSECT ,
-                                   1185      31.              COPY  ORVDEFN
                                    1186             =         SYSDEFN  ,
                                    1187             =         GBLB  &PROTECT
                                    1188             =         GBLC  &MODULE
                                    1189      32.     &MODULE  SETC  'SRES'
1SRES     MACROS                                                                                                            Page    5
0Loc    Object Code    Addr1 Addr2  Stmt Lv Lineno    Source Statement           (Hibal 5, Asmedit 3.3)  HLASM R4.0  2004/03/22 09.44
+___    ______ ____    _____ _____  ____ __ ______    ______ _________
0                                   1192      35.              MACRO
                                    1193      36.     &LABEL   GETCBAD  &REG
                                    1194      37.     .*
                                    1195      38.     .*  THIS MACRO PUTS THE TCB ADDRESS IN REG &REG
                                    1196      39.     .*
                                    1197      40.     &LABEL   L     &REG,16
                                    1198      41.              L     &REG,0(,&REG)
                                    1199      42.              L     &REG,4(,&REG)
                                    1200      43.              MEND
0                                   1202      45.              MACRO
                                    1203      46.     &LABEL   COUNT &REG,&AMT
                                    1204      47.     .*
                                    1205      48.     .*  THIS MACRO INCREMENTS REGISTER &REG BY &AMT
                                    1206      49.     .*
                                    1207      50.              AIF   ('&AMT' EQ '').AMTERR
                                    1208      51.     &LABEL   LA    &REG,&AMT.(,&REG)
                                    1209      52.              MEXIT
                                    1210      53.     .AMTERR  ANOP
                                    1211      54.              MNOTE 4,'AMOUNT NOT SPECIFEID'
                                    1212      55.              MEND
0                                   1214      57.              MACRO
                                    1215      58.     &LABEL   SETFILEN   &LOC,&LEN,&TARGET
                                    1216      59.     .*
                                    1217      60.     .*  THIS MACRO MOVES THE FILENAME AT &LOC
                                    1218      61.     .* TO &TARGET, AND FORMATS IT INTO THE
                                    1219      62.     .* FORM 'ORV.GG.UUU.FILENAME'
                                    1220      63.     .*
                                    1221      64.     &LABEL   SYSLR 1,&LOC
                                    1222      65.              SYSLR 0,&LEN
                                    1223      66.              LA    15,&TARGET
                                    1224      67.              XCALL MOVEFILE
                                    1225      68.              MEND
0                                   1227      70.              MACRO
                                    1228      71.     &LABEL   GETCMD  &DUMMY
                                    1229      72.     &LABEL   VCALL   GETCMD
                                    1230      73.              MEND
0                                   1232      75.              MACRO
                                    1233      76.     &LABEL   SETRC &REG,&RCLOC,&ID
                                    1234      77.     &LABEL   STH   &REG,&RCLOC+2       SAVE ACTUAL RETURN CODE
                                    1235      78.              MVI   &RCLOC+1,&ID        MOVE IN ROUTINE ID AS PART OF
                                    1236      79.              MVI   &RCLOC,0               THE RETURN CODE
                                    1237      80.              MEND
0                                   1239      82.              MACRO
                                    1240      83.     &LABEL   ERROR &CODE
                                    1241      84.              SYSLR 15,&CODE            GET ERROR CODE
                                    1242      85.              L     15,0(,15)            INTO REGISTER 15
                                    1243      86.              XCALL ERROR               CALL ERROR HANDLER
                                    1244      87.              MEND
1SRES     PARM TABLE ENTRY DESCRIPTION                                                                                      Page    6
0Loc    Object Code    Addr1 Addr2  Stmt Lv Lineno    Source Statement           (Hibal 5, Asmedit 3.3)  HLASM R4.0  2004/03/22 09.44
+___    ______ ____    _____ _____  ____ __ ______    ______ _________
0000000                00000 000A8  1247      90.     SFRTABLE RECORD BEGIN
 000000                             1255  1   91.     SENTRY     DS    AL1                 File Device ID number
 000001 00                          1256  1   92.     SFLAG      FLAG  ,                   FIRST OPTION BYTE
 SFLAG.REPLACE     80 ONES          1260  1   93.                FLAG  REPLACE             Replace was specified
 SFLAG.OUTNIXR     40 ONES          1265  1   94.                FLAG  OUTNIXR             Output a Non-IXR File
 SFLAG.OUTIXR      20 ONES          1270  1   95.                FLAG  OUTIXR              Output an IXR'd file
 SFLAG.INNIXR      10 ONES          1275  1   96.                FLAG  INNIXR              Input was a NON-IXR file
 SFLAG.INHYBR      08 ONES          1280  1   97.                FLAG  INHYBR              Input was a hybrid file
 SFLAG.DONOTDO     04 ONES          1285  1   98.                FLAG  DONOTDO             Operations stopped
 SFLAG.ATTACH      02 ONES          1290  1   99.                FLAG  ATTACH              This file has been ATTACHED
 SFLAG.NIXRSZ      01 ONES          1295  1  100.                FLAG  NIXRSZ              Use NON-IXR overide allocation
                                    1300  1  101.
 000002 0000                              1
 000004 00000000                    1301  1  102.     SBNIXRSZ   DC    A(0)                    NON-IXR ALLOCATION SIZE
 000008                             1302  1  103.     SBORVID    DS    F                       Orvyl device ID
 00000C                             1303  1  104.     SBRETCOD   DS    F                       Return code this file
 000010                             1304  1  105.     SNAME      DS    CL44                    User's current file name
 00003C                             1305  1  106.     SRENAME    DS    CL44                    File's new name
 000068                             1306  1  107.     SNAMEL     DS    F                       Length of name field
 00006C                             1307  1  108.     SRENAMEL   DS    F                       Length of rename field
 000070                             1308  1  109.     SNUMSIXR   DS    F                       Number of SIXR's found
 000074                             1309  1  110.     SNUMMIXR   DS    F                       Number of mixr's found
 000078                             1310  1  111.     SNUMHYBR   DS    F                       Number of hybrid IXR's found
 00007C                             1311  1  112.     SUSERREC   DS    F                       # user records in file
 000080                             1312  1  113.     SUSERFMT   DS    F                       User format
 000084                             1313  1  114.     SUSRBLK    DS    F                       Current user block number
 000088                             1314  1  115.     SMINIXR    DS    F                       Minixr record count
 00008C                             1315  1  116.     SBCOUNT    DS    F                       Block count this file so far
 000090                             1316  1  117.     SHIGH      DS    F                       High record
 000094                             1317  1  118.     SLOW       DS    F                       Low record
 000098                             1318  1  119.     SNUM       DS    H                       # IXRS (from SIXR)
 00009A                             1319  1  120.     SFIRST     DS    H                       First ixr (from SIXR)
 00009C                             1320  1  121.     SLAST      DS    H                       Last ixr (from SIXR)
 00009E                             1321  1  122.     SPUBPRIV   DS    X                       Public privs
 00009F                             1322  1  123.     SOWNPRIV   DS    X                       Owner privs
 0000A0 40404040404040              1323  1  124.     SF_PRIVS   DC    CL7' '              Return area for 1 permit entry
 0000A8                             1324  1  125.     SFRNEXT    DS    0A                  Address of next SFRPARM block
 0000A8                000A8 000A8  1325     126.              END   ,
1SRES     MINIREC DESCRIPTION                                                                                               Page    7
0Loc    Object Code    Addr1 Addr2  Stmt Lv Lineno    Source Statement           (Hibal 5, Asmedit 3.3)  HLASM R4.0  2004/03/22 09.44
+___    ______ ____    _____ _____  ____ __ ______    ______ _________
0000000                00000 0000C  1335     128.     SFRMINI  RECORD BEGIN
                                    1343  1  129.     *
                                    1344  1  130.     *  MINIXR FORMAT FOR SELECTIVE FILE RESTORE
                                    1345  1  131.     *
 000000                             1346  1  132.     MINSTART   DS    0F
 000000                             1347  1  133.     MORVYL     DS    F                   ORVYL FILE (ALSO DUMP) RECORD #
 000004                             1348  1  134.     MUSER      DS    F                   USER FILE RECORD #
 000008                             1349  1  135.     MENTRY     DS    F                   ADDRESS OF FILE TABLE ENTRY
                                    1350  1  136.     MINILEN    EQU   *-MINSTART
 00000C                0000C 0000C  1351     137.              END   ,
1SRES     File Privelege Codes                                                                                              Page    8
0Loc    Object Code    Addr1 Addr2  Stmt Lv Lineno    Source Statement           (Hibal 5, Asmedit 3.3)  HLASM R4.0  2004/03/22 09.44
+___    ______ ____    _____ _____  ____ __ ______    ______ _________
0                                   1361     139.              COPY  FPC
                                    1362             =*
                                    1363             =*  FILE SYSTEM PRIVILEGE FLAG CODES
                                    1364             =*
                                    1365             =FPMIXR   EQU   X'80',,C'N'             **RESERVE** IXR MASTER IXR
                                    1366             =FPSIXR   EQU   X'40',,C'N'             **RESERVE** IXR SUPER IXR
                                    1367             =FPZIXR   EQU   X'20',,C'N'             **RESERVE** IXR HYBRID IXR
                                    1368             =FPFIXR   EQU   X'10',,C'N'             **RESERVE** IXR FIRST HYBRID
                                    1369             =FPN      EQU   X'00',,C'N'             PRIMITIVE NO-ACCESS
                                    1370             =FPR      EQU   X'01',,C'N'             PRIMITIVE READ
                                    1371             =FPA      EQU   X'02',,C'N'             PRIMITIVE APPEND
                                    1372             =FPW      EQU   X'04',,C'N'             PRIMITIVE WRITE
                                    1373             =FPE      EQU   X'08',,C'N'             PRIMITIVE EXTEND
                                    1374             =FPS      EQU   X'10',,C'N'             PRIMITIVE SHARE
                                    1375             =
                                    1376             =FRO      EQU   FPR                     READ ONLY
                                    1377             =FRW      EQU   FPR+FPA+FPW             READ & WRITE
                                    1378             =FRP      EQU   FPR+FPA                 READ & APPEND
                                    1379             =FAO      EQU   FPA                     APPEND ONLY
                                    1380             =FSHR     EQU   FPS                     SHARE ONLY
                                    1381             =FAC      EQU   FPE                     EXTEND ONLY
                                    1382             =FPALL    EQU   FRW+FPE                 ALL PRIVILEGES
                                    1383             =FPNONE   EQU   FPN                     NO-ACCESS
                                    1384             =
                                    1385             =FPREAD   EQU   FPR                     READ ONLY
                                    1386             =FPAPPEND EQU   FPA                     APPEND ONLY
                                    1387             =FPWRITE  EQU   FPW                     WRITE ONLY
                                    1388             =FPEXTEND EQU   FPE                     EXTEND
                                    1389             =FPFWRITE EQU   FPR+FPA+FPW             FULL WRITE
1SRES     IXR DSECT                                                                                                         Page    9
0Loc    Object Code    Addr1 Addr2  Stmt Lv Lineno    Source Statement           (Hibal 5, Asmedit 3.3)  HLASM R4.0  2004/03/22 09.44
+___    ______ ____    _____ _____  ____ __ ______    ______ _________
0                                   1391     141.              COPY  IXR
 000000                00000 00800  1392             =IXRDSECT DSECT
                                    1393             =*
                                    1394             =*  INDEX RECORD & SUPER INDEX RECORD
                                    1395             =*
 000000                             1396             =IXRSTART DS    0F
                                    1397             =IXR      EQU   IXRSTART,2048
 000000 00                          1398             =IXRSTATE FLAG  ,                       IXR STATUS
 IXRSTATE.IXRMIXR  80 ONES          1402             =         FLAG  (IXRMIXR,FPMIXR)        MASTER IXR
 IXRSTATE.IXRSIXR  40 ONES          1411             =         FLAG  (IXRSIXR,FPSIXR)        SUPER IXR
 IXRSTATE.IXRZIXR  20 ONES          1420             =         FLAG  (IXRZIXR,FPZIXR)        HYBRID IXR
 IXRSTATE.IXRFIXR  10 ONES          1429             =         FLAG  (IXRFIXR,FPFIXR)        FIRST HYBRID IXR
                                    1438             =
 000001                             1439             =IXRECNO  DS    XL3                     ABSOLUTE ORVYL BLOCK NUMBER
 000004                             1440             =IXRNAME  DS    CL44                    FILE NAME
 000030                             1441             =IXRNRCS  DS    A                       NO. USER RECS IN FILE/IXR
 000034                             1442             =IXRRRCS  DS    A                       NO. REAL RECS IN FILE
 000038                             1443             =IXRLWRC  DS    XL3                     LOWEST REC NO IN IXR
 00003B                             1444             =IXRHIRC  DS    XL3                     HIGHEST REC NO IN IXR
 00003E                             1445             =IXRPAD   DS   0XL6                     SPARE BYTES (NON-HYBRID)
 00003E                             1446             =IXRLWRF  DS    XL3          (HYBRID)   LOWEST REC NO IN FILE
 000041                             1447             =IXRHIRF  DS    XL3          (HYBRID)   HIGHEST REC NO IN FILE
                                    1448             =
                                    1449             =IXRPREF  EQU   IXRSTART,*-IXRSTART     IXR PREFIX
 000044                             1450             =IXRNT    DS    XL3                     FIRST IXR ENTRY
                                    1451             =
                                    1452             =IXRNT#   EQU   (L'IXR-L'IXRPREF)/L'IXRNT        NO. OF ENTRIES
 000047                             1453             =IXRNTNEX DS    (IXRNT#-1)XL(L'IXRNT)   REMAINING ENTRIES
                                    1454             =*
                                    1455             =*  Use last 6 bytes of SIXR for special IXR counts
 000800                00800 007FA  1456             =         ORG   IXR+L'IXR-6
                                    1457             =IXRIXNT# EQU   IXRNT#-(6/L'IXRNT)      NO OF IXR ENTRIES IN SIXR
                                    1458             =IXRMXNT# EQU   IXRNT#*IXRIXNT#         MAX NUMBER OF USER BLOCKS
 0007FA                             1459             =IXRNIXR  DS    H        (SIXR ONLY)    NO. IXRS FOR FILE
 0007FC                             1460             =IXRLWXR  DS    H        (SIXR ONLY)    LOWEST IXR FOR FILE
 0007FE                             1461             =IXRHIXR  DS    H        (SIXR ONLY)    HIGHEST IXR FOR FILE
1SRES     SFRBLOCK (SELECTIVE FILE RESTORES BLOCK) DSECT                                                                    Page   10
0D-Loc  Object Code    Addr1 Addr2  Stmt Lv Lineno    Source Statement           (Hibal 5, Asmedit 3.3)  HLASM R4.0  2004/03/22 09.44
+_____  ______ ____    _____ _____  ____ __ ______    ______ _________
0                                   1463     143.     *
                                    1464     144.     *  BLOCK FORMAT FOR SELECTIVE RESTORE IXR TAPE
                                    1465     145.     *
 000000                00000 00838  1466     146.     SFRBLOCK RECORD BEGIN
 000000                             1474  1  147.     SFRFNAME   DS    CL44                    FILE NAME (GG.UUU.FILENAME)
                                    1475  1  148.     SFRACCT    EQU   SFRFNAME,6              ACCOUNT (GG.UUU)
 00002C                             1476  1  149.     SFRIXNUM   DS    F                       RELATIVE IXR NUMBER
 000030                             1477  1  150.     SFRRECHD   DS    2F                      ORVYL DISK RECORD HEADER
                                    1478  1  151.     SFRHDID    EQU   SFRRECHD,4              IXR TYPE FIELD
                                    1479  1  152.     SFRHDLEN   EQU   SFRRECHD+6,2            LENGTH OF RECORD
 000038                             1480  1  153.     SFRIXR     DS    CL(L'IXR)               ACTUAL IXR
 000838                00838 00838  1481     154.              END   ,
1SRES     DCB DSECT                                                                                                         Page   11
0D-Loc  Object Code    Addr1 Addr2  Stmt Lv Lineno    Source Statement           (Hibal 5, Asmedit 3.3)  HLASM R4.0  2004/03/22 09.44
+_____  ______ ____    _____ _____  ____ __ ______    ______ _________
0                                   1491     156.              PRINT  NOGEN
                                    1493     157.              DCBD   DSORG=PS
 000000                00000 00040  2325     158.     TIOTDSCT DSECT ,
                                    2326     159.              IEFTIOT1 ,
                                    2559     160.              PRINT GEN
1SRES     WORK AREA DSECT                                                                                                   Page   12
0D-Loc  Object Code    Addr1 Addr2  Stmt Lv Lineno    Source Statement           (Hibal 5, Asmedit 3.3)  HLASM R4.0  2004/03/22 09.44
+_____  ______ ____    _____ _____  ____ __ ______    ______ _________
0000000                00000 00364  2562     162.     SFRWA    RECORD BEGIN
 000000                             2570  1  163.     CLWTEMP    DS    4D                  WORK SPACE FOR BTD
 000020                             2571  1  164.     OSSAVE     DS    F                   POINTER TO SAVE AREA (OS)
 000024                             2572  1  165.     RETCODE    DS    F                   RETURN CODE
 000028                             2573  1  166.     NUMNTRYS   DS    F                   NUMBER OF ENTRIES IN TABLE
 00002C                             2574  1  167.     ORVPFX     DS    CL4                 'ORV.'
 000030                             2575  1  168.     ACCOUNT    DS    CL6                 'GG.UUU'
                                    2576  1  169.     USER       EQU   ACCOUNT+3,3
                                    2577  1  170.     GROUP      EQU   ACCOUNT,2
 000036 00                          2578  1  171.     RFLG       FLAG  ,
 RFLG.RESTART      80 ONES          2582  1  172.                FLAG  RESTART                 **RESTART OPERATION
 RFLG.INC          40 ONES          2587  1  173.                FLAG  INC                     **INCREMENTAL ALSO
 RFLG.NEWFMT       20 ONES          2592  1  174.                FLAG  NEWFMT                  **NEW DUMP TAPE FORMAT
 000038                             2597  1  175.     RS#        DS    A                       RESTART BLOCK NUMBER
 00003C                             2598  1  176.                DS    0F                  ALIGN TO FULLWORD
 00003C                             2599  1  177.     FILETABS   DS    A                   ADDRESS OF FILE TABLES
 000040                             2600  1  178.     FLSMAX     DS    A                       MAXIMUM NUMBER OF RESTORES
 000044                             2601  1  179.     STACK      DS    200F                STACK SPACE
 000364                00364 00364  2602     180.              END
1SRES     REGISTER EQUATES AND DEFINITIONS                                                                                  Page   13
0D-Loc  Object Code    Addr1 Addr2  Stmt Lv Lineno    Source Statement           (Hibal 5, Asmedit 3.3)  HLASM R4.0  2004/03/22 09.44
+_____  ______ ____    _____ _____  ____ __ ______    ______ _________
0000000                00000 037F8  2612     182.     SRES     CSECT ,
                                    2614     183.              ENTRY SRES
-
0                                   2617     186.     ATTNEW   EQU   0                   ATTACH NEW ROUTINE
                                    2618     187.     ATTOLDF  EQU   1                   ATTACH OLD ROUTINE
                                    2619     188.     ATTNWAIT EQU   2                   WAIT FROM ATTACH NEW
                                    2620     189.     ATTOWAIT EQU   3                   WAIT FROM ATTACH OLD
                                    2621     190.     SCRATCH  EQU   4                   SCRATCH ROUTINE
                                    2622     191.     ORVWRITE EQU   5                   ORVYL WRITE ROUTINE
                                    2623     192.     SPCHECK  EQU   6                   SPACE CHECK ROUTINE
                                    2624     193.     LOOKUP   EQU   7                   LOOKUP ROUTINE
                                    2625     194.     CREATE   EQU   8                   CREATE NON-IXR
                                    2626     195.     CREWAIT  EQU   9                   | WAIT
                                    2627     196.     ERASE    EQU   10                  ERASE FILE
                                    2628     197.     ERAWAIT  EQU   11                  | WAIT
-                                   2630     199.     NOSPACE  EQU   4                   NO SPACE
                                    2631     200.     NOTFOUND EQU   4                   FILE NOT FOUND ON DUMPTAPE
                                    2632     201.     NOREP    EQU   20                  SET REPLACEMENT NOT ALLOWED
1SRES     INITIALIZE FOR SELECTIVE RESTORE                                                                                  Page   14
0Loc    Object Code    Addr1 Addr2  Stmt Lv Lineno    Source Statement           (Hibal 5, Asmedit 3.3)  HLASM R4.0  2004/03/22 09.44
+___    ______ ____    _____ _____  ____ __ ______    ______ _________
0                                   2634     203.     ****************************************************************** *
                                    2635     204.     *                                                                  *
                                    2636     205.     *  SELECTIVE RESTORE:  Main entry point                            *
                                    2637     206.     *                                                                  *
                                    2638     207.     ****************************************************************** *
0000000 47F0 F00A/04         0000A  2640     209.              SAVE  (14,12),,*              Save registers
 000005 E2D9C5E2/00                 2643             +
 00000A 90EC D00C            0000C  2644             +
 00000E 05C0                        2645     210.              BALR  BASE,0                  Set up addressability
 USING  *,R12                       2646     211.              USING *,BASE                  ## Program base registers
 000010 5860 1000            00000  2656     212.              L     PR,@R1                  Setup parm ptr for later
-000014 4510 C00C/05         0001C  2658     214.              GETMAIN R,LV=L'SFRWA,SP=5     Get work area space
 000019 000364                      2663             +
 00001C 5800 1000/0A0A       00000  2664             +
 000022 18B1                        2666     215.              LR    WAREG,R1 40T*           Set up work area pointer
 USING  SFRWA,R11                   2667     216.              USING SFRWA,WAREG             ##
 USING  SFRTABLE,R10                2676     217.              USING SFRTABLE,TBLPTR         ##
 000024 182B                        2685     218.              LR    SR,WAREG                Get work area pointer
 000026 4130 0364            00364  2686     219.              LA    TR,L'SFRWA              And length
 00002A 1B00                        2687     220.              SR    R0,R0                   Clear
 00002C 1B11                        2688     221.              SR    R1,R1                   This one too
 00002E 0E20                        2689     222.              MVCL  SR,R0                   Clear the work area
 000030 D203 B02C C5C0 0002C 005D0  2690     223.              MVC   ORVPFX,=C'ORV.'         Initialize prefix
 000036 50D0 B020            00020  2691     224.              ST    R13,OSSAVE              Store a(his save area) in ours
 00003A 4120 B044            00044  2692     225.              LA    SR,STACK                Point to our stack
 00003E 5020 D008            00008  2693     226.              ST    SR,8(,R13)              Store its address in os save
 000042 18D2                        2694     227.              LR    R13,SR                  Set stack pointer
 000044 188D                        2695     228.              LR    R8,R13                  Copy to r8
                                    2696     229.              BATCH ,                       SET ORVYL ASSEMBLY GLOBAL
 000046 5810 0010            00010  2700     230.              GETCBAD  R1                   Get address of our tcb
 00004A 5810 1000            00000  2702             +
 00004E 5810 1004            00004  2703             +
 000052 5810 10A4            000A4  2704     231.              L     R1,164(,R1)             Get TCT address
 000056 5810 101C            0001C  2705     232.              L     R1,@R1+28               Point to JMR
 00005A D202 B033 1014 00033 00014  2706     233.              MVC   USER,20(R1)             Move in user id
 000060 D201 B030 1017 00030 00017  2707     234.              MVC   GROUP,23(R1)            And group info
 000066 924B B032      00032        2708     235.              MVI   ACCOUNT+2,C'.'          Add a dot
-00006A 4110 C13E            0014E  2710     237.              VWRITE TITLE,L'TITLE          Put out title line
 00006E 4100 0047            00047  2727             +
 000072 5890 C5C4/0D99       005D4  2730             +
 000078 5890 C5C8/0D99       005D8  2734             +
1SRES     INITIALIZE FOR SELECTIVE RESTORE                                                                                  Page   15
0Current Usings:  (SFRTABLE,R10) (SFRWA,R11) (*,R12)
0Loc    Object Code    Addr1 Addr2  Stmt Lv Lineno    Source Statement           (Hibal 5, Asmedit 3.3)  HLASM R4.0  2004/03/22 09.44
+___    ______ ____    _____ _____  ____ __ ______    ______ _________
0                                   2737     239.     *
                                    2738     240.     *  SCAN EXEC FIELD PARAMETERS
                                    2739     241.     *
000007E 4800 6000            00000  2741     243.              LH    R0,@PR                  Retrive parm length
 000082 4110 6002            00002  2742     244.              LA    R1,@PR+2                Bump to parm start
 000086 41F0 C578            00588  2743     245.              SCINIT (R1),(R0),SCANWA
 00008A 58E0 C5CC/0DEE       005DC  2761             +
 000090 4110 C185            00195  2763     246.              SCAN  RKWRT,(R15)             Scan any parameters
 000094 58E0 C5D0/0DEE       005E0  2777             +
 00009A 4770 C1A4            001B4  2779     247.              IF    NZ,RINV                 Whoops
0                                   2794     249.     *
                                    2795     250.     *  ALLOCATE STORAGE FOR FILE TABLES
                                    2796     251.     *
 00009E 5800 B040/1200       00040  2797     252.              LT    R0,FLSMAX               Set maximum restores
 0000A4 4770 C09C            000AC  2801     253.              IF    Z,'LA R0,14'            Use default if zero
 0000A8 4100 000E            0000E  2813             +
 0000AC 5000 B040            00040  2818     254.              ST    R0,FLSMAX               SET MAXIMUM FILES
 0000B0 4C00 C664            00674  2819     255.              MH    R0,=AL2(L'SFRTABLE)     Calculate length required
 0000B4 1830                        2820     256.              LR    TR,R0                   Save length for clear
 0000B6 4510 C0AA/0A0A       000BA  2821     257.              GETMAIN R,LV=(0)              Request storage
 0000BC 5010 B03C            0003C  2825     258.              ST    R1,FILETABS             Save address of tables
 0000C0 1821                        2826     259.              LR    SR,R1                   Copy address of tables
 0000C2 1B11                        2827     260.              CLEAR R1                      Clear tables to zero
 0000C4 0E20                        2831     261.              MVCL  SR,R0                   And doit
1SRES     DO RESTORE                                                                                                        Page   16
0Current Usings:  (SFRTABLE,R10) (SFRWA,R11) (*,R12)
0Loc    Object Code    Addr1 Addr2  Stmt Lv Lineno    Source Statement           (Hibal 5, Asmedit 3.3)  HLASM R4.0  2004/03/22 09.44
+___    ______ ____    _____ _____  ____ __ ______    ______ _________
0                                   2833     263.     *
                                    2834     264.     *   MAIN RESTORE LOOP
                                    2835     265.     *
00000C6 58E0 C5D4/0DEE       005E4  2837     267.              XCALL BUILDTBL                Build the file table
 0000CC 4770 C136            00146  2841     268.              BNZ   ABORT                   If we failed, exit
00000D0 58E0 C5D8/0DEE       005E8  2843     270.              XCALL ATTFILES                Otherwise attach files
 0000D6 4770 C0E2            000F2  2847     271.              BNZ   FINISH                  Failed - finish up
-0000DA                             2849     273.              LOOP  BEGIN                   Loop until eof or error
 0000DA 58E0 C5DC/0DEE       005EC  2855  1  274.                XCALL GETBLOCK                Get a block for a file
 0000E0 47D0 C0E2            000F2  2859  1  275.                BNP   FINISH                  Clean up if error/eof
 0000E4 58E0 C5E0/0DEE       005F0  2860  1  276.                XCALL PUTBLOCK                Write block to file
 0000EA 4770 C0E2            000F2  2864  1  277.                BNZ   FINISH                  Clean up on error
 0000EE 47F0 C0CA            000DA  2865     278.              END   ,                       Keep going
1SRES     DO RESTORE                                                                                                        Page   17
0Current Usings:  (SFRTABLE,R10) (SFRWA,R11) (*,R12)
0Loc    Object Code    Addr1 Addr2  Stmt Lv Lineno    Source Statement           (Hibal 5, Asmedit 3.3)  HLASM R4.0  2004/03/22 09.44
+___    ______ ____    _____ _____  ____ __ ______    ______ _________
00000F2                             2871     280.     FINISH   LABEL ,
 0000F2 58E0 C5E4/0DEE       005F4  2873     281.              XCALL PSTATUS             PRINT STATUS MESSAGES
 0000F8 58E0 C5E8/0DEE       005F8  2877     282.              XCALL DETFILES            DETACH FILES
 0000FE 0700/90E1 C0F8       00108  2881     283.              XIT  ,                    GET VAM STATISTICS
 000104 4510 C108            00118  2885             +
 000108 0000000000000000            2886             +
 000118 4100 0010            00010  2887             +
 00011C 58F0 C5EC/05EF       005FC  2888             +
 000122 98E1 1000            00000  2890             +
 000126 5820 B024            00024  2891     284.              L     SR,RETCODE          GET RETURN CODE
000012A 58D0 B020            00020  2893     286.     RESTRET  L     R13,OSSAVE          PT BACK AT OS SAVE AREA
 00012E 4100 0005            00005  2894     287.              FREEMAIN R,SP=5           FREE THE STACK
 000132 8900 0018/1B11       00018  2897             +
 000138 0A0A                        2899             +
 00013A 18F2                        2900     288.              LR    R15,SR              PUT RETURN CODE IN 15
 00013C 58E0 D00C            0000C  2901     289.              RETURN (14,12),,RC=(15)   EXIT
 000140 980C D014/07FE       00014  2903             +
-000146                             2906     291.     ABORT    LABEL ,
 000146 4120 000C            0000C  2908     292.              LA    SR,12               SIGNAL ABORTED RESTORE
 00014A 47F0 C11A            0012A  2909     293.              B     RESTRET             AND EXIT
1SRES     DO RESTORE                                                                                                        Page   18
0Current Usings:  (SFRTABLE,R10) (SFRWA,R11) (*,R12)
0Loc    Object Code    Addr1 Addr2  Stmt Lv Lineno    Source Statement           (Hibal 5, Asmedit 3.3)  HLASM R4.0  2004/03/22 09.44
+___    ______ ____    _____ _____  ____ __ ______    ______ _________
000014E 4040404040404040            2911     295.   C TITLE    DC    C'                    Orvyl selective file restore progr
 000156 4040404040404040                     296.                    am - Version 3.1d'
0000195                             2913     298.     RKWRT    SCKW  RESTART,RSXIT,(A,P,I)
 000195 CE0001D6D9C5E2E3            2914             +
 0001A0                             2915     299.              SCKW  MAXFILES,SMAX,(A,P,PI),128
 0001A0 BF0001E6D4C1E7C6            2916             +
 0001AC 00000080                    2917             +
 0001B0 FF0001B4                    2918     300.              SCKW  ,RINV
00001B4 5890 C5C4/0D99       005D4  2921     302.     RINV     VSEG  (1),(0)                 SET STRING IN MESSAGE
 0001BA 4110 C666            00676  2939     303.              VWRITE ': Invalid parameter string'
 0001BE 4100 001A            0001A  2944             +
 0001C2 5890 C5C4/0D99       005D4  2947             +
 0001C8 5890 C5C8/0D99       005D8  2951             +
 0001CE 4120 0010            00010  2953     304.              LA    SR,16                   SET RETURN CODE REGISTER
 0001D2 47F0 C11A            0012A  2954     305.              B     RESTRET                 AND RETURN
00001D6 47D0 C1A4            001B4  2956     307.     RSXIT    IF    NP,RINV
 0001DA D203 B038 F000 00038 00000  2971     308.              MVC   RS#,@R15                SET RESTART BLOCK #
 0001E0 9680 B036      00036        2972     309.              SET   RESTART                 SET RESTART FLAG
 0001E4 07FE                        2978     310.              SCRTN (R15)                   RETURN TO SCANNER
00001E6                             2985     312.     SMAX     LABEL ,
 0001E6 47D0 C1A4            001B4  2987     313.              IF    NP,RINV                 INVALID EXEC PARAMETER
 0001EA D203 B040 F000 00040 00000  3001     314.              MVC   FLSMAX,@R15             SET MAXIMUM RESTORES
 0001F0 07FE                        3002     315.              SCRTN (R15)                   RETURN TO SCANNER
1SRES     BUILD FILE TABLE                                                                                                  Page   19
0Current Usings:  (SFRTABLE,R10) (SFRWA,R11) (*,R12)
0Loc    Object Code    Addr1 Addr2  Stmt Lv Lineno    Source Statement           (Hibal 5, Asmedit 3.3)  HLASM R4.0  2004/03/22 09.44
+___    ______ ____    _____ _____  ____ __ ______    ______ _________
00001F2 50E0 D000            00000  3009     317.     BUILDTBL XENTER SR,TBLPTR,*        Enter and save registers
 0001F6 902A D004/188D       00004  3012             +
 0001FC 41D0 D028/0D70       00028  3014             +
 000202 1B22                        3029     318.              CLEAR CTR1                Clear number of table entries
 USING  *,R7
 000204 58A0 B03C            0003C  3033     319.              L     TBLPTR,FILETABS     Point at filetable
0000208                             3035     321.     SCAN     LABEL ,                   Pull off restore command
 000208 4100 0014/1B11       00014  3037     322.              VCNTL SKIP1               Skip 1 lines
 00020E 5890 73FE/0D99       00600  3051             +
 000214 5890 7402/0D99       00604  3053     323.              GETCMD ,                  Get next command
 00021A 4740 72F6            004F8  3058     324.              BM    NULLINP                 No input - exit
 00021E 4780 7052            00254  3059     325.              BZ    TABLEDON                Eof - finished
 000222 9180 B036      00036        3060     326.              IF    RESTART,'SET REPLACE'   Set REPLACE on RESTART
 000226 47E0 702C            0022E  3070             +
 00022A 9680 A001      00001        3081             +
 00022E 41F0 7386            00588  3086     327.              SCINIT (1),(0),SCANWA         Initialize for command scan
 000232 58E0 73DA/0DEE       005DC  3106             +
 000238 4110 7348            0054A  3108     328.              SCAN  CMDTABLE,(15)           SCAN FOR COMMAND AND OPTIONS
 00023C 58E0 73DE/0DEE       005E0  3123             +
 000242 1000                        3125     329.              LPR   0,0                     CHECK RETURN
 000244 4770 71E4            003E6  3126     330.              BNZ   ILLEGAL                 ILLEGAL STRING
 000248 5E20 7406            00608  3127     331.     SCANINC  INCR  CTR1
 00024C 41A0 A0A8            000A8  3130     332.              LA    TBLPTR,SFRNEXT          PNT to next table slot
 000250 47F0 7006            00208  3131     333.              B     SCAN                    GOOD RETURN - CONTINUE
0000254                             3133     335.     TABLEDON LABEL ,
 000254 1222                        3135     336.              LTR   CTR1,CTR1               Any entries in table?
 000256 47D0 7330            00532  3136     337.              BNP   BUILDABT                No, exit now
 00025A 5020 B028            00028  3137     338.              ST    CTR1,NUMNTRYS           Save count of table entries
 00025E 58E0 740A/0DEE       0060C  3138     339.              XCALL FILESORT                Sort the file table
 000264 58E0 740E/0DEE       00610  3142     340.              XCALL DOIXRS                  Process index records
 00026A 4770 7330            00532  3146     341.              BNZ   BUILDABT                Abort if error
 00026E 58E0 7412/0DEE       00614  3147     342.              XCALL SPACECHK                Check space for restore
 000274 4720 730E            00510  3151     343.              BP    FILS2BIG                Not enough to restore any?
 000278 4740 7330            00532  3152     344.              BM    BUILDABT                Abort condition - exit
 00027C 47F0 7338            0053A  3153     345.              B     BUILDOK                 Everythings ok
1SRES     Build file table : Scan Subroutines                                                                               Page   20
0Current Usings:  (*,R7) (SFRTABLE,R10) (SFRWA,R11) (*,R12)
0Loc    Object Code    Addr1 Addr2  Stmt Lv Lineno    Source Statement           (Hibal 5, Asmedit 3.3)  HLASM R4.0  2004/03/22 09.44
+___    ______ ____    _____ _____  ____ __ ______    ______ _________
0000280                             3155     347.     GOTFILE  LABEL ,
 000280 47D0 726A            0046C  3157     348.              BNP   FILEMISS                No file name present
 000284 189E                        3158     349.              LR    LINK1,R14               Preserve return address
 000286 5920 B040            00040  3159     350.              C     CTR1,FLSMAX             Too many restore cmds?
 00028A 47B0 70EE            002F0  3160     351.              BNL   NOMOROOM                Yes - exit here
 00028E 41F0 A010            00010  3161     352.              SETFILEN (1),(0),SNAME        Store the from filename
 000292 58E0 7416/0DEE       00618  3175             +
 000298 4770 71C6            003C8  3177     353.              BNZ   BADFILE                 Woops
 00029C 5000 A068            00068  3178     354.              ST    R0,SNAMEL               Save filename length
 0002A0                             3179     355.              IF    (ACCOUNT,NE,'GG.ORV'),BEGIN   Master account?
 0002A0 D505 748E B030 00690 00030  3190             +
 0002A6 4780 70CA            002CC  3191             +
 0002AA                             3196  1  356.                IF    (ACCOUNT,NE,'BP.ORV'),BEGIN   Or the "OTHER" one
 0002AA D505 7494 B030 00696 00030  3207  1          +
 0002B0 4780 70CA            002CC  3208  1          +
 0002B4                             3213  2  357.                  IF    (ACCOUNT,NE,'GG.DFF'),BEGIN
 0002B4 D505 749A B030 0069C 00030  3224  2          +
 0002BA 4780 70CA            002CC  3225  2          +
 0002BE 4110 A010            00010  3230  3  357.1                   LA    R1,SNAME
 0002C2 D509 A010 B02C 00010 0002C  3231  3  358.                    CLC   SNAME(10),ORVPFX        Check accounts
 0002C8 4770 7202            00404  3232  3  359.                    BNE   ACCTINV                 Must match job account
 0002CC                             3233  2  360.                  END   ,
 0002CC                             3237  1  360.1               END   ,
 0002CC                             3241     361.              END   ,
 0002CC D22B A03C A010 0003C 00010  3245     362.              MVC   SRENAME,SNAME           Set the to file default
 0002D2 5000 A06C            0006C  3246     363.              ST    R0,SRENAMEL             Save filename length
 0002D6 181A                        3247     364.              LR    R1,TBLPTR               Point to current entry
 0002D8 1802                        3248     365.              LR    R0,CTR1                 Set counter
 0002DA 58E0 741A/0DEE       0061C  3249     366.              XCALL DUPCHECK                Is this a duplicate?
 0002E0 4770 72CA            004CC  3253     367.              BNZ   DUPFILE                 Yes, send out message
 0002E4 41F0 7386            00588  3254     368.              LA    R15,SCANWA              Get back scan wa ptr
 0002E8 4110 7357            00559  3255     369.              LA    R1,OPTBL                Point to new scan table
 0002EC 47F0 9004            00004  3256     370.              B     4(,LINK1)               Return to scanner
-0002F0                             3258     372.     NOMOROOM LABEL ,
 0002F0 4110 753C            0073E  3260     373.              VSEG  'TOO MANY RESTORE COMMANDS - LIMIT IS '
 0002F4 4100 0025            00025  3264             +
 0002F8 5890 73D2/0D99       005D4  3267             +
 0002FE 58F0 B040/1B00       00040  3269     374.              SEGDC 0,FLSMAX                SET MAXIMUM RESTORE IN MSG
 000304 4110 B000            00000  3286             +
 000308 58E0 741E/0DEE       00620  3289             +
 00030E 5890 73D2/0D99       005D4  3306             +
 000314 4110 7422            00624  3308     375.              VSEG   '.  The above file and any following will not'
 000318 4100 002C            0002C  3312             +
 00031C 5890 73D2/0D99       005D4  3315             +
 000322 4110 744E            00650  3317     376.              VWRITE ' be restored'
 000326 4100 000C            0000C  3322             +
 00032A 5890 73D2/0D99       005D4  3325             +
 000330 5890 73D6/0D99       005D8  3329             +
 000336 41F0 0004            00004  3331     377.              LA    R15,4               INDICATE NOT ALL FILES RESTORED
 00033A 40F0 B026            00026  3332     378.              SETRC R15,RETCODE,0       AND SET MASTER RETURN CODE
 00033E 9200 B025      00025        3334             +
 000342 9200 B024      00024        3335             +
1SRES     Build file table : Scan Subroutines                                                                               Page   21
0Current Usings:  (*,R7) (SFRTABLE,R10) (SFRWA,R11) (*,R12)
0Loc    Object Code    Addr1 Addr2  Stmt Lv Lineno    Source Statement           (Hibal 5, Asmedit 3.3)  HLASM R4.0  2004/03/22 09.44
+___    ______ ____    _____ _____  ____ __ ______    ______ _________
0000346 5890 7402/0D99       00604  3336     379.     GETIGNOR GETCMD  ,
 00034C 47D0 7052            00254  3341     380.              BNP    TABLEDON           FINISHED WITH INPUT FLUSH
 000350 47F0 7144            00346  3342     381.              B      GETIGNOR           OTHERWISE KEEP GOING
-000354                             3344     383.     GOTTO    LABEL ,
 000354 47D0 726A            0046C  3346     384.              BNP   FILEMISS            MISSING
 000358 189E                        3347     385.              LR    LINK1,R14           SAVE RETURN ADDRESS
 00035A 41F0 A03C            0003C  3348     386.              SETFILEN (1),(0),SRENAME      Set new file name
 00035E 58E0 7416/0DEE       00618  3362             +
 000364 4770 71C6            003C8  3364     387.              BNZ   BADFILE                 Bad file name
 000368 5000 A06C            0006C  3365     388.              ST    R0,SRENAMEL             Save filename length
 00036C 41F0 7386            00588  3366     389.     SETL2    LA    R15,SCANWA              Restore scan wa pointer
 000370 07F9                        3367     390.              BR    LINK1                   Scan for options
-000372                             3369     392.     GOTREPL  LABEL ,
 000372 9680 A001      00001        3371     393.              SET   REPLACE                 Indicate replace option
 000376 07FE                        3377     394.              BR    R14                     Look for more
-000378                             3379     396.     TYPIGNOR LABEL ,
 000378 1841                        3381     397.              LR    QR,R1                   Save location
 00037A 1850                        3382     398.              LR    RR,R0                   And length
 00037C 58E0 745A/0DEE       0065C  3383     399.              SCTELL ,
 000382 1A05                        3391     400.              AR    R0,RR                   Get length of line
 000384 1814/5890 73D2       005D4  3392     401.              VSEG  (QR),(0)                Send it out
 00038A 0D99                        3408             +
 00038C 4110 74A0            006A2  3409     402.              VWRITE ' : IGNORED'
 000390 4100 000A            0000A  3414             +
 000394 5890 73D2/0D99       005D4  3417             +
 00039A 5890 73D6/0D99       005D8  3421             +
 0003A0 47F0 7046            00248  3423     403.              B      SCANINC
00003A4                             3425     405.     GETNXSZ  LABEL ,
 0003A4 47D0 71E4            003E6  3427     406.              IF    NP,ILLEGAL          WHOOPS
 0003A8 D203 A004 F000 00004 00000  3441     407.              MVC   SBNIXRSZ,@R15       SAVE ALLOCATION SIZE
 0003AE 9601 A001      00001        3442     408.              SET   NIXRSZ
 0003B2 07FE                        3448     409.              SCRTN (R15)               RETURN TO SCANNER
 0003B4                             3454     410.     GOTNIXR  LABEL ,
 0003B4 9640 A001      00001        3456     411.              SET   OUTNIXR                 Set output a NON-IXR file
 0003B8 94DF A001      00001        3462     412.              CLEAR OUTIXR                  Clear IXR'd file
 0003BC 07FE                        3469     413.              SCRTN (R15)                   Return to scanner
00003BE                             3476     415.     GOTIXR   LABEL ,
 0003BE 94BF A001      00001        3478     416.              CLEAR OUTNIXR                 Clear NON-IXR'd file
 0003C2 9620 A001      00001        3485     417.              SET   OUTIXR                  Set IXR'd file
 0003C6 07FE                        3491     418.              SCRTN (R15)                   Return to scanner
1SRES     BUILD FILE TABLE : ERROR ROUTINES                                                                                 Page   22
0Current Usings:  (*,R7) (SFRTABLE,R10) (SFRWA,R11) (*,R12)
0Loc    Object Code    Addr1 Addr2  Stmt Lv Lineno    Source Statement           (Hibal 5, Asmedit 3.3)  HLASM R4.0  2004/03/22 09.44
+___    ______ ____    _____ _____  ____ __ ______    ______ _________
00003C8                             3498     420.     BADFILE  LABEL ,
 0003C8 5890 73D2/0D99       005D4  3500     421.              VSEG  (1),(0)
 0003CE 4110 74AA            006AC  3517     422.              VWRITE  ' : ILLEGAL SYNTAX FOR FILENAME'
 0003D2 4100 001E            0001E  3522             +
 0003D6 5890 73D2/0D99       005D4  3525             +
 0003DC 5890 73D6/0D99       005D8  3529             +
 0003E2 47F0 72E2            004E4  3531     423.              B     SCANERR             SCAN
-0003E6                             3533     425.     ILLEGAL  LABEL ,
 0003E6 5890 73D2/0D99       005D4  3535     426.              VSEG  (1),(0)
 0003EC 4110 7561            00763  3552     427.              VWRITE ' : Illegal string'
 0003F0 4100 0011            00011  3557             +
 0003F4 5890 73D2/0D99       005D4  3560             +
 0003FA 5890 73D6/0D99       005D8  3564             +
 000400 47F0 72E2            004E4  3566     428.              B     SCANERR
-000404                             3568     430.     ACCTINV  LABEL ,
 000404 5890 73D2/0D99       005D4  3570     431.              VSEG  (1),(0)
 00040A 4110 7572            00774  3587     432.              VWRITE ' : ACCOUNT/JOB MISMATCH'
 00040E 4100 0017            00017  3592             +
 000412 5890 73D2/0D99       005D4  3595             +
 000418 5890 73D6/0D99       005D8  3599             +
 00041E 47F0 72E2            004E4  3601     433.              B     SCANERR
-000422                             3603     435.     INVALID  DS     0H
 000422 5890 73D2/0D99       005D4  3604     436.              VSEG   (1),(0)
 000428 4110 74C8            006CA  3621     437.              VWRITE ' : INVALID COMMAND'
 00042C 4100 0012            00012  3626             +
 000430 5890 73D2/0D99       005D4  3629             +
 000436 5890 73D6/0D99       005D8  3633             +
 00043C 9180 73AE      005B0        3635     438.              TM     HELPFLAG,HELPED
 000440 4710 72E2            004E4  3636     439.              BO     SCANERR
 000444 9680 73AE      005B0        3637     440.              OI     HELPFLAG,HELPED
 000448 4100 0014/1B11       00014  3638     441.              VCNTL  SKIP1
 00044E 5890 73FE/0D99       00600  3652             +
 000454 4110 745E            00660  3654     442.              VWRITE   'VALID COMMANDS ARE :'
 000458 4100 0014            00014  3659             +
 00045C 5890 73D2/0D99       005D4  3662             +
 000462 5890 73D6/0D99       005D8  3666             +
 000468 47F0 72A4            004A6  3668     443.              B     FILEHELP
-00046C                             3670     445.     FILEMISS LABEL ,
 00046C 4110 7589            0078B  3672     446.              VWRITE 'FILE NAME MISSING'
 000470 4100 0011            00011  3677             +
 000474 5890 73D2/0D99       005D4  3680             +
 00047A 5890 73D6/0D99       005D8  3684             +
 000480 9180 73AE      005B0        3686     447.              TM     HELPFLAG,HELPED
 000484 4710 72E2            004E4  3687     448.              BO     SCANERR
 000488 9680 73AE      005B0        3688     449.              OI     HELPFLAG,HELPED
 00048C 4100 0014/1B11       00014  3689     450.              VCNTL  SKIP1
1SRES     BUILD FILE TABLE : ERROR ROUTINES                                                                                 Page   23
0Current Usings:  (*,R7) (SFRTABLE,R10) (SFRWA,R11) (*,R12)
0Loc    Object Code    Addr1 Addr2  Stmt Lv Lineno    Source Statement           (Hibal 5, Asmedit 3.3)  HLASM R4.0  2004/03/22 09.44
+___    ______ ____    _____ _____  ____ __ ______    ______ _________
0000492 5890 73FE/0D99       00600  3703             +
 000498 4110 74DA            006DC  3705     451.              VSEG   'CORRECT USAGE IS :'
 00049C 4100 0012            00012  3709             +
 0004A0 5890 73D2/0D99       005D4  3712             +
 0004A6                             3714     452.     FILEHELP LABEL ,
 0004A6 4110 74EC            006EE  3716     453.              VSEG   '    RESTORE <FILENAME> TO <FILENAME> (REPLACE)'
 0004AA 4100 002E            0002E  3720             +
 0004AE 5890 73D2/0D99       005D4  3723             +
 0004B4 4110 759A            0079C  3725     454.              VSEG  ' (IXR|NONIXR)'
 0004B8 4100 000D            0000D  3729             +
 0004BC 5890 73D2/0D99       005D4  3732             +
 0004C2 5890 73D6/0D99       005D8  3734     455.              VWRITE ,
 0004C8 47F0 72E2            004E4  3739     456.              B      SCANERR
-0004CC                             3741     458.     DUPFILE  DS     0H
 0004CC 4110 73B6            005B8  3742     459.              VWRITE 'DUPLICATE FILE - IGNORED'
 0004D0 4100 0018            00018  3747             +
 0004D4 5890 73D2/0D99       005D4  3750             +
 0004DA 5890 73D6/0D99       005D8  3754             +
 0004E0 47F0 7006            00208  3756     460.              B      SCAN
-0004E4                             3758     462.     SCANERR  LABEL ,
 0004E4 41F0 0004            00004  3760     463.              LA    R15,4               NOT ALL FILES RESTORED
 0004E8 40F0 B026            00026  3761     464.              SETRC R15,RETCODE,0
 0004EC 9200 B025      00025        3763             +
 0004F0 9200 B024      00024        3764             +
 0004F4 47F0 7006            00208  3765     465.              B     SCAN
1SRES     BUILD FILE TABLE : ERROR ROUTINES AND EXIT                                                                        Page   24
0Current Usings:  (*,R7) (SFRTABLE,R10) (SFRWA,R11) (*,R12)
0Loc    Object Code    Addr1 Addr2  Stmt Lv Lineno    Source Statement           (Hibal 5, Asmedit 3.3)  HLASM R4.0  2004/03/22 09.44
+___    ______ ____    _____ _____  ____ __ ______    ______ _________
00004F8                             3767     467.     NULLINP  LABEL ,
 0004F8 4110 75A7            007A9  3769     468.              VWRITE 'NO INPUT ON SYSIN'
 0004FC 4100 0011            00011  3774             +
 000500 5890 73D2/0D99       005D4  3777             +
 000506 5890 73D6/0D99       005D8  3781             +
 00050C 47F0 7330            00532  3783     469.              B     BUILDABT            EXIT
-000510                             3785     471.     FILS2BIG LABEL ,
 000510 4110 751A            0071C  3787     472.              VSEG   'INSUFFICIENT USER SPACE ALLOCATION'
 000514 4100 0022            00022  3791             +
 000518 5890 73D2/0D99       005D4  3794             +
 00051E 4110 75B8            007BA  3796     473.              VWRITE ' TO RESTORE EVEN ONE FILE'
 000522 4100 0019            00019  3801             +
 000526 5890 73D2/0D99       005D4  3804             +
 00052C 5890 73D6/0D99       005D8  3808             +
-000532                             3811     475.     BUILDABT LABEL ,
 000532 41F0 0004            00004  3813     476.              LA    R15,4               INDICATE ABORT
 000536 47F0 733A            0053C  3814     477.              B     BUILDRT             EXIT
-00053A 1BFF                        3816     479.     BUILDOK  SR    R15,R15             OTHERWISE BUILD WENT OK
 00053C 18D8/982A D004       00004  3817     480.     BUILDRT  XEXIT SR,TBLPTR,*         EXIT
 000542 58E0 D000/12FF       00000  3820             +
 000548 07FE                        3822             +
1SRES     BUILD FILE TABLE : SCAN TABLES                                                                                    Page   25
0Current Usings:  (*,R7) (SFRTABLE,R10) (SFRWA,R11) (*,R12)
0Loc    Object Code    Addr1 Addr2  Stmt Lv Lineno    Source Statement           (Hibal 5, Asmedit 3.3)  HLASM R4.0  2004/03/22 09.44
+___    ______ ____    _____ _____  ____ __ ______    ______ _________
000054A                             3824     482.     CMDTABLE SCKW   RESTORE,GOTFILE,(A,P)
 00054A 8E000280D9C5E2E3            3825             +
 000555 FF000422                    3826     483.              SCKW   ,INVALID
-000559 81000354E3D6                3829     485.     OPTBL    SCKW  TO,GOTTO,P
 00055F                             3831     486.              SCKW  REPLACE,GOTREPL,A
 00055F 0E000372D9C5D7D3            3832             +
 00056A                             3833     487.              SCKW  IXR,GOTIXR
 00056A 020003BEC9E7D9              3834             +
 000571                             3835     488.              SCKW  NONIXR,GOTNIXR,A
 000571 0D0003B4D5D6D5C9            3836             +
 00057B                             3837     489.              SCKW  SIZE,GETNXSZ,(A,P,PI)
 00057B AB0003A4E2C9E9C5            3838             +
 000583 FF000378                    3839     490.              SCKW  ,TYPIGNOR
-000587 00
 000588 0000000000000000            3842     492.     SCANWA   DC     5D'0'              SCAN CONTROL BLOCK
 0005B0 00                          3843     493.     HELPFLAG DC     X'00'
                                    3844     494.     HELPED   EQU    X'80'              MESSAGE HAS BEEN ISSUED
-0005B8                             3846     496.              LTORG ,
 0005B8 C4E4D7D3C9C3C1E3            3848                             =C'DUPLICATE FILE - IGNORED'
 0005D0 D6D9E54B                    3849                             =C'ORV.'
 0005D4 00000000                    3850                             =V(VSEG)
 0005D8 00000000                    3851                             =V(VWRITE)
 0005DC 00000000                    3852                             =V(SCINIT)
 0005E0 00000000                    3853                             =V(SCAN)
 0005E4 00000000                    3854                             =V(BUILDTBL)
 0005E8 00000000                    3855                             =V(ATTFILES)
 0005EC 00000000                    3856                             =V(GETBLOCK)
 0005F0 00000000                    3857                             =V(PUTBLOCK)
 0005F4 00000000                    3858                             =V(PSTATUS)
 0005F8 00000000                    3859                             =V(DETFILES)
 0005FC 00000000                    3860                             =V(VAM)
 000600 00000000                    3861                             =V(VCNTRL)
 000604 00000000                    3862                             =V(GETCMD)
 000608 00000001                    3863                             =A(1)
 00060C 00000000                    3864                             =V(FILESORT)
 000610 00000000                    3865                             =V(DOIXRS)
 000614 00000000                    3866                             =V(SPACECHK)
 000618 00000000                    3867                             =V(MOVEFILE)
 00061C 00000000                    3868                             =V(DUPCHECK)
 000620 00000000                    3869                             =V(BTD)
 000624 4B4040E388854081            3870                             =C'.  The above file and any following will not'
 000650 408285409985A2A3            3871                             =C' be restored'
 00065C 00000000                    3872                             =V(SCTELL)
 000660 E5C1D3C9C440C3D6            3873                             =C'VALID COMMANDS ARE :'
 000674 00A8                        3874                             =AL2(L'SFRTABLE)
 000676 7A40C995A5819389            3875                             =C': Invalid parameter string'
 000690 C7C74BD6D9E5                3876                             =C'GG.ORV'
 000696 C2D74BD6D9E5                3877                             =C'BP.ORV'
1SRES     BUILD FILE TABLE : SCAN TABLES                                                                                    Page   26
0Current Usings:  (*,R7) (SFRTABLE,R10) (SFRWA,R11) (*,R12)
0Loc    Object Code    Addr1 Addr2  Stmt Lv Lineno    Source Statement           (Hibal 5, Asmedit 3.3)  HLASM R4.0  2004/03/22 09.44
+___    ______ ____    _____ _____  ____ __ ______    ______ _________
000069C C7C74BC4C6C6                3878                             =C'GG.DFF'
 0006A2 407A40C9C7D5D6D9            3879                             =C' : IGNORED'
 0006AC 407A40C9D3D3C5C7            3880                             =C' : ILLEGAL SYNTAX FOR FILENAME'
 0006CA 407A40C9D5E5C1D3            3881                             =C' : INVALID COMMAND'
 0006DC C3D6D9D9C5C3E340            3882                             =C'CORRECT USAGE IS :'
 0006EE 40404040D9C5E2E3            3883                             =C'    RESTORE <FILENAME> TO <FILENAME> (REPLACE)'
 00071C C9D5E2E4C6C6C9C3            3884                             =C'INSUFFICIENT USER SPACE ALLOCATION'
 00073E E3D6D640D4C1D5E8            3885                             =C'TOO MANY RESTORE COMMANDS - LIMIT IS '
 000763 407A40C993938587            3886                             =C' : Illegal string'
 000774 407A40C1C3C3D6E4            3887                             =C' : ACCOUNT/JOB MISMATCH'
 00078B C6C9D3C540D5C1D4            3888                             =C'FILE NAME MISSING'
 00079C 404DC9E7D94FD5D6            3889                             =C' (IXR|NONIXR)'
 0007A9 D5D640C9D5D7E4E3            3890                             =C'NO INPUT ON SYSIN'
 0007BA 40E3D640D9C5E2E3            3891                             =C' TO RESTORE EVEN ONE FILE'
1SRES     DUPCHECK : CHECK FOR DUPLICATE FILENAMES                                                                          Page   27
0Current Usings:  (*,R7) (SFRTABLE,R10) (SFRWA,R11) (*,R12)
0Loc    Object Code    Addr1 Addr2  Stmt Lv Lineno    Source Statement           (Hibal 5, Asmedit 3.3)  HLASM R4.0  2004/03/22 09.44
+___    ______ ____    _____ _____  ____ __ ______    ______ _________
00007D3 00/50E0 D000         00000  3896     498.     DUPCHECK XENTER SR,TBLPTR,*
 0007D8 902A D004/188D       00004  3899             +
 0007DE 41D0 D028/0D70       00028  3901             +
 0007E4 1220                        3919     499.              LTR   CTR1,R0             ANY ENTRIES?
 DROP   *,R7
 USING  *,R7
 0007E6 47D0 701C            00800  3920     500.              BNP    NODUPS             NONE - THEREFORE NO DUPS
 0007EA 58A0 B03C            0003C  3921     501.              L      TBLPTR,FILETABS    POINT TO START OF TABLE
 0007EE                             3922     502.     DUPLOOP  DS     0H
 0007EE D52B A010 1010 00010 00010  3923     503.              CLC    SNAME,SNAME-SFRTABLE(R1)  SAME NAMES?
 0007F4 4780 7022            00806  3924     504.              BE     GOTDUP             YES - THIS IS A DUPLICATE
 0007F8 41A0 A0A8            000A8  3925     505.              LA    TBLPTR,L'SFRTABLE(,TBLPTR)    NO, CHECK NEXT
 0007FC 4620 700A            007EE  3926     506.              BCT   CTR1,DUPLOOP
 000800 1BFF                        3927     507.     NODUPS   SR     R15,R15            INDICATE NO DUPLICATES
 000802 47F0 7026            0080A  3928     508.              B      *+8                EXIT
 000806 41F0 0004            00004  3929     509.     GOTDUP   LA     R15,4              INDICATE DUPLICATE
 00080A 18D8/982A D004       00004  3930     510.              XEXIT SR,TBLPTR,*         EXIT
 000810 58E0 D000/12FF       00000  3933             +
 000816 07FE                        3935             +
1SRES     SPACECHK : ESTABLISH FILES TO BE RESTORED WITHIN SPACE LIMITS                                                     Page   28
0Current Usings:  (*,R7) (SFRTABLE,R10) (SFRWA,R11) (*,R12)
0Loc    Object Code    Addr1 Addr2  Stmt Lv Lineno    Source Statement           (Hibal 5, Asmedit 3.3)  HLASM R4.0  2004/03/22 09.44
+___    ______ ____    _____ _____  ____ __ ______    ______ _________
0000818 50E0 D000            00000  3937     513.     SPACECHK XENTER 1,TBLPTR,44+(30*L'ACCOUNT)
 00081C 901A D004/188D       00004  3940             +
 000822 41D0 D0E0/0D70       000E0  3942             +
 DROP   *,R7                        3960     514.     *
 USING  *,R7
                                    3961     515.     *        LOCAL EQUATES
                                    3962     516.     *
                                    3963     517.     AMTREQD  EQU   QR
                                    3964     518.     USRSPACE EQU   RR
-000828 5830 B028            00028  3966     520.              L     CTR2,NUMNTRYS       HOW MANY ENTRIES?
 00082C 1233                        3967     521.              LTR   CTR2,CTR2           MUST BE POSITIVE AT LEAST
 00082E 47D0 7114            0093C  3968     522.              BNP   SPCEXIT             IF NOT - EXIT
 000832 58A0 B03C            0003C  3969     523.              L     TBLPTR,FILETABS     POINT AT FILE TABLE
 000836 4150 8032            00032  3970     524.              LA    RR,44+L'ACCOUNT(,R8)   POINT AT NEXT SLOT
 00083A D205 802C A040 0002C 00040  3971     525.              MVC   44(L'ACCOUNT,R8),SRENAME+L'ORVPFX  MOVE IN FIRST ACCT
 000840 41F0 0001            00001  3972     526.              LA    R15,1               SET 1 ACCOUNT
 000844 4630 7024            0084C  3973     527.              BCT   CTR2,COMPINIT       EXIT HERE IF MORE THAN ONE
 000848 47F0 704A            00872  3974     528.              B     DOACCT0              EXIT HERE IF ONE
 00084C 4140 A0A8            000A8  3975     529.     COMPINIT LA    QR,L'SFRTABLE(,TBLPTR)  POINT TO NEXT ACCOUNT
 000850                             3976     530.     COMPLOOP LABEL ,
 000850 D505 A040 4040 00040 00040  3978     531.              CLC SRENAME+L'ORVPFX(L'ACCOUNT),SRENAME+L'ORVPFX-SFRTABLE(QR)
 000856 4780 7040            00868  3979     532.              BE    SKIP                SKIP IF SAME ACCOUNT
 00085A D205 5000 4040 00000 00040  3980     533.              MVC   0(L'ACCOUNT,RR),SRENAME+L'ORVPFX-SFRTABLE(QR)
 000860 5EF0 73A8            00BD0  3981     534.              INCR  R15                 ADD 1 TO COUNT
 000864 4150 5006            00006  3984     535.              COUNT RR,L'ACCOUNT        POINT TO NEXT SLOT
 000868                             3986     536.     SKIP     LABEL ,
 000868 18A4                        3988     537.              LR    TBLPTR,QR           POINT TO NEXT
 00086A 4140 40A8            000A8  3989     538.              LA    QR,L'SFRTABLE(,QR)  THIS ONE TOO
 00086E 4630 7028            00850  3990     539.              BCT   CTR2,COMPLOOP       COMPARE NEXT SET OF ACCOUNTS
-000872 183F                        3992     541.     DOACCT0  LR    CTR2,R15            GET COUNT OF ENTRIES
 000874 1B66                        3993     542.              SR    PR,PR               CLEAR FAIL COUNTER
 000876 4190 802C            0002C  3994     543.              LA    R9,44(,R8)          POINT TO ENTRIES
 00087A                             3995     544.     DOACCT   LABEL ,
 00087A 58A0 B03C            0003C  3997     545.              L     TBLPTR,FILETABS     POINT AT FILE TABLE
 00087E 5820 B028            00028  3998     546.              L     CTR1,NUMNTRYS       LOOP INDEX
 000882 1819                        3999     547.              LR    R1,R9               POINT TO AN ACCOUNT ENTRY
 000884 58E0 73AC/0DEE       00BD4  4000     548.              XCALL GETUSRSP            HOW MUCH SPACE DOES HE HAVE?
 00088A 4740 710E            00936  4004     549.              BM    SPACEABT            NEG - EXIT NOW
 00088E 4780 70D8            00900  4005     550.              BZ    SETNONE             ZERO - NO SPACE LEFT
 000892 185F                        4006     551.              LR    USRSPACE,R15        COPY SPACE LEFT
 000894 1B44                        4007     552.              SR    AMTREQD,AMTREQD     CLEAR AMOUNT NEEDED
 000896                             4008     553.     CHKACCT  LABEL ,
 000896 D505 9000 A040 00000 00040  4010     554.              CLC   0(L'ACCOUNT,R9),SRENAME+L'ORVPFX  CHECK ACCOUNTS
 00089C 4770 70BA            008E2  4011     555.              BNE   DONEXT              SKIP THIS ONE IF NOT SAME
 0008A0 5A40 A07C            0007C  4012     556.              A     AMTREQD,SUSERREC    ADD IN SPACE FOR THIS FILE
 0008A4 9180 A001      00001        4013     557.              IF    ~REPLACE,CHKAMT         SKIP CHECK FOR REPLACE
 0008A8 47E0 7098            008C0  4025             +
 0008AC 4110 A03C            0003C  4031     558.              LA    R1,SRENAME          POINT TO FILENAME
 0008B0 5800 A06C            0006C  4032     559.              L     R0,SRENAMEL         GET LENGTH
 0008B4 58E0 73B0/0DEE       00BD8  4033     560.              XCALL FILSPACE            FIND OUT ITS SPACE
1SRES     SPACECHK : ESTABLISH FILES TO BE RESTORED WITHIN SPACE LIMITS                                                     Page   29
0Current Usings:  (*,R7) (SFRTABLE,R10) (SFRWA,R11) (*,R12)
0Loc    Object Code    Addr1 Addr2  Stmt Lv Lineno    Source Statement           (Hibal 5, Asmedit 3.3)  HLASM R4.0  2004/03/22 09.44
+___    ______ ____    _____ _____  ____ __ ______    ______ _________
00008BA 4740 710E            00936  4037     561.              BM    SPACEABT            ERROR - ABORT NOW
 0008BE 1A5F                        4038     562.              AR    USRSPACE,R15        OK - ADD IN EXTRA SPACE
 0008C0                             4039     563.     CHKAMT   LABEL ,
 0008C0 1945                        4041     564.              CR    AMTREQD,USRSPACE    TOO MUCH?
 0008C2 4740 70BA            008E2  4042     565.              BL    DONEXT              NO DO NEXT
 0008C6 5B40 A07C            0007C  4043     566.              S     AMTREQD,SUSERREC    GET BACK SPACE BEFORE THIS FILE
 0008CA 9604 A001      00001        4044     567.              SET   DONOTDO               INDICATE NOT RESTORED
 0008CE 41F0 0004            00004  4050     568.              LA    R15,NOSPACE         BECAUSE OF NO SPACE
 0008D2 40F0 A00E            0000E  4051     569.              SETRC R15,SBRETCOD,SPCHECK
 0008D6 9206 A00D      0000D        4053             +
 0008DA 9200 A00C      0000C        4054             +
 0008DE 5E60 73A8            00BD0  4055     570.              INCR  PR                  ADD 1 TO FAIL COUNTER
 0008E2                             4058     571.     DONEXT   LABEL ,
 0008E2 41A0 A0A8            000A8  4060     572.              LA    TBLPTR,L'SFRTABLE(,TBLPTR)    NEXT ENTRY
 0008E6 4620 706E            00896  4061     573.              BCT   CTR1,CHKACCT        PROCESS NEXT ACCOUNT
 0008EA                             4062     574.     NEXTACCT LABEL ,
 0008EA 4190 9006            00006  4064     575.              COUNT R9,L'ACCOUNT        POINT TO NEXT ACCOUNT IN TABLE
 0008EE 4630 7052            0087A  4066     576.              BCT   CTR2,DOACCT         AND AWAAAYYY WE GO
 0008F2 5960 B028            00028  4067     577.              C     PR,NUMNTRYS         CAN WE RESTORE ANY FILES?
 0008F6 47B0 7106            0092E  4068     578.              BNL   SPNOFILS            NO
 0008FA 1BFF                        4069     579.              SR    R15,R15             OTHERWISE INDICATE AT LEASTT
                                    4070     580.     *                                  ONE FILE CAN BE RESTORED
 0008FC 47F0 7114            0093C  4071     581.              B     SPCEXIT             AND EXIT
-000900                             4073     583.     SETNONE  LABEL ,
 000900 D505 9000 A040 00000 00040  4075     584.              CLC   0(L'ACCOUNT,R9),SRENAME+L'ORVPFX  THIS ONE TO DO?
 000906 4770 70FA            00922  4076     585.              BNE   SETNEXT             NO
 00090A 9604 A001      00001        4077     586.              SET   DONOTDO              INDICATE NOT RESTORED
 00090E 41F0 0004            00004  4083     587.              LA    R15,NOSPACE         BECAUSE OF NO SPACE
 000912 40F0 A00E            0000E  4084     588.              SETRC R15,SBRETCOD,SPCHECK
 000916 9206 A00D      0000D        4086             +
 00091A 9200 A00C      0000C        4087             +
 00091E 5E60 73A8            00BD0  4088     589.              INCR  PR                  ADD 1 TO FAIL COUNTER
 000922 41A0 A0A8            000A8  4091     590.     SETNEXT  LA    TBLPTR,L'SFRTABLE(,TBLPTR)  PT TO NEXT ENTRY
 000926 4620 70D8            00900  4092     591.              BCT   CTR1,SETNONE
 00092A 47F0 70C2            008EA  4093     592.              B     NEXTACCT            DO NEXT
000092E 41F0 0004            00004  4095     594.     SPNOFILS LA    R15,4               INDICATE NO FILES TO RESTORE
 000932 47F0 7114            0093C  4096     595.              B     SPCEXIT              EXIT
0000936 41F0 0004            00004  4098     597.     SPACEABT LA    R15,4
 00093A 13FF                        4099     598.              LCR   R15,R15             EXIT NOW - DISASTER
000093C 18D8/981A D004       00004  4101     600.     SPCEXIT  XEXIT 1,TBLPTR,*          AND LEAVE
 000942 58E0 D000/12FF       00000  4104             +
 000948 07FE                        4106             +
1SRES     GETUSRSP : FIND SPACE LEFT TO USER IN FILE SYSTEM                                                                 Page   30
0Current Usings:  (*,R7) (SFRTABLE,R10) (SFRWA,R11) (*,R12)
0Loc    Object Code    Addr1 Addr2  Stmt Lv Lineno    Source Statement           (Hibal 5, Asmedit 3.3)  HLASM R4.0  2004/03/22 09.44
+___    ______ ____    _____ _____  ____ __ ______    ______ _________
000094A 50E0 D000            00000  4108     602.     GETUSRSP XENTER R7,R8,*
 00094E 9078 D004/188D       00004  4111             +
 000954 41D0 D00C/0D70       0000C  4113             +
 00095A 4100 0004/0700       00004  4131     603.              STATUS 4,(1)              FIND SPACE
 DROP   *,R7
 USING  *,R7
 000960 90E1 700E            00968  4152             +
 000964 4510 701E            00978  4153             +
 000968 0000000000000000            4154             +
 000978 4100 0030            00030  4155             +
 00097C 58F0 7282/05EF       00BDC  4156             +
 000982 98E1 1000            00000  4158             +
 000986 12FF                        4159     604.              LTR    15,15              CHECK PROGRESS
 000988 4770 707E            009D8  4160     605.              BNZ    STZERO             IF ERROR - SET ZERO SPACE LEFT
 00098C 90E1 703A            00994  4161     606.              WAIT   (0)                IF OK, WAIT FOR COMPLETION
 000990 4510 704A            009A4  4170             +
 000994 0000000000000000            4171             +
 0009A4 4100 0034            00034  4172             +
 0009A8 58F0 7282/05EF       00BDC  4173             +
 0009AE 98E1 1000            00000  4175             +
 0009B2 12FF                        4176     607.              LTR    15,15              DID WE DO OK?
 0009B4 4770 707E            009D8  4177     608.              BNZ    STZERO             SET ZERO ON ERROR
                                    4178     609.     *
                                    4179     610.     *  R15 IS SET TO SPACE ALLOWED - SPACE USED
                                    4180     611.     *
 0009B8 1211/47B0 7068       009C2  4181     612.              IF    (R1,M),'L R1,BIG'
 0009BE 5810 707A            009D4  4196             +
 0009C2 1B1E                        4201     613.              SR     R1,R14
 0009C4 18F1                        4202     614.              LR     R15,R1
00009C6 18D8/9878 D004       00004  4204     616.     SPEXIT   XEXIT R7,R8,*
 0009CC 58E0 D000/12FF       00000  4207             +
 0009D2 07FE                        4209             +
 0009D4 00FFFFFF                    4210     617.     BIG      DC    A(X'FFFFFF')
-0009D8 1BFF                        4212     619.     STZERO   SR     R15,R15
 0009DA 47F0 706C            009C6  4213     620.              B      SPEXIT
1SRES     FILSPACE : ROUTINE TO FIND SPACE USED IN FILE                                                                     Page   31
0Current Usings:  (*,R7) (SFRTABLE,R10) (SFRWA,R11) (*,R12)
0Loc    Object Code    Addr1 Addr2  Stmt Lv Lineno    Source Statement           (Hibal 5, Asmedit 3.3)  HLASM R4.0  2004/03/22 09.44
+___    ______ ____    _____ _____  ____ __ ______    ______ _________
00009DE 50E0 D000            00000  4215     622.     FILSPACE XENTER R7,R8,*
 0009E2 9078 D004/188D       00004  4218             +
 0009E8 41D0 D00C/0D70       0000C  4220             +
 0009EE 18F0                        4238     623.              LR    R15,R0              PUT LENGTH IN R15
 DROP   *,R7
 USING  *,R7
 0009F0 4100 0002/13FF       00002  4239     624.              ATTACH 2,(1),(15),MODE=OLD  ATTACH THE FILE
 0009F6 1BEE/90E1 7012       00A00  4259             +
 0009FC 4510 7022            00A10  4263             +
 000A00 0000000000000000            4264             +
 000A10 4100 0000            00000  4265             +
 000A14 58F0 71EE/05EF       00BDC  4266             +
 000A1A 98E1 1000            00000  4268             +
 000A1E 12FF                        4270     625.              LTR    R15,R15             DOING OK?
 000A20 4770 7120            00B0E  4271     626.              BNZ    FILZERO             NO, SO SET ZERO SPACE
 000A24 90E1 703E            00A2C  4272     627.              WAIT   (0)                 WAIT FOR ATTACH TO COMPLETE
 000A28 4510 704E            00A3C  4281             +
 000A2C 0000000000000000            4282             +
 000A3C 4100 0034            00034  4283             +
 000A40 58F0 71EE/05EF       00BDC  4284             +
 000A46 98E1 1000            00000  4286             +
 000A4A 12FF                        4287     628.              LTR    R15,R15             DID WE ATTACH OK?
 000A4C 4770 7120            00B0E  4288     629.              BNZ    FILZERO             NO EXIT
 000A50 4110 0006            00006  4289     630.              CONTROL (0),6              FIND OUT HOW MANY BLOCKS IN FILE
 000A54 90E1 706E            00A5C  4310             +
 000A58 4510 707E            00A6C  4311             +
 000A5C 0000000000000000            4312             +
 000A6C 4100 0008            00008  4313             +
 000A70 58F0 71EE/05EF       00BDC  4314             +
 000A76 98E1 1000            00000  4316             +
 000A7A 12FF                        4318     631.              LTR    15,15               GOING OK?
 000A7C 4770 7120            00B0E  4319     632.              BNZ    FILZERO             NO
 000A80 90E1 709A            00A88  4320     633.              WAIT   (0)                 WAIT FOR ANSWER
 000A84 4510 70AA            00A98  4329             +
 000A88 0000000000000000            4330             +
 000A98 4100 0034            00034  4331             +
 000A9C 58F0 71EE/05EF       00BDC  4332             +
 000AA2 98E1 1000            00000  4334             +
 000AA6 12FF                        4335     634.              LTR    15,15               OK?
 000AA8 4770 7120            00B0E  4336     635.              BNZ    FILZERO             NO
 000AAC 181E                        4337     636.              LR     R1,R14              SAVE   BILLABLE BLOCKS
 000AAE 0700/90E1 70CA       00AB8  4338     637.              DETACH (0)                 AND DETACH THE FILE
 000AB4 4510 70DA            00AC8  4347             +
 000AB8 0000000000000000            4348             +
 000AC8 4100 000C            0000C  4349             +
 000ACC 58F0 71EE/05EF       00BDC  4350             +
 000AD2 98E1 1000            00000  4352             +
 000AD6 0700/90E1 70F2       00AE0  4353     638.              WAIT   (0)
 000ADC 4510 7102            00AF0  4362             +
 000AE0 0000000000000000            4363             +
 000AF0 4100 0034            00034  4364             +
 000AF4 58F0 71EE/05EF       00BDC  4365             +
 000AFA 98E1 1000            00000  4367             +
 000AFE 18F1                        4368     639.              LR     R15,R1              RESTORE BLOCKS
1SRES     FILSPACE : ROUTINE TO FIND SPACE USED IN FILE                                                                     Page   32
0Current Usings:  (*,R7) (SFRTABLE,R10) (SFRWA,R11) (*,R12)
0Loc    Object Code    Addr1 Addr2  Stmt Lv Lineno    Source Statement           (Hibal 5, Asmedit 3.3)  HLASM R4.0  2004/03/22 09.44
+___    ______ ____    _____ _____  ____ __ ______    ______ _________
0                                   4370     641.     FSEXIT   XEXIT R7,R8,*
 000B00 18D8                        4371    01-XEXIT +FSEXIT   LR    13,8
 000B02 9878 D004            00004  4372    01-XEXIT +         LM    R7,R8,4(13)
 000B06 58E0 D000            00000  4373    01-XEXIT +         L     14,0(,13)
 000B0A 12FF                        4374    01-XEXIT +         LTR   15,15
 000B0C 07FE                        4375    01-XEXIT +         BR    14
-000B0E                             4378     644.     FILZERO  DS     0H
 000B0E 1BFF                        4379     645.              SR     R15,R15             SET ZERO SPACE
 000B10 47F0 7112            00B00  4380     646.              B      FSEXIT              AND EXIT
1SRES     MOVEFILE : CHECK AND FORMAT FILENAME                                                                              Page   33
0Current Usings:  (*,R7) (SFRTABLE,R10) (SFRWA,R11) (*,R12)
0Loc    Object Code    Addr1 Addr2  Stmt Lv Lineno    Source Statement           (Hibal 5, Asmedit 3.3)  HLASM R4.0  2004/03/22 09.44
+___    ______ ____    _____ _____  ____ __ ______    ______ _________
0000B14 50E0 D000            00000  4382     648.     MOVEFILE XENTER R1,R8,*
 000B18 9018 D004/188D       00004  4385             +
 000B1E 41D0 D024/0D70       00024  4387             +
 000B24 1820                        4405     649.              LR    SR,R0               COPY LENGTH
 DROP   *,R7
 USING  *,R7
 000B26 9240 F000      00000        4406     650.              MVI   0(R15),C' '         BLANK THE RECEIVING FIELD
 000B2A D22A F001 F000 00001 00000  4407     651.              MVC   1(L'SNAME-1,R15),0(R15)
 000B30 D203 F000 B02C 00000 0002C  4408     652.              MVC   0(L'ORVPFX,R15),ORVPFX      MOVE IN PREFIX
 000B36 D205 F004 B030 00004 00030  4409     653.              MVC   L'ORVPFX(L'ACCOUNT,R15),ACCOUNT    SET DEFAULT ACCOUNT
 000B3C 924B F00A      0000A        4410     654.              MVI   L'ORVPFX+L'ACCOUNT(R15),C'.'  AND QUALIFIER
 000B40 D503 1000 B02C 00000 0002C  4411     655.              CLC   0(4,R1),ORVPFX      FULLY QUALIFIED?
 000B46 4770 7038            00B5C  4412     656.              BNE   GROUPCHK            NO, CHECK OVERRIDES
 000B4A D20A F000 1000 00000 00000  4413     657.              MVC   0(L'ORVPFX+L'ACCOUNT+1,R15),0(R1)   MOVE IN QUALIFIERS
 000B50 4110 100B            0000B  4414     658.              COUNT R1,L'ORVPFX+L'ACCOUNT+1      UP THE SCAN PTR
 000B54 4B20 70C0            00BE4  4416     659.              SH    SR,=Y(L'ORVPFX+L'ACCOUNT+1)     DOWN WITH THE LENGTH
 000B58 47F0 7074            00B98  4417     660.              B     MOVEIN              AND MOVE REST OF NAME
 000B5C                             4418     661.     GROUPCHK LABEL ,
 000B5C 957C 1000      00000        4420     662.              CLI   0(R1),C'@'          GROUP OVERRIDE?
 000B60 4770 7056            00B7A  4421     663.              BNE   USERCHK             NO, CHECK USER OVERRIDE
 000B64 954B 1003      00003        4422     664.              CLI   L'GROUP+1(R1),C'.'  IS IT REALLY?
 000B68 4770 7094            00BB8  4423     665.              BNE   MOVEBADN            NO
 000B6C D201 F004 1001 00004 00001  4424     666.              MVC   L'ORVPFX(L'GROUP,R15),1(R1)    OTHERWISE MOVE IN GROUP
 000B72 4110 1004            00004  4425     667.              COUNT R1,L'GROUP+2        PT PAST GROUP
 000B76 4B20 70C2            00BE6  4427     668.              SH    SR,=Y(L'GROUP+2)    DECREMENT LENGTH
 000B7A                             4428     669.     USERCHK  LABEL ,
 000B7A 9550 1000      00000        4430     670.              CLI   0(R1),C'&&'         USER OVERRIDE?
 000B7E 4770 7074            00B98  4431     671.              BNE   MOVEIN              NOPE
 000B82 954B 1004      00004        4432     672.              CLI   L'USER+1(R1),C'.'   IS IT REALLY?
 000B86 4770 7094            00BB8  4433     673.              BNE   MOVEBADN            NO
 000B8A D202 F007 1001 00007 00001  4434     674.              MVC   L'ORVPFX+L'GROUP+1(L'USER,R15),1(R1)   MOVE IN USER
 000B90 4110 1005            00005  4435     675.              COUNT R1,L'USER+2         PT TO FILENAME
 000B94 4B20 70C4            00BE8  4437     676.              SH    SR,=Y(L'USER+2)     DECREMENT LENGTH
 000B98                             4438     677.     MOVEIN   LABEL ,
 000B98 1222                        4440     678.              LTR   SR,SR               LENGTH POS?
 000B9A 47D0 7094            00BB8  4441     679.              BNP   MOVEBADN            NOPE, BAD NAME
 000B9E 5920 70BC            00BE0  4442     680.              C     SR,=A(33)           SIZE OK?
 000BA2 4720 7094            00BB8  4443     681.              BH    MOVEBADN            NOPE, BAD NAME
 000BA6 0620                        4444     682.              BCTR  SR,0                DOWN FOR EX
 000BA8 4420 70A6            00BCA  4445     683.              EX    SR,MOVENAME         DO IT TO IT
 000BAC 4120 200C            0000C  4447     684.              COUNT SR,L'ORVPFX+L'ACCOUNT+2  SET FILENAME LENGTH
 000BB0 1802                        4449     685.              LR    R0,SR               AND PUT INTO R0
 000BB2 1BFF                        4450     686.              SR    R15,R15             INDICATE ALL OK
 000BB4 47F0 7098            00BBC  4451     687.              B     MOVEXIT             AND EXIT
0000BB8 41F0 0004            00004  4453     689.     MOVEBADN LA    R15,4               ALL IS NOT OK
0000BBC 18D8/9818 D004       00004  4455     691.     MOVEXIT  XEXIT R1,R8,*             LEAVE NOW
 000BC2 58E0 D000/12FF       00000  4458             +
 000BC8 07FE                        4460             +
-000BCA D200 F00B 1000 0000B 00000  4462     693.     MOVENAME MVC   L'ORVPFX+L'ACCOUNT+1(0,R15),0(R1)   MOVE IN FILENAME
 000BD0                             4463     694.              LTORG ,
1SRES     MOVEFILE : CHECK AND FORMAT FILENAME                                                                              Page   34
0Current Usings:  (*,R7) (SFRTABLE,R10) (SFRWA,R11) (*,R12)
0Loc    Object Code    Addr1 Addr2  Stmt Lv Lineno    Source Statement           (Hibal 5, Asmedit 3.3)  HLASM R4.0  2004/03/22 09.44
+___    ______ ____    _____ _____  ____ __ ______    ______ _________
0000BD0 00000001                    4465                             =A(1)
 000BD4 00000000                    4466                             =V(GETUSRSP)
 000BD8 00000000                    4467                             =V(FILSPACE)
 000BDC 00000000                    4468                             =V(VAM)
 000BE0 00000021                    4469                             =A(33)
 000BE4 000B                        4470                             =Y(L'ORVPFX+L'ACCOUNT+1)
 000BE6 0004                        4471                             =Y(L'GROUP+2)
 000BE8 0005           00BEA 037F8  4472                             =Y(L'USER+2)
1SRES     FILESORT : ROUTINE TO SORT THE FILE TABLE                                                                         Page   35
0Current Usings:  (*,R7) (SFRTABLE,R10) (SFRWA,R11) (*,R12)
0Loc    Object Code    Addr1 Addr2  Stmt Lv Lineno    Source Statement           (Hibal 5, Asmedit 3.3)  HLASM R4.0  2004/03/22 09.44
+___    ______ ____    _____ _____  ____ __ ______    ______ _________
0000BEA 50E0 D000            00000  4477     696.     FILESORT XENTER SR,R8,*
 000BEE 9028 D004/188D       00004  4480             +
 000BF4 41D0 D020/0D70       00020  4482             +
 DROP   *,R7                        4500     697.     *
 USING  *,R7
                                    4501     698.     *       THIS ROUTINE USES A BUBBLE SORT
                                    4502     699.     *
 000BFA 4120 0001            00001  4503     700.              LA    SR,1                SET SWITCH TO TRUE
 000BFE 5830 B028            00028  4504     701.              L     TR,NUMNTRYS         GET COUNT OF NUMBER OF ENTRIES
 000C02 1233                        4505     702.              LTR   TR,TR               CHECK IT
 000C04 47D0 7060            00C5A  4506     703.              BNP   FSTEXIT              NOTHING TO SORT
 000C08 4630 7016            00C10  4507     704.              BCT   TR,CALCLIM          IF ONE - EXIT
 000C0C 47F0 7060            00C5A  4508     705.              B     FSTEXIT
 000C10                             4509     706.     CALCLIM  LABEL ,
 000C10 0630                        4511     707.              BCTR  TR,0                DOWN 1 MORE
 000C12 4C30 7C92            0188C  4512     708.              MH    TR,=Y(L'SFRTABLE)     CALCULATE ADDRESS OF LAST ENTRY
 000C16 5850 B03C            0003C  4513     709.              L     RR,FILETABS
 000C1A 4153 5000            00000  4514     710.              LA    RR,0(TR,RR)
 000C1E                             4515     711.     FSORTSET LABEL ,
 000C1E 1222                        4517     712.              LTR   SR,SR               ANY INTERCHANGES THIS PASS?
 000C20 47D0 7060            00C5A  4518     713.              BNP   FSTEXIT              NONE - TABLE IS SORTED
 000C24 1B22                        4519     714.              SR    SR,SR               CLEAR INTERCHANGE SWITCH
 000C26 5830 B03C            0003C  4520     715.              L     TR,FILETABS         POINT TO TABLE START
 DROP   SFRTABLE,R10                4521     716.              DROP  TBLPTR              ##
 USING  SFRTABLE,R3                 4528     717.              USING SFRTABLE,TR         ##
 000C2A 4140 00A8            000A8  4537     718.              LA    QR,L'SFRTABLE       GET TABLE LENGTH
 000C2E                             4538     719.     FSORTLP  LABEL ,
 000C2E 4160 30A8            000A8  4540     720.              LA    PR,L'SFRTABLE(,TR)      POINT AT NEXT ENTRY
 000C32 D52B 303C 603C 0003C 0003C  4541     721.              CLC   SRENAME,SRENAME-SFRTABLE(PR)  CHECK WHICH IS BIGGER
 000C38 47D0 7058            00C52  4542     722.              BNH   FSORTNXT            CORRECT ORDER - NO INTERCHANGE
 000C3C D2A7 D000 3000 00000 00000  4543     723.              MVC   0(L'SFRTABLE,R13),0(TR)  OTHERWISE SWITCH THEM
 000C42 D2A7 3000 6000 00000 00000  4544     724.              MVC   0(L'SFRTABLE,TR),0(PR)
 000C48 D2A7 6000 D000 00000 00000  4545     725.              MVC   0(L'SFRTABLE,PR),0(R13)
 000C4E 4120 0001            00001  4546     726.              LA    SR,1                INDICATE INTERCHANGE OCCURRED
 000C52                             4547     727.     FSORTNXT LABEL ,
 000C52 8734 7034            00C2E  4549     728.              BXLE  TR,QR,FSORTLP       CONTINUE
 000C56 47F0 7024            00C1E  4550     729.              B     FSORTSET            GO FOR ANOTHER PASS
 000C5A                             4551     730.     FSTEXIT  LABEL ,
 DROP   SFRTABLE,R3                 4553     731.              DROP  TR                  ###
 USING  SFRTABLE,R10                4560     732.              USING SFRTABLE,TBLPTR     ##
 000C5A 18D8/9828 D004       00004  4569     733.              XEXIT SR,R8               ALL DONE
 000C60 58E0 D000/07FE       00000  4572             +
1SRES     PROCESS INDEX RECORDS                                                                                             Page   36
0Current Usings:  (*,R7) (SFRTABLE,R10) (SFRWA,R11) (*,R12)
0Loc    Object Code    Addr1 Addr2  Stmt Lv Lineno    Source Statement           (Hibal 5, Asmedit 3.3)  HLASM R4.0  2004/03/22 09.44
+___    ______ ____    _____ _____  ____ __ ______    ______ _________
0000C66 50E0 D000            00000  4575     735.     DOIXRS   XENTER SR,TBLPTR,*
 000C6A 902A D004/188D       00004  4578             +
 000C70 41D0 D028/0D70       00028  4580             +
 000C76 0700/4510 700E       00C84  4598     736.              OPEN  (IXRIN,,IXROUT,(OUTPUT))
 DROP   *,R7
 USING  *,R7
 000C7C 00/0017B8/8F                4601             +
 000C81 001818/0A13                 4604             +
 000C86 9110 7B72      017E8        4606     737.              TM    IXRIN+(DCBOFLGS-IHADCB),X'10'  OPEN OK?
 000C8A 4780 72B6            00F2C  4607     738.              BZ    NOIXRIN                 No, send a msg
 000C8E 9110 7BD2      01848        4608     739.              TM    IXROUT+(DCBOFLGS-IHADCB),X'10' THIS ONE?
 000C92 4780 72BE            00F34  4609     740.              BZ    NOIXROUT                No, send a message
-000C96                             4611     742.     GETREC   LABEL ,
 000C96 58A0 B03C            0003C  4613     743.              L     TBLPTR,FILETABS         Pt at start of table
 000C9A 5820 B028            00028  4614     744.              L     CTR1,NUMNTRYS           Set loop counter
 000C9E 1222                        4615     745.              LTR   CTR1,CTR1               Anything to do?
 000CA0 47D0 72E0            00F56  4616     746.              BNP   IXRABRT                 No, exit
 000CA4 4160 730A            00F80  4617     747.              LA    PR,SFRAREA              Point to area
 USING  SFRBLOCK,R6                 4618     748.              USING SFRBLOCK,PR             ##
 000CA8 4110 7B42            017B8  4627     749.              GET   IXRIN,SFRAREA           Get a sr ixr block
 000CAC 4100 730A/1FFF       00F80  4630             +
 000CB2 BFF7 1031/05EF       00031  4632             +
                                    4634     750.     *
                                    4635     751.     *     WE NEED TO CHECK FOR AN ERROR BLOCK HERE
                                    4636     752.     *
 000CB8 D527 6000 A014 00000 00014  4637     753.     LOOP1    CLC   SFRFNAME(44-L'ORVPFX),SNAME+L'ORVPFX  SAME NAMES
 000CBE 4780 7058            00CCE  4638     754.              BE    FOUNDIT             YES, GO PROCESS THIS IXR BLOCK
 000CC2 41A0 A0A8            000A8  4639     755.              LA    TBLPTR,L'SFRTABLE(,TBLPTR)    NEXT ENTRY
 000CC6 4620 7042            00CB8  4640     756.              BCT   CTR1,LOOP1          GO CHECK NEXT NAME IN PARM TABLE
 000CCA 47F0 7020            00C96  4641     757.              B     GETREC              GO TRY NEXT SR IXR BLOCK
-000CCE                             4643     759.     FOUNDIT  LABEL ,
 000CCE 4150 6038            00038  4645     760.              LA    RR,SFRIXR               Point at IXR
 USING  IXRDSECT,R5                 4646     761.              USING IXRDSECT,RR             ## Using
 000CD2 91F0 5000      00000        4655     762.              TM    IXRSTATE,X'F0'          NON-IXR stuff - hokey test
 000CD6 4710 70C2            00D38  4656     763.              IF    ONES,NONIXR
 000CDA 9120 5000      00000        4670     764.              IF    IXRZIXR,HYBRID          Process hybrid file
 000CDE 4710 7080            00CF6  4682             +
 000CE2 91C0 5000      00000        4688     765.              IF    IXRSIXR*IXRMIXR,SIXR    PROCESS SUPER IXR
 000CE6 4710 712A            00DA0  4703             +
 000CEA 9180 5000      00000        4709     766.              IF    IXRMIXR,MIXR            Process master ixr
 000CEE 4710 715E            00DD4  4721             +
 000CF2 47F0 7194            00E0A  4727     767.              B     MINIXR                  Process IXR
 000CF6                             4728     768.     HYBRID   LABEL
 000CF6 4110 0001            00001  4730     769.              INCR  R1,SNUMHYBR
 000CFA 5E10 A078            00078  4734             +
 000CFE 5010 A078            00078  4735             +
 000D02 9608 A001      00001        4736     770.              SET   INHYBR                  SET INPUT WAS HYBRID
 000D06 9110 5000      00000        4742     771.              IF    IXRFIXR,BEGIN           FIRST IXR
 000D0A 47E0 70BE            00D34  4752             +
 000D0E 5810 5034            00034  4757  1  772.                L     R1,IXRRRCS              GET TOTAL RECORDS IN FILE
1SRES     PROCESS INDEX RECORDS                                                                                             Page   37
0Current Usings:  (IXRDSECT,R5) (SFRBLOCK,R6) (*,R7) (SFRTABLE,R10) (SFRWA,R11) (*,R12)
0Loc    Object Code    Addr1 Addr2  Stmt Lv Lineno    Source Statement           (Hibal 5, Asmedit 3.3)  HLASM R4.0  2004/03/22 09.44
+___    ______ ____    _____ _____  ____ __ ______    ______ _________
0000D12 5B10 5030            00030  4758  1  773.                S     R1,IXRNRCS              CALC NUMBER OF IXRS IN FILE
 000D16 5010 A004            00004  4759  1  774.                ST    R1,SBNIXRSZ             SAVE NUMBER OF IXRS IN FILE
 000D1A D203 A080 503E 00080 0003E  4760  1  775.                MVC   SUSERFMT,IXRPAD         SET USER FORMAT FIELD
 000D20 D201 A09E 5042 0009E 00042  4761  1  776.                MVC   SPUBPRIV(2),IXRPAD+4    SET PUBLIC & OWNER PERMITS
 000D26 D203 A07C 5030 0007C 00030  4762  1  777.                MVC   SUSERREC,IXRNRCS        Move user recs. to parm table
 000D2C 94BF A001      00001        4763  1  778.                CLEAR OUTNIXR,OUTIXR          ONLY HYBRID TO HYBRID SUPPORTED
 000D30 94DF A001      00001        4774  1          +
 000D34                             4775     779.              END   ,                       FIRST IXR
 000D34 47F0 7194            00E0A  4779     780.              B     MINIXR                  Process IXR
                                    4780     781.     *
                                    4781     782.     *  MUST HAVE A NON-IXR'D ENTRY
                                    4782     783.     *
 000D38                             4783     784.     NONIXR   LABEL
 000D38 9610 A001      00001        4785     785.              SET   INNIXR                  SET INPUT WAS NON-IXR'D
 000D3C 4110 0001            00001  4791     786.              INCR  R1,SNUMSIXR             SET FOR LATER ATTACH CODE
 000D40 5E10 A070            00070  4795             +
 000D44 5010 A070            00070  4796             +
 000D48 9120 A001      00001        4797     787.              IF    ~OUTIXR,'SET OUTNIXR'   SET FOR NON-IXR OUTPUT
 000D4C 4710 70DE            00D54  4807             +
 000D50 9640 A001      00001        4818             +
 000D54 D203 A080 503E 00080 0003E  4823     788.              MVC   SUSERFMT,IXRPAD         SET USER FORMAT FIELD
 000D5A D201 A09E 5042 0009E 00042  4824     789.              MVC   SPUBPRIV(2),IXRPAD+4    SET PUBLIC & OWNER PERMITS
 000D60 1F22/BF27 5001       00001  4825     790.              L3    SR,IXRECNO              SET FIRST ORVYL BLOCK NUMBER
 000D66 1B33                        4833     791.              CLEAR TR                      SET FIRST USER BLOCK NUMBER
 000D68 5850 5030            00030  4837     792.              L     RR,IXRNRCS              SET NUMBER OF USER BLOCKS
 000D6C 5050 A07C            0007C  4838     793.              ST    RR,SUSERREC             SAVE NUMBER OF USER RECORDS
 000D70 4140 72FA            00F70  4839     794.              LA    QR,MINIREC              POINT TO MINI IXR RECORD
 USING  SFRMINI,R4                  4840     795.              USING SFRMINI,QR              ## MINI-IXR ADDR
 000D74 50A0 4008            00008  4849     796.              ST    TBLPTR,MENTRY           MOVE TABLE PTR TO RECORD
 000D78                             4850     797.     BNONIXR  LABEL ,
 000D78 5020 4000            00000  4852     798.              ST    SR,MORVYL               SET ORVYL BLOCK NUMBER
 000D7C 5030 4004            00004  4853     799.              ST    TR,MUSER                SET USER BLOCK NUMBER
 000D80 4110 7BA2            01818  4854     800.              PUT   IXROUT,SFRMINI          WRITE OUT IXR MINI RECORD
 000D84 4100 4000/1FFF       00000  4857             +
 000D8A BFF7 1031/05EF       00031  4859             +
 000D90 5E20 7C02            01878  4861     801.              INCR  SR                      BUMP ORVYL BLOCK NUMBER
 000D94 5E30 7C02            01878  4864     802.              INCR  TR                      BUMP USER BLOCK NUMBER
 000D98 4650 7102            00D78  4867     803.              BCT   RR,BNONIXR              OUTPUT A MESS'OF'EM
 000D9C 47F0 7020            00C96  4868     804.              B     GETREC                  GO GET NEXT IXR RECORD
 DROP   SFRMINI,R4                  4869     805.              DROP  QR
0000DA0 D203 A07C 5030 0007C 00030  4877     807.     SIXR     MVC   SUSERREC,IXRNRCS    MOVE # USER RECS. TO PARM TABLE
 000DA6 4110 0001            00001  4878     808.              INCR  R1,SNUMSIXR             GET #SIXRS FOUND
 000DAA 5E10 A070            00070  4882             +
 000DAE 5010 A070            00070  4883             +
 000DB2 D203 A080 503E 00080 0003E  4884     809.              MVC   SUSERFMT,IXRPAD         SET USER FORMAT FIELD
 000DB8 D201 A09E 5042 0009E 00042  4885     810.              MVC   SPUBPRIV(2),IXRPAD+4    SET PUBLIC&FMSK PRIVS
 000DBE D201 A098 57FA 00098 007FA  4886     811.              MVC   SNUM,IXRNIXR            PUT # IXR'S INTO PARM TABLE
 000DC4 9140 A001      00001        4887     812.              IF    ~OUTNIXR,'SET OUTIXR'   SET IXR'D FILE OUTPUT
 000DC8 4710 715A            00DD0  4897             +
 000DCC 9620 A001      00001        4908             +
 000DD0 47F0 7020            00C96  4913     813.              B     GETREC                  GO GET NEXT SR IXR BLOCK
 000DD4 D203 A07C 5030 0007C 00030  4914     814.     MIXR     MVC   SUSERREC,IXRNRCS        Move user recs. to parm table
 000DDA D203 A080 503E 00080 0003E  4915     815.              MVC   SUSERFMT,IXRPAD          MOVE USER FORMAT
1SRES     PROCESS INDEX RECORDS                                                                                             Page   38
0Current Usings:  (IXRDSECT,R5) (SFRBLOCK,R6) (*,R7) (SFRTABLE,R10) (SFRWA,R11) (*,R12)
0Loc    Object Code    Addr1 Addr2  Stmt Lv Lineno    Source Statement           (Hibal 5, Asmedit 3.3)  HLASM R4.0  2004/03/22 09.44
+___    ______ ____    _____ _____  ____ __ ______    ______ _________
0000DE0 D201 A09E 5042 0009E 00042  4916     816.              MVC   SPUBPRIV(2),IXRPAD+4    MOVE BOTH PUB AND OWNER PRIVS
 000DE6 9140 A001      00001        4917     817.              IF    ~OUTNIXR,'SET OUTIXR'   SET IXR'D FILE OUTPUT
 000DEA 4710 717C            00DF2  4927             +
 000DEE 9620 A001      00001        4938             +
 000DF2 4110 0001            00001  4943     818.              INCR  R1,SNUMMIXR             COUNT NUMBER OF MIXRS
 000DF6 5E10 A074            00074  4947             +
 000DFA 5010 A074            00074  4948             +
 000DFE D202 A094 5038 00094 00038  4949     819.              MVC   SLOW(3),IXRLWRC         LOWEST USER RECORD TO PARM TABLE
 000E04 D202 A090 503B 00090 0003B  4950     820.              MVC   SHIGH(3),IXRHIRC        Highest record to parm table
                                    4951     821.     *
                                    4952     822.     *     ANY OTHER INFORMATION SHOULD BE MOVED IN HERE
                                    4953     823.     *
 000E0A                             4954     824.     MINIXR   LABEL ,
 000E0A 5860 602C            0002C  4956     825.              L     PR,SFRIXNUM             GET USER REL. ENTRY FOR THIS IXR
 DROP   SFRBLOCK,R6                 4957     826.              DROP  PR                      ##SFRBLOCK
                                    4964     827.     *
                                    4965     828.     *     COMPARE USER HIGH AND LOW VALUES HERE
                                    4966     829.     *
 000E0E 5820 7C06            0187C  4967     830.              L     CTR1,=A(IXRNT#)     GET NUMBER OF IXR ENTRIES
 000E12 4140 72FA            00F70  4968     831.              LA    QR,MINIREC          POINT TO MINIXR RECORD
 USING  SFRMINI,R4                  4969     832.              USING SFRMINI,QR
 000E16 4150 5044            00044  4978     833.              LA    RR,IXRNT            POINT TO FIRST IXR ENTRY
 DROP   IXRDSECT,R5                 4979     834.              DROP  RR                  ###
 000E1A 1B33                        4986     835.              SR    CTR2,CTR2           ZERO MINIXR RECORD COUNT
                                    4987     836.     *
                                    4988     837.     *     CHECK MINIXR RECORD COUNT AGAINST IXRNRECS LATER
                                    4989     838.     *
 000E1C 50A0 4008            00008  4990     839.              ST    TBLPTR,MENTRY           Move table addr to minixr record
 000E20 1B11                        4991     840.     MINILOOP SR    R1,R1                   Zero work register
 000E22 BF17 5000            00000  4992     841.              ICM   R1,7,0(RR)              Pick up 3 byte ixr entry
 000E26 4770 71C4            00E3A  4993     842.              BNZ   PUTMINI                 Branch if entry was not zero
 000E2A 5E60 7C02            01878  4994     843.     MININEXT INCR  PR                      Point to next user rel. entry
 000E2E 4150 5003            00003  4997     844.              COUNT RR,L'IXRNT              Point to next ixr entry
 000E32 4620 71AA            00E20  4999     845.              BCT   CTR1,MINILOOP           Go process next ixr entry
 000E36 47F0 7020            00C96  5000     846.              B     GETREC                  Go process next ixr
 000E3A 5010 4000            00000  5001     847.     PUTMINI  ST    R1,MORVYL               Store orvyl rec. # in minixr
 000E3E 5060 4004            00004  5002     848.              ST    PR,MUSER                Store user rec. # in minixr
 000E42 5E30 7C02            01878  5003     849.              INCR  CTR2                    Incr minixr record count
 000E46 4110 7BA2            01818  5006     850.              PUT   IXROUT,SFRMINI          Write out ixr mini record
 000E4A 4100 4000/1FFF       00000  5009             +
 000E50 BFF7 1031/05EF       00031  5011             +
 000E56 47F0 71B4            00E2A  5013     851.              B     MININEXT                Go process next entry
 DROP   SFRMINI,R4                  5014     852.              DROP  QR                      ##sfrmini
-000E5A                             5022     854.     IXREOF   LABEL ,
 000E5A 0700/4510 71F2       00E68  5024     855.              CLOSE (IXRIN,,IXROUT)
 000E60 00/0017B8/80                5027             +
 000E65 001818/0A14                 5030             +
 000E6A 4110 7B42            017B8  5032     856.              FREEPOOL IXRIN
 000E6E 9101 1017      00017        5035             +
 000E72 4710 7242/1FFF       00EB8  5036             +
 000E78 BFF7 1015            00015  5038             +
 000E7C 58E0 F000/12EE       00000  5039             +
1SRES     PROCESS INDEX RECORDS                                                                                             Page   39
0Current Usings:  (*,R7) (SFRTABLE,R10) (SFRWA,R11) (*,R12)
0Loc    Object Code    Addr1 Addr2  Stmt Lv Lineno    Source Statement           (Hibal 5, Asmedit 3.3)  HLASM R4.0  2004/03/22 09.44
+___    ______ ____    _____ _____  ____ __ ______    ______ _________
0000E82 4770 7218            00E8E  5041             +
 000E86 9130 F004      00004        5042             +
 000E8A 4770 7242            00EB8  5043             +
 000E8E 9601 1017/1BEE 00017        5044             +
 000E94 1B11/BF13 F006       00006  5046             +
 000E9A 43E0 F005/1C0E       00005  5048             +
 000EA0 4110 1008            00008  5050             +
 000EA4 9140 F004      00004        5051             +
 000EA8 47E0 723A            00EB0  5052             +
 000EAC 4110 1008/1801       00008  5053             +
 000EB2 4110 F000/0A0A       00000  5055             +
 000EB8 4110 7BA2            01818  5058     857.              FREEPOOL IXROUT
 000EBC 9101 1017      00017        5061             +
 000EC0 4710 7290/1FFF       00F06  5062             +
 000EC6 BFF7 1015            00015  5064             +
 000ECA 58E0 F000/12EE       00000  5065             +
 000ED0 4770 7266            00EDC  5067             +
 000ED4 9130 F004      00004        5068             +
 000ED8 4770 7290            00F06  5069             +
 000EDC 9601 1017/1BEE 00017        5070             +
 000EE2 1B11/BF13 F006       00006  5072             +
 000EE8 43E0 F005/1C0E       00005  5074             +
 000EEE 4110 1008            00008  5076             +
 000EF2 9140 F004      00004        5077             +
 000EF6 47E0 7288            00EFE  5078             +
 000EFA 4110 1008/1801       00008  5079             +
 000F00 4110 F000/0A0A       00000  5081             +
 000F06 58E0 7C0A/0DEE       01880  5084     858.              XCALL SORT                    Sort the mini ixrs
 000F0C 4770 729E            00F14  5088     859.              BNZ   BADSORT                 Error in sort
 000F10 47F0 72E8            00F5E  5089     860.              B     IXRSOK              OTHERWISE ALL OK
1SRES     DOIXR : ERROR ROUTINES AND EXIT                                                                                   Page   40
0Current Usings:  (*,R7) (SFRTABLE,R10) (SFRWA,R11) (*,R12)
0Loc    Object Code    Addr1 Addr2  Stmt Lv Lineno    Source Statement           (Hibal 5, Asmedit 3.3)  HLASM R4.0  2004/03/22 09.44
+___    ______ ____    _____ _____  ____ __ ______    ______ _________
0000F14                             5091     862.     BADSORT  DS     0H
 000F14 4110 7C18            0188E  5092     863.              VWRITE 'ERROR IN SORTING INDEX RECORDS'
 000F18 4100 001E            0001E  5097             +
 000F1C 5890 7C0E/0D99       01884  5100             +
 000F22 5890 7C12/0D99       01888  5104             +
 000F28 47F0 72E0            00F56  5106     864.              B      IXRABRT            ABORT
-000F2C                             5108     866.     NOIXRIN  DS     0H
 000F2C 4110 7B6A            017E0  5109     867.              LA     R1,IXRIN+(DCBDDNAM-IHADCB)  PT TO FILE NAME
 000F30 47F0 72C2            00F38  5110     868.              B      NOIXRFIL
-000F34                             5112     870.     NOIXROUT DS     0H
 000F34 4110 7BCA            01840  5113     871.              LA     R1,IXROUT+(DCBDDNAM-IHADCB)  PT TO DDNAME
-000F38 4100 0008            00008  5115     873.     NOIXRFIL VSEG   (1),8       SET DDNAME INTO MESSAGE
 000F3C 5890 7C0E/0D99       01884  5133             +
 000F42 4110 7C36            018AC  5135     874.              VWRITE ' : FILE COULD NOT BE OPENED'
 000F46 4100 001B            0001B  5140             +
 000F4A 5890 7C0E/0D99       01884  5143             +
 000F50 5890 7C12/0D99       01888  5147             +
-000F56                             5150     876.     IXRABRT  DS     0H
 000F56 41F0 0004            00004  5151     877.              LA     R15,4             SET ABORT CODE
 000F5A 47F0 72EA            00F60  5152     878.              B      IXREXIT
-000F5E 1BFF                        5154     880.     IXRSOK   SR    R15,R15             OTHERWISE ALL OK
0000F60 18D8/982A D004       00004  5156     882.     IXREXIT  XEXIT SR,TBLPTR,*
 000F66 58E0 D000/12FF       00000  5159             +
 000F6C 07FE                        5161             +
1SRES     DOIXR : WORK AREAS AND DCBS                                                                                       Page   41
0Current Usings:  (*,R7) (SFRTABLE,R10) (SFRWA,R11) (*,R12)
0Loc    Object Code    Addr1 Addr2  Stmt Lv Lineno    Source Statement           (Hibal 5, Asmedit 3.3)  HLASM R4.0  2004/03/22 09.44
+___    ______ ____    _____ _____  ____ __ ______    ______ _________
0000F70                             5163     884.              DS    0D
 000F70 0000000000000000            5164     885.     MINIREC  DC    XL(MINILEN)'00'
 000F80                             5165     886.              DS    0D
 000F80 0000000000000000            5166     887.     SFRAREA  DC    (L'SFRBLOCK)X'00'
-                                   5168     889.              PRINT NOGEN
 0017B8 0000000000000000            5170     890.     IXRIN    DCB   MACRF=(GM),DSORG=PS,DDNAME=IXRIN,EODAD=IXREOF
 001818 0000000000000000            5212     891.     IXROUT   DCB   MACRF=(PM),DSORG=PS,DDNAME=SORTIN,LRECL=MINILEN
                                    5254     892.              PRINT GEN
-001878                             5257     894.              LTORG ,
 001878 00000001                    5259                             =A(1)
 00187C 00000294                    5260                             =A(IXRNT#)
 001880 00000000                    5261                             =V(SORT)
 001884 00000000                    5262                             =V(VSEG)
 001888 00000000                    5263                             =V(VWRITE)
 00188C 00A8                        5264                             =Y(L'SFRTABLE)
 00188E C5D9D9D6D940C9D5            5265                             =C'ERROR IN SORTING INDEX RECORDS'
 0018AC 407A40C6C9D3C540            5266                             =C' : FILE COULD NOT BE OPENED'
1SRES     SORT : INTERFACE ROUTINE TO VS SORT/MERGE                                                                         Page   42
0Current Usings:  (*,R7) (SFRTABLE,R10) (SFRWA,R11) (*,R12)
0Loc    Object Code    Addr1 Addr2  Stmt Lv Lineno    Source Statement           (Hibal 5, Asmedit 3.3)  HLASM R4.0  2004/03/22 09.44
+___    ______ ____    _____ _____  ____ __ ______    ______ _________
00018C7 00/50E0 D000         00000  5271     896.     SORT     XENTER R7,R8,*
 0018CC 9078 D004/188D       00004  5274             +
 0018D2 41D0 D00C/0D70       0000C  5276             +
 0018D8 4110 7028            01900  5294     897.              LA    R1,SORTPARM         POINT TO SORT PARM LIST
 DROP   *,R7
 USING  *,R7
 0018DC 45F0 7018            018F0  5295     898.              LINK  EP=SORT             CALL SORT/MERGE
 0018E0 000018E8                    5300             +
 0018E4 00000000                    5301             +
 0018E8 E2D6D9E340404040            5302             +
 0018F0 0A06                        5303             +
 0018F2 18D8/9878 D004       00004  5304     899.              XEXIT R7,R8,*             RETURN AND SET COND CODE
 0018F8 58E0 D000/12FF       00000  5307             +
 0018FE 07FE                        5309             +
-                                   5311     901.     *
                                    5312     902.     *        SORT PARAMETER LISTS
                                    5313     903.     *
 001900                             5314     904.     SORTPARM DS    0F
 001900 80001906                    5315     905.              DC    X'80',AL3(SORTLIST)
-001904 0700                        5317     907.              CNOP  2,4
 001906 0020                        5318     908.     SORTLIST DC    AL2(SLISTLEN-2)     LENGTH OF LIST
 001908 00001928                    5319     909.              DC    A(SORTSTMT)         PTR TO START OF SORT STMT
 00190C 0000193F                    5320     910.              DC    A(SORTSTMT+L'SORTSTMT-1) PTR TO END OF STMT
 001910 00001940                    5321     911.              DC    A(RECSTMT)          PTR TO RECORD STMT
 001914 0000195A                    5322     912.              DC    A(RECSTMT+L'RECSTMT-1)   PTR TO END OF STMT
 001918 00000000                    5323     913.              DC    A(0)                NO EXIT HERE
 00191C 00000000                    5324     914.              DC    A(0)                OR HERE EITHER
 001920 00080000                    5325     915.              DC    X'00',AL3(512*1024)  MAIN STORAGE SIZE
 001924 FF                          5326     916.              DC    X'FF'               MESSAGE OPTION
 001925 4DC95D                      5327     917.              DC    C'(I)'              MESSAGE OPTION
                                    5328     918.     SLISTLEN EQU   *-SORTLIST
-001928 40E2D6D9E340C6C9            5330     920.     SORTSTMT DC    C' SORT FIELDS=(1,4,BI,A) '
 001940 40D9C5C3D6D9C440            5331     921.     RECSTMT  DC    C' RECORD TYPE=F,LENGTH=(12) '
1SRES     ATTFILES : ROUTINE TO ATTACH FILES                                                                                Page   43
0Current Usings:  (*,R7) (SFRTABLE,R10) (SFRWA,R11) (*,R12)
0Loc    Object Code    Addr1 Addr2  Stmt Lv Lineno    Source Statement           (Hibal 5, Asmedit 3.3)  HLASM R4.0  2004/03/22 09.44
+___    ______ ____    _____ _____  ____ __ ______    ______ _________
000195B 00/50E0 D000         00000  5333     923.     ATTFILES XENTER SR,TBLPTR,*
 001960 902A D004/188D       00004  5336             +
 001966 41D0 D028/0D70       00028  5338             +
 00196C 58A0 B03C            0003C  5356     924.              L     TBLPTR,FILETABS         Init table ptr
 DROP   *,R7
 USING  *,R7
 001970 5820 B028            00028  5357     925.              L     CTR1,NUMNTRYS           Get counter for loop
 001974 1222                        5358     926.              LTR   CTR1,CTR1               Anything left to do?
 001976 47D0 7A50            023BC  5359     927.              BNP   ATTABRT                 Nope, skip out
000197A                             5361     929.     LOOPA    LABEL ,
 00197A 9104 A001      00001        5363     930.              IF    DONOTDO,LOOPAINC        Do we bypass this file
 00197E 4710 7048            019B4  5375             +
 001982                             5381     931.              IF    ((SNUMSIXR,NZ),OR,(SNUMMIXR,NZ)),ATTACHIT  Attach file
 001982 D603 A070 A070 00070 00070  5393             +
 001988 4770 7054            019C0  5396             +
 00198C D603 A074 A074 00074 00074  5406             +
 001992 4770 7054            019C0  5409             +
 001996                             5415     932.              IF    (SNUMHYBR,NZ),ATTACHIT  Hybrid
 001996 D603 A078 A078 00078 00078  5425             +
 00199C 4770 7054            019C0  5428             +
 0019A0 9604 A001      00001        5434     933.              SET   DONOTDO                 Otherwise don't attach this fILE
 0019A4 41F0 0004            00004  5440     934.              LA    R15,NOTFOUND            Indicate file not found
 0019A8 40F0 A00E            0000E  5441     935.              SETRC R15,SBRETCOD,LOOKUP     And set error code
 0019AC 9207 A00D      0000D        5443             +
 0019B0 9200 A00C      0000C        5444             +
 0019B4                             5445     936.     LOOPAINC LABEL ,
 0019B4 41A0 A0A8            000A8  5447     937.              LA    TBLPTR,SFRNEXT          Next entry please
 0019B8 4620 700E            0197A  5448     938.              BCT   CTR1,LOOPA              Continue until done
 0019BC 47F0 7A32            0239E  5449     939.              B     ATTDONE                 Go finish up
 0019C0                             5450     940.     ATTACHIT LABEL ,
 0019C0 4100 0002            00002  5452     941.              ATTACH 2,SRENAME,L:SRENAMEL,MODE=OLD
 0019C4 4110 A03C            0003C  5466             +
 0019C8 58F0 A06C/13FF       0006C  5471             +
 0019CE 1BEE/90E1 706C       019D8  5476             +
 0019D4 4510 707C            019E8  5480             +
 0019D8 0000000000000000            5481             +
 0019E8 4100 0000            00000  5482             +
 0019EC 58F0 7D34/05EF       026A0  5483             +
 0019F2 98E1 1000            00000  5485             +
 0019F6 40F0 A00E            0000E  5487     942.              SETRC R15,SBRETCOD,ATTOLDF
 0019FA 9201 A00D      0000D        5489             +
 0019FE 9200 A00C      0000C        5490             +
 001A02 59F0 7D38            026A4  5491     943.              IF    ((R15,NE,0),AND,(R15,NE,4)),FORGETIT
 001A06 4780 70A6            01A12  5505             +
 001A0A 59F0 7D3C            026A8  5518             +
 001A0E 4770 77EA            02156  5521             +
 001A12 5000 A008            00008  5527     944.              ST    R0,SBORVID              SAVE FILE ID
 001A16 0700/90E1 70B4       01A20  5528     945.              WAIT  (0)
 001A1C 4510 70C4            01A30  5537             +
 001A20 0000000000000000            5538             +
 001A30 4100 0034            00034  5539             +
 001A34 58F0 7D34/05EF       026A0  5540             +
 001A3A 98E1 1000            00000  5542             +
1SRES     ATTFILES : ROUTINE TO ATTACH FILES                                                                                Page   44
0Current Usings:  (*,R7) (SFRTABLE,R10) (SFRWA,R11) (*,R12)
0Loc    Object Code    Addr1 Addr2  Stmt Lv Lineno    Source Statement           (Hibal 5, Asmedit 3.3)  HLASM R4.0  2004/03/22 09.44
+___    ______ ____    _____ _____  ____ __ ______    ______ _________
0001A3E 40F0 A00E            0000E  5543     946.              SETRC R15,SBRETCOD,ATTOWAIT
 001A42 9203 A00D      0000D        5545             +
 001A46 9200 A00C      0000C        5546             +
 001A4A 12FF/4780 7100       01A6C  5547     947.              IF    (R15,ZERO),FEXIST       FILE IS THERE
 001A50 59F0 7D40            026AC  5564     948.              IF    (R15,EQ,16),FNEW        FILE NOT FOUND
 001A54 4780 73FC            01D68  5578             +
                                    5584     949.     *  Attach errors
                                    5585     950.     *    System overflow
 001A58 59F0 7D44            026B0  5586     951.              IF    ((R15,EQ,24),OR,(R15,EQ,28)),ATTABRT
 001A5C 4780 7A50            023BC  5602             +
 001A60 59F0 7D48            026B4  5613             +
 001A64 4780 7A50            023BC  5616             +
                                    5622     952.     *    Other errors
 001A68 47F0 77EA            02156  5623     953.              B     FORGETIT
 001A6C                             5624     954.     FEXIST   BEGIN ,                       FILE ALREADY EXISTS
 001A6C 9180 A001      00001        5629  1  955.                IF    ~REPLACE,BEGIN          - OOPS
 001A70 4710 711C            01A88  5639  1          +
 001A74 41F0 0014            00014  5644  2  956.                  LA    R15,NOREP               INDICATE CAN'T REPLACE
 001A78 40F0 A00E            0000E  5645  2  957.                  SETRC R15,SBRETCOD,ATTOWAIT   |
 001A7C 9203 A00D      0000D        5647  2          +
 001A80 9200 A00C      0000C        5648  2          +
 001A84 47F0 77EA            02156  5649  2  958.                  B     FORGETIT
 001A88                             5650  1  959.                END   ,
 001A88 5800 A008            00008  5654  1  960.                CONTROL L:SBORVID,20
 001A8C 4110 0014            00014  5666  1          +
 001A90 90E1 712C            01A98  5675  1          +
 001A94 4510 713C            01AA8  5676  1          +
 001A98 0000000000000000            5677  1          +
 001AA8 4100 0008            00008  5678  1          +
 001AAC 58F0 7D34/05EF       026A0  5679  1          +
 001AB2 98E1 1000            00000  5681  1          +
 001AB6 4770 77EA            02156  5683  1  961.                BNZ   FORGETIT
 001ABA 0700/90E1 7158       01AC4  5684  1  962.                WAIT  (0)
 001AC0 4510 7168            01AD4  5693  1          +
 001AC4 0000000000000000            5694  1          +
 001AD4 4100 0034            00034  5695  1          +
 001AD8 58F0 7D34/05EF       026A0  5696  1          +
 001ADE 98E1 1000            00000  5698  1          +
 001AE2 12FF/4770 7204       01B70  5699  1  963.                IF    (R15,ZERO),BEGIN        IXR'D FILE EXISTS
 001AE8 9140 A001      00001        5713  2  964.                  IF    OUTNIXR,BEGIN           NON-IXR'D FILE WANTED
 001AEC 47E0 7204            01B70  5723  2          +
 001AF0 5800 A008            00008  5728  3  965.                    CONTROL L:SBORVID,8,0         ERASE THIS FILE & CREATE ~IXR
 001AF4 4110 0008/1BFF       00008  5740  3          +
 001AFA 0700/90E1 7198       01B04  5749  3          +
 001B00 4510 71A8            01B14  5751  3          +
 001B04 0000000000000000            5752  3          +
 001B14 4100 0008            00008  5753  3          +
 001B18 58F0 7D34/05EF       026A0  5754  3          +
 001B1E 98E1 1000            00000  5756  3          +
 001B22 40F0 A00E            0000E  5758  3  966.                    SETRC R15,SBRETCOD,ERASE
 001B26 920A A00D      0000D        5760  3          +
 001B2A 9200 A00C      0000C        5761  3          +
 001B2E 12FF/4770 77EA       02156  5762  3  967.                    IF    (R15,NZ),FORGETIT
 001B34 90E1 71D0            01B3C  5779  3  968.                    WAIT  (0)
1SRES     ATTFILES : ROUTINE TO ATTACH FILES                                                                                Page   45
0Current Usings:  (*,R7) (SFRTABLE,R10) (SFRWA,R11) (*,R12)
0Loc    Object Code    Addr1 Addr2  Stmt Lv Lineno    Source Statement           (Hibal 5, Asmedit 3.3)  HLASM R4.0  2004/03/22 09.44
+___    ______ ____    _____ _____  ____ __ ______    ______ _________
0001B38 4510 71E0            01B4C  5788  3          +
 001B3C 0000000000000000            5789  3          +
 001B4C 4100 0034            00034  5790  3          +
 001B50 58F0 7D34/05EF       026A0  5791  3          +
 001B56 98E1 1000            00000  5793  3          +
 001B5A 40F0 A00E            0000E  5794  3  969.                    SETRC R15,SBRETCOD,ERAWAIT
 001B5E 920B A00D      0000D        5796  3          +
 001B62 9200 A00C      0000C        5797  3          +
 001B66 12FF/4770 77EA       02156  5798  3  970.                    IF    (R15,NZ),FORGETIT
 001B6C 4D90 78F6            02262  5815  3  971.                    BAS   LINK1,NIXCRE            CREATE NON IXR'D
 001B70                             5816  2  972.                  END   ,                       OF NON-IXR'D FILE WANTED
 001B70                             5820  1  973.                END   ,                       OF IXR'D FILE EXISTS
 001B70 7208           01B70 01AE6  5824  1  974.                ELSEIF (R15,EQ,12),BEGIN      NON-IXR'D FILE EXISTS
 001B70 47F0 73F8            01D64  5830  1          +
 001B74 59F0 7D4C            026B8  5844  1          +
 001B78 4770 73F8            01D64  5845  1          +
 001B7C 9140 A001      00001        5850  2  975.                  IF    OUTNIXR,BEGIN           NON-IXR'D FILE WANTED
 001B80 47E0 72DC            01C48  5860  2          +
 001B84 5800 A008            00008  5865  3  976.                    CONTROL L:SBORVID,6           CHECK FOR EQUAL BLOCK NUMBERS
 001B88 4110 0006            00006  5877  3          +
 001B8C 90E1 7228            01B94  5886  3          +
 001B90 4510 7238            01BA4  5887  3          +
 001B94 0000000000000000            5888  3          +
 001BA4 4100 0008            00008  5889  3          +
 001BA8 58F0 7D34/05EF       026A0  5890  3          +
 001BAE 98E1 1000            00000  5892  3          +
 001BB2 12FF/4770 77EA       02156  5894  3  977.                    IF    (R15,NZ),FORGETIT
 001BB8 4590 7746            020B2  5911  3  978.                    BAL   LINK1,ATCWAIT
 001BBC 4770 77EA            02156  5912  3  979.                    BNZ   FORGETIT
 001BC0 5910 A07C            0007C  5913  3  980.                    IF    (R1,NE,SUSERREC),BEGIN  MISMATCH, ERASE AND RECREATE
 001BC4 4780 72DC            01C48  5925  3          +
 001BC8 5800 A008            00008  5930  4  981.                      CONTROL L:SBORVID,8,0         ERASE THIS FILE
 001BCC 4110 0008/1BFF       00008  5942  4          +
 001BD2 0700/90E1 7270       01BDC  5951  4          +
 001BD8 4510 7280            01BEC  5953  4          +
 001BDC 0000000000000000            5954  4          +
 001BEC 4100 0008            00008  5955  4          +
 001BF0 58F0 7D34/05EF       026A0  5956  4          +
 001BF6 98E1 1000            00000  5958  4          +
 001BFA 40F0 A00E            0000E  5960  4  982.                      SETRC R15,SBRETCOD,ERASE
 001BFE 920A A00D      0000D        5962  4          +
 001C02 9200 A00C      0000C        5963  4          +
 001C06 12FF/4770 77EA       02156  5964  4  983.                      IF    (R15,NZ),FORGETIT
 001C0C 90E1 72A8            01C14  5981  4  984.                      WAIT  (0)
 001C10 4510 72B8            01C24  5990  4          +
 001C14 0000000000000000            5991  4          +
 001C24 4100 0034            00034  5992  4          +
 001C28 58F0 7D34/05EF       026A0  5993  4          +
 001C2E 98E1 1000            00000  5995  4          +
 001C32 40F0 A00E            0000E  5996  4  985.                      SETRC R15,SBRETCOD,ERAWAIT
 001C36 920B A00D      0000D        5998  4          +
 001C3A 9200 A00C      0000C        5999  4          +
 001C3E 12FF/4770 77EA       02156  6000  4  986.                      IF    (R15,NZ),FORGETIT
 001C44 4D90 78F6            02262  6017  4  987.                      BAS   LINK1,NIXCRE            CREATE NON IXR'D
1SRES     ATTFILES : ROUTINE TO ATTACH FILES                                                                                Page   46
0Current Usings:  (*,R7) (SFRTABLE,R10) (SFRWA,R11) (*,R12)
0Loc    Object Code    Addr1 Addr2  Stmt Lv Lineno    Source Statement           (Hibal 5, Asmedit 3.3)  HLASM R4.0  2004/03/22 09.44
+___    ______ ____    _____ _____  ____ __ ______    ______ _________
0001C48                             6018  3  988.                    END   ,                       OF MISMATCH, ERASE AND RECREATE
 001C48                             6022  2  989.                  END   ,                       OF NON-IXR'D FILE WANTED
 001C48 72E0           01C48 01B82  6026  2  990.                  ELSE  BEGIN                   IXR'D FILE WANTED
 001C48 47F0 73F8            01D64  6031  2          +
 001C4C 5800 A008            00008  6037  3  991.                    CONTROL L:SBORVID,8,0         ERASE THIS FILE & CREATE IXR'D
 001C50 4110 0008/1BFF       00008  6049  3          +
 001C56 0700/90E1 72F4       01C60  6058  3          +
 001C5C 4510 7304            01C70  6060  3          +
 001C60 0000000000000000            6061  3          +
 001C70 4100 0008            00008  6062  3          +
 001C74 58F0 7D34/05EF       026A0  6063  3          +
 001C7A 98E1 1000            00000  6065  3          +
 001C7E 40F0 A00E            0000E  6067  3  992.                    SETRC R15,SBRETCOD,ERASE
 001C82 920A A00D      0000D        6069  3          +
 001C86 9200 A00C      0000C        6070  3          +
 001C8A 12FF/4770 77EA       02156  6071  3  993.                    IF    (R15,NZ),FORGETIT
 001C90 90E1 732C            01C98  6088  3  994.                    WAIT  (0)
 001C94 4510 733C            01CA8  6097  3          +
 001C98 0000000000000000            6098  3          +
 001CA8 4100 0034            00034  6099  3          +
 001CAC 58F0 7D34/05EF       026A0  6100  3          +
 001CB2 98E1 1000            00000  6102  3          +
 001CB6 40F0 A00E            0000E  6103  3  995.                    SETRC R15,SBRETCOD,ERAWAIT
 001CBA 920B A00D      0000D        6105  3          +
 001CBE 9200 A00C      0000C        6106  3          +
 001CC2 12FF/4770 77EA       02156  6107  3  996.                    IF    (R15,NZ),FORGETIT
 001CC8 4100 0002            00002  6124  3  997.                    ATTACH 2,SRENAME,L:SRENAMEL
 001CCC 4110 A03C            0003C  6138  3          +
 001CD0 58F0 A06C/1BEE       0006C  6143  3          +
 001CD6 0700/90E1 7374       01CE0  6149  3          +
 001CDC 4510 7384            01CF0  6151  3          +
 001CE0 0000000000000000            6152  3          +
 001CF0 4100 0000            00000  6153  3          +
 001CF4 58F0 7D34/05EF       026A0  6154  3          +
 001CFA 98E1 1000            00000  6156  3          +
 001CFE 40F0 A00E            0000E  6158  3  998.                    SETRC R15,SBRETCOD,ATTNEW
 001D02 9200 A00D      0000D        6160  3          +
 001D06 9200 A00C      0000C        6161  3          +
 001D0A 12FF/4780 73AC       01D18  6162  3  999.                    IF    ((R15,NZ),AND,(R15,NE,4)),FORGETIT
 001D10 59F0 7D3C            026A8  6186  3          +
 001D14 4770 77EA            02156  6189  3          +
 001D18 5000 A008            00008  6195  3 1000.                    ST    R0,SBORVID
 001D1C 90E1 73B8            01D24  6196  3 1001.                    WAIT  (0)
 001D20 4510 73C8            01D34  6205  3          +
 001D24 0000000000000000            6206  3          +
 001D34 4100 0034            00034  6207  3          +
 001D38 58F0 7D34/05EF       026A0  6208  3          +
 001D3E 98E1 1000            00000  6210  3          +
 001D42 40F0 A00E            0000E  6211  3 1002.                    SETRC R15,SBRETCOD,ATTNWAIT
 001D46 9202 A00D      0000D        6213  3          +
 001D4A 9200 A00C      0000C        6214  3          +
                                    6215  3 1003.     *  System attach errors
 001D4E 59F0 7D44            026B0  6216  3 1004.                    IF    ((R15,EQ,24),OR,(R15,EQ,28)),ATTABRT
 001D52 4780 7A50            023BC  6232  3          +
1SRES     ATTFILES : ROUTINE TO ATTACH FILES                                                                                Page   47
0Current Usings:  (*,R7) (SFRTABLE,R10) (SFRWA,R11) (*,R12)
0Loc    Object Code    Addr1 Addr2  Stmt Lv Lineno    Source Statement           (Hibal 5, Asmedit 3.3)  HLASM R4.0  2004/03/22 09.44
+___    ______ ____    _____ _____  ____ __ ______    ______ _________
0001D56 59F0 7D48            026B4  6243  3          +
 001D5A 4780 7A50            023BC  6246  3          +
 001D5E 12FF/4770 77EA       02156  6252  3 1005.                    IF    (R15,NZ),FORGETIT
 001D64                             6269  2 1006.                  END   ,                       OF IXR'D FILE WANTED
 001D64                             6273  1 1007.                END   ,                       OF NON-IXR'D FILE EXISTS
 001D64                             6277    1008.              END   ,                       OF FILE ALREADY EXISTS
 001D64 47F0 75E4            01F50  6281    1009.              B     ASCRATCH
 001D68                             6282    1010.     FNEW     BEGIN ,                       FILE WILL BE NEW
 001D68 9140 A001      00001        6287  1 1011.                IF    OUTNIXR,BEGIN           OUTPUT WILL BE NON-IXR'D
 001D6C 47E0 7408            01D74  6297  1          +
 001D70 4D90 78F6            02262  6302  2 1012.                  BAS   LINK1,NIXCRE            CREATE NON IXR'D
 001D74                             6303  1 1013.                END   ,                       OF OUTPUT WILL BE NON-IXR'D
 001D74 740C           01D74 01D6E  6307  1 1014.                ELSEIF INHYBR,BEGIN           ONLY HYBRID TO HYBRID SUPPORTED
 001D74 47F0 7544            01EB0  6313  1          +
 001D78 9108 A001      00001        6325  1          +
 001D7C 47E0 7544            01EB0  6326  1          +
 001D80 58E0 A078            00078  6331  2 1015.                  L     R14,SNUMHYBR            GET NUMBER OF IXR'S NEEDED
 001D84 4CE0 7D70            026DC  6332  2 1016.                  MH    R14,=Y(IXRNT#)          MUST BE SPECIFIED IN USER BLKS
 001D88 4100 0007            00007  6333  2 1017.                  STATUS 7,SRENAME,L:SRENAMEL,(R14) CREATE HYBRID FILE
 001D8C 4110 A03C            0003C  6347  2          +
 001D90 58F0 A06C            0006C  6352  2          +
 001D94 90E1 7430            01D9C  6359  2          +
 001D98 4510 7440            01DAC  6360  2          +
 001D9C 0000000000000000            6361  2          +
 001DAC 4100 0030            00030  6362  2          +
 001DB0 58F0 7D34/05EF       026A0  6363  2          +
 001DB6 98E1 1000            00000  6365  2          +
 001DBA 40F0 A00E            0000E  6366  2 1018.                  SETRC R15,SBRETCOD,CREATE
 001DBE 9208 A00D      0000D        6368  2          +
 001DC2 9200 A00C      0000C        6369  2          +
 001DC6 12FF/4770 77EA       02156  6370  2 1019.                  IF    (R15,NZ),FORGETIT
 001DCC 90E1 7468            01DD4  6387  2 1020.                  WAIT  (0)
 001DD0 4510 7478            01DE4  6396  2          +
 001DD4 0000000000000000            6397  2          +
 001DE4 4100 0034            00034  6398  2          +
 001DE8 58F0 7D34/05EF       026A0  6399  2          +
 001DEE 98E1 1000            00000  6401  2          +
 001DF2 40F0 A00E            0000E  6402  2 1021.                  SETRC R15,SBRETCOD,CREWAIT
 001DF6 9209 A00D      0000D        6404  2          +
 001DFA 9200 A00C      0000C        6405  2          +
 001DFE 59F0 7D4C            026B8  6406  2 1022.                  IF    (R15,EQ,12),STOPNOW     - DIRECTORY FULL
 001E02 4780 78EE            0225A  6420  2          +
 001E06 12FF/4770 77EA       02156  6426  2 1023.                  IF    (R15,NZ),FORGETIT       - ANY OTHER FAILURE
 001E0C 4100 0002            00002  6443  2 1024.                  ATTACH 2,SRENAME,L:SRENAMEL,MODE=OLD
 001E10 4110 A03C            0003C  6457  2          +
 001E14 58F0 A06C/13FF       0006C  6462  2          +
 001E1A 1BEE/90E1 74B8       01E24  6467  2          +
 001E20 4510 74C8            01E34  6471  2          +
 001E24 0000000000000000            6472  2          +
 001E34 4100 0000            00000  6473  2          +
 001E38 58F0 7D34/05EF       026A0  6474  2          +
 001E3E 98E1 1000            00000  6476  2          +
 001E42 40F0 A00E            0000E  6478  2 1025.                  SETRC R15,SBRETCOD,ATTOLDF
 001E46 9201 A00D      0000D        6480  2          +
1SRES     ATTFILES : ROUTINE TO ATTACH FILES                                                                                Page   48
0Current Usings:  (*,R7) (SFRTABLE,R10) (SFRWA,R11) (*,R12)
0Loc    Object Code    Addr1 Addr2  Stmt Lv Lineno    Source Statement           (Hibal 5, Asmedit 3.3)  HLASM R4.0  2004/03/22 09.44
+___    ______ ____    _____ _____  ____ __ ______    ______ _________
0001E4A 9200 A00C      0000C        6481  2          +
 001E4E 59F0 7D38            026A4  6482  2 1026.                  IF    ((R15,NE,0),AND,(R15,NE,4)),FORGETIT
 001E52 4780 74F2            01E5E  6496  2          +
 001E56 59F0 7D3C            026A8  6509  2          +
 001E5A 4770 77EA            02156  6512  2          +
 001E5E 5000 A008            00008  6518  2 1027.                  ST    R0,SBORVID              SAVE DEVICE ID
 001E62 0700/90E1 7500       01E6C  6519  2 1028.                  WAIT  (0)
 001E68 4510 7510            01E7C  6528  2          +
 001E6C 0000000000000000            6529  2          +
 001E7C 4100 0034            00034  6530  2          +
 001E80 58F0 7D34/05EF       026A0  6531  2          +
 001E86 98E1 1000            00000  6533  2          +
 001E8A 40F0 A00E            0000E  6534  2 1029.                  SETRC R15,SBRETCOD,ATTOWAIT
 001E8E 9203 A00D      0000D        6536  2          +
 001E92 9200 A00C      0000C        6537  2          +
 001E96 12FF/4780 7544       01EB0  6538  2 1030.                  IF    (R15,NZ),BEGIN          ERROR
 001E9C 59F0 7D44            026B0  6552  3 1031.                    IF    ((R15,EQ,24),OR,(R15,EQ,28)),ATTABRT
 001EA0 4780 7A50            023BC  6568  3          +
 001EA4 59F0 7D48            026B4  6579  3          +
 001EA8 4780 7A50            023BC  6582  3          +
 001EAC 47F0 77EA            02156  6588  3 1032.                    B     FORGETIT
 001EB0                             6589  2 1033.                  END   ,                       ERROR
 001EB0                             6593  1 1034.                END   ,                       ONLY HYBRID TO HYBRID SUPPORTED
 001EB0 7548           01EB0 01D7E  6597  1 1035.                ELSE  BEGIN                   OUTPUT WILL BE IXR'D
 001EB0 47F0 75E4            01F50  6602  1          +
 001EB4 4100 0002            00002  6608  2 1036.                  ATTACH 2,SRENAME,L:SRENAMEL
 001EB8 4110 A03C            0003C  6622  2          +
 001EBC 58F0 A06C/1BEE       0006C  6627  2          +
 001EC2 0700/90E1 7560       01ECC  6633  2          +
 001EC8 4510 7570            01EDC  6635  2          +
 001ECC 0000000000000000            6636  2          +
 001EDC 4100 0000            00000  6637  2          +
 001EE0 58F0 7D34/05EF       026A0  6638  2          +
 001EE6 98E1 1000            00000  6640  2          +
 001EEA 40F0 A00E            0000E  6642  2 1037.                  SETRC R15,SBRETCOD,ATTNEW
 001EEE 9200 A00D      0000D        6644  2          +
 001EF2 9200 A00C      0000C        6645  2          +
 001EF6 12FF/4780 7598       01F04  6646  2 1038.                  IF    ((R15,NZ),AND,(R15,NE,4)),FORGETIT
 001EFC 59F0 7D3C            026A8  6670  2          +
 001F00 4770 77EA            02156  6673  2          +
 001F04 5000 A008            00008  6679  2 1039.                  ST    R0,SBORVID
 001F08 90E1 75A4            01F10  6680  2 1040.                  WAIT  (0)
 001F0C 4510 75B4            01F20  6689  2          +
 001F10 0000000000000000            6690  2          +
 001F20 4100 0034            00034  6691  2          +
 001F24 58F0 7D34/05EF       026A0  6692  2          +
 001F2A 98E1 1000            00000  6694  2          +
 001F2E 40F0 A00E            0000E  6695  2 1041.                  SETRC R15,SBRETCOD,ATTNWAIT
 001F32 9202 A00D      0000D        6697  2          +
 001F36 9200 A00C      0000C        6698  2          +
                                    6699  2 1042.     *  System attach errors
 001F3A 59F0 7D44            026B0  6700  2 1043.                  IF    ((R15,EQ,24),OR,(R15,EQ,28)),ATTABRT
 001F3E 4780 7A50            023BC  6716  2          +
 001F42 59F0 7D48            026B4  6727  2          +
1SRES     ATTFILES : ROUTINE TO ATTACH FILES                                                                                Page   49
0Current Usings:  (*,R7) (SFRTABLE,R10) (SFRWA,R11) (*,R12)
0Loc    Object Code    Addr1 Addr2  Stmt Lv Lineno    Source Statement           (Hibal 5, Asmedit 3.3)  HLASM R4.0  2004/03/22 09.44
+___    ______ ____    _____ _____  ____ __ ______    ______ _________
0001F46 4780 7A50            023BC  6730  2          +
 001F4A 12FF/4770 77EA       02156  6736  2 1044.                  IF    (R15,NZ),FORGETIT
 001F50                             6753  1 1045.                END   ,                       OF OUTPUT WILL BE IXR'D
-001F50                             6758  1 1047.     ASCRATCH   LABEL ,
 001F50 5800 A008            00008  6760  1 1048.                CONTROL L:SBORVID,11,SF_PRIVS,L'SF_PRIVS
 001F54 4110 000B            0000B  6772  1          +
 001F58 41F0 A0A0            000A0  6779  1          +
 001F5C 41E0 0007            00007  6786  1          +
 001F60 90E1 75FC            01F68  6789  1          +
 001F64 4510 760C            01F78  6790  1          +
 001F68 0000000000000000            6791  1          +
 001F78 4100 0008            00008  6792  1          +
 001F7C 58F0 7D34/05EF       026A0  6793  1          +
 001F82 98E1 1000            00000  6795  1          +
 001F86 4770 77EA            02156  6797  1 1049.                BNZ   FORGETIT            WE LOSE
 001F8A 0700/90E1 7628       01F94  6798  1 1050.                WAIT  (0)
 001F90 4510 7638            01FA4  6807  1          +
 001F94 0000000000000000            6808  1          +
 001FA4 4100 0034            00034  6809  1          +
 001FA8 58F0 7D34/05EF       026A0  6810  1          +
 001FAE 98E1 1000            00000  6812  1          +
 001FB2 4770 77EA            02156  6813  1 1051.                BNZ   FORGETIT            WE LOSE AGAIN
 001FB6 5410 7D50            026BC  6814  1 1052.                N     R1,=A(FPWRITE)      WRITES ALLOWED?
 001FBA 4770 7692            01FFE  6815  1 1053.                BNZ   ADOSCR              OK IF SO
 001FBE 5800 A008            00008  6816  1 1054.                CONTROL L:SBORVID,9,FPFWRITE,0         ASSURE PROPER FILEMASK
 001FC2 4110 0009            00009  6828  1          +
 001FC6 41F0 0007/1BEE       00007  6835  1          +
 001FCC 90E1 7668            01FD4  6842  1          +
 001FD0 4510 7678            01FE4  6843  1          +
 001FD4 0000000000000000            6844  1          +
 001FE4 4100 0008            00008  6845  1          +
 001FE8 58F0 7D34/05EF       026A0  6846  1          +
 001FEE 98E1 1000            00000  6848  1          +
 001FF2 4770 7692            01FFE  6850  1 1055.                BNZ   ADOSCR              IF NOT THE OWNER, HOPE ITS OK
 001FF6 4590 7746            020B2  6851  1 1056.                BAL   LINK1,ATCWAIT       CHECK OUT THE RESULTS
 001FFA 4770 7798            02104  6852  1 1057.                BNZ   NOSCRAT             QUIT IF SOME WIERD ERROR
                                    6853  1 1058.     *  SKIP DELETE BLKS IF RESTART or IF NON-IXR'D OUTPUT
 001FFE 9180 B036      00036        6854  1 1059.     ADOSCR     IF    (RESTART,OR,OUTNIXR),ATTACHED
 002002 4710 77F8            02164  6869  1          +
 002006 9140 A001      00001        6878  1          +
 00200A 4710 77F8            02164  6881  1          +
 00200E 5800 A008            00008  6887  1 1060.                CONTROL L:SBORVID,5       GET LAST BLOCK IN FILE
 002012 4110 0005/0700       00005  6899  1          +
 002018 90E1 76B4            02020  6908  1          +
 00201C 4510 76C4            02030  6909  1          +
 002020 0000000000000000            6910  1          +
 002030 4100 0008            00008  6911  1          +
 002034 58F0 7D34/05EF       026A0  6912  1          +
 00203A 98E1 1000            00000  6914  1          +
 00203E 4590 7746            020B2  6916  1 1061.                BAL   LINK1,ATCWAIT       CHECK OUT THE RESULTS
 002042 4770 77F8            02164  6917  1 1062.                BNZ   ATTACHED            NO BLOCKS TO ERASE
 002046 18E1                        6918  1 1063.                LR    R14,R1              SAVE LAST BLOCK
1SRES     ATTFILES : ROUTINE TO ATTACH FILES                                                                                Page   50
0Current Usings:  (*,R7) (SFRTABLE,R10) (SFRWA,R11) (*,R12)
0Loc    Object Code    Addr1 Addr2  Stmt Lv Lineno    Source Statement           (Hibal 5, Asmedit 3.3)  HLASM R4.0  2004/03/22 09.44
+___    ______ ____    _____ _____  ____ __ ______    ______ _________
0002048 5800 A008            00008  6919  1 1064.                CONTROL L:SBORVID,4       GET FIRST BLOCK IN FILE
 00204C 4110 0004            00004  6931  1          +
 002050 90E1 76EC            02058  6940  1          +
 002054 4510 76FC            02068  6941  1          +
 002058 0000000000000000            6942  1          +
 002068 4100 0008            00008  6943  1          +
 00206C 58F0 7D34/05EF       026A0  6944  1          +
 002072 98E1 1000            00000  6946  1          +
 002076 4590 7746            020B2  6948  1 1065.                BAL   LINK1,ATCWAIT       CHECK OUT THE RESULTS
 00207A 18F1                        6949  1 1066.                LR    R15,R1              SET FOR ERASE
 00207C 5800 A008            00008  6950  1 1067.                CONTROL L:SBORVID,2,(15),(14) DELETE THE BLOCKS
 002080 4110 0002            00002  6962  1          +
 002084 90E1 7720            0208C  6975  1          +
 002088 4510 7730            0209C  6976  1          +
 00208C 0000000000000000            6977  1          +
 00209C 4100 0008            00008  6978  1          +
 0020A0 58F0 7D34/05EF       026A0  6979  1          +
 0020A6 98E1 1000            00000  6981  1          +
 0020AA 4590 7746            020B2  6983  1 1068.                BAL   LINK1,ATCWAIT       CHECK OUT THE RESULTS
 0020AE 47F0 77F8            02164  6984  1 1069.                B     ATTACHED
 0020B2 0700/90E1 7750       020BC  6985  1 1070.     ATCWAIT    WAIT (0)                  WAIT FOR COMPLETION
 0020B8 4510 7760            020CC  6995  1          +
 0020BC 0000000000000000            6996  1          +
 0020CC 4100 0034            00034  6997  1          +
 0020D0 58F0 7D34/05EF       026A0  6998  1          +
 0020D6 98E1 1000            00000  7000  1          +
 0020DA 40F0 A00E            0000E  7001  1 1071.                SETRC R15,SBRETCOD,SCRATCH  SAVE RETURN CODE
 0020DE 9204 A00D      0000D        7003  1          +
 0020E2 9200 A00C      0000C        7004  1          +
 0020E6 12FF                        7005  1 1072.                LTR   R15,R15             TEST RETURN CODE
 0020E8 4740 77EA            02156  7006  1 1073.                BM    FORGETIT            PERMANENT I/O ERROR
 0020EC 47FF 7784            020F0  7007  1 1074.                B     *+4(R15)            BRANCH ON RETURN CODE
 0020F0 47F0 9000            00000  7008  1 1075.                B     0(,LINK1)           0 - SUCCESSFUL RETURN
 0020F4 47F0 7798            02104  7009  1 1076.                B     NOSCRAT             4 - FILE NOT AVAILABLE
 0020F8 47F0 7798            02104  7010  1 1077.                B     NOSCRAT             8 - ACCESS NOT PERMITTED
 0020FC 47F0 9000            00000  7011  1 1078.                B     0(,LINK1)           12 - UNSUCCESSFUL RETURN
 002100 47F0 7798            02104  7012  1 1079.                B     NOSCRAT             16 - NO MORE SPACE IN DIRECTORY
                                    7013  1 1080.     *
                                    7014  1 1081.     *  WE HAVE TO DETACH FILE WE SUCESSFULLY ATTACHED, BUT COULD NOT
                                    7015  1 1082.     *  SCRATCH.
                                    7016  1 1083.     *
 002104                             7017  1 1084.     NOSCRAT    LABEL ,
 002104 5800 A008            00008  7019  1 1085.                DETACH SBORVID            DETACH THIS ORVYL DEVICE
 002108 90E1 77A4            02110  7027  1          +
 00210C 4510 77B4            02120  7028  1          +
 002110 0000000000000000            7029  1          +
 002120 4100 000C            0000C  7030  1          +
 002124 58F0 7D34/05EF       026A0  7031  1          +
 00212A 98E1 1000            00000  7033  1          +
 00212E 0700/90E1 77CC       02138  7034  1 1086.                WAIT (0)                  WAIT FOR COMPLETION
 002134 4510 77DC            02148  7043  1          +
 002138 0000000000000000            7044  1          +
 002148 4100 0034            00034  7045  1          +
 00214C 58F0 7D34/05EF       026A0  7046  1          +
1SRES     ATTFILES : ROUTINE TO ATTACH FILES                                                                                Page   51
0Current Usings:  (*,R7) (SFRTABLE,R10) (SFRWA,R11) (*,R12)
0Loc    Object Code    Addr1 Addr2  Stmt Lv Lineno    Source Statement           (Hibal 5, Asmedit 3.3)  HLASM R4.0  2004/03/22 09.44
+___    ______ ____    _____ _____  ____ __ ______    ______ _________
0002152 98E1 1000            00000  7048  1          +
-002156 D703 A008 A008 00008 00008  7050  1 1088.     FORGETIT   XC    SBORVID,SBORVID     ZERO OUT DEVICE ADDRESS AGAIN
 00215C 94FD A001      00001        7051  1 1089.                CLEAR ATTACH                   TURN OFF ATTACHED FLAG
 002160 47F0 7048            019B4  7058  1 1090.                B     LOOPAINC            GO PROCESS NEXT ENTRY
1SRES     ORVYL FILE SYSTEM SELECTIVE RESTORE                                                                               Page   52
0Current Usings:  (*,R7) (SFRTABLE,R10) (SFRWA,R11) (*,R12)
0Loc    Object Code    Addr1 Addr2  Stmt Lv Lineno    Source Statement           (Hibal 5, Asmedit 3.3)  HLASM R4.0  2004/03/22 09.44
+___    ______ ____    _____ _____  ____ __ ______    ______ _________
0002164                             7060  1 1092.     ATTACHED   LABEL ,
 002164 5800 A008            00008  7062  1 1093.                CONTROL L:SBORVID,10,IC:SPUBPRIV
 002168 4110 000A/1FFF       0000A  7074  1          +
 00216E 43F0 A09E/0700       0009E  7083  1          +
 002174 90E1 7810            0217C  7090  1          +
 002178 4510 7820            0218C  7091  1          +
 00217C 0000000000000000            7092  1          +
 00218C 4100 0008            00008  7093  1          +
 002190 58F0 7D34/05EF       026A0  7094  1          +
 002196 98E1 1000            00000  7096  1          +
 00219A 12FF                        7098  1 1094.                LTR   R15,R15
 00219C 4770 785A            021C6  7099  1 1095.                BNZ   ATCHON                 CLOSE ENOUGH
 0021A0 90E1 783C            021A8  7100  1 1096.                WAIT  (0)
 0021A4 4510 784C            021B8  7109  1          +
 0021A8 0000000000000000            7110  1          +
 0021B8 4100 0034            00034  7111  1          +
 0021BC 58F0 7D34/05EF       026A0  7112  1          +
 0021C2 98E1 1000            00000  7114  1          +
 0021C6 9602 A001      00001        7115  1 1097.     ATCHON     SET   ATTACH              INDICATE THIS FILE ATTACHED
 0021CA 5800 A008/1300       00008  7122  1 1098.                CONTROL L:SBORVID,14,L:SUSERFMT,MODE=(FORMAT,WAIT)
 0021D0 4110 000E/1311       0000E  7135  1          +
 0021D6 58F0 A080/0700       00080  7141  1          +
 0021DC 90E1 7878            021E4  7147  1          +
 0021E0 4510 7888            021F4  7148  1          +
 0021E4 0000000000000000            7149  1          +
 0021F4 4100 0008            00008  7150  1          +
 0021F8 58F0 7D34/05EF       026A0  7151  1          +
 0021FE 98E1 1000            00000  7153  1          +
 002202 12FF                        7155  1 1099.                LTR   R15,R15             TEST RETURN CODE
 002204 4770 78C8            02234  7156  1 1100.                BNZ   ERROR1
 002208 90E1 78A4            02210  7157  1 1101.                WAIT  (0)
 00220C 4510 78B4            02220  7166  1          +
 002210 0000000000000000            7167  1          +
 002220 4100 0034            00034  7168  1          +
 002224 58F0 7D34/05EF       026A0  7169  1          +
 00222A 98E1 1000            00000  7171  1          +
 00222E 12FF                        7172  1 1102.                LTR   R15,R15             TEST RETURN CODE
 002230 4780 7048            019B4  7173  1 1103.                BZ    LOOPAINC            GO PROCESS NEXT ENTRY
 002234 5800 A06C            0006C  7174  1 1104.     ERROR1     L     R0,SRENAMEL         GET LENGTH OF FILE NAME
 002238 4110 A03C            0003C  7175  1 1105.                VSEG  SRENAME,(0)         WRITE FILE NAME
 00223C 5890 7D54/0D99       026C0  7192  1          +
 002242 4110 7D72            026DE  7194  1 1106.                VWRITE  ': USER FORMAT NOT RESTORED'
 002246 4100 001A            0001A  7199  1          +
 00224A 5890 7D54/0D99       026C0  7202  1          +
 002250 5890 7D58/0D99       026C4  7206  1          +
 002256 47F0 7048            019B4  7208  1 1107.                B     LOOPAINC            GO PROCESS NEXT ENTRY
-00225A                             7210  1 1109.     STOPNOW    LABEL ,
 00225A 9604 A001      00001        7212  1 1110.                SET   DONOTDO             SET TO STOP PROCESSING
 00225E 47F0 7048            019B4  7218  1 1111.                B     LOOPAINC            CONTINUE WITH OTHER ATTACHES
-                                   7220  1 1113.     *  Create non-ixr'd file
1SRES     ORVYL FILE SYSTEM SELECTIVE RESTORE                                                                               Page   53
0Current Usings:  (*,R7) (SFRTABLE,R10) (SFRWA,R11) (*,R12)
0Loc    Object Code    Addr1 Addr2  Stmt Lv Lineno    Source Statement           (Hibal 5, Asmedit 3.3)  HLASM R4.0  2004/03/22 09.44
+___    ______ ____    _____ _____  ____ __ ______    ______ _________
0                                   7221  1 1114.     *
 002262                             7222  1 1115.     NIXCRE     LABEL ,
 002262 9101 A001      00001        7224  1 1116.                IF    NIXRSZ,BEGIN        USE OVERIDE ALLOCATION
 002266 47E0 7906            02272  7234  1          +
 00226A 58F0 A004            00004  7239  2 1117.                  L     R15,SBNIXRSZ        SET OVERIDE ALLOCATION VALUE
 00226E 50F0 A07C            0007C  7240  2 1118.                  ST    R15,SUSERREC        RESET SIZE OF FILE
 002272                             7241  1 1119.                END   ,
 002272 4100 0006            00006  7245  1 1120.                STATUS 6,SRENAME,L:SRENAMEL,L:SUSERREC
 002276 4110 A03C            0003C  7259  1          +
 00227A 58F0 A06C            0006C  7264  1          +
 00227E 58E0 A07C/0700       0007C  7269  1          +
 002284 90E1 7920            0228C  7272  1          +
 002288 4510 7930            0229C  7273  1          +
 00228C 0000000000000000            7274  1          +
 00229C 4100 0030            00030  7275  1          +
 0022A0 58F0 7D34/05EF       026A0  7276  1          +
 0022A6 98E1 1000            00000  7278  1          +
 0022AA 40F0 A00E            0000E  7279  1 1121.                SETRC R15,SBRETCOD,CREATE
 0022AE 9208 A00D      0000D        7281  1          +
 0022B2 9200 A00C      0000C        7282  1          +
 0022B6 12FF/4770 77EA       02156  7283  1 1122.                IF    (R15,NZ),FORGETIT
 0022BC 90E1 7958            022C4  7300  1 1123.                WAIT  (0)
 0022C0 4510 7968            022D4  7309  1          +
 0022C4 0000000000000000            7310  1          +
 0022D4 4100 0034            00034  7311  1          +
 0022D8 58F0 7D34/05EF       026A0  7312  1          +
 0022DE 98E1 1000            00000  7314  1          +
 0022E2 40F0 A00E            0000E  7315  1 1124.                SETRC R15,SBRETCOD,CREWAIT
 0022E6 9209 A00D      0000D        7317  1          +
 0022EA 9200 A00C      0000C        7318  1          +
 0022EE 59F0 7D4C            026B8  7319  1 1125.                IF    (R15,EQ,12),STOPNOW     - DIRECTORY FULL
 0022F2 4780 78EE            0225A  7333  1          +
 0022F6 12FF/4770 77EA       02156  7339  1 1126.                IF    (R15,NZ),FORGETIT       - ANY OTHER FAILURE
 0022FC 4100 0002            00002  7356  1 1127.                ATTACH 2,SRENAME,L:SRENAMEL,MODE=OLD
 002300 4110 A03C            0003C  7370  1          +
 002304 58F0 A06C/13FF       0006C  7375  1          +
 00230A 1BEE/90E1 79A8       02314  7380  1          +
 002310 4510 79B8            02324  7384  1          +
 002314 0000000000000000            7385  1          +
 002324 4100 0000            00000  7386  1          +
 002328 58F0 7D34/05EF       026A0  7387  1          +
 00232E 98E1 1000            00000  7389  1          +
 002332 40F0 A00E            0000E  7391  1 1128.                SETRC R15,SBRETCOD,ATTOLDF
 002336 9201 A00D      0000D        7393  1          +
 00233A 9200 A00C      0000C        7394  1          +
 00233E 59F0 7D38            026A4  7395  1 1129.                IF    ((R15,NE,0),AND,(R15,NE,4)),FORGETIT
 002342 4780 79E2            0234E  7409  1          +
 002346 59F0 7D3C            026A8  7422  1          +
 00234A 4770 77EA            02156  7425  1          +
 00234E 5000 A008            00008  7431  1 1130.                ST    R0,SBORVID              SAVE DEVICE ID
 002352 0700/90E1 79F0       0235C  7432  1 1131.                WAIT  (0)
 002358 4510 7A00            0236C  7441  1          +
 00235C 0000000000000000            7442  1          +
 00236C 4100 0034            00034  7443  1          +
1SRES     ORVYL FILE SYSTEM SELECTIVE RESTORE                                                                               Page   54
0Current Usings:  (*,R7) (SFRTABLE,R10) (SFRWA,R11) (*,R12)
0Loc    Object Code    Addr1 Addr2  Stmt Lv Lineno    Source Statement           (Hibal 5, Asmedit 3.3)  HLASM R4.0  2004/03/22 09.44
+___    ______ ____    _____ _____  ____ __ ______    ______ _________
0002370 58F0 7D34/05EF       026A0  7444  1          +
 002376 98E1 1000            00000  7446  1          +
 00237A 40F0 A00E            0000E  7447  1 1132.                SETRC R15,SBRETCOD,ATTOWAIT
 00237E 9203 A00D      0000D        7449  1          +
 002382 9200 A00C      0000C        7450  1          +
 002386 12FF/0789                   7451  1 1133.                IF    (R15,ZERO),LINK1        OK - RETURN
 00238A 59F0 7D44            026B0  7468  1 1134.                IF    ((R15,EQ,24),OR,(R15,EQ,28)),ATTABRT
 00238E 4780 7A50            023BC  7484  1          +
 002392 59F0 7D48            026B4  7495  1          +
 002396 4780 7A50            023BC  7498  1          +
 00239A 47F0 77EA            02156  7504  1 1135.                B     FORGETIT
-00239E                             7506  1 1137.     ATTDONE    LABEL ,
 00239E 58A0 B03C            0003C  7508  1 1138.                L     TBLPTR,FILETABS     POINT AT START OF TABLE
 0023A2 5820 B028            00028  7509  1 1139.                L     CTR1,NUMNTRYS       SET LOOP COUNTER
 0023A6 1222                        7510  1 1140.                LTR   CTR1,CTR1           ANYTHING?
 0023A8 47D0 7A50            023BC  7511  1 1141.                BNP   ATTABRT             NO, EXIT
 0023AC 9102 A001      00001        7512  1 1142.     ATTCHK     IF    ATTACH,ATTOK        IS THIS ONE TO DO?
 0023B0 4710 7A58            023C4  7525  1          +
 0023B4 41A0 00A8            000A8  7531  1 1143.                LA    TBLPTR,L'SFRTABLE   POINT TO NEXT ENTRY
 0023B8 4620 7A40            023AC  7532  1 1144.                BCT   CTR1,ATTCHK         NO, GO CHECK NEXT
-0023BC 41F0 0004            00004  7534  1 1146.     ATTABRT    LA    R15,4               INDICATE NO ATTACHES/ABORT
 0023C0 47F0 7A5A            023C6  7535  1 1147.                B     ATTRET              AND EXIT
-0023C4 1BFF                        7537  1 1149.     ATTOK      SR    R15,R15             INDICATE ATTACHES OK
 0023C6 18D8/982A D004       00004  7538  1 1150.     ATTRET     XEXIT SR,TBLPTR,*         AND EXIT
 0023CC 58E0 D000/12FF       00000  7541  1          +
 0023D2 07FE                        7543  1          +
1SRES     GET BLOCK : GET A FILE BLOCK OFF THE TAPE                                                                         Page   55
0Current Usings:  (*,R7) (SFRTABLE,R10) (SFRWA,R11) (*,R12)
0Loc    Object Code    Addr1 Addr2  Stmt Lv Lineno    Source Statement           (Hibal 5, Asmedit 3.3)  HLASM R4.0  2004/03/22 09.44
+___    ______ ____    _____ _____  ____ __ ______    ______ _________
00023D4 50E0 D000            00000  7545  1 1152.     GETBLOCK   XENTER SR,TBLPTR,*
 0023D8 902A D004/188D       00004  7548  1          +
 0023DE 41D0 D028/0D70       00028  7550  1          +
 DROP   *,R7                        7568  1 1153.     *
 USING  *,R7
                                    7569  1 1154.     *   RETURNS LEN, LOC OF BLOCK IN R0 AND R1, AND FILE
                                    7570  1 1155.     * TABLE INDEX IN R15, OR R15=MINUS -> ABORT, OR R15=0 -> EOF
                                    7571  1 1156.     *
-0023E4 9110 73DC      027C0        7573  1 1158.                TM    DUMPDCB+(DCBOFLGS-IHADCB),X'10' IS DUMP FILE OPEN
 0023E8 4710 70C6            024AA  7574  1 1159.                BO    GETNUM              YES
 0023EC 4510 7010/80         023F4  7575  1 1160.                OPEN  (DUMPDCB)           OTHERWISE OPEN IT
 0023F1 002790/0A13                 7579  1          +
 0023F6 4120 73AC            02790  7581  1 1161.                LA    SR,DUMPDCB          Address of dumptape DCB
 USING  IHADCB,R2                   7582  1 1162.                USING IHADCB,SR           ## Addressability to dump DCB
 0023FA 9110 2030      00030        7591  1 1163.                IF    ~DCBOFLGS.DCBOFOPN,NODMPFIL   Open successful?
 0023FE 47E0 71FA            025DE  7604  1          +
 002402 4800 2052            00052  7610  1 1164.                LH    R0,DCBLRECL         Set dumptape lrecl length
 002406 5B00 72E4            026C8  7611  1 1165.                S     R0,=A(2048)         Decrement ORVYL block length
 00240A 5B00 72C4            026A8  7612  1 1166.                S     R0,=A(4)            Decrement for RECFM=V RDW
 00240E 5900 72E8            026CC  7613  1 1167.                IF    (R0,GT,8),'SET NEWFMT'  New format dump tape
 002412 47D0 7036            0241A  7625  1          +
 002416 9620 B036      00036        7636  1          +
 00241A 4100 080C            0080C  7641  1 1168.                GETMAIN R,LV=2060         REQUEST BUFFER FOR DATA
 00241E 4510 703E/0A0A       02422  7644  1          +
 002424 5010 73A4            02788  7646  1 1169.                ST    R1,DUMPAREA         SAVE ADDRESS OF DATA BUFFER
 002428 9180 B036      00036        7647  1 1170.                IF    RESTART,BEGIN
 00242C 47E0 7054            02438  7657  1          +
 002430 5800 B038            00038  7662  2 1171.                  L     R0,RS#                  SET RESTART BLOCK NUMBER
 002434 5000 73A0            02784  7663  2 1172.                  ST    R0,CURBLOCK             RESET TO CURRENT BLOCK
 002438                             7664  1 1173.                END   ,
 DROP   IHADCB,R2                   7668  1 1174.                DROP  SR                  ## RELEASE DCB ADDRESSABILITY
0002438 9120 B036      00036        7676  1 1176.                IF    NEWFMT,BEGIN        Only valid for new format
 00243C 47E0 70C6            024AA  7686  1          +
 002440 5820 0010            00010  7691  2 1177.                  GETCBAD SR                GET OUR TCB ADDRESS
 002444 5820 2000            00000  7693  2          +
 002448 5820 2004            00004  7694  2          +
 00244C 5820 200C            0000C  7695  2 1178.                  L     SR,@SR+12           ADDRESS OF TIOT
 USING  TIOT1,R2                    7696  2 1179.                  USING TIOT1,SR            ## ADDR TO TIOT
 002450 4120 2018            00018  7705  2 1180.                  LA    SR,TIOENTRY         START OF DDNAME ENTRIES
 DROP   TIOT1,R2                    7706  2 1181.                  DROP  SR                  ## RELEASE TIOT
 USING  TIOENTRY,R2                 7713  2 1182.                  USING TIOENTRY,SR         ## ADDR TO DDNAME ENTRIES
 002454 1F33/4330 2000       00018  7722  2 1183.                  LC    TR,TIOELNGH         LENGTH OF CURRENT ENTRY
 00245A 4110 72B4            02698  7729  2 1184.                  LA    R1,=CL8'DUMPINC'
 00245E 1233/4780 7096       0247A  7730  2 1185.                  WHILE (TR,NZ),BEGIN       LOOP THROUGH TIOT ENTRIES
 002464                             7746  3 1186.                    IF    (TIOEDDNM,EQ,@R1),EXIT
 002464 D507 2004 1000 0001C 00000  7757  3          +
 00246A 4780 7096            0247A  7760  3          +
 00246E 1E23                        7766  3 1187.                    ALR   SR,TR               BUMP TO NEXT ENTRY
 002470 1F33/4330 2000       00018  7767  3 1188.                    LC    TR,TIOELNGH         LENGTH OF NEXT ENTRY
 002476 47F0 707A            0245E  7774  2 1189.                  END   ,
 00247A 1233/4780 70C6       024AA  7779  2 1190.                  IF    (TR,NZ),BEGIN
1SRES     GET BLOCK : GET A FILE BLOCK OFF THE TAPE                                                                         Page   56
0Current Usings:  (TIOENTRY,R2) (*,R7) (SFRTABLE,R10) (SFRWA,R11) (*,R12)
0Loc    Object Code    Addr1 Addr2  Stmt Lv Lineno    Source Statement           (Hibal 5, Asmedit 3.3)  HLASM R4.0  2004/03/22 09.44
+___    ______ ____    _____ _____  ____ __ ______    ______ _________
0002480 4510 70A4/80         02488  7793  3 1191.                    OPEN  (INCDCB,(INPUT))
 002485 0027F0/0A13                 7797  3          +
 00248A 9640 B036      00036        7799  3 1192.                    SET   INC                 SET INCREMENTAL RESTORE
 00248E 4100 080C            0080C  7805  3 1193.                    GETMAIN R,LV=2060         GET BUFFER FOR INCREMENTAL
 002492 4510 70B2/0A0A       02496  7808  3          +
 002498 5010 73A8            0278C  7810  3 1194.                    ST    R1,INCAREA          AND SAVE BUFFER ADDRESS
 00249C 1801                        7811  3 1195.                    LR    R0,R1
 00249E 4110 740C/1FFF       027F0  7812  3 1196.                    GET   INCDCB,(0)          PRIME INCREMENTAL BUFFER
 0024A4 BFF7 1031/05EF       00031  7816  3          +
 0024AA                             7818  2 1197.                  END   ,
 0024AA                             7822  1 1198.                END   ,
 DROP   TIOENTRY,R2                 7826  1 1199.                DROP  SR                  ## RELEASE TIOT ENTRY ADDR
 0024AA 58E0 72EC/0DEE       026D0  7833  1 1200.     GETNUM     XCALL FINDNEXT            FIND NEXT BLOCK TO PROCESS
 0024B0 4780 723A            0261E  7837  1 1201.                BZ    DUMPEOF             NO MORE LEFT
 0024B4 4740 721C            02600  7838  1 1202.                BM    GETABRT             ABORT IF NEG
                                    7839  1 1203.     *
                                    7840  1 1204.     *  FINDNEXT RETURNS R15 AS THE TABLE INDEX, R1 CONTAINS THE
                                    7841  1 1205.     * USER BLOCK NUMBER, AND R0 CONTAINS THE BLOCK NUMBER ON THE
                                    7842  1 1206.     * DUMPTAPE.
                                    7843  1 1207.     *
 0024B8 18AF                        7844  1 1208.                LR    TBLPTR,R15          POINT TO TABLE ENTRY
 0024BA 5010 A084            00084  7845  1 1209.                ST    R1,SUSRBLK          SAVE USER BLOCK NUMBER
 0024BE 5810 73A0            02784  7846  1 1210.                L     R1,CURBLOCK         GET CURRENT TAPE POS
 0024C2 5000 73A0            02784  7847  1 1211.                ST    R0,CURBLOCK         SAVE NEXT POS
 0024C6 1B01                        7848  1 1212.                SR    R0,R1               HOW MANY BLOCKS TO SKIP?
 0024C8 4740 717A            0255E  7849  1 1213.                BM    DUPBLOCK            NEG -> DUPLICATE BLOCK
 0024CC 1820                        7850  1 1214.                LR    CTR1,R0             SKIP COUNT TO CTR
 0024CE 5E20 72F0            026D4  7851  1 1215.                INCR  CTR1                ADD 1 FOR LOOP
 0024D2                             7854  1 1216.     GETLOOP    LABEL ,
 0024D2 5800 73A4            02788  7856  1 1217.                L     R0,DUMPAREA         SET ADDRESS OF DUMPAREA
 0024D6 4110 73AC/1FFF       02790  7857  1 1218.                GET   DUMPDCB,(0)         GET A RECORD
 0024DC BFF7 1031/05EF       00031  7861  1          +
 0024E2 4620 70EE            024D2  7863  1 1219.                BCT   CTR1,GETLOOP        KEEP GOING UNTIL AT RIGHT ONE
 0024E6 9140 B036      00036        7864  1 1220.                IF    INC,BEGIN           INCREMENTAL RESTORE PROCESSING
 0024EA 47E0 7150            02534  7874  1          +
 0024EE 5820 73A4            02788  7879  2 1221.                  L     SR,DUMPAREA         ADDRESS OF DUMPTAPE BLOCK
 0024F2 5830 73A8            0278C  7880  2 1222.                  L     TR,INCAREA          ADDRESS OF INCREMENTAL AREA
 0024F6                             7881  2 1223.                  WHILE ('CLC @TR(3),@SR',LT),BEGIN
 0024F6 D502 3000 2000 00000 00000  7890  2          +
 0024FC 47B0 712E            02512  7891  2          +
 002500 4110 740C/1803       027F0  7896  3 1224.                    GET   INCDCB,(TR)         READ NEXT INCREMENTL DATA BLOCK
 002506 1FFF/BFF7 1031       00031  7900  3          +
 00250C 05EF                        7902  3          +
 00250E 47F0 7112            024F6  7903  2 1225.                  END   ,
 002512 4770 7150            02534  7908  2 1226.                  IF    EQ,BEGIN            BLOCK MATCHES -- CHECK TIME
 002516 D503 3008 2008 00008 00008  7919  3 1227.                    CLC   @TR+8(4),@SR+8      COMPARE TIME STAMPS
 00251C 47D0 7150            02534  7920  3 1228.                    IF    GT,BEGIN            SWITCH BLOCKS
 002520 5800 73A4            02788  7931  4 1229.                      L     R0,DUMPAREA         RECEIVE AREA
 002524 4810 3006            00006  7932  4 1230.                      LH    R1,@TR+6            SET COPY LENGTH
 002528 4110 100C            0000C  7933  4 1231.                      LA    R1,@R1+12           ADJUST FOR ORVYL HEADER
 00252C 5820 73A8            0278C  7934  4 1232.                      L     SR,INCAREA          FROM AREA ADDRESS
 002530 1831                        7935  4 1233.                      LR    TR,R1               COPY COPY LENGTH
 002532 0E02                        7936  4 1234.                      MVCL  R0,SR               MOVE INCREMENTAL DATA BLOCK
 002534                             7937  3 1235.                    END   ,
1SRES     GET BLOCK : GET A FILE BLOCK OFF THE TAPE                                                                         Page   57
0Current Usings:  (*,R7) (SFRTABLE,R10) (SFRWA,R11) (*,R12)
0Loc    Object Code    Addr1 Addr2  Stmt Lv Lineno    Source Statement           (Hibal 5, Asmedit 3.3)  HLASM R4.0  2004/03/22 09.44
+___    ______ ____    _____ _____  ____ __ ______    ______ _________
0002534                             7941  2 1236.                  END   ,
 002534                             7945  1 1237.                END   ,
 002534 5810 73A0            02784  7949  1 1238.                L     R1,CURBLOCK         GET CUR POS CTR
 002538 5E10 72F0            026D4  7950  1 1239.                INCR  R1                  ADD 1
 00253C 5010 73A0            02784  7953  1 1240.                ST    R1,CURBLOCK         AND SAVE IT BACK
-002540 18FA                        7955  1 1242.     GETOK      LR    R15,TBLPTR          SET ENTRY PTR
 002542 5810 73A4            02788  7956  1 1243.                L     R1,DUMPAREA         SET ADDRESS OF DUMP BUFFER
 002546 4800 1006            00006  7957  1 1244.                LH    R0,@R1+6            GET RECORD LENGTH
 00254A 4110 1008            00008  7958  1 1245.                LA    R1,@R1+8            ASSUME OLD FORMAT
 00254E 9120 B036      00036        7959  1 1246.                IF    NEWFMT,'LA R1,@R1+4'    RESET BLOCK ADDRESS
 002552 47E0 7176            0255A  7969  1          +
 002556 4110 1004            00004  7975  1          +
 00255A 47F0 7296            0267A  7980  1 1247.                B     GETEXIT             AND EXIT
1SRES     GETBLOCK : ERROR ROUTINES AND EXIT                                                                                Page   58
0Current Usings:  (*,R7) (SFRTABLE,R10) (SFRWA,R11) (*,R12)
0Loc    Object Code    Addr1 Addr2  Stmt Lv Lineno    Source Statement           (Hibal 5, Asmedit 3.3)  HLASM R4.0  2004/03/22 09.44
+___    ______ ____    _____ _____  ____ __ ______    ______ _________
000255E                             7982  1 1249.     DUPBLOCK   LABEL ,
 00255E 4110 7340            02724  7984  1 1250.                VSEG  'DUPLICATE BLOCK ENCOUNTERED FOR FILE '
 002562 4100 0025            00025  7988  1          +
 002566 5890 72DC/0D99       026C0  7991  1          +
 00256C 4110 A03C            0003C  7993  1 1251.                VSEG  SRENAME,L'SRENAME
 002570 4100 002C            0002C  8009  1          +
 002574 5890 72DC/0D99       026C0  8012  1          +
 00257A 4110 7365            02749  8014  1 1252.                VSEG  ' - BLOCK NUMBER IS '
 00257E 4100 0013            00013  8018  1          +
 002582 5890 72DC/0D99       026C0  8021  1          +
 002588 58F0 73A0            02784  8023  1 1253.                L     R15,CURBLOCK        GET TAPE BLOCK NUM
 00258C 4100 0006            00006  8024  1 1254.                SEGDC 6,(15),COMMAS=YES
 002590 4110 B000            00000  8044  1          +
 002594 58E0 72F4/0DEE       026D8  8047  1          +
 00259A 5890 72DC/0D99       026C0  8064  1          +
 0025A0 4110 7314            026F8  8066  1 1255.                VSEG  ' (ORVYL), '
 0025A4 4100 000A            0000A  8070  1          +
 0025A8 5890 72DC/0D99       026C0  8073  1          +
 0025AE 58F0 A084            00084  8075  1 1256.                L     R15,SUSRBLK         GET USER BLOCK NUMBER
 0025B2 4100 0006            00006  8076  1 1257.                SEGDC 6,(15),COMMAS=YES   AND PRINT IT
 0025B6 4110 B000            00000  8096  1          +
 0025BA 58E0 72F4/0DEE       026D8  8099  1          +
 0025C0 5890 72DC/0D99       026C0  8116  1          +
 0025C6 4110 7378            0275C  8118  1 1258.                VWRITE ' (USER)'
 0025CA 4100 0007            00007  8123  1          +
 0025CE 5890 72DC/0D99       026C0  8126  1          +
 0025D4 5890 72E0/0D99       026C4  8130  1          +
 0025DA 47F0 715C            02540  8132  1 1259.                B     GETOK               EXIT
-0025DE                             8134  1 1261.     NODMPFIL   LABEL ,
 0025DE 4110 73D4            027B8  8136  1 1262.                VSEG  DUMPDCB+(DCBDDNAM-IHADCB),8
 0025E2 4100 0008            00008  8152  1          +
 0025E6 5890 72DC/0D99       026C0  8155  1          +
 0025EC 4110 737F            02763  8157  1 1263.                VWRITE ' : FILE COULD NOT BE OPENED'
 0025F0 4100 001B            0001B  8162  1          +
 0025F4 5890 72DC/0D99       026C0  8165  1          +
 0025FA 5890 72E0/0D99       026C4  8169  1          +
-002600 41F0 0004            00004  8172  1 1265.     GETABRT    LA    R15,4
 002604 13FF                        8173  1 1266.                LCR   R15,R15             INDICATE ABORT
 002606 47F0 7296            0267A  8174  1 1267.                B     GETEXIT
-00260A                             8176  1 1269.     DUMPEOFU   LABEL ,
 00260A 4110 731E            02702  8178  1 1270.                VWRITE  'UNEXPECTED END OF FILE ON DUMPTAPE'
 00260E 4100 0022            00022  8183  1          +
 002612 5890 72DC/0D99       026C0  8186  1          +
 002618 5890 72E0/0D99       026C4  8190  1          +
 00261E                             8192  1 1271.     DUMPEOF    LABEL ,
 00261E 0700/4510 7244       02628  8194  1 1272.                CLOSE DUMPDCB
 002624 80/002790/0A14              8197  1          +
 00262A 4110 73AC            02790  8200  1 1273.                FREEPOOL DUMPDCB
1SRES     GETBLOCK : ERROR ROUTINES AND EXIT                                                                                Page   59
0Current Usings:  (*,R7) (SFRTABLE,R10) (SFRWA,R11) (*,R12)
0Loc    Object Code    Addr1 Addr2  Stmt Lv Lineno    Source Statement           (Hibal 5, Asmedit 3.3)  HLASM R4.0  2004/03/22 09.44
+___    ______ ____    _____ _____  ____ __ ______    ______ _________
000262E 9101 1017      00017        8203  1          +
 002632 4710 7294/1FFF       02678  8204  1          +
 002638 BFF7 1015            00015  8206  1          +
 00263C 58E0 F000/12EE       00000  8207  1          +
 002642 4770 726A            0264E  8209  1          +
 002646 9130 F004      00004        8210  1          +
 00264A 4770 7294            02678  8211  1          +
 00264E 9601 1017/1BEE 00017        8212  1          +
 002654 1B11/BF13 F006       00006  8214  1          +
 00265A 43E0 F005/1C0E       00005  8216  1          +
 002660 4110 1008            00008  8218  1          +
 002664 9140 F004      00004        8219  1          +
 002668 47E0 728C            02670  8220  1          +
 00266C 4110 1008/1801       00008  8221  1          +
 002672 4110 F000/0A0A       00000  8223  1          +
 002678 1BFF                        8226  1 1274.                SR    R15,R15             INDICATE EOF
-00267A 18D8/982A D004       00004  8228  1 1276.     GETEXIT    XEXIT SR,TBLPTR,*
 002680 58E0 D000/12FF       00000  8231  1          +
 002686 07FE                        8233  1          +
 002688                             8234  1 1277.     INCEOF     LABEL ,
 002688 D202 3000 739A 00000 0277E  8236  1 1277.1               MVC   @TR(3),=XL3'FFFFFF'
 00268E 94BF B036      00036        8237  1 1278.                CLEAR INC                 CLEAR INCREMENTAL RESTORE
 002692 07FE                        8244  1 1279.                BR    R14                 RETURN AFTER PUT
 002698                             8245  1 1280.                LTORG ,
 002698 C4E4D4D7C9D5C340            8247  1                            =CL8'DUMPINC'
 0026A0 00000000                    8248  1                            =V(VAM)
 0026A4 00000000                    8249  1                            =A(0)
 0026A8 00000004                    8250  1                            =A(4)
 0026AC 00000010                    8251  1                            =A(16)
 0026B0 00000018                    8252  1                            =A(24)
 0026B4 0000001C                    8253  1                            =A(28)
 0026B8 0000000C                    8254  1                            =A(12)
 0026BC 00000004                    8255  1                            =A(FPWRITE)
 0026C0 00000000                    8256  1                            =V(VSEG)
 0026C4 00000000                    8257  1                            =V(VWRITE)
 0026C8 00000800                    8258  1                            =A(2048)
 0026CC 00000008                    8259  1                            =A(8)
 0026D0 00000000                    8260  1                            =V(FINDNEXT)
 0026D4 00000001                    8261  1                            =A(1)
 0026D8 00000000                    8262  1                            =V(BTDC)
 0026DC 0294                        8263  1                            =Y(IXRNT#)
 0026DE 7A40E4E2C5D940C6            8264  1                            =C': USER FORMAT NOT RESTORED'
 0026F8 404DD6D9E5E8D35D            8265  1                            =C' (ORVYL), '
 002702 E4D5C5E7D7C5C3E3            8266  1                            =C'UNEXPECTED END OF FILE ON DUMPTAPE'
 002724 C4E4D7D3C9C3C1E3            8267  1                            =C'DUPLICATE BLOCK ENCOUNTERED FOR FILE '
 002749 406040C2D3D6C3D2            8268  1                            =C' - BLOCK NUMBER IS '
 00275C 404DE4E2C5D95D              8269  1                            =C' (USER)'
 002763 407A40C6C9D3C540            8270  1                            =C' : FILE COULD NOT BE OPENED'
 00277E FFFFFF         02781 037F8  8271  1                            =XL3'FFFFFF'
1SRES     GETBLOCK : DATA AREAS AND DCB                                                                                     Page   60
0Current Usings:  (*,R7) (SFRTABLE,R10) (SFRWA,R11) (*,R12)
0Loc    Object Code    Addr1 Addr2  Stmt Lv Lineno    Source Statement           (Hibal 5, Asmedit 3.3)  HLASM R4.0  2004/03/22 09.44
+___    ______ ____    _____ _____  ____ __ ______    ______ _________
0002781 000000                            1
 002784 00000000                    8276  1 1282.     CURBLOCK   DC    F'0'
-002788 00000000                    8278  1 1284.     DUMPAREA   DC    A(0)                ADDRESS OF DUMP AREA
 00278C 00000000                    8279  1 1285.     INCAREA    DC    A(0)                ADDRESS OF INCREMENTAL AREA
-002790                02790 037F8  8281  1 1287.                LTORG ,
-                                   8287  1 1289.                PRINT NOGEN
                                    8289  1 1290.   C DUMPDCB    DCB   MACRF=(GD),DSORG=PS,RECFM=VBS,DDNAME=DUMPTAPE,
 002790 0000000000000000                  1 1291.                      EODAD=DUMPEOFU
                                    8331  1 1292.   C INCDCB     DCB   MACRF=(GD),DSORG=PS,DDNAME=DUMPINC,EODAD=INCEOF,
 0027F0 0000000000000000                  1 1293.                      RECFM=VBS
                                    8373  1 1294.                PRINT GEN
1SRES     FINDNEXT : GET INFO ON NEXT DUMP BLOCK                                                                            Page   61
0Current Usings:  (*,R7) (SFRTABLE,R10) (SFRWA,R11) (*,R12)
0Loc    Object Code    Addr1 Addr2  Stmt Lv Lineno    Source Statement           (Hibal 5, Asmedit 3.3)  HLASM R4.0  2004/03/22 09.44
+___    ______ ____    _____ _____  ____ __ ______    ______ _________
0002850 50E0 D000            00000  8376  1 1296.     FINDNEXT   XENTER PR,R9,*
 002854 9069 D004/188D       00004  8379  1          +
 00285A 41D0 D014/0D70       00014  8381  1          +
 002860 9110 711C      0297C        8399  1 1297.                TM    INDEXDCB+(DCBOFLGS-IHADCB),X'10'  INDEX FILE OPEN?
 DROP   *,R7
 USING  *,R7
 002864 4710 701A            0287A  8400  1 1298.                BO    DOFINDRD            YES READ NEXT RECORD
 002868 4510 7010/80         02870  8401  1 1299.                OPEN  (INDEXDCB)          OTHERWISE OPEN IT
 00286D 00294C/0A13                 8405  1          +
 002872 9110 711C      0297C        8407  1 1300.                TM    INDEXDCB+(DCBOFLGS-IHADCB),X'10' OPEN NOW?
 002876 4780 7050            028B0  8408  1 1301.                BZ    NOINDEX             WHAT A REVOLTIN' DEVELOPMENT
 00287A                             8409  1 1302.     DOFINDRD   LABEL ,
 00287A 4110 70EC            0294C  8411  1 1303.                GET   INDEXDCB,INDEX      GET A RECORD
 00287E 4100 70E0/1FFF       02940  8414  1          +
 002884 BFF7 1031/05EF       00031  8416  1          +
 00288A 4160 70E0            02940  8418  1 1304.                LA    PR,INDEX            POINT TO IT
 USING  SFRMINI,R6                  8419  1 1305.                USING SFRMINI,PR          ##
 00288E 58F0 6008            00008  8428  1 1306.                L     R15,MENTRY          GET FILE TABLE POINTER
 002892 5810 6004            00004  8429  1 1307.                L     R1,MUSER            GET USER BLOCK NUMBER
 002896 5800 6000            00000  8430  1 1308.                L     R0,MORVYL           GET DUMPTAPE BLOCK NUMBER
 00289A 9180 B036      00036        8431  1 1309.                IF    ~RESTART,FINDEXIT
 00289E 47E0 70D2            02932  8443  1          +
 0028A2                             8449  1 1310.                IF    (RS#,GT,MORVYL),DOFINDRD      SKIP UNTIL THERE
 0028A2 D503 B038 6000 00038 00000  8461  1          +
 0028A8 4720 701A            0287A  8464  1          +
 DROP   SFRMINI,R6                  8470  1 1311.                DROP  PR                  ##SFRMINI
 0028AC 47F0 70D2            02932  8477  1 1312.                B     FINDEXIT            EXIT
1SRES     FINDNEXT : ERROR ROUTINES AND EXIT                                                                                Page   62
0Current Usings:  (*,R7) (SFRTABLE,R10) (SFRWA,R11) (*,R12)
0Loc    Object Code    Addr1 Addr2  Stmt Lv Lineno    Source Statement           (Hibal 5, Asmedit 3.3)  HLASM R4.0  2004/03/22 09.44
+___    ______ ____    _____ _____  ____ __ ______    ______ _________
00028B0                             8479  1 1314.     NOINDEX    LABEL ,
 0028B0 4110 7114            02974  8481  1 1315.                VSEG  INDEXDCB+(DCBDDNAM-IHADCB),8
 0028B4 4100 0008            00008  8497  1          +
 0028B8 5890 7F00/0D99       03760  8500  1          +
 0028BE 4110 7F56            037B6  8502  1 1316.                VSEG  ' : FILE COULD NOT BE OPENED'
 0028C2 4100 001B            0001B  8506  1          +
 0028C6 5890 7F00/0D99       03760  8509  1          +
 0028CC 41F0 0004            00004  8511  1 1317.                LA    R15,4               INDICATE
 0028D0 13FF                        8512  1 1318.                LCR   R15,R15               ABORT
 0028D2 47F0 70D2            02932  8513  1 1319.                B     FINDEXIT            AND LEAVE NOW
-0028D6                             8515  1 1321.     INDEXEOF   LABEL ,
 0028D6 0700/4510 7080       028E0  8517  1 1322.                CLOSE INDEXDCB
 0028DC 80/00294C/0A14              8520  1          +
 0028E2 4110 70EC            0294C  8523  1 1323.                FREEPOOL INDEXDCB
 0028E6 9101 1017      00017        8526  1          +
 0028EA 4710 70D0/1FFF       02930  8527  1          +
 0028F0 BFF7 1015            00015  8529  1          +
 0028F4 58E0 F000/12EE       00000  8530  1          +
 0028FA 4770 70A6            02906  8532  1          +
 0028FE 9130 F004      00004        8533  1          +
 002902 4770 70D0            02930  8534  1          +
 002906 9601 1017/1BEE 00017        8535  1          +
 00290C 1B11/BF13 F006       00006  8537  1          +
 002912 43E0 F005/1C0E       00005  8539  1          +
 002918 4110 1008            00008  8541  1          +
 00291C 9140 F004      00004        8542  1          +
 002920 47E0 70C8            02928  8543  1          +
 002924 4110 1008/1801       00008  8544  1          +
 00292A 4110 F000/0A0A       00000  8546  1          +
 002930 1BFF                        8549  1 1324.                SR    R15,R15             SIGNAL END OF FILE
-002932 18D8/9869 D004       00004  8551  1 1326.     FINDEXIT   XEXIT PR,R9,*             EXIT
 002938 58E0 D000/12FF       00000  8554  1          +
 00293E 07FE                        8556  1          +
1SRES     FINDNEXT : WORK AREAS AND DCB                                                                                     Page   63
0Current Usings:  (*,R7) (SFRTABLE,R10) (SFRWA,R11) (*,R12)
0Loc    Object Code    Addr1 Addr2  Stmt Lv Lineno    Source Statement           (Hibal 5, Asmedit 3.3)  HLASM R4.0  2004/03/22 09.44
+___    ______ ____    _____ _____  ____ __ ______    ______ _________
0002940                             8558  1 1328.                DS    0F
 002940                             8559  1 1329.     INDEX      DS    XL(MINILEN)
-                                   8561  1 1331.                PRINT NOGEN
                                    8563  1 1332.   C INDEXDCB   DCB   MACRF=(GM),DSORG=PS,DDNAME=SORTOUT,EODAD=INDEXEOF,
 00294C 0000000000000000                  1 1333.                      LRECL=MINILEN
                                    8605  1 1334.                PRINT GEN
1SRES     PUTBLOCK : WRITE A BLOCK TO AN ORVYL FILE                                                                         Page   64
0Current Usings:  (*,R7) (SFRTABLE,R10) (SFRWA,R11) (*,R12)
0Loc    Object Code    Addr1 Addr2  Stmt Lv Lineno    Source Statement           (Hibal 5, Asmedit 3.3)  HLASM R4.0  2004/03/22 09.44
+___    ______ ____    _____ _____  ____ __ ______    ______ _________
00029AC 50E0 D000            00000  8608  1 1336.     PUTBLOCK   XENTER R7,TBLPTR,*
 0029B0 907A D004/188D       00004  8611  1          +
 0029B6 41D0 D014/0D70       00014  8613  1          +
 0029BC 18AF                        8631  1 1337.                LR    TBLPTR,R15          GET TABLE POINTER
 DROP   *,R7
 USING  *,R7
 0029BE 9102 A001      00001        8632  1 1338.                IF    ~ATTACH,PUTOK       FILE ATTACHED?
 0029C2 47E0 710C            02AC8  8644  1          +
 0029C6 9104 A001      00001        8650  1 1339.                IF    DONOTDO,PUTOK       DON'T DO THIS ONE?
 0029CA 4710 710C            02AC8  8662  1          +
 0029CE 18F0                        8668  1 1340.                LR    R15,R0              IF OK, THEN GET LENGTH
 0029D0 5800 A008            00008  8669  1 1341.                WRITE SBORVID,(1),(15),L:SUSRBLK  WRITE DATA TO ORVYL FILE
 0029D4 58E0 A084            00084  8689  1          +
 0029D8 90E1 7024            029E0  8692  1          +
 0029DC 4510 7034            029F0  8693  1          +
 0029E0 0000000000000000            8694  1          +
 0029F0 4100 0038            00038  8695  1          +
 0029F4 58F0 7DA8/05EF       03764  8696  1          +
 0029FA 98E1 1000            00000  8698  1          +
 0029FE 12FF                        8700  1 1342.                LTR   R15,R15             TEST RETURN CODE
 002A00 4740 711C            02AD8  8701  1 1343.                BM    PUTABRT             ORVYL FILE SYSTEM NOT AVAILABLE
 002A04 90E1 7050            02A0C  8702  1 1344.                WAIT (0)                  WAIT FOR COMPLETION
 002A08 4510 7060            02A1C  8711  1          +
 002A0C 0000000000000000            8712  1          +
 002A1C 4100 0034            00034  8713  1          +
 002A20 58F0 7DA8/05EF       03764  8714  1          +
 002A26 98E1 1000            00000  8716  1          +
 002A2A 40F0 A00E            0000E  8717  1 1345.                SETRC R15,SBRETCOD,ORVWRITE  SAVE RETURN CODE
 002A2E 9205 A00D      0000D        8719  1          +
 002A32 9200 A00C      0000C        8720  1          +
 002A36 12FF                        8721  1 1346.                LTR   R15,R15             TEST RETURN CODE
 002A38 4740 709C            02A58  8722  1 1347.                BM    SHUTOFF             PERMANENT I/O ERROR (NIX THIS FILE)
 002A3C 47FF 7084            02A40  8723  1 1348.                B     *+4(R15)            BRANCH ON RETURN CODE
 002A40 47F0 70A4            02A60  8724  1 1349.                B     WRITEOK             0 - SUCCESSFUL ... GO GET NEXT
 002A44 47F0 709C            02A58  8725  1 1350.                B     SHUTOFF             4 - FILE NOT AVAILABLE
 002A48 47F0 709C            02A58  8726  1 1351.                B     SHUTOFF             8 - ACCESS NOT PERMITTED
 002A4C 47F0 7124            02AE0  8727  1 1352.                B     ABEND150            12 - CAN'T REWRITE EXISTING REC.
 002A50 47F0 709C            02A58  8728  1 1353.                B     SHUTOFF             16 - STORAGE ALLOCATION EXHAUSTED
 002A54 47F0 711C            02AD8  8729  1 1354.                B     PUTABRT             20 - FILE SPACE EXHAUSTED
                                    8730  1 1355.     *
                                    8731  1 1356.     *  KEEP THIS FILE FROM DOING ANYTHING ELSE
                                    8732  1 1357.     *
 002A58 9604 A001      00001        8733  1 1358.     SHUTOFF    SET   DONOTDO             SHUT OFF THIS FILE
 002A5C 47F0 710C            02AC8  8740  1 1359.                B     PUTOK               GO PROCESS OTHER VALID FILES
                                    8741  1 1360.     *
                                    8742  1 1361.     *  ORVYL FILE WRITE SUCCEEDED - GO GET NEXT
                                    8743  1 1362.     *
 002A60                             8744  1 1363.     WRITEOK    LABEL ,
 002A60 4110 0001            00001  8746  1 1364.                INCR  R1,SBCOUNT              COUNT NUMBER OF BLOCKS
 002A64 5E10 A08C            0008C  8750  1          +
 002A68 5010 A08C            0008C  8751  1          +
 002A6C 5800 A008            00008  8752  1 1365.                CONTROL L:SBORVID,7           FORCE IXRS
 002A70 4110 0007            00007  8764  1          +
 002A74 90E1 70C0            02A7C  8773  1          +
1SRES     PUTBLOCK : WRITE A BLOCK TO AN ORVYL FILE                                                                         Page   65
0Current Usings:  (*,R7) (SFRTABLE,R10) (SFRWA,R11) (*,R12)
0Loc    Object Code    Addr1 Addr2  Stmt Lv Lineno    Source Statement           (Hibal 5, Asmedit 3.3)  HLASM R4.0  2004/03/22 09.44
+___    ______ ____    _____ _____  ____ __ ______    ______ _________
0002A78 4510 70D0            02A8C  8774  1          +
 002A7C 0000000000000000            8775  1          +
 002A8C 4100 0008            00008  8776  1          +
 002A90 58F0 7DA8/05EF       03764  8777  1          +
 002A96 98E1 1000            00000  8779  1          +
 002A9A 0700/90E1 70E8       02AA4  8781  1 1366.                WAIT  (0)                     WAIT FOR COMPLETION
 002AA0 4510 70F8            02AB4  8790  1          +
 002AA4 0000000000000000            8791  1          +
 002AB4 4100 0034            00034  8792  1          +
 002AB8 58F0 7DA8/05EF       03764  8793  1          +
 002ABE 98E1 1000            00000  8795  1          +
 002AC2 12FF/4770 711C       02AD8  8796  1 1367.                IF    (R15,NZ),PUTABRT        WHOOPS
 002AC8 1BFF                        8813  1 1368.     PUTOK      SR    R15,R15             INDICATE OK
 002ACA 18D8/987A D004       00004  8814  1 1369.     PUTEXIT    XEXIT R7,TBLPTR,*
 002AD0 58E0 D000/12FF       00000  8817  1          +
 002AD6 07FE                        8819  1          +
-002AD8                             8821  1 1371.     PUTABRT    LABEL ,
 002AD8 41F0 0004            00004  8823  1 1372.                LA    R15,4               INDICATE ABORT
 002ADC 47F0 710E            02ACA  8824  1 1373.                B     PUTEXIT             AND EXIT
 002AE0 4110 0096            00096  8825  1 1374.     ABEND150   ABEND 150,DUMP            TROUBLE WRITING TO ORVYL FILE
 002AE4 4100 0080            00080  8830  1          +
 002AE8 8900 0018/1610       00018  8831  1          +
 002AEE 0A0D                        8833  1          +
1SRES     PSTATUS : PRINT STATUS MESSAGES ON RESTORE                                                                        Page   66
0Current Usings:  (*,R7) (SFRTABLE,R10) (SFRWA,R11) (*,R12)
0Loc    Object Code    Addr1 Addr2  Stmt Lv Lineno    Source Statement           (Hibal 5, Asmedit 3.3)  HLASM R4.0  2004/03/22 09.44
+___    ______ ____    _____ _____  ____ __ ______    ______ _________
0002AF0 50E0 D000            00000  8835  1 1376.     PSTATUS    XENTER SR,TBLPTR,*
 002AF4 902A D004/188D       00004  8838  1          +
 002AFA 41D0 D028/0D70       00028  8840  1          +
 002B00 58A0 B03C            0003C  8858  1 1377.                L     TBLPTR,FILETABS         GET POINTER TO FILE TABLE
 DROP   *,R7
 USING  *,R7
 002B04 5820 B028            00028  8859  1 1378.                L     CTR1,NUMNTRYS       GET NUMBER OF ENTRIES
 002B08 1222                        8860  1 1379.                LTR   CTR1,CTR1           ANY?
 002B0A 47D0 70A0            02BA0  8861  1 1380.                BNP   PSETRC              NO, PRINT FINAL MSG
 002B0E 1B33                        8862  1 1381.                SR    CTR2,CTR2           CLEAR FAIL COUNTER
-002B10 4100 0014/1B11       00014  8864  1 1383.                VCNTL SKIP1
 002B16 5890 7C68/0D99       03768  8878  1          +
 002B1C                             8880  1 1384.     PSTALOOP   LABEL ,
 002B1C 4100 0014/1B11       00014  8882  1 1385.                VCNTL SKIP1
 002B22 5890 7C68/0D99       03768  8896  1          +
 002B28 5800 A068            00068  8898  1 1386.                L     R0,SNAMEL           GET LENGTH OF FILE NAME
 002B2C 4110 A010            00010  8899  1 1387.                VSEG  SNAME,(0)           WRITE IT OUT
 002B30 5890 7C60/0D99       03760  8916  1          +
 002B36 4840 A00E            0000E  8918  1 1388.                LH    QR,SBRETCOD+2       GET RETURN CODE FOR FILE
 002B3A 1244                        8919  1 1389.                LTR   QR,QR               DID IT GO OK?
 002B3C 4780 706A            02B6A  8920  1 1390.                BZ    SUCCESS             YES
 002B40 4110 7C6C            0376C  8921  1 1391.                VSEG  ' WAS NOT RESTORED ; '
 002B44 4100 0014            00014  8925  1          +
 002B48 5890 7C60/0D99       03760  8928  1          +
 002B4E 41F0 A00C            0000C  8930  1 1392.                ERROR SBRETCOD            ISSUE ERROR MSG
 002B52 58F0 F000            00000  8938  1          +
 002B56 58E0 7C80/0DEE       03780  8941  1          +
 002B5C 5890 7C84/0D99       03784  8943  1 1393.                VWRITE
 002B62 5E30 7C88            03788  8948  1 1394.                INCR  CTR2                INCREMENT FAIL COUNTER
 002B66 47F0 708C            02B8C  8951  1 1395.                B     PLOOPNXT            DO NEXT FILE
-002B6A                             8953  1 1397.     SUCCESS    LABEL ,
 002B6A 4110 7C90            03790  8955  1 1398.                VSEG  ' WAS SUCCESSFULLY RESTORED TO '
 002B6E 4100 001E            0001E  8959  1          +
 002B72 5890 7C60/0D99       03760  8962  1          +
 002B78 5800 A06C            0006C  8964  1 1399.                L     R0,SRENAMEL         GET NEW NAME LENGTH
 002B7C 4110 A03C            0003C  8965  1 1400.                VWRITE   SRENAME,(0)
 002B80 5890 7C60/0D99       03760  8983  1          +
 002B86 5890 7C84/0D99       03784  8987  1          +
-002B8C                             8990  1 1402.     PLOOPNXT   LABEL ,
 002B8C 41A0 A0A8            000A8  8992  1 1403.                LA    TBLPTR,L'SFRTABLE(,TBLPTR)
 002B90 4620 701C            02B1C  8993  1 1404.                BCT   CTR1,PSTALOOP       KEEP ON TRUCKIN
 002B94 5820 B028            00028  8994  1 1405.                L     CTR1,NUMNTRYS       GET TOTAL FILES
 002B98 1B23                        8995  1 1406.                SR    CTR1,CTR2           NUMBER OF FILES RESTORED
 002B9A 47B0 70A0            02BA0  8996  1 1407.                BNM   PSETRC              IF NOT NEG SKIP AROUND
 002B9E 1B22                        8997  1 1408.                SR    CTR1,CTR1           IF NEG SET TO ZERO
-002BA0                             8999  1 1410.     PSETRC     LABEL ,
1SRES     PSTATUS : PRINT STATUS MESSAGES ON RESTORE                                                                        Page   67
0Current Usings:  (*,R7) (SFRTABLE,R10) (SFRWA,R11) (*,R12)
0Loc    Object Code    Addr1 Addr2  Stmt Lv Lineno    Source Statement           (Hibal 5, Asmedit 3.3)  HLASM R4.0  2004/03/22 09.44
+___    ______ ____    _____ _____  ____ __ ______    ______ _________
0002BA0 4100 0014/1B11       00014  9001  1 1411.                VCNTL SKIP1
 002BA6 5890 7C68/0D99       03768  9015  1          +
 002BAC 18F2/4100 0003       00003  9017  1 1412.                SEGDC 3,(CTR1),COMMAS=NO
 002BB2 4110 B000            00000  9037  1          +
 002BB6 58E0 7C8C/0DEE       0378C  9040  1          +
 002BBC 5890 7C60/0D99       03760  9057  1          +
 002BC2 4110 7CD1            037D1  9059  1 1413.                VWRITE   ' FILES RESTORED'
 002BC6 4100 000F            0000F  9064  1          +
 002BCA 5890 7C60/0D99       03760  9067  1          +
 002BD0 5890 7C84/0D99       03784  9071  1          +
 002BD6 1222                        9073  1 1414.                LTR   CTR1,CTR1           ANY FILES ?
 002BD8 47D0 70EA            02BEA  9074  1 1415.                BNP   PNONE               NONE
 002BDC 5920 B028            00028  9075  1 1416.                C     CTR1,NUMNTRYS       ALL FILES RESTORED?
 002BE0 4740 70F2            02BF2  9076  1 1417.                BL    PSOME               ONLY SOME
 002BE4 1B22                        9077  1 1418.                SR    CTR1,CTR1           ALL
 002BE6 47F0 70F6            02BF6  9078  1 1419.                B     PSETIT              GO SET FINAL RETURN CODE
 002BEA                             9079  1 1420.     PNONE      LABEL ,
 002BEA 4120 0008            00008  9081  1 1421.                LA    CTR1,8              INDICATE NO FILES RESTORED
 002BEE 47F0 70F6            02BF6  9082  1 1422.                B     PSETIT
 002BF2                             9083  1 1423.     PSOME      LABEL ,
 002BF2 4120 0004            00004  9085  1 1424.                LA    CTR1,4              SOME FILES RESTORED
-002BF6 5920 B024            00024  9087  1 1426.     PSETIT     C     CTR1,RETCODE        WHICH IS LARGER?
 002BFA 4740 7102            02C02  9088  1 1427.                BL    PSTEXIT             RETCODE LARGER - LEAVE IT ALONE
 002BFE 5020 B024            00024  9089  1 1428.                ST    CTR1,RETCODE        SAVE LARGER RETURN CODE
-002C02 18D8/982A D004       00004  9091  1 1430.     PSTEXIT    XEXIT  SR,TBLPTR
 002C08 58E0 D000/07FE       00000  9094  1          +
1SRES     ERROR : ROUTINE TO ISSUE ERROR MESSAGES                                                                           Page   68
0Current Usings:  (*,R7) (SFRTABLE,R10) (SFRWA,R11) (*,R12)
0Loc    Object Code    Addr1 Addr2  Stmt Lv Lineno    Source Statement           (Hibal 5, Asmedit 3.3)  HLASM R4.0  2004/03/22 09.44
+___    ______ ____    _____ _____  ____ __ ______    ______ _________
0002C0E 50E0 D000            00000  9097  1 1432.     ERROR      XENTER  SR,R8,*
 002C12 9028 D004/188D       00004  9100  1          +
 002C18 41D0 D020/0D70       00020  9102  1          +
 002C1E 182F                        9120  1 1433.                LR    SR,R15              TRANSFER ERROR CODE
 DROP   *,R7
 USING  *,R7
 002C20 8C20 0010            00010  9121  1 1434.                SRDL  SR,16               ROUTINE ID INTO SR
 002C24 8A30 0010            00010  9122  1 1435.                SRA   TR,16               ERRO CODE INTO TR
0002C28 41F0 7092            02CB0  9124  1 1437.                LA    R15,RTNTABLE        POINT TO ADCON TABLE
 002C2C 4C20 7B90            037AE  9125  1 1438.                MH    SR,=Y(RTNTBSIZ)     MULTIPLY BY ENTRY SIZE
 002C30 41F2 F000            00000  9126  1 1439.                LA    R15,0(SR,R15)       POINT TO TABLE ENTRY
 002C34 186F                        9127  1 1440.                LR    PR,R15              COPY TO R5
 002C36 4160 6008            00008  9128  1 1441.                LA    PR,8(,PR)           POINT TO ROUTINE NAME
 002C3A 5820 F000            00000  9129  1 1442.                L     SR,0(,R15)          GET PTR TO START OF MSGS
 002C3E 4140 003E            0003E  9130  1 1443.                LA    QR,MSGESIZE         GET ENTRY SIZE
 002C42 5850 F004            00004  9131  1 1444.                L     RR,4(,R15)          GET PTR TO END OF MSGS
-002C46                             9133  1 1446.     MSGLOOP    LABEL ,
 002C46 BD33 2000            00000  9135  1 1447.                CLM   TR,B'0011',0(SR)    MSG CODES MATCH?
 002C4A 4780 7076            02C94  9136  1 1448.                BE    GOTMSG              YES, FOUND IT
 002C4E 8724 7028            02C46  9137  1 1449.                BXLE  SR,QR,MSGLOOP       KEEP LOOKING FOR IT
                                    9138  1 1450.     *
                                    9139  1 1451.     *        MESSAGE NOT FOUND - MAKE UP ONE
                                    9140  1 1452.     *
 002C52 4110 7BC2            037E0  9141  1 1453.                VSEG  ' RETURN CODE WAS '
 002C56 4100 0011            00011  9145  1          +
 002C5A 5890 7B42/0D99       03760  9148  1          +
 002C60 18F3/4100 0004       00004  9150  1 1454.                SEGDC 4,(TR),COMMAS=NO
 002C66 4110 B000            00000  9170  1          +
 002C6A 58E0 7B6E/0DEE       0378C  9173  1          +
 002C70 5890 7B42/0D99       03760  9190  1          +
 002C76 4110 7B92            037B0  9192  1 1455.                VSEG  ' FROM '
 002C7A 4100 0006            00006  9196  1          +
 002C7E 5890 7B42/0D99       03760  9199  1          +
 002C84 1816/4100 0008       00008  9201  1 1456.                VSEG  (PR),8              PUT IN ROUTINE'S NAME
 002C8A 5890 7B42/0D99       03760  9218  1          +
 002C90 47F0 7086            02CA4  9220  1 1457.                B     MSGEXIT             AND EXIT
-002C94                             9222  1 1459.     GOTMSG     LABEL ,
 002C94 4120 2002            00002  9224  1 1460.                LA    SR,2(,SR)           POINT TO ACTUAL MSG
 002C98 1812/4100 003C       0003C  9225  1 1461.                VSEG  (SR),MSGSIZE        PUT IT OUT
 002C9E 5890 7B42/0D99       03760  9242  1          +
0002CA4                             9245  1 1463.     MSGEXIT    LABEL ,
 002CA4 18D8/9828 D004       00004  9247  1 1464.                XEXIT SR,R8               EXIT
 002CAA 58E0 D000/07FE       00000  9250  1          +
1SRES     ERROR : MESSAGE TABLES AND CONSTANTS                                                                              Page   69
0Current Usings:  (*,R7) (SFRTABLE,R10) (SFRWA,R11) (*,R12)
0Loc    Object Code    Addr1 Addr2  Stmt Lv Lineno    Source Statement           (Hibal 5, Asmedit 3.3)  HLASM R4.0  2004/03/22 09.44
+___    ______ ____    _____ _____  ____ __ ______    ______ _________
0002CB0                             9253  1 1466.     RTNTABLE   DS    0F
 002CB0 00002D5000002E0A            9254  1 1467.                DC    A(ATTERST),A(ATTEREND),CL8'ATTACH'
 002CC0 00002D5000002E0A            9255  1 1468.                DC    A(ATTERST),A(ATTEREND),CL8'ATTACH'
 002CD0 00002E4800002FFA            9256  1 1469.                DC    A(ATWERST),A(ATWEREND),CL8'WAIT'
 002CE0 00002E4800002FFA            9257  1 1470.                DC    A(ATWERST),A(ATWEREND),CL8'WAIT'
 002CF0 00003038000030B4            9258  1 1471.                DC    A(SCRERST),A(SCREREND),CL8'SCRATCH'
 002D00 000030F40000322A            9259  1 1472.                DC    A(WRTERST),A(WRTEREND),CL8'WRITE'
 002D10 0000326800003268            9260  1 1473.                DC    A(SPCERST),A(SPCEREND),CL8'SPACECHK'
 002D20 000032A8000032A8            9261  1 1474.                DC    A(LKERST),A(LKEREND),CL8'LOOKUP'
 002D30 0000359400003594            9262  1 1475.                DC    A(ERAST),A(ERAEND),CL8'ERASE'
 002D40 000035D40000368E            9263  1 1476.                DC    A(ERAWST),A(ERAWEND),CL8'ERASE'
                                    9264  1 1477.     RTNTBSIZ   EQU   16                  ENTRY LENGTH
0002D50                             9266  1 1479.     ATTERST    DS    0F
 002D50 FFF8C4C5E5C9C3C5            9267  1 1480.                DC    HL2'-8',CL60'DEVICE NAME ILLEGAL'
 002D8E FFFCE3D6D640D4C1            9268  1 1481.                DC    HL2'-4',CL60'TOO MANY DEVICES ATTACHED'
 002DCC 0008C4C5E5C9C3C5            9269  1 1482.                DC    HL2'8',CL60'DEVICE ALREADY ATTACHED NOT MODE=SHARE'
 002E0A 000CC4C5E5C9C3C5            9270  1 1483.     ATTEREND   DC    HL2'12',CL60'DEVICE ALREADY ATTACHED MODE=SHARE'
0002E48                             9272  1 1485.     ATWERST    DS    0F
 002E48 0004C1C3C3C5E2E2            9273  1 1486.                DC    HL2'4',CL60'ACCESS NOT PERMITTED'
 002E86 0008C6C9D3C540E2            9274  1 1487.                DC    HL2'8',CL60'FILE STORAGE LIMITS EXCEEDED'
 002EC4 000CD5D640E2D7C1            9275  1 1488.                DC    HL2'12',CL60'NO SPACE LEFT IN FILE DIRECTORY'
 002F02 0010C6C9D3C540C4            9276  1 1489.                DC    HL2'16',CL60'FILE DOES NOT EXIST'
 002F40 0014C6C9D3C540C1            9277  1 1490.                DC    HL2'20',CL60'FILE ALREADY EXISTS'
 002F7E 0018E2E8E2E3C5D4            9278  1 1491.                DC    HL2'24',CL60'SYSTEM TABLES OVERFLOWED'
 002FBC 001CC6C9D3C540E2            9279  1 1492.                DC    HL2'28',CL60'FILE SPACE EXHAUSTED'
 002FFA 0020C6C9D3C540D4            9280  1 1493.     ATWEREND   DC    HL2'32',CL60'FILE MAY ONLY BE ATTACHED MODE=SHARE'
0003038                             9282  1 1495.     SCRERST    DS    0F
 003038 FFFCD7C5D9D4C1D5            9283  1 1496.                DC    HL2'-4',CL60'PERMANENT I/O ERROR'
 003076 0004C6C9D3C540D5            9284  1 1497.                DC    HL2'4',CL60'FILE NOT IMMEDIATELY AVAILABLE'
 0030B4 0008C1C3C3C5E2E2            9285  1 1498.     SCREREND   DC    HL2'8',CL60'ACCESS NOT PERMITTED'
00030F4                             9287  1 1500.     WRTERST    DS    0F
 0030F4 FFFCD7C5D9D4C1D5            9288  1 1501.                DC    HL2'-4',CL60'PERMANENT I/O ERROR'
 003132 0004C6C9D3C540D5            9289  1 1502.                DC    HL2'4',CL60'FILE NOT IMMEDIATELY AVAILABLE'
 003170 0008E6D9C9E3C540            9290  1 1503.                DC    HL2'8',CL60'WRITE ACCESS PROHIBITED'
 0031AE 000CC3C1D5D5D6E3            9291  1 1504.                DC    HL2'12',CL60'CANNOT REWRITE EXISTING BLOCK'
 0031EC 0010C6C9D3C540E2            9292  1 1505.                DC    HL2'16',CL60'FILE STORAGE LIMIT EXCEEDED'
 00322A 0014C6C9D3C540E2            9293  1 1506.     WRTEREND   DC    HL2'20',CL60'FILE SPACE EXHAUSTED'
0003268                             9295  1 1508.     SPCERST    DS    0F
 003268 0004D5D640E2D7C1            9296  1 1509.     SPCEREND   DC    HL2'4',CL60'NO SPACE AVAILABLE TO RESTORE FILE'
00032A8                             9298  1 1511.     LKERST     DS    0F
 0032A8 0004C6C9D3C540D5            9299  1 1512.     LKEREND    DC    HL2'4',CL60'FILE NOT FOUND ON DUMP TAPE'
00032E8                             9301  1 1514.     CREST      DS    0F
 0032E8 FFFCE39696409481            9302  1 1515.                DC    HL2'-4',CL60'Too many devices attached'
 003326 FFF8C99393858781            9303  1 1516.                DC    HL2'-8',CL60'Illegal device identifier'
 003364 FFF4D6D9E5E8D340            9304  1 1517.     CREEND     DC    HL2'-12',CL60'ORVYL file system unavailable'
00033A4                             9306  1 1519.     CREWST     DS    0F
1SRES     ERROR : MESSAGE TABLES AND CONSTANTS                                                                              Page   70
0Current Usings:  (*,R7) (SFRTABLE,R10) (SFRWA,R11) (*,R12)
0Loc    Object Code    Addr1 Addr2  Stmt Lv Lineno    Source Statement           (Hibal 5, Asmedit 3.3)  HLASM R4.0  2004/03/22 09.44
+___    ______ ____    _____ _____  ____ __ ______    ______ _________
00033A4 FFFCD78599948195            9307  1 1520.                DC    HL2'-4',CL60'Permanent I/O error'
 0033E2 0004C1838396A495            9308  1 1521.                DC    HL2'4',CL60'Account not valid'
 003420 0008E4A285994082            9309  1 1522.                DC    HL2'8',CL60'User block limit exceeded'
 00345E 000CC68993854084            9310  1 1523.                DC    HL2'12',CL60'File directory full'
 00349C 0010C1838385A2A2            9311  1 1524.                DC    HL2'16',CL60'Access not permitted'
 0034DA 0014C68993854081            9312  1 1525.                DC    HL2'20',CL60'File already exists'
 003518 0018C689938540A2            9313  1 1526.                DC    HL2'24',CL60'File system space insufficient'
 003556 001CD596956089A7            9314  1 1527.     CREWEND    DC    HL2'28',CL60'Non-ixr''d files not allowed'
0003594                             9316  1 1529.     ERAST      DS    0F
 003594 FFFCC68993854081            9317  1 1530.     ERAEND     DC    HL2'-4',CL60'File already attached MODE=SHARE'
00035D4                             9319  1 1532.     ERAWST     DS    0F
 0035D4 FFFCD78599948195            9320  1 1533.                DC    HL2'-4',CL60'Permanent I/O error'
 003612 0004C68993854095            9321  1 1534.                DC    HL2'4',CL60'File not immediately available'
 003650 0008C1838385A2A2            9322  1 1535.                DC    HL2'8',CL60'Access not permitted'
 00368E 0010D59640A29781            9323  1 1536.     ERAWEND    DC    HL2'16',CL60'No space in file directory'
0                                   9325  1 1538.     MSGESIZE   EQU   62                  LENGTH OF A MESSAGE TABLE ENTRY
                                    9326  1 1539.     MSGSIZE    EQU   60                  LENGTH OF AN ERROR MESSAGE
1SRES     DETFILES : DETACH ALL ORVYL FILES                                                                                 Page   71
0Current Usings:  (*,R7) (SFRTABLE,R10) (SFRWA,R11) (*,R12)
0Loc    Object Code    Addr1 Addr2  Stmt Lv Lineno    Source Statement           (Hibal 5, Asmedit 3.3)  HLASM R4.0  2004/03/22 09.44
+___    ______ ____    _____ _____  ____ __ ______    ______ _________
00036CC 50E0 D000            00000  9328  1 1541.     DETFILES   XENTER SR,TBLPTR,*
 0036D0 902A D004/188D       00004  9331  1          +
 0036D6 41D0 D028/0D70       00028  9333  1          +
 0036DC 58A0 B03C            0003C  9351  1 1542.                L     TBLPTR,FILETABS         Get table address
 DROP   *,R7
 USING  *,R7
 0036E0 5820 B028            00028  9352  1 1543.                L     CTR1,NUMNTRYS           Set loop counter
 0036E4 1222                        9353  1 1544.                LTR   CTR1,CTR1               Anything?
 0036E6 47D0 7076            03752  9354  1 1545.                BNP   DETEXIT                 No, so exit
 0036EA                             9355  1 1546.     DETLOOP    LABEL ,
 0036EA 9102 A001      00001        9357  1 1547.                IF    ~ATTACH,DETINCR         Did we attach for this
 0036EE 47E0 706E            0374A  9369  1          +
 0036F2 5800 A008/0700       00008  9375  1 1548.                DETACH SBORVID                Detach this orvyl device
 0036F8 90E1 7024            03700  9383  1          +
 0036FC 4510 7034            03710  9384  1          +
 003700 0000000000000000            9385  1          +
 003710 4100 000C            0000C  9386  1          +
 003714 58F0 7088/05EF       03764  9387  1          +
 00371A 98E1 1000            00000  9389  1          +
 00371E 0700/90E1 704C       03728  9390  1 1549.                WAIT (0)                      Wait for completion
 003724 4510 705C            03738  9399  1          +
 003728 0000000000000000            9400  1          +
 003738 4100 0034            00034  9401  1          +
 00373C 58F0 7088/05EF       03764  9402  1          +
 003742 98E1 1000            00000  9404  1          +
 003746 94FD A001      00001        9405  1 1550.                CLEAR ATTACH              TURN OFF ATTACH FLAG
 00374A 41A0 A0A8            000A8  9412  1 1551.     DETINCR    LA    TBLPTR,L'SFRTABLE(,TBLPTR)   NEXT ENTRY
 00374E 4620 700E            036EA  9413  1 1552.     DLOOPEND   BCT   CTR1,DETLOOP        GO CHECK NEXT FOR DETACH
-003752 18D8/982A D004       00004  9415  1 1554.     DETEXIT    XEXIT SR,TBLPTR           EXIT
 003758 58E0 D000/07FE       00000  9418  1          +
1SRES     WORK AREAS AND CONSTANTS                                                                                          Page   72
0Current Usings:  (*,R7) (SFRTABLE,R10) (SFRWA,R11) (*,R12)
0Loc    Object Code    Addr1 Addr2  Stmt Lv Lineno    Source Statement           (Hibal 5, Asmedit 3.3)  HLASM R4.0  2004/03/22 09.44
+___    ______ ____    _____ _____  ____ __ ______    ______ _________
0003760                             9421  1 1556.                DS    0F
 003760                             9422  1 1557.                LTORG
 003760 00000000                    9424  1                            =V(VSEG)
 003764 00000000                    9425  1                            =V(VAM)
 003768 00000000                    9426  1                            =V(VCNTRL)
 00376C 40E6C1E240D5D6E3            9427  1                            =C' WAS NOT RESTORED ; '
 003780 00000000                    9428  1                            =V(ERROR)
 003784 00000000                    9429  1                            =V(VWRITE)
 003788 00000001                    9430  1                            =A(1)
 00378C 00000000                    9431  1                            =V(BTD)
 003790 40E6C1E240E2E4C3            9432  1                            =C' WAS SUCCESSFULLY RESTORED TO '
 0037AE 0010                        9433  1                            =Y(RTNTBSIZ)
 0037B0 40C6D9D6D440                9434  1                            =C' FROM '
 0037B6 407A40C6C9D3C540            9435  1                            =C' : FILE COULD NOT BE OPENED'
 0037D1 40C6C9D3C5E240D9            9436  1                            =C' FILES RESTORED'
 0037E0 40D9C5E3E4D9D540            9437  1                            =C' RETURN CODE WAS '
-0037F8                037F8 037F8  9442  1 1559.                END   .
                                          1
1SRES     Ordinary Symbol and Literal Cross Reference                                                                       Page   73
-Symbol   Length   Value     Id    R Type   Defn References                                  HLASM R4.0  2004/03/22 09.44
0$$$@R10       1 00000000 FFFFFFF4     J     836 1146
 $$$@R11       1 00000000 FFFFFFF3     J     849 1159
 $$$@R12       1 00000000 FFFFFFF2     J     862 1172
 $$$@R2        1 00000000 FFFFFFFC     J     732 1019  1031
 $$$@R3        1 00000000 FFFFFFFB     J     745 1044  1056
 $$$@R4        1 00000000 FFFFFFFA     J     758 1069
 $$$@R5        1 00000000 FFFFFFF9     J     771 1082
 $$$@R6        1 00000000 FFFFFFF8     J     784 1095
 $$$@R7        1 00000000 FFFFFFF7     J     797 1108
 $$$@R9        1 00000000 FFFFFFF5     J     823 1121  1133
 $$$C1SRES
               1 000007D3 00000001     J    3892 3894
 $$$C2SRES
               1 00000BEA 00000001     J    4473 4475
 $$$C3SRES
               1 000018C7 00000001     J    5267 5269
 $$$C4SRES
               1 00002781 00000001     J    8272 8274
 $$$C5SRES
               1 00002790 00000001     J    8283 8285
 $$$C6SRES
               1 000037F1 00000001     J    9438 9440
 $$$C7SRES
               1 000037F8 00000001     J    9445 9447
 $$$RSFRBLOCK
               1 00000000 FFFFFFEB     J    1468 1487  1487
 $$$RSFRMINI
               1 00000000 FFFFFFED     J    1337 1357  1357
 $$$RSFRTABLE
               1 00000000 FFFFFFEE     J    1249 1331  1331
 $$$RSFRWA
               1 00000000 FFFFFFE8     J    2564 2608  2608
 $$$10B        1 00000202 00000001     X    3020 3027U
 $$$100F       2 0000241A 00000001     H    7640 7625B
 $$$101F       2 00002438 00000001     H    7667 7657B
 $$$102F       2 000024AA 00000001     H    7825 7686B
 $$$103F       2 0000247A 00000001     H    7778 7741B 7760B
 $$$103S       2 0000245E 00000001     H    7735 7777B
 $$$106F       2 000024AA 00000001     H    7821 7788B
 $$$107F       2 00002534 00000001     H    7948 7874B
 $$$108F       2 00002512 00000001     H    7907 7891B
 $$$108S       2 000024F6 00000001     H    7886 7906B
 $$$11F        2 0000022E 00000001     H    3085 3070B
 $$$110F       2 00002534 00000001     H    7944 7914B
 $$$111F       2 00002534 00000001     H    7940 7926B
 $$$112F       2 0000255A 00000001     H    7979 7969B
 $$$113B       1 00002860 00000001     X    8387 8397U
 $$$116B       1 000029BC 00000001     X    8619 8629U
 $$$12F        2 000002CC 00000001     H    3244 3191B
 $$$120B       1 00002B00 00000001     X    8846 8856U
 $$$121B       1 00002C1E 00000001     X    9108 9118U
 $$$122B       1 000036DC 00000001     X    9339 9349U
 $$$13F        2 000002CC 00000001     H    3240 3208B
 $$$14F        2 000002CC 00000001     H    3236 3225B
 $$$16B        1 000007E4 00000001     X    3907 3917U
1SRES     Ordinary Symbol and Literal Cross Reference                                                                       Page   74
 $$$17B        1 00000828 00000001     X    3948 3958U
 $$$19B        1 0000095A 00000001     X    4119 4129U
 $$$20F        2 000009C2 00000001     H    4200 4190B
 $$$21B        1 000009EE 00000001     X    4226 4236U
 $$$22B        1 00000B24 00000001     X    4393 4403U
 $$$24B        1 00000BFA 00000001     X    4488 4498U
 $$$25B        1 00000C76 00000001     X    4586 4596U
 $$$30F        2 00000D34 00000001     H    4778 4752B
 $$$31F        2 00000D54 00000001     H    4822 4807B
 $$$32F        2 00000DD0 00000001     H    4912 4897B
 $$$33F        2 00000DF2 00000001     H    4942 4927B
 $$$34B        1 000018D8 00000001     X    5282 5292U
 $$$35B        1 0000196C 00000001     X    5344 5354U
 $$$4B         1 00000010 00000001     X    2647 2654U
 $$$40F        2 00001A12 00000001     H    5524 5505B
 $$$47F        2 00001A88 00000001     H    5653 5639B
 $$$48B        4 00001AE4 00000001     I    5708 5827
 $$$48F        2 00001B70 00000001     H    5823 5708B 5826
 $$$49F        2 00001B70 00000001     H    5819 5723B
 $$$52E        2 00001B74 00000001     H    5834 5828
 $$$52F        2 00001D64 00000001     H    6276 5830B 5845B
 $$$54B        4 00001B80 00000001     I    5860 6028
 $$$54F        2 00001C48 00000001     H    6025 5860B 6027
 $$$56F        2 00001C48 00000001     H    6021 5925B
 $$$59E        2 00001C4C 00000001     H    6035 6029
 $$$59F        2 00001D64 00000001     H    6272 6031B
 $$$6F         2 000000AC 00000001     H    2817 2807B
 $$$62F        2 00001D18 00000001     H    6192 6173B
 $$$68B        4 00001D6C 00000001     I    6297 6310
 $$$68F        2 00001D74 00000001     H    6306 6297B 6309
 $$$69B        4 00001D7C 00000001     I    6326 6599
 $$$69E        2 00001D78 00000001     H    6317 6311
 $$$69F        2 00001EB0 00000001     H    6596 6313B 6326B 6598
 $$$7S         2 000000DA 00000001     H    2853 2868B
 $$$74F        2 00001E5E 00000001     H    6515 6496B
 $$$76F        2 00001EB0 00000001     H    6592 6547B
 $$$79E        2 00001EB4 00000001     H    6606 6600
 $$$79F        2 00001F50 00000001     H    6756 6602B
 $$$80F        2 00001F04 00000001     H    6676 6657B
 $$$87F        2 00002272 00000001     H    7244 7234B
 $$$91F        2 0000234E 00000001     H    7428 7409B
 $$$97B        1 000023E4 00000001     X    7556 7566U
 @PR           0 00000000 FFFFFFF8     @    1096 2741  2742
 @R0           0 00000000 FFFFFFFE     @     707  983U
 @R1           0 00000000 FFFFFFFD     @     720  979U 2656  2705  7757  7933  7957  7958  7975
 @R10          0 00000000 FFFFFFF4     @     837  943U 4526U
 @R11          0 00000000 FFFFFFF3     @     850  939U
 @R12          0 00000000 FFFFFFF2     @     863  935U
 @R13          0 00000000 FFFFFFF1     @     876  931U
 @R14          0 00000000 FFFFFFF0     @     889  927U
 @R15          0 00000000 FFFFFFEF     @     902  923U 2971  3001  3441  7084U
 @R2           0 00000000 FFFFFFFC     @     733  975U 4832U 7673U 7711U 7831U
 @R3           0 00000000 FFFFFFFB     @     746  971U 4558U 7728U 7773U
 @R4           0 00000000 FFFFFFFA     @     759  967U 4874U 5019U
 @R5           0 00000000 FFFFFFF9     @     772  963U 4984U
 @R6           0 00000000 FFFFFFF8     @     785  959U 4962U 8475U
 @R7           0 00000000 FFFFFFF7     @     798  955U 3914U 3955U 4126U 4233U 4400U 4495U 4593U 5289U 5351U 7563U 8394U
                                                 8626U 8853U 9115U 9346U
 @R8           0 00000000 FFFFFFF6     @     811  951U
1SRES     Ordinary Symbol and Literal Cross Reference                                                                       Page   75
 @R9           0 00000000 FFFFFFF5     @     824  947U
 @SR           0 00000000 FFFFFFFC     @    1020 7695  7890  7919
 @TR           0 00000000 FFFFFFFB     @    1045 7890  7919  7932  8236M
 ABEND150      2 00002AE0 00000001     H    8826 8727B
 ABORT         2 00000146 00000001     H    2907 2841B
 ACCOUNT       6 00000030 FFFFFFE8     C    2575 2576  2577  2708M 3190  3207  3224  3942  3970  3971  3978  3980  3985
                                                 4010  4065  4075  4409  4409  4410M 4413  4415  4448  4462M 4470
 ACCTINV       2 00000404 00000001     H    3569 3232B
 ADOSCR        2 00001FFE 00000001     H    6856 6815B 6850B
 AMTREQD       4 00000004 00000001 A   U    3963 4007M 4007  4012M 4041  4043M
 ASCRATCH      2 00001F50 00000001     H    6759 6281B
 ATCHON        2 000021C6 00000001     H    7117 7099B
 ATCWAIT       2 000020B2 00000001     H    6991 5911B 6851B 6916B 6948B 6983B
 ATTABRT       4 000023BC 00000001     I    7534 5359B 5602B 5616B 6232B 6246B 6568B 6582B 6716B 6730B 7484B 7498B 7511B
 ATTACH        2 00000001 FFFFFFEE         1292 7057M 7121M 7522  8641  9366  9411M
 ATTACHED      2 00002164 00000001     H    7061 6869B 6881B 6917B 6984B
 ATTACHIT      2 000019C0 00000001     H    5451 5396B 5409B 5428B
 ATTCHK        2 000023AC 00000001     H    7514 7532B
 ATTDONE       2 0000239E 00000001     H    7507 5449B
 ATTEREND      2 00002E0A 00000001     G    9270 9254  9255
 ATTERST       4 00002D50 00000001     F    9266 9254  9255
 ATTFILES      4 0000195C 00000001     I    5335 5334
 ATTFILES      1 00000000 00000007     T    3855 3855
 ATTNEW        1 00000000 00000001 A   U    2617 6160  6644
 ATTNWAIT      1 00000002 00000001 A   U    2619 6213  6697
 ATTOK         2 000023C4 00000001     I    7537 7525B
 ATTOLDF       1 00000001 00000001 A   U    2618 5489  6480  7393
 ATTOWAIT      1 00000003 00000001 A   U    2620 5545  5647  6536  7449
 ATTRET        2 000023C6 00000001     I    7539 7535B
 ATWEREND      2 00002FFA 00000001     G    9280 9256  9257
 ATWERST       4 00002E48 00000001     F    9272 9256  9257
 BADFILE       2 000003C8 00000001     H    3499 3177B 3364B
 BADSORT       2 00000F14 00000001     H    5091 5088B
 BASE         12 0000000C FFFFFFFF A   #    1166 2645M 2654U
 BIG           4 000009D4 00000001     A    4210 4196
 BNONIXR       2 00000D78 00000001     H    4851 4867B
 BTD           1 00000000 00000014     T    3869 3869  9431
 BTDC          1 00000000 0000001A     T    8262 8262
 BUILDABT      2 00000532 00000001     H    3812 3136B 3146B 3152B 3783B
 BUILDOK       2 0000053A 00000001     I    3816 3153B
 BUILDRT       2 0000053C 00000001     I    3818 3814B
 BUILDTBL      4 000001F2 00000001     I    3011 3010
 BUILDTBL      1 00000000 00000006     T    3854 3854
 CALCLIM       2 00000C10 00000001     H    4510 4507B
 CHKACCT       2 00000896 00000001     H    4009 4061B
 CHKAMT        2 000008C0 00000001     H    4040 4025B
 CLWTEMP       8 00000000 FFFFFFE8     D    2570 3286  8044  8096  9037  9170
 CMDTABLE      1 0000054A 00000001     R    3825 3115
 COMPINIT      4 0000084C 00000001     I    3975 3973B
 COMPLOOP      2 00000850 00000001     H    3977 3990B
 CREATE        1 00000008 00000001 A   U    2625 6368  7281
 CREWAIT       1 00000009 00000001 A   U    2626 6404  7317
 CTR1          2 00000002 FFFFFFFF A   #    1025 3032M 3032  3129M 3135M 3135  3137  3159  3248  3919M 3926M 3998M 4061M
                                                 4092M 4614M 4615M 4615  4640M 4967M 4999M 5357M 5358M 5358  5448M 7509M
                                                 7510M 7510  7532M 7850M 7853M 7863M 8859M 8860M 8860  8993M 8994M 8995M
                                                 8997M 8997  9023  9073M 9073  9075  9077M 9077  9081M 9085M 9087  9089
                                                 9352M 9353M 9353  9413M
 CTR2          3 00000003 FFFFFFFF A   #    1050 3966M 3967M 3967  3973M 3990M 3992M 4066M 4986M 4986  5005M 8862M 8862
                                                 8950M 8995
1SRES     Ordinary Symbol and Literal Cross Reference                                                                       Page   76
 CURBLOCK      4 00002784 00000001     F    8276 7663M 7846  7847M 7949  7953M 8023
 DCBBIT0       1 00000080 FFFFFFEA A   U    1508 1677  1693  1733  1751  1797  1806  1821  1862  1870  1884  1906  1948
                                                 1950  1951  1953  1973  1976  1998  2002  2017  2054  2110  2136  2174
                                                 2178  2197  2303
 DCBBIT1       1 00000040 FFFFFFEA A   U    1509 1678  1694  1752  1760  1797  1806  1823  1863  1871  1886  1915  1916
                                                 1925  1931  1948  1950  1952  1953  1978  1998  2000  2002  2020  2021
                                                 2022  2057  2058  2110  2138  2180  2182  2200  2245  2304
 DCBBIT2       1 00000020 FFFFFFEA A   U    1510 1679  1695  1753  1762  1806  1824  1864  1872  1887  1888  1889  1915
                                                 1916  1920  1926  1931  1948  1949  1954  1980  2003  2004  2025  2026
                                                 2027  2061  2062  2111  2143  2183  2205  2248  2251  2305
 DCBBIT3       1 00000010 FFFFFFEA A   U    1511 1632  1680  1696  1767  1808  1825  1865  1887  1889  1890  1915  1928
                                                 1955  1983  2003  2006  2029  2030  2031  2065  2066  2111  2145  2147
                                                 2149  2185  2206  2248  2252
 DCBBIT4       1 00000008 FFFFFFEA A   U    1512 1633  1697  1768  1811  1826  1873  1929  1930  1931  1956  1984  2008
                                                 2013  2014  2034  2035  2069  2070  2072  2073  2112  2152  2187  2207
                                                 2248  2253
 DCBBIT5       1 00000004 FFFFFFEA A   U    1513 1635  1698  1770  1812  1826  1874  1936  1959  1960  1986  2008  2010
                                                 2011  2014  2038  2040  2041  2042  2076  2077  2078  2079  2112  2154
                                                 2157  2190  2209  2243
 DCBBIT6       1 00000002 FFFFFFEA A   U    1514 1637  1667  1681  1699  1772  1813  1829  1866  1938  1939  1942  1959
                                                 1961  1987  2045  2046  2047  2048  2082  2083  2084  2085  2113  2160
                                                 2192  2211  2254
 DCBBIT7       1 00000001 FFFFFFEA A   U    1515 1639  1667  1682  1776  1815  1830  1867  1938  1940  1942  1963  1992
                                                 2050  2051  2088  2089  2091  2092  2163  2193  2194  2212  2256  2306
 DCBDCBE       4 00000000 FFFFFFEA     A    1523 1527
 DCBDDNAM      8 00000028 FFFFFFEA     C    1970 5109  5113  8145  8490
 DCBFDAD       8 00000005 FFFFFFEA     C    1539 1541
 DCBLRECL      2 00000052 FFFFFFEA     H    2278 7610
 DCBOFIOF      1 00000001 FFFFFFEA A   U    1992 1994
 DCBOFLGS      1 00000030 FFFFFFEA     B    1972 4606  4608  7573  7601  8399  8407
 DCBOFOPN      1 00000010 FFFFFFEA A   U    1983 7599
 DCBOFUEX      1 00000002 FFFFFFEA A   U    1987 1991
 DCBSSID       8 00000000 FFFFFFEA     C    1786 1788
 DCBWTOID      4 00000000 FFFFFFEA     A    1704 1719  1729
 DETEXIT       2 00003752 00000001     I    9416 9354B
 DETFILES      4 000036CC 00000001     I    9330 9329
 DETFILES      1 00000000 0000000B     T    3859 3859
 DETINCR       4 0000374A 00000001     I    9412 9369B
 DETLOOP       2 000036EA 00000001     H    9356 9413B
 DOACCT        2 0000087A 00000001     H    3996 4066B
 DOACCT0       2 00000872 00000001     I    3992 3974B
 DOFINDRD      2 0000287A 00000001     H    8410 8400B 8464B
 DOIXRS        4 00000C66 00000001     I    4577 4576
 DOIXRS        1 00000000 00000010     T    3865 3865
 DONEXT        2 000008E2 00000001     H    4059 4011B 4042B
 DONOTDO       4 00000001 FFFFFFEE         1287 4049M 4082M 5372  5439M 7217M 8659  8739M
 DUMPAREA      4 00002788 00000001     A    8278 7646M 7856  7879  7931  7956
 DUMPDCB       4 00002790 00000001     F    8294 7573  7579  7581  7859  8145  8198  8202
 DUMPEOF       2 0000261E 00000001     H    8193 7837B
 DUMPEOFU      2 0000260A 00000001     H    8177 8306
 DUPBLOCK      2 0000255E 00000001     H    7983 7849B
 DUPCHECK      4 000007D4 00000001     I    3898 3897
 DUPCHECK      1 00000000 00000013     T    3868 3868
 DUPFILE       2 000004CC 00000001     H    3741 3253B
 DUPLOOP       2 000007EE 00000001     H    3922 3926B
 ERAEND        2 00003594 00000001     G    9317 9262
 ERASE         1 0000000A 00000001 A   U    2627 5760  5962  6069
 ERAST         4 00003594 00000001     F    9316 9262
 ERAWAIT       1 0000000B 00000001 A   U    2628 5796  5998  6105
1SRES     Ordinary Symbol and Literal Cross Reference                                                                       Page   77
 ERAWEND       2 0000368E 00000001     G    9323 9263
 ERAWST        4 000035D4 00000001     F    9319 9263
 ERROR         4 00002C0E 00000001     I    9099 9098
 ERROR         1 00000000 0000001B     T    9428 9428
 ERROR1        4 00002234 00000001     I    7174 7156B
 FEXIST        2 00001A6C 00000001     H    5626 5558B
 FILEHELP      2 000004A6 00000001     H    3715 3668B
 FILEMISS      2 0000046C 00000001     H    3671 3157B 3346B
 FILESORT      4 00000BEA 00000001     I    4479 4478
 FILESORT      1 00000000 0000000F     T    3864 3864
 FILETABS      4 0000003C FFFFFFE8     A    2599 2825M 3033  3921  3969  3997  4513  4520  4613  5356  7508  8858  9351
 FILSPACE      4 000009DE 00000001     I    4217 4216
 FILSPACE      1 00000000 00000017     T    4467 4467
 FILS2BIG      2 00000510 00000001     H    3786 3151B
 FILZERO       2 00000B0E 00000001     H    4378 4271B 4288B 4319B 4336B
 FINDEXIT      2 00002932 00000001     I    8552 8443B 8477B 8513B
 FINDNEXT      4 00002850 00000001     I    8378 8377
 FINDNEXT      1 00000000 00000019     T    8260 8260
 FINISH        2 000000F2 00000001     H    2872 2847B 2859B 2864B
 FLSMAX        4 00000040 FFFFFFE8     A    2600 2799  2818M 3001M 3159  3275
 FNEW          2 00001D68 00000001     H    6284 5578B
 FORGETIT      6 00002156 00000001     I    7050 5521B 5623B 5649B 5683B 5773B 5809B 5905B 5912B 5975B 6011B 6082B 6118B
                                                 6189B 6263B 6381B 6437B 6512B 6588B 6673B 6747B 6797B 6813B 7006B 7294B
                                                 7350B 7425B 7504B
 FOUNDIT       2 00000CCE 00000001     H    4644 4638B
 FPA           1 00000002 00000001 A   N    1371 1377  1378  1379  1386  1389
 FPE           1 00000008 00000001 A   N    1373 1381  1382  1388
 FPFIXR        1 00000010 00000001 A   N    1368 1433
 FPFWRITE      1 00000007 00000001 A   U    1389 6835
 FPMIXR        1 00000080 00000001 A   N    1365 1406
 FPN           1 00000000 00000001 A   N    1369 1383
 FPR           1 00000001 00000001 A   N    1370 1376  1377  1378  1385  1389
 FPS           1 00000010 00000001 A   N    1374 1380
 FPSIXR        1 00000040 00000001 A   N    1366 1415
 FPW           1 00000004 00000001 A   N    1372 1377  1387  1389
 FPWRITE       1 00000004 00000001 A   U    1387 8255
 FPZIXR        1 00000020 00000001 A   N    1367 1424
 FRW           1 00000007 00000001 A   U    1377 1382
 FSEXIT        2 00000B00 00000001     I    4371 4380B
 FSORTLP       2 00000C2E 00000001     H    4539 4549B
 FSORTNXT      2 00000C52 00000001     H    4548 4542B
 FSORTSET      2 00000C1E 00000001     H    4516 4550B
 FSTEXIT       2 00000C5A 00000001     H    4552 4506B 4508B 4518B
 GETABRT       4 00002600 00000001     I    8172 7838B
 GETBLOCK      4 000023D4 00000001     I    7547 7546
 GETBLOCK      1 00000000 00000008     T    3856 3856
 GETCMD        1 00000000 0000000E     T    3862 3862
 GETEXIT       2 0000267A 00000001     I    8229 7980B 8174B
 GETIGNOR      4 00000346 00000001     I    3339 3342B
 GETLOOP       2 000024D2 00000001     H    7855 7863B
 GETNUM        4 000024AA 00000001     I    7835 7574B
 GETNXSZ       2 000003A4 00000001     H    3426 3838
 GETOK         2 00002540 00000001     I    7955 8132B
 GETREC        2 00000C96 00000001     H    4612 4641B 4868B 4913B 5000B
 GETUSRSP      4 0000094A 00000001     I    4110 4109
 GETUSRSP      1 00000000 00000016     T    4466 4466
 GOTDUP        4 00000806 00000001     I    3929 3924B
 GOTFILE       2 00000280 00000001     H    3156 3825
 GOTIXR        2 000003BE 00000001     H    3477 3834
1SRES     Ordinary Symbol and Literal Cross Reference                                                                       Page   78
 GOTMSG        2 00002C94 00000001     H    9223 9136B
 GOTNIXR       2 000003B4 00000001     H    3455 3836
 GOTREPL       2 00000372 00000001     H    3370 3832
 GOTTO         2 00000354 00000001     H    3345 3830
 GROUP         2 00000030 FFFFFFE8     U    2577 2707M 4422  4424  4426  4434M 4471
 GROUPCHK      2 00000B5C 00000001     H    4419 4412B
 HELPED        1 00000080 00000001 A   U    3844 3635  3637  3686  3688
 HELPFLAG      1 000005B0 00000001     X    3843 3635  3637M 3686  3688M
 HIBAL         1 00000000 FFFFFFFF     J     692  708   721   734   747   760   773   786   799   812   825   838   851
                                                  864   877   890   903  1021  1033  1046  1058  1071  1084  1097  1110
                                                 1123  1135  1148  1161  1174
 HYBRID        2 00000CF6 00000001     H    4729 4682B
 IHADCB        1 00000000 FFFFFFEA     J    1498 1578  1615  1643  1673  1703  1785  1844  1894  1969  2096  2101  2116
                                                 2122  2131  2231  2234  2239  2264  2282  2283  2287  2323  2324  4606
                                                 4608  5109  5113  7573  7589U 8145  8399  8407  8490
 IHB1462       2 00000EB8 00000001     H    5057 5036B 5043B
 IHB1464       2 00000F06 00000001     H    5083 5062B 5069B
 IHB3285       2 00002678 00000001     H    8225 8204B 8211B
 IHB3387       2 00002930 00000001     H    8548 8527B 8534B
 ILLEGAL       2 000003E6 00000001     H    3534 3126B 3435B
 INC          64 00000036 FFFFFFE8         2589 7804M 7873  8243M
 INCAREA       4 0000278C 00000001     A    8279 7810M 7880  7934
 INCDCB        4 000027F0 00000001     F    8336 7797  7814  7898
 INCEOF        2 00002688 00000001     H    8235 8348
 INDEX        12 00002940 00000001     X    8559 8414  8418
 INDEXDCB      4 0000294C 00000001     F    8568 8399  8405  8407  8413  8490  8521  8525
 INDEXEOF      2 000028D6 00000001     H    8516 8580
 INHYBR        8 00000001 FFFFFFEE         1282 4741M 6325
 INNIXR       16 00000001 FFFFFFEE         1277 4790M
 INVALID       2 00000422 00000001     H    3603 3827
 IXR        2048 00000000 FFFFFFEC     U    1397 1452  1456  1456  1480
 IXRABRT       2 00000F56 00000001     H    5150 4616B 5106B
 IXRDSECT      1 00000000 FFFFFFEC     J    1392 1488  4653U
 IXRECNO       3 00000001 FFFFFFEC     X    1439 4831
 IXREOF        2 00000E5A 00000001     H    5023 5187
 IXREXIT       2 00000F60 00000001     I    5157 5152B
 IXRFIXR      16 00000000 FFFFFFEC         1435 4751
 IXRHIRC       3 0000003B FFFFFFEC     X    1444 4950
 IXRIN         4 000017B8 00000001     F    5175 4602  4606  4629  5028  5034  5109
 IXRIXNT#      1 00000292 FFFFFFEC A   U    1457 1458
 IXRLWRC       3 00000038 FFFFFFEC     X    1443 4949
 IXRMIXR     128 00000000 FFFFFFEC         1408 4699  4699  4718
 IXRNIXR       2 000007FA FFFFFFEC     H    1459 4886
 IXRNRCS       4 00000030 FFFFFFEC     A    1441 4758  4762  4837  4877  4914
 IXRNT         3 00000044 FFFFFFEC     X    1450 1452  1453  1457  4978  4998
 IXRNT#        1 00000294 FFFFFFEC A   U    1452 1453  1457  1458  5260  8263
 IXROUT        4 00001818 00000001     F    5217 4604  4608  4856  5008  5030  5060  5113
 IXRPAD        6 0000003E FFFFFFEC     X    1445 4760  4761  4823  4824  4884  4885  4915  4916
 IXRPREF      68 00000000 FFFFFFEC     U    1449 1452
 IXRRRCS       4 00000034 FFFFFFEC     A    1442 4757
 IXRSIXR      64 00000000 FFFFFFEC         1417 4699  4699  4700
 IXRSOK        2 00000F5E 00000001     I    5154 5089B
 IXRSTART      4 00000000 FFFFFFEC     F    1396 1397  1449  1449
 IXRSTATE      1 00000000 FFFFFFEC     R    1400 1408  1417  1426  1435  4655
 IXRZIXR      32 00000000 FFFFFFEC         1426 4679
 LINK1         9 00000009 FFFFFFFF A   #    1127 3158M 3256B 3347M 3367B 5815M 5911M 6017M 6302M 6851M 6916M 6948M 6983M
                                                 7008B 7011B 7462B
 LKEREND       2 000032A8 00000001     G    9299 9261
 LKERST        4 000032A8 00000001     F    9298 9261
1SRES     Ordinary Symbol and Literal Cross Reference                                                                       Page   79
 LOOKUP        1 00000007 00000001 A   U    2624 5443
 LOOPA         2 0000197A 00000001     H    5362 5448B
 LOOPAINC      2 000019B4 00000001     H    5446 5375B 7058B 7173B 7208B 7218B
 LOOP1         6 00000CB8 00000001     I    4637 4640B
 MENTRY        4 00000008 FFFFFFED     F    1349 4849M 4990M 8428
 MINILEN       1 0000000C FFFFFFED A   U    1350 5164  5249  8559  8600
 MINILOOP      2 00000E20 00000001     I    4991 4999B
 MININEXT      4 00000E2A 00000001     I    4996 5013B
 MINIREC      12 00000F70 00000001     X    5164 4839  4968
 MINIXR        2 00000E0A 00000001     H    4955 4727B 4779B
 MINSTART      4 00000000 FFFFFFED     F    1346 1350
 MIXR          6 00000DD4 00000001     I    4914 4721B
 MORVYL        4 00000000 FFFFFFED     F    1347 4852M 5001M 8430  8461
 MOVEBADN      4 00000BB8 00000001     I    4453 4423B 4433B 4441B 4443B
 MOVEFILE      4 00000B14 00000001     I    4384 4383
 MOVEFILE      1 00000000 00000012     T    3867 3867
 MOVEIN        2 00000B98 00000001     H    4439 4417B 4431B
 MOVENAME      6 00000BCA 00000001     I    4462 4446X
 MOVEXIT       2 00000BBC 00000001     I    4456 4451B
 MSGESIZE      1 0000003E 00000001 A   U    9325 9130
 MSGEXIT       2 00002CA4 00000001     H    9246 9220B
 MSGLOOP       2 00002C46 00000001     H    9134 9137B
 MSGSIZE       1 0000003C 00000001 A   U    9326 9239
 MUSER         4 00000004 FFFFFFED     F    1348 4853M 5002M 8429
 NEWFMT       32 00000036 FFFFFFE8         2594 7636M 7685  7968
 NEXTACCT      2 000008EA 00000001     H    4063 4093B
 NIXCRE        2 00002262 00000001     H    7223 5815B 6017B 6302B
 NIXRSZ        1 00000001 FFFFFFEE         1297 3447M 7233
 NODMPFIL      2 000025DE 00000001     H    8135 7604B
 NODUPS        2 00000800 00000001     I    3927 3920B
 NOINDEX       2 000028B0 00000001     H    8480 8408B
 NOIXRFIL      2 00000F38 00000001     H    5123 5110B
 NOIXRIN       2 00000F2C 00000001     H    5108 4607B
 NOIXROUT      2 00000F34 00000001     H    5112 4609B
 NOMOROOM      2 000002F0 00000001     H    3259 3160B
 NONIXR        2 00000D38 00000001     H    4784 4664B
 NOREP         1 00000014 00000001 A   U    2632 5644
 NOSCRAT       2 00002104 00000001     H    7018 6852B 7009B 7010B 7012B
 NOSPACE       1 00000004 00000001 A   U    2630 4050  4083
 NOTFOUND      1 00000004 00000001 A   U    2631 5440
 NULLINP       2 000004F8 00000001     H    3768 3058B
 NUMNTRYS      4 00000028 FFFFFFE8     F    2573 3137M 3966  3998  4067  4504  4614  5357  7509  8859  8994  9075  9352
 OPTBL         1 00000559 00000001     R    3830 3255
 ORVPFX        4 0000002C FFFFFFE8     C    2574 2690M 3231  3971  3978  3978  3980  4010  4075  4408  4408  4409M 4410M
                                                 4411  4413  4415  4424M 4434M 4448  4462M 4470  4637  4637
 ORVWRITE      1 00000005 00000001 A   U    2622 8719
 OSSAVE        4 00000020 FFFFFFE8     F    2571 2691M 2893
 OUTIXR       32 00000001 FFFFFFEE         1272 3468M 3490M 4774M 4806  4908M 4938M
 OUTNIXR      64 00000001 FFFFFFEE         1267 3461M 3484M 4769M 4818M 4896  4926  5722  5859  6296  6878
 PLOOPNXT      2 00002B8C 00000001     H    8991 8951B
 PNONE         2 00002BEA 00000001     H    9080 9074B
 PR            6 00000006 FFFFFFFF A   #    1089 2656M 3993M 3993  4057M 4067  4090M 4540M 4541  4544  4545  4617M 4625U
                                                 4956M 4996M 5002  8379  8381  8381  8381  8418M 8426U 8553M 9127M 9128M
                                                 9128  9208
 PSETIT        4 00002BF6 00000001     I    9087 9078B 9082B
 PSETRC        2 00002BA0 00000001     H    9000 8861B 8996B
 PSOME         2 00002BF2 00000001     H    9084 9076B
 PSTALOOP      2 00002B1C 00000001     H    8881 8993B
 PSTATUS       4 00002AF0 00000001     I    8837 8836
1SRES     Ordinary Symbol and Literal Cross Reference                                                                       Page   80
 PSTATUS       1 00000000 0000000A     T    3858 3858
 PSTEXIT       2 00002C02 00000001     I    9092 9088B
 PUTABRT       2 00002AD8 00000001     H    8822 8701B 8729B 8807B
 PUTBLOCK      4 000029AC 00000001     I    8610 8609
 PUTBLOCK      1 00000000 00000009     T    3857 3857
 PUTEXIT       2 00002ACA 00000001     I    8815 8824B
 PUTMINI       4 00000E3A 00000001     I    5001 4993B
 PUTOK         2 00002AC8 00000001     I    8813 8644B 8662B 8740B
 QR            4 00000004 FFFFFFFF A   #    1063 3381M 3399  3963  3975M 3978  3980  3988  3989M 3989  4537M 4549  4839M
                                                 4847U 4968M 4976U 8918M 8919M 8919  9130M 9137
 RAR           9 00000009 FFFFFFFF A   #    1115 2730M 2731M 2731B 2734M 2735M 2735B 2937M 2938M 2938B 2947M 2948M 2948B
                                                 2951M 2952M 2952B 3051M 3052M 3052B 3056M 3057M 3057B 3267M 3268M 3268B
                                                 3306M 3307M 3307B 3315M 3316M 3316B 3325M 3326M 3326B 3329M 3330M 3330B
                                                 3339M 3340M 3340B 3407M 3408M 3408B 3417M 3418M 3418B 3421M 3422M 3422B
                                                 3515M 3516M 3516B 3525M 3526M 3526B 3529M 3530M 3530B 3550M 3551M 3551B
                                                 3560M 3561M 3561B 3564M 3565M 3565B 3585M 3586M 3586B 3595M 3596M 3596B
                                                 3599M 3600M 3600B 3619M 3620M 3620B 3629M 3630M 3630B 3633M 3634M 3634B
                                                 3652M 3653M 3653B 3662M 3663M 3663B 3666M 3667M 3667B 3680M 3681M 3681B
                                                 3684M 3685M 3685B 3703M 3704M 3704B 3712M 3713M 3713B 3723M 3724M 3724B
                                                 3732M 3733M 3733B 3737M 3738M 3738B 3750M 3751M 3751B 3754M 3755M 3755B
                                                 3777M 3778M 3778B 3781M 3782M 3782B 3794M 3795M 3795B 3804M 3805M 3805B
                                                 3808M 3809M 3809B 5100M 5101M 5101B 5104M 5105M 5105B 5133M 5134M 5134B
                                                 5143M 5144M 5144B 5147M 5148M 5148B 7192M 7193M 7193B 7202M 7203M 7203B
                                                 7206M 7207M 7207B 7991M 7992M 7992B 8012M 8013M 8013B 8021M 8022M 8022B
                                                 8064M 8065M 8065B 8073M 8074M 8074B 8116M 8117M 8117B 8126M 8127M 8127B
                                                 8130M 8131M 8131B 8155M 8156M 8156B 8165M 8166M 8166B 8169M 8170M 8170B
                                                 8186M 8187M 8187B 8190M 8191M 8191B 8500M 8501M 8501B 8509M 8510M 8510B
                                                 8878M 8879M 8879B 8896M 8897M 8897B 8916M 8917M 8917B 8928M 8929M 8929B
                                                 8946M 8947M 8947B 8962M 8963M 8963B 8983M 8984M 8984B 8987M 8988M 8988B
                                                 9015M 9016M 9016B 9057M 9058M 9058B 9067M 9068M 9068B 9071M 9072M 9072B
                                                 9148M 9149M 9149B 9190M 9191M 9191B 9199M 9200M 9200B 9218M 9219M 9219B
                                                 9242M 9243M 9243B
 RECSTMT      27 00001940 00000001     C    5331 5321  5322  5322
 REPLACE     128 00000001 FFFFFFEE         1262 3081M 3376M 4022  5638
 RESTART     128 00000036 FFFFFFE8         2584 2977M 3069  6866  7656  8440
 RESTRET       4 0000012A 00000001     I    2893 2909B 2954B
 RETCODE       4 00000024 FFFFFFE8     F    2572 2891  3333M 3334M 3335M 3762M 3763M 3764M 9087  9089M
 RFLG          1 00000036 FFFFFFE8     R    2580 2584  2589  2594
 RINV          2 000001B4 00000001     H    2929 2787B 2919  2965B 2995B
 RKWRT         1 00000195 00000001     R    2914 2770
 RR            5 00000005 FFFFFFFF A   #    1076 3382M 3391  3964  3970M 3980  3985M 3985  4513M 4514M 4514  4645M 4653U
                                                 4837M 4838  4867M 4978M 4992  4998M 4998  9131M
 RS#           4 00000038 FFFFFFE8     A    2597 2971M 7662  8461
 RSXIT         2 000001D6 00000001     H    2958 2914
 RTNTABLE      4 00002CB0 00000001     F    9253 9124
 RTNTBSIZ      1 00000010 00000001 A   U    9264 9433
 R0            0 00000000 FFFFFFFF A   #     700 2687M 2687  2689M 2741M 2799M 2800M 2800  2813M 2818  2819M 2820  2831M
                                                 3178  3246  3248M 3365  3382  3391M 3919  4032M 4238  4405  4449M 5527
                                                 6195  6518  6679  7174M 7431  7610M 7611M 7612M 7624  7662M 7663  7811M
                                                 7847  7848M 7850  7856M 7931M 7936M 7957M 8430M 8668  8898M 8964M
 R1            1 00000001 FFFFFFFF A   #     713 2666  2688M 2688  2701M 2702M 2702  2703M 2703  2704M 2704  2705M 2706
                                                 2707  2742M 2825  2826  2830M 2830  3230M 3247M 3255M 3381  3923  3999M
                                                 4031M 4189M 4189  4196M 4201M 4202  4337M 4368  4385  4387  4387  4387
                                                 4411  4413  4415M 4415  4420  4422  4424  4426M 4426  4430  4432  4434
                                                 4436M 4436  4457M 4462  4733M 4734M 4735  4757M 4758M 4759  4794M 4795M
                                                 4796  4881M 4882M 4883  4946M 4947M 4948  4991M 4991  4992M 5001  5109M
                                                 5113M 5294M 5924  6814M 6918  6949  7646  7729M 7810  7811  7845  7846M
                                                 7848  7932M 7933M 7935  7949M 7952M 7953  7956M 7958M 7975M 8429M 8749M
                                                 8750M 8751
1SRES     Ordinary Symbol and Literal Cross Reference                                                                       Page   81
 R13          13 0000000D FFFFFFFF A   #     869 2691  2693  2694M 2695  2893M 4543  4545
 R14          14 0000000E FFFFFFFF A   #     882 3158  3347  3377B 4201  4337  6331M 6332M 6918M 8244B
 R15          15 0000000F FFFFFFFF A   #     895 2900M 3254M 3331M 3333  3366M 3760M 3762  3813M 3816M 3816  3927M 3927
                                                 3929M 3972M 3983M 3992  4006  4038  4050M 4052  4069M 4069  4083M 4085
                                                 4095M 4098M 4099M 4099  4202M 4212M 4212  4238M 4270M 4270  4287M 4287
                                                 4368M 4379M 4379  4406  4407  4407  4408  4409  4410  4413  4424  4434
                                                 4450M 4450  4453M 4462  5151M 5154M 5154  5440M 5442  5488  5504  5518
                                                 5544  5555M 5555  5575  5599  5613  5644M 5646  5707M 5707  5759  5770M
                                                 5770  5795  5806M 5806  5844  5902M 5902  5961  5972M 5972  5997  6008M
                                                 6008  6068  6079M 6079  6104  6115M 6115  6159  6172M 6172  6186  6212
                                                 6229  6243  6260M 6260  6367  6378M 6378  6403  6417  6434M 6434  6479
                                                 6495  6509  6535  6546M 6546  6565  6579  6643  6656M 6656  6670  6696
                                                 6713  6727  6744M 6744  6949M 7002  7005M 7005  7007B 7098M 7098  7155M
                                                 7155  7172M 7172  7239M 7240  7280  7291M 7291  7316  7330  7347M 7347
                                                 7392  7408  7422  7448  7459M 7459  7481  7495  7534M 7537M 7537  7844
                                                 7955M 8023M 8075M 8172M 8173M 8173  8226M 8226  8428M 8511M 8512M 8512
                                                 8549M 8549  8631  8668M 8700M 8700  8718  8721M 8721  8723B 8804M 8804
                                                 8813M 8813  8823M 9120  9124M 9126M 9126  9127  9129  9131
 R7            7 00000007 FFFFFFFF A   #     791 4111  4113  4113  4113  4206M 4218  4220  4220  4220  4372M 5274  5276
                                                 5276  5276  5306M 8611  8613  8613  8613  8816M
 R8            8 00000008 FFFFFFFF A   #     804 2695M 3970  3971  3994  4111  4113  4113  4113  4206M 4218  4220  4220
                                                 4220  4372M 4385  4387  4387  4387  4457M 4480  4482  4482  4482  4571M
                                                 5274  5276  5276  5276  5306M 9100  9102  9102  9102  9249M
 R9            9 00000009 FFFFFFFF A   #     817 3994M 3999  4010  4065M 4065  4075  8379  8381  8381  8381  8553M
 SBCOUNT       4 0000008C FFFFFFEE     F    1315 8750  8751M
 SBNIXRSZ      4 00000004 FFFFFFEE     A    1301 3441M 4759M 7239
 SBORVID       4 00000008 FFFFFFEE     F    1302 5527M 5659  5733  5870  5935  6042  6195M 6518M 6679M 6765  6821  6892
                                                 6924  6955  7024  7050M 7050  7067  7127  7431M 8674  8757  9380
 SBRETCOD      4 0000000C FFFFFFEE     F    1303 4052M 4053M 4054M 4085M 4086M 4087M 5442M 5443M 5444M 5488M 5489M 5490M
                                                 5544M 5545M 5546M 5646M 5647M 5648M 5759M 5760M 5761M 5795M 5796M 5797M
                                                 5961M 5962M 5963M 5997M 5998M 5999M 6068M 6069M 6070M 6104M 6105M 6106M
                                                 6159M 6160M 6161M 6212M 6213M 6214M 6367M 6368M 6369M 6403M 6404M 6405M
                                                 6479M 6480M 6481M 6535M 6536M 6537M 6643M 6644M 6645M 6696M 6697M 6698M
                                                 7002M 7003M 7004M 7280M 7281M 7282M 7316M 7317M 7318M 7392M 7393M 7394M
                                                 7448M 7449M 7450M 8718M 8719M 8720M 8918  8937
 SCAN          2 00000208 00000001     H    3036 3131B 3756B 3765B
 SCAN          1 00000000 00000005     T    3853 3853
 SCANERR       2 000004E4 00000001     H    3759 3531B 3566B 3601B 3636B 3687B 3739B
 SCANINC       4 00000248 00000001     I    3129 3423B
 SCANWA        8 00000588 00000001     D    3842 2758  3103  3254  3366
 SCINIT        1 00000000 00000004     T    3852 3852
 SCRATCH       1 00000004 00000001 A   U    2621 7003
 SCREREND      2 000030B4 00000001     G    9285 9258
 SCRERST       4 00003038 00000001     F    9282 9258
 SCTELL        1 00000000 00000015     T    3872 3872
 SETNEXT       4 00000922 00000001     I    4091 4076B
 SETNONE       2 00000900 00000001     H    4074 4005B 4092B
 SF_PRIVS      7 000000A0 FFFFFFEE     C    1323 6779  6786
 SFLAG         1 00000001 FFFFFFEE     R    1258 1262  1267  1272  1277  1282  1287  1292  1297
 SFRAREA       1 00000F80 00000001     X    5166 4617  4630
 SFRBLOCK   2104 00000000 FFFFFFEB     J    1487 4625U 5166
 SFRFNAME     44 00000000 FFFFFFEB     C    1474 1475  4637
 SFRIXNUM      4 0000002C FFFFFFEB     F    1476 4956
 SFRIXR     2048 00000038 FFFFFFEB     C    1480 4645
 SFRMINI      12 00000000 FFFFFFED     J    1357 4847U 4857  4976U 5009  8426U
 SFRNEXT       4 000000A8 FFFFFFEE     A    1324 3130  5447
 SFRRECHD      4 00000030 FFFFFFEB     F    1477 1478  1479
 SFRTABLE    168 00000000 FFFFFFEE     J    1331 2683U 3874  3923  3925  3975  3978  3980  3989  4060  4091  4535U 4537
                                                 4540  4541  4543  4544  4545  4567U 4639  5264  7531  8992  9412
1SRES     Ordinary Symbol and Literal Cross Reference                                                                       Page   82
 SFRWA       868 00000000 FFFFFFE8     J    2608 2663  2674U 2686
 SHIGH         4 00000090 FFFFFFEE     F    1316 4950M
 SHUTOFF       2 00002A58 00000001     H    8735 8722B 8725B 8726B 8728B
 SIXR          6 00000DA0 00000001     I    4877 4703B
 SKIP          2 00000868 00000001     H    3987 3979B
 SLISTLEN      1 00000022 00000001 A   U    5328 5318
 SLOW          4 00000094 FFFFFFEE     F    1317 4949M
 SMAX          2 000001E6 00000001     H    2986 2916
 SNAME        44 00000010 FFFFFFEE     C    1304 3172  3230  3231  3245  3923  3923  4407  4637  8908
 SNAMEL        4 00000068 FFFFFFEE     F    1306 3178M 8898
 SNUM          2 00000098 FFFFFFEE     H    1318 4886M
 SNUMHYBR      4 00000078 FFFFFFEE     F    1310 4734  4735M 5425M 5425  6331
 SNUMMIXR      4 00000074 FFFFFFEE     F    1309 4947  4948M 5406M 5406
 SNUMSIXR      4 00000070 FFFFFFEE     F    1308 4795  4796M 4882  4883M 5393M 5393
 SORT          4 000018C8 00000001     I    5273 5272
 SORT          1 00000000 00000018     T    5261 5261
 SORTLIST      2 00001906 00000001     R    5318 5315  5328
 SORTPARM      4 00001900 00000001     F    5314 5294
 SORTSTMT     24 00001928 00000001     C    5330 5319  5320  5320
 SPACEABT      4 00000936 00000001     I    4098 4004B 4037B
 SPACECHK      4 00000818 00000001     I    3939 3938
 SPACECHK      1 00000000 00000011     T    3866 3866
 SPCEREND      2 00003268 00000001     G    9296 9260
 SPCERST       4 00003268 00000001     F    9295 9260
 SPCEXIT       2 0000093C 00000001     I    4102 3968B 4071B 4096B
 SPCHECK       1 00000006 00000001 A   U    2623 4053  4086
 SPEXIT        2 000009C6 00000001     I    4205 4213B
 SPNOFILS      4 0000092E 00000001     I    4095 4068B
 SPUBPRIV      1 0000009E FFFFFFEE     X    1321 4761M 4824M 4885M 4916M 7083
 SR            2 00000002 FFFFFFFF A   #    1013 2685M 2689M 2692M 2693  2694  2826M 2831M 2891M 2900  2908M 2953M 3012
                                                 3014  3014  3014  3819M 3899  3901  3901  3901  3932M 4405M 4416M 4427M
                                                 4437M 4440M 4440  4442  4444M 4446  4448M 4448  4449  4480  4482  4482
                                                 4482  4503M 4517M 4517  4519M 4519  4546M 4571M 4578  4580  4580  4580
                                                 4831M 4852  4863M 5158M 5336  5338  5338  5338  7540M 7548  7550  7550
                                                 7550  7581M 7589U 7692M 7693M 7693  7694M 7694  7695M 7703U 7705M 7720U
                                                 7766M 7879M 7934M 7936M 8230M 8838  8840  8840  8840  9093M 9100  9102
                                                 9102  9102  9120M 9121M 9125M 9126  9129M 9135  9137M 9224M 9224  9232
                                                 9249M 9331  9333  9333  9333  9417M
 SRENAME      44 0000003C FFFFFFEE     C    1305 3245M 3359  3971  3978  3978  3980  4010  4031  4075  4541  4541  5466
                                                 6138  6347  6457  6622  7184  7259  7370  8002  8009  8975
 SRENAMEL      4 0000006C FFFFFFEE     F    1307 3246M 3365M 4032  5471  6143  6352  6462  6627  7174  7264  7375  8964
 SRES          1 00000000 00000001     J    1181 1183  1332  1358  2613  2614
 STACK         4 00000044 FFFFFFE8     F    2601 2692
 STOPNOW       2 0000225A 00000001     H    7211 6420B 7333B
 STZERO        2 000009D8 00000001     I    4212 4160B 4177B
 SUCCESS       2 00002B6A 00000001     H    8954 8920B
 SUSERFMT      4 00000080 FFFFFFEE     F    1312 4760M 4823M 4884M 4915M 7141
 SUSERREC      4 0000007C FFFFFFEE     F    1311 4012  4043  4762M 4838M 4877M 4914M 5924  7240M 7269
 SUSRBLK       4 00000084 FFFFFFEE     F    1313 7845M 8075  8689
 TABLEDON      2 00000254 00000001     H    3134 3059B 3341B
 TBLPTR       10 0000000A FFFFFFFF A   #    1140 2683U 3012  3014  3014  3014  3033M 3130M 3247  3819M 3899  3901  3901
                                                 3901  3921M 3925M 3925  3932M 3940  3969M 3975  3988M 3997M 4060M 4060
                                                 4091M 4091  4103M 4567U 4578  4580  4580  4580  4613M 4639M 4639  4849
                                                 4990  5158M 5336  5338  5338  5338  5356M 5447M 7508M 7531M 7540M 7548
                                                 7550  7550  7550  7844M 7955  8230M 8611  8613  8613  8613  8631M 8816M
                                                 8838  8840  8840  8840  8858M 8992M 8992  9093M 9331  9333  9333  9333
                                                 9351M 9412M 9412  9417M
 TIOEDDNM      8 0000001C FFFFFFE9     C    2497 7757
 TIOELNGH      1 00000018 FFFFFFE9     G    2454 7727  7772
1SRES     Ordinary Symbol and Literal Cross Reference                                                                       Page   83
 TIOENTRY      1 00000018 FFFFFFE9     U    2453 7705  7720U
 TIOTDSCT      1 00000000 FFFFFFE9     J    2325 2609
 TIOT1         1 00000000 FFFFFFE9     U    2432 7703U
 TITLE        71 0000014E 00000001     C    2911 2720  2727
 TR            3 00000003 FFFFFFFF A   #    1038 2686M 2820M 4504M 4505M 4505  4507M 4511M 4512M 4514  4520M 4535U 4540
                                                 4543  4544  4549M 4836M 4836  4853  4866M 7727M 7740M 7740  7766  7772M
                                                 7787M 7787  7880M 7899  7935M 9122M 9135  9156
 TYPIGNOR      2 00000378 00000001     H    3380 3840
 USER          3 00000033 FFFFFFE8     U    2576 2706M 4432  4434  4436  4472
 USERCHK       2 00000B7A 00000001     H    4429 4421B
 USRSPACE      5 00000005 00000001 A   U    3964 4006M 4038M 4041
 VAM           1 00000000 0000000C     T    3860 3860  4468  8248  9425
 VCNTRL        1 00000000 0000000D     T    3861 3861  9426
 VSEG          1 00000000 00000002     T    3850 3850  5262  8256  9424
 VWRITE        1 00000000 00000003     T    3851 3851  5263  8257  9429
 WAREG        11 0000000B FFFFFFFF A   #    1153 2666M 2674U 2685
 WRITEOK       2 00002A60 00000001     H    8745 8724B
 WRTEREND      2 0000322A 00000001     G    9293 9259
 WRTERST       4 000030F4 00000001     F    9287 9259
 =A(FPWRITE)
               4 000026BC 00000001     A    8255 6814
 =A(IXRNT#)
               4 0000187C 00000001     A    5260 4967
 =A(0)         4 000026A4 00000001     A    8249 5504  6495  7408
 =A(1)         4 00000608 00000001     A    3863 3129
 =A(1)         4 00000BD0 00000001     A    4465 3983  4057  4090
 =A(1)         4 00001878 00000001     A    5259 4863  4866  4996  5005
 =A(1)         4 000026D4 00000001     A    8261 7853  7952
 =A(1)         4 00003788 00000001     A    9430 8950
 =A(12)        4 000026B8 00000001     A    8254 5844  6417  7330
 =A(16)        4 000026AC 00000001     A    8251 5575
 =A(2048)      4 000026C8 00000001     A    8258 7611
 =A(24)        4 000026B0 00000001     A    8252 5599  6229  6565  6713  7481
 =A(28)        4 000026B4 00000001     A    8253 5613  6243  6579  6727  7495
 =A(33)        4 00000BE0 00000001     A    4469 4442
 =A(4)         4 000026A8 00000001     A    8250 5518  6186  6509  6670  7422  7612
 =A(8)         4 000026CC 00000001     A    8259 7624
 =AL2(L'SFRTABLE)
               2 00000674 00000001     R    3874 2819
 =C'    RESTORE <FILENAME> TO <FILENAME> (REPLACE)'
              46 000006EE 00000001     C    3883 3719
 =C' (IXR|NONIXR)'
              13 0000079C 00000001     C    3889 3728
 =C' (ORVYL), '
              10 000026F8 00000001     C    8265 8069
 =C' (USER)'
               7 0000275C 00000001     C    8269 8122
 =C' - BLOCK NUMBER IS '
              19 00002749 00000001     C    8268 8017
 =C' : ACCOUNT/JOB MISMATCH'
              23 00000774 00000001     C    3887 3591
 =C' : FILE COULD NOT BE OPENED'
              27 000018AC 00000001     C    5266 5139
 =C' : FILE COULD NOT BE OPENED'
              27 00002763 00000001     C    8270 8161
 =C' : FILE COULD NOT BE OPENED'
              27 000037B6 00000001     C    9435 8505
 =C' : Illegal string'
              17 00000763 00000001     C    3886 3556
1SRES     Ordinary Symbol and Literal Cross Reference                                                                       Page   84
 =C' : IGNORED'
              10 000006A2 00000001     C    3879 3413
 =C' : ILLEGAL SYNTAX FOR FILENAME'
              30 000006AC 00000001     C    3880 3521
 =C' : INVALID COMMAND'
              18 000006CA 00000001     C    3881 3625
 =C' be restored'
              12 00000650 00000001     C    3871 3321
 =C' FILES RESTORED'
              15 000037D1 00000001     C    9436 9063
 =C' FROM '
               6 000037B0 00000001     C    9434 9195
 =C' RETURN CODE WAS '
              17 000037E0 00000001     C    9437 9144
 =C' TO RESTORE EVEN ONE FILE'
              25 000007BA 00000001     C    3891 3800
 =C' WAS NOT RESTORED ; '
              20 0000376C 00000001     C    9427 8924
 =C' WAS SUCCESSFULLY RESTORED TO '
              30 00003790 00000001     C    9432 8958
 =C'.  The above file and any following will not'
              44 00000624 00000001     C    3870 3311
 =C': Invalid parameter string'
              26 00000676 00000001     C    3875 2943
 =C': USER FORMAT NOT RESTORED'
              26 000026DE 00000001     C    8264 7198
 =C'BP.ORV'
               6 00000696 00000001     C    3877 3207
 =C'CORRECT USAGE IS :'
              18 000006DC 00000001     C    3882 3708
 =C'DUPLICATE BLOCK ENCOUNTERED FOR FILE '
              37 00002724 00000001     C    8267 7987
 =C'DUPLICATE FILE - IGNORED'
              24 000005B8 00000001     C    3848 3746
 =C'ERROR IN SORTING INDEX RECORDS'
              30 0000188E 00000001     C    5265 5096
 =C'FILE NAME MISSING'
              17 0000078B 00000001     C    3888 3676
 =C'GG.DFF'
               6 0000069C 00000001     C    3878 3224
 =C'GG.ORV'
               6 00000690 00000001     C    3876 3190
 =C'INSUFFICIENT USER SPACE ALLOCATION'
              34 0000071C 00000001     C    3884 3790
 =C'NO INPUT ON SYSIN'
              17 000007A9 00000001     C    3890 3773
 =C'ORV.'      4 000005D0 00000001     C    3849 2690
 =C'TOO MANY RESTORE COMMANDS - LIMIT IS '
              37 0000073E 00000001     C    3885 3263
 =C'UNEXPECTED END OF FILE ON DUMPTAPE'
              34 00002702 00000001     C    8266 8182
 =C'VALID COMMANDS ARE :'
              20 00000660 00000001     C    3873 3658
 =CL8'DUMPINC'
               8 00002698 00000001     C    8247 7729
 =V(ATTFILES)
               4 000005E8 00000001     V    3855 2845
 =V(BTD)       4 00000620 00000001     V    3869 3289
 =V(BTD)       4 0000378C 00000001     V    9431 9040  9173
1SRES     Ordinary Symbol and Literal Cross Reference                                                                       Page   85
 =V(BTDC)      4 000026D8 00000001     V    8262 8047  8099
 =V(BUILDTBL)
               4 000005E4 00000001     V    3854 2839
 =V(DETFILES)
               4 000005F8 00000001     V    3859 2879
 =V(DOIXRS)
               4 00000610 00000001     V    3865 3144
 =V(DUPCHECK)
               4 0000061C 00000001     V    3868 3251
 =V(ERROR)
               4 00003780 00000001     V    9428 8941
 =V(FILESORT)
               4 0000060C 00000001     V    3864 3140
 =V(FILSPACE)
               4 00000BD8 00000001     V    4467 4035
 =V(FINDNEXT)
               4 000026D0 00000001     V    8260 7835
 =V(GETBLOCK)
               4 000005EC 00000001     V    3856 2857
 =V(GETCMD)
               4 00000604 00000001     V    3862 3056  3339
 =V(GETUSRSP)
               4 00000BD4 00000001     V    4466 4002
 =V(MOVEFILE)
               4 00000618 00000001     V    3867 3175  3362
 =V(PSTATUS)
               4 000005F4 00000001     V    3858 2875
 =V(PUTBLOCK)
               4 000005F0 00000001     V    3857 2862
 =V(SCAN)      4 000005E0 00000001     V    3853 2777  3123
 =V(SCINIT)
               4 000005DC 00000001     V    3852 2761  3106
 =V(SCTELL)
               4 0000065C 00000001     V    3872 3389
 =V(SORT)      4 00001880 00000001     V    5261 5086
 =V(SPACECHK)
               4 00000614 00000001     V    3866 3149
 =V(VAM)       4 000005FC 00000001     V    3860 2888
 =V(VAM)       4 00000BDC 00000001     V    4468 4156  4173  4266  4284  4314  4332  4350  4365
 =V(VAM)       4 000026A0 00000001     V    8248 5483  5540  5679  5696  5754  5791  5890  5956  5993  6063  6100  6154
                                                 6208  6363  6399  6474  6531  6638  6692  6793  6810  6846  6912  6944
                                                 6979  6998  7031  7046  7094  7112  7151  7169  7276  7312  7387  7444
 =V(VAM)       4 00003764 00000001     V    9425 8696  8714  8777  8793  9387  9402
 =V(VCNTRL)
               4 00000600 00000001     V    3861 3051  3652  3703
 =V(VCNTRL)
               4 00003768 00000001     V    9426 8878  8896  9015
 =V(VSEG)      4 000005D4 00000001     V    3850 2730  2937  2947  3267  3306  3315  3325  3407  3417  3515  3525  3550
                                                 3560  3585  3595  3619  3629  3662  3680  3712  3723  3732  3750  3777
                                                 3794  3804
 =V(VSEG)      4 00001884 00000001     V    5262 5100  5133  5143
 =V(VSEG)      4 000026C0 00000001     V    8256 7192  7202  7991  8012  8021  8064  8073  8116  8126  8155  8165  8186
 =V(VSEG)      4 00003760 00000001     V    9424 8500  8509  8916  8928  8962  8983  9057  9067  9148  9190  9199  9218
                                                 9242
 =V(VWRITE)
               4 000005D8 00000001     V    3851 2734  2951  3329  3421  3529  3564  3599  3633  3666  3684  3737  3754
                                                 3781  3808
 =V(VWRITE)
               4 00001888 00000001     V    5263 5104  5147
1SRES     Ordinary Symbol and Literal Cross Reference                                                                       Page   86
 =V(VWRITE)
               4 000026C4 00000001     V    8257 7206  8130  8169  8190
 =V(VWRITE)
               4 00003784 00000001     V    9429 8946  8987  9071
 =XL3'FFFFFF'
               3 0000277E 00000001     X    8271 8236
 =Y(IXRNT#)
               2 000026DC 00000001     Y    8263 6332
 =Y(L'GROUP+2)
               2 00000BE6 00000001     Y    4471 4427
 =Y(L'ORVPFX+L'ACCOUNT+1)
               2 00000BE4 00000001     Y    4470 4416
 =Y(L'SFRTABLE)
               2 0000188C 00000001     Y    5264 4512
 =Y(L'USER+2)
               2 00000BE8 00000001     Y    4472 4437
 =Y(RTNTBSIZ)
               2 000037AE 00000001     Y    9433 9125

1SRES     Macro and Copy Code Source Summary                                                                                Page   87
- Con Source                                        Volume    Members                        HLASM R4.0  2004/03/22 09.44
0     PRIMARY INPUT                                           COUNT    CSECT    DROP     END      ERROR    EX
                                                              GETCBAD  GETCMD   LTORG    POP      PRINT    PUSH
                                                              SETFILEN SETRC    START    USING
   L2 WYL.GG.SYS.MACLIB                             SYSB05    $BC      $BFLKUP  $BV      $CCLKUP  $CRS     $CSS     $L
                                                              $LA      $LBLAD   $LEXP    $LOR     $REL     $RGLKUP
                                                              $USLKUP  BASE     BEGIN    CLEAR    CSECT    DEFCC    DROP
                                                              ELSE     ELSEIF   END      EX       FLAG     GEN
                                                              HIBAL    IDENT    IF       INCR     LABEL    LC       LCM
                                                              LOOP     LS       LT       LTORG    L3       POP
                                                              PRINT    PUSH     RECORD   REG      REGS     SET
                                                              START    SYSLR    SYSQS    USING    VCALL    WHILE
   L3 WYL.GG.ORV.BC.MACLIB                          SYSB02    BTD      ORVDEFN  SCAN     SCINIT   SCKW     SCRTN
                                                              SCTELL   SEGDC    VCNTL    VSEG     VWRITE   XCALL
                                                              XENTER   XEXIT
   L4 WYL.GG.ORV.MACLIB                             SYSB02    FPC      IXR
   L5 SYS3.ORVYL.UMACLIB                            SYSB02    ATTACH   BATCH    CALLSYS  CONTROL  DETACH   STATUS
                                                              SYSKWT   WAIT     WRITE    XIT
   L6 SYS3.IS.MACLIB                                SYSB05    SYSDEFN
   L8 SYS1.MACLIB                                   MVSBR9    ABEND    CLOSE    DCB      DCBD     FREEMAIN FREEPOOL GET
                                                              GETMAIN  IEFTIOT1 IHBERMAC IHBINNRA IHBINNRB IHBINNRR
                                                              IHB01    LINK     OPEN     PUT      RETURN   SAVE
                                                              SYSSTATE

1         General Purpose Register Cross Reference                                                                          Page   88
- Register  References (M=modified, B=branch, U=USING, D=DROP, N=index)                      HLASM R4.0  2004/03/22 09.44
0    0(0)     983U  984D 2644  2664M 2687M 2687  2689M 2727M 2741M 2799M 2800M 2800  2813M 2818  2819M 2820  2831M 2884
             2887M 2890M 2896M 2897M 2903M 2944M 3038M 3125M 3125  3178  3246  3248M 3264M 3279M 3279  3312M 3322M 3365
             3382  3391M 3414M 3522M 3557M 3592M 3626M 3639M 3659M 3677M 3690M 3709M 3720M 3729M 3747M 3774M 3791M 3801M
             3919  4032M 4138M 4152  4155M 4158M 4169  4172M 4175M 4238  4246M 4262  4265M 4268M 4280  4283M 4286M 4310
             4313M 4316M 4328  4331M 4334M 4346  4349M 4352M 4361  4364M 4367M 4405  4449M 4630M 4857M 5009M 5049M 5054M
             5075M 5080M 5097M 5130M 5140M 5459M 5479  5482M 5485M 5527  5536  5539M 5542M 5659M 5675  5678M 5681M 5692
             5695M 5698M 5733M 5750  5753M 5756M 5787  5790M 5793M 5870M 5886  5889M 5892M 5935M 5952  5955M 5958M 5989
             5992M 5995M 6042M 6059  6062M 6065M 6096  6099M 6102M 6131M 6150  6153M 6156M 6195  6204  6207M 6210M 6340M
             6359  6362M 6365M 6395  6398M 6401M 6450M 6470  6473M 6476M 6518  6527  6530M 6533M 6615M 6634  6637M 6640M
             6679  6688  6691M 6694M 6765M 6789  6792M 6795M 6806  6809M 6812M 6821M 6842  6845M 6848M 6892M 6908  6911M
             6914M 6924M 6940  6943M 6946M 6955M 6975  6978M 6981M 6994  6997M 7000M 7024M 7027  7030M 7033M 7042  7045M
             7048M 7067M 7090  7093M 7096M 7108  7111M 7114M 7127M 7128M 7128  7147  7150M 7153M 7165  7168M 7171M 7174M
             7199M 7252M 7272  7275M 7278M 7308  7311M 7314M 7363M 7383  7386M 7389M 7431  7440  7443M 7446M 7610M 7611M
             7612M 7624  7643M 7662M 7663  7807M 7811M 7847  7848M 7850  7856M 7899M 7931M 7936M 7957M 7988M 8009M 8018M
             8037M 8070M 8089M 8123M 8152M 8162M 8183M 8217M 8222M 8414M 8430M 8497M 8506M 8540M 8545M 8668  8674M 8692
             8695M 8698M 8710  8713M 8716M 8757M 8773  8776M 8779M 8789  8792M 8795M 8830M 8831M 8832  8865M 8883M 8898M
             8925M 8959M 8964M 9002M 9030M 9064M 9145M 9163M 9196M 9215M 9239M 9380M 9383  9386M 9389M 9398  9401M 9404M
     1(1)     979U 2644  2661M 2664  2666  2688M 2688  2689M 2701M 2702M 2702  2703M 2703  2704M 2704  2705M 2706  2707
             2720M 2742M 2770M 2823M 2825  2826  2830M 2830  2831M 2884  2885M 2890M 2890  2898M 2898  2903M 2943M 3042M
             3042  3115M 3230M 3247M 3255M 3263M 3286M 3311M 3321M 3381  3399M 3413M 3521M 3556M 3591M 3625M 3643M 3643
             3658M 3676M 3694M 3694  3708M 3719M 3728M 3746M 3773M 3790M 3800M 3923  3940  3999M 4031M 4103M 4152  4153M
             4158M 4158  4169  4170M 4175M 4175  4189M 4189  4196M 4201M 4202  4262  4263M 4268M 4268  4280  4281M 4286M
             4286  4301M 4310  4311M 4316M 4316  4328  4329M 4334M 4334  4337M 4346  4347M 4352M 4352  4361  4362M 4367M
             4367  4368  4385  4411  4413  4415M 4415  4420  4422  4424  4426M 4426  4430  4432  4434  4436M 4436  4457M
             4462  4600M 4629M 4632  4733M 4734M 4735  4757M 4758M 4759  4794M 4795M 4796  4856M 4859  4881M 4882M 4883
             4946M 4947M 4948  4991M 4991  4992M 5001  5008M 5011  5026M 5034M 5035  5038  5044  5046M 5046  5047M 5049M
             5050M 5050  5053M 5053  5054  5055M 5060M 5061  5064  5070  5072M 5072  5073M 5075M 5076M 5076  5079M 5079
             5080  5081M 5096M 5109M 5113M 5139M 5294M 5466M 5479  5480M 5485M 5485  5536  5537M 5542M 5542  5666M 5675
             5676M 5681M 5681  5692  5693M 5698M 5698  5740M 5750  5751M 5756M 5756  5787  5788M 5793M 5793  5877M 5886
             5887M 5892M 5892  5924  5942M 5952  5953M 5958M 5958  5989  5990M 5995M 5995  6049M 6059  6060M 6065M 6065
             6096  6097M 6102M 6102  6138M 6150  6151M 6156M 6156  6204  6205M 6210M 6210  6347M 6359  6360M 6365M 6365
             6395  6396M 6401M 6401  6457M 6470  6471M 6476M 6476  6527  6528M 6533M 6533  6622M 6634  6635M 6640M 6640
             6688  6689M 6694M 6694  6772M 6789  6790M 6795M 6795  6806  6807M 6812M 6812  6814M 6828M 6842  6843M 6848M
             6848  6899M 6908  6909M 6914M 6914  6918  6931M 6940  6941M 6946M 6946  6949  6962M 6975  6976M 6981M 6981
             6994  6995M 7000M 7000  7027  7028M 7033M 7033  7042  7043M 7048M 7048  7074M 7090  7091M 7096M 7096  7108
             7109M 7114M 7114  7135M 7136M 7136  7147  7148M 7153M 7153  7165  7166M 7171M 7171  7184M 7198M 7259M 7272
             7273M 7278M 7278  7308  7309M 7314M 7314  7370M 7383  7384M 7389M 7389  7440  7441M 7446M 7446  7577M 7644M
             7646  7729M 7795M 7808M 7810  7811  7814M 7816  7845  7846M 7848  7859M 7861  7898M 7901  7932M 7933M 7935
             7936M 7949M 7952M 7953  7956M 7958M 7975M 7987M 8002M 8017M 8044M 8069M 8096M 8122M 8145M 8161M 8182M 8196M
             8202M 8203  8206  8212  8214M 8214  8215M 8217M 8218M 8218  8221M 8221  8222  8223M 8403M 8413M 8416  8429M
             8490M 8505M 8519M 8525M 8526  8529  8535  8537M 8537  8538M 8540M 8541M 8541  8544M 8544  8545  8546M 8692
             8693M 8698M 8698  8710  8711M 8716M 8716  8749M 8750M 8751  8764M 8773  8774M 8779M 8779  8789  8790M 8795M
             8795  8829M 8832M 8869M 8869  8887M 8887  8908M 8924M 8958M 8975M 9006M 9006  9037M 9063M 9144M 9170M 9195M
             9208M 9232M 9383  9384M 9389M 9389  9398  9399M 9404M 9404
     2(2)     975U 2644  2685M 2689M 2692M 2693  2694  2826M 2831M 2891M 2900  2903M 2908M 2953M 3012  3032M 3032  3129M
             3135M 3135  3137  3159  3248  3819M 3899  3919M 3926M 3932M 3940  3998M 4061M 4092M 4103M 4385  4405M 4416M
             4427M 4437M 4440M 4440  4442  4444M 4446  4448M 4448  4449  4457M 4480  4503M 4517M 4517  4519M 4519  4546M
             4571M 4578  4614M 4615M 4615  4640M 4828D 4830M 4830  4831M 4852  4863M 4967M 4999M 5158M 5336  5357M 5358M
             5358  5448M 7509M 7510M 7510  7532M 7540M 7548  7581M 7692M 7693M 7693  7694M 7694  7695M 7705M 7766M 7850M
             7853M 7863M 7879M 7934M 7936M 8230M 8838  8859M 8860M 8860  8993M 8994M 8995M 8997M 8997  9023  9073M 9073
             9075  9077M 9077  9081M 9085M 9087  9089  9093M 9100  9120M 9121M 9125M 9126N 9129M 9135  9137M 9224M 9224
             9232  9249M 9331  9352M 9353M 9353  9413M 9417M
     3(3)     971U 2644  2686M 2689M 2820M 2831M 2903M 3012  3819M 3899  3932M 3940  3966M 3967M 3967  3973M 3990M 3992M
             4066M 4103M 4385  4457M 4480  4504M 4505M 4505  4507M 4511M 4512M 4514N 4520M 4535U 4540  4543  4544  4549M
             4558U 4571M 4578  4836M 4836  4853  4866M 4986M 4986  5005M 5158M 5336  7540M 7548  7724D 7726M 7726  7727M
1         General Purpose Register Cross Reference                                                                          Page   89
             7728U 7740M 7740  7766  7769D 7771M 7771  7772M 7773U 7787M 7787  7880M 7899  7935M 7936M 8230M 8838  8862M
             8862  8950M 8995  9093M 9100  9121M 9122M 9135  9156  9249M 9331  9417M
     4(4)     967U 2644  2903M 3012  3381M 3399  3819M 3899  3932M 3940  3975M 3978  3980  3988  3989M 3989  4007M 4007
             4012M 4041  4043M 4103M 4385  4457M 4480  4537M 4549  4571M 4578  4839M 4847U 4874U 4968M 4976U 5019U 5158M
             5336  7540M 7548  8230M 8838  8918M 8919M 8919  9093M 9100  9130M 9137  9249M 9331  9417M
     5(5)     963U 2644  2903M 3012  3382M 3391  3819M 3899  3932M 3940  3970M 3980  3985M 3985  4006M 4038M 4041  4103M
             4385  4457M 4480  4513M 4514M 4514  4549  4571M 4578  4645M 4653U 4837M 4838  4867M 4978M 4984U 4992  4998M
             4998  5158M 5336  7540M 7548  8230M 8838  9093M 9100  9131M 9137  9249M 9331  9417M
     6(6)     959U 2644  2656M 2903M 3012  3819M 3899  3932M 3940  3993M 3993  4057M 4067  4090M 4103M 4385  4457M 4480
             4540M 4541  4544  4545  4571M 4578  4617M 4625U 4956M 4962U 4996M 5002  5158M 5336  7540M 7548  8230M 8379
             8418M 8553M 8838  9093M 9100  9127M 9128M 9128  9208  9249M 9331  9417M
     7(7)     955U 2644  2903M 3012  3017M 3027U 3819M 3899  3904M 3914U 3917U 3932M 3940  3945M 3955U 3958U 4103M 4111
             4116M 4206M 4218  4223M 4372M 4385  4390M 4400U 4403U 4457M 4480  4485M 4495U 4498U 4571M 4578  4583M 4593U
             4596U 5158M 5274  5279M 5306M 5336  5341M 5351U 5354U 7540M 7548  7553M 7563U 7566U 8230M 8379  8384M 8394U
             8397U 8553M 8611  8616M 8816M 8838  8843M 8853U 8856U 9093M 9100  9105M 9115U 9118U 9249M 9331  9336M 9346U
             9349U 9417M
     8(8)     951U 2644  2695M 2903M 3012  3013M 3818  3819M 3899  3900M 3931  3932M 3940  3941M 3970  3971  3994  4102
             4103M 4111  4112M 4205  4206M 4218  4219M 4371  4372M 4385  4386M 4456  4457M 4480  4481M 4570  4571M 4578
             4579M 5157  5158M 5274  5275M 5305  5306M 5336  5337M 7539  7540M 7548  7549M 8229  8230M 8379  8380M 8552
             8553M 8611  8612M 8815  8816M 8838  8839M 9092  9093M 9100  9101M 9248  9249M 9331  9332M 9416  9417M
     9(9)     947U 2644  2730M 2731M 2731B 2734M 2735M 2735B 2903M 2937M 2938M 2938B 2947M 2948M 2948B 2951M 2952M 2952B
             3012  3051M 3052M 3052B 3056M 3057M 3057B 3158M 3256  3267M 3268M 3268B 3306M 3307M 3307B 3315M 3316M 3316B
             3325M 3326M 3326B 3329M 3330M 3330B 3339M 3340M 3340B 3347M 3367B 3407M 3408M 3408B 3417M 3418M 3418B 3421M
             3422M 3422B 3515M 3516M 3516B 3525M 3526M 3526B 3529M 3530M 3530B 3550M 3551M 3551B 3560M 3561M 3561B 3564M
             3565M 3565B 3585M 3586M 3586B 3595M 3596M 3596B 3599M 3600M 3600B 3619M 3620M 3620B 3629M 3630M 3630B 3633M
             3634M 3634B 3652M 3653M 3653B 3662M 3663M 3663B 3666M 3667M 3667B 3680M 3681M 3681B 3684M 3685M 3685B 3703M
             3704M 3704B 3712M 3713M 3713B 3723M 3724M 3724B 3732M 3733M 3733B 3737M 3738M 3738B 3750M 3751M 3751B 3754M
             3755M 3755B 3777M 3778M 3778B 3781M 3782M 3782B 3794M 3795M 3795B 3804M 3805M 3805B 3808M 3809M 3809B 3819M
             3899  3932M 3940  3994M 3999  4010  4065M 4065  4075  4103M 4578  5100M 5101M 5101B 5104M 5105M 5105B 5133M
             5134M 5134B 5143M 5144M 5144B 5147M 5148M 5148B 5158M 5336  5815M 5911M 6017M 6302M 6851M 6916M 6948M 6983M
             7008  7011  7192M 7193M 7193B 7202M 7203M 7203B 7206M 7207M 7207B 7462B 7540M 7548  7991M 7992M 7992B 8012M
             8013M 8013B 8021M 8022M 8022B 8064M 8065M 8065B 8073M 8074M 8074B 8116M 8117M 8117B 8126M 8127M 8127B 8130M
             8131M 8131B 8155M 8156M 8156B 8165M 8166M 8166B 8169M 8170M 8170B 8186M 8187M 8187B 8190M 8191M 8191B 8230M
             8379  8500M 8501M 8501B 8509M 8510M 8510B 8553M 8611  8816M 8838  8878M 8879M 8879B 8896M 8897M 8897B 8916M
             8917M 8917B 8928M 8929M 8929B 8946M 8947M 8947B 8962M 8963M 8963B 8983M 8984M 8984B 8987M 8988M 8988B 9015M
             9016M 9016B 9057M 9058M 9058B 9067M 9068M 9068B 9071M 9072M 9072B 9093M 9148M 9149M 9149B 9190M 9191M 9191B
             9199M 9200M 9200B 9218M 9219M 9219B 9242M 9243M 9243B 9331  9417M
    10(A)     943U 2644  2683U 2903M 3012  3033M 3130M 3247  3819M 3899  3921M 3925M 3925  3932M 3940  3969M 3975  3988M
             3997M 4060M 4060  4091M 4091  4103M 4526U 4567U 4578  4613M 4639M 4639  4849  4990  5158M 5336  5356M 5447M
             7508M 7531M 7540M 7548  7844M 7955  8230M 8611  8631M 8816M 8838  8858M 8992M 8992  9093M 9331  9351M 9412M
             9412  9417M
    11(B)     939U 2644  2666M 2674U 2685  2903M
    12(C)     935U 2644  2645M 2654U 2903M
    13(D)     931U 2644  2691  2693  2694M 2695  2893M 2902  2903  3011  3012  3013  3014M 3014  3818M 3819  3820  3898
             3899  3900  3901M 3901  3931M 3932  3933  3939  3940  3941  3942M 3942  4102M 4103  4104  4110  4111  4112
             4113M 4113  4205M 4206  4207  4217  4218  4219  4220M 4220  4371M 4372  4373  4384  4385  4386  4387M 4387
             4456M 4457  4458  4479  4480  4481  4482M 4482  4543  4545  4570M 4571  4572  4577  4578  4579  4580M 4580
             5157M 5158  5159  5273  5274  5275  5276M 5276  5305M 5306  5307  5335  5336  5337  5338M 5338  7539M 7540
             7541  7547  7548  7549  7550M 7550  8229M 8230  8231  8378  8379  8380  8381M 8381  8552M 8553  8554  8610
             8611  8612  8613M 8613  8815M 8816  8817  8837  8838  8839  8840M 8840  9092M 9093  9094  9099  9100  9101
             9102M 9102  9248M 9249  9250  9330  9331  9332  9333M 9333  9416M 9417  9418
    14(E)     927U 2644  2761M 2762M 2762B 2777M 2778M 2778B 2839M 2840M 2840B 2845M 2846M 2846B 2857M 2858M 2858B 2862M
             2863M 2863B 2875M 2876M 2876B 2879M 2880M 2880B 2884  2889M 2890M 2902M 2904B 2983B 3007B 3011  3106M 3107M
             3107B 3123M 3124M 3124B 3140M 3141M 3141B 3144M 3145M 3145B 3149M 3150M 3150B 3158  3175M 3176M 3176B 3251M
             3252M 3252B 3289M 3290M 3290B 3347  3362M 3363M 3363B 3377B 3389M 3390M 3390B 3453B 3474B 3496B 3820M 3822B
             3898  3933M 3935B 3939  4002M 4003M 4003B 4035M 4036M 4036B 4104M 4106B 4110  4152  4157M 4158M 4169  4174M
             4175M 4201  4207M 4209B 4217  4259M 4259  4262  4267M 4268M 4280  4285M 4286M 4310  4315M 4316M 4328  4333M
             4334M 4337  4346  4351M 4352M 4361  4366M 4367M 4373M 4375B 4384  4458M 4460B 4479  4572M 4573B 4577  4633M
             4860M 5012M 5039M 5040M 5040  5045M 5045  5048M 5049  5065M 5066M 5066  5071M 5071  5074M 5075  5086M 5087M
1         General Purpose Register Cross Reference                                                                          Page   90
             5087B 5159M 5161B 5273  5307M 5309B 5335  5476M 5476  5479  5484M 5485M 5536  5541M 5542M 5675  5680M 5681M
             5692  5697M 5698M 5750  5755M 5756M 5787  5792M 5793M 5886  5891M 5892M 5952  5957M 5958M 5989  5994M 5995M
             6059  6064M 6065M 6096  6101M 6102M 6147M 6147  6150  6155M 6156M 6204  6209M 6210M 6331M 6332M 6359  6364M
             6365M 6395  6400M 6401M 6467M 6467  6470  6475M 6476M 6527  6532M 6533M 6631M 6631  6634  6639M 6640M 6688
             6693M 6694M 6786M 6789  6794M 6795M 6806  6811M 6812M 6839M 6839  6842  6847M 6848M 6908  6913M 6914M 6918M
             6940  6945M 6946M 6975  6980M 6981M 6994  6999M 7000M 7027  7032M 7033M 7042  7047M 7048M 7090  7095M 7096M
             7108  7113M 7114M 7147  7152M 7153M 7165  7170M 7171M 7269M 7272  7277M 7278M 7308  7313M 7314M 7380M 7380
             7383  7388M 7389M 7440  7445M 7446M 7541M 7543B 7547  7817M 7835M 7836M 7836B 7862M 7902M 8047M 8048M 8048B
             8099M 8100M 8100B 8207M 8208M 8208  8213M 8213  8216M 8217  8231M 8233B 8244B 8378  8417M 8530M 8531M 8531
             8536M 8536  8539M 8540  8554M 8556B 8610  8689M 8692  8697M 8698M 8710  8715M 8716M 8773  8778M 8779M 8789
             8794M 8795M 8817M 8819B 8837  8941M 8942M 8942B 9040M 9041M 9041B 9094M 9095B 9099  9173M 9174M 9174B 9250M
             9251B 9330  9383  9388M 9389M 9398  9403M 9404M 9418M 9419B
    15(F)     923U 2641  2644  2758M 2884  2888M 2889B 2890M 2900M 3103M 3172M 3254M 3275M 3331M 3333  3359M 3366M 3760M
             3762  3813M 3816M 3816  3821M 3821  3927M 3927  3929M 3934M 3934  3972M 3983M 3992  4006  4038  4050M 4052
             4069M 4069  4083M 4085  4095M 4098M 4099M 4099  4105M 4105  4152  4156M 4157B 4158M 4159M 4159  4169  4173M
             4174B 4175M 4176M 4176  4202M 4208M 4208  4212M 4212  4238M 4255M 4255  4262  4266M 4267B 4268M 4270M 4270
             4280  4284M 4285B 4286M 4287M 4287  4310  4314M 4315B 4316M 4318M 4318  4328  4332M 4333B 4334M 4335M 4335
             4346  4350M 4351B 4352M 4361  4365M 4366B 4367M 4368M 4374M 4374  4379M 4379  4406  4407  4407  4408  4409
             4410  4413  4424  4434  4450M 4450  4453M 4459M 4459  4462  4631M 4631  4632M 4633B 4858M 4858  4859M 4860B
             5010M 5010  5011M 5012B 5037M 5037  5038M 5039  5042  5047  5048  5051  5055  5063M 5063  5064M 5065  5068
             5073  5074  5077  5081  5151M 5154M 5154  5160M 5160  5299M 5308M 5308  5440M 5442  5471M 5472M 5472  5479
             5483M 5484B 5485M 5488  5504  5518  5536  5540M 5541B 5542M 5544  5555M 5555  5575  5599  5613  5644M 5646
             5675  5679M 5680B 5681M 5692  5696M 5697B 5698M 5707M 5707  5744M 5744  5750  5754M 5755B 5756M 5759  5770M
             5770  5787  5791M 5792B 5793M 5795  5806M 5806  5844  5886  5890M 5891B 5892M 5902M 5902  5946M 5946  5952
             5956M 5957B 5958M 5961  5972M 5972  5989  5993M 5994B 5995M 5997  6008M 6008  6053M 6053  6059  6063M 6064B
             6065M 6068  6079M 6079  6096  6100M 6101B 6102M 6104  6115M 6115  6143M 6150  6154M 6155B 6156M 6159  6172M
             6172  6186  6204  6208M 6209B 6210M 6212  6229  6243  6260M 6260  6352M 6359  6363M 6364B 6365M 6367  6378M
             6378  6395  6399M 6400B 6401M 6403  6417  6434M 6434  6462M 6463M 6463  6470  6474M 6475B 6476M 6479  6495
             6509  6527  6531M 6532B 6533M 6535  6546M 6546  6565  6579  6627M 6634  6638M 6639B 6640M 6643  6656M 6656
             6670  6688  6692M 6693B 6694M 6696  6713  6727  6744M 6744  6779M 6789  6793M 6794B 6795M 6806  6810M 6811B
             6812M 6835M 6842  6846M 6847B 6848M 6908  6912M 6913B 6914M 6940  6944M 6945B 6946M 6949M 6975  6979M 6980B
             6981M 6994  6998M 6999B 7000M 7002  7005M 7005  7007N 7027  7031M 7032B 7033M 7042  7046M 7047B 7048M 7080D
             7082M 7082  7083M 7084U 7090  7094M 7095B 7096M 7098M 7098  7108  7112M 7113B 7114M 7141M 7147  7151M 7152B
             7153M 7155M 7155  7165  7169M 7170B 7171M 7172M 7172  7239M 7240  7264M 7272  7276M 7277B 7278M 7280  7291M
             7291  7308  7312M 7313B 7314M 7316  7330  7347M 7347  7375M 7376M 7376  7383  7387M 7388B 7389M 7392  7408
             7422  7440  7444M 7445B 7446M 7448  7459M 7459  7481  7495  7534M 7537M 7537  7542M 7542  7815M 7815  7816M
             7817B 7844  7860M 7860  7861M 7862B 7900M 7900  7901M 7902B 7955M 8023M 8075M 8172M 8173M 8173  8205M 8205
             8206M 8207  8210  8215  8216  8219  8223  8226M 8226  8232M 8232  8415M 8415  8416M 8417B 8428M 8511M 8512M
             8512  8528M 8528  8529M 8530  8533  8538  8539  8542  8546  8549M 8549  8555M 8555  8631  8668M 8692  8696M
             8697B 8698M 8700M 8700  8710  8714M 8715B 8716M 8718  8721M 8721  8723N 8773  8777M 8778B 8779M 8789  8793M
             8794B 8795M 8804M 8804  8813M 8813  8818M 8818  8823M 8937M 8938M 8938  9023M 9120  9124M 9126M 9126  9127
             9129  9131  9156M 9383  9387M 9388B 9389M 9398  9402M 9403B 9404M

1SRES     Diagnostic Cross Reference and Assembler Summary                                                                  Page   91
-                                                                                            HLASM R4.0  2004/03/22 09.44
0     No Statements Flagged in this Assembly
 HIGH LEVEL ASSEMBLER, 5696-234, RELEASE 4.0, PTF UQ57391
0SYSTEM: OS/390 02.10.00            JOBNAME: PJG#SRES    STEPNAME: ASM        PROCSTEP: (NOPROC)
0Datasets Allocated for this Assembly
  Con DDname   Dataset Name                                 Volume  Member
   P1 SYSIN    SYS04082.T094410.RA000.PJG#SRES.INPUT.H01    SCR101
   L1 SYSLIB   SYS3.DUMMYMAC                                SYSB02
   L2          WYL.GG.SYS.MACLIB                            SYSB05
   L3          WYL.GG.ORV.BC.MACLIB                         SYSB02
   L4          WYL.GG.ORV.MACLIB                            SYSB02
   L5          SYS3.ORVYL.UMACLIB                           SYSB02
   L6          SYS3.IS.MACLIB                               SYSB05
   L7          SYS3.MACLIB                                  SYSB02
   L8          SYS1.MACLIB                                  MVSBR9
      SYSLIN   WYL.GG.PJG.OBJ                               SYSB05  SRES
      SYSPRINT SYS04082.T094410.RA000.PJG#SRES.PRINT.H01    SCR100
      SYSTERM  GG$PJG.PJG#SRES.JOB05961.D0000103.?

    7812K allocated to Buffer Pool,         2401K would be required for this to be an In-Storage Assembly
    1562 Primary Input Records Read        14637 Library Records Read                  0 Work File Reads
       0 ASMAOPT Records Read               5256 Primary Print Records Written         0 Work File Writes
     293 Punch Records Written                 0 ADATA Records Written
0Assembly Start Time: 09.44.13 Stop Time: 09.44.22 Processor Time: 00.00.02.0676
 Return Code 000
