1PAGESERV (PAGE00) (09:42) (22MAR04) Ordinary Symbol and Literal Cross Reference                                            Page  518
 =A(QFIX)      4 000047E8 00000001     A   40997 35583
 =A(QUFIX)
               4 00001648 00000001     A   17282 14591  15822  16295
 =A(QUFIX)
               4 000047F0 00000001     A   40999 36280  40636  40759
 =A(QUFIX)
               4 00005578 00000001     A   47754 41793  41916  43280  43403  45264  46636  46759
 =A(RESOLVE)
               4 00009530 00000001     A   73593 73515
 =A(RESPT)
               4 0000481C 00000001     A   41010 40132  40691
 =A(RESPT)
               4 0000556C 00000001     A   47751 41492  41848  42526  43335  44842  45961  46691
 =A(RESPT)
               4 00005F58 00000001     A   52433 49870
 =A(SGPTLMSK)
               4 00000E4C 00000001     A   13707 10250
 =A(SGPTLMSK)
               4 000032FC 00000001     A   30747 28503
 =A(SGPTLMSK)
               4 000087D0 00000001     A   69247 67271  67920  68354
 =A(SGTADMSK)
               4 00000E3C 00000001     A   13703  8974  10253  10971  11111
 =A(SGTADMSK)
               4 00001664 00000001     A   17289 15887  16145  16827  17000
 =A(SGTADMSK)
               4 00003300 00000001     A   30748 28855  29240
 =A(SGTADMSK)
               4 00003C30 00000001     A   35186 33744  34500
 =A(SGTADMSK)
               4 00004804 00000001     A   41004 38810  39166
 =A(SGTADMSK)
               4 00005F74 00000001     A   52440 51465
 =A(SGTADMSK)
               4 000087D4 00000001     A   69248 67276  67919  68357
 =A(SGTFLMSK)
               4 00000E18 00000001     A   13694  7878   9168
 =A(SGTFLMSK)
               4 00001684 00000001     A   17297 16909
 =A(SGTFLMSK)
               4 00003C4C 00000001     A   35193 34428
 =A(SMFPGEN-SMFPAGE)
               4 00008030 00000001     A   66350 66075
 =A(SMFPPAGE-SMFPAGE)
               4 00008038 00000001     A   66352 66077
 =A(SMFPSWAP-SMFPAGE)
               4 00008040 00000001     A   66354 66079
 =A(SWAPILOG)
               4 00002478 00000001     A   23881 19287
 =A(SWPGET)
               4 00002484 00000001     A   23884 19973
 =A(SWPREL)
               4 0000248C 00000001     A   23886 20238
 =A(SWPREL)
               4 00003C00 00000001     A   35174 31850
 =A(VALIDASN)
               4 00005F4C 00000001     A   52430 49350
 =A(VIRTABL)
               4 00000E10 00000001     A   13692  7347  10844  11643
1PAGESERV (PAGE00) (09:42) (22MAR04) Ordinary Symbol and Literal Cross Reference                                            Page  519
 =A(VIRTABL)
               4 000055A8 00000001     A   47766 45028
 =A(VIRTABL)
               4 00009508 00000001     A   73583 72534
 =A(WAKELOOK)
               4 0000246C 00000001     A   23878 18482
 =A(WAKELOOK)
               4 00008024 00000001     A   66347 65808
 =A(WKLCOUNT)
               4 00007FE8 00000001     A   66332 62572
 =A(X'FFFFFFFF')
               4 000073FC 00000001     A   61328 58070  58090  58173  58231  58559
 =A(X'00000007')
               4 00007400 00000001     A   61329 58143  58529
 =A(X'80000000'+PAGESWAP)
               4 00009538 00000001     A   73595 73541
 =A(XPGET)
               4 00000E24 00000001     A   13697  8109
 =A(XPGET)
               4 00003C38 00000001     A   35188 33863
 =A(XPGET)
               4 0000559C 00000001     A   47763 44642
 =A(XPGET)
               4 00005F3C 00000001     A   52426 49021
 =A(XPGET)
               4 000087FC 00000001     A   69258 68174
 =A(XPREL)
               4 00001674 00000001     A   17293 16041
 =A(XPREL)
               4 0000558C 00000001     A   47759 43166  46526
 =A(XPREL)
               4 00005F80 00000001     A   52443 51805  52084
 =A(0)         4 00001678 00000001     A   17294 16214  16226  17076  17088
 =A(0)         4 00003C20 00000001     A   35182 33282  33294  34608  34620
 =A(0)         4 000047F4 00000001     A   41000 37413  37425  38211  38223
 =A(0)         4 00005588 00000001     A   47758 43078  43090  46406  46418
 =A(0)         4 0000927C 00000001     A   72311 71089  71101  71515  71527
 =A(1)         4 0000165C 00000001     A   17287 15465  15566  16612  16713
 =A(1)         4 0000249C 00000001     A   23890 22508  22610
 =A(1)         4 000032E8 00000001     A   30742 27219  27322  29305
 =A(1)         4 000047E4 00000001     A   40996 35389  36005  36664  37274  37794  39990  40558
 =A(1)         4 00005568 00000001     A   47750 41256  41715  42384  43202  44031  44034  45819  46558  47283  47286
 =A(1)         4 0000741C 00000001     A   61336 59282
 =A(1)         4 00007FDC 00000001     A   66329 61955  62040  62554  62770  66173  66207
 =A(1)         4 000087CC 00000001     A   69246 66729  66821  67274  67923  69124
 =A(1)         4 00009250 00000001     A   72300 70509  70521  70593  70605  71930
 =A(10)        4 0000924C 00000001     A   72299 70383  70395  71444  71456
 =A(12)        4 0000928C 00000001     A   72315 71578  71590
 =A(20)        4 00009248 00000001     A   72298 70320  70332  70446  70458
 =A(255)       4 00009290 00000001     A   72316 71597  71609
 =A(256*L'PGTFINV)
               4 00005590 00000001     A   47760 43175
 =A(256*L'PGTFINV)
               4 00005F40 00000001     A   52427 49085  51814
 =A(256*L'PGTFINV)
               4 00008000 00000001     A   66338 63833
 =A(3)         4 0000802C 00000001     A   66349 66071
 =A(32)        4 00007404 00000001     A   61330 58155  58167  58541  58553
 =A(4)         4 000073F4 00000001     A   61326 57816  57828  58036  58048  58184  58196  58573  58585
1PAGESERV (PAGE00) (09:42) (22MAR04) Ordinary Symbol and Literal Cross Reference                                            Page  520
 =A(4096)      4 0000742C 00000001     A   61340 60855
 =A(4096)      4 00008018 00000001     A   66344 64415
 =A(4096)      4 00009244 00000001     A   72297 70148
 =A(63)        4 00003C24 00000001     A   35183 33301  33313
 =A(8)         4 00009254 00000001     A   72301 70528  70540  70612  70624
 =AL1(SMFNUM)
               1 00008052 00000001     R   66360 66220
 =AL2(PAGHINIT)
               2 00006642 00000001     R   55557 54801
 =AL4($VPTPROT)
               4 00004820 00000001     R   41011 40208
 =C' '         1 00009D92 00000001     C   77107 74066
 =C' '         1 0000A6BE 00000001     C   81143 77598
 =C' on '      4 00009D48 00000001     C   77101 75000  76060
 =C' on '      4 0000A674 00000001     C   81137 78531  79263  80323
 =C'External page frame shortage'
              28 00009D50 00000001     C   77103 76688
 =C'External swap frame shortage'
              28 0000A67C 00000001     C   81139 80960
 =C'Page dataset initialization failed'
              34 00009D70 00000001     C   77106 75560
 =C'Page dataset open failed'
              24 00009D08 00000001     C   77091 74500
 =C'Swap dataset format error'
              25 0000A6BF 00000001     C   81144 78979
 =C'Swap dataset initialization failed'
              34 0000A69C 00000001     C   81142 79823
 =C'Swap dataset open failed'
              24 0000A630 00000001     C   81126 78031
 =CL16'PAGASN'
              16 00007FC0 00000001     C   66326 64047
 =CL16'PAGCELL'
              16 00009208 00000001     C   72285 71851
 =CL16'PAGESWAP'
              16 00009130 00000001     C   72260 69568
 =CL16'PAGEXPAG'
              16 00009140 00000001     C   72261 70051
 =CL16'PAGFRAME'
              16 00009120 00000001     C   72259 69539
 =CL16'PAGXSWP'
              16 0000A610 00000001     C   81123 77328
 =CL16'PCBLOCK'
              16 00007FB0 00000001     C   66325 63385
 =CL4'BMCB'
               4 00001660 00000001     C   17288 15498  16645
 =CL4'BMCB'
               4 000024A0 00000001     C   23891 22542
 =CL4'BMCB'
               4 000032D8 00000001     C   30738 26648  27253
 =CL4'BMCB'
               4 000073E8 00000001     C   61323 55745  56324  57442  57698  58443
 =CL4'BMCB'
               4 00009240 00000001     C   72296 70147
 =CL4'BMCB'
               4 00009D2C 00000001     C   77094 74034
 =CL4'BMCB'
               4 0000A658 00000001     C   81130 77567
 =CL4'ORVP'
               4 00008028 00000001     C   66348 66070
1PAGESERV (PAGE00) (09:42) (22MAR04) Ordinary Symbol and Literal Cross Reference                                            Page  521
 =CL4'PCB'
               4 00007FF4 00000001     C   66335 63353
 =CL4'PGIO'
               4 00009298 00000001     C   72318 71865
 =CL4'SWIO'
               4 0000929C 00000001     C   72319 71867
 =CL8'AVG_WS'
               8 00009168 00000001     C   72265 70413
 =CL8'BAKEMPTY'
               8 000091F8 00000001     C   72283 71639
 =CL8'EXTERNAL'
               8 000091F0 00000001     C   72282 71638
 =CL8'GWS_CYCLE'
               8 00009178 00000001     C   72267 70560
 =CL8'INTERCPT'
               8 000091D0 00000001     C   72278 71317
 =CL8'MAX'
               8 000091D8 00000001     C   72279 71402
 =CL8'MIN'
               8 000091E0 00000001     C   72280 71472
 =CL8'MULTDEF'
               8 00009200 00000001     C   72284 71724
 =CL8'PAGCB'
               8 00009118 00000001     C   72258 69484
 =CL8'PAGE_CNT'
               8 00009158 00000001     C   72263 70287
 =CL8'PAGE'
               8 00009D00 00000001     C   77090 73823
 =CL8'PAGING'
               8 00009150 00000001     C   72262 70286
 =CL8'PAGING'
               8 00009CF8 00000001     C   77089 73822  76403
 =CL8'PAGING'
               8 0000A620 00000001     C   81124 77353  80675
 =CL8'RESERVE'
               8 000091B8 00000001     C   72275 71146
 =CL8'RM_ALPHA'
               8 00009180 00000001     C   72268 70649
 =CL8'RM_HIGH'
               8 00009190 00000001     C   72270 70810
 =CL8'RM_LOW'
               8 00009188 00000001     C   72269 70739
 =CL8'RM_THRSH'
               8 000091A8 00000001     C   72273 71049
 =CL8'SLOPE'
               8 000091C0 00000001     C   72276 71147
 =CL8'SWAP_CNT'
               8 00009160 00000001     C   72264 70350
 =CL8'SWAP_EXT'
               8 000091E8 00000001     C   72281 71545
 =CL8'SWAP_HI'
               8 00009198 00000001     C   72271 70877
 =CL8'SWAP_LOW'
               8 000091A0 00000001     C   72272 70963
 =CL8'SWAP'
               8 0000A628 00000001     C   81125 77354
 =CL8'WS_CYCLE'
               8 00009170 00000001     C   72266 70476
 =CL8'X_OFF'
1PAGESERV (PAGE00) (09:42) (22MAR04) Ordinary Symbol and Literal Cross Reference                                            Page  522
               8 000091C8 00000001     C   72277 71232
 =CL8'XPAG_MIN'
               8 00009D20 00000001     C   77092 76404
 =CL8'XSWP_MIN'
               8 0000A648 00000001     C   81127 80676
 =D'0.5'       8 000091B0 00000001     D   72274 71069
 =D'4096E6'
               8 00007FD0 00000001     D   66327 64749
 =E'.1'        4 00009274 00000001     E   72309 71006  71013
 =E'.55'       4 0000925C 00000001     E   72303 70667
 =E'.99'       4 00009260 00000001     E   72304 70707  70714
 =E'-100'      4 00009288 00000001     E   72314 71275  71282  71360  71367
 =E'0'         4 00009280 00000001     E   72312 71165  71190  71197  71250  71335
 =E'1'         4 0000801C 00000001     E   66345 64760  64778  64780
 =E'1'         4 00009264 00000001     E   72305 70757  70828  70916  70923
 =E'100'       4 00009284 00000001     E   72313 71209  71216  71294  71301  71379  71386
 =E'1000'      4 0000926C 00000001     E   72307 70935  70942
 =E'20'        4 00009270 00000001     E   72308 70981
 =E'60'        4 00009268 00000001     E   72306 70895
 =V(ACREATE)
               4 0000953C 00000001     V   73596 73544
 =V(ASSYSTSK)
               4 00002468 00000001     V   23877 18463
 =V(AWAITAS)
               4 00002470 00000001     V   23879 18528
 =V(AWAITAS)
               4 00005F5C 00000001     V   52434 50567
 =V(AWAITAS)
               4 00007FD8 00000001     V   66328 61932
 =V(CPLOCK)
               4 00005F48 00000001     V   52429 49246
 =V(CPULOCK)
               4 00005F50 00000001     V   52431 49368
 =V(DISPPIOC)
               4 0000164C 00000001     V   17283 14822  14986
 =V(DISPPTLB)
               4 00003C40 00000001     V   35190 34240  34425
 =V(DISPPTLB)
               4 0000480C 00000001     V   41006 38875  39232  39355
 =V(DISPPTLB)
               4 0000663C 00000001     V   55555 54304
 =V(DISPSHLD)
               4 00002464 00000001     V   23876 18456
 =V(DISPSIOC)
               4 0000247C 00000001     V   23882 19320  23463
 =V(DISPSIOC)
               4 000032EC 00000001     V   30743 27582
 =V(IOSDOIO)
               4 00000E68 00000001     V   13714 12911  13623
 =V(IOSDOIO)
               4 00002494 00000001     V   23888 22037
 =V(IOSDOIO)
               4 000032E0 00000001     V   30740 26833
 =V(IOSDOIO)
               4 00009D34 00000001     V   77096 74242  75302
 =V(IOSDOIO)
               4 0000A660 00000001     V   81132 77772  79565
 =V(IOSIDFRE)
               4 00009520 00000001     V   73589 73387
1PAGESERV (PAGE00) (09:42) (22MAR04) Ordinary Symbol and Literal Cross Reference                                            Page  523
 =V(IOSIDGET)
               4 00007434 00000001     V   61342 60992
 =V(IOSIDGET)
               4 000092A0 00000001     V   72320 72066
 =V(IOSIDGET)
               4 0000951C 00000001     V   73588 73270
 =V(IOSTIME)
               4 00001658 00000001     V   17286 15439  16586
 =V(IOSTIME)
               4 00002498 00000001     V   23889 22482
 =V(IOSTIME)
               4 000032E4 00000001     V   30741 27192
 =V(LKCRE)
               4 00007FF8 00000001     V   66336 63394  64056
 =V(LKCRE)
               4 00009230 00000001     V   72292 69548  69577  70060  71860
 =V(LKCRE)
               4 0000A650 00000001     V   81128 77337
 =V(LKDEL)
               4 00005F6C 00000001     V   52438 50967
 =V(LKOB)      4 00009528 00000001     V   73591 73510
 =V(LKREL)
               4 0000952C 00000001     V   73592 73511
 =V(SEG)       4 00009D3C 00000001     V   77098 74469  74550  74900  74978  75044  75114  75529  75610  75960  76038
                                                 76104  76174  76658  76732
 =V(SEG)       4 0000A668 00000001     V   81134 78000  78081  78431  78509  78575  78645  78949  79023  79163  79241
                                                 79307  79377  79792  79873  80223  80301  80367  80437  80930  81004
 =V(SEGCLR)
               4 00009D44 00000001     V   77100 74808  75868
 =V(SEGCLR)
               4 0000A670 00000001     V   81136 78339  79071  80131
 =V(SEGHEX)
               4 00009D40 00000001     V   77099 74620  74690  74760  75680  75750  75820
 =V(SEGHEX)
               4 0000A66C 00000001     V   81135 78151  78221  78291  79943  80013  80083
 =V(SEGINIT)
               4 00009D38 00000001     V   77097 74366  75426  76555
 =V(SEGINIT)
               4 0000A664 00000001     V   81133 77897  78846  79689  80827
 =V(SIGNALAS)
               4 00001650 00000001     V   17284 15061  17183
 =V(SIGNALAS)
               4 00002460 00000001     V   23875 18274
 =V(SIGNALAS)
               4 00007FEC 00000001     V   66333 63065
 =V(VMDEFSET)
               4 0000881C 00000001     V   69266 69130
 =V(VMFREE)
               4 00005F70 00000001     V   52439 51039  51103
 =V(VMFREE)
               4 00008048 00000001     V   66356 66286
 =V(VMFREE)
               4 000092AC 00000001     V   72323 72178
 =V(VMFREE)
               4 00009524 00000001     V   73590 73451  73505
 =V(VMFREE)
               4 00009D4C 00000001     V   77102 75188  76248  76939  76990
 =V(VMFREE)
               4 0000A678 00000001     V   81138 78719  79451  80511
1PAGESERV (PAGE00) (09:42) (22MAR04) Ordinary Symbol and Literal Cross Reference                                            Page  524
 =V(VMGET)
               4 00005598 00000001     V   47762 44392  44448
 =V(VMGET)
               4 00005F2C 00000001     V   52422 48426
 =V(VMGET)
               4 00007430 00000001     V   61341 60900
 =V(VMGET)
               4 00007FF0 00000001     V   66334 63315  64117  64269  64430  66016
 =V(VMGET)
               4 000087C0 00000001     V   69243 66565  67030
 =V(VMGET)
               4 00009218 00000001     V   72286 69436  70118  70185  70252  71984
 =V(VMGET)
               4 00009518 00000001     V   73587 73159  73222
 =V(VMGET)
               4 00009D28 00000001     V   77093 73958  76319
 =V(VMGET)
               4 0000A654 00000001     V   81129 77490  80581
 =X'AAAAAAAA'
               4 00008014 00000001     X   66343 64272
 =X'FF'        1 000092BC 00000001     X   72330 70196
 =X'FF'        1 00009D93 00000001     X   77108 76330  76863
 =X'FF'        1 0000A6D8 00000001     X   81145 80592
 =X'FFFFFFFF'
               4 00007FE4 00000001     X   66331 62336
 =X'FFFFF000'
               4 00000E08 00000001     X   13690  6979
 =X'000000F0'
               4 00004828 00000001     X   41013 40346  40363
 =X'000007FF'
               4 000032F8 00000001     X   30746 28486  29123  29295
 =X'00100000'
               4 000055B8 00000001     X   47770 47387
 =X'04'        1 00003322 00000001     X   30758 28364
 =X'04'        1 00005F90 00000001     X   52449 49344
 =X'070C0000'
               4 00009534 00000001     X   73594 73540
 =X'080C0E0F'
               4 000073F8 00000001     X   61327 57833  58053  58201  58590
 =X'46000000'
               4 00009278 00000001     X   72310 71071
 =X'7FFFF000'
               4 000092A4 00000001     X   72321 72086
 =X'80000000'
               4 00003C28 00000001     X   35184 33561  33613
 =X'80000000'
               4 00007418 00000001     X   61335 59271  59835  59880
 =X'80000000'
               4 00007FE0 00000001     X   66330 62306  64137  64434
 =Y(L'@DSDSN)
               2 00009D6E 00000001     Y   77105 74070  74072
 =Y(L'@DSDSN)
               2 0000A69A 00000001     Y   81141 77602  77604
 =Y(L'PAGTABLE)
               2 000055BC 00000001     Y   47771 44377  44433
 =Y(L'PGDPAGE)
               2 000092B8 00000001     Y   72328 71864
 =Y(L'PGDSLIST)
               2 000024A4 00000001     Y   23892 20500
1PAGESERV (PAGE00) (09:42) (22MAR04) Ordinary Symbol and Literal Cross Reference                                            Page  525
 =Y(L'PGDSLIST)
               2 0000331C 00000001     Y   30755 26582
 =Y(L'SGTE+L'SSTE)
               2 00005F88 00000001     Y   52445 48376
 =Y(L'SGTE+L'SSTE)
               2 000092B2 00000001     Y   72325 69506
 =Y(L'SGTE)
               2 00008826 00000001     Y   69270 67805
 =Y(PAGPAGEL)
               2 00000E74 00000001     Y   13717  8166
 =Y(PAGPAGEL)
               2 00003320 00000001     Y   30757 28197
 =Y(PAGPAGEL)
               2 00005F8E 00000001     Y   52448 49057
 =Y(PAGPAGEL)
               2 00006640 00000001     Y   55556 54196
 =Y(PAGPAGEL)
               2 00008824 00000001     Y   69269 67756  68246
 =Y(PAGPAGEL)
               2 00009540 00000001     Y   73597 72853
 =Y(WKLLEN)
               2 0000804C 00000001     Y   66357 62370
 =Y(1)         2 0000331E 00000001     Y   30756 28184
 =Y(1)         2 00005F8C 00000001     Y   52447 48915
 =Y(1)         2 00006644 00000001     Y   55558 54818
 =Y(1)         2 00008822 00000001     Y   69268 67659
 =Y(1)         2 000092B4 00000001     Y   72326 70063
 =Y(27*256+0)
               2 000055BE 00000001     Y   47772 44383
 =Y(32767)
               2 000092B6 00000001     Y   72327 71439  71441
 =Y(4096)      2 000092BA 00000001     Y   72329 71899
 =Y(59*256+0)
               2 00008050 00000001     Y   66359 66013  66283
 =Y(59*256+0)
               2 00009542 00000001     Y   73598 73156  73502
 =Y(63*256+0)
               2 000055C0 00000001     Y   47773 44439
 =Y(63*256+0)
               2 00005F8A 00000001     Y   52446 48417  51036  51100
 =Y(63*256+0)
               2 00007438 00000001     Y   61343 60891
 =Y(63*256+0)
               2 0000804E 00000001     Y   66358 63306  64108  64266  64421
 =Y(63*256+0)
               2 00008820 00000001     Y   69267 66562  67021
 =Y(63*256+0)
               2 000092B0 00000001     Y   72324 69427  70109  70182  70249  71975  72175
 =Y(63*256+0)
               2 00009544 00000001     Y   73599 73213  73448
 =Y(63*256+0)
               2 00009D6C 00000001     Y   77104 73949  75185  76245  76316  76936  76987
 =Y(63*256+0)
               2 0000A698 00000001     Y   81140 77481  78716  79448  80508  80578

1PAGESERV (PAGE00) (09:42) (22MAR04) Macro and Copy Code Source Summary                                                     Page  526
- Con Source                                        Volume    Members                        HLASM R4.0  2004/03/22 09.42
0     PRIMARY INPUT                                           $RL      BLKDSID  CELLFREE CELLGET  CSECT    DATOFF
                                                              DATON    DROP     END      EX       FRAMEGET FRAMEREL LADD
                                                              LKOB     LKREL    LLRU     LREM     LREMALL  LSTCHK
                                                              LTORG    PAGAD    PAGNTRY  PAGPRC   PAGWT    PAGXIT   POP
                                                              PRINT    PUSH     QSFIX    QUSFIX   RTOV     SLKOB
                                                              SLKRL    START    USING    VIRTABL  VPPARM   XPGET
                                                              XPREL
   L2 WYL.GG.ORV.MACLIB                             SYSB02    $LKPARM  ABORT    ACALL    ASB      ASBPCB   AWAIT
                                                              DISPPARM DSALPARM GETPARM2 HEADER   IORPARM  IOSPARM
                                                              LCALL    LELEM    LHEAD    LISTPARM LKCRE    LOCKPARM
                                                              LSTMAC   MAT      MODULE   MOVSTR   ORVSNAP  ORVWTO
                                                              PAGCB    PAGEPARM PARMPARM PEND     PFINFO   PIOPARM  PMOV
                                                              PROC     PSET     PZERO    RECLOG   REG      REGCH    SEG
                                                              SEGB     SEGCBD   SEGCLR   SEGDEF   SEGHEX   SEGINIT
                                                              SEGLD    SEGPARM  SIGNL    SIGPARM  SMFPAGE  SMFPFX
                                                              SPLEVEL  SWAPPARM SYSCTL   VCALL    VLEN     VMFREE
                                                              VMGET    VMPARM   VSWAP    XTRCDATA
   L3 WYL.GG.SYS.MACLIB                             SYSB05    $BC      $BFLKUP  $BV      $CCLKUP  $CRS     $CSS     $L
                                                              $LA      $LBLAD   $LEXP    $LOR     $OIL     $REL
                                                              $RGLKUP  $USLKUP  ADLR     ASSERT   AUSING   BEGIN    CEIL
                                                              CLEAR    CSECT    DATA     DECR     DEFCC    DEX      DIAG
                                                              DROP     ELSE     ELSEIF   END      EX       EXIT     FLAG
                                                              FLOOR    GEN      HIBAL    IDENT    IF       INCR
                                                              LABEL    LC       LCM      LF       LOOP     LT       LTH
                                                              LTORG    NEXT     POP      PRINT    PUSH     RECORD   REGS
                                                              SDLR     SET      START    STF      STMAX    STMIN
                                                              UNTIL    USING    WHILE    WITH

1         (PAGE00) (09:42) (22MAR04) General Purpose Register Cross Reference                                               Page  527
- Register  References (M=modified, B=branch, U=USING, D=DROP, N=index)                      HLASM R4.0  2004/03/22 09.42
0    0(0)      991U   992D  6863   6912D  6987D  7054D  7194D  7539M  7544   7592M  7597   7667   7877M  7878M  7879M
              7880   8139   8208M  8462D  8744   8753   8754   8755   8843M  8848   8896M  8901   8974M  8975   9412D
              9795M  9795   9796M  9843U  9864U  9865D  9897   9946D 10321  10458  10507D 10601D 10624M 10625M 10626M
             10691  10740D 11170M 11170  11171M 11218U 11239U 11240D 11306  11360D 11551M 11835U 11857D 11976M 11976
             12050M 12050  12202M 12272U 12293U 12294D 12322  12372D 12477M 12482  12494M 12499  12515M 12515  12573
             12852M 12857  12869M 12874  12897M 12902  12919D 12935M 12982U 13003U 13004D 13029  13079D 13151M 13156
             13168M 13173  13189M 13189  13201  13567M 13572  13584M 13589  13609M 13609  13614  13773  13820D 14329D
             14962D 15053M 15058  15132M 15137  15171M 15176  15239U 15260U 15261D 15288  15337D 15515U 15536U 15537D
             15913M 15914M 15915M 15916  15933M 15934M 15935  15936  16376U 16397U 16398D 16444  16498D 16662U 16683U
             16684D 16780M 16828M 16829M 16830  16863M 16864M 16865M 16866  16908M 16909M 16910M 16911  17175M 17180
             17253U 17274U 17275D 17343  17397D 17507D 17646D 18052M 18108  18144D 18266M 18271  18345  18394D 18520M
             18525  18673  18739M 18739  18779M 18787  19493  19547D 19637M 19637  19638M 19679M 19684  19712  19962M
             19967  19993  20062M 20111M 20111  20126  20134M 20159  20222M 20227  20281M 20286  20320M 20325  20472M
             20477  20585U 20606U 20607D 20650  20727D 20835M 20835  20884M 20919  21106M 21106  21155M 21197  21485U
             21506U 21507D 21549  21598D 21717M 21717  21757M 21765  21810M 21810  21849M 21994M 21999  22011M 22016
             22089M 22168  22222D 22321D 22559U 22580U 22581D 23188M 23189M 23191  23527  23581D 23845U 23866U 23867D
             23947  24001D 24343M 24343  24382M 24669M 24669  24708M 24886M 24886  24925M 25064M 25069  25220M 25220
             25235  25243M 25275  25466M 25466  25481  25489M 25521  25699M 25699  25748M 25775  25820D 26313U 26334U
             26335D 26376  26425D 26687D 26758M 26763  26791M 26796  26819M 26824  26841D 26851M 26851  26911U 26932U
             26933D 26956  27042D 27065D 27203M 27224  27270U 27291U 27292D 27306M 27327  27699  27753D 28150M 28151M
             28152M 28153  28164M 28165  28502M 28503M 28505M 28506  28619U 28627U 28628D 28873M 28874M 28877  28887M
             28888  29259M 29260M 29263  29273M 29274  29294M 29295M 29296  29301M 29301  29302M 29305M 29325M 29325
             29330  29442U 29450U 29451D 29710M 29715  29749M 29754  30047M 30049M 30051M 30053M 30055M 30067U 30088U
             30089D 30140  30194D 30478M 30483  30517M 30522  30802  30851D 30951M 30951  31000M 31027  31161D 31208M
             31208  31257M 31284  31408M 31408  31423  31431M 31456  31586  31635D 31711M 31711  31726  31734M 31834M
             31839  31886M 31891  31925M 31930  32048  32103D 32259  32274M 32275M 32276M 32277  32397U 32418U 32419D
             32472  32522D 32623D 32748  32927  32981D 33043D 33597M 33598M 33607M 33607  33703M 33704  33938  34427M
             34428M 34429M 34430  34531M 34532M 34533M 34534  34863U 34906D 35111U 35132U 35133D 35147U 35168U 35169D
             35229  35283D 35338D 35546  35799U 35820U 35821D 35845  35899D 35954D 36449M 36504  36558D 36613D 36816
             37068U 37089U 37090D 37114  37168D 37223D 37596M 37671  37720D 37869M 37869  37908M 38063  38112D 38278M
             38278  38317M 38470  38566  38615D 38738D 38781  38841  38922  38971D 39094D 39137  39197  39291  39352
             39357M 39403  39511  39732  39786D 39841D 39962M 39971M 39971  39978M 40189M 40189  40361M 40361  40362M
             40363M 40373  40583M 40583  40921M 40968U 40989U 40990D 41062  41116D 41171D 41514M 41514  41740M 41740
             42119U 42140U 42141D 42190  42244D 42299D 42562M 42562  42859U 42880U 42881D 43227M 43227  43565M 43612U
             43633U 43634D 43690  43751D 43806D 44377M 44382  44433M 44438  44454  44644  44688M 44693  44742M 44747
             44789  44852M 44852  44900M 44901M 44902M 44903  45553U 45574U 45575D 45625  45679D 45734D 45997M 45997
             46187U 46208U 46209D 46583M 46583  46921M 46968U 46989U 46990D 47039  47093D 47148D 47556M 47602U 47623U
             47624D 47646  47681D 47713M 47798  47847D 47940  48035  48089D 48188D 48371  48428  48432  48554M 48554
             48593M 48769M 48774  48793M 48798  48832M 48837  48851  49023  49024  49056M 49063M 49500U 49521U 49522D
             49546  49595D 49650D 50135  50184D 50239D 50559M 50564  50676M 50676  50715M 51019M 51024  51233  51287D
             51432U 51453U 51454D 51503  51663U 51684U 51685D 51971U 51992U 51993D 52352U 52373U 52374D 52518  52573D
             52789M 52789  52838M 52865  53184M 53189  53380M 53380  53420M 53435  53624M 53624  53639  53647M 53679
             53718D 53959M 53959  53999M 54007  54121M 54122M 54123M 54124  54165  54334M 54334  54349  54357M 54389
             54482M 54482  54531M 54565  54792D 54876M 54877M 54878M 54936  54985D 55126M 55126  55165M 55337M 55338M
             55339  55374M 55375M 55377  55525U 55546U 55547D 55587  55641D 55784D 55860  55910M 56019M 56024  56166
             56220D 56363D 56440  56490M 56608  56657D 56864D 56897M 56898M 56900  56983  57037D 57206D 57316  57365D
             57481D 57556D 57578M 57579  57641  57737D 57796M 57797M 57798M 57853M 57911  58025D 58270D 58333M 58386
             58482D 58653D 58791  58845D 58995M 59000  59034M 59039  59200  59340D 59400  59458M 59459M 59461  59495M
             59564  59618D 59749D 59805  59874D 59936M 59937M 59939  60026  60080D 60136D 60255M 60255  60326M 60388
             60442D 60698  60747D 60902  60909M 60910  60994  61170  61206D 61423  61477D 61739  61750M 61750  61840
             61851M 61851  61924M 61929  62199  62248D 62659  62817D 62880M 62880  62929M 62956  63057M 63062  63172
             63221D 63300M 63305  63317  63396  63457M 63527  63576D 63651M 63651  63661  63749  63838M 63838  63848
             63935  63984D 64058  64102M 64107  64119  64120  64135  64260M 64265  64271  64350  64415M 64420  64432
             64433M 64598  64654D 64978M 64978  65027M 65054  65512M 65512  65561M 65588  65883  65932D 66007M 66012
             66018  66266M 66271  66412  66468D 66567  66574M 66901U 66922U 66923D 67032  67038M 67103M 67103  67142M
1         (PAGE00) (09:42) (22MAR04) General Purpose Register Cross Reference                                               Page  528
             67323M 67323  67362M 67486M 67489  67536M 67536  67575M 67669M 67672  67713M 67716  67770M 67775M 67928M
             67933M 67975M 67976  67977M 67978  68177  68180M 68181  68419  68665M 68665  68685  68686  68749M 68749
             68798M 68825  68897M 68898M 68899  69058  69073M 69074M 69075M 69076  69179U 69200U 69201D 69215U 69236U
             69237D 69313  69366D 69421M 69426  69438  69447  69550  69579  69710  70062  70103M 70108  70120  70121
             70122  70187  70190  70243M 70248  70254  70317  70380  70443  70506  70590  70679  70769  70840  70907
             70993  71086  71177  71262  71347  71432  71502  71575  71646M 71731M 71862  71986  72004  72068  72164M
             72169  72220  72349  72398D 72458M 72686M 72691  72739M 72744  72790  72860M 72863M 72886U 72907U 72908D
             73025  73061D 73150M 73155  73161  73207M 73212  73224  73272  73431M 73436  73485M 73490  73635  73689D
             73943M 73948  73960  74060M 74067M 74152D 74223M 74228  74250D 74260M 74260  74308M 74313  74325M 74330
             74339M 74339  74344  74358M 74363  74419M 74424  74436M 74441  74455M 74460  74500M 74505  74517M 74522
             74536M 74541  74576M 74581  74593M 74598  74612M 74617  74646M 74651  74663M 74668  74682M 74687  74716M
             74721  74733M 74738  74752M 74757  74771M 74800M 74805  74850M 74855  74867M 74872  74886M 74891  74934M
             74939  74951M 74956  74970M 74975  75000M 75005  75017M 75022  75036M 75041  75070M 75075  75087M 75092
             75106M 75111  75125M 75168M 75173  75221M 75226  75283M 75288  75310D 75320M 75320  75368M 75373  75385M
             75390  75399M 75399  75404  75418M 75423  75479M 75484  75496M 75501  75515M 75520  75560M 75565  75577M
             75582  75596M 75601  75636M 75641  75653M 75658  75672M 75677  75706M 75711  75723M 75728  75742M 75747
             75776M 75781  75793M 75798  75812M 75817  75831M 75860M 75865  75910M 75915  75927M 75932  75946M 75951
             75994M 75999  76011M 76016  76030M 76035  76060M 76065  76077M 76082  76096M 76101  76130M 76135  76147M
             76152  76166M 76171  76185M 76228M 76233  76321  76324  76435  76497M 76502  76514M 76519  76528M 76528
             76533  76547M 76552  76608M 76613  76625M 76630  76644M 76649  76688M 76693  76705M 76710  76724M 76729
             76743M 76779D 76864M 76892M 76894M 76970M 76975  77062U 77083U 77084D 77123  77177D 77339  77475M 77480
             77492  77592M 77599M 77684D 77755M 77760  77780D 77791M 77791  77839M 77844  77856M 77861  77870M 77870
             77875  77889M 77894  77950M 77955  77967M 77972  77986M 77991  78031M 78036  78048M 78053  78067M 78072
             78107M 78112  78124M 78129  78143M 78148  78177M 78182  78194M 78199  78213M 78218  78247M 78252  78264M
             78269  78283M 78288  78302M 78331M 78336  78381M 78386  78398M 78403  78417M 78422  78465M 78470  78482M
             78487  78501M 78506  78531M 78536  78548M 78553  78567M 78572  78601M 78606  78618M 78623  78637M 78642
             78656M 78699M 78704  78788M 78793  78805M 78810  78819M 78819  78824  78838M 78843  78899M 78904  78916M
             78921  78935M 78940  78979M 78984  78996M 79001  79015M 79020  79034M 79063M 79068  79113M 79118  79130M
             79135  79149M 79154  79197M 79202  79214M 79219  79233M 79238  79263M 79268  79280M 79285  79299M 79304
             79333M 79338  79350M 79355  79369M 79374  79388M 79431M 79436  79486M 79491  79548M 79553  79573D 79583M
             79583  79631M 79636  79648M 79653  79662M 79662  79667  79681M 79686  79742M 79747  79759M 79764  79778M
             79783  79823M 79828  79840M 79845  79859M 79864  79899M 79904  79916M 79921  79935M 79940  79969M 79974
             79986M 79991  80005M 80010  80039M 80044  80056M 80061  80075M 80080  80094M 80123M 80128  80173M 80178
             80190M 80195  80209M 80214  80257M 80262  80274M 80279  80293M 80298  80323M 80328  80340M 80345  80359M
             80364  80393M 80398  80410M 80415  80429M 80434  80448M 80491M 80496  80530M 80531  80583  80586  80707
             80769M 80774  80786M 80791  80800M 80800  80805  80819M 80824  80880M 80885  80897M 80902  80916M 80921
             80960M 80965  80977M 80982  80996M 81001  81015M 81051D
     1(1)      987U  6863   8186M  8186   8187M  8208M  8670M  8671M  8755M  8759M  8766   9012M  9022   9181M  9182M
              9199M  9225U  9282U  9514M  9516   9821M  9897  10004D 10006M 10006  10007M 10008U 10009M 10010M 10060
             10428M 10458  10654M 10691  11196M 11306  11896M 11906U 11912M 11919U 11931U 12145U 12250M 12322  12960M
             13029  13380M 13381M 13382  13658M 13773  14618M 14620  15217M 15288  15445M 15446M 15447  15546M 15547M
             15548  15683M 15684  15685M 15686M 15704U 15740U 15878M 15887M 15893  15894  15994M 16035  16136M 16145M
             16149  16191  16314M 16315M 16316  16354M 16444  16592M 16593M 16594  16693M 16694M 16695  16991M 17000M
             17004  17053  17111M 17112M 17113  17124M 17124  17231M 17343  17695M 17696M 17697  17701M 17702M 17703
             17789M 17798  17799  17806  17812  17813  17897M 17899  18077M 18108  18229M 18230M 18230  18294M 18345
             18754M 18756  18978M 18987  18988  18995  19001  19002  19073M 19074M 19075  19099M 19108  19109  19116
             19122  19123  19195M 19196M 19197  19213M 19214M 19215  19431M 19493  19629M 19631M 19633M 19638M 19648
             19694  19786M 19791U 19862M 19871  19872  19879  19885  19886  20020M 20021  20031U 20036M 20037  20038
             20052U 20061M 20061  20062M 20152M 20153  20153  20154  20154  20368M 20373  20375  20499M 20500M 20510U
             20528U 20563M 20650  20781M 20790M 20790  20808  20810  21426M 21467M 21549  21732M 21734  21825M 21827
             22109M 22168  22488M 22489M 22490  22590M 22591M 22592  22636M 22641  22643  22655  22684M 22685M 22686
             22742M 22743M 22744  22786M 22787M 22788  22820M 22829  22830  22837  22843  22844  22970M 22971M 22972
             23027M 23028M 23029M 23030  23042M 23043M 23044  23068M 23077  23078  23085  23091  23092  23159M 23160M
             23160  23186M 23187M 23189  23221M 23223  23496M 23527  23824M 23947  24151M 24152M 24153  24358M 24360
             24397M 24398M 24399  24415M 24416M 24417  24684M 24686  24746M 24755  24756  24763  24769  24770  24901M
             24903  25160M 25169  25170  25177  25183  25184  25261M 25262  25262  25263  25263  25302M 25308  25309
             25316  25321  25322  25507M 25508  25508  25509  25509  25548M 25554  25555  25562  25567  25568  25709M
             25725  25761M 25847M 25853  25854  25861  25866  25867  26104M 26106  26291M 26376  26889M 26956  27198M
             27199M 27200  27203M 27212  27301M 27302M 27303  27306M 27315  27348M 27349M 27350  27416M 27425  27426
1         (PAGE00) (09:42) (22MAR04) General Purpose Register Cross Reference                                               Page  529
             27433  27439  27440  27620M 27699  28285M 28286M 28287  28288M 28289  28377M 28378M 28379  28393M 28397
             28504M 28505  28692M 28693M 28702M 28737M 28737  28972M 29006M 29044M 29044  29396M 29429M 29432  29845M
             29847  30022M 30140  30282M 30283M 30284  30723M 30802  30961M 30977  31013M 31049M 31055  31056  31063
             31068  31069  31218M 31234  31270M 31306M 31312  31313  31320  31325  31326  31449M 31450  31450  31451
             31451  31478M 31484  31485  31492  31497  31498  31540M 31586  31752M 31753  31753  31754  31754  31978M
             32048  32330D 32332M 32332  32333M 32334U 32335M 32336  32376M 32472  32859M 32927  33471M 33489M 33489
             34730M 34749M 34764  34911M 34913  35088M 35229  35382M 35383  35384  35600M 35602  35777M 35845  35998M
             35999  36000  36296M 36298  36474M 36504  36657M 36658  36659  36869M 36871  37046M 37114  37267M 37268
             37269  37453M 37455  37621M 37671  37780M 37781M 37782  37794  37884M 37886  37946M 37955  37956  37963
             37969  37970  38016M 38063  38293M 38295  38440M 38470  38545M 38566  38901M 38922  39258M 39291  39372M
             39403  39478M 39511  39586M 39732  39881M 39882M 39884M 39907  39916M 39934  39987M 39990M 40558  40707M
             40768M 40770  40946M 41062  41211M 41212M 41214M 41215M 41232  41253M 41256M 41715  41864M 41921M 41923
             42098M 42190  42339M 42340M 42342M 42343M 42360  42381M 42384M 43202  43351M 43412M 43414  43590M 43690
             44005M 44006M 44008M 44009M 44014M 44018  44020M 44025  44027  44028M 44031M 45300M 45318M 45320  45532M
             45625  45774M 45775M 45777M 45778M 45795  45816M 45819M 46558  46707M 46768M 46770  46946M 47039  47257M
             47258M 47260M 47261M 47266M 47270  47272M 47277  47279  47280M 47283M 47395M 47413M 47415  47581M 47646
             47740M 47798  47985M 48035  48569M 48571  48631M 48640  48641  48648  48654  48655  48927M 48928M 48933
             48935M 48936  48937  48984M 48985M 48986  49031M 49032  49033  49057M 49063M 49065M 49092M 49152M 49153M
             49166U 49197U 49478M 49546  49901M 49903  50103M 50135  50349M 50351  50691M 50693  50753M 50762  50763
             50770  50776  50777  50892M 50893M 50894  51162M 51233  51565M 51833M 52296M 52297M 52297  52309M 52310M
             52310  52322M 52323M 52323  52335M 52336M 52336  52405M 52518  52799M 52815  52851M 52889M 52933M 52984M
             52990  52991  52998  53003  53004  53268U 53273M 53274  53275  53283M 53284  53285  53299U 53395M 53397
             53516M 53525  53526  53533  53539  53540  53665M 53666  53666  53667  53667  53745M 53751  53752  53759
             53764  53765  53974M 53976  54081M 54202M 54375M 54376  54376  54377  54377  54416M 54422  54423  54430
             54435  54436  54492M 54508  54544M 54577M 54584  54586M 54621M 54622M 54623  54724M 54740U 54849M 54856U
             54904M 54936  55141M 55143  55260M 55269  55270  55277  55283  55284  55358M 55359M 55359  55372M 55373M
             55375  55421M 55430  55431  55438  55444  55445  55504M 55587  55706M 55923M 56130M 56166  56285M 56503M
             56556M 56608  56881M 56882M 56882  56895M 56896M 56898  56952M 56983  57263M 57316  57406M 57514M 57607M
             57641  57833M 57835  57911M 57912M 57913M 57914  57915M 57927  58053M 58055  58201M 58203  58277  58326M
             58327M 58328  58354M 58386  58489M 58490M 58515  58590M 58592  58660  58703M 58704M 58705  58732M 58791
             59194M 59195  59198M 59199  59233M 59348  59359  59442M 59443M 59443  59456M 59457M 59459  59515M 59564
             59920M 59921M 59921  59934M 59935M 59937  59993M 60026  60356M 60388  60559M 60560M 60560  60647M 60698
             60809M 60816  60818M 60908M 60908  60909M 60911M 60916  61087M 61094  61096M 61140M 61170  61255M 61275
             61277M 61311M 61423  61716M 61731  61770  61817M 61832  61871  61952M 61986  62037M 62061  62167M 62199
             62310M 62310  62369  62554M 62572  62600M 62659  62890M 62906  62942M 63122M 63172  63356M 63357  63477M
             63527  63653M 63653  63661  63703M 63749  63840M 63840  63848  63885M 63935  64136M 64151M 64204M 64205
             64208M 64209  64210M 64211M 64212M 64215M 64216  64273M 64274  64301M 64350  64481M 64502M 64540M 64598
             64988M 65004  65040M 65080M 65124M 65177M 65183  65184  65191  65196  65197  65522M 65538  65574M 65590M
             65635M 65668M 65674  65675  65682  65687  65688  65832M 65883  66312M 66412  66568M 66574M 66578M 66579
             66664M 66780M 66966U 66988U 66992M 67020  67038M 67044M 67045  67046  67118M 67120  67180M 67189  67190
             67197  67203  67204  67226M 67229  67266M 67269  67338M 67340  67400M 67409  67410  67417  67423  67424
             67447M 67450  67551M 67553  67613M 67622  67623  67630  67636  67637  67768M 67771M 67775M 67915M 67916
             67929M 67933M 68015M 68016M 68017  68108M 68109M 68110  68178M 68179M 68180  68267D 68269M 68269  68270M
             68271U 68272M 68273M 68303  68513M 68572  68623M 68631  68632  68639  68647  68648  68660M 68692M 68759M
             68775  68811M 68847M 68853  68854  68861  68866  68867  68879M 68880  68881  68897  68956M 69095M 69096M
             69097  69157M 69313  69820M 69922U 69945U 71653M 71738M 71870M 72103M 72199M 72220  72248M 72349  72858M
             72858  72859M 72860M 72957M 73025  73570M 73635  74061M 74067M 76336M 76337M 76338  76858M 76858  76862M
             76862  76863M 76864M 76893M 76894M 77040M 77123  77593M 77599M 80598M 80599M 80600  81058M 81059  81089M
     2(2)      983U  6863   6978M  6979M  6980   7331   7836M  7837M  7838M  7851M  7898U  7915U  8032M  8042U  8163U
              8761M  8762M  8763   9093M  9125U  9146U  9167M  9168M  9169M  9170   9821M  9897  10029M 10030M 10035M
             10037  10060  10346M 10350M 10351N 10428M 10458  10546M 10608M 10618U 10633U 10654M 10691  10970M 10971M
             10987  11004M 11013M 11049  11098  11100  11196M 11306  11419M 11435  12250M 12322  12425M 12426  12752
             12754  12935  12960M 13029  13224M 13225M 13226  13424  13432  13434  13469  13658M 13773  14335M 14453M
             14453  14783M 14783  14819  14832M 14850M 14850  14860U 15067M 15217M 15288  15449M 15470  15550M 15571
             15630M 15631M 15686  15689  15862  15890M 15892M 15893M 15908U 16079U 16120  16146M 16147M 16148M 16149M
             16162U 16180U 16354M 16444  16596M 16617  16697M 16718  16736M 16737  16739M 16740M 16783  16886  16889
             16975  17001M 17002M 17003M 17004M 17017U 17035U 17042M 17231M 17343  17707M 17714  17717M 17828M 17849M
             17850M 17851M 17868  18077M 18108  18294M 18345  19431M 19493  19830M 19901M 19916M 20073M 20160M 20160
             20161M 20176M 20176  20335M 20398M 20400N 20401  20410M 20411M 20411  20487  20563M 20650  20845M 20861
1         (PAGE00) (09:42) (22MAR04) General Purpose Register Cross Reference                                               Page  530
             20897M 20941M 20947  20948  20955  20960  20961  21012M 21017U 21072M 21079  21081  21116M 21132  21168M
             21219M 21225  21226  21233  21238  21239  21290M 21291M 21292M 21293  21295  21467M 21549  21920M 21930U
             21936M 21943U 21972  22109M 22168  22492M 22513  22594M 22615  22853M 22881  22963M 22970  22972M 23007M
             23010  23022M 23027  23496M 23527  23824M 23947  24948M 24957M 24957  24964  25035  25275M 25327  25328
             25521M 25573  25574  25775M 25872  25873  26291M 26376  26511M 26540U 26561M 26573U 26582M 26592U 26610U
             26622M 26632U 26693M 26700U 26746  26889M 26956  27002M 27003M 27003  27452M 27452  27472M 27504M 27504
             27620M 27699  27795M 27803M 28071M 28072  28091U 28195M 28214U 28282M 28283  28287M 28297M 28299  28388M
             28544M 28546  28562M 28943M 28945  28961M 29010M 29367M 29369  29385M 29568M 29577M 29577  29654  29726
             29737  29762M 29776M 29776  30022M 30140  30251M 30259M 30336M 30345M 30345  30373U 30422  30494  30505
             30530M 30544M 30544  30556U 30574M 30575M 30575  30723M 30802  31027M 31074  31075  31284M 31331  31332
             31456M 31503  31504  31540M 31586  31707M 31720M 31720  31766M 31944M 31978M 32048  32142M 32143  32144M
             32145M 32146M 32185U 32190M 32197U 32207M 32207  32216M 32249  32376M 32472  32575M 32584M 32584  32629
             32630M 32631M 32632M 32674U 32679M 32686U 32696M 32696  32705M 32738  32859M 32927  33407M 33408M 33409M
             33410M 33425  33449M 33465U 33470  33472M 33479U 33510U 33545  33594  33712  34667  34696M 34697M 34698
             34707M 34707  34724M 34736U 34747M 34748M 34764  34776M 34777M 34778M 34798M 34807M 34807  34816  35088M
             35229  35377M 35378  35383M 35385  35504  35586M 35777M 35845  35993M 35994  35999M 36001  36108  36282M
             36474M 36504  36652M 36653  36658M 36660  36774  36855M 37046M 37114  37262M 37263  37268M 37270  37377
             37439M 37621M 37671  37759M 37760M 37761M 37762M 37772U 37907  37969  37970  37976  37977  37995U 38016M
             38063  38206M 38208M 38211  38223M 38228  38237M 38237  38440M 38470  38545M 38566  38782M 38783  38784M
             38785M 38786M 38796U 38801M 38808U 38810M 38833  38841M 38844  38901M 38922  39138M 39139  39140M 39141M
             39142M 39152U 39157M 39164U 39166M 39189  39197M 39200  39258M 39291  39352M 39357  39372M 39403  39478M
             39511  39586M 39732  39880M 39882  39895M 39895  39907  39917M 39946  39978  39987  39991M 40110  40195
             40489  40526  40564M 40565  40669  40946M 41062  41210M 41212  41216M 41244  41253  41257M 41470  41549
             41721M 41722  41826  42098M 42190  42338M 42340  42344M 42372  42381  42385M 42504  42568  42732  42992
             43005  43208M 43209  43313  43590M 43690  44004M 44006  44010M 44021M 44025  44027M 44028  44036  44041M
             44042M 44073U 45205  45293M 45311U 45532M 45625  45773M 45775  45779M 45807  45816  45820M 45939  46003
             46060  46320  46333  46564M 46565  46669  46946M 47039  47256M 47258  47262M 47273M 47277  47279M 47280
             47288  47293  47295M 47296M 47332U 47388M 47406U 47581M 47646  47740M 47798  47887M 47897U 47931  47967U
             47985M 48035  48131M 48139M 48432M 48469M 48905M 48906  48907M 48908  48929M 48930M 48931M 48932  48934M
             48936M 48947U 49048U 49053M 49063M 49119U 49141U 49148M 49151M 49152  49374M 49385U 49433U 49478M 49546
             49815M 49816M 49817M 49848  50103M 50135  50345M 50520M 50520  50596M 50597M 50598M 50599M 50609U 50714
             50776  50777  50783  50784  50788M 50823U 50976M 51099  51108M 51115  51118M 51162M 51233  51619M 51620M
             51621M 51622M 51632U 51733  51749U 52002M 52003M 52004M 52005M 52015U 52057U 52181M 52182M 52183M 52184M
             52194U 52231  52245U 52405M 52518  52888M 52905U 52915  52927M 52939U 52962M 53009  53010  53301M 53302M
             53314  54080M 54088  54115  54121  54196M 54389M 54441  54442  54565M 54719  54720  54723  54724  54876
             54904M 54936  55082D 55084M 55084  55085M 55086U 55087M 55087N 55097U 55133  55158  55186U 55504M 55587
             55708M 55831  55858  55985  56130M 56166  56287M 56411  56438  56556M 56608  56754M 56786  56952M 56983
             57123M 57129  57263M 57316  57404M 57498  57507M 57577  57607M 57641  57765M 57771M 57796  57850M 58108M
             58137M 58138  58139M 58141  58142M 58292M 58354M 58386  58488M 58490  58501M 58501  58524  58525M 58527
             58528M 58675M 58732M 58791  59243M 59291  59430M 59431M 59432  59515M 59564  59755M 59756M 59797  59805M
             59809M 59819U 59887U 59892M 59898  59900  59908M 59909M 59910  59993M 60026  60263M 60264M 60265  60267M
             60268  60326  60356M 60388  60522M 60523M 60524  60647M 60698  60798M 60800  60807  60816M 60817M 60818
             60849M 60849  60902M 60909M 60910M 60921  60938U 60957  60995M 61007U 61043M 61053U 61065U 61094M 61095M
             61096  61140M 61170  61259M 61261  61268  61275M 61276M 61277  61311M 61423  61533M 61542M 61542  61575
             61576  61583  61589  61590  62167M 62199  62306M 62320  62555M 62600M 62659  62692M 62702U 62887  62921
             62928  62950  62951  62956M 63002U 63005U 63009  63010M 63087U 63090U 63109U 63122M 63172  63413U 63418M
             63419  63420  63421M 63422  63423  63424M 63425  63426  63427M 63428  63429  63433M 63434  63435  63442U
             63477M 63527  63646M 63660  63703M 63749  63833M 63847  63885M 63935  64137M 64144  64205M 64206M 64207
             64271M 64301M 64350  64434M 64495  64540M 64598  64696M 64705M 64705  64717  64719M 64720  64724  64726
             64737M 64743M 64744M 64745M 64746  64753M 64756  65079M 65106  65118M 65155M 65202  65203  65589M 65616
             65629M 65646M 65693  65694  65832M 65883  66086M 66102M 66107M 66108M 66153M 66154M 66155  66156M 66173M
             66178M 66179M 66184M 66185M 66186  66187M 66188M 66189  66190M 66207M 66212M 66213M 66218M 66312M 66412
             66512  66517  66522  66524  66526M 66561  66568  66574M 66576M 66601  66619U 66632U 66634  66644U 66650M
             66657U 66669M 66685  66703U 66716U 66723M 66724  66725M 66740  66826M 66929M 67038M 67058M 67059M 67060M
             67141  67203  67204  67210  67211  67225M 67649  67697M 67709U 67755M 67756M 67757M 67758  67759M 67775M
             67801M 67802  67806  68001  68218M 68236U 68244M 68247M 68263  68279M 68284M 68286  68303  68444M 68447M
             68448N 68584M 68586M 68661M 68825M 68872  68873  68908M 68916  68942M 68979M 68980  68981M 68982M 68983M
             68999M 69016M 69016  69025M 69048  69157M 69313  69359M 69380U 69445U 69497M 69498M 69499M 69500M 69501M
             69502  69503  69506M 69507M 69508M 69509M 69510  69710M 69720U 69739  69766U 69768  69858M 69859M 69861M
1         (PAGE00) (09:42) (22MAR04) General Purpose Register Cross Reference                                               Page  531
             69862  69950  70197M 70549M 70550M 70551  70633M 70634M 70635  71074M 71115  71122M 71131  71619M 71620M
             71621  71623  71992M 72199M 72220  72248M 72349  72457M 72851M 72852M 72860M 72862M 72957M 73025  73272M
             73329  73384  73570M 73635  73840M 73840  74035  74229  74231M 74232  74233M 75289  75291M 75292  75293M
             76275M 76331M 76391  76392  76449  76789M 76794U 76986  77040M 77123  77344M 77344  77762M 77763  79555M
             79556  80593M 80666M 80667M 80721  81089M
     3(3)      979U  6863   7220M  7221M  7222M  7232   7667M  7725   7879   7924M  7927   8165   8266   8290   8292
              8308M  8318U  8366U  8387M  8388M  8389M  8390M  8400U  8406M  8413U  8423M  8423   8480U  8493U  8683M
              8727   8975M  9011   9132   9169   9337M  9338M  9339M  9340M  9350U  9356M  9363U  9373M  9373   9427U
              9440U  9821M  9897  10034M 10034  10035M 10036M 10269  10346  10347M 10348N 10428M 10458  10547M 10548
             10550M 10551M 10563  10607M 10608N 10654M 10691  10987M 10988M 10989M 10999U 11011U 11110M 11111M 11142
             11196M 11306  11435M 11436M 11437M 11438M 11448U 11547U 12250M 12322  12426M 12427M 12428M 12429M 12439U
             12553  12695U 12960M 13029  13201M 13202  13212U 13254  13600  13631U 13658M 13773  14039M 14040M 14041M
             14055U 14524  14610U 14864M 15067  15217M 15288  15449M 15458  15550M 15559  15684M 15687M 15688M 15689M
             15751U 15769U 15859M 15860M 15861M 15862M 15872U 15885U 15888M 15889M 15890  15891M 15894M 15895M 15929U
             16073U 16117M 16118M 16119M 16120M 16130U 16143U 16354M 16444  16596M 16605  16697M 16706  16779M 16780
             16781M 16782M 16783M 16795U 16818M 16825U 16827M 16830M 16840U 16873U 16884M 16885M 16886M 16903U 16918U
             16972M 16973M 16974M 16975M 16985U 16998U 17231M 17343  17714M 17716M 17717  17829M 17832  17844M 17849
             18077M 18108  18294M 18345  19431M 19493  20107M 20120M 20120  20161  20341M 20399M 20400M 20401  20412M
             20487  20563M 20650  20802M 20803M 20808  20810M 20845  20946  21073M 21074M 21079  21081M 21116  21224
             21295M 21296  21313M 21322M 21322  21340M 21341  21363M 21386U 21467M 21549  22109M 22168  22492M 22501
             22594M 22603  22854M 22881  23496M 23527  23824M 23947  24522U 24527M 24528  24529  24537M 24538  24539
             24553U 25251M 25321  25322  25497M 25567  25568  25768M 25866  25867  26291M 26376  26889M 26956  27453M
             27465  27620M 27699  27802M 27803  27871M 28072M 28073M 28104U 28196M 28209U 28283M 28284M 28289M 28298M
             28299  28388M 28449U 28545M 28546M 28563M 28580U 28779U 28944M 28945M 28962M 28978U 29010M 29086U 29368M
             29369M 29386M 29402U 29676M 29762  30022M 30140  30258M 30259  30444M 30530  30723M 30802  31020M 31068
             31069  31098M 31107M 31107  31167M 31176  31178  31277M 31325  31326  31439M 31497  31498  31540M 31586
             31759M 31782U 31902  31913  31938M 31950U 31978M 32048  32143M 32257M 32258M 32259M 32269U 32291U 32376M
             32472  32629M 32746M 32747M 32748M 32758U 32793U 32859M 32927  33036M 33054U 33067U 33277M 33278  33398M
             33398  33410  33545M 33546M 33547M 33548  33594M 33595M 33596M 33597  33640M 33641M 33641  33712M 33713M
             33714M 33715  34048  34184M 34185M 34186M 34187M 34197U 34214U 34513M 34514M 34533  34788M 34789M 34789
             34798  34823M 34824M 34836  34845  35088M 35229  35378M 35379M 35381M 35384M 35385M 35386M 35389M 35592M
             35777M 35845  35994M 35995M 35997M 36000M 36001M 36002M 36005M 36288M 36474M 36504  36653M 36654M 36656M
             36659M 36660M 36661M 36664M 36861M 37046M 37114  37263M 37264M 37266M 37269M 37270M 37271M 37274M 37445M
             37621M 37671  37840D 37842M 37842  37843M 37844U 37845M 37845N 37876  37901  38016M 38063  38245D 38247M
             38247  38248M 38249U 38269N 38440M 38470  38545M 38566  38783M 38842M 38843M 38844M 38854U 38871U 38901M
             38922  39139M 39198M 39199M 39200M 39210U 39228U 39258M 39291  39372M 39403  39478M 39511  39586M 39732
             39918M 39919M 39921M 39934  39946  39954M 39955N 40226M 40227N 40287D 40289M 40289  40290M 40291U 40293M
             40294M 40299  40301  40326M 40331  40333  40379M 40384  40386  40402M 40407  40409  40565M 40566M 40599M
             40630  40722M 40753  40946M 41062  41217M 41218M 41220M 41232  41244  41549M 41550M 41551M 41552M 41562U
             41633U 41722M 41723M 41756M 41787  41879M 41910  42098M 42190  42345M 42346M 42348M 42360  42372  42781M
             42782M 42783M 42784M 42794U 42833M 42842M 42842  42896U 42899U 42966U 42969U 43039  43110U 43209M 43210M
             43243M 43274  43366M 43397  43590M 43690  44011M 44013M 44018  44020  44034M 44035M 44038M 44040M 44086U
             45294M 45306U 45532M 45625  45780M 45781M 45783M 45795  45807  46109M 46110M 46111M 46112M 46122U 46161M
             46170M 46170  46224U 46227U 46294U 46297U 46367  46438U 46565M 46566M 46599M 46630  46722M 46753  46946M
             47039  47263M 47265M 47270  47272  47286M 47287M 47290M 47292M 47345U 47389M 47401U 47581M 47646  47740M
             47798  47985M 48035  48138M 48139  48162M 48163M 48168  48170  48238M 48248U 48254M 48261U 48267U 48304M
             48305M 48307M 48308  48336  48375M 48376M 48377M 48378M 48416  48468  48469M 48932M 48933M 48937M 48961U
             49040U 49061M 49061  49063M 49146M 49147M 49148  49149M 49150M 49375M 49399U 49425U 49478M 49546  50103M
             50135  50595M 50794M 50890M 50928  51060M 51061M 51089  51115M 51117M 51118  51162M 51233  51646M 51647M
             51647  51694M 51695M 51697  52020M 52021  52050  52405M 52518  52915M 52916M 52917M 53776M 53777M 53778
             54365M 54435  54436  54551M 54713  54714  54904M 54936  55024M 55034U 55164  55283  55284  55290  55291
             55444  55445  55451  55452  55486U 55504M 55587  55707M 55720  55841M 55874  56130M 56166  56286M 56299
             56421M 56454  56556M 56608  56755M 56796  56952M 56983  57263M 57316  57405M 57427U 57508M 57520U 57571U
             57576  57586U 57607M 57641  57766M 57771M 57799  57851M 58033  58109M 58140M 58141M 58181  58293M 58354M
             58386  58526M 58527M 58570  58676M 58732M 58791  59195M 59196M 59197  59200M 59216M 59241  59242M 59291
             59515M 59564  59683M 59684M 59685M 59686M 59696U 59763U 59806M 59807M 59808M 59809  59893M 59898  59900M
             59901  59993M 60026  60268M 60284U 60288  60289M 60301U 60305  60356M 60388  60525M 60535U 60547U 60647M
             60698  60903M 60909M 60922M 61001M 61140M 61170  61311M 61423  61612M 61621M 61621  61648  62105M 62105
             62125  62167M 62199  62320M 62321M 62336M 62345  62600M 62659  62691M 62723M 62723  62756M 62949M 63122M
1         (PAGE00) (09:42) (22MAR04) General Purpose Register Cross Reference                                               Page  532
             63172  63477M 63527  63703M 63749  63885M 63935  64301M 64350  64432M 64476U 64496M 64513U 64540M 64598
             64724  64726M 64727  64737M 64740M 64745M 64746  64754M 64755  64756M 64757  65106M 65107M 65108M 65301M
             65310M 65310  65616M 65617M 65618M 65832M 65883  66086M 66088M 66108M 66109  66156M 66166M 66179M 66180
             66190M 66200M 66213M 66214  66219M 66220M 66312M 66412  66511  66512M 66522  66524M 66525  66572M 66572
             66574M 66577M 66595U 66608U 66625  66634M 66679U 66692U 66709  66724M 66726M 66729M 66730M 66733  66737
             66739M 66740  66832M 67037M 67037  67038M 67225M 67703M 67759M 67763  67765M 67766  67767M 67771  67775M
             67803M 68225M 68245M 68246M 68247  68248M 68250M 68263  68283M 68283  68284M 68285M 68367  68444  68445M
             68446N 68584M 68592M 68706M 68714  68818M 68866  68867  68882M 68892U 68906U 68916M 68917M 68918M 68980M
             69056M 69057M 69058M 69068U 69090U 69157M 69313  69503M 69504M 69505  69590U 69595M 69596  69597  69598M
             69599  69600  69601M 69602  69603  69604M 69605  69606  69607M 69608  69609  69610M 69611  69612  69613M
             69614  69615  69616M 69617  69618  69619M 69620  69621  69622M 69623  69624  69631U 69636M 69637  69638M
             69639  69640M 69641  69642M 69643  69644M 69645  69646M 69647  69648M 69649  69650M 69651  69652M 69653
             69654M 69655  69656M 69657  70148M 70149  70150  70151  70152M 70153M 70181  70188  70191  70195M 70195
             70196M 70197M 70305M 70317M 70320  70332M 70341  70368M 70380M 70383  70395M 70404  70431M 70443M 70446
             70458M 70467  70494M 70506M 70509  70521M 70528  70540M 70578M 70590M 70593  70605M 70612  70624M 71086M
             71089  71101M 71115  71122  71420M 71432M 71439  71441M 71444  71456M 71461  71490M 71502M 71510  71512M
             71515  71527M 71532  71563M 71575M 71578  71590M 71597  71609M 71618  71619  71622M 71623M 71624  71625M
             71626M 71627  71891M 71892  71893M 71894  71895  71991M 71991  71992M 72011M 72075M 72199M 72220  72248M
             72349  72760M 72770U 72788U 72790M 72822  72853M 72860M 72957M 73025  73570M 73635  73842M 73842  73906M
             73969M 73969  74000U 74010U 74094M 74095  74096M 74097  74101M 74113M 74113  74158  74201  74229M 74233
             75197M 75198  75199  75289M 75293  76274M 76275  76276M 76277M 76315  76322  76325  76329M 76329  76330M
             76331M 76422M 76435M 76449  76799M 76804U 76808  76809  77040M 77123  77348M 77348  77435M 77501M 77501
             77533U 77543U 77626M 77627  77628M 77629  77633M 77645M 77645  77690  77733  80523M 80525  80538M 80539M
             80577  80584  80587  80591M 80591  80592M 80593M 80694M 80707M 80721  81089M
     4(4)      975U  6863   7154M  7155M  7155   7213M  7214M  7214   7232   7268   7431M  7441U  8485M  8495   8546U
              8635M  8645U  8744   8753M  9222U  9277U  9432M  9442   9493U  9821M  9897  10001M 10011M 10012  10039M
             10040  10078U 10240M 10247U 10249  10253M 10313  10428M 10458  10548M 10549M 10626  10654M 10691  11092M
             11093M 11094M 11095  11099M 11100M 11101  11196M 11306  11701M 11711U 11738U 11769M 11779U 11806U 12250M
             12322  12656M 12657M 12658  12753M 12754  12960M 13029  13432M 13433M 13434  13658M 13773  13874M 13875M
             13875  13884M 13894U 14211  14414  15148  15159  15199U 15217M 15288  15379M 15388M 15388  15403U 15583U
             15591M 15592  15915  15936  16354M 16444  16620M 16630U 16774M 16775M 16865  16883M 16884  16887M 16888M
             16889M 16929U 16932U 16954U 16957U 16969M 16972  17001  17208U 17231M 17343  17822M 17823M 17824  17851
             18077M 18108  18294M 18345  19431M 19493  19837M 19838  19895  19923M 20004  20006  20066M 20413M 20423U
             20460  20487M 20494U 20563M 20650  20969M 21006  21247M 21249  21363  21365M 21376  21437  21467M 21549
             22109M 22168  22516M 22526U 22623U 23496M 23527  23731M 23740M 23740  23746M 23747  23783M 23783  23824M
             23947  24563M 24563  24779M 24807  24809  24819  25333M 25335  25345  25588M 25588  25637M 25940  25942M
             25959  26291M 26376  26889M 26956  27227M 27237U 27335U 27620M 27699  27982M 27992U 27998M 28005U 28014U
             28485M 28486M 28487M 28488M 28498U 28522U 28819M 28831M 28832M 28833M 28834M 28835M 28854M 28855M 28858
             29130M 29142M 29143M 29144M 29145M 29146M 29174U 29186M 29187M 29194U 30022M 30140  30723M 30802  30921M
             30961  31054  31540M 31586  31742M 31852M 31938  31978M 32048  32376M 32472  32859M 32927  33178M 33188U
             33194M 33201U 33207U 33235  33526M 33526  33527M 33544M 33561M 33566  33588M 33588  33613M 33614  33623M
             33657  33675M 33676M 33677M 33678M 33688U 33694M 33701U 33704  33744M 33749  33781  34183M 34184  34216M
             34217M 34227U 34248U 34400M 34401M 34402M 34412U 34437U 34442M 34443M 34451  34457M 34458M 34468U 34491M
             34498U 34500M 34503  35088M 35229  35546M 35577  35777M 35845  36095M 36131  36274  36474M 36504  36816M
             36822  37046M 37114  37364M 37390  37621M 37671  38016M 38063  38332M 38349M 38381  38382  38389  38395
             38396  38405M 38406  38440M 38470  38545M 38566  38692M 38693M 38773  38781M 38786  38901M 38922  39048M
             39049M 39129  39137M 39142  39258M 39291  39372M 39403  39478M 39511  39586M 39732  40064M 40065M 40134M
             40578M 40693M 40946M 41062  42098M 42190  42458M 42459M 42528M 42585U 43222M 43337M 43590M 43690  44036M
             44037M 44038  44039M 44040  44042  44043M 44185M 44187  44454M 44455M 44820  45012  45130  45204  45532M
             45625  45893M 45894M 45963M 46020U 46578M 46693M 46946M 47039  47288M 47289M 47290  47291M 47292  47296
             47297M 47581M 47646  47740M 47798  47985M 48035  48467M 48469M 48474M 48475M 48476M 48477M 48487U 48592
             48654  48655  48661  48662  48666M 48701U 48851M 48984  49032  49056  49064  49153  49171  49284M 49302U
             49326U 49328M 49329M 49339  49478M 49546  49750M 49753  49769U 49815  49876M 49894U 50103M 50135  51162M
             51233  51341M 51343  51345  51855M 51882M 51884  52090M 52117M 52119  52260M 52405M 52518  52662M 52663M
             52664M 52682M 52728  52735  52858M 53003  53004  53015M 53016M 53017  53025M 53026M 53027  53083  53779M
             53780M 53781  53782M 53783M 53784  53832M 53832  54088M 54089M 54090M 54091M 54101U 54106M 54113U 54115
             54119M 54120M 54124M 54157  54165M 54175U 54193U 54330M 54343M 54343  54421  54452M 54492  54585  54622
             54699  54863M 54904M 54936  55504M 55587  55720M 55730U 55821  55872  55929U 56130M 56166  56299M 56309U
             56401  56453  56509U 56556M 56608  56952M 56983  57128M 57128  57129M 57263M 57316  57607M 57641  57857M
1         (PAGE00) (09:42) (22MAR04) General Purpose Register Cross Reference                                               Page  533
             57857  57873  57882M 57900M 57900  57912  57944M 57944  57962  57977  58031M 58032  58071M 58072M 58076
             58078M 58124  58151M 58152M 58155  58167M 58172M 58176  58177M 58178M 58178  58179M 58354M 58386  58537M
             58538M 58541  58553M 58558M 58565  58566M 58567M 58567  58568M 58732M 58791  58910M 58918  59066M 59067
             59238  59282M 59302  59424  59495  59515M 59564  59993M 60026  60288M 60325  60356M 60388  60571M 60578
             60580M 60647M 60698  60806M 60806  60807M 60915M 60915  60916M 61140M 61170  61267M 61267  61268M 61311M
             61423  61739M 62040M 62074M 62167M 62199  62337M 62344  62346M 62377M 62378M 62443M 62444M 62444  62459
             62600M 62659  62706M 62752U 62775M 62781U 63122M 63172  63332M 63342U 63354  63449U 63477M 63527  63630M
             63669M 63703M 63749  63832M 63856M 63885M 63935  64301M 64350  64435M 64520M 64540M 64598  64735M 64744
             64861M 64862M 64863M 64867M 64868M 64874  64876  64877M 64878M 64883  64885  65047M 65196  65197  65208M
             65209M 65210  65211M 65218  65220M 65255M 65256M 65257  65352M 65353M 65354M 65358M 65359M 65360M 65360
             65365  65367  65371M 65372M 65377  65379  65384M 65385M 65391  65393  65581M 65687  65688  65699M 65700M
             65701  65702M 65709  65711M 65746M 65747M 65748  65832M 65883  66046M 66056U 66068U 66312M 66412  66731M
             66732M 66732  66733M 66851M 66851  66935M 67278M 67279M 67280M 67290U 67361  67423  67424  67430  67431
             67439U 67485M 67491M 67492M 67493M 67503U 67574  67636  67637  67643  67644  67666U 67874M 67905  67914M
             67915  67928  67930M 67951U 67973U 68033M 68083U 68188M 68200U 68264M 68274M 68275  68288M 68321U 68344M
             68351U 68353  68357M 68411  68419M 68429U 68442U 68448M 68461U 68490M 68497U 68526M 68527M 68528M 68538U
             68543M 68550U 68555M 68556  68705M 68714M 68759  68852  68909M 68917  68964M 68974U 69118U 69157M 69313
             69775M 69785U 69791M 69798U 69800M 69854U 69888U 70122M 70135U 70201  70208U 71903M 71903  71905M 71911M
             71911  71912M 71921M 71921  71936M 72011  72012  72199M 72220  72248M 72349  72589M 72599U 72919U 72957M
             73025  73570M 73635  73864M 74368M 74378U 74477U 74819U 74908U 75428M 75438U 75537U 75879U 75968U 76557M
             76567U 76666U 76814M 76815M 76830  76831M 76832M 76833  76853M 76854M 76864M 76884M 76888  76890  76891M
             76894M 77040M 77123  77389M 77899M 77909U 78008U 78350U 78439U 78848M 78858U 78957U 79082U 79171U 79691M
             79701U 79800U 80142U 80231U 80829M 80839U 80938U 81089M
     5(5)      971U  6863   7416M  7426U  8554U  8589M  8599U  8754M  8760M  8761   8764M  8765M  8766M  9501U  9532M
              9542U  9548M  9555U  9576U  9624U  9821M  9897  10012M 10042M 10043M 10044  10249M 10250M 10251M 10252M
             10269  10428M 10458  10654M 10691  11095M 11096M 11097M 11098M 11101  11196M 11306  11467M 11477U 11483M
             11490U 11496U 12250M 12322  12799M 12830  12960M 13029  13226M 13227M 13228M 13238U 13337U 13509M 13545
             13658M 13773  14060M 14070U 14076M 14083U 14089U 14200  14636M 14646U 14652M 14659U 14680U 14728U 15217M
             15288  15473M 15483U 15578U 15592M 15593M 15594M 15595M 15605U 16336U 16354M 16444  16540M 16550U 17213U
             17231M 17343  17915M 17925U 17931M 17938U 17959U 17997U 18077M 18108  18191M 18192M 18201  18294M 18345
             18538M 18539M 18548  19431M 19493  19630M 19631  19638  19999M 20004  20006M 20007  20066  20563M 20650
             20904M 20960  20961  20969M 21175M 21238  21239  21248M 21249M 21250  21286U 21366M 21413U 21437  21467M
             21549  22109M 22168  22277M 22278M 22278  22327M 22337U 22843  22844  22850  22851  23091  23092  23098
             23099  23239M 23249U 23252U 23258M 23269U 23272U 23285U 23296U 23338U 23341U 23395U 23496M 23527  23824M
             23947  25669M 25709  25852  26122M 26132U 26138M 26145U 26166U 26214U 26291M 26376  26510M 26527U 26554
             26560M 26578U 26889M 26956  27104M 27114U 27439  27440  27446  27447  27599U 27620M 27699  27834U 27859M
             27870  28385M 28386  29502U 29863M 29873U 29879M 29886U 29907U 29955U 30022M 30140  30723M 30802  30904M
             30914U 31113M 31122M 31122  31365M 31374M 31374  31517U 31540M 31586  31978M 32048  32376M 32472  32859M
             32927  33279M 33282  33294M 33301  33313M 33318  33327M 33327  33543M 33795M 33938M 33958  34038  34395M
             34396M 34429  34442  34501M 34502M 34503M 34526U 34541U 34564M 34565M 34585  34929M 34939U 34945M 34952U
             34973U 35021U 35088M 35229  35618M 35628U 35634M 35641U 35662U 35710U 35777M 35845  36087M 36087  36108M
             36314M 36324U 36330M 36337U 36358U 36406U 36449  36474M 36504  36887M 36897U 36903M 36910U 36931U 36979U
             37046M 37114  37356M 37356  37377M 37471M 37481U 37487M 37494U 37515U 37553U 37596  37621M 37671  38016M
             38063  38151M 38152M 38153M 38154M 38164U 38316  38395  38396  38402  38403  38422U 38440M 38470  38545M
             38566  38901M 38922  39258M 39291  39372M 39403  39478M 39511  39586M 39732  40134M 40177U 40579M 40693M
             40713U 40786M 40796U 40802M 40809U 40830U 40878U 40946M 41062  41356M 41366U 41372M 41379U 41385U 41939M
             41949U 41955M 41962U 41983U 42031U 42098M 42190  42528M 42598U 43223M 43337M 43357U 43430M 43440U 43446M
             43453U 43474U 43522U 43590M 43690  43952M 43962U 43975U 44203M 44213U 44219M 44226U 44247U 44285U 44789M
             44902  44924M 44930  45138M 45139M 45140  45181M 45182M 45183M 45193U 45227M 45258  45276U 45336M 45346U
             45352M 45359U 45380U 45428U 45532M 45625  45963M 46033U 46579M 46693M 46713U 46786M 46796U 46802M 46809U
             46830U 46878U 46946M 47039  47293M 47294M 47378  47387M 47431M 47441U 47447M 47454U 47475U 47513U 47581M
             47646  47740M 47798  47985M 48035  48468M 48469M 48473M 48672M 48852M 48899U 48922U 49064M 49081U 49086M
             49098U 49154M 49216U 49238U 49248M 49258U 49299U 49321U 49363U 49478M 49546  49751M 49883M 49919M 49937U
             49943M 49959U 49980U 50028U 50103M 50135  50367M 50385U 50391M 50407U 50428U 50466U 50573M 50578U 51162M
             51233  51342M 51343  51862M 51882M 52097M 52117M 52267M 52405M 52518  52697M 52698M 52716  52718M 52728
             52735M 52748M 52748  52799  52889  52989  53016  53026  53062M 53063  53435M 53453U 53539  53540  53546
             53547  53817U 53871M 53872M 53872  54677M 54700  54701  54708  54713  54714  54722M 54800  54904M 54936
             55300M 55301M 55302  55504M 55587  55857M 55858M 55859  55860M 55861  55873M 55910  56130M 56166  56437M
             56438M 56439  56440M 56441M 56442  56490  56556M 56608  56797M 56807  56870M 56871  56952M 56983  57124M
1         (PAGE00) (09:42) (22MAR04) General Purpose Register Cross Reference                                               Page  534
             57129M 57139  57212M 57213M 57214  57263M 57316  57607M 57641  57858M 57873  57962  57977M 57986M 57986
             58076  58078  58124  58144M 58151  58176M 58311M 58311  58354M 58386  58530M 58537  58565M 58694M 58694
             58732M 58791  58918M 58919M 58920M 58921M 58931U 59067M 59068M 59069M 59070M 59149  59227U 59238M 59239M
             59240M 59241M 59255U 59289U 59291M 59392  59400M 59410U 59422U 59515M 59564  59993M 60026  60189M 60227
             60263  60295M 60356M 60388  60578M 60579M 60580  60647M 60698  60799M 60800M 60802M 60807M 60817  60855M
             60890  60903  60916M 60922  61040  61095  61140M 61170  61260M 61261M 61263M 61268M 61276  61311M 61423
             61840M 61955M 61999M 62167M 62199  62344M 62345M 62346  62375M 62376M 62469  62600M 62659  62710M 62710
             62737  62770M 62794M 62794  62890  63072M 63122M 63172  63477M 63527  63629M 63630  63631M 63632M 63642U
             63663M 63680U 63703M 63749  63885M 63935  64135M 64194  64301M 64350  64382M 64451U 64458M 64465U 64540M
             64598  64735M 64740  64803M 64807  64809M 64813  64815M 64816  64836M 64836  64853M 64874  64876M 64883
             64885M 64894M 64894  64929  64931M 64940M 64940  64988  65080  65182  65209  65219  65256  65326M 65326
             65344M 65365  65367M 65377  65379M 65391  65393M 65397  65399M 65411  65421M 65421  65435M 65435  65466
             65468M 65477M 65477  65522  65590  65673  65700  65710  65747  65832M 65883  66018M 66028U 66282  66294U
             66312M 66412  67804M 67805M 67806M 67835U 68219M 68231U 68275M 68292M 68293M 68353M 68354M 68355M 68356M
             68367  68435M 68446M 68508U 68520U 68552M 68553M 68554M 68556M 68566U 68579U 68962M 68963M 69075  69157M
             69313  69819M 69840U 69903U 69958M 69968U 69993U 71899M 71905M 71906  71907M 71912M 71930M 71935M 71974
             71987  71993M 72092M 72199M 72220  72248M 72349  72536M 72707  72712  72832  72957M 73025  73570M 73635
             73871M 74070  74072M 74075M 74077  76810M 76811  76812M 76813M 76814  76831  76837M 76838M 76847M 76847
             76864M 76883M 76888  76890M 76893  76894M 77040M 77123  77396M 77602  77604M 77607M 77609  81089M
     6(6)      967U  6863   6905M  6923U  6929M  6936U  6947U  9808U  9821M  9897  10037M 10038M 10039N 10041M 10043N
             10113M 10123U 10129M 10136U 10138  10158U 10321M 10331U 10344U 10351M 10352  10362U 10403U 10428M 10458
             10654M 10691  10733M 10751U 10757M 10764U 10775U 11183U 11196M 11306  11353M 11371U 11377M 11384U 11395U
             12237U 12250M 12322  12365M 12383U 12389M 12396U 12407U 12947U 12960M 13029  13072M 13090U 13096M 13103U
             13114U 13645U 13658M 13773  13813M 13831U 13837M 13844U 13855U 15204U 15217M 15288  15330M 15348U 15354M
             15361U 15372U 16341U 16354M 16444  16491M 16509U 16515M 16522U 16533U 17218U 17231M 17343  17390M 17408U
             17414M 17421U 17432U 18064U 18077M 18108  18137M 18155U 18161M 18168U 18179U 18286U 18294M 18345  18387M
             18405U 18411M 18418U 18429U 19418U 19431M 19493  19540M 19558U 19564M 19571U 19582U 20550U 20563M 20650
             20720M 20738U 20744M 20751U 20762U 21444U 21467M 21549  21591M 21609U 21615M 21622U 21633U 22096U 22109M
             22168  22215M 22233U 22239M 22246U 22257U 23483U 23496M 23527  23574M 23592U 23598M 23605U 23616U 23811U
             23824M 23947  23994M 24012U 24018M 24025U 24036U 26278U 26291M 26376  26418M 26436U 26442M 26449U 26460U
             26876U 26889M 26956  27058M 27076U 27082M 27089U 27100U 27607U 27620M 27699  27746M 27764U 27770M 27777U
             27788U 28394M 28621M 28639U 28642U 28648M 28659U 28662U 28703M 28703  29444M 29462U 29465U 29471M 29482U
             29485U 30009U 30022M 30140  30187M 30205U 30211M 30218U 30229U 30710U 30723M 30802  30844M 30862U 30868M
             30875U 30886U 31527U 31540M 31586  31628M 31646U 31652M 31659U 31670U 31965U 31978M 32048  32096M 32114U
             32120M 32127U 32138U 32363U 32376M 32472  32515M 32533U 32539M 32546U 32557U 32846U 32859M 32927  32974M
             32992U 32998M 33005U 33016U 35075U 35088M 35229  35276M 35294U 35300M 35307U 35318U 35764U 35777M 35845
             35892M 35910U 35916M 35923U 35934U 36461U 36474M 36504  36551M 36569U 36575M 36582U 36593U 37033U 37046M
             37114  37161M 37179U 37185M 37192U 37203U 37608U 37621M 37671  37713M 37731U 37737M 37744U 37755U 38003U
             38016M 38063  38105M 38123U 38129M 38136U 38147U 38427U 38440M 38470  38545M 38566  38608M 38626U 38632M
             38639U 38650U 38888U 38901M 38922  38964M 38982U 38988M 38995U 39006U 39245U 39258M 39291  39372M 39403
             39478M 39511  39586M 39732  39779M 39797U 39803M 39810U 39821U 40933U 40946M 41062  41109M 41127U 41133M
             41140U 41151U 42085U 42098M 42190  42237M 42255U 42261M 42268U 42279U 43577U 43590M 43690  43744M 43762U
             43768M 43775U 43786U 45519U 45532M 45625  45672M 45690U 45696M 45703U 45714U 46933U 46946M 47039  47086M
             47104U 47110M 47117U 47128U 47568U 47581M 47646  47740M 47798  47840M 47858U 47864M 47871U 47882U 47972U
             47985M 48035  48082M 48100U 48106M 48113U 48124U 49465U 49478M 49546  49588M 49606U 49612M 49619U 49630U
             50090U 50103M 50135  50177M 50195U 50201M 50208U 50219U 51149U 51162M 51233  51280M 51298U 51304M 51311U
             51322U 52392U 52405M 52518  52566M 52584U 52590M 52597U 52608U 54891U 54904M 54936  54978M 54996U 55002M
             55009U 55020U 55491U 55504M 55587  55634M 55652U 55658M 55665U 55676U 56117U 56130M 56166  56213M 56231U
             56237M 56244U 56255U 56543U 56556M 56608  56650M 56668U 56674M 56681U 56692U 56939U 56952M 56983  57030M
             57048U 57054M 57061U 57072U 57250U 57263M 57316  57358M 57376U 57382M 57389U 57400U 57594U 57607M 57641
             57771M 57799M 57816  57828M 57833N 57850  57851  57852M 57853  57906M 57913  58033M 58036  58048M 58053N
             58071  58108  58109  58138M 58143M 58152  58172  58177  58181M 58184  58196M 58201N 58292  58293  58297M
             58297  58354M 58386  58524M 58529M 58538  58558  58566  58570M 58573  58585M 58590N 58675  58676  58680M
             58680  58732M 58791  58838M 58856U 58862M 58869U 58880U 59502U 59515M 59564  59611M 59629U 59635M 59642U
             59653U 59980U 59993M 60026  60073M 60091U 60097M 60104U 60115U 60343U 60356M 60388  60435M 60453U 60459M
             60466U 60477U 60634U 60647M 60698  60740M 60758U 60764M 60771U 60782U 61127U 61140M 61170  61199M 61217U
             61223M 61230U 61241U 61303U 61311M 61423  61470M 61488U 61494M 61501U 61512U 62154U 62167M 62199  62241M
             62259U 62265M 62272U 62283U 62373  62375  62377  62587U 62600M 62659  62810M 62828U 62834M 62841U 62852U
             63099U 63122M 63172  63214M 63232U 63238M 63245U 63256U 63464U 63477M 63527  63569M 63587U 63593M 63600U
1         (PAGE00) (09:42) (22MAR04) General Purpose Register Cross Reference                                               Page  535
             63611U 63690U 63703M 63749  63797M 63828U 63850M 63867U 63885M 63935  63977M 63995U 64001M 64008U 64019U
             64288U 64301M 64350  64540M 64598  64647M 64665U 64671M 64678U 64689U 65819U 65832M 65883  65925M 65943U
             65949M 65956U 65967U 66299U 66312M 66412  66461M 66479U 66485M 66492U 66503U 69144U 69157M 69313  69447M
             69457U 69837U 69898U 72186U 72199M 72220  72248M 72349  72391M 72409U 72415M 72422U 72433U 72944U 72957M
             73025  73054M 73072U 73078M 73085U 73096U 73562U 73570M 73635  73682M 73700U 73706M 73713U 73724U 77027U
             77040M 77123  77170M 77188U 77194M 77201U 77212U 81076U 81089M
     7(7)      963U  6863   6977M  6998U  7060M  7067U  7078U  7341   7527   7740   8282   8486   8831   9033   9433
              9573U  9619U  9803U  9821M  9897   9985M  9995U 10000  10019U 10098M 10108U 10210U 10337M 10348M 10349
             10428M 10458  10654M 10691  10779M 10789U 10838  11060  11178U 11196M 11306  11399M 11409U 11637  12232U
             12250M 12322  12411M 12421U 12942U 12960M 13029  13243M 13264  13348U 13354M 13361U 13372U 13389U 13658M
             13773  13928M 13938U 13944M 13951U 13962U 14222  14677U 14723U 15194U 15217M 15288  15616M 15626U 15632M
             16331U 16354M 16444  16721M 16731U 17203U 17231M 17343  17443M 17453U 17513M 17520U 17531U 17812  17813
             17819  17820  17956U 17992U 18059U 18077M 18108  18294M 18345  18787M 18797U 18870  19001  19002  19008
             19009  19122  19123  19129  19130  19281  19383U 19431M 19493  19593M 19603U 20545U 20563M 20650  20696M
             20706U 21012  21032M 21041M 21041  21050  21436  21449U 21467M 21549  21660M 21670U 21848  22074U 22109M
             22168  22349M 22359U 22365M 22372U 22383U 22924  23293U 23329U 23389U 23409U 23475U 23496M 23527  23650M
             23660U 23666M 23673U 23684U 23806U 23824M 23947  24040M 24050U 24056M 24063U 24074U 24381  24474  24924
             25025  25052  25183  25184  25190  25191  26049  26163U 26209U 26273U 26291M 26376  26492M 26502U 26779
             26866U 26889M 26956  27126M 27136U 27142M 27149U 27160U 27541  27593U 27620M 27699  27824M 27855U 28397M
             29432M 29496U 29517U 29555  29665  29828  29904U 29950U 30004U 30022M 30140  30233M 30243U 30433  30612
             30656  30705U 30723M 30802  30890M 30900U 31522U 31540M 31586  31674M 31684U 31960U 31978M 32048  32376M
             32472  32561M 32571U 32841U 32859M 32927  33060M 33078U 33235M 34865M 34875U 34878U 34884M 34895U 34898U
             34970U 35016U 35070U 35088M 35229  35331M 35349U 35355M 35362U 35373U 35515  35659U 35705U 35759U 35777M
             35845  35947M 35965U 35971M 35978U 35989U 36355U 36401U 36456U 36474M 36504  36606M 36624U 36630M 36637U
             36648U 36785  36928U 36974U 37028U 37046M 37114  37216M 37234U 37240M 37247U 37258U 37512U 37548U 37603U
             37621M 37671  37800M 37810U 37816M 37823U 37834U 37985U 38016M 38063  38168M 38178U 38184M 38191U 38202U
             38405  38417U 38440M 38470  38545M 38566  38654M 38664U 38670M 38677U 38688U 38883U 38901M 38922  39010M
             39020U 39026M 39033U 39044U 39240U 39258M 39291  39372M 39403  39478M 39511  39586M 39732  39834M 39852U
             39858M 39865U 39876U 40121  40680  40827U 40873U 40928U 40946M 41062  41164M 41182U 41188M 41195U 41206U
             41481  41837  41980U 42026U 42080U 42098M 42190  42292M 42310U 42316M 42323U 42334U 42515  42914  42948
             43324  43471U 43517U 43572U 43590M 43690  43799M 43817U 43823M 43830U 43841U 43845  44244U 44280U 44676
             44831  45022  45377U 45423U 45514U 45532M 45625  45727M 45745U 45751M 45758U 45769U 45950  46242  46276
             46680  46827U 46873U 46928U 46946M 47039  47141M 47159U 47165M 47172U 47183U 47472U 47508U 47563U 47581M
             47646  47674M 47692U 47696M 47706U 47709U 47724U 47727U 47732U 47740M 47798  47940M 47950U 47955  47962U
             47985M 48035  48181M 48199U 48204M 48211U 48222U 48230U 48363  48746  48757  49015  49116U 49136U 49213U
             49233U 49460U 49478M 49546  49665M 49675U 49859  49977U 50023U 50077U 50103M 50135  50254M 50264U 50425U
             50461U 50868  51035  51055U 51162M 51233  51327M 51337U 52387U 52405M 52518  52641M 52658U 53200  53242U
             53553M 53563U 53569M 53576U 53587U 53811U 54042M 54052U 54058M 54065U 54076U 54212U 54662M 54672U 54722
             54874U 54904M 54936  55038M 55048U 55054M 55061U 55072U 55481U 55504M 55587  55933M 55943U 55958M 55958
             56040  56105U 56130M 56166  56556M 56608  56952M 56983  57263M 57316  57607M 57641  57770M 57770  57771M
             58218M 58220  58354M 58386  58607M 58609M 58732M 58791  59515M 59564  59993M 60026  60129M 60147U 60153M
             60160U 60171U 60338U 60356M 60388  60482M 60492U 60629U 60647M 60698  61140M 61170  61311M 61423  61516M
             61526U 61589  61590  61596  61597  62149U 62167M 62199  62600M 62659  63009M 63020U 63078U 63122M 63172
             63317M 63327U 63355  63455U 63457  63477M 63527  63615M 63625U 63632  63662M 63685U 63703M 63749  63781M
             63791U 63804U 63815U 63849M 63872U 63885M 63935  64120M 64130U 64145M 64162U 64301M 64350  64540M 64598
             65832M 65883  66312M 66412  66742M 66752U 66758M 66765U 66776U 66963U 66983U 67229M 67269M 67450M 67489M
             67672M 67716M 67948U 67968U 68168  69139U 69157M 69313  69633M 69634  69702  69734U 69758U 69768M 69814U
             69919U 69940U 70001U 71871M 71887U 72097M 72109U 72199M 72220  72248M 72349  72437M 72447U 72528  72674
             72843  72939U 72957M 73025  73570M 73635  73850M 73906  73960M 73975  74004  74023U 75184  76244  76270
             76344U 76359U 76372M 76372  76389U 77040M 77123  77375M 77435  77492M 77507  77508  77537  77556U 78715
             79447  80507  80611  80617U 80631U 80644M 80644  80661U 81089M
     8(8)      959U  6863   7834M  7835M  7836   7839M  7850M  7872U  7887U  8165M  8208M  8290M  8291M  8292   9105M
              9110U  9821M  9897   9939M  9957U  9963M  9970U  9981U 10415U 10428M 10458  10500M 10518U 10524M 10531U
             10542U 10641U 10654M 10691  10895M 11155U 11196M 11306  11878M 11878  11935M 12177M 12250M 12322  12573M
             12574  12584U 12606  12632U 12710U 12885  12927U 12960M 13029  13658M 13773  15217M 15288  15448M 15465M
             15470M 15471  15549M 15566M 15571M 15572  15633M 16354M 16444  16595M 16612M 16617M 16618  16696M 16713M
             16718M 16719  16741M 17231M 17343  17678M 17679M 17680M 17681  17823  18052  18077M 18108  18294M 18345
             19431M 19493  20247M 20333  20563M 20650  20682M 20692U 21454U 21467M 21549  21640M 21640  21906M 22050
             22084  22087  22089  22109M 22168  22491M 22508M 22513M 22514  22593M 22610M 22615M 22616  22664M 22665M
1         (PAGE00) (09:42) (22MAR04) General Purpose Register Cross Reference                                               Page  536
             22666  23496M 23527  23824M 23947  24558M 24579U 24707  24769  24770  24776  24777  24788M 24800U 24808M
             24809M 24810  24811M 24818  24820M 25334M 25335M 25336  25337M 25344  25346M 25583M 25604U 25906  25920M
             25932U 25939M 25940M 25941  25958M 25959M 25960  26291M 26376  26464M 26474U 26807  26871U 26889M 26956
             27201M 27219M 27224M 27225  27304M 27322M 27327M 27328  27620M 27699  27981M 28197M 28389M 28406M 28406
             28574M 28608M 28687U 28700U 28713U 28726U 28815M 28819  28831  28856M 28857M 28858M 28868U 28885U 29007M
             29021U 29034U 29122M 29123M 29129M 29130  29142  29212M 29213M 29214M 29215M 29225U 29231M 29238U 29240M
             29244M 29254U 29271U 30022M 30140  30723M 30802  31080M 31091M 31091  31097  31334M 31540M 31586  31978M
             32048  32376M 32472  32859M 32927  33745M 33746M 33747  33748M 33749M 33766U 33976U 34109U 34134U 34504M
             34509U 35088M 35229  35777M 35845  36131M 36132M 36133M 36134M 36144U 36238U 36474M 36504  37046M 37114
             37621M 37671  38016M 38063  38440M 38470  38545M 38566  38901M 38922  39258M 39291  39372M 39403  39478M
             39511  39586M 39732  40142M 40142  40195M 40214M 40249M 40299  40301M 40331  40333M 40384  40386M 40407
             40409M 40458M 40458  40466M 40489M 40526M 40921  40946M 41062  41424M 41425M 41494M 41735M 41850M 42098M
             42190  42537M 42537  42568M 42732M 42992M 43565  43590M 43690  44861M 44871U 44883U 44885M 44895U 44919U
             44962M 45048M 45532M 45625  45972M 45972  46003M 46060M 46320M 46921  46946M 47039  47315M 47315  47378M
             47556  47581M 47646  47740M 47798  47985M 48035  48433M 48443U 48449M 48456U 48462U 49478M 49546  49752M
             49753M 49782U 49877M 49889U 50103M 50135  50582M 50587U 51162M 51233  51464M 51465M 51495  51503M 51513U
             51527U 51530U 51547U 51550U 51826M 51849U 52405M 52518  52865M 52888  52962  53679M 53770  53771  53878M
             53888U 53894M 53901U 53907U 54904M 54936  55504M 55587  56130M 56166  56556M 56608  56952M 56983  57263M
             57316  57607M 57641  57673M 57683U 58341U 58354M 58386  58418M 58428U 58719U 58732M 58791  59515M 59564
             59993M 60026  60175M 60185U 60333U 60356M 60388  60569M 60569  60570M 60579  60647M 60698  61140M 61170
             61311M 61423  61683M 61693U 61699M 61706U 61712U 62033U 62167M 62199  62373M 62374M 62383M 62405  62479
             62532  62600M 62659  63122M 63172  63477M 63527  63703M 63749  63885M 63935  64301M 64350  64540M 64598
             65054M 65079  65155  65588M 65589  65646  65832M 65883  66087M 66107  66126M 66127  66128M 66129  66134
             66136  66141M 66142M 66147  66149  66157M 66178  66191M 66212  66312M 66412  67976M 67979M 67980M 67990U
             68011U 68057U 68210U 68286M 68287M 68288N 68289M 68293N 69157M 69313  70254M 70255  70265U 71819U 71986M
             71992M 72004M 72030U 72036  72069M 72081U 72085M 72086M 72199M 72220  72248M 72349  72562M 72957M 73025
             73224M 73234U 73319  73447  73552U 73570M 73635  73756M 73766U 77017U 77040M 77123  77244M 77254U 81066U
             81089M
     9(9)      955U  6863   8166M  8208M  9821M  9897  10428M 10458  10654M 10691  10895M 10905U 11161U 11196M 11306
             11880M 11880  12019M 12117M 12250M 12322  12960M 13029  13658M 13773  15217M 15288  15448M 15458M 15471
             15549M 15559M 15572  16354M 16444  16595M 16605M 16618  16696M 16706M 16719  16890M 16891M 16910  17231M
             17343  18077M 18108  18196M 18197M 18201M 18202M 18217M 18217  18294M 18345  18543M 18544M 18548M 18549M
             18558M 18558  18608M 18608  18663  18673M 19431M 19493  19712M 19740U 19771  19885  19886  19892  19893
             19895M 19909M 20067M 20142M 20159M 20297  20308  20333M 20377M 20397  20535U 20563M 20650  20766M 20776U
             20842  20876  20883  20905  20906  20917U 20919M 20966  20967  20990U 21054M 21064U 21067U 21113  21147
             21154  21176  21177  21192U 21195U 21197M 21244  21245  21290  21364M 21432U 21467M 21549  21765M 21888U
             22027  22064U 22083M 22084M 22085  22086M 22087M 22088  22109M 22168  22491M 22501M 22514  22593M 22603M
             22616  23496M 23527  23824M 23947  24559M 24794M 24818M 24819M 24820  24963M 24964M 24965  25197M 25198M
             25199  25216M 25229M 25229  25307  25344M 25345M 25346  25462M 25475M 25475  25553  25584M 25926M 25943M
             25953U 25967U 26000M 26012  26291M 26376  26509M 26567M 26889M 26956  27201M 27212M 27225  27304M 27315M
             27328  27620M 27699  28061M 28066U 28324M 28334U 28346U 28348M 28349M 28359  28391M 28392M 28488  30022M
             30140  30723M 30802  31097M 31176  31178M 31218  31311  31334  31350M 31359M 31359  31383M 31404M 31417M
             31417  31483  31540M 31586  31978M 32048  32376M 32472  32859M 32927  33747M 33779M 33780M 33781M 33791U
             33971U 35088M 35229  35777M 35845  36149M 36159U 36165M 36172U 36178U 36474M 36504  37046M 37114  37621M
             37671  38016M 38063  38440M 38470  38545M 38566  38901M 38922  39258M 39291  39372M 39403  39478M 39511
             39586M 39732  40272M 40273M 40946M 41062  41494M 41545U 41736M 41850M 41870U 42098M 42190  42903M 42915
             42985M 42986M 42986  43003M 43004M 43005  43055  43590M 43690  44644M 44876  44962M 45048M 45082U 45283U
             45532M 45625  46231M 46243  46313M 46314M 46314  46331M 46332M 46333  46383  46946M 47039  47581M 47646
             47740M 47798  47985M 48035  49308M 49309  49310  49355  49356  49478M 49546  49643M 49661U 49934U 49954U
             50085U 50103M 50135  50232M 50250U 50382U 50402U 51144U 51162M 51233  51536M 51561U 51827M 51843U 52405M
             52518  53655M 53764  53765  54007M 54031U 54217U 54904M 54936  55504M 55587  56130M 56166  56556M 56608
             56952M 56983  57263M 57316  57607M 57641  58354M 58386  58732M 58791  58970M 58980U 59055  59077U 59515M
             59564  59993M 60026  60356M 60388  60647M 60698  61140M 61170  61311M 61423  62167M 62199  62369M 62370M
             62371M 62371N 62600M 62659  63122M 63172  63477M 63527  63703M 63749  63885M 63935  64301M 64350  64540M
             64598  65832M 65883  66087M 66088  66157M 66166  66191M 66200  66312M 66412  68290M 68291M 68292N 69157M
             69313  69880M 69881M 69882  71987M 71992M 72199M 72220  72248M 72349  72562M 72585U 72924U 72957M 73025
             73161M 73171U 73308  73501  73557U 73570M 73635  73728M 73738U 77022U 77040M 77123  77216M 77226U 81071U
             81089M
    10(A)      951U  6863   6864M  6874U  9818U  9821M  9897   9898M  9908U 10425U 10428M 10458  10459M 10469U 10651U
1         (PAGE00) (09:42) (22MAR04) General Purpose Register Cross Reference                                               Page  537
             10654M 10691  10692M 10702U 11193U 11196M 11306  11307M 11317U 12247U 12250M 12322  12323M 12333U 12957U
             12960M 13029  13030M 13040U 13655U 13658M 13773  13774M 13784U 15214U 15217M 15288  15289M 15299U 16351U
             16354M 16444  16445M 16455U 17228U 17231M 17343  17344M 17354U 18074U 18077M 18108  18109M 18119U 18291U
             18294M 18345  18346M 18356U 19428U 19431M 19493  19494M 19504U 20560U 20563M 20650  20651M 20661U 21464U
             21467M 21549  21550M 21560U 22106U 22109M 22168  22169M 22179U 23493U 23496M 23527  23528M 23538U 23821U
             23824M 23947  23948M 23958U 26288U 26291M 26376  26377M 26387U 26886U 26889M 26956  26957M 26967U 27617U
             27620M 27699  27700M 27710U 30019U 30022M 30042U 30097U 30140  30141M 30151U 30720U 30723M 30802  30803M
             30813U 31537U 31540M 31586  31587M 31597U 31975U 31978M 32048  32049M 32059U 32373U 32376M 32472  32473M
             32483U 32856U 32859M 32927  32928M 32938U 35085U 35088M 35229  35230M 35240U 35774U 35777M 35845  35846M
             35856U 36471U 36474M 36504  36505M 36515U 37043U 37046M 37114  37115M 37125U 37618U 37621M 37671  37672M
             37682U 38013U 38016M 38063  38064M 38074U 38437U 38440M 38470  38471M 38481U 38542U 38545M 38566  38567M
             38577U 38898U 38901M 38922  38923M 38933U 39255U 39258M 39291  39292M 39302U 39369U 39372M 39403  39404M
             39414U 39475U 39478M 39511  39512M 39522U 39583U 39586M 39732  39733M 39743U 40943U 40946M 41062  41063M
             41073U 42095U 42098M 42190  42191M 42201U 43587U 43590M 43690  43691M 43701U 45529U 45532M 45625  45626M
             45636U 46943U 46946M 47039  47040M 47050U 47578U 47581M 47646  47647M 47657U 47737U 47740M 47798  47799M
             47809U 47982U 47985M 48035  48036M 48046U 49475U 49478M 49546  49547M 49557U 50100U 50103M 50135  50136M
             50146U 51159U 51162M 51233  51234M 51244U 52402U 52405M 52518  52519M 52529U 54901U 54904M 54936  54937M
             54947U 55501U 55504M 55587  55588M 55598U 56127U 56130M 56166  56167M 56177U 56553U 56556M 56608  56609M
             56619U 56949U 56952M 56983  56984M 56994U 57260U 57263M 57316  57317M 57327U 57604U 57607M 57641  57642M
             57652U 58351U 58354M 58386  58387M 58397U 58729U 58732M 58791  58792M 58802U 59512U 59515M 59564  59565M
             59575U 59990U 59993M 60026  60027M 60037U 60353U 60356M 60388  60389M 60399U 60644U 60647M 60698  60699M
             60709U 61137U 61140M 61170  61171M 61181U 61308U 61311M 61423  61424M 61434U 62164U 62167M 62199  62200M
             62210U 62597U 62600M 62659  62660M 62670U 63119U 63122M 63172  63173M 63183U 63474U 63477M 63527  63528M
             63538U 63700U 63703M 63749  63750M 63760U 63882U 63885M 63935  63936M 63946U 64298U 64301M 64350  64351M
             64361U 64537U 64540M 64598  64599M 64609U 65829U 65832M 65883  65884M 65894U 66309U 66312M 66412  66413M
             66423U 69154U 69157M 69313  69314M 69324U 72196U 72199M 72220  72221M 72231U 72245U 72248M 72349  72350M
             72360U 72954U 72957M 73025  73026M 73036U 73567U 73570M 73635  73636M 73646U 77037U 77040M 77123  77124M
             77134U 81086U 81089M
    11(B)      947U  6863   9821M  9897  10428M 10458  10654M 10691  11196M 11306  12250M 12322  12960M 13029  13658M
             13773  15217M 15288  15844M 15849U 16354M 16444  17231M 17343  18077M 18108  18294M 18345  19431M 19493
             20563M 20650  20970M 20971M 21006  21250M 21376  21467M 21549  22109M 22168  23496M 23527  23824M 23947
             26291M 26376  26889M 26956  27620M 27699  28074M 28075  28123M 28124M 28152  28165  28166M 28167M 28177U
             28192U 28386M 28387  28423U 28461M 28461  28542M 28543M 28753U 28791M 28791  28941M 28942M 29011M 29060U
             29098M 29098  29365M 29366M 30022M 30140  30723M 30802  31540M 31586  31978M 32048  32376M 32472  32859M
             32927  33750M 33820U 33834U 33915U 33929U 33989U 34003U 34145U 34159U 35088M 35229  35777M 35845  36474M
             36504  37046M 37114  37621M 37671  38016M 38063  38440M 38470  38545M 38566  38901M 38922  39258M 39291
             39372M 39403  39478M 39511  39586M 39732  40946M 41062  42098M 42190  43590M 43690  43845M 43850U 43968M
             44636  44710  44715  45532M 45625  46946M 47039  47581M 47646  47740M 47798  47985M 48035  49478M 49546
             50103M 50135  51162M 51233  51344M 51345M 51374U 51856M 51868U 51883M 51884M 51913U 52091M 52103U 52118M
             52119M 52148U 52261M 52273U 52405M 52518  53620M 53633M 53633  53750  53777  53780  53783  53800M 53801
             54904M 54936  55504M 55587  56130M 56166  56556M 56608  56952M 56983  57263M 57316  57607M 57641  58354M
             58386  58732M 58791  59515M 59564  59993M 60026  60356M 60388  60647M 60698  61140M 61170  61311M 61423
             62167M 62199  62600M 62659  63122M 63172  63477M 63527  63703M 63749  63885M 63935  64301M 64350  64540M
             64598  65832M 65883  66312M 66412  69157M 69313  72199M 72220  72248M 72349  72957M 73025  73570M 73635
             77040M 77123  81089M
    12(C)      943U  6863   6878   6879M  6880   6890U  6894   9813U  9821M  9821   9822   9897   9912   9913M  9914
              9924U  9928  10420U 10428M 10428  10429  10458  10473  10474M 10475  10485U 10489  10646U 10654M 10654
             10655  10691  10706  10707M 10708  10718U 10722  11188U 11196M 11196  11197  11306  11321  11322M 11323
             11333U 11342  12242U 12250M 12250  12251  12322  12337  12338M 12339  12349U 12353  12952U 12960M 12960
             12961  13029  13044  13045M 13046  13056U 13060  13650U 13658M 13658  13659  13773  13788  13789M 13790
             13800U 13809  15209U 15217M 15217  15218  15288  15303  15304M 15305  15315U 15319  16346U 16354M 16354
             16355  16444  16459  16460M 16461  16471U 16480  17223U 17231M 17231  17232  17343  17358  17359M 17360
             17370U 17379  18069U 18077M 18077  18078  18108  18123  18124M 18125  18126  18294M 18294  18295  18345
             18360  18361M 18362  18372U 18376  19423U 19431M 19431  19432  19493  19508  19509M 19510  19520U 19529
             20555U 20563M 20563  20564  20650  20665  20666M 20667  20677U 20681  21459U 21467M 21467  21468  21549
             21564  21565M 21566  21576U 21580  22101U 22109M 22109  22110  22168  22183  22184M 22185  22195U 22204
             23488U 23496M 23496  23497  23527  23542  23543M 23544  23554U 23563  23816U 23824M 23824  23825  23947
             23962  23963M 23964  23974U 23983  26283U 26291M 26291  26292  26376  26391  26392M 26393  26403U 26407
             26881U 26889M 26889  26890  26956  26971  26972M 26973  26983U 26992  27612U 27620M 27620  27621  27699
1         (PAGE00) (09:42) (22MAR04) General Purpose Register Cross Reference                                               Page  538
             27714  27715M 27716  27726U 27735  30014U 30022M 30022  30023  30140  30155  30156M 30157  30167U 30176
             30715U 30723M 30723  30724  30802  30817  30818M 30819  30829U 30833  31532U 31540M 31540  31541  31586
             31601  31602M 31603  31613U 31617  31970U 31978M 31978  31979  32048  32063  32064M 32065  32075U 32084
             32368U 32376M 32376  32377  32472  32487  32488M 32489  32499U 32503  32851U 32859M 32859  32860  32927
             32942  32943M 32944  32954U 32963  35080U 35088M 35088  35089  35229  35244  35245M 35246  35256U 35265
             35769U 35777M 35777  35778  35845  35860  35861M 35862  35872U 35881  36466U 36474M 36474  36475  36504
             36519  36520M 36521  36531U 36540  37038U 37046M 37046  37047  37114  37129  37130M 37131  37141U 37150
             37613U 37621M 37621  37622  37671  37686  37687M 37688  37698U 37702  38008U 38016M 38016  38017  38063
             38078  38079M 38080  38090U 38094  38432U 38440M 38440  38441  38470  38485  38486M 38487  38497U 38501
             38537U 38545M 38545  38546  38566  38581  38582M 38583  38593U 38597  38893U 38901M 38901  38902  38922
             38937  38938M 38939  38949U 38953  39250U 39258M 39258  39259  39291  39306  39307M 39308  39318U 39322
             39364U 39372M 39372  39373  39403  39418  39419M 39420  39430U 39434  39470U 39478M 39478  39479  39511
             39526  39527M 39528  39538U 39542  39578U 39586M 39586  39587  39732  39747  39748M 39749  39759U 39768
             40938U 40946M 40946  40947  41062  41077  41078M 41079  41089U 41098  42090U 42098M 42098  42099  42190
             42205  42206M 42207  42217U 42226  43582U 43590M 43590  43591  43690  43705  43706M 43707  43717U 43726
             45524U 45532M 45532  45533  45625  45640  45641M 45642  45652U 45661  46938U 46946M 46946  46947  47039
             47054  47055M 47056  47066U 47075  47573U 47581M 47581  47582  47646  47661  47662M 47663  47664  47740M
             47740  47741  47798  47813  47814M 47815  47825U 47829  47977U 47985M 47985  47986  48035  48050  48051M
             48052  48062U 48071  49470U 49478M 49478  49479  49546  49561  49562M 49563  49573U 49577  50095U 50103M
             50103  50104  50135  50150  50151M 50152  50162U 50166  51154U 51162M 51162  51163  51233  51248  51249M
             51250  51260U 51269  52397U 52405M 52405  52406  52518  52533  52534M 52535  52545U 52554  54896U 54904M
             54904  54905  54936  54951  54952M 54953  54963U 54967  55496U 55504M 55504  55505  55587  55602  55603M
             55604  55614U 55623  56122U 56130M 56130  56131  56166  56181  56182M 56183  56193U 56202  56548U 56556M
             56556  56557  56608  56623  56624M 56625  56635U 56639  56944U 56952M 56952  56953  56983  56998  56999M
             57000  57010U 57019  57255U 57263M 57263  57264  57316  57331  57332M 57333  57343U 57347  57599U 57607M
             57607  57608  57641  57656  57657M 57658  57668U 57672  58346U 58354M 58354  58355  58386  58401  58402M
             58403  58413U 58417  58724U 58732M 58732  58733  58791  58806  58807M 58808  58818U 58827  59233  59236M
             59236  59348M 59359M 59507U 59515M 59515  59516  59564  59579  59580M 59581  59591U 59600  59985U 59993M
             59993  59994  60026  60041  60042M 60043  60053U 60062  60348U 60356M 60356  60357  60388  60403  60404M
             60405  60415U 60424  60639U 60647M 60647  60648  60698  60713  60714M 60715  60725U 60729  61132U 61140M
             61140  61141  61170  61185  61186M 61187  61188  61311M 61311  61312  61423  61438  61439M 61440  61450U
             61459  62159U 62167M 62167  62168  62199  62214  62215M 62216  62226U 62230  62592U 62600M 62600  62601
             62659  62674  62675M 62676  62686U 62690  63114U 63122M 63122  63123  63172  63187  63188M 63189  63199U
             63203  63469U 63477M 63477  63478  63527  63542  63543M 63544  63554U 63558  63695U 63703M 63703  63704
             63749  63764  63765M 63766  63776U 63780  63877U 63885M 63885  63886  63935  63950  63951M 63952  63962U
             63966  64293U 64301M 64301  64302  64350  64365  64366M 64367  64377U 64381  64532U 64540M 64540  64541
             64598  64613  64614M 64615  64625U 64634  65824U 65832M 65832  65833  65883  65898  65899M 65900  65910U
             65914  66304U 66312M 66312  66313  66412  66427  66428M 66429  66439U 66443  69149U 69157M 69157  69158
             69313  69328  69329M 69330  69340U 69349  72191U 72199M 72199  72200  72220  72235  72236M 72237  72238
             72248M 72248  72249  72349  72364  72365M 72366  72376U 72380  72949U 72957M 72957  72958  73025  73040
             73041M 73042  73043  73570M 73570  73571  73635  73650  73651M 73652  73662U 73671  77032U 77040M 77040
             77041  77123  77138  77139M 77140  77150U 77159  81081U 81089M 81089  81090
    13(D)      939U  6863   6863   6878   6879   6894M  7096U  7247U  7250U  7310U  7313U  7506U  7509U  7699U  7702U
              7985U  7988U  8092U  8095U  8245U  8248U  8706U  8709U  8810U  8813U  8985U  8988U  9592U  9595U  9731U
              9734U  9821M  9829U  9897   9897   9912   9913   9928M 10172U 10292U 10295U 10428M 10436U 10458  10458
             10473  10474  10489M 10654M 10691  10691  10706  10707  10722M 10814U 11028U 11031U 11121U 11124U 11196M
             11204U 11306  11306  11321  11322  11342M 11510U 11611U 11614U 11946U 11949U 12250M 12258U 12322  12322
             12337  12338  12353M 12457U 12531U 12534U 12765U 12768U 12809U 12812U 12960M 12968U 13029  13029  13044
             13045  13060M 13131U 13403U 13406U 13480U 13483U 13524U 13527U 13658M 13666U 13773  13773  13788  13789
             13809M 13989U 14174U 14177U 14502U 14505U 14569U 14572U 14696U 14699U 14798U 14801U 15030U 15033U 15109U
             15112U 15217M 15225U 15288  15288  15303  15304  15319M 15423U 15800U 15803U 16014U 16017U 16273U 16276U
             16354M 16362U 16444  16444  16459  16460  16480M 16570U 17152U 17155U 17231M 17239U 17343  17343  17358
             17359  17379M 17549U 18077M 18085U 18108  18108  18123  18124  18126M 18246U 18294M 18302U 18345  18345
             18360  18361  18376M 18445U 18497U 18500U 18580U 18583U 18642U 18645U 18821U 18824U 18848U 18851U 18897U
             18900U 19020U 19023U 19143U 19146U 19259U 19262U 19301U 19304U 19357U 19360U 19431M 19439U 19493  19493
             19508  19509  19529M 19659U 19939U 19942U 20194U 20197U 20258U 20261U 20438U 20441U 20563M 20571U 20650
             20650  20665  20666  20681M 21467M 21549  21549  21564  21565  21580M 21954U 22109M 22117U 22168  22168
             22183  22184  22204M 22401U 22463U 22466U 22711U 22714U 22902U 22905U 23111U 23114U 23444U 23447U 23496M
             23504U 23527  23527  23542  23543  23563M 23632U 23824M 23832U 23947  23947  23962  23963  23983M 24092U
1         (PAGE00) (09:42) (22MAR04) General Purpose Register Cross Reference                                               Page  539
             24452U 24455U 24976U 24979U 25003U 25006U 25105U 25108U 25884U 25887U 25979U 25982U 26027U 26030U 26182U
             26185U 26291M 26299U 26376  26376  26391  26392  26407M 26728U 26889M 26897U 26956  26956  26971  26972
             26992M 27176U 27369U 27372U 27519U 27522U 27563U 27566U 27620M 27628U 27699  27699  27714  27715  27735M
             27889U 28312U 28315U 29533U 29536U 29632U 29635U 29687U 29690U 29806U 29809U 29923U 29926U 30022M 30030U
             30140  30140  30155  30156  30176M 30297U 30400U 30403U 30455U 30458U 30590U 30593U 30634U 30637U 30681U
             30684U 30723M 30731U 30802  30802  30817  30818  30833M 31540M 31586  31586  31601  31602  31617M 31809U
             31863U 31866U 31978M 31986U 32048  32048  32063  32064  32084M 32162U 32228U 32231U 32307U 32310U 32376M
             32384U 32472  32472  32487  32488  32503M 32646U 32717U 32720U 32812U 32815U 32859M 32867U 32927  32927
             32942  32943  32963M 33096U 33846U 33849U 34017U 34020U 34314U 34317U 34645U 34648U 34989U 34992U 35088M
             35096U 35229  35229  35244  35245  35265M 35413U 35483U 35486U 35556U 35559U 35678U 35681U 35777M 35785U
             35845  35845  35860  35861  35881M 36029U 36253U 36256U 36374U 36377U 36474M 36482U 36504  36504  36519
             36520  36540M 36683U 36753U 36756U 36947U 36950U 37046M 37054U 37114  37114  37129  37130  37150M 37298U
             37621M 37629U 37671  37671  37686  37687  37702M 38016M 38063  38063  38078  38079  38094M 38440M 38470
             38470  38485  38486  38501M 38511U 38545M 38553U 38566  38566  38581  38582  38597M 38755U 38901M 38909U
             38922  38922  38937  38938  38953M 39111U 39258M 39266U 39291  39291  39306  39307  39322M 39332U 39372M
             39380U 39403  39403  39418  39419  39434M 39444U 39478M 39486U 39511  39511  39526  39527  39542M 39552U
             39586M 39594U 39732  39732  39747  39748  39768M 40009U 40089U 40092U 40609U 40612U 40648U 40651U 40732U
             40735U 40846U 40849U 40946M 40954U 41062  41062  41077  41078  41098M 41272U 41449U 41452U 41766U 41769U
             41805U 41808U 41889U 41892U 41999U 42002U 42098M 42106U 42190  42190  42205  42206  42226M 42403U 42483U
             42486U 42674U 42677U 42926U 42929U 43017U 43020U 43144U 43147U 43253U 43256U 43292U 43295U 43376U 43379U
             43490U 43493U 43590M 43598U 43690  43690  43705  43706  43726M 43868U 44359U 44362U 44470U 44473U 44614U
             44617U 44655U 44658U 44799U 44802U 44991U 44994U 45109U 45112U 45237U 45240U 45396U 45399U 45532M 45540U
             45625  45625  45640  45641  45661M 45838U 45918U 45921U 46254U 46257U 46345U 46348U 46504U 46507U 46609U
             46612U 46648U 46651U 46732U 46735U 46846U 46849U 46946M 46954U 47039  47039  47054  47055  47075M 47201U
             47581M 47589U 47646  47646  47661  47662  47664M 47740M 47798  47798  47813  47814  47829M 47913U 47985M
             47993U 48035  48035  48050  48051  48071M 48318U 48395U 48398U 48503U 48506U 48724U 48727U 48880U 48997U
             49272U 49275U 49478M 49486U 49546  49546  49561  49562  49577M 49695U 49827U 49830U 49996U 49999U 50103M
             50111U 50135  50135  50150  50151  50166M 50284U 50536U 50539U 50625U 50628U 50846U 50849U 50907U 50910U
             50948U 50951U 50996U 50999U 51162M 51170U 51233  51233  51248  51249  51269M 51477U 51711U 51714U 51783U
             51786U 52209U 52212U 52405M 52413U 52518  52518  52533  52534  52554M 52624U 53161U 53164U 53220U 53223U
             54136U 54139U 54232U 54235U 54904M 54912U 54936  54936  54951  54952  54967M 55201U 55504M 55512U 55587
             55587  55602  55603  55623M 55692U 55799U 55802U 55892U 55895U 55996U 55999U 56077U 56080U 56130M 56138U
             56166  56166  56181  56182  56202M 56271U 56379U 56382U 56472U 56475U 56556M 56564U 56608  56608  56623
             56624  56639M 56706U 56730U 56733U 56765U 56768U 56916U 56919U 56952M 56960U 56983  56983  56998  56999
             57019M 57088U 57111U 57114U 57226U 57229U 57263M 57271U 57316  57316  57331  57332  57347M 57607M 57641
             57641  57656  57657  57672M 58354M 58386  58386  58401  58402  58417M 58732M 58791  58791  58806  58807
             58827M 58896U 59011U 59014U 59101U 59104U 59128U 59131U 59169U 59172U 59371U 59374U 59477U 59480U 59515M
             59523U 59564  59564  59579  59580  59600M 59669U 59776U 59779U 59955U 59958U 59993M 60001U 60026  60026
             60041  60042  60062M 60202U 60356M 60364U 60388  60388  60403  60404  60424M 60508U 60647M 60655U 60698
             60698  60713  60714  60729M 60872U 60972U 60975U 61023U 61026U 61140M 61148U 61170  61170  61185  61186
             61188M 61311M 61423  61423  61438  61439  61459M 61637U 61901U 61904U 61972U 61975U 62167M 62175U 62199
             62199  62214  62215  62230M 62394U 62422U 62425U 62518U 62521U 62600M 62608U 62659  62659  62674  62675
             62690M 62967U 63034U 63037U 63122M 63130U 63172  63172  63187  63188  63203M 63280U 63368U 63371U 63477M
             63485U 63527  63527  63542  63543  63558M 63703M 63749  63749  63764  63765  63780M 63885M 63935  63935
             63950  63951  63966M 64033U 64083U 64086U 64173U 64176U 64237U 64240U 64301M 64309U 64350  64350  64365
             64366  64381M 64399U 64540M 64548U 64598  64598  64613  64614  64634M 64912U 65832M 65840U 65883  65883
             65898  65899  65914M 65987U 66243U 66246U 66312M 66320U 66412  66412  66427  66428  66443M 66543U 67731U
             67734U 67884U 67887U 68147U 68150U 68390U 68393U 69157M 69165U 69313  69313  69328  69329  69349M 69401U
             69522U 69525U 69681U 69684U 70034U 70037U 70080U 70083U 71834U 71837U 71953U 71956U 72046U 72049U 72141U
             72144U 72199M 72207U 72220  72220  72235  72236  72238M 72248M 72349  72349  72364  72365  72380M 72505U
             72653U 72656U 72801U 72804U 72957M 72965U 73025  73025  73040  73041  73043M 73130U 73250U 73253U 73286U
             73289U 73363U 73366U 73408U 73411U 73528U 73531U 73570M 73578U 73635  73635  73650  73651  73671M 73923U
             74180U 74183U 74284U 74287U 74395U 74398U 75145U 75148U 75245U 75248U 75344U 75347U 75455U 75458U 76205U
             76208U 76294U 76297U 76473U 76476U 76584U 76587U 76914U 76917U 77040M 77048U 77123  77123  77138  77139
             77159M 77314U 77452U 77455U 77712U 77715U 77815U 77818U 77926U 77929U 78676U 78679U 78764U 78767U 78875U
             78878U 79408U 79411U 79510U 79513U 79607U 79610U 79718U 79721U 80468U 80471U 80556U 80559U 80745U 80748U
             80856U 80859U 81089M 81097U
    14(E)      935U  6863   7109M  7275M  7348M  7612M  7785M  7942M  7943   8110M  8289M  8349M  8350M  8351   8503M
              8504   8734M  8916M  9056M  9256M  9257M  9258   9291M  9292   9450M  9451   9608M  9661M  9754M  9787M
1         (PAGE00) (09:42) (22MAR04) General Purpose Register Cross Reference                                               Page  540
              9821M  9823B  9897  10185M 10320M 10428M 10430B 10458  10654M 10656B 10691  10845M 11072M 11149M 11196M
             11198B 11306  11523M 11644M 11962M 12036M 12111M 12171M 12250M 12252B 12322  12506M 12560M 12788M 12912M
             12960M 12962B 13029  13180M 13431M 13503M 13624M 13658M 13660B 13773  14002M 14139M 14251M 14259M 14261M
             14262  14290M 14290  14445M 14531M 14592M 14712M 14765M 14823M 14892M 14894M 14895  14923M 14923  14987M
             15062M 15183M 15217M 15219B 15288  15440M 15823M 16042M 16209M 16211M 16214  16226M 16231  16296M 16354M
             16356B 16444  16587M 17071M 17073M 17076  17088M 17093  17184M 17231M 17233B 17343  17562M 17756M 17797M
             17798M 17799  17806M 17819  17820  17893M 17981M 18034M 18051M 18077M 18079B 18108  18275M 18294M 18296B
             18345  18457M 18464M 18483M 18529M 18596M 18672M 18730M 18746  18771  18778  18781  18782  18837M 18879M
             18913M 18986M 18987M 18988  18995M 19008  19009  19043M 19107M 19108M 19109  19116M 19129  19130  19159M
             19241M 19288M 19321M 19373M 19405M 19431M 19433B 19493  19701M 19870M 19871M 19872  19879M 19892  19893
             19974M 20057M 20062M 20239M 20332M 20486M 20563M 20565B 20650  20946M 20947M 20948  20955M 20966  20967
             21224M 21225M 21226  21233M 21244  21245  21467M 21469B 21549  21708M 21724  21749  21756  21759  21760
             21801M 21817  21842  21856M 21858  21859  22038M 22109M 22111B 22168  22414M 22483M 22727M 22828M 22829M
             22830  22837M 22850  22851  22871M 22933M 23076M 23077M 23078  23085M 23098  23099  23127M 23147M 23213M
             23318M 23378M 23464M 23496M 23498B 23527  23645M 23769M 23795M 23824M 23826B 23947  24105M 24181M 24293M
             24334M 24350  24375  24389M 24391  24392  24442M 24483M 24660M 24676  24701  24715M 24717  24718  24754M
             24755M 24756  24763M 24776  24777  24877M 24893  24918  24932M 24934  24935  24992M 25076M 25121M 25168M
             25169M 25170  25177M 25190  25191  25307M 25308M 25309  25316M 25327  25328  25398M 25422M 25553M 25554M
             25555  25562M 25573  25574  25690M 25706  25740  25747  25769  25770  25852M 25853M 25854  25861M 25872
             25873  25915M 25995M 26058M 26198M 26251M 26266M 26291M 26293B 26376  26554M 26555M 26556M 26557  26559
             26834M 26889M 26891B 26956  27193M 27385M 27424M 27425M 27426  27433M 27446  27447  27494M 27550M 27583M
             27620M 27622B 27699  27902M 28050M 28108M 28139U 28160U 28242M 28373M 29564M 29672M 29761M 29837M 29939M
             29992M 30022M 30024B 30140  30310M 30440M 30529M 30621M 30665M 30697M 30723M 30725B 30802  30942M 30958
             30992  30999  31021  31022  31054M 31055M 31056  31063M 31074  31075  31199M 31215  31249  31256  31278
             31279  31311M 31312M 31313  31320M 31331  31332  31483M 31484M 31485  31492M 31503  31504  31540M 31542B
             31586  31851M 31937M 31978M 31980B 32048  32175M 32256M 32323M 32376M 32378B 32472  32659M 32745M 32828M
             32859M 32861B 32927  33109M 33227M 33864M 34064M 34241M 34342M 34426M 34603M 34605M 34608  34620M 34625
             34674M 35005M 35058M 35088M 35090B 35229  35426M 35527M 35584M 35694M 35747M 35777M 35779B 35845  36042M
             36213M 36281M 36390M 36443M 36474M 36476B 36504  36696M 36797M 36843M 36844M 36845  36963M 37016M 37046M
             37048B 37114  37311M 37408M 37410M 37413  37425M 37430  37537M 37590M 37621M 37623B 37671  37915M 37917
             37918  37954M 37955M 37956  37963M 37976  37977  38016M 38018B 38063  38269M 38285  38310  38324M 38326
             38327  38380M 38381M 38382  38389M 38402  38403  38440M 38442B 38470  38530M 38545M 38547B 38566  38780M
             38840M 38876M 38901M 38903B 38922  39136M 39196M 39233M 39258M 39260B 39291  39351M 39356M 39372M 39374B
             39403  39463M 39478M 39480B 39511  39571M 39586M 39588B 39732  40022M 40133M 40637M 40692M 40760M 40862M
             40915M 40946M 40948B 41062  41285M 41405M 41493M 41794M 41849M 41917M 42015M 42068M 42098M 42100B 42190
             42416M 42527M 42690M 42955M 43046M 43073M 43075M 43078  43090M 43095  43167M 43281M 43336M 43404M 43506M
             43559M 43590M 43592B 43690  43881M 43993M 44269M 44322M 44393M 44449M 44486M 44573M 44643M 44762M 44843M
             44951M 44952M 44953  45029M 45137M 45265M 45412M 45465M 45495M 45532M 45534B 45625  45851M 45962M 46283M
             46374M 46401M 46403M 46406  46418M 46423  46527M 46637M 46692M 46760M 46862M 46915M 46946M 46948B 47039
             47214M 47497M 47550M 47581M 47583B 47646  47740M 47742B 47798  47938M 47985M 47987B 48035  48370M 48427M
             48519M 48545M 48561  48586  48600M 48602  48603  48639M 48640M 48641  48648M 48661  48662  48694M 48850M
             48874M 49022M 49247M 49351M 49369M 49444M 49478M 49480B 49546  49708M 49871M 50012M 50065M 50103M 50105B
             50135  50297M 50450M 50503M 50568M 50641M 50667M 50683  50708  50722M 50724  50725  50761M 50762M 50763
             50770M 50783  50784  50816M 50877M 50885M 50935M 50968M 51040M 51104M 51162M 51164B 51233  51502M 51740M
             51806M 52085M 52238M 52405M 52407B 52518  52637M 52780M 52796  52830  52837  52859  52860  52882M 52960M
             52989M 52990M 52991  52998M 53009  53010  53114M 53207M 53236M 53331M 53348M 53371M 53387  53412  53419
             53422  53423  53524M 53525M 53526  53533M 53546  53547  53750M 53751M 53752  53759M 53770  53771  53857M
             53927M 53950M 53966  53991  53998  54001  54002  54164M 54248M 54278M 54305M 54421M 54422M 54423  54430M
             54441  54442  54473M 54489  54523  54530  54552  54553  54650M 54699M 54700M 54701  54708M 54719  54720
             54904M 54906B 54936  55172M 55174  55175  55214M 55268M 55269M 55270  55277M 55290  55291  55429M 55430M
             55431  55438M 55451  55452  55474M 55504M 55506B 55587  55705M 55840M 55908M 56047M 56093M 56130M 56132B
             56166  56284M 56420M 56488M 56531M 56556M 56558B 56608  56719M 56753M 56816M 56932M 56952M 56954B 56983
             57101M 57158M 57242M 57263M 57265B 57316  57607M 57609B 57641  58070M 58079M 58090  58174M 58175M 58180M
             58219  58220M 58231  58354M 58356B 58386  58563M 58563  58564M 58569M 58608  58609  58732M 58734B 58791
             58909M 59062M 59117M 59156M 59185M 59399M 59493M 59515M 59517B 59564  59682M 59804M 59971M 59993M 59995B
             60026  60215M 60250M 60323M 60356M 60358B 60388  60521M 60621M 60647M 60649B 60698  60901M 60993M 61039M
             61085M 61140M 61142B 61170  61311M 61313B 61423  61574M 61575M 61576  61583M 61596  61597  61655M 61738M
             61777M 61839M 61878M 61933M 61993M 62068M 62132M 62167M 62169B 62199  62412M 62488M 62539M 62600M 62602B
             62659  62980M 63066M 63122M 63124B 63172  63316M 63395M 63477M 63479B 63527  63703M 63705B 63749  63885M
1         (PAGE00) (09:42) (22MAR04) General Purpose Register Cross Reference                                               Page  541
             63887B 63935  64057M 64118M 64203M 64270M 64301M 64303B 64350  64431M 64456M 64457  64540M 64542B 64598
             64925M 64969M 64985  65019  65026  65048  65049  65072M 65153M 65182M 65183M 65184  65191M 65202  65203
             65287M 65462M 65503M 65519  65553  65560  65582  65583  65673M 65674M 65675  65682M 65693  65694  65778M
             65798M 65809M 65832M 65834B 65883  66017M 66287M 66312M 66314B 66412  66566M 67031M 67094M 67110  67135
             67149M 67151  67152  67188M 67189M 67190  67197M 67210  67211  67265M 67270  67276M 67277  67278  67314M
             67330  67355  67369M 67371  67372  67408M 67409M 67410  67417M 67430  67431  67446M 67490  67527M 67543
             67568  67582M 67584  67585  67621M 67622M 67623  67630M 67643  67644  67649M 67650M 67651M 67655M 67656M
             67657  67668M 67677M 67754M 67912M 67917M 67918  67919M 67926  67933M 68001M 68002M 68003M 68004  68013M
             68015  68136  68175M 68176M 68187M 68418M 68630M 68631M 68632  68639M 68656  68657  68740M 68756  68790
             68797  68819  68820  68852M 68853M 68854  68861M 68872  68873  69055M 69131M 69157M 69159B 69313  69437M
             69549M 69578M 69668M 69709M 70061M 70119M 70186M 70190M 70197M 70253M 70294M 70357M 70420M 70483M 70567M
             70656M 70746M 70817M 70884M 70970M 71056M 71154M 71239M 71324M 71409M 71479M 71552M 71660M 71745M 71861M
             71985M 72067M 72124M 72179M 72199M 72201B 72220  72248M 72250B 72349  72489M 72535M 72557M 72635M 72759M
             72850M 72957M 72959B 73025  73160M 73223M 73271M 73338M 73350M 73388M 73452M 73506M 73545M 73570M 73572B
             73635  73878M 73959M 74067M 74243M 74367M 74470M 74551M 74621M 74691M 74761M 74767M 74809M 74901M 74979M
             75045M 75115M 75121M 75189M 75303M 75427M 75530M 75611M 75681M 75751M 75821M 75827M 75869M 75961M 76039M
             76105M 76175M 76181M 76249M 76320M 76324M 76331M 76411M 76556M 76659M 76733M 76739M 76940M 76991M 77040M
             77042B 77123  77338M 77403M 77491M 77599M 77773M 77898M 78001M 78082M 78152M 78222M 78292M 78298M 78340M
             78432M 78510M 78576M 78646M 78652M 78720M 78847M 78950M 79024M 79030M 79072M 79164M 79242M 79308M 79378M
             79384M 79452M 79566M 79690M 79793M 79874M 79944M 80014M 80084M 80090M 80132M 80224M 80302M 80368M 80438M
             80444M 80512M 80529M 80529  80531M 80534M 80535M 80536  80537  80582M 80586M 80593M 80683M 80828M 80931M
             81005M 81011M 81089M 81091B
    15(F)      931U  6863   6864   7041   7042M  7043M  7044M  7045M  7045   7046M  7046   7108M  7109B  7181   7182M
              7183M  7184M  7185M  7185   7186M  7186   7274M  7275B  7347M  7348B  7560M  7565   7575U  7604U  7611M
              7612B  7784M  7785B  7840M  7845U  7925M  7926M  7927M  7928   7935M  7943M  8109M  8110B  8168M  8178U
              8194U  8196M  8201U  8288M  8289B  8328M  8329M  8330M  8331M  8341U  8358U  8449   8450M  8451M  8452M
              8453M  8453   8454M  8454   8496M  8504M  8733M  8734B  8864M  8869   8879U  8908U  8915M  8916B  9055M
              9056B  9130M  9131M  9132M  9133   9183M  9193U  9206U  9235M  9236M  9237M  9238M  9248U  9265U  9284M
              9292M  9399   9400M  9401M  9402M  9403M  9403   9404M  9404   9443M  9451M  9607M  9608B  9660M  9661B
              9680M  9681M  9681   9696U  9709U  9753M  9754B  9786M  9787B  9821M  9852   9853M  9854M  9855M  9856M
              9856   9857M  9857   9897   9898  10184M 10185B 10319M 10320B 10428M 10458  10459  10588  10589M 10590M
             10591M 10592M 10592  10593M 10593  10654M 10691  10692  10844M 10845B 11071M 11072B 11148M 11149B 11196M
             11227  11228M 11229M 11230M 11231M 11231  11232M 11232  11306  11307  11522M 11523B 11643M 11644B 11844
             11845M 11846M 11847M 11848M 11848  11849M 11849  11961M 11962B 12035M 12036B 12110M 12111B 12170M 12171B
             12250M 12281  12282M 12283M 12284M 12285M 12285  12286M 12286  12322  12323  12505M 12506B 12559M 12560B
             12787M 12788B 12911M 12912B 12960M 12991  12992M 12993M 12994M 12995M 12995  12996M 12996  13029  13030
             13179M 13180B 13430M 13431B 13502M 13503B 13623M 13624B 13658M 13680  13681M 13682M 13683M 13684M 13684
             13685M 13685  13773  13774  14001M 14002B 14138M 14139B 14250M 14251B 14252M 14259  14262M 14316  14317M
             14318M 14319M 14320M 14320  14321M 14321  14444M 14445B 14530M 14531B 14591M 14592B 14711M 14712B 14764M
             14765B 14822M 14823B 14885M 14892  14895M 14949  14950M 14951M 14952M 14953M 14953  14954M 14954  14986M
             14987B 15061M 15062B 15182M 15183B 15217M 15248  15249M 15250M 15251M 15252M 15252  15253M 15253  15288
             15289  15439M 15440B 15524  15525M 15526M 15527M 15528M 15528  15529M 15529  15822M 15823B 15843M 15859
             15888  16041M 16042B 16111M 16117  16146  16191M 16192M 16193M 16194M 16204U 16238U 16295M 16296B 16354M
             16385  16386M 16387M 16388M 16389M 16389  16390M 16390  16444  16445  16586M 16587B 16671  16672M 16673M
             16674M 16675M 16675  16676M 16676  17053M 17054M 17055M 17056M 17066U 17100U 17183M 17184B 17231M 17262
             17263M 17264M 17265M 17266M 17266  17267M 17267  17343  17344  17494  17495M 17496M 17497M 17498M 17498
             17499M 17499  17561M 17562B 17633  17634M 17635M 17636M 17637M 17637  17638M 17638  17755M 17756B 17852M
             17862U 17875U 17892M 17893B 17980M 17981B 18033M 18034B 18050M 18051B 18077M 18108  18109  18274M 18275B
             18294M 18345  18346  18456M 18457B 18463M 18464B 18482M 18483B 18528M 18529B 18595M 18596B 18671M 18672B
             18746M 18756M 18771  18778M 18779  18780M 18780  18781  18782  18836M 18837B 18878M 18879B 18912M 18913B
             19042M 19043B 19158M 19159B 19198M 19208U 19222U 19240M 19241B 19287M 19288B 19320M 19321B 19372M 19373B
             19404M 19405B 19431M 19493  19494  19700M 19701B 19973M 19974B 20055M 20056M 20062M 20238M 20239B 20331M
             20332B 20485M 20486B 20563M 20594  20595M 20596M 20597M 20598M 20598  20599M 20599  20650  20651  20842M
             20861M 20876  20883M 20884  20891M 20891  20904  20905  20906  21113M 21132M 21147  21154M 21155  21162M
             21162  21175  21176  21177  21467M 21494  21495M 21496M 21497M 21498M 21498  21499M 21499  21549  21550
             21724M 21734M 21749  21756M 21757  21758M 21758  21759  21760  21817M 21827M 21842  21848M 21849  21856
             21857M 21857  21858  21859  22037M 22038B 22109M 22168  22169  22308  22309M 22310M 22311M 22312M 22312
             22313M 22313  22413M 22414B 22482M 22483B 22568  22569M 22570M 22571M 22572M 22572  22573M 22573  22726M
             22727B 22771M 22781U 22795U 22870M 22871B 22932M 22933B 22992M 23002U 23037U 23126M 23127B 23146M 23147B
1         (PAGE00) (09:42) (22MAR04) General Purpose Register Cross Reference                                               Page  542
             23185M 23188  23191M 23212M 23213B 23317M 23318B 23377M 23378B 23463M 23464B 23496M 23527  23528  23644M
             23645B 23768M 23769B 23794M 23795B 23824M 23854  23855M 23856M 23857M 23858M 23858  23859M 23859  23947
             23948  24104M 24105B 24180M 24181B 24292M 24293B 24350M 24360M 24375  24381M 24382  24389  24390M 24390
             24391  24392  24400M 24410U 24424U 24441M 24442B 24482M 24483B 24676M 24686M 24701  24707M 24708  24715
             24716M 24716  24717  24718  24893M 24903M 24918  24924M 24925  24932  24933M 24933  24934  24935  24991M
             24992B 25075M 25076B 25120M 25121B 25397M 25398B 25421M 25422B 25706M 25725M 25740  25747M 25748  25755M
             25755  25768  25769  25770  25807  25808M 25809M 25810M 25811M 25811  25812M 25812  25914M 25915B 25994M
             25995B 26057M 26058B 26197M 26198B 26250M 26251B 26265M 26266B 26291M 26322  26323M 26324M 26325M 26326M
             26326  26327M 26327  26376  26377  26558M 26559  26674  26675M 26676M 26677M 26678M 26678  26679M 26679
             26833M 26834B 26889M 26920  26921M 26922M 26923M 26924M 26924  26925M 26925  26956  26957  27029  27030M
             27031M 27032M 27033M 27033  27034M 27034  27192M 27193B 27279  27280M 27281M 27282M 27283M 27283  27284M
             27284  27384M 27385B 27493M 27494B 27549M 27550B 27582M 27583B 27620M 27699  27700  27901M 27902B 28049M
             28050B 28198M 28199M 28203  28241M 28242B 28372M 28373B 28875M 28876M 28877M 28878  28888  28891M 28892M
             28893M 28894M 28904U 28920U 29196M 29197M 29215  29241M 29242M 29243M 29244  29261M 29262M 29263M 29264
             29274  29275M 29276M 29277M 29278M 29288U 29344U 29563M 29564B 29671M 29672B 29760M 29761B 29836M 29837B
             29938M 29939B 29991M 29992B 30022M 30076  30077M 30078M 30079M 30080M 30080  30081M 30081  30140  30141
             30309M 30310B 30439M 30440B 30528M 30529B 30620M 30621B 30664M 30665B 30696M 30697B 30723M 30802  30803
             30958M 30977M 30992  30999M 31000  31007M 31007  31020  31021  31022  31148  31149M 31150M 31151M 31152M
             31152  31153M 31153  31215M 31234M 31249  31256M 31257  31264M 31264  31277  31278  31279  31540M 31586
             31587  31850M 31851B 31936M 31937B 31978M 32048  32049  32174M 32175B 32255M 32256B 32322M 32323B 32376M
             32406  32407M 32408M 32409M 32410M 32410  32411M 32411  32472  32473  32610  32611M 32612M 32613M 32614M
             32614  32615M 32615  32658M 32659B 32744M 32745B 32827M 32828B 32859M 32927  32928  33108M 33109B 33226M
             33227B 33863M 33864B 34063M 34064B 34240M 34241B 34263M 34264M 34264  34279U 34292U 34335  34341M 34342B
             34425M 34426B 34585M 34586M 34587M 34588M 34598U 34632U 34673M 34674B 35004M 35005B 35057M 35058B 35088M
             35120  35121M 35122M 35123M 35124M 35124  35125M 35125  35156  35157M 35158M 35159M 35160M 35160  35161M
             35161  35229  35230  35425M 35426B 35526M 35527B 35583M 35584B 35693M 35694B 35746M 35747B 35777M 35808
             35809M 35810M 35811M 35812M 35812  35813M 35813  35845  35846  36041M 36042B 36212M 36213B 36280M 36281B
             36389M 36390B 36442M 36443B 36474M 36504  36505  36695M 36696B 36796M 36797B 36822M 36823M 36824M 36825M
             36835U 36852U 36962M 36963B 37015M 37016B 37046M 37077  37078M 37079M 37080M 37081M 37081  37082M 37082
             37114  37115  37310M 37311B 37390M 37391M 37392M 37393M 37403U 37437U 37536M 37537B 37589M 37590B 37621M
             37671  37672  37876M 37886M 37901  37907M 37908  37915  37916M 37916  37917  37918  38016M 38063  38064
             38285M 38295M 38310  38316M 38317  38324  38325M 38325  38326  38327  38440M 38470  38471  38529M 38530B
             38545M 38566  38567  38725  38726M 38727M 38728M 38729M 38729  38730M 38730  38779M 38780B 38839M 38840B
             38875M 38876B 38901M 38922  38923  39081  39082M 39083M 39084M 39085M 39085  39086M 39086  39135M 39136B
             39195M 39196B 39232M 39233B 39258M 39291  39292  39350M 39351B 39355M 39356B 39372M 39403  39404  39462M
             39463B 39478M 39511  39512  39570M 39571B 39586M 39732  39733  40021M 40022B 40132M 40133B 40341D 40343M
             40343  40344M 40345U 40346M 40373  40636M 40637B 40691M 40692B 40759M 40760B 40861M 40862B 40914M 40915B
             40946M 40977  40978M 40979M 40980M 40981M 40981  40982M 40982  41062  41063  41284M 41285B 41404M 41405B
             41492M 41493B 41793M 41794B 41848M 41849B 41916M 41917B 42014M 42015B 42067M 42068B 42098M 42128  42129M
             42130M 42131M 42132M 42132  42133M 42133  42190  42191  42415M 42416B 42526M 42527B 42631M 42641U 42647M
             42654U 42660U 42689M 42690B 42868  42869M 42870M 42871M 42872M 42872  42873M 42873  42954M 42955B 43045M
             43046B 43055M 43056M 43057M 43058M 43068U 43102U 43166M 43167B 43280M 43281B 43335M 43336B 43403M 43404B
             43505M 43506B 43558M 43559B 43590M 43621  43622M 43623M 43624M 43625M 43625  43626M 43626  43690  43691
             43880M 43881B 43992M 43993B 44268M 44269B 44321M 44322B 44392M 44393B 44448M 44449B 44485M 44486B 44572M
             44573B 44642M 44643B 44715M 44725U 44754U 44761M 44762B 44842M 44843B 44930M 44931M 44932M 44933M 44943U
             44960U 45028M 45029B 45136M 45137B 45205M 45206M 45207M 45208  45264M 45265B 45411M 45412B 45464M 45465B
             45494M 45495B 45532M 45562  45563M 45564M 45565M 45566M 45566  45567M 45567  45625  45626  45850M 45851B
             45961M 45962B 46196  46197M 46198M 46199M 46200M 46200  46201M 46201  46282M 46283B 46373M 46374B 46383M
             46384M 46385M 46386M 46396U 46430U 46526M 46527B 46636M 46637B 46691M 46692B 46759M 46760B 46861M 46862B
             46914M 46915B 46946M 46977  46978M 46979M 46980M 46981M 46981  46982M 46982  47039  47040  47213M 47214B
             47496M 47497B 47549M 47550B 47581M 47611  47612M 47613M 47614M 47615M 47615  47616M 47616  47646  47647
             47740M 47798  47799  47937M 47938B 47985M 48035  48036  48369M 48370B 48426M 48427B 48518M 48519B 48561M
             48571M 48586  48592M 48593  48600  48601M 48601  48602  48603  48693M 48694B 48849M 48850B 48873M 48874B
             49021M 49022B 49246M 49247B 49350M 49351B 49368M 49369B 49443M 49444B 49478M 49509  49510M 49511M 49512M
             49513M 49513  49514M 49514  49546  49547  49707M 49708B 49870M 49871B 50011M 50012B 50064M 50065B 50103M
             50135  50136  50296M 50297B 50449M 50450B 50502M 50503B 50567M 50568B 50640M 50641B 50683M 50693M 50708
             50714M 50715  50722  50723M 50723  50724  50725  50815M 50816B 50876M 50877B 50884M 50885B 50934M 50935B
             50967M 50968B 51039M 51040B 51103M 51104B 51162M 51233  51234  51441  51442M 51443M 51444M 51445M 51445
             51446M 51446  51501M 51502B 51672  51673M 51674M 51675M 51676M 51676  51677M 51677  51696M 51697  51739M
1         (PAGE00) (09:42) (22MAR04) General Purpose Register Cross Reference                                               Page  543
             51740B 51805M 51806B 51980  51981M 51982M 51983M 51984M 51984  51985M 51985  52021M 52022M 52023M 52024M
             52034U 52040M 52047U 52049M 52050  52084M 52085B 52237M 52238B 52361  52362M 52363M 52364M 52365M 52365
             52366M 52366  52405M 52518  52519  52636M 52637B 52796M 52815M 52830  52837M 52838  52845M 52845  52858
             52859  52860  52881M 52882B 52959M 52960B 53018M 53025  53027M 53047M 53057U 53070U 53113M 53114B 53206M
             53207B 53235M 53236B 53330M 53331B 53347M 53348B 53387M 53397M 53412  53419M 53420  53421M 53421  53422
             53423  53705  53706M 53707M 53708M 53709M 53709  53710M 53710  53856M 53857B 53926M 53927B 53966M 53976M
             53991  53998M 53999  54000M 54000  54001  54002  54163M 54164B 54247M 54248B 54277M 54278B 54304M 54305B
             54489M 54508M 54523  54530M 54531  54538M 54538  54551  54552  54553  54584M 54585M 54586  54606M 54616U
             54630U 54649M 54650B 54779  54780M 54781M 54782M 54783M 54783  54784M 54784  54904M 54936  54937  55133M
             55143M 55158  55164M 55165  55172  55173M 55173  55174  55175  55213M 55214B 55293M 55301  55302M 55322M
             55332U 55346U 55371M 55374  55377M 55473M 55474B 55504M 55534  55535M 55536M 55537M 55538M 55538  55539M
             55539  55587  55588  55704M 55705B 55771  55772M 55773M 55774M 55775M 55775  55776M 55776  55839M 55840B
             55907M 55908B 56046M 56047B 56092M 56093B 56130M 56166  56167  56283M 56284B 56350  56351M 56352M 56353M
             56354M 56354  56355M 56355  56419M 56420B 56487M 56488B 56530M 56531B 56556M 56608  56609  56718M 56719B
             56752M 56753B 56815M 56816B 56851  56852M 56853M 56854M 56855M 56855  56856M 56856  56894M 56897  56900M
             56931M 56932B 56952M 56983  56984  57100M 57101B 57157M 57158B 57193  57194M 57195M 57196M 57197M 57197
             57198M 57198  57241M 57242B 57263M 57316  57317  57468  57469M 57470M 57471M 57472M 57472  57473M 57473
             57543  57544M 57545M 57546M 57547M 57547  57548M 57548  57607M 57641  57642  57724  57725M 57726M 57727M
             57728M 57728  57729M 57729  57842M 57891M 57891  57905M 58012  58013M 58014M 58015M 58016M 58016  58017M
             58017  58062M 58079M 58173M 58174M 58180M 58210M 58218  58219M 58257  58258M 58259M 58260M 58261M 58261
             58262M 58262  58284  58354M 58386  58387  58469  58470M 58471M 58472M 58473M 58473  58474M 58474  58559M
             58564M 58599M 58607  58608M 58640  58641M 58642M 58643M 58644M 58644  58645M 58645  58667  58732M 58791
             58792  58908M 58909B 59061M 59062B 59116M 59117B 59155M 59156B 59184M 59185B 59327  59328M 59329M 59330M
             59331M 59331  59332M 59332  59398M 59399B 59455M 59458  59461M 59492M 59493B 59515M 59564  59565  59681M
             59682B 59736  59737M 59738M 59739M 59740M 59740  59741M 59741  59803M 59804B 59861  59862M 59863M 59864M
             59865M 59865  59866M 59866  59933M 59936  59939M 59970M 59971B 59993M 60026  60027  60214M 60215B 60249M
             60250B 60322M 60323B 60356M 60388  60389  60520M 60521B 60620M 60621B 60647M 60698  60699  60900M 60901B
             60992M 60993B 61038M 61039B 61040M 61041M 61042  61084M 61085B 61140M 61170  61171  61311M 61423  61424
             61654M 61655B 61737M 61738B 61776M 61777B 61838M 61839B 61877M 61878B 61932M 61933B 61992M 61993B 62067M
             62068B 62131M 62132B 62167M 62199  62200  62411M 62412B 62487M 62488B 62538M 62539B 62600M 62659  62660
             62887M 62906M 62921  62928M 62929  62936M 62936  62949  62950  62951  62979M 62980B 63065M 63066B 63122M
             63172  63173  63315M 63316B 63394M 63395B 63477M 63527  63528  63703M 63749  63750  63885M 63935  63936
             64056M 64057B 64117M 64118B 64202M 64203B 64269M 64270B 64301M 64350  64351  64430M 64431B 64540M 64598
             64599  64924M 64925B 64985M 65004M 65019  65026M 65027  65034M 65034  65047  65048  65049  65071M 65072B
             65152M 65153B 65218M 65219M 65220  65240M 65250U 65264U 65286M 65287B 65461M 65462B 65519M 65538M 65553
             65560M 65561  65568M 65568  65581  65582  65583  65709M 65710M 65711  65731M 65741U 65755U 65777M 65778B
             65797M 65798B 65808M 65809B 65832M 65883  65884  66016M 66017B 66286M 66287B 66312M 66412  66413  66565M
             66566B 66741M 66821M 66910  66911M 66912M 66913M 66914M 66914  66915M 66915  66991M 66992  67030M 67031B
             67110M 67120M 67135  67141M 67142  67149  67150M 67150  67151  67152  67270M 67271M 67274M 67275M 67277
             67330M 67340M 67355  67361M 67362  67369  67370M 67370  67371  67372  67446M 67490  67543M 67553M 67568
             67574M 67575  67582  67583M 67583  67584  67585  67652M 67653M 67654M 67655  67668M 67683M 67753M 67754B
             67772M 67785U 67798U 67911M 67912B 67918M 67920M 67923M 67924M 67926  67927M 67929  67933M 68014M 68136
             68174M 68175B 68176M 68194M 68417M 68418B 68646M 68647  68648  68655M 68656  68657  68756M 68775M 68790
             68797M 68798  68805M 68805  68818  68819  68820  69054M 69055B 69130M 69131B 69157M 69188  69189M 69190M
             69191M 69192M 69192  69193M 69193  69224  69225M 69226M 69227M 69228M 69228  69229M 69229  69313  69314
             69436M 69437B 69488M 69489  69490  69548M 69549B 69577M 69578B 69667M 69668B 69708M 69709B 70060M 70061B
             70118M 70119B 70185M 70186B 70191M 70197M 70252M 70253B 70301M 70364M 70427M 70490M 70574M 70663M 70753M
             70824M 70891M 70977M 71063M 71161M 71246M 71331M 71416M 71486M 71559M 71667M 71752M 71860M 71861B 71904M
             71905  71906M 71912  71936  71984M 71985B 72012M 72013M 72014  72066M 72067B 72123M 72124B 72178M 72179B
             72199M 72220  72221  72248M 72349  72350  72534M 72535B 72712M 72722U 72751U 72758M 72759B 72849M 72850B
             72895  72896M 72897M 72898M 72899M 72899  72900M 72900  72957M 73025  73026  73159M 73160B 73222M 73223B
             73270M 73271B 73337M 73338B 73349M 73350B 73387M 73388B 73451M 73452B 73505M 73506B 73544M 73545B 73570M
             73635  73636  73885M 73958M 73959B 74065M 74065  74066M 74067M 74139  74140M 74141M 74142M 74143M 74143
             74144M 74144  74242M 74243B 74366M 74367B 74469M 74470B 74550M 74551B 74620M 74621B 74690M 74691B 74760M
             74761B 74770M 74808M 74809B 74900M 74901B 74978M 74979B 75044M 75045B 75114M 75115B 75124M 75188M 75189B
             75302M 75303B 75426M 75427B 75529M 75530B 75610M 75611B 75680M 75681B 75750M 75751B 75820M 75821B 75830M
             75868M 75869B 75960M 75961B 76038M 76039B 76104M 76105B 76174M 76175B 76184M 76248M 76249B 76319M 76320B
             76325M 76331M 76418M 76555M 76556B 76658M 76659B 76732M 76733B 76742M 76766  76767M 76768M 76769M 76770M
             76770  76771M 76771  76939M 76940B 76990M 76991B 77040M 77071  77072M 77073M 77074M 77075M 77075  77076M
1         (PAGE00) (09:42) (22MAR04) General Purpose Register Cross Reference                                               Page  544
             77076  77123  77124  77337M 77338B 77410M 77490M 77491B 77597M 77597  77598M 77599M 77671  77672M 77673M
             77674M 77675M 77675  77676M 77676  77772M 77773B 77897M 77898B 78000M 78001B 78081M 78082B 78151M 78152B
             78221M 78222B 78291M 78292B 78301M 78339M 78340B 78431M 78432B 78509M 78510B 78575M 78576B 78645M 78646B
             78655M 78719M 78720B 78846M 78847B 78949M 78950B 79023M 79024B 79033M 79071M 79072B 79163M 79164B 79241M
             79242B 79307M 79308B 79377M 79378B 79387M 79451M 79452B 79565M 79566B 79689M 79690B 79792M 79793B 79873M
             79874B 79943M 79944B 80013M 80014B 80083M 80084B 80093M 80131M 80132B 80223M 80224B 80301M 80302B 80367M
             80368B 80437M 80438B 80447M 80511M 80512B 80525M 80531M 80532  80533  80535  80581M 80582B 80587M 80593M
             80690M 80827M 80828B 80930M 80931B 81004M 81005B 81014M 81038  81039M 81040M 81041M 81042M 81042  81043M
             81043  81089M

1PAGESERV (PAGE00) (09:42) (22MAR04) Diagnostic Cross Reference and Assembler Summary                                       Page  545
-                                                                                            HLASM R4.0  2004/03/22 09.42
0     No Statements Flagged in this Assembly
 HIGH LEVEL ASSEMBLER, 5696-234, RELEASE 4.0, PTF UQ57391
0SYSTEM: OS/390 02.10.00            JOBNAME: PJG#PAGE    STEPNAME: ASM        PROCSTEP: (NOPROC)
0Datasets Allocated for this Assembly
  Con DDname   Dataset Name                                 Volume  Member
   P1 SYSIN    SYS04082.T094248.RA000.PJG#PAGE.INPUT.H01    SCR100
   L1 SYSLIB   SYS3.DUMMYMAC                                SYSB02
   L2          WYL.GG.ORV.MACLIB                            SYSB02
   L3          WYL.GG.SYS.MACLIB                            SYSB05
      SYSLIN   WYL.GG.PJG.OBJ                               SYSB05  PAGESERV
      SYSPRINT SYS04082.T094248.RA000.PJG#PAGE.PRINT.H01    SCR100
      SYSTERM  GG$PJG.PJG#PAGE.JOB05954.D0000103.?

    7812K allocated to Buffer Pool,         9501K would be required for this to be an In-Storage Assembly
   10765 Primary Input Records Read         6984 Library Records Read                320 Work File Reads
       0 ASMAOPT Records Read              42090 Primary Print Records Written       426 Work File Writes
     897 Punch Records Written                 0 ADATA Records Written
0Assembly Start Time: 09.42.52 Stop Time: 09.43.28 Processor Time: 00.00.17.6632
 Return Code 000
