1DISPATCH (DISP00) (09:38) (22MAR04) Miscellaneous Global Info/Control Routines                                             Page  292
0Current Usings:  (PZERO,R0) (DCT,R6) (MAT,R7) (RDPARMS,R10) (RDPWA-72,R12)
0Loc    Object Code    Addr1 Addr2  Stmt Lv Lineno    Source Statement           (Hibal 5, Asmedit 3.3)  HLASM R4.0  2004/03/22 09.38
+___    ______ ____    _____ _____  ____ __ ______    ______ _________
0005824                            37668    6724.              END   ,
                                   37672    6725.     *
                                   37673    6726.     * Get the working set interval
                                   37674    6727.     *
 005824 9204 C048      00000       37675    6728.              GETPARM2 KEY=(DISPATCH,WSINT),REGS=(RA,RJ)
 005828 D207 C04C A160 00004 05938 37682             +
 00582E D207 C054 A168 0000C 05940 37683             +
 005834 4140 C048            00000 37690             +
 005838 4150 0014            00014 37697             +
 00583C 83240016                   37700             +
 005840 4770 A07C            05854 37701    6729.              IF    Z,BEGIN                 It was specified
 005844 1832                       37712  1 6730.                LR    RB,RA                   Get the value (in millseconds)
 005846 1B22                       37713  1 6731.                CLEAR RA
 005848 4C30 A1A4            0597C 37717  1 6732.                MH    RB,=Y(1000)             Convert to microseconds
 00584C 8D20 000C            0000C 37718  1 6733.                SLDL  RA,12                   Convert to TOD
 005850 9023 6018            00018 37719  1 6734.                STM   RA,RB,DCTWSIN           Save it away
 005854                            37720    6735.              END   ,
                                   37724    6736.     *
                                   37725    6737.     * Get the working set size limit
                                   37726    6738.     *
 005854 9204 C048      00000       37727    6739.              GETPARM2 KEY=(,WSLIMIT),REGS=(RA,RJ)
 005858 D207 C054 A170 0000C 05948 37734             +
 00585E 4140 C048            00000 37741             +
 005862 4150 0014            00014 37748             +
 005866 83240016                   37751             +
 00586A 4770 A09A            05872 37752    6740.              IF    Z,BEGIN                 It was specified
 00586E 5020 6014            00014 37763  1 6741.                ST    RA,DCTWSLM              Save the limit
 005872                            37764    6742.              END   ,
                                   37768    6743.     *
                                   37769    6744.     *  Read our trace parameters
                                   37770    6745.     *
 005872 1B11                       37771    6746.              CLEAR RS                      Default to no tracing
 005874 9208 C048      00000       37775    6747.              GETPARM2 RDPSTR,KEY=(,TRACE,BRANCH),TYPE=YESNO,REGS=(RA,RJ)
 005878 D207 C054 A178 0000C 05950 37782             +
 00587E D207 C05C A180 00014 05958 37783             +
 005884 4120 C060            00018 37790             +
 005888 4130 0014            00014 37797             +
 00588C 4140 C048            00000 37804             +
 005890 4150 001C            0001C 37811             +
 005894 83240016                   37814             +
 005898 4770 A0D0            058A8 37815    6748.              IF    Z,BEGIN                 Specified
 00589C 95E8 C060      00018       37826  1 6749.                IF    ('CLI RDPSTR,C"Y"',EQ),BEGIN
 0058A0 4770 A0D0            058A8 37834  1          +
 0058A4 5610 A198            05970 37839  2 6750.                  O     RS,=A(TRCBRANCH)        Branch tracing
 0058A8                            37840  1 6751.                END   ,
 0058A8                            37844    6752.              END   ,                       OF Specified
 0058A8 9208 C048      00000       37848    6753.              GETPARM2 RDPSTR,KEY=(,TRACE,EXPLICIT),TYPE=YESNO,REGS=(RA,RJ)
 0058AC D207 C054 A178 0000C 05950 37855             +
 0058B2 D207 C05C A188 00014 05960 37856             +
 0058B8 4120 C060            00018 37863             +
 0058BC 4130 0014            00014 37870             +
 0058C0 4140 C048            00000 37877             +
 0058C4 4150 001C            0001C 37884             +
 0058C8 83240016                   37887             +
1DISPATCH (DISP00) (09:38) (22MAR04) Miscellaneous Global Info/Control Routines                                             Page  293
0Current Usings:  (PZERO,R0) (DCT,R6) (MAT,R7) (RDPARMS,R10) (RDPWA-72,R12)
0Loc    Object Code    Addr1 Addr2  Stmt Lv Lineno    Source Statement           (Hibal 5, Asmedit 3.3)  HLASM R4.0  2004/03/22 09.38
+___    ______ ____    _____ _____  ____ __ ______    ______ _________
00058CC 4770 A104            058DC 37888    6754.              IF    Z,BEGIN                 Specified
 0058D0 95E8 C060      00018       37899  1 6755.                IF    ('CLI RDPSTR,C"Y"',EQ),BEGIN
 0058D4 4770 A104            058DC 37907  1          +
 0058D8 5610 A19C            05974 37912  2 6756.                  O     RS,=A(TRCEXPL)          Explicit tracing
 0058DC                            37913  1 6757.                END   ,
 0058DC                            37917    6758.              END   ,                       OF Specified
 0058DC 9208 C048      00000       37921    6759.              GETPARM2 RDPSTR,KEY=(,TRACE,ASN),TYPE=YESNO,REGS=(RA,RJ)
 0058E0 D207 C054 A178 0000C 05950 37928             +
 0058E6 D207 C05C A190 00014 05968 37929             +
 0058EC 4120 C060            00018 37936             +
 0058F0 4130 0014            00014 37943             +
 0058F4 4140 C048            00000 37950             +
 0058F8 4150 001C            0001C 37957             +
 0058FC 83240016                   37960             +
 005900 4770 A138            05910 37961    6760.              IF    Z,BEGIN                 Specified
 005904 95E8 C060      00018       37972  1 6761.                IF    ('CLI RDPSTR,C"Y"',EQ),BEGIN
 005908 4770 A138            05910 37980  1          +
 00590C 5610 A1A0            05978 37985  2 6762.                  O     RS,=A(TRCASN)           Branch tracing
 005910                            37986  1 6763.                END   ,
 005910                            37990    6764.              END   ,                       OF Specified
                                   37994    6765.
 005910 5010 61B4            001B4 37995    6766.              ST    RS,DCTTRMSK             Save mask
 005914 981F C008            00008 37996    6767.              PEND  ,
 DROP   DCT,R6
 DROP   MAT,R7
 DROP   RDPWA-72,R12
 DROP   RDPARMS,R10
 005918 9680 C000/0B0E 00000       38021             +
1DISPATCH (DISP00) (09:38) (22MAR04) Miscellaneous Global Info/Control Routines                                             Page  294
0Current Usings:  (PZERO,R0)
0Loc    Object Code    Addr1 Addr2  Stmt Lv Lineno    Source Statement           (Hibal 5, Asmedit 3.3)  HLASM R4.0  2004/03/22 09.38
+___    ______ ____    _____ _____  ____ __ ______    ______ _________
0005920                            38028    6769.              LTORG ,
 005920 FFFFFFFFFFFFFFFF           38030                             =X'FFFFFFFFFFFFFFFF'
 005928 0000000000000001           38031                             =X'0000000000000001'
 005930 E2E8E2D5C1D4C540           38032                             =CL8'SYSNAME'
 005938 C4C9E2D7C1E3C3C8           38033                             =CL8'DISPATCH'
 005940 E6E2C9D5E3404040           38034                             =CL8'WSINT'
 005948 E6E2D3C9D4C9E340           38035                             =CL8'WSLIMIT'
 005950 E3D9C1C3C5404040           38036                             =CL8'TRACE'
 005958 C2D9C1D5C3C84040           38037                             =CL8'BRANCH'
 005960 C5E7D7D3C9C3C9E3           38038                             =CL8'EXPLICIT'
 005968 C1E2D54040404040           38039                             =CL8'ASN'
 005970 80000000                   38040                             =A(TRCBRANCH)
 005974 00000001                   38041                             =A(TRCEXPL)
 005978 00000002                   38042                             =A(TRCASN)
 00597C 03E8                       38043                             =Y(1000)
 00597E 40             0597F 05F38 38044                             =C' '
1DISPATCH (DISP00) (09:38) (22MAR04) Initialization                                                                         Page  295
0Current Usings:  (PZERO,R0)
0Loc    Object Code    Addr1 Addr2  Stmt Lv Lineno    Source Statement           (Hibal 5, Asmedit 3.3)  HLASM R4.0  2004/03/22 09.38
+___    ______ ____    _____ _____  ____ __ ______    ______ _________
0DROP   PZERO,R0                   38049    6771.              DROP  R0
 USING  IPL.PZERO,R0               38057    6772.     IPL      USING PZERO,R0
                                   38061    6773.     *****************************************************************
                                   38062    6774.     *                                                               *
                                   38063    6775.     * DISPINIT --  This routine is the entry point of the guest     *
                                   38064    6776.     *              portion of ORVYL.  It is called from the IPL     *
                                   38065    6777.     *              text.  It in turn calls those routines necessary *
                                   38066    6778.     *              to set up the system for business.               *
                                   38067    6779.     *                                                               *
                                   38068    6780.     *   Input  --  @IPLPARM                                         *
                                   38069    6781.     *                                                               *
                                   38070    6782.     *  Output  --  none                                             *
                                   38071    6783.     *                                                               *
                                   38072    6784.     *****************************************************************
-005980                            38074    6786.     DISPINIT PROC  @IPLPARM,SCOPE=GLOBAL
 005980 C4C9E2D7C9D5C9E3           38080             +
 005988 0018/0000                  38081             +
 00598C 900F D004/18AF       00004 38083             +
 USING  DISPINIT,R10
 005992 50D0 C000/18CD       00000 38098             +
 005998 9680 C000      00000       38100             +
 USING  @IPLPARM-72,R12
 00599C 41D0 C060            00060 38114             +
                                   38115    6787.     *
                                   38116    6788.     * Set up the virtual memory. That way when I need to get
                                   38117    6789.     * some memory, it will all be accounted for.  We have to inform
                                   38118    6790.     * him on the call of things that have already been allocated by
                                   38119    6791.     * the ipltext.  It will allocate the master address table (MAT)
                                   38120    6792.     * and store its address in PZERO.
                                   38121    6793.     *
                                   38122    6794.     *        NOTE:  Any interrupts that happen will be handled by the
                                   38123    6795.     *               IPLTEXT.  Page faults will be resolved automatically.
                                   38124    6796.     *
 USING  @VMIPARM-72,R13            38125    6797.              PSET  @VMIPARM                Set up the parm area
 0059A0 D713 D048 D048 00000 00000 38142             +
 0059A6 D203 D048 C048 00000 00000 38143    6798.              MVC   @VMIKLOC,@IPLKLOC       Kernel
 0059AC D203 D04C C04C 00004 00004 38144    6799.              MVC   @VMIKLEN,@IPLKLEN
 0059B2 D203 D050 C050 00008 00008 38145    6800.              MVC   @VMIMLOC,@IPLMLOC       Map
 0059B8 D203 D054 C054 0000C 0000C 38146    6801.              MVC   @VMIMLEN,@IPLMLEN
 0059BE D203 D058 C058 00010 00010 38147    6802.              MVC   @VMISLOC,@IPLSLOC       V=R stack area
 0059C4 58F0 A4FC/0DEF       05E88 38148    6803.              VCALL VMINIT1                 Init all that junk
 0059CA 1820                       38152    6804.              LR    RA,RVR                  Save the Address space size
 0059CC 58F0 A500/0DEF       05E8C 38153    6805.              VCALL LKINIT                  Initialize the lock manager
 0059D2 58F0 A504/0DEF       05E90 38157    6806.              VCALL IOSINIT                 Initialize the I/O supervisor
                                   38161    6807.     *
                                   38162    6808.     * Start the initialization of the dispatcher.
                                   38163    6809.     *
 0059D8 58F0 A508/0DEF       05E94 38164    6810.              ACALL INITDIS1                Allocate CBs, etc.
 0059DE 1830                       38171    6811.              LR    RB,RVR                  Address of the Global ASB
                                   38172    6812.     *
                                   38173    6813.     * Initialize the paging system
                                   38174    6814.     *
1DISPATCH (DISP00) (09:38) (22MAR04) Initialization                                                                         Page  296
0Current Usings:  (IPL.PZERO,R0) (DISPINIT,R10) (@IPLPARM-72,R12) (@PAGINIT-72,R13)
0Loc    Object Code    Addr1 Addr2  Stmt Lv Lineno    Source Statement           (Hibal 5, Asmedit 3.3)  HLASM R4.0  2004/03/22 09.38
+___    ______ ____    _____ _____  ____ __ ______    ______ _________
0DROP   @VMIPARM-72,R13            38175    6815.              PSET  @PAGINIT
 USING  @PAGINIT-72,R13
 0059E0 D707 D048 D048 00000 00000 38195             +
 0059E6 5020 D04C            00004 38196    6816.              ST    RA,@PAGIMEG             Size of the Workspace
 0059EA 5030 D048            00000 38197    6817.              ST    RB,@PAGIASB             Address of the ASB
 0059EE 58F0 A50C/0DEF       05E98 38198    6818.              VCALL PAGINIT                 Call the paging system
 0059F4 58F0 A510/0DEF       05E9C 38202    6819.              VCALL VMINIT2                 Finish the virtual memory
                                   38206    6820.     *
                                   38207    6821.     ** IMPORTANT NOTE :  No page faults must occur after this until the
                                   38208    6822.     *                    interrupt PSWs belong to us.
                                   38209    6823.     *
                                   38210    6824.     * Finish initializing the dispatcher
                                   38211    6825.     *
 0059FA 58F0 A514/0DEF       05EA0 38212    6826.              ACALL INITDIS2                Doesn't return
 005A00 981F C008            00008 38219    6827.              PEND                          Never executed
 DROP   @IPLPARM-72,R12
 DROP   DISPINIT,R10
 005A04 9680 C000/0B0E 00000       38234             +
 DROP   @PAGINIT-72,R13
1DISPATCH (DISP00) (09:38) (22MAR04) Initialization                                                                         Page  297
0Current Usings:  (IPL.PZERO,R0)
0Loc    Object Code    Addr1 Addr2  Stmt Lv Lineno    Source Statement           (Hibal 5, Asmedit 3.3)  HLASM R4.0  2004/03/22 09.38
+___    ______ ____    _____ _____  ____ __ ______    ______ _________
0                                  38244    6829.     *****************************************************************
                                   38245    6830.     *                                                               *
                                   38246    6831.     * INITDIS1 --  This routine is called to set up the initial     *
                                   38247    6832.     *              stuff for the dispatcher.  It allocates all      *
                                   38248    6833.     *              storage needed between now and the time the CPU  *
                                   38249    6834.     *              is completely set up (PZERO that is).            *
                                   38250    6835.     *                                                               *
                                   38251    6836.     *   Input  --  none                                             *
                                   38252    6837.     *                                                               *
                                   38253    6838.     *  Output  --  RVR Contains the address of the Global ASB       *
                                   38254    6839.     *                                                               *
                                   38255    6840.     *****************************************************************
-005A0A                            38257    6842.     INITDIS1 PROC  SCOPE=LOCAL
 005A0A C9D5C9E3C4C9E2F1           38264             +
 005A12 0000/0000                  38265             +
 005A16 900F D004/18AF       00004 38267             +
 USING  INITDIS1,R10
 005A1C 50D0 C000/18CD       00000 38282             +
 005A22 9680 C000      00000       38284             +
 005A26 41D0 C048            00048 38285             +
                                   38286    6843.     *
                                   38287    6844.     * Set up a DCT
                                   38288    6845.     *
 USING  @VMGET-72,R13              38289    6846.              VMGET L'DCT,LOC=GLOBHI,FIX=YES
 005A2A D70A D048 D048 00000 00000 38313             +
 005A30 4100 01C0            001C0 38325             +
 005A34 5000 D048            00000 38330             +
 005A38 D201 D050 A4C6 00008 05EDC 38331             +
 005A3E 58F0 A48E/0DEF       05EA4 38334             +
 005A44 1860                       38336    6847.              LR    RX,RVR                  Copy the address
 USING  DCT,R6                     38337    6848.              WITH  (DCT,RX)
 005A46                            38350    6849.              CLEAR DCT
 005A46 D7FF 6000 6000 00000 00000 38356             +
 005A4C D7BF 6100 6100 00100 00100 38357             +
 005A52 D203 6000 A492 00000 05EA8 38358    6850.              MVC   DCT(4),=CL4'DCT'        Move in the ID
 005A58 5810 0200            00200 38359    6851.              L     RS,IPL.PZMATP           Get the MAT pointer
 005A5C 5060 1008            00008 38360    6852.              WITH  (MAT,RS),'ST RX,MATDCT' Save the address there
 USING  MAT,R1
 DROP   MAT,R1
 005A60 D227 6120 A23A 00120 05C50 38384    6853.              MVC   DCTSLICE(8*NUMPRIO),DEFSLICE
 005A66 D227 6148 A262 00148 05C78 38385    6854.              MVC   DCTSLCWT(8*NUMPRIO),DEFWAIT
 005A6C D207 6018 A28A 00018 05CA0 38386    6855.              MVC   DCTWSIN,DEFWSIN         WS interval
 005A72 D203 6014 A292 00014 05CA8 38387    6856.              MVC   DCTWSLM,DEFWSLM         WS size limit
 005A78 B205 6020      00020       38388    6857.              STCK  DCTSTIME                Time we started
 005A7C D201 60FC A4C8 000FC 05EDE 38389    6858.              MVC   DCTSWPRI,=H'-1'         Swap priority
                                   38390    6859.     *
                                   38391    6860.     * Set up some things in the MAT
                                   38392    6861.     *
 005A82 5810 0200            00200 38393    6862.              L     RS,IPL.PZMATP           Get the MAT pointer
 USING  MAT,R1                     38394    6863.              WITH  (MAT,RS),BEGIN
 005A86 D207 10D4 A43A 000D4 05E50 38408  1 6864.                MVC   MATSNAME,=CL8'TORVYL'   Default name
 DROP   MAT,R1                     38409    6865.              END   ,
1DISPATCH (DISP00) (09:38) (22MAR04) Initialization                                                                         Page  298
0Current Usings:  (IPL.PZERO,R0) (DCT,R6) (INITDIS1,R10) (@VMGET-72,R13)
0Loc    Object Code    Addr1 Addr2  Stmt Lv Lineno    Source Statement           (Hibal 5, Asmedit 3.3)  HLASM R4.0  2004/03/22 09.38
+___    ______ ____    _____ _____  ____ __ ______    ______ _________
0                                  38417    6866.     *
                                   38418    6867.     * Read any overriding input parms
                                   38419    6868.     *
 005A8C 58F0 A496/0DEF       05EAC 38420    6869.              ACALL RDPARMS
                                   38427    6870.     *
                                   38428    6871.     * Set up the System Address space
                                   38429    6872.     *
 DROP   @VMGET-72,R13              38430    6873.              PSET  @ACREATE
 USING  @ACREATE-72,R13
 005A92 D707 D048 D048 00000 00000 38450             +
 005A98 D203 D048 A49A 00000 05EB0 38451    6874.              MVC   @ACRPSW(4),=X'070C0000'
 005A9E D203 D04C A49E 00004 05EB4 38452    6875.              MVC   @ACRPSW+4(4),=V(SYSTASK)
 005AA4 9680 D04C      00004       38453    6876.              OI    @ACRPSW+4,X'80'         Enter in 31 bit mode
 005AA8 58F0 A4A2/0DEF       05EB8 38454    6877.              ACALL ACREATE
                                   38461    6878.     *
                                   38462    6879.     * Special fix up for the System task ASDB
                                   38463    6880.     *
 005AAE 1820                       38464    6881.              LR    RA,RVR                  ASB pointer is returned
 005AB0 5820 201C            0001C 38465    6882.              WITH  (ASB,RA),'L  RA,ASBASDB'    ASDB pointer
 USING  ASB,R2
 DROP   ASB,R2
 USING  ASDB,R2                    38489    6883.              WITH  (ASDB,RA),BEGIN
 005AB4 D207 2078 A442 00078 05E58 38503  1 6884.                MVC   ASDBWSIN,=FL8S12E3'50'  New working set interval
 DROP   ASDB,R2                    38504    6885.              END   ,
                                   38512    6886.     *
                                   38513    6887.     * Finally get the dispatch lock
                                   38514    6888.     *
 DROP   @ACREATE-72,R13            38515    6889.              LKCRE DISPATCH,TYPE=SPIN
 USING  @LOCKCRE-72,R13
 005ABA D710 D048 D048 00000 00000 38536             +
 005AC0 D20F D048 A44A 00000 05E60 38542             +
 005AC6 9680 D058      00010       38548             +
 005ACA 58F0 A4A6/0DEF       05EBC 38551             +
 005AD0 5000 6004            00004 38553    6890.              ST    RVR,DCTLOCK             Save the lock LOCATION
1DISPATCH (DISP00) (09:38) (22MAR04) Initialization                                                                         Page  299
0Current Usings:  (IPL.PZERO,R0) (DCT,R6) (INITDIS1,R10) (@LOCKCRE-72,R13)
0Loc    Object Code    Addr1 Addr2  Stmt Lv Lineno    Source Statement           (Hibal 5, Asmedit 3.3)  HLASM R4.0  2004/03/22 09.38
+___    ______ ____    _____ _____  ____ __ ______    ______ _________
0                                  38555    6892.     *
                                   38556    6893.     * Find out where the V=R stack area is and save the data in the DCT
                                   38557    6894.     *
 005AD4 183C                       38558    6895.              LR    RB,WAR                  Get our current stack
 005AD6 5430 A4AA            05EC0 38559    6896.              N     RB,=X'7FFFF000'         Start of the area
 005ADA 5030 61B8            001B8 38560    6897.              ST    RB,DCTVRST              Save the location
 005ADE D203 61BC A4AE 001BC 05EC4 38561    6898.              MVC   DCTVRLEN,=A(16*4096)    Initial length
                                   38562    6899.     *
                                   38563    6900.     * Generate the CPU information
                                   38564    6901.     *
 005AE4 4150 0010            00010 38565    6902.              LA    RK,16                   Maximum number of CPUs
 005AE8 1255/4780 A218       05C2E 38566    6903.              WHILE (RK,NZ),BEGIN
 005AEE 0650                       38582  1 6904.                DECR  RK                      CPU address is one less
 005AF0 1B22                       38584  1 6905.                CLEAR RA                      Clear status register
 005AF2 AE25 0001            00001 38588  1 6906.                SIGP  RA,RK,1                 Sense the status of the CPU
 005AF6 4710 A0D2            05AE8 38589  1 6907.                IF    O,NEXT                  Next if not op/busy
 005AFA 5420 A4B2            05EC8 38603  1 6908.                N     RA,=X'00000011'         Check stop/receiver check bits
 005AFE 4770 A0D2            05AE8 38604  1 6909.                IF    NZ,NEXT                 If on... don't bother with it
                                   38618  1 6910.     *
                                   38619  1 6911.     * Allocate an IPCB for this processor
                                   38620  1 6912.     *
 DROP   @LOCKCRE-72,R13            38621  1 6913.                VMGET L'IPCB,LOC=GLOBHI,FIX=YES
 USING  @VMGET-72,R13
 005B02 D70A D048 D048 00000 00000 38648  1          +
 005B08 4100 0011            00011 38660  1          +
 005B0C 5000 D048            00000 38665  1          +
 005B10 D201 D050 A4C6 00008 05EDC 38666  1          +
 005B16 58F0 A48E/0DEF       05EA4 38669  1          +
 005B1C 1840                       38671  1 6914.                LR    RJ,RVR                  Get its address
 USING  IPCB,R4                    38672  1 6915.                WITH  (IPCB,RJ)
 005B1E                            38685  1 6916.                CLEAR IPCB
 005B1E D710 4000 4000 00000 00000 38691  1          +
 005B24 D203 4000 A4B6 00000 05ECC 38692  1 6917.                MVC   IPCB(4),=C'IPCB'        Move in the IPCB ID
 005B2A 4050 400C            0000C 38693  1 6918.                STH   RK,IPCBCPUA             Save the CPU address
 005B2E D203 4004 6170 00004 00170 38694  1 6919.                MVC   IPCBNEXT,DCTIPCBS       Point this one at the queue
 005B34 5040 6170            00170 38695  1 6920.                ST    RJ,DCTIPCBS             And the header at this one
 005B38 1825                       38696  1 6921.                LR    RA,RK                   Copy the CPUA
 005B3A 8920 0002            00002 38697  1 6922.                SLL   RA,2                    Times 2
 005B3E 5042 6174            00174 38698  1 6923.                ST    RJ,DCTIPCBT(RA)         Put this IPCB in the table
                                   38699  1 6924.     *
                                   38700  1 6925.     * Allocate and initialize a prefix page for this processor
                                   38701  1 6926.     *
 005B42                            38702  1 6927.                VMGET LH:=Y(4096),LOC=GLOBHI,FIX=YES
 005B42 D70A D048 D048 00000 00000 38719  1          +
 005B48 4800 A4CA            05EE0 38726  1          +
 005B4C 5000 D048            00000 38731  1          +
 005B50 D201 D050 A4C6 00008 05EDC 38732  1          +
 005B56 58F0 A48E/0DEF       05EA4 38735  1          +
 005B5C 5000 4008            00008 38737  1 6928.                ST    RVR,IPCBPZ              Save the address
 005B60 1880                       38738  1 6929.                LR    RM,RVR                  Copy the address
 USING  PZERO,R8                   38739  1 6930.                WITH  (PZERO,RM)
                                   38752  1 6931.              $$USING PSA,PZERO+L'PZERO       Address it
 005B62 18E8/48F0 A4CA       05EE0 38753  1 6932.                ZOT   PZERO,LH:=Y(4096)       Zero the whole page
 005B68 1B11/0EE0                  38765  1          +
1DISPATCH (DISP00) (09:38) (22MAR04) Initialization                                                                         Page  300
0Current Usings:  (IPL.PZERO,R0) (IPCB,R4) (DCT,R6) (PZERO,R8) (INITDIS1,R10) (@VMGET-72,R13)
0Loc    Object Code    Addr1 Addr2  Stmt Lv Lineno    Source Statement           (Hibal 5, Asmedit 3.3)  HLASM R4.0  2004/03/22 09.38
+___    ______ ____    _____ _____  ____ __ ______    ______ _________
0005B6C D27F 8000 A29A 00000 05CB0 38767  1 6933.                MVC   PZERO(L'PZPAT),PZPAT    Move in the interrupt PSWs
 005B72 D207 82F8 A45A 00078 05E70 38768  1 6934.                MVC   PSAKDISP,=X'00FFFFFFFFFFFFFF'     Dispatch clock
 005B78 D207 8300 A45A 00080 05E70 38769  1 6935.                MVC   PSAKIOSV,=X'00FFFFFFFFFFFFFF'     I/O service clock
 005B7E D201 8308 A4CC 00088 05EE2 38770  1 6936.                MVC   PSAKCUR,=Y(PSAKDISP-PSA+L'PZERO)  Set to be dispatch
 005B84 4050 830A            0008A 38771  1 6937.                STH   RK,PSACPUA              CPU Address
 005B88 4050 8212            00212 38772  1 6938.                STH   RK,PZLCPUA+2            Save it in PZ too
 005B8C 9280 8210      00210       38773  1 6939.                MVI   PZLCPUA,X'80'           Make it a logical address
 005B90 5820 A4BA            05ED0 38774  1 6940.                L     RA,=X'80000000'         Get a bit for CPU 0
 005B94 8820 5000            00000 38775  1 6941.                SRL   RA,@RK                  Move it to get...
 005B98 5020 8214            00214 38776  1 6942.                ST    RA,PZCPUMSK             The CPU mask value
 005B9C D203 8200 0200 00200 00200 38777  1 6943.                MVC   PZMATP,IPL.PZMATP       Get the MAT pointer
                                   38778  1 6944.     *
                                   38779  1 6945.     * Get this CPU a stack
                                   38780  1 6946.     *
 005BA2 5830 61B8            001B8 38781  1 6947.                L     RB,DCTVRST              Get the start of the area
 005BA6 5030 8330            000B0 38782  1 6948.                ST    RB,PSADSTK              One page of V=R stack
 005BAA 4A30 A4CA            05EE0 38783  1 6949.                AH    RB,=Y(4096)             Get to the next page
 005BAE 5030 61B8            001B8 38784  1 6950.                ST    RB,DCTVRST              Save the new pointer
 005BB2 5830 61BC            001BC 38785  1 6951.                L     RB,DCTVRLEN             Get the length
 005BB6 4B30 A4CA            05EE0 38786  1 6952.                SH    RB,=Y(4096)             Update it
 005BBA 5030 61BC            001BC 38787  1 6953.                ST    RB,DCTVRLEN             And put the pointer back
                                   38788  1 6954.     *
                                   38789  1 6955.     * Save some other values in the page
                                   38790  1 6956.     *
 005BBE 5060 832C            000AC 38791  1 6957.                ST    RX,PSADCT               DCT pointer
 005BC2 5080 831C            0009C 38792  1 6958.                ST    RM,PSAPRFXV             Virtual prefix value
 005BC6 B120 8000            00000 38793  1 6959.                LRA   RA,PZERO                Get the real address
 005BCA 5020 8318            00098 38794  1 6960.                ST    RA,PSAPRFXR             Real prefix value
 005BCE 5040 8320            000A0 38795  1 6961.                ST    RJ,PSAIPCB              IPCB address
                                   38796  1 6962.     *
                                   38797  1 6963.     * Allocate some trace buffers
                                   38798  1 6964.     *
 005BD2                            38799  1 6965.                VMGET LH:=Y(4096),LOC=GLOBHI,FIX=YES    First buffer
 005BD2 D70A D048 D048 00000 00000 38816  1          +
 005BD8 4800 A4CA            05EE0 38823  1          +
 005BDC 5000 D048            00000 38828  1          +
 005BE0 D201 D050 A4C6 00008 05EDC 38829  1          +
 005BE6 58F0 A48E/0DEF       05EA4 38832  1          +
 005BEC 1820                       38834  1 6966.                LR    RA,RVR
 005BEE 41E0 2000            00000 38835  1 6967.                ZOT   @RA,LH:=Y(4096)
 005BF2 48F0 A4CA/1B11       05EE0 38846  1          +
 005BF8 0EE0                       38848  1          +
 005BFA 5020 8340            000C0 38849  1 6968.                ST    RA,PSATRB0              Save the address
 005BFE                            38850  1 6969.                VMGET LH:=Y(4096),LOC=GLOBHI,FIX=YES    Second buffer
 005BFE D70A D048 D048 00000 00000 38867  1          +
 005C04 4800 A4CA            05EE0 38874  1          +
 005C08 5000 D048            00000 38879  1          +
 005C0C D201 D050 A4C6 00008 05EDC 38880  1          +
 005C12 58F0 A48E/0DEF       05EA4 38883  1          +
 005C18 1820                       38885  1 6970.                LR    RA,RVR
 005C1A 41E0 2000            00000 38886  1 6971.                ZOT   @RA,LH:=Y(4096)
 005C1E 48F0 A4CA/1B11       05EE0 38897  1          +
 005C24 0EE0                       38899  1          +
 005C26 5020 8344            000C4 38900  1 6972.                ST    RA,PSATRB1              Save the address
1DISPATCH (DISP00) (09:38) (22MAR04) Initialization                                                                         Page  301
0Current Usings:  (IPL.PZERO,R0) (DCT,R6) (INITDIS1,R10) (@VMGET-72,R13)
0Loc    Object Code    Addr1 Addr2  Stmt Lv Lineno    Source Statement           (Hibal 5, Asmedit 3.3)  HLASM R4.0  2004/03/22 09.38
+___    ______ ____    _____ _____  ____ __ ______    ______ _________
0005C2A 47F0 A0D2            05AE8 38901    6973.              END   ,                       End of the CPU loop
 DROP   PZERO,R8
 DROP   IPCB,R4
                                   38916    6974.     *
                                   38917    6975.     * Allocate the global ASB
                                   38918    6976.     *
 005C2E 58F0 A4BE/0DEF       05ED4 38919    6977.              ACALL NEWASB                  Get the ASB
 005C34 1840                       38926    6978.              LR    RJ,RVR
 005C36 5040 6008            00008 38927    6979.              ST    RJ,DCTGASB              Save it in the DCT
 005C3A 5040 0208            00208 38928    6980.              ST    RJ,IPL.PZCURASB         And, during init, in PZERO
                                   38929    6981.     *
                                   38930    6982.     * Now that all the memory we will need has been allocated. We
                                   38931    6983.     * can try the next stuff.  We'll get back to the dispatcher in
                                   38932    6984.     * a few minutes.
                                   38933    6985.     *
 005C3E 1804                       38934    6986.              LR    RVR,RJ                  Return the global ASB addr
 005C40 981F C008            00008 38935    6987.              PEND  ,
 DROP   DCT,R6
 DROP   INITDIS1,R10
 005C44 9680 C000/0B0E 00000       38950             +
 DROP   @VMGET-72,R13
1DISPATCH (DISP00) (09:38) (22MAR04) Initialization                                                                         Page  302
0Current Usings:  (IPL.PZERO,R0)
0Loc    Object Code    Addr1 Addr2  Stmt Lv Lineno    Source Statement           (Hibal 5, Asmedit 3.3)  HLASM R4.0  2004/03/22 09.38
+___    ______ ____    _____ _____  ____ __ ______    ______ _________
0                                  38960    6989.     *
                                   38961    6990.     * Default time slices.  The number is in units of 1 millisecond.
                                   38962    6991.     *
 005C50                            38963    6992.              DS    0D
 005C50 00000000186A0000           38964    6993.     DEFSLICE DC    FL8S12E3'100'           Prio 0  100ms
 005C58 0000000009C40000           38965    6994.              DC    FL8S12E3'40'            Prio 1   40ms
 005C60 0000000004E20000           38966    6995.              DC    FL8S12E3'20'            Prio 2   20ms
 005C68 0000000002710000           38967    6996.              DC    FL8S12E3'10'            Prio 3   10ms
 005C70 0000000002710000           38968    6997.              DC    FL8S12E3'10'            Prio 4   10ms
                                   38969    6998.     *
                                   38970    6999.     * Default wait values.  The number is in units of .1 second.
                                   38971    7000.     *
 005C78 00000000186A0000           38972    7001.     DEFWAIT  DC    FL8S12E5'1'             Prio 0   0.1s
 005C80 00000000F4240000           38973    7002.              DC    FL8S12E5'10'            Prio 1   1.0s
 005C88 0000000989680000           38974    7003.              DC    FL8S12E5'100'           Prio 2  10.0s
 005C90 0000000000000000           38975    7004.              DC    FL8S12E5'0'             Prio 3   0.0s
 005C98 0000000000000000           38976    7005.              DC    FL8S12E5'0'             Prio 4   0.0s
                                   38977    7006.     *
                                   38978    7007.     * Default process time between working set manager calls (1 ms)
                                   38979    7008.     *
 005CA0 0000000003A98000           38980    7009.     DEFWSIN  DC    FL8S12E3'15'            15ms
                                   38981    7010.     *
                                   38982    7011.     * Default target for maximum working set size
                                   38983    7012.     *
 005CA8 00000064                   38984    7013.     DEFWSLM  DC    F'100'                  Maximum working set size
                                   38985    7014.     *
                                   38986    7015.     * Static layout of PZERO
                                   38987    7016.     *
 005CB0                            38988    7017.     PZPS     DS    0D                      Doubleword align
 005CB0 00080000800014AA           38989    7018.              DC    X'00080000',A(INFLIH+X'80000000') Initialization
 005CB8 0000000000000000           38990    7019.              DC    10D'0.0'
 005D08 0408000080001596           38991    7020.              DC    X'04080000',A(EXFLIH+X'80000000') External
 005D10 040800008000176C           38992    7021.              DC    X'04080000',A(SVFLIH+X'80000000') Supervisor
 005D18 04080000800018B8           38993    7022.              DC    X'04080000',A(PIFLIH+X'80000000') Program
 005D20 0408000080001B24           38994    7023.              DC    X'04080000',A(MCFLIH+X'80000000') Machine Check
 005D28 0408000080001B54           38995    7024.              DC    X'04080000',A(IOFLIH+X'80000000') I/O
                                   38996    7025.     PZPAT    EQU   PZPS,*-PZPS,C'X'
1DISPATCH (DISP00) (09:38) (22MAR04) Initialization                                                                         Page  303
0Current Usings:  (IPL.PZERO,R0)
0Loc    Object Code    Addr1 Addr2  Stmt Lv Lineno    Source Statement           (Hibal 5, Asmedit 3.3)  HLASM R4.0  2004/03/22 09.38
+___    ______ ____    _____ _____  ____ __ ______    ______ _________
0                                  38998    7027.     *****************************************************************
                                   38999    7028.     *                                                               *
                                   39000    7029.     * INITDIS2 --  This routine finishes up the initialization of   *
                                   39001    7030.     *              the dispatcher.  It just makes sure that all     *
                                   39002    7031.     *              the necessary info is in each of the PZ's and    *
                                   39003    7032.     *              starts up all the CPU's in the configuration.    *
                                   39004    7033.     *                                                               *
                                   39005    7034.     *   Input  --  none                                             *
                                   39006    7035.     *                                                               *
                                   39007    7036.     *  Output  --  none                                             *
                                   39008    7037.     *                                                               *
                                   39009    7038.     *****************************************************************
-005D30                            39011    7040.     INITDIS2 PROC  SCOPE=LOCAL
 005D30 C9D5C9E3C4C9E2F2           39018             +
 005D38 0000/0000                  39019             +
 005D3C 900F D004/18AF       00004 39021             +
 USING  INITDIS2,R10
 005D42 50D0 C000/18CD       00000 39036             +
 005D48 9680 C000      00000       39038             +
 005D4C 41D0 C048            00048 39039             +
                                   39040    7041.     *
                                   39041    7042.     * Get our bearings
                                   39042    7043.     *
 005D50 5810 0200            00200 39043    7044.              L     RS,IPL.PZMATP           Get address of the MAT
 005D54 5860 1008            00008 39044    7045.              WITH  (MAT,RS),'L RX,MATDCT'  Get the DCT address
 USING  MAT,R1
 DROP   MAT,R1
 USING  DCT,R6                     39068    7046.              WITH  (DCT,RX)
                                   39081    7047.     *
                                   39082    7048.     * Finish setting up the control blocks for the various CPU's
                                   39083    7049.     *
 005D58 B212 0210      00210       39084    7050.              STAP  IPL.PZLCPUA             Save the CPU address
 005D5C 4840 0210            00210 39085    7051.              LH    RJ,IPL.PZLCPUA          Get the Current CPU address
                                   39086    7052.     *
                                   39087    7053.     * Loop through all the CPU's, starting them up
                                   39088    7054.     *
 005D60 5820 6170            00170 39089    7055.              L     RA,DCTIPCBS             Get the chain of IPCBs
 005D64 1222/4780 A056       05D92 39090    7056.              WHILE (RA,NZ),BEGIN
 USING  IPCB,R2                    39106  1 7057.                WITH  (IPCB,RA)
 005D6A 5890 2008            00008 39119  1 7058.                L     RN,IPCBPZ               Get the PZ for that page
 USING  PZERO,R9                   39120  1 7059.                WITH  (PZERO,RN)
                                   39133  1 7060.              $$USING PSA,PZERO+L'PZERO       Address PSA too
 005D6E B60F 93D8            00158 39134  1 7061.                STCTL 0,15,PSACTRS            Save the control register
 005D72 4940 200C            0000C 39135  1 7062.                IF    (RJ,NE,IPCBCPUA),BEGIN  It's not this one
 005D76 4780 A04E            05D8A 39147  1          +
 005D7A 4810 200C            0000C 39152  2 7063.                  LH    RS,IPCBCPUA             CPU address
 005D7E B130 9000            00000 39153  2 7064.                  LRA   RB,PZERO                Get it in real mode
 005D82 AE31 000D            0000D 39154  2 7065.                  SIGP  RB,RS,X'0D'             Set prefix
 005D86 AE31 0006            00006 39155  2 7066.                  SIGP  RB,RS,X'06'             Then restart it
 005D8A                            39156  1 7067.                END   ,
 005D8A 5820 2004            00004 39160  1 7068.                L     RA,IPCBNEXT             Get the next CPU
 005D8E 47F0 A028            05D64 39161    7069.              END   ,                       Of the CPU loop
1DISPATCH (DISP00) (09:38) (22MAR04) Initialization                                                                         Page  304
0Current Usings:  (IPL.PZERO,R0) (DCT,R6) (INITDIS2,R10)
0Loc    Object Code    Addr1 Addr2  Stmt Lv Lineno    Source Statement           (Hibal 5, Asmedit 3.3)  HLASM R4.0  2004/03/22 09.38
+___    ______ ____    _____ _____  ____ __ ______    ______ _________
0DROP   PZERO,R9
 DROP   IPCB,R2
                                   39176    7070.     *
                                   39177    7071.     * Do the current CPU
                                   39178    7072.     *
 005D92 1814                       39179    7073.              LR    RS,RJ                   Copy the CPU address
 005D94 8910 0002            00002 39180    7074.              SLL   RS,2                    times 4
 005D98 5811 6174            00174 39181    7075.              L     RS,DCTIPCBT(RS)         Get the IPCB address
 USING  IPCB,R1                    39182    7076.              WITH  (IPCB,RS),BEGIN
 005D9C 5830 1008            00008 39196  1 7077.                L     RB,IPCBPZ               Get the PZ address
 USING  PZERO,R3                   39197  1 7078.                WITH  (PZERO,RB)
                                   39210  1 7079.              $$USING PSA,PZERO+L'PZERO       Address PSA too
 005DA0 B210 3318      00098       39211  1 7080.                SPX   PSAPRFXR                Set the prefix here
 DROP   PZERO,R3                   39212    7081.              END   ,
 DROP   IPCB,R1
 DROP   IPL.PZERO,R0               39225    7082.              DROP  IPL
 USING  PZERO,R0                   39233    7083.              USING PZERO,R0
 005DA4 8200 0000      00000       39242    7084.              LPSW  PZRSNPSW                Go into restart processing
 005DA8 981F C008            00008 39243    7085.              PEND  ,
 DROP   DCT,R6
 DROP   INITDIS2,R10
 005DAC 9680 C000/0B0E 00000       39258             +
1DISPATCH (DISP00) (09:38) (22MAR04) Initialization                                                                         Page  305
0Current Usings:  (PZERO,R0)
0Loc    Object Code    Addr1 Addr2  Stmt Lv Lineno    Source Statement           (Hibal 5, Asmedit 3.3)  HLASM R4.0  2004/03/22 09.38
+___    ______ ____    _____ _____  ____ __ ______    ______ _________
0                                  39265    7087.     *****************************************************************
                                   39266    7088.     *                                                               *
                                   39267    7089.     * INITDIS3 --  This routine takes care of dispatcher            *
                                   39268    7090.     *              initialization that must take place under an     *
                                   39269    7091.     *              address space.   It is called first thing from   *
                                   39270    7092.     *              SYSTASK.                                         *
                                   39271    7093.     *                                                               *
                                   39272    7094.     *   Input  --  none                                             *
                                   39273    7095.     *                                                               *
                                   39274    7096.     *  Output  --  none                                             *
                                   39275    7097.     *                                                               *
                                   39276    7098.     *****************************************************************
-005DB2                            39278    7100.     INITDIS3 PROC  SCOPE=GLOBAL
 005DB2 C9D5C9E3C4C9E2F3           39284             +
 005DBA 0000/0000                  39285             +
 005DBE 900F D004/18AF       00004 39287             +
 USING  INITDIS3,R10
 005DC4 50D0 C000/18CD       00000 39302             +
 005DCA 9680 C000      00000       39304             +
 005DCE 41D0 C048            00048 39305             +
                                   39306    7101.     *
                                   39307    7102.     * Get the ASB chain lock
                                   39308    7103.     *
 005DD2 5870 0200            00200 39309    7104.              L     RY,MATPTR               Get the Mat pointer
 USING  MAT,R7                     39310    7105.              WITH  (MAT,RY)
 USING  @LOCKCRE-72,R13            39323    7106.              LKCRE ASBCHAIN                Create the lock
 005DD6 D710 D048 D048 00000 00000 39341             +
 005DDC D20F D048 A0BA 00000 05E78 39347             +
 005DE2 58F0 A0FE/0DEF       05EBC 39350             +
 005DE8 5000 70B0            000B0 39352    7107.              ST    RVR,MATASBL             Save the lock id
                                   39353    7108.     *
                                   39354    7109.     * Free any remaining V=R area so the pages may be reused.
                                   39355    7110.     *
 005DEC 5860 7008            00008 39356    7111.              L     RX,MATDCT               Get the DCT address
 USING  DCT,R6                     39357    7112.              WITH  (DCT,RX)
 DROP   @LOCKCRE-72,R13            39370    7113.              VMFREE L:DCTVRLEN,A=L:DCTVRST,LOC=GLOBLO,FIX=YES,FETP=YES
 USING  @VMFREE-72,R13
 005DF0 D709 D048 D048 00000 00000 39397             +
 005DF6 D203 D04C 61BC 00004 001BC 39402             +
 005DFC D203 D048 61B8 00000 001B8 39407             +
 005E02 D201 D050 A126 00008 05EE4 39408             +
 005E08 58F0 A11A/0DEF       05ED8 39411             +
 005E0E 1200/4780 A086       05E44 39413    7114.              IF    (RVR,NZ),'ABORT FREEVR'
 005E14 AC04 021B      0021B       39431  1          +
 005E18 9680 021A      0021A       39437  1          +
 005E1C 50F0 021C            0021C 39438  1          +
 005E20 58F0 0210            00210 39439  1          +
 005E24 89F0 0010            00010 39440  1          +
 005E28 88F0 0010            00010 39441  1          +
 005E2C 41F0 F000            00000 39442  1          +
 005E30 AEFF 0006            00006 39443  1          +
 005E34 C6D9C5C5E5D94040           39444             +
1DISPATCH (DISP00) (09:38) (22MAR04) Initialization                                                                         Page  306
0Current Usings:  (PZERO,R0) (@VMFREE-72,R13)
0Loc    Object Code    Addr1 Addr2  Stmt Lv Lineno    Source Statement           (Hibal 5, Asmedit 3.3)  HLASM R4.0  2004/03/22 09.38
+___    ______ ____    _____ _____  ____ __ ______    ______ _________
0005E44 981F C008            00008 39449    7115.              PEND  ,
 DROP   DCT,R6
 DROP   MAT,R7
 DROP   INITDIS3,R10
 005E48 9680 C000/0B0E 00000       39469             +
 DROP   @VMFREE-72,R13
1DISPATCH (DISP00) (09:38) (22MAR04) Initialization                                                                         Page  307
0Current Usings:  (PZERO,R0)
0Loc    Object Code    Addr1 Addr2  Stmt Lv Lineno    Source Statement           (Hibal 5, Asmedit 3.3)  HLASM R4.0  2004/03/22 09.38
+___    ______ ____    _____ _____  ____ __ ______    ______ _________
0005E50                            39479    7117.              LTORG ,
 005E50 E3D6D9E5E8D34040           39481                             =CL8'TORVYL'
 005E58 000000000C350000           39482                             =FL8S12E3'50'
 005E60 C4C9E2D7C1E3C3C8           39483                             =CL16'DISPATCH'
 005E70 00FFFFFFFFFFFFFF           39484                             =X'00FFFFFFFFFFFFFF'
 005E78 C1E2C2C3C8C1C9D5           39485                             =CL16'ASBCHAIN'
 005E88 00000000                   39486                             =V(VMINIT1)
 005E8C 00000000                   39487                             =V(LKINIT)
 005E90 00000000                   39488                             =V(IOSINIT)
 005E94 00005A16                   39489                             =A(INITDIS1)
 005E98 00000000                   39490                             =V(PAGINIT)
 005E9C 00000000                   39491                             =V(VMINIT2)
 005EA0 00005D3C                   39492                             =A(INITDIS2)
 005EA4 00000000                   39493                             =V(VMGET)
 005EA8 C4C3E340                   39494                             =CL4'DCT'
 005EAC 000057D8                   39495                             =A(RDPARMS)
 005EB0 070C0000                   39496                             =X'070C0000'
 005EB4 00000000                   39497                             =V(SYSTASK)
 005EB8 00002ABC                   39498                             =A(ACREATE)
 005EBC 00000000                   39499                             =V(LKCRE)
 005EC0 7FFFF000                   39500                             =X'7FFFF000'
 005EC4 00010000                   39501                             =A(16*4096)
 005EC8 00000011                   39502                             =X'00000011'
 005ECC C9D7C3C2                   39503                             =C'IPCB'
 005ED0 80000000                   39504                             =X'80000000'
 005ED4 000039B0                   39505                             =A(NEWASB)
 005ED8 00000000                   39506                             =V(VMFREE)
 005EDC 3F00                       39507                             =Y(63*256+0)
 005EDE FFFF                       39508                             =H'-1'
 005EE0 1000                       39509                             =Y(4096)
 005EE2 02F8                       39510                             =Y(PSAKDISP-PSA+L'PZERO)
 005EE4 2E00           05EE6 05F38 39511                             =Y(46*256+0)
 005EE6 0000/00000013              39515    7118.              XTRCDATA  ,                   Generate the trace info
 005EEC 00000838                   39518             +
 005EF0 0000084C                   39519             +
 005EF4 00000860                   39520             +
 005EF8 00001414                   39521             +
 005EFC 00001428                   39522             +
 005F00 00002324                   39523             +
 005F04 00002344                   39524             +
 005F08 00002358                   39525             +
 005F0C 0000236C                   39526             +
 005F10 00002380                   39527             +
 005F14 00002394                   39528             +
 005F18 000023A8                   39529             +
 005F1C 000023BC                   39530             +
 005F20 000036F8                   39531             +
 005F24 0000370C                   39532             +
 005F28 00004C8C                   39533             +
 005F2C 00004CA0                   39534             +
 005F30 00005508                   39535             +
 005F34 0000551C                   39536             +
 005F38                05F38 05F38 39537    7119.              END   .

1DISPATCH (DISP00) (09:38) (22MAR04) Ordinary Symbol and Literal Cross Reference                                            Page  308
-Symbol   Length   Value     Id    R Type   Defn References                                  HLASM R4.0  2004/03/22 09.38
0$$$@R0        1 00000000 FFFFFFFE     J     714  1010
 $$$@R1        1 00000000 FFFFFFFD     J     727  1022
 $$$@R10       1 00000000 FFFFFFF4     J     844  1142
 $$$@R11       1 00000000 FFFFFFF3     J     857  1154
 $$$@R12       1 00000000 FFFFFFF2     J     870  1166
 $$$@R13       1 00000000 FFFFFFF1     J     883  1178
 $$$@R14       1 00000000 FFFFFFF0     J     896  1190
 $$$@R15       1 00000000 FFFFFFEF     J     909  1202
 $$$@R2        1 00000000 FFFFFFFC     J     740  1034
 $$$@R3        1 00000000 FFFFFFFB     J     753  1046
 $$$@R4        1 00000000 FFFFFFFA     J     766  1058
 $$$@R5        1 00000000 FFFFFFF9     J     779  1070
 $$$@R6        1 00000000 FFFFFFF8     J     792  1082
 $$$@R7        1 00000000 FFFFFFF7     J     805  1094
 $$$@R8        1 00000000 FFFFFFF6     J     818  1106
 $$$@R9        1 00000000 FFFFFFF5     J     831  1118   1130
 $$$C1DISPATCH
               1 00000872 00000001     J    7573  7575   8096   8115   9201   9222  10432  10535
 $$$C10DISPATCH
               1 0000597F 00000001     J   38045 38047
 $$$C11DISPATCH
               1 00005EE6 00000001     J   39512 39514
 $$$C12DISPATCH
               1 00005F38 00000001     J   39540 39542
 $$$C2DISPATCH
               1 0000143A 00000001     J   11970 11972  12436  12601  12620  12672  12691  12997  13088  13391  13556
                                                 14157  14286  14552  14894  14913  15918
 $$$C3DISPATCH
               1 000023D4 00000001     J   16760 16762
 $$$C4DISPATCH
               1 00002AAF 00000001     J   19634 19636  20872  21613  21709  22570  23895  23914
 $$$C5DISPATCH
               1 00003724 00000001     J   24328 24330  24650
 $$$C6DISPATCH
               1 00003D9E 00000001     J   26914 26916  26950  28228
 $$$C7DISPATCH
               1 00004252 00000001     J   28692 28694  32315  32443
 $$$C8DISPATCH
               1 00004CB2 00000001     J   33127 33129  33812  34026  34666  36276
 $$$C9DISPATCH
               1 0000552E 00000001     J   36458 36460  36579  37528
 $$$D0DISPATCH
               1 0000082C 00000001     J    1221  4442   4460   5856   5874   6559   6784   7044
 $$$D1DISPATCH
               1 00001414 00000001     J    7574 10420  10523
 $$$D2DISPATCH
               1 00002324 00000001     J   11971 12424  12591  12609  12662  12680  12985  13076  13379  13544  14145
                                                 14274  14540  14884  14902
 $$$D4DISPATCH
               1 000036F7 00000001     J   19635 20860  21601  23885  23903
 $$$D7DISPATCH
               1 00004C8A 00000001     J   28693 32303  32431
 $$$D8DISPATCH
               1 00005508 00000001     J   33128 33800  34014
 $$$R#ASWAKE
1DISPATCH (DISP00) (09:38) (22MAR04) Ordinary Symbol and Literal Cross Reference                                            Page  309
               1 00000000 FFFFFFA3     J    8082  8095   8095
 $$$R@ACREATE
               1 00000000 FFFFFFE4     J    1682  1695   1695
 $$$R@ASWAKE
               1 00000000 FFFFFFA2     J    8101  8114   8114
 $$$R@AWAIT
               1 00000000 FFFFFFEB     J    1479  1501   1501
 $$$R@CPCNCK
               1 00000000 FFFFFFD4     J    2095  2110   2110
 $$$R@CPSET
               1 00000000 FFFFFFD5     J    2070  2085   2085
 $$$R@DEMOTE
               1 00000000 FFFFFF9D     J   22556 22569  22569
 $$$R@DISPPIOC
               1 00000000 FFFFFFE9     J    1548  1561   1561
 $$$R@DISPSIOC
               1 00000000 FFFFFFE8     J    1567  1580   1580
 $$$R@DISPSWP
               1 00000000 FFFFFFE5     J    1659  1672   1672
 $$$R@DSPSTAT
               1 00000000 FFFFFFD9     J    1953  1969   1969
 $$$R@EXRADD
               1 00000000 FFFFFFBC     J    2783  2813   2813
 $$$R@EXRDEL
               1 00000000 FFFFFFBB     J    2823  2836   2836
 $$$R@EXRDONE
               1 00000000 FFFFFFBA     J    2846  2882   2882
 $$$R@GCBDEL
               1 00000000 FFFFFF9C     J   24636 24649  24649
 $$$R@IOSASC
               1 00000000 FFFFFFD0     J    2196  2209   2209
 $$$R@IPLPARM
               1 00000000 FFFFFFCA     J    2361  2378   2378
 $$$R@LOCKCRE
               1 00000000 FFFFFFD2     J    2148  2170   2170
 $$$R@LOCKS
               1 00000000 FFFFFFD1     J    2176  2189   2189
 $$$R@MONSET
               1 00000000 FFFFFFDA     J    1930  1943   1943
 $$$R@PAGASC1
               1 00000000 FFFFFFC4     J    2556  2570   2570
 $$$R@PAGASC2
               1 00000000 FFFFFFC3     J    2576  2590   2590
 $$$R@PAGDEF
               1 00000000 FFFFFFC6     J    2496  2523   2523
 $$$R@PAGE
               1 00000000 FFFFFFC2     J    2596  2612   2612
 $$$R@PAGINIT
               1 00000000 FFFFFFBF     J    2658  2672   2672
 $$$R@PAGINTV
               1 00000000 FFFFFFC0     J    2639  2652   2652
 $$$R@PAGRV
               1 00000000 FFFFFFC1     J    2618  2633   2633
 $$$R@PAGSEGD
               1 00000000 FFFFFFC5     J    2529  2550   2550
 $$$R@PAGSWADV
               1 00000000 FFFFFFC8     J    2447  2460   2460
 $$$R@PAGSWAP
               1 00000000 FFFFFFC9     J    2393  2441   2441
1DISPATCH (DISP00) (09:38) (22MAR04) Ordinary Symbol and Literal Cross Reference                                            Page  310
 $$$R@PAGWSMA
               1 00000000 FFFFFFC7     J    2466  2490   2490
 $$$R@PARMDO
               1 00000000 FFFFFFBE     J    2685  2701   2701
 $$$R@PERSET
               1 00000000 FFFFFFDB     J    1907  1920   1920
 $$$R@RESUME
               1 00000000 FFFFFFE6     J    1634  1649   1649
 $$$R@RTCNCK
               1 00000000 FFFFFFD7     J    2020  2035   2035
 $$$R@RTSET
               1 00000000 FFFFFFD8     J    1986  2010   2010
 $$$R@SIGNAL
               1 00000000 FFFFFFEA     J    1512  1532   1532
 $$$R@STKDEL
               1 00000000 FFFFFF98     J   36262 36275  36275
 $$$R@SUSPEND
               1 00000000 FFFFFFE7     J    1590  1624   1624
 $$$R@SYSRDEL
               1 00000000 FFFFFFDE     J    1835  1848   1848
 $$$R@SYSRDO
               1 00000000 FFFFFFDD     J    1858  1874   1874
 $$$R@SYSRNEW
               1 00000000 FFFFFFDF     J    1813  1826   1826
 $$$R@SYSRTN
               1 00000000 FFFFFFDC     J    1884  1897   1897
 $$$R@TCLUP
               1 00000000 FFFFFF99     J   34652 34665  34665
 $$$R@TCREATE
               1 00000000 FFFFFFE3     J    1705  1734   1734
 $$$R@TENTRY
               1 00000000 FFFFFFE1     J    1767  1780   1780
 $$$R@TEXIT
               1 00000000 FFFFFFE0     J    1790  1803   1803
 $$$R@TREMOVE
               1 00000000 FFFFFFE2     J    1744  1757   1757
 $$$R@UPDPRIO
               1 00000000 FFFFFFA1     J    9178  9200   9200
 $$$R@VMCRAS
               1 00000000 FFFFFFCB     J    2334  2347   2347
 $$$R@VMFREE
               1 00000000 FFFFFFCE     J    2257  2272   2272
 $$$R@VMGET
               1 00000000 FFFFFFCF     J    2222  2251   2251
 $$$R@VMINFO
               1 00000000 FFFFFFCD     J    2278  2293   2293
 $$$R@VMIPARM
               1 00000000 FFFFFFCC     J    2306  2323   2323
 $$$R@XITDATA
               1 00000000 FFFFFFB3     J    3168  3181   3181
 $$$R@XITDEL
               1 00000000 FFFFFFB8     J    2923  2936   2936
 $$$R@XITDO
               1 00000000 FFFFFFB7     J    2945  2962   2962
 $$$R@XITGPST
               1 00000000 FFFFFFB6     J    2973  2988   2988
 $$$R@XITMASK
               1 00000000 FFFFFFB5     J    2998  3045   3045
 $$$R@XITNEW
1DISPATCH (DISP00) (09:38) (22MAR04) Ordinary Symbol and Literal Cross Reference                                            Page  311
               1 00000000 FFFFFFB9     J    2892  2913   2913
 $$$RASB       1 00000000 FFFFFFEC     J    1416  1467   1467
 $$$RASDB      1 00000000 FFFFFFAA     J    3710  3831   3831
 $$$RCPEXIT
               1 00000000 FFFFFFD3     J    2120  2135   2135
 $$$RCPTQ      1 00000000 FFFFFFA4     J    4180  4198   4198
 $$$RCPWA      1 00000000 FFFFFF9F     J   15903 15917  15917
 $$$RDCT       1 00000000 FFFFFFAC     J    3554  3632   3632
 $$$RDSPSWA
               1 00000000 FFFFFF97     J   36565 36578  36578
 $$$RERB       1 00000000 FFFFFFA6     J    4048  4125   4125
 $$$RESB       1 00000000 FFFFFFA7     J    3986  4033   4033
 $$$RIPCB      1 00000000 FFFFFFAB     J    3649  3685   3685
 $$$RLTDWA
               1 00000000 FFFFFF9E     J   21696 21708  21708
 $$$RMAT       1 00000000 FFFFFFED     J    1350  1409   1409
 $$$RPARMIN
               1 00000000 FFFFFFBD     J    2707  2765   2765
 $$$RPQPARM
               1 00000000 FFFFFF9B     J   26935 26949  26949
 $$$RPSA       1 00000000 FFFFFFAD     J    3447  3539   3539
 $$$RPZERO
               1 00000000 FFFFFFEE     J    1236  1327   1327
 $$$RRDPWA
               1 00000000 FFFFFF96     J   37511 37527  37527
 $$$RRTCQ      1 00000000 FFFFFFA5     J    4138  4167   4167
 $$$RRTEXIT
               1 00000000 FFFFFFD6     J    2045  2060   2060
 $$$RSEXITMC
               1 00000000 FFFFFFAE     J    3301  3316   3316
 $$$RSEXITPER
               1 00000000 FFFFFFAF     J    3276  3291   3291
 $$$RSEXITPI
               1 00000000 FFFFFFB0     J    3251  3266   3266
 $$$RSEXITSVC
               1 00000000 FFFFFFB1     J    3227  3241   3241
 $$$RSTDB      1 00000000 FFFFFFA8     J    3955  3972   3972
 $$$RTDB       1 00000000 FFFFFFA9     J    3850  3939   3939
 $$$RTQPARM
               1 00000000 FFFFFF9A     J   28214 28227  28227
 $$$RUPPWA
               1 00000000 FFFFFFA0     J    9206  9221   9221
 $$$RXITMSKD
               1 00000000 FFFFFFB4     J    3071  3158   3158
 $$$RXITSAREA
               1 00000000 FFFFFFB2     J    3191  3207   3207
 $$$TR$0       4 00000838 00000001     A    6563  6557   6563  39518
 $$$TR$1       4 0000084C 00000001     A    6788  6782   6788  39519
 $$$TR$10      4 00002394 00000001     A   14149 14143  14149  39528
 $$$TR$11      4 000023A8 00000001     A   14278 14272  14278  39529
 $$$TR$12      4 000023BC 00000001     A   14544 14538  14544  39530
 $$$TR$13      4 000036F8 00000001     A   20864 20858  20864  39531
 $$$TR$14      4 0000370C 00000001     A   21605 21599  21605  39532
 $$$TR$15      4 00004C8C 00000001     A   32307 32301  32307  39533
 $$$TR$16      4 00004CA0 00000001     A   32435 32429  32435  39534
 $$$TR$17      4 00005508 00000001     A   33804 33798  33804  39535
 $$$TR$18      4 0000551C 00000001     A   34018 34012  34018  39536
 $$$TR$2       4 00000860 00000001     A    7048  7042   7048  39520
 $$$TR$3       4 00001414 00000001     A   10424 10418  10424  39521
1DISPATCH (DISP00) (09:38) (22MAR04) Ordinary Symbol and Literal Cross Reference                                            Page  312
 $$$TR$4       4 00001428 00000001     A   10527 10521  10527  39522
 $$$TR$5       4 00002324 00000001     A   12428 12422  12428  39523
 $$$TR$6       4 00002344 00000001     A   12989 12983  12989  39524
 $$$TR$7       4 00002358 00000001     A   13080 13074  13080  39525
 $$$TR$8       4 0000236C 00000001     A   13383 13377  13383  39526
 $$$TR$9       4 00002380 00000001     A   13548 13542  13548  39527
 $$$100S       2 0000077A 00000001     H    7381  7397B
 $$$103F       2 000007EA 00000001     H    7525  7417B
 $$$103S       2 00000782 00000001     H    7411  7524B
 $$$105F       2 000007E4 00000001     H    7514  7488B
 $$$107F       2 000008D2 00000001     H    7670  7632B  7644B
 $$$110F       2 0000094A 00000001     H    7810  7784B
 $$$111F       2 00000964 00000001     H    7858  7823B
 $$$112F       2 00000964 00000001     H    7854  7838B
 $$$114F       2 00000A10 00000001     H    8059  7998B
 $$$116F       2 00000A10 00000001     H    8050  8024B
 $$$116T       2 000009E0 00000001     H    8027  8014B
 $$$118F       2 00000C2C 00000001     H    9150  8237B
 $$$119F       2 00000A78 00000001     H    8206  8180B
 $$$121F       2 00000C04 00000001     H    9053  8307B  8348B  8697B
 $$$122F       2 00000ABC 00000001     H    8351  8320B  8333B
 $$$126F       2 00000B64 00000001     H    8706  8372B
 $$$127F       2 00000B1E 00000001     H    8588  8555B
 $$$127S       2 00000B02 00000001     H    8549  8587B
 $$$129F       2 00000B16 00000001     H    8582  8572B
 $$$130F       2 00000B60 00000001     H    8694  8606B
 $$$131B       4 00000B2C 00000001     I    8623  8640
 $$$131F       2 00000B34 00000001     H    8637  8623B  8639
 $$$132E       2 00000B38 00000001     H    8647  8641
 $$$132F       2 00000B60 00000001     H    8690  8643B
 $$$133F       2 00000B60 00000001     H    8686  8659B
 $$$134F       2 00000C04 00000001     H    9049  8725B
 $$$135F       2 00000BC4 00000001     H    8901  8883B
 $$$136F       2 00000C04 00000001     H    9037  9019B
 $$$136T       2 00000C00 00000001     H    9022  9007B
 $$$138F       2 00000C2C 00000001     H    9126  9090B
 $$$139F       2 00000C2C 00000001     H    9122  9106B
 $$$141F       2 00000C94 00000001     H    9326  9300B
 $$$142B       4 00000C9C 00000001     I    9354  9406
 $$$142F       2 00000CD0 00000001     H    9403  9354B  9405
 $$$143F       2 00000CB2 00000001     H    9388  9370B
 $$$144E       2 00000CD4 00000001     H    9413  9407
 $$$144F       2 00000D2E 00000001     H    9487  9409B
 $$$145F       2 00000D16 00000001     H    9474  9447B  9463B
 $$$145S       2 00000CF8 00000001     H    9438  9473B
 $$$149F       2 00000DB2 00000001     H    9618  9593B
 $$$15F        2 00000314 00000001     H    5701  4744B
 $$$151B       4 00000E12 00000001     I    9824  9876
 $$$151F       2 00000E30 00000001     H    9873  9824B  9875
 $$$152S       2 00000E1A 00000001     H    9837  9854B
 $$$155E       2 00000E34 00000001     H    9883  9877
 $$$155F       2 00000EAC 00000001     H   10126  9879B
 $$$156B       4 00000E3C 00000001     I    9915  9999
 $$$156F       2 00000E7A 00000001     H    9996  9915B  9998
 $$$157F       2 00000E50 00000001     H    9954  9939B
 $$$158F       2 00000E70 00000001     H    9990  9968B
 $$$159E       2 00000E7E 00000001     H   10006 10000
 $$$159F       2 00000EAC 00000001     H   10110 10002B
 $$$16F        2 00000052 00000001     H    4268  4256B
1DISPATCH (DISP00) (09:38) (22MAR04) Ordinary Symbol and Literal Cross Reference                                            Page  313
 $$$160F       2 00000E9C 00000001     H   10089 10074B
 $$$161F       2 0000101C 00000001     H   10571 10219B 10271B
 $$$163F       2 00000EF4 00000001     H   10274 10257B
 $$$165F       2 00000F3A 00000001     H   10343 10304B 10317B
 $$$168F       2 00000FB8 00000001     H   10477 10461B
 $$$168T       2 00000FB2 00000001     H   10464 10451B
 $$$17F        2 0000007E 00000001     H    4373  4279B
 $$$170F       2 00000FF2 00000001     H   10517 10491B
 $$$173S       2 0000104E 00000001     H   10645 10663B
 $$$177F       2 000010C8 00000001     H   10823 10797B
 $$$178S       2 000010CC 00000001     H   10832 10883B
 $$$179F       2 00001106 00000001     H   10868 10842B
 $$$18F        2 0000007E 00000001     H    4369  4291B
 $$$182F       2 00001144 00000001     H   11024 10901B
 $$$183F       2 00001128 00000001     H   10948 10933B
 $$$184F       2 00001144 00000001     H   11010 10992B
 $$$184T       2 00001140 00000001     H   10995 10980B
 $$$188F       2 000011EC 00000001     H   11231 11205B
 $$$189F       2 0000122A 00000001     H   11293 11267B
 $$$190S       2 0000122E 00000001     H   11315 11367B
 $$$191F       2 00001268 00000001     H   11351 11325B
 $$$194F       2 00001280 00000001     H   11412 11385B
 $$$196F       2 000012F4 00000001     H   11565 11539B
 $$$196T       2 000012C4 00000001     H   11542 11528B
 $$$198B       4 00001302 00000001     I   11605 11789
 $$$198F       2 00001370 00000001     H   11786 11605B 11788
 $$$199F       2 00001370 00000001     H   11782 11620B
 $$$20F        2 000000B4 00000001     H    4482  4429B
 $$$200F       2 00001370 00000001     H   11778 11645B
 $$$201B       4 0000131E 00000001     I   11663 11686
 $$$201F       2 00001330 00000001     H   11683 11663B 11685
 $$$202E       2 00001334 00000001     H   11693 11687
 $$$202F       2 0000133E 00000001     H   11704 11689B
 $$$203F       2 00001370 00000001     H   11774 11752B
 $$$204E       2 00001374 00000001     H   11796 11790
 $$$204F       2 0000139A 00000001     H   11900 11792B
 $$$205F       2 0000139A 00000001     H   11896 11815B 11876B
 $$$205S       2 00001378 00000001     H   11809 11895B
 $$$207F       2 00001392 00000001     H   11880 11859B
 $$$209B       1 00001446 00000001     X   11997 12004U
 $$$21         4 0000082E 00000001     I    4466  4458X
 $$$210F       2 000014A6 00000001     H   12135 12017B
 $$$211B       4 00001462 00000001     I   12050 12080
 $$$211F       2 00001476 00000001     H   12076 12050B 12079
 $$$211T       2 00001466 00000001     H   12053 12039B
 $$$213E       2 0000147A 00000001     H   12087 12081
 $$$213F       2 0000149A 00000001     H   12128 12083B
 $$$215B       1 000014AC 00000001     X   12175 12182U
 $$$216F       2 000014F8 00000001     H   12247 12236B
 $$$217F       2 0000153A 00000001     H   12301 12289B
 $$$218F       2 00001574 00000001     H   12341 12315B
 $$$22         4 0000082E 00000001     I    4465  4466   4466
 $$$220B       1 000015B2 00000001     X   12409 12416U
 $$$222F       2 000015DA 00000001     H   12459 12447B
 $$$223F       2 00001614 00000001     H   12496 12471B
 $$$224F       2 00001696 00000001     H   12712 12524B
 $$$225F       2 00001640 00000001     H   12567 12553B
 $$$226F       2 0000166C 00000001     H   12638 12578B
 $$$227        4 00002338 00000001     I   12615 12607X
1DISPATCH (DISP00) (09:38) (22MAR04) Ordinary Symbol and Literal Cross Reference                                            Page  314
 $$$228        4 00002338 00000001     I   12614 12615  12615
 $$$229F       2 00001696 00000001     H   12703 12649B
 $$$23F        2 000000EE 00000001     H    4613  4591B
 $$$23T        2 000000E4 00000001     H    4594  4565B  4579B
 $$$230        4 0000233E 00000001     I   12686 12678X
 $$$231        4 0000233E 00000001     I   12685 12686  12686
 $$$232F       2 000016A6 00000001     H   12745 12729B
 $$$233F       2 000016B6 00000001     H   12778 12762B
 $$$234F       2 000016C2 00000001     H   12810 12795B
 $$$235B       4 000016C6 00000001     I   12824 12843
 $$$235F       2 000016D0 00000001     H   12840 12824B 12842
 $$$236E       2 000016D4 00000001     H   12850 12844
 $$$236F       2 000016EC 00000001     H   12914 12846B
 $$$237F       2 000016EC 00000001     H   12905 12877B 12889B
 $$$239F       2 00001708 00000001     H   12939 12927B
 $$$240F       2 00001742 00000001     H   12979 12953B
 $$$243B       1 00001782 00000001     X   13060 13067U
 $$$245F       2 000017CE 00000001     H   13126 13101B
 $$$246F       2 00001824 00000001     H   13216 13152B
 $$$247F       2 00001824 00000001     H   13207 13181B
 $$$248B       4 0000182E 00000001     I   13240 13259
 $$$248F       2 00001838 00000001     H   13256 13240B 13258
 $$$249E       2 0000183C 00000001     H   13266 13260
 $$$249F       2 00001854 00000001     H   13330 13262B
 $$$250F       2 00001854 00000001     H   13321 13293B 13305B
 $$$252F       2 0000188E 00000001     H   13373 13347B
 $$$255B       1 000018BE 00000001     X   13447 13454U
 $$$256F       2 000018F8 00000001     H   13521 13477B
 $$$258F       2 00001964 00000001     H   13595 13570B
 $$$259F       2 000019AC 00000001     H   13657 13615B
 $$$26F        2 00000122 00000001     H    4752  4651B
 $$$260F       2 000019AC 00000001     H   13653 13627B
 $$$261F       2 000019D0 00000001     H   13729 13692B
 $$$261T       2 000019C4 00000001     H   13695 13680B
 $$$264F       2 00001A14 00000001     H   13807 13743B
 $$$265F       2 00001A14 00000001     H   13798 13772B
 $$$266F       2 00001A7E 00000001     H   13928 13823B
 $$$267F       2 00001A3C 00000001     H   13877 13844B
 $$$268F       2 00001A74 00000001     H   13914 13888B
 $$$269B       4 00001A82 00000001     I   13944 13965
 $$$269F       2 00001A8C 00000001     H   13962 13944B 13964
 $$$27F        2 00000122 00000001     H    4748  4704B
 $$$270E       2 00001A90 00000001     H   13972 13966
 $$$270F       2 00001A96 00000001     H   13990 13968B
 $$$271B       4 00001A9A 00000001     I   14006 14025
 $$$271F       2 00001AA4 00000001     H   14022 14006B 14024
 $$$272E       2 00001AA8 00000001     H   14032 14026
 $$$272F       2 00001AC0 00000001     H   14096 14028B
 $$$273F       2 00001AC0 00000001     H   14087 14059B 14071B
 $$$275F       2 00001AFA 00000001     H   14139 14113B
 $$$279B       1 00001B70 00000001     X   14259 14266U
 $$$28F        2 0000015E 00000001     H    4875  4778B  4791B
 $$$281F       2 00001B98 00000001     H   14309 14297B
 $$$282F       2 00001BD2 00000001     H   14346 14321B
 $$$283B       4 00001BEE 00000001     I   14379 14398
 $$$283F       2 00001BF8 00000001     H   14395 14379B 14397
 $$$284E       2 00001BFC 00000001     H   14405 14399
 $$$284F       2 00001C14 00000001     H   14469 14401B
 $$$285F       2 00001C14 00000001     H   14460 14432B 14444B
1DISPATCH (DISP00) (09:38) (22MAR04) Ordinary Symbol and Literal Cross Reference                                            Page  315
 $$$287F       2 00001C30 00000001     H   14494 14482B
 $$$288F       2 00001C6A 00000001     H   14534 14508B
 $$$291F       2 00001CF0 00000001     H   14682 14656B
 $$$292S       2 00001D0C 00000001     H   14705 14722B
 $$$295S       2 00001D1C 00000001     H   14736 14753B
 $$$298S       2 00001D68 00000001     H   14829 14867B
 $$$299F       2 00001D74 00000001     H   14852 14839B
 $$$30F        2 00000146 00000001     H    4826  4808B
 $$$302        4 000023D0 00000001     I   14908 14900X
 $$$303        4 000023D0 00000001     I   14907 14908  14908
 $$$304S       2 00001D9E 00000001     H   14929 14980B
 $$$305F       2 00001DD8 00000001     H   14965 14939B
 $$$308F       2 00001E00 00000001     H   15065 15047B
 $$$308T       2 00001DFC 00000001     H   15050 15035B
 $$$31F        2 0000015E 00000001     H    4868  4858B
 $$$311F       2 00001E94 00000001     H   15266 15240B
 $$$313F       2 00001F20 00000001     H   15463 15437B
 $$$315F       2 00001FA8 00000001     H   15659 15633B
 $$$317F       2 0000203C 00000001     H   15857 15831B
 $$$319F       2 00002096 00000001     H   16039 16028B
 $$$32F        2 00000190 00000001     H    4982  4891B
 $$$320F       2 000020AE 00000001     H   16067 16052B
 $$$321F       2 0000211E 00000001     H   16217 16076B
 $$$322F       2 00002102 00000001     H   16143 16110B
 $$$323F       2 0000211E 00000001     H   16208 16190B
 $$$323T       2 0000211A 00000001     H   16193 16178B
 $$$325F       2 00002190 00000001     H   16378 16229B
 $$$326F       2 00002190 00000001     H   16374 16298B
 $$$327S       2 0000214E 00000001     H   16314 16365B
 $$$328F       2 00002188 00000001     H   16350 16324B
 $$$33F        2 00000176 00000001     H    4926  4908B
 $$$331F       2 000021A4 00000001     H   16403 16393B
 $$$333F       2 0000222E 00000001     H   16621 16559B 16573B
 $$$333S       2 000021EE 00000001     H   16553 16620B
 $$$336B       4 00002230 00000001     I   16636 16648
 $$$336F       2 00002238 00000001     H   16645 16636B 16647
 $$$337E       2 0000223C 00000001     H   16655 16649
 $$$337F       2 00002240 00000001     H   16661 16651B
 $$$339B       4 00002430 00000001     I   16919 16960
 $$$339F       2 00002454 00000001     H   16957 16919B 16959
 $$$34F        2 0000024C 00000001     H    5299  5001B  5014B  5027B
 $$$340F       2 0000244C 00000001     H   16951 16941B
 $$$341E       2 00002458 00000001     H   16967 16961
 $$$341F       2 0000245E 00000001     H   16973 16963B
 $$$342F       2 0000248E 00000001     H   17064 17017B 17045B
 $$$342S       2 00002472 00000001     H   17009 17063B
 $$$345F       2 000024D0 00000001     H   17146 17099B
 $$$347F       2 0000256C 00000001     H   17413 17293B 17314B 17335B
 $$$351B       4 00002536 00000001     I   17357 17375
 $$$351F       2 00002540 00000001     H   17372 17357B 17374
 $$$352E       2 00002544 00000001     H   17382 17376
 $$$352F       2 0000255A 00000001     H   17394 17378B
 $$$354F       2 0000260A 00000001     H   17747 17580B 17601B 17622B 17730B
 $$$358F       2 000025F8 00000001     H   17716 17645B 17664B
 $$$358S       2 000025DC 00000001     H   17637 17715B
 $$$362F       2 00002680 00000001     H   17906 17774B
 $$$363B       4 0000262A 00000001     I   17795 17813
 $$$363F       2 00002634 00000001     H   17810 17795B 17812
 $$$364E       2 00002638 00000001     H   17820 17814
1DISPATCH (DISP00) (09:38) (22MAR04) Ordinary Symbol and Literal Cross Reference                                            Page  316
 $$$364F       2 0000264E 00000001     H   17832 17816B
 $$$367F       2 00002788 00000001     H   18394 18264B
 $$$367S       2 00002740 00000001     H   18256 18393B
 $$$369B       4 00002750 00000001     I   18295 18307
 $$$369F       2 00002758 00000001     H   18304 18295B 18306
 $$$37F        2 000001BC 00000001     H    5062  5044B
 $$$370E       2 0000275C 00000001     H   18314 18308
 $$$370F       2 00002784 00000001     H   18384 18310B
 $$$372B       4 000027CC 00000001     I   18542 18603
 $$$372F       2 000027F0 00000001     H   18600 18542B 18602
 $$$373E       2 000027F4 00000001     H   18610 18604
 $$$373F       2 000027FE 00000001     H   18618 18606B
 $$$374F       2 0000284E 00000001     H   18711 18664B 18692B
 $$$374S       2 00002832 00000001     H   18656 18710B
 $$$377F       2 00002866 00000001     H   18741 18732B
 $$$379F       2 000028E8 00000001     H   18973 18883B 18904B
 $$$38F        2 00000236 00000001     H    5241  5077B
 $$$382B       4 000028C2 00000001     I   18927 18939
 $$$382F       2 000028C8 00000001     H   18936 18927B 18938
 $$$383E       2 000028CC 00000001     H   18946 18940
 $$$383F       2 000028D2 00000001     H   18953 18942B
 $$$385F       2 00002970 00000001     H   19265 19119B 19140B 19248B
 $$$388F       2 0000295E 00000001     H   19234 19163B 19182B
 $$$388S       2 00002942 00000001     H   19155 19233B
 $$$39F        2 0000021C 00000001     H    5172  5096B
 $$$392F       2 000029BE 00000001     H   19347 19278B
 $$$393B       4 00002984 00000001     I   19300 19312
 $$$393F       2 0000298A 00000001     H   19309 19300B 19311
 $$$394E       2 0000298E 00000001     H   19319 19313
 $$$394F       2 00002994 00000001     H   19326 19315B
 $$$396F       2 00002A46 00000001     H   19546 19467B 19487B
 $$$396S       2 000029F2 00000001     H   19461 19545B
 $$$399B       4 00002A48 00000001     I   19559 19571
 $$$399F       2 00002A52 00000001     H   19568 19559B 19570
 $$$40S        2 000001DA 00000001     H    5112  5163B
 $$$400E       2 00002A56 00000001     H   19578 19572
 $$$400F       2 00002A5C 00000001     H   19584 19574B
 $$$402B       4 00002BAE 00000001     I   19917 20042
 $$$402F       2 00002BEA 00000001     H   20039 19917B 20041
 $$$403E       2 00002BEE 00000001     H   20049 20043
 $$$403F       2 00002C0A 00000001     H   20106 20045B
 $$$405F       2 00002CA0 00000001     H   20355 20329B
 $$$406F       2 00002D48 00000001     H   20592 20554B
 $$$407F       2 00002D62 00000001     H   20632 20604B
 $$$408S       2 00002D66 00000001     H   20654 20705B
 $$$409F       2 00002DA0 00000001     H   20690 20664B
 $$$41F        2 00000214 00000001     H    5148  5122B
 $$$414F       2 00002E04 00000001     H   20919 20899B
 $$$414S       2 00002DEC 00000001     H   20882 20915B
 $$$417F       2 00002E3E 00000001     H   20959 20933B
 $$$418F       2 00002EC4 00000001     H   21117 21089B 21106B
 $$$418S       2 00002EAC 00000001     H   21081 21116B
 $$$421F       2 00002EFA 00000001     H   21156 21130B
 $$$422F       2 00002F98 00000001     H   21435 21367B 21384B
 $$$422S       2 00002F80 00000001     H   21359 21434B
 $$$425F       2 00002FCE 00000001     H   21471 21445B
 $$$426F       2 00003046 00000001     H   21595 21569B
 $$$428F       2 0000323A 00000001     H   22523 22247B
 $$$429F       2 00003180 00000001     H   22179 21810B 21870B 21983B
1DISPATCH (DISP00) (09:38) (22MAR04) Ordinary Symbol and Literal Cross Reference                                            Page  317
 $$$429S       2 000030A2 00000001     H   21793 22178B
 $$$431F       2 000030CC 00000001     H   21874 21862B
 $$$432S       2 0000310A 00000001     H   21994 22011B
 $$$435F       2 000031B2 00000001     H   22231 22199B 22221B
 $$$435S       2 0000318E 00000001     H   22193 22230B
 $$$437F       2 000031AA 00000001     H   22225 22211B
 $$$439F       2 0000323A 00000001     H   22499 22278B
 $$$439S       2 000031C4 00000001     H   22269 22498B
 $$$44F        2 00000236 00000001     H    5237  5187B
 $$$441F       2 00003202 00000001     H   22392 22302B 22316B
 $$$441S       2 000031D6 00000001     H   22294 22391B
 $$$444F       2 000031FC 00000001     H   22381 22349B
 $$$445F       2 00003232 00000001     H   22490 22410B 22424B
 $$$445S       2 00003206 00000001     H   22402 22489B
 $$$448F       2 0000322C 00000001     H   22479 22457B
 $$$449F       2 000033E0 00000001     H   23292 22668B 22716B 22971B
 $$$450F       2 0000327E 00000001     H   22672 22660B
 $$$451F       2 000032CC 00000001     H   22784 22738B
 $$$452S       2 000032E2 00000001     H   22833 22850B
 $$$455S       2 000032F2 00000001     H   22864 22882B
 $$$458F       2 00003332 00000001     H   22959 22927B 22949B
 $$$458S       2 0000330E 00000001     H   22921 22958B
 $$$46F        2 00000286 00000001     H    5426  5347B
 $$$460F       2 0000332A 00000001     H   22953 22939B
 $$$461F       2 0000335E 00000001     H   23023 22987B
 $$$462F       2 000033A6 00000001     H   23139 23107B 23129B
 $$$462S       2 00003382 00000001     H   23101 23138B
 $$$464F       2 0000339E 00000001     H   23133 23119B
 $$$465F       2 000033C2 00000001     H   23185 23155B
 $$$466F       2 000033DE 00000001     H   23260 23242B
 $$$466T       2 000033DA 00000001     H   23245 23230B
 $$$469F       2 00003450 00000001     H   23437 23411B
 $$$47F        2 00000270 00000001     H    5381  5364B
 $$$470F       2 0000346E 00000001     H   23508 23464B
 $$$471S       2 00003460 00000001     H   23481 23499B
 $$$474S       2 00003472 00000001     H   23517 23555B
 $$$475F       2 0000347E 00000001     H   23540 23527B
 $$$478F       2 00003496 00000001     H   23597 23570B
 $$$479F       2 000034B2 00000001     H   23663 23645B
 $$$479T       2 000034AE 00000001     H   23648 23633B
 $$$48F        2 000002B8 00000001     H    5533  5443B  5454B
 $$$482F       2 0000351E 00000001     H   23826 23800B
 $$$483F       2 00003556 00000001     H   23876 23850B
 $$$484        4 00003720 00000001     I   23909 23901X
 $$$485        4 00003720 00000001     I   23908 23909  23909
 $$$486S       2 00003588 00000001     H   23965 24003B
 $$$487F       2 00003594 00000001     H   23988 23975B
 $$$490S       2 000035A0 00000001     H   24017 24068B
 $$$491F       2 000035DA 00000001     H   24053 24027B
 $$$494F       2 00003622 00000001     H   24216 24089B 24158B
 $$$495F       2 0000360E 00000001     H   24167 24106B 24120B
 $$$498F       2 00003622 00000001     H   24212 24182B
 $$$50F        2 000002A2 00000001     H    5488  5471B
 $$$500F       2 00003764 00000001     H   24473 24448B
 $$$500S       2 00003750 00000001     H   24435 24470B
 $$$504F       2 000037BC 00000001     H   24580 24488B
 $$$505F       2 000037BA 00000001     H   24575 24549B
 $$$507F       2 00003832 00000001     H   24750 24724B
 $$$508S       2 0000384A 00000001     H   24808 24826B
1DISPATCH (DISP00) (09:38) (22MAR04) Ordinary Symbol and Literal Cross Reference                                            Page  318
 $$$51F        2 000002CA 00000001     H    5567  5549B
 $$$512F       2 000038A4 00000001     H   25005 24980B
 $$$512S       2 00003890 00000001     H   24967 25002B
 $$$516F       2 000038FC 00000001     H   25112 25020B
 $$$517F       2 000038FA 00000001     H   25107 25081B
 $$$519F       2 00003972 00000001     H   25263 25237B
 $$$52F        2 000002F8 00000001     H    5657  5621B
 $$$52T        2 000002E8 00000001     H    5624  5610B
 $$$520S       2 0000398A 00000001     H   25321 25339B
 $$$524F       2 000039E4 00000001     H   25518 25493B
 $$$524S       2 000039D0 00000001     H   25480 25515B
 $$$528F       2 00003A3C 00000001     H   25625 25533B
 $$$529F       2 00003A3A 00000001     H   25620 25594B
 $$$531F       2 00003AB2 00000001     H   25776 25750B
 $$$532S       2 00003ACA 00000001     H   25834 25852B
 $$$536F       2 00003B24 00000001     H   26031 26006B
 $$$536S       2 00003B10 00000001     H   25993 26028B
 $$$540F       2 00003B7C 00000001     H   26138 26046B
 $$$541F       2 00003B7A 00000001     H   26133 26107B
 $$$543F       2 00003BF2 00000001     H   26289 26263B
 $$$544S       2 00003C0A 00000001     H   26347 26365B
 $$$548F       2 00003C64 00000001     H   26532 26507B
 $$$548S       2 00003C50 00000001     H   26494 26529B
 $$$55F        2 00000314 00000001     H    5679  5667B
 $$$552F       2 00003CBC 00000001     H   26639 26547B
 $$$553F       2 00003CBA 00000001     H   26634 26608B
 $$$555F       2 00003D38 00000001     H   26781 26755B
 $$$556S       2 00003D56 00000001     H   26849 26867B
 $$$56F        2 000004EC 00000001     H    6376  5824B  6016B
 $$$560B       4 00003DD4 00000001     I   27028 27048
 $$$560F       2 00003DE6 00000001     H   27045 27028B 27047
 $$$562E       2 00003DEA 00000001     H   27055 27049
 $$$562F       2 00003DFC 00000001     H   27070 27051B
 $$$564F       2 00003E76 00000001     H   27213 27187B
 $$$565B       4 00003E7C 00000001     I   27227 27239
 $$$565F       2 00003E86 00000001     H   27236 27227B 27238
 $$$566E       2 00003E8A 00000001     H   27246 27240
 $$$566F       2 00003E90 00000001     H   27252 27242B
 $$$567B       4 00003E96 00000001     I   27263 27275
 $$$567F       2 00003E9E 00000001     H   27272 27263B 27274
 $$$568E       2 00003EA2 00000001     H   27282 27276
 $$$568F       2 00003EA6 00000001     H   27288 27278B
 $$$57F        2 00000376 00000001     H    5790  5764B
 $$$570B       4 00003EEC 00000001     I   27413 27433
 $$$570F       2 00003EFE 00000001     H   27430 27413B 27432
 $$$572E       2 00003F02 00000001     H   27440 27434
 $$$572F       2 00003F14 00000001     H   27455 27436B
 $$$573F       2 00003F88 00000001     H   27656 27574B
 $$$575B       4 00003F6C 00000001     I   27603 27615
 $$$575F       2 00003F74 00000001     H   27612 27603B 27614
 $$$576E       2 00003F78 00000001     H   27622 27616
 $$$576F       2 00003F7C 00000001     H   27628 27618B
 $$$577F       2 00003FF8 00000001     H   27837 27755B
 $$$579B       4 00003FDC 00000001     I   27784 27796
 $$$579F       2 00003FE4 00000001     H   27793 27784B 27795
 $$$580E       2 00003FE8 00000001     H   27803 27797
 $$$580F       2 00003FEC 00000001     H   27809 27799B
 $$$581F       2 0000404C 00000001     H   27974 27936B
 $$$583F       2 00004110 00000001     H   28189 28112B
1DISPATCH (DISP00) (09:38) (22MAR04) Ordinary Symbol and Literal Cross Reference                                            Page  319
 $$$585F       2 000040C8 00000001     H   28108 28082B
 $$$586F       2 0000410C 00000001     H   28156 28130B
 $$$588F       2 0000417A 00000001     H   28343 28317B
 $$$589F       2 0000419E 00000001     H   28414 28367B 28395B
 $$$589S       2 00004182 00000001     H   28359 28413B
 $$$59F        2 000003AA 00000001     H    5896  5843B
 $$$593F       2 00004210 00000001     H   28578 28552B
 $$$594F       2 00004234 00000001     H   28649 28602B 28630B
 $$$594S       2 00004218 00000001     H   28594 28648B
 $$$598B       4 00004286 00000001     I   28801 28836
 $$$598F       2 00004290 00000001     H   28833 28801B 28835
 $$$599E       2 00004294 00000001     H   28843 28837
 $$$599F       2 000042B0 00000001     H   28896 28839B
 $$$60         4 00000834 00000001     I    5880  5872X
 $$$600F       2 000042EA 00000001     H   28957 28942B
 $$$601F       2 00004300 00000001     H   28990 28968B
 $$$602F       2 000043AA 00000001     H   29313 29182B 29270B
 $$$603F       2 000043A6 00000001     H   29288 29142B
 $$$603S       2 00004342 00000001     H   29134 29287B
 $$$605F       2 0000435C 00000001     H   29186 29174B
 $$$606F       2 0000439E 00000001     H   29274 29203B
 $$$607F       2 00004382 00000001     H   29247 29220B
 $$$609F       2 0000441A 00000001     H   29515 29410B 29440B
 $$$609S       2 000043E0 00000001     H   29404 29514B
 $$$61         4 00000834 00000001     I    5879  5880   5880
 $$$613F       2 0000445A 00000001     H   29662 29630B
 $$$615F       2 000044A8 00000001     H   29831 29775B
 $$$616F       2 000044A8 00000001     H   29822 29803B
 $$$618B       4 000044E2 00000001     I   29950 29985
 $$$618F       2 000044EC 00000001     H   29982 29950B 29984
 $$$619E       2 000044F0 00000001     H   29992 29986
 $$$619F       2 0000450C 00000001     H   30045 29988B
 $$$62F        2 000003F2 00000001     H    5972  5911B
 $$$620F       2 000045D4 00000001     H   30395 30216B 30347B
 $$$621F       2 00004572 00000001     H   30220 30208B
 $$$622F       2 000045CA 00000001     H   30360 30259B
 $$$622S       2 0000457C 00000001     H   30251 30359B
 $$$624F       2 000045C2 00000001     H   30351 30278B
 $$$625B       4 0000459C 00000001     I   30301 30318
 $$$625F       2 000045A4 00000001     H   30315 30301B 30317
 $$$626E       2 000045A8 00000001     H   30325 30319
 $$$626F       2 000045B6 00000001     H   30333 30321B
 $$$628F       2 00004714 00000001     H   30982 30500B 30533B 30553B 30593B 30614B
 $$$63F        2 000003D0 00000001     H    5937  5925B
 $$$634B       4 00004672 00000001     I   30671 30687
 $$$634F       2 00004680 00000001     H   30681 30671B 30686
 $$$635E       2 00004684 00000001     H   30694 30688
 $$$635F       2 000046A4 00000001     H   30768 30690B
 $$$636F       2 000046A0 00000001     H   30749 30738B
 $$$636S       2 0000468E 00000001     H   30730 30748B
 $$$638F       2 00004712 00000001     H   30964 30787B
 $$$639F       2 000046EA 00000001     H   30908 30805B
 $$$64F        2 000003F2 00000001     H    5968  5956B
 $$$640F       2 000046EA 00000001     H   30904 30820B
 $$$641B       4 000046C4 00000001     I   30835 30852
 $$$641F       2 000046D2 00000001     H   30849 30835B 30851
 $$$642E       2 000046D6 00000001     H   30859 30853
 $$$642F       2 000046E0 00000001     H   30870 30855B
 $$$643F       2 00004712 00000001     H   30960 30938B
1DISPATCH (DISP00) (09:38) (22MAR04) Ordinary Symbol and Literal Cross Reference                                            Page  320
 $$$643T       2 000046FA 00000001     H   30941 30926B
 $$$645F       2 0000475C 00000001     H   31171 31113B
 $$$647F       2 0000479E 00000001     H   31335 31277B
 $$$649F       2 00004828 00000001     H   31572 31440B
 $$$65F        2 00000410 00000001     H    6027  5999B
 $$$651F       2 00004824 00000001     H   31541 31482B
 $$$651S       2 000047EE 00000001     H   31476 31540B
 $$$653B       4 000047FC 00000001     I   31499 31518
 $$$653F       2 0000480E 00000001     H   31515 31499B 31517
 $$$654E       2 00004812 00000001     H   31525 31519
 $$$654F       2 00004820 00000001     H   31536 31521B
 $$$656S       2 0000485E 00000001     H   31674 31754B
 $$$657F       2 0000486C 00000001     H   31697 31687B
 $$$658F       2 00004878 00000001     H   31718 31708B
 $$$659F       2 00004884 00000001     H   31739 31729B
 $$$662F       2 000048B2 00000001     H   31799 31770B
 $$$664F       2 00004914 00000001     H   32008 31937B 31963B
 $$$668F       2 0000498C 00000001     H   32173 32148B
 $$$669F       2 0000499C 00000001     H   32231 32215B
 $$$67F        2 0000044C 00000001     H    6136  6041B
 $$$670F       2 000049DA 00000001     H   32282 32256B
 $$$672F       2 00004A28 00000001     H   32360 32349B
 $$$673F       2 00004A80 00000001     H   32425 32399B
 $$$675F       2 00004C3C 00000001     H   33099 32704B
 $$$676F       2 00004B20 00000001     H   32689 32610B
 $$$676S       2 00004AEC 00000001     H   32602 32688B
 $$$678B       4 00004B02 00000001     I   32649 32664
 $$$678F       2 00004B0E 00000001     H   32659 32638B 32649B 32661
 $$$679B       4 00004AFC 00000001     I   32638 32662
 $$$68F        2 0000044C 00000001     H    6132  6053B
 $$$680E       2 00004B12 00000001     H   32671 32663  32665
 $$$680F       2 00004B1C 00000001     H   32679 32667B
 $$$682F       2 00004B64 00000001     H   32832 32753B 32822B
 $$$682S       2 00004B2E 00000001     H   32747 32831B
 $$$684F       2 00004B5C 00000001     H   32826 32768B 32780B 32814B
 $$$686F       2 00004B58 00000001     H   32817 32797B
 $$$688B       4 00004B66 00000001     I   32845 32908
 $$$688F       2 00004BAC 00000001     H   32905 32845B 32907
 $$$689F       2 00004BA2 00000001     H   32888 32863B
 $$$69F        2 00000432 00000001     H    6088  6070B
 $$$690E       2 00004BB0 00000001     H   32915 32909
 $$$690F       2 00004C3C 00000001     H   33070 32911B
 $$$691F       2 00004BBE 00000001     H   32944 32935B
 $$$692B       4 00004BE8 00000001     I   32988 33012
 $$$692F       2 00004C0E 00000001     H   33009 32988B 33011
 $$$693E       2 00004C12 00000001     H   33019 33013
 $$$693F       2 00004C1A 00000001     H   33026 33015B
 $$$694F       2 00004C28 00000001     H   33052 33043B
 $$$696B       4 00004CE6 00000001     I   33244 33256
 $$$696F       2 00004CF0 00000001     H   33253 33244B 33255
 $$$697E       2 00004CF4 00000001     H   33263 33257
 $$$697F       2 00004D10 00000001     H   33316 33259B
 $$$698B       4 00004D6C 00000001     I   33407 33432
 $$$698F       2 00004D94 00000001     H   33429 33407B 33431
 $$$699E       2 00004D98 00000001     H   33439 33433
 $$$699F       2 00004D9E 00000001     H   33445 33435B
 $$$70F        2 00000496 00000001     H    6207  6148B
 $$$700F       2 00004DB8 00000001     H   33495 33486B
 $$$701F       2 00004DDC 00000001     H   33531 33509B
1DISPATCH (DISP00) (09:38) (22MAR04) Ordinary Symbol and Literal Cross Reference                                            Page  321
 $$$703F       2 00004E72 00000001     H   33784 33758B
 $$$705F       2 00004EA6 00000001     H   33877 33831B
 $$$705S       2 00004E94 00000001     H   33824 33876B
 $$$707F       2 00004EF0 00000001     H   33941 33924B
 $$$708F       2 00004F48 00000001     H   34008 33982B
 $$$71F        2 00000474 00000001     H    6174  6162B
 $$$710F       2 000050DA 00000001     H   34624 34178B 34211B
 $$$713F       2 00004FF4 00000001     H   34255 34229B
 $$$714F       2 00005036 00000001     H   34319 34293B
 $$$715F       2 0000504C 00000001     H   34363 34331B
 $$$716F       2 00005066 00000001     H   34427 34381B
 $$$716S       2 00005054 00000001     H   34374 34426B
 $$$718F       2 0000509E 00000001     H   34518 34448B
 $$$719F       2 00005098 00000001     H   34513 34467B
 $$$719S       2 00005086 00000001     H   34460 34512B
 $$$72F        2 00000496 00000001     H    6203  6191B
 $$$721F       2 000050C6 00000001     H   34586 34532B
 $$$722B       4 000050AA 00000001     I   34547 34564
 $$$722F       2 000050B8 00000001     H   34561 34547B 34563
 $$$723E       2 000050BC 00000001     H   34571 34565
 $$$723F       2 000050C6 00000001     H   34582 34567B
 $$$725F       2 00005122 00000001     H   34788 34759B
 $$$726F       2 00005142 00000001     H   34847 34806B
 $$$726S       2 0000512A 00000001     H   34800 34846B
 $$$728F       2 00005162 00000001     H   34906 34865B
 $$$728S       2 0000514A 00000001     H   34859 34905B
 $$$73F        2 000004DE 00000001     H    6323  6221B
 $$$730F       2 0000519E 00000001     H   34994 34922B
 $$$730S       2 00005166 00000001     H   34916 34993B
 $$$732F       2 00005186 00000001     H   34979 34950B
 $$$733F       2 000051B8 00000001     H   35045 35029B
 $$$734F       2 000051CC 00000001     H   35072 35056B
 $$$735F       2 000051E0 00000001     H   35099 35083B
 $$$736F       2 000051F4 00000001     H   35126 35110B
 $$$738F       2 0000523E 00000001     H   35319 35294B
 $$$738S       2 0000522A 00000001     H   35281 35316B
 $$$74B        4 000004A2 00000001     I    6236  6254
 $$$74F        2 000004B2 00000001     H    6251  6236B  6253
 $$$742F       2 00005260 00000001     H   35390 35334B
 $$$743F       2 000052D6 00000001     H   35627 35509B 35542B
 $$$746S       2 000052C4 00000001     H   35574 35594B
 $$$749F       2 0000538A 00000001     H   35955 35707B 35750B 35781B 35801B 35833B
 $$$75E        2 000004B6 00000001     H    6261  6255
 $$$75F        2 000004C2 00000001     H    6273  6257B
 $$$755S       2 00005350 00000001     H   35852 35869B
 $$$758F       2 00005388 00000001     H   35927 35900B
 $$$76F        2 000004D0 00000001     H    6304  6286B
 $$$760B       4 000053C4 00000001     I   36048 36145
 $$$760F       2 00005412 00000001     H   36142 36048B 36144
 $$$761F       2 00005406 00000001     H   36133 36121B
 $$$761S       2 000053F2 00000001     H   36114 36132B
 $$$763E       2 00005416 00000001     H   36152 36146
 $$$763F       2 00005438 00000001     H   36214 36148B
 $$$767F       2 000055E2 00000001     H   36773 36669B
 $$$767S       2 000055A6 00000001     H   36663 36772B
 $$$769B       4 000055B0 00000001     I   36702 36718
 $$$769F       2 000055B6 00000001     H   36715 36702B 36717
 $$$77F        2 000004EC 00000001     H    6357  6339B
 $$$770E       2 000055BA 00000001     H   36725 36719
1DISPATCH (DISP00) (09:38) (22MAR04) Ordinary Symbol and Literal Cross Reference                                            Page  322
 $$$770F       2 000055BE 00000001     H   36732 36721B
 $$$773F       2 0000569E 00000001     H   37009 37000B
 $$$774B       4 000056A2 00000001     I   37021 37036
 $$$774F       2 000056BA 00000001     H   37033 37021B 37035
 $$$776E       2 000056BE 00000001     H   37043 37037
 $$$776F       2 000056C4 00000001     H   37050 37039B
 $$$78F        2 000005D2 00000001     H    6668  6445B  6581B
 $$$780F       2 000057BE 00000001     H   37468 37402B
 $$$780S       2 00005786 00000001     H   37396 37467B
 $$$782F       2 000057B6 00000001     H   37457 37433B
 $$$784F       2 00005824 00000001     H   37671 37659B
 $$$785F       2 00005854 00000001     H   37723 37707B
 $$$786F       2 00005872 00000001     H   37767 37758B
 $$$787F       2 000058A8 00000001     H   37847 37821B
 $$$788F       2 000058A8 00000001     H   37843 37834B
 $$$789F       2 000058DC 00000001     H   37920 37894B
 $$$790F       2 000058DC 00000001     H   37916 37907B
 $$$791F       2 00005910 00000001     H   37993 37967B
 $$$792F       2 00005910 00000001     H   37989 37980B
 $$$795F       2 00005C2E 00000001     H   38915 38577B
 $$$795S       2 00005AE8 00000001     H   38571 38597B 38612B 38914B
 $$$80F        2 00000572 00000001     H    6546  6520B
 $$$800F       2 00005D92 00000001     H   39175 39101B
 $$$800S       2 00005D64 00000001     H   39095 39174B
 $$$802F       2 00005D8A 00000001     H   39159 39147B
 $$$804F       2 00005E44 00000001     H   39448 39422B
 $$$83F        2 000005C0 00000001     H    6640  6614B
 $$$84F        2 00000640 00000001     H    6883  6761B  6835B
 $$$88F        2 000006D4 00000001     H    7087  6987B  7021B
 $$$89F        2 000006A4 00000001     H    6971  6945B
 $$$93F        2 00000740 00000001     H    7281  7154B  7188B
 $$$96F        2 00000720 00000001     H    7231  7222B
 $$$98F        2 000007EE 00000001     H    7530  7365B
 $$$98S        2 0000076E 00000001     H    7357  7529B
 $NLL0954      2 000000A8 00000001     I    4474  4478B
 $NLL12113
               2 00003568 00000001     I   23917 23921B
 $NLL1858      2 0000039E 00000001     I    5888  5892B
 $NLL5636      2 0000165A 00000001     I   12623 12627B
 $NLL5673      2 00001686 00000001     I   12694 12698B
 $NLL6856      2 00001D8E 00000001     I   14916 14920B
 $NLM0954      1 0000082C 00000001     R    4447  4465
 $NLM12113
               1 0000371E 00000001     R   23890 23908
 $NLM1858      1 00000832 00000001     R    5861  5879
 $NLM5636      1 00002336 00000001     R   12596 12614
 $NLM5673      1 0000233C 00000001     R   12667 12685
 $NLM6856      1 000023CE 00000001     R   14889 14907
 $OLL16128
               2 00004706 00000001     I   30952 30956B
 $OLL16613
               2 000048A0 00000001     I   31784 31788B
 $OLL16943
               2 00004A34 00000001     I   32373 32377B
 $OLL17573
               2 00004DD0 00000001     I   33523 33527B
 $OLL17812
               2 00004EFC 00000001     I   33954 33958B
 $OLL18973
1DISPATCH (DISP00) (09:38) (22MAR04) Ordinary Symbol and Literal Cross Reference                                            Page  323
               2 00005368 00000001     I   35884 35888B
 $OLL19775
               2 000057A2 00000001     I   37447 37451B
 $OLL3442      2 00000B4C 00000001     I    8673  8677B
 $OLL4181      2 00000E64 00000001     I    9982  9986B
 $OLL5199      2 00001364 00000001     I   11766 11770B
 $OLL6754      2 00001CFC 00000001     I   14692 14696B
 $OLL8124      2 000024BC 00000001     I   17128 17132B
 #ASPSWM       1 00000000 FFFFFFA3     X    8088  8262M  9079
 #ASWAKE       1 00000000 FFFFFFA3     J    8095  8162U
 @ACREATE      8 00000000 FFFFFFE4     J    1695 19688U 19903  19903  20207U 38442U 38450M 38450
 @ACRPSW       8 00000000 FFFFFFE4     D    1688 20438  38451M 38452M 38453M
 @ADVASB       4 00000000 FFFFFFC8     A    2453  8926M
 @ASCASB       4 00000000 FFFFFFC4     A    2562 19779M
 @ASCWSLM      4 00000004 FFFFFFC4     A    2563 19780M
 @ASWAKE       4 00000000 FFFFFFA2     J    8114  8155U  8162U 11399U 23172U 23584U 24199U 35914U
 @ASWASDB      4 00000000 FFFFFFA2     A    8107  8168  11401M 23174M 23586M 24201M 35916M
 @AWTFLG       1 00000004 FFFFFFEB     R    1488  1492
 @CPCCLK       8 00000008 FFFFFFD4     D    2102 18954M 19327M
 @CPCID        4 00000000 FFFFFFD4     A    2101 18855  19080
 @CPCNCK      32 00000000 FFFFFFD4     J    2110 18827U 19051U
 @CPCPARM      4 00000010 FFFFFFD4     A    2103 18837U 19061U
 @CPSCLK       8 00000000 FFFFFFD5     D    2076 18643
 @CPSET       20 00000000 FFFFFFD5     J    2085 18492U
 @CPSPARM      4 0000000C FFFFFFD5     A    2078 18632
 @CPSXIT       4 00000008 FFFFFFD5     A    2077 18631
 @DEMASDB      4 00000000 FFFFFF9D     A   22562  4841M  5206M 22368M 22466M 22618  24139M
 @DEMOTE       4 00000000 FFFFFF9D     J   22569  4839U  5204U 22366U 22610U 24137U
 @DISPPIOC
               4 00000000 FFFFFFE9     J    1561 23756U
 @DISPSAS      4 00000000 FFFFFFE5     A    1665 10747
 @DISPSIOC
               4 00000000 FFFFFFE8     J    1580 23353U
 @DISPSWP      4 00000000 FFFFFFE5     J    1672 10739U
 @DPIOASB      4 00000000 FFFFFFE9     A    1554 23764
 @DSIOASB      4 00000000 FFFFFFE8     A    1573 23375
 @DSPSCHG      8 00000008 FFFFFFD9     D    1960 36779M
 @DSPSDSP      8 00000010 FFFFFFD9     D    1961 36780M
 @DSPSIOS      8 00000018 FFFFFFD9     D    1962 36781M
 @DSPSST       8 00000000 FFFFFFD9     D    1959 36782M
 @DSPSTAT     32 00000000 FFFFFFD9     J    1969 36618U 36625U
 @EPAR         0 00000000 FFFFFFEF     @    1203  4261M  5672M  5930M  5961M  6167M  6196M 12294M 12452M 12932M 14302M
                                                 14487M 37005M
 @EXRADD      21 00000000 FFFFFFBC     J    2813 28745U
 @EXRAFLG      1 00000014 FFFFFFBC     R    2795  2799   2804
 @EXRAFQ     128 00000014 FFFFFFBC         2799 28941
 @EXRAFS      64 00000014 FFFFFFBC         2804 28967
 @EXRDCD       1 00000000 FFFFFFBA     R    2854  2863   2873
 @EXRDEL       4 00000000 FFFFFFBB     J    2836 29089U
 @EXRDID       4 00000000 FFFFFFBB     A    2829 29202
 @EXRDONE      1 00000000 FFFFFFBA     J    2882 32092U
 @EXRPARM      4 00000010 FFFFFFBC     A    2792 28931
 @EXRPSW       8 00000008 FFFFFFBC     D    2791 28930
 @EXRQUAL      4 00000004 FFFFFFBC     A    2790 28953
 @EXRTYPE      4 00000000 FFFFFFBC     A    2789 28929
 @GCBDEL       4 00000000 FFFFFF9C     J   24649 17886U 17894M 17894  18116U 18124M 18124  18364U 18372M 18372  20479U
                                                 20487M 20487  21241U 21249M 21249  21268M 21268  21317M 21317  21502U
                                                 21510M 21510  24690U 25203U 25716U 26229U 26735U
 @GCBDLOC      4 00000000 FFFFFF9C     A   24642 17895M 18125M 18373M 20488M 20503M 21250M 21269M 21318M 21511M 24698
1DISPATCH (DISP00) (09:38) (22MAR04) Ordinary Symbol and Literal Cross Reference                                            Page  324
                                                 25211  25724  26237  26743
 @IPLKLEN      4 00000004 FFFFFFCA     A    2368 38144
 @IPLKLOC      4 00000000 FFFFFFCA     A    2367 38143
 @IPLMLEN      4 0000000C FFFFFFCA     A    2370 38146
 @IPLMLOC      4 00000008 FFFFFFCA     A    2369 38145
 @IPLPARM     20 00000000 FFFFFFCA     J    2378 38110U
 @IPLSLOC      4 00000010 FFFFFFCA     A    2371 38147
 @LFSPIN     128 00000010 FFFFFFD2         2161 38548M
 @LOCKCRE     17 00000000 FFFFFFD2     J    2170 38528U 38536M 38536  39333U 39341M 39341
 @LOCKFL       1 00000010 FFFFFFD2     R    2157  2161
 @LOCKID       4 00000000 FFFFFFD1     A    2182  4527M  4737M  5587M  8279M  9073M 16523M 16681M 16998M 17079M 17555M
                                                 17757M 18242M 18414M 19948M 20029M 20584M 20624M 21059M 21177M 21348M
                                                 21482M 23952M 24236M
 @LOCKNAM     16 00000000 FFFFFFD2     C    2154 38542M 39347M
 @LOCKS        4 00000000 FFFFFFD1     J    2189  4521U  4731U  5581U  8273U  9067U 16517U 16675U 16992U 17549U 18236U
                                                 18408U 19937U 20018U 20573U 21053U 21342U 23946U 24230U
 @MONSDAT      2 00000000 FFFFFFDA     H    1936 37291
 @MONSET       2 00000000 FFFFFFDA     J    1943 37247U
 @PAGASC1      8 00000000 FFFFFFC4     J    2570 19770U 19778M 19778
 @PAGE         9 00000000 FFFFFFC2     J    2612 36171U 36179M 36179  36355U 36363M 36363
 @PAGIASB      4 00000000 FFFFFFBF     A    2664 38197M
 @PAGIMEG      4 00000004 FFFFFFBF     A    2665 38196M
 @PAGINIT      8 00000000 FFFFFFBF     J    2672 38187U 38195M 38195
 @PAGKEY       1 00000008 FFFFFFC2     X    2604  2605
 @PAGLEN       4 00000004 FFFFFFC2     A    2603 36206M 36390M
 @PAGLOC       4 00000000 FFFFFFC2     A    2602 36189M 36373M
 @PAGSWADV
               4 00000000 FFFFFFC8     J    2460  8917U  8925M  8925
 @PAGSWAP      5 00000000 FFFFFFC9     J    2441 21903U 21911M 21911  22685U 22693M 22693
 @PAGWSMA     13 00000000 FFFFFFC7     J    2490 16124U 16132M 16132
 @PDF1         1 00000009 FFFFFFC6     R    2508  2509   2514
 @PERSDAT      4 00000000 FFFFFFDB     F    1913 37166
 @PERSET      12 00000000 FFFFFFDB     J    1920 37127U
 @RA           0 00000000 FFFFFFFC     @    1035  9469   9839  12036  12049  12114  12256M 12257  14707  19900  19903M
                                                 21011M 21087  21157M 21365  21472M 21996  26513  26650  26660M 27020
                                                 27033M 27034M 27066M 27232M 27268M 27405  27418M 27419M 27451M 27562
                                                 27579  27608M 27629M 27743  27760  27789M 27810M 27924  27941  28061
                                                 28081  28117  28129  28365  28419M 28600  28654M 29140  29208M 30257
                                                 30283M 32608  32655M 33422  33424M 33818  33878M 34368  34428M 34454
                                                 34514M 36108  36138  36158  36395M 38842  38893
 @RB           0 00000000 FFFFFFFB     @    1047 13485M 13486  24811  25324  25837  26350  26852  36107  36126M 36128
                                                 36137M
 @RESLC        4 00000004 FFFFFFE6     A    1642 11582
 @RESUME       8 00000000 FFFFFFE6     J    1649 11185U 11492U
 @RESUNIT      4 00000000 FFFFFFE6     A    1641 11193  11516
 @RJ           0 00000000 FFFFFFFA     @    1059 17015  17068  17069M 18662  18715  18716M 26754  26789  26799M 26851M
                                                 31504M 35506  35798  36733
 @RK           0 00000000 FFFFFFF9     @    1071 20356M 38775
 @RM           0 00000000 FFFFFFF6     @    1107 22494
 @RN           0 00000000 FFFFFFF5     @    1119 30207  30497
 @RS           0 00000000 FFFFFFFD     @    1023 10648  14738  17644  17661  17670  17727  17739M 18262  18316M 19162
                                                 19179  19188  19245  19257M 22835  30631  33002  33005M
 @RTCCLK       8 00000008 FFFFFFD7     D    2027 17344M 17356  17368M 17368  17386  17389  17390M 17782M 17794  17806M
                                                 17806  17824  17827  17828M
 @RTCID        4 00000000 FFFFFFD7     A    2026 17265  17520
 @RTCNCK      32 00000000 FFFFFFD7     J    2035 17237U 17491U
 @RTCPARM      4 00000010 FFFFFFD7     A    2028 17247U 17501U
 @RTSCLK       8 00000000 FFFFFFD8     D    1992 16940  16952  16969
 @RTSET       24 00000000 FFFFFFD8     J    2010 16813U
1DISPATCH (DISP00) (09:38) (22MAR04) Ordinary Symbol and Literal Cross Reference                                            Page  325
 @RTSFINT    128 00000008 FFFFFFD8         1999 16918
 @RTSFLG       1 00000008 FFFFFFD8     R    1995  1999
 @RTSPARM      4 00000010 FFFFFFD8     A    2003 16905
 @RTSXIT       4 0000000C FFFFFFD8     A    2002 16904
 @RX           0 00000000 FFFFFFF8     @    1083 11538  30550  34175
 @RY           0 00000000 FFFFFFF7     @    1095  8179  11204  11266  23410  23799  35704  35747
 @R0           0 00000000 FFFFFFFE     @     715   991U 38054U
 @R1           0 00000000 FFFFFFFD     @     728   987U  9044U  9696U 10770U 11887U 17710U 19228U 23212U 23670U 30578U
                                                 32238U 38382U 38415U 39066U 39223U
 @R10          0 00000000 FFFFFFF4     @     845   951U  5699U  6374U  6666U  6881U  7085U  7279U  7542U  7705U  7870U
                                                  7936U  8057U  9148U  9527U  9713U 10148U 10569U 10680U 11041U 11126U
                                                 11430U 11929U 12148U 12376U 13028U 13422U 14188U 14583U 15088U 15283U
                                                 15480U 15676U 15874U 16438U 16702U 17176U 17433U 17929U 18154U 18430U
                                                 18766U 18993U 19370U 19601U 20142U 20756U 21668U 22521U 23290U 23693U
                                                 24262U 24609U 24853U 25141U 25366U 25654U 25879U 26167U 26392U 26673U
                                                 26889U 27088U 27312U 27473U 27654U 27835U 27972U 28187U 28441U 28676U
                                                 29026U 29311U 29532U 29679U 29848U 30108U 30393U 31002U 31169U 31333U
                                                 31570U 31821U 32032U 32491U 33097U 33608U 34069U 34622U 35151U 35424U
                                                 35625U 35953U 36234U 36420U 36541U 36803U 36913U 37069U 37189U 37315U
                                                 37485U 38017U 38230U 38946U 39254U 39465U
 @R11          0 00000000 FFFFFFF3     @     858   947U
 @R12          0 00000000 FFFFFFF2     @     871   943U  9143U  9522U 10143U 11036U 11425U 11924U 16433U 17171U 17428U
                                                 17924U 18149U 18761U 18988U 19365U 20137U 20751U 22516U 23285U 23688U
                                                 24257U 24848U 25361U 25874U 26387U 26884U 27083U 27307U 27468U 27649U
                                                 27830U 27967U 28182U 28436U 28671U 29021U 29306U 30103U 30388U 30997U
                                                 31164U 31328U 31565U 31816U 32486U 33603U 34064U 34617U 35146U 35419U
                                                 35620U 35948U 36415U 36798U 37184U 37310U 38012U 38225U
 @R13          0 00000000 FFFFFFF1     @     884   939U  4518U  4668U  4728U  4836U  4939U  5201U  5256U  5578U  5710U
                                                  6385U  7553U  8391U  8436U  8482U  8779U  8825U  8914U  8945U  9064U
                                                  9159U 11441U 11940U 15294U 15491U 15687U 15885U 16249U 16449U 16593U
                                                 16672U 16713U 16989U 17187U 17851U 17883U 17940U 18081U 18113U 18165U
                                                 18329U 18361U 18405U 18441U 18777U 19612U 19934U 19966U 20015U 20064U
                                                 20153U 20288U 20423U 20476U 20570U 20767U 21238U 21339U 21499U 21679U
                                                 21900U 21942U 22363U 22532U 22754U 23169U 23301U 23704U 24134U 24196U
                                                 24227U 24273U 24620U 25152U 25665U 26178U 26684U 29037U 29322U 29543U
                                                 30119U 31013U 33349U 33545U 33619U 34080U 34345U 34633U 35007U 35162U
                                                 35435U 35964U 36168U 36245U 36431U 38184U 38241U 38439U 38525U 38637U
                                                 38957U 39386U 39476U
 @R14          0 00000000 FFFFFFF0     @     897   935U
 @R15          0 00000000 FFFFFFEF     @     910   931U
 @R2           0 00000000 FFFFFFFC     @     741   983U  4364U  4620U  7521U 11016U 15078U 16214U 16692U 17156U 18139U
                                                 18390U 18751U 19591U 20638U 21923U 22705U 22911U 24599U 25131U 25644U
                                                 26157U 29659U 29828U 34843U 34902U 34990U 35409U 38487U 38510U 39171U
 @R3           0 00000000 FFFFFFFB     @     754   979U 15073U 17141U 20644U 21429U 23091U 29284U 29511U 30378U 30765U
                                                 32685U 33873U 34423U 34509U 39217U
 @R4           0 00000000 FFFFFFFA     @     767   975U 10042U 10098U 11892U 16418U 17685U 17914U 19203U 19355U 22388U
                                                 22486U 24843U 25356U 25869U 26382U 35615U 35938U 37464U 38911U
 @R5           0 00000000 FFFFFFF9     @     780   971U 12709U 13509U 20736U 31550U 32471U 33077U
 @R6           0 00000000 FFFFFFF8     @     793   967U  5694U  6364U  6651U  6871U  7075U  7269U  9133U  9512U  9708U
                                                  9898U 10120U 10133U 10350U 11021U 11914U 12367U 15273U 15470U 15666U
                                                 15864U 16423U 16697U 17161U 17410U 17919U 18144U 18425U 18970U 20117U
                                                 20379U 20741U 21287U 21645U 21658U 22511U 23275U 23683U 24247U 24399U
                                                 24604U 24785U 24838U 24931U 25136U 25298U 25351U 25444U 25649U 25811U
                                                 25864U 25957U 26162U 26324U 26377U 26471U 26668U 26826U 26879U 28426U
                                                 28661U 29011U 29296U 29522U 29669U 29838U 30974U 31154U 31318U 31555U
                                                 31806U 32022U 32476U 33087U 33585U 33850U 34054U 34400U 34486U 34607U
                                                 35136U 35245U 35414U 35610U 36793U 36903U 37174U 37300U 37480U 38002U
                                                 38941U 39249U 39455U
 @R7           0 00000000 FFFFFFF7     @     806   963U  5689U  6369U  6661U  6876U  7080U  7274U  7537U  7700U  7865U
1DISPATCH (DISP00) (09:38) (22MAR04) Ordinary Symbol and Literal Cross Reference                                            Page  326
                                                  9138U  9517U 10138U 10564U 10675U 11031U 11121U 11254U 11420U 11919U
                                                 12911U 13213U 13327U 13804U 14093U 14466U 15083U 15278U 15475U 15671U
                                                 15869U 16428U 17166U 18756U 19360U 19596U 20122U 20746U 21404U 21663U
                                                 22175U 23280U 23398U 23678U 23787U 24252U 27078U 27302U 27463U 27644U
                                                 27825U 27962U 28177U 28431U 28666U 29016U 29301U 29527U 29674U 29843U
                                                 30098U 30383U 30992U 31159U 31323U 31560U 31811U 32027U 32481U 33092U
                                                 33598U 34059U 34612U 35141U 35735U 35943U 36229U 36410U 36536U 36769U
                                                 36908U 37064U 37179U 37305U 38007U 39460U
 @R8           0 00000000 FFFFFFF6     @     819   959U  6656U 20127U 21196U 38906U
 @R9           0 00000000 FFFFFFF5     @     832   955U  4489U  6507U  6744U  8703U  9644U 19719U 20132U 21653U 22506U
                                                 28828U 29006U 29977U 30093U 30718U 30979U 31149U 31313U 33082U 39166U
 @SDF1         1 00000009 FFFFFFC5     R    2540  2541
 @SGECB        4 00000008 FFFFFFEA     A    1519  4353M
 @SIGNAL      20 00000000 FFFFFFEA     J    1532  4328U  4336M  4336
 @STKDEL       4 00000000 FFFFFF98     J   36275 29234U 34348U 34773U 34965M 34965  36316U
 @STKDLOC      4 00000000 FFFFFF98     A   36268 29236M 34350M 34775M 34966M 36338
 @SUSPAS      64 00000008 FFFFFFE7         1610  9823
 @SUSPEND      9 00000000 FFFFFFE7     J    1624  9775U
 @SUSPFLG      1 00000008 FFFFFFE7     R    1601  1605   1610   1615
 @SUSPID       4 00000000 FFFFFFE7     A    1597  9869M  9991M 10090M
 @SUSPLC       4 00000004 FFFFFFE7     A    1598  9992M 10091M
 @SUSPLNG    128 00000008 FFFFFFE7         1605  9938  10073
 @SUSPPLC     32 00000008 FFFFFFE7         1615  9914
 @SWASB        4 00000000 FFFFFFC9     A    2399 21912M 22694M
 @SWFLG        1 00000004 FFFFFFC9     R    2403  2412   2422   2432  21922  22704
 @SYSPARS      4 00000000 FFFFFFDC     A    1890  7447M 18014
 @SYSRASB      4 00000004 FFFFFFDD     A    1865 16606M 35693
 @SYSRDEL      4 00000000 FFFFFFDE     J    1848 17854U 17862M 17862  18084U 18092M 18092  18332U 18340M 18340  35486U
 @SYSRDID      4 00000000 FFFFFFDE     A    1841 17863M 18093M 18341M 35495
 @SYSRDO      28 00000000 FFFFFFDD     J    1874 16596U 16604M 16604  35684U
 @SYSRID       4 00000000 FFFFFFDD     A    1864 16605M 35787
 @SYSRLOC      4 00000008 FFFFFFDD     A    1866 16607M 35842
 @SYSRNEW      4 00000000 FFFFFFDF     J    1826 16887U 16895M 16895  35214U
 @SYSRPRM      4 0000000C FFFFFFDD     A    1867 16608M 35843
 @SYSRTN      16 00000000 FFFFFFDC     J    1897  7445U 17992U
 @TCLTDB       4 00000000 FFFFFF99     A   34658 33733M 34270M 34731
 @TCLUP        4 00000000 FFFFFF99     J   34665 33731U 34268U 34706U
 @TCREATE     21 00000000 FFFFFFE3     J    1734 20426U 20434M 20434  33180U
 @TCRFLAG      1 00000014 FFFFFFE3     R    1716  1720   1725
 @TCRFPABS
              64 00000014 FFFFFFE3         1725 20451M 33485
 @TCRFSTK    128 00000014 FFFFFFE3         1720 20444M 33406
 @TCRPARM      4 00000008 FFFFFFE3     A    1712 20438M 33424  33441
 @TCRPRIO      4 00000010 FFFFFFE3     A    1713 20445M 33475
 @TCRPSW       8 00000000 FFFFFFE3     D    1711 20435M 20436M 20437M 33396
 @TEXIT        4 00000000 FFFFFFE0     J    1803 33670U
 @TREID        4 00000000 FFFFFFE2     A    1750 34164
 @TREMOVE      4 00000000 FFFFFFE2     J    1757 34132U
 @UPDPRIO      5 00000000 FFFFFFA1     J    9200  8439U  8447M  8447   8782U  8790M  8790   9262U  9269U 16252U 16260M
                                                 16260
 @UPPASDB      4 00000000 FFFFFFA1     A    9184  8458M  8801M  9275  16271M
 @UPPFL        1 00000004 FFFFFFA1     R    9187  9191
 @UPPTSE     128 00000004 FFFFFFA1         9191  9353  16277M
 @VMCASB       4 00000000 FFFFFFCB     A    2340 20264M
 @VMCRAS       4 00000000 FFFFFFCB     J    2347 20255U 20263M 20263
 @VMFLEN       4 00000004 FFFFFFCE     A    2264 29489M 39402M
 @VMFLOC       4 00000000 FFFFFFCE     A    2263 29499M 39407M
 @VMFPOOL      2 00000008 FFFFFFCE     H    2265 29500M 39408M
 @VMFREE      10 00000000 FFFFFFCE     J    2272 29464U 29472M 29472  39389U 39397M 39397
1DISPATCH (DISP00) (09:38) (22MAR04) Ordinary Symbol and Literal Cross Reference                                            Page  327
 @VMGET       11 00000000 FFFFFFCF     J    2251 18565U 18573M 18573  20291U 20299M 20299  24509U 24517M 24517  25041U
                                                 25049M 25049  25554U 25562M 25562  26067U 26075M 26075  26568U 26576M
                                                 26576  28861U 28869M 28869  30010U 30018M 30018  33281U 33289M 33289
                                                 35355U 35363M 35363  36069U 36077M 36077  38305U 38313M 38313  38640U
                                                 38648M 38648  38719M 38719  38816M 38816  38867M 38867
 @VMGFLG       1 0000000A FFFFFFCF     R    2233  2237   2242
 @VMGLEN       4 00000000 FFFFFFCF     A    2228 18590M 20316M 24534M 25066M 25579M 26092M 26593M 28886M 30035M 33306M
                                                 35380M 36090M 38330M 38665M 38731M 38828M 38879M
 @VMGPAGE    128 0000000A FFFFFFCF         2237 36097M
 @VMGPOOL      2 00000008 FFFFFFCF     H    2230 18591M 20317M 24535M 25067M 25580M 26093M 26594M 28887M 30036M 33307M
                                                 35381M 36091M 38331M 38666M 38732M 38829M 38880M
 @VMIKLEN      4 00000004 FFFFFFCC     A    2313 38144M
 @VMIKLOC      4 00000000 FFFFFFCC     A    2312 38143M
 @VMIMLEN      4 0000000C FFFFFFCC     A    2315 38146M
 @VMIMLOC      4 00000008 FFFFFFCC     A    2314 38145M
 @VMIPARM     20 00000000 FFFFFFCC     J    2323 38134U 38142M 38142
 @VMISLOC      4 00000010 FFFFFFCC     A    2316 38147M
 @WAR          0 00000000 FFFFFFF2     @    1167 10409  12192  12508  13138  13662  14358  20997  21225
 @WSASB        4 00000000 FFFFFFC7     A    2472 16133M
 @WSFLG        1 0000000C FFFFFFC7     R    2477  2481
 @WSINT        4 00000004 FFFFFFC7     A    2473 16134M
 @WSLIMIT      4 00000008 FFFFFFC7     A    2474 16135M
 @XITDEL       4 00000000 FFFFFFB8     J    2936 30171U 35010U 35018M 35018
 @XITDID       4 00000000 FFFFFFB8     A    2929 30196  35034M 35061M 35088M 35115M
 @XITDO       32 00000000 FFFFFFB7     J    2962 15182U 15190M 15190  15380U 15388M 15388  15577U 15585M 15585  15773U
                                                 15781M 15781  18040U 18048M 18048  19507U 19515M 19515  30453U
 @XITGPST    104 00000000 FFFFFFB6     J    2988 31065U 31142M 31229U 31306
 @XITMASK      5 00000000 FFFFFFB5     J    3045 31391U 31630U
 @XITMREQ      1 00000004 FFFFFFB5     R    3007  3016   3026   3036
 @XITMSK       4 00000000 FFFFFFB5     A    3004 31430  31487  31693  31714  31735
 @XITMSN       1 00000004 FFFFFFB5         3026 31707
 @XITMSO       0 00000004 FFFFFFB5         3016 31686
 @XITMSS       2 00000004 FFFFFFB5         3036 31728
 @XITNEW       1 00000000 FFFFFFB9     J    2913 29908U 33352U 33360M
 @XITNFL       1 00000000 FFFFFFB9     R    2900  2904
 @XITPARM     16 00000010 FFFFFFB7     X    2955 15213U 15411U 15608U 15804U 18057U 19524U 30638
 @XITQUAL      4 0000000C FFFFFFB7     A    2954 30637
 @XITRQID      4 00000000 FFFFFFB7     A    2951 15195M 15393M 15590M 15786M 18049M 19516M 30486
 @XITTSK       4 00000004 FFFFFFB7     A    2952 15206M 15404M 15601M 15797M 18050M 19517M 30539
 @XITTYPE      1 00000008 FFFFFFB7     X    2953 15207M 15405M 15602M 15798M 18051M 19518M 30577
 ACPUTIME      4 00005672 00000001     I   36945 19631  36940  36956U
 ACREATE       4 00002ABC 00000001     I   19661 19656  19672U 39498
 ACTASDB       4 00000502 00000001     I    6411  5562   6422U
 ACTASDB1      2 000004F6 00000001     H    6406  6405
 ACTTDB        4 00000656 00000001     I    6915  6352   6926U
 ACTTDB1       2 0000064A 00000001     H    6910  6909
 ASB          68 00000000 FFFFFFEC     J    1467  6474U  9684U 10757U 11241U 19754U 20525U 20852U 21072U 23385U 23774U
                                                 25472U 25574  25635M 25635  25636M 25734U 25749  25783M 25783  25784M
                                                 35722U 38474U
 ASBASDB       4 0000001C FFFFFFEC     A    1449 10763  11247  19817M 23391  23780  35728  38480
 ASBGCFLG      1 00000014 FFFFFFEC     R    1437  1441
 ASBLASP       8 00000008 FFFFFFEC     D    1427  6513   9689
 ASBNEXT       4 00000004 FFFFFFEC     A    1423 20593M 21112  21157  21164M 21164  25499  25836M
 ASCRE2        4 00002C22 00000001     I   20180 20191U 24287
 ASCRE21       2 00002C16 00000001     H   20175 20174
 ASDB        200 00000000 FFFFFFAA     J    3831  4635U  5804U  5870   5870   5887   5887   5891M  5891M  6460U  6776U
                                                  7002U  7169U  7345U  7684U  7769U  8216U  9285U  9793U  9979   9979
                                                  9981   9981   9985M  9985M 10238U 10633U 10781U 10796  11105U 11303U
                                                 11510U 11763  11763  11765  11765  11769M 11769M 12862U 13166U 13278U
1DISPATCH (DISP00) (09:38) (22MAR04) Ordinary Symbol and Literal Cross Reference                                            Page  328
                                                 13757U 14044U 14417U 14642U 14689  14689  14691  14691  14695M 14695M
                                                 14898  14898  14915  14915  14919M 14919M 15152U 15350U 15547U 15743U
                                                 15976U 16831U 18510U 19076U 19435U 19812U 20225U 20824U 21407U 21424U
                                                 21884U 22330U 22438U 22628U 23447U 23836U 23899  23899  23916  23916
                                                 23920M 23920M 24427U 24529  24590M 24590  24591M 24708U 24723  24757M
                                                 24757  24758M 27005U 27065M 27164U 27248M 27284M 27390U 27450M 27589U
                                                 27624M 27770U 27805M 27951U 28166U 28286U 28521U 28763U 29107U 29377U
                                                 29599U 29743U 29926U 30189U 30471U 30949  30949  30951  30951  30955M
                                                 30955M 31083U 31247U 31409U 31648U 31781  31781  31783  31783  31787M
                                                 31787M 31892U 32110U 32370  32370  32372  32372  32376M 32376M 32560U
                                                 33198U 33520  33520  33522  33522  33526M 33526M 33688U 33951  33951
                                                 33953  33953  33957M 33957M 34150U 34724U 35765U 35881  35881  35883
                                                 35883  35887M 35887M 36023U 36334U 36519U 36869U 36977U 37145U 37265U
                                                 38498U
 ASDBACCT     64 00000024 FFFFFFAA         3741 16027  36528M
 ASDBASB       4 00000004 FFFFFFAA     A    3717  6464   8926   9869  16133  16876  19816M 20264  20515  20842  21912
                                                 22694
 ASDBATDB      4 0000003C FFFFFFAA     A    3774  5025   6006   6022M  6033   6089M  8344  28353  28588  33916  33929M
                                                 34453
 ASDBCCPT      8 000000A0 FFFFFFAA     D    3820  6481   6798M 19827M 19828  19829
 ASDBCCPU      4 00000018 FFFFFFAA     A    3725  6547M  6812M  6812
 ASDBCHN       4 00000008 FFFFFFAA     A    3718 19953M 20051M 21413  21472
 ASDBCPTQ      4 00000060 FFFFFFAA     A    3785 18650  18731  19149  19442  19497M 19541
 ASDBCTDB      4 00000038 FFFFFFAA     A    3773  4999   5978   6023M  6128M  6318M  6318   6553   7011   7178   7255M
                                                  7255   8331   9888  11739  15156  15354  15551  15747  15980  16877
                                                 18630  19137  19866M 20229  20359M 20828  21020M 28767  29111  29381
                                                 29603  29747  31087  31251  31413  31652  31896  32114  32564  33202
                                                 33692  33897M 33897  33937M 34228  36873  37149  37269
 ASDBDFLG      1 00000024 FFFFFFAA     R    3732  3736   3741   3746
 ASDBERBS      4 00000048 FFFFFFAA     A    3777 30074  30075M 30244
 ASDBFCPQ      4 00000074 FFFFFFAA     A    3793 18519  18612M 19340  19341M 19539  19540M
 ASDBFERB      4 00000068 FFFFFFAA     A    3790 29942  29970M 30328  30329M 32355  32356M
 ASDBFESB      4 0000006C FFFFFFAA     A    3791 28793  28821M 29255  29256M 34982  34983M
 ASDBFSTK      4 00000070 FFFFFFAA     A    3792 36046  36137  36138M 36157  36158M 36395  36396M
 ASDBFTDB      4 00000064 FFFFFFAA     A    3789 33223  33249M 33909  33910M 34592  34593M
 ASDBHPRI      2 0000001E FFFFFFAA     H    3727  9502   9504  11112M 19821M
 ASDBIFLG      1 00000028 FFFFFFAA     R    3755  3759   3764
 ASDBLOCK      4 00000030 FFFFFFAA     A    3771  5820   7486   7692   7693M  7782   7813M 10315  13179  13770  19838M
                                                 32298M 32298  33904M 33904
 ASDBLPRI      2 00000020 FFFFFFAA     H    3728  9496   9498  11113M
 ASDBNEXT      4 0000000C FFFFFFAA     A    3722 24454  24810M 27041M 27041  27063M 27063  27065M 27232  27248M 27248
                                                 27255  27426M 27426  27449M 27595  27805M
 ASDBNLTW      2 00000050 FFFFFFAA     H    3780  5076   6246   6247M 11670  11672M 30843  30845M 34555  34557M
 ASDBNSTW      2 0000004E FFFFFFAA     H    3779  6268   6269M 11698  11700M 30864  30866M 34576  34578M
 ASDBNTDB      2 0000004C FFFFFFAA     H    3778  5076  19867M 20896  20932  33335  33336M 33881  33883M 34431  34433M
 ASDBPAGN      4 00000090 FFFFFFAA     A    3800  8868  22134  22720M 22867  22975M 23484  28170
 ASDBPFLT     64 00000028 FFFFFFAA         3764 14655  14689  14691  14691  14695M 14898  14898  14915  14919M 23849
                                                 23899  23899  23916  23920M
 ASDBPREV      4 00000010 FFFFFFAA     A    3723 22334  22442  27064M 27219  27284M 27448M 27448  27450M 27624M 27776
 ASDBPZTS    128 00000024 FFFFFFAA         3736  5442   6805M  9380M
 ASDBQADD      4 00000014 FFFFFFAA     A    3724  8371   8724   9298  22736  22763  22985  23002  24087  27071M 27186
                                                 27295M 27295  27456M 27636M 27636  27817M 27817
 ASDBSCPU      8 000000A8 FFFFFFAA     D    3821 16014  16407M 19828M 37054
 ASDBSFLG      1 0000009C FFFFFFAA     R    3805  3809   3814
 ASDBSHCT      4 00000098 FFFFFFAA     A    3802  4789   5107   5149M  5185  10640  10649M 10827  10869M 14731  14739M
                                                 14924  14966M 16309  16351M 19837M 20649  20691M 22064M 22120M 22347
                                                 22455  22658  24012  24054M
 ASDBSLC       8 000000B0 FFFFFFAA     D    3822  9398M  9482M 16222  16382  19829M 20985M
 ASDBSOIP     64 0000009C FFFFFFAA         3814 22726M 23463  23475M
1DISPATCH (DISP00) (09:38) (22MAR04) Ordinary Symbol and Literal Cross Reference                                            Page  329
 ASDBSPRI      2 00000022 FFFFFFAA     H    3729  4763   5346   6500   8605   8865   8870   9505M 10920  11114M 14804M
                                                 14804  19823M 22131  24094  27012  27171  27397  27955
 ASDBSTDB      4 00000044 FFFFFFAA     A    3776  5012   5909   7363   7383M  8318  35847  35855M
 ASDBSTK       4 00000034 FFFFFFAA     A    3772 20403M 20462  33717
 ASDBSUSP      4 0000002C FFFFFFAA     A    3767  4889   8303   9832   9840M 11310  11353M 14700  14708M 14824  14853M
                                                 21989  21997M 22828  22836M 23145  23512  23541M 23960  23989M 24180
                                                 35898
 ASDBSWTS    128 0000009C FFFFFFAA         3809  5095   5106M 16297  16308M 22063M 22119M
 ASDBTCPU      8 000000B8 FFFFFFAA     D    3823  7061   7235   9397   9481  16041  16043M 19484  36529  36892  37055
 ASDBTDBS      4 00000040 FFFFFFAA     A    3775 20362M 21019M 33329  33330M 33817  34367
 ASDBTDSP    128 00000028 FFFFFFAA         3759  5607   5842   5870   5870   5887   5891M  7837   9967   9979   9981
                                                  9981   9985M 10268  10460  11763  11765  11765  11769M 12888  13304
                                                 14070  14443  30949  30951  30951  30955M 31781  31783  31783  31787M
                                                 32370  32372  32372  32376M 33520  33522  33522  33526M 33951  33953
                                                 33953  33957M 35881  35883  35883  35887M
 ASDBTERM     32 00000024 FFFFFFAA         3746 16109  20965M 35778
 ASDBTIMR      8 00000058 FFFFFFAA     D    3784 16045  16384  18737M 19564M 19580M 19832M 20984M
 ASDBTPRI      2 0000001C FFFFFFAA     H    3726  9362   9389M  9432   9475M  9492  19822M
 ASDBWSIN      8 00000078 FFFFFFAA     D    3797 16085  16094  19830M 19831  38503M
 ASDBWSLC      8 00000080 FFFFFFAA     D    3798 16088  16090M
 ASDBWSLM      4 00000094 FFFFFFAA     A    3801 16135  19836M
 ASDBWSNC      8 00000088 FFFFFFAA     D    3799 16069  16096M 19831M
 ASDBWTST      8 000000C0 FFFFFFAA     D    3824  4863M  4927M  5063M  9423
 ASDISP        4 00000022 00000001     I    4225  4236U 11960  16730  24310  33124  36445
 ASDISP1       2 00000016 00000001     H    4220  4219
 ASDLP         2 00000086 00000001     H    4398  5648B
 ASEXIT        4 00002DC4 00000001     I   20792 20787  20803U
 ASLOCK        4 0000087E 00000001     I    7601  7596   7612U 11956  19622  33110  36437
 ASMGBLIN      1 00000000 0000000B     T   24281 24281
 ASMLCLIN      1 00000000 0000000D     T   24295 24295
 ASMLCLX       1 00000000 00000011     T   24305 24305
 ASMTASK       1 00000000 0000000E     T   24296 24296
 ASSYSTSK      4 0000115A 00000001     I   11073 11068  11084U
 ASULOCK       4 000008F8 00000001     I    7737  7732   7748U 11957  19624  33112  36443
 ASWAKE        4 00000A26 00000001     I    8128  8139U 11963  24319  36452
 ASWAKE1       2 00000A1A 00000001     H    8123  8122
 BR           10 0000000A FFFFFFFF A   #    1136  4226M  4236U  5736M  5746U  6412M  6422U  6701M  6711U  6916M  6926U
                                                  7121M  7131U  7314M  7324U  7602M  7612U  7738M  7748U  7906M  7916U
                                                  7969M  7979U  8129M  8139U  9236M  9246U  9561M  9571U  9749M  9759U
                                                 10183M 10193U 10602M 10612U 10713M 10723U 11074M 11084U 11159M 11169U
                                                 11466M 11476U 14611M 14621U 15121M 15131U 15319M 15329U 15516M 15526U
                                                 15712M 15722U 15932M 15942U 16475M 16485U 16787M 16797U 17211M 17221U
                                                 17465M 17475U 17966M 17976U 18191M 18201U 18466M 18476U 18801M 18811U
                                                 19025M 19035U 19404M 19414U 19662M 19672U 20181M 20191U 20793M 20803U
                                                 21723M 21733U 22584M 22594U 23327M 23337U 23730M 23740U 24355M 24365U
                                                 24664M 24674U 24887M 24897U 25177M 25187U 25400M 25410U 25690M 25700U
                                                 25913M 25923U 26203M 26213U 26427M 26437U 26709M 26719U 26964M 26974U
                                                 27123M 27133U 27349M 27359U 27511M 27521U 27691M 27701U 27872M 27882U
                                                 28009M 28019U 28242M 28252U 28477M 28487U 28719M 28729U 29063M 29073U
                                                 29346M 29356U 29568M 29578U 29712M 29722U 29882M 29892U 30145M 30155U
                                                 30427M 30437U 31039M 31049U 31203M 31213U 31365M 31375U 31604M 31614U
                                                 31861M 31871U 32066M 32076U 32529M 32539U 33154M 33164U 33644M 33654U
                                                 34106M 34116U 34680M 34690U 35188M 35198U 35460M 35470U 35658M 35668U
                                                 35992M 36002U 36290M 36300U 36488M 36498U 36592M 36602U 36838M 36848U
                                                 36946M 36956U 37101M 37111U 37221M 37231U 37349M 37359U 37542M 37552U
                                                 38084M 38094U 38268M 38278U 39022M 39032U 39288M 39298U
 CLEANUP1      2 000050E4 00000001     H   34674 34673
 CPCAN         4 00002906 00000001     I   19024 19019  19035U
 CPCHK         4 00002882 00000001     I   18800 18795  18811U
1DISPATCH (DISP00) (09:38) (22MAR04) Ordinary Symbol and Literal Cross Reference                                            Page  330
 CPEXIT       16 00000000 FFFFFFD3     J    2135 18837U 19061U 19524U
 CPLOCK        4 0000097A 00000001     I    7905  7900   7916U
 CPSET         4 000027AA 00000001     I   18465 18460  18476U
 CPTIMER       4 000029D6 00000001     I   19403 16744  19414U
 CPTIMER1      2 000029CA 00000001     H   19398 19397
 CPTQ         32 00000000 FFFFFFA4     J    4198 18529U 18585  18628M 18628  18629M 18673U 18865U 18880  19090U 19116
                                                 19206U 19223U 19337M 19452U
 CPTQNEXT      4 00000004 FFFFFFA4     A    4187 18612  18698  18715M 19212  19257  19340M 19497  19539M
 CPTQPARM      4 00000018 FFFFFFA4     A    4191 18632M 18960  19333  19528
 CPTQTDB       4 00000010 FFFFFFA4     A    4189 18630M 18901  19137  19517
 CPTQTOD       8 00000008 FFFFFFA4     D    4188 18644M 18689  18689  18737  18920  18948  19293  19321  19484  19580
 CPTQXID       4 00000014 FFFFFFA4     A    4190 18631M 18959  19332  19516  19527
 CPULOCK       4 000009B0 00000001     I    7968  7963   7979U
 CPUTIMR       4 00002052 00000001     I   15931 15942U 16733
 CPUTIMR1      2 00002046 00000001     H   15926 15925
 CPWA         16 00000000 FFFFFF9F     J   15917 15958U
 CPWEINT       8 00000008 FFFFFF9F     D   15910 16089M 16134
 CPWINTC       8 00000000 FFFFFF9F     D   15909 16087M 16090
 CPXPARM       4 00000008 FFFFFFD3     A    2128 18960M 19333M 19528M
 CPXTID        4 00000000 FFFFFFD3     A    2126 18958M 19331M 19526M
 CPXXID        4 00000004 FFFFFFD3     A    2127 18959M 19332M 19527M
 CUR                      00000001 A   U   31947 31953  31980  31988
 CUR                      00000001 A   U   33207 33491  33508
 DCT         448 00000000 FFFFFFAC     J    3632  4504U  8257U  9337U  9667U  9807U 10123U 10916U 12205U 13497U 15000U
                                                 16004U 16503U 16845U 17516U 18010U 18222U 19730U 21290U 21767U 22642U
                                                 23371U 23932U 24410U 24796U 24942U 25309U 25455U 25822U 25968U 26335U
                                                 26482U 26837U 35256U 35565U 36651U 37386U 37600U 38325  38346U 38356M
                                                 38356  38357M 38357  38358M 39077U 39366U
 DCTACTIV      4 00000058 FFFFFFAC     A    3598  4684   5322   5399   5506   8498  19982  20080  22090  22396
 DCTASDBS      4 0000000C FFFFFFAC     A    3570 19953  19954M 20051  20052M 21353
 DCTFASB       4 00000028 FFFFFFAC     A    3579 25462  25501M 25829  25838M
 DCTFASDB      4 00000030 FFFFFFAC     A    3581 24417  24456M 24803  24812M
 DCTFRTCQ      4 00000040 FFFFFFAC     A    3585 25975  26014M 26342  26351M
 DCTFSTBQ      4 00000048 FFFFFFAC     A    3587 35260  35302M 35569  35580M
 DCTFSTK       4 00000050 FFFFFFAC     A    3589 26489  26515M 26844  26853M
 DCTFTDB       4 00000038 FFFFFFAC     A    3583 24949  24988M 25316  25325M
 DCTGASB       4 00000008 FFFFFFAC     A    3569  9674  38927M
 DCTIPCBS      4 00000170 FFFFFFAC     A    3618  8530  12235  17104  36655  37390  38694  38695M 39089
 DCTIPCBT      4 00000174 FFFFFFAC     A    3619 38698M 39181
 DCTLOCK       4 00000004 FFFFFFAC     A    3561  4527   4737   5587   8279   9073  16523  16681  16998  17079  17555
                                                 17757  18242  18414  19909  21348  21482  23952  24236  38553M
 DCTLWAIT      4 000000D0 FFFFFFAC     A    3601  8712  22802  23041
 DCTREADY      4 000000A8 FFFFFFAC     A    3600  8841   8961  21842  21958  22156
 DCTRTCQ       4 00000010 FFFFFFAC     A    3571 16532  16583M 16616  17003  17098  17631  18247
 DCTSHPF       4 00000104 FFFFFFAC     A    3608  4576   8974M  9004  10977  15032  16175  21807  21867M 22169M 23227
                                                 23630
 DCTSLCWT      8 00000148 FFFFFFAC     D    3614  9454  38385M
 DCTSLICE      8 00000120 FFFFFFAC     D    3613  9396   9480  19827  38384M
 DCTSLPF       4 00000100 FFFFFFAC     A    3607  4590   9018  10991  15046  16189  22218M 22946M 23126M 23241  23644
 DCTSPFCT      4 00000108 FFFFFFAC     A    3609  8867   8869M 22133  22135M 22204  22217  22932  22945  23112  23125
 DCTSTIME      8 00000020 FFFFFFAC     D    3574 36782  38388M
 DCTSWAIT      4 00000080 FFFFFFAC     A    3599  4955   5272   8359  22034  22288
 DCTSWOUT      4 000000F8 FFFFFFAC     A    3605 22183  22859  22868M 23067  23476  23485M
 DCTSWPRI      2 000000FC FFFFFFAC     H    3606  4777   8882  10932  22244  22253M 22277  22315  22423  22961M 23141M
                                                 24119  38389M
 DCTTRMSK      4 000001B4 FFFFFFAC     A    3620 12258  13502  37995M
 DCTVRLEN      4 000001BC FFFFFFAC     A    3625 38561M 38785  38787M 39402
 DCTVRST       4 000001B8 FFFFFFAC     A    3624 38560M 38781  38784M 39407
 DCTWSIN       8 00000018 FFFFFFAC     D    3573 19830  37719M 38386M
1DISPATCH (DISP00) (09:38) (22MAR04) Ordinary Symbol and Literal Cross Reference                                            Page  331
 DCTWSLM       4 00000014 FFFFFFAC     A    3572 19780  19836  37763M 38387M
 DEFSLICE      8 00005C50 00000001     G   38964 38384
 DEFWAIT       8 00005C78 00000001     G   38972 38385
 DEFWSIN       8 00005CA0 00000001     G   38980 38386
 DEFWSLM       4 00005CA8 00000001     F   38984 38387
 DELASB        4 00003A60 00000001     I   25689 24308  25700U
 DELASB1       2 00003A54 00000001     H   25684 25683
 DELASDB       4 000037E0 00000001     I   24663 24309  24674U
 DELASDB1      2 000037D4 00000001     H   24658 24657
 DELGTDB       4 00003920 00000001     I   25176 24300  25187U
 DELGTDB1      2 00003914 00000001     H   25171 25170
 DELRTCQ       4 00003BA0 00000001     I   26202 19627  26213U
 DELRTCQ1      2 00003B94 00000001     H   26197 26196
 DEMOTE        4 00003250 00000001     I   22583  7563  22376  22474  22594U 24321
 DEMOTE1       2 00003244 00000001     H   22578 22577
 DISMASDB      4 000005E8 00000001     I    6700  4821   4921   5057   5376   5483   6711U
 DISMTDB       4 000006EA 00000001     I    7120  6083   6299   7131U
 DISMTDB1      2 000006DE 00000001     H    7115  7114
 DISPATCH      1 00000000 00000001     J    1220  1217   1218   1222   1328   1410   1468   1502   1533   1562   1581
                                                  1625   1650   1673   1696   1735   1758   1781   1804   1827   1849
                                                  1875   1898   1921   1944   1970   2011   2036   2061   2086   2111
                                                  2136   2171   2190   2210   2252   2273   2294   2324   2348   2379
                                                  2442   2461   2491   2524   2551   2571   2591   2613   2634   2653
                                                  2673   2702   2766   2814   2837   2883   2914   2937   2963   2989
                                                  3046   3159   3182   3208   3242   3267   3292   3317   3540   3633
                                                  3686   3832   3940   3973   4034   4126   4168   4199   4452   4471
                                                  5866   5885   6571   6796   7056
 DISPCPTA      4 0000553A 00000001     I   36487 36482  36498U
 DISPGRD      64 000000B8 FFFFFFAD         3492  4384   4403M  8633M  8896   8896   8897M  9032   9032   9033M  9089
                                                  9868M 10256  10448  10944M 11005  11005  11006M 12269M 12563M 12806M
                                                 12823  13239  14005  14378  14783M 15060  15060  15061M 16203  16203
                                                 16204M 16239M 21548M 22126M 23255  23255  23256M 23658  23658  23659M
 DISPINIT      4 0000598C 00000001     I   38083 38078  38094U
 DISPLTD      32 000000B8 FFFFFFAD         3497  4562   4602M  8896   8896   9032   9032  11005  11005  15060  15060
                                                 16203  16203  23255  23255  23658  23658
 DISPPIOC      4 000034C8 00000001     I   23729 23724  23740U
 DISPPTLB      4 00005762 00000001     I   37348 37343  37359U
 DISPRD        4 00000EC2 00000001     I   10182 10177  10193U 11947  33122
 DISPRDRT      2 0000101C 00000001     H   10560 10402
 DISPSHLD      4 00001032 00000001     I   10601 10596  10612U 24304
 DISPSIOC      4 000033F6 00000001     I   23326 23321  23337U
 DISPSREL      4 00001072 00000001     I   10712 10707  10723U
 DISPSTK     128 000000B8 FFFFFFAD         3487  5763   7631   8023  10361M 10548M 12190M 12353M 12503M 13010M 13133M
                                                 13404M 13602M 13864M 14170M 14353M 14565M 21221M 21626M 32290M 32456M
                                                 33792M 34039M
 DISPSYSR     16 000000B8 FFFFFFAD         3502  7462M  7476M  7643
 DISP00        1 00000000 00000001     R    1229  1227
 DMSINP        4 000032AA 00000001     I   22720 22707B
 DMSOK         4 00003340 00000001     I   22975 22708B
 DSPSTAT       4 00005570 00000001     I   36591 36586  36602U
 DSPSWA       32 00000000 FFFFFF97     J   36578 36625U
 DWFSA         8 00000000 FFFFFF97     D   36571 36631M 36632M 36633M 36634M 36783  36784  36785  36786M
 E                        00000001 A   U   31140 31142
 E                        00000001 A   U   31304 31306
 EPAR         15 0000000F FFFFFFFF A   #    1196  4226   4248M  4249   4262M  4263   4356M  4357B  4530M  4531B  4608M
                                                  4609B  4695M  4696B  4716M  4717B  4740M  4741B  4821M  4822B  4847M
                                                  4848B  4921M  4922B  4976M  4977B  5057M  5058B  5212M  5213B  5293M
                                                  5294B  5333M  5334B  5376M  5377B  5420M  5421B  5483M  5484B  5527M
                                                  5528B  5562M  5563B  5590M  5591B  5633M  5634B  5659M  5660   5673M
1DISPATCH (DISP00) (09:38) (22MAR04) Ordinary Symbol and Literal Cross Reference                                            Page  332
                                                  5674   5736   5917M  5918   5931M  5932   5945M  5946B  5948M  5949
                                                  5962M  5963   6083M  6084B  6125M  6126B  6154M  6155   6168M  6169
                                                  6180M  6181B  6183M  6184   6197M  6198   6299M  6300B  6352M  6353B
                                                  6412   6701   6916   7121   7314   7468M  7469B  7602   7738   7849M
                                                  7850B  7906   7969   8129   8282M  8283B  8422M  8423B  8466M  8467B
                                                  8520M  8521B  8765M  8766B  8809M  8810B  8863M  8864B  8929M  8930B
                                                  8972M  8973B  9076M  9077B  9117M  9118B  9236   9561   9749  10017M
                                                 10018B 10105M 10106B 10183  10472M 10473B 10602  10713  11074  11159
                                                 11407M 11408B 11466  11588M 11589B 11736M 11737B 11906M 11907B 12275M
                                                 12276B 12281M 12282  12295M 12296  12439M 12440  12453M 12454  12633M
                                                 12634B 12740M 12741B 12773M 12774B 12835M 12836B 12900M 12901B 12919M
                                                 12920  12933M 12934  13225M 13226B 13251M 13252B 13316M 13317B 13707M
                                                 13708B 13856M 13857B 13922M 13923B 13957M 13958B 13985M 13986B 14017M
                                                 14018B 14082M 14083B 14289M 14290  14303M 14304  14364M 14365B 14390M
                                                 14391B 14455M 14456B 14474M 14475  14488M 14489  14611  14764M 14765B
                                                 14896M 14897  14898M 14900  14915M 14916  14919M 15121  15229M 15230B
                                                 15319  15426M 15427B 15516  15622M 15623B 15712  15820M 15821B 15932
                                                 16062M 16063B 16138M 16139B 16283M 16284B 16475  16526M 16527B 16614M
                                                 16615B 16684M 16685B 16787  16857M 16858B 16901M 16902B 17001M 17002B
                                                 17082M 17083B 17211  17257M 17258B 17419M 17420B 17465  17558M 17559B
                                                 17760M 17761B 17869M 17870B 17901M 17902B 17966  18067M 18068B 18099M
                                                 18100B 18131M 18132B 18191  18245M 18246B 18347M 18348B 18379M 18380B
                                                 18417M 18418B 18466  18594M 18595B 18641M 18642B 18801  18852M 18853B
                                                 18918M 18919B 18979M 18980B 19025  19291M 19292B 19404  19534M 19535B
                                                 19662  19742M 19743B 19783M 19784B 19790M 19791B 19800M 19801B 19847M
                                                 19848B 19895M 19896B 19902M 19951M 19952B 20003M 20004B 20032M 20033B
                                                 20101M 20102B 20181  20267M 20268B 20320M 20321B 20401M 20402B 20409M
                                                 20410B 20457M 20458B 20494M 20495B 20509M 20510B 20587M 20588B 20627M
                                                 20628B 20719M 20720B 20793  20908M 20909B 20975M 20976B 20982M 20983B
                                                 20994M 20995B 21006M 21007B 21062M 21063B 21180M 21181B 21203M 21204B
                                                 21210M 21211B 21256M 21257B 21275M 21276B 21302M 21303B 21324M 21325B
                                                 21351M 21352B 21485M 21486B 21517M 21518B 21554M 21555B 21723  21853M
                                                 21854B 21915M 21916B 21979M 21980B 22055M 22056B 22111M 22112B 22167M
                                                 22168B 22376M 22377B 22474M 22475B 22584  22697M 22698B 22779M 22780B
                                                 22823M 22824B 23018M 23019B 23062M 23063B 23180M 23181B 23327  23592M
                                                 23593B 23730  23897M 23898  23899M 23901  23916M 23917  23920M 23955M
                                                 23956B 24145M 24146B 24207M 24208B 24239M 24240B 24355  24538M 24539B
                                                 24664  24887  25070M 25071B 25177  25400  25583M 25584B 25690  25913
                                                 26096M 26097B 26203  26427  26597M 26598B 26709  26964  27123  27349
                                                 27511  27691  27872  28009  28242  28477  28719  28789M 28790B 28890M
                                                 28891B 28902M 28903B 28984M 28985B 29063  29242M 29243B 29253M 29254B
                                                 29262M 29263B 29346  29503M 29504B 29568  29712  29882  29938M 29939B
                                                 30039M 30040B 30081M 30082B 30145  30242M 30243B 30339M 30340B 30369M
                                                 30370B 30427  30899M 30900B 31039  31203  31365  31604  31794M 31795B
                                                 31861  31918M 31919B 32014M 32015B 32066  32136M 32137B 32383M 32384B
                                                 32529  33154  33219M 33220B 33310M 33311B 33366M 33367B 33374M 33375B
                                                 33382M 33383B 33390M 33391B 33417M 33418B 33425M 33566M 33567B 33573M
                                                 33574B 33644  33715M 33716B 33741M 33742B 33964M 33965B 34106  34159M
                                                 34160B 34278M 34279B 34358M 34359B 34599M 34600B 34680  34783M 34784B
                                                 34974M 34975B 35040M 35041B 35067M 35068B 35094M 35095B 35121M 35122B
                                                 35188  35384M 35385B 35460  35658  35922M 35923B 35992  36035M 36036B
                                                 36100M 36101B 36209M 36210B 36220M 36221B 36290  36344M 36345B 36393M
                                                 36394B 36402M 36403B 36488  36592  36838  36946  36987M 36999  37101
                                                 37221  37349  37542  38084  38150M 38151B 38155M 38156B 38159M 38160B
                                                 38169M 38170B 38200M 38201B 38204M 38205B 38217M 38218B 38268  38334M
                                                 38335B 38425M 38426B 38459M 38460B 38551M 38552B 38669M 38670B 38735M
                                                 38736B 38832M 38833B 38883M 38884B 38924M 38925B 39022  39288  39350M
                                                 39351B 39411M 39412B
 ERB         177 00000000 FFFFFFA6     J    4125 10029U 11829U 29964U 30030  30055U 30068M 30068  30069M 30230U 30327M
1DISPATCH (DISP00) (09:38) (22MAR04) Ordinary Symbol and Literal Cross Reference                                            Page  333
                                                 30515U 30703  30721U 30760U 31128U 31292U 31460U 31947U 31973U 32186U
                                                 32354M 32624U 32719U 34820U 34879U
 ERBASDB       4 0000000C FFFFFFA6     A    4057 30070M 30530
 ERBCHN        4 00000008 FFFFFFA6     A    4056 30074M 30283  30290M 30290  30355
 ERBESB        4 00000014 FFFFFFA6     A    4059 32190  33056M
 ERBFDEL     128 00000019 FFFFFFA6         4100 30311M 32348
 ERBFL         1 00000019 FFFFFFA6     R    4096  4100
 ERBMTYPE      4 0000001C FFFFFFA6     A    4103 30632M 30633  30670  31488  31530  32629  32674  32726
 ERBNEXT       4 00000004 FFFFFFA6     A    4055 11881  29970  30328M 30676M 30702M 30702  30703  30736  30744  30750M
                                                 31504  31511  31531  31532  31953  31980M 31980  32320  32355M 32655
                                                 32675  32946M 34837  34896
 ERBPARM       4 0000002C FFFFFFA6     A    4113 30638M
 ERBQUAL       4 00000028 FFFFFFA6     A    4112 30637M 32811
 ERBRPARM      4 00000020 FFFFFFA6     A    4109 32959M 33004  33021
 ERBSFREE      0 00000018 FFFFFFA6         4071 30300  30611  31510M 31986M 32338M 32901M 34829M 34888M
 ERBSPEND      1 00000018 FFFFFFA6         4081 30625M
 ERBSTAT     113 00000040 FFFFFFA6     X    4118 10035  11833  31140U 31304U 31988M 31988  32321  32945M
 ERBSTFL       1 00000018 FFFFFFA6     R    4062  4071   4081   4091
 ERBTDB        4 00000010 FFFFFFA6     A    4058 30639M 31987M 31987  32332M 32332  32895M 32895  34836M 34836  34895M
                                                 34895
 ERBTYPE       1 00000024 FFFFFFA6     X    4110 30629M 32862
 ERROUTE1      2 00001E0A 00000001     H   15115 15114
 ESB          37 00000000 FFFFFFA7     J    4033 28815U 28881  28913U 28926M 28926  28927M 29156U 29209M 29424U 29484
                                                 29644U 29789U 32200U 32737U 34936U 34981M
 ESBFDIS      16 00000024 FFFFFFA7         4024 32227M 32779  32998M
 ESBFENCE     64 00000024 FFFFFFA7         4014 29173  29437  29653M 29802  29818M
 ESBFLGS       1 00000024 FFFFFFA7     R    4005  4009   4014   4019   4024
 ESBFQUAL     32 00000024 FFFFFFA7         4019 28952M 32796
 ESBFSTK     128 00000024 FFFFFFA7         4009 28978M 29219  32214  32987  34949
 ESBNEXT       4 00000004 FFFFFFA7     A    3993 28821  28994M 29208  29255M 29278  29446  32827  34980  34982M
 ESBPARM       4 00000020 FFFFFFA7     A    4002 28931M 32959
 ESBPSW        8 00000010 FFFFFFA7     D    3999 28930M 32958
 ESBQUAL       4 0000001C FFFFFFA7     A    4001 28953M 32811
 ESBSTACK      4 00000018 FFFFFFA7     A    4000 28986M 29236  33000  34966
 ESBTDB        4 00000008 FFFFFFA7     A    3994 28928M
 ESBTYPE       4 0000000C FFFFFFA7     A    3998 28929M 32758
 EXFLIH        2 00001596 00000001     H   12392 38991
 EXRADD        4 0000425E 00000001     I   28718 28713  28729U
 EXRDEL        4 00004322 00000001     I   29062 29057  29073U
 EXRDELA       4 000043C0 00000001     I   29345 29340  29356U
 EXRDONE       4 00004930 00000001     I   32065 32060  32076U
 EXRFDOWN      4 00004470 00000001     I   29711 29706  29722U
 EXRFENCE      4 00004430 00000001     I   29567 29562  29578U
 EXSCHED       4 00004AC0 00000001     I   32528  7568  32539U
 EXSCHED1      2 00004AB4 00000001     H   32523 32522
 FGSTK         4 00003CE6 00000001     I   26708 24299  26719U
 FGSTK1        2 00003CDA 00000001     H   26703 26702
 GETNASDB      2 000000F8 00000001     H    4660  4864B  4978B  5225B  5295B  5422B  5529B
 GGSTK         4 00003C30 00000001     I   26426 24288  26437U
 GGSTK1        2 00003C24 00000001     H   26421 26420
 HIBAL         1 00000000 FFFFFFFF     J     700   716    729    742    755    768    781    794    807    820    833
                                                   846    859    872    885    898    911   1012   1024   1036   1048
                                                  1060   1072   1084   1096   1108   1120   1132   1144   1156   1168
                                                  1180   1192   1204
 IDLE          4 00000D64 00000001     I    9560  4716   9571U
 IDLE1         2 00000D58 00000001     H    9555  9554
 INFLIH        2 000014AA 00000001     H   12167 38989
 INITDIS1      4 00005A16 00000001     I   38267 38278U 39489
 INITDIS2      4 00005D3C 00000001     I   39021 39032U 39492
1DISPATCH (DISP00) (09:38) (22MAR04) Ordinary Symbol and Literal Cross Reference                                            Page  334
 INITDIS3      4 00005DBE 00000001     I   39287 39282  39298U
 IOFLIH        2 00001B54 00000001     H   14242 38995
 IOSINIT       1 00000000 0000001A     T   39488 39488
 IOSINTER      1 00000000 00000006     T   16741 16741
 IPCB         17 00000000 FFFFFFAB     J    3685  4414U  4456   4456   4473   4473   4477M  4477M  6495U  6732U  8540U
                                                  8670   8670   8672   8672   8676M  8676M  9632U 12539U 12605  12605
                                                 12622  12622  12626M 12626M 12676  12676  12693  12693  12697M 12697M
                                                 17114U 17125  17125  17127  17127  17131M 17131M 36683U 37416U 37444
                                                 37444  37446  37446  37450M 37450M 38660  38681U 38691M 38691  38692M
                                                 39115U 39191U
 IPCBCPUA      2 0000000C FFFFFFAB     H    3658  8681  17133  37432  37452  38693M 39146  39152
 IPCBFL        1 00000010 FFFFFFAB     R    3662  3666   3671   3676
 IPCBNEXT      4 00000004 FFFFFFAB     A    3656  8583  36755  37458  38694M 39160
 IPCBPRIO      2 0000000E FFFFFFAB     H    3659  6500M  6737M  8571   8577   9637M
 IPCBPZ        4 00000008 FFFFFFAB     A    3657 36728  38737M 39119  39196
 IPFLGRD     128 00000010 FFFFFFAB         3666  4428   4456   4456   4473   4477M  8658   8670   8672   8672   8676M
                                                 12552
 IPFLPTLB     32 00000010 FFFFFFAB         3676 12648  12676  12676  12693  12697M 37444  37446  37446  37450M
 IPFLRCC      64 00000010 FFFFFFAB         3671 12577  12605  12605  12622  12626M 17125  17127  17127  17131M
 IPL                      00000001 A   U   38059 38359  38393  38777  38928  39043  39084  39085
 ISMASDB1      2 000005DC 00000001     H    6695  6694
 ITVAL         8 00005618 00000001     X   36814 36746  36749
 LKCRE         1 00000000 0000001E     T   39499 39499
 LKINIT        1 00000000 00000019     T   39487 39487
 LKOB          1 00000000 00000003     T    7559  7559  11949  16747  19620  24289
 LKREL         1 00000000 00000004     T    7562  7562  11954  16750  19621  24291
 LOCDISP       2 000002D6 00000001     H    5597  4387B
 LTDISP        4 00003086 00000001     I   21722  7560  21733U
 LTDISP1       2 0000307A 00000001     H   21717 21716
 LTDWA         0 00000000 FFFFFF9E     J   21708 21749U
 LTPFUPD       4 00003156 00000001     I   22131 22065B
 LTPINP        4 00003106 00000001     I   21989 21925B
 LTPOK         2 00003136 00000001     H   22076 21926B
 MAT         256 00000000 FFFFFFED     J    1409  4313U  4545U  8985U 10959U 15014U 16157U 19706U 20540U 21038U 21781U
                                                 22898U 23078U 23199U 23611U 24386U 24772U 24918U 25285U 25431U 25798U
                                                 25944U 26311U 26458U 26813U 35232U 37586U 38369U 38403U 39053U 39319U
 MATASBL       4 000000B0 FFFFFFED     A    1382 20546  21059  21177  39352M
 MATASBS       4 000000AC FFFFFFED     A    1381 20593  20594M 21067
 MATDCT        4 00000008 FFFFFFED     A    1362 19712  24392  24778  24924  25291  25437  25804  25950  26317  26464
                                                 26819  35238  37590  38375M 39059  39356
 MATPAGFN      4 000000DC FFFFFFED     A    1388  4550   8990  10963  15018  16161  21795  22184  22904  23084  23205
                                                 23616
 MATPTR        4 00000200 FFFFFFED A   A    1356 39309
 MATSNAME      8 000000D4 FFFFFFED     C    1387 37665  37666  38408M
 MATTECB       8 00000040 FFFFFFED     D    1376  4348
 MAXPRIO       1 00000003 FFFFFFAC A   U    3594  3595  11955  19827  24322
 MCFLIH        2 00001B24 00000001     H   14204 38994
 MITMK1        1 00000000 FFFFFFB4     R    3080  3084   3089   3094   3099   3104   3109   3114   3119
 MITMK2        1 00000001 FFFFFFB4     R    3125  3129   3134   3139
 MONROUTE      4 00001FBE 00000001     I   15711 13957  15722U
 MONSET        4 00005722 00000001     I   37220 37215  37231U
 M1GOWAIT      1 00000000 0000000F     T   24302 24302
 NEWASB        4 000039B0 00000001     I   25399 24279  25410U 39505
 NEWASB1       2 000039A4 00000001     H   25394 25393
 NEWASDB       4 00003730 00000001     I   24354 24282  24365U
 NEWASDB1      2 00003724 00000001     H   24349 24348
 NEWGTDB       4 00003870 00000001     I   24886 24285  24897U
 NEWGTDB1      2 00003864 00000001     H   24881 24880
 NEWRTCQ       4 00003AF0 00000001     I   25912 19617  25923U
1DISPATCH (DISP00) (09:38) (22MAR04) Ordinary Symbol and Literal Cross Reference                                            Page  335
 NEWRTCQ1      2 00003AE4 00000001     H   25907 25906
 NITDIS11      2 00005A0A 00000001     H   38262 38261
 NITDIS21      2 00005D30 00000001     H   39016 39015
 NOTINP        4 00001D64 00000001     I   14824 14809B 14812B
 NUMPRIO       1 00000005 FFFFFFAC A   U    3596  3598   3599   3600   3601   3609   3613   3614   7572   8529  22186
                                                 22914  23094  27548  27729  27910  28047  38384  38385
 NXT                      00000001 A   U   28376 28392  28401
 NXT                      00000001 A   U   28611 28627  28636
 ONROUTE1      2 00001FB2 00000001     H   15706 15705
 PAGASC1       1 00000000 0000000A     T   24280 24280
 PAGAST1       1 00000000 00000010     T   24303 24303
 PAGAST2       1 00000000 00000012     T   24306 24306
 PAGFAULT      1 00000000 00000007     T   16742 16742
 PAGINIT       1 00000000 0000001B     T   39490 39490
 PAGISWAP      1 00000000 00000013     T   24314 24314
 PAGOSWAP      1 00000000 00000014     T   24317 24317
 PAGSFIX       1 00000000 00000016     T   36454 36454
 PAGSWADV      1 00000000 00000005     T   11952 11952
 PAGUSFIX      1 00000000 00000017     T   36455 36455
 PAGWSMAN      1 00000000 00000008     T   16745 16745
 PARMFINT      4 00000000 FFFFFFBD         2734 37681M 37733M
 PARMFSTR      0 00000000 FFFFFFBD         2724 37620M
 PARMFYN       8 00000000 FFFFFFBD         2744 37781M 37854M 37927M
 PARMIN        4 00000000 FFFFFFBD     J    2765 37517  37609U 37642  37649  37690  37697  37741  37748  37804  37811
                                                 37877  37884  37950  37957
 PARMKEYS      4 00000004 FFFFFFBD     A    2758 37621M 37682M 37683M 37734M 37782M 37783M 37855M 37856M 37928M 37929M
 PARMTYPE      1 00000000 FFFFFFBD     R    2715  2724   2734   2744   2754
 PERROUTE      4 00001E16 00000001     I   15120 13856  13922  15131U
 PERSET        4 000056E6 00000001     I   37100 37095  37111U
 PFBAD         4 00001D5A 00000001     I   14811 14770B
 PFEND         2 00001E00 00000001     H   15069 14788B
 PFINPRO       2 00001D44 00000001     H   14779 14769B
 PFLT          4 00001CA0 00000001     I   14610 14621U 16738
 PFLT1         2 00001C94 00000001     H   14605 14604
 PFOK          2 00001D62 00000001     H   14816 14771B
 PFRET         4 00001D34 00000001     I   14769 14767B
 PFWAIT        2 00001D4E 00000001     H   14799 14772B
 PIEND         2 00001A96 00000001     H   13995 13720B 13924B
 PIFLIH        2 000018B8 00000001     H   13438 38993
 PIROUTE       4 00001EAA 00000001     I   15318 13985  15329U
 PIROUTE1      2 00001E9E 00000001     H   15313 15312
 PQADD         4 00003DAA 00000001     I   26963  7564  11951  24290  26974U
 PQADD1        2 00003D9E 00000001     H   26958 26957
 PQASDB        4 00000000 FFFFFF9B     A   26941  4970M  5287M  5414M  5521M  8416M  8514M  8759M  8857M 19997M 20095M
                                                 21973M 22049M 22105M 22773M 22817M 23012M 23056M 26995  27154  27380
 PQDEL         4 00003E18 00000001     I   27122 11950  24318  27133U
 PQDEL1        2 00003E0C 00000001     H   27117 27116
 PQHFND        4 00003F62 00000001     I   27579 27565B
 PQHIGH        4 00003F30 00000001     I   27510  7561  24312  27521U
 PQHIGH1       2 00003F24 00000001     H   27505 27504
 PQHLP1        2 00003F52 00000001     H   27550 27571B
 PQHPFN        4 00004062 00000001     I   28008 11953  24316  28019U
 PQHPFN1       2 00004056 00000001     H   28003 28002
 PQLFND        4 00003FD2 00000001     I   27760 27746B
 PQLLP1        2 00003FC2 00000001     H   27731 27752B
 PQLOW         4 00003F9E 00000001     I   27690 27701U
 PQLOW1        2 00003F92 00000001     H   27685 27684
 PQPARM        8 00000000 FFFFFF9B     J   26949  4671U  4942U  5259U  8394U  8485U  8828U  8948U 19969U 20067U 21829U
                                                 21945U 22757U 26990U 27149U 27375U 27537U 27717U 27898U 28035U
1DISPATCH (DISP00) (09:38) (22MAR04) Ordinary Symbol and Literal Cross Reference                                            Page  336
 PQPFFND       4 000040D0 00000001     I   28117 28064B
 PQPFLP1       2 00004088 00000001     H   28049 28109B
 PQPFND        4 00004044 00000001     I   27941 27927B
 PQPLP1        2 00004034 00000001     H   27912 27933B
 PQPRIO        4 0000400E 00000001     I   27871  7565  27882U
 PQPRIO1       2 00004002 00000001     H   27866 27865
 PQQUEUE       4 00000004 FFFFFF9B     A   26942  4689M  4960M  5277M  5327M  5404M  5511M  8405M  8503M  8748M  8846M
                                                  8966M 19987M 20085M 21847M 21963M 22039M 22095M 22161M 22763M 22807M
                                                 23002M 23046M 27014  27071  27173  27186  27399  27456  27546  27726
                                                 27908  28045
 PQREQ         4 00003EC2 00000001     I   27348  7566  24315  27359U
 PQREQ1        2 00003EB6 00000001     H   27343 27342
 PRV                      00000001 A   U   31973 31980  31986  31987  31987  31988
 PSA         432 00000000 FFFFFFAD     J    3539  3542U  4262   5673   5931   5962   6168   6197   7569   7571  12295
                                                 12453  12933  14303  14488  16751  16752  16756  36738U 36987  38752U
                                                 39133U 39210U 39510
 PSAASDB       4 000000A4 FFFFFFAD     A    3476  4625   4807   4907   5043   5363   5470   5548   5554M  5794   6435
                                                  6751   6819M  6819   6977   7144   7335   7674   7759   8234   9591
                                                  9783  10228  10623  11095  11500  12852  13144  13268  13735  14034
                                                 14407  14632  15142  15340  15537  15733  15966  16821  18500  19066
                                                 19425  20215  20814  21525M 21525  28276  28511  28753  29097  29367
                                                 29589  29733  29916  30179  30461  31073  31237  31399  31638  31882
                                                 32100  32550  33188  33678  34140  34714  36013  36324  36509  36859
                                                 36967  37135  37255
 PSACPLK       4 000000B4 FFFFFFAD     A    3480  7928   7929M  7987   7989M  9104  10215  10362M 10490  10555M 10555
                                                 12184M 12314  12360M 12360  12469  12497M 12952  13017M 13017  13099
                                                 13127M 13346  13411M 13411  13568  13596M 13871M 13871  14112  14177M
                                                 14177  14319  14347M 14507  14572M 14572  21222M 21568  21633M 21633
                                                 32254  32291M 32398  32463M 32463  33756  33793M 33981  34046M 34046
 PSACPUA       2 0000008A FFFFFFAD     H    3468 37432  38771M
 PSACPUID      8 00000090 FFFFFFAD     D    3469 12212M
 PSACTRS       4 00000158 FFFFFFAD     A    3526 12193  39134M
 PSADCT        4 000000AC FFFFFFAD     A    3478  4494   8247   9327   9657   9797  10906  12195  13487  14990  15994
                                                 16493  16835  17506  18000  18212  21277  21757  22632  23361  23922
                                                 35555  36641  37376  38791M
 PSADFLG1      1 000000B8 FFFFFFAD     R    3483  3487   3492   3497   3502
 PSADSTK       4 000000B0 FFFFFFAD     A    3479 10408  12191  12507  13137  13661  14357  21224  32283  33794  38782M
 PSADWK1       8 00000198 FFFFFFAD     D    3530 16546M 16564  37026M 37027M 37028
 PSAFPRS       8 00000048 FFFFFFAD     D    3455 10364M 10365M 10366M 10367M 10537  10538  10539  10540  12342  12343
                                                 12344  12345  12400M 12401M 12402M 12403M 12999  13000  13001  13002
                                                 13051M 13052M 13053M 13054M 13393  13394  13395  13396  13533M 13534M
                                                 13535M 13536M 14159  14160  14161  14162  14250M 14251M 14252M 14253M
                                                 14554  14555  14556  14557  21615  21616  21617  21618  32445  32446
                                                 32447  32448  34028  34029  34030  34031
 PSAGPRS       4 00000008 FFFFFFAD     F    3454 10363M 10541  12346  12399M 13003  13050M 13397  13532M 14163  14249M
                                                 14558  21619  32449  34032
 PSAIPCB       4 000000A0 FFFFFFAD     A    3472  4404   6485   6722   8622   9622  12235  12529  36701  38795M
 PSAKCUR       2 00000088 FFFFFFAD     H    3464  4248   4263M  5659   5674M  5917   5932M  5948   5963M  6154   6169M
                                                  6183   6198M 12281  12296M 12439  12454M 12919  12934M 14289  14304M
                                                 14474  14489M 36999  38770M
 PSAKDISP      8 00000078 FFFFFFAD     D    3462  4262   4264   5962   5964   6197   6199   7569  12251  12453  12455
                                                 16752  36747  38768M 39510
 PSAKIOSV      8 00000080 FFFFFFAD     D    3463 14303  14305  16756  36750  38769M
 PSAKUSER      8 00000070 FFFFFFAD     D    3461  5673   5675   5931   5933   6168   6170   6481M  6798   7571   9656M
                                                 12295  12297  12933  12935  14488  14490  16011M 16012  16408M 16751
                                                 36987  37020  37026  37045
 PSAPIIC       2 000000BE FFFFFFAD     H    3509 13822
 PSAPIILC      2 000000BC FFFFFFAD     H    3508 13530M 13538  15218  15416  15809
 PSAPRFXR      4 00000098 FFFFFFAD     A    3470 38794M 39211
1DISPATCH (DISP00) (09:38) (22MAR04) Ordinary Symbol and Literal Cross Reference                                            Page  337
 PSAPRFXV      4 0000009C FFFFFFAD     A    3471 38792M
 PSAPSW        8 00000000 FFFFFFAD     D    3453  3456   3456   9701M 10355M 10372M 10397  10398M 10404M 10415  10518
                                                 10556  12361  12398M 12418  12980  13018  13069M 13070  13374  13412
                                                 13531M 13537  13620  13843  13881  14140  14178  14248M 14268  14535
                                                 14573  21596  21634  32426  32464  34009  34047
 PSASGPRS      4 00000118 FFFFFFAD     A    3525 11991M 12131M
 PSASMASK      1 000000B9 FFFFFFAD     X    3505 12194M 16978M 17148  17538M 17763  18518M 18548  18614  18649M 18743
                                                 19098M 19267  19339M 19343  19923M 20035  20358M 20364  21010M 21024
                                                 30479M 30984  31448M 31543  32244M 33786M 34793M 34849  36657M 36778
                                                 36891M 36896  36982M 37057  37371M 37473
 PSASPSW       8 00000110 FFFFFFAD     D    3524 11990M 12022  12130M
 PSASTATE    104 00000000 FFFFFFAD     X    3456  6641M  6857   7065M  7227  32322M 32940  33048M
 PSATCHG       8 00000068 FFFFFFAD     D    3460 16033  16035M 36745
 PSATDB        4 000000A8 FFFFFFAD     A    3477  5619   5644   6069   6285   6338   6612   6643M  6825   6864M  6864
                                                  6943   7067M  7221   7262M  7262  10277  17332  17619  18901  20360M
                                                 21022M 21532M 21532  30937  32934  33042  33890M 33890
 PSATRB0       4 000000C0 FFFFFFAD     A    3513 12255  13482  13484M 38849M
 PSATRB1       4 000000C4 FFFFFFAD     A    3514 38900M
 PSATRGRS      4 000000CC FFFFFFAD     F    3516 13441M 13516  13532
 PSATRMLK      1 000000BA FFFFFFAD     X    3506  4284M
 PSATRWK       4 000000C8 FFFFFFAD     A    3515 12259M 12260  13511M 13512
 PZABORT     128 0000021A FFFFFFEE         1308  5137M  5779M  6535M  6629M  6960M  7503M  7659M  7799M  8039M  8195M
                                                  9315M  9607M 10332M 10506M 10812M 10857M 11220M 11282M 11340M 11554M
                                                 12016  12330M 12485M 12968M 13115M 13196M 13362M 13584M 13642M 13787M
                                                 13903M 14128M 14216M 14335M 14523M 14671M 14954M 15255M 15452M 15648M
                                                 15846M 16339M 20344M 20679M 20948M 21145M 21460M 21584M 23426M 23815M
                                                 23865M 24042M 24564M 24739M 25096M 25252M 25609M 25765M 26122M 26278M
                                                 26623M 26770M 27202M 28097M 28145M 28332M 28567M 32162M 32271M 32414M
                                                 32877M 33773M 33997M 34244M 34308M 39437M
 PZABR15       4 0000021C FFFFFFEE     A    1317  5138M  5780M  6536M  6630M  6961M  7504M  7660M  7800M  8040M  8196M
                                                  9316M  9608M 10333M 10507M 10813M 10858M 11221M 11283M 11341M 11555M
                                                 12131  12331M 12486M 12969M 13116M 13197M 13363M 13585M 13643M 13788M
                                                 13904M 14129M 14217M 14336M 14524M 14672M 14955M 15256M 15453M 15649M
                                                 15847M 16340M 20345M 20680M 20949M 21146M 21461M 21585M 23427M 23816M
                                                 23866M 24043M 24565M 24740M 25097M 25253M 25610M 25766M 26123M 26279M
                                                 26624M 26771M 27203M 28098M 28146M 28333M 28568M 32163M 32272M 32415M
                                                 32878M 33774M 33998M 34245M 34309M 39438M
 PZABSM        1 0000021B FFFFFFEE     X    1316  5131M  5773M  6529M  6623M  6954M  7497M  7653M  7793M  8033M  8189M
                                                  9309M  9601M 10326M 10500M 10806M 10851M 11214M 11276M 11334M 11548M
                                                 12130  12324M 12479M 12962M 13109M 13190M 13356M 13578M 13636M 13781M
                                                 13897M 14122M 14210M 14329M 14517M 14665M 14948M 15249M 15446M 15642M
                                                 15840M 16333M 20338M 20673M 20942M 21139M 21454M 21578M 23420M 23809M
                                                 23859M 24036M 24558M 24733M 25090M 25246M 25603M 25759M 26116M 26272M
                                                 26617M 26764M 27196M 28091M 28139M 28326M 28561M 32156M 32265M 32408M
                                                 32871M 33767M 33991M 34238M 34302M 39431M
 PZATERM      64 0000021A FFFFFFEE         1313  4278   4302M 12794
 PZCPUMSK      4 00000214 FFFFFFEE     A    1296 38776M
 PZCURASB      4 00000208 FFFFFFEE     A    1293  6512M  9655M  9655  17311  17598  18294  38928M
 PZCURPID      8 00000208 FFFFFFEE     D    1292 21539M 21539
 PZCURTSK      4 0000020C FFFFFFEE     A    1294  6644M  7068M 20361M 21021M
 PZERO       640 00000000 FFFFFFEE     J    1327  1338U  3542   3542U  4262   5673   5931   5962   6168   6197   7569
                                                  7571  12295  12453  12933  14303  14488  16751  16752  16756  36733
                                                 36987  38059U 38748U 38752  38752U 38767M 38793  39129U 39133  39133U
                                                 39153  39206U 39210  39210U 39240U 39510
 PZEXCPU       2 00000084 FFFFFFEE     H    1265 12419
 PZEXIC        2 00000086 FFFFFFEE     H    1266 12523  12728  12761
 PZEXOPSW      8 00000018 FFFFFFEE     D    1253 12398
 PZIOOPSW      8 00000038 FFFFFFEE     D    1257 14248
 PZIOSID       4 000000B8 FFFFFFEE     A    1277 14269
1DISPATCH (DISP00) (09:38) (22MAR04) Ordinary Symbol and Literal Cross Reference                                            Page  338
 PZLCPUA       4 00000210 FFFFFFEE     A    1295  5139   5781   6537   6547   6631   6962   7505   7661   7801   8041
                                                  8197   9317   9609  10334  10508  10814  10859  11222  11284  11342
                                                 11556  12332  12487  12970  13117  13198  13364  13586  13644  13789
                                                 13905  14130  14218  14337  14525  14673  14956  15257  15454  15650
                                                 15848  16341  20346  20681  20950  21147  21462  21586  23428  23817
                                                 23867  24044  24566  24741  25098  25254  25611  25767  26124  26280
                                                 26625  26772  27204  28099  28147  28334  28569  32164  32273  32416
                                                 32879  33775  33999  34246  34310  38772M 38773M 39084M 39085  39439
 PZMATP        4 00000200 FFFFFFEE     A    1290  4303   4535   8975  10949  15004  16147  19696  20530  21028  21771
                                                 22888  23068  23189  23601  24376  24762  24908  25275  25421  25788
                                                 25934  26301  26448  26803  35222  37576  38359  38393  38777M 38777
                                                 39043
 PZMONCD       4 0000009C FFFFFFEE     A    1275 15811
 PZMONCL       2 00000094 FFFFFFEE     H    1272 15810
 PZPAT       128 00005CB0 00000001     X   38996 38767  38767
 PZPERA        4 00000098 FFFFFFEE     A    1274 15220
 PZPERCD       2 00000096 FFFFFFEE     H    1273 15219
 PZPIIC        2 0000008E FFFFFFEE     H    1270 13457
 PZPIILC       2 0000008C FFFFFFEE     H    1269 13530
 PZPIOPSW      8 00000028 FFFFFFEE     D    1255 13517  13531
 PZPS          8 00005CB0 00000001     D   38988 38996  38996
 PZRSNPSW      8 00000000 FFFFFFEE     D    1250 12217M 12218M 39242
 PZRSOPSW      8 00000008 FFFFFFEE     D    1251 11990
 PZSVILC       2 00000088 FFFFFFEE     H    1267 13071  15613
 PZSVNPSW      8 00000060 FFFFFFEE     D    1260 13843
 PZSVOPSW      8 00000020 FFFFFFEE     D    1254 13069
 PZTERMFL      1 0000021A FFFFFFEE     R    1304  1308   1313
 PZTREXA       4 00000090 FFFFFFEE     A    1271 13539
 Q                        00000001 A   U   17026 17042  17051
 Q                        00000001 A   U   18673 18689  18698
 RA            2 00000002 FFFFFFFF A   #    1028  4303M  4313U  4535M  4545U  5107M  5114   5149M  7363M  7364M  7364
                                                  7383M  7416M  7416   7431U  7486M  7487M  7487   7515M  8529M  8571
                                                  8577M  8605   8865M  8866M  8867   8869   9393M  9394M  9396   9432M
                                                  9446   9452   9469M  9475   9479M  9480   9832M  9840M 10376M 10376
                                                 10378M 10396M 10397M 10398  10402M 10403M 10404  10640M 10647  10649M
                                                 10827M 10834  10869M 10920M 10932  10949M 10959U 11310M 11317  11353M
                                                 11582M 11604  11858  12022M 12255M 12257M 12258M 12259  13456M 13457M
                                                 13476  13614M 13614  13677  13691  13943  14700M 14708M 14824M 14831
                                                 14853M 14916M 14917M 14919  14924M 14931  14966M 14990M 15000U 16147M
                                                 16157U 16309M 16316  16351M 16532M 16542U 16558M 16558  16608  16616M
                                                 16635M 16635  16859M 16869U 17069  17098  17149  17264M 17384M 17386M
                                                 17388M 17389M 17390  17404M 17404  17421  17822M 17824M 17826M 17827M
                                                 17828  18014M 18024U 18059  18125  18262M 18263M 18263  18278U 18373
                                                 18519M 18529U 18541M 18541  18596M 18716  18731  18744  18854M 18964M
                                                 18964  18981  19442M 19452U 19466M 19466  19526  19540  19541M 19558M
                                                 19558  19897M 19898  19899  19900M 19901  19909M 19910M 19910  20530M
                                                 20540U 20649M 20656  20691M 21008M 21012  21067M 21112M 21223M 21269
                                                 21353M 21413M 21922M 21924B 21989M 21997M 22131M 22132M 22133  22135
                                                 22186M 22198M 22198  22204  22217  22226M 22232M 22244  22253  22283M
                                                 22284M 22288  22396  22704M 22706B 22835M 22836  22859M 22866  22868M
                                                 22888M 22898U 22914M 22926M 22926  22932  22945  22954M 22960M 22961
                                                 23094M 23106M 23106  23112  23125  23134M 23140M 23141  23483M 23484M
                                                 23485  23512M 23519  23541M 23917M 23918M 23920  23960M 23967  23989M
                                                 24012M 24019  24054M 24094M 24119  24417M 24427U 24445M 24445  24456M
                                                 24487M 24487  24576M 24592  24803M 24810  24812M 24949M 24959U 24977M
                                                 24977  24988M 25019M 25019  25108M 25124  25316M 25323  25325M 25462M
                                                 25472U 25490M 25490  25501M 25532M 25532  25621M 25637  25829M 25836
                                                 25838M 25975M 25985U 26003M 26003  26014M 26045M 26045  26134M 26150
                                                 26342M 26349  26351M 26489M 26504M 26504  26515M 26546M 26546  26635M
1DISPATCH (DISP00) (09:38) (22MAR04) Ordinary Symbol and Literal Cross Reference                                            Page  339
                                                 26661  26844M 26851  26853M 27012M 27013M 27014M 27171M 27172M 27173M
                                                 27397M 27398M 27399M 27546M 27726M 27908M 28045M 28353M 28401M 28588M
                                                 28636M 29128M 29278M 29446M 29447  29505  29622M 29623M 29623  29644U
                                                 29767M 29768M 29768  29789U 30244M 30355M 31676M 31693M 31714M 31735M
                                                 31740  31763M 32593M 32675M 33004M 33005  33021M 33022  33420M 33421
                                                 33422M 33423  33475M 33491M 33496  33508  33817M 33857M 34329M 34330M
                                                 34330  34367M 34407M 34453M 34493M 34757M 34758M 34758  34794M 34805M
                                                 34805  34820U 34837M 34853M 34864M 34864  34879U 34896M 34910M 34921M
                                                 34921  34936U 34983  34984M 35260M 35270U 35291M 35291  35302M 35333M
                                                 35333  35386M 35402  35528M 35533  35569M 35576  35580M 35823M 35823
                                                 35824M 35847M 35854  35855M 36046M 36047M 36047  36105M 36106  36157M
                                                 36222  36338M 36396  37628M 37635M 37652  37667M 37700  37712  37716M
                                                 37716  37718M 37719  37751  37763  37790M 37797M 37814  37863M 37870M
                                                 37887  37936M 37943M 37960  38152M 38196  38464M 38474U 38480M 38498U
                                                 38587M 38587  38588M 38603M 38696M 38697M 38698  38774M 38775M 38776
                                                 38793M 38794  38834M 38849  38885M 38900  39089M 39100M 39100  39115U
                                                 39160M
 RAR          14 0000000E FFFFFFFF A   #    1184  4357M  4531M  4609M  4696M  4717M  4741M  4822M  4848M  4922M  4977M
                                                  5058M  5213M  5294M  5334M  5377M  5421M  5484M  5528M  5563M  5591M
                                                  5634M  5704B  5946M  6084M  6126M  6181M  6300M  6353M  6379B  6671B
                                                  6886B  7090B  7284B  7469M  7547B  7710B  7850M  7875B  7941B  8062B
                                                  8283M  8423M  8467M  8521M  8766M  8810M  8864M  8930M  8973M  9077M
                                                  9118M  9153B  9532B  9718B 10018M 10106M 10153B 10473M 10574B 10685B
                                                 11046B 11131B 11408M 11435B 11589M 11737M 11907M 11934B 12276M 12634M
                                                 12741M 12774M 12836M 12901M 13226M 13252M 13317M 13708M 13857M 13923M
                                                 13958M 13986M 14018M 14083M 14365M 14391M 14456M 14765M 15093B 15230M
                                                 15288B 15427M 15485B 15623M 15681B 15821M 15879B 16063M 16139M 16284M
                                                 16443B 16527M 16615M 16685M 16707B 16858M 16902M 17002M 17083M 17181B
                                                 17258M 17420M 17438B 17559M 17761M 17870M 17902M 17934B 18068M 18100M
                                                 18132M 18159B 18246M 18348M 18380M 18418M 18435B 18595M 18642M 18771B
                                                 18853M 18919M 18980M 18998B 19292M 19375B 19535M 19606B 19743M 19784M
                                                 19791M 19801M 19848M 19896M 19952M 20004M 20033M 20102M 20147B 20268M
                                                 20321M 20402M 20410M 20458M 20495M 20510M 20588M 20628M 20720M 20761B
                                                 20909M 20976M 20983M 20995M 21007M 21063M 21181M 21204M 21211M 21257M
                                                 21276M 21303M 21325M 21352M 21486M 21518M 21555M 21673B 21854M 21916M
                                                 21980M 22056M 22112M 22168M 22377M 22475M 22526B 22698M 22780M 22824M
                                                 23019M 23063M 23181M 23295B 23593M 23698B 23956M 24146M 24208M 24240M
                                                 24267B 24539M 24614B 24858B 25071M 25146B 25371B 25584M 25659B 25884B
                                                 26097M 26172B 26397B 26598M 26678B 26894B 27093B 27317B 27478B 27659B
                                                 27840B 27977B 28192B 28446B 28681B 28790M 28891M 28903M 28985M 29031B
                                                 29243M 29254M 29263M 29316B 29504M 29537B 29684B 29853B 29939M 30040M
                                                 30082M 30113B 30243M 30340M 30370M 30398B 30900M 31007B 31174B 31338B
                                                 31575B 31795M 31826B 31919M 32015M 32037B 32137M 32384M 32496B 33102B
                                                 33220M 33311M 33367M 33375M 33383M 33391M 33418M 33567M 33574M 33613B
                                                 33716M 33742M 33965M 34074B 34160M 34279M 34359M 34600M 34627B 34784M
                                                 34975M 35041M 35068M 35095M 35122M 35156B 35385M 35429B 35630B 35923M
                                                 35958B 36036M 36101M 36210M 36221M 36239B 36345M 36394M 36403M 36425B
                                                 36546B 36808B 36918B 37074B 37194B 37320B 37490B 38022B 38151M 38156M
                                                 38160M 38170M 38201M 38205M 38218M 38235B 38335M 38426M 38460M 38552M
                                                 38670M 38736M 38833M 38884M 38925M 38951B 39259B 39351M 39412M 39470B
 RB            3 00000003 FFFFFFFF A   #    1040  7435M  7515   9839M  9840  10385M 10385  10386M 10387M 10391M 10392M
                                                 10396  11317M 11318M 11353  11384M 11384  11413  13483M 13484  14707M
                                                 14708  15004M 15014U 17104M 17114U 17384M 17390  17822M 17828  20515M
                                                 20525U 20594  21087M 21088M 21088  21103  21129M 21129  21365M 21366M
                                                 21366  21381  21407U 21444M 21444  22184M 22185  22216M 22217M 22218
                                                 22334M 22382  22442M 22480  22904M 22913  22944M 22945M 22946  23068M
                                                 23078U 23084M 23093  23124M 23125M 23126  24417M 24455  24803M 24949M
                                                 24987  25316M 25462M 25500  25829M 25975M 26013  26342M 26489M 26514
                                                 26844M 27547M 27571  27909M 27933  28046M 28109  28365M 28366M 28366
1DISPATCH (DISP00) (09:38) (22MAR04) Ordinary Symbol and Literal Cross Reference                                            Page  340
                                                 28418  28600M 28601M 28601  28653  29140M 29141M 29141  29156U 29202
                                                 29256  29398M 29409M 29409  29424U 29505M 30230U 30257M 30258M 30258
                                                 30277  30703M 30721U 30744M 32608M 32609M 32609  32624U 32654  33818M
                                                 33830  33853U 33858M 34368M 34380  34403U 34408M 34454M 34466  34489U
                                                 34494M 34980M 34984  35260M 35301  35569M 35577  36106M 36127M 37664M
                                                 37712M 37717M 37719  38171M 38197  38558M 38559M 38560  38781M 38782
                                                 38783M 38784  38785M 38786M 38787  39153M 39154M 39155M 39196M 39206U
 RDPARM        4 00000000 FFFFFF96     X   37517 37609U
 RDPARMS       4 000057D8 00000001     I   37541 37552U 39495
 RDPARMS1      2 000057CC 00000001     H   37536 37535
 RDPSTR       20 00000018 FFFFFF96     C   37520 37628  37635  37790  37797  37833  37863  37870  37906  37936  37943
                                                 37979
 RDPWA        44 00000000 FFFFFF96     J   37527 37568U
 RESUMAS       4 0000119A 00000001     I   11158 11153  11169U
 RESUMTS       4 00001298 00000001     I   11465 11460  11476U
 RJ            4 00000004 FFFFFFFF A   #    1052  7448M  7468  10019M 10029U 10035M 10053U 11802M 11814M 11814  11829U
                                                 11881M 13482M 13484  15994M 16004U 16931M 16940M 16947M 16952M 16953
                                                 17003M 17051M 17520M 17530U 17661  17836  17895  18650M 18698M 19080M
                                                 19090U 19179  19331  19341  22288M 22301M 22301  22330U 22368  22382M
                                                 22396M 22409M 22409  22438U 22466  22480M 24454M 24456  24698M 24708U
                                                 24812  24986M 24988  25211M 25221U 25325  25499M 25501  25724M 25734U
                                                 25838  26012M 26014  26237M 26247U 26351  26513M 26515  26743M 26853
                                                 27020M 27021M 27021  27064  27065  27219M 27220M 27220  27248  27268
                                                 27284  27405M 27406M 27406  27449  27450  27595M 27596M 27596  27624
                                                 27629  27728M 27752  27776M 27777M 27777  27805  27810  27906M 27906
                                                 27924  28043M 28043  28061  28081  28129  31449M 31531M 31953M 31954M
                                                 31954  35300M 35302  35495M 35524U 35580  35787M 35816U 35855  36107M
                                                 36120  36126  36127  36128M 36711M 36711  36728M 36733M 37390M 37401M
                                                 37401  37416U 37458M 37642M 37649M 37652  37665M 37667M 37690M 37697M
                                                 37700  37741M 37748M 37751  37804M 37811M 37814  37877M 37884M 37887
                                                 37950M 37957M 37960  38671M 38681U 38695  38698  38795  38926M 38927
                                                 38928  38934  39085M 39146  39179
 RK            5 00000005 FFFFFFFF A   #    1064 12529M 12539U 13482M 13483  13487M 13497U 16931M 16953  17015M 17016M
                                                 17016  18662M 18663M 18663  20322M 20359  20360  20361  20362  20382U
                                                 24455M 24811M 24987M 25324M 25500M 25837M 26013M 26350M 26514M 26852M
                                                 27255M 27256M 27256  27284  27729M 31450M 31460U 31481M 31481  31511M
                                                 31532M 31927M 31928M 31928  32140M 32141M 32141  32186U 32301  32301
                                                 32309  32309  32356  32727M 32737U 32752M 32752  32827M 32844M 32844
                                                 33056  35301M 35577M 35579M 36108M 36120  37666M 38565M 38576M 38576
                                                 38583M 38588  38693  38696  38771  38772
 RM            8 00000008 FFFFFFFF A   #    1100  6464M  6474U  6512  19744M 19754U 19779  19816  20110  21028M 21038U
                                                 22262M 22262  22277  22283  22315  22423  22494M 30485M 30968M 30968
                                                 30985  33202M 38738M 38748U 38792
 RN            9 00000009 FFFFFFFF A   #    1112  4404M  4414U  6485M  6495U  6722M  6732U  8530M  8540U  8554M  8554
                                                  8578   8583M  8589M  8622   9591M  9592M  9592   9622M  9632U 17565M
                                                 17743M 17743  17773M 17773  17907  19104M 19261M 19261  19277M 19277
                                                 19348  19696M 19706U 19712M 19730U 20842M 20852U 21103  21318  21771M
                                                 21781U 28793M 28794M 28794  28815U 28892M 28913U 28995  28999  29942M
                                                 29943M 29943  29964U 30041M 30055U 30075  30086  30196M 30277  30329
                                                 30486M 30515U 30677  30750  31103M 31104M 31104  31128U 31267M 31268M
                                                 31268  31292U 32591M 32591  32648M 32648  32654M 32701M 32701  32719U
                                                 32947  39119M 39129U
 RS            1 00000001 FFFFFFFF A   #    1016  4550M  4576   4590   4763M  4777   4789M  4790M  4790   4889M  4890M
                                                  4890   4999M  5000M  5000   5012M  5013M  5013   5025M  5026M  5026
                                                  5114M  5115M  5149   5185M  5186M  5186   5619M  5620M  5620   5644M
                                                  5645M  5645   5909M  5910M  5910   6033M  6034M  6034   6046   6089
                                                  6127   6612M  6613M  6613   6943M  6944M  6944   7376M  7376   7383
                                                  7452   7453   7782M  7783M  7783   7812M  7813   7822M  7822   7987M
                                                  7988M  7989   8303M  8304M  8304   8318M  8319M  8319   8331M  8332M
1DISPATCH (DISP00) (09:38) (22MAR04) Ordinary Symbol and Literal Cross Reference                                            Page  341
                                                  8332   8344M  8345M  8345   8359M  8371   8528M  8528   8578M  8589
                                                  8681M  8682M  8682   8712M  8724   8867M  8868M  8869   8870M  8882
                                                  8975M  8985U  9104M  9105M  9105   9362M  9363M  9384M  9384   9389
                                                  9393   9452M  9453M  9454   9492M  9496   9498M  9502   9504M  9505
                                                  9674M  9684U 10315M 10316M 10316  10647M 10648M 10649  10747M 10757U
                                                 10834M 10835M 10869  10900M 10900  10963M 10977  10991  11670M 11671M
                                                 11672  11698M 11699M 11700  11738M 11751  11833M 11843U 12469M 12470M
                                                 12470  13099M 13100M 13100  13179M 13180M 13180  13486M 13502M 13511
                                                 13568M 13569M 13569  13770M 13771M 13771  13872M 13873B 14319M 14320M
                                                 14320  14731M 14739M 14766M 14767B 14831M 14832M 14848M 14848  14853
                                                 14897M 14907M 14917  14931M 14932M 14966  15018M 15032  15046  16161M
                                                 16175  16189  16316M 16317M 16351  17133M 17134M 17134  17631M 17670M
                                                 17688U 17694M 18247M 18300M 19149M 19188M 19206U 19212M 20546M 20547M
                                                 20547  20603M 20603  20656M 20657M 20691  20877M 21795M 21807  21996M
                                                 21997  22133M 22134M 22135  22183M 22185M 22204M 22216  22347M 22348M
                                                 22348  22455M 22456M 22456  22658M 22659M 22659  22736M 22737M 22737
                                                 22828M 22836M 22866M 22867M 22868  22913M 22932M 22944  22985M 22986M
                                                 22986  23067M 23093M 23112M 23124  23145M 23154M 23154  23189M 23199U
                                                 23205M 23227  23241  23476M 23483  23485M 23519M 23520M 23536M 23536
                                                 23541  23569M 23569  23601M 23611U 23898M 23908M 23918  23967M 23968M
                                                 23984M 23984  23989  24019M 24020M 24054  24105M 24105  24180M 24181M
                                                 24181  27548M 27562  27571M 27579  27608  27629  27727M 27743  27752M
                                                 27760  27789  27810  27910M 27924  27933M 27941  28047M 28061  28081
                                                 28109M 28117  28129  30577M 30590  30629  30736M 30737M 30737  30779M
                                                 30780M 30843M 30844M 30845  30864M 30865M 30866  31430M 31431M 32190M
                                                 32200U 32592M 32628  32726M 32759  33000M 33001  33002M 33003  33063M
                                                 33064M 33065  33066  33334M 33335M 33336  33881M 33882M 33883  34431M
                                                 34432M 34433  34555M 34556M 34557  34576M 34577M 34578  35021M 35022M
                                                 35022  35034  35048M 35049M 35049  35061  35075M 35076M 35076  35088
                                                 35102M 35103M 35103  35115  35532M 35532  35533M 35898M 35899M 35899
                                                 37291M 37292  37452M 37453M 37453  37774M 37774  37839M 37912M 37985M
                                                 37995  38359M 38369U 38393M 38403U 39043M 39053U 39152M 39154  39155
                                                 39179M 39180M 39181M 39181  39191U
 RSFLIH        2 0000143A 00000001     H   11987 16726
 RTCAN         4 0000258A 00000001     I   17464 17459  17475U
 RTCHK         4 000024EC 00000001     I   17210 17205  17221U
 RTCLOCK       4 000021C2 00000001     I   16474 16485U 16732
 RTCLOCK1      2 000021B6 00000001     H   16469 16468
 RTCQ         41 00000000 FFFFFFA5     J    4167 16542U 16869U 17026U 17275U 17290  17530U 17577  17688U 17705U 18024U
                                                 18278U 25985U 26087  26148M 26148  26149M 26247U 26262  26296M 26296
                                                 26297M
 RTCQASB       4 00000010 FFFFFFA5     A    4147 16606  16876M 17311  17598  18294
 RTCQFLGS      1 00000028 FFFFFFA5     R    4154  4158
 RTCQNEXT      4 00000004 FFFFFFA5     A    4145 16583  17051  17068M 17694  17739  18300  18316  26012  26349M
 RTCQPARM      4 00000020 FFFFFFA5     A    4151 16905M 17400  17838  18061
 RTCQSYSR      4 00000018 FFFFFFA5     A    4149 16605  16903M 17863  18093  18341
 RTCQTDB       4 00000014 FFFFFFA5     A    4148 16877M 17332  17619  18050
 RTCQTOD       8 00000008 FFFFFFA5     D    4146 16564  16657  16930M 16931  16953M 16969M 17042  17042  17356  17384
                                                 17794  17822
 RTCQXID       4 0000001C FFFFFFA5     A    4150 16904M 17399  17837  18049  18060
 RTEXIT       16 00000000 FFFFFFD6     J    2060 17247U 17501U 18057U
 RTINTVL     128 00000028 FFFFFFA5         4158 16929M
 RTSET         4 000023E0 00000001     I   16786 16781  16797U
 RTSYSR        4 00002698 00000001     I   17965 16748  17976U
 RTSYSR1       2 0000268C 00000001     H   17960 17959
 RTTERM        4 00002718 00000001     I   18190 18201U 24307
 RTTERM1       2 0000270C 00000001     H   18185 18184
 RTXPARM       4 00000008 FFFFFFD6     A    2053 17400M 17838M 18061M
 RTXTID        4 00000000 FFFFFFD6     A    2051 17398M 17836M 18059M
1DISPATCH (DISP00) (09:38) (22MAR04) Ordinary Symbol and Literal Cross Reference                                            Page  342
 RTXXID        4 00000004 FFFFFFD6     A    2052 17399M 17837M 18060M
 RVR           0 00000000 FFFFFFFF A   #    1004  4348M  4684M  4697   4857M  4857   4955M  5222M  5222   5272M  5322M
                                                  5346   5399M  5453M  5453   5506M  6140M  6141M  6245M  6246M  6247
                                                  6267M  6268M  6269   7691M  7692M  7693   7927M  7928M  7929   8498M
                                                  8841M  8961M  8974  11413M 13717M 13717  14738M 14739  14766  14787M
                                                 14787  14808M 14808  14811M 14818M 14818  15239M 15239  15436M 15436
                                                 15632M 15632  15830M 15830  16859  16903  17149M 17421M 17907M 18585M
                                                 18596  18744M 18981M 19348M 19744  19802  19849  19897  19982M 20080M
                                                 20110M 20311M 20322  20403  20996  21008  21842M 21855  21958M 22034M
                                                 22090M 22156M 22169  22665M 22713M 22720  22802M 22968M 22968  22975
                                                 23041M 23267M 23267  24155M 24155  24529M 24548M 24548  24576  24592M
                                                 25061M 25080M 25080  25108  25124M 25574M 25593M 25593  25621  25637M
                                                 26087M 26106M 26106  26134  26150M 26588M 26607M 26607  26635  26661M
                                                 27545M 27545  27562  27608  27624  27637M 27725M 27725  27727  27743
                                                 27789  27805  27818M 27907M 27955M 28044M 28170M 28881M 28892  28986
                                                 28999M 29179M 29267M 29267  29289M 29484M 29764M 29811M 29811  30030M
                                                 30041  30086M 30213M 30344M 30344  30371M 30630M 30631M 30632  30985M
                                                 31487M 31488M 31669M 31676  31740M 32628M 32629M 32758M 32759M 33301M
                                                 33312  33368  33376  33384  33392  33419  33420  33578M 35375M 35386
                                                 35402M 35494M 35603M 35603  35692M 35931M 35931  36085M 36105  36201M
                                                 36222M 36385M 36529M 38152  38171  38325M 38336  38464  38553  38660M
                                                 38671  38726M 38737  38738  38823M 38834  38874M 38885  38926  38934M
                                                 39352  39421M 39421
 RX            6 00000006 FFFFFFFF A   #    1076  4494M  4504U  5820M  5821M  5821   5978M  5979M  5979   5989U  6006M
                                                  6007M  6007   6023   6069   6127M  6128   6285   6338   6553M  6554M
                                                  6554   6557   6565   6596U  6643   6644   6825M  6826M  6826   6850U
                                                  7011M  7012M  7012   7036U  7042   7042   7050   7050   7067   7068
                                                  7178M  7179M  7179   7203U  7221   8247M  8257U  9298M  9299M  9299
                                                  9327M  9337U  9657M  9667U  9797M  9807U  9888M  9901U  9991  10090
                                                 10277M 10287U 10906M 10916U 11516M 11517M 11517  11575U 11739M 12195M
                                                 12205U 15156M 15166U 15354M 15364U 15551M 15561U 15747M 15757U 15980M
                                                 15990U 16493M 16503U 16835M 16845U 17265M 17275U 17398  17506M 17516U
                                                 18000M 18010U 18212M 18222U 18855M 18865U 18958  19849M 19859U 19866
                                                 20229M 20239U 20503  20828M 20838U 20858  20866  21012M 21019  21020
                                                 21021  21022  21250  21277M 21290U 21757M 21767U 22632M 22642U 23361M
                                                 23371U 23922M 23932U 24376M 24386U 24392M 24410U 24762M 24772U 24778M
                                                 24796U 24908M 24918U 24924M 24942U 25275M 25285U 25291M 25309U 25421M
                                                 25431U 25437M 25455U 25788M 25798U 25804M 25822U 25934M 25944U 25950M
                                                 25968U 26301M 26311U 26317M 26335U 26448M 26458U 26464M 26482U 26803M
                                                 26813U 26819M 26837U 28290M 28300U 28419  28525M 28535U 28654  28767M
                                                 28777U 28928  29111M 29121U 29381M 29391U 29603M 29613U 29747M 29757U
                                                 30539M 30568U 30639  30937  31087M 31097U 31251M 31261U 31413M 31423U
                                                 31652M 31662U 31896M 31906U 32114M 32124U 32564M 32574U 32934  33042
                                                 33223M 33224M 33224  33234U 33312M 33330  33692M 33702U 33733  33798
                                                 33798  33806  33806  33830  33910  33916M 33917M 33917  33937  34164M
                                                 34193U 34228  34270  34380  34466  34593  34731M 34741U 35222M 35232U
                                                 35238M 35256U 35555M 35565U 36641M 36651U 36873M 36883U 37149M 37159U
                                                 37269M 37279U 37376M 37386U 37590M 37600U 38336M 38346U 38375  38791
                                                 39059M 39077U 39356M 39366U
 RY            7 00000007 FFFFFFFF A   #    1088  4625M  4635U  4650M  4650   4697M  4807   4841   4907   5043   5206
                                                  5363   5470   5548   5554   5794M  5804U  6435M  6436M  6436   6460U
                                                  6557   6565   6751M  6752M  6752   6776U  6782   6782   6790   6790
                                                  6977M  6978M  6978   7002U  7144M  7145M  7145   7169U  7335M  7345U
                                                  7674M  7684U  7759M  7769U  8168M  8216U  8234   9275M  9285U  9783M
                                                  9793U 10215M 10216M 10216  10228M 10238U 10623M 10633U 10763M 10781U
                                                 11095M 11105U 11193M 11241U 11247M 11303U 11401  11500M 11510U 12852M
                                                 12862U 12876M 12876  13144M 13145M 13145  13166U 13268M 13278U 13292M
                                                 13292  13735M 13736M 13736  13757U 14034M 14044U 14058M 14058  14407M
                                                 14417U 14431M 14431  14632M 14642U 15142M 15152U 15340M 15350U 15537M
1DISPATCH (DISP00) (09:38) (22MAR04) Ordinary Symbol and Literal Cross Reference                                            Page  343
                                                 15547U 15733M 15743U 15966M 15976U 16821M 16831U 18500M 18510U 19066M
                                                 19076U 19425M 19435U 19802M 19812U 19817  19877  19954  20052  20215M
                                                 20225U 20814M 20824U 20858  20866  21381  21511  21855M 21884U 22618M
                                                 22628U 23174  23375M 23385U 23391M 23447U 23586  23764M 23774U 23780M
                                                 23836U 24139  24201  26995M 27005U 27033  27034  27065  27066  27154M
                                                 27164U 27380M 27390U 27418  27419  27450  27451  27579M 27589U 27637
                                                 27760M 27770U 27818  27941M 27951U 28117M 28166U 28276M 28286U 28511M
                                                 28521U 28753M 28763U 29097M 29107U 29367M 29377U 29589M 29599U 29733M
                                                 29743U 29916M 29926U 30070  30179M 30189U 30461M 30471U 30530  31073M
                                                 31083U 31237M 31247U 31399M 31409U 31638M 31648U 31882M 31892U 32100M
                                                 32110U 32550M 32560U 33188M 33198U 33328  33578  33678M 33688U 34140M
                                                 34150U 34208  34714M 34724U 35693M 35722U 35728M 35765U 35824  35916
                                                 36013M 36023U 36324M 36334U 36509M 36519U 36655M 36668M 36668  36683U
                                                 36701  36755M 36859M 36869U 36967M 36977U 37135M 37145U 37255M 37265U
                                                 37576M 37586U 39309M 39319U
 R0            0 00000000 FFFFFFFF A   #     708  1338U  4225   4474M  4475M  4477   5735   5888M  5889M  5891   6411
                                                  6700   6915   7120   7313   7601   7737   7905   7968   8128   8673M
                                                  8674M  8676   9235   9560   9748   9982M  9983M  9985  10182  10363
                                                 10415M 10418  10426  10518M 10521  10529  10601  10712  11073  11158
                                                 11465  11766M 11767M 11769  12069M 12072  12103M 12106  12121M 12124
                                                 12418M 12422  12430  12623M 12624M 12626  12694M 12695M 12697  12980M
                                                 12983  12991  13070M 13074  13082  13374M 13377  13385  13441  13516M
                                                 14140M 14143  14151  14268M 14272  14280  14535M 14538  14546  14610
                                                 14692M 14693M 14695  15120  15318  15515  15711  15931  16474  16786
                                                 17128M 17129M 17131  17210  17464  17965  18190  18465  18800  19024
                                                 19403  19661  20180  20792  20905M 21596M 21599  21607  21722  22583
                                                 23326  23729  24354  24663  24886  25176  25399  25689  25912  26202
                                                 26426  26658M 26658  26659M 26708  26797M 26797  26798M 26963  27122
                                                 27348  27510  27690  27871  28008  28241  28476  28718  29062  29345
                                                 29567  29711  29881  30144  30426  30952M 30953M 30955  31038  31202
                                                 31364  31603  31784M 31785M 31787  31860  32065  32373M 32374M 32376
                                                 32426M 32429  32437  32528  33153  33523M 33524M 33526  33643  33954M
                                                 33955M 33957  34009M 34012  34020  34105  34679  35187  35459  35657
                                                 35884M 35885M 35887  35991  36289  36487  36591  36837  36945  37100
                                                 37220  37348  37447M 37448M 37450  37541  38083  38267  38765M 38765
                                                 38766M 38847M 38847  38848M 38898M 38898  38899M 39021  39240U 39287
 R1            1 00000001 FFFFFFFF A   #     721  4455M  4465M  4475   5702M  5869M  5879M  5889   6377M  6669M  6884M
                                                  7088M  7282M  7545M  7708M  7873M  7939M  8060M  8671M  8672M  8674
                                                  9151M  9530M  9716M  9980M  9981M  9983  10151M 10415M 10418  10426
                                                 10518M 10521  10529  10572M 10683M 11044M 11129M 11433M 11764M 11765M
                                                 11767  11932M 12418M 12604M 12614M 12624  12675M 12685M 12695  12980M
                                                 12983  12991  13070M 13374M 13377  13385  14140M 14143  14151  14268M
                                                 14535M 14538  14546  14690M 14691M 14693  15091M 15286M 15483M 15679M
                                                 15877M 16441M 16705M 17126M 17127M 17129  17179M 17436M 17932M 18157M
                                                 18433M 18769M 18996M 19373M 19604M 20145M 20759M 21596M 21599  21607
                                                 21671M 22524M 23293M 23696M 24265M 24612M 24856M 25144M 25369M 25657M
                                                 25882M 26170M 26395M 26676M 26892M 27091M 27315M 27476M 27657M 27838M
                                                 27975M 28190M 28444M 28679M 29029M 29314M 29535M 29682M 29851M 30111M
                                                 30396M 30950M 30951M 30953  31005M 31172M 31336M 31573M 31782M 31783M
                                                 31785  31824M 32035M 32371M 32372M 32374  32426M 32429  32437  32494M
                                                 33100M 33521M 33522M 33524  33611M 33952M 33953M 33955  34009M 34012
                                                 34020  34072M 34625M 35154M 35427M 35628M 35882M 35883M 35885  35956M
                                                 36237M 36423M 36544M 36806M 36916M 37072M 37192M 37318M 37445M 37446M
                                                 37448  37488M 38020M 38233M 38949M 39257M 39468M
 R14          14 0000000E FFFFFFFF A   #     890 12072  12106  12124  26650M 26657M 26659M 26789M 26796M 26798M 38760M
                                                 38764M 38766M 38842M 38846M 38848M 38893M 38897M 38899M
 R15          15 0000000F FFFFFFFF A   #     903  4225   4454M  4455   4456M  4458   4473M  4474   4477M  5138   5139M
                                                  5140M  5141M  5142M  5143M  5143   5702M  5735   5780   5781M  5782M
                                                  5783M  5784M  5785M  5785   5868M  5869   5870M  5872   5887M  5888
1DISPATCH (DISP00) (09:38) (22MAR04) Ordinary Symbol and Literal Cross Reference                                            Page  344
                                                  5891M  6377M  6411   6536   6537M  6538M  6539M  6540M  6541M  6541
                                                  6630   6631M  6632M  6633M  6634M  6635M  6635   6669M  6700   6884M
                                                  6915   6961   6962M  6963M  6964M  6965M  6966M  6966   7088M  7120
                                                  7282M  7313   7504   7505M  7506M  7507M  7508M  7509M  7509   7545M
                                                  7601   7660   7661M  7662M  7663M  7664M  7665M  7665   7708M  7737
                                                  7800   7801M  7802M  7803M  7804M  7805M  7805   7873M  7905   7939M
                                                  7968   8040   8041M  8042M  8043M  8044M  8045M  8045   8060M  8128
                                                  8196   8197M  8198M  8199M  8200M  8201M  8201   8670M  8673   8676M
                                                  8990M  9004   9018   9151M  9235   9316   9317M  9318M  9319M  9320M
                                                  9321M  9321   9530M  9560   9608   9609M  9610M  9611M  9612M  9613M
                                                  9613   9716M  9748   9979M  9982   9985M 10151M 10182  10333  10334M
                                                 10335M 10336M 10337M 10338M 10338  10363  10507  10508M 10509M 10510M
                                                 10511M 10512M 10512  10572M 10601  10683M 10712  10813  10814M 10815M
                                                 10816M 10817M 10818M 10818  10858  10859M 10860M 10861M 10862M 10863M
                                                 10863  11044M 11073  11129M 11158  11221  11222M 11223M 11224M 11225M
                                                 11226M 11226  11283  11284M 11285M 11286M 11287M 11288M 11288  11341
                                                 11342M 11343M 11344M 11345M 11346M 11346  11433M 11465  11555  11556M
                                                 11557M 11558M 11559M 11560M 11560  11763M 11766  11769M 11932M 12331
                                                 12332M 12333M 12334M 12335M 12336M 12336  12486  12487M 12488M 12489M
                                                 12490M 12491M 12491  12603M 12604  12605M 12607  12622M 12623  12626M
                                                 12674M 12675  12676M 12678  12693M 12694  12697M 12969  12970M 12971M
                                                 12972M 12973M 12974M 12974  13116  13117M 13118M 13119M 13120M 13121M
                                                 13121  13197  13198M 13199M 13200M 13201M 13202M 13202  13363  13364M
                                                 13365M 13366M 13367M 13368M 13368  13441  13516M 13585  13586M 13587M
                                                 13588M 13589M 13590M 13590  13643  13644M 13645M 13646M 13647M 13648M
                                                 13648  13788  13789M 13790M 13791M 13792M 13793M 13793  13904  13905M
                                                 13906M 13907M 13908M 13909M 13909  14129  14130M 14131M 14132M 14133M
                                                 14134M 14134  14217  14218M 14219M 14220M 14221M 14222M 14222  14336
                                                 14337M 14338M 14339M 14340M 14341M 14341  14524  14525M 14526M 14527M
                                                 14528M 14529M 14529  14610  14672  14673M 14674M 14675M 14676M 14677M
                                                 14677  14689M 14692  14695M 14955  14956M 14957M 14958M 14959M 14960M
                                                 14960  15091M 15120  15256  15257M 15258M 15259M 15260M 15261M 15261
                                                 15286M 15318  15453  15454M 15455M 15456M 15457M 15458M 15458  15483M
                                                 15515  15649  15650M 15651M 15652M 15653M 15654M 15654  15679M 15711
                                                 15847  15848M 15849M 15850M 15851M 15852M 15852  15877M 15931  16340
                                                 16341M 16342M 16343M 16344M 16345M 16345  16441M 16474  16705M 16786
                                                 17125M 17128  17131M 17179M 17210  17436M 17464  17932M 17965  18157M
                                                 18190  18433M 18465  18769M 18800  18996M 19024  19373M 19403  19604M
                                                 19661  20145M 20180  20345  20346M 20347M 20348M 20349M 20350M 20350
                                                 20680  20681M 20682M 20683M 20684M 20685M 20685  20759M 20792  20949
                                                 20950M 20951M 20952M 20953M 20954M 20954  21146  21147M 21148M 21149M
                                                 21150M 21151M 21151  21461  21462M 21463M 21464M 21465M 21466M 21466
                                                 21585  21586M 21587M 21588M 21589M 21590M 21590  21671M 21722  22524M
                                                 22583  23293M 23326  23427  23428M 23429M 23430M 23431M 23432M 23432
                                                 23616M 23630  23644  23696M 23729  23816  23817M 23818M 23819M 23820M
                                                 23821M 23821  23866  23867M 23868M 23869M 23870M 23871M 23871  24043
                                                 24044M 24045M 24046M 24047M 24048M 24048  24087M 24088M 24088  24265M
                                                 24354  24565  24566M 24567M 24568M 24569M 24570M 24570  24612M 24663
                                                 24740  24741M 24742M 24743M 24744M 24745M 24745  24856M 24886  25097
                                                 25098M 25099M 25100M 25101M 25102M 25102  25144M 25176  25253  25254M
                                                 25255M 25256M 25257M 25258M 25258  25369M 25399  25610  25611M 25612M
                                                 25613M 25614M 25615M 25615  25657M 25689  25766  25767M 25768M 25769M
                                                 25770M 25771M 25771  25882M 25912  26123  26124M 26125M 26126M 26127M
                                                 26128M 26128  26170M 26202  26279  26280M 26281M 26282M 26283M 26284M
                                                 26284  26395M 26426  26624  26625M 26626M 26627M 26628M 26629M 26629
                                                 26676M 26708  26771  26772M 26773M 26774M 26775M 26776M 26776  26892M
                                                 26963  27091M 27122  27203  27204M 27205M 27206M 27207M 27208M 27208
                                                 27315M 27348  27476M 27510  27657M 27690  27838M 27871  27975M 28008
                                                 28098  28099M 28100M 28101M 28102M 28103M 28103  28146  28147M 28148M
1DISPATCH (DISP00) (09:38) (22MAR04) Ordinary Symbol and Literal Cross Reference                                            Page  345
                                                 28149M 28150M 28151M 28151  28190M 28241  28333  28334M 28335M 28336M
                                                 28337M 28338M 28338  28444M 28476  28568  28569M 28570M 28571M 28572M
                                                 28573M 28573  28679M 28718  29029M 29062  29314M 29345  29535M 29567
                                                 29682M 29711  29851M 29881  30111M 30144  30396M 30426  30949M 30952
                                                 30955M 31005M 31038  31172M 31202  31336M 31364  31573M 31603  31781M
                                                 31784  31787M 31824M 31860  32035M 32065  32163  32164M 32165M 32166M
                                                 32167M 32168M 32168  32272  32273M 32274M 32275M 32276M 32277M 32277
                                                 32370M 32373  32376M 32415  32416M 32417M 32418M 32419M 32420M 32420
                                                 32494M 32528  32878  32879M 32880M 32881M 32882M 32883M 32883  33100M
                                                 33153  33520M 33523  33526M 33611M 33643  33774  33775M 33776M 33777M
                                                 33778M 33779M 33779  33951M 33954  33957M 33998  33999M 34000M 34001M
                                                 34002M 34003M 34003  34072M 34105  34245  34246M 34247M 34248M 34249M
                                                 34250M 34250  34309  34310M 34311M 34312M 34313M 34314M 34314  34625M
                                                 34679  35154M 35187  35427M 35459  35628M 35657  35881M 35884  35887M
                                                 35956M 35991  36237M 36289  36423M 36487  36544M 36591  36806M 36837
                                                 36916M 36945  37072M 37100  37192M 37220  37318M 37348  37444M 37447
                                                 37450M 37488M 37541  38020M 38083  38233M 38267  38949M 39021  39257M
                                                 39287  39438  39439M 39440M 39441M 39442M 39443M 39443  39468M
 R2            2 00000002 FFFFFFFF A   #     734 12419M 12422  12430  13071M 13074  13082  14269M
 R3            3 00000003 FFFFFFFF A   #     747 13537M 13542  13550
 R4            4 00000004 FFFFFFFF A   #     760 13537M 14269M 14272  14280
 R5            5 00000005 FFFFFFFF A   #     773 13538M
 R6            6 00000006 FFFFFFFF A   #     786 13539M
 R9            9 00000009 FFFFFFFF A   #     825 13539M 13542  13550
 S                        00000001 A   U   21072 21112
 SEXITMC       8 00000000 FFFFFFAE     J    3316 15804U
 SEXITPER      8 00000000 FFFFFFAF     J    3291 15213U
 SEXITPI       8 00000000 FFFFFFB0     J    3266 15411U 15416M
 SEXITSVC      4 00000000 FFFFFFB1     J    3241 15608U 15613M
 SIGNALAS      1 00000000 00000002     T    7558  7558
 SPR          13 0000000D FFFFFFFF A   #    1172  4225   4240   4241   4243M  4328U  4521U  4671U  4731U  4839U  4942U
                                                  5204U  5259U  5581U  5735   5750   5751   5753M  6107U  6411   6426
                                                  6427   6429M  6700   6715   6716   6718M  6915   6930   6931   6933M
                                                  7120   7135   7136   7138M  7313   7328   7329   7331M  7445U  7601
                                                  7616   7617   7619M  7737   7752   7753   7755M  7905   7920   7921
                                                  7923M  7968   7983   7984   7986M  8128   8143   8144   8164M  8273U
                                                  8394U  8439U  8485U  8782U  8828U  8917U  8948U  9067U  9235   9250
                                                  9251   9271M  9560   9575   9576   9578M  9748   9763   9764   9779M
                                                 10182  10197  10198  10200M 10409M 10601  10616  10617  10619M 10712
                                                 10727  10728  10743M 11073  11088  11089  11091M 11158  11173  11174
                                                 11189M 11399U 11465  11480  11481  11496M 11718U 12192M 12508M 13138M
                                                 13662M 14358M 14610  14625  14626  14628M 15120  15135  15136  15138M
                                                 15182U 15318  15333  15334  15336M 15380U 15515  15530  15531  15533M
                                                 15577U 15711  15726  15727  15729M 15773U 15931  15946  15947  15962M
                                                 16124U 16252U 16474  16489  16490  16492M 16517U 16596U 16675U 16786
                                                 16801  16802  16817M 16887U 16992U 17210  17225  17226  17241M 17464
                                                 17479  17480  17495M 17549U 17854U 17886U 17965  17980  17981  17996M
                                                 18040U 18084U 18116U 18190  18205  18206  18208M 18236U 18332U 18364U
                                                 18408U 18465  18480  18481  18496M 18565U 18800  18815  18816  18831M
                                                 19024  19039  19040  19055M 19403  19418  19419  19421M 19507U 19661
                                                 19676  19677  19692M 19770U 19901M 19937U 19969U 20018U 20067U 20180
                                                 20195  20196  20211M 20255U 20291U 20426U 20463M 20479U 20573U 20792
                                                 20807  20808  20810M 20997M 21053U 21225M 21241U 21342U 21502U 21722
                                                 21737  21738  21753M 21829U 21903U 21945U 22366U 22583  22598  22599
                                                 22614M 22685U 22757U 23172U 23326  23341  23342  23357M 23584U 23729
                                                 23744  23745  23760M 23946U 24137U 24199U 24230U 24354  24369  24370
                                                 24372M 24509U 24663  24678  24679  24694M 24886  24901  24902  24904M
                                                 25041U 25176  25191  25192  25207M 25399  25414  25415  25417M 25554U
                                                 25689  25704  25705  25720M 25912  25927  25928  25930M 26067U 26202
1DISPATCH (DISP00) (09:38) (22MAR04) Ordinary Symbol and Literal Cross Reference                                            Page  346
                                                 26217  26218  26233M 26426  26441  26442  26444M 26568U 26708  26723
                                                 26724  26739M 26963  26978  26979  26994M 27122  27137  27138  27153M
                                                 27348  27363  27364  27379M 27510  27525  27526  27541M 27690  27705
                                                 27706  27721M 27871  27886  27887  27902M 28008  28023  28024  28039M
                                                 28241  28256  28257  28272M 28476  28491  28492  28507M 28718  28733
                                                 28734  28749M 28861U 29062  29077  29078  29093M 29234U 29345  29360
                                                 29361  29363M 29464U 29567  29582  29583  29585M 29711  29726  29727
                                                 29729M 29881  29896  29897  29912M 30010U 30144  30159  30160  30175M
                                                 30426  30441  30442  30457M 30881U 31038  31053  31054  31069M 31202
                                                 31217  31218  31233M 31364  31379  31380  31395M 31603  31618  31619
                                                 31634M 31860  31875  31876  31878M 32065  32080  32081  32096M 32284M
                                                 32528  32543  32544  32546M 33003M 33153  33168  33169  33184M 33281U
                                                 33352U 33423M 33548U 33643  33658  33659  33674M 33718M 33731U 33795M
                                                 34105  34120  34121  34136M 34268U 34348U 34679  34694  34695  34710M
                                                 34773U 35010U 35187  35202  35203  35218M 35355U 35459  35474  35475
                                                 35490M 35657  35672  35673  35688M 35914U 35991  36006  36007  36009M
                                                 36069U 36171U 36289  36304  36305  36320M 36355U 36487  36502  36503
                                                 36505M 36591  36606  36607  36627M 36837  36852  36853  36855M 36945
                                                 36960  36961  36963M 37100  37115  37116  37131M 37220  37235  37236
                                                 37251M 37348  37363  37364  37366M 37541  37556  37557  37572M 38083
                                                 38098  38099  38114M 38134U 38187U 38267  38282  38283  38285M 38305U
                                                 38442U 38528U 38640U 39021  39036  39037  39039M 39287  39302  39303
                                                 39305M 39333U 39389U
 STDB         32 00000000 FFFFFFA8     J    3972  7431U 35270U 35375  35400M 35400  35401M 35524U 35551M 35816U
 STDBADDR      4 0000000C FFFFFFA8     A    3964  7448  35842M
 STDBASDB      4 00000008 FFFFFFA8     A    3963  7453M 35533M 35824M
 STDBNEXT      4 00000004 FFFFFFA8     A    3962  7435   7452M 35300  35576M 35854M
 STDBPARM      4 00000010 FFFFFFA8     A    3965  7447  35843M
 STKDEL        4 00005456 00000001     I   36289 33115  34358  34783  34974  36300U
 STKDEL1       2 0000544A 00000001     H   36284 36283
 STKNEW        4 000053A0 00000001     I   35991 24294  33114  36002U 36441
 STKNEW1       2 00005394 00000001     H   35986 35985
 STKSIZE       1 00000800 FFFFFFAC A   U    3565 26588  26657  26796  36107  36128
 SUSPEND       4 00000DF2 00000001     I    9748  9743   9759U
 SVCPER        2 00001780 00000001     I   13057 16739
 SVCROUTE      4 00001F36 00000001     I   15515 15526U 16734
 SVFLIH        2 0000176C 00000001     H   13044 38992
 SXIECODE      2 00000002 FFFFFFAF     H    3283 15219M
 SXIEILC       2 00000000 FFFFFFAF     H    3282 15218M
 SXIEPERA      4 00000004 FFFFFFAF     A    3284 15220M
 SXIMCLA       2 00000002 FFFFFFAE     H    3308 15810M
 SXIMCODE      4 00000004 FFFFFFAE     A    3309 15811M
 SXIMILC       2 00000000 FFFFFFAE     H    3307 15809M
 SXIPCODE      2 00000002 FFFFFFB0     H    3258 15417M
 SYSPRIO       1 00000004 FFFFFFAC A   U    3595  3596  11969
 SYSRDEL       4 00005284 00000001     I   35459 19626  35454  35470U
 SYSRDO        4 000052EC 00000001     I   35657 16749  35652  35668U
 SYSRNEW       4 0000520A 00000001     I   35187 19618  35182  35198U
 SYSTASK       1 00000000 0000001D     T   39497 39497
 SYSTDBS       4 00000756 00000001     I    7313  5945   7324U
 SYSTDBS1      2 0000074A 00000001     H    7308  7307
 TCLEANUP      4 000050F0 00000001     I   34679 33741  34278  34690U
 TCPUTIME      4 0000562C 00000001     I   36837 36832  36848U
 TCREATE       4 00004CBE 00000001     I   33153 24298  33148  33164U
 TDB         224 00000000 FFFFFFA9     J    3939  5989U  6046   6089   6596U  6850U  7036U  7203U  9901U 10287U 11575U
                                                 15166U 15364U 15561U 15757U 15990U 19859U 20239U 20311  20356  20356
                                                 20382U 20731U 20838U 21011  21011  21648U 24959U 25061  25122M 25122
                                                 25123M 25221U 25236  25270M 25270  25271M 28300U 28376U 28535U 28611U
                                                 28777U 29121U 29391U 29613U 29757U 30568U 31097U 31261U 31423U 31662U
1DISPATCH (DISP00) (09:38) (22MAR04) Ordinary Symbol and Literal Cross Reference                                            Page  347
                                                 31906U 32124U 32574U 33207U 33234U 33301  33326M 33326  33327M 33702U
                                                 33853U 33868U 33908M 34193U 34403U 34418U 34489U 34504U 34591M 34741U
                                                 36883U 37159U 37279U
 TDBASDB       4 00000004 FFFFFFA9     A    3857 19877M 33328M 34208
 TDBCHN        4 00000008 FFFFFFA9     A    3858 33329M 33857  33858  33878  34407  34408  34428
 TDBCLCN       4 000000AC FFFFFFA9     A    3905  9992  10091  11604  11858  33066M
 TDBCPUST      8 000000C8 FFFFFFA9     D    3930  7061M  7236  36893
 TDBDFLG       1 000000B0 FFFFFFA9     R    3908  3912   3917
 TDBEMASK      4 000000A8 FFFFFFA9     A    3904  6140  20972M 20972  30779  31669  31740M 32592  32965U 33454U
 TDBERBS       4 00000020 FFFFFFA9     A    3886 30676  30677M 30703  31449  31450  32593  34794
 TDBESBS       4 0000001C FFFFFFA9     A    3885 28994  28995M 29128  29398  29447M 29622  29767  32727  34910
 TDBESTAT    113 00000040 FFFFFFA9     X    3920  4118  10053U 11843U 31140U 31304U 32321M 32945  32957M 32957
 TDBFACT      64 00000018 FFFFFFA9         3879  6096M  6311M  7248M 11644  19873M 28316  28349M 28551  28584M 30819
                                                 34447
 TDBFGLOB    128 00000018 FFFFFFA9         3874 19883M 20392M 21018M 34292
 TDBFLG1       1 00000018 FFFFFFA9     R    3870  3874   3879
 TDBGPRS       4 00000048 FFFFFFA9     F    3901 19899M 19901M 19902M 32999M 33001M 33003M 33022M 33421M 33423M 33425M
                                                 33441M
 TDBISTAT    104 00000040 FFFFFFA9     X    3903  6641   6857M  7065   7227M 31142  31306M 32322  32940M 33048
 TDBISTK       4 00000028 FFFFFFA9     A    3888 10019  11802  31103  31267  31927  32140  32320M 32946  32947M 34853
 TDBLCN        4 0000002C FFFFFFA9     A    3889 33064  33065M
 TDBLONG      64 000000B0 FFFFFFA9         3917  6235   9950M 10085M 11662  11679M 11872  11872  30834  34546
 TDBMCERQ      4 00000038 FFFFFFA9     A    3895 15786  33384M 35075
 TDBMON        4 000000B4 FFFFFFA9     F    3924  6642   7066  37292M 37293
 TDBNEXT       4 0000000C FFFFFFA9     A    3862  6022   6089  24986  25323M 28401  28418M 28636  28653M 33249  33909M
                                                 33929  33936M 33936  34493  34494  34514  34592M
 TDBPEERQ      4 0000003C FFFFFFA9     A    3896 15195  33392M 35102
 TDBPERIN      4 000000B8 FFFFFFA9     F    3925 37166M 37167
 TDBPIERQ      4 00000034 FFFFFFA9     A    3894 15393  33376M 35048
 TDBPRIO       4 00000010 FFFFFFA9     A    3863  6046   6046  11738  11751  28392  28392  28627  28627  33491  33496M
                                                 33508
 TDBPSW        8 00000040 FFFFFFA9     D    3900  3903   3903   3920   3920  19884M 19885M 19902  32958M 32999  33396M
                                                 33425
 TDBSTACK      4 00000014 FFFFFFA9     A    3867 19898M 20488  20502M 20502  33419M 34329  34350  34757  34775
 TDBSUSP     128 000000B0 FFFFFFA9         3912  6220   9928M 10063M 10303  11619  11631M 11872  11872  11873M 30804
                                                 30923  34531
 TDBSVERQ      4 00000030 FFFFFFA9     A    3893 15590  33368M 35021
 TDBTCLK       8 000000D0 FFFFFFA9     D    3931 19886M 33471M
 TDBTCPU       8 000000D8 FFFFFFA9     D    3932  7237   7238M 36894
 TDBXRMAP      4 00000024 FFFFFFA9     A    3887  6141  30633M 30780  31431  31470M 31470  31530M 31763  32587M 32587
                                                 32674M
 TEXIT         4 00004E04 00000001     I   33643 24301  33638  33654U
 TKDISP        4 0000032A 00000001     I    5735  5633   5746U
 TKDISP1       2 0000031E 00000001     H    5730  5729
 TKDLP         4 000003F2 00000001     I    5978  6319B
 TQPARM        4 00000000 FFFFFF9A     J   28227  6107U 11718U 28268U 28503U 30881U 33548U
 TQPTDB        4 00000000 FFFFFF9A     A   28220  6119M 11730M 28290  28525  30893M 33560M
 TRCASN        1 00000002 FFFFFFAD A   U    3518  3520  38042
 TRCBRANCH
               1 80000000 FFFFFFAD A   U    3517  3520  38040
 TRCD1         4 00005EE8 00000001     A   39517 39516
 TRCEXPL       1 00000001 FFFFFFAD A   U    3519  3520  38041
 TREMOVE       4 00004F88 00000001     I   34105 34100  34116U
 TSKADD        4 00004126 00000001     I   28241 11965  28252U 33121  36442
 TSKADD1       2 0000411A 00000001     H   28236 28235
 TSKREQ        4 000041BC 00000001     I   28476  7567  28487U
 TSKREQ1       2 000041B0 00000001     H   28471 28470
 UPDPRIO       4 00000C42 00000001     I    9235  8466   8809   9246U 16746
 UPDPRIO1      2 00000C36 00000001     H    9230  9229
1DISPATCH (DISP00) (09:38) (22MAR04) Ordinary Symbol and Literal Cross Reference                                            Page  348
 UPPOTIM       8 00000008 FFFFFFA0     D    9213  9423M  9425M  9427
 UPPSFPR       8 00000010 FFFFFFA0     D    9214  9395M  9399   9421M  9483
 UPPSTCK       8 00000000 FFFFFFA0     D    9212  9422M  9424M  9426
 UPPWA        24 00000000 FFFFFFA0     J    9221  9269U
 VCROUTE1      2 00001F2A 00000001     H   15510 15509
 VMCRAS1       1 00000000 0000000C     T   24292 24292
 VMFREE        1 00000000 00000015     T   33116 33116  39506
 VMGET         1 00000000 00000009     T   19629 19629  24293  26902  33111  36438  39493
 VMINIT1       1 00000000 00000018     T   39486 39486
 VMINIT2       1 00000000 0000001C     T   39491 39491
 WAR          12 0000000C FFFFFFFF A   #    1160  4240   4241M  4242   4243   5702   5703   5750   5751M  5752   5753
                                                  6377   6378   6426   6427M  6428   6429   6669   6670   6715   6716M
                                                  6717   6718   6884   6885   6930   6931M  6932   6933   7088   7089
                                                  7135   7136M  7137   7138   7282   7283   7328   7329M  7330   7331
                                                  7545   7546   7616   7617M  7618   7619   7708   7709   7752   7753M
                                                  7754   7755   7873   7874   7920   7921M  7922   7923   7939   7940
                                                  7983   7984M  7985   7986   8060   8061   8143   8144M  8145   8155U
                                                  8164   9151   9152   9250   9251M  9252   9262U  9271   9530   9531
                                                  9575   9576M  9577   9578   9716   9717   9763   9764M  9765   9775U
                                                  9779  10151  10152  10197  10198M 10199  10200  10408M 10572  10573
                                                 10616  10617M 10618  10619  10683  10684  10727  10728M 10729  10739U
                                                 10743  11044  11045  11088  11089M 11090  11091  11129  11130  11173
                                                 11174M 11175  11185U 11189  11433  11434  11480  11481M 11482  11492U
                                                 11496  11932  11933  12191M 12507M 13137M 13661M 14357M 14625  14626M
                                                 14627  14628  15091  15092  15135  15136M 15137  15138  15286  15287
                                                 15333  15334M 15335  15336  15483  15484  15530  15531M 15532  15533
                                                 15679  15680  15726  15727M 15728  15729  15877  15878  15946  15947M
                                                 15948  15958U 15962  16441  16442  16489  16490M 16491  16492  16705
                                                 16706  16801  16802M 16803  16813U 16817  17179  17180  17225  17226M
                                                 17227  17237U 17241  17436  17437  17479  17480M 17481  17491U 17495
                                                 17932  17933  17980  17981M 17982  17992U 17996  18157  18158  18205
                                                 18206M 18207  18208  18433  18434  18480  18481M 18482  18492U 18496
                                                 18769  18770  18815  18816M 18817  18827U 18831  18996  18997  19039
                                                 19040M 19041  19051U 19055  19373  19374  19418  19419M 19420  19421
                                                 19604  19605  19676  19677M 19678  19688U 19692  19899M 20145  20146
                                                 20195  20196M 20197  20207U 20211  20462M 20463  20759  20760  20807
                                                 20808M 20809  20810  20996M 21223  21224M 21671  21672  21737  21738M
                                                 21739  21749U 21753  22524  22525  22598  22599M 22600  22610U 22614
                                                 23293  23294  23341  23342M 23343  23353U 23357  23696  23697  23744
                                                 23745M 23746  23756U 23760  24265  24266  24369  24370M 24371  24372
                                                 24612  24613  24678  24679M 24680  24690U 24694  24856  24857  24901
                                                 24902M 24903  24904  25144  25145  25191  25192M 25193  25203U 25207
                                                 25369  25370  25414  25415M 25416  25417  25657  25658  25704  25705M
                                                 25706  25716U 25720  25882  25883  25927  25928M 25929  25930  26170
                                                 26171  26217  26218M 26219  26229U 26233  26395  26396  26441  26442M
                                                 26443  26444  26676  26677  26723  26724M 26725  26735U 26739  26892
                                                 26893  26978  26979M 26980  26990U 26994  27091  27092  27137  27138M
                                                 27139  27149U 27153  27315  27316  27363  27364M 27365  27375U 27379
                                                 27476  27477  27525  27526M 27527  27537U 27541  27657  27658  27705
                                                 27706M 27707  27717U 27721  27838  27839  27886  27887M 27888  27898U
                                                 27902  27975  27976  28023  28024M 28025  28035U 28039  28190  28191
                                                 28256  28257M 28258  28268U 28272  28444  28445  28491  28492M 28493
                                                 28503U 28507  28679  28680  28733  28734M 28735  28745U 28749  29029
                                                 29030  29077  29078M 29079  29089U 29093  29314  29315  29360  29361M
                                                 29362  29363  29535  29536  29582  29583M 29584  29585  29682  29683
                                                 29726  29727M 29728  29729  29851  29852  29896  29897M 29898  29908U
                                                 29912  30111  30112  30159  30160M 30161  30171U 30175  30396  30397
                                                 30441  30442M 30443  30453U 30457  31005  31006  31053  31054M 31055
                                                 31065U 31069  31172  31173  31217  31218M 31219  31229U 31233  31336
1DISPATCH (DISP00) (09:38) (22MAR04) Ordinary Symbol and Literal Cross Reference                                            Page  349
                                                 31337  31379  31380M 31381  31391U 31395  31573  31574  31618  31619M
                                                 31620  31630U 31634  31824  31825  31875  31876M 31877  31878  32035
                                                 32036  32080  32081M 32082  32092U 32096  32254M 32255M 32255  32283M
                                                 32284  32494  32495  32543  32544M 32545  32546  33001M 33100  33101
                                                 33168  33169M 33170  33180U 33184  33421M 33611  33612  33658  33659M
                                                 33660  33670U 33674  33717M 33718  33756M 33757M 33757  33794M 33795
                                                 34072  34073  34120  34121M 34122  34132U 34136  34625  34626  34694
                                                 34695M 34696  34706U 34710  35154  35155  35202  35203M 35204  35214U
                                                 35218  35427  35428  35474  35475M 35476  35486U 35490  35628  35629
                                                 35672  35673M 35674  35684U 35688  35956  35957  36006  36007M 36008
                                                 36009  36237  36238  36304  36305M 36306  36316U 36320  36423  36424
                                                 36502  36503M 36504  36505  36544  36545  36606  36607M 36608  36618U
                                                 36627  36806  36807  36852  36853M 36854  36855  36916  36917  36960
                                                 36961M 36962  36963  37072  37073  37115  37116M 37117  37127U 37131
                                                 37192  37193  37235  37236M 37237  37247U 37251  37318  37319  37363
                                                 37364M 37365  37366  37488  37489  37556  37557M 37558  37568U 37572
                                                 38020  38021  38098  38099M 38100  38110U 38114  38233  38234  38282
                                                 38283M 38284  38285  38558  38949  38950  39036  39037M 39038  39039
                                                 39257  39258  39302  39303M 39304  39305  39468  39469
 X                        00000001 A   U   36738 36745  36747  36750
 XITDEL        4 00004544 00000001     I   30144 30139  30155U 36447
 XITDO         4 000045EA 00000001     I   30426 16743  19628  30421  30437U
 XITFPR        4 000047B4 00000001     I   31364 31359  31375U
 XITGST        4 00004730 00000001     I   31038 31033  31049U
 XITMASK       4 0000483E 00000001     I   31603 31598  31614U
 XITMLGO       2 00000000 FFFFFFB4         3114 30666  30666  30667  30667  30668  30668  30669  30669
 XITMMON       4 00000000 FFFFFFB4         3109 30663  30663  30664  30664  30665  30665  30669  30669
 XITMPER       8 00000000 FFFFFFB4         3104 30661  30661  30662  30662  30665  30665  30668  30668
 XITMPI      128 00000000 FFFFFFB4         3084 30660  30660  30661  30661  30663  30663  30666  30666  32972M 33466
                                                 33466  33467M
 XITMSKD       4 00000000 FFFFFFB4     J    3158 32965U 33454U
 XITMSVC      64 00000000 FFFFFFB4         3089 30660  30660  30662  30662  30664  30664  30667  30667  33466  33466
 XITNEW        4 000044BE 00000001     I   29881 29876  29892U 36440
 XITPST        4 00004772 00000001     I   31202 31197  31213U
 XITRMPLC      4 000048C8 00000001     I   31860 31855  31871U
 XITTCTC       1 00000003 00000001 A   U    3056 19518
 XITTMON       1 00000005 00000001 A   U    3058 15798
 XITTPER       1 00000004 00000001 A   U    3057 15207
 XITTPI        1 00000000 00000001 A   U    3053 15405  32862
 XITTRTC       1 00000002 00000001 A   U    3055 18051
 XITTSVC       1 00000001 00000001 A   U    3054 15602
 =A(ACPUTIME)
               4 00002AA0 00000001     A   19631 18641  18918  19291
 =A(ACREATE)
               4 00005EB8 00000001     A   39498 38459
 =A(ASDISP)
               4 000013F4 00000001     A   11960 10472
 =A(ASDISP)
               4 000022B4 00000001     A   16730 12275  12835  12900  13251  13316  14017  14082  14390  14455
 =A(ASDISP)
               4 000036BC 00000001     A   24310 21554
 =A(ASDISP)
               4 00004C80 00000001     A   33124 32383
 =A(ASDISP)
               4 000054D8 00000001     A   36445 33964
 =A(ASLOCK)
               4 000013E4 00000001     A   11956 10017  11588
 =A(ASLOCK)
               4 00002A7C 00000001     A   19622 17257  18852
1DISPATCH (DISP00) (09:38) (22MAR04) Ordinary Symbol and Literal Cross Reference                                            Page  350
 =A(ASLOCK)
               4 00004C48 00000001     A   33110 28789  29253  29938  30242  31918  32136
 =A(ASLOCK)
               4 000054B8 00000001     A   36437 33219  33715  34159  36035  36344
 =A(ASULOCK)
               4 000013E8 00000001     A   11957 10105  11906
 =A(ASULOCK)
               4 00002A84 00000001     A   19624 17419  18979
 =A(ASULOCK)
               4 00004C50 00000001     A   33112 28902  29262  30081  30339  30369  32014
 =A(ASULOCK)
               4 000054D0 00000001     A   36443 33573  34599  36220  36402
 =A(ASWAKE)
               4 00001400 00000001     A   11963 11407
 =A(ASWAKE)
               4 000036E0 00000001     A   24319 23180  23592  24207
 =A(ASWAKE)
               4 000054F4 00000001     A   36452 35922
 =A(C'FREE')
               4 000054E8 00000001     A   36449 35528
 =A(CPTIMER)
               4 000022EC 00000001     A   16744 16062
 =A(CPUTIMR)
               4 000022C0 00000001     A   16733 12740
 =A(DELASB)
               4 000036B4 00000001     A   24308 21324
 =A(DELASDB)
               4 000036B8 00000001     A   24309 21517
 =A(DELGTDB)
               4 00003694 00000001     A   24300 20509  21256
 =A(DELRTCQ)
               4 00002A90 00000001     A   19627 17901  18131  18379
 =A(DEMOTE)
               4 0000080C 00000001     A    7563  4847   5212
 =A(DEMOTE)
               4 000036E8 00000001     A   24321 24145
 =A(DISPRD)
               4 000013C0 00000001     A   11947  7849   9117
 =A(DISPRD)
               4 00004C78 00000001     A   33122 31794
 =A(DISPSHLD)
               4 000036A4 00000001     A   24304 20982
 =A(EXSCHED)
               4 00000820 00000001     A    7568  6180
 =A(FGSTK)
               4 00003690 00000001     A   24299 20494  21275
 =A(GGSTK)
               4 00003664 00000001     A   24288 19895  20994
 =A(INITDIS1)
               4 00005E94 00000001     A   39489 38169
 =A(INITDIS2)
               4 00005EA0 00000001     A   39492 38217
 =A(LTDISP)
               4 00000800 00000001     A    7560  4608
 =A(MAXPRIO)
               4 000013E0 00000001     A   11955  9446
 =A(NEWASB)
               4 00003640 00000001     A   24279 19742
 =A(NEWASB)
1DISPATCH (DISP00) (09:38) (22MAR04) Ordinary Symbol and Literal Cross Reference                                            Page  351
               4 00005ED4 00000001     A   39505 38924
 =A(NEWASDB)
               4 0000364C 00000001     A   24282 19800
 =A(NEWGTDB)
               4 00003658 00000001     A   24285 19847  21006
 =A(NEWRTCQ)
               4 00002A68 00000001     A   19617 16857
 =A(PFLT)      4 000022D4 00000001     A   16738 13707
 =A(PQADD)
               4 00000810 00000001     A    7564  4976   5293   5527
 =A(PQADD)
               4 000013D0 00000001     A   11951  8520   8863
 =A(PQADD)
               4 0000366C 00000001     A   24290 20003  20101  22055  22111  22823  23062
 =A(PQDEL)
               4 000013CC 00000001     A   11950  8422   8765
 =A(PQDEL)
               4 000036DC 00000001     A   24318 22779  23018
 =A(PQHIGH)
               4 00000804 00000001     A    7561  4695
 =A(PQHIGH)
               4 000036C4 00000001     A   24312 21853
 =A(PQHPFN)
               4 000013D8 00000001     A   11953  8972
 =A(PQHPFN)
               4 000036D4 00000001     A   24316 22167
 =A(PQPRIO)
               4 00000814 00000001     A    7565  5333
 =A(PQREQ)
               4 00000818 00000001     A    7566  5420
 =A(PQREQ)
               4 000036D0 00000001     A   24315 21979
 =A(RDPARMS)
               4 00005EAC 00000001     A   39495 38425
 =A(RTCLOCK)
               4 000022BC 00000001     A   16732 12633  12773
 =A(RTSYSR)
               4 000022FC 00000001     A   16748 16607
 =A(RTTERM)
               4 000036B0 00000001     A   24307 21302
 =A(STKDEL)
               4 00004C5C 00000001     A   33115 29242
 =A(STKNEW)
               4 0000367C 00000001     A   24294 20401
 =A(STKNEW)
               4 00004C58 00000001     A   33114 28984
 =A(STKNEW)
               4 000054C8 00000001     A   36441 33417
 =A(SVCPER)
               4 000022D8 00000001     A   16739 13872
 =A(SVCROUTE)
               4 000022C4 00000001     A   16734 13225
 =A(SYSRDEL)
               4 00002A8C 00000001     A   19626 17869  18099  18347
 =A(SYSRDO)
               4 00002300 00000001     A   16749 16614
 =A(SYSRNEW)
               4 00002A6C 00000001     A   19618 16901
 =A(TCREATE)
1DISPATCH (DISP00) (09:38) (22MAR04) Ordinary Symbol and Literal Cross Reference                                            Page  352
               4 0000368C 00000001     A   24298 20457
 =A(TEXIT)
               4 00003698 00000001     A   24301 20719
 =A(TRCASN)
               4 00005978 00000001     A   38042 37985
 =A(TRCBRANCH)
               4 00005970 00000001     A   38040 37839
 =A(TRCEXPL)
               4 00005974 00000001     A   38041 37912
 =A(TSKADD)
               4 00001408 00000001     A   11965 11736
 =A(TSKADD)
               4 00004C74 00000001     A   33121 30899
 =A(TSKADD)
               4 000054CC 00000001     A   36442 33566
 =A(TSKREQ)
               4 0000081C 00000001     A    7567  6125
 =A(UPDPRIO)
               4 000022F4 00000001     A   16746 16283
 =A(X'10')
               4 000022D0 00000001     A   16737 13691
 =A(X'11')
               4 000022CC 00000001     A   16736 13677
 =A(X'16')
               4 000022C8 00000001     A   16735 13476
 =A(X'40')
               4 000022DC 00000001     A   16740 13943
 =A(X'80000000'+ASCRE2)
               4 00003660 00000001     A   24287 19885
 =A(X'80000000'+RSFLIH)
               4 000022A4 00000001     A   16726 12218
 =A(XITDEL)
               4 000054E0 00000001     A   36447 35040  35067  35094  35121
 =A(XITDO)
               4 000022E8 00000001     A   16743 15229  15426  15622  15820
 =A(XITDO)
               4 00002A94 00000001     A   19628 18067  19534
 =A(XITNEW)
               4 000054C4 00000001     A   36440 33366  33374  33382  33390
 =A(0)         4 00002A88 00000001     A   19625 17727  19245
 =A(1)         4 000013EC 00000001     A   11958 10362
 =A(1)         4 00002298 00000001     A   16723 12184  12497  13127  13596  14347
 =A(1)         4 00002A70 00000001     A   19619 16947
 =A(1)         4 00003654 00000001     A   24284 19838  21222  22064  22120
 =A(1)         4 00004C7C 00000001     A   33123 32291
 =A(1)         4 000054D4 00000001     A   36444 33793
 =A(100)       4 00003688 00000001     A   24297 20445
 =A(16*4096)
               4 00005EC4 00000001     A   39501 38561
 =A(2)         4 00003650 00000001     A   24283 19837
 =A(31)        4 00004C6C 00000001     A   33119 30590
 =A(4096)      4 000054F8 00000001     A   36453 36085
 =AL2(1)       2 000036F2 00000001     R   24325 20896  20932
 =AL4(1)       4 000013F8 00000001     R   11961 10490
 =AL4(1)       4 000022B8 00000001     R   16731 12314  12952  13346  14112  14507
 =AL4(1)       4 000036C0 00000001     R   24311 21568
 =AL4(1)       4 00004C84 00000001     R   33125 32398
 =AL4(1)       4 000054DC 00000001     R   36446 33981
 =C' '         1 0000597E 00000001     C   38044 37664
1DISPATCH (DISP00) (09:38) (22MAR04) Ordinary Symbol and Literal Cross Reference                                            Page  353
 =C'asb '      4 00003D88 00000001     C   26908 25784
 =C'asdb'      4 00003D78 00000001     C   26904 24758
 =C'gstk'      4 00003D98 00000001     C   26912 26799
 =C'gtdb'      4 00003D80 00000001     C   26906 25271
 =C'rtcq'      4 00003D90 00000001     C   26910 26297
 =C'Abort Code ID = '
              16 00002270 00000001     C   16719 12096
 =C'ASB '      4 000013FC 00000001     C   11962 11204
 =C'ASB '      4 00003D84 00000001     C   26907 25636  25749
 =C'ASB '      4 000054EC 00000001     C   36450 35704
 =C'ASDB'      4 000013C4 00000001     C   11948  8179  10796  11266
 =C'ASDB'      4 000036E4 00000001     C   24320 23410  23799
 =C'ASDB'      4 00003D74 00000001     C   26903 24591  24723
 =C'ASDB'      4 000054F0 00000001     C   36451 35747
 =C'CPTQ'      4 00002A9C 00000001     C   19630 18629  18880  19116
 =C'ERB '      4 00004C64 00000001     C   33117 30069  30207  30497
 =C'ESB '      4 00004C54 00000001     C   33113 28927
 =C'GSTK'      4 00003D94 00000001     C   26911 26660  26754
 =C'IPCB'      4 00005ECC 00000001     C   39503 38692
 =C'Milten closed connection'
              24 00002258 00000001     C   16718 12062
 =C'MILGONE'
               7 0000231D 00000001     C   16759 12049
 =C'MILSTOP'
               7 00002316 00000001     C   16758 12036
 =C'RTCQ'      4 00002A80 00000001     C   19623 17290  17577
 =C'RTCQ'      4 00003D8C 00000001     C   26909 26149  26262
 =C'STDB'      4 000054E4 00000001     C   36448 35401  35506  35798
 =C'TDB '      4 00001404 00000001     C   11964 11538
 =C'TDB '      4 00003D7C 00000001     C   26905 25123  25236
 =C'TDB '      4 00004C68 00000001     C   33118 30550
 =C'TDB '      4 000054C0 00000001     C   36439 33327  34175
 =CL16'ASBCHAIN'
              16 00005E78 00000001     C   39485 39347
 =CL16'DISPATCH'
              16 00005E60 00000001     C   39483 38542
 =CL4'DCT'
               4 00005EA8 00000001     C   39494 38358
 =CL8'ASN'
               8 00005968 00000001     C   38039 37929
 =CL8'BRANCH'
               8 00005958 00000001     C   38037 37783
 =CL8'DISPATCH'
               8 00005938 00000001     C   38033 37682
 =CL8'EXPLICIT'
               8 00005960 00000001     C   38038 37856
 =CL8'SYSNAME'
               8 00005930 00000001     C   38032 37621
 =CL8'TORVYL'
               8 00005E50 00000001     C   39481 38408
 =CL8'TRACE'
               8 00005950 00000001     C   38036 37782  37855  37928
 =CL8'WSINT'
               8 00005940 00000001     C   38034 37683
 =CL8'WSLIMIT'
               8 00005948 00000001     C   38035 37734
 =F'-1'        4 00004248 00000001     F   28689 27907
 =FL8S12E3'50'
               8 00005E58 00000001     G   39482 38503
1DISPATCH (DISP00) (09:38) (22MAR04) Ordinary Symbol and Literal Cross Reference                                            Page  354
 =H'-1'        2 00001410 00000001     H   11968  9637
 =H'-1'        2 00005EDE 00000001     H   39508 38389
 =H'-8'        2 00004250 00000001     H   28691 27547  27909  28046
 =H'1'         2 0000140E 00000001     H   11967  9363  11318
 =V(ASMGBLIN)
               4 00003648 00000001     V   24281 19790
 =V(ASMLCLIN)
               4 00003680 00000001     V   24295 20409
 =V(ASMLCLX)
               4 000036A8 00000001     V   24305 21203
 =V(ASMTASK)
               4 00003684 00000001     V   24296 20436
 =V(IOSINIT)
               4 00005E90 00000001     V   39488 38159
 =V(IOSINTER)
               4 000022E0 00000001     V   16741 14364
 =V(LKCRE)
               4 00005EBC 00000001     V   39499 38551  39350
 =V(LKINIT)
               4 00005E8C 00000001     V   39487 38155
 =V(LKOB)      4 000007FC 00000001     V    7559  4530
 =V(LKOB)      4 000013C8 00000001     V   11949  8282
 =V(LKOB)      4 000022F8 00000001     V   16747 16526
 =V(LKOB)      4 00002A74 00000001     V   19620 17001  17558  18245
 =V(LKOB)      4 00003668 00000001     V   24289 19951  20587  21062  21351  23955
 =V(LKREL)
               4 00000808 00000001     V    7562  4740   5590
 =V(LKREL)
               4 000013DC 00000001     V   11954  9076
 =V(LKREL)
               4 00002304 00000001     V   16750 16684
 =V(LKREL)
               4 00002A78 00000001     V   19621 17082  17760  18417
 =V(LKREL)
               4 00003670 00000001     V   24291 20032  20627  21180  21485  24239
 =V(M1GOWAIT)
               4 0000369C 00000001     V   24302 20908
 =V(PAGASC1)
               4 00003644 00000001     V   24280 19783
 =V(PAGAST1)
               4 000036A0 00000001     V   24303 20975
 =V(PAGAST2)
               4 000036AC 00000001     V   24306 21210
 =V(PAGFAULT)
               4 000022E4 00000001     V   16742 14764
 =V(PAGINIT)
               4 00005E98 00000001     V   39490 38200
 =V(PAGISWAP)
               4 000036CC 00000001     V   24314 21915
 =V(PAGOSWAP)
               4 000036D8 00000001     V   24317 22697
 =V(PAGSFIX)
               4 000054FC 00000001     V   36454 36209
 =V(PAGSWADV)
               4 000013D4 00000001     V   11952  8929
 =V(PAGUSFIX)
               4 00005500 00000001     V   36455 36393
 =V(PAGWSMAN)
               4 000022F0 00000001     V   16745 16138
1DISPATCH (DISP00) (09:38) (22MAR04) Ordinary Symbol and Literal Cross Reference                                            Page  355
 =V(SIGNALAS)
               4 000007F8 00000001     V    7558  4356
 =V(SYSTASK)
               4 00005EB4 00000001     V   39497 38452
 =V(VMCRAS1)
               4 00003674 00000001     V   24292 20267
 =V(VMFREE)
               4 00004C60 00000001     V   33116 29503
 =V(VMFREE)
               4 00005ED8 00000001     V   39506 39411
 =V(VMGET)
               4 00002A98 00000001     V   19629 18594
 =V(VMGET)
               4 00003678 00000001     V   24293 20320
 =V(VMGET)
               4 00003D70 00000001     V   26902 24538  25070  25583  26096  26597
 =V(VMGET)
               4 00004C4C 00000001     V   33111 28890  30039
 =V(VMGET)
               4 000054BC 00000001     V   36438 33310  35384  36100
 =V(VMGET)
               4 00005EA4 00000001     V   39493 38334  38669  38735  38832  38883
 =V(VMINIT1)
               4 00005E88 00000001     V   39486 38150
 =V(VMINIT2)
               4 00005E9C 00000001     V   39491 38204
 =X'FFFFFFFFFFFFFFFF'
               8 00002280 00000001     X   16720 12242  16011  16641
 =X'FFFFFFFFFFFFFFFF'
               8 00005920 00000001     X   38030 37027
 =X'FF0F0000'
               4 000013F0 00000001     X   11959 10372
 =X'FF000000'
               4 000022B0 00000001     X   16729 12243
 =X'00B00000'
               4 0000229C 00000001     X   16724 12216
 =X'00FFFFFFFFFFFFFF'
               8 000013B0 00000001     X   11945  9656
 =X'00FFFFFFFFFFFFFF'
               8 00003638 00000001     X   24278 19832  19886  20984  20985
 =X'00FFFFFFFFFFFFFF'
               8 000054B0 00000001     X   36436 33471
 =X'00FFFFFFFFFFFFFF'
               8 00005E70 00000001     X   39484 38768  38769
 =X'00FFFFFFFFFFFFFFFF'
               9 00002AA6 00000001     X   19633 19564
 =X'0000000000000001'
               8 00002288 00000001     X   16721 16013
 =X'0000000000000001'
               8 00005928 00000001     X   38031 37029
 =X'00000011'
               4 00005EC8 00000001     X   39502 38603
 =X'04'        1 000036F6 00000001     X   24327 21215
 =X'040C0000'
               4 000022A0 00000001     X   16725 12217
 =X'070C0000'
               4 0000365C 00000001     X   24286 19884  20435
 =X'070C0000'
               4 00005EB0 00000001     X   39496 38451
1DISPATCH (DISP00) (09:38) (22MAR04) Ordinary Symbol and Literal Cross Reference                                            Page  356
 =X'070F0000C9C4D3C5'
               8 000013B8 00000001     X   11946  9701
 =X'10B06C40'
               4 000022AC 00000001     X   16728 12241
 =X'10B06400'
               4 000022A8 00000001     X   16727 12219
 =X'1004'      2 00002310 00000001     X   16755 12761
 =X'1005'      2 0000230E 00000001     X   16754 12728
 =X'1202'      2 0000230C 00000001     X   16753 12523
 =X'4E00000000000000'
               8 00002290 00000001     X   16722 16086
 =X'7FFFFFFF'
               4 000036C8 00000001     X   24313 21867
 =X'7FFFFFFF'
               4 0000424C 00000001     X   28690 28044
 =X'7FFFF000'
               4 00005EC0 00000001     X   39500 38559
 =X'80000000'
               4 00004C70 00000001     X   33120 30630
 =X'80000000'
               4 00005ED0 00000001     X   39504 38774
 =Y(MAXPRIO)
               2 000036EC 00000001     Y   24322 19821  19822  19823
 =Y(NUMPRIO)
               2 0000082A 00000001     Y    7572  6737
 =Y(PSAKDISP-PSA+L'PZERO)
               2 00000824 00000001     Y    7569  4249   5949   6184
 =Y(PSAKDISP-PSA+L'PZERO)
               2 0000230A 00000001     Y   16752 12440
 =Y(PSAKDISP-PSA+L'PZERO)
               2 00005EE2 00000001     Y   39510 38770
 =Y(PSAKIOSV-PSA+L'PZERO)
               2 00002312 00000001     Y   16756 14290
 =Y(PSAKUSER-PSA+L'PZERO)
               2 00000828 00000001     Y    7571  5660   5918   6155
 =Y(PSAKUSER-PSA+L'PZERO)
               2 00002308 00000001     Y   16751 12282  12920  14475
 =Y(SYSPRIO)
               2 00001412 00000001     Y   11969 11112  11113  11114
 =Y(1)         2 00000826 00000001     Y    7570  5115
 =Y(1)         2 0000140C 00000001     Y   11966  7988  10835
 =Y(1)         2 00002314 00000001     Y   16757 14832  14932  16317
 =Y(1)         2 000036EE 00000001     Y   24323 19867  20657  23520  23968  24020
 =Y(1000)      2 0000597C 00000001     Y   38043 37717
 =Y(31*256+0)
               2 00002AA4 00000001     Y   19632 18591
 =Y(31*256+0)
               2 000036F0 00000001     Y   24324 20317
 =Y(31*256+0)
               2 00004C88 00000001     Y   33126 28887  29500  30036
 =Y(31*256+0)
               2 00005504 00000001     Y   36456 33307  36091
 =Y(4)         2 000036F4 00000001     Y   24326 22226  22954  23134
 =Y(4096)      2 00005EE0 00000001     Y   39509 38726  38764  38783  38786  38823  38846  38874  38897
 =Y(46*256+0)
               2 00005EE4 00000001     Y   39511 39408
 =Y(63*256+0)
               2 00003D9C 00000001     Y   26913 24535  25067  25580  26093  26594
 =Y(63*256+0)
1DISPATCH (DISP00) (09:38) (22MAR04) Ordinary Symbol and Literal Cross Reference                                            Page  357
               2 00005506 00000001     Y   36457 35381
 =Y(63*256+0)
               2 00005EDC 00000001     Y   39507 38331  38666  38732  38829  38880

1DISPATCH (DISP00) (09:38) (22MAR04) Macro and Copy Code Source Summary                                                     Page  358
- Con Source                                        Volume    Members                        HLASM R4.0  2004/03/22 09.38
0     PRIMARY INPUT                                           CLOCK    CSECT    DISABLE  DROP     ENABLE   END      EX
                                                              LTORG    POP      PQADD    PQDEL    PQFUNC   PQHIGH
                                                              PQHPFN   PQLOW    PQPRIO   PQREQ    PRINT    PUSH
                                                              START    TQADD    TQREQ    UPDCLOCK USING
   L2 WYL.GG.ORV.MACLIB                             SYSB02    $LKPARM  ABORT    ACALL    ASB      ASDB     DISPPARM
                                                              GETPARM2 HEADER   IOSIPARM IPLPARM  LCALL    LKCRE    LKOB
                                                              LKREL    LOCKPARM MAT      MODULE   ORVWTO   PAGEPARM
                                                              PARMPARM PEND     PMOV     PROC     PSET     PZERO    REG
                                                              SEXIPARM SIGNL    SIGPARM  SPLEVEL  SYSCTL   TDB
                                                              TIMEPARM VCALL    VMFREE   VMGET    VMIPARM  VMPARM
                                                              XITPARM  XTRC     XTRCDATA
   L3 WYL.GG.SYS.MACLIB                             SYSB05    $BC      $BFLKUP  $BV      $CCLKUP  $CRS     $CSS     $L
                                                              $LA      $LBLAD   $LEXP    $LOR     $NIL     $OIL     $REL
                                                              $RGLKUP  $USLKUP  ADL      AUSING   BASE     BEGIN    CEIL
                                                              CLEAR    CSECT    DATA     DECR     DEFCC    DIAG     DROP
                                                              ELSE     END      EX       EXIT     FLAG     FLOOR    GEN
                                                              HIBAL    IDENT    IF       INCR     LABEL    LC       LCM
                                                              LOOP     LT       LTORG    L2       POP      PRINT    PUSH
                                                              RECORD   REGS     SDL      SET      START    STF
                                                              UNTIL    USING    WHILE    WITH     ZOT

1         (DISP00) (09:38) (22MAR04) General Purpose Register Cross Reference                                               Page  359
- Register  References (M=modified, B=branch, U=USING, D=DROP, N=index)                      HLASM R4.0  2004/03/22 09.38
0    0(0)      991U   992D  1338U  4225   4348M  4353   4474M  4475M  4477   4684M  4689   4697   4857M  4857   4955M
              4960   5222M  5222   5272M  5277   5322M  5327   5346   5399M  5404   5453M  5453   5506M  5511   5735
              5888M  5889M  5891   6140M  6141M  6245M  6246M  6247   6267M  6268M  6269   6411   6700   6915   7120
              7313   7601   7691M  7692M  7693   7737   7905   7927M  7928M  7929   7968   8128   8498M  8503   8673M
              8674M  8676   8841M  8846   8961M  8966   8974   9235   9560   9748   9982M  9983M  9985  10182  10363
             10415M 10418  10518M 10521  10541M 10601  10712  11073  11158  11413M 11465  11766M 11767M 11769  11991
             12069M 12103M 12121M 12346M 12399  12418M 12422  12623M 12624M 12626  12694M 12695M 12697  12980M 12983
             13003M 13050  13070M 13074  13374M 13377  13397M 13441  13516M 13717M 13717  14140M 14143  14163M 14249
             14268M 14272  14535M 14538  14558M 14610  14692M 14693M 14695  14738M 14739  14766  14787M 14787  14808M
             14808  14811M 14818M 14818  15120  15239M 15239  15318  15436M 15436  15515  15632M 15632  15711  15830M
             15830  15931  16474  16786  16859  16903  17128M 17129M 17131  17149M 17210  17421M 17464  17907M 17965
             18190  18465  18585M 18590  18596  18744M 18800  18981M 19024  19348M 19403  19661  19744  19802  19849
             19897  19982M 19987  20080M 20085  20110M 20180  20311M 20316  20322  20403  20792  20905M 20996  21008
             21596M 21599  21619M 21722  21842M 21847  21855  21958M 21963  22034M 22039  22090M 22095  22156M 22161
             22169  22583  22665M 22713M 22720  22802M 22807  22968M 22968  22975  23041M 23046  23267M 23267  23326
             23729  24155M 24155  24354  24529M 24534  24548M 24548  24576  24592M 24663  24886  25061M 25066  25080M
             25080  25108  25124M 25176  25399  25574M 25579  25593M 25593  25621  25637M 25689  25912  26087M 26092
             26106M 26106  26134  26150M 26202  26426  26588M 26593  26607M 26607  26635  26659M 26661M 26708  26798M
             26963  27122  27348  27510  27545M 27545  27562  27608  27624  27637M 27690  27725M 27725  27727  27743
             27789  27805  27818M 27871  27907M 27955M 28008  28044M 28170M 28241  28476  28718  28881M 28886  28892
             28986  28999M 29062  29179M 29267M 29267  29289M 29345  29484M 29489  29567  29711  29764M 29811M 29811
             29881  30030M 30035  30041  30086M 30144  30213M 30344M 30344  30371M 30426  30630M 30631M 30632  30952M
             30953M 30955  30985M 31038  31202  31364  31487M 31488M 31603  31669M 31676  31740M 31784M 31785M 31787
             31860  32065  32373M 32374M 32376  32426M 32429  32449M 32528  32628M 32629M 32758M 32759M 33153  33301M
             33306  33312  33368  33376  33384  33392  33419  33420  33523M 33524M 33526  33578M 33643  33954M 33955M
             33957  34009M 34012  34032M 34105  34679  35187  35375M 35380  35386  35402M 35459  35494M 35603M 35603
             35657  35692M 35884M 35885M 35887  35931M 35931  35991  36085M 36090  36105  36201M 36206  36222M 36289
             36385M 36390  36487  36529M 36591  36837  36945  37100  37220  37348  37447M 37448M 37450  37541  38054U
             38055D 38059U 38083  38152  38171  38267  38325M 38330  38336  38464  38553  38660M 38665  38671  38726M
             38731  38737  38738  38766M 38823M 38828  38834  38848M 38874M 38879  38885  38899M 38926  38934M 39021
             39240U 39287  39352  39421M 39421
     1(1)      987U  4225   4455M  4465M  4475   4550M  4576   4590   4763M  4777   4789M  4790M  4790   4889M  4890M
              4890   4999M  5000M  5000   5012M  5013M  5013   5025M  5026M  5026   5114M  5115M  5149   5185M  5186M
              5186   5619M  5620M  5620   5644M  5645M  5645   5702M  5735   5869M  5879M  5889   5909M  5910M  5910
              6033M  6034M  6034   6046   6089   6127   6377M  6411   6612M  6613M  6613   6669M  6700   6884M  6915
              6943M  6944M  6944   7088M  7120   7282M  7313   7376M  7376   7383   7452   7453   7545M  7601   7708M
              7737   7782M  7783M  7783   7812M  7813   7822M  7822   7873M  7905   7939M  7968   7987M  7988M  7989
              8060M  8128   8303M  8304M  8304   8318M  8319M  8319   8331M  8332M  8332   8344M  8345M  8345   8359M
              8371   8405   8528M  8528   8578M  8589   8671M  8672M  8674   8681M  8682M  8682   8712M  8724   8748
              8867M  8868M  8869   8870M  8882   8975M  8985U  9044U  9104M  9105M  9105   9151M  9235   9362M  9363M
              9384M  9384   9389   9393   9452M  9453M  9454N  9492M  9496   9498M  9502   9504M  9505   9530M  9560
              9674M  9684U  9696U  9716M  9748   9980M  9981M  9983  10151M 10182  10315M 10316M 10316  10363  10415M
             10418  10518M 10521  10541M 10572M 10601  10647M 10648M 10649  10683M 10712  10747M 10757U 10770U 10834M
             10835M 10869  10900M 10900  10963M 10977  10991  11044M 11073  11129M 11158  11433M 11465  11670M 11671M
             11672  11698M 11699M 11700  11738M 11751  11764M 11765M 11767  11833M 11843U 11887U 11932M 11991  12346M
             12399  12418M 12422  12469M 12470M 12470  12604M 12614M 12624  12675M 12685M 12695  12980M 12983  13003M
             13050  13070M 13074  13099M 13100M 13100  13179M 13180M 13180  13374M 13377  13397M 13441  13486M 13502M
             13511  13516M 13568M 13569M 13569  13770M 13771M 13771  13872M 13873B 14140M 14143  14163M 14249  14268M
             14272  14319M 14320M 14320  14535M 14538  14558M 14610  14690M 14691M 14693  14731M 14739M 14766M 14767N
             14831M 14832M 14848M 14848  14853  14897M 14907M 14917  14931M 14932M 14966  15018M 15032  15046  15091M
             15120  15286M 15318  15483M 15515  15679M 15711  15877M 15931  16161M 16175  16189  16316M 16317M 16351
             16441M 16474  16705M 16786  17126M 17127M 17129  17133M 17134M 17134  17179M 17210  17436M 17464  17631M
             17670M 17688U 17694M 17710U 17932M 17965  18157M 18190  18247M 18300M 18433M 18465  18769M 18800  18996M
             19024  19149M 19188M 19206U 19212M 19228U 19373M 19403  19604M 19661  20145M 20180  20546M 20547M 20547
             20584  20603M 20603  20624  20656M 20657M 20691  20759M 20792  20877M 20915M 21596M 21599  21619M 21671M
1         (DISP00) (09:38) (22MAR04) General Purpose Register Cross Reference                                               Page  360
             21722  21795M 21807  21996M 21997  22133M 22134M 22135  22183M 22185M 22204M 22216  22347M 22348M 22348
             22455M 22456M 22456  22524M 22583  22658M 22659M 22659  22736M 22737M 22737  22828M 22836M 22866M 22867M
             22868  22913M 22932M 22944  22985M 22986M 22986  23067M 23093M 23112M 23124  23145M 23154M 23154  23189M
             23199U 23205M 23212U 23227  23241  23293M 23326  23476M 23483  23485M 23519M 23520M 23536M 23536  23541
             23569M 23569  23601M 23611U 23670U 23696M 23729  23898M 23908M 23918  23967M 23968M 23984M 23984  23989
             24019M 24020M 24054  24105M 24105  24180M 24181M 24181  24265M 24354  24612M 24663  24856M 24886  25144M
             25176  25369M 25399  25657M 25689  25882M 25912  26170M 26202  26395M 26426  26658M 26658  26659M 26676M
             26708  26797M 26797  26798M 26892M 26963  27091M 27122  27315M 27348  27476M 27510  27548M 27562N 27571M
             27579N 27608N 27629N 27657M 27690  27727M 27743N 27752M 27760N 27789N 27810N 27838M 27871  27910M 27924N
             27933M 27941N 27975M 28008  28047M 28061N 28081N 28109M 28117N 28129N 28190M 28241  28444M 28476  28679M
             28718  29029M 29062  29314M 29345  29535M 29567  29682M 29711  29851M 29881  30111M 30144  30396M 30426
             30574D 30576M 30576  30577M 30578U 30590  30629  30736M 30737M 30737  30779M 30780M 30843M 30844M 30845
             30864M 30865M 30866  30950M 30951M 30953  31005M 31038  31172M 31202  31336M 31364  31430M 31431M 31573M
             31603  31782M 31783M 31785  31824M 31860  32035M 32065  32190M 32200U 32238U 32371M 32372M 32374  32426M
             32429  32449M 32494M 32528  32592M 32628  32726M 32759  33000M 33001  33002M 33003  33063M 33064M 33065
             33066  33100M 33153  33334M 33335M 33336  33521M 33522M 33524  33611M 33643  33881M 33882M 33883  33952M
             33953M 33955  34009M 34012  34032M 34072M 34105  34431M 34432M 34433  34555M 34556M 34557  34576M 34577M
             34578  34625M 34679  35021M 35022M 35022  35034  35048M 35049M 35049  35061  35075M 35076M 35076  35088
             35102M 35103M 35103  35115  35154M 35187  35427M 35459  35532M 35532  35533M 35628M 35657  35882M 35883M
             35885  35898M 35899M 35899  35956M 35991  36237M 36289  36423M 36487  36544M 36591  36806M 36837  36916M
             36945  37072M 37100  37192M 37220  37290M 37290  37291M 37292  37318M 37348  37445M 37446M 37448  37452M
             37453M 37453  37488M 37541  37774M 37774  37839M 37912M 37985M 37995  38020M 38083  38233M 38267  38359M
             38369U 38382U 38393M 38403U 38415U 38765M 38765  38766M 38847M 38847  38848M 38898M 38898  38899M 38949M
             39021  39043M 39053U 39066U 39152M 39154  39155  39179M 39180M 39181M 39181N 39191U 39223U 39257M 39287
             39468M
     2(2)      983U  4225   4303M  4313U  4364U  4535M  4545U  4620U  5107M  5114   5149M  5702M  5735   6377M  6411
              6669M  6700   6884M  6915   7088M  7120   7282M  7313   7363M  7364M  7364   7383M  7416M  7416   7431U
              7486M  7487M  7487   7515M  7521U  7545M  7601   7708M  7737   7873M  7905   7939M  7968   8060M  8128
              8529M  8571   8577M  8605   8865M  8866M  8867N  8869N  9151M  9235   9393M  9394M  9396N  9432M  9446
              9452   9469M  9475   9479M  9480N  9530M  9560   9716M  9748   9832M  9840M 10151M 10182  10363  10376M
             10376  10377M 10378M 10396M 10397M 10398  10402M 10403M 10404  10541M 10572M 10601  10640M 10647  10649M
             10683M 10712  10827M 10834  10869M 10920M 10932  10949M 10959U 11016U 11044M 11073  11129M 11158  11310M
             11317  11353M 11433M 11465  11582M 11604  11858  11932M 11991  12022M 12255M 12257M 12258M 12259  12346M
             12399  12419M 12422  13003M 13050  13071M 13074  13397M 13441  13456M 13457M 13476  13516M 13614M 13614
             13677  13691  13943  14163M 14249  14269M 14272  14558M 14610  14700M 14708M 14824M 14831  14853M 14916M
             14917M 14919  14924M 14931  14966M 14990M 15000U 15078U 15091M 15120  15286M 15318  15483M 15515  15679M
             15711  15877M 15931  16147M 16157U 16214U 16309M 16316  16351M 16441M 16474  16532M 16542U 16558M 16558
             16608  16616M 16635M 16635  16692U 16705M 16786  16859M 16869U 17069  17098  17149  17156U 17179M 17210
             17264M 17384M 17388M 17389M 17390  17404M 17404  17421  17436M 17464  17822M 17826M 17827M 17828  17932M
             17965  18014M 18024U 18059  18125  18139U 18157M 18190  18262M 18263M 18263  18278U 18373  18390U 18433M
             18465  18519M 18529U 18541M 18541  18596M 18716  18731  18744  18751U 18769M 18800  18854M 18964M 18964
             18981  18996M 19024  19373M 19403  19442M 19452U 19466M 19466  19526  19540  19541M 19558M 19558  19591U
             19604M 19661  19897M 19898  19899  19900M 19901  19909M 19910M 19910  19948  20029  20145M 20180  20530M
             20540U 20638U 20649M 20656  20691M 20759M 20792  21008M 21012  21067M 21112M 21223M 21269  21353M 21413M
             21619M 21671M 21722  21919D 21921M 21921  21922M 21923U 21924N 21989M 21997M 22131M 22132M 22133N 22135N
             22186M 22198M 22198  22204N 22217N 22226M 22232M 22244  22253  22283M 22284M 22288N 22396N 22524M 22583
             22701D 22703M 22703  22704M 22705U 22706N 22835M 22836  22859M 22866  22868M 22888M 22898U 22911U 22914M
             22926M 22926  22932N 22945N 22954M 22960M 22961  23094M 23106M 23106  23112N 23125N 23134M 23140M 23141
             23293M 23326  23483M 23484M 23485  23512M 23519  23541M 23696M 23729  23917M 23918M 23920  23960M 23967
             23989M 24012M 24019  24054M 24094M 24119  24265M 24354  24417M 24445M 24445  24456M 24487M 24487  24576M
             24592  24612M 24663  24803M 24810  24812M 24856M 24886  24949M 24977M 24977  24988M 25019M 25019  25108M
             25124  25144M 25176  25316M 25323  25325M 25369M 25399  25462M 25490M 25490  25501M 25532M 25532  25621M
             25637  25657M 25689  25829M 25836  25838M 25882M 25912  25975M 26003M 26003  26014M 26045M 26045  26134M
             26150  26170M 26202  26342M 26349  26351M 26395M 26426  26489M 26504M 26504  26515M 26546M 26546  26635M
             26661  26676M 26708  26844M 26851  26853M 26892M 26963  27012M 27013M 27014M 27091M 27122  27171M 27172M
             27173M 27315M 27348  27397M 27398M 27399M 27476M 27510  27546M 27657M 27690  27726M 27838M 27871  27908M
             27975M 28008  28045M 28190M 28241  28353M 28401M 28444M 28476  28588M 28636M 28679M 28718  29029M 29062
             29128M 29278M 29314M 29345  29446M 29447  29505  29535M 29567  29622M 29623M 29623  29644U 29659U 29682M
             29711  29767M 29768M 29768  29789U 29828U 29851M 29881  30111M 30144  30244M 30355M 30396M 30426  31005M
1         (DISP00) (09:38) (22MAR04) General Purpose Register Cross Reference                                               Page  361
             31038  31172M 31202  31336M 31364  31573M 31603  31676M 31693M 31714M 31735M 31740  31763M 31824M 31860
             32035M 32065  32449M 32494M 32528  32593M 32675M 33004M 33005  33021M 33022  33100M 33153  33420M 33421
             33422M 33423  33475M 33491M 33496  33508  33611M 33643  33817M 33857M 34032M 34072M 34105  34329M 34330M
             34330  34367M 34407M 34453M 34493M 34625M 34679  34757M 34758M 34758  34794M 34805M 34805  34820U 34837M
             34843U 34853M 34864M 34864  34879U 34896M 34902U 34910M 34921M 34921  34936U 34983  34984M 34990U 35154M
             35187  35260M 35291M 35291  35302M 35333M 35333  35386M 35402  35427M 35459  35528M 35533  35569M 35576
             35580M 35628M 35657  35823M 35823  35824M 35847M 35854  35855M 35956M 35991  36046M 36047M 36047  36105M
             36106  36157M 36189  36222  36237M 36289  36338M 36373  36396  36423M 36487  36544M 36591  36806M 36837
             36916M 36945  37072M 37100  37192M 37220  37318M 37348  37488M 37541  37628M 37667M 37712  37716M 37716
             37718M 37719  37763  37790M 37863M 37936M 38020M 38083  38152M 38196  38233M 38267  38464M 38474U 38480M
             38487U 38498U 38510U 38587M 38587  38588M 38603M 38696M 38697M 38698N 38774M 38775M 38776  38793M 38794
             38834M 38849  38885M 38900  38949M 39021  39089M 39100M 39100  39115U 39160M 39171U 39257M 39287  39468M
     3(3)      979U  4225   5702M  5735   6377M  6411   6669M  6700   6884M  6915   7088M  7120   7282M  7313   7435M
              7515   7545M  7601   7708M  7737   7873M  7905   7939M  7968   8060M  8128   9151M  9235   9530M  9560
              9716M  9748   9839M  9840  10151M 10182  10363  10385M 10385  10386M 10387M 10391M 10392M 10396  10541M
             10572M 10601  10683M 10712  11044M 11073  11129M 11158  11317M 11318M 11353  11384M 11384  11413  11433M
             11465  11932M 11991  12346M 12399  13003M 13050  13397M 13441  13483M 13484  13516M 13537M 13542  14163M
             14249  14269M 14272  14558M 14610  14707M 14708  15004M 15014U 15073U 15091M 15120  15286M 15318  15483M
             15515  15679M 15711  15877M 15931  16441M 16474  16705M 16786  17104M 17114U 17141U 17179M 17210  17384M
             17386M 17390  17436M 17464  17822M 17824M 17828  17932M 17965  18157M 18190  18433M 18465  18769M 18800
             18996M 19024  19373M 19403  19604M 19661  20145M 20180  20515M 20525U 20594  20644U 20759M 20792  21072U
             21087M 21088M 21088  21103  21129M 21129  21365M 21366M 21366  21381  21407U 21429U 21444M 21444  21619M
             21671M 21722  22184M 22185  22216M 22217M 22218  22334M 22382  22442M 22480  22524M 22583  22904M 22913
             22944M 22945M 22946  23068M 23078U 23084M 23091U 23093  23124M 23125M 23126  23293M 23326  23696M 23729
             24265M 24354  24417M 24455  24456M 24612M 24663  24803M 24812M 24856M 24886  24949M 24987  24988M 25144M
             25176  25316M 25325M 25369M 25399  25462M 25500  25501M 25657M 25689  25829M 25838M 25882M 25912  25975M
             26013  26014M 26170M 26202  26342M 26351M 26395M 26426  26489M 26514  26515M 26676M 26708  26844M 26853M
             26892M 26963  27091M 27122  27315M 27348  27476M 27510  27547M 27571  27657M 27690  27838M 27871  27909M
             27933  27975M 28008  28046M 28109  28190M 28241  28365M 28366M 28366  28376U 28418  28444M 28476  28600M
             28601M 28601  28611U 28653  28679M 28718  29029M 29062  29140M 29141M 29141  29156U 29202  29256  29284U
             29314M 29345  29398M 29409M 29409  29424U 29499  29505M 29511U 29535M 29567  29682M 29711  29851M 29881
             30111M 30144  30230U 30257M 30258M 30258  30277  30378U 30396M 30426  30703M 30721U 30744M 30765U 31005M
             31038  31172M 31202  31336M 31364  31573M 31603  31824M 31860  32035M 32065  32449M 32494M 32528  32608M
             32609M 32609  32624U 32654  32685U 33100M 33153  33611M 33643  33818M 33830  33853U 33858M 33873U 34032M
             34072M 34105  34368M 34380  34403U 34408M 34423U 34454M 34466  34489U 34494M 34509U 34625M 34679  34980M
             34984  35154M 35187  35260M 35301  35302M 35427M 35459  35569M 35577  35580M 35628M 35657  35956M 35991
             36106M 36127M 36237M 36289  36423M 36487  36544M 36591  36806M 36837  36916M 36945  37072M 37100  37192M
             37220  37318M 37348  37488M 37541  37635M 37664M 37667M 37712M 37717M 37718M 37719  37797M 37870M 37943M
             38020M 38083  38171M 38197  38233M 38267  38558M 38559M 38560  38781M 38782  38783M 38784  38785M 38786M
             38787  38949M 39021  39153M 39154M 39155M 39196M 39206U 39217U 39257M 39287  39468M
     4(4)      975U  4225   5702M  5735   6377M  6411   6669M  6700   6884M  6915   7088M  7120   7282M  7313   7448M
              7468   7545M  7601   7708M  7737   7873M  7905   7939M  7968   8060M  8128   9151M  9235   9530M  9560
              9716M  9748  10019M 10029U 10035M 10042U 10053U 10098U 10151M 10182  10363  10541M 10572M 10601  10683M
             10712  11044M 11073  11129M 11158  11433M 11465  11802M 11814M 11814  11829U 11881M 11892U 11932M 11991
             12346M 12399  13003M 13050  13397M 13441  13482M 13484  13516M 13537M 13542  14163M 14249  14269M 14272
             14558M 14610  15091M 15120  15286M 15318  15483M 15515  15679M 15711  15877M 15931  15994M 16004U 16418U
             16441M 16474  16705M 16786  16931M 16947M 16952M 16953  17003M 17051M 17179M 17210  17436M 17464  17520M
             17530U 17661  17685U 17705U 17836  17895  17914U 17932M 17965  18157M 18190  18433M 18465  18650M 18698M
             18769M 18800  18996M 19024  19080M 19090U 19179  19203U 19223U 19331  19341  19355U 19373M 19403  19604M
             19661  20145M 20180  20759M 20792  21619M 21671M 21722  22288M 22301M 22301  22330U 22368  22382M 22388U
             22396M 22409M 22409  22438U 22466  22480M 22486U 22524M 22583  23293M 23326  23696M 23729  24265M 24354
             24454M 24456  24612M 24663  24698M 24708U 24812  24843U 24856M 24886  24986M 24988  25144M 25176  25211M
             25221U 25325  25356U 25369M 25399  25499M 25501  25657M 25689  25724M 25734U 25838  25869U 25882M 25912
             26012M 26014  26170M 26202  26237M 26247U 26351  26382U 26395M 26426  26513M 26515  26676M 26708  26743M
             26853  26892M 26963  27020M 27021M 27021  27064  27065  27091M 27122  27219M 27220M 27220  27248  27268
             27284  27315M 27348  27405M 27406M 27406  27449  27450  27476M 27510  27595M 27596M 27596  27624  27629
             27657M 27690  27728M 27752  27776M 27777M 27777  27805  27810  27838M 27871  27906M 27906  27924  27975M
             28008  28043M 28043  28061  28081  28129  28190M 28241  28444M 28476  28679M 28718  29029M 29062  29314M
             29345  29535M 29567  29682M 29711  29851M 29881  30111M 30144  30396M 30426  31005M 31038  31172M 31202
1         (DISP00) (09:38) (22MAR04) General Purpose Register Cross Reference                                               Page  362
             31336M 31364  31449M 31531M 31573M 31603  31824M 31860  31953M 31954M 31954  31973U 32035M 32065  32449M
             32494M 32528  33100M 33153  33611M 33643  34032M 34072M 34105  34625M 34679  35154M 35187  35300M 35302
             35427M 35459  35495M 35524U 35580  35615U 35628M 35657  35787M 35816U 35855  35938U 35956M 35991  36107M
             36120  36126  36127  36128M 36237M 36289  36423M 36487  36544M 36591  36711M 36711  36728M 36733M 36738U
             36806M 36837  36916M 36945  37072M 37100  37192M 37220  37318M 37348  37390M 37401M 37401  37416U 37458M
             37464U 37488M 37541  37642M 37665M 37667M 37690M 37741M 37804M 37877M 37950M 38020M 38083  38233M 38267
             38671M 38681U 38695  38698  38795  38911U 38926M 38927  38928  38934  38949M 39021  39085M 39146  39179
             39257M 39287  39468M
     5(5)      971U  4225   5702M  5735   6377M  6411   6669M  6700   6884M  6915   7088M  7120   7282M  7313   7545M
              7601   7708M  7737   7873M  7905   7939M  7968   8060M  8128   9151M  9235   9530M  9560   9716M  9748
             10151M 10182  10363  10541M 10572M 10601  10683M 10712  11044M 11073  11129M 11158  11433M 11465  11932M
             11991  12346M 12399  12529M 12539U 12709U 13003M 13050  13397M 13441  13482M 13483  13487M 13497U 13509U
             13516M 13538M 13542  14163M 14249  14558M 14610  15091M 15120  15286M 15318  15483M 15515  15679M 15711
             15877M 15931  16441M 16474  16705M 16786  16931M 16940M 16953  17015M 17016M 17016  17026U 17179M 17210
             17436M 17464  17932M 17965  18157M 18190  18433M 18465  18662M 18663M 18663  18673U 18769M 18800  18996M
             19024  19373M 19403  19604M 19661  20145M 20180  20322M 20359  20360  20361  20362  20382U 20736U 20759M
             20792  21619M 21671M 21722  22524M 22583  23293M 23326  23696M 23729  24265M 24354  24455M 24456  24612M
             24663  24811M 24812  24856M 24886  24987M 24988  25144M 25176  25324M 25325  25369M 25399  25500M 25501
             25657M 25689  25837M 25838  25882M 25912  26013M 26014  26170M 26202  26350M 26351  26395M 26426  26514M
             26515  26676M 26708  26852M 26853  26892M 26963  27091M 27122  27255M 27256M 27256  27284  27315M 27348
             27476M 27510  27657M 27690  27729M 27752  27838M 27871  27975M 28008  28190M 28241  28444M 28476  28679M
             28718  29029M 29062  29314M 29345  29535M 29567  29682M 29711  29851M 29881  30111M 30144  30396M 30426
             31005M 31038  31172M 31202  31336M 31364  31450M 31460U 31481M 31481  31511M 31532M 31550U 31573M 31603
             31824M 31860  31927M 31928M 31928  31947U 32035M 32065  32140M 32141M 32141  32186U 32301  32356  32449M
             32471U 32494M 32528  32727M 32737U 32752M 32752  32827M 32844M 32844  33056  33077U 33100M 33153  33611M
             33643  34032M 34072M 34105  34625M 34679  35154M 35187  35301M 35302  35427M 35459  35577M 35579M 35580
             35628M 35657  35956M 35991  36108M 36120  36237M 36289  36423M 36487  36544M 36591  36806M 36837  36916M
             36945  37072M 37100  37192M 37220  37318M 37348  37488M 37541  37649M 37666M 37667M 37697M 37748M 37811M
             37884M 37957M 38020M 38083  38233M 38267  38565M 38576M 38576  38583M 38588  38693  38696  38771  38772
             38949M 39021  39257M 39287  39468M
     6(6)      967U  4225   4494M  4504U  5694U  5702M  5735   5820M  5821M  5821   5978M  5979M  5979   5989U  6006M
              6007M  6007   6023   6069   6119   6127M  6128   6285   6338   6364U  6377M  6411   6553M  6554M  6554
              6557   6643   6644   6669M  6700   6825M  6826M  6826   6850U  6871U  6884M  6915   7011M  7012M  7012
              7036U  7042   7067   7068   7088M  7120   7178M  7179M  7179   7203U  7221   7269U  7282M  7313   7545M
              7601   7708M  7737   7873M  7905   7939M  7968   8060M  8128   8247M  8257U  9133U  9151M  9235   9298M
              9299M  9299   9327M  9337U  9512U  9530M  9560   9657M  9667U  9708U  9716M  9748   9797M  9807U  9888M
              9898U  9901U  9991  10090  10120U 10123U 10133U 10151M 10182  10277M 10287U 10350U 10363  10541M 10572M
             10601  10683M 10712  10906M 10916U 11021U 11044M 11073  11129M 11158  11433M 11465  11516M 11517M 11517
             11575U 11730  11739M 11914U 11932M 11991  12195M 12205U 12346M 12367U 12399  13003M 13050  13397M 13441
             13516M 13539M 13542  14163M 14249  14558M 14610  15091M 15120  15156M 15166U 15206  15273U 15286M 15318
             15354M 15364U 15404  15470U 15483M 15515  15551M 15561U 15601  15666U 15679M 15711  15747M 15757U 15797
             15864U 15877M 15931  15980M 15990U 16423U 16441M 16474  16493M 16503U 16697U 16705M 16786  16835M 16845U
             17161U 17179M 17210  17265M 17275U 17398  17410U 17436M 17464  17506M 17516U 17919U 17932M 17965  18000M
             18010U 18144U 18157M 18190  18212M 18222U 18425U 18433M 18465  18769M 18800  18855M 18865U 18958  18970U
             18996M 19024  19373M 19403  19604M 19661  19849M 19859U 19866  20117U 20145M 20180  20229M 20239U 20379U
             20503  20731U 20741U 20759M 20792  20828M 20838U 20858  21012M 21019  21020  21021  21022  21250  21277M
             21619M 21645U 21648U 21658U 21671M 21722  21757M 21767U 22511U 22524M 22583  22632M 22642U 23275U 23293M
             23326  23361M 23371U 23683U 23696M 23729  23922M 23932U 24247U 24265M 24354  24376M 24386U 24392M 24399U
             24410U 24604U 24612M 24663  24762M 24772U 24778M 24785U 24796U 24838U 24856M 24886  24908M 24918U 24924M
             24931U 24942U 25136U 25144M 25176  25275M 25285U 25291M 25298U 25309U 25351U 25369M 25399  25421M 25431U
             25437M 25444U 25455U 25649U 25657M 25689  25788M 25798U 25804M 25811U 25822U 25864U 25882M 25912  25934M
             25944U 25950M 25957U 25968U 26162U 26170M 26202  26301M 26311U 26317M 26324U 26335U 26377U 26395M 26426
             26448M 26458U 26464M 26471U 26482U 26668U 26676M 26708  26803M 26813U 26819M 26826U 26837U 26879U 26892M
             26963  27091M 27122  27315M 27348  27476M 27510  27657M 27690  27838M 27871  27975M 28008  28190M 28241
             28290M 28300U 28419  28426U 28444M 28476  28525M 28535U 28654  28661U 28679M 28718  28767M 28777U 28928
             29011U 29029M 29062  29111M 29121U 29296U 29314M 29345  29381M 29391U 29522U 29535M 29567  29603M 29613U
             29669U 29682M 29711  29747M 29757U 29838U 29851M 29881  30111M 30144  30396M 30426  30539M 30568U 30639
             30893  30937  30974U 31005M 31038  31087M 31097U 31154U 31172M 31202  31251M 31261U 31318U 31336M 31364
             31413M 31423U 31555U 31573M 31603  31652M 31662U 31806U 31824M 31860  31896M 31906U 32022U 32035M 32065
1         (DISP00) (09:38) (22MAR04) General Purpose Register Cross Reference                                               Page  363
             32114M 32124U 32449M 32476U 32494M 32528  32564M 32574U 32934  33042  33087U 33100M 33153  33223M 33224M
             33224  33234U 33312M 33330  33560  33585U 33611M 33643  33692M 33702U 33733  33798  33830  33910  33916M
             33917M 33917  33937  34032M 34054U 34072M 34105  34164M 34193U 34228  34270  34380  34400U 34418U 34466
             34486U 34504U 34593  34607U 34625M 34679  34731M 34741U 35136U 35154M 35187  35222M 35232U 35238M 35245U
             35256U 35414U 35427M 35459  35555M 35565U 35610U 35628M 35657  35956M 35991  36237M 36289  36423M 36487
             36544M 36591  36641M 36651U 36793U 36806M 36837  36873M 36883U 36903U 36916M 36945  37072M 37100  37149M
             37159U 37174U 37192M 37220  37269M 37279U 37300U 37318M 37348  37376M 37386U 37480U 37488M 37541  37590M
             37600U 38002U 38020M 38083  38233M 38267  38336M 38346U 38375  38791  38941U 38949M 39021  39059M 39077U
             39249U 39257M 39287  39356M 39366U 39455U 39468M
     7(7)      963U  4225   4625M  4635U  4650M  4650   4697M  4807   4841   4907   4970   5043   5206   5287   5363
              5414   5470   5521   5548   5554   5689U  5702M  5735   5794M  5804U  6369U  6377M  6411   6435M  6436M
              6436   6460U  6557   6661U  6669M  6700   6751M  6752M  6752   6776U  6782   6884M  6915   6977M  6978M
              6978   7002U  7080U  7088M  7120   7144M  7145M  7145   7169U  7274U  7282M  7313   7335M  7345U  7537U
              7545M  7601   7674M  7684U  7700U  7708M  7737   7759M  7769U  7865U  7873M  7905   7939M  7968   8060M
              8128   8168M  8216U  8234   8416   8458   8514   8759   8801   8857   9138U  9151M  9235   9275M  9285U
              9517U  9530M  9560   9716M  9748   9783M  9793U 10138U 10151M 10182  10215M 10216M 10216  10228M 10238U
             10363  10541M 10564U 10572M 10601  10623M 10633U 10675U 10683M 10712  10763M 10781U 11031U 11044M 11073
             11095M 11105U 11121U 11129M 11158  11193M 11241U 11247M 11254U 11303U 11401  11420U 11433M 11465  11500M
             11510U 11919U 11932M 11991  12346M 12399  12852M 12862U 12876M 12876  12911U 13003M 13050  13144M 13145M
             13145  13166U 13213U 13268M 13278U 13292M 13292  13327U 13397M 13441  13516M 13539M 13542  13735M 13736M
             13736  13757U 13804U 14034M 14044U 14058M 14058  14093U 14163M 14249  14407M 14417U 14431M 14431  14466U
             14558M 14610  14632M 14642U 15083U 15091M 15120  15142M 15152U 15278U 15286M 15318  15340M 15350U 15475U
             15483M 15515  15537M 15547U 15671U 15679M 15711  15733M 15743U 15869U 15877M 15931  15966M 15976U 16271
             16428U 16441M 16474  16705M 16786  16821M 16831U 17166U 17179M 17210  17436M 17464  17932M 17965  18157M
             18190  18433M 18465  18500M 18510U 18756U 18769M 18800  18996M 19024  19066M 19076U 19360U 19373M 19403
             19425M 19435U 19596U 19604M 19661  19802M 19812U 19817  19877  19954  19997  20052  20095  20122U 20145M
             20180  20215M 20225U 20746U 20759M 20792  20814M 20824U 20858  21381  21404U 21424U 21511  21619M 21663U
             21671M 21722  21855M 21884U 21973  22049  22105  22175U 22524M 22583  22618M 22628U 22773  22817  23012
             23056  23174  23280U 23293M 23326  23375M 23385U 23391M 23398U 23447U 23586  23678U 23696M 23729  23764M
             23774U 23780M 23787U 23836U 24139  24201  24252U 24265M 24354  24612M 24663  24856M 24886  25144M 25176
             25369M 25399  25657M 25689  25882M 25912  26170M 26202  26395M 26426  26676M 26708  26892M 26963  26995M
             27005U 27033  27034  27065  27066  27078U 27091M 27122  27154M 27164U 27302U 27315M 27348  27380M 27390U
             27418  27419  27450  27451  27463U 27476M 27510  27579M 27589U 27637  27644U 27657M 27690  27760M 27770U
             27818  27825U 27838M 27871  27941M 27951U 27962U 27975M 28008  28117M 28166U 28177U 28190M 28241  28276M
             28286U 28431U 28444M 28476  28511M 28521U 28666U 28679M 28718  28753M 28763U 29016U 29029M 29062  29097M
             29107U 29301U 29314M 29345  29367M 29377U 29527U 29535M 29567  29589M 29599U 29674U 29682M 29711  29733M
             29743U 29843U 29851M 29881  29916M 29926U 30070  30098U 30111M 30144  30179M 30189U 30383U 30396M 30426
             30461M 30471U 30530  30992U 31005M 31038  31073M 31083U 31159U 31172M 31202  31237M 31247U 31323U 31336M
             31364  31399M 31409U 31560U 31573M 31603  31638M 31648U 31811U 31824M 31860  31882M 31892U 32027U 32035M
             32065  32100M 32110U 32449M 32481U 32494M 32528  32550M 32560U 33092U 33100M 33153  33188M 33198U 33328
             33578  33598U 33611M 33643  33678M 33688U 34032M 34059U 34072M 34105  34140M 34150U 34208  34612U 34625M
             34679  34714M 34724U 35141U 35154M 35187  35427M 35459  35628M 35657  35693M 35722U 35728M 35735U 35765U
             35824  35916  35943U 35956M 35991  36013M 36023U 36229U 36237M 36289  36324M 36334U 36410U 36423M 36487
             36509M 36519U 36536U 36544M 36591  36655M 36668M 36668  36683U 36701  36755M 36769U 36806M 36837  36859M
             36869U 36908U 36916M 36945  36967M 36977U 37064U 37072M 37100  37135M 37145U 37179U 37192M 37220  37255M
             37265U 37305U 37318M 37348  37488M 37541  37576M 37586U 38007U 38020M 38083  38233M 38267  38949M 39021
             39257M 39287  39309M 39319U 39460U 39468M
     8(8)      959U  4225   5702M  5735   6377M  6411   6464M  6474U  6512   6656U  6669M  6700   6884M  6915   7088M
              7120   7282M  7313   7545M  7601   7708M  7737   7873M  7905   7939M  7968   8060M  8128   9151M  9235
              9530M  9560   9716M  9748  10151M 10182  10363  10541M 10572M 10601  10683M 10712  11044M 11073  11129M
             11158  11433M 11465  11932M 11991  12346M 12399  13003M 13050  13397M 13441  13516M 13539M 13542  14163M
             14249  14558M 14610  15091M 15120  15286M 15318  15483M 15515  15679M 15711  15877M 15931  16441M 16474
             16705M 16786  17179M 17210  17436M 17464  17932M 17965  18157M 18190  18433M 18465  18769M 18800  18996M
             19024  19373M 19403  19604M 19661  19744M 19754U 19779  19816  20110  20127U 20145M 20180  20759M 20792
             21028M 21038U 21196U 21619M 21671M 21722  22262M 22262  22277  22283  22315  22423  22494M 22524M 22583
             23293M 23326  23696M 23729  24265M 24354  24612M 24663  24856M 24886  25144M 25176  25369M 25399  25657M
             25689  25882M 25912  26170M 26202  26395M 26426  26676M 26708  26892M 26963  27091M 27122  27315M 27348
             27476M 27510  27657M 27690  27838M 27871  27975M 28008  28190M 28241  28444M 28476  28679M 28718  29029M
             29062  29314M 29345  29535M 29567  29682M 29711  29851M 29881  30111M 30144  30396M 30426  30485M 30968M
1         (DISP00) (09:38) (22MAR04) General Purpose Register Cross Reference                                               Page  364
             30968  30985  31005M 31038  31172M 31202  31336M 31364  31573M 31603  31824M 31860  32035M 32065  32449M
             32494M 32528  33100M 33153  33202M 33207U 33611M 33643  34032M 34072M 34105  34625M 34679  35154M 35187
             35427M 35459  35628M 35657  35956M 35991  36237M 36289  36423M 36487  36544M 36591  36806M 36837  36916M
             36945  37072M 37100  37192M 37220  37318M 37348  37488M 37541  38020M 38083  38233M 38267  38738M 38748U
             38760  38792  38906U 38949M 39021  39257M 39287  39468M
     9(9)      955U  4225   4404M  4414U  4489U  5702M  5735   6377M  6411   6485M  6495U  6507U  6669M  6700   6722M
              6732U  6744U  6884M  6915   7088M  7120   7282M  7313   7545M  7601   7708M  7737   7873M  7905   7939M
              7968   8060M  8128   8530M  8540U  8554M  8554   8578   8583M  8589M  8622   8703U  9151M  9235   9530M
              9560   9591M  9592M  9592   9622M  9632U  9644U  9716M  9748  10151M 10182  10363  10541M 10572M 10601
             10683M 10712  11044M 11073  11129M 11158  11433M 11465  11932M 11991  12346M 12399  13003M 13050  13397M
             13441  13516M 13539M 13542  14163M 14249  14558M 14610  15091M 15120  15286M 15318  15483M 15515  15679M
             15711  15877M 15931  16441M 16474  16705M 16786  17179M 17210  17436M 17464  17565M 17743M 17743  17773M
             17773  17907  17932M 17965  18157M 18190  18433M 18465  18769M 18800  18996M 19024  19104M 19261M 19261
             19277M 19277  19348  19373M 19403  19604M 19661  19696M 19706U 19712M 19719U 19730U 20132U 20145M 20180
             20759M 20792  20842M 20852U 21103  21318  21619M 21653U 21671M 21722  21771M 21781U 22506U 22524M 22583
             23293M 23326  23696M 23729  24265M 24354  24612M 24663  24856M 24886  25144M 25176  25369M 25399  25657M
             25689  25882M 25912  26170M 26202  26395M 26426  26676M 26708  26892M 26963  27091M 27122  27315M 27348
             27476M 27510  27657M 27690  27838M 27871  27975M 28008  28190M 28241  28444M 28476  28679M 28718  28793M
             28794M 28794  28815U 28828U 28892M 28913U 28995  28999  29006U 29029M 29062  29314M 29345  29535M 29567
             29682M 29711  29851M 29881  29942M 29943M 29943  29964U 29977U 30041M 30055U 30075  30086  30093U 30111M
             30144  30196M 30277  30329  30396M 30426  30486M 30515U 30677  30718U 30750  30760U 30979U 31005M 31038
             31103M 31104M 31104  31128U 31149U 31172M 31202  31267M 31268M 31268  31292U 31313U 31336M 31364  31573M
             31603  31824M 31860  32035M 32065  32449M 32494M 32528  32591M 32591  32648M 32648  32654M 32701M 32701
             32719U 32947  33082U 33100M 33153  33611M 33643  34032M 34072M 34105  34625M 34679  35154M 35187  35427M
             35459  35628M 35657  35956M 35991  36237M 36289  36423M 36487  36544M 36591  36806M 36837  36916M 36945
             37072M 37100  37192M 37220  37318M 37348  37488M 37541  38020M 38083  38233M 38267  38949M 39021  39119M
             39129U 39166U 39257M 39287  39468M
    10(A)      951U  4225   4226M  4236U  5699U  5702M  5735   5736M  5746U  6374U  6377M  6411   6412M  6422U  6666U
              6669M  6700   6701M  6711U  6881U  6884M  6915   6916M  6926U  7085U  7088M  7120   7121M  7131U  7279U
              7282M  7313   7314M  7324U  7542U  7545M  7601   7602M  7612U  7705U  7708M  7737   7738M  7748U  7870U
              7873M  7905   7906M  7916U  7936U  7939M  7968   7969M  7979U  8057U  8060M  8128   8129M  8139U  9148U
              9151M  9235   9236M  9246U  9527U  9530M  9560   9561M  9571U  9713U  9716M  9748   9749M  9759U 10148U
             10151M 10182  10183M 10193U 10363  10541M 10569U 10572M 10601  10602M 10612U 10680U 10683M 10712  10713M
             10723U 11041U 11044M 11073  11074M 11084U 11126U 11129M 11158  11159M 11169U 11430U 11433M 11465  11466M
             11476U 11929U 11932M 11991  11994M 12004U 12148U 12172M 12182U 12346M 12376U 12399  12406M 12416U 13003M
             13028U 13050  13057M 13067U 13397M 13422U 13441  13444M 13454U 13516M 14163M 14188U 14249  14256M 14266U
             14558M 14583U 14610  14611M 14621U 15088U 15091M 15120  15121M 15131U 15283U 15286M 15318  15319M 15329U
             15480U 15483M 15515  15516M 15526U 15676U 15679M 15711  15712M 15722U 15874U 15877M 15931  15932M 15942U
             16438U 16441M 16474  16475M 16485U 16702U 16705M 16786  16787M 16797U 17176U 17179M 17210  17211M 17221U
             17433U 17436M 17464  17465M 17475U 17929U 17932M 17965  17966M 17976U 18154U 18157M 18190  18191M 18201U
             18430U 18433M 18465  18466M 18476U 18766U 18769M 18800  18801M 18811U 18993U 18996M 19024  19025M 19035U
             19370U 19373M 19403  19404M 19414U 19601U 19604M 19661  19662M 19672U 20142U 20145M 20180  20181M 20191U
             20756U 20759M 20792  20793M 20803U 21619M 21668U 21671M 21722  21723M 21733U 22521U 22524M 22583  22584M
             22594U 23290U 23293M 23326  23327M 23337U 23693U 23696M 23729  23730M 23740U 24262U 24265M 24354  24355M
             24365U 24609U 24612M 24663  24664M 24674U 24853U 24856M 24886  24887M 24897U 25141U 25144M 25176  25177M
             25187U 25366U 25369M 25399  25400M 25410U 25654U 25657M 25689  25690M 25700U 25879U 25882M 25912  25913M
             25923U 26167U 26170M 26202  26203M 26213U 26392U 26395M 26426  26427M 26437U 26673U 26676M 26708  26709M
             26719U 26889U 26892M 26963  26964M 26974U 27088U 27091M 27122  27123M 27133U 27312U 27315M 27348  27349M
             27359U 27473U 27476M 27510  27511M 27521U 27654U 27657M 27690  27691M 27701U 27835U 27838M 27871  27872M
             27882U 27972U 27975M 28008  28009M 28019U 28187U 28190M 28241  28242M 28252U 28441U 28444M 28476  28477M
             28487U 28676U 28679M 28718  28719M 28729U 29026U 29029M 29062  29063M 29073U 29311U 29314M 29345  29346M
             29356U 29532U 29535M 29567  29568M 29578U 29679U 29682M 29711  29712M 29722U 29848U 29851M 29881  29882M
             29892U 30108U 30111M 30144  30145M 30155U 30393U 30396M 30426  30427M 30437U 31002U 31005M 31038  31039M
             31049U 31169U 31172M 31202  31203M 31213U 31333U 31336M 31364  31365M 31375U 31570U 31573M 31603  31604M
             31614U 31821U 31824M 31860  31861M 31871U 32032U 32035M 32065  32066M 32076U 32449M 32491U 32494M 32528
             32529M 32539U 33097U 33100M 33153  33154M 33164U 33608U 33611M 33643  33644M 33654U 34032M 34069U 34072M
             34105  34106M 34116U 34622U 34625M 34679  34680M 34690U 35151U 35154M 35187  35188M 35198U 35424U 35427M
             35459  35460M 35470U 35625U 35628M 35657  35658M 35668U 35953U 35956M 35991  35992M 36002U 36234U 36237M
             36289  36290M 36300U 36420U 36423M 36487  36488M 36498U 36541U 36544M 36591  36592M 36602U 36803U 36806M
1         (DISP00) (09:38) (22MAR04) General Purpose Register Cross Reference                                               Page  365
             36837  36838M 36848U 36913U 36916M 36945  36946M 36956U 37069U 37072M 37100  37101M 37111U 37189U 37192M
             37220  37221M 37231U 37315U 37318M 37348  37349M 37359U 37485U 37488M 37541  37542M 37552U 38017U 38020M
             38083  38084M 38094U 38230U 38233M 38267  38268M 38278U 38946U 38949M 39021  39022M 39032U 39254U 39257M
             39287  39288M 39298U 39465U 39468M
    11(B)      947U  4225   5702M  5735   6377M  6411   6669M  6700   6884M  6915   7088M  7120   7282M  7313   7545M
              7601   7708M  7737   7873M  7905   7939M  7968   8060M  8128   9151M  9235   9530M  9560   9716M  9748
             10151M 10182  10363  10541M 10572M 10601  10683M 10712  11044M 11073  11129M 11158  11433M 11465  11932M
             11991  12346M 12399  13003M 13050  13397M 13441  13516M 14163M 14249  14558M 14610  15091M 15120  15286M
             15318  15483M 15515  15679M 15711  15877M 15931  16441M 16474  16705M 16786  17179M 17210  17436M 17464
             17932M 17965  18157M 18190  18433M 18465  18769M 18800  18996M 19024  19373M 19403  19604M 19661  20145M
             20180  20759M 20792  21619M 21671M 21722  22524M 22583  23293M 23326  23696M 23729  24265M 24354  24612M
             24663  24856M 24886  25144M 25176  25369M 25399  25657M 25689  25882M 25912  26170M 26202  26395M 26426
             26676M 26708  26892M 26963  27091M 27122  27315M 27348  27476M 27510  27657M 27690  27838M 27871  27975M
             28008  28190M 28241  28444M 28476  28679M 28718  29029M 29062  29314M 29345  29535M 29567  29682M 29711
             29851M 29881  30111M 30144  30396M 30426  31005M 31038  31172M 31202  31336M 31364  31573M 31603  31824M
             31860  32035M 32065  32449M 32494M 32528  33100M 33153  33611M 33643  34032M 34072M 34105  34625M 34679
             35154M 35187  35427M 35459  35628M 35657  35956M 35991  36237M 36289  36423M 36487  36544M 36591  36806M
             36837  36916M 36945  37072M 37100  37192M 37220  37318M 37348  37488M 37541  38020M 38083  38233M 38267
             38949M 39021  39257M 39287  39468M
    12(C)      943U  4225   4240   4241M  4242   4243   5702M  5702   5703   5735   5750   5751M  5752   5753   6377M
              6377   6378   6411   6426   6427M  6428   6429   6669M  6669   6670   6700   6715   6716M  6717   6718
              6884M  6884   6885   6915   6930   6931M  6932   6933   7088M  7088   7089   7120   7135   7136M  7137
              7138   7282M  7282   7283   7313   7328   7329M  7330   7331   7545M  7545   7546   7601   7616   7617M
              7618   7619   7708M  7708   7709   7737   7752   7753M  7754   7755   7873M  7873   7874   7905   7920
              7921M  7922   7923   7939M  7939   7940   7968   7983   7984M  7985   7986   8060M  8060   8061   8128
              8143   8144M  8145   8155U  8164   9143U  9151M  9151   9152   9235   9250   9251M  9252   9262U  9271
              9522U  9530M  9530   9531   9560   9575   9576M  9577   9578   9716M  9716   9717   9748   9763   9764M
              9765   9775U  9779  10143U 10151M 10151  10152  10182  10197  10198M 10199  10200  10363  10408M 10541M
             10572M 10572  10573  10601  10616  10617M 10618  10619  10683M 10683  10684  10712  10727  10728M 10729
             10739U 10743  11036U 11044M 11044  11045  11073  11088  11089M 11090  11091  11129M 11129  11130  11158
             11173  11174M 11175  11185U 11189  11425U 11433M 11433  11434  11465  11480  11481M 11482  11492U 11496
             11924U 11932M 11932  11933  11991  12191M 12346M 12399  12507M 13003M 13050  13137M 13397M 13441  13516M
             13661M 14163M 14249  14357M 14558M 14610  14625  14626M 14627  14628  15091M 15091  15092  15120  15135
             15136M 15137  15138  15286M 15286  15287  15318  15333  15334M 15335  15336  15483M 15483  15484  15515
             15530  15531M 15532  15533  15679M 15679  15680  15711  15726  15727M 15728  15729  15877M 15877  15878
             15931  15946  15947M 15948  15958U 15962  16433U 16441M 16441  16442  16474  16489  16490M 16491  16492
             16705M 16705  16706  16786  16801  16802M 16803  16813U 16817  17171U 17179M 17179  17180  17210  17225
             17226M 17227  17237U 17241  17428U 17436M 17436  17437  17464  17479  17480M 17481  17491U 17495  17924U
             17932M 17932  17933  17965  17980  17981M 17982  17992U 17996  18149U 18157M 18157  18158  18190  18205
             18206M 18207  18208  18433M 18433  18434  18465  18480  18481M 18482  18492U 18496  18761U 18769M 18769
             18770  18800  18815  18816M 18817  18827U 18831  18988U 18996M 18996  18997  19024  19039  19040M 19041
             19051U 19055  19365U 19373M 19373  19374  19403  19418  19419M 19420  19421  19604M 19604  19605  19661
             19676  19677M 19678  19688U 19692  20137U 20145M 20145  20146  20180  20195  20196M 20197  20207U 20211
             20462M 20463  20751U 20759M 20759  20760  20792  20807  20808M 20809  20810  20996M 21223  21224M 21619M
             21671M 21671  21672  21722  21737  21738M 21739  21749U 21753  22516U 22524M 22524  22525  22583  22598
             22599M 22600  22610U 22614  23285U 23293M 23293  23294  23326  23341  23342M 23343  23353U 23357  23688U
             23696M 23696  23697  23729  23744  23745M 23746  23756U 23760  24257U 24265M 24265  24266  24354  24369
             24370M 24371  24372  24612M 24612  24613  24663  24678  24679M 24680  24690U 24694  24848U 24856M 24856
             24857  24886  24901  24902M 24903  24904  25144M 25144  25145  25176  25191  25192M 25193  25203U 25207
             25361U 25369M 25369  25370  25399  25414  25415M 25416  25417  25657M 25657  25658  25689  25704  25705M
             25706  25716U 25720  25874U 25882M 25882  25883  25912  25927  25928M 25929  25930  26170M 26170  26171
             26202  26217  26218M 26219  26229U 26233  26387U 26395M 26395  26396  26426  26441  26442M 26443  26444
             26676M 26676  26677  26708  26723  26724M 26725  26735U 26739  26884U 26892M 26892  26893  26963  26978
             26979M 26980  26990U 26994  27083U 27091M 27091  27092  27122  27137  27138M 27139  27149U 27153  27307U
             27315M 27315  27316  27348  27363  27364M 27365  27375U 27379  27468U 27476M 27476  27477  27510  27525
             27526M 27527  27537U 27541  27649U 27657M 27657  27658  27690  27705  27706M 27707  27717U 27721  27830U
             27838M 27838  27839  27871  27886  27887M 27888  27898U 27902  27967U 27975M 27975  27976  28008  28023
             28024M 28025  28035U 28039  28182U 28190M 28190  28191  28241  28256  28257M 28258  28268U 28272  28436U
             28444M 28444  28445  28476  28491  28492M 28493  28503U 28507  28671U 28679M 28679  28680  28718  28733
1         (DISP00) (09:38) (22MAR04) General Purpose Register Cross Reference                                               Page  366
             28734M 28735  28745U 28749  29021U 29029M 29029  29030  29062  29077  29078M 29079  29089U 29093  29306U
             29314M 29314  29315  29345  29360  29361M 29362  29363  29535M 29535  29536  29567  29582  29583M 29584
             29585  29682M 29682  29683  29711  29726  29727M 29728  29729  29851M 29851  29852  29881  29896  29897M
             29898  29908U 29912  30103U 30111M 30111  30112  30144  30159  30160M 30161  30171U 30175  30388U 30396M
             30396  30397  30426  30441  30442M 30443  30453U 30457  30997U 31005M 31005  31006  31038  31053  31054M
             31055  31065U 31069  31164U 31172M 31172  31173  31202  31217  31218M 31219  31229U 31233  31328U 31336M
             31336  31337  31364  31379  31380M 31381  31391U 31395  31565U 31573M 31573  31574  31603  31618  31619M
             31620  31630U 31634  31816U 31824M 31824  31825  31860  31875  31876M 31877  31878  32035M 32035  32036
             32065  32080  32081M 32082  32092U 32096  32254M 32255M 32255  32283M 32284  32449M 32486U 32494M 32494
             32495  32528  32543  32544M 32545  32546  33100M 33100  33101  33153  33168  33169M 33170  33180U 33184
             33603U 33611M 33611  33612  33643  33658  33659M 33660  33670U 33674  33717M 33718  33756M 33757M 33757
             33794M 33795  34032M 34064U 34072M 34072  34073  34105  34120  34121M 34122  34132U 34136  34617U 34625M
             34625  34626  34679  34694  34695M 34696  34706U 34710  35146U 35154M 35154  35155  35187  35202  35203M
             35204  35214U 35218  35419U 35427M 35427  35428  35459  35474  35475M 35476  35486U 35490  35620U 35628M
             35628  35629  35657  35672  35673M 35674  35684U 35688  35948U 35956M 35956  35957  35991  36006  36007M
             36008  36009  36237M 36237  36238  36289  36304  36305M 36306  36316U 36320  36415U 36423M 36423  36424
             36487  36502  36503M 36504  36505  36544M 36544  36545  36591  36606  36607M 36608  36618U 36627  36798U
             36806M 36806  36807  36837  36852  36853M 36854  36855  36916M 36916  36917  36945  36960  36961M 36962
             36963  37072M 37072  37073  37100  37115  37116M 37117  37127U 37131  37184U 37192M 37192  37193  37220
             37235  37236M 37237  37247U 37251  37310U 37318M 37318  37319  37348  37363  37364M 37365  37366  37488M
             37488  37489  37541  37556  37557M 37558  37568U 37572  38012U 38020M 38020  38021  38083  38098  38099M
             38100  38110U 38114  38225U 38233M 38233  38234  38267  38282  38283M 38284  38285  38558  38949M 38949
             38950  39021  39036  39037M 39038  39039  39257M 39257  39258  39287  39302  39303M 39304  39305  39468M
             39468  39469
    13(D)      939U  4225   4225   4240   4241   4243M  4328U  4518U  4521U  4668U  4671U  4728U  4731U  4836U  4839U
              4939U  4942U  5201U  5204U  5256U  5259U  5578U  5581U  5702M  5710U  5735   5735   5750   5751   5753M
              6107U  6377M  6385U  6411   6411   6426   6427   6429M  6669M  6700   6700   6715   6716   6718M  6884M
              6915   6915   6930   6931   6933M  7088M  7120   7120   7135   7136   7138M  7282M  7313   7313   7328
              7329   7331M  7445U  7545M  7553U  7601   7601   7616   7617   7619M  7708M  7737   7737   7752   7753
              7755M  7873M  7905   7905   7920   7921   7923M  7939M  7968   7968   7983   7984   7986M  8060M  8128
              8128   8143   8144   8164M  8273U  8391U  8394U  8436U  8439U  8482U  8485U  8779U  8782U  8825U  8828U
              8914U  8917U  8945U  8948U  9064U  9067U  9151M  9159U  9235   9235   9250   9251   9271M  9530M  9560
              9560   9575   9576   9578M  9716M  9748   9748   9763   9764   9779M 10151M 10182  10182  10197  10198
             10200M 10363  10409M 10541M 10572M 10601  10601  10616  10617  10619M 10683M 10712  10712  10727  10728
             10743M 11044M 11073  11073  11088  11089  11091M 11129M 11158  11158  11173  11174  11189M 11399U 11433M
             11441U 11465  11465  11480  11481  11496M 11718U 11932M 11940U 11991  12192M 12346M 12399  12508M 13003M
             13050  13138M 13397M 13441  13516M 13662M 14163M 14249  14358M 14558M 14610  14610  14625  14626  14628M
             15091M 15120  15120  15135  15136  15138M 15182U 15286M 15294U 15318  15318  15333  15334  15336M 15380U
             15483M 15491U 15515  15515  15530  15531  15533M 15577U 15679M 15687U 15711  15711  15726  15727  15729M
             15773U 15877M 15885U 15931  15931  15946  15947  15962M 16124U 16249U 16252U 16441M 16449U 16474  16474
             16489  16490  16492M 16517U 16593U 16596U 16672U 16675U 16705M 16713U 16786  16786  16801  16802  16817M
             16887U 16989U 16992U 17179M 17187U 17210  17210  17225  17226  17241M 17436M 17464  17464  17479  17480
             17495M 17549U 17851U 17854U 17883U 17886U 17932M 17940U 17965  17965  17980  17981  17996M 18040U 18081U
             18084U 18113U 18116U 18157M 18165U 18190  18190  18205  18206  18208M 18236U 18329U 18332U 18361U 18364U
             18405U 18408U 18433M 18441U 18465  18465  18480  18481  18496M 18565U 18769M 18777U 18800  18800  18815
             18816  18831M 18996M 19024  19024  19039  19040  19055M 19373M 19403  19403  19418  19419  19421M 19507U
             19604M 19612U 19661  19661  19676  19677  19692M 19770U 19934U 19937U 19966U 19969U 20015U 20018U 20064U
             20067U 20145M 20153U 20180  20180  20195  20196  20211M 20255U 20288U 20291U 20423U 20426U 20463M 20476U
             20479U 20570U 20573U 20759M 20767U 20792  20792  20807  20808  20810M 20997M 21053U 21225M 21238U 21241U
             21339U 21342U 21499U 21502U 21619M 21671M 21679U 21722  21722  21737  21738  21753M 21829U 21900U 21903U
             21942U 21945U 22363U 22366U 22524M 22532U 22583  22583  22598  22599  22614M 22685U 22754U 22757U 23169U
             23172U 23293M 23301U 23326  23326  23341  23342  23357M 23584U 23696M 23704U 23729  23729  23744  23745
             23760M 23946U 24134U 24137U 24196U 24199U 24227U 24230U 24265M 24273U 24354  24354  24369  24370  24372M
             24509U 24612M 24620U 24663  24663  24678  24679  24694M 24856M 24886  24886  24901  24902  24904M 25041U
             25144M 25152U 25176  25176  25191  25192  25207M 25369M 25399  25399  25414  25415  25417M 25554U 25657M
             25665U 25689  25689  25704  25705  25720M 25882M 25912  25912  25927  25928  25930M 26067U 26170M 26178U
             26202  26202  26217  26218  26233M 26395M 26426  26426  26441  26442  26444M 26568U 26676M 26684U 26708
             26708  26723  26724  26739M 26892M 26963  26963  26978  26979  26994M 27091M 27122  27122  27137  27138
             27153M 27315M 27348  27348  27363  27364  27379M 27476M 27510  27510  27525  27526  27541M 27657M 27690
1         (DISP00) (09:38) (22MAR04) General Purpose Register Cross Reference                                               Page  367
             27690  27705  27706  27721M 27838M 27871  27871  27886  27887  27902M 27975M 28008  28008  28023  28024
             28039M 28190M 28241  28241  28256  28257  28272M 28444M 28476  28476  28491  28492  28507M 28679M 28718
             28718  28733  28734  28749M 28861U 29029M 29037U 29062  29062  29077  29078  29093M 29234U 29314M 29322U
             29345  29345  29360  29361  29363M 29464U 29535M 29543U 29567  29567  29582  29583  29585M 29682M 29711
             29711  29726  29727  29729M 29851M 29881  29881  29896  29897  29912M 30010U 30111M 30119U 30144  30144
             30159  30160  30175M 30396M 30426  30426  30441  30442  30457M 30881U 31005M 31013U 31038  31038  31053
             31054  31069M 31172M 31202  31202  31217  31218  31233M 31336M 31364  31364  31379  31380  31395M 31573M
             31603  31603  31618  31619  31634M 31824M 31860  31860  31875  31876  31878M 32035M 32065  32065  32080
             32081  32096M 32284M 32449M 32494M 32528  32528  32543  32544  32546M 33100M 33153  33153  33168  33169
             33184M 33281U 33349U 33352U 33545U 33548U 33611M 33619U 33643  33643  33658  33659  33674M 33718M 33731U
             33795M 34032M 34072M 34080U 34105  34105  34120  34121  34136M 34268U 34345U 34348U 34625M 34633U 34679
             34679  34694  34695  34710M 34773U 35007U 35010U 35154M 35162U 35187  35187  35202  35203  35218M 35355U
             35427M 35435U 35459  35459  35474  35475  35490M 35628M 35657  35657  35672  35673  35688M 35914U 35956M
             35964U 35991  35991  36006  36007  36009M 36069U 36168U 36171U 36237M 36245U 36289  36289  36304  36305
             36320M 36355U 36423M 36431U 36487  36487  36502  36503  36505M 36544M 36591  36591  36606  36607  36627M
             36806M 36837  36837  36852  36853  36855M 36916M 36945  36945  36960  36961  36963M 37072M 37100  37100
             37115  37116  37131M 37192M 37220  37220  37235  37236  37251M 37318M 37348  37348  37363  37364  37366M
             37488M 37541  37541  37556  37557  37572M 38020M 38083  38083  38098  38099  38114M 38134U 38184U 38187U
             38233M 38241U 38267  38267  38282  38283  38285M 38305U 38439U 38442U 38525U 38528U 38637U 38640U 38949M
             38957U 39021  39021  39036  39037  39039M 39257M 39287  39287  39302  39303  39305M 39333U 39386U 39389U
             39468M 39476U
    14(E)      935U  4225   4357M  4531M  4609M  4696M  4717M  4741M  4822M  4848M  4922M  4977M  5058M  5213M  5294M
              5334M  5377M  5421M  5484M  5528M  5563M  5591M  5634M  5702M  5704B  5735   5946M  6084M  6126M  6181M
              6300M  6353M  6377M  6379B  6411   6669M  6671B  6700   6884M  6886B  6915   7088M  7090B  7120   7282M
              7284B  7313   7469M  7545M  7547B  7601   7708M  7710B  7737   7850M  7873M  7875B  7905   7939M  7941B
              7968   8060M  8062B  8128   8283M  8423M  8467M  8521M  8766M  8810M  8864M  8930M  8973M  9077M  9118M
              9151M  9153B  9235   9530M  9532B  9560   9716M  9718B  9748  10018M 10106M 10151M 10153B 10182  10363
             10473M 10541M 10572M 10574B 10601  10683M 10685B 10712  11044M 11046B 11073  11129M 11131B 11158  11408M
             11433M 11435B 11465  11589M 11737M 11907M 11932M 11934B 11991  12062M 12096M 12114M 12276M 12346M 12399
             12634M 12741M 12774M 12836M 12901M 13003M 13050  13226M 13252M 13317M 13397M 13441  13516M 13708M 13857M
             13923M 13958M 13986M 14018M 14083M 14163M 14249  14365M 14391M 14456M 14558M 14610  14765M 15091M 15093B
             15120  15230M 15286M 15288B 15318  15427M 15483M 15485B 15515  15623M 15679M 15681B 15711  15821M 15877M
             15879B 15931  16063M 16139M 16284M 16441M 16443B 16474  16527M 16615M 16685M 16705M 16707B 16786  16858M
             16902M 17002M 17083M 17179M 17181B 17210  17258M 17420M 17436M 17438B 17464  17559M 17761M 17870M 17902M
             17932M 17934B 17965  18068M 18100M 18132M 18157M 18159B 18190  18246M 18348M 18380M 18418M 18433M 18435B
             18465  18595M 18642M 18769M 18771B 18800  18853M 18919M 18980M 18996M 18998B 19024  19292M 19373M 19375B
             19403  19535M 19604M 19606B 19661  19743M 19784M 19791M 19801M 19848M 19896M 19952M 20004M 20033M 20102M
             20145M 20147B 20180  20268M 20321M 20402M 20410M 20458M 20495M 20510M 20588M 20628M 20720M 20759M 20761B
             20792  20909M 20976M 20983M 20995M 21007M 21063M 21181M 21204M 21211M 21257M 21276M 21303M 21325M 21352M
             21486M 21518M 21555M 21619M 21671M 21673B 21722  21854M 21916M 21980M 22056M 22112M 22168M 22377M 22475M
             22524M 22526B 22583  22698M 22780M 22824M 23019M 23063M 23181M 23293M 23295B 23326  23593M 23696M 23698B
             23729  23956M 24146M 24208M 24240M 24265M 24267B 24354  24539M 24612M 24614B 24663  24856M 24858B 24886
             25071M 25144M 25146B 25176  25369M 25371B 25399  25584M 25657M 25659B 25689  25882M 25884B 25912  26097M
             26170M 26172B 26202  26395M 26397B 26426  26598M 26650M 26659M 26676M 26678B 26708  26789M 26798M 26892M
             26894B 26963  27091M 27093B 27122  27315M 27317B 27348  27476M 27478B 27510  27657M 27659B 27690  27838M
             27840B 27871  27975M 27977B 28008  28190M 28192B 28241  28444M 28446B 28476  28679M 28681B 28718  28790M
             28891M 28903M 28985M 29029M 29031B 29062  29243M 29254M 29263M 29314M 29316B 29345  29504M 29535M 29537B
             29567  29682M 29684B 29711  29851M 29853B 29881  29939M 30040M 30082M 30111M 30113B 30144  30243M 30340M
             30370M 30396M 30398B 30426  30900M 31005M 31007B 31038  31172M 31174B 31202  31336M 31338B 31364  31573M
             31575B 31603  31795M 31824M 31826B 31860  31919M 32015M 32035M 32037B 32065  32137M 32384M 32449M 32494M
             32496B 32528  33100M 33102B 33153  33220M 33311M 33367M 33375M 33383M 33391M 33418M 33567M 33574M 33611M
             33613B 33643  33716M 33742M 33965M 34032M 34072M 34074B 34105  34160M 34279M 34359M 34600M 34625M 34627B
             34679  34784M 34975M 35041M 35068M 35095M 35122M 35154M 35156B 35187  35385M 35427M 35429B 35459  35628M
             35630B 35657  35923M 35956M 35958B 35991  36036M 36101M 36210M 36221M 36237M 36239B 36289  36345M 36394M
             36403M 36423M 36425B 36487  36544M 36546B 36591  36806M 36808B 36837  36916M 36918B 36945  37072M 37074B
             37100  37192M 37194B 37220  37318M 37320B 37348  37488M 37490B 37541  38020M 38022B 38083  38151M 38156M
             38160M 38170M 38201M 38205M 38218M 38233M 38235B 38267  38335M 38426M 38460M 38552M 38670M 38736M 38760M
             38766M 38833M 38842M 38848M 38884M 38893M 38899M 38925M 38949M 38951B 39021  39257M 39259B 39287  39351M
             39412M 39468M 39470B
1         (DISP00) (09:38) (22MAR04) General Purpose Register Cross Reference                                               Page  368
    15(F)      931U  4225   4226   4248M  4249   4262M  4263   4356M  4357B  4454M  4455   4456M  4458   4473M  4474
              4477M  4530M  4531B  4608M  4609B  4695M  4696B  4716M  4717B  4740M  4741B  4821M  4822B  4847M  4848B
              4921M  4922B  4976M  4977B  5057M  5058B  5138   5139M  5140M  5141M  5142M  5142   5143M  5143   5212M
              5213B  5293M  5294B  5333M  5334B  5376M  5377B  5420M  5421B  5483M  5484B  5527M  5528B  5562M  5563B
              5590M  5591B  5633M  5634B  5659M  5660   5673M  5674   5702M  5735   5736   5780   5781M  5782M  5783M
              5784M  5784   5785M  5785   5868M  5869   5870M  5872   5887M  5888   5891M  5917M  5918   5931M  5932
              5945M  5946B  5948M  5949   5962M  5963   6083M  6084B  6125M  6126B  6154M  6155   6168M  6169   6180M
              6181B  6183M  6184   6197M  6198   6299M  6300B  6352M  6353B  6377M  6411   6412   6536   6537M  6538M
              6539M  6540M  6540   6541M  6541   6630   6631M  6632M  6633M  6634M  6634   6635M  6635   6669M  6700
              6701   6884M  6915   6916   6961   6962M  6963M  6964M  6965M  6965   6966M  6966   7088M  7120   7121
              7282M  7313   7314   7468M  7469B  7504   7505M  7506M  7507M  7508M  7508   7509M  7509   7545M  7601
              7602   7660   7661M  7662M  7663M  7664M  7664   7665M  7665   7708M  7737   7738   7800   7801M  7802M
              7803M  7804M  7804   7805M  7805   7849M  7850B  7873M  7905   7906   7939M  7968   7969   8040   8041M
              8042M  8043M  8044M  8044   8045M  8045   8060M  8128   8129   8196   8197M  8198M  8199M  8200M  8200
              8201M  8201   8282M  8283B  8422M  8423B  8466M  8467B  8520M  8521B  8670M  8673   8676M  8765M  8766B
              8809M  8810B  8863M  8864B  8929M  8930B  8972M  8973B  8990M  9004   9018   9076M  9077B  9117M  9118B
              9151M  9235   9236   9316   9317M  9318M  9319M  9320M  9320   9321M  9321   9530M  9560   9561   9608
              9609M  9610M  9611M  9612M  9612   9613M  9613   9716M  9748   9749   9979M  9982   9985M 10017M 10018B
             10105M 10106B 10151M 10182  10183  10333  10334M 10335M 10336M 10337M 10337  10338M 10338  10363  10472M
             10473B 10507  10508M 10509M 10510M 10511M 10511  10512M 10512  10541M 10572M 10601  10602  10683M 10712
             10713  10813  10814M 10815M 10816M 10817M 10817  10818M 10818  10858  10859M 10860M 10861M 10862M 10862
             10863M 10863  11044M 11073  11074  11129M 11158  11159  11221  11222M 11223M 11224M 11225M 11225  11226M
             11226  11283  11284M 11285M 11286M 11287M 11287  11288M 11288  11341  11342M 11343M 11344M 11345M 11345
             11346M 11346  11407M 11408B 11433M 11465  11466  11555  11556M 11557M 11558M 11559M 11559  11560M 11560
             11588M 11589B 11736M 11737B 11763M 11766  11769M 11906M 11907B 11932M 11991  12068M 12102M 12120M 12275M
             12276B 12281M 12282  12295M 12296  12331  12332M 12333M 12334M 12335M 12335  12336M 12336  12346M 12399
             12439M 12440  12453M 12454  12486  12487M 12488M 12489M 12490M 12490  12491M 12491  12603M 12604  12605M
             12607  12622M 12623  12626M 12633M 12634B 12674M 12675  12676M 12678  12693M 12694  12697M 12740M 12741B
             12773M 12774B 12835M 12836B 12900M 12901B 12919M 12920  12933M 12934  12969  12970M 12971M 12972M 12973M
             12973  12974M 12974  13003M 13050  13116  13117M 13118M 13119M 13120M 13120  13121M 13121  13197  13198M
             13199M 13200M 13201M 13201  13202M 13202  13225M 13226B 13251M 13252B 13316M 13317B 13363  13364M 13365M
             13366M 13367M 13367  13368M 13368  13397M 13441  13516M 13585  13586M 13587M 13588M 13589M 13589  13590M
             13590  13643  13644M 13645M 13646M 13647M 13647  13648M 13648  13707M 13708B 13788  13789M 13790M 13791M
             13792M 13792  13793M 13793  13856M 13857B 13904  13905M 13906M 13907M 13908M 13908  13909M 13909  13922M
             13923B 13957M 13958B 13985M 13986B 14017M 14018B 14082M 14083B 14129  14130M 14131M 14132M 14133M 14133
             14134M 14134  14163M 14217  14218M 14219M 14220M 14221M 14221  14222M 14222  14249  14289M 14290  14303M
             14304  14336  14337M 14338M 14339M 14340M 14340  14341M 14341  14364M 14365B 14390M 14391B 14455M 14456B
             14474M 14475  14488M 14489  14524  14525M 14526M 14527M 14528M 14528  14529M 14529  14558M 14610  14611
             14672  14673M 14674M 14675M 14676M 14676  14677M 14677  14689M 14692  14695M 14764M 14765B 14896M 14897
             14898M 14900  14915M 14916  14919M 14955  14956M 14957M 14958M 14959M 14959  14960M 14960  15091M 15120
             15121  15229M 15230B 15256  15257M 15258M 15259M 15260M 15260  15261M 15261  15286M 15318  15319  15426M
             15427B 15453  15454M 15455M 15456M 15457M 15457  15458M 15458  15483M 15515  15516  15622M 15623B 15649
             15650M 15651M 15652M 15653M 15653  15654M 15654  15679M 15711  15712  15820M 15821B 15847  15848M 15849M
             15850M 15851M 15851  15852M 15852  15877M 15931  15932  16062M 16063B 16138M 16139B 16283M 16284B 16340
             16341M 16342M 16343M 16344M 16344  16345M 16345  16441M 16474  16475  16526M 16527B 16614M 16615B 16684M
             16685B 16705M 16786  16787  16857M 16858B 16901M 16902B 17001M 17002B 17082M 17083B 17125M 17128  17131M
             17179M 17210  17211  17257M 17258B 17419M 17420B 17436M 17464  17465  17558M 17559B 17760M 17761B 17869M
             17870B 17901M 17902B 17932M 17965  17966  18067M 18068B 18099M 18100B 18131M 18132B 18157M 18190  18191
             18245M 18246B 18347M 18348B 18379M 18380B 18417M 18418B 18433M 18465  18466  18594M 18595B 18641M 18642B
             18769M 18800  18801  18852M 18853B 18918M 18919B 18979M 18980B 18996M 19024  19025  19291M 19292B 19373M
             19403  19404  19534M 19535B 19604M 19661  19662  19742M 19743B 19783M 19784B 19790M 19791B 19800M 19801B
             19847M 19848B 19895M 19896B 19951M 19952B 20003M 20004B 20032M 20033B 20101M 20102B 20145M 20180  20181
             20267M 20268B 20320M 20321B 20345  20346M 20347M 20348M 20349M 20349  20350M 20350  20401M 20402B 20409M
             20410B 20457M 20458B 20494M 20495B 20509M 20510B 20587M 20588B 20627M 20628B 20680  20681M 20682M 20683M
             20684M 20684  20685M 20685  20719M 20720B 20759M 20792  20793  20908M 20909B 20949  20950M 20951M 20952M
             20953M 20953  20954M 20954  20975M 20976B 20982M 20983B 20994M 20995B 21006M 21007B 21062M 21063B 21146
             21147M 21148M 21149M 21150M 21150  21151M 21151  21180M 21181B 21203M 21204B 21210M 21211B 21256M 21257B
             21275M 21276B 21302M 21303B 21324M 21325B 21351M 21352B 21461  21462M 21463M 21464M 21465M 21465  21466M
             21466  21485M 21486B 21517M 21518B 21554M 21555B 21585  21586M 21587M 21588M 21589M 21589  21590M 21590
1         (DISP00) (09:38) (22MAR04) General Purpose Register Cross Reference                                               Page  369
             21619M 21671M 21722  21723  21853M 21854B 21915M 21916B 21979M 21980B 22055M 22056B 22111M 22112B 22167M
             22168B 22376M 22377B 22474M 22475B 22524M 22583  22584  22697M 22698B 22779M 22780B 22823M 22824B 23018M
             23019B 23062M 23063B 23180M 23181B 23293M 23326  23327  23427  23428M 23429M 23430M 23431M 23431  23432M
             23432  23592M 23593B 23616M 23630  23644  23696M 23729  23730  23816  23817M 23818M 23819M 23820M 23820
             23821M 23821  23866  23867M 23868M 23869M 23870M 23870  23871M 23871  23897M 23898  23899M 23901  23916M
             23917  23920M 23955M 23956B 24043  24044M 24045M 24046M 24047M 24047  24048M 24048  24087M 24088M 24088
             24145M 24146B 24207M 24208B 24239M 24240B 24265M 24354  24355  24538M 24539B 24565  24566M 24567M 24568M
             24569M 24569  24570M 24570  24612M 24663  24664  24740  24741M 24742M 24743M 24744M 24744  24745M 24745
             24856M 24886  24887  25070M 25071B 25097  25098M 25099M 25100M 25101M 25101  25102M 25102  25144M 25176
             25177  25253  25254M 25255M 25256M 25257M 25257  25258M 25258  25369M 25399  25400  25583M 25584B 25610
             25611M 25612M 25613M 25614M 25614  25615M 25615  25657M 25689  25690  25766  25767M 25768M 25769M 25770M
             25770  25771M 25771  25882M 25912  25913  26096M 26097B 26123  26124M 26125M 26126M 26127M 26127  26128M
             26128  26170M 26202  26203  26279  26280M 26281M 26282M 26283M 26283  26284M 26284  26395M 26426  26427
             26597M 26598B 26624  26625M 26626M 26627M 26628M 26628  26629M 26629  26657M 26659M 26676M 26708  26709
             26771  26772M 26773M 26774M 26775M 26775  26776M 26776  26796M 26798M 26892M 26963  26964  27091M 27122
             27123  27203  27204M 27205M 27206M 27207M 27207  27208M 27208  27315M 27348  27349  27476M 27510  27511
             27657M 27690  27691  27838M 27871  27872  27975M 28008  28009  28098  28099M 28100M 28101M 28102M 28102
             28103M 28103  28146  28147M 28148M 28149M 28150M 28150  28151M 28151  28190M 28241  28242  28333  28334M
             28335M 28336M 28337M 28337  28338M 28338  28444M 28476  28477  28568  28569M 28570M 28571M 28572M 28572
             28573M 28573  28679M 28718  28719  28789M 28790B 28890M 28891B 28902M 28903B 28984M 28985B 29029M 29062
             29063  29242M 29243B 29253M 29254B 29262M 29263B 29314M 29345  29346  29503M 29504B 29535M 29567  29568
             29682M 29711  29712  29851M 29881  29882  29938M 29939B 30039M 30040B 30081M 30082B 30111M 30144  30145
             30242M 30243B 30339M 30340B 30369M 30370B 30396M 30426  30427  30899M 30900B 30949M 30952  30955M 31005M
             31038  31039  31172M 31202  31203  31336M 31364  31365  31573M 31603  31604  31781M 31784  31787M 31794M
             31795B 31824M 31860  31861  31918M 31919B 32014M 32015B 32035M 32065  32066  32136M 32137B 32163  32164M
             32165M 32166M 32167M 32167  32168M 32168  32272  32273M 32274M 32275M 32276M 32276  32277M 32277  32370M
             32373  32376M 32383M 32384B 32415  32416M 32417M 32418M 32419M 32419  32420M 32420  32449M 32494M 32528
             32529  32878  32879M 32880M 32881M 32882M 32882  32883M 32883  33100M 33153  33154  33219M 33220B 33310M
             33311B 33366M 33367B 33374M 33375B 33382M 33383B 33390M 33391B 33417M 33418B 33520M 33523  33526M 33566M
             33567B 33573M 33574B 33611M 33643  33644  33715M 33716B 33741M 33742B 33774  33775M 33776M 33777M 33778M
             33778  33779M 33779  33951M 33954  33957M 33964M 33965B 33998  33999M 34000M 34001M 34002M 34002  34003M
             34003  34032M 34072M 34105  34106  34159M 34160B 34245  34246M 34247M 34248M 34249M 34249  34250M 34250
             34278M 34279B 34309  34310M 34311M 34312M 34313M 34313  34314M 34314  34358M 34359B 34599M 34600B 34625M
             34679  34680  34783M 34784B 34974M 34975B 35040M 35041B 35067M 35068B 35094M 35095B 35121M 35122B 35154M
             35187  35188  35384M 35385B 35427M 35459  35460  35628M 35657  35658  35881M 35884  35887M 35922M 35923B
             35956M 35991  35992  36035M 36036B 36100M 36101B 36209M 36210B 36220M 36221B 36237M 36289  36290  36344M
             36345B 36393M 36394B 36402M 36403B 36423M 36487  36488  36544M 36591  36592  36806M 36837  36838  36916M
             36945  36946  36987M 36999  37072M 37100  37101  37192M 37220  37221  37318M 37348  37349  37444M 37447
             37450M 37488M 37541  37542  38020M 38083  38084  38150M 38151B 38155M 38156B 38159M 38160B 38169M 38170B
             38200M 38201B 38204M 38205B 38217M 38218B 38233M 38267  38268  38334M 38335B 38425M 38426B 38459M 38460B
             38551M 38552B 38669M 38670B 38735M 38736B 38764M 38766M 38832M 38833B 38846M 38848M 38883M 38884B 38897M
             38899M 38924M 38925B 38949M 39021  39022  39257M 39287  39288  39350M 39351B 39411M 39412B 39438  39439M
             39440M 39441M 39442M 39442  39443M 39443  39468M

1DISPATCH (DISP00) (09:38) (22MAR04) Diagnostic Cross Reference and Assembler Summary                                       Page  370
-                                                                                            HLASM R4.0  2004/03/22 09.38
0     No Statements Flagged in this Assembly
 HIGH LEVEL ASSEMBLER, 5696-234, RELEASE 4.0, PTF UQ57391
0SYSTEM: OS/390 02.10.00            JOBNAME: PJG#DISP    STEPNAME: ASM        PROCSTEP: (NOPROC)
0Datasets Allocated for this Assembly
  Con DDname   Dataset Name                                 Volume  Member
   P1 SYSIN    SYS04082.T093827.RA000.PJG#DISP.INPUT.H01    SCR101
   L1 SYSLIB   SYS3.DUMMYMAC                                SYSB02
   L2          WYL.GG.ORV.MACLIB                            SYSB02
   L3          WYL.GG.SYS.MACLIB                            SYSB05
      SYSLIN   WYL.GG.PJG.OBJ                               SYSB05  DISPATCH
      SYSPRINT SYS04082.T093827.RA000.PJG#DISP.PRINT.H01    SCR101
      SYSTERM  GG$PJG.PJG#DISP.JOB05929.D0000103.?

    7812K allocated to Buffer Pool,         4777K would be required for this to be an In-Storage Assembly
    7119 Primary Input Records Read         5772 Library Records Read                  0 Work File Reads
       0 ASMAOPT Records Read              24236 Primary Print Records Written         0 Work File Writes
     610 Punch Records Written                 0 ADATA Records Written
0Assembly Start Time: 09.38.29 Stop Time: 09.38.42 Processor Time: 00.00.07.5981
 Return Code 000
