1                        J E S 2  J O B  L O G  --  S Y S T E M  S Y S B  --  N O D E  R L G
0
 09.41.07 JOB05941 ---- MONDAY,    22 MAR 2004 ----
 09.41.07 JOB05941  ICH70001I GG$PJG   LAST ACCESS AT 09:40:32 ON MONDAY, MARCH 22, 2004
 09.41.07 JOB05941  $HASP373 PJG#IOSU STARTED - INIT 2    - CLASS E - SYS SYSB
 09.41.07 JOB05941  ***  HCMD      STEP $$QUIET
 09.41.07 JOB05941  PURGE * Q=OUTPUT MULTIPLE
 09.41.07 JOB05941  JOB PJG#IOSU NOT IN OUTPUT QUEUE
 09.41.08 JOB05941  PJG#IOSU.$$QUIET .         RC=0008 TapeIO=0000 DiskIO=0000 CPU=  .01s Elapsed=67.28s
 09.41.08 JOB05941  PJG#IOSU.$CND    .         RC=Zero TapeIO=0000 DiskIO=0002 CPU=  .01s Elapsed=68.32s
 09.41.08 JOB05941  PJG#IOSU.$UNP    .         RC=Zero TapeIO=0000 DiskIO=0012 CPU=  .05s Elapsed=68.47s
 09.41.13 JOB05941  PJG#IOSU.ASM     .         RC=Zero TapeIO=0000 DiskIO=0330 CPU= 1.51s Elapsed=68.75s
 09.41.14 JOB05941  PJG#IOSU.$EDIT   .         RC=Zero TapeIO=0000 DiskIO=0093 CPU=  .36s Elapsed=73.67s
 09.41.14 JOB05941  PJG#IOSU Ended.  Name=Module: IOSUPER                Total CPU= 1.94s Elapsed=67.28s
 09.41.14 JOB05941
 09.41.14 JOB05941  Execution charges   Priority=Standard   Block=Day
 09.41.14 JOB05941
 09.41.14 JOB05941  CPU Usage          35.43          $21.96   Standard Processing Unit Equivalent
 09.41.14 JOB05941                                   =======
 09.41.14 JOB05941                                    $21.96   Total Job execution charge
 09.41.14 JOB05941
 09.41.14 JOB05941  See back separator page for print charges
 09.41.14 JOB05941
 09.41.14 JOB05941  $HASP395 PJG#IOSU ENDED  ASM=0
1        1 //PJG#IOSU JOB PJG$GG,'Module: IOSUPER',TIME=1,MSGCLASS=C               JOB05941
           /*JOBPARM HOLD=OUTPUT,LINES=50,CHARS=TN15,NOTIFY=YES
         2 //       EXEC PURGEOLD
         3 XXPURGEOLD PROC
           XX*
           XX* This proc is maintained by Jim Stosick
           XX*
         4 XX$$QUIET  EXEC PGM=HCMDX,PARM='PURGE * Q=OUTPUT MULTIPLE',
           XX         ACCT=(PURGEOLD,SYS3)
         5 //$CND   EXEC PGM=BILBO,REGION=512K,PARM='RECS=100'
         6 //STEPLIB  DD DSN=WYL.GG.ORV.LINKLIB,DISP=SHR
         7 //SYSPRINT DD SYSOUT=$
         8 //SYSUT1   DD DSN=WYL.GG.PJG.OBJ,DISP=OLD
         9 //SYSUT2   DD DSN=WYL.GG.PJG.OBJ,DISP=OLD
        10 //SYSIN    DD DUMMY
        11 //$UNP   EXEC PGM=WUNPRESS,PARM='NUM'
        12 //SYSPRINT DD SYSOUT=$
        13 //SYSUT1   DD DSN=WYL.GG.ORV.SOURCE(IOSUPER),DISP=SHR
        14 //SYSUT2   DD DSN=&&INPUT,DISP=(,PASS),UNIT=SYSDA,
           //            SPACE=(TRK,(25,25),RLSE),DCB=CARD
        15 //ASM    EXEC PGM=ASMA90,REGION=8M,COND=(0,NE,$UNP),
           //            PARM=('SYSPARM(IOSUPER),TERM,LANG(EN),OBJ',
           //          'LC(32500),XREF(SHORT),NODECK,NORLD,NODX,NOUS')
           //*STEPLIB  DD DSN=SYS1.SASMMOD1,DISP=SHR
        16 //SYSLIB   DD DSN=SYS3.DUMMYMAC,DISP=SHR,DCB=BLKSIZE=27920
        17 //         DD DSN=WYL.GG.ORV.MACLIB,DISP=SHR
        18 //         DD DSN=WYL.GG.SYS.MACLIB,DISP=SHR
        19 //SYSUT1   DD DSN=&&SYSUT1,UNIT=VIO,DISP=(,DELETE),
           //            SPACE=(4088,(500,250),,CONTIG,ROUND)
        20 //SYSTERM  DD SYSOUT=$
        21 //SYSPRINT DD DSN=&&PRINT,UNIT=SYSDA,DISP=(,PASS),
           //            SPACE=(6650,(250,250),RLSE),
           //            DCB=(BLKSIZE=6650,LRECL=133,RECFM=FB)
        22 //SYSLIN   DD DSN=WYL.GG.PJG.OBJ(IOSUPER),DISP=OLD
        23 //SYSUDUMP DD SYSOUT=A
        24 //SYSIN    DD DSN=&&INPUT,DISP=(OLD,DELETE)
        25 //$EDIT  EXEC PGM=ASMEDIT,REGION=1M,
           //            COND=EVEN,PARM='STMT,DATA'
        26 //STEPLIB  DD DSN=WYL.GG.SYS.LINKLIB,DISP=SHR
        27 //ASMOUT   DD DSN=&&PRINT,DISP=(OLD,DELETE)
        28 //SYSPRINT DD SYSOUT=A
        29 //SYSUDUMP DD SYSOUT=A
1 STMT NO. MESSAGE
         2 IEFC001I PROCEDURE PURGEOLD WAS EXPANDED USING SYSTEM LIBRARY SYS3.BETAPROC
        14 IGD01010I STORCLAS= TEMP STORGROUP =
        14 IGD01010I STORGRP=VIO ASSIGNED.
        19 IGD01010I STORCLAS= TEMP STORGROUP =
        19 IGD01010I STORGRP=VIO ASSIGNED.
        21 IGD01010I STORCLAS= TEMP STORGROUP =
        21 IGD01010I STORGRP=VIO ASSIGNED.
 ICH70001I GG$PJG   LAST ACCESS AT 09:40:32 ON MONDAY, MARCH 22, 2004
 IEF142I PJG#IOSU $$QUIET - STEP WAS EXECUTED - COND CODE 0008
 *********************************************************************************
 *   PJG#IOSU/$$QUIET /                    Return Code      0008                 *
 *   Region used      260K (16K user + 244K system)                              *
 *   Extended region  9352K (4K user + 9348K system)                             *
 *                                                                               *
 *   Paging              In      Out                                             *
 *   Private <-> Aux      0        0       CPU time (TCB)   00:00:00.01          *
 *   Private <-> Exp      0        0       CPU time (SRB)   00:00:00.00          *
 *   VIO                  0        0       Elapsed time    920:46:45.68          *
 *   Common               0      ---                                             *
 *                                                                               *
 *                                                                               *
 *   CPU Usage          0.18         $0.11  Standard Processing Unit Equivalent  *
 *                                   $0.11  Total Step execution charge          *
 *                                                                               *
 *    I/O count  DDname   Type Addr           I/O count  DDname   Type Addr      *
 *                         *** No I/O for this step ***                          *
 *********************************************************************************
 IEF373I STEP/$$QUIET /START 2004082.0941
 IEF374I STEP/$$QUIET /STOP  2004082.0941 CPU    0MIN 00.01SEC SRB    0MIN 00.00SEC VIRT    16K SYS   244K EXT       4K SYS    9348K
 IEF236I ALLOC. FOR PJG#IOSU $CND
 IEF237I 0401 ALLOCATED TO STEPLIB
 IEF237I JES2 ALLOCATED TO SYSPRINT
 IEF237I 04DC ALLOCATED TO SYSUT1
 IEF237I 04DC ALLOCATED TO SYSUT2
 IEF237I DMY  ALLOCATED TO SYSIN
 IEF142I PJG#IOSU $CND - STEP WAS EXECUTED - COND CODE 0000
 IEF285I   WYL.GG.ORV.LINKLIB                           KEPT
 IEF285I   VOL SER NOS= SYSB01.
 IEF285I   GG$PJG.PJG#IOSU.JOB05941.D0000101.?          SYSOUT
 IEF285I   WYL.GG.PJG.OBJ                               KEPT
 IEF285I   VOL SER NOS= SYSB05.
 IEF285I   WYL.GG.PJG.OBJ                               KEPT
 IEF285I   VOL SER NOS= SYSB05.
 *********************************************************************************
 *   PJG#IOSU/$CND    /                    Return Code      Zero                 *
 *   Region used      280K (16K user + 264K system)                              *
 *   Extended region  9392K (4K user + 9388K system)                             *
 *                                                                               *
 *   Paging              In      Out                                             *
 *   Private <-> Aux      0        0       CPU time (TCB)   00:00:00.01          *
 *   Private <-> Exp      0        0       CPU time (SRB)   00:00:00.00          *
 *   VIO                  0        0       Elapsed time    920:46:44.64          *
 *   Common               0      ---                                             *
 *                                                                               *
 *                                                                               *
 *   CPU Usage          0.18         $0.11  Standard Processing Unit Equivalent  *
 *                                   $0.11  Total Step execution charge          *
 *                                                                               *
 *    I/O count  DDname   Type Addr           I/O count  DDname   Type Addr      *
 *            2  STEPLIB  Disk 0401                   0  SYSPRINT      ----      *
 *            0  SYSUT1   Disk 04DC                   0  SYSUT2   Disk 04DC      *
 *            0  SYSIN         ----                                              *
 *********************************************************************************
 IEF373I STEP/$CND    /START 2004082.0941
 IEF374I STEP/$CND    /STOP  2004082.0941 CPU    0MIN 00.01SEC SRB    0MIN 00.00SEC VIRT    16K SYS   264K EXT       4K SYS    9388K
 IEF236I ALLOC. FOR PJG#IOSU $UNP
 IEF237I JES2 ALLOCATED TO SYSPRINT
 IEF237I 0402 ALLOCATED TO SYSUT1
 IGD101I SMS ALLOCATED TO DDNAME (SYSUT2  )
         DSN (SYS04082.T094107.RA000.PJG#IOSU.INPUT.H01   )
         STORCLAS (TEMP) MGMTCLAS (        ) DATACLAS (        )
         VOL SER NOS= SCR100
 IEF142I PJG#IOSU $UNP - STEP WAS EXECUTED - COND CODE 0000
 IEF285I   GG$PJG.PJG#IOSU.JOB05941.D0000102.?          SYSOUT
 IEF285I   WYL.GG.ORV.SOURCE                            KEPT
 IEF285I   VOL SER NOS= SYSB02.
 IGD106I SYS04082.T094107.RA000.PJG#IOSU.INPUT.H01    PASSED,    DDNAME=SYSUT2
 *********************************************************************************
 *   PJG#IOSU/$UNP    /                    Return Code      Zero                 *
 *   Region used      380K (108K user + 272K system)                             *
 *   Extended region  9468K (4K user + 9464K system)                             *
 *                                                                               *
 *   Paging              In      Out                                             *
 *   Private <-> Aux      0        0       CPU time (TCB)   00:00:00.05          *
 *   Private <-> Exp      0        0       CPU time (SRB)   00:00:00.00          *
 *   VIO                  0        0       Elapsed time    920:46:44.49          *
 *   Common               0      ---                                             *
 *                                                                               *
 *                                                                               *
 *   CPU Usage          0.93         $0.57  Standard Processing Unit Equivalent  *
 *                                   $0.57  Total Step execution charge          *
 *                                                                               *
 *    I/O count  DDname   Type Addr           I/O count  DDname   Type Addr      *
 *            0  SYSPRINT      ----                   2  SYSUT1   Disk 0402      *
 *           10  SYSUT2   Disk 038B                                              *
 *********************************************************************************
 IEF373I STEP/$UNP    /START 2004082.0941
 IEF374I STEP/$UNP    /STOP  2004082.0941 CPU    0MIN 00.05SEC SRB    0MIN 00.00SEC VIRT   108K SYS   272K EXT       4K SYS    9464K
 IEF236I ALLOC. FOR PJG#IOSU ASM
 IEF237I 0402 ALLOCATED TO SYSLIB
 IEF237I 0402 ALLOCATED TO
 IEF237I 04DC ALLOCATED TO
 IGD101I SMS ALLOCATED TO DDNAME (SYSUT1  )
         DSN (SYS04082.T094107.RA000.PJG#IOSU.SYSUT1.H01  )
         STORCLAS (TEMP) MGMTCLAS (        ) DATACLAS (        )
         VOL SER NOS= VIO
 IEF237I JES2 ALLOCATED TO SYSTERM
 IGD101I SMS ALLOCATED TO DDNAME (SYSPRINT)
         DSN (SYS04082.T094107.RA000.PJG#IOSU.PRINT.H01   )
         STORCLAS (TEMP) MGMTCLAS (        ) DATACLAS (        )
         VOL SER NOS= SCR101
 IEF237I 04DC ALLOCATED TO SYSLIN
 IEF237I JES2 ALLOCATED TO SYSUDUMP
 IGD103I SMS ALLOCATED TO DDNAME SYSIN
 IEF142I PJG#IOSU ASM - STEP WAS EXECUTED - COND CODE 0000
 IEF285I   SYS3.DUMMYMAC                                KEPT
 IEF285I   VOL SER NOS= SYSB02.
 IEF285I   WYL.GG.ORV.MACLIB                            KEPT
 IEF285I   VOL SER NOS= SYSB02.
 IEF285I   WYL.GG.SYS.MACLIB                            KEPT
 IEF285I   VOL SER NOS= SYSB05.
 IGD105I SYS04082.T094107.RA000.PJG#IOSU.SYSUT1.H01   DELETED,   DDNAME=SYSUT1
 IEF285I   GG$PJG.PJG#IOSU.JOB05941.D0000103.?          SYSOUT
 IGD106I SYS04082.T094107.RA000.PJG#IOSU.PRINT.H01    PASSED,    DDNAME=SYSPRINT
 IEF285I   WYL.GG.PJG.OBJ                               KEPT
 IEF285I   VOL SER NOS= SYSB05.
 IEF285I   GG$PJG.PJG#IOSU.JOB05941.D0000104.?          SYSOUT
 IGD105I SYS04082.T094107.RA000.PJG#IOSU.INPUT.H01    DELETED,   DDNAME=SYSIN
 *********************************************************************************
 *   PJG#IOSU/ASM     /                    Return Code      Zero                 *
 *   Region used      8476K (8192K user + 284K system)                           *
 *   Extended region  9952K (412K user + 9540K system)                           *
 *                                                                               *
 *   Paging              In      Out                                             *
 *   Private <-> Aux      0        0       CPU time (TCB)   00:00:01.47          *
 *   Private <-> Exp      0        0       CPU time (SRB)   00:00:00.04          *
 *   VIO                  0        0       Elapsed time    920:46:44.21          *
 *   Common               0      ---                                             *
 *                                                                               *
 *                                                                               *
 *   CPU Usage         27.56        $17.08  Standard Processing Unit Equivalent  *
 *                                  $17.08  Total Step execution charge          *
 *                                                                               *
 *    I/O count  DDname   Type Addr           I/O count  DDname   Type Addr      *
 *           97  SYSLIB   Disk 0402                   0  SYSLIB   Disk 0402      *
 *          130  SYSLIB   Disk 04DC                   0  SYSUT1   VIO  ----      *
 *            0  SYSTERM       ----                  90  SYSPRINT Disk 04E3      *
 *            2  SYSLIN   Disk 04DC                   0  SYSUDUMP      ----      *
 *           11  SYSIN    Disk 038B                                              *
 *********************************************************************************
 IEF373I STEP/ASM     /START 2004082.0941
 IEF374I STEP/ASM     /STOP  2004082.0941 CPU    0MIN 01.47SEC SRB    0MIN 00.04SEC VIRT  8192K SYS   284K EXT     412K SYS    9540K
 IEF236I ALLOC. FOR PJG#IOSU $EDIT
 IEF237I 0402 ALLOCATED TO STEPLIB
 IGD103I SMS ALLOCATED TO DDNAME ASMOUT
 IEF237I JES2 ALLOCATED TO SYSPRINT
 IEF237I JES2 ALLOCATED TO SYSUDUMP
 IEF142I PJG#IOSU $EDIT - STEP WAS EXECUTED - COND CODE 0000
 IEF285I   WYL.GG.SYS.LINKLIB                           KEPT
 IEF285I   VOL SER NOS= SYSB02.
 IGD105I SYS04082.T094107.RA000.PJG#IOSU.PRINT.H01    DELETED,   DDNAME=ASMOUT
 IEF285I   GG$PJG.PJG#IOSU.JOB05941.D0000105.?          SYSOUT
 IEF285I   GG$PJG.PJG#IOSU.JOB05941.D0000106.?          SYSOUT
 *********************************************************************************
 *   PJG#IOSU/$EDIT   /                    Return Code      Zero                 *
 *   Region used      388K (116K user + 272K system)                             *
 *   Extended region  9472K (4K user + 9468K system)                             *
 *                                                                               *
 *   Paging              In      Out                                             *
 *   Private <-> Aux      0        0       CPU time (TCB)   00:00:00.35          *
 *   Private <-> Exp      0        0       CPU time (SRB)   00:00:00.01          *
 *   VIO                  0        0       Elapsed time    920:46:39.29          *
 *   Common               0      ---                                             *
 *                                                                               *
 *                                                                               *
 *   CPU Usage          6.56         $4.06  Standard Processing Unit Equivalent  *
 *                                   $4.06  Total Step execution charge          *
 *                                                                               *
 *    I/O count  DDname   Type Addr           I/O count  DDname   Type Addr      *
 *            2  STEPLIB  Disk 0402                  91  ASMOUT   Disk 04E3      *
 *            0  SYSPRINT      ----                   0  SYSUDUMP      ----      *
 *********************************************************************************
 IEF373I STEP/$EDIT   /START 2004082.0941
 IEF374I STEP/$EDIT   /STOP  2004082.0941 CPU    0MIN 00.35SEC SRB    0MIN 00.01SEC VIRT   116K SYS   272K EXT       4K SYS    9468K
 *********************************************************************************
 *                                                                               *
 *                      S t a n f o r d   U n i v e r s i t y                    *
 *                                                                               *
 *                              *** Job Summary ***                              *
 *                                                                               *
 *   System Id      SYSB                   Input time     09:38:21  Mar 22, 2004 *
 *                                                                               *
 *   System Release SP6.1.0                Start time     09:41:07  Mar 22, 2004 *
 *                                                                               *
 *   Job name       PJG#IOSU               Stop  time     00:00:00  Mar 22, 2004 *
 *                                                                               *
 *   Account        PJG$GG                 Elapsed time  920:46:45.68            *
 *                                                                               *
 *   User Name      Module: IOSUPER        CPU time       00:00:01.89            *
 *                                                                               *
 *   Job class      E                      SRB Time       00:00:00.05            *
 *                                                                               *
 *********************************************************************************
 IEF375I  JOB/PJG#IOSU/START 2004082.0941
 IEF376I  JOB/PJG#IOSU/STOP  2004082.0941 CPU    0MIN 01.89SEC SRB    0MIN 00.05SEC
1Data set successfully converted from EDIT to FB format
1Assembler Done IOSUPER No Statements Flagged
1         High Level Assembler Option Summary                   (PTF UQ57391)                                               Page    1
-                                                                                            HLASM R4.0  2004/03/22 09.41
0  No Overriding ASMAOPT Parameters
   Overriding Parameters-  SYSPARM(IOSUPER),TERM,LANG(EN),OBJ,LC(32500),XREF(SHORT),NODECK,NORLD,NODX,NOUS
   No Process Statements


   Options for this Assembly
0  NOADATA
     ALIGN
   NOASA
     BATCH
     CODEPAGE(047C)
   NOCOMPAT
   NODBCS
 3 NODECK
 3 NODXREF
     ESD
   NOEXIT
     FLAG(0,ALIGN,CONT,NOIMPLEN,NOPAGE0,PUSH,RECORD,NOSUBSTR,USING0)
   NOFOLD
   NOGOFF
   NOINFO
 3   LANGUAGE(EN)
   NOLIBMAC
 3   LINECOUNT(32500)
     LIST(121)
     MXREF(SOURCE)
 3   OBJECT
     OPTABLE(UNI,NOLIST)
   NOPCONTROL
   NOPESTOP
   NOPROFILE
   NORA2
   NORENT
 3 NORLD
     RXREF
     SIZE(MAX)
 3   SYSPARM(IOSUPER)
 3   TERM(WIDE)
   NOTEST
     THREAD
   NOTRANSLATE
 3 NOUSING
 3   XREF(SHORT)

   No Overriding DD Names

1IOSUPER  External Symbol Dictionary                                                                                        Page    2
-Symbol   Type   Id     Address  Length     LD ID  Flags Alias-of                            HLASM R4.0  2004/03/22 09.41
0IOSUPER   SD 00000001 00000000 000008D8             06
 IOSU00    LD          00000000           00000001
 IOSDOIO   LD          00000022           00000001
 IOSINTER  LD          000002FC           00000001
 IOSTIME   LD          00000508           00000001
 IOSIDGET  LD          0000053C           00000001
 IOSIDFRE  LD          000006C0           00000001
 IOSASC    LD          00000780           00000001
 IOSINIT   LD          000007AA           00000001
 SYSRNEW   ER 00000002
 SYSRDEL   ER 00000003
 XITDO     ER 00000004
 AWAIT     ER 00000005
 AWAITAS   ER 00000006
 SIGNALAS  ER 00000007
 SYSRDO    ER 00000008
 SIGNAL    ER 00000009
 VMGET     ER 0000000A
 LKCRE     ER 0000000B

1IOSUPER  MP-ORVYL I/O Supervisor                                                                                           Page    3
0Loc    Object Code    Addr1 Addr2  Stmt Lv Lineno    Source Statement                    (Asmedit 3.3)  HLASM R4.0  2004/03/22 09.41
+___    ______ ____    _____ _____  ____ __ ______    ______ _________
0                                      2       2.              COPY  HEADER
                                       3             =*********************************************************************
                                       4             =*                                                                   *
                                       5             =*                                                                   *
                                       6             =*                          M P - O R V Y L                          *
                                       7             =*                                                                   *
                                       8             =*       ORVYL - Release 5.0 - Class I - Stanford Proprietary        *
                                       9             =*                                                                   *
                                      10             =*                                                                   *
                                      11             =*********************************************************************
-
-                                     13             =         SPLEVEL SET=2
                                      16             =         HIBAL ASSOC=YES
-
                                     998             =*
                                     999             =* REGISTER CONVENTIONS (USE ONLY THE SYMBOLS)
                                    1000             =*
                                    1001             =*                     CLASS  USAGE
                                    1002             =*                     -----  -----------------------------
                                    1003             =RVR      REG   0        1    RETURN VALUE REGISTER
                                    1015             =RS       REG   1        *    SCRATCH
                                    1027             =RA       REG   2        *    SCRATCH
                                    1039             =RB       REG   3        *    SCRATCH
                                    1051             =RJ       REG   4        *    SCRATCH
                                    1063             =RK       REG   5        *    SCRATCH
                                    1075             =RX       REG   6        *    SCRATCH
                                    1087             =RY       REG   7        *    SCRATCH
                                    1099             =RM       REG   8        *    SCRATCH
                                    1111             =RN       REG   9        *    SCRATCH (In Guest)
                                    1123             =RTCBR    REG   9        -    POINTER TO THE RTCB (In Host)
                                    1135             =BR       REG   10       -    FIRST BASE REGISTER
                                    1147             =BRR      REG   11       -    SECOND BASE REGISTER
                                    1159             =WAR      REG   12       -    WORK AREA POINTER
                                    1171             =SPR      REG   13       -    STACK TOP POINTER
                                    1183             =RAR      REG   14       1    RETURN ADDRESS REGISTER
                                    1195             =EPAR     REG   15       1    ENTRY POINT ADDRESS
                                    1207             =*
                                    1208             =*      CLASS   MEANING
                                    1209             =*      -----   --------------------------------------------------
                                    1210             =*        *     Register may be freely used for scratch
                                    1211             =*        -     Register may not be used
                                    1212             =*        1     Available but may change on subroutine calls
                                    1213             =*
1IOSUPER  MP-ORVYL I/O Supervisor                                                                                           Page    4
0D-Loc  Object Code    Addr1 Addr2  Stmt Lv Lineno    Source Statement           (Hibal 5, Asmedit 3.3)  HLASM R4.0  2004/03/22 09.41
+_____  ______ ____    _____ _____  ____ __ ______    ______ _________
0
 000000                00000 008D8  1216       4.     IOSUPER  MODULE ,
                                    1226             +*
                                    1227    02-IDENT +         ENTRY IOSU00
                                    1228             +
 000000 14C9D6E2E4F0F06B            1229    02-IDENT +IOSU00   DC    AL1(20),C'IOSU00,22MAR04,09:41'
                                    1230             +*
0                                   1233       6.     DISABLE  EQU   X'04'                   Disable 'AND' mask
0                                   1235       8.              DEFCC SCHST,8                 Subchannel operation started
                                    1236       9.              DEFCC SCHSP,4                 Subchannel status-pending
                                    1237      10.              DEFCC SCHBZ,2                 Subchannel busy
                                    1238      11.              DEFCC SCHNO,1                 Subchannel not operational
                                    1239      12.
                                    1240      13.              DEFCC SCHER,3                 Subchannel ERROR
1IOSUPER  (IOSU00) (09:41) (22MAR04) MP-ORVYL I/O Supervisor                                                                Page    5
0Loc    Object Code    Addr1 Addr2  Stmt Lv Lineno    Source Statement           (Hibal 5, Asmedit 3.3)  HLASM R4.0  2004/03/22 09.41
+___    ______ ____    _____ _____  ____ __ ______    ______ _________
0                                   1242      15.     *
                                    1243      16.     *  To Do:
                                    1244      17.     *    Path I/O
                                    1245      18.     *    JES allocate and I/O
                                    1246      19.     *
1IOSUPER  (IOSU00) (09:41) (22MAR04) IOSUPER - Interface parameters for external modules                                    Page    6
0Loc    Object Code    Addr1 Addr2  Stmt Lv Lineno    Source Statement           (Hibal 5, Asmedit 3.3)  HLASM R4.0  2004/03/22 09.41
+___    ______ ____    _____ _____  ____ __ ______    ______ _________
0                                   1248      21.              COPY  DISPPARM                Dispatcher parameters
                                    1249             =*****************************************************************
                                    1250             =*                                                               *
                                    1251             =*  DISPPARM -- Parameters for the dispatcher global routines.   *
                                    1252             =*                                                               *
                                    1253             =*****************************************************************
-                                   1255             =*
                                    1256             =* Routines to indicate completion of a page or swap I/O
                                    1257             =*
 000000                00000 00004  1258             =@DISPPIOC RECORD BEGIN                 Page I/O completion parms
 000000                             1266  1          =@DPIOASB   DS    A                       ASB of completing I/O
 000004                00004 00004  1267             =         END   ,
0000000                00000 00004  1277             =@DISPSIOC RECORD BEGIN                 Swap I/O completion parms
 000000                             1285  1          =@DSIOASB   DS    A                       ASB of completing I/O
 000004                00004 00004  1286             =         END   ,
-                                   1296             =*
                                    1297             =* SUSPEND parameters
                                    1298             =*
0000000                00000 00009  1300             =@SUSPEND RECORD BEGIN
 000000                             1308  1          =@SUSPCTL   DS    0D            ID of the Control level suspended
 000000                             1309  1          =@SUSPID    DS    A             ID of the task/address space suspended
 000004                             1310  1          =@SUSPLC    DS    A             For tasks: Level of control suspended
 000008 00                          1311  1          =@SUSPFLG   FLAG  ,
 @SUSPFLG.@SUSPLNG 80 ONES          1315  1          =           FLAG  @SUSPLNG      This will be of long duration
 @SUSPFLG.@SUSPAS  40 ONES          1320  1          =           FLAG  @SUSPAS       Suspend the entire address space
 @SUSPFLG.@SUSPPLC 20 ONES          1325  1          =           FLAG  @SUSPPLC      Suspend previous level of control
 000009                00009 00009  1330             =         END   ,
-                                   1340             =*
                                    1341             =* RESUMAS/RESUMTS parameters
                                    1342             =*
0000000                00000 00008  1344             =@RESUME  RECORD BEGIN
 000000                             1352  1          =@RESCTL    DS    0D            ID of the unit of work to be resumed
 000000                             1353  1          =@RESUNIT   DS    A             Address of the ASB/task Id to resume
 000004                             1354  1          =@RESLC     DS    A             Level of control in a task
 000008                00008 00008  1355             =         END   ,
-                                   1365             =*
                                    1366             =* DISPSHLD/DISPSREL parmameters
                                    1367             =*
0000000                00000 00004  1369             =@DISPSWP RECORD BEGIN
 000000                             1377  1          =@DISPSAS   DS    A             Address of the ASB being manipulated
 000004                00004 00004  1378             =         END   ,
-                                   1388             =*
1IOSUPER  (IOSU00) (09:41) (22MAR04) IOSUPER - Interface parameters for external modules                                    Page    7
0Loc    Object Code    Addr1 Addr2  Stmt Lv Lineno    Source Statement           (Hibal 5, Asmedit 3.3)  HLASM R4.0  2004/03/22 09.41
+___    ______ ____    _____ _____  ____ __ ______    ______ _________
0                                   1389             =* ACREATE parameters
                                    1390             =*
0000000                00000 00008  1392             =@ACREATE RECORD BEGIN
 000000                             1400  1          =@ACRPSW    DS    D             Instruction address for task
 000008                00008 00008  1401             =         END   ,
-                                   1411             =*
                                    1412             =* TCREATE parameters
                                    1413             =*
0000000                00000 00015  1415             =@TCREATE RECORD BEGIN
 000000                             1423  1          =@TCRPSW    DS    D             Initial PSW for the task
 000008                             1424  1          =@TCRPARM   DS    2A            Parameter for the task
 000010                             1425  1          =@TCRPRIO   DS    A             Adjustment to priority from Current task
 000014 00                          1426  1          =@TCRFLAG   FLAG  ,             Task creation flags
 @TCRFLAG.@TCRFSTK 80 ONES          1430  1          =           FLAG  @TCRFSTK        Task entered with a stack
 @TCRFLAG.@TCRFPAB 40 ONES          1435  1          =           FLAG  @TCRFPABS       Prio is absolute
 000015                00015 00015  1440             =         END   ,
-                                   1450             =*
                                    1451             =* TREMOVE parameters
                                    1452             =*
0000000                00000 00004  1454             =@TREMOVE RECORD BEGIN
 000000                             1462  1          =@TREID     DS    A             ID of the task to be removed
 000004                00004 00004  1463             =         END   ,
-                                   1473             =*
                                    1474             =* TENTRY Parameters  (on entry to a created task)
                                    1475             =*
0000000                00000 00008  1477             =@TENTRY  RECORD BEGIN
 000000                             1485  1          =@TEPARM    DS    2A            Entry parm for the task
 000008                00008 00008  1486             =         END   ,
-                                   1496             =*
                                    1497             =* TEXIT parameters
                                    1498             =*
0000000                00000 00004  1500             =@TEXIT   RECORD BEGIN
 000000                             1508  1          =           DS    A             Not used
 000004                00004 00004  1509             =         END   ,
-                                   1519             =*
                                    1520             =* SYSRNEW -- Get a new SYSR ID
                                    1521             =*
0000000                00000 00004  1523             =@SYSRNEW RECORD BEGIN
 000000                             1531  1          =           DS    A             Not used
 000004                00004 00004  1532             =         END   ,
1IOSUPER  (IOSU00) (09:41) (22MAR04) IOSUPER - Interface parameters for external modules                                    Page    8
0Loc    Object Code    Addr1 Addr2  Stmt Lv Lineno    Source Statement           (Hibal 5, Asmedit 3.3)  HLASM R4.0  2004/03/22 09.41
+___    ______ ____    _____ _____  ____ __ ______    ______ _________
0                                   1542             =*
                                    1543             =* SYSRDEL -- Delete a previous SYSR ID
                                    1544             =*
 000000                00000 00004  1545             =@SYSRDEL RECORD BEGIN
 000000                             1553  1          =@SYSRDID   DS    A             Id of the SYSR
 000004                00004 00004  1554             =         END   ,
-                                   1564             =*
                                    1565             =* SYSRDO -- Schedule a system routine to run in another address space
                                    1566             =*
0000000                00000 0001C  1568             =@SYSRDO  RECORD BEGIN
 000000                             1576  1          =@SYSRID    DS    A             Id from SYSRNEW
 000004                             1577  1          =@SYSRASB   DS    A             ASB of the Address space where it goes
 000008                             1578  1          =@SYSRLOC   DS    A             Location of the system routine
 00000C                             1579  1          =@SYSRPRM   DS    4A            Parameters for the routine
 00001C                0001C 0001C  1580             =         END   ,
-                                   1590             =*
                                    1591             =* SYSRTN -- Parameter passed to a system routine
                                    1592             =*
0000000                00000 00010  1594             =@SYSRTN  RECORD BEGIN
 000000                             1602  1          =@SYSPARS   DS    4A            Parameters
 000010                00010 00010  1603             =         END   ,
-                                   1613             =*
                                    1614             =* PERSET -- Set the Per registers
                                    1615             =*
0000000                00000 0000C  1617             =@PERSET  RECORD BEGIN
 000000                             1625  1          =@PERSDAT   DS    3F            3 Registers (corresponds to CRs 9-11)
 00000C                0000C 0000C  1626             =         END   ,
-                                   1636             =*
                                    1637             =* MONSET -- Set the MON masks
                                    1638             =*
0000000                00000 00002  1640             =@MONSET  RECORD BEGIN
 000000                             1648  1          =@MONSDAT   DS    H             Monitor Class Mask
 000002                00002 00002  1649             =         END   ,
-                                   1659             =*
                                    1660             =* DSPSTAT -- Return Dispatcher Statistics
                                    1661             =*
0000000                00000 00020  1663             =@DSPSTAT RECORD BEGIN
 000000                             1671  1          =@DSPSST    DS    D             TOD clock when system started
 000008                             1672  1          =@DSPSCHG   DS    D             Total CPU time charged (TOD)
 000010                             1673  1          =@DSPSDSP   DS    D             Dispatch CPU time (TOD)
 000018                             1674  1          =@DSPSIOS   DS    D             I/O Service time (TOD)
1IOSUPER  (IOSU00) (09:41) (22MAR04) IOSUPER - Interface parameters for external modules                                    Page    9
0Loc    Object Code    Addr1 Addr2  Stmt Lv Lineno    Source Statement           (Hibal 5, Asmedit 3.3)  HLASM R4.0  2004/03/22 09.41
+___    ______ ____    _____ _____  ____ __ ______    ______ _________
0000020                00020 00020  1675             =         END   ,
1IOSUPER  (IOSU00) (09:41) (22MAR04) IOSUPER - Interface parameters for external modules                                    Page   10
0Loc    Object Code    Addr1 Addr2  Stmt Lv Lineno    Source Statement           (Hibal 5, Asmedit 3.3)  HLASM R4.0  2004/03/22 09.41
+___    ______ ____    _____ _____  ____ __ ______    ______ _________
0                                   1685      23.              COPY  SIGPARM                 Signal/Await parameters
                                    1686             =*
                                    1687             =*  AWAIT/AWAITAS parameters
                                    1688             =*    For task based calls, the ECB is a double word.
                                    1689             =*    For address space based calls, the ECB is a word.
                                    1690             =*
 000000                00000 00005  1691             =@AWAIT   RECORD BEGIN
 000000                             1699  1          =@AWTECB    DS    A                       Address of ECB
 000004 00                          1700  1          =@AWTFLG    FLAG  ,
 @AWTFLG.@AWTLONG  80 ONES          1704  1          =           FLAG  @AWTLONG                Long term wait
 000005                00005 00005  1709             =         END   ,
0                                   1719             =*
                                    1720             =*  SIGNAL/SIGNALAS parameters
                                    1721             =*    For task based calls, the ECB and post code is a double word.
                                    1722             =*    For address space based calls, the ECB and post code is a word.
                                    1723             =*
 000000                00000 00014  1724             =@SIGNAL  RECORD BEGIN
 000000                             1732  1          =@SGCODE    DS    D                       Post code
 000008                             1733  1          =@SGECB     DS    A                       Address of ECB
                                    1734  1          =*  -- Parms for task signal --
                                    1735  1          =*    Zero ASB means post in this AS
                                    1736  1          =*    @PSSRID is only used for cross AS posts
 00000C                             1737  1          =@SGASB     DS    A                       ASB to be posted
 000010                             1738  1          =@SGSRID    DS    A                       System routine ID for cross
                                    1739  1          =*                                          AS posting
 000014                00014 00014  1740             =         END   ,
1IOSUPER  (IOSU00) (09:41) (22MAR04) IOSUPER - Interface parameters for external modules                                    Page   11
0Loc    Object Code    Addr1 Addr2  Stmt Lv Lineno    Source Statement           (Hibal 5, Asmedit 3.3)  HLASM R4.0  2004/03/22 09.41
+___    ______ ____    _____ _____  ____ __ ______    ______ _________
0                                   1750      25.              COPY  XITPARM                 Exit parameters
                                    1751             =*****************************************************************
                                    1752             =*                                                               *
                                    1753             =*  XITPARM --  Parameters for the routines dealing with exit    *
                                    1754             =*              routine definition and execution.                *
                                    1755             =*                                                               *
                                    1756             =*****************************************************************
-                                   1758             =*
                                    1759             =*  @EXRADD -- Define a new exit routine.
                                    1760             =*
0000000                00000 00015  1762             =@EXRADD  RECORD BEGIN
 000000                             1770  1          =@EXRTYPE   DS    A             Exit type bit map
 000004                             1771  1          =@EXRQUAL   DS    A             Exit Qualifier
 000008                             1772  1          =@EXRPSW    DS    D             Exit PSW
 000010                             1773  1          =@EXRPARM   DS    A             Parm for the exit
 000014 00                          1774  1          =@EXRAFLG   FLAG  ,
 @EXRAFLG.@EXRAFQ  80 ONES          1778  1          =           FLAG  @EXRAFQ       Exit should be qualified
 @EXRAFLG.@EXRAFS  40 ONES          1783  1          =           FLAG  @EXRAFS       System exit (entered with a stack)
 000015                00015 00015  1788             =         END   ,
-                                   1798             =*
                                    1799             =*  @EXRDEL -- Remove an exit routine definition.
                                    1800             =*
0000000                00000 00004  1802             =@EXRDEL  RECORD BEGIN
 000000                             1810  1          =@EXRDID    DS    A             Exit routine ID
 000004                00004 00004  1811             =         END   ,
-                                   1821             =*
                                    1822             =*  @EXRDONE -- Complete exit processing.
                                    1823             =*
0000000                00000 00001  1825             =@EXRDONE RECORD BEGIN
 000000 00                          1833  1          =@EXRDCD    FLAG  ,
 @EXRDCD.@EXRDFIN  00 EQ            1837  1          =           FLAG  (@EXRDFIN,0,EQ)         No further processing needed
 @EXRDCD.@EXRDNXT  01 EQ            1847  1          =           FLAG  (@EXRDNXT,1,EQ)         Percolate the exit request
 000001                00001 00001  1857             =         END   ,
-                                   1867             =*
                                    1868             =*  @XITNEW -- Define a new exit request.
                                    1869             =*
0000000                00000 00001  1871             =@XITNEW  RECORD BEGIN
 000000 00                          1879  1          =@XITNFL    FLAG  ,
 @XITNFL.@XITNFG   80 ONES          1883  1          =           FLAG  @XITNFG       Global exit request
 000001                00001 00001  1888             =         END   ,
-                                   1898             =*
                                    1899             =*  @XITDEL -- Delete an exit request
1IOSUPER  (IOSU00) (09:41) (22MAR04) IOSUPER - Interface parameters for external modules                                    Page   12
0Loc    Object Code    Addr1 Addr2  Stmt Lv Lineno    Source Statement           (Hibal 5, Asmedit 3.3)  HLASM R4.0  2004/03/22 09.41
+___    ______ ____    _____ _____  ____ __ ______    ______ _________
0                                   1900             =*
0000000                00000 00004  1902             =@XITDEL  RECORD BEGIN
 000000                             1910  1          =@XITDID    DS    A             Exit request ID
 000004                00004 00004  1911             =         END   ,
-                                   1921             =*
                                    1922             =*  @XITDO -- Schedule an exit.
                                    1923             =*
 000000                00000 00020  1924             =@XITDO   RECORD BEGIN
 000000                             1932  1          =@XITRQID   DS    A             Request ID (from XITNEW)
 000004                             1933  1          =@XITTSK    DS    A             Task Id where this exit is to run
 000008                             1934  1          =@XITTYPE   DS    X             Exit type (Integer)
 00000C                             1935  1          =@XITQUAL   DS    A             Exit qualifier
 000010                             1936  1          =@XITPARM   DS    XL16          Exit parameter area
 000020                00020 00020  1937             =         END   ,
-                                   1947             =*
                                    1948             =*  @XITGPST -- Info about the status of the previous level of control
                                    1949             =*              used by XITGST and XITPST
                                    1950             =*
0000000                00000 00068  1952             =@XITGPST RECORD BEGIN
 000000                             1960  1          =@XITSPSW   DS    D             PSW
 000008                             1961  1          =@XITSGPR   DS    16F           GPRs
 000048                             1962  1          =@XITSFPR   DS    4D            FPRs
 000068                00068 00068  1963             =         END   ,
-                                   1973             =*
                                    1974             =*  @XITMASK -- Modify the current exit mask
                                    1975             =*
0000000                00000 00005  1977             =@XITMASK RECORD BEGIN
 000000                             1985  1          =@XITMSK    DS    A             Bit mask of the data
 000004 00                          1986  1          =@XITMREQ   FLAG  ,             Request type
 @XITMREQ.@XITMSO  00 EQ            1990  1          =           FLAG  (@XITMSO,0,EQ)  OR this data into the mask
 @XITMREQ.@XITMSN  01 EQ            2000  1          =           FLAG  (@XITMSN,1,EQ)  AND this data into the mask
 @XITMREQ.@XITMSS  02 EQ            2010  1          =           FLAG  (@XITMSS,2,EQ)  Store this data into the mask
 000005                00005 00005  2020             =         END   ,
-                                   2030             =*
                                    2031             =* Definition of the types of exits
                                    2032             =*
0                                   2034             =XITTPI   EQU    0          * Program interrupt
                                    2035             =XITTSVC  EQU    1          * Supervisor Call
                                    2036             =XITTRTC  EQU    2            Real time clock expiration
                                    2037             =XITTCTC  EQU    3            CPU time clock expiration
                                    2038             =XITTPER  EQU    4            Program Event
                                    2039             =XITTMON  EQU    5            Monitor Call
                                    2040             =XITTLGO  EQU    6            Logoff
                                    2041             =XITTR07  EQU    7            -- reserved --
1IOSUPER  (IOSU00) (09:41) (22MAR04) IOSUPER - Interface parameters for external modules                                    Page   13
0Loc    Object Code    Addr1 Addr2  Stmt Lv Lineno    Source Statement           (Hibal 5, Asmedit 3.3)  HLASM R4.0  2004/03/22 09.41
+___    ______ ____    _____ _____  ____ __ ______    ______ _________
0                                   2042             =XITTATTN EQU    8            Attention
                                    2043             =XITTIOCN EQU    9            I/O Completed normally
                                    2044             =XITTIOCA EQU   10            I/O Completed abnormally
-                                   2046             =*
                                    2047             =* Definition of the exit mask
                                    2048             =*
0000000                00000 00004  2050             =XITMSKD  RECORD BEGIN
                                    2058  1          =
 000000 00                          2059  1          =MITMK1     FLAG  ,             First byte of the mask
 MITMK1.XITMPI     80 ONES          2063  1          =           FLAG  XITMPI          Program interrupt
 MITMK1.XITMSVC    40 ONES          2068  1          =           FLAG  XITMSVC         Supervisor Call
 MITMK1.XITMRTC    20 ONES          2073  1          =           FLAG  XITMRTC         Real time clock expiration
 MITMK1.XITMCTC    10 ONES          2078  1          =           FLAG  XITMCTC         CPU time clock expiration
 MITMK1.XITMPER    08 ONES          2083  1          =           FLAG  XITMPER         Program Event
 MITMK1.XITMMON    04 ONES          2088  1          =           FLAG  XITMMON         Monitor Call
 MITMK1.XITMLGO    02 ONES          2093  1          =           FLAG  XITMLGO         Logoff
 MITMK1.XITMR07    01 ONES          2098  1          =           FLAG  XITMR07         -- reserved --
                                    2103  1          =
 000001 00                          2104  1          =MITMK2     FLAG  ,             Second byte of the mask
 MITMK2.XITMATTN   80 ONES          2108  1          =           FLAG  XITMATTN        Attention
 MITMK2.XITMIOCN   40 ONES          2113  1          =           FLAG  XITMIOCN        I/O Completed normally
 MITMK2.XITMIOCA   20 ONES          2118  1          =           FLAG  XITMIOCA        I/O Completed abnormally
                                    2123  1          =
 000002 00                          2124  1          =MITMK3     FLAG  ,             Third byte of the mask
                                    2128  1          =
 000003 00                          2129  1          =MITMK4     FLAG  ,             Fourth byte of the mask
 000004                00004 00004  2133             =         END   ,
-                                   2143             =*
                                    2144             =* Definition of Exit routine entry data area
                                    2145             =*
0000000                00000 00004  2147             =@XITDATA RECORD BEGIN
 000000                             2155  1          =@XITDSA    DS    A             Pointer to XITSAREA (exit status area)
 000004                00004 00004  2156             =         END   ,
-                                   2166             =*
                                    2167             =* Definition of the Exit Status area
                                    2168             =*
0000000                00000 0001C  2170             =XITSAREA RECORD BEGIN
 000000                             2178  1          =XITSRPRM   DS    A             Parm value for the Routine
 000004                             2179  1          =XITSTYPE   DS    X             Type of the exit
 000008                             2180  1          =XITSQUAL   DS    A             Exit Qualifier
 00000C                             2181  1          =XITSXPRM   DS    XL16          Exit parameter area
 00001C                0001C 0001C  2182             =         END   ,
1IOSUPER  (IOSU00) (09:41) (22MAR04) IOSUPER - Interface parameters for external modules                                    Page   14
0Loc    Object Code    Addr1 Addr2  Stmt Lv Lineno    Source Statement           (Hibal 5, Asmedit 3.3)  HLASM R4.0  2004/03/22 09.41
+___    ______ ____    _____ _____  ____ __ ______    ______ _________
0                                   2192      27.              COPY  PAGEPARM                Page services parameters
                                    2193             =*
                                    2194             =*  Page fault return codes
                                    2195             =*
                                    2196             =@PFRINP  EQU   0                       Fault in progress
                                    2197             =@PFRADDR EQU   4                       Addressing exception
                                    2198             =@PFROK   EQU   8                       Fault resolved
                                    2199             =@PFRWAIT EQU   12                      Must wait for some resource
0000000                00000 00005  2201             =@PAGSWAP RECORD BEGIN
 000000                             2209  1          =@SWASB     DS    A                       Address of ASB being swapped
                                    2210  1          =* -- Return parameters --
 000004 00                          2211  1          =@SWFLG     FLAG  ,
 @SWFLG.@SWFINP    00 EQ            2215  1          =           FLAG  (@SWFINP,0,EQ)          Swap in progress
 @SWFLG.@SWFOK     04 EQ            2225  1          =           FLAG  (@SWFOK,4,EQ)           Swap done now
 @SWFLG.@SWFWAIT   08 EQ            2235  1          =           FLAG  (@SWFWAIT,8,EQ)         Must wait for some resource
 000005                00005 00005  2245             =         END   ,
0000000                00000 00004  2255             =@PAGSWADV RECORD BEGIN                 Give swap advice
 000000                             2263  1          =@ADVASB    DS    A                       ASB of advice
 000004                00004 00004  2264             =         END   ,
0000000                00000 0000D  2274             =@PAGWSMA RECORD BEGIN                  Working Set management
 000000                             2282  1          =@WSASB     DS    A                       ASB of AS to be managed
 000004                             2283  1          =@WSINT     DS    A                       Number of elapsed intervals
 000008                             2284  1          =@WSLIMIT   DS    A                       Maximum number of frames
 00000C 00                          2285  1          =@WSFLG     FLAG  ,
 @WSFLG.@WSFGLOB   80 ONES          2289  1          =           FLAG  @WSFGLOB                Manage Global AS
 00000D                0000D 0000D  2294             =         END   ,
0000000                00000 0000A  2304             =@PAGDEF  RECORD BEGIN                  Define a page
 000000                             2312  1          =@PDADDR    DS    A                       Page VA
 000004                             2313  1          =@PDLEN     DS    A                       Length of definition (bytes)
 000008                             2314  1          =@PDKEY     DS    X                       Storage key (+ key protect)
                                    2315  1          =* @PDHASH  DS    X                       Hash value for page
 000009 00                          2316  1          =@PDF1      FLAG  @PDFGLOB                In global memory
 @PDF1.@PDFGLOB    80 ONES
 @PDF1.@PDFPROT    40 ONES          2322  1          =           FLAG  @PDFPROT                Page table protection
 00000A                0000A 0000A  2327             =         END   ,
0000000                00000 0000A  2337             =@PAGSEGD RECORD BEGIN                  Define a segment
 000000                             2345  1          =@SDADDR    DS    A                       Segment address
 000004                             2346  1          =@SDLEN     DS    A                       Length of definition (bytes)
 000008                             2347  1          =@SDHASH    DS    X                       Hash value for segment
 000009 00                          2348  1          =@SDF1      FLAG  @SDFGLOB                In global memory
 @SDF1.@SDFGLOB    80 ONES
 00000A                0000A 0000A  2354             =         END   ,
0000000                00000 00008  2364             =@PAGASC1 RECORD BEGIN
 000000                             2372  1          =@ASCASB    DS    A                       ASB for AS being created
 000004                             2373  1          =@ASCWSLM   DS    A                       Maximum size of working set
 000008                00008 00008  2374             =         END   ,
0000000                00000 00005  2384             =@PAGASC2 RECORD BEGIN                  Address space creation
 000000                             2392  1          =@ASCVA     DS    A                       Virtual address of 1st PT
 000004                             2393  1          =@ASCKEY    DS    X                       Storage key (+ key protect)
1IOSUPER  (IOSU00) (09:41) (22MAR04) IOSUPER - Interface parameters for external modules                                    Page   15
0Loc    Object Code    Addr1 Addr2  Stmt Lv Lineno    Source Statement           (Hibal 5, Asmedit 3.3)  HLASM R4.0  2004/03/22 09.41
+___    ______ ____    _____ _____  ____ __ ______    ______ _________
0000005                00005 00005  2394             =         END   ,
0000000                00000 00009  2404             =@PAGE    RECORD BEGIN                  General paging routine parms
 000000                             2412  1          =@PAGLOC    DS    A                       Virtual address
 000004                             2413  1          =@PAGLEN    DS    A                       Length (in bytes)
 000008                             2414  1          =@PAGKEY    DS    X                       Key - where required
                                    2415  1          =@PAGHASH   EQU   @PAGKEY                 Hash - where required
 000009                00009 00009  2416             =         END   ,
0000000                00000 00008  2426             =@PAGRV   RECORD BEGIN                  Real to virtual translation
 000000                             2434  1          =@PAGRVAD   DS    A                       Real addr to be translated
                                    2435  1          =* -- Return parms --
 000004                             2436  1          =@PAGRVASB   DS   A                       Address space block
 000008                00008 00008  2437             =         END   ,
0000000                00000 00004  2447             =@PAGINTV RECORD BEGIN                  Paging management interval
 000000                             2455  1          =@PAGINT    DS    A                       Number of intervals in cycle
 000004                00004 00004  2456             =         END   ,
0000000                00000 00008  2466             =@PAGINIT RECORD BEGIN                  Global initialization
 000000                             2474  1          =@PAGIASB   DS    A                       Global ASB address
 000004                             2475  1          =@PAGIMEG   DS    A                       Maximum number of bytes in VA
 000008                00008 00008  2476             =         END   ,
1IOSUPER  (IOSU00) (09:41) (22MAR04) IOSUPER - Interface parameters for external modules                                    Page   16
0Loc    Object Code    Addr1 Addr2  Stmt Lv Lineno    Source Statement           (Hibal 5, Asmedit 3.3)  HLASM R4.0  2004/03/22 09.41
+___    ______ ____    _____ _____  ____ __ ______    ______ _________
0                                   2486      29.              COPY  VMPARM                  Virtual memory parameters
                                    2487             =*******************************************************************
                                    2488             =*                                                                 *
                                    2489             =*    Memory parms for inside the virtual machine.                 *
                                    2490             =*                                                                 *
                                    2491             =*******************************************************************
-000000                00000 0000B  2493             =@VMGET   RECORD BEGIN        Parm area for getting virtual memory
 000000                             2501  1          =@VMGLEN    DS    A             Amount of memory needed
 000004                             2502  1          =@VMGDAT    DS    A             More data. Address or maxlen.
 000008                             2503  1          =@VMGPOOL   DS    H             Pool/Subpool to get the memory from
 00000A 00                          2504  1          =@VMGFLG    FLAG  ,
 @VMGFLG.@VMGPAGE  80 ONES          2508  1          =           FLAG  @VMGPAGE      Page Aligned
 @VMGFLG.@VMGONEP  40 ONES          2513  1          =           FLAG  @VMGONEP      Don't cross page boundary
 00000B                0000B 0000B  2518             =         END   ,
-000000                00000 0000A  2528             =@VMFREE  RECORD BEGIN        Used for VMFREE and VMCHECK
 000000                             2536  1          =@VMFLOC    DS    A             Location of the storage to free
 000004                             2537  1          =@VMFLEN    DS    A             Amount to free
 000008                             2538  1          =@VMFPOOL   DS    H             Pool/Subpool where the storage lives
 00000A                0000A 0000A  2539             =         END   ,
-000000                00000 00009  2549             =@VMINFO  RECORD BEGIN        Returns User address limits/hash val
 000000                             2557  1          =@VMIUST    DS    A             Start of the user address space
 000004                             2558  1          =@VMIULEN   DS    A             Length of the user address space
 000008                             2559  1          =@VMITRSH   DS    X             Trash value
 000009                00009 00009  2560             =         END   ,
1IOSUPER  (IOSU00) (09:41) (22MAR04) IOSUPER - Interface parameters for external modules                                    Page   17
0Loc    Object Code    Addr1 Addr2  Stmt Lv Lineno    Source Statement           (Hibal 5, Asmedit 3.3)  HLASM R4.0  2004/03/22 09.41
+___    ______ ____    _____ _____  ____ __ ______    ______ _________
0                                   2570      31.              COPY  LOCKPARM                Lock manager parameters
                                    2571             =*******************************************************************
                                    2572             =*                                                                 *
                                    2573             =*    LOCKPARM - Lock routine calling parms                        *
                                    2574             =*                                                                 *
                                    2575             =*******************************************************************
0000000                00000 00011  2577             =@LOCKCRE RECORD BEGIN
 000000                             2585  1          =@LOCKNAM   DS    CL16          Name of the lock
 000010 00                          2586  1          =@LOCKFL    FLAG  ,
 @LOCKFL.@LFSPIN   80 ONES          2590  1          =           FLAG  @LFSPIN       Spin type lock
 000011                00011 00011  2595             =         END   ,
                                    2604             =*
 000000                00000 00004  2605             =@LOCKS   RECORD BEGIN
 000000                             2613  1          =@LOCKID    DS    A             Lock id
 000004                00004 00004  2614             =         END   ,
1IOSUPER  (IOSU00) (09:41) (22MAR04) IOSUPER - Interface parameters for external modules                                    Page   18
0Loc    Object Code    Addr1 Addr2  Stmt Lv Lineno    Source Statement           (Hibal 5, Asmedit 3.3)  HLASM R4.0  2004/03/22 09.41
+___    ______ ____    _____ _____  ____ __ ______    ______ _________
0                                   2624      33.              COPY  LISTPARM                List manager parameters
                                    2625             =*   A list header block is used to control access to a chain
                                    2626             =* of resources.  All elements which are to be linked together on
                                    2627             =* these doubly linked circular lists must have the elements
                                    2628             =* first word be space for a forward list pointer, and the second
                                    2629             =* word space for a backward list pointer.
 000000                00000 0000C  2630             =LHEAD    RECORD BEGIN                  List descriptor
                                    2638  1          =           LHEAD PFX=LH
 000000                             2639  1 01-LHEAD +LHFP       DS    A                       Forward pointer
 000004                             2640  1 01-LHEAD +LHBP       DS    A                       Backward pointer
 000008                             2641  1 01-LHEAD +LHCNT      DS    A                       Number of elements in list
 00000C                0000C 0000C  2642             =         END   ,
0000000                00000 00008  2652             =LELEM    RECORD BEGIN                  Common start of list items
                                    2660  1          =           LELEM PFX=L
 000000                             2661  1 01-LELEM +LFP        DS    A                       Forward pointer
 000004                             2662  1 01-LELEM +LBP        DS    A                       Backward pointer
 000008                00008 00008  2663             =         END   ,
0000000                00000 00010  2673             =@LADD    RECORD BEGIN                  Add items to a list
 000000                             2681  1          =@LAHEAD    DS    A                       Header block of list
 000004                             2682  1          =@LA1ST     DS    A                       First item being added
 000008                             2683  1          =@LALAST    DS    A                       Last item being added
 00000C                             2684  1          =@LACNT     DS    A                       Number of items being added
 000010                00010 00010  2685             =         END   ,
0000000                00000 00010  2695             =@LREM    RECORD BEGIN                  Remove items from a list
 000000                             2703  1          =@LRHEAD    DS    A                       Header block of list
 000004                             2704  1          =@LR1ST     DS    A                       First item being removed
 000008                             2705  1          =@LRCNT     DS    A                       Number of items being removed
                                    2706  1          =* -- Return Parms --
 00000C                             2707  1          =@LRLAST    DS    A                       Last item removed
 000010                00010 00010  2708             =         END   ,
1IOSUPER  (IOSU00) (09:41) (22MAR04) IOSUPER - Interface parameters for external modules                                    Page   19
0Loc    Object Code    Addr1 Addr2  Stmt Lv Lineno    Source Statement           (Hibal 5, Asmedit 3.3)  HLASM R4.0  2004/03/22 09.41
+___    ______ ____    _____ _____  ____ __ ______    ______ _________
0                                   2718      35.              COPY  LSTMAC                  List manager macros
                                    2719             =         PRINT OFF
                                    2763             =*********************************************************************
                                    2764             =*   Add elements to a list
                                    2765             =*
                                    2766             =*   Input
                                    2767             =*
                                    2768             =* &L  LADD     &HEAD,&FIRST,&FLAST,&FCOUNT,&WR=,&WR2=RAR,&WR3=EPAR
                                    2769             =*     &HEAD    is a pointer the head of the list (defop = LA)
                                    2770             =*     &FIRST   first element to be added to the list
                                    2771             =*     &FLAST   last element to be added (if not specified, assuming
                                    2772             =*              only one)
                                    2773             =*     &FCOUNT  count of elements being added (shouldn't be specified
                                    2774             =*              for only one add)
                                    2775             =*     &WR
                                    2776             =*     &WR2     Registers for scratch
                                    2777             =*     &WR3
                                    2778             =*
                                    2779             =*   Output
                                    2780             =*
                                    2781             =*     No parameter registers are modified
                                    2782             =*
                                    2783             =*********************************************************************
                                    2784             =         PRINT OFF
-
0                                   2879             =*********************************************************************
                                    2880             =*   Remove elements from a list
                                    2881             =*
                                    2882             =*   Input
                                    2883             =*
                                    2884             =* &L  LREM     &HEAD,&FFIRST,&FCOUNT,&LAST=,&WR=,&WR2=RAR,&WR3=EPAR
                                    2885             =*
                                    2886             =*     &HEAD    is a pointer the head of the list (defop = LA)
                                    2887             =*     &FFIRST  first element to be removed from the list (if not
                                    2888             =*              specified then take the first on the list)
                                    2889             =*     &LAST    last element removed (must be specified for multiple
                                    2890             =*              removes, must not be specified for single remove)
                                    2891             =*     &FCOUNT  count of elements to be removed (shouldn't be
                                    2892             =*              specified for single remove)
                                    2893             =*     &WR
                                    2894             =*     &WR2     Registers for scratch
                                    2895             =*     &WR3
                                    2896             =*
                                    2897             =*   Output
                                    2898             =*
                                    2899             =*     RVR      contains the address of the first element on the list
                                    2900             =*     No parameter registers are modified
                                    2901             =*
                                    2902             =*********************************************************************
                                    2903             =         PRINT OFF
-
1IOSUPER  (IOSU00) (09:41) (22MAR04) IOSUPER - Interface parameters for external modules                                    Page   20
0Loc    Object Code    Addr1 Addr2  Stmt Lv Lineno    Source Statement           (Hibal 5, Asmedit 3.3)  HLASM R4.0  2004/03/22 09.41
+___    ______ ____    _____ _____  ____ __ ______    ______ _________
0                                   3045             =*********************************************************************
                                    3046             =*   Remove all elements from a list
                                    3047             =*
                                    3048             =*   Input
                                    3049             =*
                                    3050             =* &L  LREMALL  &HEAD,&COUNT=,&LAST=,&WR=
                                    3051             =*
                                    3052             =*     &HEAD    is a pointer the head of the list (defop = LA)
                                    3053             =*     &LAST    returns last element removed (must be specified)
                                    3054             =*     &COUNT   returns count of elements in list
                                    3055             =*
                                    3056             =*     &WR      Register for scratch
                                    3057             =*
                                    3058             =*   Output
                                    3059             =*
                                    3060             =*     RVR      contains the address of the first element on the list
                                    3061             =*
                                    3062             =*     No parameter registers are modified
                                    3063             =*
                                    3064             =*********************************************************************
                                    3065             =         PRINT OFF
1IOSUPER  (IOSU00) (09:41) (22MAR04) IOSUPER - Interface parameters for external modules                                    Page   21
0Loc    Object Code    Addr1 Addr2  Stmt Lv Lineno    Source Statement           (Hibal 5, Asmedit 3.3)  HLASM R4.0  2004/03/22 09.41
+___    ______ ____    _____ _____  ____ __ ______    ______ _________
0                                   3152             =*********************************************************************
                                    3153             =*   Move an element to the end of a list
                                    3154             =*
                                    3155             =*   Input
                                    3156             =*
                                    3157             =* &L  LLRU     &HEAD,&ELEM,&WR=,&WR2=RAR,&WR3=EPAR
                                    3158             =*
                                    3159             =*     &HEAD    is a pointer the head of the list (defop = LA)
                                    3160             =*     &ELEM    element to be put at the end of the list
                                    3161             =*     &WR
                                    3162             =*     &WR2     Registers for scratch
                                    3163             =*     &WR3
                                    3164             =*
                                    3165             =*   Output
                                    3166             =*
                                    3167             =*     No parameter registers are modified
                                    3168             =*
                                    3169             =*********************************************************************
                                    3170             =         PRINT OFF
0                                   3258             =         MACRO
                                    3259             =         LSTCHK &HEAD
                                    3260             =         MEXIT
                                    3261             =         PSET  @LSTCHK,CLEAR=NO
                                    3262             =        $LA    EPAR,&HEAD
                                    3263             =         ST    EPAR,@LCHEAD
                                    3264             =         ACALL LSTCHK
                                    3265             =         MEND
1IOSUPER  (IOSU00) (09:41) (22MAR04) IOSUPER - Interface parameters for external modules                                    Page   22
0Loc    Object Code    Addr1 Addr2  Stmt Lv Lineno    Source Statement           (Hibal 5, Asmedit 3.3)  HLASM R4.0  2004/03/22 09.41
+___    ______ ____    _____ _____  ____ __ ______    ______ _________
0                                   3267      37.              COPY  IOSPARM                 Common IOS parameters
 000000                00000 0001E  3268             =@IOSDOIO RECORD BEGIN
 000000                             3276  1          =@IOSCHID   DS    A                       Subchannel ID
 000004                             3277  1          =@IOSID     DS    A                       I/O ID
 000008                             3278  1          =@IOSPID    DS    D                       Process ID
 000010                             3279  1          =@IOSCP     DS    A                       Channel program addr (VA)
 000014                             3280  1          =@IOSXID    DS    A                       Exit ID/Fast path rtn addr
 000018                             3281  1          =@IOSXPAR   DS    A                       Ending parameter
 00001C                             3282  1          =@IOSKEY    DS    X                       Key for I/O
 00001D 00                          3283  1          =@IOSF1     FLAG  ,
 @IOSF1.@IOSFSYNC  80 ONES          3287  1          =           FLAG  @IOSFSYNC               Do I/O synchronous
 @IOSF1.@IOSFAS    40 ONES          3292  1          =           FLAG  @IOSFAS                 | do AS waits for this I/O
 @IOSF1.@IOSFAST   20 ONES          3297  1          =           FLAG  @IOSFAST                Fast path I/O
 00001E                0001E 0001E  3302             =         END   ,
-000000                00000 00008  3312             =@IOTERM  RECORD BEGIN                  I/O termination routine parms
 000000                             3320  1          =@IOTPARM   DS    A                       Termination routine parameter
 000004                             3321  1          =@IOTEND    DS    A                       Ending status of operation
 000008                00008 00008  3322             =         END   ,
-000000                00000 00010  3332             =@IOSTIME RECORD BEGIN
 000000                             3340  1          =@IOSTID    DS    A                       I/O ID
 000008                             3341  1          =@IOSIOTIME   DS  D                       Time of this I/O
 000010                00010 00010  3342             =         END   ,
-000000                00000 00001  3352             =@IOSIDGET RECORD BEGIN
 000000 00                          3360  1          =@IOSIDF     FLAG   ,
 @IOSIDF.@IOSFWAIT 80 ONES          3364  1          =            FLAG   @IOSFWAIT             If need be, wait for id
 000001                00001 00001  3369             =          END    ,
-000000                00000 00004  3379             =@IOSIDFRE RECORD BEGIN
 000000                             3387  1          =@IOSFID     DS   A                       ID being freed
 000004                00004 00004  3388             =          END  ,
1IOSUPER  (IOSU00) (09:41) (22MAR04) IOSUPER - Interface parameters for external modules                                    Page   23
0Loc    Object Code    Addr1 Addr2  Stmt Lv Lineno    Source Statement           (Hibal 5, Asmedit 3.3)  HLASM R4.0  2004/03/22 09.41
+___    ______ ____    _____ _____  ____ __ ______    ______ _________
0                                   3398             =         COPY  IORPARM
                                    3399             =*******************************************************************
                                    3400             =*                                                                 *
                                    3401             =*     @IORPARM - ORVYL I/O request parameters                     *
                                    3402             =*                                                                 *
                                    3403             =*******************************************************************
0000000                00000 00014  3405             =@IORB    RECORD BEGIN
 000000                             3413  1          =@IORRQID   DS    A                       Request ID
 000004                             3414  1          =@IOROFF    DS    A                       Offset (guest real to MVS)
 000008                             3415  1          =@IORPARM   DS    A                       Pointer to user parm list
 00000C                             3416  1          =@IORSCH    DS    A                       Subchannel (device ID)
 000010                             3417  1          =@IORKEY    DS    X                       Channel program protect key
 000011                             3418  1          =@IORCC     DS    X                       Condition code (returned)
 000012                             3419  1          =           DS    2X                      Reserved
 000014                00014 00014  3420             =         END   ,
-
                                    3430             =*******************************************************************
                                    3431             =*                                                                 *
                                    3432             =*     @IOUPARM - I/O Device id allocate request parameters        *
                                    3433             =*                                                                 *
                                    3434             =*******************************************************************
0000000                00000 00004  3436             =@IOUPARM RECORD BEGIN
 000000                             3444  1          =@IOUDEVT   DS    A
                                    3445  1          =*
                                    3446  1          =*  Device types
                                    3447  1          =*
                                    3448  1          =#IOUPAGE   EQU   4                       | paging
                                    3449  1          =#IOUSWAP   EQU   8                       | swap
                                    3450  1          =#IOUFILE   EQU   12                      | file
                                    3451  1          =#IOUSCOM   EQU   16                      | path
                                    3452  1          =#IOUJES    EQU   20                      | JES
                                    3453  1          =#IOUHSP    EQU   24                      | Standard hiperspace
                                    3454  1          =#IOUESO    EQU   28                      | Cached hiperspace
 000004                00004 00004  3455             =         END   ,
0                                   3465      39.              COPY  IOSIPARM                Init parms
 000000                00000 00004  3466             =@IOSASC  RECORD BEGIN                  Address space init
 000000                             3474  1          =@IOASCAS   DS    A                       ASB for this addr space
 000004                00004 00004  3475             =         END   ,
1IOSUPER  (IOSU00) (09:41) (22MAR04) IOSUPER - Global DSECTs                                                                Page   24
0Loc    Object Code    Addr1 Addr2  Stmt Lv Lineno    Source Statement           (Hibal 5, Asmedit 3.3)  HLASM R4.0  2004/03/22 09.41
+___    ______ ____    _____ _____  ____ __ ______    ______ _________
0                                   3486      42.              COPY  MAT                     Master Address Table
                                    3487             =*****************************************************************
                                    3488             =*                                                               *
                                    3489             =*        *** M A S T E R   A D D R E S S   T A B L E ***        *
                                    3490             =*                                                               *
                                    3491             =*****************************************************************
-000000                00000 00100  3493             =MAT      RECORD BEGIN
                                    3501  1          =MATPTR     EQU   X'200',4,C'A' Address of the MAT in PZERO
 000000 D4C1E340                    3502  1          =           DC    CL4'MAT'      Control block ID
                                    3503  1          =*
                                    3504  1          =* Addresses of global control blocks
                                    3505  1          =*
 000004                             3506  1          =MATVMCB    DS    A             Virtual memory control block
 000008                             3507  1          =MATDCT     DS    A             Dispatcher control table
 00000C                             3508  1          =MATPAGCB   DS    A             Real memory control block
 000010                             3509  1          =MATM1CT    DS    A             CT for Mode 1 users
 000014                             3510  1          =MATLCT     DS    A             Lock manager control table
 000018                             3511  1          =MATQCT     DS    A             Queue manager control table
 00001C                             3512  1          =MATIOCB    DS    A             I/O Manager control block
 000020                             3513  1          =MATSBWB    DS    A             System buffer wait blocks
 000024                             3514  1          =MATGTCT    DS    A             Terminal global control table
 000028                             3515  1          =MATFILCB   DS    A             File master control table
 00002C                             3516  1          =MATJESCB   DS    A             JES master control table
 000030                             3517  1          =MATSYSCB   DS    A             System task control table
 000034                             3518  1          =MATACCT    DS    A             Accounting control table
 000038                             3519  1          =MATGRCT    DS    A             General Resource control table
 00003C                             3520  1          =MATGNCT    DS    A             Global Network Control table
 000040                             3521  1          =MATTECB    DS    D             Termination wait ECB
 000048                             3522  1          =           DS    25A           Reserved
                                    3523  1          =*
                                    3524  1          =* Control Block Chains
                                    3525  1          =*
 0000AC                             3526  1          =MATASBS    DS    A             Pointer to chain of ASBs
 0000B0                             3527  1          =MATASBL    DS    A             Id of suspend lock for ASB chain
 0000B4                             3528  1          =           DS    8A            **  RESERVED
                                    3529  1          =*
                                    3530  1          =* Control information
                                    3531  1          =*
 0000D4                             3532  1          =MATSNAME   DS    CL8           System Name
 0000DC                             3533  1          =MATPAGFN   DS    A             Current value of the Paging function
 0000E0                             3534  1          =MATSKEY    DS    X             SYSTEM storage key (in high 4 bits)
 0000E1                             3535  1          =MATUKEY    DS    X             USER storage key
                                    3536= 1          =
                                    3537= 1          =             Information about the Kernel
                                    3538= 1          =
 0000E4                             3539  1          =MATKSTRT   DS    A             Starting address of the Kernel
 0000E8                             3540  1          =MATKMAP    DS    A             Address of the Kernel map
 0000EC                             3541  1          =MATKMAPL   DS    A             Length of the Kernel map
                                    3542= 1          =
                                    3543= 1          =             Failsoft information.
                                    3544= 1          =
 0000F0                             3545  1          =MATNCLPE   DS    F             Number of CLP errors
 0000F4                             3546  1          =MATNFAIL   DS    F             Number of failsofts
 0000F8                             3547  1          =           DS    2A            Reserved
1IOSUPER  (IOSU00) (09:41) (22MAR04) IOSUPER - Global DSECTs                                                                Page   25
0Loc    Object Code    Addr1 Addr2  Stmt Lv Lineno    Source Statement           (Hibal 5, Asmedit 3.3)  HLASM R4.0  2004/03/22 09.41
+___    ______ ____    _____ _____  ____ __ ______    ______ _________
0000100                00100 00100  3548             =         END
1IOSUPER  (IOSU00) (09:41) (22MAR04) IOSUPER - Global DSECTs                                                                Page   26
0Loc    Object Code    Addr1 Addr2  Stmt Lv Lineno    Source Statement           (Hibal 5, Asmedit 3.3)  HLASM R4.0  2004/03/22 09.41
+___    ______ ____    _____ _____  ____ __ ______    ______ _________
0                                   3558      44.              COPY  PZERO                   Page Zero
 000000                00000 00280  3559             =PZERO    RECORD BEGIN
                                    3567  1          =*
                                    3568  1          =* Real Page 0.  Each CPU has its own copy of this area.
                                    3569  1          =*
-                                   3571  1          =****************************************************************
                                    3572  1          =*               Fields Fixed by the Architecture               *
                                    3573  1          =*               ********************************               *
                                    3574  1          =*                                                              *
 000000                             3575  1          =PZRSNPSW   DS    D             Restart new PSW                 *
 000008                             3576  1          =PZRSOPSW   DS    D             Restart old PSW                 *
 000010                             3577  1          =           DS    D                                             *
 000018                             3578  1          =PZEXOPSW   DS    D             External old PSW                *
 000020                             3579  1          =PZSVOPSW   DS    D             Supervisor old PSW              *
 000028                             3580  1          =PZPIOPSW   DS    D             Program old PSW                 *
 000030                             3581  1          =PZMCOPSW   DS    D             Machine check old PSW           *
 000038                             3582  1          =PZIOOPSW   DS    D             I/O old PSW                     *
 000040                             3583  1          =           DS    3D                                            *
 000058                             3584  1          =PZEXNPSW   DS    D             External new PSW                *
 000060                             3585  1          =PZSVNPSW   DS    D             Supervisor new PSW              *
 000068                             3586  1          =PZPINPSW   DS    D             Program new PSW                 *
 000070                             3587  1          =PZMCNPSW   DS    D             Machine check new PSW           *
 000078                             3588  1          =PZIONPSW   DS    D             I/O new PSW                     *
 000080                             3589  1          =           DS    F                                             *
 000084                             3590  1          =PZEXCPU    DS    H             CPU address for EXT int         *
 000086                             3591  1          =PZEXIC     DS    H             External interrupt code         *
 000088                             3592  1          =PZSVILC    DS    H             Supervisor call ILC             *
 00008A                             3593  1          =PZSVIC     DS    H             Supervisor interrupt code       *
 00008C                             3594  1          =PZPIILC    DS    H             Program ILC                     *
 00008E                             3595  1          =PZPIIC     DS    H             Program interrupt code          *
 000090                             3596  1          =PZTREXA    DS    A             Translation exception address   *
 000094                             3597  1          =PZMONCL    DS    H             Monitor Class number            *
 000096                             3598  1          =PZPERCD    DS    H             PER code                        *
 000098                             3599  1          =PZPERA     DS    A             PER Address                     *
 00009C                             3600  1          =PZMONCD    DS    A             Monitor Code                    *
 0000A0                             3601  1          =           DS    3D                                            *
 0000B8                             3602  1          =PZIOSID    DS    A             I/O subsystem ID word           *
 0000BC                             3603  1          =PZIOPRM    DS    A             I/O Parameter                   *
 0000C0                             3604  1          =PZIOSCS    DS    A             I/O subchannel ending status    *
 0000C4                             3605  1          =           DS    A                                             *
 0000C8                             3606  1          =           DS    39D                                           *
                                    3607  1          =*                                                              *
                                    3608  1          =*            ***************************************           *
                                    3609  1          =*            End of Fields fixed by the architecture           *
                                    3610  1          =****************************************************************
1IOSUPER  (IOSU00) (09:41) (22MAR04) IOSUPER - Global DSECTs                                                                Page   27
0D-Loc  Object Code    Addr1 Addr2  Stmt Lv Lineno    Source Statement           (Hibal 5, Asmedit 3.3)  HLASM R4.0  2004/03/22 09.41
+_____  ______ ____    _____ _____  ____ __ ______    ______ _________
0                                   3612  1          =*
                                    3613  1          =* Fields of general interest
                                    3614  1          =*
 000200                             3615  1          =PZMATP     DS    A             Address of the MAT
 000204                             3616  1          =           DS    A             ** Reserved **
 000208                             3617  1          =PZCURPID   DS    0D            Unique ID of the current process
 000208                             3618  1          =PZCURASB   DS    A             Addr of ASB for current Address space
 00020C                             3619  1          =PZCURTSK   DS    A             ID of current task in the Address space
 000210                             3620  1          =PZLCPUA    DS    A             Logical CPU address
 000214                             3621  1          =PZCPUMSK   DS    A             CPU address mask bit
 000218                             3622  1          =PZPSWM     DS    X             PSW mask for disabling
 000219                             3623  1          =           DS    X             ** Reserved **
                                    3624  1          =*
                                    3625  1          =* Termination/Trace information
                                    3626  1          =*
 00021A 00                          3627  1          =PZTERMFL   FLAG  ,             Termination flags
 PZTERMFL.PZABORT  80 ONES          3631  1          =           FLAG  PZABORT         ABORT macro issued
 PZTERMFL.PZATERM  40 ONES          3636  1          =           FLAG  PZATERM         Start termination processing
 00021B                             3641  1          =PZABSM     DS    X             Save area for system mask in ABORT
 00021C                             3642  1          =PZABR15    DS    A             Save area for R15 in an ABORT
 000220                             3643  1          =PZTZOFF    DS    D             Time zone offset
 000228                             3644  1          =           DS    22A           ** Reserved **
                                    3645  1          =*         DS    24A           ** Reserved **
 000280                00280 00280  3646             =         END   ,
1IOSUPER  (IOSU00) (09:41) (22MAR04) IOSUPER - Global DSECTs                                                                Page   28
0Loc    Object Code    Addr1 Addr2  Stmt Lv Lineno    Source Statement           (Hibal 5, Asmedit 3.3)  HLASM R4.0  2004/03/22 09.41
+___    ______ ____    _____ _____  ____ __ ______    ______ _________
0                                   3656      46.              COPY  ASB                     Address space block
 000000                00000 00044  3657             =ASB      RECORD BEGIN
 000000 C1E2C240                    3665  1          =ASBID      DC    CL4'ASB'
 000004                             3666  1          =ASBNEXT    DS    A                       Next ASB in system
                                    3667  1          =*
                                    3668  1          =*  Load Address Space Parameters area
                                    3669  1          =*
 000008                             3670  1          =ASBLASP    DS    0D                      Load Addr Space Parms
 000008                             3671  1          =ASBPKM     DS    H                       Program Key Mask
 00000A                             3672  1          =ASBSASN    DS    H                       Secondary ASN
 00000C                             3673  1          =ASBAX      DS    H                       Authorization index
 00000E                             3674  1          =ASBPASN    DS    H                       Primary ASN
                                    3675  1          =ASBLPARM   EQU   3                       LASP parameter
                                    3676  1          =
 000010                             3677  1          =ASBSASB    DS    A                       Address of secondary ASB
 000014 00                          3678  1          =ASBGCFLG   FLAG  ,
 ASBGCFLG.ASBFGBLC 80 ONES          3682  1          =           FLAG  ASBFGBLC                This is ASB for global/common
 000015                             3687  1          =           DS    3X                      - Available -
                                    3688  1          =*
                                    3689  1          =*  Related control blocks
                                    3690  1          =*
 000018                             3691  1          =ASBVSCT    DS    A                       VSCT for the Address space
 00001C                             3692  1          =ASBASDB    DS    A                       AS dispatching block
 000020                             3693  1          =ASBPAGB    DS    A                       AS paging block
 000024                             3694  1          =ASBIOB     DS    A                       AS I/O block
 000028                             3695  1          =ASBENQ     DS    A                       AS Enqueue table
 00002C                             3696  1          =ASBM1SCP   DS    A                       Mode 1 SCP
 000030                             3697  1          =ASBTCCB    DS    A                       Terminal Control block
 000034                             3698  1          =ASBAIB     DS    A                       Accouting information
 000038                             3699  1          =ASBASFB    DS    A                       File services control block
 00003C                             3700  1          =ASBMSTR    DS    A                       AS Master Control block
 000040                             3701  1          =ASBNET     DS    A                       Local Network Control Block
                                    3702  1          =*ASBLW    DS    A     ** Temp RESMAN ** Lock waiting for
                                    3703  1          =*ASBLH    DS    A     ** Temp RESMAN ** Lock held
 000044                00044 00044  3704             =         END   ,
1IOSUPER  (IOSU00) (09:41) (22MAR04) IOSUPER - Local DSECTs                                                                 Page   29
0Loc    Object Code    Addr1 Addr2  Stmt Lv Lineno    Source Statement           (Hibal 5, Asmedit 3.3)  HLASM R4.0  2004/03/22 09.41
+___    ______ ____    _____ _____  ____ __ ______    ______ _________
0000000                00000 00040  3714      48.     IOSRB    RECORD BEGIN        Extended request block
 000000 C9D6D9C2                    3722  1   48.1    IRBID      DC    CL4'IORB'
 000004                             3723  1   49.     IRBPFP     DS    A             Forward pointer
 000008                             3724  1   52.     IRBPID     DS    0D            Process ID
 000008                             3725  1   53.     IRBASB     DS    A             | ASB of I/O
 00000C                             3726  1   54.     IRBTSK     DS    A             | Task ID of I/O
 000010                             3727  1   55.     IRBECB     DS    D             ECB for this I/O -
                                    3728  1   56.     IRBESTAT   EQU   IRBECB+4,4    | post code
                                    3729  1   57.     *
                                    3730  1   58.     * --- ORB ---
                                    3731  1   59.     IRBORB     EQU   *,12          - Hardware ORB -
 000018                             3732  1   60.     IRBPARM    DS    A             I/O Parm
 00001C                             3733  1   61.     IRBKEY     DS    X             Key of IO program
 00001D                             3734  1   62.                DS    3X            - Reserved -
 000020                             3735  1   63.     IRBPGM     DS    A             I/O Program
                                    3736  1   64.     * --- ORB ---
                                    3737  1   65.     *
 000024                             3738  1   65.01   IRBSSID    DS    A             Device ID - Sub Sys ID
 000028                             3739  1   65.11   IRBTIME    DS    D             Time of I/O (TOD units)
 000030 00                          3740  1   65.87   IRBF1      FLAG  ,
 IRBF1.IRBFSYNC    80 ONES          3744  1   65.88              FLAG  IRBFSYNC      Synchronous I/O
 IRBF1.IRBFAS      40 ONES          3749  1   65.89              FLAG  IRBFAS        | do AS wait if doing wait
 IRBF1.IRBFDISP    20 ONES          3754  1   65.9               FLAG  IRBFDISP      I/O Termination from dispatcher stack
 IRBF1.IRBFHALT    10 ONES          3759  1   65.91              FLAG  IRBFHALT      Halt done on operation
                                    3764  1   65.92
 000031                             3765  1   65.93   IRBPSWM    DS    X             PSW mask for disabled windows
                                    3766  1   65.94
 000032 00                          3767  1   65.95   IRBF2      FLAG  ,
 IRBF2.IRBFIO      80 ONES          3771  1   65.96              FLAG  IRBFIO        I/O in progress
 000033                             3776  1   65.97              DS    X             - Available -
                                    3777  1   65.99
 000034                             3778  1   66.     IRBSRID    DS    A             System routine ID for posting
 000038                             3779  1   67.     IRBEXIT    DS    A             Exit ID/Routine addr for direct call
 00003C                             3780  1   68.     IRBXPARM   DS    A             Exit routine parameter
 000040                             3781  1   78.     IRBX       DS    0D
 000040                00040 00040  3782      79.              END   ,
1IOSUPER  (IOSU00) (09:41) (22MAR04) IOSUPER - Local DSECTs                                                                 Page   30
0Loc    Object Code    Addr1 Addr2  Stmt Lv Lineno    Source Statement           (Hibal 5, Asmedit 3.3)  HLASM R4.0  2004/03/22 09.41
+___    ______ ____    _____ _____  ____ __ ______    ______ _________
0                                   3792      81.     *        COPY  ASBIOCB                 I/O extension of ASB
 000000                00000 00014  3793      82.     ASBIOCB  RECORD BEGIN
                                    3801  1   83.     AIOWAIT    LELEM PFX=AIOW                Waiting-for-cell link
                                    3802  1 01-LELEM +AIOWAIT    EQU   *,8,C'N'
 000000                             3803  1 01-LELEM +AIOWFP     DS    A                       Forward pointer
 000004                             3804  1 01-LELEM +AIOWBP     DS    A                       Backward pointer
 000008                             3805  1   84.     AIOWAMT    DS    A                       | amount of resource requested
 00000C                             3806  1   85.     AIOASB     DS    A                       ASB pointer
                                    3807  1   86.     * AIOLOCK  DS    A                       Lock for I/O ops
 000010                             3808  1   87.     AIOECB     DS    A                       ECB for cell waits
                                    3809  1   88.     *
                                    3810  1   89.     *  Pending I/Os for address space
                                    3811  1   90.     *
                                    3812  1   91.     * AIOPEND  LHEAD PFX=AIOP                Pending I/Os
 000014                00014 00014  3813      92.              END   ,
1IOSUPER  (IOSU00) (09:41) (22MAR04) IOSUPER - Local DSECTs                                                                 Page   31
0Loc    Object Code    Addr1 Addr2  Stmt Lv Lineno    Source Statement           (Hibal 5, Asmedit 3.3)  HLASM R4.0  2004/03/22 09.41
+___    ______ ____    _____ _____  ____ __ ______    ______ _________
0                                   3823      94.     *        COPY  IOSCB                   Anchor I/O Control block
0000000                00000 00014  3825      96.     IOSCB    RECORD BEGIN                  I/O Supervisor Global CB
 000000 C9D6C3C2                    3833  1   97.     IOCBID     DC    CL4'IOCB'
                                    3834  1   98.     *
                                    3835  1   99.     *  I/O operation return codes
                                    3836  1  100.     *
                                    3837  1  101.     IOSROK     EQU   0                       I/O operation OK
                                    3838  1  102.     IOSRBUSY   EQU   4                       I/O Sub Channel busy
                                    3839  1  103.     IOSRERR    EQU   8                       I/O error
                                    3840  1  104.
                                    3841  1  105.     IOCBTYP    EQU   6                       6 device types
                                    3842  1  106.     *
                                    3843  1  107.     *  I/O cell management
                                    3844  1  108.     *
 000004                             3845  1  109.     IOCELLK    DS    A                       Cell pool manipulation lock
                                    3846  1  110.
 000008                             3847  1  111.     IOCELHD    DS    D                       Head of free cells + ctl wrd
 000010                             3848  1  113.1    IOCELNEED   DS   A                       | number of cells needed
 000014                00014 00014  3849     116.              END   ,
0000000                00000 00001  3859     116.2    #LCLLOCK RECORD BEGIN
 000000                             3867  1  116.3    #LCLPSWM   DS    X                       Byte for PSW mask on disable
 000001                00001 00001  3868     116.4             END   ,
1IOSUPER  (IOSU00) (09:41) (22MAR04) IOSUPER - Local Macros                                                                 Page   32
0Loc    Object Code    Addr1 Addr2  Stmt Lv Lineno    Source Statement           (Hibal 5, Asmedit 3.3)  HLASM R4.0  2004/03/22 09.41
+___    ______ ____    _____ _____  ____ __ ______    ______ _________
0                                   3879     119.              MACRO
                                    3880     120.     &L       IOAD  &REG,&BEGIN             Get addr to PAG ctl block
                                    3881     121.              USING PZERO,R0
                                    3882     122.     &L       L     &REG,PZMATP
                                    3883     123.              DROP  R0
                                    3884     124.              WITH  (MAT,&REG),'L &REG,MATIOCB'
                                    3885     125.              AIF   ('&BEGIN' NE 'BEGIN').NOBLK
                                    3886     126.              WITH  (IOSCB,&REG),BEGIN
                                    3887     127.              MEXIT ,
                                    3888     128.     .NOBLK   WITH  (IOSCB,&REG)
                                    3889     129.              MEND
0                                   3891     131.              MACRO
                                    3892     132.     &L       SLKOB &LOCK,&PSWM
                                    3893     133.     .*  Macro for obtaining a spin lock.  First the macro will disable
                                    3894     134.     .*  then go for a spin lock.
                                    3895     135.     &L       STNSM &PSWM,DISABLE
                                    3896     136.              LKOB  &LOCK
                                    3897     137.              MEND
0                                   3899     139.              MACRO
                                    3900     140.     &L       SLKRL &LOCK,&PSWM
                                    3901     141.     .*  Macro for releasing a spin lock.  The macro will release
                                    3902     142.     .*  the spin lock, and then restore the PSW mask to enable.
                                    3903     143.     &L       LKREL &LOCK
                                    3904     144.              SSM   &PSWM
                                    3905     145.              MEND
1IOSUPER  (IOSU00) (09:41) (22MAR04) General I/O                                                                            Page   33
0Loc    Object Code    Addr1 Addr2  Stmt Lv Lineno    Source Statement           (Hibal 5, Asmedit 3.3)  HLASM R4.0  2004/03/22 09.41
+___    ______ ____    _____ _____  ____ __ ______    ______ _________
0                                   3907     147.     *********************************************************************
                                    3908     148.     *                                                                   *
                                    3909     149.     *  Do I/O                                                           *
                                    3910     150.     *                                                                   *
                                    3911     151.     *   Input - @IOSDOIO                                                *
                                    3912     152.     *                                                                   *
                                    3913     153.     *  Output - For synchronous operations                              *
                                    3914     154.     *             RVR = Return code from I/O post                       *
                                    3915     155.     *           For exit-style I/O                                      *
                                    3916     156.     *             No output                                             *
                                    3917     157.     *                                                                   *
                                    3918     158.     *********************************************************************
0000016                             3920     160.     IOSDOIO  PROC  @IOSDOIO,#LCLLOCK,SCOPE=GLOBAL
 000016 C9D6E2C4D6C9D640            3926             +
 00001E 0020/0008                   3927             +
 000022 900F D004/18AF       00004  3929             +
 USING  IOSDOIO,R10
 000028 50D0 C000/18CD       00000  3944             +
 00002E 9680 C000      00000        3946             +
 USING  @IOSDOIO-72,R12
 AUSING (#LCLLOCK,@IOSDOIO+32)
 000032 41D0 C070            00070  3965             +
 000036 5870 C04C            00004  3966     161.              L     RY,@IOSID               IRB address
 USING  IOSRB,R7                    3967     162.              WITH  (IOSRB,RY)              |
                                    3980     163.     *
                                    3981     164.     *  Clear posting area
                                    3982     165.     *
 00003A                             3983     166.              CLEAR IRBECB
 00003A D707 7010 7010 00010 00010  3989             +
 000040                             3990     166.1             IF    (IRBID,NE,=CL4'IORB'),'ABORT DOIRB'
 000040 D503 A876 7000 00898 00000  4001             +
 000046 4780 A058            0007A  4002             +
 USING  PZERO,R0
 00004A AC04 021B      0021B        4020  1          +
 00004E 9680 021A      0021A        4026  1          +
 000052 50F0 021C            0021C  4027  1          +
 000056 58F0 0210            00210  4028  1          +
 00005A 89F0 0010            00010  4029  1          +
 00005E 88F0 0010            00010  4030  1          +
 000062 41F0 F000            00000  4031  1          +
 000066 AEFF 0006            00006  4032  1          +
 00006A C4D6C9D9C2404040            4033             +
 DROP   PZERO,R0
 00007A 9180 7032      00032        4046     166.2             IF    IRBFIO,'ABORT DOIRBFLG'
 00007E 47E0 A090            000B2  4056             +
 USING  PZERO,R0
 000082 AC04 021B      0021B        4074  1          +
 000086 9680 021A      0021A        4080  1          +
 00008A 50F0 021C            0021C  4081  1          +
 00008E 58F0 0210            00210  4082  1          +
 000092 89F0 0010            00010  4083  1          +
 000096 88F0 0010            00010  4084  1          +
 00009A 41F0 F000            00000  4085  1          +
 00009E AEFF 0006            00006  4086  1          +
 0000A2 C4D6C9D9C2C6D3C7            4087             +
1IOSUPER  (IOSU00) (09:41) (22MAR04) General I/O                                                                            Page   34
0Current Usings:  (IOSRB,R7) (IOSDOIO,R10) (@IOSDOIO-72,R12)
0Loc    Object Code    Addr1 Addr2  Stmt Lv Lineno    Source Statement           (Hibal 5, Asmedit 3.3)  HLASM R4.0  2004/03/22 09.41
+___    ______ ____    _____ _____  ____ __ ______    ______ _________
0DROP   PZERO,R0
 0000B2 9680 7032      00032        4100     166.3             SET   IRBFIO
                                    4106     167.     *
                                    4107     168.     *  Queue IRB on ASBIOB list
                                    4108     169.     *
                                    4109     170.     *          L     RX,IRBASB               Queue IRB on ASBIOB queue
                                    4110     171.     *          WITH  (ASB,RX),'L RX,ASBIOB'  |
                                    4111     172.     *          WITH  (ASBIOCB,RX),BEGIN      |
                                    4112     173.     *          SLKOB AIOLOCK,#LCLPSWM        |
                                    4113     174.     *          LADD  AIOPEND,LA:IOSRB,WR=RS  |
                                    4114     175.     *          SLKRL AIOLOCK,#LCLPSWM        |
                                    4115     176.     *          END   ,                       OF WITH  (ASBIOCB,RX)
                                    4116     177.     *
                                    4117     178.     *  If the routine may need to post across address spaces, get
                                    4118     179.     *  a System Routine ID.
                                    4119     180.     *
 0000B6 D203 7024 C048 00024 00000  4120     181.              MVC   IRBSSID,@IOSCHID        Channel ID
 0000BC D207 7008 C050 00008 00008  4121     182.              MVC   IRBPID,@IOSPID          Process ID
 USING  PZERO,R0                    4122     183.              USING PZERO,R0
 0000C2 9180 C065      0001D        4131     184.              IF    @IOSFSYNC,'MVC IRBPID,PZCURPID'
 0000C6 47E0 A0AE            000D0  4141             +
 0000CA D207 7008 0208 00008 00208  4147             +
 DROP   PZERO,R0                    4152     185.              DROP  R0
 0000D0 5820 C058            00010  4160     186.              L     RA,@IOSCP               Channel program addr
 0000D4 B120 2000            00000  4161     187.              LRA   RA,@RA                  |
 0000D8 4770 A292            002B4  4162     188.              IF    NZ,DOIOKAP1             | error on real addr
 0000DC 5020 7020            00020  4176     189.              ST    RA,IRBPGM               |
 0000E0 D203 7038 C05C 00038 00014  4177     190.              MVC   IRBEXIT,@IOSXID         Exit ID/Fast path addr
 0000E6 D203 703C C060 0003C 00018  4178     191.              MVC   IRBXPARM,@IOSXPAR       | completion parameter
 0000EC D200 701C C064 0001C 0001C  4179     192.              MVC   IRBKEY,@IOSKEY          Key of I/O
 0000F2 9200 7030      00030        4180     193.              CLEAR IRBF1                   Prime flag byte
 0000F6 9180 C065      0001D        4187     194.              IF    @IOSFSYNC,'SET IRBFSYNC'
 0000FA 47E0 A0E0            00102  4197             +
 0000FE 9680 7030      00030        4208             +
 000102 9140 C065      0001D        4213     195.              IF    @IOSFAS,'SET IRBFAS'
 000106 47E0 A0EC            0010E  4223             +
 00010A 9640 7030      00030        4234             +
 00010E 9120 C065      0001D        4239     196.              IF    @IOSFAST,'SET IRBFDISP'
 000112 47E0 A0F8            0011A  4249             +
 000116 9620 7030      00030        4260             +
                                    4265     196.1  C          IF    (~IRBFDISP,AND,
 00011A 9120 7030      00030                 196.2                   (~IRBFSYNC,OR,~IRBFAS)),BEGIN    May do cross-AS post
 00011E 4710 A120            00142  4277             +
 000122 9180 7030      00030        4290             +
 000126 47E0 A110            00132  4293             +
 00012A 9140 7030      00030        4302             +
 00012E 4710 A120            00142  4303             +
 USING  @SYSRNEW-72,R13             4308  1  199.                PSET  @SYSRNEW
 000132 D703 D048 D048 00000 00000  4325  1          +
 000138 58F0 A87A/0DEF       0089C  4326  1  200.                VCALL SYSRNEW
 00013E 5000 7034            00034  4330  1  201.                ST    RVR,IRBSRID
 000142                             4331     202.              END   ,                       OF May do cross-AS post
                                    4335     203.     *
                                    4336     204.     *  Do Start subchannel
1IOSUPER  (IOSU00) (09:41) (22MAR04) General I/O                                                                            Page   35
0Current Usings:  (IOSRB,R7) (IOSDOIO,R10) (@IOSDOIO-72,R12) (@SYSRNEW-72,R13)
0Loc    Object Code    Addr1 Addr2  Stmt Lv Lineno    Source Statement           (Hibal 5, Asmedit 3.3)  HLASM R4.0  2004/03/22 09.41
+___    ______ ____    _____ _____  ____ __ ______    ______ _________
0                                   4337     205.     *
 000142 5070 7018            00018  4338     206.              PMOV  IRBPARM,LA:IOSRB        Set parameter for I/O int
 000146 B120 7018            00018  4349     207.              LRA   RA,IRBORB               | ** ORB must be real addr **
 00014A 1B00                        4350     208.              CLEAR RVR                     |
                                    4354     209.              REGCH (RS,R1)                 |
 00014C 5810 7024            00024  4355     210.              L     RS,IRBSSID              Subsystem ID = device id
                                    4356     211.     *--------------                        DISABLED WINDOW
 000150 AC04 C068      00000        4357     212.              STNSM #LCLPSWM,DISABLE
 000154 B205 7028      00028        4358     212.1             STCK  IRBTIME                 Start timing
 000158 B233 2000      00000        4359     213.              SSCH  @RA                     |
 USING  PZERO,R0                    4360     214.              USING PZERO,R0
 00015C 9813 00B8            000B8  4369     215.              LM    RS,RB,PZIOSID           Get possible status
 DROP   PZERO,R0                    4370     216.              DROP  R0
 000160 8000 C068      00000        4378     217.              SSM   #LCLPSWM
                                    4379     218.     *--------------                        END OF DISABLED WINDOW
 000164 4730 A29A            002BC  4380     219.              IF    SCHER,DOIOKAP2          ERROR on SSCH
1IOSUPER  (IOSU00) (09:41) (22MAR04) General I/O                                                                            Page   36
0Current Usings:  (IOSRB,R7) (IOSDOIO,R10) (@IOSDOIO-72,R12) (@SYSRNEW-72,R13)
0Loc    Object Code    Addr1 Addr2  Stmt Lv Lineno    Source Statement           (Hibal 5, Asmedit 3.3)  HLASM R4.0  2004/03/22 09.41
+___    ______ ____    _____ _____  ____ __ ______    ______ _________
0                                   4395     221.     *
                                    4396     222.     *  Handle immediate posts - post code is in PSA
                                    4397     223.     *
 000168 47B0 A258            0027A  4398     224.              IF    SCHSP,BEGIN             Status pend - Immed ret code
 00016C                             4409  1  224.01              IF    (IRBID,NE,=CL4'IORB'),'ABORT IINTIRB'
 00016C D503 A876 7000 00898 00000  4420  1          +
 000172 4780 A184            001A6  4421  1          +
 USING  PZERO,R0
 000176 AC04 021B      0021B        4439  2          +
 00017A 9680 021A      0021A        4445  2          +
 00017E 50F0 021C            0021C  4446  2          +
 000182 58F0 0210            00210  4447  2          +
 000186 89F0 0010            00010  4448  2          +
 00018A 88F0 0010            00010  4449  2          +
 00018E 41F0 F000            00000  4450  2          +
 000192 AEFF 0006            00006  4451  2          +
 000196 C9C9D5E3C9D9C240            4452  1          +
 DROP   PZERO,R0
 0001A6 9180 7032      00032        4465  1  224.02              IF    ~IRBFIO,'ABORT IINTIRBIO'
 0001AA 4710 A1BC            001DE  4475  1          +
 USING  PZERO,R0
 0001AE AC04 021B      0021B        4493  2          +
 0001B2 9680 021A      0021A        4499  2          +
 0001B6 50F0 021C            0021C  4500  2          +
 0001BA 58F0 0210            00210  4501  2          +
 0001BE 89F0 0010            00010  4502  2          +
 0001C2 88F0 0010            00010  4503  2          +
 0001C6 41F0 F000            00000  4504  2          +
 0001CA AEFF 0006            00006  4505  2          +
 0001CE C9C9D5E3C9D9C2C9            4506  1          +
 DROP   PZERO,R0
 0001DE 947F 7032      00032        4519  1  224.92              CLEAR IRBFIO                  No longer in I/O
 0001E2 9845 7028            00028  4526  1  224.93              LM    RJ,RK,IRBTIME           Set time in IRB
 0001E6 B205 7028      00028        4527  1  224.94              STCK  IRBTIME                 |
 0001EA 9889 7028            00028  4528  1  224.95              LM    RM,RN,IRBTIME           |
 0001EE 1F95                        4529  1  224.96              SLR   RN,RK                   |
 0001F0 47B0 A1D4/0680       001F6  4530  1  224.97              IF    NEG,'DECR RM'           |
 0001F6 1F84                        4548  1  224.98              SLR   RM,RJ                   |
 0001F8 9089 7028            00028  4549  1  224.99              STM   RM,RN,IRBTIME           |
                                    4550  1  225.     *
                                    4551  1  226.     *    Take IRB off of ASBIOB queue
                                    4552  1  227.     *
                                    4553  1  228.     *          WITH  (ASBIOCB,RX),BEGIN      Take IRB off of ASBIOB list
                                    4554  1  229.     *          SLKOB AIOLOCK,#LCLPSWM        |
                                    4555  1  230.     *          LREM  AIOPEND,LA:IOSRB,WR=RS  |
                                    4556  1  231.     *          SLKRL AIOLOCK,#LCLPSWM
                                    4557  1  232.     *          END   ,                       OF Take IRB off of ASBIOB list
                                    4558  1  233.     *
                                    4559  1  234.     *    Free System Routine ID - don't need it for immediate post
                                    4560  1  235.     *
                                    4561  1  235.1  C            IF    (~IRBFDISP,AND,
 0001FC 9120 7030      00030              1  235.2                     (~IRBFSYNC,OR,~IRBFAS)),BEGIN    Free SYSR ID
 000200 4710 A204            00226  4573  1          +
 000204 9180 7030      00030        4586  1          +
1IOSUPER  (IOSU00) (09:41) (22MAR04) General I/O                                                                            Page   37
0Current Usings:  (IOSRB,R7) (IOSDOIO,R10) (@IOSDOIO-72,R12) (@SYSRNEW-72,R13)
0Loc    Object Code    Addr1 Addr2  Stmt Lv Lineno    Source Statement           (Hibal 5, Asmedit 3.3)  HLASM R4.0  2004/03/22 09.41
+___    ______ ____    _____ _____  ____ __ ______    ______ _________
0000208 47E0 A1F2            00214  4589  1          +
 00020C 9140 7030      00030        4598  1          +
 000210 4710 A204            00226  4599  1          +
 DROP   @SYSRNEW-72,R13             4604  2  238.                  PSET  @SYSRDEL
 USING  @SYSRDEL-72,R13
 000214 D703 D048 D048 00000 00000  4624  2          +
 00021A                             4625  2  239.                  PMOV  @SYSRDID,IRBSRID
 00021A D203 D048 7034 00000 00034  4629  2          +
 000220 58F0 A87E/0DEF       008A0  4630  2  240.                  VCALL SYSRDEL
 000226                             4634  1  241.                END   ,                       OF Free SYSR ID
                                    4638  1  242.
                                    4639  1  243.                REGCH (RS,R1),(RA,R2),(RB,R3)
                                    4640  1  244.     *
                                    4641  1  245.     *  Get Subsystem ID, I/O parameter and I/O subchannel ending status.
                                    4642  1  246.     *  The subchannel ending status location word is not as per
                                    4643  1  247.     *  Principles of Operations, and it is returned as a result of TPI,
                                    4644  1  248.     *  and on I/O interrupts, also non POPs.
                                    4645  1  249.     *
 000226 9180 7030      00030        4646  1  250.                IF    IRBFSYNC,BEGIN          Synchronous
 00022A 47E0 A20E            00230  4656  1          +
 00022E 1803                        4661  2  251.                  LR    RVR,RB                  Get immediate post code in RVR
 000230                             4662  1  252.                END   ,                       OF Synchronous
 000230 A212           00230 0022C  4666  1  253.                ELSE  BEGIN                   Exit style I/O, immediate post
 000230 47F0 A258            0027A  4671  1          +
 000234 9120 7030      00030        4677  2  254.                  IF    IRBFDISP,BEGIN          Completion by local call
 000238 47E0 A22A            0024C  4687  2          +
 DROP   @SYSRDEL-72,R13             4692  3  255.                    PSET  @IOTERM                 |
 USING  @IOTERM-72,R13
 00023C D707 D048 D048 00000 00000  4712  3          +
 000242 9023 D048            00000  4713  3  256.                    STM   RA,RB,@IOTPARM          | IRB & post code
 000246 41F0 A40C/0DEF       0042E  4714  3  257.                    LCALL IOSDCOMP                |
 00024C                             4723  2  258.                  END   ,                       OF Completion by local call
 00024C A22E           0024C 0023A  4727  2  259.                  ELSE  BEGIN                   Completion by exit
 00024C 47F0 A258            0027A  4732  2          +
 DROP   @IOTERM-72,R13              4738  3  260.                    PSET  @XITDO
 USING  @XITDO-72,R13
 000250 D71F D048 D048 00000 00000  4758  3          +
 AUSING (@IOTERM,@XITPARM)          4759  3  260.1                   WITH  (@IOTERM,@XITPARM)
 000256                             4766  3  261.                    PMOV  @XITRQID,IRBEXIT        Exit ID
 000256 D203 D048 7038 00000 00038  4770  3          +
 00025C                             4771  3  262.                    PMOV  @XITTSK,IRBTSK          Task ID where exit is to run
 00025C D203 D04C 700C 00004 0000C  4775  3          +
 000262                             4776  3  263.                    PMOV  @IOTPARM,IRBXPARM       Parm specified @ I/O request
 000262 D203 D058 703C 00000 0003C  4780  3          +
 000268 5030 D05C            00004  4781  3  264.                    PMOV  @IOTEND,(RB)            Immediate post code
 00026C 4100 0009            00009  4791  3  265.                    PMOV  @XITTYPE,LA:XITTIOCN    I/O Completion - Normal
 000270 4200 D050            00008  4807  3          +
 000274 58F0 A882/0DEF       008A4  4808  3  266.                    VCALL XITDO
 00027A                             4812  2  267.                  END   ,                       OF Completion by exit
 00027A                             4816  1  268.                END   ,                       OF Exit style I/O, imm post
 00027A                             4820     269.              END   ,                       OF Immediate return code
1IOSUPER  (IOSU00) (09:41) (22MAR04) General I/O                                                                            Page   38
0Current Usings:  (IOSRB,R7) (IOSDOIO,R10) (@IOSDOIO-72,R12) (@XITDO-72,R13)
0Loc    Object Code    Addr1 Addr2  Stmt Lv Lineno    Source Statement           (Hibal 5, Asmedit 3.3)  HLASM R4.0  2004/03/22 09.41
+___    ______ ____    _____ _____  ____ __ ______    ______ _________
0                                   4825     271.     *
                                    4826     272.     *  Handle non-immediate posts for suspend-style requests
                                    4827     273.     *
 00027A A25C           0027A 0016A  4828     274.              ELSEIF IRBFSYNC,BEGIN         Op is Synch/~Immediate Post
 00027A 47F0 A288            002AA  4834             +
 00027E 9180 7030      00030        4846             +
 000282 47E0 A288            002AA  4847             +
 DROP   @XITDO-72,R13               4852  1  275.                PSET  @AWAIT
 USING  @AWAIT-72,R13
 000286 D704 D048 D048 00000 00000  4872  1          +
 00028C 4100 7010            00010  4873  1  276.                PMOV  @AWTECB,LA:IRBECB
 000290 5000 D048            00000  4889  1          +
 000294 58F0 A886            008A8  4890  1  277.                L     EPAR,=V(AWAIT)
 000298 9140 7030      00030        4891  1  278.                IF    IRBFAS,'L EPAR,=V(AWAITAS)'
 00029C 47E0 A282            002A4  4901  1          +
 0002A0 58F0 A88A            008AC  4907  1          +
 0002A4 0DEF                        4912  1  279.                ACALL (EPAR)
                                    4918  1  280.     *
                                    4919  1  281.     *  Save post code for synchronous I/O
                                    4920  1  282.     *
 0002A6 5000 7014            00014  4921  1  283.                ST    RVR,IRBESTAT
 0002AA                             4922     284.              END   ,                       OF Op is Synch/~Immediate Post
 0002AA 981F C008            00008  4926     285.              PEND  ,
 DROP   IOSRB,R7
 DROP   @IOSDOIO-72,R12
 DROP   IOSDOIO,R10
 0002AE 9680 C000/0B0E 00000        4946             +
 DROP   @AWAIT-72,R13
0USING  IOSDOIO,R10                 4956     287.              WITH  (IOSDOIO,BR),BEGIN
 0002B4 4100 0000            00000  4970  1  288.     DOIOKAP1   LA    RVR,0
 0002B8 47F0 A29E            002C0  4971  1  289.                B     DOIOKAP
 0002BC 4100 0004            00004  4972  1  290.     DOIOKAP2   LA    RVR,4
 0002C0 AC04 021B      0021B        4973  1  291.     DOIOKAP    ABORT IOSSSCH                 Error in Start Subchannel
 USING  PZERO,R0
 0002C4 9680 021A      0021A        4992  1          +
 0002C8 50F0 021C            0021C  4993  1          +
 0002CC 58F0 0210            00210  4994  1          +
 0002D0 89F0 0010            00010  4995  1          +
 0002D4 88F0 0010            00010  4996  1          +
 0002D8 41F0 F000            00000  4997  1          +
 0002DC AEFF 0006            00006  4998  1          +
 0002E0 C9D6E2E2E2C3C840            4999  1          +
 DROP   PZERO,R0
 DROP   IOSDOIO,R10                 5008     292.              END   ,
1IOSUPER  (IOSU00) (09:41) (22MAR04) I/O Interrupts                                                                         Page   39
0Loc    Object Code    Addr1 Addr2  Stmt Lv Lineno    Source Statement           (Hibal 5, Asmedit 3.3)  HLASM R4.0  2004/03/22 09.41
+___    ______ ____    _____ _____  ____ __ ______    ______ _________
0                                   5017     294.     *********************************************************************
                                    5018     295.     *  I/O Interruptions - entered for I/O interrupts                   *
                                    5019     296.     *    The PSW mask must have I/O interrupts disabled for the         *
                                    5020     297.     *    duration of this routine                                       *
                                    5021     298.     *                                                                   *
                                    5022     299.     *   Input - None                                                    *
                                    5023     300.     *                                                                   *
                                    5024     301.     *  Output - None                                                    *
                                    5025     302.     *                                                                   *
                                    5026     303.     *********************************************************************
00002F0                             5028     305.     IOSINTER PROC  SCOPE=GLOBAL
 0002F0 C9D6E2C9D5E3C5D9            5034             +
 0002F8 0000/0000                   5035             +
 0002FC 900F D004/18AF       00004  5037             +
 USING  IOSINTER,R10
 000302 50D0 C000/18CD       00000  5052             +
 000308 9680 C000      00000        5054             +
 00030C 41D0 C048            00048  5055             +
                                    5056     306.              REGCH (RS,R1),(RA,R2),(RB,R3)
 000310                             5057     307.              LOOP  BEGIN
                                    5063  1  308.     *
                                    5064  1  309.     *  Get Subsystem ID, I/O parameter and I/O subchannel ending status.
                                    5065  1  310.     *  The subchannel ending status location word is not as per
                                    5066  1  311.     *  Principles of Operations, and it is returned as a result of TPI,
                                    5067  1  312.     *  and on I/O interrupts, also non POPs.
                                    5068  1  313.     *
 USING  PZERO,R0                    5069  1  314.                USING PZERO,R0
 000310 9813 00B8            000B8  5078  1  315.                LM    RS,RB,PZIOSID
 DROP   PZERO,R0                    5079  1  316.                DROP  R0
 USING  IOSRB,R2                    5087  1  317.                WITH  (IOSRB,RA)
 000314 9845 2028            00028  5100  1  317.1               LM    RJ,RK,IRBTIME           Set time in IRB
 000318 B205 2028      00028        5101  1  317.2               STCK  IRBTIME                 |
 00031C 9889 2028            00028  5102  1  317.3               LM    RM,RN,IRBTIME           |
 000320 1F95                        5103  1  317.4               SLR   RN,RK                   |
 000322 47B0 A02C/0680       00328  5104  1  317.5               IF    NEG,'DECR RM'           |
 000328 1F84                        5122  1  317.6               SLR   RM,RJ                   |
 00032A 9089 2028            00028  5123  1  317.7               STM   RM,RN,IRBTIME           |
                                    5124  1  318.
 00032E                             5125  1  318.1               IF    (IRBID,NE,=CL4'IORB'),'ABORT INTIRB'
 00032E D503 A59C 2000 00898 00000  5136  1          +
 000334 4780 A06C            00368  5137  1          +
 USING  PZERO,R0
 000338 AC04 021B      0021B        5155  2          +
 00033C 9680 021A      0021A        5161  2          +
 000340 50F0 021C            0021C  5162  2          +
 000344 58F0 0210            00210  5163  2          +
 000348 89F0 0010            00010  5164  2          +
 00034C 88F0 0010            00010  5165  2          +
 000350 41F0 F000            00000  5166  2          +
 000354 AEFF 0006            00006  5167  2          +
 000358 C9D5E3C9D9C24040            5168  1          +
 DROP   PZERO,R0
 000368 9180 2032      00032        5181  1  318.11              IF    ~IRBFIO,'ABORT INTIRBIO'
 00036C 4710 A0A4            003A0  5191  1          +
 USING  PZERO,R0
1IOSUPER  (IOSU00) (09:41) (22MAR04) I/O Interrupts                                                                         Page   40
0Current Usings:  (PZERO,R0) (IOSRB,R2) (IOSINTER,R10)
0Loc    Object Code    Addr1 Addr2  Stmt Lv Lineno    Source Statement           (Hibal 5, Asmedit 3.3)  HLASM R4.0  2004/03/22 09.41
+___    ______ ____    _____ _____  ____ __ ______    ______ _________
0000370 AC04 021B      0021B        5209  2          +
 000374 9680 021A      0021A        5215  2          +
 000378 50F0 021C            0021C  5216  2          +
 00037C 58F0 0210            00210  5217  2          +
 000380 89F0 0010            00010  5218  2          +
 000384 88F0 0010            00010  5219  2          +
 000388 41F0 F000            00000  5220  2          +
 00038C AEFF 0006            00006  5221  2          +
 000390 C9D5E3C9D9C2C9D6            5222  1          +
 DROP   PZERO,R0
 0003A0 947F 2032      00032        5235  1  318.2               CLEAR IRBFIO                  No longer in I/O
 0003A4 9120 2030      00030        5242  1  319.                IF    IRBFDISP,BEGIN          Handle from dispatcher stack
 0003A8 47E0 A0C0            003BC  5252  1          +
                                    5257  2  320.     *
                                    5258  2  321.     *  Do I/O completion off of dispatcher stack
                                    5259  2  322.     *
 USING  @IOTERM-72,R13              5260  2  323.                  PSET  @IOTERM                 Call completion routine
 0003AC D707 D048 D048 00000 00000  5277  2          +
 0003B2 9023 D048            00000  5278  2  324.                  STM   RA,RB,@IOTPARM          | parms are IRB, post code
 0003B6 41F0 A132/0DEF       0042E  5279  2  325.                  LCALL IOSDCOMP                |
 0003BC                             5288  1  326.                END   ,                       OF Handle from dispatcher stack
 0003BC A0C4           003BC 003AA  5292  1  327.                ELSEIF (IRBFSYNC,AND,IRBFAS),BEGIN     Signal AS wait
 0003BC 47F0 A0EC            003E8  5298  1          +
 0003C0 9180 2030      00030        5312  1          +
 0003C4 47E0 A0EC            003E8  5313  1          +
 0003C8 9140 2030      00030        5324  1          +
 0003CC 47E0 A0EC            003E8  5325  1          +
 DROP   @IOTERM-72,R13              5330  2  328.                  SIGNL IRBECB,(RB),TYPE=AS
 USING  @SIGNAL-72,R13
 0003D0 D713 D048 D048 00000 00000  5351  2          +
 0003D6 4100 2010            00010  5363  2          +
 0003DA 5000 D050            00008  5368  2          +
 0003DE 5030 D048            00000  5379  2          +
 0003E2 58F0 A5B4/0DEF       008B0  5382  2          +
 0003E8                             5384  1  329.                END   ,                       OF Signal AS wait
 0003E8 A0F0           003E8 003C6  5388  1  330.                ELSE  BEGIN                   Schedule completion
 0003CE A0F0           003D0 003E8  5393  1          +
 0003E8 47F0 A114            00410  5395  1          +
                                    5401  2  331.     *
                                    5402  2  332.     *  System Routine to schedule completion
                                    5403  2  333.     *
 DROP   @SIGNAL-72,R13              5404  2  334.                  PSET  @SYSRDO
 USING  @SYSRDO-72,R13
 0003EC D71B D048 D048 00000 00000  5424  2          +
 0003F2                             5425  2  335.                  PMOV  @SYSRID,IRBSRID         Routine ID
 0003F2 D203 D048 2034 00000 00034  5429  2          +
 0003F8                             5430  2  336.                  PMOV  @SYSRASB,IRBASB         ASB to run under
 0003F8 D203 D04C 2008 00004 00008  5434  2          +
 0003FE 4100 A17A            00476  5435  2  337.                  PMOV  @SYSRLOC,LA:IOSCOMP     Routine address
 000402 5000 D050            00008  5451  2          +
 000406 9023 D054            0000C  5452  2  338.                  STM   RA,RB,@SYSRPRM          Parameters (IRB, post code)
 00040A 58F0 A5B8/0DEF       008B4  5453  2  339.                  VCALL SYSRDO
 000410                             5457  1  340.                END   ,                       OF Schedule completion
                                    5461  1  341.     *
1IOSUPER  (IOSU00) (09:41) (22MAR04) I/O Interrupts                                                                         Page   41
0Current Usings:  (IOSRB,R2) (IOSINTER,R10) (@SYSRDO-72,R13)
0Loc    Object Code    Addr1 Addr2  Stmt Lv Lineno    Source Statement           (Hibal 5, Asmedit 3.3)  HLASM R4.0  2004/03/22 09.41
+___    ______ ____    _____ _____  ____ __ ______    ______ _________
0                                   5462  1  342.     *  Get all pending interrupts before returning
                                    5463  1  343.     *
 000410 B236 0000      00000        5464  1  344.                TPI   0
 000414 4770 A014            00310  5465     345.              UNTIL ZERO,END
 DROP   IOSRB,R2
 000418 981F C008            00008  5489     346.              PEND  ,
 DROP   IOSINTER,R10
 00041C 9680 C000/0B0E 00000        5499             +
 DROP   @SYSRDO-72,R13
1IOSUPER  (IOSU00) (09:41) (22MAR04) I/O Completion (from dispatcher stack)                                                 Page   42
0Loc    Object Code    Addr1 Addr2  Stmt Lv Lineno    Source Statement           (Hibal 5, Asmedit 3.3)  HLASM R4.0  2004/03/22 09.41
+___    ______ ____    _____ _____  ____ __ ______    ______ _________
0                                   5509     348.     *********************************************************************
                                    5510     349.     *  I/O Completion from dispatcher stack                             *
                                    5511     350.     *                                                                   *
                                    5512     351.     *   Input - @IOTPARM                                                *
                                    5513     352.     *                                                                   *
                                    5514     353.     *  Output - None                                                    *
                                    5515     354.     *                                                                   *
                                    5516     355.     *********************************************************************
0000422                             5518     357.     IOSDCOMP PROC  @IOTERM,#LCLLOCK
 000422 C9D6E2C4C3D6D4D7            5523             +
 00042A 0008/0008                   5524             +
 00042E 900F D004/18AF       00004  5526             +
 USING  IOSDCOMP,R10
 000434 50D0 C000/18CD       00000  5541             +
 00043A 9680 C000      00000        5543             +
 USING  @IOTERM-72,R12
 AUSING (#LCLLOCK,@IOTERM+8)
 00043E 41D0 C058            00058  5562             +
 000442 5820 C048            00000  5563     358.              L     RA,@IOTPARM             Get IRB address
 USING  IOSRB,R2                    5564     359.              WITH  (IOSRB,RA)
                                    5577     360.     *
                                    5578     361.     *  Here we do any necessary work on user's behalf, like halted I/O,
                                    5579     362.     *  and page unfixing etc.
                                    5580     363.     *
                                    5581     364.     *  -->
                                    5582     365.     *
                                    5583     366.     *  Unlink I/O request from ASB chain of I/Os
                                    5584     367.     *
                                    5585     368.     *          L     RY,IRBASB
                                    5586     369.     *          WITH  (ASB,RY),'L RY,ASBIOB'
                                    5587     370.     *          WITH  (ASBIOCB,RY),BEGIN      Remove request from ASBIOCB
                                    5588     371.     *          SLKOB AIOLOCK,#LCLPSWM
                                    5589     372.     *          LREM  AIOPEND,LA:IOSRB,WR=RS
                                    5590     373.     *          SLKRL AIOLOCK,#LCLPSWM
                                    5591     374.     *          END   ,                       OF Remove request from ASBIOCB
                                    5592     375.     *
                                    5593     376.     *  Call termination routine - pass on post code that was passed in
                                    5594     377.     *
 000446 5830 C04C            00004  5595     378.              L     RB,@IOTEND              Ending status coming in
                                    5596     379.              PUSH  USING
 USING  @IOTERM-72,R13              5597     380.              PSET  @IOTERM
 00044A D707 D048 D048 00000 00000  5614             +
 000450                             5615     381.              PMOV  @IOTPARM,IRBXPARM       Exit parm & ending status
 000450 D203 D048 203C 00000 0003C  5619             +
 000456 5030 D04C            00004  5620     382.              PMOV  @IOTEND,(RB)            |
 00045A 58F0 2038            00038  5630     383.              L     EPAR,IRBEXIT
 00045E 0DEF                        5631     384.              BASR  RAR,EPAR
 DROP   @IOTERM-72,R13              5632     385.              POP   USING
 000460 981F C008            00008  5668     386.              PEND  ,
 DROP   IOSRB,R2
 DROP   @IOTERM-72,R12
 DROP   IOSDCOMP,R10
 000464 9680 C000/0B0E 00000        5688             +
1IOSUPER  (IOSU00) (09:41) (22MAR04) I/O Completion                                                                         Page   43
0Loc    Object Code    Addr1 Addr2  Stmt Lv Lineno    Source Statement           (Hibal 5, Asmedit 3.3)  HLASM R4.0  2004/03/22 09.41
+___    ______ ____    _____ _____  ____ __ ______    ______ _________
0                                   5695     388.     *********************************************************************
                                    5696     389.     *  I/O Completion - runs off of dispatcher stack as a system        *
                                    5697     390.     *                   routine                                         *
                                    5698     391.     *                                                                   *
                                    5699     392.     *   Input - @SYSRTN                                                 *
                                    5700     393.     *                                                                   *
                                    5701     394.     *  Output - None                                                    *
                                    5702     395.     *                                                                   *
                                    5703     396.     *********************************************************************
0                                   5705     398.     @IOSCIRB EQU   @SYSPARS,4              IRB address
                                    5706     399.     @IOSCPC  EQU   @SYSPARS+4,4            Post code
000046A                             5708     401.     IOSCOMP  PROC  @SYSRTN,#LCLLOCK
 00046A C9D6E2C3D6D4D740            5713             +
 000472 0010/0008                   5714             +
 000476 900F D004/18AF       00004  5716             +
 USING  IOSCOMP,R10
 00047C 50D0 C000/18CD       00000  5731             +
 000482 9680 C000      00000        5733             +
 USING  @SYSRTN-72,R12
 AUSING (#LCLLOCK,@SYSRTN+16)
 000486 41D0 C060            00060  5752             +
 00048A 5820 C048            00000  5753     402.              L     RA,@IOSCIRB             Get IRB address
 USING  IOSRB,R2                    5754     403.              WITH  (IOSRB,RA)
                                    5767     404.     *
                                    5768     405.     *  Here we do any necessary work on user's behalf, like halted I/O,
                                    5769     406.     *  and page unfixing etc.
                                    5770     407.     *
                                    5771     408.     *  -->
                                    5772     409.     *
                                    5773     410.     *  Free System Routine ID
                                    5774     411.     *
 USING  @SYSRDEL-72,R13             5775     412.              PSET  @SYSRDEL
 00048E D703 D048 D048 00000 00000  5792             +
 000494                             5793     413.              PMOV  @SYSRDID,IRBSRID
 000494 D203 D048 2034 00000 00034  5797             +
 00049A 58F0 A42A/0DEF       008A0  5798     414.              VCALL SYSRDEL
                                    5802     415.     *
                                    5803     416.     *  Unlink I/O request from ASB chain of I/Os
                                    5804     417.     *
                                    5805     418.     *          L     RY,IRBASB
                                    5806     419.     *          WITH  (ASB,RY),'L RY,ASBIOB'
                                    5807     420.     *          WITH  (ASBIOCB,RY),BEGIN      Remove request from ASBIOCB
                                    5808     421.     *          SLKOB AIOLOCK,#LCLPSWM
                                    5809     422.     *          LREM  AIOPEND,LA:IOSRB,WR=RS
                                    5810     423.     *          SLKRL AIOLOCK,#LCLPSWM
                                    5811     424.     *          END   ,                       OF Remove request from
                                    5812     425.     *
                                    5813     426.     *  This was a synchronous request, I/O supervisor did the wait, so
                                    5814     427.     *  wake up the task
                                    5815     428.     *
 0004A0 9180 2030      00030        5816     429.     POSTSYNC IF    IRBFSYNC,BEGIN          Synchronous request post
 0004A4 47E0 A04C            004C2  5827             +
 DROP   @SYSRDEL-72,R13             5832  1  430.                SIGNL IRBECB,@IOSCPC          Post in this AS
 USING  @SIGNAL-72,R13
1IOSUPER  (IOSU00) (09:41) (22MAR04) I/O Completion                                                                         Page   44
0Current Usings:  (IOSRB,R2) (IOSCOMP,R10) (@SYSRTN-72,R12) (@SIGNAL-72,R13)
0Loc    Object Code    Addr1 Addr2  Stmt Lv Lineno    Source Statement           (Hibal 5, Asmedit 3.3)  HLASM R4.0  2004/03/22 09.41
+___    ______ ____    _____ _____  ____ __ ______    ______ _________
00004A8 D713 D048 D048 00000 00000  5853  1          +
 0004AE 4100 2010            00010  5865  1          +
 0004B2 5000 D050            00008  5870  1          +
 0004B6 D203 D04C C04C 00004 00004  5875  1          +
 0004BC 58F0 A442/0DEF       008B8  5878  1          +
 0004C2                             5880     431.              END   ,                       OF Synchronous request post
                                    5884     432.     *
                                    5885     433.     *  This was an asynchronous request, so there is a user exit to be
                                    5886     434.     *  entered.
                                    5887     435.     *
 0004C2 A050           004C2 004A6  5888     436.              ELSE  BEGIN                   Schedule exit
 0004C2 47F0 A07C            004F2  5893             +
 DROP   @SIGNAL-72,R13              5899  1  437.                PSET  @XITDO
 USING  @XITDO-72,R13
 0004C6 D71F D048 D048 00000 00000  5919  1          +
 0004CC                             5920  1  438.                PMOV  @XITRQID,IRBEXIT        Exit ID
 0004CC D203 D048 2038 00000 00038  5924  1          +
 0004D2                             5925  1  439.                PMOV  @XITTSK,IRBTSK          Task ID where exit is to run
 0004D2 D203 D04C 200C 00004 0000C  5929  1          +
 AUSING (@IOTERM,@XITPARM)          5930  1  439.01              WITH  (@IOTERM,@XITPARM)
 0004D8                             5937  1  439.1               PMOV  @IOTPARM,IRBXPARM       Parm specified @ request
 0004D8 D203 D058 203C 00000 0003C  5941  1          +
 0004DE                             5942  1  439.2               PMOV  @IOTEND,@IOSCPC         Completion code
 0004DE D203 D05C C04C 00004 00004  5946  1          +
 0004E4 4100 0009            00009  5947  1  442.                PMOV  @XITTYPE,LA:XITTIOCN    I/O Completion - Normal
 0004E8 4200 D050            00008  5963  1          +
 0004EC 58F0 A42E/0DEF       008A4  5964  1  443.                VCALL XITDO
 0004F2                             5968     444.              END   ,                       OF Schedule exit
 0004F2 981F C008            00008  5972     445.              PEND  ,
 DROP   IOSRB,R2
 DROP   @SYSRTN-72,R12
 DROP   IOSCOMP,R10
 0004F6 9680 C000/0B0E 00000        5992             +
 DROP   @XITDO-72,R13
1IOSUPER  (IOSU00) (09:41) (22MAR04) Get time for an I/O request                                                            Page   45
0Loc    Object Code    Addr1 Addr2  Stmt Lv Lineno    Source Statement           (Hibal 5, Asmedit 3.3)  HLASM R4.0  2004/03/22 09.41
+___    ______ ____    _____ _____  ____ __ ______    ______ _________
0                                   6002     445.02   *********************************************************************
                                    6003     445.03   *  Get I/O time                                                     *
                                    6004     445.04   *                                                                   *
                                    6005     445.05   *   Input - @IOSTIME                                                *
                                    6006     445.06   *                                                                   *
                                    6007     445.07   *  Output - @IOSTIME                                                *
                                    6008     445.08   *                                                                   *
                                    6009     445.09   *********************************************************************
00004FC                             6011     445.95   IOSTIME  PROC  @IOSTIME,SCOPE=GLOBAL
 0004FC C9D6E2E3C9D4C540            6017             +
 000504 0010/0000                   6018             +
 000508 900F D004/18AF       00004  6020             +
 USING  IOSTIME,R10
 00050E 50D0 C000/18CD       00000  6035             +
 000514 9680 C000      00000        6037             +
 USING  @IOSTIME-72,R12
 000518 41D0 C058            00058  6051             +
 00051C 5820 C048            00000  6052     445.96            L     RA,@IOSTID
 USING  IOSRB,R2                    6053     445.97            WITH  (IOSRB,RA)
 000520 D207 C050 2028 00008 00028  6066     445.98            MVC   @IOSIOTIME,IRBTIME
 000526 981F C008            00008  6067     445.99            PEND  ,
 DROP   IOSRB,R2
 DROP   @IOSTIME-72,R12
 DROP   IOSTIME,R10
 00052A 9680 C000/0B0E 00000        6087             +
1IOSUPER  (IOSU00) (09:41) (22MAR04) I/O id get                                                                             Page   46
0Loc    Object Code    Addr1 Addr2  Stmt Lv Lineno    Source Statement           (Hibal 5, Asmedit 3.3)  HLASM R4.0  2004/03/22 09.41
+___    ______ ____    _____ _____  ____ __ ______    ______ _________
0                                   6094     447.     *********************************************************************
                                    6095     448.     *                                                                   *
                                    6096     449.     *  I/O id get                                                       *
                                    6097     450.     *                                                                   *
                                    6098     451.     *   Input - @IOSIDGET                                               *
                                    6099     452.     *                                                                   *
                                    6100     453.     *  Output - For calls where wait was specified:                     *
                                    6101     454.     *             RVR = IOS I/O id                                      *
                                    6102     455.     *           For calls where wait was not specified:                 *
                                    6103     456.     *             IF   RVR = 0, no ids available                        *
                                    6104     457.     *             ELSE RVR = IOS I/O id                                 *
                                    6105     458.     *                                                                   *
                                    6106     459.     *********************************************************************
0000530                             6108     465.     IOSIDGET PROC  @IOSIDGET,#LCLPSWM,SCOPE=GLOBAL
 000530 C9D6E2C9C4C7C5E3            6114             +
 000538 0008/0008                   6115             +
 00053C 900F D004/18AF       00004  6117             +
 USING  IOSIDGET,R10
 000542 50D0 C000/18CD       00000  6132             +
 000548 9680 C000      00000        6134             +
 USING  @IOSIDGET-72,R12
 AUSING (#LCLPSWM,@IOSIDGET+8)
 00054C 41D0 C058            00058  6153             +
 000550 5870 0200            00200  6154     466.              IOAD  RY
 USING  PZERO,R0
 DROP   PZERO,R0
 USING  MAT,R7
 000554 5870 701C            0001C  6188             +
 DROP   MAT,R7
 USING  IOSCB,R7
 USING  PZERO,R0                    6210     467.              USING PZERO,R0
                                    6219     468.     *
                                    6220     469.     *  Try to get an id
                                    6221     470.     *
 000558 9823 7008            00008  6222     471.              LM    RA,RB,IOCELHD
 00055C                             6223     472.              LOOP  BEGIN                   Try for id
 00055C 1222/4780 A11C       00658  6229  1  473.                IF    (RA,ZERO),IDWAIT
 USING  IOSRB,R2                    6246  1  474.                WITH  (IOSRB,RA)
 000562 5840 2004            00004  6259  1  475.                L     RJ,IRBPFP               Next in list
 000566 4150 3001            00001  6260  1  476.                LA    RK,@RB+1                update control word
 00056A BB24 7008            00008  6261  1  477.                CDS   RA,RJ,IOCELHD           OF Try for id
 00056E 4770 A020            0055C  6262     478.              UNTIL EQUAL,END
 DROP   IOSRB,R2
                                    6286     479.     *
                                    6287     480.     *  Got an id
                                    6288     481.     *
 USING  IOSRB,R2                    6289     482.              WITH  (IOSRB,RA),BEGIN        Set up IRB
 000572 9200 2030      00030        6303  1  483.                CLEAR IRBF1
 000576 9180 2032      00032        6310  1  483.01              IF    IRBFIO,'ABORT GETIRBFLG'
 00057A 47E0 A072            005AE  6320  1          +
 00057E AC04 021B      0021B        6329  2          +
 000582 9680 021A      0021A        6335  2          +
 000586 50F0 021C            0021C  6336  2          +
 00058A 58F0 0210            00210  6337  2          +
 00058E 89F0 0010            00010  6338  2          +
1IOSUPER  (IOSU00) (09:41) (22MAR04) I/O id get                                                                             Page   47
0Current Usings:  (PZERO,R0) (IOSRB,R2) (IOSCB,R7) (IOSIDGET,R10) (@IOSIDGET-72,R12)
0Loc    Object Code    Addr1 Addr2  Stmt Lv Lineno    Source Statement           (Hibal 5, Asmedit 3.3)  HLASM R4.0  2004/03/22 09.41
+___    ______ ____    _____ _____  ____ __ ______    ______ _________
0000592 88F0 0010            00010  6339  2          +
 000596 41F0 F000            00000  6340  2          +
 00059A AEFF 0006            00006  6341  2          +
 00059E C7C5E3C9D9C2C6D3            6342  1          +
 0005AE                             6347  1  483.02              IF    (IRBID,NE,=CL4'iORB'),'ABORT GETIRBID'
 0005AE D503 A380 2000 008BC 00000  6358  1          +
 0005B4 4780 A0AC            005E8  6359  1          +
 0005B8 AC04 021B      0021B        6368  2          +
 0005BC 9680 021A      0021A        6374  2          +
 0005C0 50F0 021C            0021C  6375  2          +
 0005C4 58F0 0210            00210  6376  2          +
 0005C8 89F0 0010            00010  6377  2          +
 0005CC 88F0 0010            00010  6378  2          +
 0005D0 41F0 F000            00000  6379  2          +
 0005D4 AEFF 0006            00006  6380  2          +
 0005D8 C7C5E3C9D9C2C9C4            6381  1          +
 0005E8 D203 2000 A35C 00000 00898  6386  1  483.1               MVC   IRBID,=CL4'IORB'        Set ID
 0005EE D207 2008 0208 00008 00208  6387  1  484.                MVC   IRBPID,PZCURPID
                                    6388  1  484.01   *
                                    6389  1  484.02   *  If we can wait, and more cells are needed, we will allocate
                                    6390  1  484.03   *  one of them from virtual storage and put it on the queue
                                    6391  1  484.04   *
                                    6392  1  484.05   *  Alloc new IOCB
 0005F4 9180 C048      00000        6393  1  484.06              IF    (@IOSFWAIT,AND,('LT RJ,IOCELNEED',POS)),BEGIN
 0005F8 47E0 A116            00652  6405  1          +
 0005FC 5840 7010/1244       00010  6416  1          +
 000602 47D0 A116            00652  6418  1          +
 000606                             6423  2  484.07                LOOP  BEGIN                   We will need one less
 000606 1854                        6429  3  484.08                  LR    RK,RJ
 000608 0650                        6430  3  484.09                  DECR  RK
 00060A BA45 7010            00010  6432  3  484.1                   CS    RJ,RK,IOCELNEED
 00060E 4770 A0CA            00606  6433  2  484.11                UNTIL EQUAL,END               OF We will need one less
                                    6452  2  484.13   *
                                    6453  2  484.14   *  Now get the storage
                                    6454  2  484.15   *
 USING  @VMGET-72,R13               6455  2  484.16                VMGET L'IOSRB,LOC=GLOBHI,FIX=YES,ONEPAGE=YES
 000612 D70A D048 D048 00000 00000  6479  2          +
 000618 4100 0040            00040  6491  2          +
 00061C 5000 D048            00000  6496  2          +
 000620 D201 D050 A398 00008 008D4  6497  2          +
 000626 9640 D052      0000A        6503  2          +
 00062A 58F0 A384/0DEF       008C0  6506  2          +
 000630 1840                        6508  2  484.17                LR    RJ,RVR
 USING  IOSRB,R4                    6509  2  484.18                WITH  (IOSRB,RJ),BEGIN        Addr to new IOCB
 000632                             6523  3  484.19                  CLEAR IOSRB
 000632 D73F 4000 4000 00000 00000  6529  3          +
 000638 D203 4000 A380 00000 008BC  6530  3  484.2                   MVC   IRBID,=CL4'iORB'
                                    6531  3  484.21   *
                                    6532  3  484.22   *  Put this newly allocated CB on the queue of available CBs
                                    6533  3  484.23   *
 00063E 9889 7008            00008  6534  3  484.24                  LM    RM,RN,IOCELHD
 000642                             6535  3  484.25                  LOOP  BEGIN
 000642 5080 4004            00004  6541  4  484.26                    ST    RM,IRBPFP
 000646 4150 9001            00001  6542  4  484.27                    LA    RK,@RN+1
1IOSUPER  (IOSU00) (09:41) (22MAR04) I/O id get                                                                             Page   48
0Current Usings:  (PZERO,R0) (IOSRB,R2) (IOSRB,R4) (IOSCB,R7) (IOSIDGET,R10) (@IOSIDGET-72,R12) (@VMGET-72,R13)
0Loc    Object Code    Addr1 Addr2  Stmt Lv Lineno    Source Statement           (Hibal 5, Asmedit 3.3)  HLASM R4.0  2004/03/22 09.41
+___    ______ ____    _____ _____  ____ __ ______    ______ _________
000064A BB84 7008            00008  6543  4  484.28                    CDS   RM,RJ,IOCELHD
 00064E 4770 A106            00642  6544  3  484.29                  UNTIL EQUAL,END
 DROP   IOSRB,R4                    6563  2  484.3                 END   ,                       OF Addr to new IOCB
 000652                             6571  1  484.31              END   ,                       OF Alloc new IOCB
 000652 1802                        6575  1  484.32             $LA    RVR,IOSRB               Set return
 DROP   IOSRB,R2                    6582     485.              END   ,                       OF Set up IRB
                                    6590     486.
 000654 47F0 A16E            006AA  6591     488.              EXIT  IOSIDGET
                                    6594     489.     *
                                    6595     490.     *  No ids available - see if we can wait
                                    6596     491.     *
 000658                             6597     492.     IDWAIT   LABEL ,
 000658 9180 C048      00000        6599     493.              IF    @IOSFWAIT,BEGIN         We can wait
 00065C 47E0 A156            00692  6609             +
 000660                             6614  1  494.                VMGET L'IOSRB,LOC=GLOBHI,FIX=YES,ONEPAGE=YES
 000660 D70A D048 D048 00000 00000  6631  1          +
 000666 4100 0040            00040  6643  1          +
 00066A 5000 D048            00000  6648  1          +
 00066E D201 D050 A398 00008 008D4  6649  1          +
 000674 9640 D052      0000A        6655  1          +
 000678 58F0 A384/0DEF       008C0  6658  1          +
 00067E 1820                        6660  1  495.                LR    RA,RVR
 USING  IOSRB,R2                    6661  1  501.02              WITH  (IOSRB,RA)
 000680                             6674  1  501.1               CLEAR IOSRB
 000680 D73F 2000 2000 00000 00000  6680  1          +
 000686 D203 2000 A35C 00000 00898  6681  1  501.3               MVC   IRBID,=CL4'IORB'        Set ID
 00068C D207 2008 0208 00008 00208  6682  1  501.4               MVC   IRBPID,PZCURPID
 DROP   IOSRB,R2                    6683     502.              END   ,                       OF We can wait
 000692 A15A           00692 0065E  6692     502.01            ELSE  BEGIN                   We can't wait
 000692 47F0 A16E            006AA  6697             +
 000696 5820 7010            00010  6703  1  502.02              L     RA,IOCELNEED            Increment cells needed
 00069A                             6704  1  502.03              LOOP  BEGIN
 00069A 1832                        6710  2  502.04                LR    RB,RA
 00069C 5E30 A388            008C4  6711  2  502.05                INCR  RB
 0006A0 BA23 7010            00010  6714  2  502.06                CS    RA,RB,IOCELNEED
 0006A4 4770 A15E            0069A  6715  1  502.07              UNTIL EQUAL,END
 0006A8 1B00                        6734  1  502.98              CLEAR RVR                     Say we couldn't accomodate...
 0006AA                             6738     502.99            END   ,                       OF We can't wait
 DROP   PZERO,R0                    6742     503.              DROP  R0
 0006AA 981F C008            00008  6750     504.              PEND  ,
 DROP   IOSCB,R7
 DROP   @IOSIDGET-72,R12
 DROP   IOSIDGET,R10
 0006AE 9680 C000/0B0E 00000        6770             +
 DROP   @VMGET-72,R13
1IOSUPER  (IOSU00) (09:41) (22MAR04) I/O id free                                                                            Page   49
0Loc    Object Code    Addr1 Addr2  Stmt Lv Lineno    Source Statement           (Hibal 5, Asmedit 3.3)  HLASM R4.0  2004/03/22 09.41
+___    ______ ____    _____ _____  ____ __ ______    ______ _________
0                                   6780     506.     *********************************************************************
                                    6781     507.     *                                                                   *
                                    6782     508.     *  I/O id free                                                      *
                                    6783     509.     *                                                                   *
                                    6784     510.     *   Input - @IOSIDFRE                                               *
                                    6785     511.     *                                                                   *
                                    6786     512.     *  Output - none                                                    *
                                    6787     513.     *                                                                   *
                                    6788     514.     *********************************************************************
00006B4                             6790     516.     IOSIDFRE PROC  @IOSIDFRE,#LCLPSWM,SCOPE=GLOBAL
 0006B4 C9D6E2C9C4C6D9C5            6796             +
 0006BC 0008/0008                   6797             +
 0006C0 900F D004/18AF       00004  6799             +
 USING  IOSIDFRE,R10
 0006C6 50D0 C000/18CD       00000  6814             +
 0006CC 9680 C000      00000        6816             +
 USING  @IOSIDFRE-72,R12
 AUSING (#LCLPSWM,@IOSIDFRE+8)
 0006D0 41D0 C058            00058  6835             +
 0006D4 5870 0200            00200  6836     517.              IOAD  RY
 USING  PZERO,R0
 DROP   PZERO,R0
 USING  MAT,R7
 0006D8 5870 701C            0001C  6870             +
 DROP   MAT,R7
 USING  IOSCB,R7
                                    6892     518.     *
                                    6893     519.     *  Free this id
                                    6894     520.     *
 0006DC 5840 C048            00000  6895     521.              L     RJ,@IOSFID
 USING  IOSRB,R4                    6896     521.1             WITH  (IOSRB,RJ),BEGIN
 0006E0                             6910  1  521.11              IF    (IRBID,NE,=CL4'IORB'),'ABORT BADIRBFREE'
 0006E0 D503 A1D8 4000 00898 00000  6921  1          +
 0006E6 4780 A05A            0071A  6922  1          +
 USING  PZERO,R0
 0006EA AC04 021B      0021B        6940  2          +
 0006EE 9680 021A      0021A        6946  2          +
 0006F2 50F0 021C            0021C  6947  2          +
 0006F6 58F0 0210            00210  6948  2          +
 0006FA 89F0 0010            00010  6949  2          +
 0006FE 88F0 0010            00010  6950  2          +
 000702 41F0 F000            00000  6951  2          +
 000706 AEFF 0006            00006  6952  2          +
 00070A C2C1C4C9D9C2C6D9            6953  1          +
 DROP   PZERO,R0
 00071A 9180 4032      00032        6966  1  521.12              IF    IRBFIO,'ABORT FREIRBFLG'
 00071E 47E0 A092            00752  6976  1          +
 USING  PZERO,R0
 000722 AC04 021B      0021B        6994  2          +
 000726 9680 021A      0021A        7000  2          +
 00072A 50F0 021C            0021C  7001  2          +
 00072E 58F0 0210            00210  7002  2          +
 000732 89F0 0010            00010  7003  2          +
 000736 88F0 0010            00010  7004  2          +
 00073A 41F0 F000            00000  7005  2          +
1IOSUPER  (IOSU00) (09:41) (22MAR04) I/O id free                                                                            Page   50
0Current Usings:  (PZERO,R0) (IOSRB,R4) (IOSCB,R7) (IOSIDFRE,R10) (@IOSIDFRE-72,R12)
0Loc    Object Code    Addr1 Addr2  Stmt Lv Lineno    Source Statement           (Hibal 5, Asmedit 3.3)  HLASM R4.0  2004/03/22 09.41
+___    ______ ____    _____ _____  ____ __ ______    ______ _________
000073E AEFF 0006            00006  7006  2          +
 000742 C6D9C5C9D9C2C6D3            7007  1          +
 DROP   PZERO,R0
 000752 9289 4000      00000        7020  1  521.21              MVI   IRBID,C'i'              Change ID
 DROP   IOSRB,R4                    7021     521.3             END   ,
 000756 9823 7008            00008  7029     522.              LM    RA,RB,IOCELHD
 00075A                             7030     523.              LOOP  BEGIN                   Free id
 USING  IOSRB,R4                    7036  1  524.                WITH  (IOSRB,RJ)
 00075A 5020 4004            00004  7049  1  525.                ST    RA,IRBPFP               Point fwd to old head
 00075E 4150 3001            00001  7050  1  526.                LA    RK,@RB+1
 000762 BB24 7008            00008  7051  1  527.                CDS   RA,RJ,IOCELHD
 000766 4770 A09A            0075A  7052     528.              UNTIL EQUAL,END               OF Free id
 DROP   IOSRB,R4
 00076A 981F C008            00008  7076     560.              PEND  ,
 DROP   IOSCB,R7
 DROP   @IOSIDFRE-72,R12
 DROP   IOSIDFRE,R10
 00076E 9680 C000/0B0E 00000        7096             +
1IOSUPER  (IOSU00) (09:41) (22MAR04) IOSUPER - Address space creation                                                       Page   51
0Loc    Object Code    Addr1 Addr2  Stmt Lv Lineno    Source Statement           (Hibal 5, Asmedit 3.3)  HLASM R4.0  2004/03/22 09.41
+___    ______ ____    _____ _____  ____ __ ______    ______ _________
0                                   7103     562.     *********************************************************************
                                    7104     563.     *  Address space creation                                           *
                                    7105     564.     *                                                                   *
                                    7106     565.     *   Input - @IOSASC                                                 *
                                    7107     566.     *                                                                   *
                                    7108     567.     *  Output - None                                                    *
                                    7109     568.     *                                                                   *
                                    7110     569.     *********************************************************************
0000774                             7112     571.     IOSASC   PROC  @IOSASC,SCOPE=GLOBAL
 000774 C9D6E2C1E2C34040            7118             +
 00077C 0008/0000                   7119             +
 000780 900F D004/18AF       00004  7121             +
 USING  IOSASC,R10
 000786 50D0 C000/18CD       00000  7136             +
 00078C 9680 C000      00000        7138             +
 USING  @IOSASC-72,R12
 000790 41D0 C050            00050  7152             +
 000794 981F C008            00008  7153     571.1             PEND  ,
 DROP   @IOSASC-72,R12
 DROP   IOSASC,R10
 000798 9680 C000/0B0E 00000        7168             +
                                    7174     572.     *        L     RY,@IOASCAS
                                    7175     573.     *        WITH  (ASB,RY)
                                    7176     574.     *
                                    7177     575.     *  Allocate control block
                                    7178     576.     *        VMGET L'ASBIOCB,LOC=GLOBHI,FIX=YES
                                    7179     577.     *        LR    RX,RVR
                                    7180     578.     *        WITH  (ASBIOCB,RX)
                                    7181     579.     *        CLEAR ASBIOCB
                                    7182     580.     *
                                    7183     581.     *  Get lock for address space I/O
                                    7184     582.     *          LKCRE ASBIOLK,TYPE=SPIN
                                    7185     583.     *          ST    RVR,AIOLOCK
                                    7186     584.     *
                                    7187     585.     *  Init list of pending I/Os
                                    7188     586.     *          LA    RA,AIOPEND              Init list of pending I/Os
                                    7189     587.     *          ST    RA,AIOPFP               |
                                    7190     588.     *          ST    RA,AIOPBP               |
                                    7191     589.     *
                                    7192     590.     *  Link ASB and I/O control block
                                    7193     591.     *        PMOV  AIOASB,LA:ASB           Point at ASB
                                    7194     592.     *        PMOV  ASBIOB,LA:ASBIOCB       ASB points here too
                                    7195     593.     *        PEND  ,
1IOSUPER  (IOSU00) (09:41) (22MAR04) Global initialization for I/O supervisor                                               Page   52
0Loc    Object Code    Addr1 Addr2  Stmt Lv Lineno    Source Statement           (Hibal 5, Asmedit 3.3)  HLASM R4.0  2004/03/22 09.41
+___    ______ ____    _____ _____  ____ __ ______    ______ _________
0                                   7197     595.     *********************************************************************
                                    7198     596.     *  Global initialization for I/O supervisor                         *
                                    7199     597.     *                                                                   *
                                    7200     598.     *   Input - None                                                    *
                                    7201     599.     *                                                                   *
                                    7202     600.     *  Output - None                                                    *
                                    7203     601.     *                                                                   *
                                    7204     602.     *********************************************************************
000079E                             7206     604.     IOSINIT  PROC  SCOPE=GLOBAL
 00079E C9D6E2C9D5C9E340            7212             +
 0007A6 0000/0000                   7213             +
 0007AA 900F D004/18AF       00004  7215             +
 USING  IOSINIT,R10
 0007B0 50D0 C000/18CD       00000  7230             +
 0007B6 9680 C000      00000        7232             +
 0007BA 41D0 C048            00048  7233             +
                                    7234     605.     *
                                    7235     606.     *  Allocate and initialize global I/O control block
                                    7236     607.     *
 USING  @VMGET-72,R13               7237     608.              VMGET L'IOSCB,LOC=GLOBHI,FIX=YES
 0007BE D70A D048 D048 00000 00000  7261             +
 0007C4 4100 0014            00014  7273             +
 0007C8 5000 D048            00000  7278             +
 0007CC D201 D050 A12A 00008 008D4  7279             +
 0007D2 58F0 A116/0DEF       008C0  7282             +
 0007D8 1870                        7284     609.              LR    RY,RVR
 USING  IOSCB,R7                    7285     610.              WITH  (IOSCB,RY)
 0007DA                             7298     611.              CLEAR IOSCB
 0007DA D713 7000 7000 00000 00000  7304             +
 0007E0 D203 7000 A11E 00000 008C8  7305     612.              MVC   IOCBID,=CL4'IOCB'
 0007E6 5860 0200            00200  7306     613.              L     RX,MATPTR               Save our roots
 USING  MAT,R6                      7307     614.              WITH  (MAT,RX),BEGIN
 0007EA 5070 601C            0001C  7321  1  615.                ST    RY,MATIOCB
 DROP   MAT,R6                      7322     616.              END   ,
                                    7330     617.     *
                                    7331     618.     *  Create a lock for cell pool
                                    7332     619.     *
 DROP   @VMGET-72,R13               7333     620.              LKCRE IOSCELL,TYPE=SPIN       Create a lock for cell pool
 USING  @LOCKCRE-72,R13
 0007EE D710 D048 D048 00000 00000  7354             +
 0007F4 D20F D048 A0DE 00000 00888  7360             +
 0007FA 9680 D058      00010        7366             +
 0007FE 58F0 A122/0DEF       008CC  7369             +
 000804 5000 7004            00004  7371     621.              ST    RVR,IOCELLK             |
                                    7372     622.     *
                                    7373     623.     *  Init global control blocks (IRB cells)
                                    7374     631.     *  Initialize cell pool
                                    7375     632.     *
 000808 4850 A12C            008D6  7376     633.              LH    RK,=Y(4096)             Number of cells/page
 00080C 1B44                        7377     634.              CLEAR RJ                      |
 00080E 41F0 0040            00040  7381     635.              LA    EPAR,L'IOSRB            |
 000812 1D4F                        7382     636.              DR    RJ,EPAR                 |
 000814 18F5                        7383     637.              LR    EPAR,RK                 Number of pages
 000816 4150 00C8            000C8  7384     638.              LA    RK,IOSIAMT              |
 00081A 1B44                        7385     639.              CLEAR RJ                      |
1IOSUPER  (IOSU00) (09:41) (22MAR04) Global initialization for I/O supervisor                                               Page   53
0Current Usings:  (IOSCB,R7) (IOSINIT,R10) (@LOCKCRE-72,R13)
0Loc    Object Code    Addr1 Addr2  Stmt Lv Lineno    Source Statement           (Hibal 5, Asmedit 3.3)  HLASM R4.0  2004/03/22 09.41
+___    ______ ____    _____ _____  ____ __ ______    ______ _________
000081C 1D4F                        7389     640.              DR    RJ,EPAR                 |
 00081E 1244/4780 A07E       00828  7390     641.              IF    (RJ,NZ),'INCR RK'       | round up
 000824 5E50 A11A            008C4  7407             +
 000828 8950 000C            0000C  7412     642.              SLL   RK,12                   | pages to bytes
 00082C 184F                        7413     643.              LR    RJ,EPAR                 | cells/page
 DROP   @LOCKCRE-72,R13             7414     644.              VMGET (RK),LOC=GLOBHI,FIX=YES,PAGE=YES
 USING  @VMGET-72,R13
 00082E D70A D048 D048 00000 00000  7441             +
 000834 5050 D048            00000  7451             +
 000838 D201 D050 A12A 00008 008D4  7452             +
 00083E 9680 D052      0000A        7458             +
 000842 58F0 A116/0DEF       008C0  7461             +
 000848 1880                        7463     645.              LR    RM,RVR                  Clear pages
 00084A 1895                        7464     646.              LR    RN,RK                   |
 00084C 1B33                        7465     647.              CLEAR RB                      |
 00084E 0E82                        7469     648.              MVCL  RM,RA                   |
 000850 8850 000C            0000C  7470     649.              SRL   RK,12                   Number of pages
 000854 1880                        7471     650.              LR    RM,RVR                  Starting address
                                    7472     651.     *
                                    7473     652.     *  Link all IRB cells
                                    7474     653.     *
 000856                             7475     654.              LOOP  BEGIN                   Link together all pages
 000856 1834                        7481  1  655.                LR    RB,RJ
 000858                             7482  1  659.                LOOP  BEGIN                   Link together cells on a page
 USING  IOSRB,R8                    7488  2  660.                  WITH  (IOSRB,RM)
 000858 D203 8000 A112 00000 008BC  7501  2  661.                  MVC   IRBID,=CL4'iORB'        Put in ID
 00085E D203 8004 7008 00004 00008  7502  2  662.                  MVC   IRBPFP,IOCELHD          Point to old head
 000864 5080 7008            00008  7503  2  663.                  ST    RM,IOCELHD              |
 000868 4180 8040            00040  7504  2  664.                  LA    RM,IOSRB+L'IOSRB        Next cell in page
 00086C 4630 A0AE            00858  7505  1  665.                UNTIL (BCT,RB),END            OF Link together cells on page
 DROP   IOSRB,R8
 000870 4180 8040            00040  7520  1  665.1               LA    RM,@RM+L'IOSRB
 000874 5480 A126            008D0  7521  1  666.                N     RM,=X'7FFFF000'
 000878 4650 A0AC            00856  7522     667.              UNTIL (BCT,RK),END            OF Link together all pages
 00087C 981F C008            00008  7532     668.              PEND  ,
 DROP   IOSCB,R7
 DROP   IOSINIT,R10
 000880 9680 C000/0B0E 00000        7547             +
 DROP   @VMGET-72,R13
                                    7556     669.     IOSIAMT  EQU   200
 000888                             7557     670.              END   .
 000888 C9D6E2C3C5D3D340            7560                             =CL16'IOSCELL'
 000898 C9D6D9C2                    7561                             =CL4'IORB'
 00089C 00000000                    7562                             =V(SYSRNEW)
 0008A0 00000000                    7563                             =V(SYSRDEL)
 0008A4 00000000                    7564                             =V(XITDO)
 0008A8 00000000                    7565                             =V(AWAIT)
 0008AC 00000000                    7566                             =V(AWAITAS)
 0008B0 00000000                    7567                             =V(SIGNALAS)
 0008B4 00000000                    7568                             =V(SYSRDO)
 0008B8 00000000                    7569                             =V(SIGNAL)
 0008BC 89D6D9C2                    7570                             =CL4'iORB'
 0008C0 00000000                    7571                             =V(VMGET)
 0008C4 00000001                    7572                             =A(1)
1IOSUPER  (IOSU00) (09:41) (22MAR04) Global initialization for I/O supervisor                                               Page   54
0Loc    Object Code    Addr1 Addr2  Stmt Lv Lineno    Source Statement           (Hibal 5, Asmedit 3.3)  HLASM R4.0  2004/03/22 09.41
+___    ______ ____    _____ _____  ____ __ ______    ______ _________
00008C8 C9D6C3C2                    7573                             =CL4'IOCB'
 0008CC 00000000                    7574                             =V(LKCRE)
 0008D0 7FFFF000                    7575                             =X'7FFFF000'
 0008D4 3F00                        7576                             =Y(63*256+0)
 0008D6 1000           008D8 008D8  7577                             =Y(4096)

1IOSUPER  (IOSU00) (09:41) (22MAR04) Ordinary Symbol and Literal Cross Reference                                            Page   55
-Symbol   Length   Value     Id    R Type   Defn References                                  HLASM R4.0  2004/03/22 09.41
0$$$@R0        1 00000000 FFFFFFFE     J     714 1010
 $$$@R1        1 00000000 FFFFFFFD     J     727 1022
 $$$@R10       1 00000000 FFFFFFF4     J     844 1142
 $$$@R11       1 00000000 FFFFFFF3     J     857 1154
 $$$@R12       1 00000000 FFFFFFF2     J     870 1166
 $$$@R13       1 00000000 FFFFFFF1     J     883 1178
 $$$@R14       1 00000000 FFFFFFF0     J     896 1190
 $$$@R15       1 00000000 FFFFFFEF     J     909 1202
 $$$@R2        1 00000000 FFFFFFFC     J     740 1034
 $$$@R3        1 00000000 FFFFFFFB     J     753 1046
 $$$@R4        1 00000000 FFFFFFFA     J     766 1058
 $$$@R5        1 00000000 FFFFFFF9     J     779 1070
 $$$@R6        1 00000000 FFFFFFF8     J     792 1082
 $$$@R7        1 00000000 FFFFFFF7     J     805 1094
 $$$@R8        1 00000000 FFFFFFF6     J     818 1106
 $$$@R9        1 00000000 FFFFFFF5     J     831 1118  1130
 $$$C1IOSUPER
               1 000008D8 00000001     J    7578 7580
 $$$R#LCLLOCK
               1 00000000 FFFFFFAE     J    3861 3874  3874
 $$$R@ACREATE
               1 00000000 FFFFFFE9     J    1394 1407  1407
 $$$R@AWAIT
               1 00000000 FFFFFFDD     J    1693 1715  1715
 $$$R@DISPPIOC
               1 00000000 FFFFFFEE     J    1260 1273  1273
 $$$R@DISPSIOC
               1 00000000 FFFFFFED     J    1279 1292  1292
 $$$R@DISPSWP
               1 00000000 FFFFFFEA     J    1371 1384  1384
 $$$R@DSPSTAT
               1 00000000 FFFFFFDE     J    1665 1681  1681
 $$$R@EXRADD
               1 00000000 FFFFFFDB     J    1764 1794  1794
 $$$R@EXRDEL
               1 00000000 FFFFFFDA     J    1804 1817  1817
 $$$R@EXRDONE
               1 00000000 FFFFFFD9     J    1827 1863  1863
 $$$R@IORB
               1 00000000 FFFFFFB7     J    3407 3426  3426
 $$$R@IOSASC
               1 00000000 FFFFFFB5     J    3468 3481  3481
 $$$R@IOSDOIO
               1 00000000 FFFFFFBC     J    3270 3308  3308
 $$$R@IOSIDFRE
               1 00000000 FFFFFFB8     J    3381 3394  3394
 $$$R@IOSIDGET
               1 00000000 FFFFFFB9     J    3354 3375  3375
 $$$R@IOSTIME
               1 00000000 FFFFFFBA     J    3334 3348  3348
 $$$R@IOTERM
               1 00000000 FFFFFFBB     J    3314 3328  3328
 $$$R@IOUPARM
               1 00000000 FFFFFFB6     J    3438 3461  3461
 $$$R@LADD
1IOSUPER  (IOSU00) (09:41) (22MAR04) Ordinary Symbol and Literal Cross Reference                                            Page   56
               1 00000000 FFFFFFBE     J    2675 2691  2691
 $$$R@LOCKCRE
               1 00000000 FFFFFFC2     J    2579 2601  2601
 $$$R@LOCKS
               1 00000000 FFFFFFC1     J    2607 2620  2620
 $$$R@LREM
               1 00000000 FFFFFFBD     J    2697 2714  2714
 $$$R@MONSET
               1 00000000 FFFFFFDF     J    1642 1655  1655
 $$$R@PAGASC1
               1 00000000 FFFFFFCB     J    2366 2380  2380
 $$$R@PAGASC2
               1 00000000 FFFFFFCA     J    2386 2400  2400
 $$$R@PAGDEF
               1 00000000 FFFFFFCD     J    2306 2333  2333
 $$$R@PAGE
               1 00000000 FFFFFFC9     J    2406 2422  2422
 $$$R@PAGINIT
               1 00000000 FFFFFFC6     J    2468 2482  2482
 $$$R@PAGINTV
               1 00000000 FFFFFFC7     J    2449 2462  2462
 $$$R@PAGRV
               1 00000000 FFFFFFC8     J    2428 2443  2443
 $$$R@PAGSEGD
               1 00000000 FFFFFFCC     J    2339 2360  2360
 $$$R@PAGSWADV
               1 00000000 FFFFFFCF     J    2257 2270  2270
 $$$R@PAGSWAP
               1 00000000 FFFFFFD0     J    2203 2251  2251
 $$$R@PAGWSMA
               1 00000000 FFFFFFCE     J    2276 2300  2300
 $$$R@PERSET
               1 00000000 FFFFFFE0     J    1619 1632  1632
 $$$R@RESUME
               1 00000000 FFFFFFEB     J    1346 1361  1361
 $$$R@SIGNAL
               1 00000000 FFFFFFDC     J    1726 1746  1746
 $$$R@SUSPEND
               1 00000000 FFFFFFEC     J    1302 1336  1336
 $$$R@SYSRDEL
               1 00000000 FFFFFFE3     J    1547 1560  1560
 $$$R@SYSRDO
               1 00000000 FFFFFFE2     J    1570 1586  1586
 $$$R@SYSRNEW
               1 00000000 FFFFFFE4     J    1525 1538  1538
 $$$R@SYSRTN
               1 00000000 FFFFFFE1     J    1596 1609  1609
 $$$R@TCREATE
               1 00000000 FFFFFFE8     J    1417 1446  1446
 $$$R@TENTRY
               1 00000000 FFFFFFE6     J    1479 1492  1492
 $$$R@TEXIT
               1 00000000 FFFFFFE5     J    1502 1515  1515
 $$$R@TREMOVE
               1 00000000 FFFFFFE7     J    1456 1469  1469
 $$$R@VMFREE
               1 00000000 FFFFFFC4     J    2530 2545  2545
 $$$R@VMGET
               1 00000000 FFFFFFC5     J    2495 2524  2524
1IOSUPER  (IOSU00) (09:41) (22MAR04) Ordinary Symbol and Literal Cross Reference                                            Page   57
 $$$R@VMINFO
               1 00000000 FFFFFFC3     J    2551 2566  2566
 $$$R@XITDATA
               1 00000000 FFFFFFD2     J    2149 2162  2162
 $$$R@XITDEL
               1 00000000 FFFFFFD7     J    1904 1917  1917
 $$$R@XITDO
               1 00000000 FFFFFFD6     J    1926 1943  1943
 $$$R@XITGPST
               1 00000000 FFFFFFD5     J    1954 1969  1969
 $$$R@XITMASK
               1 00000000 FFFFFFD4     J    1979 2026  2026
 $$$R@XITNEW
               1 00000000 FFFFFFD8     J    1873 1894  1894
 $$$RASB       1 00000000 FFFFFFB2     J    3659 3710  3710
 $$$RASBIOCB
               1 00000000 FFFFFFB0     J    3795 3819  3819
 $$$RIOSCB
               1 00000000 FFFFFFAF     J    3827 3855  3855
 $$$RIOSRB
               1 00000000 FFFFFFB1     J    3716 3788  3788
 $$$RLELEM
               1 00000000 FFFFFFBF     J    2654 2669  2669
 $$$RLHEAD
               1 00000000 FFFFFFC0     J    2632 2648  2648
 $$$RMAT       1 00000000 FFFFFFB4     J    3495 3554  3554
 $$$RPZERO
               1 00000000 FFFFFFB3     J    3561 3652  3652
 $$$RXITMSKD
               1 00000000 FFFFFFD3     J    2052 2139  2139
 $$$RXITSAREA
               1 00000000 FFFFFFD1     J    2172 2188  2188
 $$$10F        2 000000B2 00000001     H    4099 4056B
 $$$11F        2 000000D0 00000001     H    4151 4141B
 $$$13F        2 00000102 00000001     H    4212 4197B
 $$$14F        2 0000010E 00000001     H    4238 4223B
 $$$15F        2 0000011A 00000001     H    4264 4249B
 $$$16F        2 00000142 00000001     H    4334 4277B 4303B
 $$$16T        2 00000132 00000001     H    4306 4293B
 $$$20B        4 00000168 00000001     I    4404 4831
 $$$20F        2 0000027A 00000001     H    4823 4404B 4830
 $$$21F        2 000001A6 00000001     H    4464 4421B
 $$$22F        2 000001DE 00000001     H    4518 4475B
 $$$23F        2 000001F6 00000001     H    4547 4536B
 $$$24F        2 00000226 00000001     H    4637 4573B 4599B
 $$$24T        2 00000214 00000001     H    4602 4589B
 $$$27B        4 0000022A 00000001     I    4656 4668
 $$$27F        2 00000230 00000001     H    4665 4656B 4667
 $$$28E        2 00000234 00000001     H    4675 4669
 $$$28F        2 0000027A 00000001     H    4819 4671B
 $$$29B        4 00000238 00000001     I    4687 4729
 $$$29F        2 0000024C 00000001     H    4726 4687B 4728
 $$$30E        2 00000250 00000001     H    4736 4730
 $$$30F        2 0000027A 00000001     H    4815 4732B
 $$$31E        2 0000027E 00000001     H    4838 4832
 $$$31F        2 000002AA 00000001     H    4925 4834B 4847B
 $$$33F        2 000002A4 00000001     H    4911 4901B
 $$$35S        2 00000310 00000001     H    5061 5478B
 $$$36F        2 00000328 00000001     H    5121 5110B
1IOSUPER  (IOSU00) (09:41) (22MAR04) Ordinary Symbol and Literal Cross Reference                                            Page   58
 $$$37F        2 00000368 00000001     H    5180 5137B
 $$$38F        2 000003A0 00000001     H    5234 5191B
 $$$39B        4 000003A8 00000001     I    5252 5295
 $$$39F        2 000003BC 00000001     H    5291 5252B 5294
 $$$40B        4 000003CC 00000001     I    5325 5392
 $$$40E        2 000003C0 00000001     H    5302 5296
 $$$40F        2 000003E8 00000001     H    5387 5298B 5313B 5325B 5389
 $$$42B        4 000003C4 00000001     I    5313 5390
 $$$43E        2 000003EC 00000001     H    5399 5391  5393
 $$$43F        2 00000410 00000001     H    5460 5395B
 $$$48B        4 000004A4 00000001     I    5827 5890
 $$$48F        2 000004C2 00000001     H    5883 5827B 5889
 $$$49E        2 000004C6 00000001     H    5897 5891
 $$$49F        2 000004F2 00000001     H    5971 5893B
 $$$51F        2 000006AA 00000001     H    6768 6593B
 $$$52S        2 0000055C 00000001     H    6227 6275B
 $$$56F        2 000005AE 00000001     H    6346 6320B
 $$$57F        2 000005E8 00000001     H    6385 6359B
 $$$58F        2 00000652 00000001     H    6574 6405B 6418B
 $$$60S        2 00000606 00000001     H    6427 6446B
 $$$63S        2 00000642 00000001     H    6539 6557B
 $$$66B        4 0000065C 00000001     I    6609 6694
 $$$66F        2 00000692 00000001     H    6691 6609B 6693
 $$$67E        2 00000696 00000001     H    6701 6695
 $$$67F        2 000006AA 00000001     H    6741 6697B
 $$$68S        2 0000069A 00000001     H    6708 6728B
 $$$72F        2 0000071A 00000001     H    6965 6922B
 $$$73F        2 00000752 00000001     H    7019 6976B
 $$$74S        2 0000075A 00000001     H    7034 7065B
 $$$79F        2 00000828 00000001     H    7411 7399B
 $$$80S        2 00000856 00000001     H    7479 7527B
 $$$81S        2 00000858 00000001     H    7486 7510B
 $$$9F         2 0000007A 00000001     H    4045 4002B
 #LCLLOCK      1 00000000 FFFFFFAE     J    3874 3963U 5560U 5750U
 #LCLPSWM      1 00000000 FFFFFFAE     X    3867 4357M 4378  6151U 6833U
 @AWAIT        5 00000000 FFFFFFDD     J    1715 4864U 4872M 4872
 @AWTECB       4 00000000 FFFFFFDD     A    1699 4889M
 @AWTFLG       1 00000004 FFFFFFDD     R    1702 1706
 @EXRAFLG      1 00000014 FFFFFFDB     R    1776 1780  1785
 @EXRDCD       1 00000000 FFFFFFD9     R    1835 1844  1854
 @IOSASC       4 00000000 FFFFFFB5     J    3481 7148U
 @IOSCHID      4 00000000 FFFFFFBC     A    3276 4120
 @IOSCIRB      4 00000000 FFFFFFE1     U    5705 5753
 @IOSCP        4 00000010 FFFFFFBC     A    3279 4160
 @IOSCPC       4 00000004 FFFFFFE1     U    5706 5875  5946
 @IOSDOIO     30 00000000 FFFFFFBC     J    3308 3956U 3963U
 @IOSFAS      64 0000001D FFFFFFBC         3294 4222
 @IOSFAST     32 0000001D FFFFFFBC         3299 4248
 @IOSFID       4 00000000 FFFFFFB8     A    3387 6895
 @IOSFSYNC
             128 0000001D FFFFFFBC         3289 4140  4196
 @IOSFWAIT
             128 00000000 FFFFFFB9         3366 6404  6608
 @IOSF1        1 0000001D FFFFFFBC     R    3285 3289  3294  3299
 @IOSID        4 00000004 FFFFFFBC     A    3277 3966
 @IOSIDF       1 00000000 FFFFFFB9     R    3362 3366
 @IOSIDFRE
               4 00000000 FFFFFFB8     J    3394 6826U 6833U
 @IOSIDGET
1IOSUPER  (IOSU00) (09:41) (22MAR04) Ordinary Symbol and Literal Cross Reference                                            Page   59
               1 00000000 FFFFFFB9     J    3375 6144U 6151U
 @IOSIOTIME
               8 00000008 FFFFFFBA     D    3341 6066M
 @IOSKEY       1 0000001C FFFFFFBC     X    3282 4179
 @IOSPID       8 00000008 FFFFFFBC     D    3278 4121
 @IOSTID       4 00000000 FFFFFFBA     A    3340 6052
 @IOSTIME     16 00000000 FFFFFFBA     J    3348 6047U
 @IOSXID       4 00000014 FFFFFFBC     A    3280 4177
 @IOSXPAR      4 00000018 FFFFFFBC     A    3281 4178
 @IOTEND       4 00000004 FFFFFFBB     A    3321 4790M 5595  5629M 5946M
 @IOTERM       8 00000000 FFFFFFBB     J    3328 4704U 4712M 4712  4764U 5269U 5277M 5277  5553U 5560U 5606U 5614M 5614
                                                 5935U
 @IOTPARM      4 00000000 FFFFFFBB     A    3320 4713M 4780M 5278M 5563  5619M 5941M
 @LFSPIN     128 00000010 FFFFFFC2         2592 7366M
 @LOCKCRE     17 00000000 FFFFFFC2     J    2601 7346U 7354M 7354
 @LOCKFL       1 00000010 FFFFFFC2     R    2588 2592
 @LOCKNAM     16 00000000 FFFFFFC2     C    2585 7360M
 @PAGKEY       1 00000008 FFFFFFC9     X    2414 2415
 @PDF1         1 00000009 FFFFFFCD     R    2318 2319  2324
 @RA           0 00000000 FFFFFFFC     @    1035 4161  4359
 @RB           0 00000000 FFFFFFFB     @    1047 6260  7050
 @RM           0 00000000 FFFFFFF6     @    1107 7520
 @RN           0 00000000 FFFFFFF5     @    1119 6542
 @R0           0 00000000 FFFFFFFE     @     715  991U 4039U 4093U 4157U 4375U 4458U 4512U 5005U 5084U 5174U 5228U 6170U
                                                 6747U 6852U 6959U 7013U
 @R1           0 00000000 FFFFFFFD     @     728  987U
 @R10          0 00000000 FFFFFFF4     @     845  951U 4942U 5014U 5495U 5684U 5988U 6083U 6766U 7092U 7164U 7543U
 @R11          0 00000000 FFFFFFF3     @     858  947U
 @R12          0 00000000 FFFFFFF2     @     871  943U 4937U 5679U 5983U 6078U 6761U 7087U 7159U
 @R13          0 00000000 FFFFFFF1     @     884  939U 4613U 4701U 4747U 4861U 4953U 5340U 5413U 5506U 5640U 5842U 5908U
                                                 5999U 6777U 7343U 7430U 7554U
 @R14          0 00000000 FFFFFFF0     @     897  935U
 @R15          0 00000000 FFFFFFEF     @     910  931U
 @R2           0 00000000 FFFFFFFC     @     741  983U 5487U 5674U 5978U 6073U 6284U 6588U 6688U
 @R3           0 00000000 FFFFFFFB     @     754  979U
 @R4           0 00000000 FFFFFFFA     @     767  975U 6569U 7027U 7074U
 @R5           0 00000000 FFFFFFF9     @     780  971U
 @R6           0 00000000 FFFFFFF8     @     793  967U 7328U
 @R7           0 00000000 FFFFFFF7     @     806  963U 4932U 6195U 6756U 6877U 7082U 7538U
 @R8           0 00000000 FFFFFFF6     @     819  959U 7516U
 @R9           0 00000000 FFFFFFF5     @     832  955U
 @SDF1         1 00000009 FFFFFFCC     R    2350 2351
 @SGCODE       8 00000000 FFFFFFDC     D    1732 5379M 5875M
 @SGECB        4 00000008 FFFFFFDC     A    1733 5368M 5870M
 @SIGNAL      20 00000000 FFFFFFDC     J    1746 5343U 5351M 5351  5845U 5853M 5853
 @SUSPFLG      1 00000008 FFFFFFEC     R    1313 1317  1322  1327
 @SWFLG        1 00000004 FFFFFFD0     R    2213 2222  2232  2242
 @SYSPARS      4 00000000 FFFFFFE1     A    1602 5705  5706
 @SYSRASB      4 00000004 FFFFFFE2     A    1577 5434M
 @SYSRDEL      4 00000000 FFFFFFE3     J    1560 4616U 4624M 4624  5784U 5792M 5792
 @SYSRDID      4 00000000 FFFFFFE3     A    1553 4629M 5797M
 @SYSRDO      28 00000000 FFFFFFE2     J    1586 5416U 5424M 5424
 @SYSRID       4 00000000 FFFFFFE2     A    1576 5429M
 @SYSRLOC      4 00000008 FFFFFFE2     A    1578 5451M
 @SYSRNEW      4 00000000 FFFFFFE4     J    1538 4317U 4325M 4325
 @SYSRPRM      4 0000000C FFFFFFE2     A    1579 5452M
 @SYSRTN      16 00000000 FFFFFFE1     J    1609 5743U 5750U
 @TCRFLAG      1 00000014 FFFFFFE8     R    1428 1432  1437
 @VMGET       11 00000000 FFFFFFC5     J    2524 6471U 6479M 6479  6631M 6631  7253U 7261M 7261  7433U 7441M 7441
1IOSUPER  (IOSU00) (09:41) (22MAR04) Ordinary Symbol and Literal Cross Reference                                            Page   60
 @VMGFLG       1 0000000A FFFFFFC5     R    2506 2510  2515
 @VMGLEN       4 00000000 FFFFFFC5     A    2501 6496M 6648M 7278M 7451M
 @VMGONEP     64 0000000A FFFFFFC5         2515 6503M 6655M
 @VMGPAGE    128 0000000A FFFFFFC5         2510 7458M
 @VMGPOOL      2 00000008 FFFFFFC5     H    2503 6497M 6649M 7279M 7452M
 @WSFLG        1 0000000C FFFFFFCE     R    2287 2291
 @XITDO       32 00000000 FFFFFFD6     J    1943 4750U 4758M 4758  5911U 5919M 5919
 @XITMREQ      1 00000004 FFFFFFD4     R    1988 1997  2007  2017
 @XITNFL       1 00000000 FFFFFFD8     R    1881 1885
 @XITPARM     16 00000010 FFFFFFD6     X    1936 4764U 5935U
 @XITRQID      4 00000000 FFFFFFD6     A    1932 4770M 5924M
 @XITTSK       4 00000004 FFFFFFD6     A    1933 4775M 5929M
 @XITTYPE      1 00000008 FFFFFFD6     X    1934 4807M 5963M
 ASBGCFLG      1 00000014 FFFFFFB2     R    3680 3684
 AWAIT         1 00000000 00000005     T    7565 7565
 AWAITAS       1 00000000 00000006     T    7566 7566
 BR           10 0000000A FFFFFFFF A   #    1136 3930M 3940U 4965U 5038M 5048U 5527M 5537U 5717M 5727U 6021M 6031U 6118M
                                                 6128U 6800M 6810U 7122M 7132U 7216M 7226U
 DISABLE       1 00000004 00000001 A   U    1233 4357
 DOIOKAP       2 000002C0 00000001     H    4975 4971B
 DOIOKAP1      4 000002B4 00000001     I    4970 4170B
 DOIOKAP2      4 000002BC 00000001     I    4972 4388B
 EPAR         15 0000000F FFFFFFFF A   #    1196 3930  4328M 4329B 4632M 4633B 4721M 4722B 4810M 4811B 4890M 4907M 4917B
                                                 5038  5286M 5287B 5382M 5383B 5455M 5456B 5527  5630M 5631B 5717  5800M
                                                 5801B 5878M 5879B 5966M 5967B 6021  6118  6506M 6507B 6658M 6659B 6800
                                                 7122  7216  7282M 7283B 7369M 7370B 7381M 7382  7383M 7389  7413  7461M
                                                 7462B
 HIBAL         1 00000000 FFFFFFFF     J     700  716   729   742   755   768   781   794   807   820   833   846   859
                                                  872   885   898   911  1012  1024  1036  1048  1060  1072  1084  1096
                                                 1108  1120  1132  1144  1156  1168  1180  1192  1204
 IDWAIT        2 00000658 00000001     H    6598 6240B
 IOCBID        4 00000000 FFFFFFAF     C    3833 7305M
 IOCELHD       8 00000008 FFFFFFAF     D    3847 6222  6261M 6534  6543M 7029  7051M 7502  7503M
 IOCELLK       4 00000004 FFFFFFAF     A    3845 7371M
 IOCELNEED
               4 00000010 FFFFFFAF     A    3848 6416  6432M 6703  6714M
 IOSASC        4 00000780 00000001     I    7121 7116  7132U
 IOSCB        20 00000000 FFFFFFAF     J    3855 6206U 6888U 7273  7294U 7304M 7304
 IOSCOMP       4 00000476 00000001     I    5716 5446  5727U
 IOSDCOMP      4 0000042E 00000001     I    5526 4721  5286  5537U
 IOSDOIO       4 00000022 00000001     I    3929 3924  3940U 4965U
 IOSIAMT       1 000000C8 00000001 A   U    7556 7384
 IOSIDFRE      4 000006C0 00000001     I    6799 6794  6810U
 IOSIDGET      4 0000053C 00000001     I    6117 6112  6128U
 IOSINIT       4 000007AA 00000001     I    7215 7210  7226U
 IOSINTER      4 000002FC 00000001     I    5037 5032  5048U
 IOSRB        64 00000000 FFFFFFB1     J    3788 3976U 5096U 5573U 5763U 6062U 6255U 6298U 6491  6518U 6529M 6529  6643
                                                 6670U 6680M 6680  6905U 7045U 7381  7497U 7504  7504  7520
 IOSTIME       4 00000508 00000001     I    6020 6015  6031U
 IOSUPER       1 00000000 00000001     J    1220 1217  1218  1222  1274  1293  1337  1362  1385  1408  1447  1470  1493
                                                 1516  1539  1561  1587  1610  1633  1656  1682  1716  1747  1795  1818
                                                 1864  1895  1918  1944  1970  2027  2140  2163  2189  2252  2271  2301
                                                 2334  2361  2381  2401  2423  2444  2463  2483  2525  2546  2567  2602
                                                 2621  2649  2670  2692  2715  3309  3329  3349  3376  3395  3427  3462
                                                 3482  3555  3653  3711  3789  3820  3856  3875
 IOSU00        1 00000000 00000001     R    1229 1227
 IRBASB        4 00000008 FFFFFFB1     A    3725 5434
 IRBECB        8 00000010 FFFFFFB1     D    3727 3728  3989M 3989  4884  5363  5865
 IRBESTAT      4 00000014 FFFFFFB1     U    3728 4921M
1IOSUPER  (IOSU00) (09:41) (22MAR04) Ordinary Symbol and Literal Cross Reference                                            Page   61
 IRBEXIT       4 00000038 FFFFFFB1     A    3779 4177M 4770  5630  5924
 IRBFAS       64 00000030 FFFFFFB1         3751 4234M 4302  4598  4900  5324
 IRBFDISP     32 00000030 FFFFFFB1         3756 4260M 4276  4572  4686  5251
 IRBFIO      128 00000032 FFFFFFB1         3773 4055  4105M 4474  4525M 5190  5241M 6319  6975
 IRBFSYNC    128 00000030 FFFFFFB1         3746 4208M 4290  4586  4655  4846  5312  5826
 IRBF1         1 00000030 FFFFFFB1     R    3742 3746  3751  3756  3761  4186M 6309M
 IRBF2         1 00000032 FFFFFFB1     R    3769 3773
 IRBID         4 00000000 FFFFFFB1     C    3722 4001  4420  5136  6358  6386M 6530M 6681M 6921  7020M 7501M
 IRBKEY        1 0000001C FFFFFFB1     X    3733 4179M
 IRBORB       12 00000018 FFFFFFB1     U    3731 4349
 IRBPARM       4 00000018 FFFFFFB1     A    3732 4348M
 IRBPFP        4 00000004 FFFFFFB1     A    3723 6259  6541M 7049M 7502M
 IRBPGM        4 00000020 FFFFFFB1     A    3735 4176M
 IRBPID        8 00000008 FFFFFFB1     D    3724 4121M 4147M 6387M 6682M
 IRBSRID       4 00000034 FFFFFFB1     A    3778 4330M 4629  5429  5797
 IRBSSID       4 00000024 FFFFFFB1     A    3738 4120M 4355
 IRBTIME       8 00000028 FFFFFFB1     D    3739 4358M 4526  4527M 4528  4549M 5100  5101M 5102  5123M 6066
 IRBTSK        4 0000000C FFFFFFB1     A    3726 4775  5929
 IRBXPARM      4 0000003C FFFFFFB1     A    3780 4178M 4780  5619  5941
 LKCRE         1 00000000 0000000B     T    7574 7574
 MAT         256 00000000 FFFFFFB4     J    3554 6182U 6864U 7316U
 MATIOCB       4 0000001C FFFFFFB4     A    3512 6188  6870  7321M
 MATPTR        4 00000200 FFFFFFB4 A   A    3501 7306
 MITMK1        1 00000000 FFFFFFD3     R    2061 2065  2070  2075  2080  2085  2090  2095  2100
 MITMK2        1 00000001 FFFFFFD3     R    2106 2110  2115  2120
 PZABORT     128 0000021A FFFFFFB3         3633 4026M 4080M 4445M 4499M 4992M 5161M 5215M 6335M 6374M 6946M 7000M
 PZABR15       4 0000021C FFFFFFB3     A    3642 4027M 4081M 4446M 4500M 4993M 5162M 5216M 6336M 6375M 6947M 7001M
 PZABSM        1 0000021B FFFFFFB3     X    3641 4020M 4074M 4439M 4493M 4986M 5155M 5209M 6329M 6368M 6940M 6994M
 PZCURPID      8 00000208 FFFFFFB3     D    3617 4147  6387  6682
 PZERO       640 00000000 FFFFFFB3     J    3652 4018U 4072U 4129U 4367U 4437U 4491U 4984U 5076U 5153U 5207U 6162U 6217U
                                                 6844U 6938U 6992U
 PZIOSID       4 000000B8 FFFFFFB3     A    3602 4369  5078
 PZLCPUA       4 00000210 FFFFFFB3     A    3620 4028  4082  4447  4501  4994  5163  5217  6337  6376  6948  7002
 PZMATP        4 00000200 FFFFFFB3     A    3615 6164  6846
 PZTERMFL      1 0000021A FFFFFFB3     R    3629 3633  3638
 RA            2 00000002 FFFFFFFF A   #    1028 4160M 4161M 4176  4349M 4713  5096U 5278  5452  5563M 5573U 5753M 5763U
                                                 6052M 6062U 6222M 6237M 6237  6255U 6261M 6298U 6660M 6670U 6703M 6710
                                                 6714M 7029M 7049  7051M 7469M
 RAR          14 0000000E FFFFFFFF A   #    1184 4329M 4633M 4722M 4811M 4917M 4947B 5287M 5383M 5456M 5500B 5631M 5689B
                                                 5801M 5879M 5967M 5993B 6088B 6507M 6659M 6771B 7097B 7169B 7283M 7370M
                                                 7462M 7548B
 RB            3 00000003 FFFFFFFF A   #    1040 4369M 4661  4713  5078M 5278  5452  5595M 6222M 6710M 6713M 6714  7029M
                                                 7468M 7468  7481M
 RJ            4 00000004 FFFFFFFF A   #    1052 4526M 4548  5100M 5122  6259M 6261  6416M 6417M 6417  6429  6432M 6508M
                                                 6518U 6543  6895M 6905U 7045U 7051  7380M 7380  7382M 7388M 7388  7389M
                                                 7398M 7398  7413M 7481
 RK            5 00000005 FFFFFFFF A   #    1064 4526M 4529  5100M 5103  6260M 6429M 6431M 6432  6542M 7050M 7376M 7383
                                                 7384M 7407M 7412M 7464  7470M
 RM            8 00000008 FFFFFFFF A   #    1100 4528M 4543M 4548M 4549  5102M 5117M 5122M 5123  6534M 6541  6543M 7463M
                                                 7469M 7471M 7497U 7503  7504M 7520M 7521M
 RN            9 00000009 FFFFFFFF A   #    1112 4528M 4529M 4549  5102M 5103M 5123  6534M 7464M
 RS            1 00000001 FFFFFFFF A   #    1016 4355M 4369M 5078M
 RVR           0 00000000 FFFFFFFF A   #    1004 4330  4353M 4353  4661M 4802M 4884M 4921  4970M 4972M 5363M 5446M 5865M
                                                 5958M 6491M 6508  6581M 6643M 6660  6737M 6737  7273M 7284  7371  7463
                                                 7471
 RX            6 00000006 FFFFFFFF A   #    1076 7306M 7316U
 RY            7 00000007 FFFFFFFF A   #    1088 3966M 3976U 6164M 6182U 6188M 6206U 6846M 6864U 6870M 6888U 7284M 7294U
                                                 7321
 R0            0 00000000 FFFFFFFF A   #     708 3929  4018U 4072U 4129U 4367U 4437U 4491U 4984U 5037  5076U 5153U 5207U
1IOSUPER  (IOSU00) (09:41) (22MAR04) Ordinary Symbol and Literal Cross Reference                                            Page   62
                                                 5526  5716  6020  6117  6162U 6217U 6799  6844U 6938U 6992U 7121  7215
 R1            1 00000001 FFFFFFFF A   #     721 4945M 5498M 5687M 5991M 6086M 6769M 7095M 7167M 7546M
 R15          15 0000000F FFFFFFFF A   #     903 3929  4027  4028M 4029M 4030M 4031M 4032M 4032  4081  4082M 4083M 4084M
                                                 4085M 4086M 4086  4446  4447M 4448M 4449M 4450M 4451M 4451  4500  4501M
                                                 4502M 4503M 4504M 4505M 4505  4945M 4993  4994M 4995M 4996M 4997M 4998M
                                                 4998  5037  5162  5163M 5164M 5165M 5166M 5167M 5167  5216  5217M 5218M
                                                 5219M 5220M 5221M 5221  5498M 5526  5687M 5716  5991M 6020  6086M 6117
                                                 6336  6337M 6338M 6339M 6340M 6341M 6341  6375  6376M 6377M 6378M 6379M
                                                 6380M 6380  6769M 6799  6947  6948M 6949M 6950M 6951M 6952M 6952  7001
                                                 7002M 7003M 7004M 7005M 7006M 7006  7095M 7121  7167M 7215  7546M
 SIGNAL        1 00000000 00000009     T    7569 7569
 SIGNALAS      1 00000000 00000007     T    7567 7567
 SPR          13 0000000D FFFFFFFF A   #    1172 3929  3944  3945  3965M 4317U 4616U 4704U 4750U 4864U 5037  5052  5053
                                                 5055M 5269U 5343U 5416U 5526  5541  5542  5562M 5606U 5716  5731  5732
                                                 5752M 5784U 5845U 5911U 6020  6035  6036  6051M 6117  6132  6133  6153M
                                                 6471U 6799  6814  6815  6835M 7121  7136  7137  7152M 7215  7230  7231
                                                 7233M 7253U 7346U 7433U
 SYSRDEL       1 00000000 00000003     T    7563 7563
 SYSRDO        1 00000000 00000008     T    7568 7568
 SYSRNEW       1 00000000 00000002     T    7562 7562
 VMGET         1 00000000 0000000A     T    7571 7571
 WAR          12 0000000C FFFFFFFF A   #    1160 3944  3945M 3946  3956U 3965  4945  4946  5052  5053M 5054  5055  5498
                                                 5499  5541  5542M 5543  5553U 5562  5687  5688  5731  5732M 5733  5743U
                                                 5752  5991  5992  6035  6036M 6037  6047U 6051  6086  6087  6132  6133M
                                                 6134  6144U 6153  6769  6770  6814  6815M 6816  6826U 6835  7095  7096
                                                 7136  7137M 7138  7148U 7152  7167  7168  7230  7231M 7232  7233  7546
                                                 7547
 XITDO         1 00000000 00000004     T    7564 7564
 XITTIOCN      1 00000009 00000001 A   U    2043 4802  5958
 =A(1)         4 000008C4 00000001     A    7572 6713  7407
 =CL16'IOSCELL'
              16 00000888 00000001     C    7560 7360
 =CL4'iORB'
               4 000008BC 00000001     C    7570 6358  6530  7501
 =CL4'IOCB'
               4 000008C8 00000001     C    7573 7305
 =CL4'IORB'
               4 00000898 00000001     C    7561 4001  4420  5136  6386  6681  6921
 =V(AWAIT)
               4 000008A8 00000001     V    7565 4890
 =V(AWAITAS)
               4 000008AC 00000001     V    7566 4907
 =V(LKCRE)
               4 000008CC 00000001     V    7574 7369
 =V(SIGNAL)
               4 000008B8 00000001     V    7569 5878
 =V(SIGNALAS)
               4 000008B0 00000001     V    7567 5382
 =V(SYSRDEL)
               4 000008A0 00000001     V    7563 4632  5800
 =V(SYSRDO)
               4 000008B4 00000001     V    7568 5455
 =V(SYSRNEW)
               4 0000089C 00000001     V    7562 4328
 =V(VMGET)
               4 000008C0 00000001     V    7571 6506  6658  7282  7461
 =V(XITDO)
               4 000008A4 00000001     V    7564 4810  5966
 =X'7FFFF000'
1IOSUPER  (IOSU00) (09:41) (22MAR04) Ordinary Symbol and Literal Cross Reference                                            Page   63
               4 000008D0 00000001     X    7575 7521
 =Y(4096)      2 000008D6 00000001     Y    7577 7376
 =Y(63*256+0)
               2 000008D4 00000001     Y    7576 6497  6649  7279  7452

1IOSUPER  (IOSU00) (09:41) (22MAR04) Macro and Copy Code Source Summary                                                     Page   64
- Con Source                                        Volume    Members                        HLASM R4.0  2004/03/22 09.41
0     PRIMARY INPUT                                           $RL      CSECT    DROP     END      EX       IOAD     LADD
                                                              LLRU     LREM     LREMALL  LSTCHK   LTORG    POP
                                                              PRINT    PUSH     SLKOB    SLKRL    START    USING
   L2 WYL.GG.ORV.MACLIB                             SYSB02    $LKPARM  ABORT    ACALL    ASB      DISPPARM HEADER
                                                              IORPARM  IOSIPARM IOSPARM  LCALL    LELEM    LHEAD
                                                              LISTPARM LKCRE    LOCKPARM LSTMAC   MAT      MODULE
                                                              PAGEPARM PEND     PMOV     PROC     PSET     PZERO    REG
                                                              REGCH    SIGNL    SIGPARM  SPLEVEL  VCALL    VMGET
                                                              VMPARM   XITPARM
   L3 WYL.GG.SYS.MACLIB                             SYSB05    $BC      $BFLKUP  $BV      $CCLKUP  $CSS     $L       $LA
                                                              $LBLAD   $LEXP    $LOR     $REL     $RGLKUP  $USLKUP
                                                              AUSING   BEGIN    CLEAR    CSECT    DECR     DEFCC    DROP
                                                              ELSE     ELSEIF   END      EX       EXIT     FLAG     GEN
                                                              HIBAL    IDENT    IF       INCR     LABEL    LOOP     LT
                                                              LTORG    POP      PRINT    PUSH     RECORD   REGS     SET
                                                              START    STF      UNTIL    USING    WHILE    WITH

1         (IOSU00) (09:41) (22MAR04) General Purpose Register Cross Reference                                               Page   65
- Register  References (M=modified, B=branch, U=USING, D=DROP, N=index)                      HLASM R4.0  2004/03/22 09.41
0    0(0)     991U  992D 3929  4040D 4094D 4158D 4330  4353M 4353  4375U 4376D 4437U 4458U 4459D 4491U 4512U 4513D 4661M
             4802M 4807  4884M 4889  4921  4970M 4972M 4984U 5005U 5006D 5037  5084U 5085D 5153U 5174U 5175D 5207U 5228U
             5229D 5363M 5368  5446M 5451  5526  5716  5865M 5870  5958M 5963  6020  6117  6171D 6491M 6496  6508  6581M
             6643M 6648  6660  6737M 6737  6747U 6748D 6799  6853D 6960D 7014D 7121  7215  7273M 7278  7284  7371  7463
             7471
     1(1)     987U 3929  4355M 4359  4369M 4945M 5037  5078M 5498M 5526  5687M 5716  5991M 6020  6086M 6117  6769M 6799
             7095M 7121  7167M 7215  7546M
     2(2)     983U 3929  4160M 4161M 4176  4349M 4369M 4713  4945M 5037  5078M 5096U 5278  5452  5498M 5526  5563M 5573U
             5674U 5687M 5716  5753M 5763U 5978U 5991M 6020  6052M 6062U 6073U 6086M 6117  6222M 6237M 6237  6261M 6581
             6588U 6660M 6670U 6688U 6703M 6710  6714M 6769M 6799  7029M 7049  7051M 7095M 7121  7167M 7215  7469M 7546M
     3(3)     979U 3929  4369M 4661  4713  4790  4945M 5037  5078M 5278  5379  5452  5498M 5526  5595M 5629  5687M 5716
             5991M 6020  6086M 6117  6222M 6261M 6710M 6713M 6714  6769M 6799  7029M 7051M 7095M 7121  7167M 7215  7468M
             7468  7469M 7481M 7510M 7546M
     4(4)     975U 3929  4526M 4548  4945M 5037  5100M 5122  5498M 5526  5687M 5716  5991M 6020  6086M 6117  6259M 6261
             6416M 6417M 6417  6429  6432M 6508M 6518U 6543  6569U 6769M 6799  6895M 6905U 7027U 7045U 7051  7074U 7095M
             7121  7167M 7215  7380M 7380  7382M 7388M 7388  7389M 7398M 7398  7413M 7481  7546M
     5(5)     971U 3929  4526M 4529  4945M 5037  5100M 5103  5498M 5526  5687M 5716  5991M 6020  6086M 6117  6260M 6261
             6429M 6431M 6432  6542M 6543  6769M 6799  7050M 7051  7095M 7121  7167M 7215  7376M 7382M 7383  7384M 7389M
             7407M 7412M 7451  7464  7470M 7527M 7546M
     6(6)     967U 3929  4945M 5037  5498M 5526  5687M 5716  5991M 6020  6086M 6117  6769M 6799  7095M 7121  7167M 7215
             7306M 7316U 7328U 7546M
     7(7)     963U 3929  3966M 3976U 4348  4932U 4945M 5037  5498M 5526  5687M 5716  5991M 6020  6086M 6117  6164M 6182U
             6188M 6195U 6206U 6756U 6769M 6799  6846M 6864U 6870M 6877U 6888U 7082U 7095M 7121  7167M 7215  7284M 7294U
             7321  7538U 7546M
     8(8)     959U 3929  4528M 4543M 4548M 4549  4945M 5037  5102M 5117M 5122M 5123  5498M 5526  5687M 5716  5991M 6020
             6086M 6117  6534M 6541  6543M 6769M 6799  7095M 7121  7167M 7215  7463M 7469M 7471M 7497U 7503  7504M 7516U
             7520M 7521M 7546M
     9(9)     955U 3929  4528M 4529M 4549  4945M 5037  5102M 5103M 5123  5498M 5526  5687M 5716  5991M 6020  6086M 6117
             6534M 6543M 6769M 6799  7095M 7121  7167M 7215  7464M 7469M 7546M
    10(A)     951U 3929  3930M 3940U 4942U 4945M 4965U 5014U 5037  5038M 5048U 5495U 5498M 5526  5527M 5537U 5684U 5687M
             5716  5717M 5727U 5988U 5991M 6020  6021M 6031U 6083U 6086M 6117  6118M 6128U 6766U 6769M 6799  6800M 6810U
             7092U 7095M 7121  7122M 7132U 7164U 7167M 7215  7216M 7226U 7543U 7546M
    11(B)     947U 3929  4945M 5037  5498M 5526  5687M 5716  5991M 6020  6086M 6117  6769M 6799  7095M 7121  7167M 7215
             7546M
    12(C)     943U 3929  3944  3945M 3946  3956U 3965  4937U 4945M 4945  4946  5037  5052  5053M 5054  5055  5498M 5498
             5499  5526  5541  5542M 5543  5553U 5562  5679U 5687M 5687  5688  5716  5731  5732M 5733  5743U 5752  5983U
             5991M 5991  5992  6020  6035  6036M 6037  6047U 6051  6078U 6086M 6086  6087  6117  6132  6133M 6134  6144U
             6153  6761U 6769M 6769  6770  6799  6814  6815M 6816  6826U 6835  7087U 7095M 7095  7096  7121  7136  7137M
             7138  7148U 7152  7159U 7167M 7167  7168  7215  7230  7231M 7232  7233  7546M 7546  7547
    13(D)     939U 3929  3929  3944  3945  3965M 4317U 4613U 4616U 4701U 4704U 4747U 4750U 4861U 4864U 4945M 4953U 5037
             5037  5052  5053  5055M 5269U 5340U 5343U 5413U 5416U 5498M 5506U 5526  5526  5541  5542  5562M 5606U 5640U
             5687M 5716  5716  5731  5732  5752M 5784U 5842U 5845U 5908U 5911U 5991M 5999U 6020  6020  6035  6036  6051M
             6086M 6117  6117  6132  6133  6153M 6471U 6769M 6777U 6799  6799  6814  6815  6835M 7095M 7121  7121  7136
             7137  7152M 7167M 7215  7215  7230  7231  7233M 7253U 7343U 7346U 7430U 7433U 7546M 7554U
    14(E)     935U 3929  4329M 4633M 4722M 4811M 4917M 4945M 4947B 5037  5287M 5383M 5456M 5498M 5500B 5526  5631M 5687M
             5689B 5716  5801M 5879M 5967M 5991M 5993B 6020  6086M 6088B 6117  6507M 6659M 6769M 6771B 6799  7095M 7097B
             7121  7167M 7169B 7215  7283M 7370M 7462M 7546M 7548B
    15(F)     931U 3929  3930  4027  4028M 4029M 4030M 4031M 4031  4032M 4032  4081  4082M 4083M 4084M 4085M 4085  4086M
             4086  4328M 4329B 4446  4447M 4448M 4449M 4450M 4450  4451M 4451  4500  4501M 4502M 4503M 4504M 4504  4505M
             4505  4632M 4633B 4721M 4722B 4810M 4811B 4890M 4907M 4917B 4945M 4993  4994M 4995M 4996M 4997M 4997  4998M
             4998  5037  5038  5162  5163M 5164M 5165M 5166M 5166  5167M 5167  5216  5217M 5218M 5219M 5220M 5220  5221M
             5221  5286M 5287B 5382M 5383B 5455M 5456B 5498M 5526  5527  5630M 5631B 5687M 5716  5717  5800M 5801B 5878M
             5879B 5966M 5967B 5991M 6020  6021  6086M 6117  6118  6336  6337M 6338M 6339M 6340M 6340  6341M 6341  6375
             6376M 6377M 6378M 6379M 6379  6380M 6380  6506M 6507B 6658M 6659B 6769M 6799  6800  6947  6948M 6949M 6950M
             6951M 6951  6952M 6952  7001  7002M 7003M 7004M 7005M 7005  7006M 7006  7095M 7121  7122  7167M 7215  7216
1         (IOSU00) (09:41) (22MAR04) General Purpose Register Cross Reference                                               Page   66
             7282M 7283B 7369M 7370B 7381M 7382  7383M 7389  7413  7461M 7462B 7546M

1IOSUPER  (IOSU00) (09:41) (22MAR04) Diagnostic Cross Reference and Assembler Summary                                       Page   67
-                                                                                            HLASM R4.0  2004/03/22 09.41
0     No Statements Flagged in this Assembly
 HIGH LEVEL ASSEMBLER, 5696-234, RELEASE 4.0, PTF UQ57391
0SYSTEM: OS/390 02.10.00            JOBNAME: PJG#IOSU    STEPNAME: ASM        PROCSTEP: (NOPROC)
0Datasets Allocated for this Assembly
  Con DDname   Dataset Name                                 Volume  Member
   P1 SYSIN    SYS04082.T094107.RA000.PJG#IOSU.INPUT.H01    SCR100
   L1 SYSLIB   SYS3.DUMMYMAC                                SYSB02
   L2          WYL.GG.ORV.MACLIB                            SYSB02
   L3          WYL.GG.SYS.MACLIB                            SYSB05
      SYSLIN   WYL.GG.PJG.OBJ                               SYSB05  IOSUPER
      SYSPRINT SYS04082.T094107.RA000.PJG#IOSU.PRINT.H01    SCR101
      SYSTERM  GG$PJG.PJG#IOSU.JOB05941.D0000103.?

    7812K allocated to Buffer Pool,         1101K would be required for this to be an In-Storage Assembly
     718 Primary Input Records Read         5000 Library Records Read                  0 Work File Reads
       0 ASMAOPT Records Read               4463 Primary Print Records Written         0 Work File Writes
      62 Punch Records Written                 0 ADATA Records Written
0Assembly Start Time: 09.41.09 Stop Time: 09.41.13 Processor Time: 00.00.01.3959
 Return Code 000
