1PAGESERV (PAGE00) (09:42) (22MAR04) Accounting init function (@ logon)                                                     Page  270
0Loc    Object Code    Addr1 Addr2  Stmt Lv Lineno    Source Statement           (Hibal 5, Asmedit 3.3)  HLASM R4.0  2004/03/22 09.42
+___    ______ ____    _____ _____  ____ __ ______    ______ _________
0                                  47627    6328.
                                   47628    6329.
                                   47629    6330.       Return the pointer for the page fault count for the currently
                                   47630    6331.       established address space
                                   47631    6332.
                                   47632    6333.        Input - None
                                   47633    6334.
                                   47634    6335.       Output - None
                                   47635    6336.
                                   47636    6337.

000552C                            47637    6338.     PAGPIOA  PROC  SCOPE=GLOBAL
 00552C D7C1C7D7C9D6C140           47643             +
 005534 0000/0000                  47644             +
 005538 900F D004/18AF       00004 47646             +
 USING  PAGPIOA,R10
 00553E 50D0 C000/18CD       00000 47661             +
 005544 9680 C000      00000       47663             +
 005548 41D0 C048            00048 47664             +
 USING  PZERO,R0                   47665    6339.              USING PZERO,R0
 00554C 5870 0208            00208 47674    6340.              L     RPCB,PZCURASB
 DROP   PZERO,R0                   47675    6341.              DROP  R0
 USING  ASB,R7                     47683    6342.              WITH  (ASB,RPCB)
 005550 5870 7020            00020 47696    6343.              L     RPCB,ASBPAGB            Pointer to page fault count
 DROP   ASB,R7                     47697    6344.              WITH  (ASBPCB,RPCB)
 USING  ASBPCB,R7
 005554 4100 708C            0008C 47713    6345.              LA    RVR,PCBMPFR
 005558 981F C008            00008 47714    6346.              PEND  ,
 DROP   ASBPCB,R7
 USING  ASB,R7
 DROP   ASB,R7
 DROP   PAGPIOA,R10
 00555C 9680 C000/0B0E 00000       47741             +
1PAGESERV (PAGE00) (09:42) (22MAR04) MP-ORVYL Real Memory / Paging Manager Services                                         Page  271
0Loc    Object Code    Addr1 Addr2  Stmt Lv Lineno    Source Statement           (Hibal 5, Asmedit 3.3)  HLASM R4.0  2004/03/22 09.42
+___    ______ ____    _____ _____  ____ __ ______    ______ _________
0005568                            47748    6348.              LTORG ,
 005568 00000001                   47750                             =A(1)
 00556C 00000824                   47751                             =A(RESPT)
 005570 00001000                   47752                             =A(PAGPAGEL)
 005574 000FF000                   47753                             =A(PAGPGNM)
 005578 000041A0                   47754                             =A(QUFIX)
 00557C 0000745E                   47755                             =A(PAGWAIT)
 005580 7FFFF000                   47756                             =A(PAGPAGM)
 005584 000064E2                   47757                             =A(FRAMEREL)
 005588 00000000                   47758                             =A(0)
 00558C 00006876                   47759                             =A(XPREL)
 005590 00000400                   47760                             =A(256*L'PGTFINV)
 005594 7FF00000                   47761                             =A(PAGSGNM)
 005598 00000000                   47762                             =V(VMGET)
 00559C 00006652                   47763                             =A(XPGET)
 0055A0 00005F9E                   47764                             =A(FRAMEGET)
 0055A4 000002FF                   47765                             =A(PGTAIMSK)
 0055A8 00000664                   47766                             =A(VIRTABL)
 0055AC 00007894                   47767                             =A(PAGPGINI)
 0055B0 0000000F                   47768                             =A((256/16)-1)
 0055B4 00001872                   47769                             =A(MAKEROOM)
 0055B8 00100000                   47770                             =X'00100000'
 0055BC 1000                       47771                             =Y(L'PAGTABLE)
 0055BE 1B00                       47772                             =Y(27*256+0)
 0055C0 3F00           055C2 0A6E0 47773                             =Y(63*256+0)
1PAGESERV (PAGE00) (09:42) (22MAR04) Address space creation                                                                 Page  272
0Loc    Object Code    Addr1 Addr2  Stmt Lv Lineno    Source Statement           (Hibal 5, Asmedit 3.3)  HLASM R4.0  2004/03/22 09.42
+___    ______ ____    _____ _____  ____ __ ______    ______ _________
0                                  47778    6350.
                                   47779    6351.
                                   47780    6352.       Allocate initial paging control block, and chain it off of the
                                   47781    6353.       ASB
                                   47782    6354.
                                   47783    6355.        Input - @PAGASC1
                                   47784    6356.
                                   47785    6357.       Output - NONE
                                   47786    6358.
                                   47787    6359.

00055C2                            47789    6361.     PAGASC1  PROC  @PAGASC1,SCOPE=GLOBAL
 0055C2 D7C1C7C1E2C3F140           47795             +
 0055CA 0008/0000                  47796             +
 0055CE 900F D004/18AF       00004 47798             +
 USING  PAGASC1,R10
 0055D4 50D0 C000/18CD       00000 47813             +
 0055DA 9680 C000      00000       47815             +
 USING  @PAGASC1-72,R12
 0055DE 41D0 C050            00050 47829             +
 0055E2 5860 0200            00200 47830    6362.              PAGAD RPAG
 USING  PZERO,R0
 DROP   PZERO,R0
 USING  MAT,R6
 0055E6 5860 600C            0000C 47864             +
 DROP   MAT,R6
 USING  PAGCB,R6
                                   47886    6363.
 0055EA 5820 C048            00000 47887    6364.              L     RA,@ASCASB
 USING  ASB,R2                     47888    6365.              WITH  (ASB,RA)
                                   47901    6366.
                                   47902    6367.          Do allocate and init of new PCB
                                   47903    6368.
 USING  @PCBINIT-72,R13            47904    6369.              PSET  @PCBINIT                Init PCB for this AS
 0055EE D703 D048 D048 00000 00000 47921             +
 0055F4 5020 D048            00000 47922    6370.              PMOV  @PCIASB,(RA)            |
 0055F8 58F0 A952/0DEF       05F20 47932    6371.              ACALL PCBINIT                 |
                                   47939    6372.
 0055FE 1870                       47940    6373.              LR    RPCB,RVR
 USING  ASBPCB,R7                  47941    6374.              WITH  (ASBPCB,RPCB)
 005600 D203 702C C04C 0002C 00004 47954    6375.              MVC   PCBFLIMIT,@ASCWSLM      limit frames
 005606 5070 2020            00020 47955    6376.              ST    RPCB,ASBPAGB            |
 00560A 981F C008            00008 47956    6377.              PEND  ,
 DROP   ASBPCB,R7
 DROP   ASB,R2
 DROP   PAGCB,R6
 DROP   @PAGASC1-72,R12
 DROP   PAGASC1,R10
 00560E 9680 C000/0B0E 00000       47986             +
 DROP   @PCBINIT-72,R13
1PAGESERV (PAGE00) (09:42) (22MAR04) Address space creation                                                                 Page  273
0Loc    Object Code    Addr1 Addr2  Stmt Lv Lineno    Source Statement           (Hibal 5, Asmedit 3.3)  HLASM R4.0  2004/03/22 09.42
+___    ______ ____    _____ _____  ____ __ ______    ______ _________
0                                  47996    6379.
                                   47997    6380.
                                   47998    6381.       Address space creation - log on a user
                                   47999    6382.
                                   48000    6383.        Input - @PAGASC2
                                   48001    6384.                  The ASB of the AS being created is in PZERO
                                   48002    6385.
                                   48003    6386.       Output - NONE
                                   48004    6387.
                                   48005    6388.

0000000                00000 00005 48006    6389.     #PAGASC  RECORD BEGIN
 000000                            48014  1 6390.     #ASCSLOT   DS    A                       External slot of 1st page tbl
 000004                            48015  1 6391.     #ASCFLGS   DS    X                       Current flags held on entry
 000005                00005 00005 48016    6392.              END   ,
0005614                            48026    6394.     PAGASC2  PROC  @PAGASC2,#PAGASC,SCOPE=GLOBAL    Log on a user
 005614 D7C1C7C1E2C3F240           48032             +
 00561C 0008/0008                  48033             +
 005620 900F D004/18AF       00004 48035             +
 USING  PAGASC2,R10
 005626 50D0 C000/18CD       00000 48050             +
 00562C 9680 C000      00000       48052             +
 USING  @PAGASC2-72,R12
 AUSING (#PAGASC,@PAGASC2+8)
 005630 41D0 C058            00058 48071             +
 005634 5860 0200            00200 48072    6395.              PAGAD RPAG
 USING  PZERO,R0
 DROP   PZERO,R0
 USING  MAT,R6
 005638 5860 600C            0000C 48106             +
 DROP   MAT,R6
 USING  PAGCB,R6
                                   48128    6396.
                                   48129    6397.          One more user in memory
                                   48130    6398.
 00563C 5820 60B0            000B0 48131    6399.              L     RA,PAGASIN
 005640                            48132    6400.              LOOP  BEGIN
 005640 4130 2001            00001 48138  1 6401.                LA    RB,@RA+1
 005644 BA23 60B0            000B0 48139  1 6402.                CS    RA,RB,PAGASIN
 005648 4770 A020            05640 48140    6403.              UNTIL EQUAL,END
                                   48159    6404.
                                   48160    6405.          Keep track of max ever logged on
                                   48161    6406.
 00564C 5E30 625C            0025C 48162    6407.              AL    RB,PAGMSOVN
 005650 5F30 6274            00274 48163    6408.              SL    RB,PAGMSIVN
 005654 5930 6248            00248 48164    6409.              STMAX RB,PAGMASMX
 005658 47D0 A040            05660 48169             +
 00565C 5030 6248            00248 48170             +
                                   48171    6410.
 USING  PZERO,R0                   48172    6411.              USING PZERO,R0                New PCB address
 005660 5870 0208            00208 48181    6412.              L     RPCB,PZCURASB           |
 DROP   PZERO,R0                   48182    6413.              DROP  R0                      |
 USING  ASB,R7                     48190    6414.              WITH  (ASB,RPCB),BEGIN        |
 005664 5870 7020            00020 48204  1 6415.                L     RPCB,ASBPAGB            |
1PAGESERV (PAGE00) (09:42) (22MAR04) Address space creation                                                                 Page  274
0Current Usings:  (PAGCB,R6) (PAGASC2,R10) (@PAGASC2-72,R12)
0Loc    Object Code    Addr1 Addr2  Stmt Lv Lineno    Source Statement           (Hibal 5, Asmedit 3.3)  HLASM R4.0  2004/03/22 09.42
+___    ______ ____    _____ _____  ____ __ ______    ______ _________
0DROP   ASB,R7                     48205    6416.              END   ,                       |
 USING  ASBPCB,R7                  48213    6417.              WITH  (ASBPCB,RPCB)           |
 USING  LOCAL.ASBPCB,R7            48226    6418.              WITH  (ASBPCB,RPCB),LABEL=LOCAL,BEGIN
                                   48235  1 6419.
                                   48236  1 6420.            Point at global segment table
                                   48237  1 6421.
 005668 5830 6018            00018 48238  1 6422.                L     RB,PAGCASB
 00566C 5830 3020            00020 48239  1 6423.                WITH  (ASB,RB),'L RB,ASBPAGB'
 USING  ASB,R3
 DROP   ASB,R3
 USING  GLOBAL.ASBPCB,R3           48263  1 6424.                WITH  (ASBPCB,RB),LABEL=GLOBAL
 005670 D203 701C 301C 0001C 0001C 48271  1 6425.                MVC   LOCAL.PCBPSTO,GLOBAL.PCBPSTO
 DROP   GLOBAL.ASBPCB,R3           48272    6426.              END   ,
 DROP   LOCAL.ASBPCB,R7
                                   48291    6427.
 005676 9620 70B6      000B6       48292    6428.              SET   PCBFSYNC
                                   48298    6429.
                                   48299    6430.          Get ASN and fill in ASTE
                                   48300    6431.          NB - The authority index and linkage table descriptors for now
                                   48301    6432.               default to zero.
                                   48302    6433.               Set PASN and SASN as the same now
                                   48303    6434.
 00567A 5830 60B8            000B8 48304    6435.              L     RB,PAGMEG               Segment table length
 00567E 8830 0004            00004 48305    6436.              SRL   RB,4                    | now in multiples of 16
 005682 0630                       48306    6437.              DECR  RB                      |
 005684 4230 7025            00025 48308    6438.              STC   RB,PCBPSTL              |
 USING  @ASNGET-72,R13             48309    6439.              PSET  @ASNGET                 Allocate and fill in ASN
 005688 D713 D048 D048 00000 00000 48326             +
 00568E 5030 D050            00008 48327    6440.              PMOV  @AGSTD,(RB)             | only len of seg table
 005692                            48337    6441.              PMOV  @AGATO,PAGATO           | authority location & len
 005692 D203 D048 618C 00000 0018C 48341             +
 005698                            48342    6442.              PMOV  @AGATL,PAGATL           |
 005698 D201 D04E 6190 00006 00190 48346             +
 00569E 9680 D048      00000       48347    6443.              SET   @AGFINV                 | invalid, although allocated
 0056A2 5070 D058            00010 48353    6444.              PMOV  @AGPCB,LA:ASBPCB        | set PCB addr
 0056A6 58F0 A904/0DEF       05F24 48364    6445.              ACALL ASNGET                  |
 0056AC 4000 7020            00020 48371    6446.              STH   RVR,PCBPASN             Save this ASN
                                   48372    6447.
                                   48373    6448.          Get segment table
                                   48374    6449.
 0056B0 5830 60B8            000B8 48375    6450.              L     RB,PAGMEG               Get Segment table
 0056B4 4C30 A968            05F88 48376    6451.              MH    RB,=Y(L'SGTE+L'SSTE)    |
 0056B8 4130 3FFF            00FFF 48377    6452.              LA    RB,@RB+4095             | round up to page bndry
 0056BC 5430 A908            05F28 48378    6453.              N     RB,=A(PAGPAGM)          |
 DROP   @ASNGET-72,R13             48379    6454.              VMGET (RB),LOC=GLOBHI,FIX=YES,PAGE=YES
 USING  @VMGET-72,R13
 0056C0 D70A D048 D048 00000 00000 48406             +
 0056C6 5030 D048            00000 48416             +
 0056CA D201 D050 A96A 00008 05F8A 48417             +
 0056D0 9680 D052      0000A       48423             +
 0056D4 58F0 A90C/0DEF       05F2C 48426             +
 0056DA 5000 701C            0001C 48428    6455.              ST    RVR,PCBPSTO
1PAGESERV (PAGE00) (09:42) (22MAR04) Address space creation                                                                 Page  275
0Current Usings:  (PAGCB,R6) (PAGASC2,R10) (@PAGASC2-72,R12) (@VMGET-72,R13)
0Loc    Object Code    Addr1 Addr2  Stmt Lv Lineno    Source Statement           (Hibal 5, Asmedit 3.3)  HLASM R4.0  2004/03/22 09.42
+___    ______ ____    _____ _____  ____ __ ______    ______ _________
0                                  48429    6456.
                                   48430    6457.          Init this seg table to be the same as the global seg table
                                   48431    6458.
 0056DE 1820                       48432    6459.              LR    RA,RVR                  Copy from global seg table
 0056E0 5880 6018            00018 48433    6460.              L     RM,PAGCASB              |
 0056E4 5880 8020            00020 48434    6461.              WITH  (ASB,RM),'L RM,ASBPAGB'
 USING  ASB,R8
 DROP   ASB,R8
 USING  GBL.ASBPCB,R8              48458    6462.              WITH  (ASBPCB,RM),LABEL=GBL,BEGIN      Gbl PCB addr
 0056E8 5840 801C            0001C 48467  1 6463.                L     RJ,GBL.PCBPSTO
 0056EC 1853                       48468  1 6464.                LR    RK,RB                   | equal length
 0056EE 0E24                       48469  1 6465.                MVCL  RA,RJ                   |
                                   48470  1 6466.
                                   48471  1 6467.            Put frames for seg table on local list
                                   48472  1 6468.
 0056F0 4850 60BC            000BC 48473  1 6469.                LH    RK,PAGSEGP
 0056F4 5840 701C            0001C 48474  1 6470.                L     RJ,PCBPSTO              PFTE addr
 0056F8 B140 4000            00000 48475  1 6471.                LRA   RJ,@RJ
 0056FC 8840 0007            00007 48476  1 6472.                SRL   RJ,L'PAGPAGM-PFTLOG       for seg
 005700 5E40 6044            00044 48477  1 6473.                AL    RJ,PAGPFTO                  frame
 USING  PFTE,R4                    48478  1 6474.                WITH  (PFTE,RJ)
 005704 AC04 70B5      000B5       48491  1 6475.                SLKOB GBL.PCBLOCK,PCBPSWM
 DROP   @VMGET-72,R13
 USING  @LOCKS-72,R13
 005708 D203 D048 8018 00000 00018 48512  1          +
 00570E 58F0 602C/0DEF       0002C 48518  1          +
 005714                            48520  1 6476.                LOOP  BEGIN                   Take Seg tbl frames
 005714 41E0 8054/1B00       00054 48526  2 6477.                  LREM  GBL.PCBLFLH,LA:PFTE,WR=RS
 00571A 58F0 E008            00008 48561  3          +
 00571E 4110 0001/1BF1       00001 48569  3          +
 005724 4740 A120            05740 48580  3          +
 005728 50F0 E008/18F4       00008 48586  3          +
 00572E 180F/58E0 F004       00004 48593  3          +
 005734 58F0 F000            00000 48601  3          +
 005738 50E0 F004            00004 48602  3          +
 00573C 50F0 E000            00000 48603  2          +
 005740 4110 7048            00048 48608  2 6478.                  LADD  PCBSFLH,LA:PFTE,WR=RS
 005744 41E0 0001            00001 48639  2          +
 005748 5EE0 1008            00008 48640  2          +
 00574C 50E0 1008            00008 48641  2          +
 005750 58E0 1004            00004 48648  2          +
 005754 5040 1004            00004 48654  2          +
 005758 5010 4000            00000 48655  2          +
 00575C 50E0 4004            00004 48661  2          +
 005760 5040 E000            00000 48662  2          +
 005764 D203 400C 700C 0000C 0000C 48664  2 6479.                  MVC   PFTASB,PCBASB           Set ASB of owner
 00576A 9248 401C      0001C       48665  2 6480.                  MVI   PFTQ,PCBSFLH-ASBPCB       and queue id
 00576E 4140 4020            00020 48666  2 6481.                  LA    RJ,PFTNXT
 005772 4650 A0F4            05714 48667  1 6482.                UNTIL (BCT,RK),END            OF Take Seg tbl frames
 005776                            48677  1 6483.                SLKRL GBL.PCBLOCK,PCBPSWM
 005776 D203 D048 8018 00000 00018 48687  1          +
 00577C 58F0 6030/0DEF       00030 48693  1          +
 005782 8000 70B5      000B5       48695  1          +
 DROP   PFTE,R4                    48696    6484.              END   ,                       OF Gbl PCB addr
1PAGESERV (PAGE00) (09:42) (22MAR04) Address space creation                                                                 Page  276
0Current Usings:  (PAGCB,R6) (PAGASC2,R10) (@PAGASC2-72,R12) (@LOCKS-72,R13)
0Loc    Object Code    Addr1 Addr2  Stmt Lv Lineno    Source Statement           (Hibal 5, Asmedit 3.3)  HLASM R4.0  2004/03/22 09.42
+___    ______ ____    _____ _____  ____ __ ______    ______ _________
0DROP   GBL.ASBPCB,R8
                                   48712    6485.
                                   48713    6486.          Get frame for page table
                                   48714    6487.
 DROP   @LOCKS-72,R13              48715    6488.              PSET  @FRAMGET
 USING  @FRAMGET-72,R13
 005786 D718 D048 D048 00000 00000 48735             +
 00578C 5070 D048            00000 48736    6489.              PMOV  @FRAPCBC,LA:ASBPCB      PCB in control
 005790 5070 D04C            00004 48747    6490.              PMOV  @FRAPCB,LA:ASBPCB       PCB to own frame
 005794 4100 0001            00001 48758    6491.              PMOV  @FRANUM,LA:1            Number of frames
 005798 5000 D050            00008 48774             +
 00579C 9202 D058      00010       48775    6492.              SET   (@FRAFPT,EQ)            Get page table frame
 0057A0 4100 703C            0003C 48782    6493.              PMOV  @FRALIST,LA:PCBPFLH
 0057A4 5000 D054            0000C 48798             +
 0057A8 9180 7022      00022       48799    6494.              IF    PCBFGBLC,BEGIN          Global frame - put on fix Q
 0057AC 47E0 A19C            057BC 48809             +
 0057B0 9201 D058      00010       48814  1 6495.                SET   (@FRAFIX,EQ)
 0057B4 4100 7054            00054 48821  1 6496.                PMOV  @FRALIST,LA:PCBLFLH
 0057B8 5000 D054            0000C 48837  1          +
 0057BC                            48838    6497.              END   ,                       OF Global frame - put on fix Q
 0057BC 41F0 A97E/0DEF       05F9E 48842    6498.              LCALL FRAMEGET
 0057C2 1840                       48851    6499.              LR    RJ,RVR                  | real addr (1 fix)
 0057C4 5850 D05C            00014 48852    6500.              L     RK,@FRA1ST              Put VA in frame
 0057C8 9140 D060      00018       48853    6501.              IF    @FRAROOM,BEGIN          Make more room for paging
 0057CC 47E0 A1B6            057D6 48863             +
 0057D0 58F0 A910/0DEF       05F30 48868  1 6502.                ACALL MAKEROOM
 DROP   @FRAMGET-72,R13            48875  1 6503.                DROP  SPR
 0057D6                            48882    6504.              END   ,                       OF Make more room for paging
                                   48886    6505.
                                   48887    6506.          Initialize page frame table for this page table page.
                                   48888    6507.            One short term fix, on page; no long term fixes; it's a page tbl
                                   48889    6508.
 USING  PFTE,R5                    48890    6509.              WITH  (PFTE,RK),BEGIN
 0057D6 D403 C048 A908 00000 05F28 48904  1 6510.                NC    @ASCVA,=A(PAGPAGM)      Align VA on page boundary
 0057DC 5820 C048            00000 48905  1 6511.                L     RA,@ASCVA               Virtual addr of PT
 0057E0 5020 5008            00008 48906  1 6512.                ST    RA,PFTVA                |
 0057E4 8820 0014            00014 48907  1 6513.                SRL   RA,L'PAGSGNM            Segment number of PT
 0057E8 4020 5014            00014 48908  1 6514.                STH   RA,PFTSEG               |
 0057EC 9680 501D      0001D       48909  1 6515.                SET   PFTFPGT                 Page table frame
 0057F0 D201 501A A96C 0001A 05F8C 48915  1 6516.                MVC   PFTSFIX,=Y(1)           One short term fix
 DROP   PFTE,R5                    48916    6517.              END   ,
                                   48924    6518.
                                   48925    6519.          Initialize seg table entries for the first page table's VA
                                   48926    6520.
 0057F6 5810 60B8            000B8 48927    6521.              L     RS,PAGMEG               Get segment table offsets
 0057FA 8910 0002            00002 48928    6522.              SLL   RS,SGTLOG               | shadow start
 0057FE 5820 C048            00000 48929    6523.              L     RA,@ASCVA               |
 005802 5420 A914            05F34 48930    6524.              N     RA,=A(PAGSGNM)          |
 005806 8820 0011            00011 48931    6525.              SRL   RA,L'PAGSGNM-SSTLOG     |
 00580A 1832                       48932    6526.              LR    RB,RA                   | shadow seg offset
 00580C 1E31                       48933    6527.              ALR   RB,RS                   | |
 00580E 8820 0001            00001 48934    6528.              SRL   RA,SSTLOG-SGTLOG        | segment offset
 005812 5810 701C            0001C 48935    6529.              L     RS,PCBPSTO              |
 005816 1E21                       48936    6530.              ALR   RA,RS                   | seg table entry
1PAGESERV (PAGE00) (09:42) (22MAR04) Address space creation                                                                 Page  277
0Current Usings:  (PAGCB,R6) (PAGASC2,R10) (@PAGASC2-72,R12)
0Loc    Object Code    Addr1 Addr2  Stmt Lv Lineno    Source Statement           (Hibal 5, Asmedit 3.3)  HLASM R4.0  2004/03/22 09.42
+___    ______ ____    _____ _____  ____ __ ______    ______ _________
0005818 1E31                       48937    6531.              ALR   RB,RS                   | shadow seg entry
 USING  SGTE,R2                    48938    6532.              WITH  (SGTE,RA),BEGIN
 USING  SSTE,R3                    48952  1 6533.                WITH  (SSTE,RB),BEGIN
 00581A 9180 3006      00006       48966  2 6534.                  IF    SSTFDEF,ASCABORT        Shouldn't be defined yet
 00581E 4710 A30C            0592C 48978  2          +
 005822 1814                       48984  2 6535.                  LR    RS,RJ                   Set real address
 005824 5610 A918            05F38 48985  2 6536.                  O     RS,=A((256/16)-1)       |
 005828 5010 2000            00000 48986  2 6537.                  ST    RS,SGTAD                |
 USING  @XPGET-72,R13              48987  2 6538.                  XPGET (RPCB)                  Get external frame for page
 00582C D710 D048 D048 00000 00000 49005  2          +
 005832 5070 D04C            00004 49015  2          +
 005836 58F0 A91C/0DEF       05F3C 49021  2          +
 00583C 5000 3000            00000 49023  2 6539.                  ST    RVR,SSXSLOT             |
 005840 5000 C050            00000 49024  2 6540.                  ST    RVR,#ASCSLOT            | save for shadow page
 005844 9680 3006      00006       49025  2 6541.                  SET   SSTFDEF                 Defined
 005848 4310 C04C            00004 49031  2 6542.                  IC    RS,@ASCKEY              Set key of frame
 00584C B22B 0014                  49032  2 6543.                  SSKE  RS,RJ                   |
 005850 4210 3004            00004 49033  2 6544.                  STC   RS,SSKEY                |
 DROP   SSTE,R3                    49034  1 6545.                END   ,                       OF Shadow Seg addr
 DROP   SGTE,R2                    49042    6546.              END   ,                       OF Seg addr
                                   49050    6547.
                                   49051    6548.          Init page table in DAT-OFF
                                   49052    6549.
 005854 5820 7014            00014 49053    6550.              L     RA,PCBRA                DAT-OFF
 005858 ACFB 70B5      000B5       49054    6551.              DATOFF PCBPSWM                |
 00585C 1804                       49056    6552.              LR    RVR,RJ                  Clear whole frame
 00585E 4810 A96E            05F8E 49057    6553.              LH    RS,=Y(PAGPAGEL)         |
 005862 1B33                       49058    6554.              CLEAR RB                      |
                                   49062    6555.              REGCH (RVR,R0),(RS,R1)        |
 005864 0E02                       49063    6556.              MVCL  RVR,RA                  |
 005866 1854                       49064    6557.              LR    RK,RJ
 005868 4110 0100            00100 49065    6558.              LA    RS,256                  | number of pages/page table
 00586C                            49066    6559.              LOOP  BEGIN                   Init all entries
 USING  PGTE,R5                    49072  1 6560.                WITH  (PGTE,RK)               |
 00586C D203 5000 A920 00000 05F40 49085  1 6561.                MVC   PGTE,=A(256*L'PGTFINV)  Invalid hardware page entry
 005872 4150 5004            00004 49086  1 6562.                LA    RK,PGTNXT
 005876 4610 A24C            0586C 49087    6563.              UNTIL (BCT,RS),END            OF Init all entries
 DROP   PGTE,R5
 DROP   ASBPCB,R7                  49102    6564.              WITH  (ASBPCB,RA),BEGIN       DAT-ON
 USING  ASBPCB,R2
 00587A 8000 20B5      000B5       49124  1 6565.                DATON PCBPSWM                 |
 USING  ASBPCB,R7                  49126    6566.              END   ,                       |
 DROP   ASBPCB,R2
                                   49143    6567.
                                   49144    6568.          Init this first page table entry
                                   49145    6569.
 00587E 5830 C048            00000 49146    6570.              L     RB,@ASCVA
 005882 5430 A924            05F44 49147    6571.              N     RB,=A(PAGPGNM)
 005886 1823                       49148    6572.              LR    RA,RB
 005888 8830 0009            00009 49149    6573.              SRL   RB,L'PAGPGNM-SSTLOG
 00588C 4130 3400            00400 49150    6574.              LA    RB,@RB+PGTL
 005890 8820 000A            0000A 49151    6575.              SRL   RA,L'PAGPGNM-SGTLOG
 005894 1812                       49152    6576.              LR    RS,RA                   PT entry - RA
 005896 1E14                       49153    6577.              ALR   RS,RJ                   |
1PAGESERV (PAGE00) (09:42) (22MAR04) Address space creation                                                                 Page  278
0Current Usings:  (PAGCB,R6) (ASBPCB,R7) (PAGASC2,R10) (@PAGASC2-72,R12) (@XPGET-72,R13)
0Loc    Object Code    Addr1 Addr2  Stmt Lv Lineno    Source Statement           (Hibal 5, Asmedit 3.3)  HLASM R4.0  2004/03/22 09.42
+___    ______ ____    _____ _____  ____ __ ______    ______ _________
0005898 5850 7014            00014 49154    6578.              L     RK,PCBRA                Set page table RA in DAT-OFF
 00589C ACFB 70B5      000B5       49155    6579.              DATOFF PCBPSWM                |
 USING  PGTE,R1                    49157    6580.              WITH  (PGTE,RS),BEGIN
 0058A0 5040 1000            00000 49171  1 6581.                ST    RJ,PGAD
                                   49172  1 6582.     *  Page table page (defined,ref,defined externally)
 0058A4 96D4 1003      00003       49173  1 6583.                SET   PGTFDEF+PGTFREF+PGTFPGT+PGTFXDEF
 DROP   PGTE,R1                    49191    6584.              END   ,
 DROP   ASBPCB,R7                  49199    6585.              WITH  (ASBPCB,RK),BEGIN       |
 USING  ASBPCB,R5
 0058A8 8000 50B5      000B5       49221  1 6586.                DATON PCBPSWM                 |
 USING  ASBPCB,R7                  49223    6587.              END   ,                       |
 DROP   ASBPCB,R5
                                   49240    6588.
                                   49241    6589.          Establish this AS (disable while we do it)
                                   49242    6590.
 0058AC AC04 70B5      000B5       49243    6591.              STNSM PCBPSWM,DISABLE         Disable for a while
 0058B0 58F0 A928/0DEF       05F48 49244    6592.              VCALL CPLOCK                    and get the CPU lock
 0058B6 5850 700C            0000C 49248    6593.              L     RK,PCBASB               Set ASNs
 USING  ASB,R5                     49249    6594.              WITH  (ASB,RK),BEGIN          | Local ASB addr
 DROP   @XPGET-72,R13              49263  1 6595.                PSET  @VALDASN                Validate this ASN
 USING  @VALDASN-72,R13
 0058BA D70D D048 D048 00000 00000 49283  1          +
 0058C0 5840 700C            0000C 49284  1 6596.                L     RJ,PCBASB               | set LASP parms
 DROP   ASB,R5                     49285  1 6597.                WITH  (ASB,RJ),BEGIN          |
 USING  ASB,R4
 0058C4 D207 D048 4008 00000 00008 49307  2 6598.                  MVC   @VALASP,ASBLASP         |
 0058CA 4890 7020            00020 49308  2 6599.                  LH    RN,PCBPASN              |
 0058CE 4090 D04E            00006 49309  2 6600.                  STH   RN,@VAPASN              |
 0058D2 4090 D04A            00002 49310  2 6601.                  STH   RN,@VASASN              |
 USING  ASB,R5                     49311  1 6602.                END   ,                       |
 DROP   ASB,R4
 0058D6 5840 701C            0001C 49328  1 6603.                L     RJ,PCBPSTO              |
 0058DA B140 4000            00000 49329  1 6604.                LRA   RJ,@RJ                  |
 0058DE 5040 D050            00008 49330  1 6605.                PMOV  @VAPSTO,(RJ)            | set seg tbl origin
 0058E2                            49340  1 6606.                PMOV  @VALPARM,=X'04'         | insist on translation
 0058E2 D200 D054 A970 0000C 05F90 49344  1          +
 0058E8 58F0 A92C/0DEF       05F4C 49345  1 6607.                ACALL VALIDASN                |
                                   49352  1 6608.
                                   49353  1 6609.            Set ASB's ASNs (primary and secondary)
                                   49354  1 6610.
 0058EE 4090 500E            0000E 49355  1 6611.                STH   RN,ASBPASN
 0058F2 4090 500A            0000A 49356  1 6612.                STH   RN,ASBSASN
 DROP   ASB,R5                     49357    6613.              END   ,                       | OF Local ASB addr
                                   49365    6614.
 0058F6 58F0 A930/0DEF       05F50 49366    6615.              VCALL CPULOCK                 Free the CPU lock
 0058FC 8000 70B5      000B5       49370    6616.              SSM   PCBPSWM                   and re-enable
                                   49371    6617.
                                   49372    6618.          Set up page table entries
                                   49373    6619.
 005900 5E20 C048            00000 49374    6620.              AL    RA,@ASCVA               PT entry - VA
 005904 5E30 C048            00000 49375    6621.              AL    RB,@ASCVA               SPT entry - VA
 USING  PGTE,R2                    49376    6622.              WITH  (PGTE,RA),BEGIN
 USING  SPTE,R3                    49390  1 6623.                WITH  (SPTE,RB),BEGIN
 005908 D203 3000 C050 00000 00000 49404  2 6624.                  MVC   SPXSLOT,#ASCSLOT        External slot
1PAGESERV (PAGE00) (09:42) (22MAR04) Address space creation                                                                 Page  279
0Current Usings:  (PGTE,R2) (SPTE,R3) (PAGCB,R6) (ASBPCB,R7) (PAGASC2,R10) (@PAGASC2-72,R12) (@VALDASN-72,R13)
0Loc    Object Code    Addr1 Addr2  Stmt Lv Lineno    Source Statement           (Hibal 5, Asmedit 3.3)  HLASM R4.0  2004/03/22 09.42
+___    ______ ____    _____ _____  ____ __ ______    ______ _________
000590E D200 3005 C04C 00005 00004 49405  2 6625.                  MVC   SPKEY,@ASCKEY           Key
 005914 96D0 2003      00003       49406  2 6626.                  SET   PGTFDEF+PGTFREF+PGTFPGT Defined, Referenced, Page tbl
 DROP   SPTE,R3                    49419  1 6627.                END   ,                       OF Shadow page table addr
 DROP   PGTE,R2                    49427    6628.              END   ,                       OF Page table addr
                                   49435    6629.
                                   49436    6630.          Allocate swap cell
                                   49437    6631.
 005918 58F0 A934/0DEF       05F54 49438    6632.              ACALL CELLALL
                                   49445    6633.
 00591E 94DF 70B6      000B6       49446    6634.              CLEAR PCBFSYNC
                                   49453    6635.
 005922 981F C008            00008 49454    6636.              PEND  ,
 DROP   ASBPCB,R7
 DROP   PAGCB,R6
 DROP   @PAGASC2-72,R12
 DROP   PAGASC2,R10
 005926 9680 C000/0B0E 00000       49479             +
 DROP   @VALDASN-72,R13
000592C AC04 021B      0021B       49489    6638.     ASCABORT ABORT ASCSEGD                 Segment defined
 USING  PZERO,R0
 005930 9680 021A      0021A       49508             +
 005934 50F0 021C            0021C 49509             +
 005938 58F0 0210            00210 49510             +
 00593C 89F0 0010            00010 49511             +
 005940 88F0 0010            00010 49512             +
 005944 41F0 F000            00000 49513             +
 005948 AEFF 0006            00006 49514             +
 00594C C1E2C3E2C5C7C440           49515             +
 DROP   PZERO,R0
1PAGESERV (PAGE00) (09:42) (22MAR04) Address space termination                                                              Page  280
0Loc    Object Code    Addr1 Addr2  Stmt Lv Lineno    Source Statement           (Hibal 5, Asmedit 3.3)  HLASM R4.0  2004/03/22 09.42
+___    ______ ____    _____ _____  ____ __ ______    ______ _________
0                                  49525    6640.
                                   49526    6641.
                                   49527    6642.       Bring in all page tables for termination
                                   49528    6643.
                                   49529    6644.        Input - None
                                   49530    6645.                  PZCURASB has the ASB of the address space being
                                   49531    6646.                  terminated
                                   49532    6647.
                                   49533    6648.       Output - None
                                   49534    6649.
                                   49535    6650.

000595C                            49537    6652.     PAGAST1  PROC  ,#PAGE,SCOPE=GLOBAL
 00595C D7C1C7C1E2E3F140           49543             +
 005964 0000/0008                  49544             +
 005968 900F D004/18AF       00004 49546             +
 USING  PAGAST1,R10
 00596E 50D0 C000/18CD       00000 49561             +
 005974 9680 C000      00000       49563             +
 USING  #PAGE-72,R12
 005978 41D0 C050            00050 49577             +
 00597C 5860 0200            00200 49578    6653.              PAGAD RPAG
 USING  PZERO,R0
 DROP   PZERO,R0
 USING  MAT,R6
 005980 5860 600C            0000C 49612             +
 DROP   MAT,R6
 USING  PAGCB,R6
 USING  PZERO,R0                   49634    6654.              USING PZERO,R0
 005984 5890 0208            00208 49643    6655.              L     RN,PZCURASB
 DROP   PZERO,R0                   49644    6656.              DROP  R0
 USING  ASB,R9                     49652    6657.              WITH  (ASB,RN)
 005988 5870 9020            00020 49665    6658.              L     RPCB,ASBPAGB
 USING  ASBPCB,R7                  49666    6659.              WITH  (ASBPCB,RPCB),BEGIN     ASBPCB address
                                   49680  1 6660.
 00598C AC04 C049      00001       49681  1 6661.                PAGNTRY SYNC,#PAGPSWM,#PAGFLGS
 USING  @LOCKS-72,R13
 005990 D203 D048 7018 00000 00018 49701  1          +
 005996 58F0 602C/0DEF       0002C 49707  1          +
 00599C D200 C048 70B6 00000 000B6 49709  1          +
 0059A2 9260 70B6      000B6       49719  1          +
 0059A6 9180 7022      00022       49729  1          +
 0059AA 47E0 A04A            059B2 49730  1          +
 0059AE 92A0 70B6      000B6       49745  1          +
 0059B2 5840 701C            0001C 49750  1 6662.                L     RJ,PCBPSTO              Loop through seg table
 0059B6 5850 60B8            000B8 49751  1 6663.                L     RK,PAGMEG               |
 0059BA 4880 60BE            000BE 49752  1 6664.                LH    RM,PAGSEGL              | start of shadow seg
 0059BE 1E84                       49753  1 6665.                ALR   RM,RJ                   |
 0059C0                            49754  1 6666.                LOOP  BEGIN                   |
 USING  SGTE,R4                    49760  2 6667.                  WITH  (SGTE,RJ)
 USING  SSTE,R8                    49773  2 6668.                  WITH  (SSTE,RM)
 0059C0 9110 4003      00003       49786  2 6669.                  IF    (~SGTFCOMM,AND,SSTFDEF),BEGIN    Local defined segment
 0059C4 4710 A08C            059F4 49798  2          +
 0059C8 9180 8006      00006       49809  2          +
 0059CC 47E0 A08C            059F4 49810  2          +
1PAGESERV (PAGE00) (09:42) (22MAR04) Address space termination                                                              Page  281
0Current Usings:  (SGTE,R4) (PAGCB,R6) (ASBPCB,R7) (SSTE,R8) (ASB,R9) (PAGAST1,R10) (#PAGE-72,R12) (@LOCKS-72,R13)
0Loc    Object Code    Addr1 Addr2  Stmt Lv Lineno    Source Statement           (Hibal 5, Asmedit 3.3)  HLASM R4.0  2004/03/22 09.42
+___    ______ ____    _____ _____  ____ __ ______    ______ _________
00059D0 1824                       49815  3 6670.                    LR    RA,RJ                   VA in segment
 0059D2 5F20 701C            0001C 49816  3 6671.                    SL    RA,PCBPSTO              |
 0059D6 8920 0012            00012 49817  3 6672.                    SLL   RA,L'PAGSGNM-SGTLOG     |
 DROP   @LOCKS-72,R13              49818  3 6673.                    PSET  @RESPT                  Make sure PT is in & stays in
 USING  @RESPT-72,R13
 0059DA D714 D048 D048 00000 00000 49838  3          +
 0059E0 5020 D048            00000 49839  3 6674.                    PMOV  @PTVA,(RA)              |
 0059E4 5070 D04C            00004 49849  3 6675.                    PMOV  @PTPCB,LA:ASBPCB        |
 0059E8                            49860  3 6676.                    PMOV  @PTPSWM,#PAGPSWM        |
 0059E8 D200 D050 C049 00008 00001 49864  3          +
 0059EE 58F0 A5F0/0DEF       05F58 49865  3 6677.                    ACALL RESPT                   |
 0059F4                            49872  2 6678.                  END   ,                       OF Local defined segment
 0059F4 4140 4004            00004 49876  2 6679.                  LA    RJ,SGTNXT
 0059F8 4180 8008            00008 49877  2 6680.                  LA    RM,SSTNXT
 0059FC 4650 A058            059C0 49878  1 6681.                UNTIL (BCT,RK),END            OF Loop through seg table
 DROP   SSTE,R8
 DROP   SGTE,R4
 005A00 4310 70B6            000B6 49898  1 6682.                PAGXIT SYNC,#PAGPSWM,#PAGFLGS,WR=RS
 005A04 D200 70B6 C048 000B6 00000 49902  1          +
 005A0A 4210 C048            00000 49903  1          +
 005A0E 9180 C048      00000       49913  1          +
 005A12 47E0 A0C2            05A2A 49914  1          +
 005A16 5850 6018            00018 49919  2          +
 DROP   ASB,R9
 USING  ASB,R5
 005A1A 5850 5020            00020 49943  2          +
 USING  ASB,R9
 DROP   ASB,R5
 DROP   ASBPCB,R7
 USING  ASBPCB,R5
 DROP   @RESPT-72,R13
 USING  @LOCKS-72,R13
 005A1E D203 D048 5018 00000 00018 50005  3          +
 005A24 58F0 6030/0DEF       00030 50011  1          +
 USING  ASBPCB,R7
 DROP   ASBPCB,R5
 005A2A 9140 C048      00000       50043  1          +
 005A2E 47E0 A0D6            05A3E 50044  1          +
 005A32 D203 D048 7018 00000 00018 50058  2          +
 005A38 58F0 6030/0DEF       00030 50064  1          +
 005A3E 8000 C049      00001       50070  1          +
 DROP   ASBPCB,R7                  50071    6683.              END   ,                       OF PCB addr
 005A42 981F C008            00008 50079    6684.              PEND  ,
 DROP   ASB,R9
 DROP   PAGCB,R6
 DROP   #PAGE-72,R12
 DROP   PAGAST1,R10
 005A46 9680 C000/0B0E 00000       50104             +
 DROP   @LOCKS-72,R13
1PAGESERV (PAGE00) (09:42) (22MAR04) Address space termination - 2nd phase                                                  Page  282
0Loc    Object Code    Addr1 Addr2  Stmt Lv Lineno    Source Statement           (Hibal 5, Asmedit 3.3)  HLASM R4.0  2004/03/22 09.42
+___    ______ ____    _____ _____  ____ __ ______    ______ _________
0                                  50114    6686.
                                   50115    6687.
                                   50116    6688.       Release the real memory resources associated with an ASB
                                   50117    6689.
                                   50118    6690.        Input - None
                                   50119    6691.
                                   50120    6692.       Output - None
                                   50121    6693.                  The ASB has the LASP parameters set to the GLOBAL
                                   50122    6694.                ASN, and that ASN is established
                                   50123    6695.
                                   50124    6696.

0005A4C                            50126    6698.     PAGAST2  PROC  ,#PAGE,SCOPE=GLOBAL
 005A4C D7C1C7C1E2E3F240           50132             +
 005A54 0000/0008                  50133             +
 005A58 900F D004/18AF       00004 50135             +
 USING  PAGAST2,R10
 005A5E 50D0 C000/18CD       00000 50150             +
 005A64 9680 C000      00000       50152             +
 USING  #PAGE-72,R12
 005A68 41D0 C050            00050 50166             +
 005A6C 5860 0200            00200 50167    6699.              PAGAD RPAG
 USING  PZERO,R0
 DROP   PZERO,R0
 USING  MAT,R6
 005A70 5860 600C            0000C 50201             +
 DROP   MAT,R6
 USING  PAGCB,R6
 USING  PZERO,R0                   50223    6700.              USING PZERO,R0
 005A74 5890 0208            00208 50232    6701.              L     RN,PZCURASB
 DROP   PZERO,R0                   50233    6702.              DROP  R0
 USING  ASB,R9                     50241    6703.              WITH  (ASB,RN)
 005A78 5870 9020            00020 50254    6704.              L     RPCB,ASBPAGB
 USING  ASBPCB,R7                  50255    6705.              WITH  (ASBPCB,RPCB),BEGIN     ASBPCB address
                                   50269  1 6706.
 005A7C AC04 C049      00001       50270  1 6707.                PAGNTRY SYNC,#PAGPSWM,#PAGFLGS
 USING  @LOCKS-72,R13
 005A80 D203 D048 7018 00000 00018 50290  1          +
 005A86 58F0 602C/0DEF       0002C 50296  1          +
 005A8C D200 C048 70B6 00000 000B6 50298  1          +
 005A92 9260 70B6      000B6       50308  1          +
 005A96 9180 7022      00022       50318  1          +
 005A9A 47E0 A04A            05AA2 50319  1          +
 005A9E 92A0 70B6      000B6       50334  1          +
 005AA2 9640 7022      00022       50339  1 6708.                SET   PCBFTERM                No frame mgmt from here on
 005AA6 5820 7084            00084 50345  1 6709.                L     RA,PCBWCNT              Page writes outstanding
 005AAA 4310 70B6            000B6 50346  1 6710.                PAGXIT SYNC,#PAGPSWM,#PAGFLGS,WR=RS
 005AAE D200 70B6 C048 000B6 00000 50350  1          +
 005AB4 4210 C048            00000 50351  1          +
 005AB8 9180 C048      00000       50361  1          +
 005ABC 47E0 A07C            05AD4 50362  1          +
 005AC0 5850 6018            00018 50367  2          +
 DROP   ASB,R9
 USING  ASB,R5
 005AC4 5850 5020            00020 50391  2          +
1PAGESERV (PAGE00) (09:42) (22MAR04) Address space termination - 2nd phase                                                  Page  283
0Current Usings:  (ASBPCB,R5) (PAGCB,R6) (ASB,R9) (PAGAST2,R10) (#PAGE-72,R12) (@LOCKS-72,R13)
0Loc    Object Code    Addr1 Addr2  Stmt Lv Lineno    Source Statement           (Hibal 5, Asmedit 3.3)  HLASM R4.0  2004/03/22 09.42
+___    ______ ____    _____ _____  ____ __ ______    ______ _________
0USING  ASB,R9
 DROP   ASB,R5
 DROP   ASBPCB,R7
 USING  ASBPCB,R5
 005AC8 D203 D048 5018 00000 00018 50443  3          +
 005ACE 58F0 6030/0DEF       00030 50449  1          +
 USING  ASBPCB,R7
 DROP   ASBPCB,R5
 005AD4 9140 C048      00000       50481  1          +
 005AD8 47E0 A090            05AE8 50482  1          +
 005ADC D203 D048 7018 00000 00018 50496  2          +
 005AE2 58F0 6030/0DEF       00030 50502  1          +
 005AE8 8000 C049      00001       50508  1          +
                                   50509  1 6711.
                                   50510  1 6712.            Wait for page writes to finish
                                   50511  1 6713.
 005AEC 1222/47D0 A0AE       05B06 50512  1 6714.                IF    (RA,POS),BEGIN
 DROP   @LOCKS-72,R13              50526  2 6715.                  AWAIT PCBWECB,TYPE=AS
 USING  @AWAIT-72,R13
 005AF2 D704 D048 D048 00000 00000 50547  2          +
 005AF8 4100 7078            00078 50559  2          +
 005AFC 5000 D048            00000 50564  2          +
 005B00 58F0 A504/0DEF       05F5C 50567  2          +
 005B06                            50569  1 6716.                END   ,
 005B06 5850 6018            00018 50573  1 6717.                L     RCPCB,PAGCASB
 USING  GLOBAL.ASB,R5              50574  1 6718.                WITH  (ASB,RCPCB),LABEL=GLOBAL
 005B0A 5880 5020            00020 50582  1 6719.                L     RM,GLOBAL.ASBPAGB
 USING  GBL.ASBPCB,R8              50583  1 6720.                WITH  (ASBPCB,RM),LABEL=GBL,BEGIN      Gbl PCB addr
                                   50592  2 6721.
                                   50593  2 6722.              Put frames for seg table on global list
                                   50594  2 6723.
 005B0E 4830 60BC            000BC 50595  2 6724.                  LH    RB,PAGSEGP
 005B12 5820 701C            0001C 50596  2 6725.                  L     RA,PCBPSTO              PFTE addr
 005B16 B120 2000            00000 50597  2 6726.                  LRA   RA,@RA
 005B1A 8820 0007            00007 50598  2 6727.                  SRL   RA,L'PAGPAGM-PFTLOG       for seg
 005B1E 5E20 6044            00044 50599  2 6728.                  AL    RA,PAGPFTO                  frame
 USING  PFTE,R2                    50600  2 6729.                  WITH  (PFTE,RA)
 005B22 AC04 70B5      000B5       50613  2 6730.                  SLKOB GBL.PCBLOCK,PCBPSWM
 DROP   @AWAIT-72,R13
 USING  @LOCKS-72,R13
 005B26 D203 D048 8018 00000 00018 50634  2          +
 005B2C 58F0 602C/0DEF       0002C 50640  2          +
 005B32                            50642  2 6731.                  LOOP  BEGIN                   Take Seg tbl frames
 005B32 41E0 7048/1B00       00048 50648  3 6732.                    LREM  PCBSFLH,LA:PFTE,WR=RS
 005B38 58F0 E008            00008 50683  4          +
 005B3C 4110 0001/1BF1       00001 50691  4          +
 005B42 4740 A106            05B5E 50702  4          +
 005B46 50F0 E008/18F2       00008 50708  4          +
 005B4C 180F/58E0 F004       00004 50715  4          +
 005B52 58F0 F000            00000 50723  4          +
 005B56 50E0 F004            00004 50724  4          +
 005B5A 50F0 E000            00000 50725  3          +
 005B5E 4110 8054            00054 50730  3 6733.                    LADD  GBL.PCBLFLH,LA:PFTE,WR=RS
 005B62 41E0 0001            00001 50761  3          +
1PAGESERV (PAGE00) (09:42) (22MAR04) Address space termination - 2nd phase                                                  Page  284
0Current Usings:  (PFTE,R2) (GLOBAL.ASB,R5) (PAGCB,R6) (ASBPCB,R7) (GBL.ASBPCB,R8) (ASB,R9) (PAGAST2,R10) (#PAGE-72,R12) (@LOCKS-72,R13)
0Loc    Object Code    Addr1 Addr2  Stmt Lv Lineno    Source Statement           (Hibal 5, Asmedit 3.3)  HLASM R4.0  2004/03/22 09.42
+___    ______ ____    _____ _____  ____ __ ______    ______ _________
0005B66 5EE0 1008            00008 50762  3          +
 005B6A 50E0 1008            00008 50763  3          +
 005B6E 58E0 1004            00004 50770  3          +
 005B72 5020 1004            00004 50776  3          +
 005B76 5010 2000            00000 50777  3          +
 005B7A 50E0 2004            00004 50783  3          +
 005B7E 5020 E000            00000 50784  3          +
 005B82 D203 200C 800C 0000C 0000C 50786  3 6734.                    MVC   PFTASB,GBL.PCBASB       Set ASB of owner
 005B88 9254 201C      0001C       50787  3 6735.                    MVI   PFTQ,PCBLFLH-ASBPCB       and queue id
 005B8C 4120 2020            00020 50788  3 6736.                    LA    RA,PFTNXT
 005B90 4630 A0DA            05B32 50789  2 6737.                  UNTIL (BCT,RB),END            OF Take Seg tbl frames
 005B94                            50799  2 6738.                  SLKRL GBL.PCBLOCK,PCBPSWM
 005B94 D203 D048 8018 00000 00018 50809  2          +
 005B9A 58F0 6030/0DEF       00030 50815  2          +
 005BA0 8000 70B5      000B5       50817  2          +
 DROP   PFTE,R2                    50818  1 6739.                END   ,                       OF Gbl PCB addr
 DROP   GBL.ASBPCB,R8
                                   50834  1 6740.
                                   50835  1 6741.            Release real memory resources, and backing store
                                   50836  1 6742.
 DROP   @LOCKS-72,R13              50837  1 6743.                PSET  @FRAMTERM
 USING  @FRAMTERM-72,R13
 005BA4 D703 D048 D048 00000 00000 50857  1          +
 005BAA 5070 D048            00000 50858  1 6744.                PMOV  @FTPCB,LA:ASBPCB
 005BAE 41F0 A212/0DEF       05C6A 50869  1 6745.                LCALL FRAMTERM
                                   50878  1 6746.
 005BB4 58F0 A508/0DEF       05F60 50879  1 6747.                ACALL CELLDALL
                                   50886  1 6748.
                                   50887  1 6749.            Set ASN to be same as global, and establish that ASN
                                   50888  1 6750.
 005BBA D203 9020 5020 00020 00020 50889  1 6751.                MVC   ASBPAGB,GLOBAL.ASBPAGB  Set PCB to global
 005BC0 4830 900E            0000E 50890  1 6752.                LH    RB,ASBPASN              Save primary ASN
 005BC4 D207 9008 5008 00008 00008 50891  1 6753.                MVC   ASBLASP,GLOBAL.ASBLASP  Copy global ASNs
 005BCA 4110 0004            00004 50892  1 6754.                LA    RS,X'04'                Lasp parm - insist on xlate
 005BCE 5610 A50C            05F64 50893  1 6755.                O     RS,=A(ASBLPARM)
 005BD2 E500 9008 1000 00008 00000 50894  1 6756.                LASP  ASBLASP,0(RS)
                                   50895  1 6757.
                                   50896  1 6758.            Free ASN
                                   50897  1 6759.
 DROP   @FRAMTERM-72,R13           50898  1 6760.                PSET  @ASNFREE
 USING  @ASNFREE-72,R13
 005BD8 D701 D048 D048 00000 00000 50918  1          +
 005BDE 4030 D048            00000 50919  1 6761.                PMOV  @ASNFASN,(RB)
 005BE2 58F0 A510/0DEF       05F68 50929  1 6762.                ACALL ASNFREE
                                   50936  1 6763.
                                   50937  1 6764.            Free real memory lock for this ASB
                                   50938  1 6765.
 DROP   @ASNFREE-72,R13            50939  1 6766.                PSET  @LOCKS
 USING  @LOCKS-72,R13
 005BE8 D703 D048 D048 00000 00000 50959  1          +
 005BEE                            50960  1 6767.                PMOV  @LOCKID,PCBLOCK
 005BEE D203 D048 7018 00000 00018 50964  1          +
 005BF4 58F0 A514/0DEF       05F6C 50965  1 6768.                VCALL LKDEL
 005BFA                            50969  1 6769.                CLEAR PCBLOCK
1PAGESERV (PAGE00) (09:42) (22MAR04) Address space termination - 2nd phase                                                  Page  285
0Current Usings:  (GLOBAL.ASB,R5) (PAGCB,R6) (ASBPCB,R7) (ASB,R9) (PAGAST2,R10) (#PAGE-72,R12) (@LOCKS-72,R13)
0Loc    Object Code    Addr1 Addr2  Stmt Lv Lineno    Source Statement           (Hibal 5, Asmedit 3.3)  HLASM R4.0  2004/03/22 09.42
+___    ______ ____    _____ _____  ____ __ ______    ______ _________
0005BFA D703 7018 7018 00018 00018 50975  1          +
 005C00 5820 701C            0001C 50976  1 6770.                L     RA,PCBPSTO              Save segment table origin
                                   50977  1 6771.
                                   50978  1 6772.            Free PAGING control block
                                   50979  1 6773.
 DROP   @LOCKS-72,R13              50980  1 6774.                VMFREE L'ASBPCB,A=LA:ASBPCB,LOC=GLOBHI,FIX=YES
 USING  @VMFREE-72,R13
 005C04 D709 D048 D048 00000 00000 51007  1          +
 005C0A 4100 00B8            000B8 51019  1          +
 005C0E 5000 D04C            00004 51024  1          +
 005C12 5070 D048            00000 51035  1          +
 005C16 D201 D050 A532 00008 05F8A 51036  1          +
 005C1C 58F0 A518/0DEF       05F70 51039  1          +
 DROP   GLOBAL.ASB,R5              51041    6775.              END   ,                       OF PCB addr
 DROP   ASBPCB,R7
                                   51057    6776.
                                   51058    6777.          Free global memory for segment table
                                   51059    6778.
 005C22 4830 60BC            000BC 51060    6779.              LH    RB,PAGSEGP              Number of pages for seg tbl
 005C26 8930 000C            0000C 51061    6780.              SLL   RB,12                   |
 005C2A                            51062    6781.              VMFREE (RB),A=(RA),LOC=GLOBHI,FIX=YES
 005C2A D709 D048 D048 00000 00000 51079             +
 005C30 5030 D04C            00004 51089             +
 005C34 5020 D048            00000 51099             +
 005C38 D201 D050 A532 00008 05F8A 51100             +
 005C3E 58F0 A518/0DEF       05F70 51103             +
                                   51105    6782.
                                   51106    6783.          One less user in memory
                                   51107    6784.
 005C44 5820 60B0            000B0 51108    6785.              L     RA,PAGASIN
 005C48                            51109    6786.              LOOP  BEGIN
 005C48 1832                       51115  1 6787.                LR    RB,RA
 005C4A 0630                       51116  1 6788.                DECR  RB
 005C4C BA23 60B0            000B0 51118  1 6789.                CS    RA,RB,PAGASIN
 005C50 4770 A1F0            05C48 51119    6790.              UNTIL EQUAL,END
 005C54 981F C008            00008 51138    6791.              PEND  ,
 DROP   ASB,R9
 DROP   PAGCB,R6
 DROP   #PAGE-72,R12
 DROP   PAGAST2,R10
 005C58 9680 C000/0B0E 00000       51163             +
 DROP   @VMFREE-72,R13
1PAGESERV (PAGE00) (09:42) (22MAR04) Remove an address space's memory                                                       Page  286
0Loc    Object Code    Addr1 Addr2  Stmt Lv Lineno    Source Statement           (Hibal 5, Asmedit 3.3)  HLASM R4.0  2004/03/22 09.42
+___    ______ ____    _____ _____  ____ __ ______    ______ _________
0                                  51173    6793.     *NEST,1
                                   51174    6794.
                                   51175    6795.
                                   51176    6796.       Remove the vitrual memory backing and real memory for an ASB
                                   51177    6797.         Address space lock held on entry
                                   51178    6798.
                                   51179    6799.        Input - @FRAMTERM
                                   51180    6800.
                                   51181    6801.       Output - None
                                   51182    6802.
                                   51183    6803.

0000000                00000 00009 51184    6804.     #FRAMTERM RECORD BEGIN
 000000                            51192  1 6805.     #FTSGTN    DS    D                       Segment entry, count left
 000008                            51193  1 6806.     #FTPSWM    DS    X                       PSW mask for disable
 000009                00009 00009 51194    6807.              END   ,
0000000                00000 00004 51204    6809.     @FRAMTERM RECORD BEGIN
 000000                            51212  1 6810.     @FTPCB     DS    A
 000004                00004 00004 51213    6811.              END   ,
0005C5E                            51223    6813.     FRAMTERM PROC  @FRAMTERM,#FRAMTERM
 005C5E C6D9C1D4E3C5D9D4           51230             +
 005C66 0008/0010                  51231             +
 005C6A 900F D004/18AF       00004 51233             +
 USING  FRAMTERM,R10
 005C70 50D0 C000/18CD       00000 51248             +
 005C76 9680 C000      00000       51250             +
 USING  @FRAMTERM-72,R12
 AUSING (#FRAMTERM,@FRAMTERM+8)
 005C7A 41D0 C060            00060 51269             +
 005C7E 5860 0200            00200 51270    6814.              PAGAD RPAG
 USING  PZERO,R0
 DROP   PZERO,R0
 USING  MAT,R6
 005C82 5860 600C            0000C 51304             +
 DROP   MAT,R6
 USING  PAGCB,R6
 005C86 AC04 C058      00008       51326    6815.              STNSM #FTPSWM,DISABLE
 005C8A 5870 C048            00000 51327    6816.              L     RPCB,@FTPCB
 USING  ASBPCB,R7                  51328    6817.              WITH  (ASBPCB,RPCB)
 005C8E 5840 701C            0001C 51341    6818.              L     RJ,PCBPSTO              Start of seg tbl
 005C92 5850 60B8            000B8 51342    6819.              L     RK,PAGMEG               | number of entries
 005C96 9045 C050            00000 51343    6820.              STM   RJ,RK,#FTSGTN           |
 005C9A 48B0 60BE            000BE 51344    6821.              LH    BRR,PAGSEGL             | start of shadow seg
 005C9E 1EB4                       51345    6822.              ALR   BRR,RJ                  |
 005CA0                            51346    6823.              LOOP  BEGIN
 USING  SGTE,R4                    51352  1 6824.                WITH  (SGTE,RJ)
 USING  SSTE,R11                   51365  1 6825.                WITH  (SSTE,BRR)
 005CA0 9110 4003      00003       51378  1 6826.                IF    (~SGTFCOMM,AND,SSTFDEF),BEGIN    Local segment
 005CA4 4710 A154            05DBE 51390  1          +
 005CA8 9180 B006      00006       51401  1          +
 005CAC 47E0 A154            05DBE 51402  1          +
 005CB0 9120 4003      00003       51407  2 6827.                  IF    SGTFINV,BEGIN           All page tables should be in
 005CB4 47E0 A07E            05CE8 51417  2          +
1PAGESERV (PAGE00) (09:42) (22MAR04) Remove an address space's memory                                                       Page  287
0Current Usings:  (PZERO,R0) (SGTE,R4) (PAGCB,R6) (ASBPCB,R7) (FRAMTERM,R10) (SSTE,R11) (@FRAMTERM-72,R12)
0Loc    Object Code    Addr1 Addr2  Stmt Lv Lineno    Source Statement           (Hibal 5, Asmedit 3.3)  HLASM R4.0  2004/03/22 09.42
+___    ______ ____    _____ _____  ____ __ ______    ______ _________
0005CB8 AC04 021B      0021B       51422  3 6828.                    ABORT PAGTERMPT
 USING  PZERO,R0
 005CBC 9680 021A      0021A       51440  3          +
 005CC0 50F0 021C            0021C 51441  3          +
 005CC4 58F0 0210            00210 51442  3          +
 005CC8 89F0 0010            00010 51443  3          +
 005CCC 88F0 0010            00010 51444  3          +
 005CD0 41F0 F000            00000 51445  3          +
 005CD4 AEFF 0006            00006 51446  3          +
 005CD8 D7C1C7E3C5D9D4D7           51447  3          +
 DROP   PZERO,R0
 005CE8                            51456  2 6829.                  END   ,                       OF All page tables should be in
                                   51460  2 6830.
                                   51461  2 6831.
                                   51462  2 6832.       Undefine pages in PT
                                   51463  2 6833.
                                          2
0005CE8 5880 4000            00000 51464  2 6834.                  L     RM,SGTAD                Get VA of page table
 005CEC 5480 A30A            05F74 51465  2 6835.                  N     RM,=A(SGTADMSK)         |
 USING  @PAGRV-72,R13              51466  2 6836.                  RTOV  (RM)                    |
 005CF0 D707 D048 D048 00000 00000 51485  2          +
 005CF6 5080 D048            00000 51495  2          +
 005CFA 58F0 A30E/0DEF       05F78 51501  2          +
 005D00 1880                       51503  2 6837.                  LR    RM,RVR                  |
 USING  PGTE,R8                    51504  2 6838.                  WITH  (PGTE,RM),BEGIN         Addr to page table
 005D02 4190 8400            00400 51518  3 6839.                    WITH  (PAGTABLE,RM),'LA RN,SPGT'
 DROP   PGTE,R8
 USING  PAGTABLE,R8
 DROP   PAGTABLE,R8
 USING  PGTE,R8
 USING  SPTE,R9                    51552  3 6840.                    WITH  (SPTE,RN)
 005D06 4110 0100            00100 51565  3 6841.                    LA    RS,256                  Loop through all PT entries
 005D0A                            51566  3 6842.                    LOOP  BEGIN                   |
 005D0A 9180 8003      00003       51572  4 6843.                      IF    (PGTFDEF,AND,~PGTFPGT),BEGIN     Undefine normal def
 005D0E 47E0 A148            05DB2 51584  4          +
 005D12 9110 8003      00003       51595  4          +
 005D16 4710 A148            05DB2 51596  4          +
                                   51601  5 6844.
                                   51602  5 6845.                    Free frame if it is a valid page table entry
                                   51603  5 6846.
 005D1A 9104 8002      00002       51604  5 6847.                        IF    ~PGTFINV,BEGIN          Free frame if it is in
 005D1E 4710 A122            05D8C 51614  5          +
 005D22 5820 8000            00000 51619  6 6848.                          L     RA,PGAD                 PFTE addr
 005D26 8820 000C            0000C 51620  6 6849.                          SRL   RA,L'PAGPAGM            |
 005D2A 8920 0005            00005 51621  6 6850.                          SLL   RA,PFTLOG               |
 005D2E 5E20 6044            00044 51622  6 6851.                          AL    RA,PAGPFTO              |
 USING  PFTE,R2                    51623  6 6852.                          WITH  (PFTE,RA),BEGIN         |
 005D32 4830 2018/1233       00018 51637  7 6853.                            IF    ('LTH RB,PFTFIX',NZ),BEGIN
 005D38 4780 A102            05D6C 51648  7          +
 005D3C AC04 021B      0021B       51653  8 6854.                              ABORT PAGTERMFIX
 USING  PZERO,R0
 005D40 9680 021A      0021A       51671  8          +
 005D44 50F0 021C            0021C 51672  8          +
1PAGESERV (PAGE00) (09:42) (22MAR04) Remove an address space's memory                                                       Page  288
0Current Usings:  (PZERO,R0) (PFTE,R2) (SGTE,R4) (PAGCB,R6) (ASBPCB,R7) (PGTE,R8) (SPTE,R9) (FRAMTERM,R10) (SSTE,R11) (@FRAMTERM-72,R12) (@PAGRV-72,R13
 )
0Loc    Object Code    Addr1 Addr2  Stmt Lv Lineno    Source Statement           (Hibal 5, Asmedit 3.3)  HLASM R4.0  2004/03/22 09.42
+___    ______ ____    _____ _____  ____ __ ______    ______ _________
0005D48 58F0 0210            00210 51673  8          +
 005D4C 89F0 0010            00010 51674  8          +
 005D50 88F0 0010            00010 51675  8          +
 005D54 41F0 F000            00000 51676  8          +
 005D58 AEFF 0006            00006 51677  8          +
 005D5C D7C1C7E3C5D9D4C6           51678  8          +
 DROP   PZERO,R0
 005D6C                            51687  7 6855.                            END   ,
                                   51691  7 6856.
                                   51692  7 6857.                        Invalidate virtual addr
                                   51693  7 6858.
 005D6C B130 8000            00000 51694  7 6859.                            LRA   RB,PGTE
 005D70 5430 A2BE            05F28 51695  7 6860.                            N     RB,=A(PAGPAGM)
 005D74 58F0 2008            00008 51696  7 6861.                            L     EPAR,PFTVA
 005D78 B221 003F                  51697  7 6862.                            IPTE  RB,EPAR
                                   51698  7 6863.
                                   51699  7 6864.                        Release frame
                                   51700  7 6865.
 DROP   @PAGRV-72,R13              51701  7 6866.                            FRAMEREL LA:PFTE              Release frame
 USING  @FRAMREL-72,R13
 005D7C D707 D048 D048 00000 00000 51722  7          +
 005D82 5020 D04C            00004 51733  7          +
 005D86 58F0 A312/0DEF       05F7C 51739  7          +
                                   51741  7 6867.     *
                                   51742  7 6868.     *        QUSFIX (RN)
 DROP   PFTE,R2                    51743  6 6869.                          END   ,                       OF PFTE addr
 005D8C                            51751  5 6870.                        END   ,                       OF Free frame if it is in
                                   51755  5 6871.
                                   51756  5 6872.                    Release external frame
                                   51757  5 6873.
 005D8C 9104 8003      00003       51758  5 6874.                        IF    PGTFXDEF,BEGIN          Release if defined
 005D90 47E0 A13C            05DA6 51768  5          +
 DROP   @FRAMREL-72,R13            51773  6 6875.                          XPREL SPXSLOT
 USING  @XPREL-72,R13
 005D94 D70B D048 D048 00000 00000 51794  6          +
 005D9A D203 D048 9000 00000 00000 51799  6          +
 005DA0 58F0 A316/0DEF       05F80 51805  6          +
 005DA6                            51807  5 6876.                        END   ,                       OF Release if defined
                                   51811  5 6877.
                                   51812  5 6878.                    Reset page table entries
                                   51813  5 6879.
 005DA6 D203 8000 A2D6 00000 05F40 51814  5 6880.                        MVC   PGAD,=A(256*L'PGTFINV)
 005DAC                            51815  5 6881.                        CLEAR SPTE
 005DAC D707 9000 9000 00000 00000 51821  5          +
 005DB2                            51822  4 6882.                      END   ,                       OF Undefine normal defined pg
 005DB2 4180 8004            00004 51826  4 6883.                      LA    RM,PGTNXT
 005DB6 4190 9008            00008 51827  4 6884.                      LA    RN,SPTNXT
 005DBA 4610 A0A0            05D0A 51828  3 6885.                    UNTIL (BCT,RS),END            OF Loop through all PT entries
 DROP   SPTE,R9                    51838  2 6886.                  END   ,                       OF Addr to page table
 DROP   PGTE,R8
 005DBE                            51851  1 6887.                END   ,                       OF Local segment
 005DBE 4140 4004            00004 51855  1 6888.                LA    RJ,SGTNXT
 005DC2 41B0 B008            00008 51856  1 6889.                LA    BRR,SSTNXT
1PAGESERV (PAGE00) (09:42) (22MAR04) Remove an address space's memory                                                       Page  289
0Current Usings:  (PAGCB,R6) (ASBPCB,R7) (FRAMTERM,R10) (@FRAMTERM-72,R12) (@XPREL-72,R13)
0Loc    Object Code    Addr1 Addr2  Stmt Lv Lineno    Source Statement           (Hibal 5, Asmedit 3.3)  HLASM R4.0  2004/03/22 09.42
+___    ______ ____    _____ _____  ____ __ ______    ______ _________
0005DC6 4650 A036            05CA0 51857    6890.              UNTIL (BCT,RK),END
 DROP   SSTE,R11
 DROP   SGTE,R4
1PAGESERV (PAGE00) (09:42) (22MAR04) Remove an address space's memory                                                       Page  290
0Current Usings:  (PAGCB,R6) (ASBPCB,R7) (FRAMTERM,R10) (@FRAMTERM-72,R12) (@XPREL-72,R13)
0Loc    Object Code    Addr1 Addr2  Stmt Lv Lineno    Source Statement           (Hibal 5, Asmedit 3.3)  HLASM R4.0  2004/03/22 09.42
+___    ______ ____    _____ _____  ____ __ ______    ______ _________
0                                  51878    6892.
                                   51879    6893.
                                   51880    6894.       Invalidate page table virtual addresses
                                   51881    6895.

0005DCA 9845 C050            00000 51882    6896.              LM    RJ,RK,#FTSGTN
 005DCE 48B0 60BE            000BE 51883    6897.              LH    BRR,PAGSEGL
 005DD2 1EB4                       51884    6898.              ALR   BRR,RJ
 005DD4                            51885    6899.              LOOP  BEGIN                   Undefine page table VAs
 USING  SGTE,R4                    51891  1 6900.                WITH  (SGTE,RJ)
 USING  SSTE,R11                   51904  1 6901.                WITH  (SSTE,BRR)
 005DD4 9110 4003      00003       51917  1 6902.                IF    (~SGTFCOMM,AND,SSTFDEF),BEGIN    Local defined seg
 005DD8 4710 A1F2            05E5C 51929  1          +
 005DDC 9180 B006      00006       51940  1          +
 005DE0 47E0 A1F2            05E5C 51941  1          +
 005DE4 9120 4003      00003       51946  2 6903.                  IF    SGTFINV,BEGIN
 005DE8 47E0 A1B2            05E1C 51956  2          +
 005DEC AC04 021B      0021B       51961  3 6904.                    ABORT PAGTERMPT
 USING  PZERO,R0
 005DF0 9680 021A      0021A       51979  3          +
 005DF4 50F0 021C            0021C 51980  3          +
 005DF8 58F0 0210            00210 51981  3          +
 005DFC 89F0 0010            00010 51982  3          +
 005E00 88F0 0010            00010 51983  3          +
 005E04 41F0 F000            00000 51984  3          +
 005E08 AEFF 0006            00006 51985  3          +
 005E0C D7C1C7E3C5D9D4D7           51986  3          +
 DROP   PZERO,R0
 005E1C                            51995  2 6905.                  END   ,
                                   51999  2 6906.
                                   52000  2 6907.              Invalidate PTs VA
                                   52001  2 6908.
 005E1C 5820 4000            00000 52002  2 6909.                  L     RA,SGTAD                PFTE addr
 005E20 8820 000C            0000C 52003  2 6910.                  SRL   RA,L'PAGPAGM            |
 005E24 8920 0005            00005 52004  2 6911.                  SLL   RA,PFTLOG               |
 005E28 5E20 6044            00044 52005  2 6912.                  AL    RA,PAGPFTO              |
 USING  PFTE,R2                    52006  2 6913.                  WITH  (PFTE,RA),BEGIN         |
 005E2C 5830 2008            00008 52020  3 6914.                    L     RB,PFTVA                VA of page table
 005E30 18F3                       52021  3 6915.                    LR    EPAR,RB                 Get real addr of PT that maps
 005E32 88F0 0014            00014 52022  3 6916.                    SRL   EPAR,L'PAGSGNM          |
 005E36 89F0 0002            00002 52023  3 6917.                    SLL   EPAR,SGTLOG             |
 005E3A 5EF0 701C            0001C 52024  3 6918.                    AL    EPAR,PCBPSTO            |
 005E3E 58F0 F000            00000 52025  3 6919.                    WITH  (SGTE,EPAR),'L EPAR,SGTAD'
 USING  SGTE,R15
 DROP   SGTE,R15
 005E42 54F0 A2BE            05F28 52049  3 6920.                    N     EPAR,=A(PAGPAGM)        |
 005E46 B221 00F3                  52050  3 6921.                    IPTE  EPAR,RB                 |
 DROP   PFTE,R2                    52051  2 6922.                  END   ,                       OF PFTE addr
1PAGESERV (PAGE00) (09:42) (22MAR04) Remove an address space's memory                                                       Page  291
0Current Usings:  (SGTE,R4) (PAGCB,R6) (ASBPCB,R7) (FRAMTERM,R10) (SSTE,R11) (@FRAMTERM-72,R12) (@XPREL-72,R13)
0Loc    Object Code    Addr1 Addr2  Stmt Lv Lineno    Source Statement           (Hibal 5, Asmedit 3.3)  HLASM R4.0  2004/03/22 09.42
+___    ______ ____    _____ _____  ____ __ ______    ______ _________
0                                  52059  2 6923.
                                   52060  2 6924.              Release external frame for page table
                                   52061  2 6925.
 005E4A                            52062  2 6926.                  XPREL SSXSLOT
 005E4A D70B D048 D048 00000 00000 52073  2          +
 005E50 D203 D048 B000 00000 00000 52078  2          +
 005E56 58F0 A316/0DEF       05F80 52084  2          +
 005E5C                            52086  1 6927.                END   ,                       OF Local defined seg
 005E5C 4140 4004            00004 52090  1 6928.                LA    RJ,SGTNXT
 005E60 41B0 B008            00008 52091  1 6929.                LA    BRR,SSTNXT
 005E64 4650 A16A            05DD4 52092    6930.              UNTIL (BCT,RK),END            OF Undefine page table VAs
 DROP   SSTE,R11
 DROP   SGTE,R4
1PAGESERV (PAGE00) (09:42) (22MAR04) Remove an address space's memory                                                       Page  292
0Current Usings:  (PAGCB,R6) (ASBPCB,R7) (FRAMTERM,R10) (@FRAMTERM-72,R12) (@XPREL-72,R13)
0Loc    Object Code    Addr1 Addr2  Stmt Lv Lineno    Source Statement           (Hibal 5, Asmedit 3.3)  HLASM R4.0  2004/03/22 09.42
+___    ______ ____    _____ _____  ____ __ ______    ______ _________
0                                  52113    6932.
                                   52114    6933.
                                   52115    6934.       Release page table frames
                                   52116    6935.

0005E68 9845 C050            00000 52117    6936.              LM    RJ,RK,#FTSGTN
 005E6C 48B0 60BE            000BE 52118    6937.              LH    BRR,PAGSEGL
 005E70 1EB4                       52119    6938.              ALR   BRR,RJ
 005E72                            52120    6939.              LOOP  BEGIN                   Undefine page table VAs
 USING  SGTE,R4                    52126  1 6940.                WITH  (SGTE,RJ)
 USING  SSTE,R11                   52139  1 6941.                WITH  (SSTE,BRR)
 005E72 9110 4003      00003       52152  1 6942.                IF    (~SGTFCOMM,AND,SSTFDEF),BEGIN    Local defined seg
 005E76 4710 A244            05EAE 52164  1          +
 005E7A 9180 B006      00006       52175  1          +
 005E7E 47E0 A244            05EAE 52176  1          +
 005E82 5820 4000            00000 52181  2 6943.                  L     RA,SGTAD                PFTE addr
 005E86 8820 000C            0000C 52182  2 6944.                  SRL   RA,L'PAGPAGM            |
 005E8A 8920 0005            00005 52183  2 6945.                  SLL   RA,PFTLOG               |
 005E8E 5E20 6044            00044 52184  2 6946.                  AL    RA,PAGPFTO              |
 USING  PFTE,R2                    52185  2 6947.                  WITH  (PFTE,RA),BEGIN         |
 DROP   @XPREL-72,R13              52199  3 6948.                    FRAMEREL LA:PFTE
 USING  @FRAMREL-72,R13
 005E92 D707 D048 D048 00000 00000 52220  3          +
 005E98 5020 D04C            00004 52231  3          +
 005E9C 58F0 A312/0DEF       05F7C 52237  3          +
 DROP   PFTE,R2                    52239  2 6949.                  END   ,                       OF PFTE addr
                                   52247  2 6950.
 005EA2 D203 4000 A31A 00000 05F84 52248  2 6951.                  MVC   SGTAD,=A(L'SGTFINV)     Set seg as invalid
 005EA8                            52249  2 6952.                  CLEAR SSTE                    Clear shadow entry
 005EA8 D707 B000 B000 00000 00000 52255  2          +
 005EAE                            52256  1 6953.                END   ,                       OF Local defined seg
 005EAE 4140 4004            00004 52260  1 6954.                LA    RJ,SGTNXT
 005EB2 41B0 B008            00008 52261  1 6955.                LA    BRR,SSTNXT
 005EB6 4650 A208            05E72 52262    6956.              UNTIL (BCT,RK),END            OF Release page table frames
 DROP   SSTE,R11
 DROP   SGTE,R4
                                   52282    6957.
                                   52283    6958.          Check to make sure all frames released
                                   52284    6959.
                                   52285    6960.   C          IF    (('LT RS,PCBFCNT',NZ),OR,('LT RS,PCBPFCNT',NZ),OR,
 005EBA 5810 7038/1211       00038          6961.                    ('LT RS,PCBSFCNT',NZ),OR,('LT RS,PCBLFCNT',NZ)),BEGIN
 005EC0 4770 A278            05EE2 52300             +
 005EC4 5810 7044/1211       00044 52309             +
 005ECA 4770 A278            05EE2 52313             +
 005ECE 5810 7050/1211       00050 52322             +
 005ED4 4770 A278            05EE2 52326             +
 005ED8 5810 705C/1211       0005C 52335             +
 005EDE 4780 A2A8            05F12 52337             +
 005EE2 AC04 021B      0021B       52342  1 6962.                ABORT PAGTERMFRAME
 USING  PZERO,R0
 005EE6 9680 021A      0021A       52360  1          +
 005EEA 50F0 021C            0021C 52361  1          +
 005EEE 58F0 0210            00210 52362  1          +
1PAGESERV (PAGE00) (09:42) (22MAR04) Remove an address space's memory                                                       Page  293
0Current Usings:  (PZERO,R0) (PAGCB,R6) (ASBPCB,R7) (FRAMTERM,R10) (@FRAMTERM-72,R12) (@FRAMREL-72,R13)
0Loc    Object Code    Addr1 Addr2  Stmt Lv Lineno    Source Statement           (Hibal 5, Asmedit 3.3)  HLASM R4.0  2004/03/22 09.42
+___    ______ ____    _____ _____  ____ __ ______    ______ _________
0005EF2 89F0 0010            00010 52363  1          +
 005EF6 88F0 0010            00010 52364  1          +
 005EFA 41F0 F000            00000 52365  1          +
 005EFE AEFF 0006            00006 52366  1          +
 005F02 D7C1C7E3C5D9D4C6           52367  1          +
 DROP   PZERO,R0
 005F12                            52376    6963.              END   ,                       OF Missed a frame
 005F12 8000 C058      00008       52380    6964.              SSM   #FTPSWM
 005F16 981F C008            00008 52381    6965.              PEND  ,
 DROP   ASBPCB,R7
 DROP   PAGCB,R6
 DROP   @FRAMTERM-72,R12
 DROP   FRAMTERM,R10
 005F1A 9680 C000/0B0E 00000       52406             +
 DROP   @FRAMREL-72,R13
                                   52415    6966.     *NEST,2
1PAGESERV (PAGE00) (09:42) (22MAR04) MP-ORVYL Real Memory / Paging Manager Services                                         Page  294
0Loc    Object Code    Addr1 Addr2  Stmt Lv Lineno    Source Statement           (Hibal 5, Asmedit 3.3)  HLASM R4.0  2004/03/22 09.42
+___    ______ ____    _____ _____  ____ __ ______    ______ _________
0005F20                            52417    6968.              LTORG ,
 005F20 00007766                   52419                             =A(PCBINIT)
 005F24 00006E4E                   52420                             =A(ASNGET)
 005F28 7FFFF000                   52421                             =A(PAGPAGM)
 005F2C 00000000                   52422                             =V(VMGET)
 005F30 00001872                   52423                             =A(MAKEROOM)
 005F34 7FF00000                   52424                             =A(PAGSGNM)
 005F38 0000000F                   52425                             =A((256/16)-1)
 005F3C 00006652                   52426                             =A(XPGET)
 005F40 00000400                   52427                             =A(256*L'PGTFINV)
 005F44 000FF000                   52428                             =A(PAGPGNM)
 005F48 00000000                   52429                             =V(CPLOCK)
 005F4C 00003594                   52430                             =A(VALIDASN)
 005F50 00000000                   52431                             =V(CPULOCK)
 005F54 00007296                   52432                             =A(CELLALL)
 005F58 00000824                   52433                             =A(RESPT)
 005F5C 00000000                   52434                             =V(AWAITAS)
 005F60 0000739C                   52435                             =A(CELLDALL)
 005F64 00000003                   52436                             =A(ASBLPARM)
 005F68 0000701C                   52437                             =A(ASNFREE)
 005F6C 00000000                   52438                             =V(LKDEL)
 005F70 00000000                   52439                             =V(VMFREE)
 005F74 7FFFFFC0                   52440                             =A(SGTADMSK)
 005F78 0000078C                   52441                             =A(PAGRV)
 005F7C 000064E2                   52442                             =A(FRAMEREL)
 005F80 00006876                   52443                             =A(XPREL)
 005F84 00000020                   52444                             =A(L'SGTFINV)
 005F88 000C                       52445                             =Y(L'SGTE+L'SSTE)
 005F8A 3F00                       52446                             =Y(63*256+0)
 005F8C 0001                       52447                             =Y(1)
 005F8E 1000                       52448                             =Y(PAGPAGEL)
 005F90 04             05F91 0A6E0 52449                             =X'04'
1PAGESERV (PAGE00) (09:42) (22MAR04) Allocate a page frame                                                                  Page  295
0Loc    Object Code    Addr1 Addr2  Stmt Lv Lineno    Source Statement           (Hibal 5, Asmedit 3.3)  HLASM R4.0  2004/03/22 09.42
+___    ______ ____    _____ _____  ____ __ ______    ______ _________
0                                  52454    6970.
                                   52455    6971.
                                   52456    6972.       Allocate one or more page frames
                                   52457    6973.
                                   52458    6974.        Input - @FRAMGET
                                   52459    6975.
                                   52460    6976.       Output - @FRAMGET and RVR
                                   52461    6977.                  RVR contains the real address of the frame
                                   52462    6978.                  For synchronous operations the procedure does not
                                   52463    6979.                return until the required number of frames are
                                   52464    6980.                allocated.
                                   52465    6981.                  For asynchronous operations the procedure will return
                                   52466    6982.                with @FRAOK set if the allocation was successful.
                                   52467    6983.
                                   52468    6984.

0000000                00000 0001E 52469    6985.     #FRAMEGET RECORD BEGIN
                                   52477  1 6986.     #FGLIST    LHEAD PFX=#FG                 Temp frame list
                                   52478  1 01-LHEAD +#FGLIST    EQU   *,12,C'N'
 000000                            52479  1 01-LHEAD +#FGFP      DS    A                       Forward pointer
 000004                            52480  1 01-LHEAD +#FGBP      DS    A                       Backward pointer
 000008                            52481  1 01-LHEAD +#FGCNT     DS    A                       Number of elements in list
                                   52482  1 6987.     #FGCBS     LHEAD PFX=#FGC                Temp swap CB list
                                   52483  1 01-LHEAD +#FGCBS     EQU   *,12,C'N'
 00000C                            52484  1 01-LHEAD +#FGCFP     DS    A                       Forward pointer
 000010                            52485  1 01-LHEAD +#FGCBP     DS    A                       Backward pointer
 000014                            52486  1 01-LHEAD +#FGCCNT    DS    A                       Number of elements in list
 000018                            52487  1 6988.     #FGNEED    DS    A                       Needed frames count
 00001C                            52488  1 6989.     #FGPSWM    DS    X                       PSW mask for disabling
 00001D 00                         52489  1 6990.     #FGFLAG    FLAG  ,
 #FGFLAG.#FGPTLB   80 ONES         52493  1 6991.                FLAG  #FGPTLB                 We need to do a PTLB
 00001E                0001E 0001E 52498    6992.              END   ,
0005F92                            52508    6994.     FRAMEGET PROC  @FRAMGET,#FRAMEGET      Allocate a page frame
 005F92 C6D9C1D4C5C7C5E3           52515             +
 005F9A 0020/0020                  52516             +
 005F9E 900F D004/18AF       00004 52518             +
 USING  FRAMEGET,R10
 005FA4 50D0 C000/18CD       00000 52533             +
 005FAA 9680 C000      00000       52535             +
 USING  @FRAMGET-72,R12
 AUSING (#FRAMEGET,@FRAMGET+32)
 005FAE 41D0 C088            00088 52554             +
                                   52555    6995.     *        CLEAR @FRAOK                  Not OK
 005FB2 5860 0200            00200 52556    6996.              PAGAD RPAG
 USING  PZERO,R0
 DROP   PZERO,R0
 USING  MAT,R6
 005FB6 5860 600C            0000C 52590             +
 DROP   MAT,R6
 USING  PAGCB,R6
 005FBA AC04 C084      0001C       52612    6997.              SLKOB PAGFRAL,#FGPSWM         Get free frames lock
 USING  @LOCKS-72,R13
 005FBE D203 D048 603C 00000 0003C 52630             +
 005FC4 58F0 602C/0DEF       0002C 52636             +
1PAGESERV (PAGE00) (09:42) (22MAR04) Allocate a page frame                                                                  Page  296
0Current Usings:  (PAGCB,R6) (FRAMEGET,R10) (@FRAMGET-72,R12) (@LOCKS-72,R13)
0Loc    Object Code    Addr1 Addr2  Stmt Lv Lineno    Source Statement           (Hibal 5, Asmedit 3.3)  HLASM R4.0  2004/03/22 09.42
+___    ______ ____    _____ _____  ____ __ ______    ______ _________
0                                  52638    6998.
                                   52639    6999.          Wait for enough free frames if not available (and wait mode)
                                   52640    7000.
 005FCA 5870 C048            00000 52641    7001.              L     RPCB,@FRAPCBC
 005FCE                            52642    7002.     FRAMWAIT LOOP  BEGIN
 USING  ASBPCB,R7                  52649  1 7003.                WITH  (ASBPCB,RPCB)
 005FCE 5840 C050            00008 52662  1 7004.                L     RJ,@FRANUM
 005FD2 5B40 606C            0006C 52663  1 7005.                S     RJ,PAGFCNT
 005FD6 5B40 6098            00098 52664  1 7006.                S     RJ,PAGFRC
 005FDA 47D0 A17A            06118 52665  1 7007.                IF    NPOS,EXIT               Enough free frames already
                                   52679  1 7008.
                                   52680  1 7009.            Figure how many more frames we should try for
                                   52681  1 7010.
 005FDE 5B40 6088            00088 52682  1 7011.                S     RJ,PAGFLS               Subtract logically swapped
 005FE2 47D0 A12C            060CA 52683  1 7012.                IF    POS,BEGIN               Try for more frames (# in RJ)
                                   52694  2 7013.
                                   52695  2 7014.              See if we can get more frames for paging
                                   52696  2 7015.
 005FE6 5850 60CC            000CC 52697  2 7016.                  L     RK,PAGMAXFR             More frames to fix ?
 005FEA 5B50 6050            00050 52698  2 7017.                  S     RK,PAGFIXCNT            |
 005FEE 47D0 A12C            060CA 52699  2 7018.                  IF    NPOS,EXIT               | no, exit
 005FF2 5950 605C            0005C 52713  2 7019.                  CEIL  RK,PAGUFCNT             Number available to fix
 005FF6 47D0 A060            05FFE 52717  2          +
 005FFA 5850 605C            0005C 52718  2          +
 005FFE 1954/47D0 A068       06006 52719  2 7020.                  IF    (RK,GT,RJ),'LR RK,RJ'   |
 006004 1854                       52735  2          +
 006006 1255/47D0 A12C       060CA 52740  2 7021.                  IF    (RK,NPOS),EXIT          | none, exit
                                   52757  2 7022.
                                   52758  2 7023.              Take frames from unfixed list
                                   52759  2 7024.
 00600C 41E0 6054/1B00       00054 52760  2 7025.                  LREM  PAGUFHD,,(RK),LAST=(RJ),WR=RS
 006012 58F0 E008/1215       00008 52796  3          +
 006018 47D0 A0A2/1BF1       06040 52808  3          +
 00601E 4740 A0A2            06040 52824  3          +
 006022 50F0 E008            00008 52830  3          +
 006026 58F0 E000/180F       00000 52837  3          +
 00602C 58F0 F000            00000 52845  3          +
 006030 4610 A08E            0602C 52851  3          +
 006034 5840 F004            00004 52858  3          +
 006038 50E0 F004            00004 52859  3          +
 00603C 50F0 E000            00000 52860  2          +
 006040 1880                       52865  2 7026.                  LR    RM,RVR                  Save first frame
 006042                            52866  2 7027.                  LKREL PAGFRAL
 006042 D203 D048 603C 00000 0003C 52875  2          +
 006048 58F0 6030/0DEF       00030 52881  2          +
                                   52883  2 7028.
                                   52884  2 7029.
                                   52885  2 7030.       If we must long term fix frames, we might have to wait.  First
                                   52886  2 7031.       free the lock so other frame management can go on.
                                   52887  2 7032.
                                          2
000604E 1828                       52888  2 7033.                  LR    RA,RM                   First frame
 006050 1815                       52889  2 7034.                  LR    RS,RK                   Count of frames
1PAGESERV (PAGE00) (09:42) (22MAR04) Allocate a page frame                                                                  Page  297
0Current Usings:  (PAGCB,R6) (ASBPCB,R7) (FRAMEGET,R10) (@FRAMGET-72,R12) (@LOCKS-72,R13)
0Loc    Object Code    Addr1 Addr2  Stmt Lv Lineno    Source Statement           (Hibal 5, Asmedit 3.3)  HLASM R4.0  2004/03/22 09.42
+___    ______ ____    _____ _____  ____ __ ______    ______ _________
0006052                            52890  2 7035.                  LOOP  BEGIN                   Fix frames
 USING  PFTE,R2                    52896  3 7036.                    WITH  (PFTE,RA)
 006052 1832                       52909  3 7037.                   $LA    RB,PFTE                 Frame addr
 006054 5F30 6044            00044 52916  3 7038.                    SL    RB,PAGPFTO              |
 006058 8930 0007            00007 52917  3 7039.                    SLL   RB,L'PAGPAGM-PFTLOG     |
 00605C 83300005                   52918  3 7040.                    SYSCTL (RB),TYPE=PAGE         | and fix it
 006060 9680 201F      0001F       52921  3 7041.                    SET   PFTPAGING               We can page on this one
 006064 5820 2000            00000 52927  3 7042.                    L     RA,PFTFP                next frame
 006068 4610 A0B4            06052 52928  2 7043.                  UNTIL (BCT,RS),END            OF Fix frames
 DROP   PFTE,R2
                                   52943  2 7044.     *--------------                        UNLOCKED CODE ^
 00606C                            52944  2 7045.                  LKOB  PAGFRAL                 Re-obtain frame lock
 00606C D203 D048 603C 00000 0003C 52953  2          +
 006072 58F0 602C/0DEF       0002C 52959  2          +
                                   52961  2 7046.     *  Add frames to LT fixed free list
 006078 1828                       52962  2 7047.                  LR    RA,RM                   First frame
 00607A 4110 6064/18E5       00064 52963  2 7048.                  LADD  PAGFHEAD,(RA),(RJ),(RK),WR=RS
 006080 5EE0 1008            00008 52990  2          +
 006084 50E0 1008            00008 52991  2          +
 006088 58E0 1004            00004 52998  2          +
 00608C 5040 1004            00004 53003  2          +
 006090 5010 4000            00000 53004  2          +
 006094 50E0 2004            00004 53009  2          +
 006098 5020 E000            00000 53010  2          +
                                   53012  2 7049.
                                   53013  2 7050.              Update counts of available frames
                                   53014  2 7051.
 00609C 5840 6050            00050 53015  2 7052.                  L     RJ,PAGFIXCNT            More fixed frames
 0060A0 1E45                       53016  2 7053.                  ALR   RJ,RK                   |
 0060A2 5040 6050            00050 53017  2 7054.                  ST    RJ,PAGFIXCNT            |
 0060A6 58F0 6060            00060 53018  2 7055.                  L     EPAR,PAGFTCNT           More frames available
 0060AA                            53019  2 7056.                  LOOP  BEGIN                   |
 0060AA 184F                       53025  3 7057.                    LR    RJ,EPAR                 |
 0060AC 1E45                       53026  3 7058.                    ALR   RJ,RK                   |
 0060AE BAF4 6060            00060 53027  3 7059.                    CS    EPAR,RJ,PAGFTCNT        |
 0060B2 4770 A10C            060AA 53028  2 7060.                  UNTIL EQUAL,END               |
 0060B6 58F0 0200            00200 53047  2 7061.                  L     EPAR,MATPTR             |
 USING  MAT,R15                    53048  2 7062.                  WITH  (MAT,EPAR),BEGIN        Update paging function
 0060BA 5E50 F0DC            000DC 53062  3 7063.                    AL    RK,MATPAGFN             |
 0060BE 5050 F0DC            000DC 53063  3 7064.                    ST    RK,MATPAGFN             |
 DROP   MAT,R15                    53064  2 7065.                  END   ,                       OF Update paging function
 0060C2 5940 C050            00008 53072  2 7066.                  IF    (RJ,GE,@FRANUM),EXIT,FRAMWAIT
 0060C6 47A0 A17A            06118 53086  2          +
 0060CA                            53092  1 7067.                END   ,                       OF Try for more frames
                                   53096  1 7068.
 0060CA                            53097  1 7069.                SLKRL PAGFRAL,#FGPSWM         Release frame lock
 0060CA D203 D048 603C 00000 0003C 53107  1          +
 0060D0 58F0 6030/0DEF       00030 53113  1          +
 0060D6 8000 C084      0001C       53115  1          +
1PAGESERV (PAGE00) (09:42) (22MAR04) Allocate a page frame                                                                  Page  298
0Current Usings:  (PAGCB,R6) (ASBPCB,R7) (FRAMEGET,R10) (@FRAMGET-72,R12) (@LOCKS-72,R13)
0Loc    Object Code    Addr1 Addr2  Stmt Lv Lineno    Source Statement           (Hibal 5, Asmedit 3.3)  HLASM R4.0  2004/03/22 09.42
+___    ______ ____    _____ _____  ____ __ ______    ______ _________
0                                  53116  1 7070.
                                   53117  1 7071.            Make note of possible need for more paging room
                                   53118  1 7072.
 0060DA 9640 C060      00018       53119  1 7073.                SET   @FRAROOM
                                   53125  1 7074.
                                   53126  1 7075.            Wait for frames if need be (and we can)
                                   53127  1 7076.
 0060DE 9120 70B6      000B6       53128  1 7077.                IF    ~PCBFSYNC,EXIT,FRAMEGET Don't wait on asynchronous op
 0060E2 47E0 A52E            064CC 53140  1          +
 0060E6                            53146  1 7078.                PMOV  PCBAMT,@FRANUM          Number waiting for
 0060E6 D203 70A4 C050 000A4 00008 53150  1          +
 DROP   @LOCKS-72,R13              53151  1 7079.                PAGWT PAGFWT,,LA:ASBPCB
 USING  @PAGWAIT-72,R13
 0060EC D70B D048 D048 00000 00000 53172  1          +
 0060F2 4100 609C            0009C 53184  1          +
 0060F6 5000 D048            00000 53189  1          +
 0060FA 5070 D050            00008 53200  1          +
 0060FE 58F0 A692/0DEF       06630 53206  1          +
 006104 AC04 C084      0001C       53208  1 7080.                SLKOB PAGFRAL,#FGPSWM
 DROP   @PAGWAIT-72,R13
 USING  @LOCKS-72,R13
 006108 D203 D048 603C 00000 0003C 53229  1          +
 00610E 58F0 602C/0DEF       0002C 53235  1          +
 006114 47F0 A030            05FCE 53237    7081.              END   ,
 DROP   ASBPCB,R7
                                   53247    7082.
                                   53248    7083.          There are enough free frames now, but some may belong to
                                   53249    7084.          a swapped ASB.  If need be, take the frames from these swapped
                                   53250    7085.          ASBs.
                                   53251    7086.
 006118 947F C085      0001D       53252    7087.              CLEAR #FGPTLB
 USING  LHEAD,R1                   53259    7088.              WITH  (LHEAD,RS),BEGIN        LHEAD addr
 00611C 4110 C068            00000 53273  1 7089.                LA    RS,#FGLIST              Init temp frame list
 006120 5010 1000            00000 53274  1 7090.                ST    RS,LHFP                 |
 006124 5010 1004            00004 53275  1 7091.                ST    RS,LHBP                 |
 006128                            53276  1 7092.                CLEAR LHCNT                   |
 006128 D703 1008 1008 00008 00008 53282  1          +
 00612E 4110 C074            0000C 53283  1 7093.                LA    RS,#FGCBS               Init temp CB list
 006132 5010 1000            00000 53284  1 7094.                ST    RS,LHFP                 |
 006136 5010 1004            00004 53285  1 7095.                ST    RS,LHBP                 |
 00613A                            53286  1 7096.                CLEAR LHCNT                   |
 00613A D703 1008 1008 00008 00008 53292  1          +
 DROP   LHEAD,R1                   53293    7097.              END   ,                       OF LHEAD addr
 006140 5820 C050            00008 53301    7098.              L     RA,@FRANUM              Frames needed
 006144 5B20 606C            0006C 53302    7099.              S     RA,PAGFCNT              |
 006148 47D0 A3B8            06356 53303    7100.              IF    POS,BEGIN               Need to reclaim frames
 00614C 5020 C080            00018 53314  1 7101.                ST    RA,#FGNEED              | amt needed
 006150                            53315  1 7102.                LKREL PAGFRAL
 006150 D203 D048 603C 00000 0003C 53324  1          +
 006156 58F0 6030/0DEF       00030 53330  1          +
 00615C                            53332  1 7103.                LKOB  PAGSWAPL
 00615C D203 D048 6040 00000 00040 53341  1          +
 006162 58F0 602C/0DEF       0002C 53347  1          +
 006168                            53349  1 7104.                LOOP  BEGIN                   Get needed frames
1PAGESERV (PAGE00) (09:42) (22MAR04) Allocate a page frame                                                                  Page  299
0Current Usings:  (PAGCB,R6) (FRAMEGET,R10) (@FRAMGET-72,R12) (@LOCKS-72,R13)
0Loc    Object Code    Addr1 Addr2  Stmt Lv Lineno    Source Statement           (Hibal 5, Asmedit 3.3)  HLASM R4.0  2004/03/22 09.42
+___    ______ ____    _____ _____  ____ __ ______    ______ _________
0006168 41E0 608C/1B00       0008C 53355  2 7105.                  LREM  PAGRSCB,WR=RS           Take frames from this ASB
 00616E 58F0 E008            00008 53387  3          +
 006172 4110 0001/1BF1       00001 53395  3          +
 006178 4740 A1F4            06192 53406  3          +
 00617C 50F0 E008            00008 53412  3          +
 006180 58F0 E000/180F       00000 53419  3          +
 006186 58F0 F000            00000 53421  3          +
 00618A 50E0 F004            00004 53422  3          +
 00618E 50F0 E000            00000 53423  2          +
 006192 1250/4780 A2EA       06288 53428  2 7106.                  IF    ('LTR RK,RVR',ZERO),EXIT
 USING  PGDSWAP,R5                 53444  2 7107.                  WITH  (PGDSWAP,RK),BEGIN      PGDSWAP addr
 AUSING (#SWPDO,PGDSWP)            53458  3 7108.                    WITH  (#SWPDO,PGDSWP)
 AUSING (PSCPFX,PGDSWPFX)          53465  3 7109.                    WITH  (PSCPFX,PGDSWPFX)
 006198 9108 5028      00028       53472  3 7110.                    IF    PGDSFSGT,BEGIN          This swap block has seg tbl
 00619C 47E0 A22A            061C8 53482  3          +
 0061A0 9680 C085      0001D       53487  4 7111.                      SET   #FGPTLB                 Purge TLB (stealing seg tbl)
 0061A4 4110 C074            0000C 53493  4 7112.                      LADD  #FGCBS,LA:PGDSWAP,WR=RS
 0061A8 41E0 0001            00001 53524  4          +
 0061AC 5EE0 1008            00008 53525  4          +
 0061B0 50E0 1008            00008 53526  4          +
 0061B4 58E0 1004            00004 53533  4          +
 0061B8 5050 1004            00004 53539  4          +
 0061BC 5010 5000            00000 53540  4          +
 0061C0 50E0 5004            00004 53546  4          +
 0061C4 5050 E000            00000 53547  4          +
 0061C8                            53549  3 7113.                    END   ,                       OF This swap block has seg tbl
 0061C8 5870 5014            00014 53553  3 7114.                    L     RPCB,PSCASB
 0061CC 5870 7020            00020 53554  3 7115.                    WITH  (ASB,RPCB),'L RPCB,ASBPAGB'
 USING  ASB,R7
 DROP   ASB,R7
 USING  ASBPCB,R7                  53578  3 7116.                    WITH  (ASBPCB,RPCB)
 0061D0 94BF 5028      00028       53591  3 7117.                    CLEAR PGDSFFALLO              Frames not allocated
 0061D4 9610 5028      00028       53598  3 7118.                    SET   PGDSFDAT                DAT needs updating
 0061D8 58B0 5024/1B00       00024 53604  3 7119.                    LREMALL PGDSWFRA,LAST=(RN),COUNT=(BRR),WR=RS
 0061DE 12BB/4780 A25E       061FC 53633  3          +
 0061E4 5000 5024            00024 53639  4          +
 0061E8 5800 501C            0001C 53647  4          +
 0061EC 5890 5020            00020 53655  4          +
 0061F0 4110 501C            0001C 53665  4          +
 0061F4 5010 1000            00000 53666  4          +
 0061F8 5010 1004            00004 53667  3          +
 0061FC 1280/4770 A294       06232 53672  3 7120.                    IF    ('LTR RM,RVR',ZERO),'ABORT FRAMSTEAL'
 006202 AC04 021B      0021B       53698  4          +
 USING  PZERO,R0
 006206 9680 021A      0021A       53704  4          +
 00620A 50F0 021C            0021C 53705  4          +
 00620E 58F0 0210            00210 53706  4          +
 006212 89F0 0010            00010 53707  4          +
 006216 88F0 0010            00010 53708  4          +
 00621A 41F0 F000            00000 53709  4          +
 00621E AEFF 0006            00006 53710  4          +
 006222 C6D9C1D4E2E3C5C1           53711  3          +
 DROP   PZERO,R0
 006232 4110 C068/18EB       00000 53724  3 7121.                    LADD  #FGLIST,(RM),(RN),(BRR),WR=RS    add to free frames
1PAGESERV (PAGE00) (09:42) (22MAR04) Allocate a page frame                                                                  Page  300
0Current Usings:  (PGDSWAP,R5) (PAGCB,R6) (ASBPCB,R7) (FRAMEGET,R10) (@FRAMGET-72,R12) (@LOCKS-72,R13)
0Loc    Object Code    Addr1 Addr2  Stmt Lv Lineno    Source Statement           (Hibal 5, Asmedit 3.3)  HLASM R4.0  2004/03/22 09.42
+___    ______ ____    _____ _____  ____ __ ______    ______ _________
0006238 5EE0 1008            00008 53751  3          +
 00623C 50E0 1008            00008 53752  3          +
 006240 58E0 1004            00004 53759  3          +
 006244 5090 1004            00004 53764  3          +
 006248 5010 9000            00000 53765  3          +
 00624C 50E0 8004            00004 53770  3          +
 006250 5080 E000            00000 53771  3          +
                                   53773  3 7122.
                                   53774  3 7123.                We have taken the frames from this swap control block
                                   53775  3 7124.
 006254 5830 6098            00098 53776  3 7125.                    L     RB,PAGFRC               Fewer unreclaimed frames
 006258 1F3B                       53777  3 7126.                    SLR   RB,BRR                  |
 00625A 5030 6098            00098 53778  3 7127.                    ST    RB,PAGFRC               |
 00625E 4840 706A            0006A 53779  3 7128.                    LH    RJ,PCBSWFS              More frames stolen
 006262 1E4B                       53780  3 7129.                    ALR   RJ,BRR                  |
 006264 4040 706A            0006A 53781  3 7130.                    STH   RJ,PCBSWFS              |
 006268 5840 C080            00018 53782  3 7131.                    L     RJ,#FGNEED              Update needed frames
 00626C 1F4B                       53783  3 7132.                    SLR   RJ,BRR                  |
 00626E 5040 C080            00018 53784  3 7133.                    ST    RJ,#FGNEED              |
 006272 9108 7023      00023       53785  3 7134.                    IF    PCBFNOTE,BEGIN          This AS already notified
 006276 47E0 A2E4            06282 53795  3          +
 00627A 5EB0 60A8            000A8 53800  4 7135.                      AL    BRR,PAGFWSI
 00627E 50B0 60A8            000A8 53801  4 7136.                      ST    BRR,PAGFWSI
 006282                            53802  3 7137.                    END   ,                       OF This AS already notified
 DROP   ASBPCB,R7                  53806  2 7138.                  END   ,                       OF PGDSWAP addr
 DROP   PGDSWAP,R5
 006282 1244/4720 A1CA       06168 53819  1 7139.                UNTIL (RJ,NPOS),END           OF Get needed frames
 006288                            53841  1 7140.                LKREL PAGSWAPL
 006288 D203 D048 6040 00000 00040 53850  1          +
 00628E 58F0 6030/0DEF       00030 53856  1          +
                                   53858  1 7141.
                                   53859  1 7142.            If we stole segment frames, we must invalidate their global
                                   53860  1 7143.            virtual addresses
                                   53861  1 7144.
 006294 5850 C07C/1255       00014 53862  1 7145.                IF    ('LT RK,#FGCCNT',NZ),BEGIN       Invalidate seg tbls
 00629A 4780 A3AC            0634A 53873  1          +
 00629E 5880 6018            00018 53878  2 7146.                  L     RM,PAGCASB
 0062A2 5880 8020            00020 53879  2 7147.                  WITH  (ASB,RM),'L RM,ASBPAGB'
 USING  ASB,R8
 DROP   ASB,R8
 USING  GBL.ASBPCB,R8              53903  2 7148.                  WITH  (ASBPCB,RM),LABEL=GBL
 0062A6                            53911  2 7149.                  LKOB  GBL.PCBLOCK
 0062A6 D203 D048 8018 00000 00018 53920  2          +
 0062AC 58F0 602C/0DEF       0002C 53926  2          +
 0062B2                            53928  2 7150.                  LOOP  BEGIN                   Loop through CBs
 0062B2 41E0 C074/1B00       0000C 53934  3 7151.                    LREM  #FGCBS,,WR=RS
 0062B8 58F0 E008            00008 53966  4          +
 0062BC 4110 0001/1BF1       00001 53974  4          +
 0062C2 4740 A33E            062DC 53985  4          +
 0062C6 50F0 E008            00008 53991  4          +
 0062CA 58F0 E000/180F       00000 53998  4          +
 0062D0 58F0 F000            00000 54000  4          +
 0062D4 50E0 F004            00004 54001  4          +
 0062D8 50F0 E000            00000 54002  3          +
1PAGESERV (PAGE00) (09:42) (22MAR04) Allocate a page frame                                                                  Page  301
0Current Usings:  (PAGCB,R6) (GBL.ASBPCB,R8) (FRAMEGET,R10) (@FRAMGET-72,R12) (@LOCKS-72,R13)
0Loc    Object Code    Addr1 Addr2  Stmt Lv Lineno    Source Statement           (Hibal 5, Asmedit 3.3)  HLASM R4.0  2004/03/22 09.42
+___    ______ ____    _____ _____  ____ __ ______    ______ _________
00062DC 1290                       54007  3 7152.                    LTR   RN,RVR
 0062DE 4780 A3A0            0633E 54008  3 7153.                    IF    ZERO,EXIT               No more control blocksf
 USING  PGDSWAP,R9                 54022  3 7154.                    WITH  (PGDSWAP,RN)
 AUSING (PSCPFX,PGDSWPFX)          54035  3 7155.                    WITH  (PSCPFX,PGDSWPFX)
 0062E2 5870 9014            00014 54042  3 7156.                    L     RPCB,PSCASB
 0062E6 5870 7020            00020 54043  3 7157.                    WITH  (ASB,RPCB),'L RPCB,ASBPAGB'
 USING  ASB,R7
 DROP   ASB,R7
 USING  ASBPCB,R7                  54067  3 7158.                    WITH  (ASBPCB,RPCB)
 0062EA 5820 701C            0001C 54080  3 7159.                    L     RA,PCBPSTO              Addr of local seg table
 0062EE 4810 60BC            000BC 54081  3 7160.                    LH    RS,PAGSEGP              | num of pages for seg table
 0062F2                            54082  3 7161.                    LOOP  BEGIN                   Do invalidations
 0062F2 1842                       54088  4 7162.                      LR    RJ,RA                   Invalidate addr
 0062F4 8840 0014            00014 54089  4 7163.                      SRL   RJ,L'PAGSGNM            |
 0062F8 8940 0002            00002 54090  4 7164.                      SLL   RJ,SGTLOG               |
 0062FC 5E40 801C            0001C 54091  4 7165.                      AL    RJ,GBL.PCBPSTO          |
 USING  SGTE,R4                    54092  4 7166.                      WITH  (SGTE,RJ),BEGIN         |
 006300 5840 4000            00000 54106  5 7167.                        L     RJ,SGTAD                |
 DROP   SGTE,R4                    54107  4 7168.                      END   ,                       | OF SGTE addr
 006304 B221 0042                  54115  4 7169.                      IPTE  RJ,RA                   |
                                   54116  4 7170.
                                   54117  4 7171.                  Set addresses of SEG/shadow SEG as undefined
                                   54118  4 7172.
 006308 8840 0006            00006 54119  4 7173.                      SRL   RJ,L'SGTADMSK           Even PT align
 00630C 8940 0006            00006 54120  4 7174.                      SLL   RJ,L'SGTADMSK           |
 006310 1802                       54121  4 7175.                      LR    RVR,RA                  Get page table offset
 006312 5400 A696            06634 54122  4 7176.                      N     RVR,=A(PAGPGNM)         |
 006316 8800 000A            0000A 54123  4 7177.                      SRL   RVR,L'PAGPGNM-PGTLOG    |
 00631A 1E40                       54124  4 7178.                      ALR   RJ,RVR                  |
 DROP   @LOCKS-72,R13              54125  4 7179.                      RTOV  (RJ)                    | virtual address of PT entry
 USING  @PAGRV-72,R13
 00631C D707 D048 D048 00000 00000 54147  4          +
 006322 5040 D048            00000 54157  4          +
 006326 58F0 A69A/0DEF       06638 54163  4          +
 00632C 1840                       54165  4 7180.                      LR    RJ,RVR                  | |
 USING  PGTE,R4                    54166  4 7181.                      WITH  (PGTE,RJ),BEGIN         PGTE addr
 00632E 947F 4003      00003       54180  5 7182.                        CLEAR PGTFDEF                 UNDEFINED
 DROP   PGTE,R4                    54187  4 7183.                      END   ,                       OF PGTE addr
                                   54195  4 7184.
 006332 4A20 A6A2            06640 54196  4 7185.                      AH    RA,=Y(PAGPAGEL)         Next page VA of seg table
 006336 4610 A354            062F2 54197  3 7186.                    UNTIL (BCT,RS),END            | do all seg table pages
 00633A 47F0 A314            062B2 54207  2 7187.                  END   ,                       OF Loop through CBs
 DROP   ASBPCB,R7
 DROP   PGDSWAP,R9
 DROP   @PAGRV-72,R13              54222  2 7188.                  LKREL GBL.PCBLOCK
 USING  @LOCKS-72,R13
 00633E D203 D048 8018 00000 00018 54241  2          +
 006344 58F0 6030/0DEF       00030 54247  2          +
 DROP   GBL.ASBPCB,R8              54249  1 7189.                END   ,                       OF Invalidate seg tbls
1PAGESERV (PAGE00) (09:42) (22MAR04) Allocate a page frame                                                                  Page  302
0Current Usings:  (PAGCB,R6) (FRAMEGET,R10) (@FRAMGET-72,R12) (@LOCKS-72,R13)
0Loc    Object Code    Addr1 Addr2  Stmt Lv Lineno    Source Statement           (Hibal 5, Asmedit 3.3)  HLASM R4.0  2004/03/22 09.42
+___    ______ ____    _____ _____  ____ __ ______    ______ _________
000634A                            54262  1 7191.                LKOB  PAGFRAL
 00634A D203 D048 603C 00000 0003C 54271  1          +
 006350 58F0 602C/0DEF       0002C 54277  1          +
 006356                            54279    7192.              END   ,                       OF Need to reclaim frames
                                   54283    7193.
                                   54284    7194.          We stole a segment table and page tables, so we need to purge
                                   54285    7195.          the TLB before we can safely use them
                                   54286    7196.
 006356 9180 C085      0001D       54287    7197.              IF    #FGPTLB,BEGIN
 00635A 47E0 A3C6            06364 54297             +
 00635E 58F0 A69E/0DEF       0663C 54302  1 7198.                VCALL DISPPTLB
 006364                            54306    7199.              END   ,
1PAGESERV (PAGE00) (09:42) (22MAR04) Allocate a page frame                                                                  Page  303
0Current Usings:  (PAGCB,R6) (FRAMEGET,R10) (@FRAMGET-72,R12) (@LOCKS-72,R13)
0Loc    Object Code    Addr1 Addr2  Stmt Lv Lineno    Source Statement           (Hibal 5, Asmedit 3.3)  HLASM R4.0  2004/03/22 09.42
+___    ______ ____    _____ _____  ____ __ ______    ______ _________
0                                  54311    7201.
                                   54312    7202.          Put stolen frames on available list
                                   54313    7203.
 006364 5840 C070/1B00       00008 54314    7204.              LREMALL #FGLIST,LAST=(RB),COUNT=(RJ),WR=RS
 00636A 1244/4780 A3EA       06388 54343             +
 006370 5000 C070            00008 54349  1          +
 006374 5800 C068            00000 54357  1          +
 006378 5830 C06C            00004 54365  1          +
 00637C 4110 C068            00000 54375  1          +
 006380 5010 1000            00000 54376  1          +
 006384 5010 1004            00004 54377             +
 006388 1220/4780 A412       063B0 54382    7205.              IF    ('LTR RA,RVR',NZ),BEGIN
 00638E 4110 6064/18E4       00064 54395  1 7206.                LADD  PAGFHEAD,(RA),(RB),(RJ),WR=RS
 006394 5EE0 1008            00008 54422  1          +
 006398 50E0 1008            00008 54423  1          +
 00639C 58E0 1004            00004 54430  1          +
 0063A0 5030 1004            00004 54435  1          +
 0063A4 5010 3000            00000 54436  1          +
 0063A8 50E0 2004            00004 54441  1          +
 0063AC 5020 E000            00000 54442  1          +
 0063B0                            54444    7207.              END   ,
                                   54448    7208.
                                   54449    7209.
                                   54450    7210.       Allocate frames
                                   54451    7211.

00063B0 5840 C050            00008 54452    7212.              L     RJ,@FRANUM              Alloc frames
 0063B4 41E0 6064/1B00       00064 54453    7213.              LREM  PAGFHEAD,,LAST=(RB),(RJ),WR=RS
 0063BA 58F0 E008/1214       00008 54489  1          +
 0063C0 47D0 A44A/1BF1       063E8 54501  1          +
 0063C6 4740 A44A            063E8 54517  1          +
 0063CA 50F0 E008            00008 54523  1          +
 0063CE 58F0 E000/180F       00000 54530  1          +
 0063D4 58F0 F000            00000 54538  1          +
 0063D8 4610 A436            063D4 54544  1          +
 0063DC 5830 F004            00004 54551  1          +
 0063E0 50E0 F004            00004 54552  1          +
 0063E4 50F0 E000            00000 54553             +
 0063E8 1220/4780 A030       05FCE 54558    7214.              IF    ('LTR RA,RVR',ZERO),FRAMWAIT
                                   54574    7215.
                                   54575    7216.          Update frame counts
                                   54576    7217.
 0063EE 5810 6060            00060 54577    7218.              L     RS,PAGFTCNT             Update total count
 0063F2                            54578    7219.              LOOP  BEGIN                   |
 0063F2 18F1                       54584  1 7220.                LR    EPAR,RS                 |
 0063F4 1FF4                       54585  1 7221.                SLR   EPAR,RJ                 |
 0063F6 BA1F 6060            00060 54586  1 7222.                CS    RS,EPAR,PAGFTCNT        |
 0063FA 4770 A454            063F2 54587    7223.              UNTIL EQUAL,END               |
 0063FE 58F0 0200            00200 54606    7224.              L     EPAR,MATPTR             Update paging function
 USING  MAT,R15                    54607    7225.              WITH  (MAT,EPAR),BEGIN        |
 006402 5810 F0DC            000DC 54621  1 7226.                L     RS,MATPAGFN             |
 006406 1F14                       54622  1 7227.                SLR   RS,RJ                   |
 006408 5010 F0DC            000DC 54623  1 7228.                ST    RS,MATPAGFN             |
1PAGESERV (PAGE00) (09:42) (22MAR04) Allocate a page frame                                                                  Page  304
0Current Usings:  (PAGCB,R6) (FRAMEGET,R10) (@FRAMGET-72,R12) (@LOCKS-72,R13)
0Loc    Object Code    Addr1 Addr2  Stmt Lv Lineno    Source Statement           (Hibal 5, Asmedit 3.3)  HLASM R4.0  2004/03/22 09.42
+___    ______ ____    _____ _____  ____ __ ______    ______ _________
0DROP   MAT,R15                    54624    7229.              END   ,                       OF Update paging function
                                   54632    7230.
 00640C                            54633    7231.              SLKRL PAGFRAL,#FGPSWM         Release frame lock
 00640C D203 D048 603C 00000 0003C 54643             +
 006412 58F0 6030/0DEF       00030 54649             +
 006418 8000 C084      0001C       54651             +
                                   54652    7232.
                                   54653    7233.          Make note of possible need for more paging room
                                   54654    7234.
 00641C 9640 C060      00018       54655    7235.              SET   @FRAROOM
                                   54661    7236.
 006420 5870 C04C            00004 54662    7237.              L     RPCB,@FRAPCB            PCB that owns frames
 USING  ASBPCB,R7                  54663    7238.              WITH  (ASBPCB,RPCB),BEGIN     Add to this PCB
 006424 5850 C054            0000C 54677  1 7239.                L     RK,@FRALIST             Address of list to add to
 006428 18E4/5EE0 5008       00008 54678  1 7240.                LADD  (RK),(RA),(RB),(RJ),WR=RS
 00642E 50E0 5008            00008 54701  1          +
 006432 58E0 5004            00004 54708  1          +
 006436 5030 5004            00004 54713  1          +
 00643A 5050 3000            00000 54714  1          +
 00643E 50E0 2004            00004 54719  1          +
 006442 5020 E000            00000 54720  1          +
 006446 1B57                       54722  1 7241.                SR    RK,RPCB                 | offset of PCB lists
 006448 5020 C05C            00014 54723  1 7242.                ST    RA,@FRA1ST              |
 00644C 1812                       54724  1 7243.                LR    RS,RA                   |
 00644E                            54725  1 7244.                LOOP  BEGIN                   Set fix counts to 1 on alloc
 USING  PFTE,R1                    54731  2 7245.                  WITH  (PFTE,RS),BEGIN         | PFTE addr
 00644E 9180 101F      0001F       54745  3 7246.                    IF    ~PFTPAGING,BEGIN        Should be LT fixed
 006452 4710 A4E8            06486 54755  3          +
 006456 AC04 021B      0021B       54760  4 7247.                      ABORT PAGNOTPAGING            |
 USING  PZERO,R0
 00645A 9680 021A      0021A       54778  4          +
 00645E 50F0 021C            0021C 54779  4          +
 006462 58F0 0210            00210 54780  4          +
 006466 89F0 0010            00010 54781  4          +
 00646A 88F0 0010            00010 54782  4          +
 00646E 41F0 F000            00000 54783  4          +
 006472 AEFF 0006            00006 54784  4          +
 006476 D7C1C7D5D6E3D7C1           54785  4          +
 DROP   PZERO,R0
 006486                            54794  3 7248.                    END   ,                       OF Should be LT fixed
 006486 D716 1008 1008 00008 00008 54798  3 7249.                    XC    PFTVA(PFTFLG2-PFTVA),PFTVA
 00648C D203 100C 700C 0000C 0000C 54799  3 7250.                    MVC   PFTASB,PCBASB           | owning PCB
 006492 4250 101C            0001C 54800  3 7251.                    STC   RK,PFTQ                 | queue it's on
 006496 D201 1016 A6A4 00016 06642 54801  3 7252.                    MVC   PFTHIST,=AL2(PAGHINIT)  | set history
 00649C 9501 C058      00010       54802  3 7253.                    IF    @FRAFIX,'MVC PFTFIX,=Y(1)'
 0064A0 4770 A50C            064AA 54812  3          +
 0064A4 D201 1018 A6A6 00018 06644 54818  3          +
 0064AA 9502 C058      00010       54823  3 7254.                    IF    @FRAFPT,'SET PFTFPGT'
 0064AE 4770 A518            064B6 54833  3          +
 0064B2 9680 101D      0001D       54844  3          +
 0064B6 5810 1000            00000 54849  3 7255.                    L     RS,PFTFP                | next frame
 DROP   PFTE,R1                    54850  2 7256.                  END   ,                       | OF PFTE addr
 0064BA 4640 A4B0            0644E 54858  1 7257.                UNTIL (BCT,RJ),END            OF Set fix cnts to 1 on alloc
 DROP   ASBPCB,R7                  54868    7258.              END   ,                       OF Add to this PCB
1PAGESERV (PAGE00) (09:42) (22MAR04) Allocate a page frame                                                                  Page  305
0Current Usings:  (PAGCB,R6) (FRAMEGET,R10) (@FRAMGET-72,R12) (@LOCKS-72,R13)
0Loc    Object Code    Addr1 Addr2  Stmt Lv Lineno    Source Statement           (Hibal 5, Asmedit 3.3)  HLASM R4.0  2004/03/22 09.42
+___    ______ ____    _____ _____  ____ __ ______    ______ _________
00064BE 1802                       54876    7259.              LR    RVR,RA                  Return real addr of frame
 0064C0 5F00 6044            00044 54877    7260.              SL    RVR,PAGPFTO             |
 0064C4 8900 0007            00007 54878    7261.              SLL   RVR,L'PAGPAGM-PFTLOG    |
 0064C8 9680 C060      00018       54879    7262.              SET   @FRAOK                  Allocation OK
 0064CC 981F C008            00008 54885    7263.              PEND  ,
 DROP   PAGCB,R6
 DROP   @FRAMGET-72,R12
 DROP   FRAMEGET,R10
 0064D0 9680 C000/0B0E 00000       54905             +
 DROP   @LOCKS-72,R13
1PAGESERV (PAGE00) (09:42) (22MAR04) Release a page frame                                                                   Page  306
0Loc    Object Code    Addr1 Addr2  Stmt Lv Lineno    Source Statement           (Hibal 5, Asmedit 3.3)  HLASM R4.0  2004/03/22 09.42
+___    ______ ____    _____ _____  ____ __ ______    ______ _________
0                                  54915    7265.
                                   54916    7266.
                                   54917    7267.       Release a page frame
                                   54918    7268.
                                   54919    7269.        Input - @FRAMREL
                                   54920    7270.
                                   54921    7271.       Output - NONE
                                   54922    7272.                  PCBs waiting for frames (if any) are awakened if this
                                   54923    7273.                release will satisfy their request.
                                   54924    7274.
                                   54925    7275.

00064D6                            54926    7276.     FRAMEREL PROC  @FRAMREL                Release a page frame
 0064D6 C6D9C1D4C5D9C5D3           54933             +
 0064DE 0008/0000                  54934             +
 0064E2 900F D004/18AF       00004 54936             +
 USING  FRAMEREL,R10
 0064E8 50D0 C000/18CD       00000 54951             +
 0064EE 9680 C000      00000       54953             +
 USING  @FRAMREL-72,R12
 0064F2 41D0 C050            00050 54967             +
 0064F6 5860 0200            00200 54968    7277.              PAGAD RPAG
 USING  PZERO,R0
 DROP   PZERO,R0
 USING  MAT,R6
 0064FA 5860 600C            0000C 55002             +
 DROP   MAT,R6
 USING  PAGCB,R6
 0064FE 5830 C04C            00004 55024    7278.              L     RB,@FRARFRA             1st frame to be released
 USING  PFTE,R3                    55025    7279.              WITH  (PFTE,RB)
 006502 5870 300C            0000C 55038    7280.              L     RPCB,PFTASB             Get PCB that owns frame(s)
 006506 5870 7020            00020 55039    7281.              WITH  (ASB,RPCB),'L RPCB,ASBPAGB'
 USING  ASB,R7
 DROP   ASB,R7
 USING  ASBPCB,R7                  55063    7282.              WITH  (ASBPCB,RPCB)
                                   55076    7283.
                                   55077    7284.          Take from the proper frame list.  A frame is either a normal
                                   55078    7285.          unfixed frame, or a page table frame, or a fixed frame.
                                   55079    7286.
 00650A 1F22/4320 301C       0001C 55080    7287.              LC    RA,PFTQ                 Which queue
 006510 4122 7000            00000 55087    7288.              LA    RA,ASBPCB(RA)
 USING  LHEAD,R2                   55088    7289.              WITH  (LHEAD,RA),BEGIN        Remove frame from list
                                   55102  1 7290.
 006514 1B00/58F0 2008       00008 55103  1 7291.                LREM  LHEAD,LA:PFTE,WR=RS
 00651A 4110 0001/1BF1       00001 55141  2          +
 006520 4740 A05A            0653C 55152  2          +
 006524 50F0 2008/18F3       00008 55158  2          +
 00652A 180F/58E0 F004       00004 55165  2          +
 006530 58F0 F000            00000 55173  2          +
 006534 50E0 F004            00004 55174  2          +
 006538 50F0 E000            00000 55175  1          +
 DROP   LHEAD,R2                   55180    7292.              END   ,                       OF Remove frame from list
1PAGESERV (PAGE00) (09:42) (22MAR04) Release a page frame                                                                   Page  307
0Current Usings:  (PFTE,R3) (PAGCB,R6) (ASBPCB,R7) (FRAMEREL,R10) (@FRAMREL-72,R12)
0Loc    Object Code    Addr1 Addr2  Stmt Lv Lineno    Source Statement           (Hibal 5, Asmedit 3.3)  HLASM R4.0  2004/03/22 09.42
+___    ______ ____    _____ _____  ____ __ ______    ______ _________
0                                  55188    7293.
                                   55189    7294.          Add to free frames
                                   55190    7295.
 USING  @LOCKS-72,R13              55191    7296.              LKOB  PAGFRAL
 00653C D203 D048 603C 00000 0003C 55207             +
 006542 58F0 602C/0DEF       0002C 55213             +
 006548                            55215    7297.              CLEAR PFTASB                  Clear ownership of frame
 006548 D703 300C 300C 0000C 0000C 55221             +
 00654E 9180 301F      0001F       55222    7298.              IF    PFTPAGING,BEGIN         We can page on this one
 006552 47E0 A0DC            065BE 55232             +
 006556 4110 6064            00064 55237  1 7299.                LADD  PAGFHEAD,LA:PFTE,WR=RS
 00655A 41E0 0001            00001 55268  1          +
 00655E 5EE0 1008            00008 55269  1          +
 006562 50E0 1008            00008 55270  1          +
 006566 58E0 1004            00004 55277  1          +
 00656A 5030 1004            00004 55283  1          +
 00656E 5010 3000            00000 55284  1          +
 006572 50E0 3004            00004 55290  1          +
 006576 5030 E000            00000 55291  1          +
 00657A 58F0 6060            00060 55293  1 7300.                L     EPAR,PAGFTCNT           One more available
 00657E                            55294  1 7301.                LOOP  BEGIN                   |
 00657E 4150 0001            00001 55300  2 7302.                  LA    RK,1                    |
 006582 1E5F                       55301  2 7303.                  ALR   RK,EPAR                 |
 006584 BAF5 6060            00060 55302  2 7304.                  CS    EPAR,RK,PAGFTCNT        |
 006588 4770 A09C            0657E 55303  1 7305.                UNTIL EQUAL,END               |
 00658C 58F0 0200            00200 55322  1 7306.                L     EPAR,MATPTR
 USING  MAT,R15                    55323  1 7307.                WITH  (MAT,EPAR),BEGIN        Update paging function
 006590 4100 0001            00001 55337  2 7308.                  LA    RVR,1                   |
 006594 5E00 F0DC            000DC 55338  2 7309.                  AL    RVR,MATPAGFN            |
 006598 5000 F0DC            000DC 55339  2 7310.                  ST    RVR,MATPAGFN            |
 DROP   MAT,R15                    55340  1 7311.                END   ,                       OF Update paging function
                                   55348  1 7312.
 00659C 5810 60A4/1211       000A4 55349  1 7313.                IF    ('LT RS,PAGFWCNT',NZ),BEGIN      Notify any waiting
 0065A2 4780 A0DC            065BE 55360  1          +
 0065A6 58F0 60C0            000C0 55365  2 7314.                  SET   PAGFWFRA,MODE=LOCKED,REF=PAGFWAIT
 0065AA 4110 0080            00080 55372  2          +
 0065AE 8910 0018/180F       00018 55373  2          +
 0065B4 1601/BAF0 60C0       000C0 55375  2          +
 0065BA 4770 A0D0            065B2 55378  2          +
 0065BE                            55379  1 7315.                END   ,                       OF Notify any waiting
 0065BE                            55383    7316.              END   ,                       OF We can page on this one
 0065BE A0E0           065BE 06554 55387    7317.              ELSE  BEGIN                   Put on non LT-fix list
 0065BE 47F0 A104            065E6 55392             +
 0065C2 4110 6054            00054 55398  1 7318.                LADD  PAGUFHD,LA:PFTE,WR=RS
 0065C6 41E0 0001            00001 55429  1          +
 0065CA 5EE0 1008            00008 55430  1          +
 0065CE 50E0 1008            00008 55431  1          +
 0065D2 58E0 1004            00004 55438  1          +
 0065D6 5030 1004            00004 55444  1          +
 0065DA 5010 3000            00000 55445  1          +
 0065DE 50E0 3004            00004 55451  1          +
 0065E2 5030 E000            00000 55452  1          +
 0065E6                            55454    7319.              END   ,                       OF Put on non LT-fix list
 0065E6                            55458    7320.              LKREL PAGFRAL
1PAGESERV (PAGE00) (09:42) (22MAR04) Release a page frame                                                                   Page  308
0Current Usings:  (PFTE,R3) (PAGCB,R6) (ASBPCB,R7) (FRAMEREL,R10) (@FRAMREL-72,R12) (@LOCKS-72,R13)
0Loc    Object Code    Addr1 Addr2  Stmt Lv Lineno    Source Statement           (Hibal 5, Asmedit 3.3)  HLASM R4.0  2004/03/22 09.42
+___    ______ ____    _____ _____  ____ __ ______    ______ _________
00065E6 D203 D048 603C 00000 0003C 55467             +
 0065EC 58F0 6030/0DEF       00030 55473             +
 0065F2 981F C008            00008 55475    7321.              PEND  ,
 DROP   ASBPCB,R7
 DROP   PFTE,R3
 DROP   PAGCB,R6
 DROP   @FRAMREL-72,R12
 DROP   FRAMEREL,R10
 0065F6 9680 C000/0B0E 00000       55505             +
 DROP   @LOCKS-72,R13
 0065FC AC04 021B      0021B       55514    7322.     FRABORT  ABORT PAGFRR                  Page frame release
 USING  PZERO,R0
 006600 9680 021A      0021A       55533             +
 006604 50F0 021C            0021C 55534             +
 006608 58F0 0210            00210 55535             +
 00660C 89F0 0010            00010 55536             +
 006610 88F0 0010            00010 55537             +
 006614 41F0 F000            00000 55538             +
 006618 AEFF 0006            00006 55539             +
 00661C D7C1C7C6D9D94040           55540             +
 DROP   PZERO,R0
1PAGESERV (PAGE00) (09:42) (22MAR04) MP-ORVYL Real Memory / Paging Manager Services                                         Page  309
0Loc    Object Code    Addr1 Addr2  Stmt Lv Lineno    Source Statement           (Hibal 5, Asmedit 3.3)  HLASM R4.0  2004/03/22 09.42
+___    ______ ____    _____ _____  ____ __ ______    ______ _________
0006630                            55550    7324.              LTORG ,
 006630 0000745E                   55552                             =A(PAGWAIT)
 006634 000FF000                   55553                             =A(PAGPGNM)
 006638 0000078C                   55554                             =A(PAGRV)
 00663C 00000000                   55555                             =V(DISPPTLB)
 006640 1000                       55556                             =Y(PAGPAGEL)
 006642 8000                       55557                             =AL2(PAGHINIT)
 006644 0001           06646 0A6E0 55558                             =Y(1)
1PAGESERV (PAGE00) (09:42) (22MAR04) External page allocation                                                               Page  310
0Loc    Object Code    Addr1 Addr2  Stmt Lv Lineno    Source Statement           (Hibal 5, Asmedit 3.3)  HLASM R4.0  2004/03/22 09.42
+___    ______ ____    _____ _____  ____ __ ______    ______ _________
0                                  55563    7326.
                                   55564    7327.
                                   55565    7328.       Allocate an external page
                                   55566    7329.
                                   55567    7330.        Input - @XPGET
                                   55568    7331.                  For asynchronous routines, @XPPCB doesn't need to be
                                   55569    7332.                filled in.
                                   55570    7333.
                                   55571    7334.       Output - IF @XPOK set
                                   55572    7335.                  RVR contains the external page block number
                                   55573    7336.                  @XPGET contains DSID and relative block number
                                   55574    7337.
                                   55575    7338.

0006646                            55577    7340.     XPGET    PROC  @XPGET,#LCLLOCK         Allocate external pages
 006646 E7D7C7C5E3404040           55584             +
 00664E 0018/0008                  55585             +
 006652 900F D004/18AF       00004 55587             +
 USING  XPGET,R10
 006658 50D0 C000/18CD       00000 55602             +
 00665E 9680 C000      00000       55604             +
 USING  @XPGET-72,R12
 AUSING (#LCLLOCK,@XPGET+24)
 006662 41D0 C068            00068 55623             +
 006666 5860 0200            00200 55624    7341.              PAGAD RPAG
 USING  PZERO,R0
 DROP   PZERO,R0
 USING  MAT,R6
 00666A 5860 600C            0000C 55658             +
 DROP   MAT,R6
 USING  PAGCB,R6
 00666E AC04 C060      00000       55680    7342.              SLKOB PAGXPL,#LCLPSWM         Lock on resource
 USING  @LOCKS-72,R13
 006672 D203 D048 61B8 00000 001B8 55698             +
 006678 58F0 602C/0DEF       0002C 55704             +
 00667E 4810 61C0            001C0 55706    7343.     XPGLOOP  LH    RS,PAGXPN               Number of data sets
 006682 5830 61BC            001BC 55707    7344.              L     RB,PAGXPCUR             Data set descriptors
 006686 4120 0001            00001 55708    7345.              LA    RA,1                    Number of frames requested
 00668A                            55709    7346.     XPGSRCH  BEGIN ,                       Look for blocks
 00668A                            55714  1 7347.                LOOP  BEGIN                   Look through necessary DSs
 00668A 1843                       55720  2 7348.                  LR    RJ,RB
 USING  DSDES,R4                   55721  2 7349.                  WITH  (DSDES,RJ)
 00668C                            55734  2 7350.                  IF    (DSAID,NE,=CL4'BMCB'),'ABORT BADBMID'
 00668C D503 AD96 4000 073E8 00000 55745  2          +
 006692 4780 A074            066C6 55746  2          +
 USING  PZERO,R0
 006696 AC04 021B      0021B       55764  3          +
 00669A 9680 021A      0021A       55770  3          +
 00669E 50F0 021C            0021C 55771  3          +
 0066A2 58F0 0210            00210 55772  3          +
 0066A6 89F0 0010            00010 55773  3          +
 0066AA 88F0 0010            00010 55774  3          +
 0066AE 41F0 F000            00000 55775  3          +
 0066B2 AEFF 0006            00006 55776  3          +
 0066B6 C2C1C4C2D4C9C440           55777  2          +
1PAGESERV (PAGE00) (09:42) (22MAR04) External page allocation                                                               Page  311
0Current Usings:  (DSDES,R4) (PAGCB,R6) (XPGET,R10) (@XPGET-72,R12) (@LOCKS-72,R13)
0Loc    Object Code    Addr1 Addr2  Stmt Lv Lineno    Source Statement           (Hibal 5, Asmedit 3.3)  HLASM R4.0  2004/03/22 09.42
+___    ______ ____    _____ _____  ____ __ ______    ______ _________
0DROP   PZERO,R0
 DROP   @LOCKS-72,R13              55790  2 7351.                  PSET  @BMALLOC                Look for external frames
 USING  @BMALLOC-72,R13
 0066C6 D710 D048 D048 00000 00000 55810  2          +
 0066CC 5040 D048            00000 55811  2 7352.                  PMOV  @BMACB,LA:DSDES         | control block
 0066D0 5020 D050            00008 55822  2 7353.                  PMOV  @BMANUM,(RA)            | number of frames desired
 0066D4 41F0 A490/0DEF       06AE2 55832  2 7354.                  LCALL BMALLOC                 |
 0066DA 5830 401C            0001C 55841  2 7355.                  L     RB,DSCHAIN              Next data set...
 0066DE 9180 D058      00010       55842  2 7356.                  IF    @BMAOK,BEGIN            Allocation OK
 0066E2 47E0 A0CA            0671C 55852  2          +
 0066E6 5850 61C4            001C4 55857  3 7357.                    L     RK,PAGXPRCNT            Update total available
 0066EA 1F52                       55858  3 7358.                    SLR   RK,RA                   |
 0066EC 5050 61C4            001C4 55859  3 7359.                    ST    RK,PAGXPRCNT            |
 0066F0 1850                       55860  3 7360.                    LR    RK,RVR                  Get block number
 0066F2 5050 C050            00008 55861  3 7361.                    ST    RK,@XPRBLK              | | relative
 0066F6 5040 C054            0000C 55862  3 7362.                    PMOV  @XPDSDES,LA:DSDES       | Data set descriptor
 0066FA 5E50 4018            00018 55873  3 7363.                    AL    RK,DSOFFSET             | absolute block number
 0066FE 5030 61BC            001BC 55874  3 7364.                    ST    RB,PAGXPCUR             Alloc from next DS next time
 006702 9680 C058      00010       55875  3 7365.                    SET   @XPOK
 DROP   @BMALLOC-72,R13            55881  3 7366.                    SLKRL PAGXPL,#LCLPSWM         Release resource
 USING  @LOCKS-72,R13
 006706 D203 D048 61B8 00000 001B8 55901  3          +
 00670C 58F0 6030/0DEF       00030 55907  3          +
 006712 8000 C060      00000       55909  3          +
 006716 1805                       55910  3 7367.                    LR    RVR,RK                  Return block number
 006718 47F0 A11A            0676C 55911  3 7368.                    EXIT  XPGSRCH
 00671C                            55914  2 7369.                  END   ,                       OF Allocation OK
 00671C 4610 A038            0668A 55918  1 7370.                UNTIL (BCT,RS),END            OF Look through ...
 DROP   DSDES,R4
 006720 5870 C04C            00004 55933  1 7371.                L     RPCB,@XPPCB
 USING  ASBPCB,R7                  55934  1 7372.                WITH  (ASBPCB,RPCB),BEGIN
 006724 1277/4780 A106       06758 55948  2 7373.                  IF    ((RPCB,NZ),AND,PCBFSYNC),BEGIN   Synchronous request
 00672A 9120 70B6      000B6       55970  2          +
 00672E 47E0 A106            06758 55971  2          +
 006732 5020 70A4            000A4 55976  3 7374.                    PMOV  PCBAMT,(RA)             Amount waiting for
 DROP   @LOCKS-72,R13              55986  3 7375.                    PAGWT PAGXPWT,PAGXPL,LA:ASBPCB
 USING  @PAGWAIT-72,R13
 006736 D70B D048 D048 00000 00000 56007  3          +
 00673C 4100 61C8            001C8 56019  3          +
 006740 5000 D048            00000 56024  3          +
 006744 D203 D04C 61B8 00004 001B8 56029  3          +
 00674A 5070 D050            00008 56040  3          +
 00674E 58F0 AD9A/0DEF       073EC 56046  3          +
 006754 47F0 A02C            0667E 56048  3 7376.                    B     XPGLOOP
 006758                            56049  2 7377.                  END   ,                       OF Synchronous request
 006758 A10A           06758 06728 56053  2 7378.                  ELSE  BEGIN                   Async request
 006730 A10A           06732 06758 56058  2          +
 006758 47F0 A11A            0676C 56060  2          +
 DROP   @PAGWAIT-72,R13            56066  3 7379.                    SLKRL PAGXPL,#LCLPSWM
 USING  @LOCKS-72,R13
 00675C D203 D048 61B8 00000 001B8 56086  3          +
 006762 58F0 6030/0DEF       00030 56092  3          +
 006768 8000 C060      00000       56094  3          +
 00676C                            56095  2 7380.                  END   ,                       OF Async request
1PAGESERV (PAGE00) (09:42) (22MAR04) External page allocation                                                               Page  312
0Current Usings:  (PAGCB,R6) (XPGET,R10) (@XPGET-72,R12) (@LOCKS-72,R13)
0Loc    Object Code    Addr1 Addr2  Stmt Lv Lineno    Source Statement           (Hibal 5, Asmedit 3.3)  HLASM R4.0  2004/03/22 09.42
+___    ______ ____    _____ _____  ____ __ ______    ______ _________
0DROP   ASBPCB,R7                  56099  1 7381.                END   ,                       OF PCB addr
 00676C                            56107    7382.              END   ,                       OF Look for blocks
 00676C 981F C008            00008 56111    7383.              PEND  ,
 DROP   PAGCB,R6
 DROP   @XPGET-72,R12
 DROP   XPGET,R10
 006770 9680 C000/0B0E 00000       56131             +
 DROP   @LOCKS-72,R13
1PAGESERV (PAGE00) (09:42) (22MAR04) External swap page allocation                                                          Page  313
0Loc    Object Code    Addr1 Addr2  Stmt Lv Lineno    Source Statement           (Hibal 5, Asmedit 3.3)  HLASM R4.0  2004/03/22 09.42
+___    ______ ____    _____ _____  ____ __ ______    ______ _________
0                                  56141    7385.
                                   56142    7386.
                                   56143    7387.       Allocate an external swap set
                                   56144    7388.
                                   56145    7389.        Input - @XPGET
                                   56146    7390.
                                   56147    7391.       Output - If @XPOK
                                   56148    7392.                  RVR contains the external page block number
                                   56149    7393.                     relative to the start of the dataset
                                   56150    7394.                  @XPGET contains DSID and relative block number
                                   56151    7395.                Else
                                   56152    7396.                  Couldn't allocate the external pages
                                   56153    7397.
                                   56154    7398.

0006776                            56156    7400.     SWPGET   PROC  @XPGET,#LCLLOCK         Allocate external swap pages
 006776 E2E6D7C7C5E34040           56163             +
 00677E 0018/0008                  56164             +
 006782 900F D004/18AF       00004 56166             +
 USING  SWPGET,R10
 006788 50D0 C000/18CD       00000 56181             +
 00678E 9680 C000      00000       56183             +
 USING  @XPGET-72,R12
 AUSING (#LCLLOCK,@XPGET+24)
 006792 41D0 C068            00068 56202             +
 006796 5860 0200            00200 56203    7401.              PAGAD RPAG
 USING  PZERO,R0
 DROP   PZERO,R0
 USING  MAT,R6
 00679A 5860 600C            0000C 56237             +
 DROP   MAT,R6
 USING  PAGCB,R6
 00679E AC04 C060      00000       56259    7402.              SLKOB PAGXSL,#LCLPSWM         Lock on resource
 USING  @LOCKS-72,R13
 0067A2 D203 D048 61D8 00000 001D8 56277             +
 0067A8 58F0 602C/0DEF       0002C 56283             +
 0067AE 4810 61E0            001E0 56285    7403.     XSWLOOP  LH    RS,PAGXSN               Number of data sets
 0067B2 5830 61DC            001DC 56286    7404.              L     RB,PAGXSCUR             Data set descriptors
 0067B6 5820 C048            00000 56287    7405.              L     RA,@XPCNT               Number of clusters requested
 0067BA                            56288    7406.     XSWSRCH  BEGIN ,                       Look for clusters
 0067BA                            56293  1 7407.                LOOP  BEGIN                   Look through necessary DSs
 0067BA 1843                       56299  2 7408.                  LR    RJ,RB
 USING  DSDES,R4                   56300  2 7409.                  WITH  (DSDES,RJ)
 0067BC                            56313  2 7410.                  IF    (DSAID,NE,=CL4'BMCB'),'ABORT BADBMID'
 0067BC D503 AC66 4000 073E8 00000 56324  2          +
 0067C2 4780 A074            067F6 56325  2          +
 USING  PZERO,R0
 0067C6 AC04 021B      0021B       56343  3          +
 0067CA 9680 021A      0021A       56349  3          +
 0067CE 50F0 021C            0021C 56350  3          +
 0067D2 58F0 0210            00210 56351  3          +
 0067D6 89F0 0010            00010 56352  3          +
 0067DA 88F0 0010            00010 56353  3          +
 0067DE 41F0 F000            00000 56354  3          +
 0067E2 AEFF 0006            00006 56355  3          +
1PAGESERV (PAGE00) (09:42) (22MAR04) External swap page allocation                                                          Page  314
0Current Usings:  (DSDES,R4) (PAGCB,R6) (SWPGET,R10) (@XPGET-72,R12) (@LOCKS-72,R13)
0Loc    Object Code    Addr1 Addr2  Stmt Lv Lineno    Source Statement           (Hibal 5, Asmedit 3.3)  HLASM R4.0  2004/03/22 09.42
+___    ______ ____    _____ _____  ____ __ ______    ______ _________
00067E6 C2C1C4C2D4C9C440           56356  2          +
 DROP   PZERO,R0
                                   56369  2 7411.     *
 DROP   @LOCKS-72,R13              56370  2 7412.                  PSET  @BMALLOC                Look for external frames
 USING  @BMALLOC-72,R13
 0067F6 D710 D048 D048 00000 00000 56390  2          +
 0067FC 5040 D048            00000 56391  2 7413.                  PMOV  @BMACB,LA:DSDES         | control block
 006800 5020 D050            00008 56402  2 7414.                  PMOV  @BMANUM,(RA)            | number of frames desired
 006804 41F0 A360/0DEF       06AE2 56412  2 7415.                  LCALL BMALLOC                 |
 00680A 5830 401C            0001C 56421  2 7416.                  L     RB,DSCHAIN              Next data set...
 00680E 9180 D058      00010       56422  2 7417.                  IF    @BMAOK,BEGIN            Allocation OK
 006812 47E0 A0CA            0684C 56432  2          +
 006816 5850 61E4            001E4 56437  3 7418.                    L     RK,PAGXSRCNT            Update total clusters avail
 00681A 1F52                       56438  3 7419.                    SLR   RK,RA                   |
 00681C 5050 61E4            001E4 56439  3 7420.                    ST    RK,PAGXSRCNT            |
 006820 1850                       56440  3 7421.                    LR    RK,RVR                  Get block number
 006822 4C50 6180            00180 56441  3 7422.                    MH    RK,PAGSWXN
 006826 5050 C050            00008 56442  3 7423.                    ST    RK,@XPRBLK              | | relative
 00682A 5040 C054            0000C 56443  3 7424.                    PMOV  @XPDSDES,LA:DSDES       | Data set descriptor
 00682E 5030 61DC            001DC 56454  3 7425.                    ST    RB,PAGXSCUR             Alloc from next DS next time
 006832 9680 C058      00010       56455  3 7426.                    SET   @XPOK
 DROP   @BMALLOC-72,R13            56461  3 7427.                    SLKRL PAGXSL,#LCLPSWM         Release resource
 USING  @LOCKS-72,R13
 006836 D203 D048 61D8 00000 001D8 56481  3          +
 00683C 58F0 6030/0DEF       00030 56487  3          +
 006842 8000 C060      00000       56489  3          +
 006846 1805                       56490  3 7428.                    LR    RVR,RK                  Return relative block number
 006848 47F0 A0DE            06860 56491  3 7429.                    EXIT  XSWSRCH
 00684C                            56494  2 7430.                  END   ,                       OF Allocation OK
 00684C 4610 A038            067BA 56498  1 7431.                UNTIL (BCT,RS),END            OF Look through ...
 DROP   DSDES,R4
                                   56513  1 7432.     *        ABORT NOXSWAP
 006850                            56514  1 7433.                SLKRL PAGXSL,#LCLPSWM
 006850 D203 D048 61D8 00000 001D8 56524  1          +
 006856 58F0 6030/0DEF       00030 56530  1          +
 00685C 8000 C060      00000       56532  1          +
 006860                            56533    7434.              END   ,                       OF Look for blocks
 006860 981F C008            00008 56537    7435.              PEND  ,
 DROP   PAGCB,R6
 DROP   @XPGET-72,R12
 DROP   SWPGET,R10
 006864 9680 C000/0B0E 00000       56557             +
 DROP   @LOCKS-72,R13
1PAGESERV (PAGE00) (09:42) (22MAR04) Release block from external page device                                                Page  315
0Loc    Object Code    Addr1 Addr2  Stmt Lv Lineno    Source Statement           (Hibal 5, Asmedit 3.3)  HLASM R4.0  2004/03/22 09.42
+___    ______ ____    _____ _____  ____ __ ______    ______ _________
0                                  56567    7437.
                                   56568    7438.
                                   56569    7439.       Release block from external page device
                                   56570    7440.
                                   56571    7441.        Input - @XPREL
                                   56572    7442.                  only uses block number
                                   56573    7443.
                                   56574    7444.       Output - none
                                   56575    7445.
                                   56576    7446.

0000000                00000 0000C 56577    7447.     @XPREL   RECORD BEGIN
 000000                            56585  1 7448.     @XPRLBLK   DS    A                       Block address
 000004                            56586  1 7449.     @XPRNUM    DS    A                       | count of consecutive blocks
 000008                            56587  1 7450.     @XPRCB     DS    A                       Control block
 00000C                0000C 0000C 56588    7451.              END   ,
000686A                            56598    7453.     XPREL    PROC  @XPREL                  Release external blocks
 00686A E7D7D9C5D3404040           56605             +
 006872 0010/0000                  56606             +
 006876 900F D004/18AF       00004 56608             +
 USING  XPREL,R10
 00687C 50D0 C000/18CD       00000 56623             +
 006882 9680 C000      00000       56625             +
 USING  @XPREL-72,R12
 006886 41D0 C058            00058 56639             +
 00688A 5860 0200            00200 56640    7454.              PAGAD RPAG
 USING  PZERO,R0
 DROP   PZERO,R0
 USING  MAT,R6
 00688E 5860 600C            0000C 56674             +
 DROP   MAT,R6
 USING  PAGCB,R6
 USING  @LOCKS-72,R13              56696    7455.              LKOB  PAGXPL                  Get resource lock
 006892 D203 D048 61B8 00000 001B8 56712             +
 006898 58F0 602C/0DEF       0002C 56718             +
 DROP   @LOCKS-72,R13              56720    7456.              BLKDSID @XPRLBLK              Compute DSID/rel block
 USING  @BLKDSID-72,R13
 00689E D70F D048 D048 00000 00000 56741             +
 0068A4 D203 D048 C048 00000 00000 56746             +
 0068AA 58F0 AB7A/0DEF       073F0 56752             +
 0068B0 5820 D050            00008 56754    7457.              L     RA,@BLKRNUM             RA = DSID/rel blk num
 0068B4 5830 D054            0000C 56755    7458.              L     RB,@BLKBCB              | individual bit map CB
 DROP   @BLKDSID-72,R13            56756    7459.              PSET  @BMFREE                 Release blocks
 USING  @BMFREE-72,R13
 0068B8 D70C D048 D048 00000 00000 56776             +
 0068BE 5020 D04C            00004 56777    7460.              PMOV  @BMFADD,(RA)            | relative blk number
 0068C2 5030 D048            00000 56787    7461.              PMOV  @BMFCB,(RB)             | individual bit map ctl block
 0068C6 4150 0001            00001 56797    7462.              LA    RK,1
 0068CA 5050 D050            00008 56798    7463.              PMOV  @BMFNUM,(RK)            |
 0068CE 41F0 A4A6/0DEF       06D1C 56808    7464.              LCALL BMFREE                  |
 0068D4 9180 D054      0000C       56817    7465.              IF    ~@BMFOK,BEGIN
 0068D8 4710 A096            0690C 56827             +
 0068DC AC04 021B      0021B       56832  1 7466.                ABORT PAGBMFREE
 USING  PZERO,R0
1PAGESERV (PAGE00) (09:42) (22MAR04) Release block from external page device                                                Page  316
0Current Usings:  (PZERO,R0) (PAGCB,R6) (XPREL,R10) (@XPREL-72,R12) (@BMFREE-72,R13)
0Loc    Object Code    Addr1 Addr2  Stmt Lv Lineno    Source Statement           (Hibal 5, Asmedit 3.3)  HLASM R4.0  2004/03/22 09.42
+___    ______ ____    _____ _____  ____ __ ______    ______ _________
00068E0 9680 021A      0021A       56850  1          +
 0068E4 50F0 021C            0021C 56851  1          +
 0068E8 58F0 0210            00210 56852  1          +
 0068EC 89F0 0010            00010 56853  1          +
 0068F0 88F0 0010            00010 56854  1          +
 0068F4 41F0 F000            00000 56855  1          +
 0068F8 AEFF 0006            00006 56856  1          +
 0068FC D7C1C7C2D4C6D9C5           56857  1          +
 DROP   PZERO,R0
 00690C                            56866    7467.              END   ,
 00690C 5E50 61C4            001C4 56870    7468.              AL    RK,PAGXPRCNT            Update available count
 006910 5050 61C4            001C4 56871    7469.              ST    RK,PAGXPRCNT            |
 006914 5810 61D0/1211       001D0 56872    7470.              IF    ('LT RS,PAGXPCNT',NZ),BEGIN      Notify any waiting
 00691A 4780 A0C0            06936 56883             +
 00691E 58F0 60C0            000C0 56888  1 7471.                SET   PAGFWXP,MODE=LOCKED,REF=PAGFWAIT
 006922 4110 0040            00040 56895  1          +
 006926 8910 0018/180F       00018 56896  1          +
 00692C 1601/BAF0 60C0       000C0 56898  1          +
 006932 4770 A0B4            0692A 56901  1          +
 006936                            56902    7472.              END   ,                       OF Notify any waiting
 DROP   @BMFREE-72,R13             56906    7473.              LKREL PAGXPL
 USING  @LOCKS-72,R13
 006936 D203 D048 61B8 00000 001B8 56925             +
 00693C 58F0 6030/0DEF       00030 56931             +
 006942 981F C008            00008 56933    7474.              PEND  ,
 DROP   PAGCB,R6
 DROP   @XPREL-72,R12
 DROP   XPREL,R10
 006946 9680 C000/0B0E 00000       56953             +
 DROP   @LOCKS-72,R13
1PAGESERV (PAGE00) (09:42) (22MAR04) Release block from external swap device                                                Page  317
0Loc    Object Code    Addr1 Addr2  Stmt Lv Lineno    Source Statement           (Hibal 5, Asmedit 3.3)  HLASM R4.0  2004/03/22 09.42
+___    ______ ____    _____ _____  ____ __ ______    ______ _________
0                                  56963    7476.
                                   56964    7477.
                                   56965    7478.       Release block from external swap device
                                   56966    7479.
                                   56967    7480.        Input - @XPREL
                                   56968    7481.
                                   56969    7482.       Output - none
                                   56970    7483.
                                   56971    7484.

000694C                            56973    7486.     SWPREL   PROC  @XPREL,#LCLLOCK         Release external blocks
 00694C E2E6D7D9C5D34040           56980             +
 006954 0010/0008                  56981             +
 006958 900F D004/18AF       00004 56983             +
 USING  SWPREL,R10
 00695E 50D0 C000/18CD       00000 56998             +
 006964 9680 C000      00000       57000             +
 USING  @XPREL-72,R12
 AUSING (#LCLLOCK,@XPREL+16)
 006968 41D0 C060            00060 57019             +
 00696C 5860 0200            00200 57020    7487.              PAGAD RPAG
 USING  PZERO,R0
 DROP   PZERO,R0
 USING  MAT,R6
 006970 5860 600C            0000C 57054             +
 DROP   MAT,R6
 USING  PAGCB,R6
 006974 AC04 C058      00000       57076    7488.              SLKOB PAGXSL,#LCLPSWM         Get resource lock
 USING  @LOCKS-72,R13
 006978 D203 D048 61D8 00000 001D8 57094             +
 00697E 58F0 602C/0DEF       0002C 57100             +
 DROP   @LOCKS-72,R13              57102    7489.              PSET  @BMFREE                 Release blocks
 USING  @BMFREE-72,R13
 006984 D70C D048 D048 00000 00000 57122             +
 00698A 4820 6180            00180 57123    7490.              LH    RA,PAGSWXN              |   cluster size
 00698E 5850 C048            00000 57124    7491.              L     RK,@XPRLBLK             Starting cluster
 006992 1B44                       57125    7492.              CLEAR RJ                      | from starting block
 006994 1D42                       57129    7493.              DR    RJ,RA                   |
 006996 5050 D04C            00004 57130    7494.              PMOV  @BMFADD,(RK)            |
 00699A                            57140    7495.              PMOV  @BMFNUM,@XPRNUM         | number of clusters
 00699A D203 D050 C04C 00008 00004 57144             +
 0069A0                            57145    7496.              PMOV  @BMFCB,@XPRCB           | individual bit map ctl block
 0069A0 D203 D048 C050 00000 00008 57149             +
 0069A6 41F0 A3C4/0DEF       06D1C 57150    7497.              LCALL BMFREE                  |
 0069AC 9180 D054      0000C       57159    7498.              IF    ~@BMFOK,BEGIN
 0069B0 4710 A08C            069E4 57169             +
 0069B4 AC04 021B      0021B       57174  1 7499.                ABORT PAGBMFREE
 USING  PZERO,R0
 0069B8 9680 021A      0021A       57192  1          +
 0069BC 50F0 021C            0021C 57193  1          +
 0069C0 58F0 0210            00210 57194  1          +
 0069C4 89F0 0010            00010 57195  1          +
 0069C8 88F0 0010            00010 57196  1          +
 0069CC 41F0 F000            00000 57197  1          +
 0069D0 AEFF 0006            00006 57198  1          +
1PAGESERV (PAGE00) (09:42) (22MAR04) Release block from external swap device                                                Page  318
0Current Usings:  (PAGCB,R6) (SWPREL,R10) (@XPREL-72,R12) (@BMFREE-72,R13)
0Loc    Object Code    Addr1 Addr2  Stmt Lv Lineno    Source Statement           (Hibal 5, Asmedit 3.3)  HLASM R4.0  2004/03/22 09.42
+___    ______ ____    _____ _____  ____ __ ______    ______ _________
00069D4 D7C1C7C2D4C6D9C5           57199  1          +
 DROP   PZERO,R0
 0069E4                            57208    7500.              END   ,
 0069E4 5850 61E4            001E4 57212    7501.              L     RK,PAGXSRCNT            Update available count
 0069E8 5E50 C04C            00004 57213    7502.              AL    RK,@XPRNUM              |
 0069EC 5050 61E4            001E4 57214    7503.              ST    RK,PAGXSRCNT            |
 DROP   @BMFREE-72,R13             57215    7504.              SLKRL PAGXSL,#LCLPSWM         Free resource
 USING  @LOCKS-72,R13
 0069F0 D203 D048 61D8 00000 001D8 57235             +
 0069F6 58F0 6030/0DEF       00030 57241             +
 0069FC 8000 C058      00000       57243             +
 006A00 981F C008            00008 57244    7505.              PEND  ,
 DROP   PAGCB,R6
 DROP   @XPREL-72,R12
 DROP   SWPREL,R10
 006A04 9680 C000/0B0E 00000       57264             +
 DROP   @LOCKS-72,R13
1PAGESERV (PAGE00) (09:42) (22MAR04) Convert paging block number to DSID/block number                                       Page  319
0Loc    Object Code    Addr1 Addr2  Stmt Lv Lineno    Source Statement           (Hibal 5, Asmedit 3.3)  HLASM R4.0  2004/03/22 09.42
+___    ______ ____    _____ _____  ____ __ ______    ______ _________
0                                  57274    7507.
                                   57275    7508.
                                   57276    7509.       Convert paging block number to DSID/block number
                                   57277    7510.
                                   57278    7511.        Input - @BLKDSID
                                   57279    7512.
                                   57280    7513.       Output - RVR contains DSID
                                   57281    7514.                @BLKDSID also has relative block number
                                   57282    7515.

0000000                00000 00010 57283    7516.     @BLKDSID RECORD BEGIN
 000000                            57291  1 7517.     @BLKNUM    DS    A                       Absolute block number
                                   57292  1 7518.     * -- Return info starts here --
 000004                            57293  1 7519.     @BLKID     DS    A                       Data set ID
 000008                            57294  1 7520.     @BLKRNUM   DS    A                       Relative blk number for DSID
 00000C                            57295  1 7521.     @BLKBCB    DS    A                       Individual bit map CB addr
 000010                00010 00010 57296    7522.              END   ,
0006A0A                            57306    7524.     BLKDSID  PROC  @BLKDSID                Block # to DSID/block
 006A0A C2D3D2C4E2C9C440           57313             +
 006A12 0010/0000                  57314             +
 006A16 900F D004/18AF       00004 57316             +
 USING  BLKDSID,R10
 006A1C 50D0 C000/18CD       00000 57331             +
 006A22 9680 C000      00000       57333             +
 USING  @BLKDSID-72,R12
 006A26 41D0 C058            00058 57347             +
 006A2A 5860 0200            00200 57348    7525.              PAGAD RPAG
 USING  PZERO,R0
 DROP   PZERO,R0
 USING  MAT,R6
 006A2E 5860 600C            0000C 57382             +
 DROP   MAT,R6
 USING  PAGCB,R6
 006A32 5820 C048            00000 57404    7526.              L     RA,@BLKNUM              Absolute block number
 006A36 5830 61B4            001B4 57405    7527.              L     RB,PAGXPDS              First DS in block
 006A3A 4810 61C0            001C0 57406    7528.              LH    RS,PAGXPN               | number of DSs
 006A3E                            57407    7529.     BLKSRCH  BEGIN ,                       Look for right DS
 006A3E                            57412  1 7530.                LOOP  BEGIN                   Loop through DSs
 USING  DSDES,R3                   57418  2 7531.                  WITH  (DSDES,RB)
 006A3E                            57431  2 7532.                  IF    (DSAID,NE,=CL4'BMCB'),'ABORT BADBMID'
 006A3E D503 A9D2 3000 073E8 00000 57442  2          +
 006A44 4780 A062            06A78 57443  2          +
 USING  PZERO,R0
 006A48 AC04 021B      0021B       57461  3          +
 006A4C 9680 021A      0021A       57467  3          +
 006A50 50F0 021C            0021C 57468  3          +
 006A54 58F0 0210            00210 57469  3          +
 006A58 89F0 0010            00010 57470  3          +
 006A5C 88F0 0010            00010 57471  3          +
 006A60 41F0 F000            00000 57472  3          +
 006A64 AEFF 0006            00006 57473  3          +
 006A68 C2C1C4C2D4C9C440           57474  2          +
 DROP   PZERO,R0
 006A78 5520 300C            0000C 57487  2 7533.                  IF    (RA,LLT,DSCOUNT),EXIT,BLKSRCH
1PAGESERV (PAGE00) (09:42) (22MAR04) Convert paging block number to DSID/block number                                       Page  320
0Current Usings:  (DSDES,R3) (PAGCB,R6) (BLKDSID,R10) (@BLKDSID-72,R12)
0Loc    Object Code    Addr1 Addr2  Stmt Lv Lineno    Source Statement           (Hibal 5, Asmedit 3.3)  HLASM R4.0  2004/03/22 09.42
+___    ______ ____    _____ _____  ____ __ ______    ______ _________
0006A7C 4740 A0A6            06ABC 57501  2          +
 006A80 5F20 300C            0000C 57507  2 7534.                  SL    RA,DSCOUNT
 006A84 5830 301C            0001C 57508  2 7535.                  L     RB,DSCHAIN
 006A88 4610 A028            06A3E 57509  1 7536.                UNTIL (BCT,RS),END            OF Loop through DSs
 DROP   DSDES,R3
 006A8C AC04 021B      0021B       57524  1 7537.                ABORT PAGXPNUM                Invalid block number
 USING  PZERO,R0
 006A90 9680 021A      0021A       57542  1          +
 006A94 50F0 021C            0021C 57543  1          +
 006A98 58F0 0210            00210 57544  1          +
 006A9C 89F0 0010            00010 57545  1          +
 006AA0 88F0 0010            00010 57546  1          +
 006AA4 41F0 F000            00000 57547  1          +
 006AA8 AEFF 0006            00006 57548  1          +
 006AAC D7C1C7E7D7D5E4D4           57549  1          +
 DROP   PZERO,R0
 006ABC                            57558    7538.              END   ,                       OF Look for right DS
 USING  DSDES,R3                   57562    7539.              WITH  (DSDES,RB),BEGIN        BM addressability
 006ABC 5030 C054            0000C 57576  1 7540.                ST    RB,@BLKBCB              This bit map CB
 006AC0 5020 C050            00008 57577  1 7541.                ST    RA,@BLKRNUM             Relative block number
 006AC4 5800 3014            00014 57578  1 7542.                L     RVR,DSCHID              Channel ID
 006AC8 5000 C04C            00004 57579  1 7543.                ST    RVR,@BLKID              |
 DROP   DSDES,R3                   57580    7544.              END   ,                       OF BM addressability
 006ACC 981F C008            00008 57588    7545.              PEND  ,
 DROP   PAGCB,R6
 DROP   @BLKDSID-72,R12
 DROP   BLKDSID,R10
 006AD0 9680 C000/0B0E 00000       57608             +
1PAGESERV (PAGE00) (09:42) (22MAR04) Bitmap allocation                                                                      Page  321
0Loc    Object Code    Addr1 Addr2  Stmt Lv Lineno    Source Statement           (Hibal 5, Asmedit 3.3)  HLASM R4.0  2004/03/22 09.42
+___    ______ ____    _____ _____  ____ __ ______    ______ _________
0                                  57615    7547.
                                   57616    7548.
                                   57617    7549.       Allocate a unit of resource represented by a bitmap.
                                   57618    7550.
                                   57619    7551.       Input  - @BMALLOC
                                   57620    7552.
                                   57621    7553.       Output - @BMAOK, RVR
                                   57622    7554.         IF @BMAOK:
                                   57623    7555.           RVR contains the bit address of the resource quantity
                                   57624    7556.             allocated
                                   57625    7557.         IF ~@BMAOK
                                   57626    7558.           no pages available
                                   57627    7559.
                                   57628    7560.

-006AD6                            57631    7563.     BMALLOC  PROC  @BMALLOC                Bitmap allocation
 006AD6 C2D4C1D3D3D6C340           57638             +
 006ADE 0018/0000                  57639             +
 006AE2 900F D004/18AF       00004 57641             +
 USING  BMALLOC,R10
 006AE8 50D0 C000/18CD       00000 57656             +
 006AEE 9680 C000      00000       57658             +
 USING  @BMALLOC-72,R12
 006AF2 41D0 C060            00060 57672             +
 006AF6 5880 C048            00000 57673    7564.              L     RM,@BMACB               Addr to control block
 USING  DSDES,R8                   57674    7565.              WITH  (DSDES,RM)
 006AFA                            57687    7566.              IF    (DSAID,NE,=CL4'BMCB'),'ABORT BADBMID'
 006AFA D503 A906 8000 073E8 00000 57698             +
 006B00 4780 A052            06B34 57699             +
 USING  PZERO,R0
 006B04 AC04 021B      0021B       57717  1          +
 006B08 9680 021A      0021A       57723  1          +
 006B0C 50F0 021C            0021C 57724  1          +
 006B10 58F0 0210            00210 57725  1          +
 006B14 89F0 0010            00010 57726  1          +
 006B18 88F0 0010            00010 57727  1          +
 006B1C 41F0 F000            00000 57728  1          +
 006B20 AEFF 0006            00006 57729  1          +
 006B24 C2C1C4C2D4C9C440           57730             +
 DROP   PZERO,R0
                                   57743    7567.     *
                                   57744    7568.     *        CLEAR @BMAOK                  Set alloc not OK
 006B34                            57745    7569.              IF    (@BMANUM,GT,DSAVAIL),EXIT,BMALLOC        Not enough
 006B34 D503 8010 C050 00010 00008 57756             +
 006B3A 4740 A224            06D06 57759             +
 006B3E 5820 8004            00004 57765    7570.              L     RLOC,DSLOC              Compute first available byte
 006B42 5830 8008            00008 57766    7571.              L     RLEN,DSLEN              | and remaining length
 006B46 1B77                       57767    7572.              CLEAR (RY)                    |  search for not all 0s
 006B48 0F26                       57771    7573.              CLCL  RLOC,RX                 |
 006B4A 4780 A224            06D06 57772    7574.              IF    EQUAL,EXIT,BMALLOC      | no bytes available
 006B4E                            57786    7575.     BMALOOP  BEGIN ,                       Allocation loop - search & set
 006B4E                            57791  1 7576.     BMALOOK    BEGIN ,                       Allocation search
 006B4E 1802                       57796  2 7577.                  LR    RADD,RLOC               Bit address of 1st avail byte
 006B50 5F00 8004            00004 57797  2 7578.                  SL    RADD,DSLOC              |
1PAGESERV (PAGE00) (09:42) (22MAR04) Bitmap allocation                                                                      Page  322
0Current Usings:  (DSDES,R8) (BMALLOC,R10) (@BMALLOC-72,R12)
0Loc    Object Code    Addr1 Addr2  Stmt Lv Lineno    Source Statement           (Hibal 5, Asmedit 3.3)  HLASM R4.0  2004/03/22 09.42
+___    ______ ____    _____ _____  ____ __ ______    ______ _________
0006B54 8900 0003            00003 57798  2 7579.                  SLL   RADD,3                  |
 006B58 1263                       57799  2 7580.                  LTR   RX,RLEN                 Fix mask and load BM section
 006B5A 4780 A220            06D02 57800  2 7581.                  IF    ZERO,EXIT,BMALOOP       | failed allocation
 006B5E 5960 A912            073F4 57814  2 7582.                  CEIL  RX,4                    |
 006B62 47D0 A088            06B6A 57823  2          +
 006B66 5860 A912            073F4 57828  2          +
 006B6A 4316 A915            073F7 57833  2 7583.                  IC    RS,=X'080C0E0F'-1(RX)   | ICM mask
 006B6E 4410 A958            0743A 57834  2 7584.                  EX    RS,'ICM RMAP,0,@RLOC'   |
 00743A BFF0 2000            00000 57842  2          +
 006B72 1E26                       57850  2 7585.                  ALR   RLOC,RX                 Address of next byte in map
 006B74 1F36                       57851  2 7586.                  SLR   RLEN,RX                 | and remaining length
 006B76 8960 0003            00003 57852  2 7587.                  SLL   RX,3                    | number of bits inserted
 006B7A 1E06                       57853  2 7588.                  ALR   RADD,RX                 Bit Address of next segment
 006B7C 1B44                       57854  2 7589.                  CLEAR (RCNT)
 006B7E 5850 C050            00008 57858  2 7590.                  L     RWANT,@BMANUM
 006B82                            57859  2 7591.     BMAINWRD     BEGIN ,                       Allocate from within word
 006B82 1945/4780 A0BA       06B9C 57864  3 7592.                    IF    (RCNT,EQ,RWANT),EXIT,BMAINWRD
 006B88 4140 4001            00001 57882  3 7593.                    LA    RCNT,@RCNT+1
 006B8C 12FF/4740 A0B2       06B94 57883  3 7594.                    IF    (RMAP,NNEG),BEGIN       This bit allocated
 006B92 1B44                       57897  4 7595.                      CLEAR (RCNT)                  | clear consecutive counts
 006B94                            57901  3 7596.                    END   ,
 006B94 89F0 0001            00001 57905  3 7597.                    SLL   RMAP,1
 006B98 4660 A0A0            06B82 57906  3 7598.                    BCT   RX,BMAINWRD
 006B9C                            57907  2 7599.                  END   ,                       OF Allocate from within word
 006B9C 1810                       57911  2 7600.                  LR    RS,RADD                 Compute start address
 006B9E 1B14                       57912  2 7601.                  SR    RS,RCNT                 |
 006BA0 1B16                       57913  2 7602.                  SR    RS,RX                   |
 006BA2 5010 C04C            00004 57914  2 7603.                  ST    RS,@BMAADD              |
 006BA6 5E10 C050            00008 57915  2 7604.                  AL    RS,@BMANUM
 006BAA 5910 800C            0000C 57916  2 7605.                  IF    (RS,GT,DSCOUNT),EXIT,BMALLOC     Failed allocate
 006BAE 4720 A224            06D06 57930  2          +
 006BB2 1244/4780 A06C       06B4E 57936  2 7606.                  IF    (RCNT,ZERO),BMALOOK     Try again
 006BB8 1945/4780 A164       06C46 57953  2 7607.                  IF    (RCNT,EQ,RWANT),EXIT,BMALOOK     Have all we want
 006BBE                            57971  2 7608.                  LOOP  BEGIN                   Consecutive bit search
 006BBE 1F54                       57977  3 7609.                    SLR   RWANT,RCNT              Remaining desired
 006BC0 1255/4720 A114       06BF6 57978  3 7610.                    IF    (RWANT,NPOS),'ABORT PAGBITNEG'
 006BC6 AC04 021B      0021B       58005  4          +
 USING  PZERO,R0
 006BCA 9680 021A      0021A       58011  4          +
 006BCE 50F0 021C            0021C 58012  4          +
 006BD2 58F0 0210            00210 58013  4          +
 006BD6 89F0 0010            00010 58014  4          +
 006BDA 88F0 0010            00010 58015  4          +
 006BDE 41F0 F000            00000 58016  4          +
 006BE2 AEFF 0006            00006 58017  4          +
 006BE6 D7C1C7C2C9E3D5C5           58018  3          +
 DROP   PZERO,R0
 006BF6 5A40 C054            0000C 58031  3 7611.                    A     RCNT,@BMALEFT           Total so far
 006BFA 5040 C054            0000C 58032  3 7612.                    ST    RCNT,@BMALEFT           |
 006BFE 1863                       58033  3 7613.                    LR    RX,RLEN                 Fix mask and load BM section
 006C00 5960 A912            073F4 58034  3 7614.                    CEIL  RX,4                    |
 006C04 47D0 A12A            06C0C 58043  3          +
 006C08 5860 A912            073F4 58048  3          +
 006C0C 4316 A915            073F7 58053  3 7615.                    IC    RS,=X'080C0E0F'-1(RX)   | ICM mask
1PAGESERV (PAGE00) (09:42) (22MAR04) Bitmap allocation                                                                      Page  323
0Current Usings:  (DSDES,R8) (BMALLOC,R10) (@BMALLOC-72,R12)
0Loc    Object Code    Addr1 Addr2  Stmt Lv Lineno    Source Statement           (Hibal 5, Asmedit 3.3)  HLASM R4.0  2004/03/22 09.42
+___    ______ ____    _____ _____  ____ __ ______    ______ _________
0006C10 4410 A95C            0743E 58054  3 7616.                    EX    RS,'ICM RMAP,0,@RLOC'   Check for all 1s on right
 00743E BFF0 2000            00000 58062  3          +
 006C14 58E0 A91A            073FC 58070  3 7617.                    L     RMAPL,=A(X'FFFFFFFF')   |
 006C18 1846                       58071  3 7618.                    LR    RCNT,RX                 |
 006C1A 8940 0003            00003 58072  3 7619.                    SLL   RCNT,3                  |
 006C1E 1945/47D0 A144       06C26 58073  3 7620.                    CEIL  RCNT,RWANT              |
 006C24 1845                       58078  3          +
 006C26 8DE0 4000            00000 58079  3 7621.                    SLDL  RMAPL,@RCNT             | if avail will be all ones
 006C2A 59E0 A91A            073FC 58080  3 7622.                    IF    (RMAPL,NE,=A(X'FFFFFFFF')),BEGIN
 006C2E 4780 A15A            06C3C 58091  3          +
 006C32                            58096  4 7623.                      CLEAR @BMALEFT
 006C32 D703 C054 C054 0000C 0000C 58102  4          +
 006C38 47F0 A06C            06B4E 58103  4 7624.                      B     BMALOOK                 Start again
 006C3C                            58104  3 7625.                    END   ,                       OF Check on right failed
 006C3C 1E26                       58108  3 7626.                    ALR   RLOC,RX                 Address of next byte in map
 006C3E 1F36                       58109  3 7627.                    SLR   RLEN,RX                 | and remaining length
 006C40 1954/4770 A0DC       06BBE 58110  2 7628.                  UNTIL (RWANT,EQ,RCNT),END     |
 006C46                            58133  1 7629.                END   ,                       OF Allocation search
 006C46 5820 C04C            00004 58137  1 7630.                L     RLOC,@BMAADD            Bit start address => byte
 006C4A 1862                       58138  1 7631.                LR    RX,RLOC                 |
 006C4C 8820 0003            00003 58139  1 7632.                SRL   RLOC,3                  |
 006C50 5830 8008            00008 58140  1 7633.                L     RLEN,DSLEN              | Remaining length
 006C54 1F32                       58141  1 7634.                SLR   RLEN,RLOC               | |
 006C56 5E20 8004            00004 58142  1 7635.                AL    RLOC,DSLOC              | Byte address
 006C5A 5460 A91E            07400 58143  1 7636.                N     RX,=A(X'00000007')      |  bit w/in byte
 006C5E 5850 C050            00008 58144  1 7637.                L     RWANT,@BMANUM           Desired number of units
 006C62                            58145  1 7638.                LOOP  BEGIN                   Allocate the bits from the map
 006C62 1845                       58151  2 7639.                  LR    RCNT,RWANT              | number for this pass
 006C64 1E46                       58152  2 7640.                  ALR   RCNT,RX                 | | max this pass
 006C66 5940 A922            07404 58153  2 7641.                  CEIL  RCNT,32                 | | including leading bits
 006C6A 47D0 A190            06C72 58162  2          +
 006C6E 5840 A922            07404 58167  2          +
 006C72 1F46                       58172  2 7642.                  SLR   RCNT,RX                 | |
 006C74 58F0 A91A            073FC 58173  2 7643.                  L     RMAP,=A(X'FFFFFFFF')    | ... Life time supply of 1s
 006C78 8DE0 6000            00000 58174  2 7644.                  SLDL  RMAPL,@RX               | Leading 1s
 006C7C 89E0 4000            00000 58175  2 7645.                  SLL   RMAPL,@RCNT             | Mask 0s
 006C80 1F54                       58176  2 7646.                  SLR   RWANT,RCNT              | Ending 1s (# left to alloc)
 006C82 1E46                       58177  2 7647.                  ALR   RCNT,RX                 | |
 006C84 1344                       58178  2 7648.                  LCR   RCNT,RCNT               | |
 006C86 4140 4020            00020 58179  2 7649.                  LA    RCNT,@RCNT+32           | |
 006C8A 8DE0 4000            00000 58180  2 7650.                  SLDL  RMAPL,@RCNT             | |
 006C8E 1863                       58181  2 7651.                  LR    RX,RLEN                 Fix mask and load BM section
 006C90 5960 A912            073F4 58182  2 7652.                  CEIL  RX,4                    |
 006C94 47D0 A1BA            06C9C 58191  2          +
 006C98 5860 A912            073F4 58196  2          +
 006C9C 4316 A915            073F7 58201  2 7653.                  IC    RS,=X'080C0E0F'-1(RX)   | ICM mask
 006CA0 4410 A960            07442 58202  2 7654.                  EX    RS,'ICM RMAP,0,@RLOC '  Get map
 007442 BFF0 2000            00000 58210  2          +
 006CA4 187F                       58218  2 7655.                  LR    RY,RMAP
 006CA6 14FE                       58219  2 7656.                  NR    RMAP,RMAPL              ALLOCATE BITS
 006CA8 16E7                       58220  2 7657.                  OR    RMAPL,RY
 006CAA 59E0 A91A            073FC 58221  2 7658.                  IF    (RMAPL,NE,=A(X'FFFFFFFF')),'ABORT BADBITALLOC'
 006CAE 4780 A200            06CE2 58232  2          +
 USING  PZERO,R0
1PAGESERV (PAGE00) (09:42) (22MAR04) Bitmap allocation                                                                      Page  324
0Current Usings:  (PZERO,R0) (DSDES,R8) (BMALLOC,R10) (@BMALLOC-72,R12)
0Loc    Object Code    Addr1 Addr2  Stmt Lv Lineno    Source Statement           (Hibal 5, Asmedit 3.3)  HLASM R4.0  2004/03/22 09.42
+___    ______ ____    _____ _____  ____ __ ______    ______ _________
0006CB2 AC04 021B      0021B       58250  3          +
 006CB6 9680 021A      0021A       58256  3          +
 006CBA 50F0 021C            0021C 58257  3          +
 006CBE 58F0 0210            00210 58258  3          +
 006CC2 89F0 0010            00010 58259  3          +
 006CC6 88F0 0010            00010 58260  3          +
 006CCA 41F0 F000            00000 58261  3          +
 006CCE AEFF 0006            00006 58262  3          +
 006CD2 C2C1C4C2C9E3C1D3           58263  2          +
 DROP   PZERO,R0
 006CE2 4410 A964            07446 58276  2 7659.                  EX    RS,'STCM RMAP,0,@RLOC ' Put map back
 007446 BEF0 2000            00000 58284  2          +
 006CE6 1E26                       58292  2 7660.                  ALR   RLOC,RX                 Address of next byte in map
 006CE8 1F36                       58293  2 7661.                  SLR   RLEN,RX                 | and remaining length
 006CEA 1B66                       58294  2 7662.                  CLEAR (RX)                    | & no more leading pad bits
 006CEC 1255/4770 A180       06C62 58298  1 7663.                UNTIL (RWANT,ZERO),END
 006CF2 9680 C058      00010       58320  1 7664.                SET   @BMAOK                  Allocation successful
 006CF6 5810 8010            00010 58326  1 7665.                L     RS,DSAVAIL              Decrement available number
 006CFA 5F10 C050            00008 58327  1 7666.                SL    RS,@BMANUM              |
 006CFE 5010 8010            00010 58328  1 7667.                ST    RS,DSAVAIL              |
 006D02                            58329    7668.              END   ,                       OF Allocation loop
 006D02 5800 C04C            00004 58333    7669.              L     RVR,@BMAADD             Allocation starts here
                                   58334    7670.
 006D06 981F C008            00008 58335    7671.              PEND
 DROP   DSDES,R8
 DROP   @BMALLOC-72,R12
 DROP   BMALLOC,R10
 006D0A 9680 C000/0B0E 00000       58355             +
1PAGESERV (PAGE00) (09:42) (22MAR04) Bitmap deallocation                                                                    Page  325
0Loc    Object Code    Addr1 Addr2  Stmt Lv Lineno    Source Statement           (Hibal 5, Asmedit 3.3)  HLASM R4.0  2004/03/22 09.42
+___    ______ ____    _____ _____  ____ __ ______    ______ _________
0                                  58362    7673.
                                   58363    7674.
                                   58364    7675.       Free an external page/set of pages using an external page
                                   58365    7676.         bitmap
                                   58366    7677.       Input  - @BMFREE
                                   58367    7678.
                                   58368    7679.       Output - @XFROK, RVR
                                   58369    7680.         IF @XFROK:
                                   58370    7681.           page successfully deallocated
                                   58371    7682.         IF ~@XFROK
                                   58372    7683.           page was not previously allocated
                                   58373    7684.
                                   58374    7685.

0006D10                            58376    7687.     BMFREE   PROC  @BMFREE                 Bitmap resource free
 006D10 C2D4C6D9C5C54040           58383             +
 006D18 0010/0000                  58384             +
 006D1C 900F D004/18AF       00004 58386             +
 USING  BMFREE,R10
 006D22 50D0 C000/18CD       00000 58401             +
 006D28 9680 C000      00000       58403             +
 USING  @BMFREE-72,R12
 006D2C 41D0 C058            00058 58417             +
 006D30 5880 C048            00000 58418    7688.              L     RM,@BMFCB               Addr to control block
 USING  DSDES,R8                   58419    7689.              WITH  (DSDES,RM)
 006D34                            58432    7690.              IF    (DSAID,NE,=CL4'BMCB'),'ABORT BADBMID'
 006D34 D503 A6CC 8000 073E8 00000 58443             +
 006D3A 4780 A052            06D6E 58444             +
 USING  PZERO,R0
 006D3E AC04 021B      0021B       58462  1          +
 006D42 9680 021A      0021A       58468  1          +
 006D46 50F0 021C            0021C 58469  1          +
 006D4A 58F0 0210            00210 58470  1          +
 006D4E 89F0 0010            00010 58471  1          +
 006D52 88F0 0010            00010 58472  1          +
 006D56 41F0 F000            00000 58473  1          +
 006D5A AEFF 0006            00006 58474  1          +
 006D5E C2C1C4C2D4C9C440           58475             +
 DROP   PZERO,R0
 006D6E 5820 C04C            00004 58488    7691.              L     RLOC,@BMFADD            Bit start address => byte
 006D72 5810 C050            00008 58489    7692.              L     RS,@BMFNUM              | check boundarys
 006D76 1A12                       58490    7693.              AR    RS,RLOC                 | |
 006D78 1222/4740 A11C       06E38 58491    7694.              IF    ((RLOC,NEG),OR,(RS,GT,DSCOUNT)),EXIT,BMFREE
 006D7E 5910 800C            0000C 58515             +
 006D82 4720 A11C            06E38 58518             +
 006D86 1862                       58524    7695.              LR    RX,RLOC                 |
 006D88 8820 0003            00003 58525    7696.              SRL   RLOC,3                  |
 006D8C 5830 8008            00008 58526    7697.              L     RLEN,DSLEN              | Remaining length
 006D90 1F32                       58527    7698.              SLR   RLEN,RLOC               | |
 006D92 5E20 8004            00004 58528    7699.              AL    RLOC,DSLOC              | Byte address
 006D96 5460 A6E4            07400 58529    7700.              N     RX,=A(X'00000007')      |  bit w/in byte
 006D9A 5850 C050            00008 58530    7701.              L     RWANT,@BMFNUM           Desired number of units
 006D9E                            58531    7702.              LOOP  BEGIN                   Allocate the bits from the map
 006D9E 1845                       58537  1 7703.                LR    RCNT,RWANT              | number for this pass
 006DA0 1E46                       58538  1 7704.                ALR   RCNT,RX                 | | including leading pad bits
1PAGESERV (PAGE00) (09:42) (22MAR04) Bitmap deallocation                                                                    Page  326
0Current Usings:  (DSDES,R8) (BMFREE,R10) (@BMFREE-72,R12)
0Loc    Object Code    Addr1 Addr2  Stmt Lv Lineno    Source Statement           (Hibal 5, Asmedit 3.3)  HLASM R4.0  2004/03/22 09.42
+___    ______ ____    _____ _____  ____ __ ______    ______ _________
0006DA2 5940 A6E8            07404 58539  1 7705.                CEIL  RCNT,32                 | |
 006DA6 47D0 A092            06DAE 58548  1          +
 006DAA 5840 A6E8            07404 58553  1          +
 006DAE 1F46                       58558  1 7706.                SLR   RCNT,RX                 | |
 006DB0 58F0 A6E0            073FC 58559  1 7707.                L     RMAP,=A(X'FFFFFFFF')    | ... Life time supply of 1s
 006DB4 1BEE                       58560  1 7708.                CLEAR RMAPL                   | Leading 0s
 006DB6 8DE0 4000            00000 58564  1 7709.                SLDL  RMAPL,@RCNT             | Mask 1s
 006DBA 1F54                       58565  1 7710.                SLR   RWANT,RCNT              | Ending 0s (# still to free)
 006DBC 1E46                       58566  1 7711.                ALR   RCNT,RX                 | |
 006DBE 1344                       58567  1 7712.                LCR   RCNT,RCNT               | |
 006DC0 4140 4020            00020 58568  1 7713.                LA    RCNT,@RCNT+32           | |
 006DC4 89E0 4000            00000 58569  1 7714.                SLL   RMAPL,@RCNT             | |
 006DC8 1863                       58570  1 7715.                LR    RX,RLEN                 Fix mask and load BM section
 006DCA 5960 A6D8            073F4 58571  1 7716.                CEIL  RX,4                    |
 006DCE 47D0 A0BA            06DD6 58580  1          +
 006DD2 5860 A6D8            073F4 58585  1          +
 006DD6 4316 A6DB            073F7 58590  1 7717.                IC    RS,=X'080C0E0F'-1(RX)   | ICM mask
 006DDA 4410 A72E            0744A 58591  1 7718.                EX    RS,'ICM RMAP,0,@RLOC '  Get map
 00744A BFF0 2000            00000 58599  1          +
 006DDE 187F                       58607  1 7719.                LR    RY,RMAP                 | save for check
 006DE0 16FE                       58608  1 7720.                OR    RMAP,RMAPL              DEALLOCATE BITS
 006DE2 147E                       58609  1 7721.                NR    RY,RMAPL                | check for already dealloc
 006DE4 4780 A0FC            06E18 58610  1 7722.                IF    NZ,BEGIN                ERROR! Bits previously free
 006DE8 AC04 021B      0021B       58621  2 7723.                  ABORT PAGBITFR                |
 USING  PZERO,R0
 006DEC 9680 021A      0021A       58639  2          +
 006DF0 50F0 021C            0021C 58640  2          +
 006DF4 58F0 0210            00210 58641  2          +
 006DF8 89F0 0010            00010 58642  2          +
 006DFC 88F0 0010            00010 58643  2          +
 006E00 41F0 F000            00000 58644  2          +
 006E04 AEFF 0006            00006 58645  2          +
 006E08 D7C1C7C2C9E3C6D9           58646  2          +
 DROP   PZERO,R0
 006E18                            58655  1 7724.                END   ,                       OF ERROR! Bits previously free
 006E18 4410 A732            0744E 58659  1 7725.                EX    RS,'STCM RMAP,0,@RLOC ' Put map back
 00744E BEF0 2000            00000 58667  1          +
 006E1C 1E26                       58675  1 7726.                ALR   RLOC,RX                 Address of next byte in map
 006E1E 1F36                       58676  1 7727.                SLR   RLEN,RX                 | and remaining length
 006E20 1B66                       58677  1 7728.                CLEAR (RX)                    | & no more leading pad bits
 006E22 1255/4770 A082       06D9E 58681    7729.              UNTIL (RWANT,ZERO),END
 006E28 5810 8010            00010 58703    7730.              L     RS,DSAVAIL              Add free blocks to available
 006E2C 5E10 C050            00008 58704    7731.              AL    RS,@BMFNUM              |
 006E30 5010 8010            00010 58705    7732.              ST    RS,DSAVAIL              |
 006E34 9680 C054      0000C       58706    7733.              SET   @BMFOK                  Free went ok
                                   58712    7734.
 006E38 981F C008            00008 58713    7735.              PEND
 DROP   DSDES,R8
 DROP   @BMFREE-72,R12
 DROP   BMFREE,R10
 006E3C 9680 C000/0B0E 00000       58733             +
1PAGESERV (PAGE00) (09:42) (22MAR04) Allocate a new ASN                                                                     Page  327
0Loc    Object Code    Addr1 Addr2  Stmt Lv Lineno    Source Statement           (Hibal 5, Asmedit 3.3)  HLASM R4.0  2004/03/22 09.42
+___    ______ ____    _____ _____  ____ __ ______    ______ _________
0                                  58740    7737.
                                   58741    7738.
                                   58742    7739.       Allocate a new ASN
                                   58743    7740.
                                   58744    7741.        Input - @ASNGET
                                   58745    7742.
                                   58746    7743.       Output - RVR is the new ASN, and the ASN 2nd table entry is
                                   58747    7744.                filled in
                                   58748    7745.                  For now, if there aren't enough ASNs, this routine
                                   58749    7746.                will ABORT.
                                   58750    7747.
                                   58751    7748.

0                                  58752    7749.     ASNAFTN  EQU   1024                    Number of first table entries
                                   58753    7750.     ASNAFTLG EQU   10                      | Log of number of entries
                                   58754    7751.     ASNASTN  EQU   64                      Number of 2nd table entries
                                   58755    7752.     ASNASTLG EQU   6                       | Log of number of entries
                                   58756    7753.     ASNAFT   EQU   L'AFTE*ASNAFTN          Length of ASN first table
                                   58757    7754.     ASNAST   EQU   L'ASTE*ASNASTN          Length of ASN second table
0000000                00000 00002 58759    7756.     #ASNGET  RECORD BEGIN
 000000                            58767  1 7757.     #AGPSWM    DS    X                       PSW mask for DAT
 000001                            58768  1 7758.     #AGLKPSWM   DS   X                       PSW mask for Spin Lock
 000002                00002 00002 58769    7759.              END   ,
0                                  58779    7761.              REGCH (RPAG,RX)
0006E42                            58781    7763.     ASNGET   PROC  @ASNGET,#ASNGET
 006E42 C1E2D5C7C5E34040           58788             +
 006E4A 0018/0008                  58789             +
 006E4E 900F D004/18AF       00004 58791             +
 USING  ASNGET,R10
 006E54 50D0 C000/18CD       00000 58806             +
 006E5A 9680 C000      00000       58808             +
 USING  @ASNGET-72,R12
 AUSING (#ASNGET,@ASNGET+24)
 006E5E 41D0 C068            00068 58827             +
 006E62 5860 0200            00200 58828    7764.              PAGAD RPAG
 USING  PZERO,R0
 DROP   PZERO,R0
 USING  MAT,R6
 006E66 5860 600C            0000C 58862             +
 DROP   MAT,R6
 USING  PAGCB,R6
 006E6A AC04 C061      00001       58884    7765.              SLKOB PAGASNL,#AGLKPSWM       Get lock and disable
 USING  @LOCKS-72,R13
 006E6E D203 D048 6188 00000 00188 58902             +
 006E74 58F0 602C/0DEF       0002C 58908             +
 006E7A 4840 61A4            001A4 58910    7766.              LH    RJ,PAG1ASN              Lowest possibly available ASN
 006E7E                            58911    7767.     NASLOOP  LOOP  BEGIN                   Allocation loop
 006E7E 1854                       58918  1 7768.                LR    RK,RJ                   |
 006E80 5450 A5BA            07408 58919  1 7769.                N     RK,=A(PAGAFXM)          ASN first table
 006E84 8850 0004            00004 58920  1 7770.                SRL   RK,L'PAGAFXM-AFTLOG     | index * 4
 006E88 5E50 61A0            001A0 58921  1 7771.                AL    RK,PAGAFTO              |
 USING  AFTE,R5                    58922  1 7772.                WITH  (AFTE,RK),BEGIN         |
1PAGESERV (PAGE00) (09:42) (22MAR04) Allocate a new ASN                                                                     Page  328
0Current Usings:  (AFTE,R5) (PAGCB,R6) (ASNGET,R10) (@ASNGET-72,R12) (@LOCKS-72,R13)
0Loc    Object Code    Addr1 Addr2  Stmt Lv Lineno    Source Statement           (Hibal 5, Asmedit 3.3)  HLASM R4.0  2004/03/22 09.42
+___    ______ ____    _____ _____  ____ __ ______    ______ _________
0006E8C 9180 5000      00000       58936  2 7773.     NASCHK       IF    AFTFINV,BEGIN           Need new 2nd tables
 006E90 47E0 A0DE            06F2C 58947  2          +
 006E94 9180 61AC      001AC       58952  3 7774.                    IF    PAGFASNL,BEGIN          ASN table being updated
 006E98 47E0 A08E            06EDC 58962  3          +
                                   58967  4 7775.
                                   58968  4 7776.                  Do wait if someone else is allocating a new 2nd table
                                   58969  4 7777.
 006E9C 5890 C058            00010 58970  4 7778.                      L     RN,@AGPCB
 USING  ASBPCB,R9                  58971  4 7779.                      WITH  (ASBPCB,RN)
 006EA0 4100 0001            00001 58984  4 7780.                      PMOV  PCBAMT,LA:1
 006EA4 5000 90A4            000A4 59000  4          +
 DROP   @LOCKS-72,R13              59001  4 7781.                      PAGWT PAGASNW,PAGASNL,LA:ASBPCB
 USING  @PAGWAIT-72,R13
 006EA8 D70B D048 D048 00000 00000 59022  4          +
 006EAE 4100 6194            00194 59034  4          +
 006EB2 5000 D048            00000 59039  4          +
 006EB6 D203 D04C 6188 00004 00188 59044  4          +
 006EBC 5090 D050            00008 59055  4          +
 006EC0 58F0 A59E/0DEF       073EC 59061  4          +
                                   59063  4 7782.
                                   59064  4 7783.                  Reset the pointers/counters after we have waited
                                   59065  4 7784.
 006EC6 4840 61A4            001A4 59066  4 7785.                      LH    RJ,PAG1ASN
 006ECA 1854                       59067  4 7786.                      LR    RK,RJ                   |
 006ECC 5450 A5BA            07408 59068  4 7787.                      N     RK,=A(PAGAFXM)          ASN first table
 006ED0 8850 0004            00004 59069  4 7788.                      SRL   RK,L'PAGAFXM-AFTLOG     | index * 4
 006ED4 5E50 61A0            001A0 59070  4 7789.                      AL    RK,PAGAFTO              |
 006ED8 47F0 A03E            06E8C 59071  4 7790.                      B     NASCHK                  and try again
 DROP   ASBPCB,R9                  59072  3 7791.                    END   ,                       OF ASN table being updated
                                   59081  3 7792.
                                   59082  3 7793.                We need to do the allocation of an ASN 2nd table
                                   59083  3 7794.
 006EDC 9680 61AC      001AC       59084  3 7795.                    SET   PAGFASNL                We're allocating another table
 DROP   @PAGWAIT-72,R13            59090  3 7796.                    SLKRL PAGASNL,#AGLKPSWM
 USING  @LOCKS-72,R13
 006EE0 D203 D048 6188 00000 00188 59110  3          +
 006EE6 58F0 6030/0DEF       00030 59116  3          +
 006EEC 8000 C061      00001       59118  3          +
 DROP   @LOCKS-72,R13              59119  3 7797.                    PSET  @PAGASTI                Allocate and init ASN 2nd tbl
 USING  @PAGASTI-72,R13
 006EF0 D703 D048 D048 00000 00000 59139  3          +
 006EF6 5050 D048            00000 59140  3 7798.                    PMOV  @ASI1ST,(RK)            |
 006EFA 58F0 A5BE/0DEF       0740C 59150  3 7799.                    ACALL PAGASTI                 |
 006F00 AC04 C061      00001       59157  3 7800.                    SLKOB PAGASNL,#AGLKPSWM
 DROP   @PAGASTI-72,R13
 USING  @LOCKS-72,R13
 006F04 D203 D048 6188 00000 00188 59178  3          +
 006F0A 58F0 602C/0DEF       0002C 59184  3          +
 006F10 947F 61AC      001AC       59186  3 7801.                    CLEAR PAGFASNL
                                   59193  3 7802.
 006F14 5810 A5C2            07410 59194  3 7803.                    L     RS,=A(PAGPAGEL/L'ASTE)  Add to total count
 006F18 1831                       59195  3 7804.                    LR    RB,RS                   | total number
 006F1A 4A30 61A6            001A6 59196  3 7805.                    AH    RB,PAGTASN              |
 006F1E 4030 61A6            001A6 59197  3 7806.                    STH   RB,PAGTASN              |
1PAGESERV (PAGE00) (09:42) (22MAR04) Allocate a new ASN                                                                     Page  329
0Current Usings:  (AFTE,R5) (PAGCB,R6) (ASNGET,R10) (@ASNGET-72,R12) (@LOCKS-72,R13)
0Loc    Object Code    Addr1 Addr2  Stmt Lv Lineno    Source Statement           (Hibal 5, Asmedit 3.3)  HLASM R4.0  2004/03/22 09.42
+___    ______ ____    _____ _____  ____ __ ______    ______ _________
0006F22 5A10 61A8            001A8 59198  3 7807.                    A     RS,PAGAVASN             | avail number
 006F26 5010 61A8            001A8 59199  3 7808.                    ST    RS,PAGAVASN             |
 006F2A 1830                       59200  3 7809.                    LR    RB,RVR                  | real addr
 006F2C A0E2           06F2C 06E92 59201  2 7810.                  END   ELSE,BEGIN              Table exists
 006F2C 47F0 A0E6            06F34 59210  2          +
 006F30 5830 5000            00000 59216  3 7811.                    L     RB,AFTASTO              Get real addr
 006F34                            59217  2 7812.                  END   ,                       |
 DROP   AFTE,R5                    59221  1 7813.                END   ,                       OF ASN first table
                                   59229  1 7814.
                                   59230  1 7815.            RS is the virtual address of the local work area during the
                                   59231  1 7816.            DATOFF/DATON switching of this loop.
                                   59232  1 7817.
 006F34 181C                       59233  1 7818.                LR    RS,WAR                  Go into DATOFF
 006F36 ACFB C060      00000       59234  1 7819.                DATOFF #AGPSWM                |
 006F3A B1C0 C000            00000 59236  1 7820.                LRA   WAR,0(,WAR)             |
                                   59237  1 7821.
 006F3E 1854                       59238  1 7822.                LR    RK,RJ                   ASN second table
 006F40 5450 A5C6            07414 59239  1 7823.                N     RK,=A(PAGASXM)          |
 006F44 8950 0004            00004 59240  1 7824.                SLL   RK,ASTLOG               | entry length of 16
 006F48 1E53                       59241  1 7825.                ALR   RK,RB                   |
 006F4A 4130 33F0            003F0 59242  1 7826.                LA    RB,@RB+ASNAST-L'ASTE    Limit reg
 006F4E 4120 0010            00010 59243  1 7827.                LA    RA,L'ASTE               | increment
 006F52                            59244  1 7828.     NAS2LOOP   LABEL ,                       Look through ASN 2nd table
 USING  ASTE,R5                    59246  1 7829.                WITH  (ASTE,RK),BEGIN         |
 006F52                            59260  2 7830.                  IF    (ASTATO,EQ,X'80000000'),EXIT,NASLOOP
 006F52 D503 A5CA 5000 07418 00000 59271  2          +
 006F58 4780 A158            06FA6 59274  2          +
 006F5C 5E40 A5CE            0741C 59280  2 7831.                  INCR  RJ                      | next ASN
 DROP   ASTE,R5                    59283  1 7832.                END   ,                       OF WITH ASTE
 006F60 8752 A104            06F52 59291  1 7833.                BXLE  RK,RA,NAS2LOOP          END OF Look through ASN 2nd
 006F64 5940 A5D2            07420 59292  1 7834.                IF    (RJ,GE,=A(ASNAFTN*ASNASTN)),BEGIN
 006F68 4750 A14E            06F9C 59303  1          +
 006F6C AC04 021B      0021B       59308  2 7835.                  ABORT PAGASN                  Not enough ASNs
 USING  PZERO,R0
 006F70 9680 021A      0021A       59326  2          +
 006F74 50F0 021C            0021C 59327  2          +
 006F78 58F0 0210            00210 59328  2          +
 006F7C 89F0 0010            00010 59329  2          +
 006F80 88F0 0010            00010 59330  2          +
 006F84 41F0 F000            00000 59331  2          +
 006F88 AEFF 0006            00006 59332  2          +
 006F8C D7C1C7C1E2D54040           59333  2          +
 DROP   PZERO,R0
 006F9C                            59342  1 7836.                END   ,
 006F9C 8000 C060      00000       59346  1 7837.                DATON #AGPSWM                 Back to DATON
 006FA0 18C1                       59348  1 7838.                LR    WAR,RS                  | local work area scratch
 006FA2 47F0 A030            06E7E 59349    7839.              END   ,                       OF Alloc loop - start again
                                   59354    7840.
                                   59355    7841.          Come here if we found a free ASN
                                   59356    7842.
 006FA6 8000 C060      00000       59357    7843.              DATON #AGPSWM                 Back to DAT-On
 006FAA 18C1                       59359    7844.              LR    WAR,RS                  |
 DROP   @LOCKS-72,R13              59360    7845.              RTOV  (RK)                    Get VA of second table entry
 USING  @PAGRV-72,R13
1PAGESERV (PAGE00) (09:42) (22MAR04) Allocate a new ASN                                                                     Page  330
0Current Usings:  (PAGCB,R6) (ASNGET,R10) (@ASNGET-72,R12) (@PAGRV-72,R13)
0Loc    Object Code    Addr1 Addr2  Stmt Lv Lineno    Source Statement           (Hibal 5, Asmedit 3.3)  HLASM R4.0  2004/03/22 09.42
+___    ______ ____    _____ _____  ____ __ ______    ______ _________
0006FAC D707 D048 D048 00000 00000 59382             +
 006FB2 5050 D048            00000 59392             +
 006FB6 58F0 A5D6/0DEF       07424 59398             +
 006FBC 1850                       59400    7846.              LR    RK,RVR                  |
 USING  ASTE,R5                    59401    7847.              WITH  (ASTE,RK),BEGIN         Put in new entry
 006FBE D20F 5000 C048 00000 00000 59415  1 7848.                MVC   ASTE,@AGSASTE
 DROP   ASTE,R5                    59416    7849.              END   ,                       OF Put in new entry
 006FC4 4040 61A4            001A4 59424    7850.              STH   RJ,PAG1ASN              This is the new ASN
                                   59425    7851.
                                   59426    7852.          Wake up those waiting (for when we allocate new tables)
                                   59427    7853.
 006FC8 5820 61A8/0620       001A8 59428    7854.              DECR  RA,PAGAVASN             One less entry available
 006FCE 5020 61A8            001A8 59432             +
 006FD2 5810 619C/1211       0019C 59433    7855.              IF    ('LT RS,PAGASNCNT',NZ),BEGIN     Notify any waiting
 006FD8 4780 A1A6            06FF4 59444             +
 006FDC 58F0 60C0            000C0 59449  1 7856.                SET   PAGFWASN,MODE=LOCKED,REF=PAGFWAIT
 006FE0 4110 0008            00008 59456  1          +
 006FE4 8910 0018/180F       00018 59457  1          +
 006FEA 1601/BAF0 60C0       000C0 59459  1          +
 006FF0 4770 A19A            06FE8 59462  1          +
 006FF4                            59463    7857.              END   ,                       OF Notify any waiting
 DROP   @PAGRV-72,R13              59467    7858.              LKREL PAGASNL                 Lock resource
 USING  @LOCKS-72,R13
 006FF4 D203 D048 6188 00000 00188 59486             +
 006FFA 58F0 6030/0DEF       00030 59492             +
 007000 8000 C061      00001       59494    7859.              SSM   #AGLKPSWM               Enable
 007004 1804                       59495    7860.              LR    RVR,RJ                  Return ASN
 007006 981F C008            00008 59496    7861.              PEND  ,
 DROP   PAGCB,R6
 DROP   @ASNGET-72,R12
 DROP   ASNGET,R10
 00700A 9680 C000/0B0E 00000       59516             +
 DROP   @LOCKS-72,R13
1PAGESERV (PAGE00) (09:42) (22MAR04) Release an ASN                                                                         Page  331
0Loc    Object Code    Addr1 Addr2  Stmt Lv Lineno    Source Statement           (Hibal 5, Asmedit 3.3)  HLASM R4.0  2004/03/22 09.42
+___    ______ ____    _____ _____  ____ __ ______    ______ _________
0                                  59526    7863.
                                   59527    7864.
                                   59528    7865.       Release an ASN
                                   59529    7866.
                                   59530    7867.        Input - @ASNFREE
                                   59531    7868.
                                   59532    7869.       Output - None
                                   59533    7870.
                                   59534    7871.

0000000                00000 00002 59535    7872.     @ASNFREE RECORD BEGIN
 000000                            59543  1 7873.     @ASNFASN   DS    H                       ASN number to free
 000002                00002 00002 59544    7874.              END   ,
0007010                            59554    7876.     ASNFREE  PROC  @ASNFREE,#LCLLOCK
 007010 C1E2D5C6D9C5C540           59561             +
 007018 0008/0008                  59562             +
 00701C 900F D004/18AF       00004 59564             +
 USING  ASNFREE,R10
 007022 50D0 C000/18CD       00000 59579             +
 007028 9680 C000      00000       59581             +
 USING  @ASNFREE-72,R12
 AUSING (#LCLLOCK,@ASNFREE+8)
 00702C 41D0 C058            00058 59600             +
 007030 5860 0200            00200 59601    7877.              PAGAD RPAG
 USING  PZERO,R0
 DROP   PZERO,R0
 USING  MAT,R6
 007034 5860 600C            0000C 59635             +
 DROP   MAT,R6
 USING  PAGCB,R6
 007038 AC04 C050      00000       59657    7878.              SLKOB PAGASNL,#LCLPSWM
 USING  @LOCKS-72,R13
 00703C D203 D048 6188 00000 00188 59675             +
 007042 58F0 602C/0DEF       0002C 59681             +
 007048 4830 C048            00000 59683    7879.              LH    RB,@ASNFASN             Index to ASN 1st table
 00704C 5430 A3EC            07408 59684    7880.              N     RB,=A(PAGAFXM)          |
 007050 8830 0004            00004 59685    7881.              SRL   RB,L'PAGAFXM-AFTLOG     |
 007054 5E30 61A0            001A0 59686    7882.              AL    RB,PAGAFTO              |
 USING  AFTE,R3                    59687    7883.              WITH  (AFTE,RB),BEGIN         |
 007058 9180 3000      00000       59701  1 7884.                IF    AFTFINV,'ABORT ASNFRE1ST'
 00705C 47E0 A074            07090 59711  1          +
 USING  PZERO,R0
 007060 AC04 021B      0021B       59729  2          +
 007064 9680 021A      0021A       59735  2          +
 007068 50F0 021C            0021C 59736  2          +
 00706C 58F0 0210            00210 59737  2          +
 007070 89F0 0010            00010 59738  2          +
 007074 88F0 0010            00010 59739  2          +
 007078 41F0 F000            00000 59740  2          +
 00707C AEFF 0006            00006 59741  2          +
 007080 C1E2D5C6D9C5F1E2           59742  1          +
 DROP   PZERO,R0
 007090 5820 3000            00000 59755  1 7885.                L     RA,AFTASTO
 007094 5420 A40C            07428 59756  1 7886.                N     RA,=A(AFTASTM)
1PAGESERV (PAGE00) (09:42) (22MAR04) Release an ASN                                                                         Page  332
0Current Usings:  (PAGCB,R6) (ASNFREE,R10) (@ASNFREE-72,R12) (@LOCKS-72,R13)
0Loc    Object Code    Addr1 Addr2  Stmt Lv Lineno    Source Statement           (Hibal 5, Asmedit 3.3)  HLASM R4.0  2004/03/22 09.42
+___    ______ ____    _____ _____  ____ __ ______    ______ _________
0DROP   AFTE,R3                    59757    7887.              END   ,                       OF Index to ASN 1st table
 DROP   @LOCKS-72,R13              59765    7888.              RTOV  (RA)                    Index to ASN 2nd table
 USING  @PAGRV-72,R13
 007098 D707 D048 D048 00000 00000 59787             +
 00709E 5020 D048            00000 59797             +
 0070A2 58F0 A408/0DEF       07424 59803             +
 0070A8 1820                       59805    7889.              LR    RA,RVR                  |
 0070AA 4830 C048            00000 59806    7890.              LH    RB,@ASNFASN
 0070AE 5430 A3F8            07414 59807    7891.              N     RB,=A(PAGASXM)          |
 0070B2 8930 0004            00004 59808    7892.              SLL   RB,ASTLOG               |
 0070B6 1E23                       59809    7893.              ALR   RA,RB                   |
 USING  ASTE,R2                    59810    7894.              WITH  (ASTE,RA),BEGIN         |
 0070B8                            59824  1 7895.                IF    (ASTATO,EQ,X'80000000'),'ABORT ASNFRE2ND'
 0070B8 D503 A3FC 2000 07418 00000 59835  1          +
 0070BE 4770 A0D6            070F2 59836  1          +
 USING  PZERO,R0
 0070C2 AC04 021B      0021B       59854  2          +
 0070C6 9680 021A      0021A       59860  2          +
 0070CA 50F0 021C            0021C 59861  2          +
 0070CE 58F0 0210            00210 59862  2          +
 0070D2 89F0 0010            00010 59863  2          +
 0070D6 88F0 0010            00010 59864  2          +
 0070DA 41F0 F000            00000 59865  2          +
 0070DE AEFF 0006            00006 59866  2          +
 0070E2 C1E2D5C6D9C5F2D5           59867  1          +
 DROP   PZERO,R0
 0070F2 D203 2000 A3FC 00000 07418 59880  1 7896.                MVC   ASTATO,=X'80000000'
 DROP   ASTE,R2                    59881    7897.              END   ,                       OF Index to ASN 2nd table
                                   59889    7898.
                                   59890    7899.          Set 1st ASN
                                   59891    7900.
 0070F8 4820 C048            00000 59892    7901.              LH    RA,@ASNFASN             Set first possible avail ASN
 0070FC 4830 61A4            001A4 59893    7902.              LH    RB,PAG1ASN
 007100 1923/47B0 A0EC       07108 59894    7903.              STMIN RA,RB
 007106 1832                       59900             +
 007108 4030 61A4            001A4 59901    7904.              STH   RB,PAG1ASN
                                   59902    7905.
                                   59903    7906.          Wake up those waiting
                                   59904    7907.
 00710C 4120 0001            00001 59905    7908.              INCR  RA,PAGAVASN             One less entry available
 007110 5E20 61A8            001A8 59909             +
 007114 5020 61A8            001A8 59910             +
 007118 5810 619C/1211       0019C 59911    7909.              IF    ('LT RS,PAGASNCNT',NZ),BEGIN     Notify any waiting
 00711E 4780 A11E            0713A 59922             +
 007122 58F0 60C0            000C0 59927  1 7910.                SET   PAGFWASN,MODE=LOCKED,REF=PAGFWAIT
 007126 4110 0008            00008 59934  1          +
 00712A 8910 0018/180F       00018 59935  1          +
 007130 1601/BAF0 60C0       000C0 59937  1          +
 007136 4770 A112            0712E 59940  1          +
 00713A                            59941    7911.              END   ,                       OF Notify any waiting
 DROP   @PAGRV-72,R13              59945    7912.              LKREL PAGASNL                 Lock resource
 USING  @LOCKS-72,R13
 00713A D203 D048 6188 00000 00188 59964             +
 007140 58F0 6030/0DEF       00030 59970             +
1PAGESERV (PAGE00) (09:42) (22MAR04) Release an ASN                                                                         Page  333
0Current Usings:  (PAGCB,R6) (ASNFREE,R10) (@ASNFREE-72,R12) (@LOCKS-72,R13)
0Loc    Object Code    Addr1 Addr2  Stmt Lv Lineno    Source Statement           (Hibal 5, Asmedit 3.3)  HLASM R4.0  2004/03/22 09.42
+___    ______ ____    _____ _____  ____ __ ______    ______ _________
0007146 8000 C050      00000       59972    7913.              SSM   #LCLPSWM                Enable
                                   59973    7914.
 00714A 981F C008            00008 59974    7915.              PEND  ,
 DROP   PAGCB,R6
 DROP   @ASNFREE-72,R12
 DROP   ASNFREE,R10
 00714E 9680 C000/0B0E 00000       59994             +
 DROP   @LOCKS-72,R13
1PAGESERV (PAGE00) (09:42) (22MAR04) Cell Allocation                                                                        Page  334
0Loc    Object Code    Addr1 Addr2  Stmt Lv Lineno    Source Statement           (Hibal 5, Asmedit 3.3)  HLASM R4.0  2004/03/22 09.42
+___    ______ ____    _____ _____  ____ __ ______    ______ _________
0                                  60004    7917.
                                   60005    7918.
                                   60006    7919.
                                   60007    7920.       Cell allocation
                                   60008    7921.
                                   60009    7922.        Input - @CELLGET
                                   60010    7923.
                                   60011    7924.       Output - RVR contains the address of the cell
                                   60012    7925.                  For immediate return calls, if RVR = 0, the request
                                   60013    7926.                could not be satisfied
                                   60014    7927.
                                   60015    7928.

0007154                            60016    7929.     CELLGET  PROC  @CELLGET,#LCLLOCK
 007154 C3C5D3D3C7C5E340           60023             +
 00715C 0010/0008                  60024             +
 007160 900F D004/18AF       00004 60026             +
 USING  CELLGET,R10
 007166 50D0 C000/18CD       00000 60041             +
 00716C 9680 C000      00000       60043             +
 USING  @CELLGET-72,R12
 AUSING (#LCLLOCK,@CELLGET+16)
 007170 41D0 C060            00060 60062             +
 007174 5860 0200            00200 60063    7930.              PAGAD RPAG
 USING  PZERO,R0
 DROP   PZERO,R0
 USING  MAT,R6
 007178 5860 600C            0000C 60097             +
 DROP   MAT,R6
 USING  PAGCB,R6
                                   60119    7931.
 USING  PZERO,R0                   60120    7932.              USING PZERO,R0                Get AS control block addr
 00717C 5870 0208            00208 60129    7933.              L     RPCB,PZCURASB           |
 DROP   PZERO,R0                   60130    7934.              DROP  R0                      |
 007180 5870 7020            00020 60138    7935.              WITH  (ASB,RPCB),'L RPCB,ASBPAGB'
 USING  ASB,R7
 DROP   ASB,R7
 USING  ASBPCB,R7                  60162    7936.              WITH  (ASBPCB,RPCB)           |
 007184 5880 C048            00000 60175    7937.              L     RM,@CGTYP               | Specific cell w/ in cb
 USING  PAGCEL,R8                  60176    7938.              WITH  (PAGCEL,RM)             |
 007188 5850 C04C            00004 60189    7939.              L     RK,@CGAMT               Number of cells wanted
 00718C AC04 C058      00000       60190    7940.              SLKOB PAGCELLK,#LCLPSWM       Get lock
 USING  @LOCKS-72,R13
 007190 D203 D048 6138 00000 00138 60208             +
 007196 58F0 602C/0DEF       0002C 60214             +
 00719C 5950 8004            00004 60216    7941.              IF    (PAGCELAMT,LT,RK),BEGIN None available
 0071A0 47D0 A05A            071BA 60228             +
 0071A4                            60233  1 7942.                SLKRL PAGCELLK,#LCLPSWM
 0071A4 D203 D048 6138 00000 00138 60243  1          +
 0071AA 58F0 6030/0DEF       00030 60249  1          +
 0071B0 8000 C058      00000       60251  1          +
 0071B4 1B00                       60252  1 7943.                CLEAR RVR                     | none available
 0071B6 47F0 A08E            071EE 60256  1 7944.                EXIT  CELLGET                 |
 0071BA                            60259    7945.              END   ,                       OF None available
 0071BA 1325                       60263    7946.              LCR   RA,RK                   Subtract used cells
1PAGESERV (PAGE00) (09:42) (22MAR04) Cell Allocation                                                                        Page  335
0Current Usings:  (PAGCB,R6) (ASBPCB,R7) (PAGCEL,R8) (CELLGET,R10) (@CELLGET-72,R12) (@LOCKS-72,R13)
0Loc    Object Code    Addr1 Addr2  Stmt Lv Lineno    Source Statement           (Hibal 5, Asmedit 3.3)  HLASM R4.0  2004/03/22 09.42
+___    ______ ____    _____ _____  ____ __ ______    ______ _________
00071BC 5E20 8004            00004 60264    7947.              AL    RA,PAGCELAMT            |
 0071C0 5020 8004            00004 60265    7948.              ST    RA,PAGCELAMT            |
                                   60266    7949.
 0071C4 5820 8000            00000 60267    7950.              L     RA,PAGCELHD             Get cells
 0071C8 1832                       60268    7951.              LR    RB,RA                   | first cell
 0071CA                            60269    7952.              LOOP  BEGIN                   |
 USING  PSCPFX,R3                  60275  1 7953.                WITH  (PSCPFX,RB)             |
 0071CA 1843                       60288  1 7954.                LR    RJ,RB                   | last
 0071CC 5830 3000            00000 60289  1 7955.                L     RB,PSCFP                | next
 0071D0 4650 A06A            071CA 60290    7956.              UNTIL (BCT,RK),END            OF Get cells
 DROP   PSCPFX,R3
 0071D4 5030 8000            00000 60305    7957.              ST    RB,PAGCELHD             | point to next cell
 0071D8                            60306    7958.              SLKRL PAGCELLK,#LCLPSWM
 0071D8 D203 D048 6138 00000 00138 60316             +
 0071DE 58F0 6030/0DEF       00030 60322             +
 0071E4 8000 C058      00000       60324             +
 0071E8 5040 C050            00008 60325    7959.              ST    RJ,@CGLAST              Last cell allocated
 0071EC 1802                       60326    7960.              LR    RVR,RA                  Return addr of cell
 0071EE 981F C008            00008 60327    7961.              PEND  ,
 DROP   PAGCEL,R8
 DROP   ASBPCB,R7
 DROP   PAGCB,R6
 DROP   @CELLGET-72,R12
 DROP   CELLGET,R10
 0071F2 9680 C000/0B0E 00000       60357             +
 DROP   @LOCKS-72,R13
1PAGESERV (PAGE00) (09:42) (22MAR04) Cell Release                                                                           Page  336
0Loc    Object Code    Addr1 Addr2  Stmt Lv Lineno    Source Statement           (Hibal 5, Asmedit 3.3)  HLASM R4.0  2004/03/22 09.42
+___    ______ ____    _____ _____  ____ __ ______    ______ _________
0                                  60367    7963.
                                   60368    7964.
                                   60369    7965.
                                   60370    7966.       Cell release
                                   60371    7967.
                                   60372    7968.        Input - @CELLFREE
                                   60373    7969.
                                   60374    7970.       Output - NONE
                                   60375    7971.
                                   60376    7972.

00071F8                            60378    7974.     CELLFREE PROC  @CELLFREE,#LCLLOCK
 0071F8 C3C5D3D3C6D9C5C5           60385             +
 007200 0010/0008                  60386             +
 007204 900F D004/18AF       00004 60388             +
 USING  CELLFREE,R10
 00720A 50D0 C000/18CD       00000 60403             +
 007210 9680 C000      00000       60405             +
 USING  @CELLFREE-72,R12
 AUSING (#LCLLOCK,@CELLFREE+16)
 007214 41D0 C060            00060 60424             +
 007218 5860 0200            00200 60425    7975.              PAGAD RPAG
 USING  PZERO,R0
 DROP   PZERO,R0
 USING  MAT,R6
 00721C 5860 600C            0000C 60459             +
 DROP   MAT,R6
 USING  PAGCB,R6
                                   60481    7976.
 007220 5870 C048            00000 60482    7977.              L     RY,@CFTYP               |
 USING  PAGCEL,R7                  60483    7978.              WITH  (PAGCEL,RY)
 007224 AC04 C058      00000       60496    7979.              SLKOB PAGCELLK,#LCLPSWM       Get lock
 USING  @LOCKS-72,R13
 007228 D203 D048 6138 00000 00138 60514             +
 00722E 58F0 602C/0DEF       0002C 60520             +
 007234 5820 7004            00004 60522    7980.              L     RA,PAGCELAMT            Increment counts
 007238 5E20 C054            0000C 60523    7981.              AL    RA,@CFAMT               |
 00723C 5020 7004            00004 60524    7982.              ST    RA,PAGCELAMT            |
 007240 5830 C050            00008 60525    7983.              L     RB,@CFLAST              Last being added
 USING  PSCPFX,R3                  60526    7984.              WITH  (PSCPFX,RB),BEGIN       | point to old first
 007244 D203 3000 7000 00000 00000 60540  1 7985.                MVC   PSCFP,PAGCELHD          |
 DROP   PSCPFX,R3                  60541    7986.              END   ,
 00724A D203 7000 C04C 00000 00004 60549    7987.              MVC   PAGCELHD,@CFLOC         First being added
 007250 5810 7014/1211       00014 60550    7988.              IF    ('LT RS,PAGCELCNT',NZ),BEGIN    Notify any waiting
 007256 4780 A06C            07270 60561             +
 00725A 1B88                       60566  1 7989.                CLEAR RM
 00725C BF88 701E            0001E 60570  1 7990.                ICM   RM,X'08',PAGCELBIT      Mask for wait flags
 007260 5840 60C0            000C0 60571  1 7991.                L     RJ,PAGFWAIT
 007264                            60572  1 7992.                LOOP  BEGIN
 007264 1854                       60578  2 7993.                  LR    RK,RJ
 007266 1658                       60579  2 7994.                  OR    RK,RM
 007268 BA45 60C0            000C0 60580  2 7995.                  CS    RJ,RK,PAGFWAIT
 00726C 4770 A060            07264 60581  1 7996.                UNTIL EQUAL,END
                                   60600  1 7997.     *        SET   PAGFWIOP,MODE=LOCKED,REF=PAGFWAIT
 007270                            60601    7998.              END   ,                       OF Notify any waiting
1PAGESERV (PAGE00) (09:42) (22MAR04) Cell Release                                                                           Page  337
0Current Usings:  (PAGCB,R6) (PAGCEL,R7) (CELLFREE,R10) (@CELLFREE-72,R12) (@LOCKS-72,R13)
0Loc    Object Code    Addr1 Addr2  Stmt Lv Lineno    Source Statement           (Hibal 5, Asmedit 3.3)  HLASM R4.0  2004/03/22 09.42
+___    ______ ____    _____ _____  ____ __ ______    ______ _________
0007270                            60605    7999.              LKREL PAGCELLK
 007270 D203 D048 6138 00000 00138 60614             +
 007276 58F0 6030/0DEF       00030 60620             +
 00727C 8000 C058      00000       60622    8000.              SSM   #LCLPSWM
 007280 981F C008            00008 60623    8001.              PEND  ,
 DROP   PAGCEL,R7
 DROP   PAGCB,R6
 DROP   @CELLFREE-72,R12
 DROP   CELLFREE,R10
 007284 9680 C000/0B0E 00000       60648             +
 DROP   @LOCKS-72,R13
1PAGESERV (PAGE00) (09:42) (22MAR04) Swap cell allocation                                                                   Page  338
0Loc    Object Code    Addr1 Addr2  Stmt Lv Lineno    Source Statement           (Hibal 5, Asmedit 3.3)  HLASM R4.0  2004/03/22 09.42
+___    ______ ____    _____ _____  ____ __ ______    ______ _________
0                                  60658    8003.
                                   60659    8004.
                                   60660    8005.       Allocate and add new swap cells to pool of I/O cells
                                   60661    8006.
                                   60662    8007.        Input - None
                                   60663    8008.
                                   60664    8009.       Output - None
                                   60665    8010.
                                   60666    8011.

0000000                00000 00009 60667    8012.     #CELLALL RECORD BEGIN
 000000                            60675  1 8013.     #CAFIRST   DS    A                       First allocated cell
 000004                            60676  1 8014.     #CALAST    DS    A                       Last allocated cell
 000008                            60677  1 8015.     #CAPSWM    DS    X                       PSW mask for disabled code
 000009                00009 00009 60678    8016.              END   ,
000728A                            60688    8018.     CELLALL  PROC  ,#CELLALL
 00728A C3C5D3D3C1D3D340           60695             +
 007292 0000/0010                  60696             +
 007296 900F D004/18AF       00004 60698             +
 USING  CELLALL,R10
 00729C 50D0 C000/18CD       00000 60713             +
 0072A2 9680 C000      00000       60715             +
 USING  #CELLALL-72,R12
 0072A6 41D0 C058            00058 60729             +
 0072AA 5860 0200            00200 60730    8019.              PAGAD RPAG
 USING  PZERO,R0
 DROP   PZERO,R0
 USING  MAT,R6
 0072AE 5860 600C            0000C 60764             +
 DROP   MAT,R6
 USING  PAGCB,R6
 AUSING (PAGCEL,PAGSWCEL)          60786    8020.              WITH  (PAGCEL,PAGSWCEL)       Swap cell
                                   60793    8021.
                                   60794    8022.          Allocate extra cells for this AS, using extra ones if there
                                   60795    8023.
                                   60796    8024.          Number of cells needed
                                   60797    8025.
 0072B2 4820 6180            00180 60798    8026.              LH    RA,PAGSWXN              Average size/number per cell
 0072B6 4850 6182            00182 60799    8027.              LH    RK,PAGSWAVG             |
 0072BA 1E52                       60800    8028.              ALR   RK,RA                   |
 0072BC 0650                       60801    8029.              DECR  RK                      |
 0072BE 1B44                       60803    8030.              CLEAR RJ                      |
 0072C0 1D42                       60807    8031.              DR    RJ,RA                   |
                                   60808    8032.
 0072C2 5810 6174            00018 60809    8033.              L     RS,PAGCELXTR
 0072C6                            60810    8034.              LOOP  BEGIN                   One less cell
 0072C6 1821                       60816  1 8035.                LR    RA,RS
 0072C8 1F25                       60817  1 8036.                SLR   RA,RK
 0072CA BA12 6174            00018 60818  1 8037.                CS    RS,RA,PAGCELXTR
 0072CE 4770 A030            072C6 60819    8038.              UNTIL EQUAL,END               OF One less cell
                                   60838    8039.     *   Need to allocate more cells
 0072D2 1222/4720 A0F0       07386 60839    8040.              WHILE (RA,NPOS),BEGIN         Need more cells
 0072D8 5850 A196            0742C 60855  1 8041.                L     RK,=A(4096)             Get another page
 USING  @VMGET-72,R13              60856  1 8042.                VMGET (RK),LOC=GLOBHI,FIX=YES,PAGE=YES
1PAGESERV (PAGE00) (09:42) (22MAR04) Swap cell allocation                                                                   Page  339
0Current Usings:  (PAGCB,R6) (CELLALL,R10) (#CELLALL-72,R12) (@VMGET-72,R13)
0Loc    Object Code    Addr1 Addr2  Stmt Lv Lineno    Source Statement           (Hibal 5, Asmedit 3.3)  HLASM R4.0  2004/03/22 09.42
+___    ______ ____    _____ _____  ____ __ ______    ______ _________
00072DC D70A D048 D048 00000 00000 60880  1          +
 0072E2 5050 D048            00000 60890  1          +
 0072E6 D201 D050 A1A2 00008 07438 60891  1          +
 0072EC 9680 D052      0000A       60897  1          +
 0072F0 58F0 A19A/0DEF       07430 60900  1          +
 0072F6 1820                       60902  1 8043.                LR    RA,RVR                  Starting address
 0072F8 1835                       60903  1 8044.                LR    RB,RK                   Clear memory
                                   60904  1 8045.                REGCH (RS,R1),(RVR,R0)        |
 0072FA 1B11                       60905  1 8046.                CLEAR RS                      |
 0072FC 0E20                       60909  1 8047.                MVCL  RA,RVR                  |
 0072FE 1820                       60910  1 8048.                LR    RA,RVR                  Start add - not changed in RVR
 007300 4810 6178            0001C 60911  1 8049.                LH    RS,PAGCELLEN            Length of control block
 007304 1B44                       60912  1 8050.                CLEAR (RJ)                    | Number of cells/page
 007306 1D41                       60916  1 8051.                DR    RJ,RS                   |
                                   60917  1 8052.
                                   60918  1 8053.            Link all I/O cells for this device type
                                   60919  1 8054.             RVR,RA = addr of first cell on page, RK = number of cells on page
                                   60920  1 8055.
 007308 5020 C04C            00004 60921  1 8056.                ST    RA,#CALAST
 00730C 1835                       60922  1 8057.                LR    RB,RK                   Number of cells in page
 00730E                            60923  1 8058.                LOOP  BEGIN                   Link together cells on a page
 USING  PSCPFX,R2                  60929  2 8059.                  WITH  (PSCPFX,RA)
 00730E                            60942  2 8060.                  PMOV  PSCFP,#CAFIRST          Point to old head
 00730E D203 2000 C048 00000 00000 60946  2          +
 007314 5020 C048            00000 60947  2 8061.                  PMOV  #CAFIRST,LA:PSCPFX      |
 007318                            60958  2 8062.                  PMOV  PSCID,PAGCELID          | set ID
 007318 D203 2008 6164 00008 00008 60962  2          +
 00731E 9200 D048      00000       60963  2 8063.                  PSET  @IOSIDGET               Save I/O id in this cell
 DROP   @VMGET-72,R13
 USING  @IOSIDGET-72,R13
 007322 9680 D048      00000       60984  2 8064.                  SET   @IOSFWAIT               |
 007326 58F0 A19E/0DEF       07434 60990  2 8065.                  VCALL IOSIDGET                |
 00732C 5000 200C            0000C 60994  2 8066.                  ST    RVR,PSCIO               |
 007330 4A20 6178            0001C 60995  2 8067.                  AH    RA,PAGCELLEN            Next cell in page
 007334 4630 A078            0730E 60996  1 8068.                UNTIL (BCT,RB),END            OF Link together cells on page
 DROP   PSCPFX,R2
 007338 AC04 C050      00008       61011  1 8069.                SLKOB PAGCELLK,#CAPSWM
 DROP   @IOSIDGET-72,R13
 USING  @LOCKS-72,R13
 00733C D203 D048 6138 00000 00138 61032  1          +
 007342 58F0 602C/0DEF       0002C 61038  1          +
 007348 18F5                       61040  1 8070.                LR    EPAR,RK                 Add cells (RK = num)
 00734A 5EF0 6160            00004 61041  1 8071.                AL    EPAR,PAGCELAMT          |
 00734E 50F0 6160            00004 61042  1 8072.                ST    EPAR,PAGCELAMT          |
 007352 5820 C04C            00004 61043  1 8073.                L     RA,#CALAST
 USING  PSCPFX,R2                  61044  1 8074.                WITH  (PSCPFX,RA),BEGIN       Link in new cells
 007356 D203 2000 615C 00000 00000 61058  2 8075.                  MVC   PSCFP,PAGCELHD          Last points to old head
 DROP   PSCPFX,R2                  61059  1 8076.                END   ,
 00735C D203 615C C048 00000 00000 61067  1 8077.                MVC   PAGCELHD,#CAFIRST       Head points to new first
 007362                            61068  1 8078.                SLKRL PAGCELLK,#CAPSWM
 007362 D203 D048 6138 00000 00138 61078  1          +
 007368 58F0 6030/0DEF       00030 61084  1          +
 00736E 8000 C050      00008       61086  1          +
 007372 5810 6174            00018 61087  1 8079.                L     RS,PAGCELXTR
1PAGESERV (PAGE00) (09:42) (22MAR04) Swap cell allocation                                                                   Page  340
0Current Usings:  (PAGCB,R6) (CELLALL,R10) (#CELLALL-72,R12) (@LOCKS-72,R13)
0Loc    Object Code    Addr1 Addr2  Stmt Lv Lineno    Source Statement           (Hibal 5, Asmedit 3.3)  HLASM R4.0  2004/03/22 09.42
+___    ______ ____    _____ _____  ____ __ ______    ______ _________
0007376                            61088  1 8080.                LOOP  BEGIN                   Update number of cells
 007376 1821                       61094  2 8081.                  LR    RA,RS
 007378 1E25                       61095  2 8082.                  ALR   RA,RK                   Number of extra cells now
 00737A BA12 6174            00018 61096  2 8083.                  CS    RS,RA,PAGCELXTR
 00737E 4770 A0E0            07376 61097  1 8084.                UNTIL EQUAL,END               OF Update number of cells
 007382 47F0 A03C            072D2 61116    8085.              END   ,                       OF Need more cells
 007386 981F C008            00008 61121    8086.              PEND  ,
 DROP   PAGCB,R6
 DROP   #CELLALL-72,R12
 DROP   CELLALL,R10
 00738A 9680 C000/0B0E 00000       61141             +
 DROP   @LOCKS-72,R13
1PAGESERV (PAGE00) (09:42) (22MAR04) Swap cell deallocation                                                                 Page  341
0Loc    Object Code    Addr1 Addr2  Stmt Lv Lineno    Source Statement           (Hibal 5, Asmedit 3.3)  HLASM R4.0  2004/03/22 09.42
+___    ______ ____    _____ _____  ____ __ ______    ______ _________
0                                  61151    8088.
                                   61152    8089.
                                   61153    8090.       Deallocate a swap cell - make it available
                                   61154    8091.
                                   61155    8092.        Input - None
                                   61156    8093.
                                   61157    8094.       Output - None
                                   61158    8095.
                                   61159    8096.

0007390                            61160    8097.     CELLDALL PROC  ,
 007390 C3C5D3D3C4C1D3D3           61167             +
 007398 0000/0000                  61168             +
 00739C 900F D004/18AF       00004 61170             +
 USING  CELLDALL,R10
 0073A2 50D0 C000/18CD       00000 61185             +
 0073A8 9680 C000      00000       61187             +
 0073AC 41D0 C048            00048 61188             +
 0073B0 5860 0200            00200 61189    8098.              PAGAD RPAG
 USING  PZERO,R0
 DROP   PZERO,R0
 USING  MAT,R6
 0073B4 5860 600C            0000C 61223             +
 DROP   MAT,R6
 USING  PAGCB,R6
 AUSING (PAGCEL,PAGSWCEL)          61245    8099.              WITH  (PAGCEL,PAGSWCEL)
                                   61252    8100.
                                   61253    8101.          Mark cells as available to a class of I/O cells
                                   61254    8102.
 0073B8 5810 6174            00018 61255    8103.              L     RS,PAGCELXTR
                                   61256    8104.
                                   61257    8105.          Number of cells to free
                                   61258    8106.
 0073BC 4820 6180            00180 61259    8107.              LH    RA,PAGSWXN              Average size/number per cell
 0073C0 4850 6182            00182 61260    8108.              LH    RK,PAGSWAVG             |
 0073C4 1E52                       61261    8109.              ALR   RK,RA                   |
 0073C6 0650                       61262    8110.              DECR  RK                      |
 0073C8 1B44                       61264    8111.              CLEAR RJ                      |
 0073CA 1D42                       61268    8112.              DR    RJ,RA                   |
 0073CC                            61269    8113.              LOOP  BEGIN                   Increment free cell count
 0073CC 1821                       61275  1 8114.                LR    RA,RS
 0073CE 1E25                       61276  1 8115.                ALR   RA,RK
 0073D0 BA12 6174            00018 61277  1 8116.                CS    RS,RA,PAGCELXTR
 0073D4 4770 A030            073CC 61278    8117.              UNTIL EQUAL,END               OF Increment free cell count
 0073D8 981F C008            00008 61297    8118.              PEND  ,
 DROP   PAGCB,R6
 DROP   CELLDALL,R10
 0073DC 9680 C000/0B0E 00000       61312             +
                                   61318    8119.              AGO   .NOASSTD
                                   61319    8161.     .NOASSTD ANOP  ,
1PAGESERV (PAGE00) (09:42) (22MAR04) MP-ORVYL Real Memory / Paging Manager Services                                         Page  342
0Loc    Object Code    Addr1 Addr2  Stmt Lv Lineno    Source Statement           (Hibal 5, Asmedit 3.3)  HLASM R4.0  2004/03/22 09.42
+___    ______ ____    _____ _____  ____ __ ______    ______ _________
00073E8                            61321    8163.              LTORG ,
 0073E8 C2D4C3C2                   61323                             =CL4'BMCB'
 0073EC 0000745E                   61324                             =A(PAGWAIT)
 0073F0 00006A16                   61325                             =A(BLKDSID)
 0073F4 00000004                   61326                             =A(4)
 0073F8 080C0E0F                   61327                             =X'080C0E0F'
 0073FC FFFFFFFF                   61328                             =A(X'FFFFFFFF')
 007400 00000007                   61329                             =A(X'00000007')
 007404 00000020                   61330                             =A(32)
 007408 0000FFC0                   61331                             =A(PAGAFXM)
 00740C 000079EA                   61332                             =A(PAGASTI)
 007410 00000100                   61333                             =A(PAGPAGEL/L'ASTE)
 007414 0000003F                   61334                             =A(PAGASXM)
 007418 80000000                   61335                             =X'80000000'
 00741C 00000001                   61336                             =A(1)
 007420 00010000                   61337                             =A(ASNAFTN*ASNASTN)
 007424 0000078C                   61338                             =A(PAGRV)
 007428 7FFFFFF0                   61339                             =A(AFTASTM)
 00742C 00001000                   61340                             =A(4096)
 007430 00000000                   61341                             =V(VMGET)
 007434 00000000                   61342                             =V(IOSIDGET)
 007438 3F00           07452 0A6E0 61343                             =Y(63*256+0)
1PAGESERV (PAGE00) (09:42) (22MAR04) Wait on an event                                                                       Page  343
0Loc    Object Code    Addr1 Addr2  Stmt Lv Lineno    Source Statement           (Hibal 5, Asmedit 3.3)  HLASM R4.0  2004/03/22 09.42
+___    ______ ____    _____ _____  ____ __ ______    ______ _________
0                                  61348    8165.
                                   61349    8166.
                                   61350    8167.       Wait on an event
                                   61351    8168.
                                   61352    8169.        Input - @PAGWAIT
                                   61353    8170.
                                   61354    8171.       Output - NONE
                                   61355    8172.
                                   61356    8173.

0000000                00000 0000C 61358    8175.     @PAGWAIT RECORD BEGIN
 000000                            61366  1 8176.     @WTHEAD    DS    A                       Head of waiting PCBs
 000004                            61367  1 8177.     @WTLOCK    DS    A                       Specific lock word
 000008                            61368  1 8178.     @WTPCB     DS    A                       PCB in control
 00000C                0000C 0000C 61369    8179.              END   ,
 000000                00000 00001 61378    8180.     #PAGWAIT RECORD BEGIN                  Flags for locks
 000000 00                         61386  1 8181.     #WTLOCKF   FLAG  (#WTFGBL,PCBFGBL)       Global lock
 #WTLOCKF.#WTFGBL  80 ONES
 #WTLOCKF.#WTFLCL  40 ONES         61395  1 8182.                FLAG  (#WTFLCL,PCBFLCL)       Local lock
 000001                00001 00001 61403    8183.              END   ,
0007452                            61413    8185.     PAGWAIT  PROC  @PAGWAIT,#PAGWAIT
 007452 D7C1C7E6C1C9E340           61420             +
 00745A 0010/0008                  61421             +
 00745E 900F D004/18AF       00004 61423             +
 USING  PAGWAIT,R10
 007464 50D0 C000/18CD       00000 61438             +
 00746A 9680 C000      00000       61440             +
 USING  @PAGWAIT-72,R12
 AUSING (#PAGWAIT,@PAGWAIT+16)
 00746E 41D0 C060            00060 61459             +
 007472 5860 0200            00200 61460    8186.              PAGAD RPAG
 USING  PZERO,R0
 DROP   PZERO,R0
 USING  MAT,R6
 007476 5860 600C            0000C 61494             +
 DROP   MAT,R6
 USING  PAGCB,R6
 00747A 5870 C050            00008 61516    8187.              L     RPCB,@WTPCB             PCB addr
 USING  ASBPCB,R7                  61517    8188.              WITH  (ASBPCB,RPCB)           |
                                   61530    8189.
                                   61531    8190.          Add to wait list if there is one
                                   61532    8191.
 00747E 5820 C048            00000 61533    8192.              L     RA,@WTHEAD              Add to list if required
 007482 1222/4780 A04A       074A8 61534    8193.              IF    (RA,~ZERO),BEGIN        |
 007488 41E0 0001            00001 61548  1 8194.                LADD  (RA),LA:ASBPCB,WR=RS    |
 00748C 5EE0 2008            00008 61575  1          +
 007490 50E0 2008            00008 61576  1          +
 007494 58E0 2004            00004 61583  1          +
 007498 5070 2004            00004 61589  1          +
 00749C 5020 7000            00000 61590  1          +
 0074A0 50E0 7004            00004 61596  1          +
 0074A4 5070 E000            00000 61597  1          +
 0074A8                            61599    8195.              END   ,                       |
1PAGESERV (PAGE00) (09:42) (22MAR04) Wait on an event                                                                       Page  344
0Current Usings:  (PAGCB,R6) (ASBPCB,R7) (PAGWAIT,R10) (@PAGWAIT-72,R12)
0Loc    Object Code    Addr1 Addr2  Stmt Lv Lineno    Source Statement           (Hibal 5, Asmedit 3.3)  HLASM R4.0  2004/03/22 09.42
+___    ______ ____    _____ _____  ____ __ ______    ______ _________
0                                  61603    8196.
                                   61604    8197.            Free locks before we wait
                                   61605    8198.          Spin locks can be obtained more than once by a task.  Before
                                   61606    8199.          a task can wait, it must be free of all spin locks.  Therefore
                                   61607    8200.          this routine calls the lock release routine until the return
                                   61608    8201.          indicates that the lock is completely free (RVR=0).  When this
                                   61609    8202.          task is resumed, this routine will obtain the locks such that
                                   61610    8203.          the lock is in the same condition as on entry to this routine.
                                   61611    8204.
 0074A8 5830 C04C            00004 61612    8205.              L     RB,@WTLOCK
 0074AC 1233/4780 A05E       074BC 61613    8206.              IF    (RB,~ZERO),BEGIN        Free specific lock
 0074B2 5030 D048            00000 61627  1 8207.                LKREL (RB)                    |
 USING  @LOCKS-72,R13
 0074B6 58F0 6030/0DEF       00030 61654  1          +
 0074BC                            61656    8208.              END   ,                       OF Free specific lock
 0074BC D200 C058 70B6 00000 000B6 61660    8209.              MVC   #WTLOCKF,PCBLOCKF       Save locks held
 0074C2 9180 70B6      000B6       61661    8210.              IF    PCBFGBL,BEGIN           Free global lock
 0074C6 47E0 A09C            074FA 61671             +
 0074CA 947F 70B6      000B6       61676  1 8211.                CLEAR PCBFGBL                 |
 0074CE 5880 6018            00018 61683  1 8212.                L     RM,PAGCASB              |
 0074D2 5880 8020            00020 61684  1 8213.                WITH  (ASB,RM),'L RM,ASBPAGB'
 USING  ASB,R8
 DROP   ASB,R8
 USING  GBL.ASBPCB,R8              61708  1 8214.                WITH  (ASBPCB,RM),LABEL=GBL
 0074D6 5810 8018            00018 61716  1 8215.                L     RS,GBL.PCBLOCK
 0074DA 5010 D048            00000 61717  1 8216.                LKREL (RS)
 0074DE 58F0 6030/0DEF       00030 61737  1          +
 0074E4 1840                       61739  1 8217.                LR    RJ,RVR                  Remaining lock obtain count
 0074E6 1200/4780 A09C       074FA 61740  1 8218.                WHILE (RVR,NZ),BEGIN
 0074EC 5010 D048            00000 61756  2 8219.                  LKREL (RS)
 0074F0 58F0 6030/0DEF       00030 61776  2          +
 0074F6 47F0 A088            074E6 61778  1 8220.                END   ,
 DROP   GBL.ASBPCB,R8              61783    8221.              END   ,                       OF Free global lock
 0074FA 9140 70B6      000B6       61795    8222.              IF    PCBFLCL,BEGIN           Free local lock
 0074FE 47E0 A0CC            0752A 61805             +
 007502 94BF 70B6      000B6       61810  1 8223.                CLEAR PCBFLCL                 |
 007506 5810 7018            00018 61817  1 8224.                L     RS,PCBLOCK
 00750A 5010 D048            00000 61818  1 8225.                LKREL (RS)
 00750E 58F0 6030/0DEF       00030 61838  1          +
 007514 1850                       61840  1 8226.                LR    RK,RVR                  Remaining lock obtain count
 007516 1200/4780 A0CC       0752A 61841  1 8227.                WHILE (RVR,NZ),BEGIN          Free lock completely
 00751C 5010 D048            00000 61857  2 8228.                  LKREL (RS)
 007520 58F0 6030/0DEF       00030 61877  2          +
 007526 47F0 A0B8            07516 61879  1 8229.                END   ,
 00752A                            61884    8230.              END   ,                       OF Free local lock
                                   61888    8231.
                                   61889    8232.          Wait whole address space
                                   61890    8233.
 DROP   @LOCKS-72,R13              61891    8234.              AWAIT PCBECB,TYPE=AS          Put AS in wait
 USING  @AWAIT-72,R13
 00752A D704 D048 D048 00000 00000 61912             +
 007530 4100 70A8            000A8 61924             +
 007534 5000 D048            00000 61929             +
 007538 58F0 AB7A/0DEF       07FD8 61932             +
1PAGESERV (PAGE00) (09:42) (22MAR04) Wait on an event                                                                       Page  345
0Current Usings:  (PAGCB,R6) (ASBPCB,R7) (PAGWAIT,R10) (@PAGWAIT-72,R12) (@AWAIT-72,R13)
0Loc    Object Code    Addr1 Addr2  Stmt Lv Lineno    Source Statement           (Hibal 5, Asmedit 3.3)  HLASM R4.0  2004/03/22 09.42
+___    ______ ____    _____ _____  ____ __ ______    ______ _________
0                                  61934    8235.
                                   61935    8236.          Get locks that we had before waiting
                                   61936    8237.
 00753E 9140 C058      00000       61937    8238.              IF    #WTFLCL,BEGIN           Get local lock
 007542 47E0 A102            07560 61947             +
 007546 5810 7018            00018 61952  1 8239.                L     RS,PCBLOCK
 00754A 5E50 AB7E            07FDC 61953  1 8240.                INCR  RK
 00754E                            61956  1 8241.                LOOP  BEGIN
 00754E 5010 D048            00000 61962  2 8242.                  LKOB  (RS)
 DROP   @AWAIT-72,R13
 USING  @LOCKS-72,R13
 007552 58F0 602C/0DEF       0002C 61992  2          +
 007558 4650 A0F0            0754E 61994  1 8243.                UNTIL (BCT,RK),END
 00755C 9640 70B6      000B6       62004  1 8244.                SET   PCBFLCL
 007560                            62010    8245.              END   ,                       OF Get local lock
 007560 9180 C058      00000       62014    8246.              IF    #WTFGBL,BEGIN           Get global lock
 007564 47E0 A124            07582 62024             +
 USING  GBL.ASBPCB,R8              62029  1 8247.                WITH  (ASBPCB,RM),LABEL=GBL
 007568 5810 8018            00018 62037  1 8248.                L     RS,GBL.PCBLOCK
 00756C 5E40 AB7E            07FDC 62038  1 8249.                INCR  RJ
 007570                            62041  1 8250.                LOOP  BEGIN
 007570 5010 D048            00000 62047  2 8251.                  LKOB  (RS)
 007574 58F0 602C/0DEF       0002C 62067  2          +
 00757A 4640 A112            07570 62069  1 8252.                UNTIL (BCT,RJ),END
 00757E 9680 70B6      000B6       62079  1 8253.                SET   PCBFGBL
 DROP   GBL.ASBPCB,R8              62085    8254.              END   ,                       OF Get global lock
 007582 1233/4780 A134       07592 62097    8255.              IF    (RB,NZ),BEGIN           Get specific lock again
 007588 5030 D048            00000 62111  1 8256.                LKOB  (RB)                    |
 00758C 58F0 602C/0DEF       0002C 62131  1          +
 007592                            62133    8257.              END   ,                       OF Get specific lock again
 007592 9620 70B6      000B6       62137    8258.              SET   PCBFSYNC                Set flags - we have locks
 007596 981F C008            00008 62143    8259.              PEND  ,
 DROP   ASBPCB,R7
 DROP   PAGCB,R6
 DROP   @PAGWAIT-72,R12
 DROP   PAGWAIT,R10
 00759A 9680 C000/0B0E 00000       62168             +
 DROP   @LOCKS-72,R13
1PAGESERV (PAGE00) (09:42) (22MAR04) Check for tasks needing wake up calls                                                  Page  346
0Loc    Object Code    Addr1 Addr2  Stmt Lv Lineno    Source Statement           (Hibal 5, Asmedit 3.3)  HLASM R4.0  2004/03/22 09.42
+___    ______ ____    _____ _____  ____ __ ______    ______ _________
0                                  62178    8261.
                                   62179    8262.
                                   62180    8263.       Check for tasks needing wake up calls
                                   62181    8264.
                                   62182    8265.        Input - NONE
                                   62183    8266.
                                   62184    8267.       Output - NONE
                                   62185    8268.                  RESWAKE called for resources that require it
                                   62186    8269.
                                   62187    8270.

00075A0                            62189    8272.     WAKELOOK PROC  ,#LCLLOCK
 0075A0 E6C1D2C5D3D6D6D2           62196             +
 0075A8 0000/0008                  62197             +
 0075AC 900F D004/18AF       00004 62199             +
 USING  WAKELOOK,R10
 0075B2 50D0 C000/18CD       00000 62214             +
 0075B8 9680 C000      00000       62216             +
 USING  #LCLLOCK-72,R12
 0075BC 41D0 C050            00050 62230             +
 0075C0 5860 0200            00200 62231    8273.              PAGAD RPAG
 USING  PZERO,R0
 DROP   PZERO,R0
 USING  MAT,R6
 0075C4 5860 600C            0000C 62265             +
 DROP   MAT,R6
 USING  PAGCB,R6
 0075C8 9500 60C0      000C0       62287    8274.              IF    (PAGFWAIT,ZERO),EXIT
 0075CC 4780 A0BE            0766A 62300             +
 0075D0 5820 AA34            07FE0 62306    8275.              L     RA,=X'80000000'         Initialize flag mask
 0075D4 1B11                       62307    8276.              CLEAR RS                        and count
                                   62311    8277.
                                   62312    8278.          Check all resource flags
                                   62313    8279.
 0075D6                            62314    8280.              LOOP  BEGIN                   Check all flags
 0075D6 1832                       62320  1 8281.                LR    RB,RA
 0075D8 5430 60C0            000C0 62321  1 8282.                N     RB,PAGFWAIT
 0075DC 4780 A0AE            0765A 62322  1 8283.                IF    NZ,BEGIN                Flag is set
                                   62333  2 8284.
                                   62334  2 8285.              Turn off bit in flag
                                   62335  2 8286.
 0075E0 5730 AA38            07FE4 62336  2 8287.                  X     RB,=X'FFFFFFFF'         One's compliment
 0075E4 5840 60C0            000C0 62337  2 8288.                  L     RJ,PAGFWAIT
 0075E8                            62338  2 8289.                  LOOP  BEGIN                   Turn off this flag
 0075E8 1854                       62344  3 8290.                    LR    RK,RJ
 0075EA 1453                       62345  3 8291.                    NR    RK,RB
 0075EC BA45 60C0            000C0 62346  3 8292.                    CS    RJ,RK,PAGFWAIT
 0075F0 4770 A03C            075E8 62347  2 8293.                  UNTIL EQUAL,END               OF Turn off this flag
                                   62366  2 8294.
                                   62367  2 8295.              Form index (RN), and load parameters for this resource
                                   62368  2 8296.
 0075F4 1891                       62369  2 8297.                  LR    RN,RS                   Form table pointer
 0075F6 4C90 AAA0            0804C 62370  2 8298.                  MH    RN,=Y(WKLLEN)
 0075FA 4199 A0C8            07674 62371  2 8299.                  LA    RN,RFRAME(RN)
                                   62372  2 8300.
1PAGESERV (PAGE00) (09:42) (22MAR04) Check for tasks needing wake up calls                                                  Page  347
0Current Usings:  (PAGCB,R6) (WAKELOOK,R10) (#LCLLOCK-72,R12)
0Loc    Object Code    Addr1 Addr2  Stmt Lv Lineno    Source Statement           (Hibal 5, Asmedit 3.3)  HLASM R4.0  2004/03/22 09.42
+___    ______ ____    _____ _____  ____ __ ______    ______ _________
00075FE 1886                       62373  2 8301.                  LR    RM,RPAG                 Lock location
 007600 4A80 9000            00000 62374  2 8302.                  AH    RM,@RN
 007604 1856                       62375  2 8303.                  LR    RK,RPAG                 Queue location
 007606 4A50 9002            00002 62376  2 8304.                  AH    RK,@RN+2
 00760A 1846                       62377  2 8305.                  LR    RJ,RPAG                 Resource count
 00760C 4A40 9004            00004 62378  2 8306.                  AH    RJ,@RN+4
                                   62379  2 8307.
                                   62380  2 8308.              Get lock and call wake up routine
                                   62381  2 8309.
 007610 AC04 C048      00000       62382  2 8310.                  STNSM #LCLPSWM,DISABLE        Disable for spin lock
 007614 5880 8000            00000 62383  2 8311.                  L     RM,@RM
 007618 5080 D048            00000 62384  2 8312.                  LKOB  (RM)                    Get lock
 USING  @LOCKS-72,R13
 00761C 58F0 602C/0DEF       0002C 62411  2          +
 DROP   @LOCKS-72,R13              62413  2 8313.                  PSET  @RESWAKE                Do wake up call
 USING  @RESWAKE-72,R13
 007622 D70C D048 D048 00000 00000 62433  2          +
 007628 5840 4000/1244       00000 62434  2 8314.                  IF    ('LT RJ,@RJ',NZ),BEGIN  Some resource available
 00762E 4780 A098            07644 62445  2          +
 007632 5040 D048            00000 62450  3 8315.                    PMOV  @RESFREE,(RJ)
 007636 5050 D04C            00004 62460  3 8316.                    PMOV  @RESWAIT,(RK)
 00763A 5080 D050            00008 62470  3 8317.                    PMOV  @RESLOCK,(RM)
 00763E 41F0 A0F2/0DEF       0769E 62480  3 8318.                    LCALL RESWAKE
 007644                            62489  2 8319.                  END   ,                       OF Some resource available
 007644 9180 D054      0000C       62493  2 8320.                  IF    ~@RESFLKRL,BEGIN        Free lock
 007648 4710 A0AA            07656 62503  2          +
 00764C 5080 D048            00000 62508  3 8321.                    LKREL (RM)
 DROP   @RESWAKE-72,R13
 USING  @LOCKS-72,R13
 007650 58F0 6030/0DEF       00030 62538  3          +
 007656                            62540  2 8322.                  END   ,                       OF Free lock
 007656 8000 C048      00000       62544  2 8323.                  SSM   #LCLPSWM                Set PSW mask back
 00765A                            62545  1 8324.                END   ,                       OF Flag is set
                                   62549  1 8325.
                                   62550  1 8326.            Set up for next pass of loop
                                   62551  1 8327.
 00765A 5E10 AA30            07FDC 62552  1 8328.                INCR  RS                      Increment count
 00765E 8820 0001            00001 62555  1 8329.                SRL   RA,1                    Shift flag mask
 007662 5910 AA3C            07FE8 62556    8330.              UNTIL (RS,GE,WKLCOUNT),END    OF Check all flags
 007666 4750 A02A            075D6 62575             +
 00766A 981F C008            00008 62581    8331.              PEND  ,
 DROP   PAGCB,R6
 DROP   #LCLLOCK-72,R12
 DROP   WAKELOOK,R10
 00766E 9680 C000/0B0E 00000       62601             +
 DROP   @LOCKS-72,R13
0007674                            62611    8333.              ASSERT (L'PAGFWFRA,2*L'PAGFWXP)        Verify flag order
 007674                            62613    8334.              ASSERT (L'PAGFWXP,2*L'PAGFWIOP)        Verify flag order
 007674                            62615    8335.              ASSERT (L'PAGFWIOP,2*L'PAGFWIOS)       Verify flag order
 007674                            62617    8336.              ASSERT (L'PAGFWIOS,2*L'PAGFWASN)       Verify flag order
 007674 003C                       62619    8337.     RFRAME   DC    Y(PAGFRAL-PAGCB)        Lock location
 007676 009C                       62620    8338.              DC    Y(PAGFWT-PAGCB)         Queue location
 007678 0060                       62621    8339.              DC    Y(PAGFTCNT-PAGCB)       Availability location
1PAGESERV (PAGE00) (09:42) (22MAR04) Check for tasks needing wake up calls                                                  Page  348
0Loc    Object Code    Addr1 Addr2  Stmt Lv Lineno    Source Statement           (Hibal 5, Asmedit 3.3)  HLASM R4.0  2004/03/22 09.42
+___    ______ ____    _____ _____  ____ __ ______    ______ _________
0                                  62622    8340.     WKLLEN   EQU   *-RFRAME
 00767A 01B8                       62623    8341.     RXPAGE   DC    Y(PAGXPL-PAGCB)         Lock location
 00767C 01C8                       62624    8342.              DC    Y(PAGXPWT-PAGCB)        Queue location
 00767E 01C4                       62625    8343.              DC    Y(PAGXPRCNT-PAGCB)      Availability location
 007680 0138                       62626    8344.     RIOP     DC    Y(PAGCELLK-PAGCB)       Lock location
 007682 0148                       62627    8345.              DC    Y((PAGCELAS-PAGCEL)+(PAGPGCEL-PAGCB))    Queue loc
 007684 0140                       62628    8346.              DC    Y((PAGCELAMT-PAGCEL)+(PAGPGCEL-PAGCB))   Avail loc
 007686 0138                       62629    8347.     RIOS     DC    Y(PAGCELLK-PAGCB)       Lock location
 007688 0168                       62630    8348.              DC    Y((PAGCELAS-PAGCEL)+(PAGSWCEL-PAGCB))    Queue loc
 00768A 0160                       62631    8349.              DC    Y((PAGCELAMT-PAGCEL)+(PAGSWCEL-PAGCB))   Avail loc
 00768C 0188                       62632    8350.     RASN     DC    Y(PAGASNL-PAGCB)        Lock location
 00768E 0194                       62633    8351.              DC    Y(PAGASNW-PAGCB)        Queue location
 007690 01A8                       62634    8352.              DC    Y(PAGAVASN-PAGCB)       Availability location
                                   62635    8353.     WKLCOUNT EQU   (*-RFRAME)/WKLLEN
1PAGESERV (PAGE00) (09:42) (22MAR04) Wake up tasks waiting on a resource                                                    Page  349
0Loc    Object Code    Addr1 Addr2  Stmt Lv Lineno    Source Statement           (Hibal 5, Asmedit 3.3)  HLASM R4.0  2004/03/22 09.42
+___    ______ ____    _____ _____  ____ __ ______    ______ _________
0                                  62637    8355.
                                   62638    8356.
                                   62639    8357.       Wake up tasks waiting on a resource
                                   62640    8358.
                                   62641    8359.        Input - @RESWAKE
                                   62642    8360.
                                   62643    8361.       Output - NONE
                                   62644    8362.                PCBs that can be satisfied by the amount of resource
                                   62645    8363.                available are awakened.
                                   62646    8364.
                                   62647    8365.

0007692                            62649    8367.     RESWAKE  PROC  @RESWAKE
 007692 D9C5E2E6C1D2C540           62656             +
 00769A 0010/0000                  62657             +
 00769E 900F D004/18AF       00004 62659             +
 USING  RESWAKE,R10
 0076A4 50D0 C000/18CD       00000 62674             +
 0076AA 9680 C000      00000       62676             +
 USING  @RESWAKE-72,R12
 0076AE 41D0 C058            00058 62690             +
 0076B2 5830 C048            00000 62691    8368.              L     RB,@RESFREE
 0076B6 5820 C04C            00004 62692    8369.              L     RA,@RESWAIT
 USING  LHEAD,R2                   62693    8370.              WITH  (LHEAD,RA)
 0076BA 5840 2000            00000 62706    8371.              L     RJ,LHFP                 First PCB on list
 0076BE 1B55                       62707    8372.              CLEAR RK                      | number of PCBs to wake up
 0076C0 1233/47D0 A044       076E2 62711    8373.              WHILE ((RB,POS),AND,(RK,LT,LHCNT)),BEGIN       Count wake up
 0076C6 5950 2008            00008 62737             +
 0076CA 47B0 A044            076E2 62738             +
 USING  ASBPCB,R4                  62743  1 8374.                WITH  (ASBPCB,RJ)
 0076CE 5B30 40A4            000A4 62756  1 8375.                S     RB,PCBAMT               Can this PCB be satisfied?
 0076D2 47D0 A03C            076DA 62757  1 8376.                IF    POS,BEGIN               |
 0076D6 5E50 A93E            07FDC 62768  2 8377.                  INCR  RK
 0076DA                            62771  1 8378.                END   ,                       OF Can this PCB be satisfied?
 0076DA 5840 4000            00000 62775  1 8379.                L     RJ,PCBPCFP              Next in line
 0076DE 47F0 A022            076C0 62776    8380.              END   ,                       OF Count wake up
 DROP   ASBPCB,R4
 0076E2 1255/47D0 A0B2       07750 62786    8381.              IF    (RK,POS),BEGIN          Wake these PCBs up
 0076E8 5860 0200            00200 62800  1 8382.                PAGAD RPAG
 USING  PZERO,R0
 DROP   PZERO,R0
 USING  MAT,R6
 0076EC 5860 600C            0000C 62834  1          +
 DROP   MAT,R6
 USING  PAGCB,R6
 0076F0 1B00/58F0 2008       00008 62856  1 8383.                LREM  LHEAD,,(RK),LAST=(RB),WR=RS
 0076F6 1215/47D0 A082       07720 62890  2          +
 0076FC 1BF1/4740 A082       07720 62906  2          +
 007702 50F0 2008            00008 62921  2          +
 007706 58F0 2000/180F       00000 62928  2          +
 00770C 58F0 F000            00000 62936  2          +
 007710 4610 A06E            0770C 62942  2          +
 007714 5830 F004            00004 62949  2          +
 007718 5020 F004            00004 62950  2          +
 00771C 50F0 2000            00000 62951  1          +
1PAGESERV (PAGE00) (09:42) (22MAR04) Wake up tasks waiting on a resource                                                    Page  350
0Current Usings:  (LHEAD,R2) (PAGCB,R6) (RESWAKE,R10) (@RESWAKE-72,R12)
0Loc    Object Code    Addr1 Addr2  Stmt Lv Lineno    Source Statement           (Hibal 5, Asmedit 3.3)  HLASM R4.0  2004/03/22 09.42
+___    ______ ____    _____ _____  ____ __ ______    ______ _________
0007720 1820                       62956  1 8384.                LR    RA,RVR                  |
 USING  @LOCKS-72,R13              62957  1 8385.                LKREL @RESLOCK                Release lock
 007722 D203 D048 C050 00000 00008 62973  1          +
 007728 58F0 6030/0DEF       00030 62979  1          +
 00772E 9680 C054      0000C       62981  1 8386.                SET   @RESFLKRL               | set as released
 007732                            62987  1 8387.                LOOP  BEGIN                   Loop through PCBs
 DROP   LHEAD,R2                   62993  2 8388.                  WITH  (LELEM,RA)
 USING  LELEM,R2
 007732 1872                       63009  2 8389.                  LR    RPCB,RA                 Current PCB
 007734 5820 2000            00000 63010  2 8390.                  L     RA,LFP                  Next PCB
 USING  ASBPCB,R7                  63011  2 8391.                  WITH  (ASBPCB,RPCB)
 DROP   @LOCKS-72,R13              63024  2 8392.                  SIGNL PCBECB,TYPE=AS          Address space resume
 USING  @SIGNAL-72,R13
 007738 D713 D048 D048 00000 00000 63045  2          +
 00773E 4100 70A8            000A8 63057  2          +
 007742 5000 D050            00008 63062  2          +
 007746 58F0 A94E/0DEF       07FEC 63065  2          +
 00774C 4650 A094            07732 63067  1 8393.                UNTIL (BCT,RK),END            OF Loop through PCBs
 DROP   ASBPCB,R7
 DROP   LELEM,R2
 USING  LHEAD,R2
 DROP   PAGCB,R6                   63094    8394.              END   ,                       OF Wake these PCBs up
 007750 981F C008            00008 63103    8395.              PEND  ,
 DROP   LHEAD,R2
 DROP   @RESWAKE-72,R12
 DROP   RESWAKE,R10
 007754 9680 C000/0B0E 00000       63123             +
 DROP   @SIGNAL-72,R13
1PAGESERV (PAGE00) (09:42) (22MAR04) Initialize an ASB PCB                                                                  Page  351
0Loc    Object Code    Addr1 Addr2  Stmt Lv Lineno    Source Statement           (Hibal 5, Asmedit 3.3)  HLASM R4.0  2004/03/22 09.42
+___    ______ ____    _____ _____  ____ __ ______    ______ _________
0                                  63133    8397.
                                   63134    8398.
                                   63135    8399.       Initialize an ASB sub-control block, the PCB
                                   63136    8400.
                                   63137    8401.        Input - @PCBINIT
                                   63138    8402.
                                   63139    8403.       Output - RVR contains the PCB address, and the ASB also has a
                                   63140    8404.                pointer to this PCB filled in
                                   63141    8405.
                                   63142    8406.

0000000                00000 00004 63143    8407.     @PCBINIT RECORD BEGIN
 000000                            63151  1 8408.     @PCIASB    DS    A                       ASB of this PCB
 000004                00004 00004 63152    8409.              END   ,
000775A                            63162    8411.     PCBINIT  PROC  @PCBINIT
 00775A D7C3C2C9D5C9E340           63169             +
 007762 0008/0000                  63170             +
 007766 900F D004/18AF       00004 63172             +
 USING  PCBINIT,R10
 00776C 50D0 C000/18CD       00000 63187             +
 007772 9680 C000      00000       63189             +
 USING  @PCBINIT-72,R12
 007776 41D0 C050            00050 63203             +
 00777A 5860 0200            00200 63204    8412.              PAGAD RPAG
 USING  PZERO,R0
 DROP   PZERO,R0
 USING  MAT,R6
 00777E 5860 600C            0000C 63238             +
 DROP   MAT,R6
 USING  PAGCB,R6
                                   63260    8413.
                                   63261    8414.          Get a PCB and point to this ASB, but don't have ASB point to
                                   63262    8415.          this PCB just yet.
                                   63263    8416.
 USING  @VMGET-72,R13              63264    8417.              VMGET L'ASBPCB,LOC=GLOBHI,FIX=YES,ONEPAGE=YES
 007782 D70A D048 D048 00000 00000 63288             +
 007788 4100 00B8            000B8 63300             +
 00778C 5000 D048            00000 63305             +
 007790 D201 D050 A8E8 00008 0804E 63306             +
 007796 9640 D052      0000A       63312             +
 00779A 58F0 A88A/0DEF       07FF0 63315             +
 0077A0 1870                       63317    8418.              LR    RPCB,RVR                PCB addr
 USING  ASBPCB,R7                  63318    8419.              WITH  (ASBPCB,RPCB),BEGIN     |
 0077A2 5840 C048            00000 63332  1 8420.                L     RJ,@PCIASB              ASB addr
 USING  ASB,R4                     63333  1 8421.                WITH  (ASB,RJ)
 0077A6                            63346  1 8422.                CLEAR ASBPCB                  Clear control block
 0077A6 D7B7 7000 7000 00000 00000 63352  1          +
 0077AC D203 7008 A88E 00008 07FF4 63353  1 8423.                MVC   ASBPCBID,=CL4'PCB'      | and set ID
 0077B2 5040 700C            0000C 63354  1 8424.                ST    RJ,PCBASB               ASB addr
 0077B6 5070 7010            00010 63355  1 8425.                ST    RPCB,PCBVA              This PCB's VA
 0077BA B110 7000            00000 63356  1 8426.                LRA   RS,ASBPCB               This PCB's RA
 0077BE 5010 7014            00014 63357  1 8427.                ST    RS,PCBRA                |
 DROP   @VMGET-72,R13              63358  1 8428.                LKCRE PCBLOCK,TYPE=SPIN       Get PCB lock
 USING  @LOCKCRE-72,R13
1PAGESERV (PAGE00) (09:42) (22MAR04) Initialize an ASB PCB                                                                  Page  352
0Current Usings:  (ASB,R4) (PAGCB,R6) (ASBPCB,R7) (PCBINIT,R10) (@PCBINIT-72,R12) (@LOCKCRE-72,R13)
0Loc    Object Code    Addr1 Addr2  Stmt Lv Lineno    Source Statement           (Hibal 5, Asmedit 3.3)  HLASM R4.0  2004/03/22 09.42
+___    ______ ____    _____ _____  ____ __ ______    ______ _________
00077C2 D710 D048 D048 00000 00000 63379  1          +
 0077C8 D20F D048 A84A 00000 07FB0 63385  1          +
 0077CE 9680 D058      00010       63391  1          +
 0077D2 58F0 A892/0DEF       07FF8 63394  1          +
 0077D8 5000 7018            00018 63396  1 8429.                ST    RVR,PCBLOCK             |
                                   63397  1 8430.
                                   63398  1 8431.            Set up the working set history value
                                   63399  1 8432.
 0077DC D203 7028 6120 00028 00120 63400  1 8433.                MVC   PCBWSHIST,PAGMNHST
                                   63401  1 8434.
                                   63402  1 8435.            Init the PCB frame lists
                                   63403  1 8436.
 USING  LHEAD,R2                   63404  1 8437.                WITH  (LHEAD,RA),BEGIN
 0077E2 4120 7030            00030 63418  2 8438.                  LA    RA,PCBUFLH              Normal user frames
 0077E6 5020 2000            00000 63419  2 8439.                  ST    RA,LHFP
 0077EA 5020 2004            00004 63420  2 8440.                  ST    RA,LHBP
 0077EE 4120 703C            0003C 63421  2 8441.                  LA    RA,PCBPFLH              Page table frames
 0077F2 5020 2000            00000 63422  2 8442.                  ST    RA,LHFP
 0077F6 5020 2004            00004 63423  2 8443.                  ST    RA,LHBP
 0077FA 4120 7048            00048 63424  2 8444.                  LA    RA,PCBSFLH              Segment table frames
 0077FE 5020 2000            00000 63425  2 8445.                  ST    RA,LHFP
 007802 5020 2004            00004 63426  2 8446.                  ST    RA,LHBP
 007806 4120 7054            00054 63427  2 8447.                  LA    RA,PCBLFLH              Locked frames
 00780A 5020 2000            00000 63428  2 8448.                  ST    RA,LHFP
 00780E 5020 2004            00004 63429  2 8449.                  ST    RA,LHBP
                                   63430  2 8450.
                                   63431  2 8451.              Init swap control block lists
                                   63432  2 8452.
 007812 4120 706C            0006C 63433  2 8453.                  LA    RA,PCBSWIN              CBs w/ frames in core
 007816 5020 2000            00000 63434  2 8454.                  ST    RA,LHFP
 00781A 5020 2004            00004 63435  2 8455.                  ST    RA,LHBP
 DROP   LHEAD,R2                   63436  1 8456.                END   ,
 DROP   ASB,R4                     63444    8457.              END   ,                       OF PCB addr
 DROP   ASBPCB,R7
 00781E 1807                       63457    8458.              LR    RVR,RPCB                Return PCB addr
 007820 981F C008            00008 63458    8459.              PEND  ,
 DROP   PAGCB,R6
 DROP   @PCBINIT-72,R12
 DROP   PCBINIT,R10
 007824 9680 C000/0B0E 00000       63478             +
 DROP   @LOCKCRE-72,R13
1PAGESERV (PAGE00) (09:42) (22MAR04) Initialize segment table                                                               Page  353
0Loc    Object Code    Addr1 Addr2  Stmt Lv Lineno    Source Statement           (Hibal 5, Asmedit 3.3)  HLASM R4.0  2004/03/22 09.42
+___    ______ ____    _____ _____  ____ __ ______    ______ _________
0                                  63488    8461.
                                   63489    8462.
                                   63490    8463.       Initialize segment table
                                   63491    8464.
                                   63492    8465.        Input - @PAGSGIN
                                   63493    8466.
                                   63494    8467.       Output - none
                                   63495    8468.
                                   63496    8469.

0000000                00000 00004 63497    8470.     @PAGSGIN RECORD BEGIN
 000000                            63505  1 8471.     @SIVA      DS    A                       Virtual addr of segment table
 000004                00004 00004 63506    8472.              END   ,
0                                  63516    8474.              REGCH (RPAG,RX)
 00782A                            63517    8475.     PAGSGINI PROC  @PAGSGIN                Init segment table
 00782A D7C1C7E2C7C9D5C9           63524             +
 007832 0008/0000                  63525             +
 007836 900F D004/18AF       00004 63527             +
 USING  PAGSGINI,R10
 00783C 50D0 C000/18CD       00000 63542             +
 007842 9680 C000      00000       63544             +
 USING  @PAGSGIN-72,R12
 007846 41D0 C050            00050 63558             +
 00784A 5860 0200            00200 63559    8476.              PAGAD RPAG
 USING  PZERO,R0
 DROP   PZERO,R0
 USING  MAT,R6
 00784E 5860 600C            0000C 63593             +
 DROP   MAT,R6
 USING  PAGCB,R6
 007852 5870 C048            00000 63615    8477.              L     RY,@SIVA                Virtual addr of seg table
 USING  SGTE,R7                    63616    8478.              WITH  (SGTE,RY)               |
 007856 5850 60B8            000B8 63629    8479.              L     RK,PAGMEG               Shadow seg table addr
 00785A 1845                       63630    8480.              LR    RJ,RK                   | number of segments
 00785C 8950 0002            00002 63631    8481.              SLL   RK,SGTLOG               | offset from start of seg tbl
 007860 1E57                       63632    8482.              ALR   RK,RY                   |
 USING  SSTE,R5                    63633    8483.              WITH  (SSTE,RK)               |
 007862 5820 A7C6            07FFC 63646    8484.              L     RA,=A(L'SGTFINV)        Invalid hardware seg entry
                                   63647    8485.              REGCH (RVR,R0),(RS,R1)
 007866 1B00/1B11                  63648    8486.              CLEAR (RVR),(RS)              Clear shadow entries
 00786A                            63654    8487.              LOOP  BEGIN                   Init all entries
 00786A 5020 7000            00000 63660  1 8488.                ST    RA,SGTE                 Hardware
 00786E 9001 5000            00000 63661  1 8489.                STM   RVR,RS,SSTE             Shadow segment table
 007872 4170 7004            00004 63662  1 8490.                LA    RY,SGTNXT
 007876 4150 5008            00008 63663  1 8491.                LA    RK,SSTNXT
 00787A 4640 A034            0786A 63664    8492.              UNTIL (BCT,RJ),END            OF Init all entries
 00787E 981F C008            00008 63674    8493.              PEND  ,
 DROP   SSTE,R5
 DROP   SGTE,R7
 DROP   PAGCB,R6
 DROP   @PAGSGIN-72,R12
 DROP   PAGSGINI,R10
 007882 9680 C000/0B0E 00000       63704             +
1PAGESERV (PAGE00) (09:42) (22MAR04) Initialize page table                                                                  Page  354
0Loc    Object Code    Addr1 Addr2  Stmt Lv Lineno    Source Statement           (Hibal 5, Asmedit 3.3)  HLASM R4.0  2004/03/22 09.42
+___    ______ ____    _____ _____  ____ __ ______    ______ _________
0                                  63711    8495.
                                   63712    8496.
                                   63713    8497.       Initialize page table
                                   63714    8498.
                                   63715    8499.        Input - @PAGPGIN
                                   63716    8500.
                                   63717    8501.       Output - none
                                   63718    8502.
                                   63719    8503.

0000000                00000 00004 63720    8504.     @PAGPGIN RECORD BEGIN
 000000                            63728  1 8505.     @PIVA      DS    A                       Virtual addr of page table
 000004                00004 00004 63729    8506.              END   ,
0007888                            63739    8508.     PAGPGINI PROC  @PAGPGIN                Init page table
 007888 D7C1C7D7C7C9D5C9           63746             +
 007890 0008/0000                  63747             +
 007894 900F D004/18AF       00004 63749             +
 USING  PAGPGINI,R10
 00789A 50D0 C000/18CD       00000 63764             +
 0078A0 9680 C000      00000       63766             +
 USING  @PAGPGIN-72,R12
 0078A4 41D0 C050            00050 63780             +
 0078A8 5870 C048            00000 63781    8509.              L     RY,@PIVA                Virtual addr of page table
 0078AC 4160 7400            00400 63782    8510.              WITH  (PAGTABLE,RY),'LA RX,SPGT'
 USING  PAGTABLE,R7
 DROP   PAGTABLE,R7
 USING  PGTE,R7                    63806    8511.              WITH  (PGTE,RY)               |
 USING  SPTE,R6                    63819    8512.              WITH  (SPTE,RX)               |
 0078B0 4140 0100            00100 63832    8513.              LA    RJ,256                  | number of pages/page table
 0078B4 5820 A76C            08000 63833    8514.              L     RA,=A(256*L'PGTFINV)    Invalid hardware page entry
                                   63834    8515.              REGCH (RVR,R0),(RS,R1)
 0078B8 1B00/1B11                  63835    8516.              CLEAR (RVR),(RS)              Clear shadow entries
 0078BC                            63841    8517.              LOOP  BEGIN                   Init all entries
 0078BC 5020 7000            00000 63847  1 8518.                ST    RA,PGTE                 Hardware
 0078C0 9001 6000            00000 63848  1 8519.                STM   RVR,RS,SPTE             Shadow segment table
 0078C4 4170 7004            00004 63849  1 8520.                LA    RY,PGTNXT
 0078C8 4160 6008            00008 63850  1 8521.                LA    RX,SPTNXT
 0078CC 4640 A028            078BC 63851    8522.              UNTIL (BCT,RJ),END            OF Init all entries
 0078D0 981F C008            00008 63861    8523.              PEND  ,
 DROP   SPTE,R6
 DROP   PGTE,R7
 DROP   @PAGPGIN-72,R12
 DROP   PAGPGINI,R10
 0078D4 9680 C000/0B0E 00000       63886             +
1PAGESERV (PAGE00) (09:42) (22MAR04) Initialize ASN allocation mechanism                                                    Page  355
0Loc    Object Code    Addr1 Addr2  Stmt Lv Lineno    Source Statement           (Hibal 5, Asmedit 3.3)  HLASM R4.0  2004/03/22 09.42
+___    ______ ____    _____ _____  ____ __ ______    ______ _________
0                                  63893    8525.
                                   63894    8526.
                                   63895    8527.       Initialize ASN allocation mechanism
                                   63896    8528.
                                   63897    8529.        Input - NONE
                                   63898    8530.
                                   63899    8531.       Output - PAGCB points to ASN first table origin (VA), and the
                                   63900    8532.                first available ASN is set
                                   63901    8533.
                                   63902    8534.

0000000                00000 00004 63904    8536.     #ASNINIT RECORD BEGIN
 000000                            63912  1 8537.     #ASIAFTO   DS    A                       AFTO from CR14
                                   63913  1 8538.     #ASIAFTM   EQU   X'FFF00000'             AFTO mask for CR14
                                   63914  1 8539.     #ASIAUTH   EQU   X'00080000'             ASN authority bit
 000004                00004 00004 63915    8540.              END   ,
00078DA                            63925    8542.     ASNINIT  PROC  ,#ASNINIT
 0078DA C1E2D5C9D5C9E340           63932             +
 0078E2 0000/0008                  63933             +
 0078E6 900F D004/18AF       00004 63935             +
 USING  ASNINIT,R10
 0078EC 50D0 C000/18CD       00000 63950             +
 0078F2 9680 C000      00000       63952             +
 USING  #ASNINIT-72,R12
 0078F6 41D0 C050            00050 63966             +
 0078FA 5860 0200            00200 63967    8543.              PAGAD RPAG
 USING  PZERO,R0
 DROP   PZERO,R0
 USING  MAT,R6
 0078FE 5860 600C            0000C 64001             +
 DROP   MAT,R6
 USING  PAGCB,R6
 USING  @LOCKCRE-72,R13            64023    8544.              LKCRE PAGASN,TYPE=SPIN        Init this lock
 007902 D710 D048 D048 00000 00000 64041             +
 007908 D20F D048 A6DA 00000 07FC0 64047             +
 00790E 9680 D058      00010       64053             +
 007912 58F0 A712/0DEF       07FF8 64056             +
 007918 5000 6188            00188 64058    8545.              ST    RVR,PAGASNL             |
 00791C                            64059    8546.              CLEAR PAG1ASN                 1st available ASN is zero
 00791C D701 61A4 61A4 001A4 001A4 64065             +
                                   64066    8547.     * Get space for ASN first table
 DROP   @LOCKCRE-72,R13            64067    8548.              VMGET L:=A(ASNAFT),LOC=GLOBHI,FIX=YES,PAGE=YES
 USING  @VMGET-72,R13
 007922 D70A D048 D048 00000 00000 64094             +
 007928 5800 A71E            08004 64102             +
 00792C 5000 D048            00000 64107             +
 007930 D201 D050 A768 00008 0804E 64108             +
 007936 9680 D052      0000A       64114             +
 00793A 58F0 A70A/0DEF       07FF0 64117             +
 007940 5000 61A0            001A0 64119    8549.              ST    RVR,PAGAFTO             AFT address
 007944 1870                       64120    8550.              LR    RY,RVR                  |
 USING  AFTE,R7                    64121    8551.              WITH  (AFTE,RY),BEGIN         |
 007946 1850                       64135  1 8552.                LR    RK,RVR                  | save it
 007948 4110 0400            00400 64136  1 8553.                LA    RS,ASNAFTN              Init AFT entries
1PAGESERV (PAGE00) (09:42) (22MAR04) Initialize ASN allocation mechanism                                                    Page  356
0Current Usings:  (PAGCB,R6) (AFTE,R7) (ASNINIT,R10) (#ASNINIT-72,R12) (@VMGET-72,R13)
0Loc    Object Code    Addr1 Addr2  Stmt Lv Lineno    Source Statement           (Hibal 5, Asmedit 3.3)  HLASM R4.0  2004/03/22 09.42
+___    ______ ____    _____ _____  ____ __ ______    ______ _________
000794C 5820 A6FA            07FE0 64137  1 8554.                L     RA,=X'80000000'         | invalid entries
 007950                            64138  1 8555.                LOOP  BEGIN                   |
 007950 5020 7000            00000 64144  2 8556.                  ST    RA,AFTASTO              | Invalidate this one
 007954 4170 7004            00004 64145  2 8557.                  LA    RY,AFTNXT               | on to next
 007958 4610 A06A            07950 64146  1 8558.                UNTIL (BCT,RS),END            OF Init AFT addresses
 DROP   AFTE,R7                    64156    8559.              END   ,                       OF AFT address
 DROP   @VMGET-72,R13              64164    8560.              PSET  @PAGASTI                Allocate and init ASN 2nd tbls
 USING  @PAGASTI-72,R13
 00795C D703 D048 D048 00000 00000 64184             +
 007962 5050 D048            00000 64185    8561.              PMOV  @ASI1ST,(RK)            |
 007966 41F0 A104/0DEF       079EA 64195    8562.              LCALL PAGASTI                 |
 00796C 5810 A722            08008 64204    8563.              L     RS,=A(PAGPAGEL/L'ASTE)  Add to total count
 007970 1821                       64205    8564.              LR    RA,RS                   | total
 007972 4A20 61A6            001A6 64206    8565.              AH    RA,PAGTASN              |
 007976 4020 61A6            001A6 64207    8566.              STH   RA,PAGTASN              |
 00797A 5A10 61A8            001A8 64208    8567.              A     RS,PAGAVASN             | avail
 00797E 5010 61A8            001A8 64209    8568.              ST    RS,PAGAVASN             |
 007982 B110 5000            00000 64210    8569.              LRA   RS,@RK                  Real addr of AFTO
 007986 8810 000C            0000C 64211    8570.              SRL   RS,L'PAGPAGM            | just page number
 00798A 5610 A726            0800C 64212    8571.              O     RS,=A(#ASIAUTH)         | allow authority for ASN tran
 00798E B6EE C048            00000 64213    8572.              STCTL R14,R14,#ASIAFTO        | current CR14
 007992 D403 C048 A72A 00000 08010 64214    8573.              NC    #ASIAFTO,=A(#ASIAFTM)   |
 007998 5610 C048            00000 64215    8574.              O     RS,#ASIAFTO             |
 00799C 5010 C048            00000 64216    8575.              ST    RS,#ASIAFTO             |
 0079A0 B7EE C048            00000 64217    8576.              LCTL  R14,R14,#ASIAFTO        | set AFTO in hardware
                                   64218    8577.
                                   64219    8578.          Get Authorization table
                                   64220    8579.
 DROP   @PAGASTI-72,R13            64221    8580.              VMGET LA:4,LOC=GLOBHI,FIX=YES
 USING  @VMGET-72,R13
 0079A4 D70A D048 D048 00000 00000 64248             +
 0079AA 4100 0004            00004 64260             +
 0079AE 5000 D048            00000 64265             +
 0079B2 D201 D050 A768 00008 0804E 64266             +
 0079B8 58F0 A70A/0DEF       07FF0 64269             +
 0079BE 1820                       64271    8581.              LR    RA,RVR                  Init Authorization table
 0079C0 D203 2000 A72E 00000 08014 64272    8582.              MVC   @RA(4),=X'AAAAAAAA'     | no secondary spaces
 0079C6 B110 2000            00000 64273    8583.              LRA   RS,@RA                  |
 0079CA 5010 618C            0018C 64274    8584.              ST    RS,PAGATO               Save for ASN allocation
 0079CE                            64275    8585.              CLEAR PAGATL                  | minimum length
 0079CE D701 6190 6190 00190 00190 64281             +
 0079D4 981F C008            00008 64282    8586.              PEND  ,
 DROP   PAGCB,R6
 DROP   #ASNINIT-72,R12
 DROP   ASNINIT,R10
 0079D8 9680 C000/0B0E 00000       64302             +
 DROP   @VMGET-72,R13
1PAGESERV (PAGE00) (09:42) (22MAR04) Initialize an ASN second table                                                         Page  357
0Loc    Object Code    Addr1 Addr2  Stmt Lv Lineno    Source Statement           (Hibal 5, Asmedit 3.3)  HLASM R4.0  2004/03/22 09.42
+___    ______ ____    _____ _____  ____ __ ______    ______ _________
0                                  64312    8588.
                                   64313    8589.
                                   64314    8590.       Initialize an ASN second table
                                   64315    8591.
                                   64316    8592.        Input - NONE
                                   64317    8593.
                                   64318    8594.       Output - RVR contains the RA of the new ASN second table
                                   64319    8595.
                                   64320    8596.

0000000                00000 00004 64321    8597.     @PAGASTI RECORD BEGIN
 000000                            64329  1 8598.     @ASI1ST    DS    A                       Address of first table entry
 000004                00004 00004 64330    8599.              END   ,
00079DE                            64340    8601.     PAGASTI  PROC  @PAGASTI                Init ASN second table
 0079DE D7C1C7C1E2E3C940           64347             +
 0079E6 0008/0000                  64348             +
 0079EA 900F D004/18AF       00004 64350             +
 USING  PAGASTI,R10
 0079F0 50D0 C000/18CD       00000 64365             +
 0079F6 9680 C000      00000       64367             +
 USING  @PAGASTI-72,R12
 0079FA 41D0 C050            00050 64381             +
 0079FE 5850 C048            00000 64382    8602.              L     RK,@ASI1ST              First table entry
 USING  @VMGET-72,R13              64383    8603.              VMGET L:=A(4096),LOC=GLOBHI,FIX=YES,PAGE=YES
 007A02 D70A D048 D048 00000 00000 64407             +
 007A08 5800 A62E            08018 64415             +
 007A0C 5000 D048            00000 64420             +
 007A10 D201 D050 A664 00008 0804E 64421             +
 007A16 9680 D052      0000A       64427             +
 007A1A 58F0 A606/0DEF       07FF0 64430             +
 007A20 1830                       64432    8604.              LR    RB,RVR                  1st AST address
 007A22 B100 3000            00000 64433    8605.              LRA   RVR,@RB                 | save for return
 007A26 5820 A5F6            07FE0 64434    8606.              L     RA,=X'80000000'         Value for invalidating
 007A2A 4140 0004            00004 64435    8607.              LA    RJ,4096/ASNAST          Init all ASTs, number of them
 007A2E                            64436    8608.              LOOP  BEGIN                   |
 USING  AFTE,R5                    64442  1 8609.                WITH  (AFTE,RK),BEGIN         Save pointer to this 2nd table
 007A2E B1E0 3000            00000 64456  2 8610.                  LRA   RAR,@RB                 |
 007A32 50E0 5000            00000 64457  2 8611.                  ST    RAR,AFTASTO             |
 007A36 4150 5004            00004 64458  2 8612.                  LA    RK,AFTNXT               |
 DROP   AFTE,R5                    64459  1 8613.                END   ,                       OF Save pointer to 2nd table
 USING  ASTE,R3                    64467  1 8614.                WITH  (ASTE,RB),BEGIN         |
 007A3A 4110 0040            00040 64481  2 8615.                  LA    RS,ASNASTN              Init AST entries
 007A3E                            64482  2 8616.                  LOOP  BEGIN                   |
 007A3E                            64488  3 8617.                    CLEAR ASTE
 007A3E D70F 3000 3000 00000 00000 64494  3          +
 007A44 5020 3000            00000 64495  3 8618.                    ST    RA,ASTATO               Invalidate this one
 007A48 4130 3010            00010 64496  3 8619.                    LA    RB,ASTNXT               on to next
 007A4C 4610 A054            07A3E 64497  2 8620.                  UNTIL (BCT,RS),END            OF Init AST entries
 DROP   ASTE,R3                    64507  1 8621.                END   ,                       OF AST address
 007A50 4640 A044            07A2E 64515    8622.              UNTIL (BCT,RJ),END            OF Init all ASTs
                                   64525    8623.     *                                      RVR = Real addr of 1st AST
 007A54 981F C008            00008 64526    8624.              PEND  ,
 DROP   @PAGASTI-72,R12
 DROP   PAGASTI,R10
1PAGESERV (PAGE00) (09:42) (22MAR04) Initialize an ASN second table                                                         Page  358
0Loc    Object Code    Addr1 Addr2  Stmt Lv Lineno    Source Statement           (Hibal 5, Asmedit 3.3)  HLASM R4.0  2004/03/22 09.42
+___    ______ ____    _____ _____  ____ __ ______    ______ _________
0007A58 9680 C000/0B0E 00000       64541             +
 DROP   @VMGET-72,R13
1PAGESERV (PAGE00) (09:42) (22MAR04) Paging interval management                                                             Page  359
0Loc    Object Code    Addr1 Addr2  Stmt Lv Lineno    Source Statement           (Hibal 5, Asmedit 3.3)  HLASM R4.0  2004/03/22 09.42
+___    ______ ____    _____ _____  ____ __ ______    ______ _________
0                                  64551    8626.
                                   64552    8627.
                                   64553    8628.       The following functions need to be monitored on a real time
                                   64554    8629.       interval.  This routine is entered on that regular interval
                                   64555    8630.
                                   64556    8631.         Number of long term fixed frames
                                   64557    8632.
                                   64558    8633.        Input - @PAGINTV
                                   64559    8634.                  If the parameter is zero, then longer term parameters
                                   64560    8635.                will be adjusted.
                                   64561    8636.
                                   64562    8637.       Output - none
                                   64563    8638.
                                   64564    8639.

0000000                00000 00025 64565    8640.     #PAGINTV RECORD BEGIN
 000000                            64573  1 8641.     #INTFLT0   DS    D                       Save for float reg 0
 000008                            64574  1 8642.     #INTFLT2   DS    D                       Save for float reg 2
 000010                            64575  1 8643.     #INTTIM    DS    D                       Real time elapse
 000018                            64576  1 8644.     #INTFLTW   DS    D                       Floating point work area
 000020                            64577  1 8645.     #INTFRAM   DS    E                       Frames swapped in interval
 000024                            64578  1 8646.     #INTPSWM   DS    X                       PSW mask for disabling
 000025                00025 00025 64579    8647.              END   ,
                                   64588    8648.     *
 007A5E                            64589    8649.     PAGINTV  PROC  @PAGINTV,#PAGINTV,SCOPE=GLOBAL
 007A5E D7C1C7C9D5E3E540           64595             +
 007A66 0008/0028                  64596             +
 007A6A 900F D004/18AF       00004 64598             +
 USING  PAGINTV,R10
 007A70 50D0 C000/18CD       00000 64613             +
 007A76 9680 C000      00000       64615             +
 USING  @PAGINTV-72,R12
 AUSING (#PAGINTV,@PAGINTV+8)
 007A7A 41D0 C078            00078 64634             +
 007A7E 6000 C050            00000 64635    8650.              STD   R0,#INTFLT0             Save FPR0
 007A82 6020 C058            00008 64636    8651.              STD   R2,#INTFLT2             Save FPR2
 007A86 5860 0200            00200 64637    8652.              PAGAD RPAG
 USING  PZERO,R0
 DROP   PZERO,R0
 USING  MAT,R6
 007A8A 5860 600C            0000C 64671             +
 DROP   MAT,R6
 USING  PAGCB,R6
                                   64693    8653.
                                   64694    8654.          Reset the upper limit on the number of frames we should have
                                   64695    8655.
 007A8E 5820 C048            00000 64696    8656.              L     RA,@PAGINT
 007A92 1222/4720 A04E       07AB8 64697    8657.              IF    (RA,NPOS),BEGIN
 007A98 83200010                   64711  1 8658.                SYSCTL RA,TYPE=MAXREAL
 007A9C 5920 6048            00048 64714  1 8659.                CEIL  RA,PAGFRAN
 007AA0 47D0 A03E            07AA8 64718  1          +
 007AA4 5820 6048            00048 64719  1          +
 007AA8 5020 60CC            000CC 64720  1 8660.                ST    RA,PAGMAXFR         Save maximum number of frames
 007AAC 1932/47D0 A04A       07AB4 64721  1 8661.                CEIL  RB,RA               Min can't be greater than max
 007AB2 1832                       64726  1          +
1PAGESERV (PAGE00) (09:42) (22MAR04) Paging interval management                                                             Page  360
0Current Usings:  (PAGCB,R6) (PAGINTV,R10) (@PAGINTV-72,R12)
0Loc    Object Code    Addr1 Addr2  Stmt Lv Lineno    Source Statement           (Hibal 5, Asmedit 3.3)  HLASM R4.0  2004/03/22 09.42
+___    ______ ____    _____ _____  ____ __ ______    ______ _________
0007AB4 5030 60C8            000C8 64727  1 8662.                ST    RB,PAGMINFR         Save minimum number of frames
 007AB8                            64728    8663.              END
                                   64732    8664.
                                   64733    8665.          Compute the elapsed seconds
                                   64734    8666.
 007AB8 9845 60F0            000F0 64735    8667.              LM    RJ,RK,PAGLTRT           TOD at last cycle
 007ABC B205 60F0      000F0       64736    8668.              STCK  PAGLTRT
 007AC0 9823 60F0            000F0 64737    8669.              LM    RA,RB,PAGLTRT
 007AC4 1F35/47B0 A062       07ACC 64738    8670.              SDLR  RA,RJ
 007ACA 0620/1F24                  64743             +
 007ACE 8C20 0008            00008 64745    8671.              SRDL  RA,8                    Convert TOD to float
 007AD2 9023 C060            00010 64746    8672.              STM   RA,RB,#INTTIM           |
 007AD6 9250 C060      00010       64747    8673.              MVI   #INTTIM,X'50'           |
 007ADA 6800 C060            00010 64748    8674.              LD    R0,#INTTIM              |
 007ADE 6D00 A566            07FD0 64749    8675.              DD    R0,=D'4096E6'           | seconds
                                   64750    8676.
                                   64751    8677.          Compute frames/second over the last interval
                                   64752    8678.
 007AE2 5820 6100            00100 64753    8679.              L     RA,PAGLTCNT             Frame count over interval
 007AE6 5830 627C            0027C 64754    8680.              L     RB,PAGMSIF              |
 007AEA 5030 6100            00100 64755    8681.              ST    RB,PAGLTCNT             |
 007AEE 1F32                       64756    8682.              SLR   RB,RA                   |
 007AF0 5030 C070            00020 64757    8683.              ST    RB,#INTFRAM             Convert frames to float
 007AF4 9246 C070      00020       64758    8684.              MVI   #INTFRAM,X'46'          |
 007AF8 7820 C070            00020 64759    8685.              LE    R2,#INTFRAM             |
 007AFC 7C20 A5B2            0801C 64760    8686.              ME    R2,=E'1'                | extend to double
 007B00 2D20                       64761    8687.              DDR   R2,R0                   Frames/second
                                   64762    8688.
                                   64763    8689.          Compute exponential average of frames/second
                                   64764    8690.
 007B02 7920 60DC            000DC 64765    8691.              IF    ('CE R2,PAGSRAVG',LT),BEGIN      Take highest of rates
 007B06 47B0 A0B8            07B22 64773             +
 007B0A 7800 A5B2            0801C 64778  1 8692.                LE    R0,=E'1'                Mul current rate by (1-factor)
 007B0E 7B00 60E0            000E0 64779  1 8693.                SE    R0,PAGSRATE             |
 007B12 7C00 A5B2            0801C 64780  1 8694.                ME    R0,=E'1'                | extend to double
 007B16 2C20                       64781  1 8695.                MDR   R2,R0                   |
 007B18 7800 60DC            000DC 64782  1 8696.                LE    R0,PAGSRAVG             Mul past rate by factor
 007B1C 7C00 60E0            000E0 64783  1 8697.                ME    R0,PAGSRATE             |
 007B20 2A20                       64784  1 8698.                ADR   R2,R0                   Add two together for exp avg
 007B22                            64785    8699.              END   ,                       OF Take highest of rates
 007B22 3522                       64789    8700.              LRER  R2,R2                    get short form
 007B24 7020 60DC            000DC 64790    8701.              STE   R2,PAGSRAVG               and save it
                                   64791    8702.
                                   64792    8703.          Compute the number of frames we need to have in reserve due to
                                   64793    8704.             the current swap-in rate.
                                   64794    8705.
 007B28 3802                       64795    8706.              LER   R0,R2                   Current swap frames/sec
 007B2A 7B00 610C            0010C 64796    8707.              SE    R0,PAGRESX0              - offset
 007B2E 7C00 6108            00108 64797    8708.              ME    R0,PAGRESM                * slope
 007B32 2B22                       64798    8709.              SDR   R2,R2
 007B34 7820 6110            00110 64799    8710.              LE    R2,PAGRESB
 007B38 2A02                       64800    8711.              ADR   R0,R2                      + intercept
 007B3A 6E00 A3BE            07E28 64801    8712.              AW    R0,FLTZERO
 007B3E 6000 C068            00018 64802    8713.              STD   R0,#INTFLTW
1PAGESERV (PAGE00) (09:42) (22MAR04) Paging interval management                                                             Page  361
0Current Usings:  (PAGCB,R6) (PAGINTV,R10) (@PAGINTV-72,R12)
0Loc    Object Code    Addr1 Addr2  Stmt Lv Lineno    Source Statement           (Hibal 5, Asmedit 3.3)  HLASM R4.0  2004/03/22 09.42
+___    ______ ____    _____ _____  ____ __ ______    ______ _________
0007B42 5850 C06C            0001C 64803    8714.              L     RK,#INTFLTW+4
 007B46 4950 6114            00114 64804    8715.              CEIL  RK,PAGRESMX
 007B4A 47D0 A0E8            07B52 64808             +
 007B4E 4850 6114            00114 64809             +
 007B52 4950 6116            00116 64810    8716.              FLOOR RK,PAGRESMN
 007B56 47B0 A0F4            07B5E 64814             +
 007B5A 4850 6116            00116 64815             +
 007B5E 5050 6118            00118 64816    8717.              ST    RK,PAGRESAMT            Save the reserve count
                                   64817    8718.
 007B62 7820 60DC            000DC 64818    8719.              LE    R2,PAGSRAVG
 007B66 3802                       64819    8720.              LER   R0,R2                   copy frame/s avg
 007B68                            64820    8721.     FRAMEADJ BEGIN ,                       Adjust real frame usage
                                   64825  1 8722.
                                   64826  1 8723.
                                   64827  1 8724.       See if we need to allocate any long term fixed frames
                                   64828  1 8725.
                                          1
0                                  64830  1 8727.
                                   64831  1 8728.            Compute the number of additional frames we should have
                                   64832  1 8729.
 007B68 1B55                       64833  1 8730.                CLEAR RK                      Preset to zero
 007B6A 7B20 60D4            000D4 64837  1 8731.                SE    R2,PAGSRHI              Compare with high rate
 007B6E 47D0 A11C            07B86 64838  1 8732.                IF    POS,BEGIN               Compute frames to get
 007B72 7C20 60E4            000E4 64849  2 8733.                  ME    R2,PAGSRMHI
 007B76 7E20 A3C6            07E30 64850  2 8734.                  AU    R2,FLTSZERO
 007B7A 7020 C070            00020 64851  2 8735.                  STE   R2,#INTFRAM
 007B7E 9200 C070      00020       64852  2 8736.                  MVI   #INTFRAM,0
 007B82 5850 C070            00020 64853  2 8737.                  L     RK,#INTFRAM
 007B86                            64854  1 8738.                END   ,                       OF Compute frames to get
                                   64858  1 8739.
                                   64859  1 8740.            Now compute the minimum number of frames we need to breathe.
                                   64860  1 8741.
 007B86 5840 6118            00118 64861  1 8742.                L     RJ,PAGRESAMT            Reserve due to swap-in rate
 007B8A 5E40 60B4            000B4 64862  1 8743.                AL    RJ,PAGFRES                and other reserves
 007B8E 5E40 6288            00288 64863  1 8744.                AL    RJ,PAGMSMAX                 plus max swap size
                                   64864  1 8745.
                                   64865  1 8746.            Figure how many more we need
                                   64866  1 8747.
 007B92 5F40 6060            00060 64867  1 8748.                SL    RJ,PAGFTCNT             Number needed - what we have
 007B96 5F40 6088            00088 64868  1 8749.                SL    RJ,PAGFLS
                                   64869  1 8750.
 007B9A 1945/47D0 A138       07BA2 64870  1 8751.                STMAX RJ,RK                   Max of two methods
 007BA0 1854                       64876  1          +
 007BA2 5840 60CC            000CC 64877  1 8752.                L     RJ,PAGMAXFR             Number avail for fixing
 007BA6 5F40 6050            00050 64878  1 8753.                SL    RJ,PAGFIXCNT            |
 007BAA 1945/47B0 A148       07BB2 64879  1 8754.                STMIN RJ,RK                   Limit the most we can get
 007BB0 1854                       64885  1          +
 007BB2 1255/47D0 A244       07CAE 64886  1 8755.                IF    (RK,POS),BEGIN          Do long term fixes
 007BB8 AC04 C074      00024       64900  2 8756.                  SLKOB PAGFRAL,#INTPSWM
 USING  @LOCKS-72,R13
 007BBC D203 D048 603C 00000 0003C 64918  2          +
 007BC2 58F0 602C/0DEF       0002C 64924  2          +
 007BC8 5950 605C            0005C 64926  2 8757.                  CEIL  RK,PAGUFCNT             Limit to total number of avail
1PAGESERV (PAGE00) (09:42) (22MAR04) Paging interval management                                                             Page  362
0Current Usings:  (PAGCB,R6) (PAGINTV,R10) (@PAGINTV-72,R12) (@LOCKS-72,R13)
0Loc    Object Code    Addr1 Addr2  Stmt Lv Lineno    Source Statement           (Hibal 5, Asmedit 3.3)  HLASM R4.0  2004/03/22 09.42
+___    ______ ____    _____ _____  ____ __ ______    ______ _________
0007BCC 47D0 A16A            07BD4 64930  2          +
 007BD0 5850 605C            0005C 64931  2          +
 007BD4 1255/47D0 A230       07C9A 64932  2 8758.                  IF    (RK,POS),BEGIN          There are frames to fix
                                   64946  3 8759.
                                   64947  3 8760.                Take frames from unfixed list
                                   64948  3 8761.
 007BDA 41E0 6054/1B00       00054 64949  3 8762.                    LREM  PAGUFHD,,(RK),LAST=(RJ),WR=RS
 007BE0 58F0 E008/1215       00008 64985  4          +
 007BE6 47D0 A1A4/1BF1       07C0E 64997  4          +
 007BEC 4740 A1A4            07C0E 65013  4          +
 007BF0 50F0 E008            00008 65019  4          +
 007BF4 58F0 E000/180F       00000 65026  4          +
 007BFA 58F0 F000            00000 65034  4          +
 007BFE 4610 A190            07BFA 65040  4          +
 007C02 5840 F004            00004 65047  4          +
 007C06 50E0 F004            00004 65048  4          +
 007C0A 50F0 E000            00000 65049  3          +
 007C0E 1880                       65054  3 8763.                    LR    RM,RVR                  Save first frame
 007C10                            65055  3 8764.                    SLKRL PAGFRAL,#INTPSWM
 007C10 D203 D048 603C 00000 0003C 65065  3          +
 007C16 58F0 6030/0DEF       00030 65071  3          +
 007C1C 8000 C074      00024       65073  3          +
                                   65074  3 8765.
                                   65075  3 8766.
                                   65076  3 8767.       If we must long term fix frames, we might have to wait.  First
                                   65077  3 8768.       free the lock so other frame management can go on.
                                   65078  3 8769.
                                          3
0007C20 1828                       65079  3 8770.                    LR    RA,RM                   First frame
 007C22 1815                       65080  3 8771.                    LR    RS,RK                   Count of frames
 007C24                            65081  3 8772.                    LOOP  BEGIN                   Fix frames
 USING  PFTE,R2                    65087  4 8773.                      WITH  (PFTE,RA)
 007C24 1832                       65100  4 8774.                     $LA    RB,PFTE                 Frame addr
 007C26 5F30 6044            00044 65107  4 8775.                      SL    RB,PAGPFTO              |
 007C2A 8930 0007            00007 65108  4 8776.                      SLL   RB,L'PAGPAGM-PFTLOG     |
 007C2E 83300005                   65109  4 8777.                      SYSCTL (RB),TYPE=PAGE         | and fix it
 007C32 9680 201F      0001F       65112  4 8778.                      SET   PFTPAGING               We can page on this one
 007C36 5820 2000            00000 65118  4 8779.                      L     RA,PFTFP                next frame
 007C3A 4610 A1BA            07C24 65119  3 8780.                    UNTIL (BCT,RS),END            OF Fix frames
 DROP   PFTE,R2
                                   65134  3 8781.     *--------------                        UNLOCKED CODE ^
 007C3E AC04 C074      00024       65135  3 8782.                    SLKOB PAGFRAL,#INTPSWM        Re-obtain frame lock
 007C42 D203 D048 603C 00000 0003C 65146  3          +
 007C48 58F0 602C/0DEF       0002C 65152  3          +
                                   65154  3 8783.     *  Add frames to LT fixed free list
 007C4E 1828                       65155  3 8784.                    LR    RA,RM                   First frame
 007C50 4110 6064/18E5       00064 65156  3 8785.                    LADD  PAGFHEAD,(RA),(RJ),(RK),WR=RS
 007C56 5EE0 1008            00008 65183  3          +
 007C5A 50E0 1008            00008 65184  3          +
 007C5E 58E0 1004            00004 65191  3          +
 007C62 5040 1004            00004 65196  3          +
 007C66 5010 4000            00000 65197  3          +
 007C6A 50E0 2004            00004 65202  3          +
1PAGESERV (PAGE00) (09:42) (22MAR04) Paging interval management                                                             Page  363
0Current Usings:  (PAGCB,R6) (PAGINTV,R10) (@PAGINTV-72,R12) (@LOCKS-72,R13)
0Loc    Object Code    Addr1 Addr2  Stmt Lv Lineno    Source Statement           (Hibal 5, Asmedit 3.3)  HLASM R4.0  2004/03/22 09.42
+___    ______ ____    _____ _____  ____ __ ______    ______ _________
0007C6E 5020 E000            00000 65203  3          +
                                   65205  3 8786.
                                   65206  3 8787.                Update counts of available frames
                                   65207  3 8788.
 007C72 5840 6050            00050 65208  3 8789.                    L     RJ,PAGFIXCNT            More fixed frames
 007C76 1E45                       65209  3 8790.                    ALR   RJ,RK                   |
 007C78 5040 6050            00050 65210  3 8791.                    ST    RJ,PAGFIXCNT            |
 007C7C 5840 6060            00060 65211  3 8792.                    L     RJ,PAGFTCNT             More frames available
 007C80                            65212  3 8793.                    LOOP  BEGIN                   |
 007C80 18F4                       65218  4 8794.                      LR    EPAR,RJ                 |
 007C82 1EF5                       65219  4 8795.                      ALR   EPAR,RK                 |
 007C84 BA4F 6060            00060 65220  4 8796.                      CS    RJ,EPAR,PAGFTCNT        |
 007C88 4770 A216            07C80 65221  3 8797.                    UNTIL EQUAL,END               |
 007C8C 58F0 0200            00200 65240  3 8798.                    L     EPAR,MATPTR             |
 USING  MAT,R15                    65241  3 8799.                    WITH  (MAT,EPAR),BEGIN        Update paging function
 007C90 5840 F0DC            000DC 65255  4 8800.                      L     RJ,MATPAGFN             |
 007C94 1E45                       65256  4 8801.                      ALR   RJ,RK                   |
 007C96 5040 F0DC            000DC 65257  4 8802.                      ST    RJ,MATPAGFN             |
 DROP   MAT,R15                    65258  3 8803.                    END   ,                       OF Update paging function
 007C9A                            65266  2 8804.                  END   ,                       OF There are frames to fix
 007C9A                            65270  2 8805.                  SLKRL PAGFRAL,#INTPSWM
 007C9A D203 D048 603C 00000 0003C 65280  2          +
 007CA0 58F0 6030/0DEF       00030 65286  2          +
 007CA6 8000 C074      00024       65288  2          +
 007CAA 47F0 A39A            07E04 65289  2 8806.                  EXIT  FRAMEADJ                Just got frames, don't release
 007CAE                            65292  1 8807.                END   ,                       OF Do long term fixes
1PAGESERV (PAGE00) (09:42) (22MAR04) Paging interval management                                                             Page  364
0Current Usings:  (PAGCB,R6) (PAGINTV,R10) (@PAGINTV-72,R12) (@LOCKS-72,R13)
0Loc    Object Code    Addr1 Addr2  Stmt Lv Lineno    Source Statement           (Hibal 5, Asmedit 3.3)  HLASM R4.0  2004/03/22 09.42
+___    ______ ____    _____ _____  ____ __ ______    ______ _________
0                                  65297  1 8809.
                                   65298  1 8810.
                                   65299  1 8811.       See if we should release any long term fixed frames
                                   65300  1 8812.
                                          1
0007CAE 5830 C048            00000 65301  1 8813.                L     RB,@PAGINT              Number of intervals left
 007CB2 1233/4720 A39A       07E04 65302  1 8814.                IF    (RB,NPOS),BEGIN         Need to reset the page max
                                   65316  2 8815.
                                   65317  2 8816.              See if we can release any long term fixed frames
                                   65318  2 8817.                We will try to free frames if 1) we are over the limit of
                                   65319  2 8818.              maximum suggested use, or 2) our swap rate is too low
                                   65320  2 8819.
                                   65321  2 8820.              Compute the number of frames we should release
                                   65322  2 8821.
 007CB8 1B55                       65323  2 8822.                  CLEAR RK                      Preset to zero
 007CBA 7820 60D8            000D8 65327  2 8823.                  LE    R2,PAGSRLO
 007CBE 3B20                       65328  2 8824.                  SER   R2,R0                   Compare with low rate
 007CC0 47D0 A26E            07CD8 65329  2 8825.                  IF    POS,BEGIN               Compute frames to free
 007CC4 7C20 60E8            000E8 65340  3 8826.                    ME    R2,PAGSRMLO
 007CC8 7E20 A3C6            07E30 65341  3 8827.                    AU    R2,FLTSZERO
 007CCC 7020 C070            00020 65342  3 8828.                    STE   R2,#INTFRAM
 007CD0 9200 C070      00020       65343  3 8829.                    MVI   #INTFRAM,0
 007CD4 5850 C070            00020 65344  3 8830.                    L     RK,#INTFRAM
 007CD8                            65345  2 8831.                  END   ,                       OF Compute frames to free
                                   65349  2 8832.
                                   65350  2 8833.              Now compute the most we can free and still breathe
                                   65351  2 8834.
 007CD8 5840 6118            00118 65352  2 8835.                  L     RJ,PAGRESAMT            Reserve due to swap-in rate
 007CDC 5E40 60B4            000B4 65353  2 8836.                  AL    RJ,PAGFRES                and other reserves
 007CE0 5E40 6288            00288 65354  2 8837.                  AL    RJ,PAGMSMAX                 plus max swap size
                                   65355  2 8838.
                                   65356  2 8839.              Figure how many we don't need
                                   65357  2 8840.
 007CE4 5F40 6060            00060 65358  2 8841.                  SL    RJ,PAGFTCNT             Number needed - what we have
 007CE8 5F40 6088            00088 65359  2 8842.                  SL    RJ,PAGFLS
 007CEC 1344                       65360  2 8843.                  LCR   RJ,RJ                   | most we can free and breathe
 007CEE 1945/47B0 A28C       07CF6 65361  2 8844.                  STMIN RJ,RK                   |
 007CF4 1854                       65367  2          +
                                   65368  2 8845.
                                   65369  2 8846.                    Don't ever go below minimum.
                                   65370  2 8847.
 007CF6 5840 6050            00050 65371  2 8848.                  L     RJ,PAGFIXCNT        Total frames
 007CFA 5F40 60C8            000C8 65372  2 8849.                  SL    RJ,PAGMINFR         Calc max frames we can free
 007CFE 1945/47B0 A29C       07D06 65373  2 8850.                  STMIN RJ,RK               Don't go below minimum size
 007D04 1854                       65379  2          +
                                   65380  2 8851.
                                   65381  2 8852.              Compute the number of frames we should free by virtue of
                                   65382  2 8853.              the maximum suggested amount
                                   65383  2 8854.
 007D06 5840 6050            00050 65384  2 8855.                  L     RJ,PAGFIXCNT
 007D0A 5F40 60CC            000CC 65385  2 8856.                  SL    RJ,PAGMAXFR
                                   65386  2 8857.
 007D0E 1945/47D0 A2AC       07D16 65387  2 8858.                  STMAX RJ,RK
1PAGESERV (PAGE00) (09:42) (22MAR04) Paging interval management                                                             Page  365
0Current Usings:  (PAGCB,R6) (PAGINTV,R10) (@PAGINTV-72,R12) (@LOCKS-72,R13)
0Loc    Object Code    Addr1 Addr2  Stmt Lv Lineno    Source Statement           (Hibal 5, Asmedit 3.3)  HLASM R4.0  2004/03/22 09.42
+___    ______ ____    _____ _____  ____ __ ______    ______ _________
0007D14 1854                       65393  2          +
 007D16 5950 6060            00060 65394  2 8859.                  CEIL  RK,PAGFTCNT             limit by free memory now
 007D1A 47D0 A2B8            07D22 65398  2          +
 007D1E 5850 6060            00060 65399  2          +
 007D22 5950 60EC            000EC 65400  2 8860.                  IF    (RK,LT,PAGSRTHR),'CLEAR RK'
 007D26 47B0 A2C2/1B55       07D2C 65412  2          +
                                   65426  2 8861.     *
 007D2C 1255/47D0 A39A       07E04 65427  2 8862.                  IF    (RK,NPOS),EXIT,FRAMEADJ No frames to free
 007D32 AC04 C074      00024       65444  2 8863.                  SLKOB PAGFRAL,#INTPSWM
 007D36 D203 D048 603C 00000 0003C 65455  2          +
 007D3C 58F0 602C/0DEF       0002C 65461  2          +
 007D42 5950 606C            0006C 65463  2 8864.                  CEIL  RK,PAGFCNT
 007D46 47D0 A2E4            07D4E 65467  2          +
 007D4A 5850 606C            0006C 65468  2          +
 007D4E 1255/47D0 A38A       07DF4 65469  2 8865.                  IF    (RK,POS),BEGIN          Do long term release
 007D54 41E0 6064/1B00       00064 65483  3 8866.                    LREM  PAGFHEAD,,(RK),LAST=(RJ),WR=RS
 007D5A 58F0 E008/1215       00008 65519  4          +
 007D60 47D0 A31E/1BF1       07D88 65531  4          +
 007D66 4740 A31E            07D88 65547  4          +
 007D6A 50F0 E008            00008 65553  4          +
 007D6E 58F0 E000/180F       00000 65560  4          +
 007D74 58F0 F000            00000 65568  4          +
 007D78 4610 A30A            07D74 65574  4          +
 007D7C 5840 F004            00004 65581  4          +
 007D80 50E0 F004            00004 65582  4          +
 007D84 50F0 E000            00000 65583  3          +
 007D88 1880                       65588  3 8867.                    LR    RM,RVR                  Save first frame
 007D8A 1828                       65589  3 8868.                    LR    RA,RM                   First frame
 007D8C 1815                       65590  3 8869.                    LR    RS,RK                   Count of frames
 007D8E                            65591  3 8870.                    LOOP  BEGIN                   Un-Fix frames
 USING  PFTE,R2                    65597  4 8871.                      WITH  (PFTE,RA)
 007D8E 1832                       65610  4 8872.                     $LA    RB,PFTE                 Frame addr
 007D90 5F30 6044            00044 65617  4 8873.                      SL    RB,PAGPFTO              |
 007D94 8930 0007            00007 65618  4 8874.                      SLL   RB,L'PAGPAGM-PFTLOG     |
 007D98 83300006                   65619  4 8875.                      SYSCTL (RB),TYPE=NOPAGE       | and un-fix it
 007D9C 947F 201F      0001F       65622  4 8876.                      CLEAR PFTPAGING               We can page on this one
 007DA0 5820 2000            00000 65629  4 8877.                      L     RA,PFTFP                next frame
 007DA4 4610 A324            07D8E 65630  3 8878.                    UNTIL (BCT,RS),END            OF Un-Fix frames
 DROP   PFTE,R2
                                   65645  3 8879.     *  Add frames to unfixed frame list
 007DA8 1828                       65646  3 8880.                    LR    RA,RM                   First frame
 007DAA 4110 6054/18E5       00054 65647  3 8881.                    LADD  PAGUFHD,(RA),(RJ),(RK),WR=RS
 007DB0 5EE0 1008            00008 65674  3          +
 007DB4 50E0 1008            00008 65675  3          +
 007DB8 58E0 1004            00004 65682  3          +
 007DBC 5040 1004            00004 65687  3          +
 007DC0 5010 4000            00000 65688  3          +
 007DC4 50E0 2004            00004 65693  3          +
 007DC8 5020 E000            00000 65694  3          +
1PAGESERV (PAGE00) (09:42) (22MAR04) Paging interval management                                                             Page  366
0Current Usings:  (PAGCB,R6) (PAGINTV,R10) (@PAGINTV-72,R12) (@LOCKS-72,R13)
0Loc    Object Code    Addr1 Addr2  Stmt Lv Lineno    Source Statement           (Hibal 5, Asmedit 3.3)  HLASM R4.0  2004/03/22 09.42
+___    ______ ____    _____ _____  ____ __ ______    ______ _________
0                                  65696  3 8882.
                                   65697  3 8883.                Update counts of available frames
                                   65698  3 8884.
 007DCC 5840 6050            00050 65699  3 8885.                    L     RJ,PAGFIXCNT            More fixed frames
 007DD0 1F45                       65700  3 8886.                    SLR   RJ,RK                   |
 007DD2 5040 6050            00050 65701  3 8887.                    ST    RJ,PAGFIXCNT            |
 007DD6 5840 6060            00060 65702  3 8888.                    L     RJ,PAGFTCNT             More frames available
 007DDA                            65703  3 8889.                    LOOP  BEGIN                   |
 007DDA 18F4                       65709  4 8890.                      LR    EPAR,RJ                 |
 007DDC 1FF5                       65710  4 8891.                      SLR   EPAR,RK                 |
 007DDE BA4F 6060            00060 65711  4 8892.                      CS    RJ,EPAR,PAGFTCNT        |
 007DE2 4770 A370            07DDA 65712  3 8893.                    UNTIL EQUAL,END               |
 007DE6 58F0 0200            00200 65731  3 8894.                    L     EPAR,MATPTR             |
 USING  MAT,R15                    65732  3 8895.                    WITH  (MAT,EPAR),BEGIN        Update paging function
 007DEA 5840 F0DC            000DC 65746  4 8896.                      L     RJ,MATPAGFN             |
 007DEE 1F45                       65747  4 8897.                      SLR   RJ,RK                   |
 007DF0 5040 F0DC            000DC 65748  4 8898.                      ST    RJ,MATPAGFN             |
 DROP   MAT,R15                    65749  3 8899.                    END   ,                       OF Update paging function
 007DF4                            65757  2 8900.                  END   ,                       OF Do long term release
 007DF4                            65761  2 8901.                  SLKRL PAGFRAL,#INTPSWM
 007DF4 D203 D048 603C 00000 0003C 65771  2          +
 007DFA 58F0 6030/0DEF       00030 65777  2          +
 007E00 8000 C074      00024       65779  2          +
                                   65780  2 8902.
 007E04                            65781  1 8903.                END   ,                       OF Need to reset the page max
 007E04                            65785    8904.              END   ,                       OF adjust real frame usage
                                   65789    8905.
                                   65790    8906.          See if we need more room
                                   65791    8907.
 007E04 58F0 A5B6/0DEF       08020 65792    8908.              ACALL MAKEROOM
                                   65799    8909.
                                   65800    8910.          Call the routine to wake up those who were waiting for a
                                   65801    8911.          resource
                                   65802    8912.
 007E0A 58F0 A5BA/0DEF       08024 65803    8913.              ACALL WAKELOOK
                                   65810    8914.
 007E10 6800 C050            00000 65811    8915.              LD    R0,#INTFLT0             Restore FPR0
 007E14 6820 C058            00008 65812    8916.              LD    R2,#INTFLT2             Restore FPR2
 007E18 981F C008            00008 65813    8917.              PEND  ,
 DROP   PAGCB,R6
 DROP   @PAGINTV-72,R12
 DROP   PAGINTV,R10
 007E1C 9680 C000/0B0E 00000       65833             +
 DROP   @LOCKS-72,R13
 007E28                            65842    8918.              DS    0D
 007E28 4E00000000000000           65843    8919.     FLTZERO  DC    X'4E00000000000000'     Unnormalized floating pt zero
 007E30 46000000                   65844    8920.     FLTSZERO DC    X'46000000'             Short flt pt zero
1PAGESERV (PAGE00) (09:42) (22MAR04) Paging system SMF routine                                                              Page  367
0Loc    Object Code    Addr1 Addr2  Stmt Lv Lineno    Source Statement           (Hibal 5, Asmedit 3.3)  HLASM R4.0  2004/03/22 09.42
+___    ______ ____    _____ _____  ____ __ ______    ______ _________
0                                  65846    8922.
                                   65847    8923.
                                   65848    8924.       Write System Management Facilities record
                                   65849    8925.
                                   65850    8926.        Input - none
                                   65851    8927.
                                   65852    8928.       Output - none
                                   65853    8929.
                                   65854    8930.

0000000                00000 00008 65855    8931.     #PAGSMF  RECORD BEGIN
 000000                            65863  1 8932.     #SMFTIME   DS    D                       TOD of this interval
 000008                00008 00008 65864    8933.              END   ,
0007E34                            65874    8935.     PAGSMF   PROC  ,#PAGSMF,SCOPE=GLOBAL
 007E34 D7C1C7E2D4C64040           65880             +
 007E3C 0000/0008                  65881             +
 007E40 900F D004/18AF       00004 65883             +
 USING  PAGSMF,R10
 007E46 50D0 C000/18CD       00000 65898             +
 007E4C 9680 C000      00000       65900             +
 USING  #PAGSMF-72,R12
 007E50 41D0 C050            00050 65914             +
 007E54 5860 0200            00200 65915    8936.              PAGAD RPAG
 USING  PZERO,R0
 DROP   PZERO,R0
 USING  MAT,R6
 007E58 5860 600C            0000C 65949             +
 DROP   MAT,R6
 USING  PAGCB,R6
 USING  @VMGET-72,R13              65971    8937.              VMGET L'SMFPAGE,LOC=GLOBHI
 007E5C D70A D048 D048 00000 00000 65995             +
 007E62 4100 0058            00058 66007             +
 007E66 5000 D048            00000 66012             +
 007E6A D201 D050 A210 00008 08050 66013             +
 007E70 58F0 A1B0/0DEF       07FF0 66016             +
 007E76 1850                       66018    8938.              LR    RK,RVR
 USING  SMFPAGE,R5                 66019    8939.              WITH  (SMFPAGE,RK)
 AUSING (SMFPFX,SMFPPFX)           66032    8940.              WITH  (SMFPFX,SMFPPFX)
 007E78                            66039    8941.              CLEAR SMFPAGE
 007E78 D757 5000 5000 00000 00000 66045             +
 007E7E 5840 0200            00200 66046    8942.              L     RJ,MATPTR
 USING  MAT,R4                     66047    8943.              WITH  (MAT,RJ),BEGIN
 007E82 D207 5008 40D4 00008 000D4 66061  1 8944.                MVC   SMFSYSTM,MATSNAME       Say who we are
 DROP   MAT,R4                     66062    8945.              END   ,
 007E88 D203 5010 A1E8 00010 08028 66070    8946.              MVC   SMFCAT,=CL4'ORVP'       Paging record
 007E8E D203 5014 A1EC 00014 0802C 66071    8947.              MVC   SMFNSEG,=A(3)           General, Paging, Swapping segs
                                   66072    8948.
                                   66073    8949.          Set offsets and lengths of segments
                                   66074    8950.
 007E94 D203 5018 A1F0 00018 08030 66075    8951.              MVC   SMFPGLOC,=A(SMFPGEN-SMFPAGE)
 007E9A D203 5024 A1F4 00024 08034 66076    8952.              MVC   SMFPGLEN,=A(L'SMFPGEN)
 007EA0 D203 501C A1F8 0001C 08038 66077    8953.              MVC   SMFPLOC,=A(SMFPPAGE-SMFPAGE)
 007EA6 D203 503C A1FC 0003C 0803C 66078    8954.              MVC   SMFPLEN,=A(L'SMFPPAGE)
 007EAC D203 5020 A200 00020 08040 66079    8955.              MVC   SMFSLOC,=A(SMFPSWAP-SMFPAGE)
1PAGESERV (PAGE00) (09:42) (22MAR04) Paging system SMF routine                                                              Page  368
0Current Usings:  (SMFPAGE,R5) (PAGCB,R6) (PAGSMF,R10) (#PAGSMF-72,R12) (@VMGET-72,R13)
0Loc    Object Code    Addr1 Addr2  Stmt Lv Lineno    Source Statement           (Hibal 5, Asmedit 3.3)  HLASM R4.0  2004/03/22 09.42
+___    ______ ____    _____ _____  ____ __ ______    ______ _________
0007EB2 D203 5048 A204 00048 08044 66080    8956.              MVC   SMFSLEN,=A(L'SMFPSWAP)
                                   66081    8957.
                                   66082    8958.          Elapsed real time
                                   66083    8959.
 007EB8 D207 C048 6230 00000 00230 66084    8960.              MVC   #SMFTIME,PAGMTIME
 007EBE B205 6230      00230       66085    8961.              STCK  PAGMTIME
 007EC2 9823 6230            00230 66086    8962.              LM    RA,RB,PAGMTIME          Store 2 middle bytes of elapse
 007EC6 9889 C048            00000 66087    8963.              LM    RM,RN,#SMFTIME          |
 007ECA 1F39                       66088    8964.              SLR   RB,RN                   |
 007ECC 47B0 A092/0620       07ED2 66089    8965.              IF    NEG,'DECR RA'           |
 007ED2 1F28                       66107    8966.              SLR   RA,RM                   |
 007ED4 8C20 0010            00010 66108    8967.              SRDL  RA,16                   |
 007ED8 5030 5028            00028 66109    8968.              ST    RB,SMFPTIME             |
                                   66110    8969.
 007EDC D203 502C 6050 0002C 00050 66111    8970.              MVC   SMFFRAME,PAGFIXCNT      Number of frames
                                   66112    8971.
                                   66113    8972.          Loop through paging data sets
                                   66114    8973.
0                                  66116    8975.     *        CLEAR RM,RN,RA,RB,RVR         Total, avail, I/O times, I/Os
                                   66117    8976.     *        L     RJ,PAGXPDS              Count external frames
                                   66118    8977.     *        LH    RS,PAGXPN               | number of data sets
                                   66119    8978.     *        LOOP  BEGIN                   |
                                   66120    8979.     *        WITH  (DSDES,RJ)
                                   66121    8980.     *        IF    (DSAID,NE,=CL4'BMCB'),'ABORT BADBMID'
                                   66122    8981.     *        AL    RM,DSCOUNT              Total
                                   66123    8982.     *        AL    RN,DSAVAIL              Available
                                   66124    8983.     *        L     RJ,DSCHAIN
                                   66125    8984.     *        UNTIL (BCT,RS),END            OF Count external frames
 007EE2 5880 623C            0023C 66126    8985.              L     RM,PAGMXPG              Number of external frames
 007EE6 5080 5038            00038 66127    8986.              ST    RM,SMFXPT
 007EEA 5F80 61C4            001C4 66128    8987.              SL    RM,PAGXPRCNT            Number alloc
 007EEE 5080 5030            00030 66129    8988.              ST    RM,SMFXPAGE             |
 007EF2 5980 6238            00238 66130    8989.              STMAX RM,PAGMXPMX             Maximum observedalloc
 007EF6 47D0 A0BE            07EFE 66135             +
 007EFA 5080 6238            00238 66136             +
 007EFE D203 5034 6238 00034 00238 66137    8990.              MVC   SMFXPMX,PAGMXPMX        |
                                   66138    8991.
                                   66139    8992.          Number of swap slots
                                   66140    8993.
 007F04 5880 6244            00244 66141    8994.              L     RM,PAGMXSW              Max observed alloc swap slots
 007F08 5F80 61E4            001E4 66142    8995.              SL    RM,PAGXSRCNT            |
 007F0C 5980 6240            00240 66143    8996.              STMAX RM,PAGMXSMX             |
 007F10 47D0 A0D8            07F18 66148             +
 007F14 5080 6240            00240 66149             +
                                   66150    8997.
                                   66151    8998.          Fill in paging section
                                   66152    8999.
 007F18 5820 6290            00290 66153    9000.              L     RA,PAGMPON              Number of I/Os
 007F1C 5E20 6294            00294 66154    9001.              AL    RA,PAGMPIN              |
 007F20 5020 5040            00040 66155    9002.              ST    RA,SMFPGDAT             |
 007F24 9823 6298            00298 66156    9003.              LM    RA,RB,PAGMPOT           Time of I/Os
 007F28 9889 62A0            002A0 66157    9004.              LM    RM,RN,PAGMPIT           |
 007F2C 1E39/47C0 A0F6       07F36 66158    9005.              ADLR  RA,RM                   |
1PAGESERV (PAGE00) (09:42) (22MAR04) Paging system SMF routine                                                              Page  369
0Current Usings:  (SMFPAGE,R5) (PAGCB,R6) (PAGSMF,R10) (#PAGSMF-72,R12) (@VMGET-72,R13)
0Loc    Object Code    Addr1 Addr2  Stmt Lv Lineno    Source Statement           (Hibal 5, Asmedit 3.3)  HLASM R4.0  2004/03/22 09.42
+___    ______ ____    _____ _____  ____ __ ______    ______ _________
0007F32 5E20 A19C/1E28       07FDC 66173             +
 007F38 8C20 0010            00010 66179    9006.              SRDL  RA,16                   |
 007F3C 5030 5044            00044 66180    9007.              ST    RB,SMFPGDAT+4           | 2 middle bytes of TOD
                                   66181    9008.
                                   66182    9009.          Fill in swapping section
                                   66183    9010.
 007F40 5820 6260            00260 66184    9011.              L     RA,PAGMSON              Number of swaps
 007F44 5E20 6278            00278 66185    9012.              AL    RA,PAGMSIN              |
 007F48 5020 5050            00050 66186    9013.              ST    RA,SMFSWDAT             |
 007F4C 5820 6264            00264 66187    9014.              L     RA,PAGMSOF              Number of frames swapped
 007F50 5E20 627C            0027C 66188    9015.              AL    RA,PAGMSIF              |
 007F54 5020 504C            0004C 66189    9016.              ST    RA,SMFSCNT              |
 007F58 9823 6268            00268 66190    9017.              LM    RA,RB,PAGMSOTM          Time of I/Os
 007F5C 9889 6280            00280 66191    9018.              LM    RM,RN,PAGMSITM          |
 007F60 1E39/47C0 A12A       07F6A 66192    9019.              ADLR  RA,RM                   |
 007F66 5E20 A19C/1E28       07FDC 66207             +
 007F6C 8C20 0010            00010 66213    9020.              SRDL  RA,16                   |
 007F70 5030 5054            00054 66214    9021.              ST    RB,SMFSWDAT+4           | 2 middle bytes of TOD
                                   66215    9022.
                                   66216    9023.          Write SMF record
                                   66217    9024.
 007F74 4120 5000            00000 66218    9025.              LA    RA,SMFPAGE              Location
 007F78 4130 0058            00058 66219    9026.              LA    RB,L'SMFPAGE            Length
 007F7C BF38 A212            08052 66220    9027.              ICM   RB,8,=AL1(SMFNUM)       SMF number
 007F80 8323000D                   66221    9028.              SYSCTL RA,RB,TYPE=SMF
                                   66224    9029.
                                   66225    9030.          Free buffer
                                   66226    9031.
 DROP   @VMGET-72,R13              66227    9032.              VMFREE A=LA:SMFPAGE,L'SMFPAGE,LOC=GLOBHI
 USING  @VMFREE-72,R13
 007F84 D709 D048 D048 00000 00000 66254             +
 007F8A 4100 0058            00058 66266             +
 007F8E 5000 D04C            00004 66271             +
 007F92 5050 D048            00000 66282             +
 007F96 D201 D050 A210 00008 08050 66283             +
 007F9C 58F0 A208/0DEF       08048 66286             +
 007FA2 981F C008            00008 66288    9033.              PEND  ,
 DROP   SMFPAGE,R5
 DROP   PAGCB,R6
 DROP   #PAGSMF-72,R12
 DROP   PAGSMF,R10
 007FA6 9680 C000/0B0E 00000       66313             +
 DROP   @VMFREE-72,R13
1PAGESERV (PAGE00) (09:42) (22MAR04) MP-ORVYL Real Memory / Paging Manager Services                                         Page  370
0Loc    Object Code    Addr1 Addr2  Stmt Lv Lineno    Source Statement           (Hibal 5, Asmedit 3.3)  HLASM R4.0  2004/03/22 09.42
+___    ______ ____    _____ _____  ____ __ ______    ______ _________
0007FB0                            66323    9035.              LTORG ,
 007FB0 D7C3C2D3D6C3D240           66325                             =CL16'PCBLOCK'
 007FC0 D7C1C7C1E2D54040           66326                             =CL16'PAGASN'
 007FD0 48F4240000000000           66327                             =D'4096E6'
 007FD8 00000000                   66328                             =V(AWAITAS)
 007FDC 00000001                   66329                             =A(1)
 007FE0 80000000                   66330                             =X'80000000'
 007FE4 FFFFFFFF                   66331                             =X'FFFFFFFF'
 007FE8 00000005                   66332                             =A(WKLCOUNT)
 007FEC 00000000                   66333                             =V(SIGNALAS)
 007FF0 00000000                   66334                             =V(VMGET)
 007FF4 D7C3C240                   66335                             =CL4'PCB'
 007FF8 00000000                   66336                             =V(LKCRE)
 007FFC 00000020                   66337                             =A(L'SGTFINV)
 008000 00000400                   66338                             =A(256*L'PGTFINV)
 008004 00001000                   66339                             =A(ASNAFT)
 008008 00000100                   66340                             =A(PAGPAGEL/L'ASTE)
 00800C 00080000                   66341                             =A(#ASIAUTH)
 008010 FFF00000                   66342                             =A(#ASIAFTM)
 008014 AAAAAAAA                   66343                             =X'AAAAAAAA'
 008018 00001000                   66344                             =A(4096)
 00801C 41100000                   66345                             =E'1'
 008020 00001872                   66346                             =A(MAKEROOM)
 008024 000075AC                   66347                             =A(WAKELOOK)
 008028 D6D9E5D7                   66348                             =CL4'ORVP'
 00802C 00000003                   66349                             =A(3)
 008030 00000024                   66350                             =A(SMFPGEN-SMFPAGE)
 008034 00000018                   66351                             =A(L'SMFPGEN)
 008038 0000003C                   66352                             =A(SMFPPAGE-SMFPAGE)
 00803C 0000000C                   66353                             =A(L'SMFPPAGE)
 008040 00000048                   66354                             =A(SMFPSWAP-SMFPAGE)
 008044 00000010                   66355                             =A(L'SMFPSWAP)
 008048 00000000                   66356                             =V(VMFREE)
 00804C 0006                       66357                             =Y(WKLLEN)
 00804E 3F00                       66358                             =Y(63*256+0)
 008050 3B00                       66359                             =Y(59*256+0)
 008052 B7             08053 0A6E0 66360                             =AL1(SMFNUM)
1PAGESERV (PAGE00) (09:42) (22MAR04) Initialize page frame resource                                                         Page  371
0Loc    Object Code    Addr1 Addr2  Stmt Lv Lineno    Source Statement           (Hibal 5, Asmedit 3.3)  HLASM R4.0  2004/03/22 09.42
+___    ______ ____    _____ _____  ____ __ ______    ______ _________
0                                  66365    9037.     *NEST,1
                                   66366    9038.
                                   66367    9039.
                                   66368    9040.       Initialize the page frame resource
                                   66369    9041.
                                   66370    9042.

0000000                00000 00030 66371    9043.     #PFINIT  RECORD BEGIN
 000000                            66379  1 9044.     #PFISTO    DS    A                       Segment table origin
                                   66380  1 9045.     #PFIUSED   LHEAD PFX=#PFI                Temporary frames list
                                   66381  1 01-LHEAD +#PFIUSED   EQU   *,12,C'N'
 000004                            66382  1 01-LHEAD +#PFIFP     DS    A                       Forward pointer
 000008                            66383  1 01-LHEAD +#PFIBP     DS    A                       Backward pointer
 00000C                            66384  1 01-LHEAD +#PFICNT    DS    A                       Number of elements in list
 000010                            66385  1 9046.     #PFISEGE   DS    A                       Segment entry
 000014                            66386  1 9047.     #PFISEG#   DS    A                       | number of entries
 000018                            66387  1 9048.     #PFIPAGE   DS    A                       Page entry
 00001C                            66388  1 9049.     #PFIPAG#   DS    A                       | number of entries
 000020                            66389  1 9050.     #PFIPTVA   DS    A                       Virtual address of PTs
 000024                            66390  1 9051.     #PFIXP#    DS    A                       Number of cur external page
 000028                            66391  1 9052.     #PFILOOP   DS    2A                      Doubleword for loop vars
 000030                00030 00030 66392    9053.              END   ,
0008054                            66402    9055.     PFINIT   PROC  ,#PFINIT
 008054 D7C6C9D5C9E34040           66409             +
 00805C 0000/0030                  66410             +
 008060 900F D004/18AF       00004 66412             +
 USING  PFINIT,R10
 008066 50D0 C000/18CD       00000 66427             +
 00806C 9680 C000      00000       66429             +
 USING  #PFINIT-72,R12
 008070 41D0 C078            00078 66443             +
 008074                            66444    9056.              CLEAR #PFIXP#                 External frame alloc init
 008074 D703 C06C C06C 00024 00024 66450             +
 00807A 5860 0200            00200 66451    9057.              PAGAD RPAG
 USING  PZERO,R0
 DROP   PZERO,R0
 USING  MAT,R6
 00807E 5860 600C            0000C 66485             +
 DROP   MAT,R6
 USING  PAGCB,R6
                                   66507    9058.
 008082 83200010                   66508    9059.              SYSCTL RA,TYPE=MAXREAL    Max frames to use (sets RA & RB)
 008086 5030 60C8            000C8 66511    9060.              ST    RB,PAGMINFR         Save min number of frames allowed
 00808A 1832                       66512    9061.              LR    RB,RA               RB = max number of frames
                                   66513    9062.
 00808C 83200001                   66514    9063.              SYSCTL RA,TYPE=MEMSIZE    Number of frames in machine
 008090 5020 6048            00048 66517    9064.              ST    RA,PAGFRAN          RA = number of frames in machine
                                   66518    9065.
 008094 1932/47D0 A03C       0809C 66519    9066.              CEIL  RB,RA                   |
 00809A 1832                       66524             +
 00809C 5030 60CC            000CC 66525    9067.              ST    RB,PAGMAXFR             |
 0080A0 8920 0005            00005 66526    9068.              SLL   RA,PFTLOG               Get page frame table
 USING  @VMGET-72,R13              66527    9069.              VMGET (RA),LOC=GLOBHI,FIX=YES
 0080A4 D70A D048 D048 00000 00000 66551             +
1PAGESERV (PAGE00) (09:42) (22MAR04) Initialize page frame resource                                                         Page  372
0Current Usings:  (PAGCB,R6) (PFINIT,R10) (#PFINIT-72,R12) (@VMGET-72,R13)
0Loc    Object Code    Addr1 Addr2  Stmt Lv Lineno    Source Statement           (Hibal 5, Asmedit 3.3)  HLASM R4.0  2004/03/22 09.42
+___    ______ ____    _____ _____  ____ __ ______    ______ _________
00080AA 5020 D048            00000 66561             +
 0080AE D201 D050 A7C0 00008 08820 66562             +
 0080B4 58F0 A760/0DEF       087C0 66565             +
 0080BA 5000 6044            00044 66567    9070.              ST    RVR,PAGPFTO             |
 0080BE 1812                       66568    9071.              LR    RS,RA                   | Clear page frame table
 0080C0 1B33                       66569    9072.              CLEAR RB                      |
                                   66573    9073.              REGCH (RVR,R0),(RS,R1)        |
 0080C2 0E02                       66574    9074.              MVCL  RVR,RA                  |
                                   66575    9075.     *  Link frame table entries together
 0080C4 5820 6044            00044 66576    9076.              L     RA,PAGPFTO              First entry
 0080C8 4130 6064            00064 66577    9077.              LA    RB,PAGFHEAD             Previous entry
 0080CC 5810 6048            00048 66578    9078.              L     RS,PAGFRAN              Number of entries
 0080D0 5010 606C            0006C 66579    9079.              ST    RS,PAGFCNT              |
 0080D4                            66580    9080.              LOOP  BEGIN                   Link together
 0080D4 5020 3000            00000 66586  1 9081.                WITH  (LELEM,RB),'ST RA,LFP'  | point fwd
 USING  LELEM,R3
 DROP   LELEM,R3
 0080D8 5030 2004            00004 66610  1 9082.                WITH  (LELEM,RA),'ST RB,LBP'  | point back
 USING  LELEM,R2
 DROP   LELEM,R2
 0080DC 1832                       66634  1 9083.                LR    RB,RA                   | advance pointer
 0080DE 4120 2020            00020 66635  1 9084.                WITH  (PFTE,RA),'LA RA,PFTNXT'
 USING  PFTE,R2
 DROP   PFTE,R2
 0080E2 4610 A074            080D4 66659    9085.              UNTIL (BCT,RS),END            OF Link together
 0080E6 4120 6064            00064 66669    9086.              LA    RA,PAGFHEAD             Close circular list
 0080EA 5020 3000            00000 66670    9087.              WITH  (LELEM,RB),'ST RA,LFP'  | point fwd
 USING  LELEM,R3
 DROP   LELEM,R3
 0080EE 5030 2004            00004 66694    9088.              WITH  (LELEM,RA),'ST RB,LBP'  | point back
 USING  LELEM,R2
 DROP   LELEM,R2
                                   66718    9089.
                                   66719    9090.
                                   66720    9091.       Figure which frames are already allocated
                                   66721    9092.

00080F2 B611 C048            00000 66722    9093.              STCTL R1,R1,#PFISTO           Seg table origin/len
 0080F6 5820 C048            00000 66723    9094.              L     RA,#PFISTO              |
 0080FA 1832                       66724    9095.              LR    RB,RA                   |
 0080FC 5420 A764            087C4 66725    9096.              N     RA,=A(PAGSTOM)          | origin
 008100 5430 A768            087C8 66726    9097.              N     RB,=A(PAGSTLM)          | number of entries
 008104 5E30 A76C            087CC 66727    9098.              INCR  RB                      | |
 008108 8930 0004            00004 66730    9099.              SLL   RB,4                    | |
 00810C 5840 60B8            000B8 66731    9100.              L     RJ,PAGMEG               Num of extra meg in hardware
 008110 1344                       66732    9101.              LCR   RJ,RJ                   |
 008112 1E43                       66733    9102.              ALR   RJ,RB                   |
 008114 5930 60B8            000B8 66734    9103.              CEIL  RB,PAGMEG               |
 008118 47D0 A0C0            08120 66738             +
 00811C 5830 60B8            000B8 66739             +
 008120 9023 C058            00010 66740    9104.              STM   RA,RB,#PFISEGE          Seg entry/number of entries
 008124 48F0 60BC            000BC 66741    9105.              LH    EPAR,PAGSEGP            Number of pages/seg table
 008128 5870 6018            00018 66742    9106.              L     RPCB,PAGCASB            PCB address
1PAGESERV (PAGE00) (09:42) (22MAR04) Initialize page frame resource                                                         Page  373
0Current Usings:  (PAGCB,R6) (PFINIT,R10) (#PFINIT-72,R12) (@VMGET-72,R13)
0Loc    Object Code    Addr1 Addr2  Stmt Lv Lineno    Source Statement           (Hibal 5, Asmedit 3.3)  HLASM R4.0  2004/03/22 09.42
+___    ______ ____    _____ _____  ____ __ ______    ______ _________
000812C 5870 7020            00020 66743    9107.              WITH  (ASB,RPCB),'L RPCB,ASBPAGB'
 USING  ASB,R7
 DROP   ASB,R7
 USING  ASBPCB,R7                  66767    9108.              WITH  (ASBPCB,RPCB)
 008130 5810 7014            00014 66780    9109.              L     RS,PCBRA                DAT-OFF
 008134 ACFB 70B5      000B5       66781    9110.              DATOFF PCBPSWM                |
                                   66783    9111.     *  Count frames used by page and segment tables.  EPAR has number of
                                   66784    9112.     * frames needed for segment table.
 008138                            66785    9113.              LOOP  BEGIN                   Count
 USING  SGTE,R2                    66791  1 9114.                WITH  (SGTE,RA)
 008138 9120 2003      00003       66804  1 9115.                IF    ~SGTFINV,BEGIN          Valid segment
 00813C 4710 A0E4            08144 66814  1          +
 008140 5EF0 A76C            087CC 66819  2 9116.                  INCR  EPAR                    | one more
 008144                            66822  1 9117.                END   ,
 008144 4120 2004            00004 66826  1 9118.                LA    RA,SGTNXT               Next seg table entry
 008148 4630 A0D8            08138 66827    9119.              UNTIL (BCT,RB),END            OF Count
 DROP   SGTE,R2
                                   66842    9120.
 00814C 1244/47D0 A132       08192 66843    9121.              IF    (RJ,POS),BEGIN          Check for segs beyond max
 008152                            66857  1 9122.                LOOP  BEGIN                   Check entries beyond max
 USING  SGTE,R2                    66863  2 9123.                  WITH  (SGTE,RA)
 008152 9120 2003      00003       66876  2 9124.                  IF    ~SGTFINV,BEGIN
 008156 4710 A12A            0818A 66886  2          +
 00815A AC04 021B      0021B       66891  3 9125.                    ABORT PAGSEGINIT
 USING  PZERO,R0
 00815E 9680 021A      0021A       66909  3          +
 008162 50F0 021C            0021C 66910  3          +
 008166 58F0 0210            00210 66911  3          +
 00816A 89F0 0010            00010 66912  3          +
 00816E 88F0 0010            00010 66913  3          +
 008172 41F0 F000            00000 66914  3          +
 008176 AEFF 0006            00006 66915  3          +
 00817A D7C1C7E2C5C7C9D5           66916  3          +
 DROP   PZERO,R0
 00818A                            66925  2 9126.                  END   ,
 00818A 4120 2004            00004 66929  2 9127.                  LA    RA,SGTNXT
 00818E 4640 A0F2            08152 66930  1 9128.                UNTIL (BCT,RJ),END            OF Check entries beyond max
 DROP   SGTE,R2
 008192                            66945    9129.              END   ,                       OF Check for segs beyond max
 DROP   ASBPCB,R7                  66949    9130.              WITH  (ASBPCB,RS),BEGIN       PCB addr - RA
 USING  ASBPCB,R1
 008192 8000 10B5      000B5       66971  1 9131.                DATON PCBPSWM                 DAT-ON
 USING  ASBPCB,R7                  66973    9132.              END   ,                       OF PCB addr
 DROP   ASBPCB,R1
                                   66990    9133.
 008196 89F0 000C            0000C 66991    9134.              SLL   EPAR,L'PAGPAGM          Get page/seg tables from VM
 00819A 181F                       66992    9135.              LR    RS,EPAR                 |
 00819C                            66993    9136.              VMGET (RS),LOC=GLOBHI,FIX=YES,PAGE=YES
 00819C D70A D048 D048 00000 00000 67010             +
 0081A2 5010 D048            00000 67020             +
 0081A6 D201 D050 A7C0 00008 08820 67021             +
 0081AC 9680 D052      0000A       67027             +
 0081B0 58F0 A760/0DEF       087C0 67030             +
 0081B6 5000 701C            0001C 67032    9137.              ST    RVR,PCBPSTO             New PSTO that we will build
1PAGESERV (PAGE00) (09:42) (22MAR04) Initialize page frame resource                                                         Page  374
0Current Usings:  (PAGCB,R6) (ASBPCB,R7) (PFINIT,R10) (#PFINIT-72,R12) (@VMGET-72,R13)
0Loc    Object Code    Addr1 Addr2  Stmt Lv Lineno    Source Statement           (Hibal 5, Asmedit 3.3)  HLASM R4.0  2004/03/22 09.42
+___    ______ ____    _____ _____  ____ __ ______    ______ _________
0                                  67033    9138.              REGCH (RVR,R0),(RS,R1)        | clear seg/page memory tbls
 0081BA 1B33                       67034    9139.              CLEAR RB                      |
 0081BC 0E02                       67038    9140.              MVCL  RVR,RA                  |
                                   67039    9141.
                                   67040    9142.
                                   67041    9143.       Take used frames off of the free frames list, hardware segment
                                   67042    9144.       tables frames first.
                                   67043    9145.

00081BE 4110 C04C            00004 67044    9146.              LA    RS,#PFIUSED             Init used frames list
 0081C2 5010 C04C            00004 67045    9147.              ST    RS,#PFIFP               |
 0081C6 5010 C050            00008 67046    9148.              ST    RS,#PFIBP               |
 0081CA                            67047    9149.              CLEAR #PFICNT                 |
 0081CA D703 C054 C054 0000C 0000C 67053             +
                                   67054    9150.
                                   67055    9151.          NB - This assumes that hardware segment tables have a maximum
                                   67056    9152.               length of 4K and start on a 4K boundary.
                                   67057    9153.
 0081D0 5820 C058            00010 67058    9154.              L     RA,#PFISEGE             Seg table RA => PFT entry
 0081D4 8820 0007            00007 67059    9155.              SRL   RA,L'PAGPAGM-PFTLOG     |
 0081D8 5E20 6044            00044 67060    9156.              AL    RA,PAGPFTO              |
 USING  PFTE,R2                    67061    9157.              WITH  (PFTE,RA),BEGIN         |
 0081DC 41E0 6064/1B00       00064 67075  1 9158.                LREM  PAGFHEAD,LA:PFTE,WR=RS  Seg table frame off free list
 0081E2 58F0 E008            00008 67110  2          +
 0081E6 4110 0001/1BF1       00001 67118  2          +
 0081EC 4740 A1A8            08208 67129  2          +
 0081F0 50F0 E008/18F2       00008 67135  2          +
 0081F6 180F/58E0 F004       00004 67142  2          +
 0081FC 58F0 F000            00000 67150  2          +
 008200 50E0 F004            00004 67151  2          +
 008204 50F0 E000            00000 67152  1          +
 008208 4110 C04C            00004 67157  1 9159.                LADD  #PFIUSED,LA:PFTE,WR=RS  |
 00820C 41E0 0001            00001 67188  1          +
 008210 5EE0 1008            00008 67189  1          +
 008214 50E0 1008            00008 67190  1          +
 008218 58E0 1004            00004 67197  1          +
 00821C 5020 1004            00004 67203  1          +
 008220 5010 2000            00000 67204  1          +
 008224 50E0 2004            00004 67210  1          +
 008228 5020 E000            00000 67211  1          +
 DROP   PFTE,R2                    67213    9160.              END   ,                       OF PFTE addr
                                   67221    9161.
                                   67222    9162.
                                   67223    9163.       Loop through segment table
                                   67224    9164.

000822C 9823 C058            00010 67225    9165.              LM    RA,RB,#PFISEGE          Seg entry, num of entries
 008230 5810 7014            00014 67226    9166.              L     RS,PCBRA                DAT-OFF
 008234 ACFB 70B5      000B5       67227    9167.              DATOFF PCBPSWM                |
 008238 1871                       67229    9168.              LR    RPCB,RS                 | RA
 00823A                            67230    9169.              LOOP  BEGIN                   Look @ all entries in seg tbl
 USING  SGTE,R2                    67236  1 9170.                WITH  (SGTE,RA)
1PAGESERV (PAGE00) (09:42) (22MAR04) Initialize page frame resource                                                         Page  375
0Current Usings:  (SGTE,R2) (PAGCB,R6) (ASBPCB,R7) (PFINIT,R10) (#PFINIT-72,R12) (@VMGET-72,R13)
0Loc    Object Code    Addr1 Addr2  Stmt Lv Lineno    Source Statement           (Hibal 5, Asmedit 3.3)  HLASM R4.0  2004/03/22 09.42
+___    ______ ____    _____ _____  ____ __ ______    ______ _________
000823A 9120 2003      00003       67249  1 9171.                IF    ~SGTFINV,BEGIN          Valid segment
 00823E 4710 A32A            0838A 67259  1          +
                                   67264  2 9172.                  REGCH (RAR,R14),(EPAR,R15)
 008242 58E0 2000            00000 67265  2 9173.                  L     RAR,SGTAD               Compute page table address/len
 008246 5810 7010            00010 67266  2 9174.                  L     RS,PCBVA                | DAT-ON
 00824A 8000 70B5      000B5       67267  2 9175.                  DATON PCBPSWM                 | |
 00824E 1871                       67269  2 9176.                  LR    RPCB,RS                 | | VA
 008250 18FE                       67270  2 9177.                  LR    EPAR,RAR                | num of page table entries
 008252 54F0 A770            087D0 67271  2 9178.                  N     EPAR,=A(SGPTLMSK)       |
 008256 5EF0 A76C            087CC 67272  2 9179.                  INCR  EPAR                    |
 00825A 89F0 0004            00004 67275  2 9180.                  SLL   EPAR,4                  |
 00825E 54E0 A774            087D4 67276  2 9181.                  N     RAR,=A(SGTADMSK)        | address mask
 008262 90EF C060            00018 67277  2 9182.                  STM   RAR,EPAR,#PFIPAGE       PT addr/num entries
 008266 184E                       67278  2 9183.                  LR    RJ,RAR                  Remove from free frames
 008268 8840 0007            00007 67279  2 9184.                  SRL   RJ,L'PAGPAGM-PFTLOG     |
 00826C 5E40 6044            00044 67280  2 9185.                  AL    RJ,PAGPFTO              |
 USING  PFTE,R4                    67281  2 9186.                  WITH  (PFTE,RJ),BEGIN         |
 008270 41E0 6064/1B00       00064 67295  3 9187.                    LREM  PAGFHEAD,LA:PFTE,WR=RS  |
 008276 58F0 E008            00008 67330  4          +
 00827A 4110 0001/1BF1       00001 67338  4          +
 008280 4740 A23C            0829C 67349  4          +
 008284 50F0 E008/18F4       00008 67355  4          +
 00828A 180F/58E0 F004       00004 67362  4          +
 008290 58F0 F000            00000 67370  4          +
 008294 50E0 F004            00004 67371  4          +
 008298 50F0 E000            00000 67372  3          +
 00829C 4110 C04C            00004 67377  3 9188.                    LADD  #PFIUSED,LA:PFTE,WR=RS  |
 0082A0 41E0 0001            00001 67408  3          +
 0082A4 5EE0 1008            00008 67409  3          +
 0082A8 50E0 1008            00008 67410  3          +
 0082AC 58E0 1004            00004 67417  3          +
 0082B0 5040 1004            00004 67423  3          +
 0082B4 5010 4000            00000 67424  3          +
 0082B8 50E0 4004            00004 67430  3          +
 0082BC 5040 E000            00000 67431  3          +
 DROP   PFTE,R4                    67433  2 9189.                  END   ,                       OF PFTE addr
1PAGESERV (PAGE00) (09:42) (22MAR04) Initialize page frame resource                                                         Page  376
0Current Usings:  (SGTE,R2) (PAGCB,R6) (ASBPCB,R7) (PFINIT,R10) (#PFINIT-72,R12) (@VMGET-72,R13)
0Loc    Object Code    Addr1 Addr2  Stmt Lv Lineno    Source Statement           (Hibal 5, Asmedit 3.3)  HLASM R4.0  2004/03/22 09.42
+___    ______ ____    _____ _____  ____ __ ______    ______ _________
0                                  67442  2 9191.
                                   67443  2 9192.
                                   67444  2 9193.       Loop through page table
                                   67445  2 9194.
                                          2
00082C0 98EF C060            00018 67446  2 9195.                  LM    RAR,EPAR,#PFIPAGE       Page entries, # left
 0082C4 5810 7014            00014 67447  2 9196.                  L     RS,PCBRA                DAT-OFF
 0082C8 ACFB 70B5      000B5       67448  2 9197.                  DATOFF PCBPSWM                |
 0082CC 1871                       67450  2 9198.                  LR    RPCB,RS                 | RA
 0082CE                            67451  2 9199.                  LOOP  BEGIN                   Loop through page table
 USING  PGTE,R14                   67457  3 9200.                    WITH  (PGTE,RAR)
 0082CE 9104 E002      00002       67470  3 9201.                    IF    ~PGTFINV,BEGIN          Valid page
 0082D2 4710 A322            08382 67480  3          +
 0082D6 5840 E000            00000 67485  4 9202.                      L     RJ,PGAD                 Page real address
 0082DA 5800 7010            00010 67486  4 9203.                      L     RVR,PCBVA               | DAT-ON
 0082DE 8000 70B5      000B5       67487  4 9204.                      DATON PCBPSWM                 | |
 0082E2 1870                       67489  4 9205.                      LR    RPCB,RVR                | | VA
 0082E4 90EF C060            00018 67490  4 9206.                      STM   RAR,EPAR,#PFIPAGE       Save page table counters
 0082E8 5440 A778            087D8 67491  4 9207.                      N     RJ,=A(PGTADMSK)         Remove from free frames
 0082EC 8840 0007            00007 67492  4 9208.                      SRL   RJ,L'PAGPAGM-PFTLOG     |
 0082F0 5E40 6044            00044 67493  4 9209.                      AL    RJ,PAGPFTO              |
 USING  PFTE,R4                    67494  4 9210.                      WITH  (PFTE,RJ),BEGIN         |
 0082F4 41E0 6064/1B00       00064 67508  5 9211.                        LREM  PAGFHEAD,LA:PFTE,WR=RS  |
 0082FA 58F0 E008            00008 67543  6          +
 0082FE 4110 0001/1BF1       00001 67551  6          +
 008304 4740 A2C0            08320 67562  6          +
 008308 50F0 E008/18F4       00008 67568  6          +
 00830E 180F/58E0 F004       00004 67575  6          +
 008314 58F0 F000            00000 67583  6          +
 008318 50E0 F004            00004 67584  6          +
 00831C 50F0 E000            00000 67585  5          +
 008320 4110 7054            00054 67590  5 9212.                        LADD  PCBLFLH,LA:PFTE,WR=RS   | add to PCBs fixed frames
 008324 41E0 0001            00001 67621  5          +
 008328 5EE0 1008            00008 67622  5          +
 00832C 50E0 1008            00008 67623  5          +
 008330 58E0 1004            00004 67630  5          +
 008334 5040 1004            00004 67636  5          +
 008338 5010 4000            00000 67637  5          +
 00833C 50E0 4004            00004 67643  5          +
 008340 5040 E000            00000 67644  5          +
 008344 9254 401C      0001C       67646  5 9213.                        MVI   PFTQ,PCBLFLH-ASBPCB     | set Q id
                                   67647  5 9214.     *  NB - This assumes hardware seg tables are a max of 4K in length
                                   67648  5 9215.     *       and page tables start on a 4K boundary.
 008348 18E2                       67649  5 9216.                        LR    RAR,RA                  Compute VA - from entry addrs
 00834A 54E0 A77C            087DC 67650  5 9217.                        N     RAR,=A((1024*L'SGTE)-1) | starting page in segment
 00834E 89E0 0006            00006 67651  5 9218.                        SLL   RAR,8-SGTLOG            |
 008352 58F0 C060            00018 67652  5 9219.                        L     EPAR,#PFIPAGE           | starting page in PT
 008356 54F0 A780            087E0 67653  5 9220.                        N     EPAR,=A((256*L'PGTE)-1) |
 00835A 88F0 0002            00002 67654  5 9221.                        SRL   EPAR,PGTLOG             |
 00835E 1EEF                       67655  5 9222.                        ALR   RAR,EPAR                |
 008360 89E0 000C            0000C 67656  5 9223.                        SLL   RAR,L'PAGPAGM           This is the VA
 008364 50E0 4008            00008 67657  5 9224.                        ST    RAR,PFTVA               | VA
 008368 D203 400C 700C 0000C 0000C 67658  5 9225.                        MVC   PFTASB,PCBASB           | ASB
1PAGESERV (PAGE00) (09:42) (22MAR04) Initialize page frame resource                                                         Page  377
0Current Usings:  (SGTE,R2) (PFTE,R4) (PAGCB,R6) (ASBPCB,R7) (PFINIT,R10) (#PFINIT-72,R12) (@VMGET-72,R13) (PGTE,R14)
0Loc    Object Code    Addr1 Addr2  Stmt Lv Lineno    Source Statement           (Hibal 5, Asmedit 3.3)  HLASM R4.0  2004/03/22 09.42
+___    ______ ____    _____ _____  ____ __ ______    ______ _________
000836E D201 4018 A7C2 00018 08822 67659  5 9226.                        MVC   PFTFIX,=Y(1)            | one fix here
 DROP   PFTE,R4                    67660  4 9227.                      END   ,                       OF PFTE addr
 008374 98EF C060            00018 67668  4 9228.                      LM    RAR,EPAR,#PFIPAGE       Page table counters
 008378 5800 7014            00014 67669  4 9229.                      L     RVR,PCBRA               DAT-OFF
 00837C ACFB 70B5      000B5       67670  4 9230.                      DATOFF PCBPSWM                |
 008380 1870                       67672  4 9231.                      LR    RPCB,RVR                | RA
 008382                            67673  3 9232.                    END   ,                       OF Valid page
 008382 41E0 E004            00004 67677  3 9233.                    LA    RAR,PGTNXT
 008386 46F0 A26E            082CE 67678  2 9234.                  UNTIL (BCT,EPAR),END          OF Loop through page table
 DROP   PGTE,R14
 00838A                            67693  1 9235.                END   ,                       OF Valid segment
 00838A 4120 2004            00004 67697  1 9236.                LA    RA,SGTNXT               next seg tbl entry
 00838E 4630 A1DA            0823A 67698    9237.              UNTIL (BCT,RB),END            OF Look @ all entries in seg
 DROP   SGTE,R2
 008392 5800 7010            00010 67713    9238.              L     RVR,PCBVA               DAT-ON
 008396 8000 70B5      000B5       67714    9239.              DATON PCBPSWM                 |
 00839A 1870                       67716    9240.              LR    RPCB,RVR                | VA
1PAGESERV (PAGE00) (09:42) (22MAR04) Initialize page frame resource                                                         Page  378
0Current Usings:  (PAGCB,R6) (ASBPCB,R7) (PFINIT,R10) (#PFINIT-72,R12) (@VMGET-72,R13)
0Loc    Object Code    Addr1 Addr2  Stmt Lv Lineno    Source Statement           (Hibal 5, Asmedit 3.3)  HLASM R4.0  2004/03/22 09.42
+___    ______ ____    _____ _____  ____ __ ______    ______ _________
0                                  67718    9242.
                                   67719    9243.
                                   67720    9244.       Copy over segment and page tables to virtual memory
                                   67721    9245.

0DROP   @VMGET-72,R13              67722    9246.              PSET  @PAGSGIN                Init memory for segment tbl
 USING  @PAGSGIN-72,R13
 00839C D703 D048 D048 00000 00000 67742             +
 0083A2                            67743    9247.              PMOV  @SIVA,PCBPSTO           |
 0083A2 D203 D048 701C 00000 0001C 67747             +
 0083A8 58F0 A784/0DEF       087E4 67748    9248.              ACALL PAGSGINI                |
 0083AE 4820 60BC            000BC 67755    9249.              LH    RA,PAGSEGP              Compute next PT VA origin
 0083B2 4C20 A7C4            08824 67756    9250.              MH    RA,=Y(PAGPAGEL)         |
 0083B6 5E20 701C            0001C 67757    9251.              AL    RA,PCBPSTO              |
 0083BA 5020 C068            00020 67758    9252.              ST    RA,#PFIPTVA             |
 0083BE 9823 C058            00010 67759    9253.              LM    RA,RB,#PFISEGE          Copy seg table - seg start
 0083C2 5930 60B8            000B8 67760    9254.              CEIL  RB,PAGMEG               | limit number of meg to copy
 0083C6 47D0 A36E            083CE 67764             +
 0083CA 5830 60B8            000B8 67765             +
 0083CE 5030 C05C            00014 67766    9255.              ST    RB,#PFISEG#             |
 0083D2 8930 0002            00002 67767    9256.              SLL   RB,SGTLOG               | | length of seg tbl
 0083D6 5810 701C            0001C 67768    9257.              L     RS,PCBPSTO              | virt start
                                   67769    9258.              REGCH (RVR,R0),(RS,R1)
 0083DA B100 1000            00000 67770    9259.              LRA   RVR,@RS                 |
 0083DE 1813                       67771    9260.              LR    RS,RB                   |
 0083E0 58F0 7014            00014 67772    9261.              L     EPAR,PCBRA              Copy seg table - DAT-OFF
 0083E4 ACFB 70B5      000B5       67773    9262.              DATOFF PCBPSWM                |
 0083E8 0E02                       67775    9263.              MVCL  RVR,RA                  |
 USING  ASBPCB,R15                 67776    9264.              WITH  (ASBPCB,EPAR),BEGIN     | DAT-ON again
 0083EA 8000 F0B5      000B5       67790  1 9265.                DATON PCBPSWM                 |
 DROP   ASBPCB,R15                 67792    9266.              END   ,                       |
                                   67800    9267.     *  Loop through new seg table
 0083EE 5820 701C            0001C 67801    9268.              L     RA,PCBPSTO              New seg table start
 0083F2 5020 C058            00010 67802    9269.              ST    RA,#PFISEGE             |
 0083F6 5830 C05C            00014 67803    9270.              L     RB,#PFISEG#             | num of entries
 0083FA 5850 60B8            000B8 67804    9271.              L     RK,PAGMEG               | shadow seg table start
 0083FE 4C50 A7C6            08826 67805    9272.              MH    RK,=Y(L'SGTE)           |
 008402 1E52                       67806    9273.              ALR   RK,RA                   |
 008404                            67807    9274.              LOOP  BEGIN                   Loop through seg tbl
 USING  SGTE,R2                    67813  1 9275.                WITH  (SGTE,RA)
 USING  SSTE,R5                    67826  1 9276.                WITH  (SSTE,RK)
 008404 9120 2003      00003       67839  1 9277.                IF    ~SGTFINV,BEGIN          Valid segment entry
 008408 4710 A49A            084FA 67849  1          +
 00840C 9610 2003      00003       67854  2 9278.                  SET   SGTFCOMM                These are all common segments
 008410 96C0 5006      00006       67860  2 9279.                  SET   SSTFDEF+SSTFCOMM        | defined & referenced
 008414 92BD 5007      00007       67869  2 9280.                  MVI   SSINIT,X'BD'
                                   67870  2 9281.
                                   67871  2 9282.
                                   67872  2 9283.       Init page table
                                   67873  2 9284.
                                          2
0008418 5840 C068            00020 67874  2 9285.                  L     RJ,#PFIPTVA             Init PT
1PAGESERV (PAGE00) (09:42) (22MAR04) Initialize page frame resource                                                         Page  379
0Current Usings:  (SGTE,R2) (SSTE,R5) (PAGCB,R6) (ASBPCB,R7) (PFINIT,R10) (#PFINIT-72,R12) (@PAGPGIN-72,R13)
0Loc    Object Code    Addr1 Addr2  Stmt Lv Lineno    Source Statement           (Hibal 5, Asmedit 3.3)  HLASM R4.0  2004/03/22 09.42
+___    ______ ____    _____ _____  ____ __ ______    ______ _________
0DROP   @PAGSGIN-72,R13            67875  2 9286.                  PSET  @PAGPGIN                |
 USING  @PAGPGIN-72,R13
 00841C D703 D048 D048 00000 00000 67895  2          +
 008422 5040 D048            00000 67896  2 9287.                  PMOV  @PIVA,(RJ)              |
 008426 58F0 A788/0DEF       087E8 67906  2 9288.                  ACALL PAGPGINI                |
                                   67913  2 9289.
 00842C B140 4000            00000 67914  2 9290.                  LRA   RJ,@RJ                  Set storage key - RA of PT
 008430 B229 0014                  67915  2 9291.                  ISKE  RS,RJ                   |
 008434 4210 5004            00004 67916  2 9292.                  STC   RS,SSKEY                |
 008438 58E0 2000            00000 67917  2 9293.                  L     RAR,SGTAD               Page table address/length
 00843C 18FE                       67918  2 9294.                  LR    EPAR,RAR                |
 00843E 54E0 A774            087D4 67919  2 9295.                  N     RAR,=A(SGTADMSK)        | addr
 008442 54F0 A770            087D0 67920  2 9296.                  N     EPAR,=A(SGPTLMSK)       | len
 008446 5EF0 A76C            087CC 67921  2 9297.                  INCR  EPAR                    |
 00844A 89F0 0004            00004 67924  2 9298.                  SLL   EPAR,4                  | num of entries (mult of 16)
                                   67925  2 9299.                  REGCH (RAR,R14),(EPAR,R15)
 00844E 90EF C060            00018 67926  2 9300.                  STM   RAR,EPAR,#PFIPAGE       PT loc/len
 008452 89F0 0002            00002 67927  2 9301.                  SLL   EPAR,PGTLOG             |
 008456 1804                       67928  2 9302.                  LR    RVR,RJ                  | virtual PT's RA
 008458 181F                       67929  2 9303.                  LR    RS,EPAR                 |
 00845A 5840 7014            00014 67930  2 9304.                  L     RJ,PCBRA                Copy page table - DAT-OFF
 00845E ACFB 70B5      000B5       67931  2 9305.                  DATOFF PCBPSWM                |
 008462 0E0E                       67933  2 9306.                  MVCL  RVR,RAR                 |
 DROP   ASBPCB,R7                  67934  2 9307.                  WITH  (ASBPCB,RJ),BEGIN       | DAT-ON again
 USING  ASBPCB,R4
 008464 8000 40B5      000B5       67956  3 9308.                    DATON PCBPSWM                 |
 USING  ASBPCB,R7                  67958  2 9309.                  END   ,                       |
 DROP   ASBPCB,R4
 008468 5400 A78C            087EC 67975  2 9310.                  N     RVR,=A(PAGPAGM)         Set RA for PT in seg table
 00846C 1880                       67976  2 9311.                  LR    RM,RVR                  | back to start of page
 00846E 5600 A790            087F0 67977  2 9312.                  O     RVR,=A((256/16)-1+L'SGTFCOMM)    | const len + common
 008472 5000 2000            00000 67978  2 9313.                  ST    RVR,SGTAD               |
 008476 8880 0007            00007 67979  2 9314.                  SRL   RM,L'PAGPAGM-PFTLOG     |
 00847A 5E80 6044            00044 67980  2 9315.                  AL    RM,PAGPFTO              |
 USING  PFTE,R8                    67981  2 9316.                  WITH  (PFTE,RM),BEGIN         |
 00847E 9680 801D      0001D       67995  3 9317.                    SET   PFTFPGT                 | page table page
 008482 18E2                       68001  3 9318.                    LR    RAR,RA                  Compute segment number for PT
 008484 54E0 A794            087F4 68002  3 9319.                    N     RAR,=A(PAGOFFM)         | just seg num
 008488 88E0 0002            00002 68003  3 9320.                    SRL   RAR,SGTLOG              |
 00848C 40E0 8014            00014 68004  3 9321.                    STH   RAR,PFTSEG              |
 DROP   PFTE,R8                    68005  2 9322.                  END   ,                       OF Set PFT for this page tbl
 008490 58E0 C068            00020 68013  2 9323.                  L     RAR,#PFIPTVA            PT loc/num entries
 008494 58F0 C064            0001C 68014  2 9324.                  L     EPAR,#PFIPAG#           |
 008498 181E                       68015  2 9325.                  LR    RS,RAR                  | update for next PT VA
 00849A 5E10 A798            087F8 68016  2 9326.                  AL    RS,=A(PAGPAGEL)         |
 00849E 5010 C068            00020 68017  2 9327.                  ST    RS,#PFIPTVA             |
 0084A2 4140 E400            00400 68018  2 9328.                  WITH  (PAGTABLE,RAR),'LA RJ,SPGT'
 USING  PAGTABLE,R14
 DROP   PAGTABLE,R14
 0084A6                            68042  2 9329.                  LOOP  BEGIN                   Loop through PT
 USING  PFTE,R8                    68048  3 9330.                    WITH  (PFTE,RM)
 USING  PGTE,R14                   68061  3 9331.                    WITH  (PGTE,RAR)
 USING  SPTE,R4                    68074  3 9332.                    WITH  (SPTE,RJ)
 0084A6 9104 E002      00002       68087  3 9333.                    IF    ~PGTFINV,BEGIN          Valid page found
1PAGESERV (PAGE00) (09:42) (22MAR04) Initialize page frame resource                                                         Page  380
0Current Usings:  (SGTE,R2) (SPTE,R4) (SSTE,R5) (PAGCB,R6) (ASBPCB,R7) (PFTE,R8) (PFINIT,R10) (#PFINIT-72,R12) (@PAGPGIN-72,R13) (PGTE,R14)
0Loc    Object Code    Addr1 Addr2  Stmt Lv Lineno    Source Statement           (Hibal 5, Asmedit 3.3)  HLASM R4.0  2004/03/22 09.42
+___    ______ ____    _____ _____  ____ __ ______    ______ _________
00084AA 4710 A48E            084EE 68097  3          +
                                   68102  4 9334.
                                   68103  4 9335.                  A valid page causes 1 more short term fix for the page table
                                   68104  4 9336.
 0084AE 4110 0001            00001 68105  4 9337.                      INCR  RS,PFTSFIX              One more valid page in segment
 0084B2 4A10 801A            0001A 68109  4          +
 0084B6 4010 801A            0001A 68110  4          +
 0084BA 9200 E003      00003       68111  4 9338.                      CLEAR PGTFLG2                 Clear all software flags
 0084BE 96E4 E003      00003       68118  4 9339.                      SET   PGTFDEF+PGTFREF+PGTFCOMM+PGTFXDEF
 0084C2 90EF C060            00018 68136  4 9340.                      STM   RAR,EPAR,#PFIPAGE
 DROP   @PAGPGIN-72,R13            68137  4 9341.                      XPGET (RPCB)                  Get slot for page
 USING  @XPGET-72,R13
 0084C6 D710 D048 D048 00000 00000 68158  4          +
 0084CC 5070 D04C            00004 68168  4          +
 0084D0 58F0 A79C/0DEF       087FC 68174  4          +
 0084D6 98EF C060            00018 68176  4 9342.                      LM    RAR,EPAR,#PFIPAGE
 0084DA 5000 4000            00000 68177  4 9343.                      ST    RVR,SPXSLOT             Fill in external page slot
 0084DE 5810 E000            00000 68178  4 9344.                      L     RS,PGAD                 Get key of page
 0084E2 5410 A778            087D8 68179  4 9345.                      N     RS,=A(PGTADMSK)         |
 0084E6 B229 0001                  68180  4 9346.                      ISKE  RVR,RS                  |
 0084EA 4200 4005            00005 68181  4 9347.                      STC   RVR,SPKEY               |
                                   68182  4 9348.     *        MVI   SPINIT,X'BD'
 0084EE                            68183  3 9349.                    END   ,                       OF Valid page found
 0084EE 41E0 E004            00004 68187  3 9350.                    LA    RAR,PGTNXT              Next entry
 0084F2 4140 4008            00008 68188  3 9351.                    LA    RJ,SPTNXT               |
 0084F6 46F0 A446            084A6 68189  2 9352.                  UNTIL (BCT,EPAR),END          OF Loop through PT
 DROP   SPTE,R4
 DROP   PGTE,R14
 DROP   PFTE,R8
 0084FA                            68214  1 9353.                END   ,                       OF Valid segment entry
 0084FA 4120 2004            00004 68218  1 9354.                LA    RA,SGTNXT               Next entry
 0084FE 4150 5008            00008 68219  1 9355.                LA    RK,SSTNXT               |
 008502 4630 A3A4            08404 68220    9356.              UNTIL (BCT,RB),END            OF Loop through seg tbl
 DROP   SSTE,R5
 DROP   SGTE,R2
                                   68240    9357.
                                   68241    9358.
                                   68242    9359.       Now deal with the VAs of new page tables
                                   68243    9360.

0008506 5820 701C            0001C 68244    9361.              L     RA,PCBPSTO              Get first page table VA
 00850A 4830 60BC            000BC 68245    9362.              LH    RB,PAGSEGP              |
 00850E 4C30 A7C4            08824 68246    9363.              MH    RB,=Y(PAGPAGEL)         |
 008512 1E23                       68247    9364.              ALR   RA,RB                   |
 008514 5830 C054            0000C 68248    9365.              L     RB,#PFICNT              Number of PTs
 008518 0630                       68249    9366.              DECR  RB                      | minus 1 for original seg tbl
 00851A                            68251    9367.              LOOP  BEGIN                   Mark page tables' VAs
1PAGESERV (PAGE00) (09:42) (22MAR04) Initialize page frame resource                                                         Page  381
0Current Usings:  (PAGCB,R6) (ASBPCB,R7) (PFINIT,R10) (#PFINIT-72,R12) (@XPGET-72,R13)
0Loc    Object Code    Addr1 Addr2  Stmt Lv Lineno    Source Statement           (Hibal 5, Asmedit 3.3)  HLASM R4.0  2004/03/22 09.42
+___    ______ ____    _____ _____  ____ __ ______    ______ _________
0                                  68257  1 9368.
                                   68258  1 9369.            Indicate that this is a page table page.  Set the external slot
                                   68259  1 9370.            in the shadow segment table entry that this page table represents
                                   68260  1 9371.            to be the same as the shadow page slot for the virtual address of
                                   68261  1 9372.            this page table.
                                   68262  1 9373.
 00851A 9023 C070            00028 68263  1 9374.                STM   RA,RB,#PFILOOP
 00851E 5840 701C            0001C 68264  1 9375.                L     RJ,PCBPSTO              Segment table origin
 008522 1F11/4310 7025       00025 68265  1 9376.                LC    RS,PCBPSTL              | last entry
 008528 8910 0004            00004 68272  1 9377.                SLL   RS,4                    |  *16
 00852C 4110 100F            0000F 68273  1 9378.                LA    RS,@RS+16-1             |
 008530 5440 A7A0            08800 68274  1 9379.                N     RJ,=A(PCBSTM)           Clean up segment start
 008534 1854                       68275  1 9380.                LR    RK,RJ                   |  save for shadow offset
                                   68276  1 9381.
                                   68277  1 9382.            Get segment table entry/page table address
                                   68278  1 9383.
 008536 5420 A78C            087EC 68279  1 9384.                N     RA,=A(PAGPAGM)          | remove high bit/offset
 00853A 1B33                       68280  1 9385.                CLEAR (RB)
 00853C 8C20 0014            00014 68284  1 9386.                SRDL  RA,L'PAGSGNM            | RA = seg number
 008540 8830 0018            00018 68285  1 9387.                SRL   RB,24                   | RB = pg number
 008544 1882                       68286  1 9388.                LR    RM,RA                   Use RM as seg table index
 008546 8980 0002            00002 68287  1 9389.                SLL   RM,SGTLOG               | seg table offset (4 bytes ea)
 00854A 4148 4000            00000 68288  1 9390.                LA    RJ,@RJ(RM)              |
 00854E 8980 0001            00001 68289  1 9391.                SLL   RM,SSTLOG-SGTLOG        Shadow table offset
 008552 5890 60B8            000B8 68290  1 9392.                L     RN,PAGMEG               Shadow seg table entry addr
 008556 8990 0002            00002 68291  1 9393.                SLL   RN,SGTLOG               |
 00855A 4159 5000            00000 68292  1 9394.                LA    RK,@RK(RN)              |
 00855E 4158 5000            00000 68293  1 9395.                LA    RK,@RK(RM)              |
 008562 1921/4720 A700       08760 68294  1 9396.                IF    (RA,GT,RS),PFIKAP       | and exit if so
 USING  SGTE,R4                    68312  1 9397.                WITH  (SGTE,RJ),BEGIN         Segment table entry addr
 008568 9120 4003      00003       68326  2 9398.                  IF    SGTFINV,PFIKAP          | and exit if so
 00856C 4710 A700            08760 68338  2          +
 008570 5840 4000            00000 68344  2 9399.                  L     RJ,SGTAD                Page table addr
 DROP   SGTE,R4                    68345  1 9400.                END   ,                       OF Segment table entry addr
 008574 1854                       68353  1 9401.                LR    RK,RJ                   | length
 008576 5450 A770            087D0 68354  1 9402.                N     RK,=A(SGPTLMSK)         | |
 00857A 8950 0004            00004 68355  1 9403.                SLL   RK,4                    | |
 00857E 4150 500F            0000F 68356  1 9404.                LA    RK,@RK+16-1             | | last entry
 008582 5440 A774            087D4 68357  1 9405.                N     RJ,=A(SGTADMSK)         |
 008586 1935/4720 A700       08760 68358  1 9406.                IF    (RB,GT,RK),PFIKAP       | and exit if so
                                   68376  1 9407.
                                   68377  1 9408.            Get page table entry addr
                                   68378  1 9409.
 DROP   @XPGET-72,R13              68379  1 9410.                RTOV  (RJ)                    Convert real addr to virt
 USING  @PAGRV-72,R13
 00858C D707 D048 D048 00000 00000 68401  1          +
 008592 5040 D048            00000 68411  1          +
 008596 58F0 A7A4/0DEF       08804 68417  1          +
 00859C 1840                       68419  1 9411.                LR    RJ,RVR                  |
 00859E 4150 4400            00400 68420  1 9412.                WITH  (PAGTABLE,RJ),'LA RK,SPGT '      Shadow Page table add
 USING  PAGTABLE,R4
 DROP   PAGTABLE,R4
 0085A2 1823                       68444  1 9413.                LR    RA,RB                   | entry
 0085A4 8930 0003            00003 68445  1 9414.                SLL   RB,SPTLOG               |
1PAGESERV (PAGE00) (09:42) (22MAR04) Initialize page frame resource                                                         Page  382
0Current Usings:  (PAGCB,R6) (ASBPCB,R7) (PFINIT,R10) (#PFINIT-72,R12) (@PAGRV-72,R13)
0Loc    Object Code    Addr1 Addr2  Stmt Lv Lineno    Source Statement           (Hibal 5, Asmedit 3.3)  HLASM R4.0  2004/03/22 09.42
+___    ______ ____    _____ _____  ____ __ ______    ______ _________
00085A8 4153 5000            00000 68446  1 9415.                LA    RK,@RK(RB)              |
 0085AC 8920 0002            00002 68447  1 9416.                SLL   RA,PGTLOG               Page table entry address
 0085B0 4142 4000            00000 68448  1 9417.                LA    RJ,@RJ(RA)              |
                                   68449  1 9418.
                                   68450  1 9419.             RJ = page table addr, RK = shadow page table addr
                                   68451  1 9420.
 USING  PGTE,R4                    68452  1 9421.                WITH  (PGTE,RJ),BEGIN         |
 0085B4 9104 4002      00002       68466  2 9422.                  IF    PGTFINV,PFIKAP          | exit if not valid
 0085B8 4710 A700            08760 68478  2          +
 0085BC 9610 4003      00003       68484  2 9423.                  SET   PGTFPGT                 Page table page
 0085C0 5840 4000            00000 68490  2 9424.                  L     RJ,PGAD                 Real address of page table
 DROP   PGTE,R4                    68491  1 9425.                END   ,                       OF Page table entry address
 USING  SPTE,R5                    68499  1 9426.                WITH  (SPTE,RK),BEGIN         Shadow page addr
 0085C4 5810 5000            00000 68513  2 9427.                  L     RS,SPXSLOT              External slot
 DROP   SPTE,R5                    68514  1 9428.                END   ,                       OF Shadow page addr
                                   68522  1 9429.
                                   68523  1 9430.            Compute shadow segment table entry for the segment this PT
                                   68524  1 9431.            represents
                                   68525  1 9432.
 0085C8 5440 A778            087D8 68526  1 9433.                N     RJ,=A(PGTADMSK)         Page frame entry
 0085CC 8840 0007            00007 68527  1 9434.                SRL   RJ,L'PAGPAGM-PFTLOG     |
 0085D0 5E40 6044            00044 68528  1 9435.                AL    RJ,PAGPFTO              |
 USING  PFTE,R4                    68529  1 9436.                WITH  (PFTE,RJ),BEGIN         |
 0085D4 4840 4014            00014 68543  2 9437.                  LH    RJ,PFTSEG               | segment num in frame entry
 DROP   PFTE,R4                    68544  1 9438.                END   ,                       | OF Page frame table addr
 0085D8 5850 701C            0001C 68552  1 9439.                L     RK,PCBPSTO              Compute shadow table entry
 0085DC 5450 A7A0            08800 68553  1 9440.                N     RK,=A(PCBSTM)           |
 0085E0 4A50 60BE            000BE 68554  1 9441.                AH    RK,PAGSEGL              | shadow seg start
 0085E4 8940 0003            00003 68555  1 9442.                SLL   RJ,SSTLOG               | offset from shadow seg start
 0085E8 1E54                       68556  1 9443.                ALR   RK,RJ                   | shadow seg entry
 0085EA 5010 5000            00000 68557  1 9444.                WITH  (SSTE,RK),'ST RS,SSXSLOT'
 USING  SSTE,R5
 DROP   SSTE,R5
                                   68581  1 9445.
                                   68582  1 9446.             Get back virtual addr/number of PTs to go
                                   68583  1 9447.
 0085EE 9823 C070            00028 68584  1 9448.                LM    RA,RB,#PFILOOP
                                   68585  1 9449.
 0085F2 5E20 A798            087F8 68586  1 9450.                AL    RA,=A(PAGPAGEL)         Next virtual page
 0085F6 4630 A4BA            0851A 68587    9451.              UNTIL (BCT,RB),END            OF Mark page tables' VAs
1PAGESERV (PAGE00) (09:42) (22MAR04) Initialize page frame resource                                                         Page  383
0Current Usings:  (PAGCB,R6) (ASBPCB,R7) (PFINIT,R10) (#PFINIT-72,R12) (@PAGRV-72,R13)
0Loc    Object Code    Addr1 Addr2  Stmt Lv Lineno    Source Statement           (Hibal 5, Asmedit 3.3)  HLASM R4.0  2004/03/22 09.42
+___    ______ ____    _____ _____  ____ __ ______    ______ _________
0                                  68598    9453.
                                   68599    9454.
                                   68600    9455.        Put old hardware segment/page tables back on free frames list,
                                   68601    9456.       mark all frames as PAGEABLE, and set new PSTO
                                   68602    9457.
                                   68603    9458.       Add all to list
                                   68604    9459.

00085FA 4110 6064            00064 68605    9460.              LADD  PAGFHEAD,#PFIFP,#PFIBP,#PFICNT,WR=RS
 0085FE 58E0 C054            0000C 68630             +
 008602 5EE0 1008            00008 68631             +
 008606 50E0 1008            00008 68632             +
 00860A 58E0 1004            00004 68639             +
 00860E 58F0 C050            00008 68646             +
 008612 50F0 1004            00004 68647             +
 008616 5010 F000            00000 68648             +
 00861A 58F0 C04C            00004 68655             +
 00861E 50E0 F004            00004 68656             +
 008622 50F0 E000            00000 68657             +
                                   68659    9461.
 008626 5810 C054            0000C 68660    9462.              L     RS,#PFICNT              Clear certain fields
 00862A 5820 C04C            00004 68661    9463.              L     RA,#PFIFP               |
 00862E 1B00                       68662    9464.              CLEAR RVR                     |
 008630                            68666    9465.              LOOP  BEGIN                   |
 USING  PFTE,R2                    68672  1 9466.                WITH  (PFTE,RA)               |
 008630 5000 200C            0000C 68685  1 9467.                ST    RVR,PFTASB              |
 008634 4200 201C            0001C 68686  1 9468.                STC   RVR,PFTQ                |
 008638 4610 A5D0            08630 68687    9469.              UNTIL (BCT,RS),END            OF Clear certain fields
 DROP   PFTE,R2
                                   68702    9470.
                                   68703    9471.          Only fix a certain amount
                                   68704    9472.
 00863C 5840 606C            0006C 68705    9473.              L     RJ,PAGFCNT              Number we could fix
 008640 5830 60CC            000CC 68706    9474.              L     RB,PAGMAXFR              over the max
 008644 1B43/47D0 A642       086A2 68707    9475.              IF    ('SR RJ,RB',POS),BEGIN    will be removed
 00864A 41E0 6064/1B00       00064 68720  1 9476.                LREM  PAGFHEAD,,(RJ),LAST=(RB),WR=RS
 008650 58F0 E008/1214       00008 68756  2          +
 008656 47D0 A61E/1BF1       0867E 68768  2          +
 00865C 4740 A61E            0867E 68784  2          +
 008660 50F0 E008            00008 68790  2          +
 008664 58F0 E000/180F       00000 68797  2          +
 00866A 58F0 F000            00000 68805  2          +
 00866E 4610 A60A            0866A 68811  2          +
 008672 5830 F004            00004 68818  2          +
 008676 50E0 F004            00004 68819  2          +
 00867A 50F0 E000            00000 68820  1          +
 00867E 1820                       68825  1 9477.                LR    RA,RVR
 008680 4110 6054/18E4       00054 68826  1 9478.                LADD  PAGUFHD,(RA),(RB),(RJ),WR=RS
 008686 5EE0 1008            00008 68853  1          +
 00868A 50E0 1008            00008 68854  1          +
 00868E 58E0 1004            00004 68861  1          +
 008692 5030 1004            00004 68866  1          +
 008696 5010 3000            00000 68867  1          +
1PAGESERV (PAGE00) (09:42) (22MAR04) Initialize page frame resource                                                         Page  384
0Current Usings:  (PAGCB,R6) (ASBPCB,R7) (PFINIT,R10) (#PFINIT-72,R12) (@PAGRV-72,R13)
0Loc    Object Code    Addr1 Addr2  Stmt Lv Lineno    Source Statement           (Hibal 5, Asmedit 3.3)  HLASM R4.0  2004/03/22 09.42
+___    ______ ____    _____ _____  ____ __ ______    ______ _________
000869A 50E0 2004            00004 68872  1          +
 00869E 5020 E000            00000 68873  1          +
 0086A2                            68875    9479.              END   ,                       OF will be removed
 0086A2 5810 606C            0006C 68879    9480.              L     RS,PAGFCNT              Mark all frames as PAGEABLE
 0086A6 5010 6050            00050 68880    9481.              ST    RS,PAGFIXCNT            | number of fixed frames
 0086AA 5010 6060            00060 68881    9482.              ST    RS,PAGFTCNT             | Total of available
 0086AE 5830 0200            00200 68882    9483.              L     RB,MATPTR               Set MAT paging function
 USING  MAT,R3                     68883    9484.              WITH  (MAT,RB),BEGIN          |
 0086B2 1801                       68897  1 9485.                LR    RVR,RS                  |
 0086B4 5F00 60B0            000B0 68898  1 9486.                SL    RVR,PAGASIN             | save 1 frame/AS in core
 0086B8 5000 30DC            000DC 68899  1 9487.                ST    RVR,MATPAGFN            |
 DROP   MAT,R3                     68900    9488.              END   ,                       OF Set MAT paging function
 0086BC 5820 6064            00064 68908    9489.              L     RA,PAGFFP               | 1st frame
 0086C0 5840 6044            00044 68909    9490.              L     RJ,PAGPFTO              | start of page frame table
 0086C4                            68910    9491.              LOOP  BEGIN                   |
 0086C4 1832                       68916  1 9492.                LR    RB,RA                   Compute frame addr
 0086C6 1B34                       68917  1 9493.                SR    RB,RJ                   |
 0086C8 8930 0007            00007 68918  1 9494.                SLL   RB,L'PAGPAGM-PFTLOG     |
 0086CC 83300005                   68919  1 9495.                SYSCTL (RB),TYPE=PAGE         |
 USING  PFTE,R2                    68922  1 9496.                WITH  (PFTE,RA),BEGIN
 0086D0 9680 201F      0001F       68936  2 9497.                  SET   PFTPAGING               Can use for paging
 0086D4 5820 2000            00000 68942  2 9498.                  L     RA,PFTFP                Next frame
 DROP   PFTE,R2                    68943  1 9499.                END   ,
 0086D8 4610 A664            086C4 68951    9500.              UNTIL (BCT,RS),END            OF Mark all frames as PAGEABLE
                                   68961    9501.
 0086DC 5850 701C            0001C 68962    9502.              L     RK,PCBPSTO              Set new seg table origin
 0086E0 B150 5000            00000 68963    9503.              LRA   RK,@RK                  |
 0086E4 5840 700C            0000C 68964    9504.              L     RJ,PCBASB
 USING  ASB,R4                     68965    9505.              WITH  (ASB,RJ),BEGIN          ASB addr
 0086E8 4820 400E            0000E 68979  1 9506.                LH    RA,ASBPASN              ASN to work from (AFX)
 0086EC 1832                       68980  1 9507.                LR    RB,RA                   | used for ASX
 0086EE 5420 A7A8            08808 68981  1 9508.                N     RA,=A(PAGAFXM)          First table entry calc
 0086F2 8820 0004            00004 68982  1 9509.                SRL   RA,L'PAGAFXM-AFTLOG     | index*4 is offset from AFTO
 0086F6 5E20 61A0            001A0 68983  1 9510.                AL    RA,PAGAFTO              |
                                   68984  1 9511.
 USING  AFTE,R2                    68985  1 9512.                WITH  (AFTE,RA),BEGIN         |
 0086FA 5820 2000            00000 68999  2 9513.                  L     RA,AFTASTO              Second table origin
 DROP   AFTE,R2                    69000  1 9514.                END   ,                       OF First table entry calc
 0086FE 1222/4740 A730       08790 69008  1 9515.                IF    (RA,NEG),PFIKAP2        Error - 2nd table unavailable
 008704 5420 A7AC            0880C 69025  1 9516.                N     RA,=A(AFTASTM)          | mask em out
 008708                            69026  1 9517.                RTOV  (RA)                    | to virtual (ret in RVR)
 008708 D707 D048 D048 00000 00000 69038  1          +
 00870E 5020 D048            00000 69048  1          +
 008712 58F0 A7A4/0DEF       08804 69054  1          +
 008718 5430 A7B0            08810 69056  1 9518.                N     RB,=A(PAGASXM)          Second table entry calc
 00871C 8930 0004            00004 69057  1 9519.                SLL   RB,ASTLOG               | index*16 is offset from ASTO
 008720 1E30                       69058  1 9520.                ALR   RB,RVR                  |
 USING  ASTE,R3                    69059  1 9521.                WITH  (ASTE,RB),BEGIN         |
 008722 5800 3008            00008 69073  2 9522.                  L     RVR,ASTSTD              Set seg table RA
 008726 5400 A7B4            08814 69074  2 9523.                  N     RVR,=A(ASTSTL)          | save old length
 00872A 1605                       69075  2 9524.                  OR    RVR,RK                  | new RA
 00872C 5000 3008            00008 69076  2 9525.                  ST    RVR,ASTSTD              |
 008730 947F 3000      00000       69077  2 9526.                  CLEAR ASTFINV                 Now it's valid
 DROP   ASTE,R3                    69084  1 9527.                END   ,
1PAGESERV (PAGE00) (09:42) (22MAR04) Initialize page frame resource                                                         Page  385
0Current Usings:  (ASB,R4) (PAGCB,R6) (ASBPCB,R7) (PFINIT,R10) (#PFINIT-72,R12) (@PAGRV-72,R13)
0Loc    Object Code    Addr1 Addr2  Stmt Lv Lineno    Source Statement           (Hibal 5, Asmedit 3.3)  HLASM R4.0  2004/03/22 09.42
+___    ______ ____    _____ _____  ____ __ ______    ______ _________
0                                  69092  1 9528.
                                   69093  1 9529.            Load address space parameters (local AS)
                                   69094  1 9530.
 008734 4110 0004            00004 69095  1 9531.                LA    RS,X'04'                Lasp parm - insist on xlate
 008738 5610 A7B8            08818 69096  1 9532.                O     RS,=A(ASBLPARM)
 00873C E500 4008 1000 00008 00000 69097  1 9533.                LASP  ASBLASP,0(RS)
 008742 4770 A730            08790 69098  1 9534.                IF    NZ,PFIKAP2
 DROP   ASB,R4                     69112    9535.              END   ,                       OF ASB addr
 008746 B20D 0000                  69120    9536.              PTLB  ,                       |
                                   69121    9537.
                                   69122    9538.          Init number of address spaces
                                   69123    9539.
 00874A D203 60B0 A76C 000B0 087CC 69124    9540.              MVC   PAGASIN,=A(1)           Number of address spaces
                                   69125    9541.
                                   69126    9542.          We can take page defines now
                                   69127    9543.
 008750 58F0 A7BC/0DEF       0881C 69128    9544.              VCALL VMDEFSET
                                   69132    9545.
 008756 981F C008            00008 69133    9546.              PEND  ,
 DROP   ASBPCB,R7
 DROP   PAGCB,R6
 DROP   #PFINIT-72,R12
 DROP   PFINIT,R10
 00875A 9680 C000/0B0E 00000       69158             +
 DROP   @PAGRV-72,R13
0008760 AC04 021B      0021B       69168    9548.     PFIKAP   ABORT PFINIT                  Page frame initialization
 USING  PZERO,R0
 008764 9680 021A      0021A       69187             +
 008768 50F0 021C            0021C 69188             +
 00876C 58F0 0210            00210 69189             +
 008770 89F0 0010            00010 69190             +
 008774 88F0 0010            00010 69191             +
 008778 41F0 F000            00000 69192             +
 00877C AEFF 0006            00006 69193             +
 008780 D7C6C9D5C9E34040           69194             +
 DROP   PZERO,R0
0008790 AC04 021B      0021B       69204    9550.     PFIKAP2  ABORT PFINITAS                ASN error
 USING  PZERO,R0
 008794 9680 021A      0021A       69223             +
 008798 50F0 021C            0021C 69224             +
 00879C 58F0 0210            00210 69225             +
 0087A0 89F0 0010            00010 69226             +
 0087A4 88F0 0010            00010 69227             +
 0087A8 41F0 F000            00000 69228             +
 0087AC AEFF 0006            00006 69229             +
 0087B0 D7C6C9D5C9E3C1E2           69230             +
 DROP   PZERO,R0
                                   69239    9551.     *NEST,2
1PAGESERV (PAGE00) (09:42) (22MAR04) MP-ORVYL Real Memory / Paging Manager Services                                         Page  386
0Loc    Object Code    Addr1 Addr2  Stmt Lv Lineno    Source Statement           (Hibal 5, Asmedit 3.3)  HLASM R4.0  2004/03/22 09.42
+___    ______ ____    _____ _____  ____ __ ______    ______ _________
00087C0                            69241    9553.              LTORG ,
 0087C0 00000000                   69243                             =V(VMGET)
 0087C4 7FFFF000                   69244                             =A(PAGSTOM)
 0087C8 0000007F                   69245                             =A(PAGSTLM)
 0087CC 00000001                   69246                             =A(1)
 0087D0 0000000F                   69247                             =A(SGPTLMSK)
 0087D4 7FFFFFC0                   69248                             =A(SGTADMSK)
 0087D8 7FFFF000                   69249                             =A(PGTADMSK)
 0087DC 00000FFF                   69250                             =A((1024*L'SGTE)-1)
 0087E0 000003FF                   69251                             =A((256*L'PGTE)-1)
 0087E4 00007836                   69252                             =A(PAGSGINI)
 0087E8 00007894                   69253                             =A(PAGPGINI)
 0087EC 7FFFF000                   69254                             =A(PAGPAGM)
 0087F0 0000001F                   69255                             =A((256/16)-1+L'SGTFCOMM)
 0087F4 00000FFF                   69256                             =A(PAGOFFM)
 0087F8 00001000                   69257                             =A(PAGPAGEL)
 0087FC 00006652                   69258                             =A(XPGET)
 008800 7FFFF000                   69259                             =A(PCBSTM)
 008804 0000078C                   69260                             =A(PAGRV)
 008808 0000FFC0                   69261                             =A(PAGAFXM)
 00880C 7FFFFFF0                   69262                             =A(AFTASTM)
 008810 0000003F                   69263                             =A(PAGASXM)
 008814 0000007F                   69264                             =A(ASTSTL)
 008818 00000003                   69265                             =A(ASBLPARM)
 00881C 00000000                   69266                             =V(VMDEFSET)
 008820 3F00                       69267                             =Y(63*256+0)
 008822 0001                       69268                             =Y(1)
 008824 1000                       69269                             =Y(PAGPAGEL)
 008826 0004           08828 0A6E0 69270                             =Y(L'SGTE)
1PAGESERV (PAGE00) (09:42) (22MAR04) Global initialization                                                                  Page  387
0Loc    Object Code    Addr1 Addr2  Stmt Lv Lineno    Source Statement           (Hibal 5, Asmedit 3.3)  HLASM R4.0  2004/03/22 09.42
+___    ______ ____    _____ _____  ____ __ ______    ______ _________
0                                  69275    9555.
                                   69276    9556.
                                   69277    9557.
                                   69278    9558.
                                   69279    9559.
                                   69280    9560.
                                   69281    9561.

0000000                00000 0001C 69282    9562.     #PAGINIT RECORD BEGIN
 000000                            69290  1 9563.     #PIFLT0    DS    D                       Save area for floating point
 000008                            69291  1 9564.     #PIFLT2    DS    D
 000010                            69292  1 9565.     #PIFLTW    DS    D                       Work area
 000018                            69293  1 9566.     #PIPARM    DS    F                       PAGIPARM pointer save
 00001C                0001C 0001C 69294    9567.              END   ,
0008828                            69304    9569.     PAGINIT  PROC  @PAGINIT,#PAGINIT,SCOPE=GLOBAL   Global initialization
 008828 D7C1C7C9D5C9E340           69310             +
 008830 0008/0020                  69311             +
 008834 900F D004/18AF       00004 69313             +
 USING  PAGINIT,R10
 00883A 50D0 C000/18CD       00000 69328             +
 008840 9680 C000      00000       69330             +
 USING  @PAGINIT-72,R12
 AUSING (#PAGINIT,@PAGINIT+8)
 008844 41D0 C070            00070 69349             +
 USING  PZERO,R0                   69350    9570.              USING PZERO,R0                CVT address
 008848 5820 0200            00200 69359    9571.              L     RA,PZMATP               |
 DROP   PZERO,R0                   69360    9572.              DROP  R0                      |
                                   69368    9573.
                                   69369    9574.          Initalize paging control block
                                   69370    9575.
 USING  MAT,R2                     69371    9576.              WITH  (MAT,RA),BEGIN          Save PAGCB address
 USING  @VMGET-72,R13              69385  1 9577.                VMGET L'PAGCB,LOC=GLOBHI,FIX=YES,ONEPAGE=YES
 00884C D70A D048 D048 00000 00000 69409  1          +
 008852 4100 02B4            002B4 69421  1          +
 008856 5000 D048            00000 69426  1          +
 00885A D201 D050 AA7C 00008 092B0 69427  1          +
 008860 9640 D052      0000A       69433  1          +
 008864 58F0 A9E4/0DEF       09218 69436  1          +
 00886A 5000 200C            0000C 69438  1 9578.                ST    RVR,MATPAGCB
 DROP   MAT,R2                     69439    9579.              END   ,
 00886E 1860                       69447    9580.              LR    RPAG,RVR                Paging CB addr
 USING  PAGCB,R6                   69448    9581.              WITH  (PAGCB,RPAG)
 AUSING (PC.PAGCEL,PAGPGCEL)       69461    9582.              WITH  (PAGCEL,PAGPGCEL),LABEL=PC
 AUSING (SC.PAGCEL,PAGSWCEL)       69468    9583.              WITH  (PAGCEL,PAGSWCEL),LABEL=SC
 008870                            69475    9584.              CLEAR PAGCB                   Set to zero
 008870 D7FF 6000 6000 00000 00000 69481             +
 008876 D7FF 6100 6100 00100 00100 69482             +
 00887C D7B3 6200 6200 00200 00200 69483             +
 008882 D207 6000 A8E4 00000 09118 69484    9585.              MVC   PAGCBID,=CL8'PAGCB'     | and put in tag
1PAGESERV (PAGE00) (09:42) (22MAR04) Global initialization                                                                  Page  388
0Current Usings:  (PAGCB,R6) (PAGINIT,R10) (@PAGINIT-72,R12) (@VMGET-72,R13)
0Loc    Object Code    Addr1 Addr2  Stmt Lv Lineno    Source Statement           (Hibal 5, Asmedit 3.3)  HLASM R4.0  2004/03/22 09.42
+___    ______ ____    _____ _____  ____ __ ______    ______ _________
0                                  69485    9586.
                                   69486    9587.          Set up lock routines as dummys for initialization
                                   69487    9588.
 008888 41F0 A8C2            090F6 69488    9589.              LA    EPAR,LOCKDUMMY          Dummy EPs for init
 00888C 50F0 602C            0002C 69489    9590.              ST    EPAR,PAGLKOB            |
 008890 50F0 6030            00030 69490    9591.              ST    EPAR,PAGLKREL           |
                                   69491    9592.
                                   69492    9593.          Set up internal resolve routine for init
                                   69493    9594.
 008894 D203 6034 A9E8 00034 0921C 69494    9595.              MVC   PAGRESLV,=A(INITRESLV)  Resolve routine for init
                                   69495    9596.
 00889A 92F0 60C1      000C1       69496    9597.              MVI   PAGSKEY,CPAGIOKEY       Key for paging reads
 00889E 5820 C04C            00004 69497    9598.              L     RA,@PAGIMEG             Number of meg in VA space
 0088A2 5E20 A9EC            09220 69498    9599.              AL    RA,=A(PAGOFFM+PAGPGNM)  | round up to next meg
 0088A6 8820 0014            00014 69499    9600.              SRL   RA,L'PAGSGNM            |
 0088AA 4120 200F            0000F 69500    9601.              LA    RA,@RA+16-1             | rounded up to next 16
 0088AE 5420 A9F0            09224 69501    9602.              N     RA,=A(-16)              |
 0088B2 5020 60B8            000B8 69502    9603.              ST    RA,PAGMEG               |
 0088B6 1832                       69503    9604.              LR    RB,RA                   | length of hardware seg tbl
 0088B8 8930 0002            00002 69504    9605.              SLL   RB,SGTLOG               |
 0088BC 4030 60BE            000BE 69505    9606.              STH   RB,PAGSEGL              |
 0088C0 4C20 AA7E            092B2 69506    9607.              MH    RA,=Y(L'SGTE+L'SSTE)    | length of seg table
 0088C4 5E20 A9F4            09228 69507    9608.              AL    RA,=A(PAGPAGEL-1)       |
 0088C8 5420 A9F8            0922C 69508    9609.              N     RA,=A(-PAGPAGEL)        |
 0088CC 8820 000C            0000C 69509    9610.              SRL   RA,L'PAGPAGM            |
 0088D0 4020 60BC            000BC 69510    9611.              STH   RA,PAGSEGP              | pages/segment table
                                   69511    9612.     *  Get various locks
 DROP   @VMGET-72,R13              69512    9613.              LKCRE PAGFRAME,TYPE=SPIN      Free frame lock
 USING  @LOCKCRE-72,R13
 0088D4 D710 D048 D048 00000 00000 69533             +
 0088DA D20F D048 A8EC 00000 09120 69539             +
 0088E0 9680 D058      00010       69545             +
 0088E4 58F0 A9FC/0DEF       09230 69548             +
 0088EA 5000 603C            0003C 69550    9614.              ST    RVR,PAGFRAL             |
 0088EE                            69551    9615.              LKCRE PAGESWAP,TYPE=SPIN      Swap control lock
 0088EE D710 D048 D048 00000 00000 69562             +
 0088F4 D20F D048 A8FC 00000 09130 69568             +
 0088FA 9680 D058      00010       69574             +
 0088FE 58F0 A9FC/0DEF       09230 69577             +
 008904 5000 6040            00040 69579    9616.              ST    RVR,PAGSWAPL            |
                                   69580    9617.     *  Init lists
 USING  LHEAD,R3                   69581    9618.              WITH  (LHEAD,RB),BEGIN        LHEAD addr
 008908 4130 6064            00064 69595  1 9619.                LA    RB,PAGFHEAD             Init free frames pool
 00890C 5030 3000            00000 69596  1 9620.                ST    RB,LHFP
 008910 5030 3004            00004 69597  1 9621.                ST    RB,LHBP
 008914 4130 609C            0009C 69598  1 9622.                LA    RB,PAGFWT               | waiting for free frames
 008918 5030 3000            00000 69599  1 9623.                ST    RB,LHFP
 00891C 5030 3004            00004 69600  1 9624.                ST    RB,LHBP
 008920 4130 6054            00054 69601  1 9625.                LA    RB,PAGUFHD              Init list of un-LT-fixed frame
 008924 5030 3000            00000 69602  1 9626.                ST    RB,LHFP
 008928 5030 3004            00004 69603  1 9627.                ST    RB,LHBP
 00892C 4130 6070            00070 69604  1 9628.                LA    RB,PAGLASB              Init logical swaps list
 008930 5030 3000            00000 69605  1 9629.                ST    RB,LHFP
 008934 5030 3004            00004 69606  1 9630.                ST    RB,LHBP
1PAGESERV (PAGE00) (09:42) (22MAR04) Global initialization                                                                  Page  389
0Current Usings:  (LHEAD,R3) (PAGCB,R6) (PAGINIT,R10) (@PAGINIT-72,R12) (@LOCKCRE-72,R13)
0Loc    Object Code    Addr1 Addr2  Stmt Lv Lineno    Source Statement           (Hibal 5, Asmedit 3.3)  HLASM R4.0  2004/03/22 09.42
+___    ______ ____    _____ _____  ____ __ ______    ______ _________
0008938 4130 607C            0007C 69607  1 9631.                LA    RB,PAGLIP               Init logical/in-progess list
 00893C 5030 3000            00000 69608  1 9632.                ST    RB,LHFP
 008940 5030 3004            00004 69609  1 9633.                ST    RB,LHBP
 008944 4130 608C            0008C 69610  1 9634.                LA    RB,PAGRSCB              Init non-reclaimed swap CBs
 008948 5030 3000            00000 69611  1 9635.                ST    RB,LHFP
 00894C 5030 3004            00004 69612  1 9636.                ST    RB,LHBP
 008950 4130 61C8            001C8 69613  1 9637.                LA    RB,PAGXPWT              Init lists for ext pag res
 008954 5030 3000            00000 69614  1 9638.                ST    RB,LHFP
 008958 5030 3004            00004 69615  1 9639.                ST    RB,LHBP
 00895C 4130 6148            0000C 69616  1 9640.                LA    RB,PC.PAGCELAS          Init lists for paging cells
 008960 5030 3000            00000 69617  1 9641.                ST    RB,LHFP
 008964 5030 3004            00004 69618  1 9642.                ST    RB,LHBP
 008968 4130 6168            0000C 69619  1 9643.                LA    RB,SC.PAGCELAS          Init lists for swapping cells
 00896C 5030 3000            00000 69620  1 9644.                ST    RB,LHFP
 008970 5030 3004            00004 69621  1 9645.                ST    RB,LHBP
 008974 4130 6194            00194 69622  1 9646.                LA    RB,PAGASNW              Init waiting for ASN list
 008978 5030 3000            00000 69623  1 9647.                ST    RB,LHFP
 00897C 5030 3004            00004 69624  1 9648.                ST    RB,LHBP
 DROP   LHEAD,R3                   69625    9649.              END   ,                       OF LHEAD addr
 008980 5870 C048            00000 69633    9650.              L     RPCB,@PAGIASB           Common ASB address
 008984 5070 6018            00018 69634    9651.              ST    RPCB,PAGCASB            |
                                   69635    9652.     *  Init info pointers
 008988 4130 61F8            001F8 69636    9653.              LA    RB,PAGSTATS             |
 00898C 5030 6008            00008 69637    9654.              ST    RB,PAGSTPTR             |
 008990 4130 61C0            001C0 69638    9655.              LA    RB,PAGXPN               |
 008994 5030 61F8            001F8 69639    9656.              ST    RB,PTRXPN               |
 008998 4130 61B4            001B4 69640    9657.              LA    RB,PAGXPDS              |
 00899C 5030 61FC            001FC 69641    9658.              ST    RB,PTRXPDS              |
 0089A0 4130 61C4            001C4 69642    9659.              LA    RB,PAGXPRCNT            |
 0089A4 5030 6200            00200 69643    9660.              ST    RB,PTRXPRCNT            |
 0089A8 4130 61E4            001E4 69644    9661.              LA    RB,PAGXSRCNT            |
 0089AC 5030 620C            0020C 69645    9662.              ST    RB,PTRXSRCNT            |
 0089B0 4130 61E0            001E0 69646    9663.              LA    RB,PAGXSN               |
 0089B4 5030 6204            00204 69647    9664.              ST    RB,PTRXSN               |
 0089B8 4130 61D4            001D4 69648    9665.              LA    RB,PAGXSDS              |
 0089BC 5030 6208            00208 69649    9666.              ST    RB,PTRXSDS              |
 0089C0 4130 6050            00050 69650    9667.              LA    RB,PAGFIXCNT            |
 0089C4 5030 6210            00210 69651    9668.              ST    RB,PTRFRAN              |
 0089C8 4130 60B0            000B0 69652    9669.              LA    RB,PAGASIN              |
 0089CC 5030 6214            00214 69653    9670.              ST    RB,PTRASIN              |
 0089D0 4130 6078            00078 69654    9671.              LA    RB,PAGLCNT              |
 0089D4 5030 6218            00218 69655    9672.              ST    RB,PTRLOUT              |
 0089D8 4130 603C            0003C 69656    9673.              LA    RB,PAGFRAL              |
 0089DC 5030 621C            0021C 69657    9674.              ST    RB,PTRFRAME             |
1PAGESERV (PAGE00) (09:42) (22MAR04) Global initialization                                                                  Page  390
0Current Usings:  (PAGCB,R6) (PAGINIT,R10) (@PAGINIT-72,R12) (@LOCKCRE-72,R13)
0Loc    Object Code    Addr1 Addr2  Stmt Lv Lineno    Source Statement           (Hibal 5, Asmedit 3.3)  HLASM R4.0  2004/03/22 09.42
+___    ______ ____    _____ _____  ____ __ ______    ______ _________
0                                  69659    9676.
                                   69660    9677.          Init ASN allocation mechanism
                                   69661    9678.
 0089E0 58F0 AA00/0DEF       09234 69662    9679.              ACALL ASNINIT
                                   69669    9680.
                                   69670    9681.          Common ASB/PCB init
                                   69671    9682.
 DROP   @LOCKCRE-72,R13            69672    9683.              PSET  @PCBINIT                Init global PCB
 USING  @PCBINIT-72,R13
 0089E6 D703 D048 D048 00000 00000 69692             +
 0089EC 5070 D048            00000 69693    9684.              PMOV  @PCIASB,(RPCB)          |
 0089F0 58F0 AA04/0DEF       09238 69703    9685.              ACALL PCBINIT                 |
 0089F6 1820                       69710    9686.              LR    RA,RVR                  PCB addr
 USING  ASBPCB,R2                  69711    9687.              WITH  (ASBPCB,RA),BEGIN       |
 USING  ASB,R7                     69725  1 9688.                WITH  (ASB,RPCB),BEGIN        ASB addr
 0089F8 5020 7020            00020 69739  2 9689.                  ST    RA,ASBPAGB              Point at this PCB
 0089FC 9680 7014      00014       69740  2 9690.                  SET   ASBFGBLC                Set global flag
 008A00 9680 2022      00022       69746  2 9691.                  SET   PCBFGBLC                Common PCB
 DROP   ASB,R7                     69752  1 9692.                END   ,                       OF ASB addr
 DROP   ASBPCB,R2                  69760    9693.              END   ,                       OF PCB addr
 008A04 1872                       69768    9694.              LR    RPCB,RA                 set PCB register
                                   69769    9695.
                                   69770    9696.          Get ASN and fill in ASTE
                                   69771    9697.          NB - The authority index and linkage table descriptors for now
                                   69772    9698.               default to zero.
                                   69773    9699.               Set PASN and SASN as the same now
                                   69774    9700.
 008A06 5840 61A0            001A0 69775    9701.              L     RJ,PAGAFTO              Get first AST table RA
 008A0A 5840 4000            00000 69776    9702.              WITH  (AFTE,RJ),'L RJ,AFTASTO'
 USING  AFTE,R4
 DROP   AFTE,R4
 008A0E 5440 AA08            0923C 69800    9703.              N     RJ,=A(AFTASTM)          |
                                   69801    9704.
                                   69802    9705.          Fill in slot for ASN 0, the global address space's ASN
                                   69803    9706.            Use DAT-OFF
                                   69804    9707.
 USING  ASBPCB,R7                  69805    9708.              WITH  (ASBPCB,RPCB),BEGIN
 008A12 B150 6000            00000 69819  1 9709.                LRA   RK,PAGCB
 008A16 5810 7014            00014 69820  1 9710.                L     RS,PCBRA                DAT-Off
 008A1A ACFB 70B5      000B5       69821  1 9711.                DATOFF PCBPSWM                |
 DROP   PAGCB,R6                   69823  1 9712.                WITH  (PAGCB,RK),BEGIN        Addr of PAGCB in DAT-OFF
 USING  PAGCB,R5
 USING  ASTE,R4                    69845  2 9713.                  WITH  (ASTE,RJ)
 008A1E 5820 50B8            000B8 69858  2 9714.                  L     RA,PAGMEG               Segment table length
 008A22 8820 0004            00004 69859  2 9715.                  SRL   RA,4                    | now in multiples of 16
 008A26 0620                       69860  2 9716.                  DECR  RA                      |
 008A28 5020 4008            00008 69862  2 9717.                  ST    RA,ASTSTD               | only len of seg table
 008A2C D203 4000 518C 00000 0018C 69863  2 9718.                  MVC   ASTATO,PAGATO           | authority location & len
 008A32 D201 4006 5190 00006 00190 69864  2 9719.                  MVC   ASTATL,PAGATL           |
 008A38 9680 4000      00000       69865  2 9720.                  SET   ASTFINV                 | invalid, although allocated
 008A3C                            69871  2 9721.                  CLEAR PAG1ASN                 Lowest possible available ASN
 008A3C D701 51A4 51A4 001A4 001A4 69877  2          +
 008A42 5890 51A8/0690       001A8 69878  2 9722.                  DECR  RN,PAGAVASN             One less ASN entry available
 008A48 5090 51A8            001A8 69882  2          +
1PAGESERV (PAGE00) (09:42) (22MAR04) Global initialization                                                                  Page  391
0Current Usings:  (PAGCB,R6) (ASBPCB,R7) (PAGINIT,R10) (@PAGINIT-72,R12) (@PCBINIT-72,R13)
0Loc    Object Code    Addr1 Addr2  Stmt Lv Lineno    Source Statement           (Hibal 5, Asmedit 3.3)  HLASM R4.0  2004/03/22 09.42
+___    ______ ____    _____ _____  ____ __ ______    ______ _________
0DROP   ASTE,R4                    69883  1 9723.                END   ,                       OF addr of PAGCB in DAT-OFF
 USING  PAGCB,R6
 DROP   PAGCB,R5
 008A4C 8000 10B5      000B5       69905  1 9724.                WITH  (ASBPCB,RS),'DATON PCBPSWM'      DAT-On
 DROP   ASBPCB,R7
 USING  ASBPCB,R1
 USING  ASBPCB,R7
 DROP   ASBPCB,R1
                                   69947  1 9725.
                                   69948  1 9726.            Set results in global ASB and PCB
                                   69949  1 9727.
 008A50 4220 7025            00025 69950  1 9728.                STC   RA,PCBPSTL              Set segment table len
 008A54                            69951  1 9729.                CLEAR PCBPASN                 Save this ASN
 008A54 D701 7020 7020 00020 00020 69957  1          +
 008A5A 5850 700C            0000C 69958  1 9730.                L     RK,PCBASB               |
 USING  ASB,R5                     69959  1 9731.                WITH  (ASB,RK),BEGIN          | Local ASB addr
 008A5E                            69973  2 9732.                  CLEAR ASBPASN                 |
 008A5E D701 500E 500E 0000E 0000E 69979  2          +
 008A64                            69980  2 9733.                  CLEAR ASBSASN                 |
 008A64 D701 500A 500A 0000A 0000A 69986  2          +
 DROP   ASB,R5                     69987  1 9734.                END   ,                       | OF Local ASB addr
 DROP   ASBPCB,R7                  69995    9735.              END   ,                       OF PCB addressability
1PAGESERV (PAGE00) (09:42) (22MAR04) Global initialization                                                                  Page  392
0Current Usings:  (PAGCB,R6) (PAGINIT,R10) (@PAGINIT-72,R12) (@PCBINIT-72,R13)
0Loc    Object Code    Addr1 Addr2  Stmt Lv Lineno    Source Statement           (Hibal 5, Asmedit 3.3)  HLASM R4.0  2004/03/22 09.42
+___    ______ ____    _____ _____  ____ __ ______    ______ _________
0AUSING (PC.PAGCEL,PAGPGCEL)       70004    9737.              WITH  (PAGCEL,PAGPGCEL),LABEL=PC
 AUSING (SC.PAGCEL,PAGSWCEL)       70011    9738.              WITH  (PAGCEL,PAGSWCEL),LABEL=SC
                                   70018    9739.
                                   70019    9740.          External frame init - paging
                                   70020    9741.            Data set has not been allocated yet.  PAGINIT2 will allocate
                                   70021    9742.          the datasets and map the external frames allocated in the first
                                   70022    9743.          pass to a real paging dataset.
                                   70023    9744.
 DROP   @PCBINIT-72,R13            70024    9745.              LKCRE PAGEXPAG,TYPE=SPIN      External pages lock
 USING  @LOCKCRE-72,R13
 008A6A D710 D048 D048 00000 00000 70045             +
 008A70 D20F D048 A90C 00000 09140 70051             +
 008A76 9680 D058      00010       70057             +
 008A7A 58F0 A9FC/0DEF       09230 70060             +
 008A80 5000 61B8            001B8 70062    9746.              ST    RVR,PAGXPL              |
 008A84 D201 61C0 AA80 001C0 092B4 70063    9747.              MVC   PAGXPN,=Y(1)            Only one bitmap for init
 DROP   @LOCKCRE-72,R13            70064    9748.              VMGET L'DSDES,LOC=GLOBHI,FIX=YES,ONEPAGE=YES
 USING  @VMGET-72,R13
 008A8A D70A D048 D048 00000 00000 70091             +
 008A90 4100 0038            00038 70103             +
 008A94 5000 D048            00000 70108             +
 008A98 D201 D050 AA7C 00008 092B0 70109             +
 008A9E 9640 D052      0000A       70115             +
 008AA2 58F0 A9E4/0DEF       09218 70118             +
 008AA8 5000 61B4            001B4 70120    9749.              ST    RVR,PAGXPDS
 008AAC 5000 61BC            001BC 70121    9750.              ST    RVR,PAGXPCUR
 008AB0 1840                       70122    9751.              LR    RJ,RVR                  Init control block
                                   70123    9752.
                                   70124    9753.          Allocate bitmap and initialize it
                                   70125    9754.
 USING  DSDES,R4                   70126    9755.              WITH  (DSDES,RJ),BEGIN
 008AB2                            70140  1 9756.                CLEAR DSDES
 008AB2 D737 4000 4000 00000 00000 70146  1          +
 008AB8 D203 4000 AA0C 00000 09240 70147  1 9757.                MVC   DSAID,=CL4'BMCB'        Set ID
 008ABE 5830 AA10            09244 70148  1 9758.                L     RB,=A(4096)             | number of blocks for init
 008AC2 5030 400C            0000C 70149  1 9759.                ST    RB,DSCOUNT              |
 008AC6 5030 4010            00010 70150  1 9760.                ST    RB,DSAVAIL              |
 008ACA 5030 61C4            001C4 70151  1 9761.                ST    RB,PAGXPRCNT            Total blocks in PAGE DSs
 008ACE 4130 3007            00007 70152  1 9762.                LA    RB,@RB+7                Bytes required for map
 008AD2 8830 0003            00003 70153  1 9763.                SRL   RB,3                    |
 008AD6                            70154  1 9764.                VMGET (RB),LOC=GLOBHI,FIX=YES
 008AD6 D70A D048 D048 00000 00000 70171  1          +
 008ADC 5030 D048            00000 70181  1          +
 008AE0 D201 D050 AA7C 00008 092B0 70182  1          +
 008AE6 58F0 A9E4/0DEF       09218 70185  1          +
 008AEC 5000 4004            00004 70187  1 9765.                ST    RVR,DSLOC               Bitmap location
 008AF0 5030 4008            00008 70188  1 9766.                ST    RB,DSLEN                | and len
                                   70189  1 9767.                REGCH (RAR,R14),(EPAR,R15)
 008AF4 18E0                       70190  1 9768.                LR    RAR,RVR                 Init bit map - location
 008AF6 18F3                       70191  1 9769.                LR    EPAR,RB                 | and len
 008AF8 1F33/BF38 AA88       092BC 70192  1 9770.                LCM   RB,8,=X'FF'             | fill w/ ones
 008AFE 0EE2                       70197  1 9771.                MVCL  RAR,RA                  |
1PAGESERV (PAGE00) (09:42) (22MAR04) Global initialization                                                                  Page  393
0Current Usings:  (DSDES,R4) (PAGCB,R6) (PAGINIT,R10) (@PAGINIT-72,R12) (@VMGET-72,R13)
0Loc    Object Code    Addr1 Addr2  Stmt Lv Lineno    Source Statement           (Hibal 5, Asmedit 3.3)  HLASM R4.0  2004/03/22 09.42
+___    ______ ____    _____ _____  ____ __ ______    ______ _________
0                                  70198  1 9772.
                                   70199  1 9773.            Point to self w/ only one dummy bitmap
                                   70200  1 9774.
 008B00 5040 401C            0001C 70201  1 9775.                ST    RJ,DSCHAIN
 DROP   DSDES,R4                   70202    9776.              END   ,                       OF allocate bitmap and init it
1PAGESERV (PAGE00) (09:42) (22MAR04) Global initialization                                                                  Page  394
0Current Usings:  (PAGCB,R6) (PAGINIT,R10) (@PAGINIT-72,R12) (@VMGET-72,R13)
0Loc    Object Code    Addr1 Addr2  Stmt Lv Lineno    Source Statement           (Hibal 5, Asmedit 3.3)  HLASM R4.0  2004/03/22 09.42
+___    ______ ____    _____ _____  ____ __ ______    ______ _________
0                                  70211    9778.
                                   70212    9779.          Get initialization parameters
                                   70213    9780.
 008B04                            70214    9781.              VMGET L'PAGIPARM,LOC=GLOBHI,FIX=YES
 008B04 D70A D048 D048 00000 00000 70231             +
 008B0A 4100 0048            00048 70243             +
 008B0E 5000 D048            00000 70248             +
 008B12 D201 D050 AA7C 00008 092B0 70249             +
 008B18 58F0 A9E4/0DEF       09218 70252             +
 008B1E 1880                       70254    9782.              LR    RM,RVR
 008B20 5080 C068            00018 70255    9783.              ST    RM,#PIPARM          Save pointer
 USING  PAGIPARM,R8                70256    9784.              WITH  (PAGIPARM,RM),BEGIN
 AUSING (PARMIN,PAGITYPE)          70270  1 9785.                WITH  (PARMIN,PAGITYPE)
                                   70277  1 9786.                REGCH (RVR,R0),(RS,R1),(RAR,R14),(EPAR,R15)
                                   70278  1 9787.     *  Paging I/O cells
 008B24 9204 8000      00000       70279  1 9788.                GETPARM2 KEY=(PAGING,PAGE_CNT),REGS=(RVR,RAR)
 008B28 D207 8004 A91C 00004 09150 70286  1          +
 008B2E D207 800C A924 0000C 09158 70287  1          +
 008B34 41E0 8000            00000 70294  1          +
 008B38 41F0 0014            00014 70301  1          +
 008B3C 830E0016                   70304  1          +
 008B40 4130 0100            00100 70305  1 9789.                LA    RB,CPAGCEL              Default
 008B44 4770 A322            08B56 70306  1 9790.                IF    ZERO,BEGIN
 008B48 1830                       70317  2 9791.                  LR    RB,RVR
 008B4A 5930 AA14            09248 70318  2 9792.                  FLOOR RB,20                   Minimum
 008B4E 47B0 A322            08B56 70327  2          +
 008B52 5830 AA14            09248 70332  2          +
 008B56                            70337  1 9793.                END   ,
 008B56 5030 6140            00004 70341  1 9794.                ST    RB,PC.PAGCELAMT
                                   70342  1 9795.     *  Swapping I/O cells
 008B5A 9204 8000      00000       70343  1 9796.                GETPARM2 KEY=(,SWAP_CNT),REGS=(RVR,RAR)
 008B5E D207 800C A92C 0000C 09160 70350  1          +
 008B64 41E0 8000            00000 70357  1          +
 008B68 41F0 0014            00014 70364  1          +
 008B6C 830E0016                   70367  1          +
 008B70 4130 0019            00019 70368  1 9797.                LA    RB,CSWPCEL              Default
 008B74 4770 A352            08B86 70369  1 9798.                IF    ZERO,BEGIN
 008B78 1830                       70380  2 9799.                  LR    RB,RVR
 008B7A 5930 AA18            0924C 70381  2 9800.                  FLOOR RB,10                   Minimum
 008B7E 47B0 A352            08B86 70390  2          +
 008B82 5830 AA18            0924C 70395  2          +
 008B86                            70400  1 9801.                END   ,
 008B86 5030 6160            00004 70404  1 9802.                ST    RB,SC.PAGCELAMT
                                   70405  1 9803.     *  Average size of working set
 008B8A 9204 8000      00000       70406  1 9804.                GETPARM2 KEY=(,AVG_WS),REGS=(RVR,RAR)
 008B8E D207 800C A934 0000C 09168 70413  1          +
 008B94 41E0 8000            00000 70420  1          +
 008B98 41F0 0014            00014 70427  1          +
 008B9C 830E0016                   70430  1          +
 008BA0 4130 0050            00050 70431  1 9805.                LA    RB,CSWPAVG              Default
 008BA4 4770 A382            08BB6 70432  1 9806.                IF    ZERO,BEGIN
 008BA8 1830                       70443  2 9807.                  LR    RB,RVR
 008BAA 5930 AA14            09248 70444  2 9808.                  FLOOR RB,20                   Minimum
 008BAE 47B0 A382            08BB6 70453  2          +
1PAGESERV (PAGE00) (09:42) (22MAR04) Global initialization                                                                  Page  395
0Current Usings:  (PAGCB,R6) (PAGIPARM,R8) (PAGINIT,R10) (@PAGINIT-72,R12) (@VMGET-72,R13)
0Loc    Object Code    Addr1 Addr2  Stmt Lv Lineno    Source Statement           (Hibal 5, Asmedit 3.3)  HLASM R4.0  2004/03/22 09.42
+___    ______ ____    _____ _____  ____ __ ______    ______ _________
0008BB2 5830 AA14            09248 70458  2          +
 008BB6                            70463  1 9809.                END   ,
 008BB6 4030 6182            00182 70467  1 9810.                STH   RB,PAGSWAVG
                                   70468  1 9811.     *  Number of cycles before page is thrown out of working set
 008BBA 9204 8000      00000       70469  1 9812.                GETPARM2 KEY=(,WS_CYCLE),REGS=(RVR,RAR)
 008BBE D207 800C A93C 0000C 09170 70476  1          +
 008BC4 41E0 8000            00000 70483  1          +
 008BC8 41F0 0014            00014 70490  1          +
 008BCC 830E0016                   70493  1          +
 008BD0 4130 0008            00008 70494  1 9813.                LA    RB,8                    Default
 008BD4 4770 A3BE            08BF2 70495  1 9814.                IF    ZERO,BEGIN
 008BD8 1830                       70506  2 9815.                  LR    RB,RVR
 008BDA 5930 AA1C            09250 70507  2 9816.                  FLOOR RB,1                    Minimum
 008BDE 47B0 A3B2            08BE6 70516  2          +
 008BE2 5830 AA1C            09250 70521  2          +
 008BE6 5930 AA20            09254 70526  2 9817.                  CEIL  RB,8                    Maximum
 008BEA 47D0 A3BE            08BF2 70535  2          +
 008BEE 5830 AA20            09254 70540  2          +
 008BF2                            70545  1 9818.                END   ,
 008BF2 5820 AA24            09258 70549  1 9819.                L     RA,=A(PAGMXHST)         Set up history value
 008BF6 8820 3000            00000 70550  1 9820.                SRL   RA,@RB                   shifting one bit/cycle
 008BFA 5020 6120            00120 70551  1 9821.                ST    RA,PAGMNHST
                                   70552  1 9822.     *  Number of cycles before global page is thrown out of working set
 008BFE 9204 8000      00000       70553  1 9823.                GETPARM2 KEY=(,GWS_CYCLE),REGS=(RVR,RAR)
 008C02 D207 800C A944 0000C 09178 70560  1          +
 008C08 41E0 8000            00000 70567  1          +
 008C0C 41F0 0014            00014 70574  1          +
 008C10 830E0016                   70577  1          +
 008C14 4130 0008            00008 70578  1 9824.                LA    RB,8                    Default
 008C18 4770 A402            08C36 70579  1 9825.                IF    ZERO,BEGIN
 008C1C 1830                       70590  2 9826.                  LR    RB,RVR
 008C1E 5930 AA1C            09250 70591  2 9827.                  FLOOR RB,1                    Minimum
 008C22 47B0 A3F6            08C2A 70600  2          +
 008C26 5830 AA1C            09250 70605  2          +
 008C2A 5930 AA20            09254 70610  2 9828.                  CEIL  RB,8                    Maximum
 008C2E 47D0 A402            08C36 70619  2          +
 008C32 5830 AA20            09254 70624  2          +
 008C36                            70629  1 9829.                END   ,
 008C36 5820 AA24            09258 70633  1 9830.                L     RA,=A(PAGMXHST)         Set up history value
 008C3A 8820 3000            00000 70634  1 9831.                SRL   RA,@RB                   shifting one bit/cycle
 008C3E 5020 6124            00124 70635  1 9832.                ST    RA,PAGGMHST
                                   70636  1 9833.
 008C42 6000 C050            00000 70637  1 9834.                STD   R0,#PIFLT0              Save old float 0
                                   70638  1 9835.
                                   70639  1 9836.            Get the exponential average parameter for swaps/sec
                                   70640  1 9837.             values closer to 1.00 weigh more heavily to past history
                                   70641  1 9838.
 008C46 920C 8000      00000       70642  1 9839.                GETPARM2 KEY=(,RM_ALPHA),TYPE=FLOAT,REGS=(RVR,RAR)
 008C4A D207 800C A94C 0000C 09180 70649  1          +
 008C50 41E0 8000            00000 70656  1          +
 008C54 41F0 0014            00014 70663  1          +
 008C58 830E0016                   70666  1          +
 008C5C 7800 AA28            0925C 70667  1 9840.                LE    R0,=E'.55'              Default (.55)
 008C60 4770 A44C            08C80 70668  1 9841.                IF    ZERO,BEGIN
1PAGESERV (PAGE00) (09:42) (22MAR04) Global initialization                                                                  Page  396
0Current Usings:  (PAGCB,R6) (PAGIPARM,R8) (PAGINIT,R10) (@PAGINIT-72,R12) (@VMGET-72,R13)
0Loc    Object Code    Addr1 Addr2  Stmt Lv Lineno    Source Statement           (Hibal 5, Asmedit 3.3)  HLASM R4.0  2004/03/22 09.42
+___    ______ ____    _____ _____  ____ __ ______    ______ _________
0008C64 5000 801C            0001C 70679  2 9842.                  ST    RVR,PAGIOUT
 008C68 7800 801C            0001C 70680  2 9843.                  LE    R0,PAGIOUT
 008C6C 3200/4720 A440       08C74 70681  2 9844.                  IF    ('LTER R0,R0',NPOS),'SER R0,R0'          Minimum
 008C72 3B00                       70695  2          +
 008C74 7900 AA2C            09260 70700  2 9845.                  IF    ('CE R0,=E".99"',GT),'LE R0,=E".99"'     Maximum
 008C78 47D0 A44C            08C80 70708  2          +
 008C7C 7800 AA2C            09260 70714  2          +
 008C80                            70719  1 9846.                END   ,
 008C80 7000 60E0            000E0 70723  1 9847.                STE   R0,PAGSRATE
                                   70724  1 9848.
                                   70725  1 9849.            Swap parameter for long term frame management
                                   70726  1 9850.              If swap rate is lower than the lower suggested rate,
                                   70727  1 9851.              this number is multiplied by the difference between the
                                   70728  1 9852.              actual swap rate and the boundary swap rate.  The resulting
                                   70729  1 9853.              number is the count of frames that we will try to long
                                   70730  1 9854.              term release.
                                   70731  1 9855.
 008C84 920C 8000      00000       70732  1 9856.                GETPARM2 KEY=(,RM_LOW),TYPE=FLOAT,REGS=(RVR,RAR)
 008C88 D207 800C A954 0000C 09188 70739  1          +
 008C8E 41E0 8000            00000 70746  1          +
 008C92 41F0 0014            00014 70753  1          +
 008C96 830E0016                   70756  1          +
 008C9A 7800 AA30            09264 70757  1 9857.                LE    R0,=E'1'                Default
 008C9E 4770 A47E            08CB2 70758  1 9858.                IF    ZERO,BEGIN
 008CA2 5000 801C            0001C 70769  2 9859.                  ST    RVR,PAGIOUT
 008CA6 7800 801C            0001C 70770  2 9860.                  LE    R0,PAGIOUT
 008CAA 3200/4720 A47E       08CB2 70771  2 9861.                  IF    ('LTER R0,R0',NPOS),'SER R0,R0'          Minimum
 008CB0 3B00                       70785  2          +
 008CB2                            70790  1 9862.                END   ,
 008CB2 7000 60E8            000E8 70794  1 9863.                STE   R0,PAGSRMLO
                                   70795  1 9864.
                                   70796  1 9865.            Swap parameter for long term frame management
                                   70797  1 9866.              If swap rate is higher than the high suggested rate,
                                   70798  1 9867.              this number is multiplied by the difference between the
                                   70799  1 9868.              actual swap rate and the boundary swap rate.  The resulting
                                   70800  1 9869.              number is the count of frames that we will try to long
                                   70801  1 9870.              term fix.
                                   70802  1 9871.
 008CB6 920C 8000      00000       70803  1 9872.                GETPARM2 KEY=(,RM_HIGH),TYPE=FLOAT,REGS=(RVR,RAR)
 008CBA D207 800C A95C 0000C 09190 70810  1          +
 008CC0 41E0 8000            00000 70817  1          +
 008CC4 41F0 0014            00014 70824  1          +
 008CC8 830E0016                   70827  1          +
 008CCC 7800 AA30            09264 70828  1 9873.                LE    R0,=E'1'                Default
 008CD0 4770 A4B0            08CE4 70829  1 9874.                IF    ZERO,BEGIN
 008CD4 5000 801C            0001C 70840  2 9875.                  ST    RVR,PAGIOUT
 008CD8 7800 801C            0001C 70841  2 9876.                  LE    R0,PAGIOUT
 008CDC 3200/4720 A4B0       08CE4 70842  2 9877.                  IF    ('LTER R0,R0',NPOS),'SER R0,R0'          Minimum
 008CE2 3B00                       70856  2          +
 008CE4                            70861  1 9878.                END   ,
 008CE4 7000 60E4            000E4 70865  1 9879.                STE   R0,PAGSRMHI
1PAGESERV (PAGE00) (09:42) (22MAR04) Global initialization                                                                  Page  397
0Current Usings:  (PAGCB,R6) (PAGIPARM,R8) (PAGINIT,R10) (@PAGINIT-72,R12) (@VMGET-72,R13)
0Loc    Object Code    Addr1 Addr2  Stmt Lv Lineno    Source Statement           (Hibal 5, Asmedit 3.3)  HLASM R4.0  2004/03/22 09.42
+___    ______ ____    _____ _____  ____ __ ______    ______ _________
0                                  70866  1 9880.
                                   70867  1 9881.            Get the high swap/sec parameter
                                   70868  1 9882.             above this we try to get more frames
                                   70869  1 9883.
 008CE8 920C 8000      00000       70870  1 9884.                GETPARM2 KEY=(,SWAP_HI),TYPE=FLOAT,REGS=(RVR,RAR)
 008CEC D207 800C A964 0000C 09198 70877  1          +
 008CF2 41E0 8000            00000 70884  1          +
 008CF6 41F0 0014            00014 70891  1          +
 008CFA 830E0016                   70894  1          +
 008CFE 7800 AA34            09268 70895  1 9885.                LE    R0,=E'60'               Default (60/sec)
 008D02 4770 A4F2            08D26 70896  1 9886.                IF    ZERO,BEGIN
 008D06 5000 801C            0001C 70907  2 9887.                  ST    RVR,PAGIOUT
 008D0A 7800 801C            0001C 70908  2 9888.                  LE    R0,PAGIOUT
 008D0E 7900 AA30            09264 70909  2 9889.                  IF    ('CE R0,=E"1"',LT),'LE R0,=E"1"'         Minimum /sec
 008D12 47B0 A4E6            08D1A 70917  2          +
 008D16 7800 AA30            09264 70923  2          +
 008D1A 7900 AA38            0926C 70928  2 9890.                  IF    ('CE R0,=E"1000"',GT),'LE R0,=E"1000"'   Maximum /sec
 008D1E 47D0 A4F2            08D26 70936  2          +
 008D22 7800 AA38            0926C 70942  2          +
 008D26                            70947  1 9891.                END   ,
 008D26 7000 60D4            000D4 70951  1 9892.                STE   R0,PAGSRHI
                                   70952  1 9893.
                                   70953  1 9894.            Get the low swap/sec parameter
                                   70954  1 9895.             below this we try to free frames
                                   70955  1 9896.
 008D2A 920C 8000      00000       70956  1 9897.                GETPARM2 KEY=(,SWAP_LOW),TYPE=FLOAT,REGS=(RVR,RAR)
 008D2E D207 800C A96C 0000C 091A0 70963  1          +
 008D34 41E0 8000            00000 70970  1          +
 008D38 41F0 0014            00014 70977  1          +
 008D3C 830E0016                   70980  1          +
 008D40 7800 AA3C            09270 70981  1 9898.                LE    R0,=E'20'               Default /sec
 008D44 4770 A51C            08D50 70982  1 9899.                IF    ZERO,BEGIN
 008D48 5000 801C            0001C 70993  2 9900.                  ST    RVR,PAGIOUT
 008D4C 7800 801C            0001C 70994  2 9901.                  LE    R0,PAGIOUT
 008D50                            70995  1 9902.                END   ,
 008D50 7900 AA40            09274 70999  1 9903.                IF    ('CE R0,=E".1"',LT),'LE R0,=E".1"'       Minimum /sec
 008D54 47B0 A528            08D5C 71007  1          +
 008D58 7800 AA40            09274 71013  1          +
 008D5C 7900 60D4            000D4 71018  1 9904.                IF    ('CE R0,PAGSRHI',GT),'LE R0,PAGSRHI'     Maximum /sec
 008D60 47D0 A534            08D68 71026  1          +
 008D64 7800 60D4            000D4 71032  1          +
 008D68 7000 60D8            000D8 71037  1 9905.                STE   R0,PAGSRLO
                                   71038  1 9906.
                                   71039  1 9907.            Long term fixing/releasing threshold - below this number we don't
                                   71040  1 9908.              bother unfixing a frame.
                                   71041  1 9909.
 008D6C 9204 8000      00000       71042  1 9910.                GETPARM2 KEY=(,RM_THRSH),REGS=(RVR,RAR)
 008D70 D207 800C A974 0000C 091A8 71049  1          +
 008D76 41E0 8000            00000 71056  1          +
 008D7A 41F0 0014            00014 71063  1          +
 008D7E 830E0016                   71066  1          +
 008D82 7800 60D8            000D8 71067  1 9911.                LE    R0,PAGSRLO              Minimum threshold can't be
 008D86 7C00 60E8            000E8 71068  1 9912.                ME    R0,PAGSRMLO              more than 1/2 of
 008D8A 6C00 A97C            091B0 71069  1 9913.                MD    R0,=D'0.5'                low_rate * low_multiplier
1PAGESERV (PAGE00) (09:42) (22MAR04) Global initialization                                                                  Page  398
0Current Usings:  (PAGCB,R6) (PAGIPARM,R8) (PAGINIT,R10) (@PAGINIT-72,R12) (@VMGET-72,R13)
0Loc    Object Code    Addr1 Addr2  Stmt Lv Lineno    Source Statement           (Hibal 5, Asmedit 3.3)  HLASM R4.0  2004/03/22 09.42
+___    ______ ____    _____ _____  ____ __ ______    ______ _________
0008D8E 3500                       71070  1 9914.                LRER  R0,R0
 008D90 7E00 AA44            09278 71071  1 9915.                AU    R0,=X'46000000'
 008D94 7000 60EC            000EC 71072  1 9916.                STE   R0,PAGSRTHR
 008D98 9200 60EC      000EC       71073  1 9917.                MVI   PAGSRTHR,0
 008D9C 5820 60EC            000EC 71074  1 9918.                L     RA,PAGSRTHR             Top value for threshold
 008DA0 4770 A586            08DBA 71075  1 9919.                IF    ZERO,BEGIN
 008DA4 1830                       71086  2 9920.                  LR    RB,RVR
 008DA6 5930 AA48            0927C 71087  2 9921.                  FLOOR RB,0                    Minimum
 008DAA 47B0 A57E            08DB2 71096  2          +
 008DAE 5830 AA48            0927C 71101  2          +
 008DB2 1932/47B0 A586       08DBA 71106  2 9922.                  IF    (RB,LT,RA),'LR RA,RB'   RA = maximum
 008DB8 1823                       71122  2          +
 008DBA                            71127  1 9923.                END   ,
 008DBA 5020 60EC            000EC 71131  1 9924.                ST    RA,PAGSRTHR             Set threshold
                                   71132  1 9925.
                                   71133  1 9926.            Get the page frame reserve parameters
                                   71134  1 9927.            Reserved frames = SLOPE * (SWAP-IN-RATE - X_OFF) + INTERCPT
                                   71135  1 9928.              the values MAX and MIN are also supplied as boundaries
                                   71136  1 9929.
                                   71137  1 9930.            First on the list is the SLOPE parameter
                                   71138  1 9931.
 008DBE 920C 8000      00000       71139  1 9932.                GETPARM2 KEY=(,RESERVE,SLOPE),TYPE=FLOAT,REGS=(RVR,RAR)
 008DC2 D207 800C A984 0000C 091B8 71146  1          +
 008DC8 D207 8014 A98C 00014 091C0 71147  1          +
 008DCE 41E0 8000            00000 71154  1          +
 008DD2 41F0 001C            0001C 71161  1          +
 008DD6 830E0016                   71164  1          +
 008DDA 7800 AA4C            09280 71165  1 9933.                LE    R0,=E'0'                Default
 008DDE 4770 A5B6            08DEA 71166  1 9934.                IF    ZERO,BEGIN
 008DE2 5000 801C            0001C 71177  2 9935.                  ST    RVR,PAGIOUT
 008DE6 7800 801C            0001C 71178  2 9936.                  LE    R0,PAGIOUT
 008DEA                            71179  1 9937.                END   ,
 008DEA 7900 AA4C            09280 71183  1 9938.                IF    ('CE R0,=E"0"',LT),'LE R0,=E"0"'         Minimum
 008DEE 47B0 A5C2            08DF6 71191  1          +
 008DF2 7800 AA4C            09280 71197  1          +
 008DF6 7900 AA50            09284 71202  1 9939.                IF    ('CE R0,=E"100"',GT),'LE R0,=E"100"'     Maximum
 008DFA 47D0 A5CE            08E02 71210  1          +
 008DFE 7800 AA50            09284 71216  1          +
 008E02 7000 6108            00108 71221  1 9940.                STE   R0,PAGRESM              Slope of (y=m(x-x0)+b)
                                   71222  1 9941.
                                   71223  1 9942.            Get the X offset
                                   71224  1 9943.
 008E06 920C 8000      00000       71225  1 9944.                GETPARM2 KEY=(,,X_OFF),TYPE=FLOAT,REGS=(RVR,RAR)
 008E0A D207 8014 A994 00014 091C8 71232  1          +
 008E10 41E0 8000            00000 71239  1          +
 008E14 41F0 001C            0001C 71246  1          +
 008E18 830E0016                   71249  1          +
 008E1C 7800 AA4C            09280 71250  1 9945.                LE    R0,=E'0'                Default
 008E20 4770 A5F8            08E2C 71251  1 9946.                IF    ZERO,BEGIN
 008E24 5000 801C            0001C 71262  2 9947.                  ST    RVR,PAGIOUT
 008E28 7800 801C            0001C 71263  2 9948.                  LE    R0,PAGIOUT
 008E2C                            71264  1 9949.                END   ,
 008E2C 7900 AA54            09288 71268  1 9950.                IF    ('CE R0,=E"-100"',LT),'LE R0,=E"-100"'   Minimum
 008E30 47B0 A604            08E38 71276  1          +
1PAGESERV (PAGE00) (09:42) (22MAR04) Global initialization                                                                  Page  399
0Current Usings:  (PAGCB,R6) (PAGIPARM,R8) (PAGINIT,R10) (@PAGINIT-72,R12) (@VMGET-72,R13)
0Loc    Object Code    Addr1 Addr2  Stmt Lv Lineno    Source Statement           (Hibal 5, Asmedit 3.3)  HLASM R4.0  2004/03/22 09.42
+___    ______ ____    _____ _____  ____ __ ______    ______ _________
0008E34 7800 AA54            09288 71282  1          +
 008E38 7900 AA50            09284 71287  1 9951.                IF    ('CE R0,=E"100"',GT),'LE R0,=E"100"'     Maximum
 008E3C 47D0 A610            08E44 71295  1          +
 008E40 7800 AA50            09284 71301  1          +
 008E44 7000 610C            0010C 71306  1 9952.                STE   R0,PAGRESX0             x0 of (y=m(x-x0)+b)
                                   71307  1 9953.
                                   71308  1 9954.            Get the intercept
                                   71309  1 9955.
 008E48 920C 8000      00000       71310  1 9956.                GETPARM2 KEY=(,,INTERCPT),TYPE=FLOAT,REGS=(RVR,RAR)
 008E4C D207 8014 A99C 00014 091D0 71317  1          +
 008E52 41E0 8000            00000 71324  1          +
 008E56 41F0 001C            0001C 71331  1          +
 008E5A 830E0016                   71334  1          +
 008E5E 7800 AA4C            09280 71335  1 9957.                LE    R0,=E'0'                Default
 008E62 4770 A63A            08E6E 71336  1 9958.                IF    ZERO,BEGIN
 008E66 5000 801C            0001C 71347  2 9959.                  ST    RVR,PAGIOUT
 008E6A 7800 801C            0001C 71348  2 9960.                  LE    R0,PAGIOUT
 008E6E                            71349  1 9961.                END   ,
 008E6E 7900 AA54            09288 71353  1 9962.                IF    ('CE R0,=E"-100"',LT),'LE R0,=E"-100"'   Minimum
 008E72 47B0 A646            08E7A 71361  1          +
 008E76 7800 AA54            09288 71367  1          +
 008E7A 7900 AA50            09284 71372  1 9963.                IF    ('CE R0,=E"100"',GT),'LE R0,=E"100"'     Maximum
 008E7E 47D0 A652            08E86 71380  1          +
 008E82 7800 AA50            09284 71386  1          +
 008E86 7000 6110            00110 71391  1 9964.                STE   R0,PAGRESB              b of (y=m(x-x0)+b)
                                   71392  1 9965.
                                   71393  1 9966.            Get the maximum
                                   71394  1 9967.
 008E8A 9204 8000      00000       71395  1 9968.                GETPARM2 KEY=(,,MAX),REGS=(RVR,RAR)
 008E8E D207 8014 A9A4 00014 091D8 71402  1          +
 008E94 41E0 8000            00000 71409  1          +
 008E98 41F0 001C            0001C 71416  1          +
 008E9C 830E0016                   71419  1          +
 008EA0 4130 0064            00064 71420  1 9969.                LA    RB,100                  Default
 008EA4 4770 A676            08EAA 71421  1 9970.                IF    ZERO,BEGIN
 008EA8 1830                       71432  2 9971.                  LR    RB,RVR
 008EAA                            71433  1 9972.                END   ,
 008EAA 4930 AA82            092B6 71437  1 9973.                CEIL  RB,=Y(32767)            32K-1
 008EAE 47D0 A682            08EB6 71440  1          +
 008EB2 4830 AA82            092B6 71441  1          +
 008EB6 5930 AA18            0924C 71442  1 9974.                FLOOR RB,10
 008EBA 47B0 A68E            08EC2 71451  1          +
 008EBE 5830 AA18            0924C 71456  1          +
 008EC2 4030 6114            00114 71461  1 9975.                STH   RB,PAGRESMX             Maximum reserve
                                   71462  1 9976.
                                   71463  1 9977.            Get the minimum
                                   71464  1 9978.
 008EC6 9204 8000      00000       71465  1 9979.                GETPARM2 KEY=(,,MIN),REGS=(RVR,RAR)
 008ECA D207 8014 A9AC 00014 091E0 71472  1          +
 008ED0 41E0 8000            00000 71479  1          +
 008ED4 41F0 001C            0001C 71486  1          +
 008ED8 830E0016                   71489  1          +
 008EDC 4130 000A            0000A 71490  1 9980.                LA    RB,10                   Default
 008EE0 4770 A6B2            08EE6 71491  1 9981.                IF    ZERO,BEGIN
1PAGESERV (PAGE00) (09:42) (22MAR04) Global initialization                                                                  Page  400
0Current Usings:  (PAGCB,R6) (PAGIPARM,R8) (PAGINIT,R10) (@PAGINIT-72,R12) (@VMGET-72,R13)
0Loc    Object Code    Addr1 Addr2  Stmt Lv Lineno    Source Statement           (Hibal 5, Asmedit 3.3)  HLASM R4.0  2004/03/22 09.42
+___    ______ ____    _____ _____  ____ __ ______    ______ _________
0008EE4 1830                       71502  2 9982.                  LR    RB,RVR
 008EE6                            71503  1 9983.                END   ,
 008EE6 4930 6114            00114 71507  1 9984.                CEIL  RB,PAGRESMX
 008EEA 47D0 A6BE            08EF2 71511  1          +
 008EEE 4830 6114            00114 71512  1          +
 008EF2 5930 AA48            0927C 71513  1 9985.                FLOOR RB,0
 008EF6 47B0 A6CA            08EFE 71522  1          +
 008EFA 5830 AA48            0927C 71527  1          +
 008EFE 4030 6116            00116 71532  1 9986.                STH   RB,PAGRESMN             Minimum reserve
                                   71533  1 9987.
 008F02 6800 C050            00000 71534  1 9988.                LD    R0,#PIFLT0              Restore old float 0
                                   71535  1 9989.
                                   71536  1 9990.            Size of swap cell
                                   71537  1 9991.
 008F06 9204 8000      00000       71538  1 9992.                GETPARM2 KEY=(,SWAP_EXT),REGS=(RVR,RAR)
 008F0A D207 800C A9B4 0000C 091E8 71545  1          +
 008F10 41E0 8000            00000 71552  1          +
 008F14 41F0 0014            00014 71559  1          +
 008F18 830E0016                   71562  1          +
 008F1C 4130 0028            00028 71563  1 9993.                LA    RB,PGDSWNUM             Default
 008F20 4770 A70A            08F3E 71564  1 9994.                IF    ZERO,BEGIN
 008F24 1830                       71575  2 9995.                  LR    RB,RVR
 008F26 5930 AA58            0928C 71576  2 9996.                  FLOOR RB,12                   Minimum
 008F2A 47B0 A6FE            08F32 71585  2          +
 008F2E 5830 AA58            0928C 71590  2          +
 008F32 5930 AA5C            09290 71595  2 9997.                  CEIL  RB,255                  Max (hardware CCW limit)
 008F36 47D0 A70A            08F3E 71604  2          +
 008F3A 5830 AA5C            09290 71609  2          +
 008F3E                            71614  1 9998.                END   ,
 008F3E 4030 6180            00180 71618  1 9999.                STH   RB,PAGSWXN              Number of frames/extent
 008F42 1823                       71619  1 0000.                LR    RA,RB                   | length of extent
 008F44 8920 0002            00002 71620  1 0001.                SLL   RA,PGDSLLOG             |
 008F48 4020 617C            0017C 71621  1 0002.                STH   RA,PAGSWXL              |
 008F4C 8930 0003            00003 71622  1 0003.                SLL   RB,PGDSVLOG             Length of swap cell
 008F50 1E32                       71623  1 0004.                ALR   RB,RA                   |
 008F52 4030 617E            0017E 71624  1 0005.                STH   RB,PAGSWXTL             | total extent length
 008F56 4130 3047            00047 71625  1 0006.                LA    RB,@RB+L'PGDSWAP+7      |
 008F5A 5430 AA60            09294 71626  1 0007.                N     RB,=A(-8)               | Double word align
 008F5E 4030 6178            0001C 71627  1 0008.                STH   RB,SC.PAGCELLEN         |
                                   71628  1 0009.
                                   71629  1 0010.            Should we provide backing store for non-referenced frames?
                                   71630  1 0011.
                                   71631  1 0012.   C            GETPARM2 PAGIOUT,KEY=(,EXTERNAL,BAKEMPTY),TYPE=YESNO,
 008F62 9208 8000      00000              1 0013.                      REGS=(RVR,RAR)
 008F66 D207 800C A9BC 0000C 091F0 71638  1          +
 008F6C D207 8014 A9C4 00014 091F8 71639  1          +
 008F72 4100 801C            0001C 71646  1          +
 008F76 4110 002C            0002C 71653  1          +
 008F7A 41E0 8000            00000 71660  1          +
 008F7E 41F0 001C            0001C 71667  1          +
 008F82 830E0016                   71670  1          +
 008F86 4770 A762            08F96 71671  1 0014.                IF    ZERO,BEGIN
 008F8A 95D5 801C      0001C       71682  2 0015.                  IF    (PAGIOUT,EQ,'N'),BEGIN
 008F8E 4770 A762            08F96 71694  2          +
1PAGESERV (PAGE00) (09:42) (22MAR04) Global initialization                                                                  Page  401
0Current Usings:  (PAGCB,R6) (PAGIPARM,R8) (PAGINIT,R10) (@PAGINIT-72,R12) (@VMGET-72,R13)
0Loc    Object Code    Addr1 Addr2  Stmt Lv Lineno    Source Statement           (Hibal 5, Asmedit 3.3)  HLASM R4.0  2004/03/22 09.42
+___    ______ ____    _____ _____  ____ __ ______    ______ _________
0008F92 9680 61C2      001C2       71699  3 0016.                    SET   PAGXFUREL               Set flag to do releases
 008F96                            71705  2 0017.                  END   ,
 008F96                            71709  1 0018.                END   ,
                                   71713  1 0019.
                                   71714  1 0020.            Should pages be defined in only 1 place (in memory, on external
                                   71715  1 0021.            paging store, or on external swapping store)?
                                   71716  1 0022.
                                   71717  1 0023.   C            GETPARM2 PAGIOUT,KEY=(,,MULTDEF),TYPE=YESNO,
 008F96 9208 8000      00000              1 0024.                      REGS=(RVR,RAR)
 008F9A D207 8014 A9CC 00014 09200 71724  1          +
 008FA0 4100 801C            0001C 71731  1          +
 008FA4 4110 002C            0002C 71738  1          +
 008FA8 41E0 8000            00000 71745  1          +
 008FAC 41F0 001C            0001C 71752  1          +
 008FB0 830E0016                   71755  1          +
 008FB4 4770 A798            08FCC 71756  1 0025.                IF    ZERO,BEGIN
 008FB8 95D5 801C      0001C       71767  2 0026.                  IF    ((PAGIOUT,EQ,'N'),AND,PAGXFUREL),BEGIN
 008FBC 4770 A798            08FCC 71781  2          +
 008FC0 9180 61C2      001C2       71792  2          +
 008FC4 47E0 A798            08FCC 71793  2          +
 008FC8 9640 61C2      001C2       71798  3 0027.                    SET   PAGXF1DEF               Set flag for one definition
 008FCC                            71804  2 0028.                  END   ,
 008FCC                            71808  1 0029.                END   ,
                                   71812  1 0030.     *         VMFREE L'PAGIPARM,A=LA:PAGIPARM,LOC=GLOBHI,FIX=YES
 DROP   PAGIPARM,R8                71813    0031.              END   ,                       OF Parameter address
                                   71821    0032.
                                   71822    0033.          Init global cells
                                   71823    0034.
 DROP   @VMGET-72,R13              71824    0035.              LKCRE PAGCELL,TYPE=SPIN
 USING  @LOCKCRE-72,R13
 008FCC D710 D048 D048 00000 00000 71845             +
 008FD2 D20F D048 A9D4 00000 09208 71851             +
 008FD8 9680 D058      00010       71857             +
 008FDC 58F0 A9FC/0DEF       09230 71860             +
 008FE2 5000 6138            00138 71862    0036.              ST    RVR,PAGCELLK
                                   71863    0037.
 008FE6 D201 6158 AA84 0001C 092B8 71864    0038.              MVC   PC.PAGCELLEN,=Y(L'PGDPAGE) Length of paging cell
 008FEC D203 6144 AA64 00008 09298 71865    0039.              MVC   PC.PAGCELID,=CL4'PGIO'  | cell ID
 008FF2 9220 615A      0001E       71866    0040.              MVI   PC.PAGCELBIT,L'PAGFWIOP | wait/post bit
 008FF6 D203 6164 AA68 00008 0929C 71867    0041.              MVC   SC.PAGCELID,=CL4'SWIO'  | cell ID
 008FFC 9210 617A      0001E       71868    0042.              MVI   SC.PAGCELBIT,L'PAGFWIOS | wait/post bit
                                   71869    0043.
 009000 4110 0002            00002 71870    0044.              LA    RS,2                    Page and swap cells
 009004 4170 613C            0013C 71871    0045.              LA    RY,PAGCEL1
 009008                            71872    0046.              LOOP  BEGIN                   Init all dev type pools
 USING  PAGCEL,R7                  71878  1 0047.                WITH  (PAGCEL,RY)
 009008 4130 0001            00001 71891  1 0048.                LA    RB,1                    Init as one extra
 00900C 5030 7018            00018 71892  1 0049.                ST    RB,PAGCELXTR            |
 009010 4130 700C            0000C 71893  1 0050.                LA    RB,PAGCELAS             Init ASB list to empty
 009014 5030 700C            0000C 71894  1 0051.                ST    RB,PAGCELFP             |
 009018 5030 7010            00010 71895  1 0052.                ST    RB,PAGCELBP             |
1PAGESERV (PAGE00) (09:42) (22MAR04) Global initialization                                                                  Page  402
0Current Usings:  (PAGCB,R6) (PAGCEL,R7) (PAGINIT,R10) (@PAGINIT-72,R12) (@LOCKCRE-72,R13)
0Loc    Object Code    Addr1 Addr2  Stmt Lv Lineno    Source Statement           (Hibal 5, Asmedit 3.3)  HLASM R4.0  2004/03/22 09.42
+___    ______ ____    _____ _____  ____ __ ______    ______ _________
0                                  71896  1 0053.
                                   71897  1 0054.            Initialize cell pool for this device type
                                   71898  1 0055.
 00901C 4850 AA86            092BA 71899  1 0056.                LH    RK,=Y(4096)             Number of cells/page
 009020 1B44                       71900  1 0057.                CLEAR RJ                      |
 009022 48F0 701C            0001C 71904  1 0058.                LH    EPAR,PAGCELLEN          |
 009026 1D4F                       71905  1 0059.                DR    RJ,EPAR                 |
 009028 18F5                       71906  1 0060.                LR    EPAR,RK                 Number of pages
 00902A 5850 7004            00004 71907  1 0061.                L     RK,PAGCELAMT            |
 00902E 1B44                       71908  1 0062.                CLEAR RJ                      |
 009030 1D4F                       71912  1 0063.                DR    RJ,EPAR                 |
 009032 1244/4780 A808       0903C 71913  1 0064.                IF    (RJ,NZ),'INCR RK'       | round up
 009038 5E50 AA1C            09250 71930  1          +
 00903C 8950 000C            0000C 71935  1 0065.                SLL   RK,12                   | pages to bytes
 009040 184F                       71936  1 0066.                LR    RJ,EPAR                 | cells/page
 DROP   @LOCKCRE-72,R13            71937  1 0067.                VMGET (RK),LOC=GLOBHI,FIX=YES,PAGE=YES
 USING  @VMGET-72,R13
 009042 D70A D048 D048 00000 00000 71964  1          +
 009048 5050 D048            00000 71974  1          +
 00904C D201 D050 AA7C 00008 092B0 71975  1          +
 009052 9680 D052      0000A       71981  1          +
 009056 58F0 A9E4/0DEF       09218 71984  1          +
 00905C 1880                       71986  1 0068.                LR    RM,RVR                  Clear pages
 00905E 1895                       71987  1 0069.                LR    RN,RK                   |
 009060 1B33                       71988  1 0070.                CLEAR RB                      |
 009062 0E82                       71992  1 0071.                MVCL  RM,RA                   |
 009064 8850 000C            0000C 71993  1 0072.                SRL   RK,12                   Number of pages
                                   71994  1 0073.
                                   71995  1 0074.            Link all I/O cells for this device type
                                   71996  1 0075.
 009068                            71997  1 0076.                CLEAR PAGCELAMT               Init to zero
 009068 D703 7004 7004 00004 00004 72003  1          +
 00906E 1880                       72004  1 0077.                LR    RM,RVR                  Starting address
 009070                            72005  1 0078.                LOOP  BEGIN                   Link together all pages
 009070 1834                       72011  2 0079.                  LR    RB,RJ
 009072 18F4                       72012  2 0080.                  LR    EPAR,RJ                 Add cells for this page
 009074 5EF0 7004            00004 72013  2 0081.                  AL    EPAR,PAGCELAMT          |
 009078 50F0 7004            00004 72014  2 0082.                  ST    EPAR,PAGCELAMT          |
 00907C                            72015  2 0083.                  LOOP  BEGIN                   Link together cells on a page
 USING  PSCPFX,R8                  72021  3 0084.                    WITH  (PSCPFX,RM)
 00907C D203 8000 7000 00000 00000 72034  3 0085.                    MVC   PSCFP,PAGCELHD          Point to old head
 009082 D203 8008 7008 00008 00008 72035  3 0086.                    MVC   PSCID,PAGCELID          | ID
 009088 5080 7000            00000 72036  3 0087.                    ST    RM,PAGCELHD             |
 00908C 9200 D048      00000       72037  3 0088.                    PSET  @IOSIDGET               Save I/O id in this cell
 DROP   @VMGET-72,R13
 USING  @IOSIDGET-72,R13
 009090 9680 D048      00000       72058  3 0089.                    SET   @IOSFWAIT               |
 009094 58F0 AA6C/0DEF       092A0 72064  3 0090.                    VCALL IOSIDGET                |
 00909A 5000 800C            0000C 72068  3 0091.                    ST    RVR,PSCIO               |
 00909E 4A80 701C            0001C 72069  3 0092.                    AH    RM,PAGCELLEN            Next cell in page
 0090A2 4630 A848            0907C 72070  2 0093.                  UNTIL (BCT,RB),END            OF Link together cells on page
 DROP   PSCPFX,R8
 0090A6 4A80 701C            0001C 72085  2 0094.                  AH    RM,PAGCELLEN
 0090AA 5480 AA70            092A4 72086  2 0095.                  N     RM,=X'7FFFF000'
1PAGESERV (PAGE00) (09:42) (22MAR04) Global initialization                                                                  Page  403
0Current Usings:  (PAGCB,R6) (PAGCEL,R7) (PAGINIT,R10) (@PAGINIT-72,R12) (@IOSIDGET-72,R13)
0Loc    Object Code    Addr1 Addr2  Stmt Lv Lineno    Source Statement           (Hibal 5, Asmedit 3.3)  HLASM R4.0  2004/03/22 09.42
+___    ______ ____    _____ _____  ____ __ ______    ______ _________
00090AE 4650 A83C            09070 72087  1 0096.                UNTIL (BCT,RK),END            OF Link together all pages
 0090B2 4170 7020            00020 72097  1 0097.                LA    RY,PAGCELNXT            Next cell descriptor block
 0090B6 4610 A7D4            09008 72098    0098.              UNTIL (BCT,RS),END            OF Init all dev type pools
 DROP   PAGCEL,R7
1PAGESERV (PAGE00) (09:42) (22MAR04) Global initialization                                                                  Page  404
0Current Usings:  (PAGCB,R6) (PAGINIT,R10) (@PAGINIT-72,R12) (@IOSIDGET-72,R13)
0Loc    Object Code    Addr1 Addr2  Stmt Lv Lineno    Source Statement           (Hibal 5, Asmedit 3.3)  HLASM R4.0  2004/03/22 09.42
+___    ______ ____    _____ _____  ____ __ ______    ______ _________
0                                  72114    0100.
                                   72115    0101.
                                   72116    0102.       Init page frame resource
                                   72117    0103.

00090BA 58F0 AA74/0DEF       092A8 72118    0104.              ACALL PFINIT                  Init page frame resource
 DROP   @IOSIDGET-72,R13           72125    0105.              VMFREE L'PAGIPARM,A=L:#PIPARM,LOC=GLOBHI,FIX=YES
 USING  @VMFREE-72,R13
 0090C0 D709 D048 D048 00000 00000 72152             +
 0090C6 4100 0048            00048 72164             +
 0090CA 5000 D04C            00004 72169             +
 0090CE D203 D048 C068 00000 00018 72174             +
 0090D4 D201 D050 AA7C 00008 092B0 72175             +
 0090DA 58F0 AA78/0DEF       092AC 72178             +
 0090E0 981F C008            00008 72180    0106.              PEND  ,
 DROP   PAGCB,R6
 DROP   @PAGINIT-72,R12
 DROP   PAGINIT,R10
 0090E4 9680 C000/0B0E 00000       72200             +
 DROP   @VMFREE-72,R13
00090EA                            72210    0108.     LOCKDUMMY PROC
 0090EA D3D6C3D2C4E4D4D4           72217             +
 0090F2 0000/0000                  72218             +
 0090F6 900F D004/18AF       00004 72220             +
 USING  LOCKDUMMY,R10
 0090FC 50D0 C000/18CD       00000 72235             +
 009102 9680 C000      00000       72237             +
 009106 41D0 C048            00048 72238             +
 00910A 981F C008            00008 72239    0109.              PEND
 DROP   LOCKDUMMY,R10
 00910E 9680 C000/0B0E 00000       72249             +
1PAGESERV (PAGE00) (09:42) (22MAR04) MP-ORVYL Real Memory / Paging Manager Services                                         Page  405
0Loc    Object Code    Addr1 Addr2  Stmt Lv Lineno    Source Statement           (Hibal 5, Asmedit 3.3)  HLASM R4.0  2004/03/22 09.42
+___    ______ ____    _____ _____  ____ __ ______    ______ _________
0009118                            72256    0111.              LTORG ,
 009118 D7C1C7C3C2404040           72258                             =CL8'PAGCB'
 009120 D7C1C7C6D9C1D4C5           72259                             =CL16'PAGFRAME'
 009130 D7C1C7C5E2E6C1D7           72260                             =CL16'PAGESWAP'
 009140 D7C1C7C5E7D7C1C7           72261                             =CL16'PAGEXPAG'
 009150 D7C1C7C9D5C74040           72262                             =CL8'PAGING'
 009158 D7C1C7C56DC3D5E3           72263                             =CL8'PAGE_CNT'
 009160 E2E6C1D76DC3D5E3           72264                             =CL8'SWAP_CNT'
 009168 C1E5C76DE6E24040           72265                             =CL8'AVG_WS'
 009170 E6E26DC3E8C3D3C5           72266                             =CL8'WS_CYCLE'
 009178 C7E6E26DC3E8C3D3           72267                             =CL8'GWS_CYCLE'
 009180 D9D46DC1D3D7C8C1           72268                             =CL8'RM_ALPHA'
 009188 D9D46DD3D6E64040           72269                             =CL8'RM_LOW'
 009190 D9D46DC8C9C7C840           72270                             =CL8'RM_HIGH'
 009198 E2E6C1D76DC8C940           72271                             =CL8'SWAP_HI'
 0091A0 E2E6C1D76DD3D6E6           72272                             =CL8'SWAP_LOW'
 0091A8 D9D46DE3C8D9E2C8           72273                             =CL8'RM_THRSH'
 0091B0 4080000000000000           72274                             =D'0.5'
 0091B8 D9C5E2C5D9E5C540           72275                             =CL8'RESERVE'
 0091C0 E2D3D6D7C5404040           72276                             =CL8'SLOPE'
 0091C8 E76DD6C6C6404040           72277                             =CL8'X_OFF'
 0091D0 C9D5E3C5D9C3D7E3           72278                             =CL8'INTERCPT'
 0091D8 D4C1E74040404040           72279                             =CL8'MAX'
 0091E0 D4C9D54040404040           72280                             =CL8'MIN'
 0091E8 E2E6C1D76DC5E7E3           72281                             =CL8'SWAP_EXT'
 0091F0 C5E7E3C5D9D5C1D3           72282                             =CL8'EXTERNAL'
 0091F8 C2C1D2C5D4D7E3E8           72283                             =CL8'BAKEMPTY'
 009200 D4E4D3E3C4C5C640           72284                             =CL8'MULTDEF'
 009208 D7C1C7C3C5D3D340           72285                             =CL16'PAGCELL'
 009218 00000000                   72286                             =V(VMGET)
 00921C 000092CA                   72287                             =A(INITRESLV)
 009220 000FFFFF                   72288                             =A(PAGOFFM+PAGPGNM)
 009224 FFFFFFF0                   72289                             =A(-16)
 009228 00000FFF                   72290                             =A(PAGPAGEL-1)
 00922C FFFFF000                   72291                             =A(-PAGPAGEL)
 009230 00000000                   72292                             =V(LKCRE)
 009234 000078E6                   72293                             =A(ASNINIT)
 009238 00007766                   72294                             =A(PCBINIT)
 00923C 7FFFFFF0                   72295                             =A(AFTASTM)
 009240 C2D4C3C2                   72296                             =CL4'BMCB'
 009244 00001000                   72297                             =A(4096)
 009248 00000014                   72298                             =A(20)
 00924C 0000000A                   72299                             =A(10)
 009250 00000001                   72300                             =A(1)
 009254 00000008                   72301                             =A(8)
 009258 00010000                   72302                             =A(PAGMXHST)
 00925C 408CCCCD                   72303                             =E'.55'
 009260 40FD70A4                   72304                             =E'.99'
 009264 41100000                   72305                             =E'1'
 009268 423C0000                   72306                             =E'60'
 00926C 433E8000                   72307                             =E'1000'
 009270 42140000                   72308                             =E'20'
 009274 4019999A                   72309                             =E'.1'
 009278 46000000                   72310                             =X'46000000'
 00927C 00000000                   72311                             =A(0)
 009280 00000000                   72312                             =E'0'
1PAGESERV (PAGE00) (09:42) (22MAR04) MP-ORVYL Real Memory / Paging Manager Services                                         Page  406
0Loc    Object Code    Addr1 Addr2  Stmt Lv Lineno    Source Statement           (Hibal 5, Asmedit 3.3)  HLASM R4.0  2004/03/22 09.42
+___    ______ ____    _____ _____  ____ __ ______    ______ _________
0009284 42640000                   72313                             =E'100'
 009288 C2640000                   72314                             =E'-100'
 00928C 0000000C                   72315                             =A(12)
 009290 000000FF                   72316                             =A(255)
 009294 FFFFFFF8                   72317                             =A(-8)
 009298 D7C7C9D6                   72318                             =CL4'PGIO'
 00929C E2E6C9D6                   72319                             =CL4'SWIO'
 0092A0 00000000                   72320                             =V(IOSIDGET)
 0092A4 7FFFF000                   72321                             =X'7FFFF000'
 0092A8 00008060                   72322                             =A(PFINIT)
 0092AC 00000000                   72323                             =V(VMFREE)
 0092B0 3F00                       72324                             =Y(63*256+0)
 0092B2 000C                       72325                             =Y(L'SGTE+L'SSTE)
 0092B4 0001                       72326                             =Y(1)
 0092B6 7FFF                       72327                             =Y(32767)
 0092B8 0030                       72328                             =Y(L'PGDPAGE)
 0092BA 1000                       72329                             =Y(4096)
 0092BC FF             092BD 0A6E0 72330                             =X'FF'
1PAGESERV (PAGE00) (09:42) (22MAR04) Internal resolve for initizliation                                                     Page  407
0Loc    Object Code    Addr1 Addr2  Stmt Lv Lineno    Source Statement           (Hibal 5, Asmedit 3.3)  HLASM R4.0  2004/03/22 09.42
+___    ______ ____    _____ _____  ____ __ ______    ______ _________
0                                  72335    0113.
                                   72336    0114.
                                   72337    0115.
                                   72338    0116.

00092BE                            72339    0117.     INITRESLV PROC @RESOLVE
 0092BE C9D5C9E3D9C5E2D3           72346             +
 0092C6 0010/0000                  72347             +
 0092CA 900F D004/18AF       00004 72349             +
 USING  INITRESLV,R10
 0092D0 50D0 C000/18CD       00000 72364             +
 0092D6 9680 C000      00000       72366             +
 USING  @RESOLVE-72,R12
 0092DA 41D0 C058            00058 72380             +
 0092DE 5860 0200            00200 72381    0118.              PAGAD RPAG                    |
 USING  PZERO,R0
 DROP   PZERO,R0
 USING  MAT,R6
 0092E2 5860 600C            0000C 72415             +
 DROP   MAT,R6
 USING  PAGCB,R6
 0092E6 5870 C04C            00004 72437    0119.              L     RPCB,@PRPCB             Get PCB address
 USING  ASBPCB,R7                  72438    0120.              WITH  (ASBPCB,RPCB)           |
 0092EA 9200 C051      00009       72451    0121.              SET   @PRROK                  Assume ok to start
 0092EE 5820 C048            00000 72457    0122.              L     RA,@PRVA                Get virtual addr to resolve
 0092F2 B100 2000            00000 72458    0123.              LRA   RVR,@RA                 |
                                   72459    0124.
                                   72460    0125.          If page is not in - bring it in
                                   72461    0126.
 0092F6 4780 A11C            093E6 72462    0127.              IF    (NOT,VAOK),BEGIN        Page not in - get frame
                                   72475  1 0128.
                                   72476  1 0129.            Page invalid is only valid return
                                   72477  1 0130.
 0092FA 4720 A038            09302 72478  1 0131.                IF    ~PAGI,BEGIN
 0092FE 4DE0 A0EC            093B6 72489  2 0132.                  BAS   RAR,INITRESAB
 009302                            72490  1 0133.                END   ,
                                   72494  1 0134.
 USING  @VIRTABL-72,R13            72495  1 0135.                VIRTABL @PRVA,(RPCB)          Page/Seg table ptrs
 009302 D71F D048 D048 00000 00000 72513  1          +
 009308 D203 D048 C048 00000 00000 72518  1          +
 00930E 5070 D04C            00004 72528  1          +
 009312 58F0 A23E/0DEF       09508 72534  1          +
 009318 5850 D064            0001C 72536  1 0136.                L     RCPCB,@VPFPCB           | PCB to own frame
                                   72537  1 0137.
                                   72538  1 0138.            Page invalid is the only acceptable return
                                   72539  1 0139.
 00931C 9510 D050      00008       72540  1 0140.                IF    (NOT,@VPFPEI),BEGIN
 009320 4780 A05E            09328 72552  1          +
 009324 4DE0 A0EC            093B6 72557  2 0141.                  BAS   RAR,INITRESAB
 009328                            72558  1 0142.                END   ,
 009328 9889 D05C            00014 72562  1 0143.                LM    RM,RN,@VPPGTE
 USING  PGTE,R8                    72563  1 0144.                WITH  (PGTE,RM)
 USING  SPTE,R9                    72576  1 0145.                WITH  (SPTE,RN)
 00932C 5840 D058            00010 72589  1 0146.                L     RJ,@VPSSTE
 USING  SSTE,R4                    72590  1 0147.                WITH  (SSTE,RJ)
1PAGESERV (PAGE00) (09:42) (22MAR04) Internal resolve for initizliation                                                     Page  408
0Current Usings:  (SSTE,R4) (PAGCB,R6) (ASBPCB,R7) (PGTE,R8) (SPTE,R9) (INITRESLV,R10) (@RESOLVE-72,R12) (@VIRTABL-72,R13)
0Loc    Object Code    Addr1 Addr2  Stmt Lv Lineno    Source Statement           (Hibal 5, Asmedit 3.3)  HLASM R4.0  2004/03/22 09.42
+___    ______ ____    _____ _____  ____ __ ______    ______ _________
0                                  72603  1 0148.
                                   72604  1 0149.            Should only get "defined, not referenced" entries
                                   72605  1 0150.
 009330 9180 8003      00003       72606  1 0151.                IF    (~PGTFDEF,OR,PGTFREF),BEGIN
 009334 47E0 A076            09340 72620  1          +
 009338 9140 8003      00003       72629  1          +
 00933C 47E0 A07A            09344 72630  1          +
 009340 4DE0 A0EC            093B6 72635  2 0152.                  BAS   RAR,INITRESAB
 009344                            72636  1 0153.                END   ,
                                   72640  1 0154.
                                   72641  1 0155.            Get frame, resolve address, and set page to hash value
                                   72642  1 0156.
 DROP   @VIRTABL-72,R13            72643  1 0157.                FRAMEGET (RPCB),(RCPCB),TYPE=FIX
 USING  @FRAMGET-72,R13
 009344 D718 D048 D048 00000 00000 72664  1          +
 00934A 5070 D048            00000 72674  1          +
 00934E 4100 0001            00001 72686  1          +
 009352 5000 D050            00008 72691  1          +
 009356 9201 D058      00010       72697  1          +
 00935A 5050 D04C/18F5       00004 72707  1          +
 USING  ASBPCB,R15
 009360 4100 F054            00054 72739  2          +
 009364 5000 D054            0000C 72744  1          +
 DROP   ASBPCB,R15
 009368 58F0 A242/0DEF       0950C 72758  1          +
 00936E 5830 D05C            00014 72760  1 0158.                L     RB,@FRA1ST
 USING  PFTE,R3                    72761  1 0159.                WITH  (PFTE,RB),BEGIN         PFTE addr
 009372 D203 3008 C048 00008 00000 72775  2 0160.                  MVC   PFTVA,@PRVA
 009378 9620 301D      0001D       72776  2 0161.                  SET   PFTFUFIX
 DROP   PFTE,R3                    72782  1 0162.                END   ,                       OF PFTE addr
 00937C 1830                       72790  1 0163.                LR    RB,RVR                  | Frame addr
 DROP   @FRAMGET-72,R13            72791  1 0164.                PAGPRC (RB),(RCPCB),LA:ASBPCB Page read complete
 USING  @PAGPIOC-72,R13
 00937E D70F D048 D048 00000 00000 72812  1          +
 009384 5030 D048            00000 72822  1          +
 009388 5050 D04C            00004 72832  1          +
 00938C 5070 D050            00008 72843  1          +
 009390 58F0 A246/0DEF       09510 72849  1          +
 009396 5820 C048            00000 72851  1 0165.                L     RA,@PRVA                Get virtual address
 00939A 5420 A24A            09514 72852  1 0166.                N     RA,=A(PAGPAGM)          | start of page
 00939E 4830 A276            09540 72853  1 0167.                LH    RB,=Y(PAGPAGEL)         |
                                   72854  1 0168.                REGCH (RVR,R0),(RS,R1)
 0093A2 1F11/BF18 4007       00007 72855  1 0169.                LCM   RS,B'1000',SSINIT       | Initialization value
 0093A8 0E20                       72860  1 0170.                MVCL  RA,RVR                  |
                                   72861  1 0171.
 0093AA 5820 C048            00000 72862  1 0172.                L     RA,@PRVA                Check the virtual addr
 0093AE B100 2000            00000 72863  1 0173.                LRA   RVR,@RA                 |
 0093B2 4780 A11C            093E6 72864  1 0174.                IF    ~VAOK,BEGIN             |
 0093B6 AC04 021B      0021B       72875  2 0175.     INITRESAB     ABORT PAGINITRES             |
 USING  PZERO,R0
 0093BA 9680 021A      0021A       72894  2          +
 0093BE 50F0 021C            0021C 72895  2          +
 0093C2 58F0 0210            00210 72896  2          +
 0093C6 89F0 0010            00010 72897  2          +
1PAGESERV (PAGE00) (09:42) (22MAR04) Internal resolve for initizliation                                                     Page  409
0Current Usings:  (PZERO,R0) (SSTE,R4) (PAGCB,R6) (ASBPCB,R7) (PGTE,R8) (SPTE,R9) (INITRESLV,R10) (@RESOLVE-72,R12) (@PAGPIOC-72,R13)
0Loc    Object Code    Addr1 Addr2  Stmt Lv Lineno    Source Statement           (Hibal 5, Asmedit 3.3)  HLASM R4.0  2004/03/22 09.42
+___    ______ ____    _____ _____  ____ __ ______    ______ _________
00093CA 88F0 0010            00010 72898  2          +
 0093CE 41F0 F000            00000 72899  2          +
 0093D2 AEFF 0006            00006 72900  2          +
 0093D6 D7C1C7C9D5C9E3D9           72901  2          +
 DROP   PZERO,R0
 0093E6                            72910  1 0176.                END   ,                       |
 DROP   SSTE,R4                    72914    0177.              END   ,                       OF Page not in - get frame
 DROP   SPTE,R9
 DROP   PGTE,R8
 0093E6 981F C008            00008 72933    0178.              PEND  ,
 DROP   ASBPCB,R7
 DROP   PAGCB,R6
 DROP   @RESOLVE-72,R12
 DROP   INITRESLV,R10
 0093EA 9680 C000/0B0E 00000       72958             +
 DROP   @PAGPIOC-72,R13
1PAGESERV (PAGE00) (09:42) (22MAR04) Second stage of global initialization                                                  Page  410
0Loc    Object Code    Addr1 Addr2  Stmt Lv Lineno    Source Statement           (Hibal 5, Asmedit 3.3)  HLASM R4.0  2004/03/22 09.42
+___    ______ ____    _____ _____  ____ __ ______    ______ _________
0                                  72968    0180.
                                   72969    0181.
                                   72970    0182.
                                   72971    0183.

0000000                00000 00048 72972    0184.     PAGIPARM RECORD BEGIN
 000000                            72980  1 0185.     PAGITYPE   DS    XL(L'PARMIN)
 000004                            72981  1 0186.     PAGIKEYS   DS    3CL8                    Room for three keys
 00001C                            72982  1 0187.     PAGIOUT    DS    CL(L'@DSDSN)            Room for output area
 000048                00048 00048 72983    0188.              END   ,
0000000                00000 00074 72993    0190.     #PAGINI2 RECORD BEGIN
 000000                            73001  1 0191.     #PAGI2DS1   DS   A                       Addr 1st paging DS descriptor
 000004                            73002  1 0192.     #PAGI2DSL   DS   A                       Last paging DS descriptor
 000008                            73003  1 0193.     #PAGI2CNT   DS   A                       Data set count
 00000C                            73004  1 0194.     #PAGI2SEG   DS   XL(L'SEGCBD)            Seg control block
 000034                            73005  1 0195.     #PAGI2WTO   DS   CL64                    WTO buffer
 000074                00074 00074 73006    0196.              END   ,
00093F0                            73016    0198.     PAGINIT2 PROC  SCOPE=GLOBAL
 0093F0 D7C1C7C9D5C9E3F2           73022             +
 0093F8 0000/0000                  73023             +
 0093FC 900F D004/18AF       00004 73025             +
 USING  PAGINIT2,R10
 009402 50D0 C000/18CD       00000 73040             +
 009408 9680 C000      00000       73042             +
 00940C 41D0 C048            00048 73043             +
 009410 5860 0200            00200 73044    0199.              PAGAD RPAG
 USING  PZERO,R0
 DROP   PZERO,R0
 USING  MAT,R6
 009414 5860 600C            0000C 73078             +
 DROP   MAT,R6
 USING  PAGCB,R6
 AUSING (PC.PAGCEL,PAGPGCEL)       73100    0200.              WITH  (PAGCEL,PAGPGCEL),LABEL=PC
 AUSING (SC.PAGCEL,PAGSWCEL)       73107    0201.              WITH  (PAGCEL,PAGSWCEL),LABEL=SC
 USING  @VMGET-72,R13              73114    0202.              VMGET L'PAGIPARM,LOC=GLOBHI   Get memory for parameters
 009418 D70A D048 D048 00000 00000 73138             +
 00941E 4100 0048            00048 73150             +
 009422 5000 D048            00000 73155             +
 009426 D201 D050 A146 00008 09542 73156             +
 00942C 58F0 A11C/0DEF       09518 73159             +
 009432 1890                       73161    0203.              LR    RN,RVR                  |
 USING  PAGIPARM,R9                73162    0204.              WITH  (PAGIPARM,RN)
                                   73175    0205.
                                   73176    0206.          Get memory for dynamic allocs
                                   73177    0207.
 009434                            73178    0208.              VMGET L'PGDDAL,LOC=GLOBHI,FIX=YES,PAGE=YES
 009434 D70A D048 D048 00000 00000 73195             +
 00943A 4100 0090            00090 73207             +
 00943E 5000 D048            00000 73212             +
 009442 D201 D050 A148 00008 09544 73213             +
 009448 9680 D052      0000A       73219             +
 00944C 58F0 A11C/0DEF       09518 73222             +
 009452 1880                       73224    0209.              LR    RM,RVR
1PAGESERV (PAGE00) (09:42) (22MAR04) Second stage of global initialization                                                  Page  411
0Current Usings:  (PAGCB,R6) (PGDDAL,R8) (PAGIPARM,R9) (PAGINIT2,R10) (@VMGET-72,R13)
0Loc    Object Code    Addr1 Addr2  Stmt Lv Lineno    Source Statement           (Hibal 5, Asmedit 3.3)  HLASM R4.0  2004/03/22 09.42
+___    ______ ____    _____ _____  ____ __ ______    ______ _________
0USING  PGDDAL,R8                  73225    0210.              WITH  (PGDDAL,RM)
                                   73238    0211.
                                   73239    0212.          Get I/O id
                                   73240    0213.
 009454 9200 D048      00000       73241    0214.              PSET  @IOSIDGET
 DROP   @VMGET-72,R13
 USING  @IOSIDGET-72,R13
 009458 9680 D048      00000       73262    0215.              SET   @IOSFWAIT
 00945C 58F0 A120/0DEF       0951C 73268    0216.              VCALL IOSIDGET
 009462 1820                       73272    0217.              LR    RA,RVR
-                                  73274    0219.
                                   73275    0220.          Open up page datasets
                                   73276    0221.
 DROP   @IOSIDGET-72,R13           73277    0222.              PSET  @OPENDS
 USING  @OPENDS-72,R13
 009464 D70B D048 D048 00000 00000 73297             +
 00946A 5090 D048            00000 73298    0223.              PMOV  @OPNPARM,LA:PAGIPARM
 00946E 5080 D04C            00004 73309    0224.              PMOV  @OPNDAL,LA:PGDDAL
 009472 5020 D050            00008 73320    0225.              PMOV  @OPNID,(RA)
 009476 41F0 A156/0DEF       09552 73330    0226.              LCALL PAGOPEN
                                   73339    0227.
                                   73340    0228.          Open up swap datasets
                                   73341    0229.
 00947C 41F0 A9AA/0DEF       09DA6 73342    0230.              LCALL SWPOPEN
                                   73351    0231.
                                   73352    0232.          Free I/O id
                                   73353    0233.
 DROP   @OPENDS-72,R13             73354    0234.              PSET  @IOSIDFRE               Free I/O id
 USING  @IOSIDFRE-72,R13
 009482 D703 D048 D048 00000 00000 73374             +
 009488 5020 D048            00000 73375    0235.              PMOV  @IOSFID,(RA)            |
 00948C 58F0 A124/0DEF       09520 73385    0236.              VCALL IOSIDFRE                |
                                   73389    0237.
                                   73390    0238.          Free memory for dynamic allocs
                                   73391    0239.
 DROP   @IOSIDFRE-72,R13           73392    0240.              VMFREE A=LA:PGDDAL,L'PGDDAL,LOC=GLOBHI,FIX=YES
 USING  @VMFREE-72,R13
 009492 D709 D048 D048 00000 00000 73419             +
 009498 4100 0090            00090 73431             +
 00949C 5000 D04C            00004 73436             +
 0094A0 5080 D048            00000 73447             +
 0094A4 D201 D050 A148 00008 09544 73448             +
 0094AA 58F0 A128/0DEF       09524 73451             +
                                   73453    0241.
                                   73454    0242.          Free memory for parameter area
                                   73455    0243.
 0094B0                            73456    0244.              VMFREE A=LA:PAGIPARM,L'PAGIPARM,LOC=GLOBHI
 0094B0 D709 D048 D048 00000 00000 73473             +
 0094B6 4100 0048            00048 73485             +
 0094BA 5000 D04C            00004 73490             +
 0094BE 5090 D048            00000 73501             +
 0094C2 D201 D050 A146 00008 09542 73502             +
1PAGESERV (PAGE00) (09:42) (22MAR04) Second stage of global initialization                                                  Page  412
0Current Usings:  (PAGCB,R6) (PGDDAL,R8) (PAGIPARM,R9) (PAGINIT2,R10) (@VMFREE-72,R13)
0Loc    Object Code    Addr1 Addr2  Stmt Lv Lineno    Source Statement           (Hibal 5, Asmedit 3.3)  HLASM R4.0  2004/03/22 09.42
+___    ______ ____    _____ _____  ____ __ ______    ______ _________
00094C8 58F0 A128/0DEF       09524 73505             +
                                   73507    0245.
                                   73508    0246.          Set up lock manager routines for real
                                   73509    0247.
 0094CE D203 602C A12C 0002C 09528 73510    0248.              MVC   PAGLKOB,=V(LKOB)
 0094D4 D203 6030 A130 00030 0952C 73511    0249.              MVC   PAGLKREL,=V(LKREL)
                                   73512    0250.
                                   73513    0251.          Set up real page fault resolution routine
                                   73514    0252.
 0094DA D203 6034 A134 00034 09530 73515    0253.              MVC   PAGRESLV,=A(RESOLVE)
                                   73516    0254.
                                   73517    0255.          Now set up swap address space
                                   73518    0256.
 DROP   @VMFREE-72,R13             73519    0257.              PSET  @ACREATE
 USING  @ACREATE-72,R13
 0094E0 D707 D048 D048 00000 00000 73539             +
 0094E6 D203 D048 A138 00000 09534 73540    0258.              MVC   @ACRPSW(4),=X'070C0000'
 0094EC D203 D04C A13C 00004 09538 73541    0259.              MVC   @ACRPSW+4(4),=A(X'80000000'+PAGESWAP)
 0094F2 58F0 A140/0DEF       0953C 73542    0260.              VCALL ACREATE
 0094F8 981F C008            00008 73546    0261.              PEND  ,
 DROP   PGDDAL,R8
 DROP   PAGIPARM,R9
 DROP   PAGCB,R6
 DROP   PAGINIT2,R10
 0094FC 9680 C000/0B0E 00000       73571             +
 DROP   @ACREATE-72,R13
1PAGESERV (PAGE00) (09:42) (22MAR04) MP-ORVYL Real Memory / Paging Manager Services                                         Page  413
0Loc    Object Code    Addr1 Addr2  Stmt Lv Lineno    Source Statement           (Hibal 5, Asmedit 3.3)  HLASM R4.0  2004/03/22 09.42
+___    ______ ____    _____ _____  ____ __ ______    ______ _________
0009508                            73581    0263.              LTORG ,
 009508 00000664                   73583                             =A(VIRTABL)
 00950C 00005F9E                   73584                             =A(FRAMEGET)
 009510 00001170                   73585                             =A(PAGPRC)
 009514 7FFFF000                   73586                             =A(PAGPAGM)
 009518 00000000                   73587                             =V(VMGET)
 00951C 00000000                   73588                             =V(IOSIDGET)
 009520 00000000                   73589                             =V(IOSIDFRE)
 009524 00000000                   73590                             =V(VMFREE)
 009528 00000000                   73591                             =V(LKOB)
 00952C 00000000                   73592                             =V(LKREL)
 009530 00000962                   73593                             =A(RESOLVE)
 009534 070C0000                   73594                             =X'070C0000'
 009538 800018DE                   73595                             =A(X'80000000'+PAGESWAP)
 00953C 00000000                   73596                             =V(ACREATE)
 009540 1000                       73597                             =Y(PAGPAGEL)
 009542 3B00                       73598                             =Y(59*256+0)
 009544 3F00           09546 0A6E0 73599                             =Y(63*256+0)
1PAGESERV (PAGE00) (09:42) (22MAR04) Open paging datasets                                                                   Page  414
0Loc    Object Code    Addr1 Addr2  Stmt Lv Lineno    Source Statement           (Hibal 5, Asmedit 3.3)  HLASM R4.0  2004/03/22 09.42
+___    ______ ____    _____ _____  ____ __ ______    ______ _________
0000000                00000 0000C 73604    0265.     @OPENDS  RECORD BEGIN
 000000                            73612  1 0266.     @OPNPARM   DS    A                       Address of parameter work area
 000004                            73613  1 0267.     @OPNDAL    DS    A                       Dynamic Alloc area
 000008                            73614  1 0268.     @OPNID     DS    A                       I/O id for our init
 00000C                0000C 0000C 73615    0269.              END   ,
0009546                            73625    0271.     PAGOPEN  PROC  @OPENDS,#PAGINI2
 009546 D7C1C7D6D7C5D540           73632             +
 00954E 0010/0078                  73633             +
 009552 900F D004/18AF       00004 73635             +
 USING  PAGOPEN,R10
 009558 50D0 C000/18CD       00000 73650             +
 00955E 9680 C000      00000       73652             +
 USING  @OPENDS-72,R12
 AUSING (#PAGINI2,@OPENDS+16)
 009562 41D0 C0D0            000D0 73671             +
 009566 5860 0200            00200 73672    0272.              PAGAD RPAG
 USING  PZERO,R0
 DROP   PZERO,R0
 USING  MAT,R6
 00956A 5860 600C            0000C 73706             +
 DROP   MAT,R6
 USING  PAGCB,R6
 00956E 5890 C048            00000 73728    0273.              L     RN,@OPNPARM
 USING  PAGIPARM,R9                73729    0274.              WITH  (PAGIPARM,RN)
 AUSING (PARMIN,PAGITYPE)          73742    0275.              WITH  (PARMIN,PAGITYPE)
 009572                            73749    0276.              CLEAR PARMIN
 009572 D703 9000 9000 00000 00000 73755             +
 009578 5880 C04C            00004 73756    0277.              L     RM,@OPNDAL
 USING  PGDDAL,R8                  73757    0278.              WITH  (PGDDAL,RM)             Addr to PGDDAL
 AUSING (#PIOOPEN,DALPDAT)         73770    0279.              WITH  (#PIOOPEN,DALPDAT)
 AUSING (#PIRESET,DALPRSET)        73777    0280.              WITH  (#PIRESET,DALPRSET)
 AUSING (#SWPOPEN,DALSDAT)         73784    0281.              WITH  (#SWPOPEN,DALSDAT)
 AUSING (#SWPRSET,DALSRSET)        73791    0282.              WITH  (#SWPRSET,DALSRSET)
 AUSING (@DSALLO,DALAINFO)         73798    0283.              WITH  (@DSALLO,DALAINFO)
 AUSING (#PFINFO,DALOINFO)         73805    0284.              WITH  (#PFINFO,DALOINFO)
                                   73812    0285.
                                   73813    0286.          Set up to get paging data set names
                                   73814    0287.
                                   73815    0288.              REGCH (RVR,R0),(RS,R1),(RAR,R14),(EPAR,R15)
 00957C 9200 9000      00000       73816    0289.              SET   PARMFSTR                String type parameters
 009580 D207 9004 A7A6 00004 09CF8 73822    0290.              MVC   PAGIKEYS,=CL8'PAGING'   Keywords
 009586 D207 900C A7AE 0000C 09D00 73823    0291.              MVC   PAGIKEYS+8(8),=CL8'PAGE'
                                   73824    0292.
 00958C                            73825    0293.              CLEAR #PAGI2CNT,#PAGI2DSL
 00958C D703 C060 C060 00008 00008 73831             +
 009592 D703 C05C C05C 00004 00004 73836             +
 009598 1B22/1B33                  73837    0294.              CLEAR (RA),(RB)
 00959C                            73843    0295.     OPENPG   LOOP  BEGIN                   Open all paging datasets
 00959C 5870 C05C            00004 73850  1 0296.                L     RY,#PAGI2DSL            Last DS descriptor
 0095A0 9200 9000      00000       73851  1 0297.                GETPARM2 PAGIOUT,,2,TYPE=STRING,REGS=(RJ,RAR)
 0095A4 4140 901C            0001C 73864  1          +
 0095A8 4150 002C            0002C 73871  1          +
 0095AC 41E0 9000            00000 73878  1          +
 0095B0 41F0 0014            00014 73885  1          +
 0095B4 834E0016                   73888  1          +
1PAGESERV (PAGE00) (09:42) (22MAR04) Open paging datasets                                                                   Page  415
0Current Usings:  (PAGCB,R6) (PGDDAL,R8) (PAGIPARM,R9) (PAGOPEN,R10) (@OPENDS-72,R12)
0Loc    Object Code    Addr1 Addr2  Stmt Lv Lineno    Source Statement           (Hibal 5, Asmedit 3.3)  HLASM R4.0  2004/03/22 09.42
+___    ______ ____    _____ _____  ____ __ ______    ______ _________
00095B8 4770 A5BE            09B10 73889  1 0298.                IF    ~ZERO,EXIT,OPENPG       No parameter found
                                   73903  1 0299.
                                   73904  1 0300.            Allocate data set descriptor block
                                   73905  1 0301.
 0095BC 1837                       73906  1 0302.                LR    RB,RY
 USING  @VMGET-72,R13              73907  1 0303.                VMGET L'DSDES,LOC=GLOBHI,FIX=YES,ONEPAGE=YES
 0095BE D70A D048 D048 00000 00000 73931  1          +
 0095C4 4100 0038            00038 73943  1          +
 0095C8 5000 D048            00000 73948  1          +
 0095CC D201 D050 A81A 00008 09D6C 73949  1          +
 0095D2 9640 D052      0000A       73955  1          +
 0095D6 58F0 A7D6/0DEF       09D28 73958  1          +
 0095DC 1870                       73960  1 0304.                LR    RY,RVR
 0095DE 1233/4770 A096       095E8 73961  1 0305.                IF    (RB,ZERO),BEGIN         First dataset
 0095E4 5070 C058            00000 73975  2 0306.                  ST    RY,#PAGI2DS1
 0095E8                            73976  1 0307.                END   ,
 0095E8 A09A           095E8 095E2 73980  1 0308.                ELSE  BEGIN                   Not first dataset
 0095E8 47F0 A09E            095F0 73985  1          +
 USING  DSDES,R3                   73991  2 0309.                  WITH  (DSDES,RB)
 0095EC 5070 301C            0001C 74004  2 0310.                  ST    RY,DSCHAIN
 DROP   DSDES,R3                   74005  1 0311.                END   ,                       OF Not first dataset
 USING  DSDES,R7                   74014  1 0312.                WITH  (DSDES,RY)
 0095F0                            74027  1 0313.                CLEAR DSDES
 0095F0 D737 7000 7000 00000 00000 74033  1          +
 0095F6 D203 7000 A7DA 00000 09D2C 74034  1 0314.                MVC   DSAID,=CL4'BMCB'        Set ID
 0095FC 5020 7018            00018 74035  1 0315.                ST    RA,DSOFFSET             DS starts w/ this block
                                   74036  1 0316.
                                   74037  1 0317.            Clear fields
                                   74038  1 0318.
 009600                            74039  1 0319.                CLEAR #PIOOPEN                Clear channel prog
 009600 D70B 8000 8000 00000 00000 74045  1          +
 009606                            74046  1 0320.                CLEAR #PFINFO                 | and info area
 009606 D71F 806C 806C 00000 00000 74052  1          +
 00960C                            74053  1 0321.                CLEAR @DSALLO                 Clear DS info
 00960C D75F 800C 800C 00000 00000 74059  1          +
 009612 4100 8010            00004 74060  1 0322.                LA    RVR,@DSDSN              Get DSN
 009616 4110 002C            0002C 74061  1 0323.                LA    RS,L'@DSDSN             | blank area 1st
 00961A 1FFF/BFF8 A840       09D92 74062  1 0324.                LCM   EPAR,8,=C' '            | |
 009620 0E0E                       74067  1 0325.                MVCL  RVR,RAR                 |
 009622 4950 A81C            09D6E 74068  1 0326.                CEIL  RK,=Y(L'@DSDSN)         | move in name (len)
 009626 47D0 A0DC            0962E 74071  1          +
 00962A 4850 A81C            09D6E 74072  1          +
 00962E 0650/4450 A842       09D94 74073  1 0327.                DEX   RK,'MVC @DSDSN(0),@RJ'  | location
 009D94 D200 8010 4000 00004 00000 74084  1          +
                                   74092  1 0328.     *
 009634 D203 8000 A7DE 00000 09D30 74093  1 0329.                MVC   #PIOOCMD,=A(#PCOPEN)
 00963A B130 800C            00000 74094  1 0330.                LRA   RB,@DSALLO              Allocation parms
 00963E 5030 8004            00004 74095  1 0331.                ST    RB,#PIOALLO             |
 009642 B130 806C            00000 74096  1 0332.                LRA   RB,#PFINFO              Open info - return
 009646 5030 8008            00008 74097  1 0333.                ST    RB,#PIOINFO             |
1PAGESERV (PAGE00) (09:42) (22MAR04) Open paging datasets                                                                   Page  416
0Current Usings:  (PAGCB,R6) (DSDES,R7) (PGDDAL,R8) (PAGIPARM,R9) (PAGOPEN,R10) (@OPENDS-72,R12) (@VMGET-72,R13)
0Loc    Object Code    Addr1 Addr2  Stmt Lv Lineno    Source Statement           (Hibal 5, Asmedit 3.3)  HLASM R4.0  2004/03/22 09.42
+___    ______ ____    _____ _____  ____ __ ______    ______ _________
0                                  74098  1 0334.
                                   74099  1 0335.            Get a channel ID
                                   74100  1 0336.
 00964A 4130 0004            00004 74101  1 0337.                LA    RB,#IOUPAGE             Device type
 00964E 83300007                   74102  1 0338.                SYSCTL (RB),TYPE=ALLOC
 009652 1233/4770 A136       09688 74105  1 0339.                IF    (RB,ZERO),'ABORT NOPAGCHID'
 009658 AC04 021B      0021B       74132  2          +
 USING  PZERO,R0
 00965C 9680 021A      0021A       74138  2          +
 009660 50F0 021C            0021C 74139  2          +
 009664 58F0 0210            00210 74140  2          +
 009668 89F0 0010            00010 74141  2          +
 00966C 88F0 0010            00010 74142  2          +
 009670 41F0 F000            00000 74143  2          +
 009674 AEFF 0006            00006 74144  2          +
 009678 D5D6D7C1C7C3C8C9           74145  1          +
 DROP   PZERO,R0
 009688 5030 7014            00014 74158  1 0340.                ST    RB,DSCHID               Save channel ID
                                   74159  1 0341.
                                   74160  1 0342.            Do the I/O
                                   74161  1 0343.
 USING  PZERO,R0                   74162  1 0344.                USING PZERO,R0
 DROP   @VMGET-72,R13              74171  1 0345.                PSET  @IOSDOIO
 USING  @IOSDOIO-72,R13
 00968C D71D D048 D048 00000 00000 74191  1          +
 009692 5030 D048            00000 74192  1 0346.                PMOV  @IOSCHID,(RB)           Channel ID
 009696                            74202  1 0347.                PMOV  @IOSID,@OPNID           I/O ID
 009696 D203 D04C C050 00004 00008 74206  1          +
 00969C                            74207  1 0348.                PMOV  @IOSPID,PZCURPID        This process ID
 00969C D207 D050 0208 00008 00208 74211  1          +
 0096A2 4100 8000            00000 74212  1 0349.                PMOV  @IOSCP,LA:#PIOOPEN      Channel program
 0096A6 5000 D058            00010 74228  1          +
 0096AA 1832                       74229  1 0350.                LR    RB,RA                   Use PSW key - save RA
                                   74230  1 0351.                REGCH (RA,R2)                 | hardware uses R2
 0096AC B20B 0000                  74231  1 0352.                IPK   ,                       |
 0096B0 4220 D064            0001C 74232  1 0353.                STC   RA,@IOSKEY              |
 0096B4 1823                       74233  1 0354.                LR    RA,RB                   |
 0096B6 9680 D065      0001D       74234  1 0355.                SET   @IOSFSYNC               Do it as synchronous I/O
 0096BA 58F0 A7E2/0DEF       09D34 74240  1 0356.                VCALL IOSDOIO                 | Do DASD allocation
 DROP   PZERO,R0                   74244  1 0357.                DROP  R0                      |
 0096C0 1200/4780 A348       0989A 74252  1 0358.                IF    (RVR,NZ),BEGIN          Paging DS open error
 AUSING (SEGCBD,#PAGI2SEG)         74266  2 0359.                  WITH  (SEGCBD,#PAGI2SEG)
                                   74273  2 0360.                  SEGDEF LA:SEGCBD
 DROP   @IOSDOIO-72,R13            74274  2 0361.                  SEGINIT #PAGI2WTO
 USING  @SEGINIT-72,R13
 0096C6 D70D D048 D048 00000 00000 74295  2          +
 0096CC 4100 C08C            00034 74308  2          +
 0096D0 5000 D050            00008 74313  2          +
 0096D4 4100 0040            00040 74325  2          +
 0096D8 4000 D054/1B00       0000C 74330  2          +
 0096DE 5000 D04C            00004 74344  2          +
 0096E2 4100 C064            00000 74358  2          +
 0096E6 5000 D048            00000 74363  2          +
 0096EA 58F0 A7E6/0DEF       09D38 74366  2          +
1PAGESERV (PAGE00) (09:42) (22MAR04) Open paging datasets                                                                   Page  417
0Current Usings:  (PAGCB,R6) (DSDES,R7) (PGDDAL,R8) (PAGIPARM,R9) (PAGOPEN,R10) (@OPENDS-72,R12) (@SEGINIT-72,R13)
0Loc    Object Code    Addr1 Addr2  Stmt Lv Lineno    Source Statement           (Hibal 5, Asmedit 3.3)  HLASM R4.0  2004/03/22 09.42
+___    ______ ____    _____ _____  ____ __ ______    ______ _________
00096F0 5840 0200            00200 74368  2 0362.                  L     RJ,MATPTR
 USING  MAT,R4                     74369  2 0363.                  WITH  (MAT,RJ),'SEGB MATSNAME'
 DROP   @SEGINIT-72,R13
 USING  @SEG-72,R13
 0096F4 D70C D048 D048 00000 00000 74406  3          +
 0096FA 4100 40D4            000D4 74419  3          +
 0096FE 5000 D04C            00004 74424  3          +
 009702 4100 0008            00008 74436  3          +
 009706 5000 D050            00008 74441  3          +
 00970A 4100 C064            00000 74455  3          +
 00970E 5000 D048            00000 74460  3          +
 009712 9680 D054      0000C       74466  3          +
 009716 58F0 A7EA/0DEF       09D3C 74469  2          +
 DROP   MAT,R4
 00971C                            74479  2 0364.                  SEGB  'Page dataset open failed'
 00971C D70C D048 D048 00000 00000 74491  2          +
 009722 4100 A7B6            09D08 74500  2          +
 009726 5000 D04C            00004 74505  2          +
 00972A 4100 0018            00018 74517  2          +
 00972E 5000 D050            00008 74522  2          +
 009732 4100 C064            00000 74536  2          +
 009736 5000 D048            00000 74541  2          +
 00973A 9680 D054      0000C       74547  2          +
 00973E 58F0 A7EA/0DEF       09D3C 74550  2          +
 009744                            74552  2 0365.                  SEGHEX @DSRTN
 009744 D70C D048 D048 00000 00000 74563  2          +
 00974A 4100 8052            00046 74576  2          +
 00974E 5000 D04C            00004 74581  2          +
 009752 4100 0002            00002 74593  2          +
 009756 5000 D050            00008 74598  2          +
 00975A 4100 C064            00000 74612  2          +
 00975E 5000 D048            00000 74617  2          +
 009762 58F0 A7EE/0DEF       09D40 74620  2          +
 009768                            74622  2 0366.                  SEGHEX @DSERR
 009768 D70C D048 D048 00000 00000 74633  2          +
 00976E 4100 8054            00048 74646  2          +
 009772 5000 D04C            00004 74651  2          +
 009776 4100 0002            00002 74663  2          +
 00977A 5000 D050            00008 74668  2          +
 00977E 4100 C064            00000 74682  2          +
 009782 5000 D048            00000 74687  2          +
 009786 58F0 A7EE/0DEF       09D40 74690  2          +
 00978C                            74692  2 0367.                  SEGHEX @DSRSN
 00978C D70C D048 D048 00000 00000 74703  2          +
 009792 4100 8056            0004A 74716  2          +
 009796 5000 D04C            00004 74721  2          +
 00979A 4100 0002            00002 74733  2          +
 00979E 5000 D050            00008 74738  2          +
 0097A2 4100 C064            00000 74752  2          +
 0097A6 5000 D048            00000 74757  2          +
 0097AA 58F0 A7EE/0DEF       09D40 74760  2          +
 0097B0 58E0 C064            00000 74762  2 0368.                  ORVWTO L:SEGADD,LH:SEGCNT,DELETE=NO    Write descriptive msg
 0097B4 48F0 C06E            0000A 74770  2          +
 0097B8 4100 0006            00006 74771  2          +
1PAGESERV (PAGE00) (09:42) (22MAR04) Open paging datasets                                                                   Page  418
0Current Usings:  (PAGCB,R6) (DSDES,R7) (PGDDAL,R8) (PAGIPARM,R9) (PAGOPEN,R10) (@OPENDS-72,R12) (@SEG-72,R13)
0Loc    Object Code    Addr1 Addr2  Stmt Lv Lineno    Source Statement           (Hibal 5, Asmedit 3.3)  HLASM R4.0  2004/03/22 09.42
+___    ______ ____    _____ _____  ____ __ ______    ______ _________
00097BC 83E00013                   74774  2          +
 0097C0                            74775  2 0369.                  SEGCLR ,
 0097C0 D70C D048 D048 00000 00000 74786  2          +
 0097C6 4100 C064            00000 74800  2          +
 0097CA 5000 D048            00000 74805  2          +
 0097CE 58F0 A7F2/0DEF       09D44 74808  2          +
 USING  MAT,R4                     74810  2 0370.                  WITH  (MAT,RJ),'SEGB MATSNAME'
 0097D4 D70C D048 D048 00000 00000 74837  3          +
 0097DA 4100 40D4            000D4 74850  3          +
 0097DE 5000 D04C            00004 74855  3          +
 0097E2 4100 0008            00008 74867  3          +
 0097E6 5000 D050            00008 74872  3          +
 0097EA 4100 C064            00000 74886  3          +
 0097EE 5000 D048            00000 74891  3          +
 0097F2 9680 D054      0000C       74897  3          +
 0097F6 58F0 A7EA/0DEF       09D3C 74900  2          +
 DROP   MAT,R4
 0097FC                            74910  2 0371.                  SEG   @DSDSN
 0097FC D70C D048 D048 00000 00000 74921  2          +
 009802 4100 8010            00004 74934  2          +
 009806 5000 D04C            00004 74939  2          +
 00980A 4100 002C            0002C 74951  2          +
 00980E 5000 D050            00008 74956  2          +
 009812 4100 C064            00000 74970  2          +
 009816 5000 D048            00000 74975  2          +
 00981A 58F0 A7EA/0DEF       09D3C 74978  2          +
 009820                            74980  2 0372.                  SEG   ' on '
 009820 D70C D048 D048 00000 00000 74991  2          +
 009826 4100 A7F6            09D48 75000  2          +
 00982A 5000 D04C            00004 75005  2          +
 00982E 4100 0004            00004 75017  2          +
 009832 5000 D050            00008 75022  2          +
 009836 4100 C064            00000 75036  2          +
 00983A 5000 D048            00000 75041  2          +
 00983E 58F0 A7EA/0DEF       09D3C 75044  2          +
 009844                            75046  2 0373.                  SEG   @DSVOL
 009844 D70C D048 D048 00000 00000 75057  2          +
 00984A 4100 804C            00040 75070  2          +
 00984E 5000 D04C            00004 75075  2          +
 009852 4100 0006            00006 75087  2          +
 009856 5000 D050            00008 75092  2          +
 00985A 4100 C064            00000 75106  2          +
 00985E 5000 D048            00000 75111  2          +
 009862 58F0 A7EA/0DEF       09D3C 75114  2          +
 009868 58E0 C064            00000 75116  2 0374.                  ORVWTO L:SEGADD,LH:SEGCNT,DELETE=NO    Write DSN
 00986C 48F0 C06E            0000A 75124  2          +
 009870 4100 0006            00006 75125  2          +
 009874 83E00013                   75128  2          +
 DROP   @SEG-72,R13                75129  2 0375.                  VMFREE L'DSDES,A=LA:DSDES,LOC=GLOBHI,FIX=YES
 USING  @VMFREE-72,R13
 009878 D709 D048 D048 00000 00000 75156  2          +
 00987E 4100 0038            00038 75168  2          +
 009882 5000 D04C            00004 75173  2          +
 009886 5070 D048            00000 75184  2          +
1PAGESERV (PAGE00) (09:42) (22MAR04) Open paging datasets                                                                   Page  419
0Current Usings:  (PAGCB,R6) (DSDES,R7) (PGDDAL,R8) (PAGIPARM,R9) (PAGOPEN,R10) (@OPENDS-72,R12) (@VMFREE-72,R13)
0Loc    Object Code    Addr1 Addr2  Stmt Lv Lineno    Source Statement           (Hibal 5, Asmedit 3.3)  HLASM R4.0  2004/03/22 09.42
+___    ______ ____    _____ _____  ____ __ ______    ______ _________
000988A D201 D050 A81A 00008 09D6C 75185  2          +
 009890 58F0 A7FA/0DEF       09D4C 75188  2          +
 009896 47F0 A04A            0959C 75190  2 0376.                  NEXT  OPENPG
 00989A                            75193  1 0377.                END   ,                       OF Paging DS open error
 00989A 5830 806C            00000 75197  1 0378.                L     RB,#PFIBKS              Number of blocks in DS
 00989E 5030 700C            0000C 75198  1 0379.                ST    RB,DSCOUNT              |
 0098A2 5030 7010            00010 75199  1 0380.                ST    RB,DSAVAIL              |
                                   75200  1 0381.
                                   75201  1 0382.            Reset paging device
                                   75202  1 0383.
 0098A6                            75203  1 0384.                CLEAR #PIRESET
 0098A6 D703 8000 8000 00000 00000 75209  1          +
 0098AC 4100 0014            00014 75210  1 0385.                PMOV  #PIOTCMD,LA:#PCRESET
 0098B0 5000 8000            00000 75226  1          +
 USING  PZERO,R0                   75227  1 0386.                USING PZERO,R0
 DROP   @VMFREE-72,R13             75236  1 0387.                PSET  @IOSDOIO
 USING  @IOSDOIO-72,R13
 0098B4 D71D D048 D048 00000 00000 75256  1          +
 0098BA                            75257  1 0388.                PMOV  @IOSCHID,DSCHID         Channel ID
 0098BA D203 D048 7014 00000 00014 75261  1          +
 0098C0                            75262  1 0389.                PMOV  @IOSID,@OPNID           I/O ID
 0098C0 D203 D04C C050 00004 00008 75266  1          +
 0098C6                            75267  1 0390.                PMOV  @IOSPID,PZCURPID        This process ID
 0098C6 D207 D050 0208 00008 00208 75271  1          +
 0098CC 4100 8000            00000 75272  1 0391.                PMOV  @IOSCP,LA:#PIRESET      Channel program
 0098D0 5000 D058            00010 75288  1          +
 0098D4 1832                       75289  1 0392.                LR    RB,RA                   Use PSW key - save RA
                                   75290  1 0393.                REGCH (RA,R2)                 | hardware uses R2
 0098D6 B20B 0000                  75291  1 0394.                IPK   ,                       |
 0098DA 4220 D064            0001C 75292  1 0395.                STC   RA,@IOSKEY              |
 0098DE 1823                       75293  1 0396.                LR    RA,RB                   |
 0098E0 9680 D065      0001D       75294  1 0397.                SET   @IOSFSYNC               Do it as synchronous I/O
 0098E4 58F0 A7E2/0DEF       09D34 75300  1 0398.                VCALL IOSDOIO                 | Do DASD allocation
 DROP   PZERO,R0                   75304  1 0399.                DROP  R0                      |
 0098EA 1200/4780 A572       09AC4 75312  1 0400.                IF    (RVR,NZ),BEGIN          Failed reset of page device
 AUSING (SEGCBD,#PAGI2SEG)         75326  2 0401.                  WITH  (SEGCBD,#PAGI2SEG)
                                   75333  2 0402.                  SEGDEF LA:SEGCBD
 DROP   @IOSDOIO-72,R13            75334  2 0403.                  SEGINIT #PAGI2WTO
 USING  @SEGINIT-72,R13
 0098F0 D70D D048 D048 00000 00000 75355  2          +
 0098F6 4100 C08C            00034 75368  2          +
 0098FA 5000 D050            00008 75373  2          +
 0098FE 4100 0040            00040 75385  2          +
 009902 4000 D054/1B00       0000C 75390  2          +
 009908 5000 D04C            00004 75404  2          +
 00990C 4100 C064            00000 75418  2          +
 009910 5000 D048            00000 75423  2          +
 009914 58F0 A7E6/0DEF       09D38 75426  2          +
 00991A 5840 0200            00200 75428  2 0404.                  L     RJ,MATPTR
 USING  MAT,R4                     75429  2 0405.                  WITH  (MAT,RJ),'SEGB MATSNAME'
 DROP   @SEGINIT-72,R13
 USING  @SEG-72,R13
 00991E D70C D048 D048 00000 00000 75466  3          +
 009924 4100 40D4            000D4 75479  3          +
1PAGESERV (PAGE00) (09:42) (22MAR04) Open paging datasets                                                                   Page  420
0Current Usings:  (MAT,R4) (PAGCB,R6) (DSDES,R7) (PGDDAL,R8) (PAGIPARM,R9) (PAGOPEN,R10) (@OPENDS-72,R12) (@SEG-72,R13)
0Loc    Object Code    Addr1 Addr2  Stmt Lv Lineno    Source Statement           (Hibal 5, Asmedit 3.3)  HLASM R4.0  2004/03/22 09.42
+___    ______ ____    _____ _____  ____ __ ______    ______ _________
0009928 5000 D04C            00004 75484  3          +
 00992C 4100 0008            00008 75496  3          +
 009930 5000 D050            00008 75501  3          +
 009934 4100 C064            00000 75515  3          +
 009938 5000 D048            00000 75520  3          +
 00993C 9680 D054      0000C       75526  3          +
 009940 58F0 A7EA/0DEF       09D3C 75529  2          +
 DROP   MAT,R4
 009946                            75539  2 0406.                  SEGB  'Page dataset initialization failed'
 009946 D70C D048 D048 00000 00000 75551  2          +
 00994C 4100 A81E            09D70 75560  2          +
 009950 5000 D04C            00004 75565  2          +
 009954 4100 0022            00022 75577  2          +
 009958 5000 D050            00008 75582  2          +
 00995C 4100 C064            00000 75596  2          +
 009960 5000 D048            00000 75601  2          +
 009964 9680 D054      0000C       75607  2          +
 009968 58F0 A7EA/0DEF       09D3C 75610  2          +
 00996E                            75612  2 0407.                  SEGHEX @DSRTN
 00996E D70C D048 D048 00000 00000 75623  2          +
 009974 4100 8052            00046 75636  2          +
 009978 5000 D04C            00004 75641  2          +
 00997C 4100 0002            00002 75653  2          +
 009980 5000 D050            00008 75658  2          +
 009984 4100 C064            00000 75672  2          +
 009988 5000 D048            00000 75677  2          +
 00998C 58F0 A7EE/0DEF       09D40 75680  2          +
 009992                            75682  2 0408.                  SEGHEX @DSERR
 009992 D70C D048 D048 00000 00000 75693  2          +
 009998 4100 8054            00048 75706  2          +
 00999C 5000 D04C            00004 75711  2          +
 0099A0 4100 0002            00002 75723  2          +
 0099A4 5000 D050            00008 75728  2          +
 0099A8 4100 C064            00000 75742  2          +
 0099AC 5000 D048            00000 75747  2          +
 0099B0 58F0 A7EE/0DEF       09D40 75750  2          +
 0099B6                            75752  2 0409.                  SEGHEX @DSRSN
 0099B6 D70C D048 D048 00000 00000 75763  2          +
 0099BC 4100 8056            0004A 75776  2          +
 0099C0 5000 D04C            00004 75781  2          +
 0099C4 4100 0002            00002 75793  2          +
 0099C8 5000 D050            00008 75798  2          +
 0099CC 4100 C064            00000 75812  2          +
 0099D0 5000 D048            00000 75817  2          +
 0099D4 58F0 A7EE/0DEF       09D40 75820  2          +
 0099DA 58E0 C064            00000 75822  2 0410.                  ORVWTO L:SEGADD,LH:SEGCNT,DELETE=NO    Write descriptive msg
 0099DE 48F0 C06E            0000A 75830  2          +
 0099E2 4100 0006            00006 75831  2          +
 0099E6 83E00013                   75834  2          +
 0099EA                            75835  2 0411.                  SEGCLR ,
 0099EA D70C D048 D048 00000 00000 75846  2          +
 0099F0 4100 C064            00000 75860  2          +
 0099F4 5000 D048            00000 75865  2          +
 0099F8 58F0 A7F2/0DEF       09D44 75868  2          +
1PAGESERV (PAGE00) (09:42) (22MAR04) Open paging datasets                                                                   Page  421
0Current Usings:  (MAT,R4) (PAGCB,R6) (DSDES,R7) (PGDDAL,R8) (PAGIPARM,R9) (PAGOPEN,R10) (@OPENDS-72,R12) (@SEG-72,R13)
0Loc    Object Code    Addr1 Addr2  Stmt Lv Lineno    Source Statement           (Hibal 5, Asmedit 3.3)  HLASM R4.0  2004/03/22 09.42
+___    ______ ____    _____ _____  ____ __ ______    ______ _________
0USING  MAT,R4                     75870  2 0412.                  WITH  (MAT,RJ),'SEGB MATSNAME'
 0099FE D70C D048 D048 00000 00000 75897  3          +
 009A04 4100 40D4            000D4 75910  3          +
 009A08 5000 D04C            00004 75915  3          +
 009A0C 4100 0008            00008 75927  3          +
 009A10 5000 D050            00008 75932  3          +
 009A14 4100 C064            00000 75946  3          +
 009A18 5000 D048            00000 75951  3          +
 009A1C 9680 D054      0000C       75957  3          +
 009A20 58F0 A7EA/0DEF       09D3C 75960  2          +
 DROP   MAT,R4
 009A26                            75970  2 0413.                  SEG   @DSDSN
 009A26 D70C D048 D048 00000 00000 75981  2          +
 009A2C 4100 8010            00004 75994  2          +
 009A30 5000 D04C            00004 75999  2          +
 009A34 4100 002C            0002C 76011  2          +
 009A38 5000 D050            00008 76016  2          +
 009A3C 4100 C064            00000 76030  2          +
 009A40 5000 D048            00000 76035  2          +
 009A44 58F0 A7EA/0DEF       09D3C 76038  2          +
 009A4A                            76040  2 0414.                  SEG   ' on '
 009A4A D70C D048 D048 00000 00000 76051  2          +
 009A50 4100 A7F6            09D48 76060  2          +
 009A54 5000 D04C            00004 76065  2          +
 009A58 4100 0004            00004 76077  2          +
 009A5C 5000 D050            00008 76082  2          +
 009A60 4100 C064            00000 76096  2          +
 009A64 5000 D048            00000 76101  2          +
 009A68 58F0 A7EA/0DEF       09D3C 76104  2          +
 009A6E                            76106  2 0415.                  SEG   @DSVOL
 009A6E D70C D048 D048 00000 00000 76117  2          +
 009A74 4100 804C            00040 76130  2          +
 009A78 5000 D04C            00004 76135  2          +
 009A7C 4100 0006            00006 76147  2          +
 009A80 5000 D050            00008 76152  2          +
 009A84 4100 C064            00000 76166  2          +
 009A88 5000 D048            00000 76171  2          +
 009A8C 58F0 A7EA/0DEF       09D3C 76174  2          +
 009A92 58E0 C064            00000 76176  2 0416.                  ORVWTO L:SEGADD,LH:SEGCNT,DELETE=NO    Write DSN
 009A96 48F0 C06E            0000A 76184  2          +
 009A9A 4100 0006            00006 76185  2          +
 009A9E 83E00013                   76188  2          +
 DROP   @SEG-72,R13                76189  2 0417.                  VMFREE L'DSDES,A=LA:DSDES,LOC=GLOBHI,FIX=YES
 USING  @VMFREE-72,R13
 009AA2 D709 D048 D048 00000 00000 76216  2          +
 009AA8 4100 0038            00038 76228  2          +
 009AAC 5000 D04C            00004 76233  2          +
 009AB0 5070 D048            00000 76244  2          +
 009AB4 D201 D050 A81A 00008 09D6C 76245  2          +
 009ABA 58F0 A7FA/0DEF       09D4C 76248  2          +
 009AC0 47F0 A04A            0959C 76250  2 0418.                  NEXT  OPENPG
 009AC4                            76253  1 0419.                END   ,                       OF Failed reset of page device
1PAGESERV (PAGE00) (09:42) (22MAR04) Open paging datasets                                                                   Page  422
0Current Usings:  (PAGCB,R6) (DSDES,R7) (PGDDAL,R8) (PAGIPARM,R9) (PAGOPEN,R10) (@OPENDS-72,R12) (@VMFREE-72,R13)
0Loc    Object Code    Addr1 Addr2  Stmt Lv Lineno    Source Statement           (Hibal 5, Asmedit 3.3)  HLASM R4.0  2004/03/22 09.42
+___    ______ ____    _____ _____  ____ __ ______    ______ _________
0                                  76257  1 0420.
                                   76258  1 0421.            Successful open and init.  Set this as last DS
                                   76259  1 0422.
 009AC4 5070 C05C            00004 76260  1 0423.                PMOV  #PAGI2DSL,LA:DSDES
                                   76271  1 0424.
                                   76272  1 0425.            Allocate bitmap and initialize it
                                   76273  1 0426.
 009AC8 5830 700C            0000C 76274  1 0427.                L     RB,DSCOUNT              Bytes required for map
 009ACC 1E23                       76275  1 0428.                ALR   RA,RB                   Total number so far
 009ACE 4130 3007            00007 76276  1 0429.                LA    RB,@RB+7                |
 009AD2 8830 0003            00003 76277  1 0430.                SRL   RB,3                    |
 DROP   @VMFREE-72,R13             76278  1 0431.                VMGET (RB),LOC=GLOBHI,FIX=YES
 USING  @VMGET-72,R13
 009AD6 D70A D048 D048 00000 00000 76305  1          +
 009ADC 5030 D048            00000 76315  1          +
 009AE0 D201 D050 A81A 00008 09D6C 76316  1          +
 009AE6 58F0 A7D6/0DEF       09D28 76319  1          +
 009AEC 5000 7004            00004 76321  1 0432.                ST    RVR,DSLOC               Bitmap location
 009AF0 5030 7008            00008 76322  1 0433.                ST    RB,DSLEN                | and length
                                   76323  1 0434.                REGCH (RAR,R14),(EPAR,R15)
 009AF4 18E0                       76324  1 0435.                LR    RAR,RVR                 Init bit map - location
 009AF6 18F3                       76325  1 0436.                LR    EPAR,RB                 | and len
 009AF8 1F33/BF38 A841       09D93 76326  1 0437.                LCM   RB,8,=X'FF'             | fill w/ ones
 009AFE 0EE2                       76331  1 0438.                MVCL  RAR,RA                  |
                                   76332  1 0439.
 009B00 4110 0001            00001 76333  1 0440.                INCR  RS,#PAGI2CNT            One more dataset
 009B04 5E10 C060            00008 76337  1          +
 009B08 5010 C060            00008 76338  1          +
 009B0C 47F0 A04A            0959C 76339    0441.              END   ,                       OF Open all paging datasets
 DROP   DSDES,R7
                                   76349    0442.
 USING  DSDES,R7                   76350    0443.              WITH  (DSDES,RY),BEGIN        Complete circular chain
 009B10 1277/4780 A5CA       09B1C 76364  1 0444.                IF    (RY,NZ),BEGIN
 009B16 D203 701C C058 0001C 00000 76378  2 0445.                  MVC   DSCHAIN,#PAGI2DS1
 009B1C                            76379  1 0446.                END   ,
 DROP   DSDES,R7                   76383    0447.              END   ,                       OF Complete circular chain
 009B1C 5020 61C4            001C4 76391    0448.              ST    RA,PAGXPRCNT            Total avail in PAGE DSs
 009B20 5020 623C            0023C 76392    0449.              ST    RA,PAGMXPG               and save the total there
                                   76393    0450.
                                   76394    0451.          Check to see if we have enough external frames
                                   76395    0452.
 009B24 9204 9000      00000       76396    0453.              GETPARM2 KEY=(PAGING,XPAG_MIN),REGS=(RVR,RAR)
 009B28 D207 9004 A7A6 00004 09CF8 76403             +
 009B2E D207 900C A7CE 0000C 09D20 76404             +
 009B34 41E0 9000            00000 76411             +
 009B38 41F0 0014            00014 76418             +
 009B3C 830E0016                   76421             +
 009B40 4130 03E8            003E8 76422    0454.              LA    RB,1000
 009B44 4770 A5F8/1830       09B4A 76423    0455.              IF    ZERO,'LR RB,RVR'
 009B4A 1923/47B0 A6B8       09C0A 76440    0456.              IF    (RA,LT,RB),BEGIN
 AUSING (SEGCBD,#PAGI2SEG)         76455  1 0457.                WITH  (SEGCBD,#PAGI2SEG)
                                   76462  1 0458.                SEGDEF LA:SEGCBD
 DROP   @VMGET-72,R13              76463  1 0459.                SEGINIT #PAGI2WTO
 USING  @SEGINIT-72,R13
1PAGESERV (PAGE00) (09:42) (22MAR04) Open paging datasets                                                                   Page  423
0Current Usings:  (PAGCB,R6) (PGDDAL,R8) (PAGIPARM,R9) (PAGOPEN,R10) (@OPENDS-72,R12) (@SEGINIT-72,R13)
0Loc    Object Code    Addr1 Addr2  Stmt Lv Lineno    Source Statement           (Hibal 5, Asmedit 3.3)  HLASM R4.0  2004/03/22 09.42
+___    ______ ____    _____ _____  ____ __ ______    ______ _________
0009B50 D70D D048 D048 00000 00000 76484  1          +
 009B56 4100 C08C            00034 76497  1          +
 009B5A 5000 D050            00008 76502  1          +
 009B5E 4100 0040            00040 76514  1          +
 009B62 4000 D054/1B00       0000C 76519  1          +
 009B68 5000 D04C            00004 76533  1          +
 009B6C 4100 C064            00000 76547  1          +
 009B70 5000 D048            00000 76552  1          +
 009B74 58F0 A7E6/0DEF       09D38 76555  1          +
 009B7A 5840 0200            00200 76557  1 0460.                L     RJ,MATPTR
 USING  MAT,R4                     76558  1 0461.                WITH  (MAT,RJ),'SEGB MATSNAME'
 DROP   @SEGINIT-72,R13
 USING  @SEG-72,R13
 009B7E D70C D048 D048 00000 00000 76595  2          +
 009B84 4100 40D4            000D4 76608  2          +
 009B88 5000 D04C            00004 76613  2          +
 009B8C 4100 0008            00008 76625  2          +
 009B90 5000 D050            00008 76630  2          +
 009B94 4100 C064            00000 76644  2          +
 009B98 5000 D048            00000 76649  2          +
 009B9C 9680 D054      0000C       76655  2          +
 009BA0 58F0 A7EA/0DEF       09D3C 76658  1          +
 DROP   MAT,R4
 009BA6                            76668  1 0462.                SEG   'External page frame shortage'
 009BA6 D70C D048 D048 00000 00000 76679  1          +
 009BAC 4100 A7FE            09D50 76688  1          +
 009BB0 5000 D04C            00004 76693  1          +
 009BB4 4100 001C            0001C 76705  1          +
 009BB8 5000 D050            00008 76710  1          +
 009BBC 4100 C064            00000 76724  1          +
 009BC0 5000 D048            00000 76729  1          +
 009BC4 58F0 A7EA/0DEF       09D3C 76732  1          +
 009BCA 58E0 C064            00000 76734  1 0463.                ORVWTO L:SEGADD,LH:SEGCNT,DELETE=NO    Write descriptive msg
 009BCE 48F0 C06E            0000A 76742  1          +
 009BD2 4100 0006            00006 76743  1          +
 009BD6 83E00013                   76746  1          +
 009BDA AC04 021B      0021B       76747  1 0464.                ABORT PAGNOXPG
 USING  PZERO,R0
 009BDE 9680 021A      0021A       76765  1          +
 009BE2 50F0 021C            0021C 76766  1          +
 009BE6 58F0 0210            00210 76767  1          +
 009BEA 89F0 0010            00010 76768  1          +
 009BEE 88F0 0010            00010 76769  1          +
 009BF2 41F0 F000            00000 76770  1          +
 009BF6 AEFF 0006            00006 76771  1          +
 009BFA D7C1C7D5D6E7D7C7           76772  1          +
 DROP   PZERO,R0
 009C0A                            76781    0465.              END   ,
1PAGESERV (PAGE00) (09:42) (22MAR04) Open paging datasets                                                                   Page  424
0Current Usings:  (PAGCB,R6) (PGDDAL,R8) (PAGIPARM,R9) (PAGOPEN,R10) (@OPENDS-72,R12) (@SEG-72,R13)
0Loc    Object Code    Addr1 Addr2  Stmt Lv Lineno    Source Statement           (Hibal 5, Asmedit 3.3)  HLASM R4.0  2004/03/22 09.42
+___    ______ ____    _____ _____  ____ __ ______    ______ _________
0                                  76785    0466.
                                   76786    0467.          Move initial external page frame bitmap to first real dataset
                                   76787    0468.          bitmap.
                                   76788    0469.
 009C0A 5820 61B4            001B4 76789    0470.              L     RA,PAGXPDS
 USING  OLD.DSDES,R2               76790    0471.              WITH  (DSDES,RA),LABEL=OLD,BEGIN
 009C0E 5830 C058            00000 76799  1 0472.                L     RB,#PAGI2DS1
 USING  NEW.DSDES,R3               76800  1 0473.                WITH  (DSDES,RB),LABEL=NEW
 009C12 5030 61B4            001B4 76808  1 0474.                ST    RB,PAGXPDS              First external paging DS
 009C16 5030 61BC            001BC 76809  1 0475.                ST    RB,PAGXPCUR             | and current
 009C1A 5850 C060            00008 76810  1 0476.                L     RK,#PAGI2CNT            Number of paging DSs
 009C1E 4050 61C0            001C0 76811  1 0477.                STH   RK,PAGXPN               |
 009C22 5850 200C            0000C 76812  1 0478.                L     RK,OLD.DSCOUNT          Number allocated
 009C26 5F50 2010            00010 76813  1 0479.                SL    RK,OLD.DSAVAIL          |
 009C2A 1345                       76814  1 0480.                LCR   RJ,RK                   | negative
 009C2C 5A40 300C            0000C 76815  1 0481.                A     RJ,NEW.DSCOUNT          |
 009C30 4740 A776            09CC8 76816  1 0482.                IF    NEG,PI2ABORT            | too many for 1st DS
 009C34 5040 3010            00010 76830  1 0483.                ST    RJ,NEW.DSAVAIL          |
 009C38 1345                       76831  1 0484.                LCR   RJ,RK                   | adjust total available
 009C3A 5A40 61C4            001C4 76832  1 0485.                A     RJ,PAGXPRCNT            |
 009C3E 5040 61C4            001C4 76833  1 0486.                ST    RJ,PAGXPRCNT            |
                                   76834  1 0487.
                                   76835  1 0488.            Copy bitmap
                                   76836  1 0489.
 009C42 5850 2008            00008 76837  1 0490.                L     RK,OLD.DSLEN
 009C46 5B50 3008            00008 76838  1 0491.                S     RK,NEW.DSLEN
 009C4A 1255/47D0 A714       09C66 76839  1 0492.                IF    (RK,POS),BEGIN          Old bitmap is longer
 009C50 5840 2004            00004 76853  2 0493.                  L     RJ,OLD.DSLOC            Make sure extra is all free
 009C54 5E40 3008            00008 76854  2 0494.                  AL    RJ,NEW.DSLEN            | start of extra, RK = len
 009C58 1B11                       76855  2 0495.                  CLEAR RS                      |
 009C5A 1F11/BF18 A841       09D93 76859  2 0496.                  LCM   RS,8,=X'FF'             |
 009C60 0F40                       76864  2 0497.                  CLCL  RJ,RVR                  |
 009C62 4770 A776            09CC8 76865  2 0498.                  IF    NE,PI2ABORT
 009C66                            76879  1 0499.                END   ,                       OF Old bitmap is longer
 009C66 5850 2008            00008 76883  1 0500.                L     RK,OLD.DSLEN            Len of copy
 009C6A 5840 3008            00008 76884  1 0501.                L     RJ,NEW.DSLEN            |
 009C6E 1954/47D0 A724       09C76 76885  1 0502.                CEIL  RK,RJ                   | Don't copy more than new len
 009C74 1854                       76890  1          +
 009C76 5840 2004            00004 76891  1 0503.                L     RJ,OLD.DSLOC            Source
 009C7A 5800 3004            00004 76892  1 0504.                L     RVR,NEW.DSLOC           Dest
 009C7E 1815                       76893  1 0505.                LR    RS,RK                   | len
 009C80 0E04                       76894  1 0506.                MVCL  RVR,RJ                  |
                                   76895  1 0507.
                                   76896  1 0508.            Free old BM and associated control block
                                   76897  1 0509.
 DROP   @SEG-72,R13                76898  1 0510.                VMFREE L:OLD.DSLEN,A=L:OLD.DSLOC,LOC=GLOBHI,FIX=YES
 USING  @VMFREE-72,R13
 009C82 D709 D048 D048 00000 00000 76925  1          +
 009C88 D203 D04C 2008 00004 00008 76930  1          +
 009C8E D203 D048 2004 00000 00004 76935  1          +
 009C94 D201 D050 A81A 00008 09D6C 76936  1          +
 009C9A 58F0 A7FA/0DEF       09D4C 76939  1          +
 009CA0                            76941  1 0511.                VMFREE L'DSDES,A=LA:OLD.DSDES,LOC=GLOBHI,FIX=YES
 009CA0 D709 D048 D048 00000 00000 76958  1          +
1PAGESERV (PAGE00) (09:42) (22MAR04) Open paging datasets                                                                   Page  425
0Current Usings:  (OLD.DSDES,R2) (NEW.DSDES,R3) (PAGCB,R6) (PGDDAL,R8) (PAGIPARM,R9) (PAGOPEN,R10) (@OPENDS-72,R12) (@VMFREE-72,R13)
0Loc    Object Code    Addr1 Addr2  Stmt Lv Lineno    Source Statement           (Hibal 5, Asmedit 3.3)  HLASM R4.0  2004/03/22 09.42
+___    ______ ____    _____ _____  ____ __ ______    ______ _________
0009CA6 4100 0038            00038 76970  1          +
 009CAA 5000 D04C            00004 76975  1          +
 009CAE 5020 D048            00000 76986  1          +
 009CB2 D201 D050 A81A 00008 09D6C 76987  1          +
 009CB8 58F0 A7FA/0DEF       09D4C 76990  1          +
 DROP   NEW.DSDES,R3               76992    0512.              END   ,                       OF Labeled DSDES usings
 DROP   OLD.DSDES,R2
 009CBE 981F C008            00008 77011    0513.              PEND  ,
 DROP   PGDDAL,R8
 DROP   PAGIPARM,R9
 DROP   PAGCB,R6
 DROP   @OPENDS-72,R12
 DROP   PAGOPEN,R10
 009CC2 9680 C000/0B0E 00000       77041             +
 DROP   @VMFREE-72,R13
0009CC8 AC04 021B      0021B       77051    0515.     PI2ABORT ABORT PAG2INIT                1st paging DS to small
 USING  PZERO,R0
 009CCC 9680 021A      0021A       77070             +
 009CD0 50F0 021C            0021C 77071             +
 009CD4 58F0 0210            00210 77072             +
 009CD8 89F0 0010            00010 77073             +
 009CDC 88F0 0010            00010 77074             +
 009CE0 41F0 F000            00000 77075             +
 009CE4 AEFF 0006            00006 77076             +
 009CE8 D7C1C7F2C9D5C9E3           77077             +
 DROP   PZERO,R0
1PAGESERV (PAGE00) (09:42) (22MAR04) MP-ORVYL Real Memory / Paging Manager Services                                         Page  426
0Loc    Object Code    Addr1 Addr2  Stmt Lv Lineno    Source Statement           (Hibal 5, Asmedit 3.3)  HLASM R4.0  2004/03/22 09.42
+___    ______ ____    _____ _____  ____ __ ______    ______ _________
0009CF8                            77087    0517.              LTORG ,
 009CF8 D7C1C7C9D5C74040           77089                             =CL8'PAGING'
 009D00 D7C1C7C540404040           77090                             =CL8'PAGE'
 009D08 D7818785408481A3           77091                             =C'Page dataset open failed'
 009D20 E7D7C1C76DD4C9D5           77092                             =CL8'XPAG_MIN'
 009D28 00000000                   77093                             =V(VMGET)
 009D2C C2D4C3C2                   77094                             =CL4'BMCB'
 009D30 00000004                   77095                             =A(#PCOPEN)
 009D34 00000000                   77096                             =V(IOSDOIO)
 009D38 00000000                   77097                             =V(SEGINIT)
 009D3C 00000000                   77098                             =V(SEG)
 009D40 00000000                   77099                             =V(SEGHEX)
 009D44 00000000                   77100                             =V(SEGCLR)
 009D48 40969540                   77101                             =C' on '
 009D4C 00000000                   77102                             =V(VMFREE)
 009D50 C5A7A38599958193           77103                             =C'External page frame shortage'
 009D6C 3F00                       77104                             =Y(63*256+0)
 009D6E 002C                       77105                             =Y(L'@DSDSN)
 009D70 D7818785408481A3           77106                             =C'Page dataset initialization failed'
 009D92 40                         77107                             =C' '
 009D93 FF             09D9A 0A6E0 77108                             =X'FF'
1PAGESERV (PAGE00) (09:42) (22MAR04) Open swap datasets                                                                     Page  427
0Loc    Object Code    Addr1 Addr2  Stmt Lv Lineno    Source Statement           (Hibal 5, Asmedit 3.3)  HLASM R4.0  2004/03/22 09.42
+___    ______ ____    _____ _____  ____ __ ______    ______ _________
0009D9A                            77113    0519.     SWPOPEN  PROC  @OPENDS,#PAGINI2
 009D9A E2E6D7D6D7C5D540           77120             +
 009DA2 0010/0078                  77121             +
 009DA6 900F D004/18AF       00004 77123             +
 USING  SWPOPEN,R10
 009DAC 50D0 C000/18CD       00000 77138             +
 009DB2 9680 C000      00000       77140             +
 USING  @OPENDS-72,R12
 AUSING (#PAGINI2,@OPENDS+16)
 009DB6 41D0 C0D0            000D0 77159             +
 009DBA 5860 0200            00200 77160    0520.              PAGAD RPAG
 USING  PZERO,R0
 DROP   PZERO,R0
 USING  MAT,R6
 009DBE 5860 600C            0000C 77194             +
 DROP   MAT,R6
 USING  PAGCB,R6
 009DC2 5890 C048            00000 77216    0521.              L     RN,@OPNPARM
 USING  PAGIPARM,R9                77217    0522.              WITH  (PAGIPARM,RN)
 AUSING (PARMIN,PAGITYPE)          77230    0523.              WITH  (PARMIN,PAGITYPE)
 009DC6                            77237    0524.              CLEAR PARMIN
 009DC6 D703 9000 9000 00000 00000 77243             +
 009DCC 5880 C04C            00004 77244    0525.              L     RM,@OPNDAL
 USING  PGDDAL,R8                  77245    0526.              WITH  (PGDDAL,RM)             Addr to PGDDAL
 AUSING (#PIOOPEN,DALPDAT)         77258    0527.              WITH  (#PIOOPEN,DALPDAT)
 AUSING (#PIRESET,DALPRSET)        77265    0528.              WITH  (#PIRESET,DALPRSET)
 AUSING (#SWPOPEN,DALSDAT)         77272    0529.              WITH  (#SWPOPEN,DALSDAT)
 AUSING (#SWPRSET,DALSRSET)        77279    0530.              WITH  (#SWPRSET,DALSRSET)
 AUSING (@DSALLO,DALAINFO)         77286    0531.              WITH  (@DSALLO,DALAINFO)
 AUSING (#PFINFO,DALOINFO)         77293    0532.              WITH  (#PFINFO,DALOINFO)
                                   77300    0533.
                                   77301    0534.
                                   77302    0535.       External frame init - swapping
                                   77303    0536.

0USING  @LOCKCRE-72,R13            77304    0537.              LKCRE PAGXSWP,TYPE=SPIN       External swapping lock
 009DD0 D710 D048 D048 00000 00000 77322             +
 009DD6 D20F D048 A86A 00000 0A610 77328             +
 009DDC 9680 D058      00010       77334             +
 009DE0 58F0 A8AA/0DEF       0A650 77337             +
 009DE6 5000 61D8            001D8 77339    0538.              ST    RVR,PAGXSL              |
                                   77340    0539.
 009DEA 1B22                       77341    0540.              CLEAR RA                      No blocks yet
 009DEC 1B33                       77345    0541.              CLEAR RB                      First DS block
                                   77349    0542.
                                   77350    0543.          Set up to get swap data set names
                                   77351    0544.
                                   77352    0545.              REGCH (RVR,R0),(RS,R1),(RAR,R14),(EPAR,R15)
 009DEE D207 9004 A87A 00004 0A620 77353    0546.              MVC   PAGIKEYS,=CL8'PAGING'   Keywords
 009DF4 D207 900C A882 0000C 0A628 77354    0547.              MVC   PAGIKEYS+8(8),=CL8'SWAP'
                                   77355    0548.
 009DFA                            77356    0549.              CLEAR #PAGI2CNT,#PAGI2DSL     Count datasets
 009DFA D703 C060 C060 00008 00008 77362             +
 009E00 D703 C05C C05C 00004 00004 77367             +
 009E06                            77368    0550.     OPENSWP  LOOP  BEGIN                   Open all swapping datasets
1PAGESERV (PAGE00) (09:42) (22MAR04) Open swap datasets                                                                     Page  428
0Current Usings:  (PAGCB,R6) (PGDDAL,R8) (PAGIPARM,R9) (SWPOPEN,R10) (@OPENDS-72,R12) (@LOCKCRE-72,R13)
0Loc    Object Code    Addr1 Addr2  Stmt Lv Lineno    Source Statement           (Hibal 5, Asmedit 3.3)  HLASM R4.0  2004/03/22 09.42
+___    ______ ____    _____ _____  ____ __ ______    ______ _________
0009E06 5870 C05C            00004 77375  1 0551.                L     RY,#PAGI2DSL
 009E0A 9200 9000      00000       77376  1 0552.                GETPARM2 PAGIOUT,,2,TYPE=STRING,REGS=(RJ,RAR)
 009E0E 4140 901C            0001C 77389  1          +
 009E12 4150 002C            0002C 77396  1          +
 009E16 41E0 9000            00000 77403  1          +
 009E1A 41F0 0014            00014 77410  1          +
 009E1E 834E0016                   77413  1          +
 009E22 4780 A084            09E2A 77414  1 0553.                IF    ~ZERO,BEGIN             No parameter found
 009E26 47F0 A754            0A4FA 77425  2 0554.                  EXIT  OPENSWP
 009E2A                            77428  1 0555.                END   ,                       OF No parameter found
                                   77432  1 0556.
                                   77433  1 0557.            Allocate data set descriptor block
                                   77434  1 0558.
 009E2A 1837                       77435  1 0559.                LR    RB,RY
 DROP   @LOCKCRE-72,R13            77436  1 0560.                VMGET L'DSDES,LOC=GLOBHI,FIX=YES,ONEPAGE=YES
 USING  @VMGET-72,R13
 009E2C D70A D048 D048 00000 00000 77463  1          +
 009E32 4100 0038            00038 77475  1          +
 009E36 5000 D048            00000 77480  1          +
 009E3A D201 D050 A8F2 00008 0A698 77481  1          +
 009E40 9640 D052      0000A       77487  1          +
 009E44 58F0 A8AE/0DEF       0A654 77490  1          +
 009E4A 1870                       77492  1 0561.                LR    RY,RVR
 009E4C 1233/4770 A0B4       09E5A 77493  1 0562.                IF    (RB,ZERO),BEGIN         First dataset
 009E52 5070 61D4            001D4 77507  2 0563.                  ST    RY,PAGXSDS              External paging DSs
 009E56 5070 61DC            001DC 77508  2 0564.                  ST    RY,PAGXSCUR             | current in round robin
 009E5A                            77509  1 0565.                END   ,
 009E5A A0B8           09E5A 09E50 77513  1 0566.                ELSE  BEGIN                   Not first dataset
 009E5A 47F0 A0BC            09E62 77518  1          +
 USING  DSDES,R3                   77524  2 0567.                  WITH  (DSDES,RB)
 009E5E 5070 301C            0001C 77537  2 0568.                  ST    RY,DSCHAIN
 DROP   DSDES,R3                   77538  1 0569.                END   ,                       OF Not first dataset
 USING  DSDES,R7                   77547  1 0570.                WITH  (DSDES,RY)
 009E62                            77560  1 0571.                CLEAR DSDES
 009E62 D737 7000 7000 00000 00000 77566  1          +
 009E68 D203 7000 A8B2 00000 0A658 77567  1 0572.                MVC   DSAID,=CL4'BMCB'        Set ID
                                   77568  1 0573.
                                   77569  1 0574.            Clear fields
                                   77570  1 0575.
 009E6E                            77571  1 0576.                CLEAR #SWPOPEN                Clear channel prog
 009E6E D70B 8000 8000 00000 00000 77577  1          +
 009E74                            77578  1 0577.                CLEAR #PFINFO                 | and info area
 009E74 D71F 806C 806C 00000 00000 77584  1          +
 009E7A                            77585  1 0578.                CLEAR @DSALLO                 Clear DS info
 009E7A D75F 800C 800C 00000 00000 77591  1          +
 009E80 4100 8010            00004 77592  1 0579.                LA    RVR,@DSDSN              Get DSN
 009E84 4110 002C            0002C 77593  1 0580.                LA    RS,L'@DSDSN             | blank area 1st
 009E88 1FFF/BFF8 A918       0A6BE 77594  1 0581.                LCM   EPAR,8,=C' '            | |
 009E8E 0E0E                       77599  1 0582.                MVCL  RVR,RAR                 |
 009E90 4950 A8F4            0A69A 77600  1 0583.                CEIL  RK,=Y(L'@DSDSN)         | move in name (len)
 009E94 47D0 A0F6            09E9C 77603  1          +
 009E98 4850 A8F4            0A69A 77604  1          +
 009E9C 0650/4450 A934       0A6DA 77605  1 0584.                DEX   RK,'MVC @DSDSN(0),@RJ'
 00A6D9 00                                2          +
1PAGESERV (PAGE00) (09:42) (22MAR04) Open swap datasets                                                                     Page  429
0Current Usings:  (PAGCB,R6) (DSDES,R7) (PGDDAL,R8) (PAGIPARM,R9) (SWPOPEN,R10) (@OPENDS-72,R12) (@VMGET-72,R13)
0Loc    Object Code    Addr1 Addr2  Stmt Lv Lineno    Source Statement           (Hibal 5, Asmedit 3.3)  HLASM R4.0  2004/03/22 09.42
+___    ______ ____    _____ _____  ____ __ ______    ______ _________
000A6DA D200 8010 4000 00004 00000 77616  1          +
                                   77624  1 0585.     *
 009EA2 D203 8000 A8B6 00000 0A65C 77625  1 0586.                MVC   #SWPOCMD,=A(#SWCOPEN)
 009EA8 B130 800C            00000 77626  1 0587.                LRA   RB,@DSALLO              Allocation parms
 009EAC 5030 8004            00004 77627  1 0588.                ST    RB,#SWPALLO             |
 009EB0 B130 806C            00000 77628  1 0589.                LRA   RB,#PFINFO              Open info - return
 009EB4 5030 8008            00008 77629  1 0590.                ST    RB,#SWPINFO             |
                                   77630  1 0591.
                                   77631  1 0592.            Get a channel ID
                                   77632  1 0593.
 009EB8 4130 0008            00008 77633  1 0594.                LA    RB,#IOUSWAP             Device type
 009EBC 83300007                   77634  1 0595.                SYSCTL (RB),TYPE=ALLOC
 009EC0 1233/4770 A150       09EF6 77637  1 0596.                IF    (RB,ZERO),'ABORT NOSWPCHID'
 009EC6 AC04 021B      0021B       77664  2          +
 USING  PZERO,R0
 009ECA 9680 021A      0021A       77670  2          +
 009ECE 50F0 021C            0021C 77671  2          +
 009ED2 58F0 0210            00210 77672  2          +
 009ED6 89F0 0010            00010 77673  2          +
 009EDA 88F0 0010            00010 77674  2          +
 009EDE 41F0 F000            00000 77675  2          +
 009EE2 AEFF 0006            00006 77676  2          +
 009EE6 D5D6E2E6D7C3C8C9           77677  1          +
 DROP   PZERO,R0
 009EF6 5030 7014            00014 77690  1 0597.                ST    RB,DSCHID               Save channel ID
                                   77691  1 0598.
                                   77692  1 0599.            Do the I/O
                                   77693  1 0600.
 USING  PZERO,R0                   77694  1 0601.                USING PZERO,R0
 DROP   @VMGET-72,R13              77703  1 0602.                PSET  @IOSDOIO
 USING  @IOSDOIO-72,R13
 009EFA D71D D048 D048 00000 00000 77723  1          +
 009F00 5030 D048            00000 77724  1 0603.                PMOV  @IOSCHID,(RB)           Channel ID
 009F04                            77734  1 0604.                PMOV  @IOSID,@OPNID           I/O ID
 009F04 D203 D04C C050 00004 00008 77738  1          +
 009F0A                            77739  1 0605.                PMOV  @IOSPID,PZCURPID        This process ID
 009F0A D207 D050 0208 00008 00208 77743  1          +
 009F10 4100 8000            00000 77744  1 0606.                PMOV  @IOSCP,LA:#SWPOPEN      Channel program
 009F14 5000 D058            00010 77760  1          +
                                   77761  1 0607.                REGCH (RA,R2)                 | hardware uses R2
 009F18 B20B 0000                  77762  1 0608.                IPK   ,                       |
 009F1C 4220 D064            0001C 77763  1 0609.                STC   RA,@IOSKEY              |
 009F20 9680 D065      0001D       77764  1 0610.                SET   @IOSFSYNC               Do it as synchronous I/O
 009F24 58F0 A8BA/0DEF       0A660 77770  1 0611.                VCALL IOSDOIO                 | Do DASD allocation
 DROP   PZERO,R0                   77774  1 0612.                DROP  R0                      |
                                   77782  1 0613.
 009F2A 1200/4780 A35E       0A104 77783  1 0614.                IF    (RVR,NZ),BEGIN
 AUSING (SEGCBD,#PAGI2SEG)         77797  2 0615.                  WITH  (SEGCBD,#PAGI2SEG)
                                   77804  2 0616.                  SEGDEF LA:SEGCBD
 DROP   @IOSDOIO-72,R13            77805  2 0617.                  SEGINIT #PAGI2WTO
 USING  @SEGINIT-72,R13
 009F30 D70D D048 D048 00000 00000 77826  2          +
 009F36 4100 C08C            00034 77839  2          +
 009F3A 5000 D050            00008 77844  2          +
1PAGESERV (PAGE00) (09:42) (22MAR04) Open swap datasets                                                                     Page  430
0Current Usings:  (PAGCB,R6) (DSDES,R7) (PGDDAL,R8) (PAGIPARM,R9) (SWPOPEN,R10) (@OPENDS-72,R12) (@SEGINIT-72,R13)
0Loc    Object Code    Addr1 Addr2  Stmt Lv Lineno    Source Statement           (Hibal 5, Asmedit 3.3)  HLASM R4.0  2004/03/22 09.42
+___    ______ ____    _____ _____  ____ __ ______    ______ _________
0009F3E 4100 0040            00040 77856  2          +
 009F42 4000 D054/1B00       0000C 77861  2          +
 009F48 5000 D04C            00004 77875  2          +
 009F4C 4100 C064            00000 77889  2          +
 009F50 5000 D048            00000 77894  2          +
 009F54 58F0 A8BE/0DEF       0A664 77897  2          +
 009F5A 5840 0200            00200 77899  2 0618.                  L     RJ,MATPTR
 USING  MAT,R4                     77900  2 0619.                  WITH  (MAT,RJ),'SEGB MATSNAME'
 DROP   @SEGINIT-72,R13
 USING  @SEG-72,R13
 009F5E D70C D048 D048 00000 00000 77937  3          +
 009F64 4100 40D4            000D4 77950  3          +
 009F68 5000 D04C            00004 77955  3          +
 009F6C 4100 0008            00008 77967  3          +
 009F70 5000 D050            00008 77972  3          +
 009F74 4100 C064            00000 77986  3          +
 009F78 5000 D048            00000 77991  3          +
 009F7C 9680 D054      0000C       77997  3          +
 009F80 58F0 A8C2/0DEF       0A668 78000  2          +
 DROP   MAT,R4
 009F86                            78010  2 0620.                  SEGB  'Swap dataset open failed'
 009F86 D70C D048 D048 00000 00000 78022  2          +
 009F8C 4100 A88A            0A630 78031  2          +
 009F90 5000 D04C            00004 78036  2          +
 009F94 4100 0018            00018 78048  2          +
 009F98 5000 D050            00008 78053  2          +
 009F9C 4100 C064            00000 78067  2          +
 009FA0 5000 D048            00000 78072  2          +
 009FA4 9680 D054      0000C       78078  2          +
 009FA8 58F0 A8C2/0DEF       0A668 78081  2          +
 009FAE                            78083  2 0621.                  SEGHEX @DSRTN
 009FAE D70C D048 D048 00000 00000 78094  2          +
 009FB4 4100 8052            00046 78107  2          +
 009FB8 5000 D04C            00004 78112  2          +
 009FBC 4100 0002            00002 78124  2          +
 009FC0 5000 D050            00008 78129  2          +
 009FC4 4100 C064            00000 78143  2          +
 009FC8 5000 D048            00000 78148  2          +
 009FCC 58F0 A8C6/0DEF       0A66C 78151  2          +
 009FD2                            78153  2 0622.                  SEGHEX @DSERR
 009FD2 D70C D048 D048 00000 00000 78164  2          +
 009FD8 4100 8054            00048 78177  2          +
 009FDC 5000 D04C            00004 78182  2          +
 009FE0 4100 0002            00002 78194  2          +
 009FE4 5000 D050            00008 78199  2          +
 009FE8 4100 C064            00000 78213  2          +
 009FEC 5000 D048            00000 78218  2          +
 009FF0 58F0 A8C6/0DEF       0A66C 78221  2          +
 009FF6                            78223  2 0623.                  SEGHEX @DSRSN
 009FF6 D70C D048 D048 00000 00000 78234  2          +
 009FFC 4100 8056            0004A 78247  2          +
 00A000 5000 D04C            00004 78252  2          +
 00A004 4100 0002            00002 78264  2          +
 00A008 5000 D050            00008 78269  2          +
1PAGESERV (PAGE00) (09:42) (22MAR04) Open swap datasets                                                                     Page  431
0Current Usings:  (PAGCB,R6) (DSDES,R7) (PGDDAL,R8) (PAGIPARM,R9) (SWPOPEN,R10) (@OPENDS-72,R12) (@SEG-72,R13)
0Loc    Object Code    Addr1 Addr2  Stmt Lv Lineno    Source Statement           (Hibal 5, Asmedit 3.3)  HLASM R4.0  2004/03/22 09.42
+___    ______ ____    _____ _____  ____ __ ______    ______ _________
000A00C 4100 C064            00000 78283  2          +
 00A010 5000 D048            00000 78288  2          +
 00A014 58F0 A8C6/0DEF       0A66C 78291  2          +
 00A01A 58E0 C064            00000 78293  2 0624.                  ORVWTO L:SEGADD,LH:SEGCNT,DELETE=NO    Write descriptive msg
 00A01E 48F0 C06E            0000A 78301  2          +
 00A022 4100 0006            00006 78302  2          +
 00A026 83E00013                   78305  2          +
 00A02A                            78306  2 0625.                  SEGCLR ,
 00A02A D70C D048 D048 00000 00000 78317  2          +
 00A030 4100 C064            00000 78331  2          +
 00A034 5000 D048            00000 78336  2          +
 00A038 58F0 A8CA/0DEF       0A670 78339  2          +
 USING  MAT,R4                     78341  2 0626.                  WITH  (MAT,RJ),'SEGB MATSNAME'
 00A03E D70C D048 D048 00000 00000 78368  3          +
 00A044 4100 40D4            000D4 78381  3          +
 00A048 5000 D04C            00004 78386  3          +
 00A04C 4100 0008            00008 78398  3          +
 00A050 5000 D050            00008 78403  3          +
 00A054 4100 C064            00000 78417  3          +
 00A058 5000 D048            00000 78422  3          +
 00A05C 9680 D054      0000C       78428  3          +
 00A060 58F0 A8C2/0DEF       0A668 78431  2          +
 DROP   MAT,R4
 00A066                            78441  2 0627.                  SEG   @DSDSN
 00A066 D70C D048 D048 00000 00000 78452  2          +
 00A06C 4100 8010            00004 78465  2          +
 00A070 5000 D04C            00004 78470  2          +
 00A074 4100 002C            0002C 78482  2          +
 00A078 5000 D050            00008 78487  2          +
 00A07C 4100 C064            00000 78501  2          +
 00A080 5000 D048            00000 78506  2          +
 00A084 58F0 A8C2/0DEF       0A668 78509  2          +
 00A08A                            78511  2 0628.                  SEG   ' on '
 00A08A D70C D048 D048 00000 00000 78522  2          +
 00A090 4100 A8CE            0A674 78531  2          +
 00A094 5000 D04C            00004 78536  2          +
 00A098 4100 0004            00004 78548  2          +
 00A09C 5000 D050            00008 78553  2          +
 00A0A0 4100 C064            00000 78567  2          +
 00A0A4 5000 D048            00000 78572  2          +
 00A0A8 58F0 A8C2/0DEF       0A668 78575  2          +
 00A0AE                            78577  2 0629.                  SEG   @DSVOL
 00A0AE D70C D048 D048 00000 00000 78588  2          +
 00A0B4 4100 804C            00040 78601  2          +
 00A0B8 5000 D04C            00004 78606  2          +
 00A0BC 4100 0006            00006 78618  2          +
 00A0C0 5000 D050            00008 78623  2          +
 00A0C4 4100 C064            00000 78637  2          +
 00A0C8 5000 D048            00000 78642  2          +
 00A0CC 58F0 A8C2/0DEF       0A668 78645  2          +
 00A0D2 58E0 C064            00000 78647  2 0630.                  ORVWTO L:SEGADD,LH:SEGCNT,DELETE=NO    Write DSN
 00A0D6 48F0 C06E            0000A 78655  2          +
 00A0DA 4100 0006            00006 78656  2          +
 00A0DE 83E00013                   78659  2          +
1PAGESERV (PAGE00) (09:42) (22MAR04) Open swap datasets                                                                     Page  432
0Current Usings:  (PAGCB,R6) (DSDES,R7) (PGDDAL,R8) (PAGIPARM,R9) (SWPOPEN,R10) (@OPENDS-72,R12) (@VMFREE-72,R13)
0Loc    Object Code    Addr1 Addr2  Stmt Lv Lineno    Source Statement           (Hibal 5, Asmedit 3.3)  HLASM R4.0  2004/03/22 09.42
+___    ______ ____    _____ _____  ____ __ ______    ______ _________
0DROP   @SEG-72,R13                78660  2 0631.                  VMFREE L'DSDES,A=LA:DSDES,LOC=GLOBHI,FIX=YES
 USING  @VMFREE-72,R13
 00A0E2 D709 D048 D048 00000 00000 78687  2          +
 00A0E8 4100 0038            00038 78699  2          +
 00A0EC 5000 D04C            00004 78704  2          +
 00A0F0 5070 D048            00000 78715  2          +
 00A0F4 D201 D050 A8F2 00008 0A698 78716  2          +
 00A0FA 58F0 A8D2/0DEF       0A678 78719  2          +
 00A100 47F0 A060            09E06 78721  2 0632.                  NEXT  OPENSWP
 00A104                            78724  1 0633.                END   ,
                                   78728  1 0634.     *  Swap DSs must be one extent
 00A104 9140 807E      00012       78729  1 0635.                IF    (NOT,#PFOCNTG),BEGIN
 00A108 4710 A4CA            0A270 78741  1          +
 AUSING (SEGCBD,#PAGI2SEG)         78746  2 0636.                  WITH  (SEGCBD,#PAGI2SEG)
                                   78753  2 0637.                  SEGDEF LA:SEGCBD
 DROP   @VMFREE-72,R13             78754  2 0638.                  SEGINIT #PAGI2WTO
 USING  @SEGINIT-72,R13
 00A10C D70D D048 D048 00000 00000 78775  2          +
 00A112 4100 C08C            00034 78788  2          +
 00A116 5000 D050            00008 78793  2          +
 00A11A 4100 0040            00040 78805  2          +
 00A11E 4000 D054/1B00       0000C 78810  2          +
 00A124 5000 D04C            00004 78824  2          +
 00A128 4100 C064            00000 78838  2          +
 00A12C 5000 D048            00000 78843  2          +
 00A130 58F0 A8BE/0DEF       0A664 78846  2          +
 00A136 5840 0200            00200 78848  2 0639.                  L     RJ,MATPTR
 USING  MAT,R4                     78849  2 0640.                  WITH  (MAT,RJ),'SEGB MATSNAME'
 DROP   @SEGINIT-72,R13
 USING  @SEG-72,R13
 00A13A D70C D048 D048 00000 00000 78886  3          +
 00A140 4100 40D4            000D4 78899  3          +
 00A144 5000 D04C            00004 78904  3          +
 00A148 4100 0008            00008 78916  3          +
 00A14C 5000 D050            00008 78921  3          +
 00A150 4100 C064            00000 78935  3          +
 00A154 5000 D048            00000 78940  3          +
 00A158 9680 D054      0000C       78946  3          +
 00A15C 58F0 A8C2/0DEF       0A668 78949  2          +
 DROP   MAT,R4
 00A162                            78959  2 0641.                  SEG   'Swap dataset format error'
 00A162 D70C D048 D048 00000 00000 78970  2          +
 00A168 4100 A919            0A6BF 78979  2          +
 00A16C 5000 D04C            00004 78984  2          +
 00A170 4100 0019            00019 78996  2          +
 00A174 5000 D050            00008 79001  2          +
 00A178 4100 C064            00000 79015  2          +
 00A17C 5000 D048            00000 79020  2          +
 00A180 58F0 A8C2/0DEF       0A668 79023  2          +
 00A186 58E0 C064            00000 79025  2 0642.                  ORVWTO L:SEGADD,LH:SEGCNT,DELETE=NO    Write descriptive msg
 00A18A 48F0 C06E            0000A 79033  2          +
 00A18E 4100 0006            00006 79034  2          +
 00A192 83E00013                   79037  2          +
 00A196                            79038  2 0643.                  SEGCLR ,
1PAGESERV (PAGE00) (09:42) (22MAR04) Open swap datasets                                                                     Page  433
0Current Usings:  (PAGCB,R6) (DSDES,R7) (PGDDAL,R8) (PAGIPARM,R9) (SWPOPEN,R10) (@OPENDS-72,R12) (@SEG-72,R13)
0Loc    Object Code    Addr1 Addr2  Stmt Lv Lineno    Source Statement           (Hibal 5, Asmedit 3.3)  HLASM R4.0  2004/03/22 09.42
+___    ______ ____    _____ _____  ____ __ ______    ______ _________
000A196 D70C D048 D048 00000 00000 79049  2          +
 00A19C 4100 C064            00000 79063  2          +
 00A1A0 5000 D048            00000 79068  2          +
 00A1A4 58F0 A8CA/0DEF       0A670 79071  2          +
 USING  MAT,R4                     79073  2 0644.                  WITH  (MAT,RJ),'SEGB MATSNAME'
 00A1AA D70C D048 D048 00000 00000 79100  3          +
 00A1B0 4100 40D4            000D4 79113  3          +
 00A1B4 5000 D04C            00004 79118  3          +
 00A1B8 4100 0008            00008 79130  3          +
 00A1BC 5000 D050            00008 79135  3          +
 00A1C0 4100 C064            00000 79149  3          +
 00A1C4 5000 D048            00000 79154  3          +
 00A1C8 9680 D054      0000C       79160  3          +
 00A1CC 58F0 A8C2/0DEF       0A668 79163  2          +
 DROP   MAT,R4
 00A1D2                            79173  2 0645.                  SEG   @DSDSN
 00A1D2 D70C D048 D048 00000 00000 79184  2          +
 00A1D8 4100 8010            00004 79197  2          +
 00A1DC 5000 D04C            00004 79202  2          +
 00A1E0 4100 002C            0002C 79214  2          +
 00A1E4 5000 D050            00008 79219  2          +
 00A1E8 4100 C064            00000 79233  2          +
 00A1EC 5000 D048            00000 79238  2          +
 00A1F0 58F0 A8C2/0DEF       0A668 79241  2          +
 00A1F6                            79243  2 0646.                  SEG   ' on '
 00A1F6 D70C D048 D048 00000 00000 79254  2          +
 00A1FC 4100 A8CE            0A674 79263  2          +
 00A200 5000 D04C            00004 79268  2          +
 00A204 4100 0004            00004 79280  2          +
 00A208 5000 D050            00008 79285  2          +
 00A20C 4100 C064            00000 79299  2          +
 00A210 5000 D048            00000 79304  2          +
 00A214 58F0 A8C2/0DEF       0A668 79307  2          +
 00A21A                            79309  2 0647.                  SEG   @DSVOL
 00A21A D70C D048 D048 00000 00000 79320  2          +
 00A220 4100 804C            00040 79333  2          +
 00A224 5000 D04C            00004 79338  2          +
 00A228 4100 0006            00006 79350  2          +
 00A22C 5000 D050            00008 79355  2          +
 00A230 4100 C064            00000 79369  2          +
 00A234 5000 D048            00000 79374  2          +
 00A238 58F0 A8C2/0DEF       0A668 79377  2          +
 00A23E 58E0 C064            00000 79379  2 0648.                  ORVWTO L:SEGADD,LH:SEGCNT,DELETE=NO    Write DSN
 00A242 48F0 C06E            0000A 79387  2          +
 00A246 4100 0006            00006 79388  2          +
 00A24A 83E00013                   79391  2          +
 DROP   @SEG-72,R13                79392  2 0649.                  VMFREE L'DSDES,A=LA:DSDES,LOC=GLOBHI,FIX=YES
 USING  @VMFREE-72,R13
 00A24E D709 D048 D048 00000 00000 79419  2          +
 00A254 4100 0038            00038 79431  2          +
 00A258 5000 D04C            00004 79436  2          +
 00A25C 5070 D048            00000 79447  2          +
 00A260 D201 D050 A8F2 00008 0A698 79448  2          +
 00A266 58F0 A8D2/0DEF       0A678 79451  2          +
1PAGESERV (PAGE00) (09:42) (22MAR04) Open swap datasets                                                                     Page  434
0Current Usings:  (PAGCB,R6) (DSDES,R7) (PGDDAL,R8) (PAGIPARM,R9) (SWPOPEN,R10) (@OPENDS-72,R12) (@VMFREE-72,R13)
0Loc    Object Code    Addr1 Addr2  Stmt Lv Lineno    Source Statement           (Hibal 5, Asmedit 3.3)  HLASM R4.0  2004/03/22 09.42
+___    ______ ____    _____ _____  ____ __ ______    ______ _________
000A26C 47F0 A060            09E06 79453  2 0650.                  NEXT  OPENSWP
 00A270                            79456  1 0651.                END   ,
 00A270                            79460  1 0652.                PMOV  DSCOUNT,#PFIBKS         Save number of blocks in DS
 00A270 D203 700C 806C 0000C 00000 79464  1          +
                                   79465  1 0653.
                                   79466  1 0654.            Reset swapping device
                                   79467  1 0655.
 00A276                            79468  1 0656.                CLEAR #SWPRSET
 00A276 D703 8000 8000 00000 00000 79474  1          +
 00A27C 4100 0014            00014 79475  1 0657.                PMOV  #SWPRCMD,LA:#SWCRSET
 00A280 5000 8000            00000 79491  1          +
 USING  PZERO,R0                   79492  1 0658.                USING PZERO,R0
 DROP   @VMFREE-72,R13             79501  1 0659.                PSET  @IOSDOIO
 USING  @IOSDOIO-72,R13
 00A284 D71D D048 D048 00000 00000 79521  1          +
 00A28A                            79522  1 0660.                PMOV  @IOSCHID,DSCHID         Channel ID
 00A28A D203 D048 7014 00000 00014 79526  1          +
 00A290                            79527  1 0661.                PMOV  @IOSID,@OPNID           I/O ID
 00A290 D203 D04C C050 00004 00008 79531  1          +
 00A296                            79532  1 0662.                PMOV  @IOSPID,PZCURPID        This process ID
 00A296 D207 D050 0208 00008 00208 79536  1          +
 00A29C 4100 8000            00000 79537  1 0663.                PMOV  @IOSCP,LA:#SWPRSET      Channel program
 00A2A0 5000 D058            00010 79553  1          +
                                   79554  1 0664.                REGCH (RA,R2)                 | hardware uses R2
 00A2A4 B20B 0000                  79555  1 0665.                IPK   ,                       |
 00A2A8 4220 D064            0001C 79556  1 0666.                STC   RA,@IOSKEY              |
 00A2AC 9680 D065      0001D       79557  1 0667.                SET   @IOSFSYNC               Do it as synchronous I/O
 00A2B0 58F0 A8BA/0DEF       0A660 79563  1 0668.                VCALL IOSDOIO                 | Do DASD allocation
 DROP   PZERO,R0                   79567  1 0669.                DROP  R0                      |
 00A2B6 1200/4780 A6EA       0A490 79575  1 0670.                IF    (RVR,NZ),BEGIN
 AUSING (SEGCBD,#PAGI2SEG)         79589  2 0671.                  WITH  (SEGCBD,#PAGI2SEG)
                                   79596  2 0672.                  SEGDEF LA:SEGCBD
 DROP   @IOSDOIO-72,R13            79597  2 0673.                  SEGINIT #PAGI2WTO
 USING  @SEGINIT-72,R13
 00A2BC D70D D048 D048 00000 00000 79618  2          +
 00A2C2 4100 C08C            00034 79631  2          +
 00A2C6 5000 D050            00008 79636  2          +
 00A2CA 4100 0040            00040 79648  2          +
 00A2CE 4000 D054/1B00       0000C 79653  2          +
 00A2D4 5000 D04C            00004 79667  2          +
 00A2D8 4100 C064            00000 79681  2          +
 00A2DC 5000 D048            00000 79686  2          +
 00A2E0 58F0 A8BE/0DEF       0A664 79689  2          +
 00A2E6 5840 0200            00200 79691  2 0674.                  L     RJ,MATPTR
 USING  MAT,R4                     79692  2 0675.                  WITH  (MAT,RJ),'SEGB MATSNAME'
 DROP   @SEGINIT-72,R13
 USING  @SEG-72,R13
 00A2EA D70C D048 D048 00000 00000 79729  3          +
 00A2F0 4100 40D4            000D4 79742  3          +
 00A2F4 5000 D04C            00004 79747  3          +
 00A2F8 4100 0008            00008 79759  3          +
 00A2FC 5000 D050            00008 79764  3          +
 00A300 4100 C064            00000 79778  3          +
 00A304 5000 D048            00000 79783  3          +
1PAGESERV (PAGE00) (09:42) (22MAR04) Open swap datasets                                                                     Page  435
0Current Usings:  (MAT,R4) (PAGCB,R6) (DSDES,R7) (PGDDAL,R8) (PAGIPARM,R9) (SWPOPEN,R10) (@OPENDS-72,R12) (@SEG-72,R13)
0Loc    Object Code    Addr1 Addr2  Stmt Lv Lineno    Source Statement           (Hibal 5, Asmedit 3.3)  HLASM R4.0  2004/03/22 09.42
+___    ______ ____    _____ _____  ____ __ ______    ______ _________
000A308 9680 D054      0000C       79789  3          +
 00A30C 58F0 A8C2/0DEF       0A668 79792  2          +
 DROP   MAT,R4
 00A312                            79802  2 0676.                  SEGB  'Swap dataset initialization failed'
 00A312 D70C D048 D048 00000 00000 79814  2          +
 00A318 4100 A8F6            0A69C 79823  2          +
 00A31C 5000 D04C            00004 79828  2          +
 00A320 4100 0022            00022 79840  2          +
 00A324 5000 D050            00008 79845  2          +
 00A328 4100 C064            00000 79859  2          +
 00A32C 5000 D048            00000 79864  2          +
 00A330 9680 D054      0000C       79870  2          +
 00A334 58F0 A8C2/0DEF       0A668 79873  2          +
 00A33A                            79875  2 0677.                  SEGHEX @DSRTN
 00A33A D70C D048 D048 00000 00000 79886  2          +
 00A340 4100 8052            00046 79899  2          +
 00A344 5000 D04C            00004 79904  2          +
 00A348 4100 0002            00002 79916  2          +
 00A34C 5000 D050            00008 79921  2          +
 00A350 4100 C064            00000 79935  2          +
 00A354 5000 D048            00000 79940  2          +
 00A358 58F0 A8C6/0DEF       0A66C 79943  2          +
 00A35E                            79945  2 0678.                  SEGHEX @DSERR
 00A35E D70C D048 D048 00000 00000 79956  2          +
 00A364 4100 8054            00048 79969  2          +
 00A368 5000 D04C            00004 79974  2          +
 00A36C 4100 0002            00002 79986  2          +
 00A370 5000 D050            00008 79991  2          +
 00A374 4100 C064            00000 80005  2          +
 00A378 5000 D048            00000 80010  2          +
 00A37C 58F0 A8C6/0DEF       0A66C 80013  2          +
 00A382                            80015  2 0679.                  SEGHEX @DSRSN
 00A382 D70C D048 D048 00000 00000 80026  2          +
 00A388 4100 8056            0004A 80039  2          +
 00A38C 5000 D04C            00004 80044  2          +
 00A390 4100 0002            00002 80056  2          +
 00A394 5000 D050            00008 80061  2          +
 00A398 4100 C064            00000 80075  2          +
 00A39C 5000 D048            00000 80080  2          +
 00A3A0 58F0 A8C6/0DEF       0A66C 80083  2          +
 00A3A6 58E0 C064            00000 80085  2 0680.                  ORVWTO L:SEGADD,LH:SEGCNT,DELETE=NO    Write descriptive msg
 00A3AA 48F0 C06E            0000A 80093  2          +
 00A3AE 4100 0006            00006 80094  2          +
 00A3B2 83E00013                   80097  2          +
 00A3B6                            80098  2 0681.                  SEGCLR ,
 00A3B6 D70C D048 D048 00000 00000 80109  2          +
 00A3BC 4100 C064            00000 80123  2          +
 00A3C0 5000 D048            00000 80128  2          +
 00A3C4 58F0 A8CA/0DEF       0A670 80131  2          +
 USING  MAT,R4                     80133  2 0682.                  WITH  (MAT,RJ),'SEGB MATSNAME'
 00A3CA D70C D048 D048 00000 00000 80160  3          +
 00A3D0 4100 40D4            000D4 80173  3          +
 00A3D4 5000 D04C            00004 80178  3          +
 00A3D8 4100 0008            00008 80190  3          +
1PAGESERV (PAGE00) (09:42) (22MAR04) Open swap datasets                                                                     Page  436
0Current Usings:  (MAT,R4) (PAGCB,R6) (DSDES,R7) (PGDDAL,R8) (PAGIPARM,R9) (SWPOPEN,R10) (@OPENDS-72,R12) (@SEG-72,R13)
0Loc    Object Code    Addr1 Addr2  Stmt Lv Lineno    Source Statement           (Hibal 5, Asmedit 3.3)  HLASM R4.0  2004/03/22 09.42
+___    ______ ____    _____ _____  ____ __ ______    ______ _________
000A3DC 5000 D050            00008 80195  3          +
 00A3E0 4100 C064            00000 80209  3          +
 00A3E4 5000 D048            00000 80214  3          +
 00A3E8 9680 D054      0000C       80220  3          +
 00A3EC 58F0 A8C2/0DEF       0A668 80223  2          +
 DROP   MAT,R4
 00A3F2                            80233  2 0683.                  SEG   @DSDSN
 00A3F2 D70C D048 D048 00000 00000 80244  2          +
 00A3F8 4100 8010            00004 80257  2          +
 00A3FC 5000 D04C            00004 80262  2          +
 00A400 4100 002C            0002C 80274  2          +
 00A404 5000 D050            00008 80279  2          +
 00A408 4100 C064            00000 80293  2          +
 00A40C 5000 D048            00000 80298  2          +
 00A410 58F0 A8C2/0DEF       0A668 80301  2          +
 00A416                            80303  2 0684.                  SEG   ' on '
 00A416 D70C D048 D048 00000 00000 80314  2          +
 00A41C 4100 A8CE            0A674 80323  2          +
 00A420 5000 D04C            00004 80328  2          +
 00A424 4100 0004            00004 80340  2          +
 00A428 5000 D050            00008 80345  2          +
 00A42C 4100 C064            00000 80359  2          +
 00A430 5000 D048            00000 80364  2          +
 00A434 58F0 A8C2/0DEF       0A668 80367  2          +
 00A43A                            80369  2 0685.                  SEG   @DSVOL
 00A43A D70C D048 D048 00000 00000 80380  2          +
 00A440 4100 804C            00040 80393  2          +
 00A444 5000 D04C            00004 80398  2          +
 00A448 4100 0006            00006 80410  2          +
 00A44C 5000 D050            00008 80415  2          +
 00A450 4100 C064            00000 80429  2          +
 00A454 5000 D048            00000 80434  2          +
 00A458 58F0 A8C2/0DEF       0A668 80437  2          +
 00A45E 58E0 C064            00000 80439  2 0686.                  ORVWTO L:SEGADD,LH:SEGCNT,DELETE=NO    Write DSN
 00A462 48F0 C06E            0000A 80447  2          +
 00A466 4100 0006            00006 80448  2          +
 00A46A 83E00013                   80451  2          +
 DROP   @SEG-72,R13                80452  2 0687.                  VMFREE L'DSDES,A=LA:DSDES,LOC=GLOBHI,FIX=YES
 USING  @VMFREE-72,R13
 00A46E D709 D048 D048 00000 00000 80479  2          +
 00A474 4100 0038            00038 80491  2          +
 00A478 5000 D04C            00004 80496  2          +
 00A47C 5070 D048            00000 80507  2          +
 00A480 D201 D050 A8F2 00008 0A698 80508  2          +
 00A486 58F0 A8D2/0DEF       0A678 80511  2          +
 00A48C 47F0 A060            09E06 80513  2 0688.                  NEXT  OPENSWP
 00A490                            80516  1 0689.                END   ,
                                   80520  1 0690.
                                   80521  1 0691.            Allocate bitmap and initialize it
                                   80522  1 0692.
 00A490 5830 700C            0000C 80523  1 0693.                L     RB,DSCOUNT
                                   80524  1 0694.                REGCH (RAR,R14),(EPAR,R15)
 00A494 18F3                       80525  1 0695.                LR    EPAR,RB                 How many clusters?
 00A496 1BEE                       80526  1 0696.                CLEAR RAR                     |
1PAGESERV (PAGE00) (09:42) (22MAR04) Open swap datasets                                                                     Page  437
0Current Usings:  (PAGCB,R6) (DSDES,R7) (PGDDAL,R8) (PAGIPARM,R9) (SWPOPEN,R10) (@OPENDS-72,R12) (@VMFREE-72,R13)
0Loc    Object Code    Addr1 Addr2  Stmt Lv Lineno    Source Statement           (Hibal 5, Asmedit 3.3)  HLASM R4.0  2004/03/22 09.42
+___    ______ ____    _____ _____  ____ __ ______    ______ _________
000A498 4800 6180            00180 80530  1 0697.                LH    RVR,PAGSWXN             |
 00A49C 1DE0                       80531  1 0698.                DR    RAR,RVR                 |
 00A49E 50F0 700C            0000C 80532  1 0699.                ST    EPAR,DSCOUNT            | these clusters
 00A4A2 50F0 7010            00010 80533  1 0700.                ST    EPAR,DSAVAIL            | all available
 00A4A6 58E0 61E4            001E4 80534  1 0701.                L     RAR,PAGXSRCNT           Total number of clusters avail
 00A4AA 1EEF                       80535  1 0702.                ALR   RAR,EPAR                |
 00A4AC 50E0 61E4            001E4 80536  1 0703.                ST    RAR,PAGXSRCNT           |
 00A4B0 50E0 6244            00244 80537  1 0704.                ST    RAR,PAGMXSW             and save the total there
 00A4B4 4130 F007            00007 80538  1 0705.                LA    RB,@EPAR+7              Bytes required for map
 00A4B8 8830 0003            00003 80539  1 0706.                SRL   RB,3                    |
 DROP   @VMFREE-72,R13             80540  1 0707.                VMGET (RB),LOC=GLOBHI,FIX=YES
 USING  @VMGET-72,R13
 00A4BC D70A D048 D048 00000 00000 80567  1          +
 00A4C2 5030 D048            00000 80577  1          +
 00A4C6 D201 D050 A8F2 00008 0A698 80578  1          +
 00A4CC 58F0 A8AE/0DEF       0A654 80581  1          +
 00A4D2 5000 7004            00004 80583  1 0708.                ST    RVR,DSLOC               Bitmap location
 00A4D6 5030 7008            00008 80584  1 0709.                ST    RB,DSLEN                | and len
                                   80585  1 0710.                REGCH (RAR,R14),(EPAR,R15)
 00A4DA 18E0                       80586  1 0711.                LR    RAR,RVR                 Init bit map - location
 00A4DC 18F3                       80587  1 0712.                LR    EPAR,RB                 | and len
 00A4DE 1F33/BF38 A932       0A6D8 80588  1 0713.                LCM   RB,8,=X'FF'             | fill w/ ones
 00A4E4 0EE2                       80593  1 0714.                MVCL  RAR,RA                  |
                                   80594  1 0715.
 00A4E6 4110 0001            00001 80595  1 0716.                INCR  RS,#PAGI2CNT            One more dataset
 00A4EA 5E10 C060            00008 80599  1          +
 00A4EE 5010 C060            00008 80600  1          +
 00A4F2 5070 C05C            00004 80601  1 0717.                PMOV  #PAGI2DSL,LA:DSDES      Set most recent DS descriptor
 00A4F6 47F0 A060            09E06 80612    0718.              END   ,                       OF Open all swapping datasets
 DROP   DSDES,R7
 USING  DSDES,R7                   80622    0719.              WITH  (DSDES,RY),BEGIN        Complete circular chain
 00A4FA 1277/4780 A760       0A506 80636  1 0720.                IF    (RY,NZ),BEGIN
 00A500 D203 701C 61D4 0001C 001D4 80650  2 0721.                  MVC   DSCHAIN,PAGXSDS
 00A506                            80651  1 0722.                END   ,
 DROP   DSDES,R7                   80655    0723.              END   ,                       OF Complete circular chain
                                   80663    0724.
                                   80664    0725.          Check to see that we have enough swap room
                                   80665    0726.
 00A506 5820 61E4            001E4 80666    0727.              L     RA,PAGXSRCNT            Number of swap blocks
 00A50A 4C20 6180            00180 80667    0728.              MH    RA,PAGSWXN              |
 00A50E 9204 9000      00000       80668    0729.              GETPARM2 KEY=(PAGING,XSWP_MIN),REGS=(RVR,RAR)
 00A512 D207 9004 A87A 00004 0A620 80675             +
 00A518 D207 900C A8A2 0000C 0A648 80676             +
 00A51E 41E0 9000            00000 80683             +
 00A522 41F0 0014            00014 80690             +
 00A526 830E0016                   80693             +
 00A52A 4130 03E8            003E8 80694    0730.              LA    RB,1000
 00A52E 4770 A78E/1830       0A534 80695    0731.              IF    ZERO,'LR RB,RVR'
 00A534 1923/47B0 A84E       0A5F4 80712    0732.              IF    (RA,LT,RB),BEGIN
 AUSING (SEGCBD,#PAGI2SEG)         80727  1 0733.                WITH  (SEGCBD,#PAGI2SEG)
                                   80734  1 0734.                SEGDEF LA:SEGCBD
 DROP   @VMGET-72,R13              80735  1 0735.                SEGINIT #PAGI2WTO
 USING  @SEGINIT-72,R13
 00A53A D70D D048 D048 00000 00000 80756  1          +
1PAGESERV (PAGE00) (09:42) (22MAR04) Open swap datasets                                                                     Page  438
0Current Usings:  (PAGCB,R6) (PGDDAL,R8) (PAGIPARM,R9) (SWPOPEN,R10) (@OPENDS-72,R12) (@SEGINIT-72,R13)
0Loc    Object Code    Addr1 Addr2  Stmt Lv Lineno    Source Statement           (Hibal 5, Asmedit 3.3)  HLASM R4.0  2004/03/22 09.42
+___    ______ ____    _____ _____  ____ __ ______    ______ _________
000A540 4100 C08C            00034 80769  1          +
 00A544 5000 D050            00008 80774  1          +
 00A548 4100 0040            00040 80786  1          +
 00A54C 4000 D054/1B00       0000C 80791  1          +
 00A552 5000 D04C            00004 80805  1          +
 00A556 4100 C064            00000 80819  1          +
 00A55A 5000 D048            00000 80824  1          +
 00A55E 58F0 A8BE/0DEF       0A664 80827  1          +
 00A564 5840 0200            00200 80829  1 0736.                L     RJ,MATPTR
 USING  MAT,R4                     80830  1 0737.                WITH  (MAT,RJ),'SEGB MATSNAME'
 DROP   @SEGINIT-72,R13
 USING  @SEG-72,R13
 00A568 D70C D048 D048 00000 00000 80867  2          +
 00A56E 4100 40D4            000D4 80880  2          +
 00A572 5000 D04C            00004 80885  2          +
 00A576 4100 0008            00008 80897  2          +
 00A57A 5000 D050            00008 80902  2          +
 00A57E 4100 C064            00000 80916  2          +
 00A582 5000 D048            00000 80921  2          +
 00A586 9680 D054      0000C       80927  2          +
 00A58A 58F0 A8C2/0DEF       0A668 80930  1          +
 DROP   MAT,R4
 00A590                            80940  1 0738.                SEG   'External swap frame shortage'
 00A590 D70C D048 D048 00000 00000 80951  1          +
 00A596 4100 A8D6            0A67C 80960  1          +
 00A59A 5000 D04C            00004 80965  1          +
 00A59E 4100 001C            0001C 80977  1          +
 00A5A2 5000 D050            00008 80982  1          +
 00A5A6 4100 C064            00000 80996  1          +
 00A5AA 5000 D048            00000 81001  1          +
 00A5AE 58F0 A8C2/0DEF       0A668 81004  1          +
 00A5B4 58E0 C064            00000 81006  1 0739.                ORVWTO L:SEGADD,LH:SEGCNT,DELETE=NO    Write descriptive msg
 00A5B8 48F0 C06E            0000A 81014  1          +
 00A5BC 4100 0006            00006 81015  1          +
 00A5C0 83E00013                   81018  1          +
 00A5C4 AC04 021B      0021B       81019  1 0740.                ABORT PAGNOXSWAP
 USING  PZERO,R0
 00A5C8 9680 021A      0021A       81037  1          +
 00A5CC 50F0 021C            0021C 81038  1          +
 00A5D0 58F0 0210            00210 81039  1          +
 00A5D4 89F0 0010            00010 81040  1          +
 00A5D8 88F0 0010            00010 81041  1          +
 00A5DC 41F0 F000            00000 81042  1          +
 00A5E0 AEFF 0006            00006 81043  1          +
 00A5E4 D7C1C7D5D6E7E2E6           81044  1          +
 DROP   PZERO,R0
 00A5F4                            81053    0741.              END   ,
                                   81057    0742.
 00A5F4 5810 C060            00008 81058    0743.              L     RS,#PAGI2CNT            Count of datasets
 00A5F8 4010 61E0            001E0 81059    0744.              STH   RS,PAGXSN               |
 00A5FC 981F C008            00008 81060    0745.              PEND  ,
 DROP   PGDDAL,R8
 DROP   PAGIPARM,R9
 DROP   PAGCB,R6
1PAGESERV (PAGE00) (09:42) (22MAR04) Open swap datasets                                                                     Page  439
0Current Usings:  (@SEG-72,R13)
0Loc    Object Code    Addr1 Addr2  Stmt Lv Lineno    Source Statement           (Hibal 5, Asmedit 3.3)  HLASM R4.0  2004/03/22 09.42
+___    ______ ____    _____ _____  ____ __ ______    ______ _________
0DROP   @OPENDS-72,R12
 DROP   SWPOPEN,R10
 00A600 9680 C000/0B0E 00000       81090             +
 DROP   @SEG-72,R13
1PAGESERV (PAGE00) (09:42) (22MAR04) MP-ORVYL Real Memory / Paging Manager Services                                         Page  440
0Loc    Object Code    Addr1 Addr2  Stmt Lv Lineno    Source Statement           (Hibal 5, Asmedit 3.3)  HLASM R4.0  2004/03/22 09.42
+___    ______ ____    _____ _____  ____ __ ______    ______ _________
0                                  81100    0747.
                                   81101    0748.          Some initialization defaults
                                   81102    0749.
0                                  81104    0751.     PAGMXHST EQU   X'00010000'             Must be greater than this to
                                   81105    0752.     *                                      stay in core - (LSB of 1st
                                   81106    0753.     *                                      byte)
                                   81107    0754.     CPAGLASP EQU   X'03'                   Do LASP if different, use
                                   81108    0755.     *                                      LASP area AX, do secondary
                                   81109    0756.     CPAGIOKEY EQU  X'F0'                   Default key for swap IO
                                   81110    0757.     CPAGCEL  EQU   256                     Number of paging cells
                                   81111    0758.     CSWPCEL  EQU   25                      Number of swapping cells
                                   81112    0759.     CSWPAVG  EQU   80                      Average size of swap cell
                                   81113    0760.     PFRESLIM EQU   40                      Limit the amount of core
                                   81114    0761.     *                                      we reserve per address space
                                   81115    0762.     *                                      in core
1PAGESERV (PAGE00) (09:42) (22MAR04) MP-ORVYL Real Memory / Paging Manager Services                                         Page  441
0Loc    Object Code    Addr1 Addr2  Stmt Lv Lineno    Source Statement           (Hibal 5, Asmedit 3.3)  HLASM R4.0  2004/03/22 09.42
+___    ______ ____    _____ _____  ____ __ ______    ______ _________
000A606 0000/00000000              81117    0764.              XTRCDATA ,
 00A610                            81120    0765.              END   .
 00A610 D7C1C7E7E2E6D740           81123                             =CL16'PAGXSWP'
 00A620 D7C1C7C9D5C74040           81124                             =CL8'PAGING'
 00A628 E2E6C1D740404040           81125                             =CL8'SWAP'
 00A630 E2A68197408481A3           81126                             =C'Swap dataset open failed'
 00A648 E7E2E6D76DD4C9D5           81127                             =CL8'XSWP_MIN'
 00A650 00000000                   81128                             =V(LKCRE)
 00A654 00000000                   81129                             =V(VMGET)
 00A658 C2D4C3C2                   81130                             =CL4'BMCB'
 00A65C 00000004                   81131                             =A(#SWCOPEN)
 00A660 00000000                   81132                             =V(IOSDOIO)
 00A664 00000000                   81133                             =V(SEGINIT)
 00A668 00000000                   81134                             =V(SEG)
 00A66C 00000000                   81135                             =V(SEGHEX)
 00A670 00000000                   81136                             =V(SEGCLR)
 00A674 40969540                   81137                             =C' on '
 00A678 00000000                   81138                             =V(VMFREE)
 00A67C C5A7A38599958193           81139                             =C'External swap frame shortage'
 00A698 3F00                       81140                             =Y(63*256+0)
 00A69A 002C                       81141                             =Y(L'@DSDSN)
 00A69C E2A68197408481A3           81142                             =C'Swap dataset initialization failed'
 00A6BE 40                         81143                             =C' '
 00A6BF E2A68197408481A3           81144                             =C'Swap dataset format error'
 00A6D8 FF             0A6E0 0A6E0 81145                             =X'FF'

1PAGESERV (PAGE00) (09:42) (22MAR04) Ordinary Symbol and Literal Cross Reference                                            Page  442
-Symbol   Length   Value     Id    R Type   Defn References                                  HLASM R4.0  2004/03/22 09.42
0$$$@R0        1 00000000 FFFFFFFE     J     714  1010   5967
 $$$@R1        1 00000000 FFFFFFFD     J     727  1022
 $$$@R10       1 00000000 FFFFFFF4     J     844  1142
 $$$@R11       1 00000000 FFFFFFF3     J     857  1154
 $$$@R12       1 00000000 FFFFFFF2     J     870  1166
 $$$@R13       1 00000000 FFFFFFF1     J     883  1178
 $$$@R14       1 00000000 FFFFFFF0     J     896  1190   6027
 $$$@R15       1 00000000 FFFFFFEF     J     909  1202   6039
 $$$@R2        1 00000000 FFFFFFFC     J     740  1034   5979
 $$$@R3        1 00000000 FFFFFFFB     J     753  1046   5991
 $$$@R4        1 00000000 FFFFFFFA     J     766  1058   6003
 $$$@R5        1 00000000 FFFFFFF9     J     779  1070   1246   6015
 $$$@R6        1 00000000 FFFFFFF8     J     792  1082   1234
 $$$@R7        1 00000000 FFFFFFF7     J     805  1094   1222
 $$$@R8        1 00000000 FFFFFFF6     J     818  1106
 $$$@R9        1 00000000 FFFFFFF5     J     831  1118   1130
 $$$C1PAGESERV
               1 00000E76 00000001     J   13718 13720  13761  16431
 $$$C10PAGESERV
               1 00007452 00000001     J   61344 61346  61376  61410  63159  63513  63736  63922  64337  64586  65871
 $$$C11PAGESERV
               1 00008053 00000001     J   66361 66363  66399
 $$$C12PAGESERV
               1 00008828 00000001     J   69271 69273  69301
 $$$C13PAGESERV
               1 000092BD 00000001     J   72331 72333  72990  73013
 $$$C14PAGESERV
               1 00009546 00000001     J   73600 73602  73622  74090
 $$$C15PAGESERV
               1 00009D9A 00000001     J   77109 77111  77622
 $$$C16PAGESERV
               1 0000A6E0 00000001     J   81146 81148
 $$$C2PAGESERV
               1 0000168C 00000001     J   17299 17301  17331  18332  19479  20636  21536  22156
 $$$C3PAGESERV
               1 000024A6 00000001     J   23893 23895  23935  26363  27667  27686  30127
 $$$C4PAGESERV
               1 00003323 00000001     J   30759 30761  30789  31573  32035  32459  32914
 $$$C5PAGESERV
               1 00003C5C 00000001     J   35197 35199  37658  38050  39636  39719
 $$$C6PAGESERV
               1 0000482C 00000001     J   41014 41016  41050  42178  43678  45613  47027
 $$$C7PAGESERV
               1 000055C2 00000001     J   47774 47776  48023  51201  51220
 $$$C8PAGESERV
               1 00005F91 00000001     J   52450 52452  52505
 $$$C9PAGESERV
               1 00006646 00000001     J   55559 55561  56595  57303  57848  58068  58216  58290  58605  58673  58776
                                                 59551  60685
 $$$D14PAGESERV
               1 00009D94 00000001     J   73601 74079
 $$$D15PAGESERV
               1 0000A6D9 00000001     J   77110 77611
 $$$D9PAGESERV
               1 0000743A 00000001     J   55560 57837  58057  58205  58279  58594  58662
1PAGESERV (PAGE00) (09:42) (22MAR04) Ordinary Symbol and Literal Cross Reference                                            Page  443
 $$$R$PAGE
               1 00000000 FFFFFF6B     J   39608 39635  39635
 $$$R#ASNGET
               1 00000000 FFFFFF5E     J   58761 58775  58775
 $$$R#ASNINIT
               1 00000000 FFFFFF56     J   63906 63921  63921
 $$$R#CELLALL
               1 00000000 FFFFFF5C     J   60669 60684  60684
 $$$R#FRAMEGET
               1 00000000 FFFFFF61     J   52471 52504  52504
 $$$R#FRAMTERM
               1 00000000 FFFFFF63     J   51186 51200  51200
 $$$R#ISEND
               1 00000000 FFFFFF75     J   27644 27666  27666
 $$$R#ISWAP
               1 00000000 FFFFFF77     J   23909 23934  23934
 $$$R#LCLLOCK
               1 00000000 FFFFFF85     J    6611  6624   6624
 $$$R#OSEND
               1 00000000 FFFFFF78     J   22132 22155  22155
 $$$R#OSWAP
               1 00000000 FFFFFF7D     J   17316 17330  17330
 $$$R#PAGASC
               1 00000000 FFFFFF64     J   48008 48022  48022
 $$$R#PAGDEF
               1 00000000 FFFFFF69     J   41035 41049  41049
 $$$R#PAGE
               1 00000000 FFFFFF84     J    6630  6644   6644
 $$$R#PAGESWAP
               1 00000000 FFFFFF7C     J   18317 18331  18331
 $$$R#PAGFLT
               1 00000000 FFFFFF81     J    6709  6850   6850
 $$$R#PAGHASH
               1 00000000 FFFFFF65     J   47012 47026  47026
 $$$R#PAGINIT
               1 00000000 FFFFFF51     J   69284 69300  69300
 $$$R#PAGINI2
               1 00000000 FFFFFF4F     J   72995 73012  73012
 $$$R#PAGINTV
               1 00000000 FFFFFF54     J   64567 64585  64585
 $$$R#PAGPWC
               1 00000000 FFFFFF7E     J   16417 16430  16430
 $$$R#PAGSEGD
               1 00000000 FFFFFF67     J   43654 43677  43677
 $$$R#PAGSMF
               1 00000000 FFFFFF53     J   65857 65870  65870
 $$$R#PAGTERM
               1 00000000 FFFFFF7F     J   13737 13760  13760
 $$$R#PAGUDEF
               1 00000000 FFFFFF68     J   42163 42177  42177
 $$$R#PAGUREF
               1 00000000 FFFFFF66     J   45598 45612  45612
 $$$R#PAGWAIT
               1 00000000 FFFFFF5A     J   61380 61409  61409
 $$$R#PAGWSMA
               1 00000000 FFFFFF6E     J   32883 32913  32913
 $$$R#PFINFO
               1 00000000 FFFFFFC9     J    3360  3472   3472
 $$$R#PFINIT
1PAGESERV (PAGE00) (09:42) (22MAR04) Ordinary Symbol and Literal Cross Reference                                            Page  444
               1 00000000 FFFFFF52     J   66373 66398  66398
 $$$R#PICLOSE
               1 00000000 FFFFFFA2     J    5491  5504   5504
 $$$R#PIOCOM
               1 00000000 FFFFFFA4     J    5437  5458   5458
 $$$R#PIODO
               1 00000000 FFFFFFA1     J    5513  5528   5528
 $$$R#PIOOPEN
               1 00000000 FFFFFFA3     J    5467  5482   5482
 $$$R#PIRESET
               1 00000000 FFFFFFA0     J    5537  5550   5550
 $$$R#RESOLVE
               1 00000000 FFFFFF80     J   11259 11292  11292
 $$$R#SSWAP
               1 00000000 FFFFFF7B     J   19458 19478  19478
 $$$R#SWAPCOM
               1 00000000 FFFFFF9D     J    5623  5644   5644
 $$$R#SWAPILO
               1 00000000 FFFFFF73     J   30113 30126  30126
 $$$R#SWPCLOS
               1 00000000 FFFFFF9B     J    5677  5690   5690
 $$$R#SWPDO
               1 00000000 FFFFFF9A     J    5699  5715   5715
 $$$R#SWPOPEN
               1 00000000 FFFFFF9C     J    5653  5668   5668
 $$$R#SWPRSET
               1 00000000 FFFFFF99     J    5724  5737   5737
 $$$R#VPROTRA
               1 00000000 FFFFFF6A     J   39641 39718  39718
 $$$R@ACREATE
               1 00000000 FFFFFFE2     J    2623  2636   2636
 $$$R@ADDSWAP
               1 00000000 FFFFFF7A     J   20621 20635  20635
 $$$R@ASNFREE
               1 00000000 FFFFFF5D     J   59537 59550  59550
 $$$R@ASNGET
               1 00000000 FFFFFF91     J    6103  6140   6140
 $$$R@AWAIT
               1 00000000 FFFFFFD6     J    2922  2944   2944
 $$$R@BLKDSID
               1 00000000 FFFFFF5F     J   57285 57302  57302
 $$$R@BMALLOC
               1 00000000 FFFFFF93     J    6048  6070   6070
 $$$R@BMFREE
               1 00000000 FFFFFF92     J    6076  6097   6097
 $$$R@CELLFREE
               1 00000000 FFFFFF8C     J    6296  6312   6312
 $$$R@CELLGET
               1 00000000 FFFFFF8D     J    6274  6290   6290
 $$$R@DISPPIOC
               1 00000000 FFFFFFE7     J    2489  2502   2502
 $$$R@DISPSIOC
               1 00000000 FFFFFFE6     J    2508  2521   2521
 $$$R@DISPSWP
               1 00000000 FFFFFFE3     J    2600  2613   2613
 $$$R@DSALLO
               1 00000000 FFFFFFCA     J    3265  3347   3347
 $$$R@DSDALLO
               1 00000000 FFFFFFCB     J    3240  3253   3253
1PAGESERV (PAGE00) (09:42) (22MAR04) Ordinary Symbol and Literal Cross Reference                                            Page  445
 $$$R@DSPSTAT
               1 00000000 FFFFFFD7     J    2894  2910   2910
 $$$R@FRAMGET
               1 00000000 FFFFFF90     J    6146  6219   6219
 $$$R@FRAMREL
               1 00000000 FFFFFF8F     J    6225  6239   6239
 $$$R@FRAMTERM
               1 00000000 FFFFFF62     J   51206 51219  51219
 $$$R@IORB
               1 00000000 FFFFFFCD     J    3173  3192   3192
 $$$R@IOSDOIO
               1 00000000 FFFFFFD2     J    3036  3074   3074
 $$$R@IOSIDFRE
               1 00000000 FFFFFFCE     J    3147  3160   3160
 $$$R@IOSIDGET
               1 00000000 FFFFFFCF     J    3120  3141   3141
 $$$R@IOSTIME
               1 00000000 FFFFFFD0     J    3100  3114   3114
 $$$R@IOTERM
               1 00000000 FFFFFFD1     J    3080  3094   3094
 $$$R@IOUPARM
               1 00000000 FFFFFFCC     J    3204  3227   3227
 $$$R@LADD
               1 00000000 FFFFFFEC     J    1470  1486   1486
 $$$R@LOCKCRE
               1 00000000 FFFFFFD4     J    2988  3010   3010
 $$$R@LOCKS
               1 00000000 FFFFFFD3     J    3016  3029   3029
 $$$R@LREM
               1 00000000 FFFFFFEB     J    1492  1509   1509
 $$$R@MONSET
               1 00000000 FFFFFFD8     J    2871  2884   2884
 $$$R@NVLDASN
               1 00000000 FFFFFF6F     J   32439 32458  32458
 $$$R@OPENDS
               1 00000000 FFFFFF4E     J   73606 73621  73621
 $$$R@PAGASC1
               1 00000000 FFFFFFBA     J    4013  4027   4027
 $$$R@PAGASC2
               1 00000000 FFFFFFB9     J    4033  4047   4047
 $$$R@PAGASTI
               1 00000000 FFFFFF55     J   64323 64336  64336
 $$$R@PAGDEF
               1 00000000 FFFFFFBC     J    3953  3980   3980
 $$$R@PAGE
               1 00000000 FFFFFFB8     J    4053  4069   4069
 $$$R@PAGIN
               1 00000000 FFFFFF87     J    6525  6564   6564
 $$$R@PAGINIT
               1 00000000 FFFFFFB5     J    4115  4129   4129
 $$$R@PAGINTV
               1 00000000 FFFFFFB6     J    4096  4109   4109
 $$$R@PAGOUT
               1 00000000 FFFFFF86     J    6570  6605   6605
 $$$R@PAGPGIN
               1 00000000 FFFFFF57     J   63722 63735  63735
 $$$R@PAGPIOC
               1 00000000 FFFFFF82     J    6676  6692   6692
 $$$R@PAGRV
1PAGESERV (PAGE00) (09:42) (22MAR04) Ordinary Symbol and Literal Cross Reference                                            Page  446
               1 00000000 FFFFFFB7     J    4075  4090   4090
 $$$R@PAGSEGD
               1 00000000 FFFFFFBB     J    3986  4007   4007
 $$$R@PAGSGIN
               1 00000000 FFFFFF58     J   63499 63512  63512
 $$$R@PAGSWADV
               1 00000000 FFFFFFBE     J    3904  3917   3917
 $$$R@PAGSWAP
               1 00000000 FFFFFFBF     J    3850  3898   3898
 $$$R@PAGWAIT
               1 00000000 FFFFFF5B     J   61360 61375  61375
 $$$R@PAGWSMA
               1 00000000 FFFFFFBD     J    3923  3947   3947
 $$$R@PARMDO
               1 00000000 FFFFFFC8     J    3485  3501   3501
 $$$R@PCBINIT
               1 00000000 FFFFFF59     J   63145 63158  63158
 $$$R@PERSET
               1 00000000 FFFFFFD9     J    2848  2861   2861
 $$$R@QFIX
               1 00000000 FFFFFF6D     J   37644 37657  37657
 $$$R@QUFIX
               1 00000000 FFFFFF6C     J   38036 38049  38049
 $$$R@RESOLVE
               1 00000000 FFFFFF89     J    6431  6471   6471
 $$$R@RESPT
               1 00000000 FFFFFF88     J    6477  6519   6519
 $$$R@RESUME
               1 00000000 FFFFFFE4     J    2575  2590   2590
 $$$R@RESWAKE
               1 00000000 FFFFFF8B     J    6318  6342   6342
 $$$R@SEG      1 00000000 FFFFFFC6     J    3572  3627   3627
 $$$R@SEGCOL
               1 00000000 FFFFFFC4     J    3655  3669   3669
 $$$R@SEGCORE
               1 00000000 FFFFFFC3     J    3675  3722   3722
 $$$R@SEGINIT
               1 00000000 FFFFFFC5     J    3633  3649   3649
 $$$R@SEGRTN
               1 00000000 FFFFFFC2     J    3728  3741   3741
 $$$R@SEGSTK
               1 00000000 FFFFFFC1     J    3747  3761   3761
 $$$R@SETSWAP
               1 00000000 FFFFFF83     J    6650  6667   6667
 $$$R@SICBS
               1 00000000 FFFFFF71     J   31559 31572  31572
 $$$R@SIFRAME
               1 00000000 FFFFFF72     J   30775 30788  30788
 $$$R@SIGNAL
               1 00000000 FFFFFFD5     J    2955  2975   2975
 $$$R@SUSPEND
               1 00000000 FFFFFFE5     J    2531  2565   2565
 $$$R@SWAPIN
               1 00000000 FFFFFF76     J   26349 26362  26362
 $$$R@SWAPOUT
               1 00000000 FFFFFF79     J   21522 21535  21535
 $$$R@SWDONE
               1 00000000 FFFFFF74     J   27672 27685  27685
 $$$R@SYSRDEL
1PAGESERV (PAGE00) (09:42) (22MAR04) Ordinary Symbol and Literal Cross Reference                                            Page  447
               1 00000000 FFFFFFDC     J    2776  2789   2789
 $$$R@SYSRDO
               1 00000000 FFFFFFDB     J    2799  2815   2815
 $$$R@SYSRNEW
               1 00000000 FFFFFFDD     J    2754  2767   2767
 $$$R@SYSRTN
               1 00000000 FFFFFFDA     J    2825  2838   2838
 $$$R@TCREATE
               1 00000000 FFFFFFE1     J    2646  2675   2675
 $$$R@TENTRY
               1 00000000 FFFFFFDF     J    2708  2721   2721
 $$$R@TEXIT
               1 00000000 FFFFFFDE     J    2731  2744   2744
 $$$R@TREMOVE
               1 00000000 FFFFFFE0     J    2685  2698   2698
 $$$R@VALDASN
               1 00000000 FFFFFF70     J   32009 32034  32034
 $$$R@VIRTABL
               1 00000000 FFFFFF8A     J    6348  6425   6425
 $$$R@VMFREE
               1 00000000 FFFFFFE9     J    2437  2452   2452
 $$$R@VMGET
               1 00000000 FFFFFFEA     J    2402  2431   2431
 $$$R@VMINFO
               1 00000000 FFFFFFE8     J    2458  2473   2473
 $$$R@XPGET
               1 00000000 FFFFFF8E     J    6245  6268   6268
 $$$R@XPREL
               1 00000000 FFFFFF60     J   56579 56594  56594
 $$$RAFTE      1 00000000 FFFFFFAB     J    5068  5089   5098   5098
 $$$RASB       1 00000000 FFFFFFB2     J    4306  4357   4357
 $$$RASBPCB
               1 00000000 FFFFFFAD     J    4793  4985   4985
 $$$RASTE      1 00000000 FFFFFFAA     J    5105  5151   5160   5160
 $$$RDSDES
               1 00000000 FFFFFF94     J    5928  5956   5956
 $$$RLELEM
               1 00000000 FFFFFFED     J    1449  1464   1464
 $$$RLHEAD
               1 00000000 FFFFFFEE     J    1427  1443   1443
 $$$RMAT       1 00000000 FFFFFFB3     J    4240  4299   4299
 $$$RPAGCB
               1 00000000 FFFFFFAE     J    4471  4782   4782
 $$$RPAGCEL
               1 00000000 FFFFFFAF     J    4439  4465   4465
 $$$RPAGIPARM
               1 00000000 FFFFFF50     J   72974 72989  72989
 $$$RPAGTABLE
               1 00000000 FFFFFFA5     J    5405  5421   5421
 $$$RPARMIN
               1 00000000 FFFFFFC7     J    3507  3565   3565
 $$$RPFTE      1 00000000 FFFFFFAC     J    4992  5052   5061   5061
 $$$RPGDDAL
               1 00000000 FFFFFF95     J    5892  5918   5918
 $$$RPGDPAGE
               1 00000000 FFFFFF9E     J    5579  5607   5607
 $$$RPGDSLIST
               1 00000000 FFFFFF98     J    5752  5772   5781   5781
 $$$RPGDSVLST
1PAGESERV (PAGE00) (09:42) (22MAR04) Ordinary Symbol and Literal Cross Reference                                            Page  448
               1 00000000 FFFFFF97     J    5787  5812   5821   5821
 $$$RPGDSWAP
               1 00000000 FFFFFF96     J    5830  5886   5886
 $$$RPGTE      1 00000000 FFFFFFA7     J    5274  5349   5358   5358
 $$$RPSCPFX
               1 00000000 FFFFFF9F     J    5555  5573   5573
 $$$RPZERO
               1 00000000 FFFFFFB4     J    4136  4227   4227
 $$$RSEGCBD
               1 00000000 FFFFFFC0     J    3768  3835   3835
 $$$RSGTE      1 00000000 FFFFFFA9     J    5167  5204   5213   5213
 $$$RSMFPAGE
               1 00000000 FFFFFFB0     J    4389  4428   4428
 $$$RSMFPFX
               1 00000000 FFFFFFB1     J    4364  4382   4382
 $$$RSPTE      1 00000000 FFFFFFA6     J    5365  5389   5398   5398
 $$$RSSTE      1 00000000 FFFFFFA8     J    5220  5258   5267   5267
 $$$1000F      2 00007E04 00000001     H   65788 65291B 65438B
 $$$1001F      2 00007B86 00000001     H   64857 64844B
 $$$1002F      2 00007CAE 00000001     H   65295 64895B
 $$$1003F      2 00007C9A 00000001     H   65269 64941B
 $$$1004F      2 00007C0E 00000001     H   65053 64997B 65013B
 $$$1007S      2 00007BFA 00000001     H   65032 65040B
 $$$1009S      2 00007C24 00000001     H   65085 65124B
 $$$101E       2 00000536 00000001     H    9335  9329
 $$$101F       2 000005A4 00000001     H    9486  9331B
 $$$1011S      2 00007C80 00000001     H   65216 65234B
 $$$1014F      2 00007E04 00000001     H   65784 65311B
 $$$1015F      2 00007CD8 00000001     H   65348 65335B
 $$$1016F      2 00007D2C 00000001     H   65425 65412B
 $$$1018F      2 00007DF4 00000001     H   65760 65478B
 $$$1019F      2 00007D88 00000001     H   65587 65531B 65547B
 $$$102F       2 00000580 00000001     H    9417  9374B
 $$$1022S      2 00007D74 00000001     H   65566 65574B
 $$$1024S      2 00007D8E 00000001     H   65595 65635B
 $$$1026S      2 00007DDA 00000001     H   65707 65725B
 $$$103S       2 00000590 00000001     H    9448  9465B
 $$$1030F      2 00007ED2 00000001     H   66106 66095B
 $$$1031F      2 00007F36 00000001     H   66177 66167B
 $$$1032F      2 00007F6A 00000001     H   66211 66201B
 $$$1034S      2 000080D4 00000001     H   66584 66664B
 $$$1036S      2 00008138 00000001     H   66789 66832B
 $$$1037F      2 00008144 00000001     H   66825 66814B
 $$$1039F      2 00008192 00000001     H   66948 66852B
 $$$1040S      2 00008152 00000001     H   66861 66935B
 $$$1041F      2 0000818A 00000001     H   66928 66886B
 $$$1043F      2 00008208 00000001     H   67156 67129B
 $$$1045S      2 0000823A 00000001     H   67234 67703B
 $$$1046F      2 0000838A 00000001     H   67696 67259B
 $$$1047F      2 0000829C 00000001     H   67376 67349B
 $$$1049S      2 000082CE 00000001     H   67455 67683B
 $$$1050F      2 00008382 00000001     H   67676 67480B
 $$$1051F      2 00008320 00000001     H   67589 67562B
 $$$1055S      2 00008404 00000001     H   67811 68225B
 $$$1056F      2 000084FA 00000001     H   68217 67849B
 $$$1057S      2 000084A6 00000001     H   68046 68194B
 $$$1058F      2 000084EE 00000001     H   68186 68097B
 $$$106F       2 000005CE 00000001     H    9629  9527B
 $$$1061S      2 0000851A 00000001     H   68255 68592B
1PAGESERV (PAGE00) (09:42) (22MAR04) Ordinary Symbol and Literal Cross Reference                                            Page  449
 $$$1067S      2 00008630 00000001     H   68670 68692B
 $$$1069F      2 000086A2 00000001     H   68878 68715B
 $$$107F       2 000005E2 00000001     H    9665  9640B
 $$$1070F      2 0000867E 00000001     H   68824 68768B 68784B
 $$$1073S      2 0000866A 00000001     H   68803 68811B
 $$$1075S      2 000086C4 00000001     H   68914 68956B
 $$$108F       2 0000060A 00000001     H    9762  9682B
 $$$1080F      2 00008B56 00000001     H   70340 70312B
 $$$1081F      2 00008B56 00000001     H   70336 70327B
 $$$1082F      2 00008B86 00000001     H   70403 70375B
 $$$1083F      2 00008B86 00000001     H   70399 70390B
 $$$1084F      2 00008BB6 00000001     H   70466 70438B
 $$$1085F      2 00008BB6 00000001     H   70462 70453B
 $$$1086F      2 00008BF2 00000001     H   70548 70501B
 $$$1087F      2 00008BE6 00000001     H   70525 70516B
 $$$1088F      2 00008BF2 00000001     H   70544 70535B
 $$$1089F      2 00008C36 00000001     H   70632 70585B
 $$$109F       2 0000060A 00000001     H    9758  9717B
 $$$1090F      2 00008C2A 00000001     H   70609 70600B
 $$$1091F      2 00008C36 00000001     H   70628 70619B
 $$$1092F      2 00008C80 00000001     H   70722 70674B
 $$$1093F      2 00008C74 00000001     H   70699 70689B
 $$$1094F      2 00008C80 00000001     H   70718 70708B
 $$$1095F      2 00008CB2 00000001     H   70793 70764B
 $$$1096F      2 00008CB2 00000001     H   70789 70779B
 $$$1097F      2 00008CE4 00000001     H   70864 70835B
 $$$1098F      2 00008CE4 00000001     H   70860 70850B
 $$$1099F      2 00008D26 00000001     H   70950 70902B
 $$$110F       2 00000618 00000001     H    9791  9776B
 $$$1100F      2 00008D1A 00000001     H   70927 70917B
 $$$1101F      2 00008D26 00000001     H   70946 70936B
 $$$1102F      2 00008D50 00000001     H   70998 70988B
 $$$1103F      2 00008D5C 00000001     H   71017 71007B
 $$$1104F      2 00008D68 00000001     H   71036 71026B
 $$$1105F      2 00008DBA 00000001     H   71130 71081B
 $$$1106F      2 00008DB2 00000001     H   71105 71096B
 $$$1107F      2 00008DBA 00000001     H   71126 71116B
 $$$1108F      2 00008DEA 00000001     H   71182 71172B
 $$$1109F      2 00008DF6 00000001     H   71201 71191B
 $$$1110F      2 00008E02 00000001     H   71220 71210B
 $$$1111F      2 00008E2C 00000001     H   71267 71257B
 $$$1112F      2 00008E38 00000001     H   71286 71276B
 $$$1113F      2 00008E44 00000001     H   71305 71295B
 $$$1114F      2 00008E6E 00000001     H   71352 71342B
 $$$1115F      2 00008E7A 00000001     H   71371 71361B
 $$$1116F      2 00008E86 00000001     H   71390 71380B
 $$$1117F      2 00008EAA 00000001     H   71436 71427B
 $$$1118F      2 00008EC2 00000001     H   71460 71451B
 $$$1119F      2 00008EE6 00000001     H   71506 71497B
 $$$112F       2 00000776 00000001     H   10408 10063B 10234B 10272B 10385B
 $$$1120F      2 00008EFE 00000001     H   71531 71522B
 $$$1121F      2 00008F3E 00000001     H   71617 71570B
 $$$1122F      2 00008F32 00000001     H   71594 71585B
 $$$1123F      2 00008F3E 00000001     H   71613 71604B
 $$$1124F      2 00008F96 00000001     H   71712 71677B
 $$$1125F      2 00008F96 00000001     H   71708 71694B
 $$$1126F      2 00008FCC 00000001     H   71811 71762B
 $$$1127F      2 00008FCC 00000001     H   71807 71781B 71793B
 $$$1129S      2 00009008 00000001     H   71876 72103B
1PAGESERV (PAGE00) (09:42) (22MAR04) Ordinary Symbol and Literal Cross Reference                                            Page  450
 $$$1130F      2 0000903C 00000001     H   71934 71922B
 $$$1131S      2 00009070 00000001     H   72009 72092B
 $$$1132S      2 0000907C 00000001     H   72019 72075B
 $$$1138F      2 000093E6 00000001     H   72932 72470B
 $$$1139F      2 00009302 00000001     H   72493 72484B
 $$$114F       2 0000070A 00000001     H   10215 10093B
 $$$1140F      2 00009328 00000001     H   72561 72552B
 $$$1141F      2 00009344 00000001     H   72639 72630B
 $$$1141T      2 00009340 00000001     H   72633 72620B
 $$$1143F      2 000093E6 00000001     H   72913 72870B
 $$$1146F      2 00009B10 00000001     H   76348 73897B
 $$$1146S      2 0000959C 00000001     H   73848 75192B 76252B 76347B
 $$$1148B      4 000095E0 00000001     I   73970 73982
 $$$1148F      2 000095E8 00000001     H   73979 73970B 73981
 $$$1149E      2 000095EC 00000001     H   73989 73983
 $$$1149F      2 000095F0 00000001     H   74013 73985B
 $$$115F       2 0000070A 00000001     H   10203 10149B
 $$$1150       6 00009D94 00000001     I   74085 74077X
 $$$1151       6 00009D94 00000001     I   74084 74085  74085
 $$$1152F      2 00009688 00000001     H   74157 74114B
 $$$1153F      2 0000989A 00000001     H   75196 74261B
 $$$1154F      2 00009AC4 00000001     H   76256 75321B
 $$$1155F      2 00009B1C 00000001     H   76382 76373B
 $$$1156F      2 00009B4A 00000001     H   76439 76429B
 $$$1157F      2 00009C0A 00000001     H   76784 76450B
 $$$1159F      2 00009C66 00000001     H   76882 76848B
 $$$1162F      2 0000A4FA 00000001     H   80621 77427B
 $$$1162S      2 00009E06 00000001     H   77373 78723B 79455B 80515B 80620B
 $$$1163F      2 00009E2A 00000001     H   77431 77420B
 $$$1164B      4 00009E4E 00000001     I   77502 77515
 $$$1164F      2 00009E5A 00000001     H   77512 77502B 77514
 $$$1165E      2 00009E5E 00000001     H   77522 77516
 $$$1165F      2 00009E62 00000001     H   77546 77518B
 $$$1166       6 0000A6DA 00000001     I   77617 77609X
 $$$1167       6 0000A6DA 00000001     I   77616 77617  77617
 $$$1168F      2 00009EF6 00000001     H   77689 77646B
 $$$1169F      2 0000A104 00000001     H   78727 77792B
 $$$1170F      2 0000A270 00000001     H   79459 78741B
 $$$1171F      2 0000A490 00000001     H   80519 79584B
 $$$1172F      2 0000A506 00000001     H   80654 80645B
 $$$1173F      2 0000A534 00000001     H   80711 80701B
 $$$1174F      2 0000A5F4 00000001     H   81056 80722B
 $$$120F       2 000007F6 00000001     H   10606 10564B
 $$$122F       2 00000916 00000001     H   11166 10883B 10962B
 $$$123F       2 00000876 00000001     H   10887 10870B
 $$$123T       2 0000086E 00000001     H   10873 10860B
 $$$125F       2 000008FE 00000001     H   11105 10934B
 $$$126F       2 00000898 00000001     H   10966 10949B
 $$$127F       2 000008BA 00000001     H   11017 10982B
 $$$129F       2 00000B02 00000001     H   12249 11596B 11668B 11680B 11727B 11795B
 $$$130F       2 000009C0 00000001     H   11550 11430B
 $$$131F       2 000009C0 00000001     H   11541 11462B
 $$$132F       2 00000B02 00000001     H   12225 11563B
 $$$133S       2 000009C8 00000001     H   11572 12216B
 $$$134F       2 000009D4 00000001     H   11600 11583B
 $$$137B       4 00000A02 00000001     I   11696 11748
 $$$137F       2 00000A12 00000001     H   11741 11696B 11747
 $$$139B       4 00000A1A 00000001     I   11764 11816
 $$$139E       2 00000A16 00000001     H   11755 11749
1PAGESERV (PAGE00) (09:42) (22MAR04) Ordinary Symbol and Literal Cross Reference                                            Page  451
 $$$139F       2 00000A2A 00000001     H   11809 11751B 11764B 11815
 $$$142E       2 00000A2E 00000001     H   11823 11817
 $$$142F       2 00000A5E 00000001     H   11862 11819B
 $$$143F       2 00000A92 00000001     H   11996 11891B
 $$$144S       2 00000A7C 00000001     H   11925 11979B
 $$$147F       2 00000AB0 00000001     H   12062 12008B
 $$$148S       2 00000A9A 00000001     H   12017 12053B
 $$$151F       2 00000AD8 00000001     H   12125 12084B
 $$$152S       2 00000AC8 00000001     H   12093 12117B
 $$$154F       2 00000AF0 00000001     H   12193 12136B
 $$$155S       2 00000AE0 00000001     H   12153 12177B
 $$$159F       2 00000C6A 00000001     H   12959 12563B
 $$$160F       2 00000BB0 00000001     H   12567 12516B
 $$$161F       2 00000BE8 00000001     H   12662 12645B
 $$$162F       2 00000BF4 00000001     H   12688 12673B
 $$$163F       2 00000DCA 00000001     H   13657 13192B
 $$$165F       2 00000D28 00000001     H   13304 13289B
 $$$166F       2 00000D34 00000001     H   13330 13315B
 $$$167F       2 0000112A 00000001     H   15216 13907B
 $$$170F       2 00000EE6 00000001     H   14037 14021B
 $$$171F       2 00000F1A 00000001     H   14149 14106B 14118B
 $$$173B       4 00000F38 00000001     I   14238 14345
 $$$173F       2 00000F8C 00000001     H   14339 14238B 14344
 $$$174S       2 00000F46 00000001     H   14257 14276B
 $$$177F       2 00000F88 00000001     H   14334 14291B
 $$$178E       2 00000F90 00000001     H   14352 14346
 $$$178F       2 00000FCE 00000001     H   14457 14348B
 $$$179F       2 00000FAC 00000001     H   14387 14372B
 $$$180B       4 00000FB0 00000001     I   14398 14428
 $$$180F       2 00000FC2 00000001     H   14425 14398B 14427
 $$$181E       2 00000FC6 00000001     H   14435 14429
 $$$181F       2 00000FCC 00000001     H   14449 14431B
 $$$182B       4 00000FD2 00000001     I   14477 14539
 $$$182F       2 00000FEA 00000001     H   14535 14477B 14538
 $$$183E       2 00000FEE 00000001     H   14546 14540
 $$$183F       2 0000100C 00000001     H   14603 14542B 14555B
 $$$185F       2 00001036 00000001     H   14733 14631B
 $$$186F       2 0000104A 00000001     H   14769 14744B
 $$$187F       2 00001064 00000001     H   14827 14784B
 $$$188F       2 000010FE 00000001     H   15080 14851B
 $$$188S       2 0000106E 00000001     H   14845 15079B
 $$$190B       4 0000107C 00000001     I   14876 14999
 $$$190F       2 000010D8 00000001     H   14991 14876B 14998
 $$$191S       2 00001084 00000001     H   14890 14909B
 $$$194F       2 000010C6 00000001     H   14967 14924B
 $$$195E       2 000010DC 00000001     H   15006 15000
 $$$195F       2 000010F8 00000001     H   15066 15002B 15015B
 $$$197F       2 0000112A 00000001     H   15187 15094B
 $$$199F       2 0000122E 00000001     H   15586 15389B
 $$$200F       2 000011C6 00000001     H   15469 15459B
 $$$201F       2 0000120A 00000001     H   15542 15499B
 $$$202F       2 00001228 00000001     H   15570 15560B
 $$$203B       4 0000125E 00000001     I   15656 16102
 $$$203F       2 0000134E 00000001     H   16095 15656B 16101
 $$$204F       2 000012B6 00000001     H   15838 15675B
 $$$206F       2 000012B6 00000001     H   15834 15786B
 $$$207B       4 00001320 00000001     I   15982 16053
 $$$207F       2 00001346 00000001     H   16046 15956B 15970B 15982B 16048
 $$$208B       4 00001310 00000001     I   15956 16049
1PAGESERV (PAGE00) (09:42) (22MAR04) Ordinary Symbol and Literal Cross Reference                                            Page  452
 $$$209B       4 00001318 00000001     I   15970 16051
 $$$210E       2 0000134A 00000001     H   16060 16050  16052  16054
 $$$210F       2 0000134E 00000001     H   16067 16056B
 $$$211E       2 00001352 00000001     H   16109 16103
 $$$211F       2 000013A6 00000001     H   16245 16105B
 $$$212F       2 0000139E 00000001     H   16230 16221B
 $$$213F       2 000013C4 00000001     H   16307 16259B
 $$$215F       2 00001466 00000001     H   16616 16606B
 $$$216F       2 000014AA 00000001     H   16689 16646B
 $$$217F       2 000014C8 00000001     H   16717 16707B
 $$$218F       2 0000157A 00000001     H   16964 16764B
 $$$221F       2 000015D2 00000001     H   17092 17083B
 $$$222F       2 00001602 00000001     H   17188 17125B 17137B
 $$$225F       2 000016F8 00000001     H   17512 17469B
 $$$226F       2 00001722 00000001     H   17597 17581B
 $$$227F       2 0000175A 00000001     H   17651 17608B
 $$$228S       2 00001798 00000001     H   17712 17731B
 $$$231F       2 000017F6 00000001     H   17848 17839B
 $$$232F       2 0000183C 00000001     H   18002 17910B
 $$$233F       2 00001850 00000001     H   18038 18013B
 $$$235F       2 000018C8 00000001     H   18279 18218B 18231B
 $$$238S       2 0000190C 00000001     H   18471 18561B 19163B 19340B 19410B
 $$$240F       2 00001AF0 00000001     H   19387 18609B 18682B 18708B
 $$$240S       2 00001952 00000001     H   18603 19386B
 $$$242F       2 00001978 00000001     H   18691 18628B
 $$$245F       2 000019AC 00000001     H   18786 18765B
 $$$247B       4 000019EC 00000001     I   18928 19178
 $$$247F       2 00001A7E 00000001     H   19171 18928B 19177
 $$$248B       4 000019F4 00000001     I   18943 19054
 $$$248F       2 00001A32 00000001     H   19047 18943B 19053
 $$$249E       2 00001A36 00000001     H   19061 19055
 $$$249F       2 00001A7E 00000001     H   19167 19057B
 $$$250E       2 00001A82 00000001     H   19185 19179
 $$$250F       2 00001AEC 00000001     H   19377 19181B
 $$$251F       2 00001ADC 00000001     H   19344 19332B
 $$$253F       2 00001D42 00000001     H   20538 19726B 20354B
 $$$254F       2 00001B7E 00000001     H   19730 19713B
 $$$255S       2 00001B9C 00000001     H   19835 19901B
 $$$257S       2 00001BDA 00000001     H   19928 20073B
 $$$260F       2 00001CE0 00000001     H   20358 20084B
 $$$261F       2 00001C7C 00000001     H   20158 20121B
 $$$262S       2 00001C82 00000001     H   20166 20341B
 $$$263F       2 00001CA8 00000001     H   20243 20177B
 $$$265F       2 00001F2A 00000001     H   21466 20793B
 $$$267F       2 00001DFA 00000001     H   20910 20854B 20870B
 $$$270S       2 00001DE6 00000001     H   20889 20897B
 $$$272S       2 00001E2A 00000001     H   20979 21426B
 $$$273F       2 00001EB8 00000001     H   21262 21007B
 $$$275F       2 00001E88 00000001     H   21181 21125B 21141B
 $$$278S       2 00001E74 00000001     H   21160 21168B
 $$$280B       4 00001ED8 00000001     I   21307 21348
 $$$280F       2 00001EF6 00000001     H   21345 21307B 21347
 $$$281F       2 00001EF0 00000001     H   21338 21323B
 $$$282E       2 00001EFA 00000001     H   21355 21349
 $$$282F       2 00001F06 00000001     H   21362 21351B
 $$$283F       2 00001F1E 00000001     H   21407 21377B
 $$$286F       2 00002068 00000001     H   22078 21655B 22053B
 $$$286S       2 00001F8E 00000001     H   21647 22077B
 $$$288F       2 00002064 00000001     H   22068 21687B
1PAGESERV (PAGE00) (09:42) (22MAR04) Ordinary Symbol and Literal Cross Reference                                            Page  453
 $$$288S       2 00001F9C 00000001     H   21679 22067B
 $$$290F       2 00001FD0 00000001     H   21764 21743B
 $$$292F       2 0000200C 00000001     H   21874 21777B
 $$$293F       2 00002008 00000001     H   21863 21836B
 $$$297F       2 000020F8 00000001     H   22326 22279B
 $$$298F       2 0000212A 00000001     H   22449 22433B
 $$$299F       2 0000215A 00000001     H   22512 22502B
 $$$300F       2 0000219E 00000001     H   22586 22543B
 $$$301F       2 000021BC 00000001     H   22614 22604B
 $$$302F       2 000021E6 00000001     H   22670 22656B
 $$$303B       4 00002216 00000001     I   22755 22944
 $$$303F       2 0000227C 00000001     H   22941 22755B 22943
 $$$304F       2 0000227C 00000001     H   22937 22882B
 $$$305E       2 00002280 00000001     H   22951 22945
 $$$305F       2 00002334 00000001     H   23217 22947B
 $$$306S       2 00002284 00000001     H   22968 22986B
 $$$309F       2 000022A6 00000001     H   23026 23017B
 $$$310F       2 00002328 00000001     H   23196 23161B 23174B
 $$$312F       2 0000235E 00000001     H   23346 23234B
 $$$313F       2 00002372 00000001     H   23382 23357B
 $$$314F       2 00002390 00000001     H   23468 23427B
 $$$318F       2 00002400 00000001     H   23751 23741B
 $$$319F       2 0000241C 00000001     H   23799 23784B
 $$$321F       2 000024FC 00000001     H   24140 24124B
 $$$322F       2 00002940 00000001     H   26100 25401B
 $$$325B       4 00002530 00000001     I   24245 24504
 $$$325F       2 000025BC 00000001     H   24497 24245B 24503
 $$$326B       4 00002538 00000001     I   24266 24306
 $$$326F       2 00002550 00000001     H   24303 24266B 24305
 $$$327E       2 00002554 00000001     H   24313 24307
 $$$327F       2 000025BC 00000001     H   24493 24309B
 $$$328F       2 00002580 00000001     H   24396 24369B
 $$$330E       2 000025C0 00000001     H   24511 24505
 $$$330F       2 00002940 00000001     H   26096 24507B
 $$$331S       2 000025EE 00000001     H   24568 24794B
 $$$332F       2 0000265A 00000001     H   24787 24609B 24621B
 $$$334F       2 0000265A 00000001     H   24783 24636B
 $$$335F       2 00002632 00000001     H   24722 24695B
 $$$338S       2 00002674 00000001     H   24816 24834B
 $$$341F       2 000026B4 00000001     H   24943 24853B
 $$$342F       2 000026B4 00000001     H   24939 24912B
 $$$344F       2 000027D2 00000001     H   25426 24958B
 $$$345F       2 000027C6 00000001     H   25405 25090B
 $$$346F       2 00002738 00000001     H   25196 25132B
 $$$347F       2 00002768 00000001     H   25267 25230B
 $$$348F       2 000027AE 00000001     H   25369 25276B
 $$$349S       2 000027A2 00000001     H   25342 25360B
 $$$352F       2 000027FE 00000001     H   25513 25476B
 $$$353F       2 00002826 00000001     H   25579 25522B
 $$$354S       2 00002830 00000001     H   25593 25926B
 $$$355B       4 00002834 00000001     I   25632 25648
 $$$355F       2 0000283C 00000001     H   25641 25632B 25647
 $$$356E       2 00002840 00000001     H   25655 25649
 $$$356F       2 000028E8 00000001     H   25919 25651B 25664B
 $$$358F       2 00002880 00000001     H   25774 25718B 25734B
 $$$361S       2 0000286C 00000001     H   25753 25761B
 $$$363F       2 000028B6 00000001     H   25825 25782B
 $$$365B       4 00002920 00000001     I   26013 26074
 $$$365F       2 00002938 00000001     H   26068 26013B 26073
1PAGESERV (PAGE00) (09:42) (22MAR04) Ordinary Symbol and Literal Cross Reference                                            Page  454
 $$$366E       2 0000293C 00000001     H   26081 26075
 $$$366F       2 00002940 00000001     H   26092 26077B
 $$$367F       2 0000296A 00000001     H   26219 26117B
 $$$368F       2 0000297E 00000001     H   26255 26230B
 $$$370S       2 000029FE 00000001     H   26516 26567B
 $$$372F       2 00002A6A 00000001     H   26692 26649B
 $$$375F       2 00002B48 00000001     H   27047 27004B
 $$$376F       2 00002B8C 00000001     H   27223 27213B
 $$$377F       2 00002BD0 00000001     H   27297 27254B
 $$$378F       2 00002BEE 00000001     H   27326 27316B
 $$$379F       2 00002C4A 00000001     H   27476 27466B
 $$$380F       2 00002C82 00000001     H   27587 27505B
 $$$382S       2 00002CB8 00000001     H   27800 27817B
 $$$385F       2 00002CFA 00000001     H   27937 27921B
 $$$386B       4 00002D02 00000001     I   27972 28273
 $$$386F       2 00002DC0 00000001     H   28265 27972B 28272
 $$$387F       2 00002D2A 00000001     H   28060 28029B
 $$$388F       2 00002DB0 00000001     H   28218 28202B
 $$$388S       2 00002D40 00000001     H   28080 28217B
 $$$390E       2 00002DC4 00000001     H   28280 28274
 $$$390F       2 00002DDE 00000001     H   28293 28276B
 $$$391F       2 00002EAE 00000001     H   28600 28407B
 $$$392S       2 00002E52 00000001     H   28417 28574B
 $$$394F       2 00002E84 00000001     H   28525 28480B
 $$$395B       4 00002E88 00000001     I   28537 28553
 $$$395F       2 00002E9E 00000001     H   28550 28537B 28552
 $$$396E       2 00002EA2 00000001     H   28560 28554
 $$$396F       2 00002EAA 00000001     H   28567 28556B
 $$$398F       2 00002F8E 00000001     H   28998 28738B
 $$$399S       2 00002ED8 00000001     H   28747 28972B
 $$$401F       2 00002F64 00000001     H   28925 28810B
 $$$402F       2 00002F08 00000001     H   28853 28826B
 $$$404B       4 00002F68 00000001     I   28936 28952
 $$$404F       2 00002F7E 00000001     H   28949 28936B 28951
 $$$405E       2 00002F82 00000001     H   28959 28953
 $$$405F       2 00002F8A 00000001     H   28966 28955B
 $$$407F       2 000030B0 00000001     H   29422 29045B
 $$$408S       2 00002FAC 00000001     H   29054 29396B
 $$$410F       2 00003086 00000001     H   29349 29117B
 $$$411F       2 00002FE4 00000001     H   29164 29137B
 $$$414F       2 0000307A 00000001     H   29329 29316B
 $$$415B       4 0000308A 00000001     I   29360 29376
 $$$415F       2 000030A0 00000001     H   29373 29360B 29375
 $$$416E       2 000030A4 00000001     H   29383 29377
 $$$416F       2 000030AC 00000001     H   29390 29379B
 $$$418F       2 00003126 00000001     H   29793 29578B
 $$$419S       2 000030E2 00000001     H   29594 29779B
 $$$422F       2 00003166 00000001     H   29960 29858B
 $$$423F       2 0000317A 00000001     H   29996 29971B
 $$$425S       2 0000320C 00000001     H   30256 30273B
 $$$428F       2 0000328C 00000001     H   30561 30346B
 $$$429S       2 00003248 00000001     H   30362 30547B
 $$$432F       2 000032B6 00000001     H   30669 30576B
 $$$434F       2 0000338C 00000001     H   31026 30970B 30986B
 $$$437S       2 00003378 00000001     H   31005 31013B
 $$$439F       2 0000346A 00000001     H   31339 31092B
 $$$439S       2 000033B4 00000001     H   31086 31338B
 $$$441F       2 00003404 00000001     H   31171 31108B
 $$$442F       2 00003400 00000001     H   31166 31123B
1PAGESERV (PAGE00) (09:42) (22MAR04) Ordinary Symbol and Literal Cross Reference                                            Page  455
 $$$443F       2 00003440 00000001     H   31283 31227B 31243B
 $$$446S       2 0000342C 00000001     H   31262 31270B
 $$$448F       2 000034CE 00000001     H   31510 31377B
 $$$448S       2 0000346A 00000001     H   31348 31509B
 $$$449F       2 00003482 00000001     H   31387 31360B
 $$$451F       2 000034A6 00000001     H   31455 31418B
 $$$453F       2 00003528 00000001     H   31758 31721B
 $$$454S       2 00003530 00000001     H   31771 31944B
 $$$460F       2 000036D6 00000001     H   32628 32585B
 $$$461F       2 00003724 00000001     H   32798 32699B 32775B
 $$$465F       2 0000379A 00000001     H   33144 33128B
 $$$466F       2 000037C4 00000001     H   33247 33161B 33173B
 $$$468F       2 00003B48 00000001     H   34855 33265B 33390B 33401B 33419B
 $$$470F       2 000037E4 00000001     H   33298 33289B
 $$$471F       2 000037F0 00000001     H   33317 33308B
 $$$472B       4 000037F6 00000001     I   33328 33361
 $$$472F       2 0000380E 00000001     H   33358 33328B 33360
 $$$473F       2 0000380E 00000001     H   33354 33344B
 $$$474E       2 00003812 00000001     H   33368 33362
 $$$474F       2 0000383A 00000001     H   33435 33364B
 $$$478F       2 00003B48 00000001     H   34851 34710B 34792B 34810B 34839B
 $$$478S       2 0000383A 00000001     H   33444 34850B
 $$$479S       2 0000383E 00000001     H   33454 34767B
 $$$480F       2 00003AF8 00000001     H   34743 33490B
 $$$481S       2 00003850 00000001     H   33499 34730B
 $$$482B       4 00003860 00000001     I   33538 33574
 $$$482F       2 00003886 00000001     H   33570 33538B 33573
 $$$483F       2 00003882 00000001     H   33565 33555B
 $$$484E       2 0000388A 00000001     H   33581 33575
 $$$484F       2 000038B0 00000001     H   33622 33577B 33589B
 $$$486F       2 000038B0 00000001     H   33618 33608B
 $$$487F       2 00003AF0 00000001     H   34723 33642B 33670B 33933B 34163B
 $$$487T       2 000038CE 00000001     H   33673 33660B
 $$$490B       4 00003900 00000001     I   33736 34365
 $$$490F       2 00003A0E 00000001     H   34361 33736B 34364
 $$$490T       2 00003904 00000001     H   33739 33726B
 $$$493F       2 00003974 00000001     H   33965 33806B
 $$$494F       2 00003966 00000001     H   33937 33875B
 $$$495B       4 00003994 00000001     I   34075 34087
 $$$495F       2 0000399E 00000001     H   34084 34075B 34086
 $$$496E       2 000039A2 00000001     H   34094 34088
 $$$496F       2 000039B6 00000001     H   34167 34090B
 $$$497F       2 000039E6 00000001     H   34253 34178B
 $$$498F       2 00003A0E 00000001     H   34357 34265B
 $$$499F       2 00003A08 00000001     H   34346 34300B
 $$$500E       2 00003A12 00000001     H   34372 34366
 $$$500F       2 00003AD8 00000001     H   34678 34368B
 $$$501F       2 00003A98 00000001     H   34560 34390B
 $$$502F       2 00003A98 00000001     H   34556 34452B
 $$$505F       2 00003AC4 00000001     H   34624 34615B
 $$$506F       2 00003AF0 00000001     H   34719 34689B
 $$$514F       2 00003B7A 00000001     H   35026 34924B
 $$$515F       2 00003B8E 00000001     H   35062 35037B
 $$$518F       2 00003CD0 00000001     H   35467 35448B
 $$$519S       2 00003CD0 00000001     H   35472 35592B
 $$$522F       2 00003D36 00000001     H   35715 35613B
 $$$523F       2 00003D4A 00000001     H   35751 35726B
 $$$525F       2 00003DFC 00000001     H   36083 36064B
 $$$526F       2 00003E5A 00000001     H   36292 36111B
1PAGESERV (PAGE00) (09:42) (22MAR04) Ordinary Symbol and Literal Cross Reference                                            Page  456
 $$$526S       2 00003DFE 00000001     H   36093 36288B
 $$$527F       2 00003E0C 00000001     H   36115 36102B
 $$$528F       2 00003E42 00000001     H   36243 36126B
 $$$529F       2 00003E42 00000001     H   36223 36192B
 $$$531F       2 00003E84 00000001     H   36411 36309B
 $$$532F       2 00003E98 00000001     H   36447 36422B
 $$$534F       2 00003F1C 00000001     H   36737 36718B
 $$$535S       2 00003F1C 00000001     H   36742 36861B
 $$$538F       2 00003F8C 00000001     H   36984 36882B
 $$$539F       2 00003FA0 00000001     H   37020 36995B
 $$$541F       2 00004052 00000001     H   37352 37333B
 $$$542F       2 0000408E 00000001     H   37449 37380B
 $$$542S       2 00004054 00000001     H   37362 37445B
 $$$543F       2 00004062 00000001     H   37384 37371B
 $$$544F       2 00004082 00000001     H   37429 37420B
 $$$546F       2 000040B8 00000001     H   37558 37466B
 $$$547F       2 000040CC 00000001     H   37594 37569B
 $$$549F       2 0000418A 00000001     H   37988 37795B
 $$$550F       2 00004162 00000001     H   37922 37895B
 $$$553F       2 000041E6 00000001     H   38227 38218B
 $$$554F       2 00004258 00000001     H   38410 38238B
 $$$555F       2 00004222 00000001     H   38331 38304B
 $$$557F       2 00004232 00000001     H   38353 38343B
 $$$560F       2 00004310 00000001     H   38743 38700B
 $$$562F       2 000043D6 00000001     H   39099 39056B
 $$$57F        2 00000090 00000001     H    7059  7016B
 $$$571F       2 000047A6 00000001     H   40945 39965B 39974B 39981B
 $$$574F       2 0000458E 00000001     H   39985 39947B
 $$$574T       2 00004566 00000001     H   39950 39937B
 $$$576F       2 000045BE 00000001     H   40063 40044B
 $$$578F       2 00004762 00000001     H   40764 40221B
 $$$579F       2 0000474E 00000001     H   40721 40252B 40461B 40492B 40529B
 $$$579S       2 000045EA 00000001     H   40153 40707B
 $$$58F        2 000000BA 00000001     H    7144  7128B
 $$$580F       2 00004604 00000001     H   40225 40190B
 $$$581F       2 00004600 00000001     H   40218 40209B
 $$$582F       2 00004628 00000001     H   40256 40244B
 $$$583F       2 00004658 00000001     H   40309 40267B
 $$$584F       2 00004658 00000001     H   40305 40280B
 $$$585F       2 0000466C 00000001     H   40337 40321B
 $$$586F       2 000046AA 00000001     H   40421 40353B
 $$$587F       2 000046AA 00000001     H   40417 40374B
 $$$588F       2 000046AA 00000001     H   40413 40397B
 $$$589F       2 000046C4 00000001     H   40465 40450B
 $$$589T       2 000046BE 00000001     H   40453 40440B
 $$$59F        2 000000F4 00000001     H    7199  7156B
 $$$591F       2 000046DA 00000001     H   40496 40484B
 $$$592F       2 000046F0 00000001     H   40533 40521B
 $$$593F       2 0000474A 00000001     H   40701 40559B
 $$$594B       4 00004706 00000001     I   40573 40590
 $$$594F       2 00004714 00000001     H   40587 40573B 40589
 $$$595E       2 00004718 00000001     H   40597 40591
 $$$595F       2 0000474A 00000001     H   40697 40593B
 $$$597F       2 0000478C 00000001     H   40883 40781B
 $$$598F       2 000047A0 00000001     H   40919 40894B
 $$$60F        2 00000120 00000001     H    7283  7215B
 $$$602F       2 000048B6 00000001     H   41326 41307B
 $$$603F       2 000048DE 00000001     H   41423 41339B 41351B
 $$$606S       2 00004908 00000001     H   41504 41864B
1PAGESERV (PAGE00) (09:42) (22MAR04) Ordinary Symbol and Literal Cross Reference                                            Page  457
 $$$608F       2 0000493C 00000001     H   41624 41607B
 $$$609F       2 0000492C 00000001     H   41598 41581B
 $$$61F        2 00000120 00000001     H    7279  7233B
 $$$612F       2 0000494E 00000001     H   41667 41652B
 $$$613F       2 0000495A 00000001     H   41693 41678B
 $$$614F       2 000049B4 00000001     H   41858 41716B
 $$$615B       4 00004970 00000001     I   41730 41747
 $$$615F       2 0000497E 00000001     H   41744 41730B 41746
 $$$616E       2 00004982 00000001     H   41754 41748
 $$$616F       2 000049B4 00000001     H   41854 41750B
 $$$618F       2 000049F6 00000001     H   42036 41934B
 $$$619F       2 00004A0A 00000001     H   42072 42047B
 $$$62F        2 000005A4 00000001     H    9510  7391B  7472B  7662B  7809B  8134B  8630B  8966B  9080B
 $$$623F       2 00004AD2 00000001     H   42457 42438B
 $$$625F       2 00004CAE 00000001     H   43408 42571B
 $$$626F       2 00004C9A 00000001     H   43365 42735B 42995B
 $$$626S       2 00004AFE 00000001     H   42548 43351B
 $$$627F       2 00004B0A 00000001     H   42575 42563B
 $$$628F       2 00004B32 00000001     H   42708 42614B 42626B
 $$$63F        2 00000156 00000001     H    7395  7378B
 $$$63T        2 0000014E 00000001     H    7381  7368B
 $$$630F       2 00004C40 00000001     H   43186 42756B
 $$$631F       2 00004B40 00000001     H   42739 42727B
 $$$633F       2 00004C1A 00000001     H   43115 42776B
 $$$634F       2 00004BCA 00000001     H   42972 42813B
 $$$635F       2 00004BAA 00000001     H   42886 42843B
 $$$636F       2 00004BDA 00000001     H   42999 42987B
 $$$637F       2 00004C16 00000001     H   43094 43085B
 $$$638F       2 00004C34 00000001     H   43171 43129B
 $$$639F       2 00004C96 00000001     H   43345 43203B
 $$$640B       4 00004C52 00000001     I   43217 43234
 $$$640F       2 00004C60 00000001     H   43231 43217B 43233
 $$$641E       2 00004C64 00000001     H   43241 43235
 $$$641F       2 00004C96 00000001     H   43341 43237B
 $$$643F       2 00004CD8 00000001     H   43527 43425B
 $$$644F       2 00004CEC 00000001     H   43563 43538B
 $$$646F       2 00004D88 00000001     H   43922 43903B
 $$$647F       2 00004DB0 00000001     H   44003 43935B 43947B
 $$$65B        4 0000015A 00000001     I    7411  8568
 $$$65F        2 000003AA 00000001     H    8559  7411B  8567
 $$$650S       2 00004E0C 00000001     H   44062 45300B
 $$$651F       2 00004E34 00000001     H   44161 44102B 44144B
 $$$653F       2 00004E24 00000001     H   44135 44118B
 $$$656F       2 00005066 00000001     H   45291 44177B
 $$$657F       2 00004E66 00000001     H   44290 44198B
 $$$658F       2 00004E7A 00000001     H   44326 44301B
 $$$659B       4 00004E82 00000001     I   44338 44400
 $$$659F       2 00004EA4 00000001     H   44397 44338B 44399
 $$$66F        2 00000176 00000001     H    7476  7459B
 $$$660E       2 00004EA8 00000001     H   44407 44401
 $$$660F       2 00004EC6 00000001     H   44453 44403B
 $$$661F       2 00004EF2 00000001     H   44527 44508B
 $$$662F       2 00004F12 00000001     H   44583 44540B 44552B
 $$$664B       4 00004F16 00000001     I   44594 44969
 $$$664F       2 00004FC4 00000001     H   44966 44594B 44968
 $$$665F       2 00004F62 00000001     H   44788 44773B
 $$$667E       2 00004FC8 00000001     H   44976 44970
 $$$667F       2 00004FE8 00000001     H   45052 44972B
 $$$669F       2 00005024 00000001     H   45171 45151B
1PAGESERV (PAGE00) (09:42) (22MAR04) Ordinary Symbol and Literal Cross Reference                                            Page  458
 $$$67B        4 0000017A 00000001     I    7491  8378
 $$$67F        2 00000338 00000001     H    8371  7491B  8377
 $$$670F       2 00005066 00000001     H   45269 45222B
 $$$672F       2 000050A2 00000001     H   45433 45331B
 $$$673F       2 000050B6 00000001     H   45469 45444B
 $$$674F       2 000050C8 00000001     H   45499 45484B
 $$$678F       2 0000518C 00000001     H   45892 45873B
 $$$68F        2 000001B6 00000001     H    7638  7623B
 $$$680F       2 0000534A 00000001     H   46764 46006B
 $$$681F       2 00005336 00000001     H   46721 46063B 46323B
 $$$681S       2 000051B8 00000001     H   45983 46707B
 $$$682F       2 000051C4 00000001     H   46010 45998B
 $$$683F       2 000052DC 00000001     H   46542 46084B
 $$$684F       2 000051D2 00000001     H   46067 46055B
 $$$686F       2 000052AC 00000001     H   46443 46104B
 $$$687F       2 0000525C 00000001     H   46300 46141B
 $$$688F       2 0000523C 00000001     H   46214 46171B
 $$$689F       2 0000526C 00000001     H   46327 46315B
 $$$69F        2 000001C6 00000001     H    7666  7649B
 $$$690F       2 000052A8 00000001     H   46422 46413B
 $$$691F       2 000052DC 00000001     H   46538 46470B 46482B
 $$$693F       2 00005332 00000001     H   46701 46559B
 $$$694B       4 000052EE 00000001     I   46573 46590
 $$$694F       2 000052FC 00000001     H   46587 46573B 46589
 $$$695E       2 00005300 00000001     H   46597 46591
 $$$695F       2 00005332 00000001     H   46697 46593B
 $$$697F       2 00005374 00000001     H   46883 46781B
 $$$698F       2 00005388 00000001     H   46919 46894B
 $$$70B        4 000001CC 00000001     I    7684  8022
 $$$70F        2 00000282 00000001     H    7972  7684B  8021
 $$$700F       2 0000541E 00000001     H   47255 47236B
 $$$702F       2 000054AE 00000001     H   47409 47381B
 $$$702S       2 00005482 00000001     H   47321 47395B
 $$$703F       2 00005498 00000001     H   47385 47373B
 $$$703T       2 00005492 00000001     H   47376 47363B
 $$$706F       2 000054D8 00000001     H   47518 47426B
 $$$707F       2 000054EC 00000001     H   47554 47529B
 $$$71F        2 00000200 00000001     H    7776  7757B
 $$$711S       2 00005640 00000001     H   48136 48153B
 $$$714S       2 00005714 00000001     H   48524 48672B
 $$$715F       2 00005740 00000001     H   48607 48580B
 $$$718F       2 000057BC 00000001     H   48841 48809B
 $$$719F       2 000057D6 00000001     H   48885 48863B
 $$$72F        2 00000216 00000001     H    7813  7796B
 $$$721S       2 0000586C 00000001     H   49070 49092B
 $$$724F       2 000059B2 00000001     H   49749 49730B
 $$$725S       2 000059C0 00000001     H   49758 49883B
 $$$726F       2 000059F4 00000001     H   49875 49798B 49810B
 $$$729F       2 00005A2A 00000001     H   50033 49914B
 $$$73F        2 00000258 00000001     H    7920  7829B
 $$$730F       2 00005A3E 00000001     H   50069 50044B
 $$$732F       2 00005AA2 00000001     H   50338 50319B
 $$$733F       2 00005AD4 00000001     H   50471 50362B
 $$$734F       2 00005AE8 00000001     H   50507 50482B
 $$$735F       2 00005B06 00000001     H   50572 50521B
 $$$736S       2 00005B32 00000001     H   50646 50794B
 $$$737F       2 00005B5E 00000001     H   50729 50702B
 $$$74S        2 00000272 00000001     H    7940  7957B
 $$$740S       2 00005C48 00000001     H   51113 51132B
1PAGESERV (PAGE00) (09:42) (22MAR04) Ordinary Symbol and Literal Cross Reference                                            Page  459
 $$$744S       2 00005CA0 00000001     H   51350 51862B
 $$$745F       2 00005DBE 00000001     H   51854 51390B 51402B
 $$$747F       2 00005CE8 00000001     H   51459 51417B
 $$$748S       2 00005D0A 00000001     H   51570 51833B
 $$$749F       2 00005DB2 00000001     H   51825 51584B 51596B
 $$$751F       2 00005D8C 00000001     H   51754 51614B
 $$$752F       2 00005D6C 00000001     H   51690 51648B
 $$$753F       2 00005DA6 00000001     H   51810 51768B
 $$$756S       2 00005DD4 00000001     H   51889 52097B
 $$$757F       2 00005E5C 00000001     H   52089 51929B 51941B
 $$$759F       2 00005E1C 00000001     H   51998 51956B
 $$$761S       2 00005E72 00000001     H   52124 52267B
 $$$762F       2 00005EAE 00000001     H   52259 52164B 52176B
 $$$765F       2 00005F12 00000001     H   52379 52337B
 $$$765T       2 00005EE2 00000001     H   52340 52300B 52313B 52326B
 $$$769F       2 000064CC 00000001     H   54903 53140B
 $$$77E        2 00000286 00000001     H    8029  8023
 $$$77F        2 00000318 00000001     H    8302  8025B
 $$$770F       2 00006118 00000001     H   53246 52673B 53086B
 $$$770S       2 00005FCE 00000001     H   52647 53245B
 $$$772F       2 000060CA 00000001     H   53095 52689B 52707B 52751B
 $$$774F       2 00006006 00000001     H   52739 52729B
 $$$776F       2 00006040 00000001     H   52864 52808B 52824B
 $$$779S       2 0000602C 00000001     H   52843 52851B
 $$$78F        2 000002BE 00000001     H    8149  8067B  8077B
 $$$781S       2 00006052 00000001     H   52894 52933B
 $$$783S       2 000060AA 00000001     H   53023 53041B
 $$$788F       2 00006356 00000001     H   54282 53309B
 $$$789F       2 00006288 00000001     H   53838 53438B
 $$$789S       2 00006168 00000001     H   53353 53835B
 $$$790F       2 00006192 00000001     H   53427 53406B
 $$$793F       2 000061C8 00000001     H   53552 53482B
 $$$794F       2 000061FC 00000001     H   53671 53634B
 $$$795F       2 00006232 00000001     H   53723 53680B
 $$$796F       2 00006282 00000001     H   53805 53795B
 $$$799F       2 0000634A 00000001     H   54260 53873B
 $$$80F        2 000002B6 00000001     H    8138  8121B
 $$$800F       2 0000633E 00000001     H   54221 54016B
 $$$800S       2 000062B2 00000001     H   53932 54220B
 $$$801F       2 000062DC 00000001     H   54006 53985B
 $$$804S       2 000062F2 00000001     H   54086 54202B
 $$$806F       2 00006364 00000001     H   54309 54297B
 $$$807F       2 00006388 00000001     H   54381 54344B
 $$$808F       2 000063B0 00000001     H   54447 54390B
 $$$809F       2 000063E8 00000001     H   54557 54501B 54517B
 $$$81E        2 0000033C 00000001     H    8385  8379
 $$$81F        2 000003AA 00000001     H    8539  8381B
 $$$812S       2 000063D4 00000001     H   54536 54544B
 $$$815S       2 000063F2 00000001     H   54582 54600B
 $$$818S       2 0000644E 00000001     H   54729 54863B
 $$$819F       2 00006486 00000001     H   54797 54755B
 $$$82F        2 00000386 00000001     H    8467  8424B
 $$$820F       2 000064AA 00000001     H   54822 54812B
 $$$821F       2 000064B6 00000001     H   54848 54833B
 $$$824F       2 0000653C 00000001     H   55179 55152B
 $$$826B       4 00006552 00000001     I   55232 55389
 $$$826F       2 000065BE 00000001     H   55386 55232B 55388
 $$$827S       2 0000657E 00000001     H   55298 55316B
 $$$83S        2 00000396 00000001     H    8501  8518B
1PAGESERV (PAGE00) (09:42) (22MAR04) Ordinary Symbol and Literal Cross Reference                                            Page  460
 $$$830F       2 000065BE 00000001     H   55382 55360B
 $$$831E       2 000065C2 00000001     H   55396 55390
 $$$831F       2 000065E6 00000001     H   55457 55392B
 $$$833F       2 0000676C 00000001     H   56110 55913B
 $$$834S       2 0000668A 00000001     H   55718 55923B
 $$$835F       2 000066C6 00000001     H   55789 55746B
 $$$836F       2 0000671C 00000001     H   55917 55852B
 $$$838B       4 0000672E 00000001     I   55971 56057
 $$$838F       2 00006758 00000001     H   56052 55959B 55971B 56054
 $$$839B       4 00006726 00000001     I   55959 56055
 $$$840E       2 0000675C 00000001     H   56064 56056  56058
 $$$840F       2 0000676C 00000001     H   56098 56060B
 $$$842F       2 00006860 00000001     H   56536 56493B
 $$$843S       2 000067BA 00000001     H   56297 56503B
 $$$844F       2 000067F6 00000001     H   56368 56325B
 $$$845F       2 0000684C 00000001     H   56497 56432B
 $$$848F       2 0000690C 00000001     H   56869 56827B
 $$$849F       2 00006936 00000001     H   56905 56883B
 $$$851F       2 000069E4 00000001     H   57211 57169B
 $$$853F       2 00006ABC 00000001     H   57561 57501B
 $$$854S       2 00006A3E 00000001     H   57416 57514B
 $$$855F       2 00006A78 00000001     H   57486 57443B
 $$$858F       2 00006D06 00000001     H   58353 57759B 57780B 57930B
 $$$859F       2 00006B34 00000001     H   57742 57699B
 $$$86E        2 000003AE 00000001     H    8575  8569
 $$$86F        2 000005A4 00000001     H    9506  8571B  8584B
 $$$862F       2 00006D02 00000001     H   58332 57808B
 $$$863F       2 00006C46 00000001     H   58136 57965B
 $$$865F       2 00006B6A 00000001     H   57832 57823B
 $$$866        4 0000743A 00000001     I   57843 57835X
 $$$867        4 0000743A 00000001     I   57842 57843  57843
 $$$868F       2 00006B9C 00000001     H   57910 57876B
 $$$870F       2 00006B94 00000001     H   57904 57892B
 $$$874S       2 00006BBE 00000001     H   57975 58127B
 $$$875F       2 00006BF6 00000001     H   58030 57987B
 $$$876F       2 00006C0C 00000001     H   58052 58043B
 $$$877        4 0000743E 00000001     I   58063 58055X
 $$$878        4 0000743E 00000001     I   58062 58063  58063
 $$$879F       2 00006C3C 00000001     H   58107 58091B
 $$$88F        2 000003CA 00000001     H    8634  8617B
 $$$882S       2 00006C62 00000001     H   58149 58314B
 $$$883F       2 00006C72 00000001     H   58171 58162B
 $$$884F       2 00006C9C 00000001     H   58200 58191B
 $$$885        4 00007442 00000001     I   58211 58203X
 $$$886        4 00007442 00000001     I   58210 58211  58211
 $$$887F       2 00006CE2 00000001     H   58275 58232B
 $$$888        4 00007446 00000001     I   58285 58277X
 $$$889        4 00007446 00000001     I   58284 58285  58285
 $$$89B        4 000003D2 00000001     I    8664  9328
 $$$89F        2 00000532 00000001     H    9321  8664B  9327
 $$$892F       2 00006E38 00000001     H   58731 58504B 58518B
 $$$893F       2 00006D6E 00000001     H   58487 58444B
 $$$896S       2 00006D9E 00000001     H   58535 58697B
 $$$897F       2 00006DAE 00000001     H   58557 58548B
 $$$898F       2 00006DD6 00000001     H   58589 58580B
 $$$899        4 0000744A 00000001     I   58600 58592X
 $$$90B        4 000003E2 00000001     I    8690  8775
 $$$90F        2 00000422 00000001     H    8771  8690B  8747B  8774
 $$$900        4 0000744A 00000001     I   58599 58600  58600
1PAGESERV (PAGE00) (09:42) (22MAR04) Ordinary Symbol and Literal Cross Reference                                            Page  461
 $$$901F       2 00006E18 00000001     H   58658 58616B
 $$$902        4 0000744E 00000001     I   58668 58660X
 $$$903        4 0000744E 00000001     I   58667 58668  58668
 $$$907F       2 00006FA6 00000001     H   59353 59274B
 $$$907S       2 00006E7E 00000001     H   58916 59352B
 $$$908B       4 00006E90 00000001     I   58947 59207
 $$$908F       2 00006F2C 00000001     H   59204 58947B 59206
 $$$909F       2 00006EDC 00000001     H   59080 58962B
 $$$910E       2 00006F30 00000001     H   59214 59208
 $$$910F       2 00006F34 00000001     H   59220 59210B
 $$$912F       2 00006F9C 00000001     H   59345 59303B
 $$$913F       2 00006FF4 00000001     H   59466 59444B
 $$$915F       2 00007090 00000001     H   59754 59711B
 $$$916F       2 000070F2 00000001     H   59879 59836B
 $$$917F       2 0000713A 00000001     H   59944 59922B
 $$$918F       2 000071EE 00000001     H   60355 60258B
 $$$919F       2 000071BA 00000001     H   60262 60228B
 $$$92E        2 00000426 00000001     H    8782  8776
 $$$92F        2 0000042A 00000001     H    8794  8778B
 $$$920S       2 000071CA 00000001     H   60273 60295B
 $$$923F       2 00007270 00000001     H   60604 60561B
 $$$924S       2 00007264 00000001     H   60576 60594B
 $$$928S       2 000072C6 00000001     H   60814 60832B
 $$$931F       2 00007386 00000001     H   61120 60850B
 $$$931S       2 000072D2 00000001     H   60844 61119B
 $$$933S       2 0000730E 00000001     H   60927 61001B
 $$$935S       2 00007376 00000001     H   61092 61110B
 $$$939S       2 000073CC 00000001     H   61273 61291B
 $$$94F        2 00000462 00000001     H    8942  8927B
 $$$943F       2 000074A8 00000001     H   61602 61543B
 $$$944F       2 000074BC 00000001     H   61659 61622B
 $$$945F       2 000074FA 00000001     H   61794 61671B
 $$$946F       2 000074FA 00000001     H   61782 61751B
 $$$946S       2 000074E6 00000001     H   61745 61781B
 $$$948F       2 0000752A 00000001     H   61887 61805B
 $$$949F       2 0000752A 00000001     H   61883 61852B
 $$$949S       2 00007516 00000001     H   61846 61882B
 $$$95F        2 00000472 00000001     H    8970  8953B
 $$$951F       2 00007560 00000001     H   62013 61947B
 $$$952S       2 0000754E 00000001     H   61960 61999B
 $$$954F       2 00007582 00000001     H   62096 62024B
 $$$955S       2 00007570 00000001     H   62045 62074B
 $$$957F       2 00007592 00000001     H   62136 62106B
 $$$958F       2 0000766A 00000001     H   62599 62300B
 $$$96F        2 000004B4 00000001     H    9084  9067B
 $$$960S       2 000075D6 00000001     H   62318 62575B
 $$$961F       2 0000765A 00000001     H   62548 62328B
 $$$962S       2 000075E8 00000001     H   62342 62360B
 $$$965F       2 00007644 00000001     H   62492 62445B
 $$$966F       2 00007656 00000001     H   62543 62503B
 $$$97F        2 000004E0 00000001     H    9161  9100B
 $$$970F       2 000076E2 00000001     H   62785 62724B 62738B
 $$$970S       2 000076C0 00000001     H   62716 62784B
 $$$973F       2 000076DA 00000001     H   62774 62763B
 $$$974F       2 00007750 00000001     H   63102 62795B
 $$$975F       2 00007720 00000001     H   62955 62899B 62915B
 $$$978S       2 0000770C 00000001     H   62934 62942B
 $$$98S        2 00000522 00000001     H    9289  9306B
 $$$980S       2 00007732 00000001     H   62991 63072B
1PAGESERV (PAGE00) (09:42) (22MAR04) Ordinary Symbol and Literal Cross Reference                                            Page  462
 $$$984S       2 0000786A 00000001     H   63658 63669B
 $$$987S       2 000078BC 00000001     H   63845 63856B
 $$$990S       2 00007950 00000001     H   64142 64151B
 $$$993S       2 00007A2E 00000001     H   64440 64520B
 $$$994S       2 00007A3E 00000001     H   64486 64502B
 $$$998F       2 00007AB8 00000001     H   64731 64706B
 $$$999F       2 00007B22 00000001     H   64788 64773B
 $$L1RAFTE
               1 00000004 FFFFFFAB     X    5088  5089
 $$L1RASTE
               1 00000010 FFFFFFAA     X    5150  5151
 $$L1RPFTE
               1 00000020 FFFFFFAC     X    5051  5052
 $$L1RPGDSLIST
               1 00000004 FFFFFF98     X    5771  5772
 $$L1RPGDSVLST
               1 00000008 FFFFFF97     X    5811  5812
 $$L1RPGTE
               1 00000004 FFFFFFA7     X    5348  5349
 $$L1RSGTE
               1 00000004 FFFFFFA9     X    5203  5204
 $$L1RSPTE
               1 00000008 FFFFFFA6     X    5388  5389
 $$L1RSSTE
               1 00000008 FFFFFFA8     X    5257  5258
 $OLL11748
               2 0000231C 00000001     I   23188 23192B
 $OLL32288
               2 000065B2 00000001     I   55374 55378B
 $OLL33256
               2 0000692A 00000001     I   56897 56901B
 $OLL34788
               2 00006FE8 00000001     I   59458 59462B
 $OLL35074
               2 0000712E 00000001     I   59936 59940B
 $PAGCODE      4 00000008 FFFFFF6B     A   39616 38521M 39342M 39454M 39562M 39954  40208  40226
 $PAGE        13 00000000 FFFFFF6B     J   39635 38511U 38519M 38519  39332U 39340M 39340  39444U 39452M 39452  39552U
                                                 39560M 39560  39759U 39766U
 $PAGKEY       1 0000000C FFFFFF6B     X   39617 40290  40344
 $PAGLEN       4 00000004 FFFFFF6B     A   39615 39881
 $PAGLOC       4 00000000 FFFFFF6B     A   39614 38520M 39341M 39453M 39561M 39880
 $VPFETCH      1 00000001 FFFFFF6B A   U   39626 40326  40379
 $VPNOACC      1 00000002 FFFFFF6B A   U   39627 40402
 $VPPROT       1 00000004 FFFFFF6B A   U   39618 41001
 $VPTACC       1 0000000C FFFFFF6B A   U   39620 41008
 $VPTPROT      1 00000010 FFFFFF6B A   U   39621 41009  41011
 $VPUNDEF      1 00000003 FFFFFF6B A   U   39628 39962  40214  40249
 $VPUPROT      1 00000008 FFFFFF6B A   U   39619 41007
 #ADPARM      16 00000000 FFFFFF7B     U   19468 20472  20692U
 #AGLKPSWM
               1 00000001 FFFFFF5E     X   58768 58885M 59118  59158M 59494
 #AGPSWM       1 00000000 FFFFFF5E     X   58767 59235M 59347  59358
 #ASCSLOT      4 00000000 FFFFFF64     A   48014 49024M 49404
 #ASIAFTM      1 FFF00000 FFFFFF56 A   U   63913 66342
 #ASIAFTO      4 00000000 FFFFFF56     A   63912 64213M 64214M 64215  64216M 64217
 #ASIAUTH      1 00080000 FFFFFF56 A   U   63914 66341
 #ASNGET       2 00000000 FFFFFF5E     J   58775 58825U
 #ASNINIT      4 00000000 FFFFFF56     J   63921 63962U
 #CAFIRST      4 00000000 FFFFFF5C     A   60675 60946  60957M 61067
1PAGESERV (PAGE00) (09:42) (22MAR04) Ordinary Symbol and Literal Cross Reference                                            Page  463
 #CALAST       4 00000004 FFFFFF5C     A   60676 60921M 61043
 #CAPSWM       1 00000008 FFFFFF5C     X   60677 61012M 61086
 #CELLALL      9 00000000 FFFFFF5C     J   60684 60725U
 #FGCBS       12 0000000C FFFFFF61     N   52483 53283  53516  53950
 #FGCCNT       4 00000014 FFFFFF61     A   52486 53871
 #FGFLAG       1 0000001D FFFFFF61     R   52491 52495
 #FGLIST      12 00000000 FFFFFF61     N   52478 53273  53745  54330  54349M 54357  54365  54375
 #FGNEED       4 00000018 FFFFFF61     A   52487 53314M 53782  53784M
 #FGPSWM       1 0000001C FFFFFF61     X   52488 52613M 53115  53209M 54651
 #FGPTLB     128 0000001D FFFFFF61        52495 53258M 53492M 54296
 #FRAMEGET
              30 00000000 FFFFFF61     J   52504 52552U
 #FRAMTERM
               9 00000000 FFFFFF63     J   51200 51267U
 #FTPSWM       1 00000008 FFFFFF63     X   51193 51326M 52380
 #FTSGTN       8 00000000 FFFFFF63     D   51192 51343M 51882  52117
 #INTFLTW      8 00000018 FFFFFF54     D   64576 64802M 64803
 #INTFLT0      8 00000000 FFFFFF54     D   64573 64635M 65811
 #INTFLT2      8 00000008 FFFFFF54     D   64574 64636M 65812
 #INTFRAM      4 00000020 FFFFFF54     E   64577 64757M 64758M 64759  64851M 64852M 64853  65342M 65343M 65344
 #INTPSWM      1 00000024 FFFFFF54     X   64578 64901M 65073  65136M 65288  65445M 65779
 #INTTIM       8 00000010 FFFFFF54     D   64575 64746M 64747M 64748
 #IOUPAGE      1 00000004 FFFFFFCC A   U    3214 74101
 #IOUSWAP      1 00000008 FFFFFFCC A   U    3215 77633
 #ISCB        12 00000000 FFFFFF77     N   23916 24527  24746  25216  25235M 25243  25251  25261  25462  25481M 25489
                                                 25497  25507
 #ISEASLK      1 00000029 FFFFFF75     X   27659 27903M 29846  29847M 29857  29970
 #ISECNT       4 0000001C FFFFFF75     A   27656 28075M 28198  28203M
 #ISEEXT       4 00000008 FFFFFF75     A   27652 27870M 28385
 #ISELASP      8 00000020 FFFFFF75     D   27657 28301M 29841
 #ISEND       42 00000000 FFFFFF75     J   27666 27733U
 #ISEPAGF      4 00000010 FFFFFF75     A   27654 28299M 28388  29010
 #ISEPAGX      4 00000018 FFFFFF75     A   27655 28387M 29011
 #ISEPSWM      1 00000028 FFFFFF75     X   27658 27878M 29997
 #ISFRAME     12 0000000C FFFFFF77     N   23921 24537  25064  25690
 #ISLKFLG      1 0000001D FFFFFF77     X   23927 24106M 26105  26106M 26116  26229
 #ISPSWM       1 0000001C FFFFFF77     X   23926 24081M 26256
 #ISREC        4 00000018 FFFFFF77     A   23925 24807M 25333  25942
 #ISWAP       30 00000000 FFFFFF77     J   23934 23981U
 #LCLLOCK      1 00000000 FFFFFF85     J    6624 23561U 32082U 55621U 56200U 57017U 59598U 60060U 60422U 62226U
 #LCLPSWM      1 00000000 FFFFFF85     X    6617 23621M 23770  32151M 32324  55681M 55909  56094  56260M 56489  56532
                                                 57077M 57243  59658M 59972  60191M 60251  60324  60497M 60622  62382M
                                                 62544
 #OSEDISP    128 00000002 FFFFFF78        22146 22741M 22892M 23426
 #OSEFLAG      1 00000002 FFFFFF78     R   22142 22146  22267M
 #OSELKF       1 00000001 FFFFFF78     X   22139 22415M 23222  23223M 23233  23356
 #OSEND        3 00000000 FFFFFF78     J   22155 22202U
 #OSEPSWM      1 00000000 FFFFFF78     X   22138 22390M 23383
 #OSLKFLG      1 00000001 FFFFFF7D     X   17323 17563M 17898  17899M 17909  18012
 #OSPSWM       1 00000000 FFFFFF7D     X   17322 17538M 18039
 #OSWAP        2 00000000 FFFFFF7D     J   17330 17377U 17442M 17442
 #PAGASC       5 00000000 FFFFFF64     J   48022 48069U
 #PAGDEF       2 00000000 FFFFFF69     J   41049 41096U
 #PAGE         2 00000000 FFFFFF84     J    6644 26990U 35263U 35879U 36538U 37148U 49573U 50162U
 #PAGESWAP
               2 00000000 FFFFFF7C     J   18331 18372U
 #PAGFLGS      1 00000000 FFFFFF84     X    6636 35427M 35601  35602M 35612  35725  36043M 36297  36298M 36308  36421
                                                 36697M 36870  36871M 36881  36994  37312M 37454  37455M 37465  37568
                                                 49709M 49902  49903M 49913  50043  50298M 50350  50351M 50361  50481
1PAGESERV (PAGE00) (09:42) (22MAR04) Ordinary Symbol and Literal Cross Reference                                            Page  464
 #PAGFLT      36 00000000 FFFFFF81     J    6850  6890U
 #PAGHASH      2 00000000 FFFFFF65     J   47026 47073U
 #PAGINIT     28 00000000 FFFFFF51     J   69300 69347U
 #PAGINI2    116 00000000 FFFFFF4F     J   73012 73669U 77157U
 #PAGINTV     37 00000000 FFFFFF54     J   64585 64632U
 #PAGI2CNT
               4 00000008 FFFFFF4F     A   73003 73831M 73831  76337  76338M 76810  77362M 77362  80599  80600M 81058
 #PAGI2DSL
               4 00000004 FFFFFF4F     A   73002 73836M 73836  73850  76270M 77367M 77367  77375  80611M
 #PAGI2DS1
               4 00000000 FFFFFF4F     A   73001 73975M 76378  76799
 #PAGI2SEG
              40 0000000C FFFFFF4F     X   73004 74271U 75331U 76460U 77802U 78751U 79594U 80732U
 #PAGI2WTO
              64 00000034 FFFFFF4F     C   73005 74308  74325  75368  75385  76497  76514  77839  77856  78788  78805
                                                 79631  79648  80769  80786
 #PAGPSWM      1 00000001 FFFFFF84     X    6637 27358M 27495  35402M 35520  35752  36018M 36448  36672M 36790  37021
                                                 37287M 37595  49684M 49864  50070  50273M 50508
 #PAGPWC       4 00000000 FFFFFF7E     J   16430 16478U
 #PAGSEGD      3 00000000 FFFFFF67     J   43677 43724U
 #PAGSMF       8 00000000 FFFFFF53     J   65870 65910U
 #PAGTERM      3 00000000 FFFFFF7F     J   13760 13807U
 #PAGUDEF      2 00000000 FFFFFF68     J   42177 42224U
 #PAGUREF      2 00000000 FFFFFF66     J   45612 45659U
 #PAGWAIT      1 00000000 FFFFFF5A     J   61409 61457U
 #PAGWSMA     23 00000000 FFFFFF6E     J   32913 32961U 33026M 33026
 #PCOPEN       1 00000004 FFFFFFA4 A   U    5447 77095
 #PCREAD       1 0000000C FFFFFFA4 A   U    5449 13712  17280
 #PCRESET      1 00000014 FFFFFFA4 A   U    5451 75221
 #PCWRITE      1 00000010 FFFFFFA4 A   U    5450 13716
 #PDFLGS       1 00000000 FFFFFF69     X   41041 41286M 41922  41923M 41933  42046
 #PDPSWM       1 00000001 FFFFFF69     X   41042 41261M 41486  41842  42073
 #PFACFLG      1 0000000B FFFFFF81     R    6774  6778   6957M
 #PFFLG        1 0000000C FFFFFF81     R    6787  6793   6803   6813   6823   6833   6842   6842
 #PFFPCB       4 00000020 FFFFFF81     A    6841  7560   7840   8271   8864   9183
 #PFFPEI      16 0000000C FFFFFF81         6833  7410
 #PFFPLI      64 0000000C FFFFFF81         6813  7377
 #PFFROOM    128 0000000B FFFFFF81         6778  7634M  8938M  9775
 #PFFSEI      32 0000000C FFFFFF81         6823  8583
 #PFFSLI     128 0000000C FFFFFF81         6803  7365
 #PFF2ND     128 00000004 FFFFFF81         6723  7015
 #PFIBKS       4 00000000 FFFFFFC9     A    3369 75197  79464
 #PFIBP        4 00000008 FFFFFF52     A   66383 67046M 68646
 #PFICNT       4 0000000C FFFFFF52     A   66384 67053M 67053  68248  68630  68660
 #PFIDSO       1 00000013 FFFFFFC9     R    3392  3400   3409   3418
 #PFIFP        4 00000004 FFFFFF52     A   66382 67045M 68655  68661
 #PFILOOP      4 00000028 FFFFFF52     A   66391 68263M 68584
 #PFINFO      32 00000000 FFFFFFC9     J    3472  5910  73810U 74052M 74052  74096  77298U 77584M 77584  77628
 #PFINIT      48 00000000 FFFFFF52     J   66398 66439U
 #PFIPAG#      4 0000001C FFFFFF52     A   66388 68014
 #PFIPAGE      4 00000018 FFFFFF52     A   66387 67277M 67446  67490M 67652  67668  67926M 68136M 68176
 #PFIPTVA      4 00000020 FFFFFF52     A   66389 67758M 67874  68013  68017M
 #PFIRFM       1 00000014 FFFFFFC9     R    3424  3432   3441   3450   3459
 #PFISEG#      4 00000014 FFFFFF52     A   66386 67766M 67803
 #PFISEGE      4 00000010 FFFFFF52     A   66385 66740M 67058  67225  67759  67802M
 #PFISPF       1 00000012 FFFFFFC9     R    3375  3379   3384
 #PFISTO       4 00000000 FFFFFF52     A   66379 66722M 66723
 #PFIUSED     12 00000004 FFFFFF52     N   66381 67044  67180  67400
 #PFIXP#       4 00000024 FFFFFF52     A   66390 66450M 66450
1PAGESERV (PAGE00) (09:42) (22MAR04) Ordinary Symbol and Literal Cross Reference                                            Page  465
 #PFLKFLG      1 0000000A FFFFFF81     X    6771  7110M  9515   9516M  9526   9639
 #PFOCNTG     64 00000012 FFFFFFC9         3384 78740
 #PFPARM      24 0000000C FFFFFF81     U    6842  7353M
 #PFPGD        4 00000000 FFFFFF81     A    6715  6964M  6964   7814M  9085M  9680   9747
 #PFPGTE       4 00000018 FFFFFF81     A    6839  7416
 #PFPSWM       1 00000009 FFFFFF81     X    6770  7085M  9666
 #PFRADDR      4 00000008 FFFFFF81         6747  7388M  7469M  8627M
 #PFRC         1 00000008 FFFFFF81     R    6728  6737   6747   6757   6767   9796
 #PFRINP       0 00000008 FFFFFF81         6737  7968M  8535M  9317M  9482M
 #PFROK        8 00000008 FFFFFF81         6757  7295M  8298M
 #PFRWAIT     12 00000008 FFFFFF81         6767  7659M  7806M  8131M  8963M  9077M
 #PFSGTE       4 00000010 FFFFFF81     A    6837  8308   8635
 #PFSPTE       4 0000001C FFFFFF81     A    6840  7431
 #PFSSTE       4 00000014 FFFFFF81     A    6838  8168   8589
 #PFVA         4 00000004 FFFFFF81     A    6716  6723   6980M  7730   8150   8763M  9047
 #PHFLGS       1 00000000 FFFFFF65     X   47018 47215M 47414  47415M 47425  47528
 #PHPSWM       1 00000001 FFFFFF65     X   47019 47190M 47555
 #PIFLT0       8 00000000 FFFFFF51     D   69290 70637M 71534
 #PIOALLO      4 00000004 FFFFFFA3     A    5474 74095M
 #PIOBLK       4 00000004 FFFFFFA1     A    5520 12793M 13508M
 #PIOCOM       4 00000000 FFFFFFA4     J    5458  5473   5497   5519   5543
 #PIODCMD      4 00000000 FFFFFFA1     X    5519 12742M 13459M 14237
 #PIODO       12 00000000 FFFFFFA1     J    5528  5599  12736U 12852  13453U 13567  13926U 29621U 30389U
 #PIOINFO      4 00000008 FFFFFFA3     A    5475 74097M
 #PIOLOC       4 00000008 FFFFFFA1     A    5521 12752M 13469M 14039  14190  14585
 #PIOOCMD      4 00000000 FFFFFFA3     X    5473 74093M
 #PIOOPEN     12 00000000 FFFFFFA3     J    5482  5899  73775U 74045M 74045  74223  77263U
 #PIOTCMD      4 00000000 FFFFFFA0     X    5543 75226M
 #PIPARM       4 00000018 FFFFFF51     F   69293 70255M 72174
 #PIRESET      4 00000000 FFFFFFA0     J    5550  5901  73782U 75209M 75209  75283  77270U
 #PSPSWM       1 00000001 FFFFFF7C     X   18324 18569M 18838  18886M 19160  19242  19346M 19406
 #PSSSF        1 00000000 FFFFFF7C     X   18323 18884M 18942  19331
 #PTFCRL     128 00000002 FFFFFF7F        13751 13864M 14421M 15093
 #PTFLAG       1 00000002 FFFFFF7F     R   13747 13751
 #PTLKFLG      1 00000001 FFFFFF7F     X   13744 14003M 14619  14620M 14630  14743
 #PTPSWM       1 00000000 FFFFFF7F     X   13743 13978M 14770
 #PUDFLGS      1 00000000 FFFFFF68     X   42169 42417M 43413  43414M 43424  43537
 #PUDPSWM      1 00000001 FFFFFF68     X   42170 42392M 42520  43329  43564
 #PURFLGS      1 00000000 FFFFFF66     X   45604 45852M 46769  46770M 46780  46893
 #PURPSWM      1 00000001 FFFFFF66     X   45605 45827M 45955  46685  46920
 #PWCKEY       4 00000000 FFFFFF7E     A   16423 16737M 17042
 #RESFGBL    128 00000001 FFFFFF80        11275 12135
 #RESFLCL     64 00000001 FFFFFF80        11283 12083
 #RESOLVE      2 00000000 FFFFFF80     J   11292 11340U
 #RESPSWM      1 00000000 FFFFFF80     X   11265 12063M 12073
 #RESWTF       1 00000001 FFFFFF80     R   11268 11275  11283  11874M 12194
 #SDACFLG      1 00000002 FFFFFF67     R   43664 43668  43733M
 #SDFLGS       1 00000000 FFFFFF67     X   43660 43882M 44186  44187M 44197  44300  44487M 45319  45320M 45330  45443
 #SDFROOM    128 00000002 FFFFFF67        43668 44784M 45483
 #SDPSWM       1 00000001 FFFFFF67     X   43661 43857M 44327  44459M 44836  45470
 #SILPSWM      1 00000000 FFFFFF73     X   30119 30286M 30698
 #SMFTIME      8 00000000 FFFFFF53     D   65863 66084M 66087
 #SSCLAST      4 00000010 FFFFFF7B     A   19469 19776M 19786
 #SSDBAD       4 00000000 FFFFFF7B     A   19464 19468  19468  20397M 20696  21050M 21436M
 #SSSLNXT      4 00000004 FFFFFF7B     A   19465 20401M 20499  20969  21437M
 #SSWAP       22 00000000 FFFFFF7B     J   19478 19527U 19592M 19592
 #SWAPCOM      4 00000000 FFFFFF9D     J    5644  5659   5683   5705   5730
 #SWAPILO      1 00000000 FFFFFF73     J   30126 30174U
 #SWCOPEN      1 00000004 FFFFFF9D A   U    5633 81131
1PAGESERV (PAGE00) (09:42) (22MAR04) Ordinary Symbol and Literal Cross Reference                                            Page  466
 #SWCREAD      1 0000000C FFFFFF9D A   U    5635 30739
 #SWCRSET      1 00000014 FFFFFF9D A   U    5637 79486
 #SWCWRIT      1 00000010 FFFFFF9D A   U    5636 23885
 #SWPALLO      4 00000004 FFFFFF9C     A    5660 77627M
 #SWPBLK       4 00000004 FFFFFF9A     A    5706 19993M 20210  31822
 #SWPCNT       2 0000000C FFFFFF9A     H    5708 20007M 21906  22636  22684  22743  22787  22971  23043  24779  25637
                                                 25669  26509  27348
 #SWPDCMD      4 00000000 FFFFFF9A     X    5705 20019M 26709M
 #SWPDO       14 00000000 FFFFFF9A     J    5715  5876  19756U 21904U 21994  22631U 22679U 22769U 22961U 24595U 25620U
                                                 26490U 26758  27343U 28676U 31798U 53463U
 #SWPINFO      4 00000008 FFFFFF9C     A    5661 77629M
 #SWPLIST      4 00000008 FFFFFF9A     A    5707 20021M
 #SWPOCMD      4 00000000 FFFFFF9C     X    5659 77625M
 #SWPOPEN     12 00000000 FFFFFF9C     J    5668  5903  73789U 77277U 77577M 77577  77755
 #SWPRCMD      4 00000000 FFFFFF99     X    5730 79491M
 #SWPRSET      4 00000000 FFFFFF99     J    5737  5905  73796U 77284U 79474M 79474  79548
 #VPFLG        1 00000004 FFFFFF6A     R   39655 39661  39671  39681  39691  39701  39710  39710
 #VPFLGS       1 00000000 FFFFFF6A     X   39647 40023M 40769  40770M 40780  40893
 #VPPSWM       1 00000001 FFFFFF6A     X   39648 39998M 40126  40685  40920
 #VPROTRA     28 00000000 FFFFFF6A     J   39718 39766U
 #WSFLAG       1 00000014 FFFFFF6E     R   32896 32900
 #WSFLIST      4 0000000C FFFFFF6E     A   32892 33470M 34747
 #WSFREFL      1 00000005 FFFFFF6E A   U   32904 33598
 #WSFTRIM    128 00000014 FFFFFF6E        32900 33431M 33537  34688  34822M
 #WSINT        4 00000004 FFFFFF6E     A   32890 33318M 33543
 #WSLKFLG      1 00000016 FFFFFF6E     X   32906 33110M 34912  34913M 34923  35036
 #WSNEED       4 00000010 FFFFFF6E     A   32893 33425M 34696  34698M 34816M
 #WSNXTF       4 00000008 FFFFFF6E     A   32891 33519M 34724
 #WSPGD        4 00000000 FFFFFF6E     A   32889 34080M 34263  34353M 34353
 #WSPSWM       1 00000015 FFFFFF6E     X   32905 33085M 35063
 #WTFGBL     128 00000000 FFFFFF5A        61392 62023
 #WTFLCL      64 00000000 FFFFFF5A        61400 61946
 #WTLOCKF      1 00000000 FFFFFF5A     R   61388 61392  61400  61660M
 @ACREATE      8 00000000 FFFFFFE2     J    2636 73531U 73539M 73539
 @ACRPSW       8 00000000 FFFFFFE2     D    2629 73540M 73541M
 @ADDSWAP      8 00000000 FFFFFF7A     J   20635 20441U 20449M 20449  20677U
 @ADVASB       4 00000000 FFFFFFBE     A    3910 23650
 @AGATL        2 00000006 FFFFFF91     H    6121 48346M
 @AGATO        4 00000000 FFFFFF91     A    6110  6117  48341M
 @AGFINV     128 00000000 FFFFFF91         6117 48352M
 @AGPCB        4 00000010 FFFFFF91     A    6133 48363M 58970
 @AGSASTE     16 00000000 FFFFFF91     X    6109 59415
 @AGSTD        4 00000008 FFFFFF91     A    6122  6129  48336M
 @ASCASB       4 00000000 FFFFFFBA     A    4019 47887
 @ASCKEY       1 00000004 FFFFFFB9     X    4040 49031  49405
 @ASCVA        4 00000000 FFFFFFB9     A    4039 48904M 48905  48929  49146  49374  49375
 @ASCWSLM      4 00000004 FFFFFFBA     A    4020 47954
 @ASI1ST       4 00000000 FFFFFF55     A   64329 59149M 64194M 64382
 @ASLHEAD      4 00000000 FFFFFF7A     A   20627 20460M 20766  21054
 @ASNFASN      2 00000000 FFFFFF5D     H   59543 50928M 59683  59806  59892
 @ASNFREE      2 00000000 FFFFFF5D     J   59550 50910U 50918M 50918  59591U 59598U
 @ASNGET      20 00000000 FFFFFF91     J    6140 48318U 48326M 48326  58818U 58825U
 @ASPARM       4 00000004 FFFFFF7A     A   20628 20477M 20682
 @AWAIT        5 00000000 FFFFFFD6     J    2944 18500U 18508M 18508  50539U 50547M 50547  61904U 61912M 61912
 @AWTECB       4 00000000 FFFFFFD6     A    2928 18525M 50564M 61929M
 @AWTFLG       1 00000004 FFFFFFD6     R    2931  2935
 @BLKBCB       4 0000000C FFFFFF5F     A   57295 12798  13514  56755  57576M
 @BLKDSID     16 00000000 FFFFFF5F     J   57302 12768U 12776M 12776  13483U 13491M 13491  56733U 56741M 56741  57343U
 @BLKID        4 00000004 FFFFFF5F     A   57293 12799  13509  57579M
1PAGESERV (PAGE00) (09:42) (22MAR04) Ordinary Symbol and Literal Cross Reference                                            Page  467
 @BLKNUM       4 00000000 FFFFFF5F     A   57291 12781M 13496M 56746M 57404
 @BLKRNUM      4 00000008 FFFFFF5F     A   57294 12793  13508  56754  57577M
 @BMAADD       4 00000004 FFFFFF93     A    6055 57914M 58137  58333
 @BMACB        4 00000000 FFFFFF93     A    6054 55821M 56401M 57673
 @BMAFLG       1 00000010 FFFFFF93     R    6060  6061
 @BMALEFT      4 0000000C FFFFFF93     A    6057 58031  58032M 58102M 58102
 @BMALLOC     17 00000000 FFFFFF93     J    6070 55802U 55810M 55810  56382U 56390M 56390  57668U
 @BMANUM       4 00000008 FFFFFF93     A    6056 55831M 56411M 57756  57858  57915  58144  58327
 @BMAOK      128 00000010 FFFFFF93         6061 55851  56431  58325M
 @BMFADD       4 00000004 FFFFFF92     A    6083 56786M 57139M 58488
 @BMFCB        4 00000000 FFFFFF92     A    6082 56796M 57149M 58418
 @BMFFLG       1 0000000C FFFFFF92     R    6087  6088
 @BMFNUM       4 00000008 FFFFFF92     A    6084 56807M 57144M 58489  58530  58704
 @BMFOK      128 0000000C FFFFFF92         6088 56826  57168  58711M
 @BMFREE      13 00000000 FFFFFF92     J    6097 56768U 56776M 56776  57114U 57122M 57122  58413U
 @CELLFREE
              16 00000000 FFFFFF8C     J    6312 15112U 15120M 15120  20261U 20269M 20269  29690U 29698M 29698  30458U
                                                 30466M 30466  31866U 31874M 31874  60415U 60422U
 @CELLGET     12 00000000 FFFFFF8D     J    6290 12457U 12465M 12465  13131U 13139M 13139  19659U 19667M 19667  60053U
                                                 60060U
 @CFAMT        4 0000000C FFFFFF8C     A    6305 15176M 20325M 29754M 30522M 31930M 60523
 @CFLAST       4 00000008 FFFFFF8C     A    6304 15159M 20308M 29737M 30505M 31913M 60525
 @CFLOC        4 00000004 FFFFFF8C     A    6303 15148M 20297M 29726M 30494M 31902M 60549
 @CFTYP        4 00000000 FFFFFF8C     A    6302 15137M 20286M 29715M 30483M 31891M 60482
 @CGAMT        4 00000004 FFFFFF8D     A    6281 12499M 13173M 19694M 60189
 @CGLAST       4 00000008 FFFFFF8D     A    6283 19776  60325M
 @CGTYP        4 00000000 FFFFFF8D     A    6280 12482M 13156M 19684M 60175
 @DISPPIOC
               4 00000000 FFFFFFE7     J    2502 14801U 14809M 14809  14978M 14978
 @DISPSIOC
               4 00000000 FFFFFFE6     J    2521 19304U 19312M 19312  23447U 23455M 23455  27566U 27574M 27574
 @DISPSWP      4 00000000 FFFFFFE3     J    2613 18445U 18453M 18453
 @DPIOASB      4 00000000 FFFFFFE7     A    2495 14819M 14983M
 @DSALCF       1 0000004D FFFFFFCA     R    3309  3313   3318   3323   3328   3333
 @DSALLO      96 00000000 FFFFFFCA     J    3347  5908  73803U 74059M 74059  74094  77291U 77591M 77591  77626
 @DSDSN       44 00000004 FFFFFFCA     C    3272 72982  74060  74061  74084M 74934  74951  75994  76011  77105  77592
                                                 77593  77616M 78465  78482  79197  79214  80257  80274  81141
 @DSERR        2 00000048 FFFFFFCA     H    3277 74646  74663  75706  75723  78177  78194  79969  79986
 @DSFLAG       1 0000004C FFFFFFCA     R    3282  3286   3291   3296   3301
 @DSIOASB      4 00000000 FFFFFFE6     A    2514 19317M 23460M 27579M
 @DSRSN        2 0000004A FFFFFFCA     H    3278 74716  74733  75776  75793  78247  78264  80039  80056
 @DSRTN        2 00000046 FFFFFFCA     H    3276 74576  74593  75636  75653  78107  78124  79899  79916
 @DSVOL        6 00000040 FFFFFFCA     C    3275 75070  75087  76130  76147  78601  78618  79333  79350  80393  80410
 @EPAR         0 00000000 FFFFFFEF     @    1203  7942   8503   9291   9450  20056  28894  29197  29278  80538
 @FRAFIX       1 00000010 FFFFFF90         6177  7550M  8854M 48820M 54811  72697M
 @FRAFLCL      3 00000010 FFFFFF90         6197 25041M
 @FRAFPT       2 00000010 FFFFFF90         6187 44699M 48781M 54832
 @FRALIST      4 0000000C FFFFFF90     A    6155  7597M  8901M 25069M 44747M 48798M 48837M 54677  72744M
 @FRAMGET     25 00000000 FFFFFF90     J    6219  7509U  7517M  7517   7988U  8813U  8821M  8821  25006U 25014M 25014
                                                 44658U 44666M 44666  48727U 48735M 48735  52545U 52552U 72656U 72664M
                                                 72664
 @FRAMREL      8 00000000 FFFFFF8F     J    6239 12534U 12542M 12542  14505U 14513M 14513  34648U 34656M 34656  43020U
                                                 43028M 43028  46348U 46356M 46356  51714U 51722M 51722  52212U 52220M
                                                 52220  54963U
 @FRAMTERM
               4 00000000 FFFFFF62     J   51219 50849U 50857M 50857  51260U 51267U
 @FRANUM       4 00000008 FFFFFF90     A    6154  7544M  8848M 25035M 44693M 48774M 52662  53083  53150  53301  54452
                                                 72691M
 @FRAOK      128 00000018 FFFFFF90         6205  7648   8952  25089  54884M
1PAGESERV (PAGE00) (09:42) (22MAR04) Ordinary Symbol and Literal Cross Reference                                            Page  468
 @FRAPCB       4 00000004 FFFFFF90     A    6153  7565M  8869M 25052M 44710M 48757M 54662  72707M
 @FRAPCBC      4 00000000 FFFFFF90     A    6152  7527M  8831M 25025M 44676M 48746M 52641  72674M
 @FRARFRA      4 00000004 FFFFFF8F     A    6232 12553M 14524M 34667M 43039M 46367M 51733M 52231M 55024
 @FRAROOM     64 00000018 FFFFFF90         6210  7622   8926  44772  48862  53124M 54660M
 @FRATYPE      1 00000010 FFFFFF90     R    6158  6167   6177   6187   6197
 @FRA1ST       4 00000014 FFFFFF90     A    6201  8032  48852  54723M 72760
 @FRFLG        1 00000018 FFFFFF90     R    6204  6205   6210
 @FTPCB        4 00000000 FFFFFF62     A   51212 50868M 51327
 @IAASB        4 00000000 FFFFFF6F     A   32445 19036M 32561
 @IAF1         1 00000004 FFFFFF6F     R   32448 32449
 @IAOK       128 00000004 FFFFFF6F        32449 32834M
 @IOSCHID      4 00000000 FFFFFFD2     A    3042 12830M 13545M 21972M 26746M 74201M 75261M 77733M 79526M
 @IOSCP        4 00000010 FFFFFFD2     A    3045 12857M 13572M 21999M 26763M 74228M 75288M 77760M 79553M
 @IOSDOIO     30 00000000 FFFFFFD2     J    3074 12812U 12820M 12820  13527U 13535M 13535  21954U 21962M 21962  26728U
                                                 26736M 26736  74183U 74191M 74191  75248U 75256M 75256  77715U 77723M
                                                 77723  79513U 79521M 79521
 @IOSFAST     32 0000001D FFFFFFD2         3065 12908M 13620M 22034M 26830M
 @IOSFID       4 00000000 FFFFFFCE     A    3153 73384M
 @IOSFSYNC
             128 0000001D FFFFFFD2         3055 74239M 75299M 77769M 79562M
 @IOSFWAIT
             128 00000000 FFFFFFCF         3132 60989M 72063M 73267M
 @IOSF1        1 0000001D FFFFFFD2     R    3051  3055   3060   3065
 @IOSID        4 00000004 FFFFFFD2     A    3043 12835M 13550M 21977M 26768M 74206M 75266M 77738M 79531M
 @IOSIDF       1 00000000 FFFFFFCF     R    3128  3132
 @IOSIDFRE
               4 00000000 FFFFFFCE     J    3160 73366U 73374M 73374
 @IOSIDGET
               1 00000000 FFFFFFCF     J    3141 60975U 60983M 72049U 72057M 73253U 73261M
 @IOSIOTIME
               8 00000008 FFFFFFD0     D    3107 15448  15549  16595  16696  22491  22593  27201  27304
 @IOSKEY       1 0000001C FFFFFFD2     X    3048 12902M 13614M 22028M 26824M 74232M 75292M 77763M 79556M
 @IOSPID       8 00000008 FFFFFFD2     D    3044 12840M 13555M 21982M 26779M 74211M 75271M 77743M 79536M
 @IOSTID       4 00000000 FFFFFFD0     A    3106 15436M 16583M 22479M 27189M
 @IOSTIME     16 00000000 FFFFFFD0     J    3114 15423U 15431M 15431  16570U 16578M 16578  22466U 22474M 22474  27176U
                                                 27184M 27184
 @IOSXID       4 00000014 FFFFFFD2     A    3046 12874M 13589M 22016M 26796M
 @IOSXPAR      4 00000018 FFFFFFD2     A    3047 12885M 13600M 22027M 26807M
 @IOTEND       4 00000004 FFFFFFD1     A    3087 13874  22277  22288  27002
 @IOTERM       8 00000000 FFFFFFD1     J    3094  9734U  9742M  9742  13800U 13807U 22195U 22202U 26983U 26990U 34317U
                                                 34325M 34325
 @IOTPARM      4 00000000 FFFFFFD1     A    3086  9747M 13884  22327  27104  34335M
 @LFSPIN     128 00000010 FFFFFFD4         3001 63391M 64053M 69545M 69574M 70057M 71857M 77334M
 @LOCKCRE     17 00000000 FFFFFFD4     J    3010 63371U 63379M 63379  64033U 64041M 64041  69525U 69533M 69533  69562M
                                                 69562  70037U 70045M 70045  71837U 71845M 71845  77314U 77322M 77322
 @LOCKFL       1 00000010 FFFFFFD4     R    2997  3001
 @LOCKID       4 00000000 FFFFFFD3     A    3022  7102M  9601M  9654M 10178M 11516M 11955M 12029M 12104M 12164M 13995M
                                                 14132M 14705M 14758M 17555M 17749M 17886M 17974M 18027M 18589M 18830M
                                                 18906M 19152M 19234M 19366M 19398M 22407M 22720M 22864M 23120M 23140M
                                                 23206M 23311M 23371M 23638M 23762M 24098M 24174M 24286M 24435M 24985M
                                                 25114M 25391M 25415M 25988M 26191M 26244M 27378M 27487M 27895M 28043M
                                                 28235M 29932M 29985M 30303M 30690M 32168M 32316M 32652M 32821M 33102M
                                                 33220M 34998M 35051M 35419M 35687M 35740M 36035M 36206M 36383M 36436M
                                                 36689M 36956M 37009M 37304M 37530M 37583M 40015M 40855M 40908M 41278M
                                                 41398M 42008M 42061M 42409M 42683M 43499M 43552M 43874M 43986M 44262M
                                                 44315M 44479M 44566M 45405M 45458M 45844M 46855M 46908M 47207M 47490M
                                                 47543M 48512M 48687M 49701M 50005M 50058M 50290M 50443M 50496M 50634M
                                                 50809M 50964M 52630M 52875M 52953M 53107M 53229M 53324M 53341M 53850M
                                                 53920M 54241M 54271M 54643M 55207M 55467M 55698M 55901M 56086M 56277M
1PAGESERV (PAGE00) (09:42) (22MAR04) Ordinary Symbol and Literal Cross Reference                                            Page  469
                                                 56481M 56524M 56712M 56925M 57094M 57235M 58902M 59110M 59178M 59486M
                                                 59675M 59964M 60208M 60243M 60316M 60514M 60614M 61032M 61078M 61648M
                                                 61731M 61770M 61832M 61871M 61986M 62061M 62125M 62405M 62532M 62973M
                                                 64918M 65065M 65146M 65280M 65455M 65771M
 @LOCKNAM     16 00000000 FFFFFFD4     C    2994 63385M 64047M 69539M 69568M 70051M 71851M 77328M
 @LOCKS        4 00000000 FFFFFFD3     J    3029  7096U  9595U 10172U 11510U 11949U 13989U 14699U 17549U 18583U 18824U
                                                 18900U 19146U 19360U 22401U 22714U 23114U 23632U 24092U 24979U 25108U
                                                 25982U 26185U 27372U 27889U 29926U 30297U 30684U 32162U 32310U 32646U
                                                 32815U 33096U 34992U 35413U 35681U 36029U 36377U 36683U 36950U 37298U
                                                 40009U 40849U 41272U 42002U 42403U 42677U 43493U 43868U 44473U 45399U
                                                 45838U 46849U 47201U 48506U 49695U 49999U 50284U 50628U 50951U 50959M
                                                 50959  52624U 53223U 54235U 55201U 55692U 55895U 56080U 56271U 56475U
                                                 56706U 56919U 57088U 57229U 58896U 59104U 59172U 59480U 59669U 59958U
                                                 60202U 60508U 61026U 61637U 61975U 62394U 62521U 62967U 64912U
 @NVLDASN      5 00000000 FFFFFF6F     J   32458 19023U 19031M 19031  32499U
 @OPENDS      12 00000000 FFFFFF4E     J   73621 73289U 73297M 73297  73662U 73669U 77150U 77157U
 @OPNDAL       4 00000004 FFFFFF4E     A   73613 73319M 73756  77244
 @OPNID        4 00000008 FFFFFF4E     A   73614 73329M 74206  75266  77738  79531
 @OPNPARM      4 00000000 FFFFFF4E     A   73612 73308M 73728  77216
 @PAGASC1      8 00000000 FFFFFFBA     J    4027 47825U
 @PAGASC2      5 00000000 FFFFFFB9     J    4047 48062U 48069U
 @PAGASTI      4 00000000 FFFFFF55     J   64336 59131U 59139M 59139  64176U 64184M 64184  64377U
 @PAGDEF      10 00000000 FFFFFFBC     J    3980 41089U 41096U
 @PAGE         9 00000000 FFFFFFB8     J    4069 35256U 35263U 35872U 35879U 36531U 36538U 37141U 37148U 38497U 38593U
                                                 38949U 39318U 39430U 39538U 42217U 42224U 45652U 45659U 47066U 47073U
 @PAGHASH      1 00000008 FFFFFFB8     U    4062 47386
 @PAGIASB      4 00000000 FFFFFFB5     A    4121 69633
 @PAGIMEG      4 00000004 FFFFFFB5     A    4122 69497
 @PAGIN       29 00000000 FFFFFF87     J    6564  7702U  7710M  7710   8988U  8996M  8996  12349U
 @PAGINIT      8 00000000 FFFFFFB5     J    4129 69340U 69347U
 @PAGINT       4 00000000 FFFFFFB6     A    4102 64696  65301
 @PAGINTV      4 00000000 FFFFFFB6     J    4109 64625U 64632U
 @PAGKEY       1 00000008 FFFFFFB8     X    4061  4062
 @PAGLEN       4 00000004 FFFFFFB8     A    4060 35379  35995  36654  37264  42339  45774  47257
 @PAGLOC       4 00000000 FFFFFFB8     A    4059 35216  35377  35993  36652  37262  38520  38782  39138  39341  39453
                                                 39561  42338  45773  47256
 @PAGOUT      13 00000000 FFFFFF86     J    6605 13056U 34020U 34028M 34028
 @PAGPGIN      4 00000000 FFFFFF57     J   63735 45112U 45120M 45120  63776U 67887U 67895M 67895
 @PAGPIOC     16 00000000 FFFFFF82     J    6692  8248U  8256M  8256  14177U 14185M 14185  15315U 16471U 16478U 29635U
                                                 29643M 29643  30403U 30411M 30411  72804U 72812M 72812
 @PAGRV        8 00000000 FFFFFFB7     J    4090  8709U  8717M  8717  10295U 10303M 10303  10485U 32231U 32239M 32239
                                                 32720U 32728M 32728  38755U 38763M 38763  38823M 38823  39111U 39119M
                                                 39119  39179M 39179  51477U 51485M 51485  54139U 54147M 54147  59374U
                                                 59382M 59382  59779U 59787M 59787  68393U 68401M 68401  69038M 69038
 @PAGRVAD      4 00000000 FFFFFFB7     A    4081  8727M 10313M 10547  32249M 32738M 38773M 38833M 39129M 39189M 51495M
                                                 54157M 59392M 59797M 68411M 69048M
 @PAGRVASB
               4 00000004 FFFFFFB7     A    4083 10623M
 @PAGSEGD     10 00000000 FFFFFFBB     J    4007 43717U 43724U
 @PAGSGIN      4 00000000 FFFFFF58     J   63512 63554U 67734U 67742M 67742
 @PAGSWADV
               4 00000000 FFFFFFBE     J    3917 23554U 23561U
 @PAGSWAP      5 00000000 FFFFFFBF     J    3898 17370U 17377U 23974U 23981U
 @PAGWAIT     12 00000000 FFFFFF5B     J   61375 42929U 42937M 42937  46257U 46265M 46265  53164U 53172M 53172  55999U
                                                 56007M 56007  59014U 59022M 59022  61450U 61457U
 @PAGWSMA     13 00000000 FFFFFFBD     J    3947  7250U  7258M  7258  32954U 32961U
 @PCBINIT      4 00000000 FFFFFF59     J   63158 47913U 47921M 47921  63199U 69684U 69692M 69692
 @PCIASB       4 00000000 FFFFFF59     A   63151 47931M 63332  69702M
 @PCIOCB       4 0000000C FFFFFF82     A    6685 14211M 15379  16540  29654M 30422M
1PAGESERV (PAGE00) (09:42) (22MAR04) Ordinary Symbol and Literal Cross Reference                                            Page  470
 @PCPCB        4 00000004 FFFFFF82     A    6683  8271M 14200M 15616  16721  29665M 30433M 72832M
 @PCPCBC       4 00000008 FFFFFF82     A    6684  8282M 14222M 15632  72843M
 @PCRA         4 00000000 FFFFFF82     A    6682  8266M 14190M 15591  15816  16289  72822M
 @PDADDR       4 00000000 FFFFFFBC     A    3959 41210
 @PDFGLOB    128 00000009 FFFFFFBC         3966 41338  41580  41606  41677
 @PDFPROT     64 00000009 FFFFFFBC         3971 41651
 @PDF1         1 00000009 FFFFFFBC     R    3965  3966   3971
 @PDKEY        1 00000008 FFFFFFBC     X    3961 41641
 @PDLEN        4 00000004 FFFFFFBC     A    3960 41211
 @PFRADDR      1 00000004 00000001 A   U    3844  6745
 @PFRINP       1 00000000 00000001 A   U    3843  6735
 @PFROK        1 00000008 00000001 A   U    3845  6755
 @PFRWAIT      1 0000000C 00000001 A   U    3846  6765
 @PGFLG        1 0000001C FFFFFF87     R    6540  6544   6549   6555
 @PGIFPT     128 0000001C FFFFFF87         6544  7767M  9041   9041  12644
 @PGINOK      32 0000001C FFFFFF87         6555  7795   9066  12934M
 @PGIPCBC      4 0000000C FFFFFF87     A    6534  7740M  9033M 12411
 @PGIPGD       4 00000018 FFFFFF87     A    6537  7814   9085  12574M
 @PGIRA        4 00000004 FFFFFF87     A    6532  7725M  9011M 12425
 @PGISEG       4 00000014 FFFFFF87     A    6536  7772M  9047M 12656
 @PGISLOT      4 00000000 FFFFFF87     A    6531  7715M  9001M 12781
 @PGIUFIX     64 0000001C FFFFFF87         6549  7746M  9041   9041   9042M 12672
 @PGIVA        4 00000008 FFFFFF87     A    6533  7730M  9022M 12634
 @PGOFLG       1 0000000C FFFFFF86     R    6581  6585   6590   6596
 @PGOOK       32 0000000C FFFFFF86         6596 13638M 34074
 @PGOPGD       4 00000008 FFFFFF86     A    6578 13202M 34080
 @PGORA        4 00000004 FFFFFF86     A    6577 13224  34048M
 @PGOREL      64 0000000C FFFFFF86         6590 13314  34056  34056
 @PGOSLOT      4 00000000 FFFFFF86     A    6576 13496  34038M
 @PGOUFIX    128 0000000C FFFFFF86         6585 13288  34056  34056  34057M
 @PIVA         4 00000000 FFFFFF57     A   63728 45130M 63781  67905M
 @PRPCB        4 00000004 FFFFFF89     A    6438 11060M 11399  35515M 36785M 72437
 @PRPSWM       1 00000008 FFFFFF89     X    6439 11065M 12064  35520M 36790M
 @PRRADDR      1 00000009 FFFFFF89         6462 11593M 11650M
 @PRRESCD      1 00000009 FFFFFF89     R    6443  6452   6462
 @PRROK        0 00000009 FFFFFF89         6452 11082  11418M 11872M 35537  36807  72456M
 @PRVA         4 00000000 FFFFFF89     A    6437 11049M 11419  11627  35504M 36774M 72457  72518  72775  72851  72862
 @PTFADDR      1 00000014 FFFFFF88         6510 10880M 10959M
 @PTFOK        0 00000014 FFFFFF88         6500 10798M
 @PTPCB        4 00000004 FFFFFF88     A    6484 10779  40121M 40680M 41481M 41837M 42515M 43324M 44831M 45950M 46680M
                                                 49859M
 @PTPGTE       4 0000000C FFFFFF88     A    6487 10894M 11101M 40134  40693  41494  41850  42528  43337  44885  44962
                                                 45963  46693
 @PTPSWM       1 00000008 FFFFFF88     X    6485 11065  40126M 40685M 41486M 41842M 42520M 43329M 44836M 45955M 46685M
                                                 49864M
 @PTRC         1 00000014 FFFFFF88     R    6491  6500   6510  11171
 @PTSPTE       4 00000010 FFFFFF88     A    6488 44861
 @PTVA         4 00000000 FFFFFF88     A    6483 10827  11092  40110M 40669M 41470M 41826M 42504M 43313M 44820M 45939M
                                                 46669M 49848M
 @QFIX         4 00000000 FFFFFF6D     J   37657 11124U 11132M 11132  13406U 13414M 13414  35559U 35567M 35567  37698U
 @QFIXRA       4 00000000 FFFFFF6D     A   37650 11142M 13424M 35577M 37759
 @QUFIX        4 00000000 FFFFFF6C     J   38049 14572U 14580M 14580  15803U 15811M 15811  16276U 16284M 16284  36256U
                                                 36264M 36264  38090U 40612U 40620M 40620  40735U 40743M 40743  41769U
                                                 41777M 41777  41892U 41900M 41900  43256U 43264M 43264  43379U 43387M
                                                 43387  45240U 45248M 45248  46612U 46620M 46620  46735U 46743M 46743
 @QUFRA        4 00000000 FFFFFF6C     A   38042 14585M 15816M 16289M 36274M 38151  40630M 40753M 41787M 41910M 43274M
                                                 43397M 45258M 46630M 46753M
 @RA           0 00000000 FFFFFFFC     @    1035 10608  11551  12071  12202  15631  16740  17043  27802  28297  30258
                                                 34748  36095  37364  40292  48138  50597  64272M 64273  69500  72458
1PAGESERV (PAGE00) (09:42) (22MAR04) Ordinary Symbol and Literal Cross Reference                                            Page  471
                                                 72863
 @RB           0 00000000 FFFFFFFB     @    1047 15895  20400  28298  40292  48377  49150  59242  64433  64456  70152
                                                 70550  70634  71625  76276
 @RCNT         0 00000000 FFFFFFFA     @    6004 57882  58079  58175  58179  58180  58564  58568  58569
 @RESF         1 0000000C FFFFFF8B     R    6329  6333
 @RESFLKRL
             128 0000000C FFFFFF8B         6333 62502  62986M
 @RESFREE      4 00000000 FFFFFF8B     A    6324 62459M 62691
 @RESLOCK      4 00000008 FFFFFF8B     A    6326 62479M 62973
 @RESOLVE     10 00000000 FFFFFF89     J    6471 11031U 11039M 11039  11333U 11340U 35486U 35494M 35494  36756U 36764M
                                                 36764  72376U
 @RESPT       21 00000000 FFFFFF88     J    6519 10718U 40092U 40100M 40100  40651U 40659M 40659  41452U 41460M 41460
                                                 41808U 41816M 41816  42486U 42494M 42494  43295U 43303M 43303  44802U
                                                 44810M 44810  45921U 45929M 45929  46651U 46659M 46659  49830U 49838M
                                                 49838
 @RESWAIT      4 00000004 FFFFFF8B     A    6325 62469M 62692
 @RESWAKE     13 00000000 FFFFFF8B     J    6342 62425U 62433M 62433  62686U
 @RJ           0 00000000 FFFFFFFA     @    1059 10039  28835  28854  29146  38693  39049  40065  40722  42459  43366
                                                 44043  45138  45894  46722  47297  48475  49329  62443  67914  68288
                                                 68448  74084  77616
 @RK           0 00000000 FFFFFFF9     @    1071 10043  10252  11097  33544  34565  64210  68292  68293  68356  68446
                                                 68963
 @RLOC         0 00000000 FFFFFFFC     @    5980 57842  58062  58210  58284M 58599  58667M
 @RM           0 00000000 FFFFFFF6     @    1107 11935  28108  41425  41879  44924  62383
 @RN           0 00000000 FFFFFFF5     @    1119 12019  28349  28392  33780  62374  62376  62378
 @RS           0 00000000 FFFFFFFD     @    1023  8683   9093  10010  67770  68273
 @RX           0 00000000 FFFFFFF8     @    1083 10351  58174
 @RY           0 00000000 FFFFFFF7     @    1095 10348
 @R0           0 00000000 FFFFFFFE     @     715   991U  6911U  6986U  7053U  7193U  8461U  9411U  9864U  9945U 10506U
                                                 10600U 10739U 11239U 11359U 11856U 12293U 12371U 12918U 13003U 13078U
                                                 13819U 14328U 14961U 15260U 15336U 15536U 16397U 16497U 16683U 17274U
                                                 17396U 17506U 17645U 18143U 18393U 19546U 20606U 20726U 21506U 21597U
                                                 22221U 22320U 22580U 23580U 23866U 24000U 25819U 26334U 26424U 26686U
                                                 26840U 26932U 27041U 27064U 27291U 27752U 28627U 29450U 30088U 30193U
                                                 30850U 31160U 31634U 32102U 32418U 32521U 32622U 32980U 33042U 34905U
                                                 35132U 35168U 35282U 35337U 35820U 35898U 35953U 36557U 36612U 37089U
                                                 37167U 37222U 37719U 38111U 38614U 38737U 38970U 39093U 39785U 39840U
                                                 40989U 41115U 41170U 42140U 42243U 42298U 42880U 43633U 43750U 43805U
                                                 45574U 45678U 45733U 46208U 46989U 47092U 47147U 47623U 47680U 47846U
                                                 48088U 48187U 49521U 49594U 49649U 50183U 50238U 51286U 51453U 51684U
                                                 51992U 52373U 52572U 53717U 54791U 54984U 55546U 55640U 55783U 56219U
                                                 56362U 56656U 56863U 57036U 57205U 57364U 57480U 57555U 57736U 58024U
                                                 58269U 58481U 58652U 58844U 59339U 59617U 59748U 59873U 60079U 60135U
                                                 60441U 60746U 61205U 61476U 62247U 62816U 63220U 63575U 63983U 64653U
                                                 65931U 66467U 66922U 69200U 69236U 69365U 72397U 72907U 73060U 73688U
                                                 74151U 74249U 75309U 76778U 77083U 77176U 77683U 77779U 79572U 81050U
 @R1           0 00000000 FFFFFFFD     @     728   987U  9282U 10008U 11919U 15740U 20052U 20528U 32334U 49197U 53299U
                                                 54856U 66988U 68271U 69945U
 @R10          0 00000000 FFFFFFF4     @     845   951U  9818U 10425U 10651U 11193U 12247U 12957U 13655U 15214U 16351U
                                                 17228U 18074U 18291U 19428U 20560U 21464U 22106U 23493U 23821U 26288U
                                                 26886U 27617U 30019U 30097U 30720U 31537U 31975U 32373U 32856U 35085U
                                                 35774U 36471U 37043U 37618U 38013U 38437U 38542U 38898U 39255U 39369U
                                                 39475U 39583U 40943U 42095U 43587U 45529U 46943U 47578U 47737U 47982U
                                                 49475U 50100U 51159U 52402U 54901U 55501U 56127U 56553U 56949U 57260U
                                                 57604U 58351U 58729U 59512U 59990U 60353U 60644U 61137U 61308U 62164U
                                                 62597U 63119U 63474U 63700U 63882U 64298U 64537U 65829U 66309U 69154U
                                                 72196U 72245U 72954U 73567U 77037U 81086U
 @R11          0 00000000 FFFFFFF3     @     858   947U 28192U 33834U 33929U 34003U 34159U 51868U 52103U 52273U
 @R12          0 00000000 FFFFFFF2     @     871   943U  9813U 10420U 10646U 11188U 12242U 12952U 13650U 15209U 16346U
1PAGESERV (PAGE00) (09:42) (22MAR04) Ordinary Symbol and Literal Cross Reference                                            Page  472
                                                 17223U 18069U 19423U 20555U 21459U 22101U 23488U 23816U 26283U 26881U
                                                 27612U 30014U 30715U 31532U 31970U 32368U 32851U 35080U 35769U 36466U
                                                 37038U 37613U 38008U 38432U 38537U 38893U 39250U 39364U 39470U 39578U
                                                 40938U 42090U 43582U 45524U 46938U 47573U 47977U 49470U 50095U 51154U
                                                 52397U 54896U 55496U 56122U 56548U 56944U 57255U 57599U 58346U 58724U
                                                 59507U 59985U 60348U 60639U 61132U 62159U 62592U 63114U 63469U 63695U
                                                 63877U 64293U 64532U 65824U 66304U 69149U 72191U 72949U 77032U 81081U
 @R13          0 00000000 FFFFFFF1     @     884   939U  7247U  7310U  7506U  7699U  7985U  8092U  8245U  8706U  8810U
                                                  8985U  9592U  9731U  9829U 10292U 10436U 11028U 11121U 11204U 11611U
                                                 11946U 12258U 12531U 12765U 12809U 12968U 13403U 13480U 13524U 13666U
                                                 14174U 14502U 14569U 14696U 14798U 15030U 15109U 15225U 15800U 16014U
                                                 16273U 16362U 17152U 17239U 18085U 18302U 18497U 18580U 18642U 18821U
                                                 18848U 18897U 19020U 19143U 19259U 19301U 19357U 19439U 19939U 20194U
                                                 20258U 20438U 20571U 22117U 22463U 22711U 22902U 23111U 23444U 23504U
                                                 23832U 24452U 24976U 25003U 25105U 25884U 25979U 26027U 26182U 26299U
                                                 26897U 27369U 27519U 27563U 27628U 28312U 29533U 29632U 29687U 29806U
                                                 29923U 30030U 30400U 30455U 30590U 30634U 30681U 30731U 31863U 31986U
                                                 32228U 32307U 32384U 32717U 32812U 32867U 33846U 34017U 34314U 34645U
                                                 34989U 35096U 35483U 35556U 35678U 35785U 36253U 36374U 36482U 36753U
                                                 36947U 37054U 37629U 38553U 38909U 39266U 39380U 39486U 39594U 40089U
                                                 40609U 40648U 40732U 40846U 40954U 41449U 41766U 41805U 41889U 41999U
                                                 42106U 42483U 42674U 42926U 43017U 43144U 43253U 43292U 43376U 43490U
                                                 43598U 44359U 44470U 44614U 44655U 44799U 44991U 45109U 45237U 45396U
                                                 45540U 45918U 46254U 46345U 46504U 46609U 46648U 46732U 46846U 46954U
                                                 47589U 47993U 48395U 48503U 48724U 48880U 49272U 49486U 49827U 49996U
                                                 50111U 50536U 50625U 50846U 50907U 50948U 50996U 51170U 51711U 51783U
                                                 52209U 52413U 53161U 53220U 54136U 54232U 54912U 55512U 55799U 55892U
                                                 55996U 56077U 56138U 56379U 56472U 56564U 56730U 56765U 56916U 56960U
                                                 57111U 57226U 57271U 59011U 59101U 59128U 59169U 59371U 59477U 59523U
                                                 59776U 59955U 60001U 60364U 60655U 60972U 61023U 61148U 61901U 61972U
                                                 62175U 62422U 62518U 62608U 63034U 63130U 63368U 63485U 64083U 64173U
                                                 64237U 64309U 64548U 65840U 66243U 66320U 67731U 67884U 68147U 68390U
                                                 69165U 69522U 69681U 70034U 70080U 71834U 71953U 72046U 72141U 72207U
                                                 72653U 72801U 72965U 73250U 73286U 73363U 73408U 73528U 73578U 74180U
                                                 74284U 74395U 75145U 75245U 75344U 75455U 76205U 76294U 76473U 76584U
                                                 76914U 77048U 77452U 77712U 77815U 77926U 78676U 78764U 78875U 79408U
                                                 79510U 79607U 79718U 80468U 80556U 80745U 80856U 81097U
 @R14          0 00000000 FFFFFFF0     @     897   935U 28160U 67689U 68040U 68205U
 @R15          0 00000000 FFFFFFEF     @     910   931U  7604U  8194U  8358U  8908U  9206U  9265U  9709U 16238U 17100U
                                                 17875U 19222U 22795U 23037U 24424U 28920U 29344U 34292U 34632U 36852U
                                                 37437U 40345U 42654U 43102U 44754U 44960U 46430U 52047U 53070U 54630U
                                                 55346U 65264U 65755U 67798U 72751U
 @R2           0 00000000 FFFFFFFC     @     741   983U  7915U  8163U  9146U 10633U 16079U 16180U 17035U 21943U 26573U
                                                 26610U 26700U 28214U 28585U 28983U 29407U 29788U 30556U 32197U 32686U
                                                 33479U 34736U 37995U 38808U 39164U 45311U 47406U 47967U 49048U 49141U
                                                 49433U 50823U 51749U 52057U 52245U 52939U 55086U 55186U 59887U 61007U
                                                 61065U 63002U 63087U 63109U 63442U 65130U 65641U 66632U 66657U 66716U
                                                 66838U 66941U 67219U 67709U 68236U 68698U 68949U 69006U 69445U 69766U
 @R3           0 00000000 FFFFFFFB     @     754   979U  8366U  8413U  8493U  9363U  9440U 11011U 11547U 12695U 13631U
                                                 14610U 15769U 15885U 16073U 16143U 16825U 16873U 16918U 16998U 24553U
                                                 28209U 28580U 28978U 29402U 31950U 32291U 32793U 33067U 34214U 37844U
                                                 38249U 38871U 39228U 40291U 41633U 42896U 42966U 43110U 45306U 46224U
                                                 46294U 46438U 47401U 48261U 49040U 49425U 55486U 57520U 57586U 59763U
                                                 60301U 60547U 64513U 66608U 66692U 68906U 69090U 69631U 72788U 74010U
                                                 77543U
 @R4           0 00000000 FFFFFFFA     @     767   975U  8546U  9222U  9493U 10247U 11738U 11806U 15199U 15583U 16929U
                                                 16954U 17208U 20494U 21419U 22623U 27335U 28005U 28522U 29194U 33201U
                                                 33701U 34248U 34437U 34498U 40718U 43362U 46718U 48701U 49326U 49894U
                                                 51873U 52108U 52278U 54113U 54193U 55929U 56509U 62781U 63449U 66068U
1PAGESERV (PAGE00) (09:42) (22MAR04) Ordinary Symbol and Literal Cross Reference                                            Page  473
                                                 67439U 67666U 67973U 68200U 68351U 68442U 68497U 68550U 69118U 69798U
                                                 69888U 70208U 72919U 74477U 74908U 75537U 75968U 76666U 78008U 78439U
                                                 78957U 79171U 79800U 80231U 80938U
 @R5           0 00000000 FFFFFFF9     @     780   971U  8554U  9501U  9555U  9624U 11490U 13337U 14083U 14659U 14728U
                                                 15578U 16336U 17213U 17938U 17997U 21413U 23249U 23269U 23285U 23338U
                                                 23395U 26145U 26214U 26578U 27599U 29502U 29886U 29955U 31517U 34541U
                                                 34952U 35021U 35641U 35710U 36337U 36406U 36910U 36979U 37494U 37553U
                                                 38422U 40713U 40809U 40878U 41379U 41962U 42031U 43357U 43453U 43522U
                                                 43975U 44226U 44285U 45276U 45359U 45428U 46713U 46809U 46878U 47454U
                                                 47513U 48922U 49098U 49238U 49299U 49363U 49959U 50028U 50407U 50466U
                                                 53817U 59227U 59289U 59422U 63680U 64465U 66294U 68231U 68520U 68579U
                                                 69903U 69993U
 @R6           0 00000000 FFFFFFF8     @     793   967U  6936U  9808U 10136U 10344U 10403U 10764U 11183U 11384U 12237U
                                                 12396U 12947U 13103U 13645U 13844U 15204U 15361U 16341U 16522U 17218U
                                                 17421U 18064U 18168U 18286U 18418U 19418U 19571U 20550U 20751U 21444U
                                                 21622U 22096U 22246U 23483U 23605U 23811U 24025U 26278U 26449U 26876U
                                                 27089U 27607U 27777U 28639U 28659U 29462U 29482U 30009U 30218U 30710U
                                                 30875U 31527U 31659U 31965U 32127U 32363U 32546U 32846U 33005U 35075U
                                                 35307U 35764U 35923U 36461U 36582U 37033U 37192U 37608U 37744U 38003U
                                                 38136U 38427U 38639U 38888U 38995U 39245U 39810U 40933U 41140U 42085U
                                                 42268U 43577U 43775U 45519U 45703U 46933U 47117U 47568U 47871U 47972U
                                                 48113U 49465U 49619U 50090U 50208U 51149U 51311U 52392U 52597U 54891U
                                                 55009U 55491U 55665U 56117U 56244U 56543U 56681U 56939U 57061U 57250U
                                                 57389U 57594U 58869U 59502U 59642U 59980U 60104U 60343U 60466U 60634U
                                                 60771U 61127U 61230U 61303U 61501U 62154U 62272U 62587U 62841U 63099U
                                                 63245U 63464U 63600U 63690U 63867U 64008U 64288U 64678U 65819U 65956U
                                                 66299U 66492U 69144U 69837U 72186U 72422U 72944U 73085U 73562U 73713U
                                                 77027U 77201U 81076U
 @R7           0 00000000 FFFFFFF7     @     806   963U  7067U  9573U  9803U 10019U 10210U 11178U 12232U 12942U 13361U
                                                 13389U 13951U 14677U 15194U 16331U 17203U 17520U 17956U 18059U 19383U
                                                 20545U 21449U 22074U 22372U 23293U 23389U 23475U 23673U 23806U 24063U
                                                 26163U 26273U 26866U 27149U 27593U 29496U 29904U 30004U 30705U 31522U
                                                 31960U 32841U 34875U 34895U 34970U 35070U 35362U 35659U 35759U 35978U
                                                 36355U 36456U 36637U 36928U 37028U 37247U 37512U 37603U 37823U 37985U
                                                 38191U 38417U 38677U 38883U 39033U 39240U 39865U 40827U 40928U 41195U
                                                 41980U 42080U 42323U 43471U 43572U 43830U 44244U 45377U 45514U 45758U
                                                 46827U 46928U 47172U 47472U 47563U 47706U 47724U 47732U 47962U 48211U
                                                 49116U 49213U 49460U 49977U 50077U 50425U 51055U 52387U 53242U 53576U
                                                 53811U 54065U 54212U 54874U 55061U 55481U 56105U 60160U 60338U 60629U
                                                 62149U 63078U 63455U 63685U 63804U 63872U 64162U 66765U 66963U 67948U
                                                 69139U 69758U 69919U 70001U 72109U 72939U 76344U 76389U 80617U 80661U
 @R8           0 00000000 FFFFFFF6     @     819   959U  7887U  9970U 10415U 10531U 10641U 11155U 12632U 12927U 21454U
                                                 24800U 25932U 26871U 28700U 28726U 28885U 29034U 29238U 29271U 33976U
                                                 34134U 36238U 41875U 44883U 44919U 45288U 48456U 49889U 51527U 51547U
                                                 51849U 53901U 58341U 58719U 60333U 61706U 68011U 68210U 71819U 72081U
                                                 72929U 73552U 77017U 81066U
 @R9           0 00000000 FFFFFFF5     @     832   955U 11161U 20535U 20917U 21064U 21192U 21432U 22064U 25967U 28346U
                                                 33971U 36172U 41870U 45283U 49934U 50085U 50382U 51144U 51843U 54217U
                                                 59077U 72924U 73557U 77022U 81071U
 @SDADDR       4 00000000 FFFFFFBB     A    3992 44004
 @SDFGLOB    128 00000009 FFFFFFBB         3998 43934  44117  44143  44337  44539  44593  45150  45221
 @SDF1         1 00000009 FFFFFFBB     R    3997  3998
 @SDHASH       1 00000008 FFFFFFBB     X    3994 45292
 @SDLEN        4 00000004 FFFFFFBB     A    3993 44005
 @SEG         13 00000000 FFFFFFC6     J    3627 74398U 74406M 74406  74491M 74491  74563M 74563  74633M 74633  74703M
                                                 74703  74786M 74786  74837M 74837  74921M 74921  74991M 74991  75057M
                                                 75057  75458U 75466M 75466  75551M 75551  75623M 75623  75693M 75693
                                                 75763M 75763  75846M 75846  75897M 75897  75981M 75981  76051M 76051
                                                 76117M 76117  76587U 76595M 76595  76679M 76679  77929U 77937M 77937
1PAGESERV (PAGE00) (09:42) (22MAR04) Ordinary Symbol and Literal Cross Reference                                            Page  474
                                                 78022M 78022  78094M 78094  78164M 78164  78234M 78234  78317M 78317
                                                 78368M 78368  78452M 78452  78522M 78522  78588M 78588  78878U 78886M
                                                 78886  78970M 78970  79049M 79049  79100M 79100  79184M 79184  79254M
                                                 79254  79320M 79320  79721U 79729M 79729  79814M 79814  79886M 79886
                                                 79956M 79956  80026M 80026  80109M 80109  80160M 80160  80244M 80244
                                                 80314M 80314  80380M 80380  80859U 80867M 80867  80951M 80951
 @SEGB       128 0000000C FFFFFFC6         3587  3602   3602  74466M 74547M 74897M 75526M 75607M 75957M 76655M 77997M
                                                 78078M 78428M 78946M 79160M 79789M 79870M 80220M 80927M
 @SEGCB        4 00000000 FFFFFFC6     A    3578 74460M 74541M 74617M 74687M 74757M 74805M 74891M 74975M 75041M 75111M
                                                 75520M 75601M 75677M 75747M 75817M 75865M 75951M 76035M 76101M 76171M
                                                 76649M 76729M 77991M 78072M 78148M 78218M 78288M 78336M 78422M 78506M
                                                 78572M 78642M 78940M 79020M 79068M 79154M 79238M 79304M 79374M 79783M
                                                 79864M 79940M 80010M 80080M 80128M 80214M 80298M 80364M 80434M 80921M
                                                 81001M
 @SEGICB       4 00000000 FFFFFFC5     A    3639 74363M 75423M 76552M 77894M 78843M 79686M 80824M
 @SEGILEN      2 0000000C FFFFFFC5     Y    3642 74330M 75390M 76519M 77861M 78810M 79653M 80791M
 @SEGILOC      4 00000008 FFFFFFC5     A    3641 74313M 75373M 76502M 77844M 78793M 79636M 80774M
 @SEGINIT     14 00000000 FFFFFFC5     J    3649 74287U 74295M 74295  75347U 75355M 75355  76476U 76484M 76484  77818U
                                                 77826M 77826  78767U 78775M 78775  79610U 79618M 79618  80748U 80756M
                                                 80756
 @SEGIRTN      4 00000004 FFFFFFC5     A    3640 74344M 75404M 76533M 77875M 78824M 79667M 80805M
 @SEGLEN       4 00000008 FFFFFFC6     A    3580 74441M 74522M 74598M 74668M 74738M 74872M 74956M 75022M 75092M 75501M
                                                 75582M 75658M 75728M 75798M 75932M 76016M 76082M 76152M 76630M 76710M
                                                 77972M 78053M 78129M 78199M 78269M 78403M 78487M 78553M 78623M 78921M
                                                 79001M 79135M 79219M 79285M 79355M 79764M 79845M 79921M 79991M 80061M
                                                 80195M 80279M 80345M 80415M 80902M 80982M
 @SEGLOC       4 00000004 FFFFFFC6     A    3579 74424M 74505M 74581M 74651M 74721M 74855M 74939M 75005M 75075M 75484M
                                                 75565M 75641M 75711M 75781M 75915M 75999M 76065M 76135M 76613M 76693M
                                                 77955M 78036M 78112M 78182M 78252M 78386M 78470M 78536M 78606M 78904M
                                                 78984M 79118M 79202M 79268M 79338M 79747M 79828M 79904M 79974M 80044M
                                                 80178M 80262M 80328M 80398M 80885M 80965M
 @SEGT        64 0000000C FFFFFFC6         3592  3602   3602
 @SEGTYPE      1 0000000C FFFFFFC6     R    3583  3587   3592   3603   3608   3613   3618
 @SEGXFLG      1 0000000D FFFFFFC3     R    3687  3691   3696   3701   3706   3711
 @SETSWAP      5 00000000 FFFFFF83     J    6667 18851U 18859M 18859  19520U 19527U
 @SGECB        4 00000008 FFFFFFD5     A    2962 15058M 17180M 18271M 63062M
 @SICBPCB      4 00000000 FFFFFF71     A   31565 29828M 30656M 31674
 @SICBS        4 00000000 FFFFFF71     J   31572 29809U 29817M 29817  30637U 30645M 30645  31613U
 @SIFPCB       4 00000000 FFFFFF72     A   30781 29555M 30612M 30890
 @SIFRAME      4 00000000 FFFFFF72     J   30788 29536U 29544M 29544  30593U 30601M 30601  30829U
 @SIGNAL      20 00000000 FFFFFFD5     J    2975 15033U 15041M 15041  17155U 17163M 17163  18246U 18254M 18254  63037U
                                                 63045M 63045
 @SIVA         4 00000000 FFFFFF58     A   63505 63615  67747M
 @SOAMT        4 00000000 FFFFFF79     A   21528 18663M 22050
 @SSFLAG       1 00000004 FFFFFF83     R    6659 18884  19612M 19723M 20351M
 @SSPCB        4 00000000 FFFFFF83     A    6656 18870M 19593
 @SUSPFLG      1 00000008 FFFFFFE5     R    2542  2546   2551   2556
 @SWAPIN       4 00000000 FFFFFF76     J   26362 25887U 25895M 25895  26403U
 @SWAPOUT      4 00000000 FFFFFF79     J   21535 18645U 18653M 18653  21576U
 @SWASB        4 00000000 FFFFFFBF     A    3856 17443  24040
 @SWDONE       4 00000000 FFFFFF74     J   27685 19262U 19270M 19270  22905U 22913M 22913  24455U 24463M 24463  26030U
                                                 26038M 26038  27522U 27530M 27530  27726U 27733U 30167U 30174U
 @SWDPCB       4 00000000 FFFFFF74     A   27678 19281M 22924M 24474M 26049M 27541M 27824  30233
 @SWFINP       0 00000004 FFFFFFBF         3869 24147M 24299M 26088M
 @SWFLG        1 00000004 FFFFFFBF     R    3860  3869   3879   3889
 @SWFOK        4 00000004 FFFFFFBF         3879 17662M 24489M 26064M
 @SWFWAIT      8 00000004 FFFFFFBF         3889 25375M
 @SWICB        4 00000000 FFFFFF76     A   26355 25906M 26464
 @TCRFLAG      1 00000014 FFFFFFE1     R    2657  2661   2666
1PAGESERV (PAGE00) (09:42) (22MAR04) Ordinary Symbol and Literal Cross Reference                                            Page  475
 @VAF1         1 0000000D FFFFFF70     R   32024 32025
 @VALASP       8 00000000 FFFFFF70     D   32015 28339M 32336  49307M
 @VALDASN     14 00000000 FFFFFF70     J   32034 28315U 28323M 28323  32075U 32082U 49275U 49283M 49283
 @VALPARM      1 0000000C FFFFFF70     X   32021 28364M 32333  49344M
 @VAOK       128 0000000D FFFFFF70        32025 32356M
 @VAPASN       2 00000006 FFFFFF70     H   32019 32142  49309M
 @VAPSTO       4 00000008 FFFFFF70     A   32020 28359M 32276  49339M
 @VASASN       2 00000002 FFFFFF70     H   32017 49310M
 @VIRTABL     32 00000000 FFFFFF8A     J    6425  7313U  7321M  7321   9924U 10814U 10822M 10822  11614U 11622M 11622
                                                 44994U 45002M 45002  72505U 72513M 72513
 @VMFLEN       4 00000004 FFFFFFE9     A    2444 51024M 51089M 66271M 72169M 73436M 73490M 75173M 76233M 76930M 76975M
                                                 78704M 79436M 80496M
 @VMFLOC       4 00000000 FFFFFFE9     A    2443 51035M 51099M 66282M 72174M 73447M 73501M 75184M 76244M 76935M 76986M
                                                 78715M 79447M 80507M
 @VMFPOOL      2 00000008 FFFFFFE9     H    2445 51036M 51100M 66283M 72175M 73448M 73502M 75185M 76245M 76936M 76987M
                                                 78716M 79448M 80508M
 @VMFREE      10 00000000 FFFFFFE9     J    2452 50999U 51007M 51007  51079M 51079  66246U 66254M 66254  72144U 72152M
                                                 72152  73411U 73419M 73419  73473M 73473  75148U 75156M 75156  76208U
                                                 76216M 76216  76917U 76925M 76925  76958M 76958  78679U 78687M 78687
                                                 79411U 79419M 79419  80471U 80479M 80479
 @VMGET       11 00000000 FFFFFFEA     J    2431 44362U 44370M 44370  44426M 44426  48398U 48406M 48406  60872U 60880M
                                                 60880  63280U 63288M 63288  64086U 64094M 64094  64240U 64248M 64248
                                                 64399U 64407M 64407  65987U 65995M 65995  66543U 66551M 66551  67010M
                                                 67010  69401U 69409M 69409  70083U 70091M 70091  70171M 70171  70231M
                                                 70231  71956U 71964M 71964  73130U 73138M 73138  73195M 73195  73923U
                                                 73931M 73931  76297U 76305M 76305  77455U 77463M 77463  80559U 80567M
                                                 80567
 @VMGFLG       1 0000000A FFFFFFEA     R    2413  2417   2422
 @VMGLEN       4 00000000 FFFFFFEA     A    2408 44382M 44438M 48416M 60890M 63305M 64107M 64265M 64420M 66012M 66561M
                                                 67020M 69426M 70108M 70181M 70248M 71974M 73155M 73212M 73948M 76315M
                                                 77480M 80577M
 @VMGONEP     64 0000000A FFFFFFEA         2422 63312M 69433M 70115M 73955M 77487M
 @VMGPAGE    128 0000000A FFFFFFEA         2417 44389M 44445M 48423M 60897M 64114M 64427M 67027M 71981M 73219M
 @VMGPOOL      2 00000008 FFFFFFEA     H    2410 44383M 44439M 48417M 60891M 63306M 64108M 64266M 64421M 66013M 66562M
                                                 67021M 69427M 70109M 70182M 70249M 71975M 73156M 73213M 73949M 76316M
                                                 77481M 80578M
 @VPFLG        1 00000008 FFFFFF8A     R    6362  6368   6378   6388   6398   6408   6417   6417
 @VPFOK        0 00000008 FFFFFF8A         6368 10396M 45039
 @VPFPCB       4 0000001C FFFFFF8A     A    6416 10000M 10138M 72536
 @VPFPEI      16 00000008 FFFFFF8A         6408 10372M 11695  72551
 @VPFPLI      64 00000008 FFFFFF8A         6388 10259M 10869  11677
 @VPFSEI      32 00000008 FFFFFF8A         6398 10221M 10933  11763
 @VPFSLI     128 00000008 FFFFFF8A         6378 10050M 10857  11665
 @VPPARM      24 00000008 FFFFFF8A     U    6417  7353
 @VPPCB        4 00000004 FFFFFF8A     A    6355  7341M  9985  10098  10838M 11637M 45022M 72528M
 @VPPGTE       4 00000014 FFFFFF8A     A    6414 10352M 10894  11701  45048  72562
 @VPSGTE       4 0000000C FFFFFF8A     A    6412 10040M 10895
 @VPSPTE       4 00000018 FFFFFF8A     A    6415 10349M
 @VPSSTE       4 00000010 FFFFFF8A     A    6413 10044M 11769  72589
 @VPVA         4 00000000 FFFFFF8A     A    6354  7331M 10029  10827M 11627M 45012M 72518M
 @WSFGLOB    128 0000000C FFFFFFBD         3938 33160  33343  33387
 @WSFLG        1 0000000C FFFFFFBD     R    3934  3938
 @WSINT        4 00000004 FFFFFFBD     A    3930 33279
 @WSLIMIT      4 00000008 FFFFFFBD     A    3931  7268M 33277  34788
 @WTHEAD       4 00000000 FFFFFF5B     A   61366 53189M 56024M 59039M 61533
 @WTLOCK       4 00000004 FFFFFF5B     A   61367 56029M 59044M 61612
 @WTPCB        4 00000008 FFFFFF5B     A   61368 42948M 46276M 53200M 56040M 59055M 61516
 @XPCNT        4 00000000 FFFFFF8E     A    6251 19967M 56287
 @XPDSDES      4 0000000C FFFFFF8E     A    6255 19998  55872M 56453M
1PAGESERV (PAGE00) (09:42) (22MAR04) Ordinary Symbol and Literal Cross Reference                                            Page  476
 @XPFLG        1 00000010 FFFFFF8E     R    6258  6259
 @XPGET       17 00000000 FFFFFF8E     J    6268  8095U  8103M  8103  19942U 19950M 19950  33849U 33857M 33857  44617U
                                                 44625M 44625  48997U 49005M 49005  55614U 55621U 56193U 56200U 68150U
                                                 68158M 68158
 @XPOK       128 00000010 FFFFFF8E         6259  8120  19984  33874  55880M 56460M
 @XPPCB        4 00000004 FFFFFF8E     A    6252 44636M 49015M 55933  68168M
 @XPRBLK       4 00000008 FFFFFF8E     A    6254 55861M 56442M
 @XPRCB        4 00000008 FFFFFF60     A   56587 20232M 31844M 57149
 @XPREL       12 00000000 FFFFFF60     J   56594 16017U 16025M 16025  20197U 20205M 20205  31809U 31817M 31817  43147U
                                                 43155M 43155  46507U 46515M 46515  51786U 51794M 51794  52073M 52073
                                                 56635U 57010U 57017U
 @XPRLBLK      4 00000000 FFFFFF60     A   56585 16035M 20210M 31822M 43160M 46520M 51799M 52078M 56746  57124
 @XPRNUM       4 00000004 FFFFFF60     A   56586 20227M 31839M 57144  57213
 ACREATE       1 00000000 00000016     T   73596 73596
 ADDSWAP       4 00001D88 00000001     I   20650 20485  20661U
 ADDSWAP4      2 00001D7C 00000001     H   20645 20644
 AFTASTM       1 7FFFFFF0 FFFFFFAB A   U    5084 35177  61339  69262  72295
 AFTASTO       4 00000000 FFFFFFAB     A    5074  5081  32190  32679  59216  59755  64144M 64457M 68999  69791
 AFTE          4 00000000 FFFFFFAB     J    5098 32185U 32674U 58756  58931U 59696U 64130U 64451U 68994U 69785U
 AFTFINV     128 00000000 FFFFFFAB         5081 58946  59710
 AFTLOG        1 00000002 FFFFFFAB A   N    5091 32145  32631  58920  59069  59685  68982
 AFTNXT        4 00000004 FFFFFFAB     A    5085 64145  64458
 AGESWAP4      2 000018D2 00000001     H   18340 18339
 AGISEND4      2 00002AEE 00000001     H   26951 26950
 AGPGINI4      2 00007888 00000001     H   63744 63743
 AGPROT24      2 000042A4 00000001     H   38561 38560
 AGSGINI4      2 0000782A 00000001     H   63522 63521
 AGUPROT4      2 0000436A 00000001     H   38917 38916
 AKELOOK4      2 000075A0 00000001     H   62194 62193
 AKEROOM4      2 00001866 00000001     H   18103 18102
 ALIDASN4      2 00003588 00000001     H   32043 32042
 ASABORT       2 00001F34 00000001     H   21476 21044B
 ASB          68 00000000 FFFFFFB2     J    4357  6998U  9542U 10123U 11477U 11906U 13348U 13938U 14070U 14646U 17453U
                                                 17925U 22359U 23252U 23660U 24050U 26132U 26502U 27136U 27992U 28334U
                                                 29873U 32571U 33054U 33188U 34878U 34939U 35349U 35628U 35965U 36159U
                                                 36324U 36624U 36897U 37234U 37481U 37810U 38178U 38664U 39020U 39852U
                                                 40796U 41182U 41366U 41949U 42310U 42641U 43440U 43817U 43962U 44213U
                                                 45346U 45745U 46796U 47159U 47441U 47692U 47727U 47897U 48199U 48248U
                                                 48443U 49258U 49302U 49321U 49661U 49937U 49954U 50250U 50385U 50402U
                                                 50578U 53563U 53888U 54052U 55048U 60147U 61693U 63342U 66752U 68974U
                                                 69734U 69968U
 ASBFGBLC    128 00000014 FFFFFFB2         4331 69745M
 ASBGCFLG      1 00000014 FFFFFFB2     R    4327  4331
 ASBLASP       8 00000008 FFFFFFB2     D    4317 28339  49307  50891M 50891  50894  69097
 ASBLPARM      1 00000003 FFFFFFB2 A   U    4322 35181  52436  69265
 ASBPAGB       4 00000020 FFFFFFB2     A    4340  7060   9548  10129  11483  11912  13354  13944  14076  14652  17513
                                                 17931  22365  23258  23666  24056  26138  27142  27998  29879  33060
                                                 33194  34884  34945  35355  35634  35971  36165  36330  36630  36903
                                                 37240  37487  37816  38184  38670  39026  39858  40802  41188  41372
                                                 41955  42316  42647  43446  43823  43968  44219  45352  45751  46802
                                                 47165  47447  47696  47955M 48204  48254  48449  49665  49943  50254
                                                 50391  50582  50889M 50889  53569  53894  54058  55054  60153  61699
                                                 66758  69739M
 ASBPASN       2 0000000E FFFFFFB2     H    4321 17468M 17468  32575  49355M 50890  68979  69979M 69979
 ASBPCB      184 00000000 FFFFFFAD     J    4985  7078U  7575U  7845U  8201U  8879U  9110U  9193U  9576U  9619U  9995U
                                                 10108U 10158U 10789U 11409U 11496U 11931U 12145U 12421U 13372U 13962U
                                                 14089U 14680U 14723U 14860U 15626U 15638U 16731U 16746U 17531U 17959U
                                                 17992U 18797U 19603U 21670U 22383U 23296U 23329U 23409U 23684U 24074U
                                                 26166U 26209U 27160U 27855U 28014U 28066U 28185  28687U 28713U 28913
1PAGESERV (PAGE00) (09:42) (22MAR04) Ordinary Symbol and Literal Cross Reference                                            Page  477
                                                 29021U 29337  29517U 29907U 29950U 30243U 30900U 31684U 33078U 33207U
                                                 33820U 33915U 33989U 34145U 34509U 34898U 34973U 35016U 35373U 35662U
                                                 35705U 35989U 36178U 36358U 36401U 36648U 36931U 36974U 37258U 37515U
                                                 37548U 37834U 37845  37979  38202U 38269  38688U 39044U 39876U 40830U
                                                 40873U 41206U 41385U 41983U 42026U 42334U 42660U 43474U 43517U 43841U
                                                 43850U 44247U 44280U 44725U 45380U 45423U 45769U 46830U 46873U 47183U
                                                 47475U 47508U 47709U 47950U 48222U 48230U 48267U 48462U 48665  49119U
                                                 49136U 49216U 49233U 49675U 49980U 50023U 50264U 50428U 50461U 50587U
                                                 50787  51019  51337U 52658U 53587U 53907U 54076U 54672U 55072U 55087
                                                 55943U 58980U 60171U 61526U 61712U 62033U 62752U 63020U 63300  63327U
                                                 63352M 63352  63356  66776U 66966U 66983U 67646  67785U 67951U 67968U
                                                 69720U 69814U 69922U 69940U 72447U 72722U
 ASBPCBID      4 00000008 FFFFFFAD     C    4803 63353M
 ASBSASN       2 0000000A FFFFFFB2     H    4319 49356M 69986M 69986
 ASCABORT      2 0000592C 00000001     H   49491 48978B
 ASNAFT        1 00001000 00000001 A   U   58756 66339
 ASNAFTN       1 00000400 00000001 A   U   58752 58756  61337  64136
 ASNAST        1 00000400 00000001 A   U   58757 59242  64435
 ASNASTN       1 00000040 00000001 A   U   58754 58757  61337  64481
 ASNFREE       4 0000701C 00000001     I   59564 52437  59575U
 ASNFREE4      2 00007010 00000001     H   59559 59558
 ASNGET        4 00006E4E 00000001     I   58791 52420  58802U
 ASNGET4       2 00006E42 00000001     H   58786 58785
 ASNINIT       4 000078E6 00000001     I   63935 63946U 72293
 ASNINIT4      2 000078DA 00000001     H   63930 63929
 ASSYSTSK      1 00000000 00000007     T   23877 23877
 ASTATL        2 00000006 FFFFFFAA     H    5122 69864M
 ASTATO        4 00000000 FFFFFFAA     A    5111  5118  59271  59835  59880M 64495M 69863M
 ASTE         16 00000000 FFFFFFAA     J    5160  6109  32269U 32758U 58757  59242  59243  59255U 59410U 59415M 59819U
                                                 61333  64476U 64494M 64494  66340  69068U 69854U
 ASTFINV     128 00000000 FFFFFFAA         5118 32284M 32772  32786M 69083M 69870M
 ASTLOG        1 00000004 FFFFFFAA A   N    5153 32258  59240  59808  69057
 ASTLTD        4 0000000C FFFFFFAA     A    5135  5142
 ASTNXT        4 00000010 FFFFFFAA     A    5147 64496
 ASTSTD        4 00000008 FFFFFFAA     A    5123  5130  32274  32277M 69073  69076M 69862M
 ASTSTL        1 0000007F FFFFFFAA A   U    5134 35180  69264
 AWAITAS       1 00000000 00000008     T   23879 23879  52434  66328
 BADADV        2 00002426 00000001     H   23836 23702B 23714B
 BASE                     00000001 A   U   28423 28479  28542  28543  28544
 BASE                     00000001 A   U   28753 28809  28941  28942  28943
 BASE                     00000001 A   U   29060 29116  29365  29366  29367
 BLKDSID       4 00006A16 00000001     I   57316 13713  57327U 61325
 BLKDSID4      2 00006A0A 00000001     H   57311 57310
 BMAINWRD      2 00006B82 00000001     H   57861 57906B
 BMALLOC       4 00006AE2 00000001     I   57641 55839  56419  57652U
 BMALLOC4      2 00006AD6 00000001     H   57636 57635
 BMALOOK       2 00006B4E 00000001     H   57793 57947B 58103B
 BMFREE        4 00006D1C 00000001     I   58386 56815  57157  58397U
 BMFREE4       2 00006D10 00000001     H   58381 58380
 BR           10 0000000A FFFFFFFF A   #    1136  6864M  6874U  9898M  9908U 10459M 10469U 10692M 10702U 11307M 11317U
                                                 12323M 12333U 13030M 13040U 13774M 13784U 15289M 15299U 16445M 16455U
                                                 17344M 17354U 18109M 18119U 18346M 18356U 19494M 19504U 20651M 20661U
                                                 21550M 21560U 22169M 22179U 23528M 23538U 23948M 23958U 26377M 26387U
                                                 26957M 26967U 27700M 27710U 30042U 30141M 30151U 30803M 30813U 31587M
                                                 31597U 32049M 32059U 32473M 32483U 32928M 32938U 35230M 35240U 35846M
                                                 35856U 36505M 36515U 37115M 37125U 37672M 37682U 38064M 38074U 38471M
                                                 38481U 38567M 38577U 38923M 38933U 39292M 39302U 39404M 39414U 39512M
                                                 39522U 39733M 39743U 41063M 41073U 42191M 42201U 43691M 43701U 45626M
                                                 45636U 47040M 47050U 47647M 47657U 47799M 47809U 48036M 48046U 49547M
1PAGESERV (PAGE00) (09:42) (22MAR04) Ordinary Symbol and Literal Cross Reference                                            Page  478
                                                 49557U 50136M 50146U 51234M 51244U 52519M 52529U 54937M 54947U 55588M
                                                 55598U 56167M 56177U 56609M 56619U 56984M 56994U 57317M 57327U 57642M
                                                 57652U 58387M 58397U 58792M 58802U 59565M 59575U 60027M 60037U 60389M
                                                 60399U 60699M 60709U 61171M 61181U 61424M 61434U 62200M 62210U 62660M
                                                 62670U 63173M 63183U 63528M 63538U 63750M 63760U 63936M 63946U 64351M
                                                 64361U 64599M 64609U 65884M 65894U 66413M 66423U 69314M 69324U 72221M
                                                 72231U 72350M 72360U 73026M 73036U 73636M 73646U 77124M 77134U
 BRR          11 0000000B FFFFFFFF A   #    1148 15844M 20970M 20971M 21006  21250M 21376  28074M 28075  28123M 28124M
                                                 28152  28165  28166M 28167M 28177U 28386M 28387  28461M 28461  28542M
                                                 28543M 28791M 28791  28941M 28942M 29011M 29098M 29098  29365M 29366M
                                                 33750M 33820U 33915U 33989U 34145U 43845M 43968M 51344M 51345M 51374U
                                                 51856M 51883M 51884M 51913U 52091M 52118M 52119M 52148U 52261M 53633M
                                                 53633  53777  53780  53783  53800M 53801
 CELLALL       4 00007296 00000001     I   60698 52432  60709U
 CELLALL4      2 0000728A 00000001     H   60693 60692
 CELLDALL      4 0000739C 00000001     I   61170 52435  61181U
 CELLFREE      4 00007204 00000001     I   60388 17285  23887  30754  35175  60399U
 CELLGET       4 00007160 00000001     I   60026 13710  23883  60037U
 CELLGET4      2 00007154 00000001     H   60021 60020
 CHAINSEG      2 000003CE 00000001     H    8655  8767B
 COMM                     00000001 A   U   10158 10178
 COMM                     00000001 A   U   11496 11516
 COMM                     00000001 A   U   14089 14105  14132
 COMM                     00000001 A   U   28014 28043  28061  28129  28183  28235
 COMM                     00000001 A   U   33207 33220
 COMM                     00000001 A   U   36178 36191  36206
 COMM                     00000001 A   U   41385 41398
 COMM                     00000001 A   U   42660 42683
 CPAGCEL       1 00000100 00000001 A   U   81110 70305
 CPAGIOKEY
               1 000000F0 00000001 A   U   81109 12753  12897  26558  26819  69496
 CPAGLASP      1 00000003 00000001 A   U   81107 29841
 CPLOCK        1 00000000 0000000C     T   52429 52429
 CPULOCK       1 00000000 0000000D     T   52431 52431
 CSWPAVG       1 00000050 00000001 A   U   81112 70431
 CSWPCEL       1 00000019 00000001 A   U   81111 70368
 DALAINFO     96 0000000C FFFFFF95     X    5908 73803U 77291U
 DALCP         4 00000000 FFFFFF95     A    5898  5900   5902   5904
 DALOINFO     32 0000006C FFFFFF95     X    5910 73810U 77298U
 DALPDAT      12 00000000 FFFFFF95     X    5899 73775U 77263U
 DALPRSET      4 00000000 FFFFFF95     X    5901 73782U 77270U
 DALSDAT      12 00000000 FFFFFF95     X    5903 73789U 77277U
 DALSRSET      4 00000000 FFFFFF95     X    5905 73796U 77284U
 DISABLE       1 00000004 FFFFFFAE A   U    4756  4757   7085  13978  17538  18569  18886  19346  22390  23621  24081
                                                 27358  27878  30286  32151  33085  35402  36018  36672  37287  39998
                                                 41261  42392  43857  44459  45827  47190  48492  49243  49684  50273
                                                 50614  51326  52613  53209  55681  56260  57077  58885  59158  59658
                                                 60191  60497  61012  62382  64901  65136  65445
 DISPPIOC      1 00000000 00000003     T   17283 17283
 DISPPTLB      1 00000000 0000000A     T   35190 35190  41006  55555
 DISPSHLD      1 00000000 00000006     T   23876 23876
 DISPSIOC      1 00000000 00000009     T   23882 23882  30743
 DOSXPF        2 00001C58 00000001     H   20090 19987B
 DSAID         4 00000000 FFFFFF94     A    5934 15498  16645  22542  26648  27253  55745  56324  57442  57698  58443
                                                 70147M 74034M 77567M
 DSAVAIL       4 00000010 FFFFFF94     A    5938 57756  58326  58328M 58703  58705M 70150M 75199M 76813  76830M 80533M
 DSCHAIN       4 0000001C FFFFFF94     A    5941 55841  56421  57508  70201M 74004M 76378M 77537M 80650M
 DSCHID        4 00000014 FFFFFF94     A    5939 21936  26693  57578  74158M 75261  77690M 79526
 DSCOUNT       4 0000000C FFFFFF94     A    5937 57498  57507  57927  58515  70149M 75198M 76274  76812  76815  79464M
1PAGESERV (PAGE00) (09:42) (22MAR04) Ordinary Symbol and Literal Cross Reference                                            Page  479
                                                 80523  80532M
 DSDES        56 00000000 FFFFFF94     J    5956 15483U 16630U 16957U 21930U 22526U 26632U 27237U 55730U 56309U 57427U
                                                 57571U 57683U 58428U 70103  70135U 70146M 70146  73943  74000U 74023U
                                                 74033M 74033  75168  76228  76359U 76794U 76804U 76970  77475  77533U
                                                 77556U 77566M 77566  78699  79431  80491  80631U
 DSINCNT       4 00000020 FFFFFF94     A    5945 15547  15548M 27302  27303M
 DSINTIME      8 00000028 FFFFFF94     D    5947 15550  15572M 27306  27328M
 DSLEN         4 00000008 FFFFFF94     A    5936 57766  58140  58526  70188M 76322M 76837  76838  76854  76883  76884
                                                 76930  80584M
 DSLOC         4 00000004 FFFFFF94     A    5935 57765  57797  58142  58528  70187M 76321M 76853  76891  76892  76935
                                                 80583M
 DSOFFSET      4 00000018 FFFFFF94     A    5940 55873  74035M
 DSOUTCNT      4 00000024 FFFFFF94     A    5946 16694  16695M 22591  22592M
 DSOUTTIME
               8 00000030 FFFFFF94     D    5948 16697  16719M 22594  22616M
 ELLDALL4      2 00007390 00000001     H   61165 61164
 ELLFREE4      2 000071F8 00000001     H   60383 60382
 EPAR         15 0000000F FFFFFFFF A   #    1196  6033   6033   6864   7108M  7109B  7274M  7275B  7347M  7348B  7575U
                                                  7611M  7612B  7784M  7785B  7840M  7925M  7926M  7927M  7928   7935M
                                                  7943M  8109M  8110B  8168M  8178U  8196M  8288M  8289B  8328M  8329M
                                                  8330M  8331M  8341U  8496M  8504M  8733M  8734B  8879U  8915M  8916B
                                                  9055M  9056B  9130M  9131M  9132M  9133   9183M  9193U  9235M  9236M
                                                  9237M  9238M  9248U  9284M  9292M  9443M  9451M  9607M  9608B  9660M
                                                  9661B  9753M  9754B  9786M  9787B  9898  10184M 10185B 10319M 10320B
                                                 10459  10692  10844M 10845B 11071M 11072B 11148M 11149B 11307  11522M
                                                 11523B 11643M 11644B 11961M 11962B 12035M 12036B 12110M 12111B 12170M
                                                 12171B 12323  12505M 12506B 12559M 12560B 12787M 12788B 12911M 12912B
                                                 13030  13179M 13180B 13430M 13431B 13502M 13503B 13623M 13624B 13774
                                                 14001M 14002B 14138M 14139B 14250M 14251B 14252M 14259  14262M 14444M
                                                 14445B 14530M 14531B 14591M 14592B 14711M 14712B 14764M 14765B 14822M
                                                 14823B 14885M 14892  14895M 14986M 14987B 15061M 15062B 15182M 15183B
                                                 15289  15439M 15440B 15822M 15823B 15843M 15859  15888  16041M 16042B
                                                 16111M 16117  16146  16191M 16192M 16193M 16194M 16204U 16295M 16296B
                                                 16445  16586M 16587B 17053M 17054M 17055M 17056M 17066U 17183M 17184B
                                                 17344  17561M 17562B 17755M 17756B 17852M 17862U 17892M 17893B 17980M
                                                 17981B 18033M 18034B 18050M 18051B 18109  18274M 18275B 18346  18456M
                                                 18457B 18463M 18464B 18482M 18483B 18528M 18529B 18595M 18596B 18671M
                                                 18672B 18836M 18837B 18878M 18879B 18912M 18913B 19042M 19043B 19158M
                                                 19159B 19198M 19208U 19240M 19241B 19287M 19288B 19320M 19321B 19372M
                                                 19373B 19404M 19405B 19494  19700M 19701B 19973M 19974B 20055M 20056M
                                                 20238M 20239B 20331M 20332B 20485M 20486B 20651  21550  22037M 22038B
                                                 22169  22413M 22414B 22482M 22483B 22726M 22727B 22771M 22781U 22870M
                                                 22871B 22932M 22933B 22992M 23002U 23126M 23127B 23146M 23147B 23212M
                                                 23213B 23317M 23318B 23377M 23378B 23463M 23464B 23528  23644M 23645B
                                                 23768M 23769B 23794M 23795B 23948  24104M 24105B 24180M 24181B 24292M
                                                 24293B 24400M 24410U 24441M 24442B 24482M 24483B 24991M 24992B 25075M
                                                 25076B 25120M 25121B 25397M 25398B 25421M 25422B 25914M 25915B 25994M
                                                 25995B 26057M 26058B 26197M 26198B 26250M 26251B 26265M 26266B 26377
                                                 26558M 26559  26833M 26834B 26957  27192M 27193B 27384M 27385B 27493M
                                                 27494B 27549M 27550B 27582M 27583B 27700  27901M 27902B 28049M 28050B
                                                 28198M 28199M 28203  28241M 28242B 28372M 28373B 28875M 28876M 28877M
                                                 28878  28888  28891M 28892M 28893M 28894M 28904U 29196M 29197M 29215
                                                 29241M 29242M 29243M 29244  29261M 29262M 29263M 29264  29274  29275M
                                                 29276M 29277M 29278M 29288U 29563M 29564B 29671M 29672B 29760M 29761B
                                                 29836M 29837B 29938M 29939B 29991M 29992B 30141  30309M 30310B 30439M
                                                 30440B 30528M 30529B 30620M 30621B 30664M 30665B 30696M 30697B 30803
                                                 31587  31850M 31851B 31936M 31937B 32049  32174M 32175B 32255M 32256B
                                                 32322M 32323B 32473  32658M 32659B 32744M 32745B 32827M 32828B 32928
                                                 33108M 33109B 33226M 33227B 33863M 33864B 34063M 34064B 34240M 34241B
1PAGESERV (PAGE00) (09:42) (22MAR04) Ordinary Symbol and Literal Cross Reference                                            Page  480
                                                 34341M 34342B 34425M 34426B 34585M 34586M 34587M 34588M 34598U 34673M
                                                 34674B 35004M 35005B 35057M 35058B 35230  35425M 35426B 35526M 35527B
                                                 35583M 35584B 35693M 35694B 35746M 35747B 35846  36041M 36042B 36212M
                                                 36213B 36280M 36281B 36389M 36390B 36442M 36443B 36505  36695M 36696B
                                                 36796M 36797B 36822M 36823M 36824M 36825M 36835U 36962M 36963B 37015M
                                                 37016B 37115  37310M 37311B 37390M 37391M 37392M 37393M 37403U 37536M
                                                 37537B 37589M 37590B 37672  38064  38471  38529M 38530B 38567  38779M
                                                 38780B 38839M 38840B 38875M 38876B 38923  39135M 39136B 39195M 39196B
                                                 39232M 39233B 39292  39350M 39351B 39355M 39356B 39404  39462M 39463B
                                                 39512  39570M 39571B 39733  40021M 40022B 40132M 40133B 40344M 40346M
                                                 40373  40636M 40637B 40691M 40692B 40759M 40760B 40861M 40862B 40914M
                                                 40915B 41063  41284M 41285B 41404M 41405B 41492M 41493B 41793M 41794B
                                                 41848M 41849B 41916M 41917B 42014M 42015B 42067M 42068B 42191  42415M
                                                 42416B 42526M 42527B 42631M 42641U 42647M 42689M 42690B 42954M 42955B
                                                 43045M 43046B 43055M 43056M 43057M 43058M 43068U 43166M 43167B 43280M
                                                 43281B 43335M 43336B 43403M 43404B 43505M 43506B 43558M 43559B 43691
                                                 43880M 43881B 43992M 43993B 44268M 44269B 44321M 44322B 44392M 44393B
                                                 44448M 44449B 44485M 44486B 44572M 44573B 44642M 44643B 44715M 44725U
                                                 44761M 44762B 44842M 44843B 44930M 44931M 44932M 44933M 44943U 45028M
                                                 45029B 45136M 45137B 45205M 45206M 45207M 45208  45264M 45265B 45411M
                                                 45412B 45464M 45465B 45494M 45495B 45626  45850M 45851B 45961M 45962B
                                                 46282M 46283B 46373M 46374B 46383M 46384M 46385M 46386M 46396U 46526M
                                                 46527B 46636M 46637B 46691M 46692B 46759M 46760B 46861M 46862B 46914M
                                                 46915B 47040  47213M 47214B 47496M 47497B 47549M 47550B 47647  47799
                                                 47937M 47938B 48036  48369M 48370B 48426M 48427B 48518M 48519B 48693M
                                                 48694B 48849M 48850B 48873M 48874B 49021M 49022B 49246M 49247B 49350M
                                                 49351B 49368M 49369B 49443M 49444B 49547  49707M 49708B 49870M 49871B
                                                 50011M 50012B 50064M 50065B 50136  50296M 50297B 50449M 50450B 50502M
                                                 50503B 50567M 50568B 50640M 50641B 50815M 50816B 50876M 50877B 50884M
                                                 50885B 50934M 50935B 50967M 50968B 51039M 51040B 51103M 51104B 51234
                                                 51501M 51502B 51696M 51697  51739M 51740B 51805M 51806B 52021M 52022M
                                                 52023M 52024M 52034U 52040M 52049M 52050  52084M 52085B 52237M 52238B
                                                 52519  52636M 52637B 52881M 52882B 52959M 52960B 53018M 53025  53027M
                                                 53047M 53057U 53113M 53114B 53206M 53207B 53235M 53236B 53330M 53331B
                                                 53347M 53348B 53856M 53857B 53926M 53927B 54163M 54164B 54247M 54248B
                                                 54277M 54278B 54304M 54305B 54584M 54585M 54586  54606M 54616U 54649M
                                                 54650B 54937  55213M 55214B 55293M 55301  55302M 55322M 55332U 55473M
                                                 55474B 55588  55704M 55705B 55839M 55840B 55907M 55908B 56046M 56047B
                                                 56092M 56093B 56167  56283M 56284B 56419M 56420B 56487M 56488B 56530M
                                                 56531B 56609  56718M 56719B 56752M 56753B 56815M 56816B 56931M 56932B
                                                 56984  57100M 57101B 57157M 57158B 57241M 57242B 57317  57642  58387
                                                 58792  58908M 58909B 59061M 59062B 59116M 59117B 59155M 59156B 59184M
                                                 59185B 59398M 59399B 59492M 59493B 59565  59681M 59682B 59803M 59804B
                                                 59970M 59971B 60027  60214M 60215B 60249M 60250B 60322M 60323B 60389
                                                 60520M 60521B 60620M 60621B 60699  60900M 60901B 60992M 60993B 61038M
                                                 61039B 61040M 61041M 61042  61084M 61085B 61171  61424  61654M 61655B
                                                 61737M 61738B 61776M 61777B 61838M 61839B 61877M 61878B 61932M 61933B
                                                 61992M 61993B 62067M 62068B 62131M 62132B 62200  62411M 62412B 62487M
                                                 62488B 62538M 62539B 62660  62979M 62980B 63065M 63066B 63173  63315M
                                                 63316B 63394M 63395B 63528  63750  63936  64056M 64057B 64117M 64118B
                                                 64202M 64203B 64269M 64270B 64351  64430M 64431B 64599  64924M 64925B
                                                 65071M 65072B 65152M 65153B 65218M 65219M 65220  65240M 65250U 65286M
                                                 65287B 65461M 65462B 65709M 65710M 65711  65731M 65741U 65777M 65778B
                                                 65797M 65798B 65808M 65809B 65884  66016M 66017B 66286M 66287B 66413
                                                 66565M 66566B 66741M 66821M 66991M 66992  67030M 67031B 67270M 67271M
                                                 67274M 67275M 67277  67446M 67490  67652M 67653M 67654M 67655  67668M
                                                 67753M 67754B 67772M 67785U 67911M 67912B 67918M 67920M 67923M 67924M
                                                 67926  67927M 67929  68014M 68136  68174M 68175B 68176M 68417M 68418B
                                                 69054M 69055B 69130M 69131B 69314  69436M 69437B 69488M 69489  69490
1PAGESERV (PAGE00) (09:42) (22MAR04) Ordinary Symbol and Literal Cross Reference                                            Page  481
                                                 69548M 69549B 69577M 69578B 69667M 69668B 69708M 69709B 70060M 70061B
                                                 70118M 70119B 70185M 70186B 70191M 70252M 70253B 71860M 71861B 71904M
                                                 71905  71906M 71912  71936  71984M 71985B 72012M 72013M 72014  72066M
                                                 72067B 72123M 72124B 72178M 72179B 72221  72350  72534M 72535B 72712M
                                                 72722U 72758M 72759B 72849M 72850B 73026  73159M 73160B 73222M 73223B
                                                 73270M 73271B 73337M 73338B 73349M 73350B 73387M 73388B 73451M 73452B
                                                 73505M 73506B 73544M 73545B 73636  73958M 73959B 74066M 74242M 74243B
                                                 74366M 74367B 74469M 74470B 74550M 74551B 74620M 74621B 74690M 74691B
                                                 74760M 74761B 74808M 74809B 74900M 74901B 74978M 74979B 75044M 75045B
                                                 75114M 75115B 75188M 75189B 75302M 75303B 75426M 75427B 75529M 75530B
                                                 75610M 75611B 75680M 75681B 75750M 75751B 75820M 75821B 75868M 75869B
                                                 75960M 75961B 76038M 76039B 76104M 76105B 76174M 76175B 76248M 76249B
                                                 76319M 76320B 76325M 76555M 76556B 76658M 76659B 76732M 76733B 76939M
                                                 76940B 76990M 76991B 77124  77337M 77338B 77490M 77491B 77598M 77772M
                                                 77773B 77897M 77898B 78000M 78001B 78081M 78082B 78151M 78152B 78221M
                                                 78222B 78291M 78292B 78339M 78340B 78431M 78432B 78509M 78510B 78575M
                                                 78576B 78645M 78646B 78719M 78720B 78846M 78847B 78949M 78950B 79023M
                                                 79024B 79071M 79072B 79163M 79164B 79241M 79242B 79307M 79308B 79377M
                                                 79378B 79451M 79452B 79565M 79566B 79689M 79690B 79792M 79793B 79873M
                                                 79874B 79943M 79944B 80013M 80014B 80083M 80084B 80131M 80132B 80223M
                                                 80224B 80301M 80302B 80367M 80368B 80437M 80438B 80511M 80512B 80525M
                                                 80532  80533  80535  80581M 80582B 80587M 80827M 80828B 80930M 80931B
                                                 81004M 81005B
 FLTSZERO      4 00007E30 00000001     X   65844 64850  65341
 FLTZERO       8 00007E28 00000001     X   65843 64801
 FRAMEGET      4 00005F9E 00000001     I   52518 13693  30736  47764  48849  52529U 73584
 FRAMEREL      4 000064E2 00000001     I   54936 13711  17281  35195  47757  52442  54947U
 FRAMTERM      4 00005C6A 00000001     I   51233 50876  51244U
 FRAMWAIT      2 00005FCE 00000001     H   52644 54568B
 GBL                      00000001 A   U   11931 11955
 GBL                      00000001 A   U   12145 12164
 GBL                      00000001 A   U   48462 48467  48512  48545  48687
 GBL                      00000001 A   U   50587 50634  50753  50786  50809
 GBL                      00000001 A   U   53907 53920  54091  54241
 GBL                      00000001 A   U   61712 61716
 GBL                      00000001 A   U   62033 62037
 GLOBAL                   00000001 A   U   48267 48271
 GLOBAL                   00000001 A   U   50578 50582  50889  50891
 HIBAL         1 00000000 FFFFFFFF     J     700   716    729    742    755    768    781    794    807    820    833
                                                   846    859    872    885    898    911   1012   1024   1036   1048
                                                  1060   1072   1084   1096   1108   1120   1132   1144   1156   1168
                                                  1180   1192   1204   1224   1236   1248
 INITRESAB
               2 000093B6 00000001     H   72877 72489B 72557B 72635B
 INITRESLV
               4 000092CA 00000001     I   72349 72287  72360U
 IOSDOIO       1 00000000 00000002     T   13714 13714  23888  30740  77096  81132
 IOSIDFRE      1 00000000 00000013     T   73589 73589
 IOSIDGET      1 00000000 00000010     T   61342 61342  72320  73588
 IOSTIME       1 00000000 00000005     T   17286 17286  23889  30741
 LAST                     00000001 A   U   19791 19801U
 LBP           4 00000004 FFFFFFED     A    1457 17819M 18781M 19008M 19129M 19892M 20904  20905M 20966M 21175  21176M
                                                 21244M 21759M 21856  21858M 22850M 23098M 24389  24391M 24715  24717M
                                                 24776M 24932  24934M 25190M 25327M 25573M 25768  25769M 25872M 27446M
                                                 31020  31021M 31074M 31277  31278M 31331M 31503M 37915  37917M 37976M
                                                 38324  38326M 38402M 48600  48602M 48661M 50722  50724M 50783M 52858
                                                 52859M 53009M 53422M 53546M 53770M 54001M 54441M 54551  54552M 54719M
                                                 55172  55174M 55290M 55451M 61596M 62949  62950M 65047  65048M 65202M
                                                 65581  65582M 65693M 66625M 66709M 67149  67151M 67210M 67369  67371M
1PAGESERV (PAGE00) (09:42) (22MAR04) Ordinary Symbol and Literal Cross Reference                                            Page  482
                                                 67430M 67582  67584M 67643M 68656M 68818  68819M 68872M
 LELEM         8 00000000 FFFFFFED     J    1464 17813M 17819M 17820M 18780  18781M 18782M 19002M 19008M 19009M 19123M
                                                 19129M 19130M 19886M 19892M 19893M 20891  20904  20905M 20906M 20961M
                                                 20966M 20967M 21162  21175  21176M 21177M 21239M 21244M 21245M 21758
                                                 21759M 21760M 21856  21857  21858M 21859M 22844M 22850M 22851M 23092M
                                                 23098M 23099M 24389  24390  24391M 24392M 24715  24716  24717M 24718M
                                                 24770M 24776M 24777M 24932  24933  24934M 24935M 25184M 25190M 25191M
                                                 25322M 25327M 25328M 25568M 25573M 25574M 25755  25768  25769M 25770M
                                                 25867M 25872M 25873M 27440M 27446M 27447M 31007  31020  31021M 31022M
                                                 31069M 31074M 31075M 31264  31277  31278M 31279M 31326M 31331M 31332M
                                                 31498M 31503M 31504M 37915  37916  37917M 37918M 37970M 37976M 37977M
                                                 38324  38325  38326M 38327M 38396M 38402M 38403M 48600  48601  48602M
                                                 48603M 48655M 48661M 48662M 50722  50723  50724M 50725M 50777M 50783M
                                                 50784M 52845  52858  52859M 52860M 53004M 53009M 53010M 53421  53422M
                                                 53423M 53540M 53546M 53547M 53765M 53770M 53771M 54000  54001M 54002M
                                                 54436M 54441M 54442M 54538  54551  54552M 54553M 54714M 54719M 54720M
                                                 55172  55173  55174M 55175M 55284M 55290M 55291M 55445M 55451M 55452M
                                                 61590M 61596M 61597M 62936  62949  62950M 62951M 63005U 65034  65047
                                                 65048M 65049M 65197M 65202M 65203M 65568  65581  65582M 65583M 65688M
                                                 65693M 65694M 66595U 66619U 66679U 66703U 67149  67150  67151M 67152M
                                                 67204M 67210M 67211M 67369  67370  67371M 67372M 67424M 67430M 67431M
                                                 67582  67583  67584M 67585M 67637M 67643M 67644M 68648M 68656M 68657M
                                                 68805  68818  68819M 68820M 68867M 68872M 68873M
 LFP           4 00000000 FFFFFFED     A    1456 17813M 17820M 18780  18782M 19002M 19009M 19123M 19130M 19886M 19893M
                                                 20891  20906M 20961M 20967M 21162  21177M 21239M 21245M 21758  21760M
                                                 21857  21859M 22844M 22851M 23092M 23099M 24390  24392M 24716  24718M
                                                 24770M 24777M 24933  24935M 25184M 25191M 25322M 25328M 25568M 25574M
                                                 25755  25770M 25867M 25873M 27440M 27447M 31007  31022M 31069M 31075M
                                                 31264  31279M 31326M 31332M 31498M 31504M 37916  37918M 37970M 37977M
                                                 38325  38327M 38396M 38403M 48601  48603M 48655M 48662M 50723  50725M
                                                 50777M 50784M 52845  52860M 53004M 53010M 53421  53423M 53540M 53547M
                                                 53765M 53771M 54000  54002M 54436M 54442M 54538  54553M 54714M 54720M
                                                 55173  55175M 55284M 55291M 55445M 55452M 61590M 61597M 62936  62951M
                                                 63010  65034  65049M 65197M 65203M 65568  65583M 65688M 65694M 66601M
                                                 66685M 67150  67152M 67204M 67211M 67370  67372M 67424M 67431M 67583
                                                 67585M 67637M 67644M 68648M 68657M 68805  68820M 68867M 68873M
 LHBP          4 00000004 FFFFFFEE     A    1435 17806  17812M 18995  19001M 19116  19122M 19879  19885M 20038M 20141
                                                 20142  20154M 20955  20960M 21233  21238M 22837  22843M 23085  23091M
                                                 24529M 24539M 24763  24769M 25177  25183M 25250  25251  25263M 25316
                                                 25321M 25496  25497  25509M 25562  25567M 25861  25866M 27433  27439M
                                                 31063  31068M 31320  31325M 31438  31439  31451M 31492  31497M 31741
                                                 31742  31754M 37963  37969M 38389  38395M 48648  48654M 50770  50776M
                                                 52998  53003M 53275M 53285M 53533  53539M 53654  53655  53667M 53759
                                                 53764M 54364  54365  54377M 54430  54435M 54708  54713M 55277  55283M
                                                 55438  55444M 61583  61589M 63420M 63423M 63426M 63429M 63435M 65191
                                                 65196M 65682  65687M 67197  67203M 67417  67423M 67630  67636M 68639
                                                 68647M 68861  68866M 69597M 69600M 69603M 69606M 69609M 69612M 69615M
                                                 69618M 69621M 69624M
 LHCNT         4 00000008 FFFFFFEE     A    1436 17798  17799M 18746  18771M 18987  18988M 19108  19109M 19871  19872M
                                                 20045M 20045  20106  20107  20126M 20781  20842  20876M 20947  20948M
                                                 21072  21113  21147M 21225  21226M 21724  21749M 21817  21842M 22829
                                                 22830M 23077  23078M 24350  24375M 24536M 24536  24546M 24546  24676
                                                 24701M 24755  24756M 24893  24918M 25169  25170M 25215  25216  25235M
                                                 25308  25309M 25461  25462  25481M 25554  25555M 25706  25740M 25853
                                                 25854M 27425  27426M 30958  30992M 31055  31056M 31215  31249M 31312
                                                 31313M 31403  31404  31423M 31484  31485M 31706  31707  31726M 33471
                                                 37876  37901M 37955  37956M 38285  38310M 38381  38382M 48561  48586M
                                                 48640  48641M 50683  50708M 50762  50763M 52796  52830M 52990  52991M
                                                 53282M 53282  53292M 53292  53387  53412M 53525  53526M 53619  53620
1PAGESERV (PAGE00) (09:42) (22MAR04) Ordinary Symbol and Literal Cross Reference                                            Page  483
                                                 53639M 53751  53752M 53966  53991M 54329  54330  54349M 54422  54423M
                                                 54489  54523M 54700  54701M 55133  55158M 55269  55270M 55430  55431M
                                                 61575  61576M 62737  62887  62921M 64985  65019M 65183  65184M 65519
                                                 65553M 65674  65675M 67110  67135M 67189  67190M 67330  67355M 67409
                                                 67410M 67543  67568M 67622  67623M 68631  68632M 68756  68790M 68853
                                                 68854M
 LHEAD        12 00000000 FFFFFFEE     J    1443 17798  17799M 17806  17812M 18746  18771M 18778  18987  18988M 18995
                                                 19001M 19108  19109M 19116  19122M 19871  19872M 19879  19885M 20031U
                                                 20107  20126M 20134  20142  20153M 20154M 20410  20423U 20776U 20842
                                                 20876M 20883  20947  20948M 20955  20960M 21067U 21113  21147M 21154
                                                 21225  21226M 21233  21238M 21724  21749M 21756  21817  21842M 22829
                                                 22830M 22837  22843M 23077  23078M 23085  23091M 24350  24375M 24522U
                                                 24676  24701M 24755  24756M 24763  24769M 24893  24918M 25169  25170M
                                                 25177  25183M 25216  25235M 25243  25251  25262M 25263M 25308  25309M
                                                 25316  25321M 25462  25481M 25489  25497  25508M 25509M 25554  25555M
                                                 25562  25567M 25706  25740M 25747  25853  25854M 25861  25866M 27425
                                                 27426M 27433  27439M 30958  30992M 30999  31055  31056M 31063  31068M
                                                 31215  31249M 31256  31312  31313M 31320  31325M 31404  31423M 31431
                                                 31439  31450M 31451M 31484  31485M 31492  31497M 31707  31726M 31734
                                                 31742  31753M 31754M 33465U 34748  37876  37901M 37955  37956M 37963
                                                 37969M 38285  38310M 38381  38382M 38389  38395M 48561  48586M 48640
                                                 48641M 48648  48654M 50683  50708M 50762  50763M 50770  50776M 52796
                                                 52830M 52837  52990  52991M 52998  53003M 53268U 53387  53412M 53419
                                                 53525  53526M 53533  53539M 53620  53639M 53647  53655  53666M 53667M
                                                 53751  53752M 53759  53764M 53966  53991M 53998  54330  54349M 54357
                                                 54365  54376M 54377M 54422  54423M 54430  54435M 54489  54523M 54530
                                                 54700  54701M 54708  54713M 55097U 55133  55158M 55269  55270M 55277
                                                 55283M 55430  55431M 55438  55444M 61575  61576M 61583  61589M 62702U
                                                 62887  62921M 62928  63090U 63413U 64985  65019M 65026  65183  65184M
                                                 65191  65196M 65519  65553M 65560  65674  65675M 65682  65687M 67110
                                                 67135M 67189  67190M 67197  67203M 67330  67355M 67409  67410M 67417
                                                 67423M 67543  67568M 67622  67623M 67630  67636M 68631  68632M 68639
                                                 68647M 68756  68790M 68797  68853  68854M 68861  68866M 69590U
 LHFP          4 00000000 FFFFFFEE     A    1434 18778  20037M 20133  20134  20153M 20883  21154  21756  24528M 24538M
                                                 25242  25243  25262M 25488  25489  25508M 25747  30999  31256  31430
                                                 31431  31450M 31733  31734  31753M 33472  52837  53274M 53284M 53419
                                                 53646  53647  53666M 53998  54356  54357  54376M 54530  62706  62928
                                                 63419M 63422M 63425M 63428M 63434M 65026  65560  68797  69596M 69599M
                                                 69602M 69605M 69608M 69611M 69614M 69617M 69620M 69623M
 LKCRE         1 00000000 00000011     T   66336 66336  72292  81128
 LKDEL         1 00000000 0000000E     T   52438 52438
 LKOB          1 00000000 00000014     T   73591 73591
 LKREL         1 00000000 00000015     T   73592 73592
 LOCAL                    00000001 A   U   48230 48271
 LOCKDUMMY
               4 000090F6 00000001     I   72220 69488  72231U
 LSTPFX                   00000001 A   U   19801 19809  19809
 MAKEROOM      4 00001872 00000001     I   18108 13705  18119U 23874  30737  47769  52423  66346
 MAT         256 00000000 FFFFFFB3     J    4299  6923U  9957U 10518U 10751U 11371U 12383U 13090U 13831U 15348U 16509U
                                                 17408U 17862U 18155U 18405U 19208U 19558U 20738U 21609U 22233U 22781U
                                                 23002U 23592U 24012U 24410U 25953U 26436U 27076U 27764U 28642U 29465U
                                                 30205U 30862U 31646U 32114U 32533U 32992U 35294U 35910U 36569U 37179U
                                                 37731U 38123U 38626U 38982U 39797U 41127U 42255U 43762U 45690U 47104U
                                                 47858U 48100U 49606U 50195U 51298U 52584U 53057U 54616U 54996U 55332U
                                                 55652U 56231U 56668U 57048U 57376U 58856U 59629U 60091U 60453U 60758U
                                                 61217U 61488U 62259U 62828U 63232U 63587U 63995U 64665U 65250U 65741U
                                                 65943U 66056U 66479U 68892U 69380U 72409U 73072U 73700U 74378U 74819U
                                                 75438U 75879U 76567U 77188U 77909U 78350U 78858U 79082U 79701U 80142U
                                                 80839U
1PAGESERV (PAGE00) (09:42) (22MAR04) Ordinary Symbol and Literal Cross Reference                                            Page  484
 MATPAGCB      4 0000000C FFFFFFB3     A    4253  6929   9963  10524  10757  11377  12389  13096  13837  15354  16515
                                                 17414  18161  18411  19564  20744  21615  22239  23598  24018  26442
                                                 27082  27770  28648  29471  30211  30868  31652  32120  32539  32998
                                                 35300  35916  36575  37185  37737  38129  38632  38988  39803  41133
                                                 42261  43768  45696  47110  47864  48106  49612  50201  51304  52590
                                                 55002  55658  56237  56674  57054  57382  58862  59635  60097  60459
                                                 60764  61223  61494  62265  62834  63238  63593  64001  64671  65949
                                                 66485  69438M 72415  73078  73706  77194
 MATPAGFN      4 000000DC FFFFFFB3     A    4278 17868M 19213  19215M 22786  22788M 23030M 24415  24417M 25958  25960M
                                                 53062  53063M 54621  54623M 55338  55339M 65255  65257M 65746  65748M
                                                 68899M
 MATPTR        4 00000200 FFFFFFB3 A   A    4246 17852  19198  22771  22992  24400  25943  53047  54606  55322  65240
                                                 65731  66046  68882  74368  75428  76557  77899  78848  79691  80829
 MATSNAME      8 000000D4 FFFFFFB3     C    4277 66061  74419  74436  74850  74867  75479  75496  75910  75927  76608
                                                 76625  77950  77967  78381  78398  78899  78916  79113  79130  79742
                                                 79759  80173  80190  80880  80897
 NASCHK        2 00006E8C 00000001     H   58938 59071B
 NAS2LOOP      2 00006F52 00000001     H   59245 59291B
 NEW                      00000001 A   U   76804 76815  76830  76838  76854  76884  76892
 NITRESL4      2 000092BE 00000001     H   72344 72343
 NVALDASN      4 0000367C 00000001     I   32472 23880  32483U
 OCKDUMM4      2 000090EA 00000001     H   72215 72214
 OLD                      00000001 A   U   76794 76812  76813  76837  76853  76883  76891  76930  76935
 OWN                      00000001 A   U    7845  7850   7851
 OWN                      00000001 A   U   43850 43986  44566
 PAGAFTO       4 000001A0 FFFFFFAE     A    4651 32146  32632  58921  59070  59686  64119M 68983  69775
 PAGAFXM       6 0000FFC0 FFFFFFAE A   U    4766 32145  32631  35176  58920  59069  59685  61331  68982  69261
 PAGASC1       4 000055CE 00000001     I   47798 47793  47809U
 PAGASC2       4 00005620 00000001     I   48035 48030  48046U
 PAGASIN       4 000000B0 FFFFFFAE     A    4546 17707  17717M 17829  23007  27795  27803M 30251  30259M 48131  48139M
                                                 51108  51118M 68898  69124M 69652
 PAGASNCNT
               4 0000019C FFFFFFAE     A    4650 59442  59920
 PAGASNF       1 000001AC FFFFFFAE     R    4657  4661
 PAGASNL       4 00000188 FFFFFFAE     A    4642 32168  32316  32652  32821  58902  59044  59110  59178  59486  59675
                                                 59964  62632  64058M
 PAGASNW      12 00000194 FFFFFFAE     N    4647 59034  62633  69622
 PAGASTI       4 000079EA 00000001     I   64350 61332  64202  64361U
 PAGASTI4      2 000079DE 00000001     H   64345 64344
 PAGAST1       4 00005968 00000001     I   49546 49541  49557U
 PAGAST2       4 00005A58 00000001     I   50135 50130  50146U
 PAGASXM       0 0000003F FFFFFFAE A   U    4767 35179  61334  69263
 PAGATL        2 00000190 FFFFFFAE     H    4644 48346  64281M 64281  69864
 PAGATO        4 0000018C FFFFFFAE     A    4643 48341  64274M 69863
 PAGAVASN      4 000001A8 FFFFFFAE     A    4654 59198  59199M 59430  59432M 59909  59910M 62634  64208  64209M 69880
                                                 69882M
 PAGCASB       4 00000018 FFFFFFAE     A    4483  9532  10113  11467  11896  14636  17915  23239  26122  27982  29863
                                                 33178  34929  35618  36314  36887  37471  38654  39010  40786  41356
                                                 41939  42631  43430  43952  44203  45336  46786  47431  48238  48433
                                                 49919  50367  50573  53878  61683  66742  69634M
 PAGCB       692 00000000 FFFFFFAE     J    4782  6947U  9981U 10542U 10775U 11395U 12407U 13114U 13855U 15372U 15844
                                                 15849U 16533U 17432U 18179U 18429U 19582U 20762U 21633U 22257U 23616U
                                                 24036U 26460U 27100U 27788U 28394  28662U 29485U 30229U 30886U 31670U
                                                 32138U 32557U 33016U 35318U 35934U 36593U 37203U 37755U 38147U 38650U
                                                 39006U 39821U 41151U 42279U 43786U 45714U 47128U 47882U 48124U 49630U
                                                 50219U 51322U 52608U 55020U 55676U 56255U 56692U 57072U 57400U 58880U
                                                 59653U 60115U 60477U 60782U 61241U 61512U 62283U 62619  62620  62621
                                                 62623  62624  62625  62626  62627  62628  62629  62630  62631  62632
                                                 62633  62634  62852U 63256U 63611U 64019U 64689U 65967U 66503U 69421
1PAGESERV (PAGE00) (09:42) (22MAR04) Ordinary Symbol and Literal Cross Reference                                            Page  485
                                                 69457U 69481M 69481  69482M 69482  69483M 69483  69819  69840U 69898U
                                                 72433U 73096U 73724U 77212U
 PAGCBID       8 00000000 FFFFFFAE     C    4477 69484M
 PAGCEL       32 00000000 FFFFFFAF     J    4465  4629   4633  60185U 60492U 60791U 61250U 62627  62628  62630  62631
                                                 69466U 69473U 70009U 70016U 71887U 73105U 73112U
 PAGCELAMT
               4 00000004 FFFFFFAF     A    4446 60227  60264  60265M 60522  60524M 61041  61042M 62628  62631  70341M
                                                 70404M 71907  72003M 72003  72013  72014M
 PAGCELAS     12 0000000C FFFFFFAF     N    4450 62627  62630  69616  69619  71893
 PAGCELBIT
               1 0000001E FFFFFFAF     X    4456 60570  71866M 71868M
 PAGCELBP      4 00000010 FFFFFFAF     A    4452 71895M
 PAGCELCNT
               4 00000014 FFFFFFAF     A    4453 60559
 PAGCELFP      4 0000000C FFFFFFAF     A    4451 71894M
 PAGCELHD      4 00000000 FFFFFFAF     A    4445 60267  60305M 60540  60549M 61058  61067M 72034  72036M
 PAGCELID      4 00000008 FFFFFFAF     C    4447 60962  71865M 71867M 72035
 PAGCELLEN
               2 0000001C FFFFFFAF     H    4455 60911  60995  71627M 71864M 71904  72069  72085
 PAGCELLK      4 00000138 FFFFFFAE     A    4627 60208  60243  60316  60514  60614  61032  61078  62626  62629  71862M
 PAGCELNXT
               4 00000020 FFFFFFAF     A    4458 72097
 PAGCELXTR
               4 00000018 FFFFFFAF     A    4454 60809  60818M 61087  61096M 61255  61277M 71892M
 PAGCEL1      32 0000013C FFFFFFAE C   U    4628 71871
 PAGDAT        1 00000004 FFFFFFAE A   U    4757  8207   9115  15691  15855  16113  16785  16893  16971  28129  28396
                                                 28719  29027  33752  33881  33940  34099  34516  49055  49156  59235
                                                 66782  67228  67449  67671  67774  67932  69822
 PAGDEF        4 00004838 00000001     I   41062 41057  41073U
 PAGESERV      1 00000000 00000001     J    1278  1275   1276   1280   1444   1465   1487   1510   2432   2453   2474
                                                  2503   2522   2566   2591   2614   2637   2676   2699   2722   2745
                                                  2768   2790   2816   2839   2862   2885   2911   2945   2976   3011
                                                  3030   3075   3095   3115   3142   3161   3193   3228   3254   3348
                                                  3473   3502   3566   3628   3650   3670   3723   3742   3762   3836
                                                  3899   3918   3948   3981   4008   4028   4048   4070   4091   4110
                                                  4130   4228   4300   4358   4383   4429   4466   4783   4986   5062
                                                  5099   5161   5214   5268   5359   5399   5422   5459   5483   5505
                                                  5529   5551   5574   5608   5645   5669   5691   5716   5738   5782
                                                  5822   5887   5919   5957   5969   5981   5993   6005   6017   6029
                                                  6041   6071   6098   6141   6220   6240   6269   6291   6313   6343
                                                  6426   6472   6520   6565   6606   6625   6645   6668   6693   6851
                                                 11293
 PAGESWAP      4 000018DE 00000001     I   18345 18356U 73595
 PAGE00        1 00000000 00000001     R    1287  1285
 PAGFASNL    128 000001AC FFFFFFAE         4661 58961  59089M 59192M
 PAGFAULT      4 00000022 00000001     I    6863  6858   6874U
 PAGFCNT       4 0000006C FFFFFFAE     A    4514 52663  53302  65466  65468  66579M 68705  68879
 PAGFFP        4 00000064 FFFFFFAE     A    4512 68908
 PAGFHEAD     12 00000064 FFFFFFAE     N    4511 52984  54416  54473  55260  65177  65503  66577  66669  67094  67314
                                                 67527  68623  68740  69595
 PAGFIX        4 00003C68 00000001     I   35229 35224  35240U
 PAGFIXCNT
               4 00000050 FFFFFFAE     A    4502 52698  53015  53017M 64878  65208  65210M 65371  65384  65699  65701M
                                                 66111  68880M 69650
 PAGFLS        4 00000088 FFFFFFAE     A    4526 17822  17824M 19195  19197M 22083  22085M 23029  24397  24399M 25939
                                                 25941M 52682  64868  65359
 PAGFRAL       4 0000003C FFFFFFAE     A    4497 23140  23206  52630  52875  52953  53107  53229  53324  54271  54643
                                                 55207  55467  62619  64918  65065  65146  65280  65455  65771  69550M
                                                 69656
1PAGESERV (PAGE00) (09:42) (22MAR04) Ordinary Symbol and Literal Cross Reference                                            Page  486
 PAGFRAN       4 00000048 FFFFFFAE     A    4500 10563  64717  64719  66517M 66578
 PAGFRC        4 00000098 FFFFFFAE     A    4532 23042  23044M 24808  24810M 25334  25336M 52664  53776  53778M
 PAGFRES       4 000000B4 FFFFFFAE     A    4547 17850  18192  18539  23028  64862  65353
 PAGFSOIP      4 000000AC FFFFFFAE     A    4545 18197  18544  22086  22088M 22742  22744M
 PAGFTCNT      4 00000060 FFFFFFAE     A    4509 17828  18202  18549  22963  22972M 23159  24811  24820M 25337  25346M
                                                 53018  53027M 54577  54586M 55293  55302M 62621  64867  65211  65220M
                                                 65358  65397  65399  65702  65711M 68881M
 PAGFWAIT      1 000000C0 FFFFFFAE     R    4555  4559   4564   4569   4574   4579  23185  23185  23187  23187  23191M
                                                 23191M 55371  55371  55373  55373  55377M 55377M 56894  56894  56896
                                                 56896  56900M 56900M 59455  59455  59457  59457  59461M 59461M 59933
                                                 59933  59935  59935  59939M 59939M 60571  60580M 62297  62321  62337
                                                 62346M
 PAGFWASN      8 000000C0 FFFFFFAE         4579 59455  59457  59457  59461M 59933  59935  59935  59939M 62618  62618
 PAGFWCNT      4 000000A4 FFFFFFAE     A    4538 23173M 23173  55358
 PAGFWFRA    128 000000C0 FFFFFFAE         4559 23185  23187  23187  23191M 55371  55373  55373  55377M 62612  62612
 PAGFWIOP     32 000000C0 FFFFFFAE         4569 62614  62614  62616  62616  71866
 PAGFWIOS     16 000000C0 FFFFFFAE         4574 62616  62616  62618  62618  71868
 PAGFWSI       4 000000A8 FFFFFFAE     A    4544 18196  18543  23746  23747M 24963  24965M 25197  25199M 53800  53801M
 PAGFWT       12 0000009C FFFFFFAE     N    4535 53184  62620  69598
 PAGFWXP      64 000000C0 FFFFFFAE         4564 56894  56896  56896  56900M 62612  62612  62614  62614
 PAGGMHST      4 00000124 FFFFFFAE     A    4616 33350  70635M
 PAGHASH       4 000053D4 00000001     I   47039 47034  47050U
 PAGHINIT      1 00008000 FFFFFFAE A   U    4772 55557
 PAGIKEYS      8 00000004 FFFFFF50     C   72981 73822M 73823M 77353M 77354M
 PAGIN         4 00000B48 00000001     I   12322  7784   9055  12333U
 PAGINIT       4 00008834 00000001     I   69313 69308  69324U
 PAGINIT2      4 000093FC 00000001     I   73025 73020  73036U
 PAGINTV       4 00007A6A 00000001     I   64598 64593  64609U
 PAGIN4        2 00000B3C 00000001     H   12317 12316
 PAGIOUT      44 0000001C FFFFFF50     C   72982 70679M 70680  70769M 70770  70840M 70841  70907M 70908  70993M 70994
                                                 71177M 71178  71262M 71263  71347M 71348  71646  71653  71693  71731
                                                 71738  71780  73864  73871  77389  77396
 PAGIPARM     72 00000000 FFFFFF50     J   72989 70243  70265U 72164  73150  73171U 73485  73738U 77226U
 PAGISEND      4 00002AFA 00000001     I   26956 26791  26967U
 PAGISK        2 00002992 00000001     H   26304 24201B 24215B
 PAGISK2       2 00002ABE 00000001     H   26902 26854B
 PAGISWAP      4 000024B2 00000001     I   23947 23942  23958U
 PAGITYPE      4 00000000 FFFFFF50     X   72980 70275U 73747U 77235U
 PAGKCHG       1 00000002 FFFFFFAE A   U    4775 13699
 PAGKEYM       1 000000F8 FFFFFFAE A   U    4770 13715
 PAGKREF       1 000000F8 FFFFFFAE A   U    4773 17292
 PAGLASB      12 00000070 FFFFFFAE     N    4517 17789  18730  19099  24334  69604
 PAGLCNT       4 00000078 FFFFFFAE     A    4520 18229  18705M 18705  69654
 PAGLICNT      4 00000084 FFFFFFAE     A    4525 18627M 18627  21654M 21654
 PAGLIFP       4 0000007C FFFFFFAE     A    4523 21660
 PAGLIP       12 0000007C FFFFFFAE     N    4522 18978  21801  24877  25160  69607
 PAGLKOB       4 0000002C FFFFFFAE     A    4489  7108  10184  11522  12110  12170  14001  14138  17561  17755  18595
                                                 18912  19372  22413  22726  23146  23644  24104  24180  25120  25421
                                                 27384  27901  28049  30309  32174  32658  33108  33226  35425  36041
                                                 36212  36695  37310  40021  41284  41404  42415  42689  43880  43992
                                                 44485  44572  45850  47213  48518  49707  50296  50640  52636  52959
                                                 53235  53347  53926  54277  55213  55704  56283  56718  57100  58908
                                                 59184  59681  60214  60520  61038  61992  62067  62131  62411  64924
                                                 65152  65461  69489M 73510M
 PAGLKREL      4 00000030 FFFFFFAE     A    4490  9607   9660  11961  12035  14711  14764  17892  17980  18033  18836
                                                 19158  19240  19404  22870  23126  23212  23317  23377  23768  24292
                                                 24441  24991  25397  25994  26197  26250  27493  28241  29938  29991
                                                 30696  32322  32827  35004  35057  35693  35746  36389  36442  36962
                                                 37015  37536  37589  40861  40914  42014  42067  43505  43558  44268
1PAGESERV (PAGE00) (09:42) (22MAR04) Ordinary Symbol and Literal Cross Reference                                            Page  487
                                                 44321  45411  45464  46861  46914  47496  47549  48693  50011  50064
                                                 50449  50502  50815  52881  53113  53330  53856  54247  54649  55473
                                                 55907  56092  56487  56530  56931  57241  59116  59492  59970  60249
                                                 60322  60620  61084  61654  61737  61776  61838  61877  62538  62979
                                                 65071  65286  65777  69490M 73511M
 PAGLTCNT      4 00000100 FFFFFFAE     A    4600 64753  64755M
 PAGLTRT       8 000000F0 FFFFFFAE     D    4598 64735  64736M 64737
 PAGMASMX      4 00000248 FFFFFFAE     A    4731 48168  48170M
 PAGMAXFR      4 000000CC FFFFFFAE     A    4589 52697  64720M 64877  65385  66525M 68706
 PAGMEG        4 000000B8 FFFFFFAE     A    4549 39918  41217  42345  44011  45780  47263  48304  48375  48927  49751
                                                 51342  63629  66731  66737  66739  67763  67765  67804  68290  69502M
                                                 69858
 PAGMFSO       4 000002A8 FFFFFFAE     A    4750 19074  19075M
 PAGMINFR      4 000000C8 FFFFFFAE     A    4588 64727M 65372  66511M
 PAGMNHST      4 00000120 FFFFFFAE     A    4615 33333  63400  70551M
 PAGMPIN       4 00000294 FFFFFFAE     A    4747 15446  15447M 66154
 PAGMPIT       8 000002A0 FFFFFFAE     D    4749 15449  15471M 66157
 PAGMPON       4 00000290 FFFFFFAE     A    4746 16593  16594M 66153
 PAGMPOT       8 00000298 FFFFFFAE     D    4748 16596  16618M 66156
 PAGMSIF       4 0000027C FFFFFFAE     A    4742 27349  27350M 64754  66188
 PAGMSIN       4 00000278 FFFFFFAE     A    4741 27199  27200M 66185
 PAGMSIRN      4 00000270 FFFFFFAE     A    4739 24152  24153M
 PAGMSITM      8 00000280 FFFFFFAE     D    4743 27203  27225M 66191
 PAGMSIVN      4 00000274 FFFFFFAE     A    4740 28378  28379M 30283  30284M 48163
 PAGMSMAX      4 00000288 FFFFFFAE     A    4744 20373  20375M 22641  22643M 64863  65354
 PAGMSOF       4 00000264 FFFFFFAE     A    4737 22685  22686M 66187
 PAGMSON       4 00000260 FFFFFFAE     A    4736 22489  22490M 66184
 PAGMSORN      4 00000258 FFFFFFAE     A    4734 17696  17697M
 PAGMSOTM      8 00000268 FFFFFFAE     D    4738 22492  22514M 66190
 PAGMSOVN      4 0000025C FFFFFFAE     A    4735 17702  17703M 48162
 PAGMSOVR      4 0000028C FFFFFFAE     A    4745 22665  22666M
 PAGMTIME      8 00000230 FFFFFFAE     D    4725 66084  66085M 66086
 PAGMXHST      1 00010000 00000001 A   U   81104 35196  72302
 PAGMXPG       4 0000023C FFFFFFAE     A    4728 66126  76392M
 PAGMXPMX      4 00000238 FFFFFFAE     A    4727 66134  66136M 66137
 PAGMXSMX      4 00000240 FFFFFFAE     A    4729 66147  66149M
 PAGMXSW       4 00000244 FFFFFFAE     A    4730 66141  80537M
 PAGOFFM       0 00000FFF FFFFFFAE A   U    4763 13702  69256  72288
 PAGOPEN       4 00009552 00000001     I   73635 73337  73646U
 PAGOPEN4      2 00009546 00000001     H   73630 73629
 PAGOSEND      4 00002094 00000001     I   22168 22011  22163  22179U
 PAGOSWAP      4 00001698 00000001     I   17343 17338  17354U
 PAGOUT        4 00000CB0 00000001     I   13029 13040U 35189
 PAGOUT4       2 00000CA4 00000001     H   13024 13023
 PAGPAGEL      1 00001000 FFFFFFAE A   U    4755 13717  30757  40998  47752  52448  55556  61333  66340  69257  69269
                                                 72290  72291  73597
 PAGPAGM      12 7FFFF000 FFFFFFAE A   U    4762  8329   8389   9236   9338  10551  10988  11094  12427  13227  13695
                                                 14040  15593  16192  17054  17296  21292  26556  28166  28857  28891
                                                 29275  30750  33547  33596  33714  34586  35192  35386  36002  36132
                                                 36661  36823  37271  37391  37760  38152  39916  39917  39991  40995
                                                 41215  41216  41257  42343  42344  42385  42782  43056  44931  45181
                                                 45778  45779  45820  46110  46384  47756  48476  50598  51620  52003
                                                 52182  52421  52917  54878  64211  65108  65618  66991  67059  67279
                                                 67492  67656  67979  68527  68918  69254  69509  73586
 PAGPFTO       4 00000044 FFFFFFAE     A    4499  8331   8390   9238   9340  10546  10989  12429  13228  14041  15595
                                                 16194  17056  21291  26555  28167  28893  29277  33546  33595  33713
                                                 34588  36134  36825  37393  37762  38154  42784  43058  44933  45183
                                                 46112  46386  48477  50599  51622  52005  52184  52916  54877  65107
                                                 65617  66567M 66576  67060  67280  67493  67980  68528  68909
1PAGESERV (PAGE00) (09:42) (22MAR04) Ordinary Symbol and Literal Cross Reference                                            Page  488
 PAGPGCEL     32 0000013C FFFFFFAE     X    4629  4628  12477  13151  15132  29710  30478  62627  62628  69466U 70009U
                                                 73105U
 PAGPGINI      4 00007894 00000001     I   63749 47767  63760U 69253
 PAGPGNM      12 000FF000 FFFFFFAE A   U    4765 13708  15891  15892  16148  16829  17003  17290  29243  30749  33748
                                                 33779  34502  35187  38843  39199  39919  41005  41218  42346  45781
                                                 47753  49149  49151  52428  54123  55553  72288
 PAGPIOA       4 00005538 00000001     I   47646 47641  47657U
 PAGPRC        4 00001170 00000001     I   15288 13698  14250  15299U 73585
 PAGPRC4       2 00001164 00000001     H   15283 15282
 PAGPROT       4 0000426E 00000001     I   38470 38465  38481U
 PAGPROT2      4 000042B0 00000001     I   38566 38577U
 PAGPTABO      2 00000926 00000001     H   11209 11085B
 PAGPWC        4 00001416 00000001     I   16444 14444  16455U 30753
 PAGPWC4       2 0000140A 00000001     H   16439 16438
 PAGRESAMT
               4 00000118 FFFFFFAE     A    4610 18191  18538  64816M 64861  65352
 PAGRESB       4 00000110 FFFFFFAE     E    4607 64799  71391M
 PAGRESLV      4 00000034 FFFFFFAE     A    4491 11071  35526  36796  69494M 73515M
 PAGRESM       4 00000108 FFFFFFAE     E    4605 64797  71221M
 PAGRESMN      2 00000116 FFFFFFAE     H    4609 64813  64815  71532M
 PAGRESMX      2 00000114 FFFFFFAE     H    4608 64807  64809  71461M 71510  71512
 PAGRESX0      4 0000010C FFFFFFAE     E    4606 64796  71306M
 PAGRSCB      12 0000008C FFFFFFAE     N    4528 23068  24660  25302  53371  69610
 PAGRV         4 0000078C 00000001     I   10458 10453  10469U 13701  35178  41002  52441  55554  61338  69260
 PAGSEGD       4 00004D38 00000001     I   43690 43685  43701U
 PAGSEGL       2 000000BE FFFFFFAE     H    4552  7838   8765  10042  15688  16888  34186  49752  51344  51883  52118
                                                 68554  69505M
 PAGSEGP       2 000000BC FFFFFFAE     H    4550 17678  28074  28285  28702  30921  48473  50595  51060  54081  66741
                                                 67755  68245  69510M
 PAGSFIX       4 00003EB4 00000001     I   36504 36499  36515U
 PAGSGINI      4 00007836 00000001     I   63527 63538U 69252
 PAGSGNM      20 7FF00000 FFFFFFAE A   U    4764  7835   8762   9181  10035  11436  12657  15860  16118  16775  16781
                                                 16974  17298  28832  29129  29143  29214  30751  33677  34443  34514
                                                 35185  38785  39141  39919  41003  41218  41550  42346  44014  44021
                                                 45781  47266  47273  47294  47761  48907  48931  49817  52022  52424
                                                 54089  68284  69499
 PAGSKEY       1 000000C1 FFFFFFAE     X    4582 69496M
 PAGSMF        4 00007E40 00000001     I   65883 65878  65894U
 PAGSRATE      4 000000E0 FFFFFFAE     E    4594 64779  64783  70723M
 PAGSRAVG      4 000000DC FFFFFFAE     E    4593 64772  64782  64790M 64818
 PAGSRHI       4 000000D4 FFFFFFAE     E    4591 64837  70951M 71025  71032
 PAGSRLO       4 000000D8 FFFFFFAE     E    4592 65327  71037M 71067
 PAGSRMHI      4 000000E4 FFFFFFAE     E    4595 64849  70865M
 PAGSRMLO      4 000000E8 FFFFFFAE     E    4596 65340  70794M 71068
 PAGSRTHR      4 000000EC FFFFFFAE     A    4597 65411  71072M 71073M 71074  71131M
 PAGSTATS      8 000001F8 FFFFFFAE     D    4713  4753   4753  69636
 PAGSTLM       0 0000007F FFFFFFAE A   U    4769 69245
 PAGSTOM      12 7FFFF000 FFFFFFAE A   U    4768 30744  69244
 PAGSTPTR      4 00000008 FFFFFFAE     A    4478 69637M
 PAGSWADV      4 000023A6 00000001     I   23527 23522  23538U
 PAGSWAPL      4 00000040 FFFFFFAE     A    4498 17749  17886  18589  18830  18906  19152  19234  19366  19398  22720
                                                 22864  23120  23638  23762  24174  24286  24435  24985  25114  25391
                                                 25415  25988  27378  27487  53341  53850  69579M
 PAGSWAVG      2 00000182 FFFFFFAE     H    4637 60799  61260  70467M
 PAGSWCEL     32 0000015C FFFFFFAE     X    4633 19679  20281  31886  60791U 61250U 62630  62631  69473U 70016U 73112U
 PAGSWECB      4 0000012C FFFFFFAE     A    4621 18266  18520
 PAGSWXL       2 0000017C FFFFFFAE     H    4634 20399  20971  21248  28073  28284  28545  28944  29368  71621M
 PAGSWXN       2 00000180 FFFFFFAE     H    4636 19630  19999  20802  21073  22655  56441  57123  60798  61259  71618M
                                                 80530  80667
1PAGESERV (PAGE00) (09:42) (22MAR04) Ordinary Symbol and Literal Cross Reference                                            Page  489
 PAGSWXTL      2 0000017E FFFFFFAE     H    4635 20055  71624M
 PAGTABLE   4096 00000000 FFFFFFA5     J    5421  5412  10331U 47771  51530U 63791U 68027U 68429U
 PAGTASN       2 000001A6 FFFFFFAE     H    4653 59196  59197M 64206  64207M
 PAGTERM       4 00000E82 00000001     I   13773 12869  13584  13704  13768  13784U 35191
 PAGTPROT      4 000044CA 00000001     I   39511 39506  39522U
 PAGTPTP       4 00004488 00000001     I   39403 39398  39414U
 PAGUDEF       4 00004A54 00000001     I   42190 42185  42201U
 PAGUFCNT      4 0000005C FFFFFFAE     A    4507 52716  52718  64929  64931
 PAGUFHD      12 00000054 FFFFFFAE     N    4504 52780  55421  64969  65668  68847  69601
 PAGUFIX       4 00003D94 00000001     I   35845 35840  35856U
 PAGUPROT      4 0000443C 00000001     I   39291 39286  39302U
 PAGUPROT2
               4 00004376 00000001     I   38922 38933U
 PAGUREF       4 0000510E 00000001     I   45625 45620  45636U
 PAGUSFIX      4 00003FEA 00000001     I   37114 37109  37125U
 PAGWAIT       4 0000745E 00000001     I   61423 47755  55552  61324  61434U
 PAGWAIT4      2 00007452 00000001     H   61418 61417
 PAGWSMAN      4 0000374A 00000001     I   32927 13691  32922  32938U
 PAGXFUREL
             128 000001C2 FFFFFFAE         4680 46469  71704M 71792
 PAGXF1DEF
              64 000001C2 FFFFFFAE         4686  8076  15981  33735  71803M
 PAGXPCNT      4 000001D0 FFFFFFAE     A    4697 56881
 PAGXPCUR      4 000001BC FFFFFFAE     A    4672 55707  55874M 70121M 76809M
 PAGXPDS       4 000001B4 FFFFFFAE     A    4670 57405  69640  70120M 76789  76808M
 PAGXPFLG      1 000001C2 FFFFFFAE     R    4676  4680   4686
 PAGXPL        4 000001B8 FFFFFFAE     A    4671 55698  55901  56029  56086  56712  56925  62623  70062M
 PAGXPN        2 000001C0 FFFFFFAE     H    4673 55706  57406  69638  70063M 76811M
 PAGXPRCNT
               4 000001C4 FFFFFFAE     A    4691 55857  55859M 56870  56871M 62625  66128  69642  70151M 76391M 76832
                                                 76833M
 PAGXPWT      12 000001C8 FFFFFFAE     N    4694 56019  62624  69613
 PAGXSCUR      4 000001DC FFFFFFAE     A    4704 56286  56454M 77508M
 PAGXSDS       4 000001D4 FFFFFFAE     A    4702 69648  77507M 80650
 PAGXSL        4 000001D8 FFFFFFAE     A    4703 56277  56481  56524  57094  57235  77339M
 PAGXSN        2 000001E0 FFFFFFAE     H    4705 56285  69646  81059M
 PAGXSRCNT
               4 000001E4 FFFFFFAE     A    4707 56437  56439M 57212  57214M 66142  69644  80534  80536M 80666
 PAG1ASN       2 000001A4 FFFFFFAE     H    4652 58910  59066  59424M 59893  59901M 64065M 64065  69877M 69877
 PARMFFLT     12 00000000 FFFFFFC7         3554 70648M 70738M 70809M 70876M 70962M 71145M 71231M 71316M
 PARMFINT      4 00000000 FFFFFFC7         3534 70285M 70349M 70412M 70475M 70559M 71048M 71401M 71471M 71544M 76402M
                                                 80674M
 PARMFSTR      0 00000000 FFFFFFC7         3524 73821M 73857M 77382M
 PARMFYN       8 00000000 FFFFFFC7         3544 71637M 71723M
 PARMIN        4 00000000 FFFFFFC7     J    3565 70275U 70294  70301  70357  70364  70420  70427  70483  70490  70567
                                                 70574  70656  70663  70746  70753  70817  70824  70884  70891  70970
                                                 70977  71056  71063  71154  71161  71239  71246  71324  71331  71409
                                                 71416  71479  71486  71552  71559  71660  71667  71745  71752  72980
                                                 73747U 73755M 73755  73878  73885  76411  76418  77235U 77243M 77243
                                                 77403  77410  80683  80690
 PARMKEYS      4 00000004 FFFFFFC7     A    3558 70286M 70287M 70350M 70413M 70476M 70560M 70649M 70739M 70810M 70877M
                                                 70963M 71049M 71146M 71147M 71232M 71317M 71402M 71472M 71545M 71638M
                                                 71639M 71724M 76403M 76404M 80675M 80676M
 PARMTYPE      1 00000000 FFFFFFC7     R    3515  3524   3534   3544   3554
 PC                       00000001 A   U   69466 69616
 PC                       00000001 A   U   70009 70341  71864  71865  71866
 PCBAMT        4 000000A4 FFFFFFAD     A    4931 53150M 55985M 59000M 62756
 PCBASB        4 0000000C FFFFFFAD     A    4804 12611  14335  14983  19036  19317  20008  21982  23460  27579  28183
                                                 28324  28910  29297  48664  49248  49284  50786  54799  63354M 67658
1PAGESERV (PAGE00) (09:42) (22MAR04) Ordinary Symbol and Literal Cross Reference                                            Page  490
                                                 68964  69958
 PCBECB        8 000000A8 FFFFFFAD     D    4932 15053  61924  63057
 PCBFCNT       4 00000038 FFFFFFAD     A    4885  7220  17679  33407  34776  52296
 PCBFGBL     128 000000B6 FFFFFFAD         4965  7140M 10148  10191M 11429  11529M 11890  14033M 14117  14145M 17593M
                                                 22445M 24136M 27933M 28028  28056M 28225M 33140M 33172  33233M 35462
                                                 35462  35463M 36078  36078  36079M 36125  36219M 36732  36732  36733M
                                                 37347  37347  37348M 40058  40058  40059M 41321  41321  41322M 41350
                                                 41411M 42452  42452  42453M 42625  42696M 43917  43917  43918M 43946
                                                 43999M 44522  44522  44523M 44551  44579M 45887  45887  45888M 47250
                                                 47250  47251M 49744  49744  49745M 50333  50333  50334M 61670  61682M
                                                 62084M
 PCBFGBLC    128 00000022 FFFFFFAD         4819  7127  14020  14105  17580  22432  24123  27920  33127  35447  36063
                                                 36191  36717  37332  40043  41306  42437  43902  44507  45872  47235
                                                 48808  49729  50318  69751M
 PCBFISOUT
             128 00000023 FFFFFFAD         4841 14397  17674M 27955  27955  27957  27957  27959  27959  30326  30326
                                                 30327  30327  30329  30329  30332M
 PCBFLCL      64 000000B6 FFFFFFAD         4970  7117M 12007  14010M 17570M 22422M 24113M 27910M 33117M 35436  35436
                                                 35437M 36052  36052  36053M 36706  36706  36707M 37321  37321  37322M
                                                 40032  40032  40033M 41295  41295  41296M 42426  42426  42427M 43891
                                                 43891  43892M 44496  44496  44497M 45861  45861  45862M 47224  47224
                                                 47225M 49718  49718  49719M 50307  50307  50308M 61804  61816M 62009M
 PCBFLIMIT
               4 0000002C FFFFFFAD     A    4877  7213  33278M 47954M
 PCBFLIP      32 00000023 FFFFFFAD         4851 18806M 19069M 21870M 24265  24852  25131  25442M
 PCBFLOUT     64 00000023 FFFFFFAD         4846 17762M 18954M 24244  27955  27955  27956  27956  27958  27958  27961M
                                                 30329  30329  30330  30330  30331  30331
 PCBFNOTE      8 00000023 FFFFFFAD         4861 23711  23725M 24212  27958  27958  27959  27959  27960  27960  30327
                                                 30327  30328  30328  30331  30331  53794
 PCBFREAD      1 000000B4 FFFFFFAD         4945  8529M  9476M 14875
 PCBFREL       2 000000B4 FFFFFFAD         4955 15014  42829M 46157M
 PCBFRSIN     16 00000023 FFFFFFAD         4856 18927  22754  24276M 25435M 27956  27956  27957  27957  27960  27960
                                                 30326  30326  30328  30328  30330  30330
 PCBFSOUT     32 00000022 FFFFFFAD         4829 17607  17668M 23699  24200  24230M 25381M
 PCBFSYNC     32 000000B6 FFFFFFAD         4975 12200M 35436  35436  35462  35462  36052  36052  36078  36078  36706
                                                 36706  36732  36732  37321  37321  37347  37347  40032  40032  40058
                                                 40058  41295  41295  41321  41321  42426  42426  42452  42452  43891
                                                 43891  43917  43917  44496  44496  44522  44522  45861  45861  45887
                                                 45887  47224  47224  47250  47250  48297M 49452M 49718  49718  49744
                                                 49744  50307  50307  50333  50333  53137  55970  62142M
 PCBFTERM     64 00000022 FFFFFFAD         4824 17136  33262  50344M
 PCBINIT       4 00007766 00000001     I   63172 52419  63183U 72294
 PCBINIT4      2 0000775A 00000001     H   63167 63166
 PCBLFCNT      4 0000005C FFFFFFAD     A    4900  7222  33409  34778  52335
 PCBLFLH      12 00000054 FFFFFFAD     N    4897  7592   8896  37946  37979  48545  48832  50753  50787  63427  67613
                                                 67646  72739
 PCBLOCK       4 00000018 FFFFFFAD     A    4807  7102   9601   9654  10178  11516  11955  12029  12104  12164  13995
                                                 14132  14705  14758  17555  17974  18027  22407  23311  23371  24098
                                                 26191  26244  27895  28043  28235  29932  29985  30303  30690  33102
                                                 33220  34998  35051  35419  35687  35740  36035  36206  36383  36436
                                                 36689  36956  37009  37304  37530  37583  40015  40855  40908  41278
                                                 41398  42008  42061  42409  42683  43499  43552  43874  43986  44262
                                                 44315  44479  44566  45405  45458  45844  46855  46908  47207  47490
                                                 47543  48512  48687  49701  50005  50058  50290  50443  50496  50634
                                                 50809  50964  50975M 50975  53920  54241  61716  61817  61952  62037
                                                 63396M
 PCBLOCKF      1 000000B6 FFFFFFAD     R    4961  4965   4970   4975   7110   9514   9515M 11874  12194M 14003  14618
                                                 14619M 17563  17897  17898M 22415  23221  23222M 24106  26104  26105M
                                                 27903  29845  29846M 33110  34911  34912M 35427  35600  35601M 36043
1PAGESERV (PAGE00) (09:42) (22MAR04) Ordinary Symbol and Literal Cross Reference                                            Page  491
                                                 36296  36297M 36697  36869  36870M 37312  37453  37454M 40023  40768
                                                 40769M 41286  41921  41922M 42417  43412  43413M 43882  44185  44186M
                                                 44487  45318  45319M 45852  46768  46769M 47215  47413  47414M 49709
                                                 49901  49902M 50298  50349  50350M 61660
 PCBMPFR       4 0000008C FFFFFFAD     A    4923 16315  16316M 47713
 PCBPASN       2 00000020 FFFFFFAD     H    4809 48371M 49308  69957M 69957
 PCBPCFP       4 00000000 FFFFFFAD     A    4801 62775
 PCBPFCNT      4 00000044 FFFFFFAD     A    4890  7221  17680  19781  33408  34777  52309
 PCBPFLH      12 0000003C FFFFFFAD     N    4887 29337  31306  34749  38349  44742  48793  63421
 PCBPFOUT      4 00000088 FFFFFFAD     A    4922  7154   7935   7943M  8496   8504M  9284   9292M  9443   9451M 14252
                                                 14262M 14885  14895M
 PCBPSTL       1 00000025 FFFFFFAD     X    4874 10007  48308M 68270  69950M
 PCBPSTO       4 0000001C FFFFFFAD     A    4808  7850   7851   9199  10001  11438  15630  16739  27981  28348  28391
                                                 28834  29145  29196  33678  34187  34217  34402  34458  38692  39048
                                                 40064  41424  41552  42458  44039  45206  45893  47291  48271M 48271
                                                 48428M 48467  48474  48935  49328  49750  49816  50596  50976  51341
                                                 52024  54080  54091  67032M 67747  67757  67768  67801  68244  68264
                                                 68552  68962
 PCBPSWM       1 000000B5 FFFFFFAD     X    4958  8207M  8210   9115M  9149  15691M 15772  15855M 16003  16063  16113M
                                                 16241  16785M 16876  16893M 16960  16971M 17038  28129M 28163  28396M
                                                 28610  28719M 29009  29027M 29431  33752M 33827  33881M 33922  33940M
                                                 33996  34099M 34152  34516M 34544  48492M 48695  49055M 49125  49156M
                                                 49222  49243M 49370  50614M 50817  66782M 66972  67228M 67268  67449M
                                                 67488  67671M 67715  67774M 67791  67932M 67957  69822M 69929
 PCBRA         4 00000014 FFFFFFAD     A    4806  8196   9105  15633  16741  28061  28393  33750  34504  49053  49154
                                                 63357M 66780  67226  67447  67669  67772  67930  69820
 PCBSFCNT      4 00000050 FFFFFFAD     A    4895 52322
 PCBSFLG       1 00000023 FFFFFFAD     R    4837  4841   4846   4851   4856   4861
 PCBSFLH      12 00000048 FFFFFFAD     N    4892 20413  28185  31049  48631  48665  50667  63424
 PCBSF1        1 00000022 FFFFFFAD     R    4815  4819   4824   4829
 PCBSICNT      4 00000074 FFFFFFAD     A    4914 21686M 21686  21776M 21776  22854  26012  27465  30574
 PCBSTM        1 7FFFF000 FFFFFFAD A   U    4901 13706  69259
 PCBSWCB       4 00000060 FFFFFFAD     A    4905 19771M 19909  20377  24558  25583  27859  30904  31759
 PCBSWCBN      2 00000068 FFFFFFAD     H    4908 19648M 19830  19916  22853  24559  25584  26000  27453  31766
 PCBSWCNT      2 00000064 FFFFFFAD     H    4906 17681M 19196  19214  19629  19923  20368  24398  24416  28692
 PCBSWFS       2 0000006A FFFFFFAD     H    4909 17688M 17688  23731  24948  25198  53779  53781M
 PCBSWIN      12 0000006C FFFFFFAD     N    4911 19862  20107  20126M 20134  20142  20152  21708  22820  25548  27416
                                                 31707  31726M 31734  31742  31752  63433
 PCBSWPCT      2 00000066 FFFFFFAD     H    4907 19781M 28389  28693  29006  31080
 PCBUFLH      12 00000030 FFFFFFAD     N    4882 20412  28913  31478  33449  38332  63418
 PCBVA         4 00000010 FFFFFFAD     A    4805 28608  29007  29429  63355M 67266  67486  67713
 PCBWAIT       4 000000A0 FFFFFFAD     A    4930  8495M  9442M 14864  42915M 46243M
 PCBWCNT       4 00000084 FFFFFFAD     A    4921 13381  13382M 17111  17113M 50345
 PCBWCODE      1 000000B4 FFFFFFAD     R    4936  4945   4955
 PCBWECB       8 00000078 FFFFFFAD     D    4919 17175  50559
 PCBWPEND      4 00000080 FFFFFFAD     A    4920 14403  14414M 29568  29589M 29589  30336  30357M 30357
 PCBWSHIST
               4 00000028 FFFFFFAD     A    4876 33333M 33350M 33657  34823  34845M 63400M
 PDABORT       2 00004A18 00000001     H   42110 41235B 41247B 41434B 41517B 41595B 41621B
 PEABORT       2 000013DA 00000001     H   16367 15721B
 PFABORT       2 00003D58 00000001     H   35790 35540B
 PFIKAP        2 00008760 00000001     H   69170 68306B 68338B 68370B 68478B
 PFIKAP2       2 00008790 00000001     H   69206 69019B 69106B
 PFINIT        4 00008060 00000001     I   66412 66423U 72322
 PFINIT4       2 00008054 00000001     H   66407 66406
 PFRESLIM      1 00000028 00000001 A   U   81113 23873
 PFSABORT      2 00003FAE 00000001     H   37059 36810B
 PFTASB        4 0000000C FFFFFFAC     A    5003 10623  13243  14060  28183M 28910M 29297M 36149  37800  38168  48664M
                                                 50786M 54799M 55038  55221M 55221  67658M 68685M
1PAGESERV (PAGE00) (09:42) (22MAR04) Ordinary Symbol and Literal Cross Reference                                            Page  492
 PFTE         32 00000000 FFFFFFAC     J    5061  8042U  8341U  8400U  9248U  9350U 10618U 10999U 12439U 13238U 14055U
                                                 15605U 16204U 17066U 20990U 21195U 26527U 28177U 28904U 29288U 33510U
                                                 34598U 36144U 36835U 37403U 37772U 38164U 42794U 42969U 43068U 44943U
                                                 45193U 46122U 46297U 46396U 48487U 48899U 50609U 51632U 52015U 52194U
                                                 52905U 54740U 55034U 65096U 65606U 66644U 67070U 67290U 67503U 67990U
                                                 68057U 68538U 68681U 68931U 72770U
 PFTFIX        2 00000018 FFFFFFAC     H    5008 28184M 37781  37782M 38206  38228M 42985  46313  51646  54818M 67659M
 PFTFLG        1 0000001D FFFFFFAC     R    5013  5017   5022   5027   5032
 PFTFLG2       1 0000001F FFFFFFAC     R    5041  5045  54798
 PFTFP         4 00000000 FFFFFFAC     A    5000 21364  26560  33519  52927  54849  65118  65629  68942
 PFTFPGT     128 0000001D FFFFFFAC         5017 12655M 14371  15674  21306  29336M 33669  34177  34389  38342  45203M
                                                 48914M 54844M 68000M
 PFTFREL      16 0000001D FFFFFFAC         5032 13326M 14476  14490  14490  14491M 15655  42823M 46151M
 PFTFUFIX     32 0000001D FFFFFFAC         5027  8156M 12684M 13300M 14490  14490  14554  14599M 15785  15830M 16258
                                                 16303M 72781M
 PFTHIST       2 00000016 FFFFFFAC     H    5007 21357  28911M 33527  33566M 33614M 54801M
 PFTIOCB       4 00000010 FFFFFFAC     A    5004  8406   9356  12606M 13254M 15615M 15615  42833  46161
 PFTLOG        1 00000005 FFFFFFAC A   N    5054  8330   8389   9237   9339  10607  10988  12428  13227  14040  15594
                                                 16193  17055  21292  26556  28166  28892  29276  33547  33596  33714
                                                 34587  36133  36824  37392  37761  38153  42783  43057  44932  45182
                                                 46111  46385  48476  50598  51621  52004  52183  52917  54878  65108
                                                 65618  66526  67059  67279  67492  67979  68527  68918
 PFTNXT        1 00000020 FFFFFFAC     X    5048 48666  50788  66650
 PFTPAGING
             128 0000001F FFFFFFAC         5045 52926M 54754  55231  65117M 65628M 68941M
 PFTQ          1 0000001C FFFFFFAC     X    5010 28185M 28913M 29337M 37843  37979M 38248  38406M 48665M 50787M 54800M
                                                 55085  67646M 68686M
 PFTSEG        2 00000014 FFFFFFAC     H    5005 12658M 14383  15683  21312  29296M 34183  34400  34451  34513  45208M
                                                 48908M 68004M 68543
 PFTSFIX       2 0000001A FFFFFFAC     H    5009  8350   8351M  9257   9258M 16209  16231M 17071  17093M 21313  21358
                                                 28912M 29330M 33640  34603  34625M 36844  36845M 37408  37430M 43073
                                                 43095M 44952  44953M 46401  46423M 48915M 68109  68110M
 PFTVA         4 00000008 FFFFFFAC     A    5002  8150M 10624  11004  12634M 14354  15843  16111  21294  28182M 28909M
                                                 29293M 33675  33703  33745  34395  34564  45204M 48906M 51696  52020
                                                 54798  54798M 54798  67657M 72775M
 PGAD          4 00000000 FFFFFFA7     A    5280  7772   7834   7925   7928M  8387   9130   9133M 15913  15916M 16863
                                                 16866M 28150  28153M 28875  28878M 29261  29264M 34531  34534M 40272
                                                 42781  43175M 44900  44903M 46109  49171M 51619  51814M 67485  68178
                                                 68490
 PGDDAL      144 00000000 FFFFFF95     J    5918 73207  73234U 73431  73766U 77254U
 PGDFNOF     128 00000006 FFFFFF97         5805 21334M 29315
 PGDFPGT     128 00000020 FFFFFF9E         5594 14361M 14382M 16763
 PGDIOF        1 00000021 FFFFFF9E     X    5597  9702M 12625M 13278M 13898M 34285M
 PGDPAGE      48 00000000 FFFFFF9E     J    5607  8480U  9427U  9696U 12584U 12710U 13212U 13894U 15403U 16550U 29605U
                                                 30373U 34279U 42899U 46227U 72328
 PGDPGFLG      1 00000020 FFFFFF9E     R    5590  5594
 PGDPGPFX     24 00000000 FFFFFF9E     X    5585 12594U 12720U 13222U 13919U 15412U 16559U 29614U 30382U
 PGDPGSEG      2 00000022 FFFFFF9E     H    5598 14383M 16774  16883
 PGDPGVA       4 0000001C FFFFFF9E     A    5587 14354M 16779  16890  16969
 PGDPGWT       4 00000018 FFFFFF9E     A    5586  8485   8486M  9432   9433M 12618M 12618  13271M 13271  14832  14839M
                                                 14839  42903  42914M 46231  46242M
 PGDPIO        4 00000024 FFFFFF9E     A    5599 12736U 13453U 13926U 29621U 30389U
 PGDSFDAT     16 00000028 FFFFFF96         5864 27971  28479  28809  29116  53603M
 PGDSFFALLO
              64 00000028 FFFFFF96         5854 20017  20017  24620  25663  53597M
 PGDSFFIX      2 00000006 FFFFFF97     H    5796  5798   5798  21358M 28912
 PGDSFHST      1 00000005 FFFFFF97     X    5795  5797   5797  21357M 28911
 PGDSFKEY      1 00000004 FFFFFF97     X    5794 21296M 28164  28887  29273
 PGDSFLOUT
1PAGESERV (PAGE00) (09:42) (22MAR04) Ordinary Symbol and Literal Cross Reference                                            Page  493
             128 00000028 FFFFFF96         5849 20017  20017  20018M 21913M 24608  25631
 PGDSFPTF      1 00000005 FFFFFF97     U    5797 21341M 29302
 PGDSFSEG      2 00000006 FFFFFF97     U    5798  5805  21312M 28485  29122  29294
 PGDSFSGT      8 00000028 FFFFFF96         5869 20383M 53481
 PGDSFSINP
              32 00000028 FFFFFF96         5859 21919M 22734M 24635  26621M 27392M
 PGDSLAD       4 00000000 FFFFFF98     A    5758  5765  21293M 26557M 28123  28504  28873  29259
 PGDSLAX     128 00000000 FFFFFF98         5765 20521M 21395M 26603M 28536  28935  29359
 PGDSLIST      4 00000000 FFFFFF98     J    5781 20510U 21272U 21386U 23892  26540U 26592U 28091U 28436U 28766U 29073U
                                                 30755
 PGDSLLOG      1 00000002 FFFFFF98 A   N    5774 28286  28288  71620
 PGDSLNXT      1 00000004 FFFFFF98     X    5768 21365  26561  28195  28562  28961  29385
 PGDSVA        4 00000000 FFFFFF97     A    5793 21294M 28182  28815  28909  29212  29241  29293
 PGDSVLOG      1 00000003 FFFFFF97 A   N    5814 28288  71622
 PGDSVLST      8 00000000 FFFFFF97     J    5821 21286U 28104U 28449U 28779U 29086U
 PGDSVNXT      1 00000008 FFFFFF97     X    5808 21366  28196  28563  28962  29386
 PGDSWAP      64 00000000 FFFFFF96     J    5886 19740U 19791U 20706U 21017U 21888U 22337U 23272U 23341U 24579U 25604U
                                                 26474U 27114U 27834U 28423U 28543  28753U 28942  29060U 29366  30914U
                                                 31782U 53453U 54031U 71625
 PGDSWCNT      4 00000024 FFFFFF96     A    5842 20803  21074  31098  31167  31350  31383
 PGDSWEXT      4 00000040 FFFFFF96     A    5878 20398  20970  21247  26511  27871  28071  28282  28544  28943  29367
 PGDSWFP       4 0000001C FFFFFF96     A    5840 26510
 PGDSWFRA     12 0000001C FFFFFF96     N    5839 20036  20941  21219  25847  30942  31199  31404  31423M 31431  31439
                                                 31449  53620  53639M 53647  53655  53665
 PGDSWLNK      4 00000018 FFFFFF96     A    5837 19838M 20067  24788  25920  28542  28941  29365  31113  31365  31852
 PGDSWNUM      1 00000028 FFFFFF96 A   N    5879 71563
 PGDSWNXT      4 0000003C FFFFFF96     A    5877 20020  20056  20057
 PGDSWP        1 0000002C FFFFFF96     X    5876 19756U 21904U 22631U 22679U 22769U 22961U 24595U 25620U 26490U 27343U
                                                 28676U 31798U 53463U
 PGDSWPF       1 00000028 FFFFFF96     R    5845  5849   5854   5859   5864   5869   5872   5872
 PGDSWPFX     24 00000000 FFFFFF96     X    5836 19749U 19801  21026U 21897U 22347U 24588U 25613U 26483U 27124U 27844U
                                                 31791U 53470U 54040U
 PGT           4 00000000 FFFFFFA5     X    5411  5414
 PGTABORT      2 00001134 00000001     H   15230 13878B
 PGTADMSK     12 7FFFF000 FFFFFFA7 A   U    5281 13700  30752  41012  69249
 PGTAIMSK      1 000002FF FFFFFFA7 A   U    5305 17291  30745  47765
 PGTE          4 00000000 FFFFFFA7     J    5358  5411   7426U  9125U 10362U 11711U 15908U 16162U 16840U 17017U 28139U
                                                 28868U 29254U 33766U 34109U 34526U 38854U 39210U 40164U 40599  41532U
                                                 41756  42585U 43003  43243  44895U 45069U 45227  46020U 46331  46599
                                                 49081U 49085M 49166U 49385U 51513U 51550U 51694  54175U 63815U 63847M
                                                 67466U 68070U 68461U 69251  72572U
 PGTFCOMM     32 00000003 FFFFFFA7         5322 41689M 42613  68130  68130  68131  68131  68134  68134
 PGTFDEF     128 00000003 FFFFFFA7         5312  7458  11724  28149M 40243  40437  40483  40520  41699M 42726  46054
                                                 49184  49184  49185  49185  49187  49187  49190M 49415  49415  49416
                                                 49416  49418M 51583  54186M 68129  68129  68130  68130  68132  68132
                                                 68135M 72617
 PGTFINV       4 00000002 FFFFFFA7         5293  5305  10382  16854  33895M 34120M 40266  42775  46103  47760  51613
                                                 52427  66338  67479  68096  68475
 PGTFIO        8 00000003 FFFFFFA7         5332  7490   7934M  8228M  9139M 16173M 17028M 17291  33775M 33902M 34127M
                                                 42812  46140
 PGTFLG1       1 00000002 FFFFFFA7     R    5285  5293   5302
 PGTFLG2       1 00000003 FFFFFFA7     R    5308  5312   5317   5322   5327   5332   5337   5342  68117M
 PGTFLMSK      1 000006FF FFFFFFA7 A   U    5282  5305  13696  17295  35194
 PGTFPGT      16 00000003 FFFFFFA7         5327  7756   7828  15969  42753  45094M 46081  49185  49185  49186  49186
                                                 49189  49189  49416  49416  49417  49417  51595  68489M
 PGTFPROT      2 00000002 FFFFFFA7         5302 38864M 39221M 40320  40449  40503M 40539M 41663M
 PGTFREF      64 00000003 FFFFFFA7         5317  7683   8234M 44911  44911  44912M 46453M 49184  49184  49186  49186
                                                 49188  49188  49415  49415  49417  49417  68129  68129  68131  68131
                                                 68133  68133  72629
1PAGESERV (PAGE00) (09:42) (22MAR04) Ordinary Symbol and Literal Cross Reference                                            Page  494
 PGTFXDEF      4 00000003 FFFFFFA7         5337  8064   8145M 15955  15993M 33805  33953M 43128  44911  44911  46481
                                                 46493M 49187  49187  49188  49188  49189  49189  51767  68132  68132
                                                 68133  68133  68134  68134
 PGTL          1 00000400 FFFFFFA5 A   U    5412 11097  15895  33780  49150
 PGTLOG        1 00000002 FFFFFFA7 A   N    5351 10350  11099  15892  16148  16829  17003  28857  29243  33748  34502
                                                 38843  39199  54123  67654  67927  68447
 PGTNXT        1 00000004 FFFFFFA7     X    5345 40578  41735  43222  46578  49086  51826  63849  67677  68187
 PI2ABORT      2 00009CC8 00000001     H   77053 76824B 76873B
 PREAL                    00000001 A   U   15849 15981
 PREV                     00000001 A   U   21386 21395
 PROTRAN4      2 00004500 00000001     H   39727 39726
 PSCASB        4 00000014 FFFFFF9F     A    5566 12611M 13264M 13928  20008M 22349  26492  27126  53553  54042
 PSCDEV        4 00000010 FFFFFF9F     A    5565 12798M 13514M 15473  16620  19998M 20232  21920  22516  26622  27227
                                                 31844
 PSCFP         4 00000000 FFFFFF9F     A    5561 14403M 19809M 19809  19837  20247  21032  29676  30444  60289  60540M
                                                 60946M 61058M 72034M
 PSCID         4 00000008 FFFFFF9F     C    5563 60962M 72035M
 PSCIO         4 0000000C FFFFFF9F     A    5564 12835  13550  15436  16583  21977  22479  26768  27189  60994M 72068M
 PSCPFX       24 00000000 FFFFFF9F     J    5573  5585   5836  12594U 12720U 13222U 13919U 15412U 16559U 19749U 19801U
                                                 21026U 21897U 22347U 24588U 25613U 26483U 27124U 27844U 29614U 30382U
                                                 31791U 53470U 54040U 60284U 60535U 60938U 61053U 72030U
 PTRASIN       4 00000214 FFFFFFAE     A    4721 69653M
 PTRFRAME      4 0000021C FFFFFFAE     A    4723 69657M
 PTRFRAN       4 00000210 FFFFFFAE     A    4720 69651M
 PTRLOUT       4 00000218 FFFFFFAE     A    4722 69655M
 PTRXPDS       4 000001FC FFFFFFAE     A    4715 69641M
 PTRXPN        4 000001F8 FFFFFFAE     A    4714 69639M
 PTRXPRCNT
               4 00000200 FFFFFFAE     A    4716 69643M
 PTRXSDS       4 00000208 FFFFFFAE     A    4718 69649M
 PTRXSN        4 00000204 FFFFFFAE     A    4717 69647M
 PTRXSRCNT
               4 0000020C FFFFFFAE     A    4719 69645M
 PUDABORT      2 00004CFC 00000001     H   43603 42363B 42375B 42468B
 PUDAGAIN      2 00004B48 00000001     H   42767 42956B
 PURABORT      2 00005398 00000001     H   46959 45798B 45810B 45903B
 PURAGAIN      2 000051DA 00000001     H   46095 46284B
 PWCPTI        2 0000160C 00000001     H   17244 16812B 16857B
 PZABORT     128 0000021A FFFFFFB4         4208  7040M  7180M  8448M  9398M  9851M 10587M 11226M 11843M 12280M 12990M
                                                 13679M 14315M 14948M 15247M 15523M 16384M 16670M 17261M 17493M 17632M
                                                 20593M 21493M 22307M 22567M 23853M 25806M 26321M 26673M 26919M 27028M
                                                 27278M 30075M 31147M 32405M 32609M 35119M 35155M 35807M 37076M 38724M
                                                 39080M 40976M 42127M 42867M 43620M 45561M 46195M 46976M 47610M 49508M
                                                 51440M 51671M 51979M 52360M 53704M 54778M 55533M 55770M 56349M 56850M
                                                 57192M 57467M 57542M 57723M 58011M 58256M 58468M 58639M 59326M 59735M
                                                 59860M 66909M 69187M 69223M 72894M 74138M 76765M 77070M 77670M 81037M
 PZABR15       4 0000021C FFFFFFB4     A    4217  7041M  7181M  8449M  9399M  9852M 10588M 11227M 11844M 12281M 12991M
                                                 13680M 14316M 14949M 15248M 15524M 16385M 16671M 17262M 17494M 17633M
                                                 20594M 21494M 22308M 22568M 23854M 25807M 26322M 26674M 26920M 27029M
                                                 27279M 30076M 31148M 32406M 32610M 35120M 35156M 35808M 37077M 38725M
                                                 39081M 40977M 42128M 42868M 43621M 45562M 46196M 46977M 47611M 49509M
                                                 51441M 51672M 51980M 52361M 53705M 54779M 55534M 55771M 56350M 56851M
                                                 57193M 57468M 57543M 57724M 58012M 58257M 58469M 58640M 59327M 59736M
                                                 59861M 66910M 69188M 69224M 72895M 74139M 76766M 77071M 77671M 81038M
 PZABSM        1 0000021B FFFFFFB4     X    4216  7034M  7174M  8442M  9392M  9845M 10581M 11220M 11837M 12274M 12984M
                                                 13673M 14309M 14942M 15241M 15517M 16378M 16664M 17255M 17487M 17626M
                                                 20587M 21487M 22301M 22561M 23847M 25800M 26315M 26667M 26913M 27022M
                                                 27272M 30069M 31141M 32399M 32603M 35113M 35149M 35801M 37070M 38718M
                                                 39074M 40970M 42121M 42861M 43614M 45555M 46189M 46970M 47604M 49502M
1PAGESERV (PAGE00) (09:42) (22MAR04) Ordinary Symbol and Literal Cross Reference                                            Page  495
                                                 51434M 51665M 51973M 52354M 53698M 54772M 55527M 55764M 56343M 56844M
                                                 57186M 57461M 57536M 57717M 58005M 58250M 58462M 58633M 59320M 59729M
                                                 59854M 66903M 69181M 69217M 72888M 74132M 76759M 77064M 77664M 81031M
 PZCURASB      4 00000208 FFFFFFB4     A    4193  6977  33036  34865  35331  35947  36606  37216  39834  41164  42292
                                                 43799  45727  47141  47674  48181  49643  50232  60129
 PZCURPID      8 00000208 FFFFFFB4     D    4192 12840  13555  74211  75271  77743  79536
 PZERO       640 00000000 FFFFFFB4     J    4227  6903U  6975U  7032U  7172U  8440U  9390U  9843U  9937U 10498U 10579U
                                                 10731U 11218U 11351U 11835U 12272U 12363U 12729U 12982U 13070U 13442U
                                                 14307U 14940U 15239U 15328U 15515U 16376U 16489U 16662U 17253U 17388U
                                                 17485U 17624U 18135U 18385U 19538U 20585U 20718U 21485U 21589U 22213U
                                                 22299U 22559U 23572U 23845U 23992U 25798U 26313U 26416U 26665U 26717U
                                                 26911U 27020U 27056U 27270U 27744U 28619U 29442U 30067U 30185U 30842U
                                                 31139U 31626U 32094U 32397U 32513U 32601U 32972U 33034U 34863U 35111U
                                                 35147U 35274U 35329U 35799U 35890U 35945U 36549U 36604U 37068U 37159U
                                                 37214U 37711U 38103U 38606U 38716U 38962U 39072U 39777U 39832U 40968U
                                                 41107U 41162U 42119U 42235U 42290U 42859U 43612U 43742U 43797U 45553U
                                                 45670U 45725U 46187U 46968U 47084U 47139U 47602U 47672U 47838U 48080U
                                                 48179U 49500U 49586U 49641U 50175U 50230U 51278U 51432U 51663U 51971U
                                                 52352U 52564U 53696U 54770U 54976U 55525U 55632U 55762U 56211U 56341U
                                                 56648U 56842U 57028U 57184U 57356U 57459U 57534U 57715U 58003U 58248U
                                                 58460U 58631U 58836U 59318U 59609U 59727U 59852U 60071U 60127U 60433U
                                                 60738U 61197U 61468U 62239U 62808U 63212U 63567U 63975U 64645U 65923U
                                                 66459U 66901U 69179U 69215U 69357U 72389U 72886U 73052U 73680U 74130U
                                                 74169U 75234U 76757U 77062U 77168U 77662U 77701U 79499U 81029U
 PZLCPUA       4 00000210 FFFFFFB4     A    4195  7042   7182   8450   9400   9853  10589  11228  11845  12282  12992
                                                 13681  14317  14950  15249  15525  16386  16672  17263  17495  17634
                                                 20595  21495  22309  22569  23855  25808  26323  26675  26921  27030
                                                 27280  30077  31149  32407  32611  35121  35157  35809  37078  38726
                                                 39082  40978  42129  42869  43622  45563  46197  46978  47612  49510
                                                 51442  51673  51981  52362  53706  54780  55535  55772  56351  56852
                                                 57194  57469  57544  57725  58013  58258  58470  58641  59328  59737
                                                 59862  66911  69189  69225  72896  74140  76767  77072  77672  81039
 PZMATP        4 00000200 FFFFFFB4     A    4190  6905   9939  10500  10733  11353  12365  13072  13813  15330  16491
                                                 17390  18137  18387  19540  20720  21591  22215  23574  23994  26418
                                                 27058  27746  28621  29444  30187  30844  31628  32096  32515  32974
                                                 35276  35892  36551  37161  37713  38105  38608  38964  39779  41109
                                                 42237  43744  45672  47086  47840  48082  49588  50177  51280  52566
                                                 54978  55634  56213  56650  57030  57358  58838  59611  60073  60435
                                                 60740  61199  61470  62241  62810  63214  63569  63977  64647  65925
                                                 66461  69359  72391  73054  73682  77170
 PZTERMFL      1 0000021A FFFFFFB4     R    4204  4208   4213
 PZTREXA       4 00000090 FFFFFFB4     A    4171  6978
 QFIX          4 000040E8 00000001     I   37671 13709  37682U 40997
 QFIX4         2 000040DC 00000001     H   37666 37665
 QUFIX         4 000041A0 00000001     I   38063 17282  38074U 40999  47754
 QUFIX4        2 00004194 00000001     H   38058 38057
 RA            2 00000002 FFFFFFFF A   #    1028  5973   5973   6978M  6979M  6980   7836M  7837M  7838M  7851M  7898U
                                                  8032M  8042U  8761M  8762M  8763   9093M  9125U  9167M  9168M  9169M
                                                  9170  10029M 10030M 10035M 10037  10060  10346M 10350M 10351  10546M
                                                 10608M 10618U 10970M 10971M 10987  11004M 11013M 11098  11100  11419M
                                                 11435  12425M 12426  12754  12935  13224M 13225M 13226  13432  13434
                                                 14335M 14453M 14453  14783M 14783  14832M 14850M 14850  15067M 15449M
                                                 15458  15470  15550M 15559  15571  15630M 15631M 15686  15689  15862
                                                 15890M 15892M 15893M 15908U 16120  16146M 16147M 16148M 16149M 16162U
                                                 16596M 16605  16617  16697M 16706  16718  16737  16739M 16740M 16783
                                                 16886  16889  16975  17001M 17002M 17003M 17004M 17017U 17042M 17707M
                                                 17714  17717M 17828M 17849M 17850M 17851M 17868  20160M 20160  20161M
                                                 20176M 20176  20335M 20398M 20400  20401  20410M 20411M 20411  20487
                                                 21012M 21072M 21079  21081  21290M 21291M 21292M 21293  21295  21920M
1PAGESERV (PAGE00) (09:42) (22MAR04) Ordinary Symbol and Literal Cross Reference                                            Page  496
                                                 21930U 21936M 22492M 22501  22513  22594M 22603  22615  22853M 22881
                                                 22963M 22970  22972M 23007M 23010  23022M 23027  24948M 24957M 24957
                                                 24964  25275M 25521M 25775M 26511M 26540U 26561M 26582M 26592U 26622M
                                                 26632U 26693M 27002M 27003M 27003  27452M 27452  27472M 27504M 27504
                                                 27795M 27803M 28071M 28072  28091U 28195M 28282M 28283  28287M 28297M
                                                 28299  28388M 28436U 28544M 28546  28562M 28766U 28943M 28945  28961M
                                                 29010M 29073U 29367M 29369  29385M 29568M 29577M 29577  29605U 29762M
                                                 29776M 29776  30251M 30259M 30336M 30345M 30345  30373U 30530M 30544M
                                                 30544  30574M 30575M 30575  31027M 31284M 31456M 31720M 31720  32142M
                                                 32143  32144M 32145M 32146M 32185U 32190M 32207M 32207  32216M 32575M
                                                 32584M 32584  32629  32630M 32631M 32632M 32674U 32679M 32696M 32696
                                                 32705M 33407M 33408M 33409M 33410M 33425  33449M 33465U 33470  33472M
                                                 33510U 33545  33594  33712  34696M 34697M 34698  34707M 34707  34724M
                                                 34747M 34748M 34764  34776M 34777M 34778M 34798M 34807M 34807  34816
                                                 35377M 35378  35383M 35385  35586M 35993M 35994  35999M 36001  36108
                                                 36282M 36652M 36653  36658M 36660  36855M 37262M 37263  37268M 37270
                                                 37377  37439M 37759M 37760M 37761M 37762M 37772U 38206M 38208M 38211
                                                 38223M 38228  38237M 38237  38782M 38783  38784M 38785M 38786M 38796U
                                                 38801M 38810M 38841M 38844  39138M 39139  39140M 39141M 39142M 39152U
                                                 39157M 39166M 39197M 39200  39352M 39357  39880M 39882  39895M 39895
                                                 39907  39917M 39946  39978  39987  39991M 40195  40489  40526  40564M
                                                 40565  41210M 41212  41216M 41244  41253  41257M 41549  41721M 41722
                                                 42338M 42340  42344M 42372  42381  42385M 42568  42732  42992  43005
                                                 43208M 43209  44004M 44006  44010M 44021M 44025  44027M 44028  44036
                                                 44041M 44042M 44073U 45205  45293M 45773M 45775  45779M 45807  45816
                                                 45820M 46003  46060  46320  46333  46564M 46565  47256M 47258  47262M
                                                 47273M 47277  47279M 47280  47288  47293  47295M 47296M 47332U 47388M
                                                 47887M 47897U 48131M 48139M 48432M 48469M 48905M 48906  48907M 48908
                                                 48929M 48930M 48931M 48932  48934M 48936M 48947U 49053M 49063M 49119U
                                                 49148M 49151M 49152  49374M 49385U 49815M 49816M 49817M 50345M 50520M
                                                 50520  50596M 50597M 50598M 50599M 50609U 50788M 50976M 51108M 51115
                                                 51118M 51619M 51620M 51621M 51622M 51632U 52002M 52003M 52004M 52005M
                                                 52015U 52181M 52182M 52183M 52184M 52194U 52888M 52905U 52927M 52962M
                                                 53301M 53302M 53314  54080M 54088  54115  54121  54196M 54389M 54565M
                                                 54723  54724  54876  55085M 55087M 55087  55097U 55708M 55858  56287M
                                                 56438  56754M 57123M 57129  57404M 57498  57507M 57577  59243M 59291
                                                 59430M 59431M 59432  59755M 59756M 59805M 59809M 59819U 59892M 59898
                                                 59900  59908M 59909M 59910  60263M 60264M 60265  60267M 60268  60326
                                                 60522M 60523M 60524  60798M 60800  60807  60816M 60817M 60818  60849M
                                                 60849  60902M 60909M 60910M 60921  60938U 60995M 61043M 61053U 61094M
                                                 61095M 61096  61259M 61261  61268  61275M 61276M 61277  61533M 61542M
                                                 61542  62306M 62320  62555M 62692M 62702U 62956M 63005U 63009  63010M
                                                 63413U 63418M 63419  63420  63421M 63422  63423  63424M 63425  63426
                                                 63427M 63428  63429  63433M 63434  63435  63646M 63660  63833M 63847
                                                 64137M 64144  64205M 64206M 64207  64271M 64434M 64495  64696M 64705M
                                                 64705  64713  64717  64719M 64720  64724  64726  64737M 64740M 64743M
                                                 64744M 64745M 64746  64753M 64756  65079M 65096U 65118M 65155M 65589M
                                                 65606U 65629M 65646M 66086M 66102M 66107M 66108M 66153M 66154M 66155
                                                 66156M 66166M 66173M 66178M 66179M 66184M 66185M 66186  66187M 66188M
                                                 66189  66190M 66200M 66207M 66212M 66213M 66218M 66223  66510  66512
                                                 66516  66517  66522  66524  66526M 66568  66574M 66576M 66601  66619U
                                                 66634  66644U 66650M 66669M 66685  66703U 66723M 66724  66725M 66740
                                                 66800U 66826M 66872U 66929M 67038M 67058M 67059M 67060M 67070U 67225M
                                                 67245U 67649  67697M 67755M 67756M 67757M 67758  67759M 67775M 67801M
                                                 67802  67806  67822U 68001  68218M 68244M 68247M 68263  68279M 68284M
                                                 68286  68303  68444M 68447M 68448  68584M 68586M 68661M 68681U 68825M
                                                 68908M 68916  68931U 68942M 68979M 68980  68981M 68982M 68983M 68994U
                                                 68999M 69016M 69016  69025M 69359M 69380U 69497M 69498M 69499M 69500M
                                                 69501M 69502  69503  69506M 69507M 69508M 69509M 69510  69710M 69720U
1PAGESERV (PAGE00) (09:42) (22MAR04) Ordinary Symbol and Literal Cross Reference                                            Page  497
                                                 69739  69768  69858M 69859M 69861M 69862  69950  70197M 70549M 70550M
                                                 70551  70633M 70634M 70635  71074M 71115  71122M 71131  71619M 71620M
                                                 71621  71623  71992M 72457M 72851M 72852M 72860M 72862M 73272M 73840M
                                                 73840  74035  74229  74232  74233M 75289  75292  75293M 76275M 76331M
                                                 76391  76392  76449  76789M 77344M 77344  77763  79556  80593M 80666M
                                                 80667M 80721
 RADD          0 00000000 00000001 A   #    5961 57796M 57797M 57798M 57853M 57911
 RAMEGET4      2 00005F92 00000001     H   52513 52512
 RAMEREL4      2 000064D6 00000001     H   54931 54930
 RAMTERM4      2 00005C5E 00000001     H   51228 51227
 RAR          14 0000000E FFFFFFFF A   #    1184  6021   6021   7109M  7275M  7348M  7612M  7785M  7942M  7943   8110M
                                                  8289M  8349M  8350M  8351   8503M  8504   8734M  8916M  9056M  9256M
                                                  9257M  9258   9291M  9292   9450M  9451   9608M  9661M  9754M  9787M
                                                  9823B 10185M 10320M 10430B 10656B 10845M 11072M 11149M 11198B 11523M
                                                 11644M 11962M 12036M 12111M 12171M 12252B 12506M 12560M 12788M 12912M
                                                 12962B 13180M 13431M 13503M 13624M 13660B 14002M 14139M 14251M 14259M
                                                 14261M 14262  14290M 14290  14445M 14531M 14592M 14712M 14765M 14823M
                                                 14892M 14894M 14895  14923M 14923  14987M 15062M 15183M 15219B 15440M
                                                 15823M 16042M 16209M 16211M 16214  16226M 16231  16296M 16356B 16587M
                                                 17071M 17073M 17076  17088M 17093  17184M 17233B 17562M 17756M 17893M
                                                 17981M 18034M 18051M 18079B 18275M 18296B 18457M 18464M 18483M 18529M
                                                 18596M 18672M 18837M 18879M 18913M 19043M 19159M 19241M 19288M 19321M
                                                 19373M 19405M 19433B 19701M 19974M 20057M 20062M 20239M 20332M 20486M
                                                 20565B 21469B 22038M 22111B 22414M 22483M 22727M 22871M 22933M 23127M
                                                 23147M 23213M 23318M 23378M 23464M 23498B 23645M 23769M 23795M 23826B
                                                 24105M 24181M 24293M 24442M 24483M 24992M 25076M 25121M 25398M 25422M
                                                 25915M 25995M 26058M 26198M 26251M 26266M 26293B 26554M 26555M 26556M
                                                 26557  26559  26834M 26891B 27193M 27385M 27494M 27550M 27583M 27622B
                                                 27902M 28050M 28108M 28139U 28242M 28373M 29564M 29672M 29761M 29837M
                                                 29939M 29992M 30024B 30310M 30440M 30529M 30621M 30665M 30697M 30725B
                                                 31542B 31851M 31937M 31980B 32175M 32256M 32323M 32378B 32659M 32745M
                                                 32828M 32861B 33109M 33227M 33864M 34064M 34241M 34342M 34426M 34603M
                                                 34605M 34608  34620M 34625  34674M 35005M 35058M 35090B 35426M 35527M
                                                 35584M 35694M 35747M 35779B 36042M 36213M 36281M 36390M 36443M 36476B
                                                 36696M 36797M 36843M 36844M 36845  36963M 37016M 37048B 37311M 37408M
                                                 37410M 37413  37425M 37430  37537M 37590M 37623B 38018B 38442B 38530M
                                                 38547B 38780M 38840M 38876M 38903B 39136M 39196M 39233M 39260B 39351M
                                                 39356M 39374B 39463M 39480B 39571M 39588B 40022M 40133M 40637M 40692M
                                                 40760M 40862M 40915M 40948B 41285M 41405M 41493M 41794M 41849M 41917M
                                                 42015M 42068M 42100B 42416M 42527M 42690M 42955M 43046M 43073M 43075M
                                                 43078  43090M 43095  43167M 43281M 43336M 43404M 43506M 43559M 43592B
                                                 43881M 43993M 44269M 44322M 44393M 44449M 44486M 44573M 44643M 44762M
                                                 44843M 44951M 44952M 44953  45029M 45137M 45265M 45412M 45465M 45495M
                                                 45534B 45851M 45962M 46283M 46374M 46401M 46403M 46406  46418M 46423
                                                 46527M 46637M 46692M 46760M 46862M 46915M 46948B 47214M 47497M 47550M
                                                 47583B 47742B 47938M 47987B 48370M 48427M 48519M 48694M 48850M 48874M
                                                 49022M 49247M 49351M 49369M 49444M 49480B 49708M 49871M 50012M 50065M
                                                 50105B 50297M 50450M 50503M 50568M 50641M 50816M 50877M 50885M 50935M
                                                 50968M 51040M 51104M 51164B 51502M 51740M 51806M 52085M 52238M 52407B
                                                 52637M 52882M 52960M 53114M 53207M 53236M 53331M 53348M 53857M 53927M
                                                 54164M 54248M 54278M 54305M 54650M 54906B 55214M 55474M 55506B 55705M
                                                 55840M 55908M 56047M 56093M 56132B 56284M 56420M 56488M 56531M 56558B
                                                 56719M 56753M 56816M 56932M 56954B 57101M 57158M 57242M 57265B 57609B
                                                 58356B 58734B 58909M 59062M 59117M 59156M 59185M 59399M 59493M 59517B
                                                 59682M 59804M 59971M 59995B 60215M 60250M 60323M 60358B 60521M 60621M
                                                 60649B 60901M 60993M 61039M 61085M 61142B 61313B 61655M 61738M 61777M
                                                 61839M 61878M 61933M 61993M 62068M 62132M 62169B 62412M 62488M 62539M
                                                 62602B 62980M 63066M 63124B 63316M 63395M 63479B 63705B 63887B 64057M
                                                 64118M 64203M 64270M 64303B 64431M 64456M 64457  64542B 64925M 65072M
1PAGESERV (PAGE00) (09:42) (22MAR04) Ordinary Symbol and Literal Cross Reference                                            Page  498
                                                 65153M 65287M 65462M 65778M 65798M 65809M 65834B 66017M 66287M 66314B
                                                 66566M 67031M 67265M 67270  67276M 67277  67278  67446M 67466U 67490
                                                 67649M 67650M 67651M 67655M 67656M 67657  67668M 67677M 67754M 67912M
                                                 67917M 67918  67919M 67926  67933M 68001M 68002M 68003M 68004  68013M
                                                 68015  68027U 68070U 68136  68175M 68176M 68187M 68418M 69055M 69131M
                                                 69159B 69437M 69549M 69578M 69668M 69709M 70061M 70119M 70186M 70190M
                                                 70197M 70253M 70294M 70301M 70304  70357M 70364M 70367  70420M 70427M
                                                 70430  70483M 70490M 70493  70567M 70574M 70577  70656M 70663M 70666
                                                 70746M 70753M 70756  70817M 70824M 70827  70884M 70891M 70894  70970M
                                                 70977M 70980  71056M 71063M 71066  71154M 71161M 71164  71239M 71246M
                                                 71249  71324M 71331M 71334  71409M 71416M 71419  71479M 71486M 71489
                                                 71552M 71559M 71562  71660M 71667M 71670  71745M 71752M 71755  71861M
                                                 71985M 72067M 72124M 72179M 72201B 72250B 72489M 72535M 72557M 72635M
                                                 72759M 72850M 72959B 73160M 73223M 73271M 73338M 73350M 73388M 73452M
                                                 73506M 73545M 73572B 73878M 73885M 73888  73959M 74067M 74243M 74367M
                                                 74470M 74551M 74621M 74691M 74761M 74809M 74901M 74979M 75045M 75115M
                                                 75189M 75303M 75427M 75530M 75611M 75681M 75751M 75821M 75869M 75961M
                                                 76039M 76105M 76175M 76249M 76320M 76324M 76331M 76411M 76418M 76421
                                                 76556M 76659M 76733M 76940M 76991M 77042B 77338M 77403M 77410M 77413
                                                 77491M 77599M 77773M 77898M 78001M 78082M 78152M 78222M 78292M 78340M
                                                 78432M 78510M 78576M 78646M 78720M 78847M 78950M 79024M 79072M 79164M
                                                 79242M 79308M 79378M 79452M 79566M 79690M 79793M 79874M 79944M 80014M
                                                 80084M 80132M 80224M 80302M 80368M 80438M 80512M 80529M 80529  80531M
                                                 80534M 80535M 80536  80537  80582M 80586M 80593M 80683M 80690M 80693
                                                 80828M 80931M 81005M 81091B
 RB            3 00000003 FFFFFFFF A   #    1040  5985   5985   7220M  7221M  7222M  7232   7667M  7879   7924M  7927
                                                  8165   8290   8292   8308M  8318U  8387M  8388M  8389M  8390M  8400U
                                                  8406M  8423M  8423   8480U  8683M  8975M  9132   9169   9337M  9338M
                                                  9339M  9340M  9350U  9356M  9373M  9373   9427U 10034M 10034  10036M
                                                 10269  10346  10347M 10348  10547M 10548  10550M 10551M 10563  10607M
                                                 10608  10987M 10988M 10989M 10999U 11110M 11111M 11435M 11436M 11437M
                                                 11438M 11448U 12426M 12427M 12428M 12429M 12439U 13201M 13202  13212U
                                                 14039M 14040M 14041M 14055U 14864M 15067  15449M 15550M 15684M 15687M
                                                 15688M 15689M 15751U 15859M 15860M 15861M 15862M 15872U 15888M 15889M
                                                 15890  15891M 15894M 15895M 15929U 16117M 16118M 16119M 16120M 16130U
                                                 16596M 16697M 16779M 16780  16781M 16782M 16783M 16795U 16818M 16827M
                                                 16830M 16840U 16884M 16885M 16886M 16903U 16972M 16973M 16974M 16975M
                                                 16985U 17714M 17716M 17717  17829M 17832  17844M 17849  20120M 20120
                                                 20161  20399M 20400M 20401  20412M 20802M 20803M 20808  20810M 21073M
                                                 21074M 21079  21081M 21295M 21296  21313M 21322M 21322  21340M 21341
                                                 21363M 22492M 22594M 22854M 22881  24522U 24527M 24528  24529  24537M
                                                 24538  24539  27453M 27465  27802M 27803  27871M 28072M 28073M 28104U
                                                 28196M 28283M 28284M 28289M 28298M 28299  28388M 28449U 28545M 28546M
                                                 28563M 28779U 28944M 28945M 28962M 29010M 29086U 29368M 29369M 29386M
                                                 29676M 29762  30258M 30259  30444M 30530  31098M 31107M 31107  31167M
                                                 31176  31178  31759M 31782U 31938M 32143M 32257M 32258M 32259M 32269U
                                                 32629M 32746M 32747M 32748M 32758U 33036M 33054U 33277M 33278  33398M
                                                 33398  33410  33545M 33546M 33547M 33548  33594M 33595M 33596M 33597
                                                 33640M 33641M 33641  33712M 33713M 33714M 33715  34184M 34185M 34186M
                                                 34187M 34197U 34513M 34514M 34533  34788M 34789M 34789  34798  34823M
                                                 34824M 34836  34845  35378M 35379M 35381M 35384M 35385M 35386M 35389M
                                                 35994M 35995M 35997M 36000M 36001M 36002M 36005M 36653M 36654M 36656M
                                                 36659M 36660M 36661M 36664M 37263M 37264M 37266M 37269M 37270M 37271M
                                                 37274M 37843M 37845M 37845  38248M 38269  38783M 38842M 38843M 38844M
                                                 38854U 39139M 39198M 39199M 39200M 39210U 39918M 39919M 39921M 39934
                                                 39946  39954M 39955B 40226M 40227B 40290M 40293M 40294M 40299  40301
                                                 40326M 40331  40333  40379M 40384  40386  40402M 40407  40409  40565M
                                                 40566M 40599M 40722M 41217M 41218M 41220M 41232  41244  41549M 41550M
                                                 41551M 41552M 41562U 41722M 41723M 41756M 41879M 42345M 42346M 42348M
1PAGESERV (PAGE00) (09:42) (22MAR04) Ordinary Symbol and Literal Cross Reference                                            Page  499
                                                 42360  42372  42781M 42782M 42783M 42784M 42794U 42833M 42842M 42842
                                                 42899U 43209M 43210M 43243M 43366M 44011M 44013M 44018  44020  44034M
                                                 44035M 44038M 44040M 44086U 45294M 45780M 45781M 45783M 45795  45807
                                                 46109M 46110M 46111M 46112M 46122U 46161M 46170M 46170  46227U 46565M
                                                 46566M 46599M 46722M 47263M 47265M 47270  47272  47286M 47287M 47290M
                                                 47292M 47345U 47389M 48138M 48139  48162M 48163M 48168  48170  48238M
                                                 48248U 48254M 48304M 48305M 48307M 48308  48375M 48376M 48377M 48378M
                                                 48468  48932M 48933M 48937M 48961U 49061M 49061  49146M 49147M 49148
                                                 49149M 49150M 49375M 49399U 50595M 50890M 51060M 51061M 51115M 51117M
                                                 51118  51646M 51647M 51647  51694M 51695M 51697  52020M 52021  52050
                                                 52915M 52916M 52917M 52920  53776M 53777M 53778  55024M 55034U 55707M
                                                 55720  55841M 55874  56286M 56299  56421M 56454  56755M 57405M 57427U
                                                 57508M 57571U 57576  59195M 59196M 59197  59200M 59216M 59241  59242M
                                                 59683M 59684M 59685M 59686M 59696U 59806M 59807M 59808M 59809  59893M
                                                 59898  59900M 59901  60268M 60284U 60288  60289M 60305  60525M 60535U
                                                 60903M 60922M 61612M 61621M 61621  62105M 62105  62320M 62321M 62336M
                                                 62345  62691M 62723M 62723  62756M 64432M 64476U 64496M 64724  64726M
                                                 64727  64737M 64746  64754M 64755  64756M 64757  65106M 65107M 65108M
                                                 65111  65301M 65310M 65310  65616M 65617M 65618M 65621  66086M 66088M
                                                 66109  66156M 66180  66190M 66214  66219M 66220M 66223  66511  66512M
                                                 66522  66524M 66525  66572M 66572  66577M 66595U 66625  66634M 66679U
                                                 66709  66724M 66726M 66729M 66730M 66733  66737  66739M 66740  67037M
                                                 67037  67225M 67759M 67763  67765M 67766  67767M 67771  67803M 68245M
                                                 68246M 68247  68248M 68250M 68263  68283M 68283  68285M 68367  68444
                                                 68445M 68446  68584M 68706M 68714  68882M 68892U 68916M 68917M 68918M
                                                 68921  68980M 69056M 69057M 69058M 69068U 69503M 69504M 69505  69590U
                                                 69595M 69596  69597  69598M 69599  69600  69601M 69602  69603  69604M
                                                 69605  69606  69607M 69608  69609  69610M 69611  69612  69613M 69614
                                                 69615  69616M 69617  69618  69619M 69620  69621  69622M 69623  69624
                                                 69636M 69637  69638M 69639  69640M 69641  69642M 69643  69644M 69645
                                                 69646M 69647  69648M 69649  69650M 69651  69652M 69653  69654M 69655
                                                 69656M 69657  70148M 70149  70150  70151  70152M 70153M 70188  70191
                                                 70196M 70305M 70317M 70320  70332M 70341  70368M 70380M 70383  70395M
                                                 70404  70431M 70443M 70446  70458M 70467  70494M 70506M 70509  70521M
                                                 70528  70540M 70578M 70590M 70593  70605M 70612  70624M 71086M 71089
                                                 71101M 71115  71122  71420M 71432M 71439  71441M 71444  71456M 71461
                                                 71490M 71502M 71510  71512M 71515  71527M 71532  71563M 71575M 71578
                                                 71590M 71597  71609M 71618  71619  71622M 71623M 71624  71625M 71626M
                                                 71627  71891M 71892  71893M 71894  71895  71991M 71991  72011M 72760M
                                                 72770U 72790M 72853M 73842M 73842  73906M 73969M 73969  74000U 74094M
                                                 74095  74096M 74097  74101M 74104  74113M 74113  74158  74229M 74233
                                                 75197M 75198  75199  75289M 75293  76274M 76275  76276M 76277M 76322
                                                 76325  76330M 76422M 76435M 76449  76799M 76808  76809  77348M 77348
                                                 77435M 77501M 77501  77533U 77626M 77627  77628M 77629  77633M 77636
                                                 77645M 77645  77690  80523M 80525  80538M 80539M 80584  80587  80592M
                                                 80694M 80707M 80721
 RCNT          4 00000004 00000001 A   #    5997 57857M 57857  57873  57882M 57900M 57900  57912  57944M 57944  57962
                                                 57977  58031M 58032  58071M 58072M 58076  58078M 58124  58151M 58152M
                                                 58155  58167M 58172M 58176  58177M 58178M 58178  58179M 58537M 58538M
                                                 58541  58553M 58558M 58565  58566M 58567M 58567  58568M
 RCPCB         5 00000005 FFFFFFFF A   #    1240  9532M  9542U  9548M  9576U 11467M 11477U 11483M 14060M 14070U 14076M
                                                 14636M 14646U 14652M 14680U 17915M 17925U 17931M 17959U 23239M 23252U
                                                 23258M 23296U 26122M 26132U 26138M 26166U 29863M 29873U 29879M 29907U
                                                 34929M 34939U 34945M 34973U 35618M 35628U 35634M 35662U 36314M 36324U
                                                 36330M 36358U 36887M 36897U 36903M 36931U 37471M 37481U 37487M 37515U
                                                 40786M 40796U 40802M 40830U 41356M 41366U 41372M 41939M 41949U 41955M
                                                 41983U 43430M 43440U 43446M 43474U 44203M 44213U 44219M 44247U 45336M
                                                 45346U 45352M 45380U 46786M 46796U 46802M 46830U 47431M 47441U 47447M
                                                 47475U 49919M 49937U 49943M 49980U 50367M 50385U 50391M 50428U 50573M
1PAGESERV (PAGE00) (09:42) (22MAR04) Ordinary Symbol and Literal Cross Reference                                            Page  500
                                                 72536M
 REAL                     00000001 A   U    8201  8210
 REAL                     00000001 A   U    9110  9149
 REAL                     00000001 A   U   15638 15772  16003  16063  16241
 REAL                     00000001 A   U   16746 16876  16960  17038
 REAL                     00000001 A   U   28066 28163
 REAL                     00000001 A   U   34509 34544
 RESOLVE       4 00000962 00000001     I   11306 11317U 73593
 RESOLVE4      2 00000956 00000001     H   11301 11300
 RESPT         4 00000824 00000001     I   10691 10702U 41010  47751  52433
 RESPT4        2 00000818 00000001     H   10686 10685
 RESWAKE       4 0000769E 00000001     I   62659 62487  62670U
 RESWAKE4      2 00007692 00000001     H   62654 62653
 RFRAME        2 00007674 00000001     Y   62619 62371  62622  62635
 RJ            4 00000004 FFFFFFFF A   #    1052  5997   5997   7154M  7155M  7155   7213M  7214M  7214   7232   7431M
                                                  7441U  8485M  8495   8635M  8645U  8744   8753M  9432M  9442  10001M
                                                 10011M 10012  10039M 10040  10078U 10240M 10249  10253M 10548M 10549M
                                                 10626  11092M 11093M 11094M 11095  11099M 11100M 11101  11701M 11711U
                                                 11769M 11779U 12656M 12657M 12658  12753M 12754  13432M 13433M 13434
                                                 13874M 13875M 13875  13884M 13894U 15379M 15388M 15388  15403U 15591M
                                                 15592  15915  15936  16620M 16630U 16774M 16775M 16865  16883M 16884
                                                 16887M 16888M 16889M 16932U 16969M 16972  17001  17822M 17823M 17824
                                                 17851  19837M 19838  19895  20004  20006  20066M 20413M 20423U 20487M
                                                 20969M 21006  21247M 21249  21272U 21363  21365M 21376  21437  22516M
                                                 22526U 23731M 23740M 23740  23746M 23747  23783M 23783  24563M 24563
                                                 24779M 24807  24809  24819  25333M 25335  25345  25588M 25588  25637M
                                                 25940  25942M 25959  27227M 27237U 27982M 27992U 27998M 28485M 28486M
                                                 28487M 28488M 28498U 28819M 28831M 28832M 28833M 28834M 28835M 28854M
                                                 28855M 28858  29130M 29142M 29143M 29144M 29145M 29146M 29174U 29186M
                                                 29187M 30921M 31852M 31938  33178M 33188U 33194M 33235  33527M 33544M
                                                 33561M 33566  33588M 33588  33613M 33614  33623M 33657  33675M 33676M
                                                 33677M 33678M 33688U 33694M 33704  33744M 33749  33781  34183M 34184
                                                 34216M 34217M 34227U 34400M 34401M 34402M 34412U 34442M 34443M 34451
                                                 34457M 34458M 34468U 34491M 34500M 34503  35546M 36095M 36131  36816M
                                                 36822  37364M 37390  38332M 38349M 38405M 38406  38692M 38693M 38781M
                                                 38786  39048M 39049M 39137M 39142  40064M 40065M 40134M 40164U 40578M
                                                 40693M 42458M 42459M 42528M 42585U 43222M 43337M 44036M 44037M 44038
                                                 44039M 44040  44042  44043M 44185M 44187  44454M 44455M 45204  45893M
                                                 45894M 45963M 46020U 46578M 46693M 47288M 47289M 47290  47291M 47292
                                                 47296  47297M 48467M 48469M 48474M 48475M 48476M 48477M 48487U 48666M
                                                 48851M 48984  49032  49056  49064  49153  49171  49284M 49302U 49328M
                                                 49329M 49750M 49753  49769U 49815  49876M 51341M 51343  51345  51361U
                                                 51855M 51882M 51884  51900U 52090M 52117M 52119  52135U 52260M 52662M
                                                 52663M 52664M 52682M 52728  52735  53015M 53016M 53017  53025M 53026M
                                                 53027  53083  53779M 53780M 53781  53782M 53783M 53784  53832M 53832
                                                 54088M 54089M 54090M 54091M 54101U 54106M 54115  54119M 54120M 54124M
                                                 54165M 54175U 54343M 54343  54452M 54585  54622  55720M 55730U 56299M
                                                 56309U 57128M 57128  57129M 58910M 58918  59066M 59067  59238  59282M
                                                 59302  59424  59495  60288M 60325  60571M 60578  60580M 60806M 60806
                                                 60807M 60915M 60915  60916M 61267M 61267  61268M 61739M 62040M 62337M
                                                 62344  62346M 62377M 62378M 62443M 62444M 62444  62706M 62752U 62775M
                                                 63332M 63342U 63354  63630M 63832M 64435M 64735M 64740  64744  64861M
                                                 64862M 64863M 64867M 64868M 64874  64876  64877M 64878M 64883  64885
                                                 65208M 65209M 65210  65211M 65218  65220M 65255M 65256M 65257  65352M
                                                 65353M 65354M 65358M 65359M 65360M 65360  65365  65367  65371M 65372M
                                                 65377  65379  65384M 65385M 65391  65393  65699M 65700M 65701  65702M
                                                 65709  65711M 65746M 65747M 65748  66046M 66056U 66731M 66732M 66732
                                                 66733M 66851M 66851  67278M 67279M 67280M 67290U 67485M 67491M 67492M
                                                 67493M 67503U 67874M 67914M 67915  67928  67930M 67951U 68033M 68083U
1PAGESERV (PAGE00) (09:42) (22MAR04) Ordinary Symbol and Literal Cross Reference                                            Page  501
                                                 68188M 68264M 68274M 68275  68288M 68321U 68344M 68353  68357M 68419M
                                                 68429U 68448M 68461U 68490M 68526M 68527M 68528M 68538U 68543M 68555M
                                                 68556  68705M 68714M 68909M 68917  68964M 68974U 69775M 69785U 69791M
                                                 69800M 69854U 70122M 70135U 70201  71903M 71903  71905M 71911M 71911
                                                 71912M 71921M 71921  71936M 72011  72012  72589M 72599U 73864M 73871M
                                                 73888  74368M 74378U 74819U 75428M 75438U 75879U 76557M 76567U 76814M
                                                 76815M 76830  76831M 76832M 76833  76853M 76854M 76864M 76884M 76888
                                                 76890  76891M 76894M 77389M 77396M 77413  77899M 77909U 78350U 78848M
                                                 78858U 79082U 79691M 79701U 80142U 80829M 80839U
 RK            5 00000005 FFFFFFFF A   #    1064  1240   1240   6009   6009   7416M  7426U  8589M  8599U  8754M  8760M
                                                  8761   8764M  8765M  8766M 10012M 10042M 10043M 10044  10249M 10250M
                                                 10251M 10252M 10269  11095M 11096M 11097M 11098M 11101  12799M 13226M
                                                 13227M 13228M 13238U 13509M 15473M 15483U 15592M 15593M 15594M 15595M
                                                 15605U 16540M 16550U 18191M 18192M 18201  18538M 18539M 18548  19630M
                                                 19631  19638  19999M 20004  20006M 20007  20066  20969M 21248M 21249M
                                                 21250  21286U 21366M 21437  22277M 22278M 22278  22327M 22337U 25669M
                                                 26510M 26527U 26560M 27104M 27114U 27834U 27859M 28385M 28386  30904M
                                                 30914U 31113M 31122M 31122  31365M 31374M 31374  33279M 33282  33294M
                                                 33301  33313M 33318  33327M 33327  33543M 33795M 33938M 33958  34395M
                                                 34396M 34429  34442  34501M 34502M 34503M 34526U 34564M 34565M 34585
                                                 36087M 36087  36108M 36449  37356M 37356  37377M 37596  38151M 38152M
                                                 38153M 38154M 38164U 40134M 40177U 40579M 40693M 42528M 42598U 43223M
                                                 43337M 43952M 43962U 44789M 44902  44924M 44930  45138M 45139M 45140
                                                 45181M 45182M 45183M 45193U 45227M 45963M 46033U 46579M 46693M 47293M
                                                 47294M 47378  47387M 48468M 48473M 48852M 48899U 49064M 49081U 49086M
                                                 49154M 49216U 49248M 49258U 49751M 51342M 51343  51882M 52117M 52697M
                                                 52698M 52716  52718M 52728  52735M 52748M 52748  52889  53016  53026
                                                 53062M 53063  53435M 53453U 53871M 53872M 53872  54677M 54722M 54800
                                                 55300M 55301M 55302  55857M 55858M 55859  55860M 55861  55873M 55910
                                                 56437M 56438M 56439  56440M 56441M 56442  56490  56797M 56870M 56871
                                                 57124M 57212M 57213M 57214  58918M 58919M 58920M 58921M 58931U 59067M
                                                 59068M 59069M 59070M 59238M 59239M 59240M 59241M 59255U 59291M 59400M
                                                 59410U 60189M 60227  60263  60578M 60579M 60580  60799M 60800M 60802M
                                                 60817  60855M 60903  60922  61040  61095  61260M 61261M 61263M 61276
                                                 61840M 61955M 62344M 62345M 62346  62375M 62376M 62710M 62710  62737
                                                 62770M 62794M 62794  63629M 63630  63631M 63632M 63642U 63663M 64135M
                                                 64382M 64451U 64458M 64735M 64803M 64807  64809M 64813  64815M 64816
                                                 64836M 64836  64853M 64874  64876M 64883  64885M 64894M 64894  64929
                                                 64931M 64940M 64940  65080  65209  65219  65256  65326M 65326  65344M
                                                 65365  65367M 65377  65379M 65391  65393M 65397  65399M 65411  65421M
                                                 65421  65435M 65435  65466  65468M 65477M 65477  65590  65700  65710
                                                 65747  66018M 66028U 67804M 67805M 67806M 67835U 68219M 68275M 68292M
                                                 68293M 68353M 68354M 68355M 68356M 68367  68435M 68446M 68508U 68552M
                                                 68553M 68554M 68556M 68566U 68962M 68963M 69075  69819M 69840U 69958M
                                                 69968U 71899M 71906  71907M 71930M 71935M 71987  71993M 74070  74072M
                                                 74075M 74077  76810M 76811  76812M 76813M 76814  76831  76837M 76838M
                                                 76847M 76847  76883M 76888  76890M 76893  77602  77604M 77607M 77609
 RLEN          3 00000003 00000001 A   #    5985 57766M 57799  57851M 58033  58109M 58140M 58141M 58181  58293M 58526M
                                                 58527M 58570  58676M
 RLOC          2 00000002 00000001 A   #    5973 57765M 57771M 57796  57850M 58108M 58137M 58138  58139M 58141  58142M
                                                 58292M 58488M 58490  58501M 58501  58524  58525M 58527  58528M 58675M
 RM            8 00000008 FFFFFFFF A   #    1100  7834M  7835M  7836   7839M  7850M  7872U  8165M  8208M  8290M  8291M
                                                  8292   9105M  9939M  9957U  9963M  9981U 10500M 10518U 10524M 10542U
                                                 10895M 10919U 11878M 11878  11935M 12573M 12574  12584U 12710U 15448M
                                                 15458M 15465M 15470M 15471  15549M 15559M 15566M 15571M 15572  15633M
                                                 16595M 16605M 16612M 16617M 16618  16696M 16706M 16713M 16718M 16719
                                                 16741M 17678M 17679M 17680M 17681  17823  18052  20247M 20333  20682M
                                                 20692U 21640M 21640  21906M 22050  22084  22087  22089  22491M 22501M
                                                 22508M 22513M 22514  22593M 22603M 22610M 22615M 22616  22664M 22665M
1PAGESERV (PAGE00) (09:42) (22MAR04) Ordinary Symbol and Literal Cross Reference                                            Page  502
                                                 22666  24558M 24579U 24788M 24808M 24809M 24810  24811M 24818  24820M
                                                 25334M 25335M 25336  25337M 25344  25346M 25583M 25604U 25920M 25939M
                                                 25940M 25941  25958M 25959M 25960  26464M 26474U 27201M 27212M 27219M
                                                 27224M 27225  27304M 27315M 27322M 27327M 27328  27981M 28197M 28389M
                                                 28406M 28406  28608M 28687U 28713U 28815M 28819  28831  28856M 28857M
                                                 28858M 28868U 29007M 29021U 29122M 29123M 29129M 29130  29142  29212M
                                                 29213M 29214M 29215M 29225U 29231M 29240M 29244M 29254U 31080M 31091M
                                                 31091  31097  31334M 33745M 33746M 33747  33748M 33749M 33766U 34109U
                                                 34504M 36131M 36132M 36133M 36134M 36144U 40142M 40142  40195M 40214M
                                                 40249M 40299  40301M 40331  40333M 40384  40386M 40407  40409M 40458M
                                                 40458  40466M 40489M 40526M 40921  41424M 41425M 41494M 41532U 41735M
                                                 41850M 42537M 42537  42568M 42732M 42992M 43565  44861M 44871U 44885M
                                                 44895U 44962M 45048M 45069U 45972M 45972  46003M 46060M 46320M 46921
                                                 47315M 47315  47378M 47556  48433M 48443U 48449M 49752M 49753M 49782U
                                                 49877M 50582M 51464M 51465M 51503M 51513U 51530U 51826M 52865M 52888
                                                 52962  53679M 53878M 53888U 53894M 57673M 57683U 58418M 58428U 60175M
                                                 60185U 60569M 60569  60570M 60579  61683M 61693U 61699M 62373M 62374M
                                                 62383M 65054M 65079  65155  65588M 65589  65646  66087M 66107  66126M
                                                 66127  66128M 66129  66134  66136  66141M 66142M 66147  66149  66157M
                                                 66166  66178  66191M 66200  66212  67976M 67979M 67980M 67990U 68057U
                                                 68286M 68287M 68288  68289M 68293  70254M 70255  70265U 71986M 71992M
                                                 72004M 72030U 72036  72069M 72085M 72086M 72562M 72572U 73224M 73234U
                                                 73756M 73766U 77244M 77254U
 RMAP         15 0000000F 00000001 A   #    6033 57842M 57891M 57891  57905M 58062M 58173M 58210M 58218  58219M 58284
                                                 58559M 58599M 58607  58608M 58667
 RMAPL        14 0000000E 00000001 A   #    6021 58070M 58079M 58090  58174M 58175M 58180M 58219  58220M 58231  58563M
                                                 58563  58564M 58569M 58608  58609
 RN            9 00000009 FFFFFFFF A   #    1112  8166M 10895M 10905U 11880M 11880  12019M 15448M 15471  15549M 15572
                                                 16595M 16618  16696M 16719  16890M 16891M 16910  18196M 18197M 18201M
                                                 18202M 18217M 18217  18543M 18544M 18548M 18549M 18558M 18558  18608M
                                                 18608  18673M 19712M 19740U 19895M 19909M 20067M 20159M 20333M 20377M
                                                 20766M 20776U 20919M 20990U 21054M 21067U 21197M 21290  21364M 21765M
                                                 21888U 22083M 22084M 22085  22086M 22087M 22088  22491M 22514  22593M
                                                 22616  24559M 24818M 24819M 24820  24963M 24964M 24965  25197M 25198M
                                                 25199  25229M 25229  25344M 25345M 25346  25475M 25475  25584M 25943M
                                                 25953U 26000M 26012  26509M 27201M 27225  27304M 27328  28061M 28324M
                                                 28334U 28348M 28349M 28391M 28392M 28488  31097M 31176  31178M 31334
                                                 31350M 31359M 31359  31383M 31417M 31417  33747M 33779M 33780M 33781M
                                                 33791U 36149M 36159U 36165M 40272M 40273M 41494M 41545U 41736M 41850M
                                                 42903M 42915  42985M 42986M 42986  43003M 43004M 43005  43055  44644M
                                                 44876  44962M 45048M 45082U 46231M 46243  46313M 46314M 46314  46331M
                                                 46332M 46333  46383  49308M 49309  49310  49355  49356  49643M 49661U
                                                 50232M 50250U 51536M 51561U 51827M 54007M 54031U 58970M 58980U 62369M
                                                 62370M 62371M 62371  66087M 66088  66157M 66191M 68290M 68291M 68292
                                                 69880M 69881M 69882  71987M 72562M 72585U 73161M 73171U 73728M 73738U
                                                 77216M 77226U
 RPAG          6 00000006 FFFFFFFF A   #    1228  6905M  6923U  6929M  6947U 10733M 10751U 10757M 10775U 11353M 11371U
                                                 11377M 11395U 12365M 12383U 12389M 12407U 13072M 13090U 13096M 13114U
                                                 13813M 13831U 13837M 13855U 15330M 15348U 15354M 15372U 16491M 16509U
                                                 16515M 16533U 17390M 17408U 17414M 17432U 18137M 18155U 18161M 18179U
                                                 18387M 18405U 18411M 18429U 19540M 19558U 19564M 19582U 20720M 20738U
                                                 20744M 20762U 21591M 21609U 21615M 21633U 22215M 22233U 22239M 22257U
                                                 23574M 23592U 23598M 23616U 23994M 24012U 24018M 24036U 26418M 26436U
                                                 26442M 26460U 27058M 27076U 27082M 27100U 27746M 27764U 27770M 27788U
                                                 28394M 28621M 28642U 28648M 28703M 28703  29444M 29465U 29471M 30187M
                                                 30205U 30211M 30229U 30844M 30862U 30868M 30886U 31628M 31646U 31652M
                                                 31670U 32096M 32114U 32120M 32138U 32515M 32533U 32539M 32557U 32974M
                                                 32992U 32998M 33016U 35276M 35294U 35300M 35318U 35892M 35910U 35916M
                                                 35934U 36551M 36569U 36575M 36593U 37161M 37179U 37185M 37203U 37713M
1PAGESERV (PAGE00) (09:42) (22MAR04) Ordinary Symbol and Literal Cross Reference                                            Page  503
                                                 37731U 37737M 37755U 38105M 38123U 38129M 38147U 38608M 38626U 38632M
                                                 38650U 38964M 38982U 38988M 39006U 39779M 39797U 39803M 39821U 41109M
                                                 41127U 41133M 41151U 42237M 42255U 42261M 42279U 43744M 43762U 43768M
                                                 43786U 45672M 45690U 45696M 45714U 47086M 47104U 47110M 47128U 47840M
                                                 47858U 47864M 47882U 48082M 48100U 48106M 48124U 49588M 49606U 49612M
                                                 49630U 50177M 50195U 50201M 50219U 51280M 51298U 51304M 51322U 52566M
                                                 52584U 52590M 52608U 54978M 54996U 55002M 55020U 55634M 55652U 55658M
                                                 55676U 56213M 56231U 56237M 56255U 56650M 56668U 56674M 56692U 57030M
                                                 57048U 57054M 57072U 57358M 57376U 57382M 57400U 58838M 58856U 58862M
                                                 58880U 59611M 59629U 59635M 59653U 60073M 60091U 60097M 60115U 60435M
                                                 60453U 60459M 60477U 60740M 60758U 60764M 60782U 61199M 61217U 61223M
                                                 61241U 61470M 61488U 61494M 61512U 62241M 62259U 62265M 62283U 62373
                                                 62375  62377  62810M 62828U 62834M 62852U 63214M 63232U 63238M 63256U
                                                 63569M 63587U 63593M 63611U 63977M 63995U 64001M 64019U 64647M 64665U
                                                 64671M 64689U 65925M 65943U 65949M 65967U 66461M 66479U 66485M 66503U
                                                 69447M 69457U 72391M 72409U 72415M 72433U 73054M 73072U 73078M 73096U
                                                 73682M 73700U 73706M 73724U 77170M 77188U 77194M 77212U
 RPCB          7 00000007 FFFFFFFF A   #    1216  6977M  6998U  7060M  7078U  8486   9433  10779M 10789U 11399M 11409U
                                                 12411M 12421U 13243M 13348U 13354M 13372U 13928M 13938U 13944M 13962U
                                                 15616M 15626U 15632M 16721M 16731U 17443M 17453U 17513M 17531U 18787M
                                                 18797U 19593M 19603U 21660M 21670U 22349M 22359U 22365M 22383U 23409U
                                                 23650M 23660U 23666M 23684U 24040M 24050U 24056M 24074U 26492M 26502U
                                                 27126M 27136U 27142M 27160U 27824M 27855U 28397M 29432M 29517U 30233M
                                                 30243U 30890M 30900U 31674M 31684U 32561M 32571U 33060M 33078U 33235M
                                                 34865M 34878U 34884M 35331M 35349U 35355M 35373U 35947M 35965U 35971M
                                                 35989U 36606M 36624U 36630M 36648U 37216M 37234U 37240M 37258U 37800M
                                                 37810U 37816M 37834U 38168M 38178U 38184M 38202U 38405  38654M 38664U
                                                 38670M 38688U 39010M 39020U 39026M 39044U 39834M 39852U 39858M 39876U
                                                 41164M 41182U 41188M 41206U 42292M 42310U 42316M 42334U 43799M 43817U
                                                 43823M 43841U 43845  45727M 45745U 45751M 45769U 47141M 47159U 47165M
                                                 47183U 47674M 47692U 47696M 47709U 47940M 47950U 47955  48181M 48199U
                                                 48204M 48222U 49665M 49675U 50254M 50264U 51327M 51337U 52641M 52658U
                                                 53553M 53563U 53569M 53587U 54042M 54052U 54058M 54076U 54662M 54672U
                                                 54722  55038M 55048U 55054M 55072U 55933M 55943U 55958M 55958  60129M
                                                 60147U 60153M 60171U 61516M 61526U 63009M 63020U 63317M 63327U 63355
                                                 63457  66742M 66752U 66758M 66776U 67229M 67269M 67450M 67489M 67672M
                                                 67716M 69633M 69634  69734U 69768M 69814U 72437M 72447U
 RS            1 00000001 FFFFFFFF A   #    1016  8187M  8670M  8671M  8755M  8759M  8766   9012M  9181M  9182M  9199M
                                                  9225U  9514M  9516  10007M 10009M 10010M 10060  11896M 11906U 11912M
                                                 13380M 13381M 13382  14618M 14620  15445M 15446M 15447  15546M 15547M
                                                 15548  15683M 15684  15685M 15686M 15704U 15878M 15887M 15893  15894
                                                 15994M 16136M 16145M 16149  16191  16314M 16315M 16316  16592M 16593M
                                                 16594  16693M 16694M 16695  16991M 17000M 17004  17053  17111M 17112M
                                                 17113  17124M 17124  17695M 17696M 17697  17701M 17702M 17703  17897M
                                                 17899  18229M 18230M 18230  19073M 19074M 19075  19195M 19196M 19197
                                                 19213M 19214M 19215  19631M 19633M 19786M 20020M 20021  20031U 20036M
                                                 20037  20038  20061M 20061  20373  20375  20499M 20500M 20510U 20781M
                                                 20790M 20790  20808  20810  22488M 22489M 22490  22590M 22591M 22592
                                                 22636M 22641  22643  22655  22684M 22685M 22686  22742M 22743M 22744
                                                 22786M 22787M 22788  22970M 22971M 22972  23027M 23028M 23029M 23030
                                                 23042M 23043M 23044  23159M 23160M 23160  23221M 23223  24151M 24152M
                                                 24153  24397M 24398M 24399  24415M 24416M 24417  26104M 26106  27198M
                                                 27199M 27200  27203M 27301M 27302M 27303  27306M 27348M 27349M 27350
                                                 28285M 28286M 28287  28288M 28289  28377M 28378M 28379  28393M 28397
                                                 28504M 28505  28692M 28693M 28702M 28737M 28737  29006M 29044M 29044
                                                 29429M 29432  29845M 29847  30282M 30283M 30284  32333M 32335M 32336
                                                 33471M 33489M 33489  34749M 34764  34911M 34913  35382M 35383  35384
                                                 35600M 35602  35998M 35999  36000  36296M 36298  36657M 36658  36659
                                                 36869M 36871  37267M 37268  37269  37453M 37455  37780M 37781M 37782
1PAGESERV (PAGE00) (09:42) (22MAR04) Ordinary Symbol and Literal Cross Reference                                            Page  504
                                                 37794  39881M 39882M 39884M 39907  39916M 39934  39987M 39990M 40558
                                                 40768M 40770  41211M 41212M 41214M 41215M 41232  41253M 41256M 41715
                                                 41921M 41923  42339M 42340M 42342M 42343M 42360  42381M 42384M 43202
                                                 43412M 43414  44005M 44006M 44008M 44009M 44014M 44018  44020M 44025
                                                 44027  44028M 44031M 45318M 45320  45774M 45775M 45777M 45778M 45795
                                                 45816M 45819M 46558  46768M 46770  47257M 47258M 47260M 47261M 47266M
                                                 47270  47272M 47277  47279  47280M 47283M 47413M 47415  48927M 48928M
                                                 48933  48935M 48936  48937  48984M 48985M 48986  49031M 49032  49033
                                                 49057M 49065M 49152M 49153M 49166U 49901M 49903  50349M 50351  50892M
                                                 50893M 50894  51565M 52296M 52297M 52297  52309M 52310M 52310  52322M
                                                 52323M 52323  52335M 52336M 52336  52889M 53268U 53273M 53274  53275
                                                 53283M 53284  53285  54081M 54577M 54584  54586M 54621M 54622M 54623
                                                 54724M 54740U 54849M 55358M 55359M 55359  55706M 56285M 56881M 56882M
                                                 56882  57406M 57833M 57835  57911M 57912M 57913M 57914  57915M 57927
                                                 58053M 58055  58201M 58203  58277  58326M 58327M 58328  58489M 58490M
                                                 58515  58590M 58592  58660  58703M 58704M 58705  59194M 59195  59198M
                                                 59199  59233M 59348  59359  59442M 59443M 59443  59920M 59921M 59921
                                                 60559M 60560M 60560  60809M 60816  60818M 60908M 60908  60911M 60916
                                                 61087M 61094  61096M 61255M 61275  61277M 61716M 61817M 61952M 62037M
                                                 62310M 62310  62369  62554M 62572  63356M 63357  63653M 63653  63661
                                                 63840M 63840  63848  64136M 64204M 64205  64208M 64209  64210M 64211M
                                                 64212M 64215M 64216  64273M 64274  64481M 65080M 65590M 66568M 66578M
                                                 66579  66780M 66966U 66992M 67044M 67045  67046  67226M 67229  67266M
                                                 67269  67447M 67450  67768M 67771M 67915M 67916  67929M 68015M 68016M
                                                 68017  68108M 68109M 68110  68178M 68179M 68180  68270M 68272M 68273M
                                                 68303  68513M 68572  68660M 68879M 68880  68881  68897  69095M 69096M
                                                 69097  69820M 69922U 71870M 72859M 74061M 76336M 76337M 76338  76858M
                                                 76858  76863M 76893M 77593M 80598M 80599M 80600  81058M 81059
 RVR           0 00000000 FFFFFFFF A   #    1004  5961   5961   7539M  7592M  7667   7877M  7878M  7879M  7880   8139
                                                  8208M  8744   8753   8754   8755   8843M  8896M  8974M  8975   9796M
                                                 10321  10624M 10625M 10626M 11171M 11551M 11976M 11976  12050M 12050
                                                 12202M 12477M 12494M 12515M 12515  12573  12852M 12869M 12897M 12935M
                                                 13151M 13168M 13189M 13189  13201  13567M 13584M 13609M 13609  15053M
                                                 15132M 15171M 15913M 15914M 15915M 15916  15933M 15934M 15935  15936
                                                 16780M 16828M 16829M 16830  16863M 16864M 16865M 16866  16908M 16909M
                                                 16910M 16911  17175M 18052M 18266M 18520M 18673  18739M 18739  18779M
                                                 18787  19637M 19637  19638M 19679M 19712  19962M 19993  20062M 20111M
                                                 20111  20126  20159  20222M 20281M 20320M 20472M 20835M 20835  20884M
                                                 20919  21106M 21106  21155M 21197  21717M 21717  21757M 21765  21810M
                                                 21810  21849M 21994M 22011M 22089M 24343M 24343  24382M 24669M 24669
                                                 24708M 24886M 24886  24925M 25064M 25220M 25220  25235  25275  25466M
                                                 25466  25481  25521  25699M 25699  25748M 25775  26758M 26791M 26819M
                                                 26851M 26851  27203M 27212  27224  27306M 27315  27327  28150M 28151M
                                                 28152M 28153  28164M 28165  28502M 28503M 28505M 28506  28873M 28874M
                                                 28877  28887M 28888  29259M 29260M 29263  29273M 29274  29294M 29295M
                                                 29296  29302M 29305M 29325M 29325  29330  29710M 29749M 30047M 30049M
                                                 30051M 30053M 30055M 30478M 30517M 30951M 30951  31000M 31027  31208M
                                                 31208  31257M 31284  31408M 31408  31423  31456  31711M 31711  31726
                                                 31834M 31886M 31925M 32259  32274M 32275M 32276M 32277  32748  33597M
                                                 33598M 33607M 33607  33703M 33704  33938  34427M 34428M 34429M 34430
                                                 34531M 34532M 34533M 34534  35546  36449M 36816  37596M 37869M 37869
                                                 37908M 38278M 38278  38317M 38781  38841  39137  39197  39352  39357M
                                                 39962M 39971M 39971  39978M 40189M 40189  40362M 40363M 40373  40583M
                                                 40583  40921M 41514M 41514  41740M 41740  42562M 42562  43227M 43227
                                                 43565M 44377M 44433M 44454  44644  44688M 44742M 44789  44852M 44852
                                                 44900M 44901M 44902M 44903  45997M 45997  46583M 46583  46921M 47556M
                                                 47713M 47940  48371  48428  48432  48554M 48554  48593M 48769M 48793M
                                                 48832M 48851  49023  49024  49056M 49063M 50559M 50676M 50676  50715M
                                                 51019M 51503  52789M 52789  52838M 52865  53184M 53380M 53380  53420M
1PAGESERV (PAGE00) (09:42) (22MAR04) Ordinary Symbol and Literal Cross Reference                                            Page  505
                                                 53435  53624M 53624  53639  53679  53959M 53959  53999M 54007  54121M
                                                 54122M 54123M 54124  54165  54334M 54334  54349  54389  54482M 54482
                                                 54531M 54565  54876M 54877M 54878M 55126M 55126  55165M 55337M 55338M
                                                 55339  55860  55910M 56019M 56440  56490M 57578M 57579  58333M 58995M
                                                 59034M 59200  59400  59495M 59805  60255M 60255  60326M 60902  60909M
                                                 60910  60994  61739  61750M 61750  61840  61851M 61851  61924M 62880M
                                                 62880  62929M 62956  63057M 63300M 63317  63396  63457M 63651M 63651
                                                 63661  63838M 63838  63848  64058  64102M 64119  64120  64135  64260M
                                                 64271  64415M 64432  64433M 64978M 64978  65027M 65054  65512M 65512
                                                 65561M 65588  66007M 66018  66266M 66567  66574M 67032  67038M 67103M
                                                 67103  67142M 67323M 67323  67362M 67486M 67489  67536M 67536  67575M
                                                 67669M 67672  67713M 67716  67770M 67775M 67928M 67933M 67975M 67976
                                                 67977M 67978  68177  68180M 68181  68419  68665M 68665  68685  68686
                                                 68749M 68749  68798M 68825  68897M 68898M 68899  69058  69073M 69074M
                                                 69075M 69076  69421M 69438  69447  69550  69579  69710  70062  70103M
                                                 70120  70121  70122  70187  70190  70243M 70254  70304  70317  70367
                                                 70380  70430  70443  70493  70506  70577  70590  70666  70679  70756
                                                 70769  70827  70840  70894  70907  70980  70993  71066  71086  71164
                                                 71177  71249  71262  71334  71347  71419  71432  71489  71502  71562
                                                 71575  71646M 71653M 71670  71731M 71738M 71755  71862  71986  72004
                                                 72068  72164M 72458M 72686M 72739M 72790  72860M 72863M 73150M 73161
                                                 73207M 73224  73272  73431M 73485M 73943M 73960  74060M 74067M 74223M
                                                 74260M 74260  74308M 74325M 74339M 74339  74358M 74419M 74436M 74455M
                                                 74500M 74517M 74536M 74576M 74593M 74612M 74646M 74663M 74682M 74716M
                                                 74733M 74752M 74800M 74850M 74867M 74886M 74934M 74951M 74970M 75000M
                                                 75017M 75036M 75070M 75087M 75106M 75168M 75221M 75283M 75320M 75320
                                                 75368M 75385M 75399M 75399  75418M 75479M 75496M 75515M 75560M 75577M
                                                 75596M 75636M 75653M 75672M 75706M 75723M 75742M 75776M 75793M 75812M
                                                 75860M 75910M 75927M 75946M 75994M 76011M 76030M 76060M 76077M 76096M
                                                 76130M 76147M 76166M 76228M 76321  76324  76421  76435  76497M 76514M
                                                 76528M 76528  76547M 76608M 76625M 76644M 76688M 76705M 76724M 76864M
                                                 76892M 76894M 76970M 77339  77475M 77492  77592M 77599M 77755M 77791M
                                                 77791  77839M 77856M 77870M 77870  77889M 77950M 77967M 77986M 78031M
                                                 78048M 78067M 78107M 78124M 78143M 78177M 78194M 78213M 78247M 78264M
                                                 78283M 78331M 78381M 78398M 78417M 78465M 78482M 78501M 78531M 78548M
                                                 78567M 78601M 78618M 78637M 78699M 78788M 78805M 78819M 78819  78838M
                                                 78899M 78916M 78935M 78979M 78996M 79015M 79063M 79113M 79130M 79149M
                                                 79197M 79214M 79233M 79263M 79280M 79299M 79333M 79350M 79369M 79431M
                                                 79486M 79548M 79583M 79583  79631M 79648M 79662M 79662  79681M 79742M
                                                 79759M 79778M 79823M 79840M 79859M 79899M 79916M 79935M 79969M 79986M
                                                 80005M 80039M 80056M 80075M 80123M 80173M 80190M 80209M 80257M 80274M
                                                 80293M 80323M 80340M 80359M 80393M 80410M 80429M 80491M 80530M 80531
                                                 80583  80586  80693  80707  80769M 80786M 80800M 80800  80819M 80880M
                                                 80897M 80916M 80960M 80977M 80996M
 RWANT         5 00000005 00000001 A   #    6009 57858M 57873  57962  57977M 57986M 57986  58076  58078  58124  58144M
                                                 58151  58176M 58311M 58311  58530M 58537  58565M 58694M 58694
 RX            6 00000006 FFFFFFFF A   #    1076  1228   1228  10037M 10038M 10039  10041M 10043  10113M 10123U 10129M
                                                 10138  10321M 10331U 10351M 10352  10362U 57771M 57799M 57816  57828M
                                                 57833  57850  57851  57852M 57853  57906M 57913  58033M 58036  58048M
                                                 58053  58071  58108  58109  58138M 58143M 58152  58172  58177  58181M
                                                 58184  58196M 58201  58292  58293  58297M 58297  58524M 58529M 58538
                                                 58558  58566  58570M 58573  58585M 58590  58675  58676  58680M 58680
                                                 63797M 63828U 63850M
 RY            7 00000007 FFFFFFFF A   #    1088  1216   1216   9985M  9995U 10000  10098M 10108U 10337M 10348M 10349
                                                 20696M 20706U 21012  21032M 21041M 21041  21050  21436  57770M 57770
                                                 58218M 58220  58607M 58609M 60482M 60492U 63615M 63625U 63632  63662M
                                                 63781M 63791U 63815U 63849M 64120M 64130U 64145M 71871M 71887U 72097M
                                                 73850M 73906  73960M 73975  74004  74023U 76359U 76372M 76372  77375M
                                                 77435  77492M 77507  77508  77537  77556U 80631U 80644M 80644
1PAGESERV (PAGE00) (09:42) (22MAR04) Ordinary Symbol and Literal Cross Reference                                            Page  506
 R0            0 00000000 FFFFFFFF A   #     708  6863   6903U  6975U  7032U  7172U  8440U  9390U  9843U  9897   9937U
                                                 10458  10498U 10579U 10691  10731U 11218U 11306  11351U 11835U 12272U
                                                 12322  12363U 12729U 12982U 13029  13070U 13442U 13773  14307U 14940U
                                                 15239U 15288  15328U 15515U 16376U 16444  16489U 16662U 17253U 17343
                                                 17388U 17485U 17624U 18108  18135U 18345  18385U 19493  19538U 20585U
                                                 20650  20718U 21485U 21549  21589U 22168  22213U 22299U 22559U 23188M
                                                 23189M 23191  23527  23572U 23845U 23947  23992U 25798U 26313U 26376
                                                 26416U 26665U 26717U 26911U 26956  27020U 27056U 27270U 27699  27744U
                                                 28619U 29442U 30067U 30140  30185U 30802  30842U 31139U 31586  31626U
                                                 32048  32094U 32397U 32472  32513U 32601U 32927  32972U 33034U 33548
                                                 33715  34863U 35111U 35147U 35229  35274U 35329U 35799U 35845  35890U
                                                 35945U 36504  36549U 36604U 37068U 37114  37159U 37214U 37671  37711U
                                                 38063  38103U 38470  38566  38606U 38716U 38922  38962U 39072U 39291
                                                 39403  39511  39732  39777U 39832U 40968U 41062  41107U 41162U 42119U
                                                 42190  42235U 42290U 42859U 43612U 43690  43742U 43797U 45553U 45625
                                                 45670U 45725U 46187U 46968U 47039  47084U 47139U 47602U 47646  47672U
                                                 47798  47838U 48035  48080U 48179U 49500U 49546  49586U 49641U 50135
                                                 50175U 50230U 51233  51278U 51432U 51663U 51971U 52352U 52518  52564U
                                                 53696U 54770U 54936  54976U 55374M 55375M 55377  55525U 55587  55632U
                                                 55762U 56166  56211U 56341U 56608  56648U 56842U 56897M 56898M 56900
                                                 56983  57028U 57184U 57316  57356U 57459U 57534U 57641  57715U 58003U
                                                 58248U 58386  58460U 58631U 58791  58836U 59318U 59458M 59459M 59461
                                                 59564  59609U 59727U 59852U 59936M 59937M 59939  60026  60071U 60127U
                                                 60388  60433U 60698  60738U 61170  61197U 61423  61468U 62199  62239U
                                                 62659  62808U 63172  63212U 63527  63567U 63749  63935  63975U 64350
                                                 64598  64635  64645U 64748M 64749M 64761  64778M 64779M 64780M 64781
                                                 64782M 64783M 64784  64795M 64796M 64797M 64800M 64801M 64802  64819M
                                                 65328  65811M 65883  65923U 66412  66459U 66901U 69179U 69215U 69313
                                                 69357U 70637  70667M 70680M 70688M 70688  70695M 70695  70707  70714M
                                                 70723  70757M 70770M 70778M 70778  70785M 70785  70794  70828M 70841M
                                                 70849M 70849  70856M 70856  70865  70895M 70908M 70916  70923M 70935
                                                 70942M 70951  70981M 70994M 71006  71013M 71025  71032M 71037  71067M
                                                 71068M 71069M 71070M 71070  71071M 71072  71165M 71178M 71190  71197M
                                                 71209  71216M 71221  71250M 71263M 71275  71282M 71294  71301M 71306
                                                 71335M 71348M 71360  71367M 71379  71386M 71391  71534M 72220  72349
                                                 72389U 72886U 73025  73052U 73635  73680U 74130U 74169U 74771M 74774
                                                 75125M 75128  75234U 75831M 75834  76185M 76188  76743M 76746  76757U
                                                 77062U 77123  77168U 77662U 77701U 78302M 78305  78656M 78659  79034M
                                                 79037  79388M 79391  79499U 80094M 80097  80448M 80451  81015M 81018
                                                 81029U
 R1            1 00000001 FFFFFFFF A   #     721  9821M 10428M 10654M 11196M 12250M 12960M 13658M 15217M 16354M 17231M
                                                 18077M 18294M 19431M 20563M 21467M 22109M 23186M 23187M 23189  23496M
                                                 23824M 26291M 26889M 27620M 30022M 30723M 31540M 31978M 32376M 32859M
                                                 35088M 35777M 36474M 37046M 37621M 38016M 38440M 38545M 38901M 39258M
                                                 39372M 39478M 39586M 40946M 42098M 43590M 45532M 46946M 47581M 47740M
                                                 47985M 49478M 50103M 51162M 52405M 54904M 55372M 55373M 55375  55504M
                                                 56130M 56556M 56895M 56896M 56898  56952M 57263M 57607M 58354M 58732M
                                                 59456M 59457M 59459  59515M 59934M 59935M 59937  59993M 60356M 60647M
                                                 61140M 61311M 62167M 62600M 63122M 63477M 63703M 63885M 64301M 64540M
                                                 65832M 66312M 66722  66722  69157M 72199M 72248M 72957M 73570M 77040M
                                                 81089M
 R14          14 0000000E FFFFFFFF A   #     890 64213  64213  64217M 64217M 74774  75128  75834  76188  76746  78305
                                                 78659  79037  79391  80097  80451  81018
 R15          15 0000000F FFFFFFFF A   #     903  6863   7041   7042M  7043M  7044M  7045M  7046M  7046   7181   7182M
                                                  7183M  7184M  7185M  7186M  7186   8449   8450M  8451M  8452M  8453M
                                                  8454M  8454   9399   9400M  9401M  9402M  9403M  9404M  9404   9680M
                                                  9681M  9681   9696U  9821M  9852   9853M  9854M  9855M  9856M  9857M
                                                  9857   9897  10428M 10458  10588  10589M 10590M 10591M 10592M 10593M
                                                 10593  10654M 10691  11196M 11227  11228M 11229M 11230M 11231M 11232M
1PAGESERV (PAGE00) (09:42) (22MAR04) Ordinary Symbol and Literal Cross Reference                                            Page  507
                                                 11232  11306  11844  11845M 11846M 11847M 11848M 11849M 11849  12250M
                                                 12281  12282M 12283M 12284M 12285M 12286M 12286  12322  12960M 12991
                                                 12992M 12993M 12994M 12995M 12996M 12996  13029  13658M 13680  13681M
                                                 13682M 13683M 13684M 13685M 13685  13773  14316  14317M 14318M 14319M
                                                 14320M 14321M 14321  14949  14950M 14951M 14952M 14953M 14954M 14954
                                                 15217M 15248  15249M 15250M 15251M 15252M 15253M 15253  15288  15524
                                                 15525M 15526M 15527M 15528M 15529M 15529  16354M 16385  16386M 16387M
                                                 16388M 16389M 16390M 16390  16444  16671  16672M 16673M 16674M 16675M
                                                 16676M 16676  17231M 17262  17263M 17264M 17265M 17266M 17267M 17267
                                                 17343  17494  17495M 17496M 17497M 17498M 17499M 17499  17633  17634M
                                                 17635M 17636M 17637M 17638M 17638  18077M 18108  18294M 18345  19431M
                                                 19493  20563M 20594  20595M 20596M 20597M 20598M 20599M 20599  20650
                                                 21467M 21494  21495M 21496M 21497M 21498M 21499M 21499  21549  22109M
                                                 22168  22308  22309M 22310M 22311M 22312M 22313M 22313  22568  22569M
                                                 22570M 22571M 22572M 22573M 22573  23185M 23188  23191M 23496M 23527
                                                 23824M 23854  23855M 23856M 23857M 23858M 23859M 23859  23947  25807
                                                 25808M 25809M 25810M 25811M 25812M 25812  26291M 26322  26323M 26324M
                                                 26325M 26326M 26327M 26327  26376  26674  26675M 26676M 26677M 26678M
                                                 26679M 26679  26889M 26920  26921M 26922M 26923M 26924M 26925M 26925
                                                 26956  27029  27030M 27031M 27032M 27033M 27034M 27034  27279  27280M
                                                 27281M 27282M 27283M 27284M 27284  27620M 27699  30022M 30076  30077M
                                                 30078M 30079M 30080M 30081M 30081  30140  30723M 30802  31148  31149M
                                                 31150M 31151M 31152M 31153M 31153  31540M 31586  31978M 32048  32376M
                                                 32406  32407M 32408M 32409M 32410M 32411M 32411  32472  32610  32611M
                                                 32612M 32613M 32614M 32615M 32615  32859M 32927  34263M 34264M 34264
                                                 34279U 35088M 35120  35121M 35122M 35123M 35124M 35125M 35125  35156
                                                 35157M 35158M 35159M 35160M 35161M 35161  35229  35777M 35808  35809M
                                                 35810M 35811M 35812M 35813M 35813  35845  36474M 36504  37046M 37077
                                                 37078M 37079M 37080M 37081M 37082M 37082  37114  37621M 37671  38016M
                                                 38063  38440M 38470  38545M 38566  38725  38726M 38727M 38728M 38729M
                                                 38730M 38730  38901M 38922  39081  39082M 39083M 39084M 39085M 39086M
                                                 39086  39258M 39291  39372M 39403  39478M 39511  39586M 39732  40946M
                                                 40977  40978M 40979M 40980M 40981M 40982M 40982  41062  42098M 42128
                                                 42129M 42130M 42131M 42132M 42133M 42133  42190  42868  42869M 42870M
                                                 42871M 42872M 42873M 42873  43590M 43621  43622M 43623M 43624M 43625M
                                                 43626M 43626  43690  45532M 45562  45563M 45564M 45565M 45566M 45567M
                                                 45567  45625  46196  46197M 46198M 46199M 46200M 46201M 46201  46946M
                                                 46977  46978M 46979M 46980M 46981M 46982M 46982  47039  47581M 47611
                                                 47612M 47613M 47614M 47615M 47616M 47616  47646  47740M 47798  47985M
                                                 48035  49478M 49509  49510M 49511M 49512M 49513M 49514M 49514  49546
                                                 50103M 50135  51162M 51233  51441  51442M 51443M 51444M 51445M 51446M
                                                 51446  51672  51673M 51674M 51675M 51676M 51677M 51677  51980  51981M
                                                 51982M 51983M 51984M 51985M 51985  52361  52362M 52363M 52364M 52365M
                                                 52366M 52366  52405M 52518  53705  53706M 53707M 53708M 53709M 53710M
                                                 53710  54779  54780M 54781M 54782M 54783M 54784M 54784  54904M 54936
                                                 55371M 55374  55377M 55504M 55534  55535M 55536M 55537M 55538M 55539M
                                                 55539  55587  55771  55772M 55773M 55774M 55775M 55776M 55776  56130M
                                                 56166  56350  56351M 56352M 56353M 56354M 56355M 56355  56556M 56608
                                                 56851  56852M 56853M 56854M 56855M 56856M 56856  56894M 56897  56900M
                                                 56952M 56983  57193  57194M 57195M 57196M 57197M 57198M 57198  57263M
                                                 57316  57468  57469M 57470M 57471M 57472M 57473M 57473  57543  57544M
                                                 57545M 57546M 57547M 57548M 57548  57607M 57641  57724  57725M 57726M
                                                 57727M 57728M 57729M 57729  58012  58013M 58014M 58015M 58016M 58017M
                                                 58017  58257  58258M 58259M 58260M 58261M 58262M 58262  58354M 58386
                                                 58469  58470M 58471M 58472M 58473M 58474M 58474  58640  58641M 58642M
                                                 58643M 58644M 58645M 58645  58732M 58791  59327  59328M 59329M 59330M
                                                 59331M 59332M 59332  59455M 59458  59461M 59515M 59564  59736  59737M
                                                 59738M 59739M 59740M 59741M 59741  59861  59862M 59863M 59864M 59865M
                                                 59866M 59866  59933M 59936  59939M 59993M 60026  60356M 60388  60647M
1PAGESERV (PAGE00) (09:42) (22MAR04) Ordinary Symbol and Literal Cross Reference                                            Page  508
                                                 60698  61140M 61170  61311M 61423  62167M 62199  62600M 62659  63122M
                                                 63172  63477M 63527  63703M 63749  63885M 63935  64301M 64350  64540M
                                                 64598  65832M 65883  66312M 66412  66910  66911M 66912M 66913M 66914M
                                                 66915M 66915  69157M 69188  69189M 69190M 69191M 69192M 69193M 69193
                                                 69224  69225M 69226M 69227M 69228M 69229M 69229  69313  72199M 72220
                                                 72248M 72349  72895  72896M 72897M 72898M 72899M 72900M 72900  72957M
                                                 73025  73570M 73635  74139  74140M 74141M 74142M 74143M 74144M 74144
                                                 76766  76767M 76768M 76769M 76770M 76771M 76771  77040M 77071  77072M
                                                 77073M 77074M 77075M 77076M 77076  77123  77671  77672M 77673M 77674M
                                                 77675M 77676M 77676  81038  81039M 81040M 81041M 81042M 81043M 81043
                                                 81089M
 R2            2 00000002 FFFFFFFF A   #     734 64636  64759M 64760M 64761M 64772  64781M 64784M 64789M 64789  64790
                                                 64795  64798M 64798  64799M 64800  64818M 64819  64837M 64849M 64850M
                                                 64851  65327M 65328M 65340M 65341M 65342  65812M
 SC                       00000001 A   U   69473 69619
 SC                       00000001 A   U   70016 70404  71627  71867  71868
 SDABORT       2 000050D2 00000001     H   45544 44052B 44132B 44158B 44855B 45042B
 SEG           1 00000000 00000018     T   77098 77098  81134
 SEGADD        4 00000000 FFFFFFC0     A    3777 74767  75121  75827  76181  76739  78298  78652  79030  79384  80090
                                                 80444  81011
 SEGCBD       40 00000000 FFFFFFC0     J    3835 73004  74271U 74358  74455  74536  74612  74682  74752  74800  74886
                                                 74970  75036  75106  75331U 75418  75515  75596  75672  75742  75812
                                                 75860  75946  76030  76096  76166  76460U 76547  76644  76724  77802U
                                                 77889  77986  78067  78143  78213  78283  78331  78417  78501  78567
                                                 78637  78751U 78838  78935  79015  79063  79149  79233  79299  79369
                                                 79594U 79681  79778  79859  79935  80005  80075  80123  80209  80293
                                                 80359  80429  80732U 80819  80916  80996
 SEGCLR        1 00000000 0000001A     T   77100 77100  81136
 SEGCNT        2 0000000A FFFFFFC0     H    3780 74770  75124  75830  76184  76742  78301  78655  79033  79387  80093
                                                 80447  81014
 SEGFLG1       1 00000010 FFFFFFC0     R    3785  3794   3804   3814   3824
 SEGHEX        1 00000000 00000019     T   77099 77099  81135
 SEGINIT       1 00000000 00000017     T   77097 77097  81133
 SEKAPEXT      4 00003190 00000001     I   30049 28464B 28794B 29101B
 SEKAPPAG      4 000031A0 00000001     I   30053 28844B 29155B
 SEKAPPGT      4 000031A8 00000001     I   30055 29206B
 SEKAPSEG      4 00003188 00000001     I   30047 28117B
 SEKAP0        2 000031AC 00000001     H   30058 30048B 30050B 30052B 30054B
 SELOOP        4 00002DA8 00000001     I   28203 28199B
 SETSWAP       4 00001B1A 00000001     I   19493 18878  19504U
 SETSWAP4      2 00001B0E 00000001     H   19488 19487
 SFABORT       2 00000628 00000001     H    9834  8791B
 SGPTLMSK      1 0000000F FFFFFFA9 A   U    5199 13707  30747  69247
 SGTAD         4 00000000 FFFFFFA9     A    5173  7877   7880M  8328   8670   9167   9170M  9235   9337  10240  10970
                                                 11110  15878  16136  16818  16908  16911M 16991  28502  28506M 29186
                                                 29231  33694  34427  34430M 34491  38801  39157  45140M 48986M 51464
                                                 52002  52040  52181  52248M 54106  67265  67917  67978M 68344
 SGTADMSK      6 7FFFFFC0 FFFFFFA9 A   U    5196 13703  17289  30748  35186  41004  52440  54119  54120  69248
 SGTE          4 00000000 FFFFFFA9     J    5213  7872U  8318U  8645U  9225U  9277U 10078U 10919U 11448U 15704U 15872U
                                                 16130U 16795U 16903U 16985U 28498U 29174U 29225U 33688U 34227U 34412U
                                                 34468U 38796U 39152U 41562U 44073U 47332U 48947U 49769U 51361U 51900U
                                                 52034U 52135U 52445  54101U 63625U 63660M 66800U 66872U 67245U 67822U
                                                 68321U 69250  69270  72325
 SGTFCOMM     16 00000003 FFFFFFA9         5193 10092  11461  41592  41618  44129  44155  45161M 47372  49797  51389
                                                 51928  52163  67859M 69255
 SGTFINV      32 00000003 FFFFFFA9         5184 10231  15718  15733M 16809  28516M 29185M 34237M 34422M 34482  51416
                                                 51955  52444  66337  66813  66885  67258  67848  68335
 SGTFLMSK      1 0000003F FFFFFFA9 A   U    5197 13694  17297  35193
 SGTLOG        1 00000002 FFFFFFA9 A   N    5206  7839   8762   8764   9182  10038  10041  11437  15685  15861  16119
1PAGESERV (PAGE00) (09:42) (22MAR04) Ordinary Symbol and Literal Cross Reference                                            Page  509
                                                 16782  16885  16974  28487  28833  29144  29214  33677  34216  34401
                                                 34457  38785  39141  41551  44035  44041  45207  47287  47295  48928
                                                 48934  49151  49817  52023  54090  63631  67651  67767  68003  68287
                                                 68289  68291  69504
 SGTNXT        1 00000004 FFFFFFA9     X    5200 45293  47388  49876  51855  52090  52260  63662  66826  66929  67697
                                                 68218
 SGTPTLEN      1 00000003 FFFFFFA9     R    5176  5184   5193
 SHABORT       2 000054FC 00000001     H   47593 47306B
 SICBS         4 000034E4 00000001     I   31586 29836  30664  31597U
 SICBS4        2 000034D8 00000001     H   31581 31580
 SIFRAME       4 00003330 00000001     I   30802 29563  30620  30813U
 SIFRAME4      2 00003324 00000001     H   30797 30796
 SIGNALAS      1 00000000 00000004     T   17284 17284  23875  66333
 SMFCAT        4 00000010 FFFFFFB1     C    4374 66070M
 SMFFRAME      4 0000002C FFFFFFB0     A    4404 66111M
 SMFNSEG       4 00000014 FFFFFFB1     A    4375 66071M
 SMFNUM        1 000000B7 FFFFFFB1 A   U    4370 66360
 SMFPAGE      88 00000000 FFFFFFB0     J    4428 66007  66028U 66045M 66045  66218  66219  66266  66350  66352  66354
 SMFPFX       24 00000000 FFFFFFB1     J    4382  4395  66037U
 SMFPGDAT      4 00000040 FFFFFFB0     A    4413 66155M 66180M
 SMFPGEN      24 00000024 FFFFFFB0     X    4408 66350  66351
 SMFPGLEN      4 00000024 FFFFFFB0     A    4402  4408   4408  66076M
 SMFPGLOC      4 00000018 FFFFFFB0     A    4396 66075M
 SMFPLEN       4 0000003C FFFFFFB0     A    4412  4414   4414  66078M
 SMFPLOC       4 0000001C FFFFFFB0     A    4397 66077M
 SMFPPAGE     12 0000003C FFFFFFB0     X    4414 66352  66353
 SMFPPFX      24 00000000 FFFFFFB0     X    4395 66037U
 SMFPSWAP     16 00000048 FFFFFFB0     X    4421 66354  66355
 SMFPTIME      4 00000028 FFFFFFB0     A    4403 66109M
 SMFSCNT       4 0000004C FFFFFFB0     A    4419 66189M
 SMFSLEN       4 00000048 FFFFFFB0     A    4418  4421   4421  66080M
 SMFSLOC       4 00000020 FFFFFFB0     A    4398 66079M
 SMFSWDAT      4 00000050 FFFFFFB0     A    4420 66186M 66214M
 SMFSYSTM      8 00000008 FFFFFFB1     C    4373 66061M
 SMFXPAGE      4 00000030 FFFFFFB0     A    4405 66129M
 SMFXPMX       4 00000034 FFFFFFB0     A    4406 66137M
 SMFXPT        4 00000038 FFFFFFB0     A    4407 66127M
 SPFPROT      16 00000005 FFFFFFA6         5380 40396
 SPGT          8 00000400 FFFFFFA5     X    5413 10337  51536  63797  68033  68435
 SPKEY         1 00000005 FFFFFFA6     X    5373  5380  15933  15935M 40362  41641M 45096  49405M 68181M
 SPR          13 0000000D FFFFFFFF A   #    1172  6863   6878   6879   6894M  7096U  7250U  7313U  7509U  7702U  8095U
                                                  8248U  8709U  8813U  8988U  9595U  9734U  9897   9912   9913   9928M
                                                 10172U 10295U 10458  10473  10474  10489M 10691  10706  10707  10722M
                                                 10814U 11031U 11124U 11306  11321  11322  11342M 11510U 11614U 11949U
                                                 12322  12337  12338  12353M 12457U 12534U 12768U 12812U 13029  13044
                                                 13045  13060M 13131U 13406U 13483U 13527U 13773  13788  13789  13809M
                                                 13989U 14177U 14505U 14572U 14699U 14801U 15033U 15112U 15288  15303
                                                 15304  15319M 15423U 15803U 16017U 16276U 16444  16459  16460  16480M
                                                 16570U 17155U 17343  17358  17359  17379M 17549U 18108  18123  18124
                                                 18126M 18246U 18345  18360  18361  18376M 18445U 18500U 18583U 18645U
                                                 18824U 18851U 18900U 19023U 19146U 19262U 19304U 19360U 19493  19508
                                                 19509  19529M 19659U 19942U 20197U 20261U 20441U 20650  20665  20666
                                                 20681M 21549  21564  21565  21580M 21954U 22168  22183  22184  22204M
                                                 22401U 22466U 22714U 22905U 23114U 23447U 23527  23542  23543  23563M
                                                 23632U 23947  23962  23963  23983M 24092U 24455U 24979U 25006U 25108U
                                                 25887U 25982U 26030U 26185U 26376  26391  26392  26407M 26728U 26956
                                                 26971  26972  26992M 27176U 27372U 27522U 27566U 27699  27714  27715
                                                 27735M 27889U 28315U 29536U 29635U 29690U 29809U 29926U 30140  30155
                                                 30156  30176M 30297U 30403U 30458U 30593U 30637U 30684U 30802  30817
1PAGESERV (PAGE00) (09:42) (22MAR04) Ordinary Symbol and Literal Cross Reference                                            Page  510
                                                 30818  30833M 31586  31601  31602  31617M 31809U 31866U 32048  32063
                                                 32064  32084M 32162U 32231U 32310U 32472  32487  32488  32503M 32646U
                                                 32720U 32815U 32927  32942  32943  32963M 33096U 33849U 34020U 34317U
                                                 34648U 34992U 35229  35244  35245  35265M 35413U 35486U 35559U 35681U
                                                 35845  35860  35861  35881M 36029U 36256U 36377U 36504  36519  36520
                                                 36540M 36683U 36756U 36950U 37114  37129  37130  37150M 37298U 37671
                                                 37686  37687  37702M 38063  38078  38079  38094M 38470  38485  38486
                                                 38501M 38511U 38566  38581  38582  38597M 38755U 38922  38937  38938
                                                 38953M 39111U 39291  39306  39307  39322M 39332U 39403  39418  39419
                                                 39434M 39444U 39511  39526  39527  39542M 39552U 39732  39747  39748
                                                 39768M 40009U 40092U 40612U 40651U 40735U 40849U 41062  41077  41078
                                                 41098M 41272U 41452U 41769U 41808U 41892U 42002U 42190  42205  42206
                                                 42226M 42403U 42486U 42677U 42929U 43020U 43147U 43256U 43295U 43379U
                                                 43493U 43690  43705  43706  43726M 43868U 44362U 44473U 44617U 44658U
                                                 44802U 44994U 45112U 45240U 45399U 45625  45640  45641  45661M 45838U
                                                 45921U 46257U 46348U 46507U 46612U 46651U 46735U 46849U 47039  47054
                                                 47055  47075M 47201U 47646  47661  47662  47664M 47798  47813  47814
                                                 47829M 47913U 48035  48050  48051  48071M 48318U 48398U 48506U 48727U
                                                 48997U 49275U 49546  49561  49562  49577M 49695U 49830U 49999U 50135
                                                 50150  50151  50166M 50284U 50539U 50628U 50849U 50910U 50951U 50999U
                                                 51233  51248  51249  51269M 51477U 51714U 51786U 52212U 52518  52533
                                                 52534  52554M 52624U 53164U 53223U 54139U 54235U 54936  54951  54952
                                                 54967M 55201U 55587  55602  55603  55623M 55692U 55802U 55895U 55999U
                                                 56080U 56166  56181  56182  56202M 56271U 56382U 56475U 56608  56623
                                                 56624  56639M 56706U 56733U 56768U 56919U 56983  56998  56999  57019M
                                                 57088U 57114U 57229U 57316  57331  57332  57347M 57641  57656  57657
                                                 57672M 58386  58401  58402  58417M 58791  58806  58807  58827M 58896U
                                                 59014U 59104U 59131U 59172U 59374U 59480U 59564  59579  59580  59600M
                                                 59669U 59779U 59958U 60026  60041  60042  60062M 60202U 60388  60403
                                                 60404  60424M 60508U 60698  60713  60714  60729M 60872U 60975U 61026U
                                                 61170  61185  61186  61188M 61423  61438  61439  61459M 61637U 61904U
                                                 61975U 62199  62214  62215  62230M 62394U 62425U 62521U 62659  62674
                                                 62675  62690M 62967U 63037U 63172  63187  63188  63203M 63280U 63371U
                                                 63527  63542  63543  63558M 63749  63764  63765  63780M 63935  63950
                                                 63951  63966M 64033U 64086U 64176U 64240U 64350  64365  64366  64381M
                                                 64399U 64598  64613  64614  64634M 64912U 65883  65898  65899  65914M
                                                 65987U 66246U 66412  66427  66428  66443M 66543U 67734U 67887U 68150U
                                                 68393U 69313  69328  69329  69349M 69401U 69525U 69684U 70037U 70083U
                                                 71837U 71956U 72049U 72144U 72220  72235  72236  72238M 72349  72364
                                                 72365  72380M 72505U 72656U 72804U 73025  73040  73041  73043M 73130U
                                                 73253U 73289U 73366U 73411U 73531U 73635  73650  73651  73671M 73923U
                                                 74183U 74287U 74398U 75148U 75248U 75347U 75458U 76208U 76297U 76476U
                                                 76587U 76917U 77123  77138  77139  77159M 77314U 77455U 77715U 77818U
                                                 77929U 78679U 78767U 78878U 79411U 79513U 79610U 79721U 80471U 80559U
                                                 80748U 80859U
 SPTE          8 00000000 FFFFFFA6     J    5398  5413   7441U 15929U 33791U 40177U 41545U 42598U 43182M 43182  44871U
                                                 45082U 46033U 49399U 51561U 51821M 51821  63828U 63848M 68083U 68508U
                                                 72585U
 SPTLOG        1 00000003 FFFFFFA6 A   N    5391 10347  11096  15891  33779  68445
 SPTNXT        1 00000008 FFFFFFA6     X    5385 40579  41736  43223  46579  51827  63850  68188
 SPXSLOT       4 00000000 FFFFFFA6     A    5371  7715   8139M 15994  16001M 16001  33795  33958M 43160  44876M 45095
                                                 46520  46534M 46534  49404M 51799  68177M 68513
 SSINIT        1 00000007 FFFFFFA8     X    5253  8187  45292M 47386M 67869M 72859
 SSKEY         1 00000004 FFFFFFA8     X    5227 45096M 49033M 67916M
 SSTE          8 00000000 FFFFFFA8     J    5267  7898U  8178U  8599U 10905U 11779U 15751U 16932U 34197U 44086U 47345U
                                                 48961U 49782U 51374U 51913U 52148U 52255M 52255  52445  63642U 63661M
                                                 67835U 68566U 72325  72599U
 SSTFCOMM     64 00000006 FFFFFFA8         5240 45167M 67867  67867
 SSTFDEF     128 00000006 FFFFFFA8         5235  8616  10948  11792  44101  44176  45177M 47360  48975  49030M 49809
1PAGESERV (PAGE00) (09:42) (22MAR04) Ordinary Symbol and Literal Cross Reference                                            Page  511
                                                 51401  51940  52175  67867  67867  67868M
 SSTFIO       32 00000006 FFFFFFA8         5245  7908M  8663   9176M 10981  15762M 16943M 34207M
 SSTFLG1       1 00000006 FFFFFFA8     R    5231  5235   5240   5245   5250
 SSTLOG        1 00000003 FFFFFFA8 A   N    5260  7837   8764  10041  15687  16887  34185  44037  47289  48931  48934
                                                 49149  68289  68555
 SSTNXT        1 00000008 FFFFFFA8     X    5254 45294  47389  49877  51856  52091  52261  63663  68219
 SSXSLOT       4 00000000 FFFFFFA8     A    5226  9001  45095M 49023M 52078  68572M
 SWADLOOP      2 00001D1A 00000001     H   20430 20487B
 SWAPIDONE
               4 00002C98 00000001     I   27699 22932  26057  27549  27710U 30042U
 SWAPILOG      4 000031E8 00000001     I   30140 23881  24482  30151U
 SWAPIN        4 000029CE 00000001     I   26376 25914  26387U
 SWAPIN4       2 000029C2 00000001     H   26371 26370
 SWAPOUT       4 00001F70 00000001     I   21549 18671  21560U
 SWAPOUT4      2 00001F64 00000001     H   21544 21543
 SWPGET        4 00006782 00000001     I   56166 23884  56177U
 SWPGET4       2 00006776 00000001     H   56161 56160
 SWPOPEN       4 00009DA6 00000001     I   77123 73349  77134U
 SWPOPEN4      2 00009D9A 00000001     H   77118 77117
 SWPREL        4 00006958 00000001     I   56983 23886  35174  56994U
 SWPREL4       2 0000694C 00000001     H   56978 56977
 TRCD4         4 0000A608 00000001     A   81119 81118
 VALDASN4      2 00003670 00000001     H   32467 32466
 VALIDASN      4 00003594 00000001     I   32048 28372  32059U 52430
 VALIDKAP      2 00003640 00000001     H   32388 32210B 32345B
 VIRTABL       4 00000664 00000001     I    9897  9908U 13692  47766  73583
 VIRTABL4      2 00000658 00000001     H    9892  9891
 VMDEFSET      1 00000000 00000012     T   69266 69266
 VMFREE        1 00000000 0000000F     T   52439 52439  66356  72323  73590  77102  81138
 VMGET         1 00000000 0000000B     T   47762 47762  52422  61341  66334  69243  72286  73587  77093  81129
 VPABORT       2 000047B0 00000001     H   40959 40074B
 VPEPROT       2 00004588 00000001     H   39977 39956B
 VPERR         2 00004566 00000001     H   39953 39898B 39910B
 VPERTAB       4 0000456A 00000001     I   39955 39955B
 VPETACC       2 00004582 00000001     H   39969 39958B
 VPEUPROT      2 00004588 00000001     I   39978 39957B
 VPNXT         2 000046F4 00000001     H   40542 40422B 40467B 40504B
 VPPROT        2 000046E2 00000001     H   40507 40228B
 VPROTRAN      4 0000450C 00000001     I   39732 38529  39350  39462  39570  39743U
 VPTAB         4 00004608 00000001     I   40227 40227B
 VPTACC        2 000046AE 00000001     H   40425 40230B
 VPUPROT       2 000046CC 00000001     H   40470 40229B
 WAIT                     00000001 A   U   14860 14864  14875  14885  14895  14983  15014  15053
 WAKELOOK      4 000075AC 00000001     I   62199 23878  62210U 66347
 WAPIDON4      2 00002C8C 00000001     H   27694 27693
 WAPILOG4      2 000031DC 00000001     H   30135 30134
 WAR          12 0000000C FFFFFFFF A   #    1160  6878   6879M  6880   6890U  6894   9821   9822   9912   9913M  9914
                                                  9924U  9928  10428  10429  10473  10474M 10475  10485U 10489  10654
                                                 10655  10706  10707M 10708  10718U 10722  11196  11197  11321  11322M
                                                 11323  11333U 11342  12250  12251  12337  12338M 12339  12349U 12353
                                                 12960  12961  13044  13045M 13046  13056U 13060  13658  13659  13788
                                                 13789M 13790  13800U 13809  15217  15218  15303  15304M 15305  15315U
                                                 15319  16354  16355  16459  16460M 16461  16471U 16480  17231  17232
                                                 17358  17359M 17360  17370U 17379  18077  18078  18123  18124M 18125
                                                 18126  18294  18295  18360  18361M 18362  18372U 18376  19431  19432
                                                 19508  19509M 19510  19520U 19529  20563  20564  20665  20666M 20667
                                                 20677U 20681  21467  21468  21564  21565M 21566  21576U 21580  22109
                                                 22110  22183  22184M 22185  22195U 22204  23496  23497  23542  23543M
                                                 23544  23554U 23563  23824  23825  23962  23963M 23964  23974U 23983
1PAGESERV (PAGE00) (09:42) (22MAR04) Ordinary Symbol and Literal Cross Reference                                            Page  512
                                                 26291  26292  26391  26392M 26393  26403U 26407  26889  26890  26971
                                                 26972M 26973  26983U 26992  27620  27621  27714  27715M 27716  27726U
                                                 27735  30022  30023  30155  30156M 30157  30167U 30176  30723  30724
                                                 30817  30818M 30819  30829U 30833  31540  31541  31601  31602M 31603
                                                 31613U 31617  31978  31979  32063  32064M 32065  32075U 32084  32376
                                                 32377  32487  32488M 32489  32499U 32503  32859  32860  32942  32943M
                                                 32944  32954U 32963  35088  35089  35244  35245M 35246  35256U 35265
                                                 35777  35778  35860  35861M 35862  35872U 35881  36474  36475  36519
                                                 36520M 36521  36531U 36540  37046  37047  37129  37130M 37131  37141U
                                                 37150  37621  37622  37686  37687M 37688  37698U 37702  38016  38017
                                                 38078  38079M 38080  38090U 38094  38440  38441  38485  38486M 38487
                                                 38497U 38501  38545  38546  38581  38582M 38583  38593U 38597  38901
                                                 38902  38937  38938M 38939  38949U 38953  39258  39259  39306  39307M
                                                 39308  39318U 39322  39372  39373  39418  39419M 39420  39430U 39434
                                                 39478  39479  39526  39527M 39528  39538U 39542  39586  39587  39747
                                                 39748M 39749  39759U 39768  40946  40947  41077  41078M 41079  41089U
                                                 41098  42098  42099  42205  42206M 42207  42217U 42226  43590  43591
                                                 43705  43706M 43707  43717U 43726  45532  45533  45640  45641M 45642
                                                 45652U 45661  46946  46947  47054  47055M 47056  47066U 47075  47581
                                                 47582  47661  47662M 47663  47664  47740  47741  47813  47814M 47815
                                                 47825U 47829  47985  47986  48050  48051M 48052  48062U 48071  49478
                                                 49479  49561  49562M 49563  49573U 49577  50103  50104  50150  50151M
                                                 50152  50162U 50166  51162  51163  51248  51249M 51250  51260U 51269
                                                 52405  52406  52533  52534M 52535  52545U 52554  54904  54905  54951
                                                 54952M 54953  54963U 54967  55504  55505  55602  55603M 55604  55614U
                                                 55623  56130  56131  56181  56182M 56183  56193U 56202  56556  56557
                                                 56623  56624M 56625  56635U 56639  56952  56953  56998  56999M 57000
                                                 57010U 57019  57263  57264  57331  57332M 57333  57343U 57347  57607
                                                 57608  57656  57657M 57658  57668U 57672  58354  58355  58401  58402M
                                                 58403  58413U 58417  58732  58733  58806  58807M 58808  58818U 58827
                                                 59233  59236M 59236  59348M 59359M 59515  59516  59579  59580M 59581
                                                 59591U 59600  59993  59994  60041  60042M 60043  60053U 60062  60356
                                                 60357  60403  60404M 60405  60415U 60424  60647  60648  60713  60714M
                                                 60715  60725U 60729  61140  61141  61185  61186M 61187  61188  61311
                                                 61312  61438  61439M 61440  61450U 61459  62167  62168  62214  62215M
                                                 62216  62226U 62230  62600  62601  62674  62675M 62676  62686U 62690
                                                 63122  63123  63187  63188M 63189  63199U 63203  63477  63478  63542
                                                 63543M 63544  63554U 63558  63703  63704  63764  63765M 63766  63776U
                                                 63780  63885  63886  63950  63951M 63952  63962U 63966  64301  64302
                                                 64365  64366M 64367  64377U 64381  64540  64541  64613  64614M 64615
                                                 64625U 64634  65832  65833  65898  65899M 65900  65910U 65914  66312
                                                 66313  66427  66428M 66429  66439U 66443  69157  69158  69328  69329M
                                                 69330  69340U 69349  72199  72200  72235  72236M 72237  72238  72248
                                                 72249  72364  72365M 72366  72376U 72380  72957  72958  73040  73041M
                                                 73042  73043  73570  73571  73650  73651M 73652  73662U 73671  77040
                                                 77041  77138  77139M 77140  77150U 77159  81089  81090
 WKLCOUNT      1 00000005 00000001 A   U   62635 66332
 WKLLEN        1 00000006 00000001 A   U   62622 62635  66357
 WSPTI         2 00003BCC 00000001     H   35138 34574B
 WSSTI         2 00003B9C 00000001     H   35102 34485B
 XPGET         4 00006652 00000001     I   55587 13697  35188  47763  52426  55598U 69258
 XPGET4        2 00006646 00000001     H   55582 55581
 XPGLOOP       4 0000667E 00000001     I   55706 56048B
 XPREL         4 00006876 00000001     I   56608 17293  47759  52443  56619U
 XPREL4        2 0000686A 00000001     H   56603 56602
 =A((1024*L'SGTE)-1)
               4 000087DC 00000001     A   69250 67650
 =A((256*L'PGTE)-1)
               4 000087E0 00000001     A   69251 67653
1PAGESERV (PAGE00) (09:42) (22MAR04) Ordinary Symbol and Literal Cross Reference                                            Page  513
 =A((256/16)-1+L'SGTFCOMM)
               4 000087F0 00000001     A   69255 67977
 =A((256/16)-1)
               4 000055B0 00000001     A   47768 45139
 =A((256/16)-1)
               4 00005F38 00000001     A   52425 48985
 =A($VPPROT)
               4 000047F8 00000001     A   41001 38521
 =A($VPTACC)
               4 00004814 00000001     A   41008 39454
 =A($VPTPROT)
               4 00004818 00000001     A   41009 39562
 =A($VPUPROT)
               4 00004810 00000001     A   41007 39342
 =A(-PAGPAGEL)
               4 0000922C 00000001     A   72291 69508
 =A(-16)       4 00009224 00000001     A   72289 69501
 =A(-8)        4 00009294 00000001     A   72317 71626
 =A(#ASIAFTM)
               4 00008010 00000001     A   66342 64214
 =A(#ASIAUTH)
               4 0000800C 00000001     A   66341 64212
 =A(#PCOPEN)
               4 00009D30 00000001     A   77095 74093
 =A(#PCREAD)
               4 00000E60 00000001     A   13712 12742
 =A(#PCREAD)
               4 00001640 00000001     A   17280 14237
 =A(#PCWRITE)
               4 00000E70 00000001     A   13716 13459
 =A(#SWCOPEN)
               4 0000A65C 00000001     A   81131 77625
 =A(#SWCREAD)
               4 000032DC 00000001     A   30739 26709
 =A(#SWCWRIT)
               4 00002488 00000001     A   23885 20019
 =A(AFTASTM)
               4 00003C0C 00000001     A   35177 32216  32705
 =A(AFTASTM)
               4 00007428 00000001     A   61339 59756
 =A(AFTASTM)
               4 0000880C 00000001     A   69262 69025
 =A(AFTASTM)
               4 0000923C 00000001     A   72295 69800
 =A(ASBLPARM)
               4 00003C1C 00000001     A   35181 32335
 =A(ASBLPARM)
               4 00005F64 00000001     A   52436 50893
 =A(ASBLPARM)
               4 00008818 00000001     A   69265 69096
 =A(ASNAFT)
               4 00008004 00000001     A   66339 64102
 =A(ASNAFTN*ASNASTN)
               4 00007420 00000001     A   61337 59302
 =A(ASNFREE)
               4 00005F68 00000001     A   52437 50934
 =A(ASNGET)
               4 00005F24 00000001     A   52420 48369
 =A(ASNINIT)
1PAGESERV (PAGE00) (09:42) (22MAR04) Ordinary Symbol and Literal Cross Reference                                            Page  514
               4 00009234 00000001     A   72293 69667
 =A(ASTSTL)
               4 00003C18 00000001     A   35180 32275
 =A(ASTSTL)
               4 00008814 00000001     A   69264 69074
 =A(BLKDSID)
               4 00000E64 00000001     A   13713 12787  13502
 =A(BLKDSID)
               4 000073F0 00000001     A   61325 56752
 =A(CELLALL)
               4 00005F54 00000001     A   52432 49443
 =A(CELLDALL)
               4 00005F60 00000001     A   52435 50884
 =A(CELLFREE)
               4 00001654 00000001     A   17285 15182
 =A(CELLFREE)
               4 00002490 00000001     A   23887 20331
 =A(CELLFREE)
               4 00003318 00000001     A   30754 29760  30528
 =A(CELLFREE)
               4 00003C04 00000001     A   35175 31936
 =A(CELLGET)
               4 00000E58 00000001     A   13710 12505  13179
 =A(CELLGET)
               4 00002480 00000001     A   23883 19700
 =A(FRAMEGET)
               4 00000E14 00000001     A   13693  7611   8915
 =A(FRAMEGET)
               4 000032D0 00000001     A   30736 25075
 =A(FRAMEGET)
               4 000055A0 00000001     A   47764 44761
 =A(FRAMEGET)
               4 0000950C 00000001     A   73584 72758
 =A(FRAMEREL)
               4 00000E5C 00000001     A   13711 12559
 =A(FRAMEREL)
               4 00001644 00000001     A   17281 14530
 =A(FRAMEREL)
               4 00003C54 00000001     A   35195 34673
 =A(FRAMEREL)
               4 00005584 00000001     A   47757 43045  46373
 =A(FRAMEREL)
               4 00005F7C 00000001     A   52442 51739  52237
 =A(INITRESLV)
               4 0000921C 00000001     A   72287 69494
 =A(L'SGTFINV)
               4 00005F84 00000001     A   52444 52248
 =A(L'SGTFINV)
               4 00007FFC 00000001     A   66337 63646
 =A(L'SMFPGEN)
               4 00008034 00000001     A   66351 66076
 =A(L'SMFPPAGE)
               4 0000803C 00000001     A   66353 66078
 =A(L'SMFPSWAP)
               4 00008044 00000001     A   66355 66080
 =A(MAKEROOM)
               4 00000E44 00000001     A   13705  9786
 =A(MAKEROOM)
               4 0000245C 00000001     A   23874 18050  23794
1PAGESERV (PAGE00) (09:42) (22MAR04) Ordinary Symbol and Literal Cross Reference                                            Page  515
 =A(MAKEROOM)
               4 000032D4 00000001     A   30737 26265
 =A(MAKEROOM)
               4 000055B4 00000001     A   47769 45494
 =A(MAKEROOM)
               4 00005F30 00000001     A   52423 48873
 =A(MAKEROOM)
               4 00008020 00000001     A   66346 65797
 =A(NVALDASN)
               4 00002474 00000001     A   23880 19042
 =A(PAGAFXM)
               4 00003C08 00000001     A   35176 32144  32630
 =A(PAGAFXM)
               4 00007408 00000001     A   61331 58919  59068  59684
 =A(PAGAFXM)
               4 00008808 00000001     A   69261 68981
 =A(PAGASTI)
               4 0000740C 00000001     A   61332 59155
 =A(PAGASXM)
               4 00003C14 00000001     A   35179 32257  32746
 =A(PAGASXM)
               4 00007414 00000001     A   61334 59239  59807
 =A(PAGASXM)
               4 00008810 00000001     A   69263 69056
 =A(PAGKCHG)
               4 00000E2C 00000001     A   13699  8291
 =A(PAGKEYM)
               4 00000E6C 00000001     A   13715 13433
 =A(PAGKREF)
               4 00001670 00000001     A   17292 15934
 =A(PAGMXHST)
               4 00003C58 00000001     A   35196 34836
 =A(PAGMXHST)
               4 00009258 00000001     A   72302 70549  70633
 =A(PAGOFFM+PAGPGNM)
               4 00009220 00000001     A   72288 69498
 =A(PAGOFFM)
               4 00000E38 00000001     A   13702  8760  10549
 =A(PAGOFFM)
               4 000087F4 00000001     A   69256 68002
 =A(PAGOUT)
               4 00003C3C 00000001     A   35189 34063
 =A(PAGPAGEL)
               4 000047EC 00000001     A   40998 35586  36282  36855  37439  40564
 =A(PAGPAGEL)
               4 00005570 00000001     A   47752 41721  43208  46564
 =A(PAGPAGEL)
               4 000087F8 00000001     A   69257 68016  68586
 =A(PAGPAGEL-1)
               4 00009228 00000001     A   72290 69507
 =A(PAGPAGEL/L'ASTE)
               4 00007410 00000001     A   61333 59194
 =A(PAGPAGEL/L'ASTE)
               4 00008008 00000001     A   66340 64204
 =A(PAGPAGM)
               4 00000E1C 00000001     A   13695  7924   8671   8759   9012  10030  10550  10625  11013  13225
 =A(PAGPAGM)
               4 00001680 00000001     A   17296 16891
 =A(PAGPAGM)
1PAGESERV (PAGE00) (09:42) (22MAR04) Ordinary Symbol and Literal Cross Reference                                            Page  516
               4 00003308 00000001     A   30750 28874  29187
 =A(PAGPAGM)
               4 00003C48 00000001     A   35192 34396
 =A(PAGPAGM)
               4 000047E0 00000001     A   40995 35382  35998  36657  37267
 =A(PAGPAGM)
               4 00005580 00000001     A   47756 43004  44455  46332
 =A(PAGPAGM)
               4 00005F28 00000001     A   52421 48378  48904  51695  52049
 =A(PAGPAGM)
               4 000087EC 00000001     A   69254 67975  68279
 =A(PAGPAGM)
               4 00009514 00000001     A   73586 72852
 =A(PAGPGINI)
               4 000055AC 00000001     A   47767 45136
 =A(PAGPGINI)
               4 000087E8 00000001     A   69253 67911
 =A(PAGPGNM)
               4 00000E50 00000001     A   13708 11093
 =A(PAGPGNM)
               4 00001668 00000001     A   17290 15889  16147  16828  17002
 =A(PAGPGNM)
               4 00003304 00000001     A   30749 28856  29242
 =A(PAGPGNM)
               4 00003C34 00000001     A   35187 33746  34501
 =A(PAGPGNM)
               4 00004808 00000001     A   41005 38842  39198  40566
 =A(PAGPGNM)
               4 00005574 00000001     A   47753 41723  43210  46566
 =A(PAGPGNM)
               4 00005F44 00000001     A   52428 49147
 =A(PAGPGNM)
               4 00006634 00000001     A   55553 54122
 =A(PAGPRC)
               4 00000E28 00000001     A   13698  8288
 =A(PAGPRC)
               4 00009510 00000001     A   73585 72849
 =A(PAGPWC)
               4 00003314 00000001     A   30753 29671  30439
 =A(PAGRV)
               4 00000E34 00000001     A   13701  8733  10319
 =A(PAGRV)
               4 00003C10 00000001     A   35178 32255  32744
 =A(PAGRV)
               4 000047FC 00000001     A   41002 38779  38839  39135  39195
 =A(PAGRV)
               4 00005F78 00000001     A   52441 51501
 =A(PAGRV)
               4 00006638 00000001     A   55554 54163
 =A(PAGRV)
               4 00007424 00000001     A   61338 59398  59803
 =A(PAGRV)
               4 00008804 00000001     A   69260 68417  69054
 =A(PAGSGINI)
               4 000087E4 00000001     A   69252 67753
 =A(PAGSGNM)
               4 00001688 00000001     A   17298 16973
 =A(PAGSGNM)
               4 0000330C 00000001     A   30751 29213
1PAGESERV (PAGE00) (09:42) (22MAR04) Ordinary Symbol and Literal Cross Reference                                            Page  517
 =A(PAGSGNM)
               4 00003C2C 00000001     A   35185 33676
 =A(PAGSGNM)
               4 00004800 00000001     A   41003 38784  39140
 =A(PAGSGNM)
               4 00005594 00000001     A   47761 44009  44010  47261  47262
 =A(PAGSGNM)
               4 00005F34 00000001     A   52424 48930
 =A(PAGSTLM)
               4 000087C8 00000001     A   69245 66726
 =A(PAGSTOM)
               4 000032F0 00000001     A   30744 28124
 =A(PAGSTOM)
               4 000087C4 00000001     A   69244 66725
 =A(PAGTERM)
               4 00000E40 00000001     A   13704  9753
 =A(PAGTERM)
               4 00003C44 00000001     A   35191 34341
 =A(PAGWAIT)
               4 0000557C 00000001     A   47755 42954  46282
 =A(PAGWAIT)
               4 00006630 00000001     A   55552 53206
 =A(PAGWAIT)
               4 000073EC 00000001     A   61324 56046  59061
 =A(PAGWSMAN)
               4 00000E0C 00000001     A   13691  7274
 =A(PCBINIT)
               4 00005F20 00000001     A   52419 47937
 =A(PCBINIT)
               4 00009238 00000001     A   72294 69708
 =A(PCBSTM)
               4 00000E48 00000001     A   13706 10011
 =A(PCBSTM)
               4 00008800 00000001     A   69259 68274  68553
 =A(PFINIT)
               4 000092A8 00000001     A   72322 72123
 =A(PFRESLIM)
               4 00002458 00000001     A   23873 17832  17844  23010  23022
 =A(PGTADMSK)
               4 00000E30 00000001     A   13700  8388
 =A(PGTADMSK)
               4 00003310 00000001     A   30752 29260
 =A(PGTADMSK)
               4 00004824 00000001     A   41012 40273
 =A(PGTADMSK)
               4 000087D8 00000001     A   69249 67491  68179  68526
 =A(PGTAIMSK)
               4 000032F4 00000001     A   30745 28151  28876  29262
 =A(PGTAIMSK)
               4 000055A4 00000001     A   47765 44901
 =A(PGTAIMSK-L'PGTFIO)
               4 0000166C 00000001     A   17291 15914
 =A(PGTFLMSK)
               4 00000E20 00000001     A   13696  7926   9131
 =A(PGTFLMSK)
               4 0000167C 00000001     A   17295 16864
 =A(PGTFLMSK)
               4 00003C50 00000001     A   35194 34532
 =A(QFIX)      4 00000E54 00000001     A   13709 11148  13430
