1                        J E S 2  J O B  L O G  --  S Y S T E M  S Y S B  --  N O D E  R L G
0
 09.44.01 JOB05960 ---- MONDAY,    22 MAR 2004 ----
 09.44.01 JOB05960  ICH70001I GG$PJG   LAST ACCESS AT 09:43:45 ON MONDAY, MARCH 22, 2004
 09.44.01 JOB05960  $HASP373 PJG#SIG  STARTED - INIT 3    - CLASS E - SYS SYSB
 09.44.01 JOB05960  ***  HCMD      STEP $$QUIET
 09.44.01 JOB05960  PURGE * Q=OUTPUT MULTIPLE
 09.44.01 JOB05960  JOB PJG#SIG NOT IN OUTPUT QUEUE
 09.44.02 JOB05960  PJG#SIG .$$QUIET .         RC=0008 TapeIO=0000 DiskIO=0000 CPU=  .01s Elapsed=41.42s
 09.44.02 JOB05960  PJG#SIG .$CND    .         RC=Zero TapeIO=0000 DiskIO=0002 CPU=  .01s Elapsed=42.72s
 09.44.03 JOB05960  PJG#SIG .$UNP    .         RC=Zero TapeIO=0000 DiskIO=0006 CPU=  .05s Elapsed=43.07s
 09.44.08 JOB05960  PJG#SIG .ASM     .         RC=Zero TapeIO=0000 DiskIO=0217 CPU=  .81s Elapsed=43.56s
 09.44.10 JOB05960  PJG#SIG .$EDIT   .         RC=Zero TapeIO=0000 DiskIO=0039 CPU=  .15s Elapsed=49.52s
 09.44.10 JOB05960  PJG#SIG  Ended.  Name=Module: SIGAWAIT               Total CPU= 1.03s Elapsed=41.42s
 09.44.10 JOB05960
 09.44.10 JOB05960  Execution charges   Priority=Standard   Block=Day
 09.44.10 JOB05960
 09.44.10 JOB05960  CPU Usage          18.75          $11.62   Standard Processing Unit Equivalent
 09.44.10 JOB05960                                   =======
 09.44.10 JOB05960                                    $11.62   Total Job execution charge
 09.44.10 JOB05960
 09.44.10 JOB05960  See back separator page for print charges
 09.44.10 JOB05960
 09.44.10 JOB05960  $HASP395 PJG#SIG  ENDED  ASM=0
1        1 //PJG#SIG  JOB PJG$GG,'Module: SIGAWAIT',TIME=1,MSGCLASS=C              JOB05960
           /*JOBPARM HOLD=OUTPUT,LINES=50,CHARS=TN15,NOTIFY=YES
         2 //       EXEC PURGEOLD
         3 XXPURGEOLD PROC
           XX*
           XX* This proc is maintained by Jim Stosick
           XX*
         4 XX$$QUIET  EXEC PGM=HCMDX,PARM='PURGE * Q=OUTPUT MULTIPLE',
           XX         ACCT=(PURGEOLD,SYS3)
         5 //$CND   EXEC PGM=BILBO,REGION=512K,PARM='RECS=100'
         6 //STEPLIB  DD DSN=WYL.GG.ORV.LINKLIB,DISP=SHR
         7 //SYSPRINT DD SYSOUT=$
         8 //SYSUT1   DD DSN=WYL.GG.PJG.OBJ,DISP=OLD
         9 //SYSUT2   DD DSN=WYL.GG.PJG.OBJ,DISP=OLD
        10 //SYSIN    DD DUMMY
        11 //$UNP   EXEC PGM=WUNPRESS,PARM='NUM'
        12 //SYSPRINT DD SYSOUT=$
        13 //SYSUT1   DD DSN=WYL.GG.ORV.SOURCE(SIGAWAIT),DISP=SHR
        14 //SYSUT2   DD DSN=&&INPUT,DISP=(,PASS),UNIT=SYSDA,
           //            SPACE=(TRK,(25,25),RLSE),DCB=CARD
        15 //ASM    EXEC PGM=ASMA90,REGION=8M,COND=(0,NE,$UNP),
           //            PARM=('SYSPARM(SIGAWAIT),TERM,LANG(EN),OBJ',
           //          'LC(32500),XREF(SHORT),NODECK,NORLD,NODX,NOUS')
           //*STEPLIB  DD DSN=SYS1.SASMMOD1,DISP=SHR
        16 //SYSLIB   DD DSN=SYS3.DUMMYMAC,DISP=SHR,DCB=BLKSIZE=27920
        17 //         DD DSN=WYL.GG.ORV.MACLIB,DISP=SHR
        18 //         DD DSN=WYL.GG.SYS.MACLIB,DISP=SHR
        19 //SYSUT1   DD DSN=&&SYSUT1,UNIT=VIO,DISP=(,DELETE),
           //            SPACE=(4088,(500,250),,CONTIG,ROUND)
        20 //SYSTERM  DD SYSOUT=$
        21 //SYSPRINT DD DSN=&&PRINT,UNIT=SYSDA,DISP=(,PASS),
           //            SPACE=(6650,(250,250),RLSE),
           //            DCB=(BLKSIZE=6650,LRECL=133,RECFM=FB)
        22 //SYSLIN   DD DSN=WYL.GG.PJG.OBJ(SIGAWAIT),DISP=OLD
        23 //SYSUDUMP DD SYSOUT=A
        24 //SYSIN    DD DSN=&&INPUT,DISP=(OLD,DELETE)
        25 //$EDIT  EXEC PGM=ASMEDIT,REGION=1M,
           //            COND=EVEN,PARM='STMT,DATA'
        26 //STEPLIB  DD DSN=WYL.GG.SYS.LINKLIB,DISP=SHR
        27 //ASMOUT   DD DSN=&&PRINT,DISP=(OLD,DELETE)
        28 //SYSPRINT DD SYSOUT=A
        29 //SYSUDUMP DD SYSOUT=A
1 STMT NO. MESSAGE
         2 IEFC001I PROCEDURE PURGEOLD WAS EXPANDED USING SYSTEM LIBRARY SYS3.BETAPROC
        14 IGD01010I STORCLAS= TEMP STORGROUP =
        14 IGD01010I STORGRP=VIO ASSIGNED.
        19 IGD01010I STORCLAS= TEMP STORGROUP =
        19 IGD01010I STORGRP=VIO ASSIGNED.
        21 IGD01010I STORCLAS= TEMP STORGROUP =
        21 IGD01010I STORGRP=VIO ASSIGNED.
 ICH70001I GG$PJG   LAST ACCESS AT 09:43:45 ON MONDAY, MARCH 22, 2004
 IEF142I PJG#SIG $$QUIET - STEP WAS EXECUTED - COND CODE 0008
 *********************************************************************************
 *   PJG#SIG /$$QUIET /                    Return Code      0008                 *
 *   Region used      260K (16K user + 244K system)                              *
 *   Extended region  9352K (4K user + 9348K system)                             *
 *                                                                               *
 *   Paging              In      Out                                             *
 *   Private <-> Aux      0        0       CPU time (TCB)   00:00:00.01          *
 *   Private <-> Exp      0        0       CPU time (SRB)   00:00:00.00          *
 *   VIO                  0        0       Elapsed time    920:43:51.54          *
 *   Common               0      ---                                             *
 *                                                                               *
 *                                                                               *
 *   CPU Usage          0.18         $0.11  Standard Processing Unit Equivalent  *
 *                                   $0.11  Total Step execution charge          *
 *                                                                               *
 *    I/O count  DDname   Type Addr           I/O count  DDname   Type Addr      *
 *                         *** No I/O for this step ***                          *
 *********************************************************************************
 IEF373I STEP/$$QUIET /START 2004082.0944
 IEF374I STEP/$$QUIET /STOP  2004082.0944 CPU    0MIN 00.01SEC SRB    0MIN 00.00SEC VIRT    16K SYS   244K EXT       4K SYS    9348K
 IEF236I ALLOC. FOR PJG#SIG $CND
 IEF237I 0401 ALLOCATED TO STEPLIB
 IEF237I JES2 ALLOCATED TO SYSPRINT
 IEF237I 04DC ALLOCATED TO SYSUT1
 IEF237I 04DC ALLOCATED TO SYSUT2
 IEF237I DMY  ALLOCATED TO SYSIN
 IEF142I PJG#SIG $CND - STEP WAS EXECUTED - COND CODE 0000
 IEF285I   WYL.GG.ORV.LINKLIB                           KEPT
 IEF285I   VOL SER NOS= SYSB01.
 IEF285I   GG$PJG.PJG#SIG.JOB05960.D0000101.?           SYSOUT
 IEF285I   WYL.GG.PJG.OBJ                               KEPT
 IEF285I   VOL SER NOS= SYSB05.
 IEF285I   WYL.GG.PJG.OBJ                               KEPT
 IEF285I   VOL SER NOS= SYSB05.
 *********************************************************************************
 *   PJG#SIG /$CND    /                    Return Code      Zero                 *
 *   Region used      280K (16K user + 264K system)                              *
 *   Extended region  9392K (4K user + 9388K system)                             *
 *                                                                               *
 *   Paging              In      Out                                             *
 *   Private <-> Aux      0        0       CPU time (TCB)   00:00:00.01          *
 *   Private <-> Exp      0        0       CPU time (SRB)   00:00:00.00          *
 *   VIO                  0        0       Elapsed time    920:43:50.24          *
 *   Common               0      ---                                             *
 *                                                                               *
 *                                                                               *
 *   CPU Usage          0.18         $0.11  Standard Processing Unit Equivalent  *
 *                                   $0.11  Total Step execution charge          *
 *                                                                               *
 *    I/O count  DDname   Type Addr           I/O count  DDname   Type Addr      *
 *            2  STEPLIB  Disk 0401                   0  SYSPRINT      ----      *
 *            0  SYSUT1   Disk 04DC                   0  SYSUT2   Disk 04DC      *
 *            0  SYSIN         ----                                              *
 *********************************************************************************
 IEF373I STEP/$CND    /START 2004082.0944
 IEF374I STEP/$CND    /STOP  2004082.0944 CPU    0MIN 00.01SEC SRB    0MIN 00.00SEC VIRT    16K SYS   264K EXT       4K SYS    9388K
 IEF236I ALLOC. FOR PJG#SIG $UNP
 IEF237I JES2 ALLOCATED TO SYSPRINT
 IEF237I 0402 ALLOCATED TO SYSUT1
 IGD101I SMS ALLOCATED TO DDNAME (SYSUT2  )
         DSN (SYS04082.T094401.RA000.PJG#SIG.INPUT.H01    )
         STORCLAS (TEMP) MGMTCLAS (        ) DATACLAS (        )
         VOL SER NOS= SCR100
 IEF142I PJG#SIG $UNP - STEP WAS EXECUTED - COND CODE 0000
 IEF285I   GG$PJG.PJG#SIG.JOB05960.D0000102.?           SYSOUT
 IEF285I   WYL.GG.ORV.SOURCE                            KEPT
 IEF285I   VOL SER NOS= SYSB02.
 IGD106I SYS04082.T094401.RA000.PJG#SIG.INPUT.H01     PASSED,    DDNAME=SYSUT2
 *********************************************************************************
 *   PJG#SIG /$UNP    /                    Return Code      Zero                 *
 *   Region used      380K (108K user + 272K system)                             *
 *   Extended region  9468K (4K user + 9464K system)                             *
 *                                                                               *
 *   Paging              In      Out                                             *
 *   Private <-> Aux      0        0       CPU time (TCB)   00:00:00.05          *
 *   Private <-> Exp      0        0       CPU time (SRB)   00:00:00.00          *
 *   VIO                  0        0       Elapsed time    920:43:49.89          *
 *   Common               0      ---                                             *
 *                                                                               *
 *                                                                               *
 *   CPU Usage          0.93         $0.57  Standard Processing Unit Equivalent  *
 *                                   $0.57  Total Step execution charge          *
 *                                                                               *
 *    I/O count  DDname   Type Addr           I/O count  DDname   Type Addr      *
 *            0  SYSPRINT      ----                   2  SYSUT1   Disk 0402      *
 *            4  SYSUT2   Disk 038B                                              *
 *********************************************************************************
 IEF373I STEP/$UNP    /START 2004082.0944
 IEF374I STEP/$UNP    /STOP  2004082.0944 CPU    0MIN 00.05SEC SRB    0MIN 00.00SEC VIRT   108K SYS   272K EXT       4K SYS    9464K
 IEF236I ALLOC. FOR PJG#SIG ASM
 IEF237I 0402 ALLOCATED TO SYSLIB
 IEF237I 0402 ALLOCATED TO
 IEF237I 04DC ALLOCATED TO
 IGD101I SMS ALLOCATED TO DDNAME (SYSUT1  )
         DSN (SYS04082.T094401.RA000.PJG#SIG.SYSUT1.H01   )
         STORCLAS (TEMP) MGMTCLAS (        ) DATACLAS (        )
         VOL SER NOS= VIO
 IEF237I JES2 ALLOCATED TO SYSTERM
 IGD101I SMS ALLOCATED TO DDNAME (SYSPRINT)
         DSN (SYS04082.T094401.RA000.PJG#SIG.PRINT.H01    )
         STORCLAS (TEMP) MGMTCLAS (        ) DATACLAS (        )
         VOL SER NOS= SCR100
 IEF237I 04DC ALLOCATED TO SYSLIN
 IEF237I JES2 ALLOCATED TO SYSUDUMP
 IGD103I SMS ALLOCATED TO DDNAME SYSIN
 IEF142I PJG#SIG ASM - STEP WAS EXECUTED - COND CODE 0000
 IEF285I   SYS3.DUMMYMAC                                KEPT
 IEF285I   VOL SER NOS= SYSB02.
 IEF285I   WYL.GG.ORV.MACLIB                            KEPT
 IEF285I   VOL SER NOS= SYSB02.
 IEF285I   WYL.GG.SYS.MACLIB                            KEPT
 IEF285I   VOL SER NOS= SYSB05.
 IGD105I SYS04082.T094401.RA000.PJG#SIG.SYSUT1.H01    DELETED,   DDNAME=SYSUT1
 IEF285I   GG$PJG.PJG#SIG.JOB05960.D0000103.?           SYSOUT
 IGD106I SYS04082.T094401.RA000.PJG#SIG.PRINT.H01     PASSED,    DDNAME=SYSPRINT
 IEF285I   WYL.GG.PJG.OBJ                               KEPT
 IEF285I   VOL SER NOS= SYSB05.
 IEF285I   GG$PJG.PJG#SIG.JOB05960.D0000104.?           SYSOUT
 IGD105I SYS04082.T094401.RA000.PJG#SIG.INPUT.H01     DELETED,   DDNAME=SYSIN
 *********************************************************************************
 *   PJG#SIG /ASM     /                    Return Code      Zero                 *
 *   Region used      8476K (8192K user + 284K system)                           *
 *   Extended region  9952K (412K user + 9540K system)                           *
 *                                                                               *
 *   Paging              In      Out                                             *
 *   Private <-> Aux      0        0       CPU time (TCB)   00:00:00.78          *
 *   Private <-> Exp      0        0       CPU time (SRB)   00:00:00.03          *
 *   VIO                  0        0       Elapsed time    920:43:49.40          *
 *   Common               0      ---                                             *
 *                                                                               *
 *                                                                               *
 *   CPU Usage         14.62         $9.06  Standard Processing Unit Equivalent  *
 *                                   $9.06  Total Step execution charge          *
 *                                                                               *
 *    I/O count  DDname   Type Addr           I/O count  DDname   Type Addr      *
 *           51  SYSLIB   Disk 0402                   0  SYSLIB   Disk 0402      *
 *          124  SYSLIB   Disk 04DC                   0  SYSUT1   VIO  ----      *
 *            0  SYSTERM       ----                  36  SYSPRINT Disk 038B      *
 *            1  SYSLIN   Disk 04DC                   0  SYSUDUMP      ----      *
 *            5  SYSIN    Disk 038B                                              *
 *********************************************************************************
 IEF373I STEP/ASM     /START 2004082.0944
 IEF374I STEP/ASM     /STOP  2004082.0944 CPU    0MIN 00.78SEC SRB    0MIN 00.03SEC VIRT  8192K SYS   284K EXT     412K SYS    9540K
 IEF236I ALLOC. FOR PJG#SIG $EDIT
 IEF237I 0402 ALLOCATED TO STEPLIB
 IGD103I SMS ALLOCATED TO DDNAME ASMOUT
 IEF237I JES2 ALLOCATED TO SYSPRINT
 IEF237I JES2 ALLOCATED TO SYSUDUMP
 IEF142I PJG#SIG $EDIT - STEP WAS EXECUTED - COND CODE 0000
 IEF285I   WYL.GG.SYS.LINKLIB                           KEPT
 IEF285I   VOL SER NOS= SYSB02.
 IGD105I SYS04082.T094401.RA000.PJG#SIG.PRINT.H01     DELETED,   DDNAME=ASMOUT
 IEF285I   GG$PJG.PJG#SIG.JOB05960.D0000105.?           SYSOUT
 IEF285I   GG$PJG.PJG#SIG.JOB05960.D0000106.?           SYSOUT
 *********************************************************************************
 *   PJG#SIG /$EDIT   /                    Return Code      Zero                 *
 *   Region used      388K (116K user + 272K system)                             *
 *   Extended region  9468K (4K user + 9464K system)                             *
 *                                                                               *
 *   Paging              In      Out                                             *
 *   Private <-> Aux      0        0       CPU time (TCB)   00:00:00.15          *
 *   Private <-> Exp      0        0       CPU time (SRB)   00:00:00.00          *
 *   VIO                  0        0       Elapsed time    920:43:43.44          *
 *   Common               0      ---                                             *
 *                                                                               *
 *                                                                               *
 *   CPU Usage          2.81         $1.74  Standard Processing Unit Equivalent  *
 *                                   $1.74  Total Step execution charge          *
 *                                                                               *
 *    I/O count  DDname   Type Addr           I/O count  DDname   Type Addr      *
 *            2  STEPLIB  Disk 0402                  37  ASMOUT   Disk 038B      *
 *            0  SYSPRINT      ----                   0  SYSUDUMP      ----      *
 *********************************************************************************
 IEF373I STEP/$EDIT   /START 2004082.0944
 IEF374I STEP/$EDIT   /STOP  2004082.0944 CPU    0MIN 00.15SEC SRB    0MIN 00.00SEC VIRT   116K SYS   272K EXT       4K SYS    9464K
 *********************************************************************************
 *                                                                               *
 *                      S t a n f o r d   U n i v e r s i t y                    *
 *                                                                               *
 *                              *** Job Summary ***                              *
 *                                                                               *
 *   System Id      SYSB                   Input time     09:38:26  Mar 22, 2004 *
 *                                                                               *
 *   System Release SP6.1.0                Start time     09:44:01  Mar 22, 2004 *
 *                                                                               *
 *   Job name       PJG#SIG                Stop  time     00:00:00  Mar 22, 2004 *
 *                                                                               *
 *   Account        PJG$GG                 Elapsed time  920:43:51.54            *
 *                                                                               *
 *   User Name      Module: SIGAWAIT       CPU time       00:00:01.00            *
 *                                                                               *
 *   Job class      E                      SRB Time       00:00:00.03            *
 *                                                                               *
 *********************************************************************************
 IEF375I  JOB/PJG#SIG /START 2004082.0944
 IEF376I  JOB/PJG#SIG /STOP  2004082.0944 CPU    0MIN 01.00SEC SRB    0MIN 00.03SEC
1Data set successfully converted from EDIT to FB format
1Assembler Done SIGAWAIT No Statements Flagged
1         High Level Assembler Option Summary                   (PTF UQ57391)                                               Page    1
-                                                                                            HLASM R4.0  2004/03/22 09.44
0  No Overriding ASMAOPT Parameters
   Overriding Parameters-  SYSPARM(SIGAWAIT),TERM,LANG(EN),OBJ,LC(32500),XREF(SHORT),NODECK,NORLD,NODX,NOUS
   No Process Statements


   Options for this Assembly
0  NOADATA
     ALIGN
   NOASA
     BATCH
     CODEPAGE(047C)
   NOCOMPAT
   NODBCS
 3 NODECK
 3 NODXREF
     ESD
   NOEXIT
     FLAG(0,ALIGN,CONT,NOIMPLEN,NOPAGE0,PUSH,RECORD,NOSUBSTR,USING0)
   NOFOLD
   NOGOFF
   NOINFO
 3   LANGUAGE(EN)
   NOLIBMAC
 3   LINECOUNT(32500)
     LIST(121)
     MXREF(SOURCE)
 3   OBJECT
     OPTABLE(UNI,NOLIST)
   NOPCONTROL
   NOPESTOP
   NOPROFILE
   NORA2
   NORENT
 3 NORLD
     RXREF
     SIZE(MAX)
 3   SYSPARM(SIGAWAIT)
 3   TERM(WIDE)
   NOTEST
     THREAD
   NOTRANSLATE
 3 NOUSING
 3   XREF(SHORT)

   No Overriding DD Names

1SIGAWAIT External Symbol Dictionary                                                                                        Page    2
-Symbol   Type   Id     Address  Length     LD ID  Flags Alias-of                            HLASM R4.0  2004/03/22 09.44
0SIGAWAIT  SD 00000001 00000000 000003A2             06
 SIGA00    LD          00000000           00000001
 AWAIT     LD          00000022           00000001
 SIGNAL    LD          000000D6           00000001
 ROSSRES8  LD          000001B6           00000001
 AWAITAS   LD          000001FE           00000001
 SIGNALAS  LD          000002B6           00000001
 TRCD8     LD          0000033C           00000001
 SUSPEND   ER 00000002
 RESUMTS   ER 00000003
 DISPRD    ER 00000004
 SYSRDO    ER 00000005
 RESUMAS   ER 00000006

1SIGAWAIT ORVYL'S Signal/Await routines                                                                                     Page    3
0Loc    Object Code    Addr1 Addr2  Stmt Lv Lineno    Source Statement                    (Asmedit 3.3)  HLASM R4.0  2004/03/22 09.44
+___    ______ ____    _____ _____  ____ __ ______    ______ _________
0                                      2       2.              COPY  HEADER
                                       3             =*********************************************************************
                                       4             =*                                                                   *
                                       5             =*                                                                   *
                                       6             =*                          M P - O R V Y L                          *
                                       7             =*                                                                   *
                                       8             =*       ORVYL - Release 5.0 - Class I - Stanford Proprietary        *
                                       9             =*                                                                   *
                                      10             =*                                                                   *
                                      11             =*********************************************************************
-
-                                     13             =         SPLEVEL SET=2
                                      16             =         HIBAL ASSOC=YES
-
                                     998             =*
                                     999             =* REGISTER CONVENTIONS (USE ONLY THE SYMBOLS)
                                    1000             =*
                                    1001             =*                     CLASS  USAGE
                                    1002             =*                     -----  -----------------------------
                                    1003             =RVR      REG   0        1    RETURN VALUE REGISTER
                                    1015             =RS       REG   1        *    SCRATCH
                                    1027             =RA       REG   2        *    SCRATCH
                                    1039             =RB       REG   3        *    SCRATCH
                                    1051             =RJ       REG   4        *    SCRATCH
                                    1063             =RK       REG   5        *    SCRATCH
                                    1075             =RX       REG   6        *    SCRATCH
                                    1087             =RY       REG   7        *    SCRATCH
                                    1099             =RM       REG   8        *    SCRATCH
                                    1111             =RN       REG   9        *    SCRATCH (In Guest)
                                    1123             =RTCBR    REG   9        -    POINTER TO THE RTCB (In Host)
                                    1135             =BR       REG   10       -    FIRST BASE REGISTER
                                    1147             =BRR      REG   11       -    SECOND BASE REGISTER
                                    1159             =WAR      REG   12       -    WORK AREA POINTER
                                    1171             =SPR      REG   13       -    STACK TOP POINTER
                                    1183             =RAR      REG   14       1    RETURN ADDRESS REGISTER
                                    1195             =EPAR     REG   15       1    ENTRY POINT ADDRESS
                                    1207             =*
                                    1208             =*      CLASS   MEANING
                                    1209             =*      -----   --------------------------------------------------
                                    1210             =*        *     Register may be freely used for scratch
                                    1211             =*        -     Register may not be used
                                    1212             =*        1     Available but may change on subroutine calls
                                    1213             =*
1SIGAWAIT ORVYL'S Signal/Await routines                                                                                     Page    4
0D-Loc  Object Code    Addr1 Addr2  Stmt Lv Lineno    Source Statement           (Hibal 5, Asmedit 3.3)  HLASM R4.0  2004/03/22 09.44
+_____  ______ ____    _____ _____  ____ __ ______    ______ _________
0
-
                                    1216       4.     DISABLE  EQU   X'BC'                   Disable 'AND' mask
 000000                00000 003A2  1217       5.     SIGAWAIT MODULE TRCNUM=8
                                    1227             +*
                                    1228    02-IDENT +         ENTRY SIGA00
                                    1229             +
 000000 14E2C9C7C1F0F06B            1230    02-IDENT +SIGA00   DC    AL1(20),C'SIGA00,22MAR04,09:44'
                                    1231             +*
1SIGAWAIT (SIGA00) (09:44) (22MAR04) ORVYL'S Signal/Await routines                                                          Page    5
0Loc    Object Code    Addr1 Addr2  Stmt Lv Lineno    Source Statement           (Hibal 5, Asmedit 3.3)  HLASM R4.0  2004/03/22 09.44
+___    ______ ____    _____ _____  ____ __ ______    ______ _________
0                                   1234       7.              COPY  PZERO
 000000                00000 00280  1235             =PZERO    RECORD BEGIN
                                    1243  1          =*
                                    1244  1          =* Real Page 0.  Each CPU has its own copy of this area.
                                    1245  1          =*
-                                   1247  1          =****************************************************************
                                    1248  1          =*               Fields Fixed by the Architecture               *
                                    1249  1          =*               ********************************               *
                                    1250  1          =*                                                              *
 000000                             1251  1          =PZRSNPSW   DS    D             Restart new PSW                 *
 000008                             1252  1          =PZRSOPSW   DS    D             Restart old PSW                 *
 000010                             1253  1          =           DS    D                                             *
 000018                             1254  1          =PZEXOPSW   DS    D             External old PSW                *
 000020                             1255  1          =PZSVOPSW   DS    D             Supervisor old PSW              *
 000028                             1256  1          =PZPIOPSW   DS    D             Program old PSW                 *
 000030                             1257  1          =PZMCOPSW   DS    D             Machine check old PSW           *
 000038                             1258  1          =PZIOOPSW   DS    D             I/O old PSW                     *
 000040                             1259  1          =           DS    3D                                            *
 000058                             1260  1          =PZEXNPSW   DS    D             External new PSW                *
 000060                             1261  1          =PZSVNPSW   DS    D             Supervisor new PSW              *
 000068                             1262  1          =PZPINPSW   DS    D             Program new PSW                 *
 000070                             1263  1          =PZMCNPSW   DS    D             Machine check new PSW           *
 000078                             1264  1          =PZIONPSW   DS    D             I/O new PSW                     *
 000080                             1265  1          =           DS    F                                             *
 000084                             1266  1          =PZEXCPU    DS    H             CPU address for EXT int         *
 000086                             1267  1          =PZEXIC     DS    H             External interrupt code         *
 000088                             1268  1          =PZSVILC    DS    H             Supervisor call ILC             *
 00008A                             1269  1          =PZSVIC     DS    H             Supervisor interrupt code       *
 00008C                             1270  1          =PZPIILC    DS    H             Program ILC                     *
 00008E                             1271  1          =PZPIIC     DS    H             Program interrupt code          *
 000090                             1272  1          =PZTREXA    DS    A             Translation exception address   *
 000094                             1273  1          =PZMONCL    DS    H             Monitor Class number            *
 000096                             1274  1          =PZPERCD    DS    H             PER code                        *
 000098                             1275  1          =PZPERA     DS    A             PER Address                     *
 00009C                             1276  1          =PZMONCD    DS    A             Monitor Code                    *
 0000A0                             1277  1          =           DS    3D                                            *
 0000B8                             1278  1          =PZIOSID    DS    A             I/O subsystem ID word           *
 0000BC                             1279  1          =PZIOPRM    DS    A             I/O Parameter                   *
 0000C0                             1280  1          =PZIOSCS    DS    A             I/O subchannel ending status    *
 0000C4                             1281  1          =           DS    A                                             *
 0000C8                             1282  1          =           DS    39D                                           *
                                    1283  1          =*                                                              *
                                    1284  1          =*            ***************************************           *
                                    1285  1          =*            End of Fields fixed by the architecture           *
                                    1286  1          =****************************************************************
1SIGAWAIT (SIGA00) (09:44) (22MAR04) ORVYL'S Signal/Await routines                                                          Page    6
0D-Loc  Object Code    Addr1 Addr2  Stmt Lv Lineno    Source Statement           (Hibal 5, Asmedit 3.3)  HLASM R4.0  2004/03/22 09.44
+_____  ______ ____    _____ _____  ____ __ ______    ______ _________
0                                   1288  1          =*
                                    1289  1          =* Fields of general interest
                                    1290  1          =*
 000200                             1291  1          =PZMATP     DS    A             Address of the MAT
 000204                             1292  1          =           DS    A             ** Reserved **
 000208                             1293  1          =PZCURPID   DS    0D            Unique ID of the current process
 000208                             1294  1          =PZCURASB   DS    A             Addr of ASB for current Address space
 00020C                             1295  1          =PZCURTSK   DS    A             ID of current task in the Address space
 000210                             1296  1          =PZLCPUA    DS    A             Logical CPU address
 000214                             1297  1          =PZCPUMSK   DS    A             CPU address mask bit
 000218                             1298  1          =PZPSWM     DS    X             PSW mask for disabling
 000219                             1299  1          =           DS    X             ** Reserved **
                                    1300  1          =*
                                    1301  1          =* Termination/Trace information
                                    1302  1          =*
 00021A 00                          1303  1          =PZTERMFL   FLAG  ,             Termination flags
 PZTERMFL.PZABORT  80 ONES          1307  1          =           FLAG  PZABORT         ABORT macro issued
 PZTERMFL.PZATERM  40 ONES          1312  1          =           FLAG  PZATERM         Start termination processing
 00021B                             1317  1          =PZABSM     DS    X             Save area for system mask in ABORT
 00021C                             1318  1          =PZABR15    DS    A             Save area for R15 in an ABORT
 000220                             1319  1          =PZTZOFF    DS    D             Time zone offset
 000228                             1320  1          =           DS    22A           ** Reserved **
                                    1321  1          =*         DS    24A           ** Reserved **
 000280                00280 00280  1322             =         END   ,
1SIGAWAIT (SIGA00) (09:44) (22MAR04) ORVYL'S Signal/Await routines                                                          Page    7
0Loc    Object Code    Addr1 Addr2  Stmt Lv Lineno    Source Statement           (Hibal 5, Asmedit 3.3)  HLASM R4.0  2004/03/22 09.44
+___    ______ ____    _____ _____  ____ __ ______    ______ _________
0                                   1332       9.              COPY  DISPPARM
                                    1333             =*****************************************************************
                                    1334             =*                                                               *
                                    1335             =*  DISPPARM -- Parameters for the dispatcher global routines.   *
                                    1336             =*                                                               *
                                    1337             =*****************************************************************
-                                   1339             =*
                                    1340             =* Routines to indicate completion of a page or swap I/O
                                    1341             =*
 000000                00000 00004  1342             =@DISPPIOC RECORD BEGIN                 Page I/O completion parms
 000000                             1350  1          =@DPIOASB   DS    A                       ASB of completing I/O
 000004                00004 00004  1351             =         END   ,
0000000                00000 00004  1361             =@DISPSIOC RECORD BEGIN                 Swap I/O completion parms
 000000                             1369  1          =@DSIOASB   DS    A                       ASB of completing I/O
 000004                00004 00004  1370             =         END   ,
-                                   1380             =*
                                    1381             =* SUSPEND parameters
                                    1382             =*
0000000                00000 00009  1384             =@SUSPEND RECORD BEGIN
 000000                             1392  1          =@SUSPCTL   DS    0D            ID of the Control level suspended
 000000                             1393  1          =@SUSPID    DS    A             ID of the task/address space suspended
 000004                             1394  1          =@SUSPLC    DS    A             For tasks: Level of control suspended
 000008 00                          1395  1          =@SUSPFLG   FLAG  ,
 @SUSPFLG.@SUSPLNG 80 ONES          1399  1          =           FLAG  @SUSPLNG      This will be of long duration
 @SUSPFLG.@SUSPAS  40 ONES          1404  1          =           FLAG  @SUSPAS       Suspend the entire address space
 @SUSPFLG.@SUSPPLC 20 ONES          1409  1          =           FLAG  @SUSPPLC      Suspend previous level of control
 000009                00009 00009  1414             =         END   ,
-                                   1424             =*
                                    1425             =* RESUMAS/RESUMTS parameters
                                    1426             =*
0000000                00000 00008  1428             =@RESUME  RECORD BEGIN
 000000                             1436  1          =@RESCTL    DS    0D            ID of the unit of work to be resumed
 000000                             1437  1          =@RESUNIT   DS    A             Address of the ASB/task Id to resume
 000004                             1438  1          =@RESLC     DS    A             Level of control in a task
 000008                00008 00008  1439             =         END   ,
-                                   1449             =*
                                    1450             =* DISPSHLD/DISPSREL parmameters
                                    1451             =*
0000000                00000 00004  1453             =@DISPSWP RECORD BEGIN
 000000                             1461  1          =@DISPSAS   DS    A             Address of the ASB being manipulated
 000004                00004 00004  1462             =         END   ,
-                                   1472             =*
1SIGAWAIT (SIGA00) (09:44) (22MAR04) ORVYL'S Signal/Await routines                                                          Page    8
0Loc    Object Code    Addr1 Addr2  Stmt Lv Lineno    Source Statement           (Hibal 5, Asmedit 3.3)  HLASM R4.0  2004/03/22 09.44
+___    ______ ____    _____ _____  ____ __ ______    ______ _________
0                                   1473             =* ACREATE parameters
                                    1474             =*
0000000                00000 00008  1476             =@ACREATE RECORD BEGIN
 000000                             1484  1          =@ACRPSW    DS    D             Instruction address for task
 000008                00008 00008  1485             =         END   ,
-                                   1495             =*
                                    1496             =* TCREATE parameters
                                    1497             =*
0000000                00000 00015  1499             =@TCREATE RECORD BEGIN
 000000                             1507  1          =@TCRPSW    DS    D             Initial PSW for the task
 000008                             1508  1          =@TCRPARM   DS    2A            Parameter for the task
 000010                             1509  1          =@TCRPRIO   DS    A             Adjustment to priority from Current task
 000014 00                          1510  1          =@TCRFLAG   FLAG  ,             Task creation flags
 @TCRFLAG.@TCRFSTK 80 ONES          1514  1          =           FLAG  @TCRFSTK        Task entered with a stack
 @TCRFLAG.@TCRFPAB 40 ONES          1519  1          =           FLAG  @TCRFPABS       Prio is absolute
 000015                00015 00015  1524             =         END   ,
-                                   1534             =*
                                    1535             =* TREMOVE parameters
                                    1536             =*
0000000                00000 00004  1538             =@TREMOVE RECORD BEGIN
 000000                             1546  1          =@TREID     DS    A             ID of the task to be removed
 000004                00004 00004  1547             =         END   ,
-                                   1557             =*
                                    1558             =* TENTRY Parameters  (on entry to a created task)
                                    1559             =*
0000000                00000 00008  1561             =@TENTRY  RECORD BEGIN
 000000                             1569  1          =@TEPARM    DS    2A            Entry parm for the task
 000008                00008 00008  1570             =         END   ,
-                                   1580             =*
                                    1581             =* TEXIT parameters
                                    1582             =*
0000000                00000 00004  1584             =@TEXIT   RECORD BEGIN
 000000                             1592  1          =           DS    A             Not used
 000004                00004 00004  1593             =         END   ,
-                                   1603             =*
                                    1604             =* SYSRNEW -- Get a new SYSR ID
                                    1605             =*
0000000                00000 00004  1607             =@SYSRNEW RECORD BEGIN
 000000                             1615  1          =           DS    A             Not used
 000004                00004 00004  1616             =         END   ,
1SIGAWAIT (SIGA00) (09:44) (22MAR04) ORVYL'S Signal/Await routines                                                          Page    9
0Loc    Object Code    Addr1 Addr2  Stmt Lv Lineno    Source Statement           (Hibal 5, Asmedit 3.3)  HLASM R4.0  2004/03/22 09.44
+___    ______ ____    _____ _____  ____ __ ______    ______ _________
0                                   1626             =*
                                    1627             =* SYSRDEL -- Delete a previous SYSR ID
                                    1628             =*
 000000                00000 00004  1629             =@SYSRDEL RECORD BEGIN
 000000                             1637  1          =@SYSRDID   DS    A             Id of the SYSR
 000004                00004 00004  1638             =         END   ,
-                                   1648             =*
                                    1649             =* SYSRDO -- Schedule a system routine to run in another address space
                                    1650             =*
0000000                00000 0001C  1652             =@SYSRDO  RECORD BEGIN
 000000                             1660  1          =@SYSRID    DS    A             Id from SYSRNEW
 000004                             1661  1          =@SYSRASB   DS    A             ASB of the Address space where it goes
 000008                             1662  1          =@SYSRLOC   DS    A             Location of the system routine
 00000C                             1663  1          =@SYSRPRM   DS    4A            Parameters for the routine
 00001C                0001C 0001C  1664             =         END   ,
-                                   1674             =*
                                    1675             =* SYSRTN -- Parameter passed to a system routine
                                    1676             =*
0000000                00000 00010  1678             =@SYSRTN  RECORD BEGIN
 000000                             1686  1          =@SYSPARS   DS    4A            Parameters
 000010                00010 00010  1687             =         END   ,
-                                   1697             =*
                                    1698             =* PERSET -- Set the Per registers
                                    1699             =*
0000000                00000 0000C  1701             =@PERSET  RECORD BEGIN
 000000                             1709  1          =@PERSDAT   DS    3F            3 Registers (corresponds to CRs 9-11)
 00000C                0000C 0000C  1710             =         END   ,
-                                   1720             =*
                                    1721             =* MONSET -- Set the MON masks
                                    1722             =*
0000000                00000 00002  1724             =@MONSET  RECORD BEGIN
 000000                             1732  1          =@MONSDAT   DS    H             Monitor Class Mask
 000002                00002 00002  1733             =         END   ,
-                                   1743             =*
                                    1744             =* DSPSTAT -- Return Dispatcher Statistics
                                    1745             =*
0000000                00000 00020  1747             =@DSPSTAT RECORD BEGIN
 000000                             1755  1          =@DSPSST    DS    D             TOD clock when system started
 000008                             1756  1          =@DSPSCHG   DS    D             Total CPU time charged (TOD)
 000010                             1757  1          =@DSPSDSP   DS    D             Dispatch CPU time (TOD)
 000018                             1758  1          =@DSPSIOS   DS    D             I/O Service time (TOD)
1SIGAWAIT (SIGA00) (09:44) (22MAR04) ORVYL'S Signal/Await routines                                                          Page   10
0Loc    Object Code    Addr1 Addr2  Stmt Lv Lineno    Source Statement           (Hibal 5, Asmedit 3.3)  HLASM R4.0  2004/03/22 09.44
+___    ______ ____    _____ _____  ____ __ ______    ______ _________
0000020                00020 00020  1759             =         END   ,
1SIGAWAIT (SIGA00) (09:44) (22MAR04) ORVYL'S Signal/Await routines                                                          Page   11
0Loc    Object Code    Addr1 Addr2  Stmt Lv Lineno    Source Statement           (Hibal 5, Asmedit 3.3)  HLASM R4.0  2004/03/22 09.44
+___    ______ ____    _____ _____  ____ __ ______    ______ _________
0                                   1769      11.              COPY  SIGPARM
                                    1770             =*
                                    1771             =*  AWAIT/AWAITAS parameters
                                    1772             =*    For task based calls, the ECB is a double word.
                                    1773             =*    For address space based calls, the ECB is a word.
                                    1774             =*
 000000                00000 00005  1775             =@AWAIT   RECORD BEGIN
 000000                             1783  1          =@AWTECB    DS    A                       Address of ECB
 000004 00                          1784  1          =@AWTFLG    FLAG  ,
 @AWTFLG.@AWTLONG  80 ONES          1788  1          =           FLAG  @AWTLONG                Long term wait
 000005                00005 00005  1793             =         END   ,
0                                   1803             =*
                                    1804             =*  SIGNAL/SIGNALAS parameters
                                    1805             =*    For task based calls, the ECB and post code is a double word.
                                    1806             =*    For address space based calls, the ECB and post code is a word.
                                    1807             =*
 000000                00000 00014  1808             =@SIGNAL  RECORD BEGIN
 000000                             1816  1          =@SGCODE    DS    D                       Post code
 000008                             1817  1          =@SGECB     DS    A                       Address of ECB
                                    1818  1          =*  -- Parms for task signal --
                                    1819  1          =*    Zero ASB means post in this AS
                                    1820  1          =*    @PSSRID is only used for cross AS posts
 00000C                             1821  1          =@SGASB     DS    A                       ASB to be posted
 000010                             1822  1          =@SGSRID    DS    A                       System routine ID for cross
                                    1823  1          =*                                          AS posting
 000014                00014 00014  1824             =         END   ,
1SIGAWAIT (SIGA00) (09:44) (22MAR04) ORVYL'S Signal/Await routines                                                          Page   12
0Loc    Object Code    Addr1 Addr2  Stmt Lv Lineno    Source Statement           (Hibal 5, Asmedit 3.3)  HLASM R4.0  2004/03/22 09.44
+___    ______ ____    _____ _____  ____ __ ______    ______ _________
0000000                00000 00008  1834      13.     ECB      RECORD BEGIN
 000000                             1842  1   14.                DS    D
 000008                00008 00008  1843      15.              END   ,
1SIGAWAIT (SIGA00) (09:44) (22MAR04) ORVYL'S Signal/Await routines                                                          Page   13
0Loc    Object Code    Addr1 Addr2  Stmt Lv Lineno    Source Statement           (Hibal 5, Asmedit 3.3)  HLASM R4.0  2004/03/22 09.44
+___    ______ ____    _____ _____  ____ __ ______    ______ _________
0                                   1854      18.     *********************************************************************
                                    1855      19.     *  Wait a task based on ECB                                         *
                                    1856      20.     *                                                                   *
                                    1857      21.     *   Input - @AWAIT                                                  *
                                    1858      22.     *                                                                   *
                                    1859      23.     *  Output - Post bit is cleared in ECB                              *
                                    1860      24.     *           RVR = Post code (low order word of post code)           *
                                    1861      25.     *                                                                   *
                                    1862      26.     *********************************************************************
0000016                             1864      28.     AWAIT    PROC  @AWAIT,SCOPE=GLOBAL
 000016 C1E6C1C9E3404040            1870             +
 00001E 0008/0000                   1871             +
 000022 900F D004/18AF       00004  1873             +
 USING  AWAIT,R10
 000028 50D0 C000/18CD       00000  1888             +
 00002E 9680 C000      00000        1890             +
 USING  @AWAIT-72,R12
 000032 41D0 C050            00050  1904             +
 USING  PZERO,R0                    1905      29.              USING PZERO,R0
 000036 5870 C048            00000  1914      30.              L     RY,@AWTECB
 USING  ECB,R7                      1915      31.              WITH  (ECB,RY)
                                    1928      32.     *
                                    1929      33.     *  Disable and set to suspend on next dispatch
                                    1930      34.     *
 00003A 9140 7000      00000        1931      35.              IF    ~ECB.X'40',BEGIN        Not posted
 00003E 4710 A07C            0009E  1942             +
 000042 ACBC 0218      00218        1947  1   36.                STNSM PZPSWM,DISABLE
 USING  @SUSPEND-72,R13             1948  1   37.                PSET  @SUSPEND                Suspend task on next dispatch
 000046 D708 D048 D048 00000 00000  1965  1          +
 00004C 9180 C04C      00004        1966  1   38.                IF    @AWTLONG,'SET @SUSPLNG' | long term wait
 000050 47E0 A036            00058  1976  1          +
 000054 9680 D050      00008        1987  1          +
 000058 58F0 A33E/0DEF       00360  1992  1   39.                VCALL SUSPEND                 |
 00005E 9845 D048            00000  1996  1   40.                LM    RJ,RK,@SUSPCTL          Info about this level of ctl
 000062 5640 A342            00364  1997  1   41.                O     RJ,=X'80000000'         | set it as waiting
                                    1998  1   42.     *
                                    1999  1   43.     *  Check ECB - can we go?
                                    2000  1   44.     *
 000066 9823 7000            00000  2001  1   45.                LM    RA,RB,ECB               Check posted bit
 00006A                             2002  1   46.     WAITLOOP   LOOP  BEGIN
 00006A 1812                        2009  2   47.                  LR    RS,RA                   |
 00006C 5410 A346            00368  2010  2   48.                  N     RS,=X'40000000'         |
 000070 4780 A06A            0008C  2011  2   49.                  IF    NZ,BEGIN                Posted - no waiting
 DROP   @SUSPEND-72,R13             2022  3   50.                    PSET  @RESUME                 Turn off suspend
 USING  @RESUME-72,R13
 000074 D707 D048 D048 00000 00000  2042  3          +
 00007A 5440 A34A            0036C  2043  3   51.                    N     RJ,=X'7FFFFFFF'         | high bit off
 00007E 9045 D048            00000  2044  3   52.                    STM   RJ,RK,@RESCTL           |
 000082 58F0 A34E/0DEF       00370  2045  3   53.                    VCALL RESUMTS                 |
 000088 47F0 A072            00094  2049  3   54.                    EXIT  WAITLOOP
 00008C                             2052  2   55.                  END   ,                       OF Posted - no waiting
 00008C BB24 7000            00000  2056  2   56.                  CDS   RA,RJ,ECB               Set as waiting
 000090 4770 A048            0006A  2057  1   57.                UNTIL EQUAL,END               Changed - see if posted?
                                    2076  1   58.     *
                                    2077  1   59.     *  Reenable interrupts
1SIGAWAIT (SIGA00) (09:44) (22MAR04) ORVYL'S Signal/Await routines                                                          Page   14
0Current Usings:  (PZERO,R0) (ECB,R7) (AWAIT,R10) (@AWAIT-72,R12) (@RESUME-72,R13)
0Loc    Object Code    Addr1 Addr2  Stmt Lv Lineno    Source Statement           (Hibal 5, Asmedit 3.3)  HLASM R4.0  2004/03/22 09.44
+___    ______ ____    _____ _____  ____ __ ______    ______ _________
0                                   2078  1   60.     *
 000094 8000 0218      00218        2079  1   61.                SSM   PZPSWM
                                    2080  1   62.     *
                                    2081  1   63.     *  Force a dispatch
                                    2082  1   64.     *
 000098 58F0 A352/0DEF       00374  2083  1   65.                VCALL DISPRD
 00009E                             2087      66.              END   ,                       OF Not Posted
                                    2091      67.     *
                                    2092      68.     *  When we run again, clear posted flag
                                    2093      69.     *
 000384 BF             00384 003A2  2094      70.              CLEAR ECB.X'40',MODE=LOCKED,REF=ECB    Clear posted flag
 00009E 41F0 0001/111F       00001  2115             +
 0000A4 89F0 0003            00003  2117             +
 0000A8 44F0 A364            00386  2119             +
 000385 00/BF10 A362         00384                   +
 0000AC 58F0 7000/180F       00000  2134             +
 0000B2 1401/BAF0 7000       00000  2136             +
 0000B8 4770 A08E            000B0  2139             +
 0000BC 5800 7004            00004  2140      71.              L     RVR,ECB+4               Load post code - low order
 DROP   PZERO,R0                    2141      72.              DROP  R0
 0000C0 981F C008            00008  2149      73.              PEND  ,
 DROP   ECB,R7
 DROP   @AWAIT-72,R12
 DROP   AWAIT,R10
 0000C4 9680 C000/0B0E 00000        2169             +
 DROP   @RESUME-72,R13
1SIGAWAIT (SIGA00) (09:44) (22MAR04) ORVYL'S Signal/Await routines                                                          Page   15
0Loc    Object Code    Addr1 Addr2  Stmt Lv Lineno    Source Statement           (Hibal 5, Asmedit 3.3)  HLASM R4.0  2004/03/22 09.44
+___    ______ ____    _____ _____  ____ __ ______    ______ _________
0                                   2179      75.     *********************************************************************
                                    2180      76.     *  Post a task based on ECB                                         *
                                    2181      77.     *                                                                   *
                                    2182      78.     *   Input - @SIGNAL                                                 *
                                    2183      79.     *                                                                   *
                                    2184      80.     *  Output - Control word posted                                     *
                                    2185      80.1    *            RVR = 0 if wake up action successful                   *
                                    2186      81.     *                                                                   *
                                    2187      82.     *********************************************************************
00000CA                             2189      84.     SIGNAL   PROC  @SIGNAL,SCOPE=GLOBAL
 0000CA E2C9C7D5C1D34040            2195             +
 0000D2 0018/0000                   2196             +
 0000D6 900F D004/18AF       00004  2198             +
 USING  SIGNAL,R10
 0000DC 50D0 C000/18CD       00000  2213             +
 0000E2 9680 C000      00000        2215             +
 USING  @SIGNAL-72,R12
 0000E6 41D0 C060            00060  2229             +
 0000EA 5870 C050            00008  2230      85.              L     RY,@SGECB
 USING  ECB,R7                      2231      86.              WITH  (ECB,RY)
 0000EE 9845 C048            00000  2244      87.              LM    RJ,RK,@SGCODE           Get post code
 0000F2 5440 A2A2            00378  2245      88.              N     RJ,=X'3FFFFFFF'         | clear high bits
 0000F6 5640 A292            00368  2246      89.              O     RJ,=X'40000000'         | set post bit
 0000FA 9823 7000            00000  2247      90.              LM    RA,RB,ECB
                                    2248      91.     *
                                    2249      92.     *  Try to do fast-post
                                    2250      93.     *
 0000FE                             2251      94.              LOOP  BEGIN
 0000FE 1222/4740 A03C       00112  2257  1   95.                IF    (RA,NEG),DOPOST         Currently waiting, do post
 000104 BB24 7000            00000  2274  1   96.                CDS   RA,RJ,ECB
 000108 4770 A028            000FE  2275      97.              UNTIL EQUAL,END
 00010C 1B00                        2294      97.1             CLEAR RVR
 00010E 47F0 A0D6            001AC  2298      98.              EXIT  SIGNAL                  Did fast post - scram
                                    2301      99.     *
                                    2302     100.     *  Task already waiting - post code and resume task
                                    2303     101.     *
 000112                             2304     102.     DOPOST   LOOP  BEGIN                   Set post code
 000112 BB24 7000            00000  2311  1  103.                CDS   RA,RJ,ECB               |
 000116 4780 A058            0012E  2312  1  104.                IF    EQUAL,EXIT              We posted - do resume
 00011A 1222/4740 A03C       00112  2326  1  105.                IF    (RA,NEG),NEXT           Still waiting, try again
 000120 1812                        2343  1  106.                LR    RS,RA
 000122 5410 A292            00368  2344  1  107.                N     RS,=X'40000000'
 000126 4770 A0D6            001AC  2345  1  108.                IF    NZ,EXIT,SIGNAL          Posted, but not by us
 00012A 47F0 A03C            00112  2359     109.              END   ,                       OF Set post code
 00012E 1812                        2364     109.01            LR    RS,RA
 000130 5410 A28E            00364  2365     109.02            IF    ('N RS,=X"80000000"',ZERO),EXIT,SIGNAL
 000134 4780 A0D6            001AC  2375             +
                                    2381     109.03   *
                                    2382     109.04   *  We know we have a waiting resume unit now
                                    2383     109.05   *
 000138 5420 A296            0036C  2384     110.              N     RA,=X'7FFFFFFF'
                                    2385     111.     *
                                    2386     112.     *  Post code set, now do resume
                                    2387     113.     *
 USING  PZERO,R0                    2388     114.              USING PZERO,R0
1SIGAWAIT (SIGA00) (09:44) (22MAR04) ORVYL'S Signal/Await routines                                                          Page   16
0Current Usings:  (PZERO,R0) (ECB,R7) (SIGNAL,R10) (@SIGNAL-72,R12)
0Loc    Object Code    Addr1 Addr2  Stmt Lv Lineno    Source Statement           (Hibal 5, Asmedit 3.3)  HLASM R4.0  2004/03/22 09.44
+___    ______ ____    _____ _____  ____ __ ______    ______ _________
000013C 5810 C054            0000C  2397     115.              L     RS,@SGASB               ASB to post
                                    2398     116.     *
                                    2399     117.     *  Post in this AS
                                    2400     118.     *    Zero ASB means post in this AS
 000140 1211/4780 A078       0014E  2401     119.              IF    ((RS,ZERO),OR,(RS,EQ,PZCURASB)),BEGIN
 000146 5910 0208            00208  2425             +
 00014A 4770 A08A            00160  2426             +
 USING  @RESUME-72,R13              2431  1  120.                PSET  @RESUME
 00014E D707 D048 D048 00000 00000  2448  1          +
 000154 9023 D048            00000  2449  1  121.                STM   RA,RB,@RESCTL
 000158 58F0 A29A/0DEF       00370  2450  1  122.                VCALL RESUMTS
 00015E 1B00                        2454  1  122.1               CLEAR RVR
 000160                             2458     123.              END   ,                       OF Post in this AS
 000160 A08E           00160 0014C  2462     124.              ELSE  BEGIN                   Schedule cross AS post
 000160 47F0 A0D6            001AC  2467             +
 DROP   @RESUME-72,R13              2473  1  125.                PSET  @SYSRDO
 USING  @SYSRDO-72,R13
 000164 D71B D048 D048 00000 00000  2493  1          +
 00016A                             2494  1  126.                PMOV  @SYSRID,@SGSRID
 00016A D203 D048 C058 00000 00010  2498  1          +
 000170 5010 D04C            00004  2499  1  127.                PMOV  @SYSRASB,(RS)
 000174 4100 A0EC            001C2  2509  1  128.                PMOV  @SYSRLOC,LA:CROSSRES
 000178 5000 D050            00008  2525  1          +
 00017C 9023 D054            0000C  2526  1  129.                STM   RA,RB,@SYSRPRM
 000180 58F0 A2A6/0DEF       0037C  2527  1  130.                VCALL SYSRDO
 000186 1200/4780 A0D6       001AC  2531  1  131.                IF    (RVR,NZ),BEGIN
 00018C 41E0 A272            00348  2545  2  131.01                ORVWTO 'Signal Cross Post Failed',MODE=SYSLOG
 000190 41F0 0018            00018  2558  2          +
 000194 4100 0001            00001  2559  2          +
 000198 83E00013                    2562  2          +
 00019C 41E0 D048            00000  2563  2  131.02                ORVWTO @SYSRDO,MODE=SYSLOG
 0001A0 41F0 001C            0001C  2576  2          +
 0001A4 4100 0001            00001  2577  2          +
 0001A8 83E00013                    2580  2          +
 0001AC                             2581  1  131.1               END   ,
 0001AC                             2585     132.              END   ,                       OF Schedule cross AS post
 DROP   PZERO,R0                    2589     133.              DROP  R0
 0001AC 981F C008            00008  2597     134.              PEND  ,
 DROP   ECB,R7
 DROP   @SIGNAL-72,R12
 DROP   SIGNAL,R10
 0001B0 9680 C000/0B0E 00000        2617             +
 DROP   @SYSRDO-72,R13
1SIGAWAIT (SIGA00) (09:44) (22MAR04) ORVYL'S Signal/Await routines                                                          Page   17
0Loc    Object Code    Addr1 Addr2  Stmt Lv Lineno    Source Statement           (Hibal 5, Asmedit 3.3)  HLASM R4.0  2004/03/22 09.44
+___    ______ ____    _____ _____  ____ __ ______    ______ _________
0                                   2627     136.     @CROSPAR EQU   @SYSPARS,8              Expecting 8 bytes of data
00001B6                             2629     138.     CROSSRES PROC  @SYSRTN
 0001B6 C3D9D6E2E2D9C5E2            2636             +
 0001BE 0010/0000                   2637             +
 0001C2 900F D004/18AF       00004  2639             +
 USING  CROSSRES,R10
 0001C8 50D0 C000/18CD       00000  2654             +
 0001CE 9680 C000      00000        2656             +
 USING  @SYSRTN-72,R12
 0001D2 41D0 C058            00058  2670             +
                                    2671     139.     *
                                    2672     140.     *  Resume task in this AS
                                    2673     141.     *
 USING  @RESUME-72,R13              2674     142.              PSET  @RESUME                 Resume this task
 0001D6 D707 D048 D048 00000 00000  2691             +
 0001DC                             2692     143.              PMOV  @RESCTL,@CROSPAR        |
 0001DC D207 D048 C048 00000 00000  2696             +
 0001E2 58F0 A1AE/0DEF       00370  2697     144.              VCALL RESUMTS                 |
 0001E8 981F C008            00008  2701     145.              PEND  ,
 DROP   @SYSRTN-72,R12
 DROP   CROSSRES,R10
 0001EC 9680 C000/0B0E 00000        2716             +
 DROP   @RESUME-72,R13
1SIGAWAIT (SIGA00) (09:44) (22MAR04) ORVYL'S Signal/Await routines                                                          Page   18
0Loc    Object Code    Addr1 Addr2  Stmt Lv Lineno    Source Statement           (Hibal 5, Asmedit 3.3)  HLASM R4.0  2004/03/22 09.44
+___    ______ ____    _____ _____  ____ __ ______    ______ _________
0                                   2726     147.     *********************************************************************
                                    2727     148.     *  Wait an address space based ECB                                  *
                                    2728     149.     *                                                                   *
                                    2729     150.     *   Input - @AWAIT                                                  *
                                    2730     151.     *                                                                   *
                                    2731     152.     *  Output - Post bit is cleared in ECB                              *
                                    2732     153.     *           RVR = Post code (4 bytes - 2 high order bits)           *
                                    2733     154.     *                                                                   *
                                    2734     155.     *********************************************************************
00001F2                             2736     157.     AWAITAS  PROC  @AWAIT,SCOPE=GLOBAL
 0001F2 C1E6C1C9E3C1E240            2742             +
 0001FA 0008/0000                   2743             +
 0001FE 900F D004/18AF       00004  2745             +
 USING  AWAITAS,R10
 000204 50D0 C000/18CD       00000  2760             +
 00020A 9680 C000      00000        2762             +
 USING  @AWAIT-72,R12
 00020E 41D0 C050            00050  2776             +
 USING  PZERO,R0                    2777     158.              USING PZERO,R0
 000212 5870 C048            00000  2786     159.              L     RY,@AWTECB
 USING  ECB,R7                      2787     160.              WITH  (ECB,RY)
                                    2800     161.     *
                                    2801     162.     *  Disable and set to suspend on next dispatch
                                    2802     163.     *
 000216 9140 7000      00000        2803     164.              IF    ~ECB.X'40',BEGIN        Not posted
 00021A 4710 A080            0027E  2814             +
 00021E ACBC 0218      00218        2819  1  165.                STNSM PZPSWM,DISABLE
 USING  @SUSPEND-72,R13             2820  1  166.                PSET  @SUSPEND                Suspend AS on next dispatch
 000222 D708 D048 D048 00000 00000  2837  1          +
 000228 9640 D050      00008        2838  1  167.                SET   @SUSPAS                 | set as AS based
 00022C 9180 C04C      00004        2844  1  168.                IF    @AWTLONG,'SET @SUSPLNG' | long term wait
 000230 47E0 A03A            00238  2854  1          +
 000234 9680 D050      00008        2865  1          +
 000238 58F0 A162/0DEF       00360  2870  1  169.                VCALL SUSPEND                 |
 00023E 5840 D048            00000  2874  1  170.                L     RJ,@SUSPID              Suspend ID - ASB
 000242 5640 A166            00364  2875  1  171.                O     RJ,=X'80000000'         | set it as waiting
                                    2876  1  172.     *
                                    2877  1  173.     *  Check ECB - can we go?
                                    2878  1  174.     *
 000246 5820 7000            00000  2879  1  175.                L     RA,ECB                  Check posted bit
 00024A                             2880  1  176.     ASWTLOOP   LOOP  BEGIN
 00024A 1812                        2887  2  177.                  LR    RS,RA                   |
 00024C 5410 A16A            00368  2888  2  178.                  N     RS,=X'40000000'         |
 000250 4780 A06E            0026C  2889  2  179.                  IF    NZ,BEGIN                Posted - no waiting
 DROP   @SUSPEND-72,R13             2900  3  180.                    PSET  @RESUME                 Turn off suspend
 USING  @RESUME-72,R13
 000254 D707 D048 D048 00000 00000  2920  3          +
 00025A 5440 A16E            0036C  2921  3  181.                    N     RJ,=X'7FFFFFFF'         |
 00025E 5040 D048            00000  2922  3  182.                    ST    RJ,@RESUNIT             |
 000262 58F0 A182/0DEF       00380  2923  3  183.                    VCALL RESUMAS                 |
 000268 47F0 A076            00274  2927  3  184.                    EXIT  ASWTLOOP
 00026C                             2930  2  185.                  END   ,                       OF Posted - no waiting
 00026C BA24 7000            00000  2934  2  186.                  CS    RA,RJ,ECB               Set as waiting
 000270 4770 A04C            0024A  2935  1  187.                UNTIL EQUAL,END               Changed - see if posted?
                                    2954  1  188.     *
1SIGAWAIT (SIGA00) (09:44) (22MAR04) ORVYL'S Signal/Await routines                                                          Page   19
0Current Usings:  (PZERO,R0) (ECB,R7) (AWAITAS,R10) (@AWAIT-72,R12) (@RESUME-72,R13)
0Loc    Object Code    Addr1 Addr2  Stmt Lv Lineno    Source Statement           (Hibal 5, Asmedit 3.3)  HLASM R4.0  2004/03/22 09.44
+___    ______ ____    _____ _____  ____ __ ______    ______ _________
0                                   2955  1  189.     *  Reenable interrupts
                                    2956  1  190.     *
 000274 8000 0218      00218        2957  1  191.                SSM   PZPSWM
                                    2958  1  192.     *
                                    2959  1  193.     *  Force a dispatch
                                    2960  1  194.     *
 000278 58F0 A176/0DEF       00374  2961  1  195.                VCALL DISPRD
 00027E                             2965     196.              END   ,                       OF Not Posted
                                    2969     197.     *
                                    2970     198.     *  When we run again, clear posted flag
                                    2971     199.     *
 00038A BF             00384 003A2  2972     199.1             CLEAR ECB.X'40',MODE=LOCKED,REF=ECB    Clear posted flag
 00027E 41F0 0001/111F       00001  2993             +
 000284 89F0 0003            00003  2995             +
 000288 44F0 A18E            0038C  2997             +
 00038B 00/BF10 A18C         0038A                   +
 00028C 58F0 7000/180F       00000  3012             +
 000292 1401/BAF0 7000       00000  3014             +
 000298 4770 A092            00290  3017             +
 00029C 5800 7000            00000  3018     201.              L     RVR,ECB                 Load post code
 DROP   PZERO,R0                    3019     202.              DROP  R0
 0002A0 981F C008            00008  3027     203.              PEND  ,
 DROP   ECB,R7
 DROP   @AWAIT-72,R12
 DROP   AWAITAS,R10
 0002A4 9680 C000/0B0E 00000        3047             +
 DROP   @RESUME-72,R13
1SIGAWAIT (SIGA00) (09:44) (22MAR04) ORVYL'S Signal/Await routines                                                          Page   20
0Loc    Object Code    Addr1 Addr2  Stmt Lv Lineno    Source Statement           (Hibal 5, Asmedit 3.3)  HLASM R4.0  2004/03/22 09.44
+___    ______ ____    _____ _____  ____ __ ______    ______ _________
0                                   3057     205.     *********************************************************************
                                    3058     206.     *  Post an address space based ECB                                  *
                                    3059     207.     *                                                                   *
                                    3060     208.     *   Input - @SIGNAL                                                 *
                                    3061     209.     *                                                                   *
                                    3062     210.     *  Output - Control word posted                                     *
                                    3063     211.     *             RVR = 0                                               *
                                    3064     211.1    *                                                                   *
                                    3065     212.     *********************************************************************
00002AA                             3067     214.     SIGNALAS PROC  @SIGNAL,SCOPE=GLOBAL
 0002AA E2C9C7D5C1D3C1E2            3073             +
 0002B2 0018/0000                   3074             +
 0002B6 900F D004/18AF       00004  3076             +
 USING  SIGNALAS,R10
 0002BC 50D0 C000/18CD       00000  3091             +
 0002C2 9680 C000      00000        3093             +
 USING  @SIGNAL-72,R12
 0002C6 41D0 C060            00060  3107             +
 0002CA 5870 C050            00008  3108     215.              L     RY,@SGECB
 USING  ECB,R7                      3109     216.              WITH  (ECB,RY)
 0002CE 9977 A0DA            00390  3122     217.              XTRC  RY,RY,POSTITS           -->
 000390 00000390                    3130  1          +
 000394 00000320/0707               3131  1          +
 00039A D7D6E2E3C9E3E240            3133             +
 0002D2 5840 C048            00000  3140     218.              L     RJ,@SGCODE              Get post code
 0002D6 5440 A0C2            00378  3141     219.              N     RJ,=X'3FFFFFFF'         | clear high bits
 0002DA 5640 A0B2            00368  3142     220.              O     RJ,=X'40000000'         | set post bit
 0002DE 5820 7000            00000  3143     221.              L     RA,ECB
                                    3144     222.     *
                                    3145     223.     *  Try to do fast-post
                                    3146     224.     *
 0002E2 1B00                        3147     225.              CLEAR RVR                     Pre set return code of success
 0002E4                             3151     226.              LOOP  BEGIN
 0002E4 1222/4740 A040       002F6  3157  1  227.                IF    (RA,NEG),DOASPOST       Currently waiting, do post
 0002EA BA24 7000            00000  3174  1  228.                CS    RA,RJ,ECB
 0002EE 4770 A02E            002E4  3175     229.              UNTIL EQUAL,END
 0002F2 47F0 A07C            00332  3194     230.              EXIT  SIGNALAS                Did fast post - scram
                                    3197     231.     *
                                    3198     232.     *  Task already waiting - post code and resume task
                                    3199     233.     *
 0002F6                             3200     234.     DOASPOST LOOP  BEGIN                   Set post code
 0002F6 BA24 7000            00000  3207  1  235.                CS    RA,RJ,ECB               |
 0002FA 4780 A05C            00312  3208  1  236.                IF    EQUAL,EXIT              We posted - do resume
 0002FE 1222/4740 A040       002F6  3222  1  237.                IF    (RA,NEG),NEXT           Still waiting, try again
 000304 1812                        3239  1  238.                LR    RS,RA
 000306 5410 A0B2            00368  3240  1  239.                N     RS,=X'40000000'
 00030A 4770 A07C            00332  3241  1  240.                IF    NZ,EXIT,SIGNALAS        Posted, but not by us
 00030E 47F0 A040            002F6  3255     241.              END   ,                       OF Set post code
                                    3260     242.     *
                                    3261     243.     *  Post code set, now do resume
                                    3262     244.     *
 000312 1812                        3263     244.1             LR    RS,RA
 000314 5410 A0AE            00364  3264     244.2             IF    ('N RS,=X"80000000"',ZERO),EXIT,SIGNALAS
 000318 4780 A07C            00332  3274             +
                                    3280     244.3    *
1SIGAWAIT (SIGA00) (09:44) (22MAR04) ORVYL'S Signal/Await routines                                                          Page   21
0Current Usings:  (ECB,R7) (SIGNALAS,R10) (@SIGNAL-72,R12)
0Loc    Object Code    Addr1 Addr2  Stmt Lv Lineno    Source Statement           (Hibal 5, Asmedit 3.3)  HLASM R4.0  2004/03/22 09.44
+___    ______ ____    _____ _____  ____ __ ______    ______ _________
0                                   3281     244.4    *  We know we have a waiting resume unit now
                                    3282     244.5    *
 USING  @RESUME-72,R13              3283     245.              PSET  @RESUME
 00031C D707 D048 D048 00000 00000  3300             +
 000322 5420 A0B6            0036C  3301     246.              N     RA,=X'7FFFFFFF'
 000326 5020 D048            00000  3302     247.              ST    RA,@RESUNIT
 00032A 58F0 A0CA/0DEF       00380  3303     248.              VCALL RESUMAS
 000330 1B00                        3307     248.1             CLEAR RVR                     Set return code of success
 000332 981F C008            00008  3311     249.              PEND  ,
 DROP   ECB,R7
 DROP   @SIGNAL-72,R12
 DROP   SIGNALAS,R10
 000336 9680 C000/0B0E 00000        3331             +
 DROP   @RESUME-72,R13
1SIGAWAIT (SIGA00) (09:44) (22MAR04) ORVYL'S Signal/Await routines                                                          Page   22
0Loc    Object Code    Addr1 Addr2  Stmt Lv Lineno    Source Statement           (Hibal 5, Asmedit 3.3)  HLASM R4.0  2004/03/22 09.44
+___    ______ ____    _____ _____  ____ __ ______    ______ _________
000033C 00000001                    3341     251.              XTRCDATA ,
 000340 00000390                    3344             +
 000348                             3345     252.              END   .
 000348 E2898795819340C3            3348                             =C'Signal Cross Post Failed'
 000360 00000000                    3349                             =V(SUSPEND)
 000364 80000000                    3350                             =X'80000000'
 000368 40000000                    3351                             =X'40000000'
 00036C 7FFFFFFF                    3352                             =X'7FFFFFFF'
 000370 00000000                    3353                             =V(RESUMTS)
 000374 00000000                    3354                             =V(DISPRD)
 000378 3FFFFFFF                    3355                             =X'3FFFFFFF'
 00037C 00000000                    3356                             =V(SYSRDO)
 000380 00000000       003A2 003A2  3357                             =V(RESUMAS)

1SIGAWAIT (SIGA00) (09:44) (22MAR04) Ordinary Symbol and Literal Cross Reference                                            Page   23
-Symbol   Length   Value     Id    R Type   Defn References                                  HLASM R4.0  2004/03/22 09.44
0$$$@R0        1 00000000 FFFFFFFE     J     714 1010
 $$$@R1        1 00000000 FFFFFFFD     J     727 1022
 $$$@R10       1 00000000 FFFFFFF4     J     844 1142
 $$$@R11       1 00000000 FFFFFFF3     J     857 1154
 $$$@R12       1 00000000 FFFFFFF2     J     870 1166
 $$$@R13       1 00000000 FFFFFFF1     J     883 1178
 $$$@R14       1 00000000 FFFFFFF0     J     896 1190
 $$$@R15       1 00000000 FFFFFFEF     J     909 1202
 $$$@R2        1 00000000 FFFFFFFC     J     740 1034
 $$$@R3        1 00000000 FFFFFFFB     J     753 1046
 $$$@R4        1 00000000 FFFFFFFA     J     766 1058
 $$$@R5        1 00000000 FFFFFFF9     J     779 1070
 $$$@R6        1 00000000 FFFFFFF8     J     792 1082
 $$$@R7        1 00000000 FFFFFFF7     J     805 1094
 $$$@R8        1 00000000 FFFFFFF6     J     818 1106
 $$$@R9        1 00000000 FFFFFFF5     J     831 1118  1130
 $$$C1SIGAWAIT
               1 000003A2 00000001     J    3358 3360
 $$$D0SIGAWAIT
               1 00000384 00000001     J    1222 2103  2121  2981  2999  3126
 $$$R@ACREATE
               1 00000000 FFFFFFE8     J    1478 1491  1491
 $$$R@AWAIT
               1 00000000 FFFFFFDC     J    1777 1799  1799
 $$$R@DISPPIOC
               1 00000000 FFFFFFED     J    1344 1357  1357
 $$$R@DISPSIOC
               1 00000000 FFFFFFEC     J    1363 1376  1376
 $$$R@DISPSWP
               1 00000000 FFFFFFE9     J    1455 1468  1468
 $$$R@DSPSTAT
               1 00000000 FFFFFFDD     J    1749 1765  1765
 $$$R@MONSET
               1 00000000 FFFFFFDE     J    1726 1739  1739
 $$$R@PERSET
               1 00000000 FFFFFFDF     J    1703 1716  1716
 $$$R@RESUME
               1 00000000 FFFFFFEA     J    1430 1445  1445
 $$$R@SIGNAL
               1 00000000 FFFFFFDB     J    1810 1830  1830
 $$$R@SUSPEND
               1 00000000 FFFFFFEB     J    1386 1420  1420
 $$$R@SYSRDEL
               1 00000000 FFFFFFE2     J    1631 1644  1644
 $$$R@SYSRDO
               1 00000000 FFFFFFE1     J    1654 1670  1670
 $$$R@SYSRNEW
               1 00000000 FFFFFFE3     J    1609 1622  1622
 $$$R@SYSRTN
               1 00000000 FFFFFFE0     J    1680 1693  1693
 $$$R@TCREATE
               1 00000000 FFFFFFE7     J    1501 1530  1530
 $$$R@TENTRY
               1 00000000 FFFFFFE5     J    1563 1576  1576
 $$$R@TEXIT
1SIGAWAIT (SIGA00) (09:44) (22MAR04) Ordinary Symbol and Literal Cross Reference                                            Page   24
               1 00000000 FFFFFFE4     J    1586 1599  1599
 $$$R@TREMOVE
               1 00000000 FFFFFFE6     J    1540 1553  1553
 $$$RECB       1 00000000 FFFFFFDA     J    1836 1849  1849
 $$$RPZERO
               1 00000000 FFFFFFEE     J    1237 1328  1328
 $$$TR$0       4 00000390 00000001     A    3130 3124  3130  3344
 $$$1F         2 0000009E 00000001     H    2090 1942B
 $$$10         4 00000386 00000001     I    2126 2127  2127
 $$$11F        2 000001AC 00000001     H    2615 2300B 2353B 2375B
 $$$12S        2 000000FE 00000001     H    2255 2288B
 $$$16F        2 0000012E 00000001     H    2363 2320B
 $$$16S        2 00000112 00000001     H    2309 2337B 2362B
 $$$21B        4 0000014A 00000001     I    2426 2464
 $$$21F        2 00000160 00000001     H    2461 2426B 2463
 $$$21T        2 0000014E 00000001     H    2429 2414B
 $$$23E        2 00000164 00000001     H    2471 2465
 $$$23F        2 000001AC 00000001     H    2588 2467B
 $$$24F        2 000001AC 00000001     H    2584 2540B
 $$$27F        2 0000027E 00000001     H    2968 2814B
 $$$29F        2 00000238 00000001     H    2869 2854B
 $$$3F         2 00000058 00000001     H    1991 1976B
 $$$30F        2 00000274 00000001     H    2951 2929B
 $$$30S        2 0000024A 00000001     H    2885 2948B
 $$$31F        2 0000026C 00000001     H    2933 2895B
 $$$35         4 0000038C 00000001     I    3005 2997X
 $$$36         4 0000038C 00000001     I    3004 3005  3005
 $$$37F        2 00000332 00000001     H    3329 3196B 3249B 3274B
 $$$39S        2 000002E4 00000001     H    3155 3188B
 $$$4F         2 00000094 00000001     H    2073 2051B
 $$$4S         2 0000006A 00000001     H    2007 2070B
 $$$43F        2 00000312 00000001     H    3259 3216B
 $$$43S        2 000002F6 00000001     H    3205 3233B 3258B
 $$$5F         2 0000008C 00000001     H    2055 2017B
 $$$9          4 00000386 00000001     I    2127 2119X
 $NLL0525      2 000000B0 00000001     I    2135 2139B
 $NLL1062      2 00000290 00000001     I    3013 3017B
 $NLM0525      1 00000384 00000001     R    2108 2126
 $NLM1062      1 0000038A 00000001     R    2986 3004
 @AWAIT        5 00000000 FFFFFFDC     J    1799 1900U 2772U
 @AWTECB       4 00000000 FFFFFFDC     A    1783 1914  2786
 @AWTFLG       1 00000004 FFFFFFDC     R    1786 1790
 @AWTLONG    128 00000004 FFFFFFDC         1790 1975  2853
 @CROSPAR      8 00000000 FFFFFFE0     U    2627 2696
 @RESCTL       8 00000000 FFFFFFEA     D    1436 2044M 2449M 2696M
 @RESUME       8 00000000 FFFFFFEA     J    1445 2034U 2042M 2042  2440U 2448M 2448  2683U 2691M 2691  2912U 2920M 2920
                                                 3292U 3300M 3300
 @RESUNIT      4 00000000 FFFFFFEA     A    1437 2922M 3302M
 @R0           0 00000000 FFFFFFFE     @     715  991U 2146U 2594U 3024U
 @R1           0 00000000 FFFFFFFD     @     728  987U
 @R10          0 00000000 FFFFFFF4     @     845  951U 2165U 2613U 2712U 3043U 3327U
 @R11          0 00000000 FFFFFFF3     @     858  947U
 @R12          0 00000000 FFFFFFF2     @     871  943U 2160U 2608U 2707U 3038U 3322U
 @R13          0 00000000 FFFFFFF1     @     884  939U 2031U 2176U 2482U 2624U 2723U 2909U 3054U 3338U
 @R14          0 00000000 FFFFFFF0     @     897  935U
 @R15          0 00000000 FFFFFFEF     @     910  931U
 @R2           0 00000000 FFFFFFFC     @     741  983U
 @R3           0 00000000 FFFFFFFB     @     754  979U
 @R4           0 00000000 FFFFFFFA     @     767  975U
1SIGAWAIT (SIGA00) (09:44) (22MAR04) Ordinary Symbol and Literal Cross Reference                                            Page   25
 @R5           0 00000000 FFFFFFF9     @     780  971U
 @R6           0 00000000 FFFFFFF8     @     793  967U
 @R7           0 00000000 FFFFFFF7     @     806  963U 2155U 2603U 3033U 3317U
 @R8           0 00000000 FFFFFFF6     @     819  959U
 @R9           0 00000000 FFFFFFF5     @     832  955U
 @SGASB        4 0000000C FFFFFFDB     A    1821 2397
 @SGCODE       8 00000000 FFFFFFDB     D    1816 2244  3140
 @SGECB        4 00000008 FFFFFFDB     A    1817 2230  3108
 @SGSRID       4 00000010 FFFFFFDB     A    1822 2498
 @SIGNAL      20 00000000 FFFFFFDB     J    1830 2225U 3103U
 @SUSPAS      64 00000008 FFFFFFEB         1406 2843M
 @SUSPCTL      8 00000000 FFFFFFEB     D    1392 1996
 @SUSPEND      9 00000000 FFFFFFEB     J    1420 1957U 1965M 1965  2829U 2837M 2837
 @SUSPFLG      1 00000008 FFFFFFEB     R    1397 1401  1406  1411
 @SUSPID       4 00000000 FFFFFFEB     A    1393 2874
 @SUSPLNG    128 00000008 FFFFFFEB         1401 1987M 2865M
 @SYSPARS      4 00000000 FFFFFFE0     A    1686 2627
 @SYSRASB      4 00000004 FFFFFFE1     A    1661 2508M
 @SYSRDO      28 00000000 FFFFFFE1     J    1670 2485U 2493M 2493  2570  2576
 @SYSRID       4 00000000 FFFFFFE1     A    1660 2498M
 @SYSRLOC      4 00000008 FFFFFFE1     A    1662 2525M
 @SYSRPRM      4 0000000C FFFFFFE1     A    1663 2526M
 @SYSRTN      16 00000000 FFFFFFE0     J    1693 2666U
 @TCRFLAG      1 00000014 FFFFFFE7     R    1512 1516  1521
 AWAIT         4 00000022 00000001     I    1873 1868  1884U
 AWAITAS       4 000001FE 00000001     I    2745 2740  2756U
 BR           10 0000000A FFFFFFFF A   #    1136 1874M 1884U 2199M 2209U 2640M 2650U 2746M 2756U 3077M 3087U
 CROSSRES      4 000001C2 00000001     I    2639 2520  2650U
 DISABLE       1 000000BC FFFFFFFF A   U    1216 1947  2819
 DISPRD        1 00000000 00000004     T    3354 3354
 DOASPOST      2 000002F6 00000001     H    3202 3168B
 DOPOST        2 00000112 00000001     H    2306 2268B
 ECB           8 00000000 FFFFFFDA     J    1849 1924U 1941  2001  2056M 2117  2117  2117  2117  2134  2134  2134  2138M
                                                 2138M 2138M 2140  2240U 2247  2274M 2311M 2796U 2813  2879  2934M 2995
                                                 2995  2995  2995  3012  3012  3012  3016M 3016M 3016M 3018  3118U 3143
                                                 3174M 3207M
 EPAR         15 0000000F FFFFFFFF A   #    1196 1874  1994M 1995B 2047M 2048B 2085M 2086B 2199  2452M 2453B 2529M 2530B
                                                 2640  2699M 2700B 2746  2872M 2873B 2925M 2926B 2963M 2964B 3077  3305M
                                                 3306B
 HIBAL         1 00000000 FFFFFFFF     J     700  716   729   742   755   768   781   794   807   820   833   846   859
                                                  872   885   898   911  1012  1024  1036  1048  1060  1072  1084  1096
                                                 1108  1120  1132  1144  1156  1168  1180  1192  1204
 PZCURASB      4 00000208 FFFFFFEE     A    1294 2425
 PZERO       640 00000000 FFFFFFEE     J    1328 1912U 2395U 2784U
 PZPSWM        1 00000218 FFFFFFEE     X    1298 1947M 2079  2819M 2957
 PZTERMFL      1 0000021A FFFFFFEE     R    1305 1309  1314
 RA            2 00000002 FFFFFFFF A   #    1028 2001M 2009  2056M 2247M 2265M 2265  2274M 2311M 2334M 2334  2343  2364
                                                 2384M 2449  2526  2879M 2887  2934M 3143M 3165M 3165  3174M 3207M 3230M
                                                 3230  3239  3263  3301M 3302
 RAR          14 0000000E FFFFFFFF A   #    1184 1995M 2048M 2086M 2170B 2453M 2530M 2618B 2700M 2717B 2873M 2926M 2964M
                                                 3048B 3306M 3332B
 RB            3 00000003 FFFFFFFF A   #    1040 2001M 2247M 2449  2526
 RESUMAS       1 00000000 00000006     T    3357 3357
 RESUMTS       1 00000000 00000003     T    3353 3353
 RJ            4 00000004 FFFFFFFF A   #    1052 1996M 1997M 2043M 2044  2056  2244M 2245M 2246M 2274  2311  2874M 2875M
                                                 2921M 2922  2934  3140M 3141M 3142M 3174  3207
 RK            5 00000005 FFFFFFFF A   #    1064 1996M 2044  2244M
 ROSSRES8      2 000001B6 00000001     H    2634 2633
 RS            1 00000001 FFFFFFFF A   #    1016 2009M 2010M 2343M 2344M 2364M 2372M 2397M 2411M 2411  2425  2887M 2888M
1SIGAWAIT (SIGA00) (09:44) (22MAR04) Ordinary Symbol and Literal Cross Reference                                            Page   26
                                                 3239M 3240M 3263M 3271M
 RVR           0 00000000 FFFFFFFF A   #    1004 2140M 2297M 2297  2457M 2457  2520M 2539M 2539  3018M 3150M 3150  3310M
                                                 3310
 RY            7 00000007 FFFFFFFF A   #    1088 1914M 1924U 2230M 2240U 2786M 2796U 3108M 3118U 3124  3124  3132  3132
 R0            0 00000000 FFFFFFFF A   #     708 1873  1912U 2135M 2136M 2138  2198  2395U 2559M 2562  2577M 2580  2639
                                                 2745  2784U 3013M 3014M 3016  3076
 R1            1 00000001 FFFFFFFF A   #     721 2116M 2126M 2136  2168M 2616M 2715M 2994M 3004M 3014  3046M 3330M
 R14          14 0000000E FFFFFFFF A   #     890 2562  2580
 R15          15 0000000F FFFFFFFF A   #     903 1873  2115M 2116  2117M 2119  2134M 2135  2138M 2168M 2198  2616M 2639
                                                 2715M 2745  2993M 2994  2995M 2997  3012M 3013  3016M 3046M 3076  3330M
 SIGAWAIT      1 00000000 00000001     J    1221 1218  1219  1223  1329  1358  1377  1421  1446  1469  1492  1531  1554
                                                 1577  1600  1623  1645  1671  1694  1717  1740  1766  1800  1831  1850
                                                 2113  2132  2991  3010  3138
 SIGA00        1 00000000 00000001     R    1230 1228
 SIGNAL        4 000000D6 00000001     I    2198 2193  2209U
 SIGNALAS      4 000002B6 00000001     I    3076 3071  3087U
 SPR          13 0000000D FFFFFFFF A   #    1172 1873  1888  1889  1904M 1957U 2034U 2198  2213  2214  2229M 2440U 2485U
                                                 2639  2654  2655  2670M 2683U 2745  2760  2761  2776M 2829U 2912U 3076
                                                 3091  3092  3107M 3292U
 SUSPEND       1 00000000 00000002     T    3349 3349
 SYSRDO        1 00000000 00000005     T    3356 3356
 TRCD8         4 0000033C 00000001     A    3343 3342
 WAR          12 0000000C FFFFFFFF A   #    1160 1888  1889M 1890  1900U 1904  2168  2169  2213  2214M 2215  2225U 2229
                                                 2616  2617  2654  2655M 2656  2666U 2670  2715  2716  2760  2761M 2762
                                                 2772U 2776  3046  3047  3091  3092M 3093  3103U 3107  3330  3331
 =C'Signal Cross Post Failed'
              24 00000348 00000001     C    3348 2552
 =V(DISPRD)
               4 00000374 00000001     V    3354 2085  2963
 =V(RESUMAS)
               4 00000380 00000001     V    3357 2925  3305
 =V(RESUMTS)
               4 00000370 00000001     V    3353 2047  2452  2699
 =V(SUSPEND)
               4 00000360 00000001     V    3349 1994  2872
 =V(SYSRDO)
               4 0000037C 00000001     V    3356 2529
 =X'3FFFFFFF'
               4 00000378 00000001     X    3355 2245  3141
 =X'40000000'
               4 00000368 00000001     X    3351 2010  2246  2344  2888  3142  3240
 =X'7FFFFFFF'
               4 0000036C 00000001     X    3352 2043  2384  2921  3301
 =X'80000000'
               4 00000364 00000001     X    3350 1997  2372  2875  3271

1SIGAWAIT (SIGA00) (09:44) (22MAR04) Macro and Copy Code Source Summary                                                     Page   27
- Con Source                                        Volume    Members                        HLASM R4.0  2004/03/22 09.44
0     PRIMARY INPUT                                           CSECT    DROP     END      EX       LTORG    POP
                                                              PRINT    PUSH     START    USING
   L2 WYL.GG.ORV.MACLIB                             SYSB02    $LKPARM  DISPPARM HEADER   MODULE   ORVWTO   PEND     PMOV
                                                              PROC     PSET     PZERO    REG      SIGPARM  SPLEVEL
                                                              SYSCTL   VCALL    XTRC     XTRCDATA
   L3 WYL.GG.SYS.MACLIB                             SYSB05    $BC      $BFLKUP  $BV      $CCLKUP  $CRS     $L       $LA
                                                              $LBLAD   $LEXP    $LOR     $NIL     $REL     $RGLKUP
                                                              $USLKUP  BEGIN    CLEAR    CSECT    DATA     DEFCC    DIAG
                                                              DROP     ELSE     END      EX       EXIT     FLAG     GEN
                                                              HIBAL    IDENT    IF       LABEL    LOOP     LTORG    POP
                                                              PRINT    PUSH     RECORD   REGS     SET      START    STF
                                                              UNTIL    USING    WHILE    WITH

1         (SIGA00) (09:44) (22MAR04) General Purpose Register Cross Reference                                               Page   28
- Register  References (M=modified, B=branch, U=USING, D=DROP, N=index)                      HLASM R4.0  2004/03/22 09.44
0    0(0)     991U  992D 1873  2135M 2136M 2138  2140M 2146U 2147D 2198  2297M 2297  2395U 2457M 2457  2520M 2525  2539M
             2539  2559M 2577M 2594U 2595D 2639  2745  3013M 3014M 3016  3018M 3025D 3076  3150M 3150  3310M 3310
     1(1)     987U 1873  2009M 2010M 2116M 2126M 2136  2168M 2198  2343M 2344M 2364M 2372M 2397M 2411M 2411  2425  2508
             2616M 2639  2715M 2745  2887M 2888M 2994M 3004M 3014  3046M 3076  3239M 3240M 3263M 3271M 3330M
     2(2)     983U 1873  2001M 2009  2056M 2168M 2198  2247M 2265M 2265  2274M 2311M 2334M 2334  2343  2364  2384M 2449
             2526  2616M 2639  2715M 2745  2879M 2887  2934M 3046M 3076  3143M 3165M 3165  3174M 3207M 3230M 3230  3239
             3263  3301M 3302  3330M
     3(3)     979U 1873  2001M 2056M 2168M 2198  2247M 2274M 2311M 2449  2526  2616M 2639  2715M 2745  3046M 3076  3330M
     4(4)     975U 1873  1996M 1997M 2043M 2044  2056  2168M 2198  2244M 2245M 2246M 2274  2311  2616M 2639  2715M 2745
             2874M 2875M 2921M 2922  2934  3046M 3076  3140M 3141M 3142M 3174  3207  3330M
     5(5)     971U 1873  1996M 2044  2056  2168M 2198  2244M 2274  2311  2616M 2639  2715M 2745  3046M 3076  3330M
     6(6)     967U 1873  2168M 2198  2616M 2639  2715M 2745  3046M 3076  3330M
     7(7)     963U 1873  1914M 1924U 2155U 2168M 2198  2230M 2240U 2603U 2616M 2639  2715M 2745  2786M 2796U 3033U 3046M
             3076  3108M 3118U 3124  3330M
     8(8)     959U 1873  2168M 2198  2616M 2639  2715M 2745  3046M 3076  3330M
     9(9)     955U 1873  2168M 2198  2616M 2639  2715M 2745  3046M 3076  3330M
    10(A)     951U 1873  1874M 1884U 2165U 2168M 2198  2199M 2209U 2613U 2616M 2639  2640M 2650U 2712U 2715M 2745  2746M
             2756U 3043U 3046M 3076  3077M 3087U 3327U 3330M
    11(B)     947U 1873  2168M 2198  2616M 2639  2715M 2745  3046M 3076  3330M
    12(C)     943U 1873  1888  1889M 1890  1900U 1904  2160U 2168M 2168  2169  2198  2213  2214M 2215  2225U 2229  2608U
             2616M 2616  2617  2639  2654  2655M 2656  2666U 2670  2707U 2715M 2715  2716  2745  2760  2761M 2762  2772U
             2776  3038U 3046M 3046  3047  3076  3091  3092M 3093  3103U 3107  3322U 3330M 3330  3331
    13(D)     939U 1873  1873  1888  1889  1904M 1957U 2031U 2034U 2168M 2176U 2198  2198  2213  2214  2229M 2440U 2482U
             2485U 2616M 2624U 2639  2639  2654  2655  2670M 2683U 2715M 2723U 2745  2745  2760  2761  2776M 2829U 2909U
             2912U 3046M 3054U 3076  3076  3091  3092  3107M 3292U 3330M 3338U
    14(E)     935U 1873  1995M 2048M 2086M 2168M 2170B 2198  2453M 2530M 2552M 2570M 2616M 2618B 2639  2700M 2715M 2717B
             2745  2873M 2926M 2964M 3046M 3048B 3076  3306M 3330M 3332B
    15(F)     931U 1873  1874  1994M 1995B 2047M 2048B 2085M 2086B 2115M 2116  2117M 2119  2134M 2135  2138M 2168M 2198
             2199  2452M 2453B 2529M 2530B 2558M 2576M 2616M 2639  2640  2699M 2700B 2715M 2745  2746  2872M 2873B 2925M
             2926B 2963M 2964B 2993M 2994  2995M 2997  3012M 3013  3016M 3046M 3076  3077  3305M 3306B 3330M

1SIGAWAIT (SIGA00) (09:44) (22MAR04) Diagnostic Cross Reference and Assembler Summary                                       Page   29
-                                                                                            HLASM R4.0  2004/03/22 09.44
0     No Statements Flagged in this Assembly
 HIGH LEVEL ASSEMBLER, 5696-234, RELEASE 4.0, PTF UQ57391
0SYSTEM: OS/390 02.10.00            JOBNAME: PJG#SIG     STEPNAME: ASM        PROCSTEP: (NOPROC)
0Datasets Allocated for this Assembly
  Con DDname   Dataset Name                                 Volume  Member
   P1 SYSIN    SYS04082.T094401.RA000.PJG#SIG.INPUT.H01     SCR100
   L1 SYSLIB   SYS3.DUMMYMAC                                SYSB02
   L2          WYL.GG.ORV.MACLIB                            SYSB02
   L3          WYL.GG.SYS.MACLIB                            SYSB05
      SYSLIN   WYL.GG.PJG.OBJ                               SYSB05  SIGAWAIT
      SYSPRINT SYS04082.T094401.RA000.PJG#SIG.PRINT.H01     SCR100
      SYSTERM  GG$PJG.PJG#SIG.JOB05960.D0000103.?

    7812K allocated to Buffer Pool,          673K would be required for this to be an In-Storage Assembly
     270 Primary Input Records Read         3878 Library Records Read                  0 Work File Reads
       0 ASMAOPT Records Read               1795 Primary Print Records Written         0 Work File Writes
      36 Punch Records Written                 0 ADATA Records Written
0Assembly Start Time: 09.44.03 Stop Time: 09.44.07 Processor Time: 00.00.00.7005
 Return Code 000
